SO FAMCHA021201043000043011000011Sign On (oct 1)                                                                                                                                                
PROFAMCHA021201043011043020000009CC Disclaimer - FAST - Generic (:08-:10)                                                                                    150                                
PGRFAMCHA021201043020045248002228Out of the Box                                    Out to Lunch                                                         60686110CC                              
PROFAMCHA021201045248045302000014Nonstop Wknd LU - 01(PH)- ART/KATIE/HOZE (:13-:16)                                                                          150                                
PRCFAMCHA021201045302045324000022Hoze Houndz (FIREFIGHTER) - Today @ 5:40am                                                                                  150                                
PRCFAMCHA021201045324045348000024Franklin (LADDER) - Tonight @ 6:15pm                                                                                        150                                
OFFFAMCHA021201045348045400000012PS Playhouse Block Open (:10-:15)                                                                                                                              
PGRFAMCHA021201045400051841002441Art Attack                                        1-093                                                                60686110                                
PROFAMCHA021201051841051855000014Nonstop Wknd LU - 02(PG)- KATIE/HOZE/LULU (:13-:16                                                                          150                                
OFFFAMCHA021201051855051905000010PS Playground Block Open (:10-:15) *DNU POST AUG 1                                                                                                             
PROFAMCHA021201051905051914000009CC Disclaimer - FAST - Family (:08-:10)                                                                                     150                                
PGRFAMCHA021201051914054552002638Katie And Orbie                                   Paper Flowers/Car Wash/Just Doing My Job                      C19665A1065607ECC                              
PROFAMCHA021201054552054604000012Nonstop Wknd LU - 03(PG)- HOZE/LULU (:10-:13)                                                                               150                                
OFFFAMCHA021201054604054617000013PS Playground Block Open (:10-:15) *DNU POST AUG 1                                                                                                             
PROFAMCHA021201054617054626000009CC Disclaimer - FAST - Family.ca (:08-:10)                                                                                  150                                
PGRFAMCHA021201054626060901002235Hoze Houndz                                       Brainwash/Money For Nuthin'                                   B34010 1065607ECC                              
PROFAMCHA021201060901060911000010Nonstop Wknd LU - 04(PG)- LULU (:08-:11)                                                                                    150                                
OFFFAMCHA021201060911060924000013PS Playground Block Open (:10-:15) *DNU POST AUG 1                                                                                                             
PROFAMCHA021201060924060933000009CC Disclaimer - FAST - Generic (:08-:10)                                                                                    150                                
PGRFAMCHA021201060933063305002332Little Lulu Show; The                             Lulu Stays Put, Shoeless Lulu, Star Search                    B20195A1065607ECC                              
PROFAMCHA021201063305063319000014Power Box Line-Up - 01 - POWER1/POWER2/SMART (:13-                                                                          150                                
OFFFAMCHA021201063319063329000010Power Box Block Open (:10-:15)                                                                                                                                 
PGRFAMCHA021201063329065458002129Power Rangers Wild Force                          The Wings of Anamaria                                               A6068607E                                
PROFAMCHA021201065458065512000014NSW - 06(PB-SAT)- PRWF2/SMART/LIZZIE (:13-:16)                                                                              150                                
PROFAMCHA021201065512065542000030Weekend Double Pix Promo - Today @ 12pm                                                                                     150                                
PROFAMCHA021201065542065558000016Lizzie McGuire (MONEY TREE) - Today @ 8am                                                                                   150                                
PROFAMCHA021201065558065628000030Movie Surfers Santa Clause 2 - Premieres Tomorrow                                                                           150                                
INTFAMCHA021201065628065846000218Art Attack - Windmill                                                                                                  60688120                                
PROFAMCHA021201065846065916000030xxBoy Meets World - Today @ 10:15am                                                                                         150                                
PROFAMCHA021201065916065946000030Holiday Fun - 7PM SPECIALS - Starting Tomorrow @ 7                                                                          150                                
OFFFAMCHA021201065946070000000014Power Box Block Open (:10-:15)                                                                                                                                 
PGRFAMCHA021201070000072128002128Power Rangers Wild Force                          Reinforcements From The Future, Part 1                              A6068607E                                
PROFAMCHA021201072128072142000014Nonstop Wknd LU - 05(SUN)- SMRT/LIZ/AMND (:13-:16)                                                                          150                                
PROFAMCHA021201072142072212000030Holiday Fun - 7PM SPECIALS - Starting Tomorrow @ 7                                                                          150                                
PRCFAMCHA021201072212072242000030Get Wild On Family Contest                                                                                                  150                                
INTFAMCHA021201072242072619000337MV Disney - Supergirl (KRYSTAL MARIE HARRIS)                                                                           60688120                                
PROFAMCHA021201072619072649000030xxKim Possible (GENERIC) - Today @ 4:35pm                                                                                   150                                
INTFAMCHA021201072649072914000225Art Attack - Snooker                                                                                                   60686120                                
PROFAMCHA021201072914072947000033xxTeen Angel/You Wish - Today @ 11:05am                                                                                     150                                
OFFFAMCHA021201072947073000000013Nonstop Weekend Block Open (:10-:15)                                                                                                                           
PROFAMCHA021201073000073009000009CC Disclaimer - FAST - Generic (:08-:10)                                                                                    150                                
PGRFAMCHA021201073009075237002228Smart Guy                                         A Little Knowledge                                                  A6068807BCC                              
PROFAMCHA021201075237075251000014Nonstop Wknd LU - 06 - LIZZIE/AMANDA/ALL (:13-:16)                                                                          150                                
PROFAMCHA021201075251075321000030Weekend Double Pix Promo - Today @ 12pm                                                                                     150                                
PRCFAMCHA021201075321075351000030Holiday Fun Contest                                                                                                         150                                
PROFAMCHA021201075351075407000016Nonstop Weekend - HOUSE OF MOUSE - Me, Myself & I                                                                           150                                
INTFAMCHA021201075407075818000411MV Disney - I'm Still Here **DNU***                                                                                    60688120                                
PROFAMCHA021201075818075838000020xxAll That - Today @ 9am *DNU*                                                                                              150                                
PROFAMCHA021201075838075908000030Movie Surfers Santa Clause 2 - Premieres Tomorrow                                                                           150                                
PROFAMCHA021201075908075938000030Holiday Fun - 7PM SPECIALS - Starting Tomorrow @ 7                                                                          150                                
OFFFAMCHA021201075938075952000014Nonstop Weekend Block Open (:10-:15)                                                                                                                           
ID FAMCHA021201075952080000000008Magic of Disney - NS/NSW/PB - Wipe (:06-:09)                                                                                150                                
PROFAMCHA021201080000080009000009CC Disclaimer - FAST - Family.ca (:08-:10)                                                                                  150                                
PGRFAMCHA021201080009082240002231Lizzie McGuire                                    Just Like Lizzie                                                    A6068607BCC                              
PROFAMCHA021201082240082254000014Nonstop Wknd LU - 07 - AMANDA/ALL/EVEN (:13-:16)                                                                            150                                
PROFAMCHA021201082254082324000030Weekend Double Pix Promo - Today @ 12pm                                                                                     150                                
INTFAMCHA021201082324082533000209MV Disney - Santa Claus Lane *CHRISTMAS* (HILARY D                                                                     60688120                                
PRCFAMCHA021201082533082603000030Lizzie Chat - December 18th @ 7pm                                                                                           150                                
PRCFAMCHA021201082603082633000030Get Wild On Family Contest                                                                                                  150                                
PROFAMCHA021201082633082706000033xxTeen Angel/You Wish - Today @ 11:05am                                                                                     150                                
PROFAMCHA021201082706082744000038Even Stevens (BUTLER) - Today @ 9:25am                                                                                      150                                
INTFAMCHA021201082744082914000130Klootz - Ferme 01                                                                                                     A10658120                                
PROFAMCHA021201082914082944000030Holiday Fun - 7PM SPECIALS - Starting Tomorrow @ 7                                                                          150                                
OFFFAMCHA021201082944082959000015Nonstop Weekend Block Open (:10-:15)                                                                                                                           
PGRFAMCHA021201082959085204002205Amanda Show; The                                  2-036                                                               A20686090                                
PROFAMCHA021201085204085218000014Nonstop Wknd LU - 08 - ALL/EVEN/JERSEY (:13-:16)                                                                            150                                
PROFAMCHA021201085218085248000030Holiday Fun - 7PM SPECIALS - Starting Tomorrow @ 7                                                                          150                                
PROFAMCHA021201085248085318000030Nonstop Weekend - TEEN/WISH - Difference                                                                                    150                                
PRCFAMCHA021201085318085348000030Get Wild On Family Contest                                                                                                  150                                
INTFAMCHA021201085348085733000345MV Disney - Deck The Halls *CHRISTMAS*                                                                                 60688120                                
PROFAMCHA021201085733085808000035Nonstop Weekend - AMANDA SHOW - Basketballs                                                                                 150                                
PROFAMCHA021201085808085830000022xxTeamo Supremo (PIE) - Today @ 5pm                                                                                         150                                
PROFAMCHA021201085830085920000050Nonstop Weekend - EVEN STEVENS - Fiesta                                                                                     150                                
PROFAMCHA021201085920085950000030xxBoy Meets World - Today @ 10:15am                                                                                         150                                
OFFFAMCHA021201085950090000000010Nonstop Weekend Block Open (:10-:15)                                                                                                                           
PGRFAMCHA021201090000092421002421All That                                          610                                                                 A20686090                                
PROFAMCHA021201092421092435000014Nonstop Wknd LU - 09 - EVEN/JERSEY/BMW (:13-:16)                                                                            150                                
PROFAMCHA021201092435092505000030Weekend Double Pix Promo - Today @ 12pm                                                                                     150                                
PRCFAMCHA021201092505092535000030Holiday Fun Contest                                                                                                         150                                
PROFAMCHA021201092535092605000030xxBoy Meets World - Today @ 10:15am                                                                                         150                                
INTFAMCHA021201092605092846000241MV Disney - Baby Mine (MICHAEL CRAWFORD)                                                                               60688120                                
PROFAMCHA021201092846092909000023Proud Family (HERO) - Today @ 4:10pm                                                                                        150                                
PROFAMCHA021201092909092939000030Movie Surfers Santa Clause 2 - Premieres Tomorrow                                                                           150                                
OFFFAMCHA021201092939092952000013Nonstop Weekend Block Open (:10-:15)                                                                                                                           
ID FAMCHA021201092952093000000008Magic of Disney - NS/NSW/PB - Wipe (:06-:09)                                                                                150                                
PROFAMCHA021201093000093009000009CC Disclaimer - FAST - Generic (:08-:10)                                                                                    150                                
PGRFAMCHA021201093009095245002236Even Stevens                                      Sibling Rivalry                                                     A6068807BCC                              
PROFAMCHA021201095245095259000014Nonstop Wknd LU - 10 - JERSEY/BMW/SMART (:13-:16)                                                                           150                                
OFFFAMCHA021201095259095309000010Nonstop Weekend Block Open (:10-:15)                                                                                                                           
ID FAMCHA021201095309095317000008Magic of Disney - NS/NSW/PB - Shape (:06-:09)                                                                               150                                
PROFAMCHA021201095317095326000009CC Disclaimer - FAST - Family.ca (:08-:10)                                                                                  150                                
PGRFAMCHA021201095326101556002230Jersey; The                                       Unemployed                                                           6068607ACC                              
PROFAMCHA021201101556101610000014Nonstop Wknd LU - 11 - BMW/SMART/TEEN (:13-:16)                                                                             150                                
PRCFAMCHA021201101610101640000030Holiday Fun Contest                                                                                                         150                                
PROFAMCHA021201101640101717000037Amanda Show (CLEAN) - Weeknights @ 6pm                                                                                      150                                
PROFAMCHA021201101717101747000030Holiday Fun - 7PM SPECIALS - Starting Tomorrow @ 7                                                                          150                                
OFFFAMCHA021201101747101800000013Nonstop Weekend Block Open (:10-:15)                                                                                                                           
PROFAMCHA021201101800101809000009CC Disclaimer - FAST - Generic (:08-:10)                                                                                    150                                
PGRFAMCHA021201101809104036002227Boy Meets World                                   Who's Afraid of Cory Wolf?                                          B6068807BCC                              
PROFAMCHA021201104036104050000014Nonstop Wknd LU - 12 - SMART/TEEN/YOU (:13-:16)                                                                             150                                
PROFAMCHA021201104050104120000030Holiday Fun - 7PM SPECIALS - Starting Tomorrow @ 7                                                                          150                                
PROFAMCHA021201104120104144000024Your Big Break (BRIAN SETZER) - Tonight @ 8pm                                                                               150                                
PROFAMCHA021201104144104214000030Nonstop Weekend - EVEN STEVENS - Gym Test                                                                                   150                                
PROFAMCHA021201104214104247000033xxTeen Angel/You Wish - Today @ 11:05am                                                                                     150                                
OFFFAMCHA021201104247104300000013Nonstop Weekend Block Open (:10-:15)                                                                                                                           
PROFAMCHA021201104300104309000009CC Disclaimer - FAST - Generic (:08-:10)                                                                                    150                                
PGRFAMCHA021201104309110524002215Smart Guy                                         Baby It's You...and You...and You                                   A6068807BCC                              
PROFAMCHA021201110524110538000014Nonstop Wknd LU - 13 - TEEN/YOU/D-PIX (:13-:16)                                                                             150                                
PROFAMCHA021201110538110608000030Weekend Double Pix Promo - Today @ 12pm                                                                                     150                                
PROFAMCHA021201110608110649000041Amanda Show (KYLE) - Weeknights @ 6pm                                                                                       150                                
OFFFAMCHA021201110649110700000011Nonstop Weekend Block Open (:10-:15)                                                                                                                           
PROFAMCHA021201110700110709000009CC Disclaimer - FAST - Family.ca (:08-:10)                                                                                  150                                
PGRFAMCHA021201110709112828002119Teen Angel                                        Look Ma, No Face                                                    A6028807BCC                              
PROFAMCHA021201112828112840000012Nonstop Wknd LU - 14 - YOU/D-PIX (:10-:13)                                                                                  150                                
PROFAMCHA021201112840112910000030Weekend Double Pix Promo - Today @ 12pm                                                                                     150                                
PRCFAMCHA021201112910112940000030Holiday Fun Contest                                                                                                         150                                
PROFAMCHA021201112940113019000039Nonstop Weekend - LIZZIE MCGUIRE - Blooper #1 *DNU                                                                          150                                
PROFAMCHA021201113019113046000027Even Stevens (GOLF) - Tomorrow @ 7pm                                                                                        150                                
PRCFAMCHA021201113046113116000030Lizzie Chat - December 18th @ 7pm                                                                                           150                                
PRCFAMCHA021201113116113146000030Get Wild On Family Contest                                                                                                  150                                
PROFAMCHA021201113146113216000030Nightly Pix Block Promo - Tonight @ 9pm                                                                                     150                                
INTFAMCHA021201113216113415000159SGB-TV: Ep.03 Avril Lavigne                                                                                           A10656120                                
PROFAMCHA021201113415113445000030Holiday Fun - 7PM SPECIALS - Starting Tomorrow @ 7                                                                          150                                
OFFFAMCHA021201113445113500000015Nonstop Weekend Block Open (:10-:15)                                                                                                                           
PGRFAMCHA021201113500115620002120You Wish                                          All In The Family Room                                              A6068807B                                
PROFAMCHA021201115620115630000010Nonstop Wknd LU - 15 - DOUBLE PIX 1 (:08-:11)                                                                               150                                
PROFAMCHA021201115630115700000030Movie Surfers Santa Clause 2 - Premieres Tomorrow                                                                           150                                
PROFAMCHA021201115700115719000019Nonstop Weekend - EVEN STEVENS - Locker                                                                                     150                                
INTFAMCHA021201115719115849000130Family X-Pedition - Ep.26                                                                                             A10656120                                
PRCFAMCHA021201115849115919000030Get Wild On Family Contest                                                                                                  150                                
PROFAMCHA021201115919115949000030Weekend Double Pix Promo - Coming Up                                                                                        150                                
OFFFAMCHA021201115949120000000011Weekend Double Pix Movie Open (:10-:15)                                                                                                                        
PRCFAMCHA021201120000120009000009Rating - PG - Ian (:08-:10)                                                                                                 150                                
PROFAMCHA021201120009120018000009CC Disclaimer - FAST - Family.ca (:08-:10)                                                                                  150                                
PGRFAMCHA021201120018134118014100Groundhog Day                                                                                                         B2068807DCC                              
PROFAMCHA021201134118134128000010Nonstop Wknd LU - 16 - DOUBLE PIX 2 (:08-:11)                                                                               150                                
PROFAMCHA021201134128134158000030Holiday Fun - 7PM SPECIALS - Starting Tomorrow @ 7                                                                          150                                
PROFAMCHA021201134158134217000019Nonstop Weekend - EVEN STEVENS - Locker                                                                                     150                                
INTFAMCHA021201134217134420000203SGB-TV: Ep.04 Nicky McCrimmon                                                                                         A10656120                                
PROFAMCHA021201134420134450000030Weekend Double Pix Promo - Coming Up                                                                                        150                                
OFFFAMCHA021201134450134500000010Weekend Double Pix Movie Open (:10-:15)                                                                                                                        
PRCFAMCHA021201134500134509000009Rating - G - Ian (:08-:10)                                                                                                  150                                
PROFAMCHA021201134509134518000009CC Disclaimer - FAST - Family (:08-:10)                                                                                     150                                
ID FAMCHA021201134518134526000008Magic of Disney - NS/NSW/PB - Shape (:06-:09)                                                                               150                                
PGRFAMCHA021201134526151414012848Zenon: The Zequel                                                                                                     A6068807CCC                              
PROFAMCHA021201151414151428000014Nonstop Wknd LU - 18 - NGHTMR/HOM/PROUD (:13-:16)                                                                           150                                
PROFAMCHA021201151428151440000012Buzz Lightyear (SPACE RANGER) - Weekdays @ 3:25pm                                                                           150                                
PRCFAMCHA021201151440151510000030Holiday Fun Contest                                                                                                         150                                
INTFAMCHA021201151510151719000209MV Disney - Santa Claus Lane *CHRISTMAS* (HILARY D                                                                     60688120                                
PRCFAMCHA021201151719151749000030Lizzie Chat - December 18th @ 7pm                                                                                           150                                
INTFAMCHA021201151749151950000201SGB-TV: Ep.02 Josh Jackson                                                                                            A10656120                                
PRCFAMCHA021201151950152020000030Get Wild On Family Contest                                                                                                  150                                
PROFAMCHA021201152020152050000030Holiday Fun - 7PM SPECIALS - Starting Tomorrow @ 7                                                                          150                                
OFFFAMCHA021201152050152100000010Nonstop Weekend Block Open (:10-:15)                                                                                                                           
PROFAMCHA021201152100152109000009CC Disclaimer - FAST - Generic (:08-:10)                                                                                    150                                
PGRFAMCHA021201152109154344002235Nightmare Ned                                     Magic Bus/Until Death Do Us Part                                    A6068607ECC                              
PROFAMCHA021201154344154358000014Nonstop Wknd LU - 19 - HOM/PROUD/KIM (:13-:16)                                                                              150                                
PROFAMCHA021201154358154428000030Holiday Fun - 7PM SPECIALS - Starting Tomorrow @ 7                                                                          150                                
PROFAMCHA021201154428154517000049Nonstop Weekend - LIZZIE MCGUIRE - Chimp                                                                                    150                                
PRCFAMCHA021201154517154547000030Get Wild On Family Contest                                                                                                  150                                
OFFFAMCHA021201154547154600000013Nonstop Weekend Block Open (:10-:15)                                                                                                                           
PGRFAMCHA021201154600160838002238Disney's House Of Mouse                           Dining Goofy                                                        A6068607E                                
PROFAMCHA021201160838160852000014Nonstop Wknd LU - 20 - PROUD/KIM/TEAMO (:13-:16)                                                                            150                                
PROFAMCHA021201160852160922000030Holiday Fun - 7PM SPECIALS - Starting Tomorrow @ 7                                                                          150                                
INTFAMCHA021201160922161026000104Jack and Marcel: Ep.048 "Sticking Together"                                                                           A40688120                                
PROFAMCHA021201161026161048000022xxTeamo Supremo (PIE) - Today @ 5pm                                                                                         150                                
OFFFAMCHA021201161048161100000012Nonstop Weekend Block Open (:10-:15)                                                                                                                           
PROFAMCHA021201161100161109000009CC Disclaimer - FAST - Family.ca (:08-:10)                                                                                  150                                
PGRFAMCHA021201161109163343002234Proud Family; The                                 She's Got Game                                                      A6068807ECC                              
PROFAMCHA021201163343163357000014Nonstop Wknd LU - 21 - KIM/TEAMO/PB&J (:13-:16)                                                                             150                                
PROFAMCHA021201163357163434000037Amanda Show (CLEAN) - Weeknights @ 6pm                                                                                      150                                
PRCFAMCHA021201163434163504000030Holiday Fun Contest                                                                                                         150                                
PROFAMCHA021201163504163549000045Lizzie McGuire (MAGIC TRICK) - Tomorrow @ 5:35pm                                                                            150                                
OFFFAMCHA021201163549163600000011Nonstop Weekend Block Open (:10-:15)                                                                                                                           
PGRFAMCHA021201163600165851002251Disney's Kim Possible                             Coach Possible                                                      A6028607E                                
PROFAMCHA021201165851165905000014Nonstop Wknd LU - 22 - TEAMO/PB&J/WTP (:13-:16)                                                                             150                                
PROFAMCHA021201165905165917000012Buzz Lightyear (SPACE RANGER) - Weekdays @ 3:25pm                                                                           150                                
INTFAMCHA021201165917170047000130Family X-Pedition - Ep.25                                                                                             A10656120                                
OFFFAMCHA021201170047170100000013Nonstop Weekend Block Open (:10-:15)                                                                                                                           
PROFAMCHA021201170100170109000009CC Disclaimer - FAST - Generic (:08-:10)                                                                                    150                                
PGRFAMCHA021201170109172403002254Disney's Teamo Supremo                            You Better Start Calling Me Chief/When Elements Un                  A6028607ECC                              
PROFAMCHA021201172403172417000014Nonstop Wknd LU - 23(PH)- PB&J/WTP/FRANKLIN (:13-:                                                                          150                                
PRCFAMCHA021201172417172439000022Hoze Houndz (FIREFIGHTER - NEW EPS) - Tonight @ 7:                                                                          150                                
PROFAMCHA021201172439172502000023Your Big Break (B-52) - Tonight @ 8pm                                                                                       150                                
PRCFAMCHA021201172502172517000015Barbie As Rapunzel Contest                                                                                                  150                                
PROFAMCHA021201172517172547000030Holiday Fun - 7PM SPECIALS - Starting Tomorrow @ 7                                                                          150                                
OFFFAMCHA021201172547172600000013PS Playhouse Block Open (:10-:15)                                                                                                                              
PROFAMCHA021201172600172609000009CC Disclaimer - FAST - Family (:08-:10)                                                                                     150                                
PGRFAMCHA021201172609174830002221PB&J Otter                                        Soap Box Derby Day/Howdy Hoohaw Day                                 A6068607ECC                              
PROFAMCHA021201174830174844000014Nonstop Wknd LU - 24(PH)- WTP/FRANKLIN/HENRY (:13-                                                                          150                                
PROFAMCHA021201174844174917000033Stanley (CAT BATH) - Weekdays @ 9:35am                                                                                      150                                
PRCFAMCHA021201174917174949000032Henry's World (WISH) - Tonight @ 6:40pm                                                                                     150                                
INTFAMCHA021201174949175119000130MV Disney - Walk The Llama Llama                                                                                       60688120                                
PRCFAMCHA021201175119175141000022Hoze Houndz (FIREFIGHTER - NEW EPS) - Tonight @ 7:                                                                          150                                
OFFFAMCHA021201175141175152000011PS Playhouse Block Open (:10-:15)                                                                                                                              
ID FAMCHA021201175152175200000008Magic of Disney - PLAYHOUSE - Shape (:06-:09)                                                                               150                                
PROFAMCHA021201175200175209000009CC Disclaimer - FAST - Family.ca (:08-:10)                                                                                  150                                
PGRFAMCHA021201175209181455002246New Adventures of Winnie the Pooh; The            Luck Amok/The Magic Earmuffs                                         6068607ECC                              
PROFAMCHA021201181455181509000014Nonstop Wknd LU - 25(PG)- FRANKLIN/HENRY/LULU (:13                                                                          150                                
PROFAMCHA021201181509181539000030Holiday Fun - 7PM SPECIALS - Starting Tomorrow @ 7                                                                          150                                
PROFAMCHA021201181539181605000026Playground - GOOF TROOP - Hose                                                                                              150                                
PRCFAMCHA021201181605181620000015Barbie As Rapunzel Contest                                                                                                  150                                
PRCFAMCHA021201181620181658000038Henry's World (PARTY) - Tonight @ 6:40pm                                                                                    150                                
PROFAMCHA021201181658181724000026Playground - DUCKTALES - Spies                                                                                              150                                
PRCFAMCHA021201181724181746000022Hoze Houndz (FIREFIGHTER - NEW EPS) - Tonight @ 7:                                                                          150                                
OFFFAMCHA021201181746181800000014PS Playground Block Open (:10-:15) *DNU POST AUG 1                                                                                                             
PROFAMCHA021201181800181809000009CC Disclaimer - FAST - Generic (:08-:10)                                                                                    150                                
PGRFAMCHA021201181809184102002253Franklin                                          Franklin's Canoe Trip/Interview                               A53212A1065607ECC                              
PROFAMCHA021201184102184116000014Nonstop Wknd LU - 26(PG)- HENRY/LULU/HOZE (:13-:16                                                                          150                                
PROFAMCHA021201184116184146000030Holiday Fun - 7PM SPECIALS - Starting Tomorrow @ 7                                                                          150                                
PROFAMCHA021201184146184215000029Playground - HOUSE OF MOUSE - Snug                                                                                          150                                
PROFAMCHA021201184215184227000012Buzz Lightyear (SPACE RANGER) - Weekdays @ 3:25pm                                                                           150                                
PRCFAMCHA021201184227184249000022Hoze Houndz (FIREFIGHTER - NEW EPS) - Tonight @ 7:                                                                          150                                
OFFFAMCHA021201184249184300000011PS Playground Block Open (:10-:15) *DNU POST AUG 1                                                                                                             
PROFAMCHA021201184300184309000009CC Disclaimer - FAST - Family (:08-:10)                                                                                     150                                
PGRFAMCHA021201184309190658002349Henry's World                                     My Gorilla Is Bigger Than Yours/Whither Weather               B66547A1065607GCC                              
PROFAMCHA021201190658190710000012Nonstop Wknd LU - 27(PG)- LULU/HOZE (:10-:13)                                                                               150                                
PROFAMCHA021201190710190740000030Holiday Fun - 7PM SPECIALS - Starting Tomorrow @ 7                                                                          150                                
PRCFAMCHA021201190740190755000015Barbie As Rapunzel Contest                                                                                                  150                                
PROFAMCHA021201190755190825000030Mad Dash Block Promo - Tomorrow from 3pm to 6pm                                                                             150                                
PRCFAMCHA021201190825190847000022Hoze Houndz (FIREFIGHTER - NEW EPS) - Tonight @ 7:                                                                          150                                
OFFFAMCHA021201190847190900000013PS Playground Block Open (:10-:15) *DNU POST AUG 1                                                                                                             
PROFAMCHA021201190900190909000009CC Disclaimer - FAST - Family.ca (:08-:10)                                                                                  150                                
PGRFAMCHA021201190909193241002332Little Lulu Show; The                             Bowlfinger/Great Tubbini                                      B20191A1065607E                                
PROFAMCHA021201193241193255000014Nonstop Wknd LU - 28(SUN)- HOZE/YBB/@MOVIES (:13-:                                                                          150                                
PROFAMCHA021201193255193325000030Holiday Fun - 7PM SPECIALS - Starting Tomorrow @ 7                                                                          150                                
PROFAMCHA021201193325193352000027Nonstop - EVEN STEVENS - B-Ball                                                                                             150                                
PROFAMCHA021201193352193417000025Your Big Break (LITTLE RICHARD) - Tonight @ 8pm                                                                             150                                
PROFAMCHA021201193417193447000030Nightly Pix Block Promo - Tonight @ 9pm                                                                                     150                                
OFFFAMCHA021201193447193500000013Nonstop Weekend Block Open (:10-:15)                                                                                                                           
PROFAMCHA021201193500193509000009CC Disclaimer - FAST - Generic (:08-:10)                                                                                    150                                
PGRFAMCHA021201193509195747002238Hoze Houndz                                       Manitoba Jones/New Management                                 A63387A1025607ECC                              
PROFAMCHA021201195747195801000014Nonstop Wknd LU - 29(SUN)- YBB/@MOVIES/N-PIX (:13-                                                                          150                                
PROFAMCHA021201195801195831000030Nightly Pix Block Promo - Tonight @ 9pm                                                                                     150                                
PROFAMCHA021201195831195918000047Amanda Show (DOG) - Weeknights @ 6pm                                                                                        150                                
PROFAMCHA021201195918195948000030Movie Surfers Santa Clause 2 - Premieres Tomorrow                                                                           150                                
OFFFAMCHA021201195948200000000012Nonstop Weekend Block Open (:10-:15)                                                                                                                           
PGRFAMCHA021201200000204328004328Your Big Break                                    2-001                                                               A60688090                                
ID FAMCHA021201204328204333000005Astral "A Network Of" Logo - English Animation                                                                              150                                
PROFAMCHA021201204333204345000012Nonstop Wknd LU - 30(SUN)- @MOVIES/N-PIX (:10-:13)                                                                          150                                
PROFAMCHA021201204345204415000030Movie Surfers Santa Clause 2 - Premieres Tomorrow                                                                           150                                
PROFAMCHA021201204415204500000045Lizzie McGuire (MAGIC TRICK) - Tomorrow @ 5:35pm                                                                            150                                
OFFFAMCHA021201204500204513000013Nonstop Weekend Block Open (:10-:15)                                                                                                                           
PGRFAMCHA021201204513210113001600@ The Movies (8)                                                                                                      A10628150                                
ID FAMCHA021201210113210116000003Astral "A Network Of" Logo - English Animation                                                                              150                                
PROFAMCHA021201210116210126000010Nightly Pix Line-up - 01 - GENERIC1 (:08-:11)                                                                               150                                
ID FAMCHA021201210126210136000010Nightly Pix Movie Open (:10-:15)                                                                                            150                                
PRCFAMCHA021201210136210145000009Rating - G - Ian (:08-:10)                                                                                                  150                                
PGRFAMCHA021201210145222646012501Nutcracker: The Motion Picture; The                                                                                   A2028807D                                
ID FAMCHA021201222646222649000003Astral "A Network Of" Logo - English Animation                                                                              150                                
PROFAMCHA021201222649222703000014Nonstop Wknd LU - 31(SUN)- @MOVIES/N-PIX/AMAZING (                                                                          150                                
OFFFAMCHA021201222703222716000013Nonstop Weekend Block Open (:10-:15)                                                                                                                           
PGRFAMCHA021201222716224316001600@ The Movies (8)                                                                                                      A10628150                                
ID FAMCHA021201224316224319000003Astral "A Network Of" Logo - English Animation                                                                              150                                
PROFAMCHA021201224319224329000010Nightly Pix Line-up - 02 - GENERIC2 (:08-:11)                                                                               150                                
ID FAMCHA021201224329224342000013Nightly Pix Movie Open (:10-:15)                                                                                            150                                
PRCFAMCHA021201224342224351000009Rating - G - Ian (:08-:10)                                                                                                  150                                
PGRFAMCHA021201224351013904025513Camelot                                                                                                               A2068807D                                
SO FAMCHA021201013904013916000012Sign Off (oct 1)                                                                                                                                               
OFFFAMCHA021201013916043000025044                                                                                                                                                               
SO FAMCHA021202043000043011000011Sign On (oct 1)                                                                                                                                                
PROFAMCHA021202043011043020000009CC Disclaimer - FAST - Generic (:08-:10)                                                                                    150                                
PGRFAMCHA021202043020045321002301Out of the Box                                    Whodunit?                                                           A6068607ACC                              
PROFAMCHA021202045321045334000013PS-01- Playhouse - ART/KATIE/HOZE (:13-:16)                                                                                 150                                
PROFAMCHA021202045334045354000020Holiday Fun - PS Christmas Web Throw - Elmo                                                                                 150                                
OFFFAMCHA021202045354045404000010PS Playhouse Block Open (:10-:15)                                                                                                                              
PGRFAMCHA021202045404051403001959Art Attack                                        1-095                                                                60686110                                
PROFAMCHA021202051403051416000013PS-02- Playground - KATIE/HOZE/LULU (:13-:16)                                                                               150                                
OFFFAMCHA021202051416051426000010PS Playground Block Open (:10-:15) *DNU POST AUG 1                                                                                                             
PROFAMCHA021202051426051434000008CC Disclaimer - FAST - Family (:08-:10)                                                                                     150                                
PGRFAMCHA021202051434054112002638Katie And Orbie                                   Science/911/Bedspread Painting Party                          C19665A1065607ECC                              
PROFAMCHA021202054112054125000013PS-03- Playground - HOZE/LULU/GOOF (:13-:16)                                                                                150                                
OFFFAMCHA021202054125054135000010PS Playground Block Open (:10-:15) *DNU POST AUG 1                                                                                                             
PROFAMCHA021202054135054143000008CC Disclaimer - FAST - Family.ca (:08-:10)                                                                                  150                                
PGRFAMCHA021202054143060418002235Hoze Houndz                                       Ranger Bob/Bad Medicine                                       B34011A1065607ECC                              
PROFAMCHA021202060418060431000013PS-04- Playground - LULU/GOOF/HOUSE (:13-:16)                                                                               150                                
PROFAMCHA021202060431060451000020Holiday Fun - PS Christmas Web Throw - Elmo                                                                                 150                                
OFFFAMCHA021202060451060501000010PS Playground Block Open (:10-:15) *DNU POST AUG 1                                                                                                             
PROFAMCHA021202060501060509000008CC Disclaimer - FAST - Click Club (:08-:10) **DNU*                                                                          150                                
PGRFAMCHA021202060509062843002334Little Lulu Show; The                             The untold Story, Amok in the Mall, The World Reco            B20196A1065607ECC                              
PROFAMCHA021202062843062857000014PS-05- Playground - GOOF/HOUSE/BUZZ (:13-:16)                                                                               150                                
PROFAMCHA021202062857062927000030Holiday Fun - 7PM SPECIALS - Starting Tonight @ 7p                                                                          150                                
PROFAMCHA021202062927062939000012Buzz Lightyear (SPACE RANGER) - Today @ 7:30am                                                                              150                                
OFFFAMCHA021202062939062952000013PS Playground Block Open (:10-:15) *DNU POST AUG 1                                                                                                             
ID FAMCHA021202062952063000000008Magic of Disney - PLAYGROUND - Shape (:06-:09) *DN                                                                          150                                
PROFAMCHA021202063000063009000009CC Disclaimer - FAST - Generic (:08-:10)                                                                                    150                                
PGRFAMCHA021202063009065248002239Goof Troop                                        Goofin' Up The Social Ladder                                         6068607ECC                              
PROFAMCHA021202065248065302000014PS-06- Playground - HOUSE/BUZZ/LULU (:13-:16)                                                                               150                                
PROFAMCHA021202065302065332000030Holiday Fun - 7PM SPECIALS - Starting Tonight @ 7p                                                                          150                                
PROFAMCHA021202065332065344000012Buzz Lightyear (SPACE RANGER) - Today @ 7:30am                                                                              150                                
PROFAMCHA021202065344065528000144Playground - HOUSE OF MOUSE - Seating Song                                                                                  150                                
PRCFAMCHA021202065528065543000015Barbie As Rapunzel Contest                                                                                                  150                                
PROFAMCHA021202065543065643000100Holiday Fun - Christmas Web Throw - Animation                                                                               150                                
PROFAMCHA021202065643065718000035Playground - LITTLE LULU - Football                                                                                         150                                
INTFAMCHA021202065718065857000139Disney Moments-Lady And The Tramp-Siamese Cat Song                                                                     60688120                                
PROFAMCHA021202065857065947000050Art Attack (BASEBALL) - Weekends @ 3pm                                                                                      150                                
OFFFAMCHA021202065947070000000013PS Playground Block Open (:10-:15) *DNU POST AUG 1                                                                                                             
PGRFAMCHA021202070000072237002237Disney's House Of Mouse                           Suddenly Hades                                                      A6068607E                                
PROFAMCHA021202072237072253000016PS-07- Playground - BUZZ/LULU/FRANKLIN (:13-:16)                                                                            150                                
PROFAMCHA021202072253072323000030Holiday Fun - 7PM SPECIALS - Starting Tonight @ 7p                                                                          150                                
ID FAMCHA021202072323072343000020Schoolhouse Promo - Coming Up                                                                                               150                                
PROFAMCHA021202072343072413000030Mad Dash Block Promo - Today from 3pm to 6pm                                                                                150                                
INTFAMCHA021202072413072736000323Schoolhouse Rock - Where The Money Goes                                                                               A60686120                                
PRCFAMCHA021202072736072751000015Barbie As Rapunzel Contest                                                                                                  150                                
INTFAMCHA021202072751072855000104Jack and Marcel: Ep.083 "Trampoline"                                                                                  A40688120                                
PROFAMCHA021202072855072945000050Art Attack (BASEBALL) - Weekends @ 3pm                                                                                      150                                
OFFFAMCHA021202072945073000000015PS Playground Block Open (:10-:15) *DNU POST AUG 1                                                                                                             
PROFAMCHA021202073000073009000009CC Disclaimer - FAST - Family (:08-:10)                                                                                     150                                
PGRFAMCHA021202073009075201002152Disney/Pixar's Buzz Lightyear of Star Command     The Slayer                                                           6068607ECC                              
PROFAMCHA021202075201075214000013PS-08- Playhouse - LULU/FRANKLIN/ELMO (:13-:16)                                                                             150                                
PRCFAMCHA021202075214075238000024Franklin (LADDER) - Today @ 8:25am                                                                                          150                                
ID FAMCHA021202075238075258000020Schoolhouse Promo - Coming Up                                                                                               150                                
PRCFAMCHA021202075258075336000038Henry's World (PARTY) - Weekends @ 6:40pm                                                                                   150                                
INTFAMCHA021202075336075659000323Schoolhouse Rock - My Hero, Zero                                                                                      A60686120                                
PRCFAMCHA021202075659075714000015Franklin's Magic Xmas Contest                                                                                               150                                
INTFAMCHA021202075714075929000215Disney Circle Time - Endless Story (anywhere but D                                                                     60688120                                
PROFAMCHA021202075929075949000020Holiday Fun - PS Christmas Web Throw - Elmo                                                                                 150                                
OFFFAMCHA021202075949080000000011PS Playhouse Block Open (:10-:15)                                                                                                                              
PROFAMCHA021202080000080009000009CC Disclaimer - FAST - Family.ca (:08-:10)                                                                                  150                                
PGRFAMCHA021202080009082401002352Little Lulu Show; The                             Tiny Tot's Syrup/The Night Before Christmas/The Pi            C19509A1065607ECC                              
PROFAMCHA021202082401082415000014PS-09- Playhouse - FRANKLIN/ELMO/KATIE (:13-:16)                                                                            150                                
PROFAMCHA021202082415082435000020Holiday Fun - PS Christmas Web Throw - Elmo                                                                                 150                                
PRCFAMCHA021202082435082450000015Franklin's Magic Xmas Contest                                                                                               150                                
OFFFAMCHA021202082450082500000010PS Playhouse Block Open (:10-:15)                                                                                                                              
PROFAMCHA021202082500082509000009CC Disclaimer - FAST - Click Club (:08-:10) **DNU*                                                                          150                                
PGRFAMCHA021202082509084802002253Franklin                                          Rival/The Trading Cards                                       B38155A1065607ECC                              
PROFAMCHA021202084802084815000013PS-10- Playhouse - ELMO/KATIE/STANLEY (:13-:16)                                                                             150                                
PRCFAMCHA021202084815084830000015Franklin's Magic Xmas Contest                                                                                               150                                
PROFAMCHA021202084830084850000020Holiday Fun - PS Christmas Web Throw - Elmo                                                                                 150                                
OFFFAMCHA021202084850084900000010PS Playhouse Block Open (:10-:15)                                                                                                                              
PGRFAMCHA021202084900090435001535Elmo's World                                      Weather                                                             A2068607G                                
PROFAMCHA021202090435090449000014PS-11- Playhouse(MWF) - KATIE/STANLEY/WTP (:13-:16                                                                          150                                
PROFAMCHA021202090449090539000050Art Attack (BASEBALL) - Weekends @ 3pm                                                                                      150                                
INTFAMCHA021202090539090709000130Disney Circle Time - Growing Smiles (anywhere but                                                                      60688120                                
PRCFAMCHA021202090709090747000038Henry's World (PARTY) - Weekends @ 6:40pm                                                                                   150                                
OFFFAMCHA021202090747090800000013PS Playhouse Block Open (:10-:15)                                                                                                                              
PROFAMCHA021202090800090809000009CC Disclaimer - FAST - Generic (:08-:10)                                                                                    150                                
PGRFAMCHA021202090809093447002638Katie And Orbie                                   Raccoon Rescue/Cheer Up Pals/Maple Sugar                      C19665A1055607ECC3                             
PROFAMCHA021202093447093501000014PS-12- Playhouse(MWF) - STANLEY/WTP/OOTB (:13-:16)                                                                          150                                
PRCFAMCHA021202093501093533000032Henry's World (WISH) - Weekends @ 6:40pm                                                                                    150                                
ID FAMCHA021202093533093548000015Schoolhouse Promo - Weekday Mornings                                                                                        150                                
OFFFAMCHA021202093548093600000012PS Playhouse Block Open (:10-:15)                                                                                                                              
PROFAMCHA021202093600093609000009CC Disclaimer - FAST - Family (:08-:10)                                                                                     150                                
PGRFAMCHA021202093609100007002358Stanley                                           Up The Apple/Kangaroo Clean Up                                      A6068607ECC                              
PROFAMCHA021202100007100021000014PS-13- Playhouse(MWF) - WTP/OOTB/DUCKTALES (:13-:1                                                                          150                                
PRCFAMCHA021202100021100039000018Franklin (CAST) - Tomorrow @ 8:25am                                                                                         150                                
OFFFAMCHA021202100039100052000013PS Playhouse Block Open (:10-:15)                                                                                                                              
ID FAMCHA021202100052100100000008Magic of Disney - PLAYHOUSE - Wipe (:06-:09)                                                                                150                                
PROFAMCHA021202100100100109000009CC Disclaimer - FAST - Family.ca (:08-:10)                                                                                  150                                
PGRFAMCHA021202100109102345002236New Adventures of Winnie the Pooh; The            Sorry, Wrong Slusher                                                 6068607ECC                              
PROFAMCHA021202102345102359000014PS-14- Playground - OOTB/DUCKTALES/HOZE (:13-:16)                                                                           150                                
PROFAMCHA021202102359102429000030Holiday Fun - 7PM SPECIALS - Starting Tonight @ 7p                                                                          150                                
PROFAMCHA021202102429102519000050Art Attack (BASEBALL) - Weekends @ 3pm                                                                                      150                                
PROFAMCHA021202102519102549000030Mad Dash Block Promo - Today from 3pm to 6pm                                                                                150                                
OFFFAMCHA021202102549102600000011PS Playground Block Open (:10-:15) *DNU POST AUG 1                                                                                                             
PROFAMCHA021202102600102609000009CC Disclaimer - FAST - Click Club (:08-:10) **DNU*                                                                          150                                
PGRFAMCHA021202102609104815002206Out of the Box                                    Goin' To The Grocery                                                A6068607ACC                              
PROFAMCHA021202104815104829000014PS-15- Playground - DUCKTALES/HOZE/LULU (:13-:16)                                                                           150                                
PROFAMCHA021202104829104859000030Holiday Fun - 7PM SPECIALS - Starting Tonight @ 7p                                                                          150                                
INTFAMCHA021202104859105025000126Mix Ups - Birthday Befuddle                                                                                            60688120                                
PROFAMCHA021202105025105049000024Legend of Tarzan (S.O.S) - Today @ 4:15pm                                                                                   150                                
OFFFAMCHA021202105049105100000011PS Playground Block Open (:10-:15) *DNU POST AUG 1                                                                                                             
PROFAMCHA021202105100105109000009CC Disclaimer - FAST - Generic (:08-:10)                                                                                    150                                
PGRFAMCHA021202105109111355002246Disney's DuckTales                                Pearl Of Wisdom                                                     A6068607ECC                              
PROFAMCHA021202111355111409000014PS-16- Playground - HOZE/LULU/SMART (:13-:16)                                                                               150                                
PROFAMCHA021202111409111439000030Holiday Fun - 7PM SPECIALS - Starting Tonight @ 7p                                                                          150                                
PRCFAMCHA021202111439111517000038Henry's World (PARTY) - Weekends @ 6:40pm                                                                                   150                                
PROFAMCHA021202111517111547000030Mad Dash Block Promo - Today from 3pm to 6pm                                                                                150                                
OFFFAMCHA021202111547111600000013PS Playground Block Open (:10-:15) *DNU POST AUG 1                                                                                                             
PROFAMCHA021202111600111609000009CC Disclaimer - FAST - Family (:08-:10)                                                                                     150                                
PGRFAMCHA021202111609113844002235Hoze Houndz                                       Jail Houndz/Crystal Clear                                     B34012A1065607ECC                              
PROFAMCHA021202113844113858000014PS-17- Playground - LULU/SMART/ELMO (:13-:16)                                                                               150                                
PROFAMCHA021202113858113928000030Holiday Fun - 7PM SPECIALS - Starting Tonight @ 7p                                                                          150                                
PROFAMCHA021202113928113958000030xxKim Possible (GENERIC) - Weekends @ 4:35pm                                                                                150                                
PROFAMCHA021202113958114048000050Art Attack (BASEBALL) - Weekends @ 3pm                                                                                      150                                
OFFFAMCHA021202114048114100000012PS Playground Block Open (:10-:15) *DNU POST AUG 1                                                                                                             
PROFAMCHA021202114100114109000009CC Disclaimer - FAST - Family.ca (:08-:10)                                                                                  150                                
PGRFAMCHA021202114109120501002352Little Lulu Show; The                             Space Kids/Case of Disappearing Drum/From Hero to             C19509A1065607ECC                              
PROFAMCHA021202120501120515000014PS-18- Playground - SMART/ELMO/KATIE (:13-:16)                                                                              150                                
PROFAMCHA021202120515120545000030Holiday Fun - 7PM SPECIALS - Starting Tonight @ 7p                                                                          150                                
OFFFAMCHA021202120545120600000015PS Playground Block Open (:10-:15) *DNU POST AUG 1                                                                                                             
PROFAMCHA021202120600120609000009CC Disclaimer - FAST - Click Club (:08-:10) **DNU*                                                                          150                                
PGRFAMCHA021202120609122837002228Smart Guy                                         Goodbye Mr. Chimps                                                  A6068807BCC                              
PROFAMCHA021202122837122853000016PS-19- Playhouse - ELMO/KATIE/STANLEY (:13-:16)                                                                             150                                
PROFAMCHA021202122853122926000033Stanley (CAT BATH) - Today @ 1:20pm                                                                                         150                                
PROFAMCHA021202122926123012000046Playhouse - STANLEY - Squirrel Song                                                                                         150                                
PRCFAMCHA021202123012123044000032Henry's World (WISH) - Weekends @ 6:40pm                                                                                    150                                
OFFFAMCHA021202123044123059000015PS Playhouse Block Open (:10-:15)                                                                                                                              
PGRFAMCHA021202123059124600001501Elmo's World                                      Fishes                                                              A2068607G                                
PROFAMCHA021202124600124613000013PS-20- Playhouse(MWF) - KATIE/STANLEY/WTP (:13-:16                                                                          150                                
PROFAMCHA021202124613124646000033Stanley (CAT BATH) - Today @ 1:20pm                                                                                         150                                
PRCFAMCHA021202124646124701000015Barbie As Rapunzel Contest                                                                                                  150                                
INTFAMCHA021202124701125014000313MV Disney - The Kid In You (KRYSTAL MARIE HARRIS)                                                                      60688120                                
PRCFAMCHA021202125014125046000032Henry's World (WISH) - Weekends @ 6:40pm                                                                                    150                                
OFFFAMCHA021202125046125100000014PS Playhouse Block Open (:10-:15)                                                                                                                              
PGRFAMCHA021202125100131736002636Katie And Orbie                                   The Thunderstorm/The Rabbit and How To Make It Sta            P16140A1065607E                                
PROFAMCHA021202131736131751000015PS-21- Playhouse(MWF) - STANLEY/WTP/OOTB (:13-:16)                                                                          150                                
PRCFAMCHA021202131751131823000032Henry's World (WISH) - Weekends @ 6:40pm                                                                                    150                                
PRCFAMCHA021202131823131845000022Hoze Houndz (FIREFIGHTER) - Today @ 3pm                                                                                     150                                
OFFFAMCHA021202131845131900000015PS Playhouse Block Open (:10-:15)                                                                                                                              
PROFAMCHA021202131900131909000009CC Disclaimer - FAST - Generic (:08-:10)                                                                                    150                                
PGRFAMCHA021202131909134308002359Stanley                                           Daddy Pride/Show And Tell Shark                                     A6068607ECC                              
PROFAMCHA021202134308134322000014PS-22- Playhouse(MWF) - WTP/OOTB/DUCKTALES (:13-:1                                                                          150                                
PRCFAMCHA021202134322134340000018Franklin (CAST) - Tomorrow @ 8:25am                                                                                         150                                
OFFFAMCHA021202134340134352000012PS Playhouse Block Open (:10-:15)                                                                                                                              
ID FAMCHA021202134352134400000008Magic of Disney - PLAYHOUSE - Shape (:06-:09)                                                                               150                                
PROFAMCHA021202134400134409000009CC Disclaimer - FAST - Family (:08-:10)                                                                                     150                                
PGRFAMCHA021202134409140646002237New Adventures of Winnie the Pooh; The            Grown, But Not Forgotten                                             6068607ECC                              
PROFAMCHA021202140646140658000012PS-23- Playhouse - OOTB/DUCKTALES (:10-:13)                                                                                 150                                
PROFAMCHA021202140658140731000033Stanley (CAT BATH) - Weekdays @ 9:35am                                                                                      150                                
PROFAMCHA021202140731140827000056Playhouse - STANLEY - Fish Song                                                                                             150                                
PRCFAMCHA021202140827140845000018Franklin (CAST) - Tomorrow @ 8:25am                                                                                         150                                
OFFFAMCHA021202140845140900000015PS Playhouse Block Open (:10-:15)                                                                                                                              
PROFAMCHA021202140900140909000009CC Disclaimer - FAST - Family.ca (:08-:10)                                                                                  150                                
PGRFAMCHA021202140909143244002335Out of the Box                                    Sing A Song                                                         A6068607ACC                              
PROFAMCHA021202143244143254000010PS-24- Playhouse - DUCKTALES (:08-:11)                                                                                      150                                
PRCFAMCHA021202143254143316000022Hoze Houndz (FIREFIGHTER) - Today @ 3pm                                                                                     150                                
PROFAMCHA021202143316143431000115Playhouse - BOOK OF POOH - The Plan *DNU*                                                                                   150                                
ID FAMCHA021202143431143446000015Schoolhouse Promo - Weekday Mornings                                                                                        150                                
OFFFAMCHA021202143446143500000014PS Playhouse Block Open (:10-:15)                                                                                                                              
PROFAMCHA021202143500143509000009CC Disclaimer - FAST - Click Club (:08-:10) **DNU*                                                                          150                                
PGRFAMCHA021202143509145756002247Disney's DuckTales                                The Curse Of Castle Mcduck                                          A6068607ECC                              
PROFAMCHA021202145756145810000014xxMD - 01 - HOZE/BUZZ/PEPPER (:13-:16)*DNU*                                                                                 150                                
PROFAMCHA021202145810145840000030Movie Surfers Santa Clause 2 - Premieres Today @ 5                                                                          150                                
PROFAMCHA021202145840145917000037Mad Dash - LIZZIE MCGUIRE - Blooper #3 *DNU*                                                                                150                                
PROFAMCHA021202145917145947000030Holiday Fun - 7PM SPECIALS - Starting Tonight @ 7p                                                                          150                                
OFFFAMCHA021202145947150000000013Mad Dash Block Open (:10-:15)                                                                                                                                  
PROFAMCHA021202150000150009000009CC Disclaimer - FAST - Generic (:08-:10)                                                                                    150                                
PGRFAMCHA021202150009152244002235Hoze Houndz                                       The Day The Houndz Stood Still/Poeticize                      B34013A1065607ECC                              
PROFAMCHA021202152244152258000014MD - 02 - BUZZ/PEPPER/TARZAN (:13-:16)                                                                                      150                                
PROFAMCHA021202152258152328000030Movie Surfers Santa Clause 2 - Premieres Today @ 5                                                                          150                                
PROFAMCHA021202152328152418000050Mad Dash - LIZZIE MCGUIRE - Blooper #6 *DNU*                                                                                150                                
PROFAMCHA021202152418152448000030Holiday Fun - 7PM SPECIALS - Starting Tonight @ 7p                                                                          150                                
OFFFAMCHA021202152448152500000012Mad Dash Block Open (:10-:15)                                                                                                                                  
PROFAMCHA021202152500152509000009CC Disclaimer - FAST - Family (:08-:10)                                                                                     150                                
PGRFAMCHA021202152509154701002152Disney/Pixar's Buzz Lightyear of Star Command     The Shape Stealer                                                    6068607ECC                              
PROFAMCHA021202154701154715000014MD - 03 - PEPPER/TARZAN/WKNDRS (:13-:16)                                                                                    150                                
PROFAMCHA021202154715154745000030Movie Surfers Santa Clause 2 - Premieres Today @ 5                                                                          150                                
PROFAMCHA021202154745154821000036Mad Dash - WEEKENDERS - Bored                                                                                               150                                
PRCFAMCHA021202154821154851000030Holiday Fun Contest                                                                                                         150                                
PROFAMCHA021202154851154918000027Mad Dash - PEPPER ANN - Great Mom                                                                                           150                                
PROFAMCHA021202154918154948000030Holiday Fun - 7PM SPECIALS - Starting Tonight @ 7p                                                                          150                                
OFFFAMCHA021202154948155000000012Mad Dash Block Open (:10-:15)                                                                                                                                  
PROFAMCHA021202155000155009000009CC Disclaimer - FAST - Family.ca (:08-:10)                                                                                  150                                
PGRFAMCHA021202155009161244002235Disney's Pepper Ann                               The Word/The Perfect Color                                          A6068607ECC                              
PROFAMCHA021202161244161258000014MD - 04 - TARZAN/WKNDRS/RECESS (:13-:16)                                                                                    150                                
PROFAMCHA021202161258161328000030Movie Surfers Santa Clause 2 - Premieres Today @ 5                                                                          150                                
PROFAMCHA021202161328161358000030xxBoy Meets World - Tonight @ 8pm                                                                                           150                                
PRCFAMCHA021202161358161428000030Get Wild On Family Contest                                                                                                  150                                
PROFAMCHA021202161428161518000050Mad Dash - LIZZIE MCGUIRE - Blooper #6 *DNU*                                                                                150                                
PROFAMCHA021202161518161547000029Holiday Fun - Christmas Web Throw - Beautiful                                                                               150                                
OFFFAMCHA021202161547161600000013Mad Dash Block Open (:10-:15)                                                                                                                                  
PGRFAMCHA021202161600163846002246Disney's The Legend of Tarzan                     Lost City of the Opar                                               A6068607E                                
PROFAMCHA021202163846163901000015Weekenders (REALITY) - Coming Up                                                                                            150                                
PROFAMCHA021202163901163931000030Movie Surfers Santa Clause 2 - Premieres Today @ 5                                                                          150                                
PROFAMCHA021202163931164031000100Holiday Fun - Christmas Web Throw - Animation                                                                               150                                
PRCFAMCHA021202164031164101000030Lizzie Chat - December 18th @ 7pm                                                                                           150                                
PROFAMCHA021202164101164119000018Mad Dash - PEPPER ANN - New Books                                                                                           150                                
PROFAMCHA021202164119164149000030Holiday Fun - 7PM SPECIALS - Starting Tonight @ 7p                                                                          150                                
OFFFAMCHA021202164149164200000011Mad Dash Block Open (:10-:15)                                                                                                                                  
PGRFAMCHA021202164200170453002253Disney's The Weekenders                           The Tao of Bluke/An Experimental Weekend                            A6068607E                                
PROFAMCHA021202170453170508000015Recess (SPRINKLER) - Coming Up                                                                                              150                                
PROFAMCHA021202170508170538000030Movie Surfers Santa Clause 2 - Premieres Today @ 5                                                                          150                                
PRCFAMCHA021202170538170608000030Holiday Fun Contest                                                                                                         150                                
PROFAMCHA021202170608170647000039Mad Dash - WEEKENDERS - Arrival                                                                                             150                                
PRCFAMCHA021202170647170717000030Get Wild On Family Contest                                                                                                  150                                
PROFAMCHA021202170717170747000030Holiday Fun - 7PM SPECIALS - Starting Tonight @ 7p                                                                          150                                
OFFFAMCHA021202170747170800000013Mad Dash Block Open (:10-:15)                                                                                                                                  
PGRFAMCHA021202170800173035002235Disney's Recess                                   Bad Hair Day/Dance Lessons                                           6068607E                                
PROFAMCHA021202173035173105000030Movie Surfers Santa Clause 2 - Premieres Next                                                                               150                                
PROFAMCHA021202173105173135000030Holiday Fun - 7PM SPECIALS - Starting Tonight @ 7p                                                                          150                                
PRCFAMCHA021202173135173205000030Lizzie Chat - December 18th @ 7pm                                                                                           150                                
INTFAMCHA021202173205173408000203SGB-TV: Ep.10 Avril Lavigne                                                                                           A10656120                                
PRCFAMCHA021202173408173438000030Holiday Fun Contest                                                                                                         150                                
OFFFAMCHA021202173438173452000014Mad Dash Block Open (:10-:15)                                                                                                                                  
ID FAMCHA021202173452173500000008Magic of Disney - MAD DASH - Wipe (:06-:09)                                                                                 150                                
PROFAMCHA021202173500173509000009CC Disclaimer - FAST - Click Club (:08-:10) **DNU*                                                                          150                                
PGRFAMCHA021202173509175739002230Movie Surfers Go Inside Disney's The Santa Clause                                                                     A60288110CC                              
PROFAMCHA021202175739175752000013Nonstop MON-THU LU - 01(XMAS) - AMNDA/ALL/XMAS                                                                              150                                
PRCFAMCHA021202175752175822000030Lizzie Chat - December 18th @ 7pm                                                                                           150                                
PROFAMCHA021202175822175847000025Holiday Fun - Christmas Web Throw - Lizzie                                                                                  150                                
PRCFAMCHA021202175847175917000030Get Wild On Family Contest                                                                                                  150                                
PROFAMCHA021202175917175947000030Holiday Fun - 7PM SPECIALS - Starting Tonight @ 7p                                                                          150                                
OFFFAMCHA021202175947180000000013Nonstop Block Open (:10-:15)                                                                                                                                   
PGRFAMCHA021202180000182205002205Amanda Show; The                                  2-031                                                               A20686090                                
ID FAMCHA021202182205182210000005Astral "A Network Of" Logo - English Animation                                                                              150                                
PROFAMCHA021202182210182223000013Nonstop MON-THU LU - 02(XMAS) - ALL/XMAS/EVEN                                                                               150                                
PRCFAMCHA021202182223182253000030Holiday Fun Contest                                                                                                         150                                
PROFAMCHA021202182253182325000032PR Wild Force (CHAIR) - Weekends @ 6:30am                                                                                   150                                
INTFAMCHA021202182325182527000202SGB-TV: Ep.11 Nicky McCrimmon                                                                                         A10656120                                
PROFAMCHA021202182527182557000030xxBoy Meets World - Tonight @ 8pm                                                                                           150                                
INTFAMCHA021202182557182917000320MV Disney - Remember The Magic (BRIAN MCKNIGHT)                                                                        60688120                                
PROFAMCHA021202182917182947000030Holiday Fun - 7PM SPECIALS - Starting Tonight @ 7p                                                                          150                                
OFFFAMCHA021202182947183000000013Nonstop Block Open (:10-:15)                                                                                                                                   
PGRFAMCHA021202183000185420002420All That                                          716                                                                 A20686090                                
ID FAMCHA021202185420185423000003Astral "A Network Of" Logo - English Animation                                                                              150                                
PROFAMCHA021202185423185436000013Nonstop MON-THU LU - 03(XMAS) - XMAS/EVEN/BMW                                                                               150                                
PROFAMCHA021202185436185506000030xxKim Possible (GENERIC) - Weekends @ 4:35pm                                                                                150                                
PRCFAMCHA021202185506185536000030Get Wild On Family Contest                                                                                                  150                                
PROFAMCHA021202185536185636000100Holiday Fun - Christmas Web Throw - Animation                                                                               150                                
INTFAMCHA021202185636185845000209MV Disney - Santa Claus Lane *CHRISTMAS* (HILARY D                                                                     60688120                                
PROFAMCHA021202185845185915000030Mad Dash Block Promo - Weekdays from 3pm to 6pm                                                                             150                                
PROFAMCHA021202185915185945000030Holiday Fun - 7PM SPECIALS - Coming Up                                                                                      150                                
OFFFAMCHA021202185945190000000015Nonstop Block Open (:10-:15)                                                                                                                                   
PGRFAMCHA021202190000192429002429Roxanne's Best Christmas Ever                                                                                         A2068607C                                
ID FAMCHA021202192429192434000005Astral "A Network Of" Logo - English Animation                                                                              150                                
PROFAMCHA021202192434192447000013Nonstop MON-THU LU - 04(XMAS) - EVEN/BMW/DARK                                                                               150                                
PRCFAMCHA021202192447192517000030Holiday Fun Contest                                                                                                         150                                
PROFAMCHA021202192517192547000030xxBoy Meets World - Tonight @ 8pm                                                                                           150                                
INTFAMCHA021202192547192836000249MV Disney - Never Alone (TYLER COLLINS)                                                                                60688120                                
PROFAMCHA021202192836192908000032PR Wild Force (CHAIR) - Weekends @ 6:30am                                                                                   150                                
PROFAMCHA021202192908192938000030Holiday Fun - 7PM SPECIALS - Tomorrow @ 7pm                                                                                 150                                
OFFFAMCHA021202192938192952000014Nonstop Block Open (:10-:15)                                                                                                                                   
ID FAMCHA021202192952193000000008Magic of Disney - NS/NSW/PB - Shape (:06-:09)                                                                               150                                
PROFAMCHA021202193000193009000009CC Disclaimer - FAST - Generic (:08-:10)                                                                                    150                                
