SO FAMCHA021001043000043011000011Sign On (oct 1)                                                                                                                                                
PGRFAMCHA021001043011045416002405Out of the Box                                    Kids Are Kids                                                       A6068607A                                
ID FAMCHA021001045416045421000005Generic ID - Couch 1*                                                                                                       150                                
PROFAMCHA021001045421045431000010xxPS Line-Up - 01 - ART/KATIE/HOZE                                                                                          150                                
PGRFAMCHA021001045431050944001513Art Attack                                        1-031                                                                60686110                                
ID FAMCHA021001050944050949000005Generic ID - Bubbles*                                                                                                       150                                
PROFAMCHA021001050949051019000030Mad Dash Block Promo - Today from 3pm to 6pm                                                                                150                                
PRCFAMCHA021001051019051041000022Hoze Houndz (FIREFIGHTER) - Today @ 5:40am                                                                                  150                                
INTFAMCHA021001051041051317000236Art Attack - Frog                                                                                                      60686120                                
PROFAMCHA021001051317051350000033Stanley (CAT BATH) - Today @ 9:35am                                                                                         150                                
PROFAMCHA021001051350051400000010xxPS Line-Up - 02 - KATIE/HOZE/LULU                                                                                         150                                
PROFAMCHA021001051400051409000009CC Disclaimer - FAST - Generic (:08-:10)                                                                                    150                                
PGRFAMCHA021001051409054047002638Katie And Orbie                                   Hot Fudge Sundaes/Badminton/The Fuse                          C19665A1065607ECC                              
ID FAMCHA021001054047054052000005Generic ID - Fingerpaint                                                                                                    150                                
PROFAMCHA021001054052054102000010xxPS Line-Up - 03 - HOZE/LULU/GOOF                                                                                          150                                
PROFAMCHA021001054102054111000009CC Disclaimer - FAST - Family (:08-:10)                                                                                     150                                
PGRFAMCHA021001054111060346002235Hoze Houndz                                       Club Fever/Blaze of Glory                                     B34009 1065607ECC                              
ID FAMCHA021001060346060356000010Generic ID - confetti                                                                                                       150                                
PROFAMCHA021001060356060426000030Mad Dash Block Promo - Today from 3pm to 6pm                                                                                150                                
PRCFAMCHA021001060426060450000024Franklin (LADDER) - Today @ 8:25am                                                                                          150                                
PROFAMCHA021001060450060500000010xxPS Line-Up - 04 - LULU/GOOF/HOM                                                                                           150                                
PROFAMCHA021001060500060509000009CC Disclaimer - FAST - Family.ca (:08-:10)                                                                                  150                                
PGRFAMCHA021001060509062901002352Little Lulu Show; The                             Lancelot Jr./Lucky Lady/Five Little Babies                    C19511A1065607ECC                              
ID FAMCHA021001062901062911000010Generic ID - Bubbles                                                                                                        150                                
PROFAMCHA021001062911062941000030Mad Dash Block Promo - Today from 3pm to 6pm                                                                                150                                
PROFAMCHA021001062941062951000010xxPS Line-Up - 05 - GOOF/HOM/BUZZ                                                                                           150                                
ID FAMCHA021001062951063001000010xxMagic of Disney - V2(sky) - KID FEMALE                                                                                    150                                
PROFAMCHA021001063001063010000009CC Disclaimer - FAST - Click Club (:08-:10) **DNU*                                                                          150                                
PGRFAMCHA021001063010065301002251Goof Troop                                        Everything's Coming Up Goofy                                         6068607ECC                              
ID FAMCHA021001065301065306000005Generic ID - Couch 2*                                                                                                       150                                
PROFAMCHA021001065306065336000030Mad Dash Block Promo - Today from 3pm to 6pm                                                                                150                                
ID FAMCHA021001065336065356000020Schoolhouse Promo - Coming Up                                                                                               150                                
PRCFAMCHA021001065356065420000024Franklin (LADDER) - Today @ 8:25am                                                                                          150                                
INTFAMCHA021001065420065743000323Schoolhouse Rock - The Good Eleven                                                                                    A60686120                                
INTFAMCHA021001065743065938000155Disney Moments - Peter Pan-You Can Fly                                                                                 60688120                                
PROFAMCHA021001065938065950000012Buzz Lightyear (SPACE RANGER) - Today @ 7:30am                                                                              150                                
PROFAMCHA021001065950070000000010xxPS Line-Up - 06 - HOM/BUZZ/LULU                                                                                           150                                
PROFAMCHA021001070000070009000009CC Disclaimer - FAST - Generic (:08-:10)                                                                                    150                                
PGRFAMCHA021001070009072247002238Disney's House Of Mouse                           Super Goof                                                           6068607ECC                              
PROFAMCHA021001072247072259000012Buzz Lightyear (SPACE RANGER) - Coming Up                                                                                   150                                
PROFAMCHA021001072259072329000030Mad Dash Block Promo - Today from 3pm to 6pm                                                                                150                                
ID FAMCHA021001072329072344000015Schoolhouse Promo - Coming Up                                                                                               150                                
PRCFAMCHA021001072344072402000018Franklin (CAST) - Today @ 8:25am                                                                                            150                                
INTFAMCHA021001072402072725000323Schoolhouse Rock - A Victim of Gravity                                                                                A60686120                                
PRCFAMCHA021001072725072747000022Hoze Houndz (FIREFIGHTER) - Today @ 11:15am                                                                                 150                                
INTFAMCHA021001072747072917000130Klootz - Espace 04                                                                                                    A10658120                                
PROFAMCHA021001072917072941000024Legend of Tarzan (S.O.S) - Today @ 4:15pm                                                                                   150                                
PROFAMCHA021001072941072955000014xxPS Line-Up - 07 - BUZZ/LULU/FRANKLIN                                                                                      150                                
PROFAMCHA021001072955073004000009CC Disclaimer - FAST - Family (:08-:10)                                                                                     150                                
PGRFAMCHA021001073004075158002154Disney/Pixar's Buzz Lightyear of Star Command     Revenge of the Raenoks                                               6068607ECC                              
ID FAMCHA021001075158075203000005Generic ID - Fingerpaint                                                                                                    150                                
PROFAMCHA021001075203075233000030Mad Dash Block Promo - Today from 3pm to 6pm                                                                                150                                
ID FAMCHA021001075233075246000013Schoolhouse Promo - Coming Up                                                                                               150                                
PRCFAMCHA021001075246075309000023xxHenry's World (ICE CREAM) - Weekends @ 6:40pm                                                                             150                                
INTFAMCHA021001075309075632000323Schoolhouse Rock - Dollars and Sense                                                                                  A60686120                                
INTFAMCHA021001075632075912000240Art Attack - Baggage Plane                                                                                             60688120                                
PROFAMCHA021001075912075945000033Stanley (CAT BATH) - Today @ 9:35am                                                                                         150                                
PROFAMCHA021001075945075958000013xxPS Line-Up - 08 - LULU/FRANKLIN/ELMO                                                                                      150                                
PROFAMCHA021001075958080007000009CC Disclaimer - FAST - Family.ca (:08-:10)                                                                                  150                                
PGRFAMCHA021001080007082359002352Little Lulu Show; The                             Prisoner Exchange/The Balloon Derby/Dummy Skeleton            C19511A1065607ECC                              
ID FAMCHA021001082359082405000006Generic ID - soccer                                                                                                         150                                
PROFAMCHA021001082405082435000030Mad Dash Block Promo - Today from 3pm to 6pm                                                                                150                                
PROFAMCHA021001082435082447000012Buzz Lightyear (SPACE RANGER) - Today @ 3:25pm                                                                              150                                
PROFAMCHA021001082447082500000013xxPS Line-Up - 09 - FRANKLIN/ELMO/KATIE                                                                                     150                                
PROFAMCHA021001082500082509000009CC Disclaimer - FAST - Click Club (:08-:10) **DNU*                                                                          150                                
PGRFAMCHA021001082509084802002253Franklin                                          Robot/The Detective                                           B38156A1065607ECC                              
ID FAMCHA021001084802084808000006Generic ID - soccer                                                                                                         150                                
PROFAMCHA021001084808084838000030Mad Dash Block Promo - Today from 3pm to 6pm                                                                                150                                
PROFAMCHA021001084838084850000012Buzz Lightyear (SPACE RANGER) - Today @ 3:25pm                                                                              150                                
PROFAMCHA021001084850084900000010xxPS Line-Up - 10 - ELMO/KATIE/STANLEY                                                                                      150                                
PGRFAMCHA021001084900090428001528Elmo's World                                      Families                                                            A2068607G                                
ID FAMCHA021001090428090438000010Generic ID - Pink inner tube                                                                                                150                                
PROFAMCHA021001090438090508000030Mad Dash Block Promo - Today from 3pm to 6pm                                                                                150                                
INTFAMCHA021001090508090718000210Music Break - Sebastian's Party Gras: Iko Iko                                                                          60686120                                
PROFAMCHA021001090718090751000033Stanley (CAT BATH) - Today @ 9:35am                                                                                         150                                
PROFAMCHA021001090751090801000010xxPS Line-Up - 11 (TUES/THURS) - KATIE/STANLEY/BOP                                                                          150                                
PROFAMCHA021001090801090810000009CC Disclaimer - FAST - Generic (:08-:10)                                                                                    150                                
PGRFAMCHA021001090810093448002638Katie And Orbie                                   Mrs Parette's Necklace/Orbie and the Pumpkin Seed/            C19664A1055607ECC3                             
ID FAMCHA021001093448093458000010Generic ID - Ring around the rosie                                                                                          150                                
PROFAMCHA021001093458093528000030Mad Dash Block Promo - Today from 3pm to 6pm                                                                                150                                
PRCFAMCHA021001093528093551000023xxHenry's World (ICE CREAM) - Weekends @ 6:40pm                                                                             150                                
PROFAMCHA021001093551093601000010xxPS Line-Up - 12 (TUES/THURS) - STANLEY/BOP/OOTB                                                                           150                                
PGRFAMCHA021001093601095957002356Stanley                                           Searching For Spring/Save The Bluebird                              A6068607E                                
ID FAMCHA021001095957100012000015Generic ID - confetti                                                                                                       150                                
PROFAMCHA021001100012100042000030Mad Dash Block Promo - Today from 3pm to 6pm                                                                                150                                
PROFAMCHA021001100042100052000010xxPS Line-Up - 13 (TUES/THURS) - BOP/OOTB/DUCKTALE                                                                          150                                
ID FAMCHA021001100052100102000010xxMagic of Disney - V2(sky) - KID MALE                                                                                      150                                
PGRFAMCHA021001100102102507002405Book Of Pooh; The                                 Kessie Gets A Message/Map Of The World                              A6068607G                                
ID FAMCHA021001102507102522000015Generic ID - confetti                                                                                                       150                                
PROFAMCHA021001102522102552000030Mad Dash Block Promo - Today from 3pm to 6pm                                                                                150                                
PROFAMCHA021001102552102602000010xxPS Line-Up - 14 - OOTB/DUCKTALES/HOZE                                                                                     150                                
PGRFAMCHA021001102602105007002405Out of the Box                                    Kids Are Kids                                                       A6068607A                                
ID FAMCHA021001105007105022000015Generic ID - confetti                                                                                                       150                                
PROFAMCHA021001105022105052000030Mad Dash Block Promo - Today from 3pm to 6pm                                                                                150                                
PROFAMCHA021001105052105102000010xxPS Line-Up - 15 - DUCKTALES/HOZE/LULU                                                                                     150                                
PROFAMCHA021001105102105110000008CC Disclaimer - FAST - Family (:08-:10)                                                                                     150                                
PGRFAMCHA021001105110111357002247Disney's DuckTales                                Send In The Clones                                                  A6068607ECC                              
ID FAMCHA021001111357111407000010Generic ID - Bubbles                                                                                                        150                                
PROFAMCHA021001111407111437000030Mad Dash Block Promo - Today from 3pm to 6pm                                                                                150                                
PRCFAMCHA021001111437111459000022Hoze Houndz (FIREFIGHTER) - Coming Up                                                                                       150                                
PROFAMCHA021001111459111514000015Art Attack (MIRROR) - Weekends @ 3pm                                                                                        150                                
PROFAMCHA021001111514111553000039Recess (MAJORITY) - Today @ 5:10pm                                                                                          150                                
PROFAMCHA021001111553111601000008xxPS Line-Up - 16 - HOZE/LULU                                                                                               150                                
PROFAMCHA021001111601111609000008CC Disclaimer - FAST - Family.ca (:08-:10)                                                                                  150                                
PGRFAMCHA021001111609113844002235Hoze Houndz                                       Brainwash/Money For Nuthin'                                   B34010 1065607ECC                              
ID FAMCHA021001113844113854000010Generic ID - Bubbles                                                                                                        150                                
PROFAMCHA021001113854113924000030Mad Dash Block Promo - Today from 3pm to 6pm                                                                                150                                
PRCFAMCHA021001113924113954000030xxHenry's World (TOOTH FAIRY) - Weekends @ 6:40pm                                                                           150                                
PROFAMCHA021001113954114054000100xxKim Possible (BTS) - Weekends @ 4:35pm**DO NOT U                                                                          150                                
PROFAMCHA021001114054114100000006xxPS Line-Up - 17 - LULU                                                                                                    150                                
PROFAMCHA021001114100114109000009CC Disclaimer - FAST - Click Club (:08-:10) **DNU*                                                                          150                                
PGRFAMCHA021001114109120501002352Little Lulu Show; The                             The Bear Trap/Shirley the Shadow/A Dog's Life Save            C19511A1065607ECC                              
ID FAMCHA021001120501120508000007Generic ID - Whisper*                                                                                                       150                                
PROFAMCHA021001120508120538000030Mad Dash Block Promo - Today from 3pm to 6pm                                                                                150                                
ID FAMCHA021001120538120559000021Prime time open count down                                                                                                  150                                
PROFAMCHA021001120559120609000010CC Disclaimer - FAST - Generic (:08-:10)                                                                                    150                                
PGRFAMCHA021001120609122833002224Smart Guy                                         Break Up Not Make Up                                                A6068807BCC                              
ID FAMCHA021001122833122843000010Generic ID - confetti                                                                                                       150                                
PROFAMCHA021001122843122913000030Mad Dash Block Promo - Today from 3pm to 6pm                                                                                150                                
INTFAMCHA021001122913123017000104Jack and Marcel: Ep.053 "Who's Who"                                                                                   A40688120                                
PROFAMCHA021001123017123050000033Stanley (CAT BATH) - Today @ 1:20pm                                                                                         150                                
PROFAMCHA021001123050123100000010xxPS Line-Up - 18 - ELMO/KATIE/STANLEY                                                                                      150                                
PGRFAMCHA021001123100124626001526Elmo's World                                      Birds                                                               A2068607G                                
ID FAMCHA021001124626124631000005Generic ID - Couch 1*                                                                                                       150                                
PROFAMCHA021001124631124701000030Mad Dash Block Promo - Today from 3pm to 6pm                                                                                150                                
PROFAMCHA021001124701124734000033Stanley (CAT BATH) - Today @ 1:20pm                                                                                         150                                
INTFAMCHA021001124734125030000256MV Disney - Strangers Like Me (PHIL COLLINS)                                                                           60688120                                
PROFAMCHA021001125030125050000020Recess (BALLS) - Today @ 5:10pm                                                                                             150                                
PROFAMCHA021001125050125100000010xxPS Line-Up - 19 (TUES/THURS) - KATIE/STANLEY/BOP                                                                          150                                
PROFAMCHA021001125100125109000009CC Disclaimer - FAST - Family (:08-:10)                                                                                     150                                
PGRFAMCHA021001125109131747002638Katie And Orbie                                   Chill/Christian/Seventh Wave                                  C19664A1055607ECC3                             
ID FAMCHA021001131747131752000005Generic ID - Couch 2*                                                                                                       150                                
PROFAMCHA021001131752131822000030Mad Dash Block Promo - Today from 3pm to 6pm                                                                                150                                
PROFAMCHA021001131822131850000028xxKim Possible (SOCKS) - Weekends @ 4:35pm**DO NOT                                                                          150                                
PROFAMCHA021001131850131900000010xxPS Line-Up - 20 (TUES/THURS) - STANLEY/BOP/OOTB                                                                           150                                
PGRFAMCHA021001131900134256002356Stanley                                           Searching For Spring/Save The Bluebird                              A6068607E                                
ID FAMCHA021001134256134311000015Generic ID - confetti                                                                                                       150                                
PROFAMCHA021001134311134341000030Mad Dash Block Promo - Today from 3pm to 6pm                                                                                150                                
PROFAMCHA021001134341134351000010xxPS Line-Up - 21 (TUES/THURS) - BOP/OOTB/DUCKTALE                                                                          150                                
ID FAMCHA021001134351134401000010xxMagic of Disney - V3(water) - TEEN FEMALE                                                                                 150                                
PGRFAMCHA021001134401140806002405Book Of Pooh; The                                 Stickiest Glue Of All/A Smackeral In Every Pot                      A6028607G                                
ID FAMCHA021001140806140821000015Generic ID - confetti                                                                                                       150                                
PROFAMCHA021001140821140851000030Mad Dash Block Promo - Today from 3pm to 6pm                                                                                150                                
PROFAMCHA021001140851140901000010xxPS Line-Up - 22 - OOTB/DUCKTALES/HOZE                                                                                     150                                
PGRFAMCHA021001140901143106002205Out of the Box                                    Doctor Octor                                                         60686110                                
ID FAMCHA021001143106143111000005Generic ID - Bubbles*                                                                                                       150                                
PROFAMCHA021001143111143141000030Mad Dash Block Promo - Coming Up Next                                                                                       150                                
PRCFAMCHA021001143141143203000022Hoze Houndz (FIREFIGHTER) - Today @ 3pm                                                                                     150                                
INTFAMCHA021001143203143428000225Art Attack - Snooker                                                                                                   60686120                                
PRCFAMCHA021001143428143454000026xxHenry's World (MERRY GO ROUND) - Weekends @ 6:40                                                                          150                                
PROFAMCHA021001143454143500000006xxPS Line-Up - 23 - DUCKTALES (14:35PM)                                                                                     150                                
PROFAMCHA021001143500143509000009CC Disclaimer - FAST - Family.ca (:08-:10)                                                                                  150                                
PGRFAMCHA021001143509145755002246Disney's DuckTales                                Pearl Of Wisdom                                                     A6068607ECC                              
PROFAMCHA021001145755145811000016xxMD - 01 - HOZE/BUZZ/PEPPER (:13-:16)*DNU*                                                                                 150                                
PROFAMCHA021001145811145831000020Recess (BALLS) - Today @ 5:10pm                                                                                             150                                
PROFAMCHA021001145831145915000044Mad Dash - LEGEND OF TARZAN - Coconut                                                                                       150                                
PROFAMCHA021001145915145945000030Nonstop Block Promo - Tonight, Starting @ 6pm                                                                               150                                
OFFFAMCHA021001145945150000000015Mad Dash Block Open (:10-:15)                                                                                                                                  
PROFAMCHA021001150000150009000009CC Disclaimer - FAST - Click Club (:08-:10) **DNU*                                                                          150                                
PGRFAMCHA021001150009152244002235Hoze Houndz                                       Ranger Bob/Bad Medicine                                       B34011A1065607ECC                              
PROFAMCHA021001152244152258000014MD - 02 - BUZZ/PEPPER/TARZAN (:13-:16)                                                                                      150                                
PROFAMCHA021001152258152328000030Popcorn Pix Movie Promo - Fridays @ 7:30pm                                                                                  150                                
PROFAMCHA021001152328152338000010Popcorn Pix Line-Up - OCT04 - Friday @ 7:30pm                                                                               150                                
PROFAMCHA021001152338152408000030Big Fat Laughs Contest - Available Now                                                                                      150                                
PROFAMCHA021001152408152427000019Mad Dash - LEGEND OF TARZAN - Swinging                                                                                      150                                
PROFAMCHA021001152427152447000020xxAll That - Tonight @ 6:30pm *DNU*                                                                                         150                                
OFFFAMCHA021001152447152500000013Mad Dash Block Open (:10-:15)                                                                                                                                  
PROFAMCHA021001152500152509000009CC Disclaimer - FAST - Generic (:08-:10)                                                                                    150                                
PGRFAMCHA021001152509154732002223Disney/Pixar's Buzz Lightyear of Star Command     First Missions                                                       6068607ECC                              
PROFAMCHA021001154732154746000014MD - 03 - PEPPER/TARZAN/WKNDRS (:13-:16)                                                                                    150                                
PROFAMCHA021001154746154816000030Virginia's Run Contest - In Theatres October 11th                                                                           150                                
PROFAMCHA021001154816154846000030Mad Dash Block Promo - Weekdays from 3pm to 6pm                                                                             150                                
PROFAMCHA021001154846154916000030xxKim Possible (FAMILY) - Weekends @ 4:35pm**DO NO                                                                          150                                
PROFAMCHA021001154916154946000030xxBoy Meets World - Tonight @ 8pm                                                                                           150                                
OFFFAMCHA021001154946155000000014Mad Dash Block Open (:10-:15)                                                                                                                                  
PROFAMCHA021001155000155009000009CC Disclaimer - FAST - Family (:08-:10)                                                                                     150                                
PGRFAMCHA021001155009161241002232Disney's Pepper Ann                               Live and Let Dye                                                     6068607ECC                              
PROFAMCHA021001161241161255000014MD - 04 - TARZAN/WKNDRS/RECESS (:13-:16)                                                                                    150                                
PROFAMCHA021001161255161310000015UFC Winner Teaser                                                                                                           150                                
PROFAMCHA021001161310161346000036Teamo Supremo (STINGER) - Weekends @ 5pm                                                                                    150                                
PROFAMCHA021001161346161416000030Nonstop Block Promo - Tonight, Starting @ 6pm                                                                               150                                
PROFAMCHA021001161416161546000130Virginia's Run Interview - In Theatres October 11t                                                                          150                                
OFFFAMCHA021001161546161600000014Mad Dash Block Open (:10-:15)                                                                                                                                  
PGRFAMCHA021001161600163846002246Disney's The Legend of Tarzan                     Prison Break                                                        A6068607E                                
PROFAMCHA021001163846163859000013MD - 05 - WKNDRS/RECESS/LIZZIE (:13-:16)                                                                                    150                                
PROFAMCHA021001163859163929000030Popcorn Pix Movie Promo - Fridays @ 7:30pm                                                                                  150                                
PROFAMCHA021001163929163939000010Popcorn Pix Line-Up - OCT04 - Friday @ 7:30pm                                                                               150                                
PROFAMCHA021001163939163951000012Mad Dash - WEEKENDERS - Reality                                                                                             150                                
PROFAMCHA021001163951164121000130Virginia's Run Interview - In Theatres October 11t                                                                          150                                
PROFAMCHA021001164121164151000030Big Fat Laughs Contest - Available Now                                                                                      150                                
OFFFAMCHA021001164151164201000010Mad Dash Block Open (:10-:15)                                                                                                                                  
PROFAMCHA021001164201164209000008CC Disclaimer - FAST - Family.ca (:08-:10)                                                                                  150                                
PGRFAMCHA021001164209170441002232Disney's The Weekenders                           Shoes Of Destiny/Sense and Sensitivity                              A6068607ECC                              
PROFAMCHA021001170441170455000014MD - 06 - RECESS/LIZZIE/AMANDA (:13-:16)                                                                                    150                                
PROFAMCHA021001170455170525000030Virginia's Run Contest - In Theatres October 11th                                                                           150                                
PROFAMCHA021001170525170555000030Mad Dash Block Promo - Weekdays from 3pm to 6pm                                                                             150                                
INTFAMCHA021001170555170659000104Jack and Marcel: Ep.050 "The Tomato"                                                                                  A40688120                                
PROFAMCHA021001170659170746000047Amanda Show (HAM) - Tonight @ 6pm                                                                                           150                                
OFFFAMCHA021001170746170800000014Mad Dash Block Open (:10-:15)                                                                                                                                  
PGRFAMCHA021001170800173035002235Disney's Recess                                   That Stinking Feeling/Lord of the Nerds                              6068607E                                
PROFAMCHA021001173035173050000015MD - 07 - LIZZIE/AMANDA/ALLTHAT (:13-:16)                                                                                   150                                
PROFAMCHA021001173050173220000130Virginia's Run Interview - In Theatres October 11t                                                                          150                                
PROFAMCHA021001173220173250000030Nonstop Block Promo - Tonight, Starting @ 6pm                                                                               150                                
PROFAMCHA021001173250173331000041Amanda Show (KYLE) - Tonight @ 6pm                                                                                          150                                
PROFAMCHA021001173331173346000015UFC Winner Teaser                                                                                                           150                                
OFFFAMCHA021001173346173400000014Mad Dash Block Open (:10-:15)                                                                                                                                  
PROFAMCHA021001173400173409000009CC Disclaimer - FAST - Click Club (:08-:10) **DNU*                                                                          150                                
PGRFAMCHA021001173409175645002236Lizzie McGuire                                    Rumors                                                              A6068607B                                
PROFAMCHA021001175645175658000013NS - MON-THURS - 01 - AMNDA/ALL/EVEN (:13-:16)                                                                              150                                
PROFAMCHA021001175658175728000030Popcorn Pix Movie Promo - Fridays @ 7:30pm                                                                                  150                                
PROFAMCHA021001175728175738000010Popcorn Pix Line-Up - OCT04 - Friday @ 7:30pm                                                                               150                                
INTFAMCHA021001175738175908000130Family X-Pedition - Ep.22                                                                                             A10656120                                
PROFAMCHA021001175908175919000011Nonstop - ALL THAT - Boring                                                                                                 150                                
PROFAMCHA021001175919175949000030Big Fat Laughs Contest - Available Now                                                                                      150                                
OFFFAMCHA021001175949180000000011Nonstop Block Open (:10-:15)                                                                                                                                   
PGRFAMCHA021001180000182205002205Amanda Show; The                                  2-027                                                               A20686090                                
PROFAMCHA021001182205182219000014NS - MON-THURS - 02 - ALL/EVEN/JETT (:13-:16)                                                                               150                                
PROFAMCHA021001182219182249000030Virginia's Run Contest - In Theatres October 11th                                                                           150                                
PROFAMCHA021001182249182319000030xxBoy Meets World - Tonight @ 8pm                                                                                           150                                
INTFAMCHA021001182319182449000130Family X-Pedition - Ep.20                                                                                             A10656120                                
PROFAMCHA021001182449182528000039Recess (MAJORITY) - Weekdays @ 5:10pm                                                                                       150                                
INTFAMCHA021001182528182917000349MV Disney - Dancing In The Street (MYRA)                                                                               60688120                                
PROFAMCHA021001182917182947000030Mad Dash Block Promo - Tomorrow from 3pm to 6pm                                                                             150                                
OFFFAMCHA021001182947183000000013Nonstop Block Open (:10-:15)                                                                                                                                   
PGRFAMCHA021001183000185420002420All That                                          593                                                                 A20686090                                
PROFAMCHA021001185420185434000014NS - MON-THURS - 03 - EVEN/JETT/BMW (:13-:16)                                                                               150                                
PROFAMCHA021001185434185449000015UFC Winner Teaser                                                                                                           150                                
PROFAMCHA021001185449185521000032Nonstop - JETT JACKSON - Crisis                                                                                             150                                
PROFAMCHA021001185521185558000037Amanda Show (CLEAN) - Weeknights @ 6pm                                                                                      150                                
INTFAMCHA021001185558185854000256MV Disney - Strangers Like Me (PHIL COLLINS)                                                                           60688120                                
PROFAMCHA021001185854185924000030Nonstop Block Promo - Weeknights, 6pm to 9pm                                                                                150                                
PROFAMCHA021001185924185948000024Legend of Tarzan (S.O.S) - Weekdays @ 4:15pm                                                                                150                                
OFFFAMCHA021001185948190000000012Nonstop Block Open (:10-:15)                                                                                                                                   
PROFAMCHA021001190000190009000009CC Disclaimer - FAST - Generic (:08-:10)                                                                                    150                                
PGRFAMCHA021001190009192251002242Even Stevens                                      All About Yvette                                                    A6068807BCC                              
PROFAMCHA021001192251192305000014xxNS - MON-THURS - 04 - JETT/BMW/DARK (:13-:16)*DN                                                                          150                                
PROFAMCHA021001192305192335000030Popcorn Pix Movie Promo - Fridays @ 7:30pm                                                                                  150                                
PROFAMCHA021001192335192345000010Popcorn Pix Line-Up - OCT04 - Friday @ 7:30pm                                                                               150                                
PROFAMCHA021001192345192433000048Nonstop - AMANDA SHOW - Camera                                                                                              150                                
PROFAMCHA021001192433192603000130Virginia's Run Interview - In Theatres October 11t                                                                          150                                
PROFAMCHA021001192603192631000028Nonstop - DARK - Highway 13                                                                                                 150                                
PROFAMCHA021001192631192646000015UFC Winner Teaser                                                                                                           150                                
INTFAMCHA021001192646192920000234Art Attack - Shopping Cart                                                                                             60686120                                
PROFAMCHA021001192920192950000030Big Fat Laughs Contest - Available Now                                                                                      150                                
OFFFAMCHA021001192950193000000010Nonstop Block Open (:10-:15)                                                                                                                                   
PROFAMCHA021001193000193009000009CC Disclaimer - FAST - Family (:08-:10)                                                                                     150                                
PGRFAMCHA021001193009195440002431Famous Jett Jackson; The                          Survival of the Fittest                                       B57174 1065607ACC                              
PROFAMCHA021001195440195453000013xxNS - MON-THURS - 05 - BMW/DARK/N-PIX (:13-:16)*D                                                                          150                                
PROFAMCHA021001195453195523000030Big Fat Laughs Contest - Available Now                                                                                      150                                
PROFAMCHA021001195523195543000020Nonstop - BOY MEETS WORLD - Good Looking                                                                                    150                                
INTFAMCHA021001195543195818000235Art Attack - Car Bike                                                                                                  60686120                                
PROFAMCHA021001195818195918000100xxKim Possible (BTS) - Weekends @ 4:35pm**DO NOT U                                                                          150                                
PROFAMCHA021001195918195948000030Mad Dash Block Promo - Tomorrow from 3pm to 6pm                                                                             150                                
OFFFAMCHA021001195948200000000012Nonstop Block Open (:10-:15)                                                                                                                                   
PROFAMCHA021001200000200009000009CC Disclaimer - FAST - Family.ca (:08-:10)                                                                                  150                                
PGRFAMCHA021001200009202234002225Boy Meets World                                   Wake Up, Little Cory                                                B6028807BCC                              
PROFAMCHA021001202234202246000012xxNS - MON-THURS - 06 - DARK/N-PIX (:10-:13)*DNU*                                                                           150                                
PROFAMCHA021001202246202301000015UFC Winner Teaser                                                                                                           150                                
PROFAMCHA021001202301202331000030Nonstop Block Promo - Weeknights, 6pm to 9pm                                                                                150                                
PROFAMCHA021001202331202341000010FAMJAM - Open                                                                                                               150                                
INTFAMCHA021001202341202739000358MV - Ordinary Day (Vanessa Carlton)                                                                                   A20688120                                
PROFAMCHA021001202739202753000014FAMJAM - Close (FAMILY)                                                                                                     150                                
PROFAMCHA021001202753202832000039Recess (MAJORITY) - Weekdays @ 5:10pm                                                                                       150                                
PROFAMCHA021001202832202847000015Nonstop - ALL THAT - Mouth                                                                                                  150                                
PROFAMCHA021001202847202947000100Amanda Show (UNDERPANTS) - Weeknights @ 6pm                                                                                 150                                
OFFFAMCHA021001202947203000000013Nonstop Block Open (:10-:15)                                                                                                                                   
PGRFAMCHA021001203000205424002424Are You Afraid Of The Dark?                       The Tale of Watcher's Woods                                   SR0304 1066807A                                
ID FAMCHA021001205424205434000010Generic ID - Bubbles                                                                                                        150                                
PROFAMCHA021001205434205504000030Popcorn Pix Movie Promo - Fridays @ 7:30pm                                                                                  150                                
PROFAMCHA021001205504205514000010Popcorn Pix Line-Up - OCT04 - Friday @ 7:30pm                                                                               150                                
PROFAMCHA021001205514205544000030Amanda Show (CONCEPT) - Weeknights @ 6pm                                                                                    150                                
INTFAMCHA021001205544205714000130Family X-Pedition - Ep.21                                                                                             A10656120                                
PROFAMCHA021001205714205729000015UFC Winner Teaser                                                                                                           150                                
INTFAMCHA021001205729205859000130Klootz - Medecin 06 (post 7PM)                                                                                        A10658120                                
PROFAMCHA021001205859205929000030Nonstop Block Promo - Tomorrow, Starting @ 6pm                                                                              150                                
PRCFAMCHA021001205929205940000011Morning Block menu background (flex time)                                                                                   150                                
ID FAMCHA021001205940210000000020Move open family size movie                                                                                                 150                                
PRCFAMCHA021001210000210009000009Rating - PG - Ian (:08-:10)                                                                                                 150                                
PGRFAMCHA021001210009223124013115Almost An Angel                                                                                                       B2068807D                                
ID FAMCHA021001223124223129000005Generic ID - Bubbles*                                                                                                       150                                
PGRFAMCHA021001223129225552002423Are You Afraid Of The Dark?                       The Tale of the Phone Police                                  SR0304 1066807A                                
ID FAMCHA021001225552225607000015Generic ID - confetti                                                                                                       150                                
PROFAMCHA021001225607225637000030Popcorn Pix Movie Promo - Fridays @ 7:30pm                                                                                  150                                
PROFAMCHA021001225637225647000010Popcorn Pix Line-Up - OCT04 - Friday @ 7:30pm                                                                               150                                
PROFAMCHA021001225647225727000040xxNowhere Man - Coming Up**DO NOT USE**                                                                                     150                                
INTFAMCHA021001225727225857000130Klootz - Handymen 04 (post 7PM)                                                                                       A10658120                                
PROFAMCHA021001225857225927000030Nonstop Block Promo - Tomorrow, Starting @ 6pm                                                                              150                                
PRCFAMCHA021001225927225939000012Morning Block menu background (flex time)                                                                                   150                                
ID FAMCHA021001225939230000000021Prime time open count down                                                                                                  150                                
PROFAMCHA021001230000230009000009CC Disclaimer - SLOW - Click Club (:08-:10) **DNU*                                                                          150                                
PGRFAMCHA021001230009234414004405Nowhere Man                                       Turnabout                                                           C6068807ACC                              
ID FAMCHA021001234414234425000011Generic ID - soccer                                                                                                         150                                
PROFAMCHA021001234425234455000030Popcorn Pix Movie Promo - Fridays @ 7:30pm                                                                                  150                                
PROFAMCHA021001234455234505000010Popcorn Pix Line-Up - OCT04 - Friday @ 7:30pm                                                                               150                                
PGRFAMCHA021001234505235829001324Goofy's Freeway Troubles                                                                                               60688150                                
PROFAMCHA021001235829235909000040xxNowhere Man - Tomorrow @ 11pm**DO NOT USE**                                                                               150                                
PROFAMCHA021001235909235939000030Nonstop Block Promo - Tomorrow, Starting @ 6pm                                                                              150                                
ID FAMCHA021001235939000000000021Prime time open count down                                                                                                  150                                
PGRFAMCHA021001000000002219002219Amazing Stories                                   Without Diana                                                       A2028807A                                
ID FAMCHA021001002219002229000010Generic ID - Bubbles                                                                                                        150                                
PROFAMCHA021001002229002259000030Popcorn Pix Movie Promo - Fridays @ 7:30pm                                                                                  150                                
PROFAMCHA021001002259002309000010Popcorn Pix Line-Up - OCT04 - Friday @ 7:30pm                                                                               150                                
PRCFAMCHA021001002309002339000030@ The Movies - Sunday @ 8:45pm                                                                                              150                                
INTFAMCHA021001002339002829000450MV Disney - Circle of Life (ELTON JOHN)                                                                                60688120                                
PROFAMCHA021001002829002909000040xxNowhere Man - Tomorrow @ 11pm**DO NOT USE**                                                                               150                                
PROFAMCHA021001002909002939000030Nonstop Block Promo - Tomorrow, Starting @ 6pm                                                                              150                                
ID FAMCHA021001002939003000000021Prime time open count down                                                                                                  150                                
PGRFAMCHA021001003000005422002422Are You Afraid Of The Dark?                       The Tale of the Dollmaker                                     SR0304 1066807A                                
ID FAMCHA021001005422005427000005Generic ID - Couch 2*                                                                                                       150                                
PROFAMCHA021001005427005457000030Popcorn Pix Movie Promo - Fridays @ 7:30pm                                                                                  150                                
PROFAMCHA021001005457005507000010Popcorn Pix Line-Up - OCT04 - Friday @ 7:30pm                                                                               150                                
PROFAMCHA021001005507005607000100Amanda Show (UNDERPANTS) - Weeknights @ 6pm                                                                                 150                                
PROFAMCHA021001005607005637000030Nonstop Block Promo - Tomorrow, Starting @ 6pm                                                                              150                                
PROFAMCHA021001005637005737000100xxKim Possible (BTS) - Weekends @ 4:35pm**DO NOT U                                                                          150                                
INTFAMCHA021001005737010200000423Art Attack - Swimmer                                                                                                   60686120                                
SO FAMCHA021001010200010212000012Sign Off (oct 1)                                                                                                                                               
OFFFAMCHA021001010212043000032748                                                                                                                                                               
SO FAMCHA021002043000043011000011Sign On (oct 1)                                                                                                                                                
PGRFAMCHA021002043011045216002205Out of the Box                                    Doctor Octor                                                         60686110                                
ID FAMCHA021002045216045226000010Generic ID - confetti                                                                                                       150                                
PROFAMCHA021002045226045303000037Art Attack (LIZARD) - Coming Up                                                                                             150                                
PRCFAMCHA021002045303045325000022Hoze Houndz (FIREFIGHTER) - Today @ 5:40am                                                                                  150                                
PRCFAMCHA021002045325045351000026xxHenry's World (MERRY GO ROUND) - Weekends @ 6:40                                                                          150                                
PROFAMCHA021002045351045401000010xxPS Line-Up - 01 - ART/KATIE/HOZE                                                                                          150                                
PGRFAMCHA021002045401050913001512Art Attack                                        1-032                                                                60686110                                
ID FAMCHA021002050913050918000005Generic ID - Couch 1*                                                                                                       150                                
PRCFAMCHA021002050918050940000022Hoze Houndz (FIREFIGHTER) - Today @ 5:40am                                                                                  150                                
INTFAMCHA021002050940051320000340Art Attack - Tape Batman                                                                                               60686120                                
PRCFAMCHA021002051320051350000030xxHenry's World (TOOTH FAIRY) - Weekends @ 6:40pm                                                                           150                                
PROFAMCHA021002051350051400000010xxPS Line-Up - 02 - KATIE/HOZE/LULU                                                                                         150                                
PROFAMCHA021002051400051409000009CC Disclaimer - FAST - Generic (:08-:10)                                                                                    150                                
PGRFAMCHA021002051409054047002638Katie And Orbie                                   Lumpy Bed/Vincent and the Art Gallery/The Buskers             C19665A1065607ECC                              
ID FAMCHA021002054047054052000005Generic ID - Couch 2*                                                                                                       150                                
PROFAMCHA021002054052054102000010xxPS Line-Up - 03 - HOZE/LULU/GOOF                                                                                          150                                
PROFAMCHA021002054102054111000009CC Disclaimer - FAST - Family (:08-:10)                                                                                     150                                
PGRFAMCHA021002054111060346002235Hoze Houndz                                       Jail Houndz/Crystal Clear                                     B34012A1065607ECC                              
ID FAMCHA021002060346060356000010Generic ID - Pink inner tube                                                                                                150                                
PRCFAMCHA021002060356060426000030xxHenry's World (TOOTH FAIRY) - Weekends @ 6:40pm                                                                           150                                
PROFAMCHA021002060426060450000024Legend of Tarzan (S.O.S) - Today @ 4:15pm                                                                                   150                                
PROFAMCHA021002060450060500000010xxPS Line-Up - 04 - LULU/GOOF/HOM                                                                                           150                                
PROFAMCHA021002060500060509000009CC Disclaimer - FAST - Family.ca (:08-:10)                                                                                  150                                
PGRFAMCHA021002060509062901002352Little Lulu Show; The                             Potato Kids/The Ventriloquist/Bunny Fun                       C19511A1065607ECC                              
ID FAMCHA021002062901062907000006Generic ID - soccer                                                                                                         150                                
PROFAMCHA021002062907062940000033Book Of Pooh (ADVENTURE - NEW EPS) - Tomorrow @ 10                                                                          150                                
PROFAMCHA021002062940062950000010xxPS Line-Up - 05 - GOOF/HOM/BUZZ                                                                                           150                                
ID FAMCHA021002062950063000000010xxMagic of Disney - V3(water) - KID MALE                                                                                    150                                
PROFAMCHA021002063000063009000009CC Disclaimer - FAST - Generic (:08-:10)                                                                                    150                                
PGRFAMCHA021002063009065257002248Goof Troop                                        Good Neighbour Goof                                                  6068607ECC                              
ID FAMCHA021002065257065304000007Generic ID - Whisper*                                                                                                       150                                
PRCFAMCHA021002065304065327000023xxHenry's World (ICE CREAM) - Weekends @ 6:40pm                                                                             150                                
ID FAMCHA021002065327065342000015Schoolhouse Promo - Coming Up                                                                                               150                                
INTFAMCHA021002065342065557000215Disney Circle Time - Endless Story (anywhere but D                                                                     60688120                                
INTFAMCHA021002065557065920000323Schoolhouse Rock - Ready or Not, Here I Come                                                                          A60686120                                
PROFAMCHA021002065920065950000030Power Rangers Wild Force (CHAIR) - Weekends @ 6:30                                                                          150                                
PROFAMCHA021002065950070000000010xxPS Line-Up - 06 - HOM/BUZZ/LULU                                                                                           150                                
PROFAMCHA021002070000070009000009CC Disclaimer - FAST - Family (:08-:10)                                                                                     150                                
PGRFAMCHA021002070009072244002235Disney's House Of Mouse                           The Stolen Cartoons                                                  6068607ECC                              
ID FAMCHA021002072244072254000010Generic ID - Hula Hoop                                                                                                      150                                
PROFAMCHA021002072254072306000012Buzz Lightyear (SPACE RANGER) - Coming Up                                                                                   150                                
PROFAMCHA021002072306072336000030Mad Dash Block Promo - Today from 3pm to 6pm                                                                                150                                
ID FAMCHA021002072336072349000013Schoolhouse Promo - Coming Up                                                                                               150                                
PROFAMCHA021002072349072422000033Stanley (CAT BATH) - Today @ 9:35am                                                                                         150                                
INTFAMCHA021002072422072745000323Schoolhouse Rock - My Hero, Zero                                                                                      A60686120                                
INTFAMCHA021002072745072928000143MV Disney - Siamese Cat Song                                                                                           60688120                                
PRCFAMCHA021002072928072950000022Hoze Houndz (FIREFIGHTER) - Today @ 11:15am                                                                                 150                                
PROFAMCHA021002072950073000000010xxPS Line-Up - 07 - BUZZ/LULU/FRANKLIN                                                                                      150                                
PROFAMCHA021002073000073009000009CC Disclaimer - FAST - Family.ca (:08-:10)                                                                                  150                                
PGRFAMCHA021002073009075200002151Disney/Pixar's Buzz Lightyear of Star Command     The Starthought                                                      6068607ECC                              
ID FAMCHA021002075200075211000011Generic ID - soccer                                                                                                         150                                
PROFAMCHA021002075211075241000030Mad Dash Block Promo - Today from 3pm to 6pm                                                                                150                                
ID FAMCHA021002075241075256000015Schoolhouse Promo - Coming Up                                                                                               150                                
PRCFAMCHA021002075256075314000018Franklin (CAST) - Today @ 8:25am                                                                                            150                                
INTFAMCHA021002075314075637000323Schoolhouse Rock - The Tale of Mr. Morton                                                                             A60686120                                
INTFAMCHA021002075637075920000243Art Attack - Eiffel Tower                                                                                              60686120                                
PRCFAMCHA021002075920075950000030xxHenry's World (TOOTH FAIRY) - Weekends @ 6:40pm                                                                           150                                
PROFAMCHA021002075950080000000010xxPS Line-Up - 08 - LULU/FRANKLIN/ELMO                                                                                      150                                
PROFAMCHA021002080000080009000009CC Disclaimer - FAST - Generic (:08-:10)                                                                                    150                                
PGRFAMCHA021002080009082401002352Little Lulu Show; The                             The Bogeyman/Tattoos/Mimibur                                  C19511A1065607ECC                              
ID FAMCHA021002082401082411000010Generic ID - Family w/dog                                                                                                   150                                
PROFAMCHA021002082411082450000039Recess (MAJORITY) - Today @ 5:10pm                                                                                          150                                
PROFAMCHA021002082450082500000010xxPS Line-Up - 09 - FRANKLIN/ELMO/KATIE                                                                                     150                                
PROFAMCHA021002082500082509000009CC Disclaimer - FAST - Family (:08-:10)                                                                                     150                                
PGRFAMCHA021002082509084802002253Franklin                                          Fearless/Lucky Charm                                          B38157A1065607ECC                              
ID FAMCHA021002084802084808000006Generic ID - soccer                                                                                                         150                                
PROFAMCHA021002084808084820000012Buzz Lightyear (SPACE RANGER) - Today @ 3:25pm                                                                              150                                
PRCFAMCHA021002084820084850000030xxHenry's World (TOOTH FAIRY) - Weekends @ 6:40pm                                                                           150                                
PROFAMCHA021002084850084900000010xxPS Line-Up - 10 - ELMO/KATIE/STANLEY                                                                                      150                                
PGRFAMCHA021002084900090431001531Elmo's World                                      Computers                                                           A2068607G                                
ID FAMCHA021002090431090437000006Generic ID - soccer                                                                                                         150                                
PRCFAMCHA021002090437090503000026xxHenry's World (MERRY GO ROUND) - Weekends @ 6:40                                                                          150                                
PROFAMCHA021002090503090536000033Stanley (CAT BATH) - Today @ 9:35am                                                                                         150                                
INTFAMCHA021002090536090640000104Jack and Marcel: Ep.070 "Reflection"                                                                                  A40688120                                
PROFAMCHA021002090640090717000037Art Attack (LIZARD) - Weekends @ 3pm                                                                                        150                                
PROFAMCHA021002090717090750000033Book Of Pooh (ADVENTURE - NEW EPS) - Tomorrow @ 10                                                                          150                                
PROFAMCHA021002090750090800000010xxPS Line-Up - 11 (MON/WED/FRI) - KATIE/STANLEY/WT                                                                          150                                
PROFAMCHA021002090800090809000009CC Disclaimer - FAST - Family.ca (:08-:10)                                                                                  150                                
PGRFAMCHA021002090809093447002638Katie And Orbie                                   Pizza/The Argument/Sidewalk Storyboard                        C19664A1055607ECC3                             
ID FAMCHA021002093447093457000010Generic ID - Family w/dog                                                                                                   150                                
PROFAMCHA021002093457093530000033Stanley (CAT BATH) - Coming Up                                                                                              150                                
PROFAMCHA021002093530093550000020Recess (BALLS) - Today @ 5:10pm                                                                                             150                                
PROFAMCHA021002093550093600000010xxPS Line-Up - 12 (MON/WED/FRI) - STANLEY/WTP/OOTB                                                                          150                                
PGRFAMCHA021002093600095956002356Stanley                                           In A While, Crocodile/The Color of Stanley                          A6068607E                                
ID FAMCHA021002095956100001000005Generic ID - Couch 2*                                                                                                       150                                
PROFAMCHA021002100001100040000039Recess (MAJORITY) - Today @ 5:10pm                                                                                          150                                
PROFAMCHA021002100040100050000010xxPS Line-Up - 13 (MON/WED/FRI) - WTP/OOTB/DUCKTAL                                                                          150                                
ID FAMCHA021002100050100100000010xxMagic of Disney - V3(water) - KID MALE                                                                                    150                                
PROFAMCHA021002100100100109000009CC Disclaimer - FAST - Family (:08-:10)                                                                                     150                                
PGRFAMCHA021002100109102352002243New Adventures of Winnie the Pooh; The            Tigger Is The Mother of Invention/Bug Stops Here                     6068607ECC                              
ID FAMCHA021002102352102402000010Generic ID - Bubbles                                                                                                        150                                
PRCFAMCHA021002102402102428000026xxHenry's World (MERRY GO ROUND) - Weekends @ 6:40                                                                          150                                
PRCFAMCHA021002102428102450000022Hoze Houndz (FIREFIGHTER) - Today @ 11:15am                                                                                 150                                
PROFAMCHA021002102450102527000037Art Attack (LIZARD) - Weekends @ 3pm                                                                                        150                                
PROFAMCHA021002102527102551000024Legend of Tarzan (S.O.S) - Today @ 4:15pm                                                                                   150                                
PROFAMCHA021002102551102601000010xxPS Line-Up - 14 - OOTB/DUCKTALES/HOZE                                                                                     150                                
PROFAMCHA021002102601102610000009CC Disclaimer - FAST - Family.ca (:08-:10)                                                                                  150                                
PGRFAMCHA021002102610105016002406Out of the Box                                    Revealing Feelings                                                  A6068607ACC                              
ID FAMCHA021002105016105026000010Generic ID - Pink inner tube                                                                                                150                                
PROFAMCHA021002105026105050000024Legend of Tarzan (S.O.S) - Today @ 4:15pm                                                                                   150                                
PROFAMCHA021002105050105100000010xxPS Line-Up - 15 - DUCKTALES/HOZE/LULU                                                                                     150                                
PROFAMCHA021002105100105109000009CC Disclaimer - FAST - Family (:08-:10)                                                                                     150                                
PGRFAMCHA021002105109111359002250Disney's DuckTales                                Aqua Ducks                                                          A6068607ECC                              
ID FAMCHA021002111359111409000010Generic ID - Bubbles                                                                                                        150                                
PRCFAMCHA021002111409111431000022Hoze Houndz (FIREFIGHTER) - Coming Up                                                                                       150                                
PRCFAMCHA021002111431111454000023xxHenry's World (ICE CREAM) - Weekends @ 6:40pm                                                                             150                                
PROFAMCHA021002111454111519000025xxKim Possible (REPUTATION) - Weekends @ 4:35pm**D                                                                          150                                
PROFAMCHA021002111519111552000033Stanley (CAT BATH) - Today @ 1:20pm                                                                                         150                                
PROFAMCHA021002111552111600000008xxPS Line-Up - 16 - HOZE/LULU                                                                                               150                                
PROFAMCHA021002111600111609000009CC Disclaimer - FAST - Generic (:08-:10)                                                                                    150                                
PGRFAMCHA021002111609113844002235Hoze Houndz                                       The Day The Houndz Stood Still/Poeticize                      B34013A1065607ECC                              
ID FAMCHA021002113844113849000005Generic ID - Marbles                                                                                                        150                                
PROFAMCHA021002113849113919000030Mad Dash Block Promo - Today from 3pm to 6pm                                                                                150                                
PRCFAMCHA021002113919113942000023xxHenry's World (ICE CREAM) - Weekends @ 6:40pm                                                                             150                                
PROFAMCHA021002113942114010000028xxKim Possible (SOCKS) - Weekends @ 4:35pm**DO NOT                                                                          150                                
PRCFAMCHA021002114010114034000024Franklin (LADDER) - Tomorrow @ 8:25am                                                                                       150                                
PROFAMCHA021002114034114054000020Recess (BALLS) - Today @ 5:10pm                                                                                             150                                
PROFAMCHA021002114054114100000006xxPS Line-Up - 17 - LULU                                                                                                    150                                
PROFAMCHA021002114100114109000009CC Disclaimer - FAST - Family.ca (:08-:10)                                                                                  150                                
PGRFAMCHA021002114109120501002352Little Lulu Show; The                             Lancelot Jr./Lucky Lady/Five Little Babies                    C19511A1065607ECC                              
ID FAMCHA021002120501120508000007Generic ID - Whisper*                                                                                                       150                                
PROFAMCHA021002120508120532000024Legend of Tarzan (S.O.S) - Today @ 4:15pm                                                                                   150                                
PRCFAMCHA021002120532120542000010Morning Block menu background (flex time)                                                                                   150                                
ID FAMCHA021002120542120600000018Afternoon block pinball open                                                                                                150                                
PROFAMCHA021002120600120609000009CC Disclaimer - FAST - Generic (:08-:10)                                                                                    150                                
PGRFAMCHA021002120609122839002230Smart Guy                                         She Got Game                                                        A6068807BCC                              
ID FAMCHA021002122839122849000010Generic ID - Family w/dog                                                                                                   150                                
PRCFAMCHA021002122849122907000018Franklin (CAST) - Tomorrow @ 8:25am                                                                                         150                                
PRCFAMCHA021002122907122923000016xxHenry's World (SOCCER) - Weekends @ 6:40pm                                                                                150                                
INTFAMCHA021002122923123027000104Jack and Marcel: Ep.062 "Sprinkler"                                                                                   A40688120                                
PROFAMCHA021002123027123051000024Legend of Tarzan (S.O.S) - Today @ 4:15pm                                                                                   150                                
PROFAMCHA021002123051123101000010xxPS Line-Up - 18 - ELMO/KATIE/STANLEY                                                                                      150                                
PGRFAMCHA021002123101124633001532Elmo's World                                      Bicycles                                                            A2068607G                                
ID FAMCHA021002124633124643000010Generic ID - Bubbles                                                                                                        150                                
PRCFAMCHA021002124643124705000022Hoze Houndz (FIREFIGHTER) - Today @ 11:15am                                                                                 150                                
PRCFAMCHA021002124705124723000018Franklin (CAST) - Tomorrow @ 8:25am                                                                                         150                                
INTFAMCHA021002124723125011000248Art Attack - Magic Carpet                                                                                              60688120                                
PROFAMCHA021002125011125050000039Recess (MAJORITY) - Today @ 5:10pm                                                                                          150                                
PROFAMCHA021002125050125100000010xxPS Line-Up - 19 (MON/WED/FRI) - KATIE/STANLEY/WT                                                                          150                                
PROFAMCHA021002125100125109000009CC Disclaimer - FAST - Family (:08-:10)                                                                                     150                                
PGRFAMCHA021002125109131747002638Katie And Orbie                                   Snake In The Grass/Sprite/Homegrown Supper                    C19664A1055607ECC3                             
ID FAMCHA021002131747131754000007Generic ID - Whisper*                                                                                                       150                                
PROFAMCHA021002131754131827000033Stanley (CAT BATH) - Coming Up                                                                                              150                                
PROFAMCHA021002131827131839000012Buzz Lightyear (SPACE RANGER) - Today @ 3:25pm                                                                              150                                
PROFAMCHA021002131839131849000010xxPS Line-Up - 20 (MON/WED/FRI) - STANLEY/WTP/OOTB                                                                          150                                
ID FAMCHA021002131849131859000010xxMagic of Disney - V3(water) - TEEN FEMALE                                                                                 150                                
PGRFAMCHA021002131859134255002356Stanley                                           In A While, Crocodile/The Color of Stanley                          A6068607E                                
ID FAMCHA021002134255134305000010Generic ID - Pink inner tube                                                                                                150                                
PROFAMCHA021002134305134341000036Teamo Supremo (STINGER) - Weekends @ 5pm                                                                                    150                                
PROFAMCHA021002134341134351000010xxPS Line-Up - 21 (MON/WED/FRI) - WTP/OOTB/DUCKTAL                                                                          150                                
ID FAMCHA021002134351134401000010xxMagic of Disney - V4 - TEEN MALE                                                                                          150                                
PROFAMCHA021002134401134409000008CC Disclaimer - FAST - Family.ca (:08-:10)                                                                                  150                                
PGRFAMCHA021002134409140650002241New Adventures of Winnie the Pooh; The            Easy Come Easy Gopher/Invasion of Pooh Snatcher                      6068607ECC                              
ID FAMCHA021002140650140700000010Generic ID - Bubbles                                                                                                        150                                
PROFAMCHA021002140700140730000030Mad Dash Block Promo - Today from 3pm to 6pm                                                                                150                                
PRCFAMCHA021002140730140756000026xxHenry's World (MERRY GO ROUND) - Weekends @ 6:40                                                                          150                                
PROFAMCHA021002140756140829000033Book Of Pooh (ADVENTURE - NEW EPS) - Tomorrow @ 10                                                                          150                                
PRCFAMCHA021002140829140851000022Hoze Houndz (FIREFIGHTER) - Today @ 3pm                                                                                     150                                
PROFAMCHA021002140851140901000010xxPS Line-Up - 22 - OOTB/DUCKTALES/HOZE                                                                                     150                                
PROFAMCHA021002140901140910000009CC Disclaimer - FAST - Family (:08-:10)                                                                                     150                                
PGRFAMCHA021002140910143316002406Out of the Box                                    Revealing Feelings                                                  A6068607ACC                              
ID FAMCHA021002143316143326000010Generic ID - Pink inner tube                                                                                                150                                
PROFAMCHA021002143326143356000030Mad Dash Block Promo - Coming Up Next                                                                                       150                                
PRCFAMCHA021002143356143418000022Hoze Houndz (FIREFIGHTER) - Today @ 3pm                                                                                     150                                
PROFAMCHA021002143418143454000036Teamo Supremo (STINGER) - Weekends @ 5pm                                                                                    150                                
PROFAMCHA021002143454143500000006xxPS Line-Up - 23 - DUCKTALES (14:35PM)                                                                                     150                                
PROFAMCHA021002143500143509000009CC Disclaimer - FAST - Family.ca (:08-:10)                                                                                  150                                
PGRFAMCHA021002143509145754002245Disney's DuckTales                                Launchpad's Civil War                                               A6068607ECC                              
PROFAMCHA021002145754145808000014xxMD - 01 - HOZE/BUZZ/PEPPER (:13-:16)*DNU*                                                                                 150                                
PROFAMCHA021002145808145836000028xxKim Possible (SOCKS) - Weekends @ 4:35pm**DO NOT                                                                          150                                
PROFAMCHA021002145836145906000030Big Fat Laughs Contest - Available Now                                                                                      150                                
PROFAMCHA021002145906145925000019Mad Dash - LEGEND OF TARZAN - Swinging                                                                                      150                                
PROFAMCHA021002145925145947000022Power Rangers Wild Force (WAKEUP) - Weekends @ 6:3                                                                          150                                
OFFFAMCHA021002145947150000000013Mad Dash Block Open (:10-:15)                                                                                                                                  
PROFAMCHA021002150000150009000009CC Disclaimer - FAST - Generic (:08-:10)                                                                                    150                                
PGRFAMCHA021002150009152244002235Hoze Houndz                                       Little Green Men From Planet Ten/Hozer The Hero               B34014A1065607ECC                              
PROFAMCHA021002152244152258000014MD - 02 - BUZZ/PEPPER/TARZAN (:13-:16)                                                                                      150                                
PROFAMCHA021002152258152318000020xxAll That - Tonight @ 6:30pm *DNU*                                                                                         150                                
PROFAMCHA021002152318152356000038Mad Dash - LIZZIE MCGUIRE - Breakfast                                                                                       150                                
PROFAMCHA021002152356152411000015UFC Winner Teaser                                                                                                           150                                
PROFAMCHA021002152411152447000036Teamo Supremo (STINGER) - Weekends @ 5pm                                                                                    150                                
OFFFAMCHA021002152447152500000013Mad Dash Block Open (:10-:15)                                                                                                                                  
PROFAMCHA021002152500152509000009CC Disclaimer - FAST - Generic (:08-:10)                                                                                    150                                
PGRFAMCHA021002152509154700002151Disney/Pixar's Buzz Lightyear of Star Command     Large Target                                                         6068607ECC                              
PROFAMCHA021002154700154714000014MD - 03 - PEPPER/TARZAN/WKNDRS (:13-:16)                                                                                    150                                
PROFAMCHA021002154714154734000020xxAll That - Tonight @ 6:30pm *DNU*                                                                                         150                                
PROFAMCHA021002154734154801000027Mad Dash - PEPPER ANN - Great Mom                                                                                           150                                
PROFAMCHA021002154801154831000030Big Fat Laughs Contest - Available Now                                                                                      150                                
PROFAMCHA021002154831154843000012Mad Dash - PEPPER ANN - Helmut Hair                                                                                         150                                
PROFAMCHA021002154843154859000016xxKim Possible (PANTS) - Weekends @ 4:35pm**DO NOT                                                                          150                                
PROFAMCHA021002154859154911000012Mad Dash - RECESS - Sprinkler                                                                                               150                                
PROFAMCHA021002154911154947000036Teamo Supremo (STINGER) - Weekends @ 5pm                                                                                    150                                
OFFFAMCHA021002154947155000000013Mad Dash Block Open (:10-:15)                                                                                                                                  
PROFAMCHA021002155000155009000009CC Disclaimer - FAST - Family (:08-:10)                                                                                     150                                
PGRFAMCHA021002155009161256002247Disney's Pepper Ann                               Remote Possibilities/Considering Constance                           6068607ECC                              
PROFAMCHA021002161256161310000014MD - 04 - TARZAN/WKNDRS/RECESS (:13-:16)                                                                                    150                                
PROFAMCHA021002161310161340000030xxBoy Meets World - Tonight @ 8pm                                                                                           150                                
