PGRFAMCHA131201043000045233002233Franny's Feet                                     EP: 42                                                        C31292 1065607ECC                              
PROFAMCHA131201045233045240000007D-JR Live Action ID - SWOBB - Coming Up (May2012)                                                                           150                                
PROFAMCHA131201045240045305000025D-JR Live Action ID - #51 Chores Board (Sep2013)                                                                            150                                
PROFAMCHA131201045305045335000030D-JR Episodic - Doc 211 Prems Sunday Dec 1 (Nov 23                                                                          150                                
PROFAMCHA131201045335045341000006D-JR - Short Open (:06) (May2011)                                                                                           150                                
PROFAMCHA131201045341045611000230D-JR Short - Choo Choo Soul - 1-10 (Jul2013)                                                                                150CC                              
PROFAMCHA131201045611045617000006D-JR - Short Close (:06) (May2011)                                                                                          150                                
PROFAMCHA131201045617045717000100D-JR Promo - Tickety Toc - Racing The Clock - Get                                                                           150                                
PROFAMCHA131201045717045759000042D-JR Promo - Sofia The First: A Princess Thing - G                                                                          150                                
PROFAMCHA131201045759045849000050D-JR Promo - Henry Hugglemonster - Get more HH on                                                                           150                                
PROFAMCHA131201045849045919000030D-JR Episodic - MMCH 417 Prems Sunday Dec 1 (Nov 1                                                                          150                                
PROFAMCHA131201045919045944000025D-JR Live Action ID - #50 Feed Dog (Sep2013)                                                                                150                                
PROFAMCHA131201045944045951000007D-JR Live Action ID - SWOBB - Now (May2012)                                                                                 150                                
PROFAMCHA131201045951050002000011D-JR - Station ID (:11) (May2011)                                                                                           150                                
PGRFAMCHA131201050002052232002230The Secret World of Benjamin Bear                 EP: 43                                                        C31763 1065607ECC                              
PROFAMCHA131201052232052239000007D-JR Live Action ID - Harry & His Dinosaurs - Comi                                                                          150                                
PROFAMCHA131201052239052304000025D-JR Live Action ID - #5 Pick A Reading Spot (Sep2                                                                          150                                
PROFAMCHA131201052304052334000030D-JR Episodic - MMCH 417 Prems Sunday Dec 1 (Nov 1                                                                          150                                
PROFAMCHA131201052334052404000030D-JR Promo - On demand online REVISED - D-JR.ca (M                                                                          150                                
PROFAMCHA131201052404052414000010D-JR - Short Open (:10) (May2011)                                                                                           150                                
PROFAMCHA131201052414052611000157PH-D Short - Can You...Alligator Manners S1 - 01 -                                                                          150                                
PROFAMCHA131201052611052617000006D-JR - Short Close (:06) (May2011)                                                                                          150                                
PROFAMCHA131201052617052707000050D-JR Promo - Henry Hugglemonster - Get more HH on                                                                           150                                
PROFAMCHA131201052707052749000042D-JR Promo - Bananas in Pajamas - Get more on the                                                                           150                                
PROFAMCHA131201052749052841000052D-JR Promo - Doc McStuffins - Get more on the chan                                                                          150                                
PROFAMCHA131201052841052911000030D-JR Episodic - Doc 211 Prems Sunday Dec 1 (Nov 23                                                                          150                                
PROFAMCHA131201052911052936000025D-JR Live Action ID - #47 Making Breakfast (May201                                                                          150                                
PROFAMCHA131201052936052943000007D-JR Live Action ID - Harry & His Dinosaurs - Now                                                                           150                                
PROFAMCHA131201052943052951000008D-JR - Flex ID - Yellow (:6-:10) (Feb2012)                                                                                  150                                
PGRFAMCHA131201052951055123002132Harry and His Bucket Full of Dinosaurs            EP: 15                                                        B05034 1065607ECC                              
PROFAMCHA131201055123055153000030Episodic LAM (HD) 108 New Ep Wednesday @ 630 (Nov                                                                           150                                
PGRFAMCHA131201055153055553000400MV Non Disney (HD) Young Avz - That Song On The Ra                                                                     10615120CC                              
PRCFAMCHA131201055553055618000025Episodic Next Step (HD) 126 New Ep Friday Dec 6 @                                                                           150                                
PRCFAMCHA131201055618055644000026Family Twistmas (HD) Wrapping (:22-:26) (Dec 2013)                                                                          150                                
PRCFAMCHA131201055644055712000028Monsters Inc (HD) Prems Sat December 7 @ 4 (Nov 22                                                                          150                                
PROFAMCHA131201055712055727000015PSA CMF (HD) Canada on Screen (Nov2012) (3x per da                                                                          150                                
PROFAMCHA131201055727055808000041Retag Home Alone 2 (HD) Tonight @ 6 (Dec 1)                                                                                 150                                
PGRFAMCHA131201055808055908000100Syn (HD) Frozen - Olaf Spot (Oct25-Dec15)                                                                              60685120CC                              
PRCFAMCHA131201055908055957000049GLJ: NYCC (HD) Overall Prems Friday December 6 @ 6                                                                          150                                
PGRFAMCHA131201055957062202002205Slugterra                                         EP: 19                                                        A33763 1065607ACC                              
PROFAMCHA131201062202062243000041Retag Home Alone 2 (HD) Tonight @ 6 (Dec 1)                                                                                 150                                
PROFAMCHA131201062243062407000124Sofia & The Floating Palace (HD) Prems Sat Dec 7 @                                                                          150                                
PRCFAMCHA131201062407062428000021Family Bumper Flex (HD) Garage Band (:17-:21) (Nov                                                                          150                                
PGRFAMCHA131201062428062625000157Cloud 9 (HD) Trailer - Coming Soon (Nov 29-Dec18)                                                                      60685120CC                              
PGRFAMCHA131201062625062855000230MV Non Disney (HD) Megan Nicole - Santa Baby (Dec1                                                                     10215120CC                              
PROFAMCHA131201062855062933000038Wingin It (HD) Refresh Promo - Coming Up Next (Apr                                                                          150                                
PROFAMCHA131201062933063011000038Elf (HD) Prems Friday Dec 6 @ 8 (Nov25-Dec1)                                                                                150                                
PRCFAMCHA131201063011063025000014Descriptive Video Slate (HD) (Apr2013)                                                                                      150                                
PGRFAMCHA131201063025065256002231Wingin' It                                        EP: 21                                                        C32727 1065607ACD                              
PGRFAMCHA131201065256065356000100Syn Muppets Most Wanted (HD) Ross Lynch (Dec 1-Jan                                                                     60285120CC                              
PRCFAMCHA131201065356065419000023Gravity Falls (HD) Comedy Sell - Coming Up Next (A                                                                          150                                
PGRFAMCHA131201065419065604000145ME - Frozen (HD) Now Playing (Nov 27-Dec 11)                                                                           60685120                                
PROFAMCHA131201065604065634000030Episodic DWAB (HD) 204 New Ep Wednesday @ 6 (Nov 3                                                                          150                                
PGRFAMCHA131201065634065749000115MV Disney (HD) Austin Moon - Christmas Soul (Nov29                                                                     60685120CC                              
PROFAMCHA131201065749065807000018GLJ: NYCC (HD) Tease Prems Friday December 6 @ 615                                                                          150                                
PRCFAMCHA131201065807065832000025Family Twistmas (HD) Baking (:21-:25) (Dec 2013)                                                                            150                                
PROFAMCHA131201065832065923000051Gravity Falls (HD) Refresh - Coming Up Next (Jun20                                                                          150                                
PROFAMCHA131201065923070004000041Retag Home Alone 2 (HD) Tonight @ 6 (Dec 1)                                                                                 150                                
PGRFAMCHA131201070004072223002219Disney Gravity Falls                              EP: 18                                                               6068607ECC                              
PROFAMCHA131201072223072255000032PAF (HD) Delicious Refresh - Coming Up Next (Jun20                                                                          150                                
PROFAMCHA131201072255072325000030Episodic LAM (HD) 108 New Ep Wednesday @ 630 (Nov                                                                           150                                
PGRFAMCHA131201072325072621000256MV Disney (HD) Dove Cameron - Better In Stereo (No                                                                     60685120                                
PROFAMCHA131201072621072706000045Mattel                                                                                                                      150                                
PROFAMCHA131201072706072830000124Sofia & The Floating Palace (HD) Prems Sat Dec 7 @                                                                          150                                
PRCFAMCHA131201072830072852000022Family Bumper Flex (HD) Fifteen Logos (:21-:22) (N                                                                          150                                
PROFAMCHA131201072852072907000015LeapFrog Enterprises                                                                                                        150                                
PROFAMCHA131201072907072939000032PAF (HD) Delicious Refresh - Coming Up Next (Jun20                                                                          150                                
PROFAMCHA131201072939073010000031Elf (HD) Clip Promo Prems Friday Dec 6 @ 8 (Nov25-                                                                          150                                
PGRFAMCHA131201073010075244002234Disney Phineas & Ferb                             EP: 20                                                               6068607ECC                              
PROFAMCHA131201075244075301000017PAF (HD) Disney Refresh CD - Coming Up Next (April                                                                          150                                
PROFAMCHA131201075301075342000041Retag Home Alone 2 (HD) Tonight @ 6 (Dec 1)                                                                                 150                                
PROFAMCHA131201075342075432000050Disney Interactive                                                                                                          150                                
PGRFAMCHA131201075432075553000121SYN (HD) Frozen - Maia & Garrett Snow Business (No                                                                     60285120CC                              
PRCFAMCHA131201075553075618000025Episodic Next Step (HD) 126 New Ep Friday Dec 6 @                                                                           150                                
PGRFAMCHA131201075618075815000157Cloud 9 (HD) Trailer - Coming Soon (Nov 29-Dec18)                                                                      60685120CC                              
PROFAMCHA131201075815075905000050Crayola                                                                                                                     150                                
PROFAMCHA131201075905075937000032PAF (HD) Delicious Refresh - Coming Up Next (Jun20                                                                          150                                
PROFAMCHA131201075937080007000030GLJ: NYCC (HD) Alt Sell New Ep Friday Dec 6 @ 615                                                                           150                                
PGRFAMCHA131201080007082239002232Disney Phineas & Ferb                             EP: 15                                                               6068607ECC                              
PROFAMCHA131201082239082249000010LU - (HD) Dog with a Blog/Good Luck Charlie Weeken                                                                          150                                
PROFAMCHA131201082249082330000041Retag Home Alone 2 (HD) Tonight @ 6 (Dec 1)                                                                                 150                                
PROFAMCHA131201082330082345000015LeapFrog Enterprises                                                                                                        150                                
PROFAMCHA131201082345082509000124Sofia & The Floating Palace (HD) Prems Sat Dec 7 @                                                                          150                                
PGRFAMCHA131201082509082724000215SYN (HD) R5 on R5 - The Road (Jan 6-Feb 6)                                                                             60685120CC                              
PRCFAMCHA131201082724082742000018Family Bumper Flex (HD) Flip Book (:15-:18) (Nov 2                                                                          150                                
PRCFAMCHA131201082742082827000045DXD Mission: Crashenfest (HD) Starts Sunday Dec 8                                                                           150                                
PROFAMCHA131201082827082917000050Lego                                                                                                                        150                                
PROFAMCHA131201082917082952000035DWAB (HD) Refresh - Stan Dating Video - Coming Up                                                                           150                                
PROFAMCHA131201082952083010000018GLJ: NYCC (HD) Tease Prems Friday December 6 @ 615                                                                          150                                
PGRFAMCHA131201083010085214002204Disney Dog With A Blog                            EP: 04                                                               6068807BCC                              
PROFAMCHA131201085214085255000041Retag Home Alone 2 (HD) Tonight @ 6 (Dec 1)                                                                                 150                                
PROFAMCHA131201085255085322000027GLC (HD) Promo 3 - Coming Up Next (Apr2013)                                                                                 150                                
PROFAMCHA131201085322085412000050Lego                                                                                                                        150                                
PGRFAMCHA131201085412085812000400MV Non Disney (HD) Young Avz - That Song On The Ra                                                                     10615120CC                              
PRCFAMCHA131201085812085838000026Family Twistmas (HD) Wrapping (:22-:26) (Dec 2013)                                                                          150                                
PRCFAMCHA131201085838085925000047Stunt I Love Twistmas (HD) Friday Dec 6 Starting @                                                                          150                                
PROFAMCHA131201085925085955000030GLC Promo 3 (HD) Coming Up Next (Sep2013)                                                                                   150                                
PROFAMCHA131201085955090025000030Episodic DWAB (HD) 204 New Ep Wednesday @ 6 (Nov 3                                                                          150                                
PGRFAMCHA131201090025092200002135Good Luck Charlie                                 EP: 02                                                               6068807BCC                              
PRCFAMCHA131201092200092215000015LAM (HD) Comedy Sell - Coming Up Next (Oct2013)                                                                             150                                
PRCFAMCHA131201092215092240000025Episodic Next Step (HD) 126 New Ep Friday Dec 6 @                                                                           150                                
PROFAMCHA131201092240092255000015Lego                                                                                                                        150                                
PRCFAMCHA131201092255092344000049GLJ: NYCC (HD) Overall Prems Friday December 6 @ 6                                                                          150                                
PROFAMCHA131201092344092508000124Sofia & The Floating Palace (HD) Prems Sat Dec 7 @                                                                          150                                
PGRFAMCHA131201092508092846000338MV Universal (HD) Serena Ryder - What I Wouldn't D                                                                     10615120CC                              
PROFAMCHA131201092846092931000045Walt Disney Pictures                                                                                                        150                                
PRCFAMCHA131201092931092946000015LAM (HD) Comedy Sell - Coming Up Next (Oct2013)                                                                             150                                
PROFAMCHA131201092946093027000041Retag Home Alone 2 (HD) Tonight @ 6 (Dec 1)                                                                                 150                                
PGRFAMCHA131201093027095401002334Disney Liv and Maddie                             EP: 07                                                               6068807BCC                              
PROFAMCHA131201095401095432000031Elf (HD) Clip Promo Prems Friday Dec 6 @ 8 (Nov25-                                                                          150                                
PROFAMCHA131201095432095447000015ANT Farm (HD) Refresh CT - Coming Up Next (April 2                                                                          150                                
PROFAMCHA131201095447095537000050Sony Pictures Home Entertainment                                                                                            150                                
PRCFAMCHA131201095537095552000015Family Bumper (HD) - Hot Potato ID (Jan 2011)                                                                               150                                
PGRFAMCHA131201095552095737000145ME - Frozen (HD) Now Playing (Nov 27-Dec 11)                                                                           60685120                                
PROFAMCHA131201095737095752000015LeapFrog Enterprises                                                                                                        150                                
PRCFAMCHA131201095752095841000049GLJ: NYCC (HD) Overall Prems Friday December 6 @ 6                                                                          150                                
PROFAMCHA131201095841095931000050Crayola                                                                                                                     150                                
PROFAMCHA131201095931095946000015ANT Farm (HD) Refresh CT - Coming Up Next (April 2                                                                          150                                
PROFAMCHA131201095946100027000041Retag Home Alone 2 (HD) Tonight @ 6 (Dec 1)                                                                                 150                                
PGRFAMCHA131201100027102358002331Disney A.N.T. Farm                                EP: 15                                                               6068607BCC                              
PROFAMCHA131201102358102408000010LU - (HD) Jessie/Austin & Ally Weekends @ 11:00am                                                                           150                                
PROFAMCHA131201102408102438000030GLJ: NYCC (HD) Alt Sell New Ep Friday Dec 6 @ 615                                                                           150                                
PROFAMCHA131201102438102453000015LeapFrog Enterprises                                                                                                        150                                
PGRFAMCHA131201102453102844000351MV Universal (HD) Ellie Goulding - Burn (Sep16-Dec                                                                     10615120CC                              
PROFAMCHA131201102844102934000050Sony Pictures Home Entertainment                                                                                            150                                
PRCFAMCHA131201102934102948000014Family Flex Next (HD) Jessie - Emma (:12-:14) (Mar                                                                          150                                
PROFAMCHA131201102948103029000041Retag Home Alone 2 (HD) Tonight @ 6 (Dec 1)                                                                                 150                                
PGRFAMCHA131201103029105334002305Disney Jessie                                     EP: 05                                                               6068807BCC                              
PROFAMCHA131201105334105344000010LU - (HD) Austin & Ally/Shake it Up Weekends @ 11:                                                                          150                                
PROFAMCHA131201105344105425000041Retag Home Alone 2 (HD) Tonight @ 6 (Dec 1)                                                                                 150                                
PGRFAMCHA131201105425105617000152MV Disney (HD) Zendaya - Shake Santa Shake (Nov29-                                                                     60685120                                
PROFAMCHA131201105617105632000015LeapFrog Enterprises                                                                                                        150                                
PROFAMCHA131201105632105702000030Episodic LAM (HD) 108 New Ep Wednesday @ 630 (Nov                                                                           150                                
PROFAMCHA131201105702105717000015Web Jessie Online Game (HD) Play Games at family.c                                                                          150                                
PROFAMCHA131201105717105752000035Spin Master (King Star)                                                                                                     150                                
PROFAMCHA131201105752105916000124Sofia & The Floating Palace (HD) Prems Sat Dec 7 @                                                                          150                                
PROFAMCHA131201105916105931000015LeapFrog Enterprises                                                                                                        150                                
PROFAMCHA131201105931110004000033Austin & Ally (HD) Music Lesson - Coming Up Next (                                                                          150                                
PROFAMCHA131201110004110022000018GLJ: NYCC (HD) Tease Prems Friday December 6 @ 615                                                                          150                                
PGRFAMCHA131201110022112453002431Disney Austin & Ally                              EP: 01                                                               6068807BCC                              
PRCFAMCHA131201112453112521000028Monsters Inc (HD) Prems Sat December 7 @ 4 (Nov 22                                                                          150                                
PRCFAMCHA131201112521112536000015Family Flex Next (HD) SIU Zendaya (Aug 2013) (:13-                                                                          150                                
PROFAMCHA131201112536112626000050Sony Pictures Home Entertainment                                                                                            150                                
PROFAMCHA131201112626112656000030Episodic LAM (HD) 108 New Ep Wednesday @ 630 (Nov                                                                           150                                
PGRFAMCHA131201112656112848000152MV Disney (HD) Good Luck Charlie - Song for You (N                                                                     60685120                                
PROFAMCHA131201112848112929000041Retag Home Alone 2 (HD) Tonight @ 6 (Dec 1)                                                                                 150                                
PROFAMCHA131201112929112944000015LeapFrog Enterprises                                                                                                        150                                
PRCFAMCHA131201112944112957000013Family Flex Next (HD) SIU Zendaya (Aug 2013) (:13-                                                                          150                                
PRCFAMCHA131201112957113022000025Episodic Next Step (HD) 126 New Ep Friday Dec 6 @                                                                           150                                
PGRFAMCHA131201113022115357002335Disney Shake It Up                                EP: 06                                                               6068707BCC                              
PROFAMCHA131201115357115438000041Retag Home Alone 2 (HD) Tonight @ 6 (Dec 1)                                                                                 150                                
PRCFAMCHA131201115438115503000025Episodic Next Step (HD) 126 New Ep Friday Dec 6 @                                                                           150                                
PROFAMCHA131201115503115532000029D-JR Episodic - Doc 206 Prems Sunday Dec 15 (Nov 3                                                                          150                                
PGRFAMCHA131201115532115632000100Syn Muppets Most Wanted (HD) Ross Lynch (Dec 1-Jan                                                                     60685120CC                              
PROFAMCHA131201115632115712000040The Walt Disney Company                                                                                                     150                                
PROFAMCHA131201115712115836000124Sofia & The Floating Palace (HD) Prems Sat Dec 7 @                                                                          150                                
PROFAMCHA131201115836115916000040Christmas with the Kranks (HD) - Coming Up Next (A                                                                          150                                
PRCFAMCHA131201115916120005000049GLJ: NYCC (HD) Overall Prems Friday December 6 @ 6                                                                          150                                
ID FAMCHA131201120005120020000015Popcorn Pix Block Open (HD)  (Jan2011)                                                                                      150                                
ID FAMCHA131201120020120029000009Popcorn Pix Rating Slate (HD) - G (Jan 2011)                                                                                150                                
PGRFAMCHA131201120029133918013849Christmas with the Kranks                                                                                              2068807DCC                              
PROFAMCHA131201133918133959000041Retag Home Alone 2 (HD) Tonight @ 6 (Dec 1)                                                                                 150                                
PROFAMCHA131201133959134029000030D-JR Episodic - Sofia 124 Prems Sunday Dec 15 (Nov                                                                          150                                
PGRFAMCHA131201134029140229002200Lego Friends                                      EP: 3                                                                2068807ECC                              
PROFAMCHA131201140229140259000030GLJ: NYCC (HD) Alt Sell New Ep Friday Dec 6 @ 615                                                                           150                                
PGRFAMCHA131201140259140444000145ME - Frozen (HD) Now Playing (Nov 27-Dec 11)                                                                           60685120                                
PROFAMCHA131201140444140510000026Web DWAB @ family.ca (HD) Play Games at family.ca                                                                           150                                
PRCFAMCHA131201140510140525000015Family Bumper Flex (HD) Flex ID - Music ID (:14-:1                                                                          150                                
PROFAMCHA131201140525140542000017PAF (HD) Disney Refresh CD - Coming Up Next (April                                                                          150                                
PROFAMCHA131201140542140623000041Retag Home Alone 2 (HD) Tonight @ 6 (Dec 1)                                                                                 150                                
PGRFAMCHA131201140623141830001207Disney Phineas and Ferb                           EP: 06A                                                              6068607ECC                              
PROFAMCHA131201141830141900000030Episodic DWAB (HD) 204 New Ep Wednesday @ 6 (Nov 3                                                                          150                                
PRCFAMCHA131201141900141926000026Family Twistmas (HD) Wrapping (:22-:26) (Dec 2013)                                                                          150                                
PROFAMCHA131201141926141943000017WOY (HD) What Would Wander Do? #1 Coming Up Next (                                                                          150                                
PROFAMCHA131201141943142024000041Retag Home Alone 2 (HD) Tonight @ 6 (Dec 1)                                                                                 150                                
PGRFAMCHA131201142024143225001201Disney Wander Over Yonder                         EP: 01A                                                              6068607BCC                              
PROFAMCHA131201143225143255000030GLJ: NYCC (HD) Alt Sell New Ep Friday Dec 6 @ 615                                                                           150                                
PROFAMCHA131201143255143310000015ANT Farm (HD) Refresh CT - Coming Up Next (April 2                                                                          150                                
PROFAMCHA131201143310143341000031Elf (HD) Clip Promo Prems Friday Dec 6 @ 8 (Nov25-                                                                          150                                
PGRFAMCHA131201143341145644002303Disney A.N.T. Farm                                EP: 19                                                               6068607BCC                              
PROFAMCHA131201145644145725000041Retag Home Alone 2 (HD) Tonight @ 6 (Dec 1)                                                                                 150                                
PROFAMCHA131201145725145755000030Episodic DWAB (HD) 204 New Ep Wednesday @ 6 (Nov 3                                                                          150                                
PGRFAMCHA131201145755145952000157Cloud 9 (HD) Trailer - Coming Soon (Nov 29-Dec18)                                                                      60685120CC                              
PROFAMCHA131201145952150011000019GLC Promo 2 (HD) Coming Up Next (Sep2013)                                                                                   150                                
PRCFAMCHA131201150011150036000025Episodic Next Step (HD) 126 New Ep Friday Dec 6 @                                                                           150                                
PGRFAMCHA131201150036152341002305Good Luck Charlie                                 EP: 20                                                               6068807BCC                              
PRCFAMCHA131201152341152410000029Next Step Dancing Is (HD) Eldon - Coming Up Next (                                                                          150                                
PROFAMCHA131201152410152428000018GLJ: NYCC (HD) Tease Prems Friday December 6 @ 615                                                                          150                                
PROFAMCHA131201152428152518000050Crayola                                                                                                                     150                                
PGRFAMCHA131201152518152856000338MV Universal (HD) Serena Ryder - What I Wouldn't D                                                                     10615120CC                              
PROFAMCHA131201152856152911000015LeapFrog Enterprises                                                                                                        150                                
PRCFAMCHA131201152911152953000042Next Step Dancing Is (HD) Emily - Coming Up Next (                                                                          150                                
PROFAMCHA131201152953153034000041Retag Home Alone 2 (HD) Tonight @ 6 (Dec 1)                                                                                 150                                
PRCFAMCHA131201153034153048000014Descriptive Video Slate (HD) (Apr2013)                                                                                      150                                
PGRFAMCHA131201153048155334002246The Next Step                                     EP: 25                                                        C36838 1065607ACD                              
PROFAMCHA131201155334155504000130Next Step Aftershow Throws (HD) 125 (Nov 2013)                                                                              150                                
PRCFAMCHA131201155504155529000025Episodic Next Step (HD) 126 New Ep Friday Dec 6 @                                                                           150                                
PROFAMCHA131201155529155619000050Lego                                                                                                                        150                                
PROFAMCHA131201155619155649000030Episodic LAM (HD) 108 New Ep Wednesday @ 630 (Nov                                                                           150                                
PROFAMCHA131201155649155739000050Crayola                                                                                                                     150                                
PGRFAMCHA131201155739155839000100Syn Muppets Most Wanted (HD) Ross Lynch (Dec 1-Jan                                                                     60685120CC                              
PROFAMCHA131201155839155854000015LeapFrog Enterprises                                                                                                        150                                
PRCFAMCHA131201155854155908000014Family Flex Next (HD) Jessie - Emma (:12-:14) (Mar                                                                          150                                
PRCFAMCHA131201155908155957000049GLJ: NYCC (HD) Overall Prems Friday December 6 @ 6                                                                          150                                
PGRFAMCHA131201155957162232002235Disney Jessie                                     EP: 06                                                               6068807BCC                              
PROFAMCHA131201162232162242000010LU - (HD) Dog with a Blog/Shake it Up Weekends @ 5                                                                          150                                
PROFAMCHA131201162242162323000041Retag Home Alone 2 (HD) Tonight @ 6 (Dec 1)                                                                                 150                                
PRCFAMCHA131201162323162348000025Family Twistmas (HD) Baking (:21-:25) (Dec 2013)                                                                            150                                
PROFAMCHA131201162348162403000015LeapFrog Enterprises                                                                                                        150                                
PROFAMCHA131201162403162527000124Sofia & The Floating Palace (HD) Prems Sat Dec 7 @                                                                          150                                
PGRFAMCHA131201162527162757000230MV Non Disney (HD) Megan Nicole - Santa Baby (Dec1                                                                     10615120CC                              
PROFAMCHA131201162757162847000050Disney Interactive                                                                                                          150                                
PROFAMCHA131201162847162912000025DWAB (HD) Clip Promo - Coming Up Next (Oct2013)                                                                             150                                
PRCFAMCHA131201162912162957000045DXD Mission: Crashenfest (HD) Starts Sunday Dec 8                                                                           150                                
PGRFAMCHA131201162957165232002235Disney Dog with a Blog                            EP: 02                                                               6068807BCC                              
PROFAMCHA131201165232165313000041Retag Home Alone 2 (HD) Tonight @ 6 (Dec 1)                                                                                 150                                
PROFAMCHA131201165313165328000015LeapFrog Enterprises                                                                                                        150                                
PGRFAMCHA131201165328165557000229SYN (HD) R5 on R5 - The Band (Jan 6-Feb 6)                                                                             60685120CC                              
PRCFAMCHA131201165557165615000018Family Bumper (HD) - Dominoes ID (Jan 2011)                                                                                 150                                
PGRFAMCHA131201165615165812000157Cloud 9 (HD) Trailer - Coming Soon (Nov 29-Dec18)                                                                      60685120CC                              
PROFAMCHA131201165812165902000050Sony Pictures Home Entertainment                                                                                            150                                
PROFAMCHA131201165902165932000030Shake It Up (HD) Flynn Sell - Coming Up Next (Jun2                                                                          150                                
PROFAMCHA131201165932170002000030Episodic DWAB (HD) 204 New Ep Wednesday @ 6 (Nov 3                                                                          150                                
PGRFAMCHA131201170002172307002305Disney Shake It Up                                EP: 12                                                               6068707BCC                              
PROFAMCHA131201172307172340000033Austin & Ally (HD) Music Lesson - Coming Up Next (                                                                          150                                
PROFAMCHA131201172340172410000030GLJ: NYCC (HD) Alt Sell New Ep Friday Dec 6 @ 615                                                                           150                                
PROFAMCHA131201172410172425000015Lego                                                                                                                        150                                
PGRFAMCHA131201172425172721000256MV Non Disney (HD) EPO - Tonight's The Night Acous                                                                     10615120CC                              
PROFAMCHA131201172721172736000015LeapFrog Enterprises                                                                                                        150                                
PRCFAMCHA131201172736172801000025Episodic Next Step (HD) 126 New Ep Friday Dec 6 @                                                                           150                                
PROFAMCHA131201172801172846000045Activision                                                                                                                  150                                
PRCFAMCHA131201172846172931000045Austin & Ally (HD) Pitch Perfect - Coming Up Next                                                                           150                                
PROFAMCHA131201172931173012000041Retag Home Alone 2 (HD) Tonight @ 6 (Dec 1)                                                                                 150                                
PGRFAMCHA131201173012175514002502Disney Austin & Ally                              EP: 25                                                               6068807BCC                              
PROFAMCHA131201175514175552000038Elf (HD) Prems Friday Dec 6 @ 8 (Nov25-Dec1)                                                                                150                                
PROFAMCHA131201175552175632000040The Walt Disney Company                                                                                                     150                                
PROFAMCHA131201175632175756000124Sofia & The Floating Palace (HD) Prems Sat Dec 7 @                                                                          150                                
PROFAMCHA131201175756175841000045Mattel                                                                                                                      150                                
PROFAMCHA131201175841175911000030Episodic LAM (HD) 108 New Ep Wednesday @ 630 (Nov                                                                           150                                
PROFAMCHA131201175911175926000015LeapFrog Enterprises                                                                                                        150                                
PROFAMCHA131201175926180007000041Home Alone 2 (HD) - Coming Up Next (April 2013)                                                                             150                                
ID FAMCHA131201180007180022000015Popcorn Pix Block Open (HD)  (Jan2011)                                                                                      150                                
ID FAMCHA131201180022180032000010Popcorn Pix Rating Slate (HD) - PG (Jan 2011)                                                                               150                                
PGRFAMCHA131201180032200030015958Home Alone 2: Lost in New York                                                                                        B2068807DCC                              
PROFAMCHA131201200030200045000015LeapFrog Enterprises                                                                                                        150                                
PRCFAMCHA131201200045200100000015Family Flex Next (HD) SIU Zendaya (Aug 2013) (:13-                                                                          150                                
PGRFAMCHA131201200100202332002232Disney Shake It Up                                EP: 07                                                               6068707BCC                              
PRCFAMCHA131201202332202417000045Austin & Ally (HD) Pitch Perfect - Coming Up Next                                                                           150                                
PRCFAMCHA131201202417202442000025Episodic Next Step (HD) 126 New Ep Friday Dec 6 @                                                                           150                                
PROFAMCHA131201202442202527000045Walt Disney Pictures                                                                                                        150                                
PROFAMCHA131201202527202557000030GLJ: NYCC (HD) Alt Sell New Ep Friday Dec 6 @ 615                                                                           150                                
PROFAMCHA131201202557202637000040The Walt Disney Company                                                                                                     150                                
PRCFAMCHA131201202637202722000045DXD Mission: Crashenfest (HD) Starts Sunday Dec 8                                                                           150                                
PROFAMCHA131201202722202812000050Lego                                                                                                                        150                                
PRCFAMCHA131201202812202837000025Family Twistmas (HD) Wrapping (:22-:26) (Dec 2013)                                                                          150                                
PROFAMCHA131201202837202927000050Sony Pictures Home Entertainment                                                                                            150                                
PRCFAMCHA131201202927203012000045Austin & Ally (HD) Pitch Perfect - Coming Up Next                                                                           150                                
PGRFAMCHA131201203012205231002219Disney Austin & Ally                              EP: 15                                                               6068807BCC                              
PRCFAMCHA131201205231205259000028Monsters Inc (HD) Prems Sat December 7 @ 4 (Nov 22                                                                          150                                
PRCFAMCHA131201205259205325000026Next Step Dancing Is (HD) James - Coming Up Next (                                                                          150                                
PROFAMCHA131201205325205410000045Mattel                                                                                                                      150                                
PROFAMCHA131201205410205428000018GLJ: NYCC (HD) Tease Prems Friday December 6 @ 615                                                                          150                                
PROFAMCHA131201205428205523000055Disney Interactive                                                                                                          150                                
PGRFAMCHA131201205523205711000148MV Non Disney (HD) Veronica - Walking on Clouds (w                                                                     10615120                                
PROFAMCHA131201205711205726000015Lego                                                                                                                        150                                
PGRFAMCHA131201205726205825000059MV Disney (HD) Dove Cameron - Better in Stereo CT                                                                      60685120CC                              
PROFAMCHA131201205825205910000045Walt Disney Pictures                                                                                                        150                                
PRCFAMCHA131201205910205955000045Next Step Refresh (HD) Coming Up Next (Sep2013)                                                                             150                                
PRCFAMCHA131201205955210017000022Family Bumper Flex (HD) Fifteen Logos (:21-:22) (N                                                                          150                                
PRCFAMCHA131201210017210031000014Descriptive Video Slate (HD) (Apr2013)                                                                                      150                                
PGRFAMCHA131201210031212316002245The Next Step                                     EP: 16                                                        C36838 1055607ACD3                             
PROFAMCHA131201212316212500000144Next Step Aftershow Throws (HD) 116 w/ web throw (                                                                          150                                
PRCFAMCHA131201212500212525000025Episodic Next Step (HD) 126 New Ep Friday Dec 6 @                                                                           150                                
PROFAMCHA131201212525212603000038Wingin It (HD) Refresh Promo - Coming Up Next (Apr                                                                          150                                
PROFAMCHA131201212603212618000015LeapFrog Enterprises                                                                                                        150                                
PGRFAMCHA131201212618212738000120SYN (HD) Frozen - Maia & Garrett Blizzard Blitz (N                                                                     60685120CC                              
PROFAMCHA131201212738212828000050Crayola                                                                                                                     150                                
PRCFAMCHA131201212828212845000017Family Bumper Flex (HD) Flex ID - Jessie ID (:15-:                                                                          150                                
PROFAMCHA131201212845212930000045Activision                                                                                                                  150                                
PROFAMCHA131201212930213008000038Wingin It (HD) Refresh Promo - Coming Up Next (Apr                                                                          150                                
PRCFAMCHA131201213008213022000014Descriptive Video Slate (HD) (Apr2013)                                                                                      150                                
PGRFAMCHA131201213022215255002233Wingin' It                                        EP: 06                                                        C35822 1055607ACD3                             
PRCFAMCHA131201215255215323000028Monsters Inc (HD) Prems Sat December 7 @ 4 (Nov 22                                                                          150                                
PGRFAMCHA131201215323215453000130SYN (HD) R5 on R5 - The Fans/Family (Jan 6-Feb 6)                                                                      60685120CC                              
PROFAMCHA131201215453215543000050Crayola                                                                                                                     150                                
PROFAMCHA131201215543215613000030Episodic DWAB (HD) 204 New Ep Wednesday @ 6 (Nov 3                                                                          150                                
PROFAMCHA131201215613215628000015PSA CMF (HD) Canada on Screen (Nov2012) (3x per da                                                                          150                                
PROFAMCHA131201215628215752000124Sofia & The Floating Palace (HD) Prems Sat Dec 7 @                                                                          150                                
PROFAMCHA131201215752215821000029D-JR Episodic - Doc 206 Prems Sunday Dec 15 (Nov 3                                                                          150                                
PROFAMCHA131201215821215911000050Disney Interactive                                                                                                          150                                
PRCFAMCHA131201215911215958000047Stunt I Love Twistmas (HD) Friday Dec 6 Starting @                                                                          150                                
ID FAMCHA131201215958220013000015Popcorn Pix Block Open (HD)  (Jan2011)                                                                                      150                                
ID FAMCHA131201220013220022000009Popcorn Pix Rating Slate (HD) - G (Jan 2011)                                                                                150                                
PGRFAMCHA131201220022232853012831Santa Buddies                                                                                                         A6068807DCC                              
PRCFAMCHA131201232853232918000025Episodic Next Step (HD) 126 New Ep Friday Dec 6 @                                                                           150                                
PRCFAMCHA131201232918232948000030Web FOD 2012 Refresh (HD) Family.ca New Look (Apr2                                                                          150                                
PROFAMCHA131201232948233018000030D-JR Episodic - Sofia 124 Prems Sunday Dec 15 (Nov                                                                          150                                
PGRFAMCHA131201233018235449002431The Elephant Princess                             EP: 21                                                               7068507ACC                              
PROFAMCHA131201235449235519000030Episodic DWAB (HD) 204 New Ep Wednesday @ 6 (Nov 3                                                                          150                                
PROFAMCHA131201235519235534000015Web A&A Online Game (HD) Play Games at family.ca (                                                                          150                                
PGRFAMCHA131201235534235830000256MV Non Disney (HD) EPO - Tonight's The Night Acous                                                                     10615120CC                              
PRCFAMCHA131201235830235915000045DXD Mission: Crashenfest (HD) Starts Sunday Dec 8                                                                           150                                
PRCFAMCHA131201235915235930000015Family Bumper Flex (HD) Flex ID - Music ID (:14-:1                                                                          150                                
PRCFAMCHA131201235930000019000049GLJ: NYCC (HD) Overall Prems Friday December 6 @ 6                                                                          150                                
PGRFAMCHA131201000019002256002237The Latest Buzz                                   EP: 21                                                        C30362 1065607BCC                              
PGRFAMCHA131201002256002636000340MV Universal (HD) Capital Cities - Safe and Sound                                                                      10615120CC                              
PRCFAMCHA131201002636002723000047Stunt I Love Twistmas (HD) Friday Dec 6 Starting @                                                                          150                                
PROFAMCHA131201002723002738000015PSA CMF (HD) Canada on Screen (Nov2012) (3x per da                                                                          150                                
PGRFAMCHA131201002738002917000139SYN (HD) Frozen - Maia & Garrett Frost Factor (Nov                                                                     60685120CC                              
PRCFAMCHA131201002917002942000025Family Twistmas (HD) Baking (:21-:25) (Dec 2013)                                                                            150                                
PROFAMCHA131201002942003020000038Elf (HD) Prems Friday Dec 6 @ 8 (Nov25-Dec1)                                                                                150                                
PGRFAMCHA131201003020005251002231Overruled!                                        EP: 03                                                        C28762 1065607ACC                              
PROFAMCHA131201005251005322000031Elf (HD) Clip Promo Prems Friday Dec 6 @ 8 (Nov25-                                                                          150                                
PGRFAMCHA131201005322005721000359MV Non Disney (HD) Jerzee ft. Jesse Labelle - Aliv                                                                     10615120CC                              
PRCFAMCHA131201005721005732000011Family Bumper Flex (HD) Flex ID - Wingin It (Apr20                                                                          150                                
PROFAMCHA131201005732005856000124Sofia & The Floating Palace (HD) Prems Sat Dec 7 @                                                                          150                                
PROFAMCHA131201005856005926000030Episodic LAM (HD) 108 New Ep Wednesday @ 630 (Nov                                                                           150                                
PGRFAMCHA131201005926010022000056SYN (HD) Monsters U - Monster Aptitude Test (Nov6-                                                                     60685120CC                              
PRCFAMCHA131201010022010036000014Descriptive Video Slate (HD) (Apr2013)                                                                                      150                                
PGRFAMCHA131201010036012307002231DEBRA!                                            EP: 01                                                        C35763 1065607ACD                              
PRCFAMCHA131201012307012320000013Family Bumper (HD) - Karate ID (Jan 2011)                                                                                   150                                
PGRFAMCHA131201012320014525002205What's Up, Warthogs!                              EP: 10                                                        C32738 1065607BCC                              
PRCFAMCHA131201014525014537000012Family Bumper Flex (HD) Flex ID - WUW (May2012) (:                                                                          150                                
PGRFAMCHA131201014537020808002231Disney Wizards of Waverly Place                   EP: 13                                                               6068607BCC                              
PRCFAMCHA131201020808020826000018Family Bumper (HD) - Dominoes ID (Jan 2011)                                                                                 150                                
PGRFAMCHA131201020826023256002430The Elephant Princess                             EP: 14                                                               7068507ACC                              
PRCFAMCHA131201023256023317000021Family Bumper Flex (HD) Garage Band (:17-:21) (Nov                                                                          150                                
PGRFAMCHA131201023317025547002230Life With Derek                                   EP: 05                                                        C24891 1065607BCC                              
PRCFAMCHA131201025547025556000009Family Bumper (HD) - Dragonflies ID (Jan 2011)                                                                              150                                
PGRFAMCHA131201025556031758002202Slugterra                                         EP: 21                                                        A33763 1065607ACC                              
PRCFAMCHA131201031758031816000018Family Bumper Flex (HD) Flip Book (:15-:18) (Nov 2                                                                          150                                
PGRFAMCHA131201031816034048002232Overruled!                                        EP: 06                                                        C28762 1065607ACC                              
PRCFAMCHA131201034048034101000013Family Bumper (HD) - Drums ID (Jan 2011)                                                                                    150                                
PGRFAMCHA131201034101040336002235The Latest Buzz                                   EP: 15                                                        C30362 1065607BCC                              
PRCFAMCHA131201040336040404000028Family Bumper Flex (HD) Flex ID - Austin & Ally (F                                                                          150                                
PGRFAMCHA131201040404042634002230Life with Derek                                   EP: 01                                                        C26822 1065607BCC                              
PROFAMCHA131201042634042704000030D-JR Promo - On demand online REVISED - D-JR.ca (M                                                                          150                                
PROFAMCHA131201042704042746000042D-JR Promo - Bananas in Pajamas - Get more on the                                                                           150                                
PROFAMCHA131201042746042846000100D-JR Promo - Tickety Toc - Racing The Clock - Get                                                                           150                                
PROFAMCHA131201042846042938000052D-JR Promo - Doc McStuffins - Get more on the chan                                                                          150                                
PROFAMCHA131201042938042953000015D-JR Promo - Sofia The First: Clip 3 - Get More We                                                                          150                                
PROFAMCHA131201042953042959000006D-JR - Flex ID - Green (:6-:10) (Feb2012)                                                                                   150                                
OFFFAMCHA131201042959043000000001OFF AIR                                                                                                                                                        
PGRFAMCHA131202043000045230002230The Secret World of Benjamin Bear                 EP: 31                                                        C27272 1065607E                                
PROFAMCHA131202045230045237000007D-JR Live Action ID - Franny's Feet - Coming Up (M                                                                          150                                
PROFAMCHA131202045237045302000025D-JR Live Action ID - #96 Piano (Sep2013)                                                                                   150                                
PROFAMCHA131202045302045332000030D-JR Promo - On demand online REVISED - D-JR.ca (M                                                                          150                                
PROFAMCHA131202045332045422000050D-JR Promo - Henry Hugglemonster - Get more HH on                                                                           150                                
PROFAMCHA131202045422045514000052D-JR Promo - Doc McStuffins - Get more on the chan                                                                          150                                
PROFAMCHA131202045514045539000025D-JR Live Action ID - #94 Jump Rope (Sep2013)                                                                               150                                
PROFAMCHA131202045539045546000007D-JR Live Action ID - Franny's Feet - Now (May2012                                                                          150                                
PROFAMCHA131202045546045553000007D-JR - Flex ID - Purple (:6-:10) (Feb2012)                                                                                  150                                
PGRFAMCHA131202045553051826002233Franny's Feet                                     EP: 45                                                        C31292 1065607ECC                              
PROFAMCHA131202051826051833000007D-JR Live Action ID - SWOBB - Coming Up (May2012)                                                                           150                                
PROFAMCHA131202051833051858000025D-JR Live Action ID - #90 Freeze Dance (Sep2013)                                                                            150                                
PROFAMCHA131202051858051940000042D-JR Promo - Sofia The First: A Princess Thing - G                                                                          150                                
PROFAMCHA131202051940052005000025D-JR Promo - JATNP - Get more on the channel REV (                                                                          150                                
PROFAMCHA131202052005052035000030D-JR Promo - Tickety Toc - Time to Chime - Get mor                                                                          150                                
PROFAMCHA131202052035052100000025D-JR Live Action ID - #8 Reading Book/Quiet Time (                                                                          150                                
PROFAMCHA131202052100052107000007D-JR Live Action ID - SWOBB - Now (May2012)                                                                                 150                                
PROFAMCHA131202052107052113000006D-JR - Bumper 7 (May2011)                                                                                                   150                                
PGRFAMCHA131202052113054346002233The Secret World of Benjamin Bear                 EPS # 1-005                                                   B75150 1065607ECC                              
PROFAMCHA131202054346054353000007D-JR Live Action ID - Harry & His Dinosaurs - Comi                                                                          150                                
PROFAMCHA131202054353054418000025D-JR Live Action ID - #9 Ride A Bike (Sep2013)                                                                              150                                
PROFAMCHA131202054418054425000007D-JR - Flex ID - Yellow (:6-:10) (Feb2012)                                                                                  150                                
PROFAMCHA131202054425054450000025D-JR Live Action ID - #72 Family Tree Craft (Sept2                                                                          150                                
PROFAMCHA131202054450054457000007D-JR Live Action ID - Harry & His Dinosaurs - Now                                                                           150                                
PGRFAMCHA131202054457060633002136Harry and His Bucket Full of Dinosaurs            EP: 26                                                        B05045 1065607ECC                              
PROFAMCHA131202060633060641000008D-JR Live Action ID - Stella & Sam - Coming Up (Ma                                                                          150                                
PROFAMCHA131202060641060706000025D-JR Live Action ID - #67 Play Dressup (Sep2013)                                                                            150                                
PROFAMCHA131202060706060806000100D-JR Promo - Tickety Toc - Racing The Clock - Get                                                                           150                                
PROFAMCHA131202060806060848000042D-JR Promo - Bananas in Pajamas - Get more on the                                                                           150                                
PROFAMCHA131202060848060918000030D-JR Promo - Little Einsteins - Get more on D-JR t                                                                          150                                
PROFAMCHA131202060918060943000025D-JR Live Action ID - #65 Putting Toys Away (Sept2                                                                          150                                
PROFAMCHA131202060943060951000008D-JR Live Action ID - Stella & Sam - Now (Mar2013)                                                                          150                                
PROFAMCHA131202060951060957000006D-JR - Bumper 9 (May2011)                                                                                                   150                                
PGRFAMCHA131202060957063312002315Stella and Sam                                    EP: 10                                                        C33973 1065607ECC                              
PROFAMCHA131202063312063342000030Episodic DWAB (HD) 204 New Ep Wednesday @ 6 (Nov 3                                                                          150                                
PROFAMCHA131202063342063432000050Sony Pictures Home Entertainment                                                                                            150                                
PRCFAMCHA131202063432063447000015Family Bumper Flex (HD) Flex ID - Music ID (:14-:1                                                                          150                                
PROFAMCHA131202063447063504000017PAF (HD) Disney Refresh CD - Coming Up Next (April                                                                          150                                
PGRFAMCHA131202063504065735002231Disney Phineas & Ferb                             EP: 31                                                               6068607ECC                              
PROFAMCHA131202065735065806000031Elf (HD) Clip Promo Prems Friday @ 8 (Dec 2-4)                                                                              150                                
PROFAMCHA131202065806065856000050Crayola                                                                                                                     150                                
PRCFAMCHA131202065856065941000045DXD Merry Mighty Medathon (HD) Sunday Dec 15 @ 430                                                                          150                                
PRCFAMCHA131202065941065955000014Family Flex Next (HD) SIU Zendaya (Aug 2013) (:13-                                                                          150                                
PGRFAMCHA131202065955072142002147Disney Shake It Up                                EP: 16                                                               6068707BCC                              
PROFAMCHA131202072142072212000030GLJ: NYCC (HD) Alt Sell New Ep Friday @ 615 (Dec2-                                                                          150                                
PROFAMCHA131202072212072302000050Walt Disney Pictures                                                                                                        150                                
PROFAMCHA131202072302072330000028Coppertop Flop (HD) He's All That - New Ep Friday                                                                           150                                
PROFAMCHA131202072330072345000015Lego                                                                                                                        150                                
PRCFAMCHA131202072345072408000023Family Twistmas (HD) Baking (:21-:25) (Dec 2013)                                                                            150                                
PROFAMCHA131202072408072423000015ANT Farm (HD) Refresh CT - Coming Up Next (April 2                                                                          150                                
PRCFAMCHA131202072423072451000028Monsters Inc (HD) Prems Saturday @ 4 (Dec 2-5)                                                                              150                                
PGRFAMCHA131202072451074722002231Disney A.N.T. Farm                                EP: 07                                                               6068607BCC                              
PROFAMCHA131202074722074732000010LU - (HD) Jessie/WOWP @ 8:15am (April 2013)                                                                                 150                                
PROFAMCHA131202074732074810000038Elf (HD) Prems Friday Night @ 8 (Dec 2-4)                                                                                   150                                
PROFAMCHA131202074810074900000050Universal Home Entertainment                                                                                                150                                
PRCFAMCHA131202074900074945000045DXD Merry Mighty Medathon (HD) Sunday Dec 15 @ 430                                                                          150                                
PROFAMCHA131202074945075035000050Lego                                                                                                                        150                                
PRCFAMCHA131202075035075043000008Family Bumper (HD) - Origami ID (Jan 2011)                                                                                  150                                
PRCFAMCHA131202075043075056000013Family Flex Next (HD) Jessie - Jessie  (:12-:14) (                                                                          150                                
PGRFAMCHA131202075056081401002305Disney Jessie                                     EP: 17                                                               6068807BCC                              
PRCFAMCHA131202081401081429000028Monsters Inc (HD) Prems Saturday @ 4 (Dec 2-5)                                                                              150                                
PROFAMCHA131202081429081519000050Lego                                                                                                                        150                                
PRCFAMCHA131202081519081537000018Family Bumper Flex (HD) Flip Book (:15-:18) (Nov 2                                                                          150                                
PROFAMCHA131202081537081622000045Mattel                                                                                                                      150                                
PROFAMCHA131202081622081637000015Web GLC Online Game (HD) Play Games at family.ca (                                                                          150                                
PROFAMCHA131202081637081727000050Crayola                                                                                                                     150                                
PROFAMCHA131202081727081733000006WOWP (HD) ID - Jennifer Stone 1 "Coming Up Next" (                                                                          150                                
PRCFAMCHA131202081733081758000025Episodic Next Step (HD) 126 New Ep Friday @ 7 (Dec                                                                          150                                
PGRFAMCHA131202081758084033002235Disney Wizards of Waverly Place                   EP: 02                                                               6068607BCC                              
PROFAMCHA131202084033084041000008D-JR Live Action ID - Tickity Toc - Coming Up (Mar                                                                          150                                
PROFAMCHA131202084041084106000025D-JR Live Action ID - #51 Chores Board (Sep2013)                                                                            150                                
PROFAMCHA131202084106084135000029D-JR Episodic - Doc 206 Prems Sunday Dec 15 (Nov 3                                                                          150                                
PROFAMCHA131202084135084141000006D-JR - Short Open (:06) (May2011)                                                                                           150                                
PROFAMCHA131202084141084338000157PH-D Short - Can You...Alligator Manners S1 - 10 -                                                                          150                                
PROFAMCHA131202084338084344000006D-JR - Short Close (:06) (May2011)                                                                                          150                                
PROFAMCHA131202084344084419000035D-JR Promo - Bananas in Pajamas - Clip 1 - Get mor                                                                          150                                
PROFAMCHA131202084419084444000025D-JR Live Action ID - #50 Feed Dog (Sep2013)                                                                                150                                
PROFAMCHA131202084444084452000008D-JR Live Action ID - Tickity Toc - Now (Mar2013)                                                                           150                                
PROFAMCHA131202084452084503000011D-JR - Station ID (:11) (May2011)                                                                                           150                                
PGRFAMCHA131202084503085605001102Tickety Toc                                       EP: 27                                                               3068605ACC                              
PGRFAMCHA131202085605090706001101Tickety Toc                                       EP: 28                                                               3068605ACC                              
PROFAMCHA131202090706090714000008D-JR Live Action ID - Little Einsteins - Coming Up                                                                          150                                
PROFAMCHA131202090714090739000025D-JR Live Action ID - #5 Pick A Reading Spot (Sep2                                                                          150                                
PROFAMCHA131202090739090809000030D-JR Promo - On demand online REVISED - D-JR.ca (M                                                                          150                                
PROFAMCHA131202090809090901000052D-JR Promo - Doc McStuffins - Get more on the chan                                                                          150                                
PROFAMCHA131202090901090943000042D-JR Promo - Sofia The First: A Princess Thing - G                                                                          150                                
PROFAMCHA131202090943091013000030D-JR Promo - Henry Hugglemonster - Get more HH  on                                                                          150                                
PROFAMCHA131202091013091038000025D-JR Live Action ID - #48 Help Feed Sibling (Sept2                                                                          150                                
PROFAMCHA131202091038091046000008D-JR Live Action ID - Little Einsteins - Now (Nov2                                                                          150                                
PROFAMCHA131202091046091053000007D-JR - Flex ID - Blue (:6-:10) (Feb2012)                                                                                    150                                
PGRFAMCHA131202091053093459002406Disney's Little Einsteins                         EP: 13                                                               6068605ACC                              
PROFAMCHA131202093459093506000007D-JR Live Action ID - Handy Manny - Coming Up (May                                                                          150                                
PROFAMCHA131202093506093531000025D-JR Live Action ID - #46 Donating Clothes (Sept20                                                                          150                                
PROFAMCHA131202093531093606000035D-JR Promo - Bananas in Pajamas - Clip 1 - Get mor                                                                          150                                
PROFAMCHA131202093606093621000015D-JR Promo - Sofia The First: Clip 3 - Get More We                                                                          150                                
PROFAMCHA131202093621093646000025D-JR Live Action ID - #39 Treasure Hunt (Sep2013)                                                                           150                                
PROFAMCHA131202093646093653000007D-JR Live Action ID - Handy Manny - Now (May2012)                                                                           150                                
PROFAMCHA131202093653093701000008D-JR - Station ID (:08) (May2011)                                                                                           150                                
PGRFAMCHA131202093701100106002405Handy Manny                                       EP: 13                                                               6068605ACC                              
PROFAMCHA131202100106100114000008D-JR Live Action ID - Jake & the Never Land Pirate                                                                          150                                
PROFAMCHA131202100114100139000025D-JR Live Action ID - #35 Nature Walk (Sep2013)                                                                             150                                
PROFAMCHA131202100139100209000030D-JR Episodic - Sofia 124 Prems Sunday Dec 15 (Nov                                                                          150                                
PROFAMCHA131202100209100249000040The Walt Disney Company                                                                                                     150                                
PROFAMCHA131202100249100318000029D-JR Episodic - Doc 206 Prems Sunday Dec 15 (Nov 3                                                                          150                                
PROFAMCHA131202100318100343000025D-JR Live Action ID - #34 Hide N Seek (Sep2013)                                                                             150                                
PROFAMCHA131202100343100350000007D-JR Live Action ID - Jake & the Never Land Pirate                                                                          150                                
PROFAMCHA131202100350100358000008D-JR - Flex ID - Yellow (:6-:10) (Feb2012)                                                                                  150                                
PGRFAMCHA131202100358102803002405Disney Jake and the Never Land Pirates            EP: 09                                                               6068605ACC                              
PROFAMCHA131202102803102811000008D-JR Live Action ID - Sofia the First - Coming Up                                                                           150                                
PROFAMCHA131202102811102836000025D-JR Live Action ID - #28 Clapping Game (Sep2013)                                                                           150                                
PROFAMCHA131202102836102918000042D-JR Promo - Bananas in Pajamas - Weekdays @ 10am                                                                           150                                
PROFAMCHA131202102918102943000025D-JR Live Action ID - #25 Planting Pumpkins (Sep20                                                                          150                                
PROFAMCHA131202102943102951000008D-JR Live Action ID - Sofia the First - Now (Jan20                                                                          150                                
PROFAMCHA131202102951102958000007D-JR - Station ID (:07) (May2011)                                                                                           150                                
PGRFAMCHA131202102958105201002203Disney Sofia the First                            EP: 08                                                               6068605ACC                              
PROFAMCHA131202105201105218000017PAF (HD) Disney Refresh CD - Coming Up Next (April                                                                          150                                
PRCFAMCHA131202105218105246000028Monsters Inc (HD) Prems Saturday @ 4 (Dec 2-5)                                                                              150                                
PGRFAMCHA131202105246105438000152MV Disney (HD) Good Luck Charlie - Song for You (N                                                                     60685120                                
PROFAMCHA131202105438105528000050Lego                                                                                                                        150                                
PGRFAMCHA131202105528105713000145ME - Frozen (HD) Now Playing (Nov 27-Dec 11)                                                                           60685120                                
PRCFAMCHA131202105713105745000032Web Next Step (HD) Aftershow Promo (Nov2013)                                                                                150                                
PROFAMCHA131202105745105908000123Sofia & The Floating Palace (HD) Prems Saturday @                                                                           150                                
PROFAMCHA131202105908105940000032PAF (HD) Delicious Refresh - Coming Up Next (Jun20                                                                          150                                
PROFAMCHA131202105940110010000030Episodic LAM (HD) 108 New Ep Wednesday @ 630 (Nov                                                                           150                                
PGRFAMCHA131202110010112244002234Disney Phineas and Ferb                           EP: 10                                                               6068607ECC                              
PROFAMCHA131202112244112259000015ANT Farm (HD) Refresh CT - Coming Up Next (April 2                                                                          150                                
PROFAMCHA131202112259112329000030GLJ: NYCC (HD) Alt Sell New Ep Friday @ 615 (Dec2-                                                                          150                                
PGRFAMCHA131202112329112526000157Cloud 9 (HD) Trailer - Coming Soon (Nov 29-Dec18)                                                                      60685120CC                              
PROFAMCHA131202112526112611000045Mattel                                                                                                                      150                                
PROFAMCHA131202112611112640000029Coppertop Flop (HD) Tap Off - New Episode Friday N                                                                          150                                
PRCFAMCHA131202112640112706000026Family Twistmas (HD) Wrapping (:22-:26) (Dec 2013)                                                                          150                                
PRCFAMCHA131202112706112751000045DXD Mission: Crashenfest (HD) Starts Sunday Dec 8                                                                           150                                
PROFAMCHA131202112751112841000050Crayola                                                                                                                     150                                
PRCFAMCHA131202112841112906000025Episodic Next Step (HD) 126 New Ep Friday @ 7 (Dec                                                                          150                                
PROFAMCHA131202112906112939000033ANT Farm (HD) Refresh - Coming Up Next (Jun2013)                                                                            150                                
PROFAMCHA131202112939113010000031Elf (HD) Clip Promo Prems Friday @ 8 (Dec 2-4)                                                                              150                                
PGRFAMCHA131202113010115229002219Disney A.N.T. Farm                                EP: 04                                                               6068607BCC                              
PGRFAMCHA131202115229115525000256MV Disney (HD) Dove Cameron - Better In Stereo (No                                                                     60685120                                
PROFAMCHA131202115525115603000038Wingin It (HD) Refresh Promo - Coming Up Next (Apr                                                                          150                                
PROFAMCHA131202115603115648000045Mattel                                                                                                                      150                                
PROFAMCHA131202115648115718000030D-JR Episodic - Sofia 124 Prems Sunday Dec 15 (Nov                                                                          150                                
PROFAMCHA131202115718115753000035Spin Master (King Star)                                                                                                     150                                
PROFAMCHA131202115753115808000015PSA CMF (HD) Canada on Screen (Nov2012) (3x per da                                                                          150                                
PROFAMCHA131202115808115858000050Crayola                                                                                                                     150                                
PRCFAMCHA131202115858115908000010Family Bumper (HD) - Satelite ID (Jan 2011)                                                                                 150                                
PROFAMCHA131202115908115946000038Wingin It (HD) Refresh Promo - Coming Up Next (Apr                                                                          150                                
PRCFAMCHA131202115946120014000028Monsters Inc (HD) Prems Saturday @ 4 (Dec 2-5)                                                                              150                                
PRCFAMCHA131202120014120028000014Descriptive Video Slate (HD) (Apr2013)                                                                                      150                                
PGRFAMCHA131202120028122300002232Wingin' It                                        EP: 01                                                        C32727 1065607ACD                              
PGRFAMCHA131202122300122452000152MV Disney (HD) Zendaya - Shake Santa Shake (Nov29-                                                                     60685120                                
PROFAMCHA131202122452122458000006WOWP (HD) ID - Jennifer Stone 1 "Coming Up Next" (                                                                          150                                
PROFAMCHA131202122458122526000028Coppertop Flop (HD) He's All That - New Ep Friday                                                                           150                                
PROFAMCHA131202122526122604000038Elf (HD) Prems Friday Night @ 8 (Dec 2-4)                                                                                   150                                
PROFAMCHA131202122604122727000123Sofia & The Floating Palace (HD) Prems Saturday @                                                                           150                                
PROFAMCHA131202122727122817000050Crayola                                                                                                                     150                                
PROFAMCHA131202122817122858000041Web Next Step Online Mashup (HD) On family.ca (Mar                                                                          150                                
PRCFAMCHA131202122858122943000045DXD Merry Mighty Medathon (HD) Sunday Dec 15 @ 430                                                                          150                                
PROFAMCHA131202122943122949000006WOWP (HD) ID - Jennifer Stone 2 "Coming Up Next" (                                                                          150                                
PROFAMCHA131202122949123019000030GLJ: NYCC (HD) Alt Sell New Ep Friday @ 615 (Dec2-                                                                          150                                
PGRFAMCHA131202123019125254002235Disney Wizards of Waverly Place                   EP: 07                                                               6068607BCC                              
PGRFAMCHA131202125254125524000230MV Non Disney (HD) Megan Nicole - Santa Baby (Dec1                                                                     10615120CC                              
PROFAMCHA131202125524125547000023WOWP (HD) Harper - Coming Up Next (April 2013)                                                                              150                                
PRCFAMCHA131202125547125615000028Monsters Inc (HD) Prems Saturday @ 4 (Dec 2-5)                                                                              150                                
PROFAMCHA131202125615125700000045Mattel                                                                                                                      150                                
PROFAMCHA131202125700125729000029D-JR Episodic - Doc 206 Prems Sunday Dec 15 (Nov 3                                                                          150                                
PROFAMCHA131202125729125759000030GLJ: NYCC (HD) Alt Sell New Ep Friday @ 615 (Dec2-                                                                          150                                
PROFAMCHA131202125759125849000050Crayola                                                                                                                     150                                
PROFAMCHA131202125849125929000040The Walt Disney Company                                                                                                     150                                
PROFAMCHA131202125929125948000019WOWP (HD) Clip Bad Time - Coming Up Next (April 20                                                                          150                                
PROFAMCHA131202125948130018000030Episodic LAM (HD) 108 New Ep Wednesday @ 630 (Nov                                                                           150                                
PGRFAMCHA131202130018132250002232Disney Wizards of Waverly Place                   EP: 26                                                               6068607BCC                              
PROFAMCHA131202132250132255000005GLC (HD) ID - Bradley Perry 3 "Coming Up Next" (gi                                                                          150                                
