SO FAMCHA011101043000043011000011Sign On (oct 1)                                                                                                                                                
PGRFAMCHA011101043011045415002404Out of the Box                                    Listen Up                                                           A6068607A                                
ID FAMCHA011101045415045420000005Generic ID - Couch 1*                                                                                                       150                                
PROFAMCHA011101045420045430000010Preschool Line-Up -02- ART/KATIE/DUCKTALES                                                                                  150                                
PGRFAMCHA011101045430050937001507Art Attack                                        1-001                                                                60686110                                
ID FAMCHA011101050937050947000010Generic ID - Family w/dog                                                                                                   150                                
PROFAMCHA011101050947051004000017Katie and Orbie (OCT2001) - Coming Up                                                                                       150                                
INTFAMCHA011101051004051403000359MV Disney - Beauty And The Beast (PEBO BRYSON/CELI                                                                     60688120                                
PROFAMCHA011101051403051450000047DuckTales (AUG2001) - Today @ 5:40am                                                                                        150                                
PROFAMCHA011101051450051500000010Preschool Line-Up -03- KATIE/DUCKTALES/LULU                                                                                 150                                
PROFAMCHA011101051500051508000008CC Is Brought To You By - Ian **DNU AFTER 09/22**                                                                           150                                
PGRFAMCHA011101051508054146002638Katie And Orbie                                   Burr!/Gutter Balls/The Nibbler                                C19665A1065607ECC                              
ID FAMCHA011101054146054156000010Generic ID - confetti                                                                                                       150                                
PROFAMCHA011101054156054222000026DuckTales (CLIP) - Coming Up                                                                                                150                                
PROFAMCHA011101054222054250000028Art Attack (SCOTSMAN) - Today @ 8am                                                                                         150                                
PROFAMCHA011101054250054300000010Preschool Line-Up -04- DUCKTALES/LULU/ALF                                                                                   150                                
PROFAMCHA011101054300054308000008CC Is Brought To You By - Lark **DNU AFTER 09/22**                                                                          150                                
PGRFAMCHA011101054308060555002247Disney's DuckTales                                Send In The Clones                                                  A6068607ECC                              
ID FAMCHA011101060555060600000005Generic ID - Couch 2*                                                                                                       150                                
PROFAMCHA011101060600060606000006Little Lulu (AUG2001) - Lulu - Coming Up                                                                                    150                                
PROFAMCHA011101060606060626000020Book of Pooh - This Morning                                                                                                 150                                
PRCFAMCHA011101060626060640000014Franklin (AUG2001) - Leaf - Today @ 7:30am                                                                                  150                                
PRCFAMCHA011101060640060650000010Elmo's World Bumper - Dance - This Morning                                                                                  150                                
PROFAMCHA011101060650060700000010Preschool Line-Up -05- LULU/ALF                                                                                             150                                
PROFAMCHA011101060700060708000008CC Is Brought To You By - Ian **DNU AFTER 09/22**                                                                           150                                
PGRFAMCHA011101060708063043002335Little Lulu Show; The                             Wild Boy, The Whistle Blower, Elephant Ride                   B20186A1065607ECC                              
ID FAMCHA011101063043063050000007Generic ID - Whisper*                                                                                                       150                                
PRCFAMCHA011101063050063104000014Franklin (AUG2001) - Leaf - Today @ 7:30am                                                                                  150                                
PROFAMCHA011101063104063130000026DuckTales (CLIP) - Today @ 11:10am                                                                                          150                                
PRCFAMCHA011101063130063140000010Morning Block menu background (flex time)                                                                                   150                                
ID FAMCHA011101063140063200000020Morning block open play pen                                                                                                 150                                
PROFAMCHA011101063200063208000008CC Is Brought To You By - Lark **DNU AFTER 09/22**                                                                          150                                
PGRFAMCHA011101063208065336002128ALF                                               Oh Pretty Woman                                                     A2068807BCC                              
ID FAMCHA011101065336065346000010Generic ID - Family w/dog                                                                                                   150                                
PROFAMCHA011101065346065416000030Lizzie McGuire (AUG2001) - Friday @ 7am                                                                                     150                                
PROFAMCHA011101065416065446000030Shnookums & Meat (AUG2001) - Coming Up (7am)                                                                                150                                
PROFAMCHA011101065446065516000030Mighty Ducks (AUG2001) - Weekends @ 7:30am                                                                                  150                                
INTFAMCHA011101065516065827000311Art Attack - Boys Playing Basketball                                                                                   60686120                                
PROFAMCHA011101065827065900000033Totally Circus - Weekends @ 8:30am                                                                                          150                                
PROFAMCHA011101065900065930000030Legend of Tarzan -2- THEME SONG - Today @ 5pm                                                                               150                                
PRCFAMCHA011101065930065940000010Morning Block menu background (flex time)                                                                                   150                                
ID FAMCHA011101065940070000000020Morning block open play pen                                                                                                 150                                
PGRFAMCHA011101070000072251002251Shnookums & Meat Funny Cartoon Show; The          1-011                                                               A6068607E                                
ID FAMCHA011101072251072301000010Generic ID - Hula Hoop                                                                                                      150                                
PROFAMCHA011101072301072315000014Art Attack (ART) - Today @ 8am                                                                                              150                                
PRCFAMCHA011101072315072323000008Franklin (AUG2001) - Slide - Coming Up                                                                                      150                                
PROFAMCHA011101072323072340000017Katie and Orbie (OCT2001) - Today @ 9:55am                                                                                  150                                
INTFAMCHA011101072340072540000200Disney Circle Time - The Greedy Dog (anywhere but                                                                      60688120                                
PRCFAMCHA011101072540072551000011Elmo's World Bumper - Tricycle - This Morning                                                                               150                                
INTFAMCHA011101072551072855000304Music Break - Bobby Mcferrin: Baby                                                                                     60688120                                
PROFAMCHA011101072855072930000035Family's Monsters Inc. Contest - OCT 29 TO NOV 1                                                                            150                                
PRCFAMCHA011101072930072940000010Morning Block menu background (flex time)                                                                                   150                                
ID FAMCHA011101072940073000000020Morning block open play pen                                                                                                 150                                
PROFAMCHA011101073000073009000009CC Is Brought To You By - Ian                                                                                               150                                
PGRFAMCHA011101073009075302002253Franklin                                          Franklin Wants A Pet/Franklin Plays The Game                  B10180A1065607ECC                              
ID FAMCHA011101075302075307000005Generic ID - Marbles                                                                                                        150                                
PROFAMCHA011101075307075327000020Book of Pooh - This Morning                                                                                                 150                                
PROFAMCHA011101075327075355000028Art Attack (SCOTSMAN) - Coming Up                                                                                           150                                
INTFAMCHA011101075355075729000334MV Disney - Forever And Ever (KATHIE LEE GIFFORD)                                                                      60688120                                
PROFAMCHA011101075729075738000009PB&J Otter (AUG2001) - Open - Today @ 9:30am                                                                                150                                
INTFAMCHA011101075738075915000137Disney Moments-Toot, Whistle, Plunk & Boom-String                                                                      60688120                                
PROFAMCHA011101075915075950000035Family's Monsters Inc. Contest - OCT 29 TO NOV 1                                                                            150                                
PROFAMCHA011101075950080000000010Preschool Line-Up -06- ART/LULU/ELMO                                                                                        150                                
PGRFAMCHA011101080000081950001950Art Attack                                        1-103                                                                60686110                                
ID FAMCHA011101081950081955000005Astral 40th Anniversary Logo                                                                                                150                                
ID FAMCHA011101081955082001000006Generic ID - soccer                                                                                                         150                                
PROFAMCHA011101082001082007000006Little Lulu (AUG2001) - Lulu - Coming Up                                                                                    150                                
PROFAMCHA011101082007082042000035Family's Monsters Inc. Contest - OCT 29 TO NOV 1                                                                            150                                
PROFAMCHA011101082042082049000007PB&J Otter (AUG2001) - Kite - Today @ 9:30am                                                                                150                                
PROFAMCHA011101082049082059000010Preschool Line-Up -07- LULU/ELMO/BOP                                                                                        150                                
PROFAMCHA011101082059082107000008CC Is Brought To You By - Lark **DNU AFTER 09/22**                                                                          150                                
PGRFAMCHA011101082107084441002334Little Lulu Show; The                             The untold Story, Amok in the Mall, The World Reco            B20196A1065607ECC                              
ID FAMCHA011101084441084451000010Generic ID - Pink inner tube                                                                                                150                                
PRCFAMCHA011101084451084502000011Elmo's World Bumper - Tricycle - Coming Up                                                                                  150                                
PROFAMCHA011101084502084520000018Book of Pooh - This Morning                                                                                                 150                                
PROFAMCHA011101084520084535000015New Adv of WTP (AUG2001) - Poem - Today @ 10:20am                                                                           150                                
PROFAMCHA011101084535084550000015Out of the Box - Today @ 10:45am                                                                                            150                                
PROFAMCHA011101084550084600000010Preschool Line-Up -08- ELMO/BOP/PB&J                                                                                        150                                
PGRFAMCHA011101084600090024001424Elmo's World                                      Exercise                                                            A2068607G                                
ID FAMCHA011101090024090029000005Astral 40th Anniversary Logo                                                                                                150                                
PROFAMCHA011101090029090047000018Book of Pooh - Coming Up                                                                                                    150                                
PROFAMCHA011101090047090054000007PB&J Otter (AUG2001) - Kite - Today @ 9:30am                                                                                150                                
INTFAMCHA011101090054090423000329Art Attack - 2 Swans                                                                                                   60686120                                
PROFAMCHA011101090423090440000017Katie and Orbie (OCT2001) - Today @ 9:55am                                                                                  150                                
PROFAMCHA011101090440090450000010Preschool Line-Up -09- BOP/PB&J/KATIE                                                                                       150                                
ID FAMCHA011101090450090500000010xxMagic of Disney - V4 - KID MALE                                                                                           150                                
PGRFAMCHA011101090500092902002402Book Of Pooh; The                                 You Can Lead Eeyore To Books/The Spice Of Life                       6068607G                                
ID FAMCHA011101092902092907000005Astral 40th Anniversary Logo                                                                                                150                                
ID FAMCHA011101092907092917000010Generic ID - Ring around the rosie                                                                                          150                                
PROFAMCHA011101092917092924000007PB&J Otter (AUG2001) - Kite - Coming Up                                                                                     150                                
PROFAMCHA011101092924092950000026DuckTales (CLIP) - Today @ 11:10am                                                                                          150                                
PROFAMCHA011101092950093000000010Preschool Line-Up -10- PB&J/KATIE/WTP                                                                                       150                                
PROFAMCHA011101093000093008000008CC Is Brought To You By - Ian **DNU AFTER 09/22**                                                                           150                                
PGRFAMCHA011101093008095338002330PB&J Otter                                        On The Right Track/ Itchy Situation                                 A6068607ECC                              
ID FAMCHA011101095338095343000005Astral 40th Anniversary Logo                                                                                                150                                
PROFAMCHA011101095343095400000017Katie and Orbie (OCT2001) - Coming Up                                                                                       150                                
PROFAMCHA011101095400095415000015New Adv of WTP (AUG2001) - Poem - Today @ 10:20am                                                                           150                                
PROFAMCHA011101095415095430000015Out of the Box - Today @ 10:45am                                                                                            150                                
PROFAMCHA011101095430095450000020Hoze Houndz (AUG2001) - Today @ 11:35am                                                                                     150                                
PROFAMCHA011101095450095500000010Preschool Line-Up -11- KATIE/WTP/OOTB                                                                                       150                                
PROFAMCHA011101095500095508000008CC Is Brought To You By - Lark **DNU AFTER 09/22**                                                                          150                                
PGRFAMCHA011101095508102143002635Katie And Orbie                                   Close To My Heart/Frozen Fish Cafe/Katie's First..            C11896A1065607ECC                              
ID FAMCHA011101102143102148000005Generic ID - Couch 2*                                                                                                       150                                
PROFAMCHA011101102148102200000012New Adv of WTP (AUG2001) - Blustery - Coming Up                                                                             150                                
PROFAMCHA011101102200102226000026DuckTales (CLIP) - Today @ 11:10am                                                                                          150                                
PRCFAMCHA011101102226102240000014Franklin (AUG2001) - Leaf - Today @ 12:20pm                                                                                 150                                
PROFAMCHA011101102240102250000010Preschool Line-Up -12- WTP/OOTB/DUCKTALES                                                                                   150                                
ID FAMCHA011101102250102300000010xxMagic of Disney - V2(sky) - KID FEMALE                                                                                    150                                
PROFAMCHA011101102300102308000008CC Is Brought To You By - Ian **DNU AFTER 09/22**                                                                           150                                
PGRFAMCHA011101102308104624002316New Adventures of Winnie the Pooh; The            King of the Beasties/Rats Who Came...                                6068607ECC                              
ID FAMCHA011101104624104629000005Astral 40th Anniversary Logo                                                                                                150                                
ID FAMCHA011101104629104635000006Generic ID - soccer                                                                                                         150                                
PROFAMCHA011101104635104650000015Out of the Box - Coming Up                                                                                                  150                                
PROFAMCHA011101104650104700000010Preschool Line-Up -13- OOTB/DUCKTALES/HOZE                                                                                  150                                
PGRFAMCHA011101104700111104002404Out of the Box                                    Thinkin Lincoln                                                     A6068607A                                
ID FAMCHA011101111104111109000005Generic ID - Couch 1*                                                                                                       150                                
PROFAMCHA011101111109111119000010Preschool Line-Up -14- DUCKTALES/HOZE/LULU                                                                                  150                                
PROFAMCHA011101111119111127000008CC Is Brought To You By - Ian **DNU AFTER 09/22**                                                                           150                                
PGRFAMCHA011101111127113427002300Disney's DuckTales                                Yuppy Ducks                                                         A6068607ECC                              
ID FAMCHA011101113427113432000005Astral 40th Anniversary Logo                                                                                                150                                
ID FAMCHA011101113432113442000010Generic ID - Family w/dog                                                                                                   150                                
PRCFAMCHA011101113442113450000008Franklin (AUG2001) - Slide - Today @ 12:20pm                                                                                150                                
PROFAMCHA011101113450113500000010Preschool Line-Up -15- HOZE/LULU/FRANKLIN                                                                                   150                                
PROFAMCHA011101113500113509000009CC Is Brought To You By - Lark                                                                                              150                                
PGRFAMCHA011101113509115744002235Hoze Houndz                                       Jail Houndz/Crystal Clear                                     B34012A1065607ECC                              
ID FAMCHA011101115744115749000005Astral 40th Anniversary Logo                                                                                                150                                
ID FAMCHA011101115749115759000010Generic ID - confetti                                                                                                       150                                
PROFAMCHA011101115759115805000006Little Lulu (AUG2001) - Lulu - Coming Up                                                                                    150                                
PRCFAMCHA011101115805115815000010Elmo's World Bumper - Dance - This Afternoon                                                                                150                                
PROFAMCHA011101115815115833000018Book of Pooh - This Afternoon                                                                                               150                                
PROFAMCHA011101115833115850000017Katie and Orbie (OCT2001) - Today @ 1:55pm                                                                                  150                                
PROFAMCHA011101115850115900000010Preschool Line-Up -16- LULU/FRANKLIN/ELMO                                                                                   150                                
PROFAMCHA011101115900115908000008CC Is Brought To You By - Ian **DNU AFTER 09/22**                                                                           150                                
PGRFAMCHA011101115908122243002335Little Lulu Show; The                             Breakout, The Great Golf Club Chase, Jumpin' Jelly            B20197A1065607ECC                              
ID FAMCHA011101122243122248000005Astral 40th Anniversary Logo                                                                                                150                                
ID FAMCHA011101122248122258000010Generic ID - Family w/dog                                                                                                   150                                
PRCFAMCHA011101122258122306000008Franklin (AUG2001) - Slide - Coming Up                                                                                      150                                
PRCFAMCHA011101122306122317000011Elmo's World Bumper - Tricycle - This Afternoon                                                                             150                                
PROFAMCHA011101122317122332000015Out of the Box - Today @ 2:45pm                                                                                             150                                
PROFAMCHA011101122332122350000018Book of Pooh - This Afternoon                                                                                               150                                
PROFAMCHA011101122350122400000010Preschool Line-Up -17- FRANKLIN/ELMO/BOP                                                                                    150                                
PROFAMCHA011101122400122408000008CC Is Brought To You By - Lark **DNU AFTER 09/22**                                                                          150                                
PGRFAMCHA011101122408124701002253Franklin                                          Hurry Up Franklin/Franklin's Bad Day                          B10181A1065607ECC                              
ID FAMCHA011101124701124706000005Astral 40th Anniversary Logo                                                                                                150                                
ID FAMCHA011101124706124711000005Generic ID - Fingerpaint                                                                                                    150                                
PRCFAMCHA011101124711124722000011Elmo's World Bumper - Tricycle - Coming Up                                                                                  150                                
PROFAMCHA011101124722124750000028Art Attack (SCOTSMAN) - Weekdays @ 8am                                                                                      150                                
PROFAMCHA011101124750124800000010Preschool Line-Up -18- ELMO/BOP/PB&J                                                                                        150                                
PGRFAMCHA011101124800130449001649Elmo's World                                      Singing                                                             A2068607G                                
ID FAMCHA011101130449130454000005Generic ID - Marbles                                                                                                        150                                
PROFAMCHA011101130454130512000018Book of Pooh - Coming Up                                                                                                    150                                
PROFAMCHA011101130512130529000017Katie and Orbie (OCT2001) - Today @ 1:55pm                                                                                  150                                
INTFAMCHA011101130529130640000111Mix Ups - Switch play                                                                                                  60688120                                
PROFAMCHA011101130640130650000010Preschool Line-Up -19- BOP/PB&J/KATIE                                                                                       150                                
ID FAMCHA011101130650130700000010xxMagic of Disney - V4 - TEEN FEMALE                                                                                        150                                
PGRFAMCHA011101130700133102002402Book Of Pooh; The                                 Mr. Narrator/Honey-Glazed Hamlet                                     6068607G                                
ID FAMCHA011101133102133107000005Astral 40th Anniversary Logo                                                                                                150                                
ID FAMCHA011101133107133114000007Generic ID - Whisper*                                                                                                       150                                
PROFAMCHA011101133114133123000009PB&J Otter (AUG2001) - Open - Coming Up                                                                                     150                                
PROFAMCHA011101133123133138000015Out of the Box - Today @ 2:45pm                                                                                             150                                
PROFAMCHA011101133138133150000012New Adv of WTP (AUG2001) - Blustery - Today @ 2:25                                                                          150                                
PROFAMCHA011101133150133200000010Preschool Line-Up -20- PB&J/KATIE/WTP                                                                                       150                                
PROFAMCHA011101133200133209000009CC Is Brought To You By - Lark                                                                                              150                                
PGRFAMCHA011101133209135539002330PB&J Otter                                        Big Surprise/Bazania Mania                                           6068607ECC                              
ID FAMCHA011101135539135546000007Generic ID - Whisper*                                                                                                       150                                
PROFAMCHA011101135546135603000017Katie and Orbie (OCT2001) - Coming Up                                                                                       150                                
PROFAMCHA011101135603135650000047DuckTales (AUG2001) - Today @ 3:10pm                                                                                        150                                
PROFAMCHA011101135650135700000010Preschool Line-Up -21- KATIE/WTP/OOTB                                                                                       150                                
PROFAMCHA011101135700135708000008CC Is Brought To You By - Lark **DNU AFTER 09/22**                                                                          150                                
PGRFAMCHA011101135708142343002635Katie And Orbie                                   Lulu/The Farm/Splash                                          C11896A1065607ECC                              
ID FAMCHA011101142343142348000005Generic ID - Marbles                                                                                                        150                                
PROFAMCHA011101142348142403000015New Adv of WTP (AUG2001) - Poem - Coming Up                                                                                 150                                
PROFAMCHA011101142403142429000026DuckTales (CLIP) - Today @ 3:10pm                                                                                           150                                
PRCFAMCHA011101142429142440000011Elmo's World Bumper - Tricycle - Weekday Mornings                                                                           150                                
PROFAMCHA011101142440142450000010Preschool Line-Up -22- WTP/OOTB/DUCKTALES                                                                                   150                                
ID FAMCHA011101142450142500000010xxMagic of Disney - V2(sky) - TEEN MALE                                                                                     150                                
PROFAMCHA011101142500142508000008CC Is Brought To You By - Ian **DNU AFTER 09/22**                                                                           150                                
PGRFAMCHA011101142508144825002317New Adventures of Winnie the Pooh; The            My Hero/Owl Feathers                                                 6068607ECC                              
ID FAMCHA011101144825144835000010Generic ID - confetti                                                                                                       150                                
PROFAMCHA011101144835144850000015Out of the Box - Coming Up                                                                                                  150                                
PROFAMCHA011101144850144900000010Preschool Line-Up -23- OOTB/DUCKTALES/HOZE                                                                                  150                                
PGRFAMCHA011101144900151304002404Out of the Box                                    Horsing Around                                                      A6068607A                                
ID FAMCHA011101151304151309000005Generic ID - Marbles                                                                                                        150                                
PROFAMCHA011101151309151319000010Preschool Line-Up -24- DUCKTALES/HOZE/D12                                                                                   150                                
PROFAMCHA011101151319151327000008CC Is Brought To You By - Ian **DNU AFTER 09/22**                                                                           150                                
PGRFAMCHA011101151327153602002235Disney's DuckTales                                The Bride Wore Stripes                                              A6068607ECC                              
ID FAMCHA011101153602153607000005Astral 40th Anniversary Logo                                                                                                150                                
ID FAMCHA011101153607153612000005Generic ID - Marbles                                                                                                        150                                
PROFAMCHA011101153612153632000020Hoze Houndz (AUG2001) - Coming Up                                                                                           150                                
PROFAMCHA011101153632153650000018Book of Pooh - Weekday Mornings                                                                                             150                                
PROFAMCHA011101153650153700000010Preschool Line-Up -25- HOZE/D12                                                                                             150                                
PROFAMCHA011101153700153708000008CC Is Brought To You By - Lark **DNU AFTER 09/22**                                                                          150                                
PGRFAMCHA011101153708155943002235Hoze Houndz                                       The Day The Houndz Stood Still/Poeticize                      B34013A1065607ECC                              
ID FAMCHA011101155943155950000007Generic ID - Whisper*                                                                                                       150                                
ID FAMCHA011101155950160000000010xxMagic of Disney - V3(water) - TEEN FEMALE                                                                                 150                                
PROFAMCHA011101160000160030000030Disney's One Too - Opening                                                                                                  150                                
PROFAMCHA011101160030160038000008CC Is Brought To You By - Games                                                                                             150                                
PGRFAMCHA011101160038162230002152Disney/Pixar's Buzz Lightyear of Star Command     Sunquake                                                             6068607ECC                              
ID FAMCHA011101162230162240000010Generic ID - Bubbles                                                                                                        150                                
PROFAMCHA011101162240162315000035Family's Monsters Inc. Contest - OCT 29 TO NOV 1                                                                            150                                
PROFAMCHA011101162315162345000030Pepper Ann (MARCH2001) - Coming Up                                                                                          150                                
PROFAMCHA011101162345162413000028Recess (NEW EPS-PT) - Starting Monday @ 5:30pm                                                                              150                                
PROFAMCHA011101162413162443000030Legend of Tarzan -2- THEME SONG - Today @ 5pm                                                                               150                                
INTFAMCHA011101162443162842000359MV Disney - Can You Feel The Love Tonight? (ELTON                                                                      60688120                                
PROFAMCHA011101162842162902000020Disney Promo (D12 only) - RECESS - Set Your Clocks                                                                          150                                
PROFAMCHA011101162902162932000030Lizzie McGuire (AUG2001) - Tomorrow @ 7am                                                                                   150                                
PRCFAMCHA011101162932162942000010Morning Block menu background (flex time)                                                                                   150                                
ID FAMCHA011101162942163000000018Afternoon block pinball open                                                                                                150                                
PROFAMCHA011101163000163030000030Disney's One Too - Opening                                                                                                  150                                
PROFAMCHA011101163030163039000009CC Is Brought To You By - Click Club                                                                                        150                                
PGRFAMCHA011101163039165313002234Disney's Pepper Ann                               One Angry Woman                                                      6068607ECC                              
ID FAMCHA011101165313165323000010Generic ID - Pink inner tube                                                                                                150                                
PROFAMCHA011101165323165353000030SP - Miracle In Lane 2 - Sunday @ 12pm                                                                                      150                                
PROFAMCHA011101165353165423000030Legend of Tarzan -1- WHERE'S TARZAN - Coming Up                                                                             150                                
PROFAMCHA011101165423165443000020Disney Promo (D12 only) - BUZZ - Name You Can Coun                                                                          150                                
PROFAMCHA011101165443165507000024Honey, I Shrunk the Kids (AUG2001) - Tonight @ 8pm                                                                          150                                
INTFAMCHA011101165507165520000013Toy Story Treats - Global Swarming                                                                                     60686120                                
PROFAMCHA011101165520165553000033Totally Circus - Weekends @ 8:30am                                                                                          150                                
INTFAMCHA011101165553165730000137Bill Nye - Water Cycle Jump                                                                                            60688120                                
INTFAMCHA011101165730165803000033Toy Story Treats - The Invasion                                                                                        60686120                                
PROFAMCHA011101165803165837000034Morning Madness (7AM BLOCK) - Weekday Mornings @ 7                                                                          150                                
PROFAMCHA011101165837165847000010Weekenders (D12/WEEKENDS) - Weekends @ 4:35pm                                                                               150                                
PROFAMCHA011101165847165907000020Disney's One, Too (AUG2001) - You're Watching                                                                               150                                
PROFAMCHA011101165907165942000035Family's Monsters Inc. Contest - OCT 29 TO NOV 1                                                                            150                                
ID FAMCHA011101165942170000000018Afternoon block pinball open                                                                                                150                                
PROFAMCHA011101170000170030000030Disney's One Too - Opening                                                                                                  150                                
PGRFAMCHA011101170030172318002248Disney's The Legend of Tarzan                     Rogue Elephant                                                      A6068607E                                
ID FAMCHA011101172318172328000010Generic ID - Ring around the rosie                                                                                          150                                
PROFAMCHA011101172328172403000035Family's Monsters Inc. Contest - OCT 29 TO NOV 1                                                                            150                                
PROFAMCHA011101172403172433000030Weekenders (D12/WEEKENDS) - Weekends @ 4:35pm                                                                               150                                
INTFAMCHA011101172433172454000021Recess Sketches - The Big Kick - Kickball Rain                                                                         60686120                                
PROFAMCHA011101172454172509000015Disney Promo (D12 only) - TARZAN - Learning The Wa                                                                          150                                
INTFAMCHA011101172509172522000013Toy Story Treats - Buzz Box #1                                                                                         60686120                                
INTFAMCHA011101172522172543000021Recess Sketches - TJ's Dream day off - hurricane                                                                       60686120                                
INTFAMCHA011101172543172726000143MV Disney - Siamese Cat Song                                                                                           60688120                                
INTFAMCHA011101172726172739000013Toy Story Treats - Alien On Board                                                                                      60686120                                
PROFAMCHA011101172739172812000033Totally Circus - Weekends @ 8:30am                                                                                          150                                
INTFAMCHA011101172812172833000021Recess Sketches - What Did The Diggers Dig Up? - G                                                                     60686120                                
PROFAMCHA011101172833172903000030Lizzie McGuire (AUG2001) - Tomorrow @ 7am                                                                                   150                                
PROFAMCHA011101172903172933000030Even Stevens (GUITAR) - Tonight @ 6pm                                                                                       150                                
PRCFAMCHA011101172933172942000009Morning Block menu background (flex time)                                                                                   150                                
ID FAMCHA011101172942173000000018Afternoon block pinball open                                                                                                150                                
PROFAMCHA011101173000173030000030Disney's One Too - Opening                                                                                                  150                                
PGRFAMCHA011101173030175304002234Disney's Recess                                   I Will Kick No More Forever/The Kid Came Back                        6068607E                                
ID FAMCHA011101175304175314000010Generic ID - confetti                                                                                                       150                                
PROFAMCHA011101175314175344000030Mighty Ducks (AUG2001) - Weekends @ 7:30am                                                                                  150                                
PROFAMCHA011101175344175411000027Even Stevens (DREAM) - Coming Up                                                                                            150                                
PROFAMCHA011101175411175426000015Weekenders (D12/WEEKENDS) - Weekends @ 4:35pm                                                                               150                                
INTFAMCHA011101175426175811000345Art Attack - Female Hurdler                                                                                            60686120                                
ID FAMCHA011101175811175853000042Wonder Kid - Clean Up                                                                                                       150                                
ID FAMCHA011101175853175905000012Wonder Kid Tag - Male                                                                                                       150                                
PROFAMCHA011101175905175939000034Morning Madness (7AM BLOCK) - Weekday Mornings @ 7                                                                          150                                
PRCFAMCHA011101175939175950000011Morning Block menu background (flex time)                                                                                   150                                
ID FAMCHA011101175950180000000010xxMagic of Disney - V2(sky) - ADULT MALE                                                                                    150                                
PROFAMCHA011101180000180008000008CC Is Brought To You By - Games                                                                                             150                                
PGRFAMCHA011101180008182250002242Even Stevens                                      Get A Job                                                           A6068807BCC                              
ID FAMCHA011101182250182255000005Astral 40th Anniversary Logo                                                                                                150                                
ID FAMCHA011101182255182305000010Generic ID - Hula Hoop                                                                                                      150                                
PROFAMCHA011101182305182335000030SP - Miracle In Lane 2 - Sunday @ 12pm                                                                                      150                                
PROFAMCHA011101182335182359000024Honey, I Shrunk the Kids (AUG2001) - Tonight @ 8pm                                                                          150                                
INTFAMCHA011101182359182736000337MV Disney - Supergirl (KRYSTAL MARIE HARRIS)                                                                           60688120                                
PROFAMCHA011101182736182744000008MV Web Throw - family.ca                                                                                                    150                                
PROFAMCHA011101182744182814000030Lizzie McGuire (AUG2001) - Tomorrow @ 7am                                                                                   150                                
INTFAMCHA011101182814182918000104Jack and Marcel: Ep.068 "Halogen Party"                                                                               A40688120                                
PROFAMCHA011101182918182940000022Even Stevens (KARAOKE) - Tomorrow @ 6pm                                                                                     150                                
PRCFAMCHA011101182940182950000010Morning Block menu background (flex time)                                                                                   150                                
ID FAMCHA011101182950183000000010xxMagic of Disney - V4 - ADULT FEMALE                                                                                       150                                
PROFAMCHA011101183000183008000008CC Is Brought To You By - Click Club                                                                                        150                                
PGRFAMCHA011101183008185222002214Jersey; The                                       In Training                                                          6068607ACC                              
ID FAMCHA011101185222185229000007Generic ID - Whisper*                                                                                                       150                                
PROFAMCHA011101185229185259000030SP - Miracle In Lane 2 - Sunday @ 12pm                                                                                      150                                
PROFAMCHA011101185259185312000013Even Stevens (WASSUP?) - Tomorrow @ 6pm                                                                                     150                                
INTFAMCHA011101185312185630000318MV Disney - If You Wanna Dance (NOBODY'S ANGEL)                                                                        60688120                                
PROFAMCHA011101185630185654000024Honey, I Shrunk the Kids (AUG2001) - Tonight @ 8pm                                                                          150                                
INTFAMCHA011101185654185824000130MV Disney - Mambo #5 (LOU BEGA)                                                                                        60688120                                
PROFAMCHA011101185824185844000020Disney's One, Too (AUG2001) - Weekdays @ 4pm                                                                                150                                
PROFAMCHA011101185844185914000030Lizzie McGuire (AUG2001) - Tomorrow @ 7am                                                                                   150                                
PROFAMCHA011101185914185929000015Weekenders (D12/WEEKENDS) - Weekends @ 4:35pm                                                                               150                                
PRCFAMCHA011101185929185939000010Morning Block menu background (flex time)                                                                                   150                                
ID FAMCHA011101185939190000000021Prime time open count down                                                                                                  150                                
PROFAMCHA011101190000190008000008CC Is Brought To You By - Games                                                                                             150                                
PGRFAMCHA011101190008192441002433Famous Jett Jackson; The                          Popularity                                                    B57118 1065607ACC                              
ID FAMCHA011101192441192446000005Astral 40th Anniversary Logo                                                                                                150                                
ID FAMCHA011101192446192456000010Generic ID - Family w/dog                                                                                                   150                                
PROFAMCHA011101192456192526000030SP - Miracle In Lane 2 - Sunday @ 12pm                                                                                      150                                
PROFAMCHA011101192526192559000033Totally Circus - Weekends @ 8:30am                                                                                          150                                
INTFAMCHA011101192559192810000211MV Disney - Right Back Where We Started From (CLEO                                                                     60688120                                
PROFAMCHA011101192810192830000020Weekenders (D12/WEEKENDS) - Weekends @ 4:35pm                                                                               150                                
PROFAMCHA011101192830192900000030Lizzie McGuire (AUG2001) - Tomorrow @ 7am                                                                                   150                                
PROFAMCHA011101192900192928000028Recess (NEW EPS-PT) - Starting Monday @ 5:30pm                                                                              150                                
PRCFAMCHA011101192928192939000011Morning Block menu background (flex time)                                                                                   150                                
ID FAMCHA011101192939193000000021Prime time open count down                                                                                                  150                                
PROFAMCHA011101193000193008000008CC Is Brought To You By - Click Club                                                                                        150                                
PGRFAMCHA011101193008195136002128ALF                                               Oh Pretty Woman                                                     A2068807BCC                              
ID FAMCHA011101195136195141000005Astral 40th Anniversary Logo                                                                                                150                                
ID FAMCHA011101195141195151000010Generic ID - Ring around the rosie                                                                                          150                                
PROFAMCHA011101195151195221000030SP - Miracle In Lane 2 - Sunday @ 12pm                                                                                      150                                
PROFAMCHA011101195221195254000033Totally Circus - Weekends @ 8:30am                                                                                          150                                
PROFAMCHA011101195254195304000010MV FAMJAM - Teaser (Generic)                                                                                                150                                
PROFAMCHA011101195304195328000024Honey, I Shrunk the Kids (AUG2001) - Coming Up                                                                              150                                
INTFAMCHA011101195328195717000349xMV - Crush (Mandy Moore)                                                                                             A20688120                                
PROFAMCHA011101195717195726000009MV Web Throw - music@family.ca                                                                                              150                                
PROFAMCHA011101195726195756000030Lizzie McGuire (AUG2001) - Tomorrow @ 7am                                                                                   150                                
PROFAMCHA011101195756195826000030Weekenders (D12/WEEKENDS) - Weekends @ 4:35pm                                                                               150                                
PROFAMCHA011101195826195848000022Astral Testimonial #03                                                                                                      150                                
PROFAMCHA011101195848195918000030Mighty Ducks (AUG2001) - Weekends @ 7:30am                                                                                  150                                
PROFAMCHA011101195918195940000022Even Stevens (KARAOKE) - Tomorrow @ 6pm                                                                                     150                                
PRCFAMCHA011101195940195950000010Morning Block menu background (flex time)                                                                                   150                                
ID FAMCHA011101195950200000000010xxMagic of Disney - V4 - ADULT MALE                                                                                         150                                
PROFAMCHA011101200000200007000007CC Is Brought To You By - Games                                                                                             150                                
PGRFAMCHA011101200007204342004335Disney's Honey, I Shrunk The Kids: The TV Show    I'm Spooked                                                          6068807BCC                              
ID FAMCHA011101204342204349000007Generic ID - Whisper*                                                                                                       150                                
PROFAMCHA011101204349204419000030SP - Miracle In Lane 2 - Sunday @ 12pm                                                                                      150                                
PROFAMCHA011101204419204439000020Weekenders (D12/WEEKENDS) - Weekends @ 4:35pm                                                                               150                                
ID FAMCHA011101204439204500000021Prime time open count down                                                                                                  150                                
PGRFAMCHA011101204500205900001400Are You Afraid of the Dark?                       Unexpected Visitor Pt.1                                       SR0306A1066807A                                
ID FAMCHA011101205900205905000005Astral 40th Anniversary Logo                                                                                                150                                
ID FAMCHA011101205905205910000005Generic ID - Marbles                                                                                                        150                                
PROFAMCHA011101205910205940000030Lizzie McGuire (AUG2001) - Tomorrow @ 7am                                                                                   150                                
ID FAMCHA011101205940210000000020Move open family size movie                                                                                                 150                                
PROFAMCHA011101210000210007000007Rating - AA - Ian                                                                                                           150                                
PGRFAMCHA011101210007223228013221Arachnophobia                                                                                                         C6068807D                                
ID FAMCHA011101223228223233000005Generic ID - Couch 2*                                                                                                       150                                
ID FAMCHA011101223233223253000020Move open family size movie                                                                                                 150                                
PROFAMCHA011101223253223300000007Rating - PG - Ian                                                                                                           150                                
PGRFAMCHA011101223300001034013734Oh God!                                                                                                               B2068807D                                
ID FAMCHA011101001034001039000005Generic ID - Marbles                                                                                                        150                                
PROFAMCHA011101001039001047000008CC Is Brought To You By - Games                                                                                             150                                
PGRFAMCHA011101001047003215002128ALF                                               Oh Pretty Woman                                                     A2068807BCC                              
ID FAMCHA011101003215003220000005Generic ID - Bubbles*                                                                                                       150                                
PGRFAMCHA011101003220005652002432Are You Afraid Of The Dark?                       The Tale of the Dark Music                                    SR0302 1066807A                                
ID FAMCHA011101005652005658000006Generic ID - soccer                                                                                                         150                                
PROFAMCHA011101005658005800000102Astral Testimonial #09                                                                                                      150                                
PROFAMCHA011101005800005830000030SP - Miracle In Lane 2 - Sunday @ 12pm                                                                                      150                                
PROFAMCHA011101005830005857000027Even Stevens (DREAM) - Tomorrow @ 6pm                                                                                       150                                
PROFAMCHA011101005857005930000033Totally Circus - Weekends @ 8:30am                                                                                          150                                
INTFAMCHA01110100593001003000010060 Seconds of Science - Knots (anywhere but D12)                                                                       60688120                                
INTFAMCHA011101010030010200000130Klootz - Medecin 04 (post 7PM)                                                                                        A10658120                                
SO FAMCHA011101010200010212000012Sign Off (oct 1)                                                                                                                                               
OFFFAMCHA011101010212043000032748                                                                                                                                                               
SO FAMCHA011102043000043011000011Sign On (oct 1)                                                                                                                                                
PGRFAMCHA011102043011045415002404Out of the Box                                    Thinkin Lincoln                                                     A6068607A                                
ID FAMCHA011102045415045420000005Generic ID - Marbles                                                                                                        150                                
PROFAMCHA011102045420045430000010Preschool Line-Up -02- ART/KATIE/DUCKTALES                                                                                  150                                
PGRFAMCHA011102045430050938001508Art Attack                                        1-002                                                                60686110                                
ID FAMCHA011102050938050943000005Generic ID - Bubbles*                                                                                                       150                                
PROFAMCHA011102050943051000000017Katie and Orbie (OCT2001) - Coming Up                                                                                       150                                
PROFAMCHA011102051000051047000047DuckTales (AUG2001) - Today @ 5:40am                                                                                        150                                
INTFAMCHA011102051047051430000343Art Attack - Tractors In A Field                                                                                       60686120                                
PROFAMCHA011102051430051450000020Hoze Houndz (AUG2001) - Today @ 11:35am                                                                                     150                                
PROFAMCHA011102051450051500000010Preschool Line-Up -03- KATIE/DUCKTALES/LULU                                                                                 150                                
PROFAMCHA011102051500051508000008CC Is Brought To You By - Ian **DNU AFTER 09/22**                                                                           150                                
PGRFAMCHA011102051508054146002638Katie And Orbie                                   Shannon/Grandma/Birds                                         C19665A1065607ECC                              
ID FAMCHA011102054146054151000005Generic ID - Marbles                                                                                                        150                                
PROFAMCHA011102054151054238000047DuckTales (AUG2001) - Coming Up                                                                                             150                                
PROFAMCHA011102054238054250000012New Adv of WTP (AUG2001) - Blustery - Today @ 10:2                                                                          150                                
PROFAMCHA011102054250054300000010Preschool Line-Up -04- DUCKTALES/LULU/ALF                                                                                   150                                
PROFAMCHA011102054300054308000008CC Is Brought To You By - Lark **DNU AFTER 09/22**                                                                          150                                
PGRFAMCHA011102054308060556002248Disney's DuckTales                                Sphinx For The Memories                                             A6068607ECC                              
ID FAMCHA011102060556060606000010Generic ID - confetti                                                                                                       150                                
PROFAMCHA011102060606060612000006Little Lulu (AUG2001) - Lulu - Coming Up                                                                                    150                                
PROFAMCHA011102060612060640000028Art Attack (SCOTSMAN) - Today @ 8am                                                                                         150                                
PRCFAMCHA011102060640060650000010Elmo's World Bumper - Dance - This Morning                                                                                  150                                
PROFAMCHA011102060650060700000010Preschool Line-Up -05- LULU/ALF                                                                                             150                                
PROFAMCHA011102060700060708000008CC Is Brought To You By - Ian **DNU AFTER 09/22**                                                                           150                                
PGRFAMCHA011102060708063045002337Little Lulu Show; The                             The Beast in the Clubhouse, Gone Finshin', Out, Ou            B20187A1065607ECC                              
ID FAMCHA011102063045063050000005Generic ID - Couch 1*                                                                                                       150                                
PROFAMCHA011102063050063110000020Hoze Houndz (AUG2001) - Today @ 11:35am                                                                                     150                                
PROFAMCHA011102063110063130000020Disney's One, Too (AUG2001) - Today @ 4pm                                                                                   150                                
PRCFAMCHA011102063130063140000010Morning Block menu background (flex time)                                                                                   150                                
ID FAMCHA011102063140063200000020Morning block open play pen                                                                                                 150                                
PROFAMCHA011102063200063208000008CC Is Brought To You By - Lark **DNU AFTER 09/22**                                                                          150                                
PGRFAMCHA011102063208065335002127ALF                                               Something Wrong With Me                                             A2068807BCC                              
ID FAMCHA011102065335065340000005Generic ID - Couch 2*                                                                                                       150                                
PROFAMCHA011102065340065410000030Mighty Ducks (AUG2001) - Tomorrow @ 7:30am                                                                                  150                                
PROFAMCHA011102065410065440000030Lizzie McGuire (AUG2001) - Coming Up                                                                                        150                                
PROFAMCHA011102065440065510000030Raw Toonage (AUG2001) - Tomorrow @ 3pm                                                                                      150                                
PROFAMCHA011102065510065540000030Shnookums & Meat (AUG2001) - Tomorrow @ 3:25pm                                                                              150                                
INTFAMCHA011102065540065847000307MV Disney - Part Of Your World (JODI BENSON)                                                                           60688120                                
PROFAMCHA011102065847065917000030Even Stevens (GUITAR) - Tonight @ 6pm                                                                                       150                                
PROFAMCHA011102065917065951000034Morning Madness (7AM BLOCK) - Coming Up                                                                                     150                                
ID FAMCHA011102065951070001000010xxMagic of Disney - V2(sky) - KID FEMALE                                                                                    150                                
PGRFAMCHA011102070001072236002235Lizzie McGuire                                    Come Fly With Me                                                    A6028607B                                
ID FAMCHA011102072236072246000010Generic ID - Family w/dog                                                                                                   150                                
PROFAMCHA011102072246072321000035Family's Monsters Inc. Contest - NOV 2 TO NOV 23                                                                            150                                
PRCFAMCHA011102072321072335000014Franklin (AUG2001) - Leaf - Coming Up                                                                                       150                                
PROFAMCHA011102072335072403000028Art Attack (SCOTSMAN) - Today @ 8am                                                                                         150                                
ID FAMCHA011102072403072413000010Silly Stories Teaser - Female                                                                                               150                                
PROFAMCHA011102072413072419000006Little Lulu (AUG2001) - Lulu - Today @ 8:20am                                                                               150                                
ID FAMCHA011102072419072453000034Silly Stories - Bouncy Bed                                                                                                  150                                
INTFAMCHA011102072453072919000426MV Disney - Love Will Find A Way (KENNY LATIMORE/H                                                                     60688120                                
PRCFAMCHA011102072919072930000011Elmo's World Bumper - Tricycle - This Morning                                                                               150                                
PRCFAMCHA011102072930072940000010Morning Block menu background (flex time)                                                                                   150                                
ID FAMCHA011102072940073000000020Morning block open play pen                                                                                                 150                                
PROFAMCHA011102073000073008000008CC Is Brought To You By - Ian **DNU AFTER 09/22**                                                                           150                                
PGRFAMCHA011102073008075301002253Franklin                                          Franklin Goes To School/Franklin Is Lost                      B10182A1065607ECC                              
ID FAMCHA011102075301075308000007Generic ID - Whisper*                                                                                                       150                                
PROFAMCHA011102075308075336000028Art Attack (SCOTSMAN) - Coming Up                                                                                           150                                
PROFAMCHA011102075336075411000035Family's Monsters Inc. Contest - NOV 2 TO NOV 23                                                                            150                                
PROFAMCHA011102075411075417000006Little Lulu (AUG2001) - Lulu - Today @ 8:20am                                                                               150                                
ID FAMCHA011102075417075427000010Silly Stories Teaser - Male                                                                                                 150                                
PRCFAMCHA011102075427075438000011Elmo's World Bumper - Tricycle - This Morning                                                                               150                                
ID FAMCHA011102075438075507000029Silly Stories - COLD Story                                                                                                  150                                
INTFAMCHA011102075507075930000423Art Attack - Swimmer                                                                                                   60686120                                
PROFAMCHA011102075930075950000020Book of Pooh - This Morning                                                                                                 150                                
PROFAMCHA011102075950080000000010Preschool Line-Up -06- ART/LULU/ELMO                                                                                        150                                
PGRFAMCHA011102080000082006002006Art Attack                                        1-104                                                                60686110                                
ID FAMCHA011102082006082011000005Astral 40th Anniversary Logo                                                                                                150                                
ID FAMCHA011102082011082018000007Generic ID - Whisper*                                                                                                       150                                
PROFAMCHA011102082018082024000006Little Lulu (AUG2001) - Lulu - Coming Up                                                                                    150                                
PROFAMCHA011102082024082050000026DuckTales (CLIP) - Today @ 11:10am                                                                                          150                                
PROFAMCHA011102082050082100000010Preschool Line-Up -07- LULU/ELMO/BOP                                                                                        150                                
PROFAMCHA011102082100082108000008CC Is Brought To You By - Lark **DNU AFTER 09/22**                                                                          150                                
PGRFAMCHA011102082108084439002331Little Lulu Show; The                             Iggy and the Ice Cream Factory, Game Show Gaffe, A            B20198A1065607ECC                              
ID FAMCHA011102084439084444000005Generic ID - Marbles                                                                                                        150                                
PRCFAMCHA011102084444084455000011Elmo's World Bumper - Tricycle - Coming Up                                                                                  150                                
PROFAMCHA011102084455084530000035Family's Monsters Inc. Contest - NOV 2 TO NOV 23                                                                            150                                
PROFAMCHA011102084530084550000020Book of Pooh - This Morning                                                                                                 150                                
PROFAMCHA011102084550084600000010Preschool Line-Up -08- ELMO/BOP/PB&J                                                                                        150                                
PGRFAMCHA011102084600090127001527Elmo's World                                      Farms                                                               A2068607G                                
ID FAMCHA011102090127090132000005Astral 40th Anniversary Logo                                                                                                150                                
ID FAMCHA011102090132090139000007Generic ID - Whisper*                                                                                                       150                                
PROFAMCHA011102090139090159000020Book of Pooh - Coming Up                                                                                                    150                                
PROFAMCHA011102090159090208000009PB&J Otter (AUG2001) - Open - Today @ 9:30am                                                                                150                                
INTFAMCHA011102090208090423000215Disney Circle Time - Endless Story (anywhere but D                                                                     60688120                                
PROFAMCHA011102090423090440000017Katie and Orbie (OCT2001) - Today @ 9:55am                                                                                  150                                
PROFAMCHA011102090440090450000010Preschool Line-Up -09- BOP/PB&J/KATIE                                                                                       150                                
ID FAMCHA011102090450090500000010xxMagic of Disney - V2(sky) - KID MALE                                                                                      150                                
PGRFAMCHA011102090500092902002402Book Of Pooh; The                                 Bee-Friended/Nightmare                                               6068607G                                
ID FAMCHA011102092902092912000010Generic ID - Ring around the rosie                                                                                          150                                
PROFAMCHA011102092912092921000009PB&J Otter (AUG2001) - Open - Coming Up                                                                                     150                                
PROFAMCHA011102092921092949000028Art Attack (SCOTSMAN) - Weekdays @ 8am                                                                                      150                                
PROFAMCHA011102092949092959000010Preschool Line-Up -10- PB&J/KATIE/WTP                                                                                       150                                
PROFAMCHA011102092959093008000009CC Is Brought To You By - Ian                                                                                               150                                
PGRFAMCHA011102093008095338002330PB&J Otter                                        Sgt. Gravel To The Rescue/Sleepy Head                               A6068607ECC                              
ID FAMCHA011102095338095343000005Astral 40th Anniversary Logo                                                                                                150                                
ID FAMCHA011102095343095353000010Generic ID - Family w/dog                                                                                                   150                                
PROFAMCHA011102095353095410000017Katie and Orbie (OCT2001) - Coming Up                                                                                       150                                
PROFAMCHA011102095410095425000015New Adv of WTP (AUG2001) - Poem - Today @ 10:20am                                                                           150                                
PRCFAMCHA011102095425095435000010Elmo's World Bumper - Dance - This Afternoon                                                                                150                                
PROFAMCHA011102095435095450000015Out of the Box - Today @ 10:45am                                                                                            150                                
PROFAMCHA011102095450095500000010Preschool Line-Up -11- KATIE/WTP/OOTB                                                                                       150                                
PROFAMCHA011102095500095508000008CC Is Brought To You By - Lark **DNU AFTER 09/22**                                                                          150                                
PGRFAMCHA011102095508102143002635Katie And Orbie                                   New Year's Eve/Kyra/T-Ball                                    C11896A1065607ECC                              
ID FAMCHA011102102143102149000006Generic ID - soccer                                                                                                         150                                
PROFAMCHA011102102149102204000015New Adv of WTP (AUG2001) - Poem - Coming Up                                                                                 150                                
PROFAMCHA011102102204102230000026DuckTales (CLIP) - Today @ 11:10am                                                                                          150                                
PRCFAMCHA011102102230102240000010Elmo's World Bumper - Dance - This Afternoon                                                                                150                                
PROFAMCHA011102102240102250000010Preschool Line-Up -12- WTP/OOTB/DUCKTALES                                                                                   150                                
ID FAMCHA011102102250102300000010xxMagic of Disney - V3(water) - KID FEMALE                                                                                  150                                
PROFAMCHA011102102300102308000008CC Is Brought To You By - Ian **DNU AFTER 09/22**                                                                           150                                
PGRFAMCHA011102102308104626002318New Adventures of Winnie the Pooh; The            A Very, Very Large Animal/Fish Out Of...                             6068607ECC                              
ID FAMCHA011102104626104631000005Astral 40th Anniversary Logo                                                                                                150                                
ID FAMCHA011102104631104636000005Generic ID - Fingerpaint                                                                                                    150                                
PROFAMCHA011102104636104651000015Out of the Box - Coming Up                                                                                                  150                                
PROFAMCHA011102104651104701000010Preschool Line-Up -13- OOTB/DUCKTALES/HOZE                                                                                  150                                
PGRFAMCHA011102104701111102002401Out of the Box                                    Making Mistakes                                                     A6068607A                                
ID FAMCHA011102111102111107000005Generic ID - Couch 1*                                                                                                       150                                
PROFAMCHA011102111107111117000010Preschool Line-Up -14- DUCKTALES/HOZE/LULU                                                                                  150                                
PROFAMCHA011102111117111125000008CC Is Brought To You By - Lark **DNU AFTER 09/22**                                                                          150                                
PGRFAMCHA011102111125113408002243Disney's DuckTales                                The Unbreakable Bin                                                 A6068607ECC                              
ID FAMCHA011102113408113413000005Astral 40th Anniversary Logo                                                                                                150                                
ID FAMCHA011102113413113418000005Generic ID - Bubbles*                                                                                                       150                                
PROFAMCHA011102113418113438000020Hoze Houndz (AUG2001) - Coming Up                                                                                           150                                
PROFAMCHA011102113438113450000012New Adv of WTP (AUG2001) - Blustery - Today @ 2:25                                                                          150                                
PROFAMCHA011102113450113500000010Preschool Line-Up -15- HOZE/LULU/FRANKLIN                                                                                   150                                
PROFAMCHA011102113500113508000008CC Is Brought To You By - Ian **DNU AFTER 09/22**                                                                           150                                
PGRFAMCHA011102113508115743002235Hoze Houndz                                       Little Green Men From Planet Ten/Hozer The Hero               B34014A1065607ECC                              
ID FAMCHA011102115743115758000015Generic ID - confetti                                                                                                       150                                
PROFAMCHA011102115758115804000006Little Lulu (AUG2001) - Lulu - Coming Up                                                                                    150                                
PROFAMCHA011102115804115851000047DuckTales (AUG2001) - Today @ 3:10pm                                                                                        150                                
PROFAMCHA011102115851115901000010Preschool Line-Up -16- LULU/FRANKLIN/ELMO                                                                                   150                                
PROFAMCHA011102115901115908000007CC Is Brought To You By - Lark                                                                                              150                                
PGRFAMCHA011102115908122243002335Little Lulu Show; The                             Order in the Court, Maybe Use Sugar, Road Trip                B20199A1065607ECC                              
ID FAMCHA011102122243122248000005Astral 40th Anniversary Logo                                                                                                150                                
ID FAMCHA011102122248122258000010Generic ID - confetti                                                                                                       150                                
PRCFAMCHA011102122258122312000014Franklin (AUG2001) - Leaf - Coming Up                                                                                       150                                
PROFAMCHA011102122312122330000018Book of Pooh - This Afternoon                                                                                               150                                
PROFAMCHA011102122330122350000020Hoze Houndz (AUG2001) - Today @ 3:35pm                                                                                      150                                
PROFAMCHA011102122350122400000010Preschool Line-Up -17- FRANKLIN/ELMO/BOP                                                                                    150                                
PROFAMCHA011102122400122408000008CC Is Brought To You By - Ian **DNU AFTER 09/22**                                                                           150                                
PGRFAMCHA011102122408124701002253Franklin                                          Franklin Has A Sleepover/Franklin's Halloween                 B10183A1065607ECC                              
ID FAMCHA011102124701124707000006Generic ID - soccer                                                                                                         150                                
PRCFAMCHA011102124707124718000011Elmo's World Bumper - Tricycle - Coming Up                                                                                  150                                
PROFAMCHA011102124718124735000017Katie and Orbie (OCT2001) - Today @ 1:55pm                                                                                  150                                
PROFAMCHA011102124735124750000015Out of the Box - Today @ 2:45pm                                                                                             150                                
PROFAMCHA011102124750124800000010Preschool Line-Up -18- ELMO/BOP/PB&J                                                                                        150                                
PGRFAMCHA011102124800130537001737Elmo's World                                      Telephone                                                           A2068607G                                
ID FAMCHA011102130537130542000005Astral 40th Anniversary Logo                                                                                                150                                
ID FAMCHA011102130542130548000006Generic ID - soccer                                                                                                         150                                
PROFAMCHA011102130548130608000020Book of Pooh - Coming Up                                                                                                    150                                
PROFAMCHA011102130608130623000015Out of the Box - Today @ 2:45pm                                                                                             150                                
PROFAMCHA011102130623130640000017Katie and Orbie (OCT2001) - Today @ 1:55pm                                                                                  150                                
PROFAMCHA011102130640130650000010Preschool Line-Up -19- BOP/PB&J/KATIE                                                                                       150                                
ID FAMCHA011102130650130700000010xxMagic of Disney - V3(water) - TEEN MALE                                                                                   150                                
PGRFAMCHA011102130700133102002402Book Of Pooh; The                                 A Win Won Situation/Best Wishes, Winnie The Pooh                     6068607G                                
ID FAMCHA011102133102133107000005Generic ID - Bubbles*                                                                                                       150                                
PROFAMCHA011102133107133116000009PB&J Otter (AUG2001) - Open - Coming Up                                                                                     150                                
PROFAMCHA011102133116133142000026DuckTales (CLIP) - Today @ 3:10pm                                                                                           150                                
PRCFAMCHA011102133142133150000008Franklin (AUG2001) - Slide - Tomorrow @ 6:15pm                                                                              150                                
PROFAMCHA011102133150133200000010Preschool Line-Up -20- PB&J/KATIE/WTP                                                                                       150                                
PROFAMCHA011102133200133208000008CC Is Brought To You By - Lark **DNU AFTER 09/22**                                                                          150                                
PGRFAMCHA011102133208135538002330PB&J Otter                                        Watchbird Alert!/Flick's Hat                                        A6068607ECC                              
ID FAMCHA011102135538135543000005Astral 40th Anniversary Logo                                                                                                150                                
ID FAMCHA011102135543135548000005Generic ID - Fingerpaint                                                                                                    150                                
PROFAMCHA011102135548135605000017Katie and Orbie (OCT2001) - Coming Up                                                                                       150                                
PROFAMCHA011102135605135620000015Out of the Box - Today @ 2:45pm                                                                                             150                                
PROFAMCHA011102135620135650000030Pepper Ann (MARCH2001) - Today @ 4:30pm                                                                                     150                                
PROFAMCHA011102135650135700000010Preschool Line-Up -21- KATIE/WTP/OOTB                                                                                       150                                
PROFAMCHA011102135700135708000008CC Is Brought To You By - Ian **DNU AFTER 09/22**                                                                           150                                
PGRFAMCHA011102135708142343002635Katie And Orbie                                   Too Spooky For Me!/Nobody's Perfect/Two Fathers               C11896A1065607ECC                              
ID FAMCHA011102142343142353000010Generic ID - Hula Hoop                                                                                                      150                                
PROFAMCHA011102142353142405000012New Adv of WTP (AUG2001) - Blustery - Coming Up                                                                             150                                
PROFAMCHA011102142405142420000015Out of the Box - Today @ 2:45pm                                                                                             150                                
PROFAMCHA011102142420142440000020Hoze Houndz (AUG2001) - Today @ 3:35pm                                                                                      150                                
