PGRFAMCHA040201043000045337002253Franklin                                          Franklin's Fortune Teller/Franklin's Cellar                   B36666A1065607ECC                              
SO FAMCHA040201043000043011000011Sign On (oct 1)                                                                                                                                                
PROFAMCHA040201043011043020000009CC Disclaimer - FAST - Family (:08-:10)                                                                                     150                                
PROFAMCHA040201045313045327000014Nnstp Wknd - 01(PH) - WTP/KATIE/FRANKLIN (:14-:16)                                                                          150                                
ID FAMCHA040201045327045337000010PS Playhouse AM Block Open (:10-:15)                                                                                        150                                
PROFAMCHA040201045337045346000009CC Disclaimer - FAST - Family.ca (:08-:10)                                                                                  150                                
PGRFAMCHA040201045337051700002246New Adventures of Winnie the Pooh; The            Luck Amok/The Magic Earmuffs                                         6068607ECC                              
PROFAMCHA040201051632051648000016Nnstp Wknd - 02(PH) - KATIE/FRANKLIN/RIPLEY (:14-:                                                                          150                                
ID FAMCHA040201051648051700000012PS Playhouse AM Block Open (:10-:15)                                                                                        150                                
PROFAMCHA040201051700051710000010CC Disclaimer - FAST - Generic (:08-:10)                                                                                    150                                
PGRFAMCHA040201051700054412002638Katie And Orbie                                   Tom's Pool Party/Dancing Fairies/Peehew                       C19664A1065607ECC                              
PROFAMCHA040201054348054402000014Nnstp Wknd - 03(PH) - FRANKLIN/RIPLEY/PRWF (:14-:1                                                                          150                                
ID FAMCHA040201054402054412000010PS Playhouse AM Block Open (:10-:15)                                                                                        150                                
PROFAMCHA040201054412054421000009CC Disclaimer - FAST - Family (:08-:10)                                                                                     150                                
PGRFAMCHA040201054412060800002253Franklin                                          Franklin Plants a Tree/Franklin and Hero                      B36667A1065607ECC                              
PROFAMCHA040201060714060730000016Nnstp Wknd - 04(PH/SEP) - RIPLEY/PRWF/NINJA (:14-:                                                                          150                                
PRCFAMCHA040201060730060749000019Playhouse - HOZE HOUNDZ - Code Blue                                                                                         150                                
ID FAMCHA040201060749060800000011PS Playhouse AM Block Open (:10-:15)                                                                                        150                                
PROFAMCHA040201060800060809000009CC Disclaimer - FAST - Family.ca (:08-:10)                                                                                  150                                
PGRFAMCHA040201060800063305002430Ripley's Believe It Or Not!                       The Golden Passport                                           B71309 1065607ECC                              
PROFAMCHA040201063239063253000014Nnstp Wknd - 05(PB/SEP) - PRWF/NINJA/KING (:14-:16                                                                          150                                
ID FAMCHA040201063253063305000012Power Box Block Open (:12-:15)                                                                                              150                                
PGRFAMCHA040201063305070000002057Power Rangers Wild Force                          Soul Searching                                                      A6068607E                                
PROFAMCHA040201065402065418000016Nnstp Wknd - 06(PB/SEP) - NINJA/KING/LIZZIE (:14-:                                                                          150                                
PRCFAMCHA040201065418065448000030Romantic Combo - Every Night Starting Feb 9 @ 9pm                                                                           150                                
PRCFAMCHA040201065448065518000030King (FRIENDS) - Today @ 7:30am                                                                                             150                                
INTFAMCHA040201065518065846000328Art Attack - Hockey (WINTER)                                                                                           60686130                                
PROFAMCHA040201065846065920000034xxLizzie McGuire - GROWN UP (NSW-AM) - Today @ 8am                                                                          150                                
PROFAMCHA040201065920065945000025Jack (PP) - Premiering February 6 @ 7:30pm                                                                                  150                                
ID FAMCHA040201065945070000000015Power Box Block Open (:12-:15)                                                                                              150                                
PGRFAMCHA040201070000073000002124Power Rangers Ninja Storm                         Thunder Strangers, Part 1                                           A6068607E                                
PROFAMCHA040201072124072140000016Nnstp Wknd - 07(SEP) - KING/LIZZIE/AMANDA (:14-:16                                                                          150                                
PROFAMCHA040201072140072205000025Jack (PP) - Premiering February 6 @ 7:30pm                                                                                  150                                
PRCFAMCHA040201072205072235000030King (FRIENDS) - Coming Up                                                                                                  150                                
PROFAMCHA040201072235072305000030Amanda Show - FACES - Today @ 8:30am - NSW                                                                                  150                                
INTFAMCHA040201072305072435000130Klootz - Espace 05                                                                                                    A10658120                                
PRCFAMCHA040201072435072505000030Family Birthday Club #1 - ONGOING (1)                                                                                       150                                
PROFAMCHA040201072505072515000010FAMJAM - Open                                                                                                               150                                
INTFAMCHA040201072515072826000311MV Disney - Grazing In The Grass (Raven)                                                                               60688130                                
PROFAMCHA040201072826072840000014FAMJAM - Close (EMAIL)                                                                                                      150                                
PROFAMCHA040201072840072914000034xxLizzie McGuire - GROWN UP (NSW-AM) - Today @ 8am                                                                          150                                
PRCFAMCHA040201072914072944000030Romantic Combo - Every Night Starting Feb 9 @ 9pm                                                                           150                                
ID FAMCHA040201072944073000000016Nonstop Weekend Block Open (:14-:17)                                                                                        150                                
PROFAMCHA040201073000073010000010CC Disclaimer - FAST - Generic (:08-:10)                                                                                    150                                
PGRFAMCHA040201073000080002002230King                                              Very Big Faces                                                A75763A1065607ECC                              
PROFAMCHA040201075240075254000014Nnstp Wknd - 08 - LIZZIE/AMANDA/ALL (:14-:16)                                                                               150                                
PRCFAMCHA040201075254075324000030Romantic Combo - Every Night Starting Feb 9 @ 9pm                                                                           150                                
PROFAMCHA040201075324075358000034xxLizzie McGuire - GROWN UP (NSW-AM) - Coming Up                                                                            150                                
PROFAMCHA040201075358075428000030Amanda Show - FACES - Today @ 8:30am - NSW                                                                                  150                                
PROFAMCHA040201075428075438000010FAMJAM - Open                                                                                                               150                                
INTFAMCHA040201075438075809000331MV Disney - So Yesterday (HILARY DUFF)                                                                                 60688130                                
PROFAMCHA040201075809075823000014FAMJAM - Close (WEB)                                                                                                        150                                
PRCFAMCHA040201075823075853000030Family Birthday Club #2 - ONGOING (1)                                                                                       150                                
PROFAMCHA040201075853075923000030All That - HEAR THAT? - NSW - Today @ 9am                                                                                   150                                
PROFAMCHA040201075923075948000025Jack (PP) - Premiering February 6 @ 7:30pm                                                                                  150                                
ID FAMCHA040201075948080002000014Nonstop Weekend Block Open (:14-:17)                                                                                        150                                
PGRFAMCHA040201080002083000002231Lizzie McGuire                                    Just Like Lizzie                                                    A6068607BCC                              
ID FAMCHA040201080002080010000008Magic of Disney - NS/NSW/PB - Shape (:06-:09)                                                                               150                                
PROFAMCHA040201080010080019000009CC Disclaimer - FAST - Family (:08-:10)                                                                                     150                                
PROFAMCHA040201082250082306000016Nnstp Wknd - 09 - AMANDA/ALL/EVEN (:14-:16)                                                                                 150                                
PROFAMCHA040201082306082331000025Jack (PP) - Premiering February 6 @ 7:30pm                                                                                  150                                
PROFAMCHA040201082331082401000030Amanda Show - FACES - Coming Up - NSW                                                                                       150                                
INTFAMCHA040201082401082459000058Gagsters - Flying Fries                                                                                               A20682120                                
PRCFAMCHA040201082459082544000045Radio Free Roscoe Contest                                                                                                   150                                
INTFAMCHA040201082544082714000130Movie Surfers Teachers Pet                                                                                             60288130                                
PROFAMCHA040201082714082744000030All That - HEAR THAT? - NSW - Today @ 9am                                                                                   150                                
INTFAMCHA040201082744082914000130Movie Surfers Young Black Stallion                                                                                     60288130                                
PRCFAMCHA040201082914082944000030Romantic Combo - Every Night Starting Feb 9 @ 9pm                                                                           150                                
ID FAMCHA040201082944083000000016Nonstop Weekend Block Open (:14-:17)                                                                                        150                                
PGRFAMCHA040201083000090002002416Amanda Show; The                                                                                                      A20686090                                
PROFAMCHA040201085416085431000015Nnstp Wknd - 10 - ALL/EVEN/RAVEN (:14-:16)                                                                                  150                                
PROFAMCHA040201085431085518000047Groundhog Day - WDP - Today @ 1:40pm                                                                                        150                                
PROFAMCHA040201085518085548000030All That - HEAR THAT? - NSW - Coming Up                                                                                     150                                
PRCFAMCHA040201085548085633000045Snow Days Contest - Version 1 (Jan 26 - Feb 1)                                                                              150                                
INTFAMCHA040201085633085851000218Art Attack - Windmill                                                                                                  60688130                                
INTFAMCHA040201085851085916000025Harrisons; The - New - Food In Face                                                                                   A10626120                                
PRCFAMCHA040201085916085946000030Romantic Combo - Every Night Starting Feb 9 @ 9pm                                                                           150                                
ID FAMCHA040201085946090002000016Nonstop Weekend Block Open (:14-:17)                                                                                        150                                
PGRFAMCHA040201090002092902002421All That                                                                                                              A20686090                                
PROFAMCHA040201092423092438000015Nnstp Wknd - 11 - EVEN/RAVEN/BMW (:14-:16)                                                                                  150                                
PROFAMCHA040201092438092525000047Groundhog Day - WDP - Today @ 1:40pm                                                                                        150                                
PROFAMCHA040201092525092550000025Even Stevens (SIBLINGS) - Coming Up (NSW)                                                                                   150                                
INTFAMCHA040201092550092641000051Harrisons; The - New - Lawnmower                                                                                      A10626120                                
PROFAMCHA040201092641092711000030That's So Raven (GOOD LIFE) - Today @ 9:55am - NSW                                                                          150                                
INTFAMCHA040201092711092733000022Harrisons; The - New - Phone Cord Fall                                                                                A10626120                                
PRCFAMCHA040201092733092818000045Radio Free Roscoe Contest                                                                                                   150                                
PRCFAMCHA040201092818092848000030Romantic Combo - Every Night Starting Feb 9 @ 9pm                                                                           150                                
ID FAMCHA040201092848092902000014Nonstop Weekend Block Open (:14-:17)                                                                                        150                                
PGRFAMCHA040201092902095502002229Even Stevens                                      Band On The Roof                                                    A6068807BCC                              
ID FAMCHA040201092902092910000008Magic of Disney - NS/NSW/PB - Wipe (:06-:09)                                                                                150                                
PROFAMCHA040201092910092919000009CC Disclaimer - FAST - Family.ca (:08-:10)                                                                                  150                                
PROFAMCHA040201095148095204000016Nnstp Wknd - 12 - RAVEN/BMW/SMART (:14-:16)                                                                                 150                                
PROFAMCHA040201095204095251000047Groundhog Day - WDP - Today @ 1:40pm                                                                                        150                                
PROFAMCHA040201095251095321000030That's So Raven (GOOD LIFE) - Coming Up - NSW                                                                               150                                
PRCFAMCHA040201095321095406000045Snow Days Contest - Version 1 (Jan 26 - Feb 1)                                                                              150                                
INTFAMCHA040201095406095431000025Harrisons; The - New - Stuff Through Window                                                                           A10626120                                
PRCFAMCHA040201095431095448000017Radio Free Roscoe - Webthrow (Question Mark)                                                                                150                                
ID FAMCHA040201095448095502000014Nonstop Weekend Block Open (:14-:17)                                                                                        150                                
PGRFAMCHA040201095502102000002225That's So Raven                                   EPS # 1-032                                                         A6068807B                                
PROFAMCHA040201101727101743000016Nnstp Wknd - 13 - BMW/SMART/TEEN (:14-:16)                                                                                  150                                
PROFAMCHA040201101743101830000047Groundhog Day - WDP - Today @ 1:40pm                                                                                        150                                
PRCFAMCHA040201101830101915000045Radio Free Roscoe Contest                                                                                                   150                                
PRCFAMCHA040201101915101945000030Romantic Combo - Every Night Starting Feb 9 @ 9pm                                                                           150                                
ID FAMCHA040201101945102000000015Nonstop Weekend Block Open (:14-:17)                                                                                        150                                
PGRFAMCHA040201102000104500002220Boy Meets World                                   The Thrilla In Phila                                                B6068807BCC                              
PROFAMCHA040201102000102010000010CC Disclaimer - FAST - Generic (:08-:10)                                                                                    150                                
PROFAMCHA040201104230104246000016Nnstp Wknd - 14 - SMART/TEEN/WISH (:14-:16)                                                                                 150                                
PROFAMCHA040201104246104333000047Groundhog Day - WDP - Today @ 1:40pm                                                                                        150                                
PRCFAMCHA040201104333104418000045Snow Days Contest - Version 1 (Jan 26 - Feb 1)                                                                              150                                
PROFAMCHA040201104418104443000025Jack (PP) - Premiering February 6 @ 7:30pm                                                                                  150                                
ID FAMCHA040201104443104500000017Nonstop Weekend Block Open (:14-:17)                                                                                        150                                
PROFAMCHA040201104500104509000009CC Disclaimer - FAST - Family (:08-:10)                                                                                     150                                
PGRFAMCHA040201104500111004002225Smart Guy                                         Brother, Brother                                                    A6068807BCC                              
PROFAMCHA040201110734110748000014Nnstp Wknd - 15 - TEEN/WISH (:14-:16)                                                                                       150                                
PROFAMCHA040201110748110835000047Groundhog Day - WDP - Today @ 1:40pm                                                                                        150                                
PRCFAMCHA040201110835110920000045Snow Days Contest - Version 1 (Jan 26 - Feb 1)                                                                              150                                
PRCFAMCHA040201110920110950000030Romantic Combo - Every Night Starting Feb 9 @ 9pm                                                                           150                                
ID FAMCHA040201110950111004000014Nonstop Weekend Block Open (:14-:17)                                                                                        150                                
PROFAMCHA040201111004111013000009CC Disclaimer - FAST - Family.ca (:08-:10)                                                                                  150                                
PGRFAMCHA040201111004113500002120Teen Angel                                        Honest Abe and Popular Steve                                        A6068807BCC                              
PROFAMCHA040201113133113149000016Nnstp Wknd - 16 - WISH (:14-:16)                                                                                            150                                
PROFAMCHA040201113149113236000047Groundhog Day - WDP - Today @ 1:40pm                                                                                        150                                
PRCFAMCHA040201113236113306000030Weekend Double Pix Promo (ACTION) - Today, Startin                                                                          150                                
PRCFAMCHA040201113306113351000045Radio Free Roscoe Contest                                                                                                   150                                
PROFAMCHA040201113351113421000030Lilo & Stitch - Today @ 3:25pm (NSW)                                                                                        150                                
PROFAMCHA040201113421113446000025Jack (PP) - Premiering February 6 @ 7:30pm                                                                                  150                                
ID FAMCHA040201113446113500000014Nonstop Weekend Block Open (:14-:17)                                                                                        150                                
PROFAMCHA040201113500113510000010CC Disclaimer - FAST - Generic (:08-:10)                                                                                    150                                
PGRFAMCHA040201113500120000002143You Wish                                          Halloween                                                           A6068807BCC                              
PROFAMCHA040201115653115707000014Nnstp Wknd - 17(SEP) - WDP MOVIE (:14-:16)                                                                                  150                                
PROFAMCHA040201115707115754000047Groundhog Day - WDP - Today @ 1:40pm                                                                                        150                                
PROFAMCHA040201115754115812000018That's So Raven (FALL 2003) - Today @ 5:30pm                                                                                150                                
PRCFAMCHA040201115812115857000045Snow Days Contest - Version 1 (Jan 26 - Feb 1)                                                                              150                                
PRCFAMCHA040201115857115917000020Radio Free Roscoe - Webthrow (Shady Lane)                                                                                   150                                
PRCFAMCHA040201115917115947000030Romantic Combo - Every Night Starting Feb 9 @ 9pm                                                                           150                                
ID FAMCHA040201115947120000000013Weekend Double Pix Movie Open (:13-:17)                                                                                     150                                
ID FAMCHA040201120000120009000009Rating - PG - Ian (:08-:10)                                                                                                 150                                
PGRFAMCHA040201120000133340013208Theodore Rex                                      Theodore Rex                                                        B2068807ECC                              
PROFAMCHA040201120009120018000009CC Disclaimer - FAST - Family (:08-:10)                                                                                     150                                
PROFAMCHA040201133226133240000014Nnstp Wknd - 17(SEP) - WDP MOVIE (:14-:16)                                                                                  150                                
PROFAMCHA040201133240133327000047Groundhog Day - WDP - Coming Up                                                                                             150                                
ID FAMCHA040201133327133340000013Weekend Double Pix Movie Open (:13-:17)                                                                                     150                                
PGRFAMCHA040201133340151512014100Groundhog Day                                                                                                         B2068807DCC                              
ID FAMCHA040201133340133349000009Rating - PG - Ian (:08-:10)                                                                                                 150                                
PROFAMCHA040201133349133358000009CC Disclaimer - FAST - Family.ca (:08-:10)                                                                                  150                                
ID FAMCHA040201151458151512000014Nonstop Weekend Block Open (:14-:17)                                                                                        150                                
PGRFAMCHA040201151512152851001311Brother Bear: Academy Special                                                                                         A60288110                                
PROFAMCHA040201152823152837000014Nnstp Wknd - 19 - LILO/PROUD/FILLMORE (NOV2) (:14-                                                                          150                                
ID FAMCHA040201152837152851000014Nonstop Weekend Block Open (:14-:17)                                                                                        150                                
PGRFAMCHA040201152851155159002240Disney's Lilo & Stitch: The Series                EPS # 15                                                            A6068207E                                
PROFAMCHA040201155131155145000014Nnstp Wknd - 20 - PROUD/FILLMORE/KIM (:14-:16)                                                                              150                                
ID FAMCHA040201155145155159000014Nonstop Weekend Block Open (:14-:17)                                                                                        150                                
PGRFAMCHA040201155159161600002233Proud Family; The                                 EPS # 2-026                                                         A6068807E                                
PROFAMCHA040201161432161448000016Nnstp Wknd - 21 - FILLMORE/KIM/LIZZIE (:14-:16)                                                                             150                                
PRCFAMCHA040201161448161518000030Romantic Combo - Every Night Starting Feb 9 @ 9pm                                                                           150                                
PROFAMCHA040201161518161543000025Jack (PP) - Premiering February 6 @ 7:30pm                                                                                  150                                
ID FAMCHA040201161543161600000017Nonstop Weekend Block Open (:14-:17)                                                                                        150                                
PGRFAMCHA040201161600164100002240Disney's Fillmore!                                EPS # 1-012                                                         A6068607E                                
PROFAMCHA040201163840163856000016Nnstp Wknd - 22 - KIM/LIZZIE/RAVEN (:14-:16)                                                                                150                                
PROFAMCHA040201163856163921000025Jack (PP) - Premiering February 6 @ 7:30pm                                                                                  150                                
PROFAMCHA040201163921163951000030Kim Possible (NOV2003) - Coming Up (NSW)                                                                                    150                                
INTFAMCHA040201163951164015000024Harrisons; The - New - Talk Like This - Japanese v                                                                    A10626120                                
PRCFAMCHA040201164015164045000030Romantic Combo - Every Night Starting Feb 9 @ 9pm                                                                           150                                
ID FAMCHA040201164045164100000015Nonstop Weekend Block Open (:14-:17)                                                                                        150                                
PGRFAMCHA040201164100170600002252Disney's Kim Possible                             All The News                                                        A6068607E                                
PROFAMCHA040201170352170406000014Nnstp Wknd - 23(SUN) - LIZZIE/RAVEN/WISH (:14-:16)                                                                          150                                
PRCFAMCHA040201170406170436000030Romantic Combo - Every Night Starting Feb 9 @ 9pm                                                                           150                                
PROFAMCHA040201170436170510000034Lizzie McGuire - GROWN UP (NSW-PM) - Coming Up                                                                              150                                
PROFAMCHA040201170510170521000011Nonstop Weekend - LIZZIE MCGUIRE - Junk Food                                                                                150                                
PROFAMCHA040201170521170546000025Jack (PP) - Premiering February 6 @ 7:30pm                                                                                  150                                
ID FAMCHA040201170546170600000014Nonstop Weekend Block Open (:14-:17)                                                                                        150                                
PGRFAMCHA040201170600173100002231Lizzie McGuire                                    Lizzie In The Middle                                                A6068607BCC                              
ID FAMCHA040201170600170608000008Magic of Disney - NS/NSW/PB - Shape (:06-:09)                                                                               150                                
PROFAMCHA040201170608170618000010CC Disclaimer - FAST - Generic (:08-:10)                                                                                    150                                
PROFAMCHA040201172849172905000016Nnstp Wknd - 24(SUN) - RAVEN/WISH/HOZE (:14-:16)                                                                            150                                
PROFAMCHA040201172905172930000025Jack (PP) - Premiering February 6 @ 7:30pm                                                                                  150                                
PROFAMCHA040201172930173000000030That's So Raven (GOOD LIFE) - Coming Up - NSW                                                                               150                                
PRCFAMCHA040201173000173016000016Radio Free Roscoe - Webthrow (Smog)                                                                                         150                                
PRCFAMCHA040201173016173046000030Romantic Combo - Every Night Starting Feb 9 @ 9pm                                                                           150                                
ID FAMCHA040201173046173100000014Nonstop Weekend Block Open (:14-:17)                                                                                        150                                
PGRFAMCHA040201173100175600002240That's So Raven                                   EPS # 1-033                                                         A6068807B                                
PROFAMCHA040201175340175355000015Nnstp Wknd - 25(SUN/SEP) - WISH/HOZE/SOME (:14-:16                                                                          150                                
PRCFAMCHA040201175355175425000030Romantic Combo - Every Night Starting Feb 9 @ 9pm                                                                           150                                
PRCFAMCHA040201175425175455000030King (FRIENDS) - Tonight @ 7:35pm                                                                                           150                                
PRCFAMCHA040201175455175521000026Nonstop Weekend - TEAMO SUPREMO - On Our Way                                                                                150                                
PROFAMCHA040201175521175546000025Jack (PP) - Premiering February 6 @ 7:30pm                                                                                  150                                
ID FAMCHA040201175546175600000014Nonstop Weekend Block Open (:14-:17)                                                                                        150                                
PROFAMCHA040201175600175609000009CC Disclaimer - FAST - Family (:08-:10)                                                                                     150                                
PGRFAMCHA040201175600181957002121You Wish                                          Future Shock                                                        A6068807BCC                              
PROFAMCHA040201181730181746000016Nnstp Wknd - 26(SEP) - HOZE/SOME/FRANK (:14-:16)                                                                            150                                
PRCFAMCHA040201181746181816000030Hoze Houndz (GROCERIES - FALL 2003) - Coming Up (N                                                                          150                                
PRCFAMCHA040201181816181846000030King (FRIENDS) - Tonight @ 7:35pm                                                                                           150                                
PRCFAMCHA040201181846181916000030Nonstop Weekend - TEEN/WISH - Difference                                                                                    150                                
PRCFAMCHA040201181916181940000024Something Else (IS WELL) - Tonight @ 6:45pm                                                                                 150                                
ID FAMCHA040201181940181957000017Nonstop Weekend Block Open (:14-:17)                                                                                        150                                
PROFAMCHA040201181957182006000009CC Disclaimer - FAST - Family.ca (:08-:10)                                                                                  150                                
PGRFAMCHA040201181957184500002234Hoze Houndz                                       High Bred Hound/Hozer, I Shrunk the Houndz                    B17131A1065607ECC                              
PROFAMCHA040201184240184256000016Nnstp Wknd - 27(SEP) - SOME/FRANK/KING (:14-:16)                                                                            150                                
PRCFAMCHA040201184256184320000024Something Else (IS WELL) - Coming Up                                                                                        150                                
PRCFAMCHA040201184320184348000028Chip 'n Dale (FALL 2003) - Weekdays @ 11am                                                                                  150                                
PRCFAMCHA040201184348184412000024Nonstop Weekend - KIM POSSIBLE - Gadgets                                                                                    150                                
PRCFAMCHA040201184412184445000033Franklin (CANOE - FALL 2003) - Tonight @ 7:10pm                                                                             150                                
ID FAMCHA040201184445184500000015Nonstop Weekend Block Open (:14-:17)                                                                                        150                                
PROFAMCHA040201184500184510000010CC Disclaimer - FAST - Generic (:08-:10)                                                                                    150                                
PGRFAMCHA040201184500191000002231Something Else                                    Double Trouble/The Pretty Ones                                A69258A1065607ECC                              
PROFAMCHA040201190741190757000016Nnstp Wknd - 28(SEP) - FRANKLIN/KING/HONEY (:14-:1                                                                          150                                
PRCFAMCHA040201190757190830000033Franklin (CANOE - FALL 2003) - Coming Up (NSW)                                                                              150                                
PRCFAMCHA040201190830190914000044Nonstop Weekend - LIZZIE MCGUIRE - Fountain                                                                                 150                                
PRCFAMCHA040201190914190944000030King (FRIENDS) - Tonight @ 7:35pm                                                                                           150                                
ID FAMCHA040201190944191000000016Nonstop Weekend Block Open (:14-:17)                                                                                        150                                
PROFAMCHA040201191000191009000009CC Disclaimer - FAST - Family (:08-:10)                                                                                     150                                
PGRFAMCHA040201191000193500002253Franklin                                          Franklin In Two Places/Franklin's First Star                  A53206A1065607ECC                              
PROFAMCHA040201193302193318000016Nnstp Wknd - 29(SUN/SEP) - KING/HONEY/@MOV (:14-:1                                                                          150                                
PRCFAMCHA040201193318193348000030King (FRIENDS) - Coming Up                                                                                                  150                                
PRCFAMCHA040201193348193418000030Romantic Combo - Every Night Starting Feb 9 @ 9pm                                                                           150                                
PROFAMCHA040201193418193443000025Jack (PP) - Premiering February 6 @ 7:30pm                                                                                  150                                
ID FAMCHA040201193443193500000017Nonstop Weekend Block Open (:14-:17)                                                                                        150                                
PROFAMCHA040201193500193509000009CC Disclaimer - FAST - Family.ca (:08-:10)                                                                                  150                                
PGRFAMCHA040201193500200000002230King                                              Down In The Dark With the Yu-Yus                              A75764A1065607ECC                              
PROFAMCHA040201195739195755000016Nnstp Wknd - 30(SUN) - HONEY/@MOV/N-PIX1 (:14-:16)                                                                          150                                
PROFAMCHA040201195755195820000025Jack (PP) - Premiering February 6 @ 7:30pm                                                                                  150                                
PROFAMCHA040201195820195850000030Honey, I Shrunk The Kids (FALL 2003) - Coming Up                                                                            150                                
PRCFAMCHA040201195850195914000024Nonstop Weekend - EVEN STEVENS - Banned                                                                                     150                                
PRCFAMCHA040201195914195944000030Romantic Combo - Every Night Starting Feb 9 @ 9pm                                                                           150                                
ID FAMCHA040201195944200000000016Nonstop Weekend Block Open (:14-:17)                                                                                        150                                
PROFAMCHA040201200000200010000010CC Disclaimer - FAST - Generic (:08-:10)                                                                                    150                                
PGRFAMCHA040201200000210132004335Disney's Honey, I Shrunk The Kids: The TV Show    We're On TV                                                          6068807BCC                              
PROFAMCHA040201204345204359000014Nnstp Wknd - 31(SUN) - @MOVIES/N-PIX1 (:14-:16)                                                                             150                                
PRCFAMCHA040201204359204429000030Romantic Combo - Every Night Starting Feb 9 @ 9pm                                                                           150                                
PROFAMCHA040201204429204454000025Jack (PP) - Premiering February 6 @ 7:30pm                                                                                  150                                
ID FAMCHA040201204454204508000014Nonstop Weekend Block Open (:14-:17)                                                                                        150                                
PROFAMCHA040201210108210122000014Nightly Pix Line-up (SEPT) - GENERIC (:14-:16)                                                                              150                                
ID FAMCHA040201210122210132000010Nightly Pix Movie Open (:10-:15)                                                                                            150                                
PGRFAMCHA040201210132230108014235Paper Moon                                                                                                            B2068807D                                
ID FAMCHA040201210132210141000009Rating - PG - Ian (:08-:10)                                                                                                 150                                
PROFAMCHA040201224416224430000014Nnstp Wknd - 32(SUN) - @MOVIES/N-PIX2 (:14-:16)                                                                             150                                
ID FAMCHA040201224430224444000014Nonstop Weekend Block Open (:14-:17)                                                                                        150                                
PROFAMCHA040201230044230058000014Nightly Pix Line-up (SEPT) - GENERIC (:14-:16)                                                                              150                                
ID FAMCHA040201230058230108000010Nightly Pix Movie Open (:10-:15)                                                                                            150                                
ID FAMCHA040201230108230117000009Rating - PG - Ian (:08-:10)                                                                                                 150                                
PGRFAMCHA040201230108010003015818Way We Were; The                                                                                                      B2068807D                                
PROFAMCHA040201005935005949000014Nnstp Wknd - 33 - DARK/JETT (:14-:16)                                                                                       150                                
ID FAMCHA040201005949010003000014Nonstop Weekend Block Open (:14-:17)                                                                                        150                                
PGRFAMCHA040201010003012454002423Are You Afraid Of The Dark?                       The Tale of the Bookish Babysitter                            SR0304 1066807A                                
PROFAMCHA040201012426012440000014Nonstop - 10 - JETT (:14-:16)                                                                                               150                                
ID FAMCHA040201012440012454000014Nonstop Block Open (:14-:17)                                                                                                150                                
PROFAMCHA040201012454012503000009CC Disclaimer - SLOW - Family (:08-:10)                                                                                     150                                
PGRFAMCHA040201012454014936002433Famous Jett Jackson; The                          Ghost Dance                                                   B57116 1065607ACC                              
SO FAMCHA040201014936020136001200Sign Off                                                                                                                                                       
SO FAMCHA040201014936020136001200Sign Off                                                                                                                                                       
OFFFAMCHA040201020136043000022824OFF AIR                                                                                                                                                        
PGRFAMCHA040202043000045342002253Franklin                                          Franklin's Day Off/Franklin's Homemade Cookies                B36668A1065607ECC                              
SO FAMCHA040202043000043011000011Sign On (oct 1)                                                                                                                                                
PROFAMCHA040202043011043020000009CC Disclaimer - FAST - Family.ca (:08-:10)                                                                                  150                                
PROFAMCHA040202045313045329000016PS - 01(PH) - WTP/KATIE/FRANKLIN (:14-:16)                                                                                  150                                
ID FAMCHA040202045329045342000013PS Playhouse AM Block Open (:10-:15)                                                                                        150                                
PROFAMCHA040202045342045351000009CC Disclaimer - FAST - Family.ca (:08-:10)                                                                                  150                                
PGRFAMCHA040202045342051658002236New Adventures of Winnie the Pooh; The            Sorry, Wrong Slusher                                                 6068607ECC                              
PROFAMCHA040202051627051643000016PS - 02(PH) - KATIE/FRANKLIN/RIPLEY (:14-:16)                                                                               150                                
ID FAMCHA040202051643051658000015PS Playhouse AM Block Open (:10-:15)                                                                                        150                                
PROFAMCHA040202051658051707000009CC Disclaimer - FAST - Family.ca (:08-:10)                                                                                  150                                
PGRFAMCHA040202051658054415002638Katie And Orbie                                   Belkis/Pretty Like Polly/The Wallet                           C19664A1065607ECC                              
PROFAMCHA040202054345054401000016PS - 03(PH) - FRANKLIN/RIPLEY/HOZE (:14-:16)                                                                                150                                
ID FAMCHA040202054401054415000014PS Playhouse AM Block Open (:10-:15)                                                                                        150                                
PROFAMCHA040202054415054424000009CC Disclaimer - FAST - Family.ca (:08-:10)                                                                                  150                                
PGRFAMCHA040202054415060800002253Franklin                                          Franklin the Fabulous/Franklin Camps Out                      B36669A1065607ECC                              
PROFAMCHA040202060717060733000016PS - 04(PH) - RIPLEY/HOZE/KNIGHT (:14-:16)                                                                                  150                                
PRCFAMCHA040202060733060747000014Playhouse - HOZE HOUNDZ - Skater                                                                                            150                                
ID FAMCHA040202060747060800000013PS Playhouse AM Block Open (:10-:15)                                                                                        150                                
PROFAMCHA040202060800060809000009CC Disclaimer - FAST - Family.ca (:08-:10)                                                                                  150                                
PGRFAMCHA040202060800063500002428Ripley's Believe It Or Not!                       The Daruma Dolls                                              B21797 1065607ECC                              
PROFAMCHA040202063237063253000016PS - 05(PH) - HOZE/KNIGHT/PRLR (:14-:16)                                                                                    150                                
PRCFAMCHA040202063253063325000032Hoze Houndz (GROCERIES - FALL 2003) - Coming Up (P                                                                          150                                
PROFAMCHA040202063325063355000030Mon Colle Knights - Today @ 7am                                                                                             150                                
PRCFAMCHA040202063355063414000019Playhouse - FRANKLIN - Party                                                                                                150                                
PROFAMCHA040202063414063446000032Jojo's Circus - Today @ 9:45am                                                                                              150                                
ID FAMCHA040202063446063500000014PS Playhouse AM Block Open (:10-:15)                                                                                        150                                
PROFAMCHA040202063500063509000009CC Disclaimer - FAST - Family.ca (:08-:10)                                                                                  150                                
PGRFAMCHA040202063500070000002238Hoze Houndz                                       Deadline/Schnitzel Snafu                                      A63393A1065607ECC                              
PROFAMCHA040202065747065803000016PS - 06(PB) - KNIGHT/PRLR/GADGET (:14-:16)                                                                                  150                                
PROFAMCHA040202065803065833000030Mon Colle Knights - Coming Up                                                                                               150                                
PROFAMCHA040202065833065903000030Disney's 101 Dalmatians - Today @ 8:30am                                                                                    150                                
PRCFAMCHA040202065903065917000014Playhouse - HOZE HOUNDZ - Skater                                                                                            150                                
PRCFAMCHA040202065917065947000030Power Box Block Promo - Today, Starting @ 7am                                                                               150                                
ID FAMCHA040202065947070000000013Power Box Block Open (:12-:15)                                                                                              150                                
PROFAMCHA040202070000070009000009CC Disclaimer - FAST - Family.ca (:08-:10)                                                                                  150                                
PGRFAMCHA040202070000073000002124Mon Colle Knights                                 EPS # 1-014                                                         A6068607ECC                              
PROFAMCHA040202072133072149000016PS - 07(PB) - PRLR/GADGET/DALMATIANS (:14-:16)                                                                              150                                
PROFAMCHA040202072149072219000030Recess (NOV2003) - Today @ 11:50am                                                                                          150                                
PROFAMCHA040202072219072249000030Weekenders (MESS) - Today @ 3:50pm                                                                                          150                                
PROFAMCHA040202072249072259000010FAMJAM - Open                                                                                                               150                                
INTFAMCHA040202072259072634000335MV Disney - I've Got To Move (Calvin Richardson)                                                                       60688130                                
PROFAMCHA040202072634072648000014FAMJAM - Close (WEB)                                                                                                        150                                
PRCFAMCHA040202072648072705000017Radio Free Roscoe - Webthrow (Question Mark)                                                                                150                                
INTFAMCHA040202072705072850000145Gagsters - Cheesy Pizza                                                                                               A20682120                                
PROFAMCHA040202072850072918000028Proud Family (BOND) - Today @ 5:05pm (MD)                                                                                   150                                
PRCFAMCHA040202072918072948000030Mad Dash - GUIDE - Today starting @ 3pm                                                                                     150                                
ID FAMCHA040202072948073000000012Power Box Block Open (:12-:15)                                                                                              150                                
PGRFAMCHA040202073000075959002129Power Rangers Lightspeed Rescue                   Fate Of The Lightspeed, Part 2                                      A6068607E                                
PROFAMCHA040202075129075145000016PS - 08(PB) - GADGET/DALMATIANS/FRANKLIN (:14-:16)                                                                          150                                
PROFAMCHA040202075145075215000030Gadget & The Gadgetinis - Coming Up                                                                                         150                                
PROFAMCHA040202075215075245000030Recess (NOV2003) - Today @ 11:50am                                                                                          150                                
PRCFAMCHA040202075245075315000030Mad Dash - GUIDE - Today starting @ 3pm                                                                                     150                                
PROFAMCHA040202075315075325000010FAMJAM - Open                                                                                                               150                                
INTFAMCHA040202075325075425000100MV Disney - Dig It (D-TENT BOYS)                                                                                       60688130                                
PROFAMCHA040202075425075439000014FAMJAM - Close (WEB)                                                                                                        150                                
PROFAMCHA040202075439075509000030Weekenders (MESS) - Today @ 3:50pm                                                                                          150                                
PRCFAMCHA040202075509075539000030Power Box Block Promo - Weekdays, Starting @ 7am                                                                            150                                
INTFAMCHA040202075539075916000337Art Attack - Burger & Fries                                                                                            60686130                                
PROFAMCHA040202075916075944000028Proud Family (BOND) - Today @ 5:05pm (MD)                                                                                   150                                
ID FAMCHA040202075944075959000015Power Box Block Open (:12-:15)                                                                                              150                                
PGRFAMCHA040202075959083000002213Gadget & the Gadgetinis                           EPS # 1-015                                                         A6068607E                                
PROFAMCHA040202082212082228000016PS - 09(PH) - DALMATIANS/FRANKLIN/WTP (:14-:16)                                                                             150                                
PROFAMCHA040202082228082258000030Disney's 101 Dalmatians - Coming Up                                                                                         150                                
PROFAMCHA040202082258082330000032Jojo's Circus - Today @ 9:45am                                                                                              150                                
PRCFAMCHA040202082330082349000019Playhouse - FRANKLIN - Party                                                                                                150                                
INTFAMCHA040202082349082604000215Disney Circle Time - Endless Story (anywhere but D                                                                     60688130                                
PRCFAMCHA040202082604082632000028Chip 'n Dale (FALL 2003) - Today @ 11am                                                                                     150                                
INTFAMCHA040202082632082903000231MV Disney - Aloha E Komo Mai (Lilo & Stitch)                                                                           60688130                                
PRCFAMCHA040202082903082948000045Hoze Houndz (PAMPER - FALL 2003) - Today @ 2:10pm                                                                           150                                
ID FAMCHA040202082948083000000012PS Playhouse AM Block Open (:10-:15)                                                                                        150                                
PGRFAMCHA040202083000085500002245Disney's 101 Dalmatians: The Series               EPS # 1-038                                                         A6068607E                                
PROFAMCHA040202085245085301000016PS - 10(PH) - FRANKLIN/WTP/JOJO (:14-:16) (JAN12)                                                                           150                                
PRCFAMCHA040202085301085336000035Franklin (CANOE - FALL 2003) - Today @ 8:55am                                                                               150                                
PROFAMCHA040202085336085408000032Jojo's Circus - Today @ 9:45am                                                                                              150                                
PRCFAMCHA040202085408085448000040Hoze Houndz (PIRATES - FALL 2003) - Today @ 2:10pm                                                                          150                                
ID FAMCHA040202085448085500000012PS Playhouse AM Block Open (:10-:15)                                                                                        150                                
PROFAMCHA040202085500085509000009CC Disclaimer - FAST - Family.ca (:08-:10)                                                                                  150                                
PGRFAMCHA040202085500092000002253Franklin                                          Franklin's Gift/Franklin Growing Up Fast                      B13641A1065607ECC                              
PROFAMCHA040202091802091818000016PS - 11(PH) - WTP/JOJO/STANLEY (:14-:16) (JAN12)                                                                            150                                
PROFAMCHA040202091818091850000032Jojo's Circus - Today @ 9:45am                                                                                              150                                
PRCFAMCHA040202091850091918000028Chip 'n Dale (FALL 2003) - Today @ 11am                                                                                     150                                
PROFAMCHA040202091918091948000030House of Mouse (FALL 2003) - Today @ 2:35pm                                                                                 150                                
ID FAMCHA040202091948092000000012PS Playhouse AM Block Open (:10-:15)                                                                                        150                                
PROFAMCHA040202092000092009000009CC Disclaimer - FAST - Family.ca (:08-:10)                                                                                  150                                
PGRFAMCHA040202092000094600002312New Adventures of Winnie the Pooh; The            Bubble Trouble/Ground Piglet Day                                    A6068607ECC                              
PROFAMCHA040202094321094336000015PS - 12(PH) - JOJO/STANLEY/HENRY (:14-:16) (JAN12)                                                                          150                                
PROFAMCHA040202094336094408000032Jojo's Circus - Today @ 9:45am                                                                                              150                                
PRCFAMCHA040202094408094436000028Chip 'n Dale (FALL 2003) - Today @ 11am                                                                                     150                                
PROFAMCHA040202094436094506000030Disney's 101 Dalmatians - Today @ 1:25pm                                                                                    150                                
PRCFAMCHA040202094506094546000040Hoze Houndz (PIRATES - FALL 2003) - Today @ 2:10pm                                                                          150                                
ID FAMCHA040202094546094600000014PS Playhouse AM Block Open (:10-:15)                                                                                        150                                
PGRFAMCHA040202094600101229002408JoJo's Circus                                     EPS # 17                                                            A6028107E                                
PROFAMCHA040202101008101024000016PS - 13(PH) - STANLEY/HENRY/CHIP (:14-:16) (JAN12)                                                                          150                                
PRCFAMCHA040202101024101052000028Chip 'n Dale (FALL 2003) - Today @ 1:45pm                                                                                   150                                
PRCFAMCHA040202101052101148000056Playhouse - STANLEY - Fish Song                                                                                             150                                
PROFAMCHA040202101148101218000030House of Mouse (FALL 2003) - Today @ 2:35pm                                                                                 150                                
ID FAMCHA040202101218101229000011PS Playhouse AM Block Open (:10-:15)                                                                                        150                                
PGRFAMCHA040202101229103800002356Stanley                                           Searching For Spring/Save The Bluebird                              A6068607E                                
PROFAMCHA040202103625103641000016PS - 14(PH) - HENRY/CHIP/ART (:14-:16) (JAN12)                                                                              150                                
PRCFAMCHA040202103641103709000028Chip 'n Dale (FALL 2003) - Today @ 11am                                                                                     150                                
PRCFAMCHA040202103709103749000040Hoze Houndz (PIRATES - FALL 2003) - Today @ 2:10pm                                                                          150                                
ID FAMCHA040202103749103800000011PS Playhouse AM Block Open (:10-:15)                                                                                        150                                
PROFAMCHA040202103800103809000009CC Disclaimer - FAST - Family.ca (:08-:10)                                                                                  150                                
PGRFAMCHA040202103800110401002400Henry's World                                     Costume Capers/Fire's Out                                     B66554A1065607GCC                              
PROFAMCHA040202110209110223000014PS - 15(PH) - CHIP/ART/RECESS (:14-:16)                                                                                     150                                
PRCFAMCHA040202110223110251000028Chip 'n Dale (FALL 2003) - Coming Up                                                                                        150                                
PROFAMCHA040202110251110321000030Disney's 101 Dalmatians - Today @ 1:25pm                                                                                    150                                
PROFAMCHA040202110321110351000030House of Mouse (FALL 2003) - Today @ 2:35pm                                                                                 150                                
ID FAMCHA040202110351110401000010PS Playhouse AM Block Open (:10-:15)                                                                                        150                                
PGRFAMCHA040202110401112900002239Chip 'n Dale Rescue Rangers                       The Last Leprechaun                                                 A6068607E                                
ID FAMCHA040202110401110409000008Magic of Disney - PLAYHOUSE - Shape (:06-:09)                                                                               150                                
PROFAMCHA040202112648112704000016PS - 16(PH) - ART/RECESS/FILLMORE (:14-:16) (JAN)                                                                           150                                
PROFAMCHA040202112704112734000030Disney's 101 Dalmatians - Today @ 1:25pm                                                                                    150                                
PRCFAMCHA040202112734112819000045Snow Days Contest - Version 2 (Feb 2 - Feb 8)                                                                               150                                
PROFAMCHA040202112819112849000030House of Mouse (FALL 2003) - Today @ 2:35pm                                                                                 150                                
ID FAMCHA040202112849112900000011PS Playhouse AM Block Open (:10-:15)                                                                                        150                                
PGRFAMCHA040202112900115004002007Art Attack                                                                                                            A60286110                                
PROFAMCHA040202114907114921000014PS - 17(MD) - RECESS/FILLMORE/GOOF (:14-:16) (JAN1                                                                          150                                
PROFAMCHA040202114921114951000030Recess (NOV2003) - Coming Up                                                                                                150                                
ID FAMCHA040202114951115004000013PS Mad Dash Block Open (:13-:15)                                                                                            150                                
PGRFAMCHA040202115004121307002236Disney's Recess                                   Mikey's Pants/Here Comes Mr. Perfect                                A6068607E                                
PROFAMCHA040202121240121254000014PS - 18(MD) - FILLMORE/GOOF/TEAMO (:14-:16) (JAN1)                                                                          150                                
ID FAMCHA040202121254121307000013PS Mad Dash Block Open (:13-:15)                                                                                            150                                
PGRFAMCHA040202121307123659002237Disney's Fillmore!                                EPS # 1-023                                                         A6068607E                                
PROFAMCHA040202123544123600000016PS - 19(MD) - GOOF/TEAMO/DALMATIANS (:14-:16) (JAN                                                                          150                                
PRCFAMCHA040202123600123645000045Radio Free Roscoe Contest                                                                                                   150                                
ID FAMCHA040202123645123659000014Mad Dash Block Open (:13-:15)                                                                                               150                                
PROFAMCHA040202123659123708000009CC Disclaimer - FAST - Family.ca (:08-:10)                                                                                  150                                
PGRFAMCHA040202123659130100002252Goof Troop                                        Cat's Entertainment                                                  6068607ECC                              
PROFAMCHA040202130000130016000016PS - 20(MD) - TEAMO/DALMATIANS/CHIP (:14-:16) (JAN                                                                          150                                
PRCFAMCHA040202130016130046000030Mad Dash - GUIDE - Today starting @ 3pm                                                                                     150                                
ID FAMCHA040202130046130100000014Mad Dash Block Open (:13-:15)                                                                                               150                                
PGRFAMCHA040202130100132424002253Disney's Teamo Supremo                            EPS # 1-031                                                         A6068607E                                
PROFAMCHA040202132353132409000016PS - 21(PH) - DALMATIANS/CHIP/HOZE (:14-:16)                                                                                150                                
ID FAMCHA040202132409132424000015PS Playhouse PM Block Open (:10-:15)                                                                                        150                                
PGRFAMCHA040202132424134800002249Disney's 101 Dalmatians: The Series               EPS # 1-039                                                         A6068607E                                
PROFAMCHA040202134713134729000016PS - 22(PH) - CHIP/HOZE/HOM (:14-:16)                                                                                       150                                
PRCFAMCHA040202134729134747000018Hoze Houndz (RUNNING - FALL 2003) - Today @ 2:10pm                                                                          150                                
ID FAMCHA040202134747134800000013PS Playhouse PM Block Open (:10-:15)                                                                                        150                                
PGRFAMCHA040202134800141158002247Chip 'n Dale Rescue Rangers                       Double O'Chipmunk                                                   A6068607E                                
ID FAMCHA040202134800134808000008Magic of Disney - PLAYHOUSE - Wipe (:06-:09)                                                                                150                                
PROFAMCHA040202141055141111000016PS - 23(PH) - HOZE/HOM/TIMON (:14-:16)                                                                                      150                                
PRCFAMCHA040202141111141143000032Hoze Houndz (GROCERIES - FALL 2003) - Coming Up (P                                                                          150                                
ID FAMCHA040202141143141158000015PS Playhouse PM Block Open (:10-:15)                                                                                        150                                
PROFAMCHA040202141158141207000009CC Disclaimer - FAST - Family.ca (:08-:10)                                                                                  150                                
PGRFAMCHA040202141158143600002238Hoze Houndz                                       Fungus Follies/Double Trouble                                 A63381A1065607ECC                              
PROFAMCHA040202143445143501000016PS - 24(PH) - HOM/TIMON/LILO (:14-:16) (JAN1)                                                                               150                                
PRCFAMCHA040202143501143546000045Snow Days Contest - Version 2 (Feb 2 - Feb 8)                                                                               150                                
ID FAMCHA040202143546143600000014PS Playhouse PM Block Open (:10-:15)                                                                                        150                                
PGRFAMCHA040202143600150000002229Disney's House Of Mouse                           Everybody Loves Mickey                                              A6068607E                                
PROFAMCHA040202145829145845000016Mad Dash  - 01 - TIMON/LILO/WEEKENDERS (:14-:16) (                                                                          150                                
PROFAMCHA040202145845145915000030Weekenders (MESS) - Today @ 3:50pm                                                                                          150                                
INTFAMCHA040202145915145937000022Harrisons; The - New - Phone Cord Fall                                                                                A10626120                                
PRCFAMCHA040202145937145947000010Mad Dash - LIZZIE MCGUIRE - Going In                                                                                        150                                
ID FAMCHA040202145947150000000013Mad Dash Block Open (:13-:15)                                                                                               150                                
PROFAMCHA040202150000150009000009CC Disclaimer - FAST - Family.ca (:08-:10)                                                                                  150                                
PGRFAMCHA040202150000152501002240Lion King's Timon & Pumbaa; The                   Brazil Nuts/South Sea Sick                                           6068607ECC                              
PROFAMCHA040202152249152303000014Mad Dash  - 02 - LILO/WEEKENDERS/RECESS (:14-:16)                                                                           150                                
PROFAMCHA040202152303152333000030Weekenders (MESS) - Today @ 3:50pm                                                                                          150                                
PRCFAMCHA040202152333152418000045Radio Free Roscoe Contest                                                                                                   150                                
PROFAMCHA040202152418152448000030Recess (NOV2003) - Today @ 4:15pm                                                                                           150                                
ID FAMCHA040202152448152501000013Mad Dash Block Open (:13-:15)                                                                                               150                                
PGRFAMCHA040202152501155002002239Disney's Lilo & Stitch: The Series                EPS # 23                                                            A6028207E                                
PROFAMCHA040202154740154754000014Mad Dash  - 03 - WEEKENDERS/RECESS/KIM (:14-:16)                                                                            150                                
PROFAMCHA040202154754154824000030Kim Possible (NOV2003) - Today @ 4:40pm (MD)                                                                                150                                
PRCFAMCHA040202154824154854000030Family Birthday Club #1 - ONGOING (1)                                                                                       150                                
PROFAMCHA040202154854154928000034Lizzie McGuire - GROWN UP (MD) - Today @ 5:35pm                                                                             150                                
PRCFAMCHA040202154928154948000020Radio Free Roscoe - Webthrow (Shady Lane)                                                                                   150                                
ID FAMCHA040202154948155002000014Mad Dash Block Open (:13-:15)                                                                                               150                                
PROFAMCHA040202155002155011000009CC Disclaimer - FAST - Family.ca (:08-:10)                                                                                  150                                
PGRFAMCHA040202155002161558002253Disney's The Weekenders                           Tino's Dad                                                          A6068607ECC                              
PROFAMCHA040202161304161320000016Mad Dash  - 04 - RECESS/KIM/PROUD (:14-:16)                                                                                 150                                
PROFAMCHA040202161320161350000030Recess (NOV2003) - Coming Up                                                                                                150                                
INTFAMCHA040202161350161441000051Harrisons; The - New - Lawnmower                                                                                      A10626120                                
PROFAMCHA040202161441161509000028Proud Family (BOND) - Today @ 5:05pm (MD)                                                                                   150                                
PROFAMCHA040202161509161543000034Lizzie McGuire - GROWN UP (MD) - Today @ 5:35pm                                                                             150                                
ID FAMCHA040202161543161558000015Mad Dash Block Open (:13-:15)                                                                                               150                                
PGRFAMCHA040202161558164200002248Disney's Recess                                   Beyond A Reasonable Scout/The "C" Note                              A6068607E                                
PROFAMCHA040202163846163902000016Mad Dash  - 05 - KIM/PROUD/LIZZIE (:14-:16)                                                                                 150                                
PROFAMCHA040202163902163932000030Kim Possible (NOV2003) - Coming Up (MD)                                                                                     150                                
PRCFAMCHA040202163932164002000030Mad Dash - GUIDE - You're Watching                                                                                          150                                
PROFAMCHA040202164002164030000028Proud Family (BOND) - Today @ 5:05pm (MD)                                                                                   150                                
PROFAMCHA040202164030164104000034Lizzie McGuire - GROWN UP (MD) - Today @ 5:35pm                                                                             150                                
PROFAMCHA040202164104164116000012Mad Dash - RECESS - Sprinkler                                                                                               150                                
PROFAMCHA040202164116164146000030That's So Raven (GOOD LIFE) - Tonight @ 6:30pm - N                                                                          150                                
ID FAMCHA040202164146164200000014Mad Dash Block Open (:13-:15)                                                                                               150                                
PGRFAMCHA040202164200170802002251Disney's Kim Possible                             Mind Games                                                          A6068607E                                
PROFAMCHA040202170451170505000014Mad Dash  - 06 - PROUD/LIZZIE/ALL (:14-:16)                                                                                 150                                
PROFAMCHA040202170505170533000028Proud Family (BOND) - Today @ 5:05pm (MD)                                                                                   150                                
PROFAMCHA040202170533170607000034Lizzie McGuire - GROWN UP (MD) - Today @ 5:35pm                                                                             150                                
INTFAMCHA040202170607170649000042Gagsters - Clean Sweep                                                                                                A20682120                                
PROFAMCHA040202170649170719000030All That - HEAR THAT? - NS - Tonight @ 6pm                                                                                  150                                
PRCFAMCHA040202170719170749000030Romantic Combo - Every Night Starting Feb 9 @ 9pm                                                                           150                                
ID FAMCHA040202170749170802000013Mad Dash Block Open (:13-:15)                                                                                               150                                
PROFAMCHA040202170802170811000009CC Disclaimer - FAST - Family.ca (:08-:10)                                                                                  150                                
PGRFAMCHA040202170802173401002231Proud Family; The                                 Surf & Turf                                                         A6068807ECC                              
PROFAMCHA040202173042173056000014Mad Dash  - 07(FRI) - LIZZIE (:14-:16)                                                                                      150                                
PROFAMCHA040202173056173130000034Lizzie McGuire - GROWN UP (MD) - Coming Up                                                                                  150                                
PRCFAMCHA040202173130173215000045Snow Days Contest - Version 2 (Feb 2 - Feb 8)                                                                               150                                
PROFAMCHA040202173215173245000030All That - HEAR THAT? - NS - Tonight @ 6pm                                                                                  150                                
INTFAMCHA040202173245173308000023Harrisons; The - New - Marker Beard                                                                                   A10626120                                
PRCFAMCHA040202173308173318000010Mad Dash - LIZZIE MCGUIRE - Going In                                                                                        150                                
PRCFAMCHA040202173318173348000030Romantic Combo - Every Night Starting Feb 9 @ 9pm                                                                           150                                
ID FAMCHA040202173348173401000013Mad Dash Block Open (:13-:15)                                                                                               150                                
PGRFAMCHA040202173401175959002234Lizzie McGuire                                    Dear Lizzie                                                         A6068607B                                
ID FAMCHA040202173401173409000008Magic of Disney - MAD DASH - Shape (:06-:09)                                                                                150                                
PROFAMCHA040202173409173418000009CC Disclaimer - FAST - Family.ca (:08-:10)                                                                                  150                                
PROFAMCHA040202175652175708000016Nonstop - 01(M-T/NOV) - ALL/RAVEN/EVEN (:14-:16)                                                                            150                                
PRCFAMCHA040202175708175738000030Romantic Combo - Every Night Starting Feb 9 @ 9pm                                                                           150                                
PROFAMCHA040202175738175808000030All That - HEAR THAT? - NS - Coming Up                                                                                      150                                
PRCFAMCHA040202175808175838000030Family Birthday Club #2 - ONGOING (1)                                                                                       150                                
INTFAMCHA040202175838175925000047Gagsters - Slithering Snake                                                                                           A20682120                                
PROFAMCHA040202175925175943000018That's So Raven (FALL 2003) - Tonight @ 6:30pm                                                                              150                                
ID FAMCHA040202175943175959000016Nonstop Block Open (:14-:17)                                                                                                150                                
PGRFAMCHA040202175959183000002000All That                                                                                                              A20686090                                
PROFAMCHA040202181959182015000016Nonstop - 02(M-T/NOV) - RAVEN/EVEN/RADIO (:14-:16)                                                                          150                                
PROFAMCHA040202182015182102000047Groundhog Day - NP - Tonight @ 9pm (post 6pm)                                                                               150                                
PROFAMCHA040202182102182132000030That's So Raven (GOOD LIFE) - Coming Up - NS                                                                                150                                
INTFAMCHA040202182132182157000025Harrisons; The - New - Stuff Through Window                                                                           A10626120                                
PROFAMCHA040202182157182222000025Even Stevens (SIBLINGS) - Tonight @ 7pm (M-T)                                                                               150                                
PRCFAMCHA040202182222182252000030Radio Free Roscoe - Tonight @ 7:30pm                                                                                        150                                
PROFAMCHA040202182252182302000010FAMJAM - Open                                                                                                               150                                
INTFAMCHA040202182302182639000337MV Disney - So Yesterday LIVE (Hillary Duff)                                                                           60688130                                
PROFAMCHA040202182639182653000014FAMJAM - Close (FAMILY)                                                                                                     150                                
INTFAMCHA040202182653182816000123Gagsters - Framed                                                                                                     A20682120                                
PROFAMCHA040202182816182846000030Boy Meets World (SCRAWNY) - Tonight @ 8pm                                                                                   150                                
PRCFAMCHA040202182846182916000030In A Heartbeat (FALL2003) - Tonight @ 8:30pm                                                                                150                                
PRCFAMCHA040202182916182946000030Romantic Combo - Every Night Starting Feb 9 @ 9pm                                                                           150                                
ID FAMCHA040202182946183000000014Nonstop Block Open (:14-:17)                                                                                                150                                
PGRFAMCHA040202183000190000002240That's So Raven                                   EPS # 1-037                                                         A6028807B                                
PROFAMCHA040202185240185256000016Nonstop - 03(M-T/JAN) - EVEN/RADIO/BMW (:14-:16) (                                                                          150                                
PROFAMCHA040202185256185343000047Groundhog Day - NP - Tonight @ 9pm (post 6pm)                                                                               150                                
PROFAMCHA040202185343185408000025Even Stevens (SIBLINGS) - Coming Up (NS)                                                                                    150                                
INTFAMCHA040202185408185512000104Gagsters - Lost Lunch                                                                                                 A20682120                                
PRCFAMCHA040202185512185542000030Radio Free Roscoe - Tonight @ 7:30pm                                                                                        150                                
PRCFAMCHA040202185542185627000045Snow Days Contest - Version 2 (Feb 2 - Feb 8)                                                                               150                                
INTFAMCHA040202185627185757000130Klootz - Espace 02                                                                                                    A10658120                                
PROFAMCHA040202185757185827000030Boy Meets World (SCRAWNY) - Tonight @ 8pm                                                                                   150                                
PRCFAMCHA040202185827185915000048Nonstop - AMANDA SHOW - Camera                                                                                              150                                
PRCFAMCHA040202185915185945000030Romantic Combo - Every Night Starting Feb 9 @ 9pm                                                                           150                                
ID FAMCHA040202185945190000000015Nonstop Block Open (:14-:17)                                                                                                150                                
PROFAMCHA040202190000190009000009CC Disclaimer - FAST - Family.ca (:08-:10)                                                                                  150                                
PGRFAMCHA040202190000192959002239Even Stevens                                      Tight End In Traction                                               A6068807BCC                              
PROFAMCHA040202192248192304000016Nonstop - 04(M-T) - RADIO/BMW/HEARTBEAT (:14-:16)                                                                           150                                
PROFAMCHA040202192304192351000047Groundhog Day - NP - Tonight @ 9pm (post 6pm)                                                                               150                                
PRCFAMCHA040202192351192421000030Radio Free Roscoe - Coming Up                                                                                               150                                
PRCFAMCHA040202192421192506000045Radio Free Roscoe Contest                                                                                                   150                                
PROFAMCHA040202192506192536000030Boy Meets World (SCRAWNY) - Tonight @ 8pm                                                                                   150                                
INTFAMCHA040202192536192703000127Gagsters - Pre-Teen Wolf                                                                                              A20682120                                
PRCFAMCHA040202192703192733000030In A Heartbeat (FALL2003) - Tonight @ 8:30pm                                                                                150                                
INTFAMCHA040202192733192842000109Gagsters - Candy Surprise                                                                                             A20682120                                
PROFAMCHA040202192842192912000030Brendan Leonard (#2 - FALL 2003) - Tonight @ 11pm                                                                           150                                
PRCFAMCHA040202192912192942000030Romantic Combo - Every Night Starting Feb 9 @ 9pm                                                                           150                                
ID FAMCHA040202192942192959000017Nonstop Block Open (:14-:17)                                                                                                150                                
PROFAMCHA040202192959193008000009CC Disclaimer - FAST - Family.ca (:08-:10)                                                                                  150                                
PGRFAMCHA040202192959200000002230Radio Free Roscoe                                 EPS # 005                                                     A88721A1065207ACC                              
PROFAMCHA040202195238195254000016Nonstop - 05(M-T) - BMW/HEARTBEAT/N-PIX (:14-:16)                                                                           150                                
PROFAMCHA040202195254195341000047Groundhog Day - NP - Tonight @ 9pm (post 6pm)                                                                               150                                
PROFAMCHA040202195341195411000030Boy Meets World (SCRAWNY) - Coming Up (NS)                                                                                  150                                
PRCFAMCHA040202195411195456000045Radio Free Roscoe Contest                                                                                                   150                                
INTFAMCHA040202195456195629000133Gagsters - Phony Photos                                                                                               A20682120                                
PRCFAMCHA040202195629195659000030In A Heartbeat (FALL2003) - Tonight @ 8:30pm                                                                                150                                
PROFAMCHA040202195659195730000031Brendan Leonard (#1 - FALL 2003) - Tonight @ 11pm                                                                           150                                
INTFAMCHA040202195730195855000125Gagsters - Restaurant Rudeness                                                                                        A20682120                                
