SO FAMCHA071101043000043011000011Sign On (oct 1)                                                                                                                                                
PRCFAMCHA071101043011043020000009CC Disclaimer - FAST - Family.ca (:09-:10)                                                                                  150                                
PGRFAMCHA071101043020045658002638Katie And Orbie                                   EP: 4-045                                                     C19664A1065607ECC                              
PRCFAMCHA071101045658045703000005xxAstral ID (FEB05)                                                                                                         150                                
PRCFAMCHA071101045703045719000016PH - 02 - FRANNY/SOMETHING/HOZE (:14 - :16) (SEPT0                                                                          150                                
ID FAMCHA071101045719045732000013PS Playhouse AM Block Open (:10-:15)                                                                                        150                                
PRCFAMCHA071101045732045741000009CC Disclaimer - FAST - Generic (:09-:10)                                                                                    150                                
PGRFAMCHA071101045741052011002230Franny's Feet                                     EPS # 1-005                                                   C23970A1065607ECC                              
PRCFAMCHA071101052011052027000016PH - 03 - SOMETHING/HOZE/HENRY'S (:14 - :16) (SEPT                                                                          150                                
ID FAMCHA071101052027052040000013PS Playhouse AM Block Open (:10-:15)                                                                                        150                                
PRCFAMCHA071101052040052049000009CC Disclaimer - FAST - Family.ca (:09-:10)                                                                                  150                                
PGRFAMCHA071101052049054320002231Something Else                                    EP: 1-012                                                     B69266A1065607ECC                              
PRCFAMCHA071101054320054325000005xxAstral ID (FEB05)                                                                                                         150                                
PRCFAMCHA071101054325054341000016PH - 04 - HOZE/HENRY'S/KING (:14 - :16) (SEPT07)                                                                            150                                
ID FAMCHA071101054341054354000013PS Playhouse AM Block Open (:10-:15)                                                                                        150                                
PRCFAMCHA071101054354054403000009CC Disclaimer - FAST - Generic (:09-:10)                                                                                    150                                
PGRFAMCHA071101054403060642002239Hoze Houndz                                       EP: 4-041                                                     B63377A1065607ECC                              
PRCFAMCHA071101060642060658000016PH - 05 - HENRY'S WORLD/KING (:14 - :16) (SEPT07)                                                                           150                                
ID FAMCHA071101060658060711000013PS Playhouse AM Block Open (:10-:15)                                                                                        150                                
PRCFAMCHA071101060711060720000009CC Disclaimer - FAST - Family.ca (:09-:10)                                                                                  150                                
PGRFAMCHA071101060720063124002404Henry's World                                     EP: 1-011                                                     B66553A1065607GCC                              
PRCFAMCHA071101063124063129000005xxAstral ID (FEB05)                                                                                                         150                                
PRCFAMCHA071101063129063145000016PH - 06 - KING (:14 - :16) (SEPT07)                                                                                         150                                
ID FAMCHA071101063145063158000013PS Playhouse AM Block Open (:10-:15)                                                                                        150                                
PRCFAMCHA071101063158063207000009CC Disclaimer - FAST - Generic (:09-:10)                                                                                    150                                
PGRFAMCHA071101063207065437002230King                                              EP: 005                                                       B75760 1065607ECC                              
PROFAMCHA071101065437065454000017Kim Possible WHEELS MMM (MAY 07) Coming Up Next                                                                             150                                
PROFAMCHA071101065454065507000013Family Bumpers - (Phase 2 F/W 04) - Leaves (PB/MD-                                                                          150                                
PROFAMCHA071101065507065531000024xxRecess - MONTAGE (MMM) - (JULY06) - This morning                                                                          150                                
PRCFAMCHA071101065531065541000010Naturally Sadie ID's - Log on to family.ca                                                                                  150                                
PROFAMCHA071101065541065600000019MadMadMornings Block Open                                                                                                   150                                
PRCFAMCHA071101065600065609000009CC Disclaimer - FAST - Family.ca (:09-:10)                                                                                  150                                
PGRFAMCHA071101065609071900002251Disney's Kim Possible                             EPS # 1-027                                                         A6068607ECC                              
PRCFAMCHA071101071900071905000005xxAstral ID (FEB05)                                                                                                         150                                
PROFAMCHA071101071905071950000045xxRecess - SNACKS FOR SNITCHES (MMM) - (MAY06) - C                                                                          150                                
PROFAMCHA071101071950072045000055xxBee Movie ME Contest - In Theatres Nov 2 (Oct 15                                                                          150                                
PROFAMCHA071101072045072124000039Weekenders - (MMM) Alternate Universe - This Morni                                                                          150                                
PROFAMCHA071101072124072155000031American Dragon Jake Long (MD) (APR07) HERO This A                                                                          150                                
PROFAMCHA071101072155072222000027Emperor's New School ZIT (MD) This Afternoon @ 3:5                                                                          150                                
PROFAMCHA071101072222072255000033xxRatatouille DVD Blast - Available Nov 6 (Oct 25                                                                           150                                
PROFAMCHA071101072255072341000046xxHSM 2 Music Video Contest (Nov 1-30) $$$                                                                                  150                                
PROFAMCHA071101072341072400000019MadMadMornings Block Open                                                                                                   150                                
PGRFAMCHA071101072400074634002234Disney's Recess                                   EP: 1-006                                                            6068607ECC                              
PROFAMCHA071101074634074713000039Weekenders - (MMM) Alternate Universe - Coming Up                                                                           150                                
PROFAMCHA071101074713074745000032xxShrek the Third DVD Blast - Available Nov 13 (Oc                                                                          150                                
PROFAMCHA071101074745074757000012Family Bumpers - (Phase 3 Spring 05) - Bake (MD/NS                                                                          150                                
PROFAMCHA071101074757074821000024xxRecess - MONTAGE (MD) - JULY06 - This morn @ 11:                                                                          150                                
PRCFAMCHA071101074821074944000123HSM 2 Playback #1 (Oct 1-Nov 30)                                                                                            150                                
PROFAMCHA071101074944075000000016xxKim Possible FINGER TAUNT (MD) (July 06) This af                                                                          150                                
PRCFAMCHA071101075000075030000030xxFamous Players Popcorn Parties 2 (May 2-Jan 31/0                                                                          150                                
PRCFAMCHA071101075030075041000011Naturally Sadie ID's - I'm Charlotte, you're watch                                                                          150                                
PROFAMCHA071101075041075100000019MadMadMornings Block Open                                                                                                   150                                
PRCFAMCHA071101075100075109000009CC Disclaimer - FAST - Generic (:09-:10)                                                                                    150                                
PGRFAMCHA071101075109081356002247Disney's The Weekenders                           EP: 1-032                                                           A6068607ECC                              
PRCFAMCHA071101081356081401000005xxAstral ID (FEB05)                                                                                                         150                                
PROFAMCHA071101081401081431000030xxWish Gone Amiss - Nov 9 @ 6pm (Oct 15 - Nov 1) $                                                                          150                                
PROFAMCHA071101081431081501000030xxHSM - The Ice Tour Promo #2 (Aug 20 - Dec 13) $$                                                                          150                                
PROFAMCHA071101081501081521000020Emperor's New School - Malina Date -This Afternoon                                                                          150                                
PRCFAMCHA071101081521081621000100xxMS - Enchanted  Interview w/J.Marsden Coming Soo                                                                          150                                
PROFAMCHA071101081621081655000034Proud Family (APR06) GET BURNED (MD) - This Aftern                                                                          150                                
PRCFAMCHA071101081655081735000040Magazine Spot (MD,NS,NSW) 2/3 day (not in PH) (til                                                                          150                                
PROFAMCHA071101081735081741000006Phil of the Future IDs - Your Watching Family...NA                                                                          150                                
PROFAMCHA071101081741081800000019MadMadMornings Block Open                                                                                                   150                                
PGRFAMCHA071101081800084054002254Disney's Lloyd In Space                           EP: 05                                                               6068607ECC                              
PRCFAMCHA071101084054084110000016PH - 07 - EINSTEINS/FRANNY'S/TIGGER & POOH (:14 -                                                                           150                                
PROFAMCHA071101084110084149000039Little Einstein (PH) LOVE - Coming Up Next (MAY07)                                                                          150                                
PGRFAMCHA071101084149084309000120xxThey Might Be Giants (ABC's) - Go for G                                                                              60688120                                
PROFAMCHA071101084309084339000030Tigger & Pooh NEW FRIEND DARBY (PH) This Morning @                                                                          150                                
PRCFAMCHA071101084339084414000035xxPlayhouse - KATIE & ORBIE - Did You Know?                                                                                 150                                
PROFAMCHA071101084414084445000031xxJohnny and the Sprites CRAZY (PH) This Morning @                                                                          150                                
ID FAMCHA071101084445084500000015PS Playhouse AM Block Open (:10-:15)                                                                                        150                                
PGRFAMCHA071101084500090905002405Disney's Little Einsteins                         EP: 08                                                               6068607ECC                              
PRCFAMCHA071101090905090910000005xxAstral ID (FEB05)                                                                                                         150                                
PRCFAMCHA071101090910090926000016PH - 08 - FRANNY'S/TIGGER & POOH/ CLUB HOUSE (:14                                                                           150                                
PRCFAMCHA071101090926090941000015Franny's Feet - Bowleriffic (PH-) - (APR06) - Comi                                                                          150                                
PRCFAMCHA071101090941091016000035xxPlayhouse - KATIE & ORBIE - Discoveries                                                                                   150                                
PROFAMCHA071101091016091046000030Mickey Mouse Clubhouse GENERIC - This Morning @ 10                                                                          150                                
ID FAMCHA071101091046091100000014PS Playhouse AM Block Open (:10-:15)                                                                                        150                                
PRCFAMCHA071101091100091109000009CC Disclaimer - FAST - Family.ca (:09-:10)                                                                                  150                                
PGRFAMCHA071101091109093339002230Franny's Feet                                     EPS # 17                                                      C23971 1065607ECC                              
PRCFAMCHA071101093339093355000016PH - 10 - TIGGER & POOH/ CLUB HOUSE/SPRITES (:14 -                                                                          150                                
PROFAMCHA071101093355093425000030Tigger & Pooh NEW FRIEND DARBY (PH) Coming Up Next                                                                          150                                
PGRFAMCHA071101093425093540000115xxThey Might Be Giants (ABC's) - QU                                                                                    60688120                                
PROFAMCHA071101093540093610000030xxJohnny and the Sprites LILY (PH) This Morning @                                                                           150                                
PROFAMCHA071101093610093649000039Little Einstein (PH) LOVE - Tomorrow Morning @ 8:4                                                                          150                                
ID FAMCHA071101093649093700000011PS Playhouse AM Block Open (:10-:15)                                                                                        150                                
PRCFAMCHA071101093700093709000009CC Disclaimer - FAST - Generic (:09-:10)                                                                                    150                                
PGRFAMCHA071101093709100109002400Disney My Friends Tigger and Pooh                 EP: 15                                                               6068607ECC                              
PRCFAMCHA071101100109100114000005xxAstral ID (FEB05)                                                                                                         150                                
PRCFAMCHA071101100114100130000016PH - 13 - CLUB HOUSE/SPRITES/BENJAMIN BEAR (:14 -                                                                           150                                
PROFAMCHA071101100130100200000030Mickey Mouse Clubhouse GENERIC - Coming Up Next                                                                             150                                
PROFAMCHA071101100200100230000030xxHSM - The Ice Tour Promo #2 (Aug 20 - Dec 13) $$                                                                          150                                
PRCFAMCHA071101100230100301000031King (PH) (APR06) - This Morning @ 11:25am                                                                                  150                                
PRCFAMCHA071101100301100315000014xxPlayhouse - HOZE HOUNDZ - Skater                                                                                          150                                
PRCFAMCHA071101100315100345000030Franny's Feet - Concept (APR06)(PH-Mon) - Tomorrow                                                                          150                                
ID FAMCHA071101100345100400000015PS Playhouse AM Block Open (:10-:15)                                                                                        150                                
ID FAMCHA071101100400100408000008Magic of Disney - PLAYHOUSE - Shape (:06-:09)                                                                               150                                
PGRFAMCHA071101100408102810002402Disney's Mickey Mouse Clubhouse                   EP: 14                                                               6068607ECC                              
PRCFAMCHA071101102810102826000016PH - 16 - SPRITES/BENJAMIN BEAR/KING (:14 - :16) (                                                                          150                                
PROFAMCHA071101102826102857000031xxJohnny and the Sprites CRAZY (PH) Coming Up Next                                                                          150                                
PRCFAMCHA071101102857102928000031King (PH) (APR06) - This Morning @ 11:25am                                                                                  150                                
PROFAMCHA071101102928103018000050Tigger & Pooh WHAT'S NEW (PH) Tomorrow Morning @ 9                                                                          150                                
PROFAMCHA071101103018103048000030Mickey Mouse Clubhouse GENERIC - Tomorrow Morning                                                                           150                                
ID FAMCHA071101103048103100000012PS Playhouse AM Block Open (:10-:15)                                                                                        150                                
PRCFAMCHA071101103100103109000009CC Disclaimer - FAST - Generic (:09-:10)                                                                                    150                                
PGRFAMCHA071101103109105518002409Disney Johnny and the Sprites                     EP: 04                                                               6068607GCC                              
PRCFAMCHA071101105518105523000005xxAstral ID (FEB05)                                                                                                         150                                
PRCFAMCHA071101105523105539000016PH - 18 - BENJAMIN BEAR/KING/RECESS (:14 - :16) (S                                                                          150                                
PRCFAMCHA071101105539105559000020Benjamin Bear - Snack (PH) (APR06) - Coming Up Nex                                                                          150                                
PRCFAMCHA071101105559105618000019xxPlayhouse - HOZE HOUNDZ - Code Blue                                                                                       150                                
PRCFAMCHA071101105618105648000030Franny's Feet - Concept (APR06)(PH-Mon) - Tomorrow                                                                          150                                
ID FAMCHA071101105648105700000012PS Playhouse AM Block Open (:10-:15)                                                                                        150                                
PRCFAMCHA071101105700105709000009CC Disclaimer - FAST - Family.ca (:09-:10)                                                                                  150                                
PGRFAMCHA071101105709111944002235The Secret World Of Benjamin Bear                 EPS # 1-012                                                   B75157 1065607ECC                              
PRCFAMCHA071101111944112000000016PH - 19 - KING/RECESS/KIM POSSIBLE (:14 - :16) (SE                                                                          150                                
PRCFAMCHA071101112000112031000031King (PH) (APR06) - Coming Up Next                                                                                          150                                
PRCFAMCHA071101112031112051000020Benjamin Bear - Snack (PHwknd) (APR06) - Weekend M                                                                          150                                
PGRFAMCHA071101112051112351000300xxThey Might Be Giants (ABC's) - Can You Find It?                                                                      60688120                                
PROFAMCHA071101112351112447000056xxHandy Mandy TOOLS (PH) Monday & Wednesday Mornin                                                                          150                                
ID FAMCHA071101112447112500000013PS Playhouse AM Block Open (:10-:15)                                                                                        150                                
PRCFAMCHA071101112500112509000009CC Disclaimer - FAST - Generic (:09-:10)                                                                                    150                                
PGRFAMCHA071101112509114739002230King                                              EPS # 034                                                     C25350 1065607ECC                              
PRCFAMCHA071101114739114744000005xxAstral ID (FEB05)                                                                                                         150                                
PRCFAMCHA071101114744114757000013MD - 01 - RECESS/KIM (:11 - :13) (SEPT07)                                                                                   150                                
PROFAMCHA071101114757114843000046xxHSM 2 Music Video Contest (Nov 1-30) $$$                                                                                  150                                
PROFAMCHA071101114843114900000017Mad Dash Block Open (:16-:18) APR06                                                                                         150                                
PGRFAMCHA071101114900121135002235Disney's Recess                                   EP: 1-019                                                            6068607ECC                              
PRCFAMCHA071101121135121148000013MD - 02 - KIM/WEEKENDERS (:11 - :13) (SEPT07)                                                                               150                                
PROFAMCHA071101121148121226000038xxHSM 2 DVD Release Contest (Nov 1 -2) $$$                                                                                  150                                
PROFAMCHA071101121226121241000015Kim Possible BOYFRIEND (MD) Coming Up Next (SEPT07                                                                          150                                
PROFAMCHA071101121241121251000010Phil of the Future IDs - Ricky Typing - log on to                                                                           150                                
PRCFAMCHA071101121251121300000009MD Bumper - Race Cars (:08-:10) JUNE06 **DNU                                                                                150                                
PRCFAMCHA071101121300121309000009CC Disclaimer - FAST - Family.ca (:09-:10)                                                                                  150                                
PGRFAMCHA071101121309123601002252Disney's Kim Possible                             EPS # 1-051                                                         A6068607ECC                              
PRCFAMCHA071101123601123606000005xxAstral ID (FEB05)                                                                                                         150                                
PRCFAMCHA071101123606123619000013MD - 03 - WEEKENDERS/AMERICAN DRAGON (:11 - :13) (                                                                          150                                
PROFAMCHA071101123619123638000019Emperor's New School - Too Much Info - This Aftern                                                                          150                                
PROFAMCHA071101123638123644000006Phil of the Future IDs - Your Watching Family...NA                                                                          150                                
PRCFAMCHA071101123644123700000016MD Bumper - Shopping Race (:15-:17) APR06                                                                                   150                                
PRCFAMCHA071101123700123709000009CC Disclaimer - FAST - Generic (:09-:10)                                                                                    150                                
PGRFAMCHA071101123709125955002246Disney's The Weekenders                           EP: 1-033                                                           A6068607ECC                              
PRCFAMCHA071101125955130007000012MD - 04 - AMERICAN DRAGON/EMPEROR'S (:11 - :13) (S                                                                          150                                
PRCFAMCHA071101130007130015000008MD Bumper - Ski Race (:07-:09) APR06                                                                                        150                                
PGRFAMCHA071101130015132254002239Disney's American Dragon: Jake Long               EPS # 14                                                             6068607ECC                              
PRCFAMCHA071101132254132259000005xxAstral ID (FEB05)                                                                                                         150                                
PRCFAMCHA071101132259132312000013MD - 05 - EMPEROR'S/FILLMORE (:11 - :13) (SEPT07)                                                                           150                                
PROFAMCHA071101132312132351000039Weekenders ALT UNIVERSE (MD) This Afternoon @ 2:35                                                                          150                                
PRCFAMCHA071101132351132400000009MD Bumper - Race Cars (:08-:10) JUNE06 **DNU                                                                                150                                
PGRFAMCHA071101132400134635002235Disney's The Emperor's New School                 EP: 17                                                               6068807ECC                              
PRCFAMCHA071101134635134646000011MD - 06 - FILLMORE/PROUD FAMILY (:11 - :13) (SEPT0                                                                          150                                
PROFAMCHA071101134646134708000022xxFillmore! - POLLY (MD) (APR06) - Coming Up Next                                                                           150                                
PRCFAMCHA071101134708134738000030xxFamous Players Popcorn Parties 2 (May 2-Jan 31/0                                                                          150                                
PROFAMCHA071101134738134745000007Aly & A.J. IDs - (A.J.) You're watching Family, NA                                                                          150                                
PRCFAMCHA071101134745134800000015MD Bumper - Shopping Race (:15-:17) APR06                                                                                   150                                
PGRFAMCHA071101134800141038002238Disney's Fillmore!                                EPS # 1-005                                                          6068607ECC                              
PRCFAMCHA071101141038141043000005xxAstral ID (FEB05)                                                                                                         150                                
PRCFAMCHA071101141043141056000013MD - 07 - PROUD FAMILY/WEEKENDERS (:11 - :13) (SEP                                                                          150                                
PROFAMCHA071101141056141123000027Emperor's New School ZIT (MD) This Afternoon @ 3:5                                                                          150                                
PROFAMCHA071101141123141153000030xxWish Gone Amiss - Nov 9 @ 6pm (Oct 15 - Nov 1) $                                                                          150                                
PRCFAMCHA071101141153141200000007MD Bumper - Ski Race (:07-:09) APR06                                                                                        150                                
ID FAMCHA071101141200141208000008Magic of Disney - MAD DASH - Shape (:06-:09)                                                                                150                                
PGRFAMCHA071101141208143441002233The Proud Family                                  EPS # 2-024                                                          6068607ECC                              
PRCFAMCHA071101143441143452000011MD - 08 - WEEKENDERS/KIM (:11 - :13) (SEPT07) $$$                                                                           150                                
PROFAMCHA071101143452143522000030xxKim Possible EVIL (MD) This Afternoon @ 3pm (SEP                                                                          150                                
PROFAMCHA071101143522143552000030Popcorn Pix - Slapstick - Tomorrow Night @ 7:30pm                                                                           150                                
PRCFAMCHA071101143552143600000008MD Bumper - Race Cars (:08-:10) JUNE06 **DNU                                                                                150                                
PRCFAMCHA071101143600143609000009CC Disclaimer - FAST - Family.ca (:09-:10)                                                                                  150                                
PGRFAMCHA071101143609145902002253Disney's The Weekenders                           EP: 1-005                                                           A6068607ECC                              
PRCFAMCHA071101145902145907000005xxAstral ID (FEB05)                                                                                                         150                                
PRCFAMCHA071101145907145920000013MD - 09 - KIM/REPLACEMENTS (:11 - :13) (SEPT07) $$                                                                          150                                
PROFAMCHA071101145920145953000033xxRatatouille DVD Blast - Available Nov 6 (Oct 25                                                                           150                                
PRCFAMCHA071101145953150000000007Family Bumpers - (Phase 2 F/W 04) - Hockey (MD-L/M                                                                          150                                
PROFAMCHA071101150000150030000030xxHSM - The Ice Tour Promo #2 (Aug 20 - Dec 13) $$                                                                          150                                
PRCFAMCHA071101150030150046000016MD Bumper - Shopping Race (:15-:17) APR06                                                                                   150                                
PRCFAMCHA071101150046150055000009CC Disclaimer - FAST - Generic (:09-:10)                                                                                    150                                
PGRFAMCHA071101150055152348002253Disney's Kim Possible                             EPS # 1-036                                                         A6068607ECC                              
PRCFAMCHA071101152348152401000013MD - 10 - REPLACEMENTS/EMPEROR'S (:11 - :13) (SEPT                                                                          150                                
PROFAMCHA071101152401152431000030Replacements BABYSITTER (MD) Coming Up Next (SEPT0                                                                          150                                
PROFAMCHA071101152431152526000055xxBee Movie ME Contest - In Theatres Nov 2 (Oct 15                                                                          150                                
PROFAMCHA071101152526152553000027Emperor's New School ZIT (MD) This Afternoon @ 3:5                                                                          150                                
PRCFAMCHA071101152553152600000007MD Bumper - Ski Race (:07-:09) APR06                                                                                        150                                
PRCFAMCHA071101152600152609000009CC Disclaimer - FAST - Family.ca (:09-:10)                                                                                  150                                
PGRFAMCHA071101152609154848002239Disney's The Replacements                         EP: 07                                                               2068607ECC                              
PRCFAMCHA071101154848154853000005xxAstral ID (FEB05)                                                                                                         150                                
PRCFAMCHA071101154853154905000012MD - 11 - EMPEROR'S/PROUD FAMILY (:11 - :13) (SEPT                                                                          150                                
PROFAMCHA071101154905154924000019Emperor's New School - Too Much Info - Coming Up N                                                                          150                                
PROFAMCHA071101154924155005000041xxGolden Compass Contest (Nov 1-7) $$$                                                                                      150                                
PROFAMCHA071101155005155034000029Hannah Montana SCIENCE (MD) - This Afternoon @ 5:3                                                                          150                                
PRCFAMCHA071101155034155114000040Magazine Spot (MD,NS,NSW) 2/3 day (not in PH) (til                                                                          150                                
PROFAMCHA071101155114155152000038xxHSM 2 DVD Release Contest (Nov 1 -2) $$$                                                                                  150                                
PRCFAMCHA071101155152155200000008MD Bumper - Race Cars (:08-:10) JUNE06 **DNU                                                                                150                                
PGRFAMCHA071101155200161437002237Disney's The Emperor's New School                 EP: 03                                                               6068807ECC                              
PRCFAMCHA071101161437161449000012MD - 12 - PROUD FAMILY/RECESS (:11 - :13) (SEPT07)                                                                          150                                
PROFAMCHA071101161449161519000030xxWish Gone Amiss - Nov 9 @ 6pm (Oct 15 - Nov 1) $                                                                          150                                
PROFAMCHA071101161519161553000034Proud Family (APR06) GET BURNED (MD) - Coming Up N                                                                          150                                
PROFAMCHA071101161553161629000036Suite Life of Z & C - MD - GOLF - This Afternoon @                                                                          150                                
PROFAMCHA071101161629161644000015Phil of the Future IDs - Aly Flute Spit - I'm Aly                                                                           150                                
PRCFAMCHA071101161644161700000016MD Bumper - Shopping Race (:15-:17) APR06                                                                                   150                                
ID FAMCHA071101161700161708000008Magic of Disney - MAD DASH - Wipe (:06-:09)                                                                                 150                                
PRCFAMCHA071101161708161717000009CC Disclaimer - FAST - Family.ca (:09-:10)                                                                                  150                                
PGRFAMCHA071101161717163952002235The Proud Family                                  EP: 2-039                                                           A6068607ECC                              
PRCFAMCHA071101163952163957000005xxAstral ID (FEB05)                                                                                                         150                                
PRCFAMCHA071101163957164009000012MD - 13 - RECESS/SUITE LIFE (:11 - :13) (SEPT07) $                                                                          150                                
PROFAMCHA071101164009164033000024xxRecess - MONTAGE (MD) - JULY06 - Coming Up Next                                                                           150                                
PROFAMCHA071101164033164112000039xxDream Life Superstar Contest (Oct 22 - Nov 18) $                                                                          150                                
PROFAMCHA071101164112164120000008Family Bumpers - (Phase 2 F/W 04) - Snow Ball (MD-                                                                          150                                
PRCFAMCHA071101164120164220000100xxMS - Enchanted  Set Tour - Coming Soon (Oct 31-N                                                                          150                                
PROFAMCHA071101164220164252000032Suite Life of Z & C (MD) Wonderful Hotel - This Af                                                                          150                                
PRCFAMCHA071101164252164300000008MD Bumper - Ski Race (:07-:09) APR06                                                                                        150                                
PGRFAMCHA071101164300170535002235Disney's Recess                                   EP: 1-057                                                            6068607ECC                              
PRCFAMCHA071101170535170548000013MD - 14 - SUITE LIFE/HANNAH (:11 - :13) (SEPT07) $                                                                          150                                
PROFAMCHA071101170548170621000033Suite Life of Z & C - MD - SCOUT TROOP - Coming Up                                                                          150                                
PROFAMCHA071101170621170716000055xxBee Movie ME Contest - In Theatres Nov 2 (Oct 15                                                                          150                                
PROFAMCHA071101170716170750000034Hannah Montana (MD) Wig Auditions - This Afternoon                                                                          150                                
PRCFAMCHA071101170750170800000010MD Bumper - Race Cars (:08-:10) JUNE06 **DNU                                                                                150                                
ID FAMCHA071101170800170808000008Magic of Disney - MAD DASH - Shape (:06-:09)                                                                                150                                
PRCFAMCHA071101170808170817000009CC Disclaimer - FAST - Family.ca (:09-:10)                                                                                  150                                
PGRFAMCHA071101170817173056002239Suite Life of Zack & Cody, The                    EP: 17                                                               6068607BCC                              
PRCFAMCHA071101173056173101000005xxAstral ID (FEB05)                                                                                                         150                                
PRCFAMCHA071101173101173113000012MD - 15 - HANNAH/ZOEY 101 (:11 - :13) (SEPT07) $$$                                                                          150                                
PROFAMCHA071101173113173142000029Hannah Montana SCIENCE (MD) - Coming Up Next (JULY                                                                          150                                
PROFAMCHA071101173142173223000041xxEurope Bound Spot # 2 REVISED   SOLD OUT (Oct 5-                                                                          150                                
PROFAMCHA071101173223173239000016xxKim Possible FINGER TAUNT (MD) (July 06) Tomorro                                                                          150                                
PROFAMCHA071101173239173313000034Proud Family (APR06) GET BURNED (MD) - Tomorrow Af                                                                          150                                
PROFAMCHA071101173313173343000030xxWish Gone Amiss - Nov 9 @ 6pm (Oct 15 - Nov 1) $                                                                          150                                
PRCFAMCHA071101173343173400000017MD Bumper - Shopping Race (:15-:17) APR06                                                                                   150                                
ID FAMCHA071101173400173408000008Magic of Disney - MAD DASH - Shape (:06-:09)                                                                                150                                
PRCFAMCHA071101173408173417000009CC Disclaimer - FAST - Generic (:09-:10)                                                                                    150                                
PGRFAMCHA071101173417175655002238Hannah Montana                                    EP: 18                                                               6068807BCC                              
PRCFAMCHA071101175655175708000013NS - 01 - ZOEY 101/SADIE (:11 - :13) (SEPT07)                                                                               150                                
PROFAMCHA071101175708175738000030Zoey 101 - QUINN (NS) (MAR07) - Coming Up Next                                                                              150                                
PROFAMCHA071101175738175807000029xxThat's So Raven (AUG06) BEAUTY MARK - NS - Tonig                                                                          150                                
PROFAMCHA071101175807175843000036Suite Life of Z & C - NS - GOLF - Tonight @ 8:00 (                                                                          150                                
PROFAMCHA071101175843175912000029Hannah Montana SCIENCE (NS) - Tonight @ 9pm (SEPT0                                                                          150                                
PROFAMCHA071101175912175942000030Popcorn Pix - Slapstick - Tomorrow Night @ 7:30pm                                                                           150                                
PROFAMCHA071101175942180000000018Nonstop Block Open (:16-:18) APR06                                                                                          150                                
PRCFAMCHA071101180000180009000009CC Disclaimer - FAST - Family.ca (:09-:10)                                                                                  150                                
PGRFAMCHA071101180009182241002232Zoey 101                                          EPS # 11                                                             2068807BCC                              
PRCFAMCHA071101182241182246000005xxAstral ID (FEB05)                                                                                                         150                                
PRCFAMCHA071101182246182259000013NS - 02 - SADIE/RAVEN (:11 - :13) (SEPT07) $$$                                                                              150                                
PROFAMCHA071101182259182336000037Naturally Sadie - TEENAGE (NS) NEXT (MAY07)                                                                                 150                                
PROFAMCHA071101182336182406000030xxHSM - The Ice Tour Promo #2 (Aug 20 - Dec 13) $$                                                                          150                                
PROFAMCHA071101182406182437000031Smart Guy FIGHT (JUNE06) NS - Tonight @ 7:30                                                                                150                                
PRCFAMCHA071101182437182600000123HSM 2 Playback Impact (Oct 1-Nov 30)                                                                                        150                                
PRCFAMCHA071101182600182630000030xxLife with Derek (NS) MORE FUN (OCT06)  Tonight @                                                                          150                                
PRCFAMCHA071101182630182649000019xxLife WD Derek Bloopers #8 (NS/NSW)                                                                                        150                                
PRCFAMCHA071101182649182819000130xxMS - Enchanted  Set Tour - Coming Soon (Oct 31-N                                                                          150                                
PROFAMCHA071101182819182849000030Wizards of Waverrly Place SIBLING (NS) - Tomorrow                                                                           150                                
PROFAMCHA071101182849182921000032xxShrek the Third DVD Blast - Available Nov 13 (Oc                                                                          150                                
PROFAMCHA071101182921182951000030xxWish Gone Amiss - Nov 9 @ 6pm (Oct 15 - Nov 1) $                                                                          150                                
PRCFAMCHA071101182951183000000009NS Bumper - Dodgeball (:07-:09) APR06                                                                                       150                                
PRCFAMCHA071101183000183009000009CC Disclaimer - FAST - Generic (:09-:10)                                                                                    150                                
PGRFAMCHA071101183009185239002230Naturally, Sadie                                  EP: 44                                                        C25428 1055607ACC3                             
PRCFAMCHA071101185239185252000013NS - 03 - RAVEN/SMART GUY (:11 - :13) (SEPT07)                                                                              150                                
PROFAMCHA071101185252185321000029xxThat's So Raven (AUG06) BEAUTY MARK - NS - Comin                                                                          150                                
PROFAMCHA071101185321185354000033xxRatatouille DVD Blast - Available Nov 6 (Oct 25                                                                           150                                
PROFAMCHA071101185354185423000029Hannah Montana SCIENCE (NS) - Tomorrow @ 5:35pm (J                                                                          150                                
PROFAMCHA071101185423185433000010FAMJAM - Open/Close                                                                                                         150                                
PGRFAMCHA071101185433185743000310MV Disney - (MD/NS/NSW) - Jesse McCartney - Just S                                                                     60688120                                
PROFAMCHA071101185743185757000014xxFAMJAM - Close (FAMILY) xxDNUxx                                                                                           150                                
PROFAMCHA071101185757185829000032Suite Life of Z & C (NSW) Wonderful Hotel - New Ep                                                                          150                                
PROFAMCHA071101185829185910000041xxEurope Bound Spot # 2 REVISED   SOLD OUT (Oct 5-                                                                          150                                
PROFAMCHA071101185910185948000038xxHSM 2 DVD Release Contest (Nov 1 -2) $$$                                                                                  150                                
PRCFAMCHA071101185948190000000012NS Bumper - Fashion (:12-:14) JUNE06 **DNU                                                                                  150                                
ID FAMCHA071101190000190008000008Magic of Disney - NS/NSW/PB - Shape (:06-:09)                                                                               150                                
PGRFAMCHA071101190008192248002240That's So Raven                                   EP: 1-010                                                            6068607B                                
PRCFAMCHA071101192248192253000005xxAstral ID (FEB05)                                                                                                         150                                
PRCFAMCHA071101192253192306000013NS - 04 - SMART GUY/SUITE LIFE (:11 - :13) (SEPT07                                                                          150                                
PROFAMCHA071101192306192336000030xxWish Gone Amiss - Nov 9 @ 6pm (Oct 15 - Nov 1) $                                                                          150                                
PROFAMCHA071101192336192406000030Smart Guy MOE MUSIC (JUNE06) NS Coming Up Next                                                                              150                                
PROFAMCHA071101192406192501000055xxBee Movie ME Contest - In Theatres Nov 2 (Oct 15                                                                          150                                
PROFAMCHA071101192501192535000034Suite Life of Z & C - NS - SCOUT TROOP - Tonight @                                                                          150                                
PRCFAMCHA071101192535192553000018xxLife with Derek NS OJ (SEPT06) Tonight at 8:30pm                                                                          150                                
PRCFAMCHA071101192553192753000200xxMS - Enchanted  Interview w/J.Marsden Coming Soo                                                                          150                                
PROFAMCHA071101192753192836000043Cory In The House (NS) Tonight @ 10:30pm (SEPT07)                                                                           150                                
PROFAMCHA071101192836192906000030Zoey 101 - QUINN (NS) (MAR07) - Tomorrow @ 6                                                                                150                                
PRCFAMCHA071101192906192936000030xxFamous Players Popcorn Parties 2 (May 2-Jan 31/0                                                                          150                                
PROFAMCHA071101192936192943000007Aly & A.J. IDs - Fam Club at family.ca for Phil in                                                                          150                                
PROFAMCHA071101192943193000000017Nonstop Block Open (:16-:18) APR06                                                                                          150                                
ID FAMCHA071101193000193008000008Magic of Disney - NS/NSW/PB - Wipe (:06-:09)                                                                                150                                
PRCFAMCHA071101193008193017000009CC Disclaimer - FAST - Generic (:09-:10)                                                                                    150                                
PGRFAMCHA071101193017195239002222Smart Guy                                         EP: 1-021                                                            6068807BCC                              
PRCFAMCHA071101195239195252000013NS - 05 - SUITE LIFE/LIFE WITH DEREK (:11 - :13) (                                                                          150                                
PROFAMCHA071101195252195324000032Suite Life of Z & C (MD) Wonderful Hotel - Coming                                                                           150                                
PROFAMCHA071101195324195403000039xxDream Life Superstar Contest (Oct 22 - Nov 18) $                                                                          150                                
PROFAMCHA071101195403195437000034Hannah Montana (NS) Wig Auditions - Tonight @ 9 (O                                                                          150                                
PROFAMCHA071101195437195447000010FAMJAM - Open/Close                                                                                                         150                                
PGRFAMCHA071101195447195753000306MV Disney - (MD/NS/NSW) - Jesse McCartney - Just S                                                                     60688120                                
PROFAMCHA071101195753195807000014xxFAMJAM - Close (FAMILY) xxDNUxx                                                                                           150                                
PROFAMCHA071101195807195837000030Wizards of Waverrly Place SIBLING (NS) - Tomorrow                                                                           150                                
PROFAMCHA071101195837195907000030Popcorn Pix - Slapstick - Tomorrow Night @ 7:30pm                                                                           150                                
PROFAMCHA071101195907195953000046xxHSM 2 Music Video Contest (Nov 1-30) $$$                                                                                  150                                
PRCFAMCHA071101195953200000000007NS Bumper - Dodgeball (:07-:09) APR06                                                                                       150                                
ID FAMCHA071101200000200008000008Magic of Disney - NS/NSW/PB - Shape (:06-:09)                                                                               150                                
PRCFAMCHA071101200008200017000009CC Disclaimer - FAST - Family.ca (:09-:10)                                                                                  150                                
PGRFAMCHA071101200017202256002239Suite Life of Zack & Cody, The                    EP: 03                                                               6068607BCC                              
PRCFAMCHA071101202256202301000005xxAstral ID (FEB05)                                                                                                         150                                
PRCFAMCHA071101202301202314000013NS - 06 - LIFE WITH DEREK/HANNAH (:11 - :13) (SEPT                                                                          150                                
PROFAMCHA071101202314202344000030xxWish Gone Amiss - Nov 9 @ 6pm (Oct 15 - Nov 1) $                                                                          150                                
PRCFAMCHA071101202344202414000030xxLife WD - Dinnertime Coming Up Next                                                                                       150                                
PROFAMCHA071101202414202446000032xxShrek the Third DVD Blast - Available Nov 13 (Oc                                                                          150                                
PROFAMCHA071101202446202529000043Cory In The House (NS) Tonight @ 10:30pm (SEPT07)                                                                           150                                
PRCFAMCHA071101202529202652000123HSM 2 Playback #1 (Oct 1-Nov 30)                                                                                            150                                
PROFAMCHA071101202652202729000037Naturally Sadie - TEENAGE (NS) Tonight @ 12:00 (MA                                                                          150                                
PRCFAMCHA071101202729202829000100xxMS - Enchanted  Interview w/J.Marsden Coming Soo                                                                          150                                
PROFAMCHA071101202829202859000030Zoey 101 - QUINN (NS) (MAR07) - Tomorrow @ 6                                                                                150                                
PROFAMCHA071101202859202940000041xxGolden Compass Contest (Nov 1-7) $$$                                                                                      150                                
PROFAMCHA071101202940202947000007Aly & A.J. IDs - (ALY) You're Watching Family, NAD                                                                          150                                
PRCFAMCHA071101202947203000000013NS Bumper - Fashion (:12-:14) JUNE06 **DNU                                                                                  150                                
PRCFAMCHA071101203000203009000009CC Disclaimer - FAST - Generic (:09-:10)                                                                                    150                                
PGRFAMCHA071101203009205239002230Life with Derek                                   EP: 21                                                        C26679A1055607BCC3                             
PRCFAMCHA071101205239205251000012NS - 07 - HANNAH/PHIL (:11 - :13) (SEPT07) $$$                                                                              150                                
PROFAMCHA071101205251205320000029Hannah Montana SCIENCE (NS) - Coming Up Next (SEPT                                                                          150                                
PROFAMCHA071101205320205353000033xxRatatouille DVD Blast - Available Nov 6 (Oct 25                                                                           150                                
PROFAMCHA071101205353205436000043Cory In The House (NS) Tonight @ 10:30pm (SEPT07)                                                                           150                                
PROFAMCHA071101205436205446000010FAMJAM - Open/Close                                                                                                         150                                
PGRFAMCHA071101205446205544000058MV Disney - (MD/NS/NSW) - Jesse McCartney - Just S                                                                     60688120                                
PROFAMCHA071101205544205558000014xxFAMJAM - Close (FAMILY) xxDNUxx                                                                                           150                                
PRCFAMCHA071101205558205636000038Life W D (NS) Edwin Mystery Man New Episodes - Tom                                                                          150                                
PROFAMCHA071101205636205646000010FAMJAM - Open/Close                                                                                                         150                                
PGRFAMCHA071101205646205803000117MV Disney - (MD/NS/NSW) - Jesse McCartney - Just S                                                                     60688120                                
PROFAMCHA071101205803205817000014xxFAMJAM - Close (FAMILY) xxDNUxx                                                                                           150                                
PROFAMCHA071101205817205849000032Suite Life of Z & C (NSW) Wonderful Hotel - New Ep                                                                          150                                
PROFAMCHA071101205849205930000041xxEurope Bound Spot # 2 REVISED   SOLD OUT (Oct 5-                                                                          150                                
PROFAMCHA071101205930205944000014Phil of the Future IDs - Ricky Tomato - watching f                                                                          150                                
PROFAMCHA071101205944210000000016Nonstop Block Open (:16-:18) APR06                                                                                          150                                
ID FAMCHA071101210000210008000008Magic of Disney - MAD DASH - Shape (:06-:09)                                                                                150                                
PRCFAMCHA071101210008210017000009CC Disclaimer - SLOW - Family.ca (:09-:10)                                                                                  150                                
PGRFAMCHA071101210017212253002236Hannah Montana                                    EP: 05                                                               6068807BCC                              
PRCFAMCHA071101212253212258000005xxAstral ID (FEB05)                                                                                                         150                                
PRCFAMCHA071101212258212310000012NS - 08 - PHIL /NEDS (:11 - :13) (SEPT07) $$$                                                                               150                                
PROFAMCHA071101212310212353000043Cory In The House (NS) Tonight @ 10:30pm (SEPT07)                                                                           150                                
PRCFAMCHA071101212353212433000040Magazine Spot (MD,NS,NSW) 2/3 day (not in PH) (til                                                                          150                                
PROFAMCHA071101212433212509000036Suite Life of Z & C GOLF (NS) - Tonight @ 11:00pm                                                                           150                                
PROFAMCHA071101212509212516000007Family Bumpers - (Phase 2 F/W 04) - Snow Twirl (MD                                                                          150                                
PROFAMCHA071101212516212526000010FAMJAM - Open/Close                                                                                                         150                                
PGRFAMCHA071101212526212846000320MV Disney - Superstition (Raven)                                                                                       60688120                                
PROFAMCHA071101212846212900000014xxFAMJAM - Close (FAMILY) xxDNUxx                                                                                           150                                
PROFAMCHA071101212900212934000034Hannah Montana (NS) Wig Auditions - Tomorrow  Afte                                                                          150                                
PROFAMCHA071101212934212952000018Phil of the Future IDs - Ricky Caveman - stay tune                                                                          150                                
PRCFAMCHA071101212952213000000008NS Bumper - Dodgeball (:07-:09) APR06                                                                                       150                                
ID FAMCHA071101213000213008000008Magic of Disney - NS/NSW/PB - Wipe (:06-:09)                                                                                150                                
PGRFAMCHA071101213008215244002236Phil of the Future Yr 2                           EP: 37                                                               6068607BCC                              
PRCFAMCHA071101215244215257000013NS - 09 - NEDS/CORY IN THE HOUSE (:11 - :13) (SEPT                                                                          150                                
PROFAMCHA071101215257215332000035xxNeds DSSG - Superheroes - NS (JULY 06) Coming Up                                                                          150                                
PRCFAMCHA071101215332215502000130xxMS - Enchanted  Set Tour - Coming Soon (Oct 31-N                                                                          150                                
PRCFAMCHA071101215502215540000038Life W D (NS) Edwin Mystery Man - Tonight @ 11:30p                                                                          150                                
PROFAMCHA071101215540215550000010FAMJAM - Open/Close                                                                                                         150                                
PGRFAMCHA071101215550215901000311xxMV Disney - (MD/NS/NSW) - Vanessa Hudgens - Say                                                                      60688120                                
PROFAMCHA071101215901215915000014xxFAMJAM - Close (FAMILY) xxDNUxx                                                                                           150                                
PROFAMCHA071101215915215947000032Suite Life of Z & C (NSW) Wonderful Hotel - New Ep                                                                          150                                
PRCFAMCHA071101215947220000000013NS Bumper - Fashion (:12-:14) JUNE06 **DNU                                                                                  150                                
PRCFAMCHA071101220000220009000009CC Disclaimer - SLOW - Family.ca (:09-:10)                                                                                  150                                
PGRFAMCHA071101220009222349002340Ned's Declassified School Survival Guide          EPS # 01                                                             2068807BCC                              
PRCFAMCHA071101222349222354000005xxAstral ID (FEB05)                                                                                                         150                                
PRCFAMCHA071101222354222407000013NS - 10 - CORY IN THE HOUSE/SUITE LIFE (:11 - :13)                                                                          150                                
PROFAMCHA071101222407222450000043Cory In The House (NS) Coming Up Next (SEPT07)                                                                              150                                
PROFAMCHA071101222450222500000010FAMJAM - Open/Close                                                                                                         150                                
PGRFAMCHA071101222500222830000330MV Disney - (MD/NS/NSW) - Jesse McCartney - Just S                                                                     60688120                                
PROFAMCHA071101222830222844000014xxFAMJAM - Close (FAMILY) xxDNUxx                                                                                           150                                
PRCFAMCHA071101222844222914000030Life with Derek (NS) MORE FUN (OCT06)  Tonight @ 1                                                                          150                                
PROFAMCHA071101222914222944000030Wizards of Waverrly Place SIBLING (NS) - Tomorrow                                                                           150                                
PRCFAMCHA071101222944223000000016NS Bumper - Tennis (:15-:17) APR06                                                                                          150                                
ID FAMCHA071101223000223008000008Magic of Disney - NS/NSW/PB - Wipe (:06-:09)                                                                                150                                
PRCFAMCHA071101223008223017000009CC Disclaimer - SLOW - Generic (:09 -:10)                                                                                   150                                
PGRFAMCHA071101223017225255002238Cory in the House                                 EP: 03                                                               6068607BCC                              
PRCFAMCHA071101225255225308000013NS - 11 - SUITE LIFE/LIFE WITH DEREK (:11 - :13) (                                                                          150                                
PROFAMCHA071101225308225342000034Suite Life of Z & C - NS - SCOUT TROOP - Coming Up                                                                          150                                
PROFAMCHA071101225342225352000010FAMJAM - Open/Close                                                                                                         150                                
PGRFAMCHA071101225352225709000317xxMV Disney - (MD/NS/NSW) - Jonas Bros - Kids of t                                                                     60688120                                
PROFAMCHA071101225709225723000014xxFAMJAM - Close (FAMILY) xxDNUxx                                                                                           150                                
PROFAMCHA071101225723225800000037Naturally Sadie - TEENAGE (NS) Tonight @ 12:00 (MA                                                                          150                                
PRCFAMCHA071101225800225923000123HSM 2 Playback Impact (Oct 1-Nov 30)                                                                                        150                                
PROFAMCHA071101225923225953000030Zoey 101 - QUINN (NS) (MAR07) - Tomorrow @ 6                                                                                150                                
PRCFAMCHA071101225953230000000007NS Bumper - Dodgeball (:07-:09) APR06                                                                                       150                                
ID FAMCHA071101230000230008000008Magic of Disney - NS/NSW/PB - Shape (:06-:09)                                                                               150                                
PRCFAMCHA071101230008230017000009CC Disclaimer - SLOW - Family.ca (:09-:10)                                                                                  150                                
PGRFAMCHA071101230017232256002239Suite Life of Zack & Cody, The                    EP: 04                                                               6068607BCC                              
PRCFAMCHA071101232256232301000005xxAstral ID (FEB05)                                                                                                         150                                
PRCFAMCHA071101232301232314000013NS - 12 - LIFE WITH DEREK/SADIE (:11 - :13) (SEPT0                                                                          150                                
PRCFAMCHA071101232314232345000031xxLife WD - Generic BATHROOM (JULY06) Coming Up Ne                                                                          150                                
PRCFAMCHA071101232345232545000200xxMS - Enchanted  Interview w/J.Marsden Coming Soo                                                                          150                                
PROFAMCHA071101232545232622000037Naturally Sadie - TEENAGE (NS) Tonight @ 12:30 (MA                                                                          150                                
PROFAMCHA071101232622232632000010FAMJAM - Open/Close                                                                                                         150                                
PGRFAMCHA071101232632232817000145MV Disney - Superstition (Raven)                                                                                       60688120                                
PROFAMCHA071101232817232831000014xxFAMJAM - Close (FAMILY) xxDNUxx                                                                                           150                                
PROFAMCHA071101232831232901000030Wizards of Waverrly Place SIBLING (NS) - Tomorrow                                                                           150                                
PROFAMCHA071101232901232933000032Suite Life of Z & C (NSW) Wonderful Hotel - New Ep                                                                          150                                
PROFAMCHA071101232933232947000014Phil of the Future IDs - Ricky Tomato - watching f                                                                          150                                
PRCFAMCHA071101232947233000000013NS Bumper - Fashion (:12-:14) JUNE06 **DNU                                                                                  150                                
PRCFAMCHA071101233000233009000009CC Disclaimer - FAST - Generic (:09-:10)                                                                                    150                                
PGRFAMCHA071101233009235239002230Life with Derek                                   EP: 24                                                        C26679A1065607BCC                              
PRCFAMCHA071101235239235252000013NS - 13 - SADIE/SADIE (:11 - :13) (SEPT07)                                                                                  150                                
PROFAMCHA071101235252235329000037Naturally Sadie - TEENAGE (NS) NEXT (MAY07)                                                                                 150                                
PROFAMCHA071101235329235339000010FAMJAM - Open/Close                                                                                                         150                                
PGRFAMCHA071101235339235733000354MV Disney - (MD/NS/NSW) - Jesse McCartney - Just S                                                                     60688120                                
PROFAMCHA071101235733235747000014xxFAMJAM - Close (FAMILY) xxDNUxx                                                                                           150                                
PROFAMCHA071101235747235821000034Hannah Montana (NS) Wig Auditions - Tomorrow  Afte                                                                          150                                
PRCFAMCHA071101235821235859000038Life W D (NS) Edwin Mystery Man New Episodes - Tom                                                                          150                                
PROFAMCHA071101235859235929000030Popcorn Pix - Slapstick - Tomorrow Night @ 7:30pm                                                                           150                                
PROFAMCHA071101235929235944000015Phil of the Future IDs - Aly Flute Spit - I'm Aly                                                                           150                                
PRCFAMCHA071101235944000000000016NS Bumper - Tennis (:15-:17) APR06                                                                                          150                                
PRCFAMCHA071101000000000009000009CC Disclaimer - SLOW - Family.ca (:09-:10)                                                                                  150                                
PGRFAMCHA071101000009002239002230Naturally, Sadie                                  EP: 12                                                        C24010 1065607ACC                              
PRCFAMCHA071101002239002244000005xxAstral ID (FEB05)                                                                                                         150                                
PRCFAMCHA071101002244002256000012NS - 14 - SADIE/HANNAH (:11 - :13) (SEPT07)                                                                                 150                                
PROFAMCHA071101002256002326000030xxWish Gone Amiss - Nov 9 @ 6pm (Oct 15 - Nov 1) $                                                                          150                                
PROFAMCHA071101002326002400000034Hannah Montana (NS) Wig Auditions - Tomorrow  Afte                                                                          150                                
PROFAMCHA071101002400002430000030Zoey 101 - QUINN (NS) (MAR07) - Tomorrow @ 6                                                                                150                                
PROFAMCHA071101002430002440000010FAMJAM - Open/Close                                                                                                         150                                
PGRFAMCHA071101002440002818000338MV Disney - (MD/NS/NSW) - Jesse McCartney - Just S                                                                     60688120                                
PROFAMCHA071101002818002832000014xxFAMJAM - Close (FAMILY) xxDNUxx                                                                                           150                                
PRCFAMCHA071101002832002910000038Life W D (NS) Edwin Mystery Man New Episodes - Tom                                                                          150                                
PROFAMCHA071101002910002940000030Wizards of Waverrly Place SIBLING (NS) - Tomorrow                                                                           150                                
PRCFAMCHA071101002940002952000012Naturally Sadie ID's (NOV06) - Ben - Sadie Next                                                                             150                                
PRCFAMCHA071101002952003000000008NS Bumper - Dodgeball (:07-:09) APR06                                                                                       150                                
PRCFAMCHA071101003000003009000009CC Disclaimer - SLOW - Generic (:09 -:10)                                                                                   150                                
PGRFAMCHA071101003009005239002230Naturally, Sadie                                  EP: 26                                                        C24010 1065607ACC                              
PRCFAMCHA071101005239005251000012NS - 15 - HANNAH/LIZZIE (:11 - :13) (SEPT07)                                                                                150                                
PROFAMCHA071101005251005320000029Hannah Montana SCIENCE (NS) - Coming Up Next (SEPT                                                                          150                                
PROFAMCHA071101005320005330000010FAMJAM - Open/Close                                                                                                         150                                
PGRFAMCHA071101005330005722000352MV Disney - Superstition (Raven)                                                                                       60688120                                
PROFAMCHA071101005722005736000014xxFAMJAM - Close (FAMILY) xxDNUxx                                                                                           150                                
PRCFAMCHA071101005736005814000038Life W D (NS) Edwin Mystery Man New Episodes - Tom                                                                          150                                
PROFAMCHA071101005814005844000030Popcorn Pix - Slapstick - Tomorrow Night @ 7:30pm                                                                           150                                
PROFAMCHA071101005844005916000032Suite Life of Z & C (NSW) Wonderful Hotel - New Ep                                                                          150                                
PROFAMCHA071101005916005947000031Smart Guy FIGHT (JUNE06) NS - Mon to Thurs nights                                                                           150                                
PRCFAMCHA071101005947010000000013NS Bumper - Fashion (:12-:14) JUNE06 **DNU                                                                                  150                                
ID FAMCHA071101010000010008000008Magic of Disney - NS/NSW/PB - Shape (:06-:09)                                                                               150                                
PRCFAMCHA071101010008010017000009CC Disclaimer - SLOW - Family.ca (:09-:10)                                                                                  150                                
PGRFAMCHA071101010017012253002236Hannah Montana                                    EP: 06                                                               6068807BCC                              
PRCFAMCHA071101012253012258000005xxAstral ID (FEB05)                                                                                                         150                                
PRCFAMCHA071101012258012311000013NS - 16 - LIZZIE/PHIL (:11 - :13) (SEPT07)                                                                                  150                                
PRCFAMCHA071101012311012327000016NS Bumper - Tennis (:15-:17) APR06                                                                                          150                                
ID FAMCHA071101012327012335000008Magic of Disney - NS/NSW/PB - Wipe (:06-:09)                                                                                150                                
PGRFAMCHA071101012335014609002234Lizzie McGuire                                    EP: 2-034                                                            6068607BCC                              
PRCFAMCHA071101014609014622000013NS - 17 - PHIL/BOY MEETS WORLD (:11 - :13) (SEPT07                                                                          150                                
PRCFAMCHA071101014622014630000008NS Bumper - Dodgeball (:07-:09) APR06                                                                                       150                                
ID FAMCHA071101014630014638000008Magic of Disney - NS/NSW/PB - Shape (:06-:09)                                                                               150                                
PGRFAMCHA071101014638020913002235Phil of the Future                                EPS # 21                                                             6068607BCC                              
PRCFAMCHA071101020913020918000005xxAstral ID (FEB05)                                                                                                         150                                
PRCFAMCHA071101020918020931000013NS - 18 - BOY MEETS WORLD/LIFE WITH DEREK (:11 - :                                                                          150                                
PRCFAMCHA071101020931020944000013NS Bumper - Fashion (:12-:14) JUNE06 **DNU                                                                                  150                                
ID FAMCHA071101020944020952000008Magic of Disney - NS/NSW/PB - Wipe (:06-:09)                                                                                150                                
PRCFAMCHA071101020952021001000009CC Disclaimer - SLOW - Generic (:09 -:10)                                                                                   150                                
PGRFAMCHA071101021001023225002224Boy Meets World                                   EP: 1-063                                                           B6068807BCC                              
PRCFAMCHA071101023225023238000013NS - 19 - LIFE WITH DEREK/CORY IN THE HOUSE (:11 -                                                                          150                                
PRCFAMCHA071101023238023254000016NS Bumper - Tennis (:15-:17) APR06                                                                                          150                                
PRCFAMCHA071101023254023303000009CC Disclaimer - SLOW - Family.ca (:09-:10)                                                                                  150                                
PGRFAMCHA071101023303025533002230Life with Derek                                   EP: 20                                                        C26679A1065607BCC                              
PRCFAMCHA071101025533025538000005xxAstral ID (FEB05)                                                                                                         150                                
PRCFAMCHA071101025538025551000013NS - 20 -CORY IN THE HOUSE/RAVEN (:11 - :13) (SEPT                                                                          150                                
PRCFAMCHA071101025551025607000016NS Bumper - Tennis (:15-:17) APR06                                                                                          150                                
ID FAMCHA071101025607025615000008Magic of Disney - NS/NSW/PB - Wipe (:06-:09)                                                                                150                                
PRCFAMCHA071101025615025624000009CC Disclaimer - SLOW - Generic (:09 -:10)                                                                                   150                                
PGRFAMCHA071101025624031902002238Cory in the House                                 EP: 04                                                               6068607BCC                              
PRCFAMCHA071101031902031915000013NS - 21 - RAVEN/ SUITE LIFE (:11 - :13) (SEPT07)                                                                            150                                
PRCFAMCHA071101031915031923000008NS Bumper - Dodgeball (:07-:09) APR06                                                                                       150                                
ID FAMCHA071101031923031931000008Magic of Disney - NS/NSW/PB - Shape (:06-:09)                                                                               150                                
PRCFAMCHA071101031931031940000009CC Disclaimer - SLOW - Family.ca (:09-:10)                                                                                  150                                
PGRFAMCHA071101031940034220002240That's So Raven                                   EPS # 1-027                                                          6068607BCC                              
PRCFAMCHA071101034220034225000005xxAstral ID (FEB05)                                                                                                         150                                
PRCFAMCHA071101034225034238000013NS - 22 - SUITE LIFE/LIFE WITH DEREK (:11 - :13) (                                                                          150                                
PRCFAMCHA071101034238034252000014NS Bumper - Fashion (:12-:14) JUNE06 **DNU                                                                                  150                                
ID FAMCHA071101034252034301000009Magic of Disney - NS/NSW/PB - Wipe (:06-:09)                                                                                150                                
PRCFAMCHA071101034301034311000010CC Disclaimer - SLOW - Generic (:09 -:10)                                                                                   150                                
PGRFAMCHA071101034311040550002239Suite Life of Zack & Cody, The                    EP: 61                                                               6068607BCC                              
PRCFAMCHA071101040550040603000013NS - 23 - LIFE WITH DEREK (:11 - :13) (SEPT07)                                                                              150                                
PRCFAMCHA071101040603040620000017NS Bumper - Tennis (:15-:17) APR06                                                                                          150                                
PRCFAMCHA071101040620040630000010CC Disclaimer - SLOW - Family.ca (:09-:10)                                                                                  150                                
PGRFAMCHA071101040630042900002230Life with Derek                                   EP: 04                                                        C23968A1065607BCC                              
PRCFAMCHA071101042900042905000005xxAstral ID (FEB05)                                                                                                         150                                
PRCFAMCHA071101042905042921000016PH - 01 - KATIE/FRANNY/SOMETHING  (:14 - :16) (SEP                                                                          150                                
PRCFAMCHA071101042921042936000015Franny's Feet - Bowleriffic (PH-Mon) - (APR06) - T                                                                          150                                
PROFAMCHA071101042936042944000008Phil of the Future IDs - I'm Ricky Ullman, You're                                                                           150                                
ID FAMCHA071101042944042959000015PS Playhouse AM Block Open (:10-:15)                                                                                        150                                
OFFFAMCHA071101042959043000000001OFF AIR                                                                                                                                                        
SO FAMCHA071102043000043011000011Sign On (oct 1)                                                                                                                                                
PRCFAMCHA071102043011043020000009CC Disclaimer - FAST - Generic (:09-:10)                                                                                    150                                
PGRFAMCHA071102043020045658002638Katie And Orbie                                   EP: 4-046                                                     C19664A1065607ECC                              
PRCFAMCHA071102045658045703000005xxAstral ID (FEB05)                                                                                                         150                                
PRCFAMCHA071102045703045719000016PH - 02 - FRANNY/SOMETHING/HOZE (:14 - :16) (SEPT0                                                                          150                                
ID FAMCHA071102045719045732000013PS Playhouse AM Block Open (:10-:15)                                                                                        150                                
PRCFAMCHA071102045732045741000009CC Disclaimer - FAST - Family.ca (:09-:10)                                                                                  150                                
PGRFAMCHA071102045741052011002230Franny's Feet                                     EPS # 1-006                                                   C23970A1065607ECC                              
PRCFAMCHA071102052011052027000016PH - 03 - SOMETHING/HOZE/HENRY'S (:14 - :16) (SEPT                                                                          150                                
ID FAMCHA071102052027052040000013PS Playhouse AM Block Open (:10-:15)                                                                                        150                                
PRCFAMCHA071102052040052049000009CC Disclaimer - FAST - Generic (:09-:10)                                                                                    150                                
PGRFAMCHA071102052049054320002231Something Else                                    EP: 1-013                                                     B69267A1065607ECC                              
PRCFAMCHA071102054320054325000005xxAstral ID (FEB05)                                                                                                         150                                
PRCFAMCHA071102054325054341000016PH - 04 - HOZE/HENRY'S/KING (:14 - :16) (SEPT07)                                                                            150                                
ID FAMCHA071102054341054354000013PS Playhouse AM Block Open (:10-:15)                                                                                        150                                
PRCFAMCHA071102054354054403000009CC Disclaimer - FAST - Family.ca (:09-:10)                                                                                  150                                
PGRFAMCHA071102054403060641002238Hoze Houndz                                       EP: 4-042                                                     B63378A1065607ECC                              
PRCFAMCHA071102060641060657000016PH - 05 - HENRY'S WORLD/KING (:14 - :16) (SEPT07)                                                                           150                                
ID FAMCHA071102060657060710000013PS Playhouse AM Block Open (:10-:15)                                                                                        150                                
PRCFAMCHA071102060710060719000009CC Disclaimer - FAST - Generic (:09-:10)                                                                                    150                                
PGRFAMCHA071102060719063122002403Henry's World                                     EP: 2-014                                                     B81045A1065607GCC                              
PRCFAMCHA071102063122063127000005xxAstral ID (FEB05)                                                                                                         150                                
PRCFAMCHA071102063127063143000016PH - 06 - KING (:14 - :16) (SEPT07)                                                                                         150                                
ID FAMCHA071102063143063156000013PS Playhouse AM Block Open (:10-:15)                                                                                        150                                
PRCFAMCHA071102063156063205000009CC Disclaimer - FAST - Family.ca (:09-:10)                                                                                  150                                
PGRFAMCHA071102063205065435002230King                                              EP: 006                                                       B75761 1065607ECC                              
PROFAMCHA071102065435065452000017Kim Possible WHEELS MMM (MAY 07) Coming Up Next                                                                             150                                
PRCFAMCHA071102065452065532000040Magazine Spot (MD,NS,NSW) 2/3 day (not in PH) (til                                                                          150                                
PROFAMCHA071102065532065541000009Raven ID's II - You're Watching Family, NADM                                                                                150                                
PROFAMCHA071102065541065600000019MadMadMornings Block Open                                                                                                   150                                
PRCFAMCHA071102065600065608000008CC Disclaimer - FAST - Generic (:09-:10)                                                                                    150                                
PGRFAMCHA071102065608071901002253Disney's Kim Possible                             EPS # 1-028                                                         A6068607ECC                              
PRCFAMCHA071102071901071906000005xxAstral ID (FEB05)                                                                                                         150                                
PROFAMCHA071102071906071944000038xxHSM 2 DVD Release Contest (Nov 1 -2) $$$                                                                                  150                                
PROFAMCHA071102071944072008000024xxRecess - MONTAGE (MMM) - (JULY06) - Coming Up Ne                                                                          150                                
PROFAMCHA071102072008072041000033xxRatatouille DVD Blast - Available Nov 6 (Oct 25                                                                           150                                
PROFAMCHA071102072041072120000039Weekenders - (MMM) Alternate Universe - This Morni                                                                          150                                
PROFAMCHA071102072120072132000012Family Bumpers - (Phase 3 Spring 05) - Bake (MD/NS                                                                          150                                
