SO FAMCHA071001043000043011000011Sign On (oct 1)                                                                                                                                                
PRCFAMCHA071001043011043020000009CC Disclaimer - FAST - Generic (:09-:10)                                                                                    150                                
PGRFAMCHA071001043020045655002635Katie And Orbie                                   EP: 2-022                                                     C11896A1065607ECC                              
PRCFAMCHA071001045655045711000016PH - 02 - FRANNY/SOMETHING/HOZE (:14 - :16) (SEPT0                                                                          150                                
ID FAMCHA071001045711045724000013PS Playhouse AM Block Open (:10-:15)                                                                                        150                                
PRCFAMCHA071001045724045733000009CC Disclaimer - FAST - Family.ca (:09-:10)                                                                                  150                                
PGRFAMCHA071001045733052003002230Franny's Feet                                     EPS # 20                                                      C23971 1065607ECC                              
PRCFAMCHA071001052003052008000005xxAstral ID (FEB05)                                                                                                         150                                
PRCFAMCHA071001052008052024000016PH - 03 - SOMETHING/HOZE/HENRY'S (:14 - :16) (SEPT                                                                          150                                
ID FAMCHA071001052024052037000013PS Playhouse AM Block Open (:10-:15)                                                                                        150                                
PRCFAMCHA071001052037052046000009CC Disclaimer - FAST - Generic (:09-:10)                                                                                    150                                
PGRFAMCHA071001052046054317002231Something Else                                    EP: 1-002                                                     B69256A1065607ECC                              
PRCFAMCHA071001054317054333000016PH - 04 - HOZE/HENRY'S/KING (:14 - :16) (SEPT07)                                                                            150                                
ID FAMCHA071001054333054346000013PS Playhouse AM Block Open (:10-:15)                                                                                        150                                
PRCFAMCHA071001054346054355000009CC Disclaimer - FAST - Family.ca (:09-:10)                                                                                  150                                
PGRFAMCHA071001054355060633002238Hoze Houndz                                       EP: 5-058                                                     B63394A1065607ECC                              
PRCFAMCHA071001060633060638000005xxAstral ID (FEB05)                                                                                                         150                                
PRCFAMCHA071001060638060654000016PH - 05 - HENRY'S WORLD/KING (:14 - :16) (SEPT07)                                                                           150                                
ID FAMCHA071001060654060707000013PS Playhouse AM Block Open (:10-:15)                                                                                        150                                
PRCFAMCHA071001060707060716000009CC Disclaimer - FAST - Generic (:09-:10)                                                                                    150                                
PGRFAMCHA071001060716063117002401Henry's World                                     EP: 2-015                                                     B81046A1065607GCC                              
PRCFAMCHA071001063117063133000016PH - 06 - KING (:14 - :16) (SEPT07)                                                                                         150                                
ID FAMCHA071001063133063146000013PS Playhouse AM Block Open (:10-:15)                                                                                        150                                
PRCFAMCHA071001063146063154000008CC Disclaimer - FAST - Family.ca (:09-:10)                                                                                  150                                
PGRFAMCHA071001063154065424002230King                                              EPS # 034                                                     C25350 1065607ECC                              
PRCFAMCHA071001065424065429000005xxAstral ID (FEB05)                                                                                                         150                                
PROFAMCHA071001065429065446000017Kim Possible WHEELS MMM (MAY 07) Coming Up Next                                                                             150                                
PROFAMCHA071001065446065529000043xxZoey 101 Back to School Version #2 (Sept 2 - Oct                                                                          150                                
PRCFAMCHA071001065529065540000011Naturally Sadie ID's - I'm Charlotte, you're watch                                                                          150                                
PROFAMCHA071001065540065559000019MadMadMornings Block Open                                                                                                   150                                
PRCFAMCHA071001065559065607000008CC Disclaimer - FAST - Generic (:09-:10)                                                                                    150                                
PGRFAMCHA071001065607071900002253Disney's Kim Possible                             EP: 1-003                                                           A6068607ECC                              
PROFAMCHA071001071900071924000024xxRecess - MONTAGE (MD) - JULY06 - Coming Up Next                                                                           150                                
PROFAMCHA071001071924071959000035xxJungle Book DVD Blast Available Oct 2 (Sept 17 -                                                                          150                                
PROFAMCHA071001071959072038000039Weekenders - (MMM) Alternate Universe - This Morni                                                                          150                                
PROFAMCHA071001072038072045000007MadMadMornings Bumper                                                                                                       150                                
PRCFAMCHA071001072045072145000100xxGame Plan Interstitials - Workout (Sept 7- Oct 0                                                                          150                                
PROFAMCHA071001072145072216000031American Dragon Jake Long (MD) (APR07) HERO This A                                                                          150                                
PROFAMCHA071001072216072236000020Emperor's New School - Malina Date -This Afternoon                                                                          150                                
PROFAMCHA071001072236072306000030xxHannah Montana/Johnny Kapahala DVD Blast - Comin                                                                          150                                
PROFAMCHA071001072306072345000039xxHalloween Contest Spot (Oct 1 - 31) $$$                                                                                   150                                
PROFAMCHA071001072345072404000019MadMadMornings Block Open                                                                                                   150                                
PGRFAMCHA071001072404074640002236Disney's Recess                                   EP: 1-046                                                            6068607ECC                              
PRCFAMCHA071001074640074645000005xxAstral ID (FEB05)                                                                                                         150                                
PROFAMCHA071001074645074739000054xxHalloween Event Spot-Popcorn Picks Fri Nites/Wkn                                                                          150                                
PROFAMCHA071001074739074818000039Weekenders - (MMM) Alternate Universe - Coming Up                                                                           150                                
PROFAMCHA071001074818074905000047xxHSM - The Ice Tour - Dance Along (Sept 24 - Oct                                                                           150                                
PROFAMCHA071001074905074921000016xxKim Possible FINGER TAUNT (MD) (July 06) This af                                                                          150                                
PROFAMCHA071001074921074940000019Emperor's New School - Too Much Info - This Aftern                                                                          150                                
PROFAMCHA071001074940075010000030Popcorn Pix - Slapstick - Friday Night @ 7:30pm                                                                             150                                
PRCFAMCHA071001075010075040000030xxFamous Players Popcorn Parties 2 (May 2-Jan 31/0                                                                          150                                
PROFAMCHA071001075040075046000006Phil of the Future IDs - Your Watching Family...NA                                                                          150                                
PROFAMCHA071001075046075105000019MadMadMornings Block Open                                                                                                   150                                
PRCFAMCHA071001075105075115000010CC Disclaimer - FAST - Family.ca (:09-:10)                                                                                  150                                
PGRFAMCHA071001075115081410002255Disney's The Weekenders                           EP: 1-008                                                           A6068607ECC                              
PROFAMCHA071001081410081434000024xxRecess - MONTAGE (MD) - JULY06 - This morn @ 11:                                                                          150                                
PRCFAMCHA071001081434081514000040Magazine Spot (MD,NS,NSW) 2/3 day (not in PH) (til                                                                          150                                
PROFAMCHA071001081514081532000018xxKim Possible WHEELS MD (MAY 07) This afternoon @                                                                          150                                
PROFAMCHA071001081532081542000010FAMJAM - Open/Close                                                                                                         150                                
PGRFAMCHA071001081542081659000117MV Disney - (MD/NS/NSW) - Jesse McCartney - Just S                                                                     60688120                                
PROFAMCHA071001081659081713000014xxFAMJAM - Close (FAMILY) xxDNUxx                                                                                           150                                
PROFAMCHA071001081713081748000035xxBullying Rally Nomination Spot (Sept 21 - Oct 15                                                                          150                                
PROFAMCHA071001081748081807000019MadMadMornings Block Open                                                                                                   150                                
PGRFAMCHA071001081807084101002254Disney's Lloyd In Space                           EP: 21                                                               6068607ECC                              
PRCFAMCHA071001084101084106000005xxAstral ID (FEB05)                                                                                                         150                                
PRCFAMCHA071001084106084121000015PH - 07 - EINSTEINS/FRANNY'S/TIGGER & POOH (:14 -                                                                           150                                
PROFAMCHA071001084121084200000039Little Einstein (PH) LOVE - Coming Up Next (MAY07)                                                                          150                                
PGRFAMCHA071001084200084455000255xxThey Might Be Giants (ABC's) - The Alphabet Lost                                                                     60688120                                
ID FAMCHA071001084455084505000010PS Playhouse AM Block Open (:10-:15)                                                                                        150                                
PGRFAMCHA071001084505090910002405Disney's Little Einsteins                         EP: 11                                                               6068607ECC                              
PRCFAMCHA071001090910090924000014PH - 08 - FRANNY'S/TIGGER & POOH/ CLUB HOUSE (:14                                                                           150                                
PRCFAMCHA071001090924090954000030Franny's Feet - Concept  (APR06)(PH-M/Wknd) - Comi                                                                          150                                
PROFAMCHA071001090954091050000056xxHandy Mandy TOOLS (PH) This Morning @ 10:30am (S                                                                          150                                
ID FAMCHA071001091050091100000010PS Playhouse AM Block Open (:10-:15)                                                                                        150                                
PRCFAMCHA071001091100091109000009CC Disclaimer - FAST - Family.ca (:09-:10)                                                                                  150                                
PGRFAMCHA071001091109093339002230Franny's Feet                                     EPS # 32                                                      C23971 1065607ECC                              
PRCFAMCHA071001093339093344000005xxAstral ID (FEB05)                                                                                                         150                                
PRCFAMCHA071001093344093400000016PH - 09 - TIGGER & POOH/ CLUB HOUSE/HANDY (:14 - :                                                                          150                                
PROFAMCHA071001093400093450000050Tigger & Pooh WHAT'S NEW (PH) Coming Up Next (SEPT                                                                          150                                
PRCFAMCHA071001093450093509000019xxPlayhouse - HOZE HOUNDZ - Code Blue                                                                                       150                                
PROFAMCHA071001093509093539000030Mickey Mouse Clubhouse GENERIC - This Morning @ 10                                                                          150                                
PGRFAMCHA071001093539093649000110xxThey Might Be Giants (ABC's) - Letter/Not A Lett                                                                     60688120                                
ID FAMCHA071001093649093700000011PS Playhouse AM Block Open (:10-:15)                                                                                        150                                
PRCFAMCHA071001093700093709000009CC Disclaimer - FAST - Generic (:09-:10)                                                                                    150                                
PGRFAMCHA071001093709100117002408Disney My Friends Tigger and Pooh                 EP: 02                                                               6068607ECC                              
PRCFAMCHA071001100117100133000016PH - 12 - CLUB HOUSE/HANDY/BENJAMIN BEAR (:14 - :1                                                                          150                                
PROFAMCHA071001100133100203000030Mickey Mouse Clubhouse GENERIC - Coming Up Next                                                                             150                                
PRCFAMCHA071001100203100238000035xxPlayhouse - KATIE & ORBIE - Discoveries                                                                                   150                                
PRCFAMCHA071001100238100309000031King (PH) (APR06) - This Morning @ 11:25am                                                                                  150                                
PROFAMCHA071001100309100348000039Little Einstein (PH) LOVE - Tomorrow Morning @ 8:4                                                                          150                                
ID FAMCHA071001100348100400000012PS Playhouse AM Block Open (:10-:15)                                                                                        150                                
ID FAMCHA071001100400100408000008Magic of Disney - PLAYHOUSE - Shape (:06-:09)                                                                               150                                
PGRFAMCHA071001100408102813002405Disney's Mickey Mouse Clubhouse                   EP: 24                                                               6068607ECC                              
PRCFAMCHA071001102813102818000005xxAstral ID (FEB05)                                                                                                         150                                
PRCFAMCHA071001102818102834000016PH - 15 - HANDY/BENJAMIN BEAR/KING (:14 - :16) (SE                                                                          150                                
PROFAMCHA071001102834102930000056xxHandy Mandy TOOLS (PH) Coming Up Next (SEPT07)                                                                            150                                
PRCFAMCHA071001102930103001000031King (PH) (APR06) - This Morning @ 11:25am                                                                                  150                                
PRCFAMCHA071001103001103015000014xxPlayhouse - HOZE HOUNDZ - Skater                                                                                          150                                
PRCFAMCHA071001103015103045000030Franny's Feet - Concept (APR06)(PH-Mon) - Tomorrow                                                                          150                                
ID FAMCHA071001103045103100000015PS Playhouse AM Block Open (:10-:15)                                                                                        150                                
ID FAMCHA071001103100103108000008Magic of Disney - PLAYHOUSE - Wipe (:06-:09)                                                                                150                                
PGRFAMCHA071001103108105513002405Handy Manny                                       EP: 07                                                               6068607ECC                              
PRCFAMCHA071001105513105529000016PH - 18 - BENJAMIN BEAR/KING/RECESS (:14 - :16) (S                                                                          150                                
PRCFAMCHA071001105529105541000012Benjamin Bear - Slide (PH-) (APR06) -Coming Up Nex                                                                          150                                
PRCFAMCHA071001105541105616000035xxPlayhouse - KATIE & ORBIE - Did You Know?                                                                                 150                                
PROFAMCHA071001105616105646000030xxJohnny and the Sprites LILY (PH) Tomorrow Mornin                                                                          150                                
ID FAMCHA071001105646105700000014PS Playhouse AM Block Open (:10-:15)                                                                                        150                                
PRCFAMCHA071001105700105709000009CC Disclaimer - FAST - Family.ca (:09-:10)                                                                                  150                                
PGRFAMCHA071001105709111939002230Secret World of Benjamin Bear, The                EP: 19                                                        C26066 1065607ECC                              
PRCFAMCHA071001111939111944000005xxAstral ID (FEB05)                                                                                                         150                                
PRCFAMCHA071001111944111958000014PH - 19 - KING/RECESS/KIM POSSIBLE (:14 - :16) (SE                                                                          150                                
PRCFAMCHA071001111958112029000031King (PH) (APR06) - Coming Up Next                                                                                          150                                
PGRFAMCHA071001112029112329000300xxThey Might Be Giants (ABC's) - Can You Find It?                                                                      60688120                                
PROFAMCHA071001112329112408000039Little Einstein (PH) LOVE - Tomorrow Morning @ 8:4                                                                          150                                
PRCFAMCHA071001112408112427000019xxPlayhouse - HOZE HOUNDZ - Code Blue                                                                                       150                                
PRCFAMCHA071001112427112447000020Benjamin Bear - Snack (PHwknd) (APR06) - Weekend M                                                                          150                                
ID FAMCHA071001112447112500000013PS Playhouse AM Block Open (:10-:15)                                                                                        150                                
PRCFAMCHA071001112500112509000009CC Disclaimer - FAST - Generic (:09-:10)                                                                                    150                                
PGRFAMCHA071001112509114739002230King                                              EP: 011                                                       B75766 1065607ECC                              
PRCFAMCHA071001114739114752000013MD - 01 - RECESS/KIM (:11 - :13) (SEPT07)                                                                                   150                                
PRCFAMCHA071001114752114832000040Magazine Spot (MD,NS,NSW) 2/3 day (not in PH) (til                                                                          150                                
PRCFAMCHA071001114832114843000011Naturally Sadie ID's - I'm Charlotte, you're watch                                                                          150                                
PROFAMCHA071001114843114900000017Mad Dash Block Open (:16-:18) APR06                                                                                         150                                
PGRFAMCHA071001114900121150002250Disney's Recess                                   EP: 1-060                                                           A6068607E                                
PRCFAMCHA071001121150121155000005xxAstral ID (FEB05)                                                                                                         150                                
PRCFAMCHA071001121155121208000013MD - 02 - KIM/WEEKENDERS (:11 - :13) (SEPT07)                                                                               150                                
PRCFAMCHA071001121208121238000030xxFamous Players Popcorn Parties 2 (May 2-Jan 31/0                                                                          150                                
PROFAMCHA071001121238121252000014Phil of the Future IDs - Ricky Tomato - watching f                                                                          150                                
PRCFAMCHA071001121252121300000008MD Bumper - Race Cars (:08-:10) APR06                                                                                       150                                
PRCFAMCHA071001121300121309000009CC Disclaimer - FAST - Family.ca (:09-:10)                                                                                  150                                
PGRFAMCHA071001121309123558002249Disney's Kim Possible                             EPS # 1-026                                                         A6068607ECC                              
PRCFAMCHA071001123558123611000013MD - 03 - WEEKENDERS/AMERICAN DRAGON (:11 - :13) (                                                                          150                                
PROFAMCHA071001123611123643000032xxThanksgiving Stunt TURKEY -  Next Monday Startin                                                                          150                                
PRCFAMCHA071001123643123700000017MD Bumper - Shopping Race (:15-:17) APR06                                                                                   150                                
PRCFAMCHA071001123700123709000009CC Disclaimer - FAST - Generic (:09-:10)                                                                                    150                                
PGRFAMCHA071001123709130001002252Disney's The Weekenders                           EP: 1-009                                                           A6068607ECC                              
PRCFAMCHA071001130001130006000005xxAstral ID (FEB05)                                                                                                         150                                
PRCFAMCHA071001130006130018000012MD - 04 - AMERICAN DRAGON/EMPEROR'S (:11 - :13) (S                                                                          150                                
PRCFAMCHA071001130018130026000008MD Bumper - Ski Race (:07-:09) APR06                                                                                        150                                
PRCFAMCHA071001130026130035000009CC Disclaimer - FAST - Family.ca (:09-:10)                                                                                  150                                
PGRFAMCHA071001130035132314002239Disney's American Dragon: Jake Long               EP: 43                                                               6068607ECC                              
PRCFAMCHA071001132314132327000013MD - 05 - EMPEROR'S/FILLMORE (:11 - :13) (SEPT07)                                                                           150                                
PROFAMCHA071001132327132345000018Emperor's New School BUTT IN URN (MD) Coming Up Ne                                                                          150                                
PROFAMCHA071001132345132351000006Phil of the Future IDs - Your Watching Family...NA                                                                          150                                
PRCFAMCHA071001132351132400000009MD Bumper - Race Cars (:08-:10) APR06                                                                                       150                                
PGRFAMCHA071001132400134636002236Disney's The Emperor's New School                 EP: 14                                                               6068807ECC                              
PRCFAMCHA071001134636134641000005xxAstral ID (FEB05)                                                                                                         150                                
PRCFAMCHA071001134641134653000012MD - 06 - FILLMORE/PROUD FAMILY (:11 - :13) (SEPT0                                                                          150                                
PROFAMCHA071001134653134728000035xxBullying Rally Nomination Spot (Sept 21 - Oct 15                                                                          150                                
PROFAMCHA071001134728134743000015Kim Possible BOYFRIEND (MD) This Afternoons @ 3pm                                                                           150                                
PRCFAMCHA071001134743134800000017MD Bumper - Shopping Race (:15-:17) APR06                                                                                   150                                
PGRFAMCHA071001134800141038002238Disney's Fillmore!                                EPS # 1-008                                                          6068607ECC                              
PRCFAMCHA071001141038141050000012MD - 07 - PROUD FAMILY/WEEKENDERS (:11 - :13) (SEP                                                                          150                                
PROFAMCHA071001141050141129000039xxHalloween Contest Spot (Oct 1 - 31) $$$                                                                                   150                                
PROFAMCHA071001141129141153000024xxRecess - MONTAGE (MD) - JULY06 - This afternoon                                                                           150                                
PRCFAMCHA071001141153141200000007MD Bumper - Ski Race (:07-:09) APR06                                                                                        150                                
ID FAMCHA071001141200141208000008Magic of Disney - MAD DASH - Shape (:06-:09)                                                                                150                                
PRCFAMCHA071001141208141217000009CC Disclaimer - FAST - Generic (:09-:10)                                                                                    150                                
PGRFAMCHA071001141217143445002228The Proud Family                                  EP: 1-021                                                           A6068607ECC                              
PRCFAMCHA071001143445143450000005xxAstral ID (FEB05)                                                                                                         150                                
PRCFAMCHA071001143450143502000012MD - 08 - WEEKENDERS/KIM (:11 - :13) (SEPT07) $$$                                                                           150                                
PROFAMCHA071001143502143534000032xxThanksgiving Stunt TURKEY -  Next Monday Startin                                                                          150                                
PROFAMCHA071001143534143544000010Phil of the Future IDs - Ricky Typing - log on to                                                                           150                                
PRCFAMCHA071001143544143600000016MD Bumper - Shopping Race (:15-:17) APR06                                                                                   150                                
PRCFAMCHA071001143600143609000009CC Disclaimer - FAST - Family.ca (:09-:10)                                                                                  150                                
PGRFAMCHA071001143609145901002252Disney's The Weekenders                           EP: 1-009                                                           A6068607ECC                              
PRCFAMCHA071001145901145914000013MD - 09 - KIM/REPLACEMENTS (:11 - :13) (SEPT07) $$                                                                          150                                
PROFAMCHA071001145914145944000030Popcorn Pix - Slapstick - Friday Night @ 7:30pm                                                                             150                                
PROFAMCHA071001145944145952000008Raven ID's II - Log onto family.ca                                                                                          150                                
PRCFAMCHA071001145952150000000008MD Bumper - Ski Race (:07-:09) APR06                                                                                        150                                
PRCFAMCHA071001150000150009000009CC Disclaimer - FAST - Generic (:09-:10)                                                                                    150                                
PGRFAMCHA071001150009152259002250Disney's Kim Possible                             EP: 1-016                                                           A6068607ECC                              
PRCFAMCHA071001152259152304000005xxAstral ID (FEB05)                                                                                                         150                                
PRCFAMCHA071001152304152317000013MD - 10 - REPLACEMENTS/EMPEROR'S (:11 - :13) (SEPT                                                                          150                                
PROFAMCHA071001152317152411000054xxHalloween Event Spot-Popcorn Picks Fri Nites/Wkn                                                                          150                                
PROFAMCHA071001152411152441000030xxReplacements  LIBRARIAN (MD) Coming Up Next (SEP                                                                          150                                
PROFAMCHA071001152441152511000030xxHannah Montana/Johnny Kapahala DVD Blast - Comin                                                                          150                                
PROFAMCHA071001152511152545000034Proud Family (APR06) GET BURNED (MD) - This Aftern                                                                          150                                
PROFAMCHA071001152545152551000006Phil of the Future IDs - Your Watching Family...NA                                                                          150                                
PRCFAMCHA071001152551152600000009MD Bumper - Race Cars (:08-:10) APR06                                                                                       150                                
PGRFAMCHA071001152600154835002235Disney's The Replacements                         EP: 01                                                               2068607ECC                              
PRCFAMCHA071001154835154848000013MD - 11 - EMPEROR'S/PROUD FAMILY (:11 - :13) (SEPT                                                                          150                                
PROFAMCHA071001154848154915000027Emperor's New School ZIT (MD) Coming Up Next (SEPT                                                                          150                                
PROFAMCHA071001154915154950000035xxJungle Book DVD Blast Available Oct 2 (Sept 17 -                                                                          150                                
PROFAMCHA071001154950155014000024xxRecess - MONTAGE (MD) - JULY06 - This afternoon                                                                           150                                
PRCFAMCHA071001155014155021000007Family Bumpers - (Phase 2 F/W 04) - Hockey (MD-L/M                                                                          150                                
PROFAMCHA071001155021155054000033Suite Life of Z & C - MD - SCOUT TROOP - This Afte                                                                          150                                
PROFAMCHA071001155054155109000015Kim Possible BOYFRIEND (MD) Tomorrow Afternoons @                                                                           150                                
PROFAMCHA071001155109155144000035xxBullying Rally Nomination Spot (Sept 21 - Oct 15                                                                          150                                
PRCFAMCHA071001155144155201000017MD Bumper - Shopping Race (:15-:17) APR06                                                                                   150                                
PGRFAMCHA071001155201161437002236Disney's The Emperor's New School                 EP: 21                                                               6068807ECC                              
PRCFAMCHA071001161437161442000005xxAstral ID (FEB05)                                                                                                         150                                
PRCFAMCHA071001161442161454000012MD - 12 - PROUD FAMILY/RECESS (:11 - :13) (SEPT07)                                                                          150                                
PROFAMCHA071001161454161526000032xxThanksgiving Stunt TURKEY -  Next Monday Startin                                                                          150                                
PROFAMCHA071001161526161600000034Proud Family (APR06) GET BURNED (MD) - Coming Up N                                                                          150                                
PROFAMCHA071001161600161647000047xxHSM - The Ice Tour - Dance Along (Sept 24 - Oct                                                                           150                                
PROFAMCHA071001161647161653000006Phil of the Future IDs - Your Watching Family...NA                                                                          150                                
PRCFAMCHA071001161653161700000007MD Bumper - Ski Race (:07-:09) APR06                                                                                        150                                
ID FAMCHA071001161700161708000008Magic of Disney - MAD DASH - Wipe (:06-:09)                                                                                 150                                
PRCFAMCHA071001161708161717000009CC Disclaimer - FAST - Family.ca (:09-:10)                                                                                  150                                
PGRFAMCHA071001161717163946002229The Proud Family                                  EP: 1-014                                                           A6068607ECC                              
PRCFAMCHA071001163946163959000013MD - 13 - RECESS/SUITE LIFE (:11 - :13) (SEPT07) $                                                                          150                                
PROFAMCHA071001163959164053000054xxHalloween Event Spot-Popcorn Picks Fri Nites/Wkn                                                                          150                                
PROFAMCHA071001164053164138000045xxRecess - SNACKS FOR SNITCHES (MD) - (MAY06) - Co                                                                          150                                
PROFAMCHA071001164138164216000038xxMaple Leaf Foods Contest Promo - Lunch mate City                                                                          150                                
PROFAMCHA071001164216164245000029Hannah Montana SCIENCE (MD) - This Afternoon @ 5:3                                                                          150                                
PROFAMCHA071001164245164252000007Aly & A.J. IDs - (A.J.) You're watching Family, NA                                                                          150                                
PRCFAMCHA071001164252164302000010MD Bumper - Race Cars (:08-:10) APR06                                                                                       150                                
PGRFAMCHA071001164302170536002234Disney's Recess                                   EP: 1-033                                                            6068607ECC                              
PRCFAMCHA071001170536170541000005xxAstral ID (FEB05)                                                                                                         150                                
PRCFAMCHA071001170541170552000011MD - 14 - SUITE LIFE/HANNAH (:11 - :13) (SEPT07) $                                                                          150                                
PROFAMCHA071001170552170631000039xxHalloween Contest Spot (Oct 1 - 31) $$$                                                                                   150                                
PROFAMCHA071001170631170650000019Emperor's New School - Too Much Info - Tomorrow Af                                                                          150                                
PROFAMCHA071001170650170737000047xxHSM - The Ice Tour - Dance Along (Sept 24 - Oct                                                                           150                                
PROFAMCHA071001170737170746000009Suite Life ID - You're watching Suite Life on Fami                                                                          150                                
PRCFAMCHA071001170746170801000015MD Bumper - Shopping Race (:15-:17) APR06                                                                                   150                                
ID FAMCHA071001170801170809000008Magic of Disney - MAD DASH - Shape (:06-:09)                                                                                150                                
PRCFAMCHA071001170809170818000009CC Disclaimer - FAST - Family.ca (:09-:10)                                                                                  150                                
PGRFAMCHA071001170818173056002238Suite Life of Zack & Cody, The                    EP: 59                                                               6068607BCC                              
PRCFAMCHA071001173056173108000012MD - 15 - HANNAH/ZOEY 101 (:11 - :13) (SEPT07) $$$                                                                          150                                
PROFAMCHA071001173108173140000032xxThanksgiving Stunt TURKEY -  Next Monday Startin                                                                          150                                
PROFAMCHA071001173140173209000029Hannah Montana SCIENCE (MD) - Coming Up Next (JULY                                                                          150                                
PROFAMCHA071001173209173244000035xxJungle Book DVD Blast Available Oct 2 (Sept 17 -                                                                          150                                
PROFAMCHA071001173244173302000018Kim Possible WHEELS (MD) Tomorrow Afternoon @ 3pm                                                                           150                                
PROFAMCHA071001173302173343000041xxEurope Bound Spot # 1 (No Tag) (Sept 27-Dec 2) $                                                                          150                                
PROFAMCHA071001173343173353000010Phil of the Future IDs - Ricky Typing - log on to                                                                           150                                
PRCFAMCHA071001173353173400000007MD Bumper - Ski Race (:07-:09) APR06                                                                                        150                                
ID FAMCHA071001173400173408000008Magic of Disney - MAD DASH - Shape (:06-:09)                                                                                150                                
PRCFAMCHA071001173408173417000009CC Disclaimer - FAST - Generic (:09-:10)                                                                                    150                                
PGRFAMCHA071001173417175655002238Hannah Montana                                    EP: 25                                                               6068807BCC                              
PRCFAMCHA071001175655175700000005xxAstral ID (FEB05)                                                                                                         150                                
PRCFAMCHA071001175700175713000013NS - 01 - ZOEY 101/SADIE (:11 - :13) (SEPT07)                                                                               150                                
PROFAMCHA071001175713175743000030Zoey 101 - QUINN (NS) (MAR07) - Coming Up Next                                                                              150                                
PROFAMCHA071001175743175826000043xxZoey 101 Back to School Version #2 (Sept 2 - Oct                                                                          150                                
PROFAMCHA071001175826175855000029xxThat's So Raven (AUG06) BEAUTY MARK - NS - Tonig                                                                          150                                
PROFAMCHA071001175855175933000038xxMaple Leaf Foods Contest Promo - Lunch mate City                                                                          150                                
PRCFAMCHA071001175933175943000010Naturally Sadie ID's - Log on to family.ca                                                                                  150                                
PROFAMCHA071001175943180000000017Nonstop Block Open (:16-:18) APR06                                                                                          150                                
PRCFAMCHA071001180000180009000009CC Disclaimer - FAST - Family.ca (:09-:10)                                                                                  150                                
PGRFAMCHA071001180009182341002332Zoey 101                                          EP: 17                                                              A2068807BCC                              
PRCFAMCHA071001182341182353000012NS - 02 - SADIE/RAVEN (:11 - :13) (SEPT07) $$$                                                                              150                                
PROFAMCHA071001182353182428000035xxBullying Rally Nomination Spot (Sept 21 - Oct 15                                                                          150                                
PROFAMCHA071001182428182505000037Naturally Sadie - TEENAGE (NS) NEXT (MAY07)                                                                                 150                                
PROFAMCHA071001182505182548000043xxZoey 101 Back to School Version #2 (Sept 2 - Oct                                                                          150                                
PROFAMCHA071001182548182618000030Smart Guy MOE MUSIC (JUNE06) NS Tonight @ 7:30                                                                              150                                
PROFAMCHA071001182618182628000010FAMJAM - Open/Close                                                                                                         150                                
PGRFAMCHA071001182628182758000130MV Disney - (MD/NS/NSW) - Jesse McCartney - Just S                                                                     60688120                                
PROFAMCHA071001182758182812000014xxFAMJAM - Close (FAMILY) xxDNUxx                                                                                           150                                
PROFAMCHA071001182812182841000029Hannah Montana SCIENCE (NS) - New Eps Friday's @ 5                                                                          150                                
PROFAMCHA071001182841182922000041xxEurope Bound Spot # 1 (No Tag) (Sept 27-Dec 2) $                                                                          150                                
PRCFAMCHA071001182922182944000022Naturally Sadie ID's (NOV06) - Margaret - Sadie Ne                                                                          150                                
PRCFAMCHA071001182944183000000016NS Bumper - Tennis (:15-:17) APR06                                                                                          150                                
PRCFAMCHA071001183000183009000009CC Disclaimer - FAST - Generic (:09-:10)                                                                                    150                                
PGRFAMCHA071001183009185239002230Naturally, Sadie                                  EP: 24                                                        C24010 1065607ACC                              
PRCFAMCHA071001185239185244000005xxAstral ID (FEB05)                                                                                                         150                                
PRCFAMCHA071001185244185257000013NS - 03 - RAVEN/SMART GUY (:11 - :13) (SEPT07)                                                                              150                                
PROFAMCHA071001185257185326000029xxThat's So Raven (APR06) HELLO LADIES (NS) - Comi                                                                          150                                
PROFAMCHA071001185326185404000038xxMaple Leaf Foods Contest Promo - Lunch mate City                                                                          150                                
PROFAMCHA071001185404185417000013Family Bumpers - (Phase 2 F/W 04) - Leaves (PB/MD-                                                                          150                                
PROFAMCHA071001185417185427000010FAMJAM - Open/Close                                                                                                         150                                
PGRFAMCHA071001185427185757000330MV Disney - (MD/NS/NSW) - Jesse McCartney - Just S                                                                     60688120                                
PROFAMCHA071001185757185811000014xxFAMJAM - Close (FAMILY) xxDNUxx                                                                                           150                                
PROFAMCHA071001185811185847000036Suite Life of Z & C - NS - GOLF - Tonight @ 8:00 (                                                                          150                                
PROFAMCHA071001185847185934000047xxHSM - The Ice Tour - Dance Along (Sept 24 - Oct                                                                           150                                
PRCFAMCHA071001185934185952000018xxLife with Derek NS OJ (SEPT06) Tonight at 8:30pm                                                                          150                                
PRCFAMCHA071001185952190000000008NS Bumper - Dodgeball (:07-:09) APR06                                                                                       150                                
ID FAMCHA071001190000190008000008Magic of Disney - NS/NSW/PB - Shape (:06-:09)                                                                               150                                
PRCFAMCHA071001190008190017000009CC Disclaimer - FAST - Family.ca (:09-:10)                                                                                  150                                
PGRFAMCHA071001190017192256002239That's So Raven                                   EP: 090                                                              6068607BCC                              
PRCFAMCHA071001192256192308000012NS - 04 - SMART GUY/SUITE LIFE (:11 - :13) (SEPT07                                                                          150                                
PROFAMCHA071001192308192338000030Smart Guy MOE MUSIC (JUNE06) NS Coming Up Next                                                                              150                                
PROFAMCHA071001192338192413000035xxJungle Book DVD Blast Available Oct 2 (Sept 17 -                                                                          150                                
PRCFAMCHA071001192413192443000030xxLife with Derek (NS) MORE FUN (OCT06)  Tonight @                                                                          150                                
PRCFAMCHA071001192443192608000125xxMS - Game Plan - The Rock Interview - Now Playin                                                                          150                                
PROFAMCHA071001192608192617000009xxFamily Bumpers - (Phase 3 Spring 05) - Giant Foo                                                                          150                                
PRCFAMCHA071001192617192816000159xxHSM 2 Interstitial - Movie Ent Story & Interview                                                                          150                                
PROFAMCHA071001192816192837000021xxNeds DSSG Rock Idol NSW (MAY06) Weekend mornings                                                                          150                                
PROFAMCHA071001192837192909000032xxTransformers DVD Blast - Coming Soon (Oct.1-15)                                                                           150                                
PROFAMCHA071001192909192948000039xxHalloween Contest Spot (Oct 1 - 31) $$$                                                                                   150                                
PRCFAMCHA071001192948193000000012NS Bumper - Fashion (:12-:14) APR06                                                                                         150                                
ID FAMCHA071001193000193008000008Magic of Disney - NS/NSW/PB - Wipe (:06-:09)                                                                                150                                
PRCFAMCHA071001193008193017000009CC Disclaimer - FAST - Generic (:09-:10)                                                                                    150                                
PGRFAMCHA071001193017195242002225Smart Guy                                         EP: 1-002                                                            6068807BCC                              
PRCFAMCHA071001195242195247000005xxAstral ID (FEB05)                                                                                                         150                                
PRCFAMCHA071001195247195300000013NS - 05 - SUITE LIFE/LIFE WITH DEREK (:11 - :13) (                                                                          150                                
PROFAMCHA071001195300195336000036Suite Life of Z & C - NS - GOLF - Coming Up Next (                                                                          150                                
PROFAMCHA071001195336195406000030xxHannah Montana/Johnny Kapahala DVD Blast - Comin                                                                          150                                
PROFAMCHA071001195406195435000029Hannah Montana SCIENCE (NS) - Tonight @ 9pm (SEPT0                                                                          150                                
PROFAMCHA071001195435195445000010FAMJAM - Open/Close                                                                                                         150                                
PGRFAMCHA071001195445195745000300MV Disney - Superstition (Raven)                                                                                       60688120                                
PROFAMCHA071001195745195759000014xxFAMJAM - Close (FAMILY) xxDNUxx                                                                                           150                                
PROFAMCHA071001195759195842000043Cory In The House (NS) Tonight @ 10:30pm (SEPT07)                                                                           150                                
PRCFAMCHA071001195842195912000030xxFamous Players Popcorn Parties 2 (May 2-Jan 31/0                                                                          150                                
PROFAMCHA071001195912195944000032xxThanksgiving Stunt TURKEY -  Next Monday Startin                                                                          150                                
PRCFAMCHA071001195944200000000016NS Bumper - Tennis (:15-:17) APR06                                                                                          150                                
ID FAMCHA071001200000200008000008Magic of Disney - NS/NSW/PB - Shape (:06-:09)                                                                               150                                
PRCFAMCHA071001200008200017000009CC Disclaimer - FAST - Family.ca (:09-:10)                                                                                  150                                
PGRFAMCHA071001200017202256002239Suite Life of Zack & Cody, The                    EP: 10                                                               6068607BCC                              
PRCFAMCHA071001202256202309000013NS - 06 - LIFE WITH DEREK/HANNAH (:11 - :13) (SEPT                                                                          150                                
PRCFAMCHA071001202309202340000031xxLife WD - Generic BATHROOM (JULY06) Coming Up Ne                                                                          150                                
PROFAMCHA071001202340202423000043xxZoey 101 Back to School Version #2 (Sept 2 - Oct                                                                          150                                
PROFAMCHA071001202423202452000029Hannah Montana SCIENCE (NS) - Tonight @ 9pm (SEPT0                                                                          150                                
PRCFAMCHA071001202452202552000100xxGame Plan Interstitials - Workout (Sept 7- Oct 0                                                                          150                                
PROFAMCHA071001202552202624000032Suite Life of Z & C (NSW) Wonderful Hotel - New Ep                                                                          150                                
PROFAMCHA071001202624202634000010FAMJAM - Open/Close                                                                                                         150                                
PGRFAMCHA071001202634202804000130MV Disney - (MD/NS/NSW) - Jesse McCartney - Just S                                                                     60688120                                
PROFAMCHA071001202804202818000014xxFAMJAM - Close (FAMILY) xxDNUxx                                                                                           150                                
PROFAMCHA071001202818202827000009xxFamily Bumpers - (Phase 1 Spring 04) - DJ Spinni                                                                          150                                
PROFAMCHA071001202827202859000032xxTransformers DVD Blast - Coming Soon (Oct.1-15)                                                                           150                                
PROFAMCHA071001202859202953000054xxHalloween Event Spot-Popcorn Picks Fri Nites/Wkn                                                                          150                                
PRCFAMCHA071001202953203000000007NS Bumper - Dodgeball (:07-:09) APR06                                                                                       150                                
PRCFAMCHA071001203000203009000009CC Disclaimer - FAST - Generic (:09-:10)                                                                                    150                                
PGRFAMCHA071001203009205239002230Life with Derek                                   EP: 02                                                        C23968A1065607BCC                              
PRCFAMCHA071001205239205244000005xxAstral ID (FEB05)                                                                                                         150                                
PRCFAMCHA071001205244205257000013NS - 07 - HANNAH/PHIL (:11 - :13) (SEPT07) $$$                                                                              150                                
PROFAMCHA071001205257205325000028xxHannah Montana - NS - Tushy Tear (Oct06) Coming                                                                           150                                
PROFAMCHA071001205325205403000038xxMaple Leaf Foods Contest Promo - Lunch mate City                                                                          150                                
PROFAMCHA071001205403205446000043Cory In The House (NS) Tonight @ 10:30pm (SEPT07)                                                                           150                                
PROFAMCHA071001205446205456000010FAMJAM - Open/Close                                                                                                         150                                
PGRFAMCHA071001205456205741000245MV Disney - Superstition (Raven)                                                                                       60688120                                
PROFAMCHA071001205741205755000014xxFAMJAM - Close (FAMILY) xxDNUxx                                                                                           150                                
PRCFAMCHA071001205755205833000038Life W D (NS) Edwin Mystery Man New Episodes - Fri                                                                          150                                
PROFAMCHA071001205833205914000041xxEurope Bound Spot # 1 (No Tag) (Sept 27-Dec 2) $                                                                          150                                
PROFAMCHA071001205914205946000032xxThanksgiving Stunt TURKEY -  Next Monday Startin                                                                          150                                
PRCFAMCHA071001205946210000000014NS Bumper - Fashion (:12-:14) APR06                                                                                         150                                
ID FAMCHA071001210000210008000008Magic of Disney - MAD DASH - Shape (:06-:09)                                                                                150                                
PRCFAMCHA071001210008210017000009CC Disclaimer - SLOW - Family.ca (:09-:10)                                                                                  150                                
PGRFAMCHA071001210017212255002238Hannah Montana                                    EP: 19                                                               6068807BCC                              
PRCFAMCHA071001212255212306000011NS - 08 - PHIL /NEDS (:11 - :13) (SEPT07) $$$                                                                               150                                
PROFAMCHA071001212306212400000054xxHalloween Event Spot-Popcorn Picks Fri Nites/Wkn                                                                          150                                
PRCFAMCHA071001212400212438000038Life W D (NS) Edwin Mystery Man - Tonight @ 11:30p                                                                          150                                
PROFAMCHA071001212438212525000047xxHSM - The Ice Tour - Dance Along (Sept 24 - Oct                                                                           150                                
PRCFAMCHA071001212525212655000130xxMS - Game Plan - The Rock Interview # 2 - Now Pl                                                                          150                                
PROFAMCHA071001212655212727000032Suite Life of Z & C (NSW) Wonderful Hotel - New Ep                                                                          150                                
PROFAMCHA071001212727212737000010FAMJAM - Open/Close                                                                                                         150                                
PGRFAMCHA071001212737212837000100xxMV Disney - (MD/NS/NSW) - Corbin Bleu - Deal Wit                                                                     60688120                                
PROFAMCHA071001212837212851000014xxFAMJAM - Close (FAMILY) xxDNUxx                                                                                           150                                
PRCFAMCHA071001212851212858000007Family Bumpers - (Phase 2 F/W 04) - Hockey (MD-L/M                                                                          150                                
PRCFAMCHA071001212858212938000040Magazine Spot (MD,NS,NSW) 2/3 day (not in PH) (til                                                                          150                                
PROFAMCHA071001212938212944000006Phil of the Future IDs - Check out Phil..Coming Up                                                                          150                                
PRCFAMCHA071001212944213000000016NS Bumper - Tennis (:15-:17) APR06                                                                                          150                                
ID FAMCHA071001213000213008000008Magic of Disney - NS/NSW/PB - Wipe (:06-:09)                                                                                150                                
PGRFAMCHA071001213008215248002240Phil of the Future                                EPS # 17                                                             6068607BCC                              
PRCFAMCHA071001215248215253000005xxAstral ID (FEB05)                                                                                                         150                                
PRCFAMCHA071001215253215306000013NS - 09 - NEDS/CORY IN THE HOUSE (:11 - :13) (SEPT                                                                          150                                
PROFAMCHA071001215306215341000035xxNeds DSSG - Superheroes - NS (JULY 06) Coming Up                                                                          150                                
PRCFAMCHA071001215341215741000400xxMS - Game Plan - T&K Interview - Now Playing (Se                                                                          150                                
PROFAMCHA071001215741215814000033Suite Life of Z & C SCOUT (NS) - Tonight @ 11pm (S                                                                          150                                
PRCFAMCHA071001215814215852000038Life W D (NS) Edwin Mystery Man New Episodes - Fri                                                                          150                                
PRCFAMCHA071001215852215916000024xxLife WD Derek Bloopers #12 (NS/NSW)                                                                                       150                                
PROFAMCHA071001215916215951000035xxBullying Rally Nomination Spot (Sept 21 - Oct 15                                                                          150                                
PRCFAMCHA071001215951220000000009NS Bumper - Dodgeball (:07-:09) APR06                                                                                       150                                
PRCFAMCHA071001220000220009000009CC Disclaimer - SLOW - Family.ca (:09-:10)                                                                                  150                                
PGRFAMCHA071001220009222450002441Ned's Declassified School Survival Guide          EP: 15                                                               2068807BCC                              
PRCFAMCHA071001222450222503000013NS - 10 - CORY IN THE HOUSE/SUITE LIFE (:11 - :13)                                                                          150                                
PROFAMCHA071001222503222557000054xxHalloween Event Spot-Popcorn Picks Fri Nites/Wkn                                                                          150                                
PROFAMCHA071001222557222640000043Cory In The House (NS) Coming Up Next (SEPT07)                                                                              150                                
PROFAMCHA071001222640222650000010FAMJAM - Open/Close                                                                                                         150                                
PGRFAMCHA071001222650222750000100MV Disney - (MD/NS/NSW) - Jesse McCartney - Just S                                                                     60688120                                
PROFAMCHA071001222750222804000014xxFAMJAM - Close (FAMILY) xxDNUxx                                                                                           150                                
PRCFAMCHA071001222804222842000038Life W D (NS) Edwin Mystery Man - Tonight @ 11:30p                                                                          150                                
PROFAMCHA071001222842222911000029Hannah Montana SCIENCE (NS) - New Eps Friday's @ 5                                                                          150                                
PROFAMCHA071001222911222941000030Popcorn Pix - Slapstick - Friday Night @ 7:30pm                                                                             150                                
PROFAMCHA071001222941222947000006Phil of the Future IDs - Your Watching Family...NA                                                                          150                                
PRCFAMCHA071001222947223000000013NS Bumper - Fashion (:12-:14) APR06                                                                                         150                                
ID FAMCHA071001223000223008000008Magic of Disney - NS/NSW/PB - Wipe (:06-:09)                                                                                150                                
PRCFAMCHA071001223008223017000009CC Disclaimer - SLOW - Generic (:09 -:10)                                                                                   150                                
PGRFAMCHA071001223017225255002238Cory in the House                                 EP: 08                                                               6068607BCC                              
PRCFAMCHA071001225255225300000005xxAstral ID (FEB05)                                                                                                         150                                
PRCFAMCHA071001225300225313000013NS - 11 - SUITE LIFE/LIFE WITH DEREK (:11 - :13) (                                                                          150                                
PROFAMCHA071001225313225345000032xxThanksgiving Stunt TURKEY -  Next Monday Startin                                                                          150                                
PROFAMCHA071001225345225421000036Suite Life of Z & C GOLF (NS) - Coming Up Next (SE                                                                          150                                
PROFAMCHA071001225421225430000009xxFamily Bumpers - (Phase 3 Spring 05) - Giant Foo                                                                          150                                
PROFAMCHA071001225430225440000010FAMJAM - Open/Close                                                                                                         150                                
PGRFAMCHA071001225440225810000330MV Disney - (MD/NS/NSW) - Jesse McCartney - Just S                                                                     60688120                                
PROFAMCHA071001225810225824000014xxFAMJAM - Close (FAMILY) xxDNUxx                                                                                           150                                
PROFAMCHA071001225824225901000037Naturally Sadie - TEENAGE (NS) Tonight @ 12:00 (MA                                                                          150                                
PROFAMCHA071001225901225930000029xxThat's So Raven (APR06) HELLO LADIES (NS) - Tomo                                                                          150                                
PROFAMCHA071001225930225944000014Phil of the Future IDs - Ricky Tomato - watching f                                                                          150                                
PRCFAMCHA071001225944230000000016NS Bumper - Tennis (:15-:17) APR06                                                                                          150                                
ID FAMCHA071001230000230008000008Magic of Disney - NS/NSW/PB - Shape (:06-:09)                                                                               150                                
PRCFAMCHA071001230008230017000009CC Disclaimer - SLOW - Family.ca (:09-:10)                                                                                  150                                
PGRFAMCHA071001230017232255002238Suite Life of Zack & Cody, The                    EP: 24                                                               6068607BCC                              
PRCFAMCHA071001232255232308000013NS - 12 - LIFE WITH DEREK/SADIE (:11 - :13) (SEPT0                                                                          150                                
PROFAMCHA071001232308232402000054xxHalloween Event Spot-Popcorn Picks Fri Nites/Wkn                                                                          150                                
PRCFAMCHA071001232402232420000018xxLife with Derek NS OJ (SEPT06) Coming Up Next                                                                             150                                
PRCFAMCHA071001232420232619000159xxHSM 2 Interstitial - Movie Ent Story & Interview                                                                          150                                
PROFAMCHA071001232619232656000037Naturally Sadie - TEENAGE (NS) Tonight @ 12:30 (MA                                                                          150                                
PRCFAMCHA071001232656232811000115xxGame Plan Interstitials - Scholarship (Sept 7- O                                                                          150                                
PROFAMCHA071001232811232841000030Zoey 101 - QUINN (NS) (MAR07) - Tomorrow @ 6                                                                                150                                
PROFAMCHA071001232841232912000031Smart Guy FIGHT (JUNE06) NS - Tomorrow night @ 7:3                                                                          150                                
PROFAMCHA071001232912232944000032Suite Life of Z & C (NSW) Wonderful Hotel - New Ep                                                                          150                                
PROFAMCHA071001232944232952000008Phil of the Future IDs - I'm Ricky Ullman, You're                                                                           150                                
PRCFAMCHA071001232952233000000008NS Bumper - Dodgeball (:07-:09) APR06                                                                                       150                                
PRCFAMCHA071001233000233009000009CC Disclaimer - FAST - Generic (:09-:10)                                                                                    150                                
PGRFAMCHA071001233009235239002230Life with Derek                                   EP: 05                                                        C23968A1065607BCC                              
PRCFAMCHA071001235239235244000005xxAstral ID (FEB05)                                                                                                         150                                
PRCFAMCHA071001235244235257000013NS - 13 - SADIE/SADIE (:11 - :13) (SEPT07)                                                                                  150                                
PROFAMCHA071001235257235329000032xxThanksgiving Stunt TURKEY -  Next Monday Startin                                                                          150                                
PROFAMCHA071001235329235405000036Suite Life of Z & C - NS - GOLF - Tomorrow Night @                                                                          150                                
PROFAMCHA071001235405235415000010FAMJAM - Open/Close                                                                                                         150                                
PGRFAMCHA071001235415235841000426MV Disney - Superstition (Raven)                                                                                       60688120                                
PROFAMCHA071001235841235855000014xxFAMJAM - Close (FAMILY) xxDNUxx                                                                                           150                                
PRCFAMCHA071001235855235933000038Life W D (NS) Edwin Mystery Man New Episodes - Fri                                                                          150                                
PRCFAMCHA071001235933235947000014Naturally Sadie ID's (NOV06) - Rain - Up Next                                                                               150                                
PRCFAMCHA071001235947000000000013NS Bumper - Fashion (:12-:14) APR06                                                                                         150                                
PRCFAMCHA071001000000000009000009CC Disclaimer - SLOW - Family.ca (:09-:10)                                                                                  150                                
PGRFAMCHA071001000009002239002230Naturally, Sadie                                  EP: 31                                                        C25428 1065607ACC                              
PRCFAMCHA071001002239002252000013NS - 14 - SADIE/HANNAH (:11 - :13) (SEPT07)                                                                                 150                                
PROFAMCHA071001002252002331000039xxHalloween Contest Spot (Oct 1 - 31) $$$                                                                                   150                                
PROFAMCHA071001002331002400000029xxThat's So Raven (APR06) HELLO LADIES (NS) - Tomo                                                                          150                                
PROFAMCHA071001002400002410000010FAMJAM - Open/Close                                                                                                         150                                
PGRFAMCHA071001002410002527000117MV Disney - (MD/NS/NSW) - Jesse McCartney - Just S                                                                     60688120                                
PROFAMCHA071001002527002541000014xxFAMJAM - Close (FAMILY) xxDNUxx                                                                                           150                                
PROFAMCHA071001002541002610000029Hannah Montana SCIENCE (NS) - New Eps Friday's @ 5                                                                          150                                
PROFAMCHA071001002610002620000010FAMJAM - Open/Close                                                                                                         150                                
PGRFAMCHA071001002620002720000100MV Disney - Superstition (Raven)                                                                                       60688120                                
PROFAMCHA071001002720002734000014xxFAMJAM - Close (FAMILY) xxDNUxx                                                                                           150                                
PROFAMCHA071001002734002812000038Double Teamed (SEPT12) - Next Friday @ 7:30pm                                                                               150                                
PROFAMCHA071001002812002821000009xxFamily Bumpers - (Phase 3 Spring 05) - Hip Hop (                                                                          150                                
PRCFAMCHA071001002821002906000045xxGame Plan Interstitials - Blooper Reel  (Sept 7-                                                                          150                                
PROFAMCHA071001002906002936000030Popcorn Pix - Slapstick - Friday Night @ 7:30pm                                                                             150                                
PRCFAMCHA071001002936002945000009Naturally Sadie ID's - Check out Naturally Sadie N                                                                          150                                
PRCFAMCHA071001002945003000000015NS Bumper - Tennis (:15-:17) APR06                                                                                          150                                
PRCFAMCHA071001003000003009000009CC Disclaimer - SLOW - Generic (:09 -:10)                                                                                   150                                
PGRFAMCHA071001003009005239002230Naturally, Sadie                                  EP: 47                                                        C25428 1065607ACC                              
PRCFAMCHA071001005239005244000005xxAstral ID (FEB05)                                                                                                         150                                
PRCFAMCHA071001005244005257000013NS - 15 - HANNAH/LIZZIE (:11 - :13) (SEPT07)                                                                                150                                
PROFAMCHA071001005257005325000028xxHannah Montana - NS - Tushy Tear (Oct06) Coming                                                                           150                                
PRCFAMCHA071001005325005725000400xxMS - Game Plan - T&K Interview - Now Playing (Se                                                                          150                                
PROFAMCHA071001005725005755000030Smart Guy MOE MUSIC (JUNE06) NS Tomorrow night @ 7                                                                          150                                
PRCFAMCHA071001005755005825000030xxLife with Derek (NS) MORE FUN (OCT06)  Tomorrow                                                                           150                                
PROFAMCHA071001005825005857000032Suite Life of Z & C (NSW) Wonderful Hotel - New Ep                                                                          150                                
PROFAMCHA071001005857005951000054xxHalloween Event Spot-Popcorn Picks Fri Nites/Wkn                                                                          150                                
PRCFAMCHA071001005951010000000009NS Bumper - Dodgeball (:07-:09) APR06                                                                                       150                                
ID FAMCHA071001010000010008000008Magic of Disney - NS/NSW/PB - Shape (:06-:09)                                                                               150                                
PRCFAMCHA071001010008010017000009CC Disclaimer - SLOW - Family.ca (:09-:10)                                                                                  150                                
PGRFAMCHA071001010017012255002238Hannah Montana                                    EP: 10                                                               6068807BCC                              
PRCFAMCHA071001012255012308000013NS - 16 - LIZZIE/PHIL (:11 - :13) (SEPT07)                                                                                  150                                
PRCFAMCHA071001012308012321000013NS Bumper - Fashion (:12-:14) APR06                                                                                         150                                
ID FAMCHA071001012321012329000008Magic of Disney - NS/NSW/PB - Wipe (:06-:09)                                                                                150                                
PRCFAMCHA071001012329012338000009CC Disclaimer - SLOW - Generic (:09 -:10)                                                                                   150                                
PGRFAMCHA071001012338014608002230Lizzie McGuire                                    EP: 2-002                                                            6068607BCC                              
PRCFAMCHA071001014608014613000005xxAstral ID (FEB05)                                                                                                         150                                
PRCFAMCHA071001014613014626000013NS - 17 - PHIL/BOY MEETS WORLD (:11 - :13) (SEPT07                                                                          150                                
PRCFAMCHA071001014626014642000016NS Bumper - Tennis (:15-:17) APR06                                                                                          150                                
ID FAMCHA071001014642014650000008Magic of Disney - NS/NSW/PB - Shape (:06-:09)                                                                               150                                
PGRFAMCHA071001014650020926002236Phil of the Future Yr 2                           EP: 31                                                               6068607BCC                              
PRCFAMCHA071001020926020939000013NS - 18 - BOY MEETS WORLD/LIFE WITH DEREK (:11 - :                                                                          150                                
PRCFAMCHA071001020939020947000008NS Bumper - Dodgeball (:07-:09) APR06                                                                                       150                                
ID FAMCHA071001020947020955000008Magic of Disney - NS/NSW/PB - Wipe (:06-:09)                                                                                150                                
PRCFAMCHA071001020955021004000009CC Disclaimer - SLOW - Generic (:09 -:10)                                                                                   150                                
PGRFAMCHA071001021004023230002226Boy Meets World                                   EP: 1-032                                                           B6068807BCC                              
PRCFAMCHA071001023230023235000005xxAstral ID (FEB05)                                                                                                         150                                
PRCFAMCHA071001023235023248000013NS - 19 - LIFE WITH DEREK/CORY IN THE HOUSE (:11 -                                                                          150                                
PRCFAMCHA071001023248023301000013NS Bumper - Fashion (:12-:14) APR06                                                                                         150                                
PRCFAMCHA071001023301023310000009CC Disclaimer - SLOW - Family.ca (:09-:10)                                                                                  150                                
PGRFAMCHA071001023310025540002230Life with Derek                                   EP: 15                                                        C26679A1065607BCC                              
PRCFAMCHA071001025540025553000013NS - 20 -CORY IN THE HOUSE/RAVEN (:11 - :13) (SEPT                                                                          150                                
PRCFAMCHA071001025553025609000016NS Bumper - Tennis (:15-:17) APR06                                                                                          150                                
ID FAMCHA071001025609025617000008Magic of Disney - NS/NSW/PB - Wipe (:06-:09)                                                                                150                                
PRCFAMCHA071001025617025626000009CC Disclaimer - SLOW - Generic (:09 -:10)                                                                                   150                                
PGRFAMCHA071001025626031904002238Cory in the House                                 EP: 07                                                               6068607BCC                              
PRCFAMCHA071001031904031909000005xxAstral ID (FEB05)                                                                                                         150                                
PRCFAMCHA071001031909031922000013NS - 21 - RAVEN/ SUITE LIFE (:11 - :13) (SEPT07)                                                                            150                                
PRCFAMCHA071001031922031930000008NS Bumper - Dodgeball (:07-:09) APR06                                                                                       150                                
ID FAMCHA071001031930031938000008Magic of Disney - NS/NSW/PB - Shape (:06-:09)                                                                               150                                
PGRFAMCHA071001031938034217002239That's So Raven                                   EP: 092                                                              6068607BCC                              
PRCFAMCHA071001034217034230000013NS - 22 - SUITE LIFE/LIFE WITH DEREK (:11 - :13) (                                                                          150                                
PRCFAMCHA071001034230034244000014NS Bumper - Fashion (:12-:14) APR06                                                                                         150                                
ID FAMCHA071001034244034253000009Magic of Disney - NS/NSW/PB - Wipe (:06-:09)                                                                                150                                
PRCFAMCHA071001034253034303000010CC Disclaimer - SLOW - Generic (:09 -:10)                                                                                   150                                
PGRFAMCHA071001034303040543002240Suite Life of Zack & Cody, The                    EP: 03                                                               6068607BCC                              
PRCFAMCHA071001040543040548000005xxAstral ID (FEB05)                                                                                                         150                                
PRCFAMCHA071001040548040601000013NS - 23 - LIFE WITH DEREK (:11 - :13) (SEPT07)                                                                              150                                
PRCFAMCHA071001040601040618000017NS Bumper - Tennis (:15-:17) APR06                                                                                          150                                
PRCFAMCHA071001040618040628000010CC Disclaimer - SLOW - Family.ca (:09-:10)                                                                                  150                                
PGRFAMCHA071001040628042858002230Life with Derek                                   EP: 15                                                        C26679A1065607BCC                              
PRCFAMCHA071001042858042914000016PH - 01 - KATIE/FRANNY/SOMETHING  (:14 - :16) (SEP                                                                          150                                
PRCFAMCHA071001042914042944000030Franny's Feet - Concept (APR06)(PH-Mon) - This Mor                                                                          150                                
ID FAMCHA071001042944042959000015PS Playhouse AM Block Open (:10-:15)                                                                                        150                                
OFFFAMCHA071001042959043000000001OFF AIR                                                                                                                                                        
SO FAMCHA071002043000043011000011Sign On (oct 1)                                                                                                                                                
PRCFAMCHA071002043011043020000009CC Disclaimer - FAST - Family.ca (:09-:10)                                                                                  150                                
PGRFAMCHA071002043020045655002635Katie And Orbie                                   EP: 2-023                                                     C11896A1065607ECC                              
PRCFAMCHA071002045655045700000005xxAstral ID (FEB05)                                                                                                         150                                
PRCFAMCHA071002045700045716000016PH - 02 - FRANNY/SOMETHING/HOZE (:14 - :16) (SEPT0                                                                          150                                
ID FAMCHA071002045716045729000013PS Playhouse AM Block Open (:10-:15)                                                                                        150                                
PRCFAMCHA071002045729045738000009CC Disclaimer - FAST - Generic (:09-:10)                                                                                    150                                
PGRFAMCHA071002045738052008002230Franny's Feet                                     EPS # 21                                                      C23971 1065607ECC                              
PRCFAMCHA071002052008052024000016PH - 03 - SOMETHING/HOZE/HENRY'S (:14 - :16) (SEPT                                                                          150                                
ID FAMCHA071002052024052037000013PS Playhouse AM Block Open (:10-:15)                                                                                        150                                
PRCFAMCHA071002052037052046000009CC Disclaimer - FAST - Family.ca (:09-:10)                                                                                  150                                
PGRFAMCHA071002052046054317002231Something Else                                    EP: 1-003                                                     B69257A1065607ECC                              
PRCFAMCHA071002054317054322000005xxAstral ID (FEB05)                                                                                                         150                                
PRCFAMCHA071002054322054338000016PH - 04 - HOZE/HENRY'S/KING (:14 - :16) (SEPT07)                                                                            150                                
ID FAMCHA071002054338054351000013PS Playhouse AM Block Open (:10-:15)                                                                                        150                                
PRCFAMCHA071002054351054400000009CC Disclaimer - FAST - Generic (:09-:10)                                                                                    150                                
PGRFAMCHA071002054400060638002238Hoze Houndz                                       EP: 5-059                                                     B63395A1065607ECC                              
PRCFAMCHA071002060638060654000016PH - 05 - HENRY'S WORLD/KING (:14 - :16) (SEPT07)                                                                           150                                
ID FAMCHA071002060654060707000013PS Playhouse AM Block Open (:10-:15)                                                                                        150                                
PRCFAMCHA071002060707060716000009CC Disclaimer - FAST - Family.ca (:09-:10)                                                                                  150                                
PGRFAMCHA071002060716063116002400Henry's World                                     EP: 2-016                                                     B81047A1065607GCC                              
PRCFAMCHA071002063116063121000005xxAstral ID (FEB05)                                                                                                         150                                
PRCFAMCHA071002063121063137000016PH - 06 - KING (:14 - :16) (SEPT07)                                                                                         150                                
ID FAMCHA071002063137063150000013PS Playhouse AM Block Open (:10-:15)                                                                                        150                                
PRCFAMCHA071002063150063200000010CC Disclaimer - FAST - Generic (:09-:10)                                                                                    150                                
PGRFAMCHA071002063200065430002230King                                              EPS # 035                                                     C25350 1065607ECC                              
PROFAMCHA071002065430065446000016xxKim Possible FINGER TAUNT (MMM) (July 06) Coming                                                                          150                                
PROFAMCHA071002065446065521000035xxJungle Book DVD Blast Now (Oct 2 - 7) $$$                                                                                 150                                
PRCFAMCHA071002065521065532000011Naturally Sadie ID's - I'm Charlotte, you're watch                                                                          150                                
PROFAMCHA071002065532065551000019MadMadMornings Block Open                                                                                                   150                                
PRCFAMCHA071002065551065600000009CC Disclaimer - FAST - Family.ca (:09-:10)                                                                                  150                                
PGRFAMCHA071002065600071851002251Disney's Kim Possible                             EP: 1-004                                                           A6068607ECC                              
PRCFAMCHA071002071851071856000005xxAstral ID (FEB05)                                                                                                         150                                
