SO FAMCHA001201043000043011000011Sign On (oct 1)                                                                                                         06                                     
PROFAMCHA001201043011043016000005CC Disclaimer (oct) **DO NOT USE**                                                                                      06  150                                
PGRFAMCHA001201043016045417002401Hello Mrs. Cherrywinkle                           The Bravest Fish Of All                                       B18896 1065607ACC                              
ID FAMCHA001201045417045427000010Generic ID - Bubbles                                                                                                    06  150                                
ID FAMCHA001201045427045440000013URL(2) - HAPPY BIRTHDAY (as of JUL 01)                                                                                  06  150                                
ID FAMCHA001201045440045500000020Morning block open play pen                                                                                             06  150                                
PROFAMCHA001201045500045505000005CC Disclaimer (oct) **DO NOT USE**                                                                                      06  150                                
PGRFAMCHA001201045505051915002410Busy World Of Richard Scarry; The                 Fill'er Up/Niagara Falls/Helpers' Helpers                     P24322 1065607ECC                              
ID FAMCHA001201051915051925000010Generic ID - Hula Hoop                                                                                                  06  150                                
PROFAMCHA001201051925051940000015Doug (MARCH2001) - Today @ 4pm                                                                                          06  150                                
ID FAMCHA001201051940052000000020Morning block open play pen                                                                                             06  150                                
PROFAMCHA001201052000052005000005CC Disclaimer (oct) **DO NOT USE**                                                                                      06  150                                
PGRFAMCHA001201052005054443002438Amazing Animals                                   Nighttime Animals                                                    60686110CC                              
ID FAMCHA001201054443054448000005Generic ID - Couch 1*                                                                                                   06  150                                
PROFAMCHA001201054448054503000015Doug (MARCH2001) - Today @ 4pm                                                                                          06  150                                
PROFAMCHA001201054503054530000027Recess (MARCH2001) - Today @ 5pm                                                                                        06  150                                
PRCFAMCHA001201054530054540000010Morning Block menu background (flex time)                                                                               06  150                                
ID FAMCHA001201054540054600000020Morning block open play pen                                                                                             06  150                                
PROFAMCHA001201054600054605000005CC Disclaimer (oct) **DO NOT USE**                                                                                      06  150                                
PGRFAMCHA001201054605061026002421Billy The Cat                                     Curse Of Catopatra                                            B27660A1065607ECC                              
ID FAMCHA001201061026061031000005Generic ID - Marbles                                                                                                    06  150                                
ID FAMCHA001201061031061040000009URL(1) - CONTESTS                                                                                                       06  150                                
ID FAMCHA001201061040061100000020Morning block open play pen                                                                                             06  150                                
PROFAMCHA001201061100061105000005CC Disclaimer (oct) **DO NOT USE**                                                                                      06  150                                
PGRFAMCHA001201061105063457002352Little Lulu Show; The                             The Big Jewel Robbery/Pot Luck/The Spook Tree                 B25046A1065607ECC                              
ID FAMCHA001201063457063507000010Generic ID - Pink inner tube                                                                                            06  150                                
PROFAMCHA001201063507063528000021Recess (MARCH2001) - Today @ 5pm                                                                                        06  150                                
PRCFAMCHA001201063528063539000011Morning Block menu background (flex time)                                                                               06  150                                
ID FAMCHA001201063539063600000021Move open family size movie                                                                                             06  150                                
PROFAMCHA001201063600063605000005CC Disclaimer (oct) **DO NOT USE**                                                                                      06  150                                
PGRFAMCHA001201063605070005002400Big Garage; The                                   Sounds Funny To Me                                            P21453 1065607ECC                              
ID FAMCHA001201070005070010000005Generic ID - Bubbles*                                                                                                   06  150                                
PROFAMCHA001201070010070015000005CC Disclaimer (oct) **DO NOT USE**                                                                                      06  150                                
PGRFAMCHA001201070015072308002253Franklin                                          The Puppet/Stopwatch                                          A38152A1065607ECC                              
ID FAMCHA001201072308072318000010Generic ID - Pink inner tube                                                                                            06  150                                
PROFAMCHA001201072318072342000024ALF - Today @ Noon                                                                                                      06  150                                
PROFAMCHA001201072342072412000030New Adventures of WTP (MARCH2001) - Coming Up                                                                           06  150                                
INTFAMCHA001201072412072835000423Art Attack - Swimmer                                                                                                   60686120                                
PROFAMCHA001201072835072905000030Buzz Lightyear - Today @ 5:30pm                                                                                         06  150                                
PRCFAMCHA001201072905072940000035Little Lulu (AUG2000) - Tonight @ 6pm                                                                                  106  150                                
PRCFAMCHA001201072940072950000010Morning Block menu background (flex time)                                                                               06  150                                
ID FAMCHA001201072950073000000010xxMagic of Disney - V3(water) - KID MALE                                                                                06  150                                
PROFAMCHA001201073000073005000005CC Disclaimer (oct) **DO NOT USE**                                                                                      06  150                                
PGRFAMCHA001201073005075246002241New Adventures of Winnie the Pooh; The            The Wishing Bear                                                     6068607ECC                              
ID FAMCHA001201075246075256000010Generic ID - soccer **DO NOT USE**                                                                                      06  150                                
PRCFAMCHA001201075256075330000034Hoze Houndz (MARCH2001) - Weekends @ 7:00pm                                                                             06  150                                
PROFAMCHA001201075330075357000027Recess (MARCH2001) - Today @ 5pm                                                                                        06  150                                
PROFAMCHA001201075357075427000030Buzz Lightyear - Today @ 5:30pm                                                                                         06  150                                
INTFAMCHA001201075427075811000344Music Break - Mary-Kate And Ashley Olsen                                                                               60686120                                
PROFAMCHA001201075811075826000015Doug (MARCH2001) - Today @ 4pm                                                                                          06  150                                
PROFAMCHA001201075826075856000030New Adventures of WTP (MARCH2001) - Weekends @ 5:3                                                                      06  150                                
PRCFAMCHA001201075856075931000035Little Lulu (AUG2000) - Tonight @ 6pm                                                                                  106  150                                
PRCFAMCHA001201075931075940000009Morning Block menu background (flex time)                                                                               06  150                                
ID FAMCHA001201075940080000000020Morning block open play pen                                                                                             06  150                                
PGRFAMCHA001201080000083015003015Art Attack                                        034/035                                                              60686110                                
ID FAMCHA001201083015083020000005Generic ID - Marbles                                                                                                    06  150                                
PGRFAMCHA001201083020085324002304Disney Presents Bill Nye the Science Guy          Fluids                                                               60686110                                
ID FAMCHA001201085324085334000010Generic ID - Family w/dog                                                                                               06  150                                
PROFAMCHA001201085334085404000030Buzz Lightyear - Today @ 5:30pm                                                                                         06  150                                
PROFAMCHA001201085404085449000045PB&J Otter (MARCH2001) - Coming Up                                                                                     206  150                                
PROFAMCHA001201085449085513000024ALF - Today @ Noon                                                                                                      06  150                                
INTFAMCHA001201085513085755000242Art Attack - Killer Whale                                                                                              60686120                                
PRCFAMCHA001201085755085825000030Franklin (MARCH2001) - Today @ 12:30pm                                                                                 106  150                                
PRCFAMCHA001201085825085900000035Little Lulu (AUG2000) - Tonight @ 6pm                                                                                  106  150                                
PROFAMCHA001201085900090000000100Morning Block - Crunch - PB&J/BUSY/MADLEINE                                                                             06  150                                
PROFAMCHA001201090000090005000005CC Disclaimer (oct) **DO NOT USE**                                                                                      06  150                                
PGRFAMCHA001201090005092335002330PB&J Otter                                        Mayor Flick/Greatest Sleepover Ever                                 A6068607ECC                              
ID FAMCHA001201092335092345000010Generic ID - confetti                                                                                                   06  150                                
PROFAMCHA001201092345092400000015Doug (MARCH2001) - Today @ 4pm                                                                                          06  150                                
PROFAMCHA001201092400092500000100Morning Block - Crunch - BUSY/MADELINE/OOTB                                                                             06  150                                
PROFAMCHA001201092500092505000005CC Disclaimer (oct) **DO NOT USE**                                                                                      06  150                                
PGRFAMCHA001201092505094915002410Busy World Of Richard Scarry; The                 Who's Afraid Of/Hold Your Breath/Pumpkin Heads                P24323 1065607ECC                              
ID FAMCHA001201094915094925000010Generic ID - Hula Hoop                                                                                                  06  150                                
PRCFAMCHA001201094925094955000030Franklin (MARCH2001) - Today @ 12:30pm                                                                                 106  150                                
INTFAMCHA001201094955095136000141Bill Nye - Whatta Brain                                                                                                60688120                                
PROFAMCHA001201095136095200000024ALF - Today @ Noon                                                                                                      06  150                                
PROFAMCHA001201095200095300000100Morning Block - Crunch - MADELINE/OOTB/BILLY                                                                            06  150                                
PROFAMCHA001201095300095305000005CC Disclaimer (oct) **DO NOT USE**                                                                                      06  150                                
PGRFAMCHA001201095305101604002259Madeline                                          Madeline's Detective School                                          6068607ECC                              
ID FAMCHA001201101604101614000010Generic ID - Hula Hoop                                                                                                  06  150                                
PRCFAMCHA001201101614101648000034Hoze Houndz (MARCH2001) - Weekends @ 7:00pm                                                                             06  150                                
ID FAMCHA001201101648101700000012URL(1) - MINI SITES                                                                                                     06  150                                
PROFAMCHA001201101700101800000100Morning Block - Crunch - OOTB/BILLY/GOOF                                                                                06  150                                
PROFAMCHA001201101800101805000005CC Disclaimer (oct) **DO NOT USE**                                                                                      06  150                                
PGRFAMCHA001201101805104101002256Out of the Box                                    Yes and Nose                                                         60686110CC                              
ID FAMCHA001201104101104106000005Generic ID - Marbles                                                                                                    06  150                                
PROFAMCHA001201104106104136000030Pepper Ann (MARCH2001) - Today @ 4:30pm                                                                                 06  150                                
PROFAMCHA001201104136104200000024ALF - Today @ Noon                                                                                                      06  150                                
PROFAMCHA001201104200104300000100Morning Block - Crunch - BILLY/GOOF/ALADDIN                                                                             06  150                                
PROFAMCHA001201104300104305000005CC Disclaimer (oct) **DO NOT USE**                                                                                      06  150                                
PGRFAMCHA001201104305110726002421Billy The Cat                                     I Am Not An Animal                                            B27661A1065607ECC                              
ID FAMCHA001201110726110733000007Generic ID - Whisper*                                                                                                   06  150                                
PROFAMCHA001201110733110803000030Pepper Ann (MARCH2001) - Today @ 4:30pm                                                                                 06  150                                
PROFAMCHA001201110803110833000030New Adventures of WTP (MARCH2001) - Weekends @ 5:3                                                                      06  150                                
PROFAMCHA001201110833110900000027Recess (MARCH2001) - Today @ 5pm                                                                                        06  150                                
PROFAMCHA001201110900111000000100Morning Block - Crunch - GOOF/ALADDIN/RECAP                                                                             06  150                                
PROFAMCHA001201111000111005000005CC Disclaimer (oct) **DO NOT USE**                                                                                      06  150                                
PGRFAMCHA001201111005113246002241Goof Troop                                        Shake, Rattle & Goof                                                 6068607ECC                              
ID FAMCHA001201113246113256000010Generic ID - Bubbles                                                                                                    06  150                                
PRCFAMCHA001201113256113330000034Hoze Houndz (MARCH2001) - Weekends @ 7:00pm                                                                             06  150                                
PROFAMCHA001201113330113400000030Buzz Lightyear - Today @ 5:30pm                                                                                         06  150                                
PROFAMCHA001201113400113500000100Morning Block - Crunch - ALADDIN/RECAP                                                                                  06  150                                
PROFAMCHA001201113500113505000005CC Disclaimer (oct) **DO NOT USE**                                                                                      06  150                                
PGRFAMCHA001201113505115742002237Disney's Aladdin                                  Moonlight Madness                                                    6068607ECC                              
ID FAMCHA001201115742115747000005Generic ID - Couch 1*                                                                                                   06  150                                
PROFAMCHA001201115747115847000100Morning Block - Crunch - RECAP - REBOUND COMING UP                                                                      06  150                                
PROFAMCHA001201115847115911000024ALF - Coming Up                                                                                                         06  150                                
PRCFAMCHA001201115911115945000034Hoze Houndz (MARCH2001) - Weekends @ 7:00pm                                                                             06  150                                
ID FAMCHA001201115945120000000015Afternoon block pinball open **DO NOT USE**                                                                             06  150                                
PROFAMCHA001201120000120005000005CC Disclaimer (oct) **DO NOT USE**                                                                                      06  150                                
PGRFAMCHA001201120005122132002127ALF                                               Wedding Bell Blues                                                  A2068807BCC                              
ID FAMCHA001201122132122137000005Generic ID - Couch 1*                                                                                                   06  150                                
PROFAMCHA001201122137122223000046Hook (DEC01) - Tonight @ 9pm                                                                                            02  150                                
PRCFAMCHA001201122223122253000030Franklin (MARCH2001) - Coming Up                                                                                       106  150                                
INTFAMCHA001201122253122655000402MV Disney - A Whole New World (PEBO BRYSON/REGINA                                                                      60688120                                
PROFAMCHA001201122655122716000021Recess (MARCH2001) - Today @ 5pm                                                                                        06  150                                
INTFAMCHA001201122716122859000143MV Disney - Siamese Cat Song                                                                                           60688120                                
PRCFAMCHA001201122859122935000036Goof Troop (MARCH2001) - Weekends @ 4pm                                                                                 06  150                                
PRCFAMCHA001201122935122945000010Morning Block menu background (flex time)                                                                               06  150                                
ID FAMCHA001201122945123000000015Afternoon block pinball open **DO NOT USE**                                                                             06  150                                
PROFAMCHA001201123000123005000005CC Disclaimer (oct) **DO NOT USE**                                                                                      06  150                                
PGRFAMCHA001201123005125258002253Franklin                                          At The Seashore/Snail's Dream                                 A38158A1065607ECC                              
ID FAMCHA001201125258125308000010Generic ID - confetti                                                                                                   06  150                                
PROFAMCHA001201125308125338000030Alley Cats Strike! - Sunday @ 12pm                                                                                      06  150                                
PROFAMCHA001201125338125423000045PB&J Otter (MARCH2001) - Coming Up                                                                                     206  150                                
INTFAMCHA001201125423125815000352Art Attack - Deer On A Hill                                                                                            60686120                                
PRCFAMCHA001201125815125849000034Hoze Houndz (MARCH2001) - Weekends @ 7:00pm                                                                             06  150                                
PROFAMCHA001201125849125935000046Hook (DEC01) - Tonight @ 9pm                                                                                            06  150                                
PRCFAMCHA001201125935125945000010Morning Block menu background (flex time)                                                                               06  150                                
ID FAMCHA001201125945130000000015Afternoon block pinball open **DO NOT USE**                                                                             06  150                                
PROFAMCHA001201130000130005000005CC Disclaimer (oct) **DO NOT USE**                                                                                      06  150                                
PGRFAMCHA001201130005132335002330PB&J Otter                                        Save Oaky Oak Tree/Duck Who Cried Wolf                              A6068607ECC                              
ID FAMCHA001201132335132345000010Generic ID - Bubbles                                                                                                    06  150                                
PROFAMCHA001201132345132406000021Recess (MARCH2001) - Today @ 5pm                                                                                        06  150                                
PROFAMCHA001201132406132436000030Lion King (AUG2000) - Tonight @ 6:30pm                                                                                 206  150                                
PRCFAMCHA001201132436132445000009Morning Block menu background (flex time)                                                                               06  150                                
ID FAMCHA001201132445132500000015Afternoon block pinball open **DO NOT USE**                                                                             06  150                                
PROFAMCHA001201132500132505000005CC Disclaimer (oct) **DO NOT USE**                                                                                      06  150                                
PGRFAMCHA001201132505134915002410Busy World Of Richard Scarry; The                 The Mole Machine/Royal Game Of Dennis/Now That's              B24399 1165607ECC                              
ID FAMCHA001201134915134920000005Generic ID - Couch 2*                                                                                                   06  150                                
PROFAMCHA001201134920134950000030Alley Cats Strike! - Sunday @ 12pm                                                                                      06  150                                
PRCFAMCHA001201134950135020000030Madeline (AUG2000) - Coming Up                                                                                         106  150                                
INTFAMCHA001201135020135131000111Mix Ups - Cat in the bag                                                                                               60688120                                
PRCFAMCHA001201135131135206000035Little Lulu (AUG2000) - Tonight @ 6pm                                                                                  106  150                                
PROFAMCHA001201135206135236000030Pepper Ann (MARCH2001) - Today @ 4:30pm                                                                                 06  150                                
PRCFAMCHA001201135236135245000009Morning Block menu background (flex time)                                                                               06  150                                
ID FAMCHA001201135245135300000015Afternoon block pinball open **DO NOT USE**                                                                             06  150                                
PROFAMCHA001201135300135305000005CC Disclaimer (oct) **DO NOT USE**                                                                                      06  150                                
PGRFAMCHA001201135305141601002256Madeline                                          Madeline and the Hunchback of Notre Dame                             6068607ECC                              
ID FAMCHA001201141601141611000010Generic ID - Family w/dog                                                                                               06  150                                
PROFAMCHA001201141611141626000015Doug (MARCH2001) - Today @ 4pm                                                                                          06  150                                
PRCFAMCHA001201141626141656000030Out of the Box (AUG2000) - Coming Up                                                                                   106  150                                
ID FAMCHA001201141656141705000009URL(1) - CONTESTS                                                                                                       06  150                                
PROFAMCHA001201141705141735000030Buzz Lightyear - Today @ 5:30pm                                                                                         06  150                                
PRCFAMCHA001201141735141745000010Morning Block menu background (flex time)                                                                               06  150                                
ID FAMCHA001201141745141800000015Afternoon block pinball open **DO NOT USE**                                                                             06  150                                
PGRFAMCHA001201141800144125002325Out of the Box                                    Pick a Pet                                                           60686110                                
ID FAMCHA001201144125144135000010Generic ID - Ring around the rosie                                                                                      06  150                                
PROFAMCHA001201144135144205000030Pepper Ann (MARCH2001) - Today @ 4:30pm                                                                                 06  150                                
PROFAMCHA001201144205144235000030New Adventures of WTP (MARCH2001) - Weekends @ 5:3                                                                      06  150                                
PRCFAMCHA001201144235144245000010Morning Block menu background (flex time)                                                                               06  150                                
ID FAMCHA001201144245144300000015Afternoon block pinball open **DO NOT USE**                                                                             06  150                                
PROFAMCHA001201144300144305000005CC Disclaimer (oct) **DO NOT USE**                                                                                      06  150                                
PGRFAMCHA001201144305150728002423Billy The Cat                                     Billy's Last Chance                                           B27662A1065607ECC                              
ID FAMCHA001201150728150738000010Generic ID - Hula Hoop                                                                                                  06  150                                
PROFAMCHA001201150738150808000030Buzz Lightyear - Today @ 5:30pm                                                                                         06  150                                
PRCFAMCHA001201150808150844000036Goof Troop (MARCH2001) - Coming Up                                                                                      06  150                                
ID FAMCHA001201150844150852000008URL(1) - NEWSLETTER                                                                                                     06  150                                
PROFAMCHA001201150852150910000018Mickey Mouseworks - Weekends @ 4:30pm                                                                                   06  150                                
PROFAMCHA001201150910150940000030Alley Cats Strike! - Sunday @ 12pm                                                                                      06  150                                
PRCFAMCHA001201150940150950000010Morning Block menu background (flex time)                                                                               06  150                                
ID FAMCHA001201150950151000000010xxMagic of Disney - V3(water) - TEEN MALE                                                                               06  150                                
PROFAMCHA001201151000151005000005CC Disclaimer (oct) **DO NOT USE**                                                                                      06  150                                
PGRFAMCHA001201151005153253002248Goof Troop                                        Terminal Pete                                                        6068607ECC                              
ID FAMCHA001201153253153303000010Generic ID - Pink inner tube                                                                                            06  150                                
PROFAMCHA0012011533031533330000302 Hour Tour - Savage Garden (DEC03) - Sunday @ 7:3                                                                      02  150                                
PROFAMCHA001201153333153348000015Doug (MARCH2001) - Today @ 4pm                                                                                          06  150                                
PROFAMCHA001201153348153415000027Recess (MARCH2001) - Today @ 5pm                                                                                        06  150                                
PROFAMCHA001201153415153440000025Pete & Pete (AUG2000) - Weekends @ 7:30am                                                                              206  150                                
PRCFAMCHA001201153440153450000010Morning Block menu background (flex time)                                                                               06  150                                
ID FAMCHA001201153450153500000010xxMagic of Disney - V3(water) - TEEN MALE                                                                               06  150                                
PROFAMCHA001201153500153505000005CC Disclaimer (oct) **DO NOT USE**                                                                                      06  150                                
PGRFAMCHA001201153505155743002238Disney's Aladdin                                  I Never Mechanism I Didn't Like                                      6068607ECC                              
ID FAMCHA001201155743155750000007Generic ID - Whisper*                                                                                                   06  150                                
PROFAMCHA001201155750155836000046Hook (DEC01) - Tonight @ 9pm                                                                                            06  150                                
PROFAMCHA001201155836155851000015Doug (MARCH2001) - Coming Up                                                                                            06  150                                
PROFAMCHA001201155851155909000018Mickey Mouseworks - Weekends @ 4:30pm                                                                                   06  150                                
PROFAMCHA0012011559091559390000302 Hour Tour - Savage Garden (DEC03) - Sunday @ 7:3                                                                      06  150                                
PRCFAMCHA001201155939155950000011Morning Block menu background (flex time)                                                                               06  150                                
ID FAMCHA001201155950160000000010xxMagic of Disney - V3(water) - TEEN MALE                                                                               06  150                                
PROFAMCHA001201160000160030000030Disney's One Too - Opening                                                                                              06  150                                
PGRFAMCHA001201160030162255002225Disney's Doug                                     Doug's Marriage Madness                                              6068607E                                
ID FAMCHA001201162255162305000010Generic ID - Ring around the rosie                                                                                      06  150                                
PROFAMCHA001201162305162351000046Hook (DEC01) - Tonight @ 9pm                                                                                            06  150                                
PROFAMCHA001201162351162421000030Pepper Ann (MARCH2001) - Coming Up                                                                                      06  150                                
INTFAMCHA001201162421162814000353Art Attack - Kids In Snow (WINTER)                                                                                     60686120                                
PRCFAMCHA001201162814162845000031Get Up For It Contest - Weekdays/Saturday Evening                                                                      106  150                                
PROFAMCHA001201162845162906000021Recess (MARCH2001) - Today @ 5pm                                                                                        06  150                                
PROFAMCHA0012011629061629360000302 Hour Tour - Savage Garden (DEC03) - Sunday @ 7:3                                                                      06  150                                
PRCFAMCHA001201162936162945000009Morning Block menu background (flex time)                                                                               06  150                                
ID FAMCHA001201162945163000000015Afternoon block pinball open **DO NOT USE**                                                                             06  150                                
PROFAMCHA001201163000163030000030Disney's One Too - Opening                                                                                              06  150                                
PROFAMCHA001201163030163035000005CC Disclaimer (oct) **DO NOT USE**                                                                                      06  150                                
PGRFAMCHA001201163035165324002249Disney's Pepper Ann                               Burn, Hazelnut, Burn/Career Daze                                     6068607ECC                              
ID FAMCHA001201165324165334000010Generic ID - Pink inner tube                                                                                            06  150                                
PROFAMCHA0012011653341654040000302 Hour Tour - Savage Garden (DEC03) - Sunday @ 7:3                                                                      06  150                                
PROFAMCHA001201165404165431000027Recess (MARCH2001) - Coming Up                                                                                          06  150                                
INTFAMCHA001201165431165553000122Disney Dinner Time(02)- Bill Pickett (D12 only)                                                                        60686120                                
INTFAMCHA001201165553165614000021Recess Sketches - Cajoling Gus - Scuba Gus                                                                             60686120                                
PROFAMCHA001201165614165630000016ALF (Description) - Tonight @ 7:30pm                                                                                    06  150                                
PROFAMCHA001201165630165700000030Alley Cats Strike! - Sunday @ 12pm                                                                                      06  150                                
INTFAMCHA001201165700165721000021Recess Sketches - Kindergartner's Surprise - Time                                                                      60686120                                
INTFAMCHA001201165721165754000033Toy Story Treats - The Invasion                                                                                        60686120                                
PRCFAMCHA001201165754165829000035Little Lulu (AUG2000) - Tonight @ 6pm                                                                                  106  150                                
INTFAMCHA001201165829165850000021Recess Sketches - What Did The Diggers Dig Up? - S                                                                     60686120                                
PROFAMCHA001201165850165936000046Hook (DEC01) - Tonight @ 9pm                                                                                            06  150                                
PRCFAMCHA001201165936165945000009Morning Block menu background (flex time)                                                                               06  150                                
ID FAMCHA001201165945170000000015Afternoon block pinball open **DO NOT USE**                                                                             06  150                                
PROFAMCHA001201170000170030000030Disney's One Too - Opening                                                                                              06  150                                
PGRFAMCHA001201170030172305002235Disney's Recess                                   Gus' Last Stand/Operation Field Trip                                 6068607E                                
ID FAMCHA001201172305172315000010Generic ID - Hula Hoop                                                                                                  06  150                                
PROFAMCHA001201172315172401000046Hook (DEC01) - Tonight @ 9pm                                                                                            06  150                                
PROFAMCHA001201172401172431000030Buzz Lightyear - Coming Up                                                                                              06  150                                
PROFAMCHA001201172431172459000028Honey (MARCH2001) - Tonight @ 8pm                                                                                       06  150                                
INTFAMCHA001201172459172814000315Art Attack - Sailing Ship                                                                                              60686120                                
PRCFAMCHA001201172814172845000031Get Up For It Contest - Weekdays/Saturday Evening                                                                      106  150                                
PROFAMCHA001201172845172901000016ALF (Description) - Tonight @ 7:30pm                                                                                    06  150                                
PROFAMCHA001201172901172931000030Oh Heavenly Dog (DEC2) - Tomorrow @ 9pm                                                                                 02  150                                
PRCFAMCHA001201172931172940000009Morning Block menu background (flex time)                                                                               06  150                                
ID FAMCHA001201172940173000000020Morning block open play pen                                                                                             06  150                                
PROFAMCHA001201173000173030000030Disney's One Too - Opening                                                                                              06  150                                
PROFAMCHA001201173030173035000005CC Disclaimer (oct) **DO NOT USE**                                                                                      06  150                                
PGRFAMCHA001201173035175226002151Disney/Pixar's Buzz Lightyear of Star Command     Stress Test                                                          6028607ECC                              
ID FAMCHA001201175226175236000010Generic ID - soccer **DO NOT USE**                                                                                      06  150                                
PROFAMCHA001201175236175306000030Alley Cats Strike! - Sunday @ 12pm                                                                                      06  150                                
PRCFAMCHA001201175306175341000035Little Lulu (AUG2000) - Coming Up                                                                                      106  150                                
PROFAMCHA0012011753411754110000302 Hour Tour - Savage Garden (DEC03) - Sunday @ 7:3                                                                      06  150                                
INTFAMCHA001201175411175810000359MV Disney - Beauty And The Beast (PEBO BRYSON/CELI                                                                     60688120                                
PRCFAMCHA001201175810175850000040Famous Jett Jackson - Saturday @ 8:30pm                                                                                106  150                                
PROFAMCHA001201175850175936000046Hook (DEC01) - Tonight @ 9pm                                                                                            06  150                                
PRCFAMCHA001201175936175945000009Morning Block menu background (flex time)                                                                               06  150                                
ID FAMCHA001201175945180000000015Afternoon block pinball open **DO NOT USE**                                                                             06  150                                
PROFAMCHA001201180000180005000005CC Disclaimer (oct) **DO NOT USE**                                                                                      06  150                                
PGRFAMCHA001201180005182625002620Little Lulu Show; The                             Friends & Enemies/The Beauty Contest/Rich Little P            P22335A1065607ECC                              
ID FAMCHA001201182625182630000005Generic ID - Couch 2*                                                                                                   06  150                                
PROFAMCHA001201182630182716000046Hook (DEC01) - Tonight @ 9pm                                                                                            06  150                                
PROFAMCHA001201182716182746000030Lion King (MARCH2001) - Coming Up                                                                                      206  150                                
PROFAMCHA001201182746182802000016ALF (Description) - Tonight @ 7:30pm                                                                                    06  150                                
ID FAMCHA001201182802182810000008URL(1) - NEWSLETTER                                                                                                     06  150                                
PRCFAMCHA001201182810182841000031Get Up For It Contest - Weekdays/Saturday Evening                                                                      106  150                                
PROFAMCHA001201182841182909000028Honey (MARCH2001) - Tonight @ 8pm                                                                                       06  150                                
PROFAMCHA001201182909182939000030Alley Cats Strike! - Sunday @ 12pm                                                                                      06  150                                
PRCFAMCHA001201182939182950000011Morning Block menu background (flex time)                                                                               06  150                                
ID FAMCHA001201182950183000000010xxMagic of Disney - V2(sky) - ADULT FEMALE                                                                              06  150                                
PROFAMCHA001201183000183005000005CC Disclaimer (oct) **DO NOT USE**                                                                                      06  150                                
PGRFAMCHA001201183005185248002243Lion King's Timon & Pumbaa; The                   Tanzania Zany/Guatemala Malarky                                      6068607ECC                              
ID FAMCHA001201185248185258000010Generic ID - Family w/dog                                                                                               06  150                                
PROFAMCHA001201185258185328000030Alley Cats Strike! - Sunday @ 12pm                                                                                      06  150                                
PRCFAMCHA001201185328185409000041Gargoyles (AUG2000) - Coming Up                                                                                         06  150                                
INTFAMCHA001201185409185819000410MV Disney - Colours Of The Wind (POCAHONTAS)                                                                           60688120                                
PROFAMCHA001201185819185843000024ALF - Tonight @ 7:30pm                                                                                                  06  150                                
PROFAMCHA001201185843185929000046Hook (DEC01) - Tonight @ 9pm                                                                                            06  150                                
PRCFAMCHA001201185929185939000010Morning Block menu background (flex time)                                                                               06  150                                
ID FAMCHA001201185939190000000021Prime time open count down                                                                                              06  150                                
PGRFAMCHA001201190000192246002246Gargoyles                                         Kingdom                                                              6068607E                                
ID FAMCHA001201192246192256000010Generic ID - confetti                                                                                                   06  150                                
PROFAMCHA0012011922561923260000302 Hour Tour - Savage Garden (DEC03) - Sunday @ 7:3                                                                      06  150                                
PROFAMCHA001201192326192350000024ALF - Coming Up                                                                                                         06  150                                
PRCFAMCHA001201192350192421000031Get Up For It Contest - Weekdays/Saturday Evening                                                                      106  150                                
INTFAMCHA001201192421192802000341MV Disney - Hakuna Matata (LEBO M/JIMMY CLIFF)                                                                         60688120                                
PROFAMCHA001201192802192830000028Honey (MARCH2001) - Tonight @ 8pm                                                                                       06  150                                
PROFAMCHA001201192830192900000030Z Games - Weekends @ 10am                                                                                               06  150                                
PROFAMCHA001201192900192930000030Oh Heavenly Dog (DEC2) - Tomorrow @ 9pm                                                                                 06  150                                
PRCFAMCHA001201192930192939000009Morning Block menu background (flex time)                                                                               06  150                                
ID FAMCHA001201192939193000000021Prime time open count down                                                                                              06  150                                
PROFAMCHA001201193000193005000005CC Disclaimer (oct) **DO NOT USE**                                                                                      06  150                                
PGRFAMCHA001201193005195132002127ALF                                                                                                                   A2068807BCC                              
ID FAMCHA001201195132195142000010Generic ID - Family w/dog                                                                                               06  150                                
PROFAMCHA0012011951421952120000302 Hour Tour - Savage Garden (DEC03) - Sunday @ 7:3                                                                      06  150                                
PRCFAMCHA001201195212195252000040Famous Jett Jackson - Saturday @ 8:30pm                                                                                106  150                                
INTFAMCHA001201195252195633000341MV Disney - Mambo #5 (LOU BEGA)                                                                                        60688120                                
PROFAMCHA001201195633195703000030Jersey - Saturday @ 8pm                                                                                                 06  150                                
PRCFAMCHA001201195703195734000031Get Up For It Contest - Weekdays/Saturday Evening                                                                      106  150                                
INTFAMCHA001201195734195841000107Monkey Minutes - Dances With Wolves                                                                                   A20688120                                
PROFAMCHA001201195841195911000030Your Big Break - Sunday @ 11am                                                                                          06  150                                
PROFAMCHA001201195911195941000030Alley Cats Strike! - Sunday @ 12pm                                                                                      06  150                                
PRCFAMCHA001201195941195950000009Morning Block menu background (flex time)                                                                               06  150                                
ID FAMCHA001201195950200000000010xxMagic of Disney - V3(water) - ADULT MALE                                                                              06  150                                
PROFAMCHA001201200000200005000005CC Disclaimer (oct) **DO NOT USE**                                                                                      06  150                                
PGRFAMCHA001201200005204340004335Disney's Honey, I Shrunk The Kids: The TV Show    Name That Tune                                                       6068807BCC                              
ID FAMCHA001201204340204355000015Generic ID - confetti                                                                                                   06  150                                
PROFAMCHA001201204355204425000030Oh Heavenly Dog (DEC2) - Tomorrow @ 9pm                                                                                 06  150                                
PROFAMCHA001201204425204511000046Hook (DEC01) - Coming Up                                                                                                02  150                                
PRCFAMCHA001201204511204542000031Get Up For It Contest - Weekdays/Saturday Evening                                                                      106  150                                
PROFAMCHA001201204542204552000010MV FAMJAM - Teaser (Generic)                                                                                           606 5150                                
PROFAMCHA001201204552204622000030Jersey - Saturday @ 8pm                                                                                                 06  150                                
PROFAMCHA001201204622204652000030Your Big Break - Sunday @ 11am                                                                                          06  150                                
INTFAMCHA001201204652205040000348xMV - Shape Of My Heart                                                                                               A20688120                                
PRCFAMCHA001201205040205120000040Famous Jett Jackson - Saturday @ 8:30pm                                                                                106  150                                
PGRFAMCHA001201205120205853000733Get It Right Goofy                                                                                                     60687150                                
PROFAMCHA001201205853205930000037So Weird (EARTH101) - Sunday @ 8pm                                                                                      06  150                                
PRCFAMCHA001201205930205939000009Morning Block menu background (flex time)                                                                               06  150                                
ID FAMCHA001201205939210000000021Move open family size movie                                                                                             06  150                                
PROFAMCHA001201210000210007000007Rating - G (oct )                                                                                                       06  150                                
PROFAMCHA001201210007210012000005CC Disclaimer (oct) **DO NOT USE**                                                                                      06  150                                
PGRFAMCHA001201210012232153022141Hook                                                                                                                  A2028807DCC                              
ID FAMCHA001201232153232158000005Generic ID - Couch 2*                                                                                                   06  150                                
PROFAMCHA001201232158232228000030Oh Heavenly Dog (DEC2) - Tomorrow @ 9pm                                                                                 06  150                                
PRCFAMCHA001201232228232258000030Are You Afraid of the Dark?(AUG)- Tonight @ 12:30a                                                                      06  150                                
PROFAMCHA001201232258232335000037So Weird (EARTH101) - Sunday @ 8pm                                                                                      06  150                                
INTFAMCHA001201232335232809000434MV Disney - A Dream Is A Wish Your Heart Makes (LI                                                                     60688120                                
PROFAMCHA0012012328092328390000302 Hour Tour - Savage Garden (DEC03) - Sunday @ 7:3                                                                      06  150                                
PROFAMCHA001201232839232909000030Z Games - Weekends @ 10am                                                                                               06  150                                
PROFAMCHA001201232909232939000030Alley Cats Strike! - Sunday @ 12pm                                                                                      06  150                                
ID FAMCHA001201232939233000000021Prime time open count down                                                                                              06  150                                
MVCFAMCHA001201233000235334002334Backstreet Boys Live                                                                                                  A2068808B                                
ID FAMCHA001201235334235344000010Generic ID - Hula Hoop                                                                                                  06  150                                
PROFAMCHA001201235344235414000030Oh Heavenly Dog (DEC2) - Tomorrow @ 9pm                                                                                 06  150                                
PROFAMCHA001201235414235438000024ALF - Coming Up                                                                                                         06  150                                
PRCFAMCHA001201235438235508000030Are You Afraid of the Dark?(AUG)- Tonight @ 12:30a                                                                      06  150                                
INTFAMCHA001201235508235815000307Part Of Your World - Jodi Benson                                                                                       60688120                                
PROFAMCHA001201235815235845000030Z Games - Weekends @ 10am                                                                                               06  150                                
PROFAMCHA001201235845235908000023So Weird (VOODOO) - Sunday @ 8pm                                                                                        06  150                                
PROFAMCHA001201235908235938000030Alley Cats Strike! - Sunday @ 12pm                                                                                      06  150                                
ID FAMCHA001201235938235959000021Prime time open count down                                                                                              06  150                                
PROFAMCHA001201235959000004000005CC Disclaimer (oct) **DO NOT USE**                                                                                      06  150                                
PGRFAMCHA001201000004002131002127ALF                                                                                                                   A2068807BCC                              
ID FAMCHA001201002131002136000005Generic ID - Couch 1*                                                                                                   06  150                                
PROFAMCHA001201002136002206000030Alley Cats Strike! - Sunday @ 12pm                                                                                      06  150                                
PRCFAMCHA001201002206002236000030Are You Afraid of the Dark?(AUG)- Coming Up                                                                             06  150                                
PRCFAMCHA001201002236002316000040Famous Jett Jackson - Weekends @ 9:30am                                                                                106  150                                
INTFAMCHA001201002316002736000420MV Disney - Someday (ALL 4 ONE)                                                                                        60688120                                
PROFAMCHA001201002736002806000030Your Big Break - Sunday @ 11am                                                                                          06  150                                
PROFAMCHA001201002806002836000030Jersey - Saturday @ 8pm                                                                                                 06  150                                
PROFAMCHA001201002836002909000033So Weird (CARNIVAL) - Sunday @ 8pm                                                                                      06  150                                
PROFAMCHA0012010029090029390000302 Hour Tour - Savage Garden (DEC03) - Sunday @ 7:3                                                                      06  150                                
ID FAMCHA001201002939003000000021Prime time open count down                                                                                              06  150                                
PGRFAMCHA001201003000005419002419Are You Afraid Of The Dark?                       The Tale of the Lonely Ghost                                  SR0302 1066807A                                
ID FAMCHA001201005419005429000010Generic ID - Hula Hoop                                                                                                  06  150                                
PROFAMCHA001201005429005459000030Oh Heavenly Dog (DEC2) - Tomorrow @ 9pm                                                                                 06  150                                
PROFAMCHA001201005459005529000030Z Games - Weekends @ 10am                                                                                               06  150                                
PROFAMCHA001201005529005559000030Alley Cats Strike! - Sunday @ 12pm                                                                                      06  150                                
INTFAMCHA001201005559005723000124Bill Nye - R.E.C.Y.C.L.E                                                                                               60688120                                
INTFAMCHA001201005723010200000437MV Disney - Go The Distance (MICHAEL BOLTON)                                                                           60688120                                
SO FAMCHA001201010200010212000012Sign Off (oct 1)                                                                                                        06                                     
OFFFAMCHA001201010212043000032748                                                                                                                                                               
SO FAMCHA001202043000043011000011Sign On (oct 1)                                                                                                         06                                     
PROFAMCHA001202043011043016000005CC Disclaimer (oct) **DO NOT USE**                                                                                      06  150                                
PGRFAMCHA001202043016045416002400Hello Mrs. Cherrywinkle                           Trust                                                         C14683A1065607ACC                              
ID FAMCHA001202045416045426000010Generic ID - Bubbles                                                                                                    06  150                                
ID FAMCHA001202045426045439000013URL(2) - HAPPY BIRTHDAY (as of JUL 01)                                                                                  06  150                                
ID FAMCHA001202045439045500000021Prime time open count down                                                                                              06  150                                
PROFAMCHA001202045500045505000005CC Disclaimer (oct) **DO NOT USE**                                                                                      06  150                                
PGRFAMCHA001202045505051915002410Busy World Of Richard Scarry; The                 Superstitious Bananas/Pepe The Goodstaire/Drive-Th            B24400 1165607ECC                              
ID FAMCHA001202051915051922000007Generic ID - Whisper*                                                                                                   06  150                                
PROFAMCHA001202051922051940000018Mickey Mouseworks - Today @ 4:30pm                                                                                      06  150                                
ID FAMCHA001202051940052001000021Prime time open count down                                                                                              06  150                                
PROFAMCHA001202052001052006000005CC Disclaimer (oct) **DO NOT USE**                                                                                      06  150                                
PGRFAMCHA001202052006054503002457Amazing Animals                                   Animal Disguises                                                     60686110CC                              
ID FAMCHA001202054503054518000015Generic ID - confetti                                                                                                   06  150                                
PROFAMCHA001202054518054539000021Recess (MARCH2001) - Weekdays @ 5pm                                                                                     06  150                                
ID FAMCHA001202054539054600000021Prime time open count down                                                                                              06  150                                
PROFAMCHA001202054600054605000005CC Disclaimer (oct) **DO NOT USE**                                                                                      06  150                                
PGRFAMCHA001202054605061025002420Billy The Cat                                     Billy Becomes A Cat                                           B27637A1065607ECC                              
ID FAMCHA001202061025061030000005Generic ID - Marbles                                                                                                    06  150                                
ID FAMCHA001202061030061039000009URL(1) - CONTESTS                                                                                                       06  150                                
ID FAMCHA001202061039061100000021Prime time open count down                                                                                              06  150                                
PROFAMCHA001202061100061105000005CC Disclaimer (oct) **DO NOT USE**                                                                                      06  150                                
PGRFAMCHA001202061105063457002352Little Lulu Show; The                             Valentines Day/Gertie Greenbean/Stop Fiddling Arou            B25047A1065607ECC                              
ID FAMCHA001202063457063502000005Generic ID - Couch 1*                                                                                                   06  150                                
PROFAMCHA001202063502063529000027Recess (MARCH2001) - Weekdays @ 5pm                                                                                     06  150                                
PRCFAMCHA001202063529063539000010Morning Block menu background (flex time)                                                                               06  150                                
ID FAMCHA001202063539063600000021Prime time open count down                                                                                              06  150                                
PROFAMCHA001202063600063605000005CC Disclaimer (oct) **DO NOT USE**                                                                                      06  150                                
PGRFAMCHA001202063605065852002247Madeline                                          Madeline and the Big Cheese                                          6068607ECC                              
ID FAMCHA001202065852065857000005Generic ID - Couch 2*                                                                                                   06  150                                
PROFAMCHA001202065857065927000030Z Games - Today @ 10am                                                                                                  06  150                                
PRCFAMCHA001202065927065939000012Morning Block menu background (flex time)                                                                               06  150                                
ID FAMCHA001202065939070000000021Prime time open count down                                                                                              06  150                                
PGRFAMCHA001202070000072410002410Microsoap                                         1-005                                                                6068607A                                
ID FAMCHA001202072410072417000007Generic ID - Whisper*                                                                                                   06  150                                
PROFAMCHA001202072417072447000030Jersey - Today @ 9am                                                                                                    06  150                                
PROFAMCHA001202072447072517000030Pete & Pete (AUG2000) - Coming Up                                                                                      206  150                                
INTFAMCHA001202072517072848000331MV Disney - Baby Mine (ALISON KRAUSS)                                                                                  60688120                                
PRCFAMCHA001202072848072928000040Famous Jett Jackson - Today @ 9:30am                                                                                   106  150                                
PRCFAMCHA001202072928072939000011Morning Block menu background (flex time)                                                                               06  150                                
ID FAMCHA001202072939073000000021Prime time open count down                                                                                              06  150                                
PGRFAMCHA001202073000075420002420Adventures of Pete & Pete; The                    The Call                                                            A2068607B                                
ID FAMCHA001202075420075425000005Generic ID - Fingerpaint                                                                                                06  150                                
PRCFAMCHA001202075425075505000040Famous Jett Jackson - Today @ 9:30am                                                                                   106  150                                
INTFAMCHA001202075505075859000354Art Attack - Weight Lifter                                                                                             60686120                                
PROFAMCHA001202075859075929000030Z Games - Today @ 10am                                                                                                  06  150                                
PRCFAMCHA001202075929075939000010Morning Block menu background (flex time)                                                                               06  150                                
ID FAMCHA001202075939080000000021Prime time open count down                                                                                              06  150                                
PGRFAMCHA001202080000082518002518Clarissa                                          Parents Who Say No                                                   2068607B                                
ID FAMCHA001202082518082533000015Generic ID - confetti                                                                                                   06  150                                
PROFAMCHA001202082533082603000030Z Games - Today @ 10am                                                                                                  06  150                                
INTFAMCHA001202082603082859000256MV Disney - Strangers Like Me (PHIL COLLINS)                                                                           60688120                                
PROFAMCHA001202082859082929000030Your Big Break - Sunday @ 11am                                                                                          06  150                                
PRCFAMCHA001202082929082939000010Morning Block menu background (flex time)                                                                               06  150                                
ID FAMCHA001202082939083000000021Prime time open count down                                                                                              06  150                                
PROFAMCHA001202083000083005000005CC Disclaimer (oct) **DO NOT USE**                                                                                      06  150                                
PGRFAMCHA001202083005085317002312Mentors                                           A Transient, Shining Trouble                                  C16301 1055607ACC3                             
ID FAMCHA001202085317085322000005Generic ID - Marbles                                                                                                    06  150                                
PROFAMCHA001202085322085352000030Your Big Break - Sunday @ 11am                                                                                          06  150                                
PROFAMCHA001202085352085422000030Jersey - Coming Up                                                                                                      06  150                                
INTFAMCHA001202085422085912000450MV Disney - Circle of Life (ELTON JOHN)                                                                                60688120                                
PROFAMCHA001202085912085942000030Lion King (MARCH2001) - Today @ 3:30pm                                                                                 206  150                                
PRCFAMCHA001202085942085950000008Morning Block menu background (flex time)                                                                               06  150                                
ID FAMCHA001202085950090000000010xxMagic of Disney - V2(sky) - TEEN FEMALE                                                                               06  150                                
PROFAMCHA001202090000090005000005CC Disclaimer (oct) **DO NOT USE**                                                                                      06  150                                
PGRFAMCHA001202090005092235002230Jersey; The                                       Beauty and the Beast                                                 6068607ACC                              
ID FAMCHA001202092235092245000010Generic ID - Pink inner tube                                                                                            06  150                                
PROFAMCHA001202092245092315000030Lion King (MARCH2001) - Today @ 3:30pm                                                                                 206  150                                
PRCFAMCHA001202092315092355000040Famous Jett Jackson - Coming Up                                                                                        106  150                                
INTFAMCHA001202092355092821000426MV Disney - Love Will Find A Way (KENNY LATIMORE/H                                                                     60688120                                
PROFAMCHA001202092821092851000030Z Games - Today @ 10am                                                                                                  06  150                                
PRCFAMCHA001202092851092927000036Goof Troop (MARCH2001) - Today @ 4pm                                                                                    06  150                                
PRCFAMCHA001202092927092939000012Morning Block menu background (flex time)                                                                               06  150                                
ID FAMCHA001202092939093000000021Prime time open count down                                                                                              06  150                                
PROFAMCHA001202093000093005000005CC Disclaimer (oct) **DO NOT USE**                                                                                      06  150                                
PGRFAMCHA001202093005095439002434Famous Jett Jackson; The                          Who's The Man                                                 SR0295A1066607ACC                              
ID FAMCHA001202095439095449000010Generic ID - Ring around the rosie                                                                                      06  150                                
PRCFAMCHA001202095449095525000036Goof Troop (MARCH2001) - Today @ 4pm                                                                                    06  150                                
PROFAMCHA001202095525095555000030Z Games (MARCH2001) - Coming Up                                                                                         06  150                                
INTFAMCHA001202095555095910000315Art Attack - Sailing Ship                                                                                              60686120                                
PROFAMCHA001202095910095940000030Mickey Mouseworks - Today @ 4:30pm                                                                                      06  150                                
PRCFAMCHA001202095940095950000010Morning Block menu background (flex time)                                                                               06  150                                
ID FAMCHA001202095950100000000010xxMagic of Disney - V2(sky) - TEEN MALE                                                                                 06  150                                
PROFAMCHA001202100000100005000005CC Disclaimer (oct) **DO NOT USE**                                                                                      06  150                                
PGRFAMCHA001202100005102405002400Z Games                                           1-007                                                                60686110CC                              
ID FAMCHA001202102405102415000010Generic ID - soccer **DO NOT USE**                                                                                      06  150                                
PROFAMCHA001202102415102445000030Mickey Mouseworks - Today @ 4:30pm                                                                                      06  150                                
INTFAMCHA001202102445102900000415MV Disney - You'll Be In My Heart (PHIL COLLINS)                                                                       60688120                                
PROFAMCHA001202102900102930000030New Adventures of WTP (MARCH2001) - Today @ 5:30pm                                                                      06  150                                
PRCFAMCHA001202102930102939000009Morning Block menu background (flex time)                                                                               06  150                                
ID FAMCHA001202102939103000000021Prime time open count down                                                                                              06  150                                
PROFAMCHA001202103000103005000005CC Disclaimer (oct) **DO NOT USE**                                                                                      06  150                                
PGRFAMCHA001202103005105405002400Bug Juice                                         Odd Man Out                                                          6068607ACC                              
ID FAMCHA001202105405105415000010Generic ID - Bubbles                                                                                                    06  150                                
PROFAMCHA001202105415105445000030New Adventures of WTP (MARCH2001) - Today @ 5:30pm                                                                      06  150                                
INTFAMCHA001202105445105905000420MV Disney - Someday (ALL 4 ONE)                                                                                        60688120                                
PRCFAMCHA001202105905105939000034Hoze Houndz (MARCH2001) - Tonight @ 7:00pm                                                                              06  150                                
ID FAMCHA001202105939110000000021Prime time open count down                                                                                              06  150                                
PGRFAMCHA001202110000113013003013Art Attack                                        036/037                                                              60686110                                
ID FAMCHA001202113013113018000005Generic ID - Couch 2*                                                                                                   06  150                                
PGRFAMCHA001202113018115324002306Disney Presents Bill Nye the Science Guy          Erosion                                                              60686110                                
ID FAMCHA001202115324115334000010Generic ID - Bubbles                                                                                                    06  150                                
PROFAMCHA001202115334115404000030Alley Cats Strike! - Tomorrow @ 12pm                                                                                    02  150                                
PRCFAMCHA001202115404115438000034Hoze Houndz (MARCH2001) - Tonight @ 7:00pm                                                                              06  150                                
INTFAMCHA001202115438115837000359MV Disney - Beauty And The Beast (PEBO BRYSON/CELI                                                                     60688120                                
PROFAMCHA001202115837115907000030Jersey - Tonight @ 8pm                                                                                                  06  150                                
PROFAMCHA001202115907115930000023Beethoven -DEC08- Friday @ 9pm                                                                                          02  150                                
PRCFAMCHA001202115930115939000009Morning Block menu background (flex time)                                                                               06  150                                
ID FAMCHA001202115939120000000021Move open family size movie                                                                                             06  150                                
PROFAMCHA001202120000120007000007Rating - G (oct )                                                                                                       06  150                                
PGRFAMCHA001202120007131435011428Babes In Toyland                                                                                                      A2068807C                                
ID FAMCHA001202131435131440000005Generic ID - Bubbles*                                                                                                   06  150                                
PROFAMCHA001202131440131510000030Alley Cats Strike! - Tomorrow @ 12pm                                                                                    06  150                                
PROFAMCHA001202131510131531000021Recess (MARCH2001) - Weekdays @ 5pm                                                                                     06  150                                
INTFAMCHA001202131531131916000345MV Disney - Deck The Halls *CHRISTMAS*                                                                                 60688120                                
PROFAMCHA001202131916131939000023Beethoven -DEC08- Friday @ 9pm                                                                                          06  150                                
PRCFAMCHA001202131939131950000011Morning Block menu background (flex time)                                                                               06  150                                
ID FAMCHA001202131950132000000010xxMagic of Disney - V3(water) - TEEN FEMALE                                                                             06  150                                
PROFAMCHA001202132000132005000005CC Disclaimer (oct) **DO NOT USE**                                                                                      06  150                                
PGRFAMCHA001202132005134352002347Goof Troop Christmas; A                                                                                               A6068807ECC                              
ID FAMCHA001202134352134357000005Generic ID - Bubbles*                                                                                                   06  150                                
PROFAMCHA001202134357134427000030Alley Cats Strike! - Tomorrow @ 12pm                                                                                    06  150                                
ID FAMCHA001202134427134439000012URL(1) - MINI SITES                                                                                                     06  150                                
ID FAMCHA001202134439134500000021Move open family size movie                                                                                             06  150                                
PROFAMCHA001202134500134507000007Rating - G (oct )                                                                                                       06  150                                
PROFAMCHA001202134507134512000005CC Disclaimer (oct) **DO NOT USE**                                                                                      06  150                                
PGRFAMCHA001202134512150028011516Troll in Central Park; A                                                                                              A2068607DCC                              
ID FAMCHA001202150028150033000005Generic ID - soccer **DO NOT USE**                                                                                      06  150                                
PROFAMCHA001202150033150038000005CC Disclaimer (oct) **DO NOT USE**                                                                                      06  150                                
PGRFAMCHA001202150038152315002237Disney's Aladdin                                  Much Abu About Something                                             6068607ECC                              
ID FAMCHA001202152315152320000005Generic ID - Couch 1*                                                                                                   06  150                                
PROFAMCHA001202152320152350000030Alley Cats Strike! - Tomorrow @ 12pm                                                                                    06  150                                
PROFAMCHA001202152350152420000030Lion King (MARCH2001) - Coming Up                                                                                      206  150                                
PRCFAMCHA001202152420152456000036Goof Troop (MARCH2001) - Today @ 4pm                                                                                    06  150                                
INTFAMCHA001202152456152842000346MV Disney - As Long As There's Christmas (PEBO BRY                                                                     60688120                                
PROFAMCHA001202152842152857000015Doug (MARCH2001) - Weekdays @ 4pm                                                                                       06  150                                
PROFAMCHA001202152857152927000030Mickey Mouseworks - Today @ 4:30pm                                                                                      06  150                                
PROFAMCHA001202152927152950000023Beethoven -DEC08- Friday @ 9pm                                                                                          06  150                                
ID FAMCHA001202152950153000000010xxMagic of Disney - V4 - TEEN FEMALE                                                                                    06  150                                
PROFAMCHA001202153000153005000005CC Disclaimer (oct) **DO NOT USE**                                                                                      06  150                                
PGRFAMCHA001202153005155247002242Lion King's Timon & Pumbaa; The                   Back Out In The Outback/Gabon With the Wind                          6068607ECC                              
ID FAMCHA001202155247155252000005Generic ID - Couch 2*                                                                                                   06  150                                
PROFAMCHA001202155252155322000030Alley Cats Strike! - Tomorrow @ 12pm                                                                                    06  150                                
PRCFAMCHA001202155322155358000036Goof Troop (MARCH2001) - Coming Up                                                                                      06  150                                
PROFAMCHA001202155358155428000030Mickey Mouseworks - Today @ 4:30pm                                                                                      06  150                                
INTFAMCHA001202155428155831000403Art Attack - Skiers (WINTER)                                                                                           60686120                                
PROFAMCHA001202155831155916000045PB&J Otter (MARCH2001) - Today @ 5pm                                                                                   206  150                                
PROFAMCHA001202155916155939000023Beethoven -DEC08- Friday @ 9pm                                                                                          06  150                                
PRCFAMCHA001202155939155950000011Morning Block menu background (flex time)                                                                               06  150                                
ID FAMCHA001202155950160000000010xxMagic of Disney - V4 - TEEN MALE                                                                                      06  150                                
PROFAMCHA001202160000160005000005CC Disclaimer (oct) **DO NOT USE**                                                                                      06  150                                
PGRFAMCHA001202160005162251002246Goof Troop                                        Fool's Gold                                                          6068607ECC                              
ID FAMCHA001202162251162301000010Generic ID - Family w/dog                                                                                               06  150                                
PROFAMCHA001202162301162331000030Alley Cats Strike! - Tomorrow @ 12pm                                                                                    06  150                                
PROFAMCHA001202162331162401000030Mickey Mouseworks - Coming Up                                                                                           06  150                                
PROFAMCHA001202162401162446000045PB&J Otter (MARCH2001) - Today @ 5pm                                                                                   206  150                                
INTFAMCHA001202162446162848000402MV Disney - A Whole New World (PEBO BRYSON/REGINA                                                                      60688120                                
PROFAMCHA001202162848162918000030New Adventures of WTP (MARCH2001) - Today @ 5:30pm                                                                      06  150                                
PROFAMCHA001202162918162941000023Beethoven -DEC08- Friday @ 9pm                                                                                          06  150                                
PRCFAMCHA001202162941162950000009Morning Block menu background (flex time)                                                                               06  150                                
ID FAMCHA001202162950163000000010xxMagic of Disney - V2(sky) - TEEN FEMALE                                                                               06  150                                
PROFAMCHA001202163000163005000005CC Disclaimer (oct) **DO NOT USE**                                                                                      06  150                                
PGRFAMCHA001202163005165253002248Disney's Mickey Mouseworks                        1-003                                                                6068607ECC                              
ID FAMCHA001202165253165258000005Generic ID - Fingerpaint                                                                                                06  150                                
PROFAMCHA001202165258165321000023Beethoven -DEC08- Friday @ 9pm                                                                                          06  150                                
PROFAMCHA001202165321165406000045PB&J Otter (MARCH2001) - Coming Up                                                                                     206  150                                
PROFAMCHA001202165406165436000030New Adventures of WTP (MARCH2001) - Today @ 5:30pm                                                                      06  150                                
INTFAMCHA001202165436165829000353Art Attack - Kids In Snow (WINTER)                                                                                     60686120                                
PRCFAMCHA001202165829165859000030Franklin (MARCH2001) - Tonight @ 6pm                                                                                   106  150                                
