PGRFAMCHA140301043000045233002233Franny's Feet                                     EP: 43                                                        C31292 1065607ECC                              
PROFAMCHA140301045233045240000007D-JR Live Action ID - SWOBB - Coming Up (May2012)                                                                           150                                
PROFAMCHA140301045240045305000025D-JR Live Action ID - #42 Brush Teeth (May2012)                                                                             150                                
PROFAMCHA140301045305045359000054D-JR Promo - Lego Mall Tour (x2 a day) (Feb24-Apr1                                                                          150                                
PROFAMCHA140301045359045405000006D-JR - Short Open (:06) (May2011)                                                                                           150                                
PROFAMCHA140301045405045705000300PH-D Short - Mickey Mousekersize Shorts - 03 - Plu                                                                          150CC                              
PROFAMCHA140301045705045711000006D-JR - Short Close (:06) (May2011)                                                                                          150                                
PROFAMCHA140301045711045801000050D-JR Promo - Henry Hugglemonster - Get more HH on                                                                           150                                
PROFAMCHA140301045801045850000049D-JR Promo - Strawberry Shortcake - Get More on th                                                                          150                                
PROFAMCHA140301045850045924000034D-JR OOB - Sherriff 115 - New Episode March 2 (Feb                                                                          150                                
PROFAMCHA140301045924045949000025D-JR Live Action ID - #13 Make Bed (May2012)                                                                                150                                
PROFAMCHA140301045949045956000007D-JR Live Action ID - SWOBB - Now (May2012)                                                                                 150                                
PROFAMCHA140301045956050011000015D-JR - Monthly ID - March (Mar2014)                                                                                         150                                
PGRFAMCHA140301050011052243002232The Secret World of Benjamin Bear                 EP: 23                                                        C26066 1065607ECC                              
PROFAMCHA140301052243052250000007D-JR Live Action ID - Harry & His Dinosaurs - Comi                                                                          150                                
PROFAMCHA140301052250052315000025D-JR Live Action ID - #47 Making Breakfast (May201                                                                          150                                
PROFAMCHA140301052315052349000034D-JR OOB - Sherriff 115 - New Episode March 2 (Feb                                                                          150                                
PROFAMCHA140301052349052441000052D-JR Promo - Doc McStuffins - Get more on the chan                                                                          150                                
PROFAMCHA140301052441052447000006D-JR - Short Open (:06) (May2011)                                                                                           150                                
PROFAMCHA140301052447052717000230D-JR Short - Choo Choo Soul - 1-09 (Jul2013)                                                                                150CC                              
PROFAMCHA140301052717052723000006D-JR - Short Close (:06) (May2011)                                                                                          150                                
PROFAMCHA140301052723052748000025D-JR Promo - JATNP - Get more on the channel REV (                                                                          150                                
PROFAMCHA140301052748052830000042D-JR Promo - Bananas in Pajamas - Weekdays @ 10am                                                                           150                                
PROFAMCHA140301052830052924000054D-JR Promo - Lego Mall Tour (x2 a day) (Feb24-Apr1                                                                          150                                
PROFAMCHA140301052924052949000025D-JR Live Action ID - #50 Feed Dog (Sep2013)                                                                                150                                
PROFAMCHA140301052949052956000007D-JR Live Action ID - Harry & His Dinosaurs - Now                                                                           150                                
PROFAMCHA140301052956053011000015D-JR - Daily ID - Saturday (Feb2014)                                                                                        150                                
PGRFAMCHA140301053011055149002138Harry and His Bucket Full of Dinosaurs            EP: 16                                                        B05035 1065607ECC                              
PRCFAMCHA140301055149055218000029Next Step Season 2 (HD) Premise - New Season Frida                                                                          150                                
PROFAMCHA140301055218055555000337MV Disney (HD) Idina Menzel - Let It Go (Feb14-Mar                                                                          150CC                              
PROFAMCHA140301055555055625000030Episodic A&A (HD) 306 New Ep Friday March 7 @ 630                                                                           150                                
PROFAMCHA140301055625055640000015Web A&A Online Game (HD) Play Games at family.ca (                                                                          150                                
PROFAMCHA140301055640055710000030IDDI (HD) Mischief Prems March 14 @ 7 (Feb14-Mar9)                                                                          150                                
PGRFAMCHA140301055710055925000215Short GF Dipper's Guide (HD) 105 The Tooth (Nov23)                                                                     60688120                                
PRCFAMCHA140301055925055938000013Family Bumper (HD) - Drums ID (Jan 2011)                                                                                    150                                
PROFAMCHA140301055938060009000031Stunt Hand Picked GLC (HD) Starting Monday March 1                                                                          150                                
PGRFAMCHA140301060009062211002202Slugterra                                         EP: 13                                                        A33763 1065607ACC                              
PROFAMCHA140301062211062300000049Stunt OMFF (HD) Friday March 7 @ 630 (Feb21-Mar2)                                                                           150                                
PROFAMCHA140301062300062338000038Wingin It (HD) Refresh Promo - Coming Up Next (Apr                                                                          150                                
PROFAMCHA140301062338062408000030Retag Episodic GLC (HD) 419 Tomorrow @ 1130 (Mar1)                                                                          150                                
PGRFAMCHA140301062408062738000330MV Non Disney (HD) Mandia Nantsios - Rising Up (Fe                                                                     10615120CC                              
PROFAMCHA140301062738062753000015Web Jessie Online Game (HD) Play Games at family.c                                                                          150                                
PRCFAMCHA140301062753062809000016Family Bumper Flex (HD) Flex ID - Jessie ID (:15-:                                                                          150                                
PROFAMCHA140301062809062907000058Episodic GLC (HD) 499 Finale Friday March 14 @ 6 (                                                                          150CC                              
PROFAMCHA140301062907062945000038Wingin It (HD) Refresh Promo - Coming Up Next (Apr                                                                          150                                
PRCFAMCHA140301062945063009000024Episodic Next Step (HD) 299 Season Premiere Friday                                                                          150                                
PRCFAMCHA140301063009063023000014Descriptive Video Slate (HD) (Apr2013)                                                                                      150                                
PGRFAMCHA140301063023065254002231Wingin' It                                        EP: 05                                                        C32356 1065607ACD                              
PROFAMCHA140301065254065324000030DXD Pac-Man (HD) Prems Monday March 17 @ 6 (Mar1-1                                                                          150                                
PRCFAMCHA140301065324065347000023Gravity Falls (HD) Comedy Sell - Coming Up Next (A                                                                          150                                
PROFAMCHA140301065347065416000029Episodic ANT (HD) 317 Friday March 7 @ 7 (Feb21-Ma                                                                          150                                
PGRFAMCHA140301065416065730000314MV Universal (HD) Nikki Yanofsky - Something New (                                                                     10615120CC                              
PRCFAMCHA140301065730065745000015Family Bumper (HD) - Hot Potato ID (Jan 2011)                                                                               150                                
PROFAMCHA140301065745065813000028IDDI CT (HD) Prems March 14 @ 7 (Feb28-Mar9)                                                                                150                                
PRCFAMCHA140301065813065836000023Gravity Falls (HD) Comedy Sell - Coming Up Next (A                                                                          150                                
PRCFAMCHA140301065836070015000139Next Step Season 2 (HD) Sizzle - New Season Starts                                                                          150                                
PGRFAMCHA140301070015072235002220Disney Gravity Falls                              EP: 04                                                               6068607ECC                              
PRCFAMCHA140301072235072259000024Episodic Next Step (HD) 299 Season Premiere Friday                                                                          150                                
PROFAMCHA140301072259072344000045PAF Secret Agent (HD) Coming Up Next (Jan2014)                                                                              150                                
PGRFAMCHA140301072344072713000329Mickey Mouse Shorts (HD) 1-11 Third Wheel (Feb21)                                                                      60688120                                
PROFAMCHA140301072713072743000030Episodic A&A (HD) 306 New Ep Friday March 7 @ 630                                                                           150                                
PROFAMCHA140301072743072833000050Walt Disney Pictures                                                                                                        150                                
PRCFAMCHA140301072833072855000022Family Bumper Flex (HD) Fifteen Logos (:21-:22) (N                                                                          150                                
PROFAMCHA140301072855072926000031Stunt Hand Picked GLC (HD) Starting Monday March 1                                                                          150                                
PROFAMCHA140301072926072943000017PAF (HD) Disney Refresh CD - Coming Up Next (April                                                                          150                                
PRCFAMCHA140301072943073012000029PP Project Pet Vote (HD) family.ca/projectpet (Mar                                                                          150                                
PGRFAMCHA140301073012075243002231Disney Phineas and Ferb                           EP: 18                                                               6068607ECC                              
PRCFAMCHA140301075243075312000029Next Step Season 2 (HD) Premise - New Season Frida                                                                          150                                
PROFAMCHA140301075312075344000032PAF (HD) Delicious Refresh - Coming Up Next (Jun20                                                                          150                                
PGRFAMCHA140301075344075746000402MV Non Disney (HD) Alli Simpson - Notice Me (Feb20                                                                     60685120CC                              
PROFAMCHA140301075746075836000050Walt Disney Pictures                                                                                                        150                                
PRCFAMCHA140301075836075849000013Family Bumper Flex (HD) Flex ID - WUW (May2012) (:                                                                          150                                
PROFAMCHA140301075849075934000045PAF Secret Agent (HD) Coming Up Next (Jan2014)                                                                              150                                
PROFAMCHA140301075934080004000030Retag Episodic GLC (HD) 419 Tomorrow @ 1130 (Mar1)                                                                          150                                
PGRFAMCHA140301080004082235002231Disney Phineas and Ferb                           EP: 19                                                               6068607ECC                              
PROFAMCHA140301082235082312000037Retag Episodic PAF (HD) 415 Tomorrow @ 1030 (Mar1)                                                                          150                                
PROFAMCHA140301082312082328000016Shake It Up (HD) Refresh CD - Coming Up Next (Apri                                                                          150                                
PROFAMCHA140301082328082426000058Episodic GLC (HD) 499 Finale Friday March 14 @ 6 (                                                                          150CC                              
PGRFAMCHA140301082426082536000110SYN (HD) Jungle Book w/ DWAB cast - Elephant (Feb2                                                                     10615120CC                              
PROFAMCHA140301082536082616000040Kellogg's                                                                                                                   150                                
PRCFAMCHA140301082616082637000021Family Bumper Flex (HD) Garage Band (:17-:21) (Nov                                                                          150                                
PGRFAMCHA140301082637082837000200Copper Top Flop Show (HD) 106 NewsWorthy Part 1  (                                                                     60688120                                
PGRFAMCHA140301082837082935000058IDDI Premise (HD) Prems March 14 @ 7 (Feb28-Mar9)                                                                      60685120CC                              
PRCFAMCHA140301082935082950000015Family Flex Next (HD) SIU Zendaya (Aug 2013) (:13-                                                                          150                                
PRCFAMCHA140301082950083014000024Episodic Next Step (HD) 299 Season Premiere Friday                                                                          150                                
PGRFAMCHA140301083014085249002235Disney Shake It Up                                EP: 18                                                               6068707BCC                              
PROFAMCHA140301085249085338000049Stunt OMFF (HD) Friday March 7 @ 630 (Feb21-Mar2)                                                                           150                                
PROFAMCHA140301085338085343000005GLC (HD) ID - Jason Dolley 2 - "Coming Up Next" (g                                                                          150                                
PGRFAMCHA140301085343085638000255MV Non Disney (HD) Francesco - Beautiful (Feb13-Ma                                                                     10615120CC                              
PROFAMCHA140301085638085738000100Feld Entertainment                                                                                                          150                                
PRCFAMCHA140301085738085751000013Family Bumper (HD) - Karate ID (Jan 2011)                                                                                   150                                
PRCFAMCHA140301085751085930000139Next Step Season 2 (HD) Sizzle - New Season Starts                                                                          150                                
PROFAMCHA140301085930085936000006GLC (HD) ID - Bridget Mendler 4 "Coming Up Next" (                                                                          150                                
PROFAMCHA140301085936090006000030IDDI (HD) Mischief Prems March 14 @ 7 (Feb14-Mar9)                                                                          150                                
PGRFAMCHA140301090006092237002231Good Luck Charlie                                 EP: 12                                                               6068707BCC                              
PROFAMCHA140301092237092335000058Episodic GLC (HD) 499 Finale Friday March 14 @ 6 (                                                                          150CC                              
PRCFAMCHA140301092335092350000015LAM (HD) Comedy Sell - Coming Up Next (Oct2013)                                                                             150                                
PROFAMCHA140301092350092419000029Episodic ANT (HD) 317 Friday March 7 @ 7 (Feb21-Ma                                                                          150                                
PGRFAMCHA140301092419092753000334MV Non Disney (HD) Cody Simpson ft Ziggy Marley -                                                                      10615120CC                              
PRCFAMCHA140301092753092823000030Web FOD 2012 Refresh (HD) Family.ca New Look (Apr2                                                                          150                                
PRCFAMCHA140301092823092851000028Family Bumper Flex (HD) Flex ID - Austin & Ally (F                                                                          150                                
PROFAMCHA140301092851092921000030DXD Pac-Man (HD) Prems Monday March 17 @ 6 (Mar1-1                                                                          150                                
PRCFAMCHA140301092921092936000015LAM (HD) Comedy Sell - Coming Up Next (Oct2013)                                                                             150                                
PRCFAMCHA140301092936093000000024Episodic Next Step (HD) 299 Season Premiere Friday                                                                          150                                
PGRFAMCHA140301093000095306002306Disney Liv and Maddie                             EP: 04                                                               6068807BCC                              
PROFAMCHA140301095306095316000010LU - (HD) ANT Farm/Jessie Weekends @ 10:30am (Apri                                                                          150                                
PROFAMCHA140301095316095353000037Retag Episodic PAF (HD) 415 Tomorrow @ 1030 (Mar1)                                                                          150                                
PROFAMCHA140301095353095423000030Retag Episodic GLC (HD) 419 Tomorrow @ 1130 (Mar1)                                                                          150                                
PGRFAMCHA140301095423095608000145ME (HD) Mr Peabody & Sherman - Coming Soon (Feb21-                                                                     10615120CC                              
PROFAMCHA140301095608095634000026Web DWAB @ family.ca (HD) Play Games at family.ca                                                                           150                                
PRCFAMCHA140301095634095652000018Family Bumper Flex (HD) Flip Book (:15-:18) (Nov 2                                                                          150                                
MVCFAMCHA140301095652095850000158MV Disney (HD) Olaf - I Love Summer (Jan17-Mar28)                                                                      60685150CC                              
PRCFAMCHA140301095850095919000029Next Step Season 2 (HD) Premise - New Season Frida                                                                          150                                
PROFAMCHA140301095919095934000015ANT Farm (HD) Refresh CT - Coming Up Next (April 2                                                                          150                                
PRCFAMCHA140301095934100003000029PP Project Pet Vote (HD) family.ca/projectpet (Mar                                                                          150                                
PGRFAMCHA140301100003102434002431Disney A.N.T. Farm                                EP: 01                                                               6068607BCC                              
PROFAMCHA140301102434102503000029Episodic ANT (HD) 317 Friday March 7 @ 7 (Feb21-Ma                                                                          150                                
PROFAMCHA140301102503102513000010LU - (HD) Jessie/Austin & Ally Weekends @ 11:00am                                                                           150                                
PROFAMCHA140301102513102543000030Retag Episodic GLC (HD) 419 Tomorrow @ 1130 (Mar1)                                                                          150                                
PROFAMCHA14030110254310263300005020th Century Fox                                                                                                            150                                
PRCFAMCHA140301102633102641000008Family Bumper (HD) - Origami ID (Jan 2011)                                                                                  150                                
PROFAMCHA140301102641102709000028IDDI CT (HD) Prems March 14 @ 7 (Feb28-Mar9)                                                                                150                                
PROFAMCHA140301102709102809000100Feld Entertainment                                                                                                          150                                
PRCFAMCHA140301102809102823000014Family Flex Next (HD) Jessie - Emma (:12-:14) (Mar                                                                          150                                
PRCFAMCHA140301102823103002000139Next Step Season 2 (HD) Sizzle - New Season Starts                                                                          150                                
PGRFAMCHA140301103002105235002233Disney Jessie                                     EP: 14                                                               6068807BCC                              
PRCFAMCHA140301105235105259000024Episodic Next Step (HD) 299 Season Premiere Friday                                                                          150                                
PRCFAMCHA140301105259105313000014Family Flex Next (HD) A&A Raini (Aug 2013) (:13-:1                                                                          150                                
PROFAMCHA140301105313105350000037Retag Episodic PAF (HD) 415 Tomorrow @ 1030 (Mar1)                                                                          150                                
PROFAMCHA140301105350105440000050Walt Disney Pictures                                                                                                        150                                
PRCFAMCHA140301105440105456000016Family Bumper Flex (HD) Flex ID - ANT Farm (:16-:2                                                                          150                                
PGRFAMCHA140301105456105853000357MV Disney (HD) R5 - Forget About You (w/ concert L                                                                     60685120CC                              
PROFAMCHA140301105853105926000033Austin & Ally (HD) Music Lesson - Coming Up Next (                                                                          150                                
PROFAMCHA140301105926105957000031Stunt Hand Picked GLC (HD) Starting Monday March 1                                                                          150                                
PGRFAMCHA140301105957112228002231Disney Austin & Ally                              EP: 06                                                               6068807BCC                              
PROFAMCHA140301112228112317000049Stunt OMFF (HD) Friday March 7 @ 630 (Feb21-Mar2)                                                                           150                                
PROFAMCHA140301112317112352000035DWAB (HD) Refresh - Stan Dating Video - Coming Up                                                                           150                                
PROFAMCHA140301112352112450000058Episodic GLC (HD) 499 Finale Friday March 14 @ 6 (                                                                          150CC                              
PRCFAMCHA140301112450112519000029PP Project Pet Vote (HD) family.ca/projectpet (Mar                                                                          150                                
PROFAMCHA14030111251911260900005020th Century Fox                                                                                                            150                                
PRCFAMCHA140301112609112631000022Family Bumper Flex (HD) Fifteen Logos (:21-:22) (N                                                                          150                                
PGRFAMCHA140301112631112818000147Syn Muppets Most Wanted (HD) Ross Lynch Extended!                                                                      60685120CC                              
PGRFAMCHA140301112818112916000058IDDI Premise (HD) Prems March 14 @ 7 (Feb28-Mar9)                                                                      60685120CC                              
PRCFAMCHA140301112916112931000015Family Flex Next (HD) DWAB Ghannelius (Aug 2013) (                                                                          150                                
PRCFAMCHA140301112931113000000029Next Step Season 2 (HD) Premise - New Season Frida                                                                          150                                
PGRFAMCHA140301113000115150002150Disney Dog with a Blog                            EP: 11                                                               6068807BCC                              
PROFAMCHA140301115150115220000030DXD Pac-Man (HD) Prems Monday March 17 @ 6 (Mar1-1                                                                          150                                
PROFAMCHA140301115220115257000037Retag Episodic PAF (HD) 415 Tomorrow @ 1030 (Mar1)                                                                          150                                
PROFAMCHA14030111525711534700005020th Century Fox                                                                                                            150                                
PROFAMCHA140301115347115417000030Episodic A&A (HD) 306 New Ep Friday March 7 @ 630                                                                           150                                
PROFAMCHA140301115417115432000015Web A&A Online Game (HD) Play Games at family.ca (                                                                          150                                
PGRFAMCHA140301115432115819000347MV Universal (HD) John Newman - Love Me Again (Jan                                                                     10615120CC                              
PROFAMCHA140301115819115853000034D-JR OOB - Sherriff 115 - New Episode March 2 (Feb                                                                          150                                
PROFAMCHA140301115853115924000031Stunt Hand Picked GLC (HD) Starting Monday March 1                                                                          150                                
PRCFAMCHA140301115924115948000024Episodic Next Step (HD) 299 Season Premiere Friday                                                                          150                                
ID FAMCHA140301115948120003000015Popcorn Pix Block Open (HD)  (Jan2011)                                                                                      150                                
ID FAMCHA140301120003120012000009Popcorn Pix Rating Slate (HD) - G (Jan 2011)                                                                                150                                
ID FAMCHA140301120012120018000006Popcorn Pix Magic of Disney Bumper (HD) (Apr2013)                                                                           150                                
PGRFAMCHA140301120018133416013358Wizards of Waverly Place The Movie                                                                                    A6068807CCC                              
PROFAMCHA140301133416133450000034D-JR OOB - Sherriff 115 - New Episode March 2 (Feb                                                                          150                                
PRCFAMCHA140301133450133505000015Family Bumper Flex (HD) Flex ID - Music ID (:14-:1                                                                          150                                
PRCFAMCHA140301133505133528000023Gravity Falls (HD) Comedy Sell - Coming Up Next (A                                                                          150                                
PGRFAMCHA140301133528135847002319Disney Gravity Falls                              EP: 19                                                               6068607ECC                              
PRCFAMCHA140301135847135911000024Episodic Next Step (HD) 299 Season Premiere Friday                                                                          150                                
PRCFAMCHA140301135911135941000030Web FOD 2012 Refresh (HD) Family.ca New Look (Apr2                                                                          150                                
PRCFAMCHA140301135941135951000010Family Bumper (HD) - Satelite ID (Jan 2011)                                                                                 150                                
PROFAMCHA140301135951140021000030DXD Pac-Man (HD) Prems Monday March 17 @ 6 (Mar1-1                                                                          150                                
PROFAMCHA140301140021140106000045PAF Secret Agent (HD) Coming Up Next (Jan2014)                                                                              150                                
PROFAMCHA140301140106140137000031Stunt Hand Picked GLC (HD) Starting Monday March 1                                                                          150                                
PGRFAMCHA140301140137142409002232Disney Phineas & Ferb                             EP: 01                                                               6068607ECC                              
PROFAMCHA140301142409142446000037Retag Episodic PAF (HD) 415 Tomorrow @ 1030 (Mar1)                                                                          150                                
PROFAMCHA140301142446142456000010LU - (HD) ANT Farm/Good Luck Charlie Weekends @ 3:                                                                          150                                
PRCFAMCHA140301142456142525000029PP Project Pet Vote (HD) family.ca/projectpet (Mar                                                                          150                                
PROFAMCHA140301142525142555000030Retag Episodic GLC (HD) 419 Tomorrow @ 1130 (Mar1)                                                                          150                                
PGRFAMCHA140301142555142742000147Syn Muppets Most Wanted (HD) Ross Lynch Extended!                                                                      60685120CC                              
PROFAMCHA140301142742142827000045WOY (HD) Sylvia - Right Here On Family (Feb2014)                                                                            150                                
PRCFAMCHA140301142827142848000021Family Bumper Flex (HD) Garage Band (:17-:21) (Nov                                                                          150                                
PROFAMCHA140301142848142918000030IDDI (HD) Mischief Prems March 14 @ 7 (Feb14-Mar9)                                                                          150                                
PROFAMCHA140301142918142933000015ANT Farm (HD) Refresh CT - Coming Up Next (April 2                                                                          150                                
PRCFAMCHA140301142933143002000029Next Step Season 2 (HD) Premise - New Season Frida                                                                          150                                
PGRFAMCHA140301143002145333002331Disney A.N.T. Farm                                EP: 16                                                               6068607BCC                              
PROFAMCHA140301145333145402000029Episodic ANT (HD) 317 Friday March 7 @ 7 (Feb21-Ma                                                                          150                                
PROFAMCHA140301145402145407000005GLC (HD) ID - Bradley Perry 3 "Coming Up Next" (gi                                                                          150                                
PGRFAMCHA140301145407145552000145ME (HD) Mr Peabody & Sherman - Coming Soon (Feb21-                                                                     10615120CC                              
PRCFAMCHA140301145552145605000013Family Bumper Flex (HD) Flex ID - Really Me Chest                                                                           150                                
PGRFAMCHA140301145605145939000334MV Universal (HD) Jess Moskaluke - Catch Me If You                                                                     10615120CC                              
PROFAMCHA140301145939145945000006GLC (HD) ID - Bridget Mendler 4 "Coming Up Next" (                                                                          150                                
PRCFAMCHA140301145945150009000024Episodic Next Step (HD) 299 Season Premiere Friday                                                                          150                                
PGRFAMCHA140301150009152329002320Good Luck Charlie                                 EP: 17                                                               6068807BCC                              
PROFAMCHA140301152329152427000058Episodic GLC (HD) 499 Finale Friday March 14 @ 6 (                                                                          150CC                              
PRCFAMCHA140301152427152442000015LAM (HD) Comedy Sell - Coming Up Next (Oct2013)                                                                             150                                
PGRFAMCHA140301152442152552000110SYN (HD) Jungle Book w/ DWAB cast - Tiger (Feb21-A                                                                     10615120CC                              
PRCFAMCHA140301152552152605000013Family Bumper (HD) - Drums ID (Jan 2011)                                                                                    150                                
PROFAMCHA140301152605152655000050Walt Disney Pictures                                                                                                        150                                
PRCFAMCHA140301152655152834000139Next Step Season 2 (HD) Sizzle - New Season Starts                                                                          150                                
PROFAMCHA140301152834152902000028IDDI CT (HD) Prems March 14 @ 7 (Feb28-Mar9)                                                                                150                                
PRCFAMCHA140301152902152917000015LAM (HD) Comedy Sell - Coming Up Next (Oct2013)                                                                             150                                
PROFAMCHA140301152917153006000049Stunt OMFF (HD) Friday March 7 @ 630 (Feb21-Mar2)                                                                           150                                
PGRFAMCHA140301153006155409002403Disney Liv and Maddie                             EP: 01                                                               6068807BCC                              
PROFAMCHA140301155409155419000010LU - (HD) Jessie/Dog with a Blog Weekends @ 4:30pm                                                                          150                                
PROFAMCHA140301155419155449000030Episodic A&A (HD) 306 New Ep Friday March 7 @ 630                                                                           150                                
PROFAMCHA140301155449155520000031Stunt Hand Picked GLC (HD) Starting Monday March 1                                                                          150                                
PGRFAMCHA140301155520155820000300Syn Muppisode (HD) Food Fite (Jan 3- March 20)                                                                         60685120                                
PRCFAMCHA140301155820155837000017Family Bumper Flex (HD) Flip Book (:15-:18) (Nov 2                                                                          150                                
PGRFAMCHA140301155837155935000058IDDI Premise (HD) Prems March 14 @ 7 (Feb28-Mar9)                                                                      60685120CC                              
PRCFAMCHA140301155935155949000014Family Flex Next (HD) Jessie - Jessie  (:12-:14) (                                                                          150                                
PRCFAMCHA140301155949160013000024Episodic Next Step (HD) 299 Season Premiere Friday                                                                          150                                
PGRFAMCHA140301160013162245002232Disney Jessie                                     EP: 14                                                               6068807BCC                              
PROFAMCHA140301162245162255000010LU - (HD) Dog with a Blog/Shake it Up Weekends @ 5                                                                          150                                
PRCFAMCHA140301162255162324000029Next Step Season 2 (HD) Premise - New Season Frida                                                                          150                                
PROFAMCHA140301162324162404000040Kellogg's                                                                                                                   150                                
PGRFAMCHA140301162404162736000332MV Universal (HD) Colbie Caillat - Hold On (Feb14-                                                                     10615120CC                              
PRCFAMCHA140301162736162751000015Family Bumper Flex (HD) Flex ID - Jessie ID (:15-:                                                                          150                                
PROFAMCHA140301162751162836000045WOY (HD) Sylvia - Only On Family (Feb2014)                                                                                  150                                
PROFAMCHA14030116283616292600005020th Century Fox                                                                                                            150                                
PRCFAMCHA140301162926162941000015Family Flex Next (HD) DWAB Ghannelius (Aug 2013) (                                                                          150                                
PROFAMCHA140301162941163011000030DXD Pac-Man (HD) Prems Monday March 17 @ 6 (Mar1-1                                                                          150                                
PGRFAMCHA140301163011165230002219Disney Dog With A Blog                            EP: 15                                                               6068807BCC                              
PROFAMCHA140301165230165240000010LU - (HD) Shake it Up/Austin & Ally Weekends @ 5:3                                                                          150                                
PROFAMCHA140301165240165317000037Retag Episodic PAF (HD) 415 Tomorrow @ 1030 (Mar1)                                                                          150                                
PROFAMCHA140301165317165347000030Retag Episodic GLC (HD) 419 Tomorrow @ 1130 (Mar1)                                                                          150                                
PROFAMCHA14030116534716543700005020th Century Fox                                                                                                            150                                
PGRFAMCHA140301165437165731000254MV Non Disney (HD) Jordan McIntosh - Grew Up In A                                                                      10615120                                
PRCFAMCHA140301165731165739000008Family Bumper (HD) - Origami ID (Jan 2011)                                                                                  150                                
PROFAMCHA140301165739165808000029Episodic ANT (HD) 317 Friday March 7 @ 7 (Feb21-Ma                                                                          150                                
PROFAMCHA140301165808165908000100Feld Entertainment                                                                                                          150                                
PROFAMCHA140301165908165938000030IDDI (HD) Mischief Prems March 14 @ 7 (Feb14-Mar9)                                                                          150                                
PRCFAMCHA140301165938165953000015Family Flex Next (HD) SIU Zendaya (Aug 2013) (:13-                                                                          150                                
PRCFAMCHA140301165953170017000024Episodic Next Step (HD) 299 Season Premiere Friday                                                                          150                                
PGRFAMCHA140301170017172249002232Disney Shake It Up                                EP: 08                                                               6068707BCC                              
PROFAMCHA140301172249172259000010LU - (HD) Austin & Ally/Good Luck Charlie Weekends                                                                          150                                
PROFAMCHA140301172259172336000037Retag Episodic PAF (HD) 415 Tomorrow @ 1030 (Mar1)                                                                          150                                
PGRFAMCHA140301172336172551000215Short GF Dipper's Guide (HD) 105 The Tooth (Nov23)                                                                     60688120                                
PROFAMCHA140301172551172606000015Web Jessie Online Game (HD) Play Games at family.c                                                                          150                                
PRCFAMCHA140301172606172628000022Family Bumper Flex (HD) Fifteen Logos (:21-:22) (N                                                                          150                                
PRCFAMCHA140301172628172807000139Next Step Season 2 (HD) Sizzle - New Season Starts                                                                          150                                
PROFAMCHA140301172807172905000058Episodic GLC (HD) 499 Finale Friday March 14 @ 6 (                                                                          150CC                              
PRCFAMCHA140301172905172920000015Family Flex Next (HD) A&A Raini (Aug 2013) (:13-:1                                                                          150                                
PROFAMCHA140301172920173009000049Stunt OMFF (HD) Friday March 7 @ 630 (Feb21-Mar2)                                                                           150                                
PGRFAMCHA140301173009175225002216Disney Austin & Ally                              EP: 02                                                               6068807BCC                              
PROFAMCHA140301175225175255000030Episodic A&A (HD) 306 New Ep Friday March 7 @ 630                                                                           150                                
PROFAMCHA140301175255175320000025GLC Promo 1 (HD) Coming Up Next (Sep2013)                                                                                   150                                
PRCFAMCHA140301175320175349000029PP Project Pet Vote (HD) family.ca/projectpet (Mar                                                                          150                                
PGRFAMCHA140301175349175534000145ME (HD) Mr Peabody & Sherman - Coming Soon (Feb21-                                                                     10615120CC                              
PRCFAMCHA140301175534175552000018Family Bumper Flex (HD) Flex ID - ANT Farm (:16-:2                                                                          150                                
PGRFAMCHA140301175552175906000314MV Universal (HD) Nikki Yanofsky - Something New (                                                                     10615120CC                              
PROFAMCHA140301175906175934000028IDDI CT (HD) Prems March 14 @ 7 (Feb28-Mar9)                                                                                150                                
PROFAMCHA140301175934175939000005GLC (HD) ID - Jason Dolley 3 "Coming Up Next" (gen                                                                          150                                
PRCFAMCHA140301175939180003000024Episodic Next Step (HD) 299 Season Premiere Friday                                                                          150                                
PGRFAMCHA140301180003182355002352Good Luck Charlie                                 EP: 01                                                               6068807BCC                              
PROFAMCHA140301182355182453000058Episodic GLC (HD) 499 Finale Friday March 14 @ 6 (                                                                          150CC                              
PROFAMCHA140301182453182531000038Wingin It (HD) Refresh Promo - Coming Up Next (Apr                                                                          150                                
PROFAMCHA140301182531182608000037Retag Episodic PAF (HD) 415 Tomorrow @ 1030 (Mar1)                                                                          150                                
PROFAMCHA14030118260818265800005020th Century Fox                                                                                                            150                                
PGRFAMCHA140301182658182737000039SYN (HD) Jungle Book w/ DWAB cast - Parrot (Feb21-                                                                     10615120CC                              
PRCFAMCHA140301182737182747000010Family Bumper (HD) - Bobbleheads ID (Jan 2011)                                                                              150                                
PROFAMCHA140301182747182802000015Web A&A Online Game (HD) Play Games at family.ca (                                                                          150                                
PROFAMCHA140301182802182902000100Feld Entertainment                                                                                                          150                                
PROFAMCHA140301182902182940000038Wingin It (HD) Refresh Promo - Coming Up Next (Apr                                                                          150                                
PRCFAMCHA140301182940183009000029Next Step Season 2 (HD) Premise - New Season Frida                                                                          150                                
PRCFAMCHA140301183009183023000014Descriptive Video Slate (HD) (Apr2013)                                                                                      150                                
PGRFAMCHA140301183023185254002231Wingin' It                                        EP: 02                                                        C32727 1065607ACD                              
PROFAMCHA140301185254185324000030DXD Pac-Man (HD) Prems Monday March 17 @ 6 (Mar1-1                                                                          150                                
PROFAMCHA140301185324185330000006WOWP (HD) ID - Jennifer Stone 1 "Coming Up Next" (                                                                          150                                
PROFAMCHA140301185330185400000030Retag Episodic GLC (HD) 419 Tomorrow @ 1130 (Mar1)                                                                          150                                
PROFAMCHA140301185400185429000029Episodic ANT (HD) 317 Friday March 7 @ 7 (Feb21-Ma                                                                          150                                
PGRFAMCHA140301185429185803000334MV Universal (HD) Serena Ryder - Fall (Jan17-Apr6)                                                                     10615120CC                              
PRCFAMCHA140301185803185824000021Family Bumper Flex (HD) Garage Band (:17-:21) (Nov                                                                          150                                
PGRFAMCHA140301185824185922000058IDDI Premise (HD) Prems March 14 @ 7 (Feb28-Mar9)                                                                      60685120CC                              
PROFAMCHA140301185922185945000023WOWP (HD) Harper - Coming Up Next (April 2013)                                                                              150                                
PRCFAMCHA140301185945190009000024Episodic Next Step (HD) 299 Season Premiere Friday                                                                          150                                
PGRFAMCHA140301190009192240002231Disney Wizards of Waverly Place                   EP: 12                                                               6068607BCC                              
PROFAMCHA140301192240192329000049Stunt OMFF (HD) Friday March 7 @ 630 (Feb21-Mar2)                                                                           150                                
PROFAMCHA140301192329192402000033ANT Farm (HD) Refresh - Coming Up Next (Jun2013)                                                                            150                                
PROFAMCHA140301192402192432000030Retag Episodic GLC (HD) 419 Tomorrow @ 1130 (Mar1)                                                                          150                                
PGRFAMCHA140301192432192617000145ME (HD) Need For Speed - Coming Soon POST-7 (Feb28                                                                     10615120CC                              
PRCFAMCHA140301192617192628000011Family Bumper Flex (HD) Flex ID - Wingin It (Apr20                                                                          150                                
PGRFAMCHA140301192628192815000147Syn Muppets Most Wanted (HD) Ross Lynch Extended!                                                                      60685120CC                              
PROFAMCHA140301192815192830000015ANT Farm (HD) Refresh CT - Coming Up Next (April 2                                                                          150                                
PRCFAMCHA140301192830193009000139Next Step Season 2 (HD) Sizzle - New Season Starts                                                                          150                                
PGRFAMCHA140301193009195240002231Disney A.N.T. Farm                                EP: 09                                                               6068607BCC                              
PGRFAMCHA140301195240195614000334MV Universal (HD) Jess Moskaluke - Catch Me If You                                                                     10615120CC                              
PRCFAMCHA140301195614195629000015Family Flex Next (HD) SIU Zendaya (Aug 2013) (:13-                                                                          150                                
PROFAMCHA140301195629195706000037Retag Episodic PAF (HD) 415 Tomorrow @ 1030 (Mar1)                                                                          150                                
PROFAMCHA140301195706195746000040Kellogg's                                                                                                                   150                                
PROFAMCHA140301195746195816000030Episodic A&A (HD) 306 New Ep Friday March 7 @ 630                                                                           150                                
PROFAMCHA140301195816195906000050Walt Disney Pictures                                                                                                        150                                
PROFAMCHA140301195906195937000031Stunt Hand Picked GLC (HD) Starting Monday March 1                                                                          150                                
PRCFAMCHA140301195937195950000013Family Flex Next (HD) SIU Zendaya (Aug 2013) (:13-                                                                          150                                
PRCFAMCHA140301195950200014000024Episodic Next Step (HD) 299 Season Premiere Friday                                                                          150                                
PGRFAMCHA140301200014202146002132Disney Shake It Up                                EP: 15                                                               6068707BCC                              
PRCFAMCHA140301202146202215000029PP Project Pet Vote (HD) family.ca/projectpet (Mar                                                                          150                                
PRCFAMCHA140301202215202230000015Family Flex Next (HD) A&A Raini (Aug 2013) (:13-:1                                                                          150                                
PRCFAMCHA140301202230202259000029Next Step Season 2 (HD) Premise - New Season Frida                                                                          150                                
PGRFAMCHA140301202259202701000402MV Non Disney (HD) Alli Simpson - Notice Me (Feb20                                                                     60685120CC                              
PROFAMCHA14030120270120275100005020th Century Fox                                                                                                            150                                
PRCFAMCHA140301202751202809000018Family Bumper Flex (HD) Flip Book (:15-:18) (Nov 2                                                                          150                                
PROFAMCHA140301202809202907000058Episodic GLC (HD) 499 Finale Friday March 14 @ 6 (                                                                          150CC                              
PROFAMCHA140301202907202940000033Austin & Ally (HD) Music Lesson - Coming Up Next (                                                                          150                                
PROFAMCHA140301202940203010000030IDDI (HD) Mischief Prems March 14 @ 7 (Feb14-Mar9)                                                                          150                                
PGRFAMCHA140301203010205241002231Disney Austin & Ally                              EP: 08                                                               6068807BCC                              
PRCFAMCHA140301205241205305000024Episodic Next Step (HD) 299 Season Premiere Friday                                                                          150                                
PROFAMCHA140301205305205335000030Really Me (HD) S2 Promo - Coming Up Next (April 20                                                                          150                                
PROFAMCHA140301205335205406000031Stunt Hand Picked GLC (HD) Starting Monday March 1                                                                          150                                
PROFAMCHA14030120540620545600005020th Century Fox                                                                                                            150                                
PROFAMCHA140301205456205511000015Web GLC Online Game (HD) Play Games at family.ca (                                                                          150                                
PRCFAMCHA140301205511205528000017Family Bumper Flex (HD) Flex ID - Music ID (:14-:1                                                                          150                                
PGRFAMCHA140301205528205902000334MV Non Disney (HD) Cody Simpson ft Ziggy Marley -                                                                      10615120CC                              
PROFAMCHA140301205902205932000030Really Me (HD) S2 Promo - Coming Up Next (April 20                                                                          150                                
PROFAMCHA140301205932210009000037Retag Episodic PAF (HD) 415 Tomorrow @ 1030 (Mar1)                                                                          150                                
PRCFAMCHA140301210009210023000014Descriptive Video Slate (HD) (Apr2013)                                                                                      150                                
PGRFAMCHA140301210023212256002233Really Me                                         EP: 02                                                        C35342 1065607ACD                              
PGRFAMCHA140301212256212626000330Mickey Mouse Shorts (HD) 1-19 Tapped Out (Jan24)                                                                       60688120                                
PROFAMCHA140301212626212704000038Wingin It (HD) Refresh Promo - Coming Up Next (Apr                                                                          150                                
PROFAMCHA140301212704212741000037Retag Episodic PAF (HD) 415 Tomorrow @ 1030 (Mar1)                                                                          150                                
PRCFAMCHA140301212741212750000009Family Bumper (HD) - Dragonflies ID (Jan 2011)                                                                              150                                
PRCFAMCHA140301212750212929000139Next Step Season 2 (HD) Sizzle - New Season Starts                                                                          150                                
PROFAMCHA140301212929213007000038Wingin It (HD) Refresh Promo - Coming Up Next (Apr                                                                          150                                
PRCFAMCHA140301213007213021000014Descriptive Video Slate (HD) (Apr2013)                                                                                      150                                
PGRFAMCHA140301213021215252002231Wingin' It                                        EP: 04                                                        C32356 1065607ACD                              
PRCFAMCHA140301215252215316000024Episodic Next Step (HD) 299 Season Premiere Friday                                                                          150                                
PROFAMCHA140301215316215431000115Dadnapped (HD) Popcorn Pix - Coming Up Next (April                                                                          150                                
PROFAMCHA140301215431215501000030Retag Episodic GLC (HD) 419 Tomorrow @ 1130 (Mar1)                                                                          150                                
PROFAMCHA140301215501215550000049Stunt OMFF (HD) Friday March 7 @ 630 (Feb21-Mar2)                                                                           150                                
PRCFAMCHA140301215550215611000021Family Bumper Flex (HD) Garage Band (:17-:21) (Nov                                                                          150                                
PROFAMCHA140301215611215640000029Episodic ANT (HD) 317 Friday March 7 @ 7 (Feb21-Ma                                                                          150                                
PROFAMCHA140301215640215745000105D-JR OOB - Mulan - Premieres Sat March 15 @ 6 (Mar                                                                          150                                
PRCFAMCHA140301215745215814000029PP Project Pet Vote (HD) family.ca/projectpet (Mar                                                                          150                                
PROFAMCHA140301215814215929000115Dadnapped (HD) Popcorn Pix - Coming Up Next (April                                                                          150                                
PROFAMCHA140301215929215957000028IDDI CT (HD) Prems March 14 @ 7 (Feb28-Mar9)                                                                                150                                
ID FAMCHA140301215957220012000015Popcorn Pix Block Open (HD)  (Jan2011)                                                                                      150                                
ID FAMCHA140301220012220021000009Popcorn Pix Rating Slate (HD) - G (Jan 2011)                                                                                150                                
ID FAMCHA140301220021220027000006Popcorn Pix Magic of Disney Bumper (HD) (Apr2013)                                                                           150                                
PGRFAMCHA140301220027232406012339Disney Dadnapped                                                                                                      A6068807CCC                              
PRCFAMCHA140301232406232545000139Next Step Season 2 (HD) Sizzle - New Season Starts                                                                          150                                
PROFAMCHA140301232545232615000030Episodic A&A (HD) 306 New Ep Friday March 7 @ 630                                                                           150                                
PRCFAMCHA140301232615232650000035Jessie (HD) Hey Jessie! (Oct2013)                                                                                           150                                
PROFAMCHA140301232650232724000034D-JR OOB - Sherriff 115 - New Episode March 2 (Feb                                                                          150                                
PGRFAMCHA140301232724232909000145ME (HD) Need For Speed - Coming Soon POST-7 (Feb28                                                                     10615120CC                              
PROFAMCHA140301232909232940000031Stunt Hand Picked GLC (HD) Starting Monday March 1                                                                          150                                
PROFAMCHA140301232940233010000030DXD Pac-Man (HD) Prems Monday March 17 @ 6 (Mar1-1                                                                          150                                
PRCFAMCHA140301233010233018000008Family Bumper (HD) - Origami ID (Jan 2011)                                                                                  150                                
PGRFAMCHA140301233018235248002230Life with Derek                                   EP: 01                                                        C23968A1065607BCC                              
PROFAMCHA140301235248235325000037Retag Episodic PAF (HD) 415 Tomorrow @ 1030 (Mar1)                                                                          150                                
PROFAMCHA140301235325235423000058Episodic GLC (HD) 499 Finale Friday March 14 @ 6 (                                                                          150CC                              
PGRFAMCHA140301235423235755000332MV Universal (HD) Colbie Caillat - Hold On (Feb14-                                                                     10615120CC                              
PROFAMCHA140301235755235840000045WOY (HD) Sylvia - Only On Family (Feb2014)                                                                                  150                                
PGRFAMCHA140301235840235938000058IDDI Premise (HD) Prems March 14 @ 7 (Feb28-Mar9)                                                                      60685120CC                              
PRCFAMCHA140301235938000008000030Family Bumper Flex (HD) Flex ID - Austin & Ally (F                                                                          150                                
PGRFAMCHA140301000008002244002236The Latest Buzz                                   EP: 07                                                        C30362 1065607BCC                              
PROFAMCHA140301002244002314000030Retag Episodic GLC (HD) 419 Tomorrow @ 1130 (Mar1)                                                                          150                                
PGRFAMCHA140301002314002628000314MV Universal (HD) Nikki Yanofsky - Something New (                                                                     10615120CC                              
PROFAMCHA140301002628002657000029Episodic ANT (HD) 317 Friday March 7 @ 7 (Feb21-Ma                                                                          150                                
PRCFAMCHA140301002657002727000030Web FOD 2012 Refresh (HD) Family.ca New Look (Apr2                                                                          150                                
PGRFAMCHA140301002727002927000200MV Lift (HD) A&A - Better Than This (Nov2013)                                                                          60685120CC                              
PRCFAMCHA140301002927002951000024Episodic Next Step (HD) 299 Season Premiere Friday                                                                          150                                
PRCFAMCHA140301002951003013000022Family Bumper Flex (HD) Fifteen Logos (:21-:22) (N                                                                          150                                
PGRFAMCHA140301003013005244002231Overruled!                                        EP: 09                                                        C30129 1065607BCC                              
PROFAMCHA140301005244005333000049Stunt OMFF (HD) Friday March 7 @ 630 (Feb21-Mar2)                                                                           150                                
PGRFAMCHA140301005333005707000334MV Universal (HD) Serena Ryder - Fall (Jan17-Apr6)                                                                     10615120CC                              
PRCFAMCHA140301005707005736000029Next Step Season 2 (HD) Premise - New Season Frida                                                                          150                                
PGRFAMCHA140301005736005925000149MV Lift (HD) SIU - These Boots Are Made For Walkin                                                                     60685120CC                              
PROFAMCHA140301005925005955000030IDDI (HD) Mischief Prems March 14 @ 7 (Feb14-Mar9)                                                                          150                                
PRCFAMCHA140301005955010016000021Family Bumper Flex (HD) Garage Band (:17-:21) (Nov                                                                          150                                
PRCFAMCHA140301010016010030000014Descriptive Video Slate (HD) (Apr2013)                                                                                      150                                
PGRFAMCHA140301010030012302002232DEBRA!                                            EP: 10                                                        C35763 1065607ACD                              
PRCFAMCHA140301012302012314000012Family Bumper Flex (HD) Flex ID - WUW (May2012) (:                                                                          150                                
PGRFAMCHA140301012314014616002302What's Up, Warthogs!                              EP: 07                                                        C32738 1065607BCC                              
PRCFAMCHA140301014616014626000010Family Bumper (HD) - Satelite ID (Jan 2011)                                                                                 150                                
PGRFAMCHA140301014626020858002232Disney Wizards of Waverly Place                   EP: 12                                                               6068607BCC                              
PRCFAMCHA140301020858020916000018Family Bumper Flex (HD) Flip Book (:15-:18) (Nov 2                                                                          150                                
PGRFAMCHA140301020916023147002231Really Me                                         EP: 02                                                        C35342 1065607ACD                              
PRCFAMCHA140301023147023202000015Family Bumper Flex (HD) Flex ID - Jessie ID (:15-:                                                                          150                                
PGRFAMCHA140301023202025432002230Life with Derek                                   EP: 10                                                        C23968A1065607BCC                              
PRCFAMCHA140301025432025441000009Family Bumper (HD) - Dragonflies ID (Jan 2011)                                                                              150                                
PGRFAMCHA140301025441031644002203Slugterra                                         EP: 04                                                        A33763 1065607ACC                              
PRCFAMCHA140301031644031706000022Family Bumper Flex (HD) Fifteen Logos (:21-:22) (N                                                                          150                                
PGRFAMCHA140301031706033936002230Overruled!                                        EP: 13                                                        C30129 1065607BCC                              
PRCFAMCHA140301033936033952000016Family Bumper Flex (HD) Flex ID - ANT Farm (:16-:2                                                                          150                                
PGRFAMCHA140301033952040227002235The Latest Buzz                                   EP: 01                                                        C30362 1065607BCC                              
PRCFAMCHA140301040227040235000008Family Bumper (HD) - Origami ID (Jan 2011)                                                                                  150                                
PGRFAMCHA140301040235042506002231Life With Derek                                   EP: 01                                                        C24891 1065607BCC                              
PROFAMCHA140301042506042540000034D-JR OOB - Sherriff 115 - New Episode March 2 (Feb                                                                          150                                
PROFAMCHA140301042540042610000030D-JR Promo - Little Einsteins - Get more on D-JR t                                                                          150                                
PROFAMCHA140301042610042616000006D-JR - Short Open (:06) (May2011)                                                                                           150                                
PROFAMCHA140301042616042813000157PH-D Short - Can You...Alligator Manners S1 - 01 -                                                                          150                                
PROFAMCHA140301042813042819000006D-JR - Short Close (:06) (May2011)                                                                                          150                                
PROFAMCHA140301042819042844000025D-JR Promo - JATNP - Get more on the channel REV (                                                                          150                                
PROFAMCHA140301042844042949000105D-JR OOB - Mulan - Premieres Sat March 15 @ 6 (Mar                                                                          150                                
PROFAMCHA140301042949042959000010D-JR - Hero Flex ID - Blue (:06-:10) (Feb2014)                                                                              150                                
OFFFAMCHA140301042959043000000001OFF AIR                                                                                                                                                        
PGRFAMCHA140302043000045233002233Franny's Feet                                     EP: 44                                                        C31292 1065607ECC                              
PROFAMCHA140302045233045240000007D-JR Live Action ID - SWOBB - Coming Up (May2012)                                                                           150                                
PROFAMCHA140302045240045305000025D-JR Live Action ID - #28 Clapping Game (Sep2013)                                                                           150                                
PROFAMCHA140302045305045339000034D-JR OOB - Sherriff 115 - New Episode March 2 (Feb                                                                          150                                
PROFAMCHA140302045339045444000105D-JR OOB - Mulan - Premieres Sat March 15 @ 6 (Mar                                                                          150                                
PROFAMCHA140302045444045450000006D-JR - Short Open (:06) (May2011)                                                                                           150                                
PROFAMCHA140302045450045720000230D-JR Short - Choo Choo Soul - 1-10 (Jul2013)                                                                                150CC                              
PROFAMCHA140302045720045726000006D-JR - Short Close (:06) (May2011)                                                                                          150                                
PROFAMCHA140302045726045818000052D-JR Promo - Doc McStuffins - Get more on the chan                                                                          150                                
PROFAMCHA140302045818045912000054D-JR Promo - Lego Mall Tour (x2 a day) (Feb24-Apr1                                                                          150                                
PROFAMCHA140302045912045937000025D-JR Live Action ID - #10 Build A Block Tower (Sep                                                                          150                                
PROFAMCHA140302045937045944000007D-JR Live Action ID - SWOBB - Now (May2012)                                                                                 150                                
PROFAMCHA140302045944045959000015D-JR - Monthly ID - March (Mar2014)                                                                                         150                                
PGRFAMCHA140302045959052231002232The Secret World of Benjamin Bear                 EP: 24                                                        C26066 1065607ECC                              
PROFAMCHA140302052231052238000007D-JR Live Action ID - Harry & His Dinosaurs - Comi                                                                          150                                
PROFAMCHA140302052238052303000025D-JR Live Action ID - # Learning Hot and Cold (Oct                                                                          150                                
PROFAMCHA140302052303052357000054D-JR Promo - Lego Mall Tour (x2 a day) (Feb24-Apr1                                                                          150                                
PROFAMCHA140302052357052431000034D-JR OOB - Sherriff 115 - New Episode March 2 (Feb                                                                          150                                
PROFAMCHA140302052431052437000006D-JR - Short Open (:06) (May2011)                                                                                           150                                
PROFAMCHA140302052437052737000300PH-D Short - Mickey Mousekersize Shorts - 03 - Plu                                                                          150CC                              
PROFAMCHA140302052737052743000006D-JR - Short Close (:06) (May2011)                                                                                          150                                
PROFAMCHA140302052743052813000030D-JR Promo - On demand online REVISED - D-JR.ca (M                                                                          150                                
PROFAMCHA140302052813052918000105D-JR OOB - Mulan - Premieres Sat March 15 @ 6 (Mar                                                                          150                                
PROFAMCHA140302052918052943000025D-JR Live Action ID - #33 Feeding Birds (Sep2013)                                                                           150                                
PROFAMCHA140302052943052950000007D-JR Live Action ID - Harry & His Dinosaurs - Now                                                                           150                                
PROFAMCHA140302052950053000000010D-JR - Hero Flex ID - Blue (:06-:10) (Feb2014)                                                                              150                                
PGRFAMCHA140302053000055134002134Harry and His Bucket Full of Dinosaurs            EP: 17                                                        B05036 1065607ECC                              
PRCFAMCHA140302055134055158000024Episodic Next Step (HD) 299 Season Premiere Friday                                                                          150                                
PRCFAMCHA140302055158055227000029PP Project Pet Vote (HD) family.ca/projectpet (Mar                                                                          150                                
PROFAMCHA140302055227055257000030Episodic A&A (HD) 306 New Ep Friday March 7 @ 630                                                                           150                                
PGRFAMCHA140302055257055643000346MV Disney (HD) Demi Lovato - Let It Go (Nov1-Mar31                                                                     60685120CC                              
PRCFAMCHA140302055643055712000029Family Bumper Flex (HD) Flex ID - Austin & Ally (F                                                                          150                                
PROFAMCHA140302055712055801000049Stunt OMFF (HD) Friday March 7 @ 630 (Feb21-Mar2)                                                                           150                                
PGRFAMCHA140302055801055931000130Int Who I Am (HD) Dove Cameron (Aug 12-March30)                                                                        60685120                                
PROFAMCHA140302055931060000000029Retag Episodic GLC (HD) 419 This Morning @ 1130 (M                                                                          150                                
PGRFAMCHA140302060000062203002203Slugterra                                         EP: 05                                                        A33763 1065607ACC                              
PROFAMCHA140302062203062240000037Retag Episodic PAF (HD) 415 Today @ 1030 (Mar2)                                                                             150                                
PROFAMCHA140302062240062318000038Wingin It (HD) Refresh Promo - Coming Up Next (Apr                                                                          150                                
PROFAMCHA140302062318062416000058Episodic GLC (HD) 499 Finale Friday March 14 @ 6 (                                                                          150CC                              
PGRFAMCHA140302062416062813000357MV Disney (HD) R5 - Forget About You (w/ concert L                                                                     60685120CC                              
PRCFAMCHA140302062813062831000018Family Bumper (HD) - Dominoes ID (Jan 2011)                                                                                 150                                
PRCFAMCHA140302062831062857000026Episodic IDDI (HD) 104 New Ep Friday March 14 @ 7                                                                           150                                
PROFAMCHA140302062857062935000038Wingin It (HD) Refresh Promo - Coming Up Next (Apr                                                                          150                                
PRCFAMCHA140302062935063004000029Next Step Season 2 (HD) Premise - New Season Frida                                                                          150                                
PRCFAMCHA140302063004063018000014Descriptive Video Slate (HD) (Apr2013)                                                                                      150                                
PGRFAMCHA140302063018065249002231Wingin' It                                        EP: 07                                                        C32356 1065607ACD                              
PROFAMCHA140302065249065318000029Retag Episodic GLC (HD) 419 This Morning @ 1130 (M                                                                          150                                
PRCFAMCHA140302065318065341000023Gravity Falls (HD) Comedy Sell - Coming Up Next (A                                                                          150                                
PROFAMCHA140302065341065430000049Stunt OMFF (HD) Friday March 7 @ 630 (Feb21-Mar2)                                                                           150                                
MVCFAMCHA140302065430065628000158MV Disney (HD) Olaf - I Love Summer (Jan17-Mar28)                                                                      60685150CC                              
PROFAMCHA14030206562806571800005020th Century Fox                                                                                                            150                                
PROFAMCHA140302065718065803000045WOY (HD) Sylvia - Check Family.ca for showtimes (F                                                                          150                                
PRCFAMCHA140302065803065827000024Episodic Next Step (HD) 299 Season Premiere Friday                                                                          150                                
PRCFAMCHA140302065827065845000018Family Bumper Flex (HD) Flex ID - Jessie ID (:15-:                                                                          150                                
PROFAMCHA140302065845065915000030DXD Pac-Man (HD) Prems Monday March 17 @ 6 (Mar1-1                                                                          150                                
PRCFAMCHA140302065915065938000023Gravity Falls (HD) Comedy Sell - Coming Up Next (A                                                                          150                                
PROFAMCHA140302065938070008000030IDDI (HD) Mischief Prems March 14 @ 7 (Feb14-Mar9)                                                                          150                                
PGRFAMCHA140302070008072036002028Disney Gravity Falls                              EP: 03                                                               6068607ECC                              
PROFAMCHA140302072036072134000058Episodic GLC (HD) 499 Finale Friday March 14 @ 6 (                                                                          150CC                              
PROFAMCHA140302072134072206000032PAF (HD) Delicious Refresh - Coming Up Next (Jun20                                                                          150                                
PROFAMCHA140302072206072236000030Episodic A&A (HD) 306 New Ep Friday March 7 @ 630                                                                           150                                
PGRFAMCHA140302072236072610000334MV Non Disney (HD) Cody Simpson ft Ziggy Marley -                                                                      10615120CC                              
PRCFAMCHA140302072610072639000029PP Project Pet Vote (HD) family.ca/projectpet (Mar                                                                          150                                
PROFAMCHA140302072639072729000050Walt Disney Pictures                                                                                                        150                                
PRCFAMCHA140302072729072742000013Family Bumper (HD) - Drums ID (Jan 2011)                                                                                    150                                
PROFAMCHA140302072742072808000026Web DWAB @ family.ca (HD) Play Games at family.ca                                                                           150                                
PROFAMCHA140302072808072825000017PAF (HD) Disney Refresh CD - Coming Up Next (April                                                                          150                                
PRCFAMCHA140302072825073004000139Next Step Season 2 (HD) Sizzle - New Season Starts                                                                          150                                
PGRFAMCHA140302073004075235002231Disney Phineas and Ferb                           EP: 31                                                               6068607ECC                              
PROFAMCHA140302075235075324000049Stunt OMFF (HD) Friday March 7 @ 630 (Feb21-Mar2)                                                                           150                                
PROFAMCHA140302075324075409000045PAF Secret Agent (HD) Coming Up Next (Jan2014)                                                                              150                                
PRCFAMCHA140302075409075433000024Episodic Next Step (HD) 299 Season Premiere Friday                                                                          150                                
PGRFAMCHA140302075433075728000255MV Non Disney (HD) Francesco - Beautiful (Feb13-Ma                                                                     10615120CC                              
PROFAMCHA140302075728075828000100Feld Entertainment                                                                                                          150                                
PROFAMCHA140302075828075856000028IDDI CT (HD) Prems March 14 @ 7 (Feb28-Mar9)                                                                                150                                
PRCFAMCHA140302075856075913000017Family Bumper Flex (HD) Flex ID - Music ID (:14-:1                                                                          150                                
PROFAMCHA140302075913075930000017PAF (HD) Disney Refresh CD - Coming Up Next (April                                                                          150                                
PROFAMCHA140302075930075959000029Retag Episodic GLC (HD) 419 This Morning @ 1130 (M                                                                          150                                
PGRFAMCHA140302075959082230002231Disney Phineas and Ferb                           EP: 34                                                               6068607ECC                              
PROFAMCHA140302082230082307000037Retag Episodic PAF (HD) 415 Today @ 1030 (Mar2)                                                                             150                                
PROFAMCHA140302082307082337000030Shake It Up (HD) Flynn Sell - Coming Up Next (Jun2                                                                          150                                
PROFAMCHA140302082337082406000029Episodic ANT (HD) 317 Friday March 7 @ 7 (Feb21-Ma                                                                          150                                
PGRFAMCHA140302082406082740000334MV Universal (HD) Jess Moskaluke - Catch Me If You                                                                     10615120CC                              
PRCFAMCHA140302082740082755000015Family Bumper (HD) - Hot Potato ID (Jan 2011)                                                                               150                                
PROFAMCHA140302082755082853000058Episodic GLC (HD) 499 Finale Friday March 14 @ 6 (                                                                          150CC                              
PROFAMCHA140302082853082923000030DXD Pac-Man (HD) Prems Monday March 17 @ 6 (Mar1-1                                                                          150                                
PRCFAMCHA140302082923082938000015Family Flex Next (HD) SIU Zendaya (Aug 2013) (:13-                                                                          150                                
PRCFAMCHA140302082938083007000029Next Step Season 2 (HD) Premise - New Season Frida                                                                          150                                
PGRFAMCHA140302083007085339002332Disney Shake It Up                                EP: 19                                                               6068707BCC                              
PROFAMCHA140302085339085410000031Stunt Hand Picked GLC (HD) Starting Monday March 1                                                                          150                                
PROFAMCHA140302085410085435000025GLC Promo 1 (HD) Coming Up Next (Sep2013)                                                                                   150                                
PGRFAMCHA140302085435085622000147Syn Muppets Most Wanted (HD) Ross Lynch Extended!                                                                      60685120CC                              
PROFAMCHA140302085622085659000037Retag Episodic PAF (HD) 415 Today @ 1030 (Mar2)                                                                             150                                
PROFAMCHA14030208565908574900005020th Century Fox                                                                                                            150                                
PRCFAMCHA140302085749085818000029PP Project Pet Vote (HD) family.ca/projectpet (Mar                                                                          150                                
PRCFAMCHA140302085818085831000013Family Bumper Flex (HD) Flex ID - Really Me (Apr20                                                                          150                                
PRCFAMCHA140302085831085855000024Episodic Next Step (HD) 299 Season Premiere Friday                                                                          150                                
PROFAMCHA140302085855085900000005GLC (HD) ID - Bradley Perry 6 "Coming Up Next" (ge                                                                          150                                
PGRFAMCHA140302085900085958000058IDDI Premise (HD) Prems March 14 @ 7 (Feb28-Mar9)                                                                      60685120CC                              
PGRFAMCHA140302085958092232002234Good Luck Charlie                                 EP: 13                                                               6068707BCC                              
PROFAMCHA140302092232092301000029Retag Episodic GLC (HD) 419 This Morning @ 1130 (M                                                                          150                                
PRCFAMCHA140302092301092316000015LAM (HD) Comedy Sell - Coming Up Next (Oct2013)                                                                             150                                
PROFAMCHA140302092316092344000028IDDI CT (HD) Prems March 14 @ 7 (Feb28-Mar9)                                                                                150                                
PGRFAMCHA140302092344092529000145ME (HD) Mr Peabody & Sherman - Coming Soon (Feb21-                                                                     10615120CC                              
PRCFAMCHA140302092529092549000020Family Bumper (HD) - Wallpaper ID (Jan 2011)                                                                                150                                
PROFAMCHA140302092549092926000337MV Disney (HD) Idina Menzel - Let It Go (Feb14-Mar                                                                          150CC                              
PRCFAMCHA140302092926092941000015LAM (HD) Comedy Sell - Coming Up Next (Oct2013)                                                                             150                                
PRCFAMCHA140302092941093010000029Next Step Season 2 (HD) Premise - New Season Frida                                                                          150                                
PGRFAMCHA140302093010095159002149Disney Liv and Maddie                             EP: 03                                                               6068807BCC                              
PROFAMCHA140302095159095236000037Retag Episodic PAF (HD) 415 Today @ 1030 (Mar2)                                                                             150                                
PROFAMCHA140302095236095309000033ANT Farm (HD) Refresh - Coming Up Next (Jun2013)                                                                            150                                
PRCFAMCHA140302095309095333000024Episodic Next Step (HD) 299 Season Premiere Friday                                                                          150                                
PGRFAMCHA140302095333095730000357MV Disney (HD) R5 - Forget About You (w/ concert L                                                                     60685120CC                              
PROFAMCHA140302095730095801000031Stunt Hand Picked GLC (HD) Starting Monday March 1                                                                          150                                
PRCFAMCHA140302095801095831000030Web FOD 2012 Refresh (HD) Family.ca New Look (Apr2                                                                          150                                
PRCFAMCHA140302095831095841000010Family Bumper (HD) - Satelite ID (Jan 2011)                                                                                 150                                
PROFAMCHA140302095841095926000045WOY (HD) Sylvia - Only On Family (Feb2014)                                                                                  150                                
PROFAMCHA140302095926095941000015ANT Farm (HD) Refresh CT - Coming Up Next (April 2                                                                          150                                
PRCFAMCHA140302095941100007000026Episodic IDDI (HD) 104 New Ep Friday March 14 @ 7                                                                           150                                
PGRFAMCHA140302100007102238002231Disney A.N.T. Farm                                EP: 02                                                               6068607BCC                              
PROFAMCHA140302102238102307000029Episodic ANT (HD) 317 Friday March 7 @ 7 (Feb21-Ma                                                                          150                                
PROFAMCHA140302102307102344000037Retag Episodic PAF (HD) 415 Coming Up Next @ 1030                                                                           150                                
PRCFAMCHA140302102344102523000139Next Step Season 2 (HD) Sizzle - New Season Starts                                                                          150                                
PROFAMCHA140302102523102613000050Walt Disney Pictures                                                                                                        150                                
