OFFFAMCHA000701043000060000013000                                                                                                                                                               
SO FAMCHA000701060000060011000011Sign On (oct 1)                                                                                                                                                
PROFAMCHA000701060011060016000005CC Disclaimer (oct) **DO NOT USE**                                                                                                                             
PGRFAMCHA000701060016062346002330PB&J Otter                                        I'll be your Best Friend/Otterly Alone                              A6068607ECC                              
ID FAMCHA000701062346062356000010Generic ID - Bubbles                                                                                                                                           
PROFAMCHA000701062356062426000030Willy Wonka (JUL1) - Today @ 12pm                                                                                                                              
PROFAMCHA000701062426062456000030Crash Zone - Next (MAR)                                                                                                                                        
PROFAMCHA000701062456062601000105Adventures of Gummi Bears - On Family (MAR)                                                                                                                    
PGRFAMCHA000701062601062830000229Music Break - Country For Kids: Buck Owens                                                                             60688130                                
PROFAMCHA000701062830062900000030Madeline - 8:30am on Saturday (oct)                                                                                                                            
PROFAMCHA000701062900062930000030Honey, I Shrunk the Kids (JUL) - Sunday @ 8pm                                                                                                                  
PRCFAMCHA000701062930062939000009Morning Block menu background (flex time)                                                                                                                      
ID FAMCHA000701062939063000000021Prime time open count down                                                                                                                                     
PGRFAMCHA000701063000065511002511Crash Zone                                        It's Only Words                                                      6068607A                                
ID FAMCHA000701065511065516000005Generic ID - Bubbles                                                                                                                                           
PROFAMCHA000701065516065546000030Zenon, Girl of the 21st Century (JUL) - Sunday @ 1                                                                                                             
PROFAMCHA000701065546065616000030Madeline - 8:30am on Saturday (oct)                                                                                                                            
PGRFAMCHA000701065616065827000211MV Disney - Right Back Where We Started From                                                                           60688130                                
ID FAMCHA000701065827065839000012URL(1) - MINI SITES                                                                                                                                            
PROFAMCHA000701065839065909000030Adventures of Pete & Pete - Today @ 10am                                                                                                                       
PROFAMCHA000701065909065939000030Willy Wonka (JUL1) - Today @ 12pm                                                                                                                              
ID FAMCHA000701065939070000000021Prime time open count down                                                                                                                                     
PGRFAMCHA000701070000072444002444Clarissa                                          Take My Advice...Please                                              2068607B                                
ID FAMCHA000701072444072459000015Generic ID - confetti                                                                                                                                          
PROFAMCHA000701072459072529000030Willy Wonka (JUL1) - Today @ 12pm                                                                                                                              
PROFAMCHA000701072529072559000030Adventures of Pete & Pete - Today @ 10am                                                                                                                       
PGRFAMCHA000701072559072848000249MV Disney - Never alone (oct 1)                                                                                        60688130                                
PROFAMCHA000701072848072920000032Sherlock Holmes - Saturday @ 10:30am (oct)                                                                                                                     
PROFAMCHA000701072920072950000030Honey, I Shrunk the Kids (JUL) - Sunday @ 8pm                                                                                                                  
ID FAMCHA000701072950073000000010Magic of Disney - V2(sky) - TEEN FEMALE                                                                                                                        
PROFAMCHA000701073000073005000005CC Disclaimer (oct) **DO NOT USE**                                                                                                                             
PGRFAMCHA000701073005075247002242Disney's Aladdin                                  Bad Mood Rising                                                      6068607ECC                              
ID FAMCHA000701075247075257000010Generic ID - confetti                                                                                                                                          
PROFAMCHA000701075257075327000030Zenon, Girl of the 21st Century (JUL) - Sunday @ 1                                                                                                             
PROFAMCHA000701075327075337000010MV FAMJAM - Teaser (Nobody's Angel)                                                                                                                            
PROFAMCHA000701075337075432000055Generic Series Promo - Celebrate the Day w/Family                                                                                                              
PROFAMCHA000701075432075504000032Sherlock Holmes - Saturday @ 10:30am (oct)                                                                                                                     
PGRFAMCHA000701075504075822000318MV Disney - If You Wanna Dance (not preschool)                                                                         60688130                                
PRCFAMCHA000701075822075910000048Ripley's BION - Today @ 11am (MAR)                                                                                                                             
PROFAMCHA000701075910075940000030Willy Wonka (JUL1) - Today @ 12pm                                                                                                                              
PRCFAMCHA000701075940075950000010Morning Block menu background (flex time)                                                                                                                      
ID FAMCHA000701075950080000000010Magic of Disney - V2(sky) - TEEN MALE                                                                                                                          
PROFAMCHA000701080000080005000005CC Disclaimer (oct) **DO NOT USE**                                                                                                                             
PGRFAMCHA000701080005082244002239Adventures of the Gummi Bears; The                Queen Of The Carpies                                                 6068607ECC                              
ID FAMCHA000701082244082254000010Generic ID - confetti                                                                                                                                          
PROFAMCHA000701082254082324000030Willy Wonka (JUL1) - Today @ 12pm                                                                                                                              
PROFAMCHA000701082324082354000030Madeline - Next (oct)                                                                                                                                          
PRCFAMCHA000701082354082429000035Little Lulu Show; The - Tonight @ 6:30pm (oct1)                                                                                                                
PGRFAMCHA000701082429082839000410MV Disney - If I Never Knew You (oct 1)                                                                                60688130                                
PRCFAMCHA000701082839082909000030Franklin - Tonight @ 6:00pm (MAR)                                                                                                                              
PROFAMCHA000701082909082939000030Honey, I Shrunk the Kids (JUL) - Sunday @ 8pm                                                                                                                  
ID FAMCHA000701082939083000000021Prime time open count down                                                                                                                                     
PGRFAMCHA000701083000085259002259Madeline                                          Madeline's Detective School                                          6068607ECC                              
ID FAMCHA000701085259085304000005Generic ID - Couch 2                                                                                                                                           
PROFAMCHA000701085304085334000030Zenon, Girl of the 21st Century (JUL) - Sunday @ 1                                                                                                             
PRCFAMCHA000701085334085404000030Franklin - Tonight @ 6:00pm (MAR)                                                                                                                              
PGRFAMCHA000701085404085830000426MV Disney - Love Will Find A Way (oct)                                                                                 60688130                                
ID FAMCHA000701085830085839000009URL(1) - CONTESTS                                                                                                                                              
PROFAMCHA000701085839085909000030So Weird - Today at 11:30 am (oct1 )                                                                                                                           
PROFAMCHA000701085909085939000030Willy Wonka (JUL1) - Today @ 12pm                                                                                                                              
ID FAMCHA000701085939090000000021Prime time open count down                                                                                                                                     
PROFAMCHA000701090000090005000005CC Disclaimer (oct) **DO NOT USE**                                                                                                                             
PGRFAMCHA000701090005092133002128Gadget Boy                                        Monumental Mayhem                                                    6068607ECC                              
ID FAMCHA000701092133092143000010Generic ID - Family w/dog                                                                                                                                      
PROFAMCHA000701092143092213000030Willy Wonka (JUL1) - Today @ 12pm                                                                                                                              
PROFAMCHA000701092213092253000040Microsoap - Today @ 2:30pm (MAR)                                                                                                                               
PROFAMCHA000701092253092334000041Honey I Shrunk the Kids (series oct) Sunday @ 7pm                                                                                                              
PGRFAMCHA000701092334092824000450MV Disney - Circle of Life (oct 1)                                                                                     60688130                                
PROFAMCHA000701092824092859000035Lion King's Timon & Pumbaa - today @ 3:30pm                                                                                                                    
PROFAMCHA000701092859092929000030Honey, I Shrunk the Kids (JUL) - Sunday @ 8pm                                                                                                                  
PRCFAMCHA000701092929092939000010Morning Block menu background (flex time)                                                                                                                      
ID FAMCHA000701092939093000000021Prime time open count down                                                                                                                                     
PROFAMCHA000701093000093005000005CC Disclaimer (oct) **DO NOT USE**                                                                                                                             
PGRFAMCHA000701093005095405002400Bug Juice                                         Old Friends and New Friends                                          6028607ACC                              
ID FAMCHA000701095405095410000005Generic ID - Fingerpaint                                                                                                                                       
PROFAMCHA000701095410095440000030Zenon, Girl of the 21st Century (JUL) - Sunday @ 1                                                                                                             
PROFAMCHA000701095440095510000030Adventures of Pete & Pete - Next                                                                                                                               
PROFAMCHA000701095510095551000041Honey I Shrunk the Kids (series oct) Sunday @ 7pm                                                                                                              
PRCFAMCHA000701095551095621000030Funshine Tour - Generic Event Promo                                                                                                                            
PRCFAMCHA000701095621095701000040Funshine Tour - Location Spot #1-7 (JUN26-JUL02)                                                                                                               
PGRFAMCHA000701095701095821000120Bill Nye - Whether the Weather                                                                                         60688130                                
PROFAMCHA000701095821095900000039Goof Troop - Today @ 4pm                                                                                                                                       
PROFAMCHA000701095900095930000030Willy Wonka (JUL1) - Today @ 12pm                                                                                                                              
PRCFAMCHA000701095930095939000009Morning Block menu background (flex time)                                                                                                                      
ID FAMCHA000701095939100000000021Prime time open count down                                                                                                                                     
PGRFAMCHA000701100000102420002420Adventures of Pete & Pete; The                    Time Tunnel                                                         A2068607B                                
ID FAMCHA000701102420102430000010Generic ID - Hula Hoop                                                                                                                                         
PROFAMCHA000701102430102500000030Willy Wonka (JUL1) - Today @ 12pm                                                                                                                              
PROFAMCHA000701102500102532000032Sherlock Holmes - Next (oct)                                                                                                                                   
PROFAMCHA000701102532102611000039Goof Troop - Today @ 4pm                                                                                                                                       
PGRFAMCHA000701102611102815000204MV Disney - You've got a friend in me (oct 1)                                                                          60688130                                
PROFAMCHA000701102815102857000042Gargoyles - Today @ 4:30pm (MAR)                                                                                                                               
PROFAMCHA000701102857102927000030Honey, I Shrunk the Kids (JUL) - Sunday @ 8pm                                                                                                                  
PRCFAMCHA000701102927102939000012Morning Block menu background (flex time)                                                                                                                      
ID FAMCHA000701102939103000000021Prime time open count down                                                                                                                                     
PGRFAMCHA000701103000105214002214Sherlock Holmes In The 22nd Century               Adventure of the Second Stain                                        6068607E                                
ID FAMCHA000701105214105224000010Generic ID - Family w/dog                                                                                                                                      
PROFAMCHA000701105224105254000030Zenon, Girl of the 21st Century (JUL) - Sunday @ 1                                                                                                             
PRCFAMCHA000701105254105342000048Ripley's BION - Next (MAR)                                                                                                                                     
PROFAMCHA000701105342105424000042Gargoyles - Today @ 4:30pm (MAR)                                                                                                                               
PRCFAMCHA000701105424105454000030Funshine Tour - Generic Event Promo                                                                                                                            
PRCFAMCHA000701105454105534000040Funshine Tour - Location Spot #1-7 (JUN26-JUL02)                                                                                                               
PGRFAMCHA000701105534105827000253Music Break - Sebastian Music Sweet                                                                                    60688130                                
PRCFAMCHA000701105827105900000033Hoze Houndz - Tonight @ 7:00pm                                                                                                                                 
PROFAMCHA000701105900105930000030Willy Wonka (JUL1) - Today @ 12pm                                                                                                                              
PRCFAMCHA000701105930105939000009Morning Block menu background (flex time)                                                                                                                      
ID FAMCHA000701105939110000000021Prime time open count down                                                                                                                                     
PROFAMCHA000701110000110005000005CC Disclaimer (oct) **DO NOT USE**                                                                                                                             
PGRFAMCHA000701110005112435002430Ripley's Believe It Or Not!                       TBC                                                                  1065607ECC                              
ID FAMCHA000701112435112440000005Generic ID - Fingerpaint                                                                                                                                       
PROFAMCHA000701112440112510000030Willy Wonka (JUL1) - Today @ 12pm                                                                                                                              
PROFAMCHA000701112510112540000030So Weird - Next (oct1 )                                                                                                                                        
PRCFAMCHA000701112540112613000033Hoze Houndz - Tonight @ 7:00pm                                                                                                                                 
PGRFAMCHA000701112613112840000227Disney Moments - Dumbo-Song Of The Roustabouts                                                                         60688130                                
PROFAMCHA000701112840112910000030Adventures of Pete & Pete - Tonight @ 7:30pm                                                                                                                   
PROFAMCHA000701112910112940000030Honey, I Shrunk the Kids (JUL) - Sunday @ 8pm                                                                                                                  
PRCFAMCHA000701112940112950000010Morning Block menu background (flex time)                                                                                                                      
ID FAMCHA000701112950113000000010Magic of Disney - V3(water) - TEEN FEMALE                                                                                                                      
PGRFAMCHA000701113000115404002404So Weird                                          Rebecca                                                              6068807A                                
ID FAMCHA000701115404115414000010Generic ID - Hula Hoop                                                                                                                                         
PROFAMCHA000701115414115444000030Zenon, Girl of the 21st Century (JUL) - Sunday @ 1                                                                                                             
PROFAMCHA000701115444115514000030Willy Wonka (JUL1) - Coming Up                                                                                                                                 
PRCFAMCHA000701115514115602000048Ripley's BION - Today @ 5pm (MAR)                                                                                                                              
PRCFAMCHA000701115602115632000030Funshine Tour - Generic Event Promo                                                                                                                            
PRCFAMCHA000701115632115712000040Funshine Tour - Location Spot #1-7 (JUN26-JUL02)                                                                                                               
PGRFAMCHA000701115712115819000107Disney Moments-Many Adventures Of Ichabod-Headless                                                                     60688130                                
PROFAMCHA000701115819115859000040Microsoap - Today @ 2:30pm (MAR)                                                                                                                               
PROFAMCHA000701115859115929000030Honey, I Shrunk the Kids (JUL) - Sunday @ 8pm                                                                                                                  
PRCFAMCHA000701115929115939000010Morning Block menu background (flex time)                                                                                                                      
ID FAMCHA000701115939120000000021Move open family size movie                                                                                                                                    
PROFAMCHA000701120000120007000007Rating - G (oct )                                                                                                                                              
PGRFAMCHA000701120007133945013938Willy Wonka and the Chocolate Factory                                                                                 A2068807D                                
ID FAMCHA000701133945133950000005Generic ID - Bubbles                                                                                                                                           
ID FAMCHA000701133950134000000010Magic of Disney - V2(sky) - TEEN FEMALE                                                                                                                        
PROFAMCHA000701134000134005000005CC Disclaimer (oct) **DO NOT USE**                                                                                                                             
PGRFAMCHA000701134005140306002301Disney Presents Bill Nye the Science Guy          Nutrition                                                            60686110CC                              
ID FAMCHA000701140306140311000005Generic ID - Bubbles                                                                                                                                           
PROFAMCHA000701140311140341000030Honey, I Shrunk the Kids (JUL) - Sunday @ 8pm                                                                                                                  
PROFAMCHA000701140341140359000018Adventures of Pete & Pete - Wednesday @ 6pm                                                                                                                    
PROFAMCHA000701140359140429000030Zenon, Girl of the 21st Century (JUL) - Sunday @ 1                                                                                                             
PRCFAMCHA000701140429140439000010Morning Block menu background (flex time)                                                                                                                      
ID FAMCHA000701140439140500000021Prime time open count down                                                                                                                                     
PGRFAMCHA000701140500142456001956Art Attack                                        1-075                                                                60686110                                
ID FAMCHA000701142456142503000007Generic ID - Whisper                                                                                                                                           
PROFAMCHA000701142503142533000030Zenon, Girl of the 21st Century (JUL) - Sunday @ 1                                                                                                             
PROFAMCHA000701142533142613000040Microsoap - Next (MAR)**DO NOT USE**                                                                                                                           
PROFAMCHA000701142613142648000035Lion King's Timon & Pumbaa - today @ 3:30pm                                                                                                                    
PGRFAMCHA000701142648142822000134MV Disney - He's A Tramp (oct)                                                                                         60688130                                
PRCFAMCHA000701142822142857000035Misguided Angels - Monday & Thursday @ 6:45pm (MAR                                                                                                             
PROFAMCHA000701142857142927000030Honey, I Shrunk the Kids (JUL) - Sunday @ 8pm                                                                                                                  
PRCFAMCHA000701142927142939000012Morning Block menu background (flex time)                                                                                                                      
ID FAMCHA000701142939143000000021Prime time open count down                                                                                                                                     
PGRFAMCHA000701143000145410002410Microsoap                                         1-005                                                                6068607A                                
ID FAMCHA000701145410145420000010Generic ID - soccer **DO NOT USE**                                                                                                                             
PROFAMCHA000701145420145450000030Honey, I Shrunk the Kids (JUL) - Sunday @ 8pm                                                                                                                  
PGRFAMCHA000701145450145910000420MV Disney - Someday (oct 1)                                                                                            60688130                                
PROFAMCHA000701145910145940000030My Girl (Star) - Friday @ 8pm                                                                                                                                  
PRCFAMCHA000701145940145950000010Morning Block menu background (flex time)                                                                                                                      
ID FAMCHA000701145950150000000010Magic of Disney - V3(water) - TEEN MALE                                                                                                                        
PROFAMCHA000701150000150005000005CC Disclaimer (oct) **DO NOT USE**                                                                                                                             
PGRFAMCHA000701150005152253002248Disney's Aladdin                                  Seems Like Old Crimes, Part One                                      6068607ECC                              
ID FAMCHA000701152253152303000010Generic ID - Family w/dog                                                                                                                                      
PROFAMCHA000701152303152333000030Zenon, Girl of the 21st Century (JUL) - Sunday @ 1                                                                                                             
PROFAMCHA000701152333152408000035Lion King's Timon & Pumbaa - next (OCT 1)                                                                                                                      
PROFAMCHA000701152408152447000039Goof Troop - Today @ 4pm                                                                                                                                       
PGRFAMCHA000701152447152828000341MV Disney - Mambo #5                                                                                                   60688130                                
PROFAMCHA000701152828152910000042Gargoyles - Today @ 4:30pm (MAR)                                                                                                                               
PROFAMCHA000701152910152940000030Honey, I Shrunk the Kids (JUL) - Sunday @ 8pm                                                                                                                  
PRCFAMCHA000701152940152950000010Morning Block menu background (flex time)                                                                                                                      
ID FAMCHA000701152950153000000010Magic of Disney - V2(sky) - TEEN FEMALE                                                                                                                        
PROFAMCHA000701153000153005000005CC Disclaimer (oct) **DO NOT USE**                                                                                                                             
PGRFAMCHA000701153005155250002245Lion King's Timon & Pumbaa; The                   Never Everglades/Cooked Goose                                        6068607ECC                              
ID FAMCHA000701155250155257000007Generic ID - Whisper                                                                                                                                           
PROFAMCHA000701155257155327000030Honey, I Shrunk the Kids (JUL) - Sunday @ 8pm                                                                                                                  
PROFAMCHA000701155327155406000039Goof Troop - Next                                                                                                                                              
PROFAMCHA000701155406155448000042Gargoyles - Today @ 4:30pm (MAR)                                                                                                                               
PGRFAMCHA000701155448155821000333MV Disney - Reflection (oct 1)                                                                                         60688130                                
PRCFAMCHA000701155821155909000048Ripley's BION - Today @ 5pm (MAR)                                                                                                                              
PROFAMCHA000701155909155939000030My Girl (Star) - Friday @ 8pm                                                                                                                                  
PRCFAMCHA000701155939155950000011Morning Block menu background (flex time)                                                                                                                      
ID FAMCHA000701155950160000000010Magic of Disney - V2(sky) - TEEN MALE                                                                                                                          
PROFAMCHA000701160000160005000005CC Disclaimer (oct) **DO NOT USE**                                                                                                                             
PGRFAMCHA000701160005162253002248Goof Troop                                        Good Neighbour Goof                                                  6068607ECC                              
ID FAMCHA000701162253162308000015Generic ID - confetti                                                                                                                                          
PROFAMCHA000701162308162338000030Zenon, Girl of the 21st Century (JUL) - Sunday @ 1                                                                                                             
PROFAMCHA000701162338162420000042Gargoyles - Next (MAR)                                                                                                                                         
PRCFAMCHA000701162420162508000048Ripley's BION - Today @ 5pm (MAR)                                                                                                                              
PRCFAMCHA000701162508162538000030Funshine Tour - Generic Event Promo                                                                                                                            
PRCFAMCHA000701162538162618000040Funshine Tour - Location Spot #1-7 (JUN26-JUL02)                                                                                                               
PGRFAMCHA000701162618162829000211MV Disney - Right Back Where We Started From                                                                           60688130                                
PROFAMCHA000701162829162859000030Adventures of Pete & Pete - Tonight @ 7:30pm                                                                                                                   
PROFAMCHA000701162859162929000030Honey, I Shrunk the Kids (JUL) - Sunday @ 8pm                                                                                                                  
PRCFAMCHA000701162929162939000010Morning Block menu background (flex time)                                                                                                                      
ID FAMCHA000701162939163000000021Prime time open count down                                                                                                                                     
PGRFAMCHA000701163000165252002252Gargoyles                                         Long Way To Morning                                                  6068607E                                
ID FAMCHA000701165252165257000005Generic ID - Bubbles                                                                                                                                           
PROFAMCHA000701165257165327000030Honey, I Shrunk the Kids (JUL) - Sunday @ 8pm                                                                                                                  
PRCFAMCHA000701165327165415000048Ripley's BION - Next (MAR)                                                                                                                                     
PROFAMCHA000701165415165445000030So Weird - Sunday at 6:00 pm (oct1 )                                                                                                                           
PGRFAMCHA000701165445165826000341MV Disney - Hakuna Matata (oct)                                                                                        60688130                                
ID FAMCHA000701165826165839000013URL(2) - SNACK                                                                                                                                                 
PRCFAMCHA000701165839165909000030Are You Afraid of the Dark(MAR)- Sunday @ 5pm                                                                                                                  
PROFAMCHA000701165909165939000030My Girl (Star) - Friday @ 8pm                                                                                                                                  
ID FAMCHA000701165939170000000021Prime time open count down                                                                                                                                     
PROFAMCHA000701170000170005000005CC Disclaimer (oct) **DO NOT USE**                                                                                                                             
PGRFAMCHA000701170005172435002430Ripley's Believe It Or Not!                       The Golden Passport                                                  1065607ECC                              
ID FAMCHA000701172435172450000015Generic ID - confetti                                                                                                                                          
PROFAMCHA000701172450172520000030Zenon, Girl of the 21st Century (JUL) - Sunday @ 1                                                                                                             
PROFAMCHA000701172520172605000045PB&J Otter - Next (oct 1)                                                                                                                                      
PRCFAMCHA000701172605172638000033Hoze Houndz - Tonight @ 7:00pm                                                                                                                                 
PRCFAMCHA000701172638172708000030Funshine Tour - Generic Event Promo                                                                                                                            
PRCFAMCHA000701172708172748000040Funshine Tour - Location Spot #1-7 (JUN26-JUL02)                                                                                                               
PRCFAMCHA000701172748172823000035Little Lulu Show; The - Tonight @ 6:30pm (oct1)                                                                                                                
PRCFAMCHA000701172823172858000035Misguided Angels - Monday & Thursday @ 6:45pm (MAR                                                                                                             
PROFAMCHA000701172858172928000030Honey, I Shrunk the Kids (JUL) - Sunday @ 8pm                                                                                                                  
PRCFAMCHA000701172928172939000011Morning Block menu background (flex time)                                                                                                                      
ID FAMCHA000701172939173000000021Prime time open count down                                                                                                                                     
PROFAMCHA000701173000173005000005CC Disclaimer (oct) **DO NOT USE**                                                                                                                             
PGRFAMCHA000701173005175335002330PB&J Otter                                        Lemon-Itis/Duckbird Alert                                           A6068607ECC                              
ID FAMCHA000701175335175345000010Generic ID - confetti                                                                                                                                          
PROFAMCHA000701175345175415000030Honey, I Shrunk the Kids (JUL) - Sunday @ 8pm                                                                                                                  
PRCFAMCHA000701175415175445000030Franklin - Next (MAR)                                                                                                                                          
PRCFAMCHA000701175445175520000035Little Lulu Show; The - Tonight @ 6:30pm (oct1)                                                                                                                
PGRFAMCHA000701175520175827000307Part Of Your World - Jodi Benson                                                                                       60688130                                
PROFAMCHA000701175827175857000030Out of The Box - Tuesday and Thursday @ 8:30am (oc                                                                                                             
PROFAMCHA000701175857175927000030My Girl (Star) - Friday @ 8pm                                                                                                                                  
PRCFAMCHA000701175927175939000012Morning Block menu background (flex time)                                                                                                                      
ID FAMCHA000701175939180000000021Prime time open count down                                                                                                                                     
PROFAMCHA000701180000180005000005CC Disclaimer (oct) **DO NOT USE**                                                                                                                             
PGRFAMCHA000701180005182258002253Franklin                                          Franklin Helps Out/Franklin's Missing Snacks                  P02772A1065607ECC                              
ID FAMCHA000701182258182303000005Generic ID - Couch 1                                                                                                                                           
PROFAMCHA000701182303182333000030Zenon, Girl of the 21st Century (JUL) - Sunday @ 1                                                                                                             
PRCFAMCHA000701182333182408000035Little Lulu Show; The - Next (oct1)                                                                                                                            
PROFAMCHA000701182408182438000030Out of The Box - Tuesday and Thursday @ 8:30am (oc                                                                                                             
PRCFAMCHA000701182438182508000030Funshine Tour - Generic Event Promo                                                                                                                            
PRCFAMCHA000701182508182548000040Funshine Tour - Location Spot #1-7 (JUN26-JUL02)                                                                                                               
PGRFAMCHA000701182548182813000225MV Disney - T&P - Yummy,Yummy,Yummy                                                                                    60688130                                
PROFAMCHA000701182813182858000045PB&J Otter - Mon, Wed & Fri @ 8:30am (oct 1)                                                                                                                   
PROFAMCHA000701182858182928000030Honey, I Shrunk the Kids (JUL) - Sunday @ 8pm                                                                                                                  
PRCFAMCHA000701182928182939000011Morning Block menu background (flex time)                                                                                                                      
ID FAMCHA000701182939183000000021Prime time open count down                                                                                                                                     
PROFAMCHA000701183000183005000005CC Disclaimer (oct) **DO NOT USE**                                                                                                                             
PGRFAMCHA000701183005185356002351Little Lulu Show; The                             The Case of the Missing Wig/Froglegs/A Wrong Move             B03818A1065607ECC                              
ID FAMCHA000701185356185401000005Generic ID - Couch 2                                                                                                                                           
PROFAMCHA000701185401185431000030Honey, I Shrunk the Kids (JUL) - Sunday @ 8pm                                                                                                                  
PRCFAMCHA000701185431185504000033Hoze Houndz - Next (oct 1)                                                                                                                                     
PROFAMCHA000701185504185534000030Generic Series Promo - Where the Fun Is                                                                                                                        
PROFAMCHA000701185534185626000052Great African Wildlife Rescue - Sunday at 2pm on F                                                                                                             
PGRFAMCHA000701185626185826000200MV Disney - I'm Gonna Fly (oct)                                                                                        60688130                                
ID FAMCHA000701185826185839000013URL(2) - SILLY STORIES                                                                                                                                         
PROFAMCHA000701185839185909000030Adventures of Pete & Pete - Tonight @ 7:30pm                                                                                                                   
PROFAMCHA000701185909185939000030My Girl (Star) - Friday @ 8pm                                                                                                                                  
ID FAMCHA000701185939190000000021Prime time open count down                                                                                                                                     
PROFAMCHA000701190000190005000005CC Disclaimer (oct) **DO NOT USE**                                                                                                                             
PGRFAMCHA000701190005192241002236Hoze Houndz **FLAGGED FOR WTC**                   Hypnohoundz/Houndz in Space                                   B17125A1065607ECC                              
ID FAMCHA000701192241192251000010Generic ID - Family w/dog                                                                                                                                      
PROFAMCHA000701192251192321000030Zenon, Girl of the 21st Century (JUL) - Sunday @ 1                                                                                                             
PROFAMCHA000701192321192351000030Adventures of Pete & Pete - Next                                                                                                                               
PROFAMCHA000701192351192443000052Great African Wildlife Rescue - Sunday at 2pm on F                                                                                                             
PGRFAMCHA000701192443192817000334MV Disney - Forever and ever (preschool)                                                                               60688130                                
PROFAMCHA000701192817192839000022Disney's One Too - Weekdays @4:30 (Oct 1)                                                                                                                      
PROFAMCHA000701192839192909000030Generic Series Promo - There's Always Something On                                                                                                             
PROFAMCHA000701192909192939000030Honey, I Shrunk the Kids (JUL) - Sunday @ 8pm                                                                                                                  
ID FAMCHA000701192939193000000021Prime time open count down                                                                                                                                     
PGRFAMCHA000701193000195420002420Adventures of Pete & Pete; The                    Time Tunnel                                                         A2068607B                                
ID FAMCHA000701195420195430000010Generic ID - confetti                                                                                                                                          
PROFAMCHA000701195430195500000030Honey, I Shrunk the Kids (JUL) - Sunday @ 8pm                                                                                                                  
PROFAMCHA000701195500195530000030So Weird - Sunday at 6:00 pm (oct1 )                                                                                                                           
PGRFAMCHA000701195530195837000307MV Disney - Part of your world (oct 1)                                                                                 60688130                                
PROFAMCHA000701195837195909000032Sherlock Holmes - Sunday @ 5:30pm (oct)                                                                                                                        
PROFAMCHA000701195909195939000030My Girl (Star) - Friday @ 8pm                                                                                                                                  
ID FAMCHA000701195939200000000021Move open family size movie                                                                                                                                    
PROFAMCHA000701200000200007000007Rating - PG (oct)                                                                                                                                              
PROFAMCHA000701200007200012000005CC Disclaimer (oct) **DO NOT USE**                                                                                                                             
ID FAMCHA000701200012200022000010Magic of Disney - V2(sky) - ADULT MALE                                                                                                                         
PGRFAMCHA000701200022214449014427Adventures Of Huck Finn; The                                                                                          B6068807DCC                              
ID FAMCHA000701214449214454000005Generic ID - Bubbles                                                                                                                                           
ID FAMCHA000701214454214515000021Move open family size movie                                                                                                                                    
PROFAMCHA000701214515214522000007Rating - PG (oct)                                                                                                                                              
PROFAMCHA000701214522214527000005CC Disclaimer (oct) **DO NOT USE**                                                                                                                             
ID FAMCHA000701214527214537000010Magic of Disney - V3(water) - ADULT FEMALE                                                                                                                     
PGRFAMCHA000701214537231003012426Toothless                                                                                                             B6068807DCC                              
ID FAMCHA000701231003231018000015Generic ID - confetti                                                                                                                                          
PROFAMCHA000701231018231048000030Zenon, Girl of the 21st Century (JUL) - Sunday @ 1                                                                                                             
PGRFAMCHA000701231048231409000321Disney Moments - Make Mine Music-Casey At Bat                                                                          60688130                                
PROFAMCHA000701231409231439000030Honey, I Shrunk the Kids (JUL) - Sunday @ 8pm                                                                                                                  
ID FAMCHA000701231439231500000021Move open family size movie                                                                                                                                    
PROFAMCHA000701231500231507000007Rating - PG (oct)                                                                                                                                              
PROFAMCHA000701231507231512000005CC Disclaimer (oct) **DO NOT USE**                                                                                                                             
ID FAMCHA000701231512231522000010Magic of Disney - V2(sky) - ADULT MALE                                                                                                                         
PGRFAMCHA000701231522005412013850Love Leads The Way                                                                                                    B6068807CCC                              
ID FAMCHA000701005412005427000015Generic ID - confetti                                                                                                                                          
PGRFAMCHA000701005427010200000733Get It Right Goofy                                                                                                     60687130                                
SO FAMCHA000701010200010212000012Sign Off (oct 1)                                                                                                                                               
OFFFAMCHA000701010212043000032748                                                                                                                                                               
OFFFAMCHA000702043000060000013000                                                                                                                                                               
SO FAMCHA000702060000060011000011Sign On (oct 1)                                                                                                                                                
PROFAMCHA000702060011060016000005CC Disclaimer (oct) **DO NOT USE**                                                                                                                             
PGRFAMCHA000702060016062346002330PB&J Otter                                        The Ice Mouse                                                       A6068607ECC                              
ID FAMCHA000702062346062356000010Generic ID - Bubbles                                                                                                                                           
PROFAMCHA000702062356062426000030Zenon, Girl of the 21st Century (JUL) - Today @ 12                                                                                                             
PROFAMCHA000702062426062456000030Crash Zone - Next (MAR)                                                                                                                                        
PROFAMCHA000702062456062526000030Adventures of Pete & Pete - Today @ 8:30am                                                                                                                     
PGRFAMCHA000702062526062804000238MV Disney - Lion King 2: We are One (oct)                                                                              60688130                                
ID FAMCHA000702062804062817000013URL(2) - SNACK                                                                                                                                                 
PROFAMCHA000702062817062909000052Great African Wildlife Rescue - Today at 2pm on Fa                                                                                                             
PROFAMCHA000702062909062939000030Lucas (JUL) - Saturday @ 12pm                                                                                                                                  
ID FAMCHA000702062939063000000021Prime time open count down                                                                                                                                     
PGRFAMCHA000702063000065454002454Crash Zone                                        Secrets and Lies                                                     6068607A                                
ID FAMCHA000702065454065459000005Generic ID - Bubbles                                                                                                                                           
PROFAMCHA000702065459065529000030My Girl (Star) - Friday @ 8pm                                                                                                                                  
PROFAMCHA000702065529065621000052Great African Wildlife Rescue - Today at 2pm on Fa                                                                                                             
PGRFAMCHA000702065621065821000200MV Disney - I'm Gonna Fly (oct)                                                                                        60688130                                
ID FAMCHA000702065821065829000008URL(2) - TRIVIA                                                                                                                                                
PROFAMCHA000702065829065909000040Microsoap - Today @ 2:30pm (MAR)                                                                                                                               
PROFAMCHA000702065909065939000030Zenon, Girl of the 21st Century (JUL) - Today @ 12                                                                                                             
ID FAMCHA000702065939070000000021Prime time open count down                                                                                                                                     
PGRFAMCHA000702070000072404002404Clarissa                                          Marshall's Mid Life Crisis                                           2068607B                                
ID FAMCHA000702072404072419000015Generic ID - confetti                                                                                                                                          
PROFAMCHA000702072419072449000030Zenon, Girl of the 21st Century (JUL) - Today @ 12                                                                                                             
PROFAMCHA000702072449072529000040Microsoap - Today @ 2:30pm (MAR)                                                                                                                               
PGRFAMCHA000702072529072836000307MV Disney - Part of your world (oct 1)                                                                                 60688130                                
PROFAMCHA000702072836072911000035Lion King's Timon & Pumbaa - today @ 3:30pm                                                                                                                    
PROFAMCHA000702072911072941000030Lucas (JUL) - Saturday @ 12pm                                                                                                                                  
PRCFAMCHA000702072941072950000009Morning Block menu background (flex time)                                                                                                                      
ID FAMCHA000702072950073000000010Magic of Disney - V2(sky) - TEEN FEMALE                                                                                                                        
PROFAMCHA000702073000073005000005CC Disclaimer (oct) **DO NOT USE**                                                                                                                             
PGRFAMCHA000702073005075247002242Disney's Aladdin                                  Seems Like Old Crimes, Part Two                                      6068607ECC                              
ID FAMCHA000702075247075252000005Generic ID - Marbles                                                                                                                                           
PROFAMCHA000702075252075322000030My Girl (Star) - Friday @ 8pm                                                                                                                                  
PROFAMCHA000702075322075357000035Lion King's Timon & Pumbaa - today @ 3:30pm                                                                                                                    
PGRFAMCHA000702075357075817000420MV Disney - Someday (oct 1)                                                                                            60688130                                
ID FAMCHA000702075817075830000013URL(2) - SILLY STORIES                                                                                                                                         
PROFAMCHA000702075830075909000039Goof Troop - Today @ 4pm                                                                                                                                       
PROFAMCHA000702075909075939000030Zenon, Girl of the 21st Century (JUL) - Today @ 12                                                                                                             
ID FAMCHA000702075939080000000021Prime time open count down                                                                                                                                     
PROFAMCHA000702080000080005000005CC Disclaimer (oct) **DO NOT USE**                                                                                                                             
PGRFAMCHA000702080005082310002305Mad Libs                                          1-053                                                               A60686100CC                              
ID FAMCHA000702082310082315000005Generic ID - Couch 1                                                                                                                                           
PROFAMCHA000702082315082345000030Zenon, Girl of the 21st Century (JUL) - Today @ 12                                                                                                             
PROFAMCHA000702082345082415000030Adventures of Pete & Pete - Next                                                                                                                               
PROFAMCHA000702082415082454000039Goof Troop - Today @ 4pm                                                                                                                                       
PGRFAMCHA000702082454082814000320MV Disney - Remember the magic (oct 1)                                                                                 60688130                                
PROFAMCHA000702082814082856000042Gargoyles - Today @ 4:30pm (MAR)                                                                                                                               
PROFAMCHA000702082856082926000030Lucas (JUL) - Saturday @ 12pm                                                                                                                                  
PRCFAMCHA000702082926082939000013Morning Block menu background (flex time)                                                                                                                      
ID FAMCHA000702082939083000000021Prime time open count down                                                                                                                                     
PGRFAMCHA000702083000085420002420Adventures of Pete & Pete; The                    Time Tunnel                                                         A2068607B                                
ID FAMCHA000702085420085425000005Generic ID - Couch 2                                                                                                                                           
PROFAMCHA000702085425085455000030My Girl (Star) - Friday @ 8pm                                                                                                                                  
PROFAMCHA000702085455085537000042Gargoyles - Today @ 4:30pm (MAR)                                                                                                                               
PGRFAMCHA000702085537085826000249MV Disney - Never alone (oct 1)                                                                                        60688130                                
PRCFAMCHA000702085826085856000030Are You Afraid of the Dark(MAR)- Today @ 5pm                                                                                                                   
PROFAMCHA000702085856085926000030Zenon, Girl of the 21st Century (JUL) - Today @ 12                                                                                                             
PRCFAMCHA000702085926085939000013Morning Block menu background (flex time)                                                                                                                      
ID FAMCHA000702085939090000000021Prime time open count down                                                                                                                                     
PGRFAMCHA000702090000092404002404Clarissa                                          Marshall's Mid Life Crisis                                           2068607B                                
ID FAMCHA000702092404092411000007Generic ID - Whisper                                                                                                                                           
PROFAMCHA000702092411092441000030Zenon, Girl of the 21st Century (JUL) - Today @ 12                                                                                                             
PRCFAMCHA000702092441092511000030Are You Afraid of the Dark(MAR)- Today @ 5pm                                                                                                                   
PGRFAMCHA000702092511092827000316Art Attack - Party Clown                                                                                               60686130                                
PROFAMCHA000702092827092859000032Sherlock Holmes - Today @ 5:30pm (oct)                                                                                                                         
PROFAMCHA000702092859092929000030Lucas (JUL) - Saturday @ 12pm                                                                                                                                  
PRCFAMCHA000702092929092939000010Morning Block menu background (flex time)                                                                                                                      
ID FAMCHA000702092939093000000021Prime time open count down                                                                                                                                     
PROFAMCHA000702093000093005000005CC Disclaimer (oct) **DO NOT USE**                                                                                                                             
PGRFAMCHA000702093005095234002229Blossom                                           Blossom In Paris Part 2                                              6068807ACC                              
ID FAMCHA000702095234095239000005Generic ID - Fingerpaint                                                                                                                                       
PROFAMCHA000702095239095309000030My Girl (Star) - Friday @ 8pm                                                                                                                                  
PROFAMCHA000702095309095341000032Sherlock Holmes - Today @ 5:30pm (oct)                                                                                                                         
PRCFAMCHA000702095341095411000030Funshine Tour - Generic Event Promo                                                                                                                            
PRCFAMCHA000702095411095451000040Funshine Tour - Location Spot #1-7 (JUN26-JUL02)                                                                                                               
PGRFAMCHA000702095451095832000341MV Disney - Mambo #5                                                                                                   60688130                                
ID FAMCHA000702095832095839000007URL(1) - FUNSTUFF                                                                                                                                              
PROFAMCHA000702095839095909000030So Weird - Tonight at 6:00 pm (oct1 )                                                                                                                          
PROFAMCHA000702095909095939000030Zenon, Girl of the 21st Century (JUL) - Today @ 12                                                                                                             
ID FAMCHA000702095939100000000021Move open family size movie                                                                                                                                    
PROFAMCHA000702100000100007000007Rating - G (oct )                                                                                                                                              
PROFAMCHA000702100007100012000005CC Disclaimer (oct) **DO NOT USE**                                                                                                                             
ID FAMCHA000702100012100022000010Magic of Disney - V2(sky) - TEEN MALE                                                                                                                          
PGRFAMCHA000702100022112755012733Vacationing With Mickey And Friends                                                                                   A6068807ECC                              
ID FAMCHA000702112755112805000010Generic ID - Hula Hoop                                                                                                                                         
PROFAMCHA000702112805112835000030Zenon, Girl of the 21st Century (JUL) - Today @ 12                                                                                                             
PROFAMCHA000702112835112859000024So Weird - Tonight @ 6:00 pm (Oct 1)                                                                                                                           
PROFAMCHA000702112859112929000030Lucas (JUL) - Saturday @ 12pm                                                                                                                                  
PRCFAMCHA000702112929112939000010Morning Block menu background (flex time)                                                                                                                      
ID FAMCHA000702112939113000000021Prime time open count down                                                                                                                                     
PGRFAMCHA000702113000115526002526Famous Fred                                                                                                           A3068607E                                
ID FAMCHA000702115526115531000005Generic ID - Marbles                                                                                                                                           
ID FAMCHA000702115531115552000021Move open family size movie                                                                                                                                    
PROFAMCHA000702115552115559000007Rating - G (oct )                                                                                                                                              
ID FAMCHA000702115559115609000010Magic of Disney - V2(sky) - TEEN FEMALE                                                                                                                        
PGRFAMCHA000702115609133309013700Zenon, Girl Of The 21st Century                                                                                       A6068807C                                
ID FAMCHA000702133309133314000005Generic ID - Couch 1                                                                                                                                           
PROFAMCHA000702133314133319000005CC Disclaimer (oct) **DO NOT USE**                                                                                                                             
PGRFAMCHA000702133319135623002304Disney Presents Bill Nye the Science Guy          Marine Mammals                                                       60686110CC                              
ID FAMCHA000702135623135628000005Generic ID - Fingerpaint                                                                                                                                       
PROFAMCHA000702135628135658000030Honey, I Shrunk the Kids (JUL) - Tonight @ 8pm                                                                                                                 
PROFAMCHA000702135658135750000052Great African Wildlife Rescue - Next on Family                                                                                                                 
PRCFAMCHA000702135750135820000030Funshine Tour - Generic Event Promo                                                                                                                            
PRCFAMCHA000702135820135900000040Funshine Tour - Location Spot #1-7 (JUN26-JUL02)                                                                                                               
ID FAMCHA000702135900135909000009URL(1) - CONTESTS                                                                                                                                              
PROFAMCHA000702135909135939000030My Girl (Star) - Friday @ 8pm                                                                                                                                  
ID FAMCHA000702135939140000000021Prime time open count down                                                                                                                                     
PGRFAMCHA000702140000142413002413Great African Wildlife Rescue; The                Experience of a Lifetime - White Rhino                               60688110                                
ID FAMCHA000702142413142423000010Generic ID - soccer **DO NOT USE**                                                                                                                             
PROFAMCHA000702142423142453000030Lucas (JUL) - Saturday @ 12pm                                                                                                                                  
PROFAMCHA000702142453142533000040Microsoap - Next (MAR)**DO NOT USE**                                                                                                                           
PROFAMCHA000702142533142614000041Honey I Shrunk the Kids (series oct) tonight @ 7pm                                                                                                             
PGRFAMCHA000702142614142824000210Music Break - Sebastian's Party Gras: Iko Iko                                                                          60686130                                
PRCFAMCHA000702142824142859000035Misguided Angels - Monday & Thursday @ 6:45pm (MAR                                                                                                             
PROFAMCHA000702142859142929000030Honey, I Shrunk the Kids (JUL) - Tonight @ 8pm                                                                                                                 
PRCFAMCHA000702142929142939000010Morning Block menu background (flex time)                                                                                                                      
ID FAMCHA000702142939143000000021Prime time open count down                                                                                                                                     
PGRFAMCHA000702143000145402002402Microsoap                                         1-006                                                                6068607A                                
ID FAMCHA000702145402145412000010Generic ID - confetti                                                                                                                                          
PROFAMCHA000702145412145442000030Honey, I Shrunk the Kids (JUL) - Tonight @ 8pm                                                                                                                 
PRCFAMCHA000702145442145517000035Misguided Angels - Monday & Thursday @ 6:45pm (MAR                                                                                                             
PGRFAMCHA000702145517145848000331MV Disney - Baby Mine (Alison Krauss)                                                                                  60688130                                
PROFAMCHA000702145848145920000032Sherlock Holmes - Today @ 5:30pm (oct)                                                                                                                         
PROFAMCHA000702145920145950000030My Girl (Star) - Friday @ 8pm                                                                                                                                  
ID FAMCHA000702145950150000000010Magic of Disney - V3(water) - TEEN FEMALE                                                                                                                      
PROFAMCHA000702150000150005000005CC Disclaimer (oct) **DO NOT USE**                                                                                                                             
PGRFAMCHA000702150005152248002243Disney's Aladdin                                  The Way We War                                                       6068607ECC                              
ID FAMCHA000702152248152255000007Generic ID - Whisper                                                                                                                                           
PROFAMCHA000702152255152325000030Lucas (JUL) - Saturday @ 12pm                                                                                                                                  
PROFAMCHA000702152325152400000035Lion King's Timon & Pumbaa - next (OCT 1)                                                                                                                      
PROFAMCHA000702152400152422000022Mentors - Version 1 - Tonight @ 6:30pm                                                                                                                         
PRCFAMCHA000702152422152452000030Funshine Tour - Generic Event Promo                                                                                                                            
PRCFAMCHA000702152452152532000040Funshine Tour - Location Spot #1-7 (JUN26-JUL02)                                                                                                               
PGRFAMCHA000702152532152840000308Art Attack - Dalmation Dogs                                                                                            60686130                                
PROFAMCHA000702152840152910000030Adventures of Pete & Pete - Wednesday @ 6pm                                                                                                                    
PROFAMCHA000702152910152940000030Honey, I Shrunk the Kids (JUL) - Tonight @ 8pm                                                                                                                 
PRCFAMCHA000702152940152950000010Morning Block menu background (flex time)                                                                                                                      
ID FAMCHA000702152950153000000010Magic of Disney - V3(water) - TEEN MALE                                                                                                                        
PROFAMCHA000702153000153005000005CC Disclaimer (oct) **DO NOT USE**                                                                                                                             
PGRFAMCHA000702153005155249002244Lion King's Timon & Pumbaa; The                   How To Beat The High Costa Rica/Swiss Missed                         6068607ECC                              
ID FAMCHA000702155249155259000010Generic ID - Bubbles                                                                                                                                           
PROFAMCHA000702155259155329000030Honey, I Shrunk the Kids (JUL) - Tonight @ 8pm                                                                                                                 
PROFAMCHA000702155329155408000039Goof Troop - Next                                                                                                                                              
PROFAMCHA000702155408155438000030Crash Zone - Saturday & Sunday @ 6:30am (MAR)                                                                                                                  
PGRFAMCHA000702155438155812000334MV Disney - Forever and ever (preschool)                                                                               60688130                                
PROFAMCHA000702155812155907000055Generic Series Promo - Celebrate the Day w/Family                                                                                                              
PROFAMCHA000702155907155937000030My Girl (Star) - Friday @ 8pm                                                                                                                                  
PRCFAMCHA000702155937155950000013Morning Block menu background (flex time)                                                                                                                      
ID FAMCHA000702155950160000000010Magic of Disney - V2(sky) - TEEN FEMALE                                                                                                                        
PROFAMCHA000702160000160005000005CC Disclaimer (oct) **DO NOT USE**                                                                                                                             
PGRFAMCHA000702160005162253002248Goof Troop                                        Goodbye, Mr. Goofy                                                   6068607ECC                              
ID FAMCHA000702162253162303000010Generic ID - Bubbles                                                                                                                                           
PROFAMCHA000702162303162333000030Lucas (JUL) - Saturday @ 12pm                                                                                                                                  
PROFAMCHA000702162333162415000042Gargoyles - Next (MAR)                                                                                                                                         
PRCFAMCHA000702162415162448000033Hoze Houndz - Tuesday @ 6:30pm on Family (oct 1)                                                                                                               
PGRFAMCHA000702162448162829000341MV Disney - Hakuna Matata (oct)                                                                                        60688130                                
PRCFAMCHA000702162829162859000030Are You Afraid of the Dark(JAN)- Today @ 5pm                                                                                                                   
PROFAMCHA000702162859162929000030Honey, I Shrunk the Kids (JUL) - Tonight @ 8pm                                                                                                                 
PRCFAMCHA000702162929162939000010Morning Block menu background (flex time)                                                                                                                      
ID FAMCHA000702162939163000000021Prime time open count down                                                                                                                                     
PGRFAMCHA000702163000165245002245Gargoyles                                         Her Brothers Keeper                                                  6068607E                                
ID FAMCHA000702165245165300000015Generic ID - confetti                                                                                                                                          
PROFAMCHA000702165300165330000030Honey, I Shrunk the Kids (JUL) - Tonight @ 8pm                                                                                                                 
PROFAMCHA000702165330165400000030My Girl (Star) - Friday @ 8pm                                                                                                                                  
PRCFAMCHA000702165400165430000030Are You Afraid of the Dark(MAR)- Next                                                                                                                          
PRCFAMCHA000702165430165518000048Ripley's BION - Saturday @ 11am (MAR)                                                                                                                          
PRCFAMCHA000702165518165548000030Funshine Tour - Generic Event Promo                                                                                                                            
PRCFAMCHA000702165548165628000040Funshine Tour - Location Spot #1-7 (JUN26-JUL02)                                                                                                               
PGRFAMCHA000702165628165902000234MV Disney - Pocahontas 2 (oct)                                                                                         60688130                                
PROFAMCHA000702165902165929000027Recess - Weekdays @ 5:30 pm (oct1)                                                                                                                             
PRCFAMCHA000702165929165939000010Morning Block menu background (flex time)                                                                                                                      
ID FAMCHA000702165939170000000021Prime time open count down                                                                                                                                     
PROFAMCHA000702170000170005000005CC Disclaimer (oct) **DO NOT USE**                                                                                                                             
PGRFAMCHA000702170005172425002420Are You Afraid Of The Dark?                       The Tale of the Hunted                                        SR0307 1066807ACC                              
ID FAMCHA000702172425172430000005Generic ID - Fingerpaint                                                                                                                                       
PROFAMCHA000702172430172500000030Lucas (JUL) - Saturday @ 12pm                                                                                                                                  
PROFAMCHA000702172500172532000032Sherlock Holmes - Next (oct)                                                                                                                                   
PROFAMCHA000702172532172602000030So Weird - Tonight at 6:00 pm (oct1 )                                                                                                                          
PGRFAMCHA000702172602172802000200MV Disney - I'm Gonna Fly (oct)                                                                                        60688130                                
PROFAMCHA000702172802172832000030Generic Series Promo - Where the Fun Is                                                                                                                        
PROFAMCHA000702172832172859000027Recess - Weekdays @ 5:30 pm (oct1)                                                                                                                             
PROFAMCHA000702172859172929000030Honey, I Shrunk the Kids (JUL) - Tonight @ 8pm                                                                                                                 
PRCFAMCHA000702172929172939000010Morning Block menu background (flex time)                                                                                                                      
ID FAMCHA000702172939173000000021Prime time open count down                                                                                                                                     
PGRFAMCHA000702173000175214002214Sherlock Holmes In The 22nd Century               Adventure of the Second Stain                                        6068607E                                
ID FAMCHA000702175214175224000010Generic ID - confetti                                                                                                                                          
PROFAMCHA000702175224175254000030Honey, I Shrunk the Kids (JUL) - Tonight @ 8pm                                                                                                                 
PROFAMCHA000702175254175324000030So Weird - Next (oct1 )                                                                                                                                        
PROFAMCHA000702175324175346000022Mentors - Version 1 - Tonight @ 6:30pm                                                                                                                         
PGRFAMCHA000702175346175820000434MV Disney - A Dream is a Wish Your Heart Makes (oc                                                                     60688130                                
ID FAMCHA000702175820175829000009URL(1) - CONTESTS                                                                                                                                              
PROFAMCHA000702175829175910000041Honey I Shrunk the Kids (series oct) tonight @ 7pm                                                                                                             
PROFAMCHA000702175910175940000030My Girl (Star) - Friday @ 8pm                                                                                                                                  
PRCFAMCHA000702175940175950000010Morning Block menu background (flex time)                                                                                                                      
ID FAMCHA000702175950180000000010Magic of Disney - V2(sky) - TEEN MALE                                                                                                                          
PGRFAMCHA000702180000182404002404So Weird                                          Rebecca                                                              6068807A                                
ID FAMCHA000702182404182409000005Generic ID - Couch 2                                                                                                                                           
PROFAMCHA000702182409182439000030Lucas (JUL) - Saturday @ 12pm                                                                                                                                  
PROFAMCHA000702182439182501000022Mentors - Version 1 - Next on Family*                                                                                                                          
PRCFAMCHA000702182501182549000048Ripley's BION - Saturday @ 5pm (MAR)                                                                                                                           
PRCFAMCHA000702182549182619000030Funshine Tour - Generic Event Promo                                                                                                                            
PRCFAMCHA000702182619182659000040Funshine Tour - Location Spot #1-7 (JUN26-JUL02)                                                                                                               
PGRFAMCHA000702182659182823000124Bill Nye - R.E.C.Y.C.L.E                                                                                               60688130                                
PRCFAMCHA000702182823182858000035Misguided Angels - Monday & Thursday @ 6:45pm (MAR                                                                                                             
PROFAMCHA000702182858182928000030Honey, I Shrunk the Kids (JUL) - Tonight @ 8pm                                                                                                                 
PRCFAMCHA000702182928182939000011Morning Block menu background (flex time)                                                                                                                      
ID FAMCHA000702182939183000000021Prime time open count down                                                                                                                                     
PROFAMCHA000702183000183005000005CC Disclaimer (oct) **DO NOT USE**                                                                                                                             
PGRFAMCHA000702183005185316002311Mentors                                           Genius                                                        C13889 1055607ACC3                             
ID FAMCHA000702185316185326000010Generic ID - Family w/dog                                                                                                                                      
PROFAMCHA000702185326185356000030My Girl (Star) - Friday @ 8pm                                                                                                                                  
PROFAMCHA000702185356185437000041Honey I Shrunk the Kids (series oct) next                                                                                                                      
PROFAMCHA000702185437185509000032Sherlock Holmes - Monday through Thursday @ midnig                                                                                                             
PGRFAMCHA000702185509185840000331MV Disney - Baby Mine (Alison Krauss)                                                                                  60688130                                
PROFAMCHA000702185840185910000030Crash Zone - Saturday & Sunday @ 6:30am (MAR)                                                                                                                  
PROFAMCHA000702185910185940000030Honey, I Shrunk the Kids (JUL) - Tonight @ 8pm                                                                                                                 
PRCFAMCHA000702185940185950000010Morning Block menu background (flex time)                                                                                                                      
ID FAMCHA000702185950190000000010Magic of Disney - V3(water) - TEEN FEMALE                                                                                                                      
