SO FAMCHA090701043000043011000011Sign On (oct 1)                                                                                                                                                
PRCFAMCHA090701043011043020000009CC Disclaimer - FAST - Family.ca (:09-:10)                                                                                  150                                
PGRFAMCHA090701043020045655002635Katie And Orbie                                   EP: 1-011                                                     P16150A1065607ECC                              
PRCFAMCHA090701045655045706000011FJR - 02 - FRANNY'S FEET / BENJAMIN BEAR (SEPT08)                                                                           150                                
PRCFAMCHA090701045706045717000011Family Jr. Bumper - Acrobat (:10- :13) (JUL08)                                                                              150                                
PRCFAMCHA090701045717045726000009CC Disclaimer - FAST - Generic (:09-:10)                                                                                    150                                
PGRFAMCHA090701045726051956002230Franny's Feet                                     EPS # 27                                                      C23971 1065607ECC                              
PRCFAMCHA090701051956052002000006Astral ID - Family Jr. Version (MAR 2009)                                                                                   150                                
PRCFAMCHA090701052002052015000013FJR - 03 - BENJAMIN BEAR / HOZE HOUNDZ (SEPT08)                                                                             150                                
PRCFAMCHA090701052015052027000012Family Jr. Bumper - Collide (:11- :14) (JUL08)                                                                              150                                
PRCFAMCHA090701052027052036000009CC Disclaimer - FAST - Family.ca (:09-:10)                                                                                  150                                
PGRFAMCHA090701052036054306002230Secret World of Benjamin Bear, The                EP: 19                                                        C26066 1065607ECC                              
PRCFAMCHA090701054306054317000011FJR - 04 - HOZE HOUNDZ / HENRY'S WORLD (SEPT08)                                                                             150                                
PRCFAMCHA090701054317054329000012Family Jr. Bumper - Music (:11- :14) (JUL08)                                                                                150                                
PRCFAMCHA090701054329054338000009CC Disclaimer - FAST - Generic (:09-:10)                                                                                    150                                
PGRFAMCHA090701054338060616002238Hoze Houndz                                       EP: 5-056                                                     B63392A1065607ECC                              
PRCFAMCHA090701060616060622000006Astral ID - Family Jr. Version (MAR 2009)                                                                                   150                                
PRCFAMCHA090701060622060635000013FJR - 05 - HENRY'S WORLD / KING (SEPT08)                                                                                    150                                
PRCFAMCHA090701060635060650000015Family Jr. Bumper - Portal (:14- :17) (JUL08)                                                                               150                                
PRCFAMCHA090701060650060659000009CC Disclaimer - FAST - Family.ca (:09-:10)                                                                                  150                                
PGRFAMCHA090701060659063100002401Henry's World                                     EP: 2-015                                                     B81046A1065607GCC                              
PRCFAMCHA090701063100063111000011FJR - 06 - KING (SEPT08)                                                                                                    150                                
PRCFAMCHA090701063111063122000011Family Jr. Bumper - Acrobat (:10- :13) (JUL08)                                                                              150                                
PRCFAMCHA090701063122063131000009CC Disclaimer - FAST - Generic (:09-:10)                                                                                    150                                
PGRFAMCHA090701063131065401002230King                                              EP: 4-044                                                     C25350 1065607ECC                              
PRCFAMCHA090701065401065407000006Astral ID - Family Jr. Version (MAR 2009)                                                                                   150                                
PRCFAMCHA090701065407065419000012MMM - 01 - RECESS/PHINEAS (:11 - :13) (OCT08)                                                                               150                                
PRCFAMCHA090701065419065501000042Yes Way VaCay Design Your Own Game Promo 3 x Day (                                                                          150                                
PROFAMCHA090701065501065535000034Recess - HEROES (MD) - (APR06) - Coming Up Next                                                                             150                                
PROFAMCHA090701065535065554000019MadMadMornings Block Open                                                                                                   150                                
PRCFAMCHA090701065554065603000009CC Disclaimer - FAST - Generic (:09-:10)                                                                                    150                                
PGRFAMCHA090701065603071838002235Disney's Recess                                   EP: 1-047                                                            6068607ECC                              
PRCFAMCHA090701071838071850000012MMM - 02 - PHINEAS/WEEKENDERS (:11 - :13) (OCT08)                                                                           150                                
PRCFAMCHA090701071850071929000039Really Big Birthdays - September - 3-4 X Day (July                                                                          150                                
PROFAMCHA090701071929072014000045PPP DVD - Available June now (June 30 - July 5) $$                                                                          150                                
PROFAMCHA090701072014072044000030Weekenders - TISH (MMM) This Morning @ 7:50am (NOV                                                                          150                                
PROFAMCHA090701072044072055000011Kim Possible BAD GUYS (MMM) Today @ 8:20am (OCT08)                                                                          150                                
PROFAMCHA090701072055072105000010FAMJAM - Open/Close                                                                                                         150                                
PGRFAMCHA090701072105072205000100MV Disney - (MD/NS/NSW) - Jesse McCartney - Just S                                                                     60688120                                
PROFAMCHA090701072205072219000014xxFAMJAM - Close (FAMILY) xxDNUxx                                                                                           150                                
PROFAMCHA090701072219072237000018American Dragon Jake Long (MD) TRIXIE - This After                                                                          150                                
PROFAMCHA090701072237072317000040Jonas Bros Concert Exp. DVD - Available now (June                                                                           150                                
PROFAMCHA090701072317072346000029Phineas & Ferb (MMM) FREAK OUT - Coming Up Next (M                                                                          150                                
PROFAMCHA090701072346072405000019MadMadMornings Block Open                                                                                                   150                                
PRCFAMCHA090701072405072414000009CC Disclaimer - FAST - Family.ca (:09-:10)                                                                                  150                                
PGRFAMCHA090701072414074644002230Disney Phineas & Ferb                             EP: 16                                                               6068607ECC                              
PRCFAMCHA090701074644074650000006Astral ID (FEB 2009)                                                                                                        150                                
PRCFAMCHA090701074650074701000011MMM - 03 - WEEKENDERS/KIM POSSIBLE (:11 - :13) (OC                                                                          150                                
PRCFAMCHA090701074701074740000039Family Kicks NBA Contest Spot - 4 Per Day (June 13                                                                          150                                
PRCFAMCHA090701074740074753000013Family Kicks Upload Photos Bumper (After Every NBA                                                                          150                                
PROFAMCHA090701074753074826000033Recess - COOTIE SHOTS (MD) - This Morning @ 11:50a                                                                          150                                
PROFAMCHA090701074826074844000018American Dragon Jake Long (MD) TRIXIE - This After                                                                          150                                
PROFAMCHA090701074844074858000014Emperor's New School (MD) 101 - This Afternoon @ 1                                                                          150                                
PROFAMCHA090701074858074931000033Weekenders - TINO (MMM) Coming Up Next (NOV08)                                                                              150                                
PROFAMCHA090701074931075001000030Thirteenth Year - Friday Night @ 7:30pm (JUNE09)                                                                            150                                
PROFAMCHA090701075001075041000040Jonas Bros CD Blast #3 (June 23 - July 13) $$$                                                                              150                                
PROFAMCHA090701075041075100000019MadMadMornings Block Open                                                                                                   150                                
PRCFAMCHA090701075100075110000010CC Disclaimer - FAST - Family.ca (:09-:10)                                                                                  150                                
PGRFAMCHA090701075110081356002246Disney's The Weekenders                           EP: 1-027                                                           A6068607ECC                              
PRCFAMCHA090701081356081407000011MMM - 04 - KIM POSSIBLE (:11 - :13) (OCT08)                                                                                 150                                
PRCFAMCHA090701081407081505000058Yes Way VaCay July Overall Spot (June 27- July 25)                                                                          150                                
PRCFAMCHA090701081505081620000115Movie Entertainment (8)                                                                                                     150                                
PROFAMCHA090701081620081650000030Weekenders - TISH (MD) This Afternoon @ 12:40pm (N                                                                          150                                
PROFAMCHA090701081650081713000023Fillmore (MD) POLLY - This Afternoon @ 1:55pm (JUN                                                                          150                                
PROFAMCHA090701081713081730000017Replacements (MD) SHAKE IT - This Afternoon @ 3:10                                                                          150                                
PROFAMCHA090701081730081745000015Kim Possible RON POSSIBLE (MMM) Coming Up Next (OC                                                                          150                                
PROFAMCHA090701081745081804000019MadMadMornings Block Open                                                                                                   150                                
PRCFAMCHA090701081804081814000010CC Disclaimer - FAST - Generic (:09-:10)                                                                                    150                                
PGRFAMCHA090701081814084108002254Disney's Kim Possible                             EPS # 1-048                                                         A6068607ECC                              
PRCFAMCHA090701084108084114000006Astral ID (FEB 2009)                                                                                                        150                                
PRCFAMCHA090701084114084127000013FJR - 11 - IMAGINATION MOVERS/FRANNY'S FEET (JAN09                                                                          150                                
PROFAMCHA090701084127084218000051PH-D HM Superstar Summer Sundays - Starts July 5 @                                                                          150                                
PROFAMCHA090701084218084249000031Mickey Mouse Clubhouse (FJR) GENERIC 31 - This Mor                                                                          150                                
PROFAMCHA090701084249084304000015Handy Manny (FJR) TIME - This Morning @ 10:30 (JUL                                                                          150                                
PRCFAMCHA090701084304084334000030Benjamin Bear (FJR) GENERIC - This Morning @ 10:55                                                                          150                                
PROFAMCHA090701084334084404000030Imagination Movers (FJR) Coming Up Next (JAN09)                                                                             150                                
PRCFAMCHA090701084404084449000045PH-D Ontario Place 2009 - Summer Sundays (June 27                                                                           150                                
ID FAMCHA090701084449084503000014Family Jr. Block Open (:14-:17) (JUL08)                                                                                     150                                
PRCFAMCHA090701084503084512000009CC Disclaimer - FAST - Family.ca (:09-:10)                                                                                  150                                
PGRFAMCHA090701084512090913002401Disney Imagination Movers                         EP: 08                                                               6068607ACC                              
PRCFAMCHA090701090913090922000009FJR - 12 - FRANNY'S FEET/TIGGER & POOH (:09 - :12)                                                                          150                                
PROFAMCHA090701090922090931000009PH-D Promo - Ooh & Aah Web Throw - PH-D.CA                                                                                  150                                
PRCFAMCHA090701090931091006000035Franny's Feet (FJR) GENERIC - Coming Up Next (JUL0                                                                          150                                
PRCFAMCHA090701091006091051000045PH-D Ontario Place 2009 - Summer Sundays (June 27                                                                           150                                
PRCFAMCHA090701091051091103000012Family Jr. Bumper - Collide (:11- :14) (JUL08)                                                                              150                                
PRCFAMCHA090701091103091112000009CC Disclaimer - FAST - Generic (:09-:10)                                                                                    150                                
PGRFAMCHA090701091112093342002230Franny's Feet                                     EPS # 37                                                      C23971 1065607ECC                              
PRCFAMCHA090701093342093348000006Astral ID - Family Jr. Version (MAR 2009)                                                                                   150                                
PRCFAMCHA090701093348093359000011FJR - 13 - TIGGER & POOH/MICKEY MOUSE CLUBHOUSE (:                                                                          150                                
PROFAMCHA090701093359093450000051PH-D Tasty Time Morning - Premieres Saturday Morni                                                                          150                                
PROFAMCHA090701093450093507000017Mickey Mouse Clubhouse (FJR) GOOFY SELL- This Morn                                                                          150                                
PROFAMCHA090701093507093522000015Handy Manny (FJR) TIME - This Morning @ 10:30 (JUL                                                                          150                                
PROFAMCHA090701093522093607000045Tigger and Pooh (FJR) POOH SELL - Coming Up Next (                                                                          150                                
PRCFAMCHA090701093607093642000035PH-D Videoplayer Spot (Family Jr. Only)                                                                                     150                                
PRCFAMCHA090701093642093654000012Family Jr. Bumper - Music (:11- :14) (JUL08)                                                                                150                                
PRCFAMCHA090701093654093703000009CC Disclaimer - FAST - Family.ca (:09-:10)                                                                                  150                                
PGRFAMCHA090701093703100105002402Disney My Friends Tigger & Pooh                   EP: 01                                                               6068607ECC                              
PRCFAMCHA090701100105100116000011FJR - 14 - MICKEY MOUSE CLUBHOUSE/HANDY MANNY (:10                                                                          150                                
PROFAMCHA090701100116100207000051PH-D HM Superstar Summer Sundays - Starts July 5 @                                                                          150                                
PROFAMCHA090701100207100237000030Handy Manny (FJR) NEIGHBOURS - This Mornings @ 10:                                                                          150                                
PRCFAMCHA090701100237100307000030Benjamin Bear (FJR) GENERIC - This Morning @ 10:55                                                                          150                                
PROFAMCHA090701100307100322000015Mickey Mouse Clubhouse (FJR) GROOVES - Coming Up N                                                                          150                                
PRCFAMCHA090701100322100347000025PH-D Promo - Ooh & Ahh PH-D Throw 2009 - Call Your                                                                          150                                
PRCFAMCHA090701100347100402000015Family Jr. Bumper - Portal (:14- :17) (JUL08)                                                                               150                                
PRCFAMCHA090701100402100411000009CC Disclaimer - FAST - Generic (:09-:10)                                                                                    150                                
PGRFAMCHA090701100411102813002402Disney's Mickey Mouse Clubhouse                   EP: 16                                                               6068607ECC                              
PRCFAMCHA090701102813102819000006Astral ID - Family Jr. Version (MAR 2009)                                                                                   150                                
PRCFAMCHA090701102819102830000011FJR - 15 - HANDY MANNY/BENJAMIN BEAR (:10 - :13) (                                                                          150                                
PROFAMCHA090701102830102921000051PH-D Tasty Time Morning - Premieres Saturday Morni                                                                          150                                
PRCFAMCHA090701102921102951000030Benjamin Bear (FJR) GENERIC - This Morning @ 10:55                                                                          150                                
PROFAMCHA090701102951103006000015Handy Manny (FJR) TIME - Coming Up Next (JUL08)                                                                             150                                
PRCFAMCHA090701103006103017000011Family Jr. Bumper - Acrobat (:10- :13) (JUL08)                                                                              150                                
PRCFAMCHA090701103017103026000009CC Disclaimer - FAST - Family.ca (:09-:10)                                                                                  150                                
PGRFAMCHA090701103026105431002405Handy Manny                                       EP: 23                                                               6068607ECC                              
PRCFAMCHA090701105431105442000011FJR - 16 - BENJAMIN BEAR/KING (:10 - :13) (JULY08)                                                                          150                                
PRCFAMCHA090701105442105527000045PH-D Ontario Place 2009 - Summer Sundays (June 27                                                                           150                                
PROFAMCHA090701105527105557000030Handy Manny (FJR) NEIGHBOURS - NEW EPS Friday Morn                                                                          150                                
PRCFAMCHA090701105557105627000030Benjamin Bear (FJR) GENERIC - Coming Up Next (JUL0                                                                          150                                
PROFAMCHA090701105627105657000030PH-D Promo - Ooh & Aah.Ca Throw 08 - PH-D.CA                                                                                150                                
PRCFAMCHA090701105657105709000012Family Jr. Bumper - Collide (:11- :14) (JUL08)                                                                              150                                
PRCFAMCHA090701105709105718000009CC Disclaimer - FAST - Generic (:09-:10)                                                                                    150                                
PGRFAMCHA090701105718111948002230Secret World of Benjamin Bear, The                EP: 22                                                        C26066 1065607ECC                              
PRCFAMCHA090701111948111954000006Astral ID - Family Jr. Version (MAR 2009)                                                                                   150                                
PRCFAMCHA090701111954112004000010FJR - 13 - KING/RECESS (:09 - :12) (JULY08)                                                                                 150                                
PROFAMCHA090701112004112055000051PH-D HM Superstar Summer Sundays - Starts July 5 @                                                                          150                                
PROFAMCHA090701112055112125000030Imagination Movers (FJR) Weekday Mornings @ 8:45am                                                                          150                                
PRCFAMCHA090701112125112210000045Franny's Feet (FJR) PERFECT 10 - Weekday Mornings                                                                           150                                
PROFAMCHA090701112210112255000045Tigger and Pooh (FJR) TIGGER SELL - Weekday Mornin                                                                          150                                
PROFAMCHA090701112255112325000030Handy Manny (FJR) HOP UP/JUMP IN 30 - New Eps Frid                                                                          150                                
PRCFAMCHA090701112325112405000040King (FJR) GUS - Coming Up Next (JUNE09)                                                                                    150                                
PRCFAMCHA090701112405112450000045PH-D Ontario Place 2009 - Summer Sundays (June 27                                                                           150                                
PRCFAMCHA090701112450112502000012Family Jr. Bumper - Music (:11- :14) (JUL08)                                                                                150                                
PRCFAMCHA090701112502112511000009CC Disclaimer - FAST - Family.ca (:09-:10)                                                                                  150                                
PGRFAMCHA090701112511114741002230King                                              EPS # 036                                                     C25350 1065607ECC                              
PRCFAMCHA090701114741114752000011YES WAY MD - 01 - RECESS/KIM (:10 - :12) (JUNE09)                                                                           150                                
PROFAMCHA090701114752114804000012Kim Possible BAD GUYS (MD) Tomorrow Afternoon @ 12                                                                          150                                
PROFAMCHA090701114804114818000014American Dragon Jake Long (MD) JAKE - This Afterno                                                                          150                                
PROFAMCHA090701114818114843000025Recess - CAREER DAY (MD) - (JULY06) - Coming Up Ne                                                                          150                                
PROFAMCHA090701114843114900000017Mad Dash Block Open (:16-:18) APR06                                                                                         150                                
PRCFAMCHA090701114900114909000009CC Disclaimer - FAST - Generic (:09-:10)                                                                                    150                                
PGRFAMCHA090701114909121144002235Disney's Recess                                   EP: 1-044                                                            6068607ECC                              
PRCFAMCHA090701121144121150000006Astral ID (FEB 2009)                                                                                                        150                                
PRCFAMCHA090701121150121201000011YES WAY MD - 02 - KIM POSSIBLE/WEEKENDERS (:10 - :                                                                          150                                
PRCFAMCHA090701121201121240000039Really Big Birthdays - September - 3-4 X Day (July                                                                          150                                
PROFAMCHA090701121240121258000018American Dragon Jake Long (MD) TRIXIE - This After                                                                          150                                
PROFAMCHA090701121258121345000047Kim Possible MISSION (MD) Coming Up Next (JAN09)                                                                            150                                
PRCFAMCHA090701121345121354000009MD Bumper - Race Cars (:08-:10) JUNE06                                                                                      150                                
PRCFAMCHA090701121354121403000009CC Disclaimer - FAST - Family.ca (:09-:10)                                                                                  150                                
PGRFAMCHA090701121403123654002251Disney's Kim Possible                             EP: 1-013                                                           A6068607ECC                              
PRCFAMCHA090701123654123705000011YES WAY MD - 03 - WEEKENDERS/AMERICAN DRAGON (:10                                                                           150                                
PRCFAMCHA090701123705123744000039Family Kicks NBA Contest Spot - 4 Per Day (June 13                                                                          150                                
PRCFAMCHA090701123744123757000013Family Kicks Upload Photos Bumper (After Every NBA                                                                          150                                
PROFAMCHA090701123757123811000014American Dragon Jake Long (MD) JAKE - This Afterno                                                                          150                                
PROFAMCHA090701123811123844000033Weekenders - TINO (MD) Coming Up Next (NOV08)                                                                               150                                
PRCFAMCHA090701123844123900000016MD Bumper - Shopping Race (:15-:17) APR06                                                                                   150                                
PRCFAMCHA090701123900123909000009CC Disclaimer - FAST - Generic (:09-:10)                                                                                    150                                
PGRFAMCHA090701123909130201002252Disney's The Weekenders                           EP: 1-039                                                           A6068607E                                
PRCFAMCHA090701130201130207000006Astral ID (FEB 2009)                                                                                                        150                                
PRCFAMCHA090701130207130218000011YES WAY MD - 04 - AMERICAN DRAGON/EMPERORS NEW SCH                                                                          150                                
PRCFAMCHA090701130218130316000058Yes Way VaCay July Overall Spot (June 27- July 25)                                                                          150                                
PROFAMCHA090701130316130330000014Emperor's New School (MD) 101 - This Afternoon @ 1                                                                          150                                
PROFAMCHA090701130330130348000018American Dragon Jake Long (MD) TRIXIE - Coming Up                                                                           150                                
PRCFAMCHA090701130348130356000008MD Bumper - Ski Race (:07-:09) APR06                                                                                        150                                
PRCFAMCHA090701130356130406000010CC Disclaimer - FAST - Family.ca (:09-:10)                                                                                  150                                
PGRFAMCHA090701130406132642002236Disney's American Dragon: Jake Long               EP: 30                                                               6068607ECC                              
PRCFAMCHA090701132642132654000012YES WAY MD - 05 - EMPERORS NEW SCHOOL/FILLMORE (:1                                                                          150                                
PRCFAMCHA090701132654132731000037Yes Way VaCay Life W/ Derek Stunt +4 X Day - Today                                                                          150                                
PROFAMCHA090701132731132754000023Fillmore (MD) POLLY - This Afternoon @ 1:55pm (JUN                                                                          150                                
PROFAMCHA090701132754132808000014Emperor's New School (MD) 101 - Coming Up Next (JU                                                                          150                                
PROFAMCHA090701132808132838000030Thirteenth Year - Friday Night @ 7:30pm (JUNE09)                                                                            150                                
PRCFAMCHA090701132838132848000010MD Bumper - Race Cars (:08-:10) JUNE06                                                                                      150                                
PRCFAMCHA090701132848132857000009CC Disclaimer - FAST - Generic (:09-:10)                                                                                    150                                
PGRFAMCHA090701132857135133002236Disney's The Emperor's New School                 EP: 08                                                               6068807ECC                              
PRCFAMCHA090701135133135139000006Astral ID (FEB 2009)                                                                                                        150                                
PRCFAMCHA090701135139135150000011YES WAY MD - 06 - FILLMORE/THE WEEKENDERS (:10 - :                                                                          150                                
PRCFAMCHA090701135150135240000050Family Online Community Promo - 2x a Day (not in P                                                                          150                                
PROFAMCHA090701135240135327000047Kim Possible MISSION (MD) This Afternoon @ 2:45pm                                                                           150                                
PROFAMCHA090701135327135350000023Fillmore (MD) POLLY - Coming Up Next (JUNE09)                                                                               150                                
PRCFAMCHA090701135350135406000016MD Bumper - Shopping Race (:15-:17) APR06                                                                                   150                                
PRCFAMCHA090701135406135415000009CC Disclaimer - FAST - Family.ca (:09-:10)                                                                                  150                                
PGRFAMCHA090701135415141653002238Disney's Fillmore!                                EPS # 1-018                                                          6068607ECC                              
PRCFAMCHA090701141653141704000011YES WAY MD - 07 - THE WEEKENDERS/KIM POSSIBLE (:10                                                                          150                                
PRCFAMCHA090701141704141741000037Yes Way VaCay Life W/ Derek Stunt +4 X Day - Today                                                                          150                                
PROFAMCHA090701141741141812000031Weekenders - LOR (MD) Coming Up Next (JAN09)                                                                                150                                
PRCFAMCHA090701141812141850000038Family Web Player Version 2 Promo - No Tag 3/day (                                                                          150                                
PRCFAMCHA090701141850141858000008MD Bumper - Ski Race (:07-:09) APR06                                                                                        150                                
PRCFAMCHA090701141858141907000009CC Disclaimer - FAST - Family.ca (:09-:10)                                                                                  150                                
PGRFAMCHA090701141907144139002232Disney's The Weekenders                           EP: 1-021                                                           A6068607ECC                              
PRCFAMCHA090701144139144145000006Astral ID (FEB 2009)                                                                                                        150                                
PRCFAMCHA090701144145144156000011YES WAY MD - 08 - KIM POSSIBLE/THE REPLACEMENTS (:                                                                          150                                
PRCFAMCHA090701144156144235000039Really Big Birthdays - September - 3-4 X Day (July                                                                          150                                
PROFAMCHA090701144235144320000045Kellogg's Froot Loops Golden Stars Contest - (July                                                                          150                                
PROFAMCHA090701144320144334000014Emperor's New School (MD) 101 - This Afternoon @ 3                                                                          150                                
PROFAMCHA090701144334144351000017Kim Possible WHEELS (MD) Coming Up Next (JULY08)                                                                            150                                
PRCFAMCHA090701144351144400000009MD Bumper - Race Cars (:08-:10) JUNE06                                                                                      150                                
PRCFAMCHA090701144400144409000009CC Disclaimer - FAST - Generic (:09-:10)                                                                                    150                                
PGRFAMCHA090701144409150700002251Disney's Kim Possible                             EPS # 1-023                                                         A6068607ECC                              
PRCFAMCHA090701150700150711000011YES WAY MD - 09 - THE REPLACEMENTS/EMPEROR'S NEW S                                                                          150                                
PRCFAMCHA090701150711150748000037Yes Way VaCay Life W/ Derek Stunt +4 X Day - Today                                                                          150                                
PROFAMCHA090701150748150833000045PPP DVD - Available June now (June 30 - July 5) $$                                                                          150                                
PROFAMCHA090701150833150847000014Emperor's New School (MD) 101 - This Afternoon @ 3                                                                          150                                
PROFAMCHA090701150847150913000026Recess - CAREER DAY (MD) - This Afternoon @ 4:10pm                                                                          150                                
PROFAMCHA090701150913150925000012Family Bumpers - (Phase 1 Spring 04) - Picnic (MD-                                                                          150                                
PROFAMCHA090701150925150955000030Thirteenth Year - Friday Night @ 7:30pm (JUNE09)                                                                            150                                
PROFAMCHA090701150955151012000017Replacements (MD) SHAKE IT - Coming Up Next (JUNE0                                                                          150                                
PROFAMCHA090701151012151052000040Jonas Bros Concert Exp. DVD - Available now (June                                                                           150                                
PRCFAMCHA090701151052151134000042Yes Way VaCay Design Your Own Game Promo 3 x Day (                                                                          150                                
PRCFAMCHA090701151134151150000016MD Bumper - Shopping Race (:15-:17) APR06                                                                                   150                                
PRCFAMCHA090701151150151159000009CC Disclaimer - FAST - Family.ca (:09-:10)                                                                                  150                                
PGRFAMCHA090701151159153429002230The Replacements                                  EP: 03                                                               6068607ECC                              
PRCFAMCHA090701153429153435000006Astral ID (FEB 2009)                                                                                                        150                                
PRCFAMCHA090701153435153446000011YES WAY MD - 10 - EMPEROR'S NEW SCHOOL/RECESS (:10                                                                          150                                
PRCFAMCHA090701153446153525000039Family Kicks NBA Contest Spot - 4 Per Day (June 13                                                                          150                                
PRCFAMCHA090701153525153538000013Family Kicks Upload Photos Bumper (After Every NBA                                                                          150                                
PROFAMCHA090701153538153623000045Mitchel Musso CD - Walmart Family Favourites (June                                                                          150                                
PROFAMCHA090701153623153656000033Recess - COOTIE SHOTS (MD) - This Afternoon @ 4:10                                                                          150                                
PROFAMCHA090701153656153743000047Kim Possible MISSION (MD) Tomorrow Afternoon @ 12:                                                                          150                                
PRCFAMCHA090701153743153858000115Movie Entertainment (8)                                                                                                     150                                
PROFAMCHA090701153858153938000040Family Playlist (June 23 - Aug 17) $$$                                                                                      150                                
PROFAMCHA090701153938153952000014Emperor's New School (MD) 101 - Coming Up Next (JU                                                                          150                                
PRCFAMCHA090701153952154000000008MD Bumper - Ski Race (:07-:09) APR06                                                                                        150                                
PRCFAMCHA090701154000154009000009CC Disclaimer - FAST - Generic (:09-:10)                                                                                    150                                
PGRFAMCHA090701154009160245002236Disney's The Emperor's New School                 EP: 07                                                               6068807ECC                              
PRCFAMCHA090701160245160343000058Yes Way VaCay July Overall Spot (June 27- July 25)                                                                          150                                
PROFAMCHA090701160343160428000045Kellogg's Froot Loops Golden Stars Contest - (July                                                                          150                                
PROFAMCHA090701160428160447000019Phineas & Ferb (MMM) Isabella Tease - Tomorrow Mor                                                                          150                                
PROFAMCHA090701160447160520000033Weekenders - TINO (MMM) Tomorrow Morning @ 7:50am                                                                           150                                
PROFAMCHA090701160520160534000014American Dragon Jake Long (MD) JAKE - Tomorrow Aft                                                                          150                                
PROFAMCHA090701160534160557000023Fillmore (MD) POLLY - Tomorrow Afternoon @ 1:55pm                                                                           150                                
PROFAMCHA090701160557160631000034Recess - HEROES (MD) - (APR06) - Coming Up Next                                                                             150                                
PROFAMCHA090701160631160711000040Jonas Bros CD Blast #3 (June 23 - July 13) $$$                                                                              150                                
PRCFAMCHA090701160711160748000037Yes Way VaCay Life W/ Derek Stunt +4 X Day - Today                                                                          150                                
PRCFAMCHA090701160748160757000009MD Bumper - Race Cars (:08-:10) JUNE06                                                                                      150                                
PRCFAMCHA090701160757160806000009CC Disclaimer - FAST - Family.ca (:09-:10)                                                                                  150                                
PGRFAMCHA090701160806163040002234Disney's Recess                                   EP: 1-006                                                            6068607ECC                              
PRCFAMCHA090701163040163046000006Astral ID (FEB 2009)                                                                                                        150                                
PRCFAMCHA090701163046163116000030Latest Buzz - LOCO (NS) Tonight @ 8:30pm (JAN09)                                                                            150                                
PROFAMCHA090701163116163201000045Ice Age Dawn Of The Dinosaurs Contest - In Theatre                                                                          150                                
PROFAMCHA090701163201163248000047Wizards of Waverly Place BOXING (NS) Tonight @ 9pm                                                                          150                                
PROFAMCHA090701163248163318000030Zoey 101 - ANGELS (NS) Tomorrow Night @ 6pm (JAN09                                                                          150                                
PROFAMCHA090701163318163357000039JONAS PREMISE SELL (YWVC) - NEW EPS - Friday Night                                                                          150                                
PROFAMCHA090701163357163425000028Suite Life on Deck ID 2 - Weekend Afternoons @ 3:5                                                                          150                                
PROFAMCHA090701163425163505000040Demi Lovato CD Blast (Oct 21- Dec 15)(june19-july6                                                                          150                                
PRCFAMCHA090701163505163542000037Yes Way VaCay Life W/ Derek Stunt +4 X Day - Today                                                                          150                                
PROFAMCHA090701163542163559000017Nonstop Block Open (:16-:18) APR06                                                                                          150                                
PRCFAMCHA090701163559163609000010CC Disclaimer - FAST - Generic (:09-:10)                                                                                    150                                
PGRFAMCHA090701163609165839002230Life with Derek                                   EP: 08                                                        C23968A1065607BCC                              
PROFAMCHA090701165839165917000038Hannah Montana Two Parter Special  - Premiering Ju                                                                          150                                
PROFAMCHA090701165917170002000045PPP DVD - Available June now (June 30 - July 5) $$                                                                          150                                
PROFAMCHA090701170002170023000021Wizards of Waverly Place LAMP (NS) Tonight @ 9pm (                                                                          150                                
PROFAMCHA090701170023170033000010FAMJAM - Open/Close                                                                                                         150                                
PGRFAMCHA090701170033170203000130MV Disney - (MD/NS/NSW) - Jesse McCartney - Just S                                                                     60688120                                
PROFAMCHA090701170203170217000014xxFAMJAM - Close (FAMILY) xxDNUxx                                                                                           150                                
PROFAMCHA090701170217170247000030Thirteenth Year - Friday Night @ 7:30pm (JUNE09)                                                                            150                                
PROFAMCHA090701170247170327000040Jonas Bros Concert Exp. DVD - Available now (June                                                                           150                                
PRCFAMCHA090701170327170404000037Yes Way VaCay Life W/ Derek Stunt +4 X Day - Conti                                                                          150                                
PRCFAMCHA090701170404170413000009NS Bumper - Dodgeball (:07-:09) APR06                                                                                       150                                
PRCFAMCHA090701170413170422000009CC Disclaimer - FAST - Generic (:09-:10)                                                                                    150                                
PGRFAMCHA090701170422172652002230Life with Derek                                   EP: 13                                                        C23968A1065607BCC                              
PRCFAMCHA090701172652172658000006Astral ID (FEB 2009)                                                                                                        150                                
PRCFAMCHA090701172658172736000038FOD - Family On Demand - Generic - Check you local                                                                          150                                
PROFAMCHA090701172736172816000040Jonas Bros CD Blast #3 (June 23 - July 13) $$$                                                                              150                                
PROFAMCHA090701172816172846000030Wizards of Waverly Place METRIC SYSTEM (NS) Tonigh                                                                          150                                
PROFAMCHA090701172846172927000041Ned's DSSG (NS) COOKIE - Tonight @ 10pm (JAN09)                                                                             150                                
PROFAMCHA090701172927172959000032Hannah Montana - SWEET 16 (NS) NEW EPS - Friday Af                                                                          150                                
PROFAMCHA090701172959173038000039JONAS PREMISE SELL (YWVC) - NEW EPS - Friday Night                                                                          150                                
PROFAMCHA090701173038173118000040Family Playlist (June 23 - Aug 17) $$$                                                                                      150                                
PRCFAMCHA090701173118173155000037Yes Way VaCay Life W/ Derek Stunt +4 X Day - Conti                                                                          150                                
PRCFAMCHA090701173155173202000007YES WAY Bumper - Soccer (JUNE09)                                                                                            150                                
PRCFAMCHA090701173202173212000010CC Disclaimer - FAST - Generic (:09-:10)                                                                                    150                                
PGRFAMCHA090701173212175442002230Life with Derek                                   EP: 18                                                        C26679A1065607BCC                              
PRCFAMCHA090701175442175524000042Yes Way VaCay Design Your Own Game Promo 3 x Day (                                                                          150                                
PROFAMCHA090701175524175609000045Mitchel Musso CD - Walmart Family Favourites (June                                                                          150                                
PROFAMCHA090701175609175641000032Hannah Montana - SWEET 16 (NS) NEW EPS - Friday Af                                                                          150                                
PRCFAMCHA090701175641175756000115Movie Entertainment (8)                                                                                                     150                                
PROFAMCHA090701175756175826000030Thirteenth Year - Friday Night @ 7:30pm (JUNE09)                                                                            150                                
PROFAMCHA090701175826175911000045Ice Age Dawn Of The Dinosaurs Contest - In Theatre                                                                          150                                
PRCFAMCHA090701175911175948000037Yes Way VaCay Life W/ Derek Stunt +4 X Day - Conti                                                                          150                                
PRCFAMCHA090701175948180001000013NS Bumper - Fashion (:12-:14) JUNE06                                                                                        150                                
PRCFAMCHA090701180001180010000009CC Disclaimer - FAST - Generic (:09-:10)                                                                                    150                                
PGRFAMCHA090701180010182240002230Life with Derek                                   EP: 23                                                        C26679 1065607BCC                              
PRCFAMCHA090701182240182246000006Astral ID (FEB 2009)                                                                                                        150                                
PRCFAMCHA090701182246182325000039Family Kicks NBA Contest Spot - 4 Per Day (June 13                                                                          150                                
PRCFAMCHA090701182325182338000013Family Kicks Upload Photos Bumper (After Every NBA                                                                          150                                
PROFAMCHA090701182338182424000046Ice Age Dawn Of The Dinosaurs Contest - In Theatre                                                                          150                                
PROFAMCHA090701182424182454000030Wizards of Waverly Place METRIC SYSTEM (NS) Tonigh                                                                          150                                
PROFAMCHA090701182454182504000010FAMJAM - Open/Close                                                                                                         150                                
PGRFAMCHA090701182504182804000300MV Disney - (MD/NS/NSW) - Jesse McCartney - Just S                                                                     60688120                                
PROFAMCHA090701182804182818000014xxFAMJAM - Close (FAMILY) xxDNUxx                                                                                           150                                
PROFAMCHA090701182818182855000037That's So Raven DANCE (NSW) Weekend Mornings @ 9:3                                                                          150                                
PROFAMCHA090701182855182935000040Demi Lovato CD Blast (Oct 21- Dec 15)(june19-july6                                                                          150                                
PRCFAMCHA090701182935183012000037Yes Way VaCay Life W/ Derek Stunt +4 X Day - Conti                                                                          150                                
PRCFAMCHA090701183012183018000006YES WAY Bumper - Bleachers (JUNE09)                                                                                         150                                
PRCFAMCHA090701183018183028000010CC Disclaimer - FAST - Generic (:09-:10)                                                                                    150                                
PGRFAMCHA090701183028185258002230Life with Derek                                   EP: 10                                                        C26822 1055607BCC3                             
PRCFAMCHA090701185258185356000058Yes Way VaCay July Overall Spot (June 27- July 25)                                                                          150                                
PROFAMCHA090701185356185441000045Kellogg's Froot Loops Golden Stars Contest - (July                                                                          150                                
PROFAMCHA090701185441185450000009Family Bumpers - (Phase 2 F/W 04) - Skateboard (MD                                                                          150                                
PRCFAMCHA090701185450185510000020Latest Buzz - SIZZLE (NS) Tonight @ 8:30pm (JAN09)                                                                          150                                
PROFAMCHA090701185510185520000010FAMJAM - Open/Close                                                                                                         150                                
PGRFAMCHA090701185520185854000334MV Disney - (MD/NS/NSW) - Jesse McCartney - Just S                                                                     60688120                                
PROFAMCHA090701185854185908000014xxFAMJAM - Close (FAMILY) xxDNUxx                                                                                           150                                
PRCFAMCHA090701185908185945000037Yes Way VaCay Life W/ Derek Stunt +4 X Day - Conti                                                                          150                                
PRCFAMCHA090701185945190001000016NS Bumper - Tennis (:15-:17) APR06                                                                                          150                                
PRCFAMCHA090701190001190010000009CC Disclaimer - FAST - Generic (:09-:10)                                                                                    150                                
PGRFAMCHA090701190010192240002230Life with Derek                                   EP: 14                                                        C26822 1055607BCC3                             
PRCFAMCHA090701192240192246000006Astral ID (FEB 2009)                                                                                                        150                                
PROFAMCHA090701192246192324000038Hannah Montana Two Parter Special  - Premiering Ju                                                                          150                                
PROFAMCHA090701192324192404000040Family Playlist (June 23 - Aug 17) $$$                                                                                      150                                
PROFAMCHA090701192404192429000025Wizards of Waverly Place HOODIE (NS) Tonight @ 9pm                                                                          150                                
PROFAMCHA090701192429192512000043Ned's DSSG (NS) Too Cool for School  - Tonight @ 1                                                                          150                                
PROFAMCHA090701192512192522000010FAMJAM - Open/Close                                                                                                         150                                
PGRFAMCHA090701192522192746000224MV Disney - (MD/NS/NSW) - Jesse McCartney - Just S                                                                     20688120                                
PROFAMCHA090701192746192800000014xxFAMJAM - Close (FAMILY) xxDNUxx                                                                                           150                                
PROFAMCHA090701192800192839000039JONAS PREMISE SELL (YWVC) - NEW EPS - Friday Night                                                                          150                                
PROFAMCHA090701192839192924000045Mitchel Musso CD - Walmart Family Favourites (June                                                                          150                                
PRCFAMCHA090701192924193001000037Yes Way VaCay Life W/ Derek Stunt +4 X Day - Conti                                                                          150                                
PRCFAMCHA090701193001193009000008NS Bumper - Dodgeball (:07-:09) APR06                                                                                       150                                
PRCFAMCHA090701193009193019000010CC Disclaimer - FAST - Generic (:09-:10)                                                                                    150                                
PGRFAMCHA090701193019195250002231Life With Derek IV (eps 53-70)                    EP: 17                                                        C24891 1055607BCC3                             
PROFAMCHA090701195250195328000038Hannah Montana Two Parter Special  - Premiering Ju                                                                          150                                
PROFAMCHA090701195328195414000046Ice Age Dawn Of The Dinosaurs Contest - In Theatre                                                                          150                                
PROFAMCHA090701195414195501000047Wizards of Waverly Place BOXING (NS) Tonight @ 9pm                                                                          150                                
PRCFAMCHA090701195501195616000115Movie Entertainment (8)                                                                                                     150                                
PROFAMCHA090701195616195655000039JONAS PREMISE SELL (YWVC) - NEW EPS - Friday Night                                                                          150                                
PROFAMCHA090701195655195705000010FAMJAM - Open/Close                                                                                                         150                                
PGRFAMCHA090701195705195805000100MV Disney - (MD/NS/NSW) - Jesse McCartney - Just S                                                                     60688120                                
PROFAMCHA090701195805195819000014xxFAMJAM - Close (FAMILY) xxDNUxx                                                                                           150                                
PROFAMCHA090701195819195849000030Thirteenth Year - Friday Night @ 7:30pm (JUNE09)                                                                            150                                
PROFAMCHA090701195849195929000040Demi Lovato CD Blast (Oct 21- Dec 15)(june19-july6                                                                          150                                
PRCFAMCHA090701195929200006000037Yes Way VaCay Life W/ Derek Stunt +4 X Day - Conti                                                                          150                                
PRCFAMCHA090701200006200016000010YES WAY Bumper - Chalk Art (JUNE09)                                                                                         150                                
PRCFAMCHA090701200016200026000010CC Disclaimer - FAST - Generic (:09-:10)                                                                                    150                                
PGRFAMCHA090701200026202256002230Life With Derek IV (eps 53-70)                    EP: 18                                                        C24891 1055607BCC3                             
PRCFAMCHA090701202256202302000006Astral ID (FEB 2009)                                                                                                        150                                
PRCFAMCHA090701202302202313000011YES WAY NS - 06 - THE LATEST BUZZ/WIZARDS OF WAVER                                                                          150                                
PRCFAMCHA090701202313202351000038FOD - Family On Demand - Generic - Check you local                                                                          150                                
PROFAMCHA090701202351202436000045PPP DVD - Available June now (June 30 - July 5) $$                                                                          150                                
PROFAMCHA090701202436202457000021Wizards of Waverly Place LAMP (NS) Tonight @ 9pm (                                                                          150                                
PROFAMCHA090701202457202507000010FAMJAM - Open/Close                                                                                                         150                                
PGRFAMCHA090701202507202607000100MV Disney - (MD/NS/NSW) - Jesse McCartney - Just S                                                                     60688120                                
PROFAMCHA090701202607202621000014xxFAMJAM - Close (FAMILY) xxDNUxx                                                                                           150                                
PROFAMCHA090701202621202653000032Hannah Montana - SWEET 16 (NS) NEW EPS - Friday Af                                                                          150                                
PROFAMCHA090701202653202726000033Sonny With A Chance PREMISE PROMO (NS) - Friday Ni                                                                          150                                
PRCFAMCHA090701202726202816000050Latest Buzz - REPORTER QUIZ (NS) Coming Up Next (M                                                                          150                                
PROFAMCHA090701202816202856000040Jonas Bros Concert Exp. DVD - Available now (June                                                                           150                                
PRCFAMCHA090701202856202954000058Yes Way VaCay July Overall Spot (June 27- July 25)                                                                          150                                
PRCFAMCHA090701202954203006000012NS Bumper - Fashion (:12-:14) JUNE06                                                                                        150                                
PRCFAMCHA090701203006203015000009CC Disclaimer - FAST - Generic (:09-:10)                                                                                    150                                
PGRFAMCHA090701203015205250002235Latest Buzz, The                                  EP: 12                                                        C29140 1055607BCC3                             
PRCFAMCHA090701205250205301000011YES WAY NS - 07 - WIZARDS OF WAVERLY/LIFE WITH DER                                                                          150                                
PRCFAMCHA090701205301205340000039Really Big Birthdays - September - 3-4 X Day (July                                                                          150                                
PROFAMCHA090701205340205420000040Jonas Bros CD Blast #3 (June 23 - July 13) $$$                                                                              150                                
PRCFAMCHA090701205420205512000052Life With Derek (NS) Casey & Derek - Tonight @ 9:3                                                                          150                                
PROFAMCHA090701205512205522000010FAMJAM - Open/Close                                                                                                         150                                
PGRFAMCHA090701205522205822000300MV Disney - (MD/NS/NSW) - Jesse McCartney - Just S                                                                     60688120                                
PROFAMCHA090701205822205836000014xxFAMJAM - Close (FAMILY) xxDNUxx                                                                                           150                                
PROFAMCHA090701205836205851000015Sonny With A Chance SO RANDOM (NS) - Friday Nights                                                                          150                                
PROFAMCHA090701205851205921000030Wizards of Waverly Place METRIC SYSTEM (NS) Coming                                                                          150                                
PRCFAMCHA090701205921210003000042Yes Way VaCay Design Your Own Game Promo 3 x Day (                                                                          150                                
PRCFAMCHA090701210003210010000007YES WAY Bumper - School Door (JUNE09)                                                                                       150                                
PRCFAMCHA090701210010210020000010CC Disclaimer - SLOW - Family.ca (:09-:10)                                                                                  150                                
PGRFAMCHA090701210020212251002231Disney Wizards of Waverly Place                   EP: 11                                                               6068607BCC                              
PRCFAMCHA090701212251212257000006Astral ID (FEB 2009)                                                                                                        150                                
PRCFAMCHA090701212257212309000012YES WAY NS - 08 - LIFE WITH DEREK (:10 - :12) (JUN                                                                          150                                
PRCFAMCHA090701212309212348000039Family Kicks NBA Contest Spot - 4 Per Day (June 13                                                                          150                                
PRCFAMCHA090701212348212401000013Family Kicks Upload Photos Bumper (After Every NBA                                                                          150                                
PROFAMCHA090701212401212442000041Ned's DSSG (NS) COOKIE - Tonight @ 10pm (JAN09)                                                                             150                                
PROFAMCHA090701212442212542000100Cory In The House - Cory vs. Sophie (NS) Tonight @                                                                          150                                
PROFAMCHA090701212542212552000010FAMJAM - Open/Close                                                                                                         150                                
PGRFAMCHA090701212552212754000202MV NON-DISNEY (MD/NS/NSW) - Roxy Hunter - I'll Fig                                                                     20688120                                
PROFAMCHA090701212754212808000014xxFAMJAM - Close (FAMILY) xxDNUxx                                                                                           150                                
PROFAMCHA090701212808212840000032Sonny With A Chance TEASE PROMO (NS) - Friday Nigh                                                                          150                                
PROFAMCHA090701212840212910000030Thirteenth Year - Friday Night @ 7:30pm (JUNE09)                                                                            150                                
PRCFAMCHA090701212910212953000043Life W Derek (NS) Trailer Generic - Coming Up Next                                                                          150                                
PRCFAMCHA090701212953213009000016NS Bumper - Tennis (:15-:17) APR06                                                                                          150                                
PRCFAMCHA090701213009213018000009CC Disclaimer - FAST - Generic (:09-:10)                                                                                    150                                
PGRFAMCHA090701213018215248002230Life with Derek                                   EP: 12                                                        C23968A1065607BCC                              
PRCFAMCHA090701215248215259000011NS - 09 - NEDS/CORY IN THE HOUSE (:11 - :13) (SEPT                                                                          150                                
PRCFAMCHA090701215259215337000038Family Web Player Version 2 Promo - No Tag 3/day (                                                                          150                                
PROFAMCHA090701215337215351000014Cory In The House (NS) NEWT - Tonight @ 10:30pm (J                                                                          150                                
PROFAMCHA090701215351215401000010FAMJAM - Open/Close                                                                                                         150                                
PGRFAMCHA090701215401215737000336MV Disney - (MD/NS/NSW) - Jesse McCartney - Just S                                                                     60688120                                
PROFAMCHA090701215737215751000014xxFAMJAM - Close (FAMILY) xxDNUxx                                                                                           150                                
PROFAMCHA090701215751215830000039JONAS PREMISE SELL (YWVC) - NEW EPS - Friday Night                                                                          150                                
PROFAMCHA090701215830215913000043Ned's DSSG (NS) Too Cool for School  - Coming Up N                                                                          150                                
PROFAMCHA090701215913215951000038Hannah Montana Two Parter Special  - Premiering Ju                                                                          150                                
PRCFAMCHA090701215951220000000009NS Bumper - Dodgeball (:07-:09) APR06                                                                                       150                                
PRCFAMCHA090701220000220009000009CC Disclaimer - SLOW - Family.ca (:09-:10)                                                                                  150                                
PGRFAMCHA090701220009222435002426Ned's Declassified School Survival Guide          EPS # 11                                                             2068807BCC                              
PRCFAMCHA090701222435222441000006Astral ID (FEB 2009)                                                                                                        150                                
PRCFAMCHA090701222441222452000011NS - 10 - CORY IN THE HOUSE/SUITE LIFE (:11 - :13)                                                                          150                                
PRCFAMCHA090701222452222542000050Family Online Community Promo - 2x a Day (not in P                                                                          150                                
PROFAMCHA090701222542222639000057Suite Life of Z & C FABULOUS LIFESTYLES (NS) Tonig                                                                          150                                
PRCFAMCHA090701222639222754000115Movie Entertainment (8)                                                                                                     150                                
PRCFAMCHA090701222754222823000029Naturally Sadie - CLIP (NS) Tonight @ 12:00am (MAY                                                                          150                                
PROFAMCHA090701222823222923000100Sonny With A Chance OVERALL PROMO (NS) - Friday Ni                                                                          150                                
PROFAMCHA090701222923222956000033Cory In The House (NS) WHAT THEY'RE SAYING - Comin                                                                          150                                
PRCFAMCHA090701222956223003000007YES WAY Bumper - Soccer (JUNE09)                                                                                            150                                
PRCFAMCHA090701223003223013000010CC Disclaimer - SLOW - Generic (:09 -:10)                                                                                   150                                
PGRFAMCHA090701223013223307000254Disney Cory in the House                          EP: 03                                                               6068607BCC                              
PGRFAMCHA090701223307223937000630Disney Cory in the House                          EP: 03                                                               6068607BCC                              
PGRFAMCHA090701223937225048001111Disney Cory in the House                          EP: 03                                                               6068607BCC                              
PGRFAMCHA090701225048225244000156Disney Cory in the House                          EP: 03                                                               6068607BCC                              
PRCFAMCHA090701225244225256000012NS - 11 - SUITE LIFE/LIFE WITH DEREK (:11 - :13) (                                                                          150                                
PRCFAMCHA090701225256225354000058Yes Way VaCay July Overall Spot (June 27- July 25)                                                                          150                                
PRCFAMCHA090701225354225454000100Movie Entertainment (8)                                                                                                     150                                
PRCFAMCHA090701225454225532000038Life W D (NS) Edwin Mystery Man - Tonight @ 11:30p                                                                          150                                
PROFAMCHA090701225532225542000010FAMJAM - Open/Close                                                                                                         150                                
PGRFAMCHA090701225542225806000224MV Disney - (MD/NS/NSW) - Jesse McCartney - Just S                                                                     20688120                                
PROFAMCHA090701225806225820000014xxFAMJAM - Close (FAMILY) xxDNUxx                                                                                           150                                
PROFAMCHA090701225820225859000039JONAS PREMISE SELL (YWVC) - NEW EPS - Friday Night                                                                          150                                
PROFAMCHA090701225859225931000032Hannah Montana - SWEET 16 (NS) NEW EPS - Friday Af                                                                          150                                
PROFAMCHA090701225931230002000031Suite Life of Z & C (NS) TONY HAWK - Coming Up Nex                                                                          150                                
PRCFAMCHA090701230002230014000012NS Bumper - Fashion (:12-:14) JUNE06                                                                                        150                                
ID FAMCHA090701230014230022000008Magic of Disney - NS/NSW/PB - Shape (:06-:09)                                                                               150                                
PRCFAMCHA090701230022230031000009CC Disclaimer - SLOW - Family.ca (:09-:10)                                                                                  150                                
PGRFAMCHA090701230031232309002238Suite Life of Zack & Cody, The                    EP: 63                                                               6068607BCC                              
PRCFAMCHA090701232309232315000006Astral ID (FEB 2009)                                                                                                        150                                
PRCFAMCHA090701232315232327000012NS - 12 - LIFE WITH DEREK/SADIE (:11 - :13) (SEPT0                                                                          150                                
PRCFAMCHA090701232327232406000039Really Big Birthdays - September - 3-4 X Day (July                                                                          150                                
PROFAMCHA090701232406232416000010FAMJAM - Open/Close                                                                                                         150                                
PGRFAMCHA090701232416232803000347MV Disney - (MD/NS/NSW) - Jesse McCartney - Just S                                                                     60688120                                
PROFAMCHA090701232803232817000014xxFAMJAM - Close (FAMILY) xxDNUxx                                                                                           150                                
PRCFAMCHA090701232817232909000052Life With Derek (NS) Casey & Derek - Coming Up Nex                                                                          150                                
PROFAMCHA090701232909232947000038Hannah Montana Two Parter Special  - Premiering Ju                                                                          150                                
PRCFAMCHA090701232947232953000006YES WAY Bumper - Bleachers (JUNE09)                                                                                         150                                
PRCFAMCHA090701232953233003000010CC Disclaimer - SLOW - Generic (:09 -:10)                                                                                   150                                
PGRFAMCHA090701233003235233002230Life with Derek                                   EP: 12                                                        C26822 1065607BCC                              
PRCFAMCHA090701235233235246000013NS - 13 - SADIE/SADIE (:11 - :13) (SEPT07)                                                                                  150                                
PRCFAMCHA090701235246235328000042Yes Way VaCay Design Your Own Game Promo 3 x Day (                                                                          150                                
PROFAMCHA090701235328235345000017Zoey 101 (NS)  ZOEY, ZOEY, ZOEY - Tomorrow Night @                                                                          150                                
PROFAMCHA090701235345235410000025Wizards of Waverly Place HOODIE (NS) Tomorrow Nigh                                                                          150                                
PROFAMCHA090701235410235420000010FAMJAM - Open/Close                                                                                                         150                                
PGRFAMCHA090701235420235754000334MV Disney - (MD/NS/NSW) - Jesse McCartney - Just S                                                                     60688120                                
PROFAMCHA090701235754235808000014xxFAMJAM - Close (FAMILY) xxDNUxx                                                                                           150                                
PROFAMCHA090701235808235838000030Thirteenth Year - Friday Night @ 7:30pm (JUNE09)                                                                            150                                
PRCFAMCHA090701235838235918000040Naturally Sadie - ROMANTIC (NS) Coming Up Next (MA                                                                          150                                
PRCFAMCHA090701235918235956000038FOD - Family On Demand - Generic - Check you local                                                                          150                                
PRCFAMCHA090701235956000006000010YES WAY Bumper - Chalk Art (JUNE09)                                                                                         150                                
PRCFAMCHA090701000006000015000009CC Disclaimer - SLOW - Family.ca (:09-:10)                                                                                  150                                
PGRFAMCHA090701000015002245002230Naturally, Sadie                                  EP: 11                                                        C24010 1065607ACC                              
PRCFAMCHA090701002245002251000006Astral ID (FEB 2009)                                                                                                        150                                
PRCFAMCHA090701002251002303000012NS - 14 - SADIE/HANNAH (:11 - :13) (SEPT07)                                                                                 150                                
PRCFAMCHA090701002303002341000038Family Web Player Version 2 Promo - No Tag 3/day (                                                                          150                                
PROFAMCHA090701002341002415000034Suite Life of Z & C (NS) RHYMING - Tomorrow Night                                                                           150                                
PRCFAMCHA090701002415002545000130Movie Entertainment (8)                                                                                                     150                                
PROFAMCHA090701002545002554000009Family Bumpers - (Phase 3 Spring 05) - Hip Hop (MD                                                                          150                                
PRCFAMCHA090701002554002624000030Latest Buzz - LOCO (NS) Tomorrow Night @ 8:30pm (J                                                                          150                                
PROFAMCHA090701002624002645000021Wizards of Waverly Place LAMP (NS) Tomorrow Night                                                                           150                                
PROFAMCHA090701002645002655000010FAMJAM - Open/Close                                                                                                         150                                
PGRFAMCHA090701002655002825000130MV Disney - (MD/NS/NSW) - Jesse McCartney - Just S                                                                     60688120                                
PROFAMCHA090701002825002839000014xxFAMJAM - Close (FAMILY) xxDNUxx                                                                                           150                                
PRCFAMCHA090701002839002908000029Naturally Sadie - CLIP (NS) Coming Up Next (MARCH0                                                                          150                                
PROFAMCHA090701002908002946000038Hannah Montana Two Parter Special  - Premiering Ju                                                                          150                                
PRCFAMCHA090701002946002953000007YES WAY Bumper - School Door (JUNE09)                                                                                       150                                
PRCFAMCHA090701002953003003000010CC Disclaimer - SLOW - Generic (:09 -:10)                                                                                   150                                
PGRFAMCHA090701003003005233002230Naturally, Sadie                                  EP: 61                                                        C29639 1065607ACC                              
PRCFAMCHA090701005233005245000012NS - 15 - HANNAH/CORY (:11 - :13) (OCT08)                                                                                   150                                
PRCFAMCHA090701005245005343000058Yes Way VaCay July Overall Spot (June 27- July 25)                                                                          150                                
PRCFAMCHA090701005343005443000100Movie Entertainment (8)                                                                                                     150                                
PROFAMCHA090701005443005522000039JONAS PREMISE SELL (YWVC) - NEW EPS - Friday Night                                                                          150                                
PROFAMCHA090701005522005532000010FAMJAM - Open/Close                                                                                                         150                                
PGRFAMCHA090701005532005812000240MV Disney - (MD/NS/NSW) - Jesse McCartney - Just S                                                                     20688120                                
PROFAMCHA090701005812005826000014xxFAMJAM - Close (FAMILY) xxDNUxx                                                                                           150                                
PROFAMCHA090701005826005855000029Hannah Montana - SUPER AWESOME (NS) Coming Up Next                                                                          150                                
PRCFAMCHA090701005855005945000050Family Online Community Promo - 2x a Day (not in P                                                                          150                                
PRCFAMCHA090701005945010000000015NS Bumper - Tennis (:15-:17) APR06                                                                                          150                                
PRCFAMCHA090701010000010009000009CC Disclaimer - SLOW - Family.ca (:09-:10)                                                                                  150                                
PGRFAMCHA090701010009010536000527Hannah Montana                                    EP: 16                                                               6068807BCC                              
PGRFAMCHA090701010536011036000500Hannah Montana                                    EP: 16                                                               6068807BCC                              
PGRFAMCHA090701011036011514000438Hannah Montana                                    EP: 16                                                               6068807BCC                              
PGRFAMCHA090701011514012244000730Hannah Montana                                    EP: 16                                                               6068807BCC                              
PRCFAMCHA090701012244012250000006Astral ID (FEB 2009)                                                                                                        150                                
PRCFAMCHA090701012250012301000011NS - 16 - CORY/PHIL (:11 - :13) (OCT08)                                                                                     150                                
PRCFAMCHA090701012301012308000007NS Bumper - Dodgeball (:07-:09) APR06                                                                                       150                                
PRCFAMCHA090701012308012317000009CC Disclaimer - SLOW - Generic (:09 -:10)                                                                                   150                                
PGRFAMCHA090701012317012538000221Disney Cory in the House                          EP: 15                                                               6068607BCC                              
PGRFAMCHA090701012538013422000844Disney Cory in the House                          EP: 15                                                               6068607BCC                              
PGRFAMCHA090701013422014426001004Disney Cory in the House                          EP: 15                                                               6068607BCC                              
PGRFAMCHA090701014426014553000127Disney Cory in the House                          EP: 15                                                               6068607BCC                              
PRCFAMCHA090701014553014605000012NS - 17 - PHIL/LIZZIE (:11 - :13) (OCT08)                                                                                   150                                
PRCFAMCHA090701014605014612000007YES WAY Bumper - Soccer (JUNE09)                                                                                            150                                
ID FAMCHA090701014612014619000007Magic of Disney - NS/NSW/PB - Shape (:06-:09)                                                                               150                                
PRCFAMCHA090701014619014628000009CC Disclaimer - SLOW - Family.ca (:09-:10)                                                                                  150                                
PGRFAMCHA090701014628014842000214Phil of the Future                                EPS # 17                                                             6068607BCC                              
PGRFAMCHA090701014842015826000944Phil of the Future                                EPS # 17                                                             6068607BCC                              
PGRFAMCHA090701015826020722000856Phil of the Future                                EPS # 17                                                             6068607BCC                              
PGRFAMCHA090701020722020905000143Phil of the Future                                EPS # 17                                                             6068607BCC                              
PRCFAMCHA090701020905020911000006Astral ID (FEB 2009)                                                                                                        150                                
PRCFAMCHA090701020911020923000012NS - 18 - LIZZIE/LIFE WITH DEREK (:11 - :13) (OCT0                                                                          150                                
PRCFAMCHA090701020923020929000006YES WAY Bumper - Bleachers (JUNE09)                                                                                         150                                
ID FAMCHA090701020929020936000007Magic of Disney - NS/NSW/PB - Wipe (:06-:09)                                                                                150                                
PRCFAMCHA090701020936020945000009CC Disclaimer - SLOW - Generic (:09 -:10)                                                                                   150                                
PGRFAMCHA090701020945023216002231Lizzie McGuire                                    EP: 2-015                                                            6068607BCC                              
PRCFAMCHA090701023216023228000012NS - 19 - LIFE WITH DEREK/CORY IN THE HOUSE (:11 -                                                                          150                                
PRCFAMCHA090701023228023242000014NS Bumper - Fashion (:12-:14) JUNE06                                                                                        150                                
PRCFAMCHA090701023242023251000009CC Disclaimer - SLOW - Family.ca (:09-:10)                                                                                  150                                
PGRFAMCHA090701023251025521002230Life With Derek IV (eps 53-70)                    EP: 07                                                        C24891 1065607BCC                              
PRCFAMCHA090701025521025527000006Astral ID (FEB 2009)                                                                                                        150                                
PRCFAMCHA090701025527025538000011NS - 20 - CORY IN THE HOUSE/RAVEN (:11 - :13) (SEP                                                                          150                                
PRCFAMCHA090701025538025548000010YES WAY Bumper - Chalk Art (JUNE09)                                                                                         150                                
PRCFAMCHA090701025548025557000009CC Disclaimer - SLOW - Generic (:09 -:10)                                                                                   150                                
PGRFAMCHA090701025557030236000639Disney Cory in the House                          EP: 02                                                               6068607BCC                              
PGRFAMCHA090701030236030708000432Disney Cory in the House                          EP: 02                                                               6068607BCC                              
PGRFAMCHA090701030708031525000817Disney Cory in the House                          EP: 02                                                               6068607BCC                              
PGRFAMCHA090701031525031834000309Disney Cory in the House                          EP: 02                                                               6068607BCC                              
PRCFAMCHA090701031834031846000012NS - 21 - RAVEN/ SUITE LIFE (:11 - :13) (SEPT07)                                                                            150                                
PRCFAMCHA090701031846031853000007YES WAY Bumper - School Door (JUNE09)                                                                                       150                                
ID FAMCHA090701031853031859000006Magic of Disney - NS/NSW/PB - Shape (:06-:09)                                                                               150                                
PRCFAMCHA090701031859031908000009CC Disclaimer - SLOW - Family.ca (:09-:10)                                                                                  150                                
PGRFAMCHA090701031908034137002229That's So Raven                                   EP: 088                                                              6068607BCC                              
PRCFAMCHA090701034137034143000006Astral ID (FEB 2009)                                                                                                        150                                
PRCFAMCHA090701034143034156000013NS - 22 - SUITE LIFE/LIFE WITH DEREK (:11 - :13) (                                                                          150                                
PRCFAMCHA090701034156034213000017NS Bumper - Tennis (:15-:17) APR06                                                                                          150                                
