OFFFAMCHA000101043000060000013000                                                                                                                                                               
SO FAMCHA000101060000060011000011Sign On (oct 1)                                                                                                                                                
PROFAMCHA000101060011060016000005CC Disclaimer (oct) **DO NOT USE**                                                                                                                             
PGRFAMCHA000101060016062234002218PB&J Otter                                        Bye-Bye, PB&J!/Babbleberry Day                                      A6068607ECC                              
ID FAMCHA000101062234062249000015Interactive bumper w/URL                                                                                                                                       
ID FAMCHA000101062249062259000010Generic ID - Bubbles                                                                                                                                           
PRCFAMCHA000101062259062308000009Morning Block menu background (flex time)                                                                                                                      
PROFAMCHA000101062308062408000100Superman I&II - Tonight @ 8pm                                                                                                                                  
PROFAMCHA000101062408062508000100January 1st Episodes - Today, All Day on Family                                                                                                                
PROFAMCHA000101062508062608000100Morning Block - Generic                                                                                                                                        
PGRFAMCHA000101062608062745000137Bill Nye - The Science Guy Theme                                                                                       60688130                                
PROFAMCHA000101062745062850000105Adventures of Gummi Bears-Monday to Friday @ 8am (                                                                                                             
PROFAMCHA000101062850062940000050Johnny Tsunami - Friday @ 8pm on Family                                                                                                                        
ID FAMCHA000101062940063000000020Prime time open count down                                                                                                                                     
PGRFAMCHA000101063000065510002510Muppets Tonight                                   Michelle Pfeiffer                                                   A3068807B                                
ID FAMCHA000101065510065525000015Interactive bumper w/URL                                                                                                                                       
ID FAMCHA000101065525065530000005Generic ID - Bubbles                                                                                                                                           
PRCFAMCHA000101065530065540000010Morning Block menu background (flex time)                                                                                                                      
PROFAMCHA000101065540065640000100Tall Tale - On Family                                                                                                                                          
PROFAMCHA000101065640065740000100January 1st Episodes - Today, All Day on Family                                                                                                                
PROFAMCHA000101065740065820000040Microsoap-Sunday @ 8:30am (oct)                                                                                                                                
PROFAMCHA000101065820065850000030Crash Zone-Tonight @ 6:30pm (MAR)                                                                                                                              
PROFAMCHA000101065850065950000100Superman I&II - Tonight @ 8pm                                                                                                                                  
ID FAMCHA000101065950070000000010Prime time open top of hour                                                                                                                                    
PGRFAMCHA000101070000071944001944Clarissa                                          Clarissa's Revenge                                                   2068607B                                
ID FAMCHA000101071944071959000015Interactive bumper w/URL                                                                                                                                       
ID FAMCHA000101071959072004000005Generic ID - Bubbles                                                                                                                                           
PRCFAMCHA000101072004072013000009Morning Block menu background (flex time)                                                                                                                      
PROFAMCHA000101072013072113000100Superman I&II - Tonight @ 8pm                                                                                                                                  
PROFAMCHA000101072113072213000100January 1st Episodes - Today, All Day on Family                                                                                                                
PROFAMCHA000101072213072245000032Sherlock Holmes - Saturday @ 10:30am (oct)                                                                                                                     
PGRFAMCHA000101072245072719000434MV Disney - A Dream is a Wish Your Heart Makes (oc                                                                     60688130                                
PROFAMCHA000101072719072758000039Goof Troop - Today @ 4pm                                                                                                                                       
PROFAMCHA000101072758072850000052Great African Wildlife Rescue - Sunday at 2pm on F                                                                                                             
PROFAMCHA000101072850072950000100Tall Tale - On Family                                                                                                                                          
ID FAMCHA000101072950073000000010Presentation bumper - Magic of Disney                                                                                                                          
PROFAMCHA000101073000073005000005CC Disclaimer (oct) **DO NOT USE**                                                                                                                             
PGRFAMCHA000101073005075242002237Disney's Aladdin                                  Air Feather Friends                                                  6068607ECC                              
ID FAMCHA000101075242075257000015Interactive bumper w/URL                                                                                                                                       
ID FAMCHA000101075257075302000005Generic ID - Couch 1                                                                                                                                           
PRCFAMCHA000101075302075310000008Morning Block menu background (flex time)                                                                                                                      
PROFAMCHA000101075310075400000050Johnny Tsunami - Friday @ 8pm on Family                                                                                                                        
PROFAMCHA000101075400075430000030Madeline - 8:30am on Saturday (oct)                                                                                                                            
PGRFAMCHA000101075430075750000320MV Disney - Remember the magic (oct 1)                                                                                 60688130                                
PROFAMCHA000101075750075850000100January 1st Episodes - Today, All Day on Family                                                                                                                
PROFAMCHA000101075850075950000100Superman I&II - Tonight @ 8pm                                                                                                                                  
ID FAMCHA000101075950080000000010Presentation bumper - Magic of Disney                                                                                                                          
PROFAMCHA000101080000080005000005CC Disclaimer (oct) **DO NOT USE**                                                                                                                             
PGRFAMCHA000101080005082243002238Adventures of the Gummi Bears; The                Tuxford's Turnaround                                                 6068607ECC                              
ID FAMCHA000101082243082258000015Interactive bumper w/URL                                                                                                                                       
ID FAMCHA000101082258082308000010Generic ID - Bubbles                                                                                                                                           
PRCFAMCHA000101082308082320000012Morning Block menu background (flex time)                                                                                                                      
PROFAMCHA000101082320082420000100Superman I&II - Tonight @ 8pm                                                                                                                                  
PROFAMCHA000101082420082520000100January 1st Episodes - Today, All Day on Family                                                                                                                
PGRFAMCHA000101082520082650000130Disney Circle Time - Growing Smiles (anywhere but                                                                      60688130                                
PRCFAMCHA000101082650082725000035Little Lulu Show; The - Tonight @ 6:30pm (oct1)                                                                                                                
PROFAMCHA000101082725082810000045PB&J Otter - Mon, Wed & Fri @ 8:30am (oct 1)                                                                                                                   
PROFAMCHA000101082810082840000030Madeline - Next (oct)                                                                                                                                          
PROFAMCHA000101082840082940000100Tall Tale - On Family                                                                                                                                          
ID FAMCHA000101082940083000000020Prime time open count down                                                                                                                                     
PGRFAMCHA000101083000085235002235Madeline                                          Madeline and the Forty Thieves                                       6068607E                                
ID FAMCHA000101085235085250000015Interactive bumper w/URL                                                                                                                                       
ID FAMCHA000101085250085255000005Generic ID - Couch 2                                                                                                                                           
PRCFAMCHA000101085255085310000015Morning Block menu background (flex time)                                                                                                                      
PROFAMCHA000101085310085410000100Tall Tale - On Family                                                                                                                                          
PROFAMCHA000101085410085449000039Goof Troop - Today @ 4pm                                                                                                                                       
PROFAMCHA000101085449085549000100January 1st Episodes - Today, All Day on Family                                                                                                                
PGRFAMCHA000101085549085753000204MV Disney - You've got a friend in me (oct 1)                                                                          60688130                                
PROFAMCHA000101085753085820000027Recess - Weekdays @ 5:30 pm (oct1)                                                                                                                             
PRCFAMCHA000101085820085850000030Gadget Boy - next                                                                                                                                              
PROFAMCHA000101085850085950000100Superman I&II - Tonight @ 8pm                                                                                                                                  
ID FAMCHA000101085950090000000010Prime time open top of hour                                                                                                                                    
PROFAMCHA000101090000090005000005CC Disclaimer (oct) **DO NOT USE**                                                                                                                             
PGRFAMCHA000101090005092204002159Gadget Boy                                        Raiders of the Lost Mummies                                          6068607ECC                              
ID FAMCHA000101092204092219000015Interactive bumper w/URL                                                                                                                                       
ID FAMCHA000101092219092229000010Generic ID - Family w/dog                                                                                                                                      
PRCFAMCHA000101092229092244000015Morning Block menu background (flex time)                                                                                                                      
PROFAMCHA000101092244092344000100Superman I&II - Tonight @ 8pm                                                                                                                                  
PROFAMCHA000101092344092424000040Microsoap-Sunday @ 8:30am (oct)                                                                                                                                
PGRFAMCHA000101092424092720000256MV Disney - Strangers Like Me (oct)                                                                                    60688130                                
PROFAMCHA000101092720092750000030Crash Zone-Tonight @ 6:30pm (MAR)                                                                                                                              
PROFAMCHA000101092750092850000100January 1st Episodes - Today, All Day on Family                                                                                                                
PROFAMCHA000101092850092940000050Johnny Tsunami - Friday @ 8pm on Family                                                                                                                        
ID FAMCHA000101092940093000000020Prime time open count down                                                                                                                                     
PROFAMCHA000101093000093005000005CC Disclaimer (oct) **DO NOT USE**                                                                                                                             
PGRFAMCHA000101093005095539002534Bug Juice                                         Camp Waziyatah                                                       6068607ACC                              
ID FAMCHA000101095539095554000015Interactive bumper w/URL                                                                                                                                       
ID FAMCHA000101095554095609000015Generic ID - confetti                                                                                                                                          
PRCFAMCHA000101095609095620000011Morning Block menu background (flex time)                                                                                                                      
PROFAMCHA000101095620095720000100Tall Tale - On Family                                                                                                                                          
PROFAMCHA000101095720095820000100January 1st Episodes - Today, All Day on Family                                                                                                                
PROFAMCHA000101095820095850000030Crash Zone-On Family (MAR)                                                                                                                                     
PROFAMCHA000101095850095950000100Superman I&II - Tonight @ 8pm                                                                                                                                  
ID FAMCHA000101095950100000000010Prime time open top of hour                                                                                                                                    
PGRFAMCHA000101100000102344002344Crash Zone                                        The Dream Team                                                       6068607A                                
ID FAMCHA000101102344102359000015Interactive bumper w/URL                                                                                                                                       
ID FAMCHA000101102359102409000010Generic ID - Hula Hoop                                                                                                                                         
PRCFAMCHA000101102409102419000010Morning Block menu background (flex time)                                                                                                                      
PROFAMCHA000101102419102519000100Superman I&II - Tonight @ 8pm                                                                                                                                  
PROFAMCHA000101102519102619000100January 1st Episodes - Today, All Day on Family                                                                                                                
PGRFAMCHA000101102619102716000057Frankenguy and the Professor - Hoola Hoop                                                                              60688130                                
PROFAMCHA000101102716102808000052Great African Wildlife Rescue - Sunday at 2pm on F                                                                                                             
PROFAMCHA000101102808102840000032Sherlock Holmes - Next (oct)                                                                                                                                   
PROFAMCHA000101102840102940000100Tall Tale - On Family                                                                                                                                          
ID FAMCHA000101102940103000000020Prime time open count down                                                                                                                                     
PGRFAMCHA000101103000105213002213Sherlock Holmes In The 22nd Century               Fall and Rise of Sherlock Holmes                                     6068607E                                
ID FAMCHA000101105213105228000015Interactive bumper w/URL                                                                                                                                       
ID FAMCHA000101105228105233000005Generic ID - Marbles                                                                                                                                           
PRCFAMCHA000101105233105243000010Morning Block menu background (flex time)                                                                                                                      
PROFAMCHA000101105243105333000050Johnny Tsunami - Friday @ 8pm on Family                                                                                                                        
PROFAMCHA000101105333105433000100January 1st Episodes - Today, All Day on Family                                                                                                                
PRCFAMCHA000101105433105521000048Ripley's BION - Today @ 5pm (MAR)                                                                                                                              
PGRFAMCHA000101105521105746000225MV Disney - T&P - Yummy,Yummy,Yummy                                                                                    60688130                                
PROFAMCHA000101105746105828000042Gargoyles-Today @ 4:30 pm (Oct 1)                                                                                                                              
PRCFAMCHA000101105828105850000022Are You Afraid of the Dark - Next (oct1)                                                                                                                       
PROFAMCHA000101105850105950000100Superman I&II - Tonight @ 8pm                                                                                                                                  
ID FAMCHA000101105950110000000010Prime time open top of hour                                                                                                                                    
PGRFAMCHA000101110000112349002349Are You Afraid Of The Dark?                       The Tale of the Phantom Cab                                   SR0302 1066807A                                
ID FAMCHA000101112349112404000015Interactive bumper w/URL                                                                                                                                       
ID FAMCHA000101112404112414000010Generic ID - Pink inner tube                                                                                                                                   
PRCFAMCHA000101112414112423000009Morning Block menu background (flex time)                                                                                                                      
PROFAMCHA000101112423112523000100Superman I&II - Tonight @ 8pm                                                                                                                                  
PRCFAMCHA000101112523112611000048Ripley's BION - Today @ 5pm (MAR)                                                                                                                              
PROFAMCHA000101112611112703000052Great African Wildlife Rescue - Sunday at 2pm on F                                                                                                             
PROFAMCHA000101112703112720000017Hercules - Weekdays @ 4:30 pm (oct 1)                                                                                                                          
PROFAMCHA000101112720112820000100January 1st Episodes - Today, All Day on Family                                                                                                                
PROFAMCHA000101112820112850000030So Weird - Next (oct1 )                                                                                                                                        
PROFAMCHA000101112850112950000100Tall Tale - On Family                                                                                                                                          
ID FAMCHA000101112950113000000010Presentation bumper - Magic of Disney                                                                                                                          
PGRFAMCHA000101113000115717002717So Weird                                          Family Reunion                                                       6068807A                                
ID FAMCHA000101115717115732000015Interactive bumper w/URL                                                                                                                                       
ID FAMCHA000101115732115742000010Generic ID - Ring around the rosie                                                                                                                             
PRCFAMCHA000101115742115750000008Morning Block menu background (flex time)                                                                                                                      
PROFAMCHA000101115750115850000100January 1st Episodes - Today, All Day on Family                                                                                                                
PROFAMCHA000101115850115950000100Superman I&II - Tonight @ 8pm                                                                                                                                  
ID FAMCHA000101115950120000000010Presentation bumper - Magic of Disney                                                                                                                          
PGRFAMCHA000101120000122228002228Movie Surfers Go Inside Disney's Fantasia 2000                                                                        A60288110                                
ID FAMCHA000101122228122243000015Interactive bumper w/URL                                                                                                                                       
ID FAMCHA000101122243122248000005Generic ID - Bubbles                                                                                                                                           
PRCFAMCHA000101122248122301000013Morning Block menu background (flex time)                                                                                                                      
PROFAMCHA000101122301122401000100January 1st Episodes - Today, All Day on Family                                                                                                                
PROFAMCHA000101122401122431000030Blossom In Paris - Monday, January 10th @ 8pm                                                                                                                  
PRCFAMCHA000101122431122506000035Little Lulu Show; The - Tonight @ 6:30pm (oct1)                                                                                                                
PGRFAMCHA000101122506122803000257Art Attack - Dracula (HALLOWEEN)                                                                                       60686130                                
PROFAMCHA000101122803122855000052Great African Wildlife Rescue - Sunday at 2pm on F                                                                                                             
PROFAMCHA000101122855122955000100Superman I&II - Tonight @ 8pm                                                                                                                                  
ID FAMCHA000101122955123005000010Presentation bumper - Magic of Disney                                                                                                                          
PROFAMCHA000101123005123010000005CC Disclaimer (oct) **DO NOT USE**                                                                                                                             
PGRFAMCHA000101123010131459004449Rescue Rangers Undercover Critters                                                                                    A6068607ECC                              
ID FAMCHA000101131459131514000015Interactive bumper w/URL                                                                                                                                       
ID FAMCHA000101131514131519000005Generic ID - soccer **DO NOT USE**                                                                                                                             
PRCFAMCHA000101131519131529000010Morning Block menu background (flex time)                                                                                                                      
PROFAMCHA000101131529131619000050Johnny Tsunami - Friday @ 8pm on Family                                                                                                                        
PROFAMCHA000101131619131649000030So Weird - Sunday at 6:00 pm (oct1 )                                                                                                                           
PROFAMCHA000101131649131749000100January 1st Episodes - Today, All Day on Family                                                                                                                
PGRFAMCHA000101131749132239000450MV Disney - Circle of Life (oct 1)                                                                                     60688130                                
PROFAMCHA000101132239132325000046Contest - It's Time for Britney on Family                                                                                                                      
PROFAMCHA000101132325132355000030Britney Spears - Sunday, January 16th @ 8pm on Fam                                                                                                             
PRCFAMCHA000101132355132443000048Ripley's BION - Today @ 5pm (MAR)                                                                                                                              
PGRFAMCHA000101132443132750000307MV Disney - Part of your world (oct 1)                                                                                 60688130                                
PROFAMCHA000101132750132850000100Tall Tale - On Family                                                                                                                                          
PROFAMCHA000101132850132950000100Superman I&II - Tonight @ 8pm                                                                                                                                  
ID FAMCHA000101132950133000000010Presentation bumper - Magic of Disney                                                                                                                          
PROFAMCHA000101133000133005000005CC Disclaimer (oct) **DO NOT USE**                                                                                                                             
PGRFAMCHA000101133005135312002307Disney Presents Bill Nye the Science Guy          Flight                                                               60686110CC                              
ID FAMCHA000101135312135327000015Interactive bumper w/URL                                                                                                                                       
ID FAMCHA000101135327135334000007Generic ID - Whisper                                                                                                                                           
PRCFAMCHA000101135334135345000011Morning Block menu background (flex time)                                                                                                                      
PROFAMCHA000101135345135445000100Superman I&II - Tonight @ 8pm                                                                                                                                  
PROFAMCHA000101135445135525000040Microsoap-Sunday @ 8:30am (oct)                                                                                                                                
PROFAMCHA000101135525135555000030Britney Spears - Sunday, January 16th @ 8pm on Fam                                                                                                             
PGRFAMCHA00010113555513565500010060 Seconds of Science - Boiling Water (anywhere bu                                                                     60688130                                
PROFAMCHA000101135655135740000045Honey, I Shrunk The Kids - On Family                                                                                                                           
PROFAMCHA000101135740135840000100January 1st Episodes - Today, All Day on Family                                                                                                                
PROFAMCHA000101135840135940000100Tall Tale - On Family                                                                                                                                          
ID FAMCHA000101135940140000000020Prime time open count down                                                                                                                                     
PGRFAMCHA000101140000141507001507Art Attack                                        1-001                                                                60686110                                
ID FAMCHA000101141507141522000015Interactive bumper w/URL                                                                                                                                       
ID FAMCHA000101141522141532000010Generic ID - Bubbles                                                                                                                                           
PRCFAMCHA000101141532141540000008Morning Block menu background (flex time)                                                                                                                      
PROFAMCHA000101141540141640000100Tall Tale - On Family                                                                                                                                          
PROFAMCHA000101141640141740000100January 1st Episodes - Today, All Day on Family                                                                                                                
PROFAMCHA000101141740141802000022Disney's One Too - Weekdays @4:30 (Oct 1)                                                                                                                      
PGRFAMCHA000101141802142204000402MV Disney - A Whole New World (oct)                                                                                    60688130                                
PROFAMCHA000101142204142250000046Contest - It's Time for Britney on Family                                                                                                                      
PROFAMCHA000101142250142320000030Britney Spears - Sunday, January 16th @ 8pm on Fam                                                                                                             
PROFAMCHA000101142320142359000039Goof Troop - Today @ 4pm                                                                                                                                       
PGRFAMCHA000101142359142758000359MV Disney - Beauty and the beast (oct 1)                                                                               60688130                                
PROFAMCHA000101142758142850000052Great African Wildlife Rescue - Sunday at 2pm on F                                                                                                             
PROFAMCHA000101142850142950000100Superman I&II - Tonight @ 8pm                                                                                                                                  
ID FAMCHA000101142950143000000010Presentation bumper - Magic of Disney                                                                                                                          
PROFAMCHA000101143000143005000005CC Disclaimer (oct) **DO NOT USE**                                                                                                                             
PGRFAMCHA000101143005145245002240Darkwing Duck                                     Beauty And The Beet                                                  6068607ECC                              
ID FAMCHA000101145245145300000015Interactive bumper w/URL                                                                                                                                       
ID FAMCHA000101145300145310000010Generic ID - Bubbles                                                                                                                                           
PRCFAMCHA000101145310145322000012Morning Block menu background (flex time)                                                                                                                      
PROFAMCHA000101145322145422000100Superman I&II - Tonight @ 8pm                                                                                                                                  
PROFAMCHA000101145422145444000022Mentors - Version 1 - Sunday @ 6:30pm                                                                                                                          
PRCFAMCHA000101145444145514000030Franklin-tonight @ 6:00pm (oct 1)                                                                                                                              
PROFAMCHA000101145514145559000045Honey, I Shrunk The Kids - On Family                                                                                                                           
PROFAMCHA000101145559145629000030Britney Spears - Sunday, January 16th @ 8pm on Fam                                                                                                             
PROFAMCHA000101145629145721000052Great African Wildlife Rescue - Sunday at 2pm on F                                                                                                             
PROFAMCHA000101145721145821000100January 1st Episodes - Today, All Day on Family                                                                                                                
PROFAMCHA000101145821145900000039Goof Troop - Today @ 4pm                                                                                                                                       
PROFAMCHA000101145900145950000050Johnny Tsunami - Friday @ 8pm on Family                                                                                                                        
ID FAMCHA000101145950150000000010Presentation bumper - Magic of Disney                                                                                                                          
PROFAMCHA000101150000150005000005CC Disclaimer (oct) **DO NOT USE**                                                                                                                             
PGRFAMCHA000101150005152242002237Disney's Aladdin                                  Air Feather Friends                                                  6068607ECC                              
ID FAMCHA000101152242152257000015Interactive bumper w/URL                                                                                                                                       
ID FAMCHA000101152257152312000015Generic ID - confetti                                                                                                                                          
PRCFAMCHA000101152312152324000012Morning Block menu background (flex time)                                                                                                                      
PROFAMCHA000101152324152424000100Tall Tale - On Family                                                                                                                                          
PROFAMCHA000101152424152524000100January 1st Episodes - Today, All Day on Family                                                                                                                
PROFAMCHA000101152524152610000046Contest - It's Time for Britney on Family                                                                                                                      
PROFAMCHA000101152610152640000030Britney Spears - Sunday, January 16th @ 8pm on Fam                                                                                                             
PGRFAMCHA00010115264015274000010060 Seconds of Science - Momentum(10) (anywhere but                                                                     60688130                                
PRCFAMCHA000101152740152815000035Little Lulu Show; The - Tonight @ 6:30pm (oct1)                                                                                                                
PROFAMCHA000101152815152850000035Lion King's Timon & Pumbaa - next (OCT 1)                                                                                                                      
PROFAMCHA000101152850152950000100Superman I&II - Tonight @ 8pm                                                                                                                                  
ID FAMCHA000101152950153000000010Presentation bumper - Magic of Disney                                                                                                                          
PROFAMCHA000101153000153005000005CC Disclaimer (oct) **DO NOT USE**                                                                                                                             
PGRFAMCHA000101153005155247002242Lion King's Timon & Pumbaa; The                   Boara Boara/Saskatchewan Catch                                       6068607ECC                              
ID FAMCHA000101155247155302000015Interactive bumper w/URL                                                                                                                                       
ID FAMCHA000101155302155312000010Generic ID - confetti                                                                                                                                          
PRCFAMCHA000101155312155323000011Morning Block menu background (flex time)                                                                                                                      
PROFAMCHA000101155323155423000100Superman I&II - Tonight @ 8pm                                                                                                                                  
PRCFAMCHA000101155423155456000033Hoze Houndz - Tonight @ 7:00pm                                                                                                                                 
PROFAMCHA000101155456155541000045Honey, I Shrunk The Kids - On Family                                                                                                                           
PROFAMCHA000101155541155611000030Britney Spears - Sunday, January 16th @ 8pm on Fam                                                                                                             
PGRFAMCHA00010115561115571100010060 Seconds of Science - Time(13) (anywhere but D12                                                                     60688130                                
PROFAMCHA000101155711155811000100January 1st Episodes - Today, All Day on Family                                                                                                                
PROFAMCHA000101155811155850000039Goof Troop - Next                                                                                                                                              
PROFAMCHA000101155850155950000100Tall Tale - On Family                                                                                                                                          
ID FAMCHA000101155950160000000010Presentation bumper - Magic of Disney                                                                                                                          
PROFAMCHA000101160000160005000005CC Disclaimer (oct) **DO NOT USE**                                                                                                                             
PGRFAMCHA000101160005162255002250Goof Troop                                        Axed By Addition                                                     6068607ECC                              
ID FAMCHA000101162255162310000015Interactive bumper w/URL                                                                                                                                       
ID FAMCHA000101162310162315000005Generic ID - Couch 1                                                                                                                                           
PRCFAMCHA000101162315162328000013Morning Block menu background (flex time)                                                                                                                      
PROFAMCHA000101162328162418000050Johnny Tsunami - Friday @ 8pm on Family                                                                                                                        
PROFAMCHA000101162418162510000052Great African Wildlife Rescue - Sunday at 2pm on F                                                                                                             
PROFAMCHA000101162510162610000100January 1st Episodes - Today, All Day on Family                                                                                                                
PROFAMCHA000101162610162656000046Contest - It's Time for Britney on Family                                                                                                                      
PROFAMCHA000101162656162726000030Britney Spears - Sunday, January 16th @ 8pm on Fam                                                                                                             
PROFAMCHA000101162726162758000032Sherlock Holmes - Sunday @ 5:30pm (oct)                                                                                                                        
PROFAMCHA000101162758162840000042Gargoyles-Next (Oct 1)                                                                                                                                         
PROFAMCHA000101162840162940000100Superman I&II - Tonight @ 8pm                                                                                                                                  
ID FAMCHA000101162940163000000020Prime time open count down                                                                                                                                     
PGRFAMCHA000101163000165254002254Gargoyles                                         Awakening - Part 1                                                   6068607E                                
ID FAMCHA000101165254165309000015Interactive bumper w/URL                                                                                                                                       
ID FAMCHA000101165309165314000005Generic ID - Couch 2                                                                                                                                           
PRCFAMCHA000101165314165325000011Morning Block menu background (flex time)                                                                                                                      
PROFAMCHA000101165325165425000100Superman I&II - Tonight @ 8pm                                                                                                                                  
PROFAMCHA000101165425165455000030So Weird - Sunday at 6:00 pm (oct1 )                                                                                                                           
PROFAMCHA000101165455165540000045Honey, I Shrunk The Kids - On Family                                                                                                                           
PROFAMCHA000101165540165610000030Britney Spears - Sunday, January 16th @ 8pm on Fam                                                                                                             
PROFAMCHA000101165610165702000052Great African Wildlife Rescue - Sunday at 2pm on F                                                                                                             
PROFAMCHA000101165702165802000100January 1st Episodes - Today, All Day on Family                                                                                                                
PRCFAMCHA000101165802165850000048Ripley's BION - Next (MAR)                                                                                                                                     
PROFAMCHA000101165850165950000100Tall Tale - On Family                                                                                                                                          
ID FAMCHA000101165950170000000010Prime time open top of hour                                                                                                                                    
PROFAMCHA000101170000170005000005CC Disclaimer (oct) **DO NOT USE**                                                                                                                             
PGRFAMCHA000101170005172433002428Ripley's Believe It Or Not!                       The Daruma Dolls                                              A21797 1065607ECC                              
ID FAMCHA000101172433172448000015Interactive bumper w/URL                                                                                                                                       
ID FAMCHA000101172448172458000010Generic ID - Family w/dog                                                                                                                                      
PRCFAMCHA000101172458172510000012Morning Block menu background (flex time)                                                                                                                      
PROFAMCHA000101172510172610000100January 1st Episodes - Today, All Day on Family                                                                                                                
PROFAMCHA000101172610172640000030Blossom In Paris - Monday, January 10th @ 8pm                                                                                                                  
PROFAMCHA000101172640172725000045Honey, I Shrunk The Kids - On Family                                                                                                                           
PROFAMCHA000101172725172755000030Britney Spears - Sunday, January 16th @ 8pm on Fam                                                                                                             
PROFAMCHA000101172755172840000045PB&J Otter - Next (oct 1)                                                                                                                                      
PROFAMCHA000101172840172940000100Superman I&II - Tonight @ 8pm                                                                                                                                  
ID FAMCHA000101172940173000000020Prime time open count down                                                                                                                                     
PROFAMCHA000101173000173005000005CC Disclaimer (oct) **DO NOT USE**                                                                                                                             
PGRFAMCHA000101173005175223002218PB&J Otter                                        Bye-Bye, PB&J!/Babbleberry Day                                      A6068607ECC                              
ID FAMCHA000101175223175238000015Interactive bumper w/URL                                                                                                                                       
ID FAMCHA000101175238175243000005Generic ID - Fingerpaint                                                                                                                                       
PRCFAMCHA000101175243175253000010Morning Block menu background (flex time)                                                                                                                      
PROFAMCHA000101175253175353000100Superman I&II - Tonight @ 8pm                                                                                                                                  
PROFAMCHA000101175353175458000105Adventures of Gummi Bears-Monday to Friday @ 8am (                                                                                                             
PROFAMCHA000101175458175539000041Honey I Shrunk the Kids (series oct) Sunday @ 7pm                                                                                                              
PROFAMCHA000101175539175625000046Contest - It's Time for Britney on Family                                                                                                                      
PROFAMCHA000101175625175655000030Britney Spears - Sunday, January 16th @ 8pm on Fam                                                                                                             
PROFAMCHA000101175655175755000100January 1st Episodes - Today, All Day on Family                                                                                                                
PRCFAMCHA000101175755175830000035Little Lulu Show; The - Tonight @ 6:30pm (oct1)                                                                                                                
PRCFAMCHA000101175830175900000030Franklin-next (oct 1)                                                                                                                                          
PROFAMCHA000101175900175950000050Johnny Tsunami - Friday @ 8pm on Family                                                                                                                        
ID FAMCHA000101175950180000000010Prime time open top of hour                                                                                                                                    
PROFAMCHA000101180000180005000005CC Disclaimer (oct) **DO NOT USE**                                                                                                                             
PGRFAMCHA000101180005182258002253Franklin                                          Franklin's Visitor/Franklin's Not-So-Broken Bone              B13640 1065607ECC                              
ID FAMCHA000101182258182313000015Interactive bumper w/URL                                                                                                                                       
ID FAMCHA000101182313182323000010Generic ID - Hula Hoop                                                                                                                                         
PRCFAMCHA000101182323182332000009Morning Block menu background (flex time)                                                                                                                      
PROFAMCHA000101182332182432000100Tall Tale - On Family                                                                                                                                          
PROFAMCHA000101182432182532000100January 1st Episodes - Today, All Day on Family                                                                                                                
PROFAMCHA000101182532182632000100Morning Block - Generic                                                                                                                                        
PROFAMCHA000101182632182718000046Contest - It's Time for Britney on Family                                                                                                                      
PROFAMCHA000101182718182748000030Britney Spears - Sunday, January 16th @ 8pm on Fam                                                                                                             
PROFAMCHA000101182748182805000017Hercules - Weekdays @ 4:30 pm (oct 1)                                                                                                                          
PRCFAMCHA000101182805182840000035Little Lulu Show; The - Next (oct1)                                                                                                                            
PROFAMCHA000101182840182940000100Superman I&II - Tonight @ 8pm                                                                                                                                  
ID FAMCHA000101182940183000000020Prime time open count down                                                                                                                                     
PROFAMCHA000101183000183005000005CC Disclaimer (oct) **DO NOT USE**                                                                                                                             
PGRFAMCHA000101183005185655002650Little Lulu Show; The                             Green Girl/Rainy Day/Beautiful Lulu                           P22330A1065607ECC                              
ID FAMCHA000101185655185710000015Interactive bumper w/URL                                                                                                                                       
ID FAMCHA000101185710185717000007Generic ID - Whisper                                                                                                                                           
PROFAMCHA000101185717185817000100Superman I&II - Tonight @ 8pm                                                                                                                                  
PRCFAMCHA000101185817185850000033Hoze Houndz - Next (oct 1)                                                                                                                                     
PROFAMCHA000101185850185950000100January 1st Episodes - Today, All Day on Family                                                                                                                
ID FAMCHA000101185950190000000010Prime time open top of hour                                                                                                                                    
PROFAMCHA000101190000190005000005CC Disclaimer (oct) **DO NOT USE**                                                                                                                             
PGRFAMCHA000101190005192240002235Hoze Houndz                                       Ghost in the Machine/Savage Steamer                           B17121A1065607ECC                              
ID FAMCHA000101192240192255000015Interactive bumper w/URL                                                                                                                                       
ID FAMCHA000101192255192305000010Generic ID - Pink inner tube                                                                                                                                   
PRCFAMCHA000101192305192316000011Morning Block menu background (flex time)                                                                                                                      
PROFAMCHA000101192316192406000050Johnny Tsunami - Friday @ 8pm on Family                                                                                                                        
PROFAMCHA000101192406192445000039Goof Troop - Saturday and Sunday @ 4pm                                                                                                                         
PROFAMCHA000101192445192509000024So Weird - Sunday @ 6:00 pm (Oct 1)                                                                                                                            
PROFAMCHA000101192509192555000046Contest - It's Time for Britney on Family                                                                                                                      
PROFAMCHA000101192555192625000030Britney Spears - Sunday, January 16th @ 8pm on Fam                                                                                                             
PROFAMCHA000101192625192706000041Honey I Shrunk the Kids (series oct) Sunday @ 7pm                                                                                                              
PROFAMCHA000101192706192806000100Tall Tale - On Family                                                                                                                                          
PRCFAMCHA000101192806192840000034Misguided Angels-Next (oct1)                                                                                                                                   
PROFAMCHA000101192840192940000100Superman I&II - Tonight @ 8pm                                                                                                                                  
ID FAMCHA000101192940193000000020Prime time open count down                                                                                                                                     
PROFAMCHA000101193000193005000005CC Disclaimer (oct) **DO NOT USE**                                                                                                                             
PGRFAMCHA000101193005195215002210Misguided Angels                                  Old Buddies                                                   A29533 1065807BCC                              
ID FAMCHA000101195215195230000015Interactive bumper w/URL                                                                                                                                       
ID FAMCHA000101195230195240000010Generic ID - Hula Hoop                                                                                                                                         
PRCFAMCHA000101195240195253000013Morning Block menu background (flex time)                                                                                                                      
PROFAMCHA000101195253195353000100Tall Tale - On Family                                                                                                                                          
PRCFAMCHA000101195353195426000033Hoze Houndz - Tuesday @ 6:30pm on Family (oct 1)                                                                                                               
PROFAMCHA000101195426195512000046Contest - It's Time for Britney on Family                                                                                                                      
PROFAMCHA000101195512195542000030Britney Spears - Sunday, January 16th @ 8pm on Fam                                                                                                             
PGRFAMCHA000101195542195727000145Disney Circle Time - The Milkmaids Pail (anywhere                                                                      60688130                                
PROFAMCHA000101195727195808000041Honey I Shrunk the Kids (series oct) Sunday @ 7pm                                                                                                              
PROFAMCHA000101195808195908000100Superman I&II - Next on Family                                                                                                                                 
PROFAMCHA000101195908195940000032Sherlock Holmes - Sunday @ 5:30pm (oct)                                                                                                                        
ID FAMCHA000101195940200000000020Move open family size movie                                                                                                                                    
PROFAMCHA000101200000200007000007Rating - G (oct )                                                                                                                                              
PGRFAMCHA000101200007222305022258Superman                                                                                                              A2068807D                                
ID FAMCHA000101222305222320000015Interactive bumper w/URL                                                                                                                                       
ID FAMCHA000101222320222325000005Generic ID - Fingerpaint                                                                                                                                       
PRCFAMCHA000101222325222334000009Morning Block menu background (flex time)                                                                                                                      
PROFAMCHA000101222334222424000050Johnny Tsunami - Friday @ 8pm on Family                                                                                                                        
PROFAMCHA000101222424222454000030So Weird - Sunday at 6:00 pm (oct1 )                                                                                                                           
PROFAMCHA000101222454222509000015Disney's One Too - Weekdays @4:30 (Oct 1)                                                                                                                      
PGRFAMCHA000101222509222758000249MV Disney - Never alone (oct 1)                                                                                        60688130                                
PROFAMCHA000101222758222840000042Gargoyles-Monday thru Thursday 11:30 pm (Oct 1)                                                                                                                
PROFAMCHA000101222840222940000100Tall Tale - On Family                                                                                                                                          
ID FAMCHA000101222940223000000020Move open family size movie                                                                                                                                    
PROFAMCHA000101223000223007000007Rating - PG (oct)                                                                                                                                              
PGRFAMCHA000101223007002824015817Superman II                                                                                                           B2068807D                                
ID FAMCHA000101002824002839000015Interactive bumper w/URL                                                                                                                                       
ID FAMCHA000101002839002844000005Generic ID - soccer **DO NOT USE**                                                                                                                             
PROFAMCHA000101002844002916000032Sherlock Holmes - Sunday @ 5:30pm (oct)                                                                                                                        
PRCFAMCHA000101002916002950000034Misguided Angels-Monday and Thursday @ 6:45pm (oct                                                                                                             
ID FAMCHA000101002950003000000010Presentation bumper - Magic of Disney                                                                                                                          
PGRFAMCHA000101003000005228002228Movie Surfers Go Inside Disney's Fantasia 2000                                                                        A60688110                                
ID FAMCHA000101005228005243000015Interactive bumper w/URL                                                                                                                                       
ID FAMCHA000101005243005253000010Generic ID - Bubbles                                                                                                                                           
PROFAMCHA000101005253005343000050Johnny Tsunami - Friday @ 8pm on Family                                                                                                                        
PRCFAMCHA000101005343005431000048Ripley's BION - Today @ 11am (MAR)                                                                                                                             
PGRFAMCHA000101005431010204000733Get It Right Goofy                                                                                                     60687130                                
SO FAMCHA000101010204010216000012Sign Off (oct 1)                                                                                                                                               
OFFFAMCHA000101010216043000032744                                                                                                                                                               
OFFFAMCHA000102043000060000013000                                                                                                                                                               
SO FAMCHA000102060000060011000011Sign On (oct 1)                                                                                                                                                
PROFAMCHA000102060011060016000005CC Disclaimer (oct) **DO NOT USE**                                                                                                                             
PGRFAMCHA000102060016062234002218PB&J Otter                                        Bye-Bye, PB&J!/Babbleberry Day                                      A6068607ECC                              
ID FAMCHA000102062234062249000015Interactive bumper w/URL                                                                                                                                       
ID FAMCHA000102062249062259000010Generic ID - Family w/dog                                                                                                                                      
PRCFAMCHA000102062259062309000010Morning Block menu background (flex time)                                                                                                                      
PROFAMCHA000102062309062348000039Goof Troop - Today @ 4pm                                                                                                                                       
PROFAMCHA000102062348062428000040Microsoap-Sunday @ 8:30am (oct)                                                                                                                                
PGRFAMCHA000102062428062848000420Art Attack - Kit Flier                                                                                                 60686130                                
PROFAMCHA000102062848062940000052Great African Wildlife Rescue - Today at 2pm on Fa                                                                                                             
ID FAMCHA000102062940063000000020Prime time open count down                                                                                                                                     
PGRFAMCHA000102063000065508002508Muppets Tonight                                   Sandra Bullock                                                      A3068807B                                
ID FAMCHA000102065508065523000015Interactive bumper w/URL                                                                                                                                       
ID FAMCHA000102065523065528000005Generic ID - Couch 2                                                                                                                                           
PRCFAMCHA000102065528065538000010Morning Block menu background (flex time)                                                                                                                      
PROFAMCHA000102065538065613000035Lion King's Timon & Pumbaa - today @ 3:30pm                                                                                                                    
PROFAMCHA000102065613065654000041Honey I Shrunk the Kids (series oct) tonight @ 7pm                                                                                                             
PGRFAMCHA000102065654065758000104Bill Nye - Let's Talk About Stress                                                                                     60688130                                
PROFAMCHA000102065758065850000052Great African Wildlife Rescue - Today at 2pm on Fa                                                                                                             
PROFAMCHA000102065850065940000050Johnny Tsunami - Friday @ 8pm on Family                                                                                                                        
ID FAMCHA000102065940070000000020Prime time open count down                                                                                                                                     
PGRFAMCHA000102070000072404002404Clarissa                                          Clarissa's Crush                                                     2068607B                                
ID FAMCHA000102072404072419000015Interactive bumper w/URL                                                                                                                                       
ID FAMCHA000102072419072429000010Generic ID - Pink inner tube                                                                                                                                   
PROFAMCHA000102072429072509000040Microsoap-Sunday @ 8:30am (oct)                                                                                                                                
PRCFAMCHA000102072509072542000033Hoze Houndz - Tuesday @ 6:30pm on Family (oct 1)                                                                                                               
PGRFAMCHA000102072542072820000238MV Disney - Lion King 2: We are One (oct)                                                                              60688130                                
PROFAMCHA000102072820072837000017Hercules - Weekdays @ 4:30 pm (oct 1)                                                                                                                          
PROFAMCHA000102072837072909000032Sherlock Holmes - Today @ 5:30pm (oct)                                                                                                                         
PROFAMCHA000102072909072950000041Honey I Shrunk the Kids (series oct) tonight @ 7pm                                                                                                             
ID FAMCHA000102072950073000000010Presentation bumper - Magic of Disney                                                                                                                          
PROFAMCHA000102073000073005000005CC Disclaimer (oct) **DO NOT USE**                                                                                                                             
PGRFAMCHA000102073005075242002237Disney's Aladdin                                  Air Feather Friends                                                  6068607ECC                              
ID FAMCHA000102075242075257000015Interactive bumper w/URL                                                                                                                                       
ID FAMCHA000102075257075302000005Generic ID - Marbles                                                                                                                                           
PRCFAMCHA000102075302075312000010Morning Block menu background (flex time)                                                                                                                      
PROFAMCHA000102075312075412000100Tall Tale - Saturday @ 8pm w/billboard                                                                                                                         
PROFAMCHA000102075412075442000030Crash Zone - Saturday @10 am                                                                                                                                   
PROFAMCHA000102075442075514000032Sherlock Holmes - Today @ 5:30pm (oct)                                                                                                                         
PROFAMCHA000102075514075531000017Hercules - Weekdays @ 4:30 pm (oct 1)                                                                                                                          
PGRFAMCHA000102075531075805000234MV Disney - Pocahontas 2 (oct)                                                                                         60688130                                
PROFAMCHA000102075805075820000015Doug - Weekdays @ 5:00pm (oct1)                                                                                                                                
PROFAMCHA000102075820075850000030Blossom In Paris - Monday, January 10th @ 8pm                                                                                                                  
PROFAMCHA000102075850075940000050Johnny Tsunami - Friday @ 8pm on Family                                                                                                                        
ID FAMCHA000102075940080000000020Prime time open count down                                                                                                                                     
PROFAMCHA000102080000080005000005CC Disclaimer (oct) **DO NOT USE**                                                                                                                             
PGRFAMCHA000102080005082309002304Mad Libs                                          1-027                                                               A60686100CC                              
ID FAMCHA000102082309082324000015Interactive bumper w/URL                                                                                                                                       
ID FAMCHA000102082324082334000010Generic ID - Family w/dog                                                                                                                                      
PRCFAMCHA000102082334082345000011Morning Block menu background (flex time)                                                                                                                      
PROFAMCHA000102082345082445000100Tall Tale - Saturday @ 8pm w/billboard                                                                                                                         
PROFAMCHA000102082445082515000030Blossom In Paris - Monday, January 10th @ 8pm                                                                                                                  
PROFAMCHA000102082515082556000041Honey I Shrunk the Kids (series oct) tonight @ 7pm                                                                                                             
PROFAMCHA000102082556082656000100Kayla - Saturday, January 15th @ 8pm w/billboard                                                                                                               
PROFAMCHA000102082656082713000017Mentors - Version 2 - Tonight @ 6:30pm                                                                                                                         
PROFAMCHA000102082713082728000015Doug - Weekdays @ 5:00 pm (oct1)                                                                                                                               
PROFAMCHA000102082728082820000052Great African Wildlife Rescue - Today at 2pm on Fa                                                                                                             
PROFAMCHA000102082820082900000040Microsoap-Next (oct)                                                                                                                                           
PROFAMCHA000102082900082950000050Johnny Tsunami - Friday @ 8pm on Family                                                                                                                        
ID FAMCHA000102082950083000000010Prime time open top of hour                                                                                                                                    
PGRFAMCHA000102083000085334002334Microsoap                                         1-002                                                                6068607A                                
ID FAMCHA000102085334085349000015Interactive bumper w/URL                                                                                                                                       
ID FAMCHA000102085349085359000010Generic ID - confetti                                                                                                                                          
PRCFAMCHA000102085359085409000010Morning Block menu background (flex time)                                                                                                                      
PROFAMCHA000102085409085459000050Johnny Tsunami - Friday @ 8pm on Family                                                                                                                        
PROFAMCHA000102085459085529000030Britney Spears - Sunday, January 16th @ 8pm on Fam                                                                                                             
PROFAMCHA000102085529085544000015Doug - Weekdays @ 5:00 pm (oct1)                                                                                                                               
PGRFAMCHA000102085544085748000204MV Disney - You've got a friend in me (oct 1)                                                                          60688130                                
PROFAMCHA000102085748085810000022Mentors - Version 1 - Tonight @ 6:30pm                                                                                                                         
PROFAMCHA000102085810085840000030Blossom In Paris - Monday, January 10th @ 8pm                                                                                                                  
PROFAMCHA000102085840085940000100Tall Tale - Saturday @ 8pm w/billboard                                                                                                                         
ID FAMCHA000102085940090000000020Prime time open count down                                                                                                                                     
PGRFAMCHA000102090000092404002404Clarissa                                          She Drives Me Crazy                                                  2068607B                                
ID FAMCHA000102092404092419000015Interactive bumper w/URL                                                                                                                                       
ID FAMCHA000102092419092429000010Generic ID - Hula Hoop                                                                                                                                         
PRCFAMCHA000102092429092440000011Morning Block menu background (flex time)                                                                                                                      
PROFAMCHA000102092440092530000050Johnny Tsunami - Friday @ 8pm on Family                                                                                                                        
PROFAMCHA000102092530092622000052Great African Wildlife Rescue - Today at 2pm on Fa                                                                                                             
PGRFAMCHA000102092622092738000116Bill Nye - How Can We Communicate?                                                                                     60688130                                
PROFAMCHA000102092738092808000030Britney Spears - Sunday, January 16th @ 8pm on Fam                                                                                                             
PROFAMCHA000102092808092840000032Sherlock Holmes - Today @ 5:30pm (oct)                                                                                                                         
PROFAMCHA000102092840092940000100Tall Tale - Saturday @ 8pm w/billboard                                                                                                                         
ID FAMCHA000102092940093000000020Prime time open count down                                                                                                                                     
PROFAMCHA000102093000093005000005CC Disclaimer (oct) **DO NOT USE**                                                                                                                             
PGRFAMCHA000102093005095233002228Blossom                                           Expectations                                                         6068807ACC                              
ID FAMCHA000102095233095248000015Interactive bumper w/URL                                                                                                                                       
ID FAMCHA000102095248095258000010Generic ID - soccer **DO NOT USE**                                                                                                                             
PRCFAMCHA000102095258095310000012Morning Block menu background (flex time)                                                                                                                      
PROFAMCHA000102095310095400000050Johnny Tsunami - Friday @ 8pm on Family                                                                                                                        
PROFAMCHA000102095400095430000030Blossom In Paris - Monday, January 10th @ 8pm                                                                                                                  
PRCFAMCHA000102095430095504000034Misguided Angels-Monday and Thursday @ 6:45pm (oct                                                                                                             
PGRFAMCHA000102095504095729000225MV Disney - T&P - Yummy,Yummy,Yummy                                                                                    60688130                                
PROFAMCHA000102095729095759000030Britney Spears - Sunday, January 16th @ 8pm on Fam                                                                                                             
PROFAMCHA000102095759095840000041Honey I Shrunk the Kids (series oct) tonight @ 7pm                                                                                                             
PROFAMCHA000102095840095940000100Tall Tale - Saturday @ 8pm w/billboard                                                                                                                         
ID FAMCHA000102095940100000000020Prime time open count down                                                                                                                                     
PGRFAMCHA000102100000102526002526Famous Fred                                                                                                           A3068607E                                
ID FAMCHA000102102526102541000015Interactive bumper w/URL                                                                                                                                       
ID FAMCHA000102102541102551000010Generic ID - soccer **DO NOT USE**                                                                                                                             
PRCFAMCHA000102102551102559000008Morning Block menu background (flex time)                                                                                                                      
PROFAMCHA000102102559102649000050Johnny Tsunami - Friday @ 8pm on Family                                                                                                                        
PROFAMCHA000102102649102730000041Honey I Shrunk the Kids (series oct) tonight @ 7pm                                                                                                             
PROFAMCHA000102102730102752000022Mentors - Version 1 - Tonight @ 6:30pm                                                                                                                         
PRCFAMCHA000102102752102840000048Ripley's BION - Today @ 5pm (MAR)                                                                                                                              
PROFAMCHA000102102840102940000100Tall Tale - Saturday @ 8pm w/billboard                                                                                                                         
ID FAMCHA000102102940103000000020Move open family size movie                                                                                                                                    
PROFAMCHA000102103000103007000007Rating - G (oct )                                                                                                                                              
PROFAMCHA000102103007103012000005CC Disclaimer (oct) **DO NOT USE**                                                                                                                             
ID FAMCHA000102103012103022000010Presentation bumper - Magic of Disney                                                                                                                          
PGRFAMCHA000102103022120125013103Computer Wore Tennis Shoes; The                                                                                       A6068807DCC                              
ID FAMCHA000102120125120130000005Generic ID - Bubbles                                                                                                                                           
ID FAMCHA000102120130120150000020Move open family size movie                                                                                                                                    
PROFAMCHA000102120150120157000007Rating - G (oct )                                                                                                                                              
PROFAMCHA000102120157120202000005CC Disclaimer (oct) **DO NOT USE**                                                                                                                             
PGRFAMCHA000102120202133444013242Coyote Summer                                                                                                         A2068807CCC                              
ID FAMCHA000102133444133449000005Generic ID - Couch 1                                                                                                                                           
PRCFAMCHA000102133449133500000011Morning Block menu background (flex time)                                                                                                                      
PROFAMCHA000102133500133505000005CC Disclaimer (oct) **DO NOT USE**                                                                                                                             
PGRFAMCHA000102133505135811002306Disney Presents Bill Nye the Science Guy          Sound                                                                60686110CC                              
ID FAMCHA000102135811135826000015Interactive bumper w/URL                                                                                                                                       
ID FAMCHA000102135826135833000007Generic ID - Whisper                                                                                                                                           
PRCFAMCHA000102135833135843000010Morning Block menu background (flex time)                                                                                                                      
PROFAMCHA000102135843135933000050Johnny Tsunami - Friday @ 8pm on Family                                                                                                                        
PROFAMCHA000102135933135950000017Hercules - Weekdays @ 4:30 pm (oct 1)                                                                                                                          
ID FAMCHA000102135950140000000010Prime time open top of hour                                                                                                                                    
PGRFAMCHA000102140000142413002413Great African Wildlife Rescue; The                Experience of a Lifetime - White Rhino                               60688110                                
ID FAMCHA000102142413142428000015Interactive bumper w/URL                                                                                                                                       
ID FAMCHA000102142428142438000010Generic ID - Ring around the rosie                                                                                                                             
PRCFAMCHA000102142438142449000011Morning Block menu background (flex time)                                                                                                                      
PROFAMCHA000102142449142549000100Tall Tale - Saturday @ 8pm w/billboard                                                                                                                         
PROFAMCHA000102142549142630000041Honey I Shrunk the Kids (series oct) tonight @ 7pm                                                                                                             
PROFAMCHA000102142630142657000027Recess - Weekdays @ 5:30 pm (oct1)                                                                                                                             
PROFAMCHA000102142657142743000046Contest - It's Time for Britney on Family                                                                                                                      
PROFAMCHA000102142743142813000030Britney Spears - Sunday, January 16th @ 8pm on Fam                                                                                                             
PROFAMCHA000102142813142843000030So Weird - Tonight at 6:00 pm (oct1 )                                                                                                                          
PROFAMCHA000102142843142900000017Mentors - Version 2 - Tonight @ 6:30pm                                                                                                                         
PROFAMCHA000102142900142950000050Johnny Tsunami - Friday @ 8pm on Family                                                                                                                        
ID FAMCHA000102142950143000000010Presentation bumper - Magic of Disney                                                                                                                          
PROFAMCHA000102143000143005000005CC Disclaimer (oct) **DO NOT USE**                                                                                                                             
PGRFAMCHA000102143005145248002243Darkwing Duck                                     Paraducks                                                            6068607ECC                              
ID FAMCHA000102145248145303000015Interactive bumper w/URL                                                                                                                                       
ID FAMCHA000102145303145308000005Generic ID - Bubbles                                                                                                                                           
PRCFAMCHA000102145308145318000010Morning Block menu background (flex time)                                                                                                                      
PROFAMCHA000102145318145408000050Johnny Tsunami - Friday @ 8pm on Family                                                                                                                        
PROFAMCHA000102145408145440000032Sherlock Holmes - Today @ 5:30pm (oct)                                                                                                                         
PGRFAMCHA000102145440145640000200Disney Circle Time - The Lion & The Mouse Fable (a                                                                     60688130                                
PROFAMCHA000102145640145726000046Contest - It's Time for Britney on Family                                                                                                                      
PROFAMCHA000102145726145756000030Britney Spears - Sunday, January 16th @ 8pm on Fam                                                                                                             
