SO FAMCHA050801043000043011000011Sign On (oct 1)                                                                                                                                                
PROFAMCHA050801043011043020000009CC Disclaimer - FAST - Family.ca (:08-:10)                                                                                  150                                
PGRFAMCHA050801043020045313002253Franklin                                          EPS # 4-042                                                   B38149A1065607ECC                              
PRCFAMCHA050801045313045318000005Astral ID (FEB05)                                                                                                           150                                
PROFAMCHA050801045318045333000015PS - 01(PH) - WTP/Benjamin/Franny                                                                                           150                                
ID FAMCHA050801045333045346000013PS Playhouse AM Block Open (:10-:15)                                                                                        150                                
PROFAMCHA050801045346045355000009CC Disclaimer - FAST - Family.ca (:08-:10)                                                                                  150                                
PGRFAMCHA050801045355051625002230King                                              EP: 009                                                       B75764A1065607ECC                              
PROFAMCHA050801051625051640000015PS - 01(PH) - WTP/Benjamin/Franny                                                                                           150                                
ID FAMCHA050801051640051653000013PS Playhouse AM Block Open (:10-:15)                                                                                        150                                
PROFAMCHA050801051653051702000009CC Disclaimer - FAST - Family.ca (:08-:10)                                                                                  150                                
PGRFAMCHA050801051702054337002635Katie And Orbie                                   EP: 3-027                                                     C12449A1065607ECC                              
PRCFAMCHA050801054337054342000005Astral ID (FEB05)                                                                                                           150                                
PROFAMCHA050801054342054358000016PS - 01(PH) - WTP/Benjamin/Franny                                                                                           150                                
ID FAMCHA050801054358054411000013PS Playhouse AM Block Open (:10-:15)                                                                                        150                                
PROFAMCHA050801054411054420000009CC Disclaimer - FAST - Family.ca (:08-:10)                                                                                  150                                
PGRFAMCHA050801054420060713002253Franklin                                          EP: 4-043                                                     B38150A1065607ECC                              
PROFAMCHA050801060713060728000015PS - 01(PH) - WTP/Benjamin/Franny                                                                                           150                                
ID FAMCHA050801060728060741000013PS Playhouse AM Block Open (:10-:15)                                                                                        150                                
PROFAMCHA050801060741060750000009CC Disclaimer - FAST - Family.ca (:08-:10)                                                                                  150                                
PGRFAMCHA050801060750063021002231Something Else                                    EP: 1-010                                                     B69264A1065607ECC                              
PRCFAMCHA050801063021063026000005Astral ID (FEB05)                                                                                                           150                                
PROFAMCHA050801063026063041000015PS - 01(PH) - WTP/Benjamin/Franny                                                                                           150                                
ID FAMCHA050801063041063054000013PS Playhouse AM Block Open (:10-:15)                                                                                        150                                
PROFAMCHA050801063054063103000009CC Disclaimer - FAST - Family.ca (:08-:10)                                                                                  150                                
PGRFAMCHA050801063103065338002235Hoze Houndz                                       EP: 2-019                                                     B34008 1065607ECC                              
PROFAMCHA050801065338065353000015PS - 01(PH) - WTP/Benjamin/Franny                                                                                           150                                
ID FAMCHA050801065353065407000014Mad Dash Block Open (:13-:15)                                                                                               150                                
PROFAMCHA050801065407065416000009CC Disclaimer - FAST - Family.ca (:08-:10)                                                                                  150                                
PGRFAMCHA050801065416071651002235Disney's Aladdin                                  EP: 1-018                                                            6068607ECC                              
PRCFAMCHA050801071651071656000005Astral ID (FEB05)                                                                                                           150                                
PROFAMCHA050801071656071711000015PS - 01(PH) - WTP/Benjamin/Franny                                                                                           150                                
PRCFAMCHA050801071711071741000030MMS - Mad Mad Summer - Weekday Afternoons..All SumEP: 46                                                                    150                                
PROFAMCHA050801071741071811000030Kim Possible 007 (FEB05) (MD) - Coming Up Next                                                                              150                                
PROFAMCHA050801071811071853000042Family Kicks - 3x, daily (MD/NS/NSW)                                                                                        150                                
PROFAMCHA050801071853071925000032MMS - Dave the Barbarian - WASTE - Today @ 1:15pm                                                                           150                                
PROFAMCHA050801071925071946000021MMS - Proud Family - Today @ 2:10pm                                                                                         150                                
PROFAMCHA050801071946072016000030Air Bud Spikes Back (WDP) - Sunday @ 12pm                                                                                   150                                
PROFAMCHA050801072016072047000031Full Court Miracle (WDP) - Sunday @ 1:30pm                                                                                  150                                
ID FAMCHA050801072047072100000013Mad Dash Block Open (:13-:15)                                                                                               150                                
PGRFAMCHA050801072100074354002254Disney's Kim Possible                             EPS # 1-052                                                         A6068607E                                
PROFAMCHA050801074354074408000014PS - 01(PH) - WTP/Benjamin/Franny                                                                                           150                                
PRCFAMCHA050801074408074438000030MMS - Mad Mad Summer - Weekday Afternoons..All SumEP: 46                                                                    150                                
PROFAMCHA050801074438074506000028xxLilo & Stitch (MD) (JAN05) - Coming Up Next                                                                               150                                
PROFAMCHA050801074506074649000143xxLittle Mermaid (Long) - Today 8:15am                                                                                      150                                
PROFAMCHA050801074649074704000015MMS - Fillmore! - Today @ 12pm                                                                                              150                                
INTFAMCHA050801074704074756000052Gagsters - Balloon Busters                        EP: 46                                                              A20686120                                
PROFAMCHA050801074756074818000022MMS - Recess - Today @ 12:50pm                                                                                              150                                
PROFAMCHA050801074818074848000030Miracle In Lane 2 (WDP) - Saturday @ 12pm                                                                                   150                                
ID FAMCHA050801074848074902000014Mad Dash Block Open (:13-:15)                                                                                               150                                
PGRFAMCHA050801074902081140002238Disney's Lilo & Stitch                            EPS # 38                                                            A6068607E                                
PRCFAMCHA050801081140081145000005Astral ID (FEB05)                                                                                                           150                                
PROFAMCHA050801081145081159000014PS - 01(PH) - WTP/Benjamin/Franny                                                                                           150                                
PRCFAMCHA050801081159081229000030MMS - Mad Mad Summer - Weekday Afternoons..All SumEP: 46                                                                    150                                
PROFAMCHA050801081229081412000143xxLittle Mermaid (Long) - Coming Up Next                                                                                    150                                
PROFAMCHA050801081412081436000024MMS - Weekenders - Today @ 12:25pm                                                                                          150                                
PROFAMCHA050801081436081458000022MMS - Recess - Today @ 12:50pm                                                                                              150                                
PROFAMCHA050801081458081525000027MMS - Dave the Barbarian - SCREAM - Today @ 1:15pm                                                                          150                                
PROFAMCHA050801081525081555000030MMS - Kim Possible - Today @ 1:40pm                                                                                         150                                
PROFAMCHA050801081555081619000024MMS - Lizzie McGuire - Today @ 2:35pm                                                                                       150                                
PROFAMCHA050801081619081649000030Air Bud Spikes Back (WDP) - Sunday @ 12pm                                                                                   150                                
ID FAMCHA050801081649081702000013Mad Dash Block Open (:13-:15)                                                                                               150                                
PROFAMCHA050801081702081711000009CC Disclaimer - FAST - Family.ca (:08-:10)                                                                                  150                                
PGRFAMCHA050801081711084015002304The Little Mermaid                                EP: 1-020                                                            6068607ECC                              
PROFAMCHA050801084015084030000015PS - 01(PH) - WTP/Benjamin/Franny                                                                                           150                                
PRCFAMCHA050801084030084045000015xxFranny's Feet - Bowleriffic (PH) - Coming Up Nex                                                                          150                                
PROFAMCHA050801084045084115000030xxWinnie the Pooh (SONG) (PH/AM) - Today @ 9:10am                                                                           150                                
INTFAMCHA050801084115084250000135They Might Be Giants (ABC's) - Letter Shapes                                                                           60688120                                
PROFAMCHA050801084250084324000034xxJojo's Circus - GIGGLECORN - Today @ 9:40am                                                                               150                                
PROFAMCHA050801084324084354000030Stanley - Get Into It (MAR05) - (PH-M/W/F) - Today                                                                          150                                
PRCFAMCHA050801084354084429000035Playhouse - KATIE & ORBIE - Did You Know?                                                                                   150                                
PROFAMCHA050801084429084448000019xxHenry's World (JAN05) - Today @ 10:35am                                                                                   150                                
ID FAMCHA050801084448084500000012PS Playhouse PM Block Open (:10-:15)                                                                                        150                                
PROFAMCHA050801084500084509000009CC Disclaimer - FAST - Family.ca (:08-:10)                                                                                  150                                
PGRFAMCHA050801084509090739002230Franny's Feet                                     EPS # 1-010                                                   C23970A1065607ECC                              
PRCFAMCHA050801090739090744000005Astral ID (FEB05)                                                                                                           150                                
PROFAMCHA050801090744090759000015PS - 01(PH) - WTP/Benjamin/Franny                                                                                           150                                
PROFAMCHA050801090759090829000030xxWinnie the Pooh (SONG) (PH/AM) - Coming Up Next                                                                           150                                
ID FAMCHA050801090829090844000015Franny's Feet Web BBD - Part of Playhouse @ family                                                                          150                                
PROFAMCHA050801090844090914000030Stanley - Get Into It (MAR05) - (PH-M/W/F) - Today                                                                          150                                
INTFAMCHA050801090914091129000215Disney Circle Time (2005) - Endless Story                                                                              60688120                                
PROFAMCHA050801091129091148000019xxHenry's World (JAN05) - Today @ 10:35am                                                                                   150                                
PROFAMCHA050801091148091219000031MMS - King (PH) - Today @ 11:05am                                                                                           150                                
PROFAMCHA050801091219091249000030xxHigglytown Heroes (MAR05) (T/T) - Tomorrow @ 10:                                                                          150                                
ID FAMCHA050801091249091300000011PS Playhouse AM Block Open (:10-:15)                                                                                        150                                
PROFAMCHA050801091300091309000009CC Disclaimer - FAST - Family.ca (:08-:10)                                                                                  150                                
PGRFAMCHA050801091309093550002241The New Adventures of Winnie the Pooh             EP: 1-034                                                            6068607ECC                              
PROFAMCHA050801093550093605000015PS - 01(PH) - WTP/Benjamin/Franny                                                                                           150                                
PROFAMCHA050801093605093639000034xxJojo's Circus - GIGGLECORN - Coming Up Next                                                                               150                                
PROFAMCHA050801093639093709000030Stanley - Get Into It (MAR05) - (PH-M/W/F) - Today                                                                          150                                
PROFAMCHA050801093709093728000019xxHenry's World (JAN05) - Today @ 10:35am                                                                                   150                                
PROFAMCHA050801093728093759000031MMS - King (PH) - Today @ 11:05am                                                                                           150                                
PRCFAMCHA050801093759093819000020xxBenjamin Bear - Snack (PH-T/T) - Tomorrow @ 8:45                                                                          150                                
PRCFAMCHA050801093819093848000029Playhouse - HOUSE OF MOUSE - Snug                                                                                           150                                
PROFAMCHA050801093848093918000030xxHigglytown Heroes (MAR05) (T/T) - Tomorrow @ 10:                                                                          150                                
PROFAMCHA050801093918093948000030Playhouse (FUNTIMES) - (AM) - Weekdays @ 8:30am                                                                       A     150                                
ID FAMCHA050801093948094000000012PS Playhouse AM Block Open (:10-:15)                                                                                        150                                
PGRFAMCHA050801094000100408002408JoJo's Circus                                     EPS # 08                                                            A6068607E                                
PRCFAMCHA050801100408100413000005Astral ID (FEB05)                                                                                                           150                                
PROFAMCHA050801100413100428000015PS - 01(PH) - WTP/Benjamin/Franny                                                                                           150                                
PROFAMCHA050801100428100458000030Stanley - Get Into It (MAR05) - (PH-M/W/F) - Comin                                                                          150                                
PROFAMCHA050801100458100517000019xxHenry's World (JAN05) - Today @ 10:35am                                                                                   150                                
PROFAMCHA050801100517100548000031MMS - King (PH) - Today @ 11:05am                                                                                           150                                
PRCFAMCHA050801100548100600000012xxBenjamin Bear - Slide (PH-T/T) - Tomorrow @ 8:45                                                                          150                                
PRCFAMCHA050801100600100706000106Playhouse - WINNIE THE POOH - Christopher Robin                                                                             150                                
PROFAMCHA050801100706100736000030xxHigglytown Heroes (MAR05) (T/T) - Tomorrow @ 10:                                                                          150                                
PRCFAMCHA050801100736100748000012Family Bumpers - (Phase 1 Spring 04) - Funhouse (P                                                                          150                                
ID FAMCHA050801100748100800000012PS Playhouse AM Block Open (:10-:15)                                                                                        150                                
PROFAMCHA050801100800100809000009CC Disclaimer - FAST - Family.ca (:08-:10)                                                                                  150                                
PGRFAMCHA050801100809103214002405Stanley                                           EP: 1-045                                                           A6068607ECC                              
PROFAMCHA050801103214103229000015SCMMS - 03 - HENRY/KING/LILO (:14 - :16) (JULY05)                                                                           150                                
PROFAMCHA050801103229103248000019xxHenry's World (JAN05) - Coming Up Next                                                                                    150                                
PROFAMCHA050801103248103319000031MMS - King (PH) - Today @ 11:05am                                                                                           150                                
PRCFAMCHA050801103319103331000012xxBenjamin Bear - Slide (PH-T/T) - Tomorrow @ 8:45                                                                          150                                
PRCFAMCHA050801103331103427000056Playhouse - STANLEY - Fish Song                                                                                             150                                
PROFAMCHA050801103427103501000034xxJojo's Circus - GIGGLECORN - Tomorrow @ 9:40am                                                                            150                                
PROFAMCHA050801103501103531000030xxHigglytown Heroes (MAR05) (T/T) - Tomorrow @ 10:                                                                          150                                
PROFAMCHA050801103531103550000019xxHenry's World (JAN05) - Tomorrow @ 10:35am                                                                                150                                
ID FAMCHA050801103550103601000011PS Playhouse AM Block Open (:10-:15)                                                                                        150                                
PROFAMCHA050801103601103610000009CC Disclaimer - FAST - Family.ca (:08-:10)                                                                                  150                                
PGRFAMCHA050801103610110010002400Henry's World                                     EP: 1-012                                                     B66554A1065607GCC                              
PRCFAMCHA050801110010110015000005Astral ID (FEB05)                                                                                                           150                                
PROFAMCHA050801110015110030000015SCMMS - 04 - KING/LILO (:14 - :16) (JULY05)                                                                                 150                                
PROFAMCHA050801110030110101000031MMS - King (PH) - Coming Up Next                                                                                            150                                
PROFAMCHA050801110101110135000034xxJojo's Circus - GIGGLECORN - Today @ 9:40am                                                                               150                                
PRCFAMCHA050801110135110155000020xxBenjamin Bear - Snack (PH-T/T) - Tomorrow @ 8:45                                                                          150                                
INTFAMCHA050801110155110305000110They Might Be Giants (ABC's) - Letter/Not A Letter                                                                     60688120                                
PROFAMCHA050801110305110335000030xxHigglytown Heroes (MAR05) (T/T) - Tomorrow @ 10:                                                                          150                                
ID FAMCHA050801110335110350000015Franny's Feet Web BBD - Part of Playhouse @ family                                                                          150                                
ID FAMCHA050801110350110401000011PS Playhouse AM Block Open (:10-:15)                                                                                        150                                
PROFAMCHA050801110401110411000010CC Disclaimer - FAST - Family.ca (:08-:10)                                                                                  150                                
PGRFAMCHA050801110411112641002230King                                              EPS # 028                                                     A00332A1065607ECC                              
PROFAMCHA050801112641112657000016SCMMS - 05 - LILO/MADMADSUMMER (:14 - :16) (JULY05                                                                          150                                
PROFAMCHA050801112657112734000037Beautiful Girl - Pageant (PP) - Friday @ 7:30pm                                                                             150                                
PROFAMCHA050801112734112802000028MMS - Lilo and Stitch - Coming Up Next                                                                                      150                                
PRCFAMCHA050801112802112847000045Famous Players Popcorn Parties                                                                                              150                                
PROFAMCHA050801112847112902000015MMS - Fillmore! - Today @ 12pm                                                                                              150                                
PROFAMCHA050801112902112926000024MMS - Weekenders - Today @ 12:25pm                                                                                          150                                
PROFAMCHA050801112926112948000022MMS - Recess - Today @ 12:50pm                                                                                              150                                
INTFAMCHA050801112948113040000052Gagsters - Balloon Busters                        EP: 46                                                              A20686120                                
PROFAMCHA050801113040113110000030Air Bud Spikes Back (WDP) - Sunday @ 12pm                                                                                   150                                
PROFAMCHA050801113110113141000031Full Court Miracle (WDP) - Sunday @ 1:30pm                                                                                  150                                
PRCFAMCHA050801113141113147000006Family Bumpers - (Phase 2 F/W 04) - Gymnastics (MD                                                                          150                                
ID FAMCHA050801113147113205000018MMS - Mad Mad Summer Block Open                                                                                             150                                
PGRFAMCHA050801113205115444002239Disney's Lilo & Stitch: The Series                EP: 52                                                               6068607E                                
PRCFAMCHA050801115444115449000005Astral ID (FEB05)                                                                                                           150                                
PROFAMCHA050801115449115501000012SCMMS - 06 - FILLMORE/WEEKENDERS/RECESS (12pm)                                                                              150                                
PRCFAMCHA050801115501115508000007MMS - Mad Mad Summer Bumper - You're Watching MMS.                                                                          150                                
PROFAMCHA050801115508115523000015MMS - Fillmore! - Coming Up Next                                                                                            150                                
PROFAMCHA050801115523115547000024MMS - Weekenders - Today @ 12:25pm                                                                                          150                                
PROFAMCHA050801115547115629000042Family Kicks - 3x, daily (MD/NS/NSW)                                                                                        150                                
PROFAMCHA050801115629115651000022MMS - Recess - Today @ 12:50pm                                                                                              150                                
INTFAMCHA050801115651115758000107Gagsters - World Cup Kicker                       EP: 46                                                              A20686120                                
PROFAMCHA050801115758115830000032MMS - Dave the Barbarian - WASTE - Today @ 1:15pm                                                                           150                                
PROFAMCHA050801115830115907000037Beautiful Girl - Pageant (PP) - Friday @ 7:30pm                                                                             150                                
PROFAMCHA050801115907115937000030Miracle In Lane 2 (WDP) - Saturday @ 12pm                                                                                   150                                
PRCFAMCHA050801115937115946000009Family Bumpers - (Phase 1 Spring 04) - Baseball (M                                                                          150                                
ID FAMCHA050801115946120006000020MMS - Mad Mad Summer Block Open                                                                                             150                                
PGRFAMCHA050801120006122244002238Disney's Fillmore!                                EP: 1-002                                                           A6068607E                                
PROFAMCHA050801122244122256000012SCMMS - 07 - WEEKENDERS/RECESS/DAVE (12:25pm)                                                                               150                                
PRCFAMCHA050801122256122303000007MMS - Mad Mad Summer Bumper - You're Watching MMS.                                                                          150                                
PROFAMCHA050801122303122327000024MMS - Weekenders - Coming Up Next                                                                                           150                                
PROFAMCHA050801122327122357000030Miracle In Lane 2 (WDP) - Saturday @ 12pm                                                                                   150                                
INTFAMCHA050801122357122418000021Recess Sketches - Cajoling Gus - Miss Finster Gus                                                                      60686120                                
PROFAMCHA050801122418122448000030Air Bud Spikes Back (WDP) - Sunday @ 12pm                                                                                   150                                
ID FAMCHA050801122448122506000018MMS - Mad Mad Summer Block Open                                                                                             150                                
PROFAMCHA050801122506122515000009CC Disclaimer - FAST - Family.ca (:08-:10)                                                                                  150                                
PGRFAMCHA050801122515124747002232Disney's The Weekenders                           EP: 1-021                                                           A6068607ECC                              
PRCFAMCHA050801124747124752000005Astral ID (FEB05)                                                                                                           150                                
PROFAMCHA050801124752124807000015SCMMS - 08 - RECESS/DAVE/KIM (12:50pm)                                                                                      150                                
PRCFAMCHA050801124807124814000007MMS - Mad Mad Summer Bumper - You're Watching MMS.                                                                          150                                
PROFAMCHA050801124814124836000022MMS - Recess - Coming Up Next                                                                                               150                                
PROFAMCHA050801124836124908000032MMS - Dave the Barbarian - WASTE - Today @ 1:15pm                                                                           150                                
PROFAMCHA050801124908124945000037Beautiful Girl - Pageant (PP) - Friday @ 7:30pm                                                                             150                                
PROFAMCHA050801124945124952000007Zoey 101 ID - You're watching family..NADM                                                                                  150                                
ID FAMCHA050801124952125010000018MMS - Mad Mad Summer Block Open                                                                                             150                                
PGRFAMCHA050801125010131245002235Disney's Recess                                   EP: 1-027                                                            6068607E                                
PROFAMCHA050801131245131259000014SCMMS - 09 - DAVE/KIM/PROUD (1:15pm)                                                                                        150                                
PRCFAMCHA050801131259131306000007MMS - Mad Mad Summer Bumper - You're Watching MMS.                                                                          150                                
PROFAMCHA050801131306131338000032MMS - Dave the Barbarian - WASTE - Coming Up Next                                                                           150                                
PROFAMCHA050801131338131359000021MMS - Proud Family - Today @ 2:10pm                                                                                         150                                
PRCFAMCHA050801131359131421000022Family Lab - Amazing Pet Talker Cutdown - Cat (Pig                                                                          150                                
PROFAMCHA050801131421131451000030Air Bud Spikes Back (WDP) - Sunday @ 12pm                                                                                   150                                
ID FAMCHA050801131451131509000018MMS - Mad Mad Summer Block Open                                                                                             150                                
PGRFAMCHA050801131509133748002239Disney's Dave the Barbarian                       EPS # 14                                                             6068607E                                
PRCFAMCHA050801133748133753000005Astral ID (FEB05)                                                                                                           150                                
PROFAMCHA050801133753133808000015SCMMS - 10 - KIM/PROUD/LIZZIE (1:40pm)                                                                                      150                                
PRCFAMCHA050801133808133815000007MMS - Mad Mad Summer Bumper - You're Watching MMS.                                                                          150                                
PROFAMCHA050801133815133835000020Laurentien - DO IT - (Aug 1 - 31)                                                                                           150                                
PROFAMCHA050801133835133912000037Beautiful Girl - Pageant (PP) - Friday @ 7:30pm                                                                             150                                
PRCFAMCHA050801133912133932000020Summer Chill - Road Trip Game (web) (July 10)                                                                               150                                
PROFAMCHA050801133932133947000015MMS - Fillmore! - Today @ 3pm                                                                                               150                                
PRCFAMCHA050801133947133953000006Family Bumpers - (Phase 3 Spring 05) - Bubble Gum                                                                           150                                
ID FAMCHA050801133953134011000018MMS - Mad Mad Summer Block Open                                                                                             150                                
PGRFAMCHA050801134011140304002253Disney's Kim Possible                             EPS # 1-060                                                          6068607E                                
PROFAMCHA050801140304140317000013SCMMS - 11 - PROUD/LIZZIE/FILLMORE (2:10pm)                                                                                 150                                
PRCFAMCHA050801140317140347000030MMS - Mad Mad Summer - Weekday Afternoons..All SumEP: 46                                                                    150                                
PROFAMCHA050801140347140408000021MMS - Proud Family - Coming Up Next                                                                                         150                                
PRCFAMCHA050801140408140457000049Raven/Sears Contest (July 25 - Aug 30)                                                                                      150                                
PROFAMCHA050801140457140527000030Miracle In Lane 2 (WDP) - Saturday @ 12pm                                                                                   150                                
PROFAMCHA050801140527140551000024MMS - Lizzie McGuire - Today @ 2:35pm                                                                                       150                                
PRCFAMCHA050801140551140622000031NBA Jam Session 2005 - (July 13 - Sep 19) (3x)                                                                              150                                
PROFAMCHA050801140622140637000015MMS - Fillmore! - Today @ 3pm                                                                                               150                                
PROFAMCHA050801140637140701000024MMS - Weekenders - Today @ 3:25pm                                                                                           150                                
PRCFAMCHA050801140701140746000045Famous Players Popcorn Parties                                                                                              150                                
PROFAMCHA050801140746140816000030Air Bud Spikes Back (WDP) - Sunday @ 12pm                                                                                   150                                
INTFAMCHA050801140816140911000055Gagsters                                          EP: 46                                                              A20686120                                
PROFAMCHA050801140911140942000031Full Court Miracle (WDP) - Sunday @ 1:30pm                                                                                  150                                
PRCFAMCHA050801140942140954000012Family Bumpers - (Phase 1 Spring 04) - Picnic (MD-                                                                          150                                
ID FAMCHA050801140954141012000018MMS - Mad Mad Summer Block Open                                                                                             150                                
PROFAMCHA050801141012141020000008CC Disclaimer - FAST - Family.ca (:08-:10)                                                                                  150                                
PGRFAMCHA050801141020143252002232The Proud Family                                  EP: 2-005                                                           A6068807ECC                              
PRCFAMCHA050801143252143257000005Astral ID (FEB05)                                                                                                           150                                
PROFAMCHA050801143257143308000011SCMMS - 12 - LIZZIE/FILLMORE/WEEKENDERS (2:35pm)                                                                            150                                
PROFAMCHA050801143308143332000024MMS - Lizzie McGuire - Coming Up Next                                                                                       150                                
PRCFAMCHA050801143332143421000049Raven/Sears Contest (July 25 - Aug 30)                                                                                      150                                
PRCFAMCHA050801143421143451000030MMS - Mad Mad Summer - Weekday Afternoons..All SumEP: 46                                                                    150                                
ID FAMCHA050801143451143509000018MMS - Mad Mad Summer Block Open                                                                                             150                                
ID FAMCHA050801143509143518000009Magic of Disney - MAD DASH - Shape (:06-:09)                                                                                150                                
PROFAMCHA050801143518143526000008CC Disclaimer - FAST - Family.ca (:08-:10)                                                                                  150                                
PGRFAMCHA050801143526145757002231Lizzie McGuire                                    EP: 2-017                                                           A6068607BCC                              
PROFAMCHA050801145757145809000012SCMMS - 13 - FILLMORE/WEEKENDERS/RECESS (3pm)                                                                               150                                
PRCFAMCHA050801145809145816000007MMS - Mad Mad Summer Bumper - You're Watching MMS.                                                                          150                                
PROFAMCHA050801145816145858000042Family Kicks - 3x, daily (MD/NS/NSW)                                                                                        150                                
PROFAMCHA050801145858145935000037Beautiful Girl - Pageant (PP) - Friday @ 7:30pm                                                                             150                                
PRCFAMCHA050801145935145950000015Family Lab - Amazing Pet Talker Cutdown - Dog                                                                               150                                
ID FAMCHA050801145950150008000018MMS - Mad Mad Summer Block Open                                                                                             150                                
PGRFAMCHA050801150008152247002239Disney's Fillmore!                                EPS # 1-003                                                         A6068607E                                
PRCFAMCHA050801152247152252000005Astral ID (FEB05)                                                                                                           150                                
PROFAMCHA050801152252152304000012SCMMS - 14 - WEEKENDERS/RECESS/DAVE (3:25pm)                                                                                150                                
PRCFAMCHA050801152304152311000007MMS - Mad Mad Summer Bumper - You're Watching MMS.                                                                          150                                
PROFAMCHA050801152311152351000040xxBailey's Billions Blast Interstitial - In Theatr                                                                          150                                
PROFAMCHA050801152351152430000039Ned's - 13 days of Neducation - Coming Soon Aug 17                                                                          150                                
PRCFAMCHA050801152430152441000011Naturally Sadie ID's - I'm Charlotte, you're watch                                                                          150                                
PRCFAMCHA050801152441152450000009Family Bumpers - (Phase 1 Spring 04) - Soccer (MD-                                                                          150                                
ID FAMCHA050801152450152508000018MMS - Mad Mad Summer Block Open                                                                                             150                                
PROFAMCHA050801152508152517000009CC Disclaimer - FAST - Family.ca (:08-:10)                                                                                  150                                
PGRFAMCHA050801152517154750002233Disney's The Weekenders                           EP: 1-022                                                           A6068607ECC                              
PROFAMCHA050801154750154802000012SCMMS - 15 - RECESS/DAVE/KIM (3:50pm)                                                                                       150                                
PRCFAMCHA050801154802154809000007MMS - Mad Mad Summer Bumper - You're Watching MMS.                                                                          150                                
PROFAMCHA050801154809154902000053xxBad News Bears - In Theatres Now (July 22 - Aug                                                                           150                                
PROFAMCHA050801154902154939000037Beautiful Girl - Pageant (PP) - Friday @ 7:30pm                                                                             150                                
PRCFAMCHA050801154939154950000011Family Bumpers - (Phase 2 F/W 04) - Science (MD-AM                                                                          150                                
ID FAMCHA050801154950155008000018MMS - Mad Mad Summer Block Open                                                                                             150                                
PGRFAMCHA050801155008161244002236Disney's Recess                                   EP: 1-028                                                            6068607E                                
PRCFAMCHA050801161244161249000005Astral ID (FEB05)                                                                                                           150                                
PROFAMCHA050801161249161302000013SCMMS - 16 - DAVE/KIM/PROUD (4:15pm)                                                                                        150                                
PRCFAMCHA050801161302161309000007MMS - Mad Mad Summer Bumper - You're Watching MMS.                                                                          150                                
PRCFAMCHA050801161309161324000015Wendy's Team of the Week BBD - (Aug 1 - 7)                                                                                  150                                
PROFAMCHA050801161324161354000030Air Bud Spikes Back (WDP) - Sunday @ 12pm                                                                                   150                                
PRCFAMCHA050801161354161425000031NBA Jam Session 2005 - (July 13 - Sep 19) (3x)                                                                              150                                
PROFAMCHA050801161425161456000031Full Court Miracle (WDP) - Sunday @ 1:30pm                                                                                  150                                
PROFAMCHA050801161456161535000039Ned's - 13 days of Neducation - Coming Soon Aug 17                                                                          150                                
PRCFAMCHA050801161535161544000009Naturally Sadie ID's - You're watching Family...NA                                                                          150                                
PRCFAMCHA050801161544161551000007Family Bumpers - (Phase 2 F/W 04) - Hockey (MD-L/M                                                                          150                                
ID FAMCHA050801161551161609000018MMS - Mad Mad Summer Block Open                                                                                             150                                
PGRFAMCHA050801161609163836002227Disney's Dave the Barbarian                       EPS # 15                                                             6068607E                                
PROFAMCHA050801163836163849000013SCMMS - 17 - KIM/PROUD/LIZZIE (4:40pm)                                                                                      150                                
PROFAMCHA050801163849163919000030MMS - Kim Possible - Coming Up Next                                                                                         150                                
PROFAMCHA050801163919163949000030Hillary Duff Contest (July 25 - Aug 8)                                                                                      150                                
PRCFAMCHA050801163949163956000007MMS - Mad Mad Summer Bumper - You're Watching MMS.                                                                          150                                
PROFAMCHA050801163956164017000021MMS - Proud Family - Today @ 5:05pm                                                                                         150                                
PRCFAMCHA050801164017164106000049Raven/Sears Contest (July 25 - Aug 30)                                                                                      150                                
PROFAMCHA050801164106164143000037Beautiful Girl - Pageant (PP) - Friday @ 7:30pm                                                                             150                                
PRCFAMCHA050801164143164152000009Family Bumpers - (Phase 2 F/W 04) - Skateboard (MD                                                                          150                                
ID FAMCHA050801164152164210000018MMS - Mad Mad Summer Block Open                                                                                             150                                
PGRFAMCHA050801164210170503002253Disney's Kim Possible                             EPS # 1-061                                                          6068607E                                
PRCFAMCHA050801170503170508000005Astral ID (FEB05)                                                                                                           150                                
PROFAMCHA050801170508170521000013SCMMS - 18 (M-T) - PROUD/LIZZIE/DARCY (5:05pm)                                                                              150                                
PRCFAMCHA050801170521170528000007MMS - Mad Mad Summer Bumper - You're Watching MMS.                                                                          150                                
PROFAMCHA050801170528170621000053xxBad News Bears - In Theatres Now (July 22 - Aug                                                                           150                                
PROFAMCHA050801170621170645000024MMS - Lizzie McGuire - Today @ 5:35pm                                                                                       150                                
PRCFAMCHA050801170645170708000023Family Lab - Amazing Pet Talker Cutdown - Monkey                                                                            150                                
PROFAMCHA050801170708170747000039Ned's - 13 days of Neducation - Coming Soon Aug 17                                                                          150                                
PROFAMCHA050801170747170755000008Zoey 101 ID - Log onto family.ca for info on Zoey                                                                           150                                
ID FAMCHA050801170755170813000018MMS - Mad Mad Summer Block Open                                                                                             150                                
PROFAMCHA050801170813170821000008CC Disclaimer - FAST - Family.ca (:08-:10)                                                                                  150                                
PGRFAMCHA050801170821173053002232The Proud Family                                  EP: 2-006                                                           A6068807ECC                              
PROFAMCHA050801173053173103000010SCMMS - 19 (M-T) - LIZZIE/DARCY (5:35pm)                                                                                    150                                
PRCFAMCHA050801173103173110000007MMS - Mad Mad Summer Bumper - You're Watching MMS.                                                                          150                                
PROFAMCHA050801173110173150000040xxBailey's Billions Blast Interstitial - In Theatr                                                                          150                                
PRCFAMCHA050801173150173209000019xxRadio Free Roscoe - Webthrow (Pronto)*DNU                                                                                 150                                
INTFAMCHA050801173209173309000100Movie Surfers - Sky High - Int. #2 Toon Vers - Now                                                                    A60685120                                
PROFAMCHA050801173309173348000039Ned's - 13 days of Neducation - Coming Soon Aug 17                                                                          150                                
PRCFAMCHA050801173348173354000006Family Bumpers - (Phase 2 F/W 04) - Gymnastics (MD                                                                          150                                
ID FAMCHA050801173354173412000018MMS - Mad Mad Summer Block Open                                                                                             150                                
ID FAMCHA050801173412173418000006Magic of Disney - MAD DASH - Shape (:06-:09)                                                                                150                                
PROFAMCHA050801173418173426000008CC Disclaimer - FAST - Family.ca (:08-:10)                                                                                  150                                
PGRFAMCHA050801173426175700002234Lizzie McGuire                                    EP: 2-018                                                           A6068607BCC                              
PRCFAMCHA050801175700175705000005Astral ID (FEB05)                                                                                                           150                                
PROFAMCHA050801175705175720000015Nonstop - 01(M-T) - DARCY/RAVEN/EVEN (:14-:16) (MA                                                                          150                                
PRCFAMCHA050801175720175743000023xxDarcy's Wild Life - (GOAT PILLS) (NS) - Coming U                                                                          150                                
PROFAMCHA050801175743175813000030Hillary Duff Contest (July 25 - Aug 8)                                                                                      150                                
PRCFAMCHA050801175813175830000017Family Lab - Amazing Pet Talker Cutdown - Fish (Fa                                                                          150                                
PRCFAMCHA050801175830175848000018xxRadio Free Roscoe - Webthrow (Waller)*DNU                                                                                 150                                
PRCFAMCHA050801175848175908000020Summer Chill - Road Trip Game (web) (July 10)                                                                               150                                
PROFAMCHA050801175908175947000039Ned's - 13 days of Neducation - Coming Soon Aug 17                                                                          150                                
PROFAMCHA050801175947175954000007Zoey 101 ID - You're watching family..NADM                                                                                  150                                
ID FAMCHA050801175954180008000014Nonstop Block Open (:14-:17)                                                                                                150                                
PROFAMCHA050801180008180017000009CC Disclaimer - FAST - Family.ca (:08-:10)                                                                                  150                                
PGRFAMCHA050801180017182147002130Darcy's Wild Life                                 EP: 01                                                        A03948 1065607BCC                              
PROFAMCHA050801182147182201000014Nonstop - 02(M-T) - RAVEN/EVEN/RADIO (:14-:16) (MA                                                                          150                                
PROFAMCHA050801182201182238000037Beautiful Girl - Pageant (PP) - Friday @ 7:30pm                                                                             150                                
PRCFAMCHA050801182238182310000032xxThat's So Raven - Visions (NS) (MAY05) - Coming                                                                           150                                
PRCFAMCHA050801182310182359000049Raven/Sears Contest (July 25 - Aug 30)                                                                                      150                                
PROFAMCHA050801182359182429000030Double Teamed (SEPT12) - Next Friday @ 7:30pm                                                                               150                                
ID FAMCHA050801182429182454000025Darcy's Wild Life Web BBD - visit family.ca                                                                                 150                                
PROFAMCHA050801182454182524000030Zoey 101 - Perfect (NS/FRI) (MAR05) - Friday @ 6pm                                                                          150                                
INTFAMCHA050801182524182647000123Gagsters -  Framed                                EP: 46                                                              A20686120                                
PROFAMCHA050801182647182715000028Ned's DSSG - Note Passing (NS/FRI) (JUL05) - Frida                                                                          150                                
PROFAMCHA050801182715182845000130Movie Surfers - Sky High - Int. #1 Josh Flying - N                                                                    A     150                                
PROFAMCHA050801182845182915000030Miracle In Lane 2 (WDP) - Saturday @ 12pm                                                                                   150                                
PROFAMCHA050801182915182954000039Ned's - 13 days of Neducation - Coming Soon Aug 17                                                                          150                                
ID FAMCHA050801182954183009000015Nonstop Block Open (:14-:17)                                                                                                150                                
PGRFAMCHA050801183009185245002236That's So Raven                                   EPS # 1-060                                                          6028807B                                
PRCFAMCHA050801185245185250000005Astral ID (FEB05)                                                                                                           150                                
PROFAMCHA050801185250185305000015Nonstop - 03(M-T) - EVEN/RADIO/BMW (:14-:16) (MAY0                                                                          150                                
PROFAMCHA050801185305185338000033Even Stevens - Stinky Feet (MAR05) - (NS/M-TH) - C                                                                          150                                
PROFAMCHA050801185338185431000053xxBad News Bears - In Theatres Now (July 22 - Aug                                                                           150                                
PRCFAMCHA050801185431185458000027Radio Free Roscoe - (APR05) (NS/M-T) - Tonight @ 7                                                                          150                                
PROFAMCHA050801185458185528000030Double Teamed (SEPT12) - Next Friday @ 7:30pm                                                                               150                                
PROFAMCHA050801185528185538000010FAMJAM - Open/Close                                                                                                         150                                
INTFAMCHA050801185538185708000130xxMV Disney - (MD/NS/NSW) - I Melt With You (Bowli                                                                     60688120                                
PROFAMCHA050801185708185722000014xxFAMJAM - Close (FAMILY) xxDNUxx                                                                                           150                                
PROFAMCHA050801185722185752000030Air Bud Spikes Back (WDP) - Sunday @ 12pm                                                                                   150                                
PRCFAMCHA050801185752185807000015Wendy's Team of the Week BBD - (Aug 1 - 7)                                                                                  150                                
PROFAMCHA050801185807185838000031Full Court Miracle (WDP) - Sunday @ 1:30pm                                                                                  150                                
PRCFAMCHA050801185838185909000031Naturally Sadie - TIE (Clip) (NSW) - Weekends @ 6:                                                                          150                                
PROFAMCHA050801185909185948000039Ned's - 13 days of Neducation - Coming Soon Aug 17                                                                          150                                
PRCFAMCHA050801185948185954000006Family Bumpers - (Phase 3 Spring 05) - Bubble Gum                                                                           150                                
ID FAMCHA050801185954190008000014Nonstop Block Open (:14-:17)                                                                                                150                                
PROFAMCHA050801190008190016000008CC Disclaimer - FAST - Family.ca (:08-:10)                                                                                  150                                
PGRFAMCHA050801190016192245002229Even Stevens                                      EP: 3-001                                                           A6068807BCC                              
PROFAMCHA050801192245192300000015Nonstop - 04(M-T) - RADIO/BMW/BROTHERLY (:14-:16)                                                                           150                                
PROFAMCHA050801192300192337000037Beautiful Girl - Pageant (PP) - Friday @ 7:30pm                                                                             150                                
PRCFAMCHA050801192337192404000027Radio Free Roscoe - (APR05) (NS/M-T) - Coming Up N                                                                          150                                
INTFAMCHA050801192404192534000130Movie Surfers - Sky High - Int. #2 Studio Vers - N                                                                    A60685120                                
PROFAMCHA050801192534192604000030Zoey 101 - Perfect (NS/FRI) (MAR05) - Friday @ 6pm                                                                          150                                
ID FAMCHA050801192604192629000025Darcy's Wild Life Web BBD - visit family.ca                                                                                 150                                
PRCFAMCHA050801192629192647000018Family Lab - Amazing Pet Talker Cutdown - Turtle (                                                                          150                                
PRCFAMCHA050801192647192718000031Naturally Sadie - TIE (Clip) (NSW) - Weekends @ 6:                                                                          150                                
INTFAMCHA050801192718192842000124Gagsters                                          EP: 46                                                              A20686120                                
PROFAMCHA050801192842192913000031Full Court Miracle (WDP) - Sunday @ 1:30pm                                                                                  150                                
PROFAMCHA050801192913192952000039Ned's - 13 days of Neducation - Coming Soon Aug 17                                                                          150                                
ID FAMCHA050801192952193006000014Nonstop Block Open (:14-:17)                                                                                                150                                
PROFAMCHA050801193006193015000009CC Disclaimer - FAST - Family.ca (:08-:10)                                                                                  150                                
PGRFAMCHA050801193015195245002230Radio Free Roscoe                                 EPS # 43                                                      A05976A1065607ACC                              
PRCFAMCHA050801195245195250000005Astral ID (FEB05)                                                                                                           150                                
PROFAMCHA050801195250195305000015Nonstop - 05(M-T) - BMW/BROTHERLY/N-PIX (:14-:16)                                                                           150                                
PROFAMCHA050801195305195335000030Double Teamed (SEPT12) - Next Friday @ 7:30pm                                                                               150                                
PROFAMCHA050801195335195415000040xxBailey's Billions Blast Interstitial - In Theatr                                                                          150                                
PRCFAMCHA050801195415195439000024xxDarcy's Wild Life - (CHIMP) (NS) - Tomorrow @ 6p                                                                          150                                
PRCFAMCHA050801195439195511000032xxThat's So Raven - Science Riff (NS) (MAY05) - To                                                                          150                                
PROFAMCHA050801195511195541000030Zoey 101 - Perfect (NS/FRI) (MAR05) - Friday @ 6pm                                                                          150                                
PROFAMCHA050801195541195551000010FAMJAM - Open/Close                                                                                                         150                                
INTFAMCHA050801195551195721000130MV Disney - Girl Power (Cheetah Girls)                                                                                 60688120                                
PROFAMCHA050801195721195756000035Smart Guy (APR04) - Mon to Thurs @ 11:30pm                                                                                  150                                
PRCFAMCHA050801195756195827000031NBA Jam Session 2005 - (July 13 - Sep 19) (3x)                                                                              150                                
PRCFAMCHA050801195827195842000015Naturally Sadie - MONTAGE (Clip) (NSW) - Weekends                                                                           150                                
PROFAMCHA050801195842195921000039Ned's - 13 days of Neducation - Coming Soon Aug 17                                                                          150                                
PROFAMCHA050801195921195951000030Miracle In Lane 2 (WDP) - Saturday @ 12pm                                                                                   150                                
ID FAMCHA050801195951200006000015Nonstop Block Open (:14-:17)                                                                                                150                                
PROFAMCHA050801200006200014000008CC Disclaimer - FAST - Family.ca (:08-:10)                                                                                  150                                
PGRFAMCHA050801200014202109002055Boy Meets World                                   EP: 1-095                                                           B6068807BCC                              
PROFAMCHA050801202109202123000014Nonstop - 06(M-T) - BROTHERLY/N-PIX (:14-:16) (MAY                                                                          150                                
PROFAMCHA050801202123202200000037Beautiful Girl - Pageant (PP) - Friday @ 7:30pm                                                                             150                                
PROFAMCHA050801202200202239000039Brotherly Love (NSW) - Tomorrow @ 11:30am                                                                                   150                                
PRCFAMCHA050801202239202328000049Raven/Sears Contest (July 25 - Aug 30)                                                                                      150                                
PRCFAMCHA050801202328202358000030xxDarcy's Wild Life - (NS) - Tomorrow @ 6pm                                                                                 150                                
PROFAMCHA050801202358202408000010FAMJAM - Open/Close                                                                                                         150                                
INTFAMCHA050801202408202704000256MV Disney - (MD/NS/NSW) - No One (Aly & A.J.)                                                                          60688120                                
PROFAMCHA050801202704202718000014xxFAMJAM - Close (FAMILY) xxDNUxx                                                                                           150                                
PROFAMCHA050801202718202748000030Air Bud Spikes Back (WDP) - Sunday @ 12pm                                                                                   150                                
INTFAMCHA050801202748202842000054Gagsters - Alien Attack                           EP: 46                                                              A20686120                                
PROFAMCHA050801202842202913000031Full Court Miracle (WDP) - Sunday @ 1:30pm                                                                                  150                                
PROFAMCHA050801202913202952000039Ned's - 13 days of Neducation - Coming Soon Aug 17                                                                          150                                
ID FAMCHA050801202952203008000016Nonstop Block Open (:14-:17)                                                                                                150                                
PGRFAMCHA050801203008205240002232Brotherly Love                                    EPS # 39                                                             6068807B                                
PRCFAMCHA050801205240205245000005Astral ID (FEB05)                                                                                                           150                                
PROFAMCHA050801205245205259000014Nightly Pix Line-up (SEPT) - GENERIC (:14-:16)                                                                              150                                
PROFAMCHA050801205259205336000037Beautiful Girl - Pageant (PP) - Friday @ 7:30pm                                                                             150                                
PRCFAMCHA050801205336205359000023xxDarcy's Wild Life - (GOAT PILLS) (NS) - Tomorrow                                                                          150                                
PRCFAMCHA050801205359205431000032xxThat's So Raven - Science Riff (NS) (MAY05) - To                                                                          150                                
PRCFAMCHA050801205431205458000027Radio Free Roscoe - (APR05) (NS/M-T) - Tomorrow @                                                                           150                                
PROFAMCHA050801205458205508000010FAMJAM - Open/Close                                                                                                         150                                
INTFAMCHA050801205508205638000130MV Disney - (MD/NS/NSW) - She's No You (SHORT) (Je                                                                     60688120                                
PROFAMCHA050801205638205652000014xxFAMJAM - Close (FAMILY) xxDNUxx                                                                                           150                                
PROFAMCHA050801205652205722000030Miracle In Lane 2 (WDP) - Saturday @ 12pm                                                                                   150                                
PRCFAMCHA050801205722205753000031Naturally Sadie - TIE (Clip) (NSW) - Weekends @ 6:                                                                          150                                
INTFAMCHA050801205753205844000051Gagsters                                          EP: 46                                                              A20686120                                
PROFAMCHA050801205844205915000031Full Court Miracle (WDP) - Sunday @ 1:30pm                                                                                  150                                
PROFAMCHA050801205915205954000039Ned's - 13 days of Neducation - Coming Soon Aug 17                                                                          150                                
ID FAMCHA050801205954210008000014Nonstop Block Open (:14-:17)                                                                                                150                                
ID FAMCHA050801210008210017000009Rating - G - Ian (:08-:10)                                                                                                  150                                
PROFAMCHA050801210017210026000009CC Disclaimer - SLOW - Family.ca (:08-:10)                                                                                  150                                
PGRFAMCHA050801210026222703012637MVP2: Most Vertical Primate                                                                                     C19871A1065807DCC                              
PRCFAMCHA050801222703222708000005Astral ID (FEB05)                                                                                                           150                                
PROFAMCHA050801222708222722000014Nonstop - 07(M-T) - BMW/LIFE/MENTORS (:14-:16) (AU                                                                          150                                
PROFAMCHA050801222722222752000030Double Teamed (SEPT12) - Next Friday @ 7:30pm                                                                               150                                
PROFAMCHA050801222752222829000037Beautiful Girl - Pageant (PP) - Friday @ 7:30pm                                                                             150                                
PROFAMCHA050801222829222859000030Air Bud Spikes Back (WDP) - Sunday @ 12pm                                                                                   150                                
PRCFAMCHA050801222859222914000015Naturally Sadie - MONTAGE (Clip) (NSW) - Weekends                                                                           150                                
PROFAMCHA050801222914222953000039Ned's - 13 days of Neducation - Coming Soon Aug 17                                                                          150                                
ID FAMCHA050801222953223007000014Nonstop Block Open (:14-:17)                                                                                                150                                
PROFAMCHA050801223007223016000009CC Disclaimer - SLOW - Family.ca (:08-:10)                                                                                  150                                
PGRFAMCHA050801223016225232002216Boy Meets World                                   EP: 1-008                                                           B6068807BCC                              
PROFAMCHA050801225232225246000014PS - 01(PH) - WTP/Benjamin/Franny                                                                                           150                                
PROFAMCHA050801225246225325000039Ned's - 13 days of Neducation - Coming Soon Aug 17                                                                          150                                
PROFAMCHA050801225325225410000045Hoze Houndz (GROCERIES - FALL 2003) - Weekdays @ 6                                                                          150                                
PROFAMCHA050801225410225440000030Miracle In Lane 2 (WDP) - Saturday @ 12pm                                                                                   150                                
PROFAMCHA050801225440225450000010FAMJAM - Open/Close                                                                                                         150                                
INTFAMCHA050801225450225801000311MV Disney - (MD/NS/NSW) - Grazing In The Grass (Ra                                                                     60688120                                
PROFAMCHA050801225801225815000014xxFAMJAM - Close (FAMILY) xxDNUxx                                                                                           150                                
PROFAMCHA050801225815225845000030xxMentors (AUG04) (NS) - Tonight @ 11:50pm                                                                                  150                                
PROFAMCHA050801225845225916000031Full Court Miracle (WDP) - Sunday @ 1:30pm                                                                                  150                                
PROFAMCHA050801225916225953000037Beautiful Girl - Pageant (PP) - Friday @ 7:30pm                                                                             150                                
ID FAMCHA050801225953230008000015Nonstop Block Open (:14-:17)                                                                                                150                                
PGRFAMCHA050801230008234734004726My So-Called Life                                 EPS # 05                                                             2068807A                                
PRCFAMCHA050801234734234739000005Astral ID (FEB05)                                                                                                           150                                
PROFAMCHA050801234739234753000014PS - 01(PH) - WTP/Benjamin/Franny                                                                                           150                                
PROFAMCHA050801234753234830000037Beautiful Girl - Pageant (PP) - Friday @ 7:30pm                                                                             150                                
PROFAMCHA050801234830234900000030xxMentors (AUG04) (NS) - Coming Up Next                                                                                     150                                
PRCFAMCHA050801234900234915000015Naturally Sadie - MONTAGE (Clip) (NSW) - Weekends                                                                           150                                
PROFAMCHA050801234915234954000039Ned's - 13 days of Neducation - Coming Soon Aug 17                                                                          150                                
ID FAMCHA050801234954235009000015Nonstop Block Open (:14-:17)                                                                                                150                                
PROFAMCHA050801235009235018000009CC Disclaimer - SLOW - Family.ca (:08-:10)                                                                                  150                                
PGRFAMCHA050801235018001329002311Mentors                                           EP: 2-015                                                     C17437 1065607ACC                              
PROFAMCHA050801001329001344000015PS - 01(PH) - WTP/Benjamin/Franny                                                                                           150                                
PROFAMCHA050801001344001423000039Ned's - 13 days of Neducation - Coming Soon Aug 17                                                                          150                                
PROFAMCHA050801001423001454000031Full Court Miracle (WDP) - Sunday @ 1:30pm                                                                                  150                                
ID FAMCHA050801001454001508000014Nonstop Block Open (:14-:17)                                                                                                150                                
PGRFAMCHA050801001508003932002424Are You Afraid Of The Dark?                       EP: 1-015                                                     SR0303 1066807A                                
PRCFAMCHA050801003932003937000005Astral ID (FEB05)                                                                                                           150                                
PROFAMCHA050801003937003951000014PS - 01(PH) - WTP/Benjamin/Franny                                                                                           150                                
ID FAMCHA050801003951004006000015Nonstop Block Open (:14-:17)                                                                                                150                                
PGRFAMCHA050801004006010013002007Art Attack                                        EP: 1-201                                                           A60686110                                
PROFAMCHA050801010013010050000037Beautiful Girl - Pageant (PP) - Friday @ 7:30pm                                                                             150                                
PROFAMCHA050801010050010129000039Ned's - 13 days of Neducation - Coming Soon Aug 17                                                                          150                                
PROFAMCHA050801010129010159000030Air Bud Spikes Back (WDP) - Sunday @ 12pm                                                                                   150                                
PROFAMCHA050801010159010229000030Miracle In Lane 2 (WDP) - Saturday @ 12pm                                                                                   150                                
SO FAMCHA050801010229011429001200Sign Off                                                                                                                                                       
OFFFAMCHA050801011429043000031531OFF AIR                                                                                                                                                        
SO FAMCHA050802043000043011000011Sign On (oct 1)                                                                                                                                                
PROFAMCHA050802043011043021000010CC Disclaimer - FAST - Generic (:08-:10)                                                                                    150                                
PGRFAMCHA050802043021045314002253Franklin                                          EP: 4-044                                                     B38151A1065607ECC                              
PROFAMCHA050802045314045329000015PS - 01(PH) - WTP/Benjamin/Franny                                                                                           150                                
ID FAMCHA050802045329045341000012PS Playhouse AM Block Open (:10-:15)                                                                                        150                                
PROFAMCHA050802045341045351000010CC Disclaimer - FAST - Generic (:08-:10)                                                                                    150                                
PGRFAMCHA050802045351051621002230King                                              EP: 010                                                       B75765A1065607ECC                              
PRCFAMCHA050802051621051626000005Astral ID (FEB05)                                                                                                           150                                
PROFAMCHA050802051626051641000015PS - 01(PH) - WTP/Benjamin/Franny                                                                                           150                                
ID FAMCHA050802051641051653000012PS Playhouse AM Block Open (:10-:15)                                                                                        150                                
PROFAMCHA050802051653051703000010CC Disclaimer - FAST - Generic (:08-:10)                                                                                    150                                
PGRFAMCHA050802051703054339002636Katie And Orbie                                   EP: 3-028                                                     C12449A1065607ECC                              
PROFAMCHA050802054339054355000016PS - 01(PH) - WTP/Benjamin/Franny                                                                                           150                                
ID FAMCHA050802054355054407000012PS Playhouse AM Block Open (:10-:15)                                                                                        150                                
PROFAMCHA050802054407054417000010CC Disclaimer - FAST - Generic (:08-:10)                                                                                    150                                
PGRFAMCHA050802054417060710002253Franklin                                          EP: 4-045                                                     B38152A1065607ECC                              
PRCFAMCHA050802060710060715000005Astral ID (FEB05)                                                                                                           150                                
PROFAMCHA050802060715060730000015PS - 01(PH) - WTP/Benjamin/Franny                                                                                           150                                
ID FAMCHA050802060730060742000012PS Playhouse AM Block Open (:10-:15)                                                                                        150                                
PROFAMCHA050802060742060752000010CC Disclaimer - FAST - Generic (:08-:10)                                                                                    150                                
PGRFAMCHA050802060752063023002231Something Else                                    EP: 1-011                                                     B69265A1065607ECC                              
PROFAMCHA050802063023063038000015PS - 01(PH) - WTP/Benjamin/Franny                                                                                           150                                
ID FAMCHA050802063038063050000012PS Playhouse AM Block Open (:10-:15)                                                                                        150                                
PROFAMCHA050802063050063100000010CC Disclaimer - FAST - Generic (:08-:10)                                                                                    150                                
PGRFAMCHA050802063100065335002235Hoze Houndz                                       EP: 2-020                                                     B34009 1065607ECC                              
PRCFAMCHA050802065335065340000005Astral ID (FEB05)                                                                                                           150                                
PROFAMCHA050802065340065355000015PS - 01(PH) - WTP/Benjamin/Franny                                                                                           150                                
PROFAMCHA050802065355065402000007Zoey 101 ID - You're watching family..NADM                                                                                  150                                
ID FAMCHA050802065402065415000013Mad Dash Block Open (:13-:15)                                                                                               150                                
PROFAMCHA050802065415065425000010CC Disclaimer - FAST - Generic (:08-:10)                                                                                    150                                
PGRFAMCHA050802065425071702002237Disney's Aladdin                                  EP: 1-019                                                            6068607ECC                              
PROFAMCHA050802071702071717000015PS - 01(PH) - WTP/Benjamin/Franny                                                                                           150                                
PROFAMCHA050802071717071756000039Ned's - 13 days of Neducation - Coming Soon Aug 17                                                                          150                                
PROFAMCHA050802071756071826000030Kim Possible 007 (FEB05) (MD) - Coming Up Next                                                                              150                                
PRCFAMCHA050802071826071915000049Raven/Sears Contest (July 25 - Aug 30)                                                                                      150                                
PROFAMCHA050802071915071943000028xxLilo & Stitch (MD/AM) (JAN05) - Today @ 7:50am                                                                            150                                
PROFAMCHA050802071943072025000042Family Kicks - 3x, daily (MD/NS/NSW)                                                                                        150                                
PROFAMCHA050802072025072040000015MMS - Fillmore! - Today @ 12pm                                                                                              150                                
PROFAMCHA050802072040072046000006Phil of the Future IDs - You're Watching Family...                                                                          150                                
ID FAMCHA050802072046072100000014Mad Dash Block Open (:13-:15)                                                                                               150                                
PGRFAMCHA050802072100074354002254Disney's Kim Possible                             EPS # 1-044                                                         A6068607E                                
PRCFAMCHA050802074354074359000005Astral ID (FEB05)                                                                                                           150                                
PROFAMCHA050802074359074413000014PS - 01(PH) - WTP/Benjamin/Franny                                                                                           150                                
PROFAMCHA050802074413074514000101xxMulan - Dragon (PREM) (PP) - Premiering Aug 26 @                                                                          150                                
PROFAMCHA050802074514074542000028xxLilo & Stitch (MD) (JAN05) - Coming Up Next                                                                               150                                
PRCFAMCHA050802074542074604000022Family Lab - Amazing Pet Talker Cutdown - Cat (Cra                                                                          150                                
PROFAMCHA050802074604074619000015MMS - Fillmore! - Today @ 12pm                                                                                              150                                
INTFAMCHA050802074619074719000100Movie Surfers - Sky High - Int. #2 Toon Vers - Now                                                                    A60685120                                
PROFAMCHA050802074719074743000024MMS - Weekenders - Today @ 12:25pm                                                                                          150                                
PROFAMCHA050802074743074805000022MMS - Recess - Today @ 12:50pm                                                                                              150                                
PROFAMCHA050802074805074842000037Beautiful Girl - Pageant (PP) - Friday @ 7:30pm                                                                             150                                
ID FAMCHA050802074842074857000015Mad Dash Block Open (:13-:15)                                                                                               150                                
PGRFAMCHA050802074857081136002239Disney's Lilo & Stitch                            EPS # 39                                                            A6068607E                                
PROFAMCHA050802081136081152000016PS - 01(PH) - WTP/Benjamin/Franny                                                                                           150                                
PROFAMCHA050802081152081254000102Mulan (PREM) (PP) - Premiering Aug 26 @ 7:30pm                                                                              150                                
PROFAMCHA050802081254081437000143xxLittle Mermaid (Long) - Coming Up Next                                                                                    150                                
PROFAMCHA050802081437081505000028MMS - Lilo and Stitch - Today @ 11:30am                                                                                     150                                
PROFAMCHA050802081505081520000015MMS - Fillmore! - Today @ 12pm                                                                                              150                                
PROFAMCHA050802081520081544000024MMS - Weekenders - Today @ 12:25pm                                                                                          150                                
PROFAMCHA050802081544081606000022MMS - Recess - Today @ 12:50pm                                                                                              150                                
PROFAMCHA050802081606081636000030Miracle In Lane 2 (WDP) - Saturday @ 12pm                                                                                   150                                
PRCFAMCHA050802081636081647000011Family Bumpers - (Phase 2 F/W 04) - Science (MD-AM                                                                          150                                
ID FAMCHA050802081647081700000013Mad Dash Block Open (:13-:15)                                                                                               150                                
PROFAMCHA050802081700081710000010CC Disclaimer - FAST - Generic (:08-:10)                                                                                    150                                
PGRFAMCHA050802081710084009002259The Little Mermaid                                EP: 1-021                                                            6068607ECC                              
PRCFAMCHA050802084009084014000005Astral ID (FEB05)                                                                                                           150                                
PROFAMCHA050802084014084028000014PS - 01(PH) - WTP/Benjamin/Franny                                                                                           150                                
PRCFAMCHA050802084028084040000012xxBenjamin Bear - Slide (PH) - Coming Up Next                                                                               150                                
PROFAMCHA050802084040084110000030xxWinnie the Pooh (SONG) (PH/AM) - Today @ 9:10am                                                                           150                                
PROFAMCHA050802084110084144000034xxJojo's Circus - GIGGLECORN - Today @ 9:40am                                                                               150                                
INTFAMCHA050802084144084319000135They Might Be Giants (ABC's) - Letter Shapes                                                                           60688120                                
PROFAMCHA050802084319084349000030xxHigglytown Heroes (MAR05) (T/T) - Today @ 10:05a                                                                          150                                
PROFAMCHA050802084349084408000019xxHenry's World (JAN05) - Today @ 10:35am                                                                                   150                                
