SO FAMCHA031101043000043011000011Sign On (oct 1)                                                                                                         06                                     
PROFAMCHA031101043011043020000009CC Disclaimer - FAST - Family (:08-:10)                                                                                 06  150                                
SGTFAMCHA031101043020045313002253Franklin                                          Franklin & The Broken Globe/Franklin's Valentines             B13644A1065607ECC                              
SGTFAMCHA031101043020045313002253Franklin                                          Franklin & The Broken Globe/Franklin's Valentines             B13644A1065607ECC                              
PROFAMCHA031101045313045327000014Nnstp Wknd - 01(PH) - WTP/KATIE/FRANKLIN (:14-:16)                                                                      06  150                                
ID FAMCHA031101045327045337000010PS Playhouse AM Block Open (:10-:15)                                                                                    06  150                                
PROFAMCHA031101045337045346000009CC Disclaimer - FAST - Family.ca (:08-:10)                                                                              06  150                                
SGTFAMCHA031101045346051655002309New Adventures of Winnie the Pooh; The            Prize Piglet/Fast Friends                                            6068607ECC                              
PROFAMCHA031101051655051709000014Nnstp Wknd - 02(PH) - KATIE/FRANKLIN/RIPLEY (:14-:                                                                      06  150                                
ID FAMCHA031101051709051719000010PS Playhouse AM Block Open (:10-:15)                                                                                    06  150                                
PROFAMCHA031101051719051729000010CC Disclaimer - FAST - Generic (:08-:10)                                                                                06  150                                
SGTFAMCHA031101051729054407002638Katie And Orbie                                   Star/Later/Rainy Day Zombies                                  C19665A1065607ECC                              
SGTFAMCHA031101051729054407002638Katie And Orbie                                   Star/Later/Rainy Day Zombies                                  C19665A1065607ECC                              
PROFAMCHA031101054407054421000014Nnstp Wknd - 03(PH) - FRANKLIN/RIPLEY/PRWF (:14-:1                                                                      06  150                                
ID FAMCHA031101054421054431000010PS Playhouse AM Block Open (:10-:15)                                                                                    06  150                                
PROFAMCHA031101054431054440000009CC Disclaimer - FAST - Family (:08-:10)                                                                                 06  150                                
SGTFAMCHA031101054440060733002253Franklin                                          Franklin's Family Treasure/Franklin's Music Lesson            B13645A1065607ECC                              
SGTFAMCHA031101054440060733002253Franklin                                          Franklin's Family Treasure/Franklin's Music Lesson            B13645A1065607ECC                              
PROFAMCHA031101060733060748000015PS - 04(PH) - RIPLEY/HOZE/KNIGHT (:14-:16)                                                                              06  150                                
ID FAMCHA031101060748060800000012PS Playhouse AM Block Open (:10-:15)                                                                                    06  150                                
PROFAMCHA031101060800060809000009CC Disclaimer - FAST - Family.ca (:08-:10)                                                                              06  150                                
SGTFAMCHA031101060809063239002430Ripley's Believe It Or Not!                       Eternity for Sale                                             B21808 1065607ECC                              
SGTFAMCHA031101060809063239002430Ripley's Believe It Or Not!                       Eternity for Sale                                             B21808 1065607ECC                              
PROFAMCHA031101063239063253000014Nnstp Wknd - 05(PB/SEP) - PRWF/PRNS/KING (:14-:16)                                                                      06  150                                
ID FAMCHA031101063253063303000010Power Box Block Open (:12-:15)                                                                                          06  150                                
PROFAMCHA031101063303063313000010CC Disclaimer - FAST - Generic (:08-:10)                                                                                06  150                                
SGTFAMCHA031101063313065410002057Power Rangers Wild Force                          A Father's Footsteps                                                A6068607ECC                              
PROFAMCHA031101065410065424000014Nnstp Wknd - 06(PB/SEP) - PRNS/KING/LIZZIE (:14-:1                                                                      06  150                                
PROFAMCHA031101065424065454000030Wide Awake (NOV7) - Friday @ 7:30pm                                                                                    102  150                                
PROFAMCHA031101065424065454000030Wide Awake (NOV7) - Friday @ 7:30pm                                                                                    102  150                                
PROFAMCHA031101065454065524000030Mon Colle Knights - Weekdays @ 7am                                                                                     102  150                                
PROFAMCHA031101065454065524000030Mon Colle Knights - Weekdays @ 7am                                                                                     102  150                                
INTFAMCHA031101065524065851000327Gagsters - Bye Bye Balloons                                                                                           A20682120                                
INTFAMCHA031101065524065851000327Gagsters - Bye Bye Balloons                                                                                           A20682120                                
PROFAMCHA031101065851065921000030Lilo & Stitch - Tomorrow @ 3:25pm (NSW)                                                                                102  150                                
PROFAMCHA031101065851065921000030Lilo & Stitch - Tomorrow @ 3:25pm (NSW)                                                                                102  150                                
PRCFAMCHA031101065921065951000030King (FRIENDS) - Today @ 7:30am                                                                                        106  150                                
PRCFAMCHA031101065921065951000030King (FRIENDS) - Today @ 7:30am                                                                                        106  150                                
ID FAMCHA031101065951070001000010Power Box Block Open (:12-:15)                                                                                          06  150                                
SGTFAMCHA031101070001072125002124Power Rangers Ninja Storm                         EPS # 1-027                                                         A6068607E                                
PROFAMCHA031101072125072139000014Nnstp Wknd - 07(SEP) - KING/LIZZIE/AMANDA (:14-:16                                                                      06  150                                
PROFAMCHA031101072139072209000030Wide Awake (NOV7) - Friday @ 7:30pm                                                                                    102  150                                
PROFAMCHA031101072139072209000030Wide Awake (NOV7) - Friday @ 7:30pm                                                                                    102  150                                
PRCFAMCHA031101072209072239000030King (FRIENDS) - Coming Up                                                                                             106  150                                
PRCFAMCHA031101072209072239000030King (FRIENDS) - Coming Up                                                                                             106  150                                
PRCFAMCHA031101072239072309000030ELF BLAST! Interstitial (3;5)                                                                                           06  150                                
INTFAMCHA031101072309072606000257Gagsters - Sleazy Sneeze                                                                                              A20682120                                
INTFAMCHA031101072309072606000257Gagsters - Sleazy Sneeze                                                                                              A20682120                                
PRCFAMCHA031101072606072636000030Nemo Fun Fish Find Contest - On DVD November 4th (                                                                      06  150                                
INTFAMCHA031101072636072917000241Gagsters - Garbage Gagster                                                                                            A20682120                                
INTFAMCHA031101072636072917000241Gagsters - Garbage Gagster                                                                                            A20682120                                
PROFAMCHA031101072917072947000030Lizzie McGuire (FALL 2003) - Today @ 8am                                                                               106  150                                
PROFAMCHA031101072917072947000030Lizzie McGuire (FALL 2003) - Today @ 8am                                                                               106  150                                
ID FAMCHA031101072947073001000014Nonstop Weekend Block Open (:14-:17)                                                                                    06  150                                
PROFAMCHA031101073001073010000009CC Disclaimer - FAST - Family (:08-:10)                                                                                 06  150                                
SGTFAMCHA031101073010075240002230King                                              Very Big Faces                                                A75763A1065607ECC                              
SGTFAMCHA031101073010075240002230King                                              Very Big Faces                                                A75763A1065607ECC                              
PROFAMCHA031101075240075256000016Nnstp Wknd - 08 - LIZZIE/AMANDA/ALL (:14-:16)                                                                           06  150                                
PROFAMCHA031101075256075306000010My Scene Sponsorship (8)                                                                                                06  150                                
PROFAMCHA031101075306075336000030Wide Awake (NOV7) - Friday @ 7:30pm                                                                                    102  150                                
PROFAMCHA031101075306075336000030Wide Awake (NOV7) - Friday @ 7:30pm                                                                                    102  150                                
PROFAMCHA031101075336075406000030Lizzie McGuire (FALL 2003) - Coming Up (NSW)                                                                           106  150                                
PROFAMCHA031101075336075406000030Lizzie McGuire (FALL 2003) - Coming Up (NSW)                                                                           106  150                                
INTFAMCHA031101075406075442000036Harrisons; The - Hit In Head                                                                                          A10626120                                
INTFAMCHA031101075406075442000036Harrisons; The - Hit In Head                                                                                          A10626120                                
PRCFAMCHA031101075442075512000030ELF BLAST! Interstitial (3;5)                                                                                           06  150                                
INTFAMCHA031101075512075842000330Movie Surfers Pirates of the Caribbean #1 *DNU*                                                                        60688130                                
PRCFAMCHA031101075842075912000030Nemo Fun Fish Find Contest - On DVD November 4th (                                                                      06  150                                
PROFAMCHA031101075912075942000030Lilo & Stitch - Tomorrow @ 3:25pm (NSW)                                                                                102  150                                
PROFAMCHA031101075912075942000030Lilo & Stitch - Tomorrow @ 3:25pm (NSW)                                                                                102  150                                
ID FAMCHA031101075942075959000017Nonstop Weekend Block Open (:14-:17)                                                                                    06  150                                
ID FAMCHA031101075959080007000008Magic of Disney - NS/NSW/PB - Wipe (:06-:09)                                                                            06  150                                
SGTFAMCHA031101080007082243002236Lizzie McGuire                                    Over The Hill                                                       A6068607B                                
PROFAMCHA031101082243082259000016Nnstp Wknd - 09 - AMANDA/ALL/EVEN (:14-:16)                                                                             06  150                                
PROFAMCHA031101082259082309000010My Scene Sponsorship (8)                                                                                                06  150                                
PROFAMCHA031101082309082339000030Wide Awake (NOV7) - Friday @ 7:30pm                                                                                    102  150                                
PROFAMCHA031101082309082339000030Wide Awake (NOV7) - Friday @ 7:30pm                                                                                    102  150                                
INTFAMCHA031101082339082435000056Harrisons; The - Electrocution                                                                                        A10626120                                
INTFAMCHA031101082339082435000056Harrisons; The - Electrocution                                                                                        A10626120                                
PROFAMCHA031101082435082453000018That's So Raven (FALL 2003) - Today @ 9:55am                                                                           106  150                                
PROFAMCHA031101082435082453000018That's So Raven (FALL 2003) - Today @ 9:55am                                                                           106  150                                
PROFAMCHA031101082453082503000010FAMJAM - Open                                                                                                          606 5150                                
INTFAMCHA031101082503082834000331MV Disney - So Yesterday (HILARY DUFF)                                                                                 60688130                                
PROFAMCHA031101082834082848000014FAMJAM - Close (FAMILY)                                                                                                606 5150                                
PROFAMCHA031101082848082913000025Even Stevens (SIBLINGS) - Today @ 9:30am                                                                                06  150                                
PRCFAMCHA031101082913082943000030Family Birthday Club #1 - ONGOING (1) (DNUpost Jan                                                                      06  150                                
ID FAMCHA031101082943083000000017Nonstop Weekend Block Open (:14-:17)                                                                                    06  150                                
ID FAMCHA031101083000083017000017Nonstop Weekend Block Open (:14-:17)                                                                                    06  150                                
SGTFAMCHA031101083017085437002420Amanda Show; The                                                                                                      A20686090                                
SGTFAMCHA031101083017085437002420Amanda Show; The                                                                                                      A20686090                                
PROFAMCHA031101085437085453000016Nnstp Wknd - 10 - ALL/EVEN/RAVEN (:14-:16)                                                                              06  150                                
PROFAMCHA031101085453085503000010My Scene Sponsorship (8)                                                                                                06  150                                
PROFAMCHA031101085503085533000030Wide Awake (NOV7) - Friday @ 7:30pm                                                                                    102  150                                
PROFAMCHA031101085503085533000030Wide Awake (NOV7) - Friday @ 7:30pm                                                                                    102  150                                
PRCFAMCHA031101085533085603000030Family Birthday Club #2 - ONGOING (1) (DNU Post Ja                                                                      06  150                                
INTFAMCHA031101085603085848000245Gagsters - I Can't Hear You                                                                                           A20682120                                
INTFAMCHA031101085603085848000245Gagsters - I Can't Hear You                                                                                           A20682120                                
PRCFAMCHA031101085848085918000030Nemo Fun Fish Find Contest - On DVD November 4th (                                                                      06  150                                
PROFAMCHA031101085918085943000025Even Stevens (SIBLINGS) - Today @ 9:30am                                                                                06  150                                
ID FAMCHA031101085943090000000017Nonstop Weekend Block Open (:14-:17)                                                                                    06  150                                
SGTFAMCHA031101090000092000002000All That                                                                                                              A20686090                                
SGTFAMCHA031101090000092000002000All That                                                                                                              A20686090                                
PROFAMCHA031101092000092016000016Nnstp Wknd - 11 - EVEN/RAVEN/BMW (:14-:16)                                                                              06  150                                
PROFAMCHA031101092016092026000010My Scene Sponsorship (8)                                                                                                06  150                                
PROFAMCHA031101092026092056000030Wide Awake (NOV7) - Friday @ 7:30pm                                                                                    102  150                                
PROFAMCHA031101092026092056000030Wide Awake (NOV7) - Friday @ 7:30pm                                                                                    102  150                                
PROFAMCHA031101092056092121000025Even Stevens (SIBLINGS) - Coming Up (NSW)                                                                               06  150                                
INTFAMCHA031101092121092354000233Gagsters - Screamer                                                                                                   A20682120                                
INTFAMCHA031101092121092354000233Gagsters - Screamer                                                                                                   A20682120                                
PRCFAMCHA031101092354092424000030ELF BLAST! Interstitial (3;5)                                                                                           06  150                                
PROFAMCHA031101092424092454000030Teen Angel - Today @ 11:10am                                                                                           106  150                                
PROFAMCHA031101092424092454000030Teen Angel - Today @ 11:10am                                                                                           106  150                                
INTFAMCHA031101092454092824000330Movie Surfers Pirates of the Caribbean #1 *DNU*                                                                        60688130                                
PROFAMCHA031101092824092842000018That's So Raven (FALL 2003) - Today @ 9:55am                                                                           106  150                                
PROFAMCHA031101092824092842000018That's So Raven (FALL 2003) - Today @ 9:55am                                                                           106  150                                
ID FAMCHA031101092842092859000017Nonstop Weekend Block Open (:14-:17)                                                                                    06  150                                
ID FAMCHA031101092859092907000008Magic of Disney - NS/NSW/PB - Shape (:06-:09)                                                                           06  150                                
PROFAMCHA031101092907092916000009CC Disclaimer - FAST - Family.ca (:08-:10)                                                                              06  150                                
SGTFAMCHA031101092916095158002242Even Stevens                                      Almost Perfect                                                      A6068807BCC                              
PROFAMCHA031101095158095214000016Nnstp Wknd - 12 - RAVEN/BMW/SMART (:14-:16)                                                                             06  150                                
PROFAMCHA031101095214095224000010My Scene Sponsorship (8)                                                                                                06  150                                
PROFAMCHA031101095224095254000030Wide Awake (NOV7) - Friday @ 7:30pm                                                                                    102  150                                
PROFAMCHA031101095224095254000030Wide Awake (NOV7) - Friday @ 7:30pm                                                                                    102  150                                
PROFAMCHA031101095254095312000018That's So Raven (FALL 2003) - Coming Up (NSW)                                                                          106  150                                
PROFAMCHA031101095254095312000018That's So Raven (FALL 2003) - Coming Up (NSW)                                                                          106  150                                
INTFAMCHA031101095312095347000035Harrisons; The - Bowl Switch                                                                                          A10626120                                
INTFAMCHA031101095312095347000035Harrisons; The - Bowl Switch                                                                                          A10626120                                
PROFAMCHA031101095347095444000057xxBoy Meets World (DANCE - FALL 2003) - Today @ 10                                                                     106  150                                
PROFAMCHA031101095347095444000057xxBoy Meets World (DANCE - FALL 2003) - Today @ 10                                                                     106  150                                
ID FAMCHA031101095444095500000016Nonstop Weekend Block Open (:14-:17)                                                                                    06  150                                
PROFAMCHA031101095500095510000010CC Disclaimer - FAST - Generic (:08-:10)                                                                                06  150                                
SGTFAMCHA031101095510101751002241That's So Raven                                   Saving Psychic Raven                                                A6068807BCC                              
PROFAMCHA031101101751101806000015Nnstp Wknd - 13 - BMW/SMART/TEEN (:14-:16)                                                                              06  150                                
PROFAMCHA031101101806101816000010My Scene Sponsorship (8)                                                                                                06  150                                
PROFAMCHA031101101816101913000057xxBoy Meets World (DANCE - FALL 2003) - Coming Up                                                                      106  150                                
PROFAMCHA031101101816101913000057xxBoy Meets World (DANCE - FALL 2003) - Coming Up                                                                      106  150                                
PROFAMCHA031101101913101943000030Wide Awake (NOV7) - Friday @ 7:30pm                                                                                    102  150                                
PROFAMCHA031101101913101943000030Wide Awake (NOV7) - Friday @ 7:30pm                                                                                    102  150                                
ID FAMCHA031101101943102000000017Nonstop Weekend Block Open (:14-:17)                                                                                    06  150                                
PROFAMCHA031101102000102009000009CC Disclaimer - FAST - Family (:08-:10)                                                                                 06  150                                
SGTFAMCHA031101102009104224002215Boy Meets World                                   I Dream Of Feeny                                                    B6068807BCC                              
PROFAMCHA031101104224104240000016Nnstp Wknd - 14 - SMART/TEEN/WISH (:14-:16)                                                                             06  150                                
PROFAMCHA031101104240104250000010My Scene Sponsorship (8)                                                                                                06  150                                
PROFAMCHA031101104250104320000030Wide Awake (NOV7) - Friday @ 7:30pm                                                                                    102  150                                
PROFAMCHA031101104250104320000030Wide Awake (NOV7) - Friday @ 7:30pm                                                                                    102  150                                
PROFAMCHA031101104320104414000054xxBoy Meets World (Mom - FALL 2003) -Tomorrow@10:2                                                                     106  150                                
PROFAMCHA031101104320104414000054xxBoy Meets World (Mom - FALL 2003) -Tomorrow@10:2                                                                     106  150                                
PROFAMCHA031101104414104444000030Teen Angel - Today @ 11:10am                                                                                           106  150                                
PROFAMCHA031101104414104444000030Teen Angel - Today @ 11:10am                                                                                           106  150                                
ID FAMCHA031101104444104500000016Nonstop Weekend Block Open (:14-:17)                                                                                    06  150                                
PROFAMCHA031101104500104509000009CC Disclaimer - FAST - Family.ca (:08-:10)                                                                              06  150                                
SGTFAMCHA031101104509110737002228Smart Guy                                         Gotta Dance                                                         A6068807BCC                              
PROFAMCHA031101110737110753000016Nnstp Wknd - 15 - TEEN/WISH (:14-:16)                                                                                   06  150                                
PROFAMCHA031101110753110823000030Wide Awake (NOV7) - Friday @ 7:30pm                                                                                    102  150                                
PROFAMCHA031101110753110823000030Wide Awake (NOV7) - Friday @ 7:30pm                                                                                    102  150                                
PROFAMCHA031101110823110853000030Teen Angel - Coming Up (NSW)                                                                                           106  150                                
PROFAMCHA031101110823110853000030Teen Angel - Coming Up (NSW)                                                                                           106  150                                
PRCFAMCHA031101110853110923000030Family Popcorn Parties (2) *DNU*                                                                                        06  150                                
PROFAMCHA031101110923110943000020Nonstop Weekend - LIZZIE MCGUIRE - Priceless                                                                            06  150                                
ID FAMCHA031101110943111000000017Nonstop Weekend Block Open (:14-:17)                                                                                    06  150                                
SGTFAMCHA031101111000113129002129Teen Angel                                        Who's The Boss                                                      A6068807B                                
PROFAMCHA031101113129113145000016Nnstp Wknd - 16 - WISH (:14-:16)                                                                                        06  150                                
PROFAMCHA031101113145113215000030Wide Awake (NOV7) - Friday @ 7:30pm                                                                                    102  150                                
PROFAMCHA031101113145113215000030Wide Awake (NOV7) - Friday @ 7:30pm                                                                                    102  150                                
PRCFAMCHA031101113215113245000030ELF BLAST! Interstitial (3;5)                                                                                           06  150                                
INTFAMCHA031101113245113415000130Klootz - Sand Castle Awards #49                                                                                       A10658120                                
INTFAMCHA031101113245113415000130Klootz - Sand Castle Awards #49                                                                                       A10658120                                
PROFAMCHA031101113415113445000030Lilo & Stitch - Tomorrow @ 3:25pm (NSW)                                                                                102  150                                
PROFAMCHA031101113415113445000030Lilo & Stitch - Tomorrow @ 3:25pm (NSW)                                                                                102  150                                
ID FAMCHA031101113445113500000015Nonstop Weekend Block Open (:14-:17)                                                                                    06  150                                
SGTFAMCHA031101113500115620002120You Wish                                          All In The Family Room                                              A6068807B                                
PROFAMCHA031101115620115636000016Nnstp Wknd - 17(SEP) - WDP MOVIE (:14-:16)                                                                              06  150                                
PROFAMCHA031101115636115646000010My Scene Sponsorship (8)                                                                                                06  150                                
PROFAMCHA031101115646115716000030Wide Awake (NOV7) - Friday @ 7:30pm                                                                                    102  150                                
PROFAMCHA031101115646115716000030Wide Awake (NOV7) - Friday @ 7:30pm                                                                                    102  150                                
INTFAMCHA031101115716115846000130Klootz - Warming Fire #52                                                                                             A10658120                                
INTFAMCHA031101115716115846000130Klootz - Warming Fire #52                                                                                             A10658120                                
PRCFAMCHA031101115846115916000030Family Popcorn Parties (2) *DNU*                                                                                        06  150                                
PROFAMCHA031101115916115946000030Lilo & Stitch - Tomorrow @ 3:25pm (NSW)                                                                                102  150                                
PROFAMCHA031101115916115946000030Lilo & Stitch - Tomorrow @ 3:25pm (NSW)                                                                                102  150                                
ID FAMCHA031101115946120000000014Weekend Double Pix Movie Open (:13-:17)                                                                                 06  150                                
PRCFAMCHA031101120000120009000009Rating - G - Ian (:08-:10)                                                                                              06  150                                
PROFAMCHA031101120009120019000010CC Disclaimer - FAST - Generic (:08-:10)                                                                                06  150                                
SGTFAMCHA031101120019134015013956D.A.R.Y.L                                                                                                             B2068807DCC                              
SGTFAMCHA031101120019134015013956D.A.R.Y.L                                                                                                             B2068807DCC                              
PROFAMCHA031101134015134029000014Nnstp Wknd - 17(SEP) - WDP MOVIE (:14-:16)                                                                              06  150                                
ID FAMCHA031101134029134042000013Weekend Double Pix Movie Open (:13-:17)                                                                                 06  150                                
PRCFAMCHA031101134042134051000009Rating - PG - Ian (:08-:10)                                                                                             06  150                                
SGTFAMCHA031101134051151424013333Teenage Mutant Ninja Turtles                                                                                          B2068807D                                
SGTFAMCHA031101134051151424013333Teenage Mutant Ninja Turtles                                                                                          B2068807D                                
PROFAMCHA031101151424151440000016Nnstp Wknd - 17(SEP) - WDP MOVIE (:14-:16)                                                                              06  150                                
PROFAMCHA031101151440151510000030Wide Awake (NOV7) - Friday @ 7:30pm                                                                                    102  150                                
PROFAMCHA031101151440151510000030Wide Awake (NOV7) - Friday @ 7:30pm                                                                                    102  150                                
INTFAMCHA031101151510151837000327Gagsters - Bye Bye Balloons                                                                                           A20682120                                
INTFAMCHA031101151510151837000327Gagsters - Bye Bye Balloons                                                                                           A20682120                                
PROFAMCHA031101151837151909000032xxKim Possible (FALL 2003) - Today @ 4:40pm (NSW)                                                                      106  150                                
PROFAMCHA031101151837151909000032xxKim Possible (FALL 2003) - Today @ 4:40pm (NSW)                                                                      106  150                                
INTFAMCHA031101151909152239000330Movie Surfers Pirates of the Caribbean #1 *DNU*                                                                        60688130                                
PROFAMCHA031101152239152309000030Teen Angel - Today @ 5:55pm                                                                                            106  150                                
PROFAMCHA031101152239152309000030Teen Angel - Today @ 5:55pm                                                                                            106  150                                
INTFAMCHA031101152309152515000206Gagsters - Sour Lemonade                                                                                              A20682120                                
INTFAMCHA031101152309152515000206Gagsters - Sour Lemonade                                                                                              A20682120                                
PROFAMCHA031101152515152545000030Lilo & Stitch - Tomorrow @ 3:25pm (NSW)                                                                                102  150                                
PROFAMCHA031101152515152545000030Lilo & Stitch - Tomorrow @ 3:25pm (NSW)                                                                                102  150                                
ID FAMCHA031101152545152600000015Weekend Double Pix Movie Open (:13-:17)                                                                                 06  150                                
PROFAMCHA031101152600152609000009CC Disclaimer - FAST - Family (:08-:10)                                                                                 06  150                                
SGTFAMCHA031101152609154854002245Lion King's Timon & Pumbaa; The                   I Think I Canada/Zazu's Off Day Off                                  6068607ECC                              
PROFAMCHA031101154854154910000016Nnstp Wknd - 20 - PROUD/FILLMORE/KIM (:14-:16)                                                                          06  150                                
PROFAMCHA031101154910154940000030Wide Awake (NOV7) - Friday @ 7:30pm                                                                                    102  150                                
PROFAMCHA031101154910154940000030Wide Awake (NOV7) - Friday @ 7:30pm                                                                                    102  150                                
PROFAMCHA031101154940155008000028Proud Family (BOND) - Coming Up (NSW)                                                                                   02  150                                
PROFAMCHA031101155008155027000019Nonstop Weekend - LIZZIE MCGUIRE - Lenny                                                                                06  150                                
PROFAMCHA031101155027155045000018That's So Raven (FALL 2003) - Today @ 5:30pm                                                                           106  150                                
PROFAMCHA031101155027155045000018That's So Raven (FALL 2003) - Today @ 5:30pm                                                                           106  150                                
ID FAMCHA031101155045155100000015Nonstop Weekend Block Open (:14-:17)                                                                                    06  150                                
PROFAMCHA031101155100155109000009CC Disclaimer - FAST - Family.ca (:08-:10)                                                                              06  150                                
SGTFAMCHA031101155109161339002230Proud Family; The                                 The Altos                                                           A6068807ECC                              
PROFAMCHA031101161339161355000016Nnstp Wknd - 21 - FILLMORE/KIM/LIZZIE (:14-:16)                                                                         06  150                                
PROFAMCHA031101161355161425000030Wide Awake (NOV7) - Friday @ 7:30pm                                                                                    102  150                                
PROFAMCHA031101161355161425000030Wide Awake (NOV7) - Friday @ 7:30pm                                                                                    102  150                                
PROFAMCHA031101161425161455000030Fillmore (STYLISH) - Coming Up                                                                                         106  150                                
PROFAMCHA031101161425161455000030Fillmore (STYLISH) - Coming Up                                                                                         106  150                                
PROFAMCHA031101161455161513000018That's So Raven (FALL 2003) - Today @ 5:30pm                                                                           106  150                                
PROFAMCHA031101161455161513000018That's So Raven (FALL 2003) - Today @ 5:30pm                                                                           106  150                                
PROFAMCHA031101161513161543000030Lilo & Stitch - Tomorrow @ 3:25pm (NSW)                                                                                102  150                                
PROFAMCHA031101161513161543000030Lilo & Stitch - Tomorrow @ 3:25pm (NSW)                                                                                102  150                                
ID FAMCHA031101161543161600000017Nonstop Weekend Block Open (:14-:17)                                                                                    06  150                                
SGTFAMCHA031101161600163838002238Disney's Fillmore!                                EPS # 1-011                                                         A6028607E                                
PROFAMCHA031101163838163854000016Nnstp Wknd - 22 - KIM/LIZZIE/RAVEN (:14-:16)                                                                            06  150                                
PROFAMCHA031101163854163924000030Wide Awake (NOV7) - Friday @ 7:30pm                                                                                    102  150                                
PROFAMCHA031101163854163924000030Wide Awake (NOV7) - Friday @ 7:30pm                                                                                    102  150                                
PROFAMCHA031101163924163956000032xxKim Possible (FALL 2003) - Coming Up (NSW)                                                                           106  150                                
PROFAMCHA031101163924163956000032xxKim Possible (FALL 2003) - Coming Up (NSW)                                                                           106  150                                
PRCFAMCHA031101163956164026000030Clickits To Win Contest (1)                                                                                             02  150                                
PROFAMCHA031101164026164044000018That's So Raven (FALL 2003) - Today @ 5:30pm                                                                           106  150                                
PROFAMCHA031101164026164044000018That's So Raven (FALL 2003) - Today @ 5:30pm                                                                           106  150                                
ID FAMCHA031101164044164100000016Nonstop Weekend Block Open (:14-:17)                                                                                    06  150                                
SGTFAMCHA031101164100170350002250Disney's Kim Possible                             Pain King vs Cleopatra                                              A6068607E                                
PROFAMCHA031101170350170404000014Nnstp Wknd - 23(SAT) - LIZZIE/RAVEN/TEEN (:14-:16)                                                                      06  150                                
PROFAMCHA031101170404170434000030Wide Awake (NOV7) - Friday @ 7:30pm                                                                                    102  150                                
PROFAMCHA031101170404170434000030Wide Awake (NOV7) - Friday @ 7:30pm                                                                                    102  150                                
PROFAMCHA031101170434170504000030Lizzie McGuire (FALL 2003) - Coming Up (NSW)                                                                           106  150                                
PROFAMCHA031101170434170504000030Lizzie McGuire (FALL 2003) - Coming Up (NSW)                                                                           106  150                                
PROFAMCHA031101170504170529000025Even Stevens (SIBLINGS) - Tomorrow @ 9:30am                                                                             06  150                                
PROFAMCHA031101170529170547000018That's So Raven (FALL 2003) - Today @ 5:30pm                                                                           106  150                                
PROFAMCHA031101170529170547000018That's So Raven (FALL 2003) - Today @ 5:30pm                                                                           106  150                                
ID FAMCHA031101170547170601000014Nonstop Weekend Block Open (:14-:17)                                                                                    06  150                                
ID FAMCHA031101170601170609000008Magic of Disney - NS/NSW/PB - Wipe (:06-:09)                                                                            06  150                                
SGTFAMCHA031101170609172844002235Lizzie McGuire                                    Night of the Day of the Dead                                        A6068607B                                
PROFAMCHA031101172844172900000016Nnstp Wknd - 24(SAT) - RAVEN/TEEN/HOZE (:14-:16)                                                                        06  150                                
PROFAMCHA031101172900172930000030Wide Awake (NOV7) - Friday @ 7:30pm                                                                                    102  150                                
PROFAMCHA031101172900172930000030Wide Awake (NOV7) - Friday @ 7:30pm                                                                                    102  150                                
PROFAMCHA031101172930172948000018That's So Raven (FALL 2003) - Coming Up (NSW)                                                                          106  150                                
PROFAMCHA031101172930172948000018That's So Raven (FALL 2003) - Coming Up (NSW)                                                                          106  150                                
PROFAMCHA031101172948173045000057xxBoy Meets World (DANCE - FALL 2003) - Tommorow @                                                                     106  150                                
PROFAMCHA031101172948173045000057xxBoy Meets World (DANCE - FALL 2003) - Tommorow @                                                                     106  150                                
ID FAMCHA031101173045173100000015Nonstop Weekend Block Open (:14-:17)                                                                                    06  150                                
PROFAMCHA031101173100173110000010CC Disclaimer - FAST - Generic (:08-:10)                                                                                06  150                                
SGTFAMCHA031101173110175350002240That's So Raven                                   A Fish Called Raven                                                 A6068807BCC                              
PROFAMCHA031101175350175405000015Nnstp Wknd - 25(SAT/SEP) - TEEN/HOZE/SOME (:14-:16                                                                      06  150                                
PROFAMCHA031101175405175435000030Wide Awake (NOV7) - Friday @ 7:30pm                                                                                    102  150                                
PROFAMCHA031101175405175435000030Wide Awake (NOV7) - Friday @ 7:30pm                                                                                    102  150                                
PROFAMCHA031101175435175505000030Teen Angel - Coming Up (NSW)                                                                                           106  150                                
PROFAMCHA031101175435175505000030Teen Angel - Coming Up (NSW)                                                                                           106  150                                
PROFAMCHA031101175505175521000016Nonstop Weekend - TEAMO SUPREMO - Get 'em                                                                               06  150                                
PROFAMCHA031101175521175546000025Even Stevens (SIBLINGS) - Tomorrow @ 9:30am                                                                             06  150                                
ID FAMCHA031101175546175600000014Nonstop Weekend Block Open (:14-:17)                                                                                    06  150                                
PROFAMCHA031101175600175609000009CC Disclaimer - FAST - Family (:08-:10)                                                                                 06  150                                
SGTFAMCHA031101175609181728002119Teen Angel                                        Look Ma, No Face                                                    A6068807BCC                              
PROFAMCHA031101181728181742000014Nnstp Wknd - 26(SEP) - HOZE/SOME/FRANK (:14-:16)                                                                        06  150                                
ID FAMCHA031101181742181756000014Nonstop Weekend Block Open (:14-:17)                                                                                    06  150                                
PROFAMCHA031101181756181805000009CC Disclaimer - FAST - Family.ca (:08-:10)                                                                              06  150                                
SGTFAMCHA031101181805184043002238Hoze Houndz                                       Disappearing Act/Business As Usual                            A63383A1065607ECC                              
SGTFAMCHA031101181805184043002238Hoze Houndz                                       Disappearing Act/Business As Usual                            A63383A1065607ECC                              
PROFAMCHA031101184043184059000016Nnstp Wknd - 27(SEP) - SOME/FRANK/KING (:14-:16)                                                                        06  150                                
PRCFAMCHA031101184059184123000024Something Else (IS WELL) - Coming Up                                                                                   106  150                                
PRCFAMCHA031101184059184123000024Something Else (IS WELL) - Coming Up                                                                                   106  150                                
INTFAMCHA031101184123184413000250Art Attack - Wizard                                                                                                    60686130                                
PRCFAMCHA031101184413184443000030King (FRIENDS) - Tonight @ 7:35pm                                                                                      106  150                                
PRCFAMCHA031101184413184443000030King (FRIENDS) - Tonight @ 7:35pm                                                                                      106  150                                
ID FAMCHA031101184443184500000017Nonstop Weekend Block Open (:14-:17)                                                                                    06  150                                
PROFAMCHA031101184500184510000010CC Disclaimer - FAST - Generic (:08-:10)                                                                                06  150                                
SGTFAMCHA031101184510190741002231Something Else                                    Something Collects/Can't Dance, Won't Dance                   A69262A1065607ECC                              
SGTFAMCHA031101184510190741002231Something Else                                    Something Collects/Can't Dance, Won't Dance                   A69262A1065607ECC                              
PROFAMCHA031101190741190757000016Nnstp Wknd - 28(SEP) - FRANKLIN/KING/HONEY (:14-:1                                                                      06  150                                
PROFAMCHA031101190757190830000033Franklin (CANOE - FALL 2003) - Coming Up (NSW)                                                                         106  150                                
PROFAMCHA031101190757190830000033Franklin (CANOE - FALL 2003) - Coming Up (NSW)                                                                         106  150                                
PRCFAMCHA031101190830190900000030Henry's World (FALL 2003) - Weekdays @ 10:10am *DN                                                                     106  150                                
PRCFAMCHA031101190830190900000030Henry's World (FALL 2003) - Weekdays @ 10:10am *DN                                                                     106  150                                
PROFAMCHA031101190900190916000016Nonstop Weekend - TEAMO SUPREMO - Get 'em                                                                               06  150                                
PRCFAMCHA031101190916190946000030King (FRIENDS) - Tonight @ 7:35pm                                                                                      106  150                                
PRCFAMCHA031101190916190946000030King (FRIENDS) - Tonight @ 7:35pm                                                                                      106  150                                
ID FAMCHA031101190946191000000014Nonstop Weekend Block Open (:14-:17)                                                                                    06  150                                
PROFAMCHA031101191000191009000009CC Disclaimer - FAST - Family (:08-:10)                                                                                 06  150                                
SGTFAMCHA031101191009193302002253Franklin                                          Franklin and the Trooper/Franklin's Fossil                    B36665A1065607ECC                              
SGTFAMCHA031101191009193302002253Franklin                                          Franklin and the Trooper/Franklin's Fossil                    B36665A1065607ECC                              
PROFAMCHA031101193302193316000014Nnstp Wknd - 29(SUN/SEP) - KING/HONEY/@MOV (:14-:1                                                                      06  150                                
ID FAMCHA031101193316193330000014Nonstop Weekend Block Open (:14-:17)                                                                                    06  150                                
PROFAMCHA031101193330193339000009CC Disclaimer - FAST - Family.ca (:08-:10)                                                                              06  150                                
SGTFAMCHA031101193339195609002230King                                              Very Big Faces                                                A75763A1065607ECC                              
SGTFAMCHA031101193339195609002230King                                              Very Big Faces                                                A75763A1065607ECC                              
PROFAMCHA031101195609195625000016Nnstp Wknd - 30(SAT) - HONEY/DARK/N-PIX1 (:14-:16)                                                                      06  150                                
PROFAMCHA031101195625195655000030Wide Awake (NOV7) - Friday @ 7:30pm                                                                                    102  150                                
PROFAMCHA031101195625195655000030Wide Awake (NOV7) - Friday @ 7:30pm                                                                                    102  150                                
PRCFAMCHA031101195655195725000030Honey, I Shrunk The Kids (FALL 2003) - Coming Up                                                                       106  150                                
PRCFAMCHA031101195655195725000030Honey, I Shrunk The Kids (FALL 2003) - Coming Up                                                                       106  150                                
INTFAMCHA031101195725195916000151Gagsters - Feline Frenzy                                                                                              A20682120                                
INTFAMCHA031101195725195916000151Gagsters - Feline Frenzy                                                                                              A20682120                                
PROFAMCHA031101195916195946000030Teen Angel - Tomorrow @ 11:10am                                                                                        106  150                                
PROFAMCHA031101195916195946000030Teen Angel - Tomorrow @ 11:10am                                                                                        106  150                                
ID FAMCHA031101195946200000000014Nonstop Weekend Block Open (:14-:17)                                                                                    06  150                                
SGTFAMCHA031101200000204315004315Disney's Honey, I Shrunk The Kids: The TV Show    It's No Fun Being An Illegal Alien                                   6068807B                                
PROFAMCHA031101204315204331000016Nnstp Wknd - 31(SAT) - DARK/N-PIX1 (:14-:16)                                                                            06  150                                
PROFAMCHA031101204331204401000030Wide Awake (NOV7) - Friday @ 7:30pm                                                                                    102  150                                
PROFAMCHA031101204331204401000030Wide Awake (NOV7) - Friday @ 7:30pm                                                                                    102  150                                
PROFAMCHA031101204401204419000018That's So Raven (FALL 2003) - Tomorrow @ 9:55am                                                                        106  150                                
PROFAMCHA031101204401204419000018That's So Raven (FALL 2003) - Tomorrow @ 9:55am                                                                        106  150                                
PROFAMCHA031101204419204444000025Even Stevens (SIBLINGS) - Tomorrow @ 9:30am                                                                             06  150                                
ID FAMCHA031101204444204500000016Nonstop Weekend Block Open (:14-:17)                                                                                    06  150                                
SGTFAMCHA031101204500205732001232Are You Afraid of the Dark?                       Badge Pt.1                                                    SR0306A1066807A                                
SGTFAMCHA031101204500205732001232Are You Afraid of the Dark?                       Badge Pt.1                                                    SR0306A1066807A                                
PROFAMCHA031101205732205748000016Nightly Pix Line-up (SEPT) - GENERIC (:14-:16)                                                                          06  150                                
PROFAMCHA031101205748205818000030Wide Awake (NOV7) - Friday @ 7:30pm                                                                                    102  150                                
PROFAMCHA031101205748205818000030Wide Awake (NOV7) - Friday @ 7:30pm                                                                                    102  150                                
PRCFAMCHA031101205818205848000030ELF BLAST! Interstitial (3;5)                                                                                           06  150                                
PROFAMCHA031101205848205945000057xxBoy Meets World (DANCE - FALL 2003) - Tommorow @                                                                     106  150                                
PROFAMCHA031101205848205945000057xxBoy Meets World (DANCE - FALL 2003) - Tommorow @                                                                     106  150                                
ID FAMCHA031101205945210000000015Nightly Pix Movie Open (:10-:15)                                                                                        06  150                                
PRCFAMCHA031101210000210009000009Rating - G - Ian (:08-:10)                                                                                              06  150                                
SGTFAMCHA031101210009223745013736Free Willy                                                                                                            A2068807D                                
SGTFAMCHA031101210009223745013736Free Willy                                                                                                            A2068807D                                
PROFAMCHA031101223745223759000014Nnstp Wknd - 32(SAT) - DARK/N-PIX2 (:14-:16)                                                                            06  150                                
ID FAMCHA031101223759223813000014Nonstop Weekend Block Open (:14-:17)                                                                                    06  150                                
PROFAMCHA031101223813223822000009CC Disclaimer - SLOW - Generic (:08-:10)                                                                                06  150                                
SGTFAMCHA031101223822225217001355Are You Afraid of the Dark?                       Badge Pt.2                                                    SR0306A1066807A                                
SGTFAMCHA031101223822225217001355Are You Afraid of the Dark?                       Badge Pt.2                                                    SR0306A1066807A                                
PROFAMCHA031101225217225231000014Nightly Pix Line-up (SEPT) - GENERIC (:14-:16)                                                                          06  150                                
PROFAMCHA031101225231225250000019Nonstop Weekend - LIZZIE MCGUIRE - Lenny                                                                                06  150                                
ID FAMCHA031101225250225300000010Nightly Pix Movie Open (:10-:15)                                                                                        06  150                                
PRCFAMCHA031101225300225309000009Rating - PG - Ian (:08-:10)                                                                                             06  150                                
PROFAMCHA031101225309225318000009CC Disclaimer - SLOW - Family (:08-:10)                                                                                 06  150                                
SGTFAMCHA031101225318005421020103Accidental Tourist; The                                                                                               B2068807DCC                              
SGTFAMCHA031101225318005421020103Accidental Tourist; The                                                                                               B2068807DCC                              
PROFAMCHA031101005421005435000014Nnstp Wknd - 34 - JETT (:14-:16)                                                                                        06  150                                
ID FAMCHA031101005435005449000014Nonstop Weekend Block Open (:14-:17)                                                                                    06  150                                
PROFAMCHA031101005449005458000009CC Disclaimer - SLOW - Family.ca (:08-:10)                                                                              06  150                                
SGTFAMCHA031101005458011931002433Famous Jett Jackson; The                          Grades                                                        B57129 1065607ACC                              
SGTFAMCHA031101005458011931002433Famous Jett Jackson; The                          Grades                                                        B57129 1065607ACC                              
SO FAMCHA031101011931011931001200Sign Off                                                                                                                06                                     
SO FAMCHA031101011931013131001200Sign Off                                                                                                                06                                     
OFFFAMCHA031101013131043000025829OFF AIR                                                                                                                 00                                     
SO FAMCHA031102043000043011000011Sign On (oct 1)                                                                                                         06                                     
PROFAMCHA031102043011043020000009CC Disclaimer - FAST - Family (:08-:10)                                                                                 06  150                                
SGTFAMCHA031102043020045313002253Franklin                                          Franklin Takes A Trip/Franklin's Bicycle Helmet               B13646A1065607ECC                              
SGTFAMCHA031102043020045313002253Franklin                                          Franklin Takes A Trip/Franklin's Bicycle Helmet               B13646A1065607ECC                              
PROFAMCHA031102045313045329000016Nnstp Wknd - 01(PH) - WTP/KATIE/FRANKLIN (:14-:16)                                                                      06  150                                
ID FAMCHA031102045329045344000015PS Playhouse AM Block Open (:10-:15)                                                                                    06  150                                
PROFAMCHA031102045344045353000009CC Disclaimer - FAST - Family.ca (:08-:10)                                                                              06  150                                
SGTFAMCHA031102045353051704002311New Adventures of Winnie the Pooh; The            Pooh Moon/Caws and Effect                                            6068607ECC                              
PROFAMCHA031102051704051720000016Nnstp Wknd - 02(PH) - KATIE/FRANKLIN/RIPLEY (:14-:                                                                      06  150                                
ID FAMCHA031102051720051735000015PS Playhouse AM Block Open (:10-:15)                                                                                    06  150                                
PROFAMCHA031102051735051745000010CC Disclaimer - FAST - Generic (:08-:10)                                                                                06  150                                
SGTFAMCHA031102051745054423002638Katie And Orbie                                   Burr!/Gutter Balls/The Nibbler                                C19665A1065607ECC                              
SGTFAMCHA031102051745054423002638Katie And Orbie                                   Burr!/Gutter Balls/The Nibbler                                C19665A1065607ECC                              
PROFAMCHA031102054423054439000016PS - 03(PH) - FRANKLIN/RIPLEY/HOZE (:14-:16)                                                                            06  150                                
ID FAMCHA031102054439054454000015PS Playhouse AM Block Open (:10-:15)                                                                                    06  150                                
PROFAMCHA031102054454054503000009CC Disclaimer - FAST - Family (:08-:10)                                                                                 06  150                                
SGTFAMCHA031102054503060756002253Franklin                                          Franklin's Birthday Party/Franklin's Nickname                 B13647A1065607ECC                              
SGTFAMCHA031102054503060756002253Franklin                                          Franklin's Birthday Party/Franklin's Nickname                 B13647A1065607ECC                              
PROFAMCHA031102060756060812000016PS - 04(PH) - RIPLEY/HOZE/KNIGHT (:14-:16)                                                                              06  150                                
ID FAMCHA031102060812060827000015PS Playhouse AM Block Open (:10-:15)                                                                                    06  150                                
PROFAMCHA031102060827060836000009CC Disclaimer - FAST - Family.ca (:08-:10)                                                                              06  150                                
SGTFAMCHA031102060836063306002430Ripley's Believe It Or Not!                       The First Artifact                                            B21809 1065607ECC                              
SGTFAMCHA031102060836063306002430Ripley's Believe It Or Not!                       The First Artifact                                            B21809 1065607ECC                              
PROFAMCHA031102063306063322000016PS - 05(PH) - HOZE/KNIGHT/PRLR (:14-:16)                                                                                06  150                                
ID FAMCHA031102063322063337000015PS Playhouse AM Block Open (:10-:15)                                                                                    06  150                                
SGTFAMCHA031102063337065506002129Power Rangers Wild Force                          Sing Song                                                           A6068607E                                
PROFAMCHA031102065506065522000016Nnstp Wknd - 06(PB/SEP) - PRNS/KING/LIZZIE (:14-:1                                                                      06  150                                
PROFAMCHA031102065522065552000030Teen Angel - Today @ 11:10am                                                                                           106  150                                
PROFAMCHA031102065522065552000030Teen Angel - Today @ 11:10am                                                                                           106  150                                
PROFAMCHA031102065552065622000030Lizzie McGuire (FALL 2003) - Today @ 8am                                                                               106  150                                
PROFAMCHA031102065552065622000030Lizzie McGuire (FALL 2003) - Today @ 8am                                                                               106  150                                
PROFAMCHA031102065622065706000044Nonstop Weekend - LIZZIE MCGUIRE - Fountain                                                                             06  150                                
PRCFAMCHA031102065706065736000030King (FRIENDS) - Today @ 7:30am                                                                                        106  150                                
PRCFAMCHA031102065706065736000030King (FRIENDS) - Today @ 7:30am                                                                                        106  150                                
INTFAMCHA031102065736065918000142Gagsters - Hair Off                                                                                                   A20682120                                
INTFAMCHA031102065736065918000142Gagsters - Hair Off                                                                                                   A20682120                                
PROFAMCHA031102065918065948000030Wide Awake (NOV7) - Friday @ 7:30pm                                                                                    106  150                                
PROFAMCHA031102065918065948000030Wide Awake (NOV7) - Friday @ 7:30pm                                                                                    106  150                                
ID FAMCHA031102065948070000000012Power Box Block Open (:12-:15)                                                                                          06  150                                
SGTFAMCHA031102070000072124002124Power Rangers Ninja Storm                         EPS # 1-030                                                         A6028607E                                
PROFAMCHA031102072124072140000016Nnstp Wknd - 07(SEP) - KING/LIZZIE/AMANDA (:14-:16                                                                      06  150                                
PRCFAMCHA031102072140072210000030King (FRIENDS) - Coming Up                                                                                             106  150                                
PRCFAMCHA031102072140072210000030King (FRIENDS) - Coming Up                                                                                             106  150                                
PROFAMCHA031102072210072240000030Teen Angel - Today @ 11:10am                                                                                           106  150                                
PROFAMCHA031102072210072240000030Teen Angel - Today @ 11:10am                                                                                           106  150                                
INTFAMCHA031102072240072452000212Gagsters - Planet Of The Gagsters                                                                                     A20682120                                
INTFAMCHA031102072240072452000212Gagsters - Planet Of The Gagsters                                                                                     A20682120                                
PROFAMCHA031102072452072522000030Lizzie McGuire (FALL 2003) - Today @ 8am                                                                               106  150                                
PROFAMCHA031102072452072522000030Lizzie McGuire (FALL 2003) - Today @ 8am                                                                               106  150                                
PROFAMCHA031102072522072540000018That's So Raven (FALL 2003) - Today @ 9:55am                                                                           106  150                                
PROFAMCHA031102072522072540000018That's So Raven (FALL 2003) - Today @ 9:55am                                                                           106  150                                
INTFAMCHA031102072540072813000233Gagsters - Screamer                                                                                                   A20682120                                
INTFAMCHA031102072540072813000233Gagsters - Screamer                                                                                                   A20682120                                
PROFAMCHA031102072813072845000032xxKim Possible (FALL 2003) - Today @ 4:40pm (NSW)                                                                      106  150                                
PROFAMCHA031102072813072845000032xxKim Possible (FALL 2003) - Today @ 4:40pm (NSW)                                                                      106  150                                
PRCFAMCHA031102072845072915000030In A Heartbeat (FALL2003) - Tomorrow @ 8:30pm                                                                          106  150                                
PRCFAMCHA031102072845072915000030In A Heartbeat (FALL2003) - Tomorrow @ 8:30pm                                                                          106  150                                
PROFAMCHA031102072915072945000030Wide Awake (NOV7) - Friday @ 7:30pm                                                                                    106  150                                
PROFAMCHA031102072915072945000030Wide Awake (NOV7) - Friday @ 7:30pm                                                                                    106  150                                
ID FAMCHA031102072945073000000015Nonstop Weekend Block Open (:14-:17)                                                                                    06  150                                
PROFAMCHA031102073000073010000010CC Disclaimer - FAST - Generic (:08-:10)                                                                                06  150                                
SGTFAMCHA031102073010075240002230King                                              Very Big Faces                                                A75763A1065607ECC                              
SGTFAMCHA031102073010075240002230King                                              Very Big Faces                                                A75763A1065607ECC                              
PROFAMCHA031102075240075256000016Nnstp Wknd - 08 - LIZZIE/AMANDA/ALL (:14-:16)                                                                           06  150                                
PROFAMCHA031102075256075306000010My Scene Sponsorship (8)                                                                                                06  150                                
PROFAMCHA031102075306075336000030Lizzie McGuire (FALL 2003) - Coming Up (NSW)                                                                           106  150                                
PROFAMCHA031102075306075336000030Lizzie McGuire (FALL 2003) - Coming Up (NSW)                                                                           106  150                                
INTFAMCHA031102075336075603000227Gagsters - Goldfish Gusher                                                                                            A20682120                                
INTFAMCHA031102075336075603000227Gagsters - Goldfish Gusher                                                                                            A20682120                                
PROFAMCHA031102075603075633000030Wide Awake (NOV7) - Friday @ 7:30pm                                                                                    106  150                                
PROFAMCHA031102075603075633000030Wide Awake (NOV7) - Friday @ 7:30pm                                                                                    106  150                                
PRCFAMCHA031102075633075703000030ELF BLAST! Interstitial (3;5)                                                                                           06  150                                
INTFAMCHA031102075703075915000212Gagsters - Furniture Fiasco                                                                                           A20682120                                
INTFAMCHA031102075703075915000212Gagsters - Furniture Fiasco                                                                                           A20682120                                
PROFAMCHA031102075915075945000030Teen Angel - Today @ 11:10am                                                                                           106  150                                
PROFAMCHA031102075915075945000030Teen Angel - Today @ 11:10am                                                                                           106  150                                
ID FAMCHA031102075945080000000015Nonstop Weekend Block Open (:14-:17)                                                                                    06  150                                
ID FAMCHA031102080000080008000008Magic of Disney - NS/NSW/PB - Wipe (:06-:09)                                                                            06  150                                
PROFAMCHA031102080008080017000009CC Disclaimer - FAST - Family (:08-:10)                                                                                 06  150                                
SGTFAMCHA031102080017082248002231Lizzie McGuire                                    Best Dressed For Much Less                                          A6068607BCC                              
PROFAMCHA031102082248082304000016Nnstp Wknd - 09 - AMANDA/ALL/EVEN (:14-:16)                                                                             06  150                                
PROFAMCHA031102082304082314000010My Scene Sponsorship (8)                                                                                                06  150                                
PROFAMCHA031102082314082344000030Wide Awake (NOV7) - Friday @ 7:30pm                                                                                    106  150                                
PROFAMCHA031102082314082344000030Wide Awake (NOV7) - Friday @ 7:30pm                                                                                    106  150                                
INTFAMCHA031102082344082544000200Gagsters - Deep Freeze                                                                                                A20682120                                
INTFAMCHA031102082344082544000200Gagsters - Deep Freeze                                                                                                A20682120                                
PRCFAMCHA031102082544082614000030ELF BLAST! Interstitial (3;5)                                                                                           06  150                                
INTFAMCHA031102082614082846000232Gagsters - Slimy Ball                                                                                                 A20682120                                
INTFAMCHA031102082614082846000232Gagsters - Slimy Ball                                                                                                 A20682120                                
PRCFAMCHA031102082846082916000030Family Birthday Club #1 - ONGOING (1) (DNUpost Jan                                                                      06  150                                
PROFAMCHA031102082916082946000030Teen Angel - Today @ 11:10am                                                                                           106  150                                
PROFAMCHA031102082916082946000030Teen Angel - Today @ 11:10am                                                                                           106  150                                
ID FAMCHA031102082946083000000014Nonstop Weekend Block Open (:14-:17)                                                                                    06  150                                
SGTFAMCHA031102083000085206002206Amanda Show; The                                                                                                      A20686090                                
SGTFAMCHA031102083000085206002206Amanda Show; The                                                                                                      A20686090                                
PROFAMCHA031102085206085221000015Nnstp Wknd - 10 - ALL/EVEN/RAVEN (:14-:16)                                                                              06  150                                
PROFAMCHA031102085221085231000010My Scene Sponsorship (8)                                                                                                06  150                                
PROFAMCHA031102085231085249000018That's So Raven (FALL 2003) - Today @ 9:55am                                                                           106  150                                
PROFAMCHA031102085231085249000018That's So Raven (FALL 2003) - Today @ 9:55am                                                                           106  150                                
INTFAMCHA031102085249085449000200Gagsters - Cake Walk                                                                                                  A20682120                                
INTFAMCHA031102085249085449000200Gagsters - Cake Walk                                                                                                  A20682120                                
PROFAMCHA031102085449085519000030Lilo & Stitch - Today @ 3:25pm (NSW)                                                                                   102  150                                
PROFAMCHA031102085449085519000030Lilo & Stitch - Today @ 3:25pm (NSW)                                                                                   102  150                                
PROFAMCHA031102085519085551000032xxKim Possible (FALL 2003) - Tomorrow @ 4:40pm (NS                                                                     106  150                                
PROFAMCHA031102085519085551000032xxKim Possible (FALL 2003) - Tomorrow @ 4:40pm (NS                                                                     106  150                                
INTFAMCHA031102085551085848000257Gagsters - Sleazy Sneeze                                                                                              A20682120                                
INTFAMCHA031102085551085848000257Gagsters - Sleazy Sneeze                                                                                              A20682120                                
PROFAMCHA031102085848085913000025Even Stevens (SIBLINGS) - Today @ 9:30am                                                                                06  150                                
PROFAMCHA031102085913085943000030Wide Awake (NOV7) - Friday @ 7:30pm                                                                                    106  150                                
PROFAMCHA031102085913085943000030Wide Awake (NOV7) - Friday @ 7:30pm                                                                                    106  150                                
ID FAMCHA031102085943090000000017Nonstop Weekend Block Open (:14-:17)                                                                                    06  150                                
SGTFAMCHA031102090000092000002000All That                                                                                                              A20686090                                
SGTFAMCHA031102090000092000002000All That                                                                                                              A20686090                                
PROFAMCHA031102092000092016000016Nnstp Wknd - 11 - EVEN/RAVEN/BMW (:14-:16)                                                                              06  150                                
PROFAMCHA031102092016092026000010My Scene Sponsorship (8)                                                                                                06  150                                
PROFAMCHA031102092026092044000018That's So Raven (FALL 2003) - Today @ 9:55am                                                                           106  150                                
PROFAMCHA031102092026092044000018That's So Raven (FALL 2003) - Today @ 9:55am                                                                           106  150                                
PROFAMCHA031102092044092109000025Even Stevens (SIBLINGS) - Coming Up (NSW)                                                                               06  150                                
INTFAMCHA031102092109092329000220Gagsters - Wet Paint                                                                                                  A20682120                                
INTFAMCHA031102092109092329000220Gagsters - Wet Paint                                                                                                  A20682120                                
PROFAMCHA031102092329092359000030Lilo & Stitch - Today @ 3:25pm (NSW)                                                                                   102  150                                
PROFAMCHA031102092329092359000030Lilo & Stitch - Today @ 3:25pm (NSW)                                                                                   102  150                                
PROFAMCHA031102092359092423000024Nonstop Weekend - KIM POSSIBLE - Gadgets                                                                                06  150                                
PROFAMCHA031102092423092520000057xxBoy Meets World (DANCE - FALL 2003) - Today @ 10                                                                     106  150                                
PROFAMCHA031102092423092520000057xxBoy Meets World (DANCE - FALL 2003) - Today @ 10                                                                     106  150                                
INTFAMCHA031102092520092716000156Gagsters - Slingshot                                                                                                  A20282120                                
INTFAMCHA031102092520092716000156Gagsters - Slingshot                                                                                                  A20282120                                
PROFAMCHA031102092716092744000028Proud Family (BOND) - Today @ 3:50pm                                                                                    06  150                                
PRCFAMCHA031102092744092814000030Family Popcorn Parties (2) *DNU*                                                                                        06  150                                
PROFAMCHA031102092814092844000030Wide Awake (NOV7) - Friday @ 7:30pm                                                                                    106  150                                
PROFAMCHA031102092814092844000030Wide Awake (NOV7) - Friday @ 7:30pm                                                                                    106  150                                
ID FAMCHA031102092844092900000016Nonstop Weekend Block Open (:14-:17)                                                                                    06  150                                
ID FAMCHA031102092900092908000008Magic of Disney - NS/NSW/PB - Shape (:06-:09)                                                                           06  150                                
PROFAMCHA031102092908092917000009CC Disclaimer - FAST - Family.ca (:08-:10)                                                                              06  150                                
SGTFAMCHA031102092917095159002242Even Stevens                                      A Weak First Week                                                   A6068807B                                
PROFAMCHA031102095159095215000016Nnstp Wknd - 12 - RAVEN/BMW/SMART (:14-:16)                                                                             06  150                                
PROFAMCHA031102095215095245000030Wide Awake (NOV7) - Friday @ 7:30pm                                                                                    106  150                                
PROFAMCHA031102095215095245000030Wide Awake (NOV7) - Friday @ 7:30pm                                                                                    106  150                                
PROFAMCHA031102095245095317000032xxKim Possible (FALL 2003) - Today @ 4:40pm (NSW)                                                                      106  150                                
PROFAMCHA031102095245095317000032xxKim Possible (FALL 2003) - Today @ 4:40pm (NSW)                                                                      106  150                                
INTFAMCHA031102095317095353000036Harrisons; The - Balloon Pop Scream                                                                                   A10626120                                
INTFAMCHA031102095317095353000036Harrisons; The - Balloon Pop Scream                                                                                   A10626120                                
PROFAMCHA031102095353095423000030Lilo & Stitch - Today @ 3:25pm (NSW)                                                                                   102  150                                
PROFAMCHA031102095353095423000030Lilo & Stitch - Today @ 3:25pm (NSW)                                                                                   102  150                                
PROFAMCHA031102095423095445000022xxBoy Meets World (ANSWER - FALL 2003) - Today @ 1                                                                     106  150                                
PROFAMCHA031102095423095445000022xxBoy Meets World (ANSWER - FALL 2003) - Today @ 1                                                                     106  150                                
ID FAMCHA031102095445095500000015Nonstop Weekend Block Open (:14-:17)                                                                                    06  150                                
PROFAMCHA031102095500095510000010CC Disclaimer - FAST - Generic (:08-:10)                                                                                06  150                                
SGTFAMCHA031102095510101750002240That's So Raven                                   The Smell of Victory                                                A6068807BCC                              
PROFAMCHA031102101750101806000016Nnstp Wknd - 13 - BMW/SMART/TEEN (:14-:16)                                                                              06  150                                
PROFAMCHA031102101806101816000010My Scene Sponsorship (8)                                                                                                06  150                                
PROFAMCHA031102101816101838000022xxBoy Meets World (ANSWER - FALL 2003) - Coming Up                                                                     106  150                                
PROFAMCHA031102101816101838000022xxBoy Meets World (ANSWER - FALL 2003) - Coming Up                                                                     106  150                                
INTFAMCHA031102101838101914000036Harrisons; The - Groceries                                                                                            A10626120                                
INTFAMCHA031102101838101914000036Harrisons; The - Groceries                                                                                            A10626120                                
PROFAMCHA031102101914101946000032xxKim Possible (FALL 2003) - Today @ 4:40pm (NSW)                                                                      106  150                                
PROFAMCHA031102101914101946000032xxKim Possible (FALL 2003) - Today @ 4:40pm (NSW)                                                                      106  150                                
ID FAMCHA031102101946102000000014Nonstop Weekend Block Open (:14-:17)                                                                                    06  150                                
PROFAMCHA031102102000102009000009CC Disclaimer - FAST - Family (:08-:10)                                                                                 06  150                                
SGTFAMCHA031102102009104204002155Boy Meets World                                   Kid Gloves                                                          B6068807BCC                              
PROFAMCHA031102104204104220000016Nnstp Wknd - 14 - SMART/TEEN/WISH (:14-:16)                                                                             06  150                                
PROFAMCHA031102104220104230000010My Scene Sponsorship (8)                                                                                                06  150                                
PROFAMCHA031102104230104300000030Wide Awake (NOV7) - Friday @ 7:30pm                                                                                    106  150                                
PROFAMCHA031102104230104300000030Wide Awake (NOV7) - Friday @ 7:30pm                                                                                    106  150                                
