SO FAMCHA081101043000043011000011Sign On (oct 1)                                                                                                                                                
PRCFAMCHA081101043011043020000009CC Disclaimer - FAST - Generic (:09-:10)                                                                                    150                                
PGRFAMCHA081101043020045423002403Henry's World                                     EPS # 2-023                                                   B81054A1065607GCC                              
PRCFAMCHA081101045423045429000006Astral ID (DEC 2007)                                                                                                        150                                
PRCFAMCHA081101045429045442000013FJR - 15 - BENJAMIN BEAR / FRANNY'S FEET (SEPT08)                                                                           150                                
PRCFAMCHA081101045442045454000012Family Jr. Bumper - Music (:11- :14) (JUL08)                                                                                150                                
PRCFAMCHA081101045454045503000009CC Disclaimer - FAST - Family.ca (:09-:10)                                                                                  150                                
PGRFAMCHA081101045503051733002230Secret World of Benjamin Bear, The                EP: 28                                                        C27272 1065607ECC                              
PRCFAMCHA081101051733051744000011FJR - 16 - FRANNY'S FEET / KING (SEPT08)                                                                                    150                                
PRCFAMCHA081101051744051756000012Family Jr. Bumper - Collide (:11- :14) (JUL08)                                                                              150                                
PRCFAMCHA081101051756051805000009CC Disclaimer - FAST - Generic (:09-:10)                                                                                    150                                
PGRFAMCHA081101051805054035002230Franny's Feet                                     EPS # 1-013                                                   C23970A1065607ECC                              
PRCFAMCHA081101054035054041000006Astral ID (DEC 2007)                                                                                                        150                                
PRCFAMCHA081101054041054052000011FJR - 17 - KING (SEPT08)                                                                                                    150                                
PRCFAMCHA081101054052054103000011Family Jr. Bumper - Acrobat (:10- :13) (JUL08)                                                                              150                                
PRCFAMCHA081101054103054112000009CC Disclaimer - FAST - Family.ca (:09-:10)                                                                                  150                                
PGRFAMCHA081101054112060342002230King                                              EPS # 033                                                     C25350 1065607ECC                              
PROFAMCHA081101060342060400000018Jetix Block Open (:18-:21)                                                                                                  150                                
PRCFAMCHA081101060400060409000009CC Disclaimer - FAST - Generic (:09-:10)                                                                                    150                                
PGRFAMCHA081101060409062648002239Power Rangers:  Operation Overdrive               EP: 06                                                               2068607ECC                              
PRCFAMCHA081101062648062654000006Astral ID (DEC 2007)                                                                                                        150                                
PROFAMCHA081101062654062734000040100 Years on ICE blast (Oct 25 - Nov 7) $$$                                                                                 150                                
PRCFAMCHA081101062734062754000020Bullying Cuff Spot Short - 4xDay till Nov 14 & 3xD                                                                          150                                
PROFAMCHA081101062754062839000045Kellogg's Eggo HSM Contest (Oct 15 - Nov 4) $$$                                                                             150                                
PROFAMCHA081101062839062857000018Jetix Block Open (:18-:21)                                                                                                  150                                
PRCFAMCHA081101062857062907000010CC Disclaimer - FAST - Family.ca (:09-:10)                                                                                  150                                
PGRFAMCHA081101062907065139002232Power Rangers Jungle Fury                         EP: 08                                                               2068607ACC                              
PROFAMCHA081101065139065209000030Disneyland Adv On Ice Blast (Dec 12 - 28) $$$                                                                               150                                
PRCFAMCHA081101065209065259000050Family Online Community Promo - 3/4 Day (not in PH                                                                          150                                
PROFAMCHA081101065259065339000040LWD Season 1 DVD Blast (Oct 16 - Nov 2) $$$                                                                                 150                                
PROFAMCHA081101065339065358000019Jetix Block Open (:18-:21)                                                                                                  150                                
PRCFAMCHA081101065358065407000009CC Disclaimer - FAST - Generic (:09-:10)                                                                                    150                                
PGRFAMCHA081101065407071612002205Digimon Data Squad                                EP: 08                                                               2068607ECC                              
PRCFAMCHA081101071612071618000006Astral ID (DEC 2007)                                                                                                        150                                
PRCFAMCHA081101071618071630000012NSW - 00 - NEDS/HANNAH (:11 - :13) (OCT08)                                                                                  150                                
PROFAMCHA081101071630071704000034Hannah Montana (NSW) Wig Auditions - This Morning                                                                           150                                
PROFAMCHA081101071704071744000040Tinkerbell DVD Blast - Now Available (Oct 28 - Nov                                                                          150                                
PROFAMCHA081101071744071812000028Suite Life on Deck PREMISE (NSW) This Afternoon @                                                                           150                                
PROFAMCHA081101071812071857000045Kellogg's Eggo HSM Contest (Oct 15 - Nov 4) $$$                                                                             150                                
PROFAMCHA081101071857071940000043Ned's DSSG (NSW) Too Cool for School  - Coming Up                                                                           150                                
PROFAMCHA081101071940071956000016Nonstop Weekend Block Open (:16-:18) APR06                                                                                  150                                
PRCFAMCHA081101071956072005000009CC Disclaimer - FAST - Family.ca (:09-:10)                                                                                  150                                
PGRFAMCHA081101072005074421002416Ned's Declassified School Survival Guide          EP: 43                                                               2068807BCC                              
PRCFAMCHA081101074421074433000012NSW - 01 - HANNAH/SUITE LIFE (:11 - :13) (SEPT07)                                                                           150                                
PRCFAMCHA081101074433074508000035Family First Overall Promo - 3/4 Per Day (Sept.6 -                                                                          150                                
PROFAMCHA081101074508074538000030Wizards of Waverrly Place ALEX (NSW) - This Mornin                                                                          150                                
PROFAMCHA081101074538074606000028Suite Life on Deck PREMISE (NSW) This Afternoon @                                                                           150                                
PROFAMCHA081101074606074651000045Barbie in a XMAS Carol DVD Contest - Available Nov                                                                          150                                
PROFAMCHA081101074651074753000102Hannah Montana (NSW) Mockumentry - Coming Up Next                                                                           150                                
PRCFAMCHA081101074753074805000012NSW Bumper - Fashion (:12-:14) JUNE06                                                                                       150                                
ID FAMCHA081101074805074813000008Magic of Disney - NS/NSW/PB - Shape (:06-:09)                                                                               150                                
PRCFAMCHA081101074813074822000009CC Disclaimer - FAST - Generic (:09-:10)                                                                                    150                                
PGRFAMCHA081101074822081058002236Hannah Montana - Season 2                         EP: 03                                                               6068807BCC                              
PRCFAMCHA081101081058081110000012NSW - 02 - SUITE LIFE/ZOEY 101 (:11 - :13) (SEPT07                                                                          150                                
PROFAMCHA081101081110081142000032Suite Life OD Contest REVISION - 3-4x  Day (Oct 14                                                                          150                                
PROFAMCHA081101081142081227000045Kellogg's Eggo HSM Contest (Oct 15 - Nov 4) $$$                                                                             150                                
PROFAMCHA081101081227081252000025Zoey 101 - BOOTH (NSW) This Morning @ 8:40am (SEPT                                                                          150                                
PROFAMCHA081101081252081321000029Hannah Montana - SUPER AWESOME (NS) New Eps - Fri                                                                           150                                
PROFAMCHA081101081321081413000052Madagascar Escape 2 REVISION - In Theatres Nov 7 (                                                                          150                                
PROFAMCHA081101081413081445000032Suite Life of Z & C (NSW) IMPRESS - Coming Up Next                                                                          150                                
PRCFAMCHA081101081445081453000008NSW Bumper - Dodgeball (:07-:09) APR06                                                                                      150                                
ID FAMCHA081101081453081501000008Magic of Disney - MAD DASH - Wipe (:06-:09)                                                                                 150                                
PRCFAMCHA081101081501081510000009CC Disclaimer - FAST - Family.ca (:09-:10)                                                                                  150                                
PGRFAMCHA081101081510083748002238Suite Life of Zack & Cody, The                    EP: 54                                                               6068607BCC                              
PRCFAMCHA081101083748083801000013NSW - 03 - ZOEY 101/CORY IN THE HOUSE (:11 - :13)                                                                           150                                
PRCFAMCHA081101083801083821000020Bullying Cuff Spot Short - 4xDay till Nov 14 & 3xD                                                                          150                                
PROFAMCHA081101083821083901000040Journey To The Center Of The Earth DVD - Available                                                                          150                                
PROFAMCHA081101083901084001000100Cory In The House - Cory vs. Sophie (NSW) This Mor                                                                          150                                
PROFAMCHA081101084001084055000054That's So Raven FORTUNE TELLER (NSW) This Morning                                                                           150                                
PROFAMCHA081101084055084125000030Phil Of The Future (NSW) POP QUIZ - This Morning @                                                                          150                                
PROFAMCHA081101084125084156000031Suite Life on Deck LIFE AT SEA (NSW) This Afternoo                                                                          150                                
PRCFAMCHA081101084156084231000035Family First Overall Promo - 3/4 Per Day (Sept.6 -                                                                          150                                
PROFAMCHA081101084231084248000017Zoey 101 (NSW)  ZOEY, ZOEY, ZOEY - Coming Up Next                                                                           150                                
PRCFAMCHA081101084248084304000016NSW Bumper - Tennis (:15-:17) APR06                                                                                         150                                
PRCFAMCHA081101084304084313000009CC Disclaimer - FAST - Generic (:09-:10)                                                                                    150                                
PRCFAMCHA081101084313084319000006Astral ID (DEC 2007)                                                                                                        150                                
PGRFAMCHA081101084319090651002332Zoey 101                                          EP: 20                                                              A2068807BCC                              
PRCFAMCHA081101090651090703000012NSW - 04 - CORY IN THE HOUSE/RAVEN (:11 - :13) (SE                                                                          150                                
PRCFAMCHA081101090703090753000050Family Online Community Promo - 3/4 Day (not in PH                                                                          150                                
PROFAMCHA081101090753090823000030Disneyland Adv On Ice Blast (Dec 12 - 28) $$$                                                                               150                                
PROFAMCHA081101090823090835000012Hannah Montana IDs - (NSW) Miley # 1 - This Aftern                                                                          150                                
PRCFAMCHA081101090835090918000043Life W Derek (NSW) Trailer/New Season - NEW EPS To                                                                          150                                
PROFAMCHA081101090918090958000040Zoey 101 (NS) SAFETY CUPCAKE - NEW EPISODE - Frida                                                                          150                                
PROFAMCHA081101090958091030000032Latest Buzz - HEADLINES (NS) NEW EPS Friday Nights                                                                          150                                
PROFAMCHA081101091030091110000040Kung Fu Panda DVD - Available Nov 7 (Oct 31 - Nov                                                                           150                                
PROFAMCHA081101091110091153000043Cory In The House (NSW) (MAR07) - Coming Up Next                                                                            150                                
PRCFAMCHA081101091153091201000008NSW Bumper - Dodgeball (:07-:09) APR06                                                                                      150                                
ID FAMCHA081101091201091209000008Magic of Disney - NS/NSW/PB - Shape (:06-:09)                                                                               150                                
PRCFAMCHA081101091209091218000009CC Disclaimer - FAST - Family.ca (:09-:10)                                                                                  150                                
PGRFAMCHA081101091218093456002238Cory in the House                                 EP: 02                                                               6068607BCC                              
PRCFAMCHA081101093456093508000012NSW - 05 - RAVEN/PHIL (:11 - :13) (SEPT07)                                                                                  150                                
PRCFAMCHA081101093508093543000035Family First Overall Promo - 3/4 Per Day (Sept.6 -                                                                          150                                
PROFAMCHA081101093543093623000040100 Years on ICE blast (Oct 25 - Nov 7) $$$                                                                                 150                                
PROFAMCHA081101093623093653000030Phil Of The Future (NSW) POP QUIZ - This Morning @                                                                          150                                
PROFAMCHA081101093653093725000032Suite Life of Z & C (NSW) IMPRESS - This Morning @                                                                          150                                
PROFAMCHA081101093725093735000010FAMJAM - Open/Close                                                                                                         150                                
PGRFAMCHA081101093735093905000130MV Disney - (MD/NS/NSW) - Jesse McCartney - Just S                                                                     60688120                                
PROFAMCHA081101093905093919000014xxFAMJAM - Close (FAMILY) xxDNUxx                                                                                           150                                
PROFAMCHA081101093919093955000036Flight 29 Down - (NSW) Tonight @ 6:30pm (JULY08)                                                                            150                                
PROFAMCHA081101093955094024000029Hannah Montana - SUPER AWESOME (NS) New Eps - Fri                                                                           150                                
PROFAMCHA081101094024094051000027That's So Raven CLIP (NSW) Coming Up Next (APR08)                                                                           150                                
PRCFAMCHA081101094051094104000013NSW Bumper - Fashion (:12-:14) JUNE06                                                                                       150                                
ID FAMCHA081101094104094112000008Magic of Disney - NS/NSW/PB - Wipe (:06-:09)                                                                                150                                
PRCFAMCHA081101094112094121000009CC Disclaimer - FAST - Generic (:09-:10)                                                                                    150                                
PGRFAMCHA081101094121100357002236That's So Raven                                   EP: 067                                                              6068607BCC                              
PRCFAMCHA081101100357100403000006Astral ID (DEC 2007)                                                                                                        150                                
PRCFAMCHA081101100403100415000012NSW - 06 - PHIL/WIZARDS(:11 - :13) (OCT08)                                                                                  150                                
PROFAMCHA081101100415100445000030Wizards of Waverrly Place JUSTIN (NSW) - This Morn                                                                          150                                
PROFAMCHA081101100445100525000040Journey To The Center Of The Earth DVD - Available                                                                          150                                
PROFAMCHA081101100525100556000031Ned's DSSG - Cookie Clip (APR06)(NSW) This Morning                                                                          150                                
PRCFAMCHA081101100556100801000205Bullying Stand Up Music Video PSA 3-4 X Day (Oct 1                                                                          150                                
PROFAMCHA081101100801100846000045Suite Life on Deck TWINS (NSW) This Afternoon @ 3:                                                                          150                                
PROFAMCHA081101100846100926000040Tinkerbell DVD Blast - Now Available (Oct 28 - Nov                                                                          150                                
PROFAMCHA081101100926100956000030Phil Of The Future (NSW) POP QUIZ - Coming Up Next                                                                          150                                
PRCFAMCHA081101100956101004000008NSW Bumper - Dodgeball (:07-:09) APR06                                                                                      150                                
ID FAMCHA081101101004101012000008Magic of Disney - NS/NSW/PB - Shape (:06-:09)                                                                               150                                
PRCFAMCHA081101101012101021000009CC Disclaimer - FAST - Family.ca (:09-:10)                                                                                  150                                
PGRFAMCHA081101101021103257002236Phil of the Future Yr 2                           EP: 26                                                               6068607BCC                              
PRCFAMCHA081101103257103309000012NSW - 07 - WIZARDS/NED'S (:11 - :13) (OCT08)                                                                                150                                
PROFAMCHA081101103309103352000043Ned's DSSG (NSW) Too Cool for School  - This Morni                                                                          150                                
PROFAMCHA081101103352103444000052Madagascar Escape 2 REVISION - In Theatres Nov 7 (                                                                          150                                
PROFAMCHA081101103444103516000032Suite Life of Z & C (NSW) Wonderful Hotel - This M                                                                          150                                
PROFAMCHA081101103516103526000010FAMJAM - Open/Close                                                                                                         150                                
PGRFAMCHA081101103526103656000130MV Disney - (MD/NS/NSW) - Jesse McCartney - Just S                                                                     60688120                                
PROFAMCHA081101103656103710000014xxFAMJAM - Close (FAMILY) xxDNUxx                                                                                           150                                
PROFAMCHA081101103710103740000030Wizards of Waverrly Place SIBLING (NSW) - Coming U                                                                          150                                
PRCFAMCHA081101103740103756000016NSW Bumper - Tennis (:15-:17) APR06                                                                                         150                                
PRCFAMCHA081101103756103805000009CC Disclaimer - FAST - Generic (:09-:10)                                                                                    150                                
PGRFAMCHA081101103805110001002156Disney Wizards of Waverly Place                   EP: 08                                                               6068607BCC                              
PRCFAMCHA081101110001110013000012NSW - 08 - NED'S/SUITE LIFE (:11 - :13) (SEPT07)                                                                            150                                
PROFAMCHA081101110013110045000032Suite Life OD Contest REVISION - 3-4x  Day (Oct 14                                                                          150                                
PROFAMCHA081101110045110115000030Disneyland Adv On Ice Blast (Dec 12 - 28) $$$                                                                               150                                
PROFAMCHA081101110115110147000032Suite Life of Z & C (NSW) IMPRESS - This Morning @                                                                          150                                
PRCFAMCHA081101110147110317000130Movie Entertainment (8)                                                                                                     150                                
PROFAMCHA081101110317110326000009xxFamily Bumpers - (Phase 3 Spring 05) - Hip Hop (                                                                          150                                
PROFAMCHA081101110326110341000015Wizards of Waverrly Place DAVID #1 IDs (NS) - NEW                                                                           150                                
PRCFAMCHA081101110341110416000035Family First Overall Promo - 3/4 Per Day (Sept.6 -                                                                          150                                
PROFAMCHA081101110416110447000031Ned's DSSG - Cookie Clip (APR06)(NSW) Coming Up Ne                                                                          150                                
PRCFAMCHA081101110447110501000014NSW Bumper - Fashion (:12-:14) JUNE06                                                                                       150                                
PRCFAMCHA081101110501110510000009CC Disclaimer - FAST - Family.ca (:09-:10)                                                                                  150                                
PGRFAMCHA081101110510112926002416Ned's Declassified School Survival Guide          EP: 43                                                               2068807BCC                              
PRCFAMCHA081101112926112938000012NSW - 09 - SUITE LIFE/POPCORN PIX (:11 - :13) (SEP                                                                          150                                
PRCFAMCHA081101112938113013000035Family First Overall Promo - 3/4 Per Day (Sept.6 -                                                                          150                                
PROFAMCHA081101113013113058000045Barbie in a XMAS Carol DVD Contest - Available Nov                                                                          150                                
PROFAMCHA081101113058113128000030Suite Life on Deck ROOMMATES (NSW) This Afternoon                                                                           150                                
PRCFAMCHA081101113128113211000043Life W Derek (NSW) Trailer Generic - Tonight @ 7:5                                                                          150                                
PROFAMCHA081101113211113256000045HSM 3 CD Soundtrack - Available Now (Oct 21 - Jan                                                                           150                                
PROFAMCHA081101113256113353000057Suite Life of Z & C FABULOUS LIFESTYLES (NSW) Comi                                                                          150                                
PRCFAMCHA081101113353113401000008NSW Bumper - Dodgeball (:07-:09) APR06                                                                                      150                                
ID FAMCHA081101113401113409000008Magic of Disney - NS/NSW/PB - Shape (:06-:09)                                                                               150                                
PRCFAMCHA081101113409113418000009CC Disclaimer - FAST - Generic (:09-:10)                                                                                    150                                
PGRFAMCHA081101113418115656002238Suite Life of Zack & Cody, The                    EP: 26                                                               6068607BCC                              
PRCFAMCHA081101115656115702000006Astral ID (DEC 2007)                                                                                                        150                                
PRCFAMCHA081101115702115714000012NSW - 10 - POPCORN PIX/POPCORN PIX (:11 - :13) (SE                                                                          150                                
PRCFAMCHA081101115714115806000052Life With Derek (NSW) Casey & Derek - Tonight @ 7:                                                                          150                                
PROFAMCHA081101115806115846000040Demi Lovato CD Blast (Oct 21- Dec 15) $$$                                                                                   150                                
PROFAMCHA081101115846115901000015Wizards of Waverrly Place SELENA #2 IDs (NS) - NEW                                                                          150                                
PROFAMCHA081101115901115941000040Journey To The Center Of The Earth DVD - Available                                                                          150                                
ID FAMCHA081101115941120000000019Popcorn Pix Block Open (JUNE 06) (:18-:20)                                                                                  150                                
ID FAMCHA081101120000120010000010Ratings - PG - Popcorn Pix Only (July 07)                                                                                   150                                
PRCFAMCHA081101120010120019000009CC Disclaimer - FAST - Family.ca (:09-:10)                                                                                  150                                
PGRFAMCHA081101120019125156005137Air Bud 2 : Golden Receiver                                                                                     A50356B1065807DCC                              
PGRFAMCHA081101125156133019003823Air Bud 2 : Golden Receiver                                                                                     A50356B1065807DCC                              
PRCFAMCHA081101133019133031000012NSW - 11 - POPCORN PIX/CORY (:11 - :13) (OCT08)                                                                             150                                
ID FAMCHA081101133031133050000019Popcorn Pix Block Open (JUNE 06) (:18-:20)                                                                                  150                                
ID FAMCHA081101133050133100000010Ratings - PG - Popcorn Pix Only (July 07)                                                                                   150                                
PRCFAMCHA081101133100133109000009CC Disclaimer - FAST - Generic (:09-:10)                                                                                    150                                
PGRFAMCHA081101133109150313013204Blank Check                                                                                                           B6068807DCC                              
PRCFAMCHA081101150313150319000006Astral ID (DEC 2007)                                                                                                        150                                
PRCFAMCHA081101150319150331000012NSW - 12 - CORY IN THE HOUSE/SUITE Z&C (:11 - :13)                                                                          150                                
PROFAMCHA081101150331150348000017Nonstop Weekend Block Open (:16-:18) APR06                                                                                  150                                
ID FAMCHA081101150348150356000008Magic of Disney - NS/NSW/PB - Wipe (:06-:09)                                                                                150                                
PRCFAMCHA081101150356150405000009CC Disclaimer - FAST - Family.ca (:09-:10)                                                                                  150                                
PGRFAMCHA081101150405152643002238Cory in the House                                 EP: 08                                                               6068607BCC                              
PRCFAMCHA081101152643152655000012NSW - 13 - SUITE Z & C/SUITE DECK (:11 - :13) (OCT                                                                          150                                
PRCFAMCHA081101152655152711000016NSW Bumper - Tennis (:15-:17) APR06                                                                                         150                                
ID FAMCHA081101152711152719000008Magic of Disney - NS/NSW/PB - Shape (:06-:09)                                                                               150                                
PRCFAMCHA081101152719152728000009CC Disclaimer - FAST - Generic (:09-:10)                                                                                    150                                
PGRFAMCHA081101152728155007002239Suite Life of Zack & Cody, The                    EP: 04                                                               6068607BCC                              
PRCFAMCHA081101155007155013000006Astral ID (DEC 2007)                                                                                                        150                                
PRCFAMCHA081101155013155025000012NSW - 14 - SUITE DECK/PROUD FAMILY (:11 - :13) (OC                                                                          150                                
PROFAMCHA081101155025155053000028Suite Life on Deck PREMISE (NSW) Coming Up Next (O                                                                          150                                
PRCFAMCHA081101155053155106000013NSW Bumper - Fashion (:12-:14) JUNE06                                                                                       150                                
PRCFAMCHA081101155106155115000009CC Disclaimer - FAST - Generic (:09-:10)                                                                                    150                                
PGRFAMCHA081101155115161331002216Suite Life on Deck, The                           EP: 07                                                               6068807BCC                              
PRCFAMCHA081101161331161343000012NSW - 15 - PROUD FAMILY/PHINEAS (:11 - :13) (MARCH                                                                          150                                
PROFAMCHA081101161343161415000032Suite Life OD Contest REVISION - 3-4x  Day (Oct 14                                                                          150                                
PROFAMCHA081101161415161433000018Phineas & Ferb (NSW) Perry Tease - This Afternoons                                                                          150                                
PROFAMCHA081101161433161513000040Kung Fu Panda DVD - Available Nov 7 (Oct 31 - Nov                                                                           150                                
PROFAMCHA081101161513161529000016Kim Possible RON POSSIBLE (NSW) Today @ 5:10pm (OC                                                                          150                                
PROFAMCHA081101161529161558000029Hannah Montana - SUPER AWESOME (NSW) This Afternoo                                                                          150                                
PROFAMCHA081101161558161629000031Suite Life on Deck LIFE AT SEA (NSW) NEW EPS Tomor                                                                          150                                
PROFAMCHA081101161629161659000030Fillmore (MD) LAW & ORDER - Weekday Afternoons @ 1                                                                          150                                
PROFAMCHA081101161659161748000049Proud Family (APR06) STRIKE (NSW) - Coming Up Next                                                                          150                                
PRCFAMCHA081101161748161756000008NSW Bumper - Dodgeball (:07-:09) APR06                                                                                      150                                
ID FAMCHA081101161756161804000008Magic of Disney - NS/NSW/PB - Shape (:06-:09)                                                                               150                                
PRCFAMCHA081101161804161813000009CC Disclaimer - FAST - Generic (:09-:10)                                                                                    150                                
PGRFAMCHA081101161813164022002209The Proud Family                                  EP: 1-001                                                           A6068607ECC                              
PRCFAMCHA081101164022164028000006Astral ID (DEC 2007)                                                                                                        150                                
PRCFAMCHA081101164028164040000012NSW - 16 - PHINEAS/KIM POSSIBLE (:11 - :13) (MARCH                                                                          150                                
PROFAMCHA081101164040164052000012Kim Possible BAD GUYS (NSW) Today @ 5:10pm (OCT08)                                                                          150                                
PROFAMCHA081101164052164132000040Tinkerbell DVD Blast - Now Available (Oct 28 - Nov                                                                          150                                
PROFAMCHA081101164132164224000052Madagascar Escape 2 REVISION - In Theatres Nov 7 (                                                                          150                                
PROFAMCHA081101164224164254000030American Dragon Jake Long (MD) HERO - Weekday Afte                                                                          150                                
PROFAMCHA081101164254164325000031Replacements - GENERIC (MD) Weekday Afternoons @ 3                                                                          150                                
PROFAMCHA081101164325164354000029Hannah Montana - SUPER AWESOME (NS) New Eps - Fri                                                                           150                                
PRCFAMCHA081101164354164414000020Bullying Cuff Spot Short - 4xDay till Nov 14 & 3xD                                                                          150                                
PROFAMCHA081101164414164444000030Phineas & Ferb (NSW) Phineas Character Sell - Comi                                                                          150                                
PRCFAMCHA081101164444164500000016NSW Bumper - Tennis (:15-:17) APR06                                                                                         150                                
PRCFAMCHA081101164500164509000009CC Disclaimer - FAST - Family.ca (:09-:10)                                                                                  150                                
PGRFAMCHA081101164509170739002230Phineas & Ferb                                    EP: 11                                                               6068607ECC                              
PRCFAMCHA081101170739170751000012NSW - 17 - KIM/HANNAH (:11 - :13) (SEPT07)                                                                                  150                                
PRCFAMCHA081101170751170841000050Family Online Community Promo - 3/4 Day (not in PH                                                                          150                                
PROFAMCHA081101170841170926000045Kellogg's Eggo HSM Contest (Oct 15 - Nov 4) $$$                                                                             150                                
PROFAMCHA081101170926170935000009xxFamily Bumpers - (Phase 3 Spring 05) - Giant Foo                                                                          150                                
PRCFAMCHA081101170935171035000100Movie Entertainment (8)                                                                                                     150                                
PROFAMCHA081101171035171104000029Hannah Montana - SUPER AWESOME (NSW) This Afternoo                                                                          150                                
PROFAMCHA081101171104171144000040Demi Lovato CD Blast (Oct 21- Dec 15) $$$                                                                                   150                                
PROFAMCHA081101171144171156000012Kim Possible BAD GUYS (NSW) Coming Up Next (OCT08)                                                                          150                                
PRCFAMCHA081101171156171209000013NSW Bumper - Fashion (:12-:14) JUNE06                                                                                       150                                
PRCFAMCHA081101171209171218000009CC Disclaimer - FAST - Generic (:09-:10)                                                                                    150                                
PGRFAMCHA081101171218173510002252Disney's Kim Possible                             EPS # 1-051                                                         A6068607ECC                              
PRCFAMCHA081101173510173522000012NSW - 18 - HANNAH/SADIE (:11 - :13) (SEPT07)                                                                                150                                
PRCFAMCHA081101173522173610000048Family Video Player Promo - No Tag 3/day (not in P                                                                          150                                
PROFAMCHA081101173610173650000040Bret Ryan CD Blast (Sept 5 - Nov 28) $$$                                                                                    150                                
PROFAMCHA081101173650173720000030Suite Life on Deck ROOMMATES (NSW) NEW EPS Tomorro                                                                          150                                
PRCFAMCHA081101173720173755000035Family First Overall Promo - 3/4 Per Day (Sept.6 -                                                                          150                                
PROFAMCHA081101173755173857000102Hannah Montana (NSW) Mockumentry - Coming Up Next                                                                           150                                
PRCFAMCHA081101173857173906000009NSW Bumper - Dodgeball (:07-:09) APR06                                                                                      150                                
ID FAMCHA081101173906173914000008Magic of Disney - NS/NSW/PB - Wipe (:06-:09)                                                                                150                                
PRCFAMCHA081101173914173923000009CC Disclaimer - FAST - Family.ca (:09-:10)                                                                                  150                                
PGRFAMCHA081101173923180154002231Hannah Montana - Season 2                         EP: 22                                                               6068807BCC                              
PRCFAMCHA081101180154180206000012NSW - 19 - SADIE/FLIGHT 29 DOWN (:11 - :13) (SEPT0                                                                          150                                
PRCFAMCHA081101180206180241000035Family First Overall Promo - 3/4 Per Day (Sept.6 -                                                                          150                                
PROFAMCHA081101180241180326000045HSM 3 CD Soundtrack - Available Now (Oct 21 - Jan                                                                           150                                
PROFAMCHA081101180326180402000036Flight 29 Down - (NSW) Tonight @ 6:30pm (JULY08)                                                                            150                                
PROFAMCHA081101180402180431000029Hannah Montana - SUPER AWESOME (NS) New Eps - Fri                                                                           150                                
PRCFAMCHA081101180431180511000040Naturally Sadie - ROMANTIC (NSW) Coming Up Next (M                                                                          150                                
PROFAMCHA081101180511180543000032Suite Life OD Contest REVISION - 3-4x  Day (Oct 14                                                                          150                                
PRCFAMCHA081101180543180558000015NSW Bumper - Tennis (:15-:17) APR06                                                                                         150                                
PRCFAMCHA081101180558180607000009CC Disclaimer - FAST - Generic (:09-:10)                                                                                    150                                
PGRFAMCHA081101180607182837002230Naturally, Sadie                                  EP: 59                                                        C29639 1055607ACC3                             
PRCFAMCHA081101182837182850000013NSW - 20 - FLIGHT 29 DOWN/RAVEN (:11 - :13) (SEPT0                                                                          150                                
PROFAMCHA081101182850182930000040100 Years on ICE blast (Oct 25 - Nov 7) $$$                                                                                 150                                
PROFAMCHA081101182930183006000036Flight 29 Down - (NSW) Coming Up Next (JULY08)                                                                              150                                
PROFAMCHA081101183006183046000040Demi Lovato CD Blast (Oct 21- Dec 15) $$$                                                                                   150                                
PRCFAMCHA081101183046183100000014NSW Bumper - Fashion (:12-:14) JUNE06                                                                                       150                                
PGRFAMCHA081101183100185229002129Flight 29 Down                                    EP: 02                                                               2068807A                                
PRCFAMCHA081101185229185242000013NSW - 21 - RAVEN/ZOEY 101 (:11 - :13) (SEPT07)                                                                              150                                
PROFAMCHA081101185242185307000025Zoey 101 - BOOTH (NSW) Tonight @ 7:20pm (SEPT08)                                                                            150                                
PROFAMCHA081101185307185337000030Disneyland Adv On Ice Blast (Dec 12 - 28) $$$                                                                               150                                
PROFAMCHA081101185337185409000032Suite Life of Z & C (NSW) IMPRESS - Tonight @ 8:10                                                                          150                                
PRCFAMCHA081101185409185429000020Bullying Cuff Spot Short - 4xDay till Nov 14 & 3xD                                                                          150                                
PRCFAMCHA081101185429185509000040Naturally Sadie - ROMANTIC (NSW) Tonight @ 12:30am                                                                          150                                
PROFAMCHA081101185509185523000014Wizards of Waverrly Place SELENA #1 IDs (NS) - NEW                                                                          150                                
PRCFAMCHA081101185523185558000035Family First Overall Promo - 3/4 Per Day (Sept.6 -                                                                          150                                
PROFAMCHA081101185558185625000027That's So Raven CLIP (NSW) Coming Up Next (APR08)                                                                           150                                
PRCFAMCHA081101185625185634000009NSW Bumper - Dodgeball (:07-:09) APR06                                                                                      150                                
ID FAMCHA081101185634185642000008Magic of Disney - NS/NSW/PB - Shape (:06-:09)                                                                               150                                
PRCFAMCHA081101185642185651000009CC Disclaimer - FAST - Generic (:09-:10)                                                                                    150                                
PGRFAMCHA081101185651191930002239That's So Raven                                   EP: 081                                                              6068607BCC                              
PRCFAMCHA081101191930191936000006Astral ID (DEC 2007)                                                                                                        150                                
PRCFAMCHA081101191936191948000012NSW - 21 - ZOEY 101/LIFE WITH DEREK (:11 - :13) (S                                                                          150                                
PROFAMCHA081101191948192028000040Journey To The Center Of The Earth DVD - Available                                                                          150                                
PROFAMCHA081101192028192045000017Zoey 101 (NSW)  ZOEY, ZOEY, ZOEY - Coming Up Next                                                                           150                                
PROFAMCHA081101192045192137000052Madagascar Escape 2 REVISION - In Theatres Nov 7 (                                                                          150                                
PRCFAMCHA081101192137192153000016NSW Bumper - Tennis (:15-:17) APR06                                                                                         150                                
PRCFAMCHA081101192153192202000009CC Disclaimer - FAST - Family.ca (:09-:10)                                                                                  150                                
PGRFAMCHA081101192202194534002332Zoey 101                                          EP: 20                                                              A2068807BCC                              
PRCFAMCHA081101194534194546000012NSW - 22 - LIFE WITH DEREK/SUITE LIFE (:11 - :13)                                                                           150                                
PROFAMCHA081101194546194631000045Kellogg's Eggo HSM Contest (Oct 15 - Nov 4) $$$                                                                             150                                
PRCFAMCHA081101194631194658000027Life W D (NSW) CLIP - Coming Up Next (JULY08)                                                                               150                                
PROFAMCHA081101194658194743000045HSM 3 CD Soundtrack - Available Now (Oct 21 - Jan                                                                           150                                
PRCFAMCHA081101194743194755000012NSW Bumper - Fashion (:12-:14) JUNE06                                                                                       150                                
PRCFAMCHA081101194755194804000009CC Disclaimer - FAST - Generic (:09-:10)                                                                                    150                                
PGRFAMCHA081101194804201034002230Life With Derek IV (eps 53-70)                    EP: 04                                                        C24891 1055607BCC3                             
PRCFAMCHA081101201034201040000006Astral ID (DEC 2007)                                                                                                        150                                
PRCFAMCHA081101201040201052000012NSW - 23 - SUITE LIFE/HANNAH (:11 - :13) (SEPT07)                                                                           150                                
PRCFAMCHA081101201052201135000043Life W Derek (NSW) Trailer/New Season - NEW EPS To                                                                          150                                
PROFAMCHA081101201135201215000040Tinkerbell DVD Blast - Now Available (Oct 28 - Nov                                                                          150                                
PRCFAMCHA081101201215201224000009NSW Bumper - Dodgeball (:07-:09) APR06                                                                                      150                                
ID FAMCHA081101201224201232000008Magic of Disney - NS/NSW/PB - Wipe (:06-:09)                                                                                150                                
PRCFAMCHA081101201232201241000009CC Disclaimer - FAST - Family.ca (:09-:10)                                                                                  150                                
PGRFAMCHA081101201241203520002239Suite Life of Zack & Cody, The                    EP: 19                                                               6068607BCC                              
PRCFAMCHA081101203520203532000012NSW - 24 - HANNAH/NIGHTLY PIX (:11 - :13) (SEPT07)                                                                          150                                
PROFAMCHA081101203532203548000016Suite Life on Deck (NSW) NEW EPS - Tomorrow Aftern                                                                          150                                
PRCFAMCHA081101203548203604000016NSW Bumper - Tennis (:15-:17) APR06                                                                                         150                                
ID FAMCHA081101203604203612000008Magic of Disney - NS/NSW/PB - Shape (:06-:09)                                                                               150                                
PRCFAMCHA081101203612203621000009CC Disclaimer - FAST - Generic (:09-:10)                                                                                    150                                
PGRFAMCHA081101203621205859002238Hannah Montana                                    EP: 17                                                               6068807BCC                              
PRCFAMCHA081101205859205912000013NSW - 25 - NIGHTLY PIX/NIGHTLY PIX (no time) :11 -                                                                          150                                
PRCFAMCHA081101205912205947000035Family First Overall Promo - 3/4 Per Day (Sept.6 -                                                                          150                                
PROFAMCHA081101205947210000000013xxNightly Pix Movie Open (:10-:15)                                                                                          150                                
ID FAMCHA081101210000210009000009Rating - PG - Nightly Pix Only  (DEC05) (:08 - :10                                                                          150                                
PRCFAMCHA081101210009210018000009CC Disclaimer - SLOW - Family.ca (:09-:10)                                                                                  150                                
PGRFAMCHA081101210018224832014814Dungeons and Dragons                                                                                                  B2068807DCC                              
PRCFAMCHA081101224832224845000013NSW - 25b - NIGHTLY PIX/SADIE (12:30)( :11 - :13)                                                                           150                                
PROFAMCHA081101224845224900000015xxNightly Pix Movie Open (:10-:15)                                                                                          150                                
ID FAMCHA081101224900224910000010Rating - PG - Nightly Pix Only  (DEC05) (:08 - :10                                                                          150                                
PRCFAMCHA081101224910224920000010CC Disclaimer - SLOW - Generic (:09 -:10)                                                                                   150                                
PGRFAMCHA081101224920001025012105Ernest Goes To Jail                                                                                                   B6068807DCC                              
PRCFAMCHA081101001025001031000006Astral ID (DEC 2007)                                                                                                        150                                
PRCFAMCHA081101001031001044000013NSW - 27 - SADIE/HANNAH (:11 - :13) (SEPT07)                                                                                150                                
PRCFAMCHA081101001044001134000050Family Online Community Promo - 3/4 Day (not in PH                                                                          150                                
PROFAMCHA081101001134001234000100Cory In The House - Cory vs. Sophie (NSW) Tomorrow                                                                          150                                
PRCFAMCHA081101001234001439000205Bullying Stand Up Music Video PSA 3-4 X Day (Oct 1                                                                          150                                
PROFAMCHA081101001439001506000027That's So Raven CLIP (NSW) Tomorrow Morning @ 9:40                                                                          150                                
PRCFAMCHA081101001506001606000100Ian Greenberg - Last Man Standing Astral ID - Post                                                                          150                                
PROFAMCHA081101001606001616000010FAMJAM - Open/Close                                                                                                         150                                
PGRFAMCHA081101001616002026000410MV Disney - (MD/NS/NSW) - Jesse McCartney - Just S                                                                     60688120                                
PROFAMCHA081101002026002040000014xxFAMJAM - Close (FAMILY) xxDNUxx                                                                                           150                                
PROFAMCHA081101002040002125000045Suite Life on Deck TWINS (NSW) NEW EPS Tomorrow Af                                                                          150                                
PROFAMCHA081101002125002154000029Hannah Montana - SUPER AWESOME (NS) New Eps - Fri                                                                           150                                
PROFAMCHA081101002154002204000010FAMJAM - Open/Close                                                                                                         150                                
PGRFAMCHA081101002204002334000130MV Disney - (MD/NS/NSW) - Jesse McCartney - Just S                                                                     60688120                                
PROFAMCHA081101002334002348000014xxFAMJAM - Close (FAMILY) xxDNUxx                                                                                           150                                
PROFAMCHA081101002348002428000040Zoey 101 (NS) SAFETY CUPCAKE - NEW EPISODE - Frida                                                                          150                                
PRCFAMCHA081101002428002458000030Latest Buzz - LOCO LOCO (NS) New Episodes Friday N                                                                          150                                
PROFAMCHA081101002458002512000014Wizards of Waverrly Place JENNIFER #2 IDs (NS) - N                                                                          150                                
PRCFAMCHA081101002512002541000029Naturally Sadie - CLIP (NSW) Coming Up Next (MARCH                                                                          150                                
PROFAMCHA081101002541002613000032Suite Life OD Contest REVISION - 3-4x  Day (Oct 14                                                                          150                                
PROFAMCHA081101002613002630000017Nonstop Weekend Block Open (:16-:18) APR06                                                                                  150                                
PRCFAMCHA081101002630002640000010CC Disclaimer - SLOW - Generic (:09 -:10)                                                                                   150                                
PGRFAMCHA081101002640004910002230Naturally, Sadie                                  EP: 02                                                        C24010 1065607ACC                              
PRCFAMCHA081101004910004916000006Astral ID (DEC 2007)                                                                                                        150                                
PRCFAMCHA081101004916004928000012NSW - 28 - HANNAH/CORY (:11 - :13) (OCT08)                                                                                  150                                
PRCFAMCHA081101004928004935000007NSW Bumper - Dodgeball (:07-:09) APR06                                                                                      150                                
ID FAMCHA081101004935004943000008Magic of Disney - NS/NSW/PB - Shape (:06-:09)                                                                               150                                
PRCFAMCHA081101004943004952000009CC Disclaimer - SLOW - Family.ca (:09-:10)                                                                                  150                                
PGRFAMCHA081101004952011223002231Hannah Montana - Season 2                         EP: 28                                                               6068807BCC                              
PRCFAMCHA081101011223011235000012NSW - 29 - CORY/PHIL  (:11 - :13) (OCT08)                                                                                   150                                
PRCFAMCHA081101011235011251000016NSW Bumper - Tennis (:15-:17) APR06                                                                                         150                                
ID FAMCHA081101011251011259000008Magic of Disney - NS/NSW/PB - Wipe (:06-:09)                                                                                150                                
PRCFAMCHA081101011259011308000009CC Disclaimer - SLOW - Generic (:09 -:10)                                                                                   150                                
PGRFAMCHA081101011308013546002238Cory in the House                                 EP: 01                                                               6068607BCC                              
PRCFAMCHA081101013546013552000006Astral ID (DEC 2007)                                                                                                        150                                
PRCFAMCHA081101013552013604000012NSW - 30 - PHIL/LIZZIE (:11 - :13) (OCT08)                                                                                  150                                
PRCFAMCHA081101013604013617000013NSW Bumper - Fashion (:12-:14) JUNE06                                                                                       150                                
ID FAMCHA081101013617013625000008Magic of Disney - NS/NSW/PB - Wipe (:06-:09)                                                                                150                                
PRCFAMCHA081101013625013634000009CC Disclaimer - SLOW - Generic (:09 -:10)                                                                                   150                                
PGRFAMCHA081101013634015910002236Phil of the Future Yr 2                           EP: 32                                                               6068607BCC                              
PRCFAMCHA081101015910015921000011NSW - 30 - PHIL/LIZZIE (:11 - :13) (OCT08)                                                                                  150                                
PROFAMCHA081101015921015934000013Wizards of Waverrly Place JENNIFER #1 IDs (NS) - N                                                                          150                                
PRCFAMCHA081101015934015942000008NSW Bumper - Dodgeball (:07-:09) APR06                                                                                      150                                
OFFFAMCHA081101015942023941003959Black - Off Time  - OFF - Sheduled off air time pe                                                                                                             
PRCFAMCHA081101023941023956000015NSW Bumper - Tennis (:15-:17) APR06                                                                                         150                                
PRCFAMCHA081101023956024006000010CC Disclaimer - SLOW - Family.ca (:09-:10)                                                                                  150                                
PGRFAMCHA081101024006030236002230Life with Derek                                   EP: 08                                                        C23968A1065607BCC                              
PROFAMCHA081101030236030307000031Ned's DSSG - Cookie Clip (APR06)(NSW) Tomorrow Mor                                                                          150                                
PRCFAMCHA081101030307030422000115Movie Entertainment (8)                                                                                                     150                                
PROFAMCHA081101030422030454000032Suite Life of Z & C (NSW) IMPRESS - Tomorrow Morni                                                                          150                                
PROFAMCHA081101030454030539000045Suite Life on Deck TWINS (NSW) NEW EPS Tomorrow Af                                                                          150                                
PROFAMCHA081101030539030615000036Flight 29 Down - (NSW) Tomorrow Night @ 6:30pm (JU                                                                          150                                
PRCFAMCHA081101030615030715000100Ian Greenberg - Last Man Standing Astral ID - Post                                                                          150                                
PROFAMCHA081101030715030747000032Latest Buzz - HEADLINES (NS) NEW EPS Friday Nights                                                                          150                                
PROFAMCHA081101030747030802000015Wizards of Waverrly Place DAVID #2 IDs (NS) - NEW                                                                           150                                
PRCFAMCHA081101030802030837000035Family First Overall Promo - 3/4 Per Day (Sept.6 -                                                                          150                                
PRCFAMCHA081101030837030849000012NSW Bumper - Fashion (:12-:14) JUNE06                                                                                       150                                
ID FAMCHA081101030849030856000007Magic of Disney - NS/NSW/PB - Wipe (:06-:09)                                                                                150                                
PRCFAMCHA081101030856030905000009CC Disclaimer - SLOW - Generic (:09 -:10)                                                                                   150                                
PGRFAMCHA081101030905033143002238Lizzie McGuire                                    EP: 1-019                                                            6068607BCC                              
PRCFAMCHA081101033143033149000006Astral ID (DEC 2007)                                                                                                        150                                
PRCFAMCHA081101033149033202000013NSW - 32 - DEREK/CORY IN THE HOUSE (:11 - :13) (SE                                                                          150                                
PRCFAMCHA081101033202033211000009NSW Bumper - Dodgeball (:07-:09) APR06                                                                                      150                                
PRCFAMCHA081101033211033221000010CC Disclaimer - SLOW - Family.ca (:09-:10)                                                                                  150                                
PGRFAMCHA081101033221035451002230Life with Derek                                   EP: 08                                                        C23968A1065607BCC                              
PRCFAMCHA081101035451035504000013NSW - 33 - CORY IN THE HOUSE/RAVEN (:11 - :13) (SE                                                                          150                                
PRCFAMCHA081101035504035521000017NSW Bumper - Tennis (:15-:17) APR06                                                                                         150                                
ID FAMCHA081101035521035530000009Magic of Disney - NS/NSW/PB - Wipe (:06-:09)                                                                                150                                
PRCFAMCHA081101035530035539000009CC Disclaimer - SLOW - Generic (:09 -:10)                                                                                   150                                
PGRFAMCHA081101035539041812002233Cory in the House Season 2                        EP: 01                                                               6068607BCC                              
PRCFAMCHA081101041812041818000006Astral ID (DEC 2007)                                                                                                        150                                
PRCFAMCHA081101041818041831000013NSW - 34 - RAVEN/SUITE LIFE (:11 - :13) (SEPT07)                                                                            150                                
PRCFAMCHA081101041831041845000014NSW Bumper - Fashion (:12-:14) JUNE06                                                                                       150                                
ID FAMCHA081101041845041854000009Magic of Disney - NS/NSW/PB - Shape (:06-:09)                                                                               150                                
PRCFAMCHA081101041854041904000010CC Disclaimer - SLOW - Family.ca (:09-:10)                                                                                  150                                
PGRFAMCHA081101041904043000001056That's So Raven                                   EPS # 1-024                                                          6068607BCC                              
PGRFAMCHA081102043000044144001144That's So Raven                                   EPS # 1-024                                                          6068607BCC                              
PRCFAMCHA081102044144044157000013NSW - 35 - SUITE LIFE/DEREK (:11 - :13) (SEPT07)                                                                            150                                
PRCFAMCHA081102044157044206000009NSW Bumper - Dodgeball (:07-:09) APR06                                                                                      150                                
ID FAMCHA081102044206044215000009Magic of Disney - NS/NSW/PB - Wipe (:06-:09)                                                                                150                                
PRCFAMCHA081102044215044225000010CC Disclaimer - SLOW - Generic (:09 -:10)                                                                                   150                                
PGRFAMCHA081102044225050503002238Suite Life of Zack & Cody, The                    EP: 11                                                               6068607BCC                              
PRCFAMCHA081102050503050509000006Astral ID (DEC 2007)                                                                                                        150                                
PRCFAMCHA081102050509050522000013NSW - 36 - LIFE WITH DEREK (:11 - :13) (SEPT07)                                                                             150                                
PRCFAMCHA081102050522050536000014NSW Bumper - Fashion (:12-:14) JUNE06                                                                                       150                                
PRCFAMCHA081102050536050546000010CC Disclaimer - SLOW - Family.ca (:09-:10)                                                                                  150                                
PGRFAMCHA081102050546052817002231Life with Derek                                   EP: 17                                                        C26822 1065607BCC                              
PRCFAMCHA081102052817052823000006Astral ID (DEC 2007)                                                                                                        150                                
PRCFAMCHA081102052823052836000013FJR - 14 - HENRY'S WORLD / BENJAMIN BEAR (SEPT08)                                                                           150                                
PROFAMCHA081102052836052942000106PH-D Promo - Rev It Up With Rocket Week - Starts M                                                                          150                                
ID FAMCHA081102052942052959000017Family Jr. Block Open (:14-:17) (JUL08)                                                                                     150                                
OFFFAMCHA081102052959054035001036Off Air Daylight Savings time - Operator pls delet                                                                                                             
PRCFAMCHA081102054035054041000006Astral ID (DEC 2007)                                                                                                        150                                
PRCFAMCHA081102054041054052000011FJR - 17 - KING (SEPT08)                                                                                                    150                                
PRCFAMCHA081102054052054104000012Family Jr. Bumper - Music (:11- :14) (JUL08)                                                                                150                                
PRCFAMCHA081102054104054113000009CC Disclaimer - FAST - Generic (:09-:10)                                                                                    150                                
PGRFAMCHA081102054113060343002230King                                              EPS # 034                                                     C25350 1065607ECC                              
PROFAMCHA081102060343060401000018Jetix Block Open (:18-:21)                                                                                                  150                                
PRCFAMCHA081102060401060411000010CC Disclaimer - FAST - Family.ca (:09-:10)                                                                                  150                                
PGRFAMCHA081102060411062650002239Power Rangers:  Operation Overdrive               EP: 07                                                               2068607ECC                              
PRCFAMCHA081102062650062656000006Astral ID (DEC 2007)                                                                                                        150                                
PROFAMCHA081102062656062726000030Disneyland Adv On Ice Blast (Dec 12 - 28) $$$                                                                               150                                
PROFAMCHA081102062726062738000012xxFamily Bumpers - (Phase 1 Spring 04) - Picnic (M                                                                          150                                
PROFAMCHA081102062738062823000045Kellogg's Eggo HSM Contest (Oct 15 - Nov 4) $$$                                                                             150                                
PROFAMCHA081102062823062832000009Raven ID's II - You're Watching Family, NADM                                                                                150                                
PROFAMCHA081102062832062850000018Jetix Block Open (:18-:21)                                                                                                  150                                
PRCFAMCHA081102062850062900000010CC Disclaimer - FAST - Generic (:09-:10)                                                                                    150                                
PGRFAMCHA081102062900065132002232Power Rangers Jungle Fury                         EP: 09                                                               2068607ACC                              
PROFAMCHA081102065132065212000040100 Years on ICE blast (Oct 25 - Nov 7) $$$                                                                                 150                                
PROFAMCHA081102065212065221000009xxFamily Bumpers - (Phase 1 Spring 04) - Baseball                                                                           150                                
PROFAMCHA081102065221065301000040LWD Season 1 DVD Blast (Oct 16 - Nov 2) $$$                                                                                 150                                
PROFAMCHA081102065301065333000032Suite Life OD Contest REVISION - 3-4x  Day (Oct 14                                                                          150                                
PROFAMCHA081102065333065351000018Jetix Block Open (:18-:21)                                                                                                  150                                
PRCFAMCHA081102065351065401000010CC Disclaimer - FAST - Family.ca (:09-:10)                                                                                  150                                
PGRFAMCHA081102065401071606002205Digimon Data Squad                                EP: 09                                                               2068607ECC                              
PRCFAMCHA081102071606071612000006Astral ID (DEC 2007)                                                                                                        150                                
PRCFAMCHA081102071612071623000011NSW - 00 - NEDS/HANNAH (:11 - :13) (OCT08)                                                                                  150                                
PRCFAMCHA081102071623071658000035Family First Overall Promo - 3/4 Per Day (Sept.6 -                                                                          150                                
PROFAMCHA081102071658071738000040Tinkerbell DVD Blast - Now Available (Oct 28 - Nov                                                                          150                                
PROFAMCHA081102071738071812000034Hannah Montana (NSW) Wig Auditions - This Morning                                                                           150                                
PROFAMCHA081102071812071857000045Kellogg's Eggo HSM Contest (Oct 15 - Nov 4) $$$                                                                             150                                
PROFAMCHA081102071857071940000043Ned's DSSG (NSW) Too Cool for School  - Coming Up                                                                           150                                
PROFAMCHA081102071940071957000017Nonstop Weekend Block Open (:16-:18) APR06                                                                                  150                                
PRCFAMCHA081102071957072006000009CC Disclaimer - FAST - Family.ca (:09-:10)                                                                                  150                                
PGRFAMCHA081102072006074422002416Ned's Declassified School Survival Guide          EP: 44                                                               2068807BCC                              
PRCFAMCHA081102074422074435000013NSW - 01 - HANNAH/SUITE LIFE (:11 - :13) (SEPT07)                                                                           150                                
PRCFAMCHA081102074435074455000020Bullying Cuff Spot Short - 4xDay till Nov 14 & 3xD                                                                          150                                
PROFAMCHA081102074455074557000102Hannah Montana (NSW) Mockumentry - Coming Up Next                                                                           150                                
PROFAMCHA081102074557074642000045Barbie in a XMAS Carol DVD Contest - Available Nov                                                                          150                                
PRCFAMCHA081102074642074732000050Family Online Community Promo - 3/4 Day (not in PH                                                                          150                                
PRCFAMCHA081102074732074739000007NSW Bumper - Dodgeball (:07-:09) APR06                                                                                      150                                
ID FAMCHA081102074739074748000009Magic of Disney - NS/NSW/PB - Shape (:06-:09)                                                                               150                                
PRCFAMCHA081102074748074758000010CC Disclaimer - FAST - Family.ca (:09-:10)                                                                                  150                                
PGRFAMCHA081102074758081034002236Hannah Montana - Season 2                         EP: 01                                                               6068807BCC                              
PRCFAMCHA081102081034081040000006Astral ID (DEC 2007)                                                                                                        150                                
PRCFAMCHA081102081040081051000011NSW - 02 - SUITE LIFE/ZOEY 101 (:11 - :13) (SEPT07                                                                          150                                
PROFAMCHA081102081051081131000040Zoey 101 (NSW) SAFETY CUPCAKE - This Morning @ 8:4                                                                          150                                
PROFAMCHA081102081131081216000045Kellogg's Eggo HSM Contest (Oct 15 - Nov 4) $$$                                                                             150                                
PROFAMCHA081102081216081249000033Cory In The House (NSW) WHAT THEY'RE SAYING - This                                                                          150                                
PROFAMCHA081102081249081341000052Madagascar Escape 2 REVISION - In Theatres Nov 7 (                                                                          150                                
PROFAMCHA081102081341081438000057Suite Life of Z & C FABULOUS LIFESTYLES (NSW) Comi                                                                          150                                
PRCFAMCHA081102081438081450000012NSW Bumper - Fashion (:12-:14) JUNE06                                                                                       150                                
ID FAMCHA081102081450081456000006Magic of Disney - MAD DASH - Wipe (:06-:09)                                                                                 150                                
PRCFAMCHA081102081456081506000010CC Disclaimer - FAST - Generic (:09-:10)                                                                                    150                                
PGRFAMCHA081102081506083737002231Suite Life of Zack and Cody, The                  EP: 13                                                               6068607BCC                              
PRCFAMCHA081102083737083749000012NSW - 03 - ZOEY 101/CORY IN THE HOUSE (:11 - :13)                                                                           150                                
PROFAMCHA081102083749083832000043Cory In The House (NSW) (MAR07) - This morning @ 9                                                                          150                                
PROFAMCHA081102083832083902000030Disneyland Adv On Ice Blast (Dec 12 - 28) $$$                                                                               150                                
PROFAMCHA081102083902083911000009xxFamily Bumpers - (Phase 1 Spring 04) - DJ Spinni                                                                          150                                
PRCFAMCHA081102083911084116000205Bullying Stand Up Music Video PSA 3-4 X Day (Oct 1                                                                          150                                
PROFAMCHA081102084116084143000027That's So Raven CLIP (NSW) This Morning @ 9:40am (                                                                          150                                
PROFAMCHA081102084143084223000040Journey To The Center Of The Earth DVD - Available                                                                          150                                
PROFAMCHA081102084223084240000017Zoey 101 (NSW)  ZOEY, ZOEY, ZOEY - Coming Up Next                                                                           150                                
PRCFAMCHA081102084240084257000017NSW Bumper - Tennis (:15-:17) APR06                                                                                         150                                
PRCFAMCHA081102084257084306000009CC Disclaimer - FAST - Family.ca (:09-:10)                                                                                  150                                
PGRFAMCHA081102084306090637002331Zoey 101                                          EP: 21                                                              A2068807BCC                              
PRCFAMCHA081102090637090643000006Astral ID (DEC 2007)                                                                                                        150                                
PRCFAMCHA081102090643090654000011NSW - 04 - CORY IN THE HOUSE/RAVEN (:11 - :13) (SE                                                                          150                                
PROFAMCHA081102090654090726000032Suite Life OD Contest REVISION - 3-4x  Day (Oct 14                                                                          150                                
PROFAMCHA081102090726090811000045Kellogg's Eggo HSM Contest (Oct 15 - Nov 4) $$$                                                                             150                                
PRCFAMCHA081102090811090820000009xxFamily Bumpers - (Phase 1 Spring 04) - Soccer (M                                                                          150                                
PRCFAMCHA081102090820090935000115Movie Entertainment (8)                                                                                                     150                                
PROFAMCHA081102090935091029000054That's So Raven FORTUNE TELLER (NSW) This Morning                                                                           150                                
PROFAMCHA081102091029091105000036Flight 29 Down - (NSW) Weekend Nights @ 6:30pm (JU                                                                          150                                
PROFAMCHA081102091105091148000043Cory In The House (NSW) (MAR07) - Coming Up Next                                                                            150                                
PRCFAMCHA081102091148091156000008NSW Bumper - Dodgeball (:07-:09) APR06                                                                                      150                                
ID FAMCHA081102091156091202000006Magic of Disney - NS/NSW/PB - Shape (:06-:09)                                                                               150                                
PRCFAMCHA081102091202091211000009CC Disclaimer - FAST - Generic (:09-:10)                                                                                    150                                
PGRFAMCHA081102091211093449002238Cory in the House                                 EP: 04                                                               6068607BCC                              
PRCFAMCHA081102093449093500000011NSW - 05 - RAVEN/PHIL (:11 - :13) (SEPT07)                                                                                  150                                
PRCFAMCHA081102093500093520000020Bullying Cuff Spot Short - 4xDay till Nov 14 & 3xD                                                                          150                                
PROFAMCHA081102093520093550000030Phil Of The Future (NSW) POP QUIZ - This Morning @                                                                          150                                
PROFAMCHA081102093550093630000040100 Years on ICE blast (Oct 25 - Nov 7) $$$                                                                                 150                                
PROFAMCHA081102093630093700000030Wizards of Waverrly Place ALEX (NSW) - This Mornin                                                                          150                                
PROFAMCHA081102093700093712000012xxFamily Bumpers - (Phase 1 Spring 04) - Picnic (M                                                                          150                                
PROFAMCHA081102093712093722000010FAMJAM - Open/Close                                                                                                         150                                
PGRFAMCHA081102093722093822000100MV Disney - (MD/NS/NSW) - Jesse McCartney - Just S                                                                     60688120                                
PROFAMCHA081102093822093836000014xxFAMJAM - Close (FAMILY) xxDNUxx                                                                                           150                                
PROFAMCHA081102093836093903000027That's So Raven CLIP (NSW) Coming Up Next (APR08)                                                                           150                                
PROFAMCHA081102093903093943000040Kung Fu Panda DVD - Available Nov 7 (Oct 31 - Nov                                                                           150                                
PRCFAMCHA081102093943094033000050Family Online Community Promo - 3/4 Day (not in PH                                                                          150                                
PRCFAMCHA081102094033094045000012NSW Bumper - Fashion (:12-:14) JUNE06                                                                                       150                                
ID FAMCHA081102094045094052000007Magic of Disney - NS/NSW/PB - Wipe (:06-:09)                                                                                150                                
PRCFAMCHA081102094052094102000010CC Disclaimer - FAST - Family.ca (:09-:10)                                                                                  150                                
PGRFAMCHA081102094102100338002236That's So Raven                                   EP: 068                                                              6068607BCC                              
PRCFAMCHA081102100338100344000006Astral ID (DEC 2007)                                                                                                        150                                
PRCFAMCHA081102100344100357000013NSW - 06 - PHIL/WIZARDS(:11 - :13) (OCT08)                                                                                  150                                
PROFAMCHA081102100357100427000030Wizards of Waverrly Place JUSTIN (NSW) - This Morn                                                                          150                                
PROFAMCHA081102100427100507000040Tinkerbell DVD Blast - Now Available (Oct 28 - Nov                                                                          150                                
PROFAMCHA081102100507100538000031Ned's DSSG - Cookie Clip (APR06)(NSW) This Morning                                                                          150                                
PRCFAMCHA081102100538100743000205Bullying Stand Up Music Video PSA 3-4 X Day (Oct 1                                                                          150                                
PROFAMCHA081102100743100815000032Suite Life of Z & C (NSW) Wonderful Hotel - This M                                                                          150                                
PROFAMCHA081102100815100855000040Journey To The Center Of The Earth DVD - Available                                                                          150                                
PROFAMCHA081102100855100925000030Phil Of The Future (NSW) POP QUIZ - Coming Up Next                                                                          150                                
PRCFAMCHA081102100925100941000016NSW Bumper - Tennis (:15-:17) APR06                                                                                         150                                
ID FAMCHA081102100941100950000009Magic of Disney - NS/NSW/PB - Shape (:06-:09)                                                                               150                                
PRCFAMCHA081102100950101000000010CC Disclaimer - FAST - Generic (:09-:10)                                                                                    150                                
PGRFAMCHA081102101000103238002238Phil of the Future Yr 2                           EP: 27                                                               6068607BCC                              
PRCFAMCHA081102103238103249000011NSW - 07 - WIZARDS/NED'S (:11 - :13) (OCT08)                                                                                150                                
PROFAMCHA081102103249103321000032Suite Life OD Contest REVISION - 3-4x  Day (Oct 14                                                                          150                                
PROFAMCHA081102103321103413000052Madagascar Escape 2 REVISION - In Theatres Nov 7 (                                                                          150                                
PROFAMCHA081102103413103444000031Ned's DSSG - Cookie Clip (APR06)(NSW) This Morning                                                                          150                                
PRCFAMCHA081102103444103544000100Movie Entertainment (8)                                                                                                     150                                
PROFAMCHA081102103544103553000009xxFamily Bumpers - (Phase 2 F/W 04) - Skateboard (                                                                          150                                
PROFAMCHA081102103553103603000010FAMJAM - Open/Close                                                                                                         150                                
PGRFAMCHA081102103603103703000100MV Disney - (MD/NS/NSW) - Jesse McCartney - Just S                                                                     60688120                                
PROFAMCHA081102103703103717000014xxFAMJAM - Close (FAMILY) xxDNUxx                                                                                           150                                
PROFAMCHA081102103717103747000030Wizards of Waverrly Place SIBLING (NSW) - Coming U                                                                          150                                
PRCFAMCHA081102103747103755000008NSW Bumper - Dodgeball (:07-:09) APR06                                                                                      150                                
PRCFAMCHA081102103755103804000009CC Disclaimer - FAST - Family.ca (:09-:10)                                                                                  150                                
PGRFAMCHA081102103804110035002231Disney Wizards of Waverly Place                   EP: 13                                                               6068607BCC                              
PRCFAMCHA081102110035110041000006Astral ID (DEC 2007)                                                                                                        150                                
PRCFAMCHA081102110041110052000011NSW - 08 - NED'S/SUITE LIFE (:11 - :13) (SEPT07)                                                                            150                                
PRCFAMCHA081102110052110127000035Family First Overall Promo - 3/4 Per Day (Sept.6 -                                                                          150                                
