SO FAMCHA060401043000043011000011Sign On (oct 1)                                                                                                                                                
PROFAMCHA060401043011043020000009CC Disclaimer - FAST - Family.ca (:08-:10)                                                                                  150                                
PGRFAMCHA060401043020045424002404Henry's World                                     EPS # 2-025                                                   B81056A1065607GCC                              
PROFAMCHA060401045424045439000015PH - 01 (S/S) - BEN/FRANNY/KING (SEP05) (:14 - 16)                                                                          150                                
ID FAMCHA060401045439045452000013PS Playhouse AM Block Open (:10-:15)                                                                                        150                                
PROFAMCHA060401045452045501000009CC Disclaimer - FAST - Family.ca (:08-:10)                                                                                  150                                
PGRFAMCHA060401045501051736002235The Secret World Of Benjamin Bear                 EPS # 1-009                                                   B75154A1065607ECC                              
PRCFAMCHA060401051736051741000005Astral ID (FEB05)                                                                                                           150                                
PROFAMCHA060401051741051756000015PH - 01 (S/S) - FRANNY/KING/SPIDER (SEP05) (:14 -                                                                           150                                
ID FAMCHA060401051756051809000013PS Playhouse AM Block Open (:10-:15)                                                                                        150                                
PROFAMCHA060401051809051818000009CC Disclaimer - FAST - Family.ca (:08-:10)                                                                                  150                                
PGRFAMCHA060401051818054048002230Franny's Feet                                     EPS # 1-008                                                   C23970A1065607ECC                              
PROFAMCHA060401054048054103000015PH - 04 - KING/SPIDERMAN/SPACE (NOV05) (:14 - 16)                                                                           150                                
ID FAMCHA060401054103054116000013PS Playhouse AM Block Open (:10-:15)                                                                                        150                                
PROFAMCHA060401054116054125000009CC Disclaimer - FAST - Family.ca (:08-:10)                                                                                  150                                
PGRFAMCHA060401054125060355002230King                                              EP: 009                                                       B75764A1065607ECC                              
PRCFAMCHA060401060355060400000005Astral ID (FEB05)                                                                                                           150                                
PROFAMCHA060401060400060415000015PB - 01 - SPIDER/SPACE/ROBOT (NOV05) (:14 - 16)                                                                             150                                
ID FAMCHA060401060415060430000015xxPower Box Block Open (:10-:15)                                                                                            150                                
PGRFAMCHA060401060430062611002141Spiderman                                         EP: 09                                                        C02618 1065607E                                
PROFAMCHA060401062611062626000015PB - 02 - SPACE/ROBOT/W.I.T.C.H. (NOV05) (:14 - 16                                                                          150                                
PRCFAMCHA060401062626062656000030xxMad Dash - GUIDE - Tomorrow starting @ 3pm                                                                                150                                
PROFAMCHA060401062656062726000030Power Rangers - Dino Thunder - Coming Up Next                                                                               150                                
PROFAMCHA060401062726062756000030Super Robot MTHG - Today @ 6:55am                                                                                           150                                
PRCFAMCHA060401062756062814000018Bullying (2005) (TTP - Kids) - Funk Dancer                                                                                  150                                
PROFAMCHA060401062814062844000030WITCH (PB) (APR06) - Today @ 7:20am                                                                                         150                                
ID FAMCHA060401062844062859000015xxPower Box Block Open (:10-:15)                                                                                            150                                
PGRFAMCHA060401062859065138002239Power Rangers Space Patrol Delta                  EP: 13                                                               6068607E                                
PRCFAMCHA060401065138065143000005Astral ID (FEB05)                                                                                                           150                                
PROFAMCHA060401065143065158000015PB - 03 - ROBOT/W.I.T.C.H./LIZZIE (NOV05) (:14 - :                                                                          150                                
PROFAMCHA060401065158065228000030Super Robot MTHG - Coming Up Next                                                                                           150                                
PROFAMCHA060401065228065258000030WITCH (PB) (APR06) - Today @ 7:20am                                                                                         150                                
PROFAMCHA060401065258065328000030xxLizzie McGuire - (Romeo) (FEB06) (NSW/AM) - Toda                                                                          150                                
PROFAMCHA060401065328065347000019xxEven Stevens - What's Up (SEPT05) - (NSW) - Toda                                                                          150                                
ID FAMCHA060401065347065402000015xxPower Box Block Open (:10-:15)                                                                                            150                                
PGRFAMCHA060401065402071531002129Super Robot Monkey Team Hyperforce Go!            EP: 22                                                               2068607E                                
PROFAMCHA060401071531071546000015PB - 04 - W.I.T.C.H./LIZZIE/SUITE (NOV05) (:14 - :                                                                          150                                
PRCFAMCHA060401071546071616000030xxMad Dash - GUIDE - Tomorrow starting @ 3pm                                                                                150                                
PROFAMCHA060401071616071646000030WITCH (PB) (APR06) - Coming Up Next                                                                                         150                                
PROFAMCHA060401071646071716000030xxLizzie McGuire - (Romeo) (FEB06) (NSW/AM) - Toda                                                                          150                                
PROFAMCHA060401071716071726000010FAMJAM - Open/Close                                                                                                         150                                
PGRFAMCHA060401071726071826000100MV Disney - Huckaroo (Pixel Perfect)                                                                                   60688120                                
PROFAMCHA060401071826071840000014xxFAMJAM - Close (FAMILY) xxDNUxx                                                                                           150                                
PRCFAMCHA060401071840071910000030xxSuite Life of Zack & Cogy NSW This Morning @8:15                                                                          150                                
PRCFAMCHA060401071910071929000019Nonstop Weekend - LIZZIE MCGUIRE - Lenny                                                                                    150                                
PRCFAMCHA060401071929071943000014Family Bumpers - (Phase 1 Spring 04) - Basketball                                                                           150                                
ID FAMCHA060401071943071958000015Nonstop Weekend Block Open (:14-:17)                                                                                        150                                
PGRFAMCHA060401071958074140002142W.I.T.C.H.                                        EP: 19                                                               2068607E                                
PRCFAMCHA060401074140074145000005Astral ID (FEB05)                                                                                                           150                                
PROFAMCHA060401074145074159000014NSW - 02 - LIZZIE/SUITE/ZOEY (SEP05) (:14 - 16)                                                                             150                                
PROFAMCHA060401074159074229000030xxLizzie McGuire - (Romeo) (FEB06) (MD) - Coming U                                                                          150                                
PRCFAMCHA060401074229074312000043Famous Players Popcorn Parties (Jan06)1xMD,2xNSPri                                                                          150                                
PRCFAMCHA060401074312074351000039xxSuite Life of Zack & Cogy NSW This Morning @8:15                                                                          150                                
PROFAMCHA060401074351074401000010FAMJAM - Open/Close                                                                                                         150                                
PGRFAMCHA060401074401074640000239MV Disney - Come Clean (Hillary Duff)                                                                                  60688120                                
PROFAMCHA060401074640074654000014xxFAMJAM - Close (FAMILY) xxDNUxx                                                                                           150                                
PROFAMCHA060401074654074721000027xxZoey 101 - 123 LOGAN (NSW) (MAR06) Today @ 8:40a                                                                          150                                
PRCFAMCHA060401074721074751000030xxPhil of the Future (NSW) (MAR06) - This Morning                                                                           150                                
ID FAMCHA060401074751074805000014Nonstop Weekend Block Open (:14-:17)                                                                                        150                                
ID FAMCHA060401074805074813000008Magic of Disney - NS/NSW/PB - Shape (:06-:09)                                                                               150                                
PGRFAMCHA060401074813081048002235Lizzie McGuire                                    EP: 1-020                                                           A6068607B                                
PROFAMCHA060401081048081102000014NSW - 03 - SUITE/ZOEY/RAVEN (SEP05) (:14 - 16)                                                                              150                                
PRCFAMCHA060401081102081132000030xxMad Dash - GUIDE - Tomorrow starting @ 3pm                                                                                150                                
PRCFAMCHA060401081132081202000030xxSuite Life of Zack & cody - NS - Next @ 5:35 (MA                                                                          150                                
PROFAMCHA060401081202081246000044Chronicles of Narnia Blast - April 4 (March 27-Apr                                                                          150                                
PROFAMCHA060401081246081313000027xxZoey 101 - 123 LOGAN (NSW) (MAR06) Today @ 8:40a                                                                          150                                
PRCFAMCHA060401081313081331000018Bullying (2005) (TTP - Kids) - Jazz Dancer                                                                                  150                                
PROFAMCHA060401081331081401000030xxThat's So Raven (OCT05) (NSW/AM) - Today @ 9:10a                                                                          150                                
PRCFAMCHA060401081401081431000030xxPhil of the Future (NSW) (MAR06) - This Morning                                                                           150                                
PROFAMCHA060401081431081450000019xxEven Stevens - What's Up (SEPT05) - (NSW) - Toda                                                                          150                                
ID FAMCHA060401081450081504000014Nonstop Weekend Block Open (:14-:17)                                                                                        150                                
PGRFAMCHA060401081504083743002239Suite Life of Zack & Cody, The                    EP: 10                                                               6068607B                                
PRCFAMCHA060401083743083748000005Astral ID (FEB05)                                                                                                           150                                
PROFAMCHA060401083748083802000014NSW - 04 - ZOEY/RAVEN/PHIL (SEP05) (:14 - 16)                                                                               150                                
PROFAMCHA060401083802083829000027xxZoey 101 - 123 LOGAN (NSW) (MAR06) Coming Up Nex                                                                          150                                
PROFAMCHA060401083829083859000030xxThat's So Raven (OCT05) (NSW/AM) - Today @ 9:10a                                                                          150                                
PGRFAMCHA060401083859083959000100xxMovie Surfers - The Wild - Characters (Mar3-Apr1                                                                    A60688120                                
PRCFAMCHA060401083959084029000030xxPhil of the Future (NSW) (MAR06) - This Morning                                                                           150                                
PGRFAMCHA060401084029084206000137Planet Rock Profiles - Michelle Branch - Golf CartEP: 46                                                              A70687120                                
PROFAMCHA060401084206084239000033xxEven Stevens - Stinky Feet (MAR05) - (NSW) - Tod                                                                          150                                
PRCFAMCHA060401084239084248000009Family Bumpers - (Phase 1 Spring 04) - Soccer (MD-                                                                          150                                
ID FAMCHA060401084248084305000017Nonstop Weekend Block Open (:14-:17)                                                                                        150                                
PROFAMCHA060401084305084314000009CC Disclaimer - FAST - Family.ca (:08-:10)                                                                                  150                                
PGRFAMCHA060401084314090631002317Zoey 101                                          EPS # 01                                                             2068707BCC                              
PROFAMCHA060401090631090645000014NSW - 05 - RAVEN/PHIL/EVEN (SEP05) (:14 - 16)                                                                               150                                
PRCFAMCHA060401090645090715000030xxMad Dash - GUIDE - Tomorrow starting @ 3pm                                                                                150                                
PROFAMCHA060401090715090745000030xxThat's So Raven (OCT05) (NSW) - Coming Up Next                                                                            150                                
PROFAMCHA060401090745090829000044Chronicles of Narnia Blast - April 4 (March 27-Apr                                                                          150                                
PRCFAMCHA060401090829090859000030xxPhil of the Future (NSW) (MAR06) - This Morning                                                                           150                                
PROFAMCHA060401090859090909000010FAMJAM - Open/Close                                                                                                         150                                
MVCFAMCHA060401090909091039000130MV Disney - (MD//NSNSW) - Walking On Sunshine (Aly                                                                     6068808B                                
PROFAMCHA060401091039091053000014xxFAMJAM - Close (FAMILY) xxDNUxx                                                                                           150                                
PROFAMCHA060401091053091127000034xxEven Stevens - Bad Boys (NOV05) - (NSW) - Today                                                                           150                                
PROFAMCHA060401091127091157000030Double Teamed (SEPT12) - Next Friday @ 7:30pm                                                                               150                                
ID FAMCHA060401091157091212000015Nonstop Weekend Block Open (:14-:17)                                                                                        150                                
PGRFAMCHA060401091212093450002238That's So Raven                                   EPS # 1-042                                                          6068607B                                
PRCFAMCHA060401093450093455000005Astral ID (FEB05)                                                                                                           150                                
PROFAMCHA060401093455093509000014NSW - 06 - PHIL/EVEN/BMW (SEP05) (:14 - 16)                                                                                 150                                
PRCFAMCHA060401093509093539000030xxPhil of the Future (NSW) (OCT05) - Coming Up Nex                                                                          150                                
PROFAMCHA060401093539093615000036Chris Brown Blast Interstitial (mar 13 - mar 26)(M                                                                    A     150                                
PROFAMCHA060401093615093648000033xxEven Stevens - Stinky Feet (MAR05) - (NSW) - Tod                                                                          150                                
PGRFAMCHA060401093648093848000200xxMovie Surfers-The Wild-Intersti#2-Surfers Go Cur                                                                    A60688120                                
PROFAMCHA060401093848093918000030Double Teamed (SEPT12) - Next Friday @ 7:30pm                                                                               150                                
PRCFAMCHA060401093918093948000030Nonstop Weekend - EVEN STEVENS - Gym Test                                                                                   150                                
PRCFAMCHA060401093948094005000017Naturally Sadie Web BBD - 2x daily NS/NSW                                                                                   150                                
PROFAMCHA060401094005094043000038xxNed's DSSG - KUNG FU (NSW) (NOV05) - Today @ 11:                                                                          150                                
PRCFAMCHA060401094043094050000007Aly & A.J. IDs - Phil of the Future, Stay Tuned on                                                                          150                                
ID FAMCHA060401094050094105000015Nonstop Weekend Block Open (:14-:17)                                                                                        150                                
PGRFAMCHA060401094105100341002236Phil of the Future Yr 2                           EP: 25                                                               6068607B                                
PROFAMCHA060401100341100355000014NSW - 07 - EVEN/BMW/NEDS (SEP05) (:14 - 16)                                                                                 150                                
PRCFAMCHA060401100355100425000030xxMad Dash - GUIDE - Tomorrow starting @ 3pm                                                                                150                                
PROFAMCHA060401100425100459000034xxEven Stevens - Corn Dog (SEPT05) - (NSW) - Comin                                                                          150                                
PROFAMCHA060401100459100535000036Chris Brown Blast Interstitial (mar 13 - mar 26)(M                                                                    A     150                                
PROFAMCHA060401100535100605000030Double Teamed (SEPT12) - Next Friday @ 7:30pm                                                                               150                                
PROFAMCHA060401100605100615000010FAMJAM - Open/Close                                                                                                         150                                
PGRFAMCHA060401100615100826000211MV Disney - (MD/NS/NSW) - Do You Believe In Magic                                                                      60688120                                
PROFAMCHA060401100826100840000014xxFAMJAM - Close (FAMILY) xxDNUxx                                                                                           150                                
PROFAMCHA060401100840100918000038xxNed's DSSG - KUNG FU (NSW) (NOV05) - Today @ 11:                                                                          150                                
PRCFAMCHA060401100918100948000030xxBrotherly Love (JAN06) (NSW) - Neat - Today @ 11                                                                          150                                
PRCFAMCHA060401100948100954000006Family Bumpers - (Phase 2 F/W 04) - Gymnastics (MD                                                                          150                                
ID FAMCHA060401100954101008000014Nonstop Weekend Block Open (:14-:17)                                                                                        150                                
ID FAMCHA060401101008101016000008Magic of Disney - NS/NSW/PB - Wipe (:06-:09)                                                                                150                                
PROFAMCHA060401101016101024000008CC Disclaimer - FAST - Family.ca (:08-:10)                                                                                  150                                
PGRFAMCHA060401101024103300002236Even Stevens                                      EP: 2-025                                                           A6068807BCC                              
PRCFAMCHA060401103300103305000005Astral ID (FEB05)                                                                                                           150                                
PROFAMCHA060401103305103320000015NSW - 08 - BMW/NEDS/BROTHERLY (SEP05) (:14 - 16)                                                                            150                                
PROFAMCHA060401103320103350000030Double Teamed (SEPT12) - Next Friday @ 7:30pm                                                                               150                                
PRCFAMCHA060401103350103433000043Famous Players Popcorn Parties (Jan06)1xMD,2xNSPri                                                                          150                                
PROFAMCHA060401103433103511000038xxNed's DSSG - KUNG FU (NSW) (NOV05) - Today @ 11:                                                                          150                                
PGRFAMCHA060401103511103645000134Planet Rock Profiles - Green Day (Influence) xxDNUEP: 46                                                              A70687120                                
PRCFAMCHA060401103645103715000030xxBrotherly Love (JAN06) (NSW) - Neat - Today @ 11                                                                          150                                
PROFAMCHA060401103715103745000030One Small Hero (WDP) - Today @ 1:30pm                                                                                       150                                
ID FAMCHA060401103745103759000014Nonstop Weekend Block Open (:14-:17)                                                                                        150                                
PROFAMCHA060401103759103808000009CC Disclaimer - FAST - Family.ca (:08-:10)                                                                                  150                                
PGRFAMCHA060401103808105748001940Boy Meets World                                   EP: 1-146                                                           B6068807BCC                              
PROFAMCHA060401105748105803000015NSW - 09 - NEDS/BROTHERLY/WDP (SEP05) (:14 - 16)                                                                            150                                
PRCFAMCHA060401105803105833000030xxMad Dash - GUIDE - Tomorrow starting @ 3pm                                                                                150                                
PROFAMCHA060401105833105911000038xxNed's DSSG - KUNG FU (NSW) (NOV05) - Coming Up N                                                                          150                                
PGRFAMCHA060401105911110041000130xxMovie Surfers - The Wild - Jim Belushi - Coming                                                                     A60688120                                
PRCFAMCHA060401110041110111000030xxBrotherly Love (JAN06) (NSW) - Neat - Today @ 11                                                                          150                                
PRCFAMCHA060401110111110140000029Life With Derek Web Promo                                                                                                   150                                
PROFAMCHA060401110140110210000030One Small Hero (WDP) - Today @ 1:30pm                                                                                       150                                
PROFAMCHA060401110210110220000010FAMJAM - Open/Close                                                                                                         150                                
MVCFAMCHA060401110220110350000130MV Disney - (MD//NSNSW) - Because You Live (Jesse                                                                      6068808B                                
PROFAMCHA060401110350110404000014xxFAMJAM - Close (FAMILY) xxDNUxx                                                                                           150                                
PROFAMCHA060401110404110438000034xxSmart Guy (OCT05) (HAPPY DANCE) - (NSW) - Today                                                                           150                                
PRCFAMCHA060401110438110445000007Aly & A.J. IDs - (ALY) You're Watching Family, NAD                                                                          150                                
ID FAMCHA060401110445110500000015Nonstop Weekend Block Open (:14-:17)                                                                                        150                                
PROFAMCHA060401110500110509000009CC Disclaimer - FAST - Family.ca (:08-:10)                                                                                  150                                
PGRFAMCHA060401110509112935002426Ned's Declassified School Survival Guide          EPS # 11                                                             2068807BCC                              
PRCFAMCHA060401112935112940000005Astral ID (FEB05)                                                                                                           150                                
PROFAMCHA060401112940112955000015NSW - 10 - BROTHERLY/WDP (SEP05) (:14 - 16)                                                                                 150                                
PRCFAMCHA060401112955113025000030xxBrotherly Love (JAN06) (NSW) - Coming Up Next                                                                             150                                
PROFAMCHA060401113025113109000044Chronicles of Narnia Blast - April 4 (March 27-Apr                                                                          150                                
PROFAMCHA060401113109113139000030One Small Hero (WDP) - Today @ 1:30pm                                                                                       150                                
PROFAMCHA060401113139113215000036Chris Brown Blast Interstitial (mar 13 - mar 26)(M                                                                    A     150                                
PROFAMCHA060401113215113249000034xxSmart Guy (OCT05) (HAPPY DANCE) - (NSW) - Today                                                                           150                                
PRCFAMCHA060401113249113306000017Bullying (2005) (TTP - Stars) - Georges Laraque (E                                                                          150                                
PROFAMCHA060401113306113336000030xxLizzie McGuire - (Romeo) (FEB06) (NSW/PM) - Toda                                                                          150                                
PRCFAMCHA060401113336113343000007Family Bumpers - (Phase 2 F/W 04) - Hockey (MD-L/M                                                                          150                                
ID FAMCHA060401113343113400000017Nonstop Weekend Block Open (:14-:17)                                                                                        150                                
PGRFAMCHA060401113400115632002232Brotherly Love                                    EPS # 35                                                             6068807B                                
PROFAMCHA060401115632115648000016Nonstop Weekend - 17(SEP) - WDP MOVIE (:14-:16)                                                                             150                                
PRCFAMCHA060401115648115718000030xxMad Dash - GUIDE - Tomorrow starting @ 3pm                                                                                150                                
PROFAMCHA060401115718115802000044Chronicles of Narnia Blast - April 4 (March 27-Apr                                                                          150                                
PROFAMCHA060401115802115832000030One Small Hero (WDP) - Today @ 1:30pm                                                                                       150                                
PGRFAMCHA060401115832115907000035Planet Rock Profiles - Nelly Furtado (Famous PeoplEP: 46                                                              A70687120                                
PROFAMCHA060401115907115941000034xxSmart Guy (OCT05) (HAPPY DANCE) - (NSW) - Today                                                                           150                                
ID FAMCHA060401115941115958000017Weekend Double Pix Movie Open (:13-:17)                                                                                     150                                
ID FAMCHA060401115958120007000009Rating - PG - (DEC05) (:08 - :10)                                                                                           150                                
PROFAMCHA060401120007120016000009CC Disclaimer - FAST - Family.ca (:08-:10)                                                                                  150                                
PGRFAMCHA060401120016132407012351Mr. Nanny                                                                                                             B2068807ECC                              
PRCFAMCHA060401132407132412000005Astral ID (FEB05)                                                                                                           150                                
PROFAMCHA060401132412132428000016Nonstop Weekend - 17(SEP) - WDP MOVIE (:14-:16)                                                                             150                                
PROFAMCHA060401132428132458000030One Small Hero (WDP) - Coming Up Next                                                                                       150                                
PROFAMCHA060401132458132532000034xxSmart Guy (OCT05) (HAPPY DANCE) - (NSW) - Today                                                                           150                                
PGRFAMCHA060401132532132632000100xxMovie Surfers - The Wild - Koala (Mar03-Apr16)                                                                      A60688120                                
PROFAMCHA060401132632132702000030xxLizzie McGuire - (Romeo) (FEB06) (NSW/PM) - Toda                                                                          150                                
PROFAMCHA060401132702132712000010FAMJAM - Open/Close                                                                                                         150                                
MVCFAMCHA060401132712132857000145MV Disney - (MD/NS/NSW) - What I've Been Looking F                                                                     6068808B                                
PROFAMCHA060401132857132911000014xxFAMJAM - Close (FAMILY) xxDNUxx                                                                                           150                                
PRCFAMCHA060401132911132941000030xxSuite Life of Zack & cody - NS - This Afternoon                                                                           150                                
ID FAMCHA060401132941132958000017Weekend Double Pix Movie Open (:13-:17)                                                                                     150                                
ID FAMCHA060401132958133007000009Rating - PG - (DEC05) (:08 - :10)                                                                                           150                                
PROFAMCHA060401133007133016000009CC Disclaimer - FAST - Family.ca (:08-:10)                                                                                  150                                
PGRFAMCHA060401133016150033013017One Small Hero                                                                                                        B2068807DCC                              
PROFAMCHA060401150033150048000015NSW - 11 - SMART/LIZZIE/SUITE(SEP05) (:14 - 16)                                                                             150                                
ID FAMCHA060401150048150105000017Nonstop Weekend Block Open (:14-:17)                                                                                        150                                
PROFAMCHA060401150105150114000009CC Disclaimer - FAST - Family.ca (:08-:10)                                                                                  150                                
PGRFAMCHA060401150114152347002233Smart Guy                                         EP: 1-031                                                           A6068807BCC                              
PRCFAMCHA060401152347152352000005Astral ID (FEB05)                                                                                                           150                                
PROFAMCHA060401152352152407000015NSW - 12 - LIZZIE/SUITE/PROUD (SEP05) (:14 - 16)                                                                            150                                
ID FAMCHA060401152407152422000015Nonstop Weekend Block Open (:14-:17)                                                                                        150                                
ID FAMCHA060401152422152430000008Magic of Disney - NS/NSW/PB - Shape (:06-:09)                                                                               150                                
PGRFAMCHA060401152430154704002234Lizzie McGuire                                    EP: 2-031                                                           A6068607B                                
PROFAMCHA060401154704154719000015NSW - 13 - SUITE/PROUD/FILLMORE (SEP05) (:14 - 16)                                                                          150                                
PRCFAMCHA060401154719154749000030xxMad Dash - GUIDE - Tomorrow starting @ 3pm                                                                                150                                
PRCFAMCHA060401154749154828000039xxSuite Life of Zack & cody - NS - Next @ 5:35 (MA                                                                          150                                
PROFAMCHA060401154828154904000036Chris Brown Blast Interstitial (mar 13 - mar 26)(M                                                                    A     150                                
PROFAMCHA060401154904154934000030Kim Possible (NOV2003) - (MD) - Coming Up                                                                                   150                                
PGRFAMCHA060401154934155015000041Planet Rock Profiles - Ashanti (JLo)              EP: 46                                                              A70687120                                
PRCFAMCHA060401155015155045000030xxPhil of the Future (NSW) (MAR06) - This afternoo                                                                          150                                
ID FAMCHA060401155045155100000015Nonstop Weekend Block Open (:14-:17)                                                                                        150                                
PGRFAMCHA060401155100161339002239Suite Life of Zack & Cody, The                    EP: 08                                                               6068607B                                
PRCFAMCHA060401161339161344000005Astral ID (FEB05)                                                                                                           150                                
PROFAMCHA060401161344161359000015NSW - 01 - PROUD/FILLMORE!/KIM (MAR06) (:14 - 16)                                                                           150                                
PROFAMCHA060401161359161427000028xxProud Family (NOV04) (MD) - Coming Up Next                                                                                150                                
PROFAMCHA060401161427161511000044Chronicles of Narnia Blast - April 4 (March 27-Apr                                                                          150                                
PROFAMCHA060401161511161541000030Kim Possible (NOV2003) - (MD) - Coming Up                                                                                   150                                
PROFAMCHA060401161541161551000010FAMJAM - Open/Close                                                                                                         150                                
PGRFAMCHA060401161551161651000100MV Disney - (FAMILY HITS) That's So Raven Theme So                                                                     60688120                                
PROFAMCHA060401161651161705000014xxFAMJAM - Close (FAMILY) xxDNUxx                                                                                           150                                
PRCFAMCHA060401161705161735000030xxPhil of the Future (NSW) (MAR06) - This afternoo                                                                          150                                
PRCFAMCHA060401161735161745000010Naturally Sadie ID's - Log on to family.ca                                                                                  150                                
ID FAMCHA060401161745161800000015Nonstop Weekend Block Open (:14-:17)                                                                                        150                                
PROFAMCHA060401161800161809000009CC Disclaimer - FAST - Family.ca (:08-:10)                                                                                  150                                
PGRFAMCHA060401161809164045002236The Proud Family                                  EP: 2-043                                                           A6068607ECC                              
PROFAMCHA060401164045164100000015NSW - 02 - FILLMORE!/KIM/PHIL (MAR06) (:14 - 16)                                                                            150                                
PRCFAMCHA060401164100164130000030xxMad Dash - GUIDE - Tomorrow starting @ 3pm                                                                                150                                
PROFAMCHA060401164130164200000030Kim Possible (NOV2003) - (MD) - Coming Up                                                                                   150                                
PGRFAMCHA060401164200164330000130xxMovie Surfers - The Wild - Jim Belushi - Coming                                                                     A60688120                                
PRCFAMCHA060401164330164400000030xxPhil of the Future (NSW) (MAR06) - This afternoo                                                                          150                                
PRCFAMCHA060401164400164444000044Nonstop Weekend - LIZZIE MCGUIRE - Fountain                                                                                 150                                
PRCFAMCHA060401164444164455000011Family Bumpers - (Phase 2 F/W 04) - Science (MD-AM                                                                          150                                
ID FAMCHA060401164455164510000015Nonstop Weekend Block Open (:14-:17)                                                                                        150                                
PGRFAMCHA060401164510170748002238Disney's Fillmore!                                EP: 1-001                                                           A6068607E                                
PRCFAMCHA060401170748170753000005Astral ID (FEB05)                                                                                                           150                                
PROFAMCHA060401170753170808000015NSW - 03 - KIM/PHIL/SADIE (MAR06) (:14 - 16)                                                                                150                                
PROFAMCHA060401170808170838000030Kim Possible (NOV2003) - (MD) - Coming Up                                                                                   150                                
PROFAMCHA060401170838170922000044Chronicles of Narnia Blast - April 4 (March 27-Apr                                                                          150                                
PRCFAMCHA060401170922170952000030xxPhil of the Future (NSW) (MAR06) - This afternoo                                                                          150                                
PRCFAMCHA060401170952171030000038Bullying (2005) - Celebrity Pledge (1x, daily UNTI                                                                          150                                
PRCFAMCHA060401171030171110000040xxNaturally Sadie (JAN06) - Tonight @ 6:05pm                                                                                150                                
PRCFAMCHA060401171110171140000030xxDarcy's Wild Life (JAN06) - Tonight @ 6:30pm                                                                              150                                
ID FAMCHA060401171140171155000015Nonstop Weekend Block Open (:14-:17)                                                                                        150                                
PGRFAMCHA060401171155173449002254Disney's Kim Possible                             EPS # 1-032                                                         A6068607E                                
PROFAMCHA060401173449173504000015NSW - 04 - PHIL/SADIE/DARCY (MAR06) (:14 - 16)                                                                              150                                
PRCFAMCHA060401173504173534000030xxMad Dash - GUIDE - Tomorrow starting @ 3pm                                                                                150                                
PRCFAMCHA060401173534173604000030xxPhil of the Future (NSW) (MAR06) - Coming Up Nex                                                                          150                                
PGRFAMCHA060401173604173738000134Planet Rock Profiles - Nelly Furtado (Light)      EP: 46                                                              A70687120                                
PRCFAMCHA060401173738173818000040xxNaturally Sadie (JAN06) - Tonight @ 6:05pm                                                                                150                                
PRCFAMCHA060401173818173848000030xxDarcy's Wild Life (JAN06) - Tonight @ 6:30pm                                                                              150                                
ID FAMCHA060401173848173903000015Nonstop Weekend Block Open (:14-:17)                                                                                        150                                
PGRFAMCHA060401173903180143002240Phil of the Future                                EPS # 06                                                             6068607B                                
PRCFAMCHA060401180143180148000005Astral ID (FEB05)                                                                                                           150                                
PROFAMCHA060401180148180203000015NSW - 18 - NATURALLY/DARCY/RAVEN (SEP05) (:14 - 16                                                                          150                                
PRCFAMCHA060401180203180212000009Naturally Sadie ID's - Check out Naturally Sadie N                                                                          150                                
PRCFAMCHA060401180212180255000043Famous Players Popcorn Parties (Jan06)1xMD,2xNSPri                                                                          150                                
PRCFAMCHA060401180255180325000030xxDarcy's Wild Life (JAN06) - Tonight @ 6:30pm                                                                              150                                
PGRFAMCHA060401180325180446000121Planet Rock Profiles - Michelle Branch - First GigEP: 46                                                              A70687120                                
PROFAMCHA060401180446180516000030O'Grady - Weirdness Zone (NSW) NOV05) - Tonight @                                                                           150                                
PRCFAMCHA060401180516180543000027xxRadio Free Roscoe - (NSW/PM) (SEP05) - Tonight @                                                                          150                                
ID FAMCHA060401180543180558000015Nonstop Weekend Block Open (:14-:17)                                                                                        150                                
PGRFAMCHA060401180558182828002230Naturally, Sadie                                  EP: 24                                                        C24010 1015607ACC3                             
PROFAMCHA060401182828182843000015NSW - 19 - DARCY/RAVEN/OGRADY (NOV05) (:14 - 16)                                                                            150                                
PRCFAMCHA060401182843182913000030xxMad Dash - GUIDE - Tomorrow starting @ 3pm                                                                                150                                
PRCFAMCHA060401182913182943000030xxDarcy's Wild Life (JAN06) - Coming Up Next                                                                                150                                
PRCFAMCHA060401182943183000000017Naturally Sadie Web BBD - 2x daily NS/NSW                                                                                   150                                
PRCFAMCHA060401183000183015000015Bullying (2005) (TTP - Kids) - Basketball                                                                                   150                                
PROFAMCHA060401183015183045000030xxThat's So Raven (OCT05) (NSW/PM) - Tonight @ 7pm                                                                          150                                
PROFAMCHA060401183045183055000010FAMJAM - Open/Close                                                                                                         150                                
PGRFAMCHA060401183055183155000100MV Disney - Huckaroo (Pixel Perfect)                                                                                   60688120                                
PROFAMCHA060401183155183209000014xxFAMJAM - Close (FAMILY) xxDNUxx                                                                                           150                                
PROFAMCHA060401183209183239000030O'Grady - Weirdness Zone (NSW) NOV05) - Tonight @                                                                           150                                
PRCFAMCHA060401183239183245000006Family Bumpers - (Phase 3 Spring 05) - Bubble Gum                                                                           150                                
ID FAMCHA060401183245183300000015Nonstop Weekend Block Open (:14-:17)                                                                                        150                                
PROFAMCHA060401183300183309000009CC Disclaimer - FAST - Family.ca (:08-:10)                                                                                  150                                
PGRFAMCHA060401183309185439002130Darcy's Wild Life                                 EP: 23                                                        A23412A1065607BCC                              
PRCFAMCHA060401185439185444000005Astral ID (FEB05)                                                                                                           150                                
PROFAMCHA060401185444185459000015NSW - 20 - RAVEN/OGRADY/RADIO (SEP05) (:14 - 16)                                                                            150                                
PROFAMCHA060401185459185529000030xxThat's So Raven (OCT05) (NSW) - Coming Up Next                                                                            150                                
PGRFAMCHA060401185529185729000200xxMovie Surfers-The Wild-Intersti#2-Surfers Go Cur                                                                    A60688120                                
PROFAMCHA060401185729185759000030O'Grady - Weirdness Zone (NSW) NOV05) - Tonight @                                                                           150                                
PGRFAMCHA060401185759185911000112Planet Rock Profiles - Jewel (Lilith) xxDNUxx xxDNEP: 46                                                              A70687120                                
PRCFAMCHA060401185911185938000027xxRadio Free Roscoe - (NSW/PM) (SEP05) - Tonight @                                                                          150                                
PRCFAMCHA060401185938185945000007Aly & A.J. IDs - Fam Club at family.ca for Phil in                                                                          150                                
ID FAMCHA060401185945190000000015Nonstop Weekend Block Open (:14-:17)                                                                                        150                                
PGRFAMCHA060401190000192236002236That's So Raven                                   EP: 75                                                               6068607B                                
PROFAMCHA060401192236192251000015NSW - 21 - OGRADY/RADIO/8 SIMPLE (JAN06) (:14 - 16                                                                          150                                
PROFAMCHA060401192251192321000030O'Grady - Weirdness Zone (NSW) NOV05) - Coming Up                                                                           150                                
PROFAMCHA060401192321192405000044Chronicles of Narnia Blast - April 4 (March 27-Apr                                                                          150                                
PRCFAMCHA060401192405192432000027xxRadio Free Roscoe - (NSW/PM) (SEP05) - Tonight @                                                                          150                                
PRCFAMCHA060401192432192444000012Bullying (2005) (TTP - Kids) - Artist                                                                                       150                                
ID FAMCHA060401192444192459000015Nonstop Weekend Block Open (:14-:17)                                                                                        150                                
PGRFAMCHA060401192459194832002333O'Grady                                           EP: 01                                                              B2068707E                                
PRCFAMCHA060401194832194837000005Astral ID (FEB05)                                                                                                           150                                
PROFAMCHA060401194837194852000015NSW - 22 - RADIO/8 SIMPLE/MOVIE ENT (JAN06) (:14 -                                                                          150                                
ID FAMCHA060401194852194907000015Nonstop Weekend Block Open (:14-:17)                                                                                        150                                
PROFAMCHA060401194907194916000009CC Disclaimer - FAST - Family.ca (:08-:10)                                                                                  150                                
PGRFAMCHA060401194916201146002230Radio Free Roscoe                                 EPS # 003                                                     B88718A1065607ACC                              
PROFAMCHA060401201146201201000015NSW - 23 - 8 SIMPLE/MOVIE ENT/N-PIX (JAN06) (:14 -                                                                          150                                
PRCFAMCHA060401201201201231000030xxMad Dash - GUIDE - Tomorrow starting @ 3pm                                                                                150                                
PROFAMCHA060401201231201301000030xx8 Simple Rules (JAN06) (NSW) TICKET - Coming Up                                                                           150                                
PGRFAMCHA060401201301201407000106Planet Rock Profiles - Sum 41 (Old Guy)           EP: 46                                                              A70687120                                
PRCFAMCHA060401201407201444000037xxMovie Entertainment - Tonight @ 8:40pm                                                                                    150                                
PRCFAMCHA060401201444201450000006Family Bumpers - Reptile Pet - Car Horn (MD/NS/NSW                                                                          150                                
ID FAMCHA060401201450201505000015Nonstop Weekend Block Open (:14-:17)                                                                                        150                                
PROFAMCHA060401201505201514000009CC Disclaimer - FAST - Family.ca (:08-:10)                                                                                  150                                
PGRFAMCHA0604012015142036480021348 Simple Rules                                    EP: 33                                                              B6068807BCC                              
PRCFAMCHA060401203648203653000005Astral ID (FEB05)                                                                                                           150                                
PROFAMCHA060401203653203708000015NSW - 24 - MOVIE ENT/N-PIX (SEP05) (:14 - 16)                                                                               150                                
PRCFAMCHA060401203708203745000037xxMovie Entertainment - Coming Up Next                                                                                      150                                
PRCFAMCHA060401203745203815000030xxPhil of the Future (NSW) (MAR06) - Tomorrow Morn                                                                          150                                
PRCFAMCHA060401203815203844000029Life With Derek Web Promo                                                                                                   150                                
PROFAMCHA060401203844203854000010FAMJAM - Open/Close                                                                                                         150                                
PGRFAMCHA060401203854204105000211MV Disney - (MD/NS/NSW) - Do You Believe In Magic                                                                      60688120                                
PROFAMCHA060401204105204119000014xxFAMJAM - Close (FAMILY) xxDNUxx                                                                                           150                                
PROFAMCHA060401204119204149000030xxNed's DSSG - New Eps. (NS) Friday Night @ 7pm (J                                                                          150                                
ID FAMCHA060401204149204204000015Nonstop Weekend Block Open (:14-:17)                                                                                        150                                
PGRFAMCHA060401204204205804001600Movie Entertainment (3)                                                                                               B10628150                                
PROFAMCHA060401205804205820000016Nightly Pix Line-up (SEPT) - GENERIC (:14-:16)                                                                              150                                
PROFAMCHA060401205820205850000030xxThat's So Raven (OCT05) (NSW/AM) - Tomorrow @ 9:                                                                          150                                
PRCFAMCHA060401205850205914000024Nonstop Weekend - EVEN STEVENS - Banned                                                                                     150                                
PROFAMCHA060401205914205941000027xxZoey 101 - 123 LOGAN (NSW) (MAR06) Tomorrow @ 8:                                                                          150                                
ID FAMCHA060401205941205956000015xxNightly Pix Movie Open (:10-:15)                                                                                          150                                
ID FAMCHA060401205956210005000009Rating - 14A - (DEC05) (:08 - :10)                                                                                          150                                
PGRFAMCHA060401210005224636014631The Thomas Crown Affair                                                                                               B2068807D                                
PRCFAMCHA060401224636224641000005Astral ID (FEB05)                                                                                                           150                                
PROFAMCHA060401224641224657000016Nightly Pix Line-up (SEPT) - GENERIC (:14-:16)                                                                              150                                
ID FAMCHA060401224657224712000015xxNightly Pix Movie Open (:10-:15)                                                                                          150                                
ID FAMCHA060401224712224721000009Rating - PG - (DEC05) (:08 - :10)                                                                                           150                                
PROFAMCHA060401224721224730000009CC Disclaimer - SLOW - Family.ca (:08-:10)                                                                                  150                                
PGRFAMCHA0604012247300032110144418 Seconds                                                                                                             B2068807ECC                              
PROFAMCHA060401003211003226000015NSW - 25 - SPIDER (JAN06) (:14 - 16)                                                                                        150                                
ID FAMCHA060401003226003241000015Nonstop Weekend Block Open (:14-:17)                                                                                        150                                
PGRFAMCHA060401003241005422002141Spiderman                                         EP: 05                                                        C02618 1065607E                                
PRCFAMCHA060401005422005452000030xxMad Dash - GUIDE - Tomorrow starting @ 3pm                                                                                150                                
PRCFAMCHA060401005452005522000030xxSuite Life of Zack & Cogy NSW Tomorrow Morning @                                                                          150                                
PROFAMCHA060401005522005532000010FAMJAM - Open/Close                                                                                                         150                                
PGRFAMCHA060401005532005927000355MV Disney - Come Clean (Hillary Duff)                                                                                  60688120                                
PROFAMCHA060401005927005941000014xxFAMJAM - Close (FAMILY) xxDNUxx                                                                                           150                                
PROFAMCHA060401005941010008000027xxZoey 101 - 123 LOGAN (NSW) (MAR06) Tomorrow @ 8:                                                                          150                                
PROFAMCHA060401010008010038000030xxThat's So Raven (OCT05) (NSW/AM) - Tomorrow @ 9:                                                                          150                                
PGRFAMCHA060401010038010144000106Planet Rock Profiles - Sum 41 (Old Guy)           EP: 46                                                              A70687120                                
PROFAMCHA060401010144010203000019xxEven Stevens - What's Up (SEPT05) - (NSW) - Tomo                                                                          150                                
PRCFAMCHA060401010203010218000015Astral - LOVE                                                                                                               150                                
SO FAMCHA060401010218010230000012Sign Off                                                                                                                                                       
OFFFAMCHA060401010230043000032730OFF AIR                                                                                                                                                        
SO FAMCHA060402043000043011000011Sign On (oct 1)                                                                                                                                                
PROFAMCHA060402043011043020000009CC Disclaimer - FAST - Family.ca (:08-:10)                                                                                  150                                
PGRFAMCHA060402043020045422002402Henry's World                                     EP: 2-026                                                     B81057A1065607GCC                              
PRCFAMCHA060402045422045427000005Astral ID (FEB05)                                                                                                           150                                
PROFAMCHA060402045427045442000015PH - 01 (S/S) - BEN/FRANNY/KING (SEP05) (:14 - 16)                                                                          150                                
ID FAMCHA060402045442045455000013PS Playhouse AM Block Open (:10-:15)                                                                                        150                                
PROFAMCHA060402045455045504000009CC Disclaimer - FAST - Family.ca (:08-:10)                                                                                  150                                
PGRFAMCHA060402045504051735002231The Secret World Of Benjamin Bear                 EPS # 1-010                                                   B75155A1065607ECC                              
PROFAMCHA060402051735051750000015PH - 01 (S/S) - FRANNY/KING/SPIDER (SEP05) (:14 -                                                                           150                                
ID FAMCHA060402051750051803000013PS Playhouse AM Block Open (:10-:15)                                                                                        150                                
PROFAMCHA060402051803051812000009CC Disclaimer - FAST - Family.ca (:08-:10)                                                                                  150                                
PGRFAMCHA060402051812054042002230Franny's Feet                                     EPS # 1-009                                                   C23970A1065607ECC                              
PRCFAMCHA060402054042054047000005Astral ID (FEB05)                                                                                                           150                                
PROFAMCHA060402054047054102000015PH - 04 - KING/SPIDERMAN/SPACE (NOV05) (:14 - 16)                                                                           150                                
ID FAMCHA060402054102054115000013PS Playhouse AM Block Open (:10-:15)                                                                                        150                                
PROFAMCHA060402054115054124000009CC Disclaimer - FAST - Family.ca (:08-:10)                                                                                  150                                
PGRFAMCHA060402054124060354002230King                                              EP: 010                                                       B75765A1065607ECC                              
PROFAMCHA060402060354060409000015PB - 01 - SPIDER/SPACE/ROBOT (NOV05) (:14 - 16)                                                                             150                                
ID FAMCHA060402060409060424000015xxPower Box Block Open (:10-:15)                                                                                            150                                
PGRFAMCHA060402060424062605002141Spiderman                                         EP: 10                                                        C02618 1065607E                                
PRCFAMCHA060402062605062610000005Astral ID (FEB05)                                                                                                           150                                
PROFAMCHA060402062610062625000015PB - 02 - SPACE/ROBOT/W.I.T.C.H. (NOV05) (:14 - 16                                                                          150                                
PRCFAMCHA060402062625062655000030xxMad Dash - GUIDE - Tomorrow starting @ 3pm                                                                                150                                
PROFAMCHA060402062655062727000032Power Rangers - SPD - He's Tough - Coming Up Next                                                                           150                                
PROFAMCHA060402062727062757000030Super Robot MTHG - Today @ 6:55am                                                                                           150                                
PRCFAMCHA060402062757062815000018Bullying (2005) (TTP - Kids) - Funk Dancer                                                                                  150                                
PROFAMCHA060402062815062845000030WITCH (PB) (APR06) - Today @ 7:20am                                                                                         150                                
ID FAMCHA060402062845062900000015xxPower Box Block Open (:10-:15)                                                                                            150                                
PGRFAMCHA060402062900065139002239Power Rangers Space Patrol Delta                  EP: 12                                                               6068607E                                
PROFAMCHA060402065139065154000015PB - 03 - ROBOT/W.I.T.C.H./LIZZIE (NOV05) (:14 - :                                                                          150                                
PROFAMCHA060402065154065224000030Super Robot MTHG - Coming Up Next                                                                                           150                                
PROFAMCHA060402065224065254000030WITCH (PB) (APR06) - Today @ 7:20am                                                                                         150                                
PROFAMCHA060402065254065324000030xxLizzie McGuire - (Romeo) (FEB06) (NSW/AM) - Toda                                                                          150                                
PROFAMCHA060402065324065343000019xxEven Stevens - What's Up (SEPT05) - (NSW) - Toda                                                                          150                                
ID FAMCHA060402065343065358000015xxPower Box Block Open (:10-:15)                                                                                            150                                
PGRFAMCHA060402065358071527002129Super Robot Monkey Team Hyperforce Go!            EP: 23                                                               2028607E                                
PRCFAMCHA060402071527071532000005Astral ID (FEB05)                                                                                                           150                                
PROFAMCHA060402071532071547000015PB - 04 - W.I.T.C.H./LIZZIE/SUITE (NOV05) (:14 - :                                                                          150                                
PRCFAMCHA060402071547071617000030xxMad Dash - GUIDE - Tomorrow starting @ 3pm                                                                                150                                
PROFAMCHA060402071617071647000030WITCH (PB) (APR06) - Coming Up Next                                                                                         150                                
PROFAMCHA060402071647071657000010FAMJAM - Open/Close                                                                                                         150                                
MVCFAMCHA060402071657071827000130MV Disney - (MD/NS/NSW) - We're All In This Togeth                                                                     6068808B                                
PROFAMCHA060402071827071841000014xxFAMJAM - Close (FAMILY) xxDNUxx                                                                                           150                                
PROFAMCHA060402071841071911000030xxLizzie McGuire - (Romeo) (FEB06) (NSW/AM) - Toda                                                                          150                                
PRCFAMCHA060402071911071941000030xxSuite Life of Zack & Cogy NSW This Morning @8:15                                                                          150                                
ID FAMCHA060402071941071956000015Nonstop Weekend Block Open (:14-:17)                                                                                        150                                
PGRFAMCHA060402071956074138002142W.I.T.C.H.                                        EP: 20                                                               2028607E                                
PROFAMCHA060402074138074153000015NSW - 02 - LIZZIE/SUITE/ZOEY (SEP05) (:14 - 16)                                                                             150                                
PROFAMCHA060402074153074223000030xxLizzie McGuire - (Romeo) (FEB06) (NSW) - Coming                                                                           150                                
PRCFAMCHA060402074223074302000039xxSuite Life of Zack & Cogy NSW This Morning @8:15                                                                          150                                
PRCFAMCHA060402074302074332000030xxPhil of the Future (NSW) (MAR06) - This Morning                                                                           150                                
PROFAMCHA060402074332074342000010FAMJAM - Open/Close                                                                                                         150                                
PGRFAMCHA060402074342074646000304MV Disney - (MD/NS/NSW) - Why Not (HILARY DUFF)                                                                        60688120                                
PROFAMCHA060402074646074700000014xxFAMJAM - Close (FAMILY) xxDNUxx                                                                                           150                                
PROFAMCHA060402074700074730000030Air Bud Spikes Back (WDP) - Today @ 12pm                                                                                    150                                
PRCFAMCHA060402074730074744000014Family Bumpers - (Phase 1 Spring 04) - Basketball                                                                           150                                
ID FAMCHA060402074744074759000015Nonstop Weekend Block Open (:14-:17)                                                                                        150                                
ID FAMCHA060402074759074807000008Magic of Disney - NS/NSW/PB - Shape (:06-:09)                                                                               150                                
PGRFAMCHA060402074807081042002235Lizzie McGuire                                    EP: 1-021                                                           A6068607B                                
PRCFAMCHA060402081042081047000005Astral ID (FEB05)                                                                                                           150                                
PROFAMCHA060402081047081102000015NSW - 03 - SUITE/ZOEY/RAVEN (SEP05) (:14 - 16)                                                                              150                                
PRCFAMCHA060402081102081132000030xxMad Dash - GUIDE - Tomorrow starting @ 3pm                                                                                150                                
PRCFAMCHA060402081132081202000030xxSuite Life of Zack & Cogy NSW Coming Up Next  Di                                                                          150                                
PROFAMCHA060402081202081246000044Chronicles of Narnia Blast - April 4 (March 27-Apr                                                                          150                                
PROFAMCHA060402081246081313000027xxZoey 101 - 123 LOGAN (NSW) (MAR06) Today @ 8:40a                                                                          150                                
PRCFAMCHA060402081313081343000030Nonstop Weekend - EVEN STEVENS - Gym Test                                                                                   150                                
PROFAMCHA060402081343081413000030xxThat's So Raven (OCT05) (NSW/AM) - Today @ 9:10a                                                                          150                                
PRCFAMCHA060402081413081443000030xxPhil of the Future (NSW) (MAR06) - This Morning                                                                           150                                
ID FAMCHA060402081443081458000015Nonstop Weekend Block Open (:14-:17)                                                                                        150                                
PGRFAMCHA060402081458083736002238Suite Life of Zack & Cody, The                    EP: 11                                                               6068607B                                
PROFAMCHA060402083736083751000015NSW - 04 - ZOEY/RAVEN/PHIL (SEP05) (:14 - 16)                                                                               150                                
PROFAMCHA060402083751083818000027xxZoey 101 - 123 LOGAN (NSW) (MAR06) Coming Up Nex                                                                          150                                
PGRFAMCHA060402083818084018000200xxMovie Surfers-The Wild-Intersti#2-Surfers Go Cur                                                                    A60688120                                
PROFAMCHA060402084018084048000030xxThat's So Raven (OCT05) (NSW/AM) - Today @ 9:10a                                                                          150                                
PGRFAMCHA060402084048084147000059Planet Rock Profiles - Beyonce (Solo) xxDNUxx     EP: 46                                                              A70687120                                
PRCFAMCHA060402084147084217000030xxPhil of the Future (NSW) (MAR06) - This Morning                                                                           150                                
PROFAMCHA060402084217084247000030Air Bud Spikes Back (WDP) - Today @ 12pm                                                                                    150                                
ID FAMCHA060402084247084302000015Nonstop Weekend Block Open (:14-:17)                                                                                        150                                
PROFAMCHA060402084302084311000009CC Disclaimer - FAST - Family.ca (:08-:10)                                                                                  150                                
PGRFAMCHA060402084311090543002232Zoey 101                                          EPS # 02                                                             2068807BCC                              
PRCFAMCHA060402090543090548000005Astral ID (FEB05)                                                                                                           150                                
PROFAMCHA060402090548090603000015NSW - 05 - RAVEN/PHIL/EVEN (SEP05) (:14 - 16)                                                                               150                                
PRCFAMCHA060402090603090633000030xxMad Dash - GUIDE - Tomorrow starting @ 3pm                                                                                150                                
PROFAMCHA060402090633090703000030xxThat's So Raven (OCT05) (NSW) - Coming Up Next                                                                            150                                
PRCFAMCHA060402090703090746000043Famous Players Popcorn Parties (Jan06)1xMD,2xNSPri                                                                          150                                
PRCFAMCHA060402090746090816000030xxPhil of the Future (NSW) (MAR06) - This Morning                                                                           150                                
PRCFAMCHA060402090816090833000017Naturally Sadie Web BBD - 2x daily NS/NSW                                                                                   150                                
PROFAMCHA060402090833090907000034xxEven Stevens - Corn Dog (SEPT05) - (NSW) - Today                                                                          150                                
PROFAMCHA060402090907090917000010FAMJAM - Open/Close                                                                                                         150                                
MVCFAMCHA060402090917091047000130MV Disney - (MD//NSNSW) - Walking On Sunshine (Aly                                                                     6068808B                                
PROFAMCHA060402091047091101000014xxFAMJAM - Close (FAMILY) xxDNUxx                                                                                           150                                
PROFAMCHA060402091101091131000030Air Bud Spikes Back (WDP) - Today @ 12pm                                                                                    150                                
PRCFAMCHA060402091131091145000014Bullying (2005) (TTP - Kids) - TaeKwonDo                                                                                    150                                
ID FAMCHA060402091145091200000015Nonstop Weekend Block Open (:14-:17)                                                                                        150                                
PGRFAMCHA060402091200093439002239That's So Raven                                   EPS # 1-043                                                          6068607B                                
PROFAMCHA060402093439093454000015NSW - 06 - PHIL/EVEN/BMW (SEP05) (:14 - 16)                                                                                 150                                
PRCFAMCHA060402093454093524000030xxPhil of the Future (NSW) (OCT05) - Coming Up Nex                                                                          150                                
PROFAMCHA060402093524093608000044Chronicles of Narnia Blast - April 4 (March 27-Apr                                                                          150                                
PROFAMCHA060402093608093642000034xxEven Stevens - Corn Dog (SEPT05) - (NSW) - Today                                                                          150                                
PROFAMCHA060402093642093718000036Chris Brown Blast Interstitial (mar 13 - mar 26)(M                                                                    A     150                                
PROFAMCHA060402093718093748000030Double Teamed (SEPT12) - Next Friday @ 7:30pm                                                                               150                                
PROFAMCHA060402093748093758000010FAMJAM - Open/Close                                                                                                         150                                
PGRFAMCHA060402093758093928000130MV Disney - Huckaroo (Pixel Perfect)                                                                                   60688120                                
PROFAMCHA060402093928093942000014xxFAMJAM - Close (FAMILY) xxDNUxx                                                                                           150                                
PROFAMCHA060402093942094013000031xxNed's DSSG - Cookie Clip (NSW) This Morning @ 11                                                                          150                                
PROFAMCHA060402094013094043000030Air Bud Spikes Back (WDP) - Today @ 12pm                                                                                    150                                
PRCFAMCHA060402094043094052000009Family Bumpers - (Phase 1 Spring 04) - Soccer (MD-                                                                          150                                
ID FAMCHA060402094052094106000014Nonstop Weekend Block Open (:14-:17)                                                                                        150                                
PGRFAMCHA060402094106100342002236Phil of the Future Yr 2                           EP: 26                                                               6028607B                                
PRCFAMCHA060402100342100347000005Astral ID (FEB05)                                                                                                           150                                
PROFAMCHA060402100347100402000015NSW - 07 - EVEN/BMW/NEDS (SEP05) (:14 - 16)                                                                                 150                                
PRCFAMCHA060402100402100432000030xxMad Dash - GUIDE - Tomorrow starting @ 3pm                                                                                150                                
PROFAMCHA060402100432100506000034xxEven Stevens - Bad Boys (NOV05) - (NSW) - Today                                                                           150                                
PROFAMCHA060402100506100542000036Chris Brown Blast Interstitial (mar 13 - mar 26)(M                                                                    A     150                                
PROFAMCHA060402100542100612000030Double Teamed (SEPT12) - Next Friday @ 7:30pm                                                                               150                                
PGRFAMCHA060402100612100712000100xxMovie Surfers - The Wild - Koala (Mar03-Apr16)                                                                      A60688120                                
PROFAMCHA060402100712100743000031xxNed's DSSG - Cookie Clip (NSW) This Morning @ 11                                                                          150                                
PGRFAMCHA060402100743100917000134Planet Rock Profiles - Nelly Furtado (Light)      EP: 46                                                              A70687120                                
PROFAMCHA060402100917100947000030Air Bud Spikes Back (WDP) - Today @ 12pm                                                                                    150                                
ID FAMCHA060402100947101002000015Nonstop Weekend Block Open (:14-:17)                                                                                        150                                
ID FAMCHA060402101002101010000008Magic of Disney - NS/NSW/PB - Wipe (:06-:09)                                                                                150                                
PROFAMCHA060402101010101019000009CC Disclaimer - FAST - Family.ca (:08-:10)                                                                                  150                                
PGRFAMCHA060402101019103255002236Even Stevens                                      EP: 2-026                                                           A6068807BCC                              
PROFAMCHA060402103255103310000015NSW - 08 - BMW/NEDS/BROTHERLY (SEP05) (:14 - 16)                                                                            150                                
PROFAMCHA060402103310103340000030Double Teamed (SEPT12) - Next Friday @ 7:30pm                                                                               150                                
PRCFAMCHA060402103340103418000038Bullying (2005) - Celebrity Pledge (1x, daily UNTI                                                                          150                                
PROFAMCHA060402103418103449000031xxNed's DSSG - Cookie Clip (NSW) This Morning @ 11                                                                          150                                
PRCFAMCHA060402103449103519000030xxBrotherly Love (JAN06) (NSW) - Neat - Today @ 11                                                                          150                                
PGRFAMCHA060402103519103640000121Planet Rock Profiles - Michelle Branch - First GigEP: 46                                                              A70687120                                
PROFAMCHA060402103640103710000030Air Bud Spikes Back (WDP) - Today @ 12pm                                                                                    150                                
PROFAMCHA060402103710103744000034xxSmart Guy (OCT05) (HAPPY DANCE) - (NSW) - Today                                                                           150                                
ID FAMCHA060402103744103759000015Nonstop Weekend Block Open (:14-:17)                                                                                        150                                
PROFAMCHA060402103759103808000009CC Disclaimer - FAST - Family.ca (:08-:10)                                                                                  150                                
PGRFAMCHA060402103808105943002135Boy Meets World                                   EP: 1-147                                                           B6068807BCC                              
PRCFAMCHA060402105943105948000005Astral ID (FEB05)                                                                                                           150                                
PROFAMCHA060402105948110003000015NSW - 09 - NEDS/BROTHERLY/WDP (SEP05) (:14 - 16)                                                                            150                                
PRCFAMCHA060402110003110033000030xxMad Dash - GUIDE - Tomorrow starting @ 3pm                                                                                150                                
PROFAMCHA060402110033110104000031xxNed's DSSG - Cookie Clip (NSW) Coming Up Next @                                                                           150                                
PRCFAMCHA060402110104110147000043Famous Players Popcorn Parties (Jan06)1xMD,2xNSPri                                                                          150                                
PRCFAMCHA060402110147110217000030xxBrotherly Love (JAN06) (NSW) - Neat - Today @ 11                                                                          150                                
PRCFAMCHA060402110217110246000029Life With Derek Web Promo                                                                                                   150                                
PROFAMCHA060402110246110316000030Air Bud Spikes Back (WDP) - Today @ 12pm                                                                                    150                                
PGRFAMCHA060402110316110411000055Planet Rock Profiles - Michelle Branch            EP: 46                                                              A70687120                                
PROFAMCHA060402110411110445000034xxSmart Guy (OCT05) (HAPPY DANCE) - (NSW) - Today                                                                           150                                
ID FAMCHA060402110445110500000015Nonstop Weekend Block Open (:14-:17)                                                                                        150                                
PROFAMCHA060402110500110509000009CC Disclaimer - FAST - Family.ca (:08-:10)                                                                                  150                                
PGRFAMCHA060402110509112936002427Ned's Declassified School Survival Guide          EPS # 12                                                             2068807BCC                              
PROFAMCHA060402112936112951000015NSW - 10 - BROTHERLY/WDP (SEP05) (:14 - 16)                                                                                 150                                
PRCFAMCHA060402112951113021000030xxBrotherly Love (JAN06) (NSW) - Coming Up Next                                                                             150                                
PROFAMCHA060402113021113057000036Chris Brown Blast Interstitial (mar 13 - mar 26)(M                                                                    A     150                                
PROFAMCHA060402113057113127000030Air Bud Spikes Back (WDP) - Today @ 12pm                                                                                    150                                
PROFAMCHA060402113127113201000034xxSmart Guy (OCT05) (HAPPY DANCE) - (NSW) - Today                                                                           150                                
PRCFAMCHA060402113201113231000030Nonstop Weekend - EVEN STEVENS - Gym Test                                                                                   150                                
PROFAMCHA060402113231113315000044Chronicles of Narnia Blast - April 4 (March 27-Apr                                                                          150                                
PROFAMCHA060402113315113345000030xxLizzie McGuire - (Romeo) (FEB06) (NSW/PM) - Toda                                                                          150                                
ID FAMCHA060402113345113359000014Nonstop Weekend Block Open (:14-:17)                                                                                        150                                
PGRFAMCHA060402113359115631002232Brotherly Love                                    EPS # 36                                                             6068807B                                
PRCFAMCHA060402115631115636000005Astral ID (FEB05)                                                                                                           150                                
PROFAMCHA060402115636115652000016Nonstop Weekend - 17(SEP) - WDP MOVIE (:14-:16)                                                                             150                                
PRCFAMCHA060402115652115722000030xxMad Dash - GUIDE - Tomorrow starting @ 3pm                                                                                150                                
PROFAMCHA060402115722115752000030Air Bud Spikes Back (WDP) - Coming Up Next                                                                                  150                                
PROFAMCHA060402115752115826000034xxSmart Guy (OCT05) (HAPPY DANCE) - (NSW) - Today                                                                           150                                
PGRFAMCHA060402115826115907000041Planet Rock Profiles - Ashanti (JLo)              EP: 46                                                              A70687120                                
PROFAMCHA060402115907115937000030xxLizzie McGuire - (Romeo) (FEB06) (NSW/PM) - Toda                                                                          150                                
PRCFAMCHA060402115937115943000006Family Bumpers - (Phase 2 F/W 04) - Gymnastics (MD                                                                          150                                
ID FAMCHA060402115943120000000017Weekend Double Pix Movie Open (:13-:17)                                                                                     150                                
ID FAMCHA060402120000120009000009Rating - G - (DEC05) (:08 - :10)                                                                                            150                                
PROFAMCHA060402120009120018000009CC Disclaimer - FAST - Family.ca (:08-:10)                                                                                  150                                
PGRFAMCHA060402120018132747012729Air Bud: Spikes Back                                                                                            C21538A1065807DCC                              
PROFAMCHA060402132747132803000016Nonstop Weekend - 17(SEP) - WDP MOVIE (:14-:16)                                                                             150                                
PROFAMCHA060402132803132837000034xxSmart Guy (OCT05) (HAPPY DANCE) - (NSW) - Today                                                                           150                                
PROFAMCHA060402132837132907000030xxLizzie McGuire - (Romeo) (FEB06) (NSW/PM) - Toda                                                                          150                                
PRCFAMCHA060402132907132937000030Nonstop Weekend - EVEN STEVENS - Gym Test                                                                                   150                                
PRCFAMCHA060402132937132944000007Aly & A.J. IDs - (A.J.) You're watching Family, NA                                                                          150                                
ID FAMCHA060402132944133000000016Weekend Double Pix Movie Open (:13-:17)                                                                                     150                                
ID FAMCHA060402133000133009000009Rating - PG - (DEC05) (:08 - :10)                                                                                           150                                
PGRFAMCHA060402133009145942012933Clifford                                                                                                              B2068807D                                
