PGRFAMCHA140501043000045231002231The Secret World of Benjamin Bear                 EP: 42                                                        C31763 1065607ECC                              
PROFAMCHA140501045231045238000007D-JR Live Action ID - Franny's Feet - Coming Up (M                                                                          150                                
PROFAMCHA140501045238045303000025D-JR Live Action ID - #15 Sidewalk Chalk (Sep2013)                                                                          150                                
PROFAMCHA140501045303045348000045D-JR OOB - Jake 341 - New Ep Sunday May 4 @ 11 (Ap                                                                          150                                
PROFAMCHA140501045348045418000030D-JR Promo - Henry Hugglemonster - Get More Henry                                                                           150                                
PROFAMCHA140501045418045500000042D-JR Promo - Bananas in Pajamas - Get more on the                                                                           150                                
PROFAMCHA140501045500045530000030D-JR OOB - Sofia 204 - New Ep Monday May 5 @ 6pm (                                                                          150                                
PROFAMCHA140501045530045555000025D-JR Live Action ID - #33 Feeding Birds (Sep2013)                                                                           150                                
PROFAMCHA140501045555045602000007D-JR Live Action ID - Franny's Feet - Now (May2012                                                                          150                                
PROFAMCHA140501045602045612000010D-JR - Hero Flex ID - Blue (:06-:10) (Feb2014)                                                                              150                                
PGRFAMCHA140501045612051845002233Franny's Feet                                     EP: 45                                                        C31292 1065607ECC                              
PROFAMCHA140501051845051852000007D-JR Live Action ID - SWOBB - Coming Up (May2012)                                                                           150                                
PROFAMCHA140501051852051917000025D-JR Live Action ID - #72 Family Tree Craft (Sept2                                                                          150                                
PROFAMCHA140501051917051952000035D-JR OOB - Jake vs Hook - Prems Sunday May 4 @ 9 (                                                                          150                                
PROFAMCHA140501051952052022000030D-JR Promo - Tickety Toc - Time to Chime - Get mor                                                                          150                                
PROFAMCHA140501052022052047000025D-JR Live Action ID - #39 Treasure Hunt (Sep2013)                                                                           150                                
PROFAMCHA140501052047052054000007D-JR Live Action ID - SWOBB - Now (May2012)                                                                                 150                                
PROFAMCHA140501052054052109000015D-JR - Daily ID - Thursday (Feb2014)                                                                                        150                                
PGRFAMCHA140501052109054340002231The Secret World of Benjamin Bear                 EP: 16                                                        C26066 1065607ECC                              
PROFAMCHA140501054340054347000007D-JR Live Action ID - Handy Manny - Coming Up (May                                                                          150                                
PROFAMCHA140501054347054412000025D-JR Live Action ID - #49 Making Lunch Routine (Ma                                                                          150                                
PROFAMCHA140501054412054422000010D-JR - Hero Flex ID - Green (:06-:10) (Feb2014)                                                                             150                                
PROFAMCHA140501054422054447000025D-JR Live Action ID - #25 Planting Pumpkins (Sep20                                                                          150                                
PROFAMCHA140501054447054454000007D-JR Live Action ID - Handy Manny - Now (May2012)                                                                           150                                
PGRFAMCHA140501054454060630002136Harry and His Bucket Full of Dinosaurs            EP: 13                                                        B05032 1065607ECC                              
PROFAMCHA140501060630060638000008D-JR Live Action ID - Stella & Sam - Coming Up (Ma                                                                          150                                
PROFAMCHA140501060638060703000025D-JR Live Action ID - #13 Make Bed (May2012)                                                                                150                                
PROFAMCHA140501060703060748000045D-JR OOB - Sheriff 104 New Ep Sunday May 4 @ 1135                                                                           150                                
PROFAMCHA140501060748060818000030D-JR Promo - MMCH - Get more MMCH on D-JR the chan                                                                          150                                
PROFAMCHA140501060818060918000100D-JR OOB - Mother's Week Stunt - All Week Long (Ap                                                                          150                                
PROFAMCHA140501060918060943000025D-JR Live Action ID - #71 Making Cards (Sept2012)                                                                           150                                
PROFAMCHA140501060943060951000008D-JR Live Action ID - Stella & Sam - Now (Mar2013)                                                                          150                                
PROFAMCHA140501060951061006000015D-JR - Seasonal ID - Spring (Mar 1-May 31)                                                                                  150                                
PGRFAMCHA140501061006063321002315Stella and Sam                                    EP: 03                                                        C32553 1065607ECD                              
PROFAMCHA140501063321063341000020Episodic Next Step (HD) 212 New Ep Tomorrow @ 730                                                                           150                                
PRCFAMCHA140501063341063431000050Stunt May the 4th (HD) (Apr23-May3)                                                                                         150                                
PROFAMCHA140501063431063459000028RDMA (HD) Prems Friday May 9 @ 615 (Apr25-May4)                                                                             150                                
PRCFAMCHA140501063459063512000013Family Flex Next (HD) ANT Farm - Jake (:12-:14) (A                                                                          150                                
PGRFAMCHA140501063512065728002216Disney A.N.T. Farm                                EP: 12                                                               6068607BCC                              
PRCFAMCHA140501065728065809000041Episodic Yoda Chronicles (HD) Premieres Sunday @ 1                                                                          150                                
PROFAMCHA140501065809065834000025Kellogg's                                                                                                                   150                                
PROFAMCHA140501065834065934000100Stunt What The What (HD) Continues Tomorrow @ 6 (M                                                                          150                                
PROFAMCHA140501065934065949000015Lego                                                                                                                        150                                
PRCFAMCHA140501065949070002000013Family Flex Next (HD) SIU - Zendaya (:12-:14) (Apr                                                                          150                                
PGRFAMCHA140501070002072219002217Disney Shake It Up                                EP: 11                                                               6068707BCC                              
PROFAMCHA140501072219072239000020Episodic Next Step (HD) 212 New Ep Tomorrow @ 730                                                                           150                                
PRCFAMCHA140501072239072317000038Web Next Step (HD) S2 Online Promo (Mar2014)                                                                                150                                
PROFAMCHA140501072317072417000100Sony Pictures                                                                                                               150                                
PRCFAMCHA140501072417072431000014Family Flex Next (HD) A&A Raini (Aug 2013) (:13-:1                                                                          150                                
PRCFAMCHA140501072431072512000041Episodic Yoda Chronicles (HD) Premieres Sunday @ 1                                                                          150                                
PGRFAMCHA140501072512074758002246Disney Austin & Ally                              EP: 19                                                               6068807BCC                              
PRCFAMCHA140501074758074848000050Stunt May the 4th (HD) (Apr23-May3)                                                                                         150                                
PROFAMCHA140501074848074948000100Entertainment One Licensing US Inc.                                                                                         150                                
PROFAMCHA140501074948075100000112RDMA Insider (HD) Prems Friday May 9 @ 615 (Apr27-                                                                          150CC                              
PRCFAMCHA140501075100075114000014Family Flex Next (HD) Jessie - Ravi (:12-:14) (Apr                                                                          150                                
PGRFAMCHA140501075114081347002233Disney Jessie                                     EP: 10                                                               6068807BCC                              
PRCFAMCHA140501081347081428000041Episodic Yoda Chronicles (HD) Premieres Sunday @ 1                                                                          150                                
PROFAMCHA140501081428081453000025Kellogg's                                                                                                                   150                                
PROFAMCHA140501081453081553000100Stunt What The What (HD) Continues Tomorrow @ 6 (M                                                                          150                                
PROFAMCHA140501081553081613000020Episodic Next Step (HD) 212 New Ep Tomorrow @ 730                                                                           150                                
PRCFAMCHA140501081613081630000017Family Bumper Flex (HD) Flex ID - ANT Farm (:16-:2                                                                          150                                
PROFAMCHA140501081630081710000040DXD Fangbone (HD) Premieres Sunday May 4 @ 730 (Ap                                                                          150                                
PROFAMCHA140501081710081733000023WOWP (HD) Harper - Coming Up Next (April 2013)                                                                              150                                
PROFAMCHA140501081733081801000028RDMA (HD) Prems Friday May 9 @ 615 (Apr25-May4)                                                                             150                                
PGRFAMCHA140501081801084035002234Disney Wizards of Waverly Place                   EP: 25                                                               6068607BCC                              
PROFAMCHA140501084035084043000008D-JR Live Action ID - Tickity Toc - Coming Up (Mar                                                                          150                                
PROFAMCHA140501084043084108000025D-JR Live Action ID - #11 Counting Goldfish (Sep20                                                                          150                                
PROFAMCHA140501084108084153000045D-JR OOB - Jake 341 - New Ep Sunday May 4 @ 11 (Ap                                                                          150                                
PROFAMCHA140501084153084238000045The Walt Disney Company                                                                                                     150                                
PROFAMCHA140501084238084330000052D-JR Promo - Doc McStuffins - Get more on the chan                                                                          150                                
PROFAMCHA140501084330084415000045D-JR OOB - Sheriff 104 New Ep Sunday May 4 @ 1135                                                                           150                                
PROFAMCHA140501084415084440000025D-JR Live Action ID - #90 Freeze Dance (Sep2013)                                                                            150                                
PROFAMCHA140501084440084448000008D-JR Live Action ID - Tickity Toc - Now (Mar2013)                                                                           150                                
PROFAMCHA140501084448084458000010D-JR - Hero Flex ID - Purple (:06-:10) (Feb2014)                                                                            150                                
PGRFAMCHA140501084458085613001115Tickety Toc                                       EP: 42                                                               3068605ACC                              
PGRFAMCHA140501085613090729001116Tickety Toc                                       EP: 43                                                               3068605ACC                              
PROFAMCHA140501090729090737000008D-JR Live Action ID - Little Einsteins - Coming Up                                                                          150                                
PROFAMCHA140501090737090802000025D-JR Live Action ID - #9 Ride A Bike (Sep2013)                                                                              150                                
PROFAMCHA140501090802090837000035D-JR OOB - Jake vs Hook - Prems Sunday May 4 @ 9 (                                                                          150                                
PROFAMCHA140501090837090912000035D-JR Promo - Bananas in Pajamas - Clip 1 - Get mor                                                                          150                                
PROFAMCHA140501090912091012000100D-JR OOB - Mother's Week Stunt - All Week Long (Ap                                                                          150                                
PROFAMCHA140501091012091037000025D-JR Live Action ID - #67 Play Dressup (Sep2013)                                                                            150                                
PROFAMCHA140501091037091045000008D-JR Live Action ID - Little Einsteins - Now (Nov2                                                                          150                                
PROFAMCHA140501091045091100000015D-JR - Monthly ID - May (May2014)                                                                                           150                                
PGRFAMCHA140501091100093501002401Disney's Little Einsteins                         EP: 39                                                               6068605A                                
PROFAMCHA140501093501093508000007D-JR Live Action ID - Handy Manny - Coming Up (May                                                                          150                                
PROFAMCHA140501093508093533000025D-JR Live Action ID - #88 Get Ready for Day At Bea                                                                          150                                
PROFAMCHA140501093533093618000045D-JR OOB - Sheriff 104 New Ep Sunday May 4 @ 1135                                                                           150                                
PROFAMCHA140501093618093643000025D-JR Live Action ID - #50 Feed Dog (Sep2013)                                                                                150                                
PROFAMCHA140501093643093650000007D-JR Live Action ID - Handy Manny - Now (May2012)                                                                           150                                
PROFAMCHA140501093650093700000010D-JR - Hero Flex ID - Yellow (:06-:10) (Feb2014)                                                                            150                                
PGRFAMCHA140501093700100100002400Handy Manny                                       EP: 12                                                               6068605ACC                              
PROFAMCHA140501100100100108000008D-JR Live Action ID - Jake & the Never Land Pirate                                                                          150                                
PROFAMCHA140501100108100133000025D-JR Live Action ID - #34 Hide N Seek (Sep2013)                                                                             150                                
PROFAMCHA140501100133100218000045D-JR OOB - Sheriff 104 New Ep Sunday May 4 @ 1135                                                                           150                                
PROFAMCHA140501100218100253000035D-JR Promo - Bananas in Pajamas - Clip 1 - Get mor                                                                          150                                
PROFAMCHA140501100253100323000030D-JR OOB - Sofia 204 - New Ep Monday May 5 @ 6pm (                                                                          150                                
PROFAMCHA140501100323100348000025D-JR Live Action ID - #39 Treasure Hunt (Sep2013)                                                                           150                                
PROFAMCHA140501100348100355000007D-JR Live Action ID - Jake & the Never Land Pirate                                                                          150                                
PROFAMCHA140501100355100410000015D-JR - Seasonal ID - Spring (Mar 1-May 31)                                                                                  150                                
PGRFAMCHA140501100410102816002406Disney Jake and the Never Land Pirates            EP: 11                                                               6028605A                                
PROFAMCHA140501102816102824000008D-JR Live Action ID - Sofia the First - Coming Up                                                                           150                                
PROFAMCHA140501102824102849000025D-JR Live Action ID - #28 Clapping Game (Sep2013)                                                                           150                                
PROFAMCHA140501102849102924000035D-JR OOB - Jake vs Hook - Prems Sunday May 4 @ 9 (                                                                          150                                
PROFAMCHA140501102924102949000025D-JR Live Action ID - #35 Nature Walk (Sep2013)                                                                             150                                
PROFAMCHA140501102949102957000008D-JR Live Action ID - Sofia the First - Now (Jan20                                                                          150                                
PROFAMCHA140501102957103007000010D-JR - Hero Flex ID - Green (:06-:10) (Feb2014)                                                                             150                                
PGRFAMCHA140501103007105308002301Disney Sofia the First                            EP: 21                                                               6068605ACC                              
PROFAMCHA140501105308105328000020Episodic Next Step (HD) 212 New Ep Tomorrow @ 730                                                                           150                                
PROFAMCHA140501105328105343000015ANT Farm (HD) Refresh CT - Coming Up Next (April 2                                                                          150                                
PROFAMCHA140501105343105428000045Episodic A&A (HD) 308 New Ep Wednesday @ 6 (May1-5                                                                          150                                
PGRFAMCHA140501105428105727000259MV Non Disney (HD) Megan Nicole - Never Wanna Let                                                                      20688120CC                              
PROFAMCHA140501105727105752000025Kellogg's                                                                                                                   150                                
PROFAMCHA140501105752105904000112RDMA Insider (HD) Prems Friday May 9 @ 615 (Apr27-                                                                          150CC                              
PRCFAMCHA140501105904105917000013Family Flex Next (HD) ANT Farm - Jake (:12-:14) (A                                                                          150                                
PRCFAMCHA140501105917110007000050Stunt May the 4th (HD) (Apr23-May3)                                                                                         150                                
PGRFAMCHA140501110007112323002316Disney A.N.T. Farm                                EP: 08                                                               6068607BCC                              
PRCFAMCHA140501112323112404000041Episodic Yoda Chronicles (HD) Premieres Sunday @ 1                                                                          150                                
PRCFAMCHA140501112404112418000014Family Flex Next (HD) Jessie - Luke (:12-:14) (Apr                                                                          150                                
PROFAMCHA140501112418112503000045DXD Super Strange Saturday (HD) Prems Saturday May                                                                          150                                
PGRFAMCHA140501112503112633000130ME (HD) Bears - Now In Theatres (Apr18-May2)                                                                           10615120CC                              
PROFAMCHA140501112633112658000025Kellogg's                                                                                                                   150                                
PROFAMCHA140501112658112733000035D-JR OOB - Jake vs Hook - Prems Sunday May 4 @ 9 (                                                                          150                                
PRCFAMCHA140501112733112757000024Family Bumper Flex (HD) Bike Trails (:20-:24) (Mar                                                                          150                                
PROFAMCHA140501112757112843000046Wall-E (HD) Prems Sunday Afternoon @ 1230 (Apr28-M                                                                          150                                
PRCFAMCHA140501112843112909000026Jessie (HD) Clip Promo - Coming Up Next (Oct2013)                                                                           150                                
PROFAMCHA140501112909113009000100Stunt What The What (HD) Continues Tomorrow @ 6 (M                                                                          150                                
PGRFAMCHA140501113009115241002232Disney Jessie                                     EP: 22                                                               6068807BCC                              
PROFAMCHA140501115241115301000020Episodic Next Step (HD) 212 New Ep Tomorrow @ 730                                                                           150                                
PROFAMCHA140501115301115339000038Wingin It (HD) Refresh Promo - Coming Up Next (Apr                                                                          150                                
PGRFAMCHA140501115339115538000159Dogs Rule! (HD) 102 High Diving Penguin (Apr25)                                                                        60688120                                
PROFAMCHA140501115538115608000030Win Lose or Draw (HD) Gen 1 - New Ep Tonight @ 7pm                                                                          150                                
PROFAMCHA140501115608115708000100Entertainment One Licensing US Inc.                                                                                         150                                
PRCFAMCHA140501115708115748000040Gaming Show (HD) Prems Saturday @ 11 (Apr28-May1)                                                                           150                                
PRCFAMCHA140501115748115802000014Family Bumper Flex (HD) Flex ID - WUW (May2012) (:                                                                          150                                
PROFAMCHA140501115802115817000015Lego                                                                                                                        150                                
PROFAMCHA140501115817115845000028RDMA (HD) Prems Friday May 9 @ 615 (Apr25-May4)                                                                             150                                
PROFAMCHA140501115845115923000038Wingin It (HD) Refresh Promo - Coming Up Next (Apr                                                                          150                                
PRCFAMCHA140501115923120013000050Stunt May the 4th (HD) (Apr23-May3)                                                                                         150                                
PGRFAMCHA140501120013122246002233Wingin' It                                        EP: 27                                                        C32727 1065607ACD                              
PROFAMCHA140501122246122346000100Stunt What The What (HD) Continues Tomorrow @ 6 (M                                                                          150                                
PROFAMCHA140501122346122405000019WOWP (HD) Clip Bad Time - Coming Up Next (April 20                                                                          150                                
PROFAMCHA140501122405122450000045Episodic A&A (HD) 308 New Ep Wednesday @ 6 (May1-5                                                                          150                                
PGRFAMCHA140501122450122620000130MV Disney (HD) Olivia Holt - Carry On (Apr10-May19                                                                     10615120CC                              
PROFAMCHA140501122620122645000025Kellogg's                                                                                                                   150                                
PROFAMCHA140501122645122730000045WOY (HD) Sylvia - Check Family.ca for showtimes (F                                                                          150                                
PROFAMCHA140501122730122830000100D-JR OOB - Mother's Week Stunt - All Week Long (Ap                                                                          150                                
PRCFAMCHA140501122830122840000010Family Bumper (HD) - Bobbleheads ID (Jan 2011)                                                                              150                                
PROFAMCHA140501122840122926000046Wall-E (HD) Prems Sunday Afternoon @ 1230 (Apr28-M                                                                          150                                
PROFAMCHA140501122926122932000006WOWP (HD) ID - Jennifer Stone 1 "Coming Up Next" (                                                                          150                                
PRCFAMCHA140501122932123013000041Episodic Yoda Chronicles (HD) Premieres Sunday @ 1                                                                          150                                
PGRFAMCHA140501123013125245002232Disney Wizards of Waverly Place                   EP: 01                                                               6068607BCC                              
PRCFAMCHA140501125245125335000050Stunt May the 4th (HD) (Apr23-May3)                                                                                         150                                
PROFAMCHA140501125335125341000006WOWP (HD) ID - Jennifer Stone 2 "Coming Up Next" (                                                                          150                                
PROFAMCHA140501125341125411000030Win Lose or Draw (HD) Gen 2 - New Ep Tonight @ 7pm                                                                          150                                
PROFAMCHA140501125411125511000100Entertainment One Licensing US Inc.                                                                                         150                                
PROFAMCHA140501125511125551000040DXD Fangbone (HD) Premieres Sunday May 4 @ 730 (Ap                                                                          150                                
PGRFAMCHA140501125551125736000145ME (HD) Rio 2 - Now In Theatres (Apr17-May1)                                                                           10615120CC                              
PROFAMCHA140501125736125751000015Web PAF Online Game (HD) Play games on family.ca (                                                                          150                                
PRCFAMCHA140501125751125809000018Family Bumper Flex (HD) Flex ID - ANT Farm (:16-:2                                                                          150                                
PROFAMCHA140501125809125921000112RDMA Insider (HD) Prems Friday May 9 @ 615 (Apr27-                                                                          150CC                              
PROFAMCHA140501125921125944000023WOWP (HD) Harper - Coming Up Next (April 2013)                                                                              150                                
PROFAMCHA140501125944130004000020Episodic Next Step (HD) 212 New Ep Tomorrow @ 730                                                                           150                                
PGRFAMCHA140501130004132238002234Disney Wizards of Waverly Place                   EP: 25                                                               6068607BCC                              
PRCFAMCHA140501132238132319000041Episodic Yoda Chronicles (HD) Premieres Sunday @ 1                                                                          150                                
PROFAMCHA140501132319132325000006GLC (HD) ID - Bridget Mendler 4 "Coming Up Next" (                                                                          150                                
PGRFAMCHA140501132325132611000246MV Disney (HD) Sabrina Carpenter - Can't Blame A G                                                                     10615120                                
PROFAMCHA140501132611132711000100Entertainment One Licensing US Inc.                                                                                         150                                
PROFAMCHA140501132711132756000045D-JR OOB - Sheriff 104 New Ep Sunday May 4 @ 1135                                                                           150                                
PRCFAMCHA140501132756132817000021Family Bumper Flex (HD) Break Dance (:18-:21) (Mar                                                                          150                                
PROFAMCHA140501132817132903000046Wall-E (HD) Prems Sunday Afternoon @ 1230 (Apr28-M                                                                          150                                
PROFAMCHA140501132903132908000005GLC (HD) ID - Bradley Perry 6 "Coming Up Next" (ge                                                                          150                                
PROFAMCHA140501132908133008000100Stunt What The What (HD) Continues Tomorrow @ 6 (M                                                                          150                                
PGRFAMCHA140501133008135143002135Disney Good Luck Charlie                          EP: 29                                                               6068807BCC                              
PROFAMCHA140501135143135203000020Episodic Next Step (HD) 212 New Ep Tomorrow @ 730                                                                           150                                
PROFAMCHA140501135203135208000005GLC (HD) ID - Jason Dolley 3 "Coming Up Next" (gen                                                                          150                                
PGRFAMCHA140501135208135615000407MV Non Disney (HD) Virginia To Vegas - We Are Star                                                                     10615120CC                              
PROFAMCHA140501135615135645000030Win Lose or Draw (HD) Gen 1 - New Ep Tonight @ 7pm                                                                          150                                
PRCFAMCHA140501135645135653000008Family Bumper (HD) - Origami ID (Jan 2011)                                                                                  150                                
PRCFAMCHA140501135653135733000040Gaming Show (HD) Prems Saturday @ 11 (Apr28-May1)                                                                           150                                
PGRFAMCHA140501135733135830000057SYN (HD) Olaf's Snow Jamz (Mar26-May11)                                                                                10615120CC                              
PROFAMCHA140501135830135858000028RDMA (HD) Prems Friday May 9 @ 615 (Apr25-May4)                                                                             150                                
PROFAMCHA140501135858135923000025GLC Promo 1 (HD) Coming Up Next (Sep2013)                                                                                   150                                
PRCFAMCHA140501135923140013000050Stunt May the 4th (HD) (Apr23-May3)                                                                                         150                                
PGRFAMCHA140501140013142401002348Good Luck Charlie                                 EP: 01                                                               6068807BCC                              
PROFAMCHA140501142401142501000100Stunt What The What (HD) Continues Tomorrow @ 6 (M                                                                          150                                
PRCFAMCHA140501142501142515000014Family Flex Next (HD) SIU - Adam (:12-:14) (Apr201                                                                          150                                
PROFAMCHA140501142515142545000030Win Lose or Draw (HD) Gen 2 - New Ep Tonight @ 7pm                                                                          150                                
PROFAMCHA140501142545142630000045DXD Super Strange Saturday (HD) Prems Saturday May                                                                          150                                
PROFAMCHA140501142630142645000015Lego                                                                                                                        150                                
PROFAMCHA140501142645142731000046Wall-E (HD) Prems Sunday Afternoon @ 1230 (Apr28-M                                                                          150                                
PRCFAMCHA140501142731142758000027Family Bumper Flex (HD) Flex ID - Austin & Ally (F                                                                          150                                
PROFAMCHA140501142758142828000030D-JR OOB - Sofia 204 - New Ep Monday May 5 @ 6pm (                                                                          150                                
PGRFAMCHA140501142828142858000030SYN (HD) Muppets - More (Apr10-May2)                                                                                   10615120CC                              
PROFAMCHA140501142858142928000030Shake It Up (HD) Flynn Sell - Coming Up Next (Jun2                                                                          150                                
PRCFAMCHA140501142928143009000041Episodic Yoda Chronicles (HD) Premieres Sunday @ 1                                                                          150                                
PGRFAMCHA140501143009145212002203Disney Shake It Up                                EP: 17                                                               6068707BCC                              
PRCFAMCHA140501145212145302000050Stunt May the 4th (HD) (Apr23-May3)                                                                                         150                                
PRCFAMCHA140501145302145316000014Family Flex Next (HD) SIU - Zendaya (:12-:14) (Apr                                                                          150                                
PROFAMCHA140501145316145401000045Episodic A&A (HD) 308 New Ep Wednesday @ 6 (May1-5                                                                          150                                
PGRFAMCHA140501145401145735000334MV Non Disney (HD) Cody Simpson ft Ziggy Marley -                                                                      10615120CC                              
PROFAMCHA140501145735145800000025Kellogg's                                                                                                                   150                                
PRCFAMCHA140501145800145819000019Family Bumper Flex (HD) Dog Park (:19-:21) (Mar201                                                                          150                                
PROFAMCHA140501145819145931000112RDMA Insider (HD) Prems Friday May 9 @ 615 (Apr27-                                                                          150CC                              
PRCFAMCHA140501145931145944000013Family Flex Next (HD) SIU - Rashawn (:12-:13) (Apr                                                                          150                                
PROFAMCHA140501145944150004000020Episodic Next Step (HD) 212 New Ep Tomorrow @ 730                                                                           150                                
PGRFAMCHA140501150004152222002218Disney Shake It Up                                EP: 11                                                               6068707BCC                              
PRCFAMCHA140501152222152303000041Episodic Yoda Chronicles (HD) Premieres Sunday @ 1                                                                          150                                
PRCFAMCHA140501152303152317000014Family Flex Next (HD) ANT Farm - Jake (:12-:14) (A                                                                          150                                
PGRFAMCHA140501152317152616000259MV Non Disney (HD) Megan Nicole - Never Wanna Let                                                                      20688120CC                              
PROFAMCHA140501152616152631000015Lego                                                                                                                        150                                
PRCFAMCHA140501152631152711000040Gaming Show (HD) Prems Saturday @ 11 (Apr28-May1)                                                                           150                                
PRCFAMCHA140501152711152726000015Family Bumper (HD) - Hot Potato ID (Jan 2011)                                                                               150                                
PROFAMCHA140501152726152751000025Kellogg's                                                                                                                   150                                
PROFAMCHA140501152751152837000046Wall-E (HD) Prems Sunday Afternoon @ 1230 (Apr28-M                                                                          150                                
PROFAMCHA140501152837152910000033ANT Farm (HD) Refresh - Coming Up Next (Jun2013)                                                                            150                                
PROFAMCHA140501152910153010000100Stunt What The What (HD) Continues Tomorrow @ 6 (M                                                                          150                                
PGRFAMCHA140501153010155226002216Disney A.N.T. Farm                                EP: 12                                                               6068607BCC                              
PROFAMCHA140501155226155246000020Episodic Next Step (HD) 212 New Ep Tomorrow @ 730                                                                           150                                
PROFAMCHA140501155246155303000017PAF (HD) Disney Refresh CD - Coming Up Next (April                                                                          150                                
PGRFAMCHA140501155303155628000325MV Non Disney (HD) iSH - Light Up (Apr23-Jul22)                                                                        10615120                                
PROFAMCHA140501155628155658000030Win Lose or Draw (HD) Gen 1 - New Ep Tonight @ 7pm                                                                          150                                
PROFAMCHA140501155658155758000100Sony Pictures                                                                                                               150                                
PRCFAMCHA140501155758155815000017Family Bumper Flex (HD) Flex ID - Jessie ID (:15-:                                                                          150                                
PROFAMCHA140501155815155843000028RDMA (HD) Prems Friday May 9 @ 615 (Apr25-May4)                                                                             150                                
PROFAMCHA140501155843155928000045PAF Secret Agent (HD) Coming Up Next (Jan2014)                                                                              150                                
PRCFAMCHA140501155928160018000050Stunt May the 4th (HD) (Apr23-May3)                                                                                         150                                
PGRFAMCHA140501160018162249002231Disney Phineas & Ferb                             EP: 34                                                               6068607ECC                              
PROFAMCHA140501162249162334000045DXD PAF (HD) Secret Agent - Get More PAF on DXD (M                                                                          150                                
PRCFAMCHA140501162334162349000015Family Flex Next (HD) DWAB Ghannelius (Aug 2013) (                                                                          150                                
PROFAMCHA140501162349162419000030Win Lose or Draw (HD) Gen 2 - New Ep Tonight @ 7pm                                                                          150                                
PROFAMCHA140501162419162519000100Stunt What The What (HD) Continues Tomorrow @ 6 (M                                                                          150                                
PROFAMCHA140501162519162619000100Sony Pictures                                                                                                               150                                
PROFAMCHA140501162619162659000040DXD Fangbone (HD) Premieres Sunday May 4 @ 730 (Ap                                                                          150                                
PRCFAMCHA140501162659162721000022Family Bumper Flex (HD) Fifteen Logos (:21-:22) (N                                                                          150                                
PGRFAMCHA140501162721162851000130ME (HD) Bears - Now In Theatres (Apr18-May2)                                                                           10615120CC                              
PROFAMCHA140501162851162906000015Web A&A Online Game (HD) Play Games at family.ca (                                                                          150                                
PRCFAMCHA140501162906162916000010Glaxo Smith Kline (PHD)                                                                                                     150                                
PRCFAMCHA140501162916162937000021DWAB Tango Refresh (HD) Coming Up Next (Mar2014)                                                                            150                                
PRCFAMCHA140501162937163018000041Episodic Yoda Chronicles (HD) Premieres Sunday @ 1                                                                          150                                
PGRFAMCHA140501163018165205002147Disney Dog with a Blog                            EP: 10                                                               6068807BCC                              
PRCFAMCHA140501165205165255000050Stunt May the 4th (HD) (Apr23-May3)                                                                                         150                                
PRCFAMCHA140501165255165309000014Family Flex Next (HD) Jessie - Zuri (:12-:14) (Apr                                                                          150                                
PGRFAMCHA140501165309165643000334MV Universal (HD) Jess Moskaluke - Catch Me If You                                                                     10615120CC                              
PROFAMCHA140501165643165743000100Sony Pictures                                                                                                               150                                
PRCFAMCHA140501165743165754000011Family Bumper Flex (HD) Flex ID - WUW (May2012) (:                                                                          150                                
PRCFAMCHA140501165754165804000010Glaxo Smith Kline (PHD)                                                                                                     150                                
PROFAMCHA140501165804165916000112RDMA Insider (HD) Prems Friday May 9 @ 615 (Apr27-                                                                          150CC                              
PRCFAMCHA140501165916165942000026Jessie (HD) Clip Promo - Coming Up Next (Oct2013)                                                                           150                                
PROFAMCHA140501165942170002000020Episodic Next Step (HD) 212 New Ep Tomorrow @ 730                                                                           150                                
PGRFAMCHA140501170002172235002233Disney Jessie                                     EP: 10                                                               6068807BCC                              
PRCFAMCHA140501172235172316000041Episodic Yoda Chronicles (HD) Premieres Sunday @ 1                                                                          150                                
PRCFAMCHA140501172316172329000013Family Flex Next (HD) Jessie - Emma (:12-:14) (Mar                                                                          150                                
PGRFAMCHA140501172329172659000330Mickey Mouse Shorts (HD) 1-19 Tapped Out (Jan24)                                                                       60688120                                
PROFAMCHA140501172659172729000030Win Lose or Draw (HD) Gen 1 - New Ep Tonight @ 7pm                                                                          150                                
PROFAMCHA140501172729172754000025Kellogg's                                                                                                                   150                                
PRCFAMCHA140501172754172808000014Family Bumper Flex (HD) Flex ID - Music ID (:14-:1                                                                          150                                
PROFAMCHA140501172808172854000046Wall-E (HD) Prems Sunday Afternoon @ 1230 (Apr28-M                                                                          150                                
PRCFAMCHA140501172854172906000012Family Flex Next (HD) Jessie - Jessie  (:12-:14) (                                                                          150                                
PROFAMCHA140501172906173006000100Stunt What The What (HD) Continues Tomorrow @ 6 (M                                                                          150                                
PGRFAMCHA140501173006175239002233Disney Jessie                                     EP: 22                                                               6068807BCC                              
PROFAMCHA140501175239175259000020Episodic Next Step (HD) 212 New Ep Tomorrow @ 730                                                                           150                                
PRCFAMCHA140501175259175313000014Family Flex Next (HD) A&A - Laura (:12-:14) (Apr20                                                                          150                                
PRCFAMCHA140501175313175353000040Gaming Show (HD) Prems Saturday @ 11 (Apr28-May1)                                                                           150                                
PROFAMCHA140501175353175453000100Entertainment One Licensing US Inc.                                                                                         150                                
PRCFAMCHA140501175453175511000018Family Bumper Flex (HD) Flip Book (:15-:18) (Nov 2                                                                          150                                
PROFAMCHA140501175511175556000045WOY (HD) Sylvia - Check Family.ca for showtimes (F                                                                          150                                
PGRFAMCHA140501175556175741000145ME (HD) Rio 2 - Now In Theatres (Apr17-May1)                                                                           10615120CC                              
PROFAMCHA140501175741175826000045DXD Super Strange Saturday (HD) Prems Saturday May                                                                          150                                
PROFAMCHA140501175826175909000043Austin & Ally (HD) Bud Sell Refresh - Coming Up Ne                                                                          150                                
PRCFAMCHA140501175909175959000050Stunt May the 4th (HD) (Apr23-May3)                                                                                         150                                
PGRFAMCHA140501175959182245002246Disney Austin & Ally                              EP: 19                                                               6068807BCC                              
PROFAMCHA140501182245182345000100Stunt What The What (HD) Continues Tomorrow @ 6 (M                                                                          150                                
PRCFAMCHA140501182345182358000013Family Flex Next (HD) A&A - Laura (:12-:14) (Apr20                                                                          150                                
PGRFAMCHA140501182358182644000246MV Disney (HD) Sabrina Carpenter - Can't Blame A G                                                                     10615120                                
PROFAMCHA140501182644182714000030Win Lose or Draw (HD) Gen 1 - New Ep Tonight @ 7pm                                                                          150                                
PROFAMCHA140501182714182800000046Wall-E (HD) Prems Sunday Afternoon @ 1230 (Apr28-M                                                                          150                                
PROFAMCHA140501182800182825000025Kellogg's                                                                                                                   150                                
PRCFAMCHA140501182825182834000009Family Bumper (HD) - Dragonflies ID (Jan 2011)                                                                              150                                
PROFAMCHA140501182834182902000028RDMA (HD) Prems Friday May 9 @ 615 (Apr25-May4)                                                                             150                                
PRCFAMCHA140501182902182915000013Family Flex Next (HD) A&A Raini (Aug 2013) (:13-:1                                                                          150                                
PRCFAMCHA140501182915182956000041Episodic Yoda Chronicles (HD) Premieres Sunday @ 1                                                                          150                                
PGRFAMCHA140501182956185242002246Disney Austin & Ally                              EP: 14                                                               6068807BCC                              
PROFAMCHA140501185242185327000045Episodic A&A (HD) 308 New Ep Wednesday @ 6 (May1-5                                                                          150                                
PROFAMCHA140501185327185357000030Win Lose or Draw (HD) Gen 1 - New Ep Coming Up Nex                                                                          150                                
PGRFAMCHA140501185357185727000330Mickey Mouse Shorts (HD) 1-17 The Adorable Couple                                                                      60688120                                
PROFAMCHA140501185727185827000100Entertainment One Licensing US Inc.                                                                                         150                                
PRCFAMCHA140501185827185841000014Family Bumper Flex (HD) Flex ID - Wingin It (Apr20                                                                          150                                
PROFAMCHA140501185841185911000030Win Lose or Draw (HD) Gen 2 - New Ep Coming Up Nex                                                                          150                                
PRCFAMCHA140501185911190001000050Stunt May the 4th (HD) (Apr23-May3)                                                                                         150                                
PGRFAMCHA140501190001190647000646Disney Win, Lose or Draw                          EP: 27                                                               6028807BCC                              
PRCFAMCHA140501190647190728000041Episodic Yoda Chronicles (HD) Premieres Sunday @ 1                                                                          150                                
PGRFAMCHA140501190728191428000700Disney Win, Lose or Draw                          EP: 27                                                               6028807BCC                              
PROFAMCHA140501191428191528000100Stunt What The What (HD) Continues Tomorrow @ 6 (M                                                                          150                                
PGRFAMCHA140501191528192058000530Disney Win, Lose or Draw                          EP: 27                                                               6028807BCC                              
PROFAMCHA140501192058192118000020Episodic Next Step (HD) 212 New Ep Tomorrow @ 730                                                                           150                                
PGRFAMCHA140501192118192435000317Disney Win, Lose or Draw                          EP: 27                                                               6028807BCC                              
PRCFAMCHA140501192435192501000026Next Step Dancing Is (HD) West - Coming Up Next (M                                                                          150                                
PROFAMCHA140501192501192547000046Wall-E (HD) Prems Sunday Afternoon @ 1230 (Apr28-M                                                                          150                                
PROFAMCHA140501192547192602000015Lego                                                                                                                        150                                
PROFAMCHA140501192602192617000015Web ANT Farm Online Game (HD) Play games on family                                                                          150                                
PRCFAMCHA140501192617192638000021Family Bumper Flex (HD) Garage Band (:17-:21) (Nov                                                                          150                                
PGRFAMCHA140501192638192735000057SYN (HD) Bears - Paw Prints (Apr10-May19)                                                                              10615120CC                              
PROFAMCHA140501192735192835000100Sony Pictures                                                                                                               150                                
PROFAMCHA140501192835192915000040DXD Fangbone (HD) Premieres Sunday May 4 @ 730 (Ap                                                                          150                                
PRCFAMCHA140501192915192944000029Next Step Season 2 (HD) Premise - Coming Up Next (                                                                          150                                
PROFAMCHA140501192944193012000028RDMA (HD) Prems Friday May 9 @ 615 (Apr25-May4)                                                                             150                                
PGRFAMCHA140501193012195259002247The Next Step                                     EP: 11                                                        A36426 1055607ACD3                             
PROFAMCHA140501195259195319000020Episodic Next Step (HD) 212 New Ep Tomorrow @ 730                                                                           150                                
PROFAMCHA140501195319195325000006GLC (HD) ID - Bridget Mendler 6 "Coming Up Next" (                                                                          150                                
PGRFAMCHA140501195325195539000214Short GF Mabel's Guide (HD) 07 To Art (Apr18)                                                                          60688120                                
PRCFAMCHA140501195539195610000031Family Bumper Flex (HD) Flex ID - Austin & Ally (F                                                                          150                                
PGRFAMCHA140501195610195740000130ME (HD) Bears - Now In Theatres (Apr18-May2)                                                                           10615120CC                              
PROFAMCHA140501195740195852000112RDMA Insider (HD) Prems Friday May 9 @ 615 (Apr27-                                                                          150CC                              
PROFAMCHA140501195852195911000019GLC Promo 2 (HD) Coming Up Next (Sep2013)                                                                                   150                                
PRCFAMCHA140501195911200001000050Stunt May the 4th (HD) (Apr23-May3)                                                                                         150                                
PGRFAMCHA140501200001202351002350Good Luck Charlie                                 EP: 01                                                               6068807BCC                              
PRCFAMCHA140501202351202432000041Episodic Yoda Chronicles (HD) Premieres Sunday @ 1                                                                          150                                
PRCFAMCHA140501202432202446000014Family Flex Next (HD) ANT Farm - Jake (:12-:14) (A                                                                          150                                
PRCFAMCHA140501202446202526000040Gaming Show (HD) Prems Saturday @ 11 (Apr28-May1)                                                                           150                                
PROFAMCHA140501202526202612000046Wall-E (HD) Prems Sunday Afternoon @ 1230 (Apr28-M                                                                          150                                
PGRFAMCHA140501202612202742000130MV Disney (HD) Olivia Holt - Carry On (Apr10-May19                                                                     10615120CC                              
PRCFAMCHA140501202742202752000010Glaxo Smith Kline (PHD)                                                                                                     150                                
PRCFAMCHA140501202752202802000010Family Bumper (HD) - Bobbleheads ID (Jan 2011)                                                                              150                                
PROFAMCHA140501202802202847000045Episodic A&A (HD) 308 New Ep Wednesday @ 6 (May1-5                                                                          150                                
PROFAMCHA140501202847202902000015ANT Farm (HD) Refresh CT - Coming Up Next (April 2                                                                          150                                
PROFAMCHA140501202902203002000100Stunt What The What (HD) Continues Tomorrow @ 6 (M                                                                          150                                
PGRFAMCHA140501203002205321002319Disney A.N.T. Farm                                EP: 08                                                               6068607BCC                              
PRCFAMCHA140501205321205411000050Stunt May the 4th (HD) (Apr23-May3)                                                                                         150                                
PROFAMCHA140501205411205449000038Wingin It (HD) Refresh Promo - Coming Up Next (Apr                                                                          150                                
PROFAMCHA140501205449205514000025Kellogg's                                                                                                                   150                                
PGRFAMCHA140501205514205659000145ME (HD) Rio 2 - Now In Theatres (Apr17-May1)                                                                           10615120CC                              
PRCFAMCHA140501205659205720000021Family Bumper Flex (HD) Longboard (:19-:21) (Mar20                                                                          150                                
PGRFAMCHA140501205720205814000054SYN (HD) DC on Set: Capt America 2: Reassembled (p                                                                     10615120CC                              
PRCFAMCHA140501205814205824000010Glaxo Smith Kline (PHD)                                                                                                     150                                
PROFAMCHA140501205824205852000028RDMA (HD) Prems Friday May 9 @ 615 (Apr25-May4)                                                                             150                                
PROFAMCHA140501205852205930000038Wingin It (HD) Refresh Promo - Coming Up Next (Apr                                                                          150                                
PROFAMCHA140501205930205950000020Episodic Next Step (HD) 212 New Ep Tomorrow @ 730                                                                           150                                
PGRFAMCHA140501205950212221002231Wingin' It                                        EP: 02                                                        C32727 1065607ACD                              
PROFAMCHA140501212221212321000100Stunt What The What (HD) Continues Tomorrow @ 6 (M                                                                          150                                
PRCFAMCHA140501212321212350000029Next Step Dancing Is (HD) Michelle - Coming Up Nex                                                                          150                                
PROFAMCHA140501212350212436000046Wall-E (HD) Prems Sunday Afternoon @ 1230 (Apr28-M                                                                          150                                
PGRFAMCHA140501212436212735000259MV Non Disney (HD) Megan Nicole - Never Wanna Let                                                                      20688120CC                              
PROFAMCHA140501212735212800000025Kellogg's                                                                                                                   150                                
PROFAMCHA140501212800212845000045DXD Super Strange Saturday (HD) Prems Saturday May                                                                          150                                
PRCFAMCHA140501212845212853000008Family Bumper (HD) - Origami ID (Jan 2011)                                                                                  150                                
PRCFAMCHA140501212853212919000026Next Step Dancing Is (HD) James - Coming Up Next (                                                                          150                                
PRCFAMCHA140501212919213000000041Episodic Yoda Chronicles (HD) Premieres Sunday @ 1                                                                          150                                
PGRFAMCHA140501213000215247002247The Next Step                                     EP: 01                                                        A36426 1015607ACD3                             
PROFAMCHA140501215247215307000020Episodic Next Step (HD) 212 New Ep Tomorrow @ 730                                                                           150                                
PROFAMCHA140501215307215332000025GLC Promo 1 (HD) Coming Up Next (Sep2013)                                                                                   150                                
PGRFAMCHA140501215332215657000325MV Non Disney (HD) iSH - Light Up (Apr23-Jul22)                                                                        10615120                                
PRCFAMCHA140501215657215707000010Glaxo Smith Kline (PHD)                                                                                                     150                                
PRCFAMCHA140501215707215725000018Family Bumper Flex (HD) Flex ID - Jessie ID (:15-:                                                                          150                                
PROFAMCHA140501215725215750000025Kellogg's                                                                                                                   150                                
PROFAMCHA140501215750215902000112RDMA Insider (HD) Prems Friday May 9 @ 615 (Apr27-                                                                          150CC                              
PROFAMCHA140501215902215907000005GLC (HD) ID - Bradley Perry 5 "Coming Up Next" (ge                                                                          150                                
PRCFAMCHA140501215907215957000050Stunt May the 4th (HD) (Apr23-May3)                                                                                         150                                
PGRFAMCHA140501215957222131002134Disney Good Luck Charlie                          EP: 29                                                               6068807BCC                              
PRCFAMCHA140501222131222212000041Episodic Yoda Chronicles (HD) Premieres Sunday @ 1                                                                          150                                
PRCFAMCHA140501222212222226000014Family Flex Next (HD) Jessie - Emma (:12-:14) (Mar                                                                          150                                
PGRFAMCHA140501222226222512000246MV Disney (HD) Sabrina Carpenter - Can't Blame A G                                                                     10615120                                
PRCFAMCHA140501222512222552000040Gaming Show (HD) Prems Saturday @ 11 (Apr28-May1)                                                                           150                                
PROFAMCHA140501222552222638000046Wall-E (HD) Prems Sunday Afternoon @ 1230 (Apr28-M                                                                          150                                
PRCFAMCHA140501222638222648000010Glaxo Smith Kline (PHD)                                                                                                     150                                
PROFAMCHA140501222648222733000045D-JR OOB - Jake 341 - New Ep Sunday May 4 @ 11 (Ap                                                                          150                                
PRCFAMCHA140501222733222754000021Family Bumper Flex (HD) Trampoline (:15-:21) (Mar2                                                                          150                                
PROFAMCHA140501222754222834000040DXD Fangbone (HD) Premieres Sunday May 4 @ 730 (Ap                                                                          150                                
PRCFAMCHA140501222834222900000026Jessie (HD) Clip Promo - Coming Up Next (Oct2013)                                                                           150                                
PROFAMCHA140501222900223000000100Stunt What The What (HD) Continues Tomorrow @ 6 (M                                                                          150                                
PGRFAMCHA140501223000225235002235Disney Jessie                                     EP: 10                                                               6068807BCC                              
PRCFAMCHA140501225235225325000050Stunt May the 4th (HD) (Apr23-May3)                                                                                         150                                
PROFAMCHA140501225325225344000019WOWP (HD) Clip Bad Time - Coming Up Next (April 20                                                                          150                                
PROFAMCHA140501225344225404000020Episodic Next Step (HD) 212 New Ep Tomorrow @ 730                                                                           150                                
PRCFAMCHA140501225404225442000038Web Next Step (HD) S2 Online Promo (Mar2014)                                                                                150                                
PROFAMCHA140501225442225507000025Kellogg's                                                                                                                   150                                
PGRFAMCHA140501225507225914000407MV Non Disney (HD) Virginia To Vegas - We Are Star                                                                     10615120CC                              
PRCFAMCHA140501225914225923000009Family Bumper (HD) - Dragonflies ID (Jan 2011)                                                                              150                                
PRCFAMCHA140501225923225933000010Glaxo Smith Kline (PHD)                                                                                                     150                                
PROFAMCHA140501225933225939000006WOWP (HD) ID - Jennifer Stone 1 "Coming Up Next" (                                                                          150                                
PROFAMCHA140501225939230007000028RDMA (HD) Prems Friday May 9 @ 615 (Apr25-May4)                                                                             150                                
PGRFAMCHA140501230007232240002233Disney Wizards of Waverly Place                   EP: 01                                                               6068607BCC                              
PRCFAMCHA140501232240232321000041Episodic Yoda Chronicles (HD) Premieres Sunday @ 1                                                                          150                                
PROFAMCHA140501232321232407000046Wall-E (HD) Prems Sunday Afternoon @ 1230 (Apr28-M                                                                          150                                
PGRFAMCHA140501232407232739000332MV Universal (HD) Colbie Caillat - Hold On (Feb14-                                                                     10615120CC                              
PRCFAMCHA140501232739232759000020Family Bumper Flex (HD) Flex ID - ANT Farm (:16-:2                                                                          150                                
PROFAMCHA140501232759232859000100D-JR OOB - Mother's Week Stunt - All Week Long (Ap                                                                          150                                
PROFAMCHA140501232859232959000100Stunt What The What (HD) Continues Tomorrow @ 6 (M                                                                          150                                
PGRFAMCHA140501232959235231002232Life With Derek                                   EP: 13                                                        C24891 1065607BCC                              
PROFAMCHA140501235231235251000020Episodic Next Step (HD) 212 New Ep Tomorrow @ 730                                                                           150                                
PRCFAMCHA140501235251235312000021Web Next Step (HD) Air Quotes - TNS On Demand (Apr                                                                          150                                
PROFAMCHA140501235312235357000045DXD Super Strange Saturday (HD) Prems Saturday May                                                                          150                                
PGRFAMCHA140501235357235731000334MV Universal (HD) Jess Moskaluke - Catch Me If You                                                                     10615120CC                              
PRCFAMCHA140501235731235821000050Stunt May the 4th (HD) (Apr23-May3)                                                                                         150                                
PROFAMCHA140501235821235933000112RDMA Insider (HD) Prems Friday May 9 @ 615 (Apr27-                                                                          150CC                              
PRCFAMCHA140501235933235957000024Family Bumper Flex (HD) Bike Trails (:20-:24) (Mar                                                                          150                                
PGRFAMCHA140501235957002233002236The Latest Buzz                                   EP: 16                                                        C30362 1065607BCC                              
PROFAMCHA140501002233002333000100Stunt What The What (HD) Continues Tomorrow @ 6 (M                                                                          150                                
PGRFAMCHA140501002333002703000330MV Non Disney (HD) Mandia Nantsios - Rising Up (Fe                                                                     10615120CC                              
PROFAMCHA140501002703002748000045D-JR OOB - Sheriff 104 New Ep Sunday May 4 @ 1135                                                                           150                                
PRCFAMCHA140501002748002829000041Episodic Yoda Chronicles (HD) Premieres Sunday @ 1                                                                          150                                
PROFAMCHA140501002829002915000046Wall-E (HD) Prems Sunday Afternoon @ 1230 (Apr28-M                                                                          150                                
PROFAMCHA140501002915003000000045Episodic A&A (HD) 308 New Ep Wednesday @ 6 (May1-5                                                                          150                                
PRCFAMCHA140501003000003010000010Family Bumper (HD) - Bobbleheads ID (Jan 2011)                                                                              150                                
PGRFAMCHA140501003010005243002233Overruled!                                        EP: 11                                                        C28762 1065607ACC                              
PRCFAMCHA140501005243005333000050Stunt May the 4th (HD) (Apr23-May3)                                                                                         150                                
PROFAMCHA140501005333005413000040DXD Fangbone (HD) Premieres Sunday May 4 @ 730 (Ap                                                                          150                                
PGRFAMCHA140501005413005815000402MV Non Disney (HD) Alli Simpson - Notice Me (Feb20                                                                     60685120CC                              
PROFAMCHA140501005815005835000020Episodic Next Step (HD) 212 New Ep Tomorrow @ 730                                                                           150                                
PROFAMCHA140501005835005920000045WOY (HD) Sylvia - Check Family.ca for showtimes (F                                                                          150                                
PROFAMCHA140501005920005948000028RDMA (HD) Prems Friday May 9 @ 615 (Apr25-May4)                                                                             150                                
PRCFAMCHA140501005948010004000016Family Bumper Flex (HD) Flex ID - WUW (May2012) (:                                                                          150                                
PGRFAMCHA140501010004012236002232DEBRA!                                            EP: 07                                                        C35763 1065607ACD                              
PRCFAMCHA140501012236012257000021Family Bumper Flex (HD) Break Dance (:18-:21) (Mar                                                                          150                                
PGRFAMCHA140501012257014529002232What's Up, Warthogs!                              EP: 01                                                        C32738 1065607BCC                              
PRCFAMCHA140501014529014538000009Family Bumper (HD) - Dragonflies ID (Jan 2011)                                                                              150                                
PGRFAMCHA140501014538020811002233Disney Wizards of Waverly Place                   EP: 25                                                               6068607BCC                              
PRCFAMCHA140501020811020826000015Family Bumper Flex (HD) Flex ID - Really Me (Apr20                                                                          150                                
PGRFAMCHA140501020826023058002232Really Me                                         EP: 05                                                        B33828 1065607BCD                              
PRCFAMCHA140501023058023108000010Family Bumper (HD) - Bobbleheads ID (Jan 2011)                                                                              150                                
PGRFAMCHA140501023108025339002231Life with Derek                                   EP: 03                                                        C23968A1065607BCC                              
PRCFAMCHA140501025339025400000021Family Bumper Flex (HD) Dog Park (:19-:21) (Mar201                                                                          150                                
PGRFAMCHA140501025400031602002202Slugterra                                         EP: 31                                                        A33763 1065607ACC                              
PRCFAMCHA140501031602031623000021Family Bumper Flex (HD) Longboard (:19-:21) (Mar20                                                                          150                                
PGRFAMCHA140501031623033853002230Overruled!                                        EP: 01                                                        C30129 1065607BCC                              
PRCFAMCHA140501033853033901000008Family Bumper (HD) - Origami ID (Jan 2011)                                                                                  150                                
PGRFAMCHA140501033901040136002235The Latest Buzz                                   EP: 10                                                        C30362 1065607BCC                              
PRCFAMCHA140501040136040158000022Family Bumper Flex (HD) Fifteen Logos (:21-:22) (N                                                                          150                                
PGRFAMCHA140501040158042430002232Life with Derek                                   EP: 20                                                        C26822 1065607BCC                              
PROFAMCHA140501042430042530000100D-JR OOB - Mother's Week Stunt - All Week Long (Ap                                                                          150                                
PROFAMCHA140501042530042605000035D-JR Promo - Bananas in Pajamas - Clip 1 - Get mor                                                                          150                                
PROFAMCHA140501042605042611000006D-JR - Short Open (:06) (May2011)                                                                                           150                                
PROFAMCHA140501042611042808000157PH-D Short - Can You...Alligator Manners S1 - 09 -                                                                          150                                
PROFAMCHA140501042808042814000006D-JR - Short Close (:06) (May2011)                                                                                          150                                
PROFAMCHA140501042814042844000030D-JR Promo - Tickety Toc - Time to Chime - Get mor                                                                          150                                
PROFAMCHA140501042844042919000035D-JR OOB - Jake vs Hook - Prems Sunday May 4 @ 9 (                                                                          150                                
PROFAMCHA140501042919042949000030D-JR OOB - Sofia 204 - New Ep Monday May 5 @ 6pm (                                                                          150                                
PROFAMCHA140501042949042959000010D-JR - Hero Flex ID - Blue (:06-:10) (Feb2014)                                                                              150                                
OFFFAMCHA140501042959043000000001OFF AIR                                                                                                                                                        
PGRFAMCHA140502043000045231002231The Secret World of Benjamin Bear                 EP: 44                                                        C31763 1065607ECC                              
PROFAMCHA140502045231045238000007D-JR Live Action ID - Franny's Feet - Coming Up (M                                                                          150                                
PROFAMCHA140502045238045303000025D-JR Live Action ID - #49 Making Lunch Routine (Ma                                                                          150                                
PROFAMCHA140502045303045348000045D-JR OOB - Jake 341 - New Ep Sunday May 4 @ 11 (Ap                                                                          150                                
PROFAMCHA140502045348045430000042D-JR Promo - Bananas in Pajamas - Get more on the                                                                           150                                
PROFAMCHA140502045430045515000045D-JR OOB - Sheriff 104 New Ep Sunday May 4 @ 1135                                                                           150                                
PROFAMCHA140502045515045540000025D-JR Live Action ID - #47 Making Breakfast (May201                                                                          150                                
PROFAMCHA140502045540045547000007D-JR Live Action ID - Franny's Feet - Now (May2012                                                                          150                                
PROFAMCHA140502045547045602000015D-JR - Monthly ID - May (May2014)                                                                                           150                                
PGRFAMCHA140502045602051835002233Franny's Feet                                     EP: 46                                                        C31292 1065607ECC                              
PROFAMCHA140502051835051842000007D-JR Live Action ID - SWOBB - Coming Up (May2012)                                                                           150                                
PROFAMCHA140502051842051907000025D-JR Live Action ID - #5 Pick A Reading Spot (Sep2                                                                          150                                
PROFAMCHA140502051907051942000035D-JR OOB - Jake vs Hook - Prems Sunday May 4 @ 9 (                                                                          150                                
PROFAMCHA140502051942052027000045D-JR OOB - Sheriff 104 New Ep Sunday May 4 @ 1135                                                                           150                                
PROFAMCHA140502052027052052000025D-JR Live Action ID - #50 Feed Dog (Sep2013)                                                                                150                                
PROFAMCHA140502052052052059000007D-JR Live Action ID - SWOBB - Now (May2012)                                                                                 150                                
PROFAMCHA140502052059052109000010D-JR - Hero Flex ID - Green (:06-:10) (Feb2014)                                                                             150                                
PGRFAMCHA140502052109054339002230The Secret World of Benjamin Bear                 EP: 17                                                        C26066 1065607ECC                              
PROFAMCHA140502054339054346000007D-JR Live Action ID - Harry & His Dinosaurs - Comi                                                                          150                                
PROFAMCHA140502054346054411000025D-JR Live Action ID - #63 Wash Face (Sep2013)                                                                               150                                
PROFAMCHA140502054411054426000015D-JR - Seasonal ID - Spring (Mar 1-May 31)                                                                                  150                                
PROFAMCHA140502054426054451000025D-JR Live Action ID - #51 Chores Board (Sep2013)                                                                            150                                
PROFAMCHA140502054451054458000007D-JR Live Action ID - Harry & His Dinosaurs - Now                                                                           150                                
PGRFAMCHA140502054458060633002135Harry and His Bucket Full of Dinosaurs            EP: 14                                                        B05033 1065607ECC                              
PROFAMCHA140502060633060641000008D-JR Live Action ID - Stella & Sam - Coming Up (Ma                                                                          150                                
PROFAMCHA140502060641060706000025D-JR Live Action ID - #64 Pick Up Room/Turn off Li                                                                          150                                
PROFAMCHA140502060706060751000045D-JR OOB - Jake 341 - New Ep Sunday May 4 @ 11 (Ap                                                                          150                                
PROFAMCHA140502060751060851000100D-JR OOB - Mother's Week Stunt - All Week Long (Ap                                                                          150                                
PROFAMCHA140502060851060921000030D-JR OOB - Sofia 204 - New Ep Monday May 5 @ 6pm (                                                                          150                                
PROFAMCHA140502060921060946000025D-JR Live Action ID - #65 Putting Toys Away (Sept2                                                                          150                                
PROFAMCHA140502060946060954000008D-JR Live Action ID - Stella & Sam - Now (Mar2013)                                                                          150                                
PROFAMCHA140502060954061004000010D-JR - Hero Flex ID - Blue (:06-:10) (Feb2014)                                                                              150                                
PGRFAMCHA140502061004063319002315Stella and Sam                                    EP: 12                                                        C32553 1065607ECD                              
PRCFAMCHA140502063319063409000050Stunt May the 4th (HD) (Apr23-May3)                                                                                         150                                
PRCFAMCHA140502063409063431000022Web Game Change May (HD) Fridays Only - Family.ca                                                                           150                                
PRCFAMCHA140502063431063444000013Family Flex Next (HD) ANT Farm - Jake (:12-:14) (A                                                                          150                                
PROFAMCHA140502063444063504000020Episodic Next Step (HD) 212 New Ep Tonight @ 730 (                                                                          150                                
PGRFAMCHA140502063504065720002216Disney A.N.T. Farm                                EP: 13                                                               6068607BCC                              
PROFAMCHA140502065720065820000100Stunt What The What (HD) Continues Tonight @ 6 (Ma                                                                          150                                
PROFAMCHA140502065820065835000015Lego                                                                                                                        150                                
PRCFAMCHA140502065835065845000010Family Bumper (HD) - Bobbleheads ID (Jan 2011)                                                                              150                                
PROFAMCHA140502065845065910000025Kellogg's                                                                                                                   150                                
PROFAMCHA140502065910065956000046Wall-E (HD) Prems Sunday Afternoon @ 1230 (Apr28-M                                                                          150                                
PRCFAMCHA140502065956070009000013Family Flex Next (HD) SIU - Rashawn (:12-:13) (Apr                                                                          150                                
PGRFAMCHA140502070009072442002433Disney Shake It Up                                EP: 13                                                               6068707BCC                              
PRCFAMCHA140502072442072450000008Family Bumper (HD) - Origami ID (Jan 2011)                                                                                  150                                
PRCFAMCHA140502072450072504000014Family Flex Next (HD) A&A Raini (Aug 2013) (:13-:1                                                                          150                                
PGRFAMCHA140502072504074735002231Disney Austin & Ally                              EP: 17                                                               6068807BCC                              
PROFAMCHA140502074735074820000045Episodic A&A (HD) 308 New Ep Wednesday @ 6 (May1-5                                                                          150                                
PROFAMCHA140502074820074845000025Kellogg's                                                                                                                   150                                
PRCFAMCHA140502074845074935000050Stunt May the 4th (HD) (Apr23-May3)                                                                                         150                                
PROFAMCHA140502074935075035000100Entertainment One Licensing US Inc.                                                                                         150                                
PRCFAMCHA140502075035075048000013Family Flex Next (HD) Jessie - Zuri (:12-:14) (Apr                                                                          150                                
PROFAMCHA140502075048075108000020Episodic Next Step (HD) 212 New Ep Tonight @ 730 (                                                                          150                                
PGRFAMCHA140502075108081341002233Disney Jessie                                     EP: 08                                                               6068807BCC                              
PROFAMCHA140502081341081421000040Episodic Jessie (HD) 312 New Ep Wednesday @ 630 (M                                                                          150                                
PROFAMCHA140502081421081521000100Sony Pictures                                                                                                               150                                
PRCFAMCHA140502081521081602000041Episodic Yoda Chronicles (HD) Premieres Sunday @ 1                                                                          150                                
PROFAMCHA140502081602081648000046Wall-E (HD) Prems Sunday Afternoon @ 1230 (Apr28-M                                                                          150                                
PRCFAMCHA140502081648081700000012Family Bumper Flex (HD) Flex ID - WUW (May2012) (:                                                                          150                                
PROFAMCHA140502081700081706000006WOWP (HD) ID - Jennifer Stone 1 "Coming Up Next" (                                                                          150                                
PROFAMCHA140502081706081806000100Stunt What The What (HD) Continues Tonight @ 6 (Ma                                                                          150                                
PGRFAMCHA140502081806084110002304Disney Wizards of Waverly Place                   EP: 26                                                               6068607BCC                              
PROFAMCHA140502084110084118000008D-JR Live Action ID - Tickity Toc - Coming Up (Mar                                                                          150                                
PROFAMCHA140502084118084143000025D-JR Live Action ID - #67 Play Dressup (Sep2013)                                                                            150                                
PROFAMCHA140502084143084228000045D-JR OOB - Sheriff 104 New Ep Sunday May 4 @ 1135                                                                           150                                
PROFAMCHA140502084228084313000045The Walt Disney Company                                                                                                     150                                
PROFAMCHA140502084313084413000100D-JR OOB - Mother's Week Stunt - All Week Long (Ap                                                                          150                                
PROFAMCHA140502084413084438000025D-JR Live Action ID - #71 Making Cards (Sept2012)                                                                           150                                
PROFAMCHA140502084438084446000008D-JR Live Action ID - Tickity Toc - Now (Mar2013)                                                                           150                                
PROFAMCHA140502084446084501000015D-JR - Daily ID - Friday (Feb2014)                                                                                          150                                
PGRFAMCHA140502084501085606001105Tickety Toc                                       EP: 44                                                               3068605ACC                              
PGRFAMCHA140502085606090712001106Tickety Toc                                       EP: 45                                                               3068605ACC                              
PROFAMCHA140502090712090720000008D-JR Live Action ID - Little Einsteins - Coming Up                                                                          150                                
PROFAMCHA140502090720090745000025D-JR Live Action ID - #8 Reading Book/Quiet Time (                                                                          150                                
PROFAMCHA140502090745090830000045D-JR OOB - Jake 341 - New Ep Sunday May 4 @ 11 (Ap                                                                          150                                
