SO FAMCHA050601043000043011000011Sign On (oct 1)                                                                                                                                                
PROFAMCHA050601043011043020000009CC Disclaimer - FAST - Family.ca (:08-:10)                                                                                  150                                
PGRFAMCHA050601043020045313002253Franklin                                          EPS # 4-042                                                   B38149A1065607ECC                              
PROFAMCHA050601045313045328000015PS - 01(PH) - WTP/Benjamin/Franny                                                                                           150                                
ID FAMCHA050601045328045341000013PS Playhouse AM Block Open (:10-:15)                                                                                        150                                
PROFAMCHA050601045341045350000009CC Disclaimer - FAST - Family.ca (:08-:10)                                                                                  150                                
PGRFAMCHA050601045350051620002230King                                              EP: 005                                                       B75760A1065607ECC                              
PRCFAMCHA050601051620051625000005Astral ID (FEB05)                                                                                                           150                                
PROFAMCHA050601051625051640000015PS - 01(PH) - WTP/Benjamin/Franny                                                                                           150                                
ID FAMCHA050601051640051653000013PS Playhouse AM Block Open (:10-:15)                                                                                        150                                
PROFAMCHA050601051653051702000009CC Disclaimer - FAST - Family.ca (:08-:10)                                                                                  150                                
PGRFAMCHA050601051702054340002638Katie And Orbie                                   EP: 5-062                                                     C19665A1065607ECC                              
PROFAMCHA050601054340054356000016PS - 01(PH) - WTP/Benjamin/Franny                                                                                           150                                
ID FAMCHA050601054356054409000013PS Playhouse AM Block Open (:10-:15)                                                                                        150                                
PROFAMCHA050601054409054418000009CC Disclaimer - FAST - Family.ca (:08-:10)                                                                                  150                                
PGRFAMCHA050601054418060711002253Franklin                                          EP: 4-043                                                     B38150A1065607ECC                              
PRCFAMCHA050601060711060716000005Astral ID (FEB05)                                                                                                           150                                
PROFAMCHA050601060716060731000015PS - 01(PH) - WTP/Benjamin/Franny                                                                                           150                                
ID FAMCHA050601060731060744000013PS Playhouse AM Block Open (:10-:15)                                                                                        150                                
PROFAMCHA050601060744060753000009CC Disclaimer - FAST - Family.ca (:08-:10)                                                                                  150                                
PGRFAMCHA050601060753063024002231Something Else                                    EPS # 1-006                                                   B69260A1065607ECC                              
PROFAMCHA050601063024063039000015PS - 01(PH) - WTP/Benjamin/Franny                                                                                           150                                
ID FAMCHA050601063039063052000013PS Playhouse AM Block Open (:10-:15)                                                                                        150                                
PROFAMCHA050601063052063101000009CC Disclaimer - FAST - Family.ca (:08-:10)                                                                                  150                                
PGRFAMCHA050601063101065340002239Hoze Houndz                                       EP: 4-041                                                     B63377A1065607ECC                              
PRCFAMCHA050601065340065345000005Astral ID (FEB05)                                                                                                           150                                
PROFAMCHA050601065345065400000015PS - 01(PH) - WTP/Benjamin/Franny                                                                                           150                                
ID FAMCHA050601065400065414000014Mad Dash Block Open (:13-:15)                                                                                               150                                
PROFAMCHA050601065414065423000009CC Disclaimer - FAST - Family.ca (:08-:10)                                                                                  150                                
PGRFAMCHA050601065423071700002237Disney's Aladdin                                  EP: 1-023                                                            6068607ECC                              
PROFAMCHA050601071700071715000015PS - 01(PH) - WTP/Benjamin/Franny                                                                                           150                                
PROFAMCHA050601071715071745000030Kim Possible 007 (FEB05) (MD) - Coming Up Next                                                                              150                                
PROFAMCHA050601071745071813000028Lilo & Stitch (MD/AM) (JAN05) - Today @ 7:50am                                                                              150                                
PROFAMCHA050601071813071859000046xxFillmore! - Chase (MD) (APR05) - Today @ 3pm                                                                              150                                
INTFAMCHA050601071859072003000104Gagsters                                          EP: 46                                                              A20686120                                
PROFAMCHA050601072003072025000022xxRecess - Dance - (APR05) - Today @ 3:50pm                                                                                 150                                
PROFAMCHA050601072025072041000016xxDave the Barbarian - CHEERLEADER (MD) - Today @                                                                           150                                
PRCFAMCHA050601072041072047000006Family Bumpers - (Phase 3 Spring 05) - Bubble Gum                                                                           150                                
ID FAMCHA050601072047072100000013Mad Dash Block Open (:13-:15)                                                                                               150                                
PGRFAMCHA050601072100074354002254Disney's Kim Possible                             EPS # 1-037                                                         A6068607E                                
PRCFAMCHA050601074354074359000005Astral ID (FEB05)                                                                                                           150                                
PROFAMCHA050601074359074414000015PS - 01(PH) - WTP/Benjamin/Franny                                                                                           150                                
PROFAMCHA050601074414074442000028Lilo & Stitch (MD) (JAN05) - Coming Up Next                                                                                 150                                
PROFAMCHA050601074442074528000046xxFillmore! - Chase (MD) (APR05) - Today @ 3pm                                                                              150                                
PROFAMCHA050601074528074622000054Weekenders - B-Ball - (APR05) - Today @ 3:25pm                                                                              150                                
INTFAMCHA050601074622074729000107Gagsters - Alien Attack                           EP: 46                                                              A20686120                                
PROFAMCHA050601074729074751000022xxRecess - Dance - (APR05) - Today @ 3:50pm                                                                                 150                                
PROFAMCHA050601074751074818000027xxDave the Barbarian - SCREAM (MD) - Today @ 4:15p                                                                          150                                
PROFAMCHA050601074818074846000028Proud Family (BOND) - (MD) - Coming Up                                                                                      150                                
ID FAMCHA050601074846074900000014Mad Dash Block Open (:13-:15)                                                                                               150                                
PGRFAMCHA050601074900081138002238Disney's Lilo & Stitch: The Series                EPS # 44                                                             6068607E                                
PROFAMCHA050601081138081152000014PS - 01(PH) - WTP/Benjamin/Franny                                                                                           150                                
PROFAMCHA050601081152081238000046xxFillmore! - Chase (MD) (APR05) - Today @ 3pm                                                                              150                                
PROFAMCHA050601081238081332000054Weekenders - B-Ball - (APR05) - Today @ 3:25pm                                                                              150                                
PROFAMCHA050601081332081354000022xxRecess - Dance - (APR05) - Today @ 3:50pm                                                                                 150                                
PROFAMCHA050601081354081436000042Family Kicks - 3x, daily (MD/NS/NSW)                                                                                        150                                
PRCFAMCHA050601081436081512000036Mad Dash - WEEKENDERS - Bored                                                                                               150                                
PROFAMCHA050601081512081528000016xxDave the Barbarian - CHEERLEADER (MD) - Today @                                                                           150                                
PRCFAMCHA050601081528081613000045Famous Players Popcorn Parties                                                                                              150                                
PROFAMCHA050601081613081636000023xxLizzie McGuire - SFX2 (MD) - Today @ 5:35pm                                                                               150                                
PRCFAMCHA050601081636081647000011Family Bumpers - (Phase 2 F/W 04) - Science (MD-AM                                                                          150                                
ID FAMCHA050601081647081700000013Mad Dash Block Open (:13-:15)                                                                                               150                                
PROFAMCHA050601081700081709000009CC Disclaimer - FAST - Family.ca (:08-:10)                                                                                  150                                
PGRFAMCHA050601081709084013002304The Little Mermaid                                EP: 1-007                                                            6068607ECC                              
PRCFAMCHA050601084013084018000005Astral ID (FEB05)                                                                                                           150                                
PROFAMCHA050601084018084033000015PS - 01(PH) - WTP/Benjamin/Franny                                                                                           150                                
PRCFAMCHA050601084033084048000015Franny's Feet - Bowleriffic (PH) - Coming Up Next                                                                           150                                
ID FAMCHA050601084048084103000015Franny's Feet Web BBD - Part of Playhouse @ family                                                                          150                                
PROFAMCHA050601084103084132000029xxWinnie the Pooh (TRAP) (PH/AM) - Today @ 9:10am                                                                           150                                
PROFAMCHA050601084132084206000034Jojo's Circus - GIGGLECORN - Today @ 9:40am                                                                                 150                                
PRCFAMCHA050601084206084302000056Playhouse - STANLEY - Fish Song                                                                                             150                                
PROFAMCHA050601084302084332000030Stanley - Get Into It (MAR05) - (PH-M/W/F) - Today                                                                          150                                
PROFAMCHA050601084332084351000019Henry's World (JAN05) - Today @ 10:35am                                                                                     150                                
PRCFAMCHA050601084351084422000031xxKing (MAY05) (PH/AM) - Today @ 11am                                                                                       150                                
PROFAMCHA050601084422084447000025Hoze Houndz (Can't Fly) (PH/PM) - Today @ 2:10pm                                                                            150                                
ID FAMCHA050601084447084500000013PS Playhouse PM Block Open (:10-:15)                                                                                        150                                
PROFAMCHA050601084500084509000009CC Disclaimer - FAST - Family.ca (:08-:10)                                                                                  150                                
PGRFAMCHA050601084509090739002230Franny's Feet                                     EPS # 1-010                                                   C23970A1065607ECC                              
PROFAMCHA050601090739090753000014PS - 01(PH) - WTP/Benjamin/Franny                                                                                           150                                
PROFAMCHA050601090753090822000029xxWinnie the Pooh (TRAP) (PH/AM) - Coming Up Next                                                                           150                                
PROFAMCHA050601090822090856000034Jojo's Circus - GIGGLECORN - Today @ 9:40am                                                                                 150                                
PROFAMCHA050601090856090926000030Stanley - Get Into It (MAR05) - (PH-M/W/F) - Today                                                                          150                                
INTFAMCHA050601090926091208000242Art Attack - Killer Whale                                                                                              60686120                                
PRCFAMCHA050601091208091220000012Benjamin Bear - Slide (PH-T/T) - Tomorrow @ 8:45am                                                                          150                                
PROFAMCHA050601091220091250000030Higglytown Heroes (MAR05) (T/T) - Tomorrow @ 10:05                                                                          150                                
ID FAMCHA050601091250091300000010PS Playhouse AM Block Open (:10-:15)                                                                                        150                                
PROFAMCHA050601091300091309000009CC Disclaimer - FAST - Family.ca (:08-:10)                                                                                  150                                
PGRFAMCHA050601091309093546002237The New Adventures of Winnie the Pooh             EP: 1-039                                                            6068607ECC                              
PRCFAMCHA050601093546093551000005Astral ID (FEB05)                                                                                                           150                                
PROFAMCHA050601093551093606000015PS - 01(PH) - WTP/Benjamin/Franny                                                                                           150                                
PROFAMCHA050601093606093640000034Jojo's Circus - GIGGLECORN - Coming Up Next                                                                                 150                                
PROFAMCHA050601093640093710000030Stanley - Get Into It (MAR05) - (PH-M/W/F) - Today                                                                          150                                
PROFAMCHA050601093710093729000019Henry's World (JAN05) - Today @ 10:35am                                                                                     150                                
PRCFAMCHA050601093729093741000012Benjamin Bear - Slide (PH-T/T) - Tomorrow @ 8:45am                                                                          150                                
PRCFAMCHA050601093741093847000106Playhouse - WINNIE THE POOH - Christopher Robin                                                                             150                                
PROFAMCHA050601093847093917000030Higglytown Heroes (MAR05) (T/T) - Tomorrow @ 10:05                                                                          150                                
PRCFAMCHA050601093917093948000031xxKing (MAY05) (PH/AM) - Today @ 11am                                                                                       150                                
ID FAMCHA050601093948094000000012PS Playhouse AM Block Open (:10-:15)                                                                                        150                                
PGRFAMCHA050601094000100408002408JoJo's Circus                                     EPS # 14                                                            A6068607E                                
PROFAMCHA050601100408100423000015PS - 01(PH) - WTP/Benjamin/Franny                                                                                           150                                
PROFAMCHA050601100423100453000030Stanley - Get Into It (MAR05) - (PH-M/W/F) - Comin                                                                          150                                
PROFAMCHA050601100453100512000019Henry's World (JAN05) - Today @ 10:35am                                                                                     150                                
PRCFAMCHA050601100512100543000031xxKing (MAY05) (PH/AM) - Today @ 11am                                                                                       150                                
PRCFAMCHA050601100543100639000056Playhouse - STANLEY - Fish Song                                                                                             150                                
PROFAMCHA050601100639100704000025Hoze Houndz (Can't Fly) (PH/PM) - Today @ 2:10pm                                                                            150                                
PRCFAMCHA050601100704100716000012Benjamin Bear - Slide (PH-T/T) - Tomorrow @ 8:45am                                                                          150                                
PROFAMCHA050601100716100746000030Higglytown Heroes (MAR05) (T/T) - Tomorrow @ 10:05                                                                          150                                
ID FAMCHA050601100746100800000014PS Playhouse AM Block Open (:10-:15)                                                                                        150                                
PROFAMCHA050601100800100809000009CC Disclaimer - FAST - Family.ca (:08-:10)                                                                                  150                                
PGRFAMCHA050601100809103205002356Stanley                                           EP: 1-018                                                           A6068607ECC                              
PRCFAMCHA050601103205103210000005Astral ID (FEB05)                                                                                                           150                                
PROFAMCHA050601103210103225000015PS - 01(PH) - WTP/Benjamin/Franny                                                                                           150                                
PROFAMCHA050601103225103244000019Henry's World (JAN05) - Coming Up Next                                                                                      150                                
PRCFAMCHA050601103244103315000031xxKing (MAY05) (PH/AM) - Today @ 11am                                                                                       150                                
PROFAMCHA050601103315103345000030Higglytown Heroes (MAR05) (T/T) - Tomorrow @ 10:05                                                                          150                                
ID FAMCHA050601103345103400000015PS Playhouse AM Block Open (:10-:15)                                                                                        150                                
PROFAMCHA050601103400103409000009CC Disclaimer - FAST - Family.ca (:08-:10)                                                                                  150                                
PGRFAMCHA050601103409105814002405Henry's World                                     EPS # 2-021                                                   B81052A1065607GCC                              
PROFAMCHA050601105814105829000015PS - 01(PH) - WTP/Benjamin/Franny                                                                                           150                                
PRCFAMCHA050601105829105900000031xxKing (MAY05) (PH/AM) - Coming Up Next                                                                                     150                                
PRCFAMCHA050601105900105946000046Playhouse - STANLEY - Squirrel Song                                                                                         150                                
ID FAMCHA050601105946110000000014PS Playhouse AM Block Open (:10-:15)                                                                                        150                                
PROFAMCHA050601110000110009000009CC Disclaimer - FAST - Family.ca (:08-:10)                                                                                  150                                
PGRFAMCHA050601110009112239002230King                                              EPS # 2-024                                                   B75779A1065607ECC                              
PRCFAMCHA050601112239112244000005Astral ID (FEB05)                                                                                                           150                                
PROFAMCHA050601112244112258000014PS - 01(PH) - WTP/Benjamin/Franny                                                                                           150                                
PROFAMCHA050601112258112322000024Jason (Hiking) - Coming Up Next                                                                                             150                                
PROFAMCHA050601112322112350000028xxLilo & Stitch (MD/L) (JAN05) - Today @ 11:50am                                                                            150                                
PROFAMCHA050601112350112414000024Hercules (Count) - Today @ 12:10pm                                                                                          150                                
PROFAMCHA050601112414112500000046xxFillmore! - Chase (MD) (APR05) - Today @ 3pm                                                                              150                                
PROFAMCHA050601112500112522000022xxRecess - Dance - (APR05) - Today @ 3:50pm                                                                                 150                                
PROFAMCHA050601112522112538000016xxDave the Barbarian - CHEERLEADER (MD) - Today @                                                                           150                                
PROFAMCHA050601112538112606000028Proud Family (BOND) - (MD) - Coming Up                                                                                      150                                
PRCFAMCHA050601112606112638000032xxMad Dash - GUIDE - Tomorrow starting @ 3pm                                                                                150                                
PRCFAMCHA050601112638112647000009Family Bumpers - (Phase 2 F/W 04) - Skateboard (MD                                                                          150                                
ID FAMCHA050601112647112700000013Mad Dash Block Open (:13-:15)                                                                                               150                                
PGRFAMCHA050601112700114915002215Jason and the Heroes of Mount Olympus             EPS # 07                                                             6068607E                                
PROFAMCHA050601114915114930000015PS - 01(PH) - WTP/Benjamin/Franny                                                                                           150                                
PRCFAMCHA050601114930114940000010Mad Dash - LIZZIE MCGUIRE - Going In                                                                                        150                                
PRCFAMCHA050601114940114946000006Family Bumpers - (Phase 2 F/W 04) - Gymnastics (MD                                                                          150                                
ID FAMCHA050601114946115000000014Mad Dash Block Open (:13-:15)                                                                                               150                                
PGRFAMCHA050601115000121240002240Disney's Lilo & Stitch                            EPS # 09                                                            A6068607E                                
PRCFAMCHA050601121240121245000005Astral ID (FEB05)                                                                                                           150                                
PROFAMCHA050601121245121300000015PS - 01(PH) - WTP/Benjamin/Franny                                                                                           150                                
ID FAMCHA050601121300121314000014Mad Dash Block Open (:13-:15)                                                                                               150                                
PGRFAMCHA050601121314123606002252Disney's Hercules                                 EP: 1-004                                                            6068607E                                
PROFAMCHA050601123606123621000015PS - 01(PH) - WTP/Benjamin/Franny                                                                                           150                                
PROFAMCHA050601123621123645000024xxLizzie McGuire - SFX (MD) - Today @ 5:35pm                                                                                150                                
ID FAMCHA050601123645123700000015Mad Dash Block Open (:13-:15)                                                                                               150                                
PROFAMCHA050601123700123709000009CC Disclaimer - FAST - Family.ca (:08-:10)                                                                                  150                                
PGRFAMCHA050601123709125955002246Goof Troop                                        EP: 1-045                                                           A6068607ECC                              
PRCFAMCHA050601125955130000000005Astral ID (FEB05)                                                                                                           150                                
PROFAMCHA050601130000130015000015PS - 01(PH) - WTP/Benjamin/Franny                                                                                           150                                
PRCFAMCHA050601130015130030000015Franny's Feet - Bowleriffic (PH-M/W/F) - Mon, Wed,                                                                          150                                
ID FAMCHA050601130030130045000015Franny's Feet Web BBD - Part of Playhouse @ family                                                                          150                                
ID FAMCHA050601130045130100000015PS Playhouse PM Block Open (:10-:15)                                                                                        150                                
PROFAMCHA050601130100130109000009CC Disclaimer - FAST - Family.ca (:08-:10)                                                                                  150                                
PGRFAMCHA050601130109132408002259The Little Mermaid                                EP: 1-021                                                            6068607ECC                              
PROFAMCHA050601132408132423000015PS - 01(PH) - WTP/Benjamin/Franny                                                                                           150                                
PROFAMCHA050601132423132448000025Hoze Houndz (Can't Fly) (PH/PM) - Today @ 2:10pm                                                                            150                                
ID FAMCHA050601132448132500000012PS Playhouse PM Block Open (:10-:15)                                                                                        150                                
PROFAMCHA050601132500132509000009CC Disclaimer - FAST - Family.ca (:08-:10)                                                                                  150                                
PGRFAMCHA050601132509134748002239Disney's Aladdin                                  EP: 1-048                                                            6068607ECC                              
PRCFAMCHA050601134748134753000005Astral ID (FEB05)                                                                                                           150                                
PROFAMCHA050601134753134808000015PS - 22(PH) - DALMATIANS/HOZE/HOUSE (:14-:16) (AUG                                                                          150                                
ID FAMCHA050601134808134823000015PS Playhouse PM Block Open (:10-:15)                                                                                        150                                
PGRFAMCHA050601134823141109002246Disney's 101 Dalmatians: The Series               EPS # 1-063                                                         A6068607E                                
PROFAMCHA050601141109141124000015PS - 01(PH) - WTP/Benjamin/Franny                                                                                           150                                
PRCFAMCHA050601141124141147000023Playhouse - HOUSE OF MOUSE - Calculator                                                                                     150                                
ID FAMCHA050601141147141200000013PS Playhouse PM Block Open (:10-:15)                                                                                        150                                
PROFAMCHA050601141200141209000009CC Disclaimer - FAST - Family.ca (:08-:10)                                                                                  150                                
PGRFAMCHA050601141209143447002238Hoze Houndz                                       EP: 5-064                                                     B63400A1065607ECC                              
PRCFAMCHA050601143447143452000005Astral ID (FEB05)                                                                                                           150                                
PROFAMCHA050601143452143507000015PS - 01(PH) - WTP/Benjamin/Franny                                                                                           150                                
PRCFAMCHA050601143507143527000020Benjamin Bear - Snack (PH-T/T) - Tomorrow @ 8:45am                                                                          150                                
PROFAMCHA050601143527143546000019Henry's World (JAN05) - Tomorrow @ 10:35am                                                                                  150                                
ID FAMCHA050601143546143600000014PS Playhouse PM Block Open (:10-:15)                                                                                        150                                
PROFAMCHA050601143600143609000009CC Disclaimer - FAST - Family.ca (:08-:10)                                                                                  150                                
PGRFAMCHA050601143609145845002236Disney's House Of Mouse                           EP: 1-011                                                            6068607ECC                              
PROFAMCHA050601145845145900000015PS - 01(PH) - WTP/Benjamin/Franny                                                                                           150                                
PROFAMCHA050601145900145951000051Kellogg's Kidz Count - May 16 to July 10                                                                                    150                                
ID FAMCHA050601145951150005000014Mad Dash Block Open (:13-:15)                                                                                               150                                
PGRFAMCHA050601150005152244002239Disney's Fillmore!                                EPS # 1-015                                                         A6068607E                                
PRCFAMCHA050601152244152249000005Astral ID (FEB05)                                                                                                           150                                
PROFAMCHA050601152249152303000014PS - 01(PH) - WTP/Benjamin/Franny                                                                                           150                                
PROFAMCHA050601152303152357000054Weekenders - B-Ball - (APR05) - Coming Up Next                                                                              150                                
PROFAMCHA050601152357152439000042Family Kicks - 3x, daily (MD/NS/NSW)                                                                                        150                                
PROFAMCHA050601152439152447000008Phil of the Future IDs - I'm Ricky Ullman, You're                                                                           150                                
ID FAMCHA050601152447152500000013Mad Dash Block Open (:13-:15)                                                                                               150                                
PROFAMCHA050601152500152510000010CC Disclaimer - FAST - Family.ca (:08-:10)                                                                                  150                                
PGRFAMCHA050601152510154747002237Disney's The Weekenders                           EP: 1-026                                                           A6068607E                                
PROFAMCHA050601154747154803000016PS - 01(PH) - WTP/Benjamin/Franny                                                                                           150                                
PROFAMCHA050601154803154825000022xxRecess - Dance - (APR05) - Coming Up Next                                                                                 150                                
PROFAMCHA050601154825154945000120Download - Space (May 22 - June 30) 3x, daily (MD/                                                                          150                                
ID FAMCHA050601154945155000000015Mad Dash Block Open (:13-:15)                                                                                               150                                
PGRFAMCHA050601155000161235002235Disney's Recess                                   EP: 1-025                                                            6068607E                                
PRCFAMCHA050601161235161240000005Astral ID (FEB05)                                                                                                           150                                
PROFAMCHA050601161240161254000014PS - 01(PH) - WTP/Benjamin/Franny                                                                                           150                                
PROFAMCHA050601161254161326000032xxDave the Barbarian - LAY WASTE (MD) - Coming Up                                                                           150                                
PROFAMCHA050601161326161411000045Adventures of Shark Boy & Lava Girl - Coming Soon                                                                           150                                
PROFAMCHA050601161411161441000030xxKim Possible 007 (FEB05) (MD) - Today @ 4:40pm                                                                            150                                
INTFAMCHA050601161441161502000021Recess Sketches - Gretchen's Inventions - Me Gus                                                                       60286120                                
PROFAMCHA050601161502161530000028Proud Family (BOND) - (MD) - Coming Up                                                                                      150                                
PRCFAMCHA050601161530161541000011Naturally Sadie - Teaser ID - Catch my new show co                                                                          150                                
PRCFAMCHA050601161541161548000007Family Bumpers - (Phase 2 F/W 04) - Hockey (MD-L/M                                                                          150                                
ID FAMCHA050601161548161601000013Mad Dash Block Open (:13-:15)                                                                                               150                                
PGRFAMCHA050601161601163839002238Disney's Dave the Barbarian                       EPS # 12                                                             6068607E                                
PROFAMCHA050601163839163853000014PS - 01(PH) - WTP/Benjamin/Franny                                                                                           150                                
PROFAMCHA050601163853163923000030Kim Possible 007 (FEB05) (MD) - Coming Up Next                                                                              150                                
PROFAMCHA050601163923163951000028Proud Family (BOND) - (MD) - Coming Up                                                                                      150                                
PROFAMCHA050601163951164050000059Download - School Gadgets (May 22, - June 30) 3x,                                                                           150                                
PROFAMCHA050601164050164113000023xxLizzie McGuire - SFX2 (MD) - Today @ 5:35pm                                                                               150                                
PRCFAMCHA050601164113164136000023Darcy's Wild Life - (GOAT PILLS) (NS) - Tonight @                                                                           150                                
PRCFAMCHA050601164136164147000011Family Bumpers - (Phase 2 F/W 04) - Science (MD-AM                                                                          150                                
ID FAMCHA050601164147164202000015Mad Dash Block Open (:13-:15)                                                                                               150                                
PGRFAMCHA050601164202170455002253Disney's Kim Possible                             EPS # 1-060                                                          6068607E                                
PRCFAMCHA050601170455170500000005Astral ID (FEB05)                                                                                                           150                                
PROFAMCHA050601170500170515000015Mad Dash - 06 (M-T) - PROUD/LIZZIE/DARCY (:14-:16)                                                                          150                                
PROFAMCHA050601170515170543000028Proud Family (BOND) - (MD) - Coming Up                                                                                      150                                
PROFAMCHA050601170543170608000025Wendy's Team of the Week Contest                                                                                            150                                
PROFAMCHA050601170608170632000024xxLizzie McGuire - SFX (MD) - Today @ 5:35pm                                                                                150                                
PRCFAMCHA050601170632170717000045Famous Players Popcorn Parties                                                                                              150                                
PRCFAMCHA050601170717170741000024Darcy's Wild Life - (CHIMP) (NS) - Tonight @ 6pm                                                                            150                                
PRCFAMCHA050601170741170747000006Family Bumpers - (Phase 2 F/W 04) - Gymnastics (MD                                                                          150                                
ID FAMCHA050601170747170801000014Mad Dash Block Open (:13-:15)                                                                                               150                                
PROFAMCHA050601170801170809000008CC Disclaimer - FAST - Family.ca (:08-:10)                                                                                  150                                
PGRFAMCHA050601170809173039002230The Proud Family                                  EP: 1-020                                                           A6068807ECC                              
PROFAMCHA050601173039173053000014Mad Dash - 07 (M-T) - LIZZIE/DARCY/RAVEN (:14-:16)                                                                          150                                
PROFAMCHA050601173053173117000024xxLizzie McGuire - SFX (MD) - Coming Up Next                                                                                150                                
PROFAMCHA050601173117173159000042Family Kicks - 3x, daily (MD/NS/NSW)                                                                                        150                                
PRCFAMCHA050601173159173229000030Darcy's Wild Life - (NS) - Tonight @ 6pm                                                                                    150                                
PRCFAMCHA050601173229173240000011Naturally Sadie - Teaser ID - Catch my new show co                                                                          150                                
PROFAMCHA050601173240173339000059Laurentien/Zoey - This Week - Double Ended Pencils                                                                          150                                
PROFAMCHA050601173339173347000008Zoey 101 ID - I'm Jamie Lynn Spears, you're watchi                                                                          150                                
ID FAMCHA050601173347173400000013Mad Dash Block Open (:13-:15)                                                                                               150                                
ID FAMCHA050601173400173408000008Magic of Disney - MAD DASH - Shape (:06-:09)                                                                                150                                
PROFAMCHA050601173408173417000009CC Disclaimer - FAST - Family.ca (:08-:10)                                                                                  150                                
PGRFAMCHA050601173417175648002231Lizzie McGuire                                    EP: 2-014                                                           A6068607BCC                              
PRCFAMCHA050601175648175653000005Astral ID (FEB05)                                                                                                           150                                
PROFAMCHA050601175653175708000015Nonstop - 01(M-T) - DARCY/RAVEN/EVEN (:14-:16) (MA                                                                          150                                
PROFAMCHA050601175708175738000030Ferris Bueller's Day Off (PP) - Friday @ 7:30pm                                                                             150                                
PROFAMCHA050601175738175829000051Kellogg's Kidz Count - May 16 to July 10                                                                                    150                                
PRCFAMCHA050601175829175848000019Radio Free Roscoe - Webthrow (Pronto)                                                                                       150                                
PROFAMCHA050601175848175933000045Adventures of Shark Boy & Lava Girl - Coming Soon                                                                           150                                
PRCFAMCHA050601175933175945000012xxFamily Bumpers - (Phase 1 Spring 04) - Pillow Fi                                                                          150                                
ID FAMCHA050601175945180000000015Nonstop Block Open (:14-:17)                                                                                                150                                
PROFAMCHA050601180000180009000009CC Disclaimer - FAST - Family.ca (:08-:10)                                                                                  150                                
PGRFAMCHA050601180009182139002130Darcy's Wild Life                                 EP: 06                                                        A03953 1065607BCC                              
PROFAMCHA050601182139182155000016Nonstop - 02(M-T) - RAVEN/EVEN/RADIO (:14-:16) (MA                                                                          150                                
ID FAMCHA050601182155182220000025Darcy's Wild Life Web BBD - visit family.ca                                                                                 150                                
PRCFAMCHA050601182220182252000032That's So Raven - Science Riff (NS) (MAY05) - Comi                                                                          150                                
PROFAMCHA050601182252182327000035Sisterhood of the Travelling Pants Blast! -  (May                                                                           150                                
PRCFAMCHA050601182327182354000027Radio Free Roscoe - (APR05) (NS/M-T) - Tonight @ 7                                                                          150                                
PROFAMCHA050601182354182424000030Double Teamed (SEPT12) - Next Friday @ 7:30pm                                                                               150                                
PROFAMCHA050601182424182506000042Family Kicks - 3x, daily (MD/NS/NSW)                                                                                        150                                
PROFAMCHA050601182506182536000030Zoey 101 - Perfect (NS/FRI) (MAR05) - Friday @ 6pm                                                                          150                                
PRCFAMCHA050601182536182606000030Phil of the Future (NS) (PIM) (DEC04) - Friday @ 6                                                                          150                                
INTFAMCHA050601182606182739000133Gagsters -  Phony Photos                          EP: 46                                                              A20686120                                
PROFAMCHA050601182739182808000029Smart Guy (APR04) - Mon to Thurs @ 11:30pm                                                                                  150                                
PROFAMCHA050601182808182907000059Download - School Gadgets (May 22, - June 30) 3x,                                                                           150                                
PROFAMCHA050601182907182937000030Ferris Bueller's Day Off (PP) - Friday @ 7:30pm                                                                             150                                
PRCFAMCHA050601182937182943000006Family Bumpers - (Phase 2 F/W 04) - Gymnastics (MD                                                                          150                                
ID FAMCHA050601182943182959000016Nonstop Block Open (:14-:17)                                                                                                150                                
PGRFAMCHA050601182959185238002239That's So Raven                                   EPS # 1-028                                                         A6068807B                                
PRCFAMCHA050601185238185243000005Astral ID (FEB05)                                                                                                           150                                
PROFAMCHA050601185243185259000016Nonstop - 03(M-T) - EVEN/RADIO/BMW (:14-:16) (MAY0                                                                          150                                
PROFAMCHA050601185259185332000033Even Stevens - Stinky Feet (MAR05) - (NS/M-TH) - C                                                                          150                                
PROFAMCHA050601185332185423000051Kellogg's Kidz Count - May 16 to July 10                                                                                    150                                
PRCFAMCHA050601185423185450000027Radio Free Roscoe - (APR05) (NS/M-T) - Tonight @ 7                                                                          150                                
PROFAMCHA050601185450185507000017Zoey 101 - Jaime (NS/FRI) (MAR05) - Fridays @ 6pm                                                                           150                                
PROFAMCHA050601185507185537000030Smart Guy (APR04) - Mon to Thurs @ 11:30pm                                                                                  150                                
PROFAMCHA050601185537185547000010FAMJAM - Open/Close                                                                                                         150                                
INTFAMCHA050601185547185717000130MV Disney - (MD/NS/NSW) - She's No You (SHORT) (Je                                                                     60688120                                
PROFAMCHA050601185717185731000014xxFAMJAM - Close (FAMILY) xxDNUxx                                                                                           150                                
PRCFAMCHA050601185731185755000024Darcy's Wild Life - (CHIMP) (NS) - Tomorrow @ 6pm                                                                           150                                
PROFAMCHA050601185755185824000029Smart Guy (APR04) - Mon to Thurs @ 11:30pm                                                                                  150                                
PROFAMCHA050601185824185849000025Wendy's Team of the Week Contest                                                                                            150                                
PROFAMCHA050601185849185919000030Ferris Bueller's Day Off (PP) - Friday @ 7:30pm                                                                             150                                
PRCFAMCHA050601185919185930000011Naturally Sadie - Teaser ID - Catch my new show co                                                                          150                                
PRCFAMCHA050601185930185944000014xxFamily Bumpers - (Phase 1 Spring 04) - Basketbal                                                                          150                                
ID FAMCHA050601185944190001000017Nonstop Block Open (:14-:17)                                                                                                150                                
PGRFAMCHA050601190001192243002242Even Stevens                                      EP: 1-008                                                           A6068807B                                
PROFAMCHA050601192243192257000014Nonstop - 04(M-T) - RADIO/BMW/BROTHERLY (:14-:16)                                                                           150                                
PRCFAMCHA050601192257192324000027Radio Free Roscoe - (APR05) (NS/M-T) - Coming Up N                                                                          150                                
PROFAMCHA050601192324192409000045Adventures of Shark Boy & Lava Girl - Coming Soon                                                                           150                                
PROFAMCHA050601192409192439000030Double Teamed (SEPT12) - Next Friday @ 7:30pm                                                                               150                                
PRCFAMCHA050601192439192509000030Phil of the Future (NS) (PIM) (DEC04) - Friday @ 6                                                                          150                                
PROFAMCHA050601192509192629000120Download - Space (May 22 - June 30) 3x, daily (MD/                                                                          150                                
PROFAMCHA050601192629192656000027All That (JLS) (NSW) - Weekends @ 7:20am                                                                                    150                                
PRCFAMCHA050601192656192712000016Radio Free Roscoe - Webthrow (Smog)                                                                                         150                                
PROFAMCHA050601192712192742000030Smart Guy (APR04) - Mon to Thurs @ 11:30pm                                                                                  150                                
PROFAMCHA050601192742192912000130Movie Surfers - Herbie: Fully Loaded - Coming Soon                                                                          150                                
PROFAMCHA050601192912192942000030Ferris Bueller's Day Off (PP) - Friday @ 7:30pm                                                                             150                                
PRCFAMCHA050601192942192948000006Family Bumpers - (Phase 3 Spring 05) - Bubble Gum                                                                           150                                
ID FAMCHA050601192948193004000016Nonstop Block Open (:14-:17)                                                                                                150                                
PROFAMCHA050601193004193013000009CC Disclaimer - FAST - Family.ca (:08-:10)                                                                                  150                                
PGRFAMCHA050601193013195243002230Radio Free Roscoe                                 EPS # 22                                                      B88735A1065607ACC                              
PRCFAMCHA050601195243195248000005Astral ID (FEB05)                                                                                                           150                                
PROFAMCHA050601195248195303000015Nonstop - 05(M-T) - BMW/BROTHERLY/N-PIX (:14-:16)                                                                           150                                
PROFAMCHA050601195303195333000030Double Teamed (SEPT12) - Next Friday @ 7:30pm                                                                               150                                
PROFAMCHA050601195333195408000035Sisterhood of the Travelling Pants Blast! -  (May                                                                           150                                
PRCFAMCHA050601195408195432000024Darcy's Wild Life - (CHIMP) (NS) - Tomorrow @ 6pm                                                                           150                                
PRCFAMCHA050601195432195459000027Radio Free Roscoe - (APR05) (NS/M-T) - Tomorrow @                                                                           150                                
PROFAMCHA050601195459195509000010FAMJAM - Open/Close                                                                                                         150                                
INTFAMCHA050601195509195639000130MV Disney - (FAMILY HITS) That's So Raven Theme So                                                                     60688120                                
PROFAMCHA050601195639195653000014xxFAMJAM - Close (FAMILY) xxDNUxx                                                                                           150                                
PROFAMCHA050601195653195723000030Zoey 101 - Perfect (NS/FRI) (MAR05) - Friday @ 6pm                                                                          150                                
PROFAMCHA050601195723195753000030xxNed's DSSG - TIPS (NS/FRI) (APR05) - Fridays @ 7                                                                          150                                
PROFAMCHA050601195753195852000059Download - School Gadgets (May 22, - June 30) 3x,                                                                           150                                
PROFAMCHA050601195852195919000027All That (JLS) (NSW) - Weekends @ 7:20am                                                                                    150                                
PROFAMCHA050601195919195949000030Ferris Bueller's Day Off (PP) - Friday @ 7:30pm                                                                             150                                
ID FAMCHA050601195949200005000016Nonstop Block Open (:14-:17)                                                                                                150                                
PROFAMCHA050601200005200014000009CC Disclaimer - FAST - Family.ca (:08-:10)                                                                                  150                                
PGRFAMCHA050601200014202217002203Boy Meets World                                   EP: 1-059                                                           B6068807BCC                              
PROFAMCHA050601202217202232000015Nonstop - 06(M-T) - BROTHERLY/N-PIX (:14-:16) (MAY                                                                          150                                
PROFAMCHA050601202232202311000039Brotherly Love (NSW) - Tomorrow @ 11:30am                                                                                   150                                
PROFAMCHA050601202311202353000042Family Kicks - 3x, daily (MD/NS/NSW)                                                                                        150                                
PRCFAMCHA050601202353202416000023Darcy's Wild Life - (GOAT PILLS) (NS) - Tomorrow @                                                                          150                                
ID FAMCHA050601202416202441000025Darcy's Wild Life Web BBD - visit family.ca                                                                                 150                                
PROFAMCHA050601202441202511000030Smart Guy (APR04) - Mon to Thurs @ 11:30pm                                                                                  150                                
PROFAMCHA050601202511202631000120Download - Space (May 22 - June 30) 3x, daily (MD/                                                                          150                                
PROFAMCHA050601202631202701000030Zoey 101 - Perfect (NS/FRI) (MAR05) - Friday @ 6pm                                                                          150                                
PROFAMCHA050601202701202731000030xxNed's DSSG - TIPS (NS/FRI) (APR05) - Fridays @ 7                                                                          150                                
PROFAMCHA050601202731202901000130Movie Surfers - Herbie: Fully Loaded - Coming Soon                                                                          150                                
PROFAMCHA050601202901202931000030Ferris Bueller's Day Off (PP) - Friday @ 7:30pm                                                                             150                                
PRCFAMCHA050601202931202942000011Naturally Sadie - Teaser ID - Catch my new show co                                                                          150                                
PRCFAMCHA050601202942202948000006Family Bumpers - (Phase 3 Spring 05) - Bubble Gum                                                                           150                                
ID FAMCHA050601202948203004000016Nonstop Block Open (:14-:17)                                                                                                150                                
PGRFAMCHA050601203004205253002249Brotherly Love                                    EPS # 05                                                             6068807B                                
PRCFAMCHA050601205253205258000005Astral ID (FEB05)                                                                                                           150                                
PROFAMCHA050601205258205312000014Nightly Pix Line-up (SEPT) - GENERIC (:14-:16)                                                                              150                                
PRCFAMCHA050601205312205336000024Darcy's Wild Life - (CHIMP) (NS) - Tomorrow @ 6pm                                                                           150                                
PROFAMCHA050601205336205421000045Adventures of Shark Boy & Lava Girl - Coming Soon                                                                           150                                
PRCFAMCHA050601205421205453000032That's So Raven - Science Riff (NS) (MAY05) - Tomo                                                                          150                                
PROFAMCHA050601205453205503000010FAMJAM - Open/Close                                                                                                         150                                
INTFAMCHA050601205503205819000316MV Disney - Girl Power (Cheetah Girls)                                                                                 60688120                                
PROFAMCHA050601205819205833000014xxFAMJAM - Close (FAMILY) xxDNUxx                                                                                           150                                
PROFAMCHA050601205833205902000029Smart Guy (APR04) - Mon to Thurs @ 11:30pm                                                                                  150                                
PROFAMCHA050601205902205932000030Ferris Bueller's Day Off (PP) - Friday @ 7:30pm                                                                             150                                
PROFAMCHA050601205932205940000008Phil of the Future IDs - I'm Ricky Ullman, You're                                                                           150                                
PRCFAMCHA050601205940205949000009xxFamily Bumpers - (Phase 1 Spring 04) - DJ Spinni                                                                          150                                
ID FAMCHA050601205949210003000014Nonstop Block Open (:14-:17)                                                                                                150                                
ID FAMCHA050601210003210012000009Rating - AA - Ian (:08-:10)                                                                                                 150                                
PROFAMCHA050601210012210021000009CC Disclaimer - SLOW - Family.ca (:08-:10)                                                                                  150                                
PGRFAMCHA050601210021231205021144Legends Of The Fall                                                                                                    2068807DCC                              
PROFAMCHA050601231205231220000015PS - 01(PH) - WTP/Benjamin/Franny                                                                                           150                                
PRCFAMCHA050601231220231225000005Astral ID (FEB05)                                                                                                           150                                
ID FAMCHA050601231225231239000014Nonstop Block Open (:14-:17)                                                                                                150                                
PGRFAMCHA050601231239000104004825My So-Called Life                                 EPS # 09                                                             2068807A                                
PROFAMCHA050601000104000118000014PS - 01(PH) - WTP/Benjamin/Franny                                                                                           150                                
ID FAMCHA050601000118000132000014Nonstop Block Open (:14-:17)                                                                                                150                                
PROFAMCHA050601000132000141000009CC Disclaimer - SLOW - Family.ca (:08-:10)                                                                                  150                                
PGRFAMCHA050601000141002452002311Mentors                                           EP: 2-020                                                     C17437 1065607ACC                              
PRCFAMCHA050601002452002457000005Astral ID (FEB05)                                                                                                           150                                
PROFAMCHA050601002457002512000015PS - 01(PH) - WTP/Benjamin/Franny                                                                                           150                                
ID FAMCHA050601002512002527000015Nonstop Block Open (:14-:17)                                                                                                150                                
PGRFAMCHA050601002527004947002420Are You Afraid Of The Dark?                       EP: 1-072                                                     SR0307 1066807ACC                              
PROFAMCHA050601004947005002000015PS - 01(PH) - WTP/Benjamin/Franny                                                                                           150                                
ID FAMCHA050601005002005017000015Nonstop Block Open (:14-:17)                                                                                                150                                
PGRFAMCHA050601005017010716001659Art Attack                                        EP: 1-166                                                           A60686110                                
PRCFAMCHA050601010716010721000005Astral ID (FEB05)                                                                                                           150                                
PRCFAMCHA050601010721010751000030Astral - Clock (until June 26)                                                                                              150                                
SO FAMCHA050601010751010803000012Sign Off                                                                                                                                                       
OFFFAMCHA050601010803043000032157OFF AIR                                                                                                                                                        
SO FAMCHA050602043000043011000011Sign On (oct 1)                                                                                                                                                
PROFAMCHA050602043011043020000009CC Disclaimer - FAST - Family.ca (:08-:10)                                                                                  150                                
PGRFAMCHA050602043020045313002253Franklin                                          EP: 4-044                                                     B38151A1065607ECC                              
PRCFAMCHA050602045313045318000005Astral ID (FEB05)                                                                                                           150                                
PROFAMCHA050602045318045333000015PS - 01(PH) - WTP/Benjamin/Franny                                                                                           150                                
ID FAMCHA050602045333045346000013PS Playhouse AM Block Open (:10-:15)                                                                                        150                                
PROFAMCHA050602045346045355000009CC Disclaimer - FAST - Family.ca (:08-:10)                                                                                  150                                
PGRFAMCHA050602045355051625002230King                                              EP: 006                                                       B75761A1065607ECC                              
PROFAMCHA050602051625051640000015PS - 01(PH) - WTP/Benjamin/Franny                                                                                           150                                
ID FAMCHA050602051640051653000013PS Playhouse AM Block Open (:10-:15)                                                                                        150                                
PROFAMCHA050602051653051702000009CC Disclaimer - FAST - Family.ca (:08-:10)                                                                                  150                                
PGRFAMCHA050602051702054340002638Katie And Orbie                                   EP: 5-063                                                     C19665A1065607ECC                              
PRCFAMCHA050602054340054345000005Astral ID (FEB05)                                                                                                           150                                
PROFAMCHA050602054345054401000016PS - 01(PH) - WTP/Benjamin/Franny                                                                                           150                                
ID FAMCHA050602054401054414000013PS Playhouse AM Block Open (:10-:15)                                                                                        150                                
PROFAMCHA050602054414054423000009CC Disclaimer - FAST - Family.ca (:08-:10)                                                                                  150                                
PGRFAMCHA050602054423060716002253Franklin                                          EP: 4-045                                                     B38152A1065607ECC                              
PROFAMCHA050602060716060731000015PS - 01(PH) - WTP/Benjamin/Franny                                                                                           150                                
ID FAMCHA050602060731060744000013PS Playhouse AM Block Open (:10-:15)                                                                                        150                                
PROFAMCHA050602060744060753000009CC Disclaimer - FAST - Family.ca (:08-:10)                                                                                  150                                
PGRFAMCHA050602060753063026002233Something Else                                    EP: 1-007                                                     B69261A1065607ECC                              
PRCFAMCHA050602063026063031000005Astral ID (FEB05)                                                                                                           150                                
PROFAMCHA050602063031063046000015PS - 01(PH) - WTP/Benjamin/Franny                                                                                           150                                
ID FAMCHA050602063046063059000013PS Playhouse AM Block Open (:10-:15)                                                                                        150                                
PROFAMCHA050602063059063108000009CC Disclaimer - FAST - Family.ca (:08-:10)                                                                                  150                                
PGRFAMCHA050602063108065346002238Hoze Houndz                                       EP: 4-042                                                     B63378A1065607ECC                              
PROFAMCHA050602065346065401000015PS - 01(PH) - WTP/Benjamin/Franny                                                                                           150                                
PROFAMCHA050602065401065426000025Jack (PP) (MAY05) - Next Friday @ 7:30pm                                                                                    150                                
ID FAMCHA050602065426065440000014Mad Dash Block Open (:13-:15)                                                                                               150                                
PROFAMCHA050602065440065449000009CC Disclaimer - FAST - Family.ca (:08-:10)                                                                                  150                                
PGRFAMCHA050602065449071728002239Disney's Aladdin                                  EP: 1-024                                                            6068607ECC                              
PRCFAMCHA050602071728071733000005Astral ID (FEB05)                                                                                                           150                                
PROFAMCHA050602071733071747000014PS - 01(PH) - WTP/Benjamin/Franny                                                                                           150                                
PROFAMCHA050602071747071817000030Kim Possible 007 (FEB05) (MD) - Coming Up Next                                                                              150                                
PROFAMCHA050602071817071859000042Family Kicks - 3x, daily (MD/NS/NSW)                                                                                        150                                
PROFAMCHA050602071859071927000028Lilo & Stitch (MD/AM) (JAN05) - Today @ 7:50am                                                                              150                                
PRCFAMCHA050602071927071957000030Mad Dash - AM (OLDER) - You're Watching                                                                                     150                                
PROFAMCHA050602071957072021000024Jason (Hiking) - Today @ 11:25am                                                                                            150                                
PRCFAMCHA050602072021072037000016Radio Free Roscoe - Webthrow (Smog)                                                                                         150                                
PRCFAMCHA050602072037072048000011Family Bumpers - (Phase 2 F/W 04) - Science (MD-AM                                                                          150                                
ID FAMCHA050602072048072101000013Mad Dash Block Open (:13-:15)                                                                                               150                                
PGRFAMCHA050602072101074355002254Disney's Kim Possible                             EPS # 1-038                                                         A6068607E                                
PROFAMCHA050602074355074410000015PS - 01(PH) - WTP/Benjamin/Franny                                                                                           150                                
PROFAMCHA050602074410074438000028Lilo & Stitch (MD) (JAN05) - Coming Up Next                                                                                 150                                
PROFAMCHA050602074438074502000024Jason (Hiking) - Today @ 11:25am                                                                                            150                                
PROFAMCHA050602074502074622000120Download - Space (May 22 - June 30) 3x, daily (MD/                                                                          150                                
PROFAMCHA050602074622074653000031Hercules (Wits) - Today @ 12:10pm                                                                                           150                                
PROFAMCHA050602074653074739000046xxFillmore! - Chase (MD) (APR05) - Today @ 3pm                                                                              150                                
PRCFAMCHA050602074739074809000030Mad Dash - AM (OLDER) - You're Watching                                                                                     150                                
PROFAMCHA050602074809074834000025Jack (PP) (MAY05) - Next Friday @ 7:30pm                                                                                    150                                
PRCFAMCHA050602074834074845000011Naturally Sadie - Teaser ID - Catch my new show co                                                                          150                                
ID FAMCHA050602074845074900000015Mad Dash Block Open (:13-:15)                                                                                               150                                
PROFAMCHA050602074900074909000009CC Disclaimer - FAST - Family.ca (:08-:10)                                                                                  150                                
PGRFAMCHA050602074909081148002239Disney's Lilo & Stitch: The Series                EP: 60                                                               6028607E                                
PRCFAMCHA050602081148081153000005Astral ID (FEB05)                                                                                                           150                                
PROFAMCHA050602081153081208000015PS - 01(PH) - WTP/Benjamin/Franny                                                                                           150                                
PROFAMCHA050602081208081232000024Jason (Hiking) - Today @ 11:25am                                                                                            150                                
PROFAMCHA050602081232081256000024Hercules (Count) - Today @ 12:10pm                                                                                          150                                
PROFAMCHA050602081256081355000059Download - School Gadgets (May 22, - June 30) 3x,                                                                           150                                
PROFAMCHA050602081355081407000012Mad Dash - RECESS - Sprinkler                                                                                               150                                
PROFAMCHA050602081407081453000046xxFillmore! - Chase (MD) (APR05) - Today @ 3pm                                                                              150                                
PRCFAMCHA050602081453081523000030Mad Dash - AM (YOUNGER) - You're Watching                                                                                   150                                
PROFAMCHA050602081523081617000054Weekenders - B-Ball - (APR05) - Today @ 3:25pm                                                                              150                                
PROFAMCHA050602081617081639000022xxRecess - Dance - (APR05) - Today @ 3:50pm                                                                                 150                                
PRCFAMCHA050602081639081645000006Family Bumpers - (Phase 3 Spring 05) - Bubble Gum                                                                           150                                
ID FAMCHA050602081645081700000015Mad Dash Block Open (:13-:15)                                                                                               150                                
PROFAMCHA050602081700081709000009CC Disclaimer - FAST - Family.ca (:08-:10)                                                                                  150                                
PGRFAMCHA050602081709084011002302The Little Mermaid                                EP: 1-008                                                            6068607ECC                              
PROFAMCHA050602084011084026000015PS - 01(PH) - WTP/Benjamin/Franny                                                                                           150                                
PROFAMCHA050602084026084056000030Playhouse (FUNTIMES) - (AM) - Weekdays @ 8:30am                                                                       A     150                                
PROFAMCHA050602084056084125000029xxWinnie the Pooh (TRAP) (PH/AM) - Today @ 9:10am                                                                           150                                
PROFAMCHA050602084125084159000034Jojo's Circus - GIGGLECORN - Today @ 9:40am                                                                                 150                                
PROFAMCHA050602084159084229000030Higglytown Heroes (MAR05) (T/T) - Today @ 10:05am                                                                           150                                
INTFAMCHA050602084229084359000130Disney Circle Time (2005) - Growing Smiles                                                                             60688120                                
PRCFAMCHA050602084359084414000015Franny's Feet - Bowleriffic (PH-M/W/F) - Tomorrow                                                                           150                                
PRCFAMCHA050602084414084434000020Benjamin Bear - Snack (PH) - Coming Up Next                                                                                 150                                
PRCFAMCHA050602084434084446000012Family Bumpers - (Phase 1 Spring 04) - Funhouse (P                                                                          150                                
ID FAMCHA050602084446084500000014PS Playhouse AM Block Open (:10-:15)                                                                                        150                                
PROFAMCHA050602084500084509000009CC Disclaimer - FAST - Family.ca (:08-:10)                                                                                  150                                
PGRFAMCHA050602084509090744002235The Secret World Of Benjamin Bear                 EPS # 1-012                                                   A75157A1065607ECC                              
PRCFAMCHA050602090744090749000005Astral ID (FEB05)                                                                                                           150                                
PROFAMCHA050602090749090805000016PS - 01(PH) - WTP/Benjamin/Franny                                                                                           150                                
PROFAMCHA050602090805090834000029xxWinnie the Pooh (TRAP) (PH/AM) - Coming Up Next                                                                           150                                
PROFAMCHA050602090834090908000034Jojo's Circus - GIGGLECORN - Today @ 9:40am                                                                                 150                                
PROFAMCHA050602090908090938000030Playhouse (FUNTIMES) - (AM) - Weekdays @ 8:30am                                                                       A     150                                
PROFAMCHA050602090938091008000030Higglytown Heroes (MAR05) (T/T) - Today @ 10:05am                                                                           150                                
INTFAMCHA050602091008091208000200Disney Circle Time (2005) - The Greedy Dog                                                                             60688120                                
PROFAMCHA050602091208091227000019Henry's World (JAN05) - Today @ 10:35am                                                                                     150                                
ID FAMCHA050602091227091242000015Franny's Feet Web BBD - Part of Playhouse @ family                                                                          150                                
ID FAMCHA050602091242091257000015PS Playhouse AM Block Open (:10-:15)                                                                                        150                                
PROFAMCHA050602091257091306000009CC Disclaimer - FAST - Family.ca (:08-:10)                                                                                  150                                
PGRFAMCHA050602091306093549002243The New Adventures of Winnie the Pooh             EP: 1-040                                                            6068607ECC                              
PROFAMCHA050602093549093605000016PS - 12(PH) - JOJO/STANLEY/HENRY (:14-:16) (Jan12)                                                                          150                                
PROFAMCHA050602093605093639000034Jojo's Circus - GIGGLECORN - Coming Up Next                                                                                 150                                
PROFAMCHA050602093639093709000030Higglytown Heroes (MAR05) (T/T) - Today @ 10:05am                                                                           150                                
PROFAMCHA050602093709093728000019Henry's World (JAN05) - Today @ 10:35am                                                                                     150                                
PROFAMCHA050602093728093758000030Princess Block (NOV04) - Today @ 1pm                                                                                        150                                
PRCFAMCHA050602093758093828000030Franny's Feet - Feet Talkin' (PH-M/W/F) - Tomorrow                                                                          150                                
PRCFAMCHA050602093828093914000046Playhouse - STANLEY - Squirrel Song                                                                                         150                                
PROFAMCHA050602093914093944000030Stanley - Get Into It (MAR05) - (PH-M/W/F) - Tomor                                                                          150                                
ID FAMCHA050602093944093959000015PS Playhouse AM Block Open (:10-:15)                                                                                        150                                
PGRFAMCHA050602093959100407002408JoJo's Circus                                     EPS # 15                                                            A6068607E                                
PRCFAMCHA050602100407100412000005Astral ID (FEB05)                                                                                                           150                                
PROFAMCHA050602100412100427000015PS - 01(PH) - WTP/Benjamin/Franny                                                                                           150                                
PROFAMCHA050602100427100457000030Higglytown Heroes (MAR05) (T/T) - Coming Up Next                                                                            150                                
PROFAMCHA050602100457100516000019Henry's World (JAN05) - Today @ 10:35am                                                                                     150                                
PRCFAMCHA050602100516100547000031xxKing (MAY05) (PH/AM) - Today @ 11am                                                                                       150                                
PROFAMCHA050602100547100617000030Playhouse (FUNTIMES) - (AM) - Weekdays @ 8:30am                                                                       A     150                                
PRCFAMCHA050602100617100647000030Franny's Feet - Feet Talkin' (PH-M/W/F) - Tomorrow                                                                          150                                
PRCFAMCHA050602100647100717000030Playhouse - FRANKLIN - Skunk                                                                                                150                                
PROFAMCHA050602100717100747000030Stanley - Get Into It (MAR05) - (PH-M/W/F) - Tomor                                                                          150                                
ID FAMCHA050602100747100800000013PS Playhouse AM Block Open (:10-:15)                                                                                        150                                
PGRFAMCHA050602100800103205002405Higglytown Heroes                                 EPS # 24                                                             6028607E                                
PROFAMCHA050602103205103221000016PS - 01(PH) - WTP/Benjamin/Franny                                                                                           150                                
PROFAMCHA050602103221103240000019Henry's World (JAN05) - Coming Up Next                                                                                      150                                
PRCFAMCHA050602103240103311000031xxKing (MAY05) (PH/AM) - Today @ 11am                                                                                       150                                
PROFAMCHA050602103311103341000030Princess Block (NOV04) - Today @ 1pm                                                                                        150                                
ID FAMCHA050602103341103356000015PS Playhouse AM Block Open (:10-:15)                                                                                        150                                
PROFAMCHA050602103356103405000009CC Disclaimer - FAST - Family.ca (:08-:10)                                                                                  150                                
PGRFAMCHA050602103405105809002404Henry's World                                     EPS # 2-022                                                   B81053A1065607GCC                              
PRCFAMCHA050602105809105814000005Astral ID (FEB05)                                                                                                           150                                
PROFAMCHA050602105814105829000015PS - 01(PH) - WTP/Benjamin/Franny                                                                                           150                                
PRCFAMCHA050602105829105900000031xxKing (MAY05) (PH/AM) - Coming Up Next                                                                                     150                                
PROFAMCHA050602105900105930000030Playhouse (FUNTIMES) - (AM) - Weekdays @ 8:30am                                                                       A     150                                
PRCFAMCHA050602105930105947000017Hoze Houndz (SQUIRT) - (PS) - Weekdays @ 6:35am                                                                             150                                
ID FAMCHA050602105947110000000013PS Playhouse AM Block Open (:10-:15)                                                                                        150                                
PROFAMCHA050602110000110009000009CC Disclaimer - FAST - Family.ca (:08-:10)                                                                                  150                                
PGRFAMCHA050602110009112239002230King                                              EPS # 2-025                                                   B75780A1065607ECC                              
PROFAMCHA050602112239112254000015PS - 01(PH) - WTP/Benjamin/Franny                                                                                           150                                
PROFAMCHA050602112254112319000025Jack (PP) (MAY05) - Next Friday @ 7:30pm                                                                                    150                                
PRCFAMCHA050602112319112346000027xxMad Dash - GUIDE - Tomorrow starting @ 3pm                                                                                150                                
PROFAMCHA050602112346112414000028xxLilo & Stitch (MD/L) (JAN05) - Today @ 11:50am                                                                            150                                
PROFAMCHA050602112414112534000120Download - Space (May 22 - June 30) 3x, daily (MD/                                                                          150                                
PROFAMCHA050602112534112558000024Hercules (Count) - Today @ 12:10pm                                                                                          150                                
PROFAMCHA050602112558112622000024Jason (Hiking) - Coming Up Next                                                                                             150                                
PRCFAMCHA050602112622112633000011Naturally Sadie - Teaser ID - Catch my new show co                                                                          150                                
PRCFAMCHA050602112633112647000014xxFamily Bumpers - (Phase 1 Spring 04) - Basketbal                                                                          150                                
ID FAMCHA050602112647112700000013Mad Dash Block Open (:13-:15)                                                                                               150                                
PGRFAMCHA050602112700114915002215Jason and the Heroes of Mount Olympus             EPS # 08                                                             6068607E                                
PRCFAMCHA050602114915114920000005Astral ID (FEB05)                                                                                                           150                                
PROFAMCHA050602114920114935000015PS - 01(PH) - WTP/Benjamin/Franny                                                                                           150                                
PRCFAMCHA050602114935114947000012Mad Dash - WEEKENDERS - Reality                                                                                             150                                
ID FAMCHA050602114947115000000013Mad Dash Block Open (:13-:15)                                                                                               150                                
PGRFAMCHA050602115000121240002240Disney's Lilo & Stitch                            EPS # 10                                                            A6068607E                                
PROFAMCHA050602121240121255000015PS - 01(PH) - WTP/Benjamin/Franny                                                                                           150                                
ID FAMCHA050602121255121309000014Mad Dash Block Open (:13-:15)                                                                                               150                                
PGRFAMCHA050602121309123610002301Disney's Hercules                                 EP: 1-005                                                            6068607E                                
PRCFAMCHA050602123610123615000005Astral ID (FEB05)                                                                                                           150                                
PROFAMCHA050602123615123630000015PS - 01(PH) - WTP/Benjamin/Franny                                                                                           150                                
PROFAMCHA050602123630123655000025Jack (PP) (MAY05) - Next Friday @ 7:30pm                                                                                    150                                
ID FAMCHA050602123655123709000014Mad Dash Block Open (:13-:15)                                                                                               150                                
