SO FAMCHA060301043000043011000011Sign On (oct 1)                                                                                                                                                
PROFAMCHA060301043011043020000009CC Disclaimer - FAST - Family.ca (:08-:10)                                                                                  150                                
PGRFAMCHA060301043020045655002635Katie And Orbie                                   EP: 2-021                                                     C11896A1065607ECC                              
PRCFAMCHA060301045655045700000005Astral ID (FEB05)                                                                                                           150                                
PROFAMCHA060301045700045715000015PH - 01 - FRANNY/SOMETHING/HOZE (SEP05) (:14 - 16)                                                                          150                                
ID FAMCHA060301045715045728000013PS Playhouse AM Block Open (:10-:15)                                                                                        150                                
PROFAMCHA060301045728045737000009CC Disclaimer - FAST - Family.ca (:08-:10)                                                                                  150                                
PGRFAMCHA060301045737052007002230Franny's Feet                                     EPS # 36                                                      C23971 1065607ECC                              
PROFAMCHA060301052007052022000015PH - 02 - SOMETHING/HOZE/KING (SEP05) (:14 - 16)                                                                            150                                
ID FAMCHA060301052022052035000013PS Playhouse AM Block Open (:10-:15)                                                                                        150                                
PROFAMCHA060301052035052044000009CC Disclaimer - FAST - Family.ca (:08-:10)                                                                                  150                                
PGRFAMCHA060301052044054315002231Something Else                                    EP: 1-005                                                     B69259A1065607ECC                              
PRCFAMCHA060301054315054320000005Astral ID (FEB05)                                                                                                           150                                
PROFAMCHA060301054320054335000015PH - 03 - HOZE/KING/SPIDERMAN (SEP05) (:14 - 16)                                                                            150                                
ID FAMCHA060301054335054348000013PS Playhouse AM Block Open (:10-:15)                                                                                        150                                
PROFAMCHA060301054348054357000009CC Disclaimer - FAST - Family.ca (:08-:10)                                                                                  150                                
PGRFAMCHA060301054357060636002239Hoze Houndz                                       EP: 3-037                                                     B45778A1065607ECC                              
PROFAMCHA060301060636060651000015PH - 04 - KING/SPIDERMAN/KIM (SEP05) (:14 - 16)                                                                             150                                
ID FAMCHA060301060651060704000013PS Playhouse AM Block Open (:10-:15)                                                                                        150                                
PROFAMCHA060301060704060713000009CC Disclaimer - FAST - Family.ca (:08-:10)                                                                                  150                                
PGRFAMCHA060301060713062943002230King                                              EP: 4-052                                                     C25350A1065607ECC                              
PRCFAMCHA060301062943062948000005Astral ID (FEB05)                                                                                                           150                                
PROFAMCHA060301062948063003000015PH - 05 - SPIDERMAN/KIM/RECESS (SEP05) (:14 - 16)                                                                           150                                
ID FAMCHA060301063003063022000019MadMadMornings Block Open                                                                                                   150                                
PGRFAMCHA060301063022065156002134Spiderman                                         EP: 26                                                        C02618 1065607E                                
PROFAMCHA060301065156065211000015MMM - 01 (AM) - KIM/RECESS/WEEKENDERS (OCT05) (:14                                                                          150                                
PRCFAMCHA060301065211065301000050Spring Break Out Calgary Saskatoon - RFR(Feb 27- M                                                                          150                                
PROFAMCHA060301065301065331000030Kim Possible (NOV2003) - (MD) - Coming Up                                                                                   150                                
PROFAMCHA060301065331065403000032Lady & the Tramp - Now for a limited time on DVD(F                                                                          150                                
PROFAMCHA060301065403065441000038xxRecess - Keepin Clean (MD/AM) - (SEP05) - Today                                                                           150                                
PRCFAMCHA060301065441065520000039Mad Dash - WEEKENDERS - Arrival                                                                                             150                                
PRCFAMCHA060301065520065541000021xxLife With Derek Web Streaming Promo                                                                                       150                                
ID FAMCHA060301065541065600000019MadMadMornings Block Open                                                                                                   150                                
PGRFAMCHA060301065600071854002254Disney's Kim Possible                             EPS # 1-042                                                         A6068607E                                
PRCFAMCHA060301071854071859000005Astral ID (FEB05)                                                                                                           150                                
PROFAMCHA060301071859071913000014MMM - 02 (AM) - RECESS/WEEKENDERS/LILO (OCT05) (:1                                                                          150                                
PRCFAMCHA060301071913071943000030xxSBI - Mondo March - Starting March 13th @ 6pm (M                                                                          150                                
PROFAMCHA060301071943072021000038xxRecess - Keepin Clean (MD/AM) - (SEP05) - Coming                                                                          150                                
PROFAMCHA060301072021072055000034xxSnow Days (2006) GREAT SKATE - MAR 4/5 (air Feb                                                                           150                                
PROFAMCHA060301072055072149000054xxWeekenders - B-Ball (MD/AM) - (SEP05) - Today @                                                                           150                                
PRCFAMCHA060301072149072219000030xxSuite Life of Zack & cody - NS - Friday @5:35 NE                                                                          150                                
PRCFAMCHA060301072219072253000034Bullying - The Pledge 2004 (w/o music)                                                                                      150                                
PROFAMCHA060301072253072334000041High School Musical Premiere March 10 (March06)                                                                             150                                
PRCFAMCHA060301072334072343000009xxFamily Bumpers - (Phase 3 Spring 05) - Hip Hop (                                                                          150                                
ID FAMCHA060301072343072402000019MadMadMornings Block Open                                                                                                   150                                
PGRFAMCHA060301072402074638002236Disney's Recess                                   EP: 1-012                                                            6068607E                                
PROFAMCHA060301074638074652000014PH - 01 - WEEKENDERS/LILO/EINSTEINS (FEB06) (:14 -                                                                          150                                
PRCFAMCHA060301074652074722000030SBI-Nonstop "All Week" Wknd - Starting March 13th                                                                           150                                
PROFAMCHA060301074722074816000054xxWeekenders - B-Ball (MD/AM) - (SEP05) - Coming U                                                                          150                                
PRCFAMCHA060301074816074906000050Spring Break Out Calgary Saskatoon - RFR(Feb 27- M                                                                          150                                
PRCFAMCHA060301074906074921000015Buzz On Maggie (BUG) (MD-FRI) (NOV05) - Fridays @                                                                           150                                
PROFAMCHA060301074921075021000100Tiger Cruise (WDP) - Saturday @ 1:30pm                                                                                      150                                
PRCFAMCHA060301075021075042000021xxLife With Derek Web Streaming Promo                                                                                       150                                
ID FAMCHA060301075042075101000019MadMadMornings Block Open                                                                                                   150                                
PROFAMCHA060301075101075110000009CC Disclaimer - FAST - Family.ca (:08-:10)                                                                                  150                                
PGRFAMCHA060301075110081357002247Disney's The Weekenders                           EP: 1-027                                                           A6068607ECC                              
PRCFAMCHA060301081357081402000005Astral ID (FEB05)                                                                                                           150                                
PROFAMCHA060301081402081417000015PH - 02 - LILO/EINSTEINS/WINNIE (FEB06) (:14 - 16)                                                                          150                                
PROFAMCHA060301081417081552000135High School Musical #1 - Game-Premiering Friday Ma                                                                          150                                
PROFAMCHA060301081552081619000027xxLilo & Stitch (MD) (SEP05) - Coming Up Next                                                                               150                                
PROFAMCHA060301081619081653000034xxSnow Days (2006) GREAT SKATE - MAR 4/5 (air Feb                                                                           150                                
PROFAMCHA060301081653081701000008Buzz On Maggie (HEEL CLICK) (MD-FRI) (NOV05) - Fri                                                                          150                                
PRCFAMCHA060301081701081740000039xxSuite Life of Zack & cody - NS - Friday @5:35 NE                                                                          150                                
ID FAMCHA060301081740081759000019MadMadMornings Block Open                                                                                                   150                                
PGRFAMCHA060301081759084038002239Disney's Lilo & Stitch: The Series                EP: 60                                                               6068607E                                
PROFAMCHA060301084038084053000015PH - 03 - EINSTEINS/WINNIE/PB&J (FEB06) (:14 - 16)                                                                          150                                
PROFAMCHA060301084053084123000030Little Einstein (PH) (PRESCHOOL) - Coming Up Next                                                                           150                                
ID FAMCHA060301084123084138000015Franny's Feet Web BBD - Part of Playhouse @ family                                                                          150                                
PGRFAMCHA060301084138084433000255They Might Be Giants (ABC's) - The Alphabet Lost a                                                                     60688120                                
PRCFAMCHA060301084433084445000012xxBenjamin Bear - Slide (PH-WKND) (SEP05) - Weeken                                                                          150                                
ID FAMCHA060301084445084458000013PS Playhouse AM Block Open (:10-:15)                                                                                        150                                
PGRFAMCHA060301084458090903002405Disney's Little Einsteins                         EP: 13                                                               6028607E                                
PRCFAMCHA060301090903090908000005Astral ID (FEB05)                                                                                                           150                                
PROFAMCHA060301090908090923000015PH - 04 - WINNIE/PB&J/JOJO (FEB06) (:14 - 16)                                                                               150                                
PROFAMCHA060301090923090953000030xxWinnie the Pooh (PH/AM) (SEP05) - Coming Up Next                                                                          150                                
PRCFAMCHA060301090953091049000056Playhouse - STANLEY - Fish Song                                                                                             150                                
ID FAMCHA060301091049091100000011PS Playhouse AM Block Open (:10-:15)                                                                                        150                                
PROFAMCHA060301091100091109000009CC Disclaimer - FAST - Family.ca (:08-:10)                                                                                  150                                
PGRFAMCHA060301091109093351002242The New Adventures of Winnie the Pooh             EP: 1-035                                                            6068607ECC                              
PROFAMCHA060301093351093406000015PH - 07 - PB&J/JOJO/HIGGLYTOWN (FEB06) (:14 - 16)                                                                           150                                
PRCFAMCHA060301093406093437000031xxKing (PH) (SEP05) - Today @ 11:25am                                                                                       150                                
PGRFAMCHA060301093437093612000135They Might Be Giants (ABC's) - Letter Shapes                                                                           60688120                                
PROFAMCHA060301093612093642000030Little Einstein (PH) (PRESCHOOL) - Tomorrow @ 8:45                                                                          150                                
ID FAMCHA060301093642093655000013PS Playhouse AM Block Open (:10-:15)                                                                                        150                                
PROFAMCHA060301093655093704000009CC Disclaimer - FAST - Family.ca (:08-:10)                                                                                  150                                
PGRFAMCHA060301093704095926002222PB&J Otter                                        EP: 1-003                                                           A6068607ECC                              
PRCFAMCHA060301095926095931000005Astral ID (FEB05)                                                                                                           150                                
PROFAMCHA060301095931095946000015PH - 12 - JOJO/HIGGLY/STANLEY (FEB06) (:14 - 16) W                                                                          150                                
PROFAMCHA060301095946100020000034Jojo's Circus - GIGGLECORN - Coming Up Next                                                                                 150                                
ID FAMCHA060301100020100035000015Franny's Feet Web BBD - Part of Playhouse @ family                                                                          150                                
PGRFAMCHA060301100035100335000300They Might Be Giants (ABC's) - Can You Find It?                                                                        60688120                                
PRCFAMCHA060301100335100347000012xxBenjamin Bear - Slide (PH-WKND) (SEP05) - Weeken                                                                          150                                
ID FAMCHA060301100347100400000013PS Playhouse AM Block Open (:10-:15)                                                                                        150                                
PGRFAMCHA060301100400102807002407JoJo's Circus                                     EPS # 13                                                            A6068607E                                
PROFAMCHA060301102807102822000015PH - 17 - HIGGLYTOWN/STANLEY/KING (FEB06) (:14 - 1                                                                          150                                
PRCFAMCHA060301102822102853000031xxKing (PH) (SEP05) - Today @ 11:25am                                                                                       150                                
PROFAMCHA060301102853102930000037Princess Block - Be A Princess (Frog Prince) PH 1                                                                           150                                
PROFAMCHA060301102930103000000030Little Einstein (PH) (PRESCHOOL) - Tomorrow @ 8:45                                                                          150                                
PRCFAMCHA060301103000103046000046Playhouse - STANLEY - Squirrel Song                                                                                         150                                
ID FAMCHA060301103046103059000013PS Playhouse AM Block Open (:10-:15)                                                                                        150                                
PGRFAMCHA060301103059105504002405Higglytown Heroes                                 EP: 29                                                               6028607E                                
PRCFAMCHA060301105504105509000005Astral ID (FEB05)                                                                                                           150                                
PROFAMCHA060301105509105524000015PH - 20 - STANLEY/KING/LILO (FEB06) (:14 - 16)                                                                              150                                
PROFAMCHA060301105524105554000030Stanley - Get Into It (MAR05) - (PH-M/W/F) - Comin                                                                          150                                
PRCFAMCHA060301105554105617000023xxPlayhouse - HOUSE OF MOUSE - Calculator                                                                                   150                                
PRCFAMCHA060301105617105648000031xxKing (PH) (SEP05) - Today @ 11:25am                                                                                       150                                
ID FAMCHA060301105648105700000012PS Playhouse AM Block Open (:10-:15)                                                                                        150                                
PGRFAMCHA060301105700112056002356Stanley                                           EP: 1-013                                                           A6068607E                                
PROFAMCHA060301112056112111000015PH - 12 (M-T) - KING/LILO/BRANDY (SEP05) (:14 - 16                                                                          150                                
PRCFAMCHA060301112111112142000031xxKing (PH) (SEP05) - Coming Up Next                                                                                        150                                
PGRFAMCHA060301112142112432000250They Might Be Giants (ABC's) - E Eats Everything                                                                       60688120                                
PRCFAMCHA060301112432112444000012xxBenjamin Bear - Slide (PH-WKND) (SEP05) - Weeken                                                                          150                                
ID FAMCHA060301112444112457000013PS Playhouse AM Block Open (:10-:15)                                                                                        150                                
PROFAMCHA060301112457112506000009CC Disclaimer - FAST - Family.ca (:08-:10)                                                                                  150                                
PGRFAMCHA060301112506114736002230King                                              EP: 014                                                       B75768A1065607ECC                              
PRCFAMCHA060301114736114741000005Astral ID (FEB05)                                                                                                           150                                
PROFAMCHA060301114741114756000015MD - 05 (LU-M-T) - LILO/BRANDY/ALADDIN (SEP05) (:1                                                                          150                                
PROFAMCHA060301114756114823000027xxLilo & Stitch (MD) (SEP05) - Coming Up Next                                                                               150                                
PRCFAMCHA060301114823114846000023Mad Dash - WEEKENDERS - Pizza                                                                                               150                                
ID FAMCHA060301114846114900000014Mad Dash Block Open (:13-:15)                                                                                               150                                
PGRFAMCHA060301114900121139002239Disney's Lilo & Stitch: The Series                EPS # 42                                                             6068607E                                
PROFAMCHA060301121139121154000015MD - 06 (LU-M-T) - BRANDY/ALADDIN/HOZE (SEP05) (:1                                                                          150                                
PRCFAMCHA060301121154121217000023xxBrandy & Mr. Whiskers (Fruit Plate) (JAN06) - Co                                                                          150                                
PROFAMCHA060301121217121244000027Aladdin (Love Clip) - Today @ 12:35pm                                                                                       150                                
ID FAMCHA060301121244121258000014Mad Dash Block Open (:13-:15)                                                                                               150                                
ID FAMCHA060301121258121306000008Magic of Disney - MAD DASH - Wipe (:06-:09)                                                                                 150                                
PGRFAMCHA060301121306123544002238Disney's Brandy & Mr. Whiskers                    EP: 21                                                               6068607E                                
PRCFAMCHA060301123544123549000005Astral ID (FEB05)                                                                                                           150                                
PROFAMCHA060301123549123603000014MD - 07 (LU) - ALADDIN/HOZE/HOUSE (SEP05) (:14 - 1                                                                          150                                
PROFAMCHA060301123603123633000030Aladdin (Genie) - Coming Up Next                                                                                            150                                
PRCFAMCHA060301123633123648000015Buzz On Maggie (BUG) (MD-FRI) (NOV05) - Fridays @                                                                           150                                
ID FAMCHA060301123648123701000013Mad Dash Block Open (:13-:15)                                                                                               150                                
PROFAMCHA060301123701123710000009CC Disclaimer - FAST - Family.ca (:08-:10)                                                                                  150                                
PGRFAMCHA060301123710125945002235Disney's Aladdin                                  EP: 1-018                                                            6068607ECC                              
PROFAMCHA060301125945130000000015MD - 08 (LU) - HOZE/HOUSE/DALMATIAN (SEP05) (:14 -                                                                          150                                
ID FAMCHA060301130000130013000013Mad Dash Block Open (:13-:15)                                                                                               150                                
PROFAMCHA060301130013130022000009CC Disclaimer - FAST - Family.ca (:08-:10)                                                                                  150                                
PGRFAMCHA060301130022132300002238Hoze Houndz                                       EP: 5-064                                                     B63400A1065607ECC                              
PRCFAMCHA060301132300132305000005Astral ID (FEB05)                                                                                                           150                                
PROFAMCHA060301132305132320000015MD - 09 (LU) - HOUSE/DALMATIAN/HERCULES (SEP05) (:                                                                          150                                
PRCFAMCHA060301132320132344000024Mad Dash - RECESS - Removal                                                                                                 150                                
ID FAMCHA060301132344132358000014Mad Dash Block Open (:13-:15)                                                                                               150                                
PGRFAMCHA060301132358134634002236Disney's House Of Mouse                           EP: 1-050                                                           A6068607E                                
PROFAMCHA060301134634134649000015MD - 10 (LU) - DALMATIAN/HERCULES/FILLMORE (SEP05)                                                                          150                                
PROFAMCHA060301134649134743000054xxWeekenders - B-Ball (MD/PM) - (SEP05) - Today @                                                                           150                                
ID FAMCHA060301134743134757000014Mad Dash Block Open (:13-:15)                                                                                               150                                
PGRFAMCHA060301134757141043002246Disney's 101 Dalmatians: The Series               EPS # 1-019                                                         A6068607E                                
PRCFAMCHA060301141043141048000005Astral ID (FEB05)                                                                                                           150                                
PROFAMCHA060301141048141103000015MD - 11 (LU) - HERCULES/FILLMORE/WEEKENDERS (SEP05                                                                          150                                
PROFAMCHA060301141103141127000024Hercules (Count) - Coming Up Next                                                                                           150                                
PRCFAMCHA060301141127141139000012Mad Dash - WEEKENDERS - Reality                                                                                             150                                
PRCFAMCHA060301141139141146000007Aly & A.J. IDs - Fam Club at family.ca for Phil in                                                                          150                                
ID FAMCHA060301141146141200000014Mad Dash Block Open (:13-:15)                                                                                               150                                
PGRFAMCHA060301141200143458002258Disney's Hercules                                 EP: 1-019                                                            6068607E                                
PROFAMCHA060301143458143513000015MD - 12 (LU) - FILLMORE/WEEKENDERS/LLOYD (SEP05) (                                                                          150                                
PROFAMCHA060301143513143545000032xxDave the Barbarian - LAY WASTE (MD) (SEP05) - To                                                                          150                                
ID FAMCHA060301143545143559000014Mad Dash Block Open (:13-:15)                                                                                               150                                
PGRFAMCHA060301143559145837002238Disney's Fillmore!                                EPS # 1-014                                                         A6068607E                                
PRCFAMCHA060301145837145842000005Astral ID (FEB05)                                                                                                           150                                
PROFAMCHA060301145842145857000015MD - 13 (PM) - WEEKENDERS/LLOYD/DAVE (SEP05) (:14                                                                           150                                
PRCFAMCHA060301145857145912000015Buzz On Maggie (BUG) (MD-FRI) (NOV05) - Fridays @                                                                           150                                
PROFAMCHA060301145912145944000032Lady & the Tramp - Now for a limited time on DVD(F                                                                          150                                
ID FAMCHA060301145944145959000015Mad Dash Block Open (:13-:15)                                                                                               150                                
PROFAMCHA060301145959150008000009CC Disclaimer - FAST - Family.ca (:08-:10)                                                                                  150                                
PGRFAMCHA060301150008152242002234Disney's The Weekenders                           EP: 1-014                                                           A6068607ECC                              
PROFAMCHA060301152242152257000015MD - 14 (PM) - LLOYD/DAVE/PROUD (SEP05) (:14 - 16)                                                                          150                                
PRCFAMCHA060301152257152334000037xxLloyd In Space (Star Wars) (APR06) - Coming Up N                                                                          150                                
PRCFAMCHA060301152334152417000043Famous Players Popcorn Parties (Jan06)1xMD,2xNSPri                                                                          150                                
PROFAMCHA060301152417152425000008Buzz On Maggie (HEEL CLICK) (MD-FRI) (NOV05) - Fri                                                                          150                                
PRCFAMCHA060301152425152446000021xxLife With Derek Web Streaming Promo                                                                                       150                                
ID FAMCHA060301152446152500000014Mad Dash Block Open (:13-:15)                                                                                               150                                
ID FAMCHA060301152500152508000008Magic of Disney - MAD DASH - Shape (:06-:09)                                                                                150                                
PGRFAMCHA060301152508154801002253Disney's Lloyd In Space                           EP: 11                                                               6068607E                                
PRCFAMCHA060301154801154806000005Astral ID (FEB05)                                                                                                           150                                
PROFAMCHA060301154806154821000015MD - 15 (PM) - DAVE/PROUD/RECESS (SEP05) (:14 - 16                                                                          150                                
PRCFAMCHA060301154821154851000030xxSBI - Mondo March - Starting March 13th @ 6pm (M                                                                          150                                
PROFAMCHA060301154851154914000023xxDave the Barbarian - DANCE (MD) (SEP05) - Coming                                                                          150                                
PROFAMCHA060301154914154946000032Yours, Mine, & Ours - Available Now (Feb 28-March5                                                                          150                                
PROFAMCHA060301154946155006000020xxRecess - Kindergarten (MD/PM) - (SEP05) - Today                                                                           150                                
PRCFAMCHA060301155006155036000030xxSuite Life of Zack & cody - NS - Friday @5:35 NE                                                                          150                                
PRCFAMCHA060301155036155047000011Bullying (2005) (TTP - Stars) - Charlotte Arnold                                                                            150                                
PRCFAMCHA060301155047155137000050Spring Break Out Calgary Saskatoon - RFR(Feb 27- M                                                                          150                                
PRCFAMCHA060301155137155146000009xxFamily Bumpers - (Phase 3 Spring 05) - Giant Foo                                                                          150                                
ID FAMCHA060301155146155200000014Mad Dash Block Open (:13-:15)                                                                                               150                                
PGRFAMCHA060301155200161439002239Disney's Dave the Barbarian                       EPS # 20                                                             6068607E                                
PROFAMCHA060301161439161454000015MD - 16 (PM) - PROUD/RECESS/KIM (SEP05) (:14 - 16)                                                                          150                                
PROFAMCHA060301161454161535000041High School Musical Premiere March 10 (March06)                                                                             150                                
PROFAMCHA060301161535161603000028xxProud Family (NOV04) (MD) - Coming Up Next                                                                                150                                
PROFAMCHA060301161603161637000034xxSnow Days (2006) GREAT SKATE - MAR 4/5 (air Feb                                                                           150                                
PRCFAMCHA060301161637161646000009Naturally Sadie ID's - You're watching Family...NA                                                                          150                                
ID FAMCHA060301161646161700000014Mad Dash Block Open (:13-:15)                                                                                               150                                
PROFAMCHA060301161700161709000009CC Disclaimer - FAST - Family.ca (:08-:10)                                                                                  150                                
PGRFAMCHA060301161709163939002230The Proud Family                                  EP: 1-014                                                           A6068607ECC                              
PRCFAMCHA060301163939163944000005Astral ID (FEB05)                                                                                                           150                                
PROFAMCHA060301163944163958000014MD - 17 (PM-M-T) - RECESS/KIM/LIZZIE (SEP05) (:14                                                                           150                                
PRCFAMCHA060301163958164048000050Spring Break Out Calgary Saskatoon - RFR(Feb 27- M                                                                          150                                
PROFAMCHA060301164048164108000020xxRecess - Kindergarten (MD/PM) - (SEP05) - Coming                                                                          150                                
PROFAMCHA060301164108164140000032Yours, Mine, & Ours - Available Now (Feb 28-March5                                                                          150                                
PROFAMCHA060301164140164210000030Kim Possible (NOV2003) - (MD) - Coming Up                                                                                   150                                
PRCFAMCHA060301164210164249000039xxSuite Life of Zack & cody - NS - Friday @5:35 NE                                                                          150                                
ID FAMCHA060301164249164302000013Mad Dash Block Open (:13-:15)                                                                                               150                                
PGRFAMCHA060301164302170537002235Disney's Recess                                   EP: 1-009                                                            6068607E                                
PROFAMCHA060301170537170551000014MD - 18 (PM-M-T) - KIM/LIZZIE/LITTLE (JAN06) (:14                                                                           150                                
PROFAMCHA060301170551170621000030Kim Possible (NOV2003) - (MD) - Coming Up                                                                                   150                                
PROFAMCHA060301170621170653000032Yours, Mine, & Ours - Available Now (Feb 28-March5                                                                          150                                
PROFAMCHA060301170653170727000034xxSnow Days (2006) GREAT SKATE - MAR 4/5 (air Feb                                                                           150                                
PRCFAMCHA060301170727170748000021xxLife With Derek Web Streaming Promo                                                                                       150                                
ID FAMCHA060301170748170801000013Mad Dash Block Open (:13-:15)                                                                                               150                                
PGRFAMCHA060301170801173055002254Disney's Kim Possible                             EPS # 1-053                                                          6068607E                                
PRCFAMCHA060301173055173100000005Astral ID (FEB05)                                                                                                           150                                
PROFAMCHA060301173100173115000015MD - 19 (PM-M-T) - LIZZIE/LITTLE/DARCY (JAN06) (:1                                                                          150                                
PROFAMCHA060301173115173145000030xxLizzie McGuire - (Romeo) (FEB06) (MD) - Coming U                                                                          150                                
PROFAMCHA060301173145173228000043xxAquamarine Contest - In Theatres March 3 (Feb 20                                                                    A     150                                
PRCFAMCHA060301173228173318000050Spring Break Out Calgary Saskatoon - RFR(Feb 27- M                                                                          150                                
PROFAMCHA060301173318173334000016Zoey 101 ID - Lola - Recognize                                                                                              150                                
PRCFAMCHA060301173334173346000012xxFamily Bumpers - (Phase 3 Spring 05) - Bake (MD/                                                                          150                                
ID FAMCHA060301173346173400000014Mad Dash Block Open (:13-:15)                                                                                               150                                
ID FAMCHA060301173400173408000008Magic of Disney - MAD DASH - Shape (:06-:09)                                                                                150                                
PROFAMCHA060301173408173417000009CC Disclaimer - FAST - Family.ca (:08-:10)                                                                                  150                                
PGRFAMCHA060301173417175651002234Lizzie McGuire                                    EP: 2-018                                                           A6068607BCC                              
PROFAMCHA060301175651175706000015NS - 01 (M-T) LITTLE/DARCY/RAVEN (JAN06) (:14 - 16                                                                          150                                
PROFAMCHA060301175706175734000028xxSo Little Time (NS Flat Tire) (Feb06) - Coming U                                                                          150                                
PROFAMCHA060301175734175817000043xxAquamarine Contest - In Theatres March 3 (Feb 20                                                                    A     150                                
PROFAMCHA060301175817175851000034xxSnow Days (2006) GREAT SKATE - MAR 4/5 (air Feb                                                                           150                                
PROFAMCHA060301175851175923000032Lady & the Tramp - Now for a limited time on DVD(F                                                                          150                                
PRCFAMCHA060301175923175946000023xxBrandy & Mr. Whiskers (Fruit Plate) (JAN06) - To                                                                          150                                
ID FAMCHA060301175946180000000014Nonstop Block Open (:14-:17)                                                                                                150                                
PGRFAMCHA060301180000182136002136So Little Time                                    EP: 21                                                              A2068607B                                
PRCFAMCHA060301182136182141000005Astral ID (FEB05)                                                                                                           150                                
PROFAMCHA060301182141182155000014NS - 03 (M-T) DARCY/RAVEN/SMART (JAN06) (:14 - 16)                                                                          150                                
PRCFAMCHA060301182155182225000030xxSBI - Mondo March - Starting March 13th @ 6pm (M                                                                          150                                
PRCFAMCHA060301182225182255000030xxDarcy's Wild Life (JAN06) - Coming Up Next                                                                                150                                
PGRFAMCHA060301182255182425000130xxMovie Surfers - The Shaggy Dog - Coming Soon (Fe                                                                    A60688120                                
PROFAMCHA060301182425182455000030xxThat's So Raven (OCT05) (NS/M-T) - Tonight 7pm                                                                            150                                
PRCFAMCHA060301182455182533000038Bullying (2005) - Celebrity Pledge (1x, daily UNTI                                                                          150                                
PROFAMCHA060301182533182607000034xxSmart Guy (APR06) (HAPPY DANCE) - (NS) - Tonight                                                                          150                                
PRCFAMCHA060301182607182637000030xxSuite Life of Zack & cody - NS - Friday @5:35 NE                                                                          150                                
PRCFAMCHA060301182637182720000043Famous Players Popcorn Parties (Jan06)1xMD,2xNSPri                                                                          150                                
PROFAMCHA060301182720182820000100Tiger Cruise (WDP) - Saturday @ 1:30pm                                                                                      150                                
PRCFAMCHA060301182820182900000040xxNaturally Sadie (NEW EPS) (JAN06) - New Eps Sund                                                                          150                                
PRCFAMCHA060301182900182950000050Spring Break Out Calgary Saskatoon - RFR(Feb 27- M                                                                          150                                
ID FAMCHA060301182950183004000014Nonstop Block Open (:14-:17)                                                                                                150                                
PROFAMCHA060301183004183013000009CC Disclaimer - FAST - Family.ca (:08-:10)                                                                                  150                                
PGRFAMCHA060301183013185143002130Darcy's Wild Life                                 EP: 06                                                        A03953 1065607BCC                              
PROFAMCHA060301185143185158000015NS - 05 (M-T) RAVEN/SMART/SIMPLE (JAN06) (:14 - 16                                                                          150                                
PROFAMCHA060301185158185239000041High School Musical Premiere March 10 (March06)                                                                             150                                
PROFAMCHA060301185239185309000030xxThat's So Raven (OCT05) (NS/M-T) - Coming Up Nex                                                                          150                                
PROFAMCHA060301185309185352000043xxAquamarine Contest - In Theatres March 3 (Feb 20                                                                    A     150                                
PROFAMCHA060301185352185426000034xxSmart Guy (APR06) (HAPPY DANCE) - (NS) - Tonight                                                                          150                                
PGRFAMCHA060301185426185811000345xxMovie Surfers - T Shaggy Dog - Featurette Coming                                                                    A60688120                                
PRCFAMCHA060301185811185845000034Bullying - The Pledge 2004 (w/o music)                                                                                      150                                
PROFAMCHA060301185845185917000032Yours, Mine, & Ours - Available Now (Feb 28-March5                                                                          150                                
PRCFAMCHA060301185917185938000021xxLife With Derek Web Streaming Promo                                                                                       150                                
PRCFAMCHA060301185938185945000007xxFamily Bumpers - (Phase 2 F/W 04) - Snow Twirl (                                                                          150                                
ID FAMCHA060301185945190000000015Nonstop Block Open (:14-:17)                                                                                                150                                
PROFAMCHA060301190000190009000009CC Disclaimer - FAST - Family.ca (:08-:10)                                                                                  150                                
PGRFAMCHA060301190009192249002240That's So Raven                                   EP: 1-008                                                            6068607BCC                              
PRCFAMCHA060301192249192254000005Astral ID (FEB05)                                                                                                           150                                
PROFAMCHA060301192254192309000015NS - 07 (M-T) SMART/SIMPLE/BMW (JAN06) (:14 - 16)                                                                           150                                
PRCFAMCHA060301192309192339000030SBI-Nonstop "All Week" Wknd - Starting March 13th                                                                           150                                
PROFAMCHA060301192339192413000034xxSmart Guy (APR06) (HAPPY DANCE) - (NS/NSW) - Com                                                                          150                                
PGRFAMCHA060301192413192553000140xxMovie Surfers - The Shaggy Dog - Contest                                                                            A60688120                                
PROFAMCHA0603011925531926080000158 Simple Rules (JUN06) (NS) PROFILES - Tonight @ 8                                                                          150                                
PRCFAMCHA060301192608192625000017Naturally Sadie Web BBD - 2x daily NS/NSW                                                                                   150                                
PRCFAMCHA060301192625192655000030xxBrotherly Love (JAN06) (NS) - Tonight @ 9pm                                                                               150                                
PROFAMCHA060301192655192729000034xxSnow Days (2006) GREAT SKATE - MAR 4/5 (air Feb                                                                           150                                
PROFAMCHA060301192729192759000030xxZoey 101 - Guess What's New (NS/FRI) (FEB06) Fri                                                                          150                                
PRCFAMCHA060301192759192816000017Bullying (2005) (TTP - Stars) - Georges Laraque (E                                                                          150                                
PRCFAMCHA060301192816192855000039xxSuite Life of Zack & cody - NS - Friday @5:35 NE                                                                          150                                
PRCFAMCHA060301192855192945000050Spring Break Out Calgary Saskatoon - RFR(Feb 27- M                                                                          150                                
ID FAMCHA060301192945193000000015Nonstop Block Open (:14-:17)                                                                                                150                                
PROFAMCHA060301193000193009000009CC Disclaimer - FAST - Family.ca (:08-:10)                                                                                  150                                
PGRFAMCHA060301193009195238002229Smart Guy                                         EP: 1-044                                                           A6068807BCC                              
PROFAMCHA060301195238195252000014NS - 08 (M-T) SIMPLE/BMW/BROTHERLY  (JAN06) (:14 -                                                                          150                                
PROFAMCHA060301195252195427000135High School Musical #2 - Karaoke-Premiering Fri, M                                                                          150                                
PROFAMCHA060301195427195457000030xx8 Simple Rules (JAN06) (NS) TICKET - Coming Up N                                                                          150                                
PRCFAMCHA060301195457195527000030xxBrotherly Love (JAN06) (NS) - Tonight @ 9pm                                                                               150                                
PRCFAMCHA060301195527195557000030xxRadio Free Roscoe (DATING GAME) - (NS/M-T) (DEC0                                                                          150                                
PRCFAMCHA060301195557195640000043Famous Players Popcorn Parties (Jan06)1xMD,2xNSPri                                                                          150                                
PRCFAMCHA060301195640195714000034Bullying - The Pledge 2004 (w/o music)                                                                                      150                                
PGRFAMCHA060301195714195749000035Planet Rock Profiles - Nelly Furtado (Famous PeoplEP: 46                                                              A70687120                                
PROFAMCHA060301195749195849000100Tiger Cruise (WDP) - Saturday @ 1:30pm                                                                                      150                                
PRCFAMCHA060301195849195929000040xxNaturally Sadie (NEW EPS) (JAN06) - New Eps Sund                                                                          150                                
PRCFAMCHA060301195929195950000021xxLife With Derek Web Streaming Promo                                                                                       150                                
ID FAMCHA060301195950200004000014Nonstop Block Open (:14-:17)                                                                                                150                                
PROFAMCHA060301200004200013000009CC Disclaimer - FAST - Family.ca (:08-:10)                                                                                  150                                
PGRFAMCHA0603012000132021500021378 Simple Rules                                    EP: 54                                                              B6028807BCC                              
PRCFAMCHA060301202150202155000005Astral ID (FEB05)                                                                                                           150                                
PROFAMCHA060301202155202210000015NS - 09 (M-T) BMW/BROTHERLY/RADIO (JAN06) (:14 - 1                                                                          150                                
PRCFAMCHA060301202210202240000030xxSBI - Mondo March - Starting March 13th @ 6pm (M                                                                          150                                
PGRFAMCHA060301202240202420000140xxMovie Surfers - The Shaggy Dog - Contest                                                                            A60688120                                
PRCFAMCHA060301202420202450000030xxBrotherly Love (JAN06) (NS) - Tonight @ 9pm                                                                               150                                
PROFAMCHA060301202450202524000034xxSnow Days (2006) GREAT SKATE - MAR 4/5 (air Feb                                                                           150                                
PRCFAMCHA060301202524202554000030xxRadio Free Roscoe (DATING GAME) - (NS/M-T) (DEC0                                                                          150                                
PGRFAMCHA060301202554202645000051Cheetah Girls Interstitials - Pink Eye                                                                                 60686120                                
PRCFAMCHA060301202645202715000030xxSuite Life of Zack & cody - NS - Friday @5:35 NE                                                                          150                                
PROFAMCHA060301202715202745000030xxZoey 101 - Guess What's New (NS/FRI) (FEB06) Fri                                                                          150                                
PRCFAMCHA060301202745202814000029Nonstop - BOY MEETS WORLD - Shampoo                                                                                         150                                
PRCFAMCHA060301202814202848000034Bullying - The Pledge 2004 (w/o music)                                                                                      150                                
PRCFAMCHA060301202848202938000050Spring Break Out Calgary Saskatoon - RFR(Feb 27- M                                                                          150                                
PRCFAMCHA060301202938202946000008xxFamily Bumpers - (Phase 2 F/W 04) - Snow Ball (M                                                                          150                                
ID FAMCHA060301202946203000000014Nonstop Block Open (:14-:17)                                                                                                150                                
PROFAMCHA060301203000203009000009CC Disclaimer - FAST - Family.ca (:08-:10)                                                                                  150                                
PGRFAMCHA060301203009205202002153Boy Meets World                                   EP: 1-057                                                           B6068807BCC                              
PROFAMCHA060301205202205217000015NS - 10 (M-T) BROTHERLY/RADIO/POPULAR (JAN06) (:14                                                                          150                                
PROFAMCHA060301205217205258000041High School Musical Premiere March 10 (March06)                                                                             150                                
PRCFAMCHA060301205258205328000030xxBrotherly Love (JAN06) (NS) - Coming Up Next                                                                              150                                
PGRFAMCHA060301205328205713000345xxMovie Surfers - T Shaggy Dog - Featurette Coming                                                                    A60688120                                
PRCFAMCHA060301205713205743000030xxRadio Free Roscoe (DATING GAME) - (NS/M-T) (DEC0                                                                          150                                
PRCFAMCHA060301205743205800000017Naturally Sadie Web BBD - 2x daily NS/NSW                                                                                   150                                
PROFAMCHA060301205800205830000030xxPopular (NS) (JAN06) - Tonight @ 10pm                                                                                     150                                
PRCFAMCHA060301205830205844000014Bullying (2005) (TTP - Kids) - Guitar Player                                                                                150                                
PRCFAMCHA060301205844205924000040xxNaturally Sadie (NEW EPS) (JAN06) - New Eps Sund                                                                          150                                
PRCFAMCHA060301205924205945000021xxLife With Derek Web Streaming Promo                                                                                       150                                
ID FAMCHA060301205945210000000015Nonstop Block Open (:14-:17)                                                                                                150                                
PGRFAMCHA060301210000212232002232Brotherly Love                                    EPS # 23                                                             6068807B                                
PRCFAMCHA060301212232212237000005Astral ID (FEB05)                                                                                                           150                                
PROFAMCHA060301212237212252000015NS - 11 (M-T) RADIO/POPULAR/8 SIMPLE (JAN06) (:14                                                                           150                                
PRCFAMCHA060301212252212322000030SBI-Nonstop "All Week" Wknd - Starting March 13th                                                                           150                                
PRCFAMCHA060301212322212352000030xxRadio Free Roscoe (DATING GAME) - (NS/M-T) (DEC0                                                                          150                                
PROFAMCHA060301212352212426000034xxSnow Days (2006) GREAT SKATE - MAR 4/5 (air Feb                                                                           150                                
PROFAMCHA060301212426212456000030xxPopular (NS) (JAN06) - Tonight @ 10pm                                                                                     150                                
PGRFAMCHA060301212456212626000130xxMovie Surfers - The Shaggy Dog - Coming Soon (Fe                                                                    A60688120                                
PRCFAMCHA060301212626212705000039xxSuite Life of Zack & cody - NS - Friday @5:35 NE                                                                          150                                
PGRFAMCHA060301212705212750000045Planet Rock Profiles - Ashanti (Record)           EP: 46                                                              A70687120                                
PROFAMCHA060301212750212931000141High School Musical #3 - Looking-Premiering Fri, M                                                                          150                                
PRCFAMCHA060301212931212943000012xxFamily Bumpers - (Phase 1 Spring 04) - Pillow Fi                                                                          150                                
ID FAMCHA060301212943213000000017Nonstop Block Open (:14-:17)                                                                                                150                                
PROFAMCHA060301213000213009000009CC Disclaimer - SLOW - Family.ca (:08-:10)                                                                                  150                                
PGRFAMCHA060301213009215239002230Radio Free Roscoe                                 EPS # 39                                                      A05972A1065607ACC                              
PROFAMCHA060301215239215253000014NS - 12 (M-T) POPULAR/8 SIMPLE/RADIO (JAN06) (:14                                                                           150                                
PRCFAMCHA060301215253215343000050Spring Break Out Calgary Saskatoon - RFR(Feb 27- M                                                                          150                                
PROFAMCHA060301215343215413000030xxPopular (NS) (JAN06) - Coming Up Next                                                                                     150                                
PROFAMCHA060301215413215456000043xxAquamarine Contest - In Theatres March 3 (Feb 20                                                                    A     150                                
PROFAMCHA060301215456215526000030xx8 Simple Rules (JAN06) (NS) TICKET - Tonight @ 1                                                                          150                                
PROFAMCHA060301215526215536000010FAMJAM - Open/Close                                                                                                         150                                
PGRFAMCHA060301215536215751000215MV Disney - (FAMILY HITS 2) - Cinderella - Cheetah                                                                     60688120                                
PROFAMCHA060301215751215805000014xxFAMJAM - Close (FAMILY) xxDNUxx                                                                                           150                                
PROFAMCHA060301215805215835000030xxZoey 101 - Guess What's New (NS/FRI) (FEB06) Fri                                                                          150                                
PROFAMCHA060301215835215935000100Tiger Cruise (WDP) - Saturday @ 1:30pm                                                                                      150                                
PRCFAMCHA060301215935215956000021xxLife With Derek Web Streaming Promo                                                                                       150                                
ID FAMCHA060301215956220010000014Nonstop Block Open (:14-:17)                                                                                                150                                
PGRFAMCHA060301220010224417004407Popular                                           EP: 09                                                              B6068807B                                
PRCFAMCHA060301224417224422000005Astral ID (FEB05)                                                                                                           150                                
PROFAMCHA060301224422224437000015NS - 13 (M-T) 8 SIMPLE/RADIO/MENTORS (JAN06) (:14                                                                           150                                
PRCFAMCHA060301224437224507000030xxSBI - Mondo March - Starting March 13th @ 6pm (M                                                                          150                                
PROFAMCHA060301224507224537000030xx8 Simple Rules (JAN06) (NS) TICKET - Coming Up N                                                                          150                                
PROFAMCHA060301224537224611000034xxSnow Days (2006) GREAT SKATE - MAR 4/5 (air Feb                                                                           150                                
PRCFAMCHA060301224611224641000030xxRadio Free Roscoe (DATING GAME) - (NS/M-T) (DEC0                                                                          150                                
PROFAMCHA060301224641224709000028xxSo Little Time (NS Flat Tire) (Feb06) - Tomorrow                                                                          150                                
PRCFAMCHA060301224709224739000030xxDarcy's Wild Life (JAN06) - Tomorrow @ 6:30pm                                                                             150                                
PROFAMCHA060301224739224749000010FAMJAM - Open/Close                                                                                                         150                                
PGRFAMCHA060301224749225102000313MV Disney - (MD/NS/NSW) - She's No You (FULL) (Jes                                                                     60688120                                
PROFAMCHA060301225102225116000014xxFAMJAM - Close (FAMILY) xxDNUxx                                                                                           150                                
PRCFAMCHA060301225116225146000030xxSuite Life of Zack & cody - NS - Friday @5:35 NE                                                                          150                                
PROFAMCHA060301225146225246000100Tiger Cruise (WDP) - Saturday @ 1:30pm                                                                                      150                                
PGRFAMCHA060301225246225631000345xxMovie Surfers - T Shaggy Dog - Featurette Coming                                                                    A60688120                                
PRCFAMCHA060301225631225711000040xxNaturally Sadie (NEW EPS) (JAN06) - New Eps Sund                                                                          150                                
PGRFAMCHA060301225711225801000050Cheetah Girls Interstitials - Tear Sheet                                                                               60686120                                
PROFAMCHA060301225801225937000136High School Musical #4 - Together-Premiering Fri,                                                                           150                                
PRCFAMCHA060301225937225946000009xxFamily Bumpers - (Phase 1 Spring 04) - DJ Spinni                                                                          150                                
ID FAMCHA060301225946230000000014Nonstop Block Open (:14-:17)                                                                                                150                                
PROFAMCHA060301230000230009000009CC Disclaimer - SLOW - Family.ca (:08-:10)                                                                                  150                                
PGRFAMCHA0603012300092321440021358 Simple Rules                                    EP: 53                                                              B6068807BCC                              
PROFAMCHA060301232144232159000015NS - 14 (M-T) RADIO/MENTORS/SPIDER (JAN06) (:14 -                                                                           150                                
PRCFAMCHA060301232159232249000050Spring Break Out Calgary Saskatoon - RFR(Feb 27- M                                                                          150                                
PRCFAMCHA060301232249232319000030xxRadio Free Roscoe (DATING GAME) - (NS/M-T) (DEC0                                                                          150                                
PROFAMCHA060301232319232349000030xxThat's So Raven (OCT05) (NS/M-T) - Tomorrow @ 7p                                                                          150                                
PROFAMCHA060301232349232359000010FAMJAM - Open/Close                                                                                                         150                                
PGRFAMCHA060301232359232729000330MV Disney - (FAMILY HITS) That's So Raven Theme So                                                                     60688120                                
PROFAMCHA060301232729232743000014xxFAMJAM - Close (FAMILY) xxDNUxx                                                                                           150                                
PROFAMCHA060301232743232817000034xxSmart Guy (APR06) (HAPPY DANCE) - (NS) - Tomorro                                                                          150                                
PROFAMCHA060301232817232847000030xxZoey 101 - Guess What's New (NS/FRI) (FEB06) Fri                                                                          150                                
PRCFAMCHA060301232847232921000034Bullying - The Pledge 2004 (w/o music)                                                                                      150                                
PRCFAMCHA060301232921232942000021xxLife With Derek Web Streaming Promo                                                                                       150                                
ID FAMCHA060301232942232959000017Nonstop Block Open (:14-:17)                                                                                                150                                
PROFAMCHA060301232959233008000009CC Disclaimer - SLOW - Family.ca (:08-:10)                                                                                  150                                
PGRFAMCHA060301233008235238002230Radio Free Roscoe                                 EPS # 004                                                     B88719A1065607ACC                              
PRCFAMCHA060301235238235243000005Astral ID (FEB05)                                                                                                           150                                
PROFAMCHA060301235243235258000015NS - 15 (M-F) MENTORS/SPIDER (JAN06) (:14 - 16)                                                                             150                                
PRCFAMCHA060301235258235328000030SBI-Nonstop "All Week" Wknd - Starting March 13th                                                                           150                                
PROFAMCHA060301235328235358000030xx8 Simple Rules (JAN06) (NS) TICKET - Tomorrow @                                                                           150                                
PRCFAMCHA060301235358235428000030xxBrotherly Love (JAN06) (NS) - Tomorrow @ 9pm                                                                              150                                
PRCFAMCHA060301235428235507000039xxSuite Life of Zack & cody - NS - Friday @5:35 NE                                                                          150                                
PROFAMCHA060301235507235517000010FAMJAM - Open/Close                                                                                                         150                                
PGRFAMCHA060301235517235728000211MV Disney - (MD/NS/NSW) - Do You Believe In Magic                                                                      60688120                                
PROFAMCHA060301235728235742000014xxFAMJAM - Close (FAMILY) xxDNUxx                                                                                           150                                
PROFAMCHA060301235742235812000030xxZoey 101 - Guess What's New (NS/FRI) (FEB06) Fri                                                                          150                                
PRCFAMCHA060301235812235852000040xxNaturally Sadie (NEW EPS) (JAN06) - New Eps Sund                                                                          150                                
PROFAMCHA060301235852235933000041High School Musical Premiere March 10 (March06)                                                                             150                                
PRCFAMCHA060301235933235939000006Family Bumpers - Reptile Pet - Rooster (MD/NS/NSW)                                                                          150                                
ID FAMCHA060301235939235956000017Nonstop Block Open (:14-:17)                                                                                                150                                
PROFAMCHA060301235956000005000009CC Disclaimer - SLOW - Family.ca (:08-:10)                                                                                  150                                
PGRFAMCHA060301000005002316002311Mentors                                           EP: 4-051                                                     C20779A1065607ACC3                             
PROFAMCHA060301002316002332000016NS - 16 (M-F) SPIDER (JAN06) (:14 - 16)                                                                                     150                                
PRCFAMCHA060301002332002422000050Spring Break Out Calgary Saskatoon - RFR(Feb 27- M                                                                          150                                
PRCFAMCHA060301002422002452000030xxRadio Free Roscoe (DATING GAME) - (NS/M-T) (DEC0                                                                          150                                
PROFAMCHA060301002452002522000030xxPopular (NS) (JAN06) - Tomorrow @ 10pm                                                                                    150                                
PROFAMCHA060301002522002532000010FAMJAM - Open/Close                                                                                                         150                                
PGRFAMCHA060301002532002632000100MV Disney - Dig It (D-TENT BOYS)                                                                                       60688120                                
PROFAMCHA060301002632002646000014xxFAMJAM - Close (FAMILY) xxDNUxx                                                                                           150                                
PROFAMCHA060301002646002716000030xxZoey 101 - Guess What's New (NS/FRI) (FEB06) Fri                                                                          150                                
PRCFAMCHA060301002716002746000030xxPhil of the Future (NS) (OCT05) - Fridays @ 6:30                                                                          150                                
PRCFAMCHA060301002746002808000022Nonstop - BOY MEETS WORLD - Girl's Washroom                                                                                 150                                
PROFAMCHA060301002808002908000100Tiger Cruise (WDP) - Saturday @ 1:30pm                                                                                      150                                
PRCFAMCHA060301002908002929000021xxLife With Derek Web Streaming Promo                                                                                       150                                
PROFAMCHA060301002929002943000014Zoey 101 ID - Lola - What's New                                                                                             150                                
ID FAMCHA060301002943003000000017Nonstop Block Open (:14-:17)                                                                                                150                                
PGRFAMCHA060301003000005134002134Spiderman                                         EP: 26                                                        C02618 1065607E                                
PRCFAMCHA060301005134005139000005Astral ID (FEB05)                                                                                                           150                                
PRCFAMCHA060301005139005209000030xxSBI - Mondo March - Starting March 13th @ 6pm (M                                                                          150                                
PROFAMCHA060301005209005237000028xxSo Little Time (NS Flat Tire) (Feb06) - Tomorrow                                                                          150                                
PRCFAMCHA060301005237005307000030xxDarcy's Wild Life (JAN06) - Tomorrow @ 6:30pm                                                                             150                                
PROFAMCHA060301005307005317000010FAMJAM - Open/Close                                                                                                         150                                
PGRFAMCHA060301005317005712000355MV Disney - Come Clean (Hillary Duff)                                                                                  60688120                                
PROFAMCHA060301005712005726000014xxFAMJAM - Close (FAMILY) xxDNUxx                                                                                           150                                
PROFAMCHA060301005726005756000030xxThat's So Raven (OCT05) (NSW/PM) - Tomorrow @ 7p                                                                          150                                
PRCFAMCHA060301005756005826000030xxSuite Life of Zack & cody - NS - Friday @5:35 NE                                                                          150                                
PRCFAMCHA060301005826005900000034Bullying - The Pledge 2004 (w/o music)                                                                                      150                                
PGRFAMCHA060301005900010041000141Planet Rock Profiles - Nelly Furtado (Bird)       EP: 46                                                              A70687120                                
PRCFAMCHA060301010041010121000040xxNaturally Sadie (NEW EPS) (JAN06) - New Eps Sund                                                                          150                                
PROFAMCHA060301010121010202000041High School Musical Premiere March 10 (March06)                                                                             150                                
PRCFAMCHA060301010202010217000015Astral - LOVE                                                                                                               150                                
SO FAMCHA060301010217011417001200Sign Off                                                                                                                                                       
OFFFAMCHA060301011417043000031543OFF AIR                                                                                                                                                        
SO FAMCHA060302043000043011000011Sign On (oct 1)                                                                                                                                                
PROFAMCHA060302043011043020000009CC Disclaimer - FAST - Family.ca (:08-:10)                                                                                  150                                
PGRFAMCHA060302043020045655002635Katie And Orbie                                   EP: 2-022                                                     C11896A1065607ECC                              
PROFAMCHA060302045655045710000015PH - 01 - FRANNY/SOMETHING/HOZE (SEP05) (:14 - 16)                                                                          150                                
ID FAMCHA060302045710045723000013PS Playhouse AM Block Open (:10-:15)                                                                                        150                                
PROFAMCHA060302045723045732000009CC Disclaimer - FAST - Family.ca (:08-:10)                                                                                  150                                
PGRFAMCHA060302045732052002002230Franny's Feet                                     EPS # 37                                                      C23971 1065607ECC                              
PRCFAMCHA060302052002052007000005Astral ID (FEB05)                                                                                                           150                                
PROFAMCHA060302052007052022000015PH - 02 - SOMETHING/HOZE/KING (SEP05) (:14 - 16)                                                                            150                                
ID FAMCHA060302052022052035000013PS Playhouse AM Block Open (:10-:15)                                                                                        150                                
PROFAMCHA060302052035052044000009CC Disclaimer - FAST - Family.ca (:08-:10)                                                                                  150                                
PGRFAMCHA060302052044054315002231Something Else                                    EPS # 1-006                                                   B69260A1065607ECC                              
PROFAMCHA060302054315054330000015PH - 03 - HOZE/KING/SPIDERMAN (SEP05) (:14 - 16)                                                                            150                                
ID FAMCHA060302054330054343000013PS Playhouse AM Block Open (:10-:15)                                                                                        150                                
PROFAMCHA060302054343054352000009CC Disclaimer - FAST - Family.ca (:08-:10)                                                                                  150                                
PGRFAMCHA060302054352060632002240Hoze Houndz                                       EP: 3-038                                                     B45779A1065607ECC                              
PRCFAMCHA060302060632060637000005Astral ID (FEB05)                                                                                                           150                                
PROFAMCHA060302060637060652000015PH - 04 - KING/SPIDERMAN/KIM (SEP05) (:14 - 16)                                                                             150                                
ID FAMCHA060302060652060705000013PS Playhouse AM Block Open (:10-:15)                                                                                        150                                
PROFAMCHA060302060705060714000009CC Disclaimer - FAST - Family.ca (:08-:10)                                                                                  150                                
PGRFAMCHA060302060714062944002230King                                              EP: 001                                                       B75756A1065607ECC                              
PROFAMCHA060302062944062959000015PH - 05 - SPIDERMAN/KIM/RECESS (SEP05) (:14 - 16)                                                                           150                                
ID FAMCHA060302062959063018000019MadMadMornings Block Open                                                                                                   150                                
PGRFAMCHA060302063018065201002143Spiderman                                         EP: 01                                                        C02618 1065607E                                
PRCFAMCHA060302065201065206000005Astral ID (FEB05)                                                                                                           150                                
PROFAMCHA060302065206065221000015MMM - 01 (AM) - KIM/RECESS/WEEKENDERS (OCT05) (:14                                                                          150                                
PRCFAMCHA060302065221065251000030xxSBI - Mondo March - Starting March 13th @ 6pm (M                                                                          150                                
PROFAMCHA060302065251065321000030Kim Possible (NOV2003) - (MD) - Coming Up                                                                                   150                                
PROFAMCHA060302065321065355000034xxSnow Days (2006) GREAT SKATE - MAR 4/5 (air Feb                                                                           150                                
PROFAMCHA060302065355065415000020xxRecess - Kindergarten (MD/AM) - (SEP05) - Today                                                                           150                                
PROFAMCHA060302065415065509000054xxWeekenders - B-Ball (MD/AM) - (SEP05) - Today @                                                                           150                                
PRCFAMCHA060302065509065539000030xxSuite Life of Zack & cody - NS - Tomorrow Aft @                                                                           150                                
ID FAMCHA060302065539065558000019MadMadMornings Block Open                                                                                                   150                                
PGRFAMCHA060302065558071852002254Disney's Kim Possible                             EPS # 1-043                                                         A6068607E                                
PROFAMCHA060302071852071906000014MMM - 02 (AM) - RECESS/WEEKENDERS/LILO (OCT05) (:1                                                                          150                                
PRCFAMCHA060302071906071956000050Spring Break Out Calgary Saskatoon - RFR(Feb 27- M                                                                          150                                
PROFAMCHA060302071956072016000020xxRecess - Kindergarten (MD/AM) - (SEP05) - Coming                                                                          150                                
PROFAMCHA060302072016072110000054xxWeekenders - B-Ball (MD/AM) - (SEP05) - Today @                                                                           150                                
PROFAMCHA060302072110072245000135High School Musical #1 - Game-Premiering Friday Ma                                                                          150                                
PRCFAMCHA060302072245072321000036Mad Dash - WEEKENDERS - Bored                                                                                               150                                
PRCFAMCHA060302072321072342000021xxLife With Derek Web Streaming Promo                                                                                       150                                
ID FAMCHA060302072342072401000019MadMadMornings Block Open                                                                                                   150                                
PGRFAMCHA060302072401074636002235Disney's Recess                                   EP: 1-013                                                            6068607E                                
PRCFAMCHA060302074636074641000005Astral ID (FEB05)                                                                                                           150                                
PROFAMCHA060302074641074655000014PH - 01 - WEEKENDERS/LILO/EINSTEINS (FEB06) (:14 -                                                                          150                                
PRCFAMCHA060302074655074725000030SBI-Nonstop "All Week" Wknd - Starting March 13th                                                                           150                                
PROFAMCHA060302074725074819000054xxWeekenders - B-Ball (MD/AM) - (SEP05) - Coming U                                                                          150                                
PROFAMCHA060302074819074851000032Lady & the Tramp - Now for a limited time on DVD(F                                                                          150                                
PROFAMCHA060302074851074919000028xxLilo & Stitch (MD) (SEP05) - Today @ 8:15am                                                                               150                                
PROFAMCHA060302074919074953000034xxSnow Days (2006) GREAT SKATE - MAR 4/5 (air Feb                                                                           150                                
PRCFAMCHA060302074953075032000039xSuite Life of Zack & cody - NS - Tomorrow Aft @ 5                                                                          150                                
PRCFAMCHA060302075032075041000009xxFamily Bumpers - (Phase 1 Spring 04) - DJ Spinni                                                                          150                                
ID FAMCHA060302075041075100000019MadMadMornings Block Open                                                                                                   150                                
PROFAMCHA060302075100075109000009CC Disclaimer - FAST - Family.ca (:08-:10)                                                                                  150                                
PGRFAMCHA060302075109081342002233Disney's The Weekenders                           EP: 1-028                                                           A6068607ECC                              
PROFAMCHA060302081342081357000015PH - 02 - LILO/EINSTEINS/WINNIE (FEB06) (:14 - 16)                                                                          150                                
PRCFAMCHA060302081357081447000050Spring Break Out Calgary Saskatoon - RFR(Feb 27- M                                                                          150                                
PROFAMCHA060302081447081514000027xxLilo & Stitch (MD) (SEP05) - Coming Up Next                                                                               150                                
PRCFAMCHA060302081514081537000023xxBrandy & Mr. Whiskers (Fruit Plate) (JAN06) - To                                                                          150                                
PRCFAMCHA060302081537081552000015Bullying (2005) (TTP - Kids) - Basketball                                                                                   150                                
PROFAMCHA060302081552081638000046xxFillmore! - Chase (MD) (SEP05) - Today @ 2:35pm                                                                           150                                
PRCFAMCHA060302081638081659000021xxLife With Derek Web Streaming Promo                                                                                       150                                
PROFAMCHA060302081659081740000041High School Musical Premiere March 10 (March06)                                                                             150                                
ID FAMCHA060302081740081759000019MadMadMornings Block Open                                                                                                   150                                
PGRFAMCHA060302081759084038002239Disney's Lilo & Stitch: The Series                EP: 61                                                               6068607E                                
PRCFAMCHA060302084038084043000005Astral ID (FEB05)                                                                                                           150                                
PROFAMCHA060302084043084058000015PH - 03 - EINSTEINS/WINNIE/PB&J (FEB06) (:14 - 16)                                                                          150                                
PROFAMCHA060302084058084128000030Little Einstein (PH) (PRESCHOOL) - Coming Up Next                                                                           150                                
PGRFAMCHA060302084128084428000300They Might Be Giants (ABC's) - Can You Find It?                                                                        60688120                                
PRCFAMCHA060302084428084448000020xxBenjamin Bear - Snack (PH-WKND) (SEP05) - Weeken                                                                          150                                
ID FAMCHA060302084448084500000012PS Playhouse AM Block Open (:10-:15)                                                                                        150                                
PGRFAMCHA060302084500090905002405Disney's Little Einsteins                         EP: 14                                                               6028607E                                
PROFAMCHA060302090905090920000015PH - 04 - WINNIE/PB&J/JOJO (FEB06) (:14 - 16)                                                                               150                                
PROFAMCHA060302090920090950000030xxWinnie the Pooh (PH/AM) (SEP05) - Coming Up Next                                                                          150                                
PRCFAMCHA060302090950091046000056Playhouse - STANLEY - Fish Song                                                                                             150                                
ID FAMCHA060302091046091059000013PS Playhouse AM Block Open (:10-:15)                                                                                        150                                
PROFAMCHA060302091059091108000009CC Disclaimer - FAST - Family.ca (:08-:10)                                                                                  150                                
PGRFAMCHA060302091108093350002242The New Adventures of Winnie the Pooh             EP: 1-036                                                            6068607ECC                              
PRCFAMCHA060302093350093355000005Astral ID (FEB05)                                                                                                           150                                
PROFAMCHA060302093355093410000015PH - 08 - PB&J/JOJO/SING (FEB06) (:14 - 16) THURSD                                                                          150                                
PRCFAMCHA060302093410093441000031xxKing (PH) (SEP05) - Today @ 11:25am                                                                                       150                                
ID FAMCHA060302093441093456000015Franny's Feet Web BBD - Part of Playhouse @ family                                                                          150                                
PROFAMCHA060302093456093526000030Little Einstein (PH) (PRESCHOOL) - Tomorrow @ 8:45                                                                          150                                
PGRFAMCHA060302093526093646000120They Might Be Giants (ABC's) - Go for G                                                                                60688120                                
ID FAMCHA060302093646093659000013PS Playhouse AM Block Open (:10-:15)                                                                                        150                                
PROFAMCHA060302093659093708000009CC Disclaimer - FAST - Family.ca (:08-:10)                                                                                  150                                
PGRFAMCHA060302093708095929002221PB&J Otter                                        EP: 1-004                                                           A6068607ECC                              
PROFAMCHA060302095929095944000015PH - 13 - JOJO/SING/STANLEY (FEB06) (:14 - 16) THU                                                                          150                                
PROFAMCHA060302095944100018000034Jojo's Circus - GIGGLECORN - Coming Up Next                                                                                 150                                
PROFAMCHA060302100018100043000025Princess Block - Be A Princess (Royal Treatment) P                                                                          150                                
