SO FAMCHA040401043000043011000011Sign On (oct 1)                                                                                                                                                
PROFAMCHA040401043011043020000009CC Disclaimer - FAST - Family (:08-:10)                                                                                     150                                
PGRFAMCHA040401043020045313002253Franklin                                          The Puppet/Stopwatch                                          B38152A1065607ECC                              
PROFAMCHA040401045313045327000014PS - 01(PH) - WTP/KATIE/FRANKLIN (:14-:16)                                                                                  150                                
ID FAMCHA040401045327045337000010PS Playhouse AM Block Open (:10-:15)                                                                                        150                                
PROFAMCHA040401045337045346000009CC Disclaimer - FAST - Family.ca (:08-:10)                                                                                  150                                
PGRFAMCHA040401045346051627002241New Adventures of Winnie the Pooh; The            Easy Come Easy Gopher/Invasion of Pooh Snatcher                      6068607ECC                              
PROFAMCHA040401051627051643000016PS - 02(PH) - KATIE/FRANKLIN/SOMETHING (:14-:16)                                                                            150                                
ID FAMCHA040401051643051658000015PS Playhouse AM Block Open (:10-:15)                                                                                        150                                
PROFAMCHA040401051658051708000010CC Disclaimer - FAST - Generic (:08-:10)                                                                                    150                                
PGRFAMCHA040401051708054343002635Katie And Orbie                                   Fabulous Fashions/Happy Winter!/Sunk                          C12449A1065607ECC                              
PROFAMCHA040401054343054357000014PS - 03(PH) - FRANKLIN/SOMETHING/HOZE (:14-:16)                                                                             150                                
ID FAMCHA040401054357054407000010PS Playhouse AM Block Open (:10-:15)                                                                                        150                                
PROFAMCHA040401054407054416000009CC Disclaimer - FAST - Family (:08-:10)                                                                                     150                                
PGRFAMCHA040401054416060709002253Franklin                                          Meets Ermine/Funny Business                                   B38153A1065607ECC                              
PROFAMCHA040401060709060725000016PS - 04(PH) - SOMETHING/HOZE/KNIGHT (:14-:16)                                                                               150                                
PROFAMCHA040401060725060750000025Hoze Houndz (Can't Fly) (PH/AM) - Today @ 6:35am                                                                            150                                
ID FAMCHA040401060750060800000010PS Playhouse AM Block Open (:10-:15)                                                                                        150                                
PROFAMCHA040401060800060809000009CC Disclaimer - FAST - Family.ca (:08-:10)                                                                                  150                                
PGRFAMCHA040401060809063040002231Something Else                                    Something Old/The Schedule                                    B69255A1065607ECC                              
PROFAMCHA040401063040063056000016PS - 05(PH) - HOZE/KNIGHT/NINJA (:14-:16)                                                                                   150                                
PROFAMCHA040401063056063119000023Hoze Houndz (Can't Fly) (NSW) - Coming Up Next                                                                              150                                
INTFAMCHA040401063119063426000307MV Disney - (PH) - Anytime You Need A Friend (The                                                                      60688120                                
PRCFAMCHA040401063426063449000023Playhouse - HOUSE OF MOUSE - Calculator                                                                                     150                                
ID FAMCHA040401063449063500000011PS Playhouse AM Block Open (:10-:15)                                                                                        150                                
PROFAMCHA040401063500063510000010CC Disclaimer - FAST - Generic (:08-:10)                                                                                    150                                
PGRFAMCHA040401063510065749002239Hoze Houndz                                       Take The Bull By The Horns/Bagpipe Blues                      B45778A1065607ECC                              
PROFAMCHA040401065749065805000016PS - 06(PB) - KNIGHT/NINJA/GADGET (:14-:16)                                                                                 150                                
PROFAMCHA040401065805065836000031Full Court Miracle (PP) - Premiering Tomorrow @ 7:                                                                          150                                
INTFAMCHA040401065836065916000040Harrisons; The - Joy Ride                                                                                             A10626120                                
PRCFAMCHA040401065916065946000030xxRadio Free Roscoe - Skye Sweetnam - Tonight @ 7:                                                                          150                                
ID FAMCHA040401065946070000000014Power Box Block Open (:12-:15)                                                                                              150                                
PGRFAMCHA040401070000072125002125Mon Colle Knights                                 EPS # 1-011                                                         A6068607E                                
PROFAMCHA040401072125072140000015PS - 07(PB) - NINJA/GADGET/DALMATIANS (:14-:16)                                                                             150                                
PRCFAMCHA040401072140072210000030xxRadio Free Roscoe - Skye Sweetnam - Tonight @ 7:                                                                          150                                
INTFAMCHA040401072210072336000126Gagsters - Arm Chair                                                                                                  A20286120                                
PROFAMCHA040401072336072412000036Power Rangers Dino Thunder (LONG) - Weekends @ 7am                                                                          150                                
INTFAMCHA040401072412072524000112Gagsters - Bad Breath                                                                                                 A20286120                                
PRCFAMCHA040401072524072540000016Radio Free Roscoe - Webthrow (Smog)                                                                                         150                                
INTFAMCHA040401072540072658000118Gagsters - Bananarama                                                                                                 A20286120                                
PROFAMCHA040401072658072728000030xxThat's So Raven (GOOD LIFE) - (NS) - Tonight @ 6                                                                          150                                
PRCFAMCHA040401072728072758000030MAD DASH LUNCH - Block Promo - Today @ 11:50am                                                                              150                                
INTFAMCHA040401072758072917000119Gagsters - Flower Power                                                                                               A20286120                                
PROFAMCHA040401072917072948000031Full Court Miracle (PP) - Premiering Tomorrow @ 7:                                                                          150                                
ID FAMCHA040401072948073000000012Power Box Block Open (:12-:15)                                                                                              150                                
PGRFAMCHA040401073000075119002119Power Rangers Ninja Storm                         Boxing Bopp-A-Roo                                                   A6068607E                                
PROFAMCHA040401075119075135000016PS - 08(PB) - GADGET/DALMATIANS/FRANKLIN (:14-:16)                                                                          150                                
PROFAMCHA040401075135075206000031Full Court Miracle (PP) - Premiering Tomorrow @ 7:                                                                          150                                
INTFAMCHA040401075206075309000103Gagsters - Clucking Chicken                                                                                           A20286120                                
PROFAMCHA040401075309075339000030Gadget & The Gadgetinis - (PB) - Coming Up                                                                                  150                                
PRCFAMCHA040401075339075409000030MAD DASH LUNCH - Block Promo - Today @ 11:50am                                                                              150                                
INTFAMCHA040401075409075508000059Gagsters - Dirty Cleaning                                                                                             A20286120                                
PROFAMCHA040401075508075533000025Even Stevens (SIBLINGS) - (NS/M-T) - Tonight @ 7pm                                                                          150                                
INTFAMCHA040401075533075657000124Gagsters - Fresh Fruit                                                                                                A20686120                                
PROFAMCHA040401075657075731000034xxLizzie McGuire - GROWN UP (MD) - Today @ 5:35pm                                                                           150                                
INTFAMCHA040401075731075843000112Gagsters - Double Dribble                                                                                             A20286120                                
PROFAMCHA040401075843075913000030xxFillmore (STYLISH) - (NSW) - Weekends @ 4:15pm                                                                            150                                
PRCFAMCHA040401075913075943000030xxRadio Free Roscoe - Skye Sweetnam - Tonight @ 7:                                                                          150                                
ID FAMCHA040401075943075958000015Power Box Block Open (:12-:15)                                                                                              150                                
PGRFAMCHA040401075958082211002213Gadget & the Gadgetinis                           Looming Las Vegas                                                   A6068607E                                
PROFAMCHA040401082211082227000016PS - 09(PH) - DALMATIANS/FRANKLIN/WTP (:14-:16)                                                                             150                                
PROFAMCHA040401082227082257000030xxDisney's 101 Dalmatians - Coming Up                                                                                       150                                
PRCFAMCHA040401082257082332000035xxFranklin (CANOE - FALL 2003) - Today @ 8:55am                                                                             150                                
INTFAMCHA040401082332082603000231MV Disney - (PH/MD) - Aloha E Komo Mai (Lilo & Sti                                                                     60688120                                
PROFAMCHA040401082603082635000032xxJojo's Circus - Today @ 9:45am                                                                                            150                                
INTFAMCHA040401082635082915000240Art Attack - Baggage Plane                                                                                             60688120                                
PRCFAMCHA040401082915082945000030xxHenry's World - TEDDY - Today @ 10:35am                                                                                   150                                
ID FAMCHA040401082945083000000015PS Playhouse AM Block Open (:10-:15)                                                                                        150                                
PGRFAMCHA040401083000085249002249Disney's 101 Dalmatians: The Series               EPS # 1-053                                                         A6068607E                                
PROFAMCHA040401085249085305000016PS - 10(PH) - FRANKLIN/WTP/JOJO (:14-:16) (JAN12)                                                                           150                                
PRCFAMCHA040401085305085340000035xxFranklin (CANOE - FALL 2003) - Coming Up (PH)                                                                             150                                
PRCFAMCHA040401085340085446000106Playhouse - WINNIE THE POOH - Christopher Robin                                                                             150                                
ID FAMCHA040401085446085500000014PS Playhouse AM Block Open (:10-:15)                                                                                        150                                
PROFAMCHA040401085500085509000009CC Disclaimer - FAST - Family (:08-:10)                                                                                     150                                
PGRFAMCHA040401085509091802002253Franklin                                          My Franklin/Franklin's Mom                                    B38159A1065607ECC                              
PROFAMCHA040401091802091818000016PS - 11(PH) - WTP/JOJO/STANLEY (:14-:16) (JAN12)                                                                            150                                
PROFAMCHA040401091818091850000032xxJojo's Circus - Today @ 9:45am                                                                                            150                                
PRCFAMCHA040401091850091917000027Playhouse - FRANKLIN - Laundry                                                                                              150                                
PROFAMCHA040401091917091947000030xxStanley - TEDDY BEAR - Today @ 10:10am                                                                                    150                                
ID FAMCHA040401091947092000000013PS Playhouse AM Block Open (:10-:15)                                                                                        150                                
PROFAMCHA040401092000092009000009CC Disclaimer - FAST - Family.ca (:08-:10)                                                                                  150                                
PGRFAMCHA040401092009094250002241New Adventures of Winnie the Pooh; The            Tigger Got Your Tongue/A Bird In Hand                                6068607ECC                              
PROFAMCHA040401094250094304000014PS - 12(PH) - JOJO/STANLEY/HENRY (:14-:16) (JAN12)                                                                          150                                
PROFAMCHA040401094304094336000032xxJojo's Circus - Coming Up                                                                                                 150                                
PRCFAMCHA040401094336094520000144xxPlayhouse - HOUSE OF MOUSE - Seating Song                                                                                 150                                
PROFAMCHA040401094520094550000030xxStanley - TEDDY BEAR - Today @ 10:10am                                                                                    150                                
ID FAMCHA040401094550094600000010PS Playhouse AM Block Open (:10-:15)                                                                                        150                                
PGRFAMCHA040401094600101007002407JoJo's Circus                                     EPS # 21                                                            A6068607E                                
PROFAMCHA040401101007101023000016PS - 13(PH) - STANLEY/HENRY/CHIP (:14-:16) (JAN12)                                                                          150                                
PROFAMCHA040401101023101053000030xxStanley - TEDDY BEAR - Next                                                                                               150                                
PRCFAMCHA040401101053101116000023Playhouse - HOUSE OF MOUSE - Calculator                                                                                     150                                
PRCFAMCHA040401101116101146000030xxHenry's World - TEDDY - Today @ 10:35am                                                                                   150                                
ID FAMCHA040401101146101200000014PS Playhouse AM Block Open (:10-:15)                                                                                        150                                
PROFAMCHA040401101200101210000010CC Disclaimer - FAST - Generic (:08-:10)                                                                                    150                                
PGRFAMCHA040401101210103615002405Stanley                                           EPS # 1-053                                                         A6068607E                                
ID FAMCHA040401103615103631000016Technical Difficulties Slide                                                                                                150                                
PRCFAMCHA040401103631103701000030xxHenry's World - TEDDY - Coming Up                                                                                         150                                
PRCFAMCHA040401103701103747000046Playhouse - STANLEY - Squirrel Song                                                                                         150                                
ID FAMCHA040401103747103800000013Technical Difficulties Slide                                                                                                150                                
ID FAMCHA040401103800103808000008Technical Difficulties Slide                                                                                                150                                
PGRFAMCHA040401103808110212002404Henry's World                                     EPS # 2-025                                                   A81056A1025607GCC                              
PROFAMCHA040401110212110226000014PS - 15(PH) - CHIP/ART/RECESS (:14-:16)                                                                                     150                                
PRCFAMCHA040401110226110254000028xxChip 'n Dale (FALL 2003) - Coming Up                                                                                      150                                
PRCFAMCHA040401110254110350000056Playhouse - STANLEY - Fish Song                                                                                             150                                
ID FAMCHA040401110350110400000010PS Playhouse AM Block Open (:10-:15)                                                                                        150                                
ID FAMCHA040401110400110408000008Magic of Disney - PLAYHOUSE - Shape (:06-:09)                                                                               150                                
PGRFAMCHA040401110408112656002248Chip 'n Dale Rescue Rangers                       It's A Bird, It's Insane, It's Dale                                 A6068607E                                
PROFAMCHA040401112656112712000016PS - 16(PH) - ART/RECESS/FILLMORE (:14-:16) (JAN)                                                                           150                                
PROFAMCHA040401112712112742000030xxHouse of Mouse (FALL 2003) - Today @ 2:35pm                                                                               150                                
PRCFAMCHA040401112742112848000106Playhouse - WINNIE THE POOH - Christopher Robin                                                                             150                                
ID FAMCHA040401112848112900000012PS Playhouse AM Block Open (:10-:15)                                                                                        150                                
PGRFAMCHA040401112900114856001956Art Attack                                                                                                             60686110                                
PROFAMCHA040401114856114912000016PS - 17(MD) - RECESS/FILLMORE/GOOF (:14-:16) (JAN1                                                                          150                                
PROFAMCHA040401114912114943000031Full Court Miracle (PP) - Premiering Tomorrow @ 7:                                                                          150                                
ID FAMCHA040401114943114958000015PS Mad Dash Block Open (:13-:15)                                                                                            150                                
PGRFAMCHA040401114958121234002236Disney's Recess                                   The Break Up/The Hypnotist                                           6068607E                                
PROFAMCHA040401121234121248000014PS - 18(MD) - FILLMORE/GOOF/TEAMO (:14-:16) (JAN1)                                                                          150                                
ID FAMCHA040401121248121303000015PS Mad Dash Block Open (:13-:15)                                                                                            150                                
PGRFAMCHA040401121303123541002238Disney's Fillmore!                                EPS # 1-014                                                         A6068607E                                
PROFAMCHA040401123541123557000016PS - 19(MD) - GOOF/TEAMO/DALMATIANS (:14-:16) (JAN                                                                          150                                
PROFAMCHA040401123557123628000031Full Court Miracle (PP) - Premiering Tomorrow @ 7:                                                                          150                                
PRCFAMCHA040401123628123643000015xxRadio Free Roscoe - Skye Sweetnam Autograph                                                                               150                                
ID FAMCHA040401123643123658000015Mad Dash Block Open (:13-:15)                                                                                               150                                
PROFAMCHA040401123658123706000008CC Disclaimer - FAST - Family.ca (:08-:10)                                                                                  150                                
PGRFAMCHA040401123706125948002242Goof Troop                                        Great Egg-Spectations                                                6068607ECC                              
PROFAMCHA040401125948130002000014PS - 20(MD) - TEAMO/DALMATIANS/CHIP (:14-:16) (JAN                                                                          150                                
PROFAMCHA040401130002130033000031Full Court Miracle (PP) - Premiering Tomorrow @ 7:                                                                          150                                
PRCFAMCHA040401130033130048000015xxRadio Free Roscoe - Skye Sweetnam Autograph                                                                               150                                
ID FAMCHA040401130048130101000013Mad Dash Block Open (:13-:15)                                                                                               150                                
PGRFAMCHA040401130101132354002253Disney's Teamo Supremo                            EPS # 1-038                                                         A6068607E                                
PROFAMCHA040401132354132408000014PS - 21(PH) - DALMATIANS/CHIP/HOZE (:14-:16)                                                                                150                                
ID FAMCHA040401132408132418000010PS Playhouse PM Block Open (:10-:15)                                                                                        150                                
PGRFAMCHA040401132418134707002249Disney's 101 Dalmatians: The Series               EPS # 1-054                                                         A6068607E                                
PROFAMCHA040401134707134723000016PS - 22(PH) - CHIP/HOZE/HOM (:14-:16)                                                                                       150                                
PRCFAMCHA040401134723134746000023Playhouse - HOUSE OF MOUSE - Calculator                                                                                     150                                
ID FAMCHA040401134746134800000014PS Playhouse PM Block Open (:10-:15)                                                                                        150                                
ID FAMCHA040401134800134809000009Magic of Disney - PLAYHOUSE - Wipe (:06-:09)                                                                                150                                
PGRFAMCHA040401134809141054002245Chip 'n Dale Rescue Rangers                       They Shoot Dogs, Don't They?                                        A6068607E                                
PROFAMCHA040401141054141110000016PS - 23(PH) - HOZE/HOM/TIMON (:14-:16)                                                                                      150                                
PRCFAMCHA040401141110141145000035Bullying Pledge - Ongoing to September 1                                                                                    150                                
ID FAMCHA040401141145141200000015PS Playhouse PM Block Open (:10-:15)                                                                                        150                                
PROFAMCHA040401141200141210000010CC Disclaimer - FAST - Generic (:08-:10)                                                                                    150                                
PGRFAMCHA040401141210143445002235Hoze Houndz                                       Little Green Men From Planet Ten/Hozer The Hero               B34014A1065607ECC                              
PROFAMCHA040401143445143501000016PS - 24(PH) - HOM/TIMON/LILO (:14-:16) (JAN1)                                                                               150                                
PRCFAMCHA040401143501143547000046Playhouse - STANLEY - Squirrel Song                                                                                         150                                
ID FAMCHA040401143547143600000013PS Playhouse PM Block Open (:10-:15)                                                                                        150                                
PROFAMCHA040401143600143609000009CC Disclaimer - FAST - Family (:08-:10)                                                                                     150                                
PGRFAMCHA040401143609145848002239Disney's House Of Mouse                           Thanks To Minnie                                                     6068607ECC                              
PROFAMCHA040401145848145904000016Mad Dash  - 01 - TIMON/LILO/WEEKENDERS (:14-:16) (                                                                          150                                
PRCFAMCHA040401145904145919000015xxRadio Free Roscoe - Skye Sweetnam Autograph                                                                               150                                
PRCFAMCHA040401145919145943000024Gagster April Fools Contest (Mar 24 - Apr 1) (3x)                                                                           150                                
ID FAMCHA040401145943145958000015Mad Dash Block Open (:13-:15)                                                                                               150                                
PGRFAMCHA040401145958152243002245Lion King's Timon & Pumbaa; The                   Guru Some/Jailhouse Shock                                            6068607E                                
PROFAMCHA040401152243152259000016Mad Dash  - 02 - LILO/WEEKENDERS/RECESS (:14-:16)                                                                           150                                
PROFAMCHA040401152259152330000031Full Court Miracle (PP) - Premiering Tomorrow @ 7:                                                                          150                                
PRCFAMCHA040401152330152402000032Cheaper By The Dozen Contest (March 29 - April 6)                                                                           150                                
PRCFAMCHA040401152402152432000030xxRadio Free Roscoe - Skye Sweetnam - Tonight @ 7:                                                                          150                                
PRCFAMCHA040401152432152447000015xxRadio Free Roscoe - Skye Sweetnam Autograph                                                                               150                                
ID FAMCHA040401152447152500000013Mad Dash Block Open (:13-:15)                                                                                               150                                
PGRFAMCHA040401152500154734002234Disney's Lilo & Stitch: The Series                EPS # 27                                                            A6068607E                                
PROFAMCHA040401154734154749000015Mad Dash  - 03 - WEEKENDERS/RECESS/KIM (:14-:16)                                                                            150                                
PRCFAMCHA040401154749154819000030xxRadio Free Roscoe - Skye Sweetnam - Tonight @ 7:                                                                          150                                
PRCFAMCHA040401154819154834000015xxRadio Free Roscoe - Skye Sweetnam Autograph                                                                               150                                
PRCFAMCHA040401154834154858000024Gagster April Fools Contest (Mar 24 - Apr 1) (3x)                                                                           150                                
PROFAMCHA040401154858154931000033Scooby Doo 2 Contest (Mar 26-Apr 5)                                                                                         150                                
PRCFAMCHA040401154931154947000016Radio Free Roscoe - Webthrow (Smog)                                                                                         150                                
ID FAMCHA040401154947155000000013Mad Dash Block Open (:13-:15)                                                                                               150                                
PGRFAMCHA040401155000161254002254Disney's The Weekenders                           Best/Broken                                                         A6068607E                                
PROFAMCHA040401161254161308000014Mad Dash  - 04 - RECESS/KIM/PROUD (:14-:16)                                                                                 150                                
PRCFAMCHA040401161308161338000030xxRadio Free Roscoe - Skye Sweetnam - Tonight @ 7:                                                                          150                                
INTFAMCHA040401161338161450000112Gagsters - Double Dribble                                                                                             A20686120                                
PRCFAMCHA040401161450161545000055Kellogg's - Vote Blue Contest (March 29 - May 2)                                                                            150                                
ID FAMCHA040401161545161558000013Mad Dash Block Open (:13-:15)                                                                                               150                                
PGRFAMCHA040401161558163833002235Disney's Recess                                   Shiner/Stand-Up Randall                                              6068607E                                
PROFAMCHA040401163833163848000015Mad Dash  - 05 - KIM/PROUD/LIZZIE (:14-:16)                                                                                 150                                
PRCFAMCHA040401163848163918000030xxRadio Free Roscoe - Skye Sweetnam - Tonight @ 7:                                                                          150                                
PRCFAMCHA040401163918163950000032Cheaper By The Dozen Contest (March 29 - April 6)                                                                           150                                
PRCFAMCHA040401163950164014000024Gagster April Fools Contest (Mar 24 - Apr 1) (3x)                                                                           150                                
INTFAMCHA040401164014164114000100Gagsters - Pesky Painter                                                                                              A20286120                                
PROFAMCHA040401164114164145000031Full Court Miracle (PP) - Premiering Tomorrow @ 7:                                                                          150                                
ID FAMCHA040401164145164200000015Mad Dash Block Open (:13-:15)                                                                                               150                                
PGRFAMCHA040401164200170451002251Disney's Kim Possible                             Downhill                                                            A6068607E                                
PROFAMCHA040401170451170506000015Mad Dash  - 06 - PROUD/LIZZIE/ALL (:14-:16)                                                                                 150                                
PRCFAMCHA040401170506170530000024Gagster April Fools Contest (Mar 24 - Apr 1) (3x)                                                                           150                                
INTFAMCHA040401170530170642000112Gagsters - Bad Breath                                                                                                 A20686120                                
PROFAMCHA040401170642170715000033Scooby Doo 2 Contest (Mar 26-Apr 5)                                                                                         150                                
PRCFAMCHA040401170715170745000030xxRadio Free Roscoe - Skye Sweetnam - Tonight @ 7:                                                                          150                                
ID FAMCHA040401170745170800000015Mad Dash Block Open (:13-:15)                                                                                               150                                
PROFAMCHA040401170800170808000008CC Disclaimer - FAST - Family.ca (:08-:10)                                                                                  150                                
PGRFAMCHA040401170808173037002229Proud Family; The                                 Romeo Must Wed                                                      A6068807ECC                              
PROFAMCHA040401173037173051000014Mad Dash  - 07(NOV) - LIZZIE/ALL/RAVEN (:14-:16)                                                                            150                                
PRCFAMCHA040401173051173121000030xxRadio Free Roscoe - Skye Sweetnam - Tonight @ 7:                                                                          150                                
PRCFAMCHA040401173121173153000032Cheaper By The Dozen Contest (March 29 - April 6)                                                                           150                                
PRCFAMCHA040401173153173217000024Gagster April Fools Contest (Mar 24 - Apr 1) (3x)                                                                           150                                
INTFAMCHA040401173217173316000059Gagsters - Dirty Cleaning                                                                                             A20686120                                
PROFAMCHA040401173316173347000031Full Court Miracle (PP) - Premiering Tomorrow @ 7:                                                                          150                                
ID FAMCHA040401173347173400000013Mad Dash Block Open (:13-:15)                                                                                               150                                
ID FAMCHA040401173400173408000008Magic of Disney - MAD DASH - Shape (:06-:09)                                                                                150                                
PGRFAMCHA040401173408175653002245Lizzie McGuire                                    Pool Party                                                          A6068607B                                
PROFAMCHA040401175653175708000015Nonstop - 01(M-T/NOV) - ALL/RAVEN/EVEN (:14-:16)                                                                            150                                
PRCFAMCHA040401175708175738000030xxRadio Free Roscoe - Skye Sweetnam - Tonight @ 7:                                                                          150                                
PRCFAMCHA040401175738175808000030xxFamily Birthday Club #3 - ONGOING (P) xxDNUxx                                                                             150                                
INTFAMCHA040401175808175911000103Gagsters - Clucking Chicken                                                                                           A20686120                                
PROFAMCHA040401175911175944000033Scooby Doo 2 Contest (Mar 26-Apr 5)                                                                                         150                                
ID FAMCHA040401175944180000000016Nonstop Block Open (:14-:17)                                                                                                150                                
PGRFAMCHA040401180000182000002000All That                                          EPS # 949                                                           A20286090                                
PROFAMCHA040401182000182016000016Nonstop - 02(M-T/NOV) - RAVEN/EVEN/RADIO (:14-:16)                                                                          150                                
PRCFAMCHA040401182016182046000030xxRadio Free Roscoe - Skye Sweetnam - Tonight @ 7:                                                                          150                                
INTFAMCHA040401182046182221000135Gagsters - Hidden Hamster                                                                                             A20286120                                
PRCFAMCHA040401182221182311000050Bullying PSA - Ongoing to September 1                                                                                       150                                
PRCFAMCHA040401182311182335000024Gagster April Fools Contest (Mar 24 - Apr 1) (3x)                                                                           150                                
INTFAMCHA040401182335182432000057Gagsters - Door Prize                                                                                                 A20286120                                
PRCFAMCHA040401182432182527000055Kellogg's - Vote Blue Contest (March 29 - May 2)                                                                            150                                
INTFAMCHA040401182527182636000109Gagsters - Milkshake Madness                                                                                          A20286120                                
INTFAMCHA040401182636182736000100Gagsters - Pesky Painter                                                                                              A20686120                                
PROFAMCHA040401182736182807000031Full Court Miracle (PP) - Premiering Tomorrow @ 7:                                                                          150                                
INTFAMCHA040401182807182930000123Gagsters - Tricky Table (APRIL FOOLS)                                                                                 A20286120                                
PRCFAMCHA040401182930182945000015xxRadio Free Roscoe - Skye Sweetnam Autograph                                                                               150                                
ID FAMCHA040401182945182959000014Nonstop Block Open (:14-:17)                                                                                                150                                
PGRFAMCHA040401182959185239002240That's So Raven                                   EPS # 1-033                                                         A6068807B                                
PROFAMCHA040401185239185255000016Nonstop - 03(M-T/JAN) - EVEN/RADIO/BMW (:14-:16) (                                                                          150                                
PROFAMCHA040401185255185326000031Full Court Miracle (PP) - Premiering Tomorrow @ 7:                                                                          150                                
INTFAMCHA040401185326185425000059Gagsters - Dirty Cleaning                                                                                             A20686120                                
PROFAMCHA040401185425185440000015Hubba Bubba - Have a Say Contest (Generic)                                                                            A     150                                
INTFAMCHA040401185440185604000124Gagsters - Fresh Fruit                                                                                                A20686120                                
PROFAMCHA040401185604185638000034xxLizzie McGuire - GROWN UP (NSW/AM) - Weekends @                                                                           150                                
INTFAMCHA040401185638185735000057Gagsters - Door Prize                                                                                                 A20686120                                
PRCFAMCHA040401185735185805000030xxRadio Free Roscoe - Skye Sweetnam - Tonight @ 7:                                                                          150                                
INTFAMCHA040401185805185931000126Gagsters - Arm Chair                                                                                                  A20686120                                
PRCFAMCHA040401185931185946000015xxRadio Free Roscoe - Skye Sweetnam Autograph                                                                               150                                
ID FAMCHA040401185946190002000016Nonstop Block Open (:14-:17)                                                                                                150                                
PGRFAMCHA040401190002192244002242Even Stevens                                      Family Picnic                                                       A6068807B                                
PROFAMCHA040401192244192300000016Nonstop - 04(M-T) - RADIO/BMW/MENTORS (:14-:16) (M                                                                          150                                
PRCFAMCHA040401192300192330000030xxRadio Free Roscoe - Skye Sweetnam - Coming Up Ne                                                                          150                                
PRCFAMCHA040401192330192400000030xxFamily Birthday Club #4 - ONGOING (P) xxDNUxx                                                                             150                                
PROFAMCHA040401192400192410000010FAMJAM - Open                                                                                                               150                                
INTFAMCHA040401192400192632000232MV - Billy S (Skye Sweetnam)                                                                                          A20688120                                
PROFAMCHA040401192642192656000014xxFAMJAM - Close (WEB) xxDNUxx                                                                                              150                                
PROFAMCHA040401192656192729000033Scooby Doo 2 Contest (Mar 26-Apr 5)                                                                                         150                                
PRCFAMCHA040401192729192753000024Gagster April Fools Contest (Mar 24 - Apr 1) (3x)                                                                           150                                
INTFAMCHA040401192753192928000135Gagsters - Hidden Hamster                                                                                             A20686120                                
PRCFAMCHA040401192928192943000015xxRadio Free Roscoe - Skye Sweetnam Autograph                                                                               150                                
ID FAMCHA040401192943193000000017Nonstop Block Open (:14-:17)                                                                                                150                                
PROFAMCHA040401193000193010000010CC Disclaimer - FAST - Generic (:08-:10)                                                                                    150                                
PGRFAMCHA040401193010195240002230Radio Free Roscoe                                 EPS # 23                                                      A88736A1065607ACC                              
PROFAMCHA040401195240195256000016Nonstop - 05(M-T) - BMW/MENTORS/N-PIX (:14-:16) (M                                                                          150                                
PROFAMCHA040401195256195327000031Full Court Miracle (PP) - Premiering Tomorrow @ 7:                                                                          150                                
INTFAMCHA040401195327195432000105Gagsters - Magic Milk                                                                                                 A20286120                                
PROFAMCHA040401195432195502000030Boy Meets World (SCRAWNY) - (NS) - Coming Up                                                                                150                                
INTFAMCHA040401195502195611000109Gagsters - Milkshake Madness                                                                                          A20686120                                
PROFAMCHA040401195611195644000033Scooby Doo 2 Contest (Mar 26-Apr 5)                                                                                         150                                
INTFAMCHA040401195644195744000100Gagsters - Pesky Painter                                                                                              A20686120                                
PROFAMCHA040401195744195814000030Mentors (NS) - Tonight @ 8:30pm                                                                                             150                                
INTFAMCHA040401195814195937000123Gagsters - Tricky Table (APRIL FOOLS)                                                                                 A20686120                                
ID FAMCHA040401195937195945000008xxThat's So Raven ID's - You're Watching Family                                                                             150                                
ID FAMCHA040401195945200000000015Nonstop Block Open (:14-:17)                                                                                                150                                
PGRFAMCHA040401200000202053002053Boy Meets World                                   Can I Help To Cheer You                                             B6068807B                                
PROFAMCHA040401202053202107000014Nonstop - 06(M-T) - MENTORS/N-PIX (:14-:16) (MAR)                                                                           150                                
PROFAMCHA040401202107202138000031Full Court Miracle (PP) - Premiering Tomorrow @ 7:                                                                          150                                
PROFAMCHA040401202138202208000030Mentors (NS) - Coming Up Next                                                                                               150                                
INTFAMCHA040401202208202320000112Gagsters - Bad Breath                                                                                                 A20686120                                
PRCFAMCHA040401202320202344000024Gagster April Fools Contest (Mar 24 - Apr 1) (3x)                                                                           150                                
INTFAMCHA040401202344202449000105Gagsters - Magic Milk                                                                                                 A20686120                                
PROFAMCHA040401202449202520000031Brendan Leonard (#1 - FALL 2003) - Tonight @ 11pm                                                                           150                                
INTFAMCHA040401202520202638000118Gagsters - Bananarama                                                                                                 A20686120                                
INTFAMCHA040401202638202741000103Gagsters - Clucking Chicken                                                                                           A20686120                                
PROFAMCHA040401202741202806000025Even Stevens (SIBLINGS) - (NS/FRI) - Tomorrow @ 6:                                                                          150                                
INTFAMCHA040401202806202918000112Gagsters - Dirty Money                                                                                                A20286120                                
PRCFAMCHA040401202918202948000030xxRadio Free Roscoe (NS) - Tonight @ 12am                                                                                   150                                
ID FAMCHA040401202948203005000017Nonstop Block Open (:14-:17)                                                                                                150                                
PROFAMCHA040401203005203014000009CC Disclaimer - FAST - Family (:08-:10)                                                                                     150                                
PGRFAMCHA040401203014205325002311Mentors                                           A Matter Of Time Part 1                                       C20779A1015607ACC                              
PROFAMCHA040401205325205339000014Nightly Pix Line-up (SEPT) - GENERIC (:14-:16)                                                                              150                                
PROFAMCHA040401205339205410000031Full Court Miracle (PP) - Premiering Tomorrow @ 7:                                                                          150                                
INTFAMCHA040401205410205529000119Gagsters - Flower Power                                                                                               A20686120                                
PROFAMCHA040401205529205600000031Brendan Leonard (#1 - FALL 2003) - Tonight @ 11pm                                                                           150                                
INTFAMCHA040401205600205724000124Gagsters - Fresh Fruit                                                                                                A20686120                                
PROFAMCHA040401205724205752000028xxProud Family (BOND) - (MD) - Tomorrow @ 5:05pm                                                                            150                                
INTFAMCHA040401205752205927000135Gagsters - Hidden Hamster                                                                                             A20686120                                
PROFAMCHA040401205927205952000025Even Stevens (SIBLINGS) - (NS/FRI) - Tomorrow @ 6:                                                                          150                                
ID FAMCHA040401205952210002000010Nightly Pix Movie Open (:10-:15)                                                                                            150                                
ID FAMCHA040401210002210011000009Rating - PG - Ian (:08-:10)                                                                                                 150                                
PROFAMCHA040401210011210020000009CC Disclaimer - SLOW - Family (:08-:10)                                                                                     150                                
PGRFAMCHA040401210020223149013129Naked Gun: From The Files Of Police Squad!; The                                                                       B2068807DCC                              
PROFAMCHA040401223149223203000014Nonstop - 07(M-T/JAN) - BMW/BRENDAN/SMART (:14-:16                                                                          150                                
ID FAMCHA040401223203223217000014Nonstop Block Open (:14-:17)                                                                                                150                                
PROFAMCHA040401223217223226000009CC Disclaimer - SLOW - Family.ca (:08-:10)                                                                                  150                                
PGRFAMCHA040401223226225406002140Boy Meets World                                   Raging Cory                                                         B6068807BCC                              
PROFAMCHA040401225406225421000015Nonstop - 08(M/T-MAR) - BRENDAN/SMART/RADIO (:14-:                                                                          150                                
PROFAMCHA040401225421225452000031Full Court Miracle (PP) - Premiering Tomorrow @ 7:                                                                          150                                
INTFAMCHA040401225452225557000105Gagsters - Magic Milk                                                                                                 A20686120                                
PROFAMCHA040401225557225622000025Even Stevens (SIBLINGS) - (NS/FRI) - Tomorrow @ 6:                                                                          150                                
INTFAMCHA040401225622225752000130xxMovie Surfers Confessions of a Teenage Drama Que                                                                     6068 120                                
PROFAMCHA040401225752225822000030Amanda Show - FACES - (NS/FRI) - Tomorrow @ 6pm                                                                             150                                
INTFAMCHA040401225822225931000109Gagsters - Milkshake Madness                                                                                          A20686120                                
PRCFAMCHA040401225931225948000017Radio Free Roscoe - Webthrow (Question Mark)                                                                                150                                
ID FAMCHA040401225948230002000014Nonstop Block Open (:14-:17)                                                                                                150                                
PGRFAMCHA040401230002232057002055Brendan Leonard Show; The                         EPS # 1-040                                                         B6068807F                                
PROFAMCHA040401232057232111000014Nonstop - 08b(M-T/MAR) - SMART/RADIO/DARK (:14-:16                                                                          150                                
PROFAMCHA040401232111232142000031Full Court Miracle (PP) - Premiering Tomorrow @ 7:                                                                          150                                
INTFAMCHA040401232142232308000126Gagsters - Arm Chair                                                                                                  A20686120                                
PRCFAMCHA040401232308232338000030xxRadio Free Roscoe (NS) - Tonight @ 12am                                                                                   150                                
INTFAMCHA040401232338232811000433Art Attack - Gorilla                                                                                                   60686120                                
INTFAMCHA040401232811232923000112Gagsters - Bad Breath                                                                                                 A20686120                                
PROFAMCHA040401232923232948000025Even Stevens (SIBLINGS) - (NS/FRI) - Tomorrow @ 6:                                                                          150                                
ID FAMCHA040401232948233003000015Nonstop Block Open (:14-:17)                                                                                                150                                
PROFAMCHA040401233003233012000009CC Disclaimer - SLOW - Generic (:08-:10)                                                                                    150                                
PGRFAMCHA040401233012235237002225Smart Guy                                         Brother, Brother                                                    A6068807BCC                              
PROFAMCHA040401235237235252000015Nonstop - 09 (FRI) - RADIO/DARK (:14-:16) (MAR)                                                                             150                                
PROFAMCHA040401235252235323000031Full Court Miracle (PP) - Premiering Tomorrow @ 7:                                                                          150                                
INTFAMCHA040401235323235435000112Gagsters - Double Dribble                                                                                             A20686120                                
PRCFAMCHA040401235435235505000030xxRadio Free Roscoe (NS) - Coming Up Next                                                                                   150                                
INTFAMCHA040401235505235805000300Art Attack - Jack-In-The-Box                                                                                           60686120                                
INTFAMCHA040401235805235924000119Gagsters - Flower Power                                                                                               A20686120                                
PROFAMCHA040401235924235949000025Even Stevens (SIBLINGS) - (NS/FRI) - Tomorrow @ 6:                                                                          150                                
ID FAMCHA040401235949000003000014Nonstop Block Open (:14-:17)                                                                                                150                                
PROFAMCHA040401000003000012000009CC Disclaimer - SLOW - Family (:08-:10)                                                                                     150                                
PGRFAMCHA040401000012002242002230Radio Free Roscoe                                 EPS # 009                                                     A88725A1065607ACC                              
PROFAMCHA040401002242002258000016Nonstop - 10 - DARK (:14-:16) (MAR)                                                                                         150                                
PROFAMCHA040401002258002329000031Full Court Miracle (PP) - Premiering Tomorrow @ 7:                                                                          150                                
INTFAMCHA040401002329002434000105Gagsters - Magic Milk                                                                                                 A20686120                                
PROFAMCHA040401002434002459000025Even Stevens (SIBLINGS) - (NS/FRI) - Tomorrow @ 6:                                                                          150                                
INTFAMCHA040401002459002608000109Gagsters - Milkshake Madness                                                                                          A20686120                                
PROFAMCHA040401002608002638000030xxThat's So Raven (GOOD LIFE) - (NS) - Tomorrow @                                                                           150                                
PROFAMCHA040401002638002708000030xxTeen Angel - (NS/FRI) - Tomorrow @ 7pm                                                                                    150                                
INTFAMCHA040401002708002933000225Art Attack - Snooker                                                                                                   60686120                                
PRCFAMCHA040401002933002950000017Radio Free Roscoe - Webthrow (Question Mark)                                                                                150                                
ID FAMCHA040401002950003006000016Nonstop Block Open (:14-:17)                                                                                                150                                
PGRFAMCHA040401003006005355002349Are You Afraid Of The Dark?                       The Tale of the Phantom Cab                                   SR0302 1066807A                                
PROFAMCHA040401005355005426000031Full Court Miracle (PP) - Premiering Tomorrow @ 7:                                                                          150                                
INTFAMCHA040401005426005552000126Gagsters - Arm Chair                                                                                                  A20686120                                
INTFAMCHA040401005552005704000112Gagsters - Bad Breath                                                                                                 A20686120                                
PROFAMCHA040401005704005734000030xxTeen Angel - (NS/FRI) - Tomorrow @ 7pm                                                                                    150                                
INTFAMCHA040401005734005852000118Gagsters - Bananarama                                                                                                 A20686120                                
PROFAMCHA040401005852005922000030Amanda Show - FACES - (NS/FRI) - Tomorrow @ 6pm                                                                             150                                
INTFAMCHA040401005922010025000103Gagsters - Clucking Chicken                                                                                           A20686120                                
PROFAMCHA040401010025010055000030xxAll That - HEAR THAT? - NSW - Weekends @ 9am                                                                              150                                
INTFAMCHA040401010055010207000112Gagsters - Dirty Money                                                                                                A20686120                                
SO FAMCHA040401010207011407001200Sign Off                                                                                                                                                       
OFFFAMCHA040401011407043000031553OFF AIR                                                                                                                                                        
SO FAMCHA040402043000043011000011Sign On (oct 1)                                                                                                                                                
PROFAMCHA040402043011043020000009CC Disclaimer - FAST - Family.ca (:08-:10)                                                                                  150                                
PGRFAMCHA040402043020045313002253Franklin                                          Sam/Berry Patch                                               B38154A1065607ECC                              
PROFAMCHA040402045313045329000016PS - 01(PH) - WTP/KATIE/FRANKLIN (:14-:16)                                                                                  150                                
ID FAMCHA040402045329045342000013PS Playhouse AM Block Open (:10-:15)                                                                                        150                                
PROFAMCHA040402045342045352000010CC Disclaimer - FAST - Family.ca (:08-:10)                                                                                  150                                
PGRFAMCHA040402045352051628002236New Adventures of Winnie the Pooh; The            Sorry, Wrong Slusher                                                 6068607ECC                              
PROFAMCHA040402051628051644000016PS - 02(PH) - KATIE/FRANKLIN/SOMETHING (:14-:16)                                                                            150                                
ID FAMCHA040402051644051659000015PS Playhouse AM Block Open (:10-:15)                                                                                        150                                
PROFAMCHA040402051659051707000008CC Disclaimer - FAST - Family.ca (:08-:10)                                                                                  150                                
PGRFAMCHA040402051707054342002635Katie And Orbie                                   The Attic/The Zoo/Katie Up A Tree                             C12449A1065607ECC                              
PROFAMCHA040402054342054356000014PS - 03(PH) - FRANKLIN/SOMETHING/HOZE (:14-:16)                                                                             150                                
ID FAMCHA040402054356054406000010PS Playhouse AM Block Open (:10-:15)                                                                                        150                                
PROFAMCHA040402054406054415000009CC Disclaimer - FAST - Family.ca (:08-:10)                                                                                  150                                
PGRFAMCHA040402054415060708002253Franklin                                          Rival/The Trading Cards                                       B38155A1065607ECC                              
PROFAMCHA040402060708060724000016PS - 04(PH) - SOMETHING/HOZE/KNIGHT (:14-:16)                                                                               150                                
PROFAMCHA040402060724060749000025Hoze Houndz (Can't Fly) (PH/AM) - Today @ 6:35am                                                                            150                                
ID FAMCHA040402060749060800000011PS Playhouse AM Block Open (:10-:15)                                                                                        150                                
PROFAMCHA040402060800060809000009CC Disclaimer - FAST - Family.ca (:08-:10)                                                                                  150                                
PGRFAMCHA040402060809063040002231Something Else                                    The Trip/The Sitters                                          B69256A1065607ECC                              
PROFAMCHA040402063040063056000016PS - 05(PH) - HOZE/KNIGHT/NINJA (:14-:16)                                                                                   150                                
PRCFAMCHA040402063056063113000017Hoze Houndz (SQUIRT) - (PH) - Coming Up Next                                                                                150                                
PROFAMCHA040402063113063143000030xxDisney's 101 Dalmatians - Today @ 8:30am                                                                                  150                                
PRCFAMCHA040402063143063157000014Playhouse - HOZE HOUNDZ - Skater                                                                                            150                                
PRCFAMCHA040402063157063232000035xxFranklin (CANOE - FALL 2003) - Today @ 8:55am                                                                             150                                
PRCFAMCHA040402063232063416000144xxPlayhouse - HOUSE OF MOUSE - Seating Song                                                                                 150                                
PROFAMCHA040402063416063448000032xxJojo's Circus - Today @ 9:45am                                                                                            150                                
ID FAMCHA040402063448063500000012PS Playhouse AM Block Open (:10-:15)                                                                                        150                                
PROFAMCHA040402063500063509000009CC Disclaimer - FAST - Family.ca (:08-:10)                                                                                  150                                
PGRFAMCHA040402063509065749002240Hoze Houndz                                       High Noon Hozer/Win, Place Or Show Off                        B45779A1065607ECC                              
PROFAMCHA040402065749065803000014PS - 06(PB) - KNIGHT/NINJA/GADGET (:14-:16)                                                                                 150                                
PROFAMCHA040402065803065833000030Mon Colle Knights - Coming Up                                                                                               150                                
PROFAMCHA040402065833065903000030Gadget & The Gadgetinis - (PB) - Today @ 8am                                                                                150                                
PROFAMCHA040402065903065939000036Power Rangers Dino Thunder (LONG) - Tomorrow @ 7am                                                                          150                                
PRCFAMCHA040402065939065948000009Radio Free Roscoe ID (MAR) - You're Watching Famil                                                                          150                                
ID FAMCHA040402065948070002000014Power Box Block Open (:12-:15)                                                                                              150                                
PGRFAMCHA040402070002072127002125Mon Colle Knights                                 EPS # 1-012                                                         A6068607E                                
PROFAMCHA040402072127072143000016PS - 07(PB) - NINJA/GADGET/DALMATIANS (:14-:16)                                                                             150                                
PROFAMCHA040402072143072214000031Full Court Miracle (PP) - Premiering Tonight @ 7:3                                                                          150                                
PROFAMCHA040402072214072244000030Gadget & The Gadgetinis - (PB) - Today @ 8am                                                                                150                                
PRCFAMCHA040402072244072314000030MAD DASH LUNCH - Block Promo - Today @ 11:50am                                                                              150                                
INTFAMCHA040402072314072417000103Gagsters - Box Of Chocolates                                                                                          A20686120                                
PROFAMCHA040402072417072453000036Power Rangers Dino Thunder (LONG) - Tomorrow @ 7am                                                                          150                                
PROFAMCHA040402072453072503000010FAMJAM - Open                                                                                                               150                                
INTFAMCHA040402072503072840000337MV Disney - So Yesterday LIVE (Hillary Duff)                                                                           60688120                                
PROFAMCHA040402072840072854000014FAMJAM - Close (LOGO)                                                                                                       150                                
PRCFAMCHA040402072854072909000015xxRadio Free Roscoe - Skye Sweetnam Autograph                                                                               150                                
PRCFAMCHA040402072909072939000030xxFamily Birthday Club #1 - ONGOING (G) xxDNUxx                                                                             150                                
PRCFAMCHA040402072939072948000009Radio Free Roscoe ID (MAR) - You're Watching Famil                                                                          150                                
ID FAMCHA040402072948073002000014Power Box Block Open (:12-:15)                                                                                              150                                
PGRFAMCHA040402073002075127002125Power Rangers Ninja Storm                         Pork Chopped                                                        A6068607E                                
PROFAMCHA040402075127075143000016PS - 08(PB) - GADGET/DALMATIANS/FRANKLIN (:14-:16)                                                                          150                                
PROFAMCHA040402075143075214000031Full Court Miracle (PP) - Premiering Tonight @ 7:3                                                                          150                                
PROFAMCHA040402075214075244000030Gadget & The Gadgetinis - (PB) - Coming Up                                                                                  150                                
PROFAMCHA040402075244075314000030Recess (NOV2003) - Today @ 11:50am                                                                                          150                                
PRCFAMCHA040402075314075404000050Bullying PSA - Ongoing to September 1                                                                                       150                                
PROFAMCHA040402075404075434000030Goof Troop (FEB 2004) - Today @ 12:35pm                                                                                     150                                
INTFAMCHA040402075434075514000040Harrisons; The - Joy Ride                                                                                             A10626120                                
INTFAMCHA040402075514075907000353Art Attack - Girl On A Bike                                                                                            60686120                                
PROFAMCHA040402075907075935000028xxProud Family (BOND) - (MD) - Today @ 5:05pm                                                                               150                                
PRCFAMCHA040402075935075950000015xxRadio Free Roscoe - Skye Sweetnam Autograph                                                                               150                                
ID FAMCHA040402075950080004000014Power Box Block Open (:12-:15)                                                                                              150                                
PGRFAMCHA040402080004082217002213Gadget & the Gadgetinis                           EPS # 1-003                                                         A6068607E                                
PROFAMCHA040402082217082233000016PS - 09(PH) - DALMATIANS/FRANKLIN/WTP (:14-:16)                                                                             150                                
PROFAMCHA040402082233082303000030xxDisney's 101 Dalmatians - Coming Up                                                                                       150                                
PRCFAMCHA040402082303082329000026xxFranklin (PUPPY - FALL 2003) - Today @ 8:55am                                                                             150                                
PROFAMCHA040402082329082401000032xxJojo's Circus - Today @ 9:45am                                                                                            150                                
INTFAMCHA040402082401082708000307MV Disney - (PH) - Anytime You Need A Friend (The                                                                      60688120                                
PRCFAMCHA040402082708082736000028xxChip 'n Dale (FALL 2003) - Today @ 11am                                                                                   150                                
INTFAMCHA040402082736082921000145Art Attack - Bi-Plane I                                                                                                60686120                                
PROFAMCHA040402082921082951000030xxHouse of Mouse (FALL 2003) - Today @ 2:35pm                                                                               150                                
ID FAMCHA040402082951083003000012PS Playhouse AM Block Open (:10-:15)                                                                                        150                                
PGRFAMCHA040402083003085251002248Disney's 101 Dalmatians: The Series               EPS # 1-055                                                         A6068607E                                
PROFAMCHA040402085251085305000014PS - 10(PH) - FRANKLIN/WTP/JOJO (:14-:16) (JAN12)                                                                           150                                
PRCFAMCHA040402085305085340000035xxFranklin (CANOE - FALL 2003) - Coming Up (PH)                                                                             150                                
PROFAMCHA040402085340085412000032xxJojo's Circus - Today @ 9:45am                                                                                            150                                
PRCFAMCHA040402085412085452000040xxHoze Houndz (PIRATES - FALL 2003) - Today @ 2:10                                                                          150                                
ID FAMCHA040402085452085502000010PS Playhouse AM Block Open (:10-:15)                                                                                        150                                
PROFAMCHA040402085502085511000009CC Disclaimer - FAST - Family.ca (:08-:10)                                                                                  150                                
PGRFAMCHA040402085511091804002253Franklin                                          Franklin Stays Up/Franklin's Bargain                          B53202A1065607ECC                              
PROFAMCHA040402091804091820000016PS - 11(PH) - WTP/JOJO/STANLEY (:14-:16) (JAN12)                                                                            150                                
PROFAMCHA040402091820091852000032xxJojo's Circus - Today @ 9:45am                                                                                            150                                
PROFAMCHA040402091852091922000030xxStanley - TEDDY BEAR - Today @ 10:10am                                                                                    150                                
PRCFAMCHA040402091922091952000030xxHenry's World - TEDDY - Today @ 10:35am                                                                                   150                                
ID FAMCHA040402091952092002000010PS Playhouse AM Block Open (:10-:15)                                                                                        150                                
PROFAMCHA040402092002092011000009CC Disclaimer - FAST - Family.ca (:08-:10)                                                                                  150                                
PGRFAMCHA040402092011094248002237New Adventures of Winnie the Pooh; The            Grown, But Not Forgotten                                             6068607ECC                              
PROFAMCHA040402094248094303000015PS - 12(PH) - JOJO/STANLEY/HENRY (:14-:16) (JAN12)                                                                          150                                
PROFAMCHA040402094303094335000032xxJojo's Circus - Coming Up                                                                                                 150                                
PROFAMCHA040402094335094405000030xxStanley - TEDDY BEAR - Today @ 10:10am                                                                                    150                                
PRCFAMCHA040402094405094433000028xxChip 'n Dale (FALL 2003) - Today @ 11am                                                                                   150                                
PROFAMCHA040402094433094503000030xxDisney's 101 Dalmatians - Today @ 1:25pm                                                                                  150                                
PRCFAMCHA040402094503094548000045xxHoze Houndz (PAMPER - FALL 2003) - Today @ 2:10p                                                                          150                                
ID FAMCHA040402094548094600000012PS Playhouse AM Block Open (:10-:15)                                                                                        150                                
PGRFAMCHA040402094600101007002407JoJo's Circus                                     EPS # 22                                                            A6068607E                                
PROFAMCHA040402101007101023000016PS - 13(PH) - STANLEY/HENRY/CHIP (:14-:16) (JAN12)                                                                          150                                
PROFAMCHA040402101023101053000030xxStanley - TEDDY BEAR - Next                                                                                               150                                
PRCFAMCHA040402101053101123000030xxHenry's World - TEDDY - Today @ 10:35am                                                                                   150                                
PRCFAMCHA040402101123101147000024xxFranklin (PUPPY - FALL 2003) - Tomorrow @ 7:10pm                                                                          150                                
ID FAMCHA040402101147101200000013PS Playhouse AM Block Open (:10-:15)                                                                                        150                                
PROFAMCHA040402101200101209000009CC Disclaimer - FAST - Family.ca (:08-:10)                                                                                  150                                
PGRFAMCHA040402101209103607002358Stanley                                           Platypus Problems/Rabbit Habit                                      A6068607ECC                              
PROFAMCHA040402103607103623000016PS - 14(PH) - HENRY/CHIP/ART (:14-:16) (JAN12)                                                                              150                                
PRCFAMCHA040402103623103653000030xxHenry's World - TEDDY - Coming Up                                                                                         150                                
PRCFAMCHA040402103653103721000028xxChip 'n Dale (FALL 2003) - Today @ 11am                                                                                   150                                
PRCFAMCHA040402103721103748000027Ripley's BION (MACHINES) - Every Morning @ 6:05am                                                                           150                                
ID FAMCHA040402103748103800000012PS Playhouse AM Block Open (:10-:15)                                                                                        150                                
PROFAMCHA040402103800103809000009CC Disclaimer - FAST - Family.ca (:08-:10)                                                                                  150                                
PGRFAMCHA040402103809110211002402Henry's World                                     Henry's Christmas Gifts/Snow Day                              A81057A1025607GCC                              
PROFAMCHA040402110211110225000014PS - 15(PH) - CHIP/ART/RECESS (:14-:16)                                                                                     150                                
PRCFAMCHA040402110225110253000028xxChip 'n Dale (FALL 2003) - Coming Up                                                                                      150                                
PRCFAMCHA040402110253110320000027Playhouse - HENRY'S WORLD - Snowball                                                                                        150                                
PROFAMCHA040402110320110350000030xxDisney's 101 Dalmatians - Today @ 1:25pm                                                                                  150                                
ID FAMCHA040402110350110400000010PS Playhouse AM Block Open (:10-:15)                                                                                        150                                
ID FAMCHA040402110400110406000006Magic of Disney - PLAYHOUSE - Shape (:06-:09)                                                                               150                                
PGRFAMCHA040402110406112655002249Chip 'n Dale Rescue Rangers                       One Upsman Chip                                                     A6068607E                                
PROFAMCHA040402112655112709000014PS - 16(PH) - ART/RECESS/FILLMORE (:14-:16) (JAN)                                                                           150                                
PROFAMCHA040402112709112739000030xxDisney's 101 Dalmatians - Today @ 1:25pm                                                                                  150                                
PROFAMCHA040402112739112804000025Hoze Houndz (Can't Fly) (PH/PM) - Today @ 2:10pm                                                                            150                                
PRCFAMCHA040402112804112818000014Playhouse - HOZE HOUNDZ - Skater                                                                                            150                                
PROFAMCHA040402112818112848000030xxHouse of Mouse (FALL 2003) - Today @ 2:35pm                                                                               150                                
ID FAMCHA040402112848112900000012PS Playhouse AM Block Open (:10-:15)                                                                                        150                                
PGRFAMCHA040402112900114904002004Art Attack                                                                                                             60686110                                
PROFAMCHA040402114904114918000014PS - 17(MD) - RECESS/FILLMORE/GOOF (:14-:16) (JAN1                                                                          150                                
PROFAMCHA040402114918114948000030Recess (NOV2003) - Coming Up                                                                                                150                                
ID FAMCHA040402114948115001000013PS Mad Dash Block Open (:13-:15)                                                                                            150                                
PGRFAMCHA040402115001121236002235Disney's Recess                                   Mama's Girl/Outcast Ashley                                           6068607E                                
PROFAMCHA040402121236121252000016PS - 18(MD) - FILLMORE/GOOF/TEAMO (:14-:16) (JAN1)                                                                          150                                
ID FAMCHA040402121252121305000013PS Mad Dash Block Open (:13-:15)                                                                                            150                                
PGRFAMCHA040402121305123544002239Disney's Fillmore!                                EPS # 1-015                                                         A6068607E                                
PROFAMCHA040402123544123600000016PS - 19(MD) - GOOF/TEAMO/DALMATIANS (:14-:16) (JAN                                                                          150                                
PROFAMCHA040402123600123630000030Goof Troop (FEB 2004) - Coming Up Next                                                                                      150                                
PRCFAMCHA040402123630123646000016Radio Free Roscoe - Webthrow (Smog)                                                                                         150                                
ID FAMCHA040402123646123700000014Mad Dash Block Open (:13-:15)                                                                                               150                                
PROFAMCHA040402123700123710000010CC Disclaimer - FAST - Family.ca (:08-:10)                                                                                  150                                
PGRFAMCHA040402123710125950002240Goof Troop                                        Puppy Love                                                           6068607ECC                              
PROFAMCHA040402125950130006000016PS - 20(MD) - TEAMO/DALMATIANS/CHIP (:14-:16) (JAN                                                                          150                                
PROFAMCHA040402130006130036000030Weekenders (MESS) - Today @ 3:50pm                                                                                          150                                
PRCFAMCHA040402130036130045000009Radio Free Roscoe ID (MAR) - You're Watching Famil                                                                          150                                
ID FAMCHA040402130045130100000015Mad Dash Block Open (:13-:15)                                                                                               150                                
PGRFAMCHA040402130100132353002253Disney's Teamo Supremo                            EPS # 1-039                                                         A6068607E                                
PROFAMCHA040402132353132409000016PS - 21(PH) - DALMATIANS/CHIP/HOZE (:14-:16)                                                                                150                                
ID FAMCHA040402132409132424000015PS Playhouse PM Block Open (:10-:15)                                                                                        150                                
PGRFAMCHA040402132424134710002246Disney's 101 Dalmatians: The Series               EPS # 1-056                                                         A6068607E                                
PROFAMCHA040402134710134725000015PS - 22(PH) - CHIP/HOZE/HOM (:14-:16)                                                                                       150                                
PROFAMCHA040402134725134750000025Hoze Houndz (Can't Fly) (PH/PM) - Today @ 2:10pm                                                                            150                                
ID FAMCHA040402134750134800000010PS Playhouse PM Block Open (:10-:15)                                                                                        150                                
ID FAMCHA040402134800134808000008Magic of Disney - PLAYHOUSE - Wipe (:06-:09)                                                                                150                                
PGRFAMCHA040402134808141053002245Chip 'n Dale Rescue Rangers                       Zipper Come Home                                                    A6068607E                                
PROFAMCHA040402141053141109000016PS - 23(PH) - HOZE/HOM/TIMON (:14-:16)                                                                                      150                                
PRCFAMCHA040402141109141149000040xxHoze Houndz (PIRATES - FALL 2003) - Coming Up (P                                                                          150                                
ID FAMCHA040402141149141200000011PS Playhouse PM Block Open (:10-:15)                                                                                        150                                
PROFAMCHA040402141200141209000009CC Disclaimer - FAST - Family.ca (:08-:10)                                                                                  150                                
PGRFAMCHA040402141209143444002235Hoze Houndz                                       Tenor Mercies/Sleeping Houndz                                 B34015A1065607ECC                              
PROFAMCHA040402143444143500000016PS - 24(PH) - HOM/TIMON/LILO (:14-:16) (JAN1)                                                                               150                                
PROFAMCHA040402143500143530000030xxHouse of Mouse (FALL 2003) - Coming Up                                                                                    150                                
PRCFAMCHA040402143530143549000019Playhouse - HOZE HOUNDZ - Code Blue                                                                                         150                                
ID FAMCHA040402143549143600000011PS Playhouse PM Block Open (:10-:15)                                                                                        150                                
PROFAMCHA040402143600143609000009CC Disclaimer - FAST - Family.ca (:08-:10)                                                                                  150                                
PGRFAMCHA040402143609145848002239Disney's House Of Mouse                           Pluto Saves The Day                                                  6068607ECC                              
PROFAMCHA040402145848145904000016Mad Dash  - 01 - TIMON/LILO/WEEKENDERS (:14-:16) (                                                                          150                                
PRCFAMCHA040402145904145934000030xxMad Dash - GUIDE - Coming Up                                                                                              150                                
PRCFAMCHA040402145934145946000012Mad Dash - WEEKENDERS - Reality                                                                                             150                                
ID FAMCHA040402145946150000000014Mad Dash Block Open (:13-:15)                                                                                               150                                
PROFAMCHA040402150000150009000009CC Disclaimer - FAST - Family.ca (:08-:10)                                                                                  150                                
PGRFAMCHA040402150009152254002245Lion King's Timon & Pumbaa; The                   Nearly Departed/Early Bird Watchers                                  6068607E                                
PROFAMCHA040402152254152310000016Mad Dash  - 02 - LILO/WEEKENDERS/RECESS (:14-:16)                                                                           150                                
PROFAMCHA040402152310152341000031Full Court Miracle (PP) - Premiering Tonight @ 7:3                                                                          150                                
PRCFAMCHA040402152341152413000032Cheaper By The Dozen Contest (March 29 - April 6)                                                                           150                                
PROFAMCHA040402152413152447000034xxLizzie McGuire - GROWN UP (MD) - Today @ 5:35pm                                                                           150                                
ID FAMCHA040402152447152500000013Mad Dash Block Open (:13-:15)                                                                                               150                                
PROFAMCHA040402152500152509000009CC Disclaimer - FAST - Family.ca (:08-:10)                                                                                  150                                
PGRFAMCHA040402152509154748002239Disney's Lilo & Stitch: The Series                EPS # 28                                                            A6068607E                                
PROFAMCHA040402154748154804000016Mad Dash  - 03 - WEEKENDERS/RECESS/KIM (:14-:16)                                                                            150                                
PROFAMCHA040402154804154835000031Full Court Miracle (PP) - Premiering Tonight @ 7:3                                                                          150                                
