SO FAMCHA070601043000043011000011Sign On (oct 1)                                                                                                                                                
PGRFAMCHA070601043011045647002636Katie And Orbie                                   EP: 1-001                                                     P16140A1065607E                                
PRCFAMCHA070601045647045702000015PH - 04 - FRANNY/SOMETHING/HOZE  (:14 - :16) (APR0                                                                          150                                
ID FAMCHA070601045702045715000013PS Playhouse AM Block Open (:10-:15) $$$                                                                                    150                                
PRCFAMCHA070601045715045724000009CC Disclaimer - FAST - Generic (:08-:10) $$$                                                                                150                                
PGRFAMCHA070601045724051954002230Franny's Feet                                     EPS # 1-012                                                   C23970A1065607ECC                              
PRCFAMCHA070601051954051959000005Astral ID (FEB05)                                                                                                           150                                
PRCFAMCHA070601051959052015000016PH - 05 - SOMETHING/HOZE/KING (:14 - :16) (APR06)                                                                           150                                
ID FAMCHA070601052015052028000013PS Playhouse AM Block Open (:10-:15) $$$                                                                                    150                                
PRCFAMCHA070601052028052037000009CC Disclaimer - FAST - Family.ca (:08-:10) $$$                                                                              150                                
PGRFAMCHA070601052037054310002233Something Else                                    EP: 1-007                                                     B69261A1065607ECC                              
PRCFAMCHA070601054310054326000016PH - 06 - HOZE/KING/SPIDERMAN (:14 - :16) (APR06)                                                                           150                                
ID FAMCHA070601054326054339000013PS Playhouse AM Block Open (:10-:15) $$$                                                                                    150                                
PRCFAMCHA070601054339054348000009CC Disclaimer - FAST - Generic (:08-:10) $$$                                                                                150                                
PGRFAMCHA070601054348060626002238Hoze Houndz                                       EPS # 6-076                                                   C22818A1065607ECC                              
PRCFAMCHA070601060626060631000005Astral ID (FEB05)                                                                                                           150                                
PRCFAMCHA070601060631060647000016PH - 07 - KING/SPIDERMAN/KIM  (:14 - :16) (APR06)                                                                           150                                
ID FAMCHA070601060647060700000013PS Playhouse AM Block Open (:10-:15) $$$                                                                                    150                                
PRCFAMCHA070601060700060709000009CC Disclaimer - FAST - Family.ca (:08-:10) $$$                                                                              150                                
PGRFAMCHA070601060709062939002230King                                              EP: 002                                                       B75757A1065607ECC                              
PRCFAMCHA070601062939062954000015PH - 08- SPIDERMAN/KIM ( (:14 - :16) (APR06) $$$                                                                            150                                
ID FAMCHA070601062954063007000013PS Playhouse AM Block Open (:10-:15) $$$                                                                                    150                                
PGRFAMCHA070601063007065148002141Spiderman                                         EP: 15                                                        C02618 1065607E                                
PRCFAMCHA070601065148065153000005Astral ID (FEB05)                                                                                                           150                                
PRCFAMCHA070601065153065208000015MMM - 01 (AM) - KIM/RECESS/WEEKENDERS (OCT05) (:14                                                                          150                                
PRCFAMCHA070601065208065238000030MMM Coming Up Next (APR06)                                                                                                  150                                
PGRFAMCHA070601065238065323000045xxMS - Ratatouille #2 (MD, NS/NSW before 9pm) (May                                                                    A60688120                                
PROFAMCHA070601065323065356000033Kim Possible MORE RON (MMM) (MAY 06) Coming up Nex                                                                          150                                
PROFAMCHA070601065356065406000010FAMJAM - Open/Close                                                                                                         150                                
PGRFAMCHA070601065406065505000059MV Disney - (FAMILY HITS) That's So Raven Theme So                                                                     60688120                                
PROFAMCHA070601065505065519000014xxFAMJAM - Close (FAMILY) xxDNUxx                                                                                           150                                
PROFAMCHA070601065519065550000031American Dragon Jake Long (MD) (APR07) HERO This A                                                                          150                                
PROFAMCHA070601065550065609000019MadMadMornings Block Open $$$                                                                                               150                                
PRCFAMCHA070601065609065618000009CC Disclaimer - FAST - Family.ca (:08-:10) $$$                                                                              150                                
PGRFAMCHA070601065618071912002254Disney's Kim Possible                             EPS # 1-055                                                          6068607ECC                              
PRCFAMCHA070601071912071927000015MMM - 02 (AM) - RECESS/WEEKENDERS/LILO (OCT05) (:1                                                                          150                                
PROFAMCHA070601071927072001000034Recess - HEROES (MMM) - (APR06) - Coming Up Next                                                                            150                                
PROFAMCHA070601072001072033000032Corbin Bleu "Another Side" CD Blast -- Avail Now (                                                                          150                                
PROFAMCHA070601072033072040000007MadMadMornings Bumper                                                                                                       150                                
PROFAMCHA070601072040072050000010FAMJAM - Open/Close                                                                                                         150                                
PGRFAMCHA070601072050072320000230MV Disney - (FAMILY HITS) That's So Raven Theme So                                                                     60688120                                
PROFAMCHA070601072320072334000014xxFAMJAM - Close (FAMILY) xxDNUxx                                                                                           150                                
PROFAMCHA070601072334072357000023Replacements (FEB07) JAPAN (NSW) - Tomorrow @ 4:45                                                                          150                                
PROFAMCHA070601072357072416000019MadMadMornings Block Open $$$                                                                                               150                                
PGRFAMCHA070601072416074651002235Disney's Recess                                   EP: 1-023                                                            6068607E                                
PRCFAMCHA070601074651074656000005Astral ID (FEB05)                                                                                                           150                                
PRCFAMCHA070601074656074711000015PH - 09 - WEEKENDERS/LILO/EINSTEINS (:14 - :16) (A                                                                          150                                
PROFAMCHA070601074711074747000036xxWeekenders - PIZZA (MMM) - (APR06) - Coming Up N                                                                          150                                
PRCFAMCHA070601074747074817000030Famous Players Popcorn Parties 2 (May 2-Sept 30/07                                                                          150                                
PROFAMCHA070601074817074850000033Lilo & Stitch (MMM) DANCE - This morn @ 8:15 (JUNE                                                                          150                                
PROFAMCHA070601074850074900000010FAMJAM - Open/Close                                                                                                         150                                
PGRFAMCHA070601074900074958000058MV Disney - (FAMILY HITS) That's So Raven Theme So                                                                     60688120                                
PROFAMCHA070601074958075012000014xxFAMJAM - Close (FAMILY) xxDNUxx                                                                                           150                                
PROFAMCHA070601075012075037000025xxRecess Sketches OCT 06 - The Word - BE COOL                                                                               150                                
PROFAMCHA070601075037075056000019MadMadMornings Block Open $$$                                                                                               150                                
PRCFAMCHA070601075056075105000009CC Disclaimer - FAST - Generic (:08-:10) $$$                                                                                150                                
PGRFAMCHA070601075105081345002240Disney's The Weekenders                           EP: 1-034                                                           A6068607ECC                              
PRCFAMCHA070601081345081400000015PH - 10 - LILO/EINSTEINS/WINNIE (:14 - :16) (APR06                                                                          150                                
PROFAMCHA070601081400081433000033Lilo & Stitch (MMM) DANCE - Coming Up Next (JUNE06                                                                          150                                
PGRFAMCHA070601081433081518000045xxMS - Ratatouille #3 (MD, NS/NSW before 9pm) (May                                                                    A60688120                                
PROFAMCHA070601081518081527000009Family Bumpers - (Phase 1 Spring 04) - Baseball (M                                                                          150                                
PROFAMCHA070601081527081537000010FAMJAM - Open/Close                                                                                                         150                                
PGRFAMCHA070601081537081707000130MV Disney - Girl Power (Cheetah Girls)                                                                                 60688120                                
PROFAMCHA070601081707081721000014xxFAMJAM - Close (FAMILY) xxDNUxx                                                                                           150                                
PROFAMCHA070601081721081752000031American Dragon Jake Long (MD) (APR07) HERO This A                                                                          150                                
PROFAMCHA070601081752081811000019MadMadMornings Block Open $$$                                                                                               150                                
PGRFAMCHA070601081811084050002239Disney's Lilo & Stitch: The Series                EP: 60                                                               6068607E                                
PRCFAMCHA070601084050084055000005Astral ID (FEB05)                                                                                                           150                                
PRCFAMCHA070601084055084111000016PH - 11 -EINSTEINS/WINNIE/BEAR  (:14 - :16) (NOV06                                                                          150                                
PROFAMCHA070601084111084150000039Little Einstein (PH) LOVE - Coming Up Next (MAY07)                                                                          150                                
PROFAMCHA070601084150084208000018xxJojo's Circus - HIP HOP - OCT 06 - This morn @ 1                                                                          150                                
PROFAMCHA070601084208084314000106xxPlayhouse - WINNIE THE POOH - Christopher Robin                                                                           150                                
PROFAMCHA070601084314084414000100xxMickey Mouse Clubhouse (Video 2) This morn @ 10:                                                                          150                                
PROFAMCHA070601084414084456000042Higglytown HEROES - (MAR07) - This morning @ 10:55                                                                          150                                
ID FAMCHA070601084456084509000013PS Playhouse AM Block Open (:10-:15) $$$                                                                                    150                                
PRCFAMCHA070601084509084518000009CC Disclaimer - FAST - Generic (:08-:10) $$$                                                                                150                                
PGRFAMCHA070601084518090923002405Disney's Little Einsteins                         EP: 05                                                               6028607ECC                              
PRCFAMCHA070601090923090939000016PH - 12 -WINNIE/BEAR/JOJO  (:14 - :16) (NOV06) $$$                                                                          150                                
PROFAMCHA070601090939091009000030Winnie the Pooh (PH/AM) (APR06) - Coming Up Next                                                                            150                                
PROFAMCHA070601091009091038000029xxBear In The Big Blue House 'BOOK' (PH) This Morn                                                                          150                                
ID FAMCHA070601091038091051000013PS Playhouse AM Block Open (:10-:15) $$$                                                                                    150                                
PRCFAMCHA070601091051091100000009CC Disclaimer - FAST - Family.ca (:08-:10) $$$                                                                              150                                
PGRFAMCHA070601091100093416002316The New Adventures of Winnie the Pooh             EP: 1-018                                                            6068607ECC                              
PRCFAMCHA070601093416093421000005Astral ID (FEB05)                                                                                                           150                                
PRCFAMCHA070601093421093437000016PH - 13 -BEAR/JOJO/MICKEY (:14 - :16) (NOV06) $$$                                                                           150                                
PROFAMCHA070601093437093506000029xxBear In The Big Blue House 'BOOK' (PH) Coming Up                                                                          150                                
PROFAMCHA070601093506093532000026xxJojo's Circus - GIANT - OCT 06 - This morn @ 10:                                                                          150                                
PRCFAMCHA070601093532093546000014Playhouse - HOZE HOUNDZ - Skater                                                                                            150                                
PROFAMCHA070601093546093646000100xxMickey Mouse Clubhouse (Video 1) This morn @ 10:                                                                          150                                
ID FAMCHA070601093646093659000013PS Playhouse AM Block Open (:10-:15) $$$                                                                                    150                                
PRCFAMCHA070601093659093708000009CC Disclaimer - FAST - Generic (:08-:10) $$$                                                                                150                                
PGRFAMCHA070601093708100113002405Bear In the Big Blue House                        EP: 049                                                              2068607ECC                              
PRCFAMCHA070601100113100128000015PH - 14 -JOJO/MICKEY/HIGGLY (FRI) (FEB07) (:14 - :                                                                          150                                
PROFAMCHA070601100128100146000018Jojo's Circus - HIP HOP - OCT 06 - Coming Up Next                                                                           150                                
PROFAMCHA070601100146100228000042Higglytown HEROES - (MAR07) - This morning @ 10:55                                                                          150                                
PRCFAMCHA070601100228100303000035Playhouse - KATIE & ORBIE - Discoveries                                                                                     150                                
PRCFAMCHA070601100303100334000031King (PH) (APR06) - This Morning @ 11:25am                                                                                  150                                
ID FAMCHA070601100334100347000013PS Playhouse AM Block Open (:10-:15) $$$                                                                                    150                                
PGRFAMCHA070601100347102753002406JoJo's Circus                                     EP: 51                                                               6068607E                                
PRCFAMCHA070601102753102758000005Astral ID (FEB05)                                                                                                           150                                
PRCFAMCHA070601102758102813000015PH - 15 -MICKEY/HIGGLY/KING (FRI) (FEB07) (:14 - :                                                                          150                                
PROFAMCHA070601102813102913000100xxMickey Mouse Clubhouse (Video 1) Coming Up Next                                                                           150                                
PRCFAMCHA070601102913102943000030Benjamin Bear - (PH-Wknd) (OCT06) - Tomorrow morn                                                                           150                                
PRCFAMCHA070601102943102958000015Franny's Feet - Bowleriffic (PH-Wknd) - (APR06) -                                                                           150                                
PROFAMCHA070601102958103054000056Handy Manny - TOOLS - (MAR07) - Wed mornings @ 10:                                                                          150                                
ID FAMCHA070601103054103107000013PS Playhouse AM Block Open (:10-:15) $$$                                                                                    150                                
PRCFAMCHA070601103107103116000009CC Disclaimer - FAST - Family.ca (:08-:10) $$$                                                                              150                                
PGRFAMCHA070601103116105521002405Disney's Mickey Mouse Clubhouse                   EP: 26                                                               6028607ECC                              
PRCFAMCHA070601105521105536000015PH - 16 -HIGGLY/KING/RECESS (:14- :16) (FEB07) $$$                                                                          150                                
PROFAMCHA070601105536105618000042Higglytown HEROES - (MAR07) - Coming Up Next                                                                                150                                
PRCFAMCHA070601105618105637000019Playhouse - HOZE HOUNDZ - Code Blue                                                                                         150                                
PRCFAMCHA070601105637105649000012Benjamin Bear - Slide (PH-Wknd) (APR06) - Tomorrow                                                                          150                                
ID FAMCHA070601105649105702000013PS Playhouse AM Block Open (:10-:15) $$$                                                                                    150                                
ID FAMCHA070601105702105710000008Magic of Disney - PLAYHOUSE - Wipe (:06-:09) $$$                                                                            150                                
PGRFAMCHA070601105710112112002402Higglytown Heroes                                 EPS # 05                                                             6068607E                                
PRCFAMCHA070601112112112117000005Astral ID (FEB05)                                                                                                           150                                
PRCFAMCHA070601112117112132000015PH - 17 -KING/RECESS/KIM (:14 - :16) (APR06) $$$                                                                            150                                
PRCFAMCHA070601112132112203000031King (PH) (APR06) - Coming Up Next                                                                                          150                                
PGRFAMCHA070601112203112348000145They Might Be Giants (ABC's) - Flying V                                                                                60688120                                
PRCFAMCHA070601112348112408000020Benjamin Bear - Snack (PHwknd) (APR06) - Tomorrow                                                                           150                                
PRCFAMCHA070601112408112438000030Franny's Feet - Concept (APR06)(PH-Wknd) - Tomorro                                                                          150                                
ID FAMCHA070601112438112451000013PS Playhouse AM Block Open (:10-:15) $$$                                                                                    150                                
PRCFAMCHA070601112451112500000009CC Disclaimer - FAST - Family.ca (:08-:10) $$$                                                                              150                                
PGRFAMCHA070601112500114730002230King                                              EP: 014                                                       B75768A1065607ECC                              
PRCFAMCHA070601114730114742000012MD - 01 - RECESS/KIM (APR06) (:11 - :13) $$$                                                                                150                                
PROFAMCHA070601114742114807000025Recess - CAREER DAY (MD) - (JULY06) - Coming Up Ne                                                                          150                                
PROFAMCHA070601114807114838000031American Dragon Jake Long (MD) (APR07) HERO This A                                                                          150                                
PROFAMCHA070601114838114855000017Mad Dash Block Open (:16-:18) APR06 $$$                                                                                     150                                
PGRFAMCHA070601114855121130002235Disney's Recess                                   EP: 1-036                                                            6068607E                                
PRCFAMCHA070601121130121135000005Astral ID (FEB05)                                                                                                           150                                
PRCFAMCHA070601121135121147000012MD - 02 - KIM/WEEKENDERS (APR06) (:11 - :13) $$$                                                                            150                                
PROFAMCHA070601121147121217000030Kim Possible EVIL (MD) (MAY07) Coming Up Next                                                                               150                                
PROFAMCHA070601121217121244000027Emperor's New School  - Zit - This afternoon @ 1:2                                                                          150                                
PRCFAMCHA070601121244121250000006xxHSM 2 ID Vanessa Hudges - Never know when HSM wi                                                                          150                                
PRCFAMCHA070601121250121258000008MD Bumper - $$$ Ski Race (:07-:09) APR06                                                                                    150                                
PRCFAMCHA070601121258121307000009CC Disclaimer - FAST - Generic (:08-:10) $$$                                                                                150                                
PGRFAMCHA070601121307123558002251Disney's Kim Possible                             EP: 1-007                                                           A6068607ECC                              
PRCFAMCHA070601123558123609000011MD - 03 - WEEKENDERS/AMERICAN DRAGON (JAN07) (:11                                                                           150                                
PROFAMCHA070601123609123645000036xxWeekenders - PIZZA (MD) - (APR06) - Coming Up Ne                                                                          150                                
PRCFAMCHA070601123645123700000015MD Bumper - $$$ Shopping Race (:15-:17) APR06                                                                               150                                
PRCFAMCHA070601123700123709000009CC Disclaimer - FAST - Family.ca (:08-:10) $$$                                                                              150                                
PGRFAMCHA070601123709125947002238Disney's The Weekenders                           EP: 1-035                                                           A6068607ECC                              
PRCFAMCHA070601125947125952000005Astral ID (FEB05)                                                                                                           150                                
PRCFAMCHA070601125952130004000012MD - 04 - AMERICAN DRAGON/EMPEROR (JAN07) (:11 - :                                                                          150                                
PRCFAMCHA070601130004130013000009MD Bumper $$$ - Race Cars (:08-:10) APR06                                                                                   150                                
PGRFAMCHA070601130013132252002239Disney's American Dragon:Jake Long                EPS # 01                                                             6068607E                                
PRCFAMCHA070601132252132304000012MD - 05 - EMPEROR/LILO (JAN07) (:11 - :13) $$$                                                                              150                                
PROFAMCHA070601132304132322000018Emperor's New School  MD - Butt In Urn - Coming Up                                                                          150                                
PROFAMCHA070601132322132355000033Lilo & Stitch (MD) DANCE (JUNE06) - This afternoon                                                                          150                                
PRCFAMCHA070601132355132403000008MD Bumper - $$$ Ski Race (:07-:09) APR06                                                                                    150                                
PGRFAMCHA070601132403134639002236Disney's The Emperor's New School                 EP: 21                                                               6068807E                                
PRCFAMCHA070601134639134644000005Astral ID (FEB05)                                                                                                           150                                
PRCFAMCHA070601134644134656000012MD - 06 - LILO/FILLMORE! (APR06) (:11 - :13) $$$                                                                            150                                
PROFAMCHA070601134656134729000033Lilo & Stitch (MD) DANCE (JUNE06) - Coming up next                                                                          150                                
PRCFAMCHA070601134729134744000015xxHSM 2 ID - A.Tisdale, V.Hudges, M.Coleman  HSM 2                                                                          150                                
PRCFAMCHA070601134744134800000016MD Bumper - $$$ Shopping Race (:15-:17) APR06                                                                               150                                
PGRFAMCHA070601134800141039002239Disney's Lilo & Stitch: The Series                EP: 49                                                               6068607E                                
PRCFAMCHA070601141039141051000012MD - 07 - FILLMORE!/PROUD (APR06) (:11 - :13) $$$                                                                           150                                
PROFAMCHA070601141051141113000022Fillmore! - POLLY (MD) (APR06) - coming up next                                                                             150                                
PROFAMCHA070601141113141138000025Replacements (FEB07) LIGHT SHOW (NSW) - Tomorrow @                                                                          150                                
PROFAMCHA070601141138141152000014Phil of the Future IDs - Ricky Tomato - watching f                                                                          150                                
PRCFAMCHA070601141152141201000009MD Bumper $$$ - Race Cars (:08-:10) APR06                                                                                   150                                
PGRFAMCHA070601141201143439002238Disney's Fillmore!                                EPS # 1-026                                                         A6068607E                                
PRCFAMCHA070601143439143444000005Astral ID (FEB05)                                                                                                           150                                
PRCFAMCHA070601143444143456000012MD - 08 - PROUD/WEEKENDERS (APR06) (:11 - :13) $$$                                                                          150                                
PROFAMCHA070601143456143530000034Proud Family (JULY06) MOM YELLS (MD) -  Coming Up                                                                           150                                
PRCFAMCHA070601143530143538000008MD Bumper - $$$ Ski Race (:07-:09) APR06                                                                                    150                                
ID FAMCHA070601143538143546000008Magic of Disney - MAD DASH - Shape (:06-:09) $$$                                                                            150                                
PRCFAMCHA070601143546143555000009CC Disclaimer - FAST - Generic (:08-:10) $$$                                                                                150                                
PGRFAMCHA070601143555145824002229The Proud Family                                  EP: 2-036                                                           A6068607ECC                              
PRCFAMCHA070601145824145836000012MD - 09 - WEEKENDERS/LLOYD (APR06) (:11 - :13) $$$                                                                          150                                
PROFAMCHA070601145836145912000036xxWeekenders - PIZZA (MD) - (APR06) - Coming Up Ne                                                                          150                                
PROFAMCHA070601145912145944000032Corbin Bleu "Another Side" CD Blast -- Avail Now (                                                                          150                                
PROFAMCHA070601145944150001000017Mad Dash Block Open (:16-:18) APR06 $$$                                                                                     150                                
PRCFAMCHA070601150001150010000009CC Disclaimer - FAST - Family.ca (:08-:10) $$$                                                                              150                                
PGRFAMCHA070601150010152303002253Disney's The Weekenders                           EP: 1-006                                                           A6068607ECC                              
PRCFAMCHA070601152303152308000005Astral ID (FEB05)                                                                                                           150                                
PRCFAMCHA070601152308152320000012MD - 10 - LLOYD/DAVE (APR06) (:11 - :13) $$$                                                                                150                                
PROFAMCHA070601152320152338000018Lloyd In Space (LARRY) (JUNE06) MD- Coming Up Next                                                                          150                                
PROFAMCHA070601152338152408000030xxSurf's Up Blast - In Theatres June 8 (May28- Jun                                                                          150                                
PROFAMCHA070601152408152442000034Proud Family (APR06) GET BURNED (MD) - This Aftern                                                                          150                                
PRCFAMCHA070601152442152458000016MD Bumper - $$$ Shopping Race (:15-:17) APR06                                                                               150                                
PGRFAMCHA070601152458154751002253Disney's Lloyd In Space                           EP: 13                                                               6068607E                                
PRCFAMCHA070601154751154803000012MD - 11 - DAVE/PROUD (APR06) (:11 - :13) $$$                                                                                150                                
PROFAMCHA070601154803154826000023Dave the Barbarian - SNEEZE (MD) - Coming up (JUNE                                                                          150                                
PROFAMCHA070601154826154912000046xxNancy Drew Contest - In theatres June 15 (May28-                                                                          150                                
PROFAMCHA070601154912154921000009Family Bumpers - (Phase 1 Spring 04) - DJ Spinning                                                                          150                                
PROFAMCHA070601154921154931000010FAMJAM - Open/Close                                                                                                         150                                
PGRFAMCHA070601154931155046000115MV Disney - (FAMILY HITS) - Naked Mole Rap                                                                             60688120                                
PROFAMCHA070601155046155100000014xxFAMJAM - Close (FAMILY) xxDNUxx                                                                                           150                                
PROFAMCHA070601155100155125000025xxRecess Sketches OCT 06 - The Word - AN ANGEL                                                                              150                                
PRCFAMCHA070601155125155155000030xxHSM 2 Tease - Coming This Summer (MAY07) $$$                                                                              150                                
PRCFAMCHA070601155155155204000009MD Bumper $$$ - Race Cars (:08-:10) APR06                                                                                   150                                
PRCFAMCHA070601155204155213000009CC Disclaimer - FAST - Family.ca (:08-:10) $$$                                                                              150                                
PGRFAMCHA070601155213161451002238Disney's Dave the Barbarian                       EPS # 01                                                             6068607ECC                              
PRCFAMCHA070601161451161456000005Astral ID (FEB05)                                                                                                           150                                
PRCFAMCHA070601161456161508000012MD - 12 - PROUD/RECESS (APR06) (:11 - :13) $$$                                                                              150                                
PROFAMCHA070601161508161542000034Proud Family (APR06) GET BURNED (MD) - Coming Up N                                                                          150                                
PROFAMCHA070601161542161612000030xxSurf's Up Blast - In Theatres June 8 (May28- Jun                                                                          150                                
PROFAMCHA070601161612161646000034Recess - HEROES (MD) - (APR06) - This Atft @ 4:40p                                                                          150                                
PRCFAMCHA070601161646161654000008MD Bumper - $$$ Ski Race (:07-:09) APR06                                                                                    150                                
ID FAMCHA070601161654161702000008Magic of Disney - MAD DASH - Wipe (:06-:09) $$$                                                                             150                                
PRCFAMCHA070601161702161711000009CC Disclaimer - FAST - Generic (:08-:10) $$$                                                                                150                                
PGRFAMCHA070601161711163947002236The Proud Family                                  EP: 2-031                                                           A6068607ECC                              
PRCFAMCHA070601163947164000000013MD - 13 - RECESS/KIM (APR06) (:11 - :13) $$$                                                                                150                                
PROFAMCHA070601164000164025000025Recess - CAREER DAY (MD) - (JULY06) - Coming Up Ne                                                                          150                                
PROFAMCHA070601164025164106000041xxZoey 101 VIP Fashion Spree Contest (Feb 26-June                                                                           150                                
PROFAMCHA070601164106164115000009Family Bumpers - (Phase 3 Spring 05) - Giant Food(                                                                          150                                
PROFAMCHA070601164115164151000036Suite Life of Z & C - NSW - GOLF - Tomorrow Aftern                                                                          150                                
PROFAMCHA070601164151164240000049Proud Family (APR06) STRIKE (NSW) - Tomorrow After                                                                          150                                
PRCFAMCHA070601164240164257000017MD Bumper - $$$ Shopping Race (:15-:17) APR06                                                                               150                                
PGRFAMCHA070601164257170531002234Disney's Recess                                   EP: 1-010                                                            6068607E                                
PRCFAMCHA070601170531170536000005Astral ID (FEB05)                                                                                                           150                                
PRCFAMCHA070601170536170548000012MD - 22 (FRI) - KIM/HANNAH (July06) (:11-:13) $$$                                                                           150                                
PROFAMCHA070601170548170621000033Kim Possible MORE RON MD (MAY 06) Coming up Next                                                                            150                                
PRCFAMCHA070601170621170651000030Famous Players Popcorn Parties 2 (May 2-Sept 30/07                                                                          150                                
PROFAMCHA070601170651170719000028Lizzie McGuire - (Sick) (APR06) (NSW/PM) -   Tomor                                                                          150                                
PROFAMCHA070601170719170742000023Replacements (FEB07) JAPAN (NSW) - Tomorrow @ 4:45                                                                          150                                
PROFAMCHA070601170742170751000009Raven ID's II - You're Watching Family, NADM                                                                                150                                
PRCFAMCHA070601170751170800000009MD Bumper $$$ - Race Cars (:08-:10) APR06                                                                                   150                                
PRCFAMCHA070601170800170809000009CC Disclaimer - FAST - Family.ca (:08-:10) $$$                                                                              150                                
PGRFAMCHA070601170809173059002250Disney's Kim Possible                             EP: 1-005                                                           A6068607ECC                              
PRCFAMCHA070601173059173111000012NS - 14 - HANNAH/ZOEY (SEPT06) (:11 - :13) $$$                                                                              150                                
PROFAMCHA070601173111173148000037Hannah Montana - NS - Achy Breaky (Oct06) Next                                                                              150                                
PROFAMCHA070601173148173234000046xxNancy Drew Contest - In theatres June 15 (May28-                                                                          150                                
PROFAMCHA070601173234173304000030xxZoey 101 - QUINN (NS) (MAR07) - New Eps - Tonigh                                                                          150                                
PROFAMCHA070601173304173341000037Naturally Sadie - New Episodes TEENAGE (NSW) Sunda                                                                          150                                
PROFAMCHA070601173341173359000018Nonstop Block Open (:16-:18) APR06 $$$                                                                                      150                                
ID FAMCHA070601173359173407000008Magic of Disney - NS/NSW/PB - Shape (:06-:09) $$$                                                                           150                                
PGRFAMCHA070601173407175645002238Hannah Montana                                    EP: 19                                                               6028807E                                
PRCFAMCHA070601175645175650000005Astral ID (FEB05)                                                                                                           150                                
PRCFAMCHA070601175650175702000012NS - 15 - ZOEY/DEREK (SEPT06) (:11 - :13) $$$                                                                               150                                
PROFAMCHA070601175702175732000030xxZoey 101 - QUINN (NS) (MAR07) - New Eps - Next (                                                                          150                                
PROFAMCHA070601175732175802000030xxSurf's Up Blast - In Theatres June 8 (May28- Jun                                                                          150                                
PROFAMCHA070601175802175811000009Family Bumpers - (Phase 3 Spring 05) - Hip Hop (MD                                                                          150                                
PRCFAMCHA070601175811175841000030Life WD - Housecleaning Tonight @ 6:30 NS                                                                                   150                                
PROFAMCHA070601175841175922000041xxZoey 101 VIP Fashion Spree Contest (Feb 26-June                                                                           150                                
PRCFAMCHA070601175922175952000030xxHSM 2 Tease - Coming This Summer (MAY07) $$$                                                                              150                                
PRCFAMCHA070601175952180000000008NS Bumper $$$ - Dodgeball (:07-:09) APR06                                                                                   150                                
PRCFAMCHA070601180000180009000009CC Disclaimer - FAST - Family.ca (:08-:10) $$$                                                                              150                                
PGRFAMCHA070601180009182339002330Zoey 101                                          EP: 38                                                               2028807BCC                              
PRCFAMCHA070601182339182351000012NS - 16 - DEREK/NEDS (SEPT06) (:11 - :13) $$$                                                                               150                                
PRCFAMCHA070601182351182416000025Life WD Generic ID #1- Casey Coming Up Next                                                                                 150                                
PRCFAMCHA070601182416182435000019Life WD Derek Bloopers Season 2 #2 (NS/NSW)                                                                                 150                                
PGRFAMCHA070601182435182520000045xxMS - Ratatouille #1 (MD, NS/NSW before 9pm) (May                                                                    A60688120                                
PROFAMCHA070601182520182543000023Neds DSSG - Doggy Munch- NS (JUNE06) Tonight @ 7                                                                            150                                
PROFAMCHA070601182543182626000043Cory In The House (NSW) (MAR07) - Tomorrow @ 9:10a                                                                          150                                
PROFAMCHA070601182626182636000010FAMJAM - Open/Close                                                                                                         150                                
PGRFAMCHA070601182636182806000130MV Disney - (MD/NS/NSW) - Corbin Bleu - Deal With                                                                      60688120                                
PROFAMCHA070601182806182820000014xxFAMJAM - Close (FAMILY) xxDNUxx                                                                                           150                                
PROFAMCHA070601182820182842000022That's So Raven (BEAR) (NSW) Tomorrow Morning @ 9:                                                                          150                                
PROFAMCHA070601182842182912000030xxSurf's Up Blast - In Theatres June 8 (May28- Jun                                                                          150                                
PROFAMCHA070601182912182949000037Naturally Sadie - New Episodes TEENAGE (NSW) Sunda                                                                          150                                
PRCFAMCHA070601182949183005000016NS Bumper $$$- Tennis (:15-:17) APR06                                                                                       150                                
PRCFAMCHA070601183005183014000009CC Disclaimer - FAST - Generic (:08-:10) $$$                                                                                150                                
PGRFAMCHA070601183014185244002230Life With Derek                                   EP: 12                                                        C23968A1055607BCC3                             
PRCFAMCHA070601185244185249000005Astral ID (FEB05)                                                                                                           150                                
PRCFAMCHA070601185249185301000012NS - 17 - NEDS/PPIX (SEPT06) (:11 - :13) $$$                                                                                150                                
PROFAMCHA070601185301185322000021Neds DSSG - RECORDER - NS (AUG06) Coming Up Next                                                                            150                                
PRCFAMCHA070601185322185352000030Famous Players Popcorn Parties 2 (May 2-Sept 30/07                                                                          150                                
PROFAMCHA070601185352185419000027Zoey 101 - LOGAN - NSW (MAY06) (may13-aug30) Tomor                                                                          150                                
PGRFAMCHA070601185419185549000130xxMS - Pirates 3  (NS, NSW post 6pm) Questions Ans                                                                    A60688120                                
PROFAMCHA070601185549185601000012Family Bumpers - (Phase 1 Spring 04) - Picnic (MD-                                                                          150                                
PROFAMCHA070601185601185611000010FAMJAM - Open/Close                                                                                                         150                                
PGRFAMCHA070601185611185741000130MV Disney - (MD/NS/NSW) - HSM - B5 - Get'cha Head                                                                      60688120                                
PROFAMCHA070601185741185755000014xxFAMJAM - Close (FAMILY) xxDNUxx                                                                                           150                                
PROFAMCHA070601185755185833000038Double Teamed (SEPT12) - Next Friday @ 7:30pm                                                                               150                                
PROFAMCHA070601185833185914000041xxZoey 101 VIP Fashion Spree Contest (Feb 26-June                                                                           150                                
PROFAMCHA070601185914185946000032Sinbad Show NSW Dance (SEPT06) Tomorrow morn @ 11:                                                                          150                                
PRCFAMCHA070601185946190000000014NS Bumper $$$ - Fashion (:12-:14) APR06                                                                                     150                                
PGRFAMCHA070601190000192416002416Ned's Declassified School Survival Guide          EP: 43                                                               2068807B                                
PROFAMCHA070601192416192431000015Nightly Pix Line-up (SEPT) - GENERIC (:14-:16) $$$                                                                          150                                
PROFAMCHA070601192431192507000036Suite Life of Z & C - NSW - GOLF - This Morning @                                                                           150                                
PROFAMCHA070601192507192553000046xxNancy Drew Contest - In theatres June 15 (May28-                                                                          150                                
PROFAMCHA070601192553192636000043Cory In The House (NSW) (MAR07) - Tomorrow @ 9:10a                                                                          150                                
PGRFAMCHA070601192636192742000106Planet Rock Profiles - BNL - Humour               EP: 46                                                              A70687120                                
PROFAMCHA070601192742192802000020Ned's DSSG - Drum Roll (JUNE06) NSW Tomorrow Morn                                                                           150                                
PROFAMCHA070601192802192839000037Naturally Sadie - New Episodes TEENAGE (NSW) Sunda                                                                          150                                
PROFAMCHA070601192839192911000032Corbin Bleu "Another Side" CD Blast -- Avail Now (                                                                          150                                
PRCFAMCHA070601192911192941000030xxHSM 2 Tease - Coming This Summer (MAY07) $$$                                                                              150                                
ID FAMCHA070601192941193000000019Popcorn Pix Block Open $$$ (JUNE 06) (:18-:20)                                                                              150                                
ID FAMCHA070601193000193009000009Rating - G - (DEC05) (:08 - :10) $$$                                                                                        150                                
PRCFAMCHA070601193009193018000009CC Disclaimer - FAST - Generic (:08-:10) $$$                                                                                150                                
PGRFAMCHA070601193018205645012627Max Keebles Big Move                                                                                                  B6068807DCC                              
PRCFAMCHA070601205645205650000005Astral ID (FEB05)                                                                                                           150                                
PROFAMCHA070601205650205706000016Nightly Pix Line-up (SEPT) - GENERIC (:14-:16) $$$                                                                          150                                
PROFAMCHA0706012057062057360000308 Simple Rules (MAY07) (NSW) SHOUT Tomorrow Night                                                                           150                                
PROFAMCHA070601205736205746000010FAMJAM - Open/Close                                                                                                         150                                
PGRFAMCHA070601205746205916000130MV Disney - (MD/NS/NSW) - HSM - We're All In This                                                                      60688120                                
PROFAMCHA070601205916205930000014xxFAMJAM - Close (FAMILY) xxDNUxx                                                                                           150                                
PROFAMCHA070601205930205943000013Bonnie - Life With NSW - Tomorrow @ 8:40 (Sept 06)                                                                          150                                
PROFAMCHA070601205943205958000015xxNightly Pix Movie Open (:10-:15)                                                                                          150                                
ID FAMCHA070601205958210007000009Rating - PG - (DEC05) (:08 - :10) $$$                                                                                       150                                
PRCFAMCHA070601210007210016000009CC Disclaimer - SLOW - Family.ca (:08-:10) $$$                                                                              150                                
PGRFAMCHA070601210016223010012954The Adventures of the Cactus Kid                                                                                       2068807DCC                              
PROFAMCHA070601223010223025000015Nightly Pix Line-up (SEPT) - GENERIC (:14-:16) $$$                                                                          150                                
PROFAMCHA070601223025223040000015xxNightly Pix Movie Open (:10-:15)                                                                                          150                                
ID FAMCHA070601223040223049000009Rating - G - (DEC05) (:08 - :10) $$$                                                                                        150                                
ID FAMCHA070601223049223057000008Magic of Disney - PIX - Shape (:06-:09) $$$                                                                                 150                                
PGRFAMCHA070601223057235618012521Eddie's Million Dollar Cook-Off                                                                                       A6068807C                                
PRCFAMCHA070601235618235623000005Astral ID (FEB05)                                                                                                           150                                
PRCFAMCHA070601235623235635000012NS - 12 - RADIO/SPIDER (SEPT06) (:11 - :13) $$$                                                                             150                                
PRCFAMCHA070601235635235705000030Radio Free Roscoe - (NS/M-Th) (JUNE06) Coming up                                                                            150                                
PROFAMCHA070601235705235714000009Family Bumpers - (Phase 2 F/W 04) - Skateboard (MD                                                                          150                                
PROFAMCHA070601235714235724000010FAMJAM - Open/Close                                                                                                         150                                
PGRFAMCHA070601235724235854000130MV Disney - (MD/NS/NSW) - Aly & A.J. - Walking On                                                                      60688120                                
PROFAMCHA070601235854235908000014xxFAMJAM - Close (FAMILY) xxDNUxx                                                                                           150                                
PROFAMCHA070601235908235945000037Naturally Sadie - New Episodes TEENAGE (NSW) Sunda                                                                          150                                
PROFAMCHA070601235945000002000017Nonstop Block Open (:16-:18) APR06 $$$                                                                                      150                                
PRCFAMCHA070601000002000010000008CC Disclaimer - SLOW - Generic (:08-:10) $$$                                                                                150                                
PGRFAMCHA070601000010002240002230Radio Free Roscoe                                 EPS # 17                                                      B88730A1065607ACC                              
PRCFAMCHA070601002240002251000011NS - 13 - SPIDER (APR06) (:11 - :13) $$$                                                                                    150                                
PROFAMCHA070601002251002334000043Cory In The House (NSW) (MAR07) - Tomorrow @ 9:10a                                                                          150                                
PRCFAMCHA070601002334002343000009Family Bumpers - (Phase 1 Spring 04) - Soccer (MD-                                                                          150                                
PROFAMCHA070601002343002405000022That's So Raven (BEAR) (NSW) Tomorrow Morning @ 9:                                                                          150                                
PGRFAMCHA070601002405002535000130xxMS - Pirates 3 (NS, NSW post 6pm) Johnny Depp -                                                                     A60688120                                
PROFAMCHA070601002535002613000038Double Teamed (SEPT12) - Next Friday @ 7:30pm                                                                               150                                
PROFAMCHA070601002613002623000010FAMJAM - Open/Close                                                                                                         150                                
PGRFAMCHA070601002623002909000246MV Disney - Superstition (Raven)                                                                                       60688120                                
PROFAMCHA070601002909002923000014xxFAMJAM - Close (FAMILY) xxDNUxx                                                                                           150                                
PROFAMCHA070601002923003000000037Sinbad Show NSW Car (NOV06) Tomorrow morn @ 11:35                                                                           150                                
PRCFAMCHA070601003000003007000007NS Bumper $$$ - Dodgeball (:07-:09) APR06                                                                                   150                                
PGRFAMCHA070601003007005147002140Spiderman                                         EP: 12                                                        C02618 1065607E                                
PRCFAMCHA070601005147005152000005Astral ID (FEB05)                                                                                                           150                                
PROFAMCHA070601005152005215000023WITCH (JETIX) - Tomorrow morning @ 7:20 (Sept06)                                                                            150                                
PROFAMCHA070601005215005246000031Smart Guy FIGHT (JUNE06) NSW - Tomorrow afternoon                                                                           150                                
PGRFAMCHA070601005246005616000330xxMS - Pirates 3 (NS, NSW post 6pm) Set Design Fea                                                                    A60688120                                
PRCFAMCHA070601005616005651000035Life WD - TV Remote - Tomorrow Night @ 7:50 NSW                                                                             150                                
PROFAMCHA070601005651005701000010FAMJAM - Open/Close                                                                                                         150                                
PGRFAMCHA070601005701010053000352MV Disney - Superstition (Raven)                                                                                       60688120                                
PROFAMCHA070601010053010107000014xxFAMJAM - Close (FAMILY) xxDNUxx                                                                                           150                                
PROFAMCHA0706010101070101370000308 Simple Rules (JUN06) (NSW) TICKET - Tomorrow nig                                                                          150                                
PRCFAMCHA070601010137010152000015xxHSM 2 ID - A.Tisdale, V.Hudges, M.Coleman  HSM 2                                                                          150                                
PRCFAMCHA070601010152010208000016NS Bumper $$$- Tennis (:15-:17) APR06                                                                                       150                                
SO FAMCHA070601010208010220000012Sign Off                                                                                                                                                       
OFFFAMCHA070601010220043000032740OFF AIR                                                                                                                                                        
SO FAMCHA070602043000043011000011Sign On (oct 1)                                                                                                                                                
PRCFAMCHA070602043011043020000009CC Disclaimer - FAST - Generic (:08-:10) $$$                                                                                150                                
PGRFAMCHA070602043020045421002401Henry's World                                     EP: 2-015                                                     B81046A1065607GCC                              
PRCFAMCHA070602045421045426000005Astral ID (FEB05)                                                                                                           150                                
PRCFAMCHA070602045426045441000015PH - 01 - BEN/FRANNY/KING (SAT/SUN) (JUNE06) (:14                                                                           150                                
ID FAMCHA070602045441045454000013PS Playhouse AM Block Open (:10-:15) $$$                                                                                    150                                
PRCFAMCHA070602045454045503000009CC Disclaimer - FAST - Family.ca (:08-:10) $$$                                                                              150                                
PGRFAMCHA070602045503051738002235The Secret World Of Benjamin Bear                 EPS # 1-002                                                   B75147A1065607ECC                              
PRCFAMCHA070602051738051753000015PH - 02 - FRANNY/KING (SAT/SUN) (JUNE06) (:14 - :1                                                                          150                                
ID FAMCHA070602051753051806000013PS Playhouse AM Block Open (:10-:15) $$$                                                                                    150                                
PRCFAMCHA070602051806051815000009CC Disclaimer - FAST - Generic (:08-:10) $$$                                                                                150                                
PGRFAMCHA070602051815054045002230Franny's Feet                                     EPS # 15                                                      C23971 1065607ECC                              
PRCFAMCHA070602054045054050000005Astral ID (FEB05)                                                                                                           150                                
PRCFAMCHA070602054050054105000015PH - 03 - KING (SAT/SUN) (JUNE06) (:14 - :16) $$$                                                                           150                                
ID FAMCHA070602054105054118000013PS Playhouse AM Block Open (:10-:15) $$$                                                                                    150                                
PRCFAMCHA070602054118054127000009CC Disclaimer - FAST - Family.ca (:08-:10) $$$                                                                              150                                
PGRFAMCHA070602054127060357002230King                                              EP: 012                                                       B75769A1065607ECC                              
PROFAMCHA070602060357060415000018Jetix Block Open $$$ (:18-:21)                                                                                              150                                
PGRFAMCHA070602060415062658002243Oban Star Racers                                  EP: 12                                                               2068607E                                
PRCFAMCHA070602062658062703000005Astral ID (FEB05)                                                                                                           150                                
PROFAMCHA070602062703062726000023WITCH (JETIX) - This morning @ 7:20 (Sept06)                                                                                150                                
PRCFAMCHA070602062726062756000030Famous Players Popcorn Parties 2 (May 2-Sept 30/07                                                                          150                                
PROFAMCHA070602062756062805000009Family Bumpers - (Phase 1 Spring 04) - Baseball (M                                                                          150                                
PRCFAMCHA070602062805062835000030xxHSM 2 Tease - Coming This Summer (MAY07) $$$                                                                              150                                
PROFAMCHA070602062835062853000018Jetix Block Open $$$ (:18-:21)                                                                                              150                                
PRCFAMCHA070602062853062902000009CC Disclaimer - FAST - Family.ca (:08-:10) $$$                                                                              150                                
PGRFAMCHA070602062902065141002239Power Rangers:  Operation Overdrive               EP: 10                                                               2068607ECC                              
PROFAMCHA070602065141065204000023WITCH (JETIX) - This morning @ 7:20 (Sept06)                                                                                150                                
PROFAMCHA070602065204065214000010FAMJAM - Open/Close                                                                                                         150                                
PGRFAMCHA070602065214065314000100MV Disney - (MD/MMM) - T-Squad - Flip :60 (June 20                                                                     60288120                                
PROFAMCHA070602065314065328000014xxFAMJAM - Close (FAMILY) xxDNUxx                                                                                           150                                
PROFAMCHA070602065328065334000006Phil of the Future IDs - You're Watching Family...                                                                          150                                
PROFAMCHA070602065334065352000018Jetix Block Open $$$ (:18-:21)                                                                                              150                                
PRCFAMCHA070602065352065401000009CC Disclaimer - FAST - Generic (:08-:10) $$$                                                                                150                                
PGRFAMCHA070602065401071634002233Yin Yang Yo!                                      EP: 10                                                               2068607ECC                              
PRCFAMCHA070602071634071639000005Astral ID (FEB05)                                                                                                           150                                
PRCFAMCHA070602071639071649000010JTX - 04 - WITCH/LIZZIE (SEPT06) $$$                                                                                        150                                
PROFAMCHA070602071649071712000023WITCH (JETIX) - Coming Up Next (Sept06)                                                                                     150                                
PRCFAMCHA070602071712071752000040Magazine Spot (MD,NS,NSW) 2/3 day (not in PH) (til                                                                          150                                
PROFAMCHA070602071752071757000005Jetix Bumper (Sept 06)                                                                                                      150                                
PROFAMCHA070602071757071807000010FAMJAM - Open/Close                                                                                                         150                                
PGRFAMCHA070602071807071907000100MV Disney - (MD/NS/NSW) - AnnasophiRobb- Keep Your                                                                    A60688120                                
PROFAMCHA070602071907071921000014xxFAMJAM - Close (FAMILY) xxDNUxx                                                                                           150                                
PROFAMCHA070602071921071936000015Phil of the Future IDs - Aly Flute Spit - I'm Aly                                                                           150                                
PROFAMCHA070602071936071957000021Jetix Block Open $$$ (:18-:21)                                                                                              150                                
PGRFAMCHA070602071957074139002142W.I.T.C.H.                                        EP: 24                                                               2068607E                                
PRCFAMCHA070602074139074152000013NSW - 02 - LIZZIE/SUITE (APR06) (:11 - 13) $$$                                                                              150                                
PROFAMCHA070602074152074219000027Lizzie McGuire - (Bad Breath) (NSW) (APR06) - Comi                                                                          150                                
PGRFAMCHA070602074219074304000045xxMS - Ratatouille #1 (MD, NS/NSW before 9pm) (May                                                                    A60688120                                
PROFAMCHA070602074304074340000036Suite Life of Z & C - NSW - GOLF - This Morning @                                                                           150                                
PROFAMCHA070602074340074350000010FAMJAM - Open/Close                                                                                                         150                                
PGRFAMCHA070602074350074651000301MV Disney - (FAMILY HITS) That's So Raven Theme So                                                                     60688120                                
PROFAMCHA070602074651074705000014xxFAMJAM - Close (FAMILY) xxDNUxx                                                                                           150                                
PROFAMCHA070602074705074735000030Zoey 101 - QUINN (NSW) (MAR07) - This morning @ 8:                                                                          150                                
PROFAMCHA070602074735074752000017Nonstop Weekend Block Open (:16-:18) APR06 $$$                                                                              150                                
ID FAMCHA070602074752074800000008Magic of Disney - NS/NSW/PB - Shape (:06-:09) $$$                                                                           150                                
PGRFAMCHA070602074800081034002234Lizzie McGuire                                    EP: 1-011                                                           A6068607B                                
PRCFAMCHA070602081034081039000005Astral ID (FEB05)                                                                                                           150                                
PRCFAMCHA070602081039081051000012NSW - 03 - SUITE/ZOEY (APR06) (:11 - 13) $$$                                                                                150                                
PROFAMCHA070602081051081124000033Suite Life of Z & C - NSW - SCOUT TROOP - Coming U                                                                          150                                
PROFAMCHA070602081124081210000046xxNancy Drew Contest - In theatres June 15 (May28-                                                                          150                                
PROFAMCHA070602081210081254000044Zoey 101 - PHONE DIARY (NSW) (JUNE06) - This morni                                                                          150                                
PROFAMCHA070602081254081337000043Cory In The House (NSW) (MAR07) - This morning @ 9                                                                          150                                
PROFAMCHA070602081337081407000030That's So Raven (SCREAM) (NSW) This Mornings @ 9:4                                                                          150                                
PROFAMCHA070602081407081445000038Double Teamed (SEPT12) - Next Friday @ 7:30pm                                                                               150                                
PRCFAMCHA070602081445081452000007NSW Bumper $$$ - Dodgeball (:07-:09) APR06                                                                                  150                                
ID FAMCHA070602081452081500000008Magic of Disney - NS/NSW/PB - Wipe (:06-:09) $$$                                                                            150                                
PGRFAMCHA070602081500083739002239Suite Life of Zack and Cody, The                  EP: 29                                                               6068607E                                
PRCFAMCHA070602083739083744000005Astral ID (FEB05)                                                                                                           150                                
PROFAMCHA070602083744083814000030Zoey 101 - QUINN (NSW) (MAR07) - Coming Up Next                                                                             150                                
PROFAMCHA070602083814083855000041xxZoey 101 VIP Fashion Spree Contest (Feb 26-June                                                                           150                                
PROFAMCHA070602083855083904000009Family Bumpers - (Phase 1 Spring 04) - DJ Spinning                                                                          150                                
PROFAMCHA070602083904083914000010FAMJAM - Open/Close                                                                                                         150                                
PGRFAMCHA070602083914084214000300MV Disney - Superstition (Raven)                                                                                       60688120                                
PROFAMCHA070602084214084228000014xxFAMJAM - Close (FAMILY) xxDNUxx                                                                                           150                                
PROFAMCHA070602084228084248000020Ned's DSSG - Drum Roll (JUNE06) NSW This Morn @ 11                                                                          150                                
PRCFAMCHA070602084248084300000012NSW Bumper $$$ - Fashion (:12-:14) APR06                                                                                    150                                
PRCFAMCHA070602084300084309000009CC Disclaimer - FAST - Generic (:08-:10) $$$                                                                                150                                
PGRFAMCHA070602084309090641002332Zoey 101                                          EP: 18                                                              A2068807BCC                              
PROFAMCHA070602090641090724000043Cory In The House (NSW) (MAR07) - Coming Up Next                                                                            150                                
PROFAMCHA070602090724090810000046xxNancy Drew Contest - In theatres June 15 (May28-                                                                          150                                
PROFAMCHA070602090810090832000022That's So Raven (BEAR) (NSW) This Morning @ 9:40 (                                                                          150                                
PROFAMCHA070602090832090910000038Double Teamed (SEPT12) - Next Friday @ 7:30pm                                                                               150                                
PGRFAMCHA070602090910091031000121Planet Rock Profiles - Michelle Branch - First GigEP: 46                                                              A70687120                                
PROFAMCHA070602091031091054000023Ned's DSSG - Doggy Munch (JUNE06) NSW This Morn @                                                                           150                                
PROFAMCHA070602091054091131000037Sinbad Show NSW Car (NOV06) This morn @ 11:35                                                                               150                                
PRCFAMCHA070602091131091146000015NSW Bumper $$$ - Tennis (:15-:17) APR06                                                                                     150                                
PRCFAMCHA070602091146091155000009CC Disclaimer - FAST - Family.ca (:08-:10) $$$                                                                              150                                
PGRFAMCHA070602091155093433002238Cory in the House                                 EP: 12                                                               6068607BCC                              
PRCFAMCHA070602093433093438000005Astral ID (FEB05)                                                                                                           150                                
PROFAMCHA070602093438093508000030That's So Raven (SCREAM) (NSW) Coming Up Next (APR                                                                          150                                
PROFAMCHA070602093508093529000021Ned's DSSG - RECORDER (AUG06) NSW This Morn @ 11:0                                                                          150                                
PROFAMCHA070602093529093539000010FAMJAM - Open/Close                                                                                                         150                                
PGRFAMCHA070602093539093916000337MV Disney - (MD/NS/NSW) - Hilary Duff - Wake Up (A                                                                     60688120                                
PROFAMCHA070602093916093930000014xxFAMJAM - Close (FAMILY) xxDNUxx                                                                                           150                                
PROFAMCHA070602093930094007000037Naturally Sadie - TEENAGE (NSW) Tonight @ 6:05 (MA                                                                          150                                
PROFAMCHA070602094007094051000044Zoey 101 - PHONE DIARY (NSW) (JUNE06) - Tonight @                                                                           150                                
PRCFAMCHA070602094051094100000009NSW Bumper $$$ - Dodgeball (:07-:09) APR06                                                                                  150                                
PGRFAMCHA070602094100100340002240That's So Raven                                   EP: 1-014                                                            6068607B                                
PROFAMCHA070602100340100410000030Phil of the Future THINGS TO COME (NSW) (APR06) -                                                                           150                                
PROFAMCHA070602100410100451000041xxZoey 101 VIP Fashion Spree Contest (Feb 26-June                                                                           150                                
PROFAMCHA070602100451100529000038Double Teamed (SEPT12) - Next Friday @ 7:30pm                                                                               150                                
PROFAMCHA070602100529100539000010FAMJAM - Open/Close                                                                                                         150                                
PGRFAMCHA070602100539100916000337MV Disney - Superstition (Raven)                                                                                       60688120                                
PROFAMCHA070602100916100930000014xxFAMJAM - Close (FAMILY) xxDNUxx                                                                                           150                                
PROFAMCHA070602100930100938000008Phil of the Future IDs - Log onto family.ca for in                                                                          150                                
PRCFAMCHA070602100938100952000014NSW Bumper $$$ - Fashion (:12-:14) APR06                                                                                    150                                
ID FAMCHA070602100952101000000008Magic of Disney - NS/NSW/PB - Shape (:06-:09) $$$                                                                           150                                
PGRFAMCHA070602101000103239002239Phil of the Future                                EPS # 01                                                             6068607B                                
PRCFAMCHA070602103239103244000005Astral ID (FEB05)                                                                                                           150                                
PRCFAMCHA070602103244103257000013NSW - 08 - BMW/NEDS (APR06) (:11 - 13) $$$                                                                                  150                                
PROFAMCHA070602103257103335000038Double Teamed (SEPT12) - Next Friday @ 7:30pm                                                                               150                                
PROFAMCHA070602103335103345000010FAMJAM - Open/Close                                                                                                         150                                
PGRFAMCHA070602103345103707000322MV Disney - Superstition (Raven)                                                                                       60688120                                
PROFAMCHA070602103707103721000014xxFAMJAM - Close (FAMILY) xxDNUxx                                                                                           150                                
PROFAMCHA070602103721103744000023Ned's DSSG - Doggy Munch (JUNE06) NSW This Morn @                                                                           150                                
PRCFAMCHA070602103744103800000016NSW Bumper $$$ - Tennis (:15-:17) APR06                                                                                     150                                
ID FAMCHA070602103800103808000008Magic of Disney - NS/NSW/PB - Wipe (:06-:09) $$$                                                                            150                                
PRCFAMCHA070602103808103817000009CC Disclaimer - FAST - Generic (:08-:10) $$$                                                                                150                                
PGRFAMCHA070602103817110032002215Boy Meets World                                   EP: 1-010                                                           B6068807B                                
PRCFAMCHA070602110032110045000013NSW - 09 - NEDS/SINBAD (SEPT06) (:11 - 13) $$$                                                                              150                                
PROFAMCHA070602110045110106000021Neds DSSG - RECORDER - NS (AUG06) Coming Up Next                                                                            150                                
PROFAMCHA070602110106110116000010FAMJAM - Open/Close                                                                                                         150                                
PGRFAMCHA070602110116110412000256MV NON-DISNEY (MD, NS, NSW) - Holly Dolly - The Do                                                                     70688120                                
PROFAMCHA070602110412110426000014xxFAMJAM - Close (FAMILY) xxDNUxx                                                                                           150                                
PROFAMCHA070602110426110448000022That's So Raven (BEAR) (NSW) Tomorrow Morning @ 9:                                                                          150                                
PRCFAMCHA070602110448110457000009NSW Bumper $$$ - Dodgeball (:07-:09) APR06                                                                                  150                                
PGRFAMCHA070602110457112913002416Ned's Declassified School Survival Guide          EP: 43                                                               2068807B                                
PRCFAMCHA070602112913112918000005Astral ID (FEB05)                                                                                                           150                                
PRCFAMCHA070602112918112931000013NSW - 10 - SINBAD/PP (SEPT06) (:11 - :13) $$$                                                                               150                                
PROFAMCHA070602112931113003000032Sinbad Show NSW Dance (SEPT06) Coming Up Next                                                                               150                                
PROFAMCHA070602113003113013000010FAMJAM - Open/Close                                                                                                         150                                
PGRFAMCHA070602113013113259000246MV Disney - Superstition (Raven)                                                                                       60688120                                
PROFAMCHA070602113259113313000014xxFAMJAM - Close (FAMILY) xxDNUxx                                                                                           150                                
PROFAMCHA070602113313113344000031Smart Guy FIGHT (JUNE06) NSW - This afternoon @ 3:                                                                          150                                
PRCFAMCHA070602113344113358000014NSW Bumper $$$ - Fashion (:12-:14) APR06                                                                                    150                                
PGRFAMCHA070602113358115619002221The Sinbad Show                                   EP: 14                                                               2068507B                                
PRCFAMCHA070602115619115630000011NSW - 11 - PP/SMART GUY (July06) (:12 - :13) $$$                                                                            150                                
PRCFAMCHA070602115630115700000030xxHSM 2 Tease - Coming This Summer (MAY07) $$$                                                                              150                                
PROFAMCHA070602115700115727000027Lizzie McGuire - (Bad Breath) (NSW) (APR06) - This                                                                          150                                
PRCFAMCHA070602115727115757000030Famous Players Popcorn Parties 2 (May 2-Sept 30/07                                                                          150                                
PROFAMCHA070602115757115809000012Family Bumpers - (Phase 1 Spring 04) - Picnic (MD-                                                                          150                                
PGRFAMCHA070602115809115854000045xxMS - Ratatouille #2 (MD, NS/NSW before 9pm) (May                                                                    A60688120                                
PROFAMCHA070602115854115927000033Suite Life of Z & C - NSW - SCOUT TROOP - This Aft                                                                          150                                
ID FAMCHA070602115927115945000018Popcorn Pix Block Open $$$ (JUNE 06) (:18-:20)                                                                              150                                
ID FAMCHA070602115945115954000009Rating - PG - (DEC05) (:08 - :10) $$$                                                                                       150                                
PRCFAMCHA070602115954120003000009CC Disclaimer - FAST - Family.ca (:08-:10) $$$                                                                              150                                
PGRFAMCHA070602120003133015013012Wish Upon A Star                                                                                                      B2068807DCC                              
PRCFAMCHA070602133015133020000005Astral ID (FEB05)                                                                                                           150                                
PRCFAMCHA070602133020133032000012NSW - 11 - PP/SMART GUY (July06) (:12 - :13) $$$                                                                            150                                
ID FAMCHA070602133032133051000019Popcorn Pix Block Open $$$ (JUNE 06) (:18-:20)                                                                              150                                
ID FAMCHA070602133051133100000009Rating - PG - (DEC05) (:08 - :10) $$$                                                                                       150                                
PGRFAMCHA070602133100150641013541Camp Nowhere                                                                                                          B6068807D                                
PRCFAMCHA070602150641150653000012NSW - 12 -SMART/LIZZIE (APR06) (:11 - :13) $$$                                                                              150                                
PRCFAMCHA070602150653150708000015xxHSM 2 ID - A.Tisdale, V.Hudges, M.Coleman  HSM 2                                                                          150                                
PROFAMCHA070602150708150725000017Nonstop Weekend Block Open (:16-:18) APR06 $$$                                                                              150                                
ID FAMCHA070602150725150733000008Magic of Disney - NS/NSW/PB - Shape (:06-:09) $$$                                                                           150                                
PGRFAMCHA070602150733152959002226Smart Guy                                         EP: 1-041                                                           A6068807B                                
PRCFAMCHA070602152959153004000005Astral ID (FEB05)                                                                                                           150                                
PRCFAMCHA070602153004153016000012NSW - 13 -LIZZIE/SUITE (APR06) (:11 - :13) $$$                                                                              150                                
PRCFAMCHA070602153016153032000016NSW Bumper $$$ - Tennis (:15-:17) APR06                                                                                     150                                
ID FAMCHA070602153032153040000008Magic of Disney - NS/NSW/PB - Shape (:06-:09) $$$                                                                           150                                
PGRFAMCHA070602153040155313002233Lizzie McGuire                                    EP: 2-024                                                           A6068607B                                
PRCFAMCHA070602155313155325000012NSW - 14 -SUITE/PROUD (APR06) (:11 - :13) $$$                                                                               150                                
PRCFAMCHA070602155325155333000008NSW Bumper $$$ - Dodgeball (:07-:09) APR06                                                                                  150                                
ID FAMCHA070602155333155341000008Magic of Disney - NS/NSW/PB - Wipe (:06-:09) $$$                                                                            150                                
PGRFAMCHA070602155341161620002239Suite Life of Zack & Cody, The                    EP: 26                                                               6068607B                                
PRCFAMCHA070602161620161625000005Astral ID (FEB05)                                                                                                           150                                
PRCFAMCHA070602161625161638000013NSW - 15 - PROUD/REPLACEMENTS (JAN06) (:11 - :13)                                                                           150                                
PROFAMCHA070602161638161727000049Proud Family (APR06) STRIKE (NSW) - Coming Up Next                                                                          150                                
PRCFAMCHA070602161727161741000014NSW Bumper $$$ - Fashion (:12-:14) APR06                                                                                    150                                
ID FAMCHA070602161741161749000008Magic of Disney - NS/NSW/PB - Shape (:06-:09) $$$                                                                           150                                
PRCFAMCHA070602161749161758000009CC Disclaimer - FAST - Generic (:08-:10) $$$                                                                                150                                
PGRFAMCHA070602161758164028002230The Proud Family                                  EP: 1-010                                                           A6068607ECC                              
PRCFAMCHA070602164028164039000011NSW - 16 - REPLACEMENTS/KIM (JAN07) (:11 - :13) $$                                                                          150                                
PROFAMCHA070602164039164102000023Replacements (FEB07) JAPAN (NSW) - Coming Up Next                                                                           150                                
PROFAMCHA070602164102164132000030xxSurf's Up Blast (RE-EDIT) In Theatres June 8 (Ju                                                                          150                                
PRCFAMCHA070602164132164141000009Family Bumpers - (Phase 1 Spring 04) - Soccer (MD-                                                                          150                                
PGRFAMCHA070602164141164226000045xxMS - Ratatouille #3 (MD, NS/NSW before 9pm) (May                                                                    A60688120                                
