SO FAMCHA110801043000043011000011Sign On (oct 1)                                                                                                                                                
PGRFAMCHA110801043011045649002638Katie And Orbie                                   EP: 54                                                        C19665A1065607ECC                              
ID FAMCHA110801045649045654000005Astral ID (HD) (Jan2011)                                                                                                    150                                
PROFAMCHA110801045654045659000005D-JR - Station ID (:05) (May2011)                                                                                           150                                
PGRFAMCHA110801045659051930002231Franny's Feet                                     EPS # 32                                                      C23971 1065607ECD                              
PROFAMCHA110801051930052000000030D-JR Icon Story - SWOBB - Seesaw Part 1 - Coming U                                                                          150                                
PROFAMCHA110801052000052026000026D-JR Promo - Minnie's Masquerade Stunt - Sunday Mo                                                                          150                                
PROFAMCHA110801052026052051000025JATNP - Get more Jake on D-JR the channel (May2011                                                                          150                                
PROFAMCHA110801052051052121000030D-JR Promo - On demand online REVISED - D-JR.ca (M                                                                          150                                
PROFAMCHA110801052121052151000030D-JR Icon Story - SWOBB - Seesaw Part 2 - Now (May                                                                          150                                
PROFAMCHA110801052151052157000006D-JR - Bumper 2 (May2011)                                                                                                   150                                
PGRFAMCHA110801052157054428002231The Secret World of Benjamin Bear                 EP: 47                                                        C31763 1065607ECC                              
ID FAMCHA110801054428054434000006Astral ID (HD) (Jan2011)                                                                                                    150                                
PROFAMCHA110801054434054441000007D-JR - Station ID (:07) (May2011)                                                                                           150                                
PGRFAMCHA110801054441060614002133Harry and His Bucket Full of Dinosaurs            EP: 24                                                        B05043 1065607ECC                              
PROFAMCHA110801060614060620000006D-JR - Bumper 5 (May2011)                                                                                                   150                                
PGRFAMCHA110801060620063014002354Henry's World                                     EP: 01                                                        B66543 1065607ECC                              
ID FAMCHA110801063014063020000006Astral ID (HD) (Jan2011)                                                                                                    150                                
PROFAMCHA110801063020063028000008D-JR - Station ID (:08) (May2011)                                                                                           150                                
PGRFAMCHA110801063028065300002232Franny's Feet                                     EPS # 23                                                      C23971 1065607ECC                              
PROFAMCHA110801065300065331000031D-JR Icon Story - Mickey Mouse Clubhouse - Silly S                                                                          150                                
PROFAMCHA110801065331065416000045D-JR Promo - Yo Ho Let's Go Summer Week - Starting                                                                          150                                
PROFAMCHA110801065416065446000030D-JR Promo - On demand online REVISED - D-JR.ca (M                                                                          150                                
PROFAMCHA110801065446065452000006D-JR - Short Open (:06) (May2011)                                                                                           150                                
PROFAMCHA110801065452065752000300PH-D Short - Mickey Mousekersize Shorts - 03 - Plu                                                                          150                                
PROFAMCHA110801065752065758000006D-JR - Short Close (:06) (May2011)                                                                                          150                                
PROFAMCHA110801065758065828000030D-JR - Standalone ID - Magic Frog (May2011)                                                                                 150                                
PROFAMCHA110801065828065903000035D-JR Promo - Handy Manny - Get more on the channel                                                                          150                                
PROFAMCHA110801065903065933000030D-JR Sienna Summer Watch & Win Contest - D-JR.ca (                                                                          150                                
PROFAMCHA110801065933070003000030D-JR Icon Story - Mickey Mouse Clubhouse - Silly S                                                                          150                                
PROFAMCHA110801070003070009000006D-JR - Bumper 9 (May2011)                                                                                                   150                                
PGRFAMCHA110801070009072412002403Disney's Mickey Mouse Clubhouse                   EP: 01                                                               6068605ACC                              
ID FAMCHA110801072412072418000006Astral ID (HD) (Jan2011)                                                                                                    150                                
PROFAMCHA110801072418072450000032D-JR Icon Story - Handy Manny - Maze Part 1 - Comi                                                                          150                                
PROFAMCHA110801072450072516000026D-JR Promo - Minnie's Masquerade Stunt - Sunday Mo                                                                          150                                
PROFAMCHA110801072516072546000030D-JR - Standalone ID - Magic Book (May2011)                                                                                 150                                
PROFAMCHA110801072546072616000030D-JR Promo - On demand online REVISED - D-JR.ca (M                                                                          150                                
PROFAMCHA110801072616072622000006D-JR - Short Open (:06) (May2011)                                                                                           150                                
PROFAMCHA110801072622072852000230PH-D Short - Whiffle & Fuzz - 03 - Piglet (Jan10)                                                                           150                                
PROFAMCHA110801072852072858000006D-JR - Short Close (:06) (May2011)                                                                                          150                                
PROFAMCHA110801072858072928000030D-JR Sienna Summer Watch & Win Contest - D-JR.ca (                                                                          150                                
PROFAMCHA110801072928072958000030D-JR Icon Story - Handy Manny - Maze Part 2 - Now                                                                           150                                
PROFAMCHA110801072958073008000010D-JR - Station ID (:10) (May2011)                                                                                           150                                
PGRFAMCHA110801073008075408002400Handy Manny                                       EP: 26                                                               6068605ACC                              
ID FAMCHA110801075408075413000005Astral ID (HD) (Jan2011)                                                                                                    150                                
PROFAMCHA110801075413075428000015Family's Summer Marathons (HD) Continues Today @ 8                                                                          150                                
PROFAMCHA110801075428075518000050Fox Home & Entertainment                                                                                                    150                                
PROFAMCHA110801075518075548000030WOWP (HD) Metric System - Today @ Noon (Jan2011)                                                                            150                                
PROFAMCHA110801075548075624000036Disney XD (HD) DXD Image Spot - DXD Is...(with Cha                                                                          150                                
PGRFAMCHA110801075624075854000230MV Disney (HD) Phineas & Ferb Ft Slash - Kick It U                                                                     60685120                                
PROFAMCHA110801075854075929000035Phineas&Ferb (HD) Candace - Coming Up Next (June20                                                                          150                                
PROFAMCHA110801075929075953000024So Random Fridays (HD) What Are SRF "Brandon" - Ev                                                                          150                                
PRCFAMCHA110801075953080009000016Family Summer Bumper (HD) - Strawberry/Lady Bug (J                                                                          150                                
PGRFAMCHA110801080009082241002232Disney Phineas & Ferb                             EP: 13                                                               6068607ECC                              
PROFAMCHA110801082241082252000011LU - Summer (HD) - 02 - Hannah M/Hannah M @ 9:00                                                                            150                                
PROFAMCHA110801082252082322000030Phineas & Ferb DCOM (HD) Candace Sell  - Prems Fri                                                                          150                                
PROFAMCHA110801082322082337000015Phineas & Ferb (HD) Watch & Win Contest (July 29 -                                                                          150                                
PROFAMCHA110801082337082411000034SLOZ+C (HD) Refresh May10 - This Morning @ 11:00 (                                                                          150                                
PGRFAMCHA110801082411082708000257MV Disney (HD) China Anne McClain - Dynamite (July                                                                     60685120                                
PROFAMCHA110801082708082730000022Family.ca (HD) "Hot Ticket" Game Promo (March 15 -                                                                          150                                
PROFAMCHA110801082730082815000045So Random (HD) Boy Sell - Friday Night @ 6:00 (Jun                                                                          150                                
PROFAMCHA110801082815082903000048Shake It Up (HD) Refresh - New Episode Friday Nigh                                                                          150                                
PROFAMCHA110801082903082947000044xHannah (HD) Refresh - Coming Up Next (May2011)                                                                             150                                
PROFAMCHA110801082947083002000015Family's Summer Marathons (HD) Continues Next (Jul                                                                          150                                
PRCFAMCHA110801083002083018000016Family Summer Bumper (HD) - Popsicle (June 29-Sept                                                                          150                                
PGRFAMCHA110801083018083340000322Hannah Montana                                    EP: 25                                                               6068807BCC                              
PGRFAMCHA110801083340084130000750Hannah Montana                                    EP: 25                                                               6068807BCC                              
PGRFAMCHA110801084130085206001036Hannah Montana                                    EP: 25                                                               6068807BCC                              
PGRFAMCHA110801085206085254000048Hannah Montana                                    EP: 25                                                               6068807BCC                              
ID FAMCHA110801085254085259000005Astral ID (HD) (Jan2011)                                                                                                    150                                
PROFAMCHA110801085259085310000011LU - Summer (HD) - 03 - Hannah M/Hannah M @ 9:30                                                                            150                                
PROFAMCHA110801085310085355000045Summer Vehicle Tour Contest (HD) Sweet Ride Giveaw                                                                          150                                
PGRFAMCHA110801085355085741000346MV Non Disney (HD) Tyler Medeiros - Say I Love You                                                                     10615120                                
PGRFAMCHA110801085741085841000100Disney XD (HD) Interstitial - My Life "Leo Howard"                                                                     60688120                                
PROFAMCHA110801085841085901000020Hannah (HD) Wig Off - Coming Up Next (Jan2011)                                                                              150                                
PROFAMCHA110801085901085931000030Phineas & Ferb DCOM (HD) Gang Sell  - Prems Friday                                                                          150                                
PRCFAMCHA110801085931085945000014Family Summer Bumper (HD) - Mole (June 29-Sept3)                                                                            150                                
PGRFAMCHA110801085945090326000341Hannah Montana                                    EP: 17                                                               6068807BCC                              
PGRFAMCHA110801090326091134000808Hannah Montana                                    EP: 17                                                               6068807BCC                              
PGRFAMCHA110801091134092128000954Hannah Montana                                    EP: 17                                                               6068807BCC                              
PGRFAMCHA110801092128092223000055Hannah Montana                                    EP: 17                                                               6068807BCC                              
PROFAMCHA110801092223092234000011LU - Summer (HD) - 04 - Hannah M/Hannah M @ 10:00                                                                           150                                
PROFAMCHA110801092234092306000032Phineas & Ferb DCOM (HD) Girl Sell  - Prems Friday                                                                          150                                
PROFAMCHA110801092306092321000015Phineas & Ferb (HD) Watch & Win Contest (July 29 -                                                                          150                                
PRCFAMCHA110801092321092406000045WUW (HD) Series Promo Retag - Tonight @ 8:30 (Jul2                                                                          150                                
PGRFAMCHA110801092406092559000153Saveria (HD) Do Whatcha Gotta Do - Ep 6 (July 29-A                                                                     10615120                                
PRCFAMCHA110801092559092629000030FOD (HD) On Demand Online family.ca (Mar2011) (2-3                                                                          150                                
PROFAMCHA110801092629092709000040Good Luck Charlie (HD) Refresh - New Episode Frida                                                                          150                                
PROFAMCHA110801092709092754000045Really Me (HD) Julia - Weekend Nights @ 6:30 (July                                                                          150                                
PROFAMCHA110801092754092838000044xHannah (HD) Refresh - Coming Up Next (May2011)                                                                             150                                
PROFAMCHA110801092838092923000045Friends For Change (HD) Starting Friday, Sat & Sun                                                                          150                                
PRCFAMCHA110801092923092939000016Family Summer Bumper (HD) - Bee (June29-Sept3)                                                                              150                                
PGRFAMCHA110801092939093650000711Hannah Montana                                    EP: 23                                                               6068807BCC                              
PGRFAMCHA110801093650094223000533Hannah Montana                                    EP: 23                                                               6068807BCC                              
PGRFAMCHA110801094223095111000848Hannah Montana                                    EP: 23                                                               6068807BCC                              
PGRFAMCHA110801095111095214000103Hannah Montana                                    EP: 23                                                               6068807BCC                              
ID FAMCHA110801095214095219000005Astral ID (HD) (Jan2011)                                                                                                    150                                
PROFAMCHA110801095219095230000011LU - Summer (HD) - 05 - Hannah M/Hannah M @ 10:30(                                                                          150                                
PROFAMCHA110801095230095300000030Disney XD (HD) I'm In the Band - Catch it on DXD (                                                                          150                                
PROFAMCHA110801095300095314000014xWOWP (HD) Alex S3 GENERIC - Today @ Noon (Jan2011                                                                          150                                
PGRFAMCHA110801095314095650000336MV Non Disney (HD) Cody Simpson - On My Mind (Jul                                                                      10615120                                
PROFAMCHA110801095650095704000014SLOD (HD) S2 GENERIC - Tonight @ 6 (Jan2011)                                                                                150                                
PROFAMCHA110801095704095744000040DEBRA! (HD) Refresh - Weekend Afternoons @ 4:00 (M                                                                          150                                
PROFAMCHA110801095744095823000039xAvalon High (HD) Popcorn Pix - Sunday @ Noon (Jan                                                                          150                                
PROFAMCHA110801095823095843000020Hannah (HD) Wig Off - Coming Up Next (Jan2011)                                                                              150                                
PROFAMCHA110801095843095921000038Sizzlin Summer Promo (HD) Friday Afternoon Startin                                                                          150                                
PROFAMCHA110801095921095943000022Family.ca (HD) "Hot Ticket" Game Promo (March 15 -                                                                          150                                
PGRFAMCHA110801095943100844000901Hannah Montana                                    EP: 21                                                               6068807BCC                              
PGRFAMCHA110801100844101336000452Hannah Montana                                    EP: 21                                                               6068807BCC                              
PGRFAMCHA110801101336102012000636Hannah Montana                                    EP: 21                                                               6068807BCC                              
PGRFAMCHA110801102012102221000209Hannah Montana                                    EP: 21                                                               6068807BCC                              
PROFAMCHA110801102221102232000011LU - Summer (HD) - 06 - Hannah M/SLZC @ 11:00  (:9                                                                          150                                
PROFAMCHA110801102232102259000027Phineas & Ferb DCOM (HD) Trailer 2 - Prems FridayN                                                                          150                                
PROFAMCHA110801102259102314000015Phineas & Ferb (HD) Watch & Win Contest (July 29 -                                                                          150                                
PROFAMCHA110801102314102348000034SLOZ+C (HD) Refresh May10 - This Morning @ 11:00 (                                                                          150                                
PGRFAMCHA110801102348102744000356MV Non Disney (HD) Saveria - Do Whatcha Gotta Do (                                                                     10615120                                
PROFAMCHA110801102744102831000047xShake It Up (HD) Dance Retag -Tonight @ 7:00 (Jul                                                                          150                                
PROFAMCHA110801102831102901000030Really Me (HD) Generic Retag - Thursday Night @ 9:                                                                          150                                
PROFAMCHA110801102901102921000020Hannah (HD) Wig Off - Coming Up Next (Jan2011)                                                                              150                                
PROFAMCHA110801102921102945000024So Random Fridays (HD) What Are SRF "Doug" - Every                                                                          150                                
PRCFAMCHA110801102945102957000012Family Summer Bumper (HD) - Worm (June 29-Sept3)                                                                            150                                
PGRFAMCHA110801102957103532000535Hannah Montana                                    EP: 03                                                               6068807BCC                              
PGRFAMCHA110801103532104146000614Hannah Montana                                    EP: 03                                                               6068807BCC                              
PGRFAMCHA110801104146104552000406Hannah Montana                                    EP: 03                                                               6068807BCC                              
PGRFAMCHA110801104552105235000643Hannah Montana                                    EP: 03                                                               6068807BCC                              
ID FAMCHA110801105235105241000006Astral ID (HD) (Jan2011)                                                                                                    150                                
PROFAMCHA110801105241105252000011LU - Summer (HD) - 07 - SLZC/SLZC @ 11:30  (:9 - :                                                                          150                                
PROFAMCHA110801105252105307000015Family's Summer Marathons (HD) Continues This Afte                                                                          150                                
PROFAMCHA110801105307105337000030So Random (HD) Girl Sell - Friday Night @ 6:00 (Ju                                                                          150                                
PGRFAMCHA110801105337105710000333MV Disney (HD) Selena Gomez - Love You Like a Love                                                                     60685120                                
PROFAMCHA110801105710105740000030Disney XD (HD) Kick Buttowski - Catch it on DXD (w                                                                          150                                
PRCFAMCHA110801105740105825000045WUW (HD) Series Promo - Sunday Morning @ 9:30 (Mar                                                                          150                                
PROFAMCHA110801105825105859000034SLOZ+C (HD) Refresh May10 - Coming Up Next (Jan201                                                                          150                                
PROFAMCHA110801105859105941000042Phineas & Ferb Marathon (HD) Friday Morning Starti                                                                          150                                
PRCFAMCHA110801105941105957000016Family Summer Bumper (HD) - Strawberry/Lady Bug (J                                                                          150                                
ID FAMCHA110801105957110002000005xMagic of Disney Bumper (HD)(:5-:6) (Jan 2011)                                                                              150                                
PGRFAMCHA110801110002112216002214The Suite Life of Zack and Cody                   EP: 18                                                               6068607BCC                              
PROFAMCHA110801112216112227000011LU - Summer (HD) - 08 - SLZC/WOWP @ 12:00  (:9 - :                                                                          150                                
PROFAMCHA110801112227112257000030Phineas & Ferb DCOM (HD) Gang Sell  - Prems Friday                                                                          150                                
PROFAMCHA110801112257112312000015Phineas & Ferb (HD) Watch & Win Contest (July 29 -                                                                          150                                
PROFAMCHA110801112312112402000050Fox Home & Entertainment                                                                                                    150                                
PROFAMCHA110801112402112425000023xWOWP (HD) Harper - Today @ Noon (Jan2011)                                                                                  150                                
PROFAMCHA110801112425112610000145ME: The Smurfs (HD) Now Playing (July 29-Aug 14)                                                                            150                                
PROFAMCHA110801112610112655000045Really Me (HD) Julia - Weekend Nights @ 6:30 (July                                                                          150                                
PROFAMCHA110801112655112730000035D-JR Promo - Handy Manny - Get more on the channel                                                                          150                                
PROFAMCHA110801112730112804000034SLOZ+C (HD) Refresh May10 - Coming Up Next (Jan201                                                                          150                                
PROFAMCHA110801112804112844000040Kellogg's                                                                                                                   150                                
PROFAMCHA110801112844112951000107Friends For Change Interview (HD) Games - Begins F                                                                          150                                
PRCFAMCHA110801112951113007000016Family Summer Bumper (HD) - Popsicle (June 29-Sept                                                                          150                                
ID FAMCHA110801113007113012000005xMagic of Disney Bumper (HD)(:5-:6) (Jan 2011)                                                                              150                                
PGRFAMCHA110801113012115244002232The Suite Life of Zack and Cody                   EP: 10                                                               6068607BCC                              
ID FAMCHA110801115244115250000006Astral ID (HD) (Jan2011)                                                                                                    150                                
PROFAMCHA110801115250115301000011LU - Summer (HD) - 09 - WOWP/Hannah @ 12:30  (:9 -                                                                          150                                
PROFAMCHA110801115301115343000042Phineas & Ferb Marathon (HD) Friday Morning Starti                                                                          150                                
PROFAMCHA110801115343115415000032Wingin It (HD) Angel Retag - Tonight @ 9:30 (Jul20                                                                          150                                
PGRFAMCHA110801115415115801000346MV Non Disney (HD) Tyler Medeiros - Say I Love You                                                                     10615120                                
PROFAMCHA110801115801115846000045So Random (HD) Boy Sell - Friday Night @ 6:00 (Jun                                                                          150                                
PROFAMCHA110801115846115925000039xAvalon High (HD) Popcorn Pix - Sunday @ Noon (Jan                                                                          150                                
PROFAMCHA110801115925115939000014xWOWP (HD) Alex S3 GENERIC - Coming Up Next (Jan20                                                                          150                                
PROFAMCHA110801115939115959000020Disney XD (HD) Kickin' It - Saturday Night @ 7:30                                                                           150                                
PRCFAMCHA110801115959120013000014Family Summer Bumper (HD) - Mole (June 29-Sept3)                                                                            150                                
PGRFAMCHA110801120013120311000258Disney Wizards of Waverly Place                   EP: 20                                                               6068607BCC                              
PGRFAMCHA110801120311121232000921Disney Wizards of Waverly Place                   EP: 20                                                               6068607BCC                              
PGRFAMCHA110801121232122312001040Disney Wizards of Waverly Place                   EP: 20                                                               6068607BCC                              
PGRFAMCHA110801122312122346000034Disney Wizards of Waverly Place                   EP: 20                                                               6068607BCC                              
PROFAMCHA110801122346122424000038Sizzlin Summer Promo (HD) Friday Afternoon Startin                                                                          150                                
PROFAMCHA11080112242412250900004520th Century Fox                                                                                                            150                                
PROFAMCHA110801122509122529000020Good Luck Charlie (HD) DuncanBallet - Monday to Th                                                                          150                                
PGRFAMCHA110801122529122759000230MV Disney (HD) Phineas & Ferb Ft Slash - Kick It U                                                                     60685120                                
PROFAMCHA110801122759122839000040DEBRA! (HD) Refresh Retag - Tomorrow Night @ 9:00                                                                           150                                
PROFAMCHA110801122839122909000030D-JR Promo - MMCH - Get more MMCH on D-JR the chan                                                                          150                                
PROFAMCHA110801122909122929000020Hannah (HD) Wig Off - Coming Up Next (Jan2011)                                                                              150                                
PROFAMCHA110801122929122951000022Family.ca (HD) "Hot Ticket" Game Promo (March 15 -                                                                          150                                
PRCFAMCHA110801122951123007000016Family Summer Bumper (HD) - Bee (June29-Sept3)                                                                              150                                
PGRFAMCHA110801123007123429000422Hannah Montana                                    EP: 25                                                               6068607BCC                              
PGRFAMCHA110801123429124257000828Hannah Montana                                    EP: 25                                                               6068607BCC                              
PGRFAMCHA110801124257125126000829Hannah Montana                                    EP: 25                                                               6068607BCC                              
PGRFAMCHA110801125126125224000058Hannah Montana                                    EP: 25                                                               6068607BCC                              
ID FAMCHA110801125224125230000006Astral ID (HD) (Jan2011)                                                                                                    150                                
PROFAMCHA110801125230125241000011LU - Summer (HD) - 11 - PAF/PAF @ 1:30 (:9 - :11)(                                                                          150                                
PROFAMCHA110801125241125308000027Phineas & Ferb DCOM (HD) Trailer 2 - Prems FridayN                                                                          150                                
PROFAMCHA110801125308125323000015Phineas & Ferb (HD) Watch & Win Contest (July 29 -                                                                          150                                
PROFAMCHA110801125323125403000040Kellogg's                                                                                                                   150                                
PROFAMCHA110801125403125433000030Really Me (HD) Generic Retag - Thursday Night @ 9:                                                                          150                                
PROFAMCHA110801125433125848000415So Random Shorts (HD) S1-01 "Wheel of Fortune" - F                                                                          150                                
PROFAMCHA110801125848125918000030Disney XD (HD) Zeke & Luther - Catch it on DXD (wi                                                                          150                                
PROFAMCHA110801125918125950000032Phineas&Ferb (HD) Stop Watch - Coming Up Next (Jan                                                                          150                                
PROFAMCHA110801125950130005000015Family's Summer Marathons (HD) Continues Next (Jul                                                                          150                                
PRCFAMCHA110801130005130017000012Family Summer Bumper (HD) - Worm (June 29-Sept3)                                                                            150                                
PGRFAMCHA110801130017132251002234Disney Phineas & Ferb                             EP: 19                                                               6068607ECC                              
PROFAMCHA110801132251132302000011LU - Summer (HD) - 12 - PAF/PAF @ 2:00 (:9 - :11)(                                                                          150                                
PROFAMCHA110801132302132332000030Phineas & Ferb DCOM (HD) Gang Sell  - Prems Friday                                                                          150                                
PROFAMCHA110801132332132347000015Phineas & Ferb (HD) Watch & Win Contest (July 29 -                                                                          150                                
PROFAMCHA110801132347132401000014xWOWP (HD) Alex S3 GENERIC - This Afternoon @ 5 (J                                                                          150                                
PROFAMCHA110801132401132448000047Shake It Up (HD) Dance Retag - Monday to Thursday                                                                           150                                
PGRFAMCHA110801132448132641000153Saveria (HD) Do Whatcha Gotta Do - Ep 6 (July 29-A                                                                     10615120                                
PRCFAMCHA110801132641132726000045WUW (HD) Series Promo Retag - Tonight @ 8:30 (Jul2                                                                          150                                
PRCFAMCHA110801132726132756000030FOD (HD) On Demand Online family.ca (Mar2011) (2-3                                                                          150                                
PROFAMCHA110801132756132841000045Really Me (HD) Julia - Weekend Nights @ 6:30 (July                                                                          150                                
PROFAMCHA110801132841132906000025JATNP - Get more Jake on D-JR the channel (May2011                                                                          150                                
PROFAMCHA110801132906132928000022So Random Fridays (HD) What Are SRF "Sterling" - E                                                                          150                                
PRCFAMCHA110801132928132944000016Family Summer Bumper (HD) - Strawberry/Lady Bug (J                                                                          150                                
PGRFAMCHA110801132944135216002232Disney Phineas & Ferb                             EP: 20                                                               6068607ECC                              
ID FAMCHA110801135216135221000005Astral ID (HD) (Jan2011)                                                                                                    150                                
PROFAMCHA110801135221135232000011LU - Summer (HD) - 13 - PAF/PAF @ 2:30 (:9 - :11)(                                                                          150                                
PROFAMCHA110801135232135302000030Disney XD (HD) Kickin' It Character Sell - Saturda                                                                          150                                
PROFAMCHA110801135302135320000018SLOD (HD) Mommy Clip - Tonight @ 6 (May 2011)                                                                               150                                
PGRFAMCHA110801135320135617000257MV Disney (HD) China Anne McClain - Dynamite (July                                                                     60685120                                
PROFAMCHA110801135617135647000030So Random (HD) Girl Sell - Friday Night @ 6:00 (Ju                                                                          150                                
PROFAMCHA110801135647135812000125DEBRA! (HD) Preston Profile - Weekend Afternoons @                                                                          150                                
PROFAMCHA110801135812135844000032Phineas&Ferb (HD) Stop Watch - Coming Up Next (Jan                                                                          150                                
PROFAMCHA110801135844135929000045Summer Vehicle Tour Contest (HD) Sweet Ride Giveaw                                                                          150                                
PRCFAMCHA110801135929135945000016Family Summer Bumper (HD) - Popsicle (June 29-Sept                                                                          150                                
PGRFAMCHA110801135945142216002231Disney Phineas & Ferb                             EP: 21                                                               6068607ECC                              
PROFAMCHA110801142216142227000011LU - Summer (HD) - 14 - PAF/PAF @ 3:00 (:9 - :11)(                                                                          150                                
PROFAMCHA110801142227142305000038Sizzlin Summer Promo (HD) Friday Afternoon Startin                                                                          150                                
PROFAMCHA110801142305142339000034SLOZ+C (HD) Refresh May10 - This Afternoon @ 3:30                                                                           150                                
PGRFAMCHA110801142339142715000336MV Non Disney (HD) Cody Simpson - On My Mind (Jul                                                                      10615120                                
PROFAMCHA110801142715142745000030Pair Of Kings (HD) Kings Speak - Weekend Mornings                                                                           150                                
PROFAMCHA110801142745142825000040DEBRA! (HD) Refresh - Weekend Afternoons @ 4:00 (M                                                                          150                                
PROFAMCHA110801142825142900000035D-JR Promo - Handy Manny - Get more on the channel                                                                          150                                
PROFAMCHA110801142900142935000035Phineas&Ferb (HD) Candace - Coming Up Next (June20                                                                          150                                
PRCFAMCHA110801142935142949000014Family Summer Bumper (HD) - Mole (June 29-Sept3)                                                                            150                                
PGRFAMCHA110801142949145222002233Disney Phineas & Ferb                             EP: 23                                                               6068607ECC                              
ID FAMCHA110801145222145228000006Astral ID (HD) (Jan2011)                                                                                                    150                                
PROFAMCHA110801145228145239000011LU - Summer (HD) - 15 - PAF/SLOZ @ 3:30  (:9 - :11                                                                          150                                
PROFAMCHA110801145239145338000059Fish Hooks (HD) Repack - Tomorrow Morning @ 8:30                                                                            150                                
PROFAMCHA110801145338145420000042Phineas & Ferb Marathon (HD) Friday Morning Starti                                                                          150                                
PROFAMCHA110801145420145450000030WOWP (HD) Metric System - This Afternoon @ 5:00 (J                                                                          150                                
PROFAMCHA110801145450145526000036Disney XD (HD) DXD Image Spot - DXD Is...(with Cha                                                                          150                                
PROFAMCHA110801145526145546000020Good Luck Charlie (HD) DuncanBallet - This Afterno                                                                          150                                
PROFAMCHA110801145546145645000059Fish Hooks (HD) Repack - Weekend Mornings @ 8:30                                                                            150                                
PROFAMCHA110801145645145715000030Shake It Up (HD) Repack - Weekend Afternoons @ 5:0                                                                          150                                
PROFAMCHA110801145715145754000039xAvalon High (HD) Popcorn Pix - Sunday @ Noon (Jan                                                                          150                                
PROFAMCHA110801145754145826000032Phineas&Ferb (HD) Stop Watch - Coming Up Next (Jan                                                                          150                                
PROFAMCHA110801145826145941000115Friends For Change Interview (HD) Teams - Begins F                                                                          150                                
PRCFAMCHA110801145941145957000016Family Summer Bumper (HD) - Bee (June29-Sept3)                                                                              150                                
PGRFAMCHA110801145957152230002233Disney Phineas & Ferb                             EP: 24                                                               6068607ECC                              
PROFAMCHA110801152230152257000027Phineas & Ferb DCOM (HD) Trailer 2 - Prems FridayN                                                                          150                                
PROFAMCHA110801152257152312000015Phineas & Ferb (HD) Watch & Win Contest (July 29 -                                                                          150                                
PROFAMCHA11080115231215235700004520th Century Fox                                                                                                            150                                
PROFAMCHA110801152357152429000032Wingin It (HD) Angel Retag - Monday to Thursday Ni                                                                          150                                
PROFAMCHA110801152429152444000015SWAC (HD) S2 Generic - Tonight @ 9:00 (Jan2011)                                                                             150                                
PROFAMCHA110801152444152629000145ME: Captain America (HD) Now Playing In Theatres (                                                                          150                                
PROFAMCHA110801152629152659000030Really Me (HD) Generic Retag - Thursday Night @ 9:                                                                          150                                
PROFAMCHA110801152659152719000020Good Luck Charlie (HD) DuncanBallet - New Episode                                                                           150                                
PRCFAMCHA110801152719152804000045WUW (HD) Series Promo - Sunday Morning @ 9:30 (Mar                                                                          150                                
PROFAMCHA110801152804152838000034SLOZ+C (HD) Refresh May10 - Coming Up Next (Jan201                                                                          150                                
PROFAMCHA110801152838152928000050Fox Home & Entertainment                                                                                                    150                                
PROFAMCHA110801152928152943000015Family's Summer Marathons (HD) Continues Tom Morni                                                                          150                                
PRCFAMCHA110801152943152955000012Family Summer Bumper (HD) - Worm (June 29-Sept3)                                                                            150                                
ID FAMCHA110801152955153000000005xMagic of Disney Bumper (HD)(:5-:6) (Jan 2011)                                                                              150                                
PGRFAMCHA110801153000153729000729The Suite Life of Zack and Cody                   EP: 10                                                               6068607BCC                              
PGRFAMCHA110801153729154234000505The Suite Life of Zack and Cody                   EP: 10                                                               6068607BCC                              
PGRFAMCHA110801154234154704000430The Suite Life of Zack and Cody                   EP: 10                                                               6068607BCC                              
PGRFAMCHA110801154704155239000535The Suite Life of Zack and Cody                   EP: 10                                                               6068607BCC                              
ID FAMCHA110801155239155244000005Astral ID (HD) (Jan2011)                                                                                                    150                                
PROFAMCHA110801155244155329000045Summer Vehicle Tour Contest (HD) Sweet Ride Giveaw                                                                          150                                
PROFAMCHA110801155329155419000050Fox Home & Entertainment                                                                                                    150                                
PROFAMCHA110801155419155433000014SLOD (HD) S2 GENERIC - Tonight @ 6 (Jan2011)                                                                                150                                
PGRFAMCHA110801155433155806000333MV Disney (HD) Selena Gomez - Love You Like a Love                                                                     60685120                                
PROFAMCHA110801155806155841000035Phineas&Ferb (HD) Candace - Coming Up Next (June20                                                                          150                                
PGRFAMCHA110801155841155941000100Disney XD (HD) Interstitial - My Life "Olivia Holt                                                                     60688120                                
PRCFAMCHA110801155941155957000016Family Summer Bumper (HD) - Strawberry/Lady Bug (J                                                                          150                                
PGRFAMCHA110801155957162231002234Disney Phineas & Ferb                             EP: 11                                                               6068607ECC                              
PROFAMCHA110801162231162309000038Sizzlin Summer Promo (HD) Friday Afternoon Startin                                                                          150                                
PROFAMCHA110801162309162354000045Sony Pictures Home Entertainment                                                                                            150                                
PROFAMCHA110801162354162441000047xShake It Up (HD) Dance Retag -Tonight @ 7:00 (Jul                                                                          150                                
PGRFAMCHA110801162441162611000130MV Disney (HD) Shake It Up - Watch Me (Jul 13- Sep                                                                     60685120                                
PROFAMCHA110801162611162651000040DEBRA! (HD) Refresh Retag - Tomorrow Night @ 9:00                                                                           150                                
PROFAMCHA110801162651162713000022Family.ca (HD) "Hot Ticket" Game Promo (March 15 -                                                                          150                                
PROFAMCHA110801162713162758000045Really Me (HD) Julia - Weekend Nights @ 6:30 (July                                                                          150                                
PROFAMCHA110801162758162830000032Phineas&Ferb (HD) Stop Watch - Coming Up Next (Jan                                                                          150                                
PROFAMCHA11080116283016291500004520th Century Fox                                                                                                            150                                
PROFAMCHA110801162915162938000023So Random Fridays (HD) What Are SRF "Tiffany" - Ev                                                                          150                                
PRCFAMCHA110801162938162954000016Family Summer Bumper (HD) - Popsicle (June 29-Sept                                                                          150                                
PGRFAMCHA110801162954165228002234Disney Phineas and Ferb                           EP: 06                                                               6068607ECC                              
ID FAMCHA110801165228165233000005Astral ID (HD) (Jan2011)                                                                                                    150                                
PROFAMCHA110801165233165300000027Phineas & Ferb DCOM (HD) Trailer 2 - Prems FridayN                                                                          150                                
PROFAMCHA110801165300165315000015Phineas & Ferb (HD) Watch & Win Contest (July 29 -                                                                          150                                
PROFAMCHA110801165315165400000045Sony Pictures Home Entertainment                                                                                            150                                
PROFAMCHA110801165400165420000020Good Luck Charlie (HD) DuncanBallet - This Afterno                                                                          150                                
PGRFAMCHA110801165420165806000346MV Non Disney (HD) Tyler Medeiros - Say I Love You                                                                     10615120                                
PROFAMCHA110801165806165836000030Disney XD (HD) I'm In the Band - Catch it on DXD (                                                                          150                                
PROFAMCHA110801165836165921000045So Random (HD) Boy Sell - Friday Night @ 6:00 (Jun                                                                          150                                
PROFAMCHA110801165921165944000023xWOWP (HD) Harper - Coming Up Next (Jan2011)                                                                                150                                
PROFAMCHA110801165944165959000015Family's Summer Marathons (HD) Monday to Thursday                                                                           150                                
PRCFAMCHA110801165959170013000014Family Summer Bumper (HD) - Mole (June 29-Sept3)                                                                            150                                
PGRFAMCHA110801170013170516000503Disney Wizards of Waverly Place                   EP: 24                                                               6068607BCC                              
PGRFAMCHA110801170516171229000713Disney Wizards of Waverly Place                   EP: 24                                                               6068607BCC                              
PGRFAMCHA110801171229172156000927Disney Wizards of Waverly Place                   EP: 24                                                               6068607BCC                              
PGRFAMCHA110801172156172249000053Disney Wizards of Waverly Place                   EP: 24                                                               6068607BCC                              
PROFAMCHA110801172249172334000045Friends For Change (HD) Starting Friday, Sat & Sun                                                                          150                                
PROFAMCHA110801172334172352000018SLOD (HD) Mommy Clip - Tonight @ 6 (May 2011)                                                                               150                                
PGRFAMCHA110801172352172649000257MV Disney (HD) China Anne McClain - Dynamite (July                                                                     60685120                                
PROFAMCHA110801172649172719000030WOWP (HD) Metric System - Tonight @ 6:30 (Jan2011)                                                                          150                                
PRCFAMCHA110801172719172749000030FOD (HD) On Demand Online family.ca (Mar2011) (2-3                                                                          150                                
PROFAMCHA110801172749172819000030Really Me (HD) Generic Retag - Thursday Night @ 9:                                                                          150                                
PROFAMCHA110801172819172859000040DEBRA! (HD) Refresh - Weekend Afternoons @ 4:00 (M                                                                          150                                
PROFAMCHA110801172859172904000005Good Luck Charlie (HD) ID - Bridget Mendler " New                                                                           150                                
PROFAMCHA110801172904172934000030Phineas & Ferb DCOM (HD) Gang Sell  - Prems Friday                                                                          150                                
PROFAMCHA110801172934172949000015Phineas & Ferb (HD) Watch & Win Contest (July 29 -                                                                          150                                
PRCFAMCHA110801172949173007000018Family Summer Bumper (HD) - Beach Ball (June 29-Se                                                                          150                                
PGRFAMCHA110801173007175240002233Good Luck Charlie                                 EP: 21                                                               6068707BCC                              
ID FAMCHA110801175240175246000006Astral ID (HD) (Jan2011)                                                                                                    150                                
PROFAMCHA110801175246175316000030Disney XD (HD) Kick Buttowski - Catch it on DXD (w                                                                          150                                
PROFAMCHA110801175316175356000040Kellogg's                                                                                                                   150                                
PROFAMCHA110801175356175443000047xShake It Up (HD) Dance Retag -Tonight @ 7:00 (Jul                                                                          150                                
PGRFAMCHA110801175443175819000336MV Non Disney (HD) Cody Simpson - On My Mind (Jul                                                                      10615120                                
PRCFAMCHA110801175819175904000045WUW (HD) Series Promo Retag - Tonight @ 8:30 (Jul2                                                                          150                                
PROFAMCHA110801175904175919000015SWAC (HD) S2 Generic - Tonight @ 9:00 (Jan2011)                                                                             150                                
PROFAMCHA110801175919175933000014SLOD (HD) S2 GENERIC - Coming Up Next (Jan2011)                                                                             150                                
PROFAMCHA110801175933180011000038Sizzlin Summer Promo (HD) Friday Afternoon Startin                                                                          150                                
PRCFAMCHA110801180011180023000012Family Summer Bumper (HD) - Worm (June 29-Sept3)                                                                            150                                
PGRFAMCHA110801180023180301000238The Suite Life on Deck                            EP: 16                                                               6068807BCC                              
PGRFAMCHA110801180301181045000744The Suite Life on Deck                            EP: 16                                                               6068807BCC                              
PGRFAMCHA110801181045182115001030The Suite Life on Deck                            EP: 16                                                               6068807BCC                              
PGRFAMCHA110801182115182156000041The Suite Life on Deck                            EP: 16                                                               6068807BCC                              
PROFAMCHA110801182156182238000042Phineas & Ferb Marathon (HD) Friday Morning Starti                                                                          150                                
PROFAMCHA110801182238182328000050Fox Home & Entertainment                                                                                                    150                                
PROFAMCHA110801182328182358000030So Random (HD) Girl Sell - Friday Night @ 6:00 (Ju                                                                          150                                
PGRFAMCHA110801182358182716000318MV Disney (HD) Bridgit Mendler - We Can Change the                                                                     60685120                                
PROFAMCHA110801182716182736000020Good Luck Charlie (HD) DuncanBallet - New Episode                                                                           150                                
PROFAMCHA110801182736182815000039xAvalon High (HD) Popcorn Pix - Sunday @ Noon (Jan                                                                          150                                
PROFAMCHA110801182815182829000014xWOWP (HD) Alex S3 GENERIC - Coming Up Next (Jan20                                                                          150                                
PROFAMCHA110801182829182936000107Friends For Change Interview (HD) Games - Begins F                                                                          150                                
PRCFAMCHA110801182936182952000016Family Summer Bumper (HD) - Strawberry/Lady Bug (J                                                                          150                                
PGRFAMCHA110801182952183326000334Disney Wizards of Waverly Place                   EP: 18                                                               6068607BCC                              
PGRFAMCHA110801183326184334001008Disney Wizards of Waverly Place                   EP: 18                                                               6068607BCC                              
PGRFAMCHA110801184334185138000804Disney Wizards of Waverly Place                   EP: 18                                                               6068607BCC                              
PGRFAMCHA110801185138185226000048Disney Wizards of Waverly Place                   EP: 18                                                               6068607BCC                              
ID FAMCHA110801185226185231000005Astral ID (HD) (Jan2011)                                                                                                    150                                
PROFAMCHA110801185231185258000027Phineas & Ferb DCOM (HD) Trailer 2 - Prems FridayN                                                                          150                                
PROFAMCHA110801185258185313000015Phineas & Ferb (HD) Watch & Win Contest (July 29 -                                                                          150                                
PROFAMCHA11080118531318535800004520th Century Fox                                                                                                            150                                
PROFAMCHA110801185358185438000040Good Luck Charlie (HD) Refresh - Mon to Thurs Nigh                                                                          150                                
PROFAMCHA110801185438185623000145ME: Captain America (HD) Now Playing In Theatres (                                                                          150                                
PROFAMCHA110801185623185655000032Wingin It (HD) Angel Retag - Tonight @ 9:30 (Jul20                                                                          150                                
PROFAMCHA110801185655185725000030Disney XD (HD) Kickin' It - Saturday Night @ 7:30                                                                           150                                
PROFAMCHA110801185725185824000059Fish Hooks (HD) Repack - Weekend Mornings @ 8:30                                                                            150                                
PROFAMCHA110801185824185848000024So Random Fridays (HD) What Are SRF "Doug" - Every                                                                          150                                
PROFAMCHA110801185848185936000048Shake It Up (HD) Refresh - Coming Up Next (June201                                                                          150                                
PROFAMCHA110801185936185946000010Best Western                                                                                                                150                                
PRCFAMCHA110801185946190002000016Family Summer Bumper (HD) - Popsicle (June 29-Sept                                                                          150                                
PGRFAMCHA110801190002192237002235Disney Shake It Up                                EP: 09                                                               6068707BCC                              
PROFAMCHA110801192237192247000010Best Western                                                                                                                150                                
PROFAMCHA110801192247192309000022Family.ca (HD) "Hot Ticket" Game Promo (March 15 -                                                                          150                                
PROFAMCHA110801192309192339000030Shake It Up (HD) Repack - New Episode Friday Night                                                                          150                                
PGRFAMCHA110801192339192609000230MV Disney (HD) Phineas & Ferb Ft Slash - Kick It U                                                                     60685120                                
PROFAMCHA110801192609192649000040DEBRA! (HD) Refresh - Weekend Afternoons @ 4:00 (M                                                                          150                                
PGRFAMCHA110801192649192842000153Saveria (HD) Do Whatcha Gotta Do - Ep 6 (July 29-A                                                                     10615120                                
PROFAMCHA110801192842192902000020Good Luck Charlie (HD) DuncanBallet - Coming Up Ne                                                                          150                                
PROFAMCHA110801192902192947000045Summer Vehicle Tour Contest (HD) Sweet Ride Giveaw                                                                          150                                
PRCFAMCHA110801192947193001000014Family Summer Bumper (HD) - Mole (June 29-Sept3)                                                                            150                                
PGRFAMCHA110801193001195206002205Good Luck Charlie                                 EP: 15                                                               6068707BCC                              
ID FAMCHA110801195206195211000005Astral ID (HD) (Jan2011)                                                                                                    150                                
PROFAMCHA110801195211195241000030Phineas & Ferb DCOM (HD) Candace Sell  - Prems Fri                                                                          150                                
PROFAMCHA110801195241195256000015Phineas & Ferb (HD) Watch & Win Contest (July 29 -                                                                          150                                
PROFAMCHA110801195256195341000045Sony Pictures Home Entertainment                                                                                            150                                
PRCFAMCHA110801195341195426000045WUW (HD) Series Promo Retag - Tonight @ 8:30 (Jul2                                                                          150                                
PGRFAMCHA110801195426195556000130MV Disney (HD) Shake It Up - Watch Me (Jul 13- Sep                                                                     60685120                                
PROFAMCHA110801195556195641000045Elephant Princess (HD) Refresh - Tonight @ 10:00 (                                                                          150                                
PROFAMCHA110801195641195711000030Really Me (HD) Generic Retag - Thursday Night @ 9:                                                                          150                                
PROFAMCHA110801195711195856000145ME: The Smurfs (HD) Now Playing (July 29-Aug 14)                                                                            150                                
PROFAMCHA110801195856195926000030Disney XD (HD) Zeke & Luther - Catch it on DXD (wi                                                                          150                                
PROFAMCHA110801195926195940000014SLOD (HD) S2 GENERIC - Coming Up Next (Jan2011)                                                                             150                                
PROFAMCHA110801195940195955000015Family's Summer Marathons (HD) Monday to Thursday                                                                           150                                
PRCFAMCHA110801195955200007000012Family Summer Bumper (HD) - Worm (June 29-Sept3)                                                                            150                                
PGRFAMCHA110801200007200235000228The Suite Life on Deck                            EP: 19                                                               6068807BCC                              
PGRFAMCHA110801200235201207000932The Suite Life on Deck                            EP: 19                                                               6068807BCC                              
PGRFAMCHA110801201207202045000838The Suite Life on Deck                            EP: 19                                                               6068807BCC                              
PGRFAMCHA110801202045202239000154The Suite Life on Deck                            EP: 19                                                               6068807BCC                              
PROFAMCHA110801202239202317000038Sizzlin Summer Promo (HD) Friday Afternoon Startin                                                                          150                                
PROFAMCHA110801202317202402000045Really Me (HD) Julia - Weekend Nights @ 6:30 (July                                                                          150                                
PGRFAMCHA110801202402202748000346MV Non Disney (HD) Tyler Medeiros - Say I Love You                                                                     10615120                                
PRCFAMCHA110801202748202833000045WUW (HD) Series Promo - Coming Up Next (Mar2011)                                                                            150                                
PROFAMCHA110801202833202948000115Friends For Change Interview (HD) Teams - Begins F                                                                          150                                
PRCFAMCHA110801202948203004000016Family Summer Bumper (HD) - Bee (June29-Sept3)                                                                              150                                
PGRFAMCHA110801203004205307002303What's Up, Warthogs!                              EP: 04                                                        C32738 1055607BCC3                             
ID FAMCHA110801205307205312000005Astral ID (HD) (Jan2011)                                                                                                    150                                
PROFAMCHA110801205312205344000032Phineas & Ferb DCOM (HD) Girl Sell  - Prems Friday                                                                          150                                
PROFAMCHA110801205344205359000015Phineas & Ferb (HD) Watch & Win Contest (July 29 -                                                                          150                                
PROFAMCHA110801205359205439000040Kellogg's                                                                                                                   150                                
PROFAMCHA110801205439205519000040DEBRA! (HD) Refresh Retag - Tomorrow Night @ 9:00                                                                           150                                
PGRFAMCHA110801205519205852000333MV Disney (HD) Selena Gomez - Love You Like a Love                                                                     60685120                                
PROFAMCHA110801205852205922000030xSWAC (HD) Tawnitown - Coming Up Next (Jan2011)                                                                             150                                
PROFAMCHA110801205922205952000030Disney XD (HD) Kickin' It Character Sell - Saturda                                                                          150                                
PRCFAMCHA110801205952210008000016Family Summer Bumper (HD) - Strawberry/Lady Bug (J                                                                          150                                
PGRFAMCHA110801210008212242002234Sonny With A Chance                               EP: 07                                                               6068607BCC                              
PROFAMCHA110801212242212324000042Phineas & Ferb Marathon (HD) Friday Morning Starti                                                                          150                                
PROFAMCHA110801212324212344000020Good Luck Charlie (HD) DuncanBallet - Monday to Th                                                                          150                                
PGRFAMCHA110801212344212720000336MV Non Disney (HD) Cody Simpson - On My Mind (Jul                                                                      10615120                                
PRCFAMCHA110801212720212750000030FOD (HD) On Demand Online family.ca (Mar2011) (2-3                                                                          150                                
PROFAMCHA110801212750212915000125DEBRA! (HD) Preston Profile - Weekend Afternoons @                                                                          150                                
PROFAMCHA110801212915212935000020Wingin It (HD) Clip Refresh - Coming Up Next (Jan2                                                                          150                                
PROFAMCHA110801212935212957000022So Random Fridays (HD) What Are SRF "Sterling" - E                                                                          150                                
PRCFAMCHA110801212957213013000016Family Summer Bumper (HD) - Popsicle (June 29-Sept                                                                          150                                
PGRFAMCHA110801213013215245002232Wingin' It                                        EP: 04                                                        C32727 1055607ACD3                             
ID FAMCHA110801215245215250000005Astral ID (HD) (Jan2011)                                                                                                    150                                
PROFAMCHA110801215250215419000129Phineas & Ferb DCOM (HD) Trailer Full  - Prems Fri                                                                          150                                
PROFAMCHA110801215419215504000045So Random (HD) Boy Sell - Friday Night @ 6:00 (Jun                                                                          150                                
PROFAMCHA110801215504215649000145ME: Harry Potter 7B (HD) Now Playing (July15-Aug5)                                                                          150                                
PROFAMCHA110801215649215719000030Shake It Up (HD) Repack - New Episode Friday Night                                                                          150                                
PROFAMCHA110801215719215755000036Disney XD (HD) DXD Image Spot - DXD Is...(with Cha                                                                          150                                
PRCFAMCHA110801215755215840000045WUW (HD) Series Promo - Sunday Morning @ 9:30 (Mar                                                                          150                                
PROFAMCHA110801215840215917000037Elephant Princess (HD) One - Coming Up Next (Jan20                                                                          150                                
PROFAMCHA110801215917220002000045Summer Vehicle Tour Contest (HD) Sweet Ride Giveaw                                                                          150                                
PRCFAMCHA110801220002220016000014Family Summer Bumper (HD) - Mole (June 29-Sept3)                                                                            150                                
PGRFAMCHA110801220016222513002457The Elephant Princess                             EP: 11                                                               7068507ACC                              
PROFAMCHA110801222513222620000107Friends For Change Interview (HD) Games - Begins F                                                                          150                                
PROFAMCHA110801222620222707000047Shake It Up (HD) Dance Retag - Monday to Thursday                                                                           150                                
PROFAMCHA110801222707222737000030Really Me (HD) Generic Retag - Thursday Night @ 9:                                                                          150                                
PROFAMCHA110801222737222836000059Fish Hooks (HD) Repack - Weekend Mornings @ 8:30                                                                            150                                
PROFAMCHA110801222836222914000038xThat's So Raven (HD) Dance Retag - Coming Up Next                                                                          150                                
PROFAMCHA110801222914222944000030Phineas & Ferb DCOM (HD) Candace Sell  - Prems Fri                                                                          150                                
PROFAMCHA110801222944222959000015Phineas & Ferb (HD) Watch & Win Contest (July 29 -                                                                          150                                
PRCFAMCHA110801222959223015000016Family Summer Bumper (HD) - Bee (June29-Sept3)                                                                              150                                
ID FAMCHA110801223015223020000005xMagic of Disney Bumper (HD)(:5-:6) (Jan 2011)                                                                              150                                
PGRFAMCHA110801223020223258000238That's So Raven                                   EP: 15                                                               6068607BCC                              
PGRFAMCHA110801223258224137000839That's So Raven                                   EP: 15                                                               6068607BCC                              
PGRFAMCHA110801224137225025000848That's So Raven                                   EP: 15                                                               6068607BCC                              
PGRFAMCHA110801225025225221000156That's So Raven                                   EP: 15                                                               6068607BCC                              
ID FAMCHA110801225221225226000005Astral ID (HD) (Jan2011)                                                                                                    150                                
PROFAMCHA110801225226225248000022Family.ca (HD) "Hot Ticket" Game Promo (March 15 -                                                                          150                                
PROFAMCHA110801225248225332000044xHannah (HD) Refresh - Tomorrow Afternoon @ 12:30                                                                           150                                
PROFAMCHA110801225332225615000243So Random Shorts (HD) S1-01 "Zombie" - Friday  @ 6                                                                          150                                
PROFAMCHA110801225615225635000020Good Luck Charlie (HD) DuncanBallet - New Episode                                                                           150                                
PROFAMCHA110801225635225705000030Disney XD (HD) Kick Buttowski - Catch it on DXD (w                                                                          150                                
PROFAMCHA110801225705225750000045Really Me (HD) Julia - Weekend Nights @ 6:30 (July                                                                          150                                
PROFAMCHA110801225750225829000039xAvalon High (HD) Popcorn Pix - Sunday @ Noon (Jan                                                                          150                                
PROFAMCHA110801225829225854000025JATNP - Get more Jake on D-JR the channel (May2011                                                                          150                                
PROFAMCHA110801225854225930000036xNed's DSSG (HD) School Tour - Coming Up Next (Jan                                                                          150                                
PROFAMCHA110801225930230008000038Sizzlin Summer Promo (HD) Friday Afternoon Startin                                                                          150                                
PRCFAMCHA110801230008230020000012Family Summer Bumper (HD) - Worm (June 29-Sept3)                                                                            150                                
PGRFAMCHA110801230020230100000040Ned's Declassified School Survival Guide          EP: 21                                                               2068807BCC                              
PGRFAMCHA110801230100231126001026Ned's Declassified School Survival Guide          EP: 21                                                               2068807BCC                              
PGRFAMCHA110801231126232354001228Ned's Declassified School Survival Guide          EP: 21                                                               2068807BCC                              
PGRFAMCHA110801232354232440000046Ned's Declassified School Survival Guide          EP: 21                                                               2068807BCC                              
PROFAMCHA110801232440232451000011LU - 30 - DEREK/MAJORITY RULES 12am (HD) (:9 - :11                                                                          150                                
PROFAMCHA110801232451232523000032Phineas & Ferb DCOM (HD) Girl Sell  - Prems Friday                                                                          150                                
PROFAMCHA110801232523232538000015Phineas & Ferb (HD) Watch & Win Contest (July 29 -                                                                          150                                
PROFAMCHA110801232538232608000030Pair Of Kings (HD) Kings Speak - Tomorrow Night @                                                                           150                                
PROFAMCHA110801232608232656000048Shake It Up (HD) Refresh - New Episode Friday Nigh                                                                          150                                
PROFAMCHA110801232656232755000059Fish Hooks (HD) Repack - Weekend Mornings @ 8:30                                                                            150                                
PRCFAMCHA110801232755232840000045WUW (HD) Series Promo - Sunday Morning @ 9:30 (Mar                                                                          150                                
PROFAMCHA110801232840232913000033xLife W D (HD) Undercover REV - Coming Up Next (Ja                                                                          150                                
PROFAMCHA110801232913232936000023So Random Fridays (HD) What Are SRF "Tiffany" - Ev                                                                          150                                
PRCFAMCHA110801232936232952000016Family Summer Bumper (HD) - Strawberry/Lady Bug (J                                                                          150                                
PGRFAMCHA110801232952235225002233Life With Derek                                   EP: 11                                                        C24891 1065607BCC                              
ID FAMCHA110801235225235230000005Astral ID (HD) (Jan2011)                                                                                                    150                                
PROFAMCHA110801235230235241000011LU - 31 - MAJORITY RULES/SADIE 12:30am (HD) (:9 -                                                                           150                                
PROFAMCHA110801235241235323000042Phineas & Ferb Marathon (HD) Friday Morning Starti                                                                          150                                
PROFAMCHA110801235323235337000014xWOWP (HD) Alex S3 GENERIC - Tomorrow @ Noon (Jan2                                                                          150                                
PROFAMCHA110801235337235407000030Really Me (HD) Generic Retag - Thursday Night @ 9:                                                                          150                                
PROFAMCHA110801235407235708000301So Random Shorts (HD) S1-01 "Helmet" - Friday  @ 6                                                                          150                                
PROFAMCHA110801235708235728000020Good Luck Charlie (HD) DuncanBallet - Weekend Afte                                                                          150                                
PROFAMCHA110801235728235800000032Wingin It (HD) Angel - Saturday Morning @ 9:30 (Ap                                                                          150                                
PROFAMCHA110801235800235830000030D-JR Promo - MMCH - Get more MMCH on D-JR the chan                                                                          150                                
PROFAMCHA110801235830235911000041Majority Rules (HD) Wade Launch - Coming Up Next (                                                                          150                                
PROFAMCHA110801235911235941000030Disney XD (HD) I'm In the Band - Catch it on DXD (                                                                          150                                
PRCFAMCHA110801235941235955000014Family Summer Bumper (HD) - Mole (June 29-Sept3)                                                                            150                                
PRCFAMCHA110801235955000009000014xDescriptive Video Slate (HD) (Jan 2011)                                                                                    150                                
PGRFAMCHA110801000009002144002135Majority Rules                                    EP: 02                                                        C30283 1065607BCD                              
PROFAMCHA110801002144002155000011LU - 32 - SADIE/HANNAH @ 1:00am (HD) (:9 - :11) Ja                                                                          150                                
PROFAMCHA110801002155002240000045Friends For Change (HD) Starting Friday, Sat & Sun                                                                          150                                
PROFAMCHA110801002240002258000018SLOD (HD) Mommy Clip - Tomorrow Night @ 6 (May 201                                                                          150                                
PGRFAMCHA110801002258002428000130MV Disney (HD) Shake It Up - Watch Me (Jul 13- Sep                                                                     60685120                                
PROFAMCHA110801002428002442000014WOWP (HD) Alex S3 GENERIC - Weekday Afternoons @ 5                                                                          150                                
PROFAMCHA110801002442002529000047Shake It Up (HD) Dance Retag - Monday to Thursday                                                                           150                                
PROFAMCHA110801002529002559000030Pair Of Kings (HD) Kings Speak - Tomorrow Night @                                                                           150                                
PROFAMCHA110801002559002631000032Wingin It (HD) Angel Retag - Monday to Thursday Ni                                                                          150                                
PROFAMCHA110801002631002701000030SWAC (HD) Tawnitown - Weekend Mornings @ 10:30 (Ja                                                                          150                                
PROFAMCHA110801002701002746000045Really Me (HD) Julia - Weekend Nights @ 6:30 (July                                                                          150                                
PROFAMCHA110801002746002815000029xNaturally Sadie (HD) Clip May08 - Coming Up Next                                                                           150                                
PROFAMCHA110801002815002944000129Phineas & Ferb DCOM (HD) Trailer Full  - Prems Fri                                                                          150                                
PRCFAMCHA110801002944002956000012Family Summer Bumper (HD) - Worm (June 29-Sept3)                                                                            150                                
PGRFAMCHA110801002956005228002232Naturally, Sadie                                  EP: 47                                                        C25428 1065607ACC                              
ID FAMCHA110801005228005233000005Astral ID (HD) (Jan2011)                                                                                                    150                                
PROFAMCHA110801005233005244000011LU - 33 - HANNAH/CORY 1:25am (HD) (:9 - :11) Jan 2                                                                          150                                
PRCFAMCHA110801005244005314000030FOD (HD) On Demand Online family.ca (Mar2011) (2-3                                                                          150                                
PROFAMCHA110801005314005348000034SLOZ+C (HD) Refresh May10 - Weekday Mornings @ 11:                                                                          150                                
PROFAMCHA110801005348005533000145ME: Harry Potter 7B (HD) Now Playing (July15-Aug5)                                                                          150                                
PROFAMCHA110801005533005603000030Disney XD (HD) Kickin' It Character Sell - Saturda                                                                          150                                
PROFAMCHA110801005603005643000040Good Luck Charlie (HD) Refresh - New Episode Frida                                                                          150                                
PROFAMCHA110801005643005742000059Fish Hooks (HD) Repack - Weekend Mornings @ 8:30                                                                            150                                
PROFAMCHA110801005742005817000035D-JR Promo - Handy Manny - Get more on the channel                                                                          150                                
PROFAMCHA110801005817005901000044xHannah (HD) Refresh - Coming Up Next (May2011)                                                                             150                                
PROFAMCHA110801005901005931000030Phineas & Ferb DCOM (HD) Candace Sell  - Prems Fri                                                                          150                                
PROFAMCHA110801005931005946000015Phineas & Ferb (HD) Watch & Win Contest (July 29 -                                                                          150                                
PRCFAMCHA110801005946010002000016Family Summer Bumper (HD) - Popsicle (June 29-Sept                                                                          150                                
PGRFAMCHA110801010002010254000252Hannah Montana                                    EP: 02                                                               6068607BCC                              
PGRFAMCHA110801010254011048000754Hannah Montana                                    EP: 02                                                               6068607BCC                              
PGRFAMCHA110801011048012130001042Hannah Montana                                    EP: 02                                                               6068607BCC                              
PGRFAMCHA110801012130012234000104Hannah Montana                                    EP: 02                                                               6068607BCC                              
PROFAMCHA110801012234012245000011LU - 34 - CORY/PHIL OF THE FUTURE 1:45am (HD) (:9                                                                           150                                
PRCFAMCHA110801012245012301000016Family Summer Bumper (HD) - Bee (June29-Sept3)                                                                              150                                
PGRFAMCHA110801012301012526000225Disney Cory in the House                          EP: 14                                                               6068607BCC                              
PGRFAMCHA110801012526013405000839Disney Cory in the House                          EP: 14                                                               6068607BCC                              
PGRFAMCHA110801013405014457001052Disney Cory in the House                          EP: 14                                                               6068607BCC                              
PGRFAMCHA110801014457014538000041Disney Cory in the House                          EP: 14                                                               6068607BCC                              
ID FAMCHA110801014538014543000005Astral ID (HD) (Jan2011)                                                                                                    150                                
PROFAMCHA110801014543014554000011LU - 35 - PHIL OF THE FUTURE/LIZZIE MCGUIRE 2:10am                                                                          150                                
PRCFAMCHA110801014554014610000016Family Summer Bumper (HD) - Strawberry/Lady Bug (J                                                                          150                                
ID FAMCHA110801014610014615000005xMagic of Disney Bumper (HD)(:5-:6) (Jan 2011)                                                                              150                                
PGRFAMCHA110801014615014828000213Phil of the Future                                EP: 24                                                               6068607BCC                              
PGRFAMCHA110801014828015738000910Phil of the Future                                EP: 24                                                               6068607BCC                              
PGRFAMCHA110801015738020721000943Phil of the Future                                EP: 24                                                               6068607BCC                              
PGRFAMCHA110801020721020820000059Phil of the Future                                EP: 24                                                               6068607BCC                              
PROFAMCHA110801020820020831000011LU - 36 - LIZZIE MCGUIRE/DEREK 2:30am (HD) (:9 - :                                                                          150                                
PRCFAMCHA110801020831020847000016Family Summer Bumper (HD) - Popsicle (June 29-Sept                                                                          150                                
ID FAMCHA110801020847020852000005xMagic of Disney Bumper (HD)(:5-:6) (Jan 2011)                                                                              150                                
PGRFAMCHA110801020852023126002234Lizzie McGuire                                    EP: 05                                                               6068607BCC                              
ID FAMCHA110801023126023131000005Astral ID (HD) (Jan2011)                                                                                                    150                                
PROFAMCHA110801023131023142000011LU - 37 - DEREK/CORY 2:55am (HD) (:9 - :11) Jan201                                                                          150                                
PRCFAMCHA110801023142023156000014Family Summer Bumper (HD) - Mole (June 29-Sept3)                                                                            150                                
