SO FAMCHA120601043000043011000011Sign On (oct 1)                                                                                                                                                
PGRFAMCHA120601043011045649002638Katie And Orbie                                   EP: 73                                                        B62276A1065607ECC                              
ID FAMCHA120601045649045655000006Astral ID (HD) (Jan2011)                                                                                                    150                                
PROFAMCHA120601045655045705000010D-JR - Flex ID - Blue (:6-:10) (Feb2012)                                                                                    150                                
PGRFAMCHA120601045705051938002233Franny's Feet                                     EP: 43                                                        C31292 1065607ECC                              
PROFAMCHA120601051938051945000007D-JR Live Action ID - SWOBB - Coming Up (May2012)                                                                           150                                
PROFAMCHA120601051945052010000025D-JR Live Action ID - #12 Feed Goldfish (May2012)                                                                           150                                
PROFAMCHA120601052010052055000045D-JR Promo - Jake's New Matey Week - Starting Mon                                                                           150                                
PROFAMCHA120601052055052122000027Doc McStuffins - Get more Doc on D-JR the channel                                                                           150                                
PROFAMCHA120601052122052147000025D-JR Live Action ID - #13 Make Bed (May2012)                                                                                150                                
PROFAMCHA120601052147052154000007D-JR Live Action ID - SWOBB - Now (May2012)                                                                                 150                                
PROFAMCHA120601052154052200000006D-JR - Bumper 8 (May2011)                                                                                                   150                                
PGRFAMCHA120601052200054435002235The Secret World of Benjamin Bear                 EPS # 1-013                                                   B75158 1065607ECC                              
PROFAMCHA120601054435054445000010D-JR - Flex ID - Green (:6-:10) (Feb2012)                                                                                   150                                
PGRFAMCHA120601054445060622002137Harry and His Bucket Full of Dinosaurs            EP: 18                                                        B05037 1065607ECC                              
PROFAMCHA120601060622060628000006D-JR - Bumper 1 (May2011)                                                                                                   150                                
PGRFAMCHA120601060628063034002406Henry's World                                     EPS # 2-025                                                   B81056 1065607ECC                              
ID FAMCHA120601063034063040000006Astral ID (HD) (Jan2011)                                                                                                    150                                
PROFAMCHA120601063040063050000010LU - 04 - PHINEAS AND FERB (HD) (:9 - :11) Jan 201                                                                          150                                
PRCFAMCHA120601063050063117000027Radio Disney (HD) Launch Spot (Jan 13 - Jun 24)                                                                             150                                
PROFAMCHA120601063117063147000030xSLOD (HD) Late Promo - Weekday Mornings @ 7:00 (A                                                                          150                                
PGRFAMCHA120601063147063317000130Let It Shine MV (HD) Dont Run Away - Premieres Jun                                                                     60685120                                
PROFAMCHA120601063317063341000024Jessie (HD) Clip Promo #2 - New Episode Tonight @                                                                           150                                
PROFAMCHA120601063341063425000044xPhineas & Ferb (HD) Lines - Coming Up Next (Apr20                                                                          150                                
PRCFAMCHA120601063425063501000036Big Ticket Summer (HD) Pre-Announcement - Watch Ju                                                                          150                                
PRCFAMCHA120601063501063509000008Family Bumper (HD) - Origami ID (Jan 2011)                                                                                  150                                
PGRFAMCHA120601063509065740002231Disney Phineas & Ferb                             EP: 20                                                               6068607ECC                              
PRCFAMCHA120601065740065822000042WUW Game Promo (HD) Go to Family.ca (Apr 6- June1)                                                                          150                                
PROFAMCHA120601065822065907000045Let It Shine (HD) Roxie Sell - Premieres Friday Ju                                                                          150                                
PROFAMCHA120601065907065937000030xSLOD (HD) Sandwich - Coming Up Next (April2012)                                                                            150                                
PRCFAMCHA120601065937065953000016Family Bumper Flex (HD) Flex ID Version #1 (Mar201                                                                          150                                
PGRFAMCHA120601065953072227002234The Suite Life on Deck                            EP: 12                                                               6068807BCC                              
ID FAMCHA120601072227072232000005Astral ID (HD) (Jan2011)                                                                                                    150                                
PRCFAMCHA120601072232072302000030xFOD 2012 Refresh (HD) Family.ca New Look (Apr2012                                                                          150                                
PROFAMCHA120601072302072342000040Kellogg's                                                                                                                   150                                
PROFAMCHA120601072342072357000015Shake It Up (HD) Refresh 1 - Tonight @ 6:00 (Mar20                                                                          150                                
PROFAMCHA120601072357072416000019Hannah (HD) Wig Off - Coming Up Next (Jan2011)                                                                              150                                
PRCFAMCHA120601072416072446000030SNAP! (HD) Prem Promo - Tonight @ 5:00 (June2012)                                                                           150                                
PRCFAMCHA120601072446072456000010Family Bumper (HD) - Satelite ID (Jan 2011)                                                                                 150                                
PGRFAMCHA120601072456074728002232Hannah Montana                                    EP: 15                                                               6068607BCC                              
PRCFAMCHA120601074728074754000026Trish's Job Fair Marathon (HD) Friday June 8 Start                                                                          150                                
PGRFAMCHA120601074754074924000130Let It Shine (HD) Spotlight #1 Music - Prems Frida                                                                     60688120                                
PROFAMCHA120601074924075008000044ANT Farm (HD) Sister Sell - Coming Up Next (July20                                                                          150                                
PRCFAMCHA120601075008075038000030Gravity Falls (HD) Origin Trailer - Sneak Peek Fri                                                                          150                                
PRCFAMCHA120601075038075054000016Family Bumper Flex (HD) Flex ID - Really Me Chest                                                                           150                                
PGRFAMCHA120601075054081313002219Disney A.N.T. Farm                                EP: 20                                                               6068607BCC                              
ID FAMCHA120601081313081319000006Astral ID (HD) (Jan2011)                                                                                                    150                                
PROFAMCHA120601081319081329000010LU - 04 - PHINEAS AND FERB (HD) (:9 - :11) Jan 201                                                                          150                                
PRCFAMCHA120601081329081405000036Big Ticket Summer (HD) Pre-Announcement - Watch Ju                                                                          150                                
PROFAMCHA120601081405081444000039Jessie (HD) Clip Promo #1 - New Episode Tonight @                                                                           150                                
PGRFAMCHA120601081444081659000215Let It Shine MV (HD) Roxie "What I Said" - Prems F                                                                     60685120                                
PROFAMCHA120601081659081743000044xPhineas & Ferb (HD) Lines - Coming Up Next (Apr20                                                                          150                                
PRCFAMCHA120601081743081803000020Family Bumper (HD) - Wallpaper ID (Jan 2011)                                                                                150                                
PGRFAMCHA120601081803084034002231Disney Phineas & Ferb                             EP: 21                                                               6068607ECC                              
PROFAMCHA120601084034084106000032D-JR Icon Story - Strawberry Shortcake - Silly Son                                                                          150                                
PROFAMCHA120601084106084136000030D-JR Promo - On demand online REVISED - D-JR.ca (M                                                                          150                                
PROFAMCHA120601084136084142000006D-JR - Short Open (:06) (May2011)                                                                                           150                                
PRCFAMCHA120601084142084427000245PH-D Short - Franny's Treasures - 74 - If The Shoe                                                                          150                                
PROFAMCHA120601084427084433000006D-JR - Short Close (:06) (May2011)                                                                                          150                                
PROFAMCHA120601084433084504000031D-JR Icon Story - Strawberry Shortcake - Silly Son                                                                          150                                
PROFAMCHA120601084504084514000010D-JR - Flex ID - Purple (:6-:10) (Feb2012)                                                                                  150                                
PGRFAMCHA120601084514090721002207Strawberry Shortcake                              EP: 09                                                               2068605ACC                              
ID FAMCHA120601090721090727000006Astral ID (HD) (Jan2011)                                                                                                    150                                
PROFAMCHA120601090727090734000007D-JR Live Action ID - Mickey Mouse Clubhouse - Com                                                                          150                                
PROFAMCHA120601090734090759000025D-JR Live Action ID - #20 Calendar (May2012)                                                                                150                                
PROFAMCHA120601090759090844000045D-JR Promo - Jake's New Matey Week - Starting Mon                                                                           150                                
PROFAMCHA120601090844090916000032D-JR Promo - Stella and Sam - Get more on the chan                                                                          150                                
PROFAMCHA120601090916090946000030D-JR - Standalone ID - Magic Frog (May2011)                                                                                 150                                
PROFAMCHA120601090946091021000035D-JR Promo - Handy Manny - Get more on the channel                                                                          150                                
PROFAMCHA120601091021091046000025D-JR Live Action ID - #42 Brush Teeth (May2012)                                                                             150                                
PROFAMCHA120601091046091053000007D-JR Live Action ID - Mickey Mouse Clubhouse - Now                                                                          150                                
PROFAMCHA120601091053091103000010D-JR - Station ID (:10) (May2011)                                                                                           150                                
PGRFAMCHA120601091103093504002401Disney's Mickey Mouse Clubhouse                   EP: 31                                                               6068605ACC                              
PROFAMCHA120601093504093536000032D-JR Icon Story - JATNLP - Maze Part 1 - Coming Up                                                                          150                                
PROFAMCHA120601093536093603000027Doc McStuffins - Get more Doc on D-JR the channel                                                                           150                                
PROFAMCHA120601093603093633000030D-JR Promo - MMCH - Get more MMCH on D-JR the chan                                                                          150                                
PROFAMCHA120601093633093704000031D-JR Icon Story - JATNLP - Maze Part 2 - Now (May                                                                           150                                
PROFAMCHA120601093704093714000010D-JR - Flex ID - Yellow (:6-:10) (Feb2012)                                                                                  150                                
PGRFAMCHA120601093714100120002406Disney Jake and the Never Land Pirates            EP: 21                                                               6068605ACC                              
ID FAMCHA120601100120100125000005Astral ID (HD) (Jan2011)                                                                                                    150                                
PROFAMCHA120601100125100132000007D-JR Live Action ID - Mickey Mouse Clubhouse - Com                                                                          150                                
PROFAMCHA120601100132100157000025D-JR Live Action ID - #45 Sorting Socks (May2012)                                                                           150                                
PROFAMCHA120601100157100242000045D-JR Promo - Jake's New Matey Week - Starting Mon                                                                           150                                
PROFAMCHA120601100242100309000027Doc McStuffins - Get more Doc on D-JR the channel                                                                           150                                
PROFAMCHA120601100309100339000030D-JR Promo - On demand online REVISED - D-JR.ca (M                                                                          150                                
PROFAMCHA120601100339100404000025D-JR Live Action ID - #47 Making Breakfast (May201                                                                          150                                
PROFAMCHA120601100404100411000007D-JR Live Action ID - Mickey Mouse Clubhouse - Now                                                                          150                                
PROFAMCHA120601100411100417000006D-JR - Bumper 2 (May2011)                                                                                                   150                                
PGRFAMCHA120601100417102818002401Disney's Mickey Mouse Clubhouse                   EP: 25                                                               6068605ACC                              
PROFAMCHA120601102818102848000030D-JR Icon Story - Handy Manny - Seesaw Part 1 - Co                                                                          150                                
PROFAMCHA120601102848102918000030D-JR Promo - On demand online REVISED - D-JR.ca (M                                                                          150                                
PROFAMCHA120601102918102943000025D-JR Promo - JATNP - Get more on the channel REV (                                                                          150                                
PROFAMCHA120601102943103013000030D-JR Icon Story - Handy Manny - Seesaw Part 2 - No                                                                          150                                
PROFAMCHA120601103013103023000010D-JR - Flex ID - Blue (:6-:10) (Feb2012)                                                                                    150                                
PGRFAMCHA120601103023105428002405Handy Manny                                       EP: 07                                                               6068605ACC                              
ID FAMCHA120601105428105433000005Astral ID (HD) (Jan2011)                                                                                                    150                                
PROFAMCHA120601105433105443000010LU - 04 - PHINEAS AND FERB (HD) (:9 - :11) Jan 201                                                                          150                                
PRCFAMCHA120601105443105543000100Gravity Falls (HD) Dipper/Mabel - Sneak Peek Fri J                                                                          150                                
PROFAMCHA120601105543105622000039Jessie (HD) Clip Promo #1 - New Episode Tonight @                                                                           150                                
PRCFAMCHA120601105622105649000027Radio Disney (HD) Launch Spot (Jan 13 - Jun 24)                                                                             150                                
PGRFAMCHA120601105649105819000130Let It Shine MV (HD) Dont Run Away - Premieres Jun                                                                     60685120                                
PROFAMCHA120601105819105903000044xPhineas & Ferb (HD) Lines - Coming Up Next (Apr20                                                                          150                                
PRCFAMCHA120601105903105939000036Big Ticket Summer (HD) Pre-Announcement - Watch Ju                                                                          150                                
PRCFAMCHA120601105939105955000016Family Bumper Flex (HD) Flex ID Version #2 (Mar201                                                                          150                                
PGRFAMCHA120601105955112228002233Disney Phineas & Ferb                             EP: 29                                                               6068607ECC                              
PRCFAMCHA120601112228112254000026Trish's Job Fair Marathon (HD) Friday June 8 Start                                                                          150                                
PROFAMCHA120601112254112324000030xWOWP (HD) Spellbook - Today @ Noon (Oct2011)                                                                               150                                
PGRFAMCHA120601112324112731000407MV Disney (HD) McClain Sisters - Rise (from Chimpa                                                                     60685120                                
PROFAMCHA120601112731112811000040Good Luck Charlie (HD) Refresh - New Episode Tonig                                                                          150                                
PROFAMCHA120601112811112841000030D-JR Promo - MMCH - Get more MMCH on D-JR the chan                                                                          150                                
PROFAMCHA120601112841112900000019SLOD (HD) Whale Clip Promo - Coming Up Next (Feb20                                                                          150                                
PROFAMCHA120601112900112945000045Let It Shine (HD) Cyrus & Kris Sell - Prems Friday                                                                          150                                
PRCFAMCHA120601112945112955000010Family Bumper (HD) - Amoeba ID (Jan 2011)                                                                                   150                                
PGRFAMCHA120601112955115212002217The Suite Life on Deck                            EP: 17                                                               6068607BCC                              
ID FAMCHA120601115212115217000005Astral ID (HD) (Jan2011)                                                                                                    150                                
PROFAMCHA120601115217115227000010LU - 07 - WIZARDS/HANNAH 12:30pm (HD) (:9 - :11) J                                                                          150                                
PRCFAMCHA120601115227115257000030xFOD 2012 Refresh (HD) Family.ca New Look (Apr2012                                                                          150                                
PROFAMCHA120601115257115337000040Kellogg's                                                                                                                   150                                
PROFAMCHA120601115337115421000044ANT Farm (HD) Sister Sell - Tonight @ 7:30 (July20                                                                          150                                
PGRFAMCHA120601115421115754000333MV Non Disney (HD) Charlie - Good As Gone (Jan 11                                                                      10615120                                
PROFAMCHA120601115754115854000100xPrincess Protection Program (HD) Popcorn Pix - Su                                                                          150                                
PROFAMCHA120601115854115917000023xWOWP (HD) Harper - Coming Up Next (Jan2011)                                                                                150                                
PRCFAMCHA120601115917115947000030SNAP! (HD) Prem Promo - Tonight @ 5:00 (June2012)                                                                           150                                
PRCFAMCHA120601115947120001000014Family Bumper Flex (HD) Flex ID - Wingin It (Apr20                                                                          150                                
PGRFAMCHA120601120001122234002233Disney Wizards of Waverly Place                   EP: 13                                                               6068607BCC                              
PROFAMCHA120601122234122245000011LU - 08 - HANNAH/SWAC @ 1:00pm (HD) (:9 - :11) Sep                                                                          150                                
PRCFAMCHA120601122245122321000036Big Ticket Summer (HD) Pre-Announcement - Watch Ju                                                                          150                                
PROFAMCHA120601122321122400000039Jessie (HD) Clip Promo #1 - New Episode Tonight @                                                                           150                                
PRCFAMCHA120601122400122422000022Really Me (HD) Keepin It Real - Saturday Night @ 6                                                                          150                                
PGRFAMCHA120601122422122637000215Let It Shine MV (HD) Roxie "What I Said" - Prems F                                                                     60685120                                
PROFAMCHA120601122637122707000030xSo Random (HD) Girl Sell - Sunday Afternoon @ 3:3                                                                          150                                
PROFAMCHA120601122707122734000027Doc McStuffins - Get more Doc on D-JR the channel                                                                           150                                
PROFAMCHA120601122734122818000044xHannah (HD) Refresh - Coming Up Next (May2011)                                                                             150                                
PRCFAMCHA120601122818122951000133Gravity Falls (HD) Origin Trailer Full - Sneek Pee                                                                          150                                
PRCFAMCHA120601122951123001000010Family Bumper (HD) - Bobbleheads ID (Jan 2011)                                                                              150                                
PGRFAMCHA120601123001125232002231Hannah Montana                                    EP: 20                                                               6068607BCC                              
ID FAMCHA120601125232125237000005Astral ID (HD) (Jan2011)                                                                                                    150                                
PRCFAMCHA120601125237125337000100Gravity Falls (HD) Dipper/Mabel - Sneak Peek Fri J                                                                          150                                
PROFAMCHA120601125337125417000040Good Luck Charlie (HD) Refresh - New Episode Tonig                                                                          150                                
PGRFAMCHA120601125417125805000348MV Non Disney (HD) Mimoza Duot ft Kardinall Offica                                                                     10615120                                
PROFAMCHA120601125805125850000045xSWAC (HD) Made Up Show - Coming Up Next (Jan2011)                                                                          150                                
PRCFAMCHA120601125850125932000042WUW Game Promo (HD) Go to Family.ca (Apr 6- June1)                                                                          150                                
PRCFAMCHA120601125932125949000017Family Bumper Flex (HD) Flex ID Version #3 (Mar201                                                                          150                                
PGRFAMCHA120601125949132222002233Disney Sonny With A Chance                        EP: 11                                                               6068507BCC                              
PROFAMCHA120601132222132403000141Let It Shine (HD) Epic Trailer - Prems Friday June                                                                          150                                
PROFAMCHA120601132403132444000041xAustin & Ally (HD) Music Sell - Tonight @ 6:30 (M                                                                          150                                
PGRFAMCHA120601132444132743000259MV Disney (HD) Bella & Zendaya - TTYLXOX/Something                                                                     60685120                                
PROFAMCHA120601132743132822000039Jessie (HD) Clip Promo #1 - New Episode Tonight @                                                                           150                                
PROFAMCHA120601132822132847000025D-JR Promo - JATNP - Get more on the channel REV (                                                                          150                                
PROFAMCHA120601132847132904000017xZoey 101 (HD) Retag - Coming Up Next (Sept2011)                                                                            150                                
PRCFAMCHA120601132904132934000030Big Ticket Summer (HD) Pre-Promote - family.ca (Ma                                                                          150                                
PRCFAMCHA120601132934132952000018Family Bumper (HD) - Dominoes ID (Jan 2011)                                                                                 150                                
PGRFAMCHA120601132952135324002332Zoey 101                                          EP: 18                                                              A2068807BCD                              
ID FAMCHA120601135324135330000006Astral ID (HD) (Jan2011)                                                                                                    150                                
PRCFAMCHA120601135330135406000036Big Ticket Summer (HD) Pre-Announcement - Watch Ju                                                                          150                                
PROFAMCHA120601135406135442000036xNed's DSSG (HD) School Tour - This Afternoon @ 2:                                                                          150                                
PGRFAMCHA120601135442135612000130Let It Shine MV (HD) Dont Run Away - Premieres Jun                                                                     60685120                                
PROFAMCHA120601135612135656000044xPhineas & Ferb (HD) Lines - This Afternoon @ 4:00                                                                          150                                
PGRFAMCHA120601135656135825000129MV Non Disney (HD) Veronica - Incompatible (March                                                                      10615120                                
PROFAMCHA120601135825135855000030Wingin It (HD) Bennet High Clip - Saturday Morning                                                                          150                                
PROFAMCHA120601135855135932000037xThat's So Raven (HD) Dance Retag - Coming Up Next                                                                          150                                
PRCFAMCHA120601135932135948000016Family Bumper Flex (HD) Flex ID - WUW (May2012) (:                                                                          150                                
PGRFAMCHA120601135948142229002241That's So Raven                                   EPS # 1-046                                                          6068607BCC                              
PRCFAMCHA120601142229142259000030SNAP! (HD) Prem Promo - Tonight @ 5:00 (June2012)                                                                           150                                
PGRFAMCHA120601142259142706000407MV Disney (HD) McClain Sisters - Rise (from Chimpa                                                                     60685120                                
PRCFAMCHA120601142706142740000034WUW (HD) Clip Promo - New Episode Sunday Morning @                                                                          150                                
PROFAMCHA120601142740142812000032D-JR Promo - Stella and Sam - Get more on the chan                                                                          150                                
PROFAMCHA120601142812142848000036xNed's DSSG (HD) School Tour - Coming Up Next (Jan                                                                          150                                
PRCFAMCHA120601142848142948000100Gravity Falls (HD) Dipper/Mabel - Sneak Peek Fri J                                                                          150                                
PRCFAMCHA120601142948142957000009Family Bumper (HD) - Dragonflies ID (Jan 2011)                                                                              150                                
PGRFAMCHA120601142957145415002418Ned's Declassified School Survival Guide          EP: 41                                                               2068807BCC                              
ID FAMCHA120601145415145420000005Astral ID (HD) (Jan2011)                                                                                                    150                                
PROFAMCHA120601145420145520000100Let It Shine (HD) Music Sell - Premieres Friday Ju                                                                          150                                
PROFAMCHA120601145520145550000030xSLOD (HD) Late Promo - This Afternoon @ 3:30 (Apr                                                                          150                                
PROFAMCHA120601145550145630000040Good Luck Charlie (HD) Refresh - New Episode Tonig                                                                          150                                
PROFAMCHA120601145630145730000100xPrincess Protection Program (HD) Popcorn Pix - Su                                                                          150                                
PROFAMCHA120601145730145753000023xWOWP (HD) Harper - Coming Up Next (Jan2011)                                                                                150                                
PRCFAMCHA120601145753145926000133Gravity Falls (HD) Origin Trailer Full - Sneek Pee                                                                          150                                
PRCFAMCHA120601145926145956000030Family Bumper Flex (HD) Flex ID Version #4 (Mar201                                                                          150                                
PGRFAMCHA120601145956152231002235Disney Wizards of Waverly Place                   EP: 05                                                               6068607BCC                              
PRCFAMCHA120601152231152258000027Radio Disney (HD) Launch Spot (Jan 13 - Jun 24)                                                                             150                                
PROFAMCHA120601152258152338000040Kellogg's                                                                                                                   150                                
PROFAMCHA120601152338152402000024Phineas&Ferb (HD) Raspberry - This Afternoon @ 4:0                                                                          150                                
PGRFAMCHA120601152402152617000215Let It Shine MV (HD) Roxie "What I Said" - Prems F                                                                     60685120                                
PROFAMCHA120601152617152717000100Austin & Ally (HD) Deep Sell - Tonight @ 6:30 (Jan                                                                          150                                
PROFAMCHA120601152717152832000115xANT Farm (HD) Music Video - Tonight @ 7:30 (Feb20                                                                          150                                
PROFAMCHA120601152832152919000047SLOD (HD) Refresh - Coming Up Next (Dec2011)                                                                                150                                
PRCFAMCHA120601152919152949000030SNAP! (HD) Prem Promo - Tonight @ 5:00 (June2012)                                                                           150                                
PRCFAMCHA120601152949153002000013Family Bumper (HD) - Drums ID (Jan 2011)                                                                                    150                                
PGRFAMCHA120601153002155233002231The Suite Life on Deck                            EP: 06                                                               6068607BCC                              
ID FAMCHA120601155233155239000006Astral ID (HD) (Jan2011)                                                                                                    150                                
PROFAMCHA120601155239155249000010LU - 15 - PHINEAS/PHINEAS 4:30pm (HD) (:9 - :11) J                                                                          150                                
PRCFAMCHA120601155249155315000026Trish's Job Fair Marathon (HD) Friday June 8 Start                                                                          150                                
PROFAMCHA120601155315155415000100Sony Pictures                                                                                                               150                                
PROFAMCHA120601155415155455000040Good Luck Charlie (HD) Refresh - New Episode Tonig                                                                          150                                
PGRFAMCHA120601155455155828000333MV Non Disney (HD) Charlie - Good As Gone (Jan 11                                                                      10615120                                
PROFAMCHA120601155828155912000044xPhineas & Ferb (HD) Lines - Coming Up Next (Apr20                                                                          150                                
PRCFAMCHA120601155912155948000036Big Ticket Summer (HD) Pre-Announcement - Watch Ju                                                                          150                                
PRCFAMCHA120601155948160000000012Family Bumper Flex (HD) Flex ID - Really Me (Apr20                                                                          150                                
PGRFAMCHA120601160000162233002233Disney Phineas & Ferb                             EP: 25                                                               6068607ECC                              
PROFAMCHA120601162233162243000010LU - 04 - PHINEAS AND FERB (HD) (:9 - :11) Jan 201                                                                          150                                
PRCFAMCHA120601162243162313000030xFOD 2012 Refresh (HD) Family.ca New Look (Apr2012                                                                          150                                
PROFAMCHA120601162313162403000050Paramount Pictures                                                                                                          150                                
PROFAMCHA120601162403162418000015Shake It Up (HD) Refresh 1 - Tonight @ 6:00 (Mar20                                                                          150                                
PGRFAMCHA120601162418162806000348MV Non Disney (HD) Mimoza Duot ft Kardinall Offica                                                                     10615120                                
PROFAMCHA120601162806162845000039Jessie (HD) Clip Promo #1 - New Episode Tonight @                                                                           150                                
PROFAMCHA120601162845162909000024Phineas&Ferb (HD) Raspberry - Coming Up Next (Apr2                                                                          150                                
PRCFAMCHA120601162909162939000030SNAP! (HD) Prem Promo - Tonight @ 5:00 (June2012)                                                                           150                                
PRCFAMCHA120601162939162955000016Family Bumper (HD) - Fashion ID (Jan 2011)                                                                                  150                                
PGRFAMCHA120601162955165226002231Disney Phineas and Ferb                           EP: 20                                                               6068607ECC                              
ID FAMCHA120601165226165232000006Astral ID (HD) (Jan2011)                                                                                                    150                                
PRCFAMCHA120601165232165314000042WUW Game Promo (HD) Go to Family.ca (Apr 6- June1)                                                                          150                                
PROFAMCHA120601165314165414000100Sony Pictures                                                                                                               150                                
PROFAMCHA120601165414165454000040Good Luck Charlie (HD) Refresh - New Episode Tonig                                                                          150                                
PGRFAMCHA120601165454165624000130MV Disney (HD) Bella & Zendaya - TTYLXOX/Something                                                                     60685120                                
PROFAMCHA120601165624165705000041xAustin & Ally (HD) Music Sell - Tonight @ 6:30 (M                                                                          150                                
PGRFAMCHA120601165705165835000130Let It Shine MV (HD) Dont Run Away - Premieres Jun                                                                     60685120                                
PRCFAMCHA120601165835165857000022Really Me (HD) Keepin It Real - Saturday Night @ 6                                                                          150                                
PRCFAMCHA120601165857165927000030SNAP! (HD) Prem Promo - Coming Up Next (June2012)                                                                           150                                
PRCFAMCHA120601165927165952000025Family Bumper Flex (HD) Flex ID Version #1 (Mar201                                                                          150                                
PGRFAMCHA120601165952172227002235Disney SNAP!                                      EP: 67                                                               6028607ECC                              
ID FAMCHA120601172227172233000006Astral ID (HD) (Jan2011)                                                                                                    150                                
PROFAMCHA120601172233172313000040DXD Promo (HD) West 49 LRN2SK Tour Promo - Disneyx                                                                          150                                
PROFAMCHA120601172313172328000015Shake It Up (HD) Refresh 1 - Tonight @ 6:00 (Mar20                                                                          150                                
PRCFAMCHA120601172328172358000030Gravity Falls (HD) Origin Trailer - Sneak Peek Fri                                                                          150                                
PGRFAMCHA120601172358172805000407MV Disney (HD) McClain Sisters - Rise (from Chimpa                                                                     60685120                                
PROFAMCHA120601172805172849000044Phineas & Ferb (HD) Lines - Weekend Mornings @ 8:0                                                                          150                                
PROFAMCHA120601172849172904000015GLC (HD) Duncan Family Refresh 15s - New Episode C                                                                          150                                
PROFAMCHA120601172904172949000045Let It Shine (HD) Roxie Sell - Premieres Friday Ju                                                                          150                                
PRCFAMCHA120601172949173003000014Family Bumper (HD) - Horseshoe ID (Jan 2011)                                                                                150                                
PGRFAMCHA120601173003175208002205Good Luck Charlie                                 EP: 04                                                               6028807BCC                              
ID FAMCHA120601175208175214000006Astral ID (HD) (Jan2011)                                                                                                    150                                
PGRFAMCHA120601175214175344000130Let It Shine (HD) Spotlight #1 Music - Prems Frida                                                                     60688120                                
PROFAMCHA120601175344175429000045SONY BMG                                                                                                                    150                                
PROFAMCHA120601175429175529000100Austin & Ally (HD) Deep Sell - Tonight @ 6:30 (Jan                                                                          150                                
PROFAMCHA120601175529175553000024Jessie (HD) Clip Promo #2 - New Episode Tonight @                                                                           150                                
PGRFAMCHA120601175553175722000129MV Non Disney (HD) Veronica - Incompatible (March                                                                      10615120                                
PROFAMCHA120601175722175752000030Wingin It (HD) Bennet High Clip - Saturday Morning                                                                          150                                
PROFAMCHA120601175752175852000100xPrincess Protection Program (HD) Popcorn Pix - Su                                                                          150                                
PROFAMCHA120601175852175922000030Shake It Up (HD) Repack - Coming Up Next (May2011)                                                                          150                                
PRCFAMCHA120601175922175952000030Big Ticket Summer (HD) Pre-Promote - family.ca (Ma                                                                          150                                
PRCFAMCHA120601175952180008000016Family Bumper Flex (HD) Flex ID - Really Me Chest                                                                           150                                
PGRFAMCHA120601180008182227002219Disney Shake It Up                                EP: 11                                                               6068707BCC                              
PRCFAMCHA120601182227182303000036Big Ticket Summer (HD) Pre-Announcement - Watch Ju                                                                          150                                
PROFAMCHA120601182303182353000050Paramount Pictures                                                                                                          150                                
PROFAMCHA120601182353182417000024Jessie (HD) Clip Promo #2 - New Episode Tonight @                                                                           150                                
PROFAMCHA120601182417182532000115xANT Farm (HD) Music Video - Tonight @ 7:30 (Feb20                                                                          150                                
PGRFAMCHA120601182532182747000215Let It Shine MV (HD) Roxie "What I Said" - Prems F                                                                     60685120                                
PROFAMCHA120601182747182828000041xAustin & Ally (HD) Music Sell - Coming Up Next (M                                                                          150                                
PROFAMCHA120601182828182908000040Kellogg's                                                                                                                   150                                
PRCFAMCHA120601182908182938000030xFOD 2012 Refresh (HD) Family.ca New Look (Apr2012                                                                          150                                
PRCFAMCHA120601182938182953000015Family Bumper (HD) - Hot Potato ID (Jan 2011)                                                                               150                                
PGRFAMCHA120601182953185239002246Disney Austin & Ally                              EP: 09                                                               6068807BCC                              
ID FAMCHA120601185239185245000006Astral ID (HD) (Jan2011)                                                                                                    150                                
PRCFAMCHA120601185245185311000026Trish's Job Fair Marathon (HD) Friday June 8 Start                                                                          150                                
PROFAMCHA120601185311185356000045SONY BMG                                                                                                                    150                                
PROFAMCHA120601185356185456000100ANT Farm (HD) Lexi Sell - Tonight @ 7:30 (Oct2011)                                                                          150                                
PROFAMCHA120601185456185526000030Wingin It (HD) Bennet High Clip - Saturday Morning                                                                          150                                
PRCFAMCHA120601185526185659000133Gravity Falls (HD) Origin Trailer Full - Sneek Pee                                                                          150                                
PRCFAMCHA120601185659185733000034WUW (HD) Clip Promo - New Episode Sunday Morning @                                                                          150                                
PROFAMCHA120601185733185818000045So Random (HD) Boy Sell - Sunday Afternoon @ 3:30                                                                           150                                
PROFAMCHA120601185818185857000039Jessie (HD) Clip Promo #1 - New Episode Coming Up                                                                           150                                
PRCFAMCHA120601185857185933000036Big Ticket Summer (HD) Pre-Announcement - Watch Ju                                                                          150                                
PRCFAMCHA120601185933185950000017Family Bumper Flex (HD) Flex ID Version #2 (Mar201                                                                          150                                
PGRFAMCHA120601185950192155002205Disney Jessie                                     EP: 16                                                               6028807BCC                              
ID FAMCHA120601192155192201000006Astral ID (HD) (Jan2011)                                                                                                    150                                
PROFAMCHA120601192201192212000011LU - 22 - ANT Farm/Popcorn Pix @ 8:00pm (HD) Frida                                                                          150                                
PRCFAMCHA120601192212192254000042WUW Game Promo (HD) Go to Family.ca (Apr 6- June1)                                                                          150                                
PROFAMCHA120601192254192354000100Sony Pictures                                                                                                               150                                
PROFAMCHA120601192354192438000044Phineas & Ferb (HD) Lines - Weekend Mornings @ 8:0                                                                          150                                
PGRFAMCHA120601192438192826000348MV Non Disney (HD) Mimoza Duot ft Kardinall Offica                                                                     10615120                                
PROFAMCHA120601192826192907000041xAustin & Ally (HD) Music Sell - Weekend Mornings                                                                           150                                
PROFAMCHA120601192907192951000044ANT Farm (HD) Sister Sell - Coming Up Next (July20                                                                          150                                
PRCFAMCHA120601192951193041000050Big Ticket Summer (HD) Concert Announcement - Ente                                                                          150                                
PRCFAMCHA120601193041193054000013Family Bumper (HD) - Karate ID (Jan 2011)                                                                                   150                                
PGRFAMCHA120601193054195300002206Disney A.N.T. Farm                                EP: 04                                                               6068607BCC                              
ID FAMCHA120601195300195306000006Astral ID (HD) (Jan2011)                                                                                                    150                                
PROFAMCHA120601195306195351000045Let It Shine (HD) Cyrus & Kris Sell - Prems Friday                                                                          150                                
PROFAMCHA120601195351195437000046Wingin It (HD) Brittany Refresh - Saturday Morning                                                                          150                                
PGRFAMCHA120601195437195736000259MV Disney (HD) Bella & Zendaya - TTYLXOX/Something                                                                     60685120                                
PROFAMCHA120601195736195815000039Jessie (HD) Clip Promo #1 - Weekend Mornings @ 10:                                                                          150                                
PROFAMCHA120601195815195915000100ANT Farm (HD) Lexi Sell - Weekend Afternoons @ 2:0                                                                          150                                
PRCFAMCHA120601195915195942000027Radio Disney (HD) Launch Spot (Jan 13 - Jun 24)                                                                             150                                
ID FAMCHA120601195942195957000015Popcorn Pix Block Open (HD)  (Jan2011)                                                                                      150                                
ID FAMCHA120601195957200006000009Popcorn Pix Rating Slate (HD) - G (Jan 2011)                                                                                150                                
ID FAMCHA120601200006200011000005xMagic of Disney Bumper (HD)(:5-:6) (Jan 2011)                                                                              150                                
PGRFAMCHA120601200011213600013549Camp Rock: Rock Along Version                                                                                         A6068807CCC                              
PRCFAMCHA120601213600213614000014Family Bumper Flex (HD) Flex ID - Wingin It (Apr20                                                                          150                                
PGRFAMCHA120601213614215847002233Disney Phineas and Ferb                           EP: 27                                                               6068607ECC                              
ID FAMCHA120601215847215852000005Astral ID (HD) (Jan2011)                                                                                                    150                                
PROFAMCHA120601215852215932000040DXD Promo (HD) West 49 LRN2SK Tour Promo - Disneyx                                                                          150                                
PROFAMCHA120601215932220002000030xDen Brother (HD) Popcorn Pix - Coming Up Next (Ja                                                                          150                                
ID FAMCHA120601220002220017000015Popcorn Pix Block Open (HD)  (Jan2011)                                                                                      150                                
ID FAMCHA120601220017220026000009Popcorn Pix Rating Slate (HD) - G (Jan 2011)                                                                                150                                
ID FAMCHA120601220026220031000005xMagic of Disney Bumper (HD)(:5-:6) (Jan 2011)                                                                              150                                
PGRFAMCHA120601220031232854012823Den Brother                                                                                                           A6068807CCC                              
PROFAMCHA120601232854232926000032D-JR Promo - Stella and Sam - Get more on the chan                                                                          150                                
PRCFAMCHA120601232926232953000027Family Bumper Flex (HD) Flex ID Version #3 (Mar201                                                                          150                                
PGRFAMCHA120601232953235418002425The Elephant Princess                             EP: 16                                                               7068507ACC                              
ID FAMCHA120601235418235423000005Astral ID (HD) (Jan2011)                                                                                                    150                                
PRCFAMCHA120601235423235450000027Radio Disney (HD) Launch Spot (Jan 13 - Jun 24)                                                                             150                                
PROFAMCHA120601235450235534000044Phineas & Ferb (HD) Lines - Weekend Mornings @ 8:0                                                                          150                                
PGRFAMCHA120601235534235848000314MV Non Disney (HD) Conor Maynard - Can's Say No (A                                                                     10615120                                
PROFAMCHA120601235848235918000030xLatest Buzz (HD) Loco Oct.09 - Coming Up Next (Ja                                                                          150                                
PRCFAMCHA120601235918235944000026Trish's Job Fair Marathon (HD) Friday June 8 Start                                                                          150                                
PRCFAMCHA120601235944235957000013Family Bumper (HD) - Karate ID (Jan 2011)                                                                                   150                                
PGRFAMCHA120601235957002233002236The Latest Buzz                                   EP: 16                                                        C30362 1065607BCC                              
PRCFAMCHA120601002233002303000030xFOD 2012 Refresh (HD) Family.ca New Look (Apr2012                                                                          150                                
PGRFAMCHA120601002303002632000329MV Non Disney (HD) Demi Lovato - Give Your Heart a                                                                     10615120                                
PROFAMCHA120601002632002707000035D-JR Promo - Handy Manny - Get more on the channel                                                                          150                                
PROFAMCHA120601002707002754000047xOverruled! (HD) Refresh - Coming Up Next (Jan2011                                                                          150                                
PROFAMCHA120601002754002935000141Let It Shine (HD) Epic Trailer - Prems Friday June                                                                          150                                
PRCFAMCHA120601002935002951000016Family Bumper Flex (HD) Flex ID - WUW (May2012) (:                                                                          150                                
PGRFAMCHA120601002951005225002234Overruled!                                        EP: 11                                                        C28762 1065607ACC                              
ID FAMCHA120601005225005230000005Astral ID (HD) (Jan2011)                                                                                                    150                                
PROFAMCHA120601005230005240000010LU - 33 - HANNAH/CORY 1:25am (HD) (:9 - :11) Jan 2                                                                          150                                
PROFAMCHA120601005240005320000040DXD Promo (HD) West 49 LRN2SK Tour Promo - Disneyx                                                                          150                                
PROFAMCHA120601005320005420000100xPrincess Protection Program (HD) Popcorn Pix - Su                                                                          150                                
PGRFAMCHA120601005420005745000325MV Non Disney (HD) Victoria Duffield - Feel (Apr13                                                                     10615120                                
PRCFAMCHA120601005745005845000100Gravity Falls (HD) Dipper/Mabel - Sneak Peek Fri J                                                                          150                                
PROFAMCHA120601005845005929000044xHannah (HD) Refresh - Coming Up Next (May2011)                                                                             150                                
PRCFAMCHA120601005929005959000030Big Ticket Summer (HD) Pre-Promote - family.ca (Ma                                                                          150                                
PRCFAMCHA120601005959010009000010Family Bumper (HD) - Satelite ID (Jan 2011)                                                                                 150                                
PGRFAMCHA120601010009012242002233Hannah Montana                                    EP: 20                                                               6068607BCC                              
PROFAMCHA120601012242012252000010LU - 34 - CORY/PHIL OF THE FUTURE 1:45am (HD) (:9                                                                           150                                
PRCFAMCHA120601012252012322000030Family Bumper Flex (HD) Flex ID Version #4 (Mar201                                                                          150                                
PGRFAMCHA120601012322014555002233Disney Cory in the House                          EP: 06                                                               6068607BCC                              
ID FAMCHA120601014555014600000005Astral ID (HD) (Jan2011)                                                                                                    150                                
PROFAMCHA120601014600014610000010LU - 35 - PHIL OF THE FUTURE/LIZZIE MCGUIRE 2:10am                                                                          150                                
PRCFAMCHA120601014610014630000020Family Bumper (HD) - Wallpaper ID (Jan 2011)                                                                                150                                
ID FAMCHA120601014630014635000005xMagic of Disney Bumper (HD)(:5-:6) (Jan 2011)                                                                              150                                
PGRFAMCHA120601014635020912002237Phil of the Future                                EPS # 01                                                             6068607BCC                              
PROFAMCHA120601020912020922000010LU - 36 - LIZZIE MCGUIRE/DEREK 2:30am (HD) (:9 - :                                                                          150                                
PRCFAMCHA120601020922020933000011Family Bumper Flex (HD) Flex ID - Really Me (Apr20                                                                          150                                
ID FAMCHA120601020933020938000005xMagic of Disney Bumper (HD)(:5-:6) (Jan 2011)                                                                              150                                
PGRFAMCHA120601020938023214002236Lizzie McGuire                                    EP: 32                                                               6068607BCC                              
ID FAMCHA120601023214023220000006Astral ID (HD) (Jan2011)                                                                                                    150                                
PROFAMCHA120601023220023230000010LU - 37 - DEREK/CORY 2:55am (HD) (:9 - :11) Jan201                                                                          150                                
PRCFAMCHA120601023230023240000010Family Bumper (HD) - Amoeba ID (Jan 2011)                                                                                   150                                
PGRFAMCHA120601023240025510002230Life With Derek                                   EP: 04                                                        C24891 1065607BCC                              
PROFAMCHA120601025510025520000010LU - 38 - CORY/RAVEN 3:20am (HD) (:9 - :11) Jan201                                                                          150                                
PRCFAMCHA120601025520025542000022Family Bumper Flex (HD) Flex ID Version #1 (Mar201                                                                          150                                
PGRFAMCHA120601025542031816002234Disney Cory in the House                          EP: 07                                                               6068607BCC                              
ID FAMCHA120601031816031822000006Astral ID (HD) (Jan2011)                                                                                                    150                                
PROFAMCHA120601031822031832000010LU - 39 - RAVEN/SLZC 3:40am (HD) (:9 - :11) Jan201                                                                          150                                
PRCFAMCHA120601031832031842000010Family Bumper (HD) - Bobbleheads ID (Jan 2011)                                                                              150                                
ID FAMCHA120601031842031847000005xMagic of Disney Bumper (HD)(:5-:6) (Jan 2011)                                                                              150                                
PGRFAMCHA120601031847034131002244That's So Raven                                   EP: 20                                                               6068607BCC                              
PROFAMCHA120601034131034141000010LU - 40 - SLZC/DEREK 4:05am (HD) (:9 - :11) Jan201                                                                          150                                
PRCFAMCHA120601034141034157000016Family Bumper Flex (HD) Flex ID - Really Me Chest                                                                           150                                
ID FAMCHA120601034157034202000005xMagic of Disney Bumper (HD)(:5-:6) (Jan 2011)                                                                              150                                
PGRFAMCHA120601034202040441002239The Suite Life of Zack and Cody                   EP: 29                                                               6068607BCC                              
ID FAMCHA120601040441040446000005Astral ID (HD) (Jan2011)                                                                                                    150                                
PROFAMCHA120601040446040456000010LU - 41 - LIFE WITH DEREK (HD) (:9 - :11) Jan2011                                                                           150                                
PRCFAMCHA120601040456040506000010Family Bumper (HD) - Satelite ID (Jan 2011)                                                                                 150                                
PGRFAMCHA120601040506042737002231Life with Derek                                   EP: 21                                                        C26679A1065607BCC                              
PROFAMCHA120601042737042822000045D-JR Promo - Jake's New Matey Week - Starting Mon                                                                           150                                
PROFAMCHA120601042822042849000027Doc McStuffins - Get more Doc on D-JR the channel                                                                           150                                
PROFAMCHA120601042849042919000030D-JR Promo - MMCH - Get more MMCH on D-JR the chan                                                                          150                                
PROFAMCHA120601042919042949000030D-JR Promo - On demand online REVISED - D-JR.ca (M                                                                          150                                
PROFAMCHA120601042949042959000010D-JR - Flex ID - Yellow (:6-:10) (Feb2012)                                                                                  150                                
OFFFAMCHA120601042959043000000001OFF AIR                                                                                                                                                        
SO FAMCHA120602043000043011000011Sign On (oct 1)                                                                                                                                                
PGRFAMCHA120602043011045418002407Henry's World                                     EP: 17                                                        B81048 1065607ECD                              
ID FAMCHA120602045418045424000006Astral ID (HD) (Jan2011)                                                                                                    150                                
PROFAMCHA120602045424045433000009D-JR - Station ID (:09) (May2011)                                                                                           150                                
PGRFAMCHA120602045433051703002230The Secret World of Benjamin Bear                 EP: 38                                                        C27272 1065607ECC                              
PROFAMCHA120602051703051710000007D-JR Live Action ID - Franny's Feet - Coming Up (M                                                                          150                                
PROFAMCHA120602051710051735000025D-JR Live Action ID - #42 Brush Teeth (May2012)                                                                             150                                
PROFAMCHA120602051735051805000030D-JR Promo - On demand online REVISED - D-JR.ca (M                                                                          150                                
PROFAMCHA120602051805051840000035D-JR Promo - Handy Manny - Get more on the channel                                                                          150                                
PROFAMCHA120602051840051912000032D-JR Promo - Stella and Sam - Get more on the chan                                                                          150                                
PROFAMCHA120602051912051937000025D-JR Live Action ID - #12 Feed Goldfish (May2012)                                                                           150                                
PROFAMCHA120602051937051944000007D-JR Live Action ID - Franny's Feet - Now (May2012                                                                          150                                
PROFAMCHA120602051944051952000008D-JR - Flex ID - Purple (:6-:10) (Feb2012)                                                                                  150                                
PGRFAMCHA120602051952054224002232Franny's Feet                                     EP: 43                                                        C31292 1065607ECC                              
ID FAMCHA120602054224054229000005Astral ID (HD) (Jan2011)                                                                                                    150                                
PROFAMCHA120602054229054259000030D-JR Icon Story - Harry & His Bucket - Seesaw Part                                                                          150                                
PROFAMCHA120602054259054344000045D-JR Promo - Jake's New Matey Week - Starting Mon                                                                           150                                
PROFAMCHA120602054344054414000030D-JR Promo - MMCH - Get more MMCH on D-JR the chan                                                                          150                                
PROFAMCHA120602054414054444000030D-JR Icon Story - Harry & His Bucket - Seesaw Part                                                                          150                                
PROFAMCHA120602054444054450000006D-JR - Bumper 5 (May2011)                                                                                                   150                                
PGRFAMCHA120602054450060621002131Harry and His Bucket Full of Dinosaurs            EP: 01                                                        B05020 1065607ECC                              
PROFAMCHA120602060621060628000007D-JR Live Action ID - Jungle Junction - Coming Up                                                                           150                                
PROFAMCHA120602060628060653000025D-JR Live Action ID - #13 Make Bed (May2012)                                                                                150                                
PROFAMCHA120602060653060723000030D-JR Promo - On demand online REVISED - D-JR.ca (M                                                                          150                                
PROFAMCHA120602060723060758000035D-JR Promo - Handy Manny - Get more on the channel                                                                          150                                
PROFAMCHA120602060758060825000027Doc McStuffins - Get more Doc on D-JR the channel                                                                           150                                
PROFAMCHA120602060825060910000045D-JR Promo - Jake's New Matey Week - Starting Mon                                                                           150                                
PROFAMCHA120602060910060935000025D-JR Live Action ID - #49 Making Lunch Routine (Ma                                                                          150                                
PROFAMCHA120602060935060942000007D-JR Live Action ID - Jungle Junction - Now (May20                                                                          150                                
PROFAMCHA120602060942060950000008D-JR - Flex ID - Yellow (:6-:10) (Feb2012)                                                                                  150                                
PGRFAMCHA120602060950063353002403Jungle Junction                                   EP: 22                                                               6068605ACC                              
ID FAMCHA120602063353063358000005Astral ID (HD) (Jan2011)                                                                                                    150                                
PROFAMCHA120602063358063430000032D-JR Icon Story - Imagination Movers - Maze Part 1                                                                          150                                
PROFAMCHA120602063430063435000005D-JR - Station ID (:05) (May2011)                                                                                           150                                
PROFAMCHA120602063435063505000030D-JR Icon Story - Imagination Movers - Maze Part 2                                                                          150                                
PGRFAMCHA120602063505065905002400Disney Imagination Movers                         EP: 09                                                               6068605ACC                              
PROFAMCHA120602065905065912000007D-JR Live Action ID - Handy Manny - Coming Up (May                                                                          150                                
PROFAMCHA120602065912065937000025D-JR Live Action ID - #20 Calendar (May2012)                                                                                150                                
PROFAMCHA120602065937065944000007D-JR - Flex ID - Blue (:6-:10) (Feb2012)                                                                                    150                                
PROFAMCHA120602065944070009000025D-JR Live Action ID - #45 Sorting Socks (May2012)                                                                           150                                
PROFAMCHA120602070009070016000007D-JR Live Action ID - Handy Manny - Now (May2012)                                                                           150                                
PGRFAMCHA120602070016072416002400Handy Manny                                       EP: 42                                                               6068607E                                
ID FAMCHA120602072416072421000005Astral ID (HD) (Jan2011)                                                                                                    150                                
PROFAMCHA120602072421072453000032D-JR Icon Story - JATNLP - Silly Song Part 1 - Com                                                                          150                                
PROFAMCHA120602072453072523000030D-JR Promo - On demand online REVISED - D-JR.ca (M                                                                          150                                
PROFAMCHA120602072523072529000006D-JR - Short Open (:06) (May2011)                                                                                           150                                
PROFAMCHA120602072529072829000300PH-D Short - Mickey Mousekersize Shorts - 03 - Plu                                                                          150CC                              
PROFAMCHA120602072829072835000006D-JR - Short Close (:06) (May2011)                                                                                          150                                
PROFAMCHA120602072835072905000030D-JR - Standalone ID - Clouds (May2011)                                                                                     150                                
PROFAMCHA120602072905072932000027Doc McStuffins - Get more Doc on D-JR the channel                                                                           150                                
PROFAMCHA120602072932073003000031D-JR Icon Story - JATNLP - Silly Song Part 2 - Now                                                                          150                                
PROFAMCHA120602073003073009000006D-JR - Bumper 9 (May2011)                                                                                                   150                                
PGRFAMCHA120602073009075416002407Disney Jake and the Never Land Pirates            EP: 23                                                               6068605ACC                              
PROFAMCHA120602075416075426000010LU - 04 - PHINEAS AND FERB (HD) (:9 - :11) Jan 201                                                                          150                                
PRCFAMCHA120602075426075456000030xFOD 2012 Refresh (HD) Family.ca New Look (Apr2012                                                                          150                                
PROFAMCHA120602075456075526000030SLOD (HD) Fisticuffs - Weekend Mornings @ 8:30 (Ap                                                                          150                                
PGRFAMCHA120602075526075655000129MV Non Disney (HD) Veronica - Incompatible (March                                                                      10615120                                
PROFAMCHA120602075655075738000043xANT Farm (HD) Refresh Ole McDonald (Long) - This                                                                           150                                
PROFAMCHA120602075738075819000041xAustin & Ally (HD) Music Sell - Weekend Mornings                                                                           150                                
PROFAMCHA120602075819075834000015Shake It Up (HD) Refresh 1 - Weekend Afternoons @                                                                           150                                
PROFAMCHA120602075834075918000044xPhineas & Ferb (HD) Lines - Coming Up Next (Apr20                                                                          150                                
PRCFAMCHA120602075918075948000030Gravity Falls (HD) Origin Trailer - Sneak Peek Fri                                                                          150                                
PRCFAMCHA120602075948080002000014Family Bumper (HD) - Horseshoe ID (Jan 2011)                                                                                150                                
PGRFAMCHA120602080002082233002231Disney Phineas and Ferb                           EP: 27                                                               6068607ECC                              
ID FAMCHA120602082233082239000006Astral ID (HD) (Jan2011)                                                                                                    150                                
PRCFAMCHA120602082239082309000030Big Ticket Summer (HD) Pre-Promote - family.ca (Ma                                                                          150                                
PROFAMCHA120602082309082339000030xWOWP (HD) Spellbook - This Morning @ 9:00 (Feb201                                                                          150                                
PRCFAMCHA120602082339082512000133Gravity Falls (HD) Origin Trailer Full - Sneek Pee                                                                          150                                
PROFAMCHA120602082512082551000039Jessie (HD) Clip Promo #1 - This Morning @ 10:30 (                                                                          150                                
PROFAMCHA120602082551082621000030Good Luck Charlie (HD) Duncan Family Refresh - Thi                                                                          150                                
PRCFAMCHA120602082621082656000035WUW (HD) Clip Promo - New Episode Tomorrow Morning                                                                          150                                
PROFAMCHA120602082656082756000100xPrincess Protection Program (HD) Popcorn Pix - To                                                                          150                                
PROFAMCHA120602082756082820000024Phineas&Ferb (HD) Raspberry - Weekday Afternoons @                                                                          150                                
PROFAMCHA120602082820082850000030xSLOD (HD) Sandwich - Coming Up Next (April2012)                                                                            150                                
PROFAMCHA120602082850082935000045Let It Shine (HD) Cyrus & Kris Sell - Prems Friday                                                                          150                                
PRCFAMCHA120602082935082953000018Family Bumper Flex (HD) Flex ID Version #3 (Mar201                                                                          150                                
PGRFAMCHA120602082953085227002234The Suite Life on Deck                            EP: 08                                                               6068807BCC                              
PRCFAMCHA120602085227085254000027Radio Disney (HD) Launch Spot (Jan 13 - Jun 24)                                                                             150                                
PROFAMCHA120602085254085340000046Wingin It (HD) Brittany Refresh - This Morning @ 9                                                                          150                                
PGRFAMCHA120602085340085639000259MV Disney (HD) Bella & Zendaya - TTYLXOX/Something                                                                     60685120                                
PROFAMCHA120602085639085654000015Shake It Up (HD) Refresh 1 - This Morning @ 11:30                                                                           150                                
PGRFAMCHA120602085654085909000215Let It Shine MV (HD) Roxie "What I Said" - Prems F                                                                     60685120                                
PROFAMCHA120602085909085915000006WOWP (HD) ID - Jennifer Stone 2 "Coming Up Next" (                                                                          150                                
PRCFAMCHA120602085915085941000026Trish's Job Fair Marathon (HD) Friday Afternoon St                                                                          150                                
PRCFAMCHA120602085941085955000014Family Bumper Flex (HD) Flex ID - Wingin It (Apr20                                                                          150                                
PGRFAMCHA120602085955092228002233Disney Wizards of Waverly Place                   EP: 12                                                               6068607BCC                              
ID FAMCHA120602092228092233000005Astral ID (HD) (Jan2011)                                                                                                    150                                
PROFAMCHA120602092233092414000141Let It Shine (HD) Epic Trailer - Prems Friday June                                                                          150                                
PROFAMCHA120602092414092429000015xANT Farm (HD) Refresh Ole McDonald - Weekend Morn                                                                          150                                
PGRFAMCHA120602092429092817000348MV Non Disney (HD) Mimoza Duot ft Kardinall Offica                                                                     10615120                                
PROFAMCHA120602092817092903000046Wingin It (HD) Brittany Refresh - Coming Up Next (                                                                          150                                
PRCFAMCHA120602092903092933000030Big Ticket Summer (HD) Concert 1 - Fam Club Gets T                                                                          150                                
PRCFAMCHA120602092933092948000015Family Bumper (HD) - Hot Potato ID (Jan 2011)                                                                               150                                
PRCFAMCHA120602092948093001000013xDescriptive Video Slate (HD) (Jan 2011)                                                                                    150                                
PGRFAMCHA120602093001095233002232Wingin' It                                        EP: 09                                                        C32356 1065607ACD                              
PRCFAMCHA120602095233095333000100Gravity Falls (HD) Dipper/Mabel - Sneak Peek Fri J                                                                          150                                
PROFAMCHA120602095333095433000100Sony Pictures                                                                                                               150                                
PROFAMCHA120602095433095512000039Jessie (HD) Clip Promo #1 - This Morning @ 10:30 (                                                                          150                                
PROFAMCHA120602095512095553000041xAustin & Ally (HD) Music Sell - This Morning @ 11                                                                          150                                
PROFAMCHA120602095553095633000040Good Luck Charlie (HD) Refresh - This Afternoon @                                                                           150                                
PRCFAMCHA120602095633095655000022Really Me (HD) Keepin It Real - Tonight @ 6:30 (Ap                                                                          150                                
PROFAMCHA120602095655095740000045xSo Random (HD) Super Tease Promo - Weekend Nights                                                                          150                                
PROFAMCHA120602095740095840000100xPrincess Protection Program (HD) Popcorn Pix - To                                                                          150                                
PROFAMCHA120602095840095924000044ANT Farm (HD) Sister Sell - Coming Up Next (July20                                                                          150                                
PRCFAMCHA120602095924095954000030Big Ticket Summer (HD) Pre-Promote - family.ca (Ma                                                                          150                                
PRCFAMCHA120602095954100002000008Family Bumper (HD) - Origami ID (Jan 2011)                                                                                  150                                
PGRFAMCHA120602100002102333002331Disney A.N.T. Farm                                EP: 22                                                               6068607BCC                              
ID FAMCHA120602102333102339000006Astral ID (HD) (Jan2011)                                                                                                    150                                
PRCFAMCHA120602102339102405000026Trish's Job Fair Marathon (HD) Friday Afternoon St                                                                          150                                
PROFAMCHA120602102405102445000040Kellogg's                                                                                                                   150                                
PROFAMCHA120602102445102529000044xPhineas & Ferb (HD) Lines - Weekend Afternoons @                                                                           150                                
PROFAMCHA120602102529102629000100Let It Shine (HD) Music Sell - Premieres Friday Ju                                                                          150                                
PRCFAMCHA120602102629102702000033WUW (HD) Refresh Promo - New Episode Tomorrow Morn                                                                          150                                
PGRFAMCHA120602102702102827000125Time I... S2  (HD) Volunteered (May4-July4); The                                                                       60688120                                
PROFAMCHA120602102827102851000024Jessie (HD) Clip Promo #2 - Coming Up Next (Mar201                                                                          150                                
PROFAMCHA120602102851102931000040DXD Promo (HD) West 49 LRN2SK Tour Promo - Disneyx                                                                          150                                
PRCFAMCHA120602102931102952000021Family Bumper Flex (HD) Flex ID Version #4 (Mar201                                                                          150                                
PGRFAMCHA120602102952105227002235Disney Jessie                                     EP: 22                                                               6068807BCC                              
PRCFAMCHA120602105227105254000027Radio Disney (HD) Launch Spot (Jan 13 - Jun 24)                                                                             150                                
PROFAMCHA120602105254105344000050Paramount Pictures                                                                                                          150                                
PROFAMCHA120602105344105414000030Shake It Up (HD) Repack - This Morning @ 11:30 (Ma                                                                          150                                
PGRFAMCHA120602105414105544000130Let It Shine MV (HD) Dont Run Away - Premieres Jun                                                                     60685120                                
PROFAMCHA120602105544105627000043ANT Farm (HD) Refresh Ole McDonald (Long) - This A                                                                          150                                
PROFAMCHA120602105627105706000039Jessie (HD) Clip Promo #1 - This Afternoon @ 4:00                                                                           150                                
PRCFAMCHA120602105706105728000022Really Me (HD) Keepin It Real - Tonight @ 6:30 (Ap                                                                          150                                
PROFAMCHA120602105728105814000046Wingin It (HD) Brittany Refresh - Mon to Wed Night                                                                          150                                
PROFAMCHA120602105814105914000100Austin & Ally (HD) Deep Sell - Coming Up Next (Jan                                                                          150                                
PRCFAMCHA120602105914105944000030Gravity Falls (HD) Origin Trailer - Sneak Peek Fri                                                                          150                                
PRCFAMCHA120602105944105954000010Family Bumper (HD) - Satelite ID (Jan 2011)                                                                                 150                                
PGRFAMCHA120602105954112327002333Disney Austin & Ally                              EP: 02                                                               6068807BCC                              
ID FAMCHA120602112327112332000005Astral ID (HD) (Jan2011)                                                                                                    150                                
PROFAMCHA120602112332112343000011LU(SS) - 08 - SIU/Popcorn Pix @ 12:00pm (HD) (:9 -                                                                          150                                
PRCFAMCHA120602112343112413000030Big Ticket Summer (HD) Concert 1 - Fam Club Gets T                                                                          150                                
PROFAMCHA120602112413112443000030SLOD (HD) Sandwich - Weekend Afternoons @ 2:30 (Ap                                                                          150                                
PGRFAMCHA120602112443112850000407MV Disney (HD) McClain Sisters - Rise (from Chimpa                                                                     60685120                                
PROFAMCHA120602112850112905000015Shake It Up (HD) Refresh 1 - Coming Up Next (Mar20                                                                          150                                
PRCFAMCHA120602112905112931000026Trish's Job Fair Marathon (HD) Friday Afternoon St                                                                          150                                
PRCFAMCHA120602112931112947000016Family Bumper Flex (HD) Flex ID - Really Me Chest                                                                           150                                
PGRFAMCHA120602112947115253002306Disney Shake It Up                                EP: 16                                                               6068707BCC                              
PROFAMCHA120602115253115304000011LU(SS) - 09 - Popcorn Pix/P&F @ 1:30pm (HD) (:9 -                                                                           150                                
PROFAMCHA120602115304115349000045Let It Shine (HD) Roxie Sell - Premieres Friday Ju                                                                          150                                
PROFAMCHA120602115349115449000100Sony Pictures                                                                                                               150                                
PROFAMCHA120602115449115533000044xPhineas & Ferb (HD) Lines - This Afternoon @ 1:30                                                                          150                                
PROFAMCHA120602115533115633000100ANT Farm (HD) Lexi Sell - Weekend Afternoons @ 2:0                                                                          150                                
PROFAMCHA120602115633115713000040Good Luck Charlie (HD) Refresh - This Afternoon @                                                                           150                                
PROFAMCHA120602115713115754000041xAustin & Ally (HD) Music Sell - Tonight @ 5:30 (M                                                                          150                                
PROFAMCHA120602115754115839000045So Random (HD) Boy Sell - Tomorrow Afternoon @ 3:3                                                                          150                                
PROFAMCHA120602115839115906000027Doc McStuffins - Get more Doc on D-JR the channel                                                                           150                                
PRCFAMCHA120602115906115936000030Big Ticket Summer (HD) Pre-Promote - family.ca (Ma                                                                          150                                
ID FAMCHA120602115936115951000015Popcorn Pix Block Open (HD)  (Jan2011)                                                                                      150                                
ID FAMCHA120602115951120000000009Popcorn Pix Rating Slate (HD) - G (Jan 2011)                                                                                150                                
ID FAMCHA120602120000120005000005xMagic of Disney Bumper (HD)(:5-:6) (Jan 2011)                                                                              150                                
PGRFAMCHA120602120005133040013035Wendy Wu:  Homecoming Warrior                                                                                         A6068807CCC                              
