SO FAMCHA111101043000043011000011Sign On (oct 1)                                                                                                                                                
PGRFAMCHA111101043011045649002638Katie And Orbie                                   EP: 70                                                        B62273A1065607ECC                              
ID FAMCHA111101045649045655000006Astral ID (HD) 50th Anniversary ID (Aug31-Dec31)                                                                            150                                
PROFAMCHA111101045655045701000006D-JR - Bumper 3 (May2011)                                                                                                   150                                
PGRFAMCHA111101045701051934002233Franny's Feet                                     EP: 46                                                        C31292 1065607ECC                              
PROFAMCHA111101051934052004000030D-JR Icon Story - SWOBB - Seesaw Part 1 - Coming U                                                                          150                                
PROFAMCHA111101052004052034000030D-JR Promo - On demand online REVISED - D-JR.ca (M                                                                          150                                
PROFAMCHA111101052034052109000035D-JR Promo - Handy Manny - Get more on the channel                                                                          150                                
PROFAMCHA111101052109052139000030D-JR Icon Story - SWOBB - Seesaw Part 2 - Now (May                                                                          150                                
PROFAMCHA111101052139052145000006D-JR - Station ID (:06) (May2011)                                                                                           150                                
PGRFAMCHA111101052145054417002232The Secret World of Benjamin Bear                 EPS # 1-010                                                   B75155 1065607ECC                              
ID FAMCHA111101054417054423000006Astral ID (HD) 50th Anniversary ID (Aug31-Dec31)                                                                            150                                
PROFAMCHA111101054423054429000006D-JR - Bumper 5 (May2011)                                                                                                   150                                
PGRFAMCHA111101054429060603002134Harry and His Bucket Full of Dinosaurs            EP: 17                                                        B05036 1065607ECC                              
PROFAMCHA111101060603060611000008D-JR - Station ID (:08) (May2011)                                                                                           150                                
PGRFAMCHA111101060611063004002353Henry's World                                     EP: 01                                                        B66543 1065607ECC                              
ID FAMCHA111101063004063010000006Astral ID (HD) 50th Anniversary ID (Aug31-Dec31)                                                                            150                                
PROFAMCHA111101063010063016000006D-JR - Bumper 7 (May2011)                                                                                                   150                                
PGRFAMCHA111101063016065250002234Franny's Feet                                     EP: 40                                                        C31292 1065607ECC                              
PROFAMCHA111101065250065301000011LU - 01 - PHINEAS/SLOD 7:25am (HD) (:9 - :11) Jan                                                                           150                                
PRCFAMCHA111101065301065333000032FOD (HD) Family.ca New Look (Oct2011) (2-3x per da                                                                          150                                
PROFAMCHA111101065333065403000030RP TOYS                                                                                                                     150                                
PROFAMCHA111101065403065421000018SLOD (HD) Mommy Clip - This Morning @ 7:25 (May 20                                                                          150                                
PGRFAMCHA111101065421065534000113Synergy (HD) Princess Makeover - The Story Begins                                                                      60685120                                
PROFAMCHA111101065534065618000044Hannah (HD) Refresh - This Morning @ 7:50am (May20                                                                          150                                
PROFAMCHA111101065618065703000045Universal Music                                                                                                             150                                
PROFAMCHA111101065703065748000045So Random (HD) Talent Promo Retag - New Episode To                                                                          150                                
PROFAMCHA111101065748065823000035Phineas&Ferb (HD) Candace - Coming Up Next (June20                                                                          150                                
PROFAMCHA111101065823065913000050Disney Interactive                                                                                                          150                                
PROFAMCHA111101065913065943000030Geek Charming (HD) 30s - Premieres Friday Nov 11 @                                                                          150                                
PRCFAMCHA111101065943070001000018Family Bumper (HD) - Dominoes ID (Jan 2011)                                                                                 150                                
PGRFAMCHA111101070001072233002232Disney Phineas & Ferb                             EP: 23                                                               6068607ECC                              
ID FAMCHA111101072233072239000006Astral ID (HD) 50th Anniversary ID (Aug31-Dec31)                                                                            150                                
PROFAMCHA111101072239072250000011LU - 02 - SLOD/HANNAH 7:50am (HD) (:9 - :11) Jan 2                                                                          150                                
PRCFAMCHA111101072250072332000042BAW Stand Up Event Spot #1 (HD) - Monday November                                                                           150                                
PROFAMCHA111101072332072407000035Kellogg's                                                                                                                   150                                
PROFAMCHA111101072407072421000014SLOD (HD) S2 GENERIC - Coming Up Next (Jan2011)                                                                             150                                
PROFAMCHA111101072421072451000030Good Luck Charlie DCOM (HD) Trailer Cutdown - Comi                                                                          150                                
PRCFAMCHA111101072451072502000011Family Bumper (HD) - Bobbleheads ID (Jan 2011)                                                                              150                                
PGRFAMCHA111101072502072647000145The Suite Life on Deck                            EP: 05                                                               6068807BCC                              
PGRFAMCHA111101072647073549000902The Suite Life on Deck                            EP: 05                                                               6068807BCC                              
PGRFAMCHA111101073549074232000643The Suite Life on Deck                            EP: 05                                                               6068807BCC                              
PGRFAMCHA111101074232074803000531The Suite Life on Deck                            EP: 05                                                               6068807BCC                              
PROFAMCHA111101074803074814000011LU - 03 - HANNAH/PHINEAS 8:15am (HD) (:9 - :11) Ja                                                                          150                                
PROFAMCHA111101074814074844000030Disney XD (HD) Kickin' It Character Sell - Saturda                                                                          150                                
PROFAMCHA111101074844074929000045Walt Disney Studios Home Entertainment                                                                                      150                                
PROFAMCHA111101074929074949000020Hannah (HD) Wig Off - Coming Up Next (Jan2011)                                                                              150                                
PROFAMCHA111101074949075039000050Nintendo                                                                                                                    150                                
PROFAMCHA111101075039075102000023xHigh School Musical (HD) Popcorn Pix - Saturday @                                                                          150                                
PRCFAMCHA111101075102075111000009Family Bumper (HD) - Dragonflies ID (Jan 2011)                                                                              150                                
PGRFAMCHA111101075111081343002232Hannah Montana                                    EP: 05                                                               6068707BCC                              
ID FAMCHA111101081343081349000006Astral ID (HD) 50th Anniversary ID (Aug31-Dec31)                                                                            150                                
PROFAMCHA111101081349081400000011LU - 04 - PHINEAS AND FERB (HD) (:9 - :11) Jan 201                                                                          150                                
PROFAMCHA111101081400081430000030Disney XD (HD) Kick Buttowski Dwight Howard Stunt                                                                           150                                
PROFAMCHA111101081430081505000035Kellogg's                                                                                                                   150                                
PROFAMCHA111101081505081540000035Phineas&Ferb (HD) Candace - Coming Up Next (June20                                                                          150                                
PROFAMCHA111101081540081625000045The Walt Disney Company                                                                                                     150                                
PROFAMCHA111101081625081655000030Geek Charming (HD) Pop Sell - Premieres Friday Nov                                                                          150                                
PRCFAMCHA111101081655081716000021Family Bumper (HD) - Wallpaper ID (Jan 2011)                                                                                150                                
PGRFAMCHA111101081716083950002234Disney Phineas and Ferb                           EP: 06                                                               6068607ECC                              
PROFAMCHA111101083950084020000030D-JR Icon Story - Strawberry Shortcake - Seesaw Pa                                                                          150                                
PROFAMCHA111101084020084050000030D-JR Promo - On demand online REVISED - D-JR.ca (M                                                                          150                                
PROFAMCHA111101084050084140000050The Walt Disney Company                                                                                                     150                                
PROFAMCHA111101084140084210000030Stella and Sam - Get more Stella & Sam on D-JR the                                                                          150                                
PROFAMCHA111101084210084240000030D-JR - Standalone ID - Clouds (May2011)                                                                                     150                                
PROFAMCHA111101084240084315000035D-JR Promo - Handy Manny - Get more on the channel                                                                          150                                
PROFAMCHA111101084315084345000030D-JR Promo - MMCH - Get more MMCH on D-JR the chan                                                                          150                                
PROFAMCHA111101084345084415000030D-JR Icon Story - Strawberry Shortcake - Seesaw Pa                                                                          150                                
PROFAMCHA111101084415084421000006D-JR - Bumper 4 (May2011)                                                                                                   150                                
PGRFAMCHA111101084421090622002201Strawberry Shortcake                              EP: 15                                                               2068605ACC                              
ID FAMCHA111101090622090628000006Astral ID (HD) 50th Anniversary ID (Aug31-Dec31)                                                                            150                                
PROFAMCHA111101090628090659000031D-JR Icon Story - Mickey Mouse Clubhouse - Silly S                                                                          150                                
PROFAMCHA111101090659090724000025D-JR Promo - JATNP - Get more on the channel REV (                                                                          150                                
PROFAMCHA111101090724090730000006D-JR - Short Open (:06) (May2011)                                                                                           150                                
PROFAMCHA111101090730090928000158PH-D Short - Can You...Alligator Manners S1 - 10 -                                                                          150                                
PROFAMCHA111101090928090934000006D-JR - Short Close (:06) (May2011)                                                                                          150                                
PROFAMCHA111101090934091004000030D-JR Icon Story - Mickey Mouse Clubhouse - Silly S                                                                          150                                
PROFAMCHA111101091004091011000007D-JR - Station ID (:07) (May2011)                                                                                           150                                
PGRFAMCHA111101091011093413002402Disney's Mickey Mouse Clubhouse                   EP: 39                                                               6068605ACC                              
PROFAMCHA111101093413093445000032D-JR Icon Story - JATNLP - Maze Part 1 - Coming Up                                                                          150                                
PROFAMCHA111101093445093515000030D-JR Promo - On demand online REVISED - D-JR.ca (M                                                                          150                                
PROFAMCHA111101093515093545000030Stella and Sam - Get more Stella & Sam on D-JR the                                                                          150                                
PROFAMCHA111101093545093616000031D-JR Icon Story - JATNLP - Maze Part 2 - Now (May                                                                           150                                
PROFAMCHA111101093616093622000006D-JR - Bumper 6 (May2011)                                                                                                   150                                
PGRFAMCHA111101093622100028002406Disney Jake and the Never Land Pirates            EP: 20                                                               6068605ACC                              
ID FAMCHA111101100028100034000006Astral ID (HD) 50th Anniversary ID (Aug31-Dec31)                                                                            150                                
PROFAMCHA111101100034100104000030D-JR Icon Story - Mickey Mouse Clubhouse - Seesaw                                                                           150                                
PROFAMCHA111101100104100139000035D-JR Promo - Handy Manny - Get more on the channel                                                                          150                                
PROFAMCHA111101100139100209000030D-JR - Standalone ID - Regal (May2011)                                                                                      150                                
PROFAMCHA111101100209100239000030Stella and Sam - Get more Stella & Sam on D-JR the                                                                          150                                
PROFAMCHA111101100239100309000030D-JR Icon Story - Mickey Mouse Clubhouse - Seesaw                                                                           150                                
PROFAMCHA111101100309100318000009D-JR - Station ID (:09) (May2011)                                                                                           150                                
PGRFAMCHA111101100318102719002401Disney's Mickey Mouse Clubhouse                   EP: 06                                                               6068605ACC                              
PROFAMCHA111101102719102751000032D-JR Icon Story - Handy Manny - Silly Song Part 1                                                                           150                                
PROFAMCHA111101102751102821000030D-JR Promo - On demand online REVISED - D-JR.ca (M                                                                          150                                
PROFAMCHA111101102821102851000030D-JR Promo - MMCH - Get more MMCH on D-JR the chan                                                                          150                                
PROFAMCHA111101102851102922000031D-JR Icon Story - Handy Manny - Silly Song Part 2                                                                           150                                
PROFAMCHA111101102922102928000006D-JR - Bumper 8 (May2011)                                                                                                   150                                
PGRFAMCHA111101102928105328002400Handy Manny                                       EP: 19                                                               6068605ACC                              
ID FAMCHA111101105328105334000006Astral ID (HD) 50th Anniversary ID (Aug31-Dec31)                                                                            150                                
PROFAMCHA111101105334105345000011LU - 05 - SLZC/SLZC 11:30am (HD) (:9 - :11) Jan 20                                                                          150                                
PROFAMCHA111101105345105415000030Good Luck Charlie DCOM (HD) Trailer Cutdown - Comi                                                                          150                                
PROFAMCHA111101105415105445000030RP TOYS                                                                                                                     150                                
PROFAMCHA111101105445105515000030xWOWP (HD) Spellbook - Today @ Noon (Oct2011)                                                                               150                                
PGRFAMCHA111101105515105749000234Phineas & Ferb Take Twos S2  (HD) David Beckham (S                                                                     60688120                                
PROFAMCHA111101105749105810000021Wingin It (HD) Season 2 Promo - New Episode Saturd                                                                          150                                
PROFAMCHA111101105810105844000034SLOZ+C (HD) Refresh May10 - Coming Up Next (Jan201                                                                          150                                
PROFAMCHA111101105844105914000030Family Fave-Off (HD) Best Pranks - Starts Tonight                                                                           150                                
PRCFAMCHA111101105914105930000016Family Bumper (HD) - Hot Potato ID (Jan 2011)                                                                               150                                
ID FAMCHA111101105930105935000005xMagic of Disney Bumper (HD)(:5-:6) (Jan 2011)                                                                              150                                
PGRFAMCHA111101105935110148000213The Suite Life of Zack and Cody                   EP: 19                                                               6068607BCC                              
PGRFAMCHA111101110148110833000645The Suite Life of Zack and Cody                   EP: 19                                                               6068607BCC                              
PGRFAMCHA111101110833112107001234The Suite Life of Zack and Cody                   EP: 19                                                               6068607BCC                              
PGRFAMCHA111101112107112215000108The Suite Life of Zack and Cody                   EP: 19                                                               6068607BCC                              
PROFAMCHA111101112215112226000011LU - 06 - SLZC/WIZARDS 12pm (HD) (:9 - :11) Jan 20                                                                          150                                
PROFAMCHA111101112226112256000030Disney XD (HD) Zeke & Luther - Catch it on DXD (wi                                                                          150                                
PROFAMCHA111101112256112346000050Nintendo                                                                                                                    150                                
PROFAMCHA111101112346112400000014xWOWP (HD) Alex S3 GENERIC - Today @ Noon (Jan2011                                                                          150                                
PROFAMCHA111101112400112444000044xHannah (HD) Refresh - This Afternoon @ 12:30 (May                                                                          150                                
PROFAMCHA111101112444112524000040Good Luck Charlie (HD) Refresh - This Afternoon @                                                                           150                                
PROFAMCHA111101112524112611000047xShake It Up (HD) Dance Retag - New Episode Friday                                                                          150                                
PGRFAMCHA111101112611112724000113Wingin It Interstitials  (HD) About New Episodes (                                                                     60688120                                
PROFAMCHA111101112724112758000034SLOZ+C (HD) Refresh May10 - Coming Up Next (Jan201                                                                          150                                
PROFAMCHA111101112758112843000045Universal Music                                                                                                             150                                
PROFAMCHA111101112843112913000030Geek Charming (HD) 30s - Premieres Friday Nov 11 @                                                                          150                                
PRCFAMCHA111101112913112928000015Family Bumper (HD) - Horseshoe ID (Jan 2011)                                                                                150                                
ID FAMCHA111101112928112933000005xMagic of Disney Bumper (HD)(:5-:6) (Jan 2011)                                                                              150                                
PGRFAMCHA111101112933113223000250The Suite Life of Zack and Cody                   EP: 20                                                               6068607BCC                              
PGRFAMCHA111101113223113838000615The Suite Life of Zack and Cody                   EP: 20                                                               6068607BCC                              
PGRFAMCHA111101113838114407000529The Suite Life of Zack and Cody                   EP: 20                                                               6068607BCC                              
PGRFAMCHA111101114407115211000804The Suite Life of Zack and Cody                   EP: 20                                                               6068607BCC                              
ID FAMCHA111101115211115217000006Astral ID (HD) 50th Anniversary ID (Aug31-Dec31)                                                                            150                                
PROFAMCHA111101115217115228000011LU - 07 - WIZARDS/HANNAH 12:30pm (HD) (:9 - :11) J                                                                          150                                
PRCFAMCHA111101115228115300000032FOD (HD) Family.ca New Look (Oct2011) (2-3x per da                                                                          150                                
PROFAMCHA111101115300115400000100Ubisoft                                                                                                                     150                                
PROFAMCHA111101115400115420000020Hannah (HD) Wig Off - This Afternoon @ 12:30 (Jan2                                                                          150                                
PROFAMCHA111101115420115532000112xSWAC (HD) Repack - Weekday Afternoons @ 1pm (Sept                                                                          150                                
PROFAMCHA111101115532115616000044ANT Farm (HD) Sister Sell - New Episode Friday Nig                                                                          150                                
PROFAMCHA111101115616115745000129Good Luck Charlie DCOM (HD) Trailer - Coming This                                                                           150                                
PROFAMCHA111101115745115816000031Fish Hooks (HD) Generic 2 Retag - New Episode Sund                                                                          150                                
PROFAMCHA111101115816115846000030D-JR Promo - MMCH - Get more MMCH on D-JR the chan                                                                          150                                
PROFAMCHA111101115846115916000030xWOWP (HD) Spellbook - Coming Up Next (Oct2011)                                                                             150                                
PRCFAMCHA111101115916115932000016Family Bumper (HD) - Hot Potato ID (Jan 2011)                                                                               150                                
PGRFAMCHA111101115932122221002249Disney Wizards of Waverly Place                   EP: 16                                                               6068507BCC                              
PROFAMCHA111101122221122232000011LU - 08 - HANNAH/SWAC @ 1:00pm (HD) (:9 - :11) Sep                                                                          150                                
PRCFAMCHA111101122232122314000042BAW Stand Up Event Spot #1 (HD) - Monday November                                                                           150                                
PROFAMCHA111101122314122414000100Ubisoft                                                                                                                     150                                
PROFAMCHA111101122414122526000112xSWAC (HD) Repack - This Afternoon @ 1pm (Sept 201                                                                          150                                
PROFAMCHA111101122526122544000018SLOD (HD) Mommy Clip Retag - This Afternoon @ 2 (S                                                                          150                                
PROFAMCHA111101122544122714000130ME: Puss In Boots (HD) Story 1 - Now Playing (Oct2                                                                          150                                
PROFAMCHA111101122714122734000020Good Luck Charlie (HD) DuncanBallet - This Afterno                                                                          150                                
PROFAMCHA111101122734122806000032Phineas & Ferb DCOM (HD) Popcorn Pix  - Friday @ 8                                                                          150                                
PROFAMCHA111101122806122850000044xHannah (HD) Refresh - Coming Up Next (May2011)                                                                             150                                
PROFAMCHA111101122850122920000030Disney XD (HD) Kick Buttowski Dwight Howard Stunt                                                                           150                                
PRCFAMCHA111101122920122933000013Family Bumper (HD) - Karate ID (Jan 2011)                                                                                   150                                
PGRFAMCHA111101122933125137002204Hannah Montana                                    EP: 07                                                               6068707BCC                              
ID FAMCHA111101125137125143000006Astral ID (HD) 50th Anniversary ID (Aug31-Dec31)                                                                            150                                
PROFAMCHA111101125143125154000011LU - 09 - SWAC/Cory @ 1:30pm (HD) (:9 - :11) Sept2                                                                          150                                
PROFAMCHA111101125154125224000030Family Fave-Off (HD) Best Pranks - Starts Tonight                                                                           150                                
PROFAMCHA111101125224125259000035Kellogg's                                                                                                                   150                                
PROFAMCHA111101125259125313000014Cory in the House (HD) Retag - This Afternoon @ 1:                                                                          150                                
PGRFAMCHA111101125313125717000404MV Non Disney (HD) Mindless Behavior - Mrs. Right                                                                      10615120                                
PROFAMCHA111101125717125737000020Phineas&Ferb (HD) Fall Sell Retag - This Afternoon                                                                          150                                
PROFAMCHA111101125737125758000021Wingin It (HD) Season 2 Promo - New Episode Saturd                                                                          150                                
PROFAMCHA111101125758125828000030Stella and Sam - Get more Stella & Sam on D-JR the                                                                          150                                
PROFAMCHA111101125828125913000045xSWAC (HD) Made Up Show - Coming Up Next (Jan2011)                                                                          150                                
PROFAMCHA111101125913125936000023xHigh School Musical (HD) Popcorn Pix - Saturday @                                                                          150                                
PRCFAMCHA111101125936125944000008Family Bumper (HD) - Origami ID (Jan 2011)                                                                                  150                                
PGRFAMCHA111101125944132234002250Sonny With A Chance                               EP: 21                                                               6068607BCC                              
PROFAMCHA111101132234132245000011LU - 10 - Cory/SLOD @ 2:00pm (HD) (:9 - :11) Sept2                                                                          150                                
PROFAMCHA111101132245132315000030Disney XD (HD) Kickin' It Character Sell - Saturda                                                                          150                                
PROFAMCHA111101132315132405000050Nintendo                                                                                                                    150                                
PROFAMCHA111101132405132423000018SLOD (HD) Mommy Clip Retag - This Afternoon @ 2 (S                                                                          150                                
PGRFAMCHA111101132423132810000347MV Non Disney (HD) Cody Simpson - All Day (May 17                                                                      10615120                                
PROFAMCHA111101132810132857000047xShake It Up (HD) Dance Retag -Tonight @ 7:00 (Jul                                                                          150                                
PROFAMCHA111101132857132916000019xCory In The House (HD) Sophie - Coming Up Next (J                                                                          150                                
PROFAMCHA111101132916132946000030Geek Charming (HD) Pop Sell - Premieres Friday Nov                                                                          150                                
PRCFAMCHA111101132946132956000010Family Bumper (HD) - Satelite ID (Jan 2011)                                                                                 150                                
PGRFAMCHA111101132956133238000242Disney Cory in the House                          EP: 21                                                               6068607BCC                              
PGRFAMCHA111101133238134001000723Disney Cory in the House                          EP: 21                                                               6068607BCC                              
PGRFAMCHA111101134001135046001045Disney Cory in the House                          EP: 21                                                               6068607BCC                              
PGRFAMCHA111101135046135227000141Disney Cory in the House                          EP: 21                                                               6068607BCC                              
ID FAMCHA111101135227135233000006Astral ID (HD) 50th Anniversary ID (Aug31-Dec31)                                                                            150                                
PROFAMCHA111101135233135244000011LU - 11 - SLOD/Neds @ 2:30pm (HD) (:9 - :11) Sept2                                                                          150                                
PROFAMCHA111101135244135316000032Phineas & Ferb DCOM (HD) Popcorn Pix  - Friday @ 8                                                                          150                                
PROFAMCHA111101135316135401000045The Walt Disney Company                                                                                                     150                                
PROFAMCHA111101135401135437000036xNed's DSSG (HD) School Tour - This Afternoon @ 2:                                                                          150                                
PGRFAMCHA111101135437135750000313MV Non Disney (HD) Greyson Chance - Unfriend You (                                                                     10615120                                
PROFAMCHA111101135750135820000030xWOWP (HD) Spellbook - This Afternoon @ 5:00 (Oct2                                                                          150                                
PROFAMCHA111101135820135904000044ANT Farm (HD) Sister Sell - New Episode Friday Nig                                                                          150                                
PROFAMCHA111101135904135929000025D-JR Promo - JATNP - Get more on the channel REV (                                                                          150                                
PROFAMCHA111101135929135943000014SLOD (HD) S2 GENERIC - Coming Up Next (Jan2011)                                                                             150                                
PRCFAMCHA111101135943135953000010Family Bumper (HD) - Amoeba ID (Jan 2011)                                                                                   150                                
PGRFAMCHA111101135953142225002232The Suite Life on Deck                            EP: 21                                                               6068607BCC                              
PROFAMCHA111101142225142236000011LU - 12 - NED'S/DEREK 3pm (HD) (:9 - :11) Jan 2011                                                                          150                                
PROFAMCHA111101142236142306000030Disney XD (HD) I'm In the Band - Catch it on DXD (                                                                          150                                
PROFAMCHA111101142306142336000030RP TOYS                                                                                                                     150                                
PROFAMCHA111101142336142409000033xLife W D (HD) Undercover REV - This Afternoon @ 3                                                                          150                                
PROFAMCHA111101142409142444000035Phineas&Ferb (HD) Candace - This Afternoon @ 4:00                                                                           150                                
PROFAMCHA111101142444142514000030Pair Of Kings (HD) Kings Speak - Tonight @ 8:30 (J                                                                          150                                
PROFAMCHA111101142514142559000045So Random (HD) Talent Promo Retag - New Episode Fr                                                                          150                                
PGRFAMCHA111101142559142722000123Wingin It Interstitials  (HD) Demetris Joyette (Sa                                                                     60688120                                
PROFAMCHA111101142722142752000030Really Me (HD) Generic - Weekend Nights @ 6:30 (Ap                                                                          150                                
PROFAMCHA111101142752142823000031Fish Hooks (HD) Generic 2 Retag - New Episode Sund                                                                          150                                
PROFAMCHA111101142823142859000036xNed's DSSG (HD) School Tour - Coming Up Next (Jan                                                                          150                                
PROFAMCHA111101142859142929000030Good Luck Charlie DCOM (HD) Trailer Cutdown - Comi                                                                          150                                
PRCFAMCHA111101142929142950000021Family Bumper (HD) - Wallpaper ID (Jan 2011)                                                                                150                                
PGRFAMCHA111101142950143635000645Ned's Declassified School Survival Guide          EP: 32                                                               2068807BCC                              
PGRFAMCHA111101143635144138000503Ned's Declassified School Survival Guide          EP: 32                                                               2068807BCC                              
PGRFAMCHA111101144138144654000516Ned's Declassified School Survival Guide          EP: 32                                                               2068807BCC                              
PGRFAMCHA111101144654145405000711Ned's Declassified School Survival Guide          EP: 32                                                               2068807BCC                              
ID FAMCHA111101145405145411000006Astral ID (HD) 50th Anniversary ID (Aug31-Dec31)                                                                            150                                
PROFAMCHA111101145411145422000011LU - 13 - DEREK/SLZC 3:30pm (HD) (:9 - :11) Jan 20                                                                          150                                
PRCFAMCHA111101145422145454000032FOD (HD) Family.ca New Look (Oct2011) (2-3x per da                                                                          150                                
PROFAMCHA111101145454145554000100Ubisoft                                                                                                                     150                                
PROFAMCHA111101145554145628000034SLOZ+C (HD) Refresh May10 - This Afternoon @ 3:30                                                                           150                                
PROFAMCHA111101145628145758000130ME: Three Muskateers (HD) Story 1 - Now Playing (O                                                                          150                                
PROFAMCHA111101145758145818000020Good Luck Charlie (HD) DuncanBallet - This Afterno                                                                          150                                
PROFAMCHA111101145818145853000035D-JR Promo - Handy Manny - Get more on the channel                                                                          150                                
PROFAMCHA111101145853145926000033xLife W D (HD) Undercover REV - Coming Up Next (Ja                                                                          150                                
PROFAMCHA111101145926145956000030Geek Charming (HD) 30s - Premieres Friday Nov 11 @                                                                          150                                
PRCFAMCHA111101145956150007000011Family Bumper (HD) - Bobbleheads ID (Jan 2011)                                                                              150                                
PGRFAMCHA111101150007152240002233Life with Derek                                   EP: 16                                                        C26679A1065607BCC                              
PROFAMCHA111101152240152251000011LU - 14 - SLZC/PHINEAS 4pm (HD) (:9 - :11) Jan 201                                                                          150                                
PROFAMCHA111101152251152327000036Disney XD (HD) DXD Image Spot - DXD Is...(with Cha                                                                          150                                
PROFAMCHA111101152327152417000050Sony Pictures                                                                                                               150                                
PROFAMCHA111101152417152437000020Phineas&Ferb (HD) Fall Sell Retag - This Afternoon                                                                          150                                
PROFAMCHA111101152437152507000030Pair Of Kings (HD) Kings Speak - Tonight @ 8:30 (J                                                                          150                                
PROFAMCHA111101152507152636000129Good Luck Charlie DCOM (HD) Trailer - Coming This                                                                           150                                
PROFAMCHA111101152636152716000040DEBRA! (HD) Refresh Retag - Tonight @ 9:00 (Jul201                                                                          150                                
PROFAMCHA111101152716152803000047xShake It Up (HD) Dance Retag - New Episode Friday                                                                          150                                
PROFAMCHA111101152803152837000034SLOZ+C (HD) Refresh May10 - Coming Up Next (Jan201                                                                          150                                
PROFAMCHA111101152837152922000045Paramount Pictures                                                                                                          150                                
PROFAMCHA111101152922152952000030Family Fave-Off (HD) Best Pranks - Starts Tonight                                                                           150                                
PRCFAMCHA111101152952153010000018Family Bumper (HD) - Dominoes ID (Jan 2011)                                                                                 150                                
ID FAMCHA111101153010153015000005xMagic of Disney Bumper (HD)(:5-:6) (Jan 2011)                                                                              150                                
PGRFAMCHA111101153015155229002214The Suite Life of Zack and Cody                   EP: 18                                                               6068607BCC                              
ID FAMCHA111101155229155235000006Astral ID (HD) 50th Anniversary ID (Aug31-Dec31)                                                                            150                                
PROFAMCHA111101155235155246000011LU - 15 - PHINEAS/PHINEAS 4:30pm (HD) (:9 - :11) J                                                                          150                                
PRCFAMCHA111101155246155328000042BAW Stand Up Event Spot #1 (HD) - Monday November                                                                           150                                
PROFAMCHA111101155328155403000035Kellogg's                                                                                                                   150                                
PROFAMCHA111101155403155433000030xWOWP (HD) Spellbook - This Afternoon @ 5:00 (Oct2                                                                          150                                
PROFAMCHA111101155433155520000047xShake It Up (HD) Dance Retag -Tonight @ 7:00 (Jul                                                                          150                                
PROFAMCHA111101155520155541000021Wingin It (HD) Season 2 Promo - New Episode Saturd                                                                          150                                
PGRFAMCHA111101155541155812000231Phineas & Ferb Take Twos S2  (HD) Miss Piggy (Sept                                                                     60688120                                
PROFAMCHA111101155812155847000035Phineas&Ferb (HD) Candace - Coming Up Next (June20                                                                          150                                
PROFAMCHA111101155847155932000045Walt Disney Studios Home Entertainment                                                                                      150                                
PROFAMCHA111101155932155955000023xHigh School Musical (HD) Popcorn Pix - Saturday @                                                                          150                                
PRCFAMCHA111101155955160004000009Family Bumper (HD) - Dragonflies ID (Jan 2011)                                                                              150                                
PGRFAMCHA111101160004162236002232Disney Phineas and Ferb                           EP: 07                                                               6068607ECC                              
PROFAMCHA111101162236162247000011LU - 16 - PHINEAS/WIZARDS 5pm (HD) (:9 - :11) Jan                                                                           150                                
PROFAMCHA111101162247162317000030Family Fave-Off (HD) Best Pranks - Starts Tonight                                                                           150                                
PROFAMCHA111101162317162402000045Walt Disney Studios Home Entertainment                                                                                      150                                
PROFAMCHA111101162402162442000040Good Luck Charlie (HD) Refresh - This Afternoon @                                                                           150                                
PGRFAMCHA111101162442162818000336MV Non Disney (HD) Cody Simpson - On My Mind (Jul                                                                      10615120                                
PROFAMCHA111101162818162858000040DEBRA! (HD) Refresh Retag - Tonight @ 9:00 (Jul201                                                                          150                                
PROFAMCHA111101162858162933000035Phineas&Ferb (HD) Candace - Coming Up Next (June20                                                                          150                                
PROFAMCHA111101162933163003000030Disney XD (HD) Kick Buttowski Dwight Howard Stunt                                                                           150                                
PRCFAMCHA111101163003163017000014Family Bumper (HD) - Drums ID (Jan 2011)                                                                                    150                                
PGRFAMCHA111101163017165251002234Disney Phineas & Ferb                             EP: 27                                                               6068607ECC                              
ID FAMCHA111101165251165257000006Astral ID (HD) 50th Anniversary ID (Aug31-Dec31)                                                                            150                                
PROFAMCHA111101165257165308000011LU - 17 - WOWP/GLC @ 5:30pm (HD) (:9 - :11) Sept20                                                                          150                                
PROFAMCHA111101165308165338000030Good Luck Charlie DCOM (HD) Trailer Cutdown - Comi                                                                          150                                
PROFAMCHA111101165338165428000050Disney Interactive                                                                                                          150                                
PROFAMCHA111101165428165446000018SLOD (HD) Mommy Clip - Tonight @ 8 (May 2011)                                                                               150                                
PROFAMCHA111101165446165616000130ME: Puss In Boots (HD) Story 2 - Now Playing (Oct2                                                                          150                                
PROFAMCHA111101165616165646000030Shake It Up (HD) Repack - New Episode Friday Night                                                                          150                                
PGRFAMCHA111101165646165759000113Wingin It Interstitials  (HD) About New Episodes (                                                                     60688120                                
PROFAMCHA111101165759165844000045Really Me (HD) Julia - Weekend Nights @ 6:30 (July                                                                          150                                
PROFAMCHA111101165844165914000030xWOWP (HD) Spellbook - Coming Up Next (Oct2011)                                                                             150                                
PRCFAMCHA111101165914165956000042BAW Stand Up Event Spot #1 (HD) - Monday November                                                                           150                                
PRCFAMCHA111101165956170013000017Family Bumper (HD) - Fashion ID (Jan 2011)                                                                                  150                                
PGRFAMCHA111101170013172244002231Disney Wizards of Waverly Place                   EP: 18                                                               6068507BCC                              
PROFAMCHA111101172244172314000030Family Fave-Off (HD) Best Pranks - Starts Tonight                                                                           150                                
PROFAMCHA111101172314172404000050Nintendo                                                                                                                    150                                
PROFAMCHA111101172404172434000030Pair Of Kings (HD) Repack - Tonight @ 8:30 (May201                                                                          150                                
PGRFAMCHA111101172434172838000404MV Non Disney (HD) Mindless Behavior - Mrs. Right                                                                      10615120                                
PROFAMCHA111101172838172859000021Wingin It (HD) Season 2 Promo - Tonight @ 9:30pm (                                                                          150                                
PROFAMCHA111101172859172931000032Phineas & Ferb DCOM (HD) Popcorn Pix  - Friday @ 8                                                                          150                                
PROFAMCHA111101172931172937000006Good Luck Charlie (HD) ID - Bradley Perry 2 "Comin                                                                          150                                
PROFAMCHA111101172937173007000030Disney XD (HD) Zeke & Luther - Catch it on DXD (wi                                                                          150                                
PRCFAMCHA111101173007173022000015Family Bumper (HD) - Horseshoe ID (Jan 2011)                                                                                150                                
PGRFAMCHA111101173022175327002305Disney Good Luck Charlie                          EP: 13                                                               6068807BCC                              
ID FAMCHA111101175327175333000006Astral ID (HD) 50th Anniversary ID (Aug31-Dec31)                                                                            150                                
PROFAMCHA111101175333175403000030Geek Charming (HD) Pop Sell - Premieres Friday Nov                                                                          150                                
PROFAMCHA111101175403175503000100Ubisoft                                                                                                                     150                                
PROFAMCHA111101175503175526000023GLC/SIU (HD) Monday to Thurday Nights Starting @ 7                                                                          150                                
PROFAMCHA111101175526175656000130ME: Three Muskateers (HD) Story 1 - Now Playing (O                                                                          150                                
PROFAMCHA111101175656175710000014SLOD (HD) S2 GENERIC - Tonight @ 8pm (Jan2011)                                                                              150                                
PROFAMCHA111101175710175745000035Kellogg's                                                                                                                   150                                
PROFAMCHA111101175745175845000100xPrank Stars (HD) REV Coming Up Next (Sept2011)                                                                             150                                
PROFAMCHA111101175845175935000050Nintendo                                                                                                                    150                                
PROFAMCHA111101175935180005000030Family Fave-Off (HD) Best Pranks - Coming Up Next                                                                           150                                
PRCFAMCHA111101180005180021000016Family Bumper (HD) - Hot Potato ID (Jan 2011)                                                                               150                                
PGRFAMCHA111101180021182256002235Disney PrankStars                                 EP: 02                                                               6028807BCC                              
PROFAMCHA111101182256182316000020Disney XD (HD) Kickin' It - Saturday Night @ 7:30                                                                           150                                
PROFAMCHA111101182316182406000050Nintendo                                                                                                                    150                                
PROFAMCHA111101182406182535000129Good Luck Charlie DCOM (HD) Trailer - Coming This                                                                           150                                
PROFAMCHA111101182535182619000044ANT Farm (HD) Sister Sell - New Episode Friday Nig                                                                          150                                
PROFAMCHA111101182619182709000050E One Films - Family/Home Entertainment                                                                                     150                                
PRCFAMCHA111101182709182754000045WUW (HD) Series Promo - Sunday Morning @ 9:30 (Mar                                                                          150                                
PROFAMCHA111101182754182829000035Hasbro                                                                                                                      150                                
PROFAMCHA111101182829182929000100xPrank Stars (HD) REV Coming Up Next (Sept2011)                                                                             150                                
PRCFAMCHA111101182929182942000013Family Bumper (HD) - Karate ID (Jan 2011)                                                                                   150                                
PGRFAMCHA111101182942185217002235Disney PrankStars                                 EP: 06                                                               6028807BCC                              
PROFAMCHA111101185217185228000011LU - 20 - SIU/GLC @ 7:00pm (HD) Friday (:9 - :11)                                                                           150                                
PRCFAMCHA111101185228185300000032FOD (HD) Family.ca New Look (Oct2011) (2-3x per da                                                                          150                                
PROFAMCHA111101185300185350000050Disney Interactive                                                                                                          150                                
PROFAMCHA111101185350185410000020Good Luck Charlie (HD) DuncanBallet - Tonight @ 7:                                                                          150                                
PGRFAMCHA111101185410185644000234Phineas & Ferb Take Twos S2  (HD) David Beckham (S                                                                     60688120                                
PROFAMCHA111101185644185705000021Wingin It (HD) Season 2 Promo - Tonight @ 9:30pm (                                                                          150                                
PROFAMCHA111101185705185750000045Walt Disney Studios Home Entertainment                                                                                      150                                
PROFAMCHA111101185750185820000030Shake It Up (HD) Repack - Coming Up Next (May2011)                                                                          150                                
PROFAMCHA111101185820185910000050Nintendo                                                                                                                    150                                
PROFAMCHA111101185910185933000023xHigh School Musical (HD) Popcorn Pix - Saturday @                                                                          150                                
PRCFAMCHA111101185933185941000008Family Bumper (HD) - Origami ID (Jan 2011)                                                                                  150                                
PGRFAMCHA111101185941192214002233Disney Shake It Up                                EP: 04                                                               6068707BCC                              
PROFAMCHA111101192214192225000011LU - 22 - GLC/SLOD @ 8:00pm (HD) (:9 - :11) Sept20                                                                          150                                
PRCFAMCHA111101192225192307000042BAW Stand Up Event Spot #1 (HD) - Monday November                                                                           150                                
PROFAMCHA111101192307192357000050Sony Pictures                                                                                                               150                                
PROFAMCHA111101192357192411000014SLOD (HD) S2 GENERIC - Tonight @ 8pm (Jan2011)                                                                              150                                
PGRFAMCHA111101192411192724000313MV Non Disney (HD) Greyson Chance - Unfriend You (                                                                     10615120                                
PROFAMCHA111101192724192756000032Phineas & Ferb DCOM (HD) Popcorn Pix  - Friday @ 8                                                                          150                                
PROFAMCHA111101192756192816000020Good Luck Charlie (HD) DuncanBallet - Coming Up Ne                                                                          150                                
PROFAMCHA111101192816192856000040Hasbro                                                                                                                      150                                
PROFAMCHA111101192856192926000030Disney XD (HD) Kick Buttowski Dwight Howard Stunt                                                                           150                                
PRCFAMCHA111101192926192936000010Family Bumper (HD) - Satelite ID (Jan 2011)                                                                                 150                                
PGRFAMCHA111101192936195211002235Disney Good Luck Charlie                          EP: 05                                                               6068807BCC                              
ID FAMCHA111101195211195217000006Astral ID (HD) 50th Anniversary ID (Aug31-Dec31)                                                                            150                                
PROFAMCHA111101195217195228000011LU - 23 - SLOD/POK @ 8:30pm (HD) (:9 - :11) Sept20                                                                          150                                
PROFAMCHA111101195228195258000030Geek Charming (HD) 30s - Premieres Friday Nov 11 @                                                                          150                                
PROFAMCHA111101195258195348000050Sony Pictures                                                                                                               150                                
PROFAMCHA111101195348195418000030Pair Of Kings (HD) Repack - Tonight @ 8:30 (May201                                                                          150                                
PROFAMCHA111101195418195533000115ME: Puss In Boots (HD) Story 3 - Now Playing (Oct2                                                                          150                                
PROFAMCHA111101195533195553000020Good Luck Charlie (HD) DuncanBallet - Tomorrow Aft                                                                          150                                
PROFAMCHA111101195553195623000030RP TOYS                                                                                                                     150                                
PROFAMCHA111101195623195643000020Phineas&Ferb (HD) Fall Sell Retag - Tomorrow After                                                                          150                                
PGRFAMCHA111101195643195806000123Wingin It Interstitials  (HD) Demetris Joyette (Sa                                                                     60688120                                
PROFAMCHA111101195806195906000100Ubisoft                                                                                                                     150                                
PROFAMCHA111101195906195920000014SLOD (HD) S2 GENERIC - Coming Up Next (Jan2011)                                                                             150                                
PRCFAMCHA111101195920195941000021Family Bumper (HD) - Wallpaper ID (Jan 2011)                                                                                150                                
PGRFAMCHA111101195941200151000210The Suite Life on Deck                            EP: 06                                                               6068807BCC                              
PGRFAMCHA111101200151201033000842The Suite Life on Deck                            EP: 06                                                               6068807BCC                              
PGRFAMCHA111101201033202105001032The Suite Life on Deck                            EP: 06                                                               6068807BCC                              
PGRFAMCHA111101202105202214000109The Suite Life on Deck                            EP: 06                                                               6068807BCC                              
PROFAMCHA111101202214202225000011LU - 24 - POK/DEBRA @ 9:00pm (HD) (:9 - :11) Sept2                                                                          150                                
PROFAMCHA111101202225202255000030Good Luck Charlie DCOM (HD) Trailer Cutdown - Comi                                                                          150                                
PROFAMCHA111101202255202340000045Paramount Pictures                                                                                                          150                                
PROFAMCHA111101202340202420000040DEBRA! (HD) Refresh Retag - Tonight @ 9:00 (Jul201                                                                          150                                
PGRFAMCHA111101202420202651000231Phineas & Ferb Take Twos S2  (HD) Miss Piggy (Sept                                                                     60688120                                
PROFAMCHA111101202651202723000032Wingin It (HD) Angel Retag - Tonight @ 9:30 (Jul20                                                                          150                                
PROFAMCHA111101202723202813000050Sony Pictures                                                                                                               150                                
PROFAMCHA111101202813202843000030Pair Of Kings (HD) Repack - Coming Up Next (May201                                                                          150                                
PROFAMCHA111101202843202918000035Kellogg's                                                                                                                   150                                
PROFAMCHA111101202918202948000030Disney XD (HD) I'm In the Band - Catch it on DXD (                                                                          150                                
PRCFAMCHA111101202948202957000009Family Bumper (HD) - Dragonflies ID (Jan 2011)                                                                              150                                
PGRFAMCHA111101202957205201002204Disney Pair of Kings                              EP: 05                                                               6068607BCC                              
ID FAMCHA111101205201205207000006Astral ID (HD) 50th Anniversary ID (Aug31-Dec31)                                                                            150                                
PROFAMCHA111101205207205218000011LU - 25 - DEBRA/Wingin It @ 9:30pm (HD) (:9 - :11)                                                                          150                                
PROFAMCHA111101205218205250000032Phineas & Ferb DCOM (HD) Popcorn Pix  - Friday @ 8                                                                          150                                
PROFAMCHA111101205250205325000035Kellogg's                                                                                                                   150                                
PROFAMCHA111101205325205410000045Elephant Princess (HD) Refresh - Tonight @ 10:00 (                                                                          150                                
PROFAMCHA111101205410205555000145ME: Three Muskateers (HD) Story 2 - Now Playing (O                                                                          150                                
PROFAMCHA111101205555205625000030xWOWP (HD) Spellbook - Weekdays @ Noon (Oct2011)                                                                            150                                
PROFAMCHA111101205625205645000020Good Luck Charlie (HD) DuncanBallet - Tomorrow Aft                                                                          150                                
PROFAMCHA111101205645205730000045So Random (HD) Boy Sell - New Episode Friday Night                                                                          150                                
PROFAMCHA111101205730205814000044ANT Farm (HD) Sister Sell - New Episode Friday Nig                                                                          150                                
PROFAMCHA111101205814205859000045Walt Disney Studios Home Entertainment                                                                                      150                                
PROFAMCHA111101205859205939000040DEBRA! (HD) Refresh - Coming Up Next (May2011)                                                                              150                                
PRCFAMCHA111101205939205950000011Family Bumper (HD) - Bobbleheads ID (Jan 2011)                                                                              150                                
PGRFAMCHA111101205950212224002234DEBRA!                                            EP: 04                                                        C35763 1055607ACD3                             
PROFAMCHA111101212224212235000011LU - 26 - Wingin It/Elephant Princess @ 10:00pm (H                                                                          150                                
PROFAMCHA111101212235212305000030Disney XD (HD) Kickin' It - Saturday Night @ 7:30                                                                           150                                
PGRFAMCHA111101212305212652000347MV Non Disney (HD) Cody Simpson - All Day (May 17                                                                      10615120                                
PROFAMCHA111101212652212710000018SLOD (HD) Mommy Clip - Tomorrow Morning @ 7:25 (Ma                                                                          150                                
PROFAMCHA111101212710212839000129Good Luck Charlie DCOM (HD) Trailer - Coming This                                                                           150                                
PROFAMCHA111101212839212900000021Wingin It (HD) Season 2 Promo - DENISE - Coming Up                                                                          150                                
PRCFAMCHA111101212900212942000042BAW Stand Up Event Spot #1 (HD) - Monday November                                                                           150                                
PRCFAMCHA111101212942213000000018Family Bumper (HD) - Dominoes ID (Jan 2011)                                                                                 150                                
PGRFAMCHA111101213000215230002230Wingin' It                                        EP: 08                                                        C32727 1055607ACD3                             
ID FAMCHA111101215230215236000006Astral ID (HD) 50th Anniversary ID (Aug31-Dec31)                                                                            150                                
PROFAMCHA111101215236215246000010LU - 27 - Elephant Princess/Raven @ 10:30pm (HD) (                                                                          150                                
PROFAMCHA111101215246215316000030Geek Charming (HD) Pop Sell - Premieres Friday Nov                                                                          150                                
PROFAMCHA111101215316215354000038xThat's So Raven (HD) Dance Retag - Tonight @ 10:3                                                                          150                                
PGRFAMCHA111101215354215758000404MV Non Disney (HD) Mindless Behavior - Mrs. Right                                                                      10615120                                
PRCFAMCHA111101215758215830000032FOD (HD) Family.ca New Look (Oct2011) (2-3x per da                                                                          150                                
PROFAMCHA111101215830215915000045xElephant Princess (HD) Refresh - Coming Up Next (                                                                          150                                
PROFAMCHA111101215915215947000032Phineas & Ferb DCOM (HD) Popcorn Pix  - Friday @ 8                                                                          150                                
PRCFAMCHA111101215947215957000010Family Bumper (HD) - Amoeba ID (Jan 2011)                                                                                   150                                
PGRFAMCHA111101215957222455002458The Elephant Princess                             EP: 13                                                               7068507ACC                              
PROFAMCHA111101222455222506000011LU - 28 - Raven/Neds @ 11:00pm (HD) (:9 - :11) Sep                                                                          150                                
PROFAMCHA111101222506222542000036Disney XD (HD) DXD Image Spot - DXD Is...(with Cha                                                                          150                                
PROFAMCHA111101222542222627000045The Walt Disney Company                                                                                                     150                                
PROFAMCHA111101222627222703000036xNed's DSSG (HD) School Tour Retag - Tonight @ 11:                                                                          150                                
PROFAMCHA111101222703222738000035Phineas&Ferb (HD) Candace - Tomorrow Morning @ 7:0                                                                          150                                
PROFAMCHA111101222738222818000040Good Luck Charlie (HD) Refresh - Tomorrow Afternoo                                                                          150                                
PROFAMCHA111101222818222843000025D-JR Promo - JATNP - Get more on the channel REV (                                                                          150                                
PROFAMCHA111101222843222921000038xThat's So Raven (HD) Dance Retag - Coming Up Next                                                                          150                                
PROFAMCHA111101222921222951000030Geek Charming (HD) 30s - Premieres Friday Nov 11 @                                                                          150                                
PRCFAMCHA111101222951223005000014Family Bumper (HD) - Drums ID (Jan 2011)                                                                                    150                                
ID FAMCHA111101223005223010000005xMagic of Disney Bumper (HD)(:5-:6) (Jan 2011)                                                                              150                                
PGRFAMCHA111101223010223627000617That's So Raven                                   EP: 071                                                              6068607BCC                              
PGRFAMCHA111101223627224209000542That's So Raven                                   EP: 071                                                              6068607BCC                              
PGRFAMCHA111101224209224849000640That's So Raven                                   EP: 071                                                              6068607BCC                              
PGRFAMCHA111101224849225247000358That's So Raven                                   EP: 071                                                              6068607BCC                              
ID FAMCHA111101225247225253000006Astral ID (HD) 50th Anniversary ID (Aug31-Dec31)                                                                            150                                
PROFAMCHA111101225253225304000011LU - 29 - Neds/Zoey @ 11:30pm (HD) (:9 - :11) Sept                                                                          150                                
PROFAMCHA111101225304225334000030Good Luck Charlie DCOM (HD) Trailer Cutdown - Comi                                                                          150                                
PROFAMCHA111101225334225418000044xHannah (HD) Refresh - Tomorrow Morning @ 7:50am (                                                                          150                                
PGRFAMCHA111101225418225731000313MV Non Disney (HD) Greyson Chance - Unfriend You (                                                                     10615120                                
PROFAMCHA111101225731225801000030xWOWP (HD) Spellbook - Weekdays @ Noon (Oct2011)                                                                            150                                
PROFAMCHA111101225801225848000047xShake It Up (HD) Dance Retag - New Episode Friday                                                                          150                                
PROFAMCHA111101225848225909000021Wingin It (HD) Season 2 Promo - Saturday Morning @                                                                          150                                
PROFAMCHA111101225909225945000036xNed's DSSG (HD) School Tour - Coming Up Next (Jan                                                                          150                                
PRCFAMCHA111101225945230002000017Family Bumper (HD) - Fashion ID (Jan 2011)                                                                                  150                                
PGRFAMCHA111101230002230648000646Ned's Declassified School Survival Guide          EP: 32                                                               2068807BCC                              
PGRFAMCHA111101230648231150000502Ned's Declassified School Survival Guide          EP: 32                                                               2068807BCC                              
PGRFAMCHA111101231150231706000516Ned's Declassified School Survival Guide          EP: 32                                                               2068807BCC                              
PGRFAMCHA111101231706232418000712Ned's Declassified School Survival Guide          EP: 32                                                               2068807BCC                              
PROFAMCHA111101232418232429000011LU - 30 - Zoey/Life With Derek @ 12:00am (HD) (:9                                                                           150                                
PROFAMCHA111101232429232459000030Disney XD (HD) Kick Buttowski Dwight Howard Stunt                                                                           150                                
PROFAMCHA111101232459232544000045The Walt Disney Company                                                                                                     150                                
PROFAMCHA111101232544232602000018SLOD (HD) Mommy Clip - Tomorrow Morning @ 7:25 (Ma                                                                          150                                
PROFAMCHA111101232602232714000112xSWAC (HD) Repack - Tomorrow Afternoon @ 1pm (Sept                                                                          150                                
PROFAMCHA111101232714232745000031Fish Hooks (HD) Generic 2 Retag - New Episode Sund                                                                          150                                
PROFAMCHA111101232745232829000044ANT Farm (HD) Sister Sell - New Episode Friday Nig                                                                          150                                
PROFAMCHA111101232829232904000035D-JR Promo - Handy Manny - Get more on the channel                                                                          150                                
PROFAMCHA111101232904232921000017xZoey 101 (HD) Retag - Coming Up Next (Sept2011)                                                                            150                                
PROFAMCHA111101232921232951000030Geek Charming (HD) Pop Sell - Premieres Friday Nov                                                                          150                                
PRCFAMCHA111101232951233006000015Family Bumper (HD) - Horseshoe ID (Jan 2011)                                                                                150                                
PGRFAMCHA111101233006233106000100Zoey 101                                          EPS # 05                                                             2068807BCC                              
PGRFAMCHA111101233106234200001054Zoey 101                                          EPS # 05                                                             2068807BCC                              
PGRFAMCHA111101234200235206001006Zoey 101                                          EPS # 05                                                             2068807BCC                              
PGRFAMCHA111101235206235236000030Zoey 101                                          EPS # 05                                                             2068807BCC                              
ID FAMCHA111101235236235242000006Astral ID (HD) 50th Anniversary ID (Aug31-Dec31)                                                                            150                                
PROFAMCHA111101235242235253000011LU - 31 - Life With Derek/Naturally Sadie @ 12:30a                                                                          150                                
PROFAMCHA111101235253235325000032Phineas & Ferb DCOM (HD) Popcorn Pix  - Friday @ 8                                                                          150                                
PROFAMCHA111101235325235354000029xNaturally Sadie (HD) Clip May08 - Tonight @ 12:30                                                                          150                                
PGRFAMCHA111101235354235730000336MV Non Disney (HD) Cody Simpson - On My Mind (Jul                                                                      10615120                                
PROFAMCHA111101235730235750000020Phineas&Ferb (HD) Fall Sell Retag - Tomorrow After                                                                          150                                
PROFAMCHA111101235750235837000047xShake It Up (HD) Dance Retag -Tomorrow Night @ 7:                                                                          150                                
PROFAMCHA111101235837235922000045So Random (HD) Boy Sell - New Episode Friday Night                                                                          150                                
PROFAMCHA111101235922235955000033xLife W D (HD) Undercover REV - Coming Up Next (Ja                                                                          150                                
PRCFAMCHA111101235955000011000016Family Bumper (HD) - Hot Potato ID (Jan 2011)                                                                               150                                
PGRFAMCHA111101000011002244002233Life With Derek                                   EP: 03                                                        C24891 1065607BCC                              
PROFAMCHA111101002244002255000011LU - 32 - SADIE/HANNAH @ 1:00am (HD) (:9 - :11) Ja                                                                          150                                
PRCFAMCHA111101002255002337000042BAW Stand Up Event Spot #1 (HD) - Monday November                                                                           150                                
PROFAMCHA111101002337002424000047xShake It Up (HD) Dance Retag - New Episode Friday                                                                          150                                
PROFAMCHA111101002424002725000301So Random Shorts (HD) S1-01 "Helmet" - Generic Fam                                                                          150                                
PROFAMCHA111101002725002748000023xHigh School Musical (HD) Popcorn Pix - Saturday @                                                                          150                                
PRCFAMCHA111101002748002833000045WUW (HD) Series Promo - Sunday Morning @ 9:30 (Mar                                                                          150                                
PROFAMCHA111101002833002902000029xNaturally Sadie (HD) Clip May08 - Coming Up Next                                                                           150                                
PROFAMCHA111101002902002932000030Disney XD (HD) Zeke & Luther - Catch it on DXD (wi                                                                          150                                
PRCFAMCHA111101002932002945000013Family Bumper (HD) - Karate ID (Jan 2011)                                                                                   150                                
PGRFAMCHA111101002945005216002231Naturally, Sadie                                  EP: 53                                                        C29639 1065607ACC                              
ID FAMCHA111101005216005222000006Astral ID (HD) 50th Anniversary ID (Aug31-Dec31)                                                                            150                                
PROFAMCHA111101005222005233000011LU - 33 - HANNAH/CORY 1:25am (HD) (:9 - :11) Jan 2                                                                          150                                
PROFAMCHA111101005233005303000030Geek Charming (HD) 30s - Premieres Friday Nov 11 @                                                                          150                                
PROFAMCHA111101005303005337000034SLOZ+C (HD) Refresh May10 - Tomorrow Morning @ 11:                                                                          150                                
PGRFAMCHA111101005337005741000404MV Non Disney (HD) Mindless Behavior - Mrs. Right                                                                      10615120                                
PROFAMCHA111101005741005804000023GLC/SIU (HD) Monday to Thurday Nights Starting @ 7                                                                          150                                
PROFAMCHA111101005804005825000021Wingin It (HD) Season 2 Promo - Monday to Thursday                                                                          150                                
PROFAMCHA111101005825005855000030Pair Of Kings (HD) Kings Speak - Weekend Mornings                                                                           150                                
PROFAMCHA111101005855005939000044xHannah (HD) Refresh - Coming Up Next (May2011)                                                                             150                                
PRCFAMCHA111101005939005947000008Family Bumper (HD) - Origami ID (Jan 2011)                                                                                  150                                
PGRFAMCHA111101005947010240000253Hannah Montana                                    EP: 26                                                               6068807BCC                              
PGRFAMCHA111101010240011103000823Hannah Montana                                    EP: 26                                                               6068807BCC                              
PGRFAMCHA111101011103012103001000Hannah Montana                                    EP: 26                                                               6068807BCC                              
PGRFAMCHA111101012103012217000114Hannah Montana                                    EP: 26                                                               6068807BCC                              
PROFAMCHA111101012217012228000011LU - 34 - CORY/PHIL OF THE FUTURE 1:45am (HD) (:9                                                                           150                                
PRCFAMCHA111101012228012238000010Family Bumper (HD) - Satelite ID (Jan 2011)                                                                                 150                                
PGRFAMCHA111101012238012521000243Disney Cory in the House                          EP: 21                                                               6068607BCC                              
PGRFAMCHA111101012521013243000722Disney Cory in the House                          EP: 21                                                               6068607BCC                              
PGRFAMCHA111101013243014328001045Disney Cory in the House                          EP: 21                                                               6068607BCC                              
PGRFAMCHA111101014328014509000141Disney Cory in the House                          EP: 21                                                               6068607BCC                              
ID FAMCHA111101014509014515000006Astral ID (HD) 50th Anniversary ID (Aug31-Dec31)                                                                            150                                
PROFAMCHA111101014515014526000011LU - 35 - PHIL OF THE FUTURE/LIZZIE MCGUIRE 2:10am                                                                          150                                
PRCFAMCHA111101014526014547000021Family Bumper (HD) - Wallpaper ID (Jan 2011)                                                                                150                                
ID FAMCHA111101014547014552000005xMagic of Disney Bumper (HD)(:5-:6) (Jan 2011)                                                                              150                                
PGRFAMCHA111101014552014852000300Phil of the Future                                EP: 35                                                               6068607BCC                              
PGRFAMCHA111101014852020017001125Phil of the Future                                EP: 35                                                               6068607BCC                              
PGRFAMCHA111101020017020638000621Phil of the Future                                EP: 35                                                               6068607BCC                              
PGRFAMCHA111101020638020826000148Phil of the Future                                EP: 35                                                               6068607BCC                              
PROFAMCHA111101020826020837000011LU - 36 - LIZZIE MCGUIRE/DEREK 2:30am (HD) (:9 - :                                                                          150                                
PRCFAMCHA111101020837020847000010Family Bumper (HD) - Amoeba ID (Jan 2011)                                                                                   150                                
ID FAMCHA111101020847020852000005xMagic of Disney Bumper (HD)(:5-:6) (Jan 2011)                                                                              150                                
PGRFAMCHA111101020852023030002138Lizzie McGuire                                    EP: 26                                                               6068607BCC                              
ID FAMCHA111101023030023036000006Astral ID (HD) 50th Anniversary ID (Aug31-Dec31)                                                                            150                                
PROFAMCHA111101023036023047000011LU - 37 - DEREK/CORY 2:55am (HD) (:9 - :11) Jan201                                                                          150                                
PRCFAMCHA111101023047023058000011Family Bumper (HD) - Bobbleheads ID (Jan 2011)                                                                              150                                
PGRFAMCHA111101023058025328002230Life With Derek                                   EP: 18                                                        C24891 1065607BCC                              
PROFAMCHA111101025328025339000011LU - 38 - CORY/RAVEN 3:20am (HD) (:9 - :11) Jan201                                                                          150                                
PRCFAMCHA111101025339025357000018Family Bumper (HD) - Dominoes ID (Jan 2011)                                                                                 150                                
PGRFAMCHA111101025357025701000304Disney Cory in the House                          EP: 20                                                               6068607BCC                              
PGRFAMCHA111101025701030620000919Disney Cory in the House                          EP: 20                                                               6068607BCC                              
PGRFAMCHA111101030620031440000820Disney Cory in the House                          EP: 20                                                               6068607BCC                              
PGRFAMCHA111101031440031628000148Disney Cory in the House                          EP: 20                                                               6068607BCC                              
ID FAMCHA111101031628031634000006Astral ID (HD) 50th Anniversary ID (Aug31-Dec31)                                                                            150                                
PROFAMCHA111101031634031645000011LU - 39 - RAVEN/SLZC 3:40am (HD) (:9 - :11) Jan201                                                                          150                                
PRCFAMCHA111101031645031706000021Family Bumper (HD) - Wallpaper ID (Jan 2011)                                                                                150                                
ID FAMCHA111101031706031711000005xMagic of Disney Bumper (HD)(:5-:6) (Jan 2011)                                                                              150                                
PGRFAMCHA111101031711032127000416That's So Raven                                   EP: 02                                                               6068607BCC                              
PGRFAMCHA111101032127032901000734That's So Raven                                   EP: 02                                                               6068607BCC                              
PGRFAMCHA111101032901033833000932That's So Raven                                   EP: 02                                                               6068607BCC                              
PGRFAMCHA111101033833033949000116That's So Raven                                   EP: 02                                                               6068607BCC                              
PROFAMCHA111101033949034000000011LU - 40 - SLZC/DEREK 4:05am (HD) (:9 - :11) Jan201                                                                          150                                
PRCFAMCHA111101034000034014000014Family Bumper (HD) - Drums ID (Jan 2011)                                                                                    150                                
ID FAMCHA111101034014034019000005xMagic of Disney Bumper (HD)(:5-:6) (Jan 2011)                                                                              150                                
PGRFAMCHA111101034019034230000211The Suite Life of Zack and Cody                   EP: 21                                                               6068607BCC                              
PGRFAMCHA111101034230035017000747The Suite Life of Zack and Cody                   EP: 21                                                               6068607BCC                              
PGRFAMCHA111101035017035750000733The Suite Life of Zack and Cody                   EP: 21                                                               6068607BCC                              
PGRFAMCHA111101035750040256000506The Suite Life of Zack and Cody                   EP: 21                                                               6068607BCC                              
ID FAMCHA111101040256040302000006Astral ID (HD) 50th Anniversary ID (Aug31-Dec31)                                                                            150                                
PROFAMCHA111101040302040313000011LU - 41 - LIFE WITH DEREK (HD) (:9 - :11) Jan2011                                                                           150                                
PRCFAMCHA111101040313040330000017Family Bumper (HD) - Fashion ID (Jan 2011)                                                                                  150                                
