SO FAMCHA030901043000043011000011Sign On (oct 1)                                                                                                                                                
PROFAMCHA030901043011043020000009CC Disclaimer - FAST - Family (:08-:10)                                                                                     150                                
PGRFAMCHA030901043011045353002253Franklin                                          Franklin's Nature Hike/Franklin's Starring Role               B36663A1065607ECC                              
PROFAMCHA030901045313045329000016PS - 01(PH) - WTP/KATIE/FRANKLIN (:14-:16)                                                                                  150                                
ID FAMCHA030901045329045344000015PS Playhouse AM Block Open (:10-:15)                                                                                        150                                
ID FAMCHA030901045344045353000009Magic of Disney - PLAYHOUSE - Shape (:06-:09)                                                                               150                                
PROFAMCHA030901045353045402000009CC Disclaimer - FAST - Family.ca (:08-:10)                                                                                  150                                
PGRFAMCHA030901045353051753002320New Adventures of Winnie the Pooh; The            Party Poohper/Old Switcheroo                                         6068607ECC                              
PROFAMCHA030901051722051738000016PS - 02(PH) - KATIE/FRANKLIN/RIPLEY (:14-:16)                                                                               150                                
ID FAMCHA030901051738051753000015PS Playhouse AM Block Open (:10-:15)                                                                                        150                                
PGRFAMCHA030901051753054457002636Katie And Orbie                                   The Thunderstorm/The Rabbit and How To Make It Sta            P16140A1065607E                                
PROFAMCHA030901054429054444000015PS - 03(PH) - FRANKLIN/RIPLEY/HOZE (:14-:16)                                                                                150                                
ID FAMCHA030901054444054457000013PS Playhouse AM Block Open (:10-:15)                                                                                        150                                
PROFAMCHA030901054457054506000009CC Disclaimer - FAST - Family (:08-:10)                                                                                     150                                
PGRFAMCHA030901054457060830002253Franklin                                          Franklin's Masterpiece/Franklin and the Computer              B36664A1065607ECC                              
PROFAMCHA030901060759060815000016PS - 04(PH) - RIPLEY/HOZE/KNIGHT (:14-:16)                                                                                  150                                
ID FAMCHA030901060815060830000015PS Playhouse AM Block Open (:10-:15)                                                                                        150                                
PROFAMCHA030901060830060838000008CC Disclaimer - FAST - Family.ca (:08-:10)                                                                                  150                                
PGRFAMCHA030901060830063500002430Ripley's Believe It Or Not!                       The Lie Detector                                              B21799 1065607ECC                              
PROFAMCHA030901063308063324000016PS - 05(PH) - HOZE/KNIGHT/PRLR (:14-:16)                                                                                    150                                
PRCFAMCHA030901063324063352000028Chip 'n Dale (FALL 2003) - Today @ 11am                                                                                     150                                
PRCFAMCHA030901063352063419000027Playhouse - HENRY'S WORLD - Snowball                                                                                        150                                
PROFAMCHA030901063419063449000030xxStanley (FALL 2003) - Today @ 9:45am *DNU*                                                                                150                                
ID FAMCHA030901063449063500000011PS Playhouse AM Block Open (:10-:15)                                                                                        150                                
PROFAMCHA030901063500063508000008CC Disclaimer - FAST - Generic (:08-:10)                                                                                    150                                
PGRFAMCHA030901063500070000002238Hoze Houndz                                       Metamorphosis/Snowed                                          A63401A1065607ECC                              
PROFAMCHA030901065746065800000014PS - 06(PB) - KNIGHT/PRLR/GADGET (:14-:16)                                                                                  150                                
PROFAMCHA030901065800065830000030Family Charged Fridays - Fridays, 5:00 to 7:30PM*D                                                                          150                                
PROFAMCHA030901065830065848000018xxThat's So Raven (BTS) - Tonight @ 7pm                                                                                     150                                
PROFAMCHA030901065848065920000032xxKim Possible (BTS) - Today @ 4:40pm (MD)                                                                                  150                                
PROFAMCHA030901065920065950000030xxLizzie McGuire (BTS) - Today @ 5:35pm                                                                                     150                                
ID FAMCHA030901065950070000000010PS Power Box Block Open (:10-:15)                                                                                           150                                
PGRFAMCHA030901070000072328002125Mon Colle Knights                                 EPS # 1-010                                                         A6028607E                                
PROFAMCHA030901072125072139000014PS - 07(PB) - PRLR/GADGET/DALMATIANS (:14-:16)                                                                              150                                
PROFAMCHA030901072139072209000030xxNightly Pix Block Promo - Tonight @ 9pm                                                                                   150                                
PRCFAMCHA030901072209072305000056xxBTS Event Promo                                                                                                           150                                
PROFAMCHA030901072305072328000023xxProud Family (BTS) - Today @ 5:05pm                                                                                       150                                
PGRFAMCHA030901072328072828000500Movie Surfers Finding Nemo #1 *DNU*                                                                                    60688150                                
PROFAMCHA030901072828072858000030xxPR Lightspeed Rescue - Coming Up                                                                                          150                                
PROFAMCHA030901072858072921000023xxProud Family (BTS) - Today @ 3:50pm                                                                                       150                                
PROFAMCHA030901072921072951000030Family Charged Fridays - Fridays, 5:00 to 7:30PM*D                                                                          150                                
ID FAMCHA030901072951073001000010PS Power Box Block Open (:10-:15)                                                                                           150                                
PGRFAMCHA030901073001075215002128Power Rangers Lightspeed Rescue                   From Deep In The Shadows                                            A6068607E                                
PROFAMCHA030901075129075145000016PS - 08(PB) - GADGET/DALMATIANS/FRANKLIN (:14-:16)                                                                          150                                
PROFAMCHA030901075145075215000030Family Charged Fridays - Fridays, 5:00 to 7:30PM*D                                                                          150                                
INTFAMCHA030901075215075545000330Movie Surfers Pirates of the Caribbean #1 *DNU*                                                                        60688130                                
PROFAMCHA030901075545075615000030xxLizzie McGuire (BTS) - Today @ 5:35pm                                                                                     150                                
PROFAMCHA030901075615075647000032xxKim Possible (BTS) - Today @ 4:40pm (MD)                                                                                  150                                
INTFAMCHA030901075647075817000130Klootz - Ferme 01                                                                                                     A10258120                                
PROFAMCHA030901075817075847000030xxBrendan Leonard (BTS #1) - Tonight @ 6:30pm                                                                               150                                
PRCFAMCHA030901075847075943000056xxBTS Event Promo                                                                                                           150                                
ID FAMCHA030901075943075958000015PS Power Box Block Open (:10-:15)                                                                                           150                                
PGRFAMCHA030901075958082326002213Gadget & the Gadgetinis                           EPS # 1-011                                                         A6028607E                                
PROFAMCHA030901082211082226000015PS - 09(PH) - DALMATIANS/FRANKLIN/WTP (:14-:16)                                                                             150                                
PROFAMCHA030901082226082256000030Disney's 101 Dalmatians - Coming Up                                                                                         150                                
PROFAMCHA030901082256082326000030xxTeamo Supremo (BTS) - Today @ 3:25pm                                                                                      150                                
INTFAMCHA030901082326082741000415Art Attack - Elephant                                                                                                  60286130                                
PRCFAMCHA030901082741082809000028xxSomething Else (INTRO) - Weekends @ 6:45pm                                                                                150                                
PROFAMCHA030901082809082839000030House of Mouse (FALL 2003) - Today @ 2:35pm                                                                                 150                                
PRCFAMCHA030901082839082914000035Playhouse - KATIE & ORBIE - Did You Know?                                                                                   150                                
PRCFAMCHA030901082914082944000030xxHenry's World (FALL 2003) - Today @ 10:10am *DNU                                                                          150                                
ID FAMCHA030901082944082957000013PS Playhouse AM Block Open (:10-:15)                                                                                        150                                
PGRFAMCHA030901082957085500002246Disney's 101 Dalmatians: The Series               EPS # 1-016                                                         A6028607E                                
PROFAMCHA030901085243085257000014PS - 10(PH) - FRANKLIN/WTP/STANLEY (:14-:16) (DEC)                                                                          150                                
PROFAMCHA030901085257085327000030House of Mouse (FALL 2003) - Today @ 2:35pm                                                                                 150                                
PRCFAMCHA030901085327085354000027Playhouse - FRANKLIN - Laundry                                                                                              150                                
PRCFAMCHA030901085354085422000028Chip 'n Dale (FALL 2003) - Today @ 11am                                                                                     150                                
PRCFAMCHA030901085422085450000028xxSomething Else (INTRO) - Weekends @ 6:45pm                                                                                150                                
ID FAMCHA030901085450085500000010PS Playhouse AM Block Open (:10-:15)                                                                                        150                                
PGRFAMCHA030901085500094600004656Back To School With Franklin                                                                                    A68656A1065607ECC                              
PROFAMCHA030901085500085510000010CC Disclaimer - FAST - Family (:08-:10)                                                                                     150                                
PROFAMCHA030901094206094222000016PS - 12(PH) - STANLEY/HENRY/ELMO (:14-:16) (DEC)                                                                            150                                
PRCFAMCHA030901094222094252000030xxHenry's World (FALL 2003) - Today @ 10:10am *DNU                                                                          150                                
PRCFAMCHA030901094252094322000030King (FRIENDS) - Weekends @ 7:35pm                                                                                          150                                
PRCFAMCHA030901094322094418000056Playhouse - STANLEY - Fish Song                                                                                             150                                
PROFAMCHA030901094418094448000030House of Mouse (FALL 2003) - Today @ 2:35pm                                                                                 150                                
PRCFAMCHA030901094448094516000028xxSomething Else (INTRO) - Weekends @ 6:45pm                                                                                150                                
PROFAMCHA030901094516094546000030xxStanley (FALL 2003) - Coming Up *DNU*                                                                                     150                                
ID FAMCHA030901094546094600000014PS Playhouse AM Block Open (:10-:15)                                                                                        150                                
PROFAMCHA030901094600094608000008CC Disclaimer - FAST - Family.ca (:08-:10)                                                                                  150                                
PGRFAMCHA030901094600101259002404Stanley                                           Stanley's Super Spectacles/The Ugly Griffling                       A6068607ECC                              
PROFAMCHA030901101012101026000014PS - 13(PH) - HENRY/ELMO/CHIP (:14-:16) (DEC)                                                                               150                                
PRCFAMCHA030901101026101056000030xxHenry's World (FALL 2003) - Coming Up *DNU*                                                                               150                                
PRCFAMCHA030901101056101124000028xxSomething Else (INTRO) - Weekends @ 6:45pm                                                                                150                                
PRCFAMCHA030901101124101143000019Playhouse - FRANKLIN - Party                                                                                                150                                
PRCFAMCHA030901101143101213000030xxKing (INTRO) - Weekends @ 7:35pm                                                                                          150                                
PRCFAMCHA030901101213101248000035Playhouse - KATIE & ORBIE - Discoveries                                                                                     150                                
ID FAMCHA030901101248101259000011PS Playhouse AM Block Open (:10-:15)                                                                                        150                                
PROFAMCHA030901101259101309000010CC Disclaimer - FAST - Generic (:08-:10)                                                                                    150                                
PGRFAMCHA030901101259104000002403Henry's World                                     Super Hero Henry/The Treasure Hunt                            A81045A1025607GCC                              
PROFAMCHA030901103712103727000015PS - 14(PH) - ELMO/CHIP/ART (:14-:16) (DEC)                                                                                 150                                
PRCFAMCHA030901103727103755000028Chip 'n Dale (FALL 2003) - Today @ 11am                                                                                     150                                
PRCFAMCHA030901103755103825000030Playhouse - FRANKLIN - Skunk                                                                                                150                                
PROFAMCHA030901103825103855000030House of Mouse (FALL 2003) - Today @ 2:35pm                                                                                 150                                
PRCFAMCHA030901103855103922000027Playhouse - FRANKLIN - Laundry                                                                                              150                                
PRCFAMCHA030901103922103950000028xxSomething Else (INTRO) - Weekends @ 6:45pm                                                                                150                                
ID FAMCHA030901103950104000000010PS Playhouse AM Block Open (:10-:15)                                                                                        150                                
PGRFAMCHA030901104000110100001754Elmo's World                                      Hair                                                                A2068607G                                
PROFAMCHA030901105754105810000016PS - 15(PH) - CHIP/ART/RECESS (:14-:16)                                                                                     150                                
PRCFAMCHA030901105810105838000028Chip 'n Dale (FALL 2003) - Coming Up                                                                                        150                                
PRCFAMCHA030901105838105924000046Playhouse - STANLEY - Squirrel Song                                                                                         150                                
PROFAMCHA030901105924105954000030House of Mouse (FALL 2003) - Today @ 2:35pm                                                                                 150                                
PRCFAMCHA030901105954110021000027Playhouse - FRANKLIN - Laundry                                                                                              150                                
PRCFAMCHA030901110021110045000024Something Else (IS WELL) - Weekends @ 6:45pm                                                                                150                                
ID FAMCHA030901110045110100000015PS Playhouse AM Block Open (:10-:15)                                                                                        150                                
PGRFAMCHA030901110100112432002244Chip 'n Dale Rescue Rangers                       Fake Me To Your Leader                                              A6068607E                                
ID FAMCHA030901110100110108000008Magic of Disney - PLAYHOUSE - Wipe (:06-:09)                                                                                150                                
PROFAMCHA030901112352112408000016PS - 16(PH) - ART/RECESS/BMW (:14-:16) (DEC)                                                                                150                                
PRCFAMCHA030901112408112432000024Something Else (IS WELL) - Weekends @ 6:45pm                                                                                150                                
INTFAMCHA030901112432112617000145Disney Circle Time - The Fox And The Crow (anywher                                                                     60688130                                
PRCFAMCHA030901112617112647000030Playhouse Morning Block (FALL 2003) - Weekday Morn                                                                          150                                
ID FAMCHA030901112647112700000013PS Playhouse AM Block Open (:10-:15)                                                                                        150                                
PGRFAMCHA030901112700114215001429Art Attack                                                                                                             60686110                                
PROFAMCHA030901114129114145000016PS - 17(MD) - RECESS/BMW/ALF (:14-:16) (DEC)                                                                                150                                
PROFAMCHA030901114145114215000030Family Charged Fridays - Fridays, 5:00 to 7:30PM*D                                                                          150                                
PGRFAMCHA030901114215114715000500Movie Surfers Finding Nemo #2 *DNU*                                                                                    60688150                                
PRCFAMCHA030901114715114739000024In A Heartbeat (FALL2003) - Tonight @ 8:30pm                                                                                150                                
PROFAMCHA030901114739114749000010FAMJAM - Open                                                                                                               150                                
INTFAMCHA030901114749114849000100MV Disney - Dig It (D-TENT BOYS)                                                                                       60688130                                
PROFAMCHA030901114849114903000014FAMJAM - Close (WEB)                                                                                                        150                                
PRCFAMCHA030901114903114925000022Mad Dash - LIZZIE MCGUIRE - Chase                                                                                           150                                
PROFAMCHA030901114925114945000020xxBrendan Leonard (BTS - INTRO) - Tonight @ 6:30pm                                                                          150                                
ID FAMCHA030901114945115000000015PS Mad Dash Block Open (:13-:15)                                                                                            150                                
PGRFAMCHA030901115000121300002234Disney's Recess                                   Rainy Days/Great Can Drive                                           6068607E                                
PROFAMCHA030901121234121250000016PS - 18(MD) - BMW/ALF/MENTORS (:14-:16) (DEC)                                                                               150                                
ID FAMCHA030901121250121300000010PS Mad Dash Block Open (:13-:15)                                                                                            150                                
PGRFAMCHA030901121300123700002210Boy Meets World                                   On The Air                                                          B6068807BCC                              
PROFAMCHA030901121300121309000009CC Disclaimer - FAST - Family (:08-:10)                                                                                     150                                
PROFAMCHA030901123519123535000016PS - 19(MD) - ALF/MENTORS/DALMATIANS (:14-:16) (DE                                                                          150                                
PROFAMCHA030901123535123605000030xxNightly Pix Block Promo - Tonight @ 9pm                                                                                   150                                
PRCFAMCHA030901123605123627000022Mad Dash - LIZZIE MCGUIRE - Chase                                                                                           150                                
PROFAMCHA030901123627123647000020xxBrendan Leonard (BTS - INTRO) - Tonight @ 6:30pm                                                                          150                                
ID FAMCHA030901123647123700000013Mad Dash Block Open (:13-:15)                                                                                               150                                
PGRFAMCHA030901123700130000002129ALF                                               Promises, Promises                                                  A2068807BCC                              
PROFAMCHA030901123700123709000009CC Disclaimer - FAST - Family.ca (:08-:10)                                                                                  150                                
PROFAMCHA030901125838125853000015PS - 20(MD) - MENTORS/DALMATIANS/CHIP (:14-:16) (D                                                                          150                                
PROFAMCHA030901125853125923000030Family Charged Fridays - Fridays, 5:00 to 7:30PM*D                                                                          150                                
PROFAMCHA030901125923125946000023xxProud Family (BTS) - Today @ 5:05pm                                                                                       150                                
ID FAMCHA030901125946130000000014PS Mad Dash Block Open (:13-:15)                                                                                            150                                
PROFAMCHA030901130000130010000010CC Disclaimer - FAST - Generic (:08-:10)                                                                                    150                                
PGRFAMCHA030901130000132404002311Mentors                                           Seer and Now                                                  C17437 1065607ACC                              
PROFAMCHA030901132321132335000014PS - 21(PH) - DALMATIANS/CHIP/HOZE (:14-:16)                                                                                150                                
PRCFAMCHA030901132335132354000019Playhouse - FRANKLIN - Party                                                                                                150                                
ID FAMCHA030901132354132404000010PS Playhouse AM Block Open (:10-:15)                                                                                        150                                
PGRFAMCHA030901132404134800002245Disney's 101 Dalmatians: The Series               EPS # 1-017                                                         A6028607E                                
PROFAMCHA030901134649134703000014PS - 22(PH) - CHIP/HOZE/HOM (:14-:16)                                                                                       150                                
PRCFAMCHA030901134703134731000028xxSomething Else (INTRO) - Weekends @ 6:45pm                                                                                150                                
PRCFAMCHA030901134731134750000019Playhouse - FRANKLIN - Party                                                                                                150                                
ID FAMCHA030901134750134800000010PS Playhouse AM Block Open (:10-:15)                                                                                        150                                
PGRFAMCHA030901134800141205002243Chip 'n Dale Rescue Rangers                       Last Train To Cashville                                             A6068607E                                
ID FAMCHA030901134800134809000009Magic of Disney - PLAYHOUSE - Shape (:06-:09)                                                                               150                                
PROFAMCHA030901141052141106000014PS - 23(PH) - HOZE/HOM/TIMON (:14-:16)                                                                                      150                                
PROFAMCHA030901141106141136000030House of Mouse (FALL 2003) - Today @ 2:35pm                                                                                 150                                
PRCFAMCHA030901141136141155000019Playhouse - FRANKLIN - Party                                                                                                150                                
ID FAMCHA030901141155141205000010PS Playhouse AM Block Open (:10-:15)                                                                                        150                                
PROFAMCHA030901141205141214000009CC Disclaimer - FAST - Family (:08-:10)                                                                                     150                                
PGRFAMCHA030901141205143553002238Hoze Houndz                                       Super On The Side/Bachelor and the Beast                      A63396A1065607ECC                              
PROFAMCHA030901143452143508000016PS - 24(PH) - HOM/LION/TEAMO (:14-:16) (DEC)                                                                                150                                
PROFAMCHA030901143508143538000030House of Mouse (FALL 2003) - Coming Up                                                                                      150                                
ID FAMCHA030901143538143553000015PS Playhouse AM Block Open (:10-:15)                                                                                        150                                
PROFAMCHA030901143553143602000009CC Disclaimer - FAST - Family.ca (:08-:10)                                                                                  150                                
PGRFAMCHA030901143553150000002239Disney's House Of Mouse                           Thanks To Minnie                                                     6068607ECC                              
PROFAMCHA030901145841145857000016Mad Dash  - 01 - LION/TEAMO/WEEKENDERS (:14-:16) (                                                                          150                                
PRCFAMCHA030901145857145925000028xxSomething Else (INTRO) - Weekends @ 6:45pm                                                                                150                                
PRCFAMCHA030901145925145937000012Mad Dash - WEEKENDERS - Reality                                                                                             150                                
ID FAMCHA030901145937145952000015Mad Dash Block Open (:13-:15)                                                                                               150                                
ID FAMCHA030901145952150000000008Magic of Disney - MAD DASH - Wipe (:06-:09)                                                                                 150                                
PROFAMCHA030901150000150009000009CC Disclaimer - FAST - Family (:08-:10)                                                                                     150                                
PGRFAMCHA030901150000152500002242Lion King's Timon & Pumbaa; The                   Be More Pacific/Going Uruguay                                        6068607ECC                              
PROFAMCHA030901152251152307000016Mad Dash  - 02 - TEAMO/WEEKENDERS/RECESS (:14-:16)                                                                          150                                
PROFAMCHA030901152307152337000030xxTeamo Supremo (BTS) - Coming Up                                                                                           150                                
PROFAMCHA030901152337152407000030xxLizzie McGuire (BTS) - Today @ 5:35pm                                                                                     150                                
PRCFAMCHA030901152407152417000010Mad Dash - LIZZIE MCGUIRE - Going In                                                                                        150                                
PRCFAMCHA030901152417152447000030xxNBA Jam #2                                                                                                                150                                
ID FAMCHA030901152447152500000013Mad Dash Block Open (:13-:15)                                                                                               150                                
PGRFAMCHA030901152500155000002253Disney's Teamo Supremo                            Teamo Rocks!/The Wrath Of Scooter Lad                               A6028607E                                
PROFAMCHA030901154753154807000014Mad Dash  - 03 - WEEKENDERS/RECESS/KIM (:14-:16)                                                                            150                                
PRCFAMCHA030901154807154837000030King (FRIENDS) - Weekends @ 7:35pm                                                                                          150                                
PROFAMCHA030901154837154907000030xxLizzie McGuire (BTS) - Today @ 5:35pm                                                                                     150                                
PRCFAMCHA030901154907154917000010Mad Dash - LIZZIE MCGUIRE - Going In                                                                                        150                                
PRCFAMCHA030901154917154947000030In A Heartbeat (FALL2003) - Tonight @ 8:30pm                                                                                150                                
ID FAMCHA030901154947155000000013Mad Dash Block Open (:13-:15)                                                                                               150                                
PROFAMCHA030901155000155010000010CC Disclaimer - FAST - Generic (:08-:10)                                                                                    150                                
PGRFAMCHA030901155000161600002253Disney's The Weekenders                           Tino's Dad                                                          A6068607ECC                              
PROFAMCHA030901161303161317000014Mad Dash  - 04 - RECESS/KIM/PROUD (:14-:16)                                                                                 150                                
PRCFAMCHA030901161317161347000030In A Heartbeat (FALL2003) - Tonight @ 8:30pm                                                                                150                                
PRCFAMCHA030901161347161417000030Bentley Back-To-School Contest                                                                                              150                                
PRCFAMCHA030901161417161447000030Hello Ello Contest                                                                                                          150                                
PROFAMCHA030901161447161517000030xxBrendan Leonard (BTS #1) - Tonight @ 6:30pm                                                                               150                                
PROFAMCHA030901161517161547000030Family Charged Fridays - Fridays, 5:00 to 7:30PM*D                                                                          150                                
ID FAMCHA030901161547161600000013Mad Dash Block Open (:13-:15)                                                                                               150                                
PGRFAMCHA030901161600164200002234Disney's Recess                                   Rainy Days/Great Can Drive                                           6068607E                                
PROFAMCHA030901163834163850000016Mad Dash  - 05 - KIM/PROUD/LIZZIE (:14-:16)                                                                                 150                                
PROFAMCHA030901163850163920000030xxNightly Pix Block Promo - Tonight @ 9pm                                                                                   150                                
PROFAMCHA030901163920163950000030xxBrendan Leonard (BTS #1) - Tonight @ 6:30pm                                                                               150                                
PRCFAMCHA030901163950164020000030Sun-Rype Fruit To Go Contest - AUG31 TO SEPT28 (2)                                                                          150                                
PRCFAMCHA030901164020164050000030Nonstop Block Promo (FALL 2003) - Monday to Thursd                                                                          150                                
PROFAMCHA030901164050164102000012Mad Dash - RECESS - Sprinkler                                                                                               150                                
PROFAMCHA030901164102164117000015xxKim Possible Sponsorship Billboard                                                                                        150                                
PROFAMCHA030901164117164147000030Family Charged Fridays - Fridays, 5:00 to 7:30PM*D                                                                          150                                
ID FAMCHA030901164147164200000013Mad Dash Block Open (:13-:15)                                                                                               150                                
PGRFAMCHA030901164200170800002251Disney's Kim Possible                             Bueno Nacho                                                         A6068607E                                
PROFAMCHA030901170451170506000015Mad Dash  - 06 - PROUD/LIZZIE/ALL (:14-:16)                                                                                 150                                
PROFAMCHA030901170506170536000030xxNightly Pix Block Promo - Tonight @ 9pm                                                                                   150                                
PROFAMCHA030901170536170559000023xxProud Family (BTS) - Coming Up                                                                                            150                                
PRCFAMCHA030901170559170629000030Bentley Back-To-School Contest                                                                                              150                                
PRCFAMCHA030901170629170653000024In A Heartbeat (FALL2003) - Tonight @ 8:30pm                                                                                150                                
PRCFAMCHA030901170653170716000023Mad Dash - WEEKENDERS - Pizza                                                                                               150                                
PROFAMCHA030901170716170746000030xxLizzie McGuire (BTS) - Today @ 5:35pm                                                                                     150                                
ID FAMCHA030901170746170800000014Mad Dash Block Open (:13-:15)                                                                                               150                                
PROFAMCHA030901170800170809000009CC Disclaimer - FAST - Family (:08-:10)                                                                                     150                                
PGRFAMCHA030901170800173400002234Proud Family; The                                 She's Got Game                                                      A6068807ECC                              
PROFAMCHA030901173043173059000016Mad Dash  - 07 - LIZZIE/ALL/BRENDAN (:14-:16)                                                                               150                                
PROFAMCHA030901173059173129000030Family Charged Fridays - Fridays, 5:00 to 7:30PM*D                                                                          150                                
PROFAMCHA030901173129173159000030xxLizzie McGuire (BTS) - Coming Up                                                                                          150                                
PRCFAMCHA030901173159173229000030Nonstop Block Promo (FALL 2003) - Monday to Thursd                                                                          150                                
PROFAMCHA030901173229173247000018xxThat's So Raven (BTS) - Tonight @ 7pm                                                                                     150                                
PRCFAMCHA030901173247173317000030Sun-Rype Fruit To Go Contest - AUG31 TO SEPT28 (2)                                                                          150                                
PROFAMCHA030901173317173347000030xxNightly Pix Block Promo - Tonight @ 9pm                                                                                   150                                
ID FAMCHA030901173347173400000013Mad Dash Block Open (:13-:15)                                                                                               150                                
PGRFAMCHA030901173400180000002235Lizzie McGuire                                    I Do, I Don't                                                       A6068607B                                
ID FAMCHA030901173400173408000008Magic of Disney - MAD DASH - Shape (:06-:09)                                                                                150                                
PROFAMCHA030901175643175658000015Nonstop - 01(M-T) - ALL/BRENDAN/RAVEN (:14-:16)                                                                             150                                
PROFAMCHA030901175658175728000030Family Charged Fridays - Fridays, 5:00 to 7:30PM*D                                                                          150                                
PROFAMCHA030901175728175746000018xxThat's So Raven (BTS) - Tonight @ 7pm                                                                                     150                                
PRCFAMCHA030901175746175816000030xxNBA Jam #1                                                                                                                150                                
PRCFAMCHA030901175816175856000040Nonstop - AMANDA SHOW - Dandruff                                                                                            150                                
PROFAMCHA030901175856175916000020xxBrendan Leonard (BTS - INTRO) - Tonight @ 6:30pm                                                                          150                                
PRCFAMCHA030901175916175946000030In A Heartbeat (FALL2003) - Tonight @ 8:30pm                                                                                150                                
ID FAMCHA030901175946180000000014Nonstop Block Open (:14-:17)                                                                                                150                                
PGRFAMCHA030901180000182135002000All That                                                                                                              A20686090                                
PROFAMCHA030901182000182015000015Nonstop - 02(M-T) - BRENDAN/RAVEN/JETT (:14-:16)                                                                            150                                
PROFAMCHA030901182015182045000030Family Charged Fridays - Fridays, 5:00 to 7:30PM*D                                                                          150                                
PRCFAMCHA030901182045182115000030Bentley Back-To-School Contest                                                                                              150                                
PROFAMCHA030901182115182135000020xxBrendan Leonard (BTS - INTRO) - Coming Up                                                                                 150                                
INTFAMCHA030901182135182535000400Movie Surfers Freaky Friday - In Theatres Now *DNU                                                                     60688130                                
PRCFAMCHA030901182535182605000030Family Popcorn Parties (2) *DNU*                                                                                            150                                
INTFAMCHA030901182605182830000225Art Attack - Snooker                                                                                                   60686130                                
PROFAMCHA030901182830182848000018xxThat's So Raven (BTS) - Tonight @ 7pm                                                                                     150                                
PRCFAMCHA030901182848182918000030Family Birthday Club #1 - ONGOING (G)                                                                                       150                                
PRCFAMCHA030901182918182948000030Nonstop Block Promo (FALL 2003) - Monday to Thursd                                                                          150                                
ID FAMCHA030901182948183000000012Nonstop Block Open (:14-:17)                                                                                                150                                
PGRFAMCHA030901183000185218002045Brendan Leonard Show; The                         EPS # 1-009                                                         B6028807FCC                              
PROFAMCHA030901185045185101000016Nonstop - 03(M-T) - RAVEN/JETT/BMW (:14-:16)                                                                                150                                
PROFAMCHA030901185101185119000018xxThat's So Raven (BTS) - Coming Up                                                                                         150                                
PRCFAMCHA030901185119185148000029Nonstop - JETT JACKSON - Fight                                                                                              150                                
PRCFAMCHA030901185148185218000030Family Popcorn Parties (2) *DNU*                                                                                            150                                
INTFAMCHA030901185218185548000330Movie Surfers Pirates of the Caribbean #1 *DNU*                                                                        60688130                                
PRCFAMCHA030901185548185623000035Nonstop - AMANDA SHOW - Horoscope                                                                                           150                                
PRCFAMCHA030901185623185647000024In A Heartbeat (FALL2003) - Tonight @ 8:30pm                                                                                150                                
PROFAMCHA030901185647185717000030Family Charged Fridays - Fridays, 5:00 to 7:30PM*D                                                                          150                                
INTFAMCHA030901185717185847000130Klootz - Grand Escape #6                                                                                              A10658120                                
PRCFAMCHA030901185847185925000038Mad Dash - LIZZIE MCGUIRE - Breakfast                                                                                       150                                
ID FAMCHA030901185925185942000017Nonstop Block Open (:14-:17)                                                                                                150                                
PROFAMCHA030901185942185951000009CC Disclaimer - FAST - Family.ca (:08-:10)                                                                                  150                                
PGRFAMCHA030901185942192356002240That's So Raven                                   Party Animal                                                        A6068807BCC                              
PROFAMCHA030901192231192246000015Nonstop - 04(M-T) - JETT/BMW/HEARTBEAT (:14-:16) (                                                                          150                                
PROFAMCHA030901192246192316000030Family Charged Fridays - Fridays, 5:00 to 7:30PM*D                                                                          150                                
PRCFAMCHA030901192316192346000030Bentley Back-To-School Contest                                                                                              150                                
PROFAMCHA030901192346192356000010FAMJAM - Open                                                                                                               150                                
INTFAMCHA030901192356192645000249MV Disney - My Funny Friend & Me (STING)                                                                               60288130                                
PROFAMCHA030901192645192659000014FAMJAM - Close (WEB)                                                                                                        150                                
PRCFAMCHA030901192659192729000030xxNBA Jam #2                                                                                                                150                                
PRCFAMCHA030901192729192759000030Nonstop Block Promo (FALL 2003) - Monday to Thursd                                                                          150                                
PRCFAMCHA030901192759192829000030Family Birthday Club #2 - ONGOING (G)                                                                                       150                                
PROFAMCHA030901192829192858000029xxNonstop - EVEN STEVENS - Meathoops                                                                                        150                                
PRCFAMCHA030901192858192928000030In A Heartbeat (FALL2003) - Tonight @ 8:30pm                                                                                150                                
ID FAMCHA030901192928192945000017Nonstop Block Open (:14-:17)                                                                                                150                                
PROFAMCHA030901192945192954000009CC Disclaimer - FAST - Family (:08-:10)                                                                                     150                                
PGRFAMCHA030901192945195549002431Famous Jett Jackson; The                          Great Expectations                                            B57161 1065607ACC                              
PROFAMCHA030901195425195440000015Nonstop - 05(M-T) - BMW/HEARTBEAT/N-PIX (:14-:16)                                                                           150                                
PROFAMCHA030901195440195510000030Family Charged Fridays - Fridays, 5:00 to 7:30PM*D                                                                          150                                
PRCFAMCHA030901195510195539000029Nonstop - BOY MEETS WORLD - Shampoo                                                                                         150                                
PROFAMCHA030901195539195549000010FAMJAM - Open                                                                                                               150                                
INTFAMCHA030901195549195719000130MV Disney - Mambo #5 (LOU BEGA)                                                                                        60688130                                
PROFAMCHA030901195719195733000014FAMJAM - Close (FAMILY)                                                                                                     150                                
PRCFAMCHA030901195733195803000030xxNBA Jam #1                                                                                                                150                                
PRCFAMCHA030901195803195832000029Nonstop - JETT JACKSON - Car                                                                                                150                                
PRCFAMCHA030901195832195902000030Family Birthday Club #1 - ONGOING (G)                                                                                       150                                
PROFAMCHA030901195902195932000030xxNightly Pix Block Promo - Tonight @ 9pm                                                                                   150                                
ID FAMCHA030901195932195949000017Nonstop Block Open (:14-:17)                                                                                                150                                
PGRFAMCHA030901195949202259002216Boy Meets World                                   Grandma Was A Rolling Stone                                         B6068807BCC                              
PROFAMCHA030901195949195958000009CC Disclaimer - FAST - Family.ca (:08-:10)                                                                                  150                                
PROFAMCHA030901202214202229000015Nonstop - 06(M-T) - HEARTBEAT/N-PIX (:14-:16)                                                                               150                                
PROFAMCHA030901202229202259000030Family Charged Fridays - Fridays, 5:00 to 7:30PM*D                                                                          150                                
PGRFAMCHA030901202259202759000500Movie Surfers Finding Nemo #1 *DNU*                                                                                    60688150                                
PRCFAMCHA030901202759202829000030Family Popcorn Parties (2) *DNU*                                                                                            150                                
PRCFAMCHA030901202829202849000020Nonstop - BOY MEETS WORLD - Good Looking                                                                                    150                                
PRCFAMCHA030901202849202919000030xxNBA Jam #2                                                                                                                150                                
PROFAMCHA030901202919202937000018xxThat's So Raven (BTS) - Tomorrow @ 7pm                                                                                    150                                
ID FAMCHA030901202937202954000017Nonstop Block Open (:14-:17)                                                                                                150                                
PROFAMCHA030901202954203004000010CC Disclaimer - FAST - Generic (:08-:10)                                                                                    150                                
PGRFAMCHA030901202954205325002236In A Heartbeat                                    Four EMT's And A Kid                                          B57192A1065807ACC                              
PROFAMCHA030901205240205255000015Nightly Pix Line-up (SEPT) - GENERIC (:14-:16)                                                                              150                                
PROFAMCHA030901205255205325000030xxBrendan Leonard (BTS #1) - Tonight @ 11pm                                                                                 150                                
PGRFAMCHA030901205325205825000500Movie Surfers Pirates of the Caribbean #2 *DNU*                                                                        60688150                                
PRCFAMCHA030901205825205855000030Family Birthday Club #2 - ONGOING (G)                                                                                       150                                
PROFAMCHA030901205855205922000027xxNonstop - EVEN STEVENS - B-Ball                                                                                           150                                
PROFAMCHA030901205922205940000018xxThat's So Raven (BTS) - Tomorrow @ 7pm                                                                                    150                                
ID FAMCHA030901205940205955000015Nightly Pix Movie Open (:10-:15)                                                                                            150                                
ID FAMCHA030901205955210004000009Rating - AA - Ian (:08-:10)                                                                                                 150                                
PGRFAMCHA030901205955224749014639School Ties                                                                                                           C2068807D                                
PROFAMCHA030901224643224659000016Nonstop - 08(M/T-SEP) - BRENDAN/ALF/AMAZ (:14-:16)                                                                          150                                
PROFAMCHA030901224659224719000020xxBrendan Leonard (BTS - INTRO) - Coming Up                                                                                 150                                
PRCFAMCHA030901224719224749000030In A Heartbeat (FALL2003) - Tomorrow @ 8:30pm                                                                               150                                
INTFAMCHA030901224749225225000436Art Attack - Bag Piper                                                                                                 60686130                                
PROFAMCHA030901225225225255000030xxTeamo Supremo (BTS) - Tomorrow @ 3:25pm                                                                                   150                                
PGRFAMCHA030901225255225755000500Movie Surfers Finding Nemo #2 *DNU*                                                                                    60688150                                
PROFAMCHA030901225755225825000030xxNightly Pix Block Promo - Every Night @ 9pm                                                                               150                                
PRCFAMCHA030901225825225913000048Nonstop - AMANDA SHOW - Camera                                                                                              150                                
PROFAMCHA030901225913225943000030Family Charged Fridays - Fridays, 5:00 to 7:30PM*D                                                                          150                                
ID FAMCHA030901225943230000000017Nonstop Block Open (:14-:17)                                                                                                150                                
PGRFAMCHA030901230000232216002047Brendan Leonard Show; The                         EPS # 1-001                                                         B6068807FCC                              
PROFAMCHA030901230000230009000009CC Disclaimer - SLOW - Family (:08-:10)                                                                                     150                                
PROFAMCHA030901232056232112000016Nonstop - 08b(M-T/SEP) - ALF/AMAZING/JETT (:14-:16                                                                          150                                
PROFAMCHA030901232112232142000030xxNightly Pix Block Promo - Every Night @ 9pm                                                                               150                                
PRCFAMCHA030901232142232206000024In A Heartbeat (FALL2003) - Tomorrow @ 8:30pm                                                                               150                                
PROFAMCHA030901232206232216000010FAMJAM - Open                                                                                                               150                                
INTFAMCHA030901232216232316000100MV Disney - Dig It (D-TENT BOYS)                                                                                       60688130                                
PROFAMCHA030901232316232330000014FAMJAM - Close (WEB)                                                                                                        150                                
PROFAMCHA030901232330232353000023xxProud Family (BTS) - Tomorrow @ 5:05pm                                                                                    150                                
PROFAMCHA030901232353232403000010FAMJAM - Open                                                                                                               150                                
INTFAMCHA030901232403232840000437MV Disney - Go The Distance (MICHAEL BOLTON)                                                                           60288130                                
PROFAMCHA030901232840232854000014FAMJAM - Close (WEB)                                                                                                        150                                
PRCFAMCHA030901232854232916000022Nonstop - BOY MEETS WORLD - Girl's Washroom                                                                                 150                                
PROFAMCHA030901232916232946000030xxLizzie McGuire (BTS) - Tomorrow @ 5:35pm                                                                                  150                                
ID FAMCHA030901232946233000000014Nonstop Block Open (:14-:17)                                                                                                150                                
PGRFAMCHA030901233000235214002129ALF                                               Hideaway                                                            A2068807BCC                              
PROFAMCHA030901233000233009000009CC Disclaimer - SLOW - Family.ca (:08-:10)                                                                                  150                                
PROFAMCHA030901235138235154000016Nonstop - 09 - AMAZING/JETT (:14-:16) (DEC)                                                                                 150                                
PROFAMCHA030901235154235214000020xxBrendan Leonard (BTS - INTRO) - Tomorrow @ 11pm                                                                           150                                
INTFAMCHA030901235214235344000130Klootz - Handymen 02 (post 7pm)                                                                                       A10658120                                
INTFAMCHA030901235344235744000400Movie Surfers Freaky Friday - In Theatres Now *DNU                                                                     60688130                                
INTFAMCHA030901235744235914000130Klootz - Leapfrog Island #44                                                                                          A10658120                                
PRCFAMCHA030901235914235944000030In A Heartbeat (FALL2003) - Tomorrow @ 8:30pm                                                                               150                                
ID FAMCHA030901235944235959000015Nonstop Block Open (:14-:17)                                                                                                150                                
PGRFAMCHA030901235959002513002438Amazing Stories                                   Guilt Trip                                                          A2068807A                                
PROFAMCHA030901002437002453000016Nonstop - 10 - JETT (:14-:16)                                                                                               150                                
PROFAMCHA030901002453002513000020xxBrendan Leonard (BTS - INTRO) - Tomorrow @ 11pm                                                                           150                                
INTFAMCHA030901002513002843000330Movie Surfers Pirates of the Caribbean #1 *DNU*                                                                        60688130                                
PRCFAMCHA030901002843002915000032Nonstop - JETT JACKSON - Crisis                                                                                             150                                
PRCFAMCHA030901002915002945000030In A Heartbeat (FALL2003) - Tomorrow @ 8:30pm                                                                               150                                
ID FAMCHA030901002945003000000015Nonstop Block Open (:14-:17)                                                                                                150                                
PROFAMCHA030901003000003009000009CC Disclaimer - SLOW - Generic (:08-:10)                                                                                    150                                
PGRFAMCHA030901003000005512002433Famous Jett Jackson; The                          Bunk                                                          B57124 1065607ACC                              
PROFAMCHA030901005442005512000030Family Charged Fridays - Fridays, 5:00 to 7:30PM*D                                                                          150                                
INTFAMCHA030901005512005814000302Art Attack - Ballerina                                                                                                 60286130                                
PROFAMCHA030901005814005834000020xxBrendan Leonard (BTS - INTRO) - Tomorrow @ 11pm                                                                           150                                
INTFAMCHA030901005834010203000329Art Attack - Bank Robber                                                                                               60286130                                
SO FAMCHA030901010203010215000012Sign Off (oct 1)                                                                                                                                               
OFFFAMCHA030901010215043000032745OFF AIR                                                                                                                                                        
SO FAMCHA030902043000043011000011Sign On (oct 1)                                                                                                                                                
PROFAMCHA030902043011043019000008CC Disclaimer - FAST - Generic (:08-:10)                                                                                    150                                
PGRFAMCHA030902043011045341002253Franklin                                          Franklin and the Trooper/Franklin's Fossil                    B36665A1065607ECC                              
PROFAMCHA030902045312045326000014PS - 01(PH) - WTP/KATIE/FRANKLIN (:14-:16)                                                                                  150                                
ID FAMCHA030902045326045341000015PS Playhouse AM Block Open (:10-:15)                                                                                        150                                
ID FAMCHA030902045341045350000009Magic of Disney - PLAYHOUSE - Shape (:06-:09)                                                                               150                                
PGRFAMCHA030902045341051746002319New Adventures of Winnie the Pooh; The            Me and My Shadow/To Catch a Hiccup                                   6068607ECC                              
PROFAMCHA030902045350045358000008CC Disclaimer - FAST - Family (:08-:10)                                                                                     150                                
PROFAMCHA030902051717051731000014PS - 02(PH) - KATIE/FRANKLIN/RIPLEY (:14-:16)                                                                               150                                
ID FAMCHA030902051731051746000015PS Playhouse AM Block Open (:10-:15)                                                                                        150                                
PGRFAMCHA030902051746054448002638Katie And Orbie                                   Yee Ping/6 Cents Doesn't Go That Far/Mrs Parette's            P16141A1065607E                                
PROFAMCHA030902054424054438000014PS - 03(PH) - FRANKLIN/RIPLEY/HOZE (:14-:16)                                                                                150                                
ID FAMCHA030902054438054448000010PS Playhouse AM Block Open (:10-:15)                                                                                        150                                
PROFAMCHA030902054448054456000008CC Disclaimer - FAST - Generic (:08-:10)                                                                                    150                                
PGRFAMCHA030902054448060813002253Franklin                                          Franklin's Fortune Teller/Franklin's Cellar                   B36666A1065607ECC                              
PROFAMCHA030902060749060803000014PS - 04(PH) - RIPLEY/HOZE/KNIGHT (:14-:16)                                                                                  150                                
ID FAMCHA030902060803060813000010PS Playhouse AM Block Open (:10-:15)                                                                                        150                                
PROFAMCHA030902060813060822000009CC Disclaimer - FAST - Family (:08-:10)                                                                                     150                                
PGRFAMCHA030902060813063500002431Ripley's Believe It Or Not!                       Curse of the Pharoh's Tomb                                    B21800 1065607ECC                              
PROFAMCHA030902063253063307000014PS - 05(PH) - HOZE/KNIGHT/PRLR (:14-:16)                                                                                    150                                
PROFAMCHA030902063307063337000030Disney's 101 Dalmatians - Today @ 8:30am                                                                                    150                                
PRCFAMCHA030902063337063356000019Playhouse - HOZE HOUNDZ - Code Blue                                                                                         150                                
PRCFAMCHA030902063356063420000024Something Else (IS WELL) - Weekends @ 6:45pm                                                                                150                                
PRCFAMCHA030902063420063450000030xxHenry's World (FALL 2003) - Today @ 10:10am *DNU                                                                          150                                
ID FAMCHA030902063450063500000010PS Playhouse AM Block Open (:10-:15)                                                                                        150                                
PROFAMCHA030902063500063509000009CC Disclaimer - FAST - Family.ca (:08-:10)                                                                                  150                                
PGRFAMCHA030902063500065959002235Hoze Houndz                                       Ghost in the Machine/Savage Steamer                           B17121A1065607ECC                              
PROFAMCHA030902065744065800000016PS - 06(PB) - KNIGHT/PRLR/GADGET (:14-:16)                                                                                  150                                
PRCFAMCHA030902065800065856000056xxBTS Event Promo                                                                                                           150                                
PROFAMCHA030902065856065914000018xxThat's So Raven (BTS) - Tonight @ 7pm                                                                                     150                                
PROFAMCHA030902065914065944000030xxLizzie McGuire (BTS) - Today @ 5:35pm                                                                                     150                                
ID FAMCHA030902065944065959000015PS Power Box Block Open (:10-:15)                                                                                           150                                
PGRFAMCHA030902065959072240002125Mon Colle Knights                                 EPS # 1-011                                                         A6028607E                                
PROFAMCHA030902072124072140000016PS - 07(PB) - PRLR/GADGET/DALMATIANS (:14-:16)                                                                              150                                
PROFAMCHA030902072140072210000030Family Charged Fridays - Fridays, 5:00 to 7:30PM*D                                                                          150                                
PROFAMCHA030902072210072240000030xxPR Lightspeed Rescue - Coming Up                                                                                          150                                
INTFAMCHA030902072240072640000400Movie Surfers Freaky Friday - In Theatres Now *DNU                                                                     60688130                                
PROFAMCHA030902072640072700000020xxBrendan Leonard (BTS - INTRO) - Tonight @ 6:30pm                                                                          150                                
INTFAMCHA030902072700072830000130Klootz - Variety Show #36                                                                                             A10258120                                
PROFAMCHA030902072830072853000023xxProud Family (HERO) - Today @ 4:10pm                                                                                      150                                
PRCFAMCHA030902072853072923000030In A Heartbeat (FALL2003) - Tonight @ 8:30pm                                                                                150                                
PROFAMCHA030902072923072946000023xxProud Family (BTS) - Today @ 5:05pm                                                                                       150                                
ID FAMCHA030902072946073000000014PS Power Box Block Open (:10-:15)                                                                                           150                                
PGRFAMCHA030902073000075222002128Power Rangers Lightspeed Rescue                   Truth Discovered                                                    A6068607E                                
PROFAMCHA030902075128075142000014PS - 08(PB) - GADGET/DALMATIANS/FRANKLIN (:14-:16)                                                                          150                                
PROFAMCHA030902075142075212000030Family Charged Fridays - Fridays, 5:00 to 7:30PM*D                                                                          150                                
PROFAMCHA030902075212075222000010FAMJAM - Open                                                                                                               150                                
INTFAMCHA030902075222075352000130MV Disney - Mambo #5 (LOU BEGA)                                                                                        60688130                                
PROFAMCHA030902075352075406000014FAMJAM - Close (FAMILY)                                                                                                     150                                
PROFAMCHA030902075406075429000023xxProud Family (BTS) - Today @ 5:05pm                                                                                       150                                
PGRFAMCHA030902075429075929000500Movie Surfers Finding Nemo #2 *DNU*                                                                                    60688150                                
PROFAMCHA030902075929075952000023xxProud Family (BTS) - Today @ 5:05pm                                                                                       150                                
ID FAMCHA030902075952080002000010PS Power Box Block Open (:10-:15)                                                                                           150                                
PGRFAMCHA030902080002082230002213Gadget & the Gadgetinis                           EPS # 1-012                                                         A6028607E                                
PROFAMCHA030902082215082230000015PS - 09(PH) - DALMATIANS/FRANKLIN/WTP (:14-:16)                                                                             150                                
INTFAMCHA030902082230082501000231xxLilo & Stitch Music Video - On DVD Now *DNU*                                                                         60688130                                
PRCFAMCHA030902082501082529000028xxSomething Else (INTRO) - Weekends @ 6:45pm                                                                                150                                
PRCFAMCHA030902082529082557000028Chip 'n Dale (FALL 2003) - Today @ 11am                                                                                     150                                
INTFAMCHA030902082557082845000248Art Attack - Magic Carpet                                                                                              60688130                                
PROFAMCHA030902082845082915000030House of Mouse (FALL 2003) - Today @ 2:35pm                                                                                 150                                
PRCFAMCHA030902082915082945000030xxKing (INTRO) - Weekends @ 7:35pm                                                                                          150                                
ID FAMCHA030902082945083000000015PS Playhouse AM Block Open (:10-:15)                                                                                        150                                
PGRFAMCHA030902083000085500002246Disney's 101 Dalmatians: The Series               EPS # 1-019                                                         A6028607E                                
PROFAMCHA030902085246085301000015PS - 10(PH) - FRANKLIN/WTP/STANLEY (:14-:16) (DEC)                                                                          150                                
PRCFAMCHA030902085301085329000028Chip 'n Dale (FALL 2003) - Today @ 11am                                                                                     150                                
PRCFAMCHA030902085329085353000024Something Else (IS WELL) - Weekends @ 6:45pm                                                                                150                                
PRCFAMCHA030902085353085420000027Playhouse - FRANKLIN - Laundry                                                                                              150                                
PROFAMCHA030902085420085450000030xxStanley (FALL 2003) - Today @ 9:45am *DNU*                                                                                150                                
ID FAMCHA030902085450085500000010PS Playhouse AM Block Open (:10-:15)                                                                                        150                                
PROFAMCHA030902085500085509000009CC Disclaimer - FAST - Family (:08-:10)                                                                                     150                                
PGRFAMCHA030902085500092000002253Franklin                                          Franklin's Garden/Franklin Runs Away                          B13650A1065607ECC                              
PROFAMCHA030902091802091817000015PS - 11(PH) - WTP/STANLEY/HENRY (:14-:16) (DEC)                                                                             150                                
PRCFAMCHA030902091817091847000030xxHenry's World (FALL 2003) - Today @ 10:10am *DNU                                                                          150                                
PRCFAMCHA030902091847091914000027Playhouse - FRANKLIN - Laundry                                                                                              150                                
PRCFAMCHA030902091914091942000028xxSomething Else (INTRO) - Weekends @ 6:45pm                                                                                150                                
ID FAMCHA030902091942091952000010PS Playhouse AM Block Open (:10-:15)                                                                                        150                                
ID FAMCHA030902091952092000000008Magic of Disney - PLAYHOUSE - Wipe (:06-:09)                                                                                150                                
PROFAMCHA030902092000092009000009CC Disclaimer - FAST - Family.ca (:08-:10)                                                                                  150                                
PGRFAMCHA030902092000094602002319New Adventures of Winnie the Pooh; The            Rabbit Marks The Spot/Good-Bye Mr.Pooh                               6068607ECC                              
PROFAMCHA030902094328094342000014PS - 12(PH) - STANLEY/HENRY/ELMO (:14-:16) (DEC)                                                                            150                                
PROFAMCHA030902094342094412000030xxStanley (FALL 2003) - Coming Up *DNU*                                                                                     150                                
PRCFAMCHA030902094412094436000024Something Else (IS WELL) - Weekends @ 6:45pm                                                                                150                                
PRCFAMCHA030902094436094522000046Playhouse - STANLEY - Squirrel Song                                                                                         150                                
PRCFAMCHA030902094522094552000030King (FRIENDS) - Weekends @ 7:35pm                                                                                          150                                
ID FAMCHA030902094552094602000010PS Playhouse AM Block Open (:10-:15)                                                                                        150                                
PROFAMCHA030902094602094612000010CC Disclaimer - FAST - Generic (:08-:10)                                                                                    150                                
PGRFAMCHA030902094602101301002404Stanley                                           Doing Like Ducks/Speedy Does It                                     A6068607ECC                              
PROFAMCHA030902101016101032000016PS - 13(PH) - HENRY/ELMO/CHIP (:14-:16) (DEC)                                                                               150                                
PRCFAMCHA030902101032101102000030xxHenry's World (FALL 2003) - Coming Up *DNU*                                                                               150                                
PRCFAMCHA030902101102101130000028xxSomething Else (INTRO) - Weekends @ 6:45pm                                                                                150                                
PRCFAMCHA030902101130101216000046Playhouse - STANLEY - Squirrel Song                                                                                         150                                
PRCFAMCHA030902101216101246000030xxKing (INTRO) - Weekends @ 7:35pm                                                                                          150                                
ID FAMCHA030902101246101301000015PS Playhouse AM Block Open (:10-:15)                                                                                        150                                
PROFAMCHA030902101301101310000009CC Disclaimer - FAST - Family (:08-:10)                                                                                     150                                
PGRFAMCHA030902101301104000002401Henry's World                                     Henry's New Shoes/Stuck On You                                A81046A1025607GCC                              
PROFAMCHA030902103711103727000016PS - 14(PH) - ELMO/CHIP/ART (:14-:16) (DEC)                                                                                 150                                
PROFAMCHA030902103727103757000030xxStanley (FALL 2003) - Tomorrow @ 9:45am *DNU*                                                                             150                                
PRCFAMCHA030902103757103853000056Playhouse - STANLEY - Fish Song                                                                                             150                                
PRCFAMCHA030902103853103917000024Something Else (IS WELL) - Weekends @ 6:45pm                                                                                150                                
PRCFAMCHA030902103917103947000030King (FRIENDS) - Weekends @ 7:30am                                                                                          150                                
ID FAMCHA030902103947104000000013PS Playhouse AM Block Open (:10-:15)                                                                                        150                                
PGRFAMCHA030902104000105556001444Elmo's World                                      Babies                                                              A2068607G                                
PROFAMCHA030902105444105500000016PS - 15(PH) - CHIP/ART/RECESS (:14-:16)                                                                                     150                                
PRCFAMCHA030902105500105528000028Chip 'n Dale (FALL 2003) - Coming Up                                                                                        150                                
PRCFAMCHA030902105528105556000028xxSomething Else (INTRO) - Weekends @ 6:45pm                                                                                150                                
INTFAMCHA030902105556105827000231xxLilo & Stitch Music Video - On DVD Now *DNU*                                                                         60688130                                
INTFAMCHA030902105827105948000121Music Break - Sebastian Music Sweet                                                                                    60286130                                
PROFAMCHA030902105948110018000030xxStanley (FALL 2003) - Weekdays @ 9:45am *DNU*                                                                             150                                
PRCFAMCHA030902110018110048000030King (FRIENDS) - Weekends @ 7:30am                                                                                          150                                
ID FAMCHA030902110048110100000012PS Playhouse AM Block Open (:10-:15)                                                                                        150                                
PGRFAMCHA030902110100112448002249Chip 'n Dale Rescue Rangers                       The Case Of The Cola Cult                                           A6068607E                                
ID FAMCHA030902110100110109000009Magic of Disney - PLAYHOUSE - Shape (:06-:09)                                                                               150                                
PROFAMCHA030902112358112414000016PS - 16(PH) - ART/RECESS/BMW (:14-:16) (DEC)                                                                                150                                
PRCFAMCHA030902112414112438000024Something Else (IS WELL) - Weekends @ 6:45pm                                                                                150                                
PROFAMCHA030902112438112448000010FAMJAM - Open                                                                                                               150                                
INTFAMCHA030902112448112631000143MV Disney - Siamese Cat Song                                                                                           60288130                                
PROFAMCHA030902112631112645000014FAMJAM - Close (WEB)                                                                                                        150                                
ID FAMCHA030902112645112700000015PS Playhouse AM Block Open (:10-:15)                                                                                        150                                
PGRFAMCHA030902112700114324001510Art Attack                                                                                                             60686110                                
PROFAMCHA030902114210114226000016PS - 17(MD) - RECESS/BMW/ALF (:14-:16) (DEC)                                                                                150                                
PROFAMCHA030902114226114256000030Family Charged Fridays - Fridays, 5:00 to 7:30PM*D                                                                          150                                
PRCFAMCHA030902114256114324000028Chip 'n Dale (FALL 2003) - Tomorrow @ 11am                                                                                  150                                
INTFAMCHA030902114324114724000400Movie Surfers Freaky Friday - In Theatres Now *DNU                                                                     60688130                                
PROFAMCHA030902114724114754000030xxTeamo Supremo (BTS) - On Family                                                                                           150                                
INTFAMCHA030902114754114924000130Klootz - Ferme 01                                                                                                     A10658120                                
PROFAMCHA030902114924114947000023xxProud Family (BTS) - Today @ 5:05pm                                                                                       150                                
ID FAMCHA030902114947115000000013PS Mad Dash Block Open (:13-:15)                                                                                            150                                
PGRFAMCHA030902115000121300002236Disney's Recess                                   Voice/Kids in the Mist                                               6068607E                                
PROFAMCHA030902121236121250000014PS - 18(MD) - BMW/ALF/MENTORS (:14-:16) (DEC)                                                                               150                                
ID FAMCHA030902121250121300000010PS Mad Dash Block Open (:13-:15)                                                                                            150                                
PGRFAMCHA030902121300123700002227Boy Meets World                                   Wrong Side Of The Tracks                                            B6068807BCC                              
PROFAMCHA030902121300121308000008CC Disclaimer - FAST - Family.ca (:08-:10)                                                                                  150                                
PROFAMCHA030902123535123550000015PS - 19(MD) - ALF/MENTORS/DALMATIANS (:14-:16) (DE                                                                          150                                
PRCFAMCHA030902123550123618000028Chip 'n Dale (FALL 2003) - Today @ 1:45pm                                                                                   150                                
PROFAMCHA030902123618123648000030House of Mouse (FALL 2003) - Weekdays @ 2:35pm                                                                              150                                
ID FAMCHA030902123648123700000012Mad Dash Block Open (:13-:15)                                                                                               150                                
PGRFAMCHA030902123700130000002129ALF                                               Changes                                                             A2068807BCC                              
PROFAMCHA030902123700123710000010CC Disclaimer - FAST - Generic (:08-:10)                                                                                    150                                
PROFAMCHA030902125839125855000016PS - 20(MD) - MENTORS/DALMATIANS/CHIP (:14-:16) (D                                                                          150                                
PROFAMCHA030902125855125925000030Family Charged Fridays - Fridays, 5:00 to 7:30PM*D                                                                          150                                
PROFAMCHA030902125925125945000020xxBrendan Leonard (BTS - INTRO) - Tonight @ 6:30pm                                                                          150                                
ID FAMCHA030902125945130000000015PS Mad Dash Block Open (:13-:15)                                                                                            150                                
PROFAMCHA030902130000130009000009CC Disclaimer - FAST - Family (:08-:10)                                                                                     150                                
PGRFAMCHA030902130000132422002312Mentors                                           Future Tense                                                  C17437A1065607ACC                              
PROFAMCHA030902132321132337000016PS - 21(PH) - DALMATIANS/CHIP/HOZE (:14-:16)                                                                                150                                
PROFAMCHA030902132337132407000030Disney's 101 Dalmatians - Coming Up                                                                                         150                                
ID FAMCHA030902132407132422000015PS Playhouse AM Block Open (:10-:15)                                                                                        150                                
PGRFAMCHA030902132422134822002243Disney's 101 Dalmatians: The Series               EPS # 1-020                                                         A6028607E                                
PROFAMCHA030902134705134721000016PS - 22(PH) - CHIP/HOZE/HOM (:14-:16)                                                                                       150                                
PROFAMCHA030902134721134751000030House of Mouse (FALL 2003) - Today @ 2:35pm                                                                                 150                                
PRCFAMCHA030902134751134810000019Playhouse - FRANKLIN - Party                                                                                                150                                
ID FAMCHA030902134810134822000012PS Playhouse AM Block Open (:10-:15)                                                                                        150                                
PGRFAMCHA030902134822141200002246Chip 'n Dale Rescue Rangers                       Throw Mummy From The Train                                          A6068607E                                
ID FAMCHA030902134822134831000009Magic of Disney - PLAYHOUSE - Shape (:06-:09)                                                                               150                                
PROFAMCHA030902141117141131000014PS - 23(PH) - HOZE/HOM/TIMON (:14-:16)                                                                                      150                                
PRCFAMCHA030902141131141150000019Playhouse - FRANKLIN - Party                                                                                                150                                
ID FAMCHA030902141150141200000010PS Playhouse AM Block Open (:10-:15)                                                                                        150                                
PROFAMCHA030902141200141209000009CC Disclaimer - FAST - Family.ca (:08-:10)                                                                                  150                                
PGRFAMCHA030902141200143600002238Hoze Houndz                                       Ape Is Enough/The Alibi                                       A63397A1065607ECC                              
PROFAMCHA030902143447143501000014PS - 24(PH) - HOM/LION/TEAMO (:14-:16) (DEC)                                                                                150                                
PROFAMCHA030902143501143531000030House of Mouse (FALL 2003) - Coming Up                                                                                      150                                
PRCFAMCHA030902143531143550000019Playhouse - FRANKLIN - Party                                                                                                150                                
ID FAMCHA030902143550143600000010PS Playhouse AM Block Open (:10-:15)                                                                                        150                                
PROFAMCHA030902143600143610000010CC Disclaimer - FAST - Generic (:08-:10)                                                                                    150                                
