SO FAMCHA120201043000043011000011Sign On (oct 1)                                                                                                                                                
PGRFAMCHA120201043011045649002638Katie And Orbie                                   EP: 61                                                        C19665A1065607ECC                              
ID FAMCHA120201045649045655000006Astral ID (HD) (Jan2011)                                                                                                    150                                
PROFAMCHA120201045655045701000006D-JR - Bumper 8 (May2011)                                                                                                   150                                
PGRFAMCHA120201045701051933002232Franny's Feet                                     EP: 40                                                        C31292 1065607ECC                              
PROFAMCHA120201051933052005000032D-JR Icon Story - SWOBB - Maze Part 1 - Coming Up                                                                           150                                
PROFAMCHA120201052005052035000030D-JR Promo - On demand online REVISED - D-JR.ca (M                                                                          150                                
PROFAMCHA120201052035052105000030D-JR Promo - Valentines Fun Day - Sunday Feb 12 @                                                                           150                                
PROFAMCHA120201052105052135000030D-JR Icon Story - SWOBB - Maze Part 2 - Now (May 2                                                                          150                                
PROFAMCHA120201052135052144000009D-JR - Station ID (:09) (May2011)                                                                                           150                                
PGRFAMCHA120201052144054415002231The Secret World of Benjamin Bear                 EP: 27                                                        C27272 1065607ECC                              
ID FAMCHA120201054415054420000005Astral ID (HD) (Jan2011)                                                                                                    150                                
PROFAMCHA120201054420054426000006D-JR - Bumper 7 (May2011)                                                                                                   150                                
PGRFAMCHA120201054426060603002137Harry and His Bucket Full of Dinosaurs            EP: 10                                                        B05029 1065607ECC                              
PROFAMCHA120201060603060611000008D-JR - Station ID (:08) (May2011)                                                                                           150                                
PGRFAMCHA120201060611063005002354Henry's World                                     EP: 01                                                        B66543 1065607ECC                              
ID FAMCHA120201063005063011000006Astral ID (HD) (Jan2011)                                                                                                    150                                
PROFAMCHA120201063011063055000044Disney XD Takeover (HD) Tomorrow Afternoon from 3-                                                                          150                                
PROFAMCHA120201063055063142000047SLOD (HD) Refresh - This Morning @ 7:00 (Dec2011)                                                                           150                                
PGRFAMCHA120201063142063242000100MV Disney (HD) Selena Gomez & The Scene - Hit The                                                                      60685120                                
PROFAMCHA120201063242063327000045xStarstruck What's What (HD) Popcorn Pix - Friday                                                                           150                                
PROFAMCHA120201063327063410000043Phineas&Ferb (HD) Clip Based Promo - Coming Up Nex                                                                          150                                
PRCFAMCHA120201063410063442000032FOD (HD) Family.ca New Look (Oct2011) (2-3x per da                                                                          150                                
PRCFAMCHA120201063442063500000018Family Bumper (HD) - Dominoes ID (Jan 2011)                                                                                 150                                
PGRFAMCHA120201063500065733002233Disney Phineas & Ferb                             EP: 34                                                               6068607ECC                              
PROFAMCHA120201065733065803000030Disney XD (HD) I'm In the Band - How To Refresh -                                                                           150                                
PROFAMCHA120201065803065853000050Feld Entertainment                                                                                                          150                                
PROFAMCHA120201065853065914000021Wingin It (HD) Season 2 Promo - Monday to Thursday                                                                          150                                
PROFAMCHA120201065914070001000047SLOD (HD) Refresh - Coming Up Next (Dec2011)                                                                                150                                
PRCFAMCHA120201070001070010000009Family Bumper (HD) - Dragonflies ID (Jan 2011)                                                                              150                                
PGRFAMCHA120201070010072243002233The Suite Life on Deck                            EP: 14                                                               6068607BCC                              
ID FAMCHA120201072243072248000005Astral ID (HD) (Jan2011)                                                                                                    150                                
PRCFAMCHA120201072248072315000027Radio Disney (HD) Launch Spot (Jan 13 - Jun 24)                                                                             150                                
PROFAMCHA120201072315072406000051Winter Sizzles (HD) Jessie - New Episodes This Win                                                                          150                                
PROFAMCHA120201072406072426000020Hannah (HD) Wig Off - Coming Up Next (Jan2011)                                                                              150                                
PROFAMCHA120201072426072456000030Disney XD Canadian Shield (HD) Event Spot #1 (Jan3                                                                          150                                
PRCFAMCHA120201072456072510000014Family Bumper (HD) - Drums ID (Jan 2011)                                                                                    150                                
PGRFAMCHA120201072510074738002228Hannah Montana                                    EP: 20                                                               6068607BCC                              
PROFAMCHA120201074738074838000100Disney XD (HD) Generic Sizzle Image Spot (Dec2011)                                                                          150                                
PROFAMCHA120201074838074938000100Austin & Ally (HD) Deep Sell - Tonight @ 8:30 (Jan                                                                          150                                
PROFAMCHA120201074938075022000044ANT Farm (HD) Sister Sell - Coming Up Next (July20                                                                          150                                
PRCFAMCHA120201075022075054000032Make Your Break (HD) Promo #1 - Go to Family.ca (J                                                                          150                                
PRCFAMCHA120201075054075111000017Family Bumper (HD) - Fashion ID (Jan 2011)                                                                                  150                                
PGRFAMCHA120201075111081328002217Disney A.N.T. Farm                                EP: 21                                                               6068607BCC                              
ID FAMCHA120201081328081334000006Astral ID (HD) (Jan2011)                                                                                                    150                                
PROFAMCHA120201081334081345000011LU - 04 - PHINEAS AND FERB (HD) (:9 - :11) Jan 201                                                                          150                                
PROFAMCHA120201081345081429000044Disney XD Takeover (HD) Tomorrow Afternoon from 3-                                                                          150                                
PROFAMCHA120201081429081449000020Good Luck Charlie (HD) DuncanBallet - This Afterno                                                                          150                                
PGRFAMCHA120201081449081719000230Phineas & Ferb Take Twos S2  (HD) Guy Fieri (Jan22                                                                     60688120                                
PROFAMCHA120201081719081802000043Phineas&Ferb (HD) Clip Based Promo - Coming Up Nex                                                                          150                                
PRCFAMCHA120201081802081817000015Family Bumper (HD) - Horseshoe ID (Jan 2011)                                                                                150                                
PGRFAMCHA120201081817084049002232Disney Phineas and Ferb                           EP: 06                                                               6068607ECC                              
PROFAMCHA120201084049084121000032D-JR Icon Story - Strawberry Shortcake - Maze Part                                                                          150                                
PROFAMCHA120201084121084151000030D-JR Promo - Valentines Fun Day - Sunday Feb 12 @                                                                           150                                
PROFAMCHA120201084151084157000006D-JR - Short Open (:06) (May2011)                                                                                           150                                
PROFAMCHA120201084157084355000158PH-D Short - Can You...Alligator Manners S1 - 01 -                                                                          150                                
PROFAMCHA120201084355084401000006D-JR - Short Close (:06) (May2011)                                                                                          150                                
PROFAMCHA120201084401084446000045D-JR Promo - JATNP Pirate Rock Week - Continues th                                                                          150                                
PROFAMCHA120201084446084516000030D-JR Icon Story - Strawberry Shortcake - Maze Part                                                                          150                                
PROFAMCHA120201084516084522000006D-JR - Bumper 5 (May2011)                                                                                                   150                                
PGRFAMCHA120201084522090725002203Strawberry Shortcake                              EP: 21                                                               2068605ACC                              
ID FAMCHA120201090725090731000006Astral ID (HD) (Jan2011)                                                                                                    150                                
PROFAMCHA120201090731090801000030D-JR Icon Story - Mickey Mouse Clubhouse - Seesaw                                                                           150                                
PROFAMCHA120201090801090831000030D-JR Promo - On demand online REVISED - D-JR.ca (M                                                                          150                                
PROFAMCHA120201090831090906000035D-JR Promo - Handy Manny - Get more on the channel                                                                          150                                
PROFAMCHA120201090906090936000030D-JR - Standalone ID - Regal (May2011)                                                                                      150                                
PROFAMCHA120201090936091006000030Stella and Sam - Get more Stella & Sam on D-JR the                                                                          150                                
PROFAMCHA120201091006091036000030D-JR Promo - Dare To Dream Contest (Feb1-29)                                                                                150                                
PROFAMCHA120201091036091106000030D-JR Icon Story - Mickey Mouse Clubhouse - Seesaw                                                                           150                                
PROFAMCHA120201091106091116000010D-JR - Station ID (:10) (May2011)                                                                                           150                                
PGRFAMCHA120201091116093517002401Disney's Mickey Mouse Clubhouse                   EP: 39                                                               6068605ACC                              
ID FAMCHA120201093517093523000006Astral ID (HD) (Jan2011)                                                                                                    150                                
PROFAMCHA120201093523093553000030D-JR Promo - Valentines Fun Day - Sunday Feb 12 @                                                                           150                                
PROFAMCHA120201093553093628000035D-JR Promo - Handy Manny - Get more on the channel                                                                          150                                
PROFAMCHA120201093628093634000006D-JR - Bumper 1 (May2011)                                                                                                   150                                
PGRFAMCHA120201093634100040002406Disney Jake and the Never Land Pirates            EP: 19                                                               6068605ACC                              
ID FAMCHA120201100040100046000006Astral ID (HD) (Jan2011)                                                                                                    150                                
PROFAMCHA120201100046100052000006D-JR - Music Video Open (:06) (May2011)                                                                                     150                                
PGRFAMCHA120201100052100337000245D-JR Short - JATNP MV - Jake Sing Along #1 (Jan30-                                                                     60688120                                
PROFAMCHA120201100337100343000006D-JR - Music Video Close (:06) (May2011)                                                                                    150                                
PROFAMCHA120201100343100354000011D-JR - Station ID (:11) (May2011)                                                                                           150                                
PGRFAMCHA120201100354102800002406Disney Jake and the Never Land Pirates            EP: 15                                                               6068605ACC                              
PROFAMCHA120201102800102830000030D-JR Icon Story - Mickey Mouse Clubhouse - Seesaw                                                                           150                                
PROFAMCHA120201102830102900000030D-JR Promo - Dare To Dream Contest (Feb1-29)                                                                                150                                
PROFAMCHA120201102900102930000030D-JR Icon Story - Mickey Mouse Clubhouse - Seesaw                                                                           150                                
PROFAMCHA120201102930102936000006D-JR - Bumper 3 (May2011)                                                                                                   150                                
PGRFAMCHA120201102936105336002400Disney's Mickey Mouse Clubhouse                   EP: 06                                                               6068605ACC                              
ID FAMCHA120201105336105341000005Astral ID (HD) (Jan2011)                                                                                                    150                                
PROFAMCHA120201105341105352000011LU - 05 - SLZC/SLZC 11:30am (HD) (:9 - :11) Jan 20                                                                          150                                
PROFAMCHA120201105352105436000044Disney XD Takeover (HD) Tomorrow Afternoon from 3-                                                                          150                                
PROFAMCHA120201105436105536000100Austin & Ally (HD) Deep Sell - Tonight @ 8:30 (Jan                                                                          150                                
PGRFAMCHA120201105536105806000230Phineas & Ferb Take Twos S2  (HD) Ben Stiller (Jan                                                                     60688120                                
PROFAMCHA120201105806105842000036xSLOZ+C (HD) Refresh Jan2011 - Coming Up Next (Jan                                                                          150                                
PRCFAMCHA120201105842105914000032FOD (HD) Family.ca New Look (Oct2011) (2-3x per da                                                                          150                                
PRCFAMCHA120201105914105930000016Family Bumper (HD) - Hot Potato ID (Jan 2011)                                                                               150                                
ID FAMCHA120201105930105935000005xMagic of Disney Bumper (HD)(:5-:6) (Jan 2011)                                                                              150                                
PGRFAMCHA120201105935112215002240The Suite Life of Zack and Cody                   EP: 31                                                               6068607BCC                              
PROFAMCHA120201112215112226000011LU - 06 - SLZC/WIZARDS 12pm (HD) (:9 - :11) Jan 20                                                                          150                                
PRCFAMCHA120201112226112258000032Make Your Break (HD) Promo #1 - Go to Family.ca (J                                                                          150                                
PROFAMCHA120201112258112352000054Winter Sizzles (HD) So Random - New Episodes This                                                                           150                                
PROFAMCHA120201112352112437000045xStarstruck What's What (HD) Popcorn Pix - Friday                                                                           150                                
PGRFAMCHA120201112437112810000333MV Non Disney (HD) Charlie - Good As Gone (Jan 11                                                                      10615120                                
PROFAMCHA120201112810112850000040xSLOZ+C (HD) Refresh Nov2011 - Coming Up Next (Dec                                                                          150                                
PROFAMCHA120201112850112920000030Disney XD (HD) Kick Buttowski Classical - Triple S                                                                          150                                
PRCFAMCHA120201112920112933000013Family Bumper (HD) - Karate ID (Jan 2011)                                                                                   150                                
ID FAMCHA120201112933112938000005xMagic of Disney Bumper (HD)(:5-:6) (Jan 2011)                                                                              150                                
PGRFAMCHA120201112938115218002240The Suite Life of Zack and Cody                   EP: 34                                                               6068607BCC                              
ID FAMCHA120201115218115224000006Astral ID (HD) (Jan2011)                                                                                                    150                                
PROFAMCHA120201115224115235000011LU - 07 - WIZARDS/HANNAH 12:30pm (HD) (:9 - :11) J                                                                          150                                
PRCFAMCHA120201115235115302000027Radio Disney (HD) Launch Spot (Jan 13 - Jun 24)                                                                             150                                
PROFAMCHA120201115302115332000030Wingin It (HD) Clip Retag - This Afternoon @ 5 (Ja                                                                          150                                
PGRFAMCHA120201115332115748000416MV Non Disney (HD) Cody Simpson - Not Just You (No                                                                     10615120                                
PROFAMCHA120201115748115818000030Jessie (HD) Family Sell - Friday Night @ 7:00 (Oct                                                                          150                                
PROFAMCHA120201115818115843000025D-JR Promo - JATNP - Get more on the channel REV (                                                                          150                                
PROFAMCHA120201115843115906000023xWOWP (HD) Harper - Coming Up Next (Jan2011)                                                                                150                                
PROFAMCHA120201115906115936000030Disney XD Canadian Shield (HD) Event Spot #1 (Jan3                                                                          150                                
PRCFAMCHA120201115936115944000008Family Bumper (HD) - Origami ID (Jan 2011)                                                                                  150                                
PGRFAMCHA120201115944122433002449Disney Wizards of Waverly Place                   EP: 27                                                               6068607BCC                              
PROFAMCHA120201122433122444000011LU - 08 - HANNAH/SWAC @ 1:00pm (HD) (:9 - :11) Sep                                                                          150                                
PROFAMCHA120201122444122514000030Disney XD (HD) Kickin It "This Season" - Sat Morni                                                                          150                                
PGRFAMCHA120201122514122854000340MV Non Disney (HD) JD - Sparks Are Gonna Fly (Jan                                                                      10615120                                
PROFAMCHA120201122854122938000044xHannah (HD) Refresh - Coming Up Next (May2011)                                                                             150                                
PRCFAMCHA120201122938122948000010Family Bumper (HD) - Satelite ID (Jan 2011)                                                                                 150                                
PGRFAMCHA120201122948125221002233Hannah Montana                                    EP: 17                                                               6068607BCC                              
ID FAMCHA120201125221125226000005Astral ID (HD) (Jan2011)                                                                                                    150                                
PROFAMCHA120201125226125237000011LU - 09 - SWAC/Cory @ 1:30pm (HD) (:9 - :11) Sept2                                                                          150                                
PROFAMCHA120201125237125321000044Disney XD Takeover (HD) Tomorrow Afternoon from 3-                                                                          150                                
PROFAMCHA120201125321125406000045Cory In The House (HD) Clip Based Promo - This Aft                                                                          150                                
PGRFAMCHA120201125406125712000306MV Disney (HD) Austin & Ally - A Billion Hits (no                                                                      60685120                                
PROFAMCHA120201125712125730000018SLOD (HD) Mommy Clip Retag -Weekday Afternoons @ 2                                                                          150                                
PROFAMCHA120201125730125830000100ANT Farm (HD) Chyna Sell - Friday Night @ 7:30 (Se                                                                          150                                
PROFAMCHA120201125830125900000030Stella and Sam - Get more Stella & Sam on D-JR the                                                                          150                                
PROFAMCHA120201125900125930000030xSWAC (HD) Tawnitown - Coming Up Next (Jan2011)                                                                             150                                
PRCFAMCHA120201125930125951000021Family Bumper (HD) - Wallpaper ID (Jan 2011)                                                                                150                                
PGRFAMCHA120201125951132209002218Disney Sonny With A Chance                        EP: 08                                                               6068507BCC                              
PROFAMCHA120201132209132220000011LU - 10 - Cory/SLOD @ 2:00pm (HD) (:9 - :11) Sept2                                                                          150                                
PROFAMCHA120201132220132305000045Disney XD (HD) Power Play Sat Football Ed - Sat Af                                                                          150                                
PROFAMCHA120201132305132358000053Winter Sizzles (HD) ANT Farm - New Episodes This W                                                                          150                                
PROFAMCHA120201132358132428000030Wingin It (HD) Clip Retag - This Afternoon @ 5 (Ja                                                                          150                                
PGRFAMCHA120201132428132816000348MV Non Disney (HD) Mimoza Duot ft Kardinall Offica                                                                     10615120                                
PROFAMCHA120201132816132901000045xCory In The House (HD) Clip Based Promo - Coming                                                                           150                                
PROFAMCHA120201132901132946000045xStarstruck What's What (HD) Popcorn Pix - Friday                                                                           150                                
PRCFAMCHA120201132946132956000010Family Bumper (HD) - Amoeba ID (Jan 2011)                                                                                   150                                
PGRFAMCHA120201132956135236002240Disney Cory in the House                          EP: 03                                                               6068607BCC                              
ID FAMCHA120201135236135242000006Astral ID (HD) (Jan2011)                                                                                                    150                                
PROFAMCHA120201135242135253000011LU - 11 - SLOD/Neds @ 2:30pm (HD) (:9 - :11) Sept2                                                                          150                                
PRCFAMCHA120201135253135325000032Make Your Break (HD) Promo #1 - Go to Family.ca (J                                                                          150                                
PROFAMCHA120201135325135401000036xNed's DSSG (HD) School Tour - This Afternoon @ 2:                                                                          150                                
PGRFAMCHA120201135401135501000100MV Disney (HD) Selena Gomez & The Scene - Hit The                                                                      60685120                                
PROFAMCHA120201135501135544000043Phineas&Ferb (HD) Clip Based Promo - Weekday After                                                                          150                                
PROFAMCHA120201135544135644000100Austin & Ally (HD) Deep Sell - Tonight @ 8:30 (Jan                                                                          150                                
PROFAMCHA120201135644135729000045xSo Random (HD) Super Tease Promo - New Episode Fr                                                                          150                                
PROFAMCHA120201135729135817000048xShake It Up (HD) Dance Retag -Friday Night @ 6:00                                                                          150                                
PROFAMCHA120201135817135852000035D-JR Promo - Handy Manny - Get more on the channel                                                                          150                                
PROFAMCHA120201135852135939000047SLOD (HD) Refresh - Coming Up Next (Dec2011)                                                                                150                                
PRCFAMCHA120201135939135955000016Family Bumper (HD) - Hot Potato ID (Jan 2011)                                                                               150                                
PGRFAMCHA120201135955142213002218The Suite Life on Deck                            EP: 20                                                               6068607BCC                              
PROFAMCHA120201142213142224000011LU - 12 - NED'S/DEREK 3pm (HD) (:9 - :11) Jan 2011                                                                          150                                
PROFAMCHA120201142224142239000015Disney XD (HD) Zeke & Luther - Refresh Promo - Wee                                                                          150                                
PROFAMCHA120201142239142312000033xLife W D (HD) Undercover REV - This Afternoon @ 3                                                                          150                                
PROFAMCHA120201142312142342000030Wingin It (HD) Clip Retag - Monday-Wednesday After                                                                          150                                
PGRFAMCHA120201142342142715000333MV Non Disney (HD) Charlie - Good As Gone (Jan 11                                                                      10615120                                
PROFAMCHA120201142715142755000040Good Luck Charlie (HD) Refresh - This Afternoon @                                                                           150                                
PROFAMCHA120201142755142823000028Really Me (HD) Generic Promo - Thursday Night @ 9:                                                                          150                                
PRCFAMCHA120201142823142908000045WUW (HD) Series Promo - Sunday Morning @ 9:30 (Mar                                                                          150                                
PROFAMCHA120201142908142944000036xNed's DSSG (HD) School Tour - Coming Up Next (Jan                                                                          150                                
PRCFAMCHA120201142944143002000018Family Bumper (HD) - Dominoes ID (Jan 2011)                                                                                 150                                
PGRFAMCHA120201143002145419002417Ned's Declassified School Survival Guide          EP: 30                                                               2068807BCC                              
ID FAMCHA120201145419145424000005Astral ID (HD) (Jan2011)                                                                                                    150                                
PROFAMCHA120201145424145454000030Disney XD Canadian Shield (HD) Event Spot #1 (Jan3                                                                          150                                
PROFAMCHA120201145454145544000050Feld Entertainment                                                                                                          150                                
PROFAMCHA120201145544145604000020Phineas&Ferb (HD) Fall Sell Retag - This Afternoon                                                                          150                                
PGRFAMCHA120201145604145834000230Phineas & Ferb Take Twos S2  (HD) Guy Fieri (Jan22                                                                     60688120                                
PROFAMCHA120201145834145857000023xWOWP (HD) Harper - Tonight @ 6:30 (Jan2011)                                                                                150                                
PROFAMCHA120201145857145927000030D-JR Promo - MMCH - Get more MMCH on D-JR the chan                                                                          150                                
PROFAMCHA120201145927150000000033xLife W D (HD) Undercover REV - Coming Up Next (Ja                                                                          150                                
PRCFAMCHA120201150000150009000009Family Bumper (HD) - Dragonflies ID (Jan 2011)                                                                              150                                
PGRFAMCHA120201150009152240002231Life with Derek                                   EP: 20                                                        C26822 1065607BCC                              
PROFAMCHA120201152240152340000100Disney XD (HD) Generic Sizzle Image Spot (Dec2011)                                                                          150                                
PROFAMCHA120201152340152425000045Universal Pictures                                                                                                          150                                
PROFAMCHA120201152425152510000045xStarstruck What's What (HD) Popcorn Pix - Friday                                                                           150                                
PGRFAMCHA120201152510152850000340MV Non Disney (HD) JD - Sparks Are Gonna Fly (Jan                                                                      10615120                                
PROFAMCHA120201152850152920000030Pair Of Kings (HD) Repack - Coming Up Next (May201                                                                          150                                
PRCFAMCHA120201152920152952000032FOD (HD) Family.ca New Look (Oct2011) (2-3x per da                                                                          150                                
PRCFAMCHA120201152952153006000014Family Bumper (HD) - Drums ID (Jan 2011)                                                                                    150                                
PGRFAMCHA120201153006155209002203Disney Pair of Kings                              EP: 07                                                               6068707BCC                              
ID FAMCHA120201155209155215000006Astral ID (HD) (Jan2011)                                                                                                    150                                
PROFAMCHA120201155215155226000011LU - 15 - PHINEAS/PHINEAS 4:30pm (HD) (:9 - :11) J                                                                          150                                
PRCFAMCHA120201155226155253000027Radio Disney (HD) Launch Spot (Jan 13 - Jun 24)                                                                             150                                
PROFAMCHA120201155253155338000045Warner Bros. Pictures                                                                                                       150                                
PROFAMCHA120201155338155409000031Fish Hooks (HD) Generic 2 Retag - New Episode Sund                                                                          150                                
PGRFAMCHA120201155409155825000416MV Non Disney (HD) Cody Simpson - Not Just You (No                                                                     10615120                                
PROFAMCHA120201155825155908000043Phineas&Ferb (HD) Clip Based Promo - Coming Up Nex                                                                          150                                
PROFAMCHA120201155908155952000044Disney XD Takeover (HD) Tomorrow Afternoon from 3-                                                                          150                                
PRCFAMCHA120201155952160009000017Family Bumper (HD) - Fashion ID (Jan 2011)                                                                                  150                                
PGRFAMCHA120201160009162242002233Disney Phineas and Ferb                           EP: 06                                                               6068607ECC                              
PROFAMCHA120201162242162312000030Disney XD (HD) I'm In the Band - How To Refresh -                                                                           150                                
PROFAMCHA120201162312162357000045Walt Disney Studios Home Entertainment                                                                                      150                                
PROFAMCHA120201162357162427000030Wingin It (HD) Clip Retag - This Afternoon @ 5 (Ja                                                                          150                                
PGRFAMCHA120201162427162733000306MV Disney (HD) Austin & Ally - A Billion Hits (no                                                                      60685120                                
PROFAMCHA120201162733162817000044ANT Farm (HD) Sister Sell - Friday Night @ 7:30 (J                                                                          150                                
PROFAMCHA120201162817162914000057Winter Sizzles (HD) Fish Hooks - New Episodes This                                                                          150                                
PROFAMCHA120201162914162957000043Phineas&Ferb (HD) Clip Based Promo - Coming Up Nex                                                                          150                                
PRCFAMCHA120201162957163012000015Family Bumper (HD) - Horseshoe ID (Jan 2011)                                                                                150                                
PGRFAMCHA120201163012165246002234Disney Phineas & Ferb                             EP: 12                                                               6068607ECC                              
ID FAMCHA120201165246165251000005Astral ID (HD) (Jan2011)                                                                                                    150                                
PROFAMCHA120201165251165336000045xStarstruck What's What (HD) Popcorn Pix - Friday                                                                           150                                
PROFAMCHA120201165336165421000045Warner Bros. Pictures                                                                                                       150                                
PROFAMCHA120201165421165501000040Good Luck Charlie (HD) Refresh - Monday to Thursda                                                                          150                                
PGRFAMCHA120201165501165849000348MV Non Disney (HD) Mimoza Duot ft Kardinall Offica                                                                     10615120                                
PROFAMCHA120201165849165949000100Austin & Ally (HD) Deep Sell - Tonight @ 8:30 (Jan                                                                          150                                
PROFAMCHA120201165949170010000021Wingin It (HD) Season 2 Promo - ALEX - Coming Up N                                                                          150                                
PRCFAMCHA120201170010170023000013Family Bumper (HD) - Karate ID (Jan 2011)                                                                                   150                                
PRCFAMCHA120201170023170037000014xDescriptive Video Slate (HD) (Jan 2011)                                                                                    150                                
PGRFAMCHA120201170037172310002233Wingin' It                                        EP: 06                                                        C32727 1065607ACD                              
PROFAMCHA120201172310172321000011LU - 18 - GLC/SLOD @ 6:00pm (HD) (:9 - :11) Sept20                                                                          150                                
PRCFAMCHA120201172321172353000032Make Your Break (HD) Promo #1 - Go to Family.ca (J                                                                          150                                
PROFAMCHA120201172353172433000040Walt Disney Studios Home Entertainment                                                                                      150                                
PROFAMCHA120201172433172451000018SLOD (HD) Mommy Clip - Tonight @ 6 (May 2011)                                                                               150                                
PROFAMCHA120201172451172536000045Feld Entertainment                                                                                                          150                                
PROFAMCHA120201172536172611000035DEBRA! (HD) Hypotenuse Promo - Sunday Night @ 6:30                                                                          150                                
PGRFAMCHA120201172611172841000230Phineas & Ferb Take Twos S2  (HD) Ben Stiller (Jan                                                                     60688120                                
PROFAMCHA120201172841172846000005WOWP (HD) ID - Jennifer Stone 1 "Coming Up Next" (                                                                          150                                
PROFAMCHA120201172846172931000045Universal Pictures                                                                                                          150                                
PROFAMCHA120201172931173001000030Disney XD (HD) Kick Buttowski Classical - Triple S                                                                          150                                
PRCFAMCHA120201173001173017000016Family Bumper (HD) - Hot Potato ID (Jan 2011)                                                                               150                                
PGRFAMCHA120201173017175251002234Disney Good Luck Charlie                          EP: 14                                                               6068807BCC                              
ID FAMCHA120201175251175257000006Astral ID (HD) (Jan2011)                                                                                                    150                                
PROFAMCHA120201175257175308000011LU - 19 - SLOD/WOWP @ 6:30pm (HD) (:9 - :11) Sept2                                                                          150                                
PROFAMCHA120201175308175352000044Disney XD Takeover (HD) Tomorrow Afternoon from 3-                                                                          150                                
PROFAMCHA120201175352175437000045Universal Pictures                                                                                                          150                                
PROFAMCHA120201175437175451000014xWOWP (HD) Alex S3 GENERIC - Tonight @ 6:30pm (Jan                                                                          150                                
PGRFAMCHA120201175451175824000333MV Non Disney (HD) Charlie - Good As Gone (Jan 11                                                                      10615120                                
PROFAMCHA120201175824175847000023GLC/SIU (HD) Monday to Thurday Nights Starting @ 7                                                                          150                                
PROFAMCHA120201175847175932000045Walt Disney Studios Home Entertainment                                                                                      150                                
PRCFAMCHA120201175932175940000008Family Bumper (HD) - Origami ID (Jan 2011)                                                                                  150                                
PGRFAMCHA120201175940182513002533The Suite Life on Deck                            EP: 30                                                               6068607BCC                              
PROFAMCHA120201182513182524000011LU - 20 - WOWP/SIU @ 7:00pm (HD) (:9 - :11) Sept20                                                                          150                                
PROFAMCHA120201182524182554000030Disney XD (HD) Kickin It "This Season" - Sat Morni                                                                          150                                
PROFAMCHA120201182554182639000045Feld Entertainment                                                                                                          150                                
PROFAMCHA120201182639182709000030Jessie (HD) Family Sell - Friday Night @ 7:00 (Oct                                                                          150                                
PROFAMCHA120201182709182754000045xStarstruck What's What (HD) Popcorn Pix - Friday                                                                           150                                
PGRFAMCHA120201182754182854000100MV Disney (HD) Selena Gomez & The Scene - Hit The                                                                      60685120                                
PROFAMCHA120201182854182924000030xWOWP (HD) Spellbook - Coming Up Next (Oct2011)                                                                             150                                
PRCFAMCHA120201182924182934000010Family Bumper (HD) - Satelite ID (Jan 2011)                                                                                 150                                
PGRFAMCHA120201182934185208002234Disney Wizards of Waverly Place                   EP: 08                                                               6068507BCC                              
ID FAMCHA120201185208185214000006Astral ID (HD) (Jan2011)                                                                                                    150                                
PROFAMCHA120201185214185225000011LU - 21 - SIU/GLC @ 7:30pm (HD) (:9 - :11) Sept201                                                                          150                                
PRCFAMCHA120201185225185257000032FOD (HD) Family.ca New Look (Oct2011) (2-3x per da                                                                          150                                
PROFAMCHA120201185257185337000040Walt Disney Studios Home Entertainment                                                                                      150                                
PROFAMCHA120201185337185357000020Good Luck Charlie (HD) DuncanBallet - Tonight @ 7:                                                                          150                                
PGRFAMCHA120201185357185813000416MV Non Disney (HD) Cody Simpson - Not Just You (No                                                                     10615120                                
PROFAMCHA120201185813185843000030Shake It Up (HD) Repack - Coming Up Next (May2011)                                                                          150                                
PROFAMCHA120201185843185913000030Disney XD Canadian Shield (HD) Event Spot #1 (Jan3                                                                          150                                
PRCFAMCHA120201185913185934000021Family Bumper (HD) - Wallpaper ID (Jan 2011)                                                                                150                                
PGRFAMCHA120201185934192239002305Disney Shake It Up                                EP: 13                                                               6068707BCC                              
PROFAMCHA120201192239192250000011LU - 22 - GLC/SLOD @ 8:00pm (HD) (:9 - :11) Sept20                                                                          150                                
PROFAMCHA120201192250192335000045Disney XD (HD) Power Play Sat Football Ed - Sat Af                                                                          150                                
PROFAMCHA120201192335192420000045Universal Pictures                                                                                                          150                                
PROFAMCHA120201192420192520000100Austin & Ally (HD) Deep Sell - Tonight @ 8:30 (Jan                                                                          150                                
PGRFAMCHA120201192520192900000340MV Non Disney (HD) JD - Sparks Are Gonna Fly (Jan                                                                      10615120                                
PROFAMCHA120201192900192940000040Good Luck Charlie (HD) Refresh - Coming Up Next (S                                                                          150                                
PRCFAMCHA120201192940192950000010Family Bumper (HD) - Amoeba ID (Jan 2011)                                                                                   150                                
PGRFAMCHA120201192950195224002234Disney Good Luck Charlie                          EP: 09                                                               6068807BCC                              
ID FAMCHA120201195224195230000006Astral ID (HD) (Jan2011)                                                                                                    150                                
PROFAMCHA120201195230195314000044Disney XD Takeover (HD) Tomorrow Afternoon from 3-                                                                          150                                
PROFAMCHA120201195314195359000045Universal Pictures                                                                                                          150                                
PROFAMCHA120201195359195459000100Austin & Ally (HD) Deep Sell - Tonight @ 8:30 (Jan                                                                          150                                
PGRFAMCHA120201195459195805000306MV Disney (HD) Austin & Ally - A Billion Hits (no                                                                      60685120                                
PROFAMCHA120201195805195825000020Phineas&Ferb (HD) Fall Sell Retag -Weekday Afterno                                                                          150                                
PROFAMCHA120201195825195912000047SLOD (HD) Refresh - Coming Up Next (Dec2011)                                                                                150                                
PRCFAMCHA120201195912195939000027Radio Disney (HD) Launch Spot (Jan 13 - Jun 24)                                                                             150                                
PRCFAMCHA120201195939195950000011Family Bumper (HD) - Bobbleheads ID (Jan 2011)                                                                              150                                
PGRFAMCHA120201195950202224002234The Suite Life on Deck                            EP: 14                                                               6068607BCC                              
PROFAMCHA120201202224202239000015Disney XD (HD) Zeke & Luther - Refresh Promo - Wee                                                                          150                                
PROFAMCHA120201202239202324000045Warner Bros. Pictures                                                                                                       150                                
PROFAMCHA120201202324202354000030Jessie (HD) Family Sell - Friday Night @ 7:00 (Oct                                                                          150                                
PGRFAMCHA120201202354202742000348MV Non Disney (HD) Mimoza Duot ft Kardinall Offica                                                                     10615120                                
PROFAMCHA120201202742202826000044ANT Farm (HD) Sister Sell - Friday Night @ 7:30 (J                                                                          150                                
PROFAMCHA120201202826202926000100Austin & Ally (HD) Deep Sell - Coming Up Next (Jan                                                                          150                                
PRCFAMCHA120201202926202944000018Family Bumper (HD) - Dominoes ID (Jan 2011)                                                                                 150                                
PGRFAMCHA120201202944205316002332Disney Austin & Ally                              EP: 02                                                               6068807BCC                              
ID FAMCHA120201205316205321000005Astral ID (HD) (Jan2011)                                                                                                    150                                
PRCFAMCHA120201205321205353000032Make Your Break (HD) Promo #1 - Go to Family.ca (J                                                                          150                                
PROFAMCHA120201205353205425000032Wingin It (HD) Angel Retag - Tomorrow Night @ 9:30                                                                          150                                
PGRFAMCHA120201205425205758000333MV Non Disney (HD) Charlie - Good As Gone (Jan 11                                                                      10615120                                
PROFAMCHA120201205758205843000045xStarstruck What's What (HD) Popcorn Pix - Friday                                                                           150                                
PROFAMCHA120201205843205931000048Shake It Up (HD) Refresh - Coming Up Next (June201                                                                          150                                
PRCFAMCHA120201205931205947000016Family Bumper (HD) - Hot Potato ID (Jan 2011)                                                                               150                                
PGRFAMCHA120201205947212307002320Disney Shake It Up                                EP: 10                                                               6068707BCC                              
PROFAMCHA120201212307212318000011LU - 26 - Wingin It/Elephant Princess @ 10:00pm (H                                                                          150                                
PROFAMCHA120201212318212418000100Disney XD (HD) Generic Sizzle Image Spot (Dec2011)                                                                          150                                
ID FAMCHA120201212418212448000030Astral ID (HD) Corporate ID "President" (Post 9pm                                                                           150                                
PROFAMCHA120201212448212533000045Elephant Princess (HD) Refresh - Tonight @ 10:00 (                                                                          150                                
PGRFAMCHA120201212533212926000353MV Non Disney (HD) Allstar Weekend - Blame It On S                                                                     10615120                                
PROFAMCHA120201212926212947000021Wingin It (HD) Season 2 Promo - DENISE - Coming Up                                                                          150                                
PRCFAMCHA120201212947213001000014Family Bumper (HD) - Drums ID (Jan 2011)                                                                                    150                                
PGRFAMCHA120201213001215233002232Wingin' It                                        EP: 01                                                        C32356 1055607ACD3                             
ID FAMCHA120201215233215239000006Astral ID (HD) (Jan2011)                                                                                                    150                                
PROFAMCHA120201215239215250000011LU - 27 - Elephant Princess/Raven @ 10:30pm (HD) (                                                                          150                                
PROFAMCHA120201215250215320000030Disney XD (HD) I'm In the Band - How To Refresh -                                                                           150                                
PROFAMCHA120201215320215358000038xThat's So Raven (HD) Dance Retag - Tonight @ 10:3                                                                          150                                
PGRFAMCHA120201215358215753000355MV Non Disney (HD) Victoria Duffield - Shut Up And                                                                     10615120                                
PROFAMCHA120201215753215853000100Austin & Ally (HD) Deep Sell - New Episode Friday                                                                           150                                
PROFAMCHA120201215853215930000037Elephant Princess (HD) One - Coming Up Next (Jan20                                                                          150                                
PRCFAMCHA120201215930215947000017Family Bumper (HD) - Fashion ID (Jan 2011)                                                                                  150                                
PGRFAMCHA120201215947222444002457The Elephant Princess                             EP: 13                                                               7068507ACC                              
PROFAMCHA120201222444222455000011LU - 28 - Raven/Neds @ 11:00pm (HD) (:9 - :11) Sep                                                                          150                                
PROFAMCHA120201222455222539000044Disney XD Takeover (HD) Tomorrow Afternoon from 3-                                                                          150                                
PGRFAMCHA120201222539222809000230Phineas & Ferb Take Twos S2  (HD) Guy Fieri (Jan22                                                                     60688120                                
PROFAMCHA120201222809222829000020Good Luck Charlie (HD) DuncanBallet - Weekend Afte                                                                          150                                
PROFAMCHA120201222829222904000035D-JR Promo - Handy Manny - Get more on the channel                                                                          150                                
PROFAMCHA120201222904222942000038xThat's So Raven (HD) Dance Retag - Coming Up Next                                                                          150                                
PRCFAMCHA120201222942222957000015Family Bumper (HD) - Horseshoe ID (Jan 2011)                                                                                150                                
ID FAMCHA120201222957223002000005xMagic of Disney Bumper (HD)(:5-:6) (Jan 2011)                                                                              150                                
PGRFAMCHA120201223002225242002240That's So Raven                                   EPS # 1-030                                                          6068607BCC                              
ID FAMCHA120201225242225247000005Astral ID (HD) (Jan2011)                                                                                                    150                                
PROFAMCHA120201225247225258000011LU - 29 - Neds/Zoey @ 11:30pm (HD) (:9 - :11) Sept                                                                          150                                
PROFAMCHA120201225258225343000045Disney XD (HD) Power Play Sat Football Ed - Sat Af                                                                          150                                
PROFAMCHA120201225343225400000017Zoey 101 (HD) Retag - Tonight @ 11:30 (Sept2011)                                                                            150                                
PGRFAMCHA120201225400225559000159MV Non Disney (HD) Carly Rae Jepsen - Call Me Mayb                                                                     10615120                                
PROFAMCHA120201225559225644000045xSo Random (HD) Super Tease Promo - New Episode Fr                                                                          150                                
PROFAMCHA120201225644225744000100Austin & Ally (HD) Deep Sell - New Episode Friday                                                                           150                                
PROFAMCHA120201225744225828000044ANT Farm (HD) Sister Sell - Friday Night @ 7:30 (J                                                                          150                                
PROFAMCHA120201225828225904000036xNed's DSSG (HD) School Tour - Coming Up Next (Jan                                                                          150                                
PROFAMCHA120201225904225949000045xStarstruck What's What (HD) Popcorn Pix - Friday                                                                           150                                
PRCFAMCHA120201225949230005000016Family Bumper (HD) - Hot Potato ID (Jan 2011)                                                                               150                                
PGRFAMCHA120201230005232422002417Ned's Declassified School Survival Guide          EP: 30                                                               2068807BCC                              
PROFAMCHA120201232422232433000011LU - 30 - Zoey/Life With Derek @ 12:00am (HD) (:9                                                                           150                                
PROFAMCHA120201232433232517000044Disney XD Takeover (HD) Tomorrow Afternoon from 3-                                                                          150                                
PROFAMCHA120201232517232545000028xLife W D (HD) Retag - Every Night @ 12:00 (Sept20                                                                          150                                
PROFAMCHA120201232545232639000054Winter Sizzles (HD) So Random - New Episodes This                                                                           150                                
PROFAMCHA120201232639232727000048xShake It Up (HD) Dance Retag -Friday Night @ 6:00                                                                          150                                
ID FAMCHA120201232727232757000030Astral ID (HD) Corporate ID "President" (Post 9pm                                                                           150                                
PROFAMCHA120201232757232857000100Jessie (HD) Character Sell - Friday Night @ 7:00 (                                                                          150                                
PROFAMCHA120201232857232922000025D-JR Promo - JATNP - Get more on the channel REV (                                                                          150                                
PROFAMCHA120201232922232939000017xZoey 101 (HD) Retag - Coming Up Next (Sept2011)                                                                            150                                
PRCFAMCHA120201232939233011000032FOD (HD) Family.ca New Look (Oct2011) (2-3x per da                                                                          150                                
PRCFAMCHA120201233011233019000008Family Bumper (HD) - Origami ID (Jan 2011)                                                                                  150                                
PGRFAMCHA120201233019235251002232Zoey 101                                          EPS # 06                                                             2068807BCC                              
ID FAMCHA120201235251235257000006Astral ID (HD) (Jan2011)                                                                                                    150                                
PROFAMCHA120201235257235308000011LU - 31 - Life With Derek/Naturally Sadie @ 12:30a                                                                          150                                
PRCFAMCHA120201235308235335000027Radio Disney (HD) Launch Spot (Jan 13 - Jun 24)                                                                             150                                
PROFAMCHA120201235335235415000040xNaturally Sadie (HD) Romantic - Tonight @ 12:30 (                                                                          150                                
PGRFAMCHA120201235415235748000333MV Non Disney (HD) Charlie - Good As Gone (Jan 11                                                                      10615120                                
PROFAMCHA120201235748235848000100Austin & Ally (HD) Deep Sell - New Episode Friday                                                                           150                                
PROFAMCHA120201235848235919000031Fish Hooks (HD) Generic 2 Retag - New Episode Sund                                                                          150                                
PROFAMCHA120201235919235952000033xLife W D (HD) Undercover REV - Coming Up Next (Ja                                                                          150                                
PROFAMCHA120201235952000007000015Disney XD (HD) Zeke & Luther - Refresh Promo - Wee                                                                          150                                
PRCFAMCHA120201000007000020000013Family Bumper (HD) - Karate ID (Jan 2011)                                                                                   150                                
PGRFAMCHA120201000020002250002230Life with Derek                                   EP: 05                                                        C23968A1065607BCC                              
PROFAMCHA120201002250002301000011LU - 32 - SADIE/HANNAH @ 1:00am (HD) (:9 - :11) Ja                                                                          150                                
PROFAMCHA120201002301002345000044Disney XD Takeover (HD) Tomorrow Afternoon from 3-                                                                          150                                
PGRFAMCHA120201002345002738000353MV Non Disney (HD) Allstar Weekend - Blame It On S                                                                     10615120                                
PROFAMCHA120201002738002823000045xSo Random (HD) Super Tease Promo - New Episode Fr                                                                          150                                
PROFAMCHA120201002823002903000040xNaturally Sadie (HD) Romantic - Coming Up Next (J                                                                          150                                
PRCFAMCHA120201002903002935000032Make Your Break (HD) Promo #1 - Go to Family.ca (J                                                                          150                                
PRCFAMCHA120201002935002945000010Family Bumper (HD) - Satelite ID (Jan 2011)                                                                                 150                                
PGRFAMCHA120201002945005217002232Naturally, Sadie                                  EP: 55                                                        C29639 1065607ACC                              
ID FAMCHA120201005217005222000005Astral ID (HD) (Jan2011)                                                                                                    150                                
PROFAMCHA120201005222005233000011LU - 33 - HANNAH/CORY 1:25am (HD) (:9 - :11) Jan 2                                                                          150                                
PROFAMCHA120201005233005303000030Disney XD (HD) Kickin It "This Season" - Sat Morni                                                                          150                                
ID FAMCHA120201005303005333000030Astral ID (HD) Corporate ID "President" (Post 9pm                                                                           150                                
PROFAMCHA120201005333005417000044ANT Farm (HD) Sister Sell - Friday Night @ 7:30 (J                                                                          150                                
PGRFAMCHA120201005417005812000355MV Non Disney (HD) Victoria Duffield - Shut Up And                                                                     10615120                                
PROFAMCHA120201005812005856000044xHannah (HD) Refresh - Coming Up Next (May2011)                                                                             150                                
PROFAMCHA120201005856005941000045xStarstruck What's What (HD) Popcorn Pix - Friday                                                                           150                                
PRCFAMCHA120201005941005951000010Family Bumper (HD) - Amoeba ID (Jan 2011)                                                                                   150                                
PGRFAMCHA120201005951012221002230Hannah Montana                                    EP: 16                                                               6068807BCC                              
PROFAMCHA120201012221012232000011LU - 34 - CORY/PHIL OF THE FUTURE 1:45am (HD) (:9                                                                           150                                
PRCFAMCHA120201012232012253000021Family Bumper (HD) - Wallpaper ID (Jan 2011)                                                                                150                                
PGRFAMCHA120201012253014530002237Disney Cory in the House                          EP: 03                                                               6068607BCC                              
ID FAMCHA120201014530014535000005Astral ID (HD) (Jan2011)                                                                                                    150                                
PROFAMCHA120201014535014546000011LU - 35 - PHIL OF THE FUTURE/LIZZIE MCGUIRE 2:10am                                                                          150                                
PRCFAMCHA120201014546014557000011Family Bumper (HD) - Bobbleheads ID (Jan 2011)                                                                              150                                
ID FAMCHA120201014557014602000005xMagic of Disney Bumper (HD)(:5-:6) (Jan 2011)                                                                              150                                
PGRFAMCHA120201014602020840002238Phil of the Future                                EPS # 02                                                             6068607BCC                              
PROFAMCHA120201020840020851000011LU - 36 - LIZZIE MCGUIRE/DEREK 2:30am (HD) (:9 - :                                                                          150                                
PRCFAMCHA120201020851020909000018Family Bumper (HD) - Dominoes ID (Jan 2011)                                                                                 150                                
ID FAMCHA120201020909020914000005xMagic of Disney Bumper (HD)(:5-:6) (Jan 2011)                                                                              150                                
PGRFAMCHA120201020914023145002231Lizzie McGuire                                    EP: 15                                                               6068607BCC                              
ID FAMCHA120201023145023151000006Astral ID (HD) (Jan2011)                                                                                                    150                                
PROFAMCHA120201023151023202000011LU - 37 - DEREK/CORY 2:55am (HD) (:9 - :11) Jan201                                                                          150                                
PRCFAMCHA120201023202023216000014Family Bumper (HD) - Drums ID (Jan 2011)                                                                                    150                                
PGRFAMCHA120201023216025446002230Life With Derek                                   EP: 17                                                        C24891 1065607BCC                              
PROFAMCHA120201025446025457000011LU - 38 - CORY/RAVEN 3:20am (HD) (:9 - :11) Jan201                                                                          150                                
PRCFAMCHA120201025457025514000017Family Bumper (HD) - Fashion ID (Jan 2011)                                                                                  150                                
PGRFAMCHA120201025514031751002237Disney Cory in the House                          EP: 03                                                               6068607BCC                              
ID FAMCHA120201031751031757000006Astral ID (HD) (Jan2011)                                                                                                    150                                
PROFAMCHA120201031757031808000011LU - 39 - RAVEN/SLZC 3:40am (HD) (:9 - :11) Jan201                                                                          150                                
PRCFAMCHA120201031808031823000015Family Bumper (HD) - Horseshoe ID (Jan 2011)                                                                                150                                
ID FAMCHA120201031823031828000005xMagic of Disney Bumper (HD)(:5-:6) (Jan 2011)                                                                              150                                
PGRFAMCHA120201031828034105002237That's So Raven                                   EP: 095                                                              6068607BCC                              
PROFAMCHA120201034105034116000011LU - 40 - SLZC/DEREK 4:05am (HD) (:9 - :11) Jan201                                                                          150                                
PRCFAMCHA120201034116034132000016Family Bumper (HD) - Hot Potato ID (Jan 2011)                                                                               150                                
ID FAMCHA120201034132034137000005xMagic of Disney Bumper (HD)(:5-:6) (Jan 2011)                                                                              150                                
PGRFAMCHA120201034137040414002237The Suite Life of Zack and Cody                   EP: 36                                                               6068607BCC                              
ID FAMCHA120201040414040419000005Astral ID (HD) (Jan2011)                                                                                                    150                                
PROFAMCHA120201040419040430000011LU - 41 - LIFE WITH DEREK (HD) (:9 - :11) Jan2011                                                                           150                                
PRCFAMCHA120201040430040443000013Family Bumper (HD) - Karate ID (Jan 2011)                                                                                   150                                
PGRFAMCHA120201040443042714002231Life with Derek                                   EP: 09                                                        C26822 1065607BCC                              
PROFAMCHA120201042714042744000030D-JR Promo - On demand online REVISED - D-JR.ca (M                                                                          150                                
PROFAMCHA120201042744042814000030D-JR Promo - MMCH - Get more MMCH on D-JR the chan                                                                          150                                
PROFAMCHA120201042814042849000035D-JR Promo - Handy Manny - Get more on the channel                                                                          150                                
PROFAMCHA120201042849042919000030Stella and Sam - Get more Stella & Sam on D-JR the                                                                          150                                
PROFAMCHA120201042919042949000030D-JR Promo - Valentines Fun Day - Sunday Feb 12 @                                                                           150                                
PROFAMCHA120201042949042959000010D-JR - Station ID (:10) (May2011)                                                                                           150                                
OFFFAMCHA120201042959043000000001OFF AIR                                                                                                                                                        
SO FAMCHA120202043000043011000011Sign On (oct 1)                                                                                                                                                
PGRFAMCHA120202043011045649002638Katie And Orbie                                   EP: 62                                                        C19665A1065607ECC                              
ID FAMCHA120202045649045654000005Astral ID (HD) (Jan2011)                                                                                                    150                                
PROFAMCHA120202045654045700000006D-JR - Station ID (:06) (May2011)                                                                                           150                                
PGRFAMCHA120202045700051933002233Franny's Feet                                     EP: 41                                                        C31292 1065607ECC                              
PROFAMCHA120202051933052005000032D-JR Icon Story - SWOBB - Silly Song Part 1 - Comi                                                                          150                                
PROFAMCHA120202052005052035000030D-JR Promo - Valentines Fun Day - Sunday Feb 12 @                                                                           150                                
PROFAMCHA120202052035052120000045D-JR Promo - JATNP Pirate Rock Week - Continues th                                                                          150                                
PROFAMCHA120202052120052151000031D-JR Icon Story - SWOBB - Silly Song Part 2 - Now                                                                           150                                
PROFAMCHA120202052151052157000006D-JR - Bumper 3 (May2011)                                                                                                   150                                
PGRFAMCHA120202052157054427002230The Secret World of Benjamin Bear                 EP: 28                                                        C27272 1065607ECC                              
ID FAMCHA120202054427054432000005Astral ID (HD) (Jan2011)                                                                                                    150                                
PROFAMCHA120202054432054439000007D-JR - Station ID (:07) (May2011)                                                                                           150                                
PGRFAMCHA120202054439060616002137Harry and His Bucket Full of Dinosaurs            EP: 11                                                        B05030 1065607ECC                              
PROFAMCHA120202060616060622000006D-JR - Bumper 5 (May2011)                                                                                                   150                                
PGRFAMCHA120202060622063013002351Henry's World                                     EP: 02                                                        B66544 1065607ECC                              
ID FAMCHA120202063013063019000006Astral ID (HD) (Jan2011)                                                                                                    150                                
PRCFAMCHA120202063019063051000032FOD (HD) Family.ca New Look (Oct2011) (2-3x per da                                                                          150                                
PROFAMCHA120202063051063147000056xHannah (HD) Dec Refresh - This Morning @ 7:25 (De                                                                          150                                
PROFAMCHA120202063147063244000057Winter Sizzles (HD) Fish Hooks - New Episodes This                                                                          150                                
PROFAMCHA120202063244063329000045xSo Random (HD) Super Tease Promo - New Episode To                                                                          150                                
PROFAMCHA120202063329063409000040Good Luck Charlie (HD) Refresh - Tomorrow Afternoo                                                                          150                                
PROFAMCHA120202063409063444000035Phineas&Ferb (HD) Candace - Coming Up Next (June20                                                                          150                                
PRCFAMCHA120202063444063458000014Family Bumper (HD) - Drums ID (Jan 2011)                                                                                    150                                
PGRFAMCHA120202063458065731002233Disney Phineas & Ferb                             EP: 31                                                               6068607ECC                              
PROFAMCHA120202065731065801000030Disney XD (HD) I'm In the Band - How To Refresh -                                                                           150                                
PROFAMCHA120202065801065846000045Walt Disney Studios Home Entertainment                                                                                      150                                
PROFAMCHA120202065846065933000047SLOD (HD) Refresh - Coming Up Next (Dec2011)                                                                                150                                
PRCFAMCHA120202065933070005000032Make Your Break (HD) Promo #1 - Go to Family.ca (J                                                                          150                                
PRCFAMCHA120202070005070013000008Family Bumper (HD) - Origami ID (Jan 2011)                                                                                  150                                
PGRFAMCHA120202070013072246002233The Suite Life on Deck                            EP: 19                                                               6068607BCC                              
ID FAMCHA120202072246072251000005Astral ID (HD) (Jan2011)                                                                                                    150                                
PROFAMCHA120202072251072335000044Disney XD Takeover (HD) This Afternoon from 3-7pm                                                                           150                                
PROFAMCHA120202072335072419000044xHannah (HD) Refresh - Coming Up Next (May2011)                                                                             150                                
PROFAMCHA120202072419072504000045xStarstruck What's What (HD) Popcorn Pix - Tomorro                                                                          150                                
PRCFAMCHA120202072504072517000013Family Bumper (HD) - Karate ID (Jan 2011)                                                                                   150                                
PGRFAMCHA120202072517074749002232Hannah Montana                                    EP: 17                                                               6068607BCC                              
PROFAMCHA120202074749074834000045Disney XD (HD) Power Play Sat Football Ed - Sat Af                                                                          150                                
PROFAMCHA120202074834074852000018SLOD (HD) Mommy Clip Retag - This Afternoon @ 2 (S                                                                          150                                
PROFAMCHA120202074852074937000045xSo Random (HD) Super Tease Promo - New Episode To                                                                          150                                
PROFAMCHA120202074937075021000044ANT Farm (HD) Sister Sell - Coming Up Next (July20                                                                          150                                
PRCFAMCHA120202075021075053000032FOD (HD) Family.ca New Look (Oct2011) (2-3x per da                                                                          150                                
PRCFAMCHA120202075053075109000016Family Bumper (HD) - Hot Potato ID (Jan 2011)                                                                               150                                
PGRFAMCHA120202075109081540002431Disney A.N.T. Farm                                EP: 01                                                               6068607BCC                              
ID FAMCHA120202081540081546000006Astral ID (HD) (Jan2011)                                                                                                    150                                
PROFAMCHA120202081546081557000011LU - 04 - PHINEAS AND FERB (HD) (:9 - :11) Jan 201                                                                          150                                
PROFAMCHA120202081557081627000030Disney XD Canadian Shield (HD) Event Spot #1 (Jan3                                                                          150                                
PROFAMCHA120202081627081641000014xWOWP (HD) Alex S3 GENERIC - Today @ Noon (Jan2011                                                                          150                                
PROFAMCHA120202081641081724000043Phineas&Ferb (HD) Clip Based Promo - Coming Up Nex                                                                          150                                
PRCFAMCHA120202081724081756000032Make Your Break (HD) Promo #1 - Go to Family.ca (J                                                                          150                                
PRCFAMCHA120202081756081811000015Family Bumper (HD) - Horseshoe ID (Jan 2011)                                                                                150                                
PGRFAMCHA120202081811084045002234Disney Phineas and Ferb                           EP: 07                                                               6068607ECC                              
PROFAMCHA120202084045084116000031D-JR Icon Story - Strawberry Shortcake - Silly Son                                                                          150                                
PROFAMCHA120202084116084146000030D-JR Promo - Valentines Fun Day - Sunday Feb 12 @                                                                           150                                
PROFAMCHA120202084146084156000010D-JR - Short Open (:10) (May2011)                                                                                           150                                
PROFAMCHA120202084156084354000158PH-D Short - Can You...Alligator Manners S1 - 10 -                                                                          150                                
PROFAMCHA120202084354084400000006D-JR - Short Close (:06) (May2011)                                                                                          150                                
PROFAMCHA120202084400084430000030D-JR Promo - On demand online REVISED - D-JR.ca (M                                                                          150                                
PROFAMCHA120202084430084501000031D-JR Icon Story - Strawberry Shortcake - Silly Son                                                                          150                                
PROFAMCHA120202084501084510000009D-JR - Station ID (:09) (May2011)                                                                                           150                                
PGRFAMCHA120202084510090712002202Strawberry Shortcake                              EP: 22                                                               2068605ACC                              
ID FAMCHA120202090712090718000006Astral ID (HD) (Jan2011)                                                                                                    150                                
PROFAMCHA120202090718090750000032D-JR Icon Story - Mickey Mouse Clubhouse - Maze Pa                                                                          150                                
PROFAMCHA120202090750090820000030Stella and Sam - Get more Stella & Sam on D-JR the                                                                          150                                
PROFAMCHA120202090820090850000030D-JR - Standalone ID - Light Parade (May2011)                                                                               150                                
PROFAMCHA120202090850090925000035D-JR Promo - Handy Manny - Get more on the channel                                                                          150                                
PROFAMCHA120202090925090955000030D-JR Promo - Dare To Dream Contest (Feb1-29)                                                                                150                                
PROFAMCHA120202090955091025000030D-JR Icon Story - Mickey Mouse Clubhouse - Maze Pa                                                                          150                                
PROFAMCHA120202091025091031000006D-JR - Bumper 6 (May2011)                                                                                                   150                                
PGRFAMCHA120202091031093432002401Disney's Mickey Mouse Clubhouse                   EP: 28                                                               6068605ACC                              
PROFAMCHA120202093432093502000030D-JR Promo - On demand online REVISED - D-JR.ca (M                                                                          150                                
PROFAMCHA120202093502093537000035D-JR Promo - Handy Manny - Get more on the channel                                                                          150                                
PROFAMCHA120202093537093622000045D-JR Promo - JATNP Pirate Rock Week - Continues Ne                                                                          150                                
PROFAMCHA120202093622093627000005D-JR - Station ID (:05) (May2011)                                                                                           150                                
PGRFAMCHA120202093627100033002406Disney Jake and the Never Land Pirates            EP: 17                                                               6068605ACC                              
ID FAMCHA120202100033100039000006Astral ID (HD) (Jan2011)                                                                                                    150                                
PROFAMCHA120202100039100109000030D-JR Promo - Valentines Fun Day - Sunday Feb 12 @                                                                           150                                
PROFAMCHA120202100109100139000030D-JR Promo - MMCH - Get more MMCH on D-JR the chan                                                                          150                                
PROFAMCHA120202100139100209000030D-JR - Standalone ID - Magic Frog (May2011)                                                                                 150                                
PROFAMCHA120202100209100239000030Stella and Sam - Get more Stella & Sam on D-JR the                                                                          150                                
PROFAMCHA120202100239100324000045D-JR Promo - JATNP Pirate Rock Week - Continues Ne                                                                          150                                
PROFAMCHA120202100324100330000006D-JR - Bumper 2 (May2011)                                                                                                   150                                
PGRFAMCHA120202100330102736002406Disney Jake and the Never Land Pirates            EP: 24                                                               6068605ACC                              
PROFAMCHA120202102736102807000031D-JR Icon Story - Mickey Mouse Clubhouse - Silly S                                                                          150                                
PROFAMCHA120202102807102852000045D-JR Promo - JATNP Pirate Rock Week - Continues To                                                                          150                                
PROFAMCHA120202102852102922000030D-JR Icon Story - Mickey Mouse Clubhouse - Silly S                                                                          150                                
PROFAMCHA120202102922102933000011D-JR - Station ID (:11) (May2011)                                                                                           150                                
PGRFAMCHA120202102933105335002402Disney's Mickey Mouse Clubhouse                   EP: 30                                                               6068605ACC                              
ID FAMCHA120202105335105340000005Astral ID (HD) (Jan2011)                                                                                                    150                                
PROFAMCHA120202105340105351000011LU - 05 - SLZC/SLZC 11:30am (HD) (:9 - :11) Jan 20                                                                          150                                
PRCFAMCHA120202105351105418000027Radio Disney (HD) Launch Spot (Jan 13 - Jun 24)                                                                             150                                
PROFAMCHA120202105418105441000023xWOWP (HD) Harper - Today @ Noon (Jan2011)                                                                                  150                                
PGRFAMCHA120202105441105747000306MV Disney (HD) Austin & Ally - A Billion Hits (no                                                                      60685120                                
PROFAMCHA120202105747105818000031Fish Hooks (HD) Generic 2 Retag - New Episode Sund                                                                          150                                
PROFAMCHA120202105818105854000036xSLOZ+C (HD) Refresh Jan2011 - Coming Up Next (Jan                                                                          150                                
PRCFAMCHA120202105854105926000032Make Your Break (HD) Promo #1 - Go to Family.ca (J                                                                          150                                
PRCFAMCHA120202105926105934000008Family Bumper (HD) - Origami ID (Jan 2011)                                                                                  150                                
ID FAMCHA120202105934105939000005xMagic of Disney Bumper (HD)(:5-:6) (Jan 2011)                                                                              150                                
PGRFAMCHA120202105939112220002241The Suite Life of Zack and Cody                   EP: 32                                                               6068607BCC                              
PROFAMCHA120202112220112231000011LU - 06 - SLZC/WIZARDS 12pm (HD) (:9 - :11) Jan 20                                                                          150                                
PROFAMCHA120202112231112331000100Disney XD (HD) Generic Sizzle Image Spot (Dec2011)                                                                          150                                
PROFAMCHA120202112331112415000044xHannah (HD) Refresh - This Afternoon @ 12:30 (May                                                                          150                                
PGRFAMCHA120202112415112515000100MV Disney (HD) Selena Gomez & The Scene - Hit The                                                                      60685120                                
PROFAMCHA120202112515112602000047xShake It Up (HD) Dance Retag -Tonight @ 7:00 (Jul                                                                          150                                
PROFAMCHA120202112602112647000045xSo Random (HD) Super Tease Promo - New Episode To                                                                          150                                
PROFAMCHA120202112647112731000044ANT Farm (HD) Sister Sell - Tomorrow Night @ 7:30                                                                           150                                
PROFAMCHA120202112731112752000021Wingin It (HD) Season 2 Promo - Saturday Morning @                                                                          150                                
