SO FAMCHA050701043000043011000011Sign On (oct 1)                                                                                                                                                
PROFAMCHA050701043011043020000009CC Disclaimer - FAST - Family.ca (:08-:10)                                                                                  150                                
PGRFAMCHA050701043020045313002253Franklin                                          EPS # 4-042                                                   B38149A1065607ECC                              
PRCFAMCHA050701045313045318000005Astral ID (FEB05)                                                                                                           150                                
PROFAMCHA050701045318045333000015PS - 01(PH) - WTP/Benjamin/Franny                                                                                           150                                
ID FAMCHA050701045333045346000013PS Playhouse AM Block Open (:10-:15)                                                                                        150                                
PROFAMCHA050701045346045355000009CC Disclaimer - FAST - Family.ca (:08-:10)                                                                                  150                                
PGRFAMCHA050701045355051625002230King                                              EPS # 027                                                     A00331A1065607ECC                              
PROFAMCHA050701051625051640000015PS - 01(PH) - WTP/Benjamin/Franny                                                                                           150                                
ID FAMCHA050701051640051653000013PS Playhouse AM Block Open (:10-:15)                                                                                        150                                
PGRFAMCHA050701051653054328002635Katie And Orbie                                   EP: 1-006                                                     P16145A1065607E                                
PRCFAMCHA050701054328054333000005Astral ID (FEB05)                                                                                                           150                                
PROFAMCHA050701054333054349000016PS - 01(PH) - WTP/Benjamin/Franny                                                                                           150                                
ID FAMCHA050701054349054402000013PS Playhouse AM Block Open (:10-:15)                                                                                        150                                
PROFAMCHA050701054402054411000009CC Disclaimer - FAST - Family.ca (:08-:10)                                                                                  150                                
PGRFAMCHA050701054411060704002253Franklin                                          EP: 4-043                                                     B38150A1065607ECC                              
PROFAMCHA050701060704060719000015PS - 01(PH) - WTP/Benjamin/Franny                                                                                           150                                
ID FAMCHA050701060719060732000013PS Playhouse AM Block Open (:10-:15)                                                                                        150                                
PROFAMCHA050701060732060741000009CC Disclaimer - FAST - Family.ca (:08-:10)                                                                                  150                                
PGRFAMCHA050701060741063012002231Something Else                                    EP: 1-002                                                     B69256A1065607ECC                              
PRCFAMCHA050701063012063017000005Astral ID (FEB05)                                                                                                           150                                
PROFAMCHA050701063017063032000015PS - 01(PH) - WTP/Benjamin/Franny                                                                                           150                                
ID FAMCHA050701063032063045000013PS Playhouse AM Block Open (:10-:15)                                                                                        150                                
PROFAMCHA050701063045063054000009CC Disclaimer - FAST - Family.ca (:08-:10)                                                                                  150                                
PGRFAMCHA050701063054065331002237Hoze Houndz                                       EP: 5-063                                                     B63399A1065607ECC                              
PROFAMCHA050701065331065346000015PS - 01(PH) - WTP/Benjamin/Franny                                                                                           150                                
ID FAMCHA050701065346065400000014Mad Dash Block Open (:13-:15)                                                                                               150                                
PROFAMCHA050701065400065409000009CC Disclaimer - FAST - Family.ca (:08-:10)                                                                                  150                                
PGRFAMCHA050701065409071646002237Disney's Aladdin                                  EP: 1-066                                                            6068607ECC                              
PRCFAMCHA050701071646071651000005Astral ID (FEB05)                                                                                                           150                                
PROFAMCHA050701071651071706000015PS - 01(PH) - WTP/Benjamin/Franny                                                                                           150                                
PRCFAMCHA050701071706071736000030MMS - Mad Mad Summer - Weekday Afternoons..All SumEP: 46                                                                    150                                
PROFAMCHA050701071736071806000030Kim Possible 007 (FEB05) (MD) - Coming Up Next                                                                              150                                
PROFAMCHA050701071806071834000028xxLilo & Stitch (MD/AM) (JAN05) - Today @ 7:50am                                                                            150                                
PROFAMCHA050701071834071849000015MMS - Fillmore! - Today @ 12pm                                                                                              150                                
PROFAMCHA050701071849071901000012Mad Dash - RECESS - Sprinkler                                                                                               150                                
PROFAMCHA050701071901071925000024MMS - Weekenders - Today @ 12:25pm                                                                                          150                                
PROFAMCHA050701071925071952000027MMS - Dave the Barbarian - SCREAM - Today @ 1:15pm                                                                          150                                
PROFAMCHA050701071952072016000024MMS - Lizzie McGuire - Today @ 2:35pm                                                                                       150                                
PROFAMCHA050701072016072046000030Air Bud Spikes Back (PP) - Premiering Tonight @ 7:                                                                          150                                
ID FAMCHA050701072046072100000014Mad Dash Block Open (:13-:15)                                                                                               150                                
PGRFAMCHA050701072100074354002254Disney's Kim Possible                             EP: 1-059                                                            6068607E                                
PROFAMCHA050701074354074409000015PS - 01(PH) - WTP/Benjamin/Franny                                                                                           150                                
PRCFAMCHA050701074409074439000030MMS - Mad Mad Summer - Weekday Afternoons..All SumEP: 46                                                                    150                                
PROFAMCHA050701074439074507000028xxLilo & Stitch (MD) (JAN05) - Coming Up Next                                                                               150                                
PROFAMCHA050701074507074522000015MMS - Fillmore! - Today @ 12pm                                                                                              150                                
PROFAMCHA050701074522074544000022MMS - Recess - Today @ 12:50pm                                                                                              150                                
INTFAMCHA050701074544074722000138Gagsters - Excuse Me                              EP: 46                                                              A20686120                                
PROFAMCHA050701074722074754000032MMS - Dave the Barbarian - WASTE - Today @ 1:15pm                                                                           150                                
PROFAMCHA050701074754074815000021MMS - Proud Family - Today @ 2:10pm                                                                                         150                                
PROFAMCHA050701074815074845000030Air Bud Spikes Back (PP) - Premiering Tonight @ 7:                                                                          150                                
ID FAMCHA050701074845074900000015Mad Dash Block Open (:13-:15)                                                                                               150                                
PGRFAMCHA050701074900081139002239Disney's Lilo & Stitch                            EPS # 17                                                            A6068607E                                
PRCFAMCHA050701081139081144000005Astral ID (FEB05)                                                                                                           150                                
PROFAMCHA050701081144081159000015PS - 01(PH) - WTP/Benjamin/Franny                                                                                           150                                
PRCFAMCHA050701081159081229000030MMS - Mad Mad Summer - Weekday Afternoons..All SumEP: 46                                                                    150                                
PROFAMCHA050701081229081257000028MMS - Lilo and Stitch - Today @ 11:30am                                                                                     150                                
INTFAMCHA050701081257081403000106Gagsters                                          EP: 46                                                              A20686120                                
PROFAMCHA050701081403081418000015MMS - Fillmore! - Today @ 12pm                                                                                              150                                
PROFAMCHA050701081418081450000032MMS - Dave the Barbarian - WASTE - Today @ 1:15pm                                                                           150                                
PRCFAMCHA050701081450081523000033Mad Dash - WEEKENDERS - Clown                                                                                               150                                
PROFAMCHA050701081523081553000030MMS - Kim Possible - Today @ 1:40pm                                                                                         150                                
PROFAMCHA050701081553081617000024MMS - Lizzie McGuire - Today @ 2:35pm                                                                                       150                                
PROFAMCHA050701081617081647000030Air Bud Spikes Back (PP) - Premiering Tonight @ 7:                                                                          150                                
ID FAMCHA050701081647081700000013Mad Dash Block Open (:13-:15)                                                                                               150                                
PROFAMCHA050701081700081709000009CC Disclaimer - FAST - Family.ca (:08-:10)                                                                                  150                                
PGRFAMCHA050701081709084010002301The Little Mermaid                                EP: 1-029                                                            6068607ECC                              
PROFAMCHA050701084010084025000015PS - 01(PH) - WTP/Benjamin/Franny                                                                                           150                                
PRCFAMCHA050701084025084040000015xxFranny's Feet - Bowleriffic (PH) - Coming Up Nex                                                                          150                                
PROFAMCHA050701084040084110000030xxWinnie the Pooh (SONG) (PH/AM) - Today @ 9:10am                                                                           150                                
PROFAMCHA050701084110084144000034xxJojo's Circus - GIGGLECORN - Today @ 9:40am                                                                               150                                
INTFAMCHA050701084144084359000215Disney Circle Time (2005) - Endless Story                                                                              60688120                                
PROFAMCHA050701084359084429000030Stanley - Get Into It (MAR05) - (PH-M/W/F) - Today                                                                          150                                
PROFAMCHA050701084429084448000019xxHenry's World (JAN05) - Today @ 10:35am                                                                                   150                                
ID FAMCHA050701084448084500000012PS Playhouse PM Block Open (:10-:15)                                                                                        150                                
PROFAMCHA050701084500084509000009CC Disclaimer - FAST - Family.ca (:08-:10)                                                                                  150                                
PGRFAMCHA050701084509090739002230Franny's Feet                                     EPS # 1-010                                                   C23970A1065607ECC                              
PRCFAMCHA050701090739090744000005Astral ID (FEB05)                                                                                                           150                                
PROFAMCHA050701090744090759000015PS - 01(PH) - WTP/Benjamin/Franny                                                                                           150                                
PROFAMCHA050701090759090829000030xxWinnie the Pooh (SONG) (PH/AM) - Coming Up Next                                                                           150                                
INTFAMCHA050701090829091029000200Disney Circle Time (2005) - The Greedy Dog                                                                             60688120                                
PROFAMCHA050701091029091103000034xxJojo's Circus - GIGGLECORN - Today @ 9:40am                                                                               150                                
PROFAMCHA050701091103091133000030Stanley - Get Into It (MAR05) - (PH-M/W/F) - Today                                                                          150                                
PRCFAMCHA050701091133091202000029Playhouse - HOUSE OF MOUSE - Snug                                                                                           150                                
PROFAMCHA050701091202091233000031MMS - King (PH) - Today @ 11:05am                                                                                           150                                
ID FAMCHA050701091233091248000015Franny's Feet Web BBD - Part of Playhouse @ family                                                                          150                                
ID FAMCHA050701091248091300000012PS Playhouse AM Block Open (:10-:15)                                                                                        150                                
PROFAMCHA050701091300091309000009CC Disclaimer - FAST - Family.ca (:08-:10)                                                                                  150                                
PGRFAMCHA050701091309093552002243The New Adventures of Winnie the Pooh             EP: 1-011                                                            6068607ECC                              
PROFAMCHA050701093552093607000015PS - 01(PH) - WTP/Benjamin/Franny                                                                                           150                                
PROFAMCHA050701093607093641000034xxJojo's Circus - GIGGLECORN - Coming Up Next                                                                               150                                
PROFAMCHA050701093641093711000030Stanley - Get Into It (MAR05) - (PH-M/W/F) - Today                                                                          150                                
PROFAMCHA050701093711093730000019xxHenry's World (JAN05) - Today @ 10:35am                                                                                   150                                
PRCFAMCHA050701093730093836000106Playhouse - WINNIE THE POOH - Christopher Robin                                                                             150                                
PROFAMCHA050701093836093907000031MMS - King (PH) - Today @ 11:05am                                                                                           150                                
PRCFAMCHA050701093907093919000012xxBenjamin Bear - Slide (PH-S/S) - Tomorrow @ 5:15                                                                          150                                
PROFAMCHA050701093919093949000030xxHigglytown Heroes (MAR05) (T/T) - Tuesdays/Thurs                                                                          150                                
ID FAMCHA050701093949094001000012PS Playhouse AM Block Open (:10-:15)                                                                                        150                                
PGRFAMCHA050701094001100406002405JoJo's Circus                                     EP: 39                                                               6068607E                                
PRCFAMCHA050701100406100411000005Astral ID (FEB05)                                                                                                           150                                
PROFAMCHA050701100411100427000016PS - 01(PH) - WTP/Benjamin/Franny                                                                                           150                                
PROFAMCHA050701100427100457000030Stanley - Get Into It (MAR05) - (PH-M/W/F) - Comin                                                                          150                                
PROFAMCHA050701100457100516000019xxHenry's World (JAN05) - Today @ 10:35am                                                                                   150                                
PROFAMCHA050701100516100547000031MMS - King (PH) - Today @ 11:05am                                                                                           150                                
PRCFAMCHA050701100547100643000056Playhouse - STANLEY - Fish Song                                                                                             150                                
PRCFAMCHA050701100643100703000020xxBenjamin Bear - Snack (PH-S/S) - Tomorrow @ 5:15                                                                          150                                
PROFAMCHA050701100703100733000030xxHigglytown Heroes (MAR05) (T/T) - Tuesdays/Thurs                                                                          150                                
PRCFAMCHA050701100733100745000012Family Bumpers - (Phase 1 Spring 04) - Funhouse (P                                                                          150                                
ID FAMCHA050701100745100800000015PS Playhouse AM Block Open (:10-:15)                                                                                        150                                
PROFAMCHA050701100800100809000009CC Disclaimer - FAST - Family.ca (:08-:10)                                                                                  150                                
PGRFAMCHA050701100809103211002402Stanley                                           EP: 1-031                                                           A6068607ECC                              
PROFAMCHA050701103211103226000015SCMMS - 03 - HENRY/KING/LILO (:14 - :16) (JULY05)                                                                           150                                
PROFAMCHA050701103226103245000019xxHenry's World (JAN05) - Coming Up Next                                                                                    150                                
PROFAMCHA050701103245103316000031MMS - King (PH) - Today @ 11:05am                                                                                           150                                
PROFAMCHA050701103316103350000034xxJojo's Circus - GIGGLECORN - Weekdays @ 9:40am                                                                            150                                
PRCFAMCHA050701103350103402000012xxBenjamin Bear - Slide (PH-S/S) - Tomorrow @ 5:15                                                                          150                                
PRCFAMCHA050701103402103448000046Playhouse - STANLEY - Squirrel Song                                                                                         150                                
PRCFAMCHA050701103448103503000015xxFranny's Feet - Bowleriffic (PH-S/S) - Tomorrow                                                                           150                                
PROFAMCHA050701103503103533000030xxHigglytown Heroes (MAR05) (T/T) - Tuesdays/Thurs                                                                          150                                
ID FAMCHA050701103533103548000015Franny's Feet Web BBD - Part of Playhouse @ family                                                                          150                                
ID FAMCHA050701103548103600000012PS Playhouse AM Block Open (:10-:15)                                                                                        150                                
PROFAMCHA050701103600103609000009CC Disclaimer - FAST - Family.ca (:08-:10)                                                                                  150                                
PGRFAMCHA050701103609110016002407Henry's World                                     EP: 2-017                                                     B81048A1065607GCC                              
PRCFAMCHA050701110016110021000005Astral ID (FEB05)                                                                                                           150                                
PROFAMCHA050701110021110036000015SCMMS - 04 - KING/LILO (:14 - :16) (JULY05)                                                                                 150                                
PROFAMCHA050701110036110107000031MMS - King (PH) - Coming Up Next                                                                                            150                                
PROFAMCHA050701110107110135000028MMS - Lilo and Stitch - Today @ 11:30am                                                                                     150                                
INTFAMCHA050701110135110238000103Gagsters                                          EP: 46                                                              A20686120                                
PROFAMCHA050701110238110253000015MMS - Fillmore! - Today @ 12pm                                                                                              150                                
PROFAMCHA050701110253110317000024MMS - Weekenders - Today @ 12:25pm                                                                                          150                                
PROFAMCHA050701110317110349000032MMS - Dave the Barbarian - WASTE - Today @ 1:15pm                                                                           150                                
ID FAMCHA050701110349110402000013PS Playhouse AM Block Open (:10-:15)                                                                                        150                                
PROFAMCHA050701110402110412000010CC Disclaimer - FAST - Family.ca (:08-:10)                                                                                  150                                
PGRFAMCHA050701110412112642002230King                                              EP: 007                                                       B75762A1065607ECC                              
PROFAMCHA050701112642112657000015SCMMS - 05 - LILO/MADMADSUMMER (:14 - :16) (JULY05                                                                          150                                
PRCFAMCHA050701112657112727000030MMS - Mad Mad Summer - Weekday Afternoons..All SumEP: 46                                                                    150                                
PROFAMCHA050701112727112755000028MMS - Lilo and Stitch - Coming Up Next                                                                                      150                                
PRCFAMCHA050701112755112841000046Summer Chill 2005 (Tour) (5x)                                                                                               150                                
PROFAMCHA050701112841112856000015MMS - Fillmore! - Today @ 12pm                                                                                              150                                
PROFAMCHA050701112856112920000024MMS - Weekenders - Today @ 12:25pm                                                                                          150                                
INTFAMCHA050701112920113039000119Gagsters                                          EP: 46                                                              A20686120                                
PROFAMCHA050701113039113106000027MMS - Dave the Barbarian - SCREAM - Today @ 1:15pm                                                                          150                                
PROFAMCHA050701113106113136000030Air Bud Spikes Back (PP) - Premiering Tonight @ 7:                                                                          150                                
PRCFAMCHA050701113136113143000007Family Bumpers - (Phase 2 F/W 04) - Hockey (MD-L/M                                                                          150                                
ID FAMCHA050701113143113201000018MMS - Mad Mad Summer Block Open                                                                                             150                                
PGRFAMCHA050701113201115440002239Disney's Lilo & Stitch                            EPS # 31                                                            A6068607E                                
PRCFAMCHA050701115440115445000005Astral ID (FEB05)                                                                                                           150                                
PROFAMCHA050701115445115457000012SCMMS - 06 - FILLMORE/WEEKENDERS/RECESS (12pm)                                                                              150                                
PRCFAMCHA050701115457115504000007MMS - Mad Mad Summer Bumper - You're Watching MMS.                                                                          150                                
PROFAMCHA050701115504115519000015MMS - Fillmore! - Coming Up Next                                                                                            150                                
PROFAMCHA050701115519115543000024MMS - Weekenders - Today @ 12:25pm                                                                                          150                                
PROFAMCHA050701115543115605000022MMS - Recess - Today @ 12:50pm                                                                                              150                                
INTFAMCHA050701115605115730000125Gagsters - Creepy Crawlers                        EP: 46                                                              A20686120                                
PROFAMCHA050701115730115802000032MMS - Dave the Barbarian - WASTE - Today @ 1:15pm                                                                           150                                
PROFAMCHA050701115802115826000024MMS - Lizzie McGuire - Today @ 2:35pm                                                                                       150                                
PROFAMCHA050701115826115856000030Air Bud Spikes Back (PP) - Premiering Tonight @ 7:                                                                          150                                
PRCFAMCHA050701115856115926000030MMS - Mad Mad Summer - Weekday Afternoons..All SumEP: 46                                                                    150                                
PRCFAMCHA050701115926115937000011Naturally Sadie ID's - I'm Charlotte, you're watch                                                                          150                                
PRCFAMCHA050701115937115943000006Family Bumpers - (Phase 3 Spring 05) - Bubble Gum                                                                           150                                
ID FAMCHA050701115943120001000018MMS - Mad Mad Summer Block Open                                                                                             150                                
PGRFAMCHA050701120001122241002240Disney's Fillmore!                                EPS # 1-012                                                         A6068607E                                
PROFAMCHA050701122241122253000012SCMMS - 07 - WEEKENDERS/RECESS/DAVE (12:25pm)                                                                               150                                
PROFAMCHA050701122253122323000030Air Bud Spikes Back (PP) - Premiering Tonight @ 7:                                                                          150                                
PRCFAMCHA050701122323122409000046Summer Chill 2005 (Tour) (5x)                                                                                               150                                
PRCFAMCHA050701122409122439000030MMS - Mad Mad Summer - Weekday Afternoons..All SumEP: 46                                                                    150                                
PRCFAMCHA050701122439122445000006Family Bumpers - (Phase 2 F/W 04) - Gymnastics (MD                                                                          150                                
ID FAMCHA050701122445122503000018MMS - Mad Mad Summer Block Open                                                                                             150                                
PROFAMCHA050701122503122513000010CC Disclaimer - FAST - Family.ca (:08-:10)                                                                                  150                                
PGRFAMCHA050701122513124747002234Disney's The Weekenders                           EP: 1-014                                                           A6068607ECC                              
PRCFAMCHA050701124747124752000005Astral ID (FEB05)                                                                                                           150                                
PROFAMCHA050701124752124805000013SCMMS - 08 - RECESS/DAVE/KIM (12:50pm)                                                                                      150                                
PRCFAMCHA050701124805124835000030MMS - Mad Mad Summer - Weekday Afternoons..All SumEP: 46                                                                    150                                
PROFAMCHA050701124835124907000032MMS - Dave the Barbarian - WASTE - Today @ 1:15pm                                                                           150                                
PROFAMCHA050701124907124937000030Air Bud Spikes Back (PP) - Premiering Tonight @ 7:                                                                          150                                
PRCFAMCHA050701124937124944000007MMS - Mad Mad Summer Bumper - You're Watching MMS.                                                                          150                                
ID FAMCHA050701124944125002000018MMS - Mad Mad Summer Block Open                                                                                             150                                
PGRFAMCHA050701125002131238002236Disney's Recess                                   EP: 1-049                                                            6068607E                                
PROFAMCHA050701131238131253000015SCMMS - 09 - DAVE/KIM/PROUD (1:15pm)                                                                                        150                                
PROFAMCHA050701131253131323000030Air Bud Spikes Back (PP) - Premiering Tonight @ 7:                                                                          150                                
PROFAMCHA050701131323131405000042Family Kicks - 3x, daily (MD/NS/NSW)                                                                                        150                                
PRCFAMCHA050701131405131435000030MMS - Mad Mad Summer - Weekday Afternoons..All SumEP: 46                                                                    150                                
PRCFAMCHA050701131435131446000011Naturally Sadie ID's - I'm Charlotte, you're watch                                                                          150                                
ID FAMCHA050701131446131504000018MMS - Mad Mad Summer Block Open                                                                                             150                                
PGRFAMCHA050701131504133743002239Disney's Dave the Barbarian                       EPS # 14                                                             6068607E                                
PRCFAMCHA050701133743133748000005Astral ID (FEB05)                                                                                                           150                                
PROFAMCHA050701133748133802000014SCMMS - 10 - KIM/PROUD/LIZZIE (1:40pm)                                                                                      150                                
PROFAMCHA050701133802133832000030Air Bud Spikes Back (PP) - Premiering Tonight @ 7:                                                                          150                                
PRCFAMCHA050701133832133918000046Summer Chill 2005 (Tour) (5x)                                                                                               150                                
PRCFAMCHA050701133918133948000030MMS - Mad Mad Summer - Weekday Afternoons..All SumEP: 46                                                                    150                                
ID FAMCHA050701133948134006000018MMS - Mad Mad Summer Block Open                                                                                             150                                
PGRFAMCHA050701134006140300002254Disney's Kim Possible                             EPS # 1-042                                                         A6068607E                                
PROFAMCHA050701140300140312000012SCMMS - 11 - PROUD/LIZZIE/FILLMORE (2:10pm)                                                                                 150                                
PRCFAMCHA050701140312140319000007MMS - Mad Mad Summer Bumper - You're Watching MMS.                                                                          150                                
PROFAMCHA050701140319140340000021MMS - Proud Family - Coming Up Next                                                                                         150                                
PRCFAMCHA050701140340140425000045Famous Players Popcorn Parties                                                                                              150                                
PROFAMCHA050701140425140455000030Air Bud Spikes Back (PP) - Premiering Tonight @ 7:                                                                          150                                
PROFAMCHA050701140455140510000015MMS - Fillmore! - Today @ 12pm                                                                                              150                                
PROFAMCHA050701140510140534000024MMS - Weekenders - Today @ 12:25pm                                                                                          150                                
PRCFAMCHA050701140534140620000046Summer Chill 2005 (Tour) (5x)                                                                                               150                                
PROFAMCHA050701140620140642000022MMS - Recess - Today @ 12:50pm                                                                                              150                                
PROFAMCHA050701140642140714000032MMS - Dave the Barbarian - WASTE - Today @ 1:15pm                                                                           150                                
INTFAMCHA050701140714140850000136Gagsters                                          EP: 46                                                              A20686120                                
PROFAMCHA050701140850140914000024MMS - Lizzie McGuire - Today @ 2:35pm                                                                                       150                                
PRCFAMCHA050701140914140944000030MMS - Mad Mad Summer - Weekday Afternoons..All SumEP: 46                                                                    150                                
PRCFAMCHA050701140944140950000006Family Bumpers - (Phase 3 Spring 05) - Bubble Gum                                                                           150                                
ID FAMCHA050701140950141008000018MMS - Mad Mad Summer Block Open                                                                                             150                                
PGRFAMCHA050701141008143243002235The Proud Family                                  EPS # 2-023                                                         A6068807E                                
PRCFAMCHA050701143243143248000005Astral ID (FEB05)                                                                                                           150                                
PROFAMCHA050701143248143300000012SCMMS - 12 - LIZZIE/FILLMORE/WEEKENDERS (2:35pm)                                                                            150                                
PROFAMCHA050701143300143330000030Air Bud Spikes Back (PP) - Premiering Tonight @ 7:                                                                          150                                
PROFAMCHA050701143330143412000042Family Kicks - 3x, daily (MD/NS/NSW)                                                                                        150                                
PRCFAMCHA050701143412143442000030MMS - Mad Mad Summer - Weekday Afternoons..All SumEP: 46                                                                    150                                
PRCFAMCHA050701143442143451000009Family Bumpers - (Phase 2 F/W 04) - Skateboard (MD                                                                          150                                
ID FAMCHA050701143451143509000018MMS - Mad Mad Summer Block Open                                                                                             150                                
ID FAMCHA050701143509143517000008Magic of Disney - MAD DASH - Shape (:06-:09)                                                                                150                                
PROFAMCHA050701143517143525000008CC Disclaimer - FAST - Family.ca (:08-:10)                                                                                  150                                
PGRFAMCHA050701143525145800002235Lizzie McGuire                                    EP: 1-004                                                           A6068607BCC                              
PROFAMCHA050701145800145812000012SCMMS - 13 - FILLMORE/WEEKENDERS/RECESS (3pm)                                                                               150                                
PRCFAMCHA050701145812145819000007MMS - Mad Mad Summer Bumper - You're Watching MMS.                                                                          150                                
PROFAMCHA050701145819145910000051xxKellogg's Kidz Count - May 16 to July 10                                                                                  150                                
PRCFAMCHA050701145910145940000030MMS - Mad Mad Summer - Weekday Afternoons..All SumEP: 46                                                                    150                                
PROFAMCHA050701145940145947000007Zoey 101 ID - You're watching family..NADM                                                                                  150                                
ID FAMCHA050701145947150005000018MMS - Mad Mad Summer Block Open                                                                                             150                                
PGRFAMCHA050701150005152243002238Disney's Fillmore!                                EPS # 1-013                                                         A6068607E                                
PRCFAMCHA050701152243152248000005Astral ID (FEB05)                                                                                                           150                                
PROFAMCHA050701152248152300000012SCMMS - 14 - WEEKENDERS/RECESS/DAVE (3:25pm)                                                                                150                                
PROFAMCHA050701152300152330000030Air Bud Spikes Back (PP) - Premiering Tonight @ 7:                                                                          150                                
PROFAMCHA050701152330152412000042Family Kicks - 3x, daily (MD/NS/NSW)                                                                                        150                                
PRCFAMCHA050701152412152442000030MMS - Mad Mad Summer - Weekday Afternoons..All SumEP: 46                                                                    150                                
PRCFAMCHA050701152442152448000006Family Bumpers - (Phase 2 F/W 04) - Gymnastics (MD                                                                          150                                
ID FAMCHA050701152448152506000018MMS - Mad Mad Summer Block Open                                                                                             150                                
PROFAMCHA050701152506152516000010CC Disclaimer - FAST - Family.ca (:08-:10)                                                                                  150                                
PGRFAMCHA050701152516154748002232Disney's The Weekenders                           EP: 1-015                                                           A6068607ECC                              
PROFAMCHA050701154748154800000012SCMMS - 15 - RECESS/DAVE/KIM (3:50pm)                                                                                       150                                
PRCFAMCHA050701154800154830000030MMS - Mad Mad Summer - Weekday Afternoons..All SumEP: 46                                                                    150                                
PROFAMCHA050701154830154902000032MMS - Dave the Barbarian - WASTE - Today @ 4:15pm                                                                           150                                
PROFAMCHA050701154902154932000030Air Bud Spikes Back (PP) - Premiering Tonight @ 7:                                                                          150                                
PRCFAMCHA050701154932154939000007MMS - Mad Mad Summer Bumper - You're Watching MMS.                                                                          150                                
PRCFAMCHA050701154939154948000009Family Bumpers - (Phase 1 Spring 04) - Baseball (M                                                                          150                                
ID FAMCHA050701154948155006000018MMS - Mad Mad Summer Block Open                                                                                             150                                
PGRFAMCHA050701155006161241002235Disney's Recess                                   EP: 1-050                                                            6068607E                                
PRCFAMCHA050701161241161246000005Astral ID (FEB05)                                                                                                           150                                
PROFAMCHA050701161246161259000013SCMMS - 16 - DAVE/KIM/PROUD (4:15pm)                                                                                        150                                
PROFAMCHA050701161259161329000030Air Bud Spikes Back (PP) - Premiering Tonight @ 7:                                                                          150                                
PROFAMCHA050701161329161356000027MMS - Dave the Barbarian - SCREAM - Coming Up Next                                                                          150                                
PRCFAMCHA050701161356161442000046Summer Chill 2005 (Tour) (5x)                                                                                               150                                
PROFAMCHA050701161442161503000021MMS - Proud Family - Today @ 5:05pm                                                                                         150                                
PRCFAMCHA050701161503161519000016Wendy's Team of the Week BBD - (June 27 - July 3)                                                                           150                                
PRCFAMCHA050701161519161549000030MMS - Mad Mad Summer - Weekday Afternoons..All SumEP: 46                                                                    150                                
ID FAMCHA050701161549161607000018MMS - Mad Mad Summer Block Open                                                                                             150                                
PGRFAMCHA050701161607163834002227Disney's Dave the Barbarian                       EPS # 15                                                             6068607E                                
PROFAMCHA050701163834163845000011SCMMS - 17 - KIM/PROUD/LIZZIE (4:40pm)                                                                                      150                                
PRCFAMCHA050701163845163852000007MMS - Mad Mad Summer Bumper - You're Watching MMS.                                                                          150                                
PROFAMCHA050701163852163922000030Air Bud Spikes Back (PP) - Premiering Tonight @ 7:                                                                          150                                
PROFAMCHA050701163922163952000030MMS - Kim Possible - Coming Up Next                                                                                         150                                
PROFAMCHA050701163952164017000025Wendy's Team of the Week Contest                                                                                            150                                
PROFAMCHA050701164017164040000023MMS - Proud Family - Today @ 5:05pm                                                                                         150                                
PROFAMCHA050701164040164110000030Zoey 101 - Perfect (NS/FRI) (MAR05) - Tonight @ 6p                                                                          150                                
PRCFAMCHA050701164110164140000030MMS - Mad Mad Summer - Weekday Afternoons..All SumEP: 46                                                                    150                                
PRCFAMCHA050701164140164152000012Family Bumpers - (Phase 1 Spring 04) - Picnic (MD-                                                                          150                                
ID FAMCHA050701164152164210000018MMS - Mad Mad Summer Block Open                                                                                             150                                
PGRFAMCHA050701164210170504002254Disney's Kim Possible                             EPS # 1-043                                                         A6068607E                                
PRCFAMCHA050701170504170509000005Astral ID (FEB05)                                                                                                           150                                
PROFAMCHA050701170509170521000012SCMMS - 18 (FRI) - PROUD/LIZZIE/ZOEY (5:05pm)                                                                               150                                
PROFAMCHA050701170521170551000030Air Bud Spikes Back (PP) - Premiering Tonight @ 7:                                                                          150                                
PRCFAMCHA050701170551170637000046Summer Chill 2005 (Tour) (5x)                                                                                               150                                
PRCFAMCHA050701170637170723000046Famous Players Popcorn Parties                                                                                              150                                
PRCFAMCHA050701170723170753000030MMS - Mad Mad Summer - Weekday Afternoons..All SumEP: 46                                                                    150                                
ID FAMCHA050701170753170811000018MMS - Mad Mad Summer Block Open                                                                                             150                                
PGRFAMCHA050701170811173044002233The Proud Family                                  EPS # 2-024                                                         A6068807E                                
PROFAMCHA050701173044173053000009SCMMS - 19 (FRI) - LIZZIE/ZOEY (5:35pm)                                                                                     150                                
PRCFAMCHA050701173053173102000009MMS - Mad Mad Summer Bumper - You're Watching MMS.                                                                          150                                
PROFAMCHA050701173102173132000030Air Bud Spikes Back (PP) - Premiering Tonight @ 7:                                                                          150                                
PROFAMCHA050701173132173156000024MMS - Lizzie McGuire - Coming Up Next                                                                                       150                                
PROFAMCHA050701173156173238000042Family Kicks - 3x, daily (MD/NS/NSW)                                                                                        150                                
PROFAMCHA050701173238173255000017Zoey 101 - Jaime (NS/FRI) (MAR05) - Tonight @ 6pm                                                                           150                                
PRCFAMCHA050701173255173314000019xxRadio Free Roscoe - Webthrow (Pronto)*DNU                                                                                 150                                
PRCFAMCHA050701173314173344000030MMS - Mad Mad Summer - Weekday Afternoons..All SumEP: 46                                                                    150                                
PRCFAMCHA050701173344173355000011Family Bumpers - (Phase 2 F/W 04) - Science (MD-AM                                                                          150                                
ID FAMCHA050701173355173413000018MMS - Mad Mad Summer Block Open                                                                                             150                                
ID FAMCHA050701173413173420000007Magic of Disney - MAD DASH - Shape (:06-:09)                                                                                150                                
PGRFAMCHA050701173420175654002234Lizzie McGuire                                    EP: 1-005                                                           A6068607B                                
PRCFAMCHA050701175654175659000005Astral ID (FEB05)                                                                                                           150                                
PROFAMCHA050701175659175713000014PS - 01(PH) - WTP/Benjamin/Franny                                                                                           150                                
PROFAMCHA050701175713175743000030Air Bud Spikes Back (PP) - Premiering Tonight @ 7:                                                                          150                                
PROFAMCHA050701175743175808000025Wendy's Team of the Week Contest                                                                                            150                                
PRCFAMCHA050701175808175838000030Phil of the Future (NS) (PHIL) (DEC04) - Tonight @                                                                          150                                
PROFAMCHA050701175838175929000051xxKellogg's Kidz Count - May 16 to July 10                                                                                  150                                
PRCFAMCHA050701175929175959000030MMS - Mad Mad Summer - Weekday Afternoons..All SumEP: 46                                                                    150                                
ID FAMCHA050701175959180013000014Nonstop Block Open (:14-:17)                                                                                                150                                
PROFAMCHA050701180013180022000009CC Disclaimer - FAST - Family.ca (:08-:10)                                                                                  150                                
PGRFAMCHA050701180022182339002317Zoey 101                                          EPS # 01                                                             2068707BCC                              
PROFAMCHA050701182339182354000015PS - 01(PH) - WTP/Benjamin/Franny                                                                                           150                                
PROFAMCHA050701182354182424000030Air Bud Spikes Back (PP) - Premiering Tonight @ 7:                                                                          150                                
PRCFAMCHA050701182424182454000030Phil of the Future (NS) (PHIL) (DEC04) - Coming Up                                                                          150                                
PROFAMCHA050701182454182545000051xxKellogg's Kidz Count - May 16 to July 10                                                                                  150                                
PROFAMCHA050701182545182614000029Smart Guy (APR04) - Mon to Thurs @ 11:30pm                                                                                  150                                
PROFAMCHA050701182614182641000027All That (JLS) (NSW) - Tomorrow @ 7:20am                                                                                    150                                
INTFAMCHA050701182641182741000100Gagsters - Alien Attack                           EP: 46                                                              A20686120                                
PRCFAMCHA050701182741182814000033That's So Raven - Dog Wash (NSW/AM) (MAR05) - Tomo                                                                          150                                
INTFAMCHA050701182814182949000135Movie Surfers - Herbie: Fully Loaded w/ ID - Now P                                                                    A60685120                                
PRCFAMCHA050701182949182958000009Family Bumpers - (Phase 1 Spring 04) - Soccer (MD-                                                                          150                                
ID FAMCHA050701182958183012000014Nonstop Block Open (:14-:17)                                                                                                150                                
PGRFAMCHA050701183012185252002240Phil of the Future                                EPS # 12                                                             6068807B                                
PRCFAMCHA050701185252185257000005Astral ID (FEB05)                                                                                                           150                                
PROFAMCHA050701185257185311000014PS - 01(PH) - WTP/Benjamin/Franny                                                                                           150                                
PROFAMCHA050701185311185341000030Air Bud Spikes Back (PP) - Premiering Tonight @ 7:                                                                          150                                
PROFAMCHA050701185341185411000030xxNed's DSSG - TIPS (NS/FRI) (APR05) - Coming Up N                                                                          150                                
PRCFAMCHA050701185411185457000046Summer Chill 2005 (Tour) (5x)                                                                                               150                                
PRCFAMCHA050701185457185530000033That's So Raven - Dog Wash (NSW/AM) (MAR05) - Tomo                                                                          150                                
PROFAMCHA050701185530185603000033Even Stevens - Stinky Feet (MAR05) - (NSW) - Tomor                                                                          150                                
INTFAMCHA050701185603185721000118Gagsters - Crabby                                 EP: 46                                                              A20686120                                
PROFAMCHA050701185721185751000030Double Teamed (SEPT12) - Next Friday @ 7:30pm                                                                               150                                
PROFAMCHA050701185751185821000030Smart Guy (APR04) - Mon to Thurs @ 11:30pm                                                                                  150                                
PROFAMCHA050701185821185903000042Family Kicks - 3x, daily (MD/NS/NSW)                                                                                        150                                
ID FAMCHA050701185903185928000025Darcy's Wild Life Web BBD - visit family.ca                                                                                 150                                
PRCFAMCHA050701185928185958000030MMS - Mad Mad Summer - Weekday Afternoons..All SumEP: 46                                                                    150                                
ID FAMCHA050701185958190013000015Nonstop Block Open (:14-:17)                                                                                                150                                
PROFAMCHA050701190013190021000008CC Disclaimer - FAST - Family.ca (:08-:10)                                                                                  150                                
PGRFAMCHA050701190021192401002340Ned's Declassified School Survival Guide          EPS # 01                                                             2068807BCC                              
PROFAMCHA050701192401192431000030Air Bud Spikes Back (PP) - Premiering Next                                                                                  150                                
PRCFAMCHA050701192431192458000027Radio Free Roscoe - (APR05) (NSW/AM) - Tomorrow @                                                                           150                                
INTFAMCHA050701192458192633000135Movie Surfers - Herbie: Fully Loaded w/ ID - Now P                                                                    A60685120                                
PRCFAMCHA050701192633192706000033That's So Raven - Dog Wash (NSW/AM) (MAR05) - Tomo                                                                          150                                
PROFAMCHA050701192706192736000030xxZoey 101 - Perfect (NSW) (MAR05) - Tomorrow @ 9:                                                                          150                                
PRCFAMCHA050701192736192809000033Genius (WDP) - Tomorrow @ 1:30pm                                                                                            150                                
PRCFAMCHA050701192809192839000030Darcy's Wild Life - (NSW) - Tomorrow @ 6:30pm                                                                               150                                
PROFAMCHA050701192839192855000016Cheetah Girls (WDP) - Sunday @ 12pm                                                                                         150                                
PROFAMCHA050701192855192925000030Miracle In Lane 2 (PP) - Next Friday @ 7:30pm                                                                               150                                
PRCFAMCHA050701192925192955000030MMS - Mad Mad Summer - Weekday Afternoons..All SumEP: 46                                                                    150                                
PRCFAMCHA050701192955193001000006Family Bumpers - Reptile Pet - Horse  (MD/NS/NSW)                                                                           150                                
ID FAMCHA050701193001193014000013Popcorn Pix Movie Open (:13-:17)                                                                                            150                                
ID FAMCHA050701193014193023000009Rating - G - Ian (:08-:10)                                                                                                  150                                
PROFAMCHA050701193023193032000009CC Disclaimer - FAST - Family.ca (:08-:10)                                                                                  150                                
PGRFAMCHA050701193032205801012729Air Bud: Spikes Back                                                                                            C21538A1025807DCC                              
PRCFAMCHA050701205801205806000005Astral ID (FEB05)                                                                                                           150                                
PROFAMCHA050701205806205820000014Nightly Pix Line-up (SEPT) - GENERIC (:14-:16)                                                                              150                                
PROFAMCHA050701205820205850000030Air Bud Spikes Back (WDP) - Tomorrow @ 12pm                                                                                 150                                
PROFAMCHA050701205850205907000017xxZoey 101 - Jaime (NSW) (MAR05) - Tomorrow @ 9:40                                                                          150                                
PRCFAMCHA050701205907205940000033Genius (WDP) - Tomorrow @ 1:30pm                                                                                            150                                
PROFAMCHA050701205940205956000016Cheetah Girls (WDP) - Sunday @ 12pm                                                                                         150                                
ID FAMCHA050701205956210006000010xxNightly Pix Movie Open (:10-:15)                                                                                          150                                
ID FAMCHA050701210006210015000009Rating - PG - Ian (:08-:10)                                                                                                 150                                
PGRFAMCHA050701210015223603013548Crocodile Dundee                                                                                                      B7068807D                                
PRCFAMCHA050701223603223608000005Astral ID (FEB05)                                                                                                           150                                
PROFAMCHA050701223608223623000015Nightly Pix Line-up (SEPT) - GENERIC (:14-:16)                                                                              150                                
ID FAMCHA050701223623223633000010xxNightly Pix Movie Open (:10-:15)                                                                                          150                                
ID FAMCHA050701223633223642000009Rating - PG - Ian (:08-:10)                                                                                                 150                                
PROFAMCHA050701223642223651000009CC Disclaimer - SLOW - Family.ca (:08-:10)                                                                                  150                                
PGRFAMCHA050701223651001002013311Crocodile Dundee II                                                                                                   B2068807DCC                              
PRCFAMCHA050701001002001007000005Astral ID (FEB05)                                                                                                           150                                
PROFAMCHA050701001007001022000015PS - 01(PH) - WTP/Benjamin/Franny                                                                                           150                                
ID FAMCHA050701001022001037000015Nonstop Block Open (:14-:17)                                                                                                150                                
PROFAMCHA050701001037001046000009CC Disclaimer - SLOW - Family.ca (:08-:10)                                                                                  150                                
PGRFAMCHA050701001046003316002230Radio Free Roscoe                                 EPS # 21                                                      B88734A1065607ACC                              
PROFAMCHA050701003316003332000016Nnstp Wknd - 01(PH) - WTP/BENJAMIN/FRANNY (:14-:16                                                                          150                                
ID FAMCHA050701003332003348000016Nonstop Block Open (:14-:17)                                                                                                150                                
PGRFAMCHA050701003348005812002424Are You Afraid Of The Dark?                       EP: 1-029                                                     SR0304 1066807A                                
PRCFAMCHA050701005812005817000005Astral ID (FEB05)                                                                                                           150                                
PROFAMCHA050701005817005847000030Air Bud Spikes Back (WDP) - Tomorrow @ 12pm                                                                                 150                                
PROFAMCHA050701005847005903000016Cheetah Girls (WDP) - Sunday @ 12pm                                                                                         150                                
PROFAMCHA050701005903005913000010FAMJAM - Open/Close                                                                                                         150                                
INTFAMCHA050701005913010248000335MV Disney - Superstition (Raven)                                                                                       60688120                                
PROFAMCHA050701010248010302000014xxFAMJAM - Close (FAMILY) xxDNUxx                                                                                           150                                
PROFAMCHA050701010302010332000030Miracle In Lane 2 (PP) - Next Friday @ 7:30pm                                                                               150                                
PRCFAMCHA050701010332010405000033Genius (WDP) - Tomorrow @ 1:30pm                                                                                            150                                
SO FAMCHA050701010405010417000012Sign Off                                                                                                                                                       
OFFFAMCHA050701010417043000032543OFF AIR                                                                                                                                                        
SO FAMCHA050702043000043011000011Sign On (oct 1)                                                                                                                                                
PROFAMCHA050702043011043020000009CC Disclaimer - FAST - Family.ca (:08-:10)                                                                                  150                                
PGRFAMCHA050702043020045313002253Franklin                                          EP: 4-044                                                     B38151A1065607ECC                              
PRCFAMCHA050702045313045318000005Astral ID (FEB05)                                                                                                           150                                
PROFAMCHA050702045318045333000015Nnstp Wknd - 01(PH) - WTP/BENJAMIN/FRANNY (:14-:16                                                                          150                                
ID FAMCHA050702045333045346000013PS Playhouse AM Block Open (:10-:15)                                                                                        150                                
PROFAMCHA050702045346045355000009CC Disclaimer - FAST - Family.ca (:08-:10)                                                                                  150                                
PGRFAMCHA050702045355051748002353Henry's World                                     EP: 1-001                                                     B66543A1065607GCC                              
PROFAMCHA050702051748051803000015Nnstp Wknd - 01(PH) - WTP/BENJAMIN/FRANNY (:14-:16                                                                          150                                
ID FAMCHA050702051803051816000013PS Playhouse AM Block Open (:10-:15)                                                                                        150                                
PROFAMCHA050702051816051825000009CC Disclaimer - FAST - Family.ca (:08-:10)                                                                                  150                                
PGRFAMCHA050702051825054100002235The Secret World Of Benjamin Bear                 EPS # 1-009                                                   A75154A1065607ECC                              
PRCFAMCHA050702054100054105000005Astral ID (FEB05)                                                                                                           150                                
PROFAMCHA050702054105054120000015Nnstp Wknd - 01(PH) - WTP/BENJAMIN/FRANNY (:14-:16                                                                          150                                
ID FAMCHA050702054120054135000015Franny's Feet Web BBD - Part of Playhouse @ family                                                                          150                                
PRCFAMCHA050702054135054147000012Family Bumpers - (Phase 1 Spring 04) - Funhouse (P                                                                          150                                
ID FAMCHA050702054147054200000013PS Playhouse AM Block Open (:10-:15)                                                                                        150                                
PROFAMCHA050702054200054209000009CC Disclaimer - FAST - Family.ca (:08-:10)                                                                                  150                                
PGRFAMCHA050702054209060439002230Franny's Feet                                     EPS # 1-010                                                   C23970A1065607ECC                              
PROFAMCHA050702060439060454000015Nnstp Wknd - 01(PH) - WTP/BENJAMIN/FRANNY (:14-:16                                                                          150                                
ID FAMCHA050702060454060509000015xxPower Box Block Open (:10-:15)                                                                                            150                                
PGRFAMCHA050702060509062638002129Daigunder                                         EPS # 31                                                             2068607E                                
PRCFAMCHA050702062638062643000005Astral ID (FEB05)                                                                                                           150                                
PROFAMCHA050702062643062658000015Nnstp Wknd - 01(PH) - WTP/BENJAMIN/FRANNY (:14-:16                                                                          150                                
PRCFAMCHA050702062658062728000030MMS - Mad Mad Summer - Weekday Afternoons..All SumEP: 46                                                                    150                                
PROFAMCHA050702062728062758000030Power Rangers - Dino Thunder - Coming Up Next                                                                               150                                
INTFAMCHA050702062758062843000045Gagsters - Shell Game                             EP: 46                                                              A20686120                                
PROFAMCHA050702062843062915000032Power Rangers - SPD - He's Tough - Today @ 6:55am                                                                           150                                
PROFAMCHA050702062915062945000030xxDaigunder (MAY05) - Tomorrow @ 6:05am                                                                                     150                                
ID FAMCHA050702062945063000000015xxPower Box Block Open (:10-:15)                                                                                            150                                
PGRFAMCHA050702063000065129002129Power Rangers Dino Thunder                        EPS # 29                                                            A6068607E                                
PROFAMCHA050702065129065144000015Nnstp Wknd - 01(PH) - WTP/BENJAMIN/FRANNY (:14-:16                                                                          150                                
PROFAMCHA050702065144065216000032Power Rangers - SPD - He's Tough - Coming Up Next                                                                           150                                
PRCFAMCHA050702065216065246000030xxPhil of the Future (NSW) (PHIL) (DEC04) - Today                                                                           150                                
PROFAMCHA050702065246065328000042Family Kicks - 3x, daily (MD/NS/NSW)                                                                                        150                                
PROFAMCHA050702065328065358000030xxDaigunder (MAY05) - Tomorrow @ 6:05am                                                                                     150                                
PRCFAMCHA050702065358065417000019Nonstop Weekend - EVEN STEVENS - Locker                                                                                     150                                
PROFAMCHA050702065417065447000030Power Rangers - Dino Thunder - Tomorrow @ 6:30am                                                                            150                                
ID FAMCHA050702065447065500000013xxPower Box Block Open (:10-:15)                                                                                            150                                
PGRFAMCHA050702065500071739002239Power Rangers Space Patrol Delta                  EP: 17                                                               6028607E                                
PRCFAMCHA050702071739071744000005Astral ID (FEB05)                                                                                                           150                                
PROFAMCHA050702071744071758000014Nnstp Wknd - 01(PH) - WTP/BENJAMIN/FRANNY (:14-:16                                                                          150                                
PROFAMCHA050702071758071828000030Air Bud Spikes Back (WDP) - Today @ 12pm                                                                                    150                                
PROFAMCHA050702071828071855000027All That (JLS) (NSW) - Coming Up Next                                                                                       150                                
PRCFAMCHA050702071855071941000046Summer Chill 2005 (Tour) (5x)                                                                                               150                                
PROFAMCHA050702071941072004000023Lizzie McGuire - SFX2 (NSW/AM) - Today @ 7:50am                                                                             150                                
PRCFAMCHA050702072004072031000027Radio Free Roscoe - (APR05) (NSW/AM) - Today @ 8:1                                                                          150                                
PRCFAMCHA050702072031072046000015Naturally Sadie - MONTAGE (Clip) (NSW) - Tonight @                                                                          150                                
ID FAMCHA050702072046072100000014Nonstop Weekend Block Open (:14-:17)                                                                                        150                                
PGRFAMCHA050702072100074100002000All That                                          EPS # 950                                                            20686090                                
PROFAMCHA050702074100074115000015Nnstp Wknd - 01(PH) - WTP/BENJAMIN/FRANNY (:14-:16                                                                          150                                
PRCFAMCHA050702074115074145000030MMS - Mad Mad Summer - Weekday Afternoons..All SumEP: 46                                                                    150                                
PROFAMCHA050702074145074208000023Lizzie McGuire - SFX2 (NSW) - Coming Up Next                                                                                150                                
PRCFAMCHA050702074208074235000027Radio Free Roscoe - (APR05) (NSW/AM) - Today @ 8:1                                                                          150                                
PROFAMCHA050702074235074317000042Family Kicks - 3x, daily (MD/NS/NSW)                                                                                        150                                
PRCFAMCHA050702074317074347000030xxPhil of the Future (NSW) (PHIL) (DEC04) - Today                                                                           150                                
PROFAMCHA050702074347074357000010FAMJAM - Open/Close                                                                                                         150                                
INTFAMCHA050702074357074608000211MV Disney - (MD/NS/NSW) - Do You Believe In Magic                                                                      60688120                                
PROFAMCHA050702074608074622000014xxFAMJAM - Close (FAMILY) xxDNUxx                                                                                           150                                
PRCFAMCHA050702074622074654000032That's So Raven - Visions (NSW/AM) (MAR05) - Today                                                                          150                                
PROFAMCHA050702074654074724000030xxZoey 101 - Perfect (NSW) (MAR05) - Today @ 9:40a                                                                          150                                
INTFAMCHA050702074724074806000042Gagsters - Clean Sweep                            EP: 46                                                              A20686120                                
PRCFAMCHA050702074806074839000033Genius (WDP) - Today @ 1:30pm                                                                                               150                                
PRCFAMCHA050702074839074845000006Family Bumpers - (Phase 2 F/W 04) - Gymnastics (MD                                                                          150                                
ID FAMCHA050702074845074900000015Nonstop Weekend Block Open (:14-:17)                                                                                        150                                
ID FAMCHA050702074900074908000008Magic of Disney - NS/NSW/PB - Shape (:06-:09)                                                                               150                                
PGRFAMCHA050702074908081142002234Lizzie McGuire                                    EP: 1-005                                                           A6068607B                                
PRCFAMCHA050702081142081147000005Astral ID (FEB05)                                                                                                           150                                
PROFAMCHA050702081147081202000015Nnstp Wknd - 01(PH) - WTP/BENJAMIN/FRANNY (:14-:16                                                                          150                                
PRCFAMCHA050702081202081232000030MMS - Mad Mad Summer - Weekday Afternoons..All SumEP: 46                                                                    150                                
PRCFAMCHA050702081232081259000027Radio Free Roscoe - (APR05) (NSW) - Coming Up Next                                                                          150                                
PRCFAMCHA050702081259081329000030xxPhil of the Future (NSW) (PHIL) (DEC04) - Today                                                                           150                                
INTFAMCHA050702081329081442000113Gagsters - High Heel Helper                       EP: 46                                                              A20686120                                
PRCFAMCHA050702081442081515000033That's So Raven - Dog Wash (NSW/AM) (MAR05) - Toda                                                                          150                                
PROFAMCHA050702081515081545000030Air Bud Spikes Back (WDP) - Today @ 12pm                                                                                    150                                
ID FAMCHA050702081545081600000015Nonstop Weekend Block Open (:14-:17)                                                                                        150                                
PROFAMCHA050702081600081609000009CC Disclaimer - FAST - Family.ca (:08-:10)                                                                                  150                                
PGRFAMCHA050702081609083839002230Radio Free Roscoe                                 EPS # 008                                                     B88724A1065607ACC                              
PROFAMCHA050702083839083854000015Nnstp Wknd - 01(PH) - WTP/BENJAMIN/FRANNY (:14-:16                                                                          150                                
PRCFAMCHA050702083854083924000030Phil of the Future (NSW) (PHIL) (DEC04) - Coming U                                                                          150                                
PRCFAMCHA050702083924084010000046Summer Chill 2005 (Tour) (5x)                                                                                               150                                
PRCFAMCHA050702084010084042000032That's So Raven - Visions (NSW/AM) (MAR05) - Today                                                                          150                                
PROFAMCHA050702084042084112000030xxZoey 101 - Perfect (NSW) (MAR05) - Today @ 9:40a                                                                          150                                
PROFAMCHA050702084112084145000033Even Stevens - Stinky Feet (MAR05) - (NSW) - Today                                                                          150                                
INTFAMCHA050702084145084305000120Gagsters                                          EP: 46                                                              A20686120                                
PROFAMCHA050702084305084335000030Double Teamed (SEPT12) - Next Friday @ 7:30pm                                                                               150                                
PROFAMCHA050702084335084404000029Smart Guy (APR04) - Mon to Thurs @ 11:30pm                                                                                  150                                
PRCFAMCHA050702084404084437000033Genius (WDP) - Today @ 1:30pm                                                                                               150                                
PRCFAMCHA050702084437084444000007Family Bumpers - (Phase 2 F/W 04) - Hockey (MD-L/M                                                                          150                                
ID FAMCHA050702084444084500000016Nonstop Weekend Block Open (:14-:17)                                                                                        150                                
PGRFAMCHA050702084500090740002240Phil of the Future                                EPS # 13                                                             6068807B                                
PRCFAMCHA050702090740090745000005Astral ID (FEB05)                                                                                                           150                                
PROFAMCHA050702090745090800000015Nnstp Wknd - 01(PH) - WTP/BENJAMIN/FRANNY (:14-:16                                                                          150                                
PROFAMCHA050702090800090830000030Air Bud Spikes Back (WDP) - Today @ 12pm                                                                                    150                                
PRCFAMCHA050702090830090903000033That's So Raven - Dog Wash (NSW) (MAR05) - Coming                                                                           150                                
PROFAMCHA050702090903090928000025Wendy's Team of the Week Contest                                                                                            150                                
PROFAMCHA050702090928090958000030xxZoey 101 - Perfect (NSW) (MAR05) - Today @ 9:40a                                                                          150                                
PROFAMCHA050702090958091008000010FAMJAM - Open/Close                                                                                                         150                                
INTFAMCHA050702091008091108000100MV Disney - (FAMILY HITS) That's So Raven Theme So                                                                     60688120                                
PROFAMCHA050702091108091122000014xxFAMJAM - Close (FAMILY) xxDNUxx                                                                                           150                                
PROFAMCHA050702091122091155000033Even Stevens - Stinky Feet (MAR05) - (NSW) - Today                                                                          150                                
PROFAMCHA050702091155091225000030Double Teamed (SEPT12) - Next Friday @ 7:30pm                                                                               150                                
PROFAMCHA050702091225091255000030xxNed's DSSG - TIPS (NSW) (APR05) - Today @ 11:05a                                                                          150                                
PRCFAMCHA050702091255091326000031Naturally Sadie - TIE (Clip) (NSW) - Tonight @ 6:0                                                                          150                                
PRCFAMCHA050702091326091345000019xxRadio Free Roscoe - Webthrow (Pronto)*DNU                                                                                 150                                
ID FAMCHA050702091345091400000015Nonstop Weekend Block Open (:14-:17)                                                                                        150                                
PGRFAMCHA050702091400093616002216That's So Raven                                   EPS # 1-055                                                          6068807B                                
PROFAMCHA050702093616093631000015Nnstp Wknd - 01(PH) - WTP/BENJAMIN/FRANNY (:14-:16                                                                          150                                
PRCFAMCHA050702093631093704000033Genius (WDP) - Today @ 1:30pm                                                                                               150                                
PROFAMCHA050702093704093734000030Zoey 101 - Perfect (NSW) (MAR05) - Coming Up Next                                                                           150                                
PROFAMCHA050702093734093825000051xxKellogg's Kidz Count - May 16 to July 10                                                                                  150                                
PROFAMCHA050702093825093858000033Even Stevens - Stinky Feet (MAR05) - (NSW) - Today                                                                          150                                
PRCFAMCHA050702093858093929000031Naturally Sadie - TIE (Clip) (NSW) - Tonight @ 6:0                                                                          150                                
PRCFAMCHA050702093929093939000010Naturally Sadie ID's - Log on to family.ca                                                                                  150                                
PRCFAMCHA050702093939093945000006Family Bumpers - (Phase 3 Spring 05) - Bubble Gum                                                                           150                                
ID FAMCHA050702093945094000000015Nonstop Weekend Block Open (:14-:17)                                                                                        150                                
PROFAMCHA050702094000094009000009CC Disclaimer - FAST - Family.ca (:08-:10)                                                                                  150                                
PGRFAMCHA050702094009100242002233Zoey 101                                          EPS # 13                                                             2068807BCC                              
PRCFAMCHA050702100242100247000005Astral ID (FEB05)                                                                                                           150                                
PROFAMCHA050702100247100302000015Nnstp Wknd - 13 - EVEN/BMW/NED (:14-:16) (MAR05)                                                                            150                                
PROFAMCHA050702100302100332000030Air Bud Spikes Back (WDP) - Today @ 12pm                                                                                    150                                
PROFAMCHA050702100332100405000033Even Stevens - Stinky Feet (MAR05) - (NSW) - Comin                                                                          150                                
PRCFAMCHA050702100405100451000046Summer Chill 2005 (Tour) (5x)                                                                                               150                                
PROFAMCHA050702100451100521000030Double Teamed (SEPT12) - Next Friday @ 7:30pm                                                                               150                                
INTFAMCHA050702100521100656000135Movie Surfers - Herbie: Fully Loaded w/ ID - Now P                                                                    A60685120                                
PROFAMCHA050702100656100725000029Smart Guy (APR04) - Mon to Thurs @ 11:30pm                                                                                  150                                
INTFAMCHA050702100725100851000126Gagsters                                          EP: 46                                                              A20686120                                
PROFAMCHA050702100851100930000039Brotherly Love (NSW) - Tomorrow @ 11:30am                                                                                   150                                
PRCFAMCHA050702100930101001000031Naturally Sadie - TIE (Clip) (NSW) - Tonight @ 6:0                                                                          150                                
PROFAMCHA050702101001101043000042Family Kicks - 3x, daily (MD/NS/NSW)                                                                                        150                                
ID FAMCHA050702101043101100000017Nonstop Weekend Block Open (:14-:17)                                                                                        150                                
ID FAMCHA050702101100101108000008Magic of Disney - NS/NSW/PB - Wipe (:06-:09)                                                                                150                                
PGRFAMCHA050702101108103350002242Even Stevens                                      EP: 1-009                                                           A6068807B                                
PROFAMCHA050702103350103405000015Nnstp Wknd - 01(PH) - WTP/BENJAMIN/FRANNY (:14-:16                                                                          150                                
PRCFAMCHA050702103405103438000033Genius (WDP) - Today @ 1:30pm                                                                                               150                                
PROFAMCHA050702103438103508000030Double Teamed (SEPT12) - Next Friday @ 7:30pm                                                                               150                                
PROFAMCHA050702103508103538000030xxNed's DSSG - TIPS (NSW) (APR05) - Today @ 11:05a                                                                          150                                
PROFAMCHA050702103538103617000039Brotherly Love (NSW) - Tomorrow @ 11:30am                                                                                   150                                
PROFAMCHA050702103617103627000010FAMJAM - Open/Close                                                                                                         150                                
INTFAMCHA050702103627103727000100MV Disney - Huckaroo (Pixel Perfect)                                                                                   60688120                                
PROFAMCHA050702103727103741000014xxFAMJAM - Close (FAMILY) xxDNUxx                                                                                           150                                
PROFAMCHA050702103741103811000030Smart Guy (APR04) - Mon to Thurs @ 11:30pm                                                                                  150                                
PRCFAMCHA050702103811103822000011Naturally Sadie ID's - I'm Charlotte, you're watch                                                                          150                                
PRCFAMCHA050702103822103837000015Wendy's Team of the Week BBD - (June 27 - July 3)                                                                           150                                
PRCFAMCHA050702103837103846000009Family Bumpers - (Phase 2 F/W 04) - Skateboard (MD                                                                          150                                
ID FAMCHA050702103846103901000015Nonstop Weekend Block Open (:14-:17)                                                                                        150                                
PROFAMCHA050702103901103910000009CC Disclaimer - FAST - Family.ca (:08-:10)                                                                                  150                                
