SO FAMCHA040801043000043011000011Sign On (oct 1)                                                                                                                                                
PROFAMCHA040801043011043020000009CC Disclaimer - FAST - Family.ca (:08-:10)                                                                                  150                                
PGRFAMCHA040801043020045313002253Franklin                                          Franklin's Night Friend/Franklin's Two Henry's                B36662A1065607ECC                              
PROFAMCHA040801045313045329000016Nnstp Wknd - 01(PH) - WTP/KATIE/FRANKLIN (:14-:16)                                                                          150                                
ID FAMCHA040801045329045342000013PS Playhouse AM Block Open (:10-:15)                                                                                        150                                
PROFAMCHA040801045342045351000009CC Disclaimer - FAST - Family.ca (:08-:10)                                                                                  150                                
PGRFAMCHA040801045351051634002243New Adventures of Winnie the Pooh; The            Stripes/Monkey See, Monkey Do Better                                 6068607ECC                              
PROFAMCHA040801051634051650000016Nnstp Wknd - 02(PH) - KATIE/FRANKLIN/RIPLEY (:14-:                                                                          150                                
ID FAMCHA040801051650051700000010PS Playhouse AM Block Open (:10-:15)                                                                                        150                                
PROFAMCHA040801051700051709000009CC Disclaimer - FAST - Family.ca (:08-:10)                                                                                  150                                
PGRFAMCHA040801051709054347002638Katie And Orbie                                   Night Lights/Garden Hose/Notebook                             B62277A1065607ECC                              
PROFAMCHA040801054347054403000016Nnstp Wknd - 03(PH) - FRANKLIN/RIPLEY/NINJA (:14-:                                                                          150                                
ID FAMCHA040801054403054416000013PS Playhouse AM Block Open (:10-:15)                                                                                        150                                
PROFAMCHA040801054416054425000009CC Disclaimer - FAST - Family.ca (:08-:10)                                                                                  150                                
PGRFAMCHA040801054425060718002253Franklin                                          Franklin's Nature Hike/Franklin's Starring Role               B36663A1065607ECC                              
PROFAMCHA040801060718060734000016Nnstp Wknd - 04(PH/MAR) - RIPLEY/NINJA/DINO (:14-:                                                                          150                                
PROFAMCHA040801060734060749000015Hoze Houndz (Squirt Bored) (NSW) - Tonight @ 6:45p                                                                          150                                
ID FAMCHA040801060749060800000011PS Playhouse AM Block Open (:10-:15)                                                                                        150                                
PROFAMCHA040801060800060809000009CC Disclaimer - FAST - Family.ca (:08-:10)                                                                                  150                                
PGRFAMCHA040801060809063307002458Ripley's Believe It Or Not!                       A Flare for Fashion                                           B71300 1065607ECC                              
PRCFAMCHA040801063307063316000009Family Bumpers - (Phase 1 Spring 04) - DJ Spinning                                                                          150                                
ID FAMCHA040801063316063328000012Power Box Block Open (:12-:15)                                                                                              150                                
PGRFAMCHA040801063328065456002128Power Rangers Ninja Storm                         Scent of a Ranger                                                   A6068607E                                
PROFAMCHA040801065456065512000016Nnstp Wknd - 06(PB/MAR) - DINO/LIZZIE/RADIO (:14-:                                                                          150                                
PRCFAMCHA040801065512065544000032Summer Chill - RFR Week - Fav. Ep. Tomorrow / Pilo                                                                          150                                
PROFAMCHA040801065544065620000036Power Rangers Dino Thunder (LONG) - Coming Up Next                                                                          150                                
PRCFAMCHA040801065620065650000030xxNBA Jam - Generic (July 13 - Aug 8) and (Sep 7 -                                                                          150                                
PROFAMCHA040801065650065708000018xxLizzie McGuire - ACTING (MD) - Today @ 5:35pm                                                                             150                                
PRCFAMCHA040801065708065741000033xxRadio Free Roscoe (MAY04) - (NSW/AM) - Today @ 8                                                                          150                                
PROFAMCHA040801065741065818000037Summer Chill Event - Keep Watching All Summer                                                                               150                                
ID FAMCHA040801065818065832000014Power Box Block Open (:12-:15)                                                                                              150                                
PGRFAMCHA040801065832072017002145Power Rangers Dino Thunder                        EPS # 20                                                            A6028607E                                
PROFAMCHA040801072017072033000016Nnstp Wknd - 07(MAR) - LIZZIE/RADIO/AMANDA (:14-:1                                                                          150                                
PRCFAMCHA040801072033072105000032Summer Chill - RFR Week - Fav. Ep. Tomorrow / Pilo                                                                          150                                
PROFAMCHA040801072105072120000015xxLizzie McGuire - ACTING (MD) - Coming Up Next                                                                             150                                
PRCFAMCHA040801072120072150000030xxRadio Free Roscoe (RFR) - (NSW/AM) - Today @ 8am                                                                          150                                
PROFAMCHA040801072150072200000010FAMJAM - Open                                                                                                               150                                
INTFAMCHA040801072200072439000239MV Disney - Our Lips Are Sealed (Hilary/Hailey Duf                                                                     60688120                                
PROFAMCHA040801072439072453000014FAMJAM - Close (EMAIL)                                                                                                      150                                
PROFAMCHA040801072453072523000030All That (NSW/MAR) - Today @ 9am                                                                                            150                                
INTFAMCHA040801072523072701000138Gagsters - Excuse Me                                                                                                  A20686120                                
PROFAMCHA040801072701072732000031That's So Raven (APR04) - (NSW/AM) - Today @ 9:55a                                                                          150                                
PRCFAMCHA040801072732072802000030Nonstop Weekend Block Promo (NSW) - Coming Up Next                                                                          150                                
PROFAMCHA040801072802072839000037Summer Chill Event - Keep Watching All Summer                                                                               150                                
ID FAMCHA040801072839072853000014Nonstop Weekend Block Open (:14-:17)                                                                                        150                                
ID FAMCHA040801072853072901000008Magic of Disney - NS/NSW/PB - Shape (:06-:09)                                                                               150                                
PGRFAMCHA040801072901075147002246Lizzie McGuire                                    EPS # 2-027                                                         A6068607B                                
PROFAMCHA040801075147075203000016Nnstp Wknd - 08 - RADIO/AMANDA/ALL (:14-:16) (MAR0                                                                          150                                
PROFAMCHA040801075203075240000037Summer Chill Event - Keep Watching All Summer                                                                               150                                
PRCFAMCHA040801075240075310000030xxRadio Free Roscoe (RFR) - (NSW) - Coming Up Next                                                                          150                                
PROFAMCHA040801075310075340000030Amanda Show - FACES - (NSW) - Today @ 8:30am                                                                                150                                
PRCFAMCHA040801075340075358000018Radio Free Roscoe - Webthrow (Waller)                                                                                       150                                
PROFAMCHA040801075358075429000031That's So Raven (APR04) - (NSW/AM) - Today @ 9:55a                                                                          150                                
PROFAMCHA040801075429075459000030Boy Meets World (SCRAWNY) - (NSW) - Today @ 10:20a                                                                          150                                
PROFAMCHA040801075459075509000010FAMJAM - Open                                                                                                               150                                
INTFAMCHA040801075509075724000215MV Disney - Cinderella (Cheetah Girls)                                                                                 60688120                                
PROFAMCHA040801075724075738000014FAMJAM - Close (LOGO)                                                                                                       150                                
PROFAMCHA040801075738075804000026Smart Guy (APR04) - (NSW-AM) - Today @ 10:45am                                                                              150                                
PRCFAMCHA040801075804075818000014Family Bumpers - (Phase 1 Spring 04) - Basketball                                                                           150                                
PRCFAMCHA040801075818075850000032Summer Chill - RFR Week - Fav. Ep. Tomorrow / Pilo                                                                          150                                
ID FAMCHA040801075850075905000015Nonstop Weekend Block Open (:14-:17)                                                                                        150                                
PROFAMCHA040801075905075914000009CC Disclaimer - FAST - Family.ca (:08-:10)                                                                                  150                                
PGRFAMCHA040801075914082144002230Radio Free Roscoe                                 EPS # 18                                                      A88731A1065607ACC                              
PROFAMCHA040801082144082158000014Nnstp Wknd - 09 - AMANDA/ALL/EVEN (:14-:16)                                                                                 150                                
PRCFAMCHA040801082158082230000032Summer Chill - RFR Week - Fav. Ep. Tomorrow / Pilo                                                                          150                                
PROFAMCHA040801082230082300000030Amanda Show - FACES - (NSW) - Coming Up                                                                                     150                                
INTFAMCHA040801082300082423000123Gagsters - Feline Frenzy                                                                                              A20686120                                
PROFAMCHA040801082423082453000030All That (NSW/MAR) - Today @ 9am                                                                                            150                                
PROFAMCHA040801082453082518000025Even Stevens (SIBLINGS) - (NSW) - Today @ 9:30am                                                                            150                                
INTFAMCHA040801082518082648000130Klootz - Rowboat Or The Motor #45                                                                                     A10658120                                
PROFAMCHA040801082648082718000030Boy Meets World (SCRAWNY) - (NSW) - Today @ 10:20a                                                                          150                                
PROFAMCHA040801082718082744000026Smart Guy (APR04) - (NSW-AM) - Today @ 10:45am                                                                              150                                
INTFAMCHA040801082744082812000028Lindsay Lohan Interview - Bullying Advice                                                                             A10628120                                
PROFAMCHA040801082812082849000037Summer Chill Event - Keep Watching All Summer                                                                               150                                
ID FAMCHA040801082849082903000014Nonstop Weekend Block Open (:14-:17)                                                                                        150                                
PGRFAMCHA040801082903085117002214Amanda Show; The                                                                                                      A20686090                                
PROFAMCHA040801085117085133000016Nnstp Wknd - 10 - ALL/EVEN/RAVEN (:14-:16)                                                                                  150                                
PRCFAMCHA040801085133085205000032Summer Chill - RFR Week - Fav. Ep. Tomorrow / Pilo                                                                          150                                
PROFAMCHA040801085205085235000030All That (NS/MAR) - Coming Up Next                                                                                          150                                
PROFAMCHA040801085235085300000025Even Stevens (SIBLINGS) - (NSW) - Today @ 9:30am                                                                            150                                
PRCFAMCHA040801085300085330000030xxNBA Jam - Generic (July 13 - Aug 8) and (Sep 7 -                                                                          150                                
PROFAMCHA040801085330085401000031That's So Raven (APR04) - (NSW/AM) - Today @ 9:55a                                                                          150                                
PROFAMCHA040801085401085411000010FAMJAM - Open                                                                                                               150                                
INTFAMCHA040801085411085511000100MV Disney - I Can't Wait (HILARY DUFF)                                                                                 60688120                                
PROFAMCHA040801085511085525000014FAMJAM - Close (LOGO)                                                                                                       150                                
PROFAMCHA040801085525085555000030Boy Meets World (SCRAWNY) - (NSW) - Today @ 10:20a                                                                          150                                
PROFAMCHA040801085555085621000026Smart Guy (APR04) - (NSW-AM) - Today @ 10:45am                                                                              150                                
INTFAMCHA040801085621085741000120Gagsters - Dirty Rat                                                                                                  A20686120                                
PROFAMCHA040801085741085819000038Teen Angel (JUN04) - (NSW/AM) - Today @ 11:10am                                                                             150                                
PROFAMCHA040801085819085856000037Summer Chill Event - Keep Watching All Summer                                                                               150                                
ID FAMCHA040801085856085912000016Nonstop Weekend Block Open (:14-:17)                                                                                        150                                
PGRFAMCHA040801085912091940002028All That                                                                                                              A20686090                                
PROFAMCHA040801091940091956000016Nnstp Wknd - 11 - EVEN/RAVEN/BMW (:14-:16)                                                                                  150                                
PRCFAMCHA040801091956092028000032Summer Chill - RFR Week - Fav. Ep. Tomorrow / Pilo                                                                          150                                
PROFAMCHA040801092028092053000025Even Stevens (SIBLINGS) - (NS) - Coming Up                                                                                  150                                
PRCFAMCHA040801092053092127000034Family Kicks (May 21 - Sept 26)                                                                                             150                                
INTFAMCHA040801092127092237000110Gagsters - Kite-astrophe                                                                                              A20686120                                
PROFAMCHA040801092237092308000031That's So Raven (APR04) - (NSW/AM) - Today @ 9:55a                                                                          150                                
PRCFAMCHA040801092308092339000031Summer Chill Tour (July 19 - Aug 25) 3x daily                                                                               150                                
PROFAMCHA040801092339092409000030Boy Meets World (SCRAWNY) - (NSW) - Today @ 10:20a                                                                          150                                
PRCFAMCHA040801092409092444000035Bullying Pledge - Ongoing to September 1                                                                                    150                                
PROFAMCHA040801092444092510000026Smart Guy (APR04) - (NSW-AM) - Today @ 10:45am                                                                              150                                
INTFAMCHA040801092510092640000130Klootz - Olympics 06                                                                                                  A10658120                                
PRCFAMCHA040801092640092710000030Nonstop Weekend Block Promo (NSW) - You're Watchin                                                                          150                                
PROFAMCHA040801092710092748000038Teen Angel (JUN04) - (NSW/AM) - Today @ 11:10am                                                                             150                                
PROFAMCHA040801092748092825000037Summer Chill Event - Keep Watching All Summer                                                                               150                                
ID FAMCHA040801092825092840000015Nonstop Weekend Block Open (:14-:17)                                                                                        150                                
ID FAMCHA040801092840092848000008Magic of Disney - NS/NSW/PB - Wipe (:06-:09)                                                                                150                                
PROFAMCHA040801092848092857000009CC Disclaimer - FAST - Family.ca (:08-:10)                                                                                  150                                
PGRFAMCHA040801092857095136002239Even Stevens                                      Influenza: The Musical                                              A6068807BCC                              
PROFAMCHA040801095136095151000015Nnstp Wknd - 12 - RAVEN/BMW/SMART (:14-:16)                                                                                 150                                
PRCFAMCHA040801095151095223000032Summer Chill - RFR Week - Fav. Ep. Tomorrow / Pilo                                                                          150                                
PROFAMCHA040801095223095254000031That's So Raven (APR04) - (NSW) - Coming Up Next                                                                            150                                
PROFAMCHA040801095254095324000030Confessions of a Teenage Drama Queen - Available N                                                                    A     150                                
PRCFAMCHA040801095324095336000012Family Bumpers - (Phase 1 Spring 04) - Pillow Figh                                                                          150                                
INTFAMCHA040801095336095349000013Lindsay Lohan Interview - What's Next?                                                                                A10628120                                
PROFAMCHA040801095349095426000037Summer Chill Event - Keep Watching All Summer                                                                               150                                
ID FAMCHA040801095426095441000015Nonstop Weekend Block Open (:14-:17)                                                                                        150                                
PROFAMCHA040801095441095450000009CC Disclaimer - FAST - Family.ca (:08-:10)                                                                                  150                                
PGRFAMCHA040801095450101735002245That's So Raven                                   A Fish Called Raven                                                 A6068807BCC                              
PROFAMCHA040801101735101751000016Nnstp Wknd - 13 - BMW/SMART/TEEN (:14-:16)                                                                                  150                                
PRCFAMCHA040801101751101823000032Summer Chill - RFR Week - Fav. Ep. Tomorrow / Pilo                                                                          150                                
PROFAMCHA040801101823101853000030Boy Meets World (SCRAWNY) - (NSW) - Coming Up                                                                               150                                
PROFAMCHA040801101853101930000037Summer Chill Event - Keep Watching All Summer                                                                               150                                
ID FAMCHA040801101930101946000016Nonstop Weekend Block Open (:14-:17)                                                                                        150                                
PROFAMCHA040801101946101955000009CC Disclaimer - FAST - Family.ca (:08-:10)                                                                                  150                                
PGRFAMCHA040801101955104143002148Boy Meets World                                   And Then There Was Shawn                                            B6068807BCC                              
PROFAMCHA040801104143104159000016Nnstp Wknd - 14 - SMART/TEEN/WISH (:14-:16)                                                                                 150                                
PRCFAMCHA040801104159104231000032Summer Chill - RFR Week - Fav. Ep. Tomorrow / Pilo                                                                          150                                
PROFAMCHA040801104231104257000026Smart Guy (APR04) - (NSW) - Coming Up Next                                                                                  150                                
PRCFAMCHA040801104257104327000030xxNBA Jam - Generic (July 13 - Aug 8) and (Sep 7 -                                                                          150                                
PROFAMCHA040801104327104353000026Smart Guy (APR04) - (NSW-PM) - Today @ 3pm                                                                                  150                                
PROFAMCHA040801104353104430000037Summer Chill Event - Keep Watching All Summer                                                                               150                                
PRCFAMCHA040801104430104439000009Family Bumpers - (Phase 1 Spring 04) - DJ Spinning                                                                          150                                
ID FAMCHA040801104439104454000015Nonstop Weekend Block Open (:14-:17)                                                                                        150                                
PROFAMCHA040801104454104503000009CC Disclaimer - FAST - Family.ca (:08-:10)                                                                                  150                                
PGRFAMCHA040801104503110740002237Smart Guy                                         Below The Rim                                                       A6068807BCC                              
PROFAMCHA040801110740110754000014Nnstp Wknd - 15 - TEEN/WISH (:14-:16)                                                                                       150                                
PRCFAMCHA040801110754110826000032Summer Chill - RFR Week - Fav. Ep. Tomorrow / Pilo                                                                          150                                
PROFAMCHA040801110826110904000038Teen Angel (JUN04) - (NSW) - Coming Up Next                                                                                 150                                
PROFAMCHA040801110904110941000037Summer Chill Event - Keep Watching All Summer                                                                               150                                
PROFAMCHA040801110941110949000008Raven ID's II - Log onto family.ca                                                                                          150                                
ID FAMCHA040801110949111003000014Nonstop Weekend Block Open (:14-:17)                                                                                        150                                
PROFAMCHA040801111003111012000009CC Disclaimer - FAST - Family.ca (:08-:10)                                                                                  150                                
PGRFAMCHA040801111012113131002119Teen Angel                                        The Un-Natural                                                      A6068807BCC                              
PRCFAMCHA040801113131113203000032Summer Chill - RFR Week - Fav. Ep. Tomorrow / Pilo                                                                          150                                
PRCFAMCHA040801113203113233000030Weekend Double Pix Promo (ACTION) - Today, Startin                                                                          150                                
PRCFAMCHA040801113233113303000030xxNBA Jam - Generic (July 13 - Aug 8) and (Sep 7 -                                                                          150                                
PROFAMCHA040801113303113329000026Smart Guy (APR04) - (NSW-PM) - Today @ 3pm                                                                                  150                                
INTFAMCHA040801113329113357000028Harrisons; The - Soaker                                                                                               A10626120                                
PROFAMCHA040801113357113434000037Summer Chill Event - Keep Watching All Summer                                                                               150                                
ID FAMCHA040801113434113448000014Nonstop Weekend Block Open (:14-:17)                                                                                        150                                
PROFAMCHA040801113448113502000014Nnstp Wknd - 16 - WISH (:14-:16)                                                                                            150                                
PROFAMCHA040801113502113512000010CC Disclaimer - FAST - Family.ca (:08-:10)                                                                                  150                                
PGRFAMCHA040801113512115622002110You Wish                                          Bride Of Prejudice                                                  A6068807BCC                              
PROFAMCHA040801115622115638000016Nnstp Wknd - 17(SEP) - WDP MOVIE (:14-:16)                                                                                  150                                
PRCFAMCHA040801115638115710000032Summer Chill - RFR Week - Fav. Ep. Tomorrow / Pilo                                                                          150                                
PROFAMCHA040801115710115725000015Wendy's Sensations (PART 2) - Cut 1                                                                                         150                                
PROFAMCHA040801115725115751000026Smart Guy (APR04) - (NSW-PM) - Today @ 3pm                                                                                  150                                
PRCFAMCHA040801115751115825000034Family Kicks (May 21 - Sept 26)                                                                                             150                                
PROFAMCHA040801115825115843000018xxLizzie McGuire - ACTING (NSW/PM) - Today @ 5:05p                                                                          150                                
PRCFAMCHA040801115843115914000031Summer Chill Tour (July 19 - Aug 25) 3x daily                                                                               150                                
PROFAMCHA040801115914115951000037Summer Chill Event - Keep Watching All Summer                                                                               150                                
ID FAMCHA040801115951120008000017Weekend Double Pix Movie Open (:13-:17)                                                                                     150                                
ID FAMCHA040801120008120017000009Rating - PG - Ian (:08-:10)                                                                                                 150                                
PGRFAMCHA040801120017133217013200Just For Kicks                                                                                                        B2068807D                                
PROFAMCHA040801133217133233000016Nnstp Wknd - 17(SEP) - WDP MOVIE (:14-:16)                                                                                  150                                
ID FAMCHA040801133233133250000017Weekend Double Pix Movie Open (:13-:17)                                                                                     150                                
ID FAMCHA040801133250133259000009Rating - G - Ian (:08-:10)                                                                                                  150                                
PROFAMCHA040801133259133308000009CC Disclaimer - FAST - Family.ca (:08-:10)                                                                                  150                                
ID FAMCHA040801133308133316000008Magic of Disney - PIX - Wipe (:06-:09)                                                                                      150                                
PGRFAMCHA040801133316150253012937Miracle In Lane 2                                                                                                     A6068807CCC                              
PROFAMCHA040801150253150309000016Nnstp Wknd - 18 - SMART/LILO/PROUD (MAR) (:14-:16)                                                                          150                                
ID FAMCHA040801150309150324000015Nonstop Weekend Block Open (:14-:17)                                                                                        150                                
PROFAMCHA040801150324150333000009CC Disclaimer - FAST - Family.ca (:08-:10)                                                                                  150                                
PGRFAMCHA040801150333152601002228Smart Guy                                         Goodbye Mr. Chimps                                                  A6068807BCC                              
PROFAMCHA040801152601152617000016Nnstp Wknd - 19 - LILO/PROUD/FILLMORE (NOV2) (:14-                                                                          150                                
ID FAMCHA040801152617152631000014Nonstop Weekend Block Open (:14-:17)                                                                                        150                                
PGRFAMCHA040801152631154923002252Disney's Lilo & Stitch: The Series                EPS # 01                                                            A6068607E                                
PROFAMCHA040801154923154939000016Nnstp Wknd - 20 - PROUD/FILLMORE/KIM (:14-:16)                                                                              150                                
PROFAMCHA040801154939155009000030Confessions of a Teenage Drama Queen - Available N                                                                    A     150                                
PRCFAMCHA040801155009155039000030xxNBA Jam - Generic (July 13 - Aug 8) and (Sep 7 -                                                                          150                                
PROFAMCHA040801155039155116000037Summer Chill Event - Keep Watching All Summer                                                                               150                                
ID FAMCHA040801155116155133000017Nonstop Weekend Block Open (:14-:17)                                                                                        150                                
PROFAMCHA040801155133155141000008CC Disclaimer - FAST - Family.ca (:08-:10)                                                                                  150                                
PGRFAMCHA040801155141161354002213Proud Family; The                                 Bring It On                                                         A6068807ECC                              
PROFAMCHA040801161354161408000014Nnstp Wknd - 21 - FILLMORE/KIM/LIZZIE (:14-:16)                                                                             150                                
PRCFAMCHA040801161408161440000032Summer Chill - RFR Week - Fav. Ep. Tomorrow / Pilo                                                                          150                                
PROFAMCHA040801161440161514000034Fillmore (APR04) - (NSW) - Coming Up Next                                                                                   150                                
PROFAMCHA040801161514161544000030Thunderbirds Contest - Clue #2 - In Theatres Now (                                                                    A     150                                
ID FAMCHA040801161544161558000014Nonstop Weekend Block Open (:14-:17)                                                                                        150                                
PGRFAMCHA040801161558163837002239Disney's Fillmore!                                EPS # 1-011                                                         A6068607E                                
PROFAMCHA040801163837163853000016Nnstp Wknd - 22 - KIM/LIZZIE/RAVEN (:14-:16)                                                                                150                                
PRCFAMCHA040801163853163925000032Summer Chill - RFR Week - Fav. Ep. Tomorrow / Pilo                                                                          150                                
PRCFAMCHA040801163925163955000030xxNBA Jam - Generic (July 13 - Aug 8) and (Sep 7 -                                                                          150                                
PROFAMCHA040801163955164032000037Summer Chill Event - Keep Watching All Summer                                                                               150                                
PROFAMCHA040801164032164041000009Raven ID's II - You're Watching Family, NADM                                                                                150                                
ID FAMCHA040801164041164058000017Nonstop Weekend Block Open (:14-:17)                                                                                        150                                
PGRFAMCHA040801164058170355002257Disney's Kim Possible                             Animal Attraction                                                   A6068607E                                
PROFAMCHA040801170355170411000016Nnstp Wknd - 23(SUN) - LIZZIE/RAVEN/WISH (:14-:16)                                                                          150                                
PRCFAMCHA040801170411170443000032Summer Chill - RFR Week - Fav. Ep. Tomorrow / Pilo                                                                          150                                
PROFAMCHA040801170443170513000030Confessions of a Teenage Drama Queen - Available N                                                                    A     150                                
PROFAMCHA040801170513170550000037Summer Chill Event - Keep Watching All Summer                                                                               150                                
ID FAMCHA040801170550170605000015Nonstop Weekend Block Open (:14-:17)                                                                                        150                                
ID FAMCHA040801170605170613000008Magic of Disney - NS/NSW/PB - Shape (:06-:09)                                                                               150                                
PGRFAMCHA040801170613172847002234Lizzie McGuire                                    EPS # 2-028                                                         A6068607B                                
PROFAMCHA040801172847172903000016Nnstp Wknd - 24(SUN) - RAVEN/WISH/RADIO (:14-:16)                                                                           150                                
PRCFAMCHA040801172903172935000032Summer Chill - RFR Week - Fav. Ep. Tomorrow / Pilo                                                                          150                                
PROFAMCHA040801172935172950000015Wendy's Sensations (PART 2) - Cut 1                                                                                         150                                
PRCFAMCHA040801172950173007000017Radio Free Roscoe - Webthrow (Question Mark)                                                                                150                                
PROFAMCHA040801173007173044000037Summer Chill Event - Keep Watching All Summer                                                                               150                                
PROFAMCHA040801173044173050000006Raven ID's II - Stay tuned, That's So Raven Coming                                                                          150                                
ID FAMCHA040801173050173105000015Nonstop Weekend Block Open (:14-:17)                                                                                        150                                
PROFAMCHA040801173105173114000009CC Disclaimer - FAST - Family.ca (:08-:10)                                                                                  150                                
PGRFAMCHA040801173114175406002252That's So Raven                                   EPS # 1-022                                                         A6068807B                                
PROFAMCHA040801175406175422000016Nnstp Wknd - 25(SUN/MAR) - WISH/RADIO/HOZE (:14-:1                                                                          150                                
PRCFAMCHA040801175422175454000032Summer Chill - RFR Week - Fav. Ep. Tomorrow / Pilo                                                                          150                                
PRCFAMCHA040801175454175544000050Bullying PSA - Ongoing to September 1                                                                                       150                                
PRCFAMCHA040801175544175603000019Nonstop Weekend - EVEN STEVENS - Locker                                                                                     150                                
ID FAMCHA040801175603175618000015Nonstop Weekend Block Open (:14-:17)                                                                                        150                                
PROFAMCHA040801175618175626000008CC Disclaimer - FAST - Family.ca (:08-:10)                                                                                  150                                
PGRFAMCHA040801175626181757002131You Wish                                          Future Shock                                                        A6068807BCC                              
PROFAMCHA040801181757181811000014Nnstp Wknd - 26(MAR) - RADIO/HOZE/FRANK (:14-:16)                                                                           150                                
PRCFAMCHA040801181811181843000032Summer Chill - RFR Week - Fav. Ep. Tomorrow / Pilo                                                                          150                                
PROFAMCHA040801181843181913000030Thunderbirds Contest - Clue #2 - In Theatres Now (                                                                    A     150                                
PRCFAMCHA040801181913181944000031Summer Chill Tour (July 19 - Aug 25) 3x daily                                                                               150                                
PRCFAMCHA040801181944182014000030xxRadio Free Roscoe (RFR) - (NSW) - Coming Up Next                                                                          150                                
ID FAMCHA040801182014182028000014Nonstop Weekend Block Open (:14-:17)                                                                                        150                                
PROFAMCHA040801182028182036000008CC Disclaimer - FAST - Family.ca (:08-:10)                                                                                  150                                
PGRFAMCHA040801182036184315002239Radio Free Roscoe                                 EPS # 18                                                      A88731A1065607ACC                              
PROFAMCHA040801184315184329000014Nnstp Wknd - 27(MAR) - HOZE/FRANK/KING (:14-:16)                                                                            150                                
PROFAMCHA040801184329184352000023Hoze Houndz (Can't Fly) (NSW) - Coming Up Next                                                                              150                                
PRCFAMCHA040801184352184443000051Franklin (SOCCER) - (NSW/PM) - Tonight @ 7:10pm                                                                             150                                
PRCFAMCHA040801184443184513000030King (FRIENDS) - Tonight @ 7:35pm                                                                                           150                                
PROFAMCHA040801184513184524000011Nonstop Weekend - LIZZIE MCGUIRE - Junk Food                                                                                150                                
ID FAMCHA040801184524184538000014Nonstop Weekend Block Open (:14-:17)                                                                                        150                                
PROFAMCHA040801184538184547000009CC Disclaimer - FAST - Family.ca (:08-:10)                                                                                  150                                
PGRFAMCHA040801184547190831002244Hoze Houndz                                       Badderama/The Bonehead Brotherhood of Brothers                B63399A1065607ECC                              
PROFAMCHA040801190831190846000015Nnstp Wknd - 28(SEP) - FRANKLIN/KING/HONEY (:14-:1                                                                          150                                
PRCFAMCHA040801190846190937000051Franklin (SOCCER) - (NSW/PM) - Coming Up Next                                                                               150                                
PRCFAMCHA040801190937191007000030King (FRIENDS) - Tonight @ 7:35pm                                                                                           150                                
PROFAMCHA040801191007191030000023Jojo's Circus - (STEP) - (PH/AM) - Tomorrow @ 9:45                                                                          150                                
ID FAMCHA040801191030191044000014Nonstop Weekend Block Open (:14-:17)                                                                                        150                                
PROFAMCHA040801191044191053000009CC Disclaimer - FAST - Family.ca (:08-:10)                                                                                  150                                
PGRFAMCHA040801191053193352002259Franklin                                          Franklin's Pumpkin/Franklin's Jug Band                        B53204A1065607ECC                              
PROFAMCHA040801193352193408000016Nnstp Wknd - 29(SUN/SEP) - KING/HONEY/@MOV (:14-:1                                                                          150                                
PRCFAMCHA040801193408193438000030King (FRIENDS) - Coming Up                                                                                                  150                                
ID FAMCHA040801193438193452000014Nonstop Weekend Block Open (:14-:17)                                                                                        150                                
PROFAMCHA040801193452193501000009CC Disclaimer - FAST - Family.ca (:08-:10)                                                                                  150                                
PGRFAMCHA040801193501195735002234King                                              Pollen Holiday                                                B75762A1065607ECC                              
PROFAMCHA040801195735195751000016Nnstp Wknd - 30(SUN) - HONEY/@MOV/N-PIX1 (:14-:16)                                                                          150                                
PRCFAMCHA040801195751195823000032Summer Chill - RFR Week - Fav. Ep. Tomorrow / Pilo                                                                          150                                
INTFAMCHA040801195823195903000040Harrisons; The - Joy Ride                                                                                             A10626120                                
PROFAMCHA040801195903195940000037Summer Chill Event - Keep Watching All Summer                                                                               150                                
ID FAMCHA040801195940195956000016Nonstop Weekend Block Open (:14-:17)                                                                                        150                                
PGRFAMCHA040801195956204308004312Disney's Honey, I Shrunk The Kids: The TV Show    You'll Always Be A Princess To Me                                    6068807B                                
PROFAMCHA040801204308204322000014Nnstp Wknd - 31(SUN) - @MOVIES/N-PIX1 (:14-:16)                                                                             150                                
PRCFAMCHA040801204322204354000032Summer Chill - RFR Week - Fav. Ep. Tomorrow / Pilo                                                                          150                                
PROFAMCHA040801204354204424000030Thunderbirds Contest - Clue #2 - In Theatres Now (                                                                    A     150                                
PRCFAMCHA040801204424204443000019Nonstop Weekend - LIZZIE MCGUIRE - Lenny                                                                                    150                                
ID FAMCHA040801204443204457000014Nonstop Weekend Block Open (:14-:17)                                                                                        150                                
PGRFAMCHA040801204457210057001600@ The Movies (4)                                                                                                      B10628150                                
PROFAMCHA040801210057210113000016Nightly Pix Line-up (SEPT) - GENERIC (:14-:16)                                                                              150                                
ID FAMCHA040801210113210128000015Nightly Pix Movie Open (:10-:15)                                                                                            150                                
ID FAMCHA040801210128210137000009Rating - AA - Ian (:08-:10)                                                                                                 150                                
PGRFAMCHA040801210137223254013117Fish Called Wanda; A                                                                                                  B2068807D                                
PROFAMCHA040801223254223310000016Nnstp Wknd - 32(SUN) - @MOVIES/N-PIX2 (:14-:16)                                                                             150                                
ID FAMCHA040801223310223325000015Nonstop Weekend Block Open (:14-:17)                                                                                        150                                
PGRFAMCHA040801223325224925001600@ The Movies (4)                                                                                                      B10628150                                
PROFAMCHA040801224925224941000016Nightly Pix Line-up (SEPT) - GENERIC (:14-:16)                                                                              150                                
ID FAMCHA040801224941224956000015Nightly Pix Movie Open (:10-:15)                                                                                            150                                
ID FAMCHA040801224956225005000009Rating - G - Ian (:08-:10)                                                                                                  150                                
ID FAMCHA040801225005225013000008Magic of Disney - PIX - Shape (:06-:09)                                                                                     150                                
PGRFAMCHA040801225013002434013421Fighting Choice; A                                                                                                     6068807C                                
PROFAMCHA040801002434002450000016Nnstp Wknd - 33 - RADIO/DARK (:14-:16)                                                                                      150                                
ID FAMCHA040801002450002505000015Nonstop Weekend Block Open (:14-:17)                                                                                        150                                
PROFAMCHA040801002505002515000010CC Disclaimer - SLOW - Family.ca (:08-:10)                                                                                  150                                
PGRFAMCHA040801002515004745002230Radio Free Roscoe                                 EPS # 14                                                      A88727A1065607ACC                              
PROFAMCHA040801004745004801000016Nnstp Wknd - 34 - DARK (:14-:16)                                                                                            150                                
ID FAMCHA040801004801004818000017Nonstop Weekend Block Open (:14-:17)                                                                                        150                                
PGRFAMCHA040801004818011254002436Are You Afraid Of The Dark?                       The Tale of the Bookish Babysitter                            SR0304 1066807A                                
PRCFAMCHA040801011254011324000030Astral - Clock                                                                                                              150                                
SO FAMCHA040801011324012524001200Sign Off                                                                                                                                                       
OFFFAMCHA040801012524043000030436OFF AIR                                                                                                                                                        
SO FAMCHA040802043000043011000011Sign On (oct 1)                                                                                                                                                
PROFAMCHA040802043011043020000009CC Disclaimer - FAST - Family (:08-:10)                                                                                     150                                
PGRFAMCHA040802043020045313002253Franklin                                          Franklin's Masterpiece/Franklin and the Computer              B36664A1065607ECC                              
PROFAMCHA040802045313045329000016PS - 01(PH) - WTP/KATIE/FRANKLIN (:14-:16)                                                                                  150                                
ID FAMCHA040802045329045344000015PS Playhouse AM Block Open (:10-:15)                                                                                        150                                
PROFAMCHA040802045344045353000009CC Disclaimer - FAST - Family.ca (:08-:10)                                                                                  150                                
PGRFAMCHA040802045353051636002243New Adventures of Winnie the Pooh; The            Babysitter Blues                                                     6068607ECC                              
PROFAMCHA040802051636051652000016PS - 02(PH) - KATIE/FRANKLIN/SOMETHING (:14-:16)                                                                            150                                
ID FAMCHA040802051652051707000015PS Playhouse AM Block Open (:10-:15)                                                                                        150                                
PROFAMCHA040802051707051717000010CC Disclaimer - FAST - Generic (:08-:10)                                                                                    150                                
PGRFAMCHA040802051717054356002639Katie And Orbie                                   The Troll's Wish/Bears/Mist                                   B62278A1065607ECC                              
PROFAMCHA040802054356054412000016PS - 03(PH) - FRANKLIN/SOMETHING/HOZE (:14-:16)                                                                             150                                
ID FAMCHA040802054412054427000015PS Playhouse AM Block Open (:10-:15)                                                                                        150                                
PROFAMCHA040802054427054437000010CC Disclaimer - FAST - Generic (:08-:10)                                                                                    150                                
PGRFAMCHA040802054437060738002301Franklin                                          Franklin and the Trooper/Franklin's Fossil                    B36665A1065607ECC                              
PROFAMCHA040802060738060754000016PS - 04(PH) - SOMETHING/HOZE/KNIGHT (:14-:16)                                                                               150                                
PRCFAMCHA040802060754060813000019Playhouse - FRANKLIN - Party                                                                                                150                                
ID FAMCHA040802060813060823000010PS Playhouse AM Block Open (:10-:15)                                                                                        150                                
PROFAMCHA040802060823060832000009CC Disclaimer - FAST - Family (:08-:10)                                                                                     150                                
PGRFAMCHA040802060832063114002242Something Else                                    Hello Dolly/Decoration Day                                    B69264A1065607ECC                              
PROFAMCHA040802063114063128000014PS - 05(PH) - HOZE/KNIGHT/NINJA (:14-:16)                                                                                   150                                
PROFAMCHA040802063128063153000025Hoze Houndz (Can't Fly) (PH) - Coming Up Next                                                                               150                                
PROFAMCHA040802063153063219000026Disney's 101 Dalmatians (PH/AM) - Today @ 8:30am                                                                            150                                
INTFAMCHA040802063219063434000215Disney Circle Time - Endless Story (anywhere but D                                                                     60688120                                
PRCFAMCHA040802063434063527000053Franklin (SOCCER) - (PH) - Today @ 8:55am                                                                                   150                                
ID FAMCHA040802063527063537000010PS Playhouse AM Block Open (:10-:15)                                                                                        150                                
PROFAMCHA040802063537063547000010CC Disclaimer - FAST - Generic (:08-:10)                                                                                    150                                
PGRFAMCHA040802063547065832002245Hoze Houndz                                       Ape Is Enough/The Alibi                                       B63397A1065607ECC                              
PROFAMCHA040802065832065846000014PS - 06(PB) - KNIGHT/NINJA/GADGET (:14-:16)                                                                                 150                                
PRCFAMCHA040802065846065918000032Summer Chill - RFR Week - You're Watching RFR Week                                                                          150                                
PROFAMCHA040802065918065948000030Mon Colle Knights - Coming Up                                                                                               150                                
PRCFAMCHA040802065948070002000014Playhouse - HOZE HOUNDZ - Skater                                                                                            150                                
PROFAMCHA040802070002070032000030Power Rangers Ninja Storm (PB/WKDAY) - Today @ 7:3                                                                          150                                
ID FAMCHA040802070032070044000012Power Box Block Open (:12-:15)                                                                                              150                                
PGRFAMCHA040802070044072215002131Mon Colle Knights                                 EPS # 1-006                                                         A6068607E                                
PROFAMCHA040802072215072231000016PS - 07(PB) - NINJA/GADGET/DALMATIANS (:14-:16)                                                                             150                                
PRCFAMCHA040802072231072303000032Summer Chill - RFR Week - Fav. Ep. Tonight / Pilot                                                                          150                                
PROFAMCHA040802072303072333000030Power Rangers Ninja Storm (PB/WKDAY) - Coming Up N                                                                          150                                
PROFAMCHA040802072333072403000030Gadget & The Gadgetinis - (PB) - Today @ 8am                                                                                150                                
INTFAMCHA040802072403072837000434Art Attack - Family By Bonfire                                                                                         60686120                                
PRCFAMCHA040802072837072907000030xxNBA Jam - Generic (July 13 - Aug 8) and (Sep 7 -                                                                          150                                
PROFAMCHA040802072907072937000030Recess (NOV2003) - Today @ 11:50am                                                                                          150                                
PRCFAMCHA040802072937073012000035Power Box Block Promo (APR04) - (PB) - Mon - Fri @                                                                          150                                
PROFAMCHA040802073012073033000021xxProud Family - TIC TAC TOE (MD) - Today @ 5:05pm                                                                          150                                
ID FAMCHA040802073033073048000015Power Box Block Open (:12-:15)                                                                                              150                                
PGRFAMCHA040802073048075218002130Power Rangers Ninja Storm                         EPS # 1-027                                                         A6068607E                                
PROFAMCHA040802075218075232000014PS - 08(PB) - GADGET/DALMATIANS/FRANKLIN (:14-:16)                                                                          150                                
PRCFAMCHA040802075232075304000032Summer Chill - RFR Week - You're Watching RFR Week                                                                          150                                
PROFAMCHA040802075304075334000030Gadget & The Gadgetinis - (PB) - Coming Up                                                                                  150                                
PROFAMCHA040802075334075404000030Recess (NOV2003) - Today @ 11:50am                                                                                          150                                
PRCFAMCHA040802075404075418000014Family Bumpers - (Phase 1 Spring 04) - Basketball                                                                           150                                
PROFAMCHA040802075418075452000034Fillmore (APR04) - (MD/L) - Today @ 12:15pm                                                                                 150                                
INTFAMCHA040802075452075849000357Art Attack - Artist At Easel                                                                                           60686120                                
PROFAMCHA040802075849075919000030Goof Troop (FEB 2004) - Today @ 12:35pm                                                                                     150                                
PRCFAMCHA040802075919075949000030xxNBA Jam - Generic (July 13 - Aug 8) and (Sep 7 -                                                                          150                                
PRCFAMCHA040802075949080024000035Power Box Block Promo (APR04) - (PB) - Mon - Fri @                                                                          150                                
PROFAMCHA040802080024080042000018xxLizzie McGuire - ACTING (MD) - Today @ 5:35pm                                                                             150                                
PGRFAMCHA040802080042082301002219Gadget & the Gadgetinis                           EPS # 1-038                                                         A6068607E                                
PROFAMCHA040802082301082315000014PS - 09(PH) - DALMATIANS/FRANKLIN/WTP (:14-:16)                                                                             150                                
PROFAMCHA040802082315082341000026Disney's 101 Dalmatians (PH) - Coming Up Next                                                                               150                                
PRCFAMCHA040802082341082434000053Franklin (SOCCER) - (PH) - Today @ 8:55am                                                                                   150                                
INTFAMCHA040802082434082619000145Disney Circle Time - My Shadow (anywhere but D12)                                                                      60688120                                
PROFAMCHA040802082619082701000042Jojo's Circus - (CRAB) - (PH/AM) - Today @ 9:45am                                                                           150                                
PROFAMCHA040802082701082745000044Stanley - (SONG) - (PH) - Today @ 10:10am                                                                                   150                                
INTFAMCHA040802082745083016000231MV Disney - (PH/MD) - Aloha E Komo Mai (Lilo & Sti                                                                     60688120                                
PGRFAMCHA040802083016085309002253Disney's 101 Dalmatians: The Series               EPS # 1-032                                                         A6068607E                                
PROFAMCHA040802085309085325000016PS - 10(PH) - FRANKLIN/WTP/JOJO (:14-:16) (JAN12)                                                                           150                                
PRCFAMCHA040802085325085418000053Franklin (SOCCER) - (PH) - Coming Up Next                                                                                   150                                
PROFAMCHA040802085418085500000042Jojo's Circus - (CRAB) - (PH/AM) - Today @ 9:45am                                                                           150                                
ID FAMCHA040802085500085515000015PS Playhouse AM Block Open (:10-:15)                                                                                        150                                
PROFAMCHA040802085515085524000009CC Disclaimer - FAST - Family.ca (:08-:10)                                                                                  150                                
PGRFAMCHA040802085524091828002304Franklin                                          Franklin the Fabulous/Franklin Camps Out                      B36669A1065607ECC                              
PROFAMCHA040802091828091842000014PS - 11(PH) - WTP/JOJO/STANLEY (:14-:16) (JAN12)                                                                            150                                
PROFAMCHA040802091842091924000042Jojo's Circus - (CRAB) - (PH/AM) - Today @ 9:45am                                                                           150                                
PRCFAMCHA040802091924091943000019Playhouse - FRANKLIN - Party                                                                                                150                                
PROFAMCHA040802091943092027000044Stanley - (SONG) - (PH) - Today @ 10:10am                                                                                   150                                
ID FAMCHA040802092027092037000010PS Playhouse AM Block Open (:10-:15)                                                                                        150                                
PROFAMCHA040802092037092047000010CC Disclaimer - FAST - Generic (:08-:10)                                                                                    150                                
PGRFAMCHA040802092047094327002240New Adventures of Winnie the Pooh; The            How Much Is The Rabbit In The Window                                 6068607ECC                              
PROFAMCHA040802094327094343000016PS - 12(PH) - JOJO/STANLEY/HENRY (:14-:16) (JAN12)                                                                          150                                
PROFAMCHA040802094343094422000039Jojo's Circus - (DANCING) - (PH/AM) - Coming Up Ne                                                                          150                                
PROFAMCHA040802094422094506000044Stanley - (SONG) - (PH) - Today @ 10:10am                                                                                   150                                
PRCFAMCHA040802094506094602000056Playhouse - STANLEY - Fish Song                                                                                             150                                
PRCFAMCHA040802094602094620000018Henry's World (HIS WORLD) (PH/AM) - Today @ 10:35a                                                                          150                                
ID FAMCHA040802094620094635000015PS Playhouse AM Block Open (:10-:15)                                                                                        150                                
PGRFAMCHA040802094635101047002412JoJo's Circus                                     EPS # 10                                                            A6068607E                                
PROFAMCHA040802101047101103000016PS - 13(PH) - STANLEY/HENRY/CHIP (:14-:16) (JAN12)                                                                          150                                
PROFAMCHA040802101103101147000044Stanley - (SONG) - (PH) - Coming Up Next                                                                                    150                                
PRCFAMCHA040802101147101206000019Playhouse - HOZE HOUNDZ - Code Blue                                                                                         150                                
PRCFAMCHA040802101206101224000018Henry's World (HIS WORLD) (PH/AM) - Today @ 10:35a                                                                          150                                
ID FAMCHA040802101224101239000015PS Playhouse AM Block Open (:10-:15)                                                                                        150                                
PROFAMCHA040802101239101249000010CC Disclaimer - FAST - Generic (:08-:10)                                                                                    150                                
PGRFAMCHA040802101249103658002409Stanley                                           Keep 'Em Flying/Guess What's Coming To Dinner                       A6068607ECC                              
PROFAMCHA040802103658103714000016PS - 14(PH) - HENRY/CHIP/ART (:14-:16) (JAN12)                                                                              150                                
PRCFAMCHA040802103714103732000018Henry's World (HIS WORLD) (PH/AM) - Coming Up Next                                                                          150                                
PRCFAMCHA040802103732103746000014Playhouse - HOZE HOUNDZ - Skater                                                                                            150                                
PRCFAMCHA040802103746103834000048Chip 'n Dale (MILK) - (PH/AM) - Today @ 11am                                                                                150                                
ID FAMCHA040802103834103846000012PS Playhouse AM Block Open (:10-:15)                                                                                        150                                
PROFAMCHA040802103846103855000009CC Disclaimer - FAST - Family (:08-:10)                                                                                     150                                
PGRFAMCHA040802103855110252002357Henry's World                                     Triple Trouble/Tunnelling To China                            B66545A1065607GCC                              
PROFAMCHA040802110252110308000016PS - 15(PH) - CHIP/ART/RECESS (:14-:16)                                                                                     150                                
PRCFAMCHA040802110308110356000048Chip 'n Dale (MILK) - (PH) - Coming Up Next                                                                                 150                                
PRCFAMCHA040802110356110442000046Playhouse - STANLEY - Squirrel Song                                                                                         150                                
ID FAMCHA040802110442110454000012PS Playhouse AM Block Open (:10-:15)                                                                                        150                                
ID FAMCHA040802110454110503000009Magic of Disney - PLAYHOUSE - Shape (:06-:09)                                                                               150                                
PGRFAMCHA040802110503112745002242Chip 'n Dale Rescue Rangers                       Battle Of The Bulge                                                 A6068607E                                
PROFAMCHA040802112745112801000016PS - 16(PH) - ART/RECESS/FILLMORE (:14-:16) (JAN)                                                                           150                                
PROFAMCHA040802112801112901000100Playhouse (FUNTIMES) - (AM) - You're Watching Play                                                                    A     150                                
PRCFAMCHA040802112901112936000035Playhouse - KATIE & ORBIE - Did You Know?                                                                                   150                                
ID FAMCHA040802112936112951000015PS Playhouse AM Block Open (:10-:15)                                                                                        150                                
PGRFAMCHA040802112951114451001500Art Attack                                                                                                            A60686110                                
PROFAMCHA040802114451114507000016PS - 17(MD) - RECESS/FILLMORE/GOOF (:14-:16) (JAN1                                                                          150                                
PRCFAMCHA040802114507114539000032Summer Chill - RFR Week - You're Watching RFR Week                                                                          150                                
PROFAMCHA040802114539114609000030Recess (NOV2003) - Coming Up                                                                                                150                                
PRCFAMCHA040802114609114618000009Family Bumpers - (Phase 1 Spring 04) - DJ Spinning                                                                          150                                
INTFAMCHA040802114618114748000130Klootz - Leapfrog Island #44                                                                                          A10658120                                
PROFAMCHA040802114748114822000034Fillmore (APR04) - (MD/L) - Today @ 12:15pm                                                                                 150                                
PRCFAMCHA040802114822114852000030xxNBA Jam - Generic (July 13 - Aug 8) and (Sep 7 -                                                                          150                                
PRCFAMCHA040802114852114931000039Summer Chill - RFR Contest (Aug 2-9)                                                                                        150                                
PRCFAMCHA040802114931115002000031Summer Chill Tour (July 19 - Aug 25) 3x daily                                                                               150                                
PRCFAMCHA040802115002115014000012Mad Dash - WEEKENDERS - Reality                                                                                             150                                
PROFAMCHA040802115014115044000030Goof Troop (FEB 2004) - Today @ 12:35pm                                                                                     150                                
ID FAMCHA040802115044115059000015PS Mad Dash Block Open (:13-:15)                                                                                            150                                
PGRFAMCHA040802115059121334002235Disney's Recess                                   One Stayed Clean/Rumor Mill                                          6068607E                                
PROFAMCHA040802121334121348000014PS - 18(MD) - FILLMORE/GOOF/TEAMO (:14-:16) (JAN1)                                                                          150                                
ID FAMCHA040802121348121403000015PS Mad Dash Block Open (:13-:15)                                                                                            150                                
PGRFAMCHA040802121403123648002245Disney's Fillmore!                                EPS # 1-015                                                         A6068607E                                
PROFAMCHA040802123648123704000016PS - 19(MD) - GOOF/TEAMO/DALMATIANS (:14-:16) (JAN                                                                          150                                
PRCFAMCHA040802123704123736000032Summer Chill - RFR Week - You're Watching RFR Week                                                                          150                                
PROFAMCHA040802123736123748000012Mad Dash - RECESS - Sprinkler                                                                                               150                                
ID FAMCHA040802123748123803000015Mad Dash Block Open (:13-:15)                                                                                               150                                
PROFAMCHA040802123803123812000009CC Disclaimer - FAST - Family.ca (:08-:10)                                                                                  150                                
PGRFAMCHA040802123812130058002246Goof Troop                                        Queasy Rider                                                         6068607ECC                              
PROFAMCHA040802130058130114000016PS - 20(MD) - TEAMO/DALMATIANS/CHIP (:14-:16) (JAN                                                                          150                                
PRCFAMCHA040802130114130153000039Summer Chill - RFR Contest (Aug 2-9)                                                                                        150                                
ID FAMCHA040802130153130208000015Mad Dash Block Open (:13-:15)                                                                                               150                                
PROFAMCHA040802130208130218000010CC Disclaimer - FAST - Generic (:08-:10)                                                                                    150                                
PGRFAMCHA040802130218132522002304Disney's Teamo Supremo                            Danger: Dirigibles/Enter The Cheapskates                            A6068607ECC                              
PROFAMCHA040802132522132536000014PS - 21(PH) - DALMATIANS/CHIP/HOZE (:14-:16)                                                                                150                                
ID FAMCHA040802132536132547000011PS Playhouse PM Block Open (:10-:15)                                                                                        150                                
PGRFAMCHA040802132547134843002256Disney's 101 Dalmatians: The Series               EPS # 1-033                                                         A6068607E                                
PROFAMCHA040802134843134857000014PS - 22(PH) - CHIP/HOZE/HOM (:14-:16)                                                                                       150                                
PRCFAMCHA040802134857134916000019Playhouse - FRANKLIN - Party                                                                                                150                                
ID FAMCHA040802134916134926000010PS Playhouse PM Block Open (:10-:15)                                                                                        150                                
ID FAMCHA040802134926134934000008Magic of Disney - PLAYHOUSE - Wipe (:06-:09)                                                                                150                                
PGRFAMCHA040802134934141226002252Chip 'n Dale Rescue Rangers                       Normie's Science Project                                            A6068607E                                
PROFAMCHA040802141226141240000014PS - 23(PH) - HOZE/HOM/TIMON (:14-:16)                                                                                      150                                
PROFAMCHA040802141240141305000025Hoze Houndz (Can't Fly) (PH) - Coming Up Next                                                                               150                                
PRCFAMCHA040802141305141319000014Playhouse - HOZE HOUNDZ - Skater                                                                                            150                                
ID FAMCHA040802141319141332000013PS Playhouse PM Block Open (:10-:15)                                                                                        150                                
PROFAMCHA040802141332141342000010CC Disclaimer - FAST - Generic (:08-:10)                                                                                    150                                
PGRFAMCHA040802141342143625002243Hoze Houndz                                       Super Showdown/Pudding Up A Fight                             B63377A1065607ECC                              
PROFAMCHA040802143625143641000016PS - 24(PH) - HOM/TIMON/LILO (:14-:16) (JAN1)                                                                               150                                
PROFAMCHA040802143641143711000030House of Mouse (GRASSHOPPER) - Coming Up Next                                                                               150                                
ID FAMCHA040802143711143726000015PS Playhouse PM Block Open (:10-:15)                                                                                        150                                
PROFAMCHA040802143726143736000010CC Disclaimer - FAST - Family (:08-:10)                                                                                     150                                
PGRFAMCHA040802143736150013002237Disney's House Of Mouse                           Chip and Dale                                                       A6068607ECC                              
PROFAMCHA040802150013150029000016Mad Dash  - 01 - TIMON/LILO/WEEKENDERS (:14-:16) (                                                                          150                                
PRCFAMCHA040802150029150101000032Summer Chill - RFR Week - You're Watching RFR Week                                                                          150                                
PROFAMCHA040802150101150131000030Lilo & Stitch (MAY04) - (MD) - Today @ 3:25pm                                                                               150                                
ID FAMCHA040802150131150146000015Mad Dash Block Open (:13-:15)                                                                                               150                                
PGRFAMCHA040802150146152431002245Lion King's Timon & Pumbaa; The                   The Spy's the Limit/Ready, Aim, Fire                                 6068607E                                
PROFAMCHA040802152431152447000016Mad Dash  - 02 - LILO/WEEKENDERS/RECESS (:14-:16)                                                                           150                                
PROFAMCHA040802152447152517000030Lilo & Stitch (MAY04) - (MD) - Coming Up Next                                                                               150                                
PRCFAMCHA040802152517152556000039Summer Chill - RFR Contest (Aug 2-9)                                                                                        150                                
PRCFAMCHA040802152556152628000032Summer Chill - RFR Week - Fav. Ep. Tonight / Pilot                                                                          150                                
ID FAMCHA040802152628152643000015Mad Dash Block Open (:13-:15)                                                                                               150                                
PGRFAMCHA040802152643154926002243Disney's Lilo & Stitch: The Series                EPS # 36                                                            A6068607E                                
PROFAMCHA040802154926154942000016Mad Dash  - 03 - WEEKENDERS/RECESS/KIM (:14-:16)                                                                            150                                
PROFAMCHA040802154942155013000031xxWeekenders - LGS (MD) - Coming Up Next                                                                                    150                                
PRCFAMCHA040802155013155045000032Summer Chill - RFR Week - You're Watching RFR Week                                                                          150                                
PRCFAMCHA040802155045155055000010Mad Dash - LIZZIE MCGUIRE - Going In                                                                                        150                                
PROFAMCHA040802155055155125000030Recess (NOV2003) - Today @ 4:15pm                                                                                           150                                
ID FAMCHA040802155125155140000015Mad Dash Block Open (:13-:15)                                                                                               150                                
PROFAMCHA040802155140155150000010CC Disclaimer - FAST - Generic (:08-:10)                                                                                    150                                
PGRFAMCHA040802155150161429002239Disney's The Weekenders                           The Invited/Real Fake                                               A6068607ECC                              
PROFAMCHA040802161429161445000016Mad Dash  - 04 - RECESS/KIM/PROUD (:14-:16)                                                                                 150                                
PRCFAMCHA040802161445161517000032Summer Chill - RFR Week - Fav. Ep. Tonight / Pilot                                                                          150                                
PROFAMCHA040802161517161547000030Recess (NOV2003) - Coming Up                                                                                                150                                
PRCFAMCHA040802161547161626000039Summer Chill - RFR Contest (Aug 2-9)                                                                                        150                                
PROFAMCHA040802161626161656000030xxKim Possible (JUN04) - (MD) - Today @ 4:40pm                                                                              150                                
PRCFAMCHA040802161656161708000012Family Bumpers - (Phase 1 Spring 04) - Pillow Figh                                                                          150                                
PROFAMCHA040802161708161720000012Mad Dash - RECESS - Sprinkler                                                                                               150                                
PROFAMCHA040802161720161735000015xxProud Family - BAD CATCH (MD) - Today @ 5:05pm                                                                            150                                
ID FAMCHA040802161735161750000015Mad Dash Block Open (:13-:15)                                                                                               150                                
PGRFAMCHA040802161750164040002250Disney's Recess                                   Mundy, Mundy/Lost Leader                                            A6068607E                                
PROFAMCHA040802164040164056000016Mad Dash  - 05 - KIM/PROUD/LIZZIE (:14-:16)                                                                                 150                                
PROFAMCHA040802164056164126000030xxKim Possible (JUN04) - (MD) - Coming Up Next                                                                              150                                
PROFAMCHA040802164126164144000018xxLizzie McGuire - ACTING (MD) - Today @ 5:35pm                                                                             150                                
ID FAMCHA040802164144164159000015Mad Dash Block Open (:13-:15)                                                                                               150                                
PGRFAMCHA040802164159170450002251Disney's Kim Possible                             Bueno Nacho                                                         A6068607E                                
PROFAMCHA040802170450170506000016Mad Dash  - 06 - PROUD/LIZZIE/ALL (:14-:16)                                                                                 150                                
PRCFAMCHA040802170506170538000032Summer Chill - RFR Week - Fav. Ep. Tonight / Pilot                                                                          150                                
PROFAMCHA040802170538170553000015xxProud Family - BAD CATCH (MD) - Coming Up Next                                                                            150                                
PROFAMCHA040802170553170609000016xxLizzie McGuire - WEDGY (MD) - Today @ 5:35pm                                                                              150                                
PRCFAMCHA040802170609170641000032Mad Dash - WEEKENDERS - Mom                                                                                                 150                                
PRCFAMCHA040802170641170715000034Family Kicks (May 21 - Sept 26)                                                                                             150                                
PROFAMCHA040802170715170745000030All That (NS/MAR) - Tonight @ 6pm                                                                                           150                                
ID FAMCHA040802170745170800000015Mad Dash Block Open (:13-:15)                                                                                               150                                
PGRFAMCHA040802170800173045002245Proud Family; The                                 Teacher's Pet                                                       A6068807E                                
PROFAMCHA040802173045173059000014Mad Dash  - 07(NOV) - LIZZIE/ALL/RAVEN (:14-:16)                                                                            150                                
PRCFAMCHA040802173059173131000032Summer Chill - RFR Week - You're Watching RFR Week                                                                          150                                
PROFAMCHA040802173131173146000015xxLizzie McGuire - ACTING (MD) - Coming Up Next                                                                             150                                
PROFAMCHA040802173146173216000030All That (NS/MAR) - Tonight @ 6pm                                                                                           150                                
PROFAMCHA040802173216173231000015Wendy's Sensations (PART 2) - Cut 1                                                                                         150                                
PROFAMCHA040802173231173302000031That's So Raven (APR04) - (NS) - Tonight @ 6:30pm                                                                           150                                
PRCFAMCHA040802173302173335000033Mad Dash - WEEKENDERS - Clown                                                                                               150                                
PROFAMCHA040802173335173400000025Even Stevens (SIBLINGS) - (NS/M-T) - Tonight @ 7pm                                                                          150                                
ID FAMCHA040802173400173413000013Mad Dash Block Open (:13-:15)                                                                                               150                                
ID FAMCHA040802173413173421000008Magic of Disney - MAD DASH - Shape (:06-:09)                                                                                150                                
PGRFAMCHA040802173421175658002237Lizzie McGuire                                    The Courtship of Miranda                                            A6068607B                                
PROFAMCHA040802175658175712000014Nonstop - 01(M-T/NOV) - ALL/RAVEN/EVEN (:14-:16)                                                                            150                                
PRCFAMCHA040802175712175744000032Summer Chill - RFR Week - Fav. Ep. Tonight / Pilot                                                                          150                                
PROFAMCHA040802175744175814000030All That (NS/MAR) - Coming Up Next                                                                                          150                                
PROFAMCHA040802175814175824000010FAMJAM - Open                                                                                                               150                                
INTFAMCHA040802175824175924000100MV Disney - I Can't Wait (HILARY DUFF)                                                                                 60688120                                
PROFAMCHA040802175924175938000014FAMJAM - Close (EMAIL)                                                                                                      150                                
PROFAMCHA040802175938180009000031That's So Raven (APR04) - (NS) - Tonight @ 6:30pm                                                                           150                                
ID FAMCHA040802180009180023000014Nonstop Block Open (:14-:17)                                                                                                150                                
PGRFAMCHA040802180023182034002011All That                                                                                                              A20686090                                
PROFAMCHA040802182034182048000014Nonstop - 02(M-T/NOV) - RAVEN/EVEN/RADIO (:14-:16)                                                                          150                                
PRCFAMCHA040802182048182120000032Summer Chill - RFR Week - You're Watching RFR Week                                                                          150                                
PROFAMCHA040802182120182151000031That's So Raven (APR04) - (NS) - Coming Up Next                                                                             150                                
PRCFAMCHA040802182151182226000035Bullying Pledge - Ongoing to September 1                                                                                    150                                
PROFAMCHA040802182226182251000025Even Stevens (SIBLINGS) - (NS/M-T) - Tonight @ 7pm                                                                          150                                
INTFAMCHA040802182251182351000100Gagsters - Ice Scream                                                                                                 A20686120                                
PRCFAMCHA040802182351182430000039Summer Chill - RFR Contest (Aug 2-9)                                                                                        150                                
PRCFAMCHA040802182430182503000033xxRadio Free Roscoe (MAY04) - (NS/M-T) - Tonight @                                                                          150                                
PRCFAMCHA040802182503182533000030xxNBA Jam - Generic (July 13 - Aug 8) and (Sep 7 -                                                                          150                                
PROFAMCHA040802182533182543000010FAMJAM - Open                                                                                                               150                                
INTFAMCHA040802182543182932000349MV Disney - Dancing In The Street (MYRA)                                                                               60688120                                
