SO FAMCHA030818043000043011000011Sign On (oct 1)                                                                                                                                                
PROFAMCHA030818043011043020000009CC Disclaimer - FAST - Generic (:08-:10)                                                                                    150                                
PGRFAMCHA030818043011045343002253Franklin                                          Franklin Wants A Pet/Franklin Plays The Game                  B10180A1065607ECC                              
PROFAMCHA030818045313045327000014PS - 01(PH) - WTP/KATIE/FRANKLIN (:14-:16)                                                                                  150                                
ID FAMCHA030818045327045337000010PS Playhouse AM Block Open (:10-:15)                                                                                        150                                
ID FAMCHA030818045337045343000006Magic of Disney - PLAYHOUSE - Shape (:06-:09)                                                                               150                                
PROFAMCHA030818045343045352000009CC Disclaimer - FAST - Family (:08-:10)                                                                                     150                                
PGRFAMCHA030818045343051658002235New Adventures of Winnie the Pooh; The            Pooh Oughta Be In Pictures                                           6068607ECC                              
PROFAMCHA030818051627051643000016PS - 02(PH) - KATIE/FRANKLIN/RIPLEY (:14-:16)                                                                               150                                
ID FAMCHA030818051643051658000015PS Playhouse AM Block Open (:10-:15)                                                                                        150                                
PROFAMCHA030818051658051708000010CC Disclaimer - FAST - Family.ca (:08-:10)                                                                                  150                                
PGRFAMCHA030818051658054410002638Katie And Orbie                                   Paper Flowers/Car Wash/Just Doing My Job                      C19665A1065607ECC                              
PROFAMCHA030818054346054400000014PS - 03(PH) - FRANKLIN/RIPLEY/HOZE (:14-:16)                                                                                150                                
ID FAMCHA030818054400054410000010PS Playhouse AM Block Open (:10-:15)                                                                                        150                                
PROFAMCHA030818054410054419000009CC Disclaimer - FAST - Generic (:08-:10)                                                                                    150                                
PGRFAMCHA030818054410060803002253Franklin                                          Hurry Up Franklin/Franklin's Bad Day                          B10181A1065607ECC                              
PROFAMCHA030818060712060726000014PS - 04(PH) - RIPLEY/HOZE/KNIGHT (:14-:16)                                                                                  150                                
PRCFAMCHA030818060726060753000027Playhouse - FRANKLIN - Laundry                                                                                              150                                
ID FAMCHA030818060753060803000010PS Playhouse AM Block Open (:10-:15)                                                                                        150                                
PROFAMCHA030818060803060812000009CC Disclaimer - FAST - Family (:08-:10)                                                                                     150                                
PGRFAMCHA030818060803063502002430Ripley's Believe It Or Not!                       A Dragon's Lullaby                                            B71298 1065607ECC                              
PROFAMCHA030818063242063256000014PS - 05(PH) - HOZE/KNIGHT/PRLR (:14-:16)                                                                                    150                                
PRCFAMCHA030818063256063324000028Chip 'n Dale (FALL 2003) - Today @ 11am                                                                                     150                                
PRCFAMCHA030818063324063420000056Playhouse - STANLEY - Fish Song                                                                                             150                                
PROFAMCHA030818063420063450000030House of Mouse (FALL 2003) - Today @ 2:35pm                                                                                 150                                
ID FAMCHA030818063450063502000012PS Playhouse AM Block Open (:10-:15)                                                                                        150                                
PROFAMCHA030818063502063510000008CC Disclaimer - FAST - Family.ca (:08-:10)                                                                                  150                                
PGRFAMCHA030818063502070000002232Hoze Houndz                                       Mythconceptions/Partial Recall                                B45768A1065607ECC                              
PROFAMCHA030818065742065757000015PS - 06(PB) - KNIGHT/PRLR/GADGET (:14-:16)                                                                                  150                                
PROFAMCHA030818065757065827000030Pocahontas (PP) - Friday @ 7:30pm                                                                                           150                                
PRCFAMCHA030818065827065851000024In A Heartbeat (FALL2003) - Tonight @ 8:30pm                                                                                150                                
PROFAMCHA030818065851065917000026xxPR Wild Force (EXPO) - Weekends @ 6:30am                                                                                  150                                
PROFAMCHA030818065917065947000030Tron (NP) - Friday @ 9pm                                                                                                    150                                
ID FAMCHA030818065947070000000013PS Playhouse AM Block Open (:10-:15)                                                                                        150                                
PROFAMCHA030818070000070009000009CC Disclaimer - FAST - Generic (:08-:10)                                                                                    150                                
PGRFAMCHA030818070000072323002127Mon Colle Knights                                 Just Another Mon...Day                                              A6028607ECC                              
PROFAMCHA030818072136072151000015PS - 07(PB) - PRLR/GADGET/DALMATIANS (:14-:16)                                                                              150                                
PROFAMCHA030818072151072221000030Pocahontas (PP) - Friday @ 7:30pm                                                                                           150                                
PRCFAMCHA030818072221072251000030In A Heartbeat (FALL2003) - Tonight @ 8:30pm                                                                                150                                
PROFAMCHA030818072251072323000032xxPR Wild Force (CHAIR) - Weekends @ 6:30am                                                                                 150                                
PGRFAMCHA030818072323072823000500Movie Surfers Finding Nemo #1 *DNU*                                                                                    60288150                                
PROFAMCHA030818072823072849000026xxBoy Meets World (SHAWN) - Tonight @ 8pm                                                                                   150                                
PROFAMCHA030818072849072919000030xxNightly Pix Block Promo - Tonight @ 9pm                                                                                   150                                
PROFAMCHA030818072919072949000030Tron (NP) - Friday @ 9pm                                                                                                    150                                
ID FAMCHA030818072949073000000011PS Power Box Block Open (:10-:15)                                                                                           150                                
PGRFAMCHA030818073000075237002128Power Rangers Lightspeed Rescue                   Operation Lightspeed                                                A6068607E                                
PROFAMCHA030818075128075143000015PS - 08(PB) - GADGET/DALMATIANS/FRANKLIN (:14-:16)                                                                          150                                
PROFAMCHA030818075143075213000030Pocahontas (PP) - Friday @ 7:30pm                                                                                           150                                
PRCFAMCHA030818075213075237000024In A Heartbeat (FALL2003) - Tonight @ 8:30pm                                                                                150                                
INTFAMCHA030818075237075607000330Movie Surfers Pirates of the Caribbean #1 *DNU*                                                                        60288130                                
PROFAMCHA030818075607075633000026xxBoy Meets World (SHAWN) - Tonight @ 8pm                                                                                   150                                
INTFAMCHA030818075633075916000243Art Attack - Eiffel Tower                                                                                              60286130                                
PROFAMCHA030818075916075946000030Tron (NP) - Friday @ 9pm                                                                                                    150                                
ID FAMCHA030818075946080000000014PS Power Box Block Open (:10-:15)                                                                                           150                                
PGRFAMCHA030818080000082255002213Gadget & the Gadgetinis                           Don't Call Me Gadget                                                A6028607E                                
PROFAMCHA030818082213082227000014PS - 09(PH) - DALMATIANS/FRANKLIN/WTP (:14-:16)                                                                             150                                
PRCFAMCHA030818082227082255000028Chip 'n Dale (FALL 2003) - Today @ 11am                                                                                     150                                
INTFAMCHA030818082255082526000231xxLilo & Stitch Music Video - On DVD August 26th *                                                                     60288130                                
PRCFAMCHA030818082526082632000106Playhouse - WINNIE THE POOH - Christopher Robin                                                                             150                                
INTFAMCHA030818082632082920000248Art Attack - Magic Carpet                                                                                              60288130                                
PROFAMCHA030818082920082950000030House of Mouse (FALL 2003) - Today @ 2:35pm                                                                                 150                                
ID FAMCHA030818082950083000000010PS Playhouse AM Block Open (:10-:15)                                                                                        150                                
PGRFAMCHA030818083000085500002245Disney's 101 Dalmatians: The Series               You Slipped A Disk/Chow About What?                                 A6028607E                                
PROFAMCHA030818085245085301000016PS - 10(PH) - FRANKLIN/WTP/STANLEY (:14-:16) (DEC)                                                                          150                                
PRCFAMCHA030818085301085329000028Chip 'n Dale (FALL 2003) - Today @ 11am                                                                                     150                                
PRCFAMCHA030818085329085415000046Playhouse - STANLEY - Squirrel Song                                                                                         150                                
PROFAMCHA030818085415085445000030House of Mouse (FALL 2003) - Today @ 2:35pm                                                                                 150                                
ID FAMCHA030818085445085500000015PS Playhouse AM Block Open (:10-:15)                                                                                        150                                
PROFAMCHA030818085500085509000009CC Disclaimer - FAST - Family (:08-:10)                                                                                     150                                
PGRFAMCHA030818085500091952002253Franklin                                          Franklin and the Trooper/Franklin's Fossil                    B36665A1065607ECC                              
PROFAMCHA030818091802091817000015PS - 11(PH) - WTP/STANLEY/HENRY (:14-:16) (DEC)                                                                             150                                
PRCFAMCHA030818091817091845000028Chip 'n Dale (FALL 2003) - Today @ 11am                                                                                     150                                
PRCFAMCHA030818091845091912000027Playhouse - FRANKLIN - Laundry                                                                                              150                                
PROFAMCHA030818091912091942000030House of Mouse (FALL 2003) - Today @ 2:35pm                                                                                 150                                
ID FAMCHA030818091942091952000010PS Playhouse AM Block Open (:10-:15)                                                                                        150                                
ID FAMCHA030818091952092000000008Magic of Disney - PLAYHOUSE - Wipe (:06-:09)                                                                                150                                
PGRFAMCHA030818091952094600002245New Adventures of Winnie the Pooh; The            Friend In Deed/Donkey for a Day                                      6068607ECC                              
PROFAMCHA030818092000092009000009CC Disclaimer - FAST - Family.ca (:08-:10)                                                                                  150                                
PROFAMCHA030818094254094309000015PS - 12(PH) - STANLEY/HENRY/ELMO (:14-:16) (DEC)                                                                            150                                
PRCFAMCHA030818094309094337000028Chip 'n Dale (FALL 2003) - Today @ 11am                                                                                     150                                
PRCFAMCHA030818094337094443000106Playhouse - WINNIE THE POOH - Christopher Robin                                                                             150                                
PROFAMCHA030818094443094513000030House of Mouse (FALL 2003) - Today @ 2:35pm                                                                                 150                                
PRCFAMCHA030818094513094548000035Playhouse - KATIE & ORBIE - Did You Know?                                                                                   150                                
ID FAMCHA030818094548094600000012PS Playhouse AM Block Open (:10-:15)                                                                                        150                                
PGRFAMCHA030818094600101300002358Stanley                                           Mockingbird Scat/Horsepower                                         A6068607ECC                              
PROFAMCHA030818100958101013000015PS - 13(PH) - HENRY/ELMO/CHIP (:14-:16) (DEC)                                                                               150                                
PRCFAMCHA030818101013101041000028Chip 'n Dale (FALL 2003) - Today @ 11am                                                                                     150                                
PRCFAMCHA030818101041101111000030xxHenry's World (FALL 2003) - Coming Up *DNU*                                                                               150                                
PRCFAMCHA030818101111101217000106Playhouse - WINNIE THE POOH - Christopher Robin                                                                             150                                
PROFAMCHA030818101217101247000030House of Mouse (FALL 2003) - Today @ 2:35pm                                                                                 150                                
ID FAMCHA030818101247101300000013PS Playhouse AM Block Open (:10-:15)                                                                                        150                                
PROFAMCHA030818101300101309000009CC Disclaimer - FAST - Generic (:08-:10)                                                                                    150                                
PGRFAMCHA030818101300103745002353Henry's World                                     Pet Dinosaur/Pirate Out Of Water                              B66543A1065607GCC                              
PROFAMCHA030818103702103717000015PS - 14(PH) - ELMO/CHIP/ART (:14-:16) (DEC)                                                                                 150                                
PRCFAMCHA030818103717103745000028Chip 'n Dale (FALL 2003) - Today @ 11am                                                                                     150                                
INTFAMCHA030818103745103915000130Disney Circle Time - Growing Smiles (anywhere but                                                                      60288130                                
PROFAMCHA030818103915103945000030House of Mouse (FALL 2003) - Today @ 2:35pm                                                                                 150                                
ID FAMCHA030818103945104000000015PS Playhouse AM Block Open (:10-:15)                                                                                        150                                
PGRFAMCHA030818104000105601001518Elmo's World                                      Hats                                                                A2068607G                                
PROFAMCHA030818105518105533000015PS - 15(PH) - CHIP/ART/RECESS (:14-:16)                                                                                     150                                
PRCFAMCHA030818105533105601000028Chip 'n Dale (FALL 2003) - Coming Up                                                                                        150                                
INTFAMCHA030818105601105832000231xxLilo & Stitch Music Video - On DVD August 26th *                                                                     60288130                                
INTFAMCHA030818105832110017000145Disney Circle Time - My Shadow (anywhere but D12)                                                                      60288130                                
PROFAMCHA030818110017110047000030House of Mouse (FALL 2003) - Today @ 2:35pm                                                                                 150                                
ID FAMCHA030818110047110100000013PS Playhouse AM Block Open (:10-:15)                                                                                        150                                
PGRFAMCHA030818110100112428002244Chip 'n Dale Rescue Rangers                       Catteries Not Included                                              A6068607E                                
PROFAMCHA030818112344112400000016PS - 16(PH) - ART/RECESS/BMW (:14-:16) (DEC)                                                                                150                                
PRCFAMCHA030818112400112428000028Chip 'n Dale (FALL 2003) - Today @ 1:45pm                                                                                   150                                
INTFAMCHA030818112428112613000145Disney Circle Time - The Fox And The Crow (anywher                                                                     60288130                                
PROFAMCHA030818112613112643000030House of Mouse (FALL 2003) - Today @ 2:35pm                                                                                 150                                
ID FAMCHA030818112643112658000015PS Playhouse AM Block Open (:10-:15)                                                                                        150                                
PGRFAMCHA030818112658114329001507Art Attack                                                                                                             60686110                                
PROFAMCHA030818114205114220000015PS - 17(MD) - RECESS/BMW/ALF (:14-:16) (DEC)                                                                                150                                
PROFAMCHA030818114220114250000030Pocahontas (PP) - Friday @ 7:30pm                                                                                           150                                
PRCFAMCHA030818114250114329000039Mad Dash - WEEKENDERS - Arrival                                                                                             150                                
INTFAMCHA030818114329114729000400Movie Surfers Freaky Friday - In Theatres Now *DNU                                                                     60288130                                
PRCFAMCHA030818114729114753000024In A Heartbeat (FALL2003) - Tonight @ 8:30pm                                                                                150                                
PROFAMCHA030818114753114803000010FAMJAM - Open                                                                                                               150                                
INTFAMCHA030818114803114903000100MV Disney - Dig It (D-TENT BOYS)                                                                                       60288130                                
PROFAMCHA030818114903114917000014FAMJAM - Close (WEB)                                                                                                        150                                
PROFAMCHA030818114917114947000030Tron (NP) - Friday @ 9pm                                                                                                    150                                
ID FAMCHA030818114947115000000013PS Mad Dash Block Open (:13-:15)                                                                                            150                                
PGRFAMCHA030818115000121300002233Disney's Recess                                   The Break In/ The New Kid                                            6068607E                                
PROFAMCHA030818121233121248000015PS - 18(MD) - BMW/ALF/MENTORS (:14-:16) (DEC)                                                                               150                                
ID FAMCHA030818121248121300000012PS Mad Dash Block Open (:13-:15)                                                                                            150                                
PGRFAMCHA030818121300123700002225Boy Meets World                                   Pilot                                                               B6068807BCC                              
PROFAMCHA030818121300121309000009CC Disclaimer - FAST - Family (:08-:10)                                                                                     150                                
PROFAMCHA030818123534123549000015PS - 19(MD) - ALF/MENTORS/DALMATIANS (:14-:16) (DE                                                                          150                                
PROFAMCHA030818123549123619000030Pocahontas (PP) - Friday @ 7:30pm                                                                                           150                                
PROFAMCHA030818123619123649000030Tron (NP) - Friday @ 9pm                                                                                                    150                                
ID FAMCHA030818123649123700000011Mad Dash Block Open (:13-:15)                                                                                               150                                
PGRFAMCHA030818123700130002002129ALF                                               Stop In The Name of Love                                            A2068807BCC                              
PROFAMCHA030818123700123709000009CC Disclaimer - FAST - Family (:08-:10)                                                                                     150                                
PROFAMCHA030818125838125852000014PS - 20(MD) - MENTORS/DALMATIANS/CHIP (:14-:16) (D                                                                          150                                
PROFAMCHA030818125852125922000030Pocahontas (PP) - Friday @ 7:30pm                                                                                           150                                
PROFAMCHA030818125922125952000030Tron (NP) - Friday @ 9pm                                                                                                    150                                
ID FAMCHA030818125952130002000010PS Mad Dash Block Open (:13-:15)                                                                                            150                                
PROFAMCHA030818130002130011000009CC Disclaimer - FAST - Generic (:08-:10)                                                                                    150                                
PGRFAMCHA030818130002132405002311Mentors                                           Her Grace Under Pressure                                      C17437 1065607ACC                              
PROFAMCHA030818132322132336000014PS - 21(PH) - DALMATIANS/CHIP/HOZE (:14-:16)                                                                                150                                
PRCFAMCHA030818132336132355000019Playhouse - FRANKLIN - Party                                                                                                150                                
ID FAMCHA030818132355132405000010PS Playhouse AM Block Open (:10-:15)                                                                                        150                                
PGRFAMCHA030818132405134801002245Disney's 101 Dalmatians: The Series               You Slipped A Disk/Chow About What?                                 A6028607E                                
PROFAMCHA030818134650134704000014PS - 22(PH) - CHIP/HOZE/HOM (:14-:16)                                                                                       150                                
PRCFAMCHA030818134704134732000028Chip 'n Dale (FALL 2003) - Coming Up                                                                                        150                                
PRCFAMCHA030818134732134751000019Playhouse - FRANKLIN - Party                                                                                                150                                
ID FAMCHA030818134751134801000010PS Playhouse AM Block Open (:10-:15)                                                                                        150                                
PGRFAMCHA030818134801141201002247Chip 'n Dale Rescue Rangers                       Three Man And A Booby                                               A6068607E                                
PROFAMCHA030818141048141102000014PS - 23(PH) - HOZE/HOM/TIMON (:14-:16)                                                                                      150                                
PROFAMCHA030818141102141132000030House of Mouse (FALL 2003) - Today @ 2:35pm                                                                                 150                                
PRCFAMCHA030818141132141151000019Playhouse - FRANKLIN - Party                                                                                                150                                
ID FAMCHA030818141151141201000010PS Playhouse AM Block Open (:10-:15)                                                                                        150                                
PROFAMCHA030818141201141209000008CC Disclaimer - FAST - Family (:08-:10)                                                                                     150                                
PGRFAMCHA030818141201143600002237Hoze Houndz                                       Truly, Madly, Invisibly/Tatooed                               B45776A1065607ECC                              
PROFAMCHA030818143446143501000015PS - 24(PH) - HOM/LION/TEAMO (:14-:16) (DEC)                                                                                150                                
PROFAMCHA030818143501143531000030House of Mouse (FALL 2003) - Coming Up                                                                                      150                                
PRCFAMCHA030818143531143550000019Playhouse - FRANKLIN - Party                                                                                                150                                
ID FAMCHA030818143550143600000010PS Playhouse AM Block Open (:10-:15)                                                                                        150                                
PROFAMCHA030818143600143609000009CC Disclaimer - FAST - Family.ca (:08-:10)                                                                                  150                                
PGRFAMCHA030818143600150000002235Disney's House Of Mouse                           The Stolen Cartoons                                                  6068607ECC                              
PROFAMCHA030818145844145859000015Mad Dash  - 01 - LION/TEAMO/WEEKENDERS (:14-:16) (                                                                          150                                
PROFAMCHA030818145859145929000030Pocahontas (PP) - Friday @ 7:30pm                                                                                           150                                
PRCFAMCHA030818145929145939000010Mad Dash - LIZZIE MCGUIRE - Going In                                                                                        150                                
ID FAMCHA030818145939145952000013Mad Dash Block Open (:13-:15)                                                                                               150                                
ID FAMCHA030818145952150000000008Magic of Disney - MAD DASH - Shape (:06-:09)                                                                                150                                
PROFAMCHA030818150000150009000009CC Disclaimer - FAST - Generic (:08-:10)                                                                                    150                                
PGRFAMCHA030818150000152500002242Lion King's Timon & Pumbaa; The                   Boara Boara/Saskatchewan Catch                                       6068607ECC                              
PROFAMCHA030818152251152306000015Mad Dash  - 02 - TEAMO/WEEKENDERS/RECESS (:14-:16)                                                                          150                                
PROFAMCHA030818152306152336000030Pocahontas (PP) - Friday @ 7:30pm                                                                                           150                                
PRCFAMCHA030818152336152406000030Family Kicks Contest -10- AUGUST 15 TO AUGUST 21                                                                            150                                
PRCFAMCHA030818152406152416000010Mad Dash - LIZZIE MCGUIRE - Going In                                                                                        150                                
PROFAMCHA030818152416152446000030Tron (NP) - Friday @ 9pm                                                                                                    150                                
ID FAMCHA030818152446152500000014Mad Dash Block Open (:13-:15)                                                                                               150                                
PGRFAMCHA030818152500155000002253Disney's Teamo Supremo                            Going It Alone/Out To Dry                                           A6028607E                                
PROFAMCHA030818154753154808000015Mad Dash  - 03 - WEEKENDERS/RECESS/KIM (:14-:16)                                                                            150                                
PROFAMCHA030818154808154838000030Pocahontas (PP) - Friday @ 7:30pm                                                                                           150                                
PRCFAMCHA030818154838154908000030Summer Chill Tour Spot                                                                                                      150                                
PRCFAMCHA030818154908154918000010Mad Dash - LIZZIE MCGUIRE - Going In                                                                                        150                                
PROFAMCHA030818154918154948000030Tron (NP) - Friday @ 9pm                                                                                                    150                                
ID FAMCHA030818154948155000000012Mad Dash Block Open (:13-:15)                                                                                               150                                
PROFAMCHA030818155000155009000009CC Disclaimer - FAST - Family (:08-:10)                                                                                     150                                
PGRFAMCHA030818155000161600002247Disney's The Weekenders                           Taking Sides/To Tish                                                A6068607ECC                              
PROFAMCHA030818161256161310000014Mad Dash  - 04 - RECESS/KIM/PROUD (:14-:16)                                                                                 150                                
PROFAMCHA030818161310161340000030Pocahontas (PP) - Friday @ 7:30pm                                                                                           150                                
PRCFAMCHA030818161340161410000030Family Kicks Contest -10- AUGUST 15 TO AUGUST 21                                                                            150                                
PRCFAMCHA030818161410161440000030xxNBA Jam - AUGUST 11th to 31st (instead of NBA#1)                                                                          150                                
PRCFAMCHA030818161440161450000010Mad Dash - LIZZIE MCGUIRE - Going In                                                                                        150                                
PRCFAMCHA030818161450161520000030Lizzie Watch & Win Contest                                                                                                  150                                
PROFAMCHA030818161520161550000030Tron (NP) - Friday @ 9pm                                                                                                    150                                
ID FAMCHA030818161550161600000010Mad Dash Block Open (:13-:15)                                                                                               150                                
PGRFAMCHA030818161600164200002233Disney's Recess                                   The Break In/ The New Kid                                            6068607E                                
PROFAMCHA030818163833163848000015Mad Dash  - 05 - KIM/PROUD/LIZZIE (:14-:16)                                                                                 150                                
PROFAMCHA030818163848163918000030Pocahontas (PP) - Friday @ 7:30pm                                                                                           150                                
PRCFAMCHA030818163918163948000030Summer Chill Tour Spot                                                                                                      150                                
PRCFAMCHA030818163948164018000030In A Heartbeat (FALL2003) - Tonight @ 8:30pm                                                                                150                                
PRCFAMCHA030818164018164048000030Lizzie Watch & Win Contest                                                                                                  150                                
PRCFAMCHA030818164048164118000030Family Birthday Club #1 - ONGOING (G)                                                                                       150                                
PROFAMCHA030818164118164148000030Tron (NP) - Friday @ 9pm                                                                                                    150                                
ID FAMCHA030818164148164200000012Mad Dash Block Open (:13-:15)                                                                                               150                                
PGRFAMCHA030818164200170800002300Disney's Kim Possible                             EPS # 1-022                                                         A6028607E                                
PROFAMCHA030818170500170515000015Mad Dash  - 06 - PROUD/LIZZIE/ALL (:14-:16)                                                                                 150                                
PROFAMCHA030818170515170545000030Pocahontas (PP) - Friday @ 7:30pm                                                                                           150                                
PRCFAMCHA030818170545170615000030Family Birthday Club #2 - ONGOING (G)                                                                                       150                                
PRCFAMCHA030818170615170645000030In A Heartbeat (FALL2003) - Tonight @ 8:30pm                                                                                150                                
PRCFAMCHA030818170645170715000030xxNBA Jam - AUGUST 11th to 31st (instead of NBA#2)                                                                          150                                
PROFAMCHA030818170715170745000030Tron (NP) - Friday @ 9pm                                                                                                    150                                
ID FAMCHA030818170745170800000015Mad Dash Block Open (:13-:15)                                                                                               150                                
PROFAMCHA030818170800170809000009CC Disclaimer - FAST - Family.ca (:08-:10)                                                                                  150                                
PGRFAMCHA030818170800173400002209Proud Family; The                                 Rumors                                                              A6068807ECC                              
PROFAMCHA030818173018173032000014Mad Dash  - 07 - LIZZIE/ALL/BRENDAN (:14-:16)                                                                               150                                
PROFAMCHA030818173032173102000030Pocahontas (PP) - Friday @ 7:30pm                                                                                           150                                
PRCFAMCHA030818173102173132000030Hello Ello Contest                                                                                                          150                                
PRCFAMCHA030818173132173202000030Family Kicks Contest -10- AUGUST 15 TO AUGUST 21                                                                            150                                
PRCFAMCHA030818173202173232000030In A Heartbeat (FALL2003) - Tonight @ 8:30pm                                                                                150                                
PRCFAMCHA030818173232173302000030xxNBA Jam - AUGUST 11th to 31st (instead of NBA#1)                                                                          150                                
PRCFAMCHA030818173302173312000010Lizzie/Sears Billboard                                                                                                      150                                
PROFAMCHA030818173312173342000030Tron (NP) - Friday @ 9pm                                                                                                    150                                
ID FAMCHA030818173342173352000010Mad Dash Block Open (:13-:15)                                                                                               150                                
ID FAMCHA030818173352173400000008Magic of Disney - MAD DASH - Shape (:06-:09)                                                                                150                                
PGRFAMCHA030818173400180000002245Lizzie McGuire                                    Pool Party                                                          A6068607B                                
PROFAMCHA030818175645175700000015Nonstop - 01(FRI) - AMANDA/EVEN/TEEN (:14-:16)                                                                              150                                
PROFAMCHA030818175700175730000030Pocahontas (PP) - Friday @ 7:30pm                                                                                           150                                
PRCFAMCHA030818175730175800000030Summer Chill Tour Spot                                                                                                      150                                
PRCFAMCHA030818175800175832000032Nonstop - JETT JACKSON - Crisis                                                                                             150                                
PRCFAMCHA030818175832175902000030xxNBA Jam - AUGUST 11th to 31st (instead of NBA#2)                                                                          150                                
PRCFAMCHA030818175902175917000015Nonstop - ALL THAT - Mouth                                                                                                  150                                
PROFAMCHA030818175917175947000030Tron (NP) - Friday @ 9pm                                                                                                    150                                
ID FAMCHA030818175947180000000013Nonstop Block Open (:14-:17)                                                                                                150                                
PGRFAMCHA030818180000182551002421All That                                                                                                              A20686090                                
ID FAMCHA030818182421182426000005Astral "A Network Of" Logo - English Animation                                                                              150                                
PROFAMCHA030818182426182441000015Nonstop - 02(M-T) - BRENDAN/RAVEN/JETT (:14-:16)                                                                            150                                
PROFAMCHA030818182441182511000030Pocahontas (PP) - Friday @ 7:30pm                                                                                           150                                
PRCFAMCHA030818182511182541000030Family Birthday Club #1 - ONGOING (G)                                                                                       150                                
PROFAMCHA030818182541182551000010FAMJAM - Open                                                                                                               150                                
INTFAMCHA030818182551182651000100MV Disney - I Can't Wait (HILARY DUFF)                                                                                 60288130                                
PROFAMCHA030818182651182705000014FAMJAM - Close (FAMILY)                                                                                                     150                                
PRCFAMCHA030818182705182735000030xxNBA Jam - AUGUST 11th to 31st (instead of NBA#1)                                                                          150                                
INTFAMCHA030818182735182905000130Klootz - Grand Escape #6                                                                                              A10258120                                
PROFAMCHA030818182905182935000030Tron (NP) - Friday @ 9pm                                                                                                    150                                
PROFAMCHA030818182935182950000015Tron Contest                                                                                                                150                                
ID FAMCHA030818182950183000000010Nonstop Block Open (:14-:17)                                                                                                150                                
PGRFAMCHA030818183000185338002047Brendan Leonard Show; The                         EPS # 1-001                                                         B6028807FCC                              
ID FAMCHA030818185047185050000003Astral "A Network Of" Logo - English Animation                                                                              150                                
PROFAMCHA030818185050185105000015Nonstop - 03(M-T) - RAVEN/JETT/BMW (:14-:16)                                                                                150                                
PROFAMCHA030818185105185153000048xxDance Fever - Sunday @ 8pm                                                                                                150                                
PROFAMCHA030818185153185223000030Pocahontas (PP) - Friday @ 7:30pm                                                                                           150                                
PRCFAMCHA030818185223185253000030xxNBA Jam - AUGUST 11th to 31st (instead of NBA#2)                                                                          150                                
PROFAMCHA030818185253185323000030Tron (NP) - Friday @ 9pm                                                                                                    150                                
PROFAMCHA030818185323185338000015Tron Contest                                                                                                                150                                
PGRFAMCHA030818185338185838000500Movie Surfers Pirates of the Caribbean #2 *DNU*                                                                        60288150                                
PRCFAMCHA030818185838185907000029Nonstop - JETT JACKSON - Car                                                                                                150                                
PRCFAMCHA030818185907185937000030Family Kicks Contest -10- AUGUST 15 TO AUGUST 21                                                                            150                                
PROFAMCHA030818185937185947000010xxDance Fever Web Throw                                                                                                     150                                
ID FAMCHA030818185947190000000013Nonstop Block Open (:14-:17)                                                                                                150                                
PGRFAMCHA030818190000192536002300That's So Raven                                   EPS # 1-022                                                         A6028807B                                
ID FAMCHA030818192300192305000005Astral "A Network Of" Logo - English Animation                                                                              150                                
PROFAMCHA030818192305192320000015Nonstop - 04(M-T) - JETT/BMW/HEARTBEAT (:14-:16) (                                                                          150                                
PROFAMCHA030818192320192408000048xxDance Fever - Sunday @ 8pm                                                                                                150                                
PROFAMCHA030818192408192438000030Tron (NP) - Friday @ 9pm                                                                                                    150                                
PROFAMCHA030818192438192453000015Tron Contest                                                                                                                150                                
PRCFAMCHA030818192453192506000013Nonstop - ALL THAT - Sugar & Coffee                                                                                         150                                
PRCFAMCHA030818192506192536000030Family Birthday Club #2 - ONGOING (G)                                                                                       150                                
INTFAMCHA030818192536192936000400Movie Surfers Freaky Friday - In Theatres Now *DNU                                                                     60288130                                
PROFAMCHA030818192936192946000010xxDance Fever Web Throw                                                                                                     150                                
ID FAMCHA030818192946193000000014Nonstop Block Open (:14-:17)                                                                                                150                                
PROFAMCHA030818193000193009000009CC Disclaimer - FAST - Generic (:08-:10)                                                                                    150                                
PGRFAMCHA030818193000195648002433Famous Jett Jackson; The                          A Tragedy In Two Parts                                        B57115 1065607ACC                              
ID FAMCHA030818195442195445000003Astral "A Network Of" Logo - English Animation                                                                              150                                
PROFAMCHA030818195445195500000015Nonstop - 05(M-T) - BMW/HEARTBEAT/N-PIX (:14-:16)                                                                           150                                
PROFAMCHA030818195500195548000048xxDance Fever - Sunday @ 8pm                                                                                                150                                
PROFAMCHA030818195548195618000030Pocahontas (PP) - Friday @ 7:30pm                                                                                           150                                
PRCFAMCHA030818195618195648000030Family Popcorn Parties (2) *DNU*                                                                                            150                                
INTFAMCHA030818195648195818000130Klootz - Oasis 01                                                                                                     A10258120                                
PROFAMCHA030818195818195917000059xxBoy Meets World (DANCE) - Coming Up                                                                                       150                                
PRCFAMCHA030818195917195937000020Nonstop - BOY MEETS WORLD - Good Looking                                                                                    150                                
PROFAMCHA030818195937195947000010xxDance Fever Web Throw                                                                                                     150                                
ID FAMCHA030818195947200000000013Nonstop Block Open (:14-:17)                                                                                                150                                
PGRFAMCHA030818200000202437002225Boy Meets World                                   Pilot                                                               B6068807BCC                              
PROFAMCHA030818200000200009000009CC Disclaimer - FAST - Family (:08-:10)                                                                                     150                                
ID FAMCHA030818202234202239000005Astral "A Network Of" Logo - English Animation                                                                              150                                
PROFAMCHA030818202239202254000015Nonstop - 06(M-T) - HEARTBEAT/N-PIX (:14-:16)                                                                               150                                
PROFAMCHA030818202254202342000048xxDance Fever - Sunday @ 8pm                                                                                                150                                
PROFAMCHA030818202342202412000030Tron (NP) - Friday @ 9pm                                                                                                    150                                
PROFAMCHA030818202412202427000015Tron Contest                                                                                                                150                                
PROFAMCHA030818202427202437000010FAMJAM - Open                                                                                                               150                                
INTFAMCHA030818202437202808000331MV Disney - So Yesterday (HILARY DUFF)                                                                                 60288130                                
PROFAMCHA030818202808202822000014FAMJAM - Close (FAMILY)                                                                                                     150                                
PRCFAMCHA030818202822202852000030Family Popcorn Parties (2) *DNU*                                                                                            150                                
PRCFAMCHA030818202852202907000015Nonstop - ALL THAT - Mouth                                                                                                  150                                
PRCFAMCHA030818202907202937000030Lizzie Watch & Win Contest                                                                                                  150                                
PROFAMCHA030818202937202947000010xxDance Fever Web Throw                                                                                                     150                                
ID FAMCHA030818202947203000000013Nonstop Block Open (:14-:17)                                                                                                150                                
PROFAMCHA030818203000203009000009CC Disclaimer - FAST - Family.ca (:08-:10)                                                                                  150                                
PGRFAMCHA030818203000205446002236In A Heartbeat                                    The Adventures of SuperVal                                    B57183A1065807ACC                              
ID FAMCHA030818205245205248000003Astral "A Network Of" Logo - English Animation                                                                              150                                
PROFAMCHA030818205248205258000010xxNightly Pix Line-up - 01 - GENERIC1 (:08-:11) *D                                                                          150                                
PROFAMCHA030818205258205346000048xxDance Fever - Sunday @ 8pm                                                                                                150                                
PROFAMCHA030818205346205416000030Pocahontas (PP) - Friday @ 7:30pm                                                                                           150                                
PRCFAMCHA030818205416205446000030Lizzie Watch & Win Contest                                                                                                  150                                
PROFAMCHA030818205446205456000010FAMJAM - Open                                                                                                               150                                
PGRFAMCHA030818205446210000000333MV - Miss Independent (K. Clarkson)                                                                                   A20688120                                
PROFAMCHA030818205829205843000014FAMJAM - Close (WEB)                                                                                                        150                                
PRCFAMCHA030818205843205913000030Family Popcorn Parties (2) *DNU*                                                                                            150                                
PRCFAMCHA030818205913205937000024In A Heartbeat (FALL2003) - Monday to Thursday @ 8                                                                          150                                
PROFAMCHA030818205937205947000010xxDance Fever Web Throw                                                                                                     150                                
ID FAMCHA030818205947210000000013Nightly Pix Movie Open (:10-:15)                                                                                            150                                
PGRFAMCHA030818210000223301013223Family Reunion: A Relative Nightmare                                                                                  B6068807D                                
ID FAMCHA030818210000210009000009Rating - PG - Ian (:08-:10)                                                                                                 150                                
ID FAMCHA030818223232223237000005Astral "A Network Of" Logo - English Animation                                                                              150                                
PROFAMCHA030818223237223251000014Nonstop - 07(M-T/AUG) - BMW/YBB/AMAZING (:14-:16)                                                                           150                                
ID FAMCHA030818223251223301000010Nonstop Block Open (:14-:17)                                                                                                150                                
PGRFAMCHA030818223301225641002225Boy Meets World                                   Pilot                                                               B6068807BCC                              
PROFAMCHA030818223301223310000009CC Disclaimer - SLOW - Generic (:08-:10)                                                                                    150                                
ID FAMCHA030818225535225538000003Astral "A Network Of" Logo - English Animation                                                                              150                                
PROFAMCHA030818225538225553000015Nonstop - 08(M-T/AUG) - YBB/AMAZING/JETT (:14-:16)                                                                          150                                
PROFAMCHA030818225553225641000048xxDance Fever - Sunday @ 8pm                                                                                                150                                
INTFAMCHA030818225641225906000225Art Attack - Snooker                                                                                                   60286130                                
PROFAMCHA030818225906225936000030Tron (NP) - Friday @ 9pm                                                                                                    150                                
PROFAMCHA030818225936225946000010xxDance Fever Web Throw                                                                                                     150                                
ID FAMCHA030818225946230000000014Nonstop Block Open (:14-:17)                                                                                                150                                
PROFAMCHA030818230000230009000009CC Disclaimer - SLOW - Family (:08-:10)                                                                                     150                                
PGRFAMCHA030818230000234446004259Your Big Break                                                                                                         60688090CC                              
ID FAMCHA030818234308234313000005Astral "A Network Of" Logo - English Animation                                                                              150                                
PROFAMCHA030818234313234328000015Nonstop - 09 - AMAZING/JETT (:14-:16) (DEC)                                                                                 150                                
PROFAMCHA030818234328234416000048xxDance Fever - Sunday @ 8pm                                                                                                150                                
PROFAMCHA030818234416234446000030Pocahontas (PP) - Friday @ 7:30pm                                                                                           150                                
PGRFAMCHA030818234446234946000500Movie Surfers Pirates of the Caribbean #2 *DNU*                                                                        60288150                                
PRCFAMCHA030818234946235010000024In A Heartbeat (FALL2003) - Monday to Thursday @ 8                                                                          150                                
PGRFAMCHA030818235010235510000500Movie Surfers Finding Nemo #2 *DNU*                                                                                    60288150                                
PROFAMCHA030818235510235536000026xxBoy Meets World (SHAWN) - Monday to Thursday @ 8                                                                          150                                
INTFAMCHA030818235536235936000400Movie Surfers Freaky Friday - In Theatres Now *DNU                                                                     60288130                                
PROFAMCHA030818235936235946000010xxDance Fever Web Throw                                                                                                     150                                
ID FAMCHA030818235946000000000014Nonstop Block Open (:14-:17)                                                                                                150                                
PGRFAMCHA030818000000002618002442Amazing Stories                                   The Main Attraction                                                 A2068807A                                
ID FAMCHA030818002442002445000003Astral "A Network Of" Logo - English Animation                                                                              150                                
PROFAMCHA030818002445002500000015Nonstop - 10 - JETT (:14-:16)                                                                                               150                                
PROFAMCHA030818002500002548000048xxDance Fever - Sunday @ 8pm                                                                                                150                                
PROFAMCHA030818002548002618000030Tron (NP) - Friday @ 9pm                                                                                                    150                                
INTFAMCHA030818002618002908000250Art Attack - Lentil Dragon                                                                                             60286130                                
PRCFAMCHA030818002908002938000030In A Heartbeat (FALL2003) - Monday to Thurday @ 8:                                                                          150                                
PROFAMCHA030818002938002948000010xxDance Fever Web Throw                                                                                                     150                                
ID FAMCHA030818002948003000000012Nonstop Block Open (:14-:17)                                                                                                150                                
PROFAMCHA030818003000003009000009CC Disclaimer - SLOW - Family.ca (:08-:10)                                                                                  150                                
PGRFAMCHA030818003000005605002433Famous Jett Jackson; The                          A Tragedy In Two Parts                                        B57115 1065607ACC                              
ID FAMCHA030818005442005447000005Astral "A Network Of" Logo - English Animation                                                                              150                                
PROFAMCHA030818005447005535000048xxDance Fever - Sunday @ 8pm                                                                                                150                                
PROFAMCHA030818005535005605000030Pocahontas (PP) - Friday @ 7:30pm                                                                                           150                                
PGRFAMCHA030818005605010105000500Movie Surfers Finding Nemo #1 *DNU*                                                                                    60288150                                
PROFAMCHA030818010105010135000030Tron (NP) - Friday @ 9pm                                                                                                    150                                
PROFAMCHA030818010135010201000026xxBoy Meets World (SHAWN) - Monday to Thursday @ 8                                                                          150                                
SO FAMCHA030818010201010213000012Sign Off (oct 1)                                                                                                                                               
OFFFAMCHA030818010213043000032747OFF AIR                                                                                                                                                        
SO FAMCHA030819043000043011000011Sign On (oct 1)                                                                                                                                                
PROFAMCHA030819043011043020000009CC Disclaimer - FAST - Generic (:08-:10)                                                                                    150                                
PGRFAMCHA030819043011045337002253Franklin                                          Franklin Goes To School/Franklin Is Lost                      B10182A1065607ECC                              
PROFAMCHA030819045313045327000014PS - 01(PH) - WTP/KATIE/FRANKLIN (:14-:16)                                                                                  150                                
ID FAMCHA030819045327045337000010PS Playhouse AM Block Open (:10-:15)                                                                                        150                                
ID FAMCHA030819045337045345000008Magic of Disney - PLAYHOUSE - Shape (:06-:09)                                                                               150                                
PGRFAMCHA030819045337051706002241New Adventures of Winnie the Pooh; The            There's No Camp Like Home/Ballonatics                                6068607ECC                              
PROFAMCHA030819045345045354000009CC Disclaimer - FAST - Family (:08-:10)                                                                                     150                                
PROFAMCHA030819051635051651000016PS - 02(PH) - KATIE/FRANKLIN/RIPLEY (:14-:16)                                                                               150                                
ID FAMCHA030819051651051706000015PS Playhouse AM Block Open (:10-:15)                                                                                        150                                
PROFAMCHA030819051706051716000010CC Disclaimer - FAST - Family.ca (:08-:10)                                                                                  150                                
PGRFAMCHA030819051706054418002638Katie And Orbie                                   Science/911/Bedspread Painting Party                          C19665A1065607ECC                              
PROFAMCHA030819054354054408000014PS - 03(PH) - FRANKLIN/RIPLEY/HOZE (:14-:16)                                                                                150                                
ID FAMCHA030819054408054418000010PS Playhouse AM Block Open (:10-:15)                                                                                        150                                
PROFAMCHA030819054418054427000009CC Disclaimer - FAST - Generic (:08-:10)                                                                                    150                                
PGRFAMCHA030819054418060808002253Franklin                                          Franklin Has A Sleepover/Franklin's Halloween                 B10183A1065607ECC                              
PROFAMCHA030819060720060735000015PS - 04(PH) - RIPLEY/HOZE/KNIGHT (:14-:16)                                                                                  150                                
PRCFAMCHA030819060735060754000019Playhouse - FRANKLIN - Party                                                                                                150                                
ID FAMCHA030819060754060808000014PS Playhouse AM Block Open (:10-:15)                                                                                        150                                
PROFAMCHA030819060808060817000009CC Disclaimer - FAST - Family (:08-:10)                                                                                     150                                
PGRFAMCHA030819060808063500002430Ripley's Believe It Or Not!                       Head's I Win, Tails You Lose                                  B71299 1065607ECC                              
PROFAMCHA030819063247063302000015PS - 05(PH) - HOZE/KNIGHT/PRLR (:14-:16)                                                                                    150                                
PRCFAMCHA030819063302063332000030xxHenry's World (FALL 2003) - Today @ 10:10am *DNU                                                                          150                                
PRCFAMCHA030819063332063418000046Playhouse - STANLEY - Squirrel Song                                                                                         150                                
PRCFAMCHA030819063418063446000028Chip 'n Dale (FALL 2003) - Today @ 11am                                                                                     150                                
ID FAMCHA030819063446063500000014PS Playhouse AM Block Open (:10-:15)                                                                                        150                                
PROFAMCHA030819063500063509000009CC Disclaimer - FAST - Family.ca (:08-:10)                                                                                  150                                
PGRFAMCHA030819063500070000002234Hoze Houndz                                       Jump On The Boy Bandwagon/Game Overkill                       B45769A1065607ECC                              
PROFAMCHA030819065743065758000015PS - 06(PB) - KNIGHT/PRLR/GADGET (:14-:16)                                                                                  150                                
PROFAMCHA030819065758065828000030Tron (NP) - Friday @ 9pm                                                                                                    150                                
PRCFAMCHA030819065828065852000024In A Heartbeat (FALL2003) - Tonight @ 8:30pm                                                                                150                                
PROFAMCHA030819065852065918000026xxBoy Meets World (SHAWN) - Tonight @ 8pm                                                                                   150                                
PROFAMCHA030819065918065948000030Pocahontas (PP) - Friday @ 7:30pm                                                                                           150                                
ID FAMCHA030819065948070000000012PS Power Box Block Open (:10-:15)                                                                                           150                                
PROFAMCHA030819070000070009000009CC Disclaimer - FAST - Generic (:08-:10)                                                                                    150                                
PGRFAMCHA030819070000072220002126Mon Colle Knights                                 Send In The Frog                                                    A6028607ECC                              
PROFAMCHA030819072135072150000015PS - 07(PB) - PRLR/GADGET/DALMATIANS (:14-:16)                                                                              150                                
PROFAMCHA030819072150072220000030Tron (NP) - Friday @ 9pm                                                                                                    150                                
INTFAMCHA030819072220072350000130Klootz - Bad For The Ego #47                                                                                          A10258120                                
PRCFAMCHA030819072350072420000030In A Heartbeat (FALL2003) - Tonight @ 8:30pm                                                                                150                                
PGRFAMCHA030819072420072920000500Movie Surfers Finding Nemo #1 *DNU*                                                                                    60688150                                
PROFAMCHA030819072920072950000030Pocahontas (PP) - Friday @ 7:30pm                                                                                           150                                
ID FAMCHA030819072950073000000010PS Power Box Block Open (:10-:15)                                                                                           150                                
PGRFAMCHA030819073000075313002128Power Rangers Lightspeed Rescue                   Lightspeed Teamwork                                                 A6068607E                                
PROFAMCHA030819075128075144000016PS - 08(PB) - GADGET/DALMATIANS/FRANKLIN (:14-:16)                                                                          150                                
PROFAMCHA030819075144075214000030Tron (NP) - Friday @ 9pm                                                                                                    150                                
PROFAMCHA030819075214075313000059xxBoy Meets World (DANCE) - Tonight @ 8pm                                                                                   150                                
PGRFAMCHA030819075313075813000500Movie Surfers Finding Nemo #2 *DNU*                                                                                    60688150                                
PROFAMCHA030819075813075843000030xxNightly Pix Block Promo - Tonight @ 9pm                                                                                   150                                
PROFAMCHA030819075843075915000032xxPR Wild Force (CHAIR) - Weekends @ 6:30am                                                                                 150                                
PROFAMCHA030819075915075945000030Pocahontas (PP) - Friday @ 7:30pm                                                                                           150                                
ID FAMCHA030819075945080000000015PS Power Box Block Open (:10-:15)                                                                                           150                                
PGRFAMCHA030819080000082258002213Gadget & the Gadgetinis                           Looming Las Vegas                                                   A6028607E                                
PROFAMCHA030819082213082228000015PS - 09(PH) - DALMATIANS/FRANKLIN/WTP (:14-:16)                                                                             150                                
PRCFAMCHA030819082228082258000030xxHenry's World (FALL 2003) - Today @ 10:10am *DNU                                                                          150                                
INTFAMCHA030819082258082530000232MV Disney - With A Few Good Friends (CARLY SIMON)                                                                      60288130                                
PRCFAMCHA030819082530082616000046Playhouse - STANLEY - Squirrel Song                                                                                         150                                
PROFAMCHA030819082616082646000030House of Mouse (FALL 2003) - Today @ 2:35pm                                                                                 150                                
INTFAMCHA030819082646082917000231xxLilo & Stitch Music Video - On DVD August 26th *                                                                     60688130                                
PRCFAMCHA030819082917082945000028Chip 'n Dale (FALL 2003) - Today @ 11am                                                                                     150                                
ID FAMCHA030819082945083000000015PS Playhouse AM Block Open (:10-:15)                                                                                        150                                
PGRFAMCHA030819083000085500002248Disney's 101 Dalmatians: The Series               Tic Track Toe/Lucky All-Star                                        A6028607E                                
PROFAMCHA030819085248085303000015PS - 10(PH) - FRANKLIN/WTP/STANLEY (:14-:16) (DEC)                                                                          150                                
PRCFAMCHA030819085303085333000030xxHenry's World (FALL 2003) - Today @ 10:10am *DNU                                                                          150                                
PRCFAMCHA030819085333085419000046Playhouse - STANLEY - Squirrel Song                                                                                         150                                
PRCFAMCHA030819085419085447000028Chip 'n Dale (FALL 2003) - Today @ 11am                                                                                     150                                
ID FAMCHA030819085447085500000013PS Playhouse AM Block Open (:10-:15)                                                                                        150                                
PROFAMCHA030819085500085509000009CC Disclaimer - FAST - Family (:08-:10)                                                                                     150                                
PGRFAMCHA030819085500091952002253Franklin                                          Franklin's Fortune Teller/Franklin's Cellar                   B36666A1065607ECC                              
PROFAMCHA030819091802091817000015PS - 11(PH) - WTP/STANLEY/HENRY (:14-:16) (DEC)                                                                             150                                
PRCFAMCHA030819091817091847000030xxHenry's World (FALL 2003) - Today @ 10:10am *DNU                                                                          150                                
PRCFAMCHA030819091847091914000027Playhouse - FRANKLIN - Laundry                                                                                              150                                
PRCFAMCHA030819091914091942000028Chip 'n Dale (FALL 2003) - Today @ 11am                                                                                     150                                
ID FAMCHA030819091942091952000010PS Playhouse AM Block Open (:10-:15)                                                                                        150                                
ID FAMCHA030819091952092000000008Magic of Disney - PLAYHOUSE - Wipe (:06-:09)                                                                                150                                
PGRFAMCHA030819091952094333002233New Adventures of Winnie the Pooh; The            Find Her, Keep Her                                                   6068607ECC                              
PROFAMCHA030819092000092009000009CC Disclaimer - FAST - Family.ca (:08-:10)                                                                                  150                                
PROFAMCHA030819094242094258000016PS - 12(PH) - STANLEY/HENRY/ELMO (:14-:16) (DEC)                                                                            150                                
PRCFAMCHA030819094258094333000035Playhouse - KATIE & ORBIE - Did You Know?                                                                                   150                                
INTFAMCHA030819094333094518000145Disney Circle Time - My Shadow (anywhere but D12)                                                                      60688130                                
PRCFAMCHA030819094518094548000030xxHenry's World (FALL 2003) - Today @ 10:10am *DNU                                                                          150                                
ID FAMCHA030819094548094600000012PS Playhouse AM Block Open (:10-:15)                                                                                        150                                
PGRFAMCHA030819094600101300002358Stanley                                           Sunburn Stanley/Time For Toolfish                                   A6068607ECC                              
PROFAMCHA030819100958101014000016PS - 13(PH) - HENRY/ELMO/CHIP (:14-:16) (DEC)                                                                               150                                
PRCFAMCHA030819101014101044000030xxHenry's World (FALL 2003) - Coming Up *DNU*                                                                               150                                
PRCFAMCHA030819101044101112000028Chip 'n Dale (FALL 2003) - Today @ 11am                                                                                     150                                
PRCFAMCHA030819101112101218000106Playhouse - WINNIE THE POOH - Christopher Robin                                                                             150                                
PROFAMCHA030819101218101248000030House of Mouse (FALL 2003) - Today @ 2:35pm                                                                                 150                                
ID FAMCHA030819101248101300000012PS Playhouse AM Block Open (:10-:15)                                                                                        150                                
PROFAMCHA030819101300101309000009CC Disclaimer - FAST - Generic (:08-:10)                                                                                    150                                
PGRFAMCHA030819101300103743002350Henry's World                                     My Two Front Teeth/Goragh                                     B66544A1065607GCC                              
PROFAMCHA030819103659103715000016PS - 14(PH) - ELMO/CHIP/ART (:14-:16) (DEC)                                                                                 150                                
PRCFAMCHA030819103715103743000028Chip 'n Dale (FALL 2003) - Today @ 11am                                                                                     150                                
INTFAMCHA030819103743103913000130Disney Circle Time - Growing Smiles (anywhere but                                                                      60688130                                
PROFAMCHA030819103913103943000030House of Mouse (FALL 2003) - Today @ 2:35pm                                                                                 150                                
ID FAMCHA030819103943103958000015PS Playhouse AM Block Open (:10-:15)                                                                                        150                                
PGRFAMCHA030819103958105604001454Elmo's World                                      Dance                                                               A2068607G                                
PROFAMCHA030819105452105506000014PS - 15(PH) - CHIP/ART/RECESS (:14-:16)                                                                                     150                                
PRCFAMCHA030819105506105534000028Chip 'n Dale (FALL 2003) - Coming Up                                                                                        150                                
PROFAMCHA030819105534105604000030House of Mouse (FALL 2003) - Today @ 2:35pm                                                                                 150                                
INTFAMCHA030819105604105749000145Disney Circle Time - The Fox And The Crow (anywher                                                                     60688130                                
INTFAMCHA030819105749110020000231xxLilo & Stitch Music Video - On DVD August 26th *                                                                     60688130                                
PRCFAMCHA030819110020110050000030xxHenry's World (FALL 2003) - Tomorrow @ 10:10am *                                                                          150                                
ID FAMCHA030819110050110100000010PS Playhouse AM Block Open (:10-:15)                                                                                        150                                
PGRFAMCHA030819110100112431002246Chip 'n Dale Rescue Rangers                       The Carpetnaggers                                                   A6068607E                                
PROFAMCHA030819112346112401000015PS - 16(PH) - ART/RECESS/BMW (:14-:16) (DEC)                                                                                150                                
PROFAMCHA030819112401112431000030House of Mouse (FALL 2003) - Today @ 2:35pm                                                                                 150                                
INTFAMCHA030819112431112616000145Disney Circle Time - My Shadow (anywhere but D12)                                                                      60688130                                
PRCFAMCHA030819112616112646000030xxHenry's World (FALL 2003) - Tomorrow @ 10:10am *                                                                          150                                
ID FAMCHA030819112646112700000014PS Playhouse AM Block Open (:10-:15)                                                                                        150                                
PGRFAMCHA030819112700114252001508Art Attack                                                                                                             60686110                                
PROFAMCHA030819114208114222000014PS - 17(MD) - RECESS/BMW/ALF (:14-:16) (DEC)                                                                                150                                
PROFAMCHA030819114222114252000030Tron (NP) - Friday @ 9pm                                                                                                    150                                
INTFAMCHA030819114252114652000400Movie Surfers Freaky Friday - In Theatres Now *DNU                                                                     60688130                                
PROFAMCHA030819114652114751000059xxBoy Meets World (DANCE) - Tonight @ 8pm                                                                                   150                                
INTFAMCHA030819114751114921000130Klootz - Farwest Flick #51                                                                                            A10258120                                
PROFAMCHA030819114921114951000030Pocahontas (PP) - Friday @ 7:30pm                                                                                           150                                
ID FAMCHA030819114951115001000010PS Mad Dash Block Open (:13-:15)                                                                                            150                                
PGRFAMCHA030819115001121300002234Disney's Recess                                   The Experiment/The Great Jungle Gym Standoff                         6068607E                                
PROFAMCHA030819121235121250000015PS - 18(MD) - BMW/ALF/MENTORS (:14-:16) (DEC)                                                                               150                                
ID FAMCHA030819121250121300000010PS Mad Dash Block Open (:13-:15)                                                                                            150                                
PGRFAMCHA030819121300123700002158Boy Meets World                                   Killer Bee                                                          B6068807BCC                              
PROFAMCHA030819121300121309000009CC Disclaimer - FAST - Family (:08-:10)                                                                                     150                                
PROFAMCHA030819123507123522000015PS - 19(MD) - ALF/MENTORS/DALMATIANS (:14-:16) (DE                                                                          150                                
PROFAMCHA030819123522123552000030Tron (NP) - Friday @ 9pm                                                                                                    150                                
PRCFAMCHA030819123552123616000024In A Heartbeat (FALL2003) - Tonight @ 8:30pm                                                                                150                                
PROFAMCHA030819123616123646000030Pocahontas (PP) - Friday @ 7:30pm                                                                                           150                                
ID FAMCHA030819123646123700000014Mad Dash Block Open (:13-:15)                                                                                               150                                
PGRFAMCHA030819123700130000002129ALF                                               Stairway To Heaven                                                  A2068807BCC                              
PROFAMCHA030819123700123709000009CC Disclaimer - FAST - Family.ca (:08-:10)                                                                                  150                                
PROFAMCHA030819125838125853000015PS - 20(MD) - MENTORS/DALMATIANS/CHIP (:14-:16) (D                                                                          150                                
PROFAMCHA030819125853125923000030Pocahontas (PP) - Friday @ 7:30pm                                                                                           150                                
PRCFAMCHA030819125923125947000024In A Heartbeat (FALL2003) - Tonight @ 8:30pm                                                                                150                                
ID FAMCHA030819125947130000000013PS Mad Dash Block Open (:13-:15)                                                                                            150                                
PROFAMCHA030819130000130009000009CC Disclaimer - FAST - Generic (:08-:10)                                                                                    150                                
PGRFAMCHA030819130000132348002311Mentors                                           Dear Diary                                                    C17437 1065607ACC                              
PROFAMCHA030819132320132335000015PS - 21(PH) - DALMATIANS/CHIP/HOZE (:14-:16)                                                                                150                                
ID FAMCHA030819132335132348000013PS Playhouse AM Block Open (:10-:15)                                                                                        150                                
PGRFAMCHA030819132348134800002248Disney's 101 Dalmatians: The Series               Tic Track Toe/Lucky All-Star                                        A6028607E                                
PROFAMCHA030819134636134651000015PS - 22(PH) - CHIP/HOZE/HOM (:14-:16)                                                                                       150                                
PRCFAMCHA030819134651134719000028Chip 'n Dale (FALL 2003) - Coming Up                                                                                        150                                
PRCFAMCHA030819134719134749000030xxHenry's World (FALL 2003) - Tomorrow @ 10:10am *                                                                          150                                
ID FAMCHA030819134749134800000011PS Playhouse AM Block Open (:10-:15)                                                                                        150                                
PGRFAMCHA030819134800141200002242Chip 'n Dale Rescue Rangers                       Piratsy Under The Seas                                              A6068607E                                
PROFAMCHA030819141042141057000015PS - 23(PH) - HOZE/HOM/TIMON (:14-:16)                                                                                      150                                
PROFAMCHA030819141057141127000030House of Mouse (FALL 2003) - Today @ 2:35pm                                                                                 150                                
PRCFAMCHA030819141127141146000019Playhouse - FRANKLIN - Party                                                                                                150                                
ID FAMCHA030819141146141200000014PS Playhouse AM Block Open (:10-:15)                                                                                        150                                
PROFAMCHA030819141200141209000009CC Disclaimer - FAST - Family (:08-:10)                                                                                     150                                
PGRFAMCHA030819141200143600002237Hoze Houndz                                       Rock n' Roll Never Dies/King Of The Mole People               B45777A1065607ECC                              
PROFAMCHA030819143446143501000015PS - 24(PH) - HOM/LION/TEAMO (:14-:16) (DEC)                                                                                150                                
PROFAMCHA030819143501143531000030House of Mouse (FALL 2003) - Coming Up                                                                                      150                                
PRCFAMCHA030819143531143550000019Playhouse - FRANKLIN - Party                                                                                                150                                
ID FAMCHA030819143550143600000010PS Playhouse AM Block Open (:10-:15)                                                                                        150                                
PROFAMCHA030819143600143609000009CC Disclaimer - FAST - Family.ca (:08-:10)                                                                                  150                                
PGRFAMCHA030819143600150000002234Disney's House Of Mouse                           Big Bad Wolf Daddy                                                   6068607ECC                              
PROFAMCHA030819145843145858000015Mad Dash  - 01 - LION/TEAMO/WEEKENDERS (:14-:16) (                                                                          150                                
PROFAMCHA030819145858145928000030Tron (NP) - Friday @ 9pm                                                                                                    150                                
PROFAMCHA030819145928145940000012Mad Dash - RECESS - Sprinkler                                                                                               150                                
ID FAMCHA030819145940145952000012Mad Dash Block Open (:13-:15)                                                                                               150                                
ID FAMCHA030819145952150000000008Magic of Disney - MAD DASH - Shape (:06-:09)                                                                                150                                
PROFAMCHA030819150000150009000009CC Disclaimer - FAST - Generic (:08-:10)                                                                                    150                                
PGRFAMCHA030819150000152500002242Lion King's Timon & Pumbaa; The                   Kenya Be My Friend/Good Mousekeeping                                 6068607ECC                              
