SO FAMCHA050101043000043011000011Sign On (oct 1)                                                                                                                                                
PROFAMCHA050101043011043020000009CC Disclaimer - FAST - Family.ca (:08-:10)                                                                                  150                                
PGRFAMCHA050101043020045313002253Franklin                                          EP: 4-040                                                     B38147A1065607ECC                              
PROFAMCHA050101045313045328000015Nnstp Wknd - 01(PH) - WTP/BENJAMIN/FRANNY (:14-:16                                                                          150                                
ID FAMCHA050101045328045341000013PS Playhouse AM Block Open (:10-:15)                                                                                        150                                
PROFAMCHA050101045341045350000009CC Disclaimer - FAST - Family.ca (:08-:10)                                                                                  150                                
PGRFAMCHA050101045350051743002353Henry's World                                     EP: 1-001                                                     B66543A1065607GCC                              
PROFAMCHA050101051743051758000015Nnstp Wknd - 01(PH) - WTP/BENJAMIN/FRANNY (:14-:16                                                                          150                                
ID FAMCHA050101051758051811000013PS Playhouse AM Block Open (:10-:15)                                                                                        150                                
PROFAMCHA050101051811051820000009CC Disclaimer - FAST - Family.ca (:08-:10)                                                                                  150                                
INTFAMCHA050101051820054055002235The Secret World Of Benjamin Bear                 EPS # 1-009                                                   A75154A10656120CC                              
PROFAMCHA050101054055054110000015Nnstp Wknd - 01(PH) - WTP/BENJAMIN/FRANNY (:14-:16                                                                          150                                
ID FAMCHA050101054110054124000014PS Playhouse AM Block Open (:10-:15)                                                                                        150                                
PROFAMCHA050101054124054133000009CC Disclaimer - FAST - Family.ca (:08-:10)                                                                                  150                                
PGRFAMCHA050101054133060403002230Franny's Feet                                     EPS # 1-010                                                   B84199A1065607ECC                              
PROFAMCHA050101060403060418000015Nnstp Wknd - 01(PH) - WTP/BENJAMIN/FRANNY (:14-:16                                                                          150                                
PRCFAMCHA050101060418060446000028Power Box Block Promo (APR04) - (PB) - Tomorrow @                                                                           150                                
ID FAMCHA050101060446060501000015xxPower Box Block Open (:10-:15)                                                                                            150                                
PGRFAMCHA050101060501062630002129Daigunder                                         EPS # 18                                                             2068607E                                
PROFAMCHA050101062630062646000016Nnstp Wknd - 01(PH) - WTP/BENJAMIN/FRANNY (:14-:16                                                                          150                                
PROFAMCHA050101062646062716000030Celeste in the City (WDP) - Today @ 1:30pm                                                                                  150                                
PROFAMCHA050101062716062746000030Power Rangers Ninja Storm (AUG04) (PB) - Coming Up                                                                          150                                
PROFAMCHA050101062746062822000036Power Rangers Dino Thunder (LONG/0804) - Today @ 6                                                                          150                                
PRCFAMCHA050101062822062852000030Radio Free Roscoe II - V2 (NSW/AM) - Today @ 8:15a                                                                          150                                
PROFAMCHA050101062852062923000031Full Court Miracle (WDP) - Today @ 12pm                                                                                     150                                
PRCFAMCHA050101062923062953000030Phil of the Future (PREM) (NS) (PHIL) (DEC04) - Pr                                                                          150                                
ID FAMCHA050101062953063005000012xxPower Box Block Open (:10-:15)                                                                                            150                                
PGRFAMCHA050101063005065129002124Power Rangers Ninja Storm                         EPS # 1-023                                                         A6068607E                                
PROFAMCHA050101065129065144000015Nnstp Wknd - 01(PH) - WTP/BENJAMIN/FRANNY (:14-:16                                                                          150                                
PROFAMCHA050101065144065214000030Celeste in the City (WDP) - Today @ 1:30pm                                                                                  150                                
PROFAMCHA050101065214065250000036Power Rangers Dino Thunder (LONG/0804) - Coming Up                                                                          150                                
PROFAMCHA050101065250065334000044Son In Law - Premiering Friday @ 9pm                                                                                        150                                
PRCFAMCHA050101065334065352000018Radio Free Roscoe - Webthrow (Waller)                                                                                       150                                
PROFAMCHA050101065352065423000031Full Court Miracle (WDP) - Today @ 12pm                                                                                     150                                
PRCFAMCHA050101065423065453000030Phil of the Future (PREM) (NS) (PHIL) (DEC04) - Pr                                                                          150                                
ID FAMCHA050101065453065505000012xxPower Box Block Open (:10-:15)                                                                                            150                                
PGRFAMCHA050101065505071635002130Power Rangers Dino Thunder                        EPS # 03                                                            A6068607E                                
PROFAMCHA050101071635071649000014Nnstp Wknd - 01(PH) - WTP/BENJAMIN/FRANNY (:14-:16                                                                          150                                
PROFAMCHA050101071649071719000030Celeste in the City (WDP) - Today @ 1:30pm                                                                                  150                                
PRCFAMCHA050101071719071749000030Radio Free Roscoe II - V1 (NSW/AM) - Today @ 8:15a                                                                          150                                
PROFAMCHA050101071749071833000044Son In Law - Premiering Friday @ 9pm                                                                                        150                                
PROFAMCHA050101071833071903000030That's So Raven (GOOD LIFE) - Mon to Thu @ 6:30pm                                                                           150                                
PROFAMCHA050101071903071929000026Smart Guy (MOE'S WORLD) - (NSW/AM) - Coming Up                                                                              150                                
PROFAMCHA050101071929072000000031Full Court Miracle (WDP) - Today @ 12pm                                                                                     150                                
PRCFAMCHA050101072000072014000014Family Bumpers - (Phase 1 Spring 04) - Basketball                                                                           150                                
PRCFAMCHA050101072014072044000030Phil of the Future (PREM) (NS) (PHIL) (DEC04) - Pr                                                                          150                                
PRCFAMCHA050101072044072053000009Bullying - The Pledge 2004 (w/o music)                                                                                      150                                
ID FAMCHA050101072053072109000016Nonstop Weekend Block Open (:14-:17)                                                                                        150                                
PGRFAMCHA050101072109074109002000All That                                          EP: 836                                                             A20686090                                
PROFAMCHA050101074109074139000030Celeste in the City (WDP) - Today @ 1:30pm                                                                                  150                                
PRCFAMCHA050101074139074209000030Phil of the Future (PREM) (NS) (PHIL) (DEC04) - Pr                                                                          150                                
PRCFAMCHA050101074209074239000030Radio Free Roscoe II - V1 (NSW/AM) - Today @ 8:15a                                                                          150                                
PROFAMCHA050101074239074323000044Son In Law - Premiering Friday @ 9pm                                                                                        150                                
PROFAMCHA050101074323074333000010FAMJAM - Open/Close                                                                                                         150                                
INTFAMCHA050101074333074724000351MV Disney - Come Clean (Hillary Duff)                                                                                  60688120                                
PROFAMCHA050101074724074738000014xxFAMJAM - Close (EMAIL) xxDNUxx                                                                                            150                                
PROFAMCHA050101074738074808000030That's So Raven (GOOD LIFE) - Mon to Thu @ 6:30pm                                                                           150                                
PRCFAMCHA050101074808074828000020Radio Free Roscoe - Webthrow (Shady Lane)                                                                                   150                                
PROFAMCHA050101074828074854000026Smart Guy (MOE'S WORLD) - (NSW/AM) - Coming Up                                                                              150                                
ID FAMCHA050101074854074910000016Nonstop Weekend Block Open (:14-:17)                                                                                        150                                
ID FAMCHA050101074910074916000006Magic of Disney - NS/NSW/PB - Shape (:06-:09)                                                                               150                                
PGRFAMCHA050101074916081151002235Lizzie McGuire                                    EP: 1-016                                                           A6068607B                                
PRCFAMCHA050101081151081221000030Phil of the Future (PREM) (NS) (PHIL) (DEC04) - Pr                                                                          150                                
PRCFAMCHA050101081221081251000030Radio Free Roscoe II - V1 (NSW) - Coming Up Next                                                                            150                                
PROFAMCHA050101081251081335000044Son In Law - Premiering Friday @ 9pm                                                                                        150                                
PROFAMCHA050101081335081405000030Double Teamed (SEPT12) - Next Friday @ 7:30pm                                                                               150                                
PROFAMCHA050101081405081435000030Celeste in the City (WDP) - Today @ 1:30pm                                                                                  150                                
PROFAMCHA050101081435081506000031Full Court Miracle (WDP) - Today @ 12pm                                                                                     150                                
PRCFAMCHA050101081506081525000019Nonstop Weekend - EVEN STEVENS - Locker                                                                                     150                                
PROFAMCHA050101081525081555000030That's So Raven (GOOD LIFE) - Mon to Thu @ 6:30pm                                                                           150                                
PRCFAMCHA050101081555081604000009Family Bumpers - (Phase 1 Spring 04) - DJ Spinning                                                                          150                                
ID FAMCHA050101081604081620000016Nonstop Weekend Block Open (:14-:17)                                                                                        150                                
PROFAMCHA050101081620081629000009CC Disclaimer - FAST - Family.ca (:08-:10)                                                                                  150                                
PGRFAMCHA050101081629083859002230Radio Free Roscoe                                 EPS # 37                                                      A05970A1065607ACC                              
PROFAMCHA050101083859083929000030Celeste in the City (WDP) - Today @ 1:30pm                                                                                  150                                
PROFAMCHA050101083929084013000044Son In Law - Premiering Friday @ 9pm                                                                                        150                                
PROFAMCHA050101084013084043000030That's So Raven (GOOD LIFE) - Mon to Thu @ 6:30pm                                                                           150                                
PROFAMCHA050101084043084054000011Nonstop Weekend - LIZZIE MCGUIRE - Junk Food                                                                                150                                
PROFAMCHA050101084054084124000030Double Teamed (SEPT12) - Next Friday @ 7:30pm                                                                               150                                
PROFAMCHA050101084124084155000031Full Court Miracle (WDP) - Today @ 12pm                                                                                     150                                
PROFAMCHA050101084155084221000026Smart Guy (MOE'S WORLD) - (NSW/AM) - Coming Up                                                                              150                                
PROFAMCHA050101084221084239000018xxLizzie McGuire - GROWN UP (MD) - Coming Up                                                                                150                                
PROFAMCHA050101084239084324000045Hoze Houndz (GROCERIES - FALL 2003) - Weekdays @ 6                                                                          150                                
PRCFAMCHA050101084324084354000030Phil of the Future (PREM) (NS) (PHIL) (DEC04) - Pr                                                                          150                                
ID FAMCHA050101084354084408000014Nonstop Weekend Block Open (:14-:17)                                                                                        150                                
PGRFAMCHA050101084408090613002205The Amanda Show                                   EP: 2-031                                                           A20686090                                
PROFAMCHA050101090613090627000014Nnstp Wknd - 01(PH) - WTP/BENJAMIN/FRANNY (:14-:16                                                                          150                                
PROFAMCHA050101090627090657000030Celeste in the City (WDP) - Today @ 1:30pm                                                                                  150                                
PROFAMCHA050101090657090727000030That's So Raven (GOOD LIFE) - Mon to Thu @ 6:30pm                                                                           150                                
PRCFAMCHA050101090727090812000045Famous Players Popcorn Parties                                                                                              150                                
PROFAMCHA050101090812090844000032Even Stevens (SIBLINGS) - (NS) - Coming Up                                                                                  150                                
PROFAMCHA050101090844090854000010FAMJAM - Open/Close                                                                                                         150                                
INTFAMCHA050101090854091231000337MV Disney - Superstition (Raven)                                                                                       60688120                                
PROFAMCHA050101091231091245000014xxFAMJAM - Close (EMAIL) xxDNUxx                                                                                            150                                
PROFAMCHA050101091245091311000026Smart Guy (MOE'S WORLD) - (NSW/AM) - Coming Up                                                                              150                                
PRCFAMCHA050101091311091323000012Family Bumpers - (Phase 1 Spring 04) - Pillow Figh                                                                          150                                
PRCFAMCHA050101091323091353000030Phil of the Future (PREM) (NS) (PHIL) (DEC04) - Pr                                                                          150                                
ID FAMCHA050101091353091407000014Nonstop Weekend Block Open (:14-:17)                                                                                        150                                
PROFAMCHA050101091407091417000010CC Disclaimer - FAST - Family.ca (:08-:10)                                                                                  150                                
PGRFAMCHA050101091417093657002240That's So Raven                                   EP: 1-001                                                           A6068807BCC                              
PROFAMCHA050101093657093713000016Nnstp Wknd - 01(PH) - WTP/BENJAMIN/FRANNY (:14-:16                                                                          150                                
PROFAMCHA050101093713093743000030Celeste in the City (WDP) - Today @ 1:30pm                                                                                  150                                
PRCFAMCHA050101093743093813000030Phil of the Future (PREM) (NS) (PIM) (DEC04) - Pre                                                                          150                                
PROFAMCHA050101093813093845000032Even Stevens (SIBLINGS) - (NS) - Coming Up                                                                                  150                                
PROFAMCHA050101093845093915000030Double Teamed (SEPT12) - Next Friday @ 7:30pm                                                                               150                                
PROFAMCHA050101093915093925000010FAMJAM - Open/Close                                                                                                         150                                
INTFAMCHA050101093925094155000230MV Disney - Girl Power (Cheetah Girls)                                                                                 60688120                                
PROFAMCHA050101094155094209000014xxFAMJAM - Close (EMAIL) xxDNUxx                                                                                            150                                
PROFAMCHA050101094209094235000026Smart Guy (MOE'S WORLD) - (NSW/AM) - Coming Up                                                                              150                                
PROFAMCHA050101094235094251000016xxLizzie McGuire - GROWN UP (MD) - Coming Up                                                                                150                                
ID FAMCHA050101094251094307000016Nonstop Weekend Block Open (:14-:17)                                                                                        150                                
PGRFAMCHA050101094307100546002239That's So Raven                                   EPS # 1-052                                                          6068807B                                
PROFAMCHA050101100546100616000030Celeste in the City (WDP) - Today @ 1:30pm                                                                                  150                                
PRCFAMCHA050101100616100646000030Phil of the Future (PREM) (NS) (PHIL) (DEC04) - Pr                                                                          150                                
PROFAMCHA050101100646100718000032Even Stevens (SIBLINGS) - (NS) - Coming Up                                                                                  150                                
PRCFAMCHA050101100718100802000044xxNonstop Weekend - AMANDA SHOW - Remote                                                                                    150                                
PROFAMCHA050101100802100833000031Full Court Miracle (WDP) - Today @ 12pm                                                                                     150                                
PRCFAMCHA050101100833100842000009Bullying - The Pledge 2004 (w/o music)                                                                                      150                                
PROFAMCHA050101100842100908000026Smart Guy (MOE'S WORLD) - (NSW/AM) - Coming Up                                                                              150                                
PRCFAMCHA050101100908101008000100Bullying - The Pledge 2004 (w/o music)                                                                                      150                                
PROFAMCHA050101101008101026000018xxLizzie McGuire - GROWN UP (MD) - Coming Up                                                                                150                                
PRCFAMCHA050101101026101056000030Radio Free Roscoe II - V1 (NSW/PM) - Tonight @ 7pm                                                                          150                                
ID FAMCHA050101101056101111000015Nonstop Weekend Block Open (:14-:17)                                                                                        150                                
ID FAMCHA050101101111101117000006Magic of Disney - NS/NSW/PB - Wipe (:06-:09)                                                                                150                                
PROFAMCHA050101101117101125000008CC Disclaimer - FAST - Family.ca (:08-:10)                                                                                  150                                
PGRFAMCHA050101101125103407002242Even Stevens                                      EP: 1-020                                                           A6068807BCC                              
PROFAMCHA050101103407103437000030Celeste in the City (WDP) - Today @ 1:30pm                                                                                  150                                
PROFAMCHA050101103437103507000030Double Teamed (SEPT12) - Next Friday @ 7:30pm                                                                               150                                
PRCFAMCHA050101103507103607000100Lemony Snickets Contest - Now (Dec 17 - Jan 3)                                                                              150                                
PROFAMCHA050101103607103633000026Smart Guy (MOE'S WORLD) - (NSW/AM) - Coming Up                                                                              150                                
PROFAMCHA050101103633103704000031xxLizzie McGuire - GROWN UP (MD) - Coming Up                                                                                150                                
PROFAMCHA050101103704103735000031Full Court Miracle (WDP) - Today @ 12pm                                                                                     150                                
PROFAMCHA050101103735103805000030That's So Raven (GOOD LIFE) - Mon to Thu @ 6:30pm                                                                           150                                
PRCFAMCHA050101103805103824000019Radio Free Roscoe - Webthrow (Pronto)                                                                                       150                                
PRCFAMCHA050101103824103854000030Phil of the Future (PREM) (NS) (PHIL) (DEC04) - Pr                                                                          150                                
ID FAMCHA050101103854103909000015Nonstop Weekend Block Open (:14-:17)                                                                                        150                                
PROFAMCHA050101103909103918000009CC Disclaimer - FAST - Family.ca (:08-:10)                                                                                  150                                
PGRFAMCHA050101103918110136002218Boy Meets World                                   EP: 1-014                                                           B6068807BCC                              
PROFAMCHA050101110136110206000030Celeste in the City (WDP) - Today @ 1:30pm                                                                                  150                                
PROFAMCHA050101110206110232000026Smart Guy (MOE'S WORLD) - (NSW/AM) - Coming Up                                                                              150                                
PROFAMCHA050101110232110303000031Full Court Miracle (WDP) - Today @ 12pm                                                                                     150                                
PROFAMCHA050101110303110333000030That's So Raven (GOOD LIFE) - Mon to Thu @ 6:30pm                                                                           150                                
PRCFAMCHA050101110333110423000050Bullying Pledge Bumper - NOV 17 to DEC 31                                                                                   150                                
PROFAMCHA050101110423110453000030Mentors (AUG04) (NSW) - Tonight @ 6:30pm                                                                                    150                                
PRCFAMCHA050101110453110523000030Radio Free Roscoe II - V2 (NSW/PM) - Tonight @ 7pm                                                                          150                                
PRCFAMCHA050101110523110553000030Phil of the Future (PREM) (NS) (PHIL) (DEC04) - Pr                                                                          150                                
ID FAMCHA050101110553110608000015Nonstop Weekend Block Open (:14-:17)                                                                                        150                                
PGRFAMCHA050101110608115611005003Rudolph's Shiny New Year                                                                                              A2068807E                                
PROFAMCHA050101115611115625000014Nonstop Weekend - 17(SEP) - WDP MOVIE (:14-:16)                                                                             150                                
PROFAMCHA050101115625115656000031Full Court Miracle (WDP) - Coming Up Next                                                                                   150                                
PROFAMCHA050101115656115726000030Celeste in the City (WDP) - Today @ 1:30pm                                                                                  150                                
PRCFAMCHA050101115726115758000032Keshia Chante Blast! (Dec 27 - Jan 9)                                                                                       150                                
PROFAMCHA050101115758115824000026Smart Guy (MOE'S WORLD) - (NSW/AM) - Coming Up                                                                              150                                
PROFAMCHA050101115824115855000031xxLizzie McGuire - GROWN UP (MD) - Coming Up                                                                                150                                
PRCFAMCHA050101115855115919000024Nonstop Weekend - EVEN STEVENS - Banned                                                                                     150                                
PROFAMCHA050101115919115949000030That's So Raven (GOOD LIFE) - Mon to Thu @ 6:30pm                                                                           150                                
ID FAMCHA050101115949120002000013Weekend Double Pix Movie Open (:13-:17)                                                                                     150                                
ID FAMCHA050101120002120011000009Rating - G - Ian (:08-:10)                                                                                                  150                                
ID FAMCHA050101120011120018000007Magic of Disney - PIX - Shape (:06-:09)                                                                                     150                                
PGRFAMCHA050101120018133458013440Full-Court Miracle                                                                                                    A6068807C                                
PROFAMCHA050101133458133512000014Nonstop Weekend - 17(SEP) - WDP MOVIE (:14-:16)                                                                             150                                
PROFAMCHA050101133512133542000030Celeste in the City - Coming Up Next                                                                                        150                                
ID FAMCHA050101133542133555000013Weekend Double Pix Movie Open (:13-:17)                                                                                     150                                
ID FAMCHA050101133555133603000008Rating - PG - Ian (:08-:10)                                                                                                 150                                
ID FAMCHA050101133603133609000006Magic of Disney - PIX - Wipe (:06-:09)                                                                                      150                                
PGRFAMCHA050101133609150605012956Celeste In The City                                                                                                   A6068807C                                
PROFAMCHA050101150605150619000014Nnstp Wknd - 01(PH) - WTP/BENJAMIN/FRANNY (:14-:16                                                                          150                                
ID FAMCHA050101150619150633000014Nonstop Weekend Block Open (:14-:17)                                                                                        150                                
PROFAMCHA050101150633150641000008CC Disclaimer - FAST - Family.ca (:08-:10)                                                                                  150                                
PGRFAMCHA050101150641152909002228Smart Guy                                         EP: 1-011                                                           A6068807BCC                              
PROFAMCHA050101152909152923000014Nnstp Wknd - 01(PH) - WTP/BENJAMIN/FRANNY (:14-:16                                                                          150                                
PRCFAMCHA050101152923152955000032Keshia Chante Blast! (Dec 27 - Jan 9)                                                                                       150                                
ID FAMCHA050101152955153009000014Nonstop Weekend Block Open (:14-:17)                                                                                        150                                
ID FAMCHA050101153009153015000006Magic of Disney - NS/NSW/PB - Shape (:06-:09)                                                                               150                                
PGRFAMCHA050101153015155249002234Lizzie McGuire                                    EP: 2-029                                                           A6068607B                                
PROFAMCHA050101155249155303000014Nnstp Wknd - 01(PH) - WTP/BENJAMIN/FRANNY (:14-:16                                                                          150                                
ID FAMCHA050101155303155317000014Nonstop Weekend Block Open (:14-:17)                                                                                        150                                
PROFAMCHA050101155317155325000008CC Disclaimer - FAST - Family.ca (:08-:10)                                                                                  150                                
PGRFAMCHA050101155325161606002241That's So Raven                                   EP: 1-017                                                           A6068807BCC                              
PROFAMCHA050101161606161620000014Nnstp Wknd - 01(PH) - WTP/BENJAMIN/FRANNY (:14-:16                                                                          150                                
PRCFAMCHA050101161620161650000030Phil of the Future (PREM) (NS) (PHIL) (DEC04) - Pr                                                                          150                                
PROFAMCHA050101161650161718000028Lilo & Stitch (NSW) (JAN05) - Coming Up Next                                                                                150                                
PRCFAMCHA050101161718161742000024Nonstop Weekend - KIM POSSIBLE - Gadgets                                                                                    150                                
PRCFAMCHA050101161742161814000032Bullying - The Pledge 2004 (w/o music)                                                                                      150                                
PROFAMCHA050101161814161848000034Fillmore (STYLISH) - (NSW) - Weekends @ 4:15pm                                                                              150                                
PROFAMCHA050101161848161916000028Kim Possible (NOV2003) - (MD) - Coming Up                                                                                   150                                
PRCFAMCHA050101161916161946000030Mad Dash - AM (OLDER) - Weekdays @ 6:55am                                                                                   150                                
ID FAMCHA050101161946162000000014Nonstop Weekend Block Open (:14-:17)                                                                                        150                                
PGRFAMCHA050101162000164239002239Disney's Lilo & Stitch                            EPS # 05                                                            A6068607E                                
PROFAMCHA050101164239164255000016Nnstp Wknd - 01(PH) - WTP/BENJAMIN/FRANNY (:14-:16                                                                          150                                
PROFAMCHA050101164255164316000021Proud Family (BOND) - (MD) - Coming Up                                                                                      150                                
PRCFAMCHA050101164316164416000100Lemony Snickets Contest - Now (Dec 17 - Jan 3)                                                                              150                                
PRCFAMCHA050101164416164446000030Phil of the Future (PREM) (NS) (PIM) (DEC04) - Pre                                                                          150                                
ID FAMCHA050101164446164500000014Nonstop Weekend Block Open (:14-:17)                                                                                        150                                
PGRFAMCHA050101164500170731002231The Proud Family                                  EPS # 2-027                                                         A6068807E                                
PROFAMCHA050101170731170747000016Nnstp Wknd - 01(PH) - WTP/BENJAMIN/FRANNY (:14-:16                                                                          150                                
PROFAMCHA050101170747170821000034Fillmore (STYLISH) - (NSW) - Weekends @ 4:15pm                                                                              150                                
PRCFAMCHA050101170821170906000045Famous Players Popcorn Parties                                                                                              150                                
PROFAMCHA050101170906170934000028Kim Possible (NOV2003) - (MD) - Coming Up                                                                                   150                                
PRCFAMCHA050101170934171004000030Mad Dash - AM (OLDER) - Weekdays @ 6:55am                                                                                   150                                
PROFAMCHA050101171004171032000028Lilo & Stitch (MD/AM) (JAN05) - Weekdays @ 7:50am                                                                           150                                
PROFAMCHA050101171032171043000011Nonstop Weekend - LIZZIE MCGUIRE - Junk Food                                                                                150                                
PROFAMCHA050101171043171113000030Mentors (AUG04) (NSW) - Tonight @ 6:30pm                                                                                    150                                
PRCFAMCHA050101171113171143000030Phil of the Future (PREM) (NS) (PHIL) (DEC04) - Pr                                                                          150                                
ID FAMCHA050101171143171200000017Nonstop Weekend Block Open (:14-:17)                                                                                        150                                
PGRFAMCHA050101171200173438002238Disney's Fillmore!                                EP: 1-002                                                           A6068607E                                
PROFAMCHA050101173438173453000015Nnstp Wknd - 01(PH) - WTP/BENJAMIN/FRANNY (:14-:16                                                                          150                                
PRCFAMCHA050101173453173523000030Phil of the Future (PREM) (NS) (PHIL) (DEC04) - Pr                                                                          150                                
PROFAMCHA050101173523173551000028Kim Possible (NOV2003) - (MD) - Coming Up                                                                                   150                                
PROFAMCHA050101173551173621000030Brotherly Love (NSW) - Tomorrow @ 11:30am                                                                                   150                                
PRCFAMCHA050101173621173656000035Bullying Pledge Bumper - NOV 17 to DEC 31                                                                                   150                                
PROFAMCHA050101173656173726000030Mentors (AUG04) (NSW) - Tonight @ 6:30pm                                                                                    150                                
PRCFAMCHA050101173726173746000020Radio Free Roscoe - Webthrow (Shady Lane)                                                                                   150                                
PROFAMCHA050101173746173816000030That's So Raven (GOOD LIFE) - Mon to Thu @ 6:30pm                                                                           150                                
PRCFAMCHA050101173816173846000030Mad Dash - AM (OLDER) - Weekdays @ 6:55am                                                                                   150                                
ID FAMCHA050101173846173900000014Nonstop Weekend Block Open (:14-:17)                                                                                        150                                
PGRFAMCHA050101173900180150002250Disney's Kim Possible                             EP: 1-003                                                           A6068607E                                
PROFAMCHA050101180150180206000016Nnstp Wknd - 01(PH) - WTP/BENJAMIN/FRANNY (:14-:16                                                                          150                                
PROFAMCHA050101180206180236000030Brotherly Love (NSW) - Tomorrow @ 11:30am                                                                                   150                                
PROFAMCHA050101180236180304000028Lilo & Stitch (MD/AM) (JAN05) - Weekdays @ 7:50am                                                                           150                                
PROFAMCHA050101180304180334000030Mentors (AUG04) (NSW) - Tonight @ 6:30pm                                                                                    150                                
INTFAMCHA050101180334180445000111Gagsters                                          EP: 46                                                              A20686120                                
PRCFAMCHA050101180445180515000030Radio Free Roscoe II - V2 (NSW/PM) - Tonight @ 7pm                                                                          150                                
PRCFAMCHA050101180515180545000030Phil of the Future (PREM) (NS) (PHIL) (DEC04) - Pr                                                                          150                                
ID FAMCHA050101180545180600000015Nonstop Weekend Block Open (:14-:17)                                                                                        150                                
PGRFAMCHA050101180600182839002239Disney's Dave the Barbarian                       EPS # 18                                                             6068607E                                
PRCFAMCHA050101182839182909000030Phil of the Future (PREM) (NS) (PHIL) (DEC04) - Pr                                                                          150                                
PROFAMCHA050101182909182939000030Mentors (AUG04) (NSW) - Coming Up Next                                                                                      150                                
PRCFAMCHA050101182939183009000030Radio Free Roscoe II - V1 (NSW/PM) - Tonight @ 7pm                                                                          150                                
PRCFAMCHA050101183009183109000100Bullying - The Pledge 2004 (w/o music)                                                                                      150                                
PROFAMCHA050101183109183139000030That's So Raven (GOOD LIFE) - Mon to Thu @ 6:30pm                                                                           150                                
PRCFAMCHA050101183139183148000009Bullying - The Pledge 2004 (w/o music)                                                                                      150                                
PRCFAMCHA050101183148183204000016Radio Free Roscoe - Webthrow (Smog)                                                                                         150                                
PROFAMCHA050101183204183234000030Double Teamed (SEPT12) - Next Friday @ 7:30pm                                                                               150                                
PRCFAMCHA050101183234183248000014Family Bumpers - (Phase 1 Spring 04) - Basketball                                                                           150                                
ID FAMCHA050101183248183305000017Nonstop Weekend Block Open (:14-:17)                                                                                        150                                
PROFAMCHA050101183305183313000008CC Disclaimer - FAST - Family.ca (:08-:10)                                                                                  150                                
PGRFAMCHA050101183313185624002311Mentors                                           EP: 4-048                                                     C20779A1055607ACC3                             
PRCFAMCHA050101185624185654000030Radio Free Roscoe II - V1 (NSW) - Coming Up Next                                                                            150                                
PRCFAMCHA050101185654185726000032Keshia Chante Blast! (Dec 27 - Jan 9)                                                                                       150                                
PROFAMCHA050101185726185756000030That's So Raven (GOOD LIFE) - Mon to Thu @ 6:30pm                                                                           150                                
PRCFAMCHA050101185756185831000035xxNonstop Weekend - AMANDA SHOW - Basketballs                                                                               150                                
PRCFAMCHA050101185831185903000032Bullying - The Pledge 2004 (w/o music)                                                                                      150                                
PRCFAMCHA050101185903185919000016Radio Free Roscoe - Webthrow (Smog)                                                                                         150                                
PRCFAMCHA050101185919185949000030Phil of the Future (PREM) (NS) (PHIL) (DEC04) - Pr                                                                          150                                
ID FAMCHA050101185949190004000015Nonstop Weekend Block Open (:14-:17)                                                                                        150                                
PROFAMCHA050101190004190012000008CC Disclaimer - FAST - Family.ca (:08-:10)                                                                                  150                                
PGRFAMCHA050101190012192242002230Radio Free Roscoe                                 EPS # 009                                                     B88725A1065607ACC                              
PRCFAMCHA050101192243192313000030Radio Free Roscoe II - V1 (NSW/AM) - Tomorrow @ 8:                                                                          150                                
PROFAMCHA050101192313192343000030That's So Raven (GOOD LIFE) - Mon to Thu @ 6:30pm                                                                           150                                
PRCFAMCHA050101192343192402000019Nonstop Weekend - EVEN STEVENS - Locker                                                                                     150                                
PROFAMCHA050101192402192420000018xxLizzie McGuire - GROWN UP (MD) - Coming Up                                                                                150                                
PRCFAMCHA050101192420192450000030Phil of the Future (PREM) (NS) (PHIL) (DEC04) - Pr                                                                          150                                
ID FAMCHA050101192450192504000014Nonstop Weekend Block Open (:14-:17)                                                                                        150                                
ID FAMCHA050101192503192511000008Rating - PG - Ian (:08-:10)                                                                                                 150                                
PROFAMCHA050101192512192520000008CC Disclaimer - FAST - Family.ca (:08-:10)                                                                                  150                                
PGRFAMCHA050101192520205223012703Beautiful Girl                                                                                                        A6068807CCC                              
PROFAMCHA050101205223205239000016Nightly Pix Line-up (SEPT) - GENERIC (:14-:16)                                                                              150                                
PRCFAMCHA050101205239205309000030Radio Free Roscoe II - V1 (NSW/AM) - Tomorrow @ 8:                                                                          150                                
PROFAMCHA050101205309205339000030That's So Raven (GOOD LIFE) - Mon to Thu @ 6:30pm                                                                           150                                
PROFAMCHA050101205339205411000032Even Stevens (SIBLINGS) - (NS) - Coming Up                                                                                  150                                
PROFAMCHA050101205410205420000010FAMJAM - Open/Close                                                                                                         150                                
MVCFAMCHA050101205420205801000341MV - Welcome To My Life (Simple Plan)                                                                                 A20688120                                
PROFAMCHA050101205801205815000014xxFAMJAM - Close (FAMILY) xxDNUxx                                                                                           150                                
PROFAMCHA050101205815205845000030Double Teamed (SEPT12) - Next Friday @ 7:30pm                                                                               150                                
PRCFAMCHA050101205845205915000030xxNonstop Weekend Block Promo (NSW) - On Family                                                                             150                                
PRCFAMCHA050101205915205945000030Phil of the Future (PREM) (NS) (PHIL) (DEC04) - Pr                                                                          150                                
ID FAMCHA050101205945210000000015xxNightly Pix Movie Open (:10-:15)                                                                                          150                                
ID FAMCHA050101210000210009000009Rating - PG - Ian (:08-:10)                                                                                                 150                                
PROFAMCHA050101210009210018000009CC Disclaimer - SLOW - Family.ca (:08-:10)                                                                                  150                                
PGRFAMCHA050101210018223147013129The Naked Gun: From The Files Of Police Squad!                                                                        B2068807DCC                              
PROFAMCHA050101223147223203000016Nightly Pix Line-up (SEPT) - GENERIC (:14-:16)                                                                              150                                
ID FAMCHA050101223203223218000015xxNightly Pix Movie Open (:10-:15)                                                                                          150                                
ID FAMCHA050101223218223227000009Rating - PG - Ian (:08-:10)                                                                                                 150                                
PGRFAMCHA050101223227000227013000The Naked Gun 2 1/2: The Smell Of Fear                                                                                B2068807D                                
PROFAMCHA050101000227000243000016Nnstp Wknd - 01(PH) - WTP/BENJAMIN/FRANNY (:14-:16                                                                          150                                
PRCFAMCHA050101000243000259000016Radio Free Roscoe - Webthrow (Smog)                                                                                         150                                
ID FAMCHA050101000259000314000015Nonstop Weekend Block Open (:14-:17)                                                                                        150                                
PROFAMCHA050101000314000324000010CC Disclaimer - SLOW - Family.ca (:08-:10)                                                                                  150                                
PGRFAMCHA050101000324002554002230Radio Free Roscoe                                 EPS # 010                                                     B88726A1065607ACC                              
PROFAMCHA050101002554002610000016Nnstp Wknd - 01(PH) - WTP/BENJAMIN/FRANNY (:14-:16                                                                          150                                
PROFAMCHA050101002610002640000030That's So Raven (GOOD LIFE) - Mon to Thu @ 6:30pm                                                                           150                                
PROFAMCHA050101002640002712000032Even Stevens (SIBLINGS) - (NS) - Coming Up                                                                                  150                                
PROFAMCHA050101002712002742000030Double Teamed (SEPT12) - Next Friday @ 7:30pm                                                                               150                                
INTFAMCHA050101002742002845000103Gagsters - Box Of Chocolates                      EP: 46                                                              A20686120                                
PROFAMCHA050101002845002915000030Mentors (AUG04) (NSW) - Tomorrow @ 6:30pm                                                                                   150                                
PRCFAMCHA050101002915002945000030Phil of the Future (PREM) (NS) (PHIL) (DEC04) - Pr                                                                          150                                
ID FAMCHA050101002945003002000017Nonstop Weekend Block Open (:14-:17)                                                                                        150                                
PGRFAMCHA050101003002005437002435Are You Afraid Of The Dark?                       EP: 1-046                                                     SR0305 1066807A                                
PRCFAMCHA050101005437005507000030Radio Free Roscoe II - V1 (NSW/AM) - Tomorrow @ 8:                                                                          150                                
PROFAMCHA050101005507005537000030That's So Raven (GOOD LIFE) - Mon to Thu @ 6:30pm                                                                           150                                
PROFAMCHA050101005537005547000010FAMJAM - Open/Close                                                                                                         150                                
INTFAMCHA050101005547005910000323MV Disney - Come Clean (Hillary Duff)                                                                                  60688120                                
PROFAMCHA050101005910005924000014xxFAMJAM - Close (EMAIL) xxDNUxx                                                                                            150                                
PROFAMCHA050101005924005950000026Smart Guy (MOE'S WORLD) - (NSW/AM) - Coming Up                                                                              150                                
INTFAMCHA050101005950010102000112Gagsters                                          EP: 46                                                              A20686120                                
PRCFAMCHA050101010102010132000030Phil of the Future (PREM) (NS) (PHIL) (DEC04) - Pr                                                                          150                                
PRCFAMCHA050101010132010202000030Astral - Clock                                                                                                              150                                
SO FAMCHA050101010202010214000012Sign Off                                                                                                                                                       
OFFFAMCHA050101010214043000032746OFF AIR                                                                                                                                                        
SO FAMCHA050102043000043011000011Sign On (oct 1)                                                                                                                                                
PROFAMCHA050102043011043020000009CC Disclaimer - FAST - Family.ca (:08-:10)                                                                                  150                                
PGRFAMCHA050102043020045313002253Franklin                                          EP: 4-041                                                     B38148A1065607ECC                              
PROFAMCHA050102045313045328000015Nnstp Wknd - 01(PH) - WTP/BENJAMIN/FRANNY (:14-:16                                                                          150                                
ID FAMCHA050102045328045341000013PS Playhouse AM Block Open (:10-:15)                                                                                        150                                
PROFAMCHA050102045341045350000009CC Disclaimer - FAST - Family.ca (:08-:10)                                                                                  150                                
PGRFAMCHA050102045350051740002350Henry's World                                     EP: 1-002                                                     B66544A1065607GCC                              
PROFAMCHA050102051740051755000015Nnstp Wknd - 01(PH) - WTP/BENJAMIN/FRANNY (:14-:16                                                                          150                                
ID FAMCHA050102051755051808000013PS Playhouse AM Block Open (:10-:15)                                                                                        150                                
PROFAMCHA050102051808051817000009CC Disclaimer - FAST - Family.ca (:08-:10)                                                                                  150                                
INTFAMCHA050102051817054048002231The Secret World Of Benjamin Bear                 EPS # 1-010                                                   A75155A10656120CC                              
PROFAMCHA050102054048054103000015Nnstp Wknd - 01(PH) - WTP/BENJAMIN/FRANNY (:14-:16                                                                          150                                
ID FAMCHA050102054103054116000013PS Playhouse AM Block Open (:10-:15)                                                                                        150                                
PROFAMCHA050102054116054125000009CC Disclaimer - FAST - Family.ca (:08-:10)                                                                                  150                                
PGRFAMCHA050102054125060355002230Franny's Feet                                     EPS # 1-011                                                   B84200A1065607ECC                              
PROFAMCHA050102060355060409000014Nnstp Wknd - 01(PH) - WTP/BENJAMIN/FRANNY (:14-:16                                                                          150                                
PRCFAMCHA050102060409060439000030Phil of the Future (PREM) (NS) (PHIL) (DEC04) - Pr                                                                          150                                
PRCFAMCHA050102060439060448000009Radio Free Roscoe ID (MAR) - You're Watching Famil                                                                          150                                
ID FAMCHA050102060448060500000012xxPower Box Block Open (:10-:15)                                                                                            150                                
PGRFAMCHA050102060500062629002129Daigunder                                         EPS # 19                                                             2068607E                                
PROFAMCHA050102062629062645000016Nnstp Wknd - 01(PH) - WTP/BENJAMIN/FRANNY (:14-:16                                                                          150                                
PROFAMCHA050102062645062715000030Power Rangers Ninja Storm (AUG04) (PB) - Coming Up                                                                          150                                
PROFAMCHA050102062715062751000036Power Rangers Dino Thunder (LONG/0804) - Today @ 6                                                                          150                                
PRCFAMCHA050102062751062821000030Radio Free Roscoe II - V1 (NSW/AM) - Today @ 8:15a                                                                          150                                
INTFAMCHA050102062821062906000045Gagsters - Hairy                                  EP: 46                                                              A20686120                                
PRCFAMCHA050102062906062936000030Phil of the Future (PREM) (NS) (PHIL) (DEC04) - Pr                                                                          150                                
PRCFAMCHA050102062936062945000009Family Bumpers - (Phase 1 Spring 04) - DJ Spinning                                                                          150                                
ID FAMCHA050102062945063000000015xxPower Box Block Open (:10-:15)                                                                                            150                                
PGRFAMCHA050102063000065124002124Power Rangers Ninja Storm                         EPS # 1-024                                                         A6068607E                                
PROFAMCHA050102065124065139000015Nnstp Wknd - 01(PH) - WTP/BENJAMIN/FRANNY (:14-:16                                                                          150                                
PROFAMCHA050102065139065215000036Power Rangers Dino Thunder (LONG/0804) - Coming Up                                                                          150                                
PRCFAMCHA050102065215065243000028Power Box Block Promo (APR04) - (PB) - Tomorrow @                                                                           150                                
PRCFAMCHA050102065243065313000030Radio Free Roscoe II - V1 (NSW/AM) - Today @ 8:15a                                                                          150                                
PROFAMCHA050102065313065343000030That's So Raven (GOOD LIFE) - Mon to Thu @ 6:30pm                                                                           150                                
PROFAMCHA050102065343065415000032Even Stevens (SIBLINGS) - (NS) - Coming Up                                                                                  150                                
PRCFAMCHA050102065415065445000030Phil of the Future (PREM) (NS) (PHIL) (DEC04) - Pr                                                                          150                                
ID FAMCHA050102065445065500000015xxPower Box Block Open (:10-:15)                                                                                            150                                
PGRFAMCHA050102065500071629002129Power Rangers Dino Thunder                        EPS # 04                                                            A6068607E                                
PROFAMCHA050102071629071644000015Nnstp Wknd - 01(PH) - WTP/BENJAMIN/FRANNY (:14-:16                                                                          150                                
PRCFAMCHA050102071644071714000030Phil of the Future (PREM) (NS) (PHIL) (DEC04) - Pr                                                                          150                                
PRCFAMCHA050102071714071744000030Radio Free Roscoe II - V1 (NSW/AM) - Today @ 8:15a                                                                          150                                
PROFAMCHA050102071744071814000030That's So Raven (GOOD LIFE) - Mon to Thu @ 6:30pm                                                                           150                                
PRCFAMCHA050102071814071904000050Bullying Pledge Bumper - NOV 17 to DEC 31                                                                                   150                                
PROFAMCHA050102071904071936000032Even Stevens (SIBLINGS) - (NS) - Coming Up                                                                                  150                                
PROFAMCHA050102071936072006000030Double Teamed (SEPT12) - Next Friday @ 7:30pm                                                                               150                                
PROFAMCHA050102072006072045000039Brotherly Love (NSW) - Tomorrow @ 11:30am                                                                                   150                                
ID FAMCHA050102072045072100000015Nonstop Weekend Block Open (:14-:17)                                                                                        150                                
PGRFAMCHA050102072100074100002000All That                                          EP: 837                                                             A20686090                                
PROFAMCHA050102074100074131000031xxLizzie McGuire - GROWN UP (MD) - Coming Up                                                                                150                                
PRCFAMCHA050102074131074201000030Radio Free Roscoe II - V1 (NSW/AM) - Today @ 8:15a                                                                          150                                
PROFAMCHA050102074201074245000044Son In Law - Premiering Friday @ 9pm                                                                                        150                                
PROFAMCHA050102074245074255000010FAMJAM - Open/Close                                                                                                         150                                
INTFAMCHA050102074255074646000351MV Disney - Come Clean (Hillary Duff)                                                                                  60688120                                
PROFAMCHA050102074646074700000014xxFAMJAM - Close (EMAIL) xxDNUxx                                                                                            150                                
PROFAMCHA050102074700074730000030That's So Raven (GOOD LIFE) - Mon to Thu @ 6:30pm                                                                           150                                
PRCFAMCHA050102074730074739000009Bullying - The Pledge 2004 (w/o music)                                                                                      150                                
PRCFAMCHA050102074739074758000019Nonstop Weekend - LIZZIE MCGUIRE - Lenny                                                                                    150                                
PRCFAMCHA050102074758074817000019Radio Free Roscoe - Webthrow (Pronto)                                                                                       150                                
PRCFAMCHA050102074817074847000030Phil of the Future (PREM) (NS) (PIM) (DEC04) - Pre                                                                          150                                
ID FAMCHA050102074847074901000014Nonstop Weekend Block Open (:14-:17)                                                                                        150                                
ID FAMCHA050102074901074908000007Magic of Disney - NS/NSW/PB - Shape (:06-:09)                                                                               150                                
PGRFAMCHA050102074908081143002235Lizzie McGuire                                    EP: 1-017                                                           A6068607B                                
PRCFAMCHA050102081143081213000030Radio Free Roscoe II - V1 (NSW) - Coming Up Next                                                                            150                                
PROFAMCHA050102081213081243000030That's So Raven (GOOD LIFE) - Mon to Thu @ 6:30pm                                                                           150                                
PROFAMCHA050102081243081327000044Son In Law - Premiering Friday @ 9pm                                                                                        150                                
PROFAMCHA050102081327081359000032Even Stevens (SIBLINGS) - (NS) - Coming Up                                                                                  150                                
PROFAMCHA050102081359081429000030Double Teamed (SEPT12) - Next Friday @ 7:30pm                                                                               150                                
PRCFAMCHA050102081429081445000016Radio Free Roscoe - Webthrow (Smog)                                                                                         150                                
PRCFAMCHA050102081445081515000030Weekend Double Pix Combo (DEC04) - Today @ 12pm                                                                             150                                
PRCFAMCHA050102081515081545000030Phil of the Future (PREM) (NS) (PHIL) (DEC04) - Pr                                                                          150                                
ID FAMCHA050102081545081600000015Nonstop Weekend Block Open (:14-:17)                                                                                        150                                
PROFAMCHA050102081600081610000010CC Disclaimer - FAST - Family.ca (:08-:10)                                                                                  150                                
PGRFAMCHA050102081610083840002230Radio Free Roscoe                                 EPS # 38                                                      A05971A1065607ACC                              
PROFAMCHA050102083840083924000044Son In Law - Premiering Friday @ 9pm                                                                                        150                                
PROFAMCHA050102083924083954000030That's So Raven (GOOD LIFE) - Mon to Thu @ 6:30pm                                                                           150                                
PROFAMCHA050102083954084026000032Even Stevens (SIBLINGS) - (NS) - Coming Up                                                                                  150                                
INTFAMCHA050102084026084157000131Gagsters                                          EP: 46                                                              A20686120                                
PROFAMCHA050102084157084227000030Double Teamed (SEPT12) - Next Friday @ 7:30pm                                                                               150                                
PROFAMCHA050102084227084257000030Knock First (AUG04) (NSW/PM) - Weekends @ 7:50pm                                                                            150                                
PRCFAMCHA050102084257084314000017Radio Free Roscoe - Webthrow (Question Mark)                                                                                150                                
PRCFAMCHA050102084314084344000030Phil of the Future (PREM) (NS) (PHIL) (DEC04) - Pr                                                                          150                                
ID FAMCHA050102084344084400000016Nonstop Weekend Block Open (:14-:17)                                                                                        150                                
PGRFAMCHA050102084400090554002154The Amanda Show                                   EP: 2-032                                                           A20686090                                
PROFAMCHA050102090554090608000014Nnstp Wknd - 01(PH) - WTP/BENJAMIN/FRANNY (:14-:16                                                                          150                                
PROFAMCHA050102090608090638000030That's So Raven (GOOD LIFE) - Mon to Thu @ 6:30pm                                                                           150                                
PRCFAMCHA050102090638090738000100Bullying - The Pledge 2004 (w/o music)                                                                                      150                                
PROFAMCHA050102090738090810000032Even Stevens (SIBLINGS) - (NS) - Coming Up                                                                                  150                                
PROFAMCHA050102090810090836000026Smart Guy (MOE'S WORLD) - (NSW/AM) - Coming Up                                                                              150                                
PROFAMCHA050102090836090846000010FAMJAM - Open/Close                                                                                                         150                                
INTFAMCHA050102090846091223000337MV Disney - Superstition (Raven)                                                                                       60688120                                
PROFAMCHA050102091223091237000014xxFAMJAM - Close (EMAIL) xxDNUxx                                                                                            150                                
PROFAMCHA050102091237091316000039Brotherly Love (NSW) - Tomorrow @ 11:30am                                                                                   150                                
PRCFAMCHA050102091316091346000030Phil of the Future (PREM) (NS) (PHIL) (DEC04) - Pr                                                                          150                                
ID FAMCHA050102091346091400000014Nonstop Weekend Block Open (:14-:17)                                                                                        150                                
PROFAMCHA050102091400091409000009CC Disclaimer - FAST - Family.ca (:08-:10)                                                                                  150                                
PGRFAMCHA050102091409093649002240That's So Raven                                   EP: 1-003                                                           A6068807BCC                              
PROFAMCHA050102093649093705000016Nnstp Wknd - 01(PH) - WTP/BENJAMIN/FRANNY (:14-:16                                                                          150                                
PRCFAMCHA050102093705093735000030Phil of the Future (PREM) (NS) (PHIL) (DEC04) - Pr                                                                          150                                
PROFAMCHA050102093735093807000032Even Stevens (SIBLINGS) - (NS) - Coming Up                                                                                  150                                
PRCFAMCHA050102093807093839000032Keshia Chante Blast! (Dec 27 - Jan 9)                                                                                       150                                
PROFAMCHA050102093839093905000026Smart Guy (MOE'S WORLD) - (NSW/AM) - Coming Up                                                                              150                                
PROFAMCHA050102093905093915000010FAMJAM - Open/Close                                                                                                         150                                
INTFAMCHA050102093915094045000130MV Disney - Huckaroo (Pixel Perfect)                                                                                   60688120                                
PROFAMCHA050102094045094059000014xxFAMJAM - Close (EMAIL) xxDNUxx                                                                                            150                                
PRCFAMCHA050102094059094123000024Nonstop Weekend - EVEN STEVENS - Banned                                                                                     150                                
PRCFAMCHA050102094123094155000032Bullying - The Pledge 2004 (w/o music)                                                                                      150                                
PROFAMCHA050102094155094234000039Brotherly Love (NSW) - Tomorrow @ 11:30am                                                                                   150                                
PRCFAMCHA050102094234094246000012Family Bumpers - (Phase 1 Spring 04) - Pillow Figh                                                                          150                                
ID FAMCHA050102094246094303000017Nonstop Weekend Block Open (:14-:17)                                                                                        150                                
PGRFAMCHA050102094303100542002239That's So Raven                                   EPS # 1-052                                                          6068807B                                
PROFAMCHA050102100542100556000014Nnstp Wknd - 01(PH) - WTP/BENJAMIN/FRANNY (:14-:16                                                                          150                                
PRCFAMCHA050102100556100626000030Phil of the Future (PREM) (NS) (PIM) (DEC04) - Pre                                                                          150                                
PROFAMCHA050102100626100658000032Even Stevens (SIBLINGS) - (NS) - Coming Up                                                                                  150                                
PRCFAMCHA050102100658100707000009Bullying - The Pledge 2004 (w/o music)                                                                                      150                                
PROFAMCHA050102100707100737000030Double Teamed (SEPT12) - Next Friday @ 7:30pm                                                                               150                                
PROFAMCHA050102100737100803000026Smart Guy (MOE'S WORLD) - (NSW/AM) - Coming Up                                                                              150                                
INTFAMCHA050102100803100933000130Klootz - Pole Nord 01                                                                                                 A10658120                                
PROFAMCHA050102100933101012000039Brotherly Love (NSW) - Tomorrow @ 11:30am                                                                                   150                                
PRCFAMCHA050102101012101042000030xxNonstop Weekend Block Promo (NSW) - On Family                                                                             150                                
PRCFAMCHA050102101042101051000009Family Bumpers - (Phase 1 Spring 04) - DJ Spinning                                                                          150                                
ID FAMCHA050102101051101105000014Nonstop Weekend Block Open (:14-:17)                                                                                        150                                
ID FAMCHA050102101105101112000007Magic of Disney - NS/NSW/PB - Wipe (:06-:09)                                                                                150                                
PGRFAMCHA050102101112103354002242Even Stevens                                      EP: 1-021                                                           A6068807B                                
PROFAMCHA050102103354103408000014Nnstp Wknd - 01(PH) - WTP/BENJAMIN/FRANNY (:14-:16                                                                          150                                
PROFAMCHA050102103408103438000030Double Teamed (SEPT12) - Next Friday @ 7:30pm                                                                               150                                
PROFAMCHA050102103438103504000026Smart Guy (MOE'S WORLD) - (NSW/AM) - Coming Up                                                                              150                                
PROFAMCHA050102103504103543000039Brotherly Love (NSW) - Tomorrow @ 11:30am                                                                                   150                                
INTFAMCHA050102103543103728000145Gagsters - Cheesy Pizza                           EP: 46                                                              A20686120                                
PROFAMCHA050102103728103746000018xxLizzie McGuire - GROWN UP (MD) - Coming Up                                                                                150                                
PRCFAMCHA050102103746103816000030Weekend Double Pix Combo (DEC04) - Today @ 12pm                                                                             150                                
PRCFAMCHA050102103816103846000030Phil of the Future (PREM) (NS) (PHIL) (DEC04) - Pr                                                                          150                                
ID FAMCHA050102103846103900000014Nonstop Weekend Block Open (:14-:17)                                                                                        150                                
PROFAMCHA050102103900103909000009CC Disclaimer - FAST - Family.ca (:08-:10)                                                                                  150                                
PGRFAMCHA050102103909110124002215Boy Meets World                                   EP: 1-015                                                           B6068807BCC                              
PROFAMCHA050102110124110140000016Nnstp Wknd - 01(PH) - WTP/BENJAMIN/FRANNY (:14-:16                                                                          150                                
PROFAMCHA050102110140110206000026Smart Guy (MOE'S WORLD) - (NSW/AM) - Coming Up                                                                              150                                
PROFAMCHA050102110206110245000039Brotherly Love (NSW) - Tomorrow @ 11:30am                                                                                   150                                
PRCFAMCHA050102110245110315000030Weekend Double Pix Combo (DEC04) - Today @ 12pm                                                                             150                                
PROFAMCHA050102110315110346000031xxLizzie McGuire - GROWN UP (MD) - Coming Up                                                                                150                                
INTFAMCHA050102110346110445000059Gagsters                                          EP: 46                                                              A20686120                                
PROFAMCHA050102110445110515000030That's So Raven (GOOD LIFE) - Mon to Thu @ 6:30pm                                                                           150                                
PRCFAMCHA050102110515110545000030Phil of the Future (PREM) (NS) (PHIL) (DEC04) - Pr                                                                          150                                
ID FAMCHA050102110545110600000015Nonstop Weekend Block Open (:14-:17)                                                                                        150                                
PROFAMCHA050102110600110609000009CC Disclaimer - FAST - Family.ca (:08-:10)                                                                                  150                                
PGRFAMCHA050102110609112833002224Smart Guy                                         EP: 1-045                                                           A6068807BCC                              
PROFAMCHA050102112833112849000016Nnstp Wknd - 01(PH) - WTP/BENJAMIN/FRANNY (:14-:16                                                                          150                                
PRCFAMCHA050102112849112919000030Phil of the Future (PREM) (NS) (PHIL) (DEC04) - Pr                                                                          150                                
PROFAMCHA050102112919112958000039Brotherly Love (NSW) - Tomorrow @ 11:30am                                                                                   150                                
PRCFAMCHA050102112958113058000100Bullying - The Pledge 2004 (w/o music)                                                                                      150                                
PRCFAMCHA050102113058113128000030Weekend Double Pix Combo (DEC04) - Today @ 12pm                                                                             150                                
PROFAMCHA050102113128113159000031xxLizzie McGuire - GROWN UP (MD) - Coming Up                                                                                150                                
PROFAMCHA050102113159113229000030That's So Raven (GOOD LIFE) - Mon to Thu @ 6:30pm                                                                           150                                
PRCFAMCHA050102113229113243000014Family Bumpers - (Phase 1 Spring 04) - Basketball                                                                           150                                
ID FAMCHA050102113243113300000017Nonstop Weekend Block Open (:14-:17)                                                                                        150                                
PGRFAMCHA050102113300115532002232Brotherly Love                                    EPS # 27                                                             6068807B                                
PROFAMCHA050102115532115548000016Nonstop Weekend - 17(SEP) - WDP MOVIE (:14-:16)                                                                             150                                
PRCFAMCHA050102115548115618000030Weekend Double Pix Combo (DEC04) - Coming Up Next                                                                           150                                
PROFAMCHA050102115618115644000026Smart Guy (MOE'S WORLD) - (NSW/AM) - Coming Up                                                                              150                                
PROFAMCHA050102115644115715000031xxLizzie McGuire - GROWN UP (MD) - Coming Up                                                                                150                                
INTFAMCHA050102115715115813000058Gagsters - Roll Baby Roll                         EP: 46                                                              A20686120                                
PROFAMCHA050102115813115843000030That's So Raven (GOOD LIFE) - Mon to Thu @ 6:30pm                                                                           150                                
PROFAMCHA050102115843115913000030Knock First (AUG04) (NSW/PM) - Weekends @ 7:50pm                                                                            150                                
PRCFAMCHA050102115913115943000030Phil of the Future (PREM) (NS) (PHIL) (DEC04) - Pr                                                                          150                                
ID FAMCHA050102115943120000000017Weekend Double Pix Movie Open (:13-:17)                                                                                     150                                
ID FAMCHA050102120000120010000010Rating - G - Ian (:08-:10)                                                                                                  150                                
ID FAMCHA050102120010120019000009Magic of Disney - PIX - Wipe (:06-:09)                                                                                      150                                
PGRFAMCHA050102120019132540012521Eddie's Million Dollar Cook-Off                                                                                       A6068807C                                
PROFAMCHA050102132540132556000016Nonstop Weekend - 17(SEP) - WDP MOVIE (:14-:16)                                                                             150                                
PRCFAMCHA050102132556132626000030Weekend Double Pix Combo (DEC04) - You're Watching                                                                          150                                
PROFAMCHA050102132626132652000026Smart Guy (MOE'S WORLD) - (NSW/AM) - Coming Up                                                                              150                                
PROFAMCHA050102132652132723000031xxLizzie McGuire - GROWN UP (MD) - Coming Up                                                                                150                                
PROFAMCHA050102132723132733000010FAMJAM - Open/Close                                                                                                         150                                
INTFAMCHA050102132733133044000311MV Disney - Grazing In The Grass (Raven)                                                                               60688120                                
PROFAMCHA050102133044133058000014xxFAMJAM - Close (EMAIL) xxDNUxx                                                                                            150                                
PROFAMCHA050102133058133128000030That's So Raven (GOOD LIFE) - Mon to Thu @ 6:30pm                                                                           150                                
INTFAMCHA050102133128133243000115Gagsters                                          EP: 46                                                              A20686120                                
PROFAMCHA050102133243133313000030Knock First (AUG04) (NSW/PM) - Weekends @ 7:50pm                                                                            150                                
PRCFAMCHA050102133313133343000030Phil of the Future (PREM) (NS) (PHIL) (DEC04) - Pr                                                                          150                                
ID FAMCHA050102133343133400000017Weekend Double Pix Movie Open (:13-:17)                                                                                     150                                
ID FAMCHA050102133400133409000009Rating - PG - Ian (:08-:10)                                                                                                 150                                
PROFAMCHA050102133409133418000009CC Disclaimer - FAST - Family.ca (:08-:10)                                                                                  150                                
PGRFAMCHA050102133418150836013418The Stupids                                                                                                           B2068807ECC                              
PROFAMCHA050102150836150852000016Nnstp Wknd - 01(PH) - WTP/BENJAMIN/FRANNY (:14-:16                                                                          150                                
ID FAMCHA050102150852150907000015Nonstop Weekend Block Open (:14-:17)                                                                                        150                                
PROFAMCHA050102150907150916000009CC Disclaimer - FAST - Family.ca (:08-:10)                                                                                  150                                
PGRFAMCHA050102150916153144002228Smart Guy                                         EP: 1-012                                                           A6068807BCC                              
PROFAMCHA050102153144153200000016Nnstp Wknd - 01(PH) - WTP/BENJAMIN/FRANNY (:14-:16                                                                          150                                
ID FAMCHA050102153200153215000015Nonstop Weekend Block Open (:14-:17)                                                                                        150                                
ID FAMCHA050102153215153223000008Magic of Disney - NS/NSW/PB - Shape (:06-:09)                                                                               150                                
PGRFAMCHA050102153223155457002234Lizzie McGuire                                    EP: 2-030                                                           A6068607B                                
PROFAMCHA050102155457155513000016Nnstp Wknd - 01(PH) - WTP/BENJAMIN/FRANNY (:14-:16                                                                          150                                
ID FAMCHA050102155513155528000015Nonstop Weekend Block Open (:14-:17)                                                                                        150                                
PROFAMCHA050102155528155537000009CC Disclaimer - FAST - Family.ca (:08-:10)                                                                                  150                                
PGRFAMCHA050102155537161818002241That's So Raven                                   EP: 1-018                                                           A6068807BCC                              
PROFAMCHA050102161818161833000015Nnstp Wknd - 01(PH) - WTP/BENJAMIN/FRANNY (:14-:16                                                                          150                                
PRCFAMCHA050102161833161903000030Phil of the Future (PREM) (NS) (PIM) (DEC04) - Pre                                                                          150                                
PRCFAMCHA050102161903161935000032Keshia Chante Blast! (Dec 27 - Jan 9)                                                                                       150                                
PROFAMCHA050102161935161946000011Nonstop Weekend - LIZZIE MCGUIRE - Junk Food                                                                                150                                
ID FAMCHA050102161946162000000014Nonstop Weekend Block Open (:14-:17)                                                                                        150                                
PGRFAMCHA050102162000164238002238Disney's Lilo & Stitch                            EPS # 06                                                            A6068607E                                
PROFAMCHA050102164238164254000016Nnstp Wknd - 01(PH) - WTP/BENJAMIN/FRANNY (:14-:16                                                                          150                                
PROFAMCHA050102164254164309000015Proud Family (BOND) - (MD) - Coming Up                                                                                      150                                
PROFAMCHA050102164309164337000028Kim Possible (NOV2003) - (MD) - Coming Up                                                                                   150                                
PRCFAMCHA050102164337164346000009Bullying - The Pledge 2004 (w/o music)                                                                                      150                                
PRCFAMCHA050102164346164416000030Mad Dash - AM (OLDER) - Tomorrow @ 6:55am                                                                                   150                                
PROFAMCHA050102164416164444000028Lilo & Stitch (MD/AM) (JAN05) - Tomorrow @ 7:50am                                                                           150                                
ID FAMCHA050102164444164500000016Nonstop Weekend Block Open (:14-:17)                                                                                        150                                
PGRFAMCHA050102164500170736002236The Proud Family                                  EPS # 2-028                                                         A6068807E                                
PROFAMCHA050102170736170752000016Nnstp Wknd - 01(PH) - WTP/BENJAMIN/FRANNY (:14-:16                                                                          150                                
PROFAMCHA050102170752170826000034Fillmore (STYLISH) - (NSW) - Weekends @ 4:15pm                                                                              150                                
PRCFAMCHA050102170826170901000035Bullying Pledge Bumper - NOV 17 to DEC 31                                                                                   150                                
PROFAMCHA050102170901170931000030Brotherly Love (NSW) - Tomorrow @ 11:30am                                                                                   150                                
PROFAMCHA050102170931171001000030Knock First (AUG04) (NSW/PM) - Weekends @ 7:50pm                                                                            150                                
PROFAMCHA050102171001171017000016Proud Family (BOND) - (MD) - Coming Up                                                                                      150                                
PRCFAMCHA050102171017171047000030Mad Dash - AM (OLDER) - Tomorrow @ 6:55am                                                                                   150                                
