OFFFAMCHA000401043000060000013000                                                                                                                                                               
SO FAMCHA000401060000060011000011Sign On (oct 1)                                                                                                                                                
PROFAMCHA000401060011060016000005CC Disclaimer (oct) **DO NOT USE**                                                                                                                             
PGRFAMCHA000401060016062346002330PB&J Otter                                        Tub 'O Butter/El Dorado Seat of Gold                                A6068607ECC                              
ID FAMCHA000401062346062351000005Generic ID - Marbles                                                                                                                                           
PRCFAMCHA000401062351062401000010Morning Block menu background (flex time)                                                                                                                      
PROFAMCHA000401062401062436000035Lion King's Timon & Pumbaa - today @ 3:30pm                                                                                                                    
PROFAMCHA000401062436062506000030Madeline - 8:30am on Saturday (oct)                                                                                                                            
PGRFAMCHA000401062506062830000324Art Attack - Astronaut                                                                                                 60686130                                
PROFAMCHA000401062830062900000030Crash Zone - Next (MAR)                                                                                                                                        
PROFAMCHA000401062900062939000039Goof Troop - Today @ 4pm                                                                                                                                       
ID FAMCHA000401062939063000000021Prime time open count down                                                                                                                                     
PGRFAMCHA000401063000065511002511Crash Zone                                        It's Only Words                                                      6068607A                                
ID FAMCHA000401065511065526000015Interactive bumper w/URL                                                                                                                                       
ID FAMCHA000401065526065536000010Generic ID - confetti                                                                                                                                          
PRCFAMCHA000401065536065546000010Morning Block menu background (flex time)                                                                                                                      
PROFAMCHA000401065546065626000040Microsoap - Today @ 2:30pm (MAR)                                                                                                                               
PROFAMCHA000401065626065705000039Goof Troop - Today @ 4pm                                                                                                                                       
PGRFAMCHA000401065705065837000132Disney Magic Shop(01)- Mysterious Rising Ring (D12                                                                     60686130                                
PROFAMCHA000401065837065907000030Adventures of Pete & Pete - Today @ 10am                                                                                                                       
PROFAMCHA000401065907065939000032Sherlock Holmes - Saturday @ 10:30am (oct)                                                                                                                     
ID FAMCHA000401065939070000000021Prime time open count down                                                                                                                                     
PGRFAMCHA000401070000072411002411Clarissa                                          The Understudy                                                       2068607B                                
ID FAMCHA000401072411072416000005Generic ID - Couch 2                                                                                                                                           
PRCFAMCHA000401072416072426000010Morning Block menu background (flex time)                                                                                                                      
PROFAMCHA000401072426072521000055Little Monsters (APR) - Tonight @ 8pm                                                                                                                          
PROFAMCHA000401072521072601000040Microsoap - Today @ 2:30pm (MAR)                                                                                                                               
PGRFAMCHA000401072601072830000229Music Break - Country For Kids: Buck Owens                                                                             60688130                                
PROFAMCHA000401072830072909000039Goof Troop - Today @ 4pm                                                                                                                                       
PROFAMCHA000401072909072950000041Honey I Shrunk the Kids (series oct) Sunday @ 7pm                                                                                                              
ID FAMCHA000401072950073000000010Presentation bumper - Magic of Disney                                                                                                                          
PROFAMCHA000401073000073005000005CC Disclaimer (oct) **DO NOT USE**                                                                                                                             
PGRFAMCHA000401073005075244002239Disney's Aladdin                                  Mudder's Day                                                         6068607ECC                              
ID FAMCHA000401075244075254000010Generic ID - Pink inner tube                                                                                                                                   
PRCFAMCHA000401075254075304000010Morning Block menu background (flex time)                                                                                                                      
PROFAMCHA000401075304075334000030Adventures of Pete & Pete - Today @ 10am                                                                                                                       
PROFAMCHA000401075334075404000030Madeline - 8:30am on Saturday (oct)                                                                                                                            
PGRFAMCHA000401075404075738000334MV Disney - Forever and ever (preschool)                                                                               60688130                                
PROFAMCHA000401075738075810000032Sherlock Holmes - Saturday @ 10:30am (oct)                                                                                                                     
PROFAMCHA000401075810075915000105Adventures of Gummi Bears - Next (MAR)                                                                                                                         
PROFAMCHA000401075915075950000035Lion King's Timon & Pumbaa - today @ 3:30pm                                                                                                                    
ID FAMCHA000401075950080000000010Presentation bumper - Magic of Disney                                                                                                                          
PROFAMCHA000401080000080005000005CC Disclaimer (oct) **DO NOT USE**                                                                                                                             
PGRFAMCHA000401080005082244002239Adventures of the Gummi Bears; The                Life Of The Party/World According To Gusto                           6068607ECC                              
ID FAMCHA000401082244082259000015Interactive bumper w/URL                                                                                                                                       
ID FAMCHA000401082259082309000010Generic ID - soccer **DO NOT USE**                                                                                                                             
PRCFAMCHA000401082309082319000010Morning Block menu background (flex time)                                                                                                                      
PROFAMCHA000401082319082344000025Adventures of Pete & Pete - Today @ 10am                                                                                                                       
PRCFAMCHA000401082344082417000033Hoze Houndz - Tonight @ 7:00pm                                                                                                                                 
PGRFAMCHA000401082417082839000422MV Disney - True to your heart (oct 1)                                                                                 60688130                                
PROFAMCHA000401082839082909000030Madeline - Next (oct)                                                                                                                                          
PRCFAMCHA000401082909082939000030Franklin - Tonight @ 6:00pm (MAR)                                                                                                                              
ID FAMCHA000401082939083000000021Prime time open count down                                                                                                                                     
PGRFAMCHA000401083000085236002236Madeline                                          Madeline at the Louvre                                               6068607E                                
ID FAMCHA000401085236085246000010Generic ID - Ring around the rosie                                                                                                                             
PRCFAMCHA000401085246085256000010Morning Block menu background (flex time)                                                                                                                      
PROFAMCHA000401085256085337000041Honey I Shrunk the Kids (series oct) Sunday @ 7pm                                                                                                              
PROFAMCHA000401085337085412000035Lion King's Timon & Pumbaa - today @ 3:30pm                                                                                                                    
PGRFAMCHA000401085412085826000414Art Attack - Fish                                                                                                      60686130                                
PROFAMCHA000401085826085921000055Generic Series Promo - Celebrate the Day w/Family                                                                                                              
PROFAMCHA000401085921085939000018Adventures of Pete & Pete - Today @ 10am                                                                                                                       
ID FAMCHA000401085939090000000021Prime time open count down                                                                                                                                     
PROFAMCHA000401090000090005000005CC Disclaimer (oct) **DO NOT USE**                                                                                                                             
PGRFAMCHA000401090005092206002201Gadget Boy                                        Gadget Boy in Toyland                                                6068607ECC                              
ID FAMCHA000401092206092216000010Generic ID - confetti                                                                                                                                          
PRCFAMCHA000401092216092225000009Morning Block menu background (flex time)                                                                                                                      
PRCFAMCHA000401092225092300000035Little Lulu Show; The - Tonight @ 6:30pm (oct1)                                                                                                                
PROFAMCHA000401092300092339000039Goof Troop - Today @ 4pm                                                                                                                                       
PGRFAMCHA000401092339092829000450MV Disney - Circle of Life (oct 1)                                                                                     60688130                                
PROFAMCHA000401092829092841000012Mentors - Version 3 - Sunday @ 6:30pm                                                                                                                          
PROFAMCHA000401092841092906000025Adventures of Pete & Pete - Today @ 10am                                                                                                                       
PRCFAMCHA000401092906092939000033Hoze Houndz - Tonight @ 7:00pm                                                                                                                                 
ID FAMCHA000401092939093000000021Prime time open count down                                                                                                                                     
PROFAMCHA000401093000093005000005CC Disclaimer (oct) **DO NOT USE**                                                                                                                             
PGRFAMCHA000401093005095438002433Bug Juice                                         Aftershocks                                                          6068607ACC                              
ID FAMCHA000401095438095443000005Generic ID - Fingerpaint                                                                                                                                       
PRCFAMCHA000401095443095453000010Morning Block menu background (flex time)                                                                                                                      
PROFAMCHA000401095453095548000055Little Monsters (APR) - Tonight @ 8pm                                                                                                                          
PRCFAMCHA000401095548095636000048Ripley's BION - Today @ 11am (MAR)                                                                                                                             
PGRFAMCHA000401095636095836000200Disney Moments - Opry House:Mickey Plays                                                                               60688130                                
PROFAMCHA000401095836095906000030Adventures of Pete & Pete - Next                                                                                                                               
PRCFAMCHA000401095906095939000033Hoze Houndz - Tonight @ 7:00pm                                                                                                                                 
ID FAMCHA000401095939100000000021Prime time open count down                                                                                                                                     
PGRFAMCHA000401100000102420002420Adventures of Pete & Pete; The                    The Last Laugh                                                      A2028607B                                
ID FAMCHA000401102420102430000010Generic ID - Pink inner tube                                                                                                                                   
PRCFAMCHA000401102430102439000009Morning Block menu background (flex time)                                                                                                                      
PROFAMCHA000401102439102534000055Little Monsters (APR) - Tonight @ 8pm                                                                                                                          
PROFAMCHA000401102534102614000040Microsoap - Today @ 2:30pm (MAR)                                                                                                                               
PRCFAMCHA000401102614102649000035Little Lulu Show; The - Tonight @ 6:30pm (oct1)                                                                                                                
PGRFAMCHA00040110264910274900010060 Seconds of Science - Time(13) (anywhere but D12                                                                     60688130                                
PRCFAMCHA000401102749102837000048Ripley's BION - Today @ 11am (MAR)                                                                                                                             
PROFAMCHA000401102837102909000032Sherlock Holmes - Next (oct)                                                                                                                                   
PROFAMCHA000401102909102939000030Mr. Headmistress (APR2) - Sunday @ 8pm                                                                                                                         
ID FAMCHA000401102939103000000021Prime time open count down                                                                                                                                     
PGRFAMCHA000401103000105212002212Sherlock Holmes In The 22nd Century               Crime Machine                                                        6068607E                                
ID FAMCHA000401105212105217000005Generic ID - Couch 1                                                                                                                                           
PRCFAMCHA000401105217105227000010Morning Block menu background (flex time)                                                                                                                      
PROFAMCHA000401105227105257000030Mr. Headmistress (APR2) - Sunday @ 8pm                                                                                                                         
PROFAMCHA000401105257105318000021Recess - Weekdays @ 5:30 pm (oct1)                                                                                                                             
PROFAMCHA000401105318105357000039Goof Troop - Today @ 4pm                                                                                                                                       
PGRFAMCHA000401105357105756000359MV Disney - Beauty and the beast (oct 1)                                                                               60688130                                
PRCFAMCHA000401105756105844000048Ripley's BION - Next (MAR)                                                                                                                                     
PROFAMCHA000401105844105939000055Little Monsters (APR) - Tonight @ 8pm                                                                                                                          
ID FAMCHA000401105939110000000021Prime time open count down                                                                                                                                     
PROFAMCHA000401110000110005000005CC Disclaimer (oct) **DO NOT USE**                                                                                                                             
PGRFAMCHA000401110005112433002428Ripley's Believe It Or Not!                       The Daruma Dolls                                              A21797 1065607ECC                              
ID FAMCHA000401112433112443000010Generic ID - Hula Hoop                                                                                                                                         
PRCFAMCHA000401112443112451000008Morning Block menu background (flex time)                                                                                                                      
PROFAMCHA000401112451112546000055Little Monsters (APR) - Tonight @ 8pm                                                                                                                          
PROFAMCHA000401112546112626000040Microsoap - Today @ 2:30pm (MAR)                                                                                                                               
PROFAMCHA000401112626112656000030Adventures of Pete & Pete - Tonight @ 7:30pm                                                                                                                   
PGRFAMCHA000401112656112804000108Disney Moments - Cinderella-Bibbidi Bobbidi Boo                                                                        60688130                                
PROFAMCHA000401112804112856000052Great African Wildlife Rescue - Sunday at 2pm on F                                                                                                             
PROFAMCHA000401112856112920000024So Weird - Next (Oct 1)                                                                                                                                        
PROFAMCHA000401112920112950000030Mr. Headmistress (APR2) - Sunday @ 8pm                                                                                                                         
ID FAMCHA000401112950113000000010Presentation bumper - Magic of Disney                                                                                                                          
PGRFAMCHA000401113000115408002408So Weird                                          James Garr                                                           6068807A                                
ID FAMCHA000401115408115418000010Generic ID - Bubbles                                                                                                                                           
PRCFAMCHA000401115418115427000009Morning Block menu background (flex time)                                                                                                                      
PROFAMCHA000401115427115522000055Little Monsters (APR) - Tonight @ 8pm                                                                                                                          
PROFAMCHA000401115522115540000018Adventures of Pete & Pete - Tonight @ 7:30pm                                                                                                                   
PROFAMCHA000401115540115619000039Goof Troop - Today @ 4pm                                                                                                                                       
PROFAMCHA000401115619115641000022Mentors - Version 1 - Sunday @ 6:30pm                                                                                                                          
PGRFAMCHA000401115641115757000116Bill Nye - How Can We Communicate?                                                                                     60688130                                
PRCFAMCHA000401115757115845000048Ripley's BION - Today @ 5pm (MAR)                                                                                                                              
PRCFAMCHA000401115845115920000035Little Lulu Show; The - Tonight @ 6:30pm (oct1)                                                                                                                
PROFAMCHA000401115920115950000030Mr. Headmistress (APR2) - Sunday @ 8pm                                                                                                                         
ID FAMCHA000401115950120000000010Presentation bumper - Magic of Disney                                                                                                                          
PROFAMCHA000401120000120005000005CC Disclaimer (oct) **DO NOT USE**                                                                                                                             
PGRFAMCHA000401120005123813003808Goofy Takes A Holiday                                                                                                 A6028807ECC                              
ID FAMCHA000401123813123823000010Generic ID - Bubbles                                                                                                                                           
PRCFAMCHA000401123823123833000010Morning Block menu background (flex time)                                                                                                                      
PROFAMCHA000401123833123903000030Mr. Headmistress (APR2) - Sunday @ 8pm                                                                                                                         
PRCFAMCHA000401123903123936000033Hoze Houndz - Tonight @ 7:00pm                                                                                                                                 
PROFAMCHA000401123936124016000040Microsoap - Today @ 2:30pm (MAR)                                                                                                                               
PGRFAMCHA000401124016124309000253Music Break - Sebastian Music Sweet                                                                                    60688130                                
PRCFAMCHA000401124309124339000030Contest - So Weird Mystery - Friday Night @ 7pm                                                                                                                
PROFAMCHA000401124339124420000041Honey I Shrunk the Kids (series oct) Sunday @ 7pm                                                                                                              
PROFAMCHA000401124420124450000030Crash Zone - Saturday & Sunday @ 6:30am (MAR)                                                                                                                  
ID FAMCHA000401124450124500000010Presentation bumper - Magic of Disney                                                                                                                          
PROFAMCHA000401124500124505000005CC Disclaimer (oct) **DO NOT USE**                                                                                                                             
PGRFAMCHA000401124505131535003030Kids Are Punny                                                                                                        A2068807CCC                              
ID FAMCHA000401131535131545000010Generic ID - soccer **DO NOT USE**                                                                                                                             
PRCFAMCHA000401131545131555000010Morning Block menu background (flex time)                                                                                                                      
PROFAMCHA000401131555131650000055Little Monsters (APR) - Tonight @ 8pm                                                                                                                          
PROFAMCHA000401131650131711000021Recess - Weekdays @ 5:30 pm (oct1)                                                                                                                             
PROFAMCHA000401131711131741000030Contest - You Must Be Kidding                                                                                                                                  
PGRFAMCHA000401131741132840001059Mpt-Slide Donald Slide                                                                                                 60688130                                
PROFAMCHA000401132840132855000015Doug - Weekdays @ 5:00 pm (oct1)                                                                                                                               
PROFAMCHA000401132855132920000025Adventures of Pete & Pete - Tonight @ 7:30pm                                                                                                                   
PROFAMCHA000401132920132950000030Color of Friendship (APR) - Friday @ 10pm                                                                                                                      
ID FAMCHA000401132950133000000010Presentation bumper - Magic of Disney                                                                                                                          
PROFAMCHA000401133000133005000005CC Disclaimer (oct) **DO NOT USE**                                                                                                                             
PGRFAMCHA000401133005135305002300Disney Presents Bill Nye the Science Guy          Momentum                                                             60686110CC                              
ID FAMCHA000401135305135315000010Generic ID - Bubbles                                                                                                                                           
PRCFAMCHA000401135315135324000009Morning Block menu background (flex time)                                                                                                                      
PROFAMCHA000401135324135354000030Mr. Headmistress (APR2) - Sunday @ 8pm                                                                                                                         
PRCFAMCHA000401135354135427000033Hoze Houndz - Tonight @ 7:00pm                                                                                                                                 
PGRFAMCHA000401135427135734000307MV Disney - Part of your world (oct 1)                                                                                 60688130                                
PROFAMCHA000401135734135804000030Contest - You Must Be Kidding                                                                                                                                  
PROFAMCHA000401135804135819000015Disney's One Too - Weekdays @4:30 (Oct 1)                                                                                                                      
PROFAMCHA000401135819135844000025Adventures of Pete & Pete - Tonight @ 7:30pm                                                                                                                   
PROFAMCHA000401135844135939000055Little Monsters (APR) - Tonight @ 8pm                                                                                                                          
ID FAMCHA000401135939140000000021Prime time open count down                                                                                                                                     
PGRFAMCHA000401140000141944001944Art Attack                                        1-085                                                                60686110                                
ID FAMCHA000401141944141959000015Interactive bumper w/URL                                                                                                                                       
ID FAMCHA000401141959142009000010Generic ID - Pink inner tube                                                                                                                                   
PRCFAMCHA000401142009142019000010Morning Block menu background (flex time)                                                                                                                      
PROFAMCHA000401142019142114000055Little Monsters (APR) - Tonight @ 8pm                                                                                                                          
PRCFAMCHA000401142114142149000035Little Lulu Show; The - Tonight @ 6:30pm (oct1)                                                                                                                
PROFAMCHA000401142149142228000039Goof Troop - Today @ 4pm                                                                                                                                       
PGRFAMCHA000401142228142737000509Plasmo #3                                                                                                              70688130                                
PROFAMCHA000401142737142807000030Contest - You Must Be Kidding                                                                                                                                  
PROFAMCHA000401142807142829000022Mentors - Version 1 - Sunday @ 6:30pm                                                                                                                          
PROFAMCHA000401142829142909000040Microsoap - Next (MAR)**DO NOT USE**                                                                                                                           
PROFAMCHA000401142909142939000030Color of Friendship (APR) - Friday @ 10pm                                                                                                                      
ID FAMCHA000401142939143000000021Prime time open count down                                                                                                                                     
PGRFAMCHA000401143000145402002402Microsoap                                         1-006                                                                6068607A                                
ID FAMCHA000401145402145412000010Generic ID - soccer **DO NOT USE**                                                                                                                             
PRCFAMCHA000401145412145422000010Morning Block menu background (flex time)                                                                                                                      
PROFAMCHA000401145422145517000055Little Monsters (APR) - Tonight @ 8pm                                                                                                                          
PRCFAMCHA000401145517145605000048Ripley's BION - Today @ 5pm (MAR)                                                                                                                              
PROFAMCHA000401145605145635000030Contest - You Must Be Kidding                                                                                                                                  
PGRFAMCHA000401145635145850000215Disney Moments - Bambi-Bambi Is Born                                                                                   60688130                                
PROFAMCHA000401145850145920000030Crash Zone - Saturday & Sunday @ 6:30am (MAR)                                                                                                                  
PROFAMCHA000401145920145950000030Mr. Headmistress (APR2) - Sunday @ 8pm                                                                                                                         
ID FAMCHA000401145950150000000010Presentation bumper - Magic of Disney                                                                                                                          
PROFAMCHA000401150000150005000005CC Disclaimer (oct) **DO NOT USE**                                                                                                                             
PGRFAMCHA000401150005152238002233Disney's Aladdin                                  Caught By The Tale                                                   6068607ECC                              
ID FAMCHA000401152238152248000010Generic ID - confetti                                                                                                                                          
PRCFAMCHA000401152248152257000009Morning Block menu background (flex time)                                                                                                                      
PROFAMCHA000401152257152327000030Color of Friendship (APR) - Friday @ 10pm                                                                                                                      
PROFAMCHA000401152327152406000039Goof Troop - Today @ 4pm                                                                                                                                       
PRCFAMCHA000401152406152439000033Hoze Houndz - Tonight @ 7:00pm                                                                                                                                 
PRCFAMCHA000401152439152514000035Little Lulu Show; The - Tonight @ 6:30pm (oct1)                                                                                                                
PGRFAMCHA000401152514152718000204MV Disney - You've got a friend in me (oct 1)                                                                          60688130                                
PROFAMCHA000401152718152748000030Contest - You Must Be Kidding                                                                                                                                  
PROFAMCHA000401152748152820000032Sherlock Holmes - Sunday @ 5:30pm (oct)                                                                                                                        
PROFAMCHA000401152820152855000035Lion King's Timon & Pumbaa - next (OCT 1)                                                                                                                      
PROFAMCHA000401152855152950000055Little Monsters (APR) - Tonight @ 8pm                                                                                                                          
ID FAMCHA000401152950153000000010Presentation bumper - Magic of Disney                                                                                                                          
PROFAMCHA000401153000153005000005CC Disclaimer (oct) **DO NOT USE**                                                                                                                             
PGRFAMCHA000401153005155140002135Lion King's Timon & Pumbaa; The                   Catch Me If You Kenya/Scent of the South                             6068607ECC                              
ID FAMCHA000401155140155145000005Generic ID - Couch 2                                                                                                                                           
PRCFAMCHA000401155145155156000011Morning Block menu background (flex time)                                                                                                                      
PROFAMCHA000401155156155251000055Little Monsters (APR) - Tonight @ 8pm                                                                                                                          
PRCFAMCHA000401155251155326000035Little Lulu Show; The - Tonight @ 6:30pm (oct1)                                                                                                                
PROFAMCHA000401155326155407000041Honey I Shrunk the Kids (series oct) Sunday @ 7pm                                                                                                              
PGRFAMCHA000401155407155741000334MV Disney - Forever and ever (preschool)                                                                               60688130                                
PRCFAMCHA000401155741155811000030Contest - So Weird Mystery - Friday Night @ 7pm                                                                                                                
PROFAMCHA000401155811155841000030Color of Friendship (APR) - Friday @ 10pm                                                                                                                      
PROFAMCHA000401155841155920000039Goof Troop - Next                                                                                                                                              
PROFAMCHA000401155920155950000030Mr. Headmistress (APR2) - Sunday @ 8pm                                                                                                                         
ID FAMCHA000401155950160000000010Presentation bumper - Magic of Disney                                                                                                                          
PROFAMCHA000401160000160005000005CC Disclaimer (oct) **DO NOT USE**                                                                                                                             
PGRFAMCHA000401160005162251002246Goof Troop                                        Fool's Gold                                                          6068607ECC                              
ID FAMCHA000401162251162256000005Generic ID - Couch 1                                                                                                                                           
PROFAMCHA000401162256162326000030Color of Friendship (APR) - Friday @ 10pm                                                                                                                      
PRCFAMCHA000401162326162359000033Hoze Houndz - Tonight @ 7:00pm                                                                                                                                 
PROFAMCHA000401162359162416000017Hercules - Weekdays @ 4:30 pm (oct 1)                                                                                                                          
PROFAMCHA000401162416162446000030Contest - You Must Be Kidding                                                                                                                                  
PRCFAMCHA000401162446162521000035Little Lulu Show; The - Tonight @ 6:30pm (oct1)                                                                                                                
PGRFAMCHA000401162521162732000211MV Disney - Right Back Where We Started From                                                                           60688130                                
PROFAMCHA000401162732162827000055Little Monsters (APR) - Tonight @ 8pm                                                                                                                          
PROFAMCHA000401162827162909000042Gargoyles - Next (MAR)                                                                                                                                         
PROFAMCHA000401162909162939000030Mr. Headmistress (APR2) - Sunday @ 8pm                                                                                                                         
ID FAMCHA000401162939163000000021Prime time open count down                                                                                                                                     
PGRFAMCHA000401163000165249002249Gargoyles                                         Eye of the Storm                                                     6068607E                                
ID FAMCHA000401165249165254000005Generic ID - Marbles                                                                                                                                           
PRCFAMCHA000401165254165304000010Morning Block menu background (flex time)                                                                                                                      
PROFAMCHA000401165304165359000055Little Monsters (APR) - Tonight @ 8pm                                                                                                                          
PROFAMCHA000401165359165421000022So Weird - Sunday at 6:00 pm (oct1 )                                                                                                                           
PROFAMCHA000401165421165501000040Microsoap - Weekends @ 2:30pm (MAR)                                                                                                                            
PRCFAMCHA000401165501165531000030Contest - So Weird Mystery - Friday Night @ 7pm                                                                                                                
PGRFAMCHA000401165531165809000238MV Disney - Lion King 2: We are One (oct)                                                                              60688130                                
PROFAMCHA000401165809165821000012Mentors - Version 3 - Sunday @ 6:30pm                                                                                                                          
PRCFAMCHA000401165821165909000048Ripley's BION - Next (MAR)                                                                                                                                     
PROFAMCHA000401165909165939000030Color of Friendship (APR) - Friday @ 10pm                                                                                                                      
ID FAMCHA000401165939170000000021Prime time open count down                                                                                                                                     
PROFAMCHA000401170000170005000005CC Disclaimer (oct) **DO NOT USE**                                                                                                                             
PGRFAMCHA000401170005172435002430Ripley's Believe It Or Not!                       Wattam the Warriors Mask                                      A21798 1065607ECC                              
ID FAMCHA000401172435172450000015Interactive bumper w/URL                                                                                                                                       
ID FAMCHA000401172450172455000005Generic ID - soccer **DO NOT USE**                                                                                                                             
PRCFAMCHA000401172455172505000010Morning Block menu background (flex time)                                                                                                                      
PROFAMCHA000401172505172535000030Mr. Headmistress (APR2) - Sunday @ 8pm                                                                                                                         
PROFAMCHA000401172535172605000030Adventures of Pete & Pete - Tonight @ 7:30pm                                                                                                                   
PROFAMCHA000401172605172635000030Generic Series Promo - There's Always Something On                                                                                                             
PRCFAMCHA000401172635172705000030Contest - So Weird Mystery - Friday Night @ 7pm                                                                                                                
PROFAMCHA000401172705172726000021Recess - Weekdays @ 5:30 pm (oct1)                                                                                                                             
PRCFAMCHA000401172726172759000033Hoze Houndz - Tonight @ 7:00pm                                                                                                                                 
PROFAMCHA000401172759172844000045PB&J Otter - Next (oct 1)                                                                                                                                      
PROFAMCHA000401172844172939000055Little Monsters (APR) - Tonight @ 8pm                                                                                                                          
ID FAMCHA000401172939173000000021Prime time open count down                                                                                                                                     
PROFAMCHA000401173000173005000005CC Disclaimer (oct) **DO NOT USE**                                                                                                                             
PGRFAMCHA000401173005175335002330PB&J Otter                                        Mayor Flick/Greatest Sleepover Ever                                 A6068607ECC                              
ID FAMCHA000401175335175345000010Generic ID - Hula Hoop                                                                                                                                         
PRCFAMCHA000401175345175355000010Morning Block menu background (flex time)                                                                                                                      
PROFAMCHA000401175355175430000035Lion King's Timon & Pumbaa - wkends @ 3:30pm                                                                                                                   
PROFAMCHA000401175430175500000030Crash Zone - Saturday & Sunday @ 6:30am (MAR)                                                                                                                  
PGRFAMCHA000401175500175804000304Music Break - Bobby Mcferrin: Baby                                                                                     60688130                                
PROFAMCHA000401175804175834000030Contest - You Must Be Kidding                                                                                                                                  
PRCFAMCHA000401175834175904000030Franklin - Next (MAR)                                                                                                                                          
PRCFAMCHA000401175904175939000035Little Lulu Show; The - Tonight @ 6:30pm (oct1)                                                                                                                
ID FAMCHA000401175939180000000021Prime time open count down                                                                                                                                     
PROFAMCHA000401180000180005000005CC Disclaimer (oct) **DO NOT USE**                                                                                                                             
PGRFAMCHA000401180005182258002253Franklin                                          Franklin's Night Friend/Franklin's Two Henry's                P02772A1065607ECC                              
ID FAMCHA000401182258182303000005Generic ID - Couch 2                                                                                                                                           
PRCFAMCHA000401182303182312000009Morning Block menu background (flex time)                                                                                                                      
PROFAMCHA000401182312182337000025Adventures of Pete & Pete - Tonight @ 7:30pm                                                                                                                   
PRCFAMCHA000401182337182410000033Hoze Houndz - Tonight @ 7:00pm                                                                                                                                 
PROFAMCHA000401182410182431000021Recess - Weekdays @ 5:30 pm (oct1)                                                                                                                             
PGRFAMCHA000401182431182725000254Disney Moments - Dumbo:Baby Mine                                                                                       60688130                                
PROFAMCHA000401182725182755000030Contest - You Must Be Kidding                                                                                                                                  
PROFAMCHA000401182755182834000039Goof Troop - Saturday and Sunday @ 4pm                                                                                                                         
PRCFAMCHA000401182834182909000035Little Lulu Show; The - Next (oct1)                                                                                                                            
PROFAMCHA000401182909182939000030Crash Zone - Saturday & Sunday @ 6:30am (MAR)                                                                                                                  
ID FAMCHA000401182939183000000021Prime time open count down                                                                                                                                     
PROFAMCHA000401183000183005000005CC Disclaimer (oct) **DO NOT USE**                                                                                                                             
PGRFAMCHA000401183005185337002332Little Lulu Show; The                             You Do the Math, Great Escape, The Little Lola Sho            A20209A1055607ECC3                             
ID FAMCHA000401185337185352000015Interactive bumper w/URL                                                                                                                                       
ID FAMCHA000401185352185402000010Generic ID - Pink inner tube                                                                                                                                   
PRCFAMCHA000401185402185412000010Morning Block menu background (flex time)                                                                                                                      
PROFAMCHA000401185412185507000055Little Monsters (APR) - Tonight @ 8pm                                                                                                                          
PROFAMCHA000401185507185537000030Adventures of Pete & Pete - Tonight @ 7:30pm                                                                                                                   
PGRFAMCHA000401185537185736000159Disney Moments-Fun And Fancy Free-Jack And The Bea                                                                     60688130                                
PRCFAMCHA000401185736185806000030Contest - So Weird Mystery - Friday Night @ 7pm                                                                                                                
PROFAMCHA000401185806185836000030Crash Zone - Saturday & Sunday @ 6:30am (MAR)                                                                                                                  
PRCFAMCHA000401185836185909000033Hoze Houndz - Next (oct 1)                                                                                                                                     
PROFAMCHA000401185909185939000030Color of Friendship (APR) - Friday @ 10pm                                                                                                                      
ID FAMCHA000401185939190000000021Prime time open count down                                                                                                                                     
PROFAMCHA000401190000190005000005CC Disclaimer (oct) **DO NOT USE**                                                                                                                             
PGRFAMCHA000401190005192240002235Hoze Houndz ***DO NOT USE***                      Meltdown/Hounderful Life                                      B17126 1065607ECC                              
ID FAMCHA000401192240192250000010Generic ID - Family w/dog                                                                                                                                      
PRCFAMCHA000401192250192257000007Morning Block menu background (flex time)                                                                                                                      
PROFAMCHA000401192257192327000030Mr. Headmistress (APR2) - Sunday @ 8pm                                                                                                                         
PROFAMCHA000401192327192349000022Mentors - Version 1 - Sunday @ 6:30pm                                                                                                                          
PGRFAMCHA000401192349192722000333MV Disney - Reflection (oct 1)                                                                                         60688130                                
PRCFAMCHA000401192722192752000030Contest - So Weird Mystery - Friday Night @ 7pm                                                                                                                
PROFAMCHA000401192752192814000022Disney's One Too - Weekdays @4:30 (Oct 1)                                                                                                                      
PROFAMCHA000401192814192844000030Adventures of Pete & Pete - Next                                                                                                                               
PROFAMCHA000401192844192939000055Little Monsters (APR) - Tonight @ 8pm                                                                                                                          
ID FAMCHA000401192939193000000021Prime time open count down                                                                                                                                     
PGRFAMCHA000401193000195420002420Adventures of Pete & Pete; The                    The Last Laugh                                                      A2068607B                                
ID FAMCHA000401195420195430000010Generic ID - confetti                                                                                                                                          
PRCFAMCHA000401195430195440000010Morning Block menu background (flex time)                                                                                                                      
PROFAMCHA000401195440195510000030Color of Friendship (APR) - Friday @ 10pm                                                                                                                      
PROFAMCHA000401195510195550000040Microsoap - Weekends @ 2:30pm (MAR)                                                                                                                            
PROFAMCHA000401195550195642000052Great African Wildlife Rescue - Sunday at 2pm on F                                                                                                             
PRCFAMCHA000401195642195712000030Contest - So Weird Mystery - Friday Night @ 7pm                                                                                                                
PGRFAMCHA000401195712195814000102Bill Nye - Bloodstream Baby                                                                                            60688130                                
PROFAMCHA000401195814195909000055Little Monsters (APR) - Coming Up                                                                                                                              
PROFAMCHA000401195909195939000030Mr. Headmistress (APR2) - Sunday @ 8pm                                                                                                                         
ID FAMCHA000401195939200000000021Move open family size movie                                                                                                                                    
PROFAMCHA000401200000200007000007Rating - PG (oct)                                                                                                                                              
PGRFAMCHA000401200007214144014137Little Monsters                                                                                                       B2068807D                                
ID FAMCHA000401214144214159000015Interactive bumper w/URL                                                                                                                                       
ID FAMCHA000401214159214204000005Generic ID - Couch 2                                                                                                                                           
PROFAMCHA000401214204214234000030Mr. Headmistress (APR2) - Sunday @ 8pm                                                                                                                         
PRCFAMCHA000401214234214304000030Are You Afraid of the Dark(MAR)- Sunday @ 5pm                                                                                                                  
PRCFAMCHA000401214304214334000030Contest - So Weird Mystery - Friday Night @ 7pm                                                                                                                
PROFAMCHA000401214334214409000035Lion King's Timon & Pumbaa - wkends @ 3:30pm                                                                                                                   
PROFAMCHA000401214409214439000030Color of Friendship (APR) - Friday @ 10pm                                                                                                                      
ID FAMCHA000401214439214500000021Move open family size movie                                                                                                                                    
PROFAMCHA000401214500214507000007Rating - PG (oct)                                                                                                                                              
PROFAMCHA000401214507214512000005CC Disclaimer (oct) **DO NOT USE**                                                                                                                             
ID FAMCHA000401214512214522000010Presentation bumper - Magic of Disney                                                                                                                          
PGRFAMCHA000401214522233420014858Iron Will                                                                                                             B6068807DCC                              
ID FAMCHA000401233420233427000007Generic ID - Whisper                                                                                                                                           
PROFAMCHA000401233427233439000012Mentors - Version 3 - Sunday @ 6:30pm                                                                                                                          
ID FAMCHA000401233439233500000021Move open family size movie                                                                                                                                    
PROFAMCHA000401233500233507000007Rating - PG (oct)                                                                                                                                              
PGRFAMCHA000401233507010539013032Lady Is Willing; The                                                                                                  B2068807D                                
SO FAMCHA000401010539010551000012Sign Off (oct 1)                                                                                                                                               
OFFFAMCHA000401010551043000032409                                                                                                                                                               
OFFFAMCHA000402043000060000013000                                                                                                                                                               
SO FAMCHA000402060000060011000011Sign On (oct 1)                                                                                                                                                
PROFAMCHA000402060011060016000005CC Disclaimer (oct) **DO NOT USE**                                                                                                                             
PGRFAMCHA000402060016062346002330PB&J Otter                                        Save Oaky Oak Tree/Duck Who Cried Wolf                              A6068607ECC                              
ID FAMCHA000402062346062356000010Generic ID - Bubbles                                                                                                                                           
PRCFAMCHA000402062356062405000009Morning Block menu background (flex time)                                                                                                                      
PROFAMCHA000402062405062435000030Mr. Headmistress (APR2) - Tonight @ 8pm                                                                                                                        
PRCFAMCHA000402062435062505000030Franklin - Weekdays @ 7:30am (MAR)                                                                                                                             
PGRFAMCHA000402062505062809000304Music Break - Bobby Mcferrin: Baby                                                                                     60688130                                
PROFAMCHA000402062809062839000030Adventures of Pete & Pete - Today @ 8:30am                                                                                                                     
PROFAMCHA000402062839062909000030Crash Zone - Next (MAR)                                                                                                                                        
PROFAMCHA000402062909062939000030Lucas - Saturday @ 8pm                                                                                                                                         
ID FAMCHA000402062939063000000021Prime time open count down                                                                                                                                     
PGRFAMCHA000402063000065454002454Crash Zone                                        Secrets and Lies                                                     6068607A                                
ID FAMCHA000402065454065459000005Generic ID - Bubbles                                                                                                                                           
PRCFAMCHA000402065459065507000008Morning Block menu background (flex time)                                                                                                                      
PROFAMCHA000402065507065537000030Lucas - Saturday @ 8pm                                                                                                                                         
PROFAMCHA000402065537065617000040Microsoap - Today @ 2:30pm (MAR)                                                                                                                               
PGRFAMCHA000402065617065817000200MV Disney - I'm Gonna Fly (oct)                                                                                        60688130                                
PROFAMCHA000402065817065909000052Great African Wildlife Rescue - Today at 2pm on Fa                                                                                                             
PROFAMCHA000402065909065939000030Mr. Headmistress (APR2) - Tonight @ 8pm                                                                                                                        
ID FAMCHA000402065939070000000021Prime time open count down                                                                                                                                     
PGRFAMCHA000402070000072410002410Clarissa                                          Can't Buy Me Love                                                    2068607B                                
ID FAMCHA000402072410072425000015Generic ID - confetti                                                                                                                                          
PRCFAMCHA000402072425072435000010Morning Block menu background (flex time)                                                                                                                      
PROFAMCHA000402072435072505000030Mr. Headmistress (APR2) - Tonight @ 8pm                                                                                                                        
PROFAMCHA000402072505072535000030Adventures of Pete & Pete - Today @ 8:30am                                                                                                                     
PGRFAMCHA000402072535072828000253Music Break - Sebastian Music Sweet                                                                                    60688130                                
PROFAMCHA000402072828072920000052Great African Wildlife Rescue - Today at 2pm on Fa                                                                                                             
PROFAMCHA000402072920072950000030Lucas - Saturday @ 8pm                                                                                                                                         
ID FAMCHA000402072950073000000010Presentation bumper - Magic of Disney                                                                                                                          
PROFAMCHA000402073000073005000005CC Disclaimer (oct) **DO NOT USE**                                                                                                                             
PGRFAMCHA000402073005075243002238Disney's Aladdin                                  Fowl Weather                                                         6068607ECC                              
ID FAMCHA000402075243075253000010Generic ID - confetti                                                                                                                                          
PRCFAMCHA000402075253075302000009Morning Block menu background (flex time)                                                                                                                      
PROFAMCHA000402075302075332000030Lucas - Saturday @ 8pm                                                                                                                                         
PROFAMCHA000402075332075407000035Lion King's Timon & Pumbaa - today @ 3:30pm                                                                                                                    
PGRFAMCHA000402075407075844000437MV Disney - Go the distance (oct 1)                                                                                    60688130                                
PROFAMCHA000402075844075909000025Adventures of Pete & Pete - Today @ 8:30am                                                                                                                     
PROFAMCHA000402075909075939000030Mr. Headmistress (APR2) - Tonight @ 8pm                                                                                                                        
ID FAMCHA000402075939080000000021Prime time open count down                                                                                                                                     
PROFAMCHA000402080000080005000005CC Disclaimer (oct) **DO NOT USE**                                                                                                                             
PGRFAMCHA000402080005082309002304Mad Libs                                          1-040                                                               A60686100CC                              
ID FAMCHA000402082309082324000015Interactive bumper w/URL                                                                                                                                       
ID FAMCHA000402082324082329000005Generic ID - Couch 1                                                                                                                                           
PROFAMCHA000402082329082359000030Mr. Headmistress (APR2) - Tonight @ 8pm                                                                                                                        
PROFAMCHA000402082359082439000040Microsoap - Today @ 2:30pm (MAR)                                                                                                                               
PGRFAMCHA000402082439082800000321Music Break - Simply Mad About The Mouse: M.Bolton                                                                     60688130                                
PROFAMCHA000402082800082839000039Goof Troop - Today @ 4pm                                                                                                                                       
PROFAMCHA000402082839082909000030Adventures of Pete & Pete - Next                                                                                                                               
PROFAMCHA000402082909082939000030Lucas - Saturday @ 8pm                                                                                                                                         
ID FAMCHA000402082939083000000021Prime time open count down                                                                                                                                     
PGRFAMCHA000402083000085422002422Adventures of Pete & Pete; The                    Tool and Die                                                        A2068607B                                
ID FAMCHA000402085422085427000005Generic ID - Couch 2                                                                                                                                           
PRCFAMCHA000402085427085439000012Morning Block menu background (flex time)                                                                                                                      
PROFAMCHA000402085439085509000030Lucas - Saturday @ 8pm                                                                                                                                         
PRCFAMCHA000402085509085557000048Ripley's BION - Saturday @ 11am (MAR)                                                                                                                          
PGRFAMCHA000402085557085837000240Art Attack - Bird Seed Budgie                                                                                          60686130                                
PROFAMCHA000402085837085909000032Sherlock Holmes - Today @ 5:30pm (oct)                                                                                                                         
PROFAMCHA000402085909085939000030Mr. Headmistress (APR2) - Tonight @ 8pm                                                                                                                        
ID FAMCHA000402085939090000000021Prime time open count down                                                                                                                                     
PGRFAMCHA000402090000092410002410Clarissa                                          Can't Buy Me Love                                                    2068607B                                
ID FAMCHA000402092410092420000010Generic ID - Family w/dog                                                                                                                                      
PRCFAMCHA000402092420092429000009Morning Block menu background (flex time)                                                                                                                      
PROFAMCHA000402092429092459000030Mr. Headmistress (APR2) - Tonight @ 8pm                                                                                                                        
PROFAMCHA000402092459092539000040Microsoap - Today @ 2:30pm (MAR)                                                                                                                               
PGRFAMCHA000402092539092839000300Art Attack - Jack-In-The-Box                                                                                           60686130                                
PROFAMCHA000402092839092909000030So Weird - Tonight at 6:00 pm (oct1 )                                                                                                                          
PROFAMCHA000402092909092939000030Lucas - Saturday @ 8pm                                                                                                                                         
ID FAMCHA000402092939093000000021Prime time open count down                                                                                                                                     
PROFAMCHA000402093000093005000005CC Disclaimer (oct) **DO NOT USE**                                                                                                                             
PGRFAMCHA000402093005095226002221Blossom                                           Kids                                                                 6068807ACC                              
ID FAMCHA000402095226095236000010Generic ID - Hula Hoop                                                                                                                                         
PRCFAMCHA000402095236095245000009Morning Block menu background (flex time)                                                                                                                      
PROFAMCHA000402095245095315000030Lucas - Saturday @ 8pm                                                                                                                                         
PRCFAMCHA000402095315095348000033Hoze Houndz - Tuesday @ 6:30pm on Family (oct 1)                                                                                                               
PROFAMCHA000402095348095400000012Mentors - Version 3 - Tonight @ 6:30pm                                                                                                                         
PGRFAMCHA000402095400095834000434MV Disney - A Dream is a Wish Your Heart Makes (oc                                                                     60688130                                
PROFAMCHA000402095834095909000035Lion King's Timon & Pumbaa - today @ 3:30pm                                                                                                                    
PROFAMCHA000402095909095939000030Mr. Headmistress (APR2) - Tonight @ 8pm                                                                                                                        
ID FAMCHA000402095939100000000021Move open family size movie                                                                                                                                    
PROFAMCHA000402100000100007000007Rating - G (oct )                                                                                                                                              
ID FAMCHA000402100007100017000010Presentation bumper - Magic of Disney                                                                                                                          
PGRFAMCHA000402100017113024013007Barefoot Executive (1995); The                                                                                        A6068807C                                
ID FAMCHA000402113024113029000005Generic ID - Marbles                                                                                                                                           
ID FAMCHA000402113029113050000021Move open family size movie                                                                                                                                    
PROFAMCHA000402113050113057000007Rating - G (oct )                                                                                                                                              
PGRFAMCHA000402113057130742013645Prisoner Of Zenda Inc.; The                                                                                     P05595A1065807C                                
ID FAMCHA000402130742130757000015Interactive bumper w/URL                                                                                                                                       
ID FAMCHA000402130757130802000005Generic ID - Couch 2                                                                                                                                           
PRCFAMCHA000402130802130809000007Morning Block menu background (flex time)                                                                                                                      
PROFAMCHA000402130809130839000030Lucas - Saturday @ 8pm                                                                                                                                         
PRCFAMCHA000402130839130909000030Contest - So Weird Mystery - Friday Night @ 7pm                                                                                                                
PROFAMCHA000402130909130939000030Mr. Headmistress (APR2) - Tonight @ 8pm                                                                                                                        
ID FAMCHA000402130939131000000021Prime time open count down                                                                                                                                     
PROFAMCHA000402131000131005000005CC Disclaimer (oct) **DO NOT USE**                                                                                                                             
PGRFAMCHA000402131005133229002224Dinosaurs                                         Refrigerator Day                                                     6068807BCC                              
ID FAMCHA000402133229133234000005Generic ID - Bubbles                                                                                                                                           
PROFAMCHA000402133234133239000005CC Disclaimer (oct) **DO NOT USE**                                                                                                                             
PGRFAMCHA000402133239135546002307Disney Presents Bill Nye the Science Guy          Reptiles                                                             60686110CC                              
ID FAMCHA000402135546135556000010Generic ID - soccer **DO NOT USE**                                                                                                                             
PRCFAMCHA000402135556135607000011Morning Block menu background (flex time)                                                                                                                      
PROFAMCHA000402135607135647000040Microsoap - Today @ 2:30pm (MAR)                                                                                                                               
PROFAMCHA000402135647135717000030Contest - You Must Be Kidding                                                                                                                                  
PROFAMCHA000402135717135736000019So Weird - Tonight at 6:00 pm (oct1 )                                                                                                                          
PROFAMCHA000402135736135817000041Honey I Shrunk the Kids (series oct) tonight @ 7pm                                                                                                             
PROFAMCHA000402135817135909000052Great African Wildlife Rescue - Next on Family                                                                                                                 
PROFAMCHA000402135909135939000030Mr. Headmistress (APR2) - Tonight @ 8pm                                                                                                                        
ID FAMCHA000402135939140000000021Prime time open count down                                                                                                                                     
PGRFAMCHA000402140000142413002413Great African Wildlife Rescue; The                Experience of a Lifetime - White Rhino                               60688110                                
ID FAMCHA000402142413142428000015Interactive bumper w/URL                                                                                                                                       
ID FAMCHA000402142428142433000005Generic ID - Bubbles                                                                                                                                           
PRCFAMCHA000402142433142443000010Morning Block menu background (flex time)                                                                                                                      
PROFAMCHA000402142443142513000030Mr. Headmistress (APR2) - Tonight @ 8pm                                                                                                                        
PROFAMCHA000402142513142543000030Contest - You Must Be Kidding                                                                                                                                  
PGRFAMCHA000402142543142754000211MV Disney - Right Back Where We Started From                                                                           60688130                                
PRCFAMCHA000402142754142829000035Little Lulu Show; The - Tuesday @ 6:00pm (oct1)                                                                                                                
PROFAMCHA000402142829142909000040Microsoap - Next (MAR)**DO NOT USE**                                                                                                                           
PROFAMCHA000402142909142939000030Color of Friendship (APR) - Friday @ 10pm                                                                                                                      
ID FAMCHA000402142939143000000021Prime time open count down                                                                                                                                     
PGRFAMCHA000402143000145441002441Microsoap                                         1-007                                                                6068607A                                
ID FAMCHA000402145441145446000005Generic ID - soccer **DO NOT USE**                                                                                                                             
PROFAMCHA000402145446145516000030Color of Friendship (APR) - Friday @ 10pm                                                                                                                      
PROFAMCHA000402145516145533000017Hercules - Weekdays @ 4:30 pm (oct 1)                                                                                                                          
PGRFAMCHA000402145533145829000256MV Disney - Strangers Like Me (oct)                                                                                    60688130                                
PROFAMCHA000402145829145859000030Contest - You Must Be Kidding                                                                                                                                  
PROFAMCHA000402145859145921000022Mentors - Version 1 - Tonight @ 6:30pm                                                                                                                         
PROFAMCHA000402145921145951000030Mr. Headmistress (APR2) - Tonight @ 8pm                                                                                                                        
ID FAMCHA000402145951150001000010Presentation bumper - Magic of Disney                                                                                                                          
PROFAMCHA000402150001150006000005CC Disclaimer (oct) **DO NOT USE**                                                                                                                             
PGRFAMCHA000402150006152244002238Disney's Aladdin                                  Egg-Stra Protection                                                  6068607ECC                              
ID FAMCHA000402152244152254000010Generic ID - Bubbles                                                                                                                                           
PROFAMCHA000402152254152324000030Mr. Headmistress (APR2) - Tonight @ 8pm                                                                                                                        
PROFAMCHA000402152324152345000021Recess - Weekdays @ 5:30 pm (oct1)                                                                                                                             
PROFAMCHA000402152345152415000030Contest - You Must Be Kidding                                                                                                                                  
PGRFAMCHA000402152415152815000400MV Disney - We Are One (oct)                                                                                           60688130                                
PROFAMCHA000402152815152845000030Crash Zone - Saturday & Sunday @ 6:30am (MAR)                                                                                                                  
PROFAMCHA000402152845152920000035Lion King's Timon & Pumbaa - next (OCT 1)                                                                                                                      
PROFAMCHA000402152920152950000030Color of Friendship (APR) - Friday @ 10pm                                                                                                                      
ID FAMCHA000402152950153000000010Presentation bumper - Magic of Disney                                                                                                                          
PROFAMCHA000402153000153005000005CC Disclaimer (oct) **DO NOT USE**                                                                                                                             
PGRFAMCHA000402153005155247002242Lion King's Timon & Pumbaa; The                   Forbidden Pumbaa/Washington Applesauce                               6068607ECC                              
ID FAMCHA000402155247155252000005Generic ID - Bubbles                                                                                                                                           
PRCFAMCHA000402155252155302000010Morning Block menu background (flex time)                                                                                                                      
PROFAMCHA000402155302155332000030Color of Friendship (APR) - Friday @ 10pm                                                                                                                      
PROFAMCHA000402155332155413000041Honey I Shrunk the Kids (series oct) tonight @ 7pm                                                                                                             
PROFAMCHA000402155413155443000030Contest - You Must Be Kidding                                                                                                                                  
PGRFAMCHA000402155443155811000328Art Attack - Hockey (WINTER)                                                                                           60686130                                
PROFAMCHA000402155811155841000030Generic Series Promo - There's Always Something On                                                                                                             
PROFAMCHA000402155841155920000039Goof Troop - Next                                                                                                                                              
PROFAMCHA000402155920155950000030Mr. Headmistress (APR2) - Tonight @ 8pm                                                                                                                        
ID FAMCHA000402155950160000000010Presentation bumper - Magic of Disney                                                                                                                          
PROFAMCHA000402160000160005000005CC Disclaimer (oct) **DO NOT USE**                                                                                                                             
PGRFAMCHA000402160005162257002252Goof Troop                                        Cat's Entertainment                                                  6068607ECC                              
ID FAMCHA000402162257162312000015Interactive bumper w/URL                                                                                                                                       
ID FAMCHA000402162312162317000005Generic ID - Bubbles                                                                                                                                           
PRCFAMCHA000402162317162327000010Morning Block menu background (flex time)                                                                                                                      
PROFAMCHA000402162327162357000030Mr. Headmistress (APR2) - Tonight @ 8pm                                                                                                                        
PROFAMCHA000402162357162409000012Mentors - Version 3 - Tonight @ 6:30pm                                                                                                                         
PRCFAMCHA000402162409162439000030Contest - So Weird Mystery - Friday Night @ 7pm                                                                                                                
PGRFAMCHA000402162439162727000248Art Attack - Scarecrow (HALLOWEEN)                                                                                     60686130                                
PROFAMCHA000402162727162757000030Contest - You Must Be Kidding                                                                                                                                  
PRCFAMCHA000402162757162827000030Are You Afraid of the Dark(JAN)- Today @ 5pm                                                                                                                   
PROFAMCHA000402162827162909000042Gargoyles - Next (MAR)                                                                                                                                         
PROFAMCHA000402162909162939000030Color of Friendship (APR) - Friday @ 10pm                                                                                                                      
ID FAMCHA000402162939163000000021Prime time open count down                                                                                                                                     
PGRFAMCHA000402163000165251002251Gargoyles                                         The New Olympians                                                    6068607E                                
ID FAMCHA000402165251165258000007Generic ID - Whisper                                                                                                                                           
PROFAMCHA000402165258165328000030Color of Friendship (APR) - Friday @ 10pm                                                                                                                      
PRCFAMCHA000402165328165358000030Contest - So Weird Mystery - Friday Night @ 7pm                                                                                                                
PGRFAMCHA000402165358165739000341MV Disney - Mambo #5                                                                                                   60688130                                
PROFAMCHA000402165739165809000030So Weird - Tonight at 6:00 pm (oct1 )                                                                                                                          
PROFAMCHA000402165809165839000030Contest - You Must Be Kidding                                                                                                                                  
PRCFAMCHA000402165839165909000030Are You Afraid of the Dark(MAR)- Next                                                                                                                          
PROFAMCHA000402165909165939000030Mr. Headmistress (APR2) - Tonight @ 8pm                                                                                                                        
ID FAMCHA000402165939170000000021Prime time open count down                                                                                                                                     
PGRFAMCHA000402170000172423002423Are You Afraid Of The Dark?                       The Tale of the Dark Dragon                                   SR0303 1066807A                                
ID FAMCHA000402172423172433000010Generic ID - Bubbles                                                                                                                                           
PROFAMCHA000402172433172503000030Mr. Headmistress (APR2) - Tonight @ 8pm                                                                                                                        
PROFAMCHA000402172503172515000012Mentors - Version 3 - Tonight @ 6:30pm                                                                                                                         
PROFAMCHA000402172515172545000030Contest - You Must Be Kidding                                                                                                                                  
