PGRFAMCHA131001043000045230002230The Secret World of Benjamin Bear                 EP: 36                                                        C27272 1065607ECC                              
PROFAMCHA131001045230045237000007D-JR Live Action ID - Franny's Feet - Coming Up (M                                                                          150                                
PROFAMCHA131001045237045302000025D-JR Live Action ID - #28 Clapping Game (Sep2013)                                                                           150                                
PROFAMCHA131001045302045312000010D-JR - Short Open (:10) (May2011)                                                                                           150                                
PROFAMCHA131001045312045509000157PH-D Short - Can You...Alligator Manners S1 - 02 -                                                                          150                                
PROFAMCHA131001045509045515000006D-JR - Short Close (:06) (May2011)                                                                                          150                                
PROFAMCHA131001045515045540000025D-JR Live Action ID - #15 Sidewalk Chalk (Sep2013)                                                                          150                                
PROFAMCHA131001045540045547000007D-JR Live Action ID - Franny's Feet - Now (May2012                                                                          150                                
PROFAMCHA131001045547045555000008D-JR - Flex ID - Purple (:6-:10) (Feb2012)                                                                                  150                                
PGRFAMCHA131001045555051828002233Franny's Feet                                     EP: 50                                                        C31292 1065607ECC                              
PROFAMCHA131001051828051835000007D-JR Live Action ID - SWOBB - Coming Up (May2012)                                                                           150                                
PROFAMCHA131001051835051900000025D-JR Live Action ID - #39 Treasure Hunt (Sep2013)                                                                           150                                
PROFAMCHA131001051900051930000030D-JR Promo - On demand online REVISED - D-JR.ca (M                                                                          150                                
PROFAMCHA131001051930051945000015D-JR Promo - Sofia The First: Clip 3 - Get More We                                                                          150                                
PROFAMCHA131001051945052037000052D-JR Promo - Doc McStuffins - Get more on the chan                                                                          150                                
PROFAMCHA131001052037052102000025D-JR Live Action ID - #25 Planting Pumpkins (Sep20                                                                          150                                
PROFAMCHA131001052102052109000007D-JR Live Action ID - SWOBB - Now (May2012)                                                                                 150                                
PROFAMCHA131001052109052115000006D-JR - Bumper 6 (May2011)                                                                                                   150                                
PGRFAMCHA131001052115054346002231The Secret World of Benjamin Bear                 EPS # 1-010                                                   B75155 1065607ECC                              
PROFAMCHA131001054346054353000007D-JR Live Action ID - Harry & His Dinosaurs - Comi                                                                          150                                
PROFAMCHA131001054353054418000025D-JR Live Action ID - #96 Piano (Sep2013)                                                                                   150                                
PROFAMCHA131001054418054425000007D-JR - Flex ID - Yellow (:6-:10) (Feb2012)                                                                                  150                                
PROFAMCHA131001054425054450000025D-JR Live Action ID - #50 Feed Dog (Sep2013)                                                                                150                                
PROFAMCHA131001054450054457000007D-JR Live Action ID - Harry & His Dinosaurs - Now                                                                           150                                
PGRFAMCHA131001054457060634002137Harry and His Bucket Full of Dinosaurs            EP: 04                                                        B05023 1065607ECC                              
PROFAMCHA131001060634060642000008D-JR Live Action ID - Stella & Sam - Coming Up (Ma                                                                          150                                
PROFAMCHA131001060642060707000025D-JR Live Action ID - #8 Reading Book/Quiet Time (                                                                          150                                
PROFAMCHA131001060707060805000058D-JR Promo - Jake's Neverland Rescue- Sat Oct 5 on                                                                          150                                
PROFAMCHA131001060805060835000030D-JR Promo - Little Einsteins - Get more on D-JR t                                                                          150                                
PRCFAMCHA131001060835060918000043D-JR Promo Halloween Once Upon (HD) Weekdays @ 6 (                                                                          150                                
PROFAMCHA131001060918060943000025D-JR Live Action ID - #94 Jump Rope (Sep2013)                                                                               150                                
PROFAMCHA131001060943060951000008D-JR Live Action ID - Stella & Sam - Now (Mar2013)                                                                          150                                
PROFAMCHA131001060951061000000009D-JR - Station ID (:09) (May2011)                                                                                           150                                
PGRFAMCHA131001061000063315002315Stella and Sam                                    EP: 07                                                        C32553 1065607ECD                              
PRCFAMCHA131001063315063400000045WOY (HD) Prems Oct 13 @ 215 (Sep 20-Oct 6)                                                                                  150                                
PRCFAMCHA131001063400063410000010Family Bumper Flex (HD) Flex ID - Wingin It (Apr20                                                                          150                                
PROFAMCHA131001063410063427000017PAF (HD) Disney Refresh CD - Coming Up Next (April                                                                          150                                
PROFAMCHA131001063427063456000029Episodic Next Step (HD) 117 Friday Night @ 7 (Sep3                                                                          150                                
PGRFAMCHA131001063456065726002230Disney Phineas & Ferb                             EP: 26                                                               6068607ECC                              
PROFAMCHA131001065726065736000010LU - (HD) Shake it Up/ANT Farm @ 7:25am (April 201                                                                          150                                
PRCFAMCHA131001065736065812000036BAW (HD) Stand Up & Shout Tutorial Online @ family                                                                          150                                
PROFAMCHA131001065812065857000045Episodic LAM (HD) 107 New Ep Friday Aft @ 5 (Sep30                                                                          150                                
PRCFAMCHA131001065857065919000022Monstober MV Tease (HD) Rewind Halloween - Friday                                                                           150                                
PRCFAMCHA131001065919065934000015Family Flex Next (HD) SIU Zendaya (Aug 2013) (:13-                                                                          150                                
PROFAMCHA131001065934070004000030Last Mimzy (HD) Prems Friday Oct 11 @ 8 (Sep 27-Oc                                                                          150                                
PGRFAMCHA131001070004072236002232Disney Shake It Up                                EP: 20                                                               6068707BCC                              
PROFAMCHA131001072236072246000010LU - (HD) ANT Farm/Jessie @ 7:50am (April 2013)                                                                             150                                
PROFAMCHA131001072246072329000043Stunt Friday Fright Night (HD) Friday Starting @ 5                                                                          150                                
PRCFAMCHA131001072329072344000015Family Bumper Flex (HD) Flex ID - Music ID (:14-:1                                                                          150                                
PRCFAMCHA131001072344072414000030DXD Meet The Robinsons (HD) Sunday Oct 6 @ 8 (Sep2                                                                          150                                
PROFAMCHA131001072414072429000015ANT Farm (HD) Refresh CT - Coming Up Next (April 2                                                                          150                                
PROFAMCHA131001072429072458000029Episodic Next Step (HD) 117 Friday Night @ 7 (Sep3                                                                          150                                
PGRFAMCHA131001072458074929002431Disney A.N.T. Farm                                EP: 01                                                               6068607BCC                              
PROFAMCHA131001074929074939000010LU - (HD) Jessie/WOWP @ 8:15am (April 2013)                                                                                 150                                
PRCFAMCHA131001074939075012000033BAW Campaign (HD) Contest - Check out family.ca (S                                                                          150                                
PRCFAMCHA131001075012075026000014Family Flex Next (HD) Jessie - Jessie  (:12-:14) (                                                                          150                                
PROFAMCHA131001075026075055000029Episodic DWAB (HD) 117 Friday Afternoon @ 430 (Sep                                                                          150                                
PGRFAMCHA131001075055081343002248Disney Jessie                                     EP: 01                                                               6068807BCC                              
PRCFAMCHA131001081343081442000059TBM (HD) Summer Fun Sell - Sunday Afternoon @ 130                                                                           150                                
PROFAMCHA131001081442081527000045Episodic LAM (HD) 107 New Ep Friday Aft @ 5 (Sep30                                                                          150                                
PRCFAMCHA131001081527081539000012Family Bumper Flex (HD) Flex ID - WUW (May2012) (:                                                                          150                                
PRCFAMCHA131001081539081608000029Episodic GLC (HD) 415 Friday Oct 11 @ 730 (Oct1-3                                                                           150                                
PRCFAMCHA131001081608081653000045DXD Monster Mayhem Mashup Contest (HD) Find Out Mo                                                                          150                                
PROFAMCHA131001081653081712000019WOWP (HD) Clip Bad Time - Coming Up Next (April 20                                                                          150                                
PRCFAMCHA131001081712081757000045WOY (HD) Prems Oct 13 @ 215 (Sep 20-Oct 6)                                                                                  150                                
PGRFAMCHA131001081757084029002232Disney Wizards of Waverly Place                   EP: 21                                                               6068507BCC                              
PROFAMCHA131001084029084037000008D-JR Live Action ID - Tickity Toc - Coming Up (Mar                                                                          150                                
PROFAMCHA131001084037084102000025D-JR Live Action ID - #10 Build A Block Tower (Sep                                                                          150                                
PROFAMCHA131001084102084127000025D-JR Promo - JATNP - Get more on the channel REV (                                                                          150                                
PROFAMCHA131001084127084133000006D-JR - Short Open (:06) (May2011)                                                                                           150                                
PROFAMCHA131001084133084330000157PH-D Short - Can You...Alligator Manners S1 - 04 -                                                                          150                                
PROFAMCHA131001084330084336000006D-JR - Short Close (:06) (May2011)                                                                                          150                                
PROFAMCHA131001084336084411000035D-JR Promo - Handy Manny - Get more on the channel                                                                          150                                
PROFAMCHA131001084411084436000025D-JR Live Action ID - #35 Nature Walk (Sep2013)                                                                             150                                
PROFAMCHA131001084436084444000008D-JR Live Action ID - Tickity Toc - Now (Mar2013)                                                                           150                                
PROFAMCHA131001084444084452000008D-JR - Flex ID - Blue (:6-:10) (Feb2012)                                                                                    150                                
PGRFAMCHA131001084452085553001101Tickety Toc                                       EP: 03                                                               3068605ACC                              
PGRFAMCHA131001085553090658001105Tickety Toc                                       EP: 04                                                               3068605ACC                              
PROFAMCHA131001090658090706000008D-JR Live Action ID - Little Einsteins - Coming Up                                                                          150                                
PROFAMCHA131001090706090731000025D-JR Live Action ID - #5 Pick A Reading Spot (Sep2                                                                          150                                
PROFAMCHA131001090731090801000030D-JR Promo - On demand online REVISED - D-JR.ca (M                                                                          150                                
PROFAMCHA131001090801090841000040The Walt Disney Company                                                                                                     150                                
PROFAMCHA131001090841090911000030D-JR Promo - Tickety Toc - Time to Chime - Get mor                                                                          150                                
PROFAMCHA131001090911090931000020D-JR Promo - Sofia The First: Clip 1 - Get More We                                                                          150                                
PRCFAMCHA131001090931091014000043D-JR Promo Halloween Once Upon (HD) Weekdays @ 6 (                                                                          150                                
PROFAMCHA131001091014091039000025D-JR Live Action ID - #63 Wash Face (Sep2013)                                                                               150                                
PROFAMCHA131001091039091047000008D-JR Live Action ID - Little Einsteins - Now (Nov2                                                                          150                                
PROFAMCHA131001091047091052000005D-JR - Station ID (:05) (May2011)                                                                                           150                                
PGRFAMCHA131001091052093457002405Disney's Little Einsteins                         EP: 15                                                               6068605ACC                              
PROFAMCHA131001093457093504000007D-JR Live Action ID - Handy Manny - Coming Up (May                                                                          150                                
PROFAMCHA131001093504093529000025D-JR Live Action ID - #33 Feeding Birds (Sep2013)                                                                           150                                
PROFAMCHA131001093529093611000042D-JR Promo - Bananas in Pajamas - Weekdays @ 10am                                                                           150                                
PROFAMCHA131001093611093636000025D-JR Live Action ID - #34 Hide N Seek (Sep2013)                                                                             150                                
PROFAMCHA131001093636093643000007D-JR Live Action ID - Handy Manny - Now (May2012)                                                                           150                                
PROFAMCHA131001093643093650000007D-JR - Flex ID - Green (:6-:10) (Feb2012)                                                                                   150                                
PGRFAMCHA131001093650100048002358Handy Manny                                       EP: 49                                                               6068607ECC                              
PROFAMCHA131001100048100056000008D-JR Live Action ID - Jake & the Never Land Pirate                                                                          150                                
PROFAMCHA131001100056100121000025D-JR Live Action ID - #90 Freeze Dance (Sep2013)                                                                            150                                
PRCFAMCHA131001100121100204000043D-JR Promo Halloween Once Upon (HD) Weekdays @ 6 (                                                                          150                                
PROFAMCHA131001100204100234000030D-JR Promo - Henry Hugglemonster: Character Spot 1                                                                          150                                
PROFAMCHA131001100234100304000030D-JR Promo - On demand online REVISED - D-JR.ca (M                                                                          150                                
PROFAMCHA131001100304100329000025D-JR Live Action ID - #51 Chores Board (Sep2013)                                                                            150                                
PROFAMCHA131001100329100336000007D-JR Live Action ID - Jake & the Never Land Pirate                                                                          150                                
PROFAMCHA131001100336100344000008D-JR - Flex ID - Purple (:6-:10) (Feb2012)                                                                                  150                                
PGRFAMCHA131001100344102749002405Disney Jake and the Never Land Pirates            EP: 09                                                               6068605ACC                              
PROFAMCHA131001102749102757000008D-JR Live Action ID - Sofia the First - Coming Up                                                                           150                                
PROFAMCHA131001102757102822000025D-JR Live Action ID - #67 Play Dressup (Sep2013)                                                                            150                                
PROFAMCHA131001102822102920000058D-JR Promo - Jake's Neverland Rescue- Sat Oct 5 on                                                                          150                                
PROFAMCHA131001102920102945000025D-JR Live Action ID - #9 Ride A Bike (Sep2013)                                                                              150                                
PROFAMCHA131001102945102953000008D-JR Live Action ID - Sofia the First - Now (Jan20                                                                          150                                
PROFAMCHA131001102953102959000006D-JR - Bumper 8 (May2011)                                                                                                   150                                
PGRFAMCHA131001102959105300002301Disney Sofia the First                            EP: 06                                                               6068605ACC                              
PROFAMCHA131001105300105317000017PAF (HD) Disney Refresh CD - Coming Up Next (April                                                                          150                                
PGRFAMCHA131001105317105447000130Int Who I Am (HD) Dove Cameron (Aug 12-March30)                                                                        60685120                                
PROFAMCHA131001105447105532000045Episodic LAM (HD) 107 New Ep Friday Aft @ 5 (Sep30                                                                          150                                
PROFAMCHA131001105532105715000143Girl vs Monster (HD) Trailer Friday Night @ 8 (Sep                                                                          150                                
PRCFAMCHA131001105715105731000016Family Bumper Flex (HD) Flex ID - Music ID (:14-:1                                                                          150                                
PROFAMCHA131001105731105819000048Jessie (HD) Refresh - Check out Family.ca for Show                                                                          150                                
PRCFAMCHA131001105819105848000029Episodic GLC (HD) 415 Friday Oct 11 @ 730 (Oct1-3                                                                           150                                
PROFAMCHA131001105848105920000032PAF (HD) Delicious Refresh - Coming Up Next (Jun20                                                                          150                                
PROFAMCHA131001105920105949000029Episodic Next Step (HD) 117 Friday Night @ 7 (Sep3                                                                          150                                
PGRFAMCHA131001105949112222002233Disney Phineas and Ferb                           EP: 02                                                               6068607ECC                              
PGRFAMCHA131001112222112544000322MV Non Disney (HD) Ish - Rollin' (Jul12-Jan12)                                                                         10615120CC                              
PROFAMCHA131001112544112559000015ANT Farm (HD) Refresh CT - Coming Up Next (April 2                                                                          150                                
PROFAMCHA131001112559112642000043Stunt Friday Fright Night (HD) Friday Starting @ 5                                                                          150                                
PRCFAMCHA131001112642112718000036BAW (HD) Stand Up & Shout Tutorial Online @ family                                                                          150                                
PRCFAMCHA131001112718112727000009Family Bumper (HD) - Dragonflies ID (Jan 2011)                                                                              150                                
PROFAMCHA131001112727112742000015PSA CMF (HD) Canada on Screen (Nov2012) (3x per da                                                                          150                                
PROFAMCHA131001112742112854000112D-JR Promo - Sofia The First: BTS - Get More on D-                                                                          150                                
PROFAMCHA131001112854112927000033ANT Farm (HD) Refresh - Coming Up Next (Jun2013)                                                                            150                                
PROFAMCHA131001112927112957000030Last Mimzy (HD) Prems Friday Oct 11 @ 8 (Sep 27-Oc                                                                          150                                
PGRFAMCHA131001112957115231002234Disney A.N.T. Farm                                EP: 07                                                               6068607BCC                              
PRCFAMCHA131001115231115301000030Next Step Tour (HD) Hit the Floor Promo (Sep29-Oct                                                                          150                                
PROFAMCHA131001115301115339000038Wingin It (HD) Refresh Promo - Coming Up Next (Apr                                                                          150                                
PROFAMCHA131001115339115408000029Episodic DWAB (HD) 117 Friday Afternoon @ 430 (Sep                                                                          150                                
PROFAMCHA131001115408115453000045Activision                                                                                                                  150                                
PROFAMCHA131001115453115539000046Episodic SIU (HD) 321 Friday Oct 11 @ 630 (Oct1-3/                                                                          150                                
PGRFAMCHA131001115539115724000145ME - Cloudy W/ Meatballs 2 (HD) Now Playing (Sep27                                                                     60685120CC                              
PRCFAMCHA131001115724115742000018Family Bumper Flex (HD) Flex ID - Jessie ID (:15-:                                                                          150                                
PRCFAMCHA131001115742115827000045WOY (HD) Prems Oct 13 @ 215 (Sep 20-Oct 6)                                                                                  150                                
PROFAMCHA131001115827115905000038Wingin It (HD) Refresh Promo - Coming Up Next (Apr                                                                          150                                
PROFAMCHA131001115905115944000039Stunt GLC Thanksgiving Marathon (HD) Monday Oct 14                                                                          150                                
PRCFAMCHA131001115944115958000014Descriptive Video Slate (HD) (Apr2013)                                                                                      150                                
PGRFAMCHA131001115958122229002231Wingin' It                                        EP: 01                                                        C35822 1065607ACD                              
PROFAMCHA131001122229122258000029Episodic Next Step (HD) 117 Friday Night @ 7 (Sep3                                                                          150                                
PGRFAMCHA131001122258122620000322MV Non Disney (HD) BAW 2013 - Stand up and Shout (                                                                     10615120CC                              
PROFAMCHA131001122620122626000006WOWP (HD) ID - Jennifer Stone 2 "Coming Up Next" (                                                                          150                                
PRCFAMCHA131001122626122648000022Monstober MV Tease (HD) Rewind Halloween - Friday                                                                           150                                
PRCFAMCHA131001122648122706000018Family Bumper (HD) - Dominoes ID (Jan 2011)                                                                                 150                                
PROFAMCHA131001122706122756000050D-JR Promo - Henry Hugglemonster - Get more HH on                                                                           150                                
PRCFAMCHA131001122756122819000023Gravity Falls (HD) Comedy Sell - Check out family.                                                                          150                                
PROFAMCHA131001122819122842000023WOWP (HD) Harper - Coming Up Next (April 2013)                                                                              150                                
PRCFAMCHA131001122842122941000059TBM (HD) Summer Fun Sell - Sunday Afternoon @ 130                                                                           150                                
PGRFAMCHA131001122941125214002233Disney Wizards of Waverly Place                   EP: 26                                                               6068607BCC                              
PROFAMCHA131001125214125259000045Episodic LAM (HD) 107 New Ep Friday Aft @ 5 (Sep30                                                                          150                                
PGRFAMCHA131001125259125654000355MV Universal (HD) Taylor Swift - Red (Sep16-Oct25)                                                                     10615120CC                              
PROFAMCHA131001125654125700000006WOWP (HD) ID - Jennifer Stone 1 "Coming Up Next" (                                                                          150                                
PRCFAMCHA131001125700125733000033BAW Campaign (HD) Contest - Check out family.ca (S                                                                          150                                
PRCFAMCHA131001125733125749000016Family Bumper Flex (HD) Flex ID - Really Me Chest                                                                           150                                
PROFAMCHA131001125749125808000019WOWP (HD) Clip Bad Time - Coming Up Next (April 20                                                                          150                                
PROFAMCHA131001125808125951000143Girl vs Monster (HD) Trailer Friday Night @ 8 (Sep                                                                          150                                
PGRFAMCHA131001125951132226002235Disney Wizards of Waverly Place                   EP: 02                                                               6068607BCC                              
PGRFAMCHA131001132226132549000323MV Disney (HD) R5 - Pass Me By (Sep13 - Nov10)                                                                         60685120CC                              
PROFAMCHA131001132549132554000005GLC (HD) ID - Bradley Perry 3 "Coming Up Next" (gi                                                                          150                                
PROFAMCHA131001132554132623000029Episodic DWAB (HD) 117 Friday Afternoon @ 430 (Sep                                                                          150                                
PRCFAMCHA131001132623132653000030Web FOD 2012 Refresh (HD) Family.ca New Look (Apr2                                                                          150                                
PRCFAMCHA131001132653132706000013Family Monstober ID (HD) Zombie Bumper (:10-:13) (                                                                          150                                
PROFAMCHA131001132706132749000043Stunt Friday Fright Night (HD) Friday Starting @ 5                                                                          150                                
PROFAMCHA131001132749132824000035D-JR Promo - Handy Manny - Get more on the channel                                                                          150                                
PRCFAMCHA131001132824132854000030Next Step Tour (HD) Hit the Floor Promo (Sep29-Oct                                                                          150                                
PROFAMCHA131001132854132922000028GLC (HD) Promo 4 - Coming Up Next (April 2013)                                                                              150                                
PROFAMCHA131001132922132952000030Last Mimzy (HD) Prems Friday Oct 11 @ 8 (Sep 27-Oc                                                                          150                                
PGRFAMCHA131001132952135244002252Good Luck Charlie                                 EP: 01                                                               6068707BCC                              
PRCFAMCHA131001135244135313000029Episodic GLC (HD) 415 Friday Oct 11 @ 730 (Oct1-3                                                                           150                                
PGRFAMCHA131001135313135707000354MV Universal (HD) Austin Mahone - What About Love                                                                      10615120CC                              
PROFAMCHA131001135707135723000016Shake It Up (HD) Refresh CD - Coming Up Next (Apri                                                                          150                                
PRCFAMCHA131001135723135808000045DXD Monster Mayhem Mashup Contest (HD) Find Out Mo                                                                          150                                
PRCFAMCHA131001135808135825000017Family Bumper Flex (HD) Flex ID - Jessie ID (:15-:                                                                          150                                
PRCFAMCHA131001135825135847000022Monstober MV Tease (HD) Rewind Halloween - Friday                                                                           150                                
PROFAMCHA131001135847135917000030Shake It Up (HD) Flynn Sell - Coming Up Next (Jun2                                                                          150                                
PROFAMCHA131001135917135946000029Episodic Next Step (HD) 117 Friday Night @ 7 (Sep3                                                                          150                                
PGRFAMCHA131001135946142235002249Disney Shake It Up                                EP: 03                                                               6068707BCC                              
PGRFAMCHA131001142235142435000200Int Who I Am (HD) Luke Benward (Sep1-March30)                                                                          60685120                                
PROFAMCHA131001142435142508000033ANT Farm (HD) Refresh - Coming Up Next (Jun2013)                                                                            150                                
PROFAMCHA131001142508142554000046Episodic SIU (HD) 321 Friday Oct 11 @ 630 (Oct1-3/                                                                          150                                
PRCFAMCHA131001142554142653000059TBM (HD) Summer Fun Sell - Sunday Afternoon @ 130                                                                           150                                
PRCFAMCHA131001142653142706000013Family Monstober ID (HD) Lizard (:10-:13) (Oct2013                                                                          150                                
PRCFAMCHA131001142706142751000045WOY (HD) Prems Oct 13 @ 215 (Sep 20-Oct 6)                                                                                  150                                
PROFAMCHA131001142751142826000035D-JR Promo - Bananas in Pajamas - Clip 1 - Get mor                                                                          150                                
PROFAMCHA131001142826142852000026Web DWAB @ family.ca (HD) Play Games at family.ca                                                                           150                                
PROFAMCHA131001142852142907000015ANT Farm (HD) Refresh CT - Coming Up Next (April 2                                                                          150                                
PROFAMCHA131001142907142946000039Stunt GLC Thanksgiving Marathon (HD) Monday Oct 14                                                                          150                                
PGRFAMCHA131001142946145302002316Disney A.N.T. Farm                                EP: 08                                                               6068607BCC                              
PROFAMCHA131001145302145347000045Episodic LAM (HD) 107 New Ep Friday Aft @ 5 (Sep30                                                                          150                                
PROFAMCHA131001145347145435000048Jessie (HD) Refresh - Coming Up Next (Jun2013)                                                                              150                                
PROFAMCHA131001145435145518000043Stunt Friday Fright Night (HD) Friday Starting @ 5                                                                          150                                
PROFAMCHA131001145518145603000045Activision                                                                                                                  150                                
PGRFAMCHA131001145603145703000100SYN (HD) MV Fifth Harmony - Miss Moving On (Sep13-                                                                     60685120CC                              
PRCFAMCHA131001145703145739000036BAW (HD) Stand Up & Shout Tutorial Online @ family                                                                          150                                
PRCFAMCHA131001145739145750000011Family Bumper Flex (HD) Flex ID - Wingin It (Apr20                                                                          150                                
PROFAMCHA131001145750145805000015Jessie (HD) Refresh CD - Coming Up Next (Apr2013)                                                                           150                                
PROFAMCHA131001145805145948000143Girl vs Monster (HD) Trailer Friday Night @ 8 (Sep                                                                          150                                
PGRFAMCHA131001145948152221002233Disney Jessie                                     EP: 13                                                               6068807BCC                              
PGRFAMCHA131001152221152559000338MV Universal (HD) Serena Ryder - What I Wouldn't D                                                                     10615120CC                              
PROFAMCHA131001152559152632000033Austin & Ally (HD) Music Lesson - Coming Up Next (                                                                          150                                
PROFAMCHA131001152632152701000029Episodic Next Step (HD) 117 Friday Night @ 7 (Sep3                                                                          150                                
PRCFAMCHA131001152701152731000030DXD Meet The Robinsons (HD) Sunday Oct 6 @ 8 (Sep2                                                                          150                                
PGRFAMCHA131001152731152916000145ME - Cloudy W/ Meatballs 2 (HD) Now Playing (Sep27                                                                     60685120CC                              
PRCFAMCHA131001152916152930000014Family Flex Next (HD) A&A Raini (Aug 2013) (:13-:1                                                                          150                                
PRCFAMCHA131001152930152959000029Episodic GLC (HD) 415 Friday Oct 11 @ 730 (Oct1-3                                                                           150                                
PGRFAMCHA131001152959155130002131Disney Austin & Ally                              EP: 04                                                               6068807BCC                              
PGRFAMCHA131001155130155521000351MV Universal (HD) Ellie Goulding - Burn (Sep16-Dec                                                                     10615120CC                              
PROFAMCHA131001155521155536000015ANT Farm (HD) Refresh CT - Coming Up Next (April 2                                                                          150                                
PROFAMCHA131001155536155605000029Episodic DWAB (HD) 117 Friday Afternoon @ 430 (Sep                                                                          150                                
PRCFAMCHA131001155605155622000017Family Bumper Flex (HD) Flex ID - Music ID (:14-:1                                                                          150                                
PROFAMCHA131001155622155655000033Austin & Ally (HD) Music Lesson - Check out family                                                                          150                                
PROFAMCHA131001155655155710000015PSA CMF (HD) Canada on Screen (Nov2012) (3x per da                                                                          150                                
PRCFAMCHA131001155710155743000033BAW Campaign (HD) Contest - Check out family.ca (S                                                                          150                                
PGRFAMCHA131001155743155843000100SYN (HD) Super Buddies - Doggie Down Time (Aug25-O                                                                     60685120CC                              
PROFAMCHA131001155843155916000033ANT Farm (HD) Refresh - Coming Up Next (Jun2013)                                                                            150                                
PROFAMCHA131001155916155946000030Last Mimzy (HD) Prems Friday Oct 11 @ 8 (Sep 27-Oc                                                                          150                                
PGRFAMCHA131001155946162450002504Disney A.N.T. Farm                                EP: 01                                                               6068607BCC                              
PROFAMCHA131001162450162523000033ANT Farm (HD) Refresh - Coming Up Next (Jun2013)                                                                            150                                
PROFAMCHA131001162523162552000029Episodic Next Step (HD) 117 Friday Night @ 7 (Sep3                                                                          150                                
PROFAMCHA131001162552162642000050Walt Disney Studios Home Entertainment                                                                                      150                                
PROFAMCHA131001162642162728000046Episodic SIU (HD) 321 Friday Oct 11 @ 630 (Oct1-3/                                                                          150                                
PRCFAMCHA131001162728162813000045WOY (HD) Prems Oct 13 @ 215 (Sep 20-Oct 6)                                                                                  150                                
PRCFAMCHA131001162813162822000009Family Bumper (HD) - Dragonflies ID (Jan 2011)                                                                              150                                
PRCFAMCHA131001162822162844000022Monstober MV Tease (HD) Rewind Halloween - Friday                                                                           150                                
PROFAMCHA131001162844162859000015ANT Farm (HD) Refresh CT - Coming Up Next (April 2                                                                          150                                
PRCFAMCHA131001162859162958000059TBM (HD) Summer Fun Sell - Sunday Afternoon @ 130                                                                           150                                
PGRFAMCHA131001162958165503002505Disney A.N.T. Farm                                EP: 02                                                               6068607BCC                              
PROFAMCHA131001165503165519000016Shake It Up (HD) Refresh CD - Coming Up Next (Apri                                                                          150                                
PRCFAMCHA131001165519165555000036BAW (HD) Stand Up & Shout Tutorial Online @ family                                                                          150                                
PROFAMCHA131001165555165645000050Walt Disney Studios Home Entertainment                                                                                      150                                
PRCFAMCHA131001165645165714000029Episodic GLC (HD) 415 Friday Oct 11 @ 730 (Oct1-3                                                                           150                                
PRCFAMCHA131001165714165722000008Family Bumper (HD) - Origami ID (Jan 2011)                                                                                  150                                
PRCFAMCHA131001165722165807000045DXD Monster Mayhem Mashup Contest (HD) Find Out Mo                                                                          150                                
PROFAMCHA131001165807165857000050Universal Home Entertainment                                                                                                150                                
PROFAMCHA131001165857165913000016Shake It Up (HD) Refresh CD - Coming Up Next (Apri                                                                          150                                
PROFAMCHA131001165913165958000045Episodic LAM (HD) 107 New Ep Friday Aft @ 5 (Sep30                                                                          150                                
PGRFAMCHA131001165958172301002303Disney Shake It Up                                EP: 01                                                               6068707BCC                              
PROFAMCHA131001172301172346000045Episodic LAM (HD) 107 New Ep Friday Aft @ 5 (Sep30                                                                          150                                
PROFAMCHA131001172346172402000016Shake It Up (HD) Refresh CD - Coming Up Next (Apri                                                                          150                                
PROFAMCHA131001172402172445000043Stunt Friday Fright Night (HD) Friday Starting @ 5                                                                          150                                
PROFAMCHA131001172445172535000050Fox Home & Entertainment                                                                                                    150                                
PROFAMCHA131001172535172604000029Episodic DWAB (HD) 117 Friday Afternoon @ 430 (Sep                                                                          150                                
PGRFAMCHA131001172604172804000200Int Who I Am (HD) Luke Benward (Sep1-March30)                                                                          60685120                                
PROFAMCHA131001172804172836000032PAF (HD) Delicious Refresh - Check family.ca For S                                                                          150                                
PRCFAMCHA131001172836172906000030DXD Meet The Robinsons (HD) Sunday Oct 6 @ 8 (Sep2                                                                          150                                
PRCFAMCHA131001172906172920000014Family Flex Next (HD) SIU Zendaya (Aug 2013) (:13-                                                                          150                                
PRCFAMCHA131001172920172950000030Next Step Tour (HD) Hit the Floor Promo (Sep29-Oct                                                                          150                                
PGRFAMCHA131001172950175310002320Disney Shake It Up                                EP: 02                                                               6068707BCC                              
PROFAMCHA131001175310175356000046Episodic SIU (HD) 321 Friday Oct 11 @ 630 (Oct1-3/                                                                          150                                
PRCFAMCHA131001175356175441000045Austin & Ally (HD) Pitch Perfect - Coming Up Next                                                                           150                                
PGRFAMCHA131001175441175541000100SYN (HD) MV Fifth Harmony - Miss Moving On (Sep13-                                                                     60685120CC                              
PROFAMCHA131001175541175631000050Universal Home Entertainment                                                                                                150                                
PROFAMCHA131001175631175814000143Girl vs Monster (HD) Trailer Friday Night @ 8 (Sep                                                                          150                                
PROFAMCHA131001175814175840000026Web DWAB @ family.ca (HD) Play Games at family.ca                                                                           150                                
PRCFAMCHA131001175840175900000020Family Bumper Flex (HD) Flex ID - ANT Farm (:16-:2                                                                          150                                
PROFAMCHA131001175900175933000033Austin & Ally (HD) Music Lesson - Coming Up Next (                                                                          150                                
PROFAMCHA131001175933180002000029Episodic Next Step (HD) 117 Friday Night @ 7 (Sep3                                                                          150                                
PGRFAMCHA131001180002182233002231Disney Austin & Ally                              EP: 10                                                               6068807BCC                              
PGRFAMCHA131001182233182624000351MV Non Disney (HD) Eleven Past One - The World Is                                                                      10615120CC                              
PRCFAMCHA131001182624182709000045Austin & Ally (HD) Pitch Perfect - Coming Up Next                                                                           150                                
PROFAMCHA131001182709182738000029Episodic DWAB (HD) 117 Friday Afternoon @ 430 (Sep                                                                          150                                
PROFAMCHA131001182738182808000030Last Mimzy (HD) Prems Friday Oct 11 @ 8 (Sep 27-Oc                                                                          150                                
PRCFAMCHA131001182808182841000033BAW Campaign (HD) Contest - Check out family.ca (S                                                                          150                                
PRCFAMCHA131001182841182903000022Monstober MV Tease (HD) Rewind Halloween - Friday                                                                           150                                
PRCFAMCHA131001182903182917000014Family Flex Next (HD) A&A Raini (Aug 2013) (:13-:1                                                                          150                                
PROFAMCHA131001182917183000000043Stunt Friday Fright Night (HD) Friday Starting @ 5                                                                          150                                
PGRFAMCHA131001183000185117002117Disney Austin & Ally                              EP: 12                                                               6068807BCC                              
PROFAMCHA131001185117185147000030Shake It Up (HD) Flynn Sell - Coming Up Next (Jun2                                                                          150                                
PGRFAMCHA131001185147185317000130Int Who I Am (HD) Dove Cameron (Aug 12-March30)                                                                        60685120                                
PROFAMCHA131001185317185402000045Episodic LAM (HD) 107 New Ep Friday Aft @ 5 (Sep30                                                                          150                                
PROFAMCHA131001185402185452000050Fox Home & Entertainment                                                                                                    150                                
PROFAMCHA131001185452185635000143Girl vs Monster (HD) Trailer Friday Night @ 8 (Sep                                                                          150                                
PRCFAMCHA131001185635185705000030Web FOD 2012 Refresh (HD) Family.ca New Look (Apr2                                                                          150                                
PRCFAMCHA131001185705185750000045WOY (HD) Prems Oct 13 @ 215 (Sep 20-Oct 6)                                                                                  150                                
PRCFAMCHA131001185750185806000016Family Bumper Flex (HD) Flex ID - WUW (May2012) (:                                                                          150                                
PRCFAMCHA131001185806185829000023Gravity Falls (HD) Comedy Sell - Check out family.                                                                          150                                
PROFAMCHA131001185829185908000039Stunt GLC Thanksgiving Marathon (HD) Monday Oct 14                                                                          150                                
PROFAMCHA131001185908185924000016Shake It Up (HD) Refresh CD - Coming Up Next (Apri                                                                          150                                
PROFAMCHA131001185924185953000029Episodic Next Step (HD) 117 Friday Night @ 7 (Sep3                                                                          150                                
PGRFAMCHA131001185953192257002304Disney Shake It Up                                EP: 08                                                               6068707BCC                              
PROFAMCHA131001192257192342000045Episodic LAM (HD) 107 New Ep Friday Aft @ 5 (Sep30                                                                          150                                
PROFAMCHA131001192342192409000027GLC (HD) Promo 3 - Coming Up Next (Apr2013)                                                                                 150                                
PROFAMCHA131001192409192459000050Universal Home Entertainment                                                                                                150                                
PROFAMCHA131001192459192528000029Episodic DWAB (HD) 117 Friday Afternoon @ 430 (Sep                                                                          150                                
PGRFAMCHA131001192528192805000237Selena Gomez (HD) Viewer Questions (Aug 31-Nov30)                                                                      10618120                                
PRCFAMCHA131001192805192815000010Family Bumper (HD) - Bobbleheads ID (Jan 2011)                                                                              150                                
PRCFAMCHA131001192815192900000045DXD Monster Mayhem Mashup Contest (HD) Find Out Mo                                                                          150                                
PROFAMCHA131001192900192905000005Good Luck Charlie (HD) ID - Jason Dolley 1 "Coming                                                                          150                                
PRCFAMCHA131001192905193004000059TBM (HD) Summer Fun Sell - Sunday Afternoon @ 130                                                                           150                                
PGRFAMCHA131001193004195205002201Good Luck Charlie                                 EP: 15                                                               6068707BCC                              
PROFAMCHA131001195205195248000043Stunt Friday Fright Night (HD) Friday Starting @ 5                                                                          150                                
PGRFAMCHA131001195248195535000247MV Non Disney (HD) Cody Simpson - Pretty Brown Eye                                                                     10615120CC                              
PROFAMCHA131001195535195541000006GLC (HD) ID - Bridget Mendler 2 "Coming Up Next" (                                                                          150                                
PROFAMCHA131001195541195626000045Activision                                                                                                                  150                                
PROFAMCHA131001195626195809000143Girl vs Monster (HD) Trailer Friday Night @ 8 (Sep                                                                          150                                
PRCFAMCHA131001195809195845000036BAW (HD) Stand Up & Shout Tutorial Online @ family                                                                          150                                
PRCFAMCHA131001195845195902000017Family Bumper Flex (HD) Flex ID - Music ID (:14-:1                                                                          150                                
PROFAMCHA131001195902195930000028GLC (HD) Promo 4 - Coming Up Next (April 2013)                                                                              150                                
PROFAMCHA131001195930195959000029Episodic Next Step (HD) 117 Friday Night @ 7 (Sep3                                                                          150                                
PGRFAMCHA131001195959202349002350Good Luck Charlie                                 EP: 01                                                               6068807BCC                              
PGRFAMCHA131001202349202711000322MV Non Disney (HD) BAW 2013 - Stand up and Shout (                                                                     10615120CC                              
PRCFAMCHA131001202711202740000029Episodic GLC (HD) 415 Friday Oct 11 @ 730 (Oct1-3                                                                           150                                
PROFAMCHA131001202740202813000033ANT Farm (HD) Refresh - Coming Up Next (Jun2013)                                                                            150                                
PROFAMCHA131001202813202843000030Last Mimzy (HD) Prems Friday Oct 11 @ 8 (Sep 27-Oc                                                                          150                                
PRCFAMCHA131001202843202858000015Family Bumper (HD) - Hot Potato ID (Jan 2011)                                                                               150                                
PROFAMCHA131001202858202913000015ANT Farm (HD) Refresh CT - Coming Up Next (April 2                                                                          150                                
PRCFAMCHA131001202913202958000045WOY (HD) Prems Oct 13 @ 215 (Sep 20-Oct 6)                                                                                  150                                
PGRFAMCHA131001202958205214002216Disney A.N.T. Farm                                EP: 20                                                               6068607BCC                              
PGRFAMCHA131001205214205414000200Int Who I Am (HD) Luke Benward (Sep1-March30)                                                                          60685120                                
PROFAMCHA131001205414205452000038Wingin It (HD) Refresh Promo - Coming Up Next (Apr                                                                          150                                
PRCFAMCHA131001205452205551000059TBM (HD) Summer Fun Sell - Sunday Afternoon @ 130                                                                           150                                
PROFAMCHA131001205551205641000050Walt Disney Studios Home Entertainment                                                                                      150                                
PRCFAMCHA131001205641205714000033BAW Campaign (HD) Contest - Check out family.ca (S                                                                          150                                
PROFAMCHA131001205714205800000046Episodic SIU (HD) 321 Friday Oct 11 @ 630 (Oct1-3/                                                                          150                                
PRCFAMCHA131001205800205817000017Family Bumper Flex (HD) Flex ID - Jessie ID (:15-:                                                                          150                                
PRCFAMCHA131001205817205847000030DXD Meet The Robinsons (HD) Sunday Oct 6 @ 8 (Sep2                                                                          150                                
PROFAMCHA131001205847205925000038Wingin It (HD) Refresh Promo - Coming Up Next (Apr                                                                          150                                
PROFAMCHA131001205925205954000029Episodic Next Step (HD) 117 Friday Night @ 7 (Sep3                                                                          150                                
PRCFAMCHA131001205954210008000014Descriptive Video Slate (HD) (Apr2013)                                                                                      150                                
PGRFAMCHA131001210008212240002232Wingin' It                                        EP: 07                                                        C32356 1065607ACD                              
PGRFAMCHA131001212240212634000354MV Universal (HD) Austin Mahone - What About Love                                                                      10615120CC                              
PROFAMCHA131001212634212704000030Really Me (HD) S2 Promo - Coming Up Next (April 20                                                                          150                                
PROFAMCHA131001212704212749000045Episodic LAM (HD) 107 New Ep Friday Aft @ 5 (Sep30                                                                          150                                
PRCFAMCHA131001212749212802000013Family Bumper (HD) - Karate ID (Jan 2011)                                                                                   150                                
PRCFAMCHA131001212802212824000022Monstober MV Tease (HD) Rewind Halloween - Friday                                                                           150                                
PRCFAMCHA131001212824212854000030Next Step Tour (HD) Hit the Floor Promo (Sep29-Oct                                                                          150                                
PROFAMCHA131001212854212924000030Really Me (HD) S2 Promo - Coming Up Next (April 20                                                                          150                                
PROFAMCHA131001212924213003000039Stunt GLC Thanksgiving Marathon (HD) Monday Oct 14                                                                          150                                
PRCFAMCHA131001213003213017000014Descriptive Video Slate (HD) (Apr2013)                                                                                      150                                
PGRFAMCHA131001213017215250002233Really Me                                         EP: 10                                                        B33828 1065607BCD                              
PROFAMCHA131001215250215319000029Episodic Next Step (HD) 117 Friday Night @ 7 (Sep3                                                                          150                                
PGRFAMCHA131001215319215659000340MV Universal (HD) Capital Cities - Safe and Sound                                                                      10615120CC                              
PROFAMCHA131001215659215704000005GLC (HD) ID - Jason Dolley 2 - "Coming Up Next" (g                                                                          150                                
PROFAMCHA131001215704215733000029Episodic DWAB (HD) 117 Friday Afternoon @ 430 (Sep                                                                          150                                
PRCFAMCHA131001215733215746000013Family Monstober ID (HD) Zombie Bumper (:10-:13) (                                                                          150                                
PRCFAMCHA131001215746215831000045DXD Monster Mayhem Mashup Contest (HD) Find Out Mo                                                                          150                                
PROFAMCHA131001215831215858000027GLC (HD) Promo 3 - Coming Up Next (Apr2013)                                                                                 150                                
PRCFAMCHA131001215858215957000059TBM (HD) Summer Fun Sell - Sunday Afternoon @ 130                                                                           150                                
PGRFAMCHA131001215957222345002348Good Luck Charlie                                 EP: 01                                                               6068807BCC                              
PRCFAMCHA131001222345222414000029Episodic GLC (HD) 415 Friday Oct 11 @ 730 (Oct1-3                                                                           150                                
PROFAMCHA131001222414222502000048Jessie (HD) Refresh - Coming Up Next (Jun2013)                                                                              150                                
PGRFAMCHA131001222502222818000316MV Non Disney (HD) Anastasia A - My Love (May29-No                                                                     10615120CC                              
PROFAMCHA131001222818222833000015PSA CMF (HD) Canada on Screen (Nov2012) (3x per da                                                                          150                                
PROFAMCHA131001222833222903000030D-JR Promo - Little Einsteins - Get more on D-JR t                                                                          150                                
PRCFAMCHA131001222903222917000014Family Flex Next (HD) Jessie - Emma (:12-:14) (Mar                                                                          150                                
PRCFAMCHA131001222917223002000045WOY (HD) Prems Oct 13 @ 215 (Sep 20-Oct 6)                                                                                  150                                
PGRFAMCHA131001223002225251002249Disney Jessie                                     EP: 01                                                               6068807BCC                              
PROFAMCHA131001225251225320000029Episodic DWAB (HD) 117 Friday Afternoon @ 430 (Sep                                                                          150                                
PROFAMCHA131001225320225326000006WOWP (HD) ID - Jennifer Stone 1 "Coming Up Next" (                                                                          150                                
PROFAMCHA131001225326225509000143Girl vs Monster (HD) Trailer Friday Night @ 8 (Sep                                                                          150                                
PRCFAMCHA131001225509225539000030Next Step Tour (HD) Hit the Floor Promo (Sep29-Oct                                                                          150                                
PRCFAMCHA131001225539225553000014Family Bumper Flex (HD) Flex ID - Wingin It (Apr20                                                                          150                                
PRCFAMCHA131001225553225629000036BAW (HD) Stand Up & Shout Tutorial Online @ family                                                                          150                                
PGRFAMCHA131001225629225906000237Selena Gomez (HD) Viewer Questions (Aug 31-Nov30)                                                                      10618120                                
PROFAMCHA131001225906225912000006WOWP (HD) ID - Jennifer Stone 2 "Coming Up Next" (                                                                          150                                
PROFAMCHA131001225912225958000046Episodic SIU (HD) 321 Friday Oct 11 @ 630 (Oct1-3/                                                                          150                                
PGRFAMCHA131001225958232231002233Disney Wizards of Waverly Place                   EP: 26                                                               6068607BCC                              
PROFAMCHA131001232231232316000045Episodic LAM (HD) 107 New Ep Friday Aft @ 5 (Sep30                                                                          150                                
PGRFAMCHA131001232316232654000338MV Universal (HD) Serena Ryder - What I Wouldn't D                                                                     10615120CC                              
PRCFAMCHA131001232654232739000045DXD Monster Mayhem Mashup Contest (HD) Find Out Mo                                                                          150                                
PRCFAMCHA131001232739232747000008Family Bumper (HD) - Origami ID (Jan 2011)                                                                                  150                                
PROFAMCHA131001232747232839000052D-JR Promo - Doc McStuffins - Get more on the chan                                                                          150                                
PROFAMCHA131001232839232927000048Jessie (HD) Refresh - Check out Family.ca for Show                                                                          150                                
PROFAMCHA131001232927233006000039Stunt GLC Thanksgiving Marathon (HD) Monday Oct 14                                                                          150                                
PGRFAMCHA131001233006235430002424The Elephant Princess                             EP: 16                                                               7068507ACC                              
PGRFAMCHA131001235430235830000400MV Non Disney (HD) Young Avz - That Song On The Ra                                                                     10615120CC                              
PRCFAMCHA131001235830235900000030DXD Meet The Robinsons (HD) Sunday Oct 6 @ 8 (Sep2                                                                          150                                
PRCFAMCHA131001235900235918000018Family Bumper Flex (HD) Flex ID - Music ID (:14-:1                                                                          150                                
PROFAMCHA131001235918235945000027GLC (HD) Promo 3 - Check Out Family.ca for Show Ti                                                                          150                                
PRCFAMCHA131001235945000007000022Monstober MV Tease (HD) Rewind Halloween - Friday                                                                           150                                
PGRFAMCHA131001000007002243002236The Latest Buzz                                   EP: 11                                                        C30362 1065607BCC                              
PROFAMCHA131001002243002312000029Episodic Next Step (HD) 117 Friday Night @ 7 (Sep3                                                                          150                                
PGRFAMCHA131001002312002648000336MV Non Disney (HD) Tenille - Dear Heart (June9-Dec                                                                     10615120CC                              
PRCFAMCHA131001002648002721000033BAW Campaign (HD) Contest - Check out family.ca (S                                                                          150                                
PRCFAMCHA131001002721002736000015Family Bumper (HD) - Hot Potato ID (Jan 2011)                                                                               150                                
PROFAMCHA131001002736002801000025D-JR Promo - JATNP - Get more on the channel REV (                                                                          150                                
PGRFAMCHA131001002801002931000130MV Disney (HD) R5 - Pass Me By (Sep13 - Nov10)                                                                         60685120CC                              
PROFAMCHA131001002931003001000030Last Mimzy (HD) Prems Friday Oct 11 @ 8 (Sep 27-Oc                                                                          150                                
PGRFAMCHA131001003001005233002232Overruled!                                        EP: 02                                                        C30129 1065607BCC                              
PROFAMCHA131001005233005316000043Stunt Friday Fright Night (HD) Friday Starting @ 5                                                                          150                                
PROFAMCHA131001005316005459000143Girl vs Monster (HD) Trailer Friday Night @ 8 (Sep                                                                          150                                
PRCFAMCHA131001005459005515000016Family Bumper Flex (HD) Flex ID - Really Me Chest                                                                           150                                
PROFAMCHA131001005515005556000041Web Next Step Online Mashup (HD) On family.ca (Mar                                                                          150                                
PGRFAMCHA131001005556005843000247MV Non Disney (HD) Cody Simpson - Pretty Brown Eye                                                                     10615120CC                              
PRCFAMCHA131001005843005912000029Episodic GLC (HD) 415 Friday Oct 11 @ 730 (Oct1-3                                                                           150                                
PRCFAMCHA131001005912005957000045WOY (HD) Prems Oct 13 @ 215 (Sep 20-Oct 6)                                                                                  150                                
PRCFAMCHA131001005957010011000014Descriptive Video Slate (HD) (Apr2013)                                                                                      150                                
PGRFAMCHA131001010011012244002233DEBRA!                                            EP: 04                                                        C35763 1065607ACD                              
PRCFAMCHA131001012244012304000020Family Bumper (HD) - Wallpaper ID (Jan 2011)                                                                                150                                
PGRFAMCHA131001012304014600002256What's Up, Warthogs!                              EP: 07                                                        B33327 1065607BCC                              
PRCFAMCHA131001014600014620000020Family Bumper Flex (HD) Flex ID - ANT Farm (:16-:2                                                                          150                                
PGRFAMCHA131001014620020854002234Disney Wizards of Waverly Place                   EP: 02                                                               6068607BCC                              
PRCFAMCHA131001020854020907000013Family Monstober ID (HD) Lizard (:10-:13) (Oct2013                                                                          150                                
PGRFAMCHA131001020907023340002433The Elephant Princess                             EP: 05                                                               7068507ACC                              
PRCFAMCHA131001023340023358000018Family Bumper Flex (HD) Flex ID - Jessie ID (:15-:                                                                          150                                
PGRFAMCHA131001023358025629002231Life With Derek                                   EP: 18                                                        C24891 1065607BCC                              
PRCFAMCHA131001025629025639000010Family Bumper (HD) - Bobbleheads ID (Jan 2011)                                                                              150                                
PGRFAMCHA131001025639031841002202Slugterra                                         EP: 22                                                        A33763 1065607ACC                              
PRCFAMCHA131001031841031908000027Family Bumper Flex (HD) Flex ID - Austin & Ally (F                                                                          150                                
PGRFAMCHA131001031908034140002232Overruled!                                        EP: 10                                                        C28762 1065607ACC                              
PRCFAMCHA131001034140034200000020Family Bumper (HD) - Wallpaper ID (Jan 2011)                                                                                150                                
PGRFAMCHA131001034200040435002235The Latest Buzz                                   EP: 06                                                        C30362 1065607BCC                              
PRCFAMCHA131001040435040449000014Family Bumper Flex (HD) Flex ID - WUW (May2012) (:                                                                          150                                
PGRFAMCHA131001040449042719002230Life with Derek                                   EP: 08                                                        C26822 1065607BCC                              
PRCFAMCHA131001042719042802000043D-JR Promo Halloween Once Upon (HD) Weekdays @ 6 (                                                                          150                                
PROFAMCHA131001042802042854000052D-JR Promo - Doc McStuffins - Get more on the chan                                                                          150                                
PROFAMCHA131001042854042919000025D-JR Promo - JATNP - Get more on the channel REV (                                                                          150                                
PROFAMCHA131001042919042949000030D-JR Promo - On demand online REVISED - D-JR.ca (M                                                                          150                                
PROFAMCHA131001042949042959000010D-JR - Flex ID - Yellow (:6-:10) (Feb2012)                                                                                  150                                
OFFFAMCHA131001042959043000000001OFF AIR                                                                                                                                                        
PGRFAMCHA131002043000045230002230The Secret World of Benjamin Bear                 EP: 37                                                        C27272 1065607ECC                              
PROFAMCHA131002045230045237000007D-JR Live Action ID - Franny's Feet - Coming Up (M                                                                          150                                
PROFAMCHA131002045237045302000025D-JR Live Action ID - #15 Sidewalk Chalk (Sep2013)                                                                          150                                
PROFAMCHA131002045302045400000058D-JR Promo - Jake's Neverland Rescue- Sat Oct 5 on                                                                          150                                
PROFAMCHA131002045400045452000052D-JR Promo - Doc McStuffins - Get more on the chan                                                                          150                                
PROFAMCHA131002045452045522000030D-JR Promo - On demand online REVISED - D-JR.ca (M                                                                          150                                
PROFAMCHA131002045522045547000025D-JR Live Action ID - #39 Treasure Hunt (Sep2013)                                                                           150                                
PROFAMCHA131002045547045554000007D-JR Live Action ID - Franny's Feet - Now (May2012                                                                          150                                
PROFAMCHA131002045554045601000007D-JR - Flex ID - Blue (:6-:10) (Feb2012)                                                                                    150                                
PGRFAMCHA131002045601051832002231Franny's Feet                                     EP: 51                                                        C31292 1065607ECC                              
PROFAMCHA131002051832051839000007D-JR Live Action ID - SWOBB - Coming Up (May2012)                                                                           150                                
PROFAMCHA131002051839051904000025D-JR Live Action ID - #25 Planting Pumpkins (Sep20                                                                          150                                
PRCFAMCHA131002051904051947000043D-JR Promo Halloween Once Upon (HD) Weekdays @ 6 (                                                                          150                                
PROFAMCHA131002051947052039000052D-JR Promo - Doc McStuffins - Get more on the chan                                                                          150                                
PROFAMCHA131002052039052104000025D-JR Live Action ID - #67 Play Dressup (Sep2013)                                                                            150                                
PROFAMCHA131002052104052111000007D-JR Live Action ID - SWOBB - Now (May2012)                                                                                 150                                
PROFAMCHA131002052111052119000008D-JR - Flex ID - Green (:6-:10) (Feb2012)                                                                                   150                                
PGRFAMCHA131002052119054354002235The Secret World of Benjamin Bear                 EPS # 1-011                                                   B75156 1065607ECC                              
PROFAMCHA131002054354054401000007D-JR Live Action ID - Harry & His Dinosaurs - Comi                                                                          150                                
PROFAMCHA131002054401054426000025D-JR Live Action ID - #71 Making Cards (Sept2012)                                                                           150                                
PROFAMCHA131002054426054433000007D-JR - Flex ID - Purple (:6-:10) (Feb2012)                                                                                  150                                
PROFAMCHA131002054433054458000025D-JR Live Action ID - #8 Reading Book/Quiet Time (                                                                          150                                
PROFAMCHA131002054458054505000007D-JR Live Action ID - Harry & His Dinosaurs - Now                                                                           150                                
PGRFAMCHA131002054505060641002136Harry and His Bucket Full of Dinosaurs            EP: 05                                                        B05024 1065607ECC                              
PROFAMCHA131002060641060649000008D-JR Live Action ID - Stella & Sam - Coming Up (Ma                                                                          150                                
PROFAMCHA131002060649060714000025D-JR Live Action ID - #96 Piano (Sep2013)                                                                                   150                                
PRCFAMCHA131002060714060757000043D-JR Promo Halloween Once Upon (HD) Weekdays @ 6 (                                                                          150                                
PROFAMCHA131002060757060827000030D-JR Promo - Tickety Toc - Time to Chime - Get mor                                                                          150                                
PROFAMCHA131002060827060925000058D-JR Promo - Jake's Neverland Rescue- Sat Oct 5 on                                                                          150                                
PROFAMCHA131002060925060950000025D-JR Live Action ID - #94 Jump Rope (Sep2013)                                                                               150                                
PROFAMCHA131002060950060958000008D-JR Live Action ID - Stella & Sam - Now (Mar2013)                                                                          150                                
PROFAMCHA131002060958061005000007D-JR - Flex ID - Yellow (:6-:10) (Feb2012)                                                                                  150                                
PGRFAMCHA131002061005063320002315Stella and Sam                                    EP: 03                                                        C33973 1025607ECD                              
PRCFAMCHA131002063320063405000045WOY (HD) Prems Oct 13 @ 215 (Sep 20-Oct 6)                                                                                  150                                
PRCFAMCHA131002063405063415000010Family Bumper Flex (HD) Flex ID - Wingin It (Apr20                                                                          150                                
PROFAMCHA131002063415063432000017PAF (HD) Disney Refresh CD - Coming Up Next (April                                                                          150                                
PROFAMCHA131002063432063501000029Episodic DWAB (HD) 117 Friday Afternoon @ 430 (Sep                                                                          150                                
PGRFAMCHA131002063501065731002230Disney Phineas & Ferb                             EP: 24                                                               6068607ECC                              
PROFAMCHA131002065731065812000041Web Next Step Online Mashup (HD) On family.ca (Mar                                                                          150                                
PROFAMCHA131002065812065902000050Fox Home & Entertainment                                                                                                    150                                
PROFAMCHA131002065902065947000045Episodic LAM (HD) 107 New Ep Friday Aft @ 5 (Sep30                                                                          150                                
PRCFAMCHA131002065947070001000014Family Flex Next (HD) SIU Zendaya (Aug 2013) (:13-                                                                          150                                
PGRFAMCHA131002070001072234002233Disney Shake It Up                                EP: 01                                                               6068707BCC                              
PROFAMCHA131002072234072244000010LU - (HD) ANT Farm/Jessie @ 7:50am (April 2013)                                                                             150                                
PROFAMCHA131002072244072330000046Episodic SIU (HD) 321 Friday Oct 11 @ 630 (Oct1-3/                                                                          150                                
PRCFAMCHA131002072330072347000017Monstober Fave Costume (HD) Isaac Lupien TNS (Oct1                                                                          150                                
PRCFAMCHA131002072347072358000011Family Monstober ID (HD) Lizard (:10-:13) (Oct2013                                                                          150                                
PROFAMCHA131002072358072448000050Universal Home Entertainment                                                                                                150                                
PROFAMCHA131002072448072503000015ANT Farm (HD) Refresh CT - Coming Up Next (April 2                                                                          150                                
PGRFAMCHA131002072503074819002316Disney A.N.T. Farm                                EP: 08                                                               6068607BCC                              
PROFAMCHA131002074819074829000010LU - (HD) Jessie/WOWP @ 8:15am (April 2013)                                                                                 150                                
PROFAMCHA131002074829074858000029Episodic Next Step (HD) 117 Friday Night @ 7 (Sep3                                                                          150                                
PROFAMCHA131002074858074943000045Activision                                                                                                                  150                                
PRCFAMCHA131002074943075019000036BAW (HD) Stand Up & Shout Tutorial Online @ family                                                                          150                                
PRCFAMCHA131002075019075032000013Family Flex Next (HD) Jessie - Jessie  (:12-:14) (                                                                          150                                
PROFAMCHA131002075032075102000030Last Mimzy (HD) Prems Friday Oct 11 @ 8 (Sep 27-Oc                                                                          150                                
PGRFAMCHA131002075102081337002235Disney Jessie                                     EP: 04                                                               6068807BCC                              
PRCFAMCHA131002081337081422000045WOY (HD) Prems Oct 13 @ 215 (Sep 20-Oct 6)                                                                                  150                                
PROFAMCHA131002081422081512000050Walt Disney Studios Home Entertainment                                                                                      150                                
PRCFAMCHA131002081512081611000059TBM (HD) Summer Fun Sell - Sunday Afternoon @ 130                                                                           150                                
PGRFAMCHA131002081611081711000100SYN (HD) MV Fifth Harmony - Miss Moving On (Sep13-                                                                     60685120CC                              
PRCFAMCHA131002081711081719000008Family Bumper (HD) - Origami ID (Jan 2011)                                                                                  150                                
PRCFAMCHA131002081719081749000030Next Step Tour (HD) Hit the Floor Promo (Sep29-Oct                                                                          150                                
PROFAMCHA131002081749081808000019WOWP (HD) Clip Bad Time - Coming Up Next (April 20                                                                          150                                
PGRFAMCHA131002081808084040002232Disney Wizards of Waverly Place                   EP: 22                                                               6068507BCC                              
PROFAMCHA131002084040084048000008D-JR Live Action ID - Tickity Toc - Coming Up (Mar                                                                          150                                
PROFAMCHA131002084048084113000025D-JR Live Action ID - #34 Hide N Seek (Sep2013)                                                                             150                                
PROFAMCHA131002084113084211000058D-JR Promo - Jake's Neverland Rescue- Sat Oct 5 on                                                                          150                                
PROFAMCHA131002084211084251000040The Walt Disney Company                                                                                                     150                                
PROFAMCHA131002084251084333000042D-JR Promo - Bananas in Pajamas - Get more on the                                                                           150                                
PROFAMCHA131002084333084423000050D-JR Promo - Henry Hugglemonster - Get more HH on                                                                           150                                
PROFAMCHA131002084423084448000025D-JR Live Action ID - #44 Fold Towels (Sept2012)                                                                            150                                
PROFAMCHA131002084448084456000008D-JR Live Action ID - Tickity Toc - Now (Mar2013)                                                                           150                                
PROFAMCHA131002084456084504000008D-JR - Flex ID - Blue (:6-:10) (Feb2012)                                                                                    150                                
PGRFAMCHA131002084504085607001103Tickety Toc                                       EP: 05                                                               3068605ACC                              
PGRFAMCHA131002085607090722001115Tickety Toc                                       EP: 06                                                               3068605ACC                              
PROFAMCHA131002090722090730000008D-JR Live Action ID - Little Einsteins - Coming Up                                                                          150                                
PROFAMCHA131002090730090755000025D-JR Live Action ID - #47 Making Breakfast (May201                                                                          150                                
PRCFAMCHA131002090755090838000043D-JR Promo Halloween Once Upon (HD) Weekdays @ 6 (                                                                          150                                
PROFAMCHA131002090838090928000050D-JR Promo - Henry Hugglemonster - Get more HH on                                                                           150                                
PROFAMCHA131002090928091026000058D-JR Promo - Jake's Neverland Rescue- Sat Oct 5 on                                                                          150                                
PROFAMCHA131002091026091051000025D-JR Live Action ID - #50 Feed Dog (Sep2013)                                                                                150                                
PROFAMCHA131002091051091059000008D-JR Live Action ID - Little Einsteins - Now (Nov2                                                                          150                                
PROFAMCHA131002091059091106000007D-JR - Flex ID - Green (:6-:10) (Feb2012)                                                                                   150                                
PGRFAMCHA131002091106093511002405Disney's Little Einsteins                         EP: 17                                                               6068605ACC                              
PROFAMCHA131002093511093518000007D-JR Live Action ID - Handy Manny - Coming Up (May                                                                          150                                
PROFAMCHA131002093518093543000025D-JR Live Action ID - #51 Chores Board (Sep2013)                                                                            150                                
PROFAMCHA131002093543093613000030D-JR Promo - On demand online REVISED - D-JR.ca (M                                                                          150                                
PROFAMCHA131002093613093628000015D-JR Promo - Sofia The First: Clip 3 - Get More We                                                                          150                                
PROFAMCHA131002093628093653000025D-JR Live Action ID - #63 Wash Face (Sep2013)                                                                               150                                
PROFAMCHA131002093653093700000007D-JR Live Action ID - Handy Manny - Now (May2012)                                                                           150                                
PROFAMCHA131002093700093707000007D-JR - Flex ID - Purple (:6-:10) (Feb2012)                                                                                  150                                
PGRFAMCHA131002093707100105002358Handy Manny                                       EP: 03                                                               6068605ACC                              
PROFAMCHA131002100105100113000008D-JR Live Action ID - Jake & the Never Land Pirate                                                                          150                                
PROFAMCHA131002100113100138000025D-JR Live Action ID - #9 Ride A Bike (Sep2013)                                                                              150                                
PRCFAMCHA131002100138100221000043D-JR Promo Halloween Once Upon (HD) Weekdays @ 6 (                                                                          150                                
PROFAMCHA131002100221100301000040The Walt Disney Company                                                                                                     150                                
PROFAMCHA131002100301100321000020D-JR Promo - Sofia The First: Clip 1 - Get More We                                                                          150                                
PROFAMCHA131002100321100346000025D-JR Live Action ID - #94 Jump Rope (Sep2013)                                                                               150                                
PROFAMCHA131002100346100353000007D-JR Live Action ID - Jake & the Never Land Pirate                                                                          150                                
