SO FAMCHA060801043000043011000011Sign On (oct 1)                                                                                                                                                
PRCFAMCHA060801043011043020000009CC Disclaimer - FAST - Family.ca (:08-:10)                                                                                  150                                
PGRFAMCHA060801043020045658002638Katie And Orbie                                   EP: 4-052                                                     C19664A1065607ECC                              
PRCFAMCHA060801045658045713000015PH - 02 - FRANNY/SOMETHING/HOZE  (:14 - :16) (APR0                                                                          150                                
ID FAMCHA060801045713045726000013PS Playhouse AM Block Open (:10-:15)                                                                                        150                                
PRCFAMCHA060801045726045735000009CC Disclaimer - FAST - Generic (:08-:10)                                                                                    150                                
PGRFAMCHA060801045735052005002230Franny's Feet                                     EPS # 28                                                      C23971 1065607ECC                              
PRCFAMCHA060801052005052010000005Astral ID (FEB05)                                                                                                           150                                
PRCFAMCHA060801052010052025000015PH - 03 - SOMETHING/HOZE/KING (:14 - :16) (APR06)                                                                           150                                
ID FAMCHA060801052025052038000013PS Playhouse AM Block Open (:10-:15)                                                                                        150                                
PRCFAMCHA060801052038052047000009CC Disclaimer - FAST - Family.ca (:08-:10)                                                                                  150                                
PGRFAMCHA060801052047054318002231Something Else                                    EP: 1-010                                                     B69264A1065607ECC                              
PRCFAMCHA060801054318054333000015PH - 04 - HOZE/KING/SPIDERMAN (:14 - :16) (APR06)                                                                           150                                
PRCFAMCHA060801054333054342000009CC Disclaimer - FAST - Generic (:08-:10)                                                                                    150                                
PGRFAMCHA060801054342060617002235Hoze Houndz                                       EP: 2-016                                                     B34005A1065607ECC                              
PRCFAMCHA060801060617060622000005Astral ID (FEB05)                                                                                                           150                                
PRCFAMCHA060801060622060637000015PH - 05 - KING/SPIDERMAN/KIM  (:14 - :16) (APR06)                                                                           150                                
ID FAMCHA060801060637060650000013PS Playhouse AM Block Open (:10-:15)                                                                                        150                                
PRCFAMCHA060801060650060659000009CC Disclaimer - FAST - Family.ca (:08-:10)                                                                                  150                                
PGRFAMCHA060801060659062929002230King                                              EP: 005                                                       B75760A1065607ECC                              
PRCFAMCHA060801062929062944000015PH - 06 - SPIDERMAN/KIM ( (:14 - :16) (APR06)                                                                               150                                
PROFAMCHA060801062944063003000019MadMadMornings Block Open                                                                                                   150                                
PGRFAMCHA060801063003065144002141Spiderman                                         EP: 05                                                        C02618 1065607E                                
PRCFAMCHA060801065144065149000005Astral ID (FEB05)                                                                                                           150                                
PRCFAMCHA060801065149065205000016MMM - 01 (AM) - KIM/RECESS/WEEKENDERS (OCT05) (:14                                                                          150                                
PROFAMCHA060801065205065242000037xxHannah Montana - Achy Breaky NS (JULY 06) Prem F                                                                          150                                
PROFAMCHA060801065242065256000014xxKim Possible ARM (MMM) (MAY 06) Coming Up Next                                                                            150                                
PROFAMCHA060801065256065321000025Recess - CAREER DAY (MMM) - (JULY06) - This mornin                                                                          150                                
PROFAMCHA060801065321065331000010FAMJAM - Open/Close                                                                                                         150                                
PGRFAMCHA060801065331065446000115MV Disney - (FAMILY HITS) - Naked Mole Rap                                                                             60688120                                
PROFAMCHA060801065446065500000014xxFAMJAM - Close (FAMILY) xxDNUxx                                                                                           150                                
PRCFAMCHA060801065500065530000030xxPsychedelic Summer Stunt #1 (MMM, MD, NS, NSW) T                                                                          150                                
PRCFAMCHA060801065530065541000011xxPsychedelic Summer Billboard (AUG ) July29 - Aug                                                                          150                                
PROFAMCHA060801065541065600000019MadMadMornings Block Open                                                                                                   150                                
PGRFAMCHA060801065600071848002248Disney's Kim Possible                             EPS # 1-024                                                         A6068607E                                
PRCFAMCHA060801071848071903000015MMM - 02 (AM) - RECESS/WEEKENDERS/LILO (OCT05) (:1                                                                          150                                
PRCFAMCHA060801071903071943000040xxPsychedelic Summer Chill Event (1xMMM 1xMD 2xNS                                                                           150                                
PROFAMCHA060801071943072008000025Recess - CAREER DAY (MMM) - (JULY06) - Coming Up N                                                                          150                                
PGRFAMCHA060801072008072138000130xxMovie Surfers - Pirates - Interstitial #3 Now Pl                                                                    A60688120                                
PROFAMCHA060801072138072214000036Weekenders - PIZZA (MMM) - (APR06) - This Morning                                                                           150                                
PRCFAMCHA060801072214072238000024Life WD Derek Bloopers #12 (MD/NS/NSW)                                                                                      150                                
PROFAMCHA060801072238072311000033Lilo & Stitch (MMM) DANCE (JUNE06) - This morn @ 8                                                                          150                                
PROFAMCHA060801072311072341000030xxSuite Life of Z & C - MD(Psych S)(JULY 06) New E                                                                          150                                
PROFAMCHA060801072341072400000019MadMadMornings Block Open                                                                                                   150                                
PGRFAMCHA060801072400074650002250Disney's Recess                                   EP: 1-060                                                           A6068607E                                
PRCFAMCHA060801074650074655000005Astral ID (FEB05)                                                                                                           150                                
PRCFAMCHA060801074655074709000014PH - 07 - WEEKENDERS/LILO/EINSTEINS (:14 - :16) (A                                                                          150                                
PROFAMCHA060801074709074746000037xxHannah Montana - Achy Breaky NS (JULY 06) Prem F                                                                          150                                
PROFAMCHA060801074746074822000036Weekenders - PIZZA (MMM) - (APR06) - Coming Up Nex                                                                          150                                
PROFAMCHA060801074822074838000016Barnyard Billboard (July 23 - Aug 6)                                                                                        150                                
PROFAMCHA060801074838074911000033Lilo & Stitch (MMM) DANCE (JUNE06) - This morn @ 8                                                                          150                                
PROFAMCHA060801074911074919000008xxPsych Summmer Bumper - PS Dog                                                                                             150                                
PROFAMCHA060801074919074933000014xxEmperor's New School STRAW - NSW - Weekend after                                                                          150                                
PROFAMCHA060801074933075003000030Shaggy Dog (Available Now) (Aug1-6)                                                                                         150                                
PRCFAMCHA060801075003075020000017xxPsychedelic Summer Web #1 ( 1xMMM 1xMD 1xNS, 1xN                                                                          150                                
PRCFAMCHA060801075020075041000021xxPsychedelic Summer ID 1 -Thurs and Fri nights @                                                                           150                                
PROFAMCHA060801075041075100000019MadMadMornings Block Open                                                                                                   150                                
PRCFAMCHA060801075100075109000009CC Disclaimer - FAST - Family.ca (:08-:10)                                                                                  150                                
PGRFAMCHA060801075109081356002247Disney's The Weekenders                           EP: 1-032                                                           A6068607ECC                              
PRCFAMCHA060801081356081411000015PH - 08 - LILO/EINSTEINS/WINNIE (:14 - :16) (APR06                                                                          150                                
PROFAMCHA060801081411081444000033Lilo & Stitch (MMM) DANCE (JUNE06) - coming Up Nex                                                                          150                                
PRCFAMCHA060801081444081544000100xxPsychedelic Summer CONTEST (1xMMM 1xMD 2NS - 4NS                                                                          150                                
PROFAMCHA060801081544081623000039Lloyd In Space (NOTES) (AUG06) MD- This afternoon                                                                           150                                
PROFAMCHA060801081623081630000007MadMadMornings Bumper                                                                                                       150                                
PROFAMCHA060801081630081704000034Proud Family (JULY06) MOM YELLS (MD) -  This After                                                                          150                                
PROFAMCHA060801081704081711000007Aly & A.J. IDs - (ALY) You're Watching Family, NAD                                                                          150                                
PROFAMCHA060801081711081741000030xxSuite Life of Z & C - MD(Psych S)(JULY 06) New E                                                                          150                                
PROFAMCHA060801081741081800000019MadMadMornings Block Open                                                                                                   150                                
PGRFAMCHA060801081800084039002239Disney's Lilo & Stitch                            EPS # 39                                                            A6068607E                                
PRCFAMCHA060801084039084044000005Astral ID (FEB05)                                                                                                           150                                
PRCFAMCHA060801084044084059000015PH - 09 -EINSTEINS/WINNIE/PB&J  (:14 - :16) (APR06                                                                          150                                
PROFAMCHA060801084059084129000030Little Einstein (PH) (PRESCHOOL) - Coming Up Next                                                                           150                                
PROFAMCHA060801084129084159000030Little Einsteins Blast (3x PH)                                                                                        A     150                                
PROFAMCHA060801084159084229000030Winnie the Pooh (PH/AM) (APR06) - This Morning @ 9                                                                          150                                
PRCFAMCHA060801084229084241000012Benjamin Bear - Slide (PH-Tue) (APR06) - This Morn                                                                          150                                
PROFAMCHA060801084241084347000106Playhouse - WINNIE THE POOH - Christopher Robin                                                                             150                                
PROFAMCHA060801084347084447000100Mickey Mouse Clubhouse (Video 1) Friday morn @ 10:                                                                          150                                
ID FAMCHA060801084447084500000013PS Playhouse AM Block Open (:10-:15)                                                                                        150                                
PGRFAMCHA060801084500090905002405Disney's Little Einsteins                         EP: 17                                                               6068607E                                
PRCFAMCHA060801090905090919000014PH - 10 -WINNIE/PB&J/JOJO  (:14 - :16) (APR06)                                                                              150                                
PROFAMCHA060801090919090949000030Winnie the Pooh (PH/AM) (APR06) - Coming Up Next                                                                            150                                
PRCFAMCHA060801090949091016000027Playhouse Web Promo - Family.ca                                                                                             150                                
PRCFAMCHA060801091016091036000020Benjamin Bear - Snack (PHTue) (APR06) - This Morn                                                                           150                                
PRCFAMCHA060801091036091050000014Playhouse - HOZE HOUNDZ - Skater                                                                                            150                                
ID FAMCHA060801091050091100000010PS Playhouse AM Block Open (:10-:15)                                                                                        150                                
PRCFAMCHA060801091100091109000009CC Disclaimer - FAST - Generic (:08-:10)                                                                                    150                                
PGRFAMCHA060801091109093345002236The New Adventures of Winnie the Pooh             EP: 1-047                                                            6068607ECC                              
PRCFAMCHA060801093345093350000005Astral ID (FEB05)                                                                                                           150                                
PRCFAMCHA060801093350093406000016PH - 12 -PB&J/JOJO/BEN  (:14 - :16) (APR06)                                                                                 150                                
PRCFAMCHA060801093406093418000012Benjamin Bear - Slide (PH-Tue) (APR06) - This Morn                                                                          150                                
PROFAMCHA060801093418093448000030Little Einsteins Blast (3x PH)                                                                                        A     150                                
PRCFAMCHA060801093448093519000031King (PH) (APR06) - This Morning @ 11:25am                                                                                  150                                
PROFAMCHA060801093519093615000056Playhouse - STANLEY - Fish Song                                                                                             150                                
PROFAMCHA060801093615093645000030Higglytown - Find Them - PH Tomorrow morning @ 10:                                                                          150                                
ID FAMCHA060801093645093700000015PS Playhouse AM Block Open (:10-:15)                                                                                        150                                
PRCFAMCHA060801093700093709000009CC Disclaimer - FAST - Family.ca (:08-:10)                                                                                  150                                
PGRFAMCHA060801093709100038002329PB&J Otter                                        EP: 3-049                                                            6068607ECC                              
PRCFAMCHA060801100038100053000015PH - 17 -JOJO/BEN/STANLEY (:14 - :16) (APR06)                                                                               150                                
PROFAMCHA060801100053100127000034Jojo's Circus - GIGGLECORN - Coming Up Next                                                                                 150                                
ID FAMCHA060801100127100142000015Franny's Feet Web BBD - Part of Playhouse @ family                                                                          150                                
PRCFAMCHA060801100142100202000020Benjamin Bear - Snack (PHTue) (APR06) - This Morn                                                                           150                                
PGRFAMCHA060801100202100347000145They Might Be Giants (ABC's) - D and W                                                                                 60688120                                
ID FAMCHA060801100347100400000013PS Playhouse AM Block Open (:10-:15)                                                                                        150                                
PGRFAMCHA060801100400102807002407JoJo's Circus                                     EPS # 23                                                            A6068607E                                
PRCFAMCHA060801102807102812000005Astral ID (FEB05)                                                                                                           150                                
PRCFAMCHA060801102812102826000014PH - 22 -BEN/STANLEY/KING  (:14 - :16) (APR06)                                                                              150                                
PRCFAMCHA060801102826102838000012Benjamin Bear - Slide (PH-) (APR06) -Coming Up Nex                                                                          150                                
PROFAMCHA060801102838102903000025Princess Block - Be A Princess (Royal Treatment) P                                                                          150                                
PRCFAMCHA060801102903102934000031King (PH) (APR06) - This Morning @ 11:25am                                                                                  150                                
PROFAMCHA060801102934103020000046Playhouse - STANLEY - Squirrel Song                                                                                         150                                
PROFAMCHA060801103020103050000030Higglytown - Kids Love - PH Tomorrow morning @ 10:                                                                          150                                
ID FAMCHA060801103050103100000010PS Playhouse AM Block Open (:10-:15)                                                                                        150                                
PRCFAMCHA060801103100103109000009CC Disclaimer - FAST - Generic (:08-:10)                                                                                    150                                
PGRFAMCHA060801103109105344002235The Secret World Of Benjamin Bear                 EPS # 1-004                                                   B75149A1065607ECC                              
PRCFAMCHA060801105344105359000015PH - 26-STANLEY/KING/RECESS (:14- :16) (APR06)                                                                              150                                
PRCFAMCHA060801105359105429000030Stanley - Get Into It (MAR05) - (PH-M/W/F) - Comin                                                                          150                                
PROFAMCHA060801105429105459000030Little Einsteins Blast (3x PH)                                                                                        A     150                                
PRCFAMCHA060801105459105530000031King (PH) (APR06) - This Morning @ 11:25am                                                                                  150                                
PGRFAMCHA060801105530105645000115They Might Be Giants (ABC's) - QU                                                                                      60688120                                
ID FAMCHA060801105645105700000015PS Playhouse AM Block Open (:10-:15)                                                                                        150                                
PGRFAMCHA060801105700112102002402Stanley                                           EPS # 1-060                                                         A6068607E                                
PRCFAMCHA060801112102112107000005Astral ID (FEB05)                                                                                                           150                                
PRCFAMCHA060801112107112121000014PH - 27-KING/RECESS/KIM (:14 - :16) (APR06)                                                                                 150                                
PRCFAMCHA060801112121112152000031King (PH) (APR06) - Coming Up Next                                                                                          150                                
PRCFAMCHA060801112152112207000015Franny's Feet - Bowleriffic (PH-Mon) - (APR06) - T                                                                          150                                
ID FAMCHA060801112207112222000015Franny's Feet Web BBD - Part of Playhouse @ family                                                                          150                                
PROFAMCHA060801112222112252000030Little Einstein (PH) (PRESCHOOL) - Tomorrow @ 8:45                                                                          150                                
PROFAMCHA060801112252112322000030Higglytown - Find Them - PH Tomorrow morning @ 10:                                                                          150                                
PROFAMCHA060801112322112351000029Playhouse - WINNIE THE POOH - Tigger Bounce                                                                                 150                                
PROFAMCHA060801112351112451000100Mickey Mouse Clubhouse (Video 2) Friday morn @ 10:                                                                          150                                
ID FAMCHA060801112451112501000010PS Playhouse AM Block Open (:10-:15)                                                                                        150                                
PRCFAMCHA060801112501112510000009CC Disclaimer - FAST - Generic (:08-:10)                                                                                    150                                
PGRFAMCHA060801112510114740002230King                                              EPS # 030                                                     C25350A1065607ECC                              
PRCFAMCHA060801114740114751000011MD - 01 - RECESS/KIM (APR06) (:11 - :13)                                                                                    150                                
PRCFAMCHA060801114751114821000030xxPsychedelic Summer Stunt #1 (MMM, MD, NS, NSW) T                                                                          150                                
PRCFAMCHA060801114821114832000011xxPsychedelic Summer Billboard (AUG ) July29 - Aug                                                                          150                                
PRCFAMCHA060801114832114845000013Life WD Derek Bloopers #7 (MD/NS/NSW)                                                                                       150                                
PROFAMCHA060801114845114901000016Mad Dash Block Open (:16-:18) APR06                                                                                         150                                
PGRFAMCHA060801114901121135002234Disney's Recess                                   EP: 1-022                                                            6068607E                                
PRCFAMCHA060801121135121140000005Astral ID (FEB05)                                                                                                           150                                
PRCFAMCHA060801121140121151000011MD - 02 - KIM/WEEKENDERS (APR06) (:11 - :13)                                                                                150                                
PROFAMCHA060801121151121224000033xxKim Possible MORE RON MD (MAY 06) Coming up Next                                                                          150                                
PROFAMCHA060801121224121240000016Barnyard Billboard (July 23 - Aug 6)                                                                                        150                                
PROFAMCHA060801121240121254000014xxEmperor's New School STRAW - NSW - Weekend after                                                                          150                                
PRCFAMCHA060801121254121301000007MD Bumper - Ski Race (:07-:09) APR06                                                                                        150                                
PGRFAMCHA060801121301123554002253Disney's Kim Possible                             EP: 1-063                                                            6068607E                                
PRCFAMCHA060801123554123606000012MD - 03 - WEEKENDERS/LLOYD (APR06) (:11 - :13)                                                                              150                                
PRCFAMCHA060801123606123626000020xxPsychedelic Summer ID 2 -Thurs and Fri nights @                                                                           150                                
PRCFAMCHA060801123626123650000024Life WD Derek Bloopers #12 (MD/NS/NSW)                                                                                      150                                
PRCFAMCHA060801123650123700000010MD Bumper - Race Cars (:08-:10) JUNE06 **DNU                                                                                150                                
PRCFAMCHA060801123700123709000009CC Disclaimer - FAST - Family.ca (:08-:10)                                                                                  150                                
PGRFAMCHA060801123709125943002234Disney's The Weekenders                           EP: 1-018                                                           A6068607ECC                              
PRCFAMCHA060801125943125948000005Astral ID (FEB05)                                                                                                           150                                
PRCFAMCHA060801125948130000000012MD - 04 - LLOYD/BRANDY (APR06) (:11 - :13)                                                                                  150                                
PRCFAMCHA060801130000130016000016MD Bumper - Shopping Race (:15-:17) APR06                                                                                   150                                
ID FAMCHA060801130016130024000008Magic of Disney - MAD DASH - Shape (:06-:09)                                                                                150                                
PGRFAMCHA060801130024132318002254Disney's Lloyd In Space                           EP: 08                                                               6068607E                                
PRCFAMCHA060801132318132330000012MD - 05 - BRANDY/LILO (APR06) (:11 - :13)                                                                                   150                                
PROFAMCHA060801132330132352000022Fillmore! - POLLY (MD) (APR06) - This Afternoon @                                                                           150                                
PRCFAMCHA060801132352132400000008MD Bumper - Ski Race (:07-:09) APR06                                                                                        150                                
ID FAMCHA060801132400132408000008Magic of Disney - MAD DASH - Shape (:06-:09)                                                                                150                                
PGRFAMCHA060801132408134646002238Disney's Brandy & Mr. Whiskers                    EP: 08                                                               6068607E                                
PRCFAMCHA060801134646134651000005Astral ID (FEB05)                                                                                                           150                                
PRCFAMCHA060801134651134703000012MD - 06 - LILO/FILLMORE! (APR06) (:11 - :13)                                                                                150                                
PRCFAMCHA060801134703134724000021xxPsychedelic Summer ID 1 -Thurs and Fri nights @                                                                           150                                
PROFAMCHA060801134724134733000009xxFamily Bumpers - (Phase 1 Spring 04) - Baseball                                                                           150                                
PROFAMCHA060801134733134751000018xxDave the Barbarian - LEARNING (MD) -  This after                                                                          150                                
PRCFAMCHA060801134751134800000009MD Bumper - Race Cars (:08-:10) JUNE06 **DNU                                                                                150                                
PGRFAMCHA060801134800141039002239Disney's Lilo & Stitch                            EPS # 23                                                            A6068607E                                
PRCFAMCHA060801141039141051000012MD - 07 - FILLMORE!/PROUD (APR06) (:11 - :13)                                                                               150                                
PROFAMCHA060801141051141128000037xxHannah Montana - Achy Breaky NS (JULY 06) Prem F                                                                          150                                
PROFAMCHA060801141128141144000016Barnyard Billboard (July 23 - Aug 6)                                                                                        150                                
PRCFAMCHA060801141144141200000016MD Bumper - Shopping Race (:15-:17) APR06                                                                                   150                                
PGRFAMCHA060801141200143438002238Disney's Fillmore!                                EPS # 1-008                                                         A6068607E                                
PRCFAMCHA060801143438143443000005Astral ID (FEB05)                                                                                                           150                                
PRCFAMCHA060801143443143454000011MD - 08 - PROUD/WEEKENDERS (APR06) (:11 - :13)                                                                              150                                
PROFAMCHA060801143454143528000034Proud Family (JULY06) MOM YELLS (MD) -  Coming Up                                                                           150                                
PROFAMCHA060801143528143558000030Shaggy Dog (Available Now) (Aug1-6)                                                                                         150                                
PRCFAMCHA060801143558143605000007MD Bumper - Ski Race (:07-:09) APR06                                                                                        150                                
PRCFAMCHA060801143605143614000009CC Disclaimer - FAST - Generic (:08-:10)                                                                                    150                                
PGRFAMCHA060801143614145850002236The Proud Family                                  EP: 2-038                                                           A6068607ECC                              
PRCFAMCHA060801145850145902000012MD - 03 - WEEKENDERS/LLOYD (APR06) (:11 - :13)                                                                              150                                
PRCFAMCHA060801145902145932000030xxPsychedelic Summer Stunt #1 (MMM, MD, NS, NSW) T                                                                          150                                
PRCFAMCHA060801145932145943000011xxPsychedelic Summer Billboard (AUG ) July29 - Aug                                                                          150                                
PROFAMCHA060801145943150000000017Mad Dash Block Open (:16-:18) APR06                                                                                         150                                
PRCFAMCHA060801150000150009000009CC Disclaimer - FAST - Family.ca (:08-:10)                                                                                  150                                
PGRFAMCHA060801150009152240002231Disney's The Weekenders                           EP: 1-016                                                           A6068607ECC                              
PRCFAMCHA060801152240152245000005Astral ID (FEB05)                                                                                                           150                                
PRCFAMCHA060801152245152257000012MD - 10 - LLOYD/DAVE (APR06) (:11 - :13)                                                                                    150                                
PROFAMCHA060801152257152336000039Lloyd In Space (NOTES) (AUG06) MD- Coming Up Next                                                                           150                                
PROFAMCHA060801152336152415000039xxZoey 101 Cast Appearance (Jul 28-Aug 20)                                                                                  150                                
PROFAMCHA060801152415152431000016Barnyard Billboard (July 23 - Aug 6)                                                                                        150                                
PRCFAMCHA060801152431152451000020xxPsychedelic Summer ID 2 -Thurs and Fri nights @                                                                           150                                
PRCFAMCHA060801152451152500000009MD Bumper - Race Cars (:08-:10) JUNE06 **DNU                                                                                150                                
ID FAMCHA060801152500152508000008Magic of Disney - MAD DASH - Shape (:06-:09)                                                                                150                                
PGRFAMCHA060801152508154802002254Disney's Lloyd In Space                           EP: 02                                                               6068607E                                
PRCFAMCHA060801154802154815000013MD - 11 - DAVE/PROUD (APR06) (:11 - :13)                                                                                    150                                
PROFAMCHA060801154815154833000018xxDave the Barbarian - LEARNING (MD) -  Coming Up                                                                           150                                
PRCFAMCHA060801154833154933000100xxPsychedelic Summer CONTEST (1xMMM 1xMD 2NS - 4NS                                                                          150                                
PROFAMCHA060801154933155007000034Proud Family (APR06) GET BURNED (MD) - This Aftern                                                                          150                                
PROFAMCHA060801155007155016000009Family Bumpers - (Phase 1 Spring 04) - DJ Spinning                                                                          150                                
PROFAMCHA060801155016155046000030xxSuite Life of Z & C - MD(Psych S)(JULY 06) New E                                                                          150                                
PRCFAMCHA060801155046155107000021xxPsychedelic Summer Web #2 ( 1xMMM 1xMD 1xNS, 1xN                                                                          150                                
PROFAMCHA060801155107155144000037xxHannah Montana - Achy Breaky NS (JULY 06) Prem F                                                                          150                                
PRCFAMCHA060801155144155200000016MD Bumper - Shopping Race (:15-:17) APR06                                                                                   150                                
PGRFAMCHA060801155200161437002237Disney's Dave the Barbarian                       EPS # 02                                                             6068607E                                
PRCFAMCHA060801161437161442000005Astral ID (FEB05)                                                                                                           150                                
PRCFAMCHA060801161442161453000011MD - 12 - PROUD/RECESS (APR06) (:11 - :13)                                                                                  150                                
PROFAMCHA060801161453161527000034Proud Family (JULY06) MOM YELLS (MD) -  Coming Up                                                                           150                                
PROFAMCHA060801161527161600000033Step Up Blast In Theaters Aug 11 (July 27-Aug 10)                                                                     A     150                                
PROFAMCHA060801161600161614000014xxEmperor's New School STRAW - NSW - Weekend after                                                                          150                                
PRCFAMCHA060801161614161644000030xxPsychedelic Summer Stunt #1 (MMM, MD, NS, NSW) T                                                                          150                                
PRCFAMCHA060801161644161655000011xxPsychedelic Summer Billboard (AUG ) July29 - Aug                                                                          150                                
PRCFAMCHA060801161655161702000007MD Bumper - Ski Race (:07-:09) APR06                                                                                        150                                
PRCFAMCHA060801161702161711000009CC Disclaimer - FAST - Family.ca (:08-:10)                                                                                  150                                
PGRFAMCHA060801161711163946002235The Proud Family                                  EP: 2-024                                                           A6068607ECC                              
PRCFAMCHA060801163946163957000011MD - 13 - RECESS/KIM (APR06) (:11 - :13)                                                                                    150                                
PROFAMCHA060801163957164034000037xxHannah Montana - Achy Breaky NS (JULY 06) Prem F                                                                          150                                
PROFAMCHA060801164034164059000025Recess - CAREER DAY (MD) - (JULY06) - Coming Up Ne                                                                          150                                
PROFAMCHA060801164059164129000030Shaggy Dog (Available Now) (Aug1-6)                                                                                         150                                
PROFAMCHA060801164129164137000008xxPsych Summmer Bumper - PS Hair                                                                                            150                                
PRCFAMCHA060801164137164212000035xxPsychedelic Summer Web #3 ( 1xMMM 1xMD 1xNS, 1xN                                                                          150                                
PRCFAMCHA060801164212164252000040xxPsychedelic Summer Chill Event (1xMMM 1xMD 2xNS                                                                           150                                
PRCFAMCHA060801164252164300000008MD Bumper - Race Cars (:08-:10) JUNE06 **DNU                                                                                150                                
PGRFAMCHA060801164300170535002235Disney's Recess                                   EP: 1-056                                                           A6068607E                                
PRCFAMCHA060801170535170540000005Astral ID (FEB05)                                                                                                           150                                
PRCFAMCHA060801170540170552000012MD - 20 (PM-M-TH) - KIM/SUITE (JULY06) (:11-:13)                                                                            150                                
PROFAMCHA060801170552170606000014xxKim Possible ARM MD (MAY 06) Coming Up Next                                                                               150                                
PROFAMCHA060801170606170643000037High School Musical CD Blast 2x DAY in MD/NS/NSW(i                                                                          150                                
PROFAMCHA060801170643170713000030xxSuite Life of Z & C - MD(Psych S)(JULY 06) New E                                                                          150                                
PROFAMCHA060801170713170727000014xxEmperor's New School STRAW - NSW - Weekend after                                                                          150                                
PRCFAMCHA060801170727170748000021xxPsychedelic Summer ID 1 -Thurs and Fri nights @                                                                           150                                
PRCFAMCHA060801170748170805000017MD Bumper - Shopping Race (:15-:17) APR06                                                                                   150                                
PGRFAMCHA060801170805173058002253Disney's Kim Possible                             EPS # 1-035                                                         A6068607E                                
PRCFAMCHA060801173058173109000011MD - 21 (PM-M-TH) - SUITE/LITTLE (JULY06) (:11-:13                                                                          150                                
PROFAMCHA060801173109173146000037xxHannah Montana - Achy Breaky NS (JULY 06) Prem F                                                                          150                                
PRCFAMCHA060801173146173216000030xxPsychedelic Summer Stunt #1 (MMM, MD, NS, NSW) T                                                                          150                                
PRCFAMCHA060801173216173227000011xxPsychedelic Summer Billboard (AUG ) July29 - Aug                                                                          150                                
PROFAMCHA060801173227173257000030xxSuite Life of Z & C - MD (Psych S)(JULY 06) New                                                                           150                                
PROFAMCHA060801173257173346000049Zoey Chic Boutique Contest (July10-Oct1)                                                                                    150                                
PROFAMCHA060801173346173358000012xxFamily Bumpers - (Phase 1 Spring 04) - Picnic (M                                                                          150                                
PRCFAMCHA060801173358173405000007MD Bumper - Ski Race (:07-:09) APR06                                                                                        150                                
PGRFAMCHA060801173405175643002238Suite Life of Zack and Cody, The - Season 2       EP: 43                                                               6028607E                                
PRCFAMCHA060801175643175648000005Astral ID (FEB05)                                                                                                           150                                
PRCFAMCHA060801175648175659000011NS - 01 - TIME/DARCY (APR06) (:11 - :13)                                                                                    150                                
PROFAMCHA060801175659175727000028So Little Time (NS Flat Tire) (APR06) - Coming Up                                                                           150                                
PROFAMCHA060801175727175757000030Shaggy Dog (Available Now) (Aug1-6)                                                                                         150                                
PRCFAMCHA060801175757175827000030xxDarcy's Wild Life (NEWS) NS (APR06) - Tonight @                                                                           150                                
PRCFAMCHA060801175827175844000017xxPsychedelic Summer Web #1 ( 1xMMM 1xMD 1xNS, 1xN                                                                          150                                
PROFAMCHA060801175844175900000016Barnyard Billboard (July 23 - Aug 6)                                                                                        150                                
PROFAMCHA060801175900175930000030xxSuite Life of Z & C - MD (Psych S)(JULY 06) New                                                                           150                                
PRCFAMCHA060801175930175950000020xxPsychedelic Summer ID 2 -Thurs and Fri nights @                                                                           150                                
PROFAMCHA060801175950180008000018Nonstop Block Open (:16-:18) APR06                                                                                          150                                
PGRFAMCHA060801180008182144002136So Little Time                                    EP: 25                                                              A2068607B                                
PRCFAMCHA060801182144182156000012NS - 02 - DARCY/RAVEN (APR06) (:11 - :13)                                                                                   150                                
PROFAMCHA060801182156182233000037xxHannah Montana - Achy Breaky NS (JULY 06) Prem F                                                                          150                                
PRCFAMCHA060801182233182303000030xxDarcy's Wild Life (NEWS) NS (APR06) - Coming Up                                                                           150                                
PROFAMCHA060801182303182342000039xxZoey 101 Cast Appearance (Jul 28-Aug 20)                                                                                  150                                
PROFAMCHA060801182342182411000029xxThat's So Raven (AUG06) BEAUTY MARK - NS - Tonig                                                                          150                                
PROFAMCHA060801182411182444000033Step Up Blast In Theaters Aug 11 (July 27-Aug 10)                                                                     A     150                                
PROFAMCHA060801182444182452000008xxPsych Summmer Bumper - PS Dog                                                                                             150                                
PROFAMCHA060801182452182527000035Smart Guy GOOD FRIEND (JULY06) NS - Tonight @ 7:30                                                                          150                                
PRCFAMCHA060801182527182544000017Life WD Derek Bloopers #1 (MD/NS/NSW)                                                                                       150                                
PROFAMCHA060801182544182611000027xx8 Simple Rules (APR06) (NS) - DAD JUMPS GUN - To                                                                          150                                
PROFAMCHA060801182611182621000010FAMJAM - Open/Close                                                                                                         150                                
PGRFAMCHA060801182621182721000100MV Disney - Superstition (Raven)                                                                                       60688120                                
PROFAMCHA060801182721182735000014xxFAMJAM - Close (FAMILY) xxDNUxx                                                                                           150                                
PROFAMCHA060801182735182819000044Zoey 101 - PHONE DIARY (NS) (JUNE06) - Friday nigh                                                                          150                                
PRCFAMCHA060801182819182919000100xxPsychedelic Summer CONTEST (1xMMM 1xMD 2NS - 4NS                                                                          150                                
PROFAMCHA060801182919182949000030Phil of the Future THINGS TO COME (NSW) (APR06) -                                                                           150                                
PRCFAMCHA060801182949183005000016NS Bumper - Tennis (:15-:17) APR06                                                                                          150                                
PRCFAMCHA060801183005183014000009CC Disclaimer - FAST - Generic (:08-:10)                                                                                    150                                
PGRFAMCHA060801183014185144002130Darcy's Wild Life                                 EP: 32                                                        A23421A1065607BCC                              
PRCFAMCHA060801185144185149000005Astral ID (FEB05)                                                                                                           150                                
PRCFAMCHA060801185149185200000011NS - 03 - RAVEN/SMART (APR06) (:11 - :13)                                                                                   150                                
PRCFAMCHA060801185200185230000030xxPsychedelic Summer Stunt #1 (MMM, MD, NS, NSW) T                                                                          150                                
PRCFAMCHA060801185230185241000011xxPsychedelic Summer Billboard (AUG ) July29 - Aug                                                                          150                                
PROFAMCHA060801185241185310000029xxThat's So Raven (AUG06) BEAUTY MARK - NS - Comin                                                                          150                                
PROFAMCHA060801185310185347000037High School Musical CD Blast 2x DAY in MD/NS/NSW(i                                                                          150                                
PROFAMCHA060801185347185422000035Smart Guy GOOD FRIEND (JULY06) NS - Tonight @ 7:30                                                                          150                                
PRCFAMCHA060801185422185431000009xxFamily Bumpers - (Phase 1 Spring 04) - Soccer (M                                                                          150                                
PROFAMCHA060801185431185453000022xx8 Simple Rules (APR06) (NS) - BRIDGET DRUMS - To                                                                          150                                
PRCFAMCHA060801185453185522000029Life With Derek Web Promo                                                                                                   150                                
PROFAMCHA060801185522185552000030Double Teamed (SEPT12) - Next Friday @ 7:30pm                                                                               150                                
PROFAMCHA060801185552185602000010FAMJAM - Open/Close                                                                                                         150                                
PGRFAMCHA060801185602185732000130MV Disney - (MD/NS/NSW) - We're All In This Togeth                                                                     60688120                                
PROFAMCHA060801185732185746000014xxFAMJAM - Close (FAMILY) xxDNUxx                                                                                           150                                
PRCFAMCHA060801185746185816000030xxRadio Free Roscoe - (NS/M-Th) (JUNE06) Tonight @                                                                          150                                
PRCFAMCHA060801185816185847000031xxLife WD - Generic BATHROOM (JULY06) Friday Night                                                                          150                                
PROFAMCHA060801185847185921000034Even Stevens - Bad Boys (APR06) - (NSW) - Weekends                                                                          150                                
PROFAMCHA060801185921185951000030xxSuite Life of Z & C - MD(Psych S)(JULY 06) New E                                                                          150                                
PROFAMCHA060801185951185957000006Phil of the Future IDs - You're Watching Family...                                                                          150                                
PRCFAMCHA060801185957190005000008NS Bumper - Dodgeball (:07-:09) APR06                                                                                       150                                
PGRFAMCHA060801190005192241002236That's So Raven                                   EP: 77                                                               6068607B                                
PRCFAMCHA060801192241192253000012NS - 04 - SMART/8 SIMPLE (APR06) (:11 - :13)                                                                                150                                
PROFAMCHA060801192253192330000037xxHannah Montana - Achy Breaky NS (JULY 06) Prem F                                                                          150                                
PROFAMCHA060801192330192405000035Smart Guy GOOD FRIEND (JULY06) NS - Coming Up Next                                                                          150                                
PROFAMCHA060801192405192454000049Zoey Chic Boutique Contest (July10-Oct1)                                                                                    150                                
PROFAMCHA060801192454192516000022xx8 Simple Rules (APR06) (NS) - BRIDGET DRUMS - To                                                                          150                                
PRCFAMCHA060801192516192537000021xxPsychedelic Summer Web #2 ( 1xMMM 1xMD 1xNS, 1xN                                                                          150                                
PROFAMCHA060801192537192607000030Double Teamed (SEPT12) - Next Friday @ 7:30pm                                                                               150                                
PROFAMCHA060801192607192651000044Aly & A.J. Faves and Funnies - Funny School Moment                                                                          150                                
PRCFAMCHA060801192651192721000030xxRadio Free Roscoe - (NS/M-Th) (JUNE06) Tonight @                                                                          150                                
PRCFAMCHA060801192721192738000017Life WD Derek Bloopers #4 (MD/NS/NSW)                                                                                       150                                
PROFAMCHA060801192738192759000021xxNeds DSSG - RECORDER - NS (AUG06) Friday nights                                                                           150                                
PRCFAMCHA060801192759192839000040Naturally Sadie (APR06) - Weekends @ 6:05pm                                                                                 150                                
PROFAMCHA060801192839192912000033Step Up Blast In Theaters Aug 11 (July 27-Aug 10)                                                                     A     150                                
PRCFAMCHA060801192912192952000040xxPsychedelic Summer Chill Event (1xMMM 1xMD 2xNS                                                                           150                                
PRCFAMCHA060801192952193005000013NS Bumper - Fashion (:12-:14) JUNE06 **DNU                                                                                  150                                
PRCFAMCHA060801193005193014000009CC Disclaimer - FAST - Generic (:08-:10)                                                                                    150                                
PGRFAMCHA060801193014195242002228Smart Guy                                         EP: 1-020                                                           A6068807BCC                              
PRCFAMCHA060801195242195247000005Astral ID (FEB05)                                                                                                           150                                
PRCFAMCHA060801195247195258000011NS - 05 - 8 SIMPLE/BMW (APR06) (:11 - :13)                                                                                  150                                
PRCFAMCHA060801195258195328000030xxPsychedelic Summer Stunt #1 (MMM, MD, NS, NSW) T                                                                          150                                
PRCFAMCHA060801195328195339000011xxPsychedelic Summer Billboard (AUG ) July29 - Aug                                                                          150                                
PROFAMCHA060801195339195406000027xx8 Simple Rules (APR06) (NS) - DAD JUMPS GUN - Co                                                                          150                                
PROFAMCHA060801195406195439000033Step Up Blast In Theaters Aug 11 (July 27-Aug 10)                                                                     A     150                                
PROFAMCHA060801195439195509000030Double Teamed (SEPT12) - Next Friday @ 7:30pm                                                                               150                                
PROFAMCHA060801195509195519000010FAMJAM - Open/Close                                                                                                         150                                
PGRFAMCHA060801195519195758000239MV Disney - Come Clean (Hillary Duff)                                                                                  60688120                                
PROFAMCHA060801195758195812000014xxFAMJAM - Close (FAMILY) xxDNUxx                                                                                           150                                
PRCFAMCHA060801195812195842000030xxRadio Free Roscoe - (NS/M-Th) (JUNE06) Tonight @                                                                          150                                
PROFAMCHA060801195842195926000044Zoey 101 - PHONE DIARY (NS) (JUNE06) - Friday nigh                                                                          150                                
PROFAMCHA060801195926195956000030xxSuite Life of Z & C - MD(Psych S)(JULY 06) New E                                                                          150                                
PRCFAMCHA060801195956200011000015NS Bumper - Tennis (:15-:17) APR06                                                                                          150                                
PRCFAMCHA060801200011200020000009CC Disclaimer - FAST - Family.ca (:08-:10)                                                                                  150                                
PGRFAMCHA0608012000202021540021348 Simple Rules                                    EP: 68                                                              B6068807BCC                              
PRCFAMCHA060801202154202206000012NS - 06 - BMW/RFR (M-TH) (JUNE 06) (:11-:13)                                                                                150                                
PROFAMCHA060801202206202243000037xxHannah Montana - Achy Breaky NS (JULY 06) Prem F                                                                          150                                
PROFAMCHA060801202243202313000030Double Teamed (SEPT12) - Next Friday @ 7:30pm                                                                               150                                
PRCFAMCHA060801202313202413000100xxPsychedelic Summer CONTEST (1xMMM 1xMD 2NS - 4NS                                                                          150                                
PRCFAMCHA060801202413202443000030xxRadio Free Roscoe - (NS/M-Th) (JUNE06) Tonight @                                                                          150                                
PROFAMCHA060801202443202451000008xxPsych Summmer Bumper - PS Hair                                                                                            150                                
PROFAMCHA060801202451202521000030O'Grady - Weirdness Zone (NS)(JUNE06) - Tonight @                                                                           150                                
PROFAMCHA060801202521202612000051Cheetah Girls Interstitials - Pink Eye                                                                                      150                                
PROFAMCHA060801202612202629000017xxPopular (APR06) (PADS) - Tonight @ 10pm                                                                                   150                                
PROFAMCHA060801202629202638000009xxFamily Bumpers - (Phase 2 F/W 04) - Skateboard (                                                                          150                                
PROFAMCHA060801202638202705000027xx8 Simple Rules (APR06) (NS) - DAD JUMPS GUN - To                                                                          150                                
PRCFAMCHA060801202705202734000029Life With Derek Web Promo                                                                                                   150                                
PRCFAMCHA060801202734202827000053xxLife WD - Generic PERSONAL SPACE (JULY 06) Frida                                                                          150                                
PGRFAMCHA060801202827202927000100xxPlanet Rock Profiles - Green Day (Hype) xxDNUxx EP: 46                                                              A70687120                                
PROFAMCHA060801202927202957000030Phil of the Future THINGS TO COME (NSW) (APR06) -                                                                           150                                
PRCFAMCHA060801202957203005000008NS Bumper - Dodgeball (:07-:09) APR06                                                                                       150                                
PRCFAMCHA060801203005203014000009CC Disclaimer - FAST - Generic (:08-:10)                                                                                    150                                
PGRFAMCHA060801203014205149002135Boy Meets World                                   EP: 1-145                                                           B6068807BCC                              
PRCFAMCHA060801205149205154000005Astral ID (FEB05)                                                                                                           150                                
PRCFAMCHA060801205154205205000011NS - 07 - RFR/O'GRADY (M-TH) (JUNE 06) (:11-:13)                                                                            150                                
PRCFAMCHA060801205205205245000040xxPsychedelic Summer Chill Event (1xMMM 1xMD 2xNS                                                                           150                                
PRCFAMCHA060801205245205315000030Radio Free Roscoe - (NS/M-Th) (JUNE06) Coming up                                                                            150                                
PROFAMCHA060801205315205354000039xxZoey 101 Cast Appearance (Jul 28-Aug 20)                                                                                  150                                
PROFAMCHA060801205354205424000030O'Grady - Weirdness Zone (NS)(JUNE06) - Tonight @                                                                           150                                
PGRFAMCHA060801205424205554000130xxMovie Surfers - Pirates - Interstitial #3 Now Pl                                                                    A60688120                                
PROFAMCHA060801205554205611000017xxPopular (APR06) (PADS) - Tonight @ 10pm                                                                                   150                                
PRCFAMCHA060801205611205646000035xxPsychedelic Summer Web #3 ( 1xMMM 1xMD 1xNS, 1xN                                                                          150                                
PROFAMCHA060801205646205708000022xx8 Simple Rules (APR06) (NS) - BRIDGET DRUMS - To                                                                          150                                
PROFAMCHA060801205708205718000010FAMJAM - Open/Close                                                                                                         150                                
PGRFAMCHA060801205718205848000130MV Disney - (MD/NS/NSW) - Karaoke Song (HIGH SCHOO                                                                     60688120                                
PROFAMCHA060801205848205902000014xxFAMJAM - Close (FAMILY) xxDNUxx                                                                                           150                                
PROFAMCHA060801205902205923000021xxNeds DSSG - RECORDER - NS (AUG06) Friday nights                                                                           150                                
PROFAMCHA060801205923205954000031Even Stevens - Swing (APR06) - (NSW) - Weekends @                                                                           150                                
PRCFAMCHA060801205954210007000013NS Bumper - Fashion (:12-:14) JUNE06 **DNU                                                                                  150                                
PRCFAMCHA060801210007210016000009CC Disclaimer - SLOW - Generic (:08-:10)                                                                                    150                                
PGRFAMCHA060801210016212246002230Radio Free Roscoe                                 EPS # 23                                                      B88736A1065607ACC                              
PRCFAMCHA060801212246212259000013NS - 08 - O'GRADY/POPULAR (M-TH) (JUNE 06) (:11-:1                                                                          150                                
PROFAMCHA060801212259212336000037xxHannah Montana - Achy Breaky NS (JULY 06) Prem F                                                                          150                                
PROFAMCHA060801212336212406000030O'Grady - Weirdness Zone (NS)(JUNE06) - Coming Up                                                                           150                                
PROFAMCHA060801212406212423000017xxPopular (APR06) (PADS) - Tonight @ 10pm                                                                                   150                                
PROFAMCHA060801212423212451000028So Little Time (NS Flat Tire) (APR06) - Tomorrow N                                                                          150                                
PROFAMCHA060801212451212535000044Zoey 101 - PHONE DIARY (NS) (JUNE06) - Friday nigh                                                                          150                                
PROFAMCHA060801212535212545000010FAMJAM - Open/Close                                                                                                         150                                
PGRFAMCHA060801212545212715000130MV Disney - (MD/NS/NSW) - She's No You (SHORT) (Je                                                                     60688120                                
PROFAMCHA060801212715212729000014xxFAMJAM - Close (FAMILY) xxDNUxx                                                                                           150                                
PROFAMCHA060801212729212759000030xxSuite Life of Z & C - MD(Psych S)(JULY 06) New E                                                                          150                                
PROFAMCHA060801212759212830000031Even Stevens - Swing (APR06) - (NSW) - Weekends @                                                                           150                                
PRCFAMCHA060801212830212910000040Naturally Sadie (APR06) - Weekends @ 6:05pm                                                                                 150                                
PRCFAMCHA060801212910212940000030xxPsychedelic Summer Stunt #1 (MMM, MD, NS, NSW) T                                                                          150                                
PRCFAMCHA060801212940212951000011xxPsychedelic Summer Billboard (AUG ) July29 - Aug                                                                          150                                
PRCFAMCHA060801212951213008000017NS Bumper - Tennis (:15-:17) APR06                                                                                          150                                
PGRFAMCHA060801213008215424002416O'Grady                                           EP: 04                                                              B2068707E                                
PRCFAMCHA060801215424215429000005Astral ID (FEB05)                                                                                                           150                                
PRCFAMCHA060801215429215440000011NS - 09 - POPULAR/8 SIMPLE (APR06) (:11 - :13)                                                                              150                                
PRCFAMCHA060801215440215501000021xxPsychedelic Summer ID 1 -Thurs and Fri nights @                                                                           150                                
PROFAMCHA060801215501215518000017xxPopular (APR06) (PADS) - Coming Up Next                                                                                   150                                
PROFAMCHA060801215518215607000049Zoey Chic Boutique Contest (July10-Oct1)                                                                                    150                                
PROFAMCHA060801215607215634000027xx8 Simple Rules (APR06) (NS) - DAD JUMPS GUN - To                                                                          150                                
PROFAMCHA060801215634215642000008xxPsych Summmer Bumper - PS Dog                                                                                             150                                
PRCFAMCHA060801215642215712000030xxRadio Free Roscoe - (NS/M-Th) (JUNE06) Tonight @                                                                          150                                
PROFAMCHA060801215712215721000009Family Bumpers - (Phase 3 Spring 05) - Giant Food(                                                                          150                                
PRCFAMCHA060801215721215751000030xxDarcy's Wild Life (NEWS) NS (APR06) - Tomorrow @                                                                          150                                
PRCFAMCHA060801215751215808000017xxPsychedelic Summer Web #1 ( 1xMMM 1xMD 1xNS, 1xN                                                                          150                                
PRCFAMCHA060801215808215839000031xxLife WD - Generic BATHROOM (JULY06) Friday Night                                                                          150                                
PGRFAMCHA060801215839215931000052xxPlanet Rock Profiles - Green Day (Grade 5) xxDNUEP: 46                                                              A70687120                                
PROFAMCHA060801215931220001000030Phil of the Future THINGS TO COME (NSW) (APR06) -                                                                           150                                
PRCFAMCHA060801220001220008000007NS Bumper - Dodgeball (:07-:09) APR06                                                                                       150                                
PGRFAMCHA060801220008224412004404Popular                                           EP: 10                                                              B6068807B                                
PRCFAMCHA060801224412224425000013NS - 10 - 8 SIMPLE/RADIO (APR06) (:11 - :13)                                                                                150                                
PROFAMCHA060801224425224502000037xxHannah Montana - Achy Breaky NS (JULY 06) Prem F                                                                          150                                
PROFAMCHA060801224502224529000027xx8 Simple Rules (APR06) (NS) - DAD JUMPS GUN - Co                                                                          150                                
PGRFAMCHA060801224529224659000130xxMovie Surfers - Pirates - Interstitial #3 Now Pl                                                                    A60688120                                
PRCFAMCHA060801224659224729000030xxRadio Free Roscoe - (NS/M-Th) (JUNE06) Tonight @                                                                          150                                
PROFAMCHA060801224729224819000050Cheetah Girls Interstitials - Tear Sheet                                                                                    150                                
PROFAMCHA060801224819224848000029xxThat's So Raven (AUG06) BEAUTY MARK - NS - Tomor                                                                          150                                
PROFAMCHA060801224848224858000010FAMJAM - Open/Close                                                                                                         150                                
PGRFAMCHA060801224858225253000355MV Disney - Come Clean (Hillary Duff)                                                                                  60688120                                
PROFAMCHA060801225253225307000014xxFAMJAM - Close (FAMILY) xxDNUxx                                                                                           150                                
PROFAMCHA060801225307225342000035Smart Guy GOOD FRIEND (JULY06) NS - Tomorrow @ 7:3                                                                          150                                
PROFAMCHA060801225342225412000030Double Teamed (SEPT12) - Next Friday @ 7:30pm                                                                               150                                
PROFAMCHA060801225412225422000010FAMJAM - Open/Close                                                                                                         150                                
PGRFAMCHA060801225422225813000351MV Disney - Come Clean (Hillary Duff)                                                                                  60688120                                
PROFAMCHA060801225813225827000014xxFAMJAM - Close (FAMILY) xxDNUxx                                                                                           150                                
PROFAMCHA060801225827225857000030O'Grady - Weirdness Zone (NS)(JUNE06) - Tomorrow n                                                                          150                                
PROFAMCHA060801225857225918000021xxNeds DSSG - RECORDER - NS (AUG06) Friday nights                                                                           150                                
PROFAMCHA060801225918225952000034Even Stevens - Bad Boys (APR06) - (NSW) - Weekends                                                                          150                                
PRCFAMCHA060801225952230005000013NS Bumper - Fashion (:12-:14) JUNE06 **DNU                                                                                  150                                
PRCFAMCHA060801230005230014000009CC Disclaimer - SLOW - Family.ca (:08-:10)                                                                                  150                                
PGRFAMCHA0608012300142321480021348 Simple Rules                                    EP: 70                                                              B6068807BCC                              
PRCFAMCHA060801232148232153000005Astral ID (FEB05)                                                                                                           150                                
PRCFAMCHA060801232153232206000013NS - 11 - RADIO/MENTORS (APR06) (:11 - :13)                                                                                 150                                
PRCFAMCHA060801232206232236000030xxPsychedelic Summer Stunt #1 (MMM, MD, NS, NSW) T                                                                          150                                
PRCFAMCHA060801232236232247000011xxPsychedelic Summer Billboard (AUG ) July29 - Aug                                                                          150                                
PRCFAMCHA060801232247232317000030Radio Free Roscoe - (NS/M-Th) (JUNE06) Coming up                                                                            150                                
PROFAMCHA060801232317232325000008xxPsych Summmer Bumper - PS Hair                                                                                            150                                
PROFAMCHA060801232325232420000055So Little Time (NS) (APR06) Watching TV - Tomorrow                                                                          150                                
PRCFAMCHA060801232420232450000030xxDarcy's Wild Life (NEWS) NS (APR06) - Tomorrow @                                                                          150                                
PROFAMCHA060801232450232500000010FAMJAM - Open/Close                                                                                                         150                                
PGRFAMCHA060801232500232810000310MV Disney - Superstition (Raven)                                                                                       60688120                                
PROFAMCHA060801232810232824000014xxFAMJAM - Close (FAMILY) xxDNUxx                                                                                           150                                
PROFAMCHA060801232824232908000044Zoey 101 - PHONE DIARY (NS) (JUNE06) - Friday nigh                                                                          150                                
PRCFAMCHA060801232908232948000040Naturally Sadie (APR06) - Weekends @ 6:05pm                                                                                 150                                
PRCFAMCHA060801232948233003000015NS Bumper - Tennis (:15-:17) APR06                                                                                          150                                
PRCFAMCHA060801233003233012000009CC Disclaimer - SLOW - Generic (:08-:10)                                                                                    150                                
PGRFAMCHA060801233012235243002231Radio Free Roscoe                                 EPS # 41                                                      A05974A1065607ACC                              
PRCFAMCHA060801235243235254000011NS - 12 - MENTORS/SPIDER (APR06) (:11 - :13)                                                                                150                                
PROFAMCHA060801235254235331000037xxHannah Montana - Achy Breaky NS (JULY 06) Prem F                                                                          150                                
PROFAMCHA060801235331235400000029xxThat's So Raven (AUG06) BEAUTY MARK - NS - Tomor                                                                          150                                
PROFAMCHA060801235400235409000009Family Bumpers - (Phase 3 Spring 05) - Hip Hop (MD                                                                          150                                
PROFAMCHA060801235409235444000035Smart Guy GOOD FRIEND (JULY06) NS - Tomorrow @ 7:3                                                                          150                                
PROFAMCHA060801235444235454000010FAMJAM - Open/Close                                                                                                         150                                
PGRFAMCHA060801235454235732000238MV Disney - (FAMILY HITS) That's So Raven Theme So                                                                     60688120                                
PROFAMCHA060801235732235746000014xxFAMJAM - Close (FAMILY) xxDNUxx                                                                                           150                                
PROFAMCHA060801235746235816000030xxSuite Life of Z & C - MD(Psych S)(JULY 06) New E                                                                          150                                
PRCFAMCHA060801235816235909000053xxLife WD - Generic PERSONAL SPACE (JULY 06) Frida                                                                          150                                
PROFAMCHA060801235909235939000030Phil of the Future THINGS TO COME (NSW) (APR06) -                                                                           150                                
PRCFAMCHA060801235939235959000020xxPsychedelic Summer ID 2 -Thurs and Fri nights @                                                                           150                                
PRCFAMCHA060801235959000006000007NS Bumper - Dodgeball (:07-:09) APR06                                                                                       150                                
PRCFAMCHA060801000006000015000009CC Disclaimer - SLOW - Family.ca (:08-:10)                                                                                  150                                
PGRFAMCHA060801000015002326002311Mentors                                           EP: 2-022                                                     C17437A1065607ACC                              
PRCFAMCHA060801002326002331000005Astral ID (FEB05)                                                                                                           150                                
PRCFAMCHA060801002331002342000011NS - 13 - SPIDER (APR06) (:11 - :13)                                                                                        150                                
PROFAMCHA060801002342002410000028So Little Time (NS Flat Tire) (APR06) - Tomorrow N                                                                          150                                
PRCFAMCHA060801002410002431000021xxPsychedelic Summer Web #2 ( 1xMMM 1xMD 1xNS, 1xN                                                                          150                                
PRCFAMCHA060801002431002501000030xxDarcy's Wild Life (NEWS) NS (APR06) - Tomorrow @                                                                          150                                
PROFAMCHA060801002501002511000010FAMJAM - Open/Close                                                                                                         150                                
PGRFAMCHA060801002511002847000336MV Disney - Girl Power (Cheetah Girls)                                                                                 60688120                                
PROFAMCHA060801002847002901000014xxFAMJAM - Close (FAMILY) xxDNUxx                                                                                           150                                
PROFAMCHA060801002901002922000021xxNeds DSSG - RECORDER - NS (AUG06) Friday nights                                                                           150                                
PROFAMCHA060801002922002953000031Even Stevens - Swing (APR06) - (NSW) - Weekends @                                                                           150                                
PRCFAMCHA060801002953003006000013NS Bumper - Fashion (:12-:14) JUNE06 **DNU                                                                                  150                                
PGRFAMCHA060801003006005147002141Spiderman                                         EP: 10                                                        C02618 1065607E                                
PRCFAMCHA060801005147005204000017NS Bumper - Tennis (:15-:17) APR06                                                                                          150                                
PROFAMCHA060801005204005241000037xxHannah Montana - Achy Breaky NS (JULY 06) Prem F                                                                          150                                
PROFAMCHA060801005241005308000027xx8 Simple Rules (APR06) (NS) - DAD JUMPS GUN - To                                                                          150                                
PGRFAMCHA060801005308005438000130xxMovie Surfers - Pirates - Interstitial #3 Now Pl                                                                    A60688120                                
PROFAMCHA060801005438005508000030Double Teamed (SEPT12) - Next Friday @ 7:30pm                                                                               150                                
PROFAMCHA060801005508005516000008xxPsych Summmer Bumper - PS Dog                                                                                             150                                
PRCFAMCHA060801005516005546000030xxRadio Free Roscoe - (NS/M-Th) (JUNE06) Tomorrow                                                                           150                                
PROFAMCHA060801005546005556000010FAMJAM - Open/Close                                                                                                         150                                
PGRFAMCHA060801005556005908000312MV Disney - (FAMILY HITS) That's So Raven Theme So                                                                     60688120                                
PROFAMCHA060801005908005922000014xxFAMJAM - Close (FAMILY) xxDNUxx                                                                                           150                                
PROFAMCHA060801005922005952000030O'Grady - Weirdness Zone (NS)(JUNE06) - Tomorrow n                                                                          150                                
PROFAMCHA060801005952010036000044Zoey 101 - PHONE DIARY (NS) (JUNE06) - Friday nigh                                                                          150                                
PRCFAMCHA060801010036010116000040Naturally Sadie (APR06) - Weekends @ 6:05pm                                                                                 150                                
PRCFAMCHA060801010116010146000030xxPsychedelic Summer Stunt #1 (MMM, MD, NS, NSW) T                                                                          150                                
PRCFAMCHA060801010146010157000011xxPsychedelic Summer Billboard (AUG ) July29 - Aug                                                                          150                                
PRCFAMCHA060801010157010212000015Astral - LOVE                                                                                                               150                                
SO FAMCHA060801010212010224000012Sign Off                                                                                                                                                       
OFFFAMCHA060801010224043000032736OFF AIR                                                                                                                                                        
SO FAMCHA060802043000043011000011Sign On (oct 1)                                                                                                                                                
PRCFAMCHA060802043011043020000009CC Disclaimer - FAST - Family.ca (:08-:10)                                                                                  150                                
PGRFAMCHA060802043020045658002638Katie And Orbie                                   EP: 4-053                                                     C19665A1065607ECC                              
PRCFAMCHA060802045658045713000015PH - 02 - FRANNY/SOMETHING/HOZE  (:14 - :16) (APR0                                                                          150                                
ID FAMCHA060802045713045726000013PS Playhouse AM Block Open (:10-:15)                                                                                        150                                
PRCFAMCHA060802045726045735000009CC Disclaimer - FAST - Generic (:08-:10)                                                                                    150                                
PGRFAMCHA060802045735052006002231Franny's Feet                                     EPS # 29                                                      C23971 1065607ECC                              
PRCFAMCHA060802052006052011000005Astral ID (FEB05)                                                                                                           150                                
PRCFAMCHA060802052011052027000016PH - 03 - SOMETHING/HOZE/KING (:14 - :16) (APR06)                                                                           150                                
ID FAMCHA060802052027052040000013PS Playhouse AM Block Open (:10-:15)                                                                                        150                                
PRCFAMCHA060802052040052049000009CC Disclaimer - FAST - Family.ca (:08-:10)                                                                                  150                                
PGRFAMCHA060802052049054320002231Something Else                                    EP: 1-011                                                     B69265A1065607ECC                              
PRCFAMCHA060802054320054336000016PH - 04 - HOZE/KING/SPIDERMAN (:14 - :16) (APR06)                                                                           150                                
PRCFAMCHA060802054336054345000009CC Disclaimer - FAST - Generic (:08-:10)                                                                                    150                                
PGRFAMCHA060802054345060620002235Hoze Houndz                                       EP: 2-017                                                     B34006A1065607ECC                              
PRCFAMCHA060802060620060625000005Astral ID (FEB05)                                                                                                           150                                
PRCFAMCHA060802060625060641000016PH - 05 - KING/SPIDERMAN/KIM  (:14 - :16) (APR06)                                                                           150                                
ID FAMCHA060802060641060654000013PS Playhouse AM Block Open (:10-:15)                                                                                        150                                
PRCFAMCHA060802060654060703000009CC Disclaimer - FAST - Family.ca (:08-:10)                                                                                  150                                
PGRFAMCHA060802060703062933002230King                                              EP: 006                                                       B75761A1065607ECC                              
PRCFAMCHA060802062933062949000016PH - 06 - SPIDERMAN/KIM ( (:14 - :16) (APR06)                                                                               150                                
PROFAMCHA060802062949063008000019MadMadMornings Block Open                                                                                                   150                                
PGRFAMCHA060802063008065149002141Spiderman                                         EP: 06                                                        C02618 1065607E                                
PRCFAMCHA060802065149065154000005Astral ID (FEB05)                                                                                                           150                                
PRCFAMCHA060802065154065208000014MMM - 01 (AM) - KIM/RECESS/WEEKENDERS (OCT05) (:14                                                                          150                                
PROFAMCHA060802065208065241000033xxKim Possible MORE RON (MMM) (MAY 06) Coming up N                                                                          150                                
PROFAMCHA060802065241065306000025Recess - CAREER DAY (MMM) - (JULY06) - This mornin                                                                          150                                
PROFAMCHA060802065306065316000010FAMJAM - Open/Close                                                                                                         150                                
PGRFAMCHA060802065316065446000130MV Disney - (MD//NSNSW) - Walking On Sunshine (Aly                                                                     60688120                                
PROFAMCHA060802065446065500000014xxFAMJAM - Close (FAMILY) xxDNUxx                                                                                           150                                
PRCFAMCHA060802065500065530000030xxPsychedelic Summer Stunt #1 (MMM, MD, NS, NSW) T                                                                          150                                
PRCFAMCHA060802065530065541000011xxPsychedelic Summer Billboard (AUG ) July29 - Aug                                                                          150                                
PROFAMCHA060802065541065600000019MadMadMornings Block Open                                                                                                   150                                
PGRFAMCHA060802065600071850002250Disney's Kim Possible                             EPS # 1-025                                                         A6068607E                                
PRCFAMCHA060802071850071904000014MMM - 02 (AM) - RECESS/WEEKENDERS/LILO (OCT05) (:1                                                                          150                                
PROFAMCHA060802071904071929000025Recess - CAREER DAY (MMM) - (JULY06) - Coming Up N                                                                          150                                
PROFAMCHA060802071929071959000030Shaggy Dog (Available Now) (Aug1-6)                                                                                         150                                
PROFAMCHA060802071959072035000036Weekenders - PIZZA (MMM) - (APR06) - This Morning                                                                           150                                
