SO FAMCHA031001043000043011000011Sign On (oct 1)                                                                                                         06                                     
PROFAMCHA031001043011043020000009CC Disclaimer - FAST - Family (:08-:10)                                                                                 06  150                                
SGTFAMCHA031001043020045313002253Franklin                                          Franklin Says Sorry/Franklin & The Fire                       B13649A1065607ECC                              
SGTFAMCHA031001043020045313002253Franklin                                          Franklin Says Sorry/Franklin & The Fire                       B13649A1065607ECC                              
PROFAMCHA031001045313045329000016PS - 01(PH) - WTP/KATIE/FRANKLIN (:14-:16)                                                                              06  150                                
ID FAMCHA031001045329045344000015PS Playhouse AM Block Open (:10-:15)                                                                                    06  150                                
PROFAMCHA031001045344045353000009CC Disclaimer - FAST - Family.ca (:08-:10)                                                                              06  150                                
SGTFAMCHA031001045353051712002319New Adventures of Winnie the Pooh; The            Rabbit Marks The Spot/Good-Bye Mr.Pooh                               6068607ECC                              
PROFAMCHA031001051712051728000016PS - 02(PH) - KATIE/FRANKLIN/RIPLEY (:14-:16)                                                                           06  150                                
ID FAMCHA031001051728051743000015PS Playhouse AM Block Open (:10-:15)                                                                                    06  150                                
PROFAMCHA031001051743051753000010CC Disclaimer - FAST - Generic (:08-:10)                                                                                06  150                                
SGTFAMCHA031001051753054428002635Katie And Orbie                                   The Attic/The Zoo/Katie Up A Tree                             C12449A1065607ECC                              
SGTFAMCHA031001051753054428002635Katie And Orbie                                   The Attic/The Zoo/Katie Up A Tree                             C12449A1065607ECC                              
PROFAMCHA031001054428054444000016PS - 03(PH) - FRANKLIN/RIPLEY/HOZE (:14-:16)                                                                            06  150                                
ID FAMCHA031001054444054459000015PS Playhouse AM Block Open (:10-:15)                                                                                    06  150                                
PROFAMCHA031001054459054508000009CC Disclaimer - FAST - Family (:08-:10)                                                                                 06  150                                
SGTFAMCHA031001054508060801002253Franklin                                          Franklin's Garden/Franklin Runs Away                          B13650A1065607ECC                              
SGTFAMCHA031001054508060801002253Franklin                                          Franklin's Garden/Franklin Runs Away                          B13650A1065607ECC                              
PROFAMCHA031001060801060817000016PS - 04(PH) - RIPLEY/HOZE/KNIGHT (:14-:16)                                                                              06  150                                
ID FAMCHA031001060817060832000015PS Playhouse AM Block Open (:10-:15)                                                                                    06  150                                
PROFAMCHA031001060832060841000009CC Disclaimer - FAST - Family.ca (:08-:10)                                                                              06  150                                
SGTFAMCHA031001060841063311002430Ripley's Believe It Or Not!                       The Lama's Skull                                              B21803 1065607ECC                              
SGTFAMCHA031001060841063311002430Ripley's Believe It Or Not!                       The Lama's Skull                                              B21803 1065607ECC                              
PROFAMCHA031001063311063327000016PS - 05(PH) - HOZE/KNIGHT/PRLR (:14-:16)                                                                                06  150                                
PROFAMCHA031001063327063412000045Hoze Houndz (PAMPER - FALL 2003) - Coming Up (PH)                                                                      106  150                                
PROFAMCHA031001063327063412000045Hoze Houndz (PAMPER - FALL 2003) - Coming Up (PH)                                                                      106  150                                
PROFAMCHA031001063412063426000014Playhouse - HOZE HOUNDZ - Skater                                                                                        06  150                                
PRCFAMCHA031001063426063450000024Something Else (IS WELL) - Weekends @ 6:45pm                                                                           106  150                                
PRCFAMCHA031001063426063450000024Something Else (IS WELL) - Weekends @ 6:45pm                                                                           106  150                                
ID FAMCHA031001063450063500000010PS Playhouse AM Block Open (:10-:15)                                                                                    06  150                                
PROFAMCHA031001063500063510000010CC Disclaimer - FAST - Generic (:08-:10)                                                                                06  150                                
SGTFAMCHA031001063510065745002235Hoze Houndz                                       The Day The Houndz Stood Still/Poeticize                      B34013A1065607ECC                              
SGTFAMCHA031001063510065745002235Hoze Houndz                                       The Day The Houndz Stood Still/Poeticize                      B34013A1065607ECC                              
PROFAMCHA031001065745065800000015PS - 06(PB) - KNIGHT/PRLR/GADGET (:14-:16)                                                                              06  150                                
PROFAMCHA031001065800065830000030Halloween (PP) - 1 - Tower of Terror - Friday @ 7:                                                                     106  150                                
PROFAMCHA031001065800065830000030Halloween (PP) - 1 - Tower of Terror - Friday @ 7:                                                                     106  150                                
PROFAMCHA031001065830065848000018xxThat's So Raven (FALL 2003) - Tonight @ 7pm                                                                          102  150                                
PROFAMCHA031001065830065848000018xxThat's So Raven (FALL 2003) - Tonight @ 7pm                                                                          102  150                                
PRCFAMCHA031001065848065918000030King (FRIENDS) - Weekends @ 7:35pm                                                                                     106  150                                
PRCFAMCHA031001065848065918000030King (FRIENDS) - Weekends @ 7:35pm                                                                                     106  150                                
PROFAMCHA031001065918065950000032xxKim Possible (FALL 2003) - Today @ 4:40pm (MD)                                                                       102  150                                
PROFAMCHA031001065918065950000032xxKim Possible (FALL 2003) - Today @ 4:40pm (MD)                                                                       102  150                                
ID FAMCHA031001065950070000000010PS Power Box Block Open (:10-:15)                                                                                       06  150                                
PROFAMCHA031001070000070009000009CC Disclaimer - FAST - Family (:08-:10)                                                                                 06  150                                
SGTFAMCHA031001070009072134002125Mon Colle Knights                                 EPS # 1-018                                                         A6068607ECC                              
PROFAMCHA031001072134072149000015PS - 07(PB) - PRLR/GADGET/DALMATIANS (:14-:16)                                                                          06  150                                
PROFAMCHA031001072149072219000030Halloween (PP) - 1 - Tower of Terror - Friday @ 7:                                                                     106  150                                
PROFAMCHA031001072149072219000030Halloween (PP) - 1 - Tower of Terror - Friday @ 7:                                                                     106  150                                
PROFAMCHA031001072219072250000031xxBrendan Leonard (#1 - FALL 2003) - Tonight @ 6:3                                                                     106  150                                
PROFAMCHA031001072219072250000031xxBrendan Leonard (#1 - FALL 2003) - Tonight @ 6:3                                                                     106  150                                
PROFAMCHA031001072250072330000040Hoze Houndz (PIRATES - FALL 2003) - Today @ 2:10pm                                                                     106  150                                
PROFAMCHA031001072250072330000040Hoze Houndz (PIRATES - FALL 2003) - Today @ 2:10pm                                                                     106  150                                
INTFAMCHA031001072330072730000400Movie Surfers Freaky Friday - In Theatres Now *DNU                                                                     60688130                                
PRCFAMCHA031001072730072745000015Kart Racer Contest - In Theatres Now (3)                                                                                06  150                                
INTFAMCHA031001072745072915000130Klootz - Farwest Flick #51                                                                                            A10658120                                
INTFAMCHA031001072745072915000130Klootz - Farwest Flick #51                                                                                            A10658120                                
PRCFAMCHA031001072915072945000030xxKing (INTRO) - Weekends @ 7:35pm                                                                                     106  150                                
PRCFAMCHA031001072915072945000030xxKing (INTRO) - Weekends @ 7:35pm                                                                                     106  150                                
ID FAMCHA031001072945073000000015PS Power Box Block Open (:10-:15)                                                                                       06  150                                
SGTFAMCHA031001073000075129002129Power Rangers Lightspeed Rescue                   Olympius Unbound                                                    A6068607ECC                              
PROFAMCHA031001075129075145000016PS - 08(PB) - GADGET/DALMATIANS/FRANKLIN (:14-:16)                                                                      06  150                                
PROFAMCHA031001075145075215000030Halloween (PP) - 1 - Tower of Terror - Friday @ 7:                                                                     106  150                                
PROFAMCHA031001075145075215000030Halloween (PP) - 1 - Tower of Terror - Friday @ 7:                                                                     106  150                                
PROFAMCHA031001075215075240000025xxEven Stevens (GOLF - FALL 2003) - Fridays @ 6:30                                                                     106  150                                
PROFAMCHA031001075215075240000025xxEven Stevens (GOLF - FALL 2003) - Fridays @ 6:30                                                                     106  150                                
PROFAMCHA031001075240075310000030xxBrendan Leonard (#2 - FALL 2003) - Tonight @ 6:3                                                                     102  150                                
PROFAMCHA031001075240075310000030xxBrendan Leonard (#2 - FALL 2003) - Tonight @ 6:3                                                                     102  150                                
PGRFAMCHA031001075310075810000500Movie Surfers Finding Nemo #2 *DNU*                                                                                    60688150                                
PRCFAMCHA031001075810075825000015Kart Racer Contest - In Theatres Now (3)                                                                                06  150                                
PROFAMCHA031001075825075855000030Fillmore (STYLISH) - Weekends @ 4:15pm                                                                                 106  150                                
PROFAMCHA031001075825075855000030Fillmore (STYLISH) - Weekends @ 4:15pm                                                                                 106  150                                
PROFAMCHA031001075855075920000025Hoze Houndz (PLATES - FALL 2003) - Today @ 2:10pm                                                                      102  150                                
PROFAMCHA031001075855075920000025Hoze Houndz (PLATES - FALL 2003) - Today @ 2:10pm                                                                      102  150                                
PRCFAMCHA031001075920075944000024In A Heartbeat (FALL2003) - Tonight @ 8:30pm                                                                           106  150                                
PRCFAMCHA031001075920075944000024In A Heartbeat (FALL2003) - Tonight @ 8:30pm                                                                           106  150                                
ID FAMCHA031001075944075959000015PS Power Box Block Open (:10-:15)                                                                                       06  150                                
SGTFAMCHA031001075959082212002213Gadget & the Gadgetinis                           EPS # 1-033                                                         A6028607E                                
PROFAMCHA031001082212082227000015PS - 09(PH) - DALMATIANS/FRANKLIN/WTP (:14-:16)                                                                         06  150                                
PROFAMCHA031001082227082257000030Disney's 101 Dalmatians - Coming Up                                                                                    106  150                                
PROFAMCHA031001082227082257000030Disney's 101 Dalmatians - Coming Up                                                                                    106  150                                
PROFAMCHA031001082257082332000035Franklin (CANOE - FALL 2003) - Today @ 8:55am                                                                          106  150                                
PROFAMCHA031001082257082332000035Franklin (CANOE - FALL 2003) - Today @ 8:55am                                                                          106  150                                
PGRFAMCHA031001082332082832000500Movie Surfers Finding Nemo #2 *DNU*                                                                                    60688150                                
PRCFAMCHA031001082832082902000030House of Mouse (FALL 2003) - Today @ 2:35pm                                                                            106  150                                
PRCFAMCHA031001082832082902000030House of Mouse (FALL 2003) - Today @ 2:35pm                                                                            106  150                                
PROFAMCHA031001082902082916000014Playhouse - HOZE HOUNDZ - Skater                                                                                        06  150                                
PRCFAMCHA031001082916082946000030Henry's World (FALL 2003) - Today @ 10:10am *DNU*                                                                      106  150                                
PRCFAMCHA031001082916082946000030Henry's World (FALL 2003) - Today @ 10:10am *DNU*                                                                      106  150                                
ID FAMCHA031001082946082959000013PS Playhouse AM Block Open (:10-:15)                                                                                    06  150                                
SGTFAMCHA031001082959085245002246Disney's 101 Dalmatians: The Series               EPS # 1-062                                                         A6028607E                                
PROFAMCHA031001085245085301000016PS - 10(PH) - FRANKLIN/WTP/STANLEY (:14-:16) (DEC)                                                                      06  150                                
PROFAMCHA031001085301085331000030Stanley (FALL 2003) - Today @ 9:45am *DNU*                                                                             106  150                                
PROFAMCHA031001085301085331000030Stanley (FALL 2003) - Today @ 9:45am *DNU*                                                                             106  150                                
PRCFAMCHA031001085331085359000028xxSomething Else (INTRO) - Weekends @ 6:45pm                                                                           106  150                                
PRCFAMCHA031001085331085359000028xxSomething Else (INTRO) - Weekends @ 6:45pm                                                                           106  150                                
PROFAMCHA031001085359085418000019Playhouse - HOZE HOUNDZ - Code Blue                                                                                     06  150                                
PRCFAMCHA031001085418085448000030Henry's World (FALL 2003) - Today @ 10:10am *DNU*                                                                      106  150                                
PRCFAMCHA031001085418085448000030Henry's World (FALL 2003) - Today @ 10:10am *DNU*                                                                      106  150                                
ID FAMCHA031001085448085459000011PS Playhouse AM Block Open (:10-:15)                                                                                    06  150                                
PROFAMCHA031001085459085508000009CC Disclaimer - FAST - Family.ca (:08-:10)                                                                              06  150                                
SGTFAMCHA031001085508091801002253Franklin                                          The Puppet/Stopwatch                                          B38152A1065607ECC                              
SGTFAMCHA031001085508091801002253Franklin                                          The Puppet/Stopwatch                                          B38152A1065607ECC                              
PROFAMCHA031001091801091817000016PS - 11(PH) - WTP/STANLEY/HENRY (:14-:16) (DEC)                                                                         06  150                                
PROFAMCHA031001091817091847000030Disney's 101 Dalmatians - Today @ 1:25pm                                                                               106  150                                
PROFAMCHA031001091817091847000030Disney's 101 Dalmatians - Today @ 1:25pm                                                                               106  150                                
PROFAMCHA031001091847091922000035Playhouse - KATIE & ORBIE - Discoveries                                                                                 06  150                                
PRCFAMCHA031001091922091946000024Something Else (IS WELL) - Weekends @ 6:45pm                                                                           106  150                                
PRCFAMCHA031001091922091946000024Something Else (IS WELL) - Weekends @ 6:45pm                                                                           106  150                                
ID FAMCHA031001091946092000000014PS Playhouse AM Block Open (:10-:15)                                                                                    06  150                                
PROFAMCHA031001092000092010000010CC Disclaimer - FAST - Generic (:08-:10)                                                                                06  150                                
SGTFAMCHA031001092010094322002312New Adventures of Winnie the Pooh; The            Bubble Trouble/Ground Piglet Day                                    A6068607ECC                              
PROFAMCHA031001094322094338000016PS - 12(PH) - STANLEY/HENRY/ELMO (:14-:16) (DEC)                                                                        06  150                                
PROFAMCHA031001094338094411000033Elmo's World (DANCE - FALL 2003) - Today @ 10:40am                                                                     106  150                                
PROFAMCHA031001094338094411000033Elmo's World (DANCE - FALL 2003) - Today @ 10:40am                                                                     106  150                                
PRCFAMCHA031001094411094441000030Henry's World (FALL 2003) - Today @ 10:10am *DNU*                                                                      106  150                                
PRCFAMCHA031001094411094441000030Henry's World (FALL 2003) - Today @ 10:10am *DNU*                                                                      106  150                                
PROFAMCHA031001094441094516000035Playhouse - KATIE & ORBIE - Discoveries                                                                                 06  150                                
PRCFAMCHA031001094516094546000030xxKing (INTRO) - Weekends @ 7:35pm                                                                                     106  150                                
PRCFAMCHA031001094516094546000030xxKing (INTRO) - Weekends @ 7:35pm                                                                                     106  150                                
ID FAMCHA031001094546094600000014PS Playhouse AM Block Open (:10-:15)                                                                                    06  150                                
PROFAMCHA031001094600094609000009CC Disclaimer - FAST - Family (:08-:10)                                                                                 06  150                                
SGTFAMCHA031001094609101007002358Stanley                                           The Joker/Baby Pictures                                             A6068607ECC                              
PROFAMCHA031001101007101023000016PS - 13(PH) - HENRY/ELMO/CHIP (:14-:16) (DEC)                                                                           06  150                                
PRCFAMCHA031001101023101053000030Henry's World (FALL 2003) - Coming Up *DNU*                                                                            106  150                                
PRCFAMCHA031001101023101053000030Henry's World (FALL 2003) - Coming Up *DNU*                                                                            106  150                                
PROFAMCHA031001101053101123000030Stanley (FALL 2003) - Tomorrow @ 9:45am                                                                                106  150                                
PROFAMCHA031001101053101123000030Stanley (FALL 2003) - Tomorrow @ 9:45am                                                                                106  150                                
PROFAMCHA031001101123101215000052Elmo's World (MUFFET - FALL 2003) - Today @ 10:40a                                                                     106  150                                
PROFAMCHA031001101123101215000052Elmo's World (MUFFET - FALL 2003) - Today @ 10:40a                                                                     106  150                                
PRCFAMCHA031001101215101245000030King (FRIENDS) - Weekends @ 7:35pm                                                                                     106  150                                
PRCFAMCHA031001101215101245000030King (FRIENDS) - Weekends @ 7:35pm                                                                                     106  150                                
ID FAMCHA031001101245101300000015PS Playhouse AM Block Open (:10-:15)                                                                                    06  150                                
PROFAMCHA031001101300101309000009CC Disclaimer - FAST - Family.ca (:08-:10)                                                                              06  150                                
SGTFAMCHA031001101309103659002350Henry's World                                     Triple Trouble/Tunnelling To China                            B66545A1065607GCC                              
SGTFAMCHA031001101309103659002350Henry's World                                     Triple Trouble/Tunnelling To China                            B66545A1065607GCC                              
PROFAMCHA031001103659103715000016PS - 14(PH) - ELMO/CHIP/ART (:14-:16) (DEC)                                                                             06  150                                
PROFAMCHA031001103715103748000033Elmo's World (DANCE - FALL 2003) - Coming Up                                                                           106  150                                
PROFAMCHA031001103715103748000033Elmo's World (DANCE - FALL 2003) - Coming Up                                                                           106  150                                
PRCFAMCHA031001103748103816000028xxSomething Else (INTRO) - Weekends @ 6:45pm                                                                           106  150                                
PRCFAMCHA031001103748103816000028xxSomething Else (INTRO) - Weekends @ 6:45pm                                                                           106  150                                
PRCFAMCHA031001103816103846000030King (FRIENDS) - Weekends @ 7:35pm                                                                                     106  150                                
PRCFAMCHA031001103816103846000030King (FRIENDS) - Weekends @ 7:35pm                                                                                     106  150                                
PRCFAMCHA031001103846103916000030House of Mouse (FALL 2003) - Today @ 2:35pm                                                                            106  150                                
PRCFAMCHA031001103846103916000030House of Mouse (FALL 2003) - Today @ 2:35pm                                                                            106  150                                
PROFAMCHA031001103916103946000030Disney's 101 Dalmatians - Today @ 1:25pm                                                                               106  150                                
PROFAMCHA031001103916103946000030Disney's 101 Dalmatians - Today @ 1:25pm                                                                               106  150                                
ID FAMCHA031001103946104000000014PS Playhouse AM Block Open (:10-:15)                                                                                    06  150                                
SGTFAMCHA031001104000105728001728Elmo's World                                      Transportation                                                      A2068607G                                
SGTFAMCHA031001104000105728001728Elmo's World                                      Transportation                                                      A2068607G                                
PROFAMCHA031001105728105744000016PS - 15(PH) - CHIP/ART/RECESS (:14-:16)                                                                                 06  150                                
INTFAMCHA031001105744110015000231xxLilo & Stitch Music Video - On DVD Now *DNU*                                                                         60688130                                
PRCFAMCHA031001110015110045000030xxKing (INTRO) - Weekends @ 7:35pm                                                                                     106  150                                
PRCFAMCHA031001110015110045000030xxKing (INTRO) - Weekends @ 7:35pm                                                                                     106  150                                
ID FAMCHA031001110045110100000015PS Playhouse AM Block Open (:10-:15)                                                                                    06  150                                
ID FAMCHA031001110100110109000009Magic of Disney - MAD DASH - Wipe (:06-:09)                                                                             06  150                                
SGTFAMCHA031001110109112358002249Chip 'n Dale Rescue Rangers                       Gorilla Of My Dreams                                                A6068607E                                
PROFAMCHA031001112358112414000016PS - 16(PH) - ART/RECESS/BMW (:14-:16) (DEC)                                                                            06  150                                
PRCFAMCHA031001112414112438000024Something Else (IS WELL) - Weekends @ 6:45pm                                                                           106  150                                
PRCFAMCHA031001112414112438000024Something Else (IS WELL) - Weekends @ 6:45pm                                                                           106  150                                
INTFAMCHA031001112438112623000145Disney Circle Time - The Fox And The Crow (anywher                                                                     60688130                                
PROFAMCHA031001112623112646000023Playhouse - HOUSE OF MOUSE - Calculator                                                                                 06  150                                
ID FAMCHA031001112646112700000014PS Playhouse AM Block Open (:10-:15)                                                                                    06  150                                
SGTFAMCHA031001112700114209001509Art Attack                                                                                                             60686110                                
PROFAMCHA031001114209114225000016PS - 17(MD) - RECESS/BMW/ALF (:14-:16) (DEC)                                                                            06  150                                
PROFAMCHA031001114225114255000030Halloween (PP) - 1 - Tower of Terror - Friday @ 7:                                                                     106  150                                
PROFAMCHA031001114225114255000030Halloween (PP) - 1 - Tower of Terror - Friday @ 7:                                                                     106  150                                
PRCFAMCHA031001114255114319000024In A Heartbeat (FALL2003) - Tonight @ 8:30pm                                                                           106  150                                
PRCFAMCHA031001114255114319000024In A Heartbeat (FALL2003) - Tonight @ 8:30pm                                                                           106  150                                
PGRFAMCHA031001114319114819000500Movie Surfers Pirates of the Caribbean #2 *DNU*                                                                        60688150                                
PRCFAMCHA031001114819114849000030King (FRIENDS) - Weekends @ 7:35pm                                                                                     106  150                                
PRCFAMCHA031001114819114849000030King (FRIENDS) - Weekends @ 7:35pm                                                                                     106  150                                
PROFAMCHA031001114849114914000025xxEven Stevens (GOLF - FALL 2003) - Fridays @ 6:30                                                                     106  150                                
PROFAMCHA031001114849114914000025xxEven Stevens (GOLF - FALL 2003) - Fridays @ 6:30                                                                     106  150                                
PROFAMCHA031001114914114945000031xxBrendan Leonard (#1 - FALL 2003) - Tonight @ 6:3                                                                     106  150                                
PROFAMCHA031001114914114945000031xxBrendan Leonard (#1 - FALL 2003) - Tonight @ 6:3                                                                     106  150                                
ID FAMCHA031001114945115000000015PS Mad Dash Block Open (:13-:15)                                                                                        06  150                                
SGTFAMCHA031001115000121235002235Disney's Recess                                   Prickely Is Leaving/Randall's Friends                                6068607E                                
PROFAMCHA031001121235121251000016PS - 18(MD) - BMW/ALF/MENTORS (:14-:16) (DEC)                                                                           06  150                                
ID FAMCHA031001121251121304000013PS Mad Dash Block Open (:13-:15)                                                                                        06  150                                
PROFAMCHA031001121304121314000010CC Disclaimer - FAST - Generic (:08-:10)                                                                                06  150                                
SGTFAMCHA031001121314123539002225Boy Meets World                                   Life Lessons                                                        B6068807BCC                              
PROFAMCHA031001123539123554000015PS - 19(MD) - ALF/MENTORS/DALMATIANS (:14-:16) (DE                                                                      06  150                                
PRCFAMCHA031001123554123609000015Kart Racer Contest - In Theatres Now (3)                                                                                06  150                                
PROFAMCHA031001123609123647000038Hoze Houndz (PIRATES - FALL 2003) - Weekends @ 6:2                                                                     102  150                                
PROFAMCHA031001123609123647000038Hoze Houndz (PIRATES - FALL 2003) - Weekends @ 6:2                                                                     102  150                                
ID FAMCHA031001123647123700000013Mad Dash Block Open (:13-:15)                                                                                           06  150                                
PROFAMCHA031001123700123709000009CC Disclaimer - FAST - Family (:08-:10)                                                                                 06  150                                
SGTFAMCHA031001123709125837002128ALF                                               True Colours                                                        A2068807BCC                              
SGTFAMCHA031001123709125837002128ALF                                               True Colours                                                        A2068807BCC                              
PROFAMCHA031001125837125853000016PS - 20(MD) - MENTORS/DALMATIANS/CHIP (:14-:16) (D                                                                      06  150                                
PROFAMCHA031001125853125923000030Halloween (PP) - 1 - Tower of Terror - Friday @ 7:                                                                     106  150                                
PROFAMCHA031001125853125923000030Halloween (PP) - 1 - Tower of Terror - Friday @ 7:                                                                     106  150                                
PROFAMCHA031001125923125947000024Mad Dash - RECESS - Removal                                                                                             06  150                                
ID FAMCHA031001125947130000000013PS Mad Dash Block Open (:13-:15)                                                                                        06  150                                
PROFAMCHA031001130000130009000009CC Disclaimer - FAST - Family.ca (:08-:10)                                                                              06  150                                
SGTFAMCHA031001130009132320002311Mentors                                           The Book of Love                                              C17437 1065607ACC                              
SGTFAMCHA031001130009132320002311Mentors                                           The Book of Love                                              C17437 1065607ACC                              
PROFAMCHA031001132320132336000016PS - 21(PH) - DALMATIANS/CHIP/HOZE (:14-:16)                                                                            06  150                                
PROFAMCHA031001132336132350000014Playhouse - HOZE HOUNDZ - Skater                                                                                        06  150                                
ID FAMCHA031001132350132400000010PS Playhouse PM Block Open (:10-:15)                                                                                    06  150                                
SGTFAMCHA031001132400134646002246Disney's 101 Dalmatians: The Series               EPS # 1-063                                                         A6028607E                                
PROFAMCHA031001134646134702000016PS - 22(PH) - CHIP/HOZE/HOM (:14-:16)                                                                                   06  150                                
PRCFAMCHA031001134702134730000028xxSomething Else (INTRO) - Weekends @ 6:45pm                                                                           106  150                                
PRCFAMCHA031001134702134730000028xxSomething Else (INTRO) - Weekends @ 6:45pm                                                                           106  150                                
PROFAMCHA031001134730134749000019Playhouse - HOZE HOUNDZ - Code Blue                                                                                     06  150                                
ID FAMCHA031001134749134800000011PS Playhouse PM Block Open (:10-:15)                                                                                    06  150                                
ID FAMCHA031001134800134809000009Magic of Disney - MAD DASH - Shape (:06-:09)                                                                            06  150                                
SGTFAMCHA031001134809141053002244Chip 'n Dale Rescue Rangers                       Catteries Not Included                                              A6068607E                                
PROFAMCHA031001141053141107000014PS - 23(PH) - HOZE/HOM/LION (:14-:16)                                                                                   06  150                                
PROFAMCHA031001141107141152000045Hoze Houndz (PAMPER - FALL 2003) - Coming Up (PH)                                                                      106  150                                
PROFAMCHA031001141107141152000045Hoze Houndz (PAMPER - FALL 2003) - Coming Up (PH)                                                                      106  150                                
ID FAMCHA031001141152141202000010PS Playhouse PM Block Open (:10-:15)                                                                                    06  150                                
PROFAMCHA031001141202141212000010CC Disclaimer - FAST - Generic (:08-:10)                                                                                06  150                                
SGTFAMCHA031001141212143446002234Hoze Houndz                                       Fish Tales/Money Where Your Mouth Is                          B45770A1065607ECC                              
SGTFAMCHA031001141212143446002234Hoze Houndz                                       Fish Tales/Money Where Your Mouth Is                          B45770A1065607ECC                              
PROFAMCHA031001143446143502000016PS - 24(PH) - HOM/LION/TEAMO (:14-:16) (DEC)                                                                            06  150                                
PRCFAMCHA031001143502143532000030Polly Pocket Contest (1;2)                                                                                              06  150                                
PROFAMCHA031001143532143546000014Playhouse - HOZE HOUNDZ - Skater                                                                                        06  150                                
ID FAMCHA031001143546143600000014PS Playhouse PM Block Open (:10-:15)                                                                                    06  150                                
PROFAMCHA031001143600143609000009CC Disclaimer - FAST - Family (:08-:10)                                                                                 06  150                                
SGTFAMCHA031001143609145846002237Disney's House Of Mouse                           House of Magic                                                      A6068607E                                
PROFAMCHA031001145846145902000016Mad Dash  - 01 - LION/TEAMO/WEEKENDERS (:14-:16) (                                                                      06  150                                
PROFAMCHA031001145902145932000030Halloween (PP) - 1 - Tower of Terror - Friday @ 7:                                                                     106  150                                
PROFAMCHA031001145902145932000030Halloween (PP) - 1 - Tower of Terror - Friday @ 7:                                                                     106  150                                
PROFAMCHA031001145932145944000012Mad Dash - RECESS - Sprinkler                                                                                           06  150                                
ID FAMCHA031001145944145959000015Mad Dash Block Open (:13-:15)                                                                                           06  150                                
PROFAMCHA031001145959150008000009CC Disclaimer - FAST - Family.ca (:08-:10)                                                                              06  150                                
SGTFAMCHA031001150008152250002242Lion King's Timon & Pumbaa; The                   Unlucky in Lesotho/Rafiki's Apprentice                               6068607ECC                              
PROFAMCHA031001152250152306000016Mad Dash  - 02 - TEAMO/WEEKENDERS/RECESS (:14-:16)                                                                      06  150                                
PROFAMCHA031001152306152336000030Halloween (PP) - 1 - Tower of Terror - Friday @ 7:                                                                     106  150                                
PROFAMCHA031001152306152336000030Halloween (PP) - 1 - Tower of Terror - Friday @ 7:                                                                     106  150                                
INTFAMCHA031001152336152404000028Harrisons; The - Soaker                                                                                               A10626120                                
INTFAMCHA031001152336152404000028Harrisons; The - Soaker                                                                                               A10626120                                
PROFAMCHA031001152404152427000023xxProud Family (FALL 2003) - Today @ 5:05pm                                                                            102  150                                
PROFAMCHA031001152404152427000023xxProud Family (FALL 2003) - Today @ 5:05pm                                                                            102  150                                
PROFAMCHA031001152427152445000018xxThat's So Raven (FALL 2003) - Tonight @ 7pm                                                                          102  150                                
PROFAMCHA031001152427152445000018xxThat's So Raven (FALL 2003) - Tonight @ 7pm                                                                          102  150                                
ID FAMCHA031001152445152500000015Mad Dash Block Open (:13-:15)                                                                                           06  150                                
PROFAMCHA031001152500152510000010CC Disclaimer - FAST - Generic (:08-:10)                                                                                06  150                                
SGTFAMCHA031001152510154803002253Disney's Teamo Supremo                            Sinister Sloppy Joe/Surf, Sand, Sun and...Skull?                    A6068607ECC                              
PROFAMCHA031001154803154819000016Mad Dash  - 03 - WEEKENDERS/RECESS/KIM (:14-:16)                                                                        06  150                                
PROFAMCHA031001154819154849000030Halloween (PP) - 1 - Tower of Terror - Friday @ 7:                                                                     106  150                                
PROFAMCHA031001154819154849000030Halloween (PP) - 1 - Tower of Terror - Friday @ 7:                                                                     106  150                                
INTFAMCHA031001154849154922000033Harrisons; The - Soccer Balls                                                                                         A10626120                                
INTFAMCHA031001154849154922000033Harrisons; The - Soccer Balls                                                                                         A10626120                                
PROFAMCHA031001154922154945000023xxProud Family (FALL 2003) - Today @ 5:05pm                                                                            102  150                                
PROFAMCHA031001154922154945000023xxProud Family (FALL 2003) - Today @ 5:05pm                                                                            102  150                                
ID FAMCHA031001154945155000000015Mad Dash Block Open (:13-:15)                                                                                           06  150                                
PROFAMCHA031001155000155009000009CC Disclaimer - FAST - Family (:08-:10)                                                                                 06  150                                
SGTFAMCHA031001155009161244002235Disney's The Weekenders                           The Invited/Real Fake                                               A6068607ECC                              
PROFAMCHA031001161244161300000016Mad Dash  - 04 - RECESS/KIM/PROUD (:14-:16)                                                                             06  150                                
PROFAMCHA031001161300161330000030Halloween (PP) - 1 - Tower of Terror - Friday @ 7:                                                                     106  150                                
PROFAMCHA031001161300161330000030Halloween (PP) - 1 - Tower of Terror - Friday @ 7:                                                                     106  150                                
INTFAMCHA031001161330161403000033Harrisons; The - Spinning Grampa                                                                                      A10626120                                
INTFAMCHA031001161330161403000033Harrisons; The - Spinning Grampa                                                                                      A10626120                                
PROFAMCHA031001161403161415000012Mad Dash - RECESS - Sprinkler                                                                                           06  150                                
PRCFAMCHA031001161415161445000030Lion King DVD Promotion (3;3;2) - In Stores Octobe                                                                      06  150                                
PRCFAMCHA031001161445161515000030Family Birthday Club #2 - ONGOING (1) (DNU Post Ja                                                                      06  150                                
ID FAMCHA031001161515161529000014Mad Dash Block Open (:13-:15)                                                                                           06  150                                
PROFAMCHA031001161529161600000031xxBrendan Leonard (#1 - FALL 2003) - Tonight @ 6:3                                                                     106  150                                
PROFAMCHA031001161529161600000031xxBrendan Leonard (#1 - FALL 2003) - Tonight @ 6:3                                                                     106  150                                
SGTFAMCHA031001161600163835002235Disney's Recess                                   Prickely Is Leaving/Randall's Friends                                6068607E                                
PROFAMCHA031001163835163850000015Mad Dash  - 05 - KIM/PROUD/LIZZIE (:14-:16)                                                                             06  150                                
PROFAMCHA031001163850163920000030Halloween (PP) - 1 - Tower of Terror - Friday @ 7:                                                                     106  150                                
PROFAMCHA031001163850163920000030Halloween (PP) - 1 - Tower of Terror - Friday @ 7:                                                                     106  150                                
PRCFAMCHA031001163920163950000030Good Boy Contest (2)                                                                                                    06  150                                
PROFAMCHA031001163950164020000030Fillmore (STYLISH) - Weekends @ 4:15pm                                                                                 106  150                                
PROFAMCHA031001163950164020000030Fillmore (STYLISH) - Weekends @ 4:15pm                                                                                 106  150                                
PROFAMCHA031001164020164050000030Mad Dash (INSANE - FALL 2003) - Weekdays, Starting                                                                      06  150                                
PROFAMCHA031001164050164147000057xxBoy Meets World (DANCE - FALL 2003) - Tonight @                                                                      106  150                                
PROFAMCHA031001164050164147000057xxBoy Meets World (DANCE - FALL 2003) - Tonight @                                                                      106  150                                
ID FAMCHA031001164147164200000013Mad Dash Block Open (:13-:15)                                                                                           06  150                                
SGTFAMCHA031001164200170451002251Disney's Kim Possible                             Kimitation Nation                                                   A6068607E                                
PROFAMCHA031001170451170507000016Mad Dash  - 06 - PROUD/LIZZIE/ALL (:14-:16)                                                                             06  150                                
PROFAMCHA031001170507170537000030Halloween (PP) - 1 - Tower of Terror - Friday @ 7:                                                                     106  150                                
PROFAMCHA031001170507170537000030Halloween (PP) - 1 - Tower of Terror - Friday @ 7:                                                                     106  150                                
PRCFAMCHA031001170537170607000030POP Free Time Promotion (3)                                                                                             06  150                                
PROFAMCHA031001170607170646000039Mad Dash - WEEKENDERS - Arrival                                                                                         06  150                                
PRCFAMCHA031001170646170716000030Family Popcorn Parties (2) *DNU*                                                                                        06  150                                
PRCFAMCHA031001170716170746000030In A Heartbeat (FALL2003) - Tonight @ 8:30pm                                                                           106  150                                
PRCFAMCHA031001170716170746000030In A Heartbeat (FALL2003) - Tonight @ 8:30pm                                                                           106  150                                
ID FAMCHA031001170746170800000014Mad Dash Block Open (:13-:15)                                                                                           06  150                                
PROFAMCHA031001170800170809000009CC Disclaimer - FAST - Family.ca (:08-:10)                                                                              06  150                                
SGTFAMCHA031001170809173040002231Proud Family; The                                 Camping Trip                                                        A6068807ECC                              
PROFAMCHA031001173040173056000016Mad Dash  - 07 - LIZZIE/ALL/BRENDAN (:14-:16)                                                                           06  150                                
PROFAMCHA031001173056173126000030Halloween (PP) - 1 - Tower of Terror - Friday @ 7:                                                                     106  150                                
PROFAMCHA031001173056173126000030Halloween (PP) - 1 - Tower of Terror - Friday @ 7:                                                                     106  150                                
PRCFAMCHA031001173126173156000030Lion King DVD Promotion (3;3;2) - In Stores Octobe                                                                      06  150                                
PROFAMCHA031001173156173219000023Mad Dash - WEEKENDERS - Pizza                                                                                           06  150                                
PRCFAMCHA031001173219173249000030Family Popcorn Parties (2) *DNU*                                                                                        06  150                                
INTFAMCHA031001173249173316000027Harrisons; The - Teeth In Cake                                                                                        A10626120                                
INTFAMCHA031001173249173316000027Harrisons; The - Teeth In Cake                                                                                        A10626120                                
PRCFAMCHA031001173316173346000030In A Heartbeat (FALL2003) - Tonight @ 8:30pm                                                                           106  150                                
PRCFAMCHA031001173316173346000030In A Heartbeat (FALL2003) - Tonight @ 8:30pm                                                                           106  150                                
ID FAMCHA031001173346173400000014Mad Dash Block Open (:13-:15)                                                                                           06  150                                
ID FAMCHA031001173400173408000008Magic of Disney - MAD DASH - Wipe (:06-:09)                                                                             06  150                                
PROFAMCHA031001173408173418000010CC Disclaimer - FAST - Generic (:08-:10)                                                                                06  150                                
SGTFAMCHA031001173418175650002232Lizzie McGuire                                    Gordo's Bar Mitzvah                                                 A6068607BCC                              
PROFAMCHA031001175650175706000016Nonstop - 01(M-T) - ALL/BRENDAN/RAVEN (:14-:16)                                                                         06  150                                
PROFAMCHA031001175706175736000030Halloween (PP) - 1 - Tower of Terror - Friday @ 7:                                                                     106  150                                
PROFAMCHA031001175706175736000030Halloween (PP) - 1 - Tower of Terror - Friday @ 7:                                                                     106  150                                
PRCFAMCHA031001175736175806000030POP Free Time Promotion (3)                                                                                             06  150                                
PROFAMCHA031001175806175818000012Mad Dash - WEEKENDERS - Reality                                                                                         06  150                                
PRCFAMCHA031001175818175848000030Good Boy Contest (2)                                                                                                    06  150                                
PROFAMCHA031001175848175942000054xxBoy Meets World (Mom - FALL 2003) - Tonight 8pm                                                                      106  150                                
PROFAMCHA031001175848175942000054xxBoy Meets World (Mom - FALL 2003) - Tonight 8pm                                                                      106  150                                
ID FAMCHA031001175942175959000017Nonstop Block Open (:14-:17)                                                                                            06  150                                
PROFAMCHA031001175959180008000009CC Disclaimer - FAST - Family (:08-:10)                                                                                 06  150                                
SGTFAMCHA031001180008182429002421All That                                                                                                              A20686090CC                              
SGTFAMCHA031001180008182429002421All That                                                                                                              A20686090CC                              
PROFAMCHA031001182429182445000016Nonstop - 02(M-T) - BRENDAN/RAVEN/JETT (:14-:16)                                                                        06  150                                
PROFAMCHA031001182445182515000030Halloween (PP) - 1 - Tower of Terror - Friday @ 7:                                                                     106  150                                
PROFAMCHA031001182445182515000030Halloween (PP) - 1 - Tower of Terror - Friday @ 7:                                                                     106  150                                
PROFAMCHA031001182515182545000030Brendan Leonard (#2 - FALL 2003) - Coming Up                                                                           106  150                                
PROFAMCHA031001182515182545000030Brendan Leonard (#2 - FALL 2003) - Coming Up                                                                           106  150                                
PRCFAMCHA031001182545182615000030Family Popcorn Parties (2) *DNU*                                                                                        06  150                                
PROFAMCHA031001182615182655000040Nonstop - AMANDA SHOW - Dandruff                                                                                        06  150                                
PRCFAMCHA031001182655182725000030My Scene Contest (2)                                                                                                    06  150                                
INTFAMCHA031001182725182821000056Harrisons; The - Electrocution                                                                                        A10626120                                
INTFAMCHA031001182725182821000056Harrisons; The - Electrocution                                                                                        A10626120                                
PROFAMCHA031001182821182851000030Fillmore (STYLISH) - Weekends @ 4:15pm                                                                                 106  150                                
PROFAMCHA031001182821182851000030Fillmore (STYLISH) - Weekends @ 4:15pm                                                                                 106  150                                
PROFAMCHA031001182851182945000054xxBoy Meets World (Mom - FALL 2003) - Tonight 8pm                                                                      106  150                                
PROFAMCHA031001182851182945000054xxBoy Meets World (Mom - FALL 2003) - Tonight 8pm                                                                      106  150                                
ID FAMCHA031001182945183000000015Nonstop Block Open (:14-:17)                                                                                            06  150                                
PROFAMCHA031001183000183009000009CC Disclaimer - FAST - Family.ca (:08-:10)                                                                              06  150                                
SGTFAMCHA031001183009185119002110Brendan Leonard Show; The                         EPS # 1-027                                                         B6028807FCC                              
PROFAMCHA031001185119185135000016Nonstop - 03(M-T) - RAVEN/JETT/BMW (:14-:16)                                                                            06  150                                
PROFAMCHA031001185135185205000030Halloween (PP) - 1 - Tower of Terror - Friday @ 7:                                                                     106  150                                
PROFAMCHA031001185135185205000030Halloween (PP) - 1 - Tower of Terror - Friday @ 7:                                                                     106  150                                
PRCFAMCHA031001185205185235000030Lion King DVD Promotion (3;3;2) - In Stores Octobe                                                                      06  150                                
INTFAMCHA031001185235185319000044Harrisons; The - Baby Spit Up                                                                                         A10626120                                
INTFAMCHA031001185235185319000044Harrisons; The - Baby Spit Up                                                                                         A10626120                                
PRCFAMCHA031001185319185349000030Family Birthday Club #1 - ONGOING (1) (DNUpost Jan                                                                      06  150                                
INTFAMCHA031001185349185416000027Harrisons; The - Teeth In Cake                                                                                        A10626120                                
INTFAMCHA031001185349185416000027Harrisons; The - Teeth In Cake                                                                                        A10626120                                
PROFAMCHA031001185416185426000010FAMJAM - Open                                                                                                          606 5150                                
INTFAMCHA031001185426185807000341MV Disney - Mambo #5 (LOU BEGA)                                                                                        60688130                                
PROFAMCHA031001185807185821000014FAMJAM - Close (FAMILY)                                                                                                606 5150                                
PRCFAMCHA031001185821185851000030In A Heartbeat (FALL2003) - Tonight @ 8:30pm                                                                           106  150                                
PRCFAMCHA031001185821185851000030In A Heartbeat (FALL2003) - Tonight @ 8:30pm                                                                           106  150                                
PROFAMCHA031001185851185945000054xxBoy Meets World (Mom - FALL 2003) - Tonight 8pm                                                                      106  150                                
PROFAMCHA031001185851185945000054xxBoy Meets World (Mom - FALL 2003) - Tonight 8pm                                                                      106  150                                
ID FAMCHA031001185945190000000015Nonstop Block Open (:14-:17)                                                                                            06  150                                
PROFAMCHA031001190000190010000010CC Disclaimer - FAST - Generic (:08-:10)                                                                                06  150                                
SGTFAMCHA031001190010192250002240That's So Raven                                   EPS # 1-029                                                         A6028807B                                
PROFAMCHA031001192250192306000016Nonstop - 04(M-T) - JETT/BMW/HEARTBEAT (:14-:16) (                                                                      06  150                                
PROFAMCHA031001192306192336000030Halloween (PP) - 1 - Tower of Terror - Friday @ 7:                                                                     106  150                                
PROFAMCHA031001192306192336000030Halloween (PP) - 1 - Tower of Terror - Friday @ 7:                                                                     106  150                                
PRCFAMCHA031001192336192406000030Barbie Of Swan Lake BLAST! Interstitial (2)                                                                             06  150                                
PROFAMCHA031001192406192435000029Nonstop - JETT JACKSON - Chair                                                                                          06  150                                
INTFAMCHA031001192435192511000036Harrisons; The - Balloon Pop Scream                                                                                   A10626120                                
INTFAMCHA031001192435192511000036Harrisons; The - Balloon Pop Scream                                                                                   A10626120                                
PRCFAMCHA031001192511192541000030My Scene Contest (2)                                                                                                    06  150                                
PROFAMCHA031001192541192556000015Nonstop - ALL THAT - Mouth                                                                                              06  150                                
INTFAMCHA031001192556192756000200Gagsters - Cafe Chaos                                                                                                 A20682120                                
INTFAMCHA031001192556192756000200Gagsters - Cafe Chaos                                                                                                 A20682120                                
PROFAMCHA031001192756192816000020Nonstop - BOY MEETS WORLD - Good Looking                                                                                06  150                                
PRCFAMCHA031001192816192846000030In A Heartbeat (FALL2003) - Tonight @ 8:30pm                                                                           106  150                                
PRCFAMCHA031001192816192846000030In A Heartbeat (FALL2003) - Tonight @ 8:30pm                                                                           106  150                                
PROFAMCHA031001192846192943000057xxBoy Meets World (DANCE - FALL 2003) - Tonight @                                                                      106  150                                
PROFAMCHA031001192846192943000057xxBoy Meets World (DANCE - FALL 2003) - Tonight @                                                                      106  150                                
ID FAMCHA031001192943193000000017Nonstop Block Open (:14-:17)                                                                                            06  150                                
PROFAMCHA031001193000193009000009CC Disclaimer - FAST - Family (:08-:10)                                                                                 06  150                                
SGTFAMCHA031001193009195439002430Famous Jett Jackson; The                          Awakenings Part 2                                             B57180 1065607ACC                              
SGTFAMCHA031001193009195439002430Famous Jett Jackson; The                          Awakenings Part 2                                             B57180 1065607ACC                              
PROFAMCHA031001195439195455000016Nonstop - 05(M-T) - BMW/HEARTBEAT/N-PIX (:14-:16)                                                                       06  150                                
PROFAMCHA031001195455195525000030Halloween (PP) - 1 - Tower of Terror - Friday @ 7:                                                                     106  150                                
PROFAMCHA031001195455195525000030Halloween (PP) - 1 - Tower of Terror - Friday @ 7:                                                                     106  150                                
PROFAMCHA031001195525195535000010FAMJAM - Open                                                                                                          606 5150                                
INTFAMCHA031001195535195839000304MV Disney - Why Not (HILARY DUFF)                                                                                      60688130                                
PROFAMCHA031001195839195853000014FAMJAM - Close (FAMILY)                                                                                                606 5150                                
PRCFAMCHA031001195853195923000030Family Birthday Club #2 - ONGOING (1) (DNU Post Ja                                                                      06  150                                
PROFAMCHA031001195923195945000022xxBoy Meets World (ANSWER - FALL 2003) - Tonight @                                                                     106  150                                
PROFAMCHA031001195923195945000022xxBoy Meets World (ANSWER - FALL 2003) - Tonight @                                                                     106  150                                
ID FAMCHA031001195945200000000015Nonstop Block Open (:14-:17)                                                                                            06  150                                
PROFAMCHA031001200000200009000009CC Disclaimer - FAST - Family.ca (:08-:10)                                                                              06  150                                
SGTFAMCHA031001200009202236002227Boy Meets World                                   Me and Mr. Joad                                                     B6068807BCC                              
PROFAMCHA031001202236202252000016Nonstop - 06(M-T) - HEARTBEAT/N-PIX (:14-:16)                                                                           06  150                                
PROFAMCHA031001202252202322000030Halloween (PP) - 1 - Tower of Terror - Friday @ 7:                                                                     106  150                                
PROFAMCHA031001202252202322000030Halloween (PP) - 1 - Tower of Terror - Friday @ 7:                                                                     106  150                                
PRCFAMCHA031001202322202352000030In A Heartbeat (FALL2003) - Coming Up                                                                                  106  150                                
PRCFAMCHA031001202322202352000030In A Heartbeat (FALL2003) - Coming Up                                                                                  106  150                                
INTFAMCHA031001202352202552000200Gagsters - Boat Blaster                                                                                               A20282120                                
INTFAMCHA031001202352202552000200Gagsters - Boat Blaster                                                                                               A20282120                                
PRCFAMCHA031001202552202622000030Family Birthday Club #1 - ONGOING (1) (DNUpost Jan                                                                      06  150                                
INTFAMCHA031001202622202646000024Harrisons; The - Sandwich Face                                                                                        A10626120                                
INTFAMCHA031001202622202646000024Harrisons; The - Sandwich Face                                                                                        A10626120                                
PROFAMCHA031001202646202718000032Nonstop - JETT JACKSON - Crisis                                                                                         06  150                                
INTFAMCHA031001202718202914000156Gagsters - Exploding Pen                                                                                              A20282120                                
INTFAMCHA031001202718202914000156Gagsters - Exploding Pen                                                                                              A20282120                                
PROFAMCHA031001202914202944000030Fillmore (STYLISH) - Weekends @ 4:15pm                                                                                 106  150                                
PROFAMCHA031001202914202944000030Fillmore (STYLISH) - Weekends @ 4:15pm                                                                                 106  150                                
ID FAMCHA031001202944203000000016Nonstop Block Open (:14-:17)                                                                                            06  150                                
PROFAMCHA031001203000203010000010CC Disclaimer - FAST - Generic (:08-:10)                                                                                06  150                                
SGTFAMCHA031001203010205243002233In A Heartbeat                                    A Night To Remember                                           B57189A1065807ACC                              
SGTFAMCHA031001203010205243002233In A Heartbeat                                    A Night To Remember                                           B57189A1065807ACC                              
PROFAMCHA031001205243205259000016Nightly Pix Line-up (SEPT) - GENERIC (:14-:16)                                                                          06  150                                
PROFAMCHA031001205259205329000030Halloween (PP) - 1 - Tower of Terror - Friday @ 7:                                                                     106  150                                
PROFAMCHA031001205259205329000030Halloween (PP) - 1 - Tower of Terror - Friday @ 7:                                                                     106  150                                
INTFAMCHA031001205329205541000212Gagsters - Furniture Fiasco                                                                                           A20682120                                
INTFAMCHA031001205329205541000212Gagsters - Furniture Fiasco                                                                                           A20682120                                
PRCFAMCHA031001205541205611000030Barbie Of Swan Lake BLAST! Interstitial (2)                                                                             06  150                                
INTFAMCHA031001205611205811000200Gagsters - Deep Freeze                                                                                                A20282120                                
INTFAMCHA031001205611205811000200Gagsters - Deep Freeze                                                                                                A20282120                                
PRCFAMCHA031001205811205841000030POP Free Time Promotion (3)                                                                                             06  150                                
INTFAMCHA031001205841205917000036Harrisons; The - Groceries                                                                                            A10626120                                
INTFAMCHA031001205841205917000036Harrisons; The - Groceries                                                                                            A10626120                                
PROFAMCHA031001205917205947000030Brendan Leonard (#2 - FALL 2003) - Tonight @ 11pm                                                                      106  150                                
PROFAMCHA031001205917205947000030Brendan Leonard (#2 - FALL 2003) - Tonight @ 11pm                                                                      106  150                                
ID FAMCHA031001205947210000000013Nightly Pix Movie Open (:10-:15)                                                                                        06  150                                
PRCFAMCHA031001210000210009000009Rating - PG - Ian (:08-:10)                                                                                             06  150                                
PROFAMCHA031001210009210018000009CC Disclaimer - SLOW - Generic (:08-:10)                                                                                06  150                                
SGTFAMCHA031001210018223034013016Forever Young                                                                                                         B2068807DCC                              
SGTFAMCHA031001210018223034013016Forever Young                                                                                                         B2068807DCC                              
PROFAMCHA031001223034223050000016Nonstop - 07(M-T/SEP) - BMW/BRENDAN/ALF (:14-:16)                                                                       06  150                                
ID FAMCHA031001223050223107000017Nonstop Block Open (:14-:17)                                                                                            06  150                                
PROFAMCHA031001223107223116000009CC Disclaimer - SLOW - Family (:08-:10)                                                                                 06  150                                
SGTFAMCHA031001223116225311002155Boy Meets World                                   Kid Gloves                                                          B6068807BCC                              
PROFAMCHA031001225311225327000016Nonstop - 08(M/T-SEP) - BRENDAN/ALF/AMAZ (:14-:16)                                                                      06  150                                
PROFAMCHA031001225327225357000030Halloween (PP) - 1 - Tower of Terror - Friday @ 7:                                                                     106  150                                
PROFAMCHA031001225327225357000030Halloween (PP) - 1 - Tower of Terror - Friday @ 7:                                                                     106  150                                
PROFAMCHA031001225357225428000031Brendan Leonard (#1 - FALL 2003) - Coming Up                                                                           102  150                                
PROFAMCHA031001225357225428000031Brendan Leonard (#1 - FALL 2003) - Coming Up                                                                           102  150                                
PROFAMCHA031001225428225438000010FAMJAM - Open                                                                                                          606 5150                                
INTFAMCHA031001225438225809000331MV Disney - So Yesterday (HILARY DUFF)                                                                                 60688130                                
PROFAMCHA031001225809225823000014FAMJAM - Close (FAMILY)                                                                                                606 5150                                
PROFAMCHA031001225823225858000035Nonstop - AMANDA SHOW - Horoscope                                                                                       06  150                                
PROFAMCHA031001225858225920000022xxBoy Meets World (ANSWER - FALL 2003) - Tomorrow                                                                      102  150                                
PROFAMCHA031001225858225920000022xxBoy Meets World (ANSWER - FALL 2003) - Tomorrow                                                                      102  150                                
PRCFAMCHA031001225920225944000024In A Heartbeat (FALL2003) - Tomorrow @ 8:30pm                                                                          106  150                                
PRCFAMCHA031001225920225944000024In A Heartbeat (FALL2003) - Tomorrow @ 8:30pm                                                                          106  150                                
ID FAMCHA031001225944230000000016Nonstop Block Open (:14-:17)                                                                                            06  150                                
PROFAMCHA031001230000230009000009CC Disclaimer - SLOW - Family.ca (:08-:10)                                                                              06  150                                
SGTFAMCHA031001230009232054002045Brendan Leonard Show; The                         EPS # 1-016                                                         B6068807FCC                              
PROFAMCHA031001232054232110000016Nonstop - 08b(M-T/SEP) - ALF/AMAZING/JETT (:14-:16                                                                      06  150                                
PROFAMCHA031001232110232140000030Halloween (PP) - 1 - Tower of Terror - Friday @ 7:                                                                     106  150                                
PROFAMCHA031001232110232140000030Halloween (PP) - 1 - Tower of Terror - Friday @ 7:                                                                     106  150                                
INTFAMCHA031001232140232356000216Gagsters - Bushwacked                                                                                                 A20682120                                
INTFAMCHA031001232140232356000216Gagsters - Bushwacked                                                                                                 A20682120                                
PROFAMCHA031001232356232421000025xxEven Stevens (GOLF - FALL 2003) - Fridays @ 6:30                                                                     106  150                                
PROFAMCHA031001232356232421000025xxEven Stevens (GOLF - FALL 2003) - Fridays @ 6:30                                                                     106  150                                
PGRFAMCHA031001232421232921000500Movie Surfers Finding Nemo #2 *DNU*                                                                                    60688150                                
PRCFAMCHA031001232921232945000024In A Heartbeat (FALL2003) - Tomorrow @ 8:30pm                                                                          106  150                                
PRCFAMCHA031001232921232945000024In A Heartbeat (FALL2003) - Tomorrow @ 8:30pm                                                                          106  150                                
ID FAMCHA031001232945233000000015Nonstop Block Open (:14-:17)                                                                                            06  150                                
PROFAMCHA031001233000233009000009CC Disclaimer - SLOW - Family (:08-:10)                                                                                 06  150                                
SGTFAMCHA031001233009235137002128ALF                                               True Colours                                                        A2068807BCC                              
SGTFAMCHA031001233009235137002128ALF                                               True Colours                                                        A2068807BCC                              
PROFAMCHA031001235137235151000014Nonstop - 09 - AMAZING/JETT (:14-:16) (DEC)                                                                             06  150                                
PROFAMCHA031001235151235221000030Halloween (PP) - 1 - Tower of Terror - Friday @ 7:                                                                     106  150                                
PROFAMCHA031001235151235221000030Halloween (PP) - 1 - Tower of Terror - Friday @ 7:                                                                     106  150                                
PGRFAMCHA031001235221235721000500Movie Surfers Pirates of the Caribbean #2 *DNU*                                                                        60688150                                
PRCFAMCHA031001235721235745000024In A Heartbeat (FALL2003) - Tomorrow @ 8:30pm                                                                          106  150                                
PRCFAMCHA031001235721235745000024In A Heartbeat (FALL2003) - Tomorrow @ 8:30pm                                                                          106  150                                
INTFAMCHA031001235745235915000130Klootz - Ferme 01                                                                                                     A10658120                                
INTFAMCHA031001235745235915000130Klootz - Ferme 01                                                                                                     A10658120                                
PROFAMCHA031001235915235946000031xxBrendan Leonard (#1 - FALL 2003) - Tomorrow @ 6:                                                                     106  150                                
PROFAMCHA031001235915235946000031xxBrendan Leonard (#1 - FALL 2003) - Tomorrow @ 6:                                                                     106  150                                
ID FAMCHA031001235946000000000014Nonstop Block Open (:14-:17)                                                                                            06  150                                
SGTFAMCHA031001000000002343002343Amazing Stories                                   The Wedding Ring                                                    A2068807A                                
SGTFAMCHA031001000000002343002343Amazing Stories                                   The Wedding Ring                                                    A2068807A                                
PROFAMCHA031001002343002359000016Nonstop - 10 - JETT (:14-:16)                                                                                           06  150                                
PROFAMCHA031001002359002429000030Halloween (PP) - 1 - Tower of Terror - Friday @ 7:                                                                     106  150                                
PROFAMCHA031001002359002429000030Halloween (PP) - 1 - Tower of Terror - Friday @ 7:                                                                     106  150                                
PROFAMCHA031001002429002439000010FAMJAM - Open                                                                                                          606 5150                                
INTFAMCHA031001002439002905000426MV Disney - Love Will Find A Way (KENNY LATIMORE/H                                                                     60288130                                
PROFAMCHA031001002905002919000014FAMJAM - Close (FAMILY)                                                                                                606 5150                                
PRCFAMCHA031001002919002943000024In A Heartbeat (FALL2003) - Tomorrow @ 8:30pm                                                                          106  150                                
PRCFAMCHA031001002919002943000024In A Heartbeat (FALL2003) - Tomorrow @ 8:30pm                                                                          106  150                                
ID FAMCHA031001002943003000000017Nonstop Block Open (:14-:17)                                                                                            06  150                                
PROFAMCHA031001003000003009000009CC Disclaimer - SLOW - Family.ca (:08-:10)                                                                              06  150                                
SGTFAMCHA031001003009005439002430Famous Jett Jackson; The                          Heroes                                                        B57165 1065607ACC                              
SGTFAMCHA031001003009005439002430Famous Jett Jackson; The                          Heroes                                                        B57165 1065607ACC                              
PROFAMCHA031001005439005509000030Halloween (PP) - 1 - Tower of Terror - Friday @ 7:                                                                     106  150                                
PROFAMCHA031001005439005509000030Halloween (PP) - 1 - Tower of Terror - Friday @ 7:                                                                     106  150                                
PRCFAMCHA031001005509005533000024In A Heartbeat (FALL2003) - Tomorrow @ 8:30pm                                                                          106  150                                
PRCFAMCHA031001005509005533000024In A Heartbeat (FALL2003) - Tomorrow @ 8:30pm                                                                          106  150                                
PROFAMCHA031001005533005543000010FAMJAM - Open                                                                                                          606 5150                                
PGRFAMCHA031001005543005934000351MV Disney - Miracles Happen (MYRA)                                                                                     60288120                                
PROFAMCHA031001005934005948000014FAMJAM - Close (WEB)                                                                                                   606 5150                                
PROFAMCHA031001005948010018000030Halloween (PP) - 1 - Tower of Terror - Friday @ 7:                                                                     106  150                                
PROFAMCHA031001005948010018000030Halloween (PP) - 1 - Tower of Terror - Friday @ 7:                                                                     106  150                                
PROFAMCHA031001010018010031000013Nonstop - ALL THAT - Sugar & Coffee                                                                                     06  150                                
INTFAMCHA031001010031010201000130Klootz - Variety 06 (use PT)                                                                                          A10658120                                
INTFAMCHA031001010031010201000130Klootz - Variety 06 (use PT)                                                                                          A10658120                                
SO FAMCHA031001010201010201001200Sign Off                                                                                                                06                                     
SO FAMCHA031001010201011401001200Sign Off                                                                                                                06                                     
OFFFAMCHA031001011401043000031559OFF AIR                                                                                                                 00                                     
SO FAMCHA031002043000043011000011Sign On (oct 1)                                                                                                         06                                     
PROFAMCHA031002043011043020000009CC Disclaimer - FAST - Family (:08-:10)                                                                                 06  150                                
SGTFAMCHA031002043020045313002253Franklin                                          Franklin & The Gloomy Day/Franklin Tells Time                 B13651A1065607ECC                              
SGTFAMCHA031002043020045313002253Franklin                                          Franklin & The Gloomy Day/Franklin Tells Time                 B13651A1065607ECC                              
PROFAMCHA031002045313045327000014PS - 01(PH) - WTP/KATIE/FRANKLIN (:14-:16)                                                                              06  150                                
ID FAMCHA031002045327045337000010PS Playhouse AM Block Open (:10-:15)                                                                                    06  150                                
PROFAMCHA031002045337045346000009CC Disclaimer - FAST - Family.ca (:08-:10)                                                                              06  150                                
SGTFAMCHA031002045346051649002303New Adventures of Winnie the Pooh; The            All's Well That Ends Wishing Well                                    6068607ECC                              
PROFAMCHA031002051649051703000014PS - 02(PH) - KATIE/FRANKLIN/RIPLEY (:14-:16)                                                                           06  150                                
ID FAMCHA031002051703051713000010PS Playhouse AM Block Open (:10-:15)                                                                                    06  150                                
PROFAMCHA031002051713051723000010CC Disclaimer - FAST - Generic (:08-:10)                                                                                06  150                                
SGTFAMCHA031002051723054358002635Katie And Orbie                                   The New Baby/Leaky Taps/Orbits                                C12449A1065607ECC                              
SGTFAMCHA031002051723054358002635Katie And Orbie                                   The New Baby/Leaky Taps/Orbits                                C12449A1065607ECC                              
PROFAMCHA031002054358054412000014PS - 03(PH) - FRANKLIN/RIPLEY/HOZE (:14-:16)                                                                            06  150                                
ID FAMCHA031002054412054422000010PS Playhouse AM Block Open (:10-:15)                                                                                    06  150                                
PROFAMCHA031002054422054431000009CC Disclaimer - FAST - Family (:08-:10)                                                                                 06  150                                
SGTFAMCHA031002054431060724002253Franklin                                          Franklin's Test/Franklin & the Duckling                       B13652A1065607ECC                              
SGTFAMCHA031002054431060724002253Franklin                                          Franklin's Test/Franklin & the Duckling                       B13652A1065607ECC                              
PROFAMCHA031002060724060738000014PS - 04(PH) - RIPLEY/HOZE/KNIGHT (:14-:16)                                                                              06  150                                
PROFAMCHA031002060738060752000014Playhouse - HOZE HOUNDZ - Skater                                                                                        06  150                                
ID FAMCHA031002060752060802000010PS Playhouse AM Block Open (:10-:15)                                                                                    06  150                                
PROFAMCHA031002060802060811000009CC Disclaimer - FAST - Family.ca (:08-:10)                                                                              06  150                                
SGTFAMCHA031002060811063241002430Ripley's Believe It Or Not!                       The Golden Helmet of Ur                                       B21804 1065607ECC                              
SGTFAMCHA031002060811063241002430Ripley's Believe It Or Not!                       The Golden Helmet of Ur                                       B21804 1065607ECC                              
PROFAMCHA031002063241063257000016PS - 05(PH) - HOZE/KNIGHT/PRLR (:14-:16)                                                                                06  150                                
PROFAMCHA031002063257063342000045Hoze Houndz (PAMPER - FALL 2003) - Coming Up (PH)                                                                      106  150                                
