SO FAMCHA010401043000043011000011Sign On (oct 1)                                                                                                         06                                     
PROFAMCHA010401043011043019000008CC Is Brought To You By - Ian **DNU AFTER 09/22**                                                                       06  150                                
PGRFAMCHA010401043019045419002400Hello Mrs. Cherrywinkle                           Why, Oh Why, Oh Why                                           C14683A1065607ACC                              
PROFAMCHA010401045419045427000008CC Was Brought To You By - Ian                                                                                          06  150                                
ID FAMCHA010401045427045432000005Generic ID - Couch 1*                                                                                                   06  150                                
ID FAMCHA010401045432045439000007URL(1) - FUNSTUFF                                                                                                       06  150                                
ID FAMCHA010401045439045500000021Prime time open count down                                                                                              06  150                                
PROFAMCHA010401045500045508000008CC Is Brought To You By - Lark **DNU AFTER 09/22**                                                                      06  150                                
PGRFAMCHA010401045508051918002410Busy World Of Richard Scarry; The                 Has Anyone Seen My Book?                                      P24310A1165607ECC                              
PROFAMCHA010401051918051926000008CC Was Brought To You By - Lark                                                                                         06  150                                
ID FAMCHA010401051926051931000005Generic ID - Bubbles*                                                                                                   06  150                                
ID FAMCHA010401051931051939000008URL(1) - NEWSLETTER                                                                                                     06  150                                
ID FAMCHA010401051939052000000021Prime time open count down                                                                                              06  150                                
PROFAMCHA010401052000052008000008CC Is Brought To You By - Ian **DNU AFTER 09/22**                                                                       06  150                                
PGRFAMCHA010401052008054430002422Billy The Cat                                     Cool Cat                                                      B27650A1065607ECC                              
PROFAMCHA010401054430054438000008CC Was Brought To You By - Ian                                                                                          06  150                                
ID FAMCHA010401054438054443000005Generic ID - Couch 2*                                                                                                   06  150                                
ID FAMCHA010401054443054504000021Prime time open count down                                                                                              06  150                                
PROFAMCHA010401054504054512000008CC Is Brought To You By - Lark **DNU AFTER 09/22**                                                                      06  150                                
PGRFAMCHA010401054512061132002620Little Lulu Show; The                             Business Girl/The Pet Duck/Lulu's Umbrella Service            P22334A1065607ECC                              
PROFAMCHA010401061132061140000008CC Was Brought To You By - Lark                                                                                         06  150                                
ID FAMCHA010401061140061145000005Generic ID - Marbles                                                                                                    06  150                                
PROFAMCHA010401061145061153000008CC Is Brought To You By - Ian **DNU AFTER 09/22**                                                                       06  150                                
PGRFAMCHA010401061153063553002400Big Garage; The                                   The Heat Wave                                                 P21470 1065607ECC                              
PROFAMCHA010401063553063601000008CC Was Brought To You By - Ian                                                                                          06  150                                
ID FAMCHA010401063601063606000005Generic ID - Couch 1*                                                                                                   06  150                                
PROFAMCHA010401063606063614000008CC Is Brought To You By - Lark **DNU AFTER 09/22**                                                                      06  150                                
PGRFAMCHA010401063614065915002301Madeline                                          Madeline on the Orient Express                                       6068607ECC                              
PROFAMCHA010401065915065923000008CC Was Brought To You By - Lark                                                                                         06  150                                
ID FAMCHA010401065923065928000005Generic ID - Couch 2*                                                                                                   06  150                                
PRCFAMCHA010401065928065939000011Morning Block menu background (flex time)                                                                               06  150                                
ID FAMCHA010401065939070000000021Prime time open count down                                                                                              06  150                                
PROFAMCHA010401070000070008000008CC Is Brought To You By - Ian **DNU AFTER 09/22**                                                                       06  150                                
PGRFAMCHA010401070008072248002240Adventures of the Gummi Bears; The                Just A Tad Smarter/Too Many Crooks                                   6068607ECC                              
PROFAMCHA010401072248072256000008CC Was Brought To You By - Ian                                                                                          06  150                                
ID FAMCHA010401072256072306000010Generic ID - Family w/dog                                                                                               06  150                                
PROFAMCHA010401072306072336000030Mr. Headmistress - Today @ 12pm                                                                                         02  150                                
PROFAMCHA010401072336072413000037Batter Up - Saturday @ 9pm - BNB GO TO JAPAN                                                                            02  150                                
INTFAMCHA010401072413072815000402MV Disney - A Whole New World (PEBO BRYSON/REGINA                                                                      60688120                                
PROFAMCHA010401072815072829000014ALF (Dreams) - Today @ 9:51am                                                                                           06  150                                
PROFAMCHA0104010728290728590000302 Hour Tour - SHeDAISY - Tonight @ 7:30pm                                                                               02  150                                
PROFAMCHA010401072859072939000040What About Bob? - Tonight @ 9pm                                                                                         02  150                                
ID FAMCHA010401072939073000000021Prime time open count down                                                                                              06  150                                
PROFAMCHA010401073000073008000008CC Is Brought To You By - Lark **DNU AFTER 09/22**                                                                      06  150                                
PGRFAMCHA010401073008075248002240Darkwing Duck                                     The Haunting Of Mr. Banana Brain (april Fools)                       6068607ECC                              
PROFAMCHA010401075248075256000008CC Was Brought To You By - Lark                                                                                         06  150                                
ID FAMCHA010401075256075301000005Generic ID - Fingerpaint                                                                                                06  150                                
PROFAMCHA010401075301075341000040What About Bob? - Tonight @ 9pm                                                                                         06  150                                
PROFAMCHA0104010753410754110000302 Hour Tour - SHeDAISY - Tonight @ 7:30pm                                                                               06  150                                
PROFAMCHA010401075411075427000016ALF (Description) - Today @ 9:51am                                                                                      06  150                                
INTFAMCHA010401075427075827000400MV Disney - We Are One (ANGELIQUE KIDJO)                                                                               60688120                                
PROFAMCHA010401075827075909000042Batter Up - Saturday @ 10:30pm - MR.DESTINY                                                                             02  150                                
PROFAMCHA010401075909075939000030Mr. Headmistress - Today @ 12pm                                                                                         06  150                                
ID FAMCHA010401075939080000000021Prime time open count down                                                                                              06  150                                
PROFAMCHA010401080000080008000008CC Is Brought To You By - Ian **DNU AFTER 09/22**                                                                       06  150                                
PGRFAMCHA010401080008082221002213Sherlock Holmes In The 22nd Century               1-010                                                                6068607ECC                              
PROFAMCHA010401082221082229000008CC Was Brought To You By - Ian                                                                                          06  150                                
ID FAMCHA010401082229082244000015Generic ID - confetti                                                                                                   06  150                                
PROFAMCHA010401082244082314000030Mr. Headmistress - Today @ 12pm                                                                                         06  150                                
PROFAMCHA0104010823140823440000302 Hour Tour - SHeDAISY - Tonight @ 7:30pm                                                                               06  150                                
PROFAMCHA010401082344082359000015ALF (Lucky) - Today @ 9:51am                                                                                            06  150                                
INTFAMCHA010401082359082833000434MV Disney - A Dream Is A Wish Your Heart Makes (LI                                                                     60688120                                
PROFAMCHA010401082833082910000037Batter Up - Saturday @ 9pm - BNB GO TO JAPAN                                                                            06  150                                
PROFAMCHA010401082910082950000040What About Bob? - Tonight @ 9pm                                                                                         06  150                                
ID FAMCHA010401082950083000000010xxMagic of Disney - V2(sky) - TEEN FEMALE                                                                               06  150                                
PROFAMCHA010401083000083008000008CC Is Brought To You By - Lark **DNU AFTER 09/22**                                                                      06  150                                
PGRFAMCHA010401083008085408002400Z Games                                           1-008                                                                60686110CC                              
PROFAMCHA010401085408085416000008CC Was Brought To You By - Lark                                                                                         06  150                                
ID FAMCHA010401085416085421000005Generic ID - Marbles                                                                                                    06  150                                
PROFAMCHA010401085421085501000040What About Bob? - Tonight @ 9pm                                                                                         06  150                                
PROFAMCHA010401085501085517000016ALF (Description) - Today @ 9:51am                                                                                      06  150                                
PROFAMCHA010401085517085559000042Batter Up - Saturday @ 10:30pm - MR.DESTINY                                                                             06  150                                
PROFAMCHA010401085559085629000030Mr. Headmistress - Today @ 12pm                                                                                         06  150                                
PRCFAMCHA010401085629085639000010Morning Block menu background (flex time)                                                                               06  150                                
ID FAMCHA010401085639085700000021Prime time open count down                                                                                              06  150                                
PROFAMCHA010401085700085708000008CC Is Brought To You By - Ian **DNU AFTER 09/22**                                                                       06  150                                
PGRFAMCHA010401085708092140002432Bug Juice                                         So Long, Farewell                                                    6068607ACC                              
PROFAMCHA010401092140092148000008CC Was Brought To You By - Ian                                                                                          06  150                                
ID FAMCHA010401092148092158000010Generic ID - Pink inner tube                                                                                            06  150                                
PROFAMCHA010401092158092228000030Mr. Headmistress - Today @ 12pm                                                                                         06  150                                
PROFAMCHA0104010922280922580000302 Hour Tour - SHeDAISY - Tonight @ 7:30pm                                                                               06  150                                
PROFAMCHA010401092258092335000037Batter Up - Saturday @ 9pm - BNB GO TO JAPAN                                                                            06  150                                
PROFAMCHA010401092335092349000014ALF (Dreams) - Today @ 9:51am                                                                                           06  150                                
PROFAMCHA010401092349092429000040What About Bob? - Tonight @ 9pm                                                                                         06  150                                
PRCFAMCHA010401092429092439000010Morning Block menu background (flex time)                                                                               06  150                                
ID FAMCHA010401092439092500000021Prime time open count down                                                                                              06  150                                
PROFAMCHA010401092500092508000008CC Is Brought To You By - Lark **DNU AFTER 09/22**                                                                      06  150                                
PGRFAMCHA010401092508094822002314Mentors                                           The Crush                                                     C16301 1055607ACC3                             
PROFAMCHA010401094822094830000008CC Was Brought To You By - Lark                                                                                         06  150                                
ID FAMCHA010401094830094835000005Generic ID - Couch 1*                                                                                                   06  150                                
PROFAMCHA010401094835094915000040What About Bob? - Tonight @ 9pm                                                                                         06  150                                
PROFAMCHA010401094915094931000016ALF (Description) - Coming Up                                                                                           06  150                                
PROFAMCHA0104010949310950010000302 Hour Tour - SHeDAISY - Tonight @ 7:30pm                                                                               06  150                                
PROFAMCHA010401095001095009000008MV Web Throw - family.ca                                                                                               606 5150                                
PROFAMCHA010401095009095039000030Mr. Headmistress - Today @ 12pm                                                                                         06  150                                
ID FAMCHA010401095039095100000021Prime time open count down                                                                                              06  150                                
PROFAMCHA010401095100095108000008CC Is Brought To You By - Ian **DNU AFTER 09/22**                                                                       06  150                                
PGRFAMCHA010401095108101240002132ALF                                               My Back Pages                                                       A2068807BCC                              
PROFAMCHA010401101240101248000008CC Was Brought To You By - Ian                                                                                          06  150                                
ID FAMCHA010401101248101258000010Generic ID - soccer **DO NOT USE**                                                                                      06  150                                
PROFAMCHA010401101258101328000030Mr. Headmistress - Today @ 12pm                                                                                         06  150                                
PROFAMCHA010401101328101358000030Jersey (MARCH2001) - Coming Up                                                                                          06  150                                
PROFAMCHA0104011013581014280000302 Hour Tour - SHeDAISY - Tonight @ 7:30pm                                                                               06  150                                
PRCFAMCHA010401101428101513000045No Boundaries Contest (APR01) - Today @ 12pm                                                                           102  150                                
PROFAMCHA010401101513101550000037Batter Up - Saturday @ 9pm - BNB GO TO JAPAN                                                                            06  150                                
ID FAMCHA010401101550101600000010xxMagic of Disney - V2(sky) - TEEN MALE                                                                                 06  150                                
PROFAMCHA010401101600101608000008CC Is Brought To You By - Lark **DNU AFTER 09/22**                                                                      06  150                                
PGRFAMCHA010401101608103838002230Jersey; The                                       Bowling For Jets                                                     6028607ACC                              
PROFAMCHA010401103838103846000008CC Was Brought To You By - Lark                                                                                         06  150                                
ID FAMCHA010401103846103851000005Generic ID - soccer **DO NOT USE**                                                                                      06  150                                
PRCFAMCHA010401103851103936000045No Boundaries Contest (APR01) - Today @ 12pm                                                                           106  150                                
PROFAMCHA010401103936104009000033Recess (King Gus) - Weekdays @ 5:00pm                                                                                   06  150                                
PROFAMCHA010401104009104039000030Mr. Headmistress - Today @ 12pm                                                                                         06  150                                
ID FAMCHA010401104039104100000021Prime time open count down                                                                                              06  150                                
PROFAMCHA010401104100104108000008CC Is Brought To You By - Ian **DNU AFTER 09/22**                                                                       06  150                                
PGRFAMCHA010401104108110541002433Famous Jett Jackson; The                          Bunk                                                          B57124 1065607ACC                              
PROFAMCHA010401110541110549000008CC Was Brought To You By - Ian                                                                                          06  150                                
ID FAMCHA010401110549110556000007Generic ID - Whisper*                                                                                                   06  150                                
PRCFAMCHA010401110556110641000045No Boundaries Contest (APR01) - Today @ 12pm                                                                           106  150                                
PROFAMCHA010401110641110659000018Book of Pooh (MARCH2001) - Weekdays @ 1:26pm                                                                            06  150                                
PROFAMCHA010401110659110739000040What About Bob? - Tonight @ 9pm                                                                                         06  150                                
ID FAMCHA010401110739110800000021Prime time open count down                                                                                              06  150                                
PROFAMCHA010401110800110808000008CC Is Brought To You By - Lark **DNU AFTER 09/22**                                                                      06  150                                
PGRFAMCHA010401110808115057004249Your Big Break                                    1-006                                                                60688090CC                              
PROFAMCHA010401115057115105000008CC Was Brought To You By - Lark                                                                                         06  150                                
ID FAMCHA010401115105115115000010Generic ID - Bubbles                                                                                                    06  150                                
PROFAMCHA010401115115115155000040What About Bob? - Tonight @ 9pm                                                                                         06  150                                
PROFAMCHA010401115155115225000030Mr. Headmistress - Coming Up                                                                                            02  150                                
PROFAMCHA010401115225115235000010MV FAMJAM - Teaser (Generic)                                                                                           606 5150                                
PRCFAMCHA010401115235115320000045No Boundaries Contest (APR01) - Today @ 12pm                                                                           106  150                                
INTFAMCHA010401115320115644000324xMV - Aaron's Party (Come Get It)                                                                                     A20688120                                
PROFAMCHA010401115644115654000010MV Web Throw - family.ca                                                                                               606 5150                                
PROFAMCHA010401115654115731000037Batter Up - Saturday @ 9pm - BNB GO TO JAPAN                                                                            06  150                                
PROFAMCHA010401115731115749000018Book of Pooh (MARCH2001) - Weekdays @ 1:26pm                                                                            06  150                                
PRCFAMCHA010401115749115859000110Meet The Spy Contest - In Theatres Now                                                                                 106  150                                
PROFAMCHA0104011158591159290000302 Hour Tour - SHeDAISY - Tonight @ 7:30pm                                                                               06  150                                
PRCFAMCHA010401115929115939000010Morning Block menu background (flex time)                                                                               06  150                                
ID FAMCHA010401115939120000000021Move open family size movie                                                                                             06  150                                
PROFAMCHA010401120000120008000008Rating - G - Ian                                                                                                        06  150                                
PROFAMCHA010401120008120016000008CC Is Brought To You By - Lark **DNU AFTER 09/22**                                                                      06  150                                
ID FAMCHA010401120016120026000010xxMagic of Disney - V2(sky) - TEEN FEMALE                                                                               06  150                                
PGRFAMCHA010401120026132912012846Mr. Headmistress                                                                                                      A6068807CCC                              
PROFAMCHA010401132912132920000008CC Was Brought To You By - Lark                                                                                         06  150                                
ID FAMCHA010401132920132925000005Generic ID - Bubbles*                                                                                                   06  150                                
PROFAMCHA010401132925132939000014ALF (Dreams) - Weekdays @ 12pm                                                                                          06  150                                
ID FAMCHA010401132939133000000021Move open family size movie                                                                                             06  150                                
PROFAMCHA010401133000133008000008Rating - G - Ian                                                                                                        06  150                                
PROFAMCHA010401133008133016000008CC Is Brought To You By - Lark **DNU AFTER 09/22**                                                                      06  150                                
ID FAMCHA010401133016133026000010xxMagic of Disney - V2(sky) - TEEN MALE                                                                                 06  150                                
PGRFAMCHA010401133026144805011739Goofy Movie; A                                                                                                        A6068807ECC                              
PROFAMCHA010401144805144813000008CC Was Brought To You By - Lark                                                                                         06  150                                
ID FAMCHA010401144813144823000010Generic ID - Family w/dog                                                                                               06  150                                
PROFAMCHA0104011448231448530000302 Hour Tour - SHeDAISY - Tonight @ 7:30pm                                                                               06  150                                
PROFAMCHA010401144853144935000042Batter Up - Saturday @ 10:30pm - MR.DESTINY                                                                             06  150                                
PRCFAMCHA010401144935145011000036Goof Troop (MARCH2001) - Today @ 4pm                                                                                    06  150                                
PGRFAMCHA010401145011145830000819Mpt-Drip Dippy Donald                                                                                                  60688150                                
PROFAMCHA010401145830145900000030House of Mouse - Today @ 4:30pm                                                                                         02  150                                
PROFAMCHA010401145900145940000040What About Bob? - Tonight @ 9pm                                                                                         06  150                                
PRCFAMCHA010401145940145950000010Morning Block menu background (flex time)                                                                               06  150                                
ID FAMCHA010401145950150000000010xxMagic of Disney - V3(water) - TEEN FEMALE                                                                             06  150                                
PROFAMCHA010401150000150008000008CC Is Brought To You By - Ian **DNU AFTER 09/22**                                                                       06  150                                
PGRFAMCHA010401150008152247002239Disney's Aladdin                                  Black Sand                                                           6068607ECC                              
PROFAMCHA010401152247152255000008CC Was Brought To You By - Ian                                                                                          06  150                                
ID FAMCHA010401152255152300000005Generic ID - Couch 1*                                                                                                   06  150                                
PROFAMCHA010401152300152340000040What About Bob? - Tonight @ 9pm                                                                                         06  150                                
PROFAMCHA010401152340152417000037Batter Up - Saturday @ 9pm - BNB GO TO JAPAN                                                                            06  150                                
PROFAMCHA010401152417152447000030House of Mouse - Today @ 4:30pm                                                                                         06  150                                
INTFAMCHA010401152447152825000338Art Attack - Family At Beach                                                                                           60686120                                
PROFAMCHA010401152825152910000045PB&J Otter (MARCH2001) - Today @ 5pm                                                                                   206  150                                
PROFAMCHA0104011529101529400000302 Hour Tour - SHeDAISY - Tonight @ 7:30pm                                                                               06  150                                
PRCFAMCHA010401152940152950000010Morning Block menu background (flex time)                                                                               06  150                                
ID FAMCHA010401152950153000000010xxMagic of Disney - V3(water) - TEEN MALE                                                                               06  150                                
PROFAMCHA010401153000153008000008CC Is Brought To You By - Lark **DNU AFTER 09/22**                                                                      06  150                                
PGRFAMCHA010401153008155252002244Lion King's Timon & Pumbaa; The                   Beast of Eden/Sense and Senegambia                                   6068607ECC                              
PROFAMCHA010401155252155300000008CC Was Brought To You By - Lark                                                                                         06  150                                
ID FAMCHA010401155300155305000005Generic ID - Couch 2*                                                                                                   06  150                                
PROFAMCHA0104011553051553350000302 Hour Tour - SHeDAISY - Tonight @ 7:30pm                                                                               06  150                                
PRCFAMCHA010401155335155411000036Goof Troop (MARCH2001) - Coming Up                                                                                      06  150                                
PROFAMCHA010401155411155453000042Batter Up - Saturday @ 10:30pm - MR.DESTINY                                                                             06  150                                
PROFAMCHA010401155453155523000030New Adventures of WTP (MARCH2001) - Today @ 5:30pm                                                                      06  150                                
INTFAMCHA010401155523155830000307Art Attack - Shuttle                                                                                                   60686120                                
PROFAMCHA010401155830155900000030House of Mouse - Today @ 4:30pm                                                                                         06  150                                
PROFAMCHA010401155900155940000040What About Bob? - Tonight @ 9pm                                                                                         06  150                                
PRCFAMCHA010401155940155950000010Morning Block menu background (flex time)                                                                               06  150                                
ID FAMCHA010401155950160000000010xxMagic of Disney - V4 - TEEN FEMALE                                                                                    06  150                                
PROFAMCHA010401160000160008000008CC Is Brought To You By - Ian **DNU AFTER 09/22**                                                                       06  150                                
PGRFAMCHA010401160008162248002240Goof Troop                                        Puppy Love                                                           6068607ECC                              
PROFAMCHA010401162248162256000008CC Was Brought To You By - Ian                                                                                          06  150                                
ID FAMCHA010401162256162306000010Generic ID - Family w/dog                                                                                               06  150                                
PROFAMCHA010401162306162351000045PB&J Otter (MARCH2001) - This Afternoon @ 5pm                                                                          206  150                                
PROFAMCHA010401162351162421000030House of Mouse - Coming Up                                                                                              02  150                                
INTFAMCHA010401162421162911000450MV Disney - Circle of Life (ELTON JOHN)                                                                                60688120                                
PROFAMCHA010401162911162941000030New Adventures of WTP (MARCH2001) - Today @ 5:30pm                                                                      06  150                                
PRCFAMCHA010401162941162950000009Morning Block menu background (flex time)                                                                               06  150                                
ID FAMCHA010401162950163000000010xxMagic of Disney - V4 - TEEN MALE                                                                                      06  150                                
PROFAMCHA010401163000163008000008CC Is Brought To You By - Lark **DNU AFTER 09/22**                                                                      06  150                                
PGRFAMCHA010401163008165251002243Disney's House Of Mouse                           Unplugged Club                                                       6028607ECC                              
PROFAMCHA010401165251165258000007CC Was Brought To You By - Lark                                                                                         06  150                                
ID FAMCHA010401165258165303000005Generic ID - Fingerpaint                                                                                                06  150                                
PROFAMCHA010401165303165333000030New Adventures of WTP (MARCH2001) - Today @ 5:30pm                                                                      06  150                                
PROFAMCHA010401165333165418000045PB&J Otter (MARCH2001) - Coming Up                                                                                     206  150                                
PRCFAMCHA010401165418165441000023Franklin (NEW EPS) - Tonight @ 6:00pm**DO NOT USE*                                                                     106  150                                
ID FAMCHA010401165441165451000010Silly Stories Teaser - Female                                                                                           06  150                                
PROFAMCHA010401165451165507000016ALF (Description) - Weekdays @ 12pm                                                                                     06  150                                
ID FAMCHA010401165507165539000032Silly Stories - Funky Tent Smell                                                                                        06  150                                
INTFAMCHA010401165539165921000342Art Attack - Fencing                                                                                                   60686120                                
PROFAMCHA010401165921165939000018Book of Pooh (MARCH2001) - Weekdays @ 1:26pm                                                                            06  150                                
ID FAMCHA010401165939170000000021Prime time open count down                                                                                              06  150                                
PROFAMCHA010401170000170008000008CC Is Brought To You By - Ian **DNU AFTER 09/22**                                                                       06  150                                
PGRFAMCHA010401170008172338002330PB&J Otter                                        Follow Your Nose                                                    A6068607ECC                              
PROFAMCHA010401172338172346000008CC Was Brought To You By - Ian                                                                                          06  150                                
ID FAMCHA010401172346172356000010Generic ID - Hula Hoop                                                                                                  06  150                                
PRCFAMCHA010401172356172419000023Franklin (NEW EPS) - Tonight @ 6:00pm**DO NOT USE*                                                                     106  150                                
PROFAMCHA010401172419172449000030New Adventures of WTP (MARCH2001) - Coming Up                                                                           06  150                                
INTFAMCHA010401172449172904000415MV Disney - You'll Be In My Heart (PHIL COLLINS)                                                                       60688120                                
PRCFAMCHA010401172904172939000035Little Lulu (MARCH2001) - Tonight @ 6:30pm                                                                             106  150                                
PRCFAMCHA010401172939172950000011Morning Block menu background (flex time)                                                                               06  150                                
ID FAMCHA010401172950173000000010xxMagic of Disney - V2(sky) - TEEN FEMALE                                                                               06  150                                
PROFAMCHA010401173000173008000008CC Is Brought To You By - Lark **DNU AFTER 09/22**                                                                      06  150                                
PGRFAMCHA010401173008175251002243New Adventures of Winnie the Pooh; The            To Bee Or Not To Bee/April Pooh                                      6068607ECC                              
PROFAMCHA010401175251175259000008CC Was Brought To You By - Lark                                                                                         06  150                                
ID FAMCHA010401175259175304000005Generic ID - Marbles                                                                                                    06  150                                
PRCFAMCHA010401175304175339000035Little Lulu (MARCH2001) - Tonight @ 6:30pm                                                                             106  150                                
PRCFAMCHA010401175339175402000023Franklin (NEW EPS) - Coming Up**DO NOT USE**                                                                           106  150                                
PROFAMCHA010401175402175420000018D12 - Recess/Buzz - Weekdays, starting @ 4:00pm                                                                         06  150                                
ID FAMCHA010401175420175430000010Silly Stories Teaser - Male                                                                                             06  150                                
PROFAMCHA010401175430175448000018Book of Pooh (MARCH2001) - Weekdays @ 1:26pm                                                                            06  150                                
ID FAMCHA010401175448175544000056Silly Stories - MEOW MEOW                                                                                               06  150                                
INTFAMCHA010401175544175909000325Music Break-W.Disney Records:Man Who Ran Away With                                                                     60688120                                
PRCFAMCHA010401175909175939000030Hoze Houndz - Tonight @ 7pm                                                                                             02  150                                
ID FAMCHA010401175939180000000021Prime time open count down                                                                                              06  150                                
PROFAMCHA010401180000180008000008CC Is Brought To You By - Ian **DNU AFTER 09/22**                                                                       06  150                                
PGRFAMCHA010401180008182301002253Franklin                                          Franklin's Cookie Question/Franklin's Picnic                  A53214A1065607ECC                              
PROFAMCHA010401182301182309000008CC Was Brought To You By - Ian                                                                                          06  150                                
ID FAMCHA010401182309182319000010Generic ID - Pink inner tube                                                                                            06  150                                
PROFAMCHA010401182319182340000021D12 - Pepper Ann/Doug - Weekdays, starting @ 4pm                                                                        06  150                                
PRCFAMCHA010401182340182415000035Little Lulu (MARCH2001) - Coming Up                                                                                    106  150                                
PRCFAMCHA010401182415182445000030Hoze Houndz - Tonight @ 7pm                                                                                             06  150                                
INTFAMCHA010401182445182911000426Art Attack - Robin Hood                                                                                                60686120                                
PROFAMCHA010401182911182929000018Book of Pooh (MARCH2001) - Weekdays @ 1:26pm                                                                            06  150                                
PRCFAMCHA010401182929182939000010Morning Block menu background (flex time)                                                                               06  150                                
ID FAMCHA010401182939183000000021Prime time open count down                                                                                              06  150                                
PROFAMCHA010401183000183008000008CC Is Brought To You By - Lark **DNU AFTER 09/22**                                                                      06  150                                
PGRFAMCHA010401183008185339002331Little Lulu Show; The                             The Curse of the Thingamajig, House of Guest Blues            A20188A1055607ECC3                             
PROFAMCHA010401185339185347000008CC Was Brought To You By - Lark                                                                                         06  150                                
ID FAMCHA010401185347185357000010Generic ID - Ring around the rosie                                                                                      06  150                                
PROFAMCHA0104011853571854270000302 Hour Tour - SHeDAISY - Tonight @ 7:30pm                                                                               06  150                                
PRCFAMCHA010401185427185457000030Hoze Houndz - Coming Up                                                                                                 02  150                                
PRCFAMCHA010401185457185607000110Meet The Spy Contest - In Theatres Now                                                                                 106  150                                
PRCFAMCHA010401185607185637000030In A Heartbeat (MARCH2001) - Tonight @ 8:30pm                                                                          106  150                                
INTFAMCHA010401185637185744000107Disney Moments-Many Adventures Of Ichabod-Headless                                                                     60688120                                
PROFAMCHA010401185744185812000028Honey (MARCH2001) - Weeknights @ 8pm                                                                                    06  150                                
PROFAMCHA010401185812185849000037Batter Up - Saturday @ 9pm - BNB GO TO JAPAN                                                                            06  150                                
PROFAMCHA010401185849185929000040What About Bob? - Tonight @ 9pm                                                                                         06  150                                
PRCFAMCHA010401185929185939000010Morning Block menu background (flex time)                                                                               06  150                                
ID FAMCHA010401185939190000000021Prime time open count down                                                                                              06  150                                
PROFAMCHA010401190000190008000008CC Is Brought To You By - Ian **DNU AFTER 09/22**                                                                       06  150                                
PGRFAMCHA010401190008192242002234Hoze Houndz                                       Twilight Houndz/Jinxed                                        B17129A1065607ECC                              
PROFAMCHA010401192242192250000008CC Was Brought To You By - Ian                                                                                          06  150                                
ID FAMCHA010401192250192300000010Generic ID - soccer **DO NOT USE**                                                                                      06  150                                
PRCFAMCHA010401192300192410000110Meet The Spy Contest - In Theatres Now                                                                                 106  150                                
PROFAMCHA0104011924101924400000302 Hour Tour - SHeDAISY - Coming Up                                                                                      02  150                                
PROFAMCHA010401192440192458000018D12 - Recess/Buzz - Weekdays, starting @ 4:00pm                                                                         06  150                                
INTFAMCHA010401192458192805000307MV Disney - Part Of Your World (JODI BENSON)                                                                           60688120                                
ID FAMCHA010401192805192817000012Web Rant - My Last Year                                                                                                 06  150                                
PROFAMCHA010401192817192859000042Batter Up - Saturday @ 10:30pm - MR.DESTINY                                                                             06  150                                
PROFAMCHA010401192859192939000040What About Bob? - Tonight @ 9pm                                                                                         06  150                                
ID FAMCHA010401192939193000000021Prime time open count down                                                                                              06  150                                
PROFAMCHA010401193000193008000008CC Is Brought To You By - Lark **DNU AFTER 09/22**                                                                      06  150                                
MVCFAMCHA0104011930081954100024022 Hour Tour - SHeDAISY                                                                                                A6028708BCC                              
PROFAMCHA010401195410195418000008CC Was Brought To You By - Lark                                                                                         06  150                                
ID FAMCHA010401195418195423000005Generic ID - soccer **DO NOT USE**                                                                                      06  150                                
PROFAMCHA010401195423195503000040What About Bob? - Tonight @ 9pm                                                                                         06  150                                
PROFAMCHA010401195503195540000037So Weird (EARTH101) - Coming Up                                                                                         06  150                                
PRCFAMCHA010401195540195622000042Gargoyles (MARCH2001) - Weeknights @ 6:30pm                                                                             06  150                                
INTFAMCHA01040119562219572200010060 Seconds of Science - Flight (anywhere but D12)                                                                      60688120                                
PRCFAMCHA010401195722195752000030In A Heartbeat (MARCH2001) - Tonight @ 8:30pm                                                                          106  150                                
PRCFAMCHA010401195752195902000110Meet The Spy Contest - In Theatres Now                                                                                 106  150                                
PROFAMCHA010401195902195939000037Batter Up - Saturday @ 9pm - BNB GO TO JAPAN                                                                            06  150                                
PRCFAMCHA010401195939195950000011Morning Block menu background (flex time)                                                                               06  150                                
ID FAMCHA010401195950200000000010xxMagic of Disney - V3(water) - ADULT FEMALE                                                                            06  150                                
PGRFAMCHA010401200000202407002407So Weird                                          Still Life                                                           6028807ACC                              
ID FAMCHA010401202407202414000007Generic ID - Whisper*                                                                                                   06  150                                
PROFAMCHA010401202414202454000040What About Bob? - Tonight @ 9pm                                                                                         06  150                                
PRCFAMCHA010401202454202523000029In A Heartbeat (MARCH2001) - Coming Up                                                                                 106  150                                
PROFAMCHA010401202523202551000028Honey (MARCH2001) - Weeknights @ 8pm                                                                                    06  150                                
ID FAMCHA010401202551202603000012Web Rant - Never Believe                                                                                                06  150                                
PRCFAMCHA010401202603202643000040Famous Jett Jackson (NEW EPS) - Weeknights @ 7pm                                                                       106  150                                
INTFAMCHA010401202643202747000104Monkey Minutes - Lost World                                                                                           A20688120                                
PROFAMCHA010401202747202829000042Batter Up - Saturday @ 10:30pm - MR.DESTINY                                                                             06  150                                
PRCFAMCHA010401202829202939000110Meet The Spy Contest - In Theatres Now                                                                                 106  150                                
ID FAMCHA010401202939203000000021Prime time open count down                                                                                              06  150                                
PROFAMCHA010401203000203008000008CC Is Brought To You By - Lark **DNU AFTER 09/22**                                                                      06  150                                
PGRFAMCHA010401203008205241002233In A Heartbeat                                    The Boy's No Good                                             A57198A1025807ACC                              
PROFAMCHA010401205241205249000008CC Was Brought To You By - Lark                                                                                         06  150                                
ID FAMCHA010401205249205259000010Generic ID - Bubbles                                                                                                    06  150                                
PROFAMCHA010401205259205339000040What About Bob? - Coming Up                                                                                             02  150                                
PROFAMCHA010401205339205349000010MV FAMJAM - Teaser (Generic)                                                                                           606 5150                                
PROFAMCHA010401205349205426000037Batter Up - Saturday @ 9pm - BNB GO TO JAPAN                                                                            06  150                                
INTFAMCHA010401205426205823000357xMV - Bye, Bye, Bye (*NSYNC)                                                                                          A20688120                                
PROFAMCHA010401205823205829000006MV Web Throw - music@family.ca                                                                                         606 5150                                
PRCFAMCHA010401205829205939000110Meet The Spy Contest - In Theatres Now                                                                                 106  150                                
ID FAMCHA010401205939210000000021Move open family size movie                                                                                             06  150                                
PROFAMCHA010401210000210008000008Rating - PG - Ian                                                                                                       06  150                                
PROFAMCHA010401210008210016000008CC Is Brought To You By - Lark **DNU AFTER 09/22**                                                                      06  150                                
PGRFAMCHA010401210016223225013209What About Bob?                                                                                                       B6068807DCC                              
PROFAMCHA010401223225223233000008CC Was Brought To You By - Lark                                                                                         06  150                                
ID FAMCHA010401223233223238000005Generic ID - Bubbles*                                                                                                   06  150                                
ID FAMCHA010401223238223259000021Move open family size movie                                                                                             06  150                                
PROFAMCHA010401223259223307000008Rating - G - Ian                                                                                                        06  150                                
ID FAMCHA010401223307223317000010xxMagic of Disney - V3(water) - ADULT MALE                                                                              06  150                                
PGRFAMCHA010401223317000318013001Condorman                                                                                                             A6068807D                                
ID FAMCHA010401000318000323000005Generic ID - Marbles                                                                                                    06  150                                
PROFAMCHA010401000323000331000008CC Is Brought To You By - Ian **DNU AFTER 09/22**                                                                       06  150                                
PGRFAMCHA010401000331002634002303Disney Presents Bill Nye the Science Guy          Earth's Crust                                                        60686110CC                              
PROFAMCHA010401002634002642000008CC Was Brought To You By - Ian                                                                                          06  150                                
ID FAMCHA010401002642002652000010Generic ID - confetti                                                                                                   06  150                                
PROFAMCHA010401002652002734000042Batter Up - Saturday @ 10:30pm - MR.DESTINY                                                                             06  150                                
PRCFAMCHA010401002734002805000031Are You Afraid...Dark? (45MIN) - Weeknights @ 8:45                                                                      06  150                                
INTFAMCHA010401002805002857000052Monkey Minutes - Jaws (vers 1)                                                                                        A20688120                                
PRCFAMCHA010401002857002939000042Gargoyles (MARCH2001) - Weeknights @ 6:30pm                                                                             06  150                                
ID FAMCHA010401002939003000000021Prime time open count down                                                                                              06  150                                
PROFAMCHA010401003000003008000008CC Is Brought To You By - Lark **DNU AFTER 09/22**                                                                      06  150                                
PGRFAMCHA010401003008005428002420Are You Afraid Of The Dark?                       The Tale of Bigfoot Ridge                                     SR0307 1066807ACC                              
PROFAMCHA010401005428005436000008CC Was Brought To You By - Lark                                                                                         06  150                                
ID FAMCHA010401005436005441000005Generic ID - Couch 1*                                                                                                   06  150                                
PROFAMCHA010401005441005518000037Batter Up - Saturday @ 9pm - BNB GO TO JAPAN                                                                            06  150                                
PROFAMCHA010401005518005542000024ALF - Weekdays @ Noon                                                                                                   06  150                                
INTFAMCHA010401005542010016000434MV Disney - A Dream Is A Wish Your Heart Makes (LI                                                                     60688120                                
PROFAMCHA010401010016010037000021D12 - Doug/Recess - Weekdays, starting @ 4:00pm                                                                         06  150                                
INTFAMCHA010401010037010200000123Monkey Minutes - Scream (after 7:30PM)                                                                                A20688120                                
SO FAMCHA010401010200010212000012Sign Off (oct 1)                                                                                                        06                                     
OFFFAMCHA010401010212043000032748                                                                                                                                                               
SO FAMCHA010402043000043011000011Sign On (oct 1)                                                                                                         06                                     
PROFAMCHA010402043011043020000009CC Is Brought To You By - Ian **DNU AFTER 09/22**                                                                       06  150                                
PGRFAMCHA010402043020045420002400Hello Mrs. Cherrywinkle                           Muds And Suds                                                 C14683A1065607ACC                              
PROFAMCHA010402045420045430000010CC Was Brought To You By - Ian                                                                                          06  150                                
ID FAMCHA010402045430045440000010Generic ID - confetti                                                                                                   06  150                                
ID FAMCHA010402045440045500000020Morning block open play pen                                                                                             06  150                                
PROFAMCHA010402045500045508000008CC Is Brought To You By - Lark **DNU AFTER 09/22**                                                                      06  150                                
PGRFAMCHA010402045508051917002409Busy World Of Richard Scarry; The                 Perfect Gentlemen/Best Painter/Best Day For Dennis            P24311A1065607ECC                              
PROFAMCHA010402051917051925000008CC Was Brought To You By - Lark                                                                                         06  150                                
ID FAMCHA010402051925051930000005Generic ID - Couch 2*                                                                                                   06  150                                
PRCFAMCHA010402051930051940000010Morning Block menu background (flex time)                                                                               06  150                                
ID FAMCHA010402051940052000000020Morning block open play pen                                                                                             06  150                                
PROFAMCHA010402052000052007000007CC Is Brought To You By - Ian **DNU AFTER 09/22**                                                                       06  150                                
PGRFAMCHA010402052007054428002421Billy The Cat                                     One Of Our Tails Is Missing                                   B27651A1065607ECC                              
PROFAMCHA010402054428054435000007CC Was Brought To You By - Ian                                                                                          06  150                                
ID FAMCHA010402054435054440000005Generic ID - Couch 1*                                                                                                   06  150                                
ID FAMCHA010402054440054500000020Morning block open play pen                                                                                             06  150                                
PROFAMCHA010402054500054508000008CC Is Brought To You By - Ian **DNU AFTER 09/22**                                                                       06  150                                
PGRFAMCHA010402054508061128002620Little Lulu Show; The                             Friends & Enemies/The Beauty Contest/Rich Little P            P22335A1065607ECC                              
PROFAMCHA010402061128061136000008CC Was Brought To You By - Ian                                                                                          06  150                                
ID FAMCHA010402061136061141000005Generic ID - Fingerpaint                                                                                                06  150                                
PROFAMCHA010402061141061149000008CC Is Brought To You By - Lark **DNU AFTER 09/22**                                                                      06  150                                
PGRFAMCHA010402061149063549002400Big Garage; The                                   Rain, Rain, Go Away                                           P21471 1065607ECC                              
PROFAMCHA010402063549063557000008CC Was Brought To You By - Lark                                                                                         06  150                                
ID FAMCHA010402063557063602000005Generic ID - Marbles                                                                                                    06  150                                
PGRFAMCHA010402063602070004002402Clarissa                                          Dear Clarissa                                                        2068607B                                
ID FAMCHA010402070004070009000005Generic ID - Bubbles*                                                                                                   06  150                                
PROFAMCHA010402070009070017000008CC Is Brought To You By - Ian **DNU AFTER 09/22**                                                                       06  150                                
PGRFAMCHA010402070017072310002253Franklin                                          Good Deeds/Submarine                                          A38147A1065607ECC                              
PROFAMCHA010402072310072318000008CC Was Brought To You By - Ian                                                                                          06  150                                
ID FAMCHA010402072318072328000010Generic ID - Pink inner tube                                                                                            06  150                                
PRCFAMCHA010402072328072403000035Little Lulu (MARCH2001) - Today @ 8:30am                                                                               106  150                                
PROFAMCHA010402072403072433000030New Adventures of WTP (MARCH2001) - Coming Up                                                                           06  150                                
INTFAMCHA010402072433072848000415MV Disney - You'll Be In My Heart (PHIL COLLINS)                                                                       60688120                                
PRCFAMCHA010402072848072918000030Madeline (MARCH2001) - Today @ 10:18am                                                                                 106  150                                
PROFAMCHA010402072918072938000020Book of Pooh (MARCH2001) - Today @ 9:26am                                                                               06  150                                
PRCFAMCHA010402072938072950000012Morning Block menu background (flex time)                                                                               06  150                                
ID FAMCHA010402072950073000000010xxMagic of Disney - V3(water) - KID FEMALE                                                                              06  150                                
PROFAMCHA010402073000073008000008CC Is Brought To You By - Lark **DNU AFTER 09/22**                                                                      06  150                                
PGRFAMCHA010402073008075250002242New Adventures of Winnie the Pooh; The            Oh, Bottle/Owl In The Family                                         6068607ECC                              
PROFAMCHA010402075250075258000008CC Was Brought To You By - Lark                                                                                         06  150                                
ID FAMCHA010402075258075308000010Generic ID - Pink inner tube                                                                                            06  150                                
PROFAMCHA010402075308075324000016ALF (Description) - Today @ 12pm                                                                                        06  150                                
PRCFAMCHA010402075324075354000030Franklin (MARCH2001) - Today @ 12:30pm                                                                                 106  150                                
INTFAMCHA010402075354075734000340Art Attack - Tape Batman                                                                                               60686120                                
PRCFAMCHA010402075734075809000035Little Lulu (MARCH2001) - Today @ 8:30am                                                                               106  150                                
INTFAMCHA01040207580907590900010060 Seconds of Science - Bike Gears (anywhere but D                                                                     60688120                                
PROFAMCHA010402075909075930000021Buzz Lightyear (DISNEY'S ONE TOO) - Today @ 5:30pm                                                                      06  150                                
PRCFAMCHA010402075930075940000010Morning Block menu background (flex time)                                                                               06  150                                
ID FAMCHA010402075940080000000020Morning block open play pen                                                                                             06  150                                
PGRFAMCHA010402080000081950001950Art Attack                                        1-103                                                                60686110                                
ID FAMCHA010402081950082000000010Generic ID - confetti                                                                                                   06  150                                
PROFAMCHA010402082000082020000020Book of Pooh (MARCH2001) - Today @ 9:26am                                                                               06  150                                
PRCFAMCHA010402082020082055000035Little Lulu (MARCH2001) - Coming Up                                                                                    106  150                                
PGRFAMCHA010402082055082724000629Richard Scarry (ii) Mr. Frumble Gets A Job                                                                      P19584 10656150                                
PROFAMCHA010402082724082754000030New Adventures of WTP (MARCH2001) - Weekdays @ 7:3                                                                      06  150                                
INTFAMCHA010402082754082915000121Music Break - Sebastian Music Sweet                                                                                    60686120                                
PROFAMCHA010402082915082930000015ALF (Lucky) - Today @ Noon                                                                                              06  150                                
PRCFAMCHA010402082930082940000010Morning Block menu background (flex time)                                                                               06  150                                
ID FAMCHA010402082940083000000020Morning block open play pen                                                                                             06  150                                
PROFAMCHA010402083000083008000008CC Is Brought To You By - Ian **DNU AFTER 09/22**                                                                       06  150                                
PGRFAMCHA010402083008085359002351Little Lulu Show; The                             Hairy Day/Noses Off/Boy Cannon Ball                           B03813A1065607ECC                              
PROFAMCHA010402085359085407000008CC Was Brought To You By - Ian                                                                                          06  150                                
ID FAMCHA010402085407085417000010Generic ID - Hula Hoop                                                                                                  06  150                                
PROFAMCHA010402085417085502000045PB&J Otter (MARCH2001) - Coming Up                                                                                     206  150                                
PRCFAMCHA010402085502085525000023Franklin (MARCH2001) - Today @ 12:30pm                                                                                 106  150                                
INTFAMCHA010402085525085825000300Art Attack - Jack-In-The-Box                                                                                           60686120                                
PROFAMCHA010402085825085846000021D12 - Pepper Ann/Doug - Today, starting @ 4pm                                                                           06  150                                
PROFAMCHA010402085846085900000014ALF (Dreams) - Today @ 12pm                                                                                             06  150                                
PROFAMCHA010402085900090000000100Morning Crunch (MARCH2001) - PB&J/BOOK/BUSY                                                                             06  150                                
PROFAMCHA010402090000090008000008CC Is Brought To You By - Lark **DNU AFTER 09/22**                                                                      06  150                                
PGRFAMCHA010402090008092338002330PB&J Otter                                        Practice Makes Perfect/Three's A Crowd                              A6068607ECC                              
PROFAMCHA010402092338092347000009CC Was Brought To You By - Lark                                                                                         06  150                                
ID FAMCHA010402092347092354000007Generic ID - Whisper*                                                                                                   06  150                                
PROFAMCHA010402092354092414000020Book of Pooh (CRUNCH) - Coming Up                                                                                       06  150                                
PRCFAMCHA010402092414092437000023Franklin (MARCH2001) - Today @ 12:30pm                                                                                 106  150                                
PROFAMCHA010402092437092450000013Buzz Lightyear (DISNEY'S ONE TOO) - Today @ 5:30pm                                                                      06  150                                
PROFAMCHA010402092450092550000100Morning Crunch (MARCH2001) - BOOK/BUSY/MADELINE                                                                         06  150                                
ID FAMCHA010402092550092600000010xxMagic of Disney - V2(sky) - KID FEMALE                                                                                06  150                                
PGRFAMCHA010402092600095002002402Book Of Pooh; The                                 Circumference = Pirate 'Arrr' Squared/Pooh's To Do                   6068607G                                
ID FAMCHA010402095002095007000005Generic ID - Couch 1*                                                                                                   06  150                                
PROFAMCHA010402095007095107000100Morning Crunch (MARCH2001) - BUSY/MADELINE/OOTB                                                                         06  150                                
PROFAMCHA010402095107095115000008CC Is Brought To You By - Ian **DNU AFTER 09/22**                                                                       06  150                                
PGRFAMCHA010402095115101525002410Busy World Of Richard Scarry; The                 Trip Back/Home Sweet Home/P.S. Pig's Special Frien            P24312A1065607ECC                              
PROFAMCHA010402101525101533000008CC Was Brought To You By - Ian                                                                                          06  150                                
ID FAMCHA010402101533101540000007Generic ID - Whisper*                                                                                                   06  150                                
PRCFAMCHA010402101540101610000030Madeline (MARCH2001) - Coming Up                                                                                       106  150                                
PRCFAMCHA010402101610101645000035Little Lulu (MARCH2001) - Weekdays @ 8:30am                                                                            106  150                                
PROFAMCHA010402101645101700000015ALF (Lucky) - Today @ Noon                                                                                              06  150                                
PROFAMCHA010402101700101800000100Morning Crunch (MARCH2001) - MADELINE/OOTB/GOOF                                                                         06  150                                
PROFAMCHA010402101800101808000008CC Is Brought To You By - Lark **DNU AFTER 09/22**                                                                      06  150                                
PGRFAMCHA010402101808104103002255Madeline                                          Madeline and the Dinosaur Bone                                       6068607ECC                              
PROFAMCHA010402104103104111000008CC Was Brought To You By - Lark                                                                                         06  150                                
ID FAMCHA010402104111104121000010Generic ID - Pink inner tube                                                                                            06  150                                
PROFAMCHA010402104121104142000021D12 - Pepper Ann/Doug - Today, starting @ 4pm                                                                           06  150                                
INTFAMCHA010402104142104244000102Bill Nye - Bloodstream Baby                                                                                            60688120                                
PROFAMCHA010402104244104300000016ALF (Description) - Today @ 12pm                                                                                        06  150                                
PROFAMCHA010402104300104400000100Morning Crunch (MARCH2001) - OOTB/GOOF/ALADDIN                                                                          06  150                                
PROFAMCHA010402104400104408000008CC Is Brought To You By - Ian **DNU AFTER 09/22**                                                                       06  150                                
PGRFAMCHA010402104408110714002306Out of the Box                                    Feathered Friends                                                    60686110CC                              
PROFAMCHA010402110714110721000007CC Was Brought To You By - Ian                                                                                          06  150                                
ID FAMCHA010402110721110731000010Generic ID - Hula Hoop                                                                                                  06  150                                
PRCFAMCHA010402110731110807000036Goof Troop (MARCH2001) - Coming Up                                                                                      06  150                                
PROFAMCHA010402110807110820000013Buzz Lightyear (DISNEY'S ONE TOO) - Today @ 5:30pm                                                                      06  150                                
PROFAMCHA010402110820110850000030New Adventures of WTP (MARCH2001) - Weekdays @ 7:3                                                                      06  150                                
PROFAMCHA010402110850110950000100Morning Crunch (MARCH2001) - GOOF/ALADDIN/RECAP                                                                         06  150                                
ID FAMCHA010402110950111000000010xxMagic of Disney - V3(water) - KID FEMALE                                                                              06  150                                
PROFAMCHA010402111000111008000008CC Is Brought To You By - Lark **DNU AFTER 09/22**                                                                      06  150                                
PGRFAMCHA010402111008113252002244Goof Troop                                        Queasy Rider                                                         6068607ECC                              
PROFAMCHA010402113252113259000007CC Was Brought To You By - Lark                                                                                         06  150                                
ID FAMCHA010402113259113304000005Generic ID - Marbles                                                                                                    06  150                                
PROFAMCHA010402113304113325000021D12 - Pepper Ann/Doug - Today, starting @ 4pm                                                                           06  150                                
INTFAMCHA010402113325113436000111Mix Ups - Switch play                                                                                                  60688120                                
PROFAMCHA010402113436113450000014ALF (Dreams) - Today @ 12pm                                                                                             06  150                                
PROFAMCHA010402113450113550000100Morning Crunch (MARCH2001) - ALADDIN/RECAP                                                                              06  150                                
ID FAMCHA010402113550113600000010xxMagic of Disney - V4 - KID MALE                                                                                       06  150                                
PROFAMCHA010402113600113608000008CC Is Brought To You By - Ian **DNU AFTER 09/22**                                                                       06  150                                
PGRFAMCHA010402113608115847002239Disney's Aladdin                                  The Animal Kingdom                                                   6068607ECC                              
PROFAMCHA010402115847115855000008CC Was Brought To You By - Ian                                                                                          06  150                                
ID FAMCHA010402115855115900000005Generic ID - Bubbles*                                                                                                   06  150                                
PROFAMCHA010402115900120000000100Morning Crunch (MARCH2001) - RECAP                                                                                      06  150                                
ID FAMCHA010402120000120015000015Afternoon block pinball open **DO NOT USE**                                                                             06  150                                
PROFAMCHA010402120015120023000008CC Is Brought To You By - Lark **DNU AFTER 09/22**                                                                      06  150                                
PGRFAMCHA010402120023122152002129ALF                                               Have You Seen Your Mother, Baby, Standing In The S                  A2068807BCC                              
PROFAMCHA010402122152122200000008CC Was Brought To You By - Lark                                                                                         06  150                                
ID FAMCHA010402122200122210000010Generic ID - Pink inner tube                                                                                            06  150                                
PROFAMCHA010402122210122231000021D12 - Pepper Ann/Doug - Today, starting @ 4pm                                                                           06  150                                
PRCFAMCHA010402122231122254000023Franklin (MARCH2001) - Coming Up                                                                                       106  150                                
PRCFAMCHA010402122254122339000045No Boundaries Contest (APR08) - Sunday @ 12pm                                                                          102  150                                
INTFAMCHA010402122339122805000426Art Attack - Robin Hood                                                                                                60686120                                
PRCFAMCHA010402122805122840000035Little Lulu (MARCH2001) - Weekdays @ 8:30am                                                                            106  150                                
PROFAMCHA010402122840122858000018Book of Pooh (MARCH2001) - Today @ 1:26pm                                                                               06  150                                
PROFAMCHA010402122858122935000037Batter Up - Saturday @ 9pm - BNB GO TO JAPAN                                                                            06  150                                
PRCFAMCHA010402122935122945000010Morning Block menu background (flex time)                                                                               06  150                                
ID FAMCHA010402122945123000000015Afternoon block pinball open **DO NOT USE**                                                                             06  150                                
PROFAMCHA010402123000123008000008CC Is Brought To You By - Ian **DNU AFTER 09/22**                                                                       06  150                                
PGRFAMCHA010402123008125301002253Franklin                                          Franklin Stays Up/Franklin's Bargain                          A53202A1065607ECC                              
PROFAMCHA010402125301125309000008CC Was Brought To You By - Ian                                                                                          06  150                                
ID FAMCHA010402125309125319000010Generic ID - confetti                                                                                                   06  150                                
PROFAMCHA010402125319125404000045PB&J Otter (MARCH2001) - Coming Up                                                                                     206  150                                
PROFAMCHA010402125404125425000021Buzz Lightyear (DISNEY'S ONE TOO) - Today @ 5:30pm                                                                      06  150                                
INTFAMCHA010402125425125825000400MV Disney - We Are One (ANGELIQUE KIDJO)                                                                               60688120                                
PRCFAMCHA010402125825125900000035Little Lulu (MARCH2001) - Weekdays @ 8:30am                                                                            106  150                                
PROFAMCHA010402125900130000000100Afternoon Rebound (MARCH2001) - PB&J/BOOK/BUSY                                                                          06  150                                
PROFAMCHA010402130000130008000008CC Is Brought To You By - Lark **DNU AFTER 09/22**                                                                      06  150                                
PGRFAMCHA010402130008132338002330PB&J Otter                                        Lost and Found/Sherlock Otter                                       A6068607ECC                              
PROFAMCHA010402132338132346000008CC Was Brought To You By - Lark                                                                                         06  150                                
ID FAMCHA010402132346132356000010Generic ID - soccer **DO NOT USE**                                                                                      06  150                                
PROFAMCHA010402132356132414000018Book of Pooh (REBOUND) - Coming Up                                                                                      06  150                                
PROFAMCHA010402132414132435000021Buzz Lightyear (DISNEY'S ONE TOO) - Today @ 5:30pm                                                                      06  150                                
PROFAMCHA010402132435132450000015Doug (MARCH2001) - Today @ 4pm                                                                                          06  150                                
PROFAMCHA010402132450132550000100Afternoon Rebound (MARCH2001) - BOOK/BUSY/MADELINE                                                                      06  150                                
ID FAMCHA010402132550132600000010xxMagic of Disney - V3(water) - TEEN FEMALE                                                                             06  150                                
PGRFAMCHA010402132600135001002401Book Of Pooh; The                                 Pigletry/Dinosnores                                                  6068607G                                
ID FAMCHA010402135001135006000005Generic ID - Couch 2*                                                                                                   06  150                                
PROFAMCHA010402135006135106000100Afternoon Rebound (MARCH2001) - BUSY/MADELINE/OOTB                                                                      06  150                                
PROFAMCHA010402135106135114000008CC Is Brought To You By - Ian **DNU AFTER 09/22**                                                                       06  150                                
PGRFAMCHA010402135114141524002410Busy World Of Richard Scarry; The                 Mr. Fixit's Magnet/Sneef And Sniff/Mr. Gronkle                P24313 1065607ECC                              
PROFAMCHA010402141524141532000008CC Was Brought To You By - Ian                                                                                          06  150                                
ID FAMCHA010402141532141537000005Generic ID - Fingerpaint                                                                                                06  150                                
PRCFAMCHA010402141537141607000030Madeline (MARCH2001) - Coming Up                                                                                       106  150                                
PROFAMCHA010402141607141637000030New Adventures of WTP (MARCH2001) - Weekdays @ 7:3                                                                      06  150                                
PRCFAMCHA010402141637141700000023Franklin (MARCH2001) - Weekdays @ 12:30pm                                                                              106  150                                
PROFAMCHA010402141700141800000100Afternoon Rebound (MARCH2001) - MADELINE/OOTB/GOOF                                                                      06  150                                
PROFAMCHA010402141800141808000008CC Is Brought To You By - Lark **DNU AFTER 09/22**                                                                      06  150                                
PGRFAMCHA010402141808144104002256Madeline                                          Madeline and the Magic Carpet                                        6068607ECC                              
PROFAMCHA010402144104144112000008CC Was Brought To You By - Lark                                                                                         06  150                                
ID FAMCHA010402144112144122000010Generic ID - Bubbles                                                                                                    06  150                                
PROFAMCHA010402144122144152000030Pepper Ann (MARCH2001) - Today @ 4:30pm                                                                                 06  150                                
INTFAMCHA010402144152144300000108Disney Moments - Cinderella-Bibbidi Bobbidi Boo                                                                        60688120                                
PROFAMCHA010402144300144400000100Afternoon Rebound (MARCH2001) - OOTB/GOOF/ALADDIN                                                                       06  150                                
PROFAMCHA010402144400144408000008CC Is Brought To You By - Ian **DNU AFTER 09/22**                                                                       06  150                                
PGRFAMCHA010402144408150804002356Out of the Box                                    Eye Spy                                                              60686110CC                              
PROFAMCHA010402150804150812000008CC Was Brought To You By - Ian                                                                                          06  150                                
ID FAMCHA010402150812150819000007Generic ID - Whisper*                                                                                                   06  150                                
PROFAMCHA010402150819150832000013Buzz Lightyear (DISNEY'S ONE TOO) - Today @ 5:30pm                                                                      06  150                                
PROFAMCHA010402150832150850000018Book of Pooh (MARCH2001) - Weekdays @ 1:26pm                                                                            06  150                                
PROFAMCHA010402150850150950000100Afternoon Rebound (MARCH2001) - GOOF/ALADDIN/RECAP                                                                      06  150                                
ID FAMCHA010402150950151000000010xxMagic of Disney - V4 - TEEN MALE                                                                                      06  150                                
PROFAMCHA010402151000151008000008CC Is Brought To You By - Lark **DNU AFTER 09/22**                                                                      06  150                                
PGRFAMCHA010402151008153249002241Goof Troop                                        Maximum Insecurity                                                   6068607ECC                              
PROFAMCHA010402153249153257000008CC Was Brought To You By - Lark                                                                                         06  150                                
