SO FAMCHA040701043000043011000011Sign On (oct 1)                                                                                                                                                
PROFAMCHA040701043011043020000009CC Disclaimer - FAST - Family.ca (:08-:10)                                                                                  150                                
PGRFAMCHA040701043020045313002253Franklin                                          Franklin's Kite/Franklin & The Babysitter                     B13643A1065607ECC                              
PROFAMCHA040701045313045329000016PS - 01(PH) - WTP/KATIE/FRANKLIN (:14-:16)                                                                                  150                                
ID FAMCHA040701045329045342000013PS Playhouse AM Block Open (:10-:15)                                                                                        150                                
PROFAMCHA040701045342045351000009CC Disclaimer - FAST - Family.ca (:08-:10)                                                                                  150                                
PGRFAMCHA040701045351051632002241New Adventures of Winnie the Pooh; The            There's No Camp Like Home/Ballonatics                                6068607ECC                              
PROFAMCHA040701051632051648000016PS - 02(PH) - KATIE/FRANKLIN/SOMETHING (:14-:16)                                                                            150                                
ID FAMCHA040701051648051700000012PS Playhouse AM Block Open (:10-:15)                                                                                        150                                
PROFAMCHA040701051700051709000009CC Disclaimer - FAST - Family.ca (:08-:10)                                                                                  150                                
PGRFAMCHA040701051709054347002638Katie And Orbie                                   Chill/Christian/Seventh Wave                                  C19664A1065607ECC                              
PROFAMCHA040701054347054403000016PS - 03(PH) - FRANKLIN/SOMETHING/HOZE (:14-:16)                                                                             150                                
ID FAMCHA040701054403054416000013PS Playhouse AM Block Open (:10-:15)                                                                                        150                                
PROFAMCHA040701054416054425000009CC Disclaimer - FAST - Family.ca (:08-:10)                                                                                  150                                
PGRFAMCHA040701054425060718002253Franklin                                          Franklin & The Broken Globe/Franklin's Valentines             B13644A1065607ECC                              
PROFAMCHA040701060718060733000015PS - 04(PH) - SOMETHING/HOZE/KNIGHT (:14-:16)                                                                               150                                
PRCFAMCHA040701060733060750000017Hoze Houndz (SQUIRT) - (PH-AM) - Today @ 6:35am                                                                             150                                
ID FAMCHA040701060750060800000010PS Playhouse AM Block Open (:10-:15)                                                                                        150                                
PROFAMCHA040701060800060809000009CC Disclaimer - FAST - Family.ca (:08-:10)                                                                                  150                                
PGRFAMCHA040701060809063040002231Something Else                                    Something Old/The Schedule                                    A69255A1065607ECC                              
PROFAMCHA040701063040063056000016PS - 05(PH) - HOZE/KNIGHT/NINJA (:14-:16)                                                                                   150                                
PROFAMCHA040701063056063121000025Hoze Houndz (Can't Fly) (PH) - Coming Up Next                                                                               150                                
PROFAMCHA040701063121063221000100Playhouse (FUNTIMES) - (AM) - Today @ 8:30am                                                                          A     150                                
PROFAMCHA040701063221063303000042Jojo's Circus - (CRAB) - (PH/AM) - Today @ 9:45am                                                                           150                                
PRCFAMCHA040701063303063351000048Chip 'n Dale (MILK) - (PH/AM) - Today @ 11am                                                                                150                                
PROFAMCHA040701063351063449000058Art Attack (CARNIVAL) - (PH/AM) - Today @ 11:25am                                                                           150                                
ID FAMCHA040701063449063500000011PS Playhouse AM Block Open (:10-:15)                                                                                        150                                
PROFAMCHA040701063500063509000009CC Disclaimer - FAST - Family.ca (:08-:10)                                                                                  150                                
PGRFAMCHA040701063509065749002240Hoze Houndz                                       Byte-Sized/Attack Of The 50 Foot Barber                       B45780A1065607ECC                              
PROFAMCHA040701065749065805000016PS - 06(PB) - KNIGHT/NINJA/GADGET (:14-:16)                                                                                 150                                
PROFAMCHA040701065805065842000037Summer Chill Event - Starting Next Week                                                                                     150                                
PRCFAMCHA040701065842065915000033Radio Free Roscoe (MAY04) - (NS/M-T) - Tonight @ 7                                                                          150                                
PROFAMCHA040701065915065945000030Miracle In Lane 2 (PP) - Tomorrow @ 7:30pm                                                                                  150                                
ID FAMCHA040701065945070000000015Power Box Block Open (:12-:15)                                                                                              150                                
PROFAMCHA040701070000070009000009CC Disclaimer - FAST - Family.ca (:08-:10)                                                                                  150                                
PGRFAMCHA040701070009072133002124Mon Colle Knights                                 EPS # 1-030                                                         A6068607ECC                              
PROFAMCHA040701072133072149000016PS - 07(PB) - NINJA/GADGET/DALMATIANS (:14-:16)                                                                             150                                
PROFAMCHA040701072149072219000030Summer Chill Mega-Long Weekend - Next Week Mon-Fri                                                                          150                                
PROFAMCHA040701072219072249000030Power Rangers Ninja Storm (PB/WKDAY) - Coming Up N                                                                          150                                
PROFAMCHA040701072249072319000030Gadget & The Gadgetinis - (PB) - Today @ 8am                                                                                150                                
PRCFAMCHA040701072319072354000035Power Box Block Promo (APR04) - (PB) - Mon - Fri @                                                                          150                                
INTFAMCHA040701072354072506000112Gagsters - Hair Off                                                                                                   A20686120                                
PROFAMCHA040701072506072542000036Power Rangers Dino Thunder (LONG) - Weekends @ 7am                                                                          150                                
PROFAMCHA040701072542072612000030Recess (NOV2003) - Today @ 11:50am                                                                                          150                                
PROFAMCHA040701072612072622000010FAMJAM - Open                                                                                                               150                                
INTFAMCHA040701072622072752000130MV Disney - Enjoy Yourself (The Proud Family) - LO                                                                     60688120                                
PROFAMCHA040701072752072806000014FAMJAM - Close (LOGO)                                                                                                       150                                
PROFAMCHA040701072806072840000034Fillmore (APR04) - (MD/L) - Today @ 12:15pm                                                                                 150                                
PROFAMCHA040701072840072910000030Goof Troop (FEB 2004) - Today @ 12:35pm                                                                                     150                                
PROFAMCHA040701072910072940000030Miracle In Lane 2 (PP) - Tomorrow @ 7:30pm                                                                                  150                                
PRCFAMCHA040701072940072947000007Frankie Muniz ID - You're Watching Family                                                                                   150                                
ID FAMCHA040701072947073002000015Power Box Block Open (:12-:15)                                                                                              150                                
PGRFAMCHA040701073002075127002125Power Rangers Ninja Storm                         Beauty and the Beach                                                A6068607E                                
PROFAMCHA040701075127075143000016PS - 08(PB) - GADGET/DALMATIANS/FRANKLIN (:14-:16)                                                                          150                                
PROFAMCHA040701075143075220000037Summer Chill Event - Starting Next Week                                                                                     150                                
PROFAMCHA040701075220075250000030Gadget & The Gadgetinis - (PB) - Coming Up                                                                                  150                                
PROFAMCHA040701075250075320000030Recess (NOV2003) - Today @ 11:50am                                                                                          150                                
INTFAMCHA040701075320075359000039Harrisons; The - Woke Up Like This                                                                                    A10626120                                
PRCFAMCHA040701075359075408000009Family Bumpers - (Phase 1 Spring 04) - DJ Spinning                                                                          150                                
PRCFAMCHA040701075408075443000035Power Box Block Promo (APR04) - (PB) - Mon - Fri @                                                                          150                                
INTFAMCHA040701075443075613000130Klootz - Variety Show 03                                                                                              A10658120                                
PROFAMCHA040701075613075647000034Fillmore (APR04) - (MD/L) - Today @ 12:15pm                                                                                 150                                
PROFAMCHA040701075647075717000030Goof Troop (FEB 2004) - Today @ 12:35pm                                                                                     150                                
INTFAMCHA040701075717075830000113Gagsters - Half Off                                                                                                   A20686120                                
PROFAMCHA040701075830075906000036Power Rangers Dino Thunder (LONG) - Weekends @ 7am                                                                          150                                
PROFAMCHA040701075906075936000030Miracle In Lane 2 (PP) - Tomorrow @ 7:30pm                                                                                  150                                
PRCFAMCHA040701075936075945000009Radio Free Roscoe ID (MAR) - You're Watching Famil                                                                          150                                
ID FAMCHA040701075945080000000015Power Box Block Open (:12-:15)                                                                                              150                                
PGRFAMCHA040701080000082213002213Gadget & the Gadgetinis                           EPS # 1-015                                                         A6068607E                                
PROFAMCHA040701082213082229000016PS - 09(PH) - DALMATIANS/FRANKLIN/WTP (:14-:16)                                                                             150                                
PROFAMCHA040701082229082255000026Disney's 101 Dalmatians (PH) - Coming Up Next                                                                               150                                
PRCFAMCHA040701082255082348000053Franklin (SOCCER) - (PH) - Today @ 8:55am                                                                                   150                                
PROFAMCHA040701082348082430000042Jojo's Circus - (CRAB) - (PH/AM) - Today @ 9:45am                                                                           150                                
INTFAMCHA040701082430082701000231MV Disney - (PH/MD) - Aloha E Komo Mai (Lilo & Sti                                                                     60688120                                
PROFAMCHA040701082701082745000044Stanley - (SONG) - (PH) - Today @ 10:10am                                                                                   150                                
PRCFAMCHA040701082745082833000048Chip 'n Dale (MILK) - (PH/AM) - Today @ 11am                                                                                150                                
PRCFAMCHA040701082833082850000017Hoze Houndz (SQUIRT) - (PH-PM) - Today @ 2:10pm                                                                             150                                
PROFAMCHA040701082850082950000100Playhouse (FUNTIMES) - (AM) - Coming Up Next                                                                          A     150                                
ID FAMCHA040701082950083000000010PS Playhouse AM Block Open (:10-:15)                                                                                        150                                
PGRFAMCHA040701083000085246002246Disney's 101 Dalmatians: The Series               EPS # 1-056                                                         A6068607E                                
PROFAMCHA040701085246085300000014PS - 10(PH) - FRANKLIN/WTP/JOJO (:14-:16) (JAN12)                                                                           150                                
PRCFAMCHA040701085300085353000053Franklin (SOCCER) - (PH) - Coming Up Next                                                                                   150                                
PROFAMCHA040701085353085451000058Art Attack (CARNIVAL) - (PH/AM) - Today @ 11:25am                                                                           150                                
ID FAMCHA040701085451085501000010PS Playhouse AM Block Open (:10-:15)                                                                                        150                                
PROFAMCHA040701085501085510000009CC Disclaimer - FAST - Family.ca (:08-:10)                                                                                  150                                
PGRFAMCHA040701085510091803002253Franklin                                          Crystal/Advice                                                A53213A1065607ECC                              
PROFAMCHA040701091803091818000015PS - 11(PH) - WTP/JOJO/STANLEY (:14-:16) (JAN12)                                                                            150                                
PROFAMCHA040701091818091857000039Jojo's Circus - (DANCING) - (PH/AM) - Today @ 9:45                                                                          150                                
PRCFAMCHA040701091857091950000053Franklin (SOCCER) - (PH) - Tomorrow @ 5:45am                                                                                150                                
ID FAMCHA040701091950092000000010PS Playhouse AM Block Open (:10-:15)                                                                                        150                                
PROFAMCHA040701092000092009000009CC Disclaimer - FAST - Family.ca (:08-:10)                                                                                  150                                
PGRFAMCHA040701092009094242002233New Adventures of Winnie the Pooh; The            Find Her, Keep Her                                                   6068607ECC                              
PROFAMCHA040701094242094257000015PS - 12(PH) - JOJO/STANLEY/HENRY (:14-:16) (JAN12)                                                                          150                                
PROFAMCHA040701094257094320000023Jojo's Circus - (STEP) - (PH/AM) - Coming Up Next                                                                           150                                
PROFAMCHA040701094320094404000044Stanley - (SONG) - (PH) - Today @ 10:10am                                                                                   150                                
PRCFAMCHA040701094404094439000035Playhouse - KATIE & ORBIE - Did You Know?                                                                                   150                                
PRCFAMCHA040701094439094457000018Henry's World (HIS WORLD) (PH/AM) - Today @ 10:35a                                                                          150                                
PRCFAMCHA040701094457094545000048Chip 'n Dale (MILK) - (PH/AM) - Today @ 11am                                                                                150                                
ID FAMCHA040701094545094600000015PS Playhouse AM Block Open (:10-:15)                                                                                        150                                
PGRFAMCHA040701094600101008002408JoJo's Circus                                     EPS # 12                                                            A6068607E                                
PROFAMCHA040701101008101024000016PS - 13(PH) - STANLEY/HENRY/CHIP (:14-:16) (JAN12)                                                                          150                                
PROFAMCHA040701101024101108000044Stanley - (SONG) - (PH) - Coming Up Next                                                                                    150                                
PRCFAMCHA040701101108101126000018Henry's World (HIS WORLD) (PH/AM) - Today @ 10:35a                                                                          150                                
PROFAMCHA040701101126101149000023Jojo's Circus - (STEP) - (PH/AM) - Tomorrow @ 9:45                                                                          150                                
ID FAMCHA040701101149101200000011PS Playhouse AM Block Open (:10-:15)                                                                                        150                                
PGRFAMCHA040701101200103558002358Stanley                                           Savanna Speeders/Tyrannosaurus Wrecks                               A6068607E                                
PROFAMCHA040701103558103614000016PS - 14(PH) - HENRY/CHIP/ART (:14-:16) (JAN12)                                                                              150                                
PRCFAMCHA040701103614103632000018Henry's World (HIS WORLD) (PH/AM) - Coming Up Next                                                                          150                                
PRCFAMCHA040701103632103659000027Playhouse - FRANKLIN - Laundry                                                                                              150                                
PRCFAMCHA040701103659103747000048Chip 'n Dale (MILK) - (PH/AM) - Today @ 11am                                                                                150                                
ID FAMCHA040701103747103800000013PS Playhouse AM Block Open (:10-:15)                                                                                        150                                
PROFAMCHA040701103800103809000009CC Disclaimer - FAST - Family.ca (:08-:10)                                                                                  150                                
PGRFAMCHA040701103809110209002400Henry's World                                     Costume Capers/Fire's Out                                     B66554A1065607GCC                              
PROFAMCHA040701110209110225000016PS - 15(PH) - CHIP/ART/RECESS (:14-:16)                                                                                     150                                
PRCFAMCHA040701110225110313000048Chip 'n Dale (MILK) - (PH) - Coming Up Next                                                                                 150                                
PRCFAMCHA040701110313110348000035Playhouse - KATIE & ORBIE - Discoveries                                                                                     150                                
ID FAMCHA040701110348110400000012PS Playhouse AM Block Open (:10-:15)                                                                                        150                                
ID FAMCHA040701110400110408000008Magic of Disney - PLAYHOUSE - Shape (:06-:09)                                                                               150                                
PGRFAMCHA040701110408112656002248Chip 'n Dale Rescue Rangers                       Good Times, Bat Times                                               A6068607E                                
PROFAMCHA040701112656112712000016PS - 16(PH) - ART/RECESS/FILLMORE (:14-:16) (JAN)                                                                           150                                
PROFAMCHA040701112712112810000058Art Attack (CARNIVAL) - (PH/AM) - Coming Up Next                                                                            150                                
PROFAMCHA040701112810112849000039Jojo's Circus - (DANCING) - (PH/AM) - Tomorrow @ 9                                                                          150                                
ID FAMCHA040701112849112900000011PS Playhouse AM Block Open (:10-:15)                                                                                        150                                
PGRFAMCHA040701112900114405001505Art Attack                                                                                                            A60686110                                
PROFAMCHA040701114405114421000016PS - 17(MD) - RECESS/FILLMORE/GOOF (:14-:16) (JAN1                                                                          150                                
PROFAMCHA040701114421114451000030Summer Chill Mega-Long Weekend - Next Week Mon-Fri                                                                          150                                
PROFAMCHA040701114451114521000030Recess (NOV2003) - Coming Up                                                                                                150                                
INTFAMCHA040701114521114618000057Gagsters - Door Prize                                                                                                 A20686120                                
PROFAMCHA040701114618114652000034Fillmore (APR04) - (MD/L) - Today @ 12:15pm                                                                                 150                                
PROFAMCHA040701114652114702000010FAMJAM - Open                                                                                                               150                                
INTFAMCHA040701114702114802000100MV Disney - Enjoy Yourself (The Proud Family) - SH                                                                     60688120                                
PROFAMCHA040701114802114816000014FAMJAM - Close (LOGO)                                                                                                       150                                
PROFAMCHA040701114816114846000030Goof Troop (FEB 2004) - Today @ 12:35pm                                                                                     150                                
PRCFAMCHA040701114846114916000030MAD DASH LUNCH - Block Promo - You're Watching                                                                              150                                
PROFAMCHA040701114916114946000030Miracle In Lane 2 (PP) - Tomorrow @ 7:30pm                                                                                  150                                
ID FAMCHA040701114946115000000014PS Mad Dash Block Open (:13-:15)                                                                                            150                                
PGRFAMCHA040701115000121236002236Disney's Recess                                   The Break Up/The Hypnotist                                           6068607E                                
PROFAMCHA040701121236121252000016PS - 18(MD) - FILLMORE/GOOF/TEAMO (:14-:16) (JAN1)                                                                          150                                
ID FAMCHA040701121252121307000015PS Mad Dash Block Open (:13-:15)                                                                                            150                                
PGRFAMCHA040701121307123545002238Disney's Fillmore!                                EPS # 1-024                                                         A6068607E                                
PROFAMCHA040701123545123601000016PS - 19(MD) - GOOF/TEAMO/DALMATIANS (:14-:16) (JAN                                                                          150                                
PROFAMCHA040701123601123638000037Summer Chill Event - Starting Next Week                                                                                     150                                
PRCFAMCHA040701123638123645000007Frankie Muniz ID - You're Watching Family                                                                                   150                                
ID FAMCHA040701123645123700000015Mad Dash Block Open (:13-:15)                                                                                               150                                
PROFAMCHA040701123700123709000009CC Disclaimer - FAST - Family.ca (:08-:10)                                                                                  150                                
PGRFAMCHA040701123709125959002250Goof Troop                                        Come Fly With Me (goof Troop)                                        6068607ECC                              
PROFAMCHA040701125959130015000016PS - 20(MD) - TEAMO/DALMATIANS/CHIP (:14-:16) (JAN                                                                          150                                
PROFAMCHA040701130015130045000030Miracle In Lane 2 (PP) - Tomorrow @ 7:30pm                                                                                  150                                
ID FAMCHA040701130045130100000015Mad Dash Block Open (:13-:15)                                                                                               150                                
PGRFAMCHA040701130100132353002253Disney's Teamo Supremo                            Going It Alone/Out To Dry                                           A6068607E                                
PROFAMCHA040701132353132409000016PS - 21(PH) - DALMATIANS/CHIP/HOZE (:14-:16)                                                                                150                                
ID FAMCHA040701132409132424000015PS Playhouse PM Block Open (:10-:15)                                                                                        150                                
PGRFAMCHA040701132424134710002246Disney's 101 Dalmatians: The Series               EPS # 1-057                                                         A6068607E                                
PROFAMCHA040701134710134726000016PS - 22(PH) - CHIP/HOZE/HOM (:14-:16)                                                                                       150                                
PRCFAMCHA040701134726134744000018Henry's World (HIS WORLD) (PH/AM) - Tomorrow @ 10:                                                                          150                                
ID FAMCHA040701134744134759000015PS Playhouse PM Block Open (:10-:15)                                                                                        150                                
ID FAMCHA040701134759134808000009Magic of Disney - PLAYHOUSE - Wipe (:06-:09)                                                                                150                                
PGRFAMCHA040701134808141054002246Chip 'n Dale Rescue Rangers                       Short Order Crooks                                                  A6068607E                                
PROFAMCHA040701141054141110000016PS - 23(PH) - HOZE/HOM/TIMON (:14-:16)                                                                                      150                                
PRCFAMCHA040701141110141145000035Playhouse - KATIE & ORBIE - Did You Know?                                                                                   150                                
ID FAMCHA040701141145141200000015PS Playhouse PM Block Open (:10-:15)                                                                                        150                                
PROFAMCHA040701141200141209000009CC Disclaimer - FAST - Family.ca (:08-:10)                                                                                  150                                
PGRFAMCHA040701141209143444002235Hoze Houndz                                       The Day The Houndz Stood Still/Poeticize                      B34013A1065607ECC                              
PROFAMCHA040701143444143500000016PS - 24(PH) - HOM/TIMON/LILO (:14-:16) (JAN1)                                                                               150                                
PROFAMCHA040701143500143530000030House of Mouse (GRASSHOPPER) - Coming Up Next                                                                               150                                
PRCFAMCHA040701143530143549000019Playhouse - FRANKLIN - Party                                                                                                150                                
ID FAMCHA040701143549143600000011PS Playhouse PM Block Open (:10-:15)                                                                                        150                                
PROFAMCHA040701143600143608000008CC Disclaimer - FAST - Family.ca (:08-:10)                                                                                  150                                
PGRFAMCHA040701143608145838002230Disney's House Of Mouse                           Where's Minnie?                                                     A6068607ECC                              
PROFAMCHA040701145838145852000014Mad Dash  - 01 - TIMON/LILO/WEEKENDERS (:14-:16) (                                                                          150                                
PROFAMCHA040701145852145922000030Summer Chill Mega-Long Weekend - Next Week Mon-Fri                                                                          150                                
PROFAMCHA040701145922145947000025Even Stevens (SIBLINGS) - (NS/M-T) - Tonight @ 7pm                                                                          150                                
ID FAMCHA040701145947150000000013Mad Dash Block Open (:13-:15)                                                                                               150                                
PGRFAMCHA040701150000152246002246Lion King's Timon & Pumbaa; The                   Hot Enough For Ya?/Werhog of London                                  6068607E                                
PROFAMCHA040701152246152302000016Mad Dash  - 02 - LILO/WEEKENDERS/RECESS (:14-:16)                                                                           150                                
PROFAMCHA040701152302152339000037Summer Chill Event - Starting Next Week                                                                                     150                                
INTFAMCHA040701152339152416000037Harrisons; The - Ketchup Squirt                                                                                       A10626120                                
PROFAMCHA040701152416152446000030Miracle In Lane 2 (PP) - Tomorrow @ 7:30pm                                                                                  150                                
ID FAMCHA040701152446152500000014Mad Dash Block Open (:13-:15)                                                                                               150                                
PGRFAMCHA040701152500154739002239Disney's Lilo & Stitch: The Series                EPS # 14                                                            A6068607E                                
PROFAMCHA040701154739154755000016Mad Dash  - 03 - WEEKENDERS/RECESS/KIM (:14-:16)                                                                            150                                
PROFAMCHA040701154755154825000030Summer Chill Mega-Long Weekend - Next Week Mon-Fri                                                                          150                                
PRCFAMCHA040701154825154834000009Family Bumpers - (Phase 1 Spring 04) - DJ Spinning                                                                          150                                
PRCFAMCHA040701154834154846000012Mad Dash - WEEKENDERS - Reality                                                                                             150                                
PRCFAMCHA040701154846154917000031Summer Chill Tour (July 19 - Aug 25) 3x daily                                                                               150                                
PROFAMCHA040701154917154947000030Miracle In Lane 2 (PP) - Tomorrow @ 7:30pm                                                                                  150                                
ID FAMCHA040701154947155000000013Mad Dash Block Open (:13-:15)                                                                                               150                                
PROFAMCHA040701155000155009000009CC Disclaimer - FAST - Family.ca (:08-:10)                                                                                  150                                
PGRFAMCHA040701155009161302002253Disney's The Weekenders                           Tino's Dad                                                          A6068607ECC                              
PROFAMCHA040701161302161318000016Mad Dash  - 04 - RECESS/KIM/PROUD (:14-:16)                                                                                 150                                
PROFAMCHA040701161318161355000037Summer Chill Event - Starting Next Week                                                                                     150                                
PRCFAMCHA040701161355161430000035Bullying Pledge - Ongoing to September 1                                                                                    150                                
PROFAMCHA040701161430161442000012Mad Dash - RECESS - Sprinkler                                                                                               150                                
PRCFAMCHA040701161442161516000034Family Kicks (May 21 - Sept 26)                                                                                             150                                
PROFAMCHA040701161516161546000030Miracle In Lane 2 (PP) - Tomorrow @ 7:30pm                                                                                  150                                
ID FAMCHA040701161546161600000014Mad Dash Block Open (:13-:15)                                                                                               150                                
PGRFAMCHA040701161600163836002236Disney's Recess                                   Mikey's Pants/Here Comes Mr. Perfect                                A6068607E                                
PROFAMCHA040701163836163851000015Mad Dash  - 05 - KIM/PROUD/LIZZIE (:14-:16)                                                                                 150                                
PROFAMCHA040701163851163921000030Summer Chill Mega-Long Weekend - Next Week Mon-Fri                                                                          150                                
PROFAMCHA040701163921163951000030xxKim Possible (JUN04) - (MD) - Coming Up Next                                                                              150                                
PRCFAMCHA040701163951164005000014Family Bumpers - (Phase 1 Spring 04) - Basketball                                                                           150                                
PROFAMCHA040701164005164033000028xxProud Family (BOND) - (MD) - Today @ 5:05pm                                                                               150                                
INTFAMCHA040701164033164046000013Lindsay Lohan Interview - What's Next?                                                                                A10628120                                
PROFAMCHA040701164046164117000031xxLizzie McGuire (MAY04) - (MD) - Today @ 5:35pm                                                                            150                                
PROFAMCHA040701164117164147000030Miracle In Lane 2 (PP) - Tomorrow @ 7:30pm                                                                                  150                                
ID FAMCHA040701164147164200000013Mad Dash Block Open (:13-:15)                                                                                               150                                
PGRFAMCHA040701164200170450002250Disney's Kim Possible                             EPS # 1-029                                                         A6068607E                                
PROFAMCHA040701170450170506000016Mad Dash  - 06 - PROUD/LIZZIE/ALL (:14-:16)                                                                                 150                                
PROFAMCHA040701170506170543000037Summer Chill Event - Starting Next Week                                                                                     150                                
PROFAMCHA040701170543170611000028xxProud Family (BOND) - (MD) - Coming Up                                                                                    150                                
PRCFAMCHA040701170611170642000031Summer Chill Tour (July 19 - Aug 25) 3x daily                                                                               150                                
PROFAMCHA040701170642170716000034Fillmore (APR04) - (MD/L) - Tomorrow @ 12:15pm                                                                              150                                
PROFAMCHA040701170716170746000030Miracle In Lane 2 (PP) - Tomorrow @ 7:30pm                                                                                  150                                
ID FAMCHA040701170746170800000014Mad Dash Block Open (:13-:15)                                                                                               150                                
PROFAMCHA040701170800170809000009CC Disclaimer - FAST - Family.ca (:08-:10)                                                                                  150                                
PGRFAMCHA040701170809173047002238Proud Family; The                                 Psycho Duck                                                         A6068807ECC                              
PROFAMCHA040701173047173101000014Mad Dash  - 07(NOV) - LIZZIE/ALL/RAVEN (:14-:16)                                                                            150                                
PROFAMCHA040701173101173131000030Summer Chill Mega-Long Weekend - Next Week Mon-Fri                                                                          150                                
PROFAMCHA040701173131173202000031xxLizzie McGuire (MAY04) - (MD) - Coming Up Next                                                                            150                                
PROFAMCHA040701173202173217000015Wendy's Sensations (PART 2) - Cut 1                                                                                         150                                
PRCFAMCHA040701173217173247000030xxMad Dash - GUIDE - You're Watching                                                                                        150                                
PROFAMCHA040701173247173317000030All That (NS/MAR) - Tonight @ 6pm                                                                                           150                                
PROFAMCHA040701173317173347000030Miracle In Lane 2 (PP) - Tomorrow @ 7:30pm                                                                                  150                                
ID FAMCHA040701173347173400000013Mad Dash Block Open (:13-:15)                                                                                               150                                
ID FAMCHA040701173400173408000008Magic of Disney - MAD DASH - Shape (:06-:09)                                                                                150                                
PGRFAMCHA040701173408175642002234Lizzie McGuire                                    When Moms Attack                                                    A6068607B                                
PROFAMCHA040701175642175656000014Nonstop - 01(M-T/NOV) - ALL/RAVEN/EVEN (:14-:16)                                                                            150                                
PROFAMCHA040701175656175733000037Summer Chill Event - Starting Next Week                                                                                     150                                
PROFAMCHA040701175733175803000030All That (NS/MAR) - Coming Up Next                                                                                          150                                
PROFAMCHA040701175803175833000030Two Brothers Contest - In Theatres Now (June 25 -                                                                           150                                
PROFAMCHA040701175833175904000031That's So Raven (APR04) - (NS) - Tonight @ 6:30pm                                                                           150                                
PRCFAMCHA040701175904175916000012Family Bumpers - (Phase 1 Spring 04) - Pillow Figh                                                                          150                                
PROFAMCHA040701175916175946000030Miracle In Lane 2 (PP) - Tomorrow @ 7:30pm                                                                                  150                                
ID FAMCHA040701175946180000000014Nonstop Block Open (:14-:17)                                                                                                150                                
PGRFAMCHA040701180000182001002001All That                                          EPS # 940                                                           A20686090                                
PROFAMCHA040701182001182017000016Nonstop - 02(M-T/NOV) - RAVEN/EVEN/RADIO (:14-:16)                                                                          150                                
PROFAMCHA040701182017182047000030Summer Chill Mega-Long Weekend - Next Week Mon-Fri                                                                          150                                
PROFAMCHA040701182047182118000031That's So Raven (APR04) - (NS) - Coming Up Next                                                                             150                                
PROFAMCHA040701182118182148000030Family Charged Fridays - BOOMBOX - Tomorrow @ 6pm                                                                           150                                
PROFAMCHA040701182148182213000025Even Stevens (SIBLINGS) - (NS/M-T) - Tonight @ 7pm                                                                          150                                
PROFAMCHA040701182213182243000030Wendy's Sensations (PART 1) - (May 17 - July 31)                                                                            150                                
INTFAMCHA040701182243182308000025Harrisons; The - Stuff Through Window                                                                                 A10626120                                
PROFAMCHA040701182308182346000038Teen Angel (JUN04) - (NS/FRI) - Tomorrow @ 7pm                                                                              150                                
PRCFAMCHA040701182346182436000050Bullying PSA - Ongoing to September 1                                                                                       150                                
PRCFAMCHA040701182436182509000033Radio Free Roscoe (MAY04) - (NS/M-T) - Tonight @ 7                                                                          150                                
PROFAMCHA040701182509182519000010FAMJAM - Open                                                                                                               150                                
INTFAMCHA040701182519182749000230MV Disney - Girl Power (Cheetah Girls)                                                                                 60688120                                
PROFAMCHA040701182749182803000014FAMJAM - Close (EMAIL)                                                                                                      150                                
PROFAMCHA040701182803182833000030Boy Meets World (SCRAWNY) - (NS) - Tonight @ 8pm                                                                            150                                
PRCFAMCHA040701182833182845000012Family Bumpers - (Phase 1 Spring 04) - Pillow Figh                                                                          150                                
PROFAMCHA040701182845182915000030Sleepover - BLAST! Interstitial (June 30 - July 9)                                                                          150                                
PROFAMCHA040701182915182945000030Miracle In Lane 2 (PP) - Tomorrow @ 7:30pm                                                                                  150                                
ID FAMCHA040701182945183000000015Nonstop Block Open (:14-:17)                                                                                                150                                
PROFAMCHA040701183000183009000009CC Disclaimer - FAST - Family.ca (:08-:10)                                                                                  150                                
PGRFAMCHA040701183009185249002240That's So Raven                                   A Dog By Any Other Name                                             A6068807BCC                              
PROFAMCHA040701185249185305000016Nonstop - 03(M-T/JAN) - EVEN/RADIO/BMW (:14-:16) (                                                                          150                                
PROFAMCHA040701185305185342000037Summer Chill Event - Starting Next Week                                                                                     150                                
PROFAMCHA040701185342185407000025Even Stevens (SIBLINGS) - (NS) - Coming Up                                                                                  150                                
PRCFAMCHA040701185407185440000033Radio Free Roscoe (MAY04) - (NS/M-T) - Tonight @ 7                                                                          150                                
PROFAMCHA040701185440185455000015Wendy's Sensations (PART 2) - Cut 1                                                                                         150                                
PROFAMCHA040701185455185525000030Family Charged Fridays - BOOMBOX - Tomorrow @ 6pm                                                                           150                                
PROFAMCHA040701185525185555000030Boy Meets World (SCRAWNY) - (NS) - Tonight @ 8pm                                                                            150                                
PROFAMCHA040701185555185633000038Teen Angel (JUN04) - (NS/FRI) - Tomorrow @ 7pm                                                                              150                                
PROFAMCHA040701185633185703000030Two Brothers Contest - In Theatres Now (June 25 -                                                                           150                                
INTFAMCHA040701185703185818000115Gagsters - Say What                                                                                                   A20686120                                
PROFAMCHA040701185818185844000026Smart Guy (APR04) - (NS/M-T) - Tonight @ 11:30                                                                              150                                
PROFAMCHA040701185844185914000030Amanda Show - FACES - (NS/FRI) - Tomorrow @ 6pm                                                                             150                                
PROFAMCHA040701185914185944000030Miracle In Lane 2 (PP) - Tomorrow @ 7:30pm                                                                                  150                                
ID FAMCHA040701185944190000000016Nonstop Block Open (:14-:17)                                                                                                150                                
PROFAMCHA040701190000190009000009CC Disclaimer - FAST - Family.ca (:08-:10)                                                                                  150                                
PGRFAMCHA040701190009192246002237Even Stevens                                      Model Principal                                                     A6068807BCC                              
PROFAMCHA040701192246192302000016Nonstop - 04(M-T) - RADIO/BMW/MENTORS (:14-:16) (M                                                                          150                                
PROFAMCHA040701192302192332000030Summer Chill Mega-Long Weekend - Next Week Mon-Fri                                                                          150                                
PRCFAMCHA040701192332192405000033Radio Free Roscoe (MAY04) - (NS) - Coming Up Next                                                                           150                                
PROFAMCHA040701192405192435000030Wendy's Sensations (PART 1) - (May 17 - July 31)                                                                            150                                
PROFAMCHA040701192435192505000030Boy Meets World (SCRAWNY) - (NS) - Tonight @ 8pm                                                                            150                                
INTFAMCHA040701192505192612000107Gagsters - Alien Attack                                                                                               A20686120                                
PROFAMCHA040701192612192642000030Mentors (NS) - Tonight @ 8:30pm                                                                                             150                                
PROFAMCHA040701192642192712000030Sleepover - BLAST! Interstitial (June 30 - July 9)                                                                          150                                
PROFAMCHA040701192712192742000030Family Charged Fridays - BOOMBOX - Tomorrow @ 6pm                                                                           150                                
PROFAMCHA040701192742192807000025Even Stevens (SIBLINGS) - (NS/FRI) - Tomorrow @ 6:                                                                          150                                
PRCFAMCHA040701192807192838000031Summer Chill Tour (July 19 - Aug 25) 3x daily                                                                               150                                
PROFAMCHA040701192838192916000038Teen Angel (JUN04) - (NS/FRI) - Tomorrow @ 7pm                                                                              150                                
PROFAMCHA040701192916192946000030Miracle In Lane 2 (PP) - Tomorrow @ 7:30pm                                                                                  150                                
ID FAMCHA040701192946193000000014Nonstop Block Open (:14-:17)                                                                                                150                                
PROFAMCHA040701193000193009000009CC Disclaimer - FAST - Family.ca (:08-:10)                                                                                  150                                
PGRFAMCHA040701193009195239002230Radio Free Roscoe                                 EPS # 002                                                     A88717A1065607ACC                              
PROFAMCHA040701195239195255000016Nonstop - 05(M-T) - BMW/MENTORS/N-PIX (:14-:16) (M                                                                          150                                
PROFAMCHA040701195255195332000037Summer Chill Event - Starting Next Week                                                                                     150                                
PROFAMCHA040701195332195402000030Boy Meets World (SCRAWNY) - (NS) - Coming Up                                                                                150                                
PROFAMCHA040701195402195432000030Two Brothers Contest - In Theatres Now (June 25 -                                                                           150                                
PROFAMCHA040701195432195502000030Mentors (NS) - Tonight @ 8:30pm                                                                                             150                                
PRCFAMCHA040701195502195533000031Summer Chill Tour (July 19 - Aug 25) 3x daily                                                                               150                                
PROFAMCHA040701195533195559000026Smart Guy (APR04) - (NS/M-T) - Tonight @ 11:30                                                                              150                                
PROFAMCHA040701195559195629000030Family Charged Fridays - BOOMBOX - Tomorrow @ 6pm                                                                           150                                
PRCFAMCHA040701195629195703000034Family Kicks (May 21 - Sept 26)                                                                                             150                                
PROFAMCHA040701195703195741000038Teen Angel (JUN04) - (NS/FRI) - Tomorrow @ 7pm                                                                              150                                
INTFAMCHA040701195741195841000100Gagsters - Ice Scream                                                                                                 A20686120                                
PRCFAMCHA040701195841195914000033Radio Free Roscoe (MAY04) - (NS) - Tonight @ 12am                                                                           150                                
PROFAMCHA040701195914195944000030Miracle In Lane 2 (PP) - Tomorrow @ 7:30pm                                                                                  150                                
ID FAMCHA040701195944200000000016Nonstop Block Open (:14-:17)                                                                                                150                                
PROFAMCHA040701200000200009000009CC Disclaimer - FAST - Family.ca (:08-:10)                                                                                  150                                
PGRFAMCHA040701200009202234002225Boy Meets World                                   Wake Up, Little Cory                                                B6068807BCC                              
PROFAMCHA040701202234202248000014Nonstop - 06(M-T) - MENTORS/N-PIX (:14-:16) (MAR)                                                                           150                                
PROFAMCHA040701202248202318000030Summer Chill Mega-Long Weekend - Next Week Mon-Fri                                                                          150                                
PROFAMCHA040701202318202348000030Mentors (NS) - Coming Up Next                                                                                               150                                
PROFAMCHA040701202348202418000030Sleepover - BLAST! Interstitial (June 30 - July 9)                                                                          150                                
PROFAMCHA040701202418202448000030Family Charged Fridays - BOOMBOX - Tomorrow @ 6pm                                                                           150                                
PROFAMCHA040701202448202458000010FAMJAM - Open                                                                                                               150                                
MVCFAMCHA040701202448202807000319MV - I'd Do Anything (Simple Plan)                                                                                    A20688120                                
PROFAMCHA040701202817202831000014FAMJAM - Close (LOGO)                                                                                                       150                                
PROFAMCHA040701202831202909000038Teen Angel (JUN04) - (NS/FRI) - Tomorrow @ 7pm                                                                              150                                
PROFAMCHA040701202909202939000030Miracle In Lane 2 (PP) - Tomorrow @ 7:30pm                                                                                  150                                
ID FAMCHA040701202939202946000007Lindsay Lohan ID - You're Watching Family                                                                                   150                                
ID FAMCHA040701202946203000000014Nonstop Block Open (:14-:17)                                                                                                150                                
PROFAMCHA040701203000203009000009CC Disclaimer - FAST - Family.ca (:08-:10)                                                                                  150                                
PGRFAMCHA040701203009205320002311Mentors                                           A Matter Of Time Part 1                                       C20779A1055607ACC                              
PROFAMCHA040701205320205336000016Nightly Pix Line-up (SEPT) - GENERIC (:14-:16)                                                                              150                                
PROFAMCHA040701205336205413000037Summer Chill Event - Starting Next Week                                                                                     150                                
PROFAMCHA040701205413205443000030Family Charged Fridays - BOOMBOX - Tomorrow @ 6pm                                                                           150                                
PROFAMCHA040701205443205514000031Brendan Leonard (#1 - FALL 2003) - Tonight @ 11pm                                                                           150                                
PROFAMCHA040701205514205539000025Even Stevens (SIBLINGS) - (NS/FRI) - Tomorrow @ 6:                                                                          150                                
PROFAMCHA040701205539205605000026Smart Guy (APR04) - (NS/M-T) - Tonight @ 11:30                                                                              150                                
PROFAMCHA040701205605205643000038Teen Angel (JUN04) - (NS/FRI) - Tomorrow @ 7pm                                                                              150                                
INTFAMCHA040701205643205813000130Klootz - Handymen 04 (post 7PM)                                                                                       A10658120                                
PRCFAMCHA040701205813205846000033Radio Free Roscoe (MAY04) - (NS) - Tonight @ 12am                                                                           150                                
PROFAMCHA040701205846205917000031That's So Raven (APR04) - (NSW/AM) - Weekends @ 9:                                                                          150                                
PROFAMCHA040701205917205947000030Miracle In Lane 2 (PP) - Tomorrow @ 7:30pm                                                                                  150                                
ID FAMCHA040701205947210000000013Nightly Pix Movie Open (:10-:15)                                                                                            150                                
ID FAMCHA040701210000210009000009Rating - PG - Ian (:08-:10)                                                                                                 150                                
PROFAMCHA040701210009210018000009CC Disclaimer - SLOW - Generic (:08-:10)                                                                                    150                                
PGRFAMCHA040701210018223330013312Planes, Trains and Automobiles                                                                                        B2068807DCC                              
PROFAMCHA040701223330223346000016Nonstop - 07(M-T/JAN) - BMW/BRENDAN/SMART (:14-:16                                                                          150                                
ID FAMCHA040701223346223400000014Nonstop Block Open (:14-:17)                                                                                                150                                
PROFAMCHA040701223400223409000009CC Disclaimer - SLOW - Generic (:08-:10)                                                                                    150                                
PGRFAMCHA040701223409225545002136Boy Meets World                                   No Such Thing                                                       B6068807BCC                              
PROFAMCHA040701225545225600000015Nonstop - 08(M/T-MAR) - BRENDAN/SMART/RADIO (:14-:                                                                          150                                
PROFAMCHA040701225600225630000030Summer Chill Mega-Long Weekend - Next Week Mon-Fri                                                                          150                                
PROFAMCHA040701225630225701000031Brendan Leonard (#1 - FALL 2003) - Coming Up                                                                                150                                
PROFAMCHA040701225701225727000026Smart Guy (APR04) - (NS/M-T) - Tonight @ 11:30                                                                              150                                
PROFAMCHA040701225727225757000030Family Charged Fridays - BOOMBOX - Tomorrow @ 6pm                                                                           150                                
INTFAMCHA040701225757225843000046Gagsters - Scurrying Skunk                                                                                            A20686120                                
PRCFAMCHA040701225843225916000033Radio Free Roscoe (MAY04) - (NS) - Tonight @ 12am                                                                           150                                
PROFAMCHA040701225916225946000030Miracle In Lane 2 (PP) - Tomorrow @ 7:30pm                                                                                  150                                
ID FAMCHA040701225946230000000014Nonstop Block Open (:14-:17)                                                                                                150                                
PROFAMCHA040701230000230009000009CC Disclaimer - SLOW - Generic (:08-:10)                                                                                    150                                
PGRFAMCHA040701230009232054002045Brendan Leonard Show; The                         EPS # 1-008                                                         B6068807FCC                              
PROFAMCHA040701232054232110000016Nonstop - 08b(M-T/MAR) - SMART/RADIO/DARK (:14-:16                                                                          150                                
PROFAMCHA040701232110232147000037Summer Chill Event - Starting Next Week                                                                                     150                                
PROFAMCHA040701232147232213000026Smart Guy (APR04) - (NS/M-T) - Coming Up Next                                                                               150                                
PROFAMCHA040701232213232243000030Family Charged Fridays - BOOMBOX - Tomorrow @ 6pm                                                                           150                                
PROFAMCHA040701232243232314000031xxLizzie McGuire (MAY04) - (MD) - Tomorrow @ 5:35p                                                                          150                                
PROFAMCHA040701232314232339000025Even Stevens (SIBLINGS) - (NS/FRI) - Tomorrow @ 6:                                                                          150                                
PROFAMCHA040701232339232349000010FAMJAM - Open                                                                                                               150                                
INTFAMCHA040701232349232719000330MV Disney - Come Clean (Hillary Duff)                                                                                  60688120                                
PROFAMCHA040701232719232733000014FAMJAM - Close (EMAIL)                                                                                                      150                                
PROFAMCHA040701232733232811000038Teen Angel (JUN04) - (NS/FRI) - Tomorrow @ 7pm                                                                              150                                
PROFAMCHA040701232811232842000031That's So Raven (APR04) - (NSW/AM) - Weekends @ 9:                                                                          150                                
PRCFAMCHA040701232842232915000033Radio Free Roscoe (MAY04) - (NS) - Tonight @ 12am                                                                           150                                
PROFAMCHA040701232915232945000030Miracle In Lane 2 (PP) - Tomorrow @ 7:30pm                                                                                  150                                
ID FAMCHA040701232945233000000015Nonstop Block Open (:14-:17)                                                                                                150                                
PROFAMCHA040701233000233009000009CC Disclaimer - SLOW - Generic (:08-:10)                                                                                    150                                
PGRFAMCHA040701233009235235002226Smart Guy                                         The Code                                                            A6068807BCC                              
PROFAMCHA040701235235235251000016Nonstop - 09 (FRI) - RADIO/DARK (:14-:16) (MAR)                                                                             150                                
PROFAMCHA040701235251235321000030Summer Chill Mega-Long Weekend - Next Week Mon-Fri                                                                          150                                
PRCFAMCHA040701235321235354000033Radio Free Roscoe (MAY04) - (NS) - Coming Up Next                                                                           150                                
PROFAMCHA040701235354235424000030Amanda Show - FACES - (NS/FRI) - Tomorrow @ 6pm                                                                             150                                
PROFAMCHA040701235424235449000025Even Stevens (SIBLINGS) - (NS/FRI) - Tomorrow @ 6:                                                                          150                                
INTFAMCHA040701235449235619000130Klootz - Medecin 02 (post 7PM)                                                                                        A10658120                                
PROFAMCHA040701235619235650000031That's So Raven (APR04) - (NSW/AM) - Weekends @ 9:                                                                          150                                
PROFAMCHA040701235650235728000038Teen Angel (JUN04) - (NS/FRI) - Tomorrow @ 7pm                                                                              150                                
INTFAMCHA040701235728235846000118Gagsters - Bananarama                                                                                                 A20686120                                
PRCFAMCHA040701235846235916000030Popcorn Pix (FASHION) -Tomorrow @ 7:30pm                                                                                    150                                
PROFAMCHA040701235916235946000030Miracle In Lane 2 (PP) - Tomorrow @ 7:30pm                                                                                  150                                
ID FAMCHA040701235946000000000014Nonstop Block Open (:14-:17)                                                                                                150                                
PROFAMCHA040701000000000009000009CC Disclaimer - SLOW - Generic (:08-:10)                                                                                    150                                
PGRFAMCHA040701000009002239002230Radio Free Roscoe                                 EPS # 005                                                     A88720A1065607ACC                              
PROFAMCHA040701002239002255000016Nonstop - 10 - DARK (:14-:16) (MAR)                                                                                         150                                
PROFAMCHA040701002255002332000037Summer Chill Event - Starting Next Week                                                                                     150                                
PROFAMCHA040701002332002402000030Family Charged Fridays - BOOMBOX - Tomorrow @ 6pm                                                                           150                                
INTFAMCHA040701002402002521000119Gagsters - Flower Power                                                                                               A20686120                                
PROFAMCHA040701002521002551000030Amanda Show - FACES - (NS/FRI) - Tomorrow @ 6pm                                                                             150                                
PROFAMCHA040701002551002622000031That's So Raven (APR04) - (NSW/AM) - Weekends @ 9:                                                                          150                                
PROFAMCHA040701002622002647000025Even Stevens (SIBLINGS) - (NS/FRI) - Tomorrow @ 6:                                                                          150                                
PROFAMCHA040701002647002657000010FAMJAM - Open                                                                                                               150                                
INTFAMCHA040701002657002757000100MV Disney - I Can't Wait (HILARY DUFF)                                                                                 60688120                                
PROFAMCHA040701002757002811000014FAMJAM - Close (LOGO)                                                                                                       150                                
PROFAMCHA040701002811002849000038Teen Angel (JUN04) - (NS/FRI) - Tomorrow @ 7pm                                                                              150                                
PROFAMCHA040701002849002915000026Smart Guy (APR04) - (NSW-AM) - Weekends @ 10:45am                                                                           150                                
PROFAMCHA040701002915002945000030Miracle In Lane 2 (PP) - Tomorrow @ 7:30pm                                                                                  150                                
ID FAMCHA040701002945003001000016Nonstop Block Open (:14-:17)                                                                                                150                                
PGRFAMCHA040701003001005350002349Are You Afraid Of The Dark?                       The Tale of the Phantom Cab                                   SR0302 1066807A                                
PROFAMCHA040701005350005420000030Summer Chill Mega-Long Weekend - Next Week Mon-Fri                                                                          150                                
PROFAMCHA040701005420005450000030Family Charged Fridays - BOOMBOX - Tomorrow @ 6pm                                                                           150                                
PROFAMCHA040701005450005515000025Even Stevens (SIBLINGS) - (NS/FRI) - Tomorrow @ 6:                                                                          150                                
PROFAMCHA040701005515005546000031That's So Raven (APR04) - (NSW/AM) - Weekends @ 9:                                                                          150                                
PROFAMCHA040701005546005556000010FAMJAM - Open                                                                                                               150                                
INTFAMCHA040701005556005932000336MV Disney - Supernatural (Raven Symone)                                                                                60688120                                
PROFAMCHA040701005932005946000014FAMJAM - Close (LOGO)                                                                                                       150                                
PROFAMCHA040701005946010024000038Teen Angel (JUN04) - (NS/FRI) - Tomorrow @ 7pm                                                                              150                                
PROFAMCHA040701010024010050000026Smart Guy (APR04) - (NSW-AM) - Weekends @ 10:45am                                                                           150                                
PRCFAMCHA040701010050010123000033Radio Free Roscoe (MAY04) - Tomorrow @ 12am                                                                                 150                                
PROFAMCHA040701010123010153000030Miracle In Lane 2 (PP) - Tomorrow @ 7:30pm                                                                                  150                                
PRCFAMCHA040701010153010223000030Astral - Clock                                                                                                              150                                
SO FAMCHA040701010223011423001200Sign Off                                                                                                                                                       
OFFFAMCHA040701011423043000031537OFF AIR                                                                                                                                                        
SO FAMCHA040702043000043011000011Sign On (oct 1)                                                                                                                                                
PROFAMCHA040702043011043020000009CC Disclaimer - FAST - Family.ca (:08-:10)                                                                                  150                                
PGRFAMCHA040702043020045313002253Franklin                                          Franklin's Family Treasure/Franklin's Music Lesson            B13645A1065607ECC                              
PROFAMCHA040702045313045329000016PS - 01(PH) - WTP/KATIE/FRANKLIN (:14-:16)                                                                                  150                                
ID FAMCHA040702045329045342000013PS Playhouse AM Block Open (:10-:15)                                                                                        150                                
PROFAMCHA040702045342045350000008CC Disclaimer - FAST - Family.ca (:08-:10)                                                                                  150                                
PGRFAMCHA040702045350051621002231New Adventures of Winnie the Pooh; The            Piglet Who Would Be King                                             6068607ECC                              
PROFAMCHA040702051621051635000014PS - 02(PH) - KATIE/FRANKLIN/SOMETHING (:14-:16)                                                                            150                                
PROFAMCHA040702051635051650000015Hoze Houndz (Squirt Bored) (NSW) - Tomorrow @ 6:45                                                                          150                                
ID FAMCHA040702051650051700000010PS Playhouse AM Block Open (:10-:15)                                                                                        150                                
PROFAMCHA040702051700051709000009CC Disclaimer - FAST - Family.ca (:08-:10)                                                                                  150                                
PGRFAMCHA040702051709054347002638Katie And Orbie                                   Pizza/The Argument/Sidewalk Storyboard                        C19664A1065607ECC                              
PROFAMCHA040702054347054403000016PS - 03(PH) - FRANKLIN/SOMETHING/HOZE (:14-:16)                                                                             150                                
ID FAMCHA040702054403054416000013PS Playhouse AM Block Open (:10-:15)                                                                                        150                                
PROFAMCHA040702054416054425000009CC Disclaimer - FAST - Family.ca (:08-:10)                                                                                  150                                
PGRFAMCHA040702054425060718002253Franklin                                          Franklin Takes A Trip/Franklin's Bicycle Helmet               B13646A1065607ECC                              
PROFAMCHA040702060718060734000016PS - 04(PH) - SOMETHING/HOZE/KNIGHT (:14-:16)                                                                               150                                
PROFAMCHA040702060734060749000015Hoze Houndz (Squirt Bored) (NSW) - Tomorrow @ 6:45                                                                          150                                
ID FAMCHA040702060749060800000011PS Playhouse AM Block Open (:10-:15)                                                                                        150                                
PROFAMCHA040702060800060809000009CC Disclaimer - FAST - Family.ca (:08-:10)                                                                                  150                                
PGRFAMCHA040702060809063040002231Something Else                                    The Trip/The Sitters                                          A69256A1065607ECC                              
PROFAMCHA040702063040063056000016PS - 05(PH) - HOZE/KNIGHT/NINJA (:14-:16)                                                                                   150                                
PROFAMCHA040702063056063121000025Hoze Houndz (Can't Fly) (PH) - Coming Up Next                                                                               150                                
PROFAMCHA040702063121063221000100Playhouse (FUNTIMES) - (AM) - Today @ 8:30am                                                                          A     150                                
PROFAMCHA040702063221063303000042Jojo's Circus - (CRAB) - (PH/AM) - Today @ 9:45am                                                                           150                                
PROFAMCHA040702063303063347000044Stanley - (SONG) - (PH) - Today @ 10:10am                                                                                   150                                
PRCFAMCHA040702063347063405000018Henry's World (HIS WORLD) (PH/AM) - Today @ 10:35a                                                                          150                                
PRCFAMCHA040702063405063449000044Franklin (SPRING) - (NSW/PM) - Tomorrow @ 7:10pm                                                                            150                                
ID FAMCHA040702063449063500000011PS Playhouse AM Block Open (:10-:15)                                                                                        150                                
PROFAMCHA040702063500063510000010CC Disclaimer - FAST - Family.ca (:08-:10)                                                                                  150                                
PGRFAMCHA040702063510065750002240Hoze Houndz                                       Hockey Night In Bonehead Hollow/Merry Mealz                   A63376A1065607ECC                              
PROFAMCHA040702065750065806000016PS - 06(PB) - KNIGHT/NINJA/GADGET (:14-:16)                                                                                 150                                
PROFAMCHA040702065806065836000030Mon Colle Knights - Coming Up                                                                                               150                                
PROFAMCHA040702065836065906000030Power Rangers Ninja Storm (PB/WKDAY) - Today @ 7:3                                                                          150                                
PRCFAMCHA040702065906065915000009Family Bumpers - (Phase 1 Spring 04) - DJ Spinning                                                                          150                                
PROFAMCHA040702065915065945000030Summer Chill Mega-Long Weekend - Next Week Mon-Fri                                                                          150                                
ID FAMCHA040702065945070000000015Power Box Block Open (:12-:15)                                                                                              150                                
PROFAMCHA040702070000070009000009CC Disclaimer - FAST - Family.ca (:08-:10)                                                                                  150                                
PGRFAMCHA040702070009072134002125Mon Colle Knights                                 EPS # 1-031                                                         A6068607ECC                              
PROFAMCHA040702072134072148000014PS - 07(PB) - NINJA/GADGET/DALMATIANS (:14-:16)                                                                             150                                
PROFAMCHA040702072148072225000037Summer Chill Event - Starting Next Week                                                                                     150                                
PROFAMCHA040702072225072255000030Power Rangers Ninja Storm (PB/WKDAY) - Coming Up N                                                                          150                                
PROFAMCHA040702072255072325000030Gadget & The Gadgetinis - (PB) - Today @ 8am                                                                                150                                
PRCFAMCHA040702072325072400000035Power Box Block Promo (APR04) - (PB) - Mon - Fri @                                                                          150                                
PROFAMCHA040702072400072430000030Recess (NOV2003) - Today @ 11:50am                                                                                          150                                
INTFAMCHA040702072430072844000414Art Attack - Fish                                                                                                      60686120                                
PROFAMCHA040702072844072918000034Fillmore (APR04) - (MD/L) - Today @ 12:15pm                                                                                 150                                
PROFAMCHA040702072918072948000030Miracle In Lane 2 (PP) - Tonight @ 7:30pm                                                                                   150                                
ID FAMCHA040702072948073000000012Power Box Block Open (:12-:15)                                                                                              150                                
PGRFAMCHA040702073000075125002125Power Rangers Ninja Storm                         Looming Thunder                                                     A6068607E                                
PROFAMCHA040702075125075141000016PS - 08(PB) - GADGET/DALMATIANS/FRANKLIN (:14-:16)                                                                          150                                
PROFAMCHA040702075141075211000030Summer Chill Mega-Long Weekend - Next Week Mon-Fri                                                                          150                                
PROFAMCHA040702075211075241000030Gadget & The Gadgetinis - (PB) - Coming Up                                                                                  150                                
PRCFAMCHA040702075241075316000035Power Box Block Promo (APR04) - (PB) - Mon - Fri @                                                                          150                                
PROFAMCHA040702075316075346000030Power Rangers Ninja Storm (PB/WKND) - Tomorrow @ 6                                                                          150                                
INTFAMCHA040702075346075806000420Art Attack - Kit Flier                                                                                                 60686120                                
PROFAMCHA040702075806075840000034Fillmore (APR04) - (MD/L) - Today @ 12:15pm                                                                                 150                                
PROFAMCHA040702075840075916000036Power Rangers Dino Thunder (LONG) - Tomorrow @ 7am                                                                          150                                
PROFAMCHA040702075916075946000030Miracle In Lane 2 (PP) - Tonight @ 7:30pm                                                                                   150                                
ID FAMCHA040702075946080000000014Power Box Block Open (:12-:15)                                                                                              150                                
PGRFAMCHA040702080000082213002213Gadget & the Gadgetinis                           EPS # 1-016                                                         A6068607E                                
PROFAMCHA040702082213082229000016PS - 09(PH) - DALMATIANS/FRANKLIN/WTP (:14-:16)                                                                             150                                
PROFAMCHA040702082229082329000100Playhouse (FUNTIMES) - (AM) - Coming Up Next                                                                          A     150                                
PRCFAMCHA040702082329082422000053Franklin (SOCCER) - (PH) - Today @ 8:55am                                                                                   150                                
PROFAMCHA040702082422082504000042Jojo's Circus - (CRAB) - (PH/AM) - Today @ 9:45am                                                                           150                                
INTFAMCHA040702082504082845000341Art Attack - Cow                                                                                                       60686120                                
PROFAMCHA040702082845082929000044Stanley - (SONG) - (PH) - Today @ 10:10am                                                                                   150                                
PRCFAMCHA040702082929082947000018Henry's World (HIS WORLD) (PH/AM) - Today @ 10:35a                                                                          150                                
ID FAMCHA040702082947083000000013PS Playhouse AM Block Open (:10-:15)                                                                                        150                                
PGRFAMCHA040702083000085245002245Disney's 101 Dalmatians: The Series               EPS # 1-058                                                         A6068607E                                
PROFAMCHA040702085245085301000016PS - 10(PH) - FRANKLIN/WTP/JOJO (:14-:16) (JAN12)                                                                           150                                
PRCFAMCHA040702085301085347000046Franklin (SPRING) - (PH) - Coming Up Next                                                                                   150                                
PROFAMCHA040702085347085447000100Playhouse (FUNTIMES) - (AM) - You're Watching Play                                                                    A     150                                
ID FAMCHA040702085447085500000013PS Playhouse AM Block Open (:10-:15)                                                                                        150                                
PROFAMCHA040702085500085509000009CC Disclaimer - FAST - Family.ca (:08-:10)                                                                                  150                                
PGRFAMCHA040702085509091802002253Franklin                                          Franklin's Cookie Question/Franklin's Picnic                  A53214A1065607ECC                              
PROFAMCHA040702091802091817000015PS - 11(PH) - WTP/JOJO/STANLEY (:14-:16) (JAN12)                                                                            150                                
PROFAMCHA040702091817091917000100Playhouse (FUNTIMES) - (AM) - You're Watching Play                                                                    A     150                                
PROFAMCHA040702091917091947000030House of Mouse (GRASSHOPPER) - Today @ 2:35pm                                                                               150                                
ID FAMCHA040702091947092000000013PS Playhouse AM Block Open (:10-:15)                                                                                        150                                
PROFAMCHA040702092000092009000009CC Disclaimer - FAST - Family.ca (:08-:10)                                                                                  150                                
PGRFAMCHA040702092009094248002239New Adventures of Winnie the Pooh; The            Cleanliness Is Next To Impossible                                    6068607ECC                              
PROFAMCHA040702094248094303000015PS - 12(PH) - JOJO/STANLEY/HENRY (:14-:16) (JAN12)                                                                          150                                
PROFAMCHA040702094303094342000039Jojo's Circus - (DANCING) - (PH/AM) - Coming Up Ne                                                                          150                                
PROFAMCHA040702094342094426000044Stanley - (SONG) - (PH) - Today @ 10:10am                                                                                   150                                
PRCFAMCHA040702094426094444000018Henry's World (HIS WORLD) (PH/AM) - Today @ 10:35a                                                                          150                                
PRCFAMCHA040702094444094532000048Chip 'n Dale (MILK) - (PH/AM) - Today @ 11am                                                                                150                                
PROFAMCHA040702094532094547000015Hoze Houndz (Squirt Bored) (NSW) - Tomorrow @ 6:45                                                                          150                                
ID FAMCHA040702094547094600000013PS Playhouse AM Block Open (:10-:15)                                                                                        150                                
PGRFAMCHA040702094600101007002407JoJo's Circus                                     EPS # 13                                                            A6068607E                                
PROFAMCHA040702101007101021000014PS - 13(PH) - STANLEY/HENRY/CHIP (:14-:16) (JAN12)                                                                          150                                
PROFAMCHA040702101021101105000044Stanley - (SONG) - (PH) - Coming Up Next                                                                                    150                                
PROFAMCHA040702101105101151000046Playhouse (SILLY STUNTS) - (PM) - Today @ 1:25pm                                                                            150                                
ID FAMCHA040702101151101201000010PS Playhouse AM Block Open (:10-:15)                                                                                        150                                
PGRFAMCHA040702101201103557002356Stanley                                           Hippo Helpers/Where's Stanley?                                      A6068607E                                
PROFAMCHA040702103557103613000016PS - 14(PH) - HENRY/CHIP/ART (:14-:16) (JAN12)                                                                              150                                
PRCFAMCHA040702103613103631000018Henry's World (HIS WORLD) (PH/AM) - Coming Up Next                                                                          150                                
PRCFAMCHA040702103631103719000048Chip 'n Dale (MILK) - (PH/AM) - Today @ 11am                                                                                150                                
PROFAMCHA040702103719103749000030House of Mouse (GRASSHOPPER) - Today @ 2:35pm                                                                               150                                
ID FAMCHA040702103749103800000011PS Playhouse AM Block Open (:10-:15)                                                                                        150                                
PROFAMCHA040702103800103809000009CC Disclaimer - FAST - Family.ca (:08-:10)                                                                                  150                                
PGRFAMCHA040702103809110201002352Henry's World                                     X-Ray X-mas/Darwin For A Day                                  B66555A1065607GCC                              
PROFAMCHA040702110201110217000016PS - 15(PH) - CHIP/ART/RECESS (:14-:16)                                                                                     150                                
PRCFAMCHA040702110217110305000048Chip 'n Dale (MILK) - (PH) - Coming Up Next                                                                                 150                                
PROFAMCHA040702110305110347000042Jojo's Circus - (CRAB) - (PH/AM) - Today @ 9:45am                                                                           150                                
ID FAMCHA040702110347110400000013PS Playhouse AM Block Open (:10-:15)                                                                                        150                                
ID FAMCHA040702110400110408000008Magic of Disney - PLAYHOUSE - Shape (:06-:09)                                                                               150                                
PGRFAMCHA040702110408112648002240Chip 'n Dale Rescue Rangers                       When Mice Were Men                                                  A6068607E                                
PROFAMCHA040702112648112704000016PS - 16(PH) - ART/RECESS/FILLMORE (:14-:16) (JAN)                                                                           150                                
