PGRFAMCHA130801043000045402002402Henry's World                                     EP: 14                                                        B81045 1065607ECC                              
PROFAMCHA130801045402045409000007D-JR Live Action ID - Franny's Feet - Coming Up (M                                                                          150                                
PROFAMCHA130801045409045434000025D-JR Live Action ID - #12 Feed Goldfish (May2012)                                                                           150                                
PROFAMCHA130801045434045518000044D-JR Promo - Summmer Morning Marathons - Weekdays                                                                           150                                
PROFAMCHA130801045518045543000025D-JR Live Action ID - #13 Make Bed (May2012)                                                                                150                                
PROFAMCHA130801045543045550000007D-JR Live Action ID - Franny's Feet - Now (May2012                                                                          150                                
PROFAMCHA130801045550045557000007D-JR - Flex ID - Blue (:6-:10) (Feb2012)                                                                                    150                                
PGRFAMCHA130801045557051828002231Franny's Feet                                     EP: 43                                                        C31292 1065607ECC                              
PROFAMCHA130801051828051835000007D-JR Live Action ID - SWOBB - Coming Up (May2012)                                                                           150                                
PROFAMCHA130801051835051900000025D-JR Live Action ID - #20 Calendar (May2012)                                                                                150                                
PROFAMCHA130801051900051952000052D-JR Promo - Pirate and Princess Summer Stunt  - W                                                                          150                                
PROFAMCHA130801051952052034000042D-JR Promo - Sofia The First: A Princess Thing - G                                                                          150                                
PROFAMCHA130801052034052059000025D-JR Live Action ID - #42 Brush Teeth (May2012)                                                                             150                                
PROFAMCHA130801052059052106000007D-JR Live Action ID - SWOBB - Now (May2012)                                                                                 150                                
PROFAMCHA130801052106052113000007D-JR - Flex ID - Green (:6-:10) (Feb2012)                                                                                   150                                
PGRFAMCHA130801052113054343002230The Secret World of Benjamin Bear                 EP: 17                                                        C26066 1065607ECC                              
PROFAMCHA130801054343054349000006D-JR - Flex ID - Purple (:6-:10) (Feb2012)                                                                                  150                                
PGRFAMCHA130801054349060527002138Harry and His Bucket Full of Dinosaurs            EP: 09                                                        B05028 1065607ECC                              
PROFAMCHA130801060527060537000010D-JR - Flex ID - Yellow (:6-:10) (Feb2012)                                                                                  150                                
PGRFAMCHA130801060537062852002315Stella and Sam                                    EP: 09                                                        C32553 1065607ECD                              
PROFAMCHA130801062852062859000007D-JR Live Action ID - Mickey Mouse Clubhouse - Com                                                                          150                                
PROFAMCHA130801062859062924000025D-JR Live Action ID - #88 Get Ready for Day At Bea                                                                          150                                
PROFAMCHA130801062924062930000006D-JR - Flex ID - Blue (:6-:10) (Feb2012)                                                                                    150                                
PROFAMCHA130801062930062955000025D-JR Live Action ID - #48 Help Feed Sibling (Sept2                                                                          150                                
PROFAMCHA130801062955063002000007D-JR Live Action ID - Mickey Mouse Clubhouse - Now                                                                          150                                
PGRFAMCHA130801063002065402002400Disney's Mickey Mouse Clubhouse                   EP: 28                                                               6068605ACC                              
PROFAMCHA130801065402065410000008D-JR Live Action ID - Jake & the Never Land Pirate                                                                          150                                
PROFAMCHA130801065410065435000025D-JR Live Action ID - #92 Getting Ready to Go Outs                                                                          150                                
PROFAMCHA130801065435065519000044D-JR Promo - Summmer Morning Marathons - Weekdays                                                                           150                                
PROFAMCHA130801065519065539000020D-JR Promo - Sofia The First: Clip 1 - Get More We                                                                          150                                
PROFAMCHA130801065539065545000006D-JR - Short Open (:06) (May2011)                                                                                           150                                
PROFAMCHA130801065545065815000230D-JR Short - Choo Choo Soul - 1-10 (Jul2013)                                                                                150CC                              
PROFAMCHA130801065815065821000006D-JR - Short Close (:06) (May2011)                                                                                          150                                
PROFAMCHA130801065821065913000052D-JR Promo - Pirate and Princess Summer Stunt  - W                                                                          150                                
PROFAMCHA130801065913065938000025D-JR Live Action ID - #64 Pick Up Room/Turn off Li                                                                          150                                
PROFAMCHA130801065938065945000007D-JR Live Action ID - Jake & the Never Land Pirate                                                                          150                                
PROFAMCHA130801065945065953000008D-JR - Flex ID - Green (:6-:10) (Feb2012)                                                                                   150                                
PGRFAMCHA130801065953072358002405Disney Jake and the Never Land Pirates            EP: 14                                                               6068605ACC                              
PGRFAMCHA130801072358072528000130Phineas & Ferb Mission Marvel Trailer (HD) Prems A                                                                     60688120                                
PROFAMCHA130801072528072618000050Lego                                                                                                                        150                                
PROFAMCHA130801072618072642000024Summer Shuffle ANT Farm (HD) This Afternoon Starti                                                                          150                                
PGRFAMCHA130801072642072757000115MV Disney (HD) TBM - Meant To Be (w BTS L3) (July                                                                      60685120CC                              
PROFAMCHA130801072757072803000006Hannah (HD) ID - Jason Earles 2 - "Coming Up Next"                                                                          150                                
PROFAMCHA130801072803072853000050Walt Disney Pictures                                                                                                        150                                
PROFAMCHA130801072853072935000042Stunt Flash Forward (HD) Tomorrow Afternoon Starti                                                                          150                                
PRCFAMCHA130801072935072953000018Family Bumper (HD) - Dominoes ID (Jan 2011)                                                                                 150                                
PGRFAMCHA130801072953075231002238Hannah Montana                                    EP: 13                                                               6068807BCC                              
PROFAMCHA130801075231075314000043Mickey Mouse Shorts Promo (HD) Continues Tomorrow                                                                           150                                
PROFAMCHA130801075314075354000040Kellogg's                                                                                                                   150                                
PROFAMCHA130801075354075421000027Dog With A Blog Episodic (HD) 121 New Episode Tomo                                                                          150                                
PGRFAMCHA130801075421075521000100MV Disney (HD) TBM - Falling For Ya (w BTS L3) (Ju                                                                     60685120CC                              
PROFAMCHA130801075521075606000045A&A Episodic 226 (HD) New Episode Tomorrow Night @                                                                          150                                
PROFAMCHA130801075606075656000050Walt Disney Studios Home Entertainment                                                                                      150                                
PRCFAMCHA130801075656075730000034Stunt Shake It Up Hosted (HD) Friday Afternoon sta                                                                          150                                
PROFAMCHA130801075730075804000034SLOD (HD) SS Tipton - Coming Up Next (Apr2013)                                                                              150                                
PROFAMCHA13080107580407584900004520th Century Fox                                                                                                            150                                
PRCFAMCHA130801075849075934000045Toy Story 2 (HD) Premieres Saturday Night @ 6 (Jul                                                                          150                                
PRCFAMCHA130801075934075952000018Family Bumper Flex (HD) Flex ID - ANT Farm (:16-:2                                                                          150                                
PGRFAMCHA130801075952082227002235The Suite Life on Deck                            EP: 02                                                               6068607BCC                              
PRCFAMCHA130801082227082312000045DXD Promo (HD) Planes Contest - In Theatres Aug 9                                                                           150                                
PROFAMCHA130801082312082402000050Lego                                                                                                                        150                                
PROFAMCHA130801082402082425000023Summer Shuffle SIU (HD) This Afternoon Starting @                                                                           150                                
PGRFAMCHA130801082425082712000247MV Non Disney (HD) Cody Simpson - Pretty Brown Eye                                                                     10615120CC                              
PROFAMCHA130801082712082742000030ANT Farm Episodic 307 (HD) New Episode Tomorrow Ni                                                                          150                                
PROFAMCHA130801082742082816000034SLOD (HD) SS Tipton - Coming Up Next (Apr2013)                                                                              150                                
PROFAMCHA13080108281608290600005020th Century Fox                                                                                                            150                                
PROFAMCHA130801082906082936000030GLC Episodic (HD) 414  New Episode Tomorrow Aft @                                                                           150                                
PRCFAMCHA130801082936082956000020Family Bumper (HD) - Wallpaper ID (Jan 2011)                                                                                150                                
PGRFAMCHA130801082956085230002234The Suite Life on Deck                            EP: 03                                                               6068807BCC                              
PRCFAMCHA130801085230085315000045BTS Concert Promo V3 (HD) Generic (July 25-Aug 11)                                                                          150                                
PGRFAMCHA130801085315085713000358MV Non Disney (HD) Victoria Duffield -Break My Hea                                                                     10615120CC                              
PRCFAMCHA130801085713085755000042Summer Shuffle Marathon (HD) Weekday Afternoons @                                                                           150                                
PROFAMCHA130801085755085810000015PSA CMF (HD) Canada on Screen (Nov2012) (3x per da                                                                          150                                
PRCFAMCHA130801085810085855000045Shake It Up Episodic (HD) 320 New Ep Tomorrow Nigh                                                                          150                                
PROFAMCHA130801085855085914000019WOWP (HD) Clip Bad Time - Coming Up Next (April 20                                                                          150                                
PROFAMCHA130801085914085944000030Jessie Episodic 220 (HD) New Episode Tomorrow Nigh                                                                          150                                
PRCFAMCHA130801085944085957000013Family Bumper (HD) - Drums ID (Jan 2011)                                                                                    150                                
PGRFAMCHA130801085957092230002233Disney Wizards of Waverly Place                   EP: 03                                                               6068607BCC                              
PROFAMCHA130801092230092254000024Summer Shuffle ANT Farm (HD) This Afternoon Starti                                                                          150                                
PGRFAMCHA130801092254092630000336MV Non Disney (HD) Tenille - Dear Heart (June9-Dec                                                                     10615120CC                              
PRCFAMCHA130801092630092700000030Web FOD 2012 Refresh (HD) Family.ca New Look (Apr2                                                                          150                                
PGRFAMCHA130801092700092902000202Olly Murs Interview (HD) (July14-Sept15)                                                                               10618120                                
PROFAMCHA130801092902092908000006WOWP (HD) ID - Jennifer Stone 1 "Coming Up Next" (                                                                          150                                
PROFAMCHA130801092908092950000042Stunt Flash Forward (HD) Tomorrow Afternoon Starti                                                                          150                                
PRCFAMCHA130801092950092959000009Family Bumper (HD) - Dragonflies ID (Jan 2011)                                                                              150                                
PGRFAMCHA130801092959095231002232Disney Wizards of Waverly Place                   EP: 25                                                               6068607BCC                              
PGRFAMCHA130801095231095401000130Phineas & Ferb Mission Marvel Trailer (HD) Prems A                                                                     60688120                                
PGRFAMCHA130801095401095516000115MV Disney (HD) TBM - Cruisin' For a Bruisin' (w BT                                                                     60685120CC                              
PROFAMCHA130801095516095543000027Dog With A Blog Episodic (HD) 121 New Episode Tomo                                                                          150                                
PROFAMCHA130801095543095713000130ME: The Smurfs 2 (HD)  - Story 1 - Now Playing (Ju                                                                          150                                
PRCFAMCHA130801095713095735000022Game Change Friday August Promo (HD) Family.ca (Ju                                                                          150                                
PROFAMCHA130801095735095820000045A&A Episodic 226 (HD) New Episode Tomorrow Night @                                                                          150                                
PROFAMCHA130801095820095853000033ANT Farm (HD) Refresh - Coming Up Next (Jun2013)                                                                            150                                
PRCFAMCHA130801095853095938000045Toy Story 2 (HD) Premieres Saturday Night @ 6 (Jul                                                                          150                                
PRCFAMCHA130801095938095955000017Family Bumper Flex (HD) Flex ID - Jessie ID (:15-:                                                                          150                                
PGRFAMCHA130801095955102229002234Disney A.N.T. Farm                                EP: 02                                                               6068607BCC                              
PRCFAMCHA130801102229102303000034Stunt Shake It Up Hosted (HD) Friday Afternoon sta                                                                          150                                
PGRFAMCHA130801102303102653000350MV BTS 2013 (HD) Eleven Past One-The World Is Ours                                                                     70685120CC                              
PROFAMCHA130801102653102719000026Web DWAB @ family.ca (HD) Play Games at family.ca                                                                           150                                
PGRFAMCHA130801102719102849000130MV Disney (HD) TBM - Like Me (w BTS L3) (July 22-A                                                                     60685120CC                              
PROFAMCHA130801102849102922000033ANT Farm (HD) Refresh - Coming Up Next (Jun2013)                                                                            150                                
PROFAMCHA130801102922102952000030GLC Episodic (HD) 414  New Episode Tomorrow Aft @                                                                           150                                
PRCFAMCHA130801102952103000000008Family Bumper (HD) - Origami ID (Jan 2011)                                                                                  150                                
PGRFAMCHA130801103000105233002233Disney A.N.T. Farm                                EP: 03                                                               6068607BCC                              
PROFAMCHA130801105233105303000030ANT Farm Episodic 307 (HD) New Episode Tomorrow Ni                                                                          150                                
PROFAMCHA130801105303105353000050Lego                                                                                                                        150                                
PROFAMCHA130801105353105433000040DXD Promo (HD) West 49 LRN2SK Tour Promo - Disneyx                                                                          150                                
PGRFAMCHA130801105433105749000316MV Non Disney (HD) Anastasia A - My Love (May29-No                                                                     10615120CC                              
PROFAMCHA130801105749105819000030Jessie Episodic 220 (HD) New Episode Tomorrow Nigh                                                                          150                                
PROFAMCHA130801105819105835000016Shake It Up (HD) Refresh CD - Coming Up Next (Apri                                                                          150                                
PROFAMCHA130801105835105905000030Target                                                                                                                      150                                
PROFAMCHA130801105905105948000043Mickey Mouse Shorts Promo (HD) Continues Tomorrow                                                                           150                                
PRCFAMCHA130801105948110003000015Family Bumper (HD) - Hot Potato ID (Jan 2011)                                                                               150                                
PGRFAMCHA130801110003112322002319Disney Shake It Up                                EP: 10                                                               6068707BCC                              
PRCFAMCHA130801112322112407000045DXD Promo (HD) Planes Contest - In Theatres Aug 9                                                                           150                                
PROFAMCHA130801112407112457000050Lego                                                                                                                        150                                
PRCFAMCHA130801112457112539000042Summer Shuffle Marathon (HD) Weekday Afternoons @                                                                           150                                
PGRFAMCHA130801112539112639000100MV Disney (HD) TBM - Falling For Ya (w BTS L3) (Ju                                                                     60685120CC                              
PRCFAMCHA130801112639112724000045Austin & Ally (HD) Pitch Perfect - New Episode Fri                                                                          150                                
PROFAMCHA130801112724112754000030Shake It Up (HD) Flynn Sell - Coming Up Next (Jun2                                                                          150                                
PROFAMCHA130801112754112819000025D-JR Promo - JATNP - Get more on the channel REV (                                                                          150                                
PROFAMCHA13080111281911290400004520th Century Fox                                                                                                            150                                
PROFAMCHA130801112904112946000042Stunt Flash Forward (HD) Tomorrow Afternoon Starti                                                                          150                                
PRCFAMCHA130801112946113004000018Family Bumper (HD) - Dominoes ID (Jan 2011)                                                                                 150                                
PGRFAMCHA130801113004115238002234Disney Shake It Up                                EP: 04                                                               6068707BCC                              
PRCFAMCHA130801115238115323000045Shake It Up Episodic (HD) 320 New Ep Tomorrow Nigh                                                                          150                                
PROFAMCHA130801115323115423000100Sony Pictures                                                                                                               150                                
PGRFAMCHA130801115423115553000130Phineas & Ferb Mission Marvel Trailer (HD) Prems A                                                                     60688120                                
PRCFAMCHA130801115553115638000045Toy Story 2 (HD) Premieres Saturday Night @ 6 (Jul                                                                          150                                
PGRFAMCHA130801115638115753000115MV Disney (HD) TBM - Meant To Be (w BTS L3) (July                                                                      60685120CC                              
PRCFAMCHA130801115753115838000045Austin & Ally (HD) Pitch Perfect - Coming Up Next                                                                           150                                
PROFAMCHA130801115838115928000050Lego                                                                                                                        150                                
PROFAMCHA130801115928115955000027Dog With A Blog Episodic (HD) 121 New Episode Tomo                                                                          150                                
PRCFAMCHA130801115955120008000013Family Bumper (HD) - Karate ID (Jan 2011)                                                                                   150                                
PGRFAMCHA130801120008122242002234Disney Austin & Ally                              EP: 17                                                               6068807BCC                              
PRCFAMCHA130801122242122327000045BTS Concert Promo V3 (HD) Generic (July 25-Aug 11)                                                                          150                                
PROFAMCHA130801122327122417000050Universal Music                                                                                                             150                                
PROFAMCHA130801122417122441000024Summer Shuffle ANT Farm (HD) This Afternoon Starti                                                                          150                                
PGRFAMCHA130801122441122643000202Olly Murs Interview (HD) (July14-Sept15)                                                                               10618120                                
PRCFAMCHA130801122643122713000030Web FOD 2012 Refresh (HD) Family.ca New Look (Apr2                                                                          150                                
PROFAMCHA130801122713122743000030D-JR Promo - Little Einsteins - Get more on D-JR t                                                                          150                                
PRCFAMCHA130801122743122828000045Austin & Ally (HD) Pitch Perfect - Coming Up Next                                                                           150                                
PROFAMCHA130801122828122918000050Mattel                                                                                                                      150                                
PROFAMCHA130801122918122948000030GLC Episodic (HD) 414  New Episode Tomorrow Aft @                                                                           150                                
PRCFAMCHA130801122948123008000020Family Bumper (HD) - Wallpaper ID (Jan 2011)                                                                                150                                
PGRFAMCHA130801123008125312002304Disney Austin & Ally                              EP: 09                                                               6068807BCC                              
PROFAMCHA130801125312125357000045A&A Episodic 226 (HD) New Episode Tomorrow Night @                                                                          150                                
PROFAMCHA130801125357125447000050Universal Music                                                                                                             150                                
PRCFAMCHA130801125447125532000045Shake It Up Episodic (HD) 320 New Ep Tomorrow Nigh                                                                          150                                
PGRFAMCHA130801125532125819000247MV Non Disney (HD) Cody Simpson - Pretty Brown Eye                                                                     10615120CC                              
PROFAMCHA130801125819125849000030Jessie (HD) Happy Place - Coming Up Next (Apr2013)                                                                          150                                
PROFAMCHA130801125849125929000040Kellogg's                                                                                                                   150                                
PROFAMCHA130801125929125959000030ANT Farm Episodic 307 (HD) New Episode Tomorrow Ni                                                                          150                                
PRCFAMCHA130801125959130012000013Family Bumper (HD) - Drums ID (Jan 2011)                                                                                    150                                
PGRFAMCHA130801130012132247002235Disney Jessie                                     EP: 15                                                               6068807BCC                              
PROFAMCHA130801132247132329000042Stunt Flash Forward (HD) Tomorrow Afternoon Starti                                                                          150                                
PROFAMCHA13080113232913241900005020th Century Fox                                                                                                            150                                
PRCFAMCHA130801132419132426000007Selena Gomez Station ID (HD) You're Watching Famil                                                                          150                                
PGRFAMCHA130801132426132754000328MV Non Disney (HD) Mandia Nantsios - One Last Time                                                                     10615120CC                              
PROFAMCHA130801132754132836000042D-JR Promo - Bananas in Pajamas - Get more on the                                                                           150                                
PROFAMCHA130801132836132851000015Jessie (HD) Refresh CD - Coming Up Next (Apr2013)                                                                           150                                
PROFAMCHA130801132851132941000050Universal Music                                                                                                             150                                
PRCFAMCHA130801132941133003000022Game Change Friday August Promo (HD) Family.ca (Ju                                                                          150                                
PRCFAMCHA130801133003133012000009Family Bumper (HD) - Dragonflies ID (Jan 2011)                                                                              150                                
PGRFAMCHA130801133012135317002305Disney Jessie                                     EP: 21                                                               6068807BCC                              
PROFAMCHA130801135317135347000030Jessie Episodic 220 (HD) New Episode Tomorrow Nigh                                                                          150                                
PROFAMCHA130801135347135437000050Lego                                                                                                                        150                                
PROFAMCHA130801135437135501000024Summer Shuffle ANT Farm (HD) This Afternoon Starti                                                                          150                                
PROFAMCHA130801135501135528000027Dog With A Blog Episodic (HD) 121 New Episode Tomo                                                                          150                                
PROFAMCHA130801135528135541000013Olly Murs ID (HD) You'r Watching Family (July14-Se                                                                          150                                
PROFAMCHA130801135541135624000043Mickey Mouse Shorts Promo (HD) Continues Tomorrow                                                                           150                                
PRCFAMCHA130801135624135709000045Toy Story 2 (HD) Premieres Saturday Night @ 6 (Jul                                                                          150                                
PROFAMCHA130801135709135736000027GLC (HD) Promo 3 - Coming Up Next (Apr2013)                                                                                 150                                
PROFAMCHA130801135736135826000050Mattel                                                                                                                      150                                
PGRFAMCHA130801135826135956000130Phineas & Ferb Mission Marvel Trailer (HD) Prems A                                                                     60688120                                
PRCFAMCHA130801135956140016000020Family Bumper (HD) - Wallpaper ID (Jan 2011)                                                                                150                                
PGRFAMCHA130801140016142248002232Disney Good Luck Charlie                          EP: 09                                                               6068807BCC                              
PRCFAMCHA130801142248142333000045DXD Promo (HD) Planes Contest - In Theatres Aug 9                                                                           150                                
PROFAMCHA130801142333142423000050Universal Music                                                                                                             150                                
PRCFAMCHA130801142423142505000042Summer Shuffle Marathon (HD) Weekday Afternoons @                                                                           150                                
PGRFAMCHA130801142505142841000336MV BTS 2013 (HD) R5 - Loud (Go to Family.ca for De                                                                     70685120CC                              
PROFAMCHA130801142841142923000042D-JR Promo - Sofia The First: A Princess Thing - G                                                                          150                                
PROFAMCHA130801142923142928000005GLC (HD) ID - Bradley Perry 1 "Coming Up Next" (bo                                                                          150                                
PRCFAMCHA130801142928143002000034Stunt Shake It Up Hosted (HD) Friday Afternoon sta                                                                          150                                
PRCFAMCHA130801143002143015000013Family Bumper (HD) Summer Flex ID - Park (:10-:14)                                                                          150                                
PGRFAMCHA130801143015145307002252Good Luck Charlie                                 EP: 01                                                               6068707BCC                              
PROFAMCHA130801145307145337000030GLC Episodic (HD) 414  New Episode Tomorrow Aft @                                                                           150                                
PROFAMCHA130801145337145417000040Kellogg's                                                                                                                   150                                
PRCFAMCHA130801145417145502000045Shake It Up Episodic (HD) 320 New Ep Tomorrow Nigh                                                                          150                                
PROFAMCHA130801145502145632000130ME: The Smurfs 2 (HD)  - Story 1 - Now Playing (Ju                                                                          150                                
PROFAMCHA130801145632145702000030Jessie Episodic 220 (HD) New Episode Tomorrow Nigh                                                                          150                                
PROFAMCHA130801145702145752000050Walt Disney Studios Home Entertainment                                                                                      150                                
PROFAMCHA130801145752145816000024Summer Shuffle ANT Farm (HD) Starting Next (Jun30-                                                                          150                                
PROFAMCHA130801145816145916000100Sony Pictures                                                                                                               150                                
PROFAMCHA130801145916150001000045A&A Episodic 226 (HD) New Episode Tomorrow Night @                                                                          150                                
PRCFAMCHA130801150001150013000012Family Bumper Flex (HD) Flex ID - WUW (May2012) (:                                                                          150                                
PGRFAMCHA130801150013152402002349Disney A.N.T. Farm                                EP: 06                                                               6068607BCC                              
PROFAMCHA130801152402152430000028ANT Stravaganza Ints (HD) Physical Challenges Host                                                                          150                                
PROFAMCHA130801152430152510000040DXD Promo (HD) West 49 LRN2SK Tour Promo - Disneyx                                                                          150                                
PROFAMCHA130801152510152600000050Walt Disney Pictures                                                                                                        150                                
PROFAMCHA130801152600152626000026Web DWAB @ family.ca (HD) Play Games at family.ca                                                                           150                                
PROFAMCHA130801152626152716000050Walt Disney Studios Home Entertainment                                                                                      150                                
PRCFAMCHA130801152716152801000045BTS Concert Promo V3 (HD) Generic (July 25-Aug 11)                                                                          150                                
PROFAMCHA130801152801152834000033ANT Farm (HD) Refresh - Coming Up Next (Jun2013)                                                                            150                                
PROFAMCHA13080115283415291900004520th Century Fox                                                                                                            150                                
PROFAMCHA130801152919153001000042Stunt Flash Forward (HD) Tomorrow Afternoon Starti                                                                          150                                
PRCFAMCHA130801153001153014000013Family Bumper (HD) - Karate ID (Jan 2011)                                                                                   150                                
PGRFAMCHA130801153014155247002233Disney A.N.T. Farm                                EP: 14                                                               6068607BCC                              
PROFAMCHA130801155247155347000100ANT Stravaganza Ints (HD) Physical Challenges Wrap                                                                          150                                
PGRFAMCHA130801155347155517000130Phineas & Ferb Mission Marvel Trailer (HD) Prems A                                                                     60688120                                
PROFAMCHA130801155517155607000050Lego                                                                                                                        150                                
PROFAMCHA130801155607155630000023Summer Shuffle SIU (HD) This Afternoon Starting @                                                                           150                                
PROFAMCHA130801155630155657000027Dog With A Blog Episodic (HD) 121 New Episode Tomo                                                                          150                                
PROFAMCHA13080115565715574700005020th Century Fox                                                                                                            150                                
PRCFAMCHA130801155747155817000030Wizards Return: Alex vs Alex (HD) CD - Saturday @                                                                           150                                
PROFAMCHA130801155817155832000015ANT Farm (HD) Refresh CT - Coming Up Next (April 2                                                                          150                                
PROFAMCHA130801155832155922000050Universal Music                                                                                                             150                                
PRCFAMCHA130801155922160007000045Toy Story 2 (HD) Premieres Saturday Night @ 6 (Jul                                                                          150                                
PRCFAMCHA130801160007160016000009Family Bumper (HD) - Dragonflies ID (Jan 2011)                                                                              150                                
PGRFAMCHA130801160016162319002303Disney A.N.T. Farm                                EP: 18                                                               6068607BCC                              
PROFAMCHA130801162319162418000059ANT Stravaganza Ints (HD) Physical Challenges Wrap                                                                          150                                
PROFAMCHA130801162418162503000045A&A Episodic 226 (HD) New Episode Tomorrow Night @                                                                          150                                
PROFAMCHA130801162503162553000050Mattel                                                                                                                      150                                
PRCFAMCHA130801162553162615000022Game Change Friday August Promo (HD) Family.ca (Ju                                                                          150                                
PROFAMCHA130801162615162730000115MV Disney (HD) Phineas & Ferb - MV OWCA - Generic                                                                           150CC                              
PROFAMCHA130801162730162749000019Big Ticket Summer 2013 ID (HD) Veronica - Go to Fa                                                                          150                                
PROFAMCHA130801162749162839000050Universal Music                                                                                                             150                                
PROFAMCHA130801162839162854000015ANT Farm (HD) Refresh CT - Coming Up Next (April 2                                                                          150                                
PROFAMCHA13080116285416293900004520th Century Fox                                                                                                            150                                
PROFAMCHA130801162939163009000030Jessie Episodic 220 (HD) New Episode Tomorrow Nigh                                                                          150                                
PRCFAMCHA130801163009163018000009Family Bumper (HD) - Dragonflies ID (Jan 2011)                                                                              150                                
PGRFAMCHA130801163018172051005033Disney A.N.T. Farm                                EP: 99                                                               6068607BCC                              
PROFAMCHA130801172051172150000059ANT Stravaganza Ints (HD) Physical Challenges Wrap                                                                          150                                
PROFAMCHA130801172150172232000042Stunt Flash Forward (HD) Tomorrow Afternoon Starti                                                                          150                                
PROFAMCHA130801172232172322000050Walt Disney Studios Home Entertainment                                                                                      150                                
PRCFAMCHA130801172322172407000045DXD Promo (HD) Planes Contest - In Theatres Aug 9                                                                           150                                
PGRFAMCHA130801172407172654000247MV Non Disney (HD) Cody Simpson - Pretty Brown Eye                                                                     10615120CC                              
PROFAMCHA130801172654172724000030GLC Episodic (HD) 414  New Episode Tomorrow Aft @                                                                           150                                
PROFAMCHA130801172724172824000100Sony Pictures                                                                                                               150                                
PROFAMCHA130801172824172848000024Summer Shuffle ANT Farm (HD) Continues Next (Jun30                                                                          150                                
PROFAMCHA130801172848172918000030Target                                                                                                                      150                                
PROFAMCHA130801172918173001000043Mickey Mouse Shorts Promo (HD) Continues Tomorrow                                                                           150                                
PRCFAMCHA130801173001173018000017Family Bumper Flex (HD) Flex ID - Jessie ID (:15-:                                                                          150                                
PGRFAMCHA130801173018175252002234Disney A.N.T. Farm                                EP: 02                                                               6068607BCC                              
PROFAMCHA130801175252175305000013ANT Stravaganza Ints (HD) Physical Challenges Clos                                                                          150                                
PROFAMCHA130801175305175335000030ANT Farm Episodic 307 (HD) New Episode Tomorrow Ni                                                                          150                                
PROFAMCHA130801175335175425000050Universal Music                                                                                                             150                                
PROFAMCHA130801175425175455000030Shake It Up (HD) Flynn Sell - New Episode Friday N                                                                          150                                
PRCFAMCHA130801175455175548000053Robots (HD) Friday Night @ 8:00 (Jul2013)                                                                                   150                                
PROFAMCHA130801175548175639000051Gravity Falls (HD) Refresh - Weekend Afternoons @                                                                           150                                
PROFAMCHA130801175639175729000050Walt Disney Studios Home Entertainment                                                                                      150                                
PROFAMCHA130801175729175752000023Summer Shuffle SIU (HD) Starting Next (Jun30-Aug30                                                                          150                                
PROFAMCHA13080117575217583700004520th Century Fox                                                                                                            150                                
PGRFAMCHA130801175837180007000130Phineas & Ferb Mission Marvel Trailer (HD) Prems A                                                                     60688120                                
PRCFAMCHA130801180007180021000014Family Bumper (HD) - Horseshoe ID (Jan 2011)                                                                                150                                
PGRFAMCHA130801180021182354002333Disney Shake It Up                                EP: 11                                                               6068707BCC                              
PROFAMCHA130801182354182421000027Dog With A Blog Episodic (HD) 121 New Episode Tomo                                                                          150                                
PROFAMCHA130801182421182511000050Walt Disney Pictures                                                                                                        150                                
PROFAMCHA130801182511182539000028Good Luck Charlie (HD) Promo 4 - New Episode Tomor                                                                          150                                
PGRFAMCHA130801182539182700000121Olly Murs Get To Know (HD) (July14-Sept15)                                                                             10618120                                
PRCFAMCHA130801182700182730000030Wizards Return: Alex vs Alex (HD) CD - Saturday @                                                                           150                                
PROFAMCHA130801182730182820000050Walt Disney Studios Home Entertainment                                                                                      150                                
PROFAMCHA130801182820182836000016Shake It Up (HD) Refresh CD - Coming Up Next (Apri                                                                          150                                
PROFAMCHA130801182836182926000050Lego                                                                                                                        150                                
PROFAMCHA130801182926183006000040DXD Promo (HD) West 49 LRN2SK Tour Promo - Disneyx                                                                          150                                
PRCFAMCHA130801183006183017000011Family Bumper (HD) Summer Flex ID - Park (:10-:14)                                                                          150                                
PGRFAMCHA130801183017185322002305Disney Shake It Up                                EP: 15                                                               6068707BCC                              
PROFAMCHA130801185322185407000045A&A Episodic 226 (HD) New Episode Tomorrow Night @                                                                          150                                
PROFAMCHA130801185407185457000050Universal Music                                                                                                             150                                
PRCFAMCHA130801185457185542000045BTS Concert Promo V3 (HD) Generic (July 25-Aug 11)                                                                          150                                
PGRFAMCHA130801185542185918000336MV Non Disney (HD) Tenille - Dear Heart (June9-Dec                                                                     10615120CC                              
PROFAMCHA130801185918185941000023Summer Shuffle SIU (HD) Continues Next (Jun30-Aug3                                                                          150                                
PROFAMCHA130801185941190011000030Jessie Episodic 220 (HD) New Episode Tomorrow Nigh                                                                          150                                
PRCFAMCHA130801190011190020000009Family Bumper (HD) BTS Waterslide (Jul2013)                                                                                 150                                
PGRFAMCHA130801190020192241002221Disney Shake It Up                                EP: 06                                                               6068707BCC                              
PROFAMCHA130801192241192323000042Stunt Flash Forward (HD) Tomorrow Afternoon Starti                                                                          150                                
PROFAMCHA130801192323192413000050Universal Music                                                                                                             150                                
PRCFAMCHA130801192413192436000023Gravity Falls (HD) Comedy Sell - Weekend Afternoon                                                                          150                                
PGRFAMCHA130801192436192758000322MV Non Disney (HD) Ish - Rollin' (Jul12-Jan12)                                                                         10615120CC                              
PROFAMCHA130801192758192824000026Web DWAB @ family.ca (HD) Play Games at family.ca                                                                           150                                
PROFAMCHA130801192824192858000034Tinker Bell & The Lost Treasure (HD) Sunday @ Noon                                                                          150                                
PROFAMCHA130801192858192928000030Shake It Up (HD) Flynn Sell - Coming Up Next (Jun2                                                                          150                                
PROFAMCHA130801192928192958000030GLC Episodic (HD) 414  New Episode Tomorrow Aft @                                                                           150                                
PRCFAMCHA130801192958193015000017Family Bumper Flex (HD) Flex ID - ANT Farm (:16-:2                                                                          150                                
PGRFAMCHA130801193015195250002235Disney Shake It Up                                EP: 04                                                               6068707BCC                              
PGRFAMCHA130801195250195420000130Phineas & Ferb Mission Marvel Trailer (HD) Prems A                                                                     60688120                                
PROFAMCHA130801195420195450000030ANT Farm Episodic 307 (HD) New Episode Tomorrow Ni                                                                          150                                
PROFAMCHA130801195450195540000050Universal Music                                                                                                             150                                
PRCFAMCHA130801195540195610000030Web FOD 2012 Refresh (HD) Family.ca New Look (Apr2                                                                          150                                
PROFAMCHA130801195610195629000019Big Ticket Summer 2013 ID (HD) Veronica - Go to Fa                                                                          150                                
PROFAMCHA130801195629195729000100Sony Pictures                                                                                                               150                                
PRCFAMCHA130801195729195806000037Selena Gomez Get To Know (HD) (July5-Sept5)                                                                                 150                                
PROFAMCHA130801195806195829000023Summer Shuffle SIU (HD) Continues Next (Jun30-Aug3                                                                          150                                
PROFAMCHA130801195829195919000050Warner Music Canada                                                                                                         150                                
PRCFAMCHA130801195919200004000045Toy Story 2 (HD) Premieres Saturday Night @ 6 (Jul                                                                          150                                
PRCFAMCHA130801200004200019000015Family Bumper (HD) - Hot Potato ID (Jan 2011)                                                                               150                                
PGRFAMCHA130801200019202354002335Disney Shake It Up                                EP: 23                                                               6068707BCC                              
PRCFAMCHA130801202354202439000045DXD Promo (HD) Planes Contest - In Theatres Aug 9                                                                           150                                
PROFAMCHA13080120243920252900005020th Century Fox                                                                                                            150                                
PROFAMCHA130801202529202556000027Dog With A Blog Episodic (HD) 121 New Episode Tomo                                                                          150                                
PGRFAMCHA130801202556202711000115MV Disney (HD) TBM - Cruisin' For a Bruisin' (w BT                                                                     60685120CC                              
PRCFAMCHA130801202711202733000022Game Change Friday August Promo (HD) Family.ca (Ju                                                                          150                                
PROFAMCHA13080120273320281800004520th Century Fox                                                                                                            150                                
PROFAMCHA130801202818202841000023Summer Shuffle SIU (HD) Continues Next (Jun30-Aug3                                                                          150                                
PROFAMCHA130801202841202921000040Kellogg's                                                                                                                   150                                
PROFAMCHA130801202921203004000043Mickey Mouse Shorts Promo (HD) Continues Tomorrow                                                                           150                                
PRCFAMCHA130801203004203024000020Family Bumper (HD) - Wallpaper ID (Jan 2011)                                                                                150                                
PGRFAMCHA130801203024205329002305Disney Shake It Up                                EP: 13                                                               6068707BCC                              
PRCFAMCHA130801205329205403000034Stunt Shake It Up Hosted (HD) Friday Afternoon sta                                                                          150                                
PROFAMCHA130801205403205453000050Walt Disney Studios Home Entertainment                                                                                      150                                
PROFAMCHA130801205453205515000022Summer Shuffle GLC 1 (HD) Tomorrow Afternoon Start                                                                          150                                
PGRFAMCHA130801205515205823000308MV BTS 2013 (HD) Victoria D-They Dont KnowAboutUs(                                                                     70685120CC                              
PROFAMCHA130801205823205908000045A&A Episodic 226 (HD) New Episode Tomorrow Night @                                                                          150                                
PROFAMCHA130801205908205946000038Wingin It (HD) Refresh Promo - Coming Up Next (Apr                                                                          150                                
PROFAMCHA130801205946210016000030Jessie Episodic 220 (HD) New Episode Tomorrow Nigh                                                                          150                                
PRCFAMCHA130801210016210024000008Family Bumper (HD) - Origami ID (Jan 2011)                                                                                  150                                
PRCFAMCHA130801210024210038000014Descriptive Video Slate (HD) (Apr2013)                                                                                      150                                
PGRFAMCHA130801210038212308002230Wingin' It                                        EP: 12                                                        C32727 1065607ACD                              
PROFAMCHA130801212308212348000040DXD Promo (HD) West 49 LRN2SK Tour Promo - Disneyx                                                                          150                                
PROFAMCHA130801212348212438000050Universal Music                                                                                                             150                                
PROFAMCHA130801212438212453000015PSA CMF (HD) Canada on Screen (Nov2012) (3x per da                                                                          150                                
PGRFAMCHA130801212453212648000155Selena Gomez Interview (HD) #1 - Album Available J                                                                     10618120                                
PROFAMCHA130801212648212740000052D-JR Promo - Doc McStuffins - Get more on the chan                                                                          150                                
PROFAMCHA130801212740212818000038WUW (HD) Extra Extra Refresh - Coming Up Next (May                                                                          150                                
PROFAMCHA130801212818212908000050Lego                                                                                                                        150                                
PROFAMCHA130801212908212950000042Stunt Flash Forward (HD) Tomorrow Afternoon Starti                                                                          150                                
PRCFAMCHA130801212950213018000028Family Bumper Flex (HD) Flex ID - Austin & Ally (F                                                                          150                                
PGRFAMCHA130801213018215321002303What's Up, Warthogs!                              EP: 18                                                        C32738 1065607BCC                              
PGRFAMCHA130801215321215451000130Phineas & Ferb Mission Marvel Trailer (HD) Prems A                                                                     60688120                                
PROFAMCHA130801215451215541000050Lego                                                                                                                        150                                
PRCFAMCHA130801215541215626000045Shake It Up Episodic (HD) 320 New Ep Tomorrow Nigh                                                                          150                                
PGRFAMCHA130801215626215726000100MV Disney (HD) TBM - Falling For Ya (w BTS L3) (Ju                                                                     60685120CC                              
PROFAMCHA130801215726215756000030ANT Farm Episodic 307 (HD) New Episode Tomorrow Ni                                                                          150                                
PROFAMCHA130801215756215926000130ME: The Smurfs 2 (HD)  - Story 1 - Now Playing (Ju                                                                          150                                
PRCFAMCHA130801215926220011000045Toy Story 2 (HD) Premieres Saturday Night @ 6 (Jul                                                                          150                                
PRCFAMCHA130801220011220024000013Family Bumper (HD) - Drums ID (Jan 2011)                                                                                    150                                
PGRFAMCHA130801220024222259002235Lizzie McGuire                                    EP: 23                                                               6068607BCC                              
PROFAMCHA130801222259222329000030GLC Episodic (HD) 414  New Episode Tomorrow Aft @                                                                           150                                
PROFAMCHA130801222329222409000040Kellogg's                                                                                                                   150                                
PRCFAMCHA130801222409222454000045BTS Concert Promo V3 (HD) Generic (July 25-Aug 11)                                                                          150                                
PGRFAMCHA130801222454222810000316MV Non Disney (HD) Anastasia A - My Love (May29-No                                                                     10615120CC                              
PROFAMCHA130801222810222840000030D-JR Promo - Henry Hugglemonster - Get more HH  on                                                                          150                                
PROFAMCHA130801222840222930000050Universal Music                                                                                                             150                                
PRCFAMCHA130801222930223012000042Summer Shuffle Marathon (HD) Weekday Afternoons @                                                                           150                                
PRCFAMCHA130801223012223025000013Family Bumper (HD) - Karate ID (Jan 2011)                                                                                   150                                
ID FAMCHA130801223025223030000005Popcorn Pix Magic of Disney Bumper (HD) (Apr2013)                                                                           150                                
PGRFAMCHA130801223030225308002238That's So Raven                                   EPS # 1-059                                                          6068607BCC                              
PROFAMCHA130801225308225353000045A&A Episodic 226 (HD) New Episode Tomorrow Night @                                                                          150                                
PROFAMCHA130801225353225443000050Universal Music                                                                                                             150                                
PROFAMCHA130801225443225505000022Summer Shuffle GLC 1 (HD) Tomorrow Afternoon Start                                                                          150                                
PGRFAMCHA130801225505225855000350MV BTS 2013 (HD) Eleven Past One-The World Is Ours                                                                     70685120CC                              
PROFAMCHA130801225855225922000027Dog With A Blog Episodic (HD) 121 New Episode Tomo                                                                          150                                
PROFAMCHA130801225922225941000019Big Ticket Summer 2013 ID (HD) Veronica - Go to Fa                                                                          150                                
PROFAMCHA130801225941230011000030Jessie Episodic 220 (HD) New Episode Tomorrow Nigh                                                                          150                                
PRCFAMCHA130801230011230023000012Family Bumper Flex (HD) Flex ID - Wingin It (Apr20                                                                          150                                
PGRFAMCHA130801230023232301002238Disney Cory in the House                          EP: 13                                                               6068607BCC                              
PROFAMCHA130801232301232343000042Stunt Flash Forward (HD) Tomorrow Afternoon Starti                                                                          150                                
PROFAMCHA130801232343232433000050Lego                                                                                                                        150                                
PRCFAMCHA130801232433232518000045DXD Promo (HD) Planes Contest - In Theatres Aug 9                                                                           150                                
PGRFAMCHA130801232518232648000130MV Disney (HD) TBM - Surf Crazy (w BTS L3) (July 2                                                                     60685120CC                              
PROFAMCHA130801232648232731000043Mickey Mouse Shorts Promo (HD) Continues Tomorrow                                                                           150                                
PROFAMCHA130801232731232822000051Gravity Falls (HD) Refresh - Weekend Afternoons @                                                                           150                                
PROFAMCHA130801232822232847000025D-JR Promo - JATNP - Get more on the channel REV (                                                                          150                                
PROFAMCHA130801232847232937000050Universal Music                                                                                                             150                                
PROFAMCHA130801232937233007000030ANT Farm Episodic 307 (HD) New Episode Tomorrow Ni                                                                          150                                
PRCFAMCHA130801233007233019000012Family Bumper Flex (HD) Flex ID - WUW (May2012) (:                                                                          150                                
PGRFAMCHA130801233019235430002411The Elephant Princess                             EP: 22                                                               7068507ACC                              
PGRFAMCHA130801235430235600000130Phineas & Ferb Mission Marvel Trailer (HD) Prems A                                                                     60688120                                
PGRFAMCHA130801235600235721000121Olly Murs Get To Know (HD) (July14-Sept15)                                                                             10618120                                
PRCFAMCHA130801235721235803000042Summer Shuffle Marathon (HD) Weekday Afternoons @                                                                           150                                
PROFAMCHA130801235803235833000030GLC Episodic (HD) 414  New Episode Tomorrow Aft @                                                                           150                                
PRCFAMCHA130801235833235918000045Toy Story 2 (HD) Premieres Saturday Night @ 6 (Jul                                                                          150                                
PRCFAMCHA130801235918000003000045Shake It Up Episodic (HD) 320 New Ep Tomorrow Nigh                                                                          150                                
PRCFAMCHA130801000003000015000012Family Bumper Flex (HD) Flex ID - Really Me Chest                                                                           150                                
PGRFAMCHA130801000015002253002238Latest Buzz II                                    EP: 21                                                        C29635 1065607BCC                              
PROFAMCHA130801002253002333000040DXD Promo (HD) West 49 LRN2SK Tour Promo - Disneyx                                                                          150                                
PGRFAMCHA130801002333002731000358MV Non Disney (HD) Victoria Duffield -Break My Hea                                                                     10615120CC                              
PRCFAMCHA130801002731002753000022Game Change Friday August Promo (HD) Family.ca (Ju                                                                          150                                
PROFAMCHA130801002753002808000015PSA CMF (HD) Canada on Screen (Nov2012) (3x per da                                                                          150                                
PROFAMCHA130801002808002920000112D-JR Promo - Sofia The First: BTS - Get More on D-                                                                          150                                
PRCFAMCHA130801002920003005000045Shake It Up Episodic (HD) 320 New Ep Tomorrow Nigh                                                                          150                                
PRCFAMCHA130801003005003018000013Family Bumper (HD) - Drums ID (Jan 2011)                                                                                    150                                
PGRFAMCHA130801003018005251002233Overruled!                                        EP: 01                                                        C28762 1065607ACC                              
PROFAMCHA130801005251005333000042Stunt Flash Forward (HD) Tomorrow Afternoon Starti                                                                          150                                
PGRFAMCHA130801005333005701000328MV Non Disney (HD) Mandia Nantsios - One Last Time                                                                     10615120CC                              
PROFAMCHA130801005701005723000022Summer Shuffle GLC 1 (HD) Tomorrow Afternoon Start                                                                          150                                
PGRFAMCHA130801005723005823000100MV Disney (HD) TBM - Falling For Ya (w BTS L3) (Ju                                                                     60685120CC                              
PROFAMCHA130801005823005850000027Dog With A Blog Episodic (HD) 121 New Episode Tomo                                                                          150                                
PROFAMCHA130801005850005935000045A&A Episodic 226 (HD) New Episode Tomorrow Night @                                                                          150                                
PROFAMCHA130801005935010005000030Jessie Episodic 220 (HD) New Episode Tomorrow Nigh                                                                          150                                
PRCFAMCHA130801010005010020000015Family Bumper (HD) - Hot Potato ID (Jan 2011)                                                                               150                                
PRCFAMCHA130801010020010034000014Descriptive Video Slate (HD) (Apr2013)                                                                                      150                                
PGRFAMCHA130801010034012307002233DEBRA!                                            EP: 07                                                        C35763 1065607ACD                              
PRCFAMCHA130801012307012316000009Family Bumper (HD) - Dragonflies ID (Jan 2011)                                                                              150                                
PGRFAMCHA130801012316014504002148Disney JONAS L.A.                                 EP: 09                                                               6068707BCC                              
PRCFAMCHA130801014504014524000020Family Bumper (HD) - Wallpaper ID (Jan 2011)                                                                                150                                
ID FAMCHA130801014524014529000005Popcorn Pix Magic of Disney Bumper (HD) (Apr2013)                                                                           150                                
PGRFAMCHA130801014529020808002239Phil of the Future                                EPS # 17                                                             6068607BCD                              
PRCFAMCHA130801020808020836000028Family Bumper Flex (HD) Flex ID - Austin & Ally (F                                                                          150                                
PGRFAMCHA130801020836023305002429The Elephant Princess                             EP: 14                                                               7068507ACC                              
PRCFAMCHA130801023305023316000011Family Bumper Flex (HD) Flex ID - WUW (May2012) (:                                                                          150                                
PGRFAMCHA130801023316025546002230Life with Derek                                   EP: 06                                                        C23968A1065607BCC                              
PRCFAMCHA130801025546025555000009Family Bumper (HD) - Dragonflies ID (Jan 2011)                                                                              150                                
PGRFAMCHA130801025555031757002202Slugterra                                         EP: 14                                                        A33763 1065607ACC                              
PRCFAMCHA130801031757031809000012Family Bumper Flex (HD) Flex ID - Really Me Chest                                                                           150                                
PGRFAMCHA130801031809034040002231Overruled!                                        EP: 08                                                        C28762 1065607ACC                              
PRCFAMCHA130801034040034109000029Family Bumper Flex (HD) Flex ID - Austin & Ally (F                                                                          150                                
PGRFAMCHA130801034109040344002235The Latest Buzz                                   EP: 19                                                        C30362 1065607BCC                              
PRCFAMCHA130801040344040359000015Family Bumper (HD) Summer Flex ID - BTS Beach (:10                                                                          150                                
PGRFAMCHA130801040359042629002230Life with Derek                                   EP: 15                                                        C26822 1065607BCC                              
PROFAMCHA130801042629042713000044D-JR Promo - Summmer Morning Marathons - Weekdays                                                                           150                                
PROFAMCHA130801042713042728000015D-JR Promo - Sofia The First: Clip 3 - Get More We                                                                          150                                
PROFAMCHA130801042728042758000030D-JR - Standalone ID - Light Parade (May2011)                                                                               150                                
PROFAMCHA130801042758042858000100D-JR Promo - Tickety Toc - Racing The Clock - Get                                                                           150                                
PROFAMCHA130801042858042950000052D-JR Promo - Pirate and Princess Summer Stunt  - W                                                                          150                                
PROFAMCHA130801042950042959000009D-JR - Flex ID - Purple (:6-:10) (Feb2012)                                                                                  150                                
OFFFAMCHA130801042959043000000001OFF AIR                                                                                                                                                        
PGRFAMCHA130802043000045400002400Henry's World                                     EP: 15                                                        B81046 1065607ECC                              
PROFAMCHA130802045400045407000007D-JR Live Action ID - Franny's Feet - Coming Up (M                                                                          150                                
PROFAMCHA130802045407045432000025D-JR Live Action ID - #20 Calendar (May2012)                                                                                150                                
PROFAMCHA130802045432045524000052D-JR Promo - Pirate and Princess Summer Stunt  - W                                                                          150                                
PROFAMCHA130802045524045549000025D-JR Live Action ID - #44 Fold Towels (Sept2012)                                                                            150                                
PROFAMCHA130802045549045556000007D-JR Live Action ID - Franny's Feet - Now (May2012                                                                          150                                
PROFAMCHA130802045556045603000007D-JR - Flex ID - Green (:6-:10) (Feb2012)                                                                                   150                                
PGRFAMCHA130802045603051836002233Franny's Feet                                     EP: 44                                                        C31292 1065607ECC                              
PROFAMCHA130802051836051843000007D-JR Live Action ID - SWOBB - Coming Up (May2012)                                                                           150                                
PROFAMCHA130802051843051908000025D-JR Live Action ID - #29 Put Shoes On (Sept2012)                                                                           150                                
PROFAMCHA130802051908051938000030D-JR Promo - On demand online REVISED - D-JR.ca (M                                                                          150                                
PROFAMCHA130802051938052022000044D-JR Promo - Summmer Morning Marathons - Weekdays                                                                           150                                
PROFAMCHA130802052022052037000015D-JR Promo - Sofia The First: Clip 3 - Get More We                                                                          150                                
PROFAMCHA130802052037052102000025D-JR Live Action ID - #12 Feed Goldfish (May2012)                                                                           150                                
PROFAMCHA130802052102052109000007D-JR Live Action ID - SWOBB - Now (May2012)                                                                                 150                                
PROFAMCHA130802052109052120000011D-JR - Station ID (:11) (May2011)                                                                                           150                                
PGRFAMCHA130802052120054350002230The Secret World of Benjamin Bear                 EP: 18                                                        C26066 1065607ECC                              
PROFAMCHA130802054350054355000005D-JR - Station ID (:05) (May2011)                                                                                           150                                
PGRFAMCHA130802054355060531002136Harry and His Bucket Full of Dinosaurs            EP: 10                                                        B05029 1065607ECC                              
PROFAMCHA130802060531060538000007D-JR - Flex ID - Green (:6-:10) (Feb2012)                                                                                   150                                
PGRFAMCHA130802060538062853002315Stella and Sam                                    EP: 07                                                        C33973 1065607ECC                              
PROFAMCHA130802062853062900000007D-JR Live Action ID - Mickey Mouse Clubhouse - Com                                                                          150                                
PROFAMCHA130802062900062925000025D-JR Live Action ID - #13 Make Bed (May2012)                                                                                150                                
PROFAMCHA130802062925062931000006D-JR - Bumper 1 (May2011)                                                                                                   150                                
PROFAMCHA130802062931062956000025D-JR Live Action ID - #42 Brush Teeth (May2012)                                                                             150                                
PROFAMCHA130802062956063003000007D-JR Live Action ID - Mickey Mouse Clubhouse - Now                                                                          150                                
PGRFAMCHA130802063003065403002400Disney's Mickey Mouse Clubhouse                   EP: 30                                                               6068605ACC                              
PROFAMCHA130802065403065411000008D-JR Live Action ID - Jake & the Never Land Pirate                                                                          150                                
PROFAMCHA130802065411065436000025D-JR Live Action ID - #45 Sorting Socks (May2012)                                                                           150                                
PROFAMCHA130802065436065520000044D-JR Promo - Summmer Morning Marathons - Weekdays                                                                           150                                
PROFAMCHA130802065520065550000030D-JR Promo - MMCH - Get more MMCH on D-JR the chan                                                                          150                                
PROFAMCHA130802065550065640000050D-JR Promo - Henry Hugglemonster - Get more HH on                                                                           150                                
PROFAMCHA130802065640065740000100D-JR Promo - Tickety Toc - Racing The Clock - Get                                                                           150                                
PROFAMCHA130802065740065800000020D-JR Promo - Sofia The First: Clip 1 - Get More We                                                                          150                                
PROFAMCHA130802065800065852000052D-JR Promo - Doc McStuffins - Get more on the chan                                                                          150                                
PROFAMCHA130802065852065922000030D-JR Promo - On demand online REVISED - D-JR.ca (M                                                                          150                                
PROFAMCHA130802065922065947000025D-JR Live Action ID - #46 Donating Clothes (Sept20                                                                          150                                
PROFAMCHA130802065947065954000007D-JR Live Action ID - Jake & the Never Land Pirate                                                                          150                                
PROFAMCHA130802065954070002000008D-JR - Flex ID - Yellow (:6-:10) (Feb2012)                                                                                  150                                
PGRFAMCHA130802070002072406002404Disney Jake and the Never Land Pirates            EP: 15                                                               6068605ACC                              
PROFAMCHA130802072406072448000042Stunt Flash Forward (HD) This Afternoon Starting @                                                                          150                                
PROFAMCHA130802072448072538000050Walt Disney Pictures                                                                                                        150                                
PROFAMCHA130802072538072618000040DXD Promo (HD) West 49 LRN2SK Tour Promo - Disneyx                                                                          150                                
PRCFAMCHA130802072618072703000045Shake It Up Episodic (HD) 320 New Ep Tonight @ 6 (                                                                          150                                
PROFAMCHA130802072703072746000043Mickey Mouse Shorts Promo (HD) Continuing Tonight                                                                           150                                
PROFAMCHA130802072746072801000015PSA CMF (HD) Canada on Screen (Nov2012) (3x per da                                                                          150                                
PRCFAMCHA130802072801072846000045Toy Story 2 (HD) Premieres Saturday Night @ 6 (Jul                                                                          150                                
PROFAMCHA130802072846072906000020Hannah (HD) Clip Promo Cookies - Coming Up Next (A                                                                          150                                
PROFAMCHA130802072906072936000030GLC Episodic (HD) 414 New Episode This Aft @ 530 (                                                                          150                                
PRCFAMCHA130802072936072948000012Family Bumper (HD) Summer Flex ID - Park (:10-:14)                                                                          150                                
PGRFAMCHA130802072948075225002237Hannah Montana                                    EP: 05                                                               6068807BCD                              
PROFAMCHA130802075225075252000027Dog With A Blog Episodic (HD) 121 New Episode This                                                                          150                                
PROFAMCHA130802075252075332000040Kellogg's                                                                                                                   150                                
PRCFAMCHA130802075332075417000045BTS Concert Promo V3 (HD) Generic (July 25-Aug 11)                                                                          150                                
PRCFAMCHA130802075417075459000042Summer Shuffle Marathon (HD) Weekday Afternoons @                                                                           150                                
PROFAMCHA130802075459075549000050Walt Disney Studios Home Entertainment                                                                                      150                                
PRCFAMCHA130802075549075611000022Game Change Friday August Promo (HD) Family.ca (Ju                                                                          150                                
PROFAMCHA130802075611075641000030ANT Farm Episodic 307 (HD) New Episode Tonight @ 7                                                                          150                                
PROFAMCHA130802075641075731000050Lego                                                                                                                        150                                
PRCFAMCHA130802075731075805000034Stunt Shake It Up Hosted (HD) Friday Afternoon sta                                                                          150                                
PROFAMCHA130802075805075839000034SLOD (HD) SS Tipton - Coming Up Next (Apr2013)                                                                              150                                
PROFAMCHA13080207583907592400004520th Century Fox                                                                                                            150                                
PROFAMCHA130802075924075954000030Jessie Episodic 220 (HD) New Episode Tonight @ 730                                                                          150                                
PRCFAMCHA130802075954080003000009Family Bumper (HD) Summer Flex ID - BBQ (:07-:09)                                                                           150                                
PGRFAMCHA130802080003082234002231The Suite Life on Deck                            EP: 01                                                               6068607BCC                              
PRCFAMCHA130802082234082319000045Shake It Up Episodic (HD) 320 New Ep Tonight @ 6 (                                                                          150                                
PROFAMCHA130802082319082419000100Sony Pictures                                                                                                               150                                
PROFAMCHA130802082419082449000030GLC Episodic (HD) 414 New Episode This Aft @ 530 (                                                                          150                                
PRCFAMCHA130802082449082542000053Robots (HD) Tonight @ 8:00 (Jul2013)                                                                                        150                                
PRCFAMCHA130802082542082627000045DXD Promo (HD) Planes Contest - In Theatres Aug 9                                                                           150                                
PROFAMCHA13080208262708271700005020th Century Fox                                                                                                            150                                
PROFAMCHA130802082717082751000034SLOD (HD) SS Tipton - Coming Up Next (Apr2013)                                                                              150                                
PROFAMCHA130802082751082841000050Lego                                                                                                                        150                                
PROFAMCHA130802082841082926000045A&A Episodic 226 (HD) New Episode Tonight @ 630 (A                                                                          150                                
PRCFAMCHA130802082926082938000012Family Bumper (HD) Summer Flex ID - BTS Beach (:10                                                                          150                                
PGRFAMCHA130802082938085241002303The Suite Life on Deck                            EP: 05                                                               6068807BCC                              
PGRFAMCHA130802085241085411000130Phineas & Ferb Mission Marvel Trailer (HD) Prems A                                                                     60688120                                
PROFAMCHA130802085411085433000022Summer Shuffle GLC 1 (HD) This Afternoon Starting                                                                           150                                
PROFAMCHA130802085433085515000042Stunt Flash Forward (HD) This Afternoon Starting @                                                                          150                                
PROFAMCHA130802085515085527000012Big Ticket Summer Liner (HD) Generic (July 2013)                                                                            150                                
PROFAMCHA130802085527085557000030ANT Farm Episodic 307 (HD) New Episode Tonight @ 7                                                                          150                                
PRCFAMCHA130802085557085642000045Toy Story 2 (HD) Premieres Saturday Night @ 6 (Jul                                                                          150                                
PGRFAMCHA130802085642085837000155Selena Gomez Interview (HD) #1 - Album Available J                                                                     10618120                                
PROFAMCHA130802085837085856000019WOWP (HD) Clip Bad Time - Coming Up Next (April 20                                                                          150                                
PROFAMCHA130802085856085926000030Jessie Episodic 220 (HD) New Episode Tonight @ 730                                                                          150                                
PRCFAMCHA130802085926085941000015Family Bumper (HD) Summer Flex ID - BTS Beach (:10                                                                          150                                
PGRFAMCHA130802085941092215002234Disney Wizards of Waverly Place                   EP: 04                                                               6068607BCC                              
PROFAMCHA130802092215092242000027Dog With A Blog Episodic (HD) 121 New Episode This                                                                          150                                
PRCFAMCHA130802092242092324000042Summer Shuffle Marathon (HD) Weekday Afternoons @                                                                           150                                
PGRFAMCHA130802092324092611000247MV Non Disney (HD) Cody Simpson - Pretty Brown Eye                                                                     10615120CC                              
PRCFAMCHA130802092611092656000045BTS Concert Promo V3 (HD) Generic (July 25-Aug 11)                                                                          150                                
PROFAMCHA130802092656092739000043Mickey Mouse Shorts Promo (HD) Continuing Tonight                                                                           150                                
PROFAMCHA130802092739092754000015PSA CMF (HD) Canada on Screen (Nov2012) (3x per da                                                                          150                                
PRCFAMCHA130802092754092824000030Web FOD 2012 Refresh (HD) Family.ca New Look (Apr2                                                                          150                                
PROFAMCHA130802092824092847000023WOWP (HD) Harper - Coming Up Next (April 2013)                                                                              150                                
PRCFAMCHA130802092847092932000045Shake It Up Episodic (HD) 320 New Ep Tonight @ 6 (                                                                          150                                
PRCFAMCHA130802092932092950000018Family Bumper Flex (HD) Flex ID - Music ID (:14-:1                                                                          150                                
PGRFAMCHA130802092950095255002305Disney Wizards of Waverly Place                   EP: 26                                                               6068607BCC                              
