SO FAMCHA020201043000043011000011Sign On (oct 1)                                                                                                                                                
PGRFAMCHA020201043011045221002210Out of the Box                                    Really Wheely                                                        60686110                                
ID FAMCHA020201045221045232000011Generic ID - soccer                                                                                                         150                                
PROFAMCHA020201045232045246000014Art Attack (ART) - Coming Up                                                                                                150                                
ID FAMCHA020201045246045301000015Schoolhouse Promo - This Morning                                                                                            150                                
PROFAMCHA020201045301045318000017Katie and Orbie (OCT2001) - Today @ 5:15am                                                                                  150                                
PROFAMCHA020201045318045324000006Little Lulu (AUG2001) - Lulu - Today @ 6:05am                                                                               150                                
PROFAMCHA020201045324045350000026DuckTales (CLIP) - Today @ 5:40am                                                                                           150                                
PROFAMCHA020201045350045400000010Preschool Line-Up -02- ART/KATIE/DUCKTALES                                                                                  150                                
PGRFAMCHA020201045400051359001959Art Attack                                        1-095                                                                60686110                                
ID FAMCHA020201051359051414000015Generic ID - confetti                                                                                                       150                                
PROFAMCHA020201051414051431000017Katie and Orbie (OCT2001) - Coming Up                                                                                       150                                
PROFAMCHA020201051431051450000019House of Mouse (PINOCCHIO) - Tomorrow @ 3:25pm                                                                              150                                
PROFAMCHA020201051450051500000010Preschool Line-Up -03- KATIE/DUCKTALES/LULU                                                                                 150                                
PROFAMCHA020201051500051508000008CC Is Brought To You By - Ian **DNU AFTER 09/22**                                                                           150                                
PGRFAMCHA020201051508054143002635Katie And Orbie                                   New Year's Eve/Kyra/T-Ball                                    C11896A1065607ECC                              
ID FAMCHA020201054143054148000005Generic ID - Couch 1*                                                                                                       150                                
PROFAMCHA020201054148054214000026DuckTales (CLIP) - Coming Up                                                                                                150                                
PROFAMCHA020201054214054220000006Little Lulu (AUG2001) - Lulu - Today @ 6:05am                                                                               150                                
PROFAMCHA020201054220054250000030House of Mouse (JAN2002) - Tomorrow @ 3:25pm                                                                                150                                
PROFAMCHA020201054250054300000010Preschool Line-Up -04- DUCKTALES/LULU/ALF                                                                                   150                                
PROFAMCHA020201054300054308000008CC Is Brought To You By - Lark **DNU AFTER 09/22**                                                                          150                                
PGRFAMCHA020201054308060556002248Disney's DuckTales                                Bubbeo & Juliet                                                     A6068607ECC                              
ID FAMCHA020201060556060601000005Generic ID - Couch 1*                                                                                                       150                                
PROFAMCHA020201060601060607000006Little Lulu (AUG2001) - Lulu - Coming Up                                                                                    150                                
ID FAMCHA020201060607060620000013Schoolhouse Promo - This Morning                                                                                            150                                
PROFAMCHA020201060620060635000015New Adv of WTP (AUG2001) - Poem - Today @ 10:20am                                                                           150                                
PROFAMCHA020201060635060650000015Out of the Box - Today @ 10:45am                                                                                            150                                
PROFAMCHA020201060650060700000010Preschool Line-Up -05- LULU/ALF                                                                                             150                                
PROFAMCHA020201060700060708000008CC Is Brought To You By - Ian **DNU AFTER 09/22**                                                                           150                                
PGRFAMCHA020201060708063100002352Little Lulu Show; The                             The Bear Trap/Shirley the Shadow/A Dog's Life Save            C19511A1065607ECC                              
ID FAMCHA020201063100063110000010Generic ID - Family w/dog                                                                                                   150                                
PROFAMCHA020201063110063130000020Disney's One, Too (AUG2001) - Today @ 4pm                                                                                   150                                
PRCFAMCHA020201063130063140000010Morning Block menu background (flex time)                                                                                   150                                
ID FAMCHA020201063140063200000020Morning block open play pen                                                                                                 150                                
PROFAMCHA020201063200063208000008CC Is Brought To You By - Lark **DNU AFTER 09/22**                                                                          150                                
PGRFAMCHA020201063208065337002129ALF                                               Consider Me Gone                                                    A2068807BCC                              
ID FAMCHA020201065337065347000010Generic ID - Pink inner tube                                                                                                150                                
PROFAMCHA020201065347065426000039Weekenders (CLOSET-D12/WKNDS) - Weekends @ 4:35pm                                                                           150                                
PROFAMCHA020201065426065456000030Lizzie McGuire (KATE) - Coming Up                                                                                           150                                
PROFAMCHA020201065456065515000019House of Mouse (PINOCCHIO) - Tomorrow @ 3:25pm                                                                              150                                
ID FAMCHA020201065515065530000015Schoolhouse Promo - Coming Up                                                                                               150                                
PROFAMCHA020201065530065548000018Buzz Lightyear (DO YOUR BEST) - Today @ 4pm                                                                                 150                                
INTFAMCHA020201065548065911000323Schoolhouse Rock - The Tale of Mr. Morton                                                                             A60686120                                
PROFAMCHA020201065911065940000029Recess (COOL VINCE-D12/WKNDS) - Today @ 5:30pm                                                                              150                                
PRCFAMCHA020201065940065950000010Morning Block menu background (flex time)                                                                                   150                                
ID FAMCHA020201065950070000000010xxMagic of Disney - V4 - KID MALE                                                                                           150                                
PGRFAMCHA020201070000072235002235Lizzie McGuire                                    Picture Day                                                         A6068607B                                
ID FAMCHA020201072235072240000005Generic ID - Fingerpaint                                                                                                    150                                
PROFAMCHA020201072240072308000028Art Attack (SCOTSMAN) - Today @ 8am                                                                                         150                                
PRCFAMCHA020201072308072322000014Franklin (AUG2001) - Leaf - Coming Up                                                                                       150                                
PROFAMCHA020201072322072352000030Score With Franklin - In Stores February 12th                                                                               150                                
ID FAMCHA020201072352072412000020Schoolhouse Promo - Coming Up                                                                                               150                                
PROFAMCHA020201072412072429000017Katie and Orbie (OCT2001) - Today @ 9:55am                                                                                  150                                
INTFAMCHA020201072429072752000323Schoolhouse Rock - Ready or Not, Here I Come                                                                          A60686120                                
PROFAMCHA020201072752072810000018Buzz Lightyear (DO YOUR BEST) - Today @ 4pm                                                                                 150                                
PROFAMCHA020201072810072931000121Elmo's World (FAM2) - Today @ 8:45am                                                                                        150                                
PRCFAMCHA020201072931072940000009Morning Block menu background (flex time)                                                                                   150                                
ID FAMCHA020201072940073000000020Morning block open play pen                                                                                                 150                                
PROFAMCHA020201073000073008000008CC Is Brought To You By - Ian **DNU AFTER 09/22**                                                                           150                                
PGRFAMCHA020201073008075301002253Franklin                                          Franklin's Float/Party Plans                                  A53209A1065607ECC                              
ID FAMCHA020201075301075306000005Generic ID - Fingerpaint                                                                                                    150                                
PROFAMCHA020201075306075320000014Art Attack (ART) - Coming Up                                                                                                150                                
PROFAMCHA020201075320075340000020Hoze Houndz (AUG2001) - Today @ 11:35am                                                                                     150                                
ID FAMCHA020201075340075353000013Schoolhouse Promo - Coming Up                                                                                               150                                
PROFAMCHA020201075353075423000030Score With Franklin - In Stores February 12th                                                                               150                                
INTFAMCHA020201075423075746000323Schoolhouse Rock - Them Not-So-Dry Bones                                                                              A60686120                                
ID FAMCHA020201075746075815000029Wonder Kid - Athlete                                                                                                        150                                
ID FAMCHA020201075815075829000014Wonder Kid Tag - Female                                                                                                     150                                
PROFAMCHA020201075829075950000121Elmo's World (FAM2) - Today @ 8:45am                                                                                        150                                
PROFAMCHA020201075950080000000010Preschool Line-Up -06- ART/LULU/ELMO                                                                                        150                                
PGRFAMCHA020201080000081507001507Art Attack                                        1-001                                                                60686110                                
ID FAMCHA020201081507081512000005Generic ID - Couch 2*                                                                                                       150                                
PROFAMCHA020201081512081518000006Little Lulu (AUG2001) - Lulu - Coming Up                                                                                    150                                
ID FAMCHA020201081518081531000013Schoolhouse Promo - Coming Up                                                                                               150                                
PROFAMCHA020201081531081548000017Katie and Orbie (OCT2001) - Today @ 9:55am                                                                                  150                                
INTFAMCHA020201081548081911000323Schoolhouse Rock - Elementary, My Dear                                                                                A60686120                                
PROFAMCHA020201081911081937000026Elmo's World (FAM1) - Today @ 8:45am                                                                                        150                                
INTFAMCHA020201081937082044000107Disney Moments-Many Adventures Of Ichabod-Headless                                                                     60688120                                
PROFAMCHA020201082044082051000007PB&J Otter (AUG2001) - Kite - Today @ 9:30am                                                                                150                                
PROFAMCHA020201082051082101000010Preschool Line-Up -07- LULU/ELMO/BOP                                                                                        150                                
PROFAMCHA020201082101082109000008CC Is Brought To You By - Lark **DNU AFTER 09/22**                                                                          150                                
PGRFAMCHA020201082109084501002352Little Lulu Show; The                             The Big Jewel Robbery/Pot Luck/The Spook Tree                 C19511A1065607ECC                              
ID FAMCHA020201084501084506000005Generic ID - Couch 2*                                                                                                       150                                
PROFAMCHA020201084506084532000026Elmo's World (FAM1) - Coming Up                                                                                             150                                
PROFAMCHA020201084532084550000018Stanley - Tomorrow @ 5pm                                                                                                    150                                
PROFAMCHA020201084550084600000010Preschool Line-Up -08- ELMO/BOP/PB&J                                                                                        150                                
PGRFAMCHA020201084600090249001649Elmo's World                                      Singing                                                             A2068607G                                
ID FAMCHA020201090249090254000005Generic ID - Bubbles*                                                                                                       150                                
PROFAMCHA020201090254090301000007PB&J Otter (AUG2001) - Kite - Today @ 9:30am                                                                                150                                
PROFAMCHA020201090301090331000030Score With Franklin - In Stores February 12th                                                                               150                                
ID FAMCHA020201090331090413000042Wonder Kid - Clean Up                                                                                                       150                                
ID FAMCHA020201090413090425000012Wonder Kid Tag - Female                                                                                                     150                                
PROFAMCHA020201090425090440000015New Adv of WTP (AUG2001) - Poem - Today @ 10:20am                                                                           150                                
PROFAMCHA020201090440090450000010Preschool Line-Up -09- BOP/PB&J/KATIE                                                                                       150                                
ID FAMCHA020201090450090500000010xxMagic of Disney - V3(water) - KID MALE                                                                                    150                                
PGRFAMCHA020201090500092902002402Book Of Pooh; The                                 Bee-Friended/Nightmare                                               6068607G                                
ID FAMCHA020201092902092907000005Generic ID - Marbles                                                                                                        150                                
PROFAMCHA020201092907092916000009PB&J Otter (AUG2001) - Open - Coming Up                                                                                     150                                
PROFAMCHA020201092916092933000017Katie and Orbie (OCT2001) - Today @ 9:55am                                                                                  150                                
PROFAMCHA020201092933092951000018Elmo's World (FAM3) - Today @ 12:45pm                                                                                       150                                
PROFAMCHA020201092951093001000010Preschool Line-Up -10- PB&J/KATIE/WTP                                                                                       150                                
PROFAMCHA020201093001093009000008CC Is Brought To You By - Ian **DNU AFTER 09/22**                                                                           150                                
PGRFAMCHA020201093009095339002330PB&J Otter                                        Big Surprise/Bazania Mania                                           6068607ECC                              
ID FAMCHA020201095339095350000011Generic ID - soccer                                                                                                         150                                
PROFAMCHA020201095350095407000017Katie and Orbie (OCT2001) - Coming Up                                                                                       150                                
ID FAMCHA020201095407095436000029Wonder Kid - Athlete                                                                                                        150                                
ID FAMCHA020201095436095450000014Wonder Kid Tag - Female                                                                                                     150                                
PROFAMCHA020201095450095500000010Preschool Line-Up -11- KATIE/WTP/OOTB                                                                                       150                                
PROFAMCHA020201095500095508000008CC Is Brought To You By - Lark **DNU AFTER 09/22**                                                                          150                                
PGRFAMCHA020201095508102143002635Katie And Orbie                                   Lulu/The Farm/Splash                                          C11896A1065607ECC                              
ID FAMCHA020201102143102153000010Generic ID - Ring around the rosie                                                                                          150                                
PROFAMCHA020201102153102208000015New Adv of WTP (AUG2001) - Poem - Coming Up                                                                                 150                                
PROFAMCHA020201102208102223000015Out of the Box - Today @ 10:45am                                                                                            150                                
PROFAMCHA020201102223102241000018Buzz Lightyear (DO YOUR BEST) - Today @ 4pm                                                                                 150                                
PROFAMCHA020201102241102251000010Preschool Line-Up -12- WTP/OOTB/DUCKTALES                                                                                   150                                
ID FAMCHA020201102251102301000010xxMagic of Disney - V3(water) - TEEN FEMALE                                                                                 150                                
PROFAMCHA020201102301102309000008CC Is Brought To You By - Ian **DNU AFTER 09/22**                                                                           150                                
PGRFAMCHA020201102309104546002237New Adventures of Winnie the Pooh; The            Shovel, Shovel, Toil & Trouble/The Wise Have It                      6068607ECC                              
ID FAMCHA020201104546104556000010Generic ID - Family w/dog                                                                                                   150                                
PROFAMCHA020201104556104611000015Out of the Box - Coming Up                                                                                                  150                                
PROFAMCHA020201104611104637000026DuckTales (CLIP) - Today @ 11:10am                                                                                          150                                
ID FAMCHA020201104637104650000013Schoolhouse Promo - Weekday Mornings                                                                                        150                                
PROFAMCHA020201104650104700000010Preschool Line-Up -13- OOTB/DUCKTALES/HOZE                                                                                  150                                
PROFAMCHA020201104700104708000008CC Is Brought To You By - Lark **DNU AFTER 09/22**                                                                          150                                
PGRFAMCHA020201104708111004002256Out of the Box                                    Yes and Nose                                                         60686110CC                              
ID FAMCHA020201111004111009000005Generic ID - Couch 2*                                                                                                       150                                
PROFAMCHA020201111009111035000026DuckTales (CLIP) - Coming Up                                                                                                150                                
PROFAMCHA020201111035111050000015Out of the Box - Today @ 10:45am                                                                                            150                                
PROFAMCHA020201111050111100000010Preschool Line-Up -14- DUCKTALES/HOZE/LULU                                                                                  150                                
PROFAMCHA020201111100111108000008CC Is Brought To You By - Ian **DNU AFTER 09/22**                                                                           150                                
PGRFAMCHA020201111108113355002247Disney's DuckTales                                Three Ducks Of The Condor (treasure Part 3)                         A6068607ECC                              
ID FAMCHA020201113355113410000015Generic ID - confetti                                                                                                       150                                
PROFAMCHA020201113410113430000020Hoze Houndz (AUG2001) - Coming Up                                                                                           150                                
PROFAMCHA020201113430113450000020Disney's One, Too (AUG2001) - Today @ 4pm                                                                                   150                                
PROFAMCHA020201113450113500000010Preschool Line-Up -15- HOZE/LULU/FRANKLIN                                                                                   150                                
PROFAMCHA020201113500113508000008CC Is Brought To You By - Lark **DNU AFTER 09/22**                                                                          150                                
PGRFAMCHA020201113508115743002235Hoze Houndz                                       Ghost in the Machine/Savage Steamer                           B17121A1065607ECC                              
ID FAMCHA020201115743115753000010Generic ID - Family w/dog                                                                                                   150                                
PROFAMCHA020201115753115759000006Little Lulu (AUG2001) - Lulu - Coming Up                                                                                    150                                
PRCFAMCHA020201115759115813000014Franklin (AUG2001) - Leaf - Today @ 12:20pm                                                                                 150                                
PROFAMCHA020201115813115831000018Stanley - Tomorrow @ 5pm                                                                                                    150                                
PROFAMCHA020201115831115850000019House of Mouse (PINOCCHIO) - Tomorrow @ 3:25pm                                                                              150                                
PROFAMCHA020201115850115900000010Preschool Line-Up -16- LULU/FRANKLIN/ELMO                                                                                   150                                
PROFAMCHA020201115900115908000008CC Is Brought To You By - Ian **DNU AFTER 09/22**                                                                           150                                
PGRFAMCHA020201115908122300002352Little Lulu Show; The                             Alvinsitting/Two Lulus/The Hat                                C19511A1065607ECC                              
ID FAMCHA020201122300122307000007Generic ID - Whisper*                                                                                                       150                                
ID FAMCHA020201122307122336000029Wonder Kid - Athlete                                                                                                        150                                
ID FAMCHA020201122336122350000014Wonder Kid Tag - Female                                                                                                     150                                
PROFAMCHA020201122350122400000010Preschool Line-Up -17- FRANKLIN/ELMO/BOP                                                                                    150                                
PROFAMCHA020201122400122408000008CC Is Brought To You By - Lark **DNU AFTER 09/22**                                                                          150                                
PGRFAMCHA020201122408124701002253Franklin                                          Gee Whiz Franklin/Franklin Can't Wait                         A53210A1065607ECC                              
ID FAMCHA020201124701124707000006Generic ID - soccer                                                                                                         150                                
PROFAMCHA020201124707124737000030Score With Franklin - In Stores February 12th                                                                               150                                
PROFAMCHA020201124737124750000013New Adv of WTP (FEB2002) - Blustery - Today @ 10:2                                                                          150                                
PROFAMCHA020201124750124800000010Preschool Line-Up -18- ELMO/BOP/PB&J                                                                                        150                                
PGRFAMCHA020201124800130327001527Elmo's World                                      Farms                                                               A2068607G                                
ID FAMCHA020201130327130332000005Generic ID - Couch 2*                                                                                                       150                                
PROFAMCHA020201130332130352000020Hoze Houndz (AUG2001) - Today @ 11:35am                                                                                     150                                
PROFAMCHA020201130352130420000028Stanley (ELEPHANT) - Tomorrow @ 5pm                                                                                         150                                
INTFAMCHA020201130420130624000204Music Break - Little Mermaid: In Harmony                                                                               60688120                                
PROFAMCHA020201130624130641000017Katie and Orbie (OCT2001) - Today @ 1:55pm                                                                                  150                                
PROFAMCHA020201130641130651000010Preschool Line-Up -19- BOP/PB&J/KATIE                                                                                       150                                
ID FAMCHA020201130651130701000010xxMagic of Disney - V3(water) - TEEN MALE                                                                                   150                                
PGRFAMCHA020201130701133103002402Book Of Pooh; The                                 A Win Won Situation/Best Wishes, Winnie The Pooh                     6068607G                                
ID FAMCHA020201133103133108000005Generic ID - Couch 1*                                                                                                       150                                
PROFAMCHA020201133108133117000009PB&J Otter (AUG2001) - Open - Coming Up                                                                                     150                                
PROFAMCHA020201133117133135000018Stanley - Tomorrow @ 5pm                                                                                                    150                                
PROFAMCHA020201133135133150000015Out of the Box - Today @ 2:45pm                                                                                             150                                
PROFAMCHA020201133150133200000010Preschool Line-Up -20- PB&J/KATIE/WTP                                                                                       150                                
PROFAMCHA020201133200133208000008CC Is Brought To You By - Ian **DNU AFTER 09/22**                                                                           150                                
PGRFAMCHA020201133208135538002330PB&J Otter                                        Sgt. Gravel To The Rescue/Sleepy Head                               A6068607ECC                              
ID FAMCHA020201135538135545000007Generic ID - Whisper*                                                                                                       150                                
PROFAMCHA020201135545135602000017Katie and Orbie (OCT2001) - Coming Up                                                                                       150                                
PROFAMCHA020201135602135615000013New Adv of WTP (FEB2002) - Blustery - Today @ 2:25                                                                          150                                
PROFAMCHA020201135615135650000035Legend of Tarzan (PICKS&NIBBLES-D12/WKNDS) - Today                                                                          150                                
PROFAMCHA020201135650135700000010Preschool Line-Up -21- KATIE/WTP/OOTB                                                                                       150                                
PROFAMCHA020201135700135708000008CC Is Brought To You By - Lark **DNU AFTER 09/22**                                                                          150                                
PGRFAMCHA020201135708142343002635Katie And Orbie                                   New Year's Eve/Kyra/T-Ball                                    C11896A1065607ECC                              
ID FAMCHA020201142343142348000005Generic ID - Couch 1*                                                                                                       150                                
PROFAMCHA020201142348142418000030Score With Franklin - In Stores February 12th                                                                               150                                
PROFAMCHA020201142418142431000013New Adv of WTP (FEB2002) - Blustery - Coming Up                                                                             150                                
PROFAMCHA020201142431142440000009PB&J Otter (AUG2001) - Open - Tomorrow @ 5:25pm                                                                             150                                
PROFAMCHA020201142440142450000010Preschool Line-Up -22- WTP/OOTB/DUCKTALES                                                                                   150                                
ID FAMCHA020201142450142500000010xxMagic of Disney - V3(water) - TEEN FEMALE                                                                                 150                                
PROFAMCHA020201142500142508000008CC Is Brought To You By - Ian **DNU AFTER 09/22**                                                                           150                                
PGRFAMCHA020201142508144746002238New Adventures of Winnie the Pooh; The            Cloud, Cloud Go Away/To Dream The Impossible Schem                   6068607ECC                              
ID FAMCHA020201144746144751000005Generic ID - Bubbles*                                                                                                       150                                
PROFAMCHA020201144751144806000015Out of the Box - Coming Up                                                                                                  150                                
ID FAMCHA020201144806144840000034Wonder Kid - Stage                                                                                                          150                                
ID FAMCHA020201144840144851000011Wonder Kid Tag - Male                                                                                                       150                                
PROFAMCHA020201144851144901000010Preschool Line-Up -23- OOTB/DUCKTALES/HOZE                                                                                  150                                
PGRFAMCHA020201144901151226002325Out of the Box                                    Pick a Pet                                                           60686110                                
ID FAMCHA020201151226151236000010Generic ID - Pink inner tube                                                                                                150                                
PRCFAMCHA020201151236151250000014Franklin (AUG2001) - Leaf - Tomorrow @ 6:15pm                                                                               150                                
PROFAMCHA020201151250151300000010Preschool Line-Up -24- DUCKTALES/HOZE/D12                                                                                   150                                
PROFAMCHA020201151300151308000008CC Is Brought To You By - Lark **DNU AFTER 09/22**                                                                          150                                
PGRFAMCHA020201151308153555002247Disney's DuckTales                                Cold Duck (treasure Part 4)                                         A6068607ECC                              
ID FAMCHA020201153555153600000005Generic ID - Fingerpaint                                                                                                    150                                
PROFAMCHA020201153600153620000020Hoze Houndz (AUG2001) - Coming Up                                                                                           150                                
PROFAMCHA020201153620153650000030Score With Franklin - In Stores February 12th                                                                               150                                
PROFAMCHA020201153650153700000010Preschool Line-Up -25- HOZE/D12                                                                                             150                                
PROFAMCHA020201153700153708000008CC Is Brought To You By - Ian **DNU AFTER 09/22**                                                                           150                                
PGRFAMCHA020201153708155944002236Hoze Houndz                                       Windmaker/Houndanz                                            B17122A1065607ECC                              
ID FAMCHA020201155944155950000006Generic ID - soccer                                                                                                         150                                
ID FAMCHA020201155950160000000010xxMagic of Disney - V4 - TEEN FEMALE                                                                                        150                                
PROFAMCHA020201160000160030000030Disney's One Too - Opening                                                                                                  150                                
PGRFAMCHA020201160030162310002240Disney/Pixar's Buzz Lightyear of Star Command     Rescue Mission                                                      A6068607E                                
ID FAMCHA020201162310162317000007Generic ID - Whisper*                                                                                                       150                                
PRCFAMCHA020201162317162405000048Dick Tracy - Tonight @ 10:40pm                                                                                              150                                
PROFAMCHA020201162405162434000029Recess (COOL VINCE-D12/WKNDS) - Today @ 5:30pm                                                                              150                                
PROFAMCHA020201162434162458000024Honey, I Shrunk the Kids (AUG2001) - Tonight @ 8pm                                                                          150                                
INTFAMCHA020201162458162628000130Family X-Periment - Ep.34: Moonie                                                                                     A10656120                                
PROFAMCHA020201162628162703000035Legend of Tarzan (PICKS&NIBBLES-D12/WKNDS) - Today                                                                          150                                
PROFAMCHA020201162703162725000022Even Stevens (KARAOKE) - Tonight @ 6pm                                                                                      150                                
PROFAMCHA020201162725162804000039House of Mouse (DOOR) - Tomorrow @ 3:25pm                                                                                   150                                
INTFAMCHA020201162804162817000013Toy Story Treats - Art Class                                                                                           60686120                                
PROFAMCHA020201162817162829000012Weekenders (HANG OUT-D12/WKNDS) - Tomorrow @ 4:35p                                                                          150                                
PROFAMCHA020201162829162849000020Disney's One, Too (AUG2001) - You're Watching                                                                               150                                
PROFAMCHA020201162849162932000043Jumping Ship - Premieres Tomorrow @ 9pm                                                                                     150                                
PRCFAMCHA020201162932162942000010Morning Block menu background (flex time)                                                                                   150                                
ID FAMCHA020201162942163000000018Afternoon block pinball open                                                                                                150                                
PROFAMCHA020201163000163030000030Disney's One Too - Opening                                                                                                  150                                
PROFAMCHA020201163030163038000008CC Is Brought To You By - Games                                                                                             150                                
PGRFAMCHA020201163038165310002232Disney's Pepper Ann                               The Environ-Mentals                                                  6068607ECC                              
ID FAMCHA020201165310165320000010Generic ID - Hula Hoop                                                                                                      150                                
PRCFAMCHA020201165320165408000048Dick Tracy - Tonight @ 10:40pm                                                                                              150                                
PROFAMCHA020201165408165424000016Legend of Tarzan (THUNDER-D12/WKNDS) - Coming Up                                                                            150                                
INTFAMCHA020201165424165554000130Family X-Periment - Ep.35: The Taste Test                                                                             A10656120                                
PROFAMCHA020201165554165627000033Totally Circus - Tomorrow @ 8:30am                                                                                          150                                
PROFAMCHA020201165627165657000030Famous Jett Jackson - Tonight @ 6:30pm                                                                                      150                                
PROFAMCHA020201165657165717000020Disney Promo (D12 only) - BUZZ - Name You Can Coun                                                                          150                                
PROFAMCHA020201165717165822000105Your Big Break (CHRISTINA) - Sunday @ 8pm                                                                                   150                                
PROFAMCHA020201165822165829000007MV Web Throw - family.ca                                                                                                    150                                
PROFAMCHA020201165829165841000012Weekenders (HANG OUT-D12/WKNDS) - Tomorrow @ 4:35p                                                                          150                                
PROFAMCHA020201165841165905000024Honey, I Shrunk the Kids (AUG2001) - Tonight @ 8pm                                                                          150                                
PRCFAMCHA020201165905165932000027Kiss & Tell Event - February 8 to 14                                                                                        150                                
PRCFAMCHA020201165932165942000010Morning Block menu background (flex time)                                                                                   150                                
ID FAMCHA020201165942170000000018Afternoon block pinball open                                                                                                150                                
PROFAMCHA020201170000170030000030Disney's One Too - Opening                                                                                                  150                                
PGRFAMCHA020201170030172316002246Disney's The Legend of Tarzan                     New Wave                                                            A6068607E                                
ID FAMCHA020201172316172327000011Generic ID - soccer                                                                                                         150                                
PRCFAMCHA020201172327172415000048Dick Tracy - Tonight @ 10:40pm                                                                                              150                                
PROFAMCHA020201172415172444000029Recess (COOL VINCE-D12/WKNDS) - Coming Up                                                                                   150                                
PROFAMCHA020201172444172506000022Even Stevens (KARAOKE) - Tonight @ 6pm                                                                                      150                                
INTFAMCHA020201172506172636000130Family X-Periment - Ep.36: The Candy Girl                                                                             A10656120                                
PROFAMCHA020201172636172700000024Honey, I Shrunk the Kids (AUG2001) - Tonight @ 8pm                                                                          150                                
INTFAMCHA020201172700172804000104Jack and Marcel: Ep.020 "Glue and Butterflies"                                                                        A40688120                                
PROFAMCHA020201172804172819000015Weekenders (D12/WEEKENDS) - Tomorrow @ 4:35pm                                                                               150                                
PROFAMCHA020201172819172849000030Proud Family - Tomorrow @ 4:10pm                                                                                            150                                
PROFAMCHA020201172849172932000043Jumping Ship - Premieres Tomorrow @ 9pm                                                                                     150                                
PRCFAMCHA020201172932172942000010Morning Block menu background (flex time)                                                                                   150                                
ID FAMCHA020201172942173000000018Afternoon block pinball open                                                                                                150                                
PROFAMCHA020201173000173030000030Disney's One Too - Opening                                                                                                  150                                
PGRFAMCHA020201173030175306002236Disney's Recess                                   More Like Gretchen/Prince Randall                                   A6028607E                                
ID FAMCHA020201175306175316000010Generic ID - Pink inner tube                                                                                                150                                
PRCFAMCHA020201175316175404000048Dick Tracy - Tonight @ 10:40pm                                                                                              150                                
PROFAMCHA020201175404175417000013Even Stevens (WASSUP?) - Coming Up                                                                                          150                                
PROFAMCHA020201175417175510000053Your Big Break - Sundays @ 8pm                                                                                              150                                
PROFAMCHA020201175510175540000030Proud Family - Tomorrow @ 4:10pm                                                                                            150                                
INTFAMCHA020201175540175710000130Family X-Periment - Ep.37: The Flat-Lands                                                                             A10656120                                
PROFAMCHA020201175710175740000030Famous Jett Jackson - Tonight @ 6:30pm                                                                                      150                                
PROFAMCHA020201175740175810000030Lizzie McGuire (KATE) - Tomorrow @ 10:40am                                                                                  150                                
PROFAMCHA020201175810175843000033Totally Circus - Tomorrow @ 8:30am                                                                                          150                                
PROFAMCHA020201175843175913000030House of Mouse (ROLLERCOASTER) - Tomorrow @ 3:25pm                                                                          150                                
PRCFAMCHA020201175913175940000027Kiss & Tell Event - February 8 to 14                                                                                        150                                
PRCFAMCHA020201175940175950000010Morning Block menu background (flex time)                                                                                   150                                
ID FAMCHA020201175950180000000010xxMagic of Disney - V3(water) - TEEN FEMALE                                                                                 150                                
PROFAMCHA020201180000180008000008CC Is Brought To You By - Click Club                                                                                        150                                
PGRFAMCHA020201180008182250002242Even Stevens                                      Get A Job                                                           A6068807BCC                              
ID FAMCHA020201182250182255000005Generic ID - Couch 2*                                                                                                       150                                
PRCFAMCHA020201182255182343000048Dick Tracy - Tonight @ 10:40pm                                                                                              150                                
PROFAMCHA020201182343182413000030Famous Jett Jackson - Tonight @ 6:30pm                                                                                      150                                
PROFAMCHA020201182413182439000026Weekenders (FUNVILLE) - Tomorrow @ 4:35pm                                                                                   150                                
INTFAMCHA020201182439182609000130Family X-Periment - Ep.37: The Flat-Lands                                                                             A10656120                                
PROFAMCHA020201182609182706000057Your Big Break (MATCHBOX20) - Sunday @ 8pm                                                                                  150                                
INTFAMCHA020201182706182833000127Monkey Minutes - James Bond (vers 2 - after 7:30PM                                                                    A20688120                                
PROFAMCHA020201182833182857000024Honey, I Shrunk the Kids (AUG2001) - Tonight @ 8pm                                                                          150                                
PROFAMCHA020201182857182940000043Jumping Ship - Premieres Tomorrow @ 9pm                                                                                     150                                
PRCFAMCHA020201182940182950000010Morning Block menu background (flex time)                                                                                   150                                
ID FAMCHA020201182950183000000010xxMagic of Disney - V4 - TEEN FEMALE                                                                                        150                                
PROFAMCHA020201183000183008000008CC Is Brought To You By - Games                                                                                             150                                
PGRFAMCHA020201183008185441002433Famous Jett Jackson; The                          Premiere                                                      B57120 1065607ACC                              
ID FAMCHA020201185441185446000005Generic ID - Couch 2*                                                                                                       150                                
PRCFAMCHA020201185446185534000048Dick Tracy - Tonight @ 10:40pm                                                                                              150                                
PROFAMCHA020201185534185604000030Famous Jett Jackson - Coming Up                                                                                             150                                
PRCFAMCHA020201185604185702000058Mentors - CHATROOM (AUG2001) - Tomorrow @ 8:55am                                                                            150                                
PROFAMCHA020201185702185732000030Lizzie McGuire (KATE) - Tomorrow @ 10:40am                                                                                  150                                
PROFAMCHA020201185732185802000030Proud Family - Tomorrow @ 4:10pm                                                                                            150                                
INTFAMCHA020201185802185932000130Family X-Periment - Ep.34: Moonie                                                                                     A10656120                                
PRCFAMCHA020201185932185942000010Kiss & Tell Bumper (BOTTOM) - February 8 to 14                                                                              150                                
PRCFAMCHA020201185942185950000008Morning Block menu background (flex time)                                                                                   150                                
ID FAMCHA020201185950190000000010Prime time open top of hour                                                                                                 150                                
PROFAMCHA020201190000190008000008CC Is Brought To You By - Click Club                                                                                        150                                
PGRFAMCHA020201190008192239002231Jersey; The                                       The Prize                                                            6068607ACC                              
ID FAMCHA020201192239192254000015Generic ID - confetti                                                                                                       150                                
PRCFAMCHA020201192254192321000027Kiss & Tell Event - February 8 to 14                                                                                        150                                
PROFAMCHA020201192321192345000024Honey, I Shrunk the Kids (AUG2001) - Tonight @ 8pm                                                                          150                                
INTFAMCHA02020119234519244500010060 Seconds of Science - Balloons(14) (anywhere but                                                                     60688120                                
PROFAMCHA020201192445192550000105Your Big Break (CHRISTINA) - Sunday @ 8pm                                                                                   150                                
PROFAMCHA020201192550192629000039House of Mouse (DOOR) - Tomorrow @ 3:25pm                                                                                   150                                
INTFAMCHA020201192629192759000130Family X-Periment - Ep.32: Courtney's Goose                                                                           A10656120                                
PROFAMCHA020201192759192842000043Jumping Ship - Premieres Tomorrow @ 9pm                                                                                     150                                
PRCFAMCHA020201192842192930000048Dick Tracy - Tonight @ 10:40pm                                                                                              150                                
PRCFAMCHA020201192930192939000009Morning Block menu background (flex time)                                                                                   150                                
ID FAMCHA020201192939193000000021Prime time open count down                                                                                                  150                                
PROFAMCHA020201193000193009000009CC Is Brought To You By - Games                                                                                             150                                
PGRFAMCHA020201193009195138002129ALF                                               Consider Me Gone                                                    A2068807BCC                              
ID FAMCHA020201195138195153000015Generic ID - confetti                                                                                                       150                                
PRCFAMCHA020201195153195241000048Dick Tracy - Tonight @ 10:40pm                                                                                              150                                
PROFAMCHA020201195241195305000024Honey, I Shrunk the Kids (AUG2001) - Coming Up                                                                              150                                
PROFAMCHA020201195305195315000010MV FAMJAM - Teaser (Generic)                                                                                                150                                
PROFAMCHA020201195315195345000030Lizzie McGuire (KATE) - Tomorrow @ 10:40am                                                                                  150                                
INTFAMCHA020201195345195733000348xMV - I'm Not A Girl, Not Yet A Woman (Britney Spe                                                                    A20688120                                
PROFAMCHA020201195733195743000010MV Web Throw - music@family.ca                                                                                              150                                
INTFAMCHA020201195743195913000130Family X-Periment - Ep.36: The Candy Girl                                                                             A10656120                                
PRCFAMCHA020201195913195940000027Kiss & Tell Event - February 8 to 14                                                                                        150                                
PRCFAMCHA020201195940195950000010Morning Block menu background (flex time)                                                                                   150                                
ID FAMCHA020201195950200000000010xxMagic of Disney - V3(water) - ADULT MALE                                                                                  150                                
PGRFAMCHA020201200000204244004244Disney's Honey, I Shrunk The Kids: The TV Show    I'm Streakin'                                                        6068807B                                
ID FAMCHA020201204244204254000010Generic ID - Family w/dog                                                                                                   150                                
PRCFAMCHA020201204254204342000048Dick Tracy - Tonight @ 10:40pm                                                                                              150                                
PROFAMCHA020201204342204407000025Weekenders (TOAST-D12/WKNDS) - Weekends @ 4:35pm                                                                            150                                
PROFAMCHA020201204407204450000043Jumping Ship - Premieres Tomorrow @ 9pm                                                                                     150                                
ID FAMCHA020201204450204500000010Prime time open top of hour                                                                                                 150                                
PGRFAMCHA020201204500205739001239Are You Afraid of the Dark?                       Chameleons Pt.1                                               SR0306A1066807A                                
ID FAMCHA020201205739205744000005Generic ID - Marbles                                                                                                        150                                
PRCFAMCHA020201205744205832000048Dick Tracy - Tonight @ 10:40pm                                                                                              150                                
PROFAMCHA020201205832205902000030Weekenders (GENERIC-PT) - Tomorrow @ 4:35pm                                                                                 150                                
PRCFAMCHA020201205902205929000027Kiss & Tell Event - February 8 to 14                                                                                        150                                
PRCFAMCHA020201205929205940000011Morning Block menu background (flex time)                                                                                   150                                
ID FAMCHA020201205940210000000020Move open family size movie                                                                                                 150                                
PROFAMCHA020201210000210007000007Rating - PG - Ian                                                                                                           150                                
PGRFAMCHA020201210007223956013949Eddie                                                                                                                 B6028807D                                
ID FAMCHA020201223956224001000005Generic ID - Marbles                                                                                                        150                                
PRCFAMCHA020201224001224049000048Dick Tracy - Coming Up                                                                                                      150                                
ID FAMCHA020201224049224109000020Move open family size movie                                                                                                 150                                
PROFAMCHA020201224109224116000007Rating - PG - Lark                                                                                                          150                                
PGRFAMCHA020201224116002340014224Dick Tracy                                                                                                            B6068807D                                
ID FAMCHA020201002340002345000005Generic ID - Couch 1*                                                                                                       150                                
PROFAMCHA020201002345002353000008CC Is Brought To You By - Click Club                                                                                        150                                
PGRFAMCHA020201002353004522002129ALF                                               Consider Me Gone                                                    A2068807BCC                              
ID FAMCHA020201004522004527000005Generic ID - Marbles                                                                                                        150                                
PGRFAMCHA020201004527010959002432Are You Afraid Of The Dark?                       The Tale of Jake and the Leprechaun                           SR0302 1066807A                                
SO FAMCHA020201010959011011000012Sign Off (oct 1)                                                                                                                                               
OFFFAMCHA020201011011043000031949                                                                                                                                                               
SO FAMCHA020202043000043011000011Sign On (oct 1)                                                                                                                                                
PGRFAMCHA020202043011045331002320Out of the Box                                    Ships Ahoy                                                           60686110                                
ID FAMCHA020202045331045336000005Generic ID - Couch 2*                                                                                                       150                                
PROFAMCHA020202045336045350000014Art Attack (ART) - Coming Up                                                                                                150                                
ID FAMCHA020202045350045400000010Prime time open top of hour                                                                                                 150                                
PGRFAMCHA020202045400051410002010Art Attack                                        1-096                                                                60686110                                
ID FAMCHA020202051410051415000005Generic ID - Bubbles*                                                                                                       150                                
PROFAMCHA020202051415051432000017Katie and Orbie (OCT2001) - Coming Up                                                                                       150                                
PROFAMCHA020202051432051439000007PB&J Otter (AUG2001) - Kite - Today @ 5:25pm                                                                                150                                
ID FAMCHA020202051439051500000021Prime time open count down                                                                                                  150                                
PROFAMCHA020202051500051508000008CC Is Brought To You By - Ian **DNU AFTER 09/22**                                                                           150                                
PGRFAMCHA020202051508054143002635Katie And Orbie                                   Too Spooky For Me!/Nobody's Perfect/Two Fathers               C11896A1065607ECC                              
ID FAMCHA020202054143054148000005Generic ID - Couch 2*                                                                                                       150                                
PROFAMCHA020202054148054214000026DuckTales (CLIP) - Coming Up                                                                                                150                                
PROFAMCHA020202054214054229000015New Adv of WTP (AUG2001) - Poem - Today @ 5:50pm                                                                            150                                
PRCFAMCHA020202054229054239000010Morning Block menu background (flex time)                                                                                   150                                
ID FAMCHA020202054239054300000021Prime time open count down                                                                                                  150                                
PROFAMCHA020202054300054308000008CC Is Brought To You By - Lark **DNU AFTER 09/22**                                                                          150                                
PGRFAMCHA020202054308060553002245Disney's DuckTales                                The Good Muddahs                                                    A6068607ECC                              
ID FAMCHA020202060553060603000010Generic ID - confetti                                                                                                       150                                
PROFAMCHA020202060603060609000006Little Lulu (AUG2001) - Lulu - Coming Up                                                                                    150                                
PROFAMCHA020202060609060629000020Hoze Houndz (AUG2001) - Tonight @ 7:05pm                                                                                    150                                
PRCFAMCHA020202060629060639000010Morning Block menu background (flex time)                                                                                   150                                
ID FAMCHA020202060639060700000021Prime time open count down                                                                                                  150                                
PROFAMCHA020202060700060708000008CC Is Brought To You By - Ian **DNU AFTER 09/22**                                                                           150                                
PGRFAMCHA020202060708063100002352Little Lulu Show; The                             The Bogeyman/Tattoos/Mimibur                                  C19511A1065607ECC                              
ID FAMCHA020202063100063111000011Generic ID - soccer                                                                                                         150                                
PROFAMCHA020202063111063139000028Stanley (ELEPHANT) - Today @ 5pm                                                                                            150                                
ID FAMCHA020202063139063200000021Prime time open count down                                                                                                  150                                
PGRFAMCHA020202063200065441002241Madeline                                          Madeline on Stage                                                    6068607E                                
ID FAMCHA020202065441065446000005Generic ID - Couch 1*                                                                                                       150                                
PROFAMCHA020202065446065506000020Disney's One, Too (AUG2001) - Weekdays @ 4pm                                                                                150                                
ID FAMCHA020202065506065519000013Schoolhouse Promo - Coming Up                                                                                               150                                
PROFAMCHA020202065519065558000039Weekenders (CLOSET-D12/WKNDS) - Today @ 4:35pm                                                                              150                                
INTFAMCHA020202065558065921000323Schoolhouse Rock - The Four-Legged Zoo                                                                                A60686120                                
PROFAMCHA020202065921065940000019House of Mouse (PINOCCHIO) - Today @ 3:25pm                                                                                 150                                
PRCFAMCHA020202065940065950000010Morning Block menu background (flex time)                                                                                   150                                
ID FAMCHA020202065950070000000010Prime time open top of hour                                                                                                 150                                
PGRFAMCHA020202070000072421002421Adventures of Pete & Pete; The                    The Night Crawlers                                                  A2068607B                                
ID FAMCHA020202072421072431000010Generic ID - Family w/dog                                                                                                   150                                
PRCFAMCHA020202072431072458000027Kiss & Tell Event - February 8 to 14                                                                                        150                                
ID FAMCHA020202072458072514000016Schoolhouse Promo (PT) - Coming Up                                                                                          150                                
PROFAMCHA020202072514072544000030Mighty Ducks (AUG2001) - Coming Up                                                                                          150                                
INTFAMCHA020202072544072907000323Schoolhouse Rock - Interplanet Janet                                                                                  A60686120                                
PROFAMCHA020202072907072950000043Jumping Ship - Premieres Tonight @ 9pm                                                                                      150                                
ID FAMCHA020202072950073000000010xxMagic of Disney - V2(sky) - TEEN FEMALE                                                                                   150                                
PGRFAMCHA020202073000075240002240Mighty Ducks: The Animated Series                 The Final Face Off                                                  A6028607E                                
ID FAMCHA020202075240075245000005Generic ID - Fingerpaint                                                                                                    150                                
PROFAMCHA020202075245075328000043Jumping Ship - Premieres Tonight @ 9pm                                                                                      150                                
ID FAMCHA020202075328075348000020Schoolhouse Promo (PT) - Coming Up                                                                                          150                                
PROFAMCHA020202075348075407000019House of Mouse (PINOCCHIO) - Today @ 3:25pm                                                                                 150                                
INTFAMCHA020202075407075730000323Schoolhouse Rock - The Body Machine                                                                                   A60686120                                
PROFAMCHA020202075730075759000029Recess (COOL VINCE-D12/WKNDS) - Weekdays @ 5:30pm                                                                           150                                
INTFAMCHA020202075759075929000130Family X-Periment - Ep.35: The Taste Test                                                                             A10656120                                
PRCFAMCHA020202075929075939000010Kiss & Tell Bumper (BOTTOM) - February 8 to 14                                                                              150                                
ID FAMCHA020202075939080000000021Prime time open count down                                                                                                  150                                
PGRFAMCHA020202080000082244002244Totally Hoops                                     1-004                                                               A6068607A                                
ID FAMCHA020202082244082254000010Generic ID - Hula Hoop                                                                                                      150                                
PRCFAMCHA020202082254082321000027Kiss & Tell Event - February 8 to 14                                                                                        150                                
PROFAMCHA020202082321082354000033Totally Circus - Coming Up                                                                                                  150                                
INTFAMCHA020202082354082524000130Family X-Periment - Ep.38: The Travellers                                                                             A10656120                                
ID FAMCHA020202082524082606000042Wonder Kid - Clean Up                                                                                                       150                                
ID FAMCHA020202082606082620000014Wonder Kid Tag - Male                                                                                                       150                                
PROFAMCHA020202082620082715000055Your Big Break (INTERLUDE) - Tomorrow @ 8pm                                                                                 150                                
INTFAMCHA020202082715082845000130Family X-Periment - Ep.37: The Flat-Lands                                                                             A10656120                                
PROFAMCHA020202082845082928000043Jumping Ship - Premieres Tonight @ 9pm                                                                                      150                                
PRCFAMCHA020202082928082939000011Morning Block menu background (flex time)                                                                                   150                                
ID FAMCHA020202082939083000000021Prime time open count down                                                                                                  150                                
PROFAMCHA020202083000083008000008CC Is Brought To You By - Games                                                                                             150                                
PGRFAMCHA020202083008085408002400Totally Circus                                    1-002                                                               A6068607ACC                              
ID FAMCHA020202085408085413000005Generic ID - Fingerpaint                                                                                                    150                                
PROFAMCHA020202085413085456000043Jumping Ship - Premieres Tonight @ 9pm                                                                                      150                                
ID FAMCHA020202085456085536000040Wonder Kid - Coin                                                                                                           150                                
ID FAMCHA020202085536085550000014Wonder Kid Tag - Female                                                                                                     150                                
PROFAMCHA020202085550085629000039House of Mouse (DOOR) - Today @ 3:25pm                                                                                      150                                
PRCFAMCHA020202085629085639000010Kiss & Tell Bumper (BOTTOM) - February 8 to 14                                                                              150                                
ID FAMCHA020202085639085700000021Prime time open count down                                                                                                  150                                
PROFAMCHA020202085700085708000008CC Is Brought To You By - Click Club                                                                                        150                                
PGRFAMCHA020202085708092019002311Mentors                                           The Truth Is In Here                                          C17437 1055607ACC3                             
ID FAMCHA020202092019092029000010Generic ID - Pink inner tube                                                                                                150                                
PRCFAMCHA020202092029092056000027Kiss & Tell Event - February 8 to 14                                                                                        150                                
ID FAMCHA020202092056092133000037Wonder Kid - Artist 1                                                                                                       150                                
ID FAMCHA020202092133092144000011Wonder Kid Tag - Female                                                                                                     150                                
PROFAMCHA020202092144092207000023Buzz Lightyear (POSTERITY) - Weekdays @ 4pm                                                                                 150                                
PROFAMCHA020202092207092250000043Jumping Ship - Premieres Tonight @ 9pm                                                                                      150                                
ID FAMCHA020202092250092300000010xxMagic of Disney - V2(sky) - TEEN MALE                                                                                     150                                
PGRFAMCHA020202092300094535002235Jersey; The                                       Surfing                                                             A6068807A                                
ID FAMCHA020202094535094546000011Generic ID - soccer                                                                                                         150                                
PROFAMCHA020202094546094629000043Jumping Ship - Premieres Tonight @ 9pm                                                                                      150                                
INTFAMCHA020202094629094759000130Family X-Periment - Ep.36: The Candy Girl                                                                             A10656120                                
PROFAMCHA020202094759094829000030House of Mouse (JAN2002) - Today @ 3:25pm                                                                                   150                                
PRCFAMCHA020202094829094839000010Kiss & Tell Bumper (BOTTOM) - February 8 to 14                                                                              150                                
PRCFAMCHA020202094839094850000011Morning Block menu background (flex time)                                                                                   150                                
ID FAMCHA020202094850094900000010xxMagic of Disney - V3(water) - TEEN FEMALE                                                                                 150                                
PGRFAMCHA020202094900101304002404So Weird                                          Avatar                                                               6068807A                                
ID FAMCHA020202101304101315000011Generic ID - soccer                                                                                                         150                                
PRCFAMCHA020202101315101342000027Kiss & Tell Event - February 8 to 14                                                                                        150                                
PROFAMCHA020202101342101412000030Famous Jett Jackson - Coming Up                                                                                             150                                
PROFAMCHA020202101412101445000033Your Big Break (MADONNA) - Tomorrow @ 8pm                                                                                   150                                
PROFAMCHA020202101445101528000043Jumping Ship - Premieres Tonight @ 9pm                                                                                      150                                
PRCFAMCHA020202101528101539000011Morning Block menu background (flex time)                                                                                   150                                
ID FAMCHA020202101539101600000021Prime time open count down                                                                                                  150                                
PROFAMCHA020202101600101608000008CC Is Brought To You By - Games                                                                                             150                                
PGRFAMCHA020202101608104041002433Famous Jett Jackson; The                          Field of Dweebs                                               B57119 1065607ACC                              
ID FAMCHA020202104041104047000006Generic ID - soccer                                                                                                         150                                
PROFAMCHA020202104047104130000043Jumping Ship - Premieres Tonight @ 9pm                                                                                      150                                
PROFAMCHA020202104130104200000030Lizzie McGuire (KATE) - Coming Up                                                                                           150                                
INTFAMCHA020202104200104330000130Family X-Periment - Ep.35: The Taste Test                                                                             A10656120                                
PRCFAMCHA020202104330104340000010Kiss & Tell Bumper (BOTTOM) - February 8 to 14                                                                              150                                
PRCFAMCHA020202104340104350000010Morning Block menu background (flex time)                                                                                   150                                
ID FAMCHA020202104350104400000010xxMagic of Disney - V3(water) - TEEN MALE                                                                                   150                                
PGRFAMCHA020202104400110635002235Lizzie McGuire                                    Picture Day                                                         A6068607B                                
ID FAMCHA020202110635110650000015Generic ID - confetti                                                                                                       150                                
PRCFAMCHA020202110650110717000027Kiss & Tell Event - February 8 to 14                                                                                        150                                
INTFAMCHA020202110717110847000130Family X-Periment - Ep.38: The Travellers                                                                             A10656120                                
PROFAMCHA020202110847110930000043Jumping Ship - Premieres Tonight @ 9pm                                                                                      150                                
PRCFAMCHA020202110930110939000009Morning Block menu background (flex time)                                                                                   150                                
ID FAMCHA020202110939111000000021Prime time open count down                                                                                                  150                                
PROFAMCHA020202111000111008000008CC Is Brought To You By - Click Club                                                                                        150                                
PGRFAMCHA020202111008113137002129ALF                                               Wanted Dead Or Alive                                                A2068807BCC                              
ID FAMCHA020202113137113152000015Generic ID - confetti                                                                                                       150                                
PROFAMCHA020202113152113235000043Jumping Ship - Premieres Tonight @ 9pm                                                                                      150                                
PROFAMCHA020202113235113302000027Even Stevens (DREAM) - Coming Up                                                                                            150                                
INTFAMCHA020202113302113432000130Family X-Periment - Ep.39: T-Rex                                                                                      A10656120                                
PROFAMCHA020202113432113440000008MV Web Throw - family.ca                                                                                                    150                                
PRCFAMCHA020202113440113450000010Kiss & Tell Bumper (BOTTOM) - February 8 to 14                                                                              150                                
ID FAMCHA020202113450113500000010xxMagic of Disney - V4 - TEEN FEMALE                                                                                        150                                
PGRFAMCHA020202113500115742002242Even Stevens                                      Take My Sister...Please                                             A6068807B                                
ID FAMCHA020202115742115747000005Generic ID - Bubbles*                                                                                                       150                                
PRCFAMCHA020202115747115814000027Kiss & Tell Event - February 8 to 14                                                                                        150                                
PROFAMCHA020202115814115847000033Your Big Break (MADONNA) - Tomorrow @ 8pm                                                                                   150                                
PROFAMCHA020202115847115930000043Jumping Ship - Premieres Tonight @ 9pm                                                                                      150                                
PRCFAMCHA020202115930115940000010Morning Block menu background (flex time)                                                                                   150                                
ID FAMCHA020202115940120000000020Move open family size movie                                                                                                 150                                
PROFAMCHA020202120000120008000008Rating - G - Ian                                                                                                            150                                
PROFAMCHA020202120008120016000008CC Is Brought To You By - Games                                                                                             150                                
PROFAMCHA020202120016120057000041Vault Disney Opening                                                                                                        150                                
PGRFAMCHA020202120057134419014322Cat From Outer Space; The                                                                                             A6068807DCC                              
ID FAMCHA020202134419134424000005Generic ID - Couch 1*                                                                                                       150                                
PROFAMCHA020202134424134440000016Legend of Tarzan (THUNDER-D12/WKNDS) - Weekdays @                                                                           150                                
ID FAMCHA020202134440134500000020Move open family size movie                                                                                                 150                                
PROFAMCHA020202134500134508000008Rating - G - Lark                                                                                                           150                                
PGRFAMCHA020202134508150013011505Adventures of Milo and Otis; The                                                                                      A2068807D                                
ID FAMCHA020202150013150018000005Generic ID - Couch 2*                                                                                                       150                                
PROFAMCHA020202150018150026000008CC Is Brought To You By - Games                                                                                             150                                
PGRFAMCHA020202150026152301002235Nightmare Ned                                     Willie Trout/House Of Games                                         A6068607ECC                              
ID FAMCHA020202152301152311000010Generic ID - confetti                                                                                                       150                                
PRCFAMCHA020202152311152338000027Kiss & Tell Event - February 8 to 14                                                                                        150                                
PROFAMCHA020202152338152357000019House of Mouse (PINOCCHIO) - Coming Up                                                                                      150                                
PROFAMCHA020202152357152440000043Jumping Ship - Premieres Tonight @ 9pm                                                                                      150                                
ID FAMCHA020202152440152501000021Prime time open count down                                                                                                  150                                
PGRFAMCHA020202152501154733002232Disney's House Of Mouse                           The Mouse Who Came To Dinner                                        A6068607E                                
ID FAMCHA020202154733154738000005Generic ID - Couch 2*                                                                                                       150                                
PRCFAMCHA020202154738154748000010Kiss & Tell Bumper (BOTTOM) - February 8 to 14                                                                              150                                
ID FAMCHA020202154748154817000029Wonder Kid - Athlete                                                                                                        150                                
ID FAMCHA020202154817154828000011Wonder Kid Tag - Female                                                                                                     150                                
PRCFAMCHA020202154828154839000011Morning Block menu background (flex time)                                                                                   150                                
ID FAMCHA020202154839154900000021Prime time open count down                                                                                                  150                                
PROFAMCHA020202154900154908000008CC Is Brought To You By - Click Club                                                                                        150                                
PGRFAMCHA020202154908161037002129ALF                                               Wanted Dead Or Alive                                                A2068807BCC                              
ID FAMCHA020202161037161042000005Generic ID - Bubbles*                                                                                                       150                                
PRCFAMCHA020202161042161109000027Kiss & Tell Event - February 8 to 14                                                                                        150                                
PROFAMCHA020202161109161139000030Proud Family - Coming Up                                                                                                    150                                
ID FAMCHA020202161139161156000017Web Fun Stuff - Female                                                                                                      150                                
PROFAMCHA020202161156161239000043Jumping Ship - Premieres Tonight @ 9pm                                                                                      150                                
ID FAMCHA020202161239161300000021Prime time open count down                                                                                                  150                                
PROFAMCHA020202161300161308000008CC Is Brought To You By - Games                                                                                             150                                
PGRFAMCHA020202161308163522002214Proud Family; The                                 Bring It On                                                         A6068807ECC                              
ID FAMCHA020202163522163527000005Generic ID - Fingerpaint                                                                                                    150                                
