SO FAMCHA030501043000043011000011Sign On (oct 1)                                                                                                                                                
PROFAMCHA030501043011043020000009CC Disclaimer - FAST - Generic (:08-:10)                                                                                    150                                
PGRFAMCHA030501043020045313002253Franklin                                          Rival/The Trading Cards                                       B38155A1065607ECC                              
PROFAMCHA030501045313045326000013Preschool - 01(PH) - ART/KATIE/FRANKLIN (:13-:16)                                                                           150                                
OFFFAMCHA030501045326045336000010PS Playhouse Block Open (:10-:15)                                                                                                                              
PGRFAMCHA030501045336051346002010Art Attack                                        1-077                                                                60686110                                
PROFAMCHA030501051346051359000013Preschool - 02(PH) - KATIE/FRANKLIN/RIPLEY (:13-:1                                                                          150                                
OFFFAMCHA030501051359051409000010PS Playhouse Block Open (:10-:15)                                                                                                                              
PGRFAMCHA030501051409054044002635Katie And Orbie                                   Orbie and the Tuba/Great Uncle David/Andy's Birthd            P16148A1065607E                                
PROFAMCHA030501054044054057000013Preschool - 03(PH) - FRANKLIN/RIPLEY/HOZE (:13-:16                                                                          150                                
OFFFAMCHA030501054057054107000010PS Playhouse Block Open (:10-:15)                                                                                                                              
PROFAMCHA030501054107054116000009CC Disclaimer - FAST - Family (:08-:10)                                                                                     150                                
PGRFAMCHA030501054116060409002253Franklin                                          Robot/The Detective                                           B38156A1065607ECC                              
PROFAMCHA030501060409060422000013Preschool - 04(PG) - RIPLEY/HOZE/BUZZ (:13-:16)                                                                             150                                
OFFFAMCHA030501060422060432000010PS Playground Block Open (:10-:15) *DNU POST AUG 1                                                                                                             
PROFAMCHA030501060432060441000009CC Disclaimer - FAST - Family.ca (:08-:10)                                                                                  150                                
PGRFAMCHA030501060441062911002430Ripley's Believe It Or Not!                       Love's Many Charms                                            B21806 1065607ECC                              
PROFAMCHA030501062911062923000012Preschool - 05(PG) - HOZE/BUZZ (:10-:13)                                                                                    150                                
PROFAMCHA030501062923062947000024Legend of Tarzan (S.O.S) - Today @ 4:15pm                                                                                   150                                
OFFFAMCHA030501062947063000000013PS Playground Block Open (:10-:15) *DNU POST AUG 1                                                                                                             
PROFAMCHA030501063000063009000009CC Disclaimer - FAST - Click Club (:08-:10) **DNU*                                                                          150                                
PGRFAMCHA030501063009065243002234Hoze Houndz                                       Bonehead Houndz/Moltese Chicken                               B17132A1065607ECC                              
PROFAMCHA030501065243065257000014Preschool - 06(PB) - BUZZ/PRLR/PRWF (:13-:16)                                                                               150                                
PROFAMCHA030501065257065342000045Lizzie McGuire (MAGIC TRICK) - Today @ 5:35pm                                                                               150                                
PROFAMCHA030501065342065412000030PR Ninja Storm - Tomorrow @ 8am                                                                                             150                                
PROFAMCHA030501065412065422000010FAMJAM - Open                                                                                                               150                                
INTFAMCHA030501065422065813000351MV Disney - Miracles Happen (MYRA)                                                                                     60688120                                
PROFAMCHA030501065813065827000014FAMJAM - Close (EMAIL)                                                                                                      150                                
PROFAMCHA030501065827065915000048Amanda Show (JACUZZI) - Tonight @ 6pm                                                                                       150                                
PROFAMCHA030501065915065945000030Even Stevens (NEW) - Tonight @ 7pm                                                                                          150                                
OFFFAMCHA030501065945070000000015PS Power Box Block Open (:10-:15)                                                                                                                              
PROFAMCHA030501070000070009000009CC Disclaimer - FAST - Generic (:08-:10)                                                                                    150                                
PGRFAMCHA030501070009072250002241Disney/Pixar's Buzz Lightyear of Star Command     Strange Invasion                                                     6068607ECC                              
PROFAMCHA030501072250072304000014Preschool - 07(PB) - PRLR/PRWF/HOM (:13-:16)                                                                                150                                
PROFAMCHA030501072304072334000030That's So Raven - Weekends @ 5:25pm                                                                                         150                                
PROFAMCHA030501072334072344000010FAMJAM - Open                                                                                                               150                                
INTFAMCHA030501072344072733000349MV Disney - Dancing In The Street (MYRA)                                                                               60688120                                
PROFAMCHA030501072733072747000014FAMJAM - Close (FAMILY)                                                                                                     150                                
PROFAMCHA030501072747072817000030PR Ninja Storm - Tomorrow @ 8am                                                                                             150                                
PROFAMCHA030501072817072917000100Amanda Show (UNDERPANTS) - Tonight @ 6pm                                                                                    150                                
PROFAMCHA030501072917072947000030You Wish - Weekends @ 11:35am                                                                                               150                                
OFFFAMCHA030501072947073000000013PS Power Box Block Open (:10-:15)                                                                                                                              
PGRFAMCHA030501073000075127002127Power Rangers Lightspeed Rescue                   Wheels of Destruction                                               A6068607E                                
PROFAMCHA030501075127075139000012Preschool - 08(PB) - PRWF/HOM (:10-:13)                                                                                     150                                
PROFAMCHA030501075139075209000030Recess (NEW) - Today @ 12:15pm                                                                                              150                                
PROFAMCHA030501075209075239000030Mad Dash (TIME) - Today, Starting @ 3pm                                                                                     150                                
INTFAMCHA030501075239075409000130Klootz - Western 01                                                                                                   A10658120                                
PROFAMCHA030501075409075439000030PR Ninja Storm - Tomorrow @ 8am                                                                                             150                                
INTFAMCHA030501075439075916000437Art Attack - Down Town                                                                                                 60686120                                
PROFAMCHA030501075916075946000030xxSaturday Sideshow (GAMES) - Lizzie @ 5pm                                                                                  150                                
OFFFAMCHA030501075946080000000014PS Power Box Block Open (:10-:15)                                                                                                                              
PROFAMCHA030501080000080009000009CC Disclaimer - FAST - Family (:08-:10)                                                                                     150                                
PGRFAMCHA030501080009082138002129Power Rangers Wild Force                          The Master's Herald, Part I                                         A6068607ECC                              
PROFAMCHA030501082138082148000010Preschool - 09(PB) - HOM (:08-:11)                                                                                          150                                
PROFAMCHA030501082148082218000030Mad Dash (TIME) - Today, Starting @ 3pm                                                                                     150                                
PROFAMCHA030501082218082318000100Amanda Show (UNDERPANTS) - Tonight @ 6pm                                                                                    150                                
PROFAMCHA030501082318082328000010FAMJAM - Open                                                                                                               150                                
INTFAMCHA030501082328082750000422MV Disney - True To Your Heart (98 DEGREES/STEVIE                                                                      60688120                                
PROFAMCHA030501082750082804000014FAMJAM - Close (FAMILY)                                                                                                     150                                
PROFAMCHA030501082804082816000012Buzz Lightyear (SPACE RANGER) - Today @ 3:25pm                                                                              150                                
PROFAMCHA030501082816082846000030PR Ninja Storm - Tomorrow @ 8am                                                                                             150                                
PROFAMCHA030501082846082916000030Popcorn Pix Movie Promo - Tomorrow @ 7:30pm                                                                                 150                                
PROFAMCHA030501082916082946000030You Wish - Weekends @ 11:35am                                                                                               150                                
OFFFAMCHA030501082946083000000014PS Power Box Block Open (:10-:15)                                                                                                                              
PGRFAMCHA030501083000085238002238Disney's House Of Mouse                           Gone Goofy                                                           6068607E                                
PROFAMCHA030501085238085252000014Preschool - 10(PH) - ELMO/KATIE/STANLEY (:13-:16)                                                                           150                                
PRCFAMCHA030501085252085330000038Katie & Orbie (CLAY) - Today @ 9:15am                                                                                       150                                
PROFAMCHA030501085330085416000046Playhouse - STANLEY - Squirrel Song                                                                                         150                                
PRCFAMCHA030501085416085447000031Book of Pooh (SURPRISE) - Today @ 10:10am                                                                                   150                                
OFFFAMCHA030501085447085500000013PS Playhouse Block Open (:10-:15)                                                                                                                              
PGRFAMCHA030501085500091153001653Elmo's World                                      Dogs                                                                A2068607G                                
PROFAMCHA030501091153091207000014Preschool - 11(PH-TT) - KATIE/STANLEY/BOP (:13-:16                                                                          150                                
PRCFAMCHA030501091207091235000028Book of Pooh (DANCE) - Today @ 10:10am                                                                                      150                                
PROFAMCHA030501091235091310000035Playhouse - KATIE & ORBIE - Did You Know?                                                                                   150                                
PRCFAMCHA030501091310091345000035Franklin (CANOE) - Today @ 11am                                                                                             150                                
OFFFAMCHA030501091345091400000015PS Playhouse Block Open (:10-:15)                                                                                                                              
PROFAMCHA030501091400091409000009CC Disclaimer - FAST - Family.ca (:08-:10)                                                                                  150                                
PGRFAMCHA030501091409094044002635Katie And Orbie                                   Garage Sale/Big Heart/How Does The Band Fit                   C11896A1065607ECC                              
PROFAMCHA030501094044094058000014Preschool - 12(PH-TT) - STANLEY/BOP/OOTB (:13-:16)                                                                          150                                
PRCFAMCHA030501094058094129000031Book of Pooh (SURPRISE) - Today @ 10:10am                                                                                   150                                
PRCFAMCHA030501094129094154000025Henry's World (YARD) - Weekends @ 7:05pm                                                                                    150                                
PROFAMCHA030501094154094218000024Playhouse - BOOK OF POOH - Big Bee *DNU*                                                                                    150                                
PRCFAMCHA030501094218094249000031Franklin (HANKY) - Today @ 11am                                                                                             150                                
OFFFAMCHA030501094249094300000011PS Playhouse Block Open (:10-:15)                                                                                                                              
PROFAMCHA030501094300094309000009CC Disclaimer - FAST - Click Club (:08-:10) **DNU*                                                                          150                                
PGRFAMCHA030501094309100707002358Stanley                                           Platypus Problems/Rabbit Habit                                      A6068607ECC                              
PROFAMCHA030501100707100721000014Preschool - 13(PH-TT) - BOP/OOTB/FRANKLIN (:13-:16                                                                          150                                
PRCFAMCHA030501100721100737000016Book of Pooh (SUGGESTION BOX) - Coming Up                                                                                   150                                
PRCFAMCHA030501100737100808000031Franklin (HANKY) - Today @ 11am                                                                                             150                                
PROFAMCHA030501100808100838000030Playhouse - FRANKLIN - Skunk                                                                                                150                                
OFFFAMCHA030501100838100852000014PS Playhouse Block Open (:10-:15)                                                                                                                              
ID FAMCHA030501100852100900000008Magic of Disney - PLAYHOUSE - Shape (:06-:09)                                                                               150                                
PGRFAMCHA030501100900103302002402Book Of Pooh; The                                 Mother of Invention/Once Upon A Happy Ending                        A6068607G                                
PROFAMCHA030501103302103316000014Preschool - 14(PH) - OOTB/FRANKLIN/DUCKTALES (:13-                                                                          150                                
PROFAMCHA030501103316103346000030Playhouse Block Promo (AM) - Weekdays                                                                                       150                                
OFFFAMCHA030501103346103400000014PS Playhouse Block Open (:10-:15)                                                                                                                              
PGRFAMCHA030501103400105805002405Out of the Box                                    Kids Are Kids                                                       A6068607A                                
PROFAMCHA030501105805105819000014Preschool - 15(PH) - FRANKLIN/DUCKTALES/AMANDA (:1                                                                          150                                
PRCFAMCHA030501105819105857000038Katie & Orbie (HIBERNATE) - Today @ 12:55pm                                                                                 150                                
PRCFAMCHA030501105857105945000048New Adv WTP (FOREST) - Tomorrow @ 10:10am                                                                                   150                                
OFFFAMCHA030501105945110000000015PS Playhouse Block Open (:10-:15)                                                                                                                              
PROFAMCHA030501110000110009000009CC Disclaimer - FAST - Generic (:08-:10)                                                                                    150                                
PGRFAMCHA030501110009112302002253Franklin                                          Fearless/Lucky Charm                                          B38157A1065607ECC                              
PROFAMCHA030501112302112314000012Preschool - 16(PH) - DUCKTALES/AMANDA (:10-:13)                                                                             150                                
PRCFAMCHA030501112314112339000025New Adv WTP (TALK BACK) - Tomorrow @ 10:10am                                                                                150                                
PROFAMCHA030501112339112445000106Playhouse - WINNIE THE POOH - Christopher Robin                                                                             150                                
OFFFAMCHA030501112445112500000015PS Playhouse Block Open (:10-:15)                                                                                                                              
PROFAMCHA030501112500112509000009CC Disclaimer - FAST - Family (:08-:10)                                                                                     150                                
PGRFAMCHA030501112509114754002245Disney's DuckTales                                The Good Muddahs                                                    A6068607ECC                              
PROFAMCHA030501114754114808000014Preschool - 17(OTL) - AMANDA/RECESS/ELMO (:13-:16)                                                                          150                                
PROFAMCHA030501114808114838000030Mad Dash (TIME) - Today, Starting @ 3pm                                                                                     150                                
PROFAMCHA030501114838114917000039Power Box (WEEKDAYS) - Tomorrow, Starting @ 7am                                                                             150                                
PROFAMCHA030501114917114947000030Recess (NEW) - Today @ 12:15pm                                                                                              150                                
OFFFAMCHA030501114947115000000013Mad Dash Block Open (:10-:15)                                                                                                                                  
PGRFAMCHA030501115000121308002308Amanda Show; The                                  2-040                                                               A20686090                                
PROFAMCHA030501121308121324000016Preschool - 18(OTL) - RECESS/ELMO/KATIE (:13-:16)                                                                           150                                
PROFAMCHA030501121324121354000030Mad Dash (TIME) - Today, Starting @ 3pm                                                                                     150                                
PROFAMCHA030501121354121444000050Art Attack (BASEBALL) - Weekends @ 3pm                                                                                      150                                
OFFFAMCHA030501121444121459000015Mad Dash Block Open (:10-:15)                                                                                                                                  
PGRFAMCHA030501121459123735002236Disney's Recess                                   The Barnaby Boys/Buried Treasure                                     6068607E                                
PROFAMCHA030501123735123748000013Preschool - 19(PH) - ELMO/KATIE/OOTB (:13-:16)                                                                              150                                
OFFFAMCHA030501123748123800000012PS Playhouse Block Open (:10-:15)                                                                                                                              
PGRFAMCHA030501123800125333001533Elmo's World                                      Bananas                                                             A2068607G                                
PROFAMCHA030501125333125347000014Preschool - 20(PH) - KATIE/OOTB/HOZE (:13-:16)                                                                              150                                
PRCFAMCHA030501125347125422000035Franklin (CANOE) - Tomorrow @ 11am                                                                                          150                                
PROFAMCHA030501125422125518000056Playhouse - STANLEY - Fish Song                                                                                             150                                
PRCFAMCHA030501125518125545000027New Adv WTP (TOOTH) - Tomorrow @ 10:10am                                                                                    150                                
OFFFAMCHA030501125545125600000015PS Playhouse Block Open (:10-:15)                                                                                                                              
PROFAMCHA030501125600125609000009CC Disclaimer - FAST - Family.ca (:08-:10)                                                                                  150                                
PGRFAMCHA030501125609132244002635Katie And Orbie                                   Close To My Heart/Frozen Fish Cafe/Katie's First..            C11896A1065607ECC                              
PROFAMCHA030501132244132257000013Preschool - 21(PH) - OOTB/HOZE/GOOF (:13-:16)                                                                               150                                
OFFFAMCHA030501132257132307000010PS Playhouse Block Open (:10-:15)                                                                                                                              
PROFAMCHA030501132307132316000009CC Disclaimer - FAST - Click Club (:08-:10) **DNU*                                                                          150                                
PGRFAMCHA030501132316134521002205Out of the Box                                    Feet First                                                           60686110CC                              
PROFAMCHA030501134521134534000013Preschool - 22(PG) - HOZE/GOOF/DUCKTALES (:13-:16)                                                                          150                                
PRCFAMCHA030501134534134616000042Henry's World (GERMS) - Weekends @ 7:05pm                                                                                   150                                
PROFAMCHA030501134616134646000030Playground Block Promo (MAR) - Weekdays                                                                                     150                                
PROFAMCHA030501134646134700000014Playground - HOZE HOUNDZ - Skater                                                                                           150                                
PROFAMCHA030501134700134750000050Art Attack (BASEBALL) - Weekends @ 3pm                                                                                      150                                
OFFFAMCHA030501134750134800000010PS Playground Block Open (:10-:15) *DNU POST AUG 1                                                                                                             
PROFAMCHA030501134800134809000009CC Disclaimer - FAST - Generic (:08-:10)                                                                                    150                                
PGRFAMCHA030501134809141044002235Hoze Houndz                                       Ship Of Fools/Room and Boards                                 B45774A1065607ECC                              
PROFAMCHA030501141044141056000012Preschool - 23(PG) - GOOF/DUCKTALES (:10-:13)                                                                               150                                
PROFAMCHA030501141056141126000030Mad Dash (TIME) - Today, Starting @ 3pm                                                                                     150                                
PROFAMCHA030501141126141138000012Buzz Lightyear (SPACE RANGER) - Today @ 3:25pm                                                                              150                                
OFFFAMCHA030501141138141152000014PS Playground Block Open (:10-:15) *DNU POST AUG 1                                                                                                             
ID FAMCHA030501141152141200000008Magic of Disney - PLAYGROUND - Wipe (:06-:09) *DNU                                                                          150                                
PROFAMCHA030501141200141209000009CC Disclaimer - FAST - Family (:08-:10)                                                                                     150                                
PGRFAMCHA030501141209143455002246Goof Troop                                        Big City Blues                                                      A6068607ECC                              
PROFAMCHA030501143455143505000010Preschool - 24(PG) - DUCKTALES (:08-:11)                                                                                    150                                
PROFAMCHA030501143505143532000027Pepper Ann (WHO IS SHE?) - Today @ 3:50pm                                                                                   150                                
PROFAMCHA030501143532143547000015Weekenders (REALITY) - Today @ 4:40pm                                                                                       150                                
OFFFAMCHA030501143547143600000013PS Playground Block Open (:10-:15) *DNU POST AUG 1                                                                                                             
PROFAMCHA030501143600143609000009CC Disclaimer - FAST - Family.ca (:08-:10)                                                                                  150                                
PGRFAMCHA030501143609145855002246Disney's DuckTales                                My Mother The Psychic                                               A6068607ECC                              
PROFAMCHA030501145855145909000014MD - 01 - HOUSE/BUZZ/PEPPER (:13-:16)                                                                                       150                                
PROFAMCHA030501145909145946000037Kim Possible (RON THE MAN) - Weekends @ 4:35pm                                                                              150                                
OFFFAMCHA030501145946150000000014Mad Dash Block Open (:10-:15)                                                                                                                                  
PGRFAMCHA030501150000152237002237Disney's House Of Mouse                           Humphrey In The House                                               A6068607E                                
PROFAMCHA030501152237152250000013MD - 02 - BUZZ/PEPPER/TARZAN (:13-:16)                                                                                      150                                
PROFAMCHA030501152250152320000030Popcorn Pix Movie Promo - Tomorrow @ 7:30pm                                                                                 150                                
PROFAMCHA030501152320152350000030Mad Dash (TIME) - Weekdays, Starting @ 3pm                                                                                  150                                
PROFAMCHA030501152350152450000100Amanda Show (UNDERPANTS) - Tonight @ 6pm                                                                                    150                                
OFFFAMCHA030501152450152500000010Mad Dash Block Open (:10-:15)                                                                                                                                  
PROFAMCHA030501152500152509000009CC Disclaimer - FAST - Click Club (:08-:10) **DNU*                                                                          150                                
PGRFAMCHA030501152509154703002154Disney/Pixar's Buzz Lightyear of Star Command     Root of Evil                                                         6068607ECC                              
PROFAMCHA030501154703154717000014MD - 03 - PEPPER/TARZAN/WKNDRS (:13-:16)                                                                                    150                                
PROFAMCHA030501154717154747000030All That (NEW) - Tonight @ 6:30pm                                                                                           150                                
INTFAMCHA030501154747154917000130Klootz - Oasis 01                                                                                                     A10658120                                
PROFAMCHA030501154917154947000030That's So Raven - Weekends @ 5:25pm                                                                                         150                                
OFFFAMCHA030501154947155000000013Mad Dash Block Open (:10-:15)                                                                                                                                  
PROFAMCHA030501155000155009000009CC Disclaimer - FAST - Generic (:08-:10)                                                                                    150                                
PGRFAMCHA030501155009161257002248Disney's Pepper Ann                               Dances With Ignorance/Girl Power                                     6068607ECC                              
PROFAMCHA030501161257161311000014MD - 04 - TARZAN/WKNDRS/RECESS (:13-:16)                                                                                    150                                
PROFAMCHA030501161311161341000030Even Stevens (NEW) - Tonight @ 7pm                                                                                          150                                
PROFAMCHA030501161341161351000010FAMJAM - Open                                                                                                               150                                
INTFAMCHA030501161351161451000100MV Disney - I Can't Wait (HILARY DUFF)                                                                                 60688120                                
PROFAMCHA030501161451161505000014FAMJAM - Close (EMAIL)                                                                                                      150                                
PROFAMCHA030501161505161520000015Weekenders (REALITY) - Today @ 4:40pm                                                                                       150                                
PROFAMCHA030501161520161546000026Boy Meets World (SHAWN) - Tonight @ 8pm                                                                                     150                                
OFFFAMCHA030501161546161600000014Mad Dash Block Open (:10-:15)                                                                                                                                  
PGRFAMCHA030501161600163848002248Disney's The Legend of Tarzan                     Rogue Elephant                                                      A6068607E                                
PROFAMCHA030501163848163902000014MD - 05 - WKNDRS/RECESS/LIZZIE (:13-:16)                                                                                    150                                
PROFAMCHA030501163902163947000045Lizzie McGuire (MAGIC TRICK) - Today @ 5:35pm                                                                               150                                
PROFAMCHA030501163947164046000059Boy Meets World (DANCE) - Tonight @ 8pm                                                                                     150                                
PROFAMCHA030501164046164058000012Mad Dash - PEPPER ANN - Helmut Hair                                                                                         150                                
PROFAMCHA030501164058164145000047Amanda Show (HAM) - Tonight @ 6pm                                                                                           150                                
OFFFAMCHA030501164145164200000015Mad Dash Block Open (:10-:15)                                                                                                                                  
PROFAMCHA030501164200164209000009CC Disclaimer - FAST - Family (:08-:10)                                                                                     150                                
PGRFAMCHA030501164209170441002232Disney's The Weekenders                           Dead Ringer/Carver The Terrible                                     A6068607ECC                              
PROFAMCHA030501170441170455000014MD - 06 - RECESS/LIZZIE/AMANDA (:13-:16)                                                                                    150                                
PROFAMCHA030501170455170525000030Lizzie McGuire (MATT) - Today @ 5:35pm                                                                                      150                                
PROFAMCHA030501170525170555000030You Wish - Weekends @ 11:35am                                                                                               150                                
PROFAMCHA030501170555170617000022Mad Dash - LIZZIE MCGUIRE - Chase                                                                                           150                                
PROFAMCHA030501170617170716000059Boy Meets World (DANCE) - Tonight @ 8pm                                                                                     150                                
PROFAMCHA030501170716170746000030That's So Raven - Weekends @ 5:25pm                                                                                         150                                
OFFFAMCHA030501170746170800000014Mad Dash Block Open (:10-:15)                                                                                                                                  
PGRFAMCHA030501170800173034002234Disney's Recess                                   The Pest/The Legend of Big Kid                                       6068607E                                
PROFAMCHA030501173034173048000014MD - 07 - LIZZIE/AMANDA/ALLTHAT (:13-:16)                                                                                   150                                
PROFAMCHA030501173048173118000030All That (NEW) - Tonight @ 6:30pm                                                                                           150                                
INTFAMCHA030501173118173248000130Klootz - Variety Show 03                                                                                              A10658120                                
PROFAMCHA030501173248173312000024Mad Dash - RECESS - Removal                                                                                                 150                                
PROFAMCHA030501173312173342000030Even Stevens (NEW) - Tonight @ 7pm                                                                                          150                                
OFFFAMCHA030501173342173352000010Mad Dash Block Open (:10-:15)                                                                                                                                  
ID FAMCHA030501173352173400000008Magic of Disney - MAD DASH - Shape (:06-:09)                                                                                150                                
PROFAMCHA030501173400173409000009CC Disclaimer - FAST - Family.ca (:08-:10)                                                                                  150                                
PGRFAMCHA030501173409175641002232Lizzie McGuire                                    Gordo And The Magic Dwarves                                         A6068607BCC                              
PROFAMCHA030501175641175655000014NS - MON-THURS - 01 - AMNDA/ALL/EVEN (:13-:16)                                                                              150                                
PROFAMCHA030501175655175725000030Popcorn Pix Movie Promo - Tomorrow @ 7:30pm                                                                                 150                                
PROFAMCHA030501175725175755000030Smart Guy (BRAINY) - Weekends @ 10:40am **DNU**                                                                             150                                
PROFAMCHA030501175755175843000048Nonstop - AMANDA SHOW - Camera                                                                                              150                                
PROFAMCHA030501175843175920000037Kim Possible (RON THE MAN) - Weekends @ 4:35pm                                                                              150                                
PROFAMCHA030501175920175950000030xxSaturday Sideshow (GAMES) - Lizzie @ 5pm                                                                                  150                                
OFFFAMCHA030501175950180000000010Nonstop Block Open (:10-:15)                                                                                                                                   
PGRFAMCHA030501180000182406002406Amanda Show; The                                  1-001                                                               A20686090                                
ID FAMCHA030501182406182411000005Astral "A Network Of" Logo - English Animation                                                                              150                                
PROFAMCHA030501182411182425000014NS - MON-THURS - 02 - ALL/EVEN/JETT (:13-:16)                                                                               150                                
PROFAMCHA030501182425182455000030Nightly Pix Block Promo - Tonight @ 9pm                                                                                     150                                
PROFAMCHA030501182455182505000010FAMJAM - Open                                                                                                               150                                
INTFAMCHA030501182505182809000304MV Disney - Why Not (HILARY DUFF)                                                                                      60688120                                
PROFAMCHA030501182809182823000014FAMJAM - Close (FAMILY)                                                                                                     150                                
PROFAMCHA030501182823182853000030You Wish - Weekends @ 11:35am                                                                                               150                                
PROFAMCHA030501182853182909000016Nonstop - EVEN STEVENS - Oatmeal                                                                                            150                                
PROFAMCHA030501182909182948000039Power Box (WEEKDAYS) - Weekdays, Starting @ 7am                                                                             150                                
OFFFAMCHA030501182948183000000012Nonstop Block Open (:10-:15)                                                                                                                                   
PGRFAMCHA030501183000185421002421All That                                          724                                                                 A20686090                                
ID FAMCHA030501185421185424000003Astral "A Network Of" Logo - English Animation                                                                              150                                
PROFAMCHA030501185424185438000014NS - MON-THURS - 03 - EVEN/JETT/BMW (:13-:16)                                                                               150                                
PROFAMCHA030501185438185537000059Boy Meets World (DANCE) - Tonight @ 8pm                                                                                     150                                
PROFAMCHA030501185537185547000010FAMJAM - Open                                                                                                               150                                
INTFAMCHA030501185547185836000249MV Disney - My Funny Friend & Me (STING)                                                                               60688120                                
PROFAMCHA030501185836185850000014FAMJAM - Close (WEB)                                                                                                        150                                
PROFAMCHA030501185850185911000021Nonstop - DARK - Plants                                                                                                     150                                
PROFAMCHA030501185911185941000030Nightly Pix Block Promo - Tonight @ 9pm                                                                                     150                                
OFFFAMCHA030501185941185952000011Nonstop Block Open (:10-:15)                                                                                                                                   
ID FAMCHA030501185952190000000008Magic of Disney - NS/NSW/PB - Wipe (:06-:09)                                                                                150                                
PROFAMCHA030501190000190009000009CC Disclaimer - FAST - Click Club (:08-:10) **DNU*                                                                          150                                
PGRFAMCHA030501190009192251002242Even Stevens                                      Movie Madness                                                       A6068807BCC                              
ID FAMCHA030501192251192256000005Astral "A Network Of" Logo - English Animation                                                                              150                                
PROFAMCHA030501192256192310000014NS - MON-THURS - 04 - JETT/BMW/MENTORS (:13-:16)                                                                            150                                
PROFAMCHA030501192310192409000059Boy Meets World (DANCE) - Tonight @ 8pm                                                                                     150                                
PROFAMCHA030501192409192419000010FAMJAM - Open                                                                                                               150                                
INTFAMCHA030501192419192830000411MV Disney - I'm Still Here **DNU***                                                                                    60688120                                
PROFAMCHA030501192830192844000014FAMJAM - Close (EMAIL)                                                                                                      150                                
PROFAMCHA030501192844192916000032PR Wild Force (CHAIR) - Weekends @ 6:30am                                                                                   150                                
PRCFAMCHA030501192916192946000030Mentors (EVERYONE) - Tonight @ 8:30pm                                                                                       150                                
OFFFAMCHA030501192946193000000014Nonstop Block Open (:10-:15)                                                                                                                                   
PROFAMCHA030501193000193009000009CC Disclaimer - FAST - Generic (:08-:10)                                                                                    150                                
PGRFAMCHA030501193009195439002430Famous Jett Jackson; The                          The Perfect Day                                               B57171 1065607ACC                              
ID FAMCHA030501195439195442000003Astral "A Network Of" Logo - English Animation                                                                              150                                
PROFAMCHA030501195442195456000014NS - MON-THURS - 05 - BMW/MENTORS/N-PIX (:13-:16)                                                                           150                                
PROFAMCHA030501195456195526000030Nightly Pix Block Promo - Tonight @ 9pm                                                                                     150                                
PROFAMCHA030501195526195536000010FAMJAM - Open                                                                                                               150                                
INTFAMCHA030501195536195849000313MV Disney - The Kid In You (KRYSTAL MARIE HARRIS)                                                                      60688120                                
PROFAMCHA030501195849195903000014FAMJAM - Close (FAMILY)                                                                                                     150                                
PROFAMCHA030501195903195916000013Nonstop - ALL THAT - Sugar & Coffee                                                                                         150                                
PROFAMCHA030501195916195946000030All That (NEW) - Tomorrow @ 6:30pm                                                                                          150                                
OFFFAMCHA030501195946200000000014Nonstop Block Open (:10-:15)                                                                                                                                   
PROFAMCHA030501200000200009000009CC Disclaimer - FAST - Family (:08-:10)                                                                                     150                                
PGRFAMCHA030501200009202033002024Boy Meets World                                   Brotherly Shove                                                     B6028807BCC                              
ID FAMCHA030501202033202038000005Astral "A Network Of" Logo - English Animation                                                                              150                                
PROFAMCHA030501202038202050000012NS - MON-THURS - 06 - MENTORS/N-PIX (:10-:13)                                                                               150                                
PROFAMCHA030501202050202120000030Popcorn Pix Movie Promo - Tomorrow @ 7:30pm                                                                                 150                                
PROFAMCHA030501202120202150000030You Wish - Weekends @ 11:35am                                                                                               150                                
PROFAMCHA030501202150202200000010FAMJAM - Open                                                                                                               150                                
INTFAMCHA030501202200202559000359MV - When You're Looking Like That (Westlife)                                                                         A20688120                                
PROFAMCHA030501202559202613000014FAMJAM - Close (FAMILY)                                                                                                     150                                
PROFAMCHA030501202613202713000100Amanda Show (UNDERPANTS) - Weeknights @ 6pm                                                                                 150                                
INTFAMCHA030501202713202843000130Klootz - Water 02                                                                                                     A10658120                                
PROFAMCHA030501202843202915000032Nonstop - JETT JACKSON - Crisis                                                                                             150                                
PROFAMCHA030501202915202945000030xxSaturday Sideshow (GAMES) - Lizzie @ 5pm                                                                                  150                                
OFFFAMCHA030501202945203000000015Nonstop Block Open (:10-:15)                                                                                                                                   
PROFAMCHA030501203000203009000009CC Disclaimer - FAST - Family.ca (:08-:10)                                                                                  150                                
PGRFAMCHA030501203009205320002311Mentors                                           The Fire Ship                                                 C17437A1055607ACC3                             
ID FAMCHA030501205320205323000003Astral "A Network Of" Logo - English Animation                                                                              150                                
PROFAMCHA030501205323205334000011Nightly Pix Line-up - 01 - GENERIC1 (:08-:11)                                                                               150                                
PROFAMCHA030501205334205359000025Your Big Break (LITTLE RICHARD) - Sunday @ 8pm                                                                              150                                
PROFAMCHA030501205359205429000030xxSaturday Sideshow (GAMES) - Lizzie @ 5pm                                                                                  150                                
PROFAMCHA030501205429205439000010FAMJAM - Open                                                                                                               150                                
INTFAMCHA030501205439205830000351MV Disney - Miracles Happen (MYRA)                                                                                     60688120                                
PROFAMCHA030501205830205844000014FAMJAM - Close (EMAIL)                                                                                                      150                                
PRCFAMCHA030501205844205914000030@ The Movies - Sunday @ 8:45pm                                                                                              150                                
PROFAMCHA030501205914205944000030Nightly Pix Block Promo - Coming Up                                                                                         150                                
ID FAMCHA030501205944205959000015Nightly Pix Movie Open (:10-:15)                                                                                            150                                
PRCFAMCHA030501205959210009000010Rating - AA - Ian (:08-:10)                                                                                                 150                                
PGRFAMCHA030501210009231339021330Victor Victoria                                                                                                       C2068807D                                
ID FAMCHA030501231339231344000005Astral "A Network Of" Logo - English Animation                                                                              150                                
PROFAMCHA030501231344231358000014NS - MON-THURS - 08 - YBB/AMAZING/DARK (:13-:16)                                                                            150                                
PROFAMCHA030501231358231446000048Amanda Show (JACUZZI) - Weeknights @ 6pm                                                                                    150                                
OFFFAMCHA030501231446231500000014Nonstop Block Open (:10-:15)                                                                                                                                   
PGRFAMCHA030501231500235753004253Your Big Break                                    2-012                                                               A60688090CC                              
ID FAMCHA030501235753235756000003Astral "A Network Of" Logo - English Animation                                                                              150                                
PROFAMCHA030501235756235808000012NS - MON-THURS - 09 - AMAZING/DARK (:10-:13)                                                                                150                                
PRCFAMCHA030501235808235838000030@ The Movies - Sunday @ 8:45pm                                                                                              150                                
PROFAMCHA030501235838235917000039Power Box (WEEKDAYS) - Tomorrow, Starting @ 7am                                                                             150                                
PROFAMCHA030501235917235947000030Smart Guy (BRAINY) - Weekends @ 10:40am **DNU**                                                                             150                                
OFFFAMCHA030501235947000000000013Nonstop Block Open (:10-:15)                                                                                                                                   
PGRFAMCHA030501000000002343002343Amazing Stories                                   Gershwin's Trunk                                                    A2068807A                                
ID FAMCHA030501002343002348000005Astral "A Network Of" Logo - English Animation                                                                              150                                
PROFAMCHA030501002348002358000010NS - MON-THURS - 10 - DARK (:08-:11)                                                                                        150                                
PROFAMCHA030501002358002428000030Nightly Pix Block Promo - Tomorrow @ 9pm                                                                                    150                                
PROFAMCHA030501002428002438000010FAMJAM - Open                                                                                                               150                                
INTFAMCHA030501002438002742000304MV Disney - Why Not (HILARY DUFF)                                                                                      60688120                                
PROFAMCHA030501002742002756000014FAMJAM - Close (WEB)                                                                                                        150                                
PROFAMCHA030501002756002855000059Boy Meets World (DANCE) - Tomorrow @ 8pm                                                                                    150                                
PROFAMCHA030501002855002916000021Nonstop - DARK - Plants                                                                                                     150                                
PROFAMCHA030501002916002946000030Popcorn Pix Movie Promo - Tomorrow @ 7:30pm                                                                                 150                                
OFFFAMCHA030501002946003000000014Nonstop Block Open (:10-:15)                                                                                                                                   
PROFAMCHA030501003000003009000009CC Disclaimer - SLOW - Family (:08-:10)                                                                                     150                                
PGRFAMCHA030501003009005430002421Are You Afraid of the Dark?                       Last Dance                                                    SR0308 1066807ACC                              
ID FAMCHA030501005430005433000003Astral "A Network Of" Logo - English Animation                                                                              150                                
PROFAMCHA030501005433005503000030Nightly Pix Block Promo - Tomorrow @ 9pm                                                                                    150                                
INTFAMCHA030501005503005633000130Klootz - Oasis 01                                                                                                     A10658120                                
PROFAMCHA030501005633005703000030xxSaturday Sideshow (GAMES) - Lizzie @ 5pm                                                                                  150                                
PROFAMCHA030501005703005718000015Nonstop - ALL THAT - Mouth                                                                                                  150                                
INTFAMCHA030501005718010200000442Art Attack - Bi-Plane II                                                                                               60686120                                
SO FAMCHA030501010200010212000012Sign Off (oct 1)                                                                                                                                               
OFFFAMCHA030501010212043000032748                                                                                                                                                               
SO FAMCHA030502043000043011000011Sign On (oct 1)                                                                                                                                                
PROFAMCHA030502043011043020000009CC Disclaimer - FAST - Generic (:08-:10)                                                                                    150                                
PGRFAMCHA030502043020045313002253Franklin                                          At The Seashore/Snail's Dream                                 B38158A1065607ECC                              
PROFAMCHA030502045313045327000014Preschool - 01(PH) - ART/KATIE/FRANKLIN (:13-:16)                                                                           150                                
OFFFAMCHA030502045327045340000013PS Playhouse Block Open (:10-:15)                                                                                                                              
PGRFAMCHA030502045340051323001943Art Attack                                        1-078                                                                60686110                                
PROFAMCHA030502051323051337000014Preschool - 02(PH) - KATIE/FRANKLIN/RIPLEY (:13-:1                                                                          150                                
OFFFAMCHA030502051337051350000013PS Playhouse Block Open (:10-:15)                                                                                                                              
PGRFAMCHA030502051350054025002635Katie And Orbie                                   Taking Care of Chance/Story Dress/Katie and The Sa            P16149A1065607E                                
PROFAMCHA030502054025054039000014Preschool - 03(PH) - FRANKLIN/RIPLEY/HOZE (:13-:16                                                                          150                                
OFFFAMCHA030502054039054052000013PS Playhouse Block Open (:10-:15)                                                                                                                              
PROFAMCHA030502054052054101000009CC Disclaimer - FAST - Family (:08-:10)                                                                                     150                                
PGRFAMCHA030502054101060354002253Franklin                                          My Franklin/Franklin's Mom                                    B38159A1065607ECC                              
PROFAMCHA030502060354060408000014Preschool - 04(PG) - RIPLEY/HOZE/BUZZ (:13-:16)                                                                             150                                
OFFFAMCHA030502060408060421000013PS Playground Block Open (:10-:15) *DNU POST AUG 1                                                                                                             
PROFAMCHA030502060421060430000009CC Disclaimer - FAST - Family.ca (:08-:10)                                                                                  150                                
PGRFAMCHA030502060430062900002430Ripley's Believe It Or Not!                       And Now the Weather                                           B21807 1065607ECC                              
PROFAMCHA030502062900062913000013Preschool - 05(PG) - HOZE/BUZZ (:10-:13)                                                                                    150                                
PRCFAMCHA030502062913062945000032Hoze Houndz (GROCERIES) - Coming Up (PG)                                                                                    150                                
OFFFAMCHA030502062945063000000015PS Playground Block Open (:10-:15) *DNU POST AUG 1                                                                                                             
PROFAMCHA030502063000063009000009CC Disclaimer - FAST - Generic (:08-:10)                                                                                    150                                
PGRFAMCHA030502063009065243002234Hoze Houndz                                       Glory Houndz/Blood Houndz                                     B17133A1065607ECC                              
PROFAMCHA030502065243065257000014Preschool - 06(PB) - BUZZ/PRLR/PRWF (:13-:16)                                                                               150                                
PROFAMCHA030502065257065327000030Popcorn Pix Movie Promo - Tonight @ 7:30pm                                                                                  150                                
PROFAMCHA030502065327065406000039Power Box (WEEKDAYS) - Weekdays, Starting @ 7am                                                                             150                                
INTFAMCHA030502065406065835000429Art Attack - Cowboy                                                                                                    60686120                                
PROFAMCHA030502065835065902000027Pepper Ann (WHO IS SHE?) - Today @ 3:50pm                                                                                   150                                
PROFAMCHA030502065902065947000045Lizzie McGuire (MAGIC TRICK) - Today @ 5:35pm                                                                               150                                
OFFFAMCHA030502065947070000000013PS Power Box Block Open (:10-:15)                                                                                                                              
PROFAMCHA030502070000070009000009CC Disclaimer - FAST - Generic (:08-:10)                                                                                    150                                
PGRFAMCHA030502070009072207002158Disney/Pixar's Buzz Lightyear of Star Command     The Taking of PC-7                                                   6068607ECC                              
PROFAMCHA030502072207072221000014Preschool - 07(PB-FRI) - PRLR/PRNS/HOM (:13-:16)                                                                            150                                
PROFAMCHA030502072221072251000030Popcorn Pix Movie Promo - Tonight @ 7:30pm                                                                                  150                                
PROFAMCHA030502072251072321000030PR Ninja Storm - Today @ 8am                                                                                                150                                
PROFAMCHA030502072321072351000030Smart Guy (BRAINY) - Tomorrow @ 7:30am                                                                                      150                                
PROFAMCHA030502072351072415000024Boy Meets World (GYROSCOPE) - Tomorrow @ 10:15am                                                                            150                                
PROFAMCHA030502072415072425000010FAMJAM - Open                                                                                                               150                                
INTFAMCHA030502072425072729000304MV Disney - Why Not (HILARY DUFF)                                                                                      60688120                                
PROFAMCHA030502072729072743000014FAMJAM - Close (WEB)                                                                                                        150                                
PROFAMCHA030502072743072810000027Pepper Ann (WHO IS SHE?) - Today @ 3:50pm                                                                                   150                                
PROFAMCHA030502072810072833000023Proud Family (HERO) - Tomorrow @ 4:10pm                                                                                     150                                
PROFAMCHA030502072833072918000045Lizzie McGuire (MAGIC TRICK) - Today @ 5:35pm                                                                               150                                
PROFAMCHA030502072918072948000030Even Stevens (NEW) - Tonight @ 7pm                                                                                          150                                
OFFFAMCHA030502072948073000000012PS Power Box Block Open (:10-:15)                                                                                                                              
PGRFAMCHA030502073000075128002128Power Rangers Lightspeed Rescue                   Cyborg Rangers                                                      A6068607E                                
PROFAMCHA030502075128075142000014Preschool - 07(PB-FRI) - PRLR/PRNS/HOM (:13-:16)                                                                            150                                
PROFAMCHA030502075142075212000030Popcorn Pix Movie Promo - Tonight @ 7:30pm                                                                                  150                                
PROFAMCHA030502075212075242000030Smart Guy (BRAINY) - Tomorrow @ 7:30am                                                                                      150                                
PROFAMCHA030502075242075312000030PR Ninja Storm - Coming Up                                                                                                  150                                
PROFAMCHA030502075312075322000010FAMJAM - Open                                                                                                               150                                
INTFAMCHA030502075322075703000341MV Disney - Mambo #5 (LOU BEGA)                                                                                        60688120                                
PROFAMCHA030502075703075717000014FAMJAM - Close (EMAIL)                                                                                                      150                                
PROFAMCHA030502075717075747000030That's So Raven - Tomorrow @ 5:25pm                                                                                         150                                
PROFAMCHA030502075747075828000041Amanda Show (KYLE) - Tonight @ 6pm                                                                                          150                                
PROFAMCHA030502075828075907000039Power Box (WEEKDAYS) - Weekdays, Starting @ 7am                                                                             150                                
PROFAMCHA030502075907075937000030Lizzie McGuire (MATT) - Today @ 5:35pm                                                                                      150                                
OFFFAMCHA030502075937075950000013PS Power Box Block Open (:10-:15)                                                                                                                              
PROFAMCHA030502075950080000000010PR Ninja Storm Web Throw                                                                                                    150                                
PGRFAMCHA030502080000082124002124Power Rangers Ninja Storm                         Thunder Strangers, Part 3                                           A6068607E                                
PROFAMCHA030502082124082134000010PR Ninja Storm Web Throw                                                                                                    150                                
PROFAMCHA030502082134082144000010Preschool - 09(PB) - HOM (:08-:11)                                                                                          150                                
PROFAMCHA030502082144082214000030Popcorn Pix Movie Promo - Tonight @ 7:30pm                                                                                  150                                
PROFAMCHA030502082214082244000030Recess (NEW) - Today @ 12:15pm                                                                                              150                                
PROFAMCHA030502082244082254000010FAMJAM - Open                                                                                                               150                                
INTFAMCHA030502082254082354000100MV Disney - I Can't Wait (HILARY DUFF)                                                                                 60688120                                
PROFAMCHA030502082354082408000014FAMJAM - Close (WEB)                                                                                                        150                                
PROFAMCHA030502082408082504000056Boy Meets World (MOM) - Tomorrow @ 10:15am                                                                                  150                                
INTFAMCHA030502082504082833000329Art Attack - 2 Swans                                                                                                   60686120                                
PROFAMCHA030502082833082903000030That's So Raven - Tomorrow @ 5:25pm                                                                                         150                                
PROFAMCHA030502082903082948000045Lizzie McGuire (MAGIC TRICK) - Today @ 5:35pm                                                                               150                                
OFFFAMCHA030502082948083000000012PS Power Box Block Open (:10-:15)                                                                                                                              
PGRFAMCHA030502083000085237002237Disney's House Of Mouse                           Jiminy Cricket                                                       6068607E                                
PROFAMCHA030502085237085251000014Preschool - 10(PH) - ELMO/KATIE/STANLEY (:13-:16)                                                                           150                                
PRCFAMCHA030502085251085339000048New Adv WTP (FOREST) - Today @ 10:10am                                                                                      150                                
PRCFAMCHA030502085339085407000028Elmo's World (BUGGED) - Coming Up                                                                                           150                                
PRCFAMCHA030502085407085447000040Hoze Houndz (PIRATES) - Today @ 1:45pm                                                                                      150                                
OFFFAMCHA030502085447085500000013PS Playhouse Block Open (:10-:15)                                                                                                                              
PGRFAMCHA030502085500091033001533Elmo's World                                      Teeth                                                               A2068607G                                
PROFAMCHA030502091033091047000014Preschool - 11(PH-MWF) - KATIE/STANLEY/WTP (:13-:1                                                                          150                                
PRCFAMCHA030502091047091113000026Franklin (PUPPY) - Today @ 11am                                                                                             150                                
PRCFAMCHA030502091113091151000038Henry's World (RACE) - Tomorrow @ 7:05pm                                                                                    150                                
INTFAMCHA030502091151091321000130Disney Circle Time - Growing Smiles (anywhere but                                                                      60688120                                
PRCFAMCHA030502091321091346000025New Adv WTP (TALK BACK) - Today @ 10:10am                                                                                   150                                
OFFFAMCHA030502091346091400000014PS Playhouse Block Open (:10-:15)                                                                                                                              
PROFAMCHA030502091400091409000009CC Disclaimer - FAST - Family (:08-:10)                                                                                     150                                
PGRFAMCHA030502091409094044002635Katie And Orbie                                   Lulu/The Farm/Splash                                          C11896A1065607ECC                              
PROFAMCHA030502094044094058000014Preschool - 12(PH-MWF) - STANLEY/WTP/OOTB (:13-:16                                                                          150                                
PRCFAMCHA030502094058094129000031Franklin (HANKY) - Today @ 11am                                                                                             150                                
PRCFAMCHA030502094129094221000052Elmo's World (MISS MUFFET) - Today @ 12:35pm                                                                                150                                
PRCFAMCHA030502094221094246000025New Adv WTP (TALK BACK) - Today @ 10:10am                                                                                   150                                
OFFFAMCHA030502094246094300000014PS Playhouse Block Open (:10-:15)                                                                                                                              
PGRFAMCHA030502094300100658002358Stanley                                           Savanna Speeders/Tyrannosaurus Wrecks                               A6068607E                                
PROFAMCHA030502100658100712000014Preschool - 13(PH-MWF) - WTP/OOTB/FRANKLIN (:13-:1                                                                          150                                
PRCFAMCHA030502100712100738000026Franklin (PUPPY) - Today @ 11am                                                                                             150                                
PRCFAMCHA030502100738100756000018New Adv WTP (PIGLET) - Coming Up                                                                                            150                                
PRCFAMCHA030502100756100841000045Hoze Houndz (PAMPER) - Today @ 1:45pm                                                                                       150                                
OFFFAMCHA030502100841100852000011PS Playhouse Block Open (:10-:15)                                                                                                                              
ID FAMCHA030502100852100900000008Magic of Disney - PLAYHOUSE - Shape (:06-:09)                                                                               150                                
PROFAMCHA030502100900100909000009CC Disclaimer - FAST - Family.ca (:08-:10)                                                                                  150                                
PGRFAMCHA030502100909103146002237New Adventures of Winnie the Pooh; The            Home Is Where The Home Is                                            6068607ECC                              
PROFAMCHA030502103146103200000014Preschool - 14(PH) - OOTB/FRANKLIN/DUCKTALES (:13-                                                                          150                                
PRCFAMCHA030502103200103238000038Katie & Orbie (ICEBERG) - Today @ 12:55pm                                                                                   150                                
PROFAMCHA030502103238103313000035Playhouse - KATIE & ORBIE - Discoveries                                                                                     150                                
PRCFAMCHA030502103313103348000035Franklin (CANOE) - Today @ 11am                                                                                             150                                
OFFFAMCHA030502103348103400000012PS Playhouse Block Open (:10-:15)                                                                                                                              
PGRFAMCHA030502103400105730002330Out of the Box                                    Playhouse Mouse                                                      60686110                                
PROFAMCHA030502105730105744000014Preschool - 15(PH) - FRANKLIN/DUCKTALES/AMANDA (:1                                                                          150                                
PRCFAMCHA030502105744105826000042Henry's World (GERMS) - Tomorrow @ 7:05pm                                                                                   150                                
PROFAMCHA030502105826105916000050Art Attack (BASEBALL) - Tomorrow @ 3:05pm                                                                                   150                                
PRCFAMCHA030502105916105948000032Elmo's World (LEAP FROG) - Today @ 12:35pm                                                                                  150                                
OFFFAMCHA030502105948110000000012PS Playhouse Block Open (:10-:15)                                                                                                                              
PROFAMCHA030502110000110009000009CC Disclaimer - FAST - Family (:08-:10)                                                                                     150                                
PGRFAMCHA030502110009112302002253Franklin                                          Franklin Stays Up/Franklin's Bargain                          A53202A1065607ECC                              
PROFAMCHA030502112302112314000012Preschool - 16(PH) - DUCKTALES/AMANDA (:10-:13)                                                                             150                                
PRCFAMCHA030502112314112347000033Elmo's World (MOON DANCE) - Today @ 12:35pm                                                                                 150                                
PRCFAMCHA030502112347112419000032Hoze Houndz (GROCERIES) - Today @ 1:45pm                                                                                    150                                
PRCFAMCHA030502112419112449000030Katie & Orbie (ORBIE) - Today @ 12:55pm                                                                                     150                                
OFFFAMCHA030502112449112500000011PS Playhouse Block Open (:10-:15)                                                                                                                              
PROFAMCHA030502112500112509000009CC Disclaimer - FAST - Family.ca (:08-:10)                                                                                  150                                
PGRFAMCHA030502112509114722002213Disney's DuckTales                                Liquid Assets (part 1 - Of Super Ducktales)                         A6068607ECC                              
PROFAMCHA030502114722114736000014Preschool - 17(OTL) - AMANDA/RECESS/ELMO (:13-:16)                                                                          150                                
PROFAMCHA030502114736114806000030Recess (NEW) - Today @ 12:15pm                                                                                              150                                
PROFAMCHA030502114806114833000027Pepper Ann (WHO IS SHE?) - Today @ 3:50pm                                                                                   150                                
PROFAMCHA030502114833114918000045Lizzie McGuire (MAGIC TRICK) - Today @ 5:35pm                                                                               150                                
PROFAMCHA030502114918114948000030Popcorn Pix Movie Promo - Tonight @ 7:30pm                                                                                  150                                
OFFFAMCHA030502114948115000000012Mad Dash Block Open (:10-:15)                                                                                                                                  
PGRFAMCHA030502115000121406002406Amanda Show; The                                  1-001                                                               A20686090                                
PROFAMCHA030502121406121420000014Preschool - 18(OTL) - RECESS/ELMO/KATIE (:13-:16)                                                                           150                                
PROFAMCHA030502121420121447000027Pepper Ann (WHO IS SHE?) - Today @ 3:50pm                                                                                   150                                
OFFFAMCHA030502121447121500000013Mad Dash Block Open (:10-:15)                                                                                                                                  
PGRFAMCHA030502121500123736002236Disney's Recess                                   Yope from Norway/The Library Kid                                     6068607E                                
PROFAMCHA030502123736123750000014Preschool - 19(PH) - ELMO/KATIE/OOTB (:13-:16)                                                                              150                                
OFFFAMCHA030502123750123800000010PS Playhouse Block Open (:10-:15)                                                                                                                              
PGRFAMCHA030502123800125311001511Elmo's World                                      Hands                                                               A2068607G                                
PROFAMCHA030502125311125325000014Preschool - 20(PH) - KATIE/OOTB/HOZE (:13-:16)                                                                              150                                
PRCFAMCHA030502125325125405000040Hoze Houndz (PIRATES) - Today @ 1:45pm                                                                                      150                                
PRCFAMCHA030502125405125435000030Katie & Orbie (ORBIE) - Coming Up                                                                                           150                                
PROFAMCHA030502125435125505000030Art Attack (HORSE) - Tomorrow @ 3pm                                                                                         150                                
PRCFAMCHA030502125505125547000042Henry's World (GERMS) - Tomorrow @ 7:05pm                                                                                   150                                
OFFFAMCHA030502125547125600000013PS Playhouse Block Open (:10-:15)                                                                                                                              
PROFAMCHA030502125600125609000009CC Disclaimer - FAST - Generic (:08-:10)                                                                                    150                                
PGRFAMCHA030502125609132244002635Katie And Orbie                                   New Year's Eve/Kyra/T-Ball                                    C11896A1065607ECC                              
PROFAMCHA030502132244132258000014Preschool - 21(PH) - OOTB/HOZE/GOOF (:13-:16)                                                                               150                                
OFFFAMCHA030502132258132311000013PS Playhouse Block Open (:10-:15)                                                                                                                              
PGRFAMCHA030502132311134516002205Out of the Box                                    Doctor Octor                                                         60686110                                
PROFAMCHA030502134516134530000014Preschool - 22(PG) - HOZE/GOOF/DUCKTALES (:13-:16)                                                                          150                                
PRCFAMCHA030502134530134602000032Hoze Houndz (GROCERIES) - Coming Up (PG)                                                                                    150                                
PROFAMCHA030502134602134626000024Legend of Tarzan (S.O.S) - Today @ 4:15pm                                                                                   150                                
PROFAMCHA030502134626134652000026Playground - GOOF TROOP - Hose                                                                                              150                                
PROFAMCHA030502134652134722000030Art Attack (HORSE) - Tomorrow @ 3pm                                                                                         150                                
PRCFAMCHA030502134722134747000025Henry's World (YARD) - Tomorrow @ 7:05pm                                                                                    150                                
OFFFAMCHA030502134747134800000013PS Playground Block Open (:10-:15) *DNU POST AUG 1                                                                                                             
PROFAMCHA030502134800134809000009CC Disclaimer - FAST - Family (:08-:10)                                                                                     150                                
PGRFAMCHA030502134809141045002236Hoze Houndz                                       Blasterpiece/When The Flu Hits The Fan                        B45775A1065607ECC                              
PROFAMCHA030502141045141057000012Preschool - 23(PG) - GOOF/DUCKTALES (:10-:13)                                                                               150                                
PRCFAMCHA030502141057141139000042Henry's World (GERMS) - Tomorrow @ 7:05pm                                                                                   150                                
OFFFAMCHA030502141139141152000013PS Playground Block Open (:10-:15) *DNU POST AUG 1                                                                                                             
ID FAMCHA030502141152141200000008Magic of Disney - PLAYGROUND - Wipe (:06-:09) *DNU                                                                          150                                
PROFAMCHA030502141200141209000009CC Disclaimer - FAST - Family.ca (:08-:10)                                                                                  150                                
PGRFAMCHA030502141209143458002249Goof Troop                                        Rally Round The Goof                                                 6068607ECC                              
PROFAMCHA030502143458143508000010Preschool - 24(PG) - DUCKTALES (:08-:11)                                                                                    150                                
PRCFAMCHA030502143508143550000042Henry's World (GERMS) - Tomorrow @ 7:05pm                                                                                   150                                
OFFFAMCHA030502143550143600000010PS Playground Block Open (:10-:15) *DNU POST AUG 1                                                                                                             
PROFAMCHA030502143600143609000009CC Disclaimer - FAST - Generic (:08-:10)                                                                                    150                                
PGRFAMCHA030502143609145853002244Disney's DuckTales                                Frozen Assets (part 2 - Of Super Ducktales)                         A6068607E                                
PROFAMCHA030502145853145907000014MD - 01 - HOUSE/BUZZ/PEPPER (:13-:16)                                                                                       150                                
PROFAMCHA030502145907145948000041Amanda Show (KYLE) - Tonight @ 6pm                                                                                          150                                
OFFFAMCHA030502145948150000000012Mad Dash Block Open (:10-:15)                                                                                                                                  
PGRFAMCHA030502150000152237002237Disney's House Of Mouse                           Ask Von Drake                                                       A6068607E                                
PROFAMCHA030502152237152251000014MD - 02 - BUZZ/PEPPER/TARZAN (:13-:16)                                                                                      150                                
PROFAMCHA030502152251152321000030Popcorn Pix Movie Promo - Tonight @ 7:30pm                                                                                  150                                
PROFAMCHA030502152321152417000056Boy Meets World (MOM) - Tomorrow @ 10:15am                                                                                  150                                
PROFAMCHA030502152417152447000030Even Stevens (NEW) - Tonight @ 7pm                                                                                          150                                
OFFFAMCHA030502152447152500000013Mad Dash Block Open (:10-:15)                                                                                                                                  
PROFAMCHA030502152500152509000009CC Disclaimer - FAST - Family (:08-:10)                                                                                     150                                
PGRFAMCHA030502152509154700002151Disney/Pixar's Buzz Lightyear of Star Command     Super Nova                                                           6068607ECC                              
PROFAMCHA030502154700154714000014MD - 03 - PEPPER/TARZAN/WKNDRS (:13-:16)                                                                                    150                                
PROFAMCHA030502154714154744000030Popcorn Pix Movie Promo - Tonight @ 7:30pm                                                                                  150                                
PROFAMCHA030502154744154814000030Recess (NEW) - Today @ 5:05pm                                                                                               150                                
PROFAMCHA030502154814154833000019Mad Dash - PEPPER ANN - Great To Be Around                                                                                  150                                
PROFAMCHA030502154833154920000047Amanda Show (VOICE) - Tonight @ 6pm                                                                                         150                                
PROFAMCHA030502154920154950000030All That (NEW) - Tonight @ 6:30pm                                                                                           150                                
OFFFAMCHA030502154950155000000010Mad Dash Block Open (:10-:15)                                                                                                                                  
PROFAMCHA030502155000155009000009CC Disclaimer - FAST - Family (:08-:10)                                                                                     150                                
PGRFAMCHA030502155009161255002246Disney's Pepper Ann                               Beyond Good and Evil                                                 6068607ECC                              
PROFAMCHA030502161255161309000014MD - 04 - TARZAN/WKNDRS/RECESS (:13-:16)                                                                                    150                                
PROFAMCHA030502161309161339000030Popcorn Pix Movie Promo - Tonight @ 7:30pm                                                                                  150                                
PROFAMCHA030502161339161349000010FAMJAM - Open                                                                                                               150                                
INTFAMCHA030502161349161449000100MV Disney - I Can't Wait (HILARY DUFF)                                                                                 60688120                                
PROFAMCHA030502161449161503000014FAMJAM - Close (FAMILY)                                                                                                     150                                
PROFAMCHA030502161503161548000045Lizzie McGuire (MAGIC TRICK) - Today @ 5:35pm                                                                               150                                
OFFFAMCHA030502161548161600000012Mad Dash Block Open (:10-:15)                                                                                                                                  
PGRFAMCHA030502161600163847002247Disney's The Legend of Tarzan                     Poisoned River, Pt.1                                                A6068607E                                
PROFAMCHA030502163847163901000014MD - 05 - WKNDRS/RECESS/LIZZIE (:13-:16)                                                                                    150                                
PROFAMCHA030502163901163931000030Popcorn Pix Movie Promo - Tonight @ 7:30pm                                                                                  150                                
PROFAMCHA030502163931164001000030Recess (NEW) - Today @ 5:05pm                                                                                               150                                
PROFAMCHA030502164001164023000022Mad Dash - LIZZIE MCGUIRE - Chase                                                                                           150                                
