SO FAMCHA080701043000043011000011Sign On (oct 1)                                                                                                                                                
PRCFAMCHA080701043011043020000009CC Disclaimer - FAST - Family.ca (:09-:10)                                                                                  150                                
PGRFAMCHA080701043020045655002635Katie And Orbie                                   EP: 3-035                                                     C12449A1065607ECC                              
PRCFAMCHA080701045655045711000016PH - 02 - FRANNY/SOMETHING/HOZE (:14 - :16) (SEPT0                                                                          150                                
ID FAMCHA080701045711045723000012PS Playhouse AM Block Open (:10-:15)                                                                                        150                                
PRCFAMCHA080701045723045732000009CC Disclaimer - FAST - Generic (:09-:10)                                                                                    150                                
PGRFAMCHA080701045732052003002231Franny's Feet                                     EPS # 29                                                      C23971 1065607ECC                              
PRCFAMCHA080701052003052009000006Astral ID (DEC 2007)                                                                                                        150                                
PRCFAMCHA080701052009052025000016PH - 03 - SOMETHING/HOZE/HENRY'S (:14 - :16) (SEPT                                                                          150                                
ID FAMCHA080701052025052038000013PS Playhouse AM Block Open (:10-:15)                                                                                        150                                
PRCFAMCHA080701052038052047000009CC Disclaimer - FAST - Family.ca (:09-:10)                                                                                  150                                
PGRFAMCHA080701052047054318002231Something Else                                    EP: 1-003                                                     B69257A1065607ECC                              
PRCFAMCHA080701054318054334000016PH - 04 - HOZE/HENRY'S/KING (:14 - :16) (SEPT07)                                                                            150                                
ID FAMCHA080701054334054347000013PS Playhouse AM Block Open (:10-:15)                                                                                        150                                
PRCFAMCHA080701054347054356000009CC Disclaimer - FAST - Generic (:09-:10)                                                                                    150                                
PGRFAMCHA080701054356060634002238Hoze Houndz                                       EP: 5-059                                                     B63395A1065607ECC                              
PRCFAMCHA080701060634060640000006Astral ID (DEC 2007)                                                                                                        150                                
PRCFAMCHA080701060640060656000016PH - 05 - HENRY'S WORLD/KING (:14 - :16) (SEPT07)                                                                           150                                
ID FAMCHA080701060656060709000013PS Playhouse AM Block Open (:10-:15)                                                                                        150                                
PRCFAMCHA080701060709060718000009CC Disclaimer - FAST - Family.ca (:09-:10)                                                                                  150                                
PGRFAMCHA080701060718063123002405Henry's World                                     EPS # 2-024                                                   B81055A1065607GCC                              
PRCFAMCHA080701063123063139000016PH - 06 - KING (:14 - :16) (SEPT07)                                                                                         150                                
ID FAMCHA080701063139063151000012PS Playhouse AM Block Open (:10-:15)                                                                                        150                                
PRCFAMCHA080701063151063200000009CC Disclaimer - FAST - Generic (:09-:10)                                                                                    150                                
PGRFAMCHA080701063200065430002230King                                              EPS # 2-022                                                   B75777 1065607ECC                              
PRCFAMCHA080701065430065436000006Astral ID (DEC 2007)                                                                                                        150                                
PROFAMCHA080701065436065512000036xxJourney To The Center of The Earth  In Theaters                                                                           150                                
PROFAMCHA080701065512065537000025Recess - CAREER DAY (MMM) - (JULY06) - This mornin                                                                          150                                
PROFAMCHA080701065537065556000019MadMadMornings Block Open                                                                                                   150                                
PRCFAMCHA080701065556065604000008CC Disclaimer - FAST - Family.ca (:09-:10)                                                                                  150                                
PGRFAMCHA080701065604071855002251Disney's Kim Possible                             EP: 1-013                                                           A6068607ECC                              
PROFAMCHA080701071855071929000034Recess - HEROES (MMM) - (APR06) - Coming Up Next                                                                            150                                
PROFAMCHA080701071929072014000045xxFamily Favourites - Camp Rock CD (June 16 - July                                                                          150                                
PROFAMCHA080701072014072050000036Weekenders - PIZZA (MMM) - (APR06) - This Morning                                                                           150                                
PROFAMCHA080701072050072145000055Disney Behind The Curtain (MD, NS, NSW) 2 x Day  (                                                                          150                                
PRCFAMCHA080701072145072156000011xxFamily Bumpers - (Phase 2 F/W 04) - Science (MD-                                                                          150                                
PROFAMCHA080701072156072232000036xxKit Kittredge: An American Girl - In Theaters Ju                                                                          150                                
PRCFAMCHA080701072232072332000100Family Jams Overall Summer Promo REVISED 2 (June 2                                                                          150                                
PROFAMCHA080701072332072351000019MadMadMornings Block Open                                                                                                   150                                
PRCFAMCHA080701072351072401000010CC Disclaimer - FAST - Generic (:09-:10)                                                                                    150                                
PGRFAMCHA080701072401074635002234Disney's Recess                                   EP: 1-002                                                            6068607ECC                              
PRCFAMCHA080701074635074641000006Astral ID (DEC 2007)                                                                                                        150                                
PROFAMCHA080701074641074715000034Jonas Brothers Living The Dream Promo - Fridays Fo                                                                          150                                
PROFAMCHA080701074715074751000036Weekenders - PIZZA (MMM) - (APR06) - Coming Up Nex                                                                          150                                
PROFAMCHA080701074751074836000045Bratz Girlz Really Rock - Bratz GRR! (June 9 - Jul                                                                          150                                
PROFAMCHA080701074836074907000031Replacements - GENERIC (MD) This Afternoon @ 3:10p                                                                          150                                
PRCFAMCHA080701074907074913000006xxFamily Bumpers - (Phase 3 Spring 05) - Bubble Gu                                                                          150                                
PROFAMCHA080701074913074928000015xxDC Games 2008 - The Games Are Coming In August                                                                            150                                
PROFAMCHA080701074928075005000037xxHannah Montana 3D Concert CD Blast (May 20 - Jul                                                                          150                                
PROFAMCHA080701075005075042000037xxCamp Rock Rock Along - Prems Friday @ 7:30pm (JU                                                                          150                                
PROFAMCHA080701075042075101000019MadMadMornings Block Open                                                                                                   150                                
PRCFAMCHA080701075101075110000009CC Disclaimer - FAST - Family.ca (:09-:10)                                                                                  150                                
PGRFAMCHA080701075110081344002234Disney's The Weekenders                           EP: 1-024                                                           A6068607ECC                              
PRCFAMCHA080701081344081414000030Camp Rock FOD Promo - Now On Demand  (June 17 - Ju                                                                          150                                
PROFAMCHA080701081414081439000025Recess - CAREER DAY (MD) - (JULY06) - This morn @                                                                           150                                
PRCFAMCHA080701081439081609000130Movie Entertainment (8)                                                                                                     150                                
PROFAMCHA080701081609081624000015Kim Possible BOYFRIEND (MD) This Afternoons @ 2:45                                                                          150                                
PRCFAMCHA080701081624081654000030Cineplex Latest Buzz Popcorn Parties Post-Launch 3                                                                          150                                
PRCFAMCHA080701081654081733000039xxSummer Sneaks Album Previews - Bret Ryan - Week                                                                           150                                
PROFAMCHA080701081733081752000019MadMadMornings Block Open                                                                                                   150                                
PRCFAMCHA080701081752081801000009CC Disclaimer - FAST - Generic (:09-:10)                                                                                    150                                
PGRFAMCHA080701081801084054002253Disney's Lloyd In Space                           EP: 27                                                               6068607ECC                              
PRCFAMCHA080701084054084100000006Astral ID (DEC 2007)                                                                                                        150                                
PRCFAMCHA080701084100084115000015PH - 07 - EINSTEINS/FRANNY'S/TIGGER & POOH (:14 -                                                                           150                                
PROFAMCHA080701084115084145000030Little Einstein (PH) (PRESCHOOL) - Coming Up Next                                                                           150                                
PGRFAMCHA080701084145084310000125Pixie Previews - (MMM, PH) Silvermist                                                                                 A60688120                                
PROFAMCHA080701084310084340000030Tigger & Pooh NEW FRIEND DARBY (PH) This Morning @                                                                          150                                
PROFAMCHA080701084340084408000028Johnny and the Sprites GINGER (PH) This Morning @                                                                           150                                
PRCFAMCHA080701084408084438000030PH-D Promo - Kid Sell (JUNE 2008)                                                                                           150                                
ID FAMCHA080701084438084451000013PS Playhouse AM Block Open (:10-:15)                                                                                        150                                
PRCFAMCHA080701084451084500000009CC Disclaimer - FAST - Family.ca (:09-:10)                                                                                  150                                
PGRFAMCHA080701084500090905002405Disney's Little Einsteins                         EP: 08                                                               6068607ECC                              
PRCFAMCHA080701090905090920000015PH - 08 - FRANNY'S/TIGGER & POOH/ CLUB HOUSE (:14                                                                           150                                
PRCFAMCHA080701090920090935000015Franny's Feet - Bowleriffic (PH-) - (APR06) - Comi                                                                          150                                
PRCFAMCHA080701090935090947000012xxFamily Bumpers - (Phase 1 Spring 04) - Funhouse                                                                           150                                
PROFAMCHA080701090947091038000051PH-D Promo - Super Duper Summer Saturdays - Every                                                                           150                                
ID FAMCHA080701091038091051000013PS Playhouse AM Block Open (:10-:15)                                                                                        150                                
PRCFAMCHA080701091051091100000009CC Disclaimer - FAST - Generic (:09-:10)                                                                                    150                                
PGRFAMCHA080701091100093330002230Franny's Feet                                     EPS # 1-001                                                   C23970A1065607ECC                              
PRCFAMCHA080701093330093336000006Astral ID (DEC 2007)                                                                                                        150                                
PRCFAMCHA080701093336093351000015PH - 10 - TIGGER & POOH/ CLUB HOUSE/SPRITES (:14 -                                                                          150                                
PROFAMCHA080701093351093421000030Tigger & Pooh NEW FRIEND DARBY (PH) Coming Up Next                                                                          150                                
PGRFAMCHA080701093421093531000110Pixie Previews - (MMM, PH) Tink & Pepper Shaker                                                                       A60688120                                
PROFAMCHA080701093531093606000035Johnny and the Sprites BASIL (PH) This Morning @ 1                                                                          150                                
PROFAMCHA080701093606093637000031PH-D Promo - Web Sell on Family -  24/7 Ooh & Aah                                                                           150                                
ID FAMCHA080701093637093651000014PS Playhouse AM Block Open (:10-:15)                                                                                        150                                
PRCFAMCHA080701093651093700000009CC Disclaimer - FAST - Family.ca (:09-:10)                                                                                  150                                
PGRFAMCHA080701093700100100002400Disney My Friends Tigger and Pooh                 EP: 22                                                               6068607ECC                              
PRCFAMCHA080701100100100116000016PH - 13 - CLUB HOUSE/SPRITES/BENJAMIN BEAR (:14 -                                                                           150                                
PRCFAMCHA080701100116100146000030PH-D Promo - Parent Sell (JUNE 2008)                                                                                        150                                
PROFAMCHA080701100146100216000030Mickey Mouse Clubhouse GENERIC - Coming Up Next                                                                             150                                
PRCFAMCHA080701100216100247000031King (PH) (APR06) - This Morning @ 11:25am                                                                                  150                                
PROFAMCHA080701100247100338000051PH-D Promo - Super Duper Summer Saturdays - Every                                                                           150                                
ID FAMCHA080701100338100351000013PS Playhouse AM Block Open (:10-:15)                                                                                        150                                
ID FAMCHA080701100351100359000008Magic of Disney - PLAYHOUSE - Shape (:06-:09)                                                                               150                                
PRCFAMCHA080701100359100408000009CC Disclaimer - FAST - Generic (:09-:10)                                                                                    150                                
PGRFAMCHA080701100408102805002357Disney's Mickey Mouse Clubhouse                   EP: 02                                                               6068607ECC                              
PRCFAMCHA080701102805102811000006Astral ID (DEC 2007)                                                                                                        150                                
PRCFAMCHA080701102811102826000015PH - 16 - SPRITES/BENJAMIN BEAR/KING (:14 - :16) (                                                                          150                                
PROFAMCHA080701102826102854000028Johnny and the Sprites GINGER (PH) Coming Up Next                                                                           150                                
PGRFAMCHA080701102854103007000113xxThey Might Be Giants (123's) - Zeros (March 2008                                                                     60688120                                
PRCFAMCHA080701103007103037000030PH-D Promo - Kid Sell (JUNE 2008)                                                                                           150                                
ID FAMCHA080701103037103051000014PS Playhouse AM Block Open (:10-:15)                                                                                        150                                
PRCFAMCHA080701103051103100000009CC Disclaimer - FAST - Family.ca (:09-:10)                                                                                  150                                
PGRFAMCHA080701103100105509002409Disney Johnny and the Sprites                     EP: 10                                                               6068607GCC                              
PRCFAMCHA080701105509105525000016PH - 18 - BENJAMIN BEAR/KING/RECESS (:14 - :16) (S                                                                          150                                
PRCFAMCHA080701105525105545000020Benjamin Bear - Snack (PH) (APR06) - Coming Up Nex                                                                          150                                
PROFAMCHA080701105545105636000051PH-D Promo - Super Duper Summer Saturdays - Every                                                                           150                                
ID FAMCHA080701105636105651000015PS Playhouse AM Block Open (:10-:15)                                                                                        150                                
PRCFAMCHA080701105651105700000009CC Disclaimer - FAST - Generic (:09-:10)                                                                                    150                                
PGRFAMCHA080701105700111930002230Secret World of Benjamin Bear, The                EP: 22                                                        C26066 1065607ECC                              
PRCFAMCHA080701111930111936000006Astral ID (DEC 2007)                                                                                                        150                                
PRCFAMCHA080701111936111952000016PH - 19 - KING/RECESS/KIM POSSIBLE (:14 - :16) (SE                                                                          150                                
PRCFAMCHA080701111952112022000030PH-D Promo - Kid Sell (JUNE 2008)                                                                                           150                                
PRCFAMCHA080701112022112053000031King (PH) (APR06) - Coming Up Next                                                                                          150                                
PGRFAMCHA080701112053112253000200xxDisney 365 - DC Games Pre- Awareness Spot #1 (Ti                                                                    A60688120                                
PROFAMCHA080701112253112353000100Handy Mandy GENERIC (PH) Tomorrow Morning @ 10:30a                                                                          150                                
PRCFAMCHA080701112353112407000014xxPlayhouse - HOZE HOUNDZ - Skater                                                                                          150                                
PROFAMCHA080701112407112438000031PH-D Promo - Web Sell on Family -  24/7 Ooh & Aah                                                                           150                                
ID FAMCHA080701112438112451000013PS Playhouse AM Block Open (:10-:15)                                                                                        150                                
PRCFAMCHA080701112451112500000009CC Disclaimer - FAST - Family.ca (:09-:10)                                                                                  150                                
PGRFAMCHA080701112500114730002230King                                              EP: 4-050                                                     C25350 1065607ECC                              
PRCFAMCHA080701114730114743000013MD - 01 - RECESS/KIM (:11 - :13) (SEPT07)                                                                                   150                                
PROFAMCHA080701114743114820000037xxCamp Rock Rock Along - Prems Friday @ 7:30pm (JU                                                                          150                                
PROFAMCHA080701114820114834000014Cory In The House IDs - (NSW) Kyle # 1- Weekend Mo                                                                          150                                
PROFAMCHA080701114834114851000017Mad Dash Block Open (:16-:18) APR06                                                                                         150                                
PRCFAMCHA080701114851114900000009CC Disclaimer - FAST - Generic (:09-:10)                                                                                    150                                
PGRFAMCHA080701114900121135002235Disney's Recess                                   EP: 1-057                                                            6068607ECC                              
PRCFAMCHA080701121135121141000006Astral ID (DEC 2007)                                                                                                        150                                
PRCFAMCHA080701121141121154000013MD - 02 - KIM/WEEKENDERS (:11 - :13) (SEPT07)                                                                               150                                
PROFAMCHA080701121154121209000015xxDC Games 2008 - The Games Are Coming In August                                                                            150                                
PROFAMCHA080701121209121239000030Kim Possible EVIL (MD) Coming Up Next (JULY08)                                                                              150                                
PROFAMCHA080701121239121313000034Proud Family - GET BURNED (MD) This Afternoon @ 4:                                                                          150                                
PRCFAMCHA080701121313121352000039xxSummer Sneaks Album Previews - Bret Ryan - Week                                                                           150                                
PRCFAMCHA080701121352121400000008MD Bumper - Ski Race (:07-:09) APR06                                                                                        150                                
PRCFAMCHA080701121400121409000009CC Disclaimer - FAST - Family.ca (:09-:10)                                                                                  150                                
PGRFAMCHA080701121409123659002250Disney's Kim Possible                             EP: 1-015                                                           A6068607ECC                              
PROFAMCHA080701123659123735000036Weekenders - PIZZA (MD) - (APR06) - Coming Up Next                                                                          150                                
PROFAMCHA080701123735123750000015Kim Possible BOYFRIEND (MD) This Afternoons @ 2:45                                                                          150                                
PRCFAMCHA080701123750123850000100Family Jams Overall Summer Promo REVISED 2 (June 2                                                                          150                                
PRCFAMCHA080701123850123900000010MD Bumper - Race Cars (:08-:10) APR06                                                                                       150                                
PRCFAMCHA080701123900123909000009CC Disclaimer - FAST - Generic (:09-:10)                                                                                    150                                
PGRFAMCHA080701123909130203002254Disney's The Weekenders                           EP: 1-003                                                           A6068607ECC                              
PRCFAMCHA080701130203130209000006Astral ID (DEC 2007)                                                                                                        150                                
PROFAMCHA080701130209130240000031American Dragon Jake Long (MD) (APR07) HERO Coming                                                                          150                                
PROFAMCHA080701130240130311000031Replacements - GENERIC (MD) This Afternoon @ 3:10p                                                                          150                                
PROFAMCHA080701130311130345000034Jonas Brothers Living The Dream Promo - Catch it o                                                                          150                                
PRCFAMCHA080701130345130400000015MD Bumper - Shopping Race (:15-:17) APR06                                                                                   150                                
PRCFAMCHA080701130400130409000009CC Disclaimer - FAST - Family.ca (:09-:10)                                                                                  150                                
PGRFAMCHA080701130409132648002239Disney's American Dragon: Jake Long               EPS # 20                                                             6068607ECC                              
PROFAMCHA080701132648132707000019Emperor's New School - Too Much Info - Coming Up N                                                                          150                                
PROFAMCHA080701132707132742000035Proud Family - IDOL (MD) This Afternoon @ 4:10pm (                                                                          150                                
PRCFAMCHA080701132742132812000030Cineplex Latest Buzz Popcorn Parties Post-Launch 3                                                                          150                                
PRCFAMCHA080701132812132851000039xxSummer Sneaks Album Previews - Bret Ryan - Week                                                                           150                                
PRCFAMCHA080701132851132900000009MD Bumper - Ski Race (:07-:09) APR06                                                                                        150                                
PRCFAMCHA080701132900132909000009CC Disclaimer - FAST - Generic (:09-:10)                                                                                    150                                
PGRFAMCHA080701132909135145002236Disney's The Emperor's New School                 EP: 07                                                               6068807ECC                              
PRCFAMCHA080701135145135151000006Astral ID (DEC 2007)                                                                                                        150                                
PROFAMCHA080701135151135206000015xxDC Games 2008 - The Games Are Coming In August                                                                            150                                
PROFAMCHA080701135206135228000022xxFillmore! - POLLY (MD) (APR06) - Coming Up Next                                                                           150                                
PROFAMCHA080701135228135243000015Kim Possible BOYFRIEND (MD) This Afternoons @ 2:45                                                                          150                                
PROFAMCHA080701135243135314000031Replacements - GENERIC (MD) This Afternoon @ 3:10p                                                                          150                                
PROFAMCHA080701135314135351000037xxCamp Rock Rock Along - Prems Friday @ 7:30pm (JU                                                                          150                                
PRCFAMCHA080701135351135400000009MD Bumper - Race Cars (:08-:10) APR06                                                                                       150                                
PRCFAMCHA080701135400135409000009CC Disclaimer - FAST - Family.ca (:09-:10)                                                                                  150                                
PGRFAMCHA080701135409141647002238Disney's Fillmore!                                EP: 1-002                                                            6068607ECC                              
PRCFAMCHA080701141647141747000100Family Jams Overall Summer Promo REVISED 2 (June 2                                                                          150                                
PROFAMCHA080701141747141823000036Weekenders - PIZZA (MD) - (APR06) - Coming Up Next                                                                          150                                
PRCFAMCHA080701141823141829000006xxFamily Bumpers - Reptile Pet - Lion (MD/NS/NSW)                                                                           150                                
PROFAMCHA080701141829141843000014Cory In The House IDs - (NSW) Kyle # 1- Weekend Mo                                                                          150                                
PRCFAMCHA080701141843141858000015MD Bumper - Shopping Race (:15-:17) APR06                                                                                   150                                
PRCFAMCHA080701141858141907000009CC Disclaimer - FAST - Family.ca (:09-:10)                                                                                  150                                
PGRFAMCHA080701141907144200002253Disney's The Weekenders                           EP: 1-012                                                           A6068607ECC                              
PRCFAMCHA080701144200144206000006Astral ID (DEC 2007)                                                                                                        150                                
PROFAMCHA080701144206144236000030Kim Possible EVIL (MD) Coming Up Next (JULY08)                                                                              150                                
PROFAMCHA080701144236144312000036xxKit Kittredge: An American Girl - In Theaters Ju                                                                          150                                
PRCFAMCHA080701144312144323000011xxFamily Bumpers - (Phase 2 F/W 04) - Science (MD-                                                                          150                                
PRCFAMCHA080701144323144353000030Camp Rock FOD Promo - Now On Demand  (June 17 - Ju                                                                          150                                
PRCFAMCHA080701144353144401000008MD Bumper - Ski Race (:07-:09) APR06                                                                                        150                                
PRCFAMCHA080701144401144410000009CC Disclaimer - FAST - Generic (:09-:10)                                                                                    150                                
PGRFAMCHA080701144410150701002251Disney's Kim Possible                             EPS # 1-028                                                         A6068607ECC                              
PROFAMCHA080701150701150731000030Replacements BABYSITTER (MD) Coming Up Next (SEPT0                                                                          150                                
PROFAMCHA080701150731150807000036xxJourney To The Center of The Earth  In Theaters                                                                           150                                
PROFAMCHA080701150807150842000035Proud Family - IDOL (MD) This Afternoon @ 4:10pm (                                                                          150                                
PRCFAMCHA080701150842151012000130Movie Entertainment (8)                                                                                                     150                                
PROFAMCHA080701151012151027000015xxDC Games 2008 - The Games Are Coming In August                                                                            150                                
PROFAMCHA080701151027151112000045Bratz Girlz Really Rock - Bratz GRR! (June 9 - Jul                                                                          150                                
PRCFAMCHA080701151112151151000039xxSummer Sneaks Album Previews - Bret Ryan - Week                                                                           150                                
PRCFAMCHA080701151151151200000009MD Bumper - Race Cars (:08-:10) APR06                                                                                       150                                
PRCFAMCHA080701151200151209000009CC Disclaimer - FAST - Family.ca (:09-:10)                                                                                  150                                
PGRFAMCHA080701151209153448002239Disney's The Replacements                         EP: 20                                                               2068607ECC                              
PRCFAMCHA080701153448153454000006Astral ID (DEC 2007)                                                                                                        150                                
PRCFAMCHA080701153454153524000030Camp Rock FOD Promo - Now On Demand  (June 17 - Ju                                                                          150                                
PROFAMCHA080701153524153544000020Emperor's New School - Malina Date - Coming Up Nex                                                                          150                                
PROFAMCHA080701153544153629000045xxFamily Favourites - Camp Rock CD (June 16 - July                                                                          150                                
PROFAMCHA080701153629153703000034Proud Family - GET BURNED (MD) This Afternoon @ 4:                                                                          150                                
PROFAMCHA080701153703153713000010FAMJAM - Open/Close                                                                                                         150                                
PGRFAMCHA080701153713153813000100MV Disney - (MD/NS/NSW) - Jesse McCartney - Just S                                                                     60288120                                
PROFAMCHA080701153813153827000014xxFAMJAM - Close (FAMILY) xxDNUxx                                                                                           150                                
PRCFAMCHA080701153827153833000006xxFamily Bumpers - Reptile Pet - Cow (MD/NS/NSW)                                                                            150                                
PROFAMCHA080701153833153910000037xxHannah Montana 3D Concert CD Blast (May 20 - Jul                                                                          150                                
PROFAMCHA080701153910153944000034Jonas Brothers Living The Dream Promo - Fridays Fo                                                                          150                                
PRCFAMCHA080701153944154000000016MD Bumper - Shopping Race (:15-:17) APR06                                                                                   150                                
PRCFAMCHA080701154000154009000009CC Disclaimer - FAST - Generic (:09-:10)                                                                                    150                                
PGRFAMCHA080701154009160245002236Disney's The Emperor's New School                 EP: 06                                                               6068807ECC                              
PROFAMCHA080701160245160320000035Proud Family - IDOL (MD) Coming Up Next (JULY08)                                                                            150                                
PROFAMCHA080701160320160405000045Bratz Girlz Really Rock - Bratz GRR! (June 9 - Jul                                                                          150                                
PRCFAMCHA080701160405160411000006xxFamily Bumpers - Reptile Pet - Rooster (MD/NS/NS                                                                          150                                
PRCFAMCHA080701160411160546000135Movie Entertainment (8)                                                                                                     150                                
PROFAMCHA080701160546160618000032Suite Life of Z & C (MD) Wonderful Hotel - This Af                                                                          150                                
PROFAMCHA080701160618160649000031xxAvril Lavigne Concert Blast (June 20 - July 2) $                                                                          150                                
PRCFAMCHA080701160649160749000100Family Jams Overall Summer Promo REVISED 2 (June 2                                                                          150                                
PRCFAMCHA080701160749160757000008MD Bumper - Ski Race (:07-:09) APR06                                                                                        150                                
ID FAMCHA080701160757160805000008Magic of Disney - MAD DASH - Wipe (:06-:09)                                                                                 150                                
PRCFAMCHA080701160805160814000009CC Disclaimer - FAST - Family.ca (:09-:10)                                                                                  150                                
PGRFAMCHA080701160814163049002235The Proud Family                                  EP: 2-043                                                           A6068607ECC                              
PRCFAMCHA080701163049163055000006Astral ID (DEC 2007)                                                                                                        150                                
PROFAMCHA080701163055163129000034Recess - HEROES (MD) - (APR06) - Coming Up Next                                                                             150                                
PROFAMCHA080701163129163214000045xxBarbie Pass - Ashley Taws (June 23 - July 10) $$                                                                          150                                
PRCFAMCHA080701163214163228000014xxFamily Bumpers - (Phase 1 Spring 04) - Basketbal                                                                          150                                
PRCFAMCHA080701163228163358000130Movie Entertainment (8)                                                                                                     150                                
PROFAMCHA080701163358163430000032Hannah Montana - WIG AUDITIONS (MD) This Afternoon                                                                          150                                
PROFAMCHA080701163430163515000045xxFamily Favourites - Camp Rock CD (June 16 - July                                                                          150                                
PROFAMCHA080701163515163552000037xxCamp Rock Rock Along - Prems Friday @ 7:30pm (JU                                                                          150                                
PRCFAMCHA080701163552163600000008MD Bumper - Race Cars (:08-:10) APR06                                                                                       150                                
PRCFAMCHA080701163600163609000009CC Disclaimer - FAST - Generic (:09-:10)                                                                                    150                                
PGRFAMCHA080701163609165844002235Disney's Recess                                   EP: 1-020                                                            6068607ECC                              
PRCFAMCHA080701165844165914000030Camp Rock FOD Promo - Now On Demand  (June 17 - Ju                                                                          150                                
PROFAMCHA080701165914165946000032Suite Life of Z & C (MD) Wonderful Hotel - Coming                                                                           150                                
PROFAMCHA080701165946170046000100xxKid Fit - Phase One - Audition C. Rock Contest R                                                                          150                                
PROFAMCHA080701170046170149000103Hannah Montana - MOCKUMENTARY (MD) This Afternoon                                                                           150                                
PRCFAMCHA080701170149170155000006xxFamily Bumpers - Reptile Pet - Meow (MD/NS/NSW)                                                                           150                                
PROFAMCHA080701170155170235000040Zoey 101 (NS) SAFETY CUPCAKE - Tonight @ 6pm (MAR0                                                                          150                                
PROFAMCHA080701170235170306000031xxAvril Lavigne Concert Blast (June 20 - July 2) $                                                                          150                                
PRCFAMCHA080701170306170345000039xxSummer Sneaks Album Previews - Bret Ryan - Week                                                                           150                                
PRCFAMCHA080701170345170400000015MD Bumper - Shopping Race (:15-:17) APR06                                                                                   150                                
ID FAMCHA080701170400170408000008Magic of Disney - MAD DASH - Shape (:06-:09)                                                                                150                                
PRCFAMCHA080701170408170417000009CC Disclaimer - FAST - Family.ca (:09-:10)                                                                                  150                                
PGRFAMCHA080701170417172655002238Suite Life of Zack & Cody, The                    EP: 16                                                               6068607BCC                              
PRCFAMCHA080701172655172701000006Astral ID (DEC 2007)                                                                                                        150                                
PRCFAMCHA080701172701172749000048Family Video Player Promo - No Tag 3/day (not in P                                                                          150                                
PROFAMCHA080701172749172821000032Hannah Montana - WIG AUDITIONS (MD) Coming Up Next                                                                          150                                
PROFAMCHA080701172821172906000045Walmart/Hannah Montana 3D Concert (June 26 - July                                                                           150                                
PRCFAMCHA080701172906172944000038Life W D (NS) Edwin Mystery Man - Tonight @ 6:30pm                                                                          150                                
PROFAMCHA080701172944173015000031Smart Guy FIGHT (JUNE06) NS - Tonight @ 7:30                                                                                150                                
PROFAMCHA080701173015173115000100xxBest Western Camp Rock Contest (June 16 - July 1                                                                          150                                
PROFAMCHA080701173115173152000037xxCamp Rock Rock Along - Prems Friday @ 7:30pm (JU                                                                          150                                
PRCFAMCHA080701173152173200000008MD Bumper - Ski Race (:07-:09) APR06                                                                                        150                                
ID FAMCHA080701173200173208000008Magic of Disney - MAD DASH - Shape (:06-:09)                                                                                150                                
PRCFAMCHA080701173208173217000009CC Disclaimer - FAST - Generic (:09-:10)                                                                                    150                                
PGRFAMCHA080701173217175455002238Hannah Montana                                    EP: 19                                                               6068807BCC                              
PRCFAMCHA080701175455175508000013NS - 01 - ZOEY 101/DEREK (:11 - :13) (MARCH08)                                                                              150                                
PROFAMCHA080701175508175525000017Zoey 101 (NS)  ZOEY, ZOEY, ZOEY - Coming Up Next (                                                                          150                                
PROFAMCHA080701175525175625000100xxKid Fit - Phase One - Audition C. Rock Contest R                                                                          150                                
PROFAMCHA080701175625175652000027That's So Raven CLIP (NS) Tonight @ 7pm (APR08)                                                                             150                                
PROFAMCHA080701175652175747000055Disney Behind The Curtain (MD, NS, NSW) 2 x Day  (                                                                          150                                
PROFAMCHA080701175747175806000019Phineas & Ferb (NSW) Isabella Tease - Weekend Afte                                                                          150                                
PROFAMCHA080701175806175842000036xxJourney To The Center of The Earth  In Theaters                                                                           150                                
PRCFAMCHA080701175842175942000100Family Jams Overall Summer Promo REVISED 2 (June 2                                                                          150                                
PROFAMCHA080701175942180000000018Nonstop Block Open (:16-:18) APR06                                                                                          150                                
PRCFAMCHA080701180000180009000009CC Disclaimer - FAST - Family.ca (:09-:10)                                                                                  150                                
PGRFAMCHA080701180009182242002233Zoey 101                                          EPS # 13                                                             2068807BCC                              
PRCFAMCHA080701182242182248000006Astral ID (DEC 2007)                                                                                                        150                                
PRCFAMCHA080701182248182301000013NS - 02 - DEREK/THAT'S SO RAVEN (:11 - :13) (MARCH                                                                          150                                
PRCFAMCHA080701182301182331000030Camp Rock FOD Promo - Now On Demand  (June 17 - Ju                                                                          150                                
PRCFAMCHA080701182331182409000038Life W D (NS) Edwin Mystery Man - Coming Up Next (                                                                          150                                
PROFAMCHA080701182409182454000045xxBarbie Pass - Ashley Taws (June 23 - July 10) $$                                                                          150                                
PROFAMCHA080701182454182521000027That's So Raven CLIP (NS) Tonight @ 7pm (APR08)                                                                             150                                
PRCFAMCHA080701182521182721000200Movie Entertainment (8)                                                                                                     150                                
PROFAMCHA080701182721182756000035Smart Guy GOOD FRIEND (JULY06) NS - Tonight @ 7:30                                                                          150                                
PROFAMCHA080701182756182811000015xxDC Games 2008 - The Games Are Coming In August                                                                            150                                
PRCFAMCHA080701182811182841000030Latest Buzz - LOCO LOCO (NS) Friday Nights @ 6:30                                                                           150                                
PROFAMCHA080701182841182912000031xxAvril Lavigne Concert Blast (June 20 - July 2) $                                                                          150                                
PROFAMCHA080701182912182946000034Jonas Brothers Living The Dream Promo - Catch it o                                                                          150                                
PRCFAMCHA080701182946183000000014NS Bumper - Fashion (:12-:14) APR06                                                                                         150                                
PRCFAMCHA080701183000183009000009CC Disclaimer - FAST - Generic (:09-:10)                                                                                    150                                
PGRFAMCHA080701183009185239002230Life with Derek                                   EP: 08                                                        C26822 1055607BCC3                             
PRCFAMCHA080701185239185250000011NS - 03 - RAVEN/SMART GUY (:11 - :13) (SEPT07)                                                                              150                                
PROFAMCHA080701185250185344000054That's So Raven FORTUNE TELLER (NS) Coming Up Next                                                                          150                                
PROFAMCHA080701185344185429000045Bratz Girlz Really Rock - Bratz GRR! (June 9 - Jul                                                                          150                                
PROFAMCHA080701185429185501000032Suite Life of Z & C (NS) Wonderful Hotel - Tonight                                                                          150                                
PROFAMCHA080701185501185511000010FAMJAM - Open/Close                                                                                                         150                                
PGRFAMCHA080701185511185656000145MV Disney - (MD/NS/NSW) - Jesse McCartney - Just S                                                                     60688120                                
PROFAMCHA080701185656185710000014xxFAMJAM - Close (FAMILY) xxDNUxx                                                                                           150                                
PRCFAMCHA080701185710185739000029Naturally Sadie - CLIP (NS) Tonight @ 8:30pm (MARC                                                                          150                                
PRCFAMCHA080701185739185829000050Latest Buzz - REPORTER QUIZ (NS) Friday Nights @ 6                                                                          150                                
PROFAMCHA080701185829185905000036xxKit Kittredge: An American Girl - In Theaters Ju                                                                          150                                
PRCFAMCHA080701185905185944000039xxSummer Sneaks Album Previews - Bret Ryan - Week                                                                           150                                
PRCFAMCHA080701185944190000000016NS Bumper - Tennis (:15-:17) APR06                                                                                          150                                
ID FAMCHA080701190000190008000008Magic of Disney - NS/NSW/PB - Shape (:06-:09)                                                                               150                                
PRCFAMCHA080701190008190017000009CC Disclaimer - FAST - Family.ca (:09-:10)                                                                                  150                                
PGRFAMCHA080701190017192238002221That's So Raven                                   EPS # 1-053                                                          6068607BCC                              
PRCFAMCHA080701192238192244000006Astral ID (DEC 2007)                                                                                                        150                                
PRCFAMCHA080701192244192255000011NS - 04 - SMART GUY/SUITE LIFE (:11 - :13) (SEPT07                                                                          150                                
PRCFAMCHA080701192255192343000048Family Video Player Promo - No Tag 3/day (not in P                                                                          150                                
PROFAMCHA080701192343192414000031Smart Guy FIGHT (JUNE06) NS - Coming Up Next                                                                                150                                
PROFAMCHA080701192414192514000100xxKid Fit - Phase One - Audition C. Rock Contest R                                                                          150                                
PROFAMCHA080701192514192611000057Suite Life of Z & C FABULOUS LIFESTYLES (NS) Tonig                                                                          150                                
PRCFAMCHA080701192611192741000130Movie Entertainment (8)                                                                                                     150                                
PROFAMCHA080701192741192815000034Hannah Montana (NS) Wig Auditions - Tonight @ 9 (O                                                                          150                                
PROFAMCHA080701192815192915000100xxBest Western Camp Rock Contest (June 16 - July 1                                                                          150                                
PROFAMCHA080701192915192952000037xxCamp Rock Rock Along - Prems Friday @ 7:30pm (JU                                                                          150                                
PRCFAMCHA080701192952193000000008NS Bumper - Dodgeball (:07-:09) APR06                                                                                       150                                
ID FAMCHA080701193000193008000008Magic of Disney - NS/NSW/PB - Wipe (:06-:09)                                                                                150                                
PRCFAMCHA080701193008193017000009CC Disclaimer - FAST - Generic (:09-:10)                                                                                    150                                
PGRFAMCHA080701193017195244002227Smart Guy                                         EP: 1-046                                                            6068807BCC                              
PRCFAMCHA080701195244195256000012NS - 05 - SUITE LIFE 8:00/SADIE 8:30 (:11 - :13) (                                                                          150                                
PROFAMCHA080701195256195328000032Suite Life of Z & C (MD) Wonderful Hotel - Coming                                                                           150                                
PROFAMCHA080701195328195413000045Walmart/Hannah Montana 3D Concert (June 26 - July                                                                           150                                
PRCFAMCHA080701195413195453000040Naturally Sadie - ROMANTIC (NS) Tonight @ 8:30pm (                                                                          150                                
PROFAMCHA080701195453195503000010FAMJAM - Open/Close                                                                                                         150                                
PGRFAMCHA080701195503195648000145MV Disney - (MD/NS/NSW) - Jesse McCartney - Just S                                                                     60688120                                
PROFAMCHA080701195648195702000014xxFAMJAM - Close (FAMILY) xxDNUxx                                                                                           150                                
PROFAMCHA080701195702195731000029Hannah Montana SCIENCE (NS) - Tonight @ 9pm (SEPT0                                                                          150                                
PROFAMCHA080701195731195801000030Wizards of Waverrly Place ALEX (NS) - Friday Night                                                                          150                                
PROFAMCHA080701195801195846000045xxBarbie Pass - Ashley Taws (June 23 - July 10) $$                                                                          150                                
PRCFAMCHA080701195846195946000100Family Jams Overall Summer Promo REVISED 2 (June 2                                                                          150                                
PRCFAMCHA080701195946200000000014NS Bumper - Fashion (:12-:14) APR06                                                                                         150                                
ID FAMCHA080701200000200008000008Magic of Disney - NS/NSW/PB - Shape (:06-:09)                                                                               150                                
PRCFAMCHA080701200008200017000009CC Disclaimer - FAST - Family.ca (:09-:10)                                                                                  150                                
PGRFAMCHA080701200017202256002239Suite Life of Zack & Cody, The                    EP: 01                                                               6068607BCC                              
PRCFAMCHA080701202256202302000006Astral ID (DEC 2007)                                                                                                        150                                
PRCFAMCHA080701202302202314000012NS - 06 - N. SADIE/HANNAH M (:11 - :13) (MARCH08)                                                                           150                                
PRCFAMCHA080701202314202344000030Camp Rock FOD Promo - Now On Demand  (June 17 - Ju                                                                          150                                
PRCFAMCHA080701202344202424000040Naturally Sadie - ROMANTIC (NS) Coming Up Next (MA                                                                          150                                
PROFAMCHA080701202424202509000045Bratz Girlz Really Rock - Bratz GRR! (June 9 - Jul                                                                          150                                
PRCFAMCHA080701202509202601000052Life With Derek (NS) Casey & Derek - Tonight @ 9:3                                                                          150                                
PRCFAMCHA080701202601202801000200Movie Entertainment (8)                                                                                                     150                                
PROFAMCHA080701202801202828000027That's So Raven CLIP (NS) Tomorrow Night @ 7pm (AP                                                                          150                                
PROFAMCHA080701202828202904000036xxJourney To The Center of The Earth  In Theaters                                                                           150                                
PRCFAMCHA080701202904202943000039xxSummer Sneaks Album Previews - Bret Ryan - Week                                                                           150                                
PRCFAMCHA080701202943203000000017NS Bumper - Tennis (:15-:17) APR06                                                                                          150                                
PRCFAMCHA080701203000203009000009CC Disclaimer - FAST - Generic (:09-:10)                                                                                    150                                
PGRFAMCHA080701203009205239002230Naturally, Sadie                                  EP: 18                                                        C24010 1065607ACC                              
PRCFAMCHA080701205239205250000011NS - 07 - HANNAH M/DEREK (:11 - :13) (MARCH08)                                                                              150                                
PROFAMCHA080701205250205324000034Jonas Brothers Living The Dream Promo - Fridays Fo                                                                          150                                
PROFAMCHA080701205324205409000045xxBarbie Pass - Ashley Taws (June 23 - July 10) $$                                                                          150                                
PROFAMCHA080701205409205424000015xxDC Games 2008 - The Games Are Coming In August                                                                            150                                
PROFAMCHA080701205424205855000431Jonas Brothers: Living The Dream Interstitial #7 R                                                                          150                                
PRCFAMCHA080701205855205906000011xxFamily Bumpers - (Phase 2 F/W 04) - Science (MD-                                                                          150                                
PROFAMCHA080701205906205942000036xxKit Kittredge: An American Girl - In Theaters Ju                                                                          150                                
PROFAMCHA080701205942205956000014Hannah Montana IDs - (NS) Miley # 2 - Next                                                                                  150                                
PRCFAMCHA080701205956210003000007NS Bumper - Dodgeball (:07-:09) APR06                                                                                       150                                
ID FAMCHA080701210003210009000006Magic of Disney - MAD DASH - Shape (:06-:09)                                                                                150                                
PRCFAMCHA080701210009210018000009CC Disclaimer - SLOW - Family.ca (:09-:10)                                                                                  150                                
PGRFAMCHA080701210018212256002238Hannah Montana                                    EP: 20                                                               6068807BCC                              
PRCFAMCHA080701212256212302000006Astral ID (DEC 2007)                                                                                                        150                                
PRCFAMCHA080701212302212313000011NS - 08 - DEREK/NED'S (:11 - :13) (MARCH08)                                                                                 150                                
PRCFAMCHA080701212313212351000038Life W D (NS) Edwin Mystery Man - Coming Up Next (                                                                          150                                
PROFAMCHA080701212351212427000036xxKit Kittredge: An American Girl - In Theaters Ju                                                                          150                                
PROFAMCHA080701212427212510000043Ned's DSSG (NS) Too Cool for School  - Tonight @ 1                                                                          150                                
PRCFAMCHA080701212510212645000135Movie Entertainment (8)                                                                                                     150                                
PROFAMCHA080701212645212728000043Cory In The House (NS) Tonight @ 10:30pm (SEPT07)                                                                           150                                
PROFAMCHA080701212728212823000055Disney Behind The Curtain (MD, NS, NSW) 2 x Day  (                                                                          150                                
PRCFAMCHA080701212823212837000014xxFamily Bumpers - (Phase 1 Spring 04) - Basketbal                                                                          150                                
PROFAMCHA080701212837212914000037xxHannah Montana 3D Concert CD Blast (May 20 - Jul                                                                          150                                
PROFAMCHA080701212914212951000037xxCamp Rock Rock Along - Prems Friday @ 7:30pm (JU                                                                          150                                
PRCFAMCHA080701212951213003000012NS Bumper - Fashion (:12-:14) APR06                                                                                         150                                
PRCFAMCHA080701213003213012000009CC Disclaimer - FAST - Generic (:09-:10)                                                                                    150                                
PGRFAMCHA080701213012215242002230Life with Derek                                   EP: 17                                                        C26822 1055607BCC3                             
PRCFAMCHA080701215242215254000012NS - 09 - NEDS/CORY IN THE HOUSE (:11 - :13) (SEPT                                                                          150                                
PRCFAMCHA080701215254215342000048Family Video Player Promo - No Tag 3/day (not in P                                                                          150                                
PROFAMCHA080701215342215425000043Ned's DSSG (NS) Too Cool for School  - Coming Up N                                                                          150                                
PRCFAMCHA080701215425215455000030Cineplex Latest Buzz Popcorn Parties Post-Launch 3                                                                          150                                
PROFAMCHA080701215455215555000100Cory In The House - Cory vs. Sophie (NS) Tonight @                                                                          150                                
PRCFAMCHA080701215555215755000200Movie Entertainment (8)                                                                                                     150                                
PRCFAMCHA080701215755215847000052Life With Derek (NS) Casey & Derek - Tonight @ 11:                                                                          150                                
PRCFAMCHA080701215847215947000100Family Jams Overall Summer Promo REVISED 2 (June 2                                                                          150                                
PRCFAMCHA080701215947220002000015NS Bumper - Tennis (:15-:17) APR06                                                                                          150                                
PRCFAMCHA080701220002220011000009CC Disclaimer - SLOW - Family.ca (:09-:10)                                                                                  150                                
PGRFAMCHA080701220011222431002420Ned's Declassified School Survival Guide          EP: 17                                                               2068807BCC                              
PRCFAMCHA080701222431222437000006Astral ID (DEC 2007)                                                                                                        150                                
PRCFAMCHA080701222437222448000011NS - 10 - CORY IN THE HOUSE/SUITE LIFE (:11 - :13)                                                                          150                                
PRCFAMCHA080701222448222518000030Camp Rock FOD Promo - Now On Demand  (June 17 - Ju                                                                          150                                
PROFAMCHA080701222518222601000043Cory In The House (NS) Coming Up Next (SEPT07)                                                                              150                                
PROFAMCHA080701222601222611000010FAMJAM - Open/Close                                                                                                         150                                
PGRFAMCHA080701222611222738000127MV Disney - (MD/NS/NSW) - Jesse McCartney - Just S                                                                     60688120                                
PROFAMCHA080701222738222752000014xxFAMJAM - Close (FAMILY) xxDNUxx                                                                                           150                                
PROFAMCHA080701222752222824000032Suite Life of Z & C (NS) Wonderful Hotel - Tonight                                                                          150                                
PRCFAMCHA080701222824222914000050Latest Buzz - REPORTER QUIZ (NS) Friday Nights @ 6                                                                          150                                
PRCFAMCHA080701222914222953000039xxSummer Sneaks Album Previews - Bret Ryan - Week                                                                           150                                
PRCFAMCHA080701222953223000000007NS Bumper - Dodgeball (:07-:09) APR06                                                                                       150                                
ID FAMCHA080701223000223008000008Magic of Disney - NS/NSW/PB - Wipe (:06-:09)                                                                                150                                
PRCFAMCHA080701223008223017000009CC Disclaimer - SLOW - Generic (:09 -:10)                                                                                   150                                
PGRFAMCHA080701223017225253002236Cory in the House                                 EP: 18                                                               6068607BCC                              
PRCFAMCHA080701225253225306000013NS - 11 - SUITE LIFE/LIFE WITH DEREK (:11 - :13) (                                                                          150                                
PROFAMCHA080701225306225403000057Suite Life of Z & C FABULOUS LIFESTYLES (NS) Comin                                                                          150                                
PRCFAMCHA080701225403225533000130Movie Entertainment (8)                                                                                                     150                                
PROFAMCHA080701225533225548000015xxDC Games 2008 - The Games Are Coming In August                                                                            150                                
PROFAMCHA080701225548225558000010FAMJAM - Open/Close                                                                                                         150                                
PGRFAMCHA080701225558225851000253MV Disney - (MD/NS/NSW) - Jesse McCartney - Just S                                                                     60688120                                
PROFAMCHA080701225851225905000014xxFAMJAM - Close (FAMILY) xxDNUxx                                                                                           150                                
PROFAMCHA080701225905225942000037xxCamp Rock Rock Along - Prems Friday @ 7:30pm (JU                                                                          150                                
PRCFAMCHA080701225942225955000013NS Bumper - Fashion (:12-:14) APR06                                                                                         150                                
ID FAMCHA080701225955230003000008Magic of Disney - NS/NSW/PB - Shape (:06-:09)                                                                               150                                
PRCFAMCHA080701230003230012000009CC Disclaimer - SLOW - Family.ca (:09-:10)                                                                                  150                                
PGRFAMCHA080701230012232252002240Suite Life of Zack & Cody, The                    EP: 16                                                               6068607BCC                              
PRCFAMCHA080701232252232258000006Astral ID (DEC 2007)                                                                                                        150                                
PRCFAMCHA080701232258232311000013NS - 12 - LIFE WITH DEREK/SADIE (:11 - :13) (SEPT0                                                                          150                                
PRCFAMCHA080701232311232403000052Life With Derek (NS) Casey & Derek - Coming Up Nex                                                                          150                                
PRCFAMCHA080701232403232538000135Movie Entertainment (8)                                                                                                     150                                
PRCFAMCHA080701232538232618000040Naturally Sadie - ROMANTIC (NS) Tonight @ 12:00am                                                                           150                                
PROFAMCHA080701232618232628000010FAMJAM - Open/Close                                                                                                         150                                
PGRFAMCHA080701232628232758000130MV Disney - (MD/NS/NSW) - Jesse McCartney - Just S                                                                     60688120                                
PROFAMCHA080701232758232812000014xxFAMJAM - Close (FAMILY) xxDNUxx                                                                                           150                                
PROFAMCHA080701232812232839000027That's So Raven CLIP (NS) Tomorrow Night @ 7pm (AP                                                                          150                                
PROFAMCHA080701232839232909000030Wizards of Waverrly Place JUSTIN (NS) - Friday Nig                                                                          150                                
PROFAMCHA080701232909232943000034Jonas Brothers Living The Dream Promo - Catch it o                                                                          150                                
PRCFAMCHA080701232943233000000017NS Bumper - Tennis (:15-:17) APR06                                                                                          150                                
PRCFAMCHA080701233000233009000009CC Disclaimer - SLOW - Generic (:09 -:10)                                                                                   150                                
PGRFAMCHA080701233009235239002230Life with Derek                                   EP: 09                                                        C23968A1065607BCC                              
PRCFAMCHA080701235239235250000011NS - 13 - SADIE/SADIE (:11 - :13) (SEPT07)                                                                                  150                                
PRCFAMCHA080701235250235319000029Naturally Sadie - CLIP (NS) Coming Up Next (MARCH0                                                                          150                                
PROFAMCHA080701235319235414000055Disney Behind The Curtain (MD, NS, NSW) 2 x Day  (                                                                          150                                
PRCFAMCHA080701235414235428000014xxFamily Bumpers - (Phase 1 Spring 04) - Basketbal                                                                          150                                
PROFAMCHA080701235428235438000010FAMJAM - Open/Close                                                                                                         150                                
PGRFAMCHA080701235438235838000400MV Disney - (MD/NS/NSW) - Jesse McCartney - Just S                                                                     60688120                                
PROFAMCHA080701235838235852000014xxFAMJAM - Close (FAMILY) xxDNUxx                                                                                           150                                
PRCFAMCHA080701235852235952000100Family Jams Overall Summer Promo REVISED 2 (June 2                                                                          150                                
PRCFAMCHA080701235952000000000008NS Bumper - Dodgeball (:07-:09) APR06                                                                                       150                                
PRCFAMCHA080701000000000009000009CC Disclaimer - SLOW - Family.ca (:09-:10)                                                                                  150                                
PGRFAMCHA080701000009002239002230Naturally, Sadie                                  EP: 11                                                        C24010 1065607ACC                              
PRCFAMCHA080701002239002245000006Astral ID (DEC 2007)                                                                                                        150                                
PRCFAMCHA080701002245002257000012NS - 14 - SADIE/HANNAH (:11 - :13) (SEPT07)                                                                                 150                                
PRCFAMCHA080701002257002337000040Naturally Sadie - ROMANTIC (NS) Coming Up Next (MA                                                                          150                                
PRCFAMCHA080701002337002415000038Life W D (NS) Edwin Mystery Man - Tomorrow Night @                                                                          150                                
PROFAMCHA080701002415002425000010FAMJAM - Open/Close                                                                                                         150                                
PGRFAMCHA080701002425002755000330MV Disney - (MD/NS/NSW) - Jesse McCartney - Just S                                                                     60688120                                
PROFAMCHA080701002755002809000014xxFAMJAM - Close (FAMILY) xxDNUxx                                                                                           150                                
PROFAMCHA080701002809002840000031Smart Guy FIGHT (JUNE06) NS - Tomorrow night @ 7:3                                                                          150                                
PRCFAMCHA080701002840002910000030Latest Buzz - LOCO LOCO (NS) Friday Nights @ 6:30                                                                           150                                
PROFAMCHA080701002910002947000037xxCamp Rock Rock Along - Prems Friday @ 7:30pm (JU                                                                          150                                
PRCFAMCHA080701002947003000000013NS Bumper - Fashion (:12-:14) APR06                                                                                         150                                
PRCFAMCHA080701003000003009000009CC Disclaimer - SLOW - Generic (:09 -:10)                                                                                   150                                
PGRFAMCHA080701003009005239002230Naturally, Sadie                                  EP: 25                                                        C24010 1065607ACC                              
PROFAMCHA080701005239005341000102Hannah Montana (NS) Mockumentry - Coming Up Next (                                                                          150                                
PROFAMCHA080701005341005809000428Jonas Brothers: Living The Dream Interstitial #5 -                                                                          150                                
PROFAMCHA080701005809005906000057Suite Life of Z & C FABULOUS LIFESTYLES (NS) Tomor                                                                          150                                
PRCFAMCHA080701005906005945000039xxSummer Sneaks Album Previews - Bret Ryan - Week                                                                           150                                
PRCFAMCHA080701005945010000000015NS Bumper - Tennis (:15-:17) APR06                                                                                          150                                
ID FAMCHA080701010000010008000008Magic of Disney - NS/NSW/PB - Shape (:06-:09)                                                                               150                                
PRCFAMCHA080701010008010017000009CC Disclaimer - SLOW - Family.ca (:09-:10)                                                                                  150                                
PGRFAMCHA080701010017012255002238Hannah Montana                                    EP: 10                                                               6068807BCC                              
PRCFAMCHA080701012255012301000006Astral ID (DEC 2007)                                                                                                        150                                
PRCFAMCHA080701012301012309000008NS Bumper - Dodgeball (:07-:09) APR06                                                                                       150                                
ID FAMCHA080701012309012317000008Magic of Disney - NS/NSW/PB - Wipe (:06-:09)                                                                                150                                
PRCFAMCHA080701012317012326000009CC Disclaimer - SLOW - Generic (:09 -:10)                                                                                   150                                
PGRFAMCHA080701012326014604002238Cory in the House                                 EP: 01                                                               6068607BCC                              
PRCFAMCHA080701014604014617000013NS Bumper - Fashion (:12-:14) APR06                                                                                         150                                
ID FAMCHA080701014617014625000008Magic of Disney - NS/NSW/PB - Shape (:06-:09)                                                                               150                                
PRCFAMCHA080701014625014634000009CC Disclaimer - SLOW - Family.ca (:09-:10)                                                                                  150                                
PGRFAMCHA080701014634020902002228Smart Guy                                         EP: 1-022                                                            6068807BCC                              
PRCFAMCHA080701020902020908000006Astral ID (DEC 2007)                                                                                                        150                                
PRCFAMCHA080701020908020921000013NS - 18 - BOY MEETS WORLD/LIFE WITH DEREK (:11 - :                                                                          150                                
PRCFAMCHA080701020921020937000016NS Bumper - Tennis (:15-:17) APR06                                                                                          150                                
ID FAMCHA080701020937020945000008Magic of Disney - NS/NSW/PB - Wipe (:06-:09)                                                                                150                                
PRCFAMCHA080701020945020954000009CC Disclaimer - SLOW - Generic (:09 -:10)                                                                                   150                                
PGRFAMCHA080701020954023221002227Boy Meets World                                   EP: 1-007                                                           B6068807BCC                              
PRCFAMCHA080701023221023234000013NS - 19 - LIFE WITH DEREK/CORY IN THE HOUSE (:11 -                                                                          150                                
PRCFAMCHA080701023234023242000008NS Bumper - Dodgeball (:07-:09) APR06                                                                                       150                                
PRCFAMCHA080701023242023251000009CC Disclaimer - SLOW - Family.ca (:09-:10)                                                                                  150                                
PGRFAMCHA080701023251025521002230Life with Derek                                   EP: 07                                                        C26822 1065607BCC                              
PRCFAMCHA080701025521025527000006Astral ID (DEC 2007)                                                                                                        150                                
PRCFAMCHA080701025527025540000013NS - 20 -CORY IN THE HOUSE/RAVEN (:11 - :13) (SEPT                                                                          150                                
PRCFAMCHA080701025540025553000013NS Bumper - Fashion (:12-:14) APR06                                                                                         150                                
ID FAMCHA080701025553025601000008Magic of Disney - NS/NSW/PB - Wipe (:06-:09)                                                                                150                                
PRCFAMCHA080701025601025610000009CC Disclaimer - SLOW - Generic (:09 -:10)                                                                                   150                                
PGRFAMCHA080701025610031848002238Cory in the House                                 EP: 13                                                               6068607BCC                              
PRCFAMCHA080701031848031901000013NS - 21 - RAVEN/ SUITE LIFE (:11 - :13) (SEPT07)                                                                            150                                
PRCFAMCHA080701031901031917000016NS Bumper - Tennis (:15-:17) APR06                                                                                          150                                
ID FAMCHA080701031917031925000008Magic of Disney - NS/NSW/PB - Shape (:06-:09)                                                                               150                                
PRCFAMCHA080701031925031934000009CC Disclaimer - SLOW - Family.ca (:09-:10)                                                                                  150                                
PGRFAMCHA080701031934034214002240That's So Raven                                   EP: 084                                                              6068607BCC                              
PRCFAMCHA080701034214034220000006Astral ID (DEC 2007)                                                                                                        150                                
PRCFAMCHA080701034220034233000013NS - 22 - SUITE LIFE/LIFE WITH DEREK (:11 - :13) (                                                                          150                                
PRCFAMCHA080701034233034241000008NS Bumper - Dodgeball (:07-:09) APR06                                                                                       150                                
ID FAMCHA080701034241034250000009Magic of Disney - NS/NSW/PB - Wipe (:06-:09)                                                                                150                                
PRCFAMCHA080701034250034300000010CC Disclaimer - SLOW - Generic (:09 -:10)                                                                                   150                                
PGRFAMCHA080701034300040539002239Suite Life of Zack & Cody, The                    EP: 54                                                               6068607BCC                              
PRCFAMCHA080701040539040552000013NS - 23 - LIFE WITH DEREK (:11 - :13) (SEPT07)                                                                              150                                
PRCFAMCHA080701040552040606000014NS Bumper - Fashion (:12-:14) APR06                                                                                         150                                
PRCFAMCHA080701040606040616000010CC Disclaimer - SLOW - Family.ca (:09-:10)                                                                                  150                                
PGRFAMCHA080701040616042846002230Life with Derek                                   EP: 16                                                        C26679A1065607BCC                              
PRCFAMCHA080701042846042852000006Astral ID (DEC 2007)                                                                                                        150                                
PRCFAMCHA080701042852042908000016PH - 01 - KATIE/FRANNY/SOMETHING  (:14 - :16) (SEP                                                                          150                                
PRCFAMCHA080701042908042923000015Franny's Feet - Bowleriffic (PH-Mon) - (APR06) - T                                                                          150                                
PRCFAMCHA080701042923042943000020Benjamin Bear - Snack (PHwknd) (APR06) - Weekend M                                                                          150                                
ID FAMCHA080701042943042958000015PS Playhouse AM Block Open (:10-:15)                                                                                        150                                
OFFFAMCHA080701042958043000000002OFF AIR                                                                                                                                                        
SO FAMCHA080702043000043011000011Sign On (oct 1)                                                                                                                                                
PRCFAMCHA080702043011043020000009CC Disclaimer - FAST - Family.ca (:09-:10)                                                                                  150                                
PGRFAMCHA080702043020045656002636Katie And Orbie                                   EP: 3-036                                                     C12449A1065607ECC                              
PRCFAMCHA080702045656045702000006Astral ID (DEC 2007)                                                                                                        150                                
PRCFAMCHA080702045702045718000016PH - 02 - FRANNY/SOMETHING/HOZE (:14 - :16) (SEPT0                                                                          150                                
ID FAMCHA080702045718045731000013PS Playhouse AM Block Open (:10-:15)                                                                                        150                                
PRCFAMCHA080702045731045740000009CC Disclaimer - FAST - Generic (:09-:10)                                                                                    150                                
PGRFAMCHA080702045740052011002231Franny's Feet                                     EPS # 30                                                      C23971 1065607ECC                              
PRCFAMCHA080702052011052027000016PH - 03 - SOMETHING/HOZE/HENRY'S (:14 - :16) (SEPT                                                                          150                                
ID FAMCHA080702052027052040000013PS Playhouse AM Block Open (:10-:15)                                                                                        150                                
PRCFAMCHA080702052040052049000009CC Disclaimer - FAST - Family.ca (:09-:10)                                                                                  150                                
PGRFAMCHA080702052049054320002231Something Else                                    EP: 1-004                                                     B69258A1065607ECC                              
PRCFAMCHA080702054320054326000006Astral ID (DEC 2007)                                                                                                        150                                
PRCFAMCHA080702054326054342000016PH - 04 - HOZE/HENRY'S/KING (:14 - :16) (SEPT07)                                                                            150                                
ID FAMCHA080702054342054355000013PS Playhouse AM Block Open (:10-:15)                                                                                        150                                
PRCFAMCHA080702054355054404000009CC Disclaimer - FAST - Generic (:09-:10)                                                                                    150                                
PGRFAMCHA080702054404060642002238Hoze Houndz                                       EP: 5-060                                                     B63396A1065607ECC                              
PRCFAMCHA080702060642060656000014PH - 05 - HENRY'S WORLD/KING (:14 - :16) (SEPT07)                                                                           150                                
ID FAMCHA080702060656060706000010PS Playhouse AM Block Open (:10-:15)                                                                                        150                                
PRCFAMCHA080702060706060716000010CC Disclaimer - FAST - Family.ca (:09-:10)                                                                                  150                                
PGRFAMCHA080702060716063119002403Henry's World                                     EPS # 2-025                                                   B81056A1065607GCC                              
PRCFAMCHA080702063119063125000006Astral ID (DEC 2007)                                                                                                        150                                
ID FAMCHA080702063125063135000010PS Playhouse AM Block Open (:10-:15)                                                                                        150                                
PRCFAMCHA080702063135063144000009CC Disclaimer - FAST - Generic (:09-:10)                                                                                    150                                
PGRFAMCHA080702063144065414002230King                                              EPS # 2-023                                                   B75778 1065607ECC                              
PROFAMCHA080702065414065444000030Kim Possible EVIL (MMM) (MAY07) Coming Up Next                                                                              150                                
