PGRFAMCHA131101043000045236002236The Secret World of Benjamin Bear                 EPS # 1-009                                                   B75154 1065607ECC                              
PROFAMCHA131101045236045243000007D-JR Live Action ID - Franny's Feet - Coming Up (M                                                                          150                                
PROFAMCHA131101045243045308000025D-JR Live Action ID - # Learning Hot and Cold (Oct                                                                          150                                
PROFAMCHA131101045308045350000042D-JR Promo - Winnie The Pooh - Sunday Nov 10 @ 103                                                                          150                                
PROFAMCHA131101045350045442000052D-JR Promo - Doc McStuffins - Get more on the chan                                                                          150                                
PROFAMCHA131101045442045512000030D-JR Promo - On demand online REVISED - D-JR.ca (M                                                                          150                                
PROFAMCHA131101045512045532000020D-JR Promo - Sofia The First: Clip 1 - Get More We                                                                          150                                
PROFAMCHA131101045532045557000025D-JR Live Action ID - #11 Counting Goldfish (Sep20                                                                          150                                
PROFAMCHA131101045557045604000007D-JR Live Action ID - Franny's Feet - Now (May2012                                                                          150                                
PROFAMCHA131101045604045610000006D-JR - Bumper 3 (May2011)                                                                                                   150                                
PGRFAMCHA131101045610051843002233Franny's Feet                                     EP: 48                                                        C31292 1065607ECC                              
PROFAMCHA131101051843051850000007D-JR Live Action ID - SWOBB - Coming Up (May2012)                                                                           150                                
PROFAMCHA131101051850051915000025D-JR Live Action ID - #10 Build A Block Tower (Sep                                                                          150                                
PROFAMCHA131101051915051930000015D-JR Promo - Sofia The First: Clip 3 - Get More We                                                                          150                                
PROFAMCHA131101051930052012000042D-JR Promo - Bananas in Pajamas - Weekdays @ 10am                                                                           150                                
PROFAMCHA131101052012052038000026D-JR Promo - Jake Episodic 217 - New Ep Sunday Nov                                                                          150                                
PROFAMCHA131101052038052103000025D-JR Live Action ID - #20 Calendar (May2012)                                                                                150                                
PROFAMCHA131101052103052110000007D-JR Live Action ID - SWOBB - Now (May2012)                                                                                 150                                
PROFAMCHA131101052110052120000010D-JR - Flex ID - Green (:6-:10) (Feb2012)                                                                                   150                                
PGRFAMCHA131101052120054351002231The Secret World of Benjamin Bear                 EP: 34                                                        C27272 1065607ECC                              
PROFAMCHA131101054351054358000007D-JR Live Action ID - Harry & His Dinosaurs - Comi                                                                          150                                
PROFAMCHA131101054358054423000025D-JR Live Action ID - #15 Sidewalk Chalk (Sep2013)                                                                          150                                
PROFAMCHA131101054423054433000010D-JR - Station ID (:10) (May2011)                                                                                           150                                
PROFAMCHA131101054433054458000025D-JR Live Action ID - #13 Make Bed (May2012)                                                                                150                                
PROFAMCHA131101054458054505000007D-JR Live Action ID - Harry & His Dinosaurs - Now                                                                           150                                
PGRFAMCHA131101054505060643002138Harry and His Bucket Full of Dinosaurs            EP: 03                                                        B05022 1065607ECC                              
PROFAMCHA131101060643060651000008D-JR Live Action ID - Stella & Sam - Coming Up (Ma                                                                          150                                
PROFAMCHA131101060651060716000025D-JR Live Action ID - #29 Put Shoes On (Sept2012)                                                                           150                                
PROFAMCHA131101060716060746000030D-JR Episodic - Sofia the First Episodic 117 Sunda                                                                          150                                
PROFAMCHA131101060746060816000030D-JR - Standalone ID - Magic Book (May2011)                                                                                 150                                
PROFAMCHA131101060816060851000035D-JR Promo - Handy Manny - Get more on the channel                                                                          150                                
PROFAMCHA131101060851060921000030D-JR Promo - On demand online REVISED - D-JR.ca (M                                                                          150                                
PROFAMCHA131101060921060946000025D-JR Live Action ID - #34 Hide N Seek (Sep2013)                                                                             150                                
PROFAMCHA131101060946060954000008D-JR Live Action ID - Stella & Sam - Now (Mar2013)                                                                          150                                
PROFAMCHA131101060954061004000010D-JR - Flex ID - Yellow (:6-:10) (Feb2012)                                                                                  150                                
PGRFAMCHA131101061004063320002316Stella and Sam                                    EP: 01                                                        C33973 1065607ECC                              
PROFAMCHA131101063320063345000025Episodic ANT Farm (HD) 309 New Ep This Afternoon @                                                                          150                                
PRCFAMCHA131101063345063354000009Family Bumper (HD) - Dragonflies ID (Jan 2011)                                                                              150                                
PROFAMCHA131101063354063426000032PAF (HD) Delicious Refresh - Coming Up Next (Jun20                                                                          150                                
PRCFAMCHA131101063426063504000038Bunks Camp Sell (HD) Prems Friday Nov 8 @ 8 (Nov1-                                                                          150                                
PGRFAMCHA131101063504065736002232Disney Phineas & Ferb                             EP: 08                                                               6068607ECC                              
PGRFAMCHA131101065736065831000055Stunt Mighty Mega Marathon (HD) This Aft Starting                                                                      60285120CC                              
PROFAMCHA131101065831065921000050Lego                                                                                                                        150                                
PRCFAMCHA131101065921065951000030Web FOD 2012 Refresh (HD) Family.ca New Look (Apr2                                                                          150                                
PRCFAMCHA131101065951070006000015Family Flex Next (HD) SIU Zendaya (Aug 2013) (:13-                                                                          150                                
PGRFAMCHA131101070006072225002219Disney Shake It Up                                EP: 27                                                               6068707BCC                              
PROFAMCHA131101072225072235000010LU - (HD) ANT Farm/Jessie @ 7:50am (April 2013)                                                                             150                                
PROFAMCHA131101072235072305000030Episodic SIU (HD) 322 New Ep Tonight @ 630 (Nov1)                                                                           150                                
PROFAMCHA131101072305072350000045Mattel                                                                                                                      150                                
PRCFAMCHA131101072350072400000010Family Bumper (HD) - Satelite ID (Jan 2011)                                                                                 150                                
PROFAMCHA131101072400072450000050Lego                                                                                                                        150                                
PROFAMCHA131101072450072505000015ANT Farm (HD) Refresh CT - Coming Up Next (April 2                                                                          150                                
PGRFAMCHA131101072505074638002133Disney A.N.T. Farm                                EP: 11                                                               6068607BCC                              
PROFAMCHA131101074638074648000010LU - (HD) Jessie/WOWP @ 8:15am (April 2013)                                                                                 150                                
PROFAMCHA131101074648074713000025Episodic ANT Farm (HD) 309 New Ep This Afternoon @                                                                          150                                
PROFAMCHA131101074713074803000050E One Films                                                                                                                 150                                
PROFAMCHA131101074803074844000041Web Next Step Online Mashup (HD) On family.ca (Mar                                                                          150                                
PROFAMCHA131101074844074859000015PSA CMF (HD) Canada on Screen (Nov2012) (3x per da                                                                          150                                
PROFAMCHA131101074859074949000050Walt Disney Studios Home Entertainment                                                                                      150                                
PRCFAMCHA131101074949075003000014Family Flex Next (HD) Jessie - Emma (:12-:14) (Mar                                                                          150                                
PRCFAMCHA131101075003075107000104Bunks Int (HD) Emilia - Prems Friday Nov 8 @ 8 (No                                                                          150CC                              
PGRFAMCHA131101075107081341002234Disney Jessie                                     EP: 02                                                               6068807BCC                              
PROFAMCHA131101081341081411000030Episodic Jessie (HD) 302 New Ep Wednesday @ 630 (O                                                                          150                                
PROFAMCHA131101081411081442000031Episodic MM (HD) 101 New Ep Today @ 6 (Nov1)                                                                                150                                
PROFAMCHA131101081442081522000040Kellogg's                                                                                                                   150                                
PROFAMCHA131101081522081605000043BAW Promo (HD) Stand Up to Bullying Week (Nov1-22)                                                                          150                                
PROFAMCHA131101081605081648000043Mickey Mouse Shorts Promo (HD) Continuing Tonight                                                                           150                                
PROFAMCHA131101081648081743000055Disney Interactive                                                                                                          150                                
PROFAMCHA131101081743081749000006WOWP (HD) ID - Jennifer Stone 1 "Coming Up Next" (                                                                          150                                
PRCFAMCHA131101081749081813000024Episodic Next Step (HD) 121 New Ep Tonight @ 7 (No                                                                          150                                
PGRFAMCHA131101081813084048002235Disney Wizards of Waverly Place                   EP: 09                                                               6068607BCC                              
PROFAMCHA131101084048084056000008D-JR Live Action ID - Tickity Toc - Coming Up (Mar                                                                          150                                
PROFAMCHA131101084056084121000025D-JR Live Action ID - #67 Play Dressup (Sep2013)                                                                            150                                
PROFAMCHA131101084121084147000026D-JR Promo - Jake Episodic 217 - New Ep Sunday Nov                                                                          150                                
PROFAMCHA131101084147084237000050The Walt Disney Company                                                                                                     150                                
PROFAMCHA131101084237084329000052D-JR Promo - Doc McStuffins - Get more on the chan                                                                          150                                
PROFAMCHA131101084329084401000032D-JR Promo - Stella and Sam - Get more on the chan                                                                          150                                
PROFAMCHA131101084401084431000030D-JR Promo - On demand online REVISED - D-JR.ca (M                                                                          150                                
PROFAMCHA131101084431084456000025D-JR Live Action ID - #9 Ride A Bike (Sep2013)                                                                              150                                
PROFAMCHA131101084456084504000008D-JR Live Action ID - Tickity Toc - Now (Mar2013)                                                                           150                                
PROFAMCHA131101084504084515000011D-JR - Station ID (:11) (May2011)                                                                                           150                                
PGRFAMCHA131101084515085616001101Tickety Toc                                       EP: 31                                                               3068605ACC                              
PGRFAMCHA131101085616090719001103Tickety Toc                                       EP: 32                                                               3068605ACC                              
PROFAMCHA131101090719090727000008D-JR Live Action ID - Little Einsteins - Coming Up                                                                          150                                
PROFAMCHA131101090727090752000025D-JR Live Action ID - #8 Reading Book/Quiet Time (                                                                          150                                
PROFAMCHA131101090752090852000100D-JR Promo - Tickety Toc - Racing The Clock - Get                                                                           150                                
PROFAMCHA131101090852090932000040MGA Entertainment Canada                                                                                                    150                                
PROFAMCHA131101090932091004000032D-JR Promo - Stella and Sam - Get more on the chan                                                                          150                                
PROFAMCHA131101091004091034000030D-JR Episodic - Sofia the First Episodic 117 Sunda                                                                          150                                
PROFAMCHA131101091034091059000025D-JR Live Action ID - #96 Piano (Sep2013)                                                                                   150                                
PROFAMCHA131101091059091107000008D-JR Live Action ID - Little Einsteins - Now (Nov2                                                                          150                                
PROFAMCHA131101091107091117000010D-JR - Flex ID - Purple (:6-:10) (Feb2012)                                                                                  150                                
PGRFAMCHA131101091117093523002406Disney's Little Einsteins                         EP: 11                                                               6068605ACC                              
PROFAMCHA131101093523093530000007D-JR Live Action ID - Handy Manny - Coming Up (May                                                                          150                                
PROFAMCHA131101093530093555000025D-JR Live Action ID - #94 Jump Rope (Sep2013)                                                                               150                                
PROFAMCHA131101093555093637000042D-JR Promo - Winnie The Pooh - Sunday Nov 10 @ 103                                                                          150                                
PROFAMCHA131101093637093702000025D-JR Live Action ID - #90 Freeze Dance (Sep2013)                                                                            150                                
PROFAMCHA131101093702093709000007D-JR Live Action ID - Handy Manny - Now (May2012)                                                                           150                                
PROFAMCHA131101093709093715000006D-JR - Bumper 1 (May2011)                                                                                                   150                                
PGRFAMCHA131101093715100115002400Handy Manny                                       EP: 21                                                               6068605ACC                              
PROFAMCHA131101100115100123000008D-JR Live Action ID - Jake & the Never Land Pirate                                                                          150                                
PROFAMCHA131101100123100148000025D-JR Live Action ID - #46 Donating Clothes (Sept20                                                                          150                                
PROFAMCHA131101100148100218000030D-JR Episodic - Sofia the First Episodic 117 Sunda                                                                          150                                
PROFAMCHA131101100218100248000030D-JR Promo - Little Einsteins - Get more on D-JR t                                                                          150                                
PROFAMCHA131101100248100340000052D-JR Promo - Doc McStuffins - Get more on the chan                                                                          150                                
PROFAMCHA131101100340100405000025D-JR Live Action ID - #63 Wash Face (Sep2013)                                                                               150                                
PROFAMCHA131101100405100412000007D-JR Live Action ID - Jake & the Never Land Pirate                                                                          150                                
PROFAMCHA131101100412100418000006D-JR - Bumper 4 (May2011)                                                                                                   150                                
PGRFAMCHA131101100418102823002405Disney Jake and the Never Land Pirates            EP: 20                                                               6068605ACC                              
PROFAMCHA131101102823102831000008D-JR Live Action ID - Sofia the First - Coming Up                                                                           150                                
PROFAMCHA131101102831102856000025D-JR Live Action ID - #51 Chores Board (Sep2013)                                                                            150                                
PROFAMCHA131101102856102922000026D-JR Promo - Jake Episodic 217 - New Ep Sunday Nov                                                                          150                                
PROFAMCHA131101102922102952000030D-JR Promo - MMCH - Get more MMCH on D-JR the chan                                                                          150                                
PROFAMCHA131101102952103017000025D-JR Live Action ID - #35 Nature Walk (Sep2013)                                                                             150                                
PROFAMCHA131101103017103025000008D-JR Live Action ID - Sofia the First - Now (Jan20                                                                          150                                
PROFAMCHA131101103025103035000010D-JR - Flex ID - Blue (:6-:10) (Feb2012)                                                                                    150                                
PGRFAMCHA131101103035105305002230Disney Sofia the First                            EP: 01                                                               6068605ACC                              
PGRFAMCHA131101105305105435000130ME - Free Birds (HD) Story 1 - Now Playing (Nov1-1                                                                     60285120                                
PROFAMCHA131101105435105452000017PAF (HD) Disney Refresh CD - Coming Up Next (April                                                                          150                                
PRCFAMCHA131101105452105519000027Episodic GLC (HD) 412 New Ep Today @ 530 (Nov1)                                                                             150                                
PROFAMCHA131101105519105604000045Mattel                                                                                                                      150                                
PRCFAMCHA131101105604105626000022Game Change November (HD) Fridays Only - Family.ca                                                                          150                                
PROFAMCHA131101105626105656000030Episodic SIU (HD) 322 New Ep Tonight @ 630 (Nov1)                                                                           150                                
PGRFAMCHA131101105656105841000145Syn (HD) Little Mermaid Jessie Kids' - What's The                                                                      60685120CC                              
PRCFAMCHA131101105841105927000046BAW Int (HD) China Anne McClain (Nov1-30)                                                                                   150                                
PROFAMCHA131101105927105944000017PAF (HD) Disney Refresh CD - Coming Up Next (April                                                                          150                                
PRCFAMCHA131101105944110029000045DXD Mighty Med-ificent Contest (HD) Go to disneyxd                                                                          150                                
PGRFAMCHA131101110029112303002234Disney Phineas and Ferb                           EP: 25                                                               6068607ECC                              
PRCFAMCHA131101112303112407000104Bunks Int (HD) Emilia - Prems Friday Nov 8 @ 8 (No                                                                          150CC                              
PROFAMCHA131101112407112440000033ANT Farm (HD) Refresh - Coming Up Next (Jun2013)                                                                            150                                
PGRFAMCHA131101112440112535000055Stunt Mighty Mega Marathon (HD) This Aft Starting                                                                      60685120CC                              
PRCFAMCHA131101112535112611000036BAW (HD) Stand Up & Shout Tutorial Online @ family                                                                          150                                
PROFAMCHA131101112611112640000029Coppertop Flop (HD) Tap Off - New Episode Tonight                                                                           150                                
PROFAMCHA131101112640112706000026Web DWAB @ family.ca (HD) Play Games at family.ca                                                                           150                                
PROFAMCHA131101112706112746000040Kellogg's                                                                                                                   150                                
PRCFAMCHA131101112746112804000018Family Bumper Flex (HD) Flex ID - Music ID (:14-:1                                                                          150                                
PGRFAMCHA131101112804112926000122Frozen (HD) Sneak Peek - Carrot Nose (Oct 7-Nov27)                                                                     60685120CC                              
PRCFAMCHA131101112926112956000030Web FOD 2012 Refresh (HD) Family.ca New Look (Apr2                                                                          150                                
PROFAMCHA131101112956113011000015ANT Farm (HD) Refresh CT - Coming Up Next (April 2                                                                          150                                
PRCFAMCHA131101113011113035000024Episodic Next Step (HD) 121 New Ep Tonight @ 7 (No                                                                          150                                
PGRFAMCHA131101113035115409002334Disney A.N.T. Farm                                EP: 03                                                               6068607BCC                              
PROFAMCHA131101115409115434000025Episodic ANT Farm (HD) 309 New Ep This Afternoon @                                                                          150                                
PROFAMCHA131101115434115512000038Wingin It (HD) Refresh Promo - Coming Up Next (Apr                                                                          150                                
PROFAMCHA131101115512115543000031Episodic MM (HD) 101 New Ep Today @ 6 (Nov1)                                                                                150                                
PGRFAMCHA131101115543115713000130Syn (HD) Radio Disney Zendaya - Role Model (Oct25-                                                                     60285120                                
PROFAMCHA131101115713115803000050Walt Disney Pictures                                                                                                        150                                
PROFAMCHA131101115803115833000030D-JR Episodic - Sofia the First Episodic 117 Sunda                                                                          150                                
PROFAMCHA131101115833115914000041Web Next Step Online Mashup (HD) On family.ca (Mar                                                                          150                                
PRCFAMCHA131101115914115924000010Family Bumper (HD) - Bobbleheads ID (Jan 2011)                                                                              150                                
PROFAMCHA131101115924120002000038Wingin It (HD) Refresh Promo - Coming Up Next (Apr                                                                          150                                
PRCFAMCHA131101120002120045000043Bunks Int (HD) Aidan - Prems Friday Nov 8 @ 8 (Nov                                                                          150                                
PRCFAMCHA131101120045120059000014Descriptive Video Slate (HD) (Apr2013)                                                                                      150                                
PGRFAMCHA131101120059122330002231Wingin' It                                        EP: 11                                                        C32356 1065607ACD                              
PROFAMCHA131101122330122336000006WOWP (HD) ID - Jennifer Stone 1 "Coming Up Next" (                                                                          150                                
PRCFAMCHA131101122336122458000122BAW Int (HD) Cody Simpson  (Nov1-30)                                                                                        150                                
PGRFAMCHA131101122458122745000247MV Non Disney (HD) Cody Simpson - Pretty Brown Eye                                                                     10615120CC                              
PROFAMCHA131101122745122816000031Episodic MM (HD) 101 New Ep Today @ 6 (Nov1)                                                                                150                                
PROFAMCHA131101122816122831000015PSA CMF (HD) Canada on Screen (Nov2012) (3x per da                                                                          150                                
PROFAMCHA131101122831122901000030Episodic SIU (HD) 322 New Ep Tonight @ 630 (Nov1)                                                                           150                                
PRCFAMCHA131101122901122946000045Incredibles (HD) Tonight @ 8:00 (May2013)                                                                                   150                                
PROFAMCHA131101122946122952000006WOWP (HD) ID - Jennifer Stone 2 "Coming Up Next" (                                                                          150                                
PROFAMCHA131101122952123035000043Mickey Mouse Shorts Promo (HD) Continuing Tonight                                                                           150                                
PGRFAMCHA131101123035125242002207Disney Wizards of Waverly Place                   EP: 10                                                               6068507BCC                              
PROFAMCHA131101125242125248000006WOWP (HD) ID - Jennifer Stone 1 "Coming Up Next" (                                                                          150                                
PGRFAMCHA131101125248125639000351MV Universal (HD) Ellie Goulding - Burn (Sep16-Dec                                                                     10615120CC                              
PGRFAMCHA131101125639125734000055Stunt Mighty Mega Marathon (HD) This Aft Starting                                                                      60685120CC                              
PRCFAMCHA131101125734125752000018Family Bumper (HD) - Dominoes ID (Jan 2011)                                                                                 150                                
PRCFAMCHA131101125752125819000027Episodic GLC (HD) 412 New Ep Today @ 530 (Nov1)                                                                             150                                
PRCFAMCHA131101125819125843000024Episodic Next Step (HD) 121 New Ep Tonight @ 7 (No                                                                          150                                
PRCFAMCHA131101125843125905000022Game Change November (HD) Fridays Only - Family.ca                                                                          150                                
PROFAMCHA131101125905125915000010Bunks Liners (HD) Atticus Mitchell  - Prems Friday                                                                          150                                
PROFAMCHA131101125915125941000026Web DWAB @ family.ca (HD) Play Games at family.ca                                                                           150                                
PROFAMCHA131101125941130000000019WOWP (HD) Clip Bad Time - Coming Up Next (April 20                                                                          150                                
PRCFAMCHA131101130000130040000040GF Dipper's Guide Promo (HD) Saturday Afternoon @                                                                           150                                
PGRFAMCHA131101130040132313002233Disney Wizards of Waverly Place                   EP: 01                                                               6068607BCC                              
PROFAMCHA131101132313132332000019GLC Promo 2 (HD) Coming Up Next (Sep2013)                                                                                   150                                
PROFAMCHA131101132332132402000030Episodic Jessie (HD) 302 New Ep Wednesday @ 630 (O                                                                          150                                
PGRFAMCHA131101132402132756000354MV Universal (HD) Austin Mahone - What About Love                                                                      10615120CC                              
PROFAMCHA131101132756132841000045Mattel                                                                                                                      150                                
PROFAMCHA131101132841132907000026D-JR Promo - Jake Episodic 217 - New Ep Sunday Nov                                                                          150                                
PRCFAMCHA131101132907132954000047BAW Int (HD) Eleven Past One  (Nov1-30)                                                                                     150                                
PROFAMCHA131101132954133021000027GLC (HD) Promo 3 - Coming Up Next (Apr2013)                                                                                 150                                
PROFAMCHA131101133021133046000025Episodic ANT Farm (HD) 309 New Ep This Afternoon @                                                                          150                                
PGRFAMCHA131101133046135317002231Good Luck Charlie                                 EP: 17                                                               6068707BCC                              
PROFAMCHA131101135317135333000016Shake It Up (HD) Refresh CD - Coming Up Next (Apri                                                                          150                                
PRCFAMCHA131101135333135400000027Episodic GLC (HD) 412 New Ep Today @ 530 (Nov1)                                                                             150                                
PGRFAMCHA131101135400135738000338MV Universal (HD) Serena Ryder - What I Wouldn't D                                                                     10615120CC                              
PROFAMCHA131101135738135828000050E One Films                                                                                                                 150                                
PROFAMCHA131101135828135856000028Coppertop Flop (HD) He's All That - New Episode To                                                                          150                                
PROFAMCHA131101135856135936000040Kellogg's                                                                                                                   150                                
PROFAMCHA131101135936140006000030Shake It Up (HD) Flynn Sell - Coming Up Next (Jun2                                                                          150                                
PRCFAMCHA131101140006140044000038Bunks Camp Sell (HD) Prems Friday Nov 8 @ 8 (Nov1-                                                                          150                                
PGRFAMCHA131101140044142321002237Disney Shake It Up                                EP: 03                                                               6068707BCC                              
PROFAMCHA131101142321142336000015ANT Farm (HD) Refresh CT - Coming Up Next (April 2                                                                          150                                
PROFAMCHA131101142336142407000031Episodic MM (HD) 101 New Ep Today @ 6 (Nov1)                                                                                150                                
PRCFAMCHA131101142407142529000122BAW Int (HD) Cody Simpson  (Nov1-30)                                                                                        150                                
PROFAMCHA131101142529142619000050Lego                                                                                                                        150                                
PGRFAMCHA131101142619142749000130ME - Free Birds (HD) Story 1 - Now Playing (Nov1-1                                                                     60685120                                
PRCFAMCHA131101142749142807000018Family Bumper Flex (HD) Flex ID - Music ID (:14-:1                                                                          150                                
PROFAMCHA131101142807142849000042D-JR Promo - Winnie The Pooh - Sunday Nov 10 @ 103                                                                          150                                
PRCFAMCHA131101142849142953000104Bunks Int (HD) Emilia - Prems Friday Nov 8 @ 8 (No                                                                          150CC                              
PROFAMCHA131101142953143026000033ANT Farm (HD) Refresh - Coming Up Next (Jun2013)                                                                            150                                
PRCFAMCHA131101143026143050000024Episodic Next Step (HD) 121 New Ep Tonight @ 7 (No                                                                          150                                
PGRFAMCHA131101143050145324002234Disney A.N.T. Farm                                EP: 12                                                               6068607BCC                              
PROFAMCHA131101145324145349000025Episodic ANT Farm (HD) 309 New Ep This Afternoon @                                                                          150                                
PROFAMCHA131101145349145404000015Jessie (HD) Refresh CD - Coming Up Next (Apr2013)                                                                           150                                
PROFAMCHA131101145404145447000043Mickey Mouse Shorts Promo (HD) Continuing Tonight                                                                           150                                
PGRFAMCHA131101145447145809000322MV Non Disney (HD) BAW 2013 - Stand up and Shout (                                                                     10615120CC                              
PROFAMCHA131101145809145859000050Lego                                                                                                                        150                                
PRCFAMCHA131101145859145921000022Game Change November (HD) Fridays Only - Family.ca                                                                          150                                
PRCFAMCHA131101145921145937000016Family Bumper (HD) - Fashion ID (Jan 2011)                                                                                  150                                
PRCFAMCHA131101145937150003000026Jessie (HD) Clip Promo - Coming Up Next (Oct2013)                                                                           150                                
PGRFAMCHA131101150003150058000055Stunt Mighty Mega Marathon (HD) This Aft Starting                                                                      60685120CC                              
PGRFAMCHA131101150058152347002249Disney Jessie                                     EP: 01                                                               6068807BCC                              
PROFAMCHA131101152347152417000030Episodic Jessie (HD) 302 New Ep Wednesday @ 630 (O                                                                          150                                
PRCFAMCHA131101152417152502000045Austin & Ally (HD) Pitch Perfect - Coming Up Next                                                                           150                                
PRCFAMCHA131101152502152545000043Bunks Int (HD) Aidan - Prems Friday Nov 8 @ 8 (Nov                                                                          150                                
PROFAMCHA131101152545152635000050E One Films                                                                                                                 150                                
PRCFAMCHA131101152635152720000045DXD Mighty Med-ificent Contest (HD) Go to disneyxd                                                                          150                                
PGRFAMCHA131101152720152842000122Frozen (HD) Sneak Peek - Carrot Nose (Oct 7-Nov27)                                                                     60685120CC                              
PROFAMCHA131101152842152922000040Kellogg's                                                                                                                   150                                
PRCFAMCHA131101152922153006000044BAW Int (HD) R5 - Ross, Rocky & Riker (Nov1-30)                                                                             150                                
PRCFAMCHA131101153006153021000015Family Flex Next (HD) A&A Raini (Aug 2013) (:13-:1                                                                          150                                
PRCFAMCHA131101153021153048000027Episodic GLC (HD) 412 New Ep Today @ 530 (Nov1)                                                                             150                                
PGRFAMCHA131101153048155407002319Disney Austin & Ally                              EP: 16                                                               6068807BCC                              
PROFAMCHA131101155407155452000045Episodic A&A (HD) 224 New Ep Wednesday Nov 6 @ 6 (                                                                          150                                
PROFAMCHA131101155452155524000032PAF (HD) Delicious Refresh - Coming Up Next (Jun20                                                                          150                                
PROFAMCHA131101155524155609000045Activision                                                                                                                  150                                
PROFAMCHA131101155609155638000029Coppertop Flop (HD) Tap Off - New Episode Tonight                                                                           150                                
PROFAMCHA131101155638155728000050E One Films                                                                                                                 150                                
PGRFAMCHA131101155728155858000130Int Who I Am (HD) Dove Cameron (Aug 12-March30)                                                                        60685120                                
PROFAMCHA131101155858155948000050Walt Disney Studios Home Entertainment                                                                                      150                                
PROFAMCHA131101155948160005000017PAF (HD) Disney Refresh CD - Coming Up Next (April                                                                          150                                
PRCFAMCHA131101160005160043000038Bunks Premise Sell (HD) Prems Friday Nov 8 @ 8 (Oc                                                                          150                                
PGRFAMCHA131101160043162315002232Disney Phineas & Ferb                             EP: 01                                                               6068607ECC                              
PGRFAMCHA131101162315162709000354MV Universal (HD) Austin Mahone - What About Love                                                                      10615120CC                              
PROFAMCHA131101162709162739000030Episodic SIU (HD) 322 New Ep Tonight @ 630 (Nov1)                                                                           150                                
PROFAMCHA131101162739162829000050Lego                                                                                                                        150                                
PRCFAMCHA131101162829162914000045Incredibles (HD) Tonight @ 8:00 (May2013)                                                                                   150                                
PRCFAMCHA131101162914162954000040GF Dipper's Guide Promo (HD) Saturday Afternoon @                                                                           150                                
PROFAMCHA131101162954163019000025DWAB (HD) Clip Promo - Coming Up Next (Oct2013)                                                                             150                                
PROFAMCHA131101163019163049000030Episodic Jessie (HD) 302 New Ep Wednesday @ 630 (O                                                                          150                                
PGRFAMCHA131101163049165203002114Disney Dog With A Blog                            EP: 01                                                               6068807BCC                              
PGRFAMCHA131101165203165258000055Stunt Mighty Mega Marathon (HD) Starting Next @ 5                                                                      60285120CC                              
PROFAMCHA131101165258165328000030Episodic SIU (HD) 322 New Ep Tonight @ 630 (Nov1)                                                                           150                                
PRCFAMCHA131101165328165407000039BAW Int (HD) Selena Gomez (Nov1-30)                                                                                         150                                
PGRFAMCHA131101165407165758000351MV Universal (HD) Ellie Goulding - Burn (Sep16-Dec                                                                     10615120CC                              
PRCFAMCHA131101165758165822000024Episodic Next Step (HD) 121 New Ep Tonight @ 7 (No                                                                          150                                
PROFAMCHA131101165822165937000115Syn (HD) Little Mermaid Jessie Kids' Fave Scenes (                                                                          150                                
PRCFAMCHA131101165937170007000030Web FOD 2012 Refresh (HD) Family.ca New Look (Apr2                                                                          150                                
PROFAMCHA131101170007170032000025Episodic ANT Farm (HD) 309 New Ep Next @ 5 (Nov1)                                                                           150                                
PRCFAMCHA131101170032170055000023Stunt Int MM (HD) Intro (Nov 1)                                                                                             150                                
PGRFAMCHA131101170055172413002318Disney A.N.T. Farm                                EP: 09                                                               6028607BCC                              
PROFAMCHA131101172413172532000119Stunt Int MM (HD) Spot 1 (Nov 1)                                                                                            150                                
PGRFAMCHA131101172532172910000338MV Universal (HD) Serena Ryder - What I Wouldn't D                                                                     10615120CC                              
PGRFAMCHA131101172910173040000130Syn (HD) Radio Disney Zendaya - Role Model (Oct25-                                                                     60685120                                
PRCFAMCHA131101173040173107000027Episodic GLC (HD) 412 New Ep Coming Up Next @ 530                                                                           150                                
PGRFAMCHA131101173107175356002249Good Luck Charlie                                 EP: 12                                                               6028807BCC                              
PGRFAMCHA131101175356175451000055Stunt Mighty Mega Marathon (HD) Continues Next (No                                                                     60285120CC                              
PROFAMCHA131101175451175617000126Stunt Int MM (HD) Spot 2 (Nov 1)                                                                                            150                                
PROFAMCHA131101175617175647000030Episodic SIU (HD) 322 New Ep Tonight @ 630 (Nov1)                                                                           150                                
PROFAMCHA131101175647175723000036Monday PAFerbathon (HD) Monday Aft Starting @ 530                                                                           150                                
PROFAMCHA131101175723175804000041Web Next Step Online Mashup (HD) On family.ca (Mar                                                                          150                                
PROFAMCHA131101175804175834000030Episodic Jessie (HD) 302 New Ep Wednesday @ 630 (O                                                                          150                                
PRCFAMCHA131101175834175856000022Game Change November (HD) Fridays Only - Family.ca                                                                          150                                
PROFAMCHA131101175856180034000138Stunt Int MM (HD) Spot 3 - Close (Nov 1)                                                                                    150                                
PROFAMCHA131101180034180105000031Episodic MM (HD) 101 New Ep Coming Up Next @ 6 (No                                                                          150                                
PGRFAMCHA131101180105182340002235Disney Mighty Med                                 EP: 01                                                               6028807ECC                              
PROFAMCHA131101182340182410000030DXD MM (HD) Premieres on XD Saturday Nov 2 @ 630 (                                                                          150                                
PROFAMCHA131101182410182440000030Episodic SIU (HD) 322 New Ep Coming Up Next @ 630                                                                           150                                
PRCFAMCHA131101182440182504000024Episodic Next Step (HD) 121 New Ep Tonight @ 7 (No                                                                          150                                
PROFAMCHA131101182504182544000040Kellogg's                                                                                                                   150                                
PRCFAMCHA131101182544182629000045Incredibles (HD) Tonight @ 8:00 (May2013)                                                                                   150                                
PRCFAMCHA131101182629182715000046BAW Int (HD) China Anne McClain (Nov1-30)                                                                                   150                                
PRCFAMCHA131101182715182728000013Family Bumper (HD) - Karate ID (Jan 2011)                                                                                   150                                
PROFAMCHA131101182728182823000055Disney Interactive                                                                                                          150                                
PROFAMCHA131101182823182853000030Episodic SIU (HD) 322 New Ep Coming Up Next @ 630                                                                           150                                
PRCFAMCHA131101182853182933000040GF Dipper's Guide Promo (HD) Saturday Afternoon @                                                                           150                                
PGRFAMCHA131101182933185239002306Disney Shake It Up                                EP: 22                                                               6028707BCC                              
PRCFAMCHA131101185239185311000032Episodic SIU (HD) 324 New Ep Next Friday @ 6 (Nov                                                                           150                                
PRCFAMCHA131101185311185356000045DXD Mighty Med-ificent Contest (HD) Go to disneyxd                                                                          150                                
PROFAMCHA131101185356185441000045Activision                                                                                                                  150                                
PGRFAMCHA131101185441185620000139Copper Top Flop Show (HD) 109 Calum's Splishy Spla                                                                     60288120                                
PROFAMCHA131101185620185710000050E One Films                                                                                                                 150                                
PROFAMCHA131101185710185753000043Mickey Mouse Shorts Promo (HD) Continuing Tonight                                                                           150                                
PROFAMCHA131101185753185838000045Mattel                                                                                                                      150                                
PRCFAMCHA131101185838185902000024Episodic Next Step (HD) 121 New Ep Coming Up Next                                                                           150                                
PRCFAMCHA131101185902185940000038Bunks Premise Sell (HD) Prems Friday Nov 8 @ 8 (Oc                                                                          150                                
PRCFAMCHA131101185940185954000014Descriptive Video Slate (HD) (Apr2013)                                                                                      150                                
PGRFAMCHA131101185954192241002247The Next Step                                     EP: 21                                                        C36838 1015607ACD3                             
PRCFAMCHA131101192241192305000024Episodic Next Step (HD) 122 New Ep Friday Nov 8 @                                                                           150                                
PROFAMCHA131101192305192314000009LU - (HD) Jessie/Popcorn Pix Fridays @ 8:00pm (Apr                                                                          150                                
PRCFAMCHA131101192314192359000045Incredibles (HD) Tonight @ 8:00 (May2013)                                                                                   150                                
PRCFAMCHA131101192359192521000122BAW Int (HD) Cody Simpson  (Nov1-30)                                                                                        150                                
PROFAMCHA131101192521192611000050Walt Disney Studios Home Entertainment                                                                                      150                                
PGRFAMCHA131101192611192733000122Frozen (HD) Sneak Peek - Carrot Nose (Oct 7-Nov27)                                                                     60685120CC                              
PROFAMCHA131101192733192823000050Lego                                                                                                                        150                                
PROFAMCHA131101192823192908000045Episodic A&A (HD) 224 New Ep Wednesday Nov 6 @ 6 (                                                                          150                                
PRCFAMCHA131101192908192922000014Family Flex Next (HD) Jessie - Jessie  (:12-:14) (                                                                          150                                
PROFAMCHA131101192922192952000030DXD MM (HD) Premieres on XD Saturday Nov 2 @ 630 (                                                                          150                                
PGRFAMCHA131101192952195224002232Disney Jessie                                     EP: 23                                                               6068807BCC                              
PROFAMCHA131101195224195254000030Episodic Jessie (HD) 302 New Ep Wednesday @ 630 (O                                                                          150                                
PRCFAMCHA131101195254195339000045Incredibles (HD) Coming Up Next (May2013)                                                                                   150                                
PRCFAMCHA131101195339195426000047BAW Int (HD) Eleven Past One  (Nov1-30)                                                                                     150                                
PROFAMCHA131101195426195516000050Lego                                                                                                                        150                                
PGRFAMCHA131101195516195753000237Selena Gomez (HD) Viewer Questions (Aug 31-Nov30)                                                                      10618120                                
PROFAMCHA131101195753195833000040Kellogg's                                                                                                                   150                                
PRCFAMCHA131101195833195918000045Incredibles (HD) Coming Up Next (May2013)                                                                                   150                                
ID FAMCHA131101195918195933000015Popcorn Pix Block Open (HD)  (Jan2011)                                                                                      150                                
ID FAMCHA131101195933195943000010Popcorn Pix Rating Slate (HD) - PG (Jan 2011)                                                                               150                                
PGRFAMCHA131101195943215504015521The Incredibles                                                                                                       B2068807DCC                              
PGRFAMCHA131101215504215849000345Mickey Mouse Shorts (HD) 1-12 Dog Show (Nov 1)                                                                         60288120                                
PROFAMCHA131101215849215932000043BAW Promo (HD) Stand Up to Bullying Week (Nov1-22)                                                                          150                                
PGRFAMCHA131101215932220318000346MV Disney (HD) Demi Lovato - Let It Go (Nov1-Mar31                                                                     60285120CC                              
PRCFAMCHA131101220318220331000013Family Bumper (HD) - Karate ID (Jan 2011)                                                                                   150                                
PROFAMCHA131101220331220442000111Syn (HD) Thor 2: DC On Set Chris & Tom (Post-7) (O                                                                          150                                
PROFAMCHA131101220442220512000030DXD MM (HD) Premieres on XD Saturday Nov 2 @ 630 (                                                                          150                                
PGRFAMCHA131101220512220651000139Copper Top Flop Show (HD) 109 Calum's Splishy Spla                                                                     60688120                                
PRCFAMCHA131101220651220755000104Bunks Int (HD) Emilia - Prems Friday Nov 8 @ 8 (No                                                                          150CC                              
ID FAMCHA131101220755220810000015Popcorn Pix Block Open (HD)  (Jan2011)                                                                                      150                                
ID FAMCHA131101220810220820000010Popcorn Pix Rating Slate (HD) - PG (Jan 2011)                                                                               150                                
PGRFAMCHA131101220820233817012957The Wedding Planner                                                                                                    2068807DCC                              
PRCFAMCHA131101233817233827000010Family Bumper (HD) - Satelite ID (Jan 2011)                                                                                 150                                
PGRFAMCHA131101233827000318002451The Elephant Princess                             EP: 17                                                               7068507ACC                              
PROFAMCHA131101000318000403000045Episodic A&A (HD) 224 New Ep Wednesday Nov 6 @ 6 (                                                                          150                                
PROFAMCHA131101000403000453000050Lego                                                                                                                        150                                
PGRFAMCHA131101000453002729002236The Latest Buzz                                   EP: 16                                                        C30362 1065607BCC                              
PRCFAMCHA131101002729002809000040GF Dipper's Guide Promo (HD) Saturday Afternoon @                                                                           150                                
PRCFAMCHA131101002809002854000045DXD Mighty Med-ificent Contest (HD) Go to disneyxd                                                                          150                                
PRCFAMCHA131101002854002914000020Family Bumper (HD) - Wallpaper ID (Jan 2011)                                                                                150                                
PRCFAMCHA131101002914002949000035BAW Int (HD) iSH  (Nov1-30)                                                                                                 150                                
PRCFAMCHA131101002949003011000022Game Change November (HD) Fridays Only - Family.ca                                                                          150                                
PGRFAMCHA131101003011005242002231Overruled!                                        EP: 09                                                        C30129 1065607BCC                              
PRCFAMCHA131101005242005320000038Bunks Premise Sell (HD) Prems Friday Nov 8 @ 8 (Oc                                                                          150                                
PGRFAMCHA131101005320005700000340MV Universal (HD) Capital Cities - Safe and Sound                                                                      10615120CC                              
PROFAMCHA131101005700005715000015PSA CMF (HD) Canada on Screen (Nov2012) (3x per da                                                                          150                                
PROFAMCHA131101005715005757000042D-JR Promo - Winnie The Pooh - Sunday Nov 10 @ 103                                                                          150                                
PGRFAMCHA131101005757005927000130ME - Free Birds (HD) Story 2 - Now Playing (Nov1-1                                                                     60285120                                
PROFAMCHA131101005927005957000030Episodic Jessie (HD) 302 New Ep Wednesday @ 630 (O                                                                          150                                
PRCFAMCHA131101005957010011000014Descriptive Video Slate (HD) (Apr2013)                                                                                      150                                
PGRFAMCHA131101010011012245002234DEBRA!                                            EP: 13                                                        C35763 1065607ACD                              
PRCFAMCHA131101012245012253000008Family Bumper (HD) - Origami ID (Jan 2011)                                                                                  150                                
PGRFAMCHA131101012253014454002201What's Up, Warthogs!                              EP: 01                                                        B33327 1065607BCC                              
PRCFAMCHA131101014454014510000016Family Bumper Flex (HD) Flex ID - WUW (May2012) (:                                                                          150                                
PGRFAMCHA131101014510020742002232Disney Wizards of Waverly Place                   EP: 01                                                               6068607BCC                              
PRCFAMCHA131101020742020800000018Family Bumper (HD) - Dominoes ID (Jan 2011)                                                                                 150                                
PGRFAMCHA131101020800023228002428The Elephant Princess                             EP: 10                                                               7068507ACC                              
PRCFAMCHA131101023228023242000014Family Bumper Flex (HD) Flex ID - Wingin It (Apr20                                                                          150                                
PGRFAMCHA131101023242025513002231Life with Derek                                   EP: 24                                                        C26679A1065607BCC                              
PRCFAMCHA131101025513025529000016Family Bumper (HD) - Fashion ID (Jan 2011)                                                                                  150                                
PGRFAMCHA131101025529031731002202Slugterra                                         EP: 26                                                        A33763 1065607ACC                              
PRCFAMCHA131101031731031802000031Family Bumper Flex (HD) Flex ID - Austin & Ally (F                                                                          150                                
PGRFAMCHA131101031802034032002230Overruled!                                        EP: 13                                                        C30129 1065607BCC                              
PRCFAMCHA131101034032034052000020Family Bumper (HD) - Wallpaper ID (Jan 2011)                                                                                150                                
PGRFAMCHA131101034052040327002235The Latest Buzz                                   EP: 11                                                        C30362 1065607BCC                              
PRCFAMCHA131101040327040343000016Family Bumper Flex (HD) Flex ID - Music ID (:14-:1                                                                          150                                
PGRFAMCHA131101040343042614002231Life With Derek                                   EP: 15                                                        C24891 1065607BCC                              
PROFAMCHA131101042614042644000030D-JR Promo - On demand online REVISED - D-JR.ca (M                                                                          150                                
PROFAMCHA131101042644042736000052D-JR Promo - Doc McStuffins - Get more on the chan                                                                          150                                
PROFAMCHA131101042736042811000035D-JR Promo - Handy Manny - Get more on the channel                                                                          150                                
PROFAMCHA131101042811042911000100D-JR Promo - Tickety Toc - Racing The Clock - Get                                                                           150                                
PROFAMCHA131101042911042953000042D-JR Promo - Winnie The Pooh - Sunday Nov 10 @ 103                                                                          150                                
PROFAMCHA131101042953042959000006D-JR - Bumper 6 (May2011)                                                                                                   150                                
OFFFAMCHA131101042959043000000001OFF AIR                                                                                                                                                        
PGRFAMCHA131102043000045231002231Franny's Feet                                     EP: 45                                                        C31292 1065607ECC                              
PROFAMCHA131102045231045238000007D-JR Live Action ID - SWOBB - Coming Up (May2012)                                                                           150                                
PROFAMCHA131102045238045303000025D-JR Live Action ID - #8 Reading Book/Quiet Time (                                                                          150                                
PROFAMCHA131102045303045333000030D-JR Promo - On demand online REVISED - D-JR.ca (M                                                                          150                                
PROFAMCHA131102045333045423000050D-JR Promo - Henry Hugglemonster - Get more HH on                                                                           150                                
PROFAMCHA131102045423045433000010D-JR - Short Open (:10) (May2011)                                                                                           150                                
PROFAMCHA131102045433045703000230D-JR Short - Choo Choo Soul - 1-06 (Jul2013)                                                                                150CC                              
PROFAMCHA131102045703045709000006D-JR - Short Close (:06) (May2011)                                                                                          150                                
PROFAMCHA131102045709045744000035D-JR Promo - Handy Manny - Get more on the channel                                                                          150                                
PROFAMCHA131102045744045844000100D-JR Promo - Tickety Toc - Racing The Clock - Get                                                                           150                                
PROFAMCHA131102045844045914000030D-JR Episodic - Sofia the First Episodic 117 Sunda                                                                          150                                
PROFAMCHA131102045914045939000025D-JR Live Action ID - #34 Hide N Seek (Sep2013)                                                                             150                                
PROFAMCHA131102045939045946000007D-JR Live Action ID - SWOBB - Now (May2012)                                                                                 150                                
PROFAMCHA131102045946045954000008D-JR - Flex ID - Green (:6-:10) (Feb2012)                                                                                   150                                
PGRFAMCHA131102045954052224002230The Secret World of Benjamin Bear                 EP: 38                                                        C27272 1065607ECC                              
PROFAMCHA131102052224052231000007D-JR Live Action ID - Harry & His Dinosaurs - Comi                                                                          150                                
PROFAMCHA131102052231052256000025D-JR Live Action ID - #39 Treasure Hunt (Sep2013)                                                                           150                                
PROFAMCHA131102052256052322000026D-JR Promo - Jake Episodic 217 - New Ep Sunday Nov                                                                          150                                
PROFAMCHA131102052322052414000052D-JR Promo - Doc McStuffins - Get more on the chan                                                                          150                                
PROFAMCHA131102052414052420000006D-JR - Short Open (:06) (May2011)                                                                                           150                                
PROFAMCHA131102052420052720000300PH-D Short - Mickey Mousekersize Shorts - 03 - Plu                                                                          150CC                              
PROFAMCHA131102052720052726000006D-JR - Short Close (:06) (May2011)                                                                                          150                                
PROFAMCHA131102052726052758000032D-JR Promo - Stella and Sam - Get more on the chan                                                                          150                                
PROFAMCHA131102052758052840000042D-JR Promo - Bananas in Pajamas - Get more on the                                                                           150                                
PROFAMCHA131102052840052922000042D-JR Promo - Winnie The Pooh - Sunday Nov 10 @ 103                                                                          150                                
PROFAMCHA131102052922052947000025D-JR Live Action ID - #33 Feeding Birds (Sep2013)                                                                           150                                
PROFAMCHA131102052947052954000007D-JR Live Action ID - Harry & His Dinosaurs - Now                                                                           150                                
PROFAMCHA131102052954053003000009D-JR - Flex ID - Purple (:6-:10) (Feb2012)                                                                                  150                                
PGRFAMCHA131102053003055142002139Harry and His Bucket Full of Dinosaurs            EP: 05                                                        B05024 1065607ECC                              
PRCFAMCHA131102055142055222000040GF Dipper's Guide Promo (HD) This Afternoon @ 155                                                                           150                                
PGRFAMCHA131102055222055322000100Syn (HD) Frozen - Olaf Spot (Oct25-Dec15)                                                                              60685120CC                              
PROFAMCHA131102055322055352000030DXD MM (HD) Premieres on XD Saturday Nov 2 @ 630 (                                                                          150                                
PROFAMCHA131102055352055422000030Episodic Jessie (HD) 302 New Ep Wednesday @ 630 (O                                                                          150                                
PRCFAMCHA131102055422055442000020Family Bumper Flex (HD) Flex ID - ANT Farm (:16-:2                                                                          150                                
PROFAMCHA131102055442055458000016Shake It Up (HD) Refresh CD - Check Out Family.ca                                                                           150                                
PRCFAMCHA131102055458055522000024Episodic Next Step (HD) 122 New Ep Friday Nov 8 @                                                                           150                                
PGRFAMCHA131102055522055922000400MV Non Disney (HD) Young Avz - That Song On The Ra                                                                     10615120CC                              
PRCFAMCHA131102055922060000000038Bunks Camp Sell (HD) Prems Friday Nov 8 @ 8 (Nov1-                                                                          150                                
PGRFAMCHA131102060000062204002204Slugterra                                         EP: 05                                                        A33763 1065607ACC                              
PRCFAMCHA131102062204062244000040GF Dipper's Guide Promo (HD) This Afternoon @ 155                                                                           150                                
PROFAMCHA131102062244062314000030DXD MM (HD) Premieres on XD Saturday Nov 2 @ 630 (                                                                          150                                
PROFAMCHA131102062314062350000036Monday PAFerbathon (HD) Monday Aft Starting @ 530                                                                           150                                
PRCFAMCHA131102062350062358000008Family Bumper (HD) - Origami ID (Jan 2011)                                                                                  150                                
PRCFAMCHA131102062358062430000032Episodic SIU (HD) 324 New Ep Friday Nov 8 @ 6 (Nov                                                                          150                                
PROFAMCHA131102062430062515000045Episodic A&A (HD) 225 New Ep Friday Nov 8 @ 630 (N                                                                          150                                
PGRFAMCHA131102062515062909000354MV Universal (HD) Austin Mahone - What About Love                                                                      10615120CC                              
PROFAMCHA131102062909062947000038Wingin It (HD) Refresh Promo - Coming Up Next (Apr                                                                          150                                
PROFAMCHA131102062947062957000010Bunks Liners (HD) Emilia McCarthy - Prems Friday N                                                                          150                                
PRCFAMCHA131102062957063011000014Descriptive Video Slate (HD) (Apr2013)                                                                                      150                                
PGRFAMCHA131102063011065243002232Wingin' It                                        EP: 11                                                        C32727 1065607ACD                              
PROFAMCHA131102065243065313000030DXD MM (HD) Premieres on XD Saturday Nov 2 @ 630 (                                                                          150                                
PRCFAMCHA131102065313065336000023Gravity Falls (HD) Comedy Sell - Coming Up Next (A                                                                          150                                
PROFAMCHA131102065336065419000043BAW Promo (HD) Stand Up to Bullying Week (Nov1-22)                                                                          150                                
PRCFAMCHA131102065419065458000039BAW Int (HD) Selena Gomez (Nov1-30)                                                                                         150                                
PROFAMCHA131102065458065548000050E One Films                                                                                                                 150                                
PRCFAMCHA131102065548065557000009Family Bumper (HD) - Dragonflies ID (Jan 2011)                                                                              150                                
PGRFAMCHA131102065557065907000310MV Non Disney (HD) EPO - Tonight's The Night (Offi                                                                     10615120CC                              
PRCFAMCHA131102065907065930000023Gravity Falls (HD) Comedy Sell - Coming Up Next (A                                                                          150                                
PROFAMCHA131102065930070015000045Episodic A&A (HD) 224 New Ep Wednesday Night @ 6 (                                                                          150                                
PGRFAMCHA131102070015072149002134Disney Gravity Falls                              EP: 08                                                               6068607ECC                              
PRCFAMCHA131102072149072229000040GF Dipper's Guide Promo (HD) This Afternoon @ 155                                                                           150                                
PROFAMCHA131102072229072246000017PAF (HD) Disney Refresh CD - Coming Up Next (April                                                                          150                                
PROFAMCHA131102072246072316000030DXD MM (HD) Premieres on XD Saturday Nov 2 @ 630 (                                                                          150                                
PROFAMCHA131102072316072411000055Disney Interactive                                                                                                          150                                
PROFAMCHA131102072411072441000030Episodic Jessie (HD) 302 New Ep Wednesday @ 630 (O                                                                          150                                
PGRFAMCHA131102072441072803000322MV Non Disney (HD) BAW 2013 - Stand up and Shout (                                                                     10615120CC                              
PRCFAMCHA131102072803072812000009Family Bumper (HD) - Dragonflies ID (Jan 2011)                                                                              150                                
PROFAMCHA131102072812072827000015PSA CMF (HD) Canada on Screen (Nov2012) (3x per da                                                                          150                                
PRCFAMCHA131102072827072851000024Episodic Next Step (HD) 122 New Ep Friday Nov 8 @                                                                           150                                
PROFAMCHA131102072851072923000032PAF (HD) Delicious Refresh - Coming Up Next (Jun20                                                                          150                                
PRCFAMCHA131102072923073001000038Bunks Camp Sell (HD) Prems Friday Nov 8 @ 8 (Nov1-                                                                          150                                
PGRFAMCHA131102073001075235002234Disney Phineas and Ferb                           EP: 09                                                               6068607ECC                              
PGRFAMCHA131102075235075404000129Copper Top Flop Show (HD) 112 King of the Beach (O                                                                     60688120                                
PROFAMCHA131102075404075421000017PAF (HD) Disney Refresh CD - Coming Up Next (April                                                                          150                                
PROFAMCHA131102075421075451000030DXD MM (HD) Premieres on XD Saturday Nov 2 @ 630 (                                                                          150                                
PROFAMCHA131102075451075541000050E One Films                                                                                                                 150                                
PROFAMCHA131102075541075617000036Monday PAFerbathon (HD) Monday Aft Starting @ 530                                                                           150                                
PROFAMCHA131102075617075702000045Episodic A&A (HD) 224 New Ep Wednesday Night @ 6 (                                                                          150                                
PRCFAMCHA131102075702075720000018Family Bumper Flex (HD) Flex ID - Jessie ID (:15-:                                                                          150                                
PROFAMCHA131102075720075835000115Syn (HD) Little Mermaid Jessie Kids' Fave Scenes (                                                                          150                                
PRCFAMCHA131102075835075913000038Bunks Camp Sell (HD) Prems Friday Nov 8 @ 8 (Nov1-                                                                          150                                
PROFAMCHA131102075913075958000045Mattel                                                                                                                      150                                
PROFAMCHA131102075958080015000017PAF (HD) Disney Refresh CD - Coming Up Next (April                                                                          150                                
PGRFAMCHA131102080015082249002234Disney Phineas and Ferb                           EP: 14                                                               6068607ECC                              
PROFAMCHA131102082249082259000010LU - (HD) Dog with a Blog/Good Luck Charlie Weeken                                                                          150                                
PGRFAMCHA131102082259082626000327MV Non Disney (HD) Hayley Kiyoko - A Belle To Reme                                                                     10615120CC                              
PROFAMCHA131102082626082656000030DXD MM (HD) Premieres on XD Saturday Nov 2 @ 630 (                                                                          150                                
PRCFAMCHA131102082656082741000045DXD Mighty Med-ificent Contest (HD) Go to disneyxd                                                                          150                                
PROFAMCHA131102082741082831000050Lego                                                                                                                        150                                
PRCFAMCHA131102082831082840000009Family Bumper (HD) - Dragonflies ID (Jan 2011)                                                                              150                                
PROFAMCHA131102082840082925000045Episodic A&A (HD) 225 New Ep Friday Nov 8 @ 630 (N                                                                          150                                
PRCFAMCHA131102082925082940000015Family Flex Next (HD) DWAB Ghannelius (Aug 2013) (                                                                          150                                
PRCFAMCHA131102082940083016000036BAW (HD) Stand Up & Shout Tutorial Online @ family                                                                          150                                
PGRFAMCHA131102083016085151002135Disney Dog With A Blog                            EP: 07                                                               6068807BCC                              
PGRFAMCHA131102085151085537000346MV Disney (HD) Demi Lovato - Let It Go (Nov1-Mar31                                                                     60685120CC                              
PROFAMCHA131102085537085542000005GLC (HD) ID - Jason Dolley 3 "Coming Up Next" (gen                                                                          150                                
PRCFAMCHA131102085542085622000040GF Dipper's Guide Promo (HD) This Afternoon @ 155                                                                           150                                
PROFAMCHA131102085622085712000050Lego                                                                                                                        150                                
PROFAMCHA131102085712085742000030DXD MM (HD) Premieres on XD Saturday Nov 2 @ 630 (                                                                          150                                
PRCFAMCHA131102085742085750000008Family Bumper (HD) - Origami ID (Jan 2011)                                                                                  150                                
PROFAMCHA131102085750085820000030Episodic Jessie (HD) 302 New Ep Wednesday @ 630 (O                                                                          150                                
PRCFAMCHA131102085820085852000032Episodic SIU (HD) 324 New Ep Friday Nov 8 @ 6 (Nov                                                                          150                                
PROFAMCHA131102085852085932000040Kellogg's                                                                                                                   150                                
PROFAMCHA131102085932085937000005GLC (HD) ID - Bradley Perry 6 "Coming Up Next" (ge                                                                          150                                
PRCFAMCHA131102085937090015000038Bunks Camp Sell (HD) Prems Friday Nov 8 @ 8 (Nov1-                                                                          150                                
PGRFAMCHA131102090015092150002135Good Luck Charlie                                 EP: 10                                                               6068807BCC                              
PGRFAMCHA131102092150092535000345Mickey Mouse Shorts (HD) 1-12 Dog Show (Nov 1)                                                                         60688120                                
PRCFAMCHA131102092535092550000015LAM (HD) Comedy Sell - Coming Up Next (Oct2013)                                                                             150                                
PROFAMCHA131102092550092620000030DXD MM (HD) Premieres on XD Saturday Nov 2 @ 630 (                                                                          150                                
PRCFAMCHA131102092620092627000007Selena Gomez Station ID (HD) You're Watching Famil                                                                          150                                
PROFAMCHA131102092627092712000045Episodic A&A (HD) 224 New Ep Wednesday Night @ 6 (                                                                          150                                
PROFAMCHA131102092712092722000010Bunks Liners (HD) Emilia McCarthy - Prems Friday N                                                                          150                                
PGRFAMCHA131102092722092844000122Frozen (HD) Sneak Peek - Carrot Nose (Oct 7-Nov27)                                                                     60685120CC                              
PRCFAMCHA131102092844092859000015LAM (HD) Comedy Sell - Coming Up Next (Oct2013)                                                                             150                                
PROFAMCHA131102092859092942000043BAW Promo (HD) Stand Up to Bullying Week (Nov1-22)                                                                          150                                
PGRFAMCHA131102092942095130002148Disney Liv and Maddie                             EP: 03                                                               6068807BCC                              
PRCFAMCHA131102095130095217000047BAW Int (HD) Eleven Past One  (Nov1-30)                                                                                     150                                
PROFAMCHA131102095217095232000015ANT Farm (HD) Refresh CT - Coming Up Next (April 2                                                                          150                                
PRCFAMCHA131102095232095312000040GF Dipper's Guide Promo (HD) This Afternoon @ 155                                                                           150                                
PROFAMCHA131102095312095402000050Walt Disney Studios Home Entertainment                                                                                      150                                
PROFAMCHA131102095402095438000036Monday PAFerbathon (HD) Monday Aft Starting @ 530                                                                           150                                
PROFAMCHA131102095438095508000030Episodic Jessie (HD) 302 New Ep Wednesday @ 630 (O                                                                          150                                
PGRFAMCHA131102095508095708000200Int Who I Am (HD) Luke Benward (Sep1-March30)                                                                          60685120                                
PROFAMCHA131102095708095749000041Web Next Step Online Mashup (HD) On family.ca (Mar                                                                          150                                
PRCFAMCHA131102095749095803000014Family Bumper Flex (HD) Flex ID - Wingin It (Apr20                                                                          150                                
PRCFAMCHA131102095803095907000104Bunks Int (HD) Emilia - Prems Friday Nov 8 @ 8 (No                                                                          150CC                              
PROFAMCHA131102095907095922000015ANT Farm (HD) Refresh CT - Coming Up Next (April 2                                                                          150                                
PROFAMCHA131102095922095952000030DXD MM (HD) Premieres on XD Saturday Nov 2 @ 630 (                                                                          150                                
PGRFAMCHA131102095952102224002232Disney A.N.T. Farm                                EP: 07                                                               6068607BCC                              
PROFAMCHA131102102224102234000010LU - (HD) Jessie/Austin & Ally Weekends @ 11:00am                                                                           150                                
PGRFAMCHA131102102234102413000139Copper Top Flop Show (HD) 109 Calum's Splishy Spla                                                                     60688120                                
PROFAMCHA131102102413102443000030DXD MM (HD) Premieres on XD Saturday Nov 2 @ 630 (                                                                          150                                
PRCFAMCHA131102102443102452000009Family Bumper (HD) - Dragonflies ID (Jan 2011)                                                                              150                                
PRCFAMCHA131102102452102524000032Episodic SIU (HD) 324 New Ep Friday Nov 8 @ 6 (Nov                                                                          150                                
PGRFAMCHA131102102524102654000130ME - Free Birds (HD) Story 2 - Now Playing (Nov1-1                                                                     60685120                                
PROFAMCHA131102102654102739000045Episodic A&A (HD) 225 New Ep Friday Nov 8 @ 630 (N                                                                          150                                
PRCFAMCHA131102102739102822000043Bunks Int (HD) Aidan - Prems Friday Nov 8 @ 8 (Nov                                                                          150                                
PRCFAMCHA131102102822102857000035BAW Int (HD) iSH  (Nov1-30)                                                                                                 150                                
PRCFAMCHA131102102857102911000014Family Flex Next (HD) Jessie - Jessie  (:12-:14) (                                                                          150                                
PRCFAMCHA131102102911102951000040GF Dipper's Guide Promo (HD) This Afternoon @ 155                                                                           150                                
PGRFAMCHA131102102951105223002232Disney Jessie                                     EP: 14                                                               6068807BCC                              
PROFAMCHA131102105223105233000010LU - (HD) Austin & Ally/Shake it Up Weekends @ 11:                                                                          150                                
PRCFAMCHA131102105233105311000038Bunks Camp Sell (HD) Prems Friday Nov 8 @ 8 (Nov1-                                                                          150                                
PGRFAMCHA131102105311105558000247MV Non Disney (HD) Cody Simpson - Pretty Brown Eye                                                                     10615120CC                              
PROFAMCHA131102105558105628000030DXD MM (HD) Premieres on XD Saturday Nov 2 @ 630 (                                                                          150                                
PRCFAMCHA131102105628105645000017Family Bumper Flex (HD) Flex ID - Music ID (:14-:1                                                                          150                                
PROFAMCHA131102105645105721000036Monday PAFerbathon (HD) Monday Aft Starting @ 530                                                                           150                                
PROFAMCHA131102105721105740000019GLC Promo 2 (HD) Right Here On Family (Sep2013)                                                                             150                                
PROFAMCHA131102105740105806000026Web DWAB @ family.ca (HD) Play Games at family.ca                                                                           150                                
PGRFAMCHA131102105806105906000100Syn (HD) Radio Disney Zendaya - Being Shy (Oct25-N                                                                     60685120CC                              
PRCFAMCHA131102105906105921000015Family Flex Next (HD) A&A Raini (Aug 2013) (:13-:1                                                                          150                                
