SO FAMCHA010901043000043011000011Sign On (oct 1)                                                                                                                                                
PGRFAMCHA010901043011045325002314Out of the Box                                    Circle Circus                                                        60686110                                
ID FAMCHA010901045325045330000005Generic ID - Marbles                                                                                                        150                                
PROFAMCHA010901045330045339000009PB&J Otter (AUG2001) - Open - Today @ 5:25pm                                                                                150                                
ID FAMCHA010901045339045400000021Prime time open count down                                                                                                  150                                
PGRFAMCHA010901045400050933001533Art Attack                                        1-020                                                                60686110                                
ID FAMCHA010901050933050938000005Generic ID - Bubbles*                                                                                                       150                                
PRCFAMCHA010901050938051004000026Franklin Movie (SEP08) - Next Saturday @ 5pm                                                                                150                                
INTFAMCHA010901051004051424000420MV Disney - Someday (ALL 4 ONE)                                                                                        60688120                                
PROFAMCHA010901051424051430000006Little Lulu Bumpers - Lulu - This Morning                                                                                   150                                
PRCFAMCHA010901051430051439000009Morning Block menu background (flex time)                                                                                   150                                
ID FAMCHA010901051439051500000021Prime time open count down                                                                                                  150                                
PROFAMCHA010901051500051508000008CC Is Brought To You By - Ian **DNU AFTER 09/22**                                                                           150                                
PGRFAMCHA010901051508054144002636Katie And Orbie                                   The Thunderstorm/The Rabbit and How To Make It Sta            P16140A1025607E                                
ID FAMCHA010901054144054149000005Generic ID - Marbles                                                                                                        150                                
PRCFAMCHA010901054149054215000026Franklin Movie (SEP08) - Next Saturday @ 5pm                                                                                150                                
PROFAMCHA010901054215054221000006Little Lulu Bumpers - Lulu - This Morning                                                                                   150                                
PROFAMCHA010901054221054239000018Book of Pooh - Weekday Mornings                                                                                             150                                
ID FAMCHA010901054239054300000021Prime time open count down                                                                                                  150                                
PROFAMCHA010901054300054308000008CC Is Brought To You By - Lark **DNU AFTER 09/22**                                                                          150                                
PGRFAMCHA010901054308060554002246Disney's DuckTales                                Pearl Of Wisdom                                                     A6068607ECC                              
ID FAMCHA010901060554060559000005Generic ID - Fingerpaint                                                                                                    150                                
PRCFAMCHA010901060559060625000026Franklin Movie (SEP08) - Next Saturday @ 5pm                                                                                150                                
PROFAMCHA010901060625060631000006Little Lulu Bumpers - Lulu - Coming Up                                                                                      150                                
PRCFAMCHA010901060631060639000008Franklin (AUG2001) - Slide - Tonight @ 6:15pm                                                                               150                                
ID FAMCHA010901060639060700000021Prime time open count down                                                                                                  150                                
PROFAMCHA010901060700060708000008CC Is Brought To You By - Ian **DNU AFTER 09/22**                                                                           150                                
PGRFAMCHA010901060708063100002352Little Lulu Show; The                             Lucky Lulu/Pieces of Eight/Jumping Beans                      C19511A1065607ECC                              
ID FAMCHA010901063100063105000005Generic ID - Couch 1*                                                                                                       150                                
PRCFAMCHA010901063105063131000026Franklin Movie (SEP08) - Next Saturday @ 5pm                                                                                150                                
PRCFAMCHA010901063131063139000008Franklin (AUG2001) - Slide - Tonight @ 6:15pm                                                                               150                                
ID FAMCHA010901063139063200000021Prime time open count down                                                                                                  150                                
PGRFAMCHA010901063200065441002241Madeline                                          Madeline and the Giants                                              6068607E                                
ID FAMCHA010901065441065446000005Generic ID - Couch 2*                                                                                                       150                                
PRCFAMCHA010901065446065512000026Franklin Movie (SEP08) - Next Saturday @ 5pm                                                                                150                                
PRCFAMCHA010901065512065544000032Funshine 2001 - GENERIC TOUR SPOT #1                                                                                        150                                
PRCFAMCHA010901065544065623000039Funshine 2001 - Spot #17 - AUGUST 27 TO SEPT 03                                                                             150                                
INTFAMCHA010901065623065859000236Art Attack - Frog                                                                                                      60686120                                
PROFAMCHA010901065859065929000030Mighty Ducks (AUG2001) - Today @ 7:30am                                                                                     150                                
PRCFAMCHA010901065929065939000010Morning Block menu background (flex time)                                                                                   150                                
ID FAMCHA010901065939070000000021Prime time open count down                                                                                                  150                                
PGRFAMCHA010901070000072420002420Adventures of Pete & Pete; The                    Das Bus                                                             A2068607B                                
ID FAMCHA010901072420072430000010Generic ID - Family w/dog                                                                                                   150                                
PROFAMCHA010901072430072453000023Back To School - SATURDAY - Tonight @ 7:30pm                                                                                150                                
PROFAMCHA010901072453072523000030Mighty Ducks (AUG2001) - Coming Up                                                                                          150                                
PRCFAMCHA010901072523072555000032Funshine 2001 - GENERIC TOUR SPOT #1                                                                                        150                                
PRCFAMCHA010901072555072634000039Funshine 2001 - Spot #17 - AUGUST 27 TO SEPT 03                                                                             150                                
INTFAMCHA010901072634072908000234Art Attack - Shopping Cart                                                                                             60686120                                
PROFAMCHA010901072908072941000033Totally Circus - Today @ 8:30am                                                                                             150                                
PRCFAMCHA010901072941072950000009Morning Block menu background (flex time)                                                                                   150                                
ID FAMCHA010901072950073000000010xxMagic of Disney - V2(sky) - TEEN FEMALE                                                                                   150                                
PGRFAMCHA010901073000075242002242Mighty Ducks: The Animated Series                 Buzz Blitsman, Mighty Duck                                          A6068607E                                
ID FAMCHA010901075242075247000005Generic ID - Fingerpaint                                                                                                    150                                
PROFAMCHA010901075247075310000023Back To School - SATURDAY - Tonight @ 7:30pm                                                                                150                                
PRCFAMCHA010901075310075340000030Famous Jett Jackson (NEW) - This Morning                                                                                    150                                
PRCFAMCHA010901075340075412000032Funshine 2001 - GENERIC TOUR SPOT #1                                                                                        150                                
PRCFAMCHA010901075412075451000039Funshine 2001 - Spot #17 - AUGUST 27 TO SEPT 03                                                                             150                                
INTFAMCHA010901075451075906000415MV Disney - You'll Be In My Heart (PHIL COLLINS)                                                                       60688120                                
PROFAMCHA010901075906075939000033Totally Circus - Today @ 8:30am                                                                                             150                                
PRCFAMCHA010901075939075950000011Morning Block menu background (flex time)                                                                                   150                                
ID FAMCHA010901075950080000000010xxMagic of Disney - V2(sky) - TEEN MALE                                                                                     150                                
PROFAMCHA010901080000080008000008CC Is Brought To You By - Lark **DNU AFTER 09/22**                                                                          150                                
PGRFAMCHA010901080008082250002242Even Stevens                                      What'll Idol Do?                                                    A6068807BCC                              
ID FAMCHA010901082250082255000005Astral 40th Anniversary Logo                                                                                                150                                
ID FAMCHA010901082255082300000005Generic ID - Couch 1*                                                                                                       150                                
PROFAMCHA010901082300082323000023Back To School - SATURDAY - Tonight @ 7:30pm                                                                                150                                
PROFAMCHA010901082323082356000033Totally Circus - Coming Up                                                                                                  150                                
ID FAMCHA010901082356082411000015Click Club - JULY 13 TO OCTOBER 12                                                                                          150                                
INTFAMCHA010901082411082821000410MV Disney - If I Never Knew You (JON SECADA/SHENIC                                                                     60688120                                
PROFAMCHA010901082821082829000008MV Web Throw - family.ca                                                                                                    150                                
PRCFAMCHA010901082829082859000030Famous Jett Jackson (NEW) - This Morning                                                                                    150                                
PROFAMCHA010901082859082929000030Lizzie McGuire (AUG2001) - Today @ 10:40am                                                                                  150                                
PRCFAMCHA010901082929082939000010Morning Block menu background (flex time)                                                                                   150                                
ID FAMCHA010901082939083000000021Prime time open count down                                                                                                  150                                
PROFAMCHA010901083000083008000008CC Is Brought To You By - Ian **DNU AFTER 09/22**                                                                           150                                
PGRFAMCHA010901083008085408002400Totally Circus                                    1-003                                                               A6068607ACC                              
ID FAMCHA010901085408085415000007Generic ID - Whisper*                                                                                                       150                                
PROFAMCHA010901085415085438000023Back To School - SATURDAY - Tonight @ 7:30pm                                                                                150                                
PROFAMCHA010901085438085458000020Hoze Houndz (AUG2001) - Tonight @ 7:05pm                                                                                    150                                
PRCFAMCHA010901085458085528000030Funshine 2001 - GENERIC TOUR SPOT #2                                                                                        150                                
PRCFAMCHA010901085528085607000039Funshine 2001 - Spot #17 - AUGUST 27 TO SEPT 03                                                                             150                                
PROFAMCHA010901085607085637000030Lizzie McGuire (AUG2001) - Today @ 10:40am                                                                                  150                                
ID FAMCHA010901085637085658000021Prime time open count down                                                                                                  150                                
PROFAMCHA010901085658085708000010CC Is Brought To You By - Ian                                                                                               150                                
PGRFAMCHA010901085708092019002311Mentors                                           Her Grace Under Pressure                                      C17437 1055607ACC3                             
ID FAMCHA010901092019092024000005Astral 40th Anniversary Logo                                                                                                150                                
ID FAMCHA010901092024092034000010Generic ID - Pink inner tube                                                                                                150                                
PROFAMCHA010901092034092057000023Back To School - SATURDAY - Tonight @ 7:30pm                                                                                150                                
PROFAMCHA010901092057092130000033Totally Circus - Tomorrow @ 8:30am                                                                                          150                                
ID FAMCHA010901092130092145000015Click Club - JULY 13 TO OCTOBER 12                                                                                          150                                
ID FAMCHA010901092145092210000025Web Promo - Female                                                                                                          150                                
PROFAMCHA010901092210092240000030Mighty Ducks (AUG2001) - Tomorrow @ 7:30am                                                                                  150                                
PRCFAMCHA010901092240092250000010Morning Block menu background (flex time)                                                                                   150                                
ID FAMCHA010901092250092300000010xxMagic of Disney - V3(water) - TEEN FEMALE                                                                                 150                                
PGRFAMCHA010901092300094537002237Jersey; The                                       Halloween                                                           A6068807A                                
ID FAMCHA010901094537094547000010Generic ID - Ring around the rosie                                                                                          150                                
PROFAMCHA010901094547094610000023Back To School - SATURDAY - Tonight @ 7:30pm                                                                                150                                
PROFAMCHA010901094610094630000020Disney's One, Too (AUG2001) - Weekdays @ 4pm                                                                                150                                
ID FAMCHA010901094630094645000015Click Club - JULY 13 TO OCTOBER 12                                                                                          150                                
INTFAMCHA010901094645094749000104Jack and Marcel: Ep.123 "A Toast"                                                                                     A40688120                                
PROFAMCHA010901094749094819000030Shnookums & Meat (AUG2001) - Today @ 3:25pm                                                                                 150                                
PROFAMCHA010901094819094849000030Raw Toonage (AUG2001) - Tomorrow @ 3pm                                                                                      150                                
ID FAMCHA010901094849094859000010xxMagic of Disney - V3(water) - TEEN MALE                                                                                   150                                
PGRFAMCHA010901094859101307002408So Weird                                          Sacrifice                                                            6068807A                                
ID FAMCHA010901101307101312000005Astral 40th Anniversary Logo                                                                                                150                                
ID FAMCHA010901101312101327000015Generic ID - confetti                                                                                                       150                                
PROFAMCHA010901101327101350000023Back To School - SATURDAY - Tonight @ 7:30pm                                                                                150                                
PRCFAMCHA010901101350101420000030Famous Jett Jackson (NEW) - Coming Up                                                                                       150                                
PRCFAMCHA010901101420101450000030Funshine 2001 - GENERIC TOUR SPOT #2                                                                                        150                                
PRCFAMCHA010901101450101529000039Funshine 2001 - Spot #17 - AUGUST 27 TO SEPT 03                                                                             150                                
PRCFAMCHA010901101529101539000010Morning Block menu background (flex time)                                                                                   150                                
ID FAMCHA010901101539101600000021Prime time open count down                                                                                                  150                                
PROFAMCHA010901101600101608000008CC Is Brought To You By - Lark **DNU AFTER 09/22**                                                                          150                                
PGRFAMCHA010901101608104038002430Famous Jett Jackson; The                          Heroes                                                        B57165 1065607ACC                              
ID FAMCHA010901104038104043000005Generic ID - soccer **DO NOT USE**                                                                                          150                                
PROFAMCHA010901104043104106000023Back To School - SATURDAY - Tonight @ 7:30pm                                                                                150                                
PROFAMCHA010901104106104136000030Lizzie McGuire (AUG2001) - Coming Up                                                                                        150                                
ID FAMCHA010901104136104151000015Click Club - JULY 13 TO OCTOBER 12                                                                                          150                                
ID FAMCHA010901104151104230000039Wonder Kid - Dino                                                                                                           150                                
ID FAMCHA010901104230104241000011Wonder Kid Tag - Male                                                                                                       150                                
PROFAMCHA010901104241104311000030Raw Toonage (AUG2001) - Tomorrow @ 3pm                                                                                      150                                
PROFAMCHA010901104311104341000030Nightmare Ned (DR JECKLE) - Tuesday @ 7am                                                                                   150                                
ID FAMCHA010901104341104400000019xxMagic of Disney - V4 - TEEN FEMALE                                                                                        150                                
PGRFAMCHA010901104400110636002236Lizzie McGuire                                    Rumors                                                              A6068607B                                
ID FAMCHA010901110636110641000005Astral 40th Anniversary Logo                                                                                                150                                
ID FAMCHA010901110641110646000005Generic ID - Couch 2*                                                                                                       150                                
PROFAMCHA010901110646110709000023Back To School - SATURDAY - Tonight @ 7:30pm                                                                                150                                
PROFAMCHA010901110709110739000030Shnookums & Meat (AUG2001) - Today @ 3:25pm                                                                                 150                                
INTFAMCHA010901110739110909000130Klootz - Espace 05                                                                                                    A10658120                                
PROFAMCHA010901110909110939000030Nightmare Ned (DR JECKLE) - Tuesday @ 7am                                                                                   150                                
ID FAMCHA010901110939111000000021Prime time open count down                                                                                                  150                                
PROFAMCHA010901111000111008000008CC Is Brought To You By - Ian **DNU AFTER 09/22**                                                                           150                                
PGRFAMCHA010901111008113136002128ALF                                               The Ballad of Gilligan's Island                                     A2068807BCC                              
ID FAMCHA010901113136113146000010Generic ID - Bubbles                                                                                                        150                                
PROFAMCHA010901113146113209000023Back To School - SATURDAY - Tonight @ 7:30pm                                                                                150                                
PROFAMCHA010901113209113239000030Lizzie McGuire (AUG2001) - Tomorrow @ 10:40am                                                                               150                                
INTFAMCHA010901113239113409000130Klootz - Espace 01                                                                                                    A10658120                                
PROFAMCHA010901113409113417000008MV Web Throw - family.ca                                                                                                    150                                
PROFAMCHA010901113417113450000033Totally Circus - Tomorrow @ 8:30am                                                                                          150                                
ID FAMCHA010901113450113500000010xxMagic of Disney - V4 - TEEN MALE                                                                                          150                                
PROFAMCHA010901113500113508000008CC Is Brought To You By - Lark **DNU AFTER 09/22**                                                                          150                                
PGRFAMCHA010901113508115750002242Even Stevens                                      What'll Idol Do?                                                    A6068807BCC                              
ID FAMCHA010901115750115755000005Astral 40th Anniversary Logo                                                                                                150                                
ID FAMCHA010901115755115802000007Generic ID - Whisper*                                                                                                       150                                
PROFAMCHA010901115802115825000023Back To School - SATURDAY - Tonight @ 7:30pm                                                                                150                                
ID FAMCHA010901115825115840000015Click Club - JULY 13 TO OCTOBER 12                                                                                          150                                
PROFAMCHA010901115840115913000033Totally Circus - Tomorrow @ 8:30am                                                                                          150                                
PROFAMCHA010901115913115943000030Raw Toonage (AUG2001) - Tomorrow @ 3pm                                                                                      150                                
ID FAMCHA010901115943120004000021Move open family size movie                                                                                                 150                                
PROFAMCHA010901120004120012000008Rating - G - Lark                                                                                                           150                                
PROFAMCHA010901120012120020000008CC Is Brought To You By - Ian **DNU AFTER 09/22**                                                                           150                                
ID FAMCHA010901120020120030000010xxMagic of Disney - V2(sky) - TEEN FEMALE                                                                                   150                                
PGRFAMCHA010901120030134051014021Apple Dumpling Gang; The                                                                                              A6068807DCC                              
PROFAMCHA010901134051134059000008CC Was Brought To You By - Ian                                                                                              150                                
ID FAMCHA010901134059134104000005Astral 40th Anniversary Logo                                                                                                150                                
ID FAMCHA010901134104134114000010Generic ID - confetti                                                                                                       150                                
PROFAMCHA010901134114134137000023Back To School - SATURDAY - Tonight @ 7:30pm                                                                                150                                
PROFAMCHA010901134137134207000030Legend of Tarzan - 1 - Premieres Monday @ 5pm                                                                               150                                
ID FAMCHA010901134207134239000032Wonder Kid - Fly                                                                                                            150                                
ID FAMCHA010901134239134250000011Wonder Kid Tag - Female                                                                                                     150                                
PROFAMCHA010901134250134427000137Proud Family - Premieres Next Saturday @ 4:10pm                                                                             150                                
PROFAMCHA010901134427134443000016Recess: School's Out - In Stores Now                                                                                        150                                
ID FAMCHA010901134443134504000021Move open family size movie                                                                                                 150                                
PROFAMCHA010901134504134512000008Rating - PG - Lark                                                                                                          150                                
PROFAMCHA010901134512134520000008CC Is Brought To You By - Ian **DNU AFTER 09/22**                                                                           150                                
PGRFAMCHA010901134520151711013151Can't Buy Me Love                                                                                                     B6068807DCC                              
PROFAMCHA010901151711151719000008CC Was Brought To You By - Ian                                                                                              150                                
ID FAMCHA010901151719151724000005Astral 40th Anniversary Logo                                                                                                150                                
ID FAMCHA010901151724151734000010Generic ID - confetti                                                                                                       150                                
PROFAMCHA010901151734151757000023Back To School - SATURDAY - Tonight @ 7:30pm                                                                                150                                
PROFAMCHA010901151757151827000030Shnookums & Meat (AUG2001) - Coming Up (3:25pm)                                                                             150                                
PROFAMCHA010901151827151857000030Legend of Tarzan - 2 - Premieres Monday @ 5pm                                                                               150                                
PRCFAMCHA010901151857151927000030Funshine 2001 - GENERIC TOUR SPOT #2                                                                                        150                                
PRCFAMCHA010901151927152006000039Funshine 2001 - Spot #17 - AUGUST 27 TO SEPT 03                                                                             150                                
INTFAMCHA010901152006152240000234MV Disney - Pocahontas 2                                                                                               60688120                                
PROFAMCHA010901152240152417000137Proud Family - Premieres Next Saturday @ 4:10pm                                                                             150                                
PROFAMCHA010901152417152433000016Recess: School's Out - In Stores Now                                                                                        150                                
PRCFAMCHA010901152433152439000006Morning Block menu background (flex time)                                                                                   150                                
ID FAMCHA010901152439152500000021Prime time open count down                                                                                                  150                                
PGRFAMCHA010901152500154752002252Shnookums & Meat Funny Cartoon Show; The          1-003                                                               A6068607E                                
ID FAMCHA010901154752154757000005Generic ID - Couch 1*                                                                                                       150                                
PROFAMCHA010901154757154820000023Back To School - SATURDAY - Tonight @ 7:30pm                                                                                150                                
PROFAMCHA010901154820154840000020Disney's One, Too (AUG2001) - Weekdays @ 4pm                                                                                150                                
ID FAMCHA010901154840154901000021Prime time open count down                                                                                                  150                                
PROFAMCHA010901154901154908000007CC Is Brought To You By - Ian                                                                                               150                                
PGRFAMCHA010901154908161036002128ALF                                               The Ballad of Gilligan's Island                                     A2068807BCC                              
ID FAMCHA010901161036161041000005Astral 40th Anniversary Logo                                                                                                150                                
ID FAMCHA010901161041161046000005Generic ID - Couch 2*                                                                                                       150                                
PRCFAMCHA010901161046161112000026Franklin Movie (SEP08) - Next Saturday @ 5pm                                                                                150                                
ID FAMCHA010901161112161118000006Silly Stories Teaser - Female                                                                                               150                                
PROFAMCHA010901161118161133000015New Adv of WTP (AUG2001) - Poem - Today @ 5:50pm                                                                            150                                
ID FAMCHA010901161133161223000050Silly Stories - PEI Pirate                                                                                                  150                                
PROFAMCHA010901161223161230000007PB&J Otter (AUG2001) - Kite - Today @ 5:25pm                                                                                150                                
PRCFAMCHA010901161230161239000009Morning Block menu background (flex time)                                                                                   150                                
ID FAMCHA010901161239161300000021Prime time open count down                                                                                                  150                                
PROFAMCHA010901161300161308000008CC Is Brought To You By - Lark **DNU AFTER 09/22**                                                                          150                                
PGRFAMCHA010901161308163544002236Disney's Aladdin                                  The Citadel                                                          6068607ECC                              
ID FAMCHA010901163544163554000010Generic ID - Family w/dog                                                                                                   150                                
PRCFAMCHA010901163554163620000026Franklin Movie (SEP08) - Next Saturday @ 5pm                                                                                150                                
PROFAMCHA010901163620163648000028Art Attack (SCOTSMAN) - Weekdays @ 8am                                                                                      150                                
PROFAMCHA010901163648163732000044Little Lulu Show - HOMEWORK - Weekday Mornings                                                                              150                                
PROFAMCHA010901163732163741000009PB&J Otter (AUG2001) - Open - Today @ 5:25pm                                                                                150                                
PRCFAMCHA010901163741163750000009Morning Block menu background (flex time)                                                                                   150                                
ID FAMCHA010901163750163800000010xxMagic of Disney - V2(sky) - TEEN MALE                                                                                     150                                
PROFAMCHA010901163800163808000008CC Is Brought To You By - Ian **DNU AFTER 09/22**                                                                           150                                
PGRFAMCHA010901163808170051002243Lion King's Timon & Pumbaa; The                   Uganda Be An Elephant/To Kilimanjaro Bird                            6068607ECC                              
ID FAMCHA010901170051170056000005Astral 40th Anniversary Logo                                                                                                150                                
ID FAMCHA010901170056170101000005Generic ID - Fingerpaint                                                                                                    150                                
PRCFAMCHA010901170101170127000026Franklin Movie (SEP08) - Next Saturday @ 5pm                                                                                150                                
INTFAMCHA010901170127170234000107Disney Moments-Many Adventures Of Ichabod-Headless                                                                     60688120                                
PROFAMCHA010901170234170241000007PB&J Otter (AUG2001) - Kite - Today @ 5:25pm                                                                                150                                
PRCFAMCHA010901170241170250000009Morning Block menu background (flex time)                                                                                   150                                
ID FAMCHA010901170250170300000010xxMagic of Disney - V3(water) - TEEN FEMALE                                                                                 150                                
PROFAMCHA010901170300170308000008CC Is Brought To You By - Lark **DNU AFTER 09/22**                                                                          150                                
PGRFAMCHA010901170308172538002230Goof Troop                                        Counterfeit Goof                                                     6068607ECC                              
ID FAMCHA010901172538172548000010Generic ID - Hula Hoop                                                                                                      150                                
PRCFAMCHA010901172548172614000026Franklin Movie (SEP08) - Next Saturday @ 5pm                                                                                150                                
PROFAMCHA010901172614172623000009PB&J Otter (AUG2001) - Open - Coming Up                                                                                     150                                
ID FAMCHA010901172623172632000009Silly Stories Teaser - Male                                                                                                 150                                
PROFAMCHA010901172632172650000018Book of Pooh - Weekday Mornings                                                                                             150                                
ID FAMCHA010901172650172724000034Silly Stories - Bouncy Bed                                                                                                  150                                
PROFAMCHA010901172724172739000015New Adv of WTP (AUG2001) - Poem - Today @ 5:50pm                                                                            150                                
ID FAMCHA010901172739172800000021Prime time open count down                                                                                                  150                                
PROFAMCHA010901172800172808000008CC Is Brought To You By - Ian **DNU AFTER 09/22**                                                                           150                                
PGRFAMCHA010901172808175030002222PB&J Otter                                        Born To Chirp/Mega-melon                                            A6068607ECC                              
ID FAMCHA010901175030175035000005Astral 40th Anniversary Logo                                                                                                150                                
ID FAMCHA010901175035175040000005Generic ID - Marbles                                                                                                        150                                
PRCFAMCHA010901175040175106000026Franklin Movie (SEP08) - Next Saturday @ 5pm                                                                                150                                
PROFAMCHA010901175106175121000015New Adv of WTP (AUG2001) - Poem - Coming Up                                                                                 150                                
INTFAMCHA01090117512117522100010060 Seconds of Science - Momentum(10) (anywhere but                                                                     60688120                                
PROFAMCHA010901175221175241000020Hoze Houndz (AUG2001) - Tonight @ 7:05pm                                                                                    150                                
PRCFAMCHA010901175241175250000009Morning Block menu background (flex time)                                                                                   150                                
ID FAMCHA010901175250175300000010xxMagic of Disney - V3(water) - TEEN MALE                                                                                   150                                
PROFAMCHA010901175300175308000008CC Is Brought To You By - Lark **DNU AFTER 09/22**                                                                          150                                
PGRFAMCHA010901175308181539002231New Adventures of Winnie the Pooh; The            Piglet Who Would Be King                                             6068607ECC                              
ID FAMCHA010901181539181549000010Generic ID - Pink inner tube                                                                                                150                                
PRCFAMCHA010901181549181557000008Franklin (AUG2001) - Slide - Coming Up                                                                                      150                                
ID FAMCHA010901181557181614000017Web Fun Stuff - Female                                                                                                      150                                
PRCFAMCHA010901181614181640000026Franklin Movie (SEP08) - Next Saturday @ 5pm                                                                                150                                
ID FAMCHA010901181640181701000021Prime time open count down                                                                                                  150                                
PROFAMCHA010901181701181708000007CC Is Brought To You By - Ian                                                                                               150                                
PGRFAMCHA010901181708184001002253Franklin                                          Franklin Stays Up/Franklin's Bargain                          A53202A1065607ECC                              
ID FAMCHA010901184001184006000005Astral 40th Anniversary Logo                                                                                                150                                
ID FAMCHA010901184006184013000007Generic ID - Whisper*                                                                                                       150                                
PRCFAMCHA010901184013184039000026Franklin Movie (SEP08) - Next Saturday @ 5pm                                                                                150                                
ID FAMCHA010901184039184100000021Prime time open count down                                                                                                  150                                
PROFAMCHA010901184100184108000008CC Is Brought To You By - Lark **DNU AFTER 09/22**                                                                          150                                
PGRFAMCHA010901184108190500002352Little Lulu Show; The                             Prisoner Exchange/The Balloon Derby/Dummy Skeleton            C19511A1065607ECC                              
ID FAMCHA010901190500190505000005Generic ID - Couch 1*                                                                                                       150                                
PROFAMCHA010901190505190528000023Back To School - SATURDAY - Tonight @ 7:30pm                                                                                150                                
PROFAMCHA010901190528190534000006MV Web Throw - family.ca                                                                                                    150                                
PROFAMCHA010901190534190550000016Recess: School's Out - In Stores Now                                                                                        150                                
ID FAMCHA010901190550190600000010Prime time open top of hour                                                                                                 150                                
PROFAMCHA010901190600190608000008CC Is Brought To You By - Ian **DNU AFTER 09/22**                                                                           150                                
PGRFAMCHA010901190608192843002235Hoze Houndz                                       Tenor Mercies/Sleeping Houndz                                 B34015A1065607ECC                              
ID FAMCHA010901192843192848000005Astral 40th Anniversary Logo                                                                                                150                                
ID FAMCHA010901192848192853000005Generic ID - soccer **DO NOT USE**                                                                                          150                                
PROFAMCHA010901192853192916000023Back To School - SATURDAY - Hounded Coming Up                                                                               150                                
PROFAMCHA010901192916192923000007MV Web Throw - family.ca                                                                                                    150                                
PROFAMCHA010901192923192939000016Recess: School's Out - In Stores Now                                                                                        150                                
ID FAMCHA010901192939193000000021Move open family size movie                                                                                                 150                                
PROFAMCHA010901193000193008000008Rating - G - Lark                                                                                                           150                                
PROFAMCHA010901193008193016000008CC Is Brought To You By - Ian **DNU AFTER 09/22**                                                                           150                                
ID FAMCHA010901193016193026000010xxMagic of Disney - V4 - ADULT FEMALE                                                                                       150                                
PGRFAMCHA010901193026210223013157Hounded                                                                                                               A6028807CCC                              
PROFAMCHA010901210223210231000008CC Was Brought To You By - Ian                                                                                              150                                
ID FAMCHA010901210231210236000005Astral 40th Anniversary Logo                                                                                                150                                
ID FAMCHA010901210236210241000005Generic ID - Bubbles*                                                                                                       150                                
PROFAMCHA010901210241210304000023Back To School - SATURDAY - Beethoven Coming Up                                                                             150                                
ID FAMCHA010901210304210325000021Move open family size movie                                                                                                 150                                
PROFAMCHA010901210325210333000008Rating - G - Lark                                                                                                           150                                
PROFAMCHA010901210333210341000008CC Is Brought To You By - Ian **DNU AFTER 09/22**                                                                           150                                
PGRFAMCHA010901210341223031012650Beethoven                                                                                                             A2068807DCC                              
PROFAMCHA010901223031223039000008CC Was Brought To You By - Ian                                                                                              150                                
ID FAMCHA010901223039223044000005Generic ID - Couch 2*                                                                                                       150                                
PROFAMCHA010901223044223107000023Back To School - SUNDAY - Tomorrow @ 7:30pm                                                                                 150                                
ID FAMCHA010901223107223128000021Move open family size movie                                                                                                 150                                
PROFAMCHA010901223128223136000008Rating - AA - Lark                                                                                                          150                                
PGRFAMCHA010901223136001107013931Nate and Hayes                                                                                                        C2068807D                                
ID FAMCHA010901001107001112000005Generic ID - Bubbles*                                                                                                       150                                
PROFAMCHA010901001112001120000008CC Is Brought To You By - Ian **DNU AFTER 09/22**                                                                           150                                
PGRFAMCHA010901001120003248002128ALF                                               The Ballad of Gilligan's Island                                     A2068807BCC                              
ID FAMCHA010901003248003253000005Generic ID - Marbles                                                                                                        150                                
PGRFAMCHA010901003253005715002422Are You Afraid Of The Dark?                       The Tale of the Dangerous Soup                                SR0304 1066807A                                
ID FAMCHA010901005715005720000005Generic ID - Bubbles*                                                                                                       150                                
PROFAMCHA010901005720005743000023Back To School - SUNDAY - Tomorrow @ 7:30pm                                                                                 150                                
INTFAMCHA010901005743010153000410MV Disney - If I Never Knew You (JON SECADA/SHENIC                                                                     60688120                                
PROFAMCHA010901010153010200000007MV Web Throw - family.ca                                                                                                    150                                
SO FAMCHA010901010200010212000012Sign Off (oct 1)                                                                                                                                               
OFFFAMCHA010901010212043000032748                                                                                                                                                               
SO FAMCHA010902043000043011000011Sign On (oct 1)                                                                                                                                                
PROFAMCHA010902043011043019000008CC Is Brought To You By - Ian **DNU AFTER 09/22**                                                                           150                                
PGRFAMCHA010902043019045225002206Out of the Box                                    Seeds of Imagination                                                 60686110CC                              
ID FAMCHA010902045225045235000010Generic ID - Bubbles                                                                                                        150                                
PROFAMCHA010902045235045303000028Art Attack (SCOTSMAN) - Coming Up                                                                                           150                                
PROFAMCHA010902045303045323000020Book of Pooh - Weekday Mornings                                                                                             150                                
PROFAMCHA010902045323045329000006Little Lulu Bumpers - Lulu - Weekday Mornings                                                                               150                                
PRCFAMCHA010902045329045339000010Morning Block menu background (flex time)                                                                                   150                                
ID FAMCHA010902045339045400000021Prime time open count down                                                                                                  150                                
PGRFAMCHA010902045400050916001516Art Attack                                        1-021                                                                60686110                                
ID FAMCHA010902050916050926000010Generic ID - confetti                                                                                                       150                                
PRCFAMCHA010902050926050937000011Elmo's World Bumper - Tricycle - Weekday Mornings                                                                           150                                
PRCFAMCHA010902050937050951000014Franklin Bumper - Leaf - Today                                                                                              150                                
INTFAMCHA010902050951051325000334MV Disney - Forever And Ever (KATHIE LEE GIFFORD)                                                                      60688120                                
PROFAMCHA010902051325051345000020Book of Pooh - Weekday Mornings                                                                                             150                                
PROFAMCHA010902051345051429000044Little Lulu Show - HOMEWORK - This Morning                                                                                  150                                
PRCFAMCHA010902051429051439000010Morning Block menu background (flex time)                                                                                   150                                
ID FAMCHA010902051439051500000021Prime time open count down                                                                                                  150                                
PROFAMCHA010902051500051508000008CC Is Brought To You By - Lark **DNU AFTER 09/22**                                                                          150                                
PGRFAMCHA010902051508054146002638Katie And Orbie                                   Yee Ping/6 Cents Doesn't Go That Far/Mrs Parette's            P16141A1025607E                                
ID FAMCHA010902054146054151000005Generic ID - Couch 1*                                                                                                       150                                
PROFAMCHA010902054151054221000030Mighty Ducks (AUG2001) - Today @ 7:30am                                                                                     150                                
PROFAMCHA010902054221054228000007PB&J Otter (AUG2001) - Kite - Today @ 5:25pm                                                                                150                                
PRCFAMCHA010902054228054239000011Morning Block menu background (flex time)                                                                                   150                                
ID FAMCHA010902054239054300000021Prime time open count down                                                                                                  150                                
PROFAMCHA010902054300054308000008CC Is Brought To You By - Ian **DNU AFTER 09/22**                                                                           150                                
PGRFAMCHA010902054308060555002247Disney's DuckTales                                The Curse Of Castle Mcduck                                          A6068607ECC                              
ID FAMCHA010902060555060602000007Generic ID - Whisper*                                                                                                       150                                
PROFAMCHA010902060602060622000020Book of Pooh - Weekday Mornings                                                                                             150                                
PROFAMCHA010902060622060629000007PB&J Otter (AUG2001) - Kite - Today @ 5:25pm                                                                                150                                
PRCFAMCHA010902060629060639000010Morning Block menu background (flex time)                                                                                   150                                
ID FAMCHA010902060639060700000021Prime time open count down                                                                                                  150                                
PROFAMCHA010902060700060708000008CC Is Brought To You By - Lark **DNU AFTER 09/22**                                                                          150                                
PGRFAMCHA010902060708063100002352Little Lulu Show; The                             Alvinsitting/Two Lulus/The Hat                                C19511A1065607ECC                              
ID FAMCHA010902063100063110000010Generic ID - Hula Hoop                                                                                                      150                                
PROFAMCHA010902063110063119000009PB&J Otter (AUG2001) - Open - Today @ 5:25pm                                                                                150                                
PRCFAMCHA010902063119063130000011Elmo's World Bumper - Tricycle - Weekday Mornings                                                                           150                                
PRCFAMCHA010902063130063139000009Morning Block menu background (flex time)                                                                                   150                                
ID FAMCHA010902063139063200000021Prime time open count down                                                                                                  150                                
PGRFAMCHA010902063200065440002240Madeline                                          Madeline and the Fashion Show                                        6068607E                                
ID FAMCHA010902065440065445000005Generic ID - Couch 2*                                                                                                       150                                
PROFAMCHA010902065445065515000030Mighty Ducks (AUG2001) - Today @ 7:30am                                                                                     150                                
PROFAMCHA010902065515065535000020Disney's One, Too (AUG2001) - Weekdays @ 4pm                                                                                150                                
INTFAMCHA010902065535065828000253Music Break - Sebastian Music Sweet                                                                                    60688120                                
PROFAMCHA010902065828065901000033Totally Circus - Today @ 8:30am                                                                                             150                                
PROFAMCHA010902065901065929000028Art Attack (SCOTSMAN) - Weekdays @ 8am                                                                                      150                                
PRCFAMCHA010902065929065939000010Morning Block menu background (flex time)                                                                                   150                                
ID FAMCHA010902065939070000000021Prime time open count down                                                                                                  150                                
PGRFAMCHA010902070000072420002420Adventures of Pete & Pete; The                    The Last Laugh                                                      A2068607B                                
ID FAMCHA010902072420072425000005Generic ID - Fingerpaint                                                                                                    150                                
PROFAMCHA010902072425072455000030Legend of Tarzan - 1 - Premieres Tomorrow Afternoo                                                                          150                                
PROFAMCHA010902072455072525000030Mighty Ducks (AUG2001) - Coming Up                                                                                          150                                
PRCFAMCHA010902072525072557000032Funshine 2001 - GENERIC TOUR SPOT #1                                                                                        150                                
PRCFAMCHA010902072557072636000039Funshine 2001 - Spot #17 - AUGUST 27 TO SEPT 03                                                                             150                                
INTFAMCHA010902072636072847000211MV Disney - Right Back Where We Started From (CLEO                                                                     60688120                                
PROFAMCHA010902072847072920000033Totally Circus - Today @ 8:30am                                                                                             150                                
PROFAMCHA010902072920072940000020Disney's One, Too (AUG2001) - Weekdays @ 4pm                                                                                150                                
PRCFAMCHA010902072940072950000010Morning Block menu background (flex time)                                                                                   150                                
ID FAMCHA010902072950073000000010xxMagic of Disney - V3(water) - TEEN FEMALE                                                                                 150                                
PGRFAMCHA010902073000075241002241Mighty Ducks: The Animated Series                 A Traitor Among Us                                                  A6028607E                                
ID FAMCHA010902075241075251000010Generic ID - Pink inner tube                                                                                                150                                
PROFAMCHA010902075251075321000030Lizzie McGuire (AUG2001) - Today @ 10:40am                                                                                  150                                
PROFAMCHA010902075321075351000030Even Stevens (AUG2001) - Coming Up                                                                                          150                                
PROFAMCHA010902075351075424000033Totally Circus - Today @ 8:30am                                                                                             150                                
PROFAMCHA010902075424075444000020Hoze Houndz (AUG2001) - Tonight @ 7:05pm                                                                                    150                                
INTFAMCHA010902075444075910000426Art Attack - Robin Hood                                                                                                60686120                                
PROFAMCHA010902075910075940000030Legend of Tarzan - 2 - Premieres Tomorrow @ 5pm                                                                             150                                
PRCFAMCHA010902075940075950000010Morning Block menu background (flex time)                                                                                   150                                
ID FAMCHA010902075950080000000010xxMagic of Disney - V2(sky) - TEEN MALE                                                                                     150                                
PGRFAMCHA010902080000082242002242Even Stevens                                      Take My Sister...Please                                             A6068807B                                
ID FAMCHA010902082242082247000005Astral 40th Anniversary Logo                                                                                                150                                
ID FAMCHA010902082247082257000010Generic ID - Family w/dog                                                                                                   150                                
PROFAMCHA010902082257082327000030Legend of Tarzan - 1 - Premieres Tomorrow Afternoo                                                                          150                                
PROFAMCHA010902082327082400000033Totally Circus - Coming Up                                                                                                  150                                
PRCFAMCHA010902082400082430000030Funshine 2001 - GENERIC TOUR SPOT #2                                                                                        150                                
PRCFAMCHA010902082430082509000039Funshine 2001 - Spot #17 - AUGUST 27 TO SEPT 03                                                                             150                                
INTFAMCHA010902082509082849000340Art Attack - Tape Batman                                                                                               60686120                                
PROFAMCHA010902082849082909000020Disney's One, Too (AUG2001) - Weekdays @ 4pm                                                                                150                                
PROFAMCHA010902082909082939000030Shnookums & Meat (AUG2001) - Today @ 3:25pm                                                                                 150                                
ID FAMCHA010902082939083000000021Prime time open count down                                                                                                  150                                
PROFAMCHA010902083000083008000008CC Is Brought To You By - Ian **DNU AFTER 09/22**                                                                           150                                
PGRFAMCHA010902083008085408002400Totally Circus                                    1-004                                                               A6028607ACC                              
ID FAMCHA010902085408085413000005Generic ID - Fingerpaint                                                                                                    150                                
PROFAMCHA010902085413085443000030Legend of Tarzan - 2 - Premieres Tomorrow @ 5pm                                                                             150                                
ID FAMCHA010902085443085458000015Click Club - JULY 13 TO OCTOBER 12                                                                                          150                                
PROFAMCHA010902085458085528000030Shnookums & Meat (AUG2001) - Today @ 3:25pm                                                                                 150                                
PROFAMCHA010902085528085558000030Raw Toonage (AUG2001) - Today @ 3pm                                                                                         150                                
PROFAMCHA010902085558085628000030Lizzie McGuire (AUG2001) - Today @ 10:40am                                                                                  150                                
PRCFAMCHA010902085628085639000011Morning Block menu background (flex time)                                                                                   150                                
ID FAMCHA010902085639085700000021Prime time open count down                                                                                                  150                                
PROFAMCHA010902085700085708000008CC Is Brought To You By - Lark **DNU AFTER 09/22**                                                                          150                                
PGRFAMCHA010902085708092019002311Mentors                                           Dear Diary                                                    C17437 1015607ACC3                             
ID FAMCHA010902092019092024000005Astral 40th Anniversary Logo                                                                                                150                                
ID FAMCHA010902092024092029000005Generic ID - Bubbles*                                                                                                       150                                
PRCFAMCHA010902092029092059000030Famous Jett Jackson (NEW) - This Morning                                                                                    150                                
PROFAMCHA010902092059092129000030Lizzie McGuire (AUG2001) - Today @ 10:40am                                                                                  150                                
PROFAMCHA010902092129092149000020Disney's One, Too (AUG2001) - Weekdays @ 4pm                                                                                150                                
PROFAMCHA010902092149092209000020Hoze Houndz (AUG2001) - Tonight @ 7:05pm                                                                                    150                                
PROFAMCHA010902092209092239000030Legend of Tarzan - 2 - Premieres Tomorrow @ 5pm                                                                             150                                
PRCFAMCHA010902092239092250000011Morning Block menu background (flex time)                                                                                   150                                
ID FAMCHA010902092250092300000010xxMagic of Disney - V3(water) - TEEN FEMALE                                                                                 150                                
PGRFAMCHA010902092300094536002236Jersey; The                                       Thanksgiving Day                                                    A6068807A                                
ID FAMCHA010902094536094541000005Astral 40th Anniversary Logo                                                                                                150                                
ID FAMCHA010902094541094546000005Generic ID - Couch 2*                                                                                                       150                                
PROFAMCHA010902094546094616000030Legend of Tarzan - 1 - Premieres Tomorrow Afternoo                                                                          150                                
ID FAMCHA010902094616094631000015Click Club - JULY 13 TO OCTOBER 12                                                                                          150                                
ID FAMCHA010902094631094710000039Wonder Kid - Dino                                                                                                           150                                
ID FAMCHA010902094710094721000011Wonder Kid Tag - Female                                                                                                     150                                
PROFAMCHA010902094721094741000020Disney's One, Too (AUG2001) - Weekdays @ 4pm                                                                                150                                
PROFAMCHA010902094741094811000030Shnookums & Meat (AUG2001) - Today @ 3:25pm                                                                                 150                                
PROFAMCHA010902094811094841000030Lizzie McGuire (AUG2001) - Today @ 10:40am                                                                                  150                                
PRCFAMCHA010902094841094850000009Morning Block menu background (flex time)                                                                                   150                                
ID FAMCHA010902094850094900000010xxMagic of Disney - V2(sky) - TEEN MALE                                                                                     150                                
PGRFAMCHA010902094900101307002407So Weird                                          Angel                                                                6068807A                                
ID FAMCHA010902101307101314000007Generic ID - Whisper*                                                                                                       150                                
PROFAMCHA010902101314101344000030Legend of Tarzan - 1 - Premieres Tomorrow Afternoo                                                                          150                                
PRCFAMCHA010902101344101414000030Famous Jett Jackson (NEW) - Coming Up                                                                                       150                                
ID FAMCHA010902101414101429000015Click Club - JULY 13 TO OCTOBER 12                                                                                          150                                
PROFAMCHA010902101429101459000030Raw Toonage (AUG2001) - Today @ 3pm                                                                                         150                                
PROFAMCHA010902101459101529000030Lizzie McGuire (AUG2001) - Today @ 10:40am                                                                                  150                                
PRCFAMCHA010902101529101539000010Morning Block menu background (flex time)                                                                                   150                                
ID FAMCHA010902101539101600000021Prime time open count down                                                                                                  150                                
PROFAMCHA010902101600101609000009CC Is Brought To You By - Ian                                                                                               150                                
PGRFAMCHA010902101609104039002430Famous Jett Jackson; The                          Detention                                                     B57166A1065607ACC                              
ID FAMCHA010902104039104044000005Astral 40th Anniversary Logo                                                                                                150                                
ID FAMCHA010902104044104051000007Generic ID - Whisper*                                                                                                       150                                
PROFAMCHA010902104051104111000020Hoze Houndz (AUG2001) - Tonight @ 7:05pm                                                                                    150                                
PROFAMCHA010902104111104141000030Lizzie McGuire (AUG2001) - Coming Up                                                                                        150                                
PROFAMCHA010902104141104211000030Raw Toonage (AUG2001) - Today @ 3pm                                                                                         150                                
PRCFAMCHA010902104211104241000030Funshine 2001 - GENERIC TOUR SPOT #2                                                                                        150                                
PRCFAMCHA010902104241104320000039Funshine 2001 - Spot #17 - AUGUST 27 TO SEPT 03                                                                             150                                
PROFAMCHA010902104320104350000030Legend of Tarzan - 2 - Premieres Tomorrow @ 5pm                                                                             150                                
ID FAMCHA010902104350104400000010xxMagic of Disney - V3(water) - TEEN MALE                                                                                   150                                
PROFAMCHA010902104400104408000008CC Is Brought To You By - Ian **DNU AFTER 09/22**                                                                           150                                
PGRFAMCHA010902104408110643002235Lizzie McGuire                                    I've Got Rhythmic                                                   A6028607BCC                              
ID FAMCHA010902110643110648000005Astral 40th Anniversary Logo                                                                                                150                                
ID FAMCHA010902110648110658000010Generic ID - Hula Hoop                                                                                                      150                                
PROFAMCHA010902110658110728000030Even Stevens (AUG2001) - Today @ 11:35am                                                                                    150                                
ID FAMCHA010902110728110743000015Click Club - JULY 13 TO OCTOBER 12                                                                                          150                                
PROFAMCHA010902110743110813000030Shnookums & Meat (AUG2001) - Today @ 3:25pm                                                                                 150                                
PROFAMCHA010902110813110843000030Raw Toonage (AUG2001) - Today @ 3pm                                                                                         150                                
PROFAMCHA010902110843110859000016Recess: School's Out - In Stores Now                                                                                        150                                
PROFAMCHA010902110859110929000030Legend of Tarzan - 1 - Premieres Tomorrow Afternoo                                                                          150                                
PRCFAMCHA010902110929110939000010Morning Block menu background (flex time)                                                                                   150                                
ID FAMCHA010902110939111000000021Prime time open count down                                                                                                  150                                
PROFAMCHA010902111000111008000008CC Is Brought To You By - Lark **DNU AFTER 09/22**                                                                          150                                
PGRFAMCHA010902111008113138002130ALF                                               Take A Look At Me Now                                               A2068807BCC                              
ID FAMCHA010902113138113143000005Astral 40th Anniversary Logo                                                                                                150                                
ID FAMCHA010902113143113153000010Generic ID - soccer **DO NOT USE**                                                                                          150                                
PROFAMCHA010902113153113223000030Even Stevens (AUG2001) - Coming Up                                                                                          150                                
PROFAMCHA010902113223113253000030Raw Toonage (AUG2001) - Today @ 3pm                                                                                         150                                
INTFAMCHA010902113253113346000053Bill Nye - Friction Happens                                                                                            60688120                                
PROFAMCHA010902113346113409000023Back To School - SUNDAY - Tonight @ 7:30pm                                                                                  150                                
PROFAMCHA010902113409113439000030Legend of Tarzan - 2 - Premieres Tomorrow @ 5pm                                                                             150                                
PRCFAMCHA010902113439113450000011Morning Block menu background (flex time)                                                                                   150                                
ID FAMCHA010902113450113500000010xxMagic of Disney - V3(water) - TEEN FEMALE                                                                                 150                                
PGRFAMCHA010902113500115742002242Even Stevens                                      Take My Sister...Please                                             A6068807B                                
ID FAMCHA010902115742115757000015Generic ID - confetti                                                                                                       150                                
PROFAMCHA010902115757115827000030Legend of Tarzan - 2 - Premieres Tomorrow @ 5pm                                                                             150                                
PROFAMCHA010902115827115850000023Back To School - SUNDAY - Tonight @ 7:30pm                                                                                  150                                
PROFAMCHA010902115850115906000016Recess: School's Out - In Stores Now                                                                                        150                                
PROFAMCHA010902115906115940000034Morning Madness (7AM BLOCK) - Weekday Mornings @ 7                                                                          150                                
ID FAMCHA010902115940120001000021Move open family size movie                                                                                                 150                                
PROFAMCHA010902120001120008000007Rating - G - Ian                                                                                                            150                                
PROFAMCHA010902120008120015000007CC Is Brought To You By - Lark                                                                                              150                                
ID FAMCHA010902120015120025000010xxMagic of Disney - V4 - TEEN FEMALE                                                                                        150                                
PGRFAMCHA010902120025133216013151Hounded                                                                                                               A6068807CCC                              
PROFAMCHA010902133216133223000007CC Was Brought To You By - Lark                                                                                             150                                
ID FAMCHA010902133223133228000005Generic ID - Fingerpaint                                                                                                    150                                
PROFAMCHA010902133228133244000016Recess: School's Out - In Stores Now                                                                                        150                                
PROFAMCHA010902133244133251000007PB&J Otter (AUG2001) - Kite - Today @ 5:25pm                                                                                150                                
ID FAMCHA010902133251133312000021Move open family size movie                                                                                                 150                                
PROFAMCHA010902133312133319000007Rating - PG - Ian                                                                                                           150                                
PROFAMCHA010902133319133326000007CC Is Brought To You By - Lark                                                                                              150                                
PGRFAMCHA010902133326150530013204Blank Check                                                                                                           B6068807DCC                              
PROFAMCHA010902150530150537000007CC Was Brought To You By - Lark                                                                                             150                                
ID FAMCHA010902150537150542000005Astral 40th Anniversary Logo                                                                                                150                                
ID FAMCHA010902150542150547000005Generic ID - Couch 1*                                                                                                       150                                
PGRFAMCHA010902150547152857002310Raw Toonage                                       1-004                                                               A6028607E                                
ID FAMCHA010902152857152902000005Generic ID - Couch 2*                                                                                                       150                                
PGRFAMCHA010902152902155153002251Shnookums & Meat Funny Cartoon Show; The          1-004                                                               A6028607E                                
ID FAMCHA010902155153155158000005Astral 40th Anniversary Logo                                                                                                150                                
ID FAMCHA010902155158155208000010Generic ID - Pink inner tube                                                                                                150                                
PROFAMCHA010902155208155215000007CC Is Brought To You By - Ian                                                                                               150                                
PGRFAMCHA010902155215161345002130ALF                                               Take A Look At Me Now                                               A2068807BCC                              
ID FAMCHA010902161345161350000005Astral 40th Anniversary Logo                                                                                                150                                
ID FAMCHA010902161350161355000005Generic ID - Marbles                                                                                                        150                                
PROFAMCHA010902161355161404000009CC Is Brought To You By - Lark                                                                                              150                                
PGRFAMCHA010902161404163639002235Disney's Aladdin                                  Elemental My Dear Jasmine                                            6068607ECC                              
ID FAMCHA010902163639163644000005Generic ID - Couch 2*                                                                                                       150                                
PRCFAMCHA010902163644163714000030Funshine 2001 - GENERIC TOUR SPOT #2                                                                                        150                                
PRCFAMCHA010902163714163753000039Funshine 2001 - Spot #17 - AUGUST 27 TO SEPT 03                                                                             150                                
ID FAMCHA010902163753163803000010xxMagic of Disney - V4 - TEEN MALE                                                                                          150                                
PROFAMCHA010902163803163810000007CC Is Brought To You By - Ian                                                                                               150                                
PGRFAMCHA010902163810170053002243Lion King's Timon & Pumbaa; The                   French Fried/Big Top Breakfast                                       6068607ECC                              
ID FAMCHA010902170053170058000005Astral 40th Anniversary Logo                                                                                                150                                
ID FAMCHA010902170058170108000010Generic ID - confetti                                                                                                       150                                
PRCFAMCHA010902170108170134000026Franklin Movie (SEP08) - Saturday @ 5pm                                                                                     150                                
PROFAMCHA010902170134170141000007PB&J Otter (AUG2001) - Kite - Today @ 5:25pm                                                                                150                                
PROFAMCHA010902170141170201000020Disney's One, Too (AUG2001) - Weekdays @ 4pm                                                                                150                                
PROFAMCHA010902170201170221000020Hoze Houndz (AUG2001) - Tonight @ 7:05pm                                                                                    150                                
PROFAMCHA010902170221170241000020Book of Pooh - Weekday Mornings                                                                                             150                                
PRCFAMCHA010902170241170250000009Morning Block menu background (flex time)                                                                                   150                                
ID FAMCHA010902170250170300000010xxMagic of Disney - V2(sky) - TEEN FEMALE                                                                                   150                                
PROFAMCHA010902170300170308000008CC Is Brought To You By - Lark **DNU AFTER 09/22**                                                                          150                                
PGRFAMCHA010902170308172555002247Goof Troop                                        O,R-V,In-Vu                                                          6068607ECC                              
ID FAMCHA010902172555172600000005Generic ID - Marbles                                                                                                        150                                
PRCFAMCHA010902172600172626000026Franklin Movie (SEP08) - Saturday @ 5pm                                                                                     150                                
PROFAMCHA010902172626172635000009PB&J Otter (AUG2001) - Open - Coming Up                                                                                     150                                
PROFAMCHA010902172635172703000028Art Attack (SCOTSMAN) - Weekdays @ 8am                                                                                      150                                
PROFAMCHA010902172703172718000015New Adv of WTP (AUG2001) - Poem - Today @ 5:50pm                                                                            150                                
PRCFAMCHA010902172718172729000011Elmo's World Bumper - Tricycle - Weekday Mornings                                                                           150                                
PRCFAMCHA010902172729172739000010Morning Block menu background (flex time)                                                                                   150                                
ID FAMCHA010902172739172800000021Prime time open count down                                                                                                  150                                
PROFAMCHA010902172800172808000008CC Is Brought To You By - Ian **DNU AFTER 09/22**                                                                           150                                
PGRFAMCHA010902172808175029002221PB&J Otter                                        The Silent Treatment/Picture Perfect                                A6068607ECC                              
ID FAMCHA010902175029175034000005Astral 40th Anniversary Logo                                                                                                150                                
ID FAMCHA010902175034175041000007Generic ID - Whisper*                                                                                                       150                                
PRCFAMCHA010902175041175107000026Franklin Movie (SEP08) - Saturday @ 5pm                                                                                     150                                
PROFAMCHA010902175107175119000012New Adv of WTP Bumpers - Blustery - Coming Up                                                                               150                                
PRCFAMCHA010902175119175149000030Funshine 2001 - GENERIC TOUR SPOT #2                                                                                        150                                
PRCFAMCHA010902175149175228000039Funshine 2001 - Spot #17 - AUGUST 27 TO SEPT 03                                                                             150                                
PRCFAMCHA010902175228175239000011Elmo's World Bumper - Tricycle - Weekday Mornings                                                                           150                                
PRCFAMCHA010902175239175250000011Morning Block menu background (flex time)                                                                                   150                                
ID FAMCHA010902175250175300000010xxMagic of Disney - V3(water) - TEEN FEMALE                                                                                 150                                
