PGRFAMCHA141001043000045234002234DEBRA!                                            EP: 13                                                        C35763 1065607ACD                              
PROFAMCHA141001045234045304000030Star Wars Rebels (HD) Urgency Sell - Prems Friday                                                                           150                                
PROFAMCHA141001045304045339000035Kirby Buckets Sneak Peek (HD) CD - First Look Oct                                                                           150                                
PRCFAMCHA141001045339045405000026Episodic Next Step (HD) 221 - New Episode Friday N                                                                          150                                
PRCFAMCHA141001045405045418000013Family Bumper (HD) - Drums ID (Jan 2011)                                                                                    150                                
PROFAMCHA141001045418045503000045Incredibles Retag (HD) Friday Night @ 7:05 (Follow                                                                          150                                
PRCFAMCHA141001045503045603000100Episodic A&A (HD) 3-20 - New Episode Tonight @ 6 (                                                                          150                                
PGRFAMCHA141001045603051835002232Really Me                                         EP: 09                                                        C35342 1065607ACD                              
PROFAMCHA141001051835051843000008D-JR Live Action ID - Stella & Sam - Coming Up (Ma                                                                          150                                
PROFAMCHA141001051843051908000025D-JR Live Action ID - #42 Brush Teeth (May2012)                                                                             150                                
PROFAMCHA141001051908052008000100D-JR OOB - Doc School of Medicine Week - Mon Sept                                                                           150                                
PROFAMCHA141001052008052023000015D-JR OOB - Imagination Movers Live in Concert Tour                                                                          150                                
PROFAMCHA141001052023052048000025D-JR Live Action ID - #28 Clapping Game (Sep2013)                                                                           150                                
PROFAMCHA141001052048052056000008D-JR Live Action ID - Stella & Sam - Now (Mar2013)                                                                          150                                
PROFAMCHA141001052056052106000010D-JR - Hero Flex ID - Yellow (:06-:10) (Feb2014)                                                                            150                                
PGRFAMCHA141001052106054521002415Stella and Sam Halloween Special                  EP: 98                                                        C36134 1065607ECC                              
PROFAMCHA141001054521054531000010D-JR - Hero Flex ID - Purple (:06-:10) (Feb2014)                                                                            150                                
PGRFAMCHA141001054531060802002231Justin Time                                       EP: 07                                                        C36486 1065607ECD                              
PROFAMCHA141001060802060810000008D-JR Live Action ID - Justin Time - Coming Up (Sep                                                                          150                                
PROFAMCHA141001060810060835000025D-JR Live Action ID - #13 Make Bed (May2012)                                                                                150                                
PROFAMCHA141001060835060920000045D-JR OOB - The Pirate Fairy - Prems Satuday Oct 4                                                                           150                                
PROFAMCHA141001060920060945000025D-JR Live Action ID - #72 Family Tree Craft (Sept2                                                                          150                                
PROFAMCHA141001060945060953000008D-JR Live Action ID - Justin Time - Now (Sept2014)                                                                          150                                
PROFAMCHA141001060953061003000010D-JR - Hero Flex ID - Green (:06-:10) (Feb2014)                                                                             150                                
PGRFAMCHA141001061003063233002230Justin Time                                       EP: 08                                                        C36486 1065607ECD                              
PROFAMCHA141001063233063318000045Star Wars Rebels (HD) Sabine CT - Premieres Friday                                                                          150                                
PROFAMCHA141001063318063353000035Kirby Buckets Sneak Peek (HD) CD - First Look Oct                                                                           150                                
PRCFAMCHA141001063353063403000010Family Bumper (HD) - Bobbleheads ID (Jan 2011)                                                                              150                                
PGRFAMCHA141001063403063449000046Episodic IDDI (HD) 1-13 - New Episode Tonight @ 7                                                                      60288120                                
PRCFAMCHA141001063449063502000013Family Flex Next (HD) ANT Farm - Jake (:12-:14) (A                                                                          150                                
PGRFAMCHA141001063502065818002316Disney A.N.T. Farm                                EP: 26                                                               6068607BCC                              
PROFAMCHA141001065818065848000030Star Wars Rebels (HD) Urgency Sell - Prems Friday                                                                           150                                
PROFAMCHA141001065848065938000050MGA Entertainment Canada                                                                                                    150                                
PROFAMCHA141001065938065946000008Next Step 2B Liner (HD) West Music - family.ca/the                                                                          150                                
PRCFAMCHA141001065946065959000013Family Flex Next (HD) Jessie - Jessie  (:12-:14) (                                                                          150                                
PGRFAMCHA141001065959072301002302Disney Jessie                                     EP: 17                                                               6068807BCC                              
PROFAMCHA141001072301072332000031Star Wars Rebels (HD) Team Sell - Premieres Friday                                                                          150                                
PROFAMCHA141001072332072422000050Walt Disney Pictures                                                                                                        150                                
PRCFAMCHA141001072422072448000026Episodic Next Step (HD) 221 - New Episode Friday N                                                                          150                                
PRCFAMCHA141001072448072503000015Family Flex Next (HD) A&A Raini (Aug 2013) (:13-:1                                                                          150                                
PGRFAMCHA141001072503074734002231Disney Austin & Ally                              EP: 06                                                               6068807BCC                              
PRCFAMCHA141001074734074834000100Episodic A&A (HD) 3-20 - New Episode Tonight @ 6 (                                                                          150                                
PROFAMCHA141001074834074924000050Universal Home Entertainment                                                                                                150                                
PROFAMCHA141001074924075009000045Star Wars Rebels (HD) Empire - Premieres Friday @                                                                           150                                
PROFAMCHA141001075009075044000035Kirby Buckets Sneak Peek (HD) CD - First Look Oct                                                                           150                                
PRCFAMCHA141001075044075058000014Family Flex Next (HD) DWAB Ghannelius (Aug 2013) (                                                                          150                                
PGRFAMCHA141001075058081233002135Disney Dog With A Blog                            EP: 21                                                               6068807BCC                              
PRCFAMCHA141001081233081303000030Episodic Jessie (HD) 3-23 - New Episode Tonight @                                                                           150                                
PROFAMCHA141001081303081322000019WOWP (HD) Clip Bad Time - Coming Up Next (April 20                                                                          150                                
PROFAMCHA141001081322081407000045Star Wars Rebels (HD) Sabine CT - Premieres Friday                                                                          150                                
PROFAMCHA141001081407081513000106Kirby Buckets Sneak Peek (HD) PS - First Look Oct                                                                           150                                
PROFAMCHA141001081513081600000047Deadtime Stories (HD) Launch - New Series Mon & We                                                                          150                                
PROFAMCHA141001081600081635000035Episodic 7D (HD) 108 - Premieres Sunday Afternoon                                                                           150                                
PRCFAMCHA141001081635081650000015Family Bumper (HD) - Hot Potato ID (Jan 2011)                                                                               150                                
PROFAMCHA141001081650081735000045Incredibles Retag (HD) Friday Night @ 7:05 (Follow                                                                          150                                
PROFAMCHA141001081735081808000033Next Step Tour Announcement (HD) Doh Vinci (2 spot                                                                          150                                
PROFAMCHA141001081808081814000006WOWP (HD) ID - Jennifer Stone 1 "Coming Up Next" (                                                                          150                                
PGRFAMCHA141001081814084047002233Disney Wizards of Waverly Place                   EP: 29                                                               6068607BCC                              
PROFAMCHA141001084047084055000008D-JR Live Action ID - SCWW - Coming Up (Mar2014)                                                                            150                                
PROFAMCHA141001084055084120000025D-JR Live Action ID - #39 Treasure Hunt (Sep2013)                                                                           150                                
PROFAMCHA141001084120084220000100D-JR OOB - Doc School of Medicine Week - Mon Sept                                                                           150                                
PROFAMCHA141001084220084310000050Feld Entertainment                                                                                                          150                                
PROFAMCHA141001084310084325000015D-JR OOB - Imagination Movers Live in Concert Tour                                                                          150                                
PROFAMCHA141001084325084410000045D-JR OOB - The Pirate Fairy - Prems Satuday Oct 4                                                                           150                                
PROFAMCHA141001084410084435000025D-JR Live Action ID - #25 Planting Pumpkins (Sep20                                                                          150                                
PROFAMCHA141001084435084443000008D-JR Live Action ID - SCWW - Now (Mar2014)                                                                                  150                                
PROFAMCHA141001084443084458000015D-JR - Seasonal ID - Fall (Sep 1-Nov 30)                                                                                    150                                
PGRFAMCHA141001084458090900002402Disney Sheriff Callie's Wild West                 EP: 15                                                               6068605ACC                              
PROFAMCHA141001090900090908000008D-JR Live Action ID - DocMcStuffins - Coming Up (O                                                                          150                                
PROFAMCHA141001090908090933000025D-JR Live Action ID - #45 Sorting Socks (May2012)                                                                           150                                
PROFAMCHA141001090933091013000040D-JR OOB - Jake 3-09 - New Episode Saturday Oct 4                                                                           150                                
PROFAMCHA141001091013091038000025D-JR Live Action ID - #63 Wash Face (Sep2013)                                                                               150                                
PROFAMCHA141001091038091046000008D-JR Live Action ID - DocMcStuffins - Now (Oct2013                                                                          150                                
PROFAMCHA141001091046091101000015D-JR - Daily ID - Wednesday (Feb2014)                                                                                       150                                
PGRFAMCHA141001091101093503002402Disney Doc McStuffins                             EP: 22                                                               6028605ACC                              
PROFAMCHA141001093503093511000008D-JR Live Action ID - Henry Hugglemonster - Coming                                                                          150                                
PROFAMCHA141001093511093536000025D-JR Live Action ID - #50 Feed Dog (Sep2013)                                                                                150                                
PROFAMCHA141001093536093606000030D-JR OOB - Doc 2-27 - New Episode Wed Oct 1 @ 5:30                                                                          150                                
PROFAMCHA141001093606093626000020Procter & Gamble                                                                                                            150                                
PROFAMCHA141001093626093651000025D-JR Live Action ID - #34 Hide N Seek (Sep2013)                                                                             150                                
PROFAMCHA141001093651093659000008D-JR Live Action ID - Henry Hugglemonster - Now (S                                                                          150                                
PROFAMCHA141001093659093709000010D-JR - Hero Flex ID - Blue (:06-:10) (Feb2014)                                                                              150                                
PGRFAMCHA141001093709100112002403Henry Hugglemonster                               EP: 25                                                               6028605ACC                              
PROFAMCHA141001100112100120000008D-JR Live Action ID - Jake & the Never Land Pirate                                                                          150                                
PROFAMCHA141001100120100145000025D-JR Live Action ID - #94 Jump Rope (Sep2013)                                                                               150                                
PROFAMCHA141001100145100200000015D-JR OOB - Imagination Movers Live in Concert Tour                                                                          150                                
PROFAMCHA141001100200100240000040The Walt Disney Company                                                                                                     150                                
PROFAMCHA141001100240100325000045D-JR OOB - The Pirate Fairy - Prems Satuday Oct 4                                                                           150                                
PROFAMCHA141001100325100350000025D-JR Live Action ID - #29 Put Shoes On (Sept2012)                                                                           150                                
PROFAMCHA141001100350100357000007D-JR Live Action ID - Jake & the Never Land Pirate                                                                          150                                
PROFAMCHA141001100357100412000015D-JR - Monthly ID - October (Oct2014)                                                                                       150                                
PGRFAMCHA141001100412102814002402Jake and the Never Land Pirates                   EP: 13                                                               6028607ECC                              
PROFAMCHA141001102814102822000008D-JR Live Action ID - Sofia the First - Coming Up                                                                           150                                
PROFAMCHA141001102822102847000025D-JR Live Action ID - #11 Counting Goldfish (Sep20                                                                          150                                
PROFAMCHA141001102847102927000040D-JR OOB - Jake 3-09 - New Episode Saturday Oct 4                                                                           150                                
PROFAMCHA141001102927102952000025D-JR Live Action ID - #67 Play Dressup (Sep2013)                                                                            150                                
PROFAMCHA141001102952103000000008D-JR Live Action ID - Sofia the First - Now (Jan20                                                                          150                                
PROFAMCHA141001103000103010000010D-JR - Hero Flex ID - Yellow (:06-:10) (Feb2014)                                                                            150                                
PGRFAMCHA141001103010105241002231Disney Sofia the First                            EP: 01                                                               6068605ACC                              
PGRFAMCHA141001105241105327000046Episodic IDDI (HD) 1-13 - New Episode Tonight @ 7                                                                      60688120                                
PROFAMCHA141001105327105400000033ANT Farm (HD) Refresh - Coming Up Next (Jun2013)                                                                            150                                
PROFAMCHA141001105400105430000030Star Wars Rebels (HD) Urgency Sell - Prems Friday                                                                           150                                
PRCFAMCHA141001105430105530000100Hasbro                                                                                                                      150                                
PRCFAMCHA141001105530105548000018Family Bumper Flex (HD) Flex ID - Jessie ID (:15-:                                                                          150                                
MVCFAMCHA141001105548105919000331MV Universal (HD) Shawn Mendes - Life of the Party                                                                     10618150CC                              
PROFAMCHA141001105919105954000035Episodic 7D (HD) 108 - Premieres Sunday Afternoon                                                                           150                                
PRCFAMCHA141001105954110008000014Family Flex Next (HD) ANT Farm - Jake (:12-:14) (A                                                                          150                                
PGRFAMCHA141001110008112209002201Disney A.N.T. Farm                                EP: 18                                                               6068607BCC                              
PRCFAMCHA141001112209112235000026Episodic Next Step (HD) 221 - New Episode Friday N                                                                          150                                
PRCFAMCHA141001112235112249000014Family Flex Next (HD) Jessie - Emma (:12-:14) (Mar                                                                          150                                
PRCFAMCHA141001112249112259000010Star Wars Rebels Shorts Open (HD) #3 Entanglement                                                                           150                                
PGRFAMCHA141001112259112605000306Star Wars Rebels Shorts (HD) #3 Entanglement (Sept                                                                     10615120CC                              
PROFAMCHA141001112605112640000035Kirby Buckets Sneak Peek (HD) CD - First Look Oct                                                                           150                                
PROFAMCHA141001112640112730000050Walt Disney Studios Home Entertainment                                                                                      150                                
PROFAMCHA141001112730112802000032Episodic LAM (HD) 2-02 - New Episode Friday Night                                                                           150                                
PROFAMCHA141001112802112832000030D-JR OOB - Doc 2-27 - New Episode Wed Oct 1 @ 5:30                                                                          150                                
PRCFAMCHA141001112832112848000016Family Bumper Flex (HD) Flip Book (:15-:18) (Nov 2                                                                          150                                
PRCFAMCHA141001112848112948000100Episodic A&A (HD) 3-20 - New Episode Tonight @ 6 (                                                                          150                                
PRCFAMCHA141001112948113002000014Family Flex Next (HD) Jessie - Ravi (:12-:14) (Apr                                                                          150                                
PGRFAMCHA141001113002115436002434Disney Jessie                                     EP: 01                                                               6068807BCC                              
PRCFAMCHA141001115436115506000030Episodic Jessie (HD) 3-23 - New Episode Tonight @                                                                           150                                
PROFAMCHA141001115506115536000030Win Lose or Draw (HD) Gen 1 - Coming Up Next (Apri                                                                          150                                
PROFAMCHA141001115536115623000047Deadtime Stories (HD) Launch - New Series Mon & We                                                                          150                                
PROFAMCHA141001115623115713000050Activision                                                                                                                  150                                
PRCFAMCHA141001115713115722000009Family Bumper (HD) - Dragonflies ID (Jan 2011)                                                                              150                                
PROFAMCHA141001115722115752000030Episodic Gravity Falls (HD) 201 - New Episode Sund                                                                          150                                
PGRFAMCHA141001115752115922000130DMS Alexander & the Terrible (HD) In Theatres Oct                                                                      60688120                                
PROFAMCHA141001115922115953000031Star Wars Rebels (HD) Team Sell - Premieres Friday                                                                          150                                
PROFAMCHA141001115953120023000030Win Lose or Draw (HD) Gen 2 - Coming Up Next (Apri                                                                          150                                
PGRFAMCHA141001120023120714000651Disney Win, Lose or Draw                          EP: 07                                                               6068807BCC                              
PRCFAMCHA141001120714120740000026Episodic Next Step (HD) 221 - New Episode Friday N                                                                          150                                
PGRFAMCHA141001120740121353000613Disney Win, Lose or Draw                          EP: 07                                                               6068807BCC                              
PROFAMCHA141001121353121438000045Star Wars Rebels (HD) Sabine CT - Premieres Friday                                                                          150                                
PGRFAMCHA141001121438122038000600Disney Win, Lose or Draw                          EP: 07                                                               6068807BCC                              
PROFAMCHA141001122038122110000032Episodic LAM (HD) 2-02 - New Episode Friday Night                                                                           150                                
PGRFAMCHA141001122110122438000328Disney Win, Lose or Draw                          EP: 07                                                               6068807BCC                              
PGRFAMCHA141001122438122524000046Episodic IDDI (HD) 1-13 - New Episode Tonight @ 7                                                                      60688120                                
PROFAMCHA141001122524122543000019WOWP (HD) Clip Bad Time - Coming Up Next (April 20                                                                          150                                
PROFAMCHA141001122543122618000035Kirby Buckets Sneak Peek (HD) CD - First Look Oct                                                                           150                                
PROFAMCHA141001122618122651000033Next Step Tour Announcement (HD) Tomodachi Life (3                                                                          150                                
PROFAMCHA141001122651122741000050Feld Entertainment                                                                                                          150                                
PROFAMCHA141001122741122816000035Episodic 7D (HD) 108 - Premieres Sunday Afternoon                                                                           150                                
PROFAMCHA141001122816122831000015D-JR OOB - Imagination Movers Live in Concert Tour                                                                          150                                
PROFAMCHA141001122831122921000050Walt Disney Pictures                                                                                                        150                                
PRCFAMCHA141001122921123021000100Episodic A&A (HD) 3-20 - New Episode Tonight @ 6 (                                                                          150                                
PROFAMCHA141001123021123027000006WOWP (HD) ID - Jennifer Stone 2 "Coming Up Next" (                                                                          150                                
PGRFAMCHA141001123027125316002249Disney Wizards of Waverly Place                   EP: 02                                                               6068607BCC                              
PRCFAMCHA141001125316125346000030Episodic Jessie (HD) 3-23 - New Episode Tonight @                                                                           150                                
PROFAMCHA141001125346125409000023WOWP (HD) Harper - Coming Up Next (April 2013)                                                                              150                                
PROFAMCHA141001125409125454000045Star Wars Rebels (HD) Empire - Premieres Friday @                                                                           150                                
PGRFAMCHA141001125454125817000323MV BAW 2014 (HD) Eleven Past One - Im Ready (Stand                                                                     10615120CC                              
PROFAMCHA141001125817125847000030Episodic Gravity Falls (HD) 201 - New Episode Sund                                                                          150                                
PROFAMCHA141001125847125937000050MGA Entertainment Canada                                                                                                    150                                
PRCFAMCHA141001125937125958000021Family Bumper Flex (HD) Garage Band (:17-:21) (Nov                                                                          150                                
PRCFAMCHA141001125958130024000026Episodic Next Step (HD) 221 - New Episode Friday N                                                                          150                                
PROFAMCHA141001130024130030000006WOWP (HD) ID - Jennifer Stone 1 "Coming Up Next" (                                                                          150                                
PGRFAMCHA141001130030132202002132Disney Wizards of Waverly Place                   EP: 24                                                               6068607BCC                              
PROFAMCHA141001132202132242000040Next Step Make A Scene Contest (HD) Enter Before N                                                                          150                                
PROFAMCHA141001132242132248000006GLC (HD) ID - Bridget Mendler 4 "Coming Up Next" (                                                                          150                                
PRCFAMCHA141001132248132258000010Star Wars Rebels Shorts Open (HD) #4 Property of E                                                                          150                                
PGRFAMCHA141001132258132604000306Star Wars Rebels Shorts (HD) #4 Property of EzraBr                                                                     10615120CC                              
PROFAMCHA141001132604132639000035Kirby Buckets Sneak Peek (HD) CD - First Look Oct                                                                           150                                
PRCFAMCHA141001132639132654000015Hasbro                                                                                                                      150                                
PROFAMCHA141001132654132734000040D-JR OOB - Jake 3-09 - New Episode Saturday Oct 4                                                                           150                                
PRCFAMCHA141001132734132750000016Family Bumper Flex (HD) Flex ID - Music ID (:14-:1                                                                          150                                
PGRFAMCHA141001132750132920000130ME (HD) Alexander & the Terrible - Story 2 - Comin                                                                     10215120CC                              
PRCFAMCHA141001132920133020000100Episodic A&A (HD) 3-20 - New Episode Tonight @ 6 (                                                                          150                                
PROFAMCHA141001133020133025000005GLC (HD) ID - Bradley Perry 5 "Coming Up Next" (ge                                                                          150                                
PGRFAMCHA141001133025135259002234Disney Good Luck Charlie                          EP: 04                                                               6068807BCC                              
PROFAMCHA141001135259135334000035Episodic 7D (HD) 108 - Premieres Sunday Afternoon                                                                           150                                
PROFAMCHA141001135334135406000032PAF (HD) Delicious Refresh - Coming Up Next (Jun20                                                                          150                                
PROFAMCHA141001135406135439000033Next Step Tour Announcement (HD) Rebelle (2 spots/                                                                          150                                
PROFAMCHA141001135439135524000045Incredibles Retag (HD) Friday Night @ 7:05 (Follow                                                                          150                                
PROFAMCHA1410011355241356090000457D (HD) Series Promo - Premieres Sunday Afternoon                                                                           150                                
PGRFAMCHA141001135609135754000145ME (HD) Boxtrolls s2 - Now In Theatres (x3 day) (S                                                                     10615120CC                              
PROFAMCHA141001135754135826000032Episodic LAM (HD) 2-02 - New Episode Friday Night                                                                           150                                
PRCFAMCHA141001135826135850000024Family Bumper Flex (HD) Bike Trails (:20-:24) (Mar                                                                          150                                
PROFAMCHA141001135850135920000030Star Wars Rebels (HD) Urgency Sell - Prems Friday                                                                           150                                
PGRFAMCHA141001135920140006000046Episodic IDDI (HD) 1-13 - New Episode Tonight @ 7                                                                      60688120                                
PROFAMCHA141001140006140023000017PAF (HD) Disney Refresh CD - Coming Up Next (April                                                                          150                                
PGRFAMCHA141001140023142253002230Disney Phineas & Ferb                             EP: 26                                                               6068607ECC                              
PRCFAMCHA141001142253142353000100Episodic A&A (HD) 3-20 - New Episode Tonight @ 6 (                                                                          150                                
PROFAMCHA141001142353142408000015ANT Farm (HD) Refresh CT - Coming Up Next (April 2                                                                          150                                
PROFAMCHA141001142408142418000010Star Wars Rebels Shorts Open (HD) #2 Art Attack (S                                                                          150                                
PGRFAMCHA141001142418142723000305Star Wars Rebels Shorts (HD) #2 Art Attack (Sept19                                                                     60688120CC                              
PROFAMCHA141001142723142758000035Kirby Buckets Sneak Peek (HD) CD - First Look Oct                                                                           150                                
PRCFAMCHA141001142758142858000100Hasbro                                                                                                                      150                                
PROFAMCHA141001142858142928000030D-JR OOB - Doc 2-27 - New Episode Wed Oct 1 @ 5:30                                                                          150                                
PRCFAMCHA141001142928142948000020Family Bumper Flex (HD) Longboard (:19-:21) (Mar20                                                                          150                                
PRCFAMCHA141001142948143014000026Episodic Next Step (HD) 221 - New Episode Friday N                                                                          150                                
PRCFAMCHA141001143014143028000014Family Flex Next (HD) ANT Farm - Jake (:12-:14) (A                                                                          150                                
PGRFAMCHA141001143028145344002316Disney A.N.T. Farm                                EP: 26                                                               6068607BCC                              
PRCFAMCHA141001145344145414000030Episodic Jessie (HD) 3-23 - New Episode Tonight @                                                                           150                                
PROFAMCHA141001145414145447000033ANT Farm (HD) Refresh - Coming Up Next (Jun2013)                                                                            150                                
PROFAMCHA1410011454471455320000457D (HD) Series Promo - Premieres Sunday Afternoon                                                                           150                                
MVCFAMCHA141001145532145844000312MV Universal (HD) The Vamps Ft Demi Lovato - Someb                                                                     10618150CC                              
PROFAMCHA141001145844145914000030Episodic Gravity Falls (HD) 201 - New Episode Sund                                                                          150                                
PRCFAMCHA141001145914145929000015Hasbro                                                                                                                      150                                
PROFAMCHA141001145929150014000045Star Wars Rebels (HD) Sabine CT - Premieres Friday                                                                          150                                
PRCFAMCHA141001150014150028000014Family Flex Next (HD) ANT Farm - Jake (:12-:14) (A                                                                          150                                
PGRFAMCHA141001150028152229002201Disney A.N.T. Farm                                EP: 18                                                               6068607BCC                              
PGRFAMCHA141001152229152315000046Episodic IDDI (HD) 1-13 - New Episode Tonight @ 7                                                                      60688120                                
PRCFAMCHA141001152315152329000014Family Flex Next (HD) GLC - Jason (:12-:14) (Apr20                                                                          150                                
PROFAMCHA141001152329152414000045Star Wars Rebels (HD) Empire - Premieres Friday @                                                                           150                                
PROFAMCHA141001152414152520000106Kirby Buckets Sneak Peek (HD) PS - First Look Oct                                                                           150                                
PROFAMCHA141001152520152610000050Feld Entertainment                                                                                                          150                                
PROFAMCHA141001152610152645000035Episodic 7D (HD) 108 - Premieres Sunday Afternoon                                                                           150                                
PGRFAMCHA141001152645152815000130ME (HD) Alexander & the Terrible - Story 1 - Comin                                                                     10215120CC                              
PROFAMCHA141001152815152847000032Episodic LAM (HD) 2-02 - New Episode Friday Night                                                                           150                                
PRCFAMCHA141001152847152902000015Hasbro                                                                                                                      150                                
PROFAMCHA141001152902152935000033Next Step 2 B Online Promo (HD) Check It Out Today                                                                          150                                
PROFAMCHA141001152935153022000047Deadtime Stories (HD) Launch - New Series Mon & We                                                                          150                                
PROFAMCHA141001153022153027000005GLC (HD) ID - Jason Dolley 3 "Coming Up Next" (gen                                                                          150                                
PGRFAMCHA141001153027155246002219Good Luck Charlie                                 EP: 07                                                               6068807BCC                              
PROFAMCHA141001155246155319000033Next Step Tour Announcement (HD) Tomodachi Life (3                                                                          150                                
PROFAMCHA141001155319155351000032PAF (HD) Delicious Refresh - Coming Up Next (Jun20                                                                          150                                
PRCFAMCHA141001155351155401000010Star Wars Rebels Shorts Open (HD) #4 Property of E                                                                          150                                
PGRFAMCHA141001155401155707000306Star Wars Rebels Shorts (HD) #4 Property of EzraBr                                                                     10615120CC                              
PRCFAMCHA141001155707155728000021Family Bumper Flex (HD) Trampoline (:15-:21) (Mar2                                                                          150                                
PGRFAMCHA141001155728155858000130DMS Alexander & the Terrible (HD) In Theatres Oct                                                                      60688120                                
PRCFAMCHA141001155858155958000100Episodic A&A (HD) 3-20 - New Episode Tonight @ 6 (                                                                          150                                
PROFAMCHA141001155958160015000017PAF (HD) Disney Refresh CD - Coming Up Next (April                                                                          150                                
PGRFAMCHA141001160015162248002233Disney Phineas and Ferb                           EP: 24                                                               6068607ECC                              
PRCFAMCHA141001162248162348000100Episodic A&A (HD) 3-20 - New Episode Tonight @ 6 (                                                                          150                                
PROFAMCHA141001162348162413000025DWAB (HD) Clip Promo - Coming Up Next (Oct2013)                                                                             150                                
PROFAMCHA141001162413162500000047Deadtime Stories (HD) Launch - New Series Mon & We                                                                          150                                
PRCFAMCHA141001162500162526000026Episodic Next Step (HD) 221 - New Episode Friday N                                                                          150                                
PROFAMCHA141001162526162616000050Universal Home Entertainment                                                                                                150                                
PRCFAMCHA141001162616162646000030Web FOD 2014 Refresh (HD) Family.ca (Mar2014) (2-3                                                                          150                                
PRCFAMCHA141001162646162710000024Family Bumper Flex (HD) Bike Trails (:20-:24) (Mar                                                                          150                                
PROFAMCHA141001162710162755000045Incredibles Retag (HD) Friday Night @ 7:05 (Follow                                                                          150                                
PRCFAMCHA141001162755162855000100Hasbro                                                                                                                      150                                
PROFAMCHA141001162855162925000030Star Wars Rebels (HD) Urgency Sell - Prems Friday                                                                           150                                
PROFAMCHA141001162925163000000035Kirby Buckets Sneak Peek (HD) CD - First Look Oct                                                                           150                                
PRCFAMCHA141001163000163021000021DWAB Tango Refresh (HD) Coming Up Next (Mar2014)                                                                            150                                
PGRFAMCHA141001163021165254002233Disney Dog with a Blog                            EP: 17                                                               6068807BCC                              
PROFAMCHA141001165254165325000031Star Wars Rebels (HD) Team Sell - Premieres Friday                                                                          150                                
PROFAMCHA141001165325165400000035DWAB (HD) Refresh - Stan Dating Video - Coming Up                                                                           150                                
PRCFAMCHA141001165400165430000030Episodic Jessie (HD) 3-23 - New Episode Tonight @                                                                           150                                
PROFAMCHA141001165430165520000050Walt Disney Pictures                                                                                                        150                                
PROFAMCHA141001165520165552000032Episodic LAM (HD) 2-02 - New Episode Friday Night                                                                           150                                
PGRFAMCHA141001165552165752000200ME (HD) Boxtrolls s1 - Now In Theatres  (x3 day) (                                                                     10615120CC                              
PRCFAMCHA141001165752165802000010Family Bumper (HD) - Bobbleheads ID (Jan 2011)                                                                              150                                
PROFAMCHA141001165802165832000030Episodic Gravity Falls (HD) 201 - New Episode Sund                                                                          150                                
PRCFAMCHA141001165832165847000015Hasbro                                                                                                                      150                                
PROFAMCHA141001165847165927000040Next Step Make A Scene Contest (HD) Enter Before N                                                                          150                                
PROFAMCHA141001165927170002000035Episodic 7D (HD) 108 - Premieres Sunday Afternoon                                                                           150                                
PRCFAMCHA141001170002170017000015Family Flex Next (HD) DWAB Ghannelius (Aug 2013) (                                                                          150                                
PGRFAMCHA141001170017172237002220Disney Dog with a Blog                            EP: 16                                                               6068807BCC                              
PRCFAMCHA141001172237172337000100Episodic A&A (HD) 3-20 - New Episode Tonight @ 6 (                                                                          150                                
PRCFAMCHA141001172337172356000019Family Flex Next (HD) LAM - Dove (:10-:19) (Jul201                                                                          150                                
PGRFAMCHA141001172356172442000046Episodic IDDI (HD) 1-13 - New Episode Tonight @ 7                                                                      60688120                                
PROFAMCHA141001172442172452000010Star Wars Rebels Shorts Open (HD) #1 The Machine i                                                                          150                                
PGRFAMCHA141001172452172758000306Star Wars Rebels Shorts (HD) #1 The Machine in the                                                                     60688120CC                              
PROFAMCHA141001172758172833000035Kirby Buckets Sneak Peek (HD) CD - First Look Oct                                                                           150                                
PRCFAMCHA141001172833172933000100Big Hero 6 (HD) Coming Soon (1x/day in Primetime)(                                                                          150                                
PRCFAMCHA141001172933172959000026Episodic Next Step (HD) 221 - New Episode Friday N                                                                          150                                
PRCFAMCHA141001172959173018000019Family Flex Next (HD) LAM - Joey (:10-:19) (Jul201                                                                          150                                
PGRFAMCHA141001173018175352002334Disney Liv and Maddie                             EP: 19                                                               6068807BCC                              
PROFAMCHA141001175352175424000032Episodic LAM (HD) 2-02 - New Episode Friday Night                                                                           150                                
PRCFAMCHA141001175424175524000100Episodic A&A (HD) 3-20 - New Episode Coming Up Nex                                                                          150                                
PROFAMCHA141001175524175609000045Star Wars Rebels (HD) Sabine CT - Premieres Friday                                                                          150                                
PROFAMCHA141001175609175642000033Next Step Tour Announcement (HD) Doh Vinci (2 spot                                                                          150                                
PROFAMCHA141001175642175732000050Walt Disney Pictures                                                                                                        150                                
PROFAMCHA141001175732175758000026Web IDDI @ family.ca (HD) Play Games at family.ca/                                                                          150                                
PRCFAMCHA141001175758175820000022Family Bumper Flex (HD) Fifteen Logos (:21-:22) (N                                                                          150                                
PROFAMCHA1410011758201759050000457D (HD) Series Promo - Premieres Sunday Afternoon                                                                           150                                
PRCFAMCHA141001175905175935000030Episodic Jessie (HD) 3-23 - New Episode Tonight @                                                                           150                                
PRCFAMCHA141001175935180035000100Episodic A&A (HD) 3-20 - New Episode Coming Up Nex                                                                          150                                
PGRFAMCHA141001180035182324002249Disney Austin & Ally                              EP: 20                                                               6028807BCC                              
PGRFAMCHA141001182324182410000046Episodic IDDI (HD) 1-13 - New Episode Tonight @ 7                                                                      60688120                                
PRCFAMCHA141001182410182440000030Episodic Jessie (HD) 3-23 - New Episode Coming Up                                                                           150                                
PRCFAMCHA141001182440182450000010Star Wars Rebels Shorts Open (HD) #3 Entanglement                                                                           150                                
PGRFAMCHA141001182450182756000306Star Wars Rebels Shorts (HD) #3 Entanglement (Sept                                                                     10615120CC                              
PROFAMCHA141001182756182831000035Episodic 7D (HD) 108 - Premieres Sunday Afternoon                                                                           150                                
PROFAMCHA141001182831182921000050Activision                                                                                                                  150                                
PRCFAMCHA141001182921182931000010Family Bumper (HD) - Bobbleheads ID (Jan 2011)                                                                              150                                
PRCFAMCHA141001182931182957000026Episodic Next Step (HD) 221 - New Episode Friday N                                                                          150                                
PRCFAMCHA141001182957183027000030Episodic Jessie (HD) 3-23 - New Episode Coming Up                                                                           150                                
PGRFAMCHA141001183027185431002404Disney Jessie                                     EP: 23                                                               6028807BCC                              
PROFAMCHA141001185431185504000033Next Step Tour Announcement (HD) Nintendo DS (1 Sp                                                                          150                                
PGRFAMCHA141001185504185550000046Episodic IDDI (HD) 1-13 - New Episode Coming Up Ne                                                                     60288120                                
PROFAMCHA141001185550185622000032Episodic LAM (HD) 2-02 - New Episode Friday Night                                                                           150                                
PROFAMCHA141001185622185712000050Walt Disney Pictures                                                                                                        150                                
PROFAMCHA141001185712185742000030Episodic Gravity Falls (HD) 201 - New Episode Sund                                                                          150                                
PRCFAMCHA141001185742185803000021Family Bumper Flex (HD) Break Dance (:18-:21) (Mar                                                                          150                                
PROFAMCHA141001185803185818000015Web Mickey Mouse Online Game (HD) Play games on fa                                                                          150                                
PROFAMCHA141001185818185903000045Star Wars Rebels (HD) Empire - Premieres Friday @                                                                           150                                
PROFAMCHA141001185903185938000035Kirby Buckets Sneak Peek (HD) CD - First Look Oct                                                                           150                                
PGRFAMCHA141001185938190024000046Episodic IDDI (HD) 1-13 - New Episode Coming Up Ne                                                                     60688120                                
PGRFAMCHA141001190024192325002301Disney I Didn't Do It                             EP: 13                                                               6028607BCC                              
PRCFAMCHA141001192325192351000026Episodic Next Step (HD) 221 - New Episode Friday N                                                                          150                                
PRCFAMCHA141001192351192411000020Family Flex Next (HD) GMW - Rowan (:10-:20) (Jul20                                                                          150                                
PROFAMCHA141001192411192442000031Star Wars Rebels (HD) Team Sell - Premieres Friday                                                                          150                                
PGRFAMCHA141001192442192612000130DMS Alexander & the Terrible (HD) In Theatres Oct                                                                      60688120                                
PROFAMCHA1410011926121926570000457D (HD) Series Promo - Premieres Sunday Afternoon                                                                           150                                
PROFAMCHA141001192657192747000050MGA Entertainment Canada                                                                                                    150                                
PRCFAMCHA141001192747192817000030Web FOD 2014 Refresh (HD) Family.ca (Mar2014) (2-3                                                                          150                                
PROFAMCHA141001192817192904000047Deadtime Stories (HD) Launch - New Series Mon & We                                                                          150                                
PRCFAMCHA141001192904192933000029Family Bumper Flex (HD) Flex ID - Austin & Ally (F                                                                          150                                
PROFAMCHA141001192933193018000045Incredibles Retag (HD) Friday Night @ 7:05 (Follow                                                                          150                                
PRCFAMCHA141001193018193037000019Family Flex Next (HD) GMW - Sabrina (:10-:19) (Jul                                                                          150                                
PGRFAMCHA141001193037195325002248Disney Girl Meets World                           EP: 14                                                              A6068707BCC                              
PROFAMCHA141001195325195400000035Episodic 7D (HD) 108 - Premieres Sunday Afternoon                                                                           150                                
PRCFAMCHA141001195400195413000013Family Flex Next (HD) A&A - Laura (:12-:14) (Apr20                                                                          150                                
PROFAMCHA141001195413195423000010Star Wars Rebels Shorts Open (HD) #2 Art Attack (S                                                                          150                                
PGRFAMCHA141001195423195728000305Star Wars Rebels Shorts (HD) #2 Art Attack (Sept19                                                                     60688120CC                              
PROFAMCHA141001195728195803000035Kirby Buckets Sneak Peek (HD) CD - First Look Oct                                                                           150                                
PGRFAMCHA141001195803195933000130ME (HD) Alexander & the Terrible - Story 2 - Comin                                                                     10615120CC                              
PRCFAMCHA141001195933195948000015Hasbro                                                                                                                      150                                
PROFAMCHA141001195948200021000033Next Step Tour Announcement (HD) Rebelle (2 spots/                                                                          150                                
PRCFAMCHA141001200021200034000013Family Flex Next (HD) A&A Raini (Aug 2013) (:13-:1                                                                          150                                
PGRFAMCHA141001200034202306002232Disney Austin & Ally                              EP: 06                                                               6068807BCC                              
PROFAMCHA141001202306202351000045Star Wars Rebels (HD) Sabine CT - Premieres Friday                                                                          150                                
PRCFAMCHA141001202351202405000014Family Flex Next (HD) GLC - Jason (:12-:14) (Apr20                                                                          150                                
PROFAMCHA141001202405202437000032Episodic LAM (HD) 2-02 - New Episode Friday Night                                                                           150                                
PGRFAMCHA141001202437202800000323MV BAW 2014 (HD) Eleven Past One - Im Ready (Stand                                                                     10615120CC                              
PRCFAMCHA141001202800202826000026Episodic Next Step (HD) 221 - New Episode Friday N                                                                          150                                
PROFAMCHA141001202826202916000050Universal Home Entertainment                                                                                                150                                
PROFAMCHA141001202916202946000030Episodic Gravity Falls (HD) 201 - New Episode Sund                                                                          150                                
PROFAMCHA141001202946203031000045Incredibles Retag (HD) Friday Night @ 7:05 (Follow                                                                          150                                
PROFAMCHA141001203031203036000005GLC (HD) ID - Bradley Perry 5 "Coming Up Next" (ge                                                                          150                                
PGRFAMCHA141001203036205307002231Disney Good Luck Charlie                          EP: 04                                                               6068807BCC                              
PROFAMCHA141001205307205354000047Deadtime Stories (HD) Launch - New Series Mon & We                                                                          150                                
PRCFAMCHA141001205354205414000020Next Step Season 2 B (HD) Riley - Coming Up Next (                                                                          150                                
PROFAMCHA141001205414205504000050Walt Disney Studios Home Entertainment                                                                                      150                                
PROFAMCHA141001205504205549000045D-JR OOB - The Pirate Fairy - Prems Satuday Oct 4                                                                           150                                
MVCFAMCHA141001205549205916000327MV Universal (HD) 5 Seconds of Summer - Don't Stop                                                                     20688150CC                              
PRCFAMCHA141001205916205932000016Family Bumper Flex (HD) Flex ID - Jessie ID (:15-:                                                                          150                                
PROFAMCHA141001205932210017000045Star Wars Rebels (HD) Empire - Premieres Friday @                                                                           150                                
PROFAMCHA141001210017210032000015Next Step Season 2 B (HD) James - Coming Up Next (                                                                          150                                
PGRFAMCHA141001210032212319002247The Next Step                                     EP: 11                                                        C36838 1055607ACD3                             
PRCFAMCHA141001212319212345000026Episodic Next Step (HD) 221 - New Episode Friday N                                                                          150                                
PRCFAMCHA141001212345212355000010Star Wars Rebels Shorts Open (HD) #4 Property of E                                                                          150                                
PGRFAMCHA141001212355212701000306Star Wars Rebels Shorts (HD) #4 Property of EzraBr                                                                     10615120CC                              
PROFAMCHA141001212701212736000035Kirby Buckets Sneak Peek (HD) CD - First Look Oct                                                                           150                                
PRCFAMCHA141001212736212751000015Hasbro                                                                                                                      150                                
PRCFAMCHA141001212751212812000021Family Bumper Flex (HD) Break Dance (:18-:21) (Mar                                                                          150                                
PGRFAMCHA141001212812212957000145ME (HD) Boxtrolls s2 - Now In Theatres (x3 day) (S                                                                     10615120CC                              
PROFAMCHA141001212957213032000035Episodic 7D (HD) 108 - Premieres Sunday Afternoon                                                                           150                                
PGRFAMCHA141001213032215303002231Wingin' It                                        EP: 16                                                        C32727 1065607ACD                              
PROFAMCHA141001215303215335000032Episodic LAM (HD) 2-02 - New Episode Friday Night                                                                           150                                
PROFAMCHA141001215335215400000025GLC Promo 1 (HD) Coming Up Next (Sep2013)                                                                                   150                                
PROFAMCHA141001215400215433000033Next Step Tour Announcement (HD) Tomodachi Life (3                                                                          150                                
MVCFAMCHA141001215433215800000327MV Universal (HD) 5 Seconds of Summer - Don't Stop                                                                     20688150CC                              
PRCFAMCHA141001215800215822000022Family Bumper Flex (HD) Fifteen Logos (:21-:22) (N                                                                          150                                
PRCFAMCHA141001215822215922000100Hasbro                                                                                                                      150                                
PROFAMCHA141001215922220002000040D-JR OOB - Jake 3-09 - New Episode Saturday Oct 4                                                                           150                                
PROFAMCHA141001220002220032000030Star Wars Rebels (HD) Urgency Sell - Prems Friday                                                                           150                                
PROFAMCHA141001220032220038000006GLC (HD) ID - Bridget Mendler 6 "Coming Up Next" (                                                                          150                                
PGRFAMCHA141001220038222255002217Good Luck Charlie                                 EP: 07                                                               6068807BCC                              
PROFAMCHA141001222255222342000047Deadtime Stories (HD) Launch - New Series Mon & We                                                                          150                                
PROFAMCHA141001222342222412000030Win Lose or Draw (HD) Gen 2 - Coming Up Next (Apri                                                                          150                                
PROFAMCHA141001222412222422000010Star Wars Rebels Shorts Open (HD) #1 The Machine i                                                                          150                                
PGRFAMCHA141001222422222728000306Star Wars Rebels Shorts (HD) #1 The Machine in the                                                                     60688120CC                              
PROFAMCHA141001222728222803000035Kirby Buckets Sneak Peek (HD) CD - First Look Oct                                                                           150                                
PRCFAMCHA141001222803222833000030Web Gravity Falls Online Game (HD) Play games on f                                                                          150                                
PRCFAMCHA141001222833222849000016Family Bumper Flex (HD) Flex ID - Music ID (:14-:1                                                                          150                                
PROFAMCHA141001222849222934000045Incredibles Retag (HD) Friday Night @ 7:05 (Follow                                                                          150                                
PRCFAMCHA141001222934223000000026Episodic Next Step (HD) 221 - New Episode Friday N                                                                          150                                
PROFAMCHA141001223000223030000030Win Lose or Draw (HD) Gen 1 - Coming Up Next (Apri                                                                          150                                
PGRFAMCHA141001223030223721000651Disney Win, Lose or Draw                          EP: 07                                                               6068807BCC                              
PROFAMCHA141001223721223756000035Episodic 7D (HD) 108 - Premieres Sunday Afternoon                                                                           150                                
PGRFAMCHA141001223756224409000613Disney Win, Lose or Draw                          EP: 07                                                               6068807BCC                              
PROFAMCHA141001224409224439000030Episodic Gravity Falls (HD) 201 - New Episode Sund                                                                          150                                
PGRFAMCHA141001224439225039000600Disney Win, Lose or Draw                          EP: 07                                                               6068807BCC                              
PROFAMCHA141001225039225111000032Episodic LAM (HD) 2-02 - New Episode Friday Night                                                                           150                                
PGRFAMCHA141001225111225439000328Disney Win, Lose or Draw                          EP: 07                                                               6068807BCC                              
PROFAMCHA141001225439225519000040Next Step Make A Scene Contest (HD) Enter Before N                                                                          150                                
PROFAMCHA141001225519225542000023WOWP (HD) Harper - Coming Up Next (April 2013)                                                                              150                                
MVCFAMCHA141001225542225854000312MV Universal (HD) The Vamps Ft Demi Lovato - Someb                                                                     10618150CC                              
PROFAMCHA141001225854225939000045D-JR OOB - The Pirate Fairy - Prems Satuday Oct 4                                                                           150                                
PRCFAMCHA141001225939225954000015Family Bumper (HD) - Hot Potato ID (Jan 2011)                                                                               150                                
PROFAMCHA141001225954230025000031Star Wars Rebels (HD) Team Sell - Premieres Friday                                                                          150                                
PROFAMCHA141001230025230031000006WOWP (HD) ID - Jennifer Stone 1 "Coming Up Next" (                                                                          150                                
PGRFAMCHA141001230031232319002248Disney Wizards of Waverly Place                   EP: 02                                                               6068607BCC                              
PROFAMCHA1410012323192324040000457D (HD) Series Promo - Premieres Sunday Afternoon                                                                           150                                
PRCFAMCHA141001232404232414000010Star Wars Rebels Shorts Open (HD) #3 Entanglement                                                                           150                                
PGRFAMCHA141001232414232720000306Star Wars Rebels Shorts (HD) #3 Entanglement (Sept                                                                     10615120CC                              
PROFAMCHA141001232720232755000035Kirby Buckets Sneak Peek (HD) CD - First Look Oct                                                                           150                                
PRCFAMCHA141001232755232813000018Family Bumper Flex (HD) Flip Book (:15-:18) (Nov 2                                                                          150                                
PRCFAMCHA141001232813232828000015Hasbro                                                                                                                      150                                
PGRFAMCHA141001232828232958000130MV Disney (HD) R5 - Heart Made Up On You CT (Aug14                                                                     10615120CC                              
PROFAMCHA141001232958233045000047Deadtime Stories (HD) Launch - New Series Mon & We                                                                          150                                
PGRFAMCHA141001233045235315002230Life with Derek                                   EP: 14                                                        C26679A1065607BCC                              
PRCFAMCHA141001235315235341000026Episodic Next Step (HD) 221 - New Episode Friday N                                                                          150                                
PROFAMCHA141001235341235426000045Incredibles Retag (HD) Friday Night @ 7:05 (Follow                                                                          150                                
MVCFAMCHA141001235426235807000341MV Non Disney (HD) Victoria Duffield - Paper Plane                                                                     10615150CC                              
PROFAMCHA141001235807235822000015D-JR OOB - Imagination Movers Live in Concert Tour                                                                          150                                
PRCFAMCHA141001235822235842000020Family Bumper Flex (HD) Flex ID - ANT Farm (:16-:2                                                                          150                                
PROFAMCHA141001235842235927000045Star Wars Rebels (HD) Sabine CT - Premieres Friday                                                                          150                                
PROFAMCHA141001235927000033000106Kirby Buckets Sneak Peek (HD) PS - First Look Oct                                                                           150                                
PGRFAMCHA141001000033002310002237The Latest Buzz                                   EP: 13                                                        C30362 1065607BCC                              
PROFAMCHA141001002310002341000031Star Wars Rebels (HD) Team Sell - Premieres Friday                                                                          150                                
PROFAMCHA141001002341002416000035Kirby Buckets Sneak Peek (HD) CD - First Look Oct                                                                           150                                
MVCFAMCHA141001002416002747000331MV Universal (HD) Shawn Mendes - Life of the Party                                                                     10618150CC                              
PROFAMCHA141001002747002819000032Episodic LAM (HD) 2-02 - New Episode Friday Night                                                                           150                                
PRCFAMCHA141001002819002952000133Int In Studio (HD) Victoria Duffield Interview (Au                                                                          150                                
PRCFAMCHA141001002952003001000009Family Bumper (HD) - Dragonflies ID (Jan 2011)                                                                              150                                
PROFAMCHA141001003001003010000009Next Step 2B Liner (HD) Chloe Makeup - family.ca/t                                                                          150                                
PROFAMCHA141001003010003045000035Episodic 7D (HD) 108 - Premieres Sunday Afternoon                                                                           150                                
PGRFAMCHA141001003045005317002232Wingin' It                                        EP: 07                                                        C32727 1065607ACD                              
PRCFAMCHA141001005317005343000026Episodic Next Step (HD) 221 - New Episode Friday N                                                                          150                                
MVCFAMCHA141001005343005724000341MV Universal (HD) Nikki Yanofsky - Necessary Evil                                                                      10618150CC                              
PROFAMCHA141001005724005754000030Episodic Gravity Falls (HD) 201 - New Episode Sund                                                                          150                                
PROFAMCHA141001005754005834000040D-JR OOB - Jake 3-09 - New Episode Saturday Oct 4                                                                           150                                
PGRFAMCHA141001005834005934000100Copper Top Flop Show (HD) 118 Code Red (Aug13)                                                                         60688120CC                              
PRCFAMCHA141001005934005952000018Family Bumper Flex (HD) Flex ID - Jessie ID (:15-:                                                                          150                                
PROFAMCHA141001005952010037000045Star Wars Rebels (HD) Empire - Premieres Friday @                                                                           150                                
PGRFAMCHA141001010037012310002233DEBRA!                                            EP: 12                                                        C35763 1065607ACD                              
PRCFAMCHA141001012310012341000031Family Bumper Flex (HD) Flex ID - Austin & Ally (F                                                                          150                                
PGRFAMCHA141001012341014526002145What's Up, Warthogs!                              EP: 18                                                        B33327 1065607BCC                              
PRCFAMCHA141001014526014547000021Family Bumper Flex (HD) Longboard (:19-:21) (Mar20                                                                          150                                
PGRFAMCHA141001014547020819002232Disney Wizards of Waverly Place                   EP: 29                                                               6068607BCC                              
PRCFAMCHA141001020819020829000010Family Bumper (HD) - Bobbleheads ID (Jan 2011)                                                                              150                                
PGRFAMCHA141001020829023101002232Really Me                                         EP: 06                                                        C35342 1065607ACD                              
PRCFAMCHA141001023101023122000021Family Bumper Flex (HD) Trampoline (:15-:21) (Mar2                                                                          150                                
PGRFAMCHA141001023122025352002230Life with Derek                                   EP: 22                                                        C26679A1065607BCC                              
PRCFAMCHA141001025352025410000018Family Bumper Flex (HD) Flex ID - Jessie ID (:15-:                                                                          150                                
PGRFAMCHA141001025410031612002202Slugterra                                         EP: 31                                                        A33763 1065607ACC                              
PGRFAMCHA141001031612033913002301What's Up, Warthogs!                              EP: 14                                                        C32738 1065607BCC                              
PRCFAMCHA141001033913033931000018Family Bumper Flex (HD) Flex ID - Music ID (:14-:1                                                                          150                                
PGRFAMCHA141001033931040206002235The Latest Buzz                                   EP: 07                                                        C30362 1065607BCC                              
PGRFAMCHA141001040206042436002230Life With Derek                                   EP: 01                                                        C24891 1065607BCC                              
PROFAMCHA141001042436042521000045Star Wars Rebels (HD) Sabine CT - Premieres Friday                                                                          150                                
PROFAMCHA141001042521042556000035Kirby Buckets Sneak Peek (HD) CD - First Look Oct                                                                           150                                
PGRFAMCHA141001042556042914000318MV Disney (HD) Bella Thorne - Call It Whatever (Au                                                                     10615120CC                              
PRCFAMCHA141001042914042933000019Family Bumper Flex (HD) Flex ID - ANT Farm (:16-:2                                                                          150                                
PRCFAMCHA141001042933042959000026Episodic Next Step (HD) 221 - New Episode Friday N                                                                          150                                
OFFFAMCHA141001042959043000000001OFF AIR                                                                                                                                                        
PGRFAMCHA141002043000045233002233DEBRA!                                            EP: 05                                                        C35763 1065607ACD                              
PROFAMCHA141002045233045320000047Deadtime Stories (HD) Launch - New Series Mon & We                                                                          150                                
PROFAMCHA141002045320045352000032Episodic LAM (HD) 2-02 - New Episode Tomorrow Nigh                                                                          150                                
PROFAMCHA141002045352045437000045Star Wars Rebels (HD) Empire - Premieres Tomorrow                                                                           150                                
PROFAMCHA141002045437045512000035Kirby Buckets Sneak Peek (HD) CD - First Look Oct                                                                           150                                
PRCFAMCHA141002045512045533000021Family Bumper Flex (HD) Break Dance (:18-:21) (Mar                                                                          150                                
PROFAMCHA141002045533045603000030Episodic Gravity Falls (HD) 201 - New Episode Sund                                                                          150                                
PGRFAMCHA141002045603051835002232Really Me                                         EP: 10                                                        C35342 1065607ACD                              
PROFAMCHA141002051835051843000008D-JR Live Action ID - Stella & Sam - Coming Up (Ma                                                                          150                                
PROFAMCHA141002051843051908000025D-JR Live Action ID - #96 Piano (Sep2013)                                                                                   150                                
PROFAMCHA141002051908052008000100D-JR OOB - Doc School of Medicine Week - Mon Sept                                                                           150                                
PROFAMCHA141002052008052033000025D-JR Live Action ID - #45 Sorting Socks (May2012)                                                                           150                                
PROFAMCHA141002052033052041000008D-JR Live Action ID - Stella & Sam - Now (Mar2013)                                                                          150                                
PROFAMCHA141002052041052056000015D-JR - Daily ID - Thursday (Feb2014)                                                                                        150                                
PGRFAMCHA141002052056054412002316Stella and Sam                                    EP: 10                                                        C32553 1065607ECD                              
PROFAMCHA141002054412054457000045D-JR OOB - The Pirate Fairy - Prems Satuday Oct 4                                                                           150                                
PROFAMCHA141002054457054507000010D-JR - Hero Flex ID - Blue (:06-:10) (Feb2014)                                                                              150                                
PGRFAMCHA141002054507060738002231Justin Time                                       EP: 09                                                        C36486 1065607ECD                              
PROFAMCHA141002060738060746000008D-JR Live Action ID - Justin Time - Coming Up (Sep                                                                          150                                
PROFAMCHA141002060746060811000025D-JR Live Action ID - #28 Clapping Game (Sep2013)                                                                           150                                
PROFAMCHA141002060811060851000040D-JR OOB - Jake 3-09 - New Episode Saturday Oct 4                                                                           150                                
PROFAMCHA141002060851060921000030D-JR Promo - MMCH - Get more MMCH on D-JR the chan                                                                          150                                
PROFAMCHA141002060921060946000025D-JR Live Action ID - #13 Make Bed (May2012)                                                                                150                                
PROFAMCHA141002060946060954000008D-JR Live Action ID - Justin Time - Now (Sept2014)                                                                          150                                
PROFAMCHA141002060954061009000015D-JR - Monthly ID - October (Oct2014)                                                                                       150                                
PGRFAMCHA141002061009063238002229Justin Time                                       EP: 10                                                        C36486 1065607ECD                              
PROFAMCHA141002063238063313000035Episodic 7D (HD) 108 - Premieres Sunday Afternoon                                                                           150                                
PROFAMCHA141002063313063358000045Star Wars Rebels (HD) Sabine CT - Premieres Tomorr                                                                          150                                
PRCFAMCHA141002063358063425000027Family Bumper Flex (HD) Flex ID - Austin & Ally (F                                                                          150                                
PRCFAMCHA141002063425063451000026Episodic Next Step (HD) 221 - New Episode Tomorrow                                                                          150                                
PRCFAMCHA141002063451063504000013Family Flex Next (HD) ANT Farm - Jake (:12-:14) (A                                                                          150                                
PGRFAMCHA141002063504065750002246Disney A.N.T. Farm                                EP: 24                                                               6068607BCC                              
PROFAMCHA141002065750065837000047Deadtime Stories (HD) Launch - New Series Mon & We                                                                          150                                
PROFAMCHA141002065837065907000030Star Wars Rebels (HD) Urgency Sell - Prems Tomorro                                                                          150                                
PRCFAMCHA141002065907065916000009Family Bumper (HD) - Dragonflies ID (Jan 2011)                                                                              150                                
PROFAMCHA141002065916065948000032Episodic LAM (HD) 2-02 - New Episode Tomorrow Nigh                                                                          150                                
PRCFAMCHA141002065948070001000013Family Flex Next (HD) Jessie - Jessie  (:12-:14) (                                                                          150                                
PGRFAMCHA141002070001072319002318Disney Jessie                                     EP: 25                                                               6068807BCC                              
PROFAMCHA141002072319072350000031Episodic Jessie (HD) 3-24 - New Episode Wednesday                                                                           150                                
PRCFAMCHA141002072350072406000016Family Bumper Flex (HD) Flex ID - ANT Farm (:16-:2                                                                          150                                
PROFAMCHA141002072406072437000031Star Wars Rebels (HD) Team Sell - Premieres Tomorr                                                                          150                                
PRCFAMCHA141002072437072450000013Family Flex Next (HD) A&A - Laura (:12-:14) (Apr20                                                                          150                                
PGRFAMCHA141002072450074621002131Disney Austin & Ally                              EP: 04                                                               6068807BCC                              
PROFAMCHA141002074621074711000050Episodic A&A (HD) 318 - New Episode Wednesday Nigh                                                                          150                                
PROFAMCHA141002074711074741000030Star Wars Rebels (HD) Urgency Sell - Prems Tomorro                                                                          150                                
PROFAMCHA141002074741074813000032Episodic LAM (HD) 2-02 - New Episode Tomorrow Nigh                                                                          150                                
PROFAMCHA141002074813074903000050Walt Disney Pictures                                                                                                        150                                
PRCFAMCHA141002074903074926000023Family Bumper Flex (HD) Bike Trails (:20-:24) (Mar                                                                          150                                
PROFAMCHA141002074926074956000030Episodic Gravity Falls (HD) 201 - New Episode Sund                                                                          150                                
PROFAMCHA141002074956075041000045Incredibles Retag (HD) Tomorrow Night @ 7:05 (Foll                                                                          150                                
PRCFAMCHA141002075041075056000015Family Flex Next (HD) DWAB Ghannelius (Aug 2013) (                                                                          150                                
PGRFAMCHA141002075056081228002132Disney Dog With A Blog                            EP: 20                                                               6068807BCC                              
PRCFAMCHA141002081228081258000030Episodic IDDI (HD) 1-20 - New Episode Wed Night @                                                                           150                                
PROFAMCHA141002081258081317000019WOWP (HD) Clip Bad Time - Coming Up Next (April 20                                                                          150                                
PROFAMCHA141002081317081404000047Deadtime Stories (HD) Launch - New Series Mon & We                                                                          150                                
PROFAMCHA141002081404081439000035Episodic 7D (HD) 108 - Premieres Sunday Afternoon                                                                           150                                
PROFAMCHA141002081439081510000031Star Wars Rebels (HD) Team Sell - Premieres Tomorr                                                                          150                                
PROFAMCHA141002081510081616000106Kirby Buckets Sneak Peek (HD) PS - First Look Oct                                                                           150                                
PRCFAMCHA141002081616081634000018Family Bumper Flex (HD) Flex ID - Jessie ID (:15-:                                                                          150                                
PROFAMCHA141002081634081707000033Next Step Tour Announcement (HD) Tomodachi Life (3                                                                          150                                
PROFAMCHA141002081707081740000033Episodic GMW (HD) 108 - New Episode Friday Oct 10                                                                           150                                
PROFAMCHA141002081740081746000006WOWP (HD) ID - Jennifer Stone 1 "Coming Up Next" (                                                                          150                                
PGRFAMCHA141002081746084019002233Disney Wizards of Waverly Place                   EP: 30                                                               6068607BCC                              
PROFAMCHA141002084019084027000008D-JR Live Action ID - SCWW - Coming Up (Mar2014)                                                                            150                                
PROFAMCHA141002084027084052000025D-JR Live Action ID - # Learning Hot and Cold (Oct                                                                          150                                
PROFAMCHA141002084052084122000030D-JR Promo - Henry Hugglemonster - Get More Henry                                                                           150                                
PROFAMCHA141002084122084212000050Feld Entertainment                                                                                                          150                                
PROFAMCHA141002084212084237000025D-JR Promo - JATNP - Get more on the channel REV (                                                                          150                                
PROFAMCHA141002084237084317000040The Walt Disney Company                                                                                                     150                                
PROFAMCHA141002084317084357000040D-JR OOB - Lalaloopsy - Family - New Series Begins                                                                          150                                
PROFAMCHA141002084357084422000025D-JR Live Action ID - #42 Brush Teeth (May2012)                                                                             150                                
PROFAMCHA141002084422084430000008D-JR Live Action ID - SCWW - Now (Mar2014)                                                                                  150                                
PROFAMCHA141002084430084445000015D-JR - Seasonal ID - Fall (Sep 1-Nov 30)                                                                                    150                                
PGRFAMCHA141002084445090847002402Disney Sheriff Callie's Wild West                 EP: 16                                                               6068605ACC                              
PROFAMCHA141002090847090855000008D-JR Live Action ID - DocMcStuffins - NEW Coming U                                                                          150                                
PROFAMCHA141002090855090920000025D-JR Live Action ID - #47 Making Breakfast (May201                                                                          150                                
PROFAMCHA141002090920091005000045D-JR Promo - Sheriff Callie - Weekends @ 1130 on D                                                                          150                                
PROFAMCHA141002091005091030000025D-JR Live Action ID - #65 Putting Toys Away (Sept2                                                                          150                                
PROFAMCHA141002091030091038000008D-JR Live Action ID - DocMcStuffins - NEW Now (Oct                                                                          150                                
PROFAMCHA141002091038091048000010D-JR - Hero Flex ID - Purple (:06-:10) (Feb2014)                                                                            150                                
PGRFAMCHA141002091048093451002403Disney Doc McStuffins                             EP: 23                                                               6028605ACC                              
PROFAMCHA141002093451093459000008D-JR Live Action ID - Henry Hugglemonster - NEW Co                                                                          150                                
PROFAMCHA141002093459093524000025D-JR Live Action ID - #63 Wash Face (Sep2013)                                                                               150                                
PROFAMCHA141002093524093624000100D-JR OOB - Doc School of Medicine Week - Mon Sept                                                                           150                                
PROFAMCHA141002093624093649000025D-JR Live Action ID - #51 Chores Board (Sep2013)                                                                            150                                
