SO FAMCHA010701043000043011000011Sign On (oct 1)                                                                                                         02                                     
PROFAMCHA010701043011043019000008CC Is Brought To You By - Ian                                                                                           02  150                                
PGRFAMCHA010701043019045419002400Hello Mrs. Cherrywinkle                           A Busy Day                                                    B18874A1025607ACC                              
PROFAMCHA010701045419045427000008CC Was Brought To You By - Ian                                                                                          02  150                                
ID FAMCHA010701045427045432000005Generic ID - Couch 2                                                                                                    02  150                                
PRCFAMCHA010701045432045439000007Book of Pooh Bumper - Gang - Weekday Mornings                                                                          102  150                                
ID FAMCHA010701045439045500000021Prime time open count down                                                                                              02  150                                
PROFAMCHA010701045500045508000008CC Is Brought To You By - Lark                                                                                          02  150                                
PGRFAMCHA010701045508051921002413Busy World Of Richard Scarry; The                 Captain Willy And The Pirates/Flying Noodles                  P19582 1025607ECC                              
PROFAMCHA010701051921051929000008CC Was Brought To You By - Lark                                                                                         02  150                                
ID FAMCHA010701051929051939000010Generic ID - Family w/dog                                                                                               02  150                                
ID FAMCHA010701051939052000000021Prime time open count down                                                                                              06  150                                
PROFAMCHA010701052000052008000008CC Is Brought To You By - Ian                                                                                           06  150                                
PGRFAMCHA010701052008054428002420Billy The Cat                                     Billy Becomes A Cat                                           B27637A1025607ECC                              
PROFAMCHA010701054428054436000008CC Was Brought To You By - Ian                                                                                          06  150                                
ID FAMCHA010701054436054441000005Generic ID - Marbles                                                                                                    02  150                                
PROFAMCHA010701054441054450000009House of Mouse Bumpers - No TV - Today @ 4:30pm                                                                         02  150                                
ID FAMCHA010701054450054500000010Prime time open top of hour                                                                                             02  150                                
PROFAMCHA010701054500054508000008CC Is Brought To You By - Lark                                                                                          06  150                                
PGRFAMCHA010701054508061128002620Little Lulu Show; The                             Friends & Enemies/The Beauty Contest/Rich Little P            P22335A1025607ECC                              
PROFAMCHA010701061128061136000008CC Was Brought To You By - Lark                                                                                         06  150                                
ID FAMCHA010701061136061141000005Generic ID - soccer                                                                                                     02  150                                
PROFAMCHA010701061141061149000008CC Is Brought To You By - Ian                                                                                           06  150                                
PGRFAMCHA010701061149063549002400Big Garage; The                                   Boo! Who?                                                     P21458 1025607ECC                              
PROFAMCHA010701063549063557000008CC Was Brought To You By - Ian                                                                                          06  150                                
ID FAMCHA010701063557063602000005Generic ID - Couch 1                                                                                                    02  150                                
PGRFAMCHA010701063602065835002233Madeline                                          Madeline and the Missing Clown                                       6028607E                                
ID FAMCHA010701065835065840000005Generic ID - Couch 2                                                                                                    06  150                                
PROFAMCHA010701065840065910000030House of Mouse - Today @ 4:30pm                                                                                         02  150                                
PROFAMCHA010701065910065940000030Your Big Break - This Morning                                                                                           02  150                                
PRCFAMCHA010701065940065950000010Morning Block menu background (flex time)                                                                               02  150                                
ID FAMCHA010701065950070000000010Magic of Disney - V2(sky) - TEEN FEMALE                                                                                 02  150                                
PROFAMCHA010701070000070008000008CC Is Brought To You By - Lark                                                                                          06  150                                
PGRFAMCHA010701070008072248002240Adventures of the Gummi Bears; The                A Gummi Is A Gummi's Best Friend/When You Wish                       6028607ECC                              
PROFAMCHA010701072248072256000008CC Was Brought To You By - Lark                                                                                         06  150                                
ID FAMCHA010701072256072306000010Generic ID - Family w/dog                                                                                               06  150                                
PROFAMCHA010701072306072336000030Brave Little Toaster (JUL01) - Today @ 1:30pm                                                                           02  150                                
PRCFAMCHA010701072336072406000030Mentors - KISS - This Morning                                                                                          102  150                                
PRCFAMCHA010701072406072438000032Funshine 2001 - GENERIC TOUR SPOT #1                                                                                   102 5150                                
PRCFAMCHA010701072438072510000032Funshine 2001 - Spot #08 - JUNE 28 TO JULY 01                                                                          102 5150                                
INTFAMCHA010701072510072825000315Art Attack - Sailing Ship                                                                                              60286120                                
PROFAMCHA010701072825072849000024ALF - Today @ 9:51am                                                                                                    02  150                                
PROFAMCHA010701072849072940000051SP - Smart House - Tomorrow @ 12pm                                                                                      02  150                                
PRCFAMCHA010701072940072950000010Morning Block menu background (flex time)                                                                               06  150                                
ID FAMCHA010701072950073000000010Magic of Disney - V2(sky) - TEEN MALE                                                                                   02  150                                
PROFAMCHA010701073000073008000008CC Is Brought To You By - Ian                                                                                           06  150                                
PGRFAMCHA010701073008075252002244Darkwing Duck                                     Heavy Mental                                                         6028607ECC                              
PROFAMCHA010701075252075300000008CC Was Brought To You By - Ian                                                                                          06  150                                
ID FAMCHA010701075300075305000005Generic ID - Fingerpaint                                                                                                02  150                                
PROFAMCHA010701075305075356000051SP - Smart House - Tomorrow @ 12pm                                                                                      06  150                                
PROFAMCHA010701075356075412000016ALF (Description) - Today @ 9:51am                                                                                      02  150                                
PROFAMCHA010701075412075423000011Kidsummer - Book of Pooh                                                                                              A102 8150                                
INTFAMCHA010701075423075825000402MV Disney - A Whole New World (oct)                                                                                    60288120                                
PROFAMCHA010701075825075839000014ALF (Dreams) - Today @ 9:51am                                                                                           02  150                                
PROFAMCHA010701075839075909000030Jersey (MARCH2001) - Today @ 10:16am                                                                                    02  150                                
PROFAMCHA010701075909075939000030Brave Little Toaster (JUL01) - Today @ 1:30pm                                                                           06  150                                
ID FAMCHA010701075939080000000021Prime time open count down                                                                                              06  150                                
PROFAMCHA010701080000080008000008CC Is Brought To You By - Lark                                                                                          06  150                                
PGRFAMCHA010701080008082221002213Sherlock Holmes In The 22nd Century               1-010                                                                6028607ECC                              
PROFAMCHA010701082221082229000008CC Was Brought To You By - Lark                                                                                         06  150                                
ID FAMCHA010701082229082239000010Generic ID - Hula Hoop                                                                                                  02  150                                
PROFAMCHA010701082239082309000030Brave Little Toaster (JUL01) - Today @ 1:30pm                                                                           06  150                                
PRCFAMCHA010701082309082339000030Mentors - KISS - This Morning                                                                                          106  150                                
PRCFAMCHA010701082339082411000032Funshine 2001 - GENERIC TOUR SPOT #1                                                                                   106 5150                                
PRCFAMCHA010701082411082443000032Funshine 2001 - Spot #08 - JUNE 28 TO JULY 01                                                                          106 5150                                
INTFAMCHA010701082443082817000334MV Disney - Forever and ever (preschool)                                                                               60288120                                
ID FAMCHA010701082817082829000012Web Rant - I Was Happy                                                                                                  02  150                                
PROFAMCHA010701082829082859000030Your Big Break - This Morning                                                                                           06  150                                
PROFAMCHA010701082859082950000051SP - Smart House - Tomorrow @ 12pm                                                                                      06  150                                
ID FAMCHA010701082950083000000010Magic of Disney - V3(water) - TEEN FEMALE                                                                               02  150                                
PROFAMCHA010701083000083008000008CC Is Brought To You By - Ian                                                                                           06  150                                
PGRFAMCHA010701083008085408002400Z Games                                           1-011                                                                60286110CC                              
PROFAMCHA010701085408085417000009CC Was Brought To You By - Ian                                                                                          02  150                                
ID FAMCHA010701085417085424000007Generic ID - Whisper                                                                                                    02  150                                
PROFAMCHA010701085424085515000051SP - Smart House - Tomorrow @ 12pm                                                                                      06  150                                
PROFAMCHA010701085515085539000024ALF - Today @ 9:51am                                                                                                    06  150                                
PROFAMCHA010701085539085609000030Jersey (MARCH2001) - Today @ 10:16am                                                                                    06  150                                
PROFAMCHA010701085609085639000030Brave Little Toaster (JUL01) - Today @ 1:30pm                                                                           06  150                                
ID FAMCHA010701085639085700000021Prime time open count down                                                                                              06  150                                
PROFAMCHA010701085700085708000008CC Is Brought To You By - Lark                                                                                          06  150                                
PGRFAMCHA010701085708092335002627Bug Juice                                         Adventure Bound:  Bushwacked                                         6028607ACC                              
PROFAMCHA010701092335092343000008CC Was Brought To You By - Lark                                                                                         06  150                                
ID FAMCHA010701092343092353000010Generic ID - Pink inner tube                                                                                            02  150                                
PRCFAMCHA010701092353092423000030Mentors - KISS - Coming Up                                                                                             102  150                                
PROFAMCHA010701092423092439000016ALF (Description) - Today @ 9:51am                                                                                      06  150                                
ID FAMCHA010701092439092500000021Prime time open count down                                                                                              06  150                                
PROFAMCHA010701092500092508000008CC Is Brought To You By - Ian                                                                                           06  150                                
PGRFAMCHA010701092508094820002312Mentors                                           A Transient, Shining Trouble                                  B29087 1025607ACC                              
PROFAMCHA010701094820094828000008CC Was Brought To You By - Ian                                                                                          06  150                                
ID FAMCHA010701094828094838000010Generic ID - Ring around the rosie                                                                                      02  150                                
PROFAMCHA010701094838094929000051SP - Smart House - Tomorrow @ 12pm                                                                                      06  150                                
PROFAMCHA010701094929094959000030House of Mouse - Today @ 4:30pm                                                                                         06  150                                
PROFAMCHA010701094959095029000030Brave Little Toaster (JUL01) - Today @ 1:30pm                                                                           06  150                                
PRCFAMCHA010701095029095039000010Morning Block menu background (flex time)                                                                               06  150                                
ID FAMCHA010701095039095100000021Prime time open count down                                                                                              06  150                                
PROFAMCHA010701095100095108000008CC Is Brought To You By - Lark                                                                                          06  150                                
PGRFAMCHA010701095108101237002129ALF                                               Baby, You Can Drive My Car                                          A2028807BCC                              
PROFAMCHA010701101237101245000008CC Was Brought To You By - Lark                                                                                         06  150                                
ID FAMCHA010701101245101255000010Generic ID - soccer                                                                                                     02  150                                
PROFAMCHA010701101255101325000030Brave Little Toaster (JUL01) - Today @ 1:30pm                                                                           06  150                                
PROFAMCHA010701101325101355000030Jersey (MARCH2001) - Coming Up                                                                                          02  150                                
PRCFAMCHA010701101355101427000032Funshine 2001 - GENERIC TOUR SPOT #1                                                                                   106 5150                                
PRCFAMCHA010701101427101459000032Funshine 2001 - Spot #08 - JUNE 28 TO JULY 01                                                                          106 5150                                
PROFAMCHA010701101459101550000051SP - Smart House - Tomorrow @ 12pm                                                                                      06  150                                
ID FAMCHA010701101550101600000010Magic of Disney - V3(water) - TEEN MALE                                                                                 02  150                                
PROFAMCHA010701101600101608000008CC Is Brought To You By - Ian                                                                                           06  150                                
PGRFAMCHA010701101608103839002231Jersey; The                                       The Girlfriend                                                       6028607ACC                              
PROFAMCHA010701103839103847000008CC Was Brought To You By - Ian                                                                                          06  150                                
ID FAMCHA010701103847103852000005Generic ID - soccer                                                                                                     06  150                                
PROFAMCHA010701103852103943000051SP - Smart House - Tomorrow @ 12pm                                                                                      06  150                                
PRCFAMCHA010701103943104013000030Famous Jett Jackson (NEW) - Coming Up                                                                                  102  150                                
PROFAMCHA010701104013104058000045PB&J Otter (MARCH2001) - This Afternoon @ 5pm                                                                          202  150                                
PROFAMCHA010701104058104128000030Brave Little Toaster (JUL01) - Today @ 1:30pm                                                                           06  150                                
PRCFAMCHA010701104128104139000011Morning Block menu background (flex time)                                                                               06  150                                
ID FAMCHA010701104139104200000021Prime time open count down                                                                                              06  150                                
PROFAMCHA010701104200104208000008CC Is Brought To You By - Lark                                                                                          06  150                                
PGRFAMCHA010701104208110638002430Famous Jett Jackson; The                          Something In The Air                                                 1025607ACC                              
PROFAMCHA010701110638110646000008CC Was Brought To You By - Lark                                                                                         06  150                                
ID FAMCHA010701110646110653000007Generic ID - Whisper                                                                                                    06  150                                
PROFAMCHA010701110653110723000030Brave Little Toaster (JUL01) - Today @ 1:30pm                                                                           06  150                                
PROFAMCHA010701110723110753000030Your Big Break - Coming Up                                                                                              02  150                                
PROFAMCHA010701110753110838000045PB&J Otter (MARCH2001) - This Afternoon @ 5pm                                                                          206  150                                
PROFAMCHA010701110838110929000051SP - Smart House - Tomorrow @ 12pm                                                                                      06  150                                
PRCFAMCHA010701110929110939000010Morning Block menu background (flex time)                                                                               06  150                                
ID FAMCHA010701110939111000000021Prime time open count down                                                                                              06  150                                
PROFAMCHA010701111000111008000008CC Is Brought To You By - Lark                                                                                          06  150                                
PGRFAMCHA010701111008115307004259Your Big Break                                    1-023                                                                60288100CC                              
PROFAMCHA010701115307115315000008CC Was Brought To You By - Lark                                                                                         06  150                                
ID FAMCHA010701115315115325000010Generic ID - Bubbles                                                                                                    02  150                                
PROFAMCHA010701115325115346000021Buzz Lightyear (DISNEY'S ONE TOO) - Weekdays @ 5:3                                                                      02  150                                
PROFAMCHA010701115346115437000051SP - Smart House - Coming Up                                                                                            02  150                                
PRCFAMCHA010701115437115507000030Funshine 2001 - GENERIC TOUR SPOT #2                                                                                   102 5150                                
PRCFAMCHA010701115507115539000032Funshine 2001 - Spot #08 - JUNE 28 TO JULY 01                                                                          106 5150                                
INTFAMCHA010701115539115830000251Art Attack - Zebra                                                                                                     60286120                                
PROFAMCHA010701115830115900000030House of Mouse - Today @ 4:30pm                                                                                         06  150                                
PROFAMCHA010701115900115930000030Brave Little Toaster (JUL01) - Today @ 1:30pm                                                                           06  150                                
PRCFAMCHA010701115930115939000009Morning Block menu background (flex time)                                                                               06  150                                
ID FAMCHA010701115939120000000021Move open family size movie                                                                                             02  150                                
PROFAMCHA010701120000120008000008Rating - G - Ian                                                                                                        02  150                                
ID FAMCHA010701120008120018000010Magic of Disney - V4 - TEEN FEMALE                                                                                      02  150                                
PGRFAMCHA010701120018132210012152Smart House                                                                                                           A6028807C                                
ID FAMCHA010701132210132215000005Generic ID - Bubbles                                                                                                    02  150                                
PROFAMCHA010701132215132245000030House of Mouse - Today @ 4:30pm                                                                                         06  150                                
PROFAMCHA010701132245132315000030Brave Little Toaster (JUL01) - Coming Up                                                                                02  150                                
PROFAMCHA010701132315132345000030House of Mouse - Today @ 4:30pm                                                                                         06  150                                
INTFAMCHA010701132345132835000450MV Disney - Circle of Life (oct 1)                                                                                     60288120                                
PRCFAMCHA010701132835132843000008Franklin Bumper - Slide - Tonight @ 6pm                                                                                102  150                                
PROFAMCHA010701132843132928000045PB&J Otter (MARCH2001) - This Afternoon @ 5pm                                                                          206  150                                
PROFAMCHA010701132928132939000011Kidsummer - Excite.ca                                                                                                 A102 8150                                
ID FAMCHA010701132939133000000021Move open family size movie                                                                                             06  150                                
PROFAMCHA010701133000133008000008Rating - G - Lark                                                                                                       02  150                                
PROFAMCHA010701133008133016000008CC Is Brought To You By - Ian                                                                                           06  150                                
PGRFAMCHA010701133016150029013013Brave Little Toaster; The                                                                                             A6028807ECC                              
PROFAMCHA010701150029150037000008CC Was Brought To You By - Ian                                                                                          06  150                                
ID FAMCHA010701150037150042000005Generic ID - Fingerpaint                                                                                                06  150                                
PROFAMCHA010701150042150050000008CC Is Brought To You By - Lark                                                                                          06  150                                
PGRFAMCHA010701150050152330002240Disney's Aladdin                                  Opposites Detract                                                    6028607ECC                              
PROFAMCHA010701152330152338000008CC Was Brought To You By - Lark                                                                                         06  150                                
ID FAMCHA010701152338152348000010Generic ID - confetti                                                                                                   02  150                                
PROFAMCHA010701152348152418000030Big Green - Saturday @ 1:45pm                                                                                           02  150                                
PROFAMCHA010701152418152503000045PB&J Otter (MARCH2001) - This Afternoon @ 5pm                                                                          206  150                                
PRCFAMCHA010701152503152533000030Funshine 2001 - GENERIC TOUR SPOT #2                                                                                   106 5150                                
PRCFAMCHA010701152533152605000032Funshine 2001 - Spot #08 - JUNE 28 TO JULY 01                                                                          106 5150                                
INTFAMCHA010701152605152840000235Art Attack - Car Bike                                                                                                  60286120                                
PROFAMCHA010701152840152910000030New Adventures of WTP (MARCH2001) - Today @ 5:30pm                                                                      02  150                                
PROFAMCHA010701152910152940000030Movie Image Promo - Road of Life                                                                                        02  150                                
PRCFAMCHA010701152940152950000010Morning Block menu background (flex time)                                                                               06  150                                
ID FAMCHA010701152950153000000010Magic of Disney - V4 - TEEN MALE                                                                                        02  150                                
PROFAMCHA010701153000153008000008CC Is Brought To You By - Lark                                                                                          06  150                                
PGRFAMCHA010701153008155253002245Lion King's Timon & Pumbaa; The                   Congo On Like This/Shake Your Djibouti                               6028607ECC                              
PROFAMCHA010701155253155301000008CC Was Brought To You By - Lark                                                                                         06  150                                
ID FAMCHA010701155301155306000005Generic ID - Couch 1                                                                                                    06  150                                
PROFAMCHA010701155306155336000030Movie Image Promo - Road of Life                                                                                        06  150                                
PRCFAMCHA010701155336155412000036Goof Troop (MARCH2001) - Coming Up                                                                                      02  150                                
PROFAMCHA010701155412155442000030New Adventures of WTP (MARCH2001) - Today @ 5:30pm                                                                      06  150                                
PROFAMCHA010701155442155453000011Kidsummer - Fujifilm                                                                                                  A102 8150                                
INTFAMCHA010701155453155842000349MV Disney - Dancing In The Street                                                                                      60288120                                
PROFAMCHA010701155842155850000008MV Web Throw - family.ca                                                                                               602 5150                                
PRCFAMCHA010701155850155920000030Franklin (MARCH2001) - Tonight @ 6pm                                                                                   102  150                                
PROFAMCHA010701155920155950000030Big Green - Saturday @ 1:45pm                                                                                           06  150                                
ID FAMCHA010701155950160000000010Magic of Disney - V2(sky) - TEEN FEMALE                                                                                 06  150                                
PROFAMCHA010701160000160008000008CC Is Brought To You By - Ian                                                                                           06  150                                
PGRFAMCHA010701160008162249002241Goof Troop                                        Maximum Insecurity                                                   6028607ECC                              
PROFAMCHA010701162249162257000008CC Was Brought To You By - Ian                                                                                          06  150                                
ID FAMCHA010701162257162302000005Generic ID - Couch 2                                                                                                    06  150                                
PROFAMCHA010701162302162332000030Big Green - Saturday @ 1:45pm                                                                                           06  150                                
PROFAMCHA010701162332162402000030House of Mouse - Coming Up                                                                                              02  150                                
PRCFAMCHA010701162402162425000023Franklin (MARCH2001) - Tonight @ 6:00pm                                                                                102  150                                
PRCFAMCHA010701162425162455000030Funshine 2001 - GENERIC TOUR SPOT #2                                                                                   106 5150                                
PRCFAMCHA010701162455162527000032Funshine 2001 - Spot #08 - JUNE 28 TO JULY 01                                                                          106 5150                                
INTFAMCHA010701162527162823000256MV Disney - Strangers Like Me (oct)                                                                                    60288120                                
PROFAMCHA010701162823162836000013Buzz Lightyear (DISNEY'S ONE TOO) - Weekdays @ 5:3                                                                      02  150                                
PROFAMCHA010701162836162920000044Little Lulu Show - HOMEWORK - Tonight @ 6:30pm                                                                          02  150                                
PROFAMCHA010701162920162950000030Movie Image Promo - Road of Life                                                                                        06  150                                
ID FAMCHA010701162950163000000010Magic of Disney - V2(sky) - TEEN MALE                                                                                   06  150                                
PROFAMCHA010701163000163008000008CC Is Brought To You By - Lark                                                                                          06  150                                
PGRFAMCHA010701163008165251002243Disney's House Of Mouse                           Unplugged Club                                                       6028607ECC                              
PROFAMCHA010701165251165259000008CC Was Brought To You By - Lark                                                                                         06  150                                
ID FAMCHA010701165259165309000010Generic ID - Family w/dog                                                                                               06  150                                
PROFAMCHA010701165309165339000030Movie Image Promo - Road of Life                                                                                        06  150                                
PROFAMCHA010701165339165424000045PB&J Otter (MARCH2001) - Coming Up                                                                                     202  150                                
PROFAMCHA010701165424165454000030New Adventures of WTP (MARCH2001) - Today @ 5:30pm                                                                      06  150                                
PROFAMCHA010701165454165505000011Kidsummer - Rogers Video                                                                                              A102 8150                                
INTFAMCHA010701165505165829000324Art Attack - Baby Chicks                                                                                               60286120                                
PRCFAMCHA010701165829165859000030Franklin (MARCH2001) - Tonight @ 6pm                                                                                   106  150                                
PROFAMCHA010701165859165929000030Big Green - Saturday @ 1:45pm                                                                                           06  150                                
PRCFAMCHA010701165929165939000010Morning Block menu background (flex time)                                                                               06  150                                
ID FAMCHA010701165939170000000021Prime time open count down                                                                                              06  150                                
PROFAMCHA010701170000170008000008CC Is Brought To You By - Ian                                                                                           06  150                                
PGRFAMCHA010701170008172229002221PB&J Otter                                        Go Away Gorilla/Mama For A Day                                      A6028607ECC                              
PROFAMCHA010701172229172237000008CC Was Brought To You By - Ian                                                                                          06  150                                
ID FAMCHA010701172237172242000005Generic ID - Fingerpaint                                                                                                06  150                                
PROFAMCHA010701172242172312000030Big Green - Saturday @ 1:45pm                                                                                           06  150                                
PROFAMCHA010701172312172342000030New Adventures of WTP (MARCH2001) - Coming Up                                                                           02  150                                
PRCFAMCHA010701172342172417000035Little Lulu (MARCH2001) - Tonight @ 6:30pm                                                                             102  150                                
INTFAMCHA010701172417172840000423Art Attack - Swimmer                                                                                                   60286120                                
PRCFAMCHA010701172840172910000030Hoze Houndz - Tonight @ 7pm                                                                                             02  150                                
PROFAMCHA010701172910172940000030Movie Image Promo - Road of Life                                                                                        06  150                                
PRCFAMCHA010701172940172950000010Morning Block menu background (flex time)                                                                               06  150                                
ID FAMCHA010701172950173000000010Magic of Disney - V3(water) - TEEN FEMALE                                                                               06  150                                
PROFAMCHA010701173000173008000008CC Is Brought To You By - Lark                                                                                          06  150                                
PGRFAMCHA010701173008175317002309New Adventures of Winnie the Pooh; The            Eeyore's Tail/Three Little Piglets                                   6028607ECC                              
PROFAMCHA010701175317175325000008CC Was Brought To You By - Lark                                                                                         06  150                                
ID FAMCHA010701175325175335000010Generic ID - Hula Hoop                                                                                                  06  150                                
PROFAMCHA010701175335175405000030Movie Image Promo - Road of Life                                                                                        06  150                                
PRCFAMCHA010701175405175435000030Franklin (MARCH2001) - Coming Up                                                                                       102  150                                
PRCFAMCHA010701175435175505000030Hoze Houndz - Tonight @ 7pm                                                                                             06  150                                
INTFAMCHA010701175505175815000310Art Attack - Digger                                                                                                    60286120                                
PROFAMCHA010701175815175859000044Little Lulu Show - HOMEWORK - Tonight @ 6:30pm                                                                          06  150                                
PROFAMCHA010701175859175929000030Big Green - Saturday @ 1:45pm                                                                                           06  150                                
PRCFAMCHA010701175929175939000010Morning Block menu background (flex time)                                                                               06  150                                
ID FAMCHA010701175939180000000021Prime time open count down                                                                                              06  150                                
PROFAMCHA010701180000180008000008CC Is Brought To You By - Ian                                                                                           06  150                                
PGRFAMCHA010701180008182301002253Franklin                                          Franklin the Copycat/Big Brother Franklin                           A1025607ECC                              
PROFAMCHA010701182301182309000008CC Was Brought To You By - Ian                                                                                          06  150                                
ID FAMCHA010701182309182314000005Generic ID - Marbles                                                                                                    06  150                                
PROFAMCHA010701182314182344000030Big Green - Saturday @ 1:45pm                                                                                           06  150                                
PRCFAMCHA010701182344182419000035Little Lulu (MARCH2001) - Coming Up                                                                                    102  150                                
PRCFAMCHA010701182419182449000030Hoze Houndz - Tonight @ 7pm                                                                                             06  150                                
INTFAMCHA010701182449182829000340Art Attack - Walter                                                                                                    60286120                                
PROFAMCHA010701182829182859000030Pepper Ann (MARCH2001) - Today @ 4:30pm                                                                                 02  150                                
PROFAMCHA010701182859182929000030Movie Image Promo - Road of Life                                                                                        06  150                                
PRCFAMCHA010701182929182939000010Morning Block menu background (flex time)                                                                               06  150                                
ID FAMCHA010701182939183000000021Prime time open count down                                                                                              06  150                                
PROFAMCHA010701183000183008000008CC Is Brought To You By - Lark                                                                                          06  150                                
PGRFAMCHA010701183008185628002620Little Lulu Show; The                             Business Girl/The Pet Duck/Lulu's Umbrella Service            P22334A1025607ECC                              
PROFAMCHA010701185628185636000008CC Was Brought To You By - Lark                                                                                         06  150                                
ID FAMCHA010701185636185646000010Generic ID - Pink inner tube                                                                                            06  150                                
PROFAMCHA010701185646185716000030Movie Image Promo - Road of Life                                                                                        06  150                                
PRCFAMCHA010701185716185746000030Hoze Houndz - Coming Up                                                                                                 02  150                                
PROFAMCHA010701185746185816000030Pepper Ann (MARCH2001) - Weekdays @ 4:30pm                                                                              02  150                                
PROFAMCHA010701185816185829000013Buzz Lightyear (DISNEY'S ONE TOO) - Weekdays @ 5:3                                                                      06  150                                
PRCFAMCHA010701185829185859000030Famous Jett Jackson (NEW) - Weeknights @ 7pm                                                                           102  150                                
PROFAMCHA010701185859185929000030Big Green - Saturday @ 1:45pm                                                                                           06  150                                
PRCFAMCHA010701185929185939000010Morning Block menu background (flex time)                                                                               06  150                                
ID FAMCHA010701185939190000000021Prime time open count down                                                                                              06  150                                
PROFAMCHA010701190000190008000008CC Is Brought To You By - Ian                                                                                           06  150                                
PGRFAMCHA010701190008192242002234Hoze Houndz                                       Hound Alone/Gigantica                                         B17128 1025607ECC                              
PROFAMCHA010701192242192250000008CC Was Brought To You By - Ian                                                                                          06  150                                
ID FAMCHA010701192250192300000010Generic ID - Ring around the rosie                                                                                      06  150                                
PROFAMCHA010701192300192330000030Big Green - Saturday @ 1:45pm                                                                                           06  150                                
PROFAMCHA010701192330192400000030Jersey (MARCH2001) - Coming Up                                                                                          06  150                                
PROFAMCHA010701192400192437000037So Weird (EARTH101) - Tonight @ 8pm                                                                                     02  150                                
PROFAMCHA010701192437192448000011Kidsummer - Toronto Blue Jays                                                                                         A102 8150                                
INTFAMCHA010701192448192618000130Klootz - Medecin 04 (post 7PM)                                                                                        A10258120                                
PRCFAMCHA010701192618192648000030In A Heartbeat (MARCH2001) - Tonight @ 8:30pm                                                                          102  150                                
INTFAMCHA010701192648192740000052Monkey Minutes - Jaws (vers 1)                                                                                        A20288120                                
INTFAMCHA010701192740192910000130Klootz - Olympics 03                                                                                                  A10258120                                
PROFAMCHA010701192910192940000030Movie Image Promo - Celebration of Family                                                                               02  150                                
PRCFAMCHA010701192940192950000010Morning Block menu background (flex time)                                                                               06  150                                
ID FAMCHA010701192950193000000010Magic of Disney - V3(water) - ADULT FEMALE                                                                              02  150                                
PROFAMCHA010701193000193008000008CC Is Brought To You By - Lark                                                                                          06  150                                
PGRFAMCHA010701193008195238002230Jersey; The                                       Trust Me                                                             6028607ACC                              
PROFAMCHA010701195238195246000008CC Was Brought To You By - Lark                                                                                         06  150                                
ID FAMCHA010701195246195256000010Generic ID - soccer                                                                                                     06  150                                
PROFAMCHA010701195256195326000030Movie Image Promo - Celebration of Family                                                                               06  150                                
PROFAMCHA010701195326195403000037So Weird (EARTH101) - Coming Up                                                                                         02  150                                
PRCFAMCHA010701195403195432000029In A Heartbeat (MARCH2001) - Tonight @ 8:30pm                                                                          102  150                                
INTFAMCHA010701195432195536000104Jack and Marcel: Ep.039 "Corks"                                                                                       A40288120                                
INTFAMCHA010701195536195719000143MV Disney - Siamese Cat Song (oct)                                                                                     60288120                                
INTFAMCHA010701195719195823000104Jack and Marcel: Ep.075 "Surfin Safari"                                                                               A40288120                                
PROFAMCHA010701195823195838000015ALF (Lucky) - Weeknights @ 7:30pm                                                                                       02  150                                
PRCFAMCHA010701195838195920000042Gargoyles (MARCH2001) - Weeknights @ 6:30pm                                                                             02  150                                
PROFAMCHA010701195920195950000030Big Green - Saturday @ 1:45pm                                                                                           06  150                                
ID FAMCHA010701195950200000000010Magic of Disney - V2(sky) - ADULT MALE                                                                                  02  150                                
PGRFAMCHA010701200000202404002404So Weird                                          Singularity                                                          6028807A                                
ID FAMCHA010701202404202409000005Generic ID - soccer                                                                                                     06  150                                
PROFAMCHA010701202409202439000030Big Green - Saturday @ 1:45pm                                                                                           06  150                                
PRCFAMCHA010701202439202509000030In A Heartbeat (MARCH2001) - Coming Up                                                                                 102  150                                
PRCFAMCHA010701202509202540000031Are You Afraid...Dark? (MARCH2001) - Tonight @ 12:                                                                      02  150                                
INTFAMCHA010701202540202829000249MV Disney - My Funny Friend & Me                                                                                       60288120                                
PROFAMCHA010701202829202857000028Honey (MARCH2001) - Weeknights @ 8pm                                                                                    02  150                                
ID FAMCHA010701202857202909000012Web Rant - They Laughed                                                                                                 02  150                                
PROFAMCHA010701202909202939000030Movie Image Promo - Celebration of Family                                                                               06  150                                
ID FAMCHA010701202939203000000021Prime time open count down                                                                                              06  150                                
PROFAMCHA010701203000203008000008CC Is Brought To You By - Ian                                                                                           06  150                                
PGRFAMCHA010701203008205244002236In A Heartbeat                                    Assume Nothing - Pt.2                                               A1025807ACC                              
PROFAMCHA010701205244205252000008CC Was Brought To You By - Ian                                                                                          06  150                                
ID FAMCHA010701205252205259000007Generic ID - Whisper                                                                                                    06  150                                
PROFAMCHA010701205259205329000030Movie Image Promo - Celebration of Family                                                                               06  150                                
PROFAMCHA010701205329205339000010MV FAMJAM - Teaser (Generic)                                                                                           602 5150                                
PROFAMCHA010701205339205407000028Honey (MARCH2001) - Weeknights @ 8pm                                                                                    06  150                                
INTFAMCHA010701205407205802000355MV - More Than That                                                                                                   A20288120                                
PROFAMCHA010701205802205812000010MV Web Throw - music@family.ca                                                                                         602 5150                                
PRCFAMCHA010701205812205854000042Gargoyles (MARCH2001) - Weeknights @ 6:30pm                                                                             06  150                                
PROFAMCHA010701205854205909000015ALF (Lucky) - Weeknights @ 7:30pm                                                                                       06  150                                
PROFAMCHA010701205909205939000030Big Green - Saturday @ 1:45pm                                                                                           06  150                                
ID FAMCHA010701205939210000000021Move open family size movie                                                                                             06  150                                
PROFAMCHA010701210000210008000008Rating - AA - Lark                                                                                                      02  150                                
PGRFAMCHA010701210008231928021920Star Is Born; A                                                                                                       C2028807D                                
ID FAMCHA010701231928231938000010Generic ID - Bubbles                                                                                                    06  150                                
PROFAMCHA010701231938232008000030Big Green - Saturday @ 1:45pm                                                                                           06  150                                
PGRFAMCHA010701232008232837000829Mpt-Tomorrow We Diet                                                                                                   60288150                                
PROFAMCHA010701232837232845000008MV Web Throw - family.ca                                                                                               606 5150                                
PROFAMCHA010701232845232915000030Movie Image Promo - Celebration of Family                                                                               06  150                                
PRCFAMCHA010701232915232946000031Are You Afraid...Dark? (MARCH2001) - Tonight @ 12:                                                                      06  150                                
ID FAMCHA010701232946232956000010Magic of Disney - V3(water) - ADULT FEMALE                                                                              06  150                                
PROFAMCHA010701232956233004000008CC Is Brought To You By - Ian                                                                                           06  150                                
PGRFAMCHA010701233004235234002230Movie Surfers Go Inside Disney's Dinosaur                                                                             A60288110CC                              
PROFAMCHA010701235234235242000008CC Was Brought To You By - Ian                                                                                          06  150                                
ID FAMCHA010701235242235247000005Generic ID - Bubbles                                                                                                    06  150                                
PROFAMCHA010701235247235317000030Movie Image Promo - Celebration of Family                                                                               06  150                                
PRCFAMCHA010701235317235348000031Are You Afraid...Dark? (MARCH2001) - Tonight @ 12:                                                                      06  150                                
INTFAMCHA010701235348235825000437MV Disney - Go the distance (oct 1)                                                                                    60288120                                
PRCFAMCHA010701235825235907000042Gargoyles (MARCH2001) - Weeknights @ 6:30pm                                                                             06  150                                
PROFAMCHA010701235907235937000030Big Green - Saturday @ 1:45pm                                                                                           06  150                                
PRCFAMCHA010701235937235950000013Morning Block menu background (flex time)                                                                               06  150                                
ID FAMCHA010701235950000000000010Magic of Disney - V3(water) - ADULT MALE                                                                                02  150                                
PROFAMCHA010701000000000008000008CC Is Brought To You By - Ian                                                                                           06  150                                
PGRFAMCHA010701000008002319002311Disney Presents Bill Nye the Science Guy          Bones and Muscles                                                    60286110CC                              
PROFAMCHA010701002319002327000008CC Was Brought To You By - Ian                                                                                          06  150                                
ID FAMCHA010701002327002342000015Generic ID - confetti                                                                                                   02  150                                
PROFAMCHA010701002342002412000030Big Green - Saturday @ 1:45pm                                                                                           06  150                                
PRCFAMCHA010701002412002443000031Are You Afraid...Dark? (MARCH2001) - Coming Up                                                                          02  150                                
PRCFAMCHA010701002443002525000042Gargoyles (MARCH2001) - Weeknights @ 6:30pm                                                                             06  150                                
INTFAMCHA010701002525002832000307MV Disney - Part of your world (oct 1)                                                                                 60288120                                
PROFAMCHA010701002832002839000007MV Web Throw - family.ca                                                                                               602 5150                                
PRCFAMCHA010701002839002909000030Famous Jett Jackson (NEW) - Weeknights @ 7pm                                                                           106  150                                
PROFAMCHA010701002909002939000030Movie Image Promo - Celebration of Family                                                                               06  150                                
ID FAMCHA010701002939003000000021Prime time open count down                                                                                              06  150                                
PGRFAMCHA010701003000005434002434Are You Afraid Of The Dark?                       The Tale of the Chamelons                                            1025807A                                
ID FAMCHA010701005434005441000007Generic ID - Whisper                                                                                                    06  150                                
PROFAMCHA010701005441005511000030Movie Image Promo - Celebration of Family                                                                               06  150                                
INTFAMCHA010701005511005615000104Jack and Marcel: Ep.095 "Football"                                                                                    A40288120                                
PROFAMCHA010701005615005645000030Big Green - Saturday @ 1:45pm                                                                                           06  150                                
INTFAMCHA010701005645005815000130Klootz - Handymen 01 (post 7pm)                                                                                       A10258120                                
INTFAMCHA010701005815005945000130Klootz - Medecin 03 (post 7PM)                                                                                        A10258120                                
INTFAMCHA010701005945010200000215Disney Moments - Bambi-Bambi Is Born                                                                                   60288120                                
SO FAMCHA010701010200010212000012Sign Off (oct 1)                                                                                                        02                                     
OFFFAMCHA010701010212043000032748                                                                                                                                                               
SO FAMCHA010702043000043011000011Sign On (oct 1)                                                                                                         02                                     
PROFAMCHA010702043011043019000008CC Is Brought To You By - Ian                                                                                           02  150                                
PGRFAMCHA010702043019045419002400Hello Mrs. Cherrywinkle                           Happy Birthday Mrs. C                                         B18875A1025607ACC                              
PROFAMCHA010702045419045427000008CC Was Brought To You By - Ian                                                                                          02  150                                
ID FAMCHA010702045427045432000005Generic ID - Couch 2                                                                                                    02  150                                
PRCFAMCHA010702045432045440000008Franklin Bumper - Slide - This Morning @ 7am                                                                           102  150                                
ID FAMCHA010702045440045500000020Morning block open play pen                                                                                             02  150                                
PROFAMCHA010702045500045508000008CC Is Brought To You By - Lark                                                                                          02  150                                
PGRFAMCHA010702045508051920002412Busy World Of Richard Scarry; The                 Young Vikings/Sneef Save The Queen                            P19583 1025607ECC                              
PROFAMCHA010702051920051928000008CC Was Brought To You By - Lark                                                                                         02  150                                
ID FAMCHA010702051928051933000005Generic ID - Couch 2                                                                                                    06  150                                
PROFAMCHA010702051933051940000007PB&J Bumpers - Kite - This Morning                                                                                      02  150                                
ID FAMCHA010702051940052000000020Morning block open play pen                                                                                             06  150                                
PROFAMCHA010702052000052008000008CC Is Brought To You By - Ian                                                                                           06  150                                
PGRFAMCHA010702052008054425002417Billy The Cat                                     The Cat That Couldn't Meow                                    B27638A1025607ECC                              
PROFAMCHA010702054425054433000008CC Was Brought To You By - Ian                                                                                          06  150                                
ID FAMCHA010702054433054440000007Generic ID - Whisper                                                                                                    02  150                                
ID FAMCHA010702054440054500000020Morning block open play pen                                                                                             06  150                                
PROFAMCHA010702054500054508000008CC Is Brought To You By - Lark                                                                                          06  150                                
PGRFAMCHA010702054508060859002351Little Lulu Show; The                             Hairy Day/Noses Off/Boy Cannon Ball                           B03813A1025607ECC                              
PROFAMCHA010702060859060907000008CC Was Brought To You By - Lark                                                                                         06  150                                
ID FAMCHA010702060907060917000010Generic ID - Pink inner tube                                                                                            02  150                                
PROFAMCHA010702060917060930000013Buzz Lightyear (DISNEY'S ONE TOO) - Today @ 5:30pm                                                                      02  150                                
PRCFAMCHA010702060930060940000010Morning Block menu background (flex time)                                                                               02  150                                
ID FAMCHA010702060940061000000020Morning block open play pen                                                                                             06  150                                
PROFAMCHA010702061000061008000008CC Is Brought To You By - Ian                                                                                           06  150                                
PGRFAMCHA010702061008063408002400Big Garage; The                                   You Better Believe It                                         P21459 1025607ECC                              
PROFAMCHA010702063408063416000008CC Was Brought To You By - Ian                                                                                          06  150                                
ID FAMCHA010702063416063423000007Generic ID - Whisper                                                                                                    06  150                                
PRCFAMCHA010702063423063433000010Elmo's World Bumper - Dance - This Morning                                                                             102  150                                
PROFAMCHA010702063433063440000007PB&J Bumpers - Kite - This Morning                                                                                      06  150                                
PRCFAMCHA010702063440063450000010Morning Block menu background (flex time)                                                                               06  150                                
PRCFAMCHA010702063450063500000010Morning Block menu background (flex time)                                                                               06  150                                
PROFAMCHA010702063500063508000008CC Is Brought To You By - Lark                                                                                          06  150                                
PGRFAMCHA010702063508065928002420Adventures of Pete & Pete; The                    King of the Road                                                    A2028607B                                
PROFAMCHA010702065928065935000007CC Was Brought To You By - Lark                                                                                         06  150                                
ID FAMCHA010702065935065940000005Generic ID - soccer                                                                                                     02  150                                
ID FAMCHA010702065940070000000020Morning block open play pen                                                                                             06  150                                
PROFAMCHA010702070000070008000008CC Is Brought To You By - Ian                                                                                           06  150                                
PGRFAMCHA010702070008072301002253Franklin                                          The Puppet/Stopwatch                                                A1025607ECC                              
PROFAMCHA010702072301072309000008CC Was Brought To You By - Ian                                                                                          06  150                                
ID FAMCHA010702072309072319000010Generic ID - soccer                                                                                                     02  150                                
PRCFAMCHA010702072319072329000010Elmo's World Bumper - Dance - This Morning                                                                             106  150                                
PROFAMCHA010702072329072344000015New Adv of WTP Bumpers - Poem - Coming Up                                                                               02  150                                
INTFAMCHA010702072344072818000434Art Attack - Family By Bonfire                                                                                         60286120                                
PROFAMCHA010702072818072827000009PB&J Bumpers - Open - This Morning                                                                                      02  150                                
INTFAMCHA010702072827072924000057Frankenguy and the Professor - cold                                                                                    60288120                                
PROFAMCHA010702072924072940000016ALF (Description) - Today @ 12pm                                                                                        02  150                                
PRCFAMCHA010702072940072950000010Morning Block menu background (flex time)                                                                               06  150                                
ID FAMCHA010702072950073000000010Magic of Disney - V4 - KID FEMALE                                                                                       02  150                                
PROFAMCHA010702073000073008000008CC Is Brought To You By - Lark                                                                                          06  150                                
PGRFAMCHA010702073008075317002309New Adventures of Winnie the Pooh; The            Prize Piglet/Fast Friends                                            6028607ECC                              
PROFAMCHA010702075317075325000008CC Was Brought To You By - Lark                                                                                         06  150                                
ID FAMCHA010702075325075335000010Generic ID - Hula Hoop                                                                                                  02  150                                
PROFAMCHA010702075335075419000044Little Lulu Show - HOMEWORK - Coming Up                                                                                 02  150                                
PROFAMCHA010702075419075431000012New Adv of WTP Bumpers - Blustery - Today @ 7:30am                                                                      02  150                                
PROFAMCHA010702075431075445000014ALF (Dreams) - Today @ 12pm                                                                                             02  150                                
INTFAMCHA010702075445075919000434MV Disney - A Dream is a Wish Your Heart Makes (oc                                                                     60288120                                
PROFAMCHA010702075919075932000013Buzz Lightyear (DISNEY'S ONE TOO) - Today @ 5:30pm                                                                      06  150                                
PROFAMCHA010702075932075950000018Book of Pooh - This Morning                                                                                             02  150                                
PROFAMCHA010702075950080000000010Triple Line-up - 01 - ART/LULU/ELMO                                                                                     02  150                                
PGRFAMCHA010702080000082011002011Art Attack                                        1-074                                                                60286110                                
ID FAMCHA010702082011082016000005Generic ID - Couch 2                                                                                                    06  150                                
PROFAMCHA010702082016082100000044Little Lulu Show - HOMEWORK - Coming Up                                                                                 06  150                                
PROFAMCHA010702082100082120000020Book of Pooh - This Morning                                                                                             02  150                                
PROFAMCHA010702082120082150000030New Adventures of WTP (MARCH2001) - Weekdays @ 7:3                                                                      02  150                                
PROFAMCHA010702082150082200000010Triple Line-up - 02 - LULU/ELMO/PB&J                                                                                    02  150                                
PROFAMCHA010702082200082208000008CC Is Brought To You By - Ian                                                                                           06  150                                
PGRFAMCHA010702082208084600002352Little Lulu Show; The                             Popcorn Theif/The Little Tornando/She Flies Throug            B03814A1025607ECC                              
PROFAMCHA010702084600084609000009CC Was Brought To You By - Ian                                                                                          06  150                                
ID FAMCHA010702084609084614000005Generic ID - Couch 1                                                                                                    02  150                                
PRCFAMCHA010702084614084624000010Elmo's World Bumper - Dance - Coming Up                                                                                102  150                                
PROFAMCHA010702084624084644000020Book of Pooh - This Morning                                                                                             06  150                                
PRCFAMCHA010702084644084716000032Funshine 2001 - GENERIC TOUR SPOT #1                                                                                   102 5150                                
PRCFAMCHA010702084716084750000034Funshine 2001 - Spot #09 - JULY 02 TO JULY 08                                                                          102 5150                                
PROFAMCHA010702084750084800000010Triple Line-up - 03 - ELMO/PB&J/POOH                                                                                    02  150                                
PGRFAMCHA010702084800090244001444Elmo's World                                      Babies                                                              A2028607G                                
ID FAMCHA010702090244090254000010Generic ID - Family w/dog                                                                                               02  150                                
PROFAMCHA010702090254090301000007PB&J Bumpers - Kite - Coming Up                                                                                         02  150                                
PROFAMCHA010702090301090325000024ALF - Today @ Noon                                                                                                      02  150                                
PRCFAMCHA010702090325090333000008Franklin Bumper - Slide - Today                                                                                        102  150                                
INTFAMCHA010702090333090729000356Art Attack - Soccer Player                                                                                             60286120                                
PROFAMCHA010702090729090750000021Buzz Lightyear (DISNEY'S ONE TOO) - Today @ 5:30pm                                                                      02  150                                
PROFAMCHA010702090750090800000010Triple Line-up - 04 - PB&J/POOH/BUSY                                                                                    02  150                                
PROFAMCHA010702090800090808000008CC Is Brought To You By - Lark                                                                                          06  150                                
PGRFAMCHA010702090808093030002222PB&J Otter                                        Born To Chirp/Mega-melon                                            A6028607ECC                              
PROFAMCHA010702093030093038000008CC Was Brought To You By - Lark                                                                                         06  150                                
ID FAMCHA010702093038093048000010Generic ID - Hula Hoop                                                                                                  06  150                                
PROFAMCHA010702093048093106000018Book of Pooh - Coming Up                                                                                                02  150                                
PROFAMCHA010702093106093121000015Doug (MARCH2001) - Today @ 4pm                                                                                          02  150                                
INTFAMCHA010702093121093313000152Bill Nye - Two Eyes                                                                                                    60288120                                
PROFAMCHA010702093313093329000016ALF (Description) - Today @ 12pm                                                                                        06  150                                
PRCFAMCHA010702093329093340000011Elmo's World Bumper - Tricycle - This Afternoon                                                                        102  150                                
PROFAMCHA010702093340093350000010Triple Line-up - 05 - POOH/BUSY/MADELINE                                                                                02  150                                
ID FAMCHA010702093350093400000010Magic of Disney - V4 - KID MALE                                                                                         02  150                                
PGRFAMCHA010702093400095802002402Book Of Pooh; The                                 I Could've Laughed All Night/'X' Spots The Mark                      6028607G                                
ID FAMCHA010702095802095812000010Generic ID - confetti                                                                                                   02  150                                
PROFAMCHA010702095812095824000012New Adv of WTP Bumpers - Blustery - Weekdays @ 7:3                                                                      02  150                                
PRCFAMCHA010702095824095834000010Elmo's World Bumper - Dance - This Afternoon                                                                           102  150                                
PROFAMCHA010702095834095850000016ALF (Description) - Today @ 12pm                                                                                        06  150                                
PROFAMCHA010702095850095900000010Triple Line-up - 06 - BUSY/MADELINE/OOTB                                                                                02  150                                
PROFAMCHA010702095900095908000008CC Is Brought To You By - Ian                                                                                           06  150                                
PGRFAMCHA010702095908102318002410Busy World Of Richard Scarry; The                 High Flyers/Steamboat Mysteries/Best Waiters Ever             P19584 1025607ECC                              
PROFAMCHA010702102318102326000008CC Was Brought To You By - Ian                                                                                          06  150                                
ID FAMCHA010702102326102336000010Generic ID - Family w/dog                                                                                               06  150                                
PROFAMCHA010702102336102350000014ALF (Dreams) - Today @ 12pm                                                                                             06  150                                
PROFAMCHA010702102350102400000010Triple Line-up - 07 - MADELINE/OOTB/GOOF                                                                                02  150                                
PGRFAMCHA010702102400104635002235Madeline                                          Madeline's Costume Party                                             6028607E                                
ID FAMCHA010702104635104645000010Generic ID - Pink inner tube                                                                                            06  150                                
PROFAMCHA010702104645104700000015ALF (Lucky) - Today @ Noon                                                                                              02  150                                
ID FAMCHA010702104700104708000008Silly Stories Teaser - Female                                                                                           02  150                                
PROFAMCHA010702104708104721000013Buzz Lightyear (DISNEY'S ONE TOO) - Today @ 5:30pm                                                                      06  150                                
ID FAMCHA010702104721104750000029Silly Stories - COLD Story                                                                                              02  150                                
PROFAMCHA010702104750104800000010Triple Line-up - 08 - OOTB/GOOF/ALADDIN                                                                                 02  150                                
PGRFAMCHA010702104800111003002203Out Of The Box                                    Sticky Icky                                                          60286110CC                              
ID FAMCHA010702111003111008000005Generic ID - Couch 1                                                                                                    06  150                                
PRCFAMCHA010702111008111044000036Goof Troop (MARCH2001) - Coming Up                                                                                      02  150                                
PROFAMCHA010702111044111059000015ALF (Lucky) - Today @ Noon                                                                                              06  150                                
INTFAMCHA010702111059111240000141Mix Ups - Mixed up messages                                                                                            60288120                                
PROFAMCHA010702111240111250000010Triple Line-up - 09 - GOOF/ALADDIN/ALF                                                                                  02  150                                
ID FAMCHA010702111250111300000010Magic of Disney - V3(water) - KID MALE                                                                                  02  150                                
PROFAMCHA010702111300111308000008CC Is Brought To You By - Lark                                                                                          06  150                                
PGRFAMCHA010702111308113558002250Goof Troop                                        Bringin On The Rain                                                  6028607ECC                              
PROFAMCHA010702113558113606000008CC Was Brought To You By - Lark                                                                                         06  150                                
ID FAMCHA010702113606113611000005Generic ID - soccer                                                                                                     06  150                                
PROFAMCHA010702113611113626000015Doug (MARCH2001) - Today @ 4pm                                                                                          06  150                                
PROFAMCHA010702113626113640000014ALF (Dreams) - Today @ 12pm                                                                                             06  150                                
PROFAMCHA010702113640113650000010Triple Line-up - 10 - ALADDIN/ALF/FRANKLIN                                                                              02  150                                
ID FAMCHA010702113650113700000010Magic of Disney - V3(water) - KID FEMALE                                                                                02  150                                
PROFAMCHA010702113700113708000008CC Is Brought To You By - Ian                                                                                           06  150                                
PGRFAMCHA010702113708115949002241Disney's Aladdin                                  In The Heat Of The Fright                                            6028607ECC                              
PROFAMCHA010702115949115957000008CC Was Brought To You By - Ian                                                                                          06  150                                
ID FAMCHA010702115957120002000005Generic ID - Bubbles                                                                                                    02  150                                
PROFAMCHA010702120002120012000010Triple Line-up - 11 - ALF/FRANKLIN/ELMO                                                                                 02  150                                
PROFAMCHA010702120012120020000008CC Is Brought To You By - Lark                                                                                          06  150                                
PGRFAMCHA010702120020122148002128ALF                                               We're So Sorry, Uncle Albert                                        A2028807BCC                              
PROFAMCHA010702122148122156000008CC Was Brought To You By - Lark                                                                                         06  150                                
ID FAMCHA010702122156122206000010Generic ID - confetti                                                                                                   06  150                                
PRCFAMCHA010702122206122220000014Franklin Bumper - Leaf - Coming Up                                                                                     102  150                                
PROFAMCHA010702122220122250000030Big Green - Saturday @ 1:45pm                                                                                           02  150                                
PROFAMCHA010702122250122300000010Triple Line-up - 12 - FRANKLIN/ELMO/PB&J                                                                                02  150                                
PROFAMCHA010702122300122308000008CC Is Brought To You By - Ian                                                                                           06  150                                
PGRFAMCHA010702122308124601002253Franklin                                          Franklin's Night Friend/Franklin's Two Henry's                      A1025607ECC                              
PROFAMCHA010702124601124608000007CC Was Brought To You By - Ian                                                                                          06  150                                
ID FAMCHA010702124608124613000005Generic ID - Couch 1                                                                                                    06  150                                
PROFAMCHA010702124613124622000009PB&J Bumpers - Open - This Afternoon                                                                                    02  150                                
PROFAMCHA010702124622124650000028Aaron & Samantha In Concert - Sunday @ 7pm                                                                              02  150                                
PROFAMCHA010702124650124700000010Triple Line-up - 13 - ELMO/PB&J/POOH                                                                                    02  150                                
PGRFAMCHA010702124700130518001818Elmo's World                                      Flowers, Plants and Trees                                           A2028607G                                
ID FAMCHA010702130518130528000010Generic ID - Pink inner tube                                                                                            06  150                                
PROFAMCHA010702130528130546000018Book of Pooh - This Afternoon                                                                                           02  150                                
PRCFAMCHA010702130546130616000030Funshine 2001 - GENERIC TOUR SPOT #2                                                                                   102 5150                                
PRCFAMCHA010702130616130650000034Funshine 2001 - Spot #09 - JULY 02 TO JULY 08                                                                          106 5150                                
PROFAMCHA010702130650130700000010Triple Line-up - 14 - PB&J/POOH/BUSY                                                                                    02  150                                
PROFAMCHA010702130700130708000008CC Is Brought To You By - Lark                                                                                          06  150                                
PGRFAMCHA010702130708132929002221PB&J Otter                                        The Silent Treatment/Picture Perfect                                A6028607ECC                              
PROFAMCHA010702132929132937000008CC Was Brought To You By - Lark                                                                                         06  150                                
ID FAMCHA010702132937132947000010Generic ID - Bubbles                                                                                                    02  150                                
PROFAMCHA010702132947133005000018Book of Pooh - Coming Up                                                                                                06  150                                
INTFAMCHA010702133005133109000104Jack and Marcel: Ep.042 "Summer Night"                                                                                A40288120                                
ID FAMCHA010702133109133115000006Silly Stories Teaser - Male                                                                                             02  150                                
PROFAMCHA010702133115133126000011Kidsummer - Toronto Blue Jays                                                                                         A102 8150                                
ID FAMCHA010702133126133210000044Silly Stories - Something Fishy                                                                                         02  150                                
PROFAMCHA010702133210133240000030Big Green - Saturday @ 1:45pm                                                                                           06  150                                
PROFAMCHA010702133240133250000010Triple Line-up - 15 - POOH/BUSY/MADELINE                                                                                02  150                                
