SO FAMCHA001001043000043011000011Sign On (oct 1)                                                                                                         06                                     
PROFAMCHA001001043011043016000005CC Disclaimer (oct) **DO NOT USE**                                                                                      06  150                                
PGRFAMCHA001001043016045416002400Hello Mrs. Cherrywinkle                           A Busy Day                                                    B18874A1065607ACC                              
ID FAMCHA001001045416045426000010Generic ID - Bubbles                                                                                                    06  150                                
ID FAMCHA001001045426045439000013URL(2) - HAPPY BIRTHDAY (as of JUL 01)                                                                                  06  150                                
ID FAMCHA001001045439045500000021Prime time open count down                                                                                              06  150                                
PROFAMCHA001001045500045505000005CC Disclaimer (oct) **DO NOT USE**                                                                                      06  150                                
PGRFAMCHA001001045505051915002410Busy World Of Richard Scarry; The                 Biggest Storm Ever                                            P19588 1065607ECC                              
ID FAMCHA001001051915051925000010Generic ID - Family w/dog                                                                                               06  150                                
PROFAMCHA001001051925051940000015Doug (MARCH2001) - Weekdays @ 4pm                                                                                       06  150                                
ID FAMCHA001001051940052001000021Prime time open count down                                                                                              06  150                                
PROFAMCHA001001052001052006000005CC Disclaimer (oct) **DO NOT USE**                                                                                      06  150                                
PGRFAMCHA001001052006054509002503Amazing Animals                                   Animal Helpers                                                       60286110CC                              
ID FAMCHA001001054509054524000015Generic ID - confetti                                                                                                   06  150                                
PROFAMCHA001001054524054539000015Doug (MARCH2001) - Weekdays @ 4pm                                                                                       06  150                                
ID FAMCHA001001054539054600000021Prime time open count down                                                                                              06  150                                
PROFAMCHA001001054600054605000005CC Disclaimer (oct) **DO NOT USE**                                                                                      06  150                                
PGRFAMCHA001001054605061023002418Billy The Cat                                     Sewer Cats                                                    B27641A1065607ECC                              
ID FAMCHA001001061023061028000005Generic ID - Couch 1*                                                                                                   06  150                                
PRCFAMCHA001001061028061039000011Morning Block menu background (flex time)                                                                               06  150                                
ID FAMCHA001001061039061100000021Prime time open count down                                                                                              06  150                                
PROFAMCHA001001061100061105000005CC Disclaimer (oct) **DO NOT USE**                                                                                      06  150                                
PGRFAMCHA001001061105063457002352Little Lulu Show; The                             Tiny Tot's Syrup/The Night Before Christmas/The Pi            B03815A1065607ECC                              
ID FAMCHA001001063457063502000005Generic ID - Couch 1*                                                                                                   06  150                                
PRCFAMCHA001001063502063532000030Madeline (AUG2000) - Coming Up                                                                                         106  150                                
ID FAMCHA001001063532063539000007URL(1) - FUNSTUFF                                                                                                       06  150                                
ID FAMCHA001001063539063600000021Prime time open count down                                                                                              06  150                                
PROFAMCHA001001063600063605000005CC Disclaimer (oct) **DO NOT USE**                                                                                      06  150                                
PGRFAMCHA001001063605065902002257Madeline                                          Holiday With Mr. Grump                                               6068607ECC                              
ID FAMCHA001001065902065909000007Generic ID - Whisper*                                                                                                   06  150                                
PROFAMCHA001001065909065939000030Lion King (MARCH2001) - Today @ 3:30pm                                                                                 206  150                                
ID FAMCHA001001065939070000000021Prime time open count down                                                                                              06  150                                
PGRFAMCHA001001070000072342002342Microsoap                                         1-021                                                                6028607A                                
ID FAMCHA001001072342072352000010Generic ID - Family w/dog                                                                                               06  150                                
PROFAMCHA001001072352072422000030Z Games - Today @ 10am                                                                                                  06  150                                
PROFAMCHA001001072422072452000030Pete & Pete (AUG2000) - Coming Up                                                                                      206  150                                
INTFAMCHA001001072452072825000333Art Attack - Mermaid                                                                                                   60686120                                
PRCFAMCHA001001072825072859000034Hoze Houndz (MARCH2001) - Tonight @ 7:00pm                                                                              06  150                                
PROFAMCHA001001072859072929000030Your Big Break - Today @ 11am                                                                                           06  150                                
PRCFAMCHA001001072929072939000010Morning Block menu background (flex time)                                                                               06  150                                
ID FAMCHA001001072939073000000021Prime time open count down                                                                                              06  150                                
PGRFAMCHA001001073000075420002420Adventures of Pete & Pete; The                    Saturday                                                            A2028607B                                
ID FAMCHA001001075420075425000005Generic ID - Fingerpaint                                                                                                06  150                                
PRCFAMCHA001001075425075505000040Famous Jett Jackson - Today @ 9:30am                                                                                   106  150                                
PRCFAMCHA001001075505075539000034Hoze Houndz (MARCH2001) - Tonight @ 7:00pm                                                                              06  150                                
INTFAMCHA001001075539075804000225MV Disney - Yummy,Yummy,Yummy (TIMON & PUMBAA)                                                                         60688120                                
PROFAMCHA001001075804075822000018Mickey Mouseworks - Today @ 4:30pm                                                                                      06  150                                
PROFAMCHA001001075822075852000030New Adventures of WTP (MARCH2001) - Today @ 5:30pm                                                                      06  150                                
PRCFAMCHA001001075852075927000035Little Lulu (AUG2000) - Tonight @ 6:30pm                                                                               106  150                                
PRCFAMCHA001001075927075939000012Morning Block menu background (flex time)                                                                               06  150                                
ID FAMCHA001001075939080000000021Prime time open count down                                                                                              06  150                                
PGRFAMCHA001001080000082408002408Clarissa                                          THe Firm                                                             2068607B                                
ID FAMCHA001001082408082418000010Generic ID - Hula Hoop                                                                                                  06  150                                
PROFAMCHA001001082418082448000030Jersey - Today @ 9am                                                                                                    06  150                                
PROFAMCHA001001082448082510000022Mentors - Version 1 - Next on Family*                                                                                  606  150                                
INTFAMCHA001001082510082644000134MV Disney - He's A Tramp                                                                                               60688120                                
PROFAMCHA001001082644082702000018Mickey Mouseworks - Today @ 4:30pm                                                                                      06  150                                
INTFAMCHA001001082702082832000130MV Disney - Mambo #5 (LOU BEGA)                                                                                        60688120                                
PROFAMCHA001001082832082850000018Pete & Pete (AUG2000) - On Family                                                                                      202  150                                
PRCFAMCHA001001082850082930000040Famous Jett Jackson - Today @ 9:30am                                                                                   106  150                                
PRCFAMCHA001001082930082939000009Morning Block menu background (flex time)                                                                               06  150                                
ID FAMCHA001001082939083000000021Prime time open count down                                                                                              06  150                                
PROFAMCHA001001083000083005000005CC Disclaimer (oct) **DO NOT USE**                                                                                      06  150                                
PGRFAMCHA001001083005085317002312Mentors                                           A Transient, Shining Trouble                                  C16301 1055607ACC3                             
ID FAMCHA001001085317085322000005Generic ID - Marbles                                                                                                    06  150                                
PRCFAMCHA001001085322085356000034Hoze Houndz (MARCH2001) - Tonight @ 7:00pm                                                                              06  150                                
PROFAMCHA001001085356085426000030Jersey - Coming Up                                                                                                      06  150                                
PRCFAMCHA001001085426085506000040Famous Jett Jackson - Today @ 9:30am                                                                                   106  150                                
INTFAMCHA001001085506085840000334MV Disney - Forever And Ever (KATHIE LEE GIFFORD)                                                                      60688120                                
PROFAMCHA001001085840085910000030Lion King (MARCH2001) - Today @ 3:30pm                                                                                 206  150                                
PROFAMCHA001001085910085940000030Mickey Mouseworks - Today @ 4:30pm                                                                                      06  150                                
PRCFAMCHA001001085940085950000010Morning Block menu background (flex time)                                                                               06  150                                
ID FAMCHA001001085950090000000010xxMagic of Disney - V2(sky) - TEEN FEMALE                                                                               06  150                                
PROFAMCHA001001090000090005000005CC Disclaimer (oct) **DO NOT USE**                                                                                      06  150                                
PGRFAMCHA001001090005092235002230Jersey; The                                       Be True To You                                                       6068607ACC                              
ID FAMCHA001001092235092245000010Generic ID - Pink inner tube                                                                                            06  150                                
PROFAMCHA001001092245092315000030Mickey Mouseworks - Today @ 4:30pm                                                                                      06  150                                
PRCFAMCHA001001092315092355000040Famous Jett Jackson - Coming Up                                                                                        106  150                                
INTFAMCHA00100109235509245500010060 Seconds of Science - Balloons(14) (anywhere but                                                                     60688120                                
INTFAMCHA001001092455092826000331MV Disney - Baby Mine (ALISON KRAUSS)                                                                                  60688120                                
PROFAMCHA001001092826092856000030Lion King (MARCH2001) - Today @ 3:30pm                                                                                 206  150                                
PRCFAMCHA001001092856092930000034Hoze Houndz (MARCH2001) - Tonight @ 7:00pm                                                                              06  150                                
PRCFAMCHA001001092930092939000009Morning Block menu background (flex time)                                                                               06  150                                
ID FAMCHA001001092939093000000021Prime time open count down                                                                                              06  150                                
PROFAMCHA001001093000093005000005CC Disclaimer (oct) **DO NOT USE**                                                                                      06  150                                
PGRFAMCHA001001093005095438002433Famous Jett Jackson; The                          Front Page                                                    SR0295A1066607ACC                              
ID FAMCHA001001095438095448000010Generic ID - Ring around the rosie                                                                                      06  150                                
PRCFAMCHA001001095448095523000035Little Lulu (AUG2000) - Tonight @ 6:30pm                                                                               106  150                                
PROFAMCHA001001095523095553000030Z Games (MARCH2001) - Coming Up                                                                                         06  150                                
PROFAMCHA001001095553095617000024ALF - Weekdays @ Noon                                                                                                   06  150                                
INTFAMCHA001001095617095817000200MV Disney - I'm Gonna Fly                                                                                              60688120                                
PROFAMCHA001001095817095835000018Mickey Mouseworks - Today @ 4:30pm                                                                                      06  150                                
PROFAMCHA001001095835095905000030Your Big Break - Today @ 11am                                                                                           06  150                                
PRCFAMCHA001001095905095939000034Hoze Houndz (MARCH2001) - Tonight @ 7:00pm                                                                              06  150                                
PRCFAMCHA001001095939095950000011Morning Block menu background (flex time)                                                                               06  150                                
ID FAMCHA001001095950100000000010xxMagic of Disney - V2(sky) - TEEN MALE                                                                                 06  150                                
PROFAMCHA001001100000100005000005CC Disclaimer (oct) **DO NOT USE**                                                                                      06  150                                
PGRFAMCHA001001100005102235002230Z Games                                           2-001                                                                60286110CC                              
ID FAMCHA001001102235102245000010Generic ID - soccer **DO NOT USE**                                                                                      06  150                                
PROFAMCHA001001102245102315000030Your Big Break - Today @ 11am                                                                                           06  150                                
PROFAMCHA001001102315102345000030Lion King (MARCH2001) - Today @ 3:30pm                                                                                 206  150                                
INTFAMCHA001001102345102819000434MV Disney - A Dream Is A Wish Your Heart Makes (LI                                                                     60688120                                
PRCFAMCHA001001102819102853000034Hoze Houndz (MARCH2001) - Tonight @ 7:00pm                                                                              06  150                                
PRCFAMCHA001001102853102928000035Little Lulu (AUG2000) - Tonight @ 6:30pm                                                                               106  150                                
PRCFAMCHA001001102928102939000011Morning Block menu background (flex time)                                                                               06  150                                
ID FAMCHA001001102939103000000021Prime time open count down                                                                                              06  150                                
PROFAMCHA001001103000103005000005CC Disclaimer (oct) **DO NOT USE**                                                                                      06  150                                
PGRFAMCHA001001103005105631002626Bug Juice                                         Boys To Men                                                          6068607ACC                              
ID FAMCHA001001105631105636000005Generic ID - soccer **DO NOT USE**                                                                                      06  150                                
PROFAMCHA001001105636105706000030Mickey Mouseworks - Today @ 4:30pm                                                                                      06  150                                
PROFAMCHA001001105706105736000030Your Big Break - Coming Up                                                                                              06  150                                
PROFAMCHA001001105736105757000021Recess (MARCH2001) - Weekdays @ 5pm                                                                                     06  150                                
PROFAMCHA001001105757105825000028Honey (MARCH2001) - Weeknights @ 8pm                                                                                    06  150                                
PRCFAMCHA001001105825105859000034Hoze Houndz (MARCH2001) - Tonight @ 7:00pm                                                                              06  150                                
PROFAMCHA001001105859105929000030Lion King (MARCH2001) - Today @ 3:30pm                                                                                 206  150                                
PRCFAMCHA001001105929105939000010Morning Block menu background (flex time)                                                                               06  150                                
ID FAMCHA001001105939110000000021Prime time open count down                                                                                              06  150                                
PROFAMCHA001001110000110005000005CC Disclaimer (oct) **DO NOT USE**                                                                                      06  150                                
PGRFAMCHA001001110005114254004249Your Big Break                                    1-007                                                                60288090CC                              
ID FAMCHA001001114254114309000015Generic ID - confetti                                                                                                   06  150                                
PROFAMCHA0010011143091143390000302 Hour Tour - 98 Degrees (OCT01) - Tonight @ 7:30p                                                                      02  150                                
PROFAMCHA001001114339114349000010MV FAMJAM - Teaser (Generic)                                                                                           606 5150                                
PROFAMCHA001001114349114413000024ALF - Weekdays @ Noon                                                                                                   06  150                                
INTFAMCHA001001114413114906000453MV - Ooh It's Kinda Crazy                                                                                             A10658120                                
PROFAMCHA001001114906114933000027Recess (MARCH2001) - Weekdays @ 5pm                                                                                     06  150                                
PGRFAMCHA001001114933115826000853Mpt-Tennis Racquet                                                                                                     60688150                                
PROFAMCHA001001115826115856000030Mickey Mouseworks - Today @ 4:30pm                                                                                      06  150                                
PROFAMCHA001001115856115930000034Ben-Hur (OCT6) - Friday @ 9:00pm                                                                                        06  150                                
PRCFAMCHA001001115930115939000009Morning Block menu background (flex time)                                                                               06  150                                
ID FAMCHA001001115939120000000021Move open family size movie                                                                                             06  150                                
PROFAMCHA001001120000120007000007Rating - G (oct )                                                                                                       06  150                                
PROFAMCHA001001120007120012000005CC Disclaimer (oct) **DO NOT USE**                                                                                      06  150                                
ID FAMCHA001001120012120022000010xxMagic of Disney - V3(water) - TEEN FEMALE                                                                             06  150                                
PGRFAMCHA001001120022132908012846Mr. Headmistress                                                                                                      A6068807CCC                              
ID FAMCHA001001132908132918000010Generic ID - Bubbles                                                                                                    06  150                                
PROFAMCHA001001132918132939000021Recess (MARCH2001) - Weekdays @ 5pm                                                                                     06  150                                
ID FAMCHA001001132939133000000021Move open family size movie                                                                                             06  150                                
PROFAMCHA001001133000133007000007Rating - G (oct )                                                                                                       06  150                                
PROFAMCHA001001133007133012000005CC Disclaimer (oct) **DO NOT USE**                                                                                      06  150                                
ID FAMCHA001001133012133022000010xxMagic of Disney - V3(water) - TEEN MALE                                                                               06  150                                
PGRFAMCHA001001133022150133013111Spaceman In King Arthur's Court; The                                                                                  A6068807DCC                              
ID FAMCHA001001150133150138000005Generic ID - Bubbles*                                                                                                   06  150                                
PROFAMCHA001001150138150143000005CC Disclaimer (oct) **DO NOT USE**                                                                                      06  150                                
PGRFAMCHA001001150143152420002237Disney's Aladdin                                  Air Feather Friends                                                  6068607ECC                              
ID FAMCHA001001152420152435000015Generic ID - confetti                                                                                                   06  150                                
PROFAMCHA0010011524351525050000302 Hour Tour - 98 Degrees (OCT01) - Tonight @ 7:30p                                                                      06  150                                
PROFAMCHA001001152505152535000030Lion King (MARCH2001) - Coming Up                                                                                      206  150                                
INTFAMCHA001001152535152824000249MV Disney - Never Alone (TYLER COLLINS)                                                                                60688120                                
PROFAMCHA001001152824152848000024ALF - Weekdays @ Noon                                                                                                   06  150                                
PROFAMCHA001001152848152906000018Mickey Mouseworks - Today @ 4:30pm                                                                                      06  150                                
PROFAMCHA001001152906152940000034Ben-Hur (OCT6) - Friday @ 9:00pm                                                                                        06  150                                
PRCFAMCHA001001152940152950000010Morning Block menu background (flex time)                                                                               06  150                                
ID FAMCHA001001152950153000000010xxMagic of Disney - V4 - TEEN FEMALE                                                                                    06  150                                
PROFAMCHA001001153000153005000005CC Disclaimer (oct) **DO NOT USE**                                                                                      06  150                                
PGRFAMCHA001001153005155249002244Lion King's Timon & Pumbaa; The                   Beast of Eden/Sense and Senegambia                                   6068607ECC                              
ID FAMCHA001001155249155254000005Generic ID - Couch 2*                                                                                                   06  150                                
PROFAMCHA001001155254155328000034Ben-Hur (OCT6) - Friday @ 9:00pm                                                                                        06  150                                
PROFAMCHA001001155328155358000030Mickey Mouseworks - Today @ 4:30pm                                                                                      06  150                                
INTFAMCHA001001155358155808000410MV Disney - Colours Of The Wind (POCAHONTAS)                                                                           60688120                                
PROFAMCHA001001155808155836000028Honey (MARCH2001) - Weeknights @ 8pm                                                                                    06  150                                
PRCFAMCHA001001155836155910000034Hoze Houndz (MARCH2001) - Tonight @ 7:00pm                                                                              06  150                                
PROFAMCHA0010011559101559400000302 Hour Tour - 98 Degrees (OCT01) - Tonight @ 7:30p                                                                      06  150                                
PRCFAMCHA001001155940155950000010Morning Block menu background (flex time)                                                                               06  150                                
ID FAMCHA001001155950160000000010xxMagic of Disney - V4 - TEEN MALE                                                                                      06  150                                
PGRFAMCHA001001160000162235002235Movie Surfers Go Inside Remember the Titans                                                                           A6028807C                                
ID FAMCHA001001162235162245000010Generic ID - confetti                                                                                                   06  150                                
PROFAMCHA0010011622451623150000302 Hour Tour - 98 Degrees (OCT01) - Tonight @ 7:30p                                                                      06  150                                
PROFAMCHA001001162315162345000030Mickey Mouseworks - Coming Up                                                                                           06  150                                
INTFAMCHA001001162345162800000415MV Disney - You'll Be In My Heart (PHIL COLLINS)                                                                       60688120                                
PRCFAMCHA001001162800162841000041Gargoyles (AUG2000) - Weeknights @ 7pm                                                                                  06  150                                
PROFAMCHA001001162841162905000024So Weird (AUG2000) - Tonight @ 8pm**DO NOT USE**                                                                        06  150                                
PROFAMCHA001001162905162939000034Ben-Hur (OCT6) - Friday @ 9:00pm                                                                                        06  150                                
PRCFAMCHA001001162939162950000011Morning Block menu background (flex time)                                                                               06  150                                
ID FAMCHA001001162950163000000010xxMagic of Disney - V2(sky) - TEEN FEMALE                                                                               06  150                                
PROFAMCHA001001163000163005000005CC Disclaimer (oct) **DO NOT USE**                                                                                      06  150                                
PGRFAMCHA001001163005165250002245Disney's Mickey Mouseworks                        2-000                                                                6028607ECC                              
ID FAMCHA001001165250165255000005Generic ID - Couch 2*                                                                                                   06  150                                
PRCFAMCHA001001165255165329000034Hoze Houndz (MARCH2001) - Tonight @ 7:00pm                                                                              06  150                                
PROFAMCHA001001165329165414000045PB&J Otter (MARCH2001) - Coming Up                                                                                     206  150                                
INTFAMCHA001001165414165836000422MV Disney - True To Your Heart (98 DEGREES/STEVIE                                                                      60688120                                
PROFAMCHA001001165836165900000024ALF - Weekdays @ Noon                                                                                                   06  150                                
PROFAMCHA001001165900165930000030Disney's One, Too - Weekdays @ 4pm                                                                                      06  150                                
PRCFAMCHA001001165930165939000009Morning Block menu background (flex time)                                                                               06  150                                
ID FAMCHA001001165939170000000021Prime time open count down                                                                                              06  150                                
PROFAMCHA001001170000170005000005CC Disclaimer (oct) **DO NOT USE**                                                                                      06  150                                
PGRFAMCHA001001170005172335002330PB&J Otter                                        Strike Up the Band/World's Strongest Otter                          A6068607ECC                              
ID FAMCHA001001172335172345000010Generic ID - Family w/dog                                                                                               06  150                                
PROFAMCHA001001172345172415000030Pepper Ann (MARCH2001) - Weekdays @ 4:30pm                                                                              06  150                                
PROFAMCHA001001172415172445000030New Adventures of WTP (MARCH2001) - Coming Up                                                                           06  150                                
INTFAMCHA00100117244517254500010060 Seconds of Science - Time(13) (anywhere but D12                                                                     60688120                                
INTFAMCHA001001172545172835000250Art Attack - Lentil Dragon                                                                                             60686120                                
PRCFAMCHA001001172835172910000035Little Lulu (AUG2000) - Tonight @ 6:30pm                                                                               106  150                                
PROFAMCHA001001172910172940000030Lion King (AUG2000) - Weekdays @ 6:30pm                                                                                206  150                                
PRCFAMCHA001001172940172950000010Morning Block menu background (flex time)                                                                               06  150                                
ID FAMCHA001001172950173000000010xxMagic of Disney - V2(sky) - TEEN MALE                                                                                 06  150                                
PROFAMCHA001001173000173005000005CC Disclaimer (oct) **DO NOT USE**                                                                                      06  150                                
PGRFAMCHA001001173005175242002237New Adventures of Winnie the Pooh; The            Piglet's Poohetry/Owl's Well That Ends Well                          6028607ECC                              
ID FAMCHA001001175242175247000005Generic ID - Fingerpaint                                                                                                06  150                                
PROFAMCHA001001175247175317000030New Adventures of WTP (MARCH2001) - Weekdays @ 7:3                                                                      06  150                                
PRCFAMCHA001001175317175347000030Franklin (MARCH2001) - Coming Up                                                                                       106  150                                
INTFAMCHA001001175347175824000437MV Disney - Go The Distance (MICHAEL BOLTON)                                                                           60688120                                
PRCFAMCHA001001175824175859000035Little Lulu (AUG2000) - Tonight @ 6:30pm                                                                               106  150                                
PROFAMCHA001001175859175929000030Pepper Ann (MARCH2001) - Weekdays @ 4:30pm                                                                              06  150                                
PRCFAMCHA001001175929175939000010Morning Block menu background (flex time)                                                                               06  150                                
ID FAMCHA001001175939180000000021Prime time open count down                                                                                              06  150                                
PROFAMCHA001001180000180005000005CC Disclaimer (oct) **DO NOT USE**                                                                                      06  150                                
PGRFAMCHA001001180005182258002253Franklin                                          Good Deeds/Submarine                                          A38147A1025607ECC                              
ID FAMCHA001001182258182303000005Generic ID - Fingerpaint                                                                                                06  150                                
PRCFAMCHA001001182303182337000034Hoze Houndz (MARCH2001) - Tonight @ 7:00pm                                                                              06  150                                
PRCFAMCHA001001182337182412000035Little Lulu (AUG2000) - Coming Up                                                                                      106  150                                
INTFAMCHA001001182412182832000420MV Disney - Someday (ALL 4 ONE)                                                                                        60688120                                
PROFAMCHA001001182832182859000027Recess (MARCH2001) - Weekdays @ 5pm                                                                                     06  150                                
PROFAMCHA001001182859182929000030New Adventures of WTP (MARCH2001) - Weekdays @ 7:3                                                                      06  150                                
PRCFAMCHA001001182929182939000010Morning Block menu background (flex time)                                                                               06  150                                
ID FAMCHA001001182939183000000021Prime time open count down                                                                                              06  150                                
PROFAMCHA001001183000183005000005CC Disclaimer (oct) **DO NOT USE**                                                                                      06  150                                
PGRFAMCHA001001183005185336002331Little Lulu Show; The                             Black Out, Mind Your Manners, To Tell the Tooth               A20189A1055607ECC3                             
ID FAMCHA001001185336185346000010Generic ID - Bubbles                                                                                                    06  150                                
PROFAMCHA0010011853461854160000302 Hour Tour - 98 Degrees (OCT01) - Tonight @ 7:30p                                                                      06  150                                
PRCFAMCHA001001185416185450000034Hoze Houndz (MARCH2001) - Coming Up                                                                                     06  150                                
INTFAMCHA001001185450185831000341MV Disney - Hakuna Matata (LEBO M/JIMMY CLIFF)                                                                         60688120                                
PROFAMCHA001001185831185855000024So Weird (AUG2000) - Tonight @ 8pm**DO NOT USE**                                                                        06  150                                
PROFAMCHA001001185855185929000034Ben-Hur (OCT6) - Friday @ 9:00pm                                                                                        06  150                                
PRCFAMCHA001001185929185939000010Morning Block menu background (flex time)                                                                               06  150                                
ID FAMCHA001001185939190000000021Prime time open count down                                                                                              06  150                                
PROFAMCHA001001190000190005000005CC Disclaimer (oct) **DO NOT USE**                                                                                      06  150                                
PGRFAMCHA001001190005192240002235Hoze Houndz                                       Ranger Bob/Bad Medicine                                       B34011A1025607ECC                              
ID FAMCHA001001192240192250000010Generic ID - Pink inner tube                                                                                            06  150                                
PROFAMCHA001001192250192324000034Ben-Hur (OCT6) - Friday @ 9:00pm                                                                                        06  150                                
PROFAMCHA0010011923241923540000302 Hour Tour - 98 Degrees - Coming Up                                                                                    02  150                                
PROFAMCHA001001192354192409000015Doug (MARCH2001) - Weekdays @ 4pm                                                                                       06  150                                
INTFAMCHA001001192409192613000204MV Disney - You've Got A Friend In Me (RANDY NEWMA                                                                     60688120                                
PROFAMCHA001001192613192637000024So Weird (AUG2000) - Tonight @ 8pm**DO NOT USE**                                                                        06  150                                
PROFAMCHA001001192637192705000028Honey (MARCH2001) - Weeknights @ 8pm                                                                                    06  150                                
PROFAMCHA001001192705192741000036Tower of Terror (OCT7&21) - Saturday @ 9pm                                                                              02  150                                
INTFAMCHA001001192741192941000200MV Disney - I'm Gonna Fly                                                                                              60688120                                
PRCFAMCHA001001192941192950000009Morning Block menu background (flex time)                                                                               06  150                                
ID FAMCHA001001192950193000000010xxMagic of Disney - V3(water) - ADULT FEMALE                                                                            06  150                                
PROFAMCHA001001193000193005000005CC Disclaimer (oct) **DO NOT USE**                                                                                      06  150                                
MVCFAMCHA0010011930051954070024022 Hour Tour - 98 Degrees                                                                                              A6028708BCC                              
ID FAMCHA001001195407195414000007Generic ID - Whisper*                                                                                                   06  150                                
PROFAMCHA001001195414195448000034Ben-Hur (OCT6) - Friday @ 9:00pm                                                                                        06  150                                
PROFAMCHA001001195448195512000024So Weird (AUG2000) - Coming Up**DO NOT USE**                                                                            06  150                                
PROFAMCHA001001195512195540000028Honey (MARCH2001) - Weeknights @ 8pm                                                                                    06  150                                
INTFAMCHA001001195540195732000152Bill Nye - Two Eyes                                                                                                    60688120                                
PROFAMCHA001001195732195756000024ALF - Weekdays @ Noon                                                                                                   06  150                                
PROFAMCHA001001195756195823000027Recess (MARCH2001) - Weekdays @ 5pm                                                                                     06  150                                
PRCFAMCHA001001195823195904000041Gargoyles (AUG2000) - Weeknights @ 7pm                                                                                  06  150                                
PROFAMCHA001001195904195940000036Tower of Terror (OCT7&21) - Saturday @ 9pm                                                                              06  150                                
PRCFAMCHA001001195940195950000010Morning Block menu background (flex time)                                                                               06  150                                
ID FAMCHA001001195950200000000010xxMagic of Disney - V3(water) - ADULT MALE                                                                              06  150                                
PGRFAMCHA001001200000202404002404So Weird                                          Banglebye                                                            6028807A                                
ID FAMCHA001001202404202414000010Generic ID - soccer **DO NOT USE**                                                                                      06  150                                
PROFAMCHA001001202414202450000036Tower of Terror (OCT7&21) - Saturday @ 9pm                                                                              06  150                                
PRCFAMCHA001001202450202520000030Are You Afraid of the Dark?(AUG)- Coming Up                                                                             06  150                                
INTFAMCHA001001202520202629000109Monkey Minutes - Dinner And A Movie                                                                                   A20688120                                
ID FAMCHA001001202629202637000008URL(1) - NEWSLETTER                                                                                                     06  150                                
INTFAMCHA001001202637202814000137Bill Nye - Water Cycle Jump                                                                                            60688120                                
PRCFAMCHA001001202814202855000041Gargoyles (AUG2000) - Weeknights @ 7pm                                                                                  06  150                                
PROFAMCHA001001202855202929000034Ben-Hur (OCT6) - Friday @ 9:00pm                                                                                        06  150                                
PRCFAMCHA001001202929202939000010Morning Block menu background (flex time)                                                                               06  150                                
ID FAMCHA001001202939203000000021Prime time open count down                                                                                              06  150                                
PROFAMCHA001001203000203005000005CC Disclaimer (oct) **DO NOT USE**                                                                                      06  150                                
PGRFAMCHA001001203005205425002420Are You Afraid of the Dark?                       Tale Of Highway 13                                            SR0308 1026807ACC                              
ID FAMCHA001001205425205440000015Generic ID - confetti                                                                                                   06  150                                
PROFAMCHA001001205440205514000034Ben-Hur (OCT6) - Friday @ 9:00pm                                                                                        06  150                                
PROFAMCHA001001205514205538000024ALF - Weeknights @ 7:30pm                                                                                               06  150                                
PROFAMCHA001001205538205608000030Lion King (AUG2000) - Weekdays @ 6:30pm                                                                                206  150                                
INTFAMCHA001001205608205738000130MV Disney - Mambo #5 (LOU BEGA)                                                                                        60688120                                
PROFAMCHA001001205738205808000030Pepper Ann (MARCH2001) - Weekdays @ 4:30pm                                                                              06  150                                
PRCFAMCHA001001205808205849000041Gargoyles (AUG2000) - Weeknights @ 7pm                                                                                  06  150                                
PROFAMCHA001001205849205925000036Tower of Terror (OCT7&21) - Saturday @ 9pm                                                                              06  150                                
PRCFAMCHA001001205925205939000014Morning Block menu background (flex time)                                                                               06  150                                
ID FAMCHA001001205939210000000021Move open family size movie                                                                                             06  150                                
PROFAMCHA001001210000210007000007Rating - PG (oct)                                                                                                       06  150                                
PGRFAMCHA001001210007225449015442Any Which Way You Can                                                                                                 B2028807D                                
ID FAMCHA001001225449225456000007Generic ID - Whisper*                                                                                                   06  150                                
PROFAMCHA001001225456225532000036Tower of Terror (OCT7&21) - Saturday @ 9pm                                                                              06  150                                
PROFAMCHA001001225532225600000028Honey (MARCH2001) - Weeknights @ 8pm                                                                                    06  150                                
PROFAMCHA001001225600225630000030Lion King (AUG2000) - Weekdays @ 6:30pm                                                                                206  150                                
INTFAMCHA001001225630225801000131Bill Nye - The Faster You Push Me                                                                                      60688120                                
PROFAMCHA001001225801225825000024ALF - Weekdays @ Noon                                                                                                   06  150                                
PROFAMCHA001001225825225840000015Doug (MARCH2001) - Weekdays @ 4pm                                                                                       06  150                                
PROFAMCHA001001225840225914000034Ben-Hur (OCT6) - Friday @ 9:00pm                                                                                        06  150                                
PRCFAMCHA001001225914225939000025Morning Block menu background (flex time)                                                                               06  150                                
ID FAMCHA001001225939230000000021Move open family size movie                                                                                             06  150                                
PROFAMCHA001001230000230007000007Rating - PG (oct)                                                                                                       06  150                                
PGRFAMCHA001001230007000320010313Sherlock Holmes In The 22nd Century                                                                                   B6068807E                                
ID FAMCHA001001000320000325000005Generic ID - Fingerpaint                                                                                                06  150                                
PROFAMCHA001001000325000330000005CC Disclaimer (oct) **DO NOT USE**                                                                                      06  150                                
PGRFAMCHA001001000330002633002303Disney Presents Bill Nye the Science Guy          Architecture                                                         60686110CC                              
ID FAMCHA001001002633002638000005Generic ID - Bubbles*                                                                                                   06  150                                
PROFAMCHA001001002638002714000036Tower of Terror (OCT7&21) - Saturday @ 9pm                                                                              06  150                                
PRCFAMCHA001001002714002744000030Are You Afraid of the Dark?(AUG)- Coming Up                                                                             06  150                                
INTFAMCHA001001002744002837000053Bill Nye - Friction Happens                                                                                            60688120                                
PROFAMCHA001001002837002905000028Honey (MARCH2001) - Weeknights @ 8pm                                                                                    06  150                                
PROFAMCHA001001002905002939000034Ben-Hur (OCT6) - Friday @ 9:00pm                                                                                        06  150                                
ID FAMCHA001001002939003000000021Prime time open count down                                                                                              06  150                                
PGRFAMCHA001001003000005423002423Are You Afraid Of The Dark?                       The Tale of the Dark Dragon                                   SR0303 1066807A                                
ID FAMCHA001001005423005433000010Generic ID - Bubbles                                                                                                    06  150                                
PROFAMCHA001001005433005507000034Ben-Hur (OCT6) - Friday @ 9:00pm                                                                                        06  150                                
PROFAMCHA001001005507005531000024ALF - Weekdays @ Noon                                                                                                   06  150                                
PROFAMCHA001001005531005607000036Tower of Terror (OCT7&21) - Saturday @ 9pm                                                                              06  150                                
INTFAMCHA001001005607005653000046Monkey Minutes - Top Gun                                                                                              A20688120                                
PGRFAMCHA001001005653010202000509Plasmo #5                                                                                                              70688150                                
SO FAMCHA001001010202010214000012Sign Off (oct 1)                                                                                                        06                                     
OFFFAMCHA001001010214043000032746                                                                                                                                                               
SO FAMCHA001002043000043011000011Sign On (oct 1)                                                                                                         06                                     
PROFAMCHA001002043011043016000005CC Disclaimer (oct) **DO NOT USE**                                                                                      06  150                                
PGRFAMCHA001002043016045416002400Hello Mrs. Cherrywinkle                           Happy Birthday Mrs. C                                         B18875A1065607ACC                              
ID FAMCHA001002045416045431000015Generic ID - confetti                                                                                                   06  150                                
PRCFAMCHA001002045431045440000009Morning Block menu background (flex time)                                                                               06  150                                
ID FAMCHA001002045440045500000020Morning block open play pen                                                                                             06  150                                
PROFAMCHA001002045500045505000005CC Disclaimer (oct) **DO NOT USE**                                                                                      06  150                                
PGRFAMCHA001002045505051915002410Busy World Of Richard Scarry; The                 No Time For Bananas                                           P19589 1065607ECC                              
ID FAMCHA001002051915051925000010Generic ID - confetti                                                                                                   06  150                                
PROFAMCHA001002051925051940000015Doug (MARCH2001) - Today @ 4pm                                                                                          06  150                                
ID FAMCHA001002051940052000000020Morning block open play pen                                                                                             06  150                                
PROFAMCHA001002052000052005000005CC Disclaimer (oct) **DO NOT USE**                                                                                      06  150                                
PGRFAMCHA001002052005054514002509Amazing Animals                                   Around the World                                                     60286110CC                              
ID FAMCHA001002054514054521000007Generic ID - Whisper*                                                                                                   06  150                                
PROFAMCHA001002054521054539000018Mickey Mouseworks - Weekends @ 4:30pm                                                                                   06  150                                
ID FAMCHA001002054539054559000020Morning block open play pen                                                                                             06  150                                
PROFAMCHA001002054559054604000005CC Disclaimer (oct) **DO NOT USE**                                                                                      06  150                                
PGRFAMCHA001002054604061020002416Billy The Cat                                     The Rescue                                                    B27642A1065607ECC                              
ID FAMCHA001002061020061025000005Generic ID - Couch 2*                                                                                                   06  150                                
PROFAMCHA001002061025061040000015Doug (MARCH2001) - Today @ 4pm                                                                                          06  150                                
ID FAMCHA001002061040061100000020Morning block open play pen                                                                                             06  150                                
PROFAMCHA001002061100061105000005CC Disclaimer (oct) **DO NOT USE**                                                                                      06  150                                
PGRFAMCHA001002061105063457002352Little Lulu Show; The                             Space Kids/Case of Disappearing Drum/From Hero to             B03816A1065607ECC                              
ID FAMCHA001002063457063507000010Generic ID - Hula Hoop                                                                                                  06  150                                
PROFAMCHA001002063507063531000024ALF - Today @ Noon                                                                                                      06  150                                
PRCFAMCHA001002063531063540000009Morning Block menu background (flex time)                                                                               06  150                                
ID FAMCHA001002063540063600000020Morning block open play pen                                                                                             06  150                                
PROFAMCHA001002063600063605000005CC Disclaimer (oct) **DO NOT USE**                                                                                      06  150                                
PGRFAMCHA001002063605070006002401Big Garage; The                                   The Missing Wheels                                            P21461 1065607ECC                              
ID FAMCHA001002070006070011000005Generic ID - Bubbles*                                                                                                   06  150                                
PROFAMCHA001002070011070016000005CC Disclaimer (oct) **DO NOT USE**                                                                                      06  150                                
PGRFAMCHA001002070016072309002253Franklin                                          Franklin's Night Friend/Franklin's Two Henry's                P02772A1065607ECC                              
ID FAMCHA001002072309072319000010Generic ID - confetti                                                                                                   06  150                                
PRCFAMCHA001002072319072349000030Out of the Box (AUG2000) - Today @ 10:18am                                                                             106  150                                
PROFAMCHA001002072349072419000030New Adventures of WTP (MARCH2001) - Coming Up                                                                           06  150                                
INTFAMCHA001002072419072841000422Furrever Friends: You're A Sensation                                                                                   60688120                                
PROFAMCHA001002072841072911000030Lion King (AUG2000) - Tonight @ 6:30pm                                                                                 206  150                                
PROFAMCHA001002072911072941000030Disney's One, Too - Today @ 4pm                                                                                         06  150                                
PRCFAMCHA001002072941072950000009Morning Block menu background (flex time)                                                                               06  150                                
ID FAMCHA001002072950073000000010xxMagic of Disney - V2(sky) - KID FEMALE                                                                                06  150                                
PROFAMCHA001002073000073005000005CC Disclaimer (oct) **DO NOT USE**                                                                                      06  150                                
PGRFAMCHA001002073005075240002235New Adventures of Winnie the Pooh; The            Pooh Oughta Be In Pictures                                           6068607ECC                              
ID FAMCHA001002075240075250000010Generic ID - Ring around the rosie                                                                                      06  150                                
PRCFAMCHA001002075250075320000030Out of the Box (AUG2000) - Today @ 10:18am                                                                             106  150                                
PROFAMCHA001002075320075350000030New Adventures of WTP (MARCH2001) - Weekdays @ 7:3                                                                      06  150                                
INTFAMCHA001002075350075524000134Big Garage, "stop" - King For The Day                                                                           P21454 10656120                                
PRCFAMCHA001002075524075554000030Franklin (MARCH2001) - Today @ 12:30pm                                                                                 106  150                                
INTFAMCHA001002075554075854000300Art Attack - Jack-In-The-Box                                                                                           60686120                                
PRCFAMCHA001002075854075929000035Little Lulu (AUG2000) - Tonight @ 6pm                                                                                  106  150                                
PRCFAMCHA001002075929075940000011Morning Block menu background (flex time)                                                                               06  150                                
ID FAMCHA001002075940080000000020Morning block open play pen                                                                                             06  150                                
PGRFAMCHA001002080000082010002010Art Attack                                        1-057                                                                60686110                                
ID FAMCHA001002082010082015000005Generic ID - Couch 2*                                                                                                   06  150                                
PRCFAMCHA001002082015082045000030Franklin (MARCH2001) - Today @ 12:30pm                                                                                 106  150                                
PROFAMCHA001002082045082115000030New Adventures of WTP (MARCH2001) - Weekdays @ 7:3                                                                      06  150                                
PGRFAMCHA001002082115082744000629Richard Scarry (ii) Newspaper Mom                                                                               P19590 10656150                                
INTFAMCHA001002082744082910000126Mix Ups - Birthday Befuddle                                                                                            60688120                                
PRCFAMCHA001002082910082940000030Out of the Box (AUG2000) - Today @ 10:18am                                                                             106  150                                
PRCFAMCHA001002082940082950000010Morning Block menu background (flex time)                                                                               06  150                                
ID FAMCHA001002082950083000000010xxMagic of Disney - V3(water) - KID MALE                                                                                06  150                                
PROFAMCHA001002083000083005000005CC Disclaimer (oct) **DO NOT USE**                                                                                      06  150                                
PGRFAMCHA001002083005085306002301Disney Presents Bill Nye the Science Guy          Farms                                                                60686110CC                              
ID FAMCHA001002085306085316000010Generic ID - soccer **DO NOT USE**                                                                                      06  150                                
PROFAMCHA001002085316085337000021Recess (MARCH2001) - Today @ 5pm                                                                                        06  150                                
PROFAMCHA001002085337085422000045PB&J Otter (MARCH2001) - Coming Up                                                                                     206  150                                
PRCFAMCHA001002085422085457000035Little Lulu (AUG2000) - Tonight @ 6pm                                                                                  106  150                                
INTFAMCHA001002085457085830000333Art Attack - Mermaid                                                                                                   60686120                                
PRCFAMCHA001002085830085900000030Out of the Box (AUG2000) - Today @ 10:18am                                                                             106  150                                
PRCFAMCHA001002085900085930000030Franklin (MARCH2001) - Today @ 12:30pm                                                                                 106  150                                
PRCFAMCHA001002085930085940000010Morning Block menu background (flex time)                                                                               06  150                                
ID FAMCHA001002085940090000000020Morning block open play pen                                                                                             06  150                                
PROFAMCHA001002090000090005000005CC Disclaimer (oct) **DO NOT USE**                                                                                      06  150                                
PGRFAMCHA001002090005092335002330PB&J Otter                                        Come Back Little Monster/Big Sweep                                  A6068607ECC                              
ID FAMCHA001002092335092340000005Generic ID - Marbles                                                                                                    06  150                                
PRCFAMCHA001002092340092410000030Franklin (MARCH2001) - Today @ 12:30pm                                                                                 106  150                                
PROFAMCHA001002092410092440000030New Adventures of WTP (MARCH2001) - Weekdays @ 7:3                                                                      06  150                                
ID FAMCHA001002092440092500000020Morning block open play pen                                                                                             06  150                                
PROFAMCHA001002092500092505000005CC Disclaimer (oct) **DO NOT USE**                                                                                      06  150                                
PGRFAMCHA001002092505094915002410Busy World Of Richard Scarry; The                 Grand Hotel                                                   P19590 1065607ECC                              
ID FAMCHA001002094915094920000005Generic ID - Fingerpaint                                                                                                06  150                                
PROFAMCHA001002094920094950000030Lion King (AUG2000) - Tonight @ 6:30pm                                                                                 206  150                                
PRCFAMCHA001002094950095020000030Madeline (AUG2000) - Coming Up                                                                                         106  150                                
INTFAMCHA001002095020095131000111Mix Ups - Moving day                                                                                                   60688120                                
PROFAMCHA001002095131095201000030Pepper Ann (MARCH2001) - Today @ 4:30pm                                                                                 06  150                                
PRCFAMCHA001002095201095231000030Out of the Box (AUG2000) - Today @ 10:18am                                                                             106  150                                
PRCFAMCHA001002095231095240000009Morning Block menu background (flex time)                                                                               06  150                                
ID FAMCHA001002095240095300000020Morning block open play pen                                                                                             06  150                                
PROFAMCHA001002095300095305000005CC Disclaimer (oct) **DO NOT USE**                                                                                      06  150                                
PGRFAMCHA001002095305101540002235Madeline                                          Madeline and the Forty Thieves                                       6068607E                                
ID FAMCHA001002101540101547000007Generic ID - Whisper*                                                                                                   06  150                                
PROFAMCHA001002101547101602000015Doug (MARCH2001) - Today @ 4pm                                                                                          06  150                                
PRCFAMCHA001002101602101632000030Out of the Box (AUG2000) - Coming Up                                                                                   106  150                                
PRCFAMCHA001002101632101702000030Franklin (MARCH2001) - Today @ 12:30pm                                                                                 106  150                                
PROFAMCHA001002101702101729000027Recess (MARCH2001) - Today @ 5pm                                                                                        06  150                                
PRCFAMCHA001002101729101740000011Morning Block menu background (flex time)                                                                               06  150                                
ID FAMCHA001002101740101800000020Morning block open play pen                                                                                             06  150                                
PROFAMCHA001002101800101805000005CC Disclaimer (oct) **DO NOT USE**                                                                                      06  150                                
PGRFAMCHA001002101805104101002256Out of the Box                                    Yes and Nose                                                         60686110CC                              
ID FAMCHA001002104101104106000005Generic ID - Couch 2*                                                                                                   06  150                                
PROFAMCHA001002104106104136000030Disney's One, Too - Today @ 4pm                                                                                         06  150                                
PROFAMCHA001002104136104200000024ALF - Today @ Noon                                                                                                      06  150                                
PROFAMCHA001002104200104230000030Mickey Mouseworks - Weekends @ 4:30pm                                                                                   06  150                                
PRCFAMCHA001002104230104240000010Morning Block menu background (flex time)                                                                               06  150                                
ID FAMCHA001002104240104300000020Morning block open play pen                                                                                             06  150                                
PROFAMCHA001002104300104305000005CC Disclaimer (oct) **DO NOT USE**                                                                                      06  150                                
PGRFAMCHA001002104305110724002419Billy The Cat                                     The Big Meow                                                  B27643A1065607ECC                              
ID FAMCHA001002110724110734000010Generic ID - Family w/dog                                                                                               06  150                                
PRCFAMCHA001002110734110804000030Franklin (MARCH2001) - Today @ 12:30pm                                                                                 106  150                                
PRCFAMCHA001002110804110840000036Goof Troop (MARCH2001) - Coming Up                                                                                      06  150                                
PRCFAMCHA001002110840110910000030Out of the Box (AUG2000) - Today @ 2:18pm                                                                              106  150                                
PROFAMCHA001002110910110940000030Pepper Ann (MARCH2001) - Today @ 4:30pm                                                                                 06  150                                
PRCFAMCHA001002110940110950000010Morning Block menu background (flex time)                                                                               06  150                                
ID FAMCHA001002110950111000000010xxMagic of Disney - V4 - KID MALE                                                                                       06  150                                
PROFAMCHA001002111000111005000005CC Disclaimer (oct) **DO NOT USE**                                                                                      06  150                                
PGRFAMCHA001002111005113252002247Goof Troop                                        Close Encounters Of The Weird Mime                                   6068607ECC                              
ID FAMCHA001002113252113302000010Generic ID - confetti                                                                                                   06  150                                
PROFAMCHA001002113302113326000024ALF - Today @ Noon                                                                                                      06  150                                
PROFAMCHA001002113326113347000021Recess (MARCH2001) - Today @ 5pm                                                                                        06  150                                
PROFAMCHA001002113347113405000018Mickey Mouseworks - Weekends @ 4:30pm                                                                                   06  150                                
PRCFAMCHA001002113405113440000035Little Lulu (AUG2000) - Tonight @ 6pm                                                                                  106  150                                
PRCFAMCHA001002113440113450000010Morning Block menu background (flex time)                                                                               06  150                                
ID FAMCHA001002113450113500000010xxMagic of Disney - V2(sky) - TEEN FEMALE                                                                               06  150                                
PROFAMCHA001002113500113505000005CC Disclaimer (oct) **DO NOT USE**                                                                                      06  150                                
PGRFAMCHA001002113505115736002231Disney's Aladdin                                  The Flawed Couple                                                    6068607ECC                              
ID FAMCHA001002115736115746000010Generic ID - confetti                                                                                                   06  150                                
PROFAMCHA001002115746115816000030Lion King (AUG2000) - Tonight @ 6:30pm                                                                                 206  150                                
PROFAMCHA001002115816115840000024ALF - Coming Up                                                                                                         06  150                                
PROFAMCHA001002115840115908000028Honey (MARCH2001) - Tonight @ 8pm                                                                                       06  150                                
PROFAMCHA001002115908115935000027Recess (MARCH2001) - Today @ 5pm                                                                                        06  150                                
PRCFAMCHA001002115935115945000010Morning Block menu background (flex time)                                                                               06  150                                
ID FAMCHA001002115945120000000015Afternoon block pinball open **DO NOT USE**                                                                             06  150                                
PROFAMCHA001002120000120005000005CC Disclaimer (oct) **DO NOT USE**                                                                                      06  150                                
PGRFAMCHA001002120005122130002125ALF                                               Isn't It Romantic                                                   A2068807BCC                              
ID FAMCHA001002122130122140000010Generic ID - Ring around the rosie                                                                                      06  150                                
PRCFAMCHA001002122140122215000035Little Lulu (AUG2000) - Tonight @ 6pm                                                                                  106  150                                
PRCFAMCHA001002122215122245000030Franklin (MARCH2001) - Coming Up                                                                                       106  150                                
PGRFAMCHA001002122245122914000629Richard Scarry (ii) Plight Of Penelpe Parakeet                                                                  P19589 10656150                                
PROFAMCHA001002122914122935000021Recess (MARCH2001) - Today @ 5pm                                                                                        06  150                                
PRCFAMCHA001002122935122945000010Morning Block menu background (flex time)                                                                               06  150                                
ID FAMCHA001002122945123000000015Afternoon block pinball open **DO NOT USE**                                                                             06  150                                
PROFAMCHA001002123000123005000005CC Disclaimer (oct) **DO NOT USE**                                                                                      06  150                                
PGRFAMCHA001002123005125258002253Franklin                                          Franklin's Day Off/Franklin's Homemade Cookies                P02772A1065607ECC                              
ID FAMCHA001002125258125303000005Generic ID - Marbles                                                                                                    06  150                                
PROFAMCHA001002125303125318000015Doug (MARCH2001) - Today @ 4pm                                                                                          06  150                                
PROFAMCHA001002125318125403000045PB&J Otter (MARCH2001) - Coming Up                                                                                     206  150                                
INTFAMCHA001002125403125829000426MV Disney - Love Will Find A Way (KENNY LATIMORE/H                                                                     60688120                                
PRCFAMCHA001002125829125859000030Out of the Box (AUG2000) - Today @ 2:18pm                                                                              106  150                                
PRCFAMCHA001002125859125934000035Little Lulu (AUG2000) - Tonight @ 6pm                                                                                  106  150                                
PRCFAMCHA001002125934125945000011Morning Block menu background (flex time)                                                                               06  150                                
ID FAMCHA001002125945130000000015Afternoon block pinball open **DO NOT USE**                                                                             06  150                                
PROFAMCHA001002130000130005000005CC Disclaimer (oct) **DO NOT USE**                                                                                      06  150                                
PGRFAMCHA001002130005132335002330PB&J Otter                                        Butter Tags Along/Flick's Big Find                                  A6068607ECC                              
ID FAMCHA001002132335132345000010Generic ID - soccer **DO NOT USE**                                                                                      06  150                                
PROFAMCHA001002132345132415000030Pepper Ann (MARCH2001) - Today @ 4:30pm                                                                                 06  150                                
PRCFAMCHA001002132415132445000030Out of the Box (AUG2000) - Today @ 2:18pm                                                                              106  150                                
ID FAMCHA001002132445132500000015Afternoon block pinball open **DO NOT USE**                                                                             06  150                                
PROFAMCHA001002132500132505000005CC Disclaimer (oct) **DO NOT USE**                                                                                      06  150                                
PGRFAMCHA001002132505134915002410Busy World Of Richard Scarry; The                 Lowly Breaks A Leg                                            P19591 1065607ECC                              
ID FAMCHA001002134915134920000005Generic ID - Couch 2*                                                                                                   06  150                                
PRCFAMCHA001002134920134950000030Out of the Box (AUG2000) - Today @ 2:18pm                                                                              106  150                                
PRCFAMCHA001002134950135020000030Madeline (AUG2000) - Coming Up                                                                                         106  150                                
INTFAMCHA001002135020135205000145Disney Circle Time - My Shadow (anywhere but D12)                                                                      60688120                                
PROFAMCHA001002135205135235000030Lion King (AUG2000) - Tonight @ 6:30pm                                                                                 206  150                                
PRCFAMCHA001002135235135245000010Morning Block menu background (flex time)                                                                               06  150                                
ID FAMCHA001002135245135300000015Afternoon block pinball open **DO NOT USE**                                                                             06  150                                
PROFAMCHA001002135300135305000005CC Disclaimer (oct) **DO NOT USE**                                                                                      06  150                                
PGRFAMCHA001002135305141547002242Madeline                                          Madeline and the Dog Show                                            6068607E                                
ID FAMCHA001002141547141557000010Generic ID - Ring around the rosie                                                                                      06  150                                
PROFAMCHA001002141557141627000030Pepper Ann (MARCH2001) - Today @ 4:30pm                                                                                 06  150                                
PRCFAMCHA001002141627141657000030Out of the Box (AUG2000) - Coming Up                                                                                   106  150                                
PROFAMCHA001002141657141712000015Doug (MARCH2001) - Today @ 4pm                                                                                          06  150                                
PROFAMCHA001002141712141733000021Recess (MARCH2001) - Today @ 5pm                                                                                        06  150                                
PRCFAMCHA001002141733141745000012Morning Block menu background (flex time)                                                                               06  150                                
ID FAMCHA001002141745141800000015Afternoon block pinball open **DO NOT USE**                                                                             06  150                                
PGRFAMCHA001002141800144125002325Out of the Box                                    Pick a Pet                                                           60686110                                
ID FAMCHA001002144125144130000005Generic ID - Fingerpaint                                                                                                06  150                                
PRCFAMCHA001002144130144205000035Little Lulu (AUG2000) - Tonight @ 6pm                                                                                  106  150                                
PROFAMCHA001002144205144235000030Lion King (AUG2000) - Tonight @ 6:30pm                                                                                 206  150                                
PRCFAMCHA001002144235144245000010Morning Block menu background (flex time)                                                                               06  150                                
ID FAMCHA001002144245144300000015Afternoon block pinball open **DO NOT USE**                                                                             06  150                                
PROFAMCHA001002144300144305000005CC Disclaimer (oct) **DO NOT USE**                                                                                      06  150                                
PGRFAMCHA001002144305150723002418Billy The Cat                                     The Jolly Mouser                                              B27644A1065607ECC                              
ID FAMCHA001002150723150733000010Generic ID - Pink inner tube                                                                                            06  150                                
PROFAMCHA001002150733150803000030Disney's One, Too - Today @ 4pm                                                                                         06  150                                
PRCFAMCHA001002150803150839000036Goof Troop (MARCH2001) - Coming Up                                                                                      06  150                                
PROFAMCHA001002150839150907000028Honey (MARCH2001) - Tonight @ 8pm                                                                                       06  150                                
ID FAMCHA001002150907150916000009URL(1) - CONTESTS                                                                                                       06  150                                
PROFAMCHA001002150916150940000024ALF - Tonight @ 7:30pm                                                                                                  06  150                                
PRCFAMCHA001002150940150950000010Morning Block menu background (flex time)                                                                               06  150                                
ID FAMCHA001002150950151000000010xxMagic of Disney - V2(sky) - TEEN FEMALE                                                                               06  150                                
PROFAMCHA001002151000151005000005CC Disclaimer (oct) **DO NOT USE**                                                                                      06  150                                
PGRFAMCHA001002151005153250002245Goof Troop                                        Slightly Dinghy                                                      6068607ECC                              
ID FAMCHA001002153250153255000005Generic ID - Couch 2*                                                                                                   06  150                                
PROFAMCHA001002153255153325000030Pepper Ann (MARCH2001) - Today @ 4:30pm                                                                                 06  150                                
PROFAMCHA001002153325153349000024ALF - Tonight @ 7:30pm                                                                                                  06  150                                
PROFAMCHA001002153349153406000017Mentors - Version 2 - On Family*                                                                                       606  150                                
PROFAMCHA001002153406153440000034Ben-Hur (OCT6) - Friday @ 9:00pm                                                                                        06  150                                
PRCFAMCHA001002153440153450000010Morning Block menu background (flex time)                                                                               06  150                                
ID FAMCHA001002153450153500000010xxMagic of Disney - V3(water) - TEEN MALE                                                                               06  150                                
PROFAMCHA001002153500153505000005CC Disclaimer (oct) **DO NOT USE**                                                                                      06  150                                
PGRFAMCHA001002153505155742002237Disney's Aladdin                                  Of Ice And Men                                                       6068607ECC                              
ID FAMCHA001002155742155752000010Generic ID - Bubbles                                                                                                    06  150                                
PROFAMCHA001002155752155826000034Ben-Hur (OCT6) - Friday @ 9:00pm                                                                                        06  150                                
PROFAMCHA001002155826155856000030Disney's One, Too - Coming Up                                                                                           06  150                                
PROFAMCHA001002155856155914000018Mickey Mouseworks - Weekends @ 4:30pm                                                                                   06  150                                
PROFAMCHA001002155914155938000024ALF - Tonight @ 7:30pm                                                                                                  06  150                                
PRCFAMCHA001002155938155950000012Morning Block menu background (flex time)                                                                               06  150                                
ID FAMCHA001002155950160000000010xxMagic of Disney - V4 - TEEN FEMALE                                                                                    06  150                                
