SO FAMCHA090501043000043011000011Sign On (oct 1)                                                                                                                                                
PRCFAMCHA090501043011043020000009CC Disclaimer - FAST - Family.ca (:09-:10)                                                                                  150                                
PGRFAMCHA090501043020045658002638Katie And Orbie                                   EP: 4-046                                                     C19664A1065607ECC                              
PRCFAMCHA090501045658045709000011FJR - 02 - FRANNY'S FEET / BENJAMIN BEAR (SEPT08)                                                                           150                                
PRCFAMCHA090501045709045723000014Family Jr. Bumper - Portal (:14- :17) (JUL08)                                                                               150                                
PRCFAMCHA090501045723045732000009CC Disclaimer - FAST - Generic (:09-:10)                                                                                    150                                
PGRFAMCHA090501045732052002002230Franny's Feet                                     EPS # 21                                                      C23971 1065607ECC                              
PRCFAMCHA090501052002052008000006Astral ID - Family Jr. Version (MAR 2009)                                                                                   150                                
PRCFAMCHA090501052008052021000013FJR - 03 - BENJAMIN BEAR / HOZE HOUNDZ (SEPT08)                                                                             150                                
PRCFAMCHA090501052021052033000012Family Jr. Bumper - Music (:11- :14) (JUL08)                                                                                150                                
PRCFAMCHA090501052033052042000009CC Disclaimer - FAST - Family.ca (:09-:10)                                                                                  150                                
PGRFAMCHA090501052042054317002235The Secret World Of Benjamin Bear                 EPS # 1-012                                                   B75157 1065607ECC                              
PRCFAMCHA090501054317054328000011FJR - 04 - HOZE HOUNDZ / HENRY'S WORLD (SEPT08)                                                                             150                                
PRCFAMCHA090501054328054341000013Family Jr. Bumper - Collide (:11- :14) (JUL08)                                                                              150                                
PRCFAMCHA090501054341054350000009CC Disclaimer - FAST - Generic (:09-:10)                                                                                    150                                
PGRFAMCHA090501054350060628002238Hoze Houndz                                       EP: 4-049                                                     B63385A1065607ECC                              
PRCFAMCHA090501060628060634000006Astral ID - Family Jr. Version (MAR 2009)                                                                                   150                                
PRCFAMCHA090501060634060647000013FJR - 05 - HENRY'S WORLD / KING (SEPT08)                                                                                    150                                
PRCFAMCHA090501060647060657000010Family Jr. Bumper - Acrobat (:10- :13) (JUL08)                                                                              150                                
PRCFAMCHA090501060657060706000009CC Disclaimer - FAST - Family.ca (:09-:10)                                                                                  150                                
PGRFAMCHA090501060706063106002400Henry's World                                     EP: 2-016                                                     B81047A1065607GCC                              
PRCFAMCHA090501063106063117000011FJR - 06 - KING (SEPT08)                                                                                                    150                                
PRCFAMCHA090501063117063131000014Family Jr. Bumper - Portal (:14- :17) (JUL08)                                                                               150                                
PRCFAMCHA090501063131063140000009CC Disclaimer - FAST - Generic (:09-:10)                                                                                    150                                
PGRFAMCHA090501063140065410002230King                                              EP: 4-051                                                     C25350 1065607ECC                              
PRCFAMCHA090501065410065416000006Astral ID - Family Jr. Version (MAR 2009)                                                                                   150                                
PRCFAMCHA090501065416065428000012MMM - 01 - RECESS/PHINEAS (:11 - :13) (OCT08)                                                                               150                                
PRCFAMCHA090501065428065506000038FOD - Family On Demand - Generic - Check you local                                                                          150                                
PROFAMCHA090501065506065531000025Recess - CAREER DAY (MMM) - (JULY06) - Coming Up N                                                                          150                                
PROFAMCHA090501065531065550000019MadMadMornings Block Open                                                                                                   150                                
PRCFAMCHA090501065550065559000009CC Disclaimer - FAST - Generic (:09-:10)                                                                                    150                                
PGRFAMCHA090501065559071833002234Disney's Recess                                   EP: 1-002                                                            6068607ECC                              
PRCFAMCHA090501071833071846000013MMM - 02 - PHINEAS/WEEKENDERS (:11 - :13) (OCT08)                                                                           150                                
PRCFAMCHA090501071846071935000049Family Kicks Contest Spot - 4 Per Day (April 10 -                                                                           150                                
PROFAMCHA090501071935072008000033Weekenders - TINO (MMM) This Morning @ 7:50am (NOV                                                                          150                                
PRCFAMCHA090501072008072014000006xxFamily Bumpers - (Phase 3 Spring 05) - Bubble Gu                                                                          150                                
PROFAMCHA090501072014072024000010FAMJAM - Open/Close                                                                                                         150                                
PGRFAMCHA090501072024072226000202MV NON-DISNEY (MD/NS/NSW) - Roxy Hunter - I'll Fig                                                                     20688120                                
PROFAMCHA090501072226072240000014xxFAMJAM - Close (FAMILY) xxDNUxx                                                                                           150                                
PROFAMCHA090501072240072259000019Phineas & Ferb (MMM) Isabella Tease - Coming Up Ne                                                                          150                                
PROFAMCHA090501072259072329000030My Dog Skip - Tonight @ 7:30pm (APRIL09)                                                                                    150                                
PROFAMCHA090501072329072348000019MadMadMornings Block Open                                                                                                   150                                
PRCFAMCHA090501072348072358000010CC Disclaimer - FAST - Family.ca (:09-:10)                                                                                  150                                
PGRFAMCHA090501072358074628002230Disney Phineas & Ferb                             EP: 12                                                               6068607ECC                              
PRCFAMCHA090501074628074634000006Astral ID (FEB 2009)                                                                                                        150                                
PRCFAMCHA090501074634074646000012MMM - 03 - WEEKENDERS/KIM POSSIBLE (:11 - :13) (OC                                                                          150                                
PRCFAMCHA090501074646074731000045PPP Red Carpet /La Senza Girl Contest  - 4 Per Day                                                                          150                                
PROFAMCHA090501074731074811000040Hannah Montana The Movie - CD Sdtrk- Available Now                                                                          150                                
PROFAMCHA090501074811074822000011Kim Possible BAD GUYS (MMM) Today @ 8:20am (OCT08)                                                                          150                                
PRCFAMCHA090501074822075007000145Movie Entertainment (8)                                                                                                     150                                
PROFAMCHA090501075007075037000030Weekenders - TISH (MMM) Coming Up Next (NOV08)                                                                              150                                
PROFAMCHA090501075037075056000019MadMadMornings Block Open                                                                                                   150                                
PRCFAMCHA090501075056075105000009CC Disclaimer - FAST - Family.ca (:09-:10)                                                                                  150                                
PGRFAMCHA090501075105081337002232Disney's The Weekenders                           EP: 1-020                                                           A6068607ECC                              
PRCFAMCHA090501081337081350000013MMM - 04 - KIM POSSIBLE (:11 - :13) (OCT08)                                                                                 150                                
PRCFAMCHA090501081350081430000040Really Big Birthdays - July - 3-4 X Day (May 1 -31                                                                          150                                
PROFAMCHA090501081430081517000047Kim Possible MISSION (MMM) Coming Up Next (JAN09)                                                                           150                                
PROFAMCHA090501081517081527000010FAMJAM - Open/Close                                                                                                         150                                
PGRFAMCHA090501081527081657000130MV Disney - (MD/NS/NSW) - Jesse McCartney - Just S                                                                     60688120                                
PROFAMCHA090501081657081711000014xxFAMJAM - Close (FAMILY) xxDNUxx                                                                                           150                                
PRCFAMCHA090501081711081749000038Family Web Player Version 2 Promo - No Tag 3/day (                                                                          150                                
PROFAMCHA090501081749081808000019MadMadMornings Block Open                                                                                                   150                                
PRCFAMCHA090501081808081817000009CC Disclaimer - FAST - Generic (:09-:10)                                                                                    150                                
PGRFAMCHA090501081817084106002249Disney's Kim Possible                             EP: 1-003                                                           A6068607ECC                              
PRCFAMCHA090501084106084112000006Astral ID - Family Jr. Version (MAR 2009)                                                                                   150                                
PRCFAMCHA090501084112084125000013FJR - 07 - IMAGINATION MOVERS/FRANNY'S FEET (JAN09                                                                          150                                
PROFAMCHA090501084125084249000124PH-D Promo - I'm Rockin' Monday With PSA - Monday                                                                           150                                
PRCFAMCHA090501084249084324000035Franny's Feet (FJR) GENERIC - This Morning @ 9:10                                                                           150                                
PROFAMCHA090501084324084354000030Tigger and Pooh (FJR) DARBY SELL - New Eps - This                                                                           150                                
PROFAMCHA090501084354084424000030Imagination Movers (FJR) Coming Up Next (JAN09)                                                                             150                                
PRCFAMCHA090501084424084449000025PH-D Promo - Ooh & Ahh PH-D Throw 2009 - Call Your                                                                          150                                
ID FAMCHA090501084449084505000016Family Jr. Block Open (:14-:17) (JUL08)                                                                                     150                                
PRCFAMCHA090501084505084514000009CC Disclaimer - FAST - Family.ca (:09-:10)                                                                                  150                                
PGRFAMCHA090501084514090914002400Disney Imagination Movers                         EP: 16                                                               6068607ACC                              
PRCFAMCHA090501090914090924000010FJR - 08 - FRANNY'S FEET/TIGGER & POOH (:09 - :12)                                                                          150                                
PROFAMCHA090501090924090954000030PH-D Promo - Jack Grunsky in Halifax Stunt - Satur                                                                          150                                
PRCFAMCHA090501090954091029000035Franny's Feet (FJR) GENERIC - Coming Up Next (JUL0                                                                          150                                
PROFAMCHA090501091029091038000009PH-D Promo - Ooh & Aah Web Throw - PH-D.CA                                                                                  150                                
PRCFAMCHA090501091038091049000011Family Jr. Bumper - Acrobat (:10- :13) (JUL08)                                                                              150                                
PRCFAMCHA090501091049091059000010CC Disclaimer - FAST - Generic (:09-:10)                                                                                    150                                
PGRFAMCHA090501091059093330002231Franny's Feet                                     EPS # 30                                                      C23971 1065607ECC                              
PRCFAMCHA090501093330093336000006Astral ID - Family Jr. Version (MAR 2009)                                                                                   150                                
PRCFAMCHA090501093336093347000011FJR - 09 - TIGGER & POOH/MICKEY MOUSE CLUBHOUSE (:                                                                          150                                
PROFAMCHA090501093347093511000124PH-D Promo - I'm Rockin' Monday With PSA - Monday                                                                           150                                
PROFAMCHA090501093511093527000016Mickey Mouse Clubhouse (FJR) GENERIC - This Mornin                                                                          150                                
PROFAMCHA090501093527093612000045Tigger and Pooh (FJR) POOH SELL - New Eps - Coming                                                                          150                                
PROFAMCHA090501093612093642000030PH-D Promo - Jack Grunsky in Halifax Stunt - Satur                                                                          150                                
PRCFAMCHA090501093642093655000013Family Jr. Bumper - Collide (:11- :14) (JUL08)                                                                              150                                
PRCFAMCHA090501093655093704000009CC Disclaimer - FAST - Family.ca (:09-:10)                                                                                  150                                
PGRFAMCHA090501093704100106002402Disney My Friends Tigger & Pooh                   EP: 01                                                               6068607ECC                              
PRCFAMCHA090501100106100117000011FJR - 10 - MICKEY MOUSE CLUBHOUSE/HANDY MANNY (:10                                                                          150                                
PROFAMCHA090501100117100147000030PH-D Promo - Ooh & Aah.Ca Throw 08 - PH-D.CA                                                                                150                                
PROFAMCHA090501100147100202000015Handy Manny (FJR) TIME - New Eps - This Morning @                                                                           150                                
PROFAMCHA090501100202100233000031Mickey Mouse Clubhouse (FJR) GENERIC - Coming Up N                                                                          150                                
PROFAMCHA090501100233100339000106PH-D Special Agent OSO Premise Sell - Premiering S                                                                          150                                
PRCFAMCHA090501100339100350000011Family Jr. Bumper - Music (:11- :14) (JUL08)                                                                                150                                
PRCFAMCHA090501100350100359000009CC Disclaimer - FAST - Generic (:09-:10)                                                                                    150                                
PGRFAMCHA090501100359102801002402Disney's Mickey Mouse Clubhouse                   EP: 17                                                               6068607ECC                              
PRCFAMCHA090501102801102807000006Astral ID - Family Jr. Version (MAR 2009)                                                                                   150                                
PRCFAMCHA090501102807102818000011FJR - 11 - HANDY MANNY/BENJAMIN BEAR (:10 - :13) (                                                                          150                                
PROFAMCHA090501102818102848000030PH-D Promo - Jack Grunsky in Halifax Stunt - Satur                                                                          150                                
PROFAMCHA090501102848102918000030Handy Manny (FJR) NEIGHBOURS - New Eps - Coming Up                                                                          150                                
PRCFAMCHA090501102918102943000025PH-D Promo - Ooh & Ahh PH-D Throw 2009 - Call Your                                                                          150                                
PRCFAMCHA090501102943102959000016Family Jr. Bumper - Portal (:14- :17) (JUL08)                                                                               150                                
PRCFAMCHA090501102959103008000009CC Disclaimer - FAST - Family.ca (:09-:10)                                                                                  150                                
PGRFAMCHA090501103008105406002358Handy Manny                                       EP: 23                                                               6068607ECC                              
PRCFAMCHA090501105406105417000011FJR - 12 - BENJAMIN BEAR/KING (:10 - :13) (JULY08)                                                                          150                                
PROFAMCHA090501105417105541000124PH-D Promo - I'm Rockin' Monday With PSA - Monday                                                                           150                                
PRCFAMCHA090501105541105611000030King (FJR) GENERIC - This Morning @ 11:25 (JUL08)                                                                           150                                
PRCFAMCHA090501105611105641000030Benjamin Bear (FJR) GENERIC - Coming Up Next (JUL0                                                                          150                                
PROFAMCHA090501105641105650000009PH-D Promo - Ooh & Aah Web Throw - PH-D.CA                                                                                  150                                
PRCFAMCHA090501105650105701000011Family Jr. Bumper - Acrobat (:10- :13) (JUL08)                                                                              150                                
PRCFAMCHA090501105701105710000009CC Disclaimer - FAST - Generic (:09-:10)                                                                                    150                                
PGRFAMCHA090501105710111939002229Secret World of Benjamin Bear, The                EP: 16                                                        C26066 1065607ECC                              
PRCFAMCHA090501111939111945000006Astral ID - Family Jr. Version (MAR 2009)                                                                                   150                                
PRCFAMCHA090501111945111955000010FJR - 13 - KING/RECESS (:09 - :12) (JULY08)                                                                                 150                                
PROFAMCHA090501111955112119000124PH-D Promo - I'm Rockin' Monday With PSA - Monday                                                                           150                                
PGRFAMCHA090501112119112350000231Cars Toons # 1 (Rescue Squad Mater)                                                                                   A60688120                                
PRCFAMCHA090501112350112420000030King (FJR) GENERIC - Coming Up Next (JUL08)                                                                                 150                                
PROFAMCHA090501112420112450000030PH-D Promo - Jack Grunsky in Halifax Stunt - Satur                                                                          150                                
PRCFAMCHA090501112450112502000012Family Jr. Bumper - Collide (:11- :14) (JUL08)                                                                              150                                
PRCFAMCHA090501112502112511000009CC Disclaimer - FAST - Family.ca (:09-:10)                                                                                  150                                
PGRFAMCHA090501112511114741002230King                                              EP: 4-045                                                     C25350 1065607ECC                              
PRCFAMCHA090501114741114747000006Astral ID (FEB 2009)                                                                                                        150                                
PRCFAMCHA090501114747114759000012MD - 01 - RECESS/KIM (:11 - :13) (JULY08)                                                                                   150                                
PRCFAMCHA090501114759114816000017Family First Generic Throw - Promo SHORT VERSION -                                                                          150                                
PROFAMCHA090501114816114841000025Recess - CAREER DAY (MD) - (JULY06) - Coming Up Ne                                                                          150                                
PROFAMCHA090501114841114858000017Mad Dash Block Open (:16-:18) APR06                                                                                         150                                
PRCFAMCHA090501114858114907000009CC Disclaimer - FAST - Generic (:09-:10)                                                                                    150                                
PGRFAMCHA090501114907121142002235Disney's Recess                                   EP: 1-057                                                            6068607ECC                              
PRCFAMCHA090501121142121154000012MD - 02 - KIM/WEEKENDERS (:11 - :13) (JULY08)                                                                               150                                
PRCFAMCHA090501121154121243000049Family Kicks Contest Spot - 4 Per Day (April 10 -                                                                           150                                
PROFAMCHA090501121243121310000027Weekenders - CARVER (MD) This Afternoon @ 12:40pm                                                                           150                                
PROFAMCHA090501121310121325000015Kim Possible BOYFRIEND (MD) Coming Up Next (JULY08                                                                          150                                
PROFAMCHA090501121325121355000030My Dog Skip - Tonight @ 7:30pm (APRIL09)                                                                                    150                                
PRCFAMCHA090501121355121402000007MD Bumper - Ski Race (:07-:09) APR06                                                                                        150                                
PRCFAMCHA090501121402121411000009CC Disclaimer - FAST - Family.ca (:09-:10)                                                                                  150                                
PGRFAMCHA090501121411123704002253Disney's Kim Possible                             EP: 05                                                               6068607ECC                              
PRCFAMCHA090501123704123710000006Astral ID (FEB 2009)                                                                                                        150                                
PRCFAMCHA090501123710123722000012MD - 03 - WEEKENDERS/AMERICAN DRAGON (:11 - :13) (                                                                          150                                
PRCFAMCHA090501123722123807000045PPP Red Carpet /La Senza Girl Contest  - 4 Per Day                                                                          150                                
PROFAMCHA090501123807123838000031Weekenders - LOR (MD) Coming Up Next (JAN09)                                                                                150                                
PRCFAMCHA090501123838123855000017MD Bumper - Shopping Race (:15-:17) APR06                                                                                   150                                
PRCFAMCHA090501123855123905000010CC Disclaimer - FAST - Generic (:09-:10)                                                                                    150                                
PGRFAMCHA090501123905130151002246Disney's The Weekenders                           EP: 1-031                                                           A6068607ECC                              
PRCFAMCHA090501130151130204000013MD - 04 - AMERICAN DRAGON/EMPERORS'S (:11 - :13) (                                                                          150                                
PRCFAMCHA090501130204130244000040Really Big Birthdays - July - 3-4 X Day (May 1 -31                                                                          150                                
PROFAMCHA090501130244130302000018Emperor's New School (MD) BUTT IN URN - This After                                                                          150                                
PROFAMCHA090501130302130316000014American Dragon Jake Long (MD) JAKE - Coming Up Ne                                                                          150                                
PROFAMCHA090501130316130350000034High School Musical Karaoke Tomorrow @ 1:30 (Sept0                                                                          150                                
PRCFAMCHA090501130350130400000010MD Bumper - Race Cars (:08-:10) JUNE06                                                                                      150                                
PRCFAMCHA090501130400130409000009CC Disclaimer - FAST - Family.ca (:09-:10)                                                                                  150                                
PGRFAMCHA090501130409132645002236Disney's American Dragon: Jake Long               EP: 32                                                               6068607ECC                              
PRCFAMCHA090501132645132651000006Astral ID (FEB 2009)                                                                                                        150                                
PRCFAMCHA090501132651132703000012MD - 05 - EMPEROR'S/FILLMORE (:11 - :13) (JULY08)                                                                           150                                
PRCFAMCHA090501132703132752000049Family Kicks Contest Spot - 4 Per Day (April 10 -                                                                           150                                
PROFAMCHA090501132752132836000044Emperor's New School (MD) KUZCO - Coming Up Next (                                                                          150                                
PRCFAMCHA090501132836132853000017Family First Generic Throw - Promo SHORT VERSION -                                                                          150                                
PRCFAMCHA090501132853132901000008MD Bumper - Ski Race (:07-:09) APR06                                                                                        150                                
PRCFAMCHA090501132901132910000009CC Disclaimer - FAST - Generic (:09-:10)                                                                                    150                                
PGRFAMCHA090501132910135146002236Disney's The Emperor's New School                 EP: 15                                                               6068807ECC                              
PRCFAMCHA090501135146135158000012MD - 06 - FILLMORE/WEEKENDERS (:11 - :13) (JULY08)                                                                          150                                
PROFAMCHA090501135158135228000030My Dog Skip - Tonight @ 7:30pm (APRIL09)                                                                                    150                                
PROFAMCHA090501135228135258000030Fillmore (MD) LAW & ORDER - Coming Up Next (AUG08)                                                                          150                                
PRCFAMCHA090501135258135336000038Family Web Player Version 2 Promo - No Tag 3/day (                                                                          150                                
PRCFAMCHA090501135336135352000016MD Bumper - Shopping Race (:15-:17) APR06                                                                                   150                                
PRCFAMCHA090501135352135401000009CC Disclaimer - FAST - Family.ca (:09-:10)                                                                                  150                                
PGRFAMCHA090501135401141639002238Disney's Fillmore!                                EP: 1-001                                                            6068607ECC                              
PRCFAMCHA090501141639141645000006Astral ID (FEB 2009)                                                                                                        150                                
PRCFAMCHA090501141645141657000012MD - 07 - WEEKENDERS/KIM (:11 - :13) (JULY08)                                                                               150                                
PRCFAMCHA090501141657141742000045PPP Red Carpet /La Senza Girl Contest  - 4 Per Day                                                                          150                                
PROFAMCHA090501141742141815000033Weekenders - TINO (MD) Coming Up Next (NOV08)                                                                               150                                
PRCFAMCHA090501141815141853000038FOD - Family On Demand - Generic - Check you local                                                                          150                                
PRCFAMCHA090501141853141902000009MD Bumper - Race Cars (:08-:10) JUNE06                                                                                      150                                
PRCFAMCHA090501141902141912000010CC Disclaimer - FAST - Family.ca (:09-:10)                                                                                  150                                
PGRFAMCHA090501141912144206002254Disney's The Weekenders                           EP: 1-012                                                           A6068607ECC                              
PRCFAMCHA090501144206144219000013MD - 08 - KIM/REPLACEMENTS (:11 - :13) (JULY08)                                                                             150                                
PROFAMCHA090501144219144306000047Kim Possible MISSION (MD) Coming Up Next (JAN09)                                                                            150                                
PRCFAMCHA090501144306144356000050Family Online Community Promo - 3/4 Day (not in PH                                                                          150                                
PRCFAMCHA090501144356144405000009MD Bumper - Ski Race (:07-:09) APR06                                                                                        150                                
PRCFAMCHA090501144405144415000010CC Disclaimer - FAST - Generic (:09-:10)                                                                                    150                                
PGRFAMCHA090501144415150706002251Disney's Kim Possible                             EP: 01                                                               6068607ECC                              
PRCFAMCHA090501150706150712000006Astral ID (FEB 2009)                                                                                                        150                                
PRCFAMCHA090501150712150725000013MD - 09 - REPLACEMENTS/EMPEROR (:11 - :13) (JULY08                                                                          150                                
PRCFAMCHA090501150725150814000049Family Kicks Contest Spot - 4 Per Day (April 10 -                                                                           150                                
PROFAMCHA090501150814150854000040Legally Blonde DVD Blast - Available Now (April 28                                                                          150                                
PROFAMCHA090501150854150918000024Emperor's New School (MD) ZIT - New Eps - This Aft                                                                          150                                
PRCFAMCHA090501150918150924000006xxFamily Bumpers - Reptile Pet - Silly Horn (MD/NS                                                                          150                                
PRCFAMCHA090501150924151039000115Movie Entertainment (8)                                                                                                     150                                
PROFAMCHA090501151039151108000029Replacements (MD) BABYSITTER - New Eps - Coming Up                                                                          150                                
PROFAMCHA090501151108151142000034High School Musical Karaoke Tomorrow @ 1:30 (Sept0                                                                          150                                
PRCFAMCHA090501151142151159000017MD Bumper - Shopping Race (:15-:17) APR06                                                                                   150                                
PGRFAMCHA090501151159153429002230The Replacements                                  EP: 28                                                               6028607ECC                              
PRCFAMCHA090501153429153442000013MD - 10 - EMPEROR 3:40/RECESS 4:10 (:11 - :13) (JA                                                                          150                                
PROFAMCHA090501153442153512000030My Dog Skip - Tonight @ 7:30pm (APRIL09)                                                                                    150                                
PROFAMCHA090501153512153552000040Hannah Montana The Movie - CD Sdtrk- Available Now                                                                          150                                
PROFAMCHA090501153552153625000033Recess - COOTIE SHOTS (MD) - This Afternoon @ 4:10                                                                          150                                
PROFAMCHA090501153625153635000010FAMJAM - Open/Close                                                                                                         150                                
PGRFAMCHA090501153635153805000130MV Disney - (MD/NS/NSW) - Jesse McCartney - Just S                                                                     60688120                                
PROFAMCHA090501153805153819000014xxFAMJAM - Close (FAMILY) xxDNUxx                                                                                           150                                
PROFAMCHA090501153819153903000044Emperor's New School (MD) KUZCO - New Eps - Coming                                                                          150                                
PRCFAMCHA090501153903153943000040Really Big Birthdays - July - 3-4 X Day (May 1 -31                                                                          150                                
PRCFAMCHA090501153943153951000008MD Bumper - Race Cars (:08-:10) JUNE06                                                                                      150                                
PRCFAMCHA090501153951154000000009CC Disclaimer - FAST - Generic (:09-:10)                                                                                    150                                
PGRFAMCHA090501154000160231002231Disney's The Emperor's New School                 EP: 30                                                               6068807ECC                              
PRCFAMCHA090501160231160237000006Astral ID (FEB 2009)                                                                                                        150                                
PRCFAMCHA090501160237160249000012MD - 11 - RECESS 4:10/PHINEAS 4:35 (:11 - :13) (JA                                                                          150                                
PRCFAMCHA090501160249160327000038FOD - Family On Demand - Generic - Check you local                                                                          150                                
PROFAMCHA090501160327160407000040Froot Loops - Colossal Island (April 6 - May 3) $$                                                                          150                                
PROFAMCHA090501160407160438000031Phineas & Ferb (MD) Perry Char. Sell  - This After                                                                          150                                
PROFAMCHA090501160438160510000032Suite Life of Z & C (MD) IMPRESS - This Afternoon                                                                           150                                
PGRFAMCHA090501160510160555000045UPisode #1 - In Theatres May 29                                                                                       A60688120                                
PROFAMCHA090501160555160629000034Recess - HEROES (MD) - (APR06) - Coming Up Next                                                                             150                                
PROFAMCHA090501160629160709000040Rice Krispies - Singing With Bars (April 6 - May 3                                                                          150                                
PRCFAMCHA090501160709160759000050Family Online Community Promo - 3/4 Day (not in PH                                                                          150                                
PRCFAMCHA090501160759160807000008MD Bumper - Ski Race (:07-:09) APR06                                                                                        150                                
PRCFAMCHA090501160807160816000009CC Disclaimer - FAST - Family.ca (:09-:10)                                                                                  150                                
PGRFAMCHA090501160816163051002235Disney's Recess                                   EP: 1-015                                                            6068607ECC                              
PRCFAMCHA090501163051163103000012MD - 12 - PHINEAS 4:35/ SUITE LIFE OF Z & C 5:05 (                                                                          150                                
PRCFAMCHA090501163103163148000045PPP Red Carpet /La Senza Girl Contest  - 4 Per Day                                                                          150                                
PROFAMCHA090501163148163228000040Froot Loops - Colossal Island (April 6 - May 3) $$                                                                          150                                
PROFAMCHA090501163228163325000057Suite Life of Z & C (MD) FAB LIFESTYLES - This Aft                                                                          150                                
PROFAMCHA090501163325163406000041Hannah Montana - EVERYWHERE (NS) NEW EPS - This Af                                                                          150                                
PROFAMCHA090501163406163424000018Phineas & Ferb (MD) Ferb Tease - Coming Up Next (J                                                                          150                                
PROFAMCHA090501163424163504000040Rice Krispies - Singing With Bars (April 6 - May 3                                                                          150                                
PROFAMCHA090501163504163534000030My Dog Skip - Tonight @ 7:30pm (APRIL09)                                                                                    150                                
PRCFAMCHA090501163534163551000017MD Bumper - Shopping Race (:15-:17) APR06                                                                                   150                                
PRCFAMCHA090501163551163600000009CC Disclaimer - FAST - Generic (:09-:10)                                                                                    150                                
PGRFAMCHA090501163600165830002230Disney Phineas & Ferb                             EP: 19                                                               6068607ECC                              
PRCFAMCHA090501165830165836000006Astral ID (FEB 2009)                                                                                                        150                                
PRCFAMCHA090501165836165848000012MD - 13 - SUITE LIFE/HANNAH (:11 - :13) (JULY08)                                                                            150                                
PRCFAMCHA090501165848165928000040Really Big Birthdays - July - 3-4 X Day (May 1 -31                                                                          150                                
PROFAMCHA090501165928170013000045Hotel For Dogs DVD Contest REVISION- Available Now                                                                          150                                
PROFAMCHA090501170013170042000029Hannah Montana - SUPER AWESOME (NS) New Eps - This                                                                          150                                
PROFAMCHA090501170042170122000040Zoey 101 (NS) SAFETY CUPCAKE - Tonight @ 6pm (MAR0                                                                          150                                
PROFAMCHA090501170122170152000030Wizards of Waverrly Place ALEX (NS) Tonight @ 6:30                                                                          150                                
PROFAMCHA090501170152170223000031Suite Life of Z & C (MD) TONY HAWK - Coming Up Nex                                                                          150                                
PROFAMCHA090501170223170303000040Legally Blonde DVD Blast - Available Now (April 28                                                                          150                                
PRCFAMCHA090501170303170352000049Family Kicks Contest Spot - 4 Per Day (April 10 -                                                                           150                                
PRCFAMCHA090501170352170402000010MD Bumper - Race Cars (:08-:10) JUNE06                                                                                      150                                
ID FAMCHA090501170402170410000008Magic of Disney - MAD DASH - Shape (:06-:09)                                                                                150                                
PRCFAMCHA090501170410170419000009CC Disclaimer - FAST - Family.ca (:09-:10)                                                                                  150                                
PGRFAMCHA090501170419170642000223Suite Life of Zack & Cody, The                    EP: 12                                                               6068607BCC                              
PGRFAMCHA090501170642171248000606Suite Life of Zack & Cody, The                    EP: 12                                                               6068607BCC                              
PGRFAMCHA090501171248171951000703Suite Life of Zack & Cody, The                    EP: 12                                                               6068607BCC                              
PGRFAMCHA090501171951172656000705Suite Life of Zack & Cody, The                    EP: 12                                                               6068607BCC                              
PRCFAMCHA090501172656172707000011NS - 01 - HANNAH/ZOEY 101 (FRIDAYS ONLY) (:11 - :1                                                                          150                                
PROFAMCHA090501172707172737000030Zoey 101 (NS) ANOTHER DAY AT PCA - Tonight @ 6pm (                                                                          150                                
PROFAMCHA090501172737172817000040Hannah Montana The Movie - CD Sdtrk- Available Now                                                                          150                                
PROFAMCHA090501172817172904000047Wizards of Waverly Place BOXING (NS) Tonight @ 6:3                                                                          150                                
PROFAMCHA090501172904173004000100Sonny With A Chance OVERALL PROMO (NS) - Tonight @                                                                          150                                
PROFAMCHA090501173004173034000030My Dog Skip - Tonight @ 7:30pm (APRIL09)                                                                                    150                                
PROFAMCHA090501173034173103000029Hannah Montana SCIENCE (NS) - New Eps Coming Up Ne                                                                          150                                
PROFAMCHA090501173103173137000034High School Musical Karaoke Tomorrow @ 1:30 (Sept0                                                                          150                                
PROFAMCHA090501173137173153000016Nonstop Block Open (:16-:18) APR06                                                                                          150                                
PRCFAMCHA090501173153173202000009CC Disclaimer - FAST - Generic (:09-:10)                                                                                    150                                
PGRFAMCHA090501173202173947000745Hannah Montana Season 3                           EP: 15                                                               6068607BCC                              
PGRFAMCHA090501173947174408000421Hannah Montana Season 3                           EP: 15                                                               6068607BCC                              
PGRFAMCHA090501174408174913000505Hannah Montana Season 3                           EP: 15                                                               6068607BCC                              
PGRFAMCHA090501174913175433000520Hannah Montana Season 3                           EP: 15                                                               6068607BCC                              
PRCFAMCHA090501175433175439000006Astral ID (FEB 2009)                                                                                                        150                                
PRCFAMCHA090501175439175517000038FOD - Family On Demand - Generic - Check you local                                                                          150                                
PROFAMCHA090501175517175557000040Froot Loops - Colossal Island (April 6 - May 3) $$                                                                          150                                
PROFAMCHA090501175557175627000030Wizards of Waverrly Place ALEX (NS) Tonight @ 6:30                                                                          150                                
PROFAMCHA090501175627175712000045Sonny With A Chance BOYS (NS) - Tonight @ 7pm (APR                                                                          150                                
PROFAMCHA090501175712175742000030My Dog Skip - Tonight @ 7:30pm (APRIL09)                                                                                    150                                
PROFAMCHA090501175742175822000040Rice Krispies - Singing With Bars (April 6 - May 3                                                                          150                                
PROFAMCHA090501175822175852000030Zoey 101 - ANGELS (NS) Coming Up Next (JAN09)                                                                               150                                
PRCFAMCHA090501175852175942000050Family Online Community Promo - 3/4 Day (not in PH                                                                          150                                
PRCFAMCHA090501175942175955000013NS Bumper - Fashion (:12-:14) JUNE06                                                                                        150                                
PRCFAMCHA090501175955180004000009CC Disclaimer - FAST - Family.ca (:09-:10)                                                                                  150                                
PGRFAMCHA090501180004182335002331Zoey 101                                          EP: 36                                                               2068807BCC                              
PROFAMCHA090501182335182408000033Sonny With A Chance PREMISE PROMO (NS) - Tonight @                                                                          150                                
PROFAMCHA090501182408182453000045Hotel For Dogs DVD Contest REVISION- Available Now                                                                          150                                
PROFAMCHA090501182453182523000030My Dog Skip - Tonight @ 7:30pm (APRIL09)                                                                                    150                                
PROFAMCHA090501182523182533000010FAMJAM - Open/Close                                                                                                         150                                
PGRFAMCHA090501182533182913000340MV Disney - (MD/NS/NSW) - Jesse McCartney - Just S                                                                     60688120                                
PROFAMCHA090501182913182927000014xxFAMJAM - Close (FAMILY) xxDNUxx                                                                                           150                                
PROFAMCHA090501182927182939000012Wizards of Waverrly Place ID - Selena Gomez #2 - N                                                                          150                                
PRCFAMCHA090501182939182955000016NS Bumper - Tennis (:15-:17) APR06                                                                                          150                                
PRCFAMCHA090501182955183004000009CC Disclaimer - FAST - Generic (:09-:10)                                                                                    150                                
PGRFAMCHA090501183004185235002231Disney Wizards of Waverly Place                   EP: 01                                                               6068607BCC                              
PRCFAMCHA090501185235185241000006Astral ID (FEB 2009)                                                                                                        150                                
PRCFAMCHA090501185241185330000049Family Kicks Contest Spot - 4 Per Day (April 10 -                                                                           150                                
PROFAMCHA090501185330185400000030My Dog Skip - Tonight @ 7:30pm (APRIL09)                                                                                    150                                
PRCFAMCHA090501185400185414000014xxFamily Bumpers - (Phase 1 Spring 04) - Basketbal                                                                          150                                
PROFAMCHA090501185414185424000010FAMJAM - Open/Close                                                                                                         150                                
PGRFAMCHA090501185424185703000239MV Disney - (MD/NS/NSW) - Jesse McCartney - Just S                                                                     20688120                                
PROFAMCHA090501185703185717000014xxFAMJAM - Close (FAMILY) xxDNUxx                                                                                           150                                
PROFAMCHA090501185717185817000100Sonny With A Chance OVERALL PROMO (NS) - Coming Up                                                                          150                                
PROFAMCHA090501185817185857000040Legally Blonde DVD Blast - Available Now (April 28                                                                          150                                
PRCFAMCHA090501185857185942000045PPP Red Carpet /La Senza Girl Contest  - 4 Per Day                                                                          150                                
PRCFAMCHA090501185942185951000009NS Bumper - Dodgeball (:07-:09) APR06                                                                                       150                                
PRCFAMCHA090501185951190000000009CC Disclaimer - FAST - Family.ca (:09-:10)                                                                                  150                                
PGRFAMCHA090501190000192227002227Disney Sonny With A Chance                        EP: 05                                                               6068507BCC                              
PRCFAMCHA090501192227192239000012NS - 05 - POPCORN PIX/NIGHTLY PIX (FRIDAYS ONLY) (                                                                          150                                
PRCFAMCHA090501192239192256000017Family First Generic Throw - Promo SHORT VERSION -                                                                          150                                
PROFAMCHA090501192256192341000045Hotel For Dogs DVD Contest REVISION- Available Now                                                                          150                                
PROFAMCHA090501192341192411000030My Dog Skip - Coming Up Next (APRIL09)                                                                                      150                                
PROFAMCHA090501192411192421000010FAMJAM - Open/Close                                                                                                         150                                
PGRFAMCHA090501192421192810000349MV Disney - (MD/NS/NSW) - Jesse McCartney - Just S                                                                     60688120                                
PROFAMCHA090501192810192824000014xxFAMJAM - Close (FAMILY) xxDNUxx                                                                                           150                                
PRCFAMCHA090501192824192951000127Family First Announcement - Runs Prior to Friday's                                                                          150                                
ID FAMCHA090501192951193010000019Popcorn Pix Block Open (JUNE 06) (:18-:20)                                                                                  150                                
ID FAMCHA090501193010193020000010Ratings - G - Popcorn Pix Only (July 07)                                                                                    150                                
PRCFAMCHA090501193020193029000009CC Disclaimer - FAST - Generic (:09-:10)                                                                                    150                                
PGRFAMCHA090501193029210606013537My Dog Skip                                                                                                           A2068507DCC                              
PRCFAMCHA090501210606210612000006Astral ID (FEB 2009)                                                                                                        150                                
PRCFAMCHA090501210612210624000012NS - 06 - NIGHTLY PIX/NIGHTLY PIX (FRIDAYS ONLY) (                                                                          150                                
PROFAMCHA090501210624210637000013xxNightly Pix Movie Open (:10-:15)                                                                                          150                                
ID FAMCHA090501210637210646000009Rating - PG - Nightly Pix Only  (DEC05) (:08 - :10                                                                          150                                
PRCFAMCHA090501210646210655000009CC Disclaimer - SLOW - Family.ca (:09-:10)                                                                                  150                                
PGRFAMCHA090501210655224746014051First Kid                                                                                                             B6068807DCC                              
PRCFAMCHA090501224746224758000012NS - 07 - NIGHTLY PIX/SADIE 12 (FRIDAYS ONLY) (:11                                                                          150                                
PROFAMCHA090501224758224811000013xxNightly Pix Movie Open (:10-:15)                                                                                          150                                
ID FAMCHA090501224811224820000009Rating - PG - Nightly Pix Only  (DEC05) (:08 - :10                                                                          150                                
PRCFAMCHA090501224820224829000009CC Disclaimer - FAST - Generic (:09-:10)                                                                                    150                                
PGRFAMCHA090501224829000934012105Ernest Goes To Jail                                                                                                   B6068807DCC                              
PRCFAMCHA090501000934000940000006Astral ID (FEB 2009)                                                                                                        150                                
PRCFAMCHA090501000940000952000012NS - 13 - SADIE/SADIE (:11 - :13) (SEPT07)                                                                                  150                                
PROFAMCHA090501000952001009000017Nonstop Block Open (:16-:18) APR06                                                                                          150                                
PRCFAMCHA090501001009001018000009CC Disclaimer - SLOW - Family.ca (:09-:10)                                                                                  150                                
PGRFAMCHA090501001018003249002231Naturally, Sadie                                  EP: 20                                                        C24010 1065607ACC                              
PRCFAMCHA090501003249003301000012NS - 14 - SADIE/HANNAH (:11 - :13) (SEPT07)                                                                                 150                                
PRCFAMCHA090501003301003317000016NS Bumper - Tennis (:15-:17) APR06                                                                                          150                                
PRCFAMCHA090501003317003326000009CC Disclaimer - SLOW - Generic (:09 -:10)                                                                                   150                                
PGRFAMCHA090501003326005556002230Naturally, Sadie                                  EP: 01                                                        C24010 1065607ACC                              
PRCFAMCHA090501005556005602000006Astral ID (FEB 2009)                                                                                                        150                                
PRCFAMCHA090501005602005614000012NS - 15 - HANNAH/CORY (:11 - :13) (OCT08)                                                                                   150                                
PRCFAMCHA090501005614005703000049Family Kicks Contest Spot - 4 Per Day (April 10 -                                                                           150                                
PRCFAMCHA090501005703005848000145Movie Entertainment (8)                                                                                                     150                                
PROFAMCHA090501005848005902000014Hannah Montana IDs - (NS) Miley # 2 - Next                                                                                  150                                
PRCFAMCHA090501005902005947000045PPP Red Carpet /La Senza Girl Contest  - 4 Per Day                                                                          150                                
PRCFAMCHA090501005947010000000013NS Bumper - Fashion (:12-:14) JUNE06                                                                                        150                                
PRCFAMCHA090501010000010009000009CC Disclaimer - SLOW - Family.ca (:09-:10)                                                                                  150                                
PGRFAMCHA090501010009010345000336Hannah Montana                                    EP: 19                                                               6068807BCC                              
PGRFAMCHA090501010345011329000944Hannah Montana                                    EP: 19                                                               6068807BCC                              
PGRFAMCHA090501011329012132000803Hannah Montana                                    EP: 19                                                               6068807BCC                              
PGRFAMCHA090501012132012244000112Hannah Montana                                    EP: 19                                                               6068807BCC                              
PRCFAMCHA090501012244012257000013NS - 16 - CORY/PHIL (:11 - :13) (OCT08)                                                                                     150                                
PRCFAMCHA090501012257012305000008NS Bumper - Dodgeball (:07-:09) APR06                                                                                       150                                
PRCFAMCHA090501012305012314000009CC Disclaimer - SLOW - Generic (:09 -:10)                                                                                   150                                
PGRFAMCHA090501012314012556000242Disney Cory in the House                          EP: 21                                                               6068607BCC                              
PGRFAMCHA090501012556013319000723Disney Cory in the House                          EP: 21                                                               6068607BCC                              
PGRFAMCHA090501013319014404001045Disney Cory in the House                          EP: 21                                                               6068607BCC                              
PGRFAMCHA090501014404014544000140Disney Cory in the House                          EP: 21                                                               6068607BCC                              
PRCFAMCHA090501014544014550000006Astral ID (FEB 2009)                                                                                                        150                                
PRCFAMCHA090501014550014603000013NS - 17 - PHIL/LIZZIE (:11 - :13) (OCT08)                                                                                   150                                
PRCFAMCHA090501014603014618000015NS Bumper - Tennis (:15-:17) APR06                                                                                          150                                
ID FAMCHA090501014618014626000008Magic of Disney - NS/NSW/PB - Shape (:06-:09)                                                                               150                                
PRCFAMCHA090501014626014635000009CC Disclaimer - SLOW - Family.ca (:09-:10)                                                                                  150                                
PGRFAMCHA090501014635020911002236Phil of the Future Yr 2                           EP: 29                                                               6068607BCC                              
PRCFAMCHA090501020911020923000012NS - 18 - LIZZIE/LIFE WITH DEREK (:11 - :13) (OCT0                                                                          150                                
PRCFAMCHA090501020923020936000013NS Bumper - Fashion (:12-:14) JUNE06                                                                                        150                                
ID FAMCHA090501020936020944000008Magic of Disney - NS/NSW/PB - Wipe (:06-:09)                                                                                150                                
PRCFAMCHA090501020944020953000009CC Disclaimer - SLOW - Generic (:09 -:10)                                                                                   150                                
PGRFAMCHA090501020953023224002231Lizzie McGuire                                    EP: 2-007                                                            6068607BCC                              
PRCFAMCHA090501023224023230000006Astral ID (FEB 2009)                                                                                                        150                                
PRCFAMCHA090501023230023242000012NS - 19 - LIFE WITH DEREK/CORY IN THE HOUSE (:11 -                                                                          150                                
PRCFAMCHA090501023242023250000008NS Bumper - Dodgeball (:07-:09) APR06                                                                                       150                                
PRCFAMCHA090501023250023259000009CC Disclaimer - SLOW - Family.ca (:09-:10)                                                                                  150                                
PGRFAMCHA090501023259025529002230Life With Derek IV (eps 53-70)                    EP: 11                                                        C24891 1065607BCC                              
PRCFAMCHA090501025529025541000012NS - 20 - CORY IN THE HOUSE/RAVEN (:11 - :13) (SEP                                                                          150                                
PRCFAMCHA090501025541025557000016NS Bumper - Tennis (:15-:17) APR06                                                                                          150                                
PRCFAMCHA090501025557025606000009CC Disclaimer - SLOW - Generic (:09 -:10)                                                                                   150                                
PGRFAMCHA090501025606031845002239Disney Cory in the House                          EP: 09                                                               6068607BCC                              
PRCFAMCHA090501031845031851000006Astral ID (FEB 2009)                                                                                                        150                                
PRCFAMCHA090501031851031904000013NS - 21 - RAVEN/ SUITE LIFE (:11 - :13) (SEPT07)                                                                            150                                
PRCFAMCHA090501031904031918000014NS Bumper - Fashion (:12-:14) JUNE06                                                                                        150                                
ID FAMCHA090501031918031927000009Magic of Disney - NS/NSW/PB - Shape (:06-:09)                                                                               150                                
PRCFAMCHA090501031927031937000010CC Disclaimer - SLOW - Family.ca (:09-:10)                                                                                  150                                
PGRFAMCHA090501031937032253000316That's So Raven                                   EPS # 1-026                                                          6068607BCC                              
PGRFAMCHA090501032253032931000638That's So Raven                                   EPS # 1-026                                                          6068607BCC                              
PGRFAMCHA090501032931034046001115That's So Raven                                   EPS # 1-026                                                          6068607BCC                              
PGRFAMCHA090501034046034214000128That's So Raven                                   EPS # 1-026                                                          6068607BCC                              
PRCFAMCHA090501034214034227000013NS - 22 - SUITE LIFE/LIFE WITH DEREK (:11 - :13) (                                                                          150                                
PRCFAMCHA090501034227034236000009NS Bumper - Dodgeball (:07-:09) APR06                                                                                       150                                
ID FAMCHA090501034236034245000009Magic of Disney - NS/NSW/PB - Wipe (:06-:09)                                                                                150                                
PRCFAMCHA090501034245034255000010CC Disclaimer - SLOW - Generic (:09 -:10)                                                                                   150                                
PGRFAMCHA090501034255040534002239Suite Life of Zack & Cody, The                    EP: 59                                                               6068607BCC                              
PRCFAMCHA090501040534040540000006Astral ID (FEB 2009)                                                                                                        150                                
PRCFAMCHA090501040540040553000013NS - 23 - LIFE WITH DEREK (:11 - :13) (SEPT07)                                                                              150                                
PRCFAMCHA090501040553040610000017NS Bumper - Tennis (:15-:17) APR06                                                                                          150                                
PRCFAMCHA090501040610040620000010CC Disclaimer - SLOW - Family.ca (:09-:10)                                                                                  150                                
PGRFAMCHA090501040620042850002230Life With Derek IV (eps 53-70)                    EP: 12                                                        C24891 1065607BCC                              
PRCFAMCHA090501042850042903000013FJR - 14 - HENRY'S WORLD / BENJAMIN BEAR (SEPT08)                                                                           150                                
PROFAMCHA090501042903042933000030PH-D Promo - Jack Grunsky in Halifax Stunt - Satur                                                                          150                                
PROFAMCHA090501042933042942000009PH-D Promo - Ooh & Aah Web Throw - PH-D.CA                                                                                  150                                
ID FAMCHA090501042942042959000017Family Jr. Block Open (:14-:17) (JUL08)                                                                                     150                                
OFFFAMCHA090501042959043000000001OFF AIR                                                                                                                                                        
SO FAMCHA090502043000043011000011Sign On (oct 1)                                                                                                                                                
PRCFAMCHA090502043011043020000009CC Disclaimer - FAST - Family.ca (:09-:10)                                                                                  150                                
PGRFAMCHA090502043020045414002354Henry's World                                     EP: 1-009                                                     B66551A1065607GCC                              
PRCFAMCHA090502045414045420000006Astral ID - Family Jr. Version (MAR 2009)                                                                                   150                                
PRCFAMCHA090502045420045432000012FJR - 15 - BENJAMIN BEAR 4:55 / FRANNY'S FEET 5:20                                                                          150                                
PROFAMCHA090502045432045508000036PH-D Special Agent OSO Comedy Sell - Premiering Su                                                                          150                                
PROFAMCHA090502045508045538000030Imagination Movers (FJR) NEW EPS - Friday Mornings                                                                          150                                
PROFAMCHA090502045538045553000015Handy Manny (FJR) HOP UP/JUMP IN SHORT - NEW EPS F                                                                          150                                
PRCFAMCHA090502045553045623000030Benjamin Bear (FJR) GENERIC - Coming Up Next (JUL0                                                                          150                                
PRCFAMCHA090502045623045648000025PH-D Promo - Ooh & Ahh PH-D Throw 2009 - Call Your                                                                          150                                
PRCFAMCHA090502045648045659000011Family Jr. Bumper - Collide (:11- :14) (JUL08)                                                                              150                                
PRCFAMCHA090502045659045708000009CC Disclaimer - FAST - Generic (:09-:10)                                                                                    150                                
PGRFAMCHA090502045708051943002235The Secret World Of Benjamin Bear                 EPS # 1-003                                                   B75148 1065607ECC                              
PRCFAMCHA090502051943051955000012FJR - 16 - FRANNY'S FEET 5:20 / KING 5:50  (:11 -                                                                           150                                
PROFAMCHA090502051955052101000106PH-D Special Agent OSO Premise Sell - Premiering S                                                                          150                                
PROFAMCHA090502052101052131000030Tigger and Pooh (FJR) DARBY SELL - New Eps - Frida                                                                          150                                
PROFAMCHA090502052131052146000015Handy Manny (FJR) TIME - NEW EPS Friday Mornings @                                                                          150                                
PRCFAMCHA090502052146052221000035Franny's Feet (FJR) GENERIC - Coming Up Next (JUL0                                                                          150                                
PRCFAMCHA090502052221052246000025PH-D Promo - Ooh & Ahh PH-D Throw 2009 - Call Your                                                                          150                                
PRCFAMCHA090502052246052257000011Family Jr. Bumper - Acrobat (:10- :13) (JUL08)                                                                              150                                
PRCFAMCHA090502052257052306000009CC Disclaimer - FAST - Family.ca (:09-:10)                                                                                  150                                
PGRFAMCHA090502052306054536002230Franny's Feet                                     EPS # 27                                                      C23971 1065607ECC                              
PRCFAMCHA090502054536054542000006Astral ID - Family Jr. Version (MAR 2009)                                                                                   150                                
PRCFAMCHA090502054542054554000012FJR - 17 - KING 5:50  (:11 - :13) (APRIL 09)                                                                                150                                
PROFAMCHA090502054554054630000036PH-D Special Agent OSO Comedy Sell - Premiering Su                                                                          150                                
PROFAMCHA090502054630054700000030Imagination Movers (FJR) Weekday Mornings @ 8:45am                                                                          150                                
PRCFAMCHA090502054700054730000030King (FJR) GENERIC - Coming Up Next (JUL08)                                                                                 150                                
PROFAMCHA090502054730054854000124PH-D Promo - I'm Rockin' Monday With PSA - Monday                                                                           150                                
PRCFAMCHA090502054854054910000016Family Jr. Bumper - Portal (:14- :17) (JUL08)                                                                               150                                
PRCFAMCHA090502054910054919000009CC Disclaimer - FAST - Generic (:09-:10)                                                                                    150                                
PGRFAMCHA090502054919061150002231King                                              EP: 4-047                                                     C25350 1065607ECC                              
PRCFAMCHA090502061150061202000012JETIX - 01 - Power Rangers: OO / Porwer Rangers: J                                                                          150                                
PRCFAMCHA090502061202061252000050Family Online Community Promo - 3/4 Day (not in PH                                                                          150                                
PRCFAMCHA090502061252061341000049Family Kicks Contest Spot - 4 Per Day (April 10 -                                                                           150                                
PROFAMCHA090502061341061359000018Jetix Block Open (:18-:21)                                                                                                  150                                
PRCFAMCHA090502061359061409000010CC Disclaimer - FAST - Family.ca (:09-:10)                                                                                  150                                
PGRFAMCHA090502061409063641002232Power Rangers:  Operation Overdrive               EP: 26                                                               2068607ECC                              
PRCFAMCHA090502063641063647000006Astral ID (FEB 2009)                                                                                                        150                                
PRCFAMCHA090502063647063700000013JETIX - 02 - Porwer Rangers: JF / Digimon Data (:1                                                                          150                                
PRCFAMCHA090502063700063738000038FOD - Family On Demand - Generic - Check you local                                                                          150                                
PROFAMCHA090502063738063812000034High School Musical Karaoke Today @ 1:30 (Sept06)                                                                           150                                
PRCFAMCHA090502063812063902000050Family Online Community Promo - 3/4 Day (not in PH                                                                          150                                
PROFAMCHA090502063902063923000021Jetix Block Open (:18-:21)                                                                                                  150                                
PRCFAMCHA090502063923063933000010CC Disclaimer - FAST - Generic (:09-:10)                                                                                    150                                
PGRFAMCHA090502063933070204002231Power Rangers Jungle Fury                         EP: 22                                                               2068607ACC                              
PRCFAMCHA090502070204070216000012JETIX - 03 - Digimon Data / Hannah Montana (:11 -                                                                           150                                
PRCFAMCHA090502070216070233000017Family First Generic Throw - Promo SHORT VERSION -                                                                          150                                
PRCFAMCHA090502070233070311000038Family Web Player Version 2 Promo - No Tag 3/day (                                                                          150                                
PRCFAMCHA090502070311070400000049Family Kicks Contest Spot - 4 Per Day (April 10 -                                                                           150                                
PROFAMCHA090502070400070419000019Jetix Block Open (:18-:21)                                                                                                  150                                
PRCFAMCHA090502070419070428000009CC Disclaimer - FAST - Family.ca (:09-:10)                                                                                  150                                
PGRFAMCHA090502070428072633002205Digimon Data Squad                                EP: 34                                                               2068607ECC                              
PRCFAMCHA090502072633072639000006Astral ID (FEB 2009)                                                                                                        150                                
PRCFAMCHA090502072639072651000012NSW - 01 - HANNAH 7:30am /SUITE LIFE 8am (:11 - :1                                                                          150                                
PROFAMCHA090502072651072725000034High School Musical Karaoke Today @ 1:30 (Sept06)                                                                           150                                
PROFAMCHA090502072725072805000040Froot Loops - Colossal Island (April 6 - May 3) $$                                                                          150                                
PROFAMCHA090502072805072842000037That's So Raven DANCE (NSW) This Morning @ 9:30am                                                                           150                                
PROFAMCHA090502072842072922000040Hannah Montana The Movie - CD Sdtrk- Available Now                                                                          150                                
PROFAMCHA090502072922072951000029Hannah Montana - SUPER AWESOME (NSW) Coming Up Nex                                                                          150                                
PROFAMCHA090502072951073007000016Nonstop Weekend Block Open (:16-:18) APR06                                                                                  150                                
PRCFAMCHA090502073007073016000009CC Disclaimer - FAST - Generic (:09-:10)                                                                                    150                                
PGRFAMCHA090502073016073727000711Hannah Montana                                    EP: 23                                                               6068807BCC                              
PGRFAMCHA090502073727074300000533Hannah Montana                                    EP: 23                                                               6068807BCC                              
PRCFAMCHA090502074300074345000045PPP Red Carpet /La Senza Girl Contest  - 4 Per Day                                                                          150                                
PROFAMCHA090502074345074417000032Suite Life of Z & C (NSW) IMPRESS - This Morning @                                                                          150                                
PROFAMCHA090502074417074447000030Zoey 101 - ANGELS (NSW) This Morning @ 8:30am (MAR                                                                          150                                
PROFAMCHA090502074447074527000040Rice Krispies - Singing With Bars (April 6 - May 3                                                                          150                                
PROFAMCHA090502074527074612000045Sonny With A Chance BOYS (NS) - NEW EPS - Friday N                                                                          150                                
PGRFAMCHA090502074612075500000848Hannah Montana                                    EP: 23                                                               6068807BCC                              
PGRFAMCHA090502075500075602000102Hannah Montana                                    EP: 23                                                               6068807BCC                              
PRCFAMCHA090502075602075614000012NSW - 02 - SUITE LIFE 8am / Zoey 101 8:30am (:11 -                                                                          150                                
PRCFAMCHA090502075614075631000017Family First Generic Throw - Promo SHORT VERSION -                                                                          150                                
PROFAMCHA090502075631075711000040Legally Blonde DVD Blast - Available Now (April 28                                                                          150                                
PROFAMCHA090502075711075744000033Cory In The House (NSW) WHAT THEY'RE SAYING - This                                                                          150                                
PROFAMCHA090502075744075754000010FAMJAM - Open/Close                                                                                                         150                                
PGRFAMCHA090502075754075924000130MV Disney - (MD/NS/NSW) - Jesse McCartney - Just S                                                                     60688120                                
PROFAMCHA090502075924075938000014xxFAMJAM - Close (FAMILY) xxDNUxx                                                                                           150                                
PROFAMCHA090502075938080009000031Suite Life of Z & C (NSW) TONY HAWK - Coming Up Ne                                                                          150                                
PRCFAMCHA090502080009080022000013NSW Bumper - Fashion (:12-:14) APR06                                                                                        150                                
ID FAMCHA090502080022080028000006Magic of Disney - MAD DASH - Wipe (:06-:09)                                                                                 150                                
PRCFAMCHA090502080028080037000009CC Disclaimer - FAST - Family.ca (:09-:10)                                                                                  150                                
PGRFAMCHA090502080037080254000217Suite Life of Zack & Cody, The                    EP: 16                                                               6068607BCC                              
PGRFAMCHA090502080254081110000816Suite Life of Zack & Cody, The                    EP: 16                                                               6068607BCC                              
PROFAMCHA090502081110081144000034High School Musical Karaoke Today @ 1:30 (Sept06)                                                                           150                                
PROFAMCHA090502081144081201000017Zoey 101 - Zoey Zoey Zoey (NSW) This Morning @ 8:3                                                                          150                                
PROFAMCHA090502081201081248000047Wizards of Waverly Place BOXING (NS) NEW EPS - Fri                                                                          150                                
PRCFAMCHA090502081248081337000049Family Kicks Contest Spot - 4 Per Day (April 10 -                                                                           150                                
PGRFAMCHA090502081337082410001033Suite Life of Zack & Cody, The                    EP: 16                                                               6068607BCC                              
PGRFAMCHA090502082410082541000131Suite Life of Zack & Cody, The                    EP: 16                                                               6068607BCC                              
PRCFAMCHA090502082541082547000006Astral ID (FEB 2009)                                                                                                        150                                
PRCFAMCHA090502082547082559000012NSW - 03 - Zoey 101 8:30am/ Cory In The House 9am                                                                           150                                
PRCFAMCHA090502082559082649000050Victoria Day Stunt Monday May 18th starting @ 11:4                                                                          150                                
PROFAMCHA090502082649082734000045Hotel For Dogs DVD Contest REVISION- Available Now                                                                          150                                
PROFAMCHA090502082734082811000037That's So Raven DANCE (NSW) This Morning @ 9:30am                                                                           150                                
PRCFAMCHA090502082811082822000011xxFamily Bumpers - (Phase 2 F/W 04) - Science (MD-                                                                          150                                
PROFAMCHA090502082822082851000029Hannah Montana - SUPER AWESOME (NS) New Eps - Fri                                                                           150                                
PROFAMCHA090502082851082913000022Sonny With A Chance ID (NS) DEMI LOVATO - NEW EPS                                                                           150                                
PROFAMCHA090502082913082953000040Zoey 101 (NSW) SAFETY CUPCAKE - Coming Up Next (MA                                                                          150                                
PRCFAMCHA090502082953083000000007NSW Bumper - Dodgeball (:07-:09) APR06                                                                                      150                                
PRCFAMCHA090502083000083010000010CC Disclaimer - FAST - Generic (:09-:10)                                                                                    150                                
PGRFAMCHA090502083010083055000045Zoey 101                                          EPS # 12                                                             2068807BCC                              
PGRFAMCHA090502083055084049000954Zoey 101                                          EPS # 12                                                             2068807BCC                              
PROFAMCHA090502084049084122000033Cory In The House (NSW) WHAT THEY'RE SAYING - This                                                                          150                                
PROFAMCHA090502084122084149000027That's So Raven CLIP (NSW) This Morning @ 9:30am (                                                                          150                                
PRCFAMCHA090502084149084227000038FOD - Family On Demand - Generic - Check you local                                                                          150                                
PGRFAMCHA090502084227085317001050Zoey 101                                          EPS # 12                                                             2068807BCC                              
PGRFAMCHA090502085317085418000101Zoey 101                                          EPS # 12                                                             2068807BCC                              
PRCFAMCHA090502085418085430000012NSW - 04 - Cory In The House 9am / That's So Raven                                                                          150                                
PROFAMCHA090502085430085504000034High School Musical Karaoke Today @ 1:30 (Sept06)                                                                           150                                
PROFAMCHA090502085504085544000040Froot Loops - Colossal Island (April 6 - May 3) $$                                                                          150                                
PROFAMCHA090502085544085614000030Phil Of The Future (NSW) POP QUIZ - This Morning @                                                                          150                                
PROFAMCHA090502085614085624000010FAMJAM - Open/Close                                                                                                         150                                
PGRFAMCHA090502085624085754000130MV Disney - (MD/NS/NSW) - Jesse McCartney - Just S                                                                     60688120                                
PROFAMCHA090502085754085808000014xxFAMJAM - Close (FAMILY) xxDNUxx                                                                                           150                                
PROFAMCHA090502085808085836000028Suite Life on Deck ID 2 - This Afternoon @ 3:50pm                                                                           150                                
PROFAMCHA090502085836085923000047Wizards of Waverly Place BOXING (NS) NEW EPS - Fri                                                                          150                                
PROFAMCHA090502085923085956000033Cory In The House (NSW) WHAT THEY'RE SAYING - Comi                                                                          150                                
PRCFAMCHA090502085956090012000016NSW Bumper - Tennis (:15-:17) APR06                                                                                         150                                
PRCFAMCHA090502090012090021000009CC Disclaimer - FAST - Family.ca (:09-:10)                                                                                  150                                
PGRFAMCHA090502090021090325000304Disney Cory in the House                          EP: 20                                                               6068607BCC                              
PGRFAMCHA090502090325091245000920Disney Cory in the House                          EP: 20                                                               6068607BCC                              
PROFAMCHA090502091245091319000034High School Musical Karaoke Today @ 1:30 (Sept06)                                                                           150                                
PROFAMCHA090502091319091356000037That's So Raven DANCE (NSW) This Morning @ 9:30am                                                                           150                                
PROFAMCHA090502091356091436000040Rice Krispies - Singing With Bars (April 6 - May 3                                                                          150                                
PROFAMCHA090502091436091536000100Sonny With A Chance OVERALL PROMO (NS) - NEW EPS -                                                                          150                                
