SO FAMCHA070101043000043011000011Sign On (oct 1)                                                                                                                                                
PRCFAMCHA070101043011043020000009CC Disclaimer - FAST - Family.ca (:08-:10) $$$                                                                              150                                
PGRFAMCHA070101043020045655002635Katie And Orbie                                   EP: 2-022                                                     C11896A1065607ECC                              
PRCFAMCHA070101045655045711000016PH - 04 - FRANNY/SOMETHING/HOZE  (:14 - :16) (APR0                                                                          150                                
ID FAMCHA070101045711045726000015PS Playhouse AM Block Open (:10-:15) $$$                                                                                    150                                
PRCFAMCHA070101045726045736000010CC Disclaimer - FAST - Generic (:08-:10) $$$                                                                                150                                
PGRFAMCHA070101045736052006002230Franny's Feet                                     EPS # 18                                                      C23971 1065607ECC                              
PRCFAMCHA070101052006052011000005Astral ID (FEB05) $$$                                                                                                       150                                
PRCFAMCHA070101052011052027000016PH - 05 - SOMETHING/HOZE/KING (:14 - :16) (APR06)                                                                           150                                
ID FAMCHA070101052027052037000010PS Playhouse AM Block Open (:10-:15) $$$                                                                                    150                                
PRCFAMCHA070101052037052046000009CC Disclaimer - FAST - Family.ca (:08-:10) $$$                                                                              150                                
PGRFAMCHA070101052046054317002231Something Else                                    EP: 1-002                                                     B69256A1065607ECC                              
PRCFAMCHA070101054317054333000016PH - 06 - HOZE/KING/SPIDERMAN (:14 - :16) (APR06)                                                                           150                                
ID FAMCHA070101054333054345000012PS Playhouse AM Block Open (:10-:15) $$$                                                                                    150                                
PRCFAMCHA070101054345054354000009CC Disclaimer - FAST - Generic (:08-:10) $$$                                                                                150                                
PGRFAMCHA070101054354060632002238Hoze Houndz                                       EPS # 6-070                                                   C22818A1065607ECC                              
PRCFAMCHA070101060632060637000005Astral ID (FEB05) $$$                                                                                                       150                                
PRCFAMCHA070101060637060653000016PH - 07 - KING/SPIDERMAN/KIM  (:14 - :16) (APR06)                                                                           150                                
ID FAMCHA070101060653060706000013PS Playhouse AM Block Open (:10-:15) $$$                                                                                    150                                
PRCFAMCHA070101060706060715000009CC Disclaimer - FAST - Family.ca (:08-:10) $$$                                                                              150                                
PGRFAMCHA070101060715062945002230King                                              EP: 4-049                                                     C25350A1065607ECC                              
PRCFAMCHA070101062945063001000016PH - 08- SPIDERMAN/KIM ( (:14 - :16) (APR06) $$$                                                                            150                                
PROFAMCHA070101063001063020000019MadMadMornings Block Open $$$                                                                                               150                                
PGRFAMCHA070101063020065201002141Spiderman                                         EP: 10                                                        C02618 1065607E                                
PRCFAMCHA070101065201065206000005Astral ID (FEB05) $$$                                                                                                       150                                
PRCFAMCHA070101065206065222000016MMM - 01 (AM) - KIM/RECESS/WEEKENDERS (OCT05) (:14                                                                          150                                
PROFAMCHA070101065222065251000029High School Musical Dance Along Tomorrow night @ 7                                                                          150                                
PROFAMCHA070101065251065305000014xxKim Possible ARM (MMM) (MAY 06) Coming Up Next                                                                            150                                
PROFAMCHA070101065305065330000025xxRecess - CAREER DAY (MMM) - (JULY06) - This morn                                                                          150                                
PROFAMCHA070101065330065340000010FAMJAM - Open/Close                                                                                                         150                                
PGRFAMCHA070101065340065440000100MV Disney - Huckaroo (Pixel Perfect)                                                                                   60688120                                
PROFAMCHA070101065440065454000014xxFAMJAM - Close (FAMILY) xxDNUxx                                                                                           150                                
PROFAMCHA070101065454065530000036Weekenders - PIZZA (MMM) - (APR06) - This Morning                                                                           150                                
PROFAMCHA070101065530065539000009Raven ID's II - You're Watching Family, NADM                                                                                150                                
PROFAMCHA070101065539065558000019MadMadMornings Block Open $$$                                                                                               150                                
PRCFAMCHA070101065558065607000009CC Disclaimer - FAST - Family.ca (:08-:10) $$$                                                                              150                                
PGRFAMCHA070101065607071857002250Disney's Kim Possible                             EP: 1-005                                                           A6068607ECC                              
PRCFAMCHA070101071857071912000015MMM - 02 (AM) - RECESS/WEEKENDERS/LILO (OCT05) (:1                                                                          150                                
PROFAMCHA070101071912071942000030Life is Ruff (AUG06) Friday night @ 7:30                                                                                    150                                
PROFAMCHA070101071942072007000025xxRecess - CAREER DAY (MMM) - (JULY06) - Coming Up                                                                          150                                
PRCFAMCHA070101072007072107000100Family Lab- Duplicator (DEC06) use as filler (min                                                                           150                                
PROFAMCHA070101072107072143000036Weekenders - PIZZA (MMM) - (APR06) - This Morning                                                                           150                                
PROFAMCHA070101072143072153000010FAMJAM - Open/Close                                                                                                         150                                
PGRFAMCHA070101072153072251000058MV Disney - (FAMILY HITS) That's So Raven Theme So                                                                     60688120                                
PROFAMCHA070101072251072305000014xxFAMJAM - Close (FAMILY) xxDNUxx                                                                                           150                                
PROFAMCHA070101072305072338000033xxLilo & Stitch (MMM) DANCE (JUNE06) - This morn @                                                                          150                                
PROFAMCHA070101072338072345000007Chef Boyardee BB - MMM $$$                                                                                            A     150                                
PROFAMCHA070101072345072404000019MadMadMornings Block Open $$$                                                                                               150                                
PGRFAMCHA070101072404074639002235Disney's Recess                                   EP: 1-040                                                           A6068607E                                
PRCFAMCHA070101074639074644000005Astral ID (FEB05) $$$                                                                                                       150                                
PRCFAMCHA070101074644074700000016PH - 09 - WEEKENDERS/LILO/EINSTEINS (:14 - :16) (A                                                                          150                                
PROFAMCHA070101074700074729000029High School Musical Dance Along Tomorrow night @ 7                                                                          150                                
PROFAMCHA070101074729074805000036Weekenders - PIZZA (MMM) - (APR06) - Coming Up Nex                                                                          150                                
PRCFAMCHA070101074805074841000036Famous Players Popcorn Parties REVISED (Nov06) 3/d                                                                          150                                
PROFAMCHA070101074841074914000033xxLilo & Stitch (MMM) DANCE (JUNE06) - This morn @                                                                          150                                
PROFAMCHA070101074914074921000007MadMadMornings Bumper                                                                                                       150                                
PGRFAMCHA070101074921075021000100Planet Rock Profiles - Green Day (Hype) xxDNUxx   EP: 46                                                              A70687120                                
PROFAMCHA070101075021075039000018xxLloyd In Space (LARRY) (JUNE06) MD- This afterno                                                                          150                                
PROFAMCHA070101075039075058000019MadMadMornings Block Open $$$                                                                                               150                                
PRCFAMCHA070101075058075107000009CC Disclaimer - FAST - Generic (:08-:10) $$$                                                                                150                                
PGRFAMCHA070101075107081353002246Disney's The Weekenders                           EP: 1-033                                                           A6068607ECC                              
PRCFAMCHA070101081353081409000016PH - 10 - LILO/EINSTEINS/WINNIE (:14 - :16) (APR06                                                                          150                                
PROFAMCHA070101081409081439000030Life is Ruff (AUG06) Friday night @ 7:30                                                                                    150                                
PROFAMCHA070101081439081512000033xxLilo & Stitch (MMM) DANCE (JUNE06) - coming Up N                                                                          150                                
PROFAMCHA070101081512081522000010FAMJAM - Open/Close                                                                                                         150                                
PGRFAMCHA070101081522081652000130MV Disney - (MD/NS/NSW) - Jesse McCartney - Becaus                                                                     60688120                                
PROFAMCHA070101081652081706000014xxFAMJAM - Close (FAMILY) xxDNUxx                                                                                           150                                
PROFAMCHA070101081706081734000028xxDave the Barbarian - WIGGIN (MD) -  This afterno                                                                          150                                
PROFAMCHA070101081734081741000007Chef Boyardee BB - MMM $$$                                                                                            A     150                                
PROFAMCHA070101081741081800000019MadMadMornings Block Open $$$                                                                                               150                                
PRCFAMCHA070101081800081809000009CC Disclaimer - FAST - Family.ca (:08-:10) $$$                                                                              150                                
PGRFAMCHA070101081809084048002239Disney's Lilo & Stitch                            EPS # 16                                                            A6068607ECC                              
PRCFAMCHA070101084048084053000005Astral ID (FEB05) $$$                                                                                                       150                                
PRCFAMCHA070101084053084109000016PH - 11 -EINSTEINS/WINNIE/BEAR  (:14 - :16) (NOV06                                                                          150                                
PROFAMCHA070101084109084139000030Little Einstein (PH) (PRESCHOOL) - Coming Up Next                                                                           150                                
PROFAMCHA070101084139084218000039Princess Block - Be A Princess (Fashion) PH 1 per                                                                           150                                
PROFAMCHA070101084218084248000030Winnie the Pooh (PH/AM) (APR06) - This Morning @ 9                                                                          150                                
PGRFAMCHA070101084248084423000135They Might Be Giants (ABC's) - Letter Shapes                                                                           60688120                                
PROFAMCHA070101084423084449000026xxJojo's Circus - GIANT - OCT 06 - This morn @ 10:                                                                          150                                
ID FAMCHA070101084449084504000015PS Playhouse AM Block Open (:10-:15) $$$                                                                                    150                                
PGRFAMCHA070101084504090909002405Disney's Little Einsteins                         EP: 18                                                               6068607E                                
PRCFAMCHA070101090909090925000016PH - 12 -WINNIE/BEAR/JOJO  (:14 - :16) (NOV06) $$$                                                                          150                                
PROFAMCHA070101090925090955000030Winnie the Pooh (PH/AM) (APR06) - Coming Up Next                                                                            150                                
PROFAMCHA070101090955091024000029Playhouse - WINNIE THE POOH - Tigger Bounce                                                                                 150                                
PROFAMCHA070101091024091042000018Jojo's Circus - HIP HOP - OCT 06 - This morn @ 10:                                                                          150                                
ID FAMCHA070101091042091057000015PS Playhouse AM Block Open (:10-:15) $$$                                                                                    150                                
PRCFAMCHA070101091057091106000009CC Disclaimer - FAST - Family.ca (:08-:10) $$$                                                                              150                                
PGRFAMCHA070101091106093336002230The New Adventures of Winnie the Pooh             EP: 1-005                                                            6068607ECC                              
PRCFAMCHA070101093336093341000005Astral ID (FEB05) $$$                                                                                                       150                                
PRCFAMCHA070101093341093357000016PH - 13 -BEAR/JOJO/FRANNY  (:14 - :16) (NOV06) $$$                                                                          150                                
PROFAMCHA070101093357093423000026xxJojo's Circus - GIANT - OCT 06 - This morn @ 10:                                                                          150                                
PRCFAMCHA070101093423093439000016xxPlayhouse Web Gigglefactory Web Promo (PH 1/day                                                                           150                                
PRCFAMCHA070101093439093454000015Franny's Feet - Bowleriffic (PH-Mon) - (APR06) - T                                                                          150                                
PGRFAMCHA070101093454093639000145They Might Be Giants (ABC's) - D and W                                                                                 60688120                                
ID FAMCHA070101093639093654000015PS Playhouse AM Block Open (:10-:15) $$$                                                                                    150                                
PRCFAMCHA070101093654093703000009CC Disclaimer - FAST - Generic (:08-:10) $$$                                                                                150                                
PGRFAMCHA070101093703100108002405Bear In the Big Blue House                        EP: 040                                                              2028607ECC                              
PRCFAMCHA070101100108100124000016PH - 14 -JOJO/FRANNY/STANLEY  (:14 - :16) (APR06)                                                                           150                                
PROFAMCHA070101100124100142000018Jojo's Circus - HIP HOP - OCT 06 - Coming Up Next                                                                           150                                
PGRFAMCHA070101100142100312000130They Might Be Giants (ABC's) - Clap Your Hands                                                                         60688120                                
PRCFAMCHA070101100312100342000030Franny's Feet - Concept (APR06)(PH-Mon) - This Mor                                                                          150                                
ID FAMCHA070101100342100357000015PS Playhouse AM Block Open (:10-:15) $$$                                                                                    150                                
PGRFAMCHA070101100357102804002407JoJo's Circus                                     EPS # 01                                                            A6068607E                                
PRCFAMCHA070101102804102809000005Astral ID (FEB05) $$$                                                                                                       150                                
PRCFAMCHA070101102809102825000016PH - 15 -FRANNY/STANLEY/KING (:14 - :16) (APR06) $                                                                          150                                
PRCFAMCHA070101102825102840000015Franny's Feet - Bowleriffic (PH-) - (APR06) - Comi                                                                          150                                
PRCFAMCHA070101102840102911000031King (PH) (APR06) - This Morning @ 11:25am                                                                                  150                                
PROFAMCHA070101102911103017000106Playhouse - WINNIE THE POOH - Christopher Robin                                                                             150                                
PRCFAMCHA070101103017103047000030Benjamin Bear - (PH-Tue) (OCT06) - Tomorrow morn @                                                                          150                                
ID FAMCHA070101103047103102000015PS Playhouse AM Block Open (:10-:15) $$$                                                                                    150                                
PRCFAMCHA070101103102103111000009CC Disclaimer - FAST - Family.ca (:08-:10) $$$                                                                              150                                
PGRFAMCHA070101103111105341002230Franny's Feet                                     EPS # 18                                                      C23971 1065607ECC                              
PRCFAMCHA070101105341105356000015PH - 16 -STANLEY/KING/RECESS (:14- :16) (APR06) $$                                                                          150                                
PRCFAMCHA070101105356105426000030xxStanley - Get Into It (MAR05) - (PH-M/W/F) - Com                                                                          150                                
PRCFAMCHA070101105426105453000027Playhouse Web Promo - Family.ca                                                                                             150                                
PRCFAMCHA070101105453105524000031King (PH) (APR06) - This Morning @ 11:25am                                                                                  150                                
PROFAMCHA070101105524105620000056Playhouse - STANLEY - Fish Song                                                                                             150                                
PROFAMCHA070101105620105650000030Higglytown - Find Them - PH Wed morning @ 10:30                                                                             150                                
ID FAMCHA070101105650105704000014PS Playhouse AM Block Open (:10-:15) $$$                                                                                    150                                
PRCFAMCHA070101105704105713000009CC Disclaimer - FAST - Generic (:08-:10) $$$                                                                                150                                
PGRFAMCHA070101105713112111002358Stanley                                           EP: 1-037                                                           A6068607ECC                              
PRCFAMCHA070101112111112116000005Astral ID (FEB05) $$$                                                                                                       150                                
PRCFAMCHA070101112116112147000031King (PH) (APR06) - Coming Up Next                                                                                          150                                
PGRFAMCHA070101112147112447000300They Might Be Giants (ABC's) - Can You Find It?                                                                        60688120                                
ID FAMCHA070101112447112500000013PS Playhouse AM Block Open (:10-:15) $$$                                                                                    150                                
PRCFAMCHA070101112500112509000009CC Disclaimer - FAST - Family.ca (:08-:10) $$$                                                                              150                                
PGRFAMCHA070101112509114739002230King                                              EPS # 029                                                     C25350A1065607ECC                              
PRCFAMCHA070101114739114755000016That's A Wrap - Coming Up - Recess/Movie (Jan 1)                                                                            150                                
PROFAMCHA070101114755114831000036Weekenders - PIZZA (MD) - (APR06) - This Afternoon                                                                          150                                
PROFAMCHA070101114831114845000014Emperor's New School STRAW - NSW - Weekend afterno                                                                          150                                
PROFAMCHA070101114845114902000017Mad Dash Block Open (:16-:18) APR06 $$$                                                                                     150                                
PGRFAMCHA070101114902121137002235Disney's Recess                                   EP: 1-057                                                           A6068607E                                
PRCFAMCHA070101121137121142000005Astral ID (FEB05) $$$                                                                                                       150                                
PROFAMCHA070101121142121200000018xxLloyd In Space (LARRY) (JUNE06) MD- This afterno                                                                          150                                
PRCFAMCHA070101121200121210000010That's A Wrap - KEEP WATCHING...(Dec 26-Jan5)                                                                               150                                
PROFAMCHA070101121210121228000018xxDave the Barbarian - LEARNING (MD) -  This after                                                                          150                                
PROFAMCHA070101121228121253000025xxRecess Sketches OCT 06 - CAJOLING GUS - Mary Lam                                                                          150                                
PRCFAMCHA070101121253121302000009MD Bumper $$$ - Race Cars (:08-:10) APR06 **DNU                                                                             150                                
PGRFAMCHA070101121302123537002235Disney's Recess                                   EP: 1-032                                                            6068607E                                
PRCFAMCHA070101123537123550000013That's A Wrap - Tomorrow -Even Stevens/Movie (Jan                                                                           150                                
PROFAMCHA070101123550123624000034Proud Family (APR06) GET BURNED (MD) - This Aftern                                                                          150                                
PROFAMCHA070101123624123649000025xxRecess Sketches OCT 06 - BAD WEATHER - Cut 06                                                                             150                                
PROFAMCHA070101123649123656000007Chef Boyardee BB - MD $$$                                                                                             A     150                                
PRCFAMCHA070101123656123704000008MD Bumper - $$$ Ski Race (:07-:09) APR06                                                                                    150                                
PGRFAMCHA070101123704125939002235Disney's Recess                                   EP: 1-056                                                           A6068607E                                
PRCFAMCHA070101125939125944000005Astral ID (FEB05) $$$                                                                                                       150                                
PRCFAMCHA070101125944125954000010That's A Wrap - KEEP WATCHING...(Dec 26-Jan5)                                                                               150                                
PRCFAMCHA070101125954130003000009MD Bumper - $$$ Ski Race (:07-:09) APR06                                                                                    150                                
PGRFAMCHA070101130003132238002235Disney's Recess                                   EP: 1-055                                                           A6068607E                                
PROFAMCHA070101132238132307000029High School Musical Dance Along Tomorrow night @ 7                                                                          150                                
PROFAMCHA070101132307132343000036Weekenders - PIZZA (MD) - (APR06) - This Afternoon                                                                          150                                
PROFAMCHA070101132343132355000012Family Bumpers - (Phase 1 Spring 04) - Pillow Figh                                                                          150                                
PROFAMCHA070101132355132434000039xxLloyd In Space (NOTES) (AUG06)MD- This afternoon                                                                          150                                
PROFAMCHA070101132434132444000010FAMJAM - Open/Close                                                                                                         150                                
PGRFAMCHA070101132444132839000355MV Disney - Come Clean (Hillary Duff)                                                                                  60688120                                
PROFAMCHA070101132839132853000014xxFAMJAM - Close (FAMILY) xxDNUxx                                                                                           150                                
PROFAMCHA070101132853132921000028xxDave the Barbarian - WIGGIN (MD) -  This afterno                                                                          150                                
PRCFAMCHA070101132921132934000013That's A Wrap - Tomorrow -Even Stevens/Movie (Jan                                                                           150                                
PROFAMCHA070101132934132941000007Chef Boyardee BB - MD $$$                                                                                             A     150                                
PRCFAMCHA070101132941132958000017MD Bumper - $$$ Shopping Race (:15-:17) APR06                                                                               150                                
ID FAMCHA070101132958133007000009Rating - G - (DEC05) (:08 - :10) $$$                                                                                        150                                
PGRFAMCHA070101133007143152010145Recess:  Taking the 5th Grade                                                                                         A6028807C                                
PRCFAMCHA070101143152143157000005Astral ID (FEB05) $$$                                                                                                       150                                
PROFAMCHA070101143157143227000030Life is Ruff (AUG06) Friday night @ 7:30                                                                                    150                                
PROFAMCHA070101143227143301000034Proud Family (JULY06) MOM YELLS (MD) -  This After                                                                          150                                
PRCFAMCHA070101143301143401000100Family Lab- Duplicator (DEC06) use as filler (min                                                                           150                                
PROFAMCHA070101143401143415000014xxKim Possible ARM MD (MAY 06) This afternoon @ 5:                                                                          150                                
PRCFAMCHA070101143415143425000010That's A Wrap - KEEP WATCHING...(Dec 26-Jan5)                                                                               150                                
PROFAMCHA070101143425143455000030xxSuite Life of Z & C -MD Disclaimer (concept) Thi                                                                          150                                
PROFAMCHA070101143455143512000017xxLilo & Stitch (MMM) (APR06) LICK - Tomorrow Morn                                                                          150                                
PROFAMCHA070101143512143543000031Emperor's New School KUZCO BARS- NSW - Weekend aft                                                                          150                                
PROFAMCHA070101143543143600000017Mad Dash Block Open (:16-:18) APR06 $$$                                                                                     150                                
PGRFAMCHA070101143600145835002235Disney's Recess                                   EP: 1-047                                                            6068607E                                
PRCFAMCHA070101145835145847000012MD - 03 - WEEKENDERS/LLOYD (APR06) (:11 - :13) $$$                                                                          150                                
PROFAMCHA070101145847145923000036Weekenders - PIZZA (MD) - (APR06) - Coming Up Next                                                                          150                                
PRCFAMCHA070101145923145936000013That's A Wrap - Tomorrow -Even Stevens/Movie (Jan                                                                           150                                
PROFAMCHA070101145936145951000015Phil of the Future IDs - Aly Flute Spit - I'm Aly                                                                           150                                
PRCFAMCHA070101145951150000000009MD Bumper $$$ - Race Cars (:08-:10) APR06 **DNU                                                                             150                                
PRCFAMCHA070101150000150009000009CC Disclaimer - FAST - Generic (:08-:10) $$$                                                                                150                                
PGRFAMCHA070101150009152241002232Disney's The Weekenders                           EP: 1-015                                                           A6068607ECC                              
PRCFAMCHA070101152241152246000005Astral ID (FEB05) $$$                                                                                                       150                                
PRCFAMCHA070101152246152258000012MD - 10 - LLOYD/DAVE (APR06) (:11 - :13) $$$                                                                                150                                
PROFAMCHA070101152258152316000018xxLloyd In Space (LARRY) (JUNE06) MD- Coming Up Ne                                                                          150                                
PRCFAMCHA070101152316152323000007Family Bumpers - (Phase 2 F/W 04) - Hockey (MD-L/M                                                                          150                                
PROFAMCHA070101152323152341000018xxDave the Barbarian - LEARNING (MD) -  This after                                                                          150                                
PROFAMCHA070101152341152415000034Proud Family (APR06) GET BURNED (MD) - This Aftern                                                                          150                                
PROFAMCHA070101152415152444000029High School Musical Dance Along Tomorrow night @ 7                                                                          150                                
PROFAMCHA070101152444152451000007Chef Boyardee BB - MD $$$                                                                                             A     150                                
PRCFAMCHA070101152451152500000009MD Bumper - $$$ Ski Race (:07-:09) APR06                                                                                    150                                
ID FAMCHA070101152500152508000008Magic of Disney - MAD DASH - Shape (:06-:09) $$$                                                                            150                                
PGRFAMCHA070101152508154802002254Disney's Lloyd In Space                           EP: 29                                                               6068607E                                
PRCFAMCHA070101154802154814000012MD - 11 - DAVE/PROUD (APR06) (:11 - :13) $$$                                                                                150                                
PROFAMCHA070101154814154844000030Life is Ruff (AUG06) Friday night @ 7:30                                                                                    150                                
PROFAMCHA070101154844154902000018xxDave the Barbarian - LEARNING (MD) -  Coming Up                                                                           150                                
PROFAMCHA070101154902154912000010FAMJAM - Open/Close                                                                                                         150                                
PGRFAMCHA070101154912155057000145MV Disney - Superstition (Raven)                                                                                       60688120                                
PROFAMCHA070101155057155111000014xxFAMJAM - Close (FAMILY) xxDNUxx                                                                                           150                                
PRCFAMCHA070101155111155124000013That's A Wrap - Tomorrow -Even Stevens/Movie (Jan                                                                           150                                
PRCFAMCHA070101155124155137000013Naturally Sadie ID's (NOV06) - Ben - Podcast versi                                                                          150                                
PROFAMCHA070101155137155144000007Chef Boyardee BB - MD $$$                                                                                             A     150                                
PRCFAMCHA070101155144155200000016MD Bumper - $$$ Shopping Race (:15-:17) APR06                                                                               150                                
PRCFAMCHA070101155200155209000009CC Disclaimer - FAST - Generic (:08-:10) $$$                                                                                150                                
PGRFAMCHA070101155209161448002239Disney's Dave the Barbarian                       EPS # 05                                                             6068607ECC                              
PRCFAMCHA070101161448161453000005Astral ID (FEB05) $$$                                                                                                       150                                
PRCFAMCHA070101161453161505000012MD - 12 - PROUD/RECESS (APR06) (:11 - :13) $$$                                                                              150                                
PROFAMCHA070101161505161539000034Proud Family (JULY06) MOM YELLS (MD) -  Coming Up                                                                           150                                
PROFAMCHA070101161539161609000030xxCheetah Girls 2 CD Blast $$$ - Avail Now (Dec 5-                                                                    A     150                                
PROFAMCHA070101161609161639000030Life is Ruff (AUG06) Friday night @ 7:30                                                                                    150                                
PRCFAMCHA070101161639161652000013That's A Wrap - Tomorrow -Even Stevens/Movie (Jan                                                                           150                                
PRCFAMCHA070101161652161701000009MD Bumper $$$ - Race Cars (:08-:10) APR06 **DNU                                                                             150                                
PRCFAMCHA070101161701161710000009CC Disclaimer - FAST - Family.ca (:08-:10) $$$                                                                              150                                
PGRFAMCHA070101161710163940002230The Proud Family                                  EP: 2-029                                                           A6068607ECC                              
PRCFAMCHA070101163940163951000011MD - 13 - RECESS/KIM (APR06) (:11 - :13) $$$                                                                                150                                
PROFAMCHA070101163951164016000025xxRecess - CAREER DAY (MD) - (JULY06) - Coming Up                                                                           150                                
PRCFAMCHA070101164016164052000036Famous Players Popcorn Parties REVISED (Nov06) 3/d                                                                          150                                
PROFAMCHA070101164052164106000014xxKim Possible ARM MD (MAY 06) This afternoon @ 5:                                                                          150                                
PROFAMCHA070101164106164119000013xxFamily Bumpers - (Phase 2 F/W 04) - Leaves (PB/M                                                                          150                                
PROFAMCHA070101164119164138000019xxSuite Life of Z & C -MD Meditate This afternoon                                                                           150                                
PROFAMCHA070101164138164209000031Emperor's New School KUZCO BARS- NSW - Weekend aft                                                                          150                                
PRCFAMCHA070101164209164222000013That's A Wrap - Tomorrow -Even Stevens/Movie (Jan                                                                           150                                
PROFAMCHA070101164222164251000029High School Musical Dance Along Tomorrow night @ 7                                                                          150                                
PROFAMCHA070101164251164258000007Chef Boyardee BB - MD $$$                                                                                             A     150                                
PRCFAMCHA070101164258164305000007MD Bumper - $$$ Ski Race (:07-:09) APR06                                                                                    150                                
PGRFAMCHA070101164305170540002235Disney's Recess                                   EP: 1-035                                                            6068607E                                
PRCFAMCHA070101170540170545000005Astral ID (FEB05) $$$                                                                                                       150                                
PRCFAMCHA070101170545170558000013MD - 20 (PM-M-TH) - KIM/SUITE (JULY06) (:11-:13) $                                                                          150                                
PROFAMCHA070101170558170612000014xxKim Possible ARM MD (MAY 06) Coming Up Next                                                                               150                                
PROFAMCHA070101170612170631000019xxSuite Life of Z & C -MD Meditate This afternoon                                                                           150                                
PGRFAMCHA070101170631170714000043xxPlanet Rock Profiles - Nickelback (Name of the BEP: 46                                                              A70687120                                
PROFAMCHA070101170714170744000030Life is Ruff (AUG06) Friday night @ 7:30                                                                                    150                                
PRCFAMCHA070101170744170800000016MD Bumper - $$$ Shopping Race (:15-:17) APR06                                                                               150                                
PRCFAMCHA070101170800170809000009CC Disclaimer - FAST - Generic (:08-:10) $$$                                                                                150                                
PGRFAMCHA070101170809173059002250Disney's Kim Possible                             EP: 1-015                                                           A6068607ECC                              
PRCFAMCHA070101173059173112000013MD - 21 (PM-M-TH) - SUITE/LITTLE (JULY06) (:11-:13                                                                          150                                
PROFAMCHA070101173112173141000029High School Musical Dance Along Tomorrow night @ 7                                                                          150                                
PROFAMCHA070101173141173211000030xxSuite Life of Z & C -MD Disclaimer (concept) Com                                                                          150                                
PROFAMCHA070101173211173219000008Family Bumpers - (Phase 2 F/W 04) - Snow Ball (MD-                                                                          150                                
PROFAMCHA070101173219173255000036Weekenders - PIZZA (MD) - (APR06) - Tomorrow @ 3pm                                                                          150                                
PGRFAMCHA070101173255173340000045Planet Rock Profiles - Ashanti (Record)           EP: 46                                                              A70687120                                
PRCFAMCHA070101173340173353000013That's A Wrap - Tomorrow -Even Stevens/Movie (Jan                                                                           150                                
PROFAMCHA070101173353173400000007Chef Boyardee BB - MD $$$                                                                                             A     150                                
PGRFAMCHA070101173400175638002238Suite Life of Zack and Cody, The - Season 2       EP: 51                                                               6068607E                                
PRCFAMCHA070101175638175643000005Astral ID (FEB05) $$$                                                                                                       150                                
PRCFAMCHA070101175643175655000012NS - 01 - TIME/DARCY (APR06) (:11 - :13) $$$                                                                                150                                
PROFAMCHA070101175655175723000028So Little Time (NS Flat Tire) (APR06) - Coming Up                                                                           150                                
PRCFAMCHA070101175723175731000008xxDarcy's Wild Life (NADM) NS or NSW (AUG06) - Ton                                                                          150                                
PROFAMCHA070101175731175800000029xxThat's So Raven (AUG06) BEAUTY MARK - NS - Tonig                                                                          150                                
PGRFAMCHA070101175800175853000053xxPlanet Rock Profiles - Nickelback (Studio AnthemEP: 46                                                              A70687120                                
PROFAMCHA070101175853175916000023xxNeds DSSG - Doggy Munch- NS (JUNE06) Friday nigh                                                                          150                                
PROFAMCHA070101175916175946000030Life is Ruff (AUG06) Friday night @ 7:30                                                                                    150                                
PROFAMCHA070101175946180003000017Nonstop Block Open (:16-:18) APR06 $$$                                                                                      150                                
PGRFAMCHA070101180003182135002132So Little Time                                    EP: 07                                                              A2068607B                                
PRCFAMCHA070101182135182147000012NS - 02 - DARCY/RAVEN (APR06) (:11 - :13) $$$                                                                               150                                
PROFAMCHA070101182147182216000029High School Musical Dance Along Tomorrow night @ 7                                                                          150                                
PRCFAMCHA070101182216182224000008xxDarcy's Wild Life (NADM) NS or NSW (AUG06) - Com                                                                          150                                
PRCFAMCHA070101182224182300000036Famous Players Popcorn Parties REVISED (Nov06) 3/d                                                                          150                                
PROFAMCHA070101182300182329000029xxThat's So Raven (AUG06) BEAUTY MARK - NS - Tonig                                                                          150                                
PROFAMCHA070101182329182529000200xxDisneyworld Winner - Spot 1 (Dec 19-Jan11 ) 2xda                                                                    A     150                                
PROFAMCHA070101182529182604000035xxSmart Guy GOOD FRIEND (JULY06) NS - Tonight @ 7:                                                                          150                                
PROFAMCHA070101182604182807000203xxAir Buddies DVD- Puppy Profiles (Dec 19-Jan 2) (                                                                    A     150                                
PROFAMCHA070101182807182837000030xx8 Simple Rules (JUN06) (NS) TICKET - Tonight @ 8                                                                          150                                
PROFAMCHA070101182837182855000018Hannah Montana - NS - CROSSDRESSER (Oct06) Fridays                                                                          150                                
PROFAMCHA070101182855182925000030Phil of the Future THINGS TO COME (NSW) (APR06) -                                                                           150                                
PRCFAMCHA070101182925182938000013That's A Wrap - Tomorrow -Even Stevens/Movie (Jan                                                                           150                                
PROFAMCHA070101182938182944000006Phil of the Future IDs - You're Watching Family...                                                                          150                                
PRCFAMCHA070101182944183000000016NS Bumper $$$- Tennis (:15-:17) APR06                                                                                       150                                
PRCFAMCHA070101183000183009000009CC Disclaimer - FAST - Family.ca (:08-:10) $$$                                                                              150                                
PGRFAMCHA070101183009185139002130Darcy's Wild Life                                 EP: 32                                                        A23421A1065607BCC                              
PRCFAMCHA070101185139185144000005Astral ID (FEB05) $$$                                                                                                       150                                
PRCFAMCHA070101185144185156000012NS - 03 - RAVEN/SMART (APR06) (:11 - :13) $$$                                                                               150                                
PROFAMCHA070101185156185226000030Life is Ruff (AUG06) Friday night @ 7:30                                                                                    150                                
PROFAMCHA070101185226185255000029xxThat's So Raven (AUG06) BEAUTY MARK - NS - Comin                                                                          150                                
PROFAMCHA070101185255185325000030xxCheetah Girls 2 CD Blast $$$ - Avail Now (Dec 5-                                                                    A     150                                
PROFAMCHA070101185325185355000030Smart Guy MOE MUSIC (JUNE06) NS Tonight @ 7:30                                                                              150                                
PROFAMCHA070101185355185405000010FAMJAM - Open/Close                                                                                                         150                                
PROFAMCHA070101185723185737000014xxFAMJAM - Close (FAMILY) xxDNUxx                                                                                           150                                
PROFAMCHA070101185737185758000021xx8 Simple Rules (MAY06) (NS) - ELEPHANT - Tonight                                                                          150                                
PRCFAMCHA070101185758185828000030xxBig Big Present Prize Reveal and Winner Tease (2                                                                          150                                
PROFAMCHA070101185828185912000044Zoey 101 - PHONE DIARY (NS) (JUNE06) - Friday nigh                                                                          150                                
PROFAMCHA070101185912185946000034Even Stevens - Bad Boys (APR06) - (NSW) - Weekends                                                                          150                                
PRCFAMCHA070101185946190002000016NS Bumper $$$- Tennis (:15-:17) APR06                                                                                       150                                
PRCFAMCHA070101190002190011000009CC Disclaimer - FAST - Generic (:08-:10) $$$                                                                                150                                
PGRFAMCHA070101190011192249002238That's So Raven                                   EP: 1-063                                                            6068607BCC                              
PRCFAMCHA070101192249192301000012xxNS - 04 - SMART/8 SIMPLE (APR06) (:11 - :13) $$$                                                                          150                                
PROFAMCHA070101192301192330000029High School Musical Dance Along Tomorrow night @ 7                                                                          150                                
PROFAMCHA070101192330192405000035xxSmart Guy GOOD FRIEND (JULY06) NS - Coming Up Ne                                                                          150                                
PROFAMCHA070101192405192435000030xx8 Simple Rules (JUN06) (NS) TICKET - Tonight @ 8                                                                          150                                
PROFAMCHA070101192435192445000010FAMJAM - Open/Close                                                                                                         150                                
PROFAMCHA070101192816192830000014xxFAMJAM - Close (FAMILY) xxDNUxx                                                                                           150                                
PRCFAMCHA070101192830192838000008xxDarcy's Wild Life (NADM) NS or NSW (AUG06) - Tom                                                                          150                                
PRCFAMCHA070101192838192909000031xxLife with Derek NS FAMJAM (NOV06) Fridays @ 6:30                                                                          150                                
PROFAMCHA070101192909192939000030Double Teamed (SEPT12) - Next Friday @ 7:30pm                                                                               150                                
PRCFAMCHA070101192939192952000013That's A Wrap - Tomorrow -Even Stevens/Movie (Jan                                                                           150                                
PRCFAMCHA070101192952193000000008NS Bumper $$$ - Dodgeball (:07-:09) APR06                                                                                   150                                
PRCFAMCHA070101193000193009000009CC Disclaimer - FAST - Family.ca (:08-:10) $$$                                                                              150                                
PGRFAMCHA070101193009195221002212Smart Guy                                         EP: 1-050                                                           A6068807BCC                              
PRCFAMCHA070101195221195226000005Astral ID (FEB05) $$$                                                                                                       150                                
PRCFAMCHA070101195226195239000013xxNS - 05 - 8 SIMPLE/DEREK (SEPT06) (:11 - :13) $$                                                                          150                                
PROFAMCHA070101195239195309000030Life is Ruff (AUG06) Friday night @ 7:30                                                                                    150                                
PROFAMCHA070101195309195339000030xx8 Simple Rules (JUN06) (NS) TICKET - Coming up                                                                            150                                
PROFAMCHA070101195339195539000200xxDisneyworld Winner - Spot 1 (Dec 19-Jan11 ) 2xda                                                                    A     150                                
PRCFAMCHA070101195539195610000031xxLife with Derek NS FAMJAM (NOV06) Tonight @ 8:30                                                                          150                                
PROFAMCHA070101195610195617000007Family Bumpers - (Phase 2 F/W 04) - Snow Twirl (MD                                                                          150                                
PROFAMCHA070101195617195654000037xxSinbad Show NS Car (NOV06) Tonight@ 9:00                                                                                  150                                
PROFAMCHA070101195654195704000010FAMJAM - Open/Close                                                                                                         150                                
PGRFAMCHA070101195704195834000130MV Disney - Superstition (Raven)                                                                                       60688120                                
PROFAMCHA070101195834195848000014xxFAMJAM - Close (FAMILY) xxDNUxx                                                                                           150                                
PROFAMCHA070101195848195911000023xxNeds DSSG - Doggy Munch- NS (JUNE06) Friday nigh                                                                          150                                
PRCFAMCHA070101195911195944000033Naturally Sadie - New Eps Weekend nights @ 6:05 (t                                                                          150                                
PRCFAMCHA070101195944195958000014NS Bumper $$$ - Fashion (:12-:14) APR06 **DNU                                                                               150                                
PRCFAMCHA070101195958200007000009CC Disclaimer - FAST - Generic (:08-:10) $$$                                                                                150                                
PGRFAMCHA0701012000072021300021238 Simple Rules                                    EP: 75                                                              B2068807BCC                              
PRCFAMCHA070101202130202142000012xxNS - 06 - DEREK/SINBAD (SEPT06) (:11-:13) $$$                                                                             150                                
PROFAMCHA070101202142202211000029High School Musical Dance Along Tomorrow night @ 7                                                                          150                                
PRCFAMCHA070101202211202242000031xxLife with Derek NS FAMJAM (NOV06) Next                                                                                    150                                
PRCFAMCHA070101202242202342000100Family Lab- Duplicator (DEC06) use as filler (min                                                                           150                                
PROFAMCHA070101202342202414000032xxSinbad Show NS Dance (SEPT06) Tonight @ 9                                                                                 150                                
PRCFAMCHA070101202414202454000040xxBullying Stand Up CUFF $$$ (Nov 13- TBD) (after                                                                           150                                
PROFAMCHA070101202454202507000013Bonnie - Life With NS - Tonight @ 9:30 (Sept 06)                                                                            150                                
PROFAMCHA070101202507202517000010FAMJAM - Open/Close                                                                                                         150                                
PGRFAMCHA070101202517202827000310MV Disney - (MD/NS/NSW) - Aly & AJ - Rush (Mar06)                                                                      60688120                                
PROFAMCHA070101202827202841000014xxFAMJAM - Close (FAMILY) xxDNUxx                                                                                           150                                
PROFAMCHA070101202841202901000020xxHannah Montana - NS - SITUPS (Oct06) Fridays @ 5                                                                          150                                
PROFAMCHA070101202901202931000030Phil of the Future THINGS TO COME (NSW) (APR06) -                                                                           150                                
PRCFAMCHA070101202931202944000013That's A Wrap - Tomorrow -Even Stevens/Movie (Jan                                                                           150                                
PRCFAMCHA070101202944203000000016NS Bumper $$$- Tennis (:15-:17) APR06                                                                                       150                                
PRCFAMCHA070101203000203009000009CC Disclaimer - FAST - Family.ca (:08-:10) $$$                                                                              150                                
PGRFAMCHA070101203009205239002230Life With Derek                                   EP: 02                                                        C23968A1055607BCC3                             
PRCFAMCHA070101205239205244000005Astral ID (FEB05) $$$                                                                                                       150                                
PRCFAMCHA070101205244205256000012xxNS - 07 - SINBAD/BONNIE (SEPT06) (:11-:13) $$$                                                                            150                                
PROFAMCHA070101205256205326000030Life is Ruff (AUG06) Friday night @ 7:30                                                                                    150                                
PROFAMCHA070101205326205403000037xxSinbad Show NS Car (NOV06) Coming Up Next                                                                                 150                                
PRCFAMCHA070101205403205433000030xxBig Big Present Prize Reveal and Winner Tease (2                                                                          150                                
PROFAMCHA070101205433205446000013Bonnie - Life With NS - Tonight @ 9:30 (Sept 06)                                                                            150                                
PROFAMCHA070101205446205506000020Popular (JULY06) (ALI MCB) - Tonight  @ 10pm                                                                                150                                
PROFAMCHA070101205506205516000010FAMJAM - Open/Close                                                                                                         150                                
PGRFAMCHA070101205516205820000304MV Disney - (MD/NS/NSW) - Hilary Duff - Why Not (A                                                                     60688120                                
PROFAMCHA070101205820205834000014xxFAMJAM - Close (FAMILY) xxDNUxx                                                                                           150                                
PROFAMCHA070101205834205918000044Zoey 101 - PHONE DIARY (NS) (JUNE06) - Friday nigh                                                                          150                                
PROFAMCHA070101205918205949000031Even Stevens - Swing (APR06) - (NSW) - Weekends @                                                                           150                                
PRCFAMCHA070101205949210002000013NS Bumper $$$ - Fashion (:12-:14) APR06 **DNU                                                                               150                                
PGRFAMCHA070101210002212225002223The Sinbad Show                                   EP: 19                                                               2068507B                                
PRCFAMCHA070101212225212238000013xxNS - 08 - BONNIE/POPULAR (SEPT06) (:11-:13) $$$                                                                           150                                
PROFAMCHA070101212238212307000029High School Musical Dance Along Tomorrow night @ 7                                                                          150                                
PROFAMCHA070101212307212320000013Bonnie - Life With NS - Coming Up Next (Sept 06)                                                                            150                                
PROFAMCHA070101212320212332000012Family Bumpers - (Phase 3 Spring 05) - Bake (MD/NS                                                                          150                                
PROFAMCHA070101212332212352000020Popular (JULY06) (ALI MCB) - Tonight  @ 10pm                                                                                150                                
PROFAMCHA070101212352212402000010FAMJAM - Open/Close                                                                                                         150                                
PGRFAMCHA070101212402212816000414xxMV Disney - (NS/NSW-post7pm) - Robbie Robertson                                                                      60688120                                
PROFAMCHA070101212816212830000014xxFAMJAM - Close (FAMILY) xxDNUxx                                                                                           150                                
PROFAMCHA070101212830212848000018Hannah Montana - NS - CROSSDRESSER (Oct06) Fridays                                                                          150                                
PRCFAMCHA070101212848212910000022xxLife with Derek NS Hugaphobia Fridays @ 6:30 (DE                                                                          150                                
PROFAMCHA070101212910212940000030Double Teamed (SEPT12) - Next Friday @ 7:30pm                                                                               150                                
PRCFAMCHA070101212940212953000013That's A Wrap - Tomorrow -Even Stevens/Movie (Jan                                                                           150                                
PRCFAMCHA070101212953213002000009NS Bumper $$$ - Dodgeball (:07-:09) APR06                                                                                   150                                
PGRFAMCHA070101213002215013002011Life With Bonnie                                  EP: 24                                                               2068507B                                
PRCFAMCHA070101215013215018000005Astral ID (FEB05) $$$                                                                                                       150                                
PRCFAMCHA070101215018215031000013NS - 09 - POPULAR/8 SIMPLE (APR06) (:11 - :13) $$$                                                                          150                                
PROFAMCHA070101215031215101000030Life is Ruff (AUG06) Friday night @ 7:30                                                                                    150                                
PROFAMCHA070101215101215121000020Popular (JULY06) (ALI MCB) - Coming Up Next                                                                                 150                                
PRCFAMCHA070101215121215201000040xxBullying Stand Up CUFF $$$ (Nov 13- TBD) (after                                                                           150                                
PROFAMCHA070101215201215231000030xx8 Simple Rules (JUN06) (NS) TICKET - Tonight @ 1                                                                          150                                
PRCFAMCHA070101215231215302000031xxLife with Derek NS FAMJAM (NOV06) Tonight @ 11:3                                                                          150                                
PROFAMCHA070101215302215357000055So Little Time (NS) (APR06) Watching TV - Tomorrow                                                                          150                                
PROFAMCHA070101215357215407000010FAMJAM - Open/Close                                                                                                         150                                
PGRFAMCHA070101215407215802000355MV Disney - Come Clean (Hillary Duff)                                                                                  60688120                                
PROFAMCHA070101215802215816000014xxFAMJAM - Close (FAMILY) xxDNUxx                                                                                           150                                
PROFAMCHA070101215816215850000034xxNeds DSSG - Granny Kiss NS (MAY06) Friday nighs                                                                           150                                
PRCFAMCHA070101215850215916000026Life WD Derek Bloopers Season 2 #11 (NS/NSW) (JAN0                                                                          150                                
PRCFAMCHA070101215916215949000033Naturally Sadie - New Eps Weekend nights @ 6:05 (t                                                                          150                                
PRCFAMCHA070101215949220006000017NS Bumper $$$- Tennis (:15-:17) APR06                                                                                       150                                
PGRFAMCHA070101220006224410004404Popular                                           EP: 10                                                              B2068807B                                
PRCFAMCHA070101224410224422000012NS - 10 - 8 SIMPLE/DEREK (SEPT06) (:11 - :13) $$$                                                                           150                                
PROFAMCHA070101224422224451000029High School Musical Dance Along Tomorrow night @ 7                                                                          150                                
PROFAMCHA070101224451224512000021xx8 Simple Rules (MAY06) (NS) - ELEPHANT - Coming                                                                           150                                
PRCFAMCHA070101224512224542000030xxBig Big Present Prize Reveal and Winner Tease (2                                                                          150                                
PRCFAMCHA070101224542224604000022xxLife with Derek NS Hugaphobia (SEPT06) Tonight a                                                                          150                                
PROFAMCHA070101224604224614000010FAMJAM - Open/Close                                                                                                         150                                
PGRFAMCHA070101224614225111000457MV Disney - (FAMILY HITS) That's So Raven Theme So                                                                     60688120                                
PROFAMCHA070101225111225125000014xxFAMJAM - Close (FAMILY) xxDNUxx                                                                                           150                                
PROFAMCHA070101225125225220000055So Little Time (NS) (APR06) Watching TV - Tomorrow                                                                          150                                
PRCFAMCHA070101225220225228000008xxDarcy's Wild Life (NADM) NS or NSW (AUG06) - Tom                                                                          150                                
PROFAMCHA070101225228225257000029xxThat's So Raven (AUG06) BEAUTY MARK - NS - Tomor                                                                          150                                
PROFAMCHA070101225257225307000010FAMJAM - Open/Close                                                                                                         150                                
PGRFAMCHA070101225307225656000349MV Disney - (NS/NSWpost 7:30pm) - Ingram Hill - Al                                                                     60688120                                
PROFAMCHA070101225656225710000014xxFAMJAM - Close (FAMILY) xxDNUxx                                                                                           150                                
PROFAMCHA070101225710225747000037xxSinbad Show NS Car (NOV06) Tomorrow @ 9:00                                                                                150                                
PROFAMCHA070101225747225800000013Bonnie - Life With NS - Tomorrow @ 9:30 (Sept 06)                                                                           150                                
PGRFAMCHA070101225800225852000052Planet Rock Profiles - Green Day (Grade 5) xxDNUxxEP: 46                                                              A70687120                                
PROFAMCHA070101225852225910000018Hannah Montana - NS - CROSSDRESSER (Oct06) Fridays                                                                          150                                
PROFAMCHA070101225910225940000030Phil of the Future THINGS TO COME (NSW) (APR06) -                                                                           150                                
PRCFAMCHA070101225940225953000013That's A Wrap - Tomorrow -Even Stevens/Movie (Jan                                                                           150                                
PRCFAMCHA070101225953230007000014NS Bumper $$$ - Fashion (:12-:14) APR06 **DNU                                                                               150                                
PRCFAMCHA070101230007230016000009CC Disclaimer - SLOW - Generic (:08-:10) $$$                                                                                150                                
PGRFAMCHA0701012300162321520021368 Simple Rules                                    EP: 09                                                              B2068807BCC                              
PRCFAMCHA070101232152232157000005Astral ID (FEB05) $$$                                                                                                       150                                
PRCFAMCHA070101232157232209000012NS - 11 - DEREK/RADIO (SEPT06) (:11 - :13) $$$                                                                              150                                
PROFAMCHA070101232209232239000030Life is Ruff (AUG06) Friday night @ 7:30                                                                                    150                                
PRCFAMCHA070101232239232301000022xxLife with Derek NS Hugaphobia (SEPT06) Coming Up                                                                          150                                
PROFAMCHA070101232301232329000028So Little Time (NS Flat Tire) (APR06) - Tomorrow N                                                                          150                                
PRCFAMCHA070101232329232337000008xxDarcy's Wild Life (NADM) NS or NSW (AUG06) - Tom                                                                          150                                
PROFAMCHA070101232337232347000010FAMJAM - Open/Close                                                                                                         150                                
PGRFAMCHA070101232347232724000337MV Disney - Superstition (Raven)                                                                                       60688120                                
PROFAMCHA070101232724232738000014xxFAMJAM - Close (FAMILY) xxDNUxx                                                                                           150                                
PROFAMCHA070101232738232807000029xxThat's So Raven (AUG06) BEAUTY MARK - NS - Tomor                                                                          150                                
PROFAMCHA070101232807232839000032xxSinbad Show NS Dance (SEPT06) Tomorrow @ 9                                                                                150                                
PROFAMCHA070101232839232923000044Zoey 101 - PHONE DIARY (NS) (JUNE06) - Friday nigh                                                                          150                                
PROFAMCHA070101232923232954000031Even Stevens - Swing (APR06) - (NSW) - Weekends @                                                                           150                                
PRCFAMCHA070101232954233001000007NS Bumper $$$ - Dodgeball (:07-:09) APR06                                                                                   150                                
PRCFAMCHA070101233001233010000009CC Disclaimer - SLOW - Family.ca (:08-:10) $$$                                                                              150                                
PGRFAMCHA070101233010235240002230Life with Derek Season 2                          EP: 18                                                        C26679A1065607BCC                              
PRCFAMCHA070101235240235252000012NS - 12 - RADIO/SPIDER (SEPT06) (:11 - :13) $$$                                                                             150                                
PROFAMCHA070101235252235321000029High School Musical Dance Along Tomorrow night @ 7                                                                          150                                
PRCFAMCHA070101235321235351000030Radio Free Roscoe - (NS/M-Th) (JUNE06) Coming up                                                                            150                                
PRCFAMCHA070101235351235413000022Life WD Derek Bloopers Season 2 #9 (NS/NSW)                                                                                 150                                
PROFAMCHA070101235413235426000013Bonnie - Life With NS - Tomorrow @ 9:30 (Sept 06)                                                                           150                                
PROFAMCHA070101235426235446000020Popular (JULY06) (ALI MCB) - Tomorrow Night  @ 10p                                                                          150                                
PROFAMCHA070101235446235456000010FAMJAM - Open/Close                                                                                                         150                                
PGRFAMCHA070101235456235818000322MV Disney - Superstition (Raven)                                                                                       60688120                                
PROFAMCHA070101235818235832000014xxFAMJAM - Close (FAMILY) xxDNUxx                                                                                           150                                
PRCFAMCHA070101235832235903000031xxLife with Derek NS FAMJAM (NOV06) Fridays @ 6:30                                                                          150                                
PROFAMCHA070101235903235933000030Double Teamed (SEPT12) - Next Friday @ 7:30pm                                                                               150                                
PRCFAMCHA070101235933235946000013That's A Wrap - Tomorrow -Even Stevens/Movie (Jan                                                                           150                                
PRCFAMCHA070101235946000001000015NS Bumper $$$- Tennis (:15-:17) APR06                                                                                       150                                
PRCFAMCHA070101000001000010000009CC Disclaimer - SLOW - Generic (:08-:10) $$$                                                                                150                                
PGRFAMCHA070101000010002240002230Radio Free Roscoe                                 EPS # 24                                                      B88737A1065607ACC                              
PRCFAMCHA070101002240002245000005Astral ID (FEB05) $$$                                                                                                       150                                
PRCFAMCHA070101002245002257000012NS - 13 - SPIDER (APR06) (:11 - :13) $$$                                                                                    150                                
PROFAMCHA070101002257002327000030Life is Ruff (AUG06) Friday night @ 7:30                                                                                    150                                
PROFAMCHA070101002327002357000030xx8 Simple Rules (JUN06) (NS) TICKET - Tomorrow ni                                                                          150                                
PRCFAMCHA070101002357002428000031xxLife with Derek NS FAMJAM (NOV06) Tomorrow @ 11:                                                                          150                                
PROFAMCHA070101002428002438000010FAMJAM - Open/Close                                                                                                         150                                
PGRFAMCHA070101002438002815000337MV Disney - (MD/NS/NSW) - Hilary Duff - Wake Up (A                                                                     60688120                                
PROFAMCHA070101002815002829000014xxFAMJAM - Close (FAMILY) xxDNUxx                                                                                           150                                
PROFAMCHA070101002829002852000023xxNeds DSSG - Doggy Munch- NS (JUNE06) Friday nigh                                                                          150                                
PRCFAMCHA070101002852002925000033Naturally Sadie - New Eps Weekend nights @ 6:05 (t                                                                          150                                
PRCFAMCHA070101002925002938000013That's A Wrap - Tomorrow -Even Stevens/Movie (Jan                                                                           150                                
PRCFAMCHA070101002938002948000010Naturally Sadie ID's - Log on to family.ca                                                                                  150                                
PRCFAMCHA070101002948003001000013NS Bumper $$$ - Fashion (:12-:14) APR06 **DNU                                                                               150                                
PGRFAMCHA070101003001005146002145Spiderman                                         EP: 25                                                        C02618 1065607E                                
PRCFAMCHA070101005146005155000009NS Bumper $$$ - Dodgeball (:07-:09) APR06                                                                                   150                                
PROFAMCHA070101005155005224000029High School Musical Dance Along Tomorrow night @ 7                                                                          150                                
PROFAMCHA070101005224005319000055So Little Time (NS) (APR06) Watching TV - Tomorrow                                                                          150                                
PROFAMCHA070101005319005329000010FAMJAM - Open/Close                                                                                                         150                                
PGRFAMCHA070101005329005645000316MV Disney - Girl Power (Cheetah Girls)                                                                                 60688120                                
PROFAMCHA070101005645005659000014xxFAMJAM - Close (FAMILY) xxDNUxx                                                                                           150                                
PRCFAMCHA070101005659005707000008xxDarcy's Wild Life (NADM) NS or NSW (AUG06) - Tom                                                                          150                                
PROFAMCHA070101005707005717000010FAMJAM - Open/Close                                                                                                         150                                
PGRFAMCHA070101005717010048000331MV Disney - (MD/NS/NSW) - Hilary Duff - So Yesterd                                                                     60688120                                
PROFAMCHA070101010048010102000014xxFAMJAM - Close (FAMILY) xxDNUxx                                                                                           150                                
PROFAMCHA070101010102010122000020xxHannah Montana - NS - SITUPS (Oct06) Fridays @ 5                                                                          150                                
PROFAMCHA070101010122010152000030Phil of the Future THINGS TO COME (NSW) (APR06) -                                                                           150                                
PRCFAMCHA070101010152010207000015xxAstral - LOVE $$$                                                                                                         150                                
SO FAMCHA070101010207010219000012Sign Off                                                                                                                                                       
OFFFAMCHA070101010219043000032741OFF AIR                                                                                                                                                        
SO FAMCHA070102043000043011000011Sign On (oct 1)                                                                                                                                                
PRCFAMCHA070102043011043020000009CC Disclaimer - FAST - Generic (:08-:10) $$$                                                                                150                                
PGRFAMCHA070102043020045655002635Katie And Orbie                                   EP: 2-023                                                     C11896A1065607ECC                              
PRCFAMCHA070102045655045710000015PH - 04 - FRANNY/SOMETHING/HOZE  (:14 - :16) (APR0                                                                          150                                
ID FAMCHA070102045710045723000013PS Playhouse AM Block Open (:10-:15) $$$                                                                                    150                                
PRCFAMCHA070102045723045732000009CC Disclaimer - FAST - Family.ca (:08-:10) $$$                                                                              150                                
PGRFAMCHA070102045732052002002230Franny's Feet                                     EPS # 19                                                      C23971 1065607ECC                              
PRCFAMCHA070102052002052007000005Astral ID (FEB05) $$$                                                                                                       150                                
PRCFAMCHA070102052007052023000016PH - 05 - SOMETHING/HOZE/KING (:14 - :16) (APR06)                                                                           150                                
ID FAMCHA070102052023052036000013PS Playhouse AM Block Open (:10-:15) $$$                                                                                    150                                
PRCFAMCHA070102052036052045000009CC Disclaimer - FAST - Generic (:08-:10) $$$                                                                                150                                
PGRFAMCHA070102052045054316002231Something Else                                    EP: 1-003                                                     B69257A1065607ECC                              
PRCFAMCHA070102054316054332000016PH - 06 - HOZE/KING/SPIDERMAN (:14 - :16) (APR06)                                                                           150                                
ID FAMCHA070102054332054345000013PS Playhouse AM Block Open (:10-:15) $$$                                                                                    150                                
PRCFAMCHA070102054345054354000009CC Disclaimer - FAST - Family.ca (:08-:10) $$$                                                                              150                                
PGRFAMCHA070102054354060632002238Hoze Houndz                                       EPS # 6-071                                                   C22818A1065607ECC                              
PRCFAMCHA070102060632060637000005Astral ID (FEB05) $$$                                                                                                       150                                
PRCFAMCHA070102060637060653000016PH - 07 - KING/SPIDERMAN/KIM  (:14 - :16) (APR06)                                                                           150                                
ID FAMCHA070102060653060706000013PS Playhouse AM Block Open (:10-:15) $$$                                                                                    150                                
PRCFAMCHA070102060706060715000009CC Disclaimer - FAST - Generic (:08-:10) $$$                                                                                150                                
PGRFAMCHA070102060715062945002230King                                              EP: 4-050                                                     C25350A1065607ECC                              
PRCFAMCHA070102062945063001000016PH - 08- SPIDERMAN/KIM ( (:14 - :16) (APR06) $$$                                                                            150                                
PROFAMCHA070102063001063020000019MadMadMornings Block Open $$$                                                                                               150                                
PGRFAMCHA070102063020065203002143Spiderman                                         EP: 11                                                        C02618 1065607E                                
PRCFAMCHA070102065203065208000005Astral ID (FEB05) $$$                                                                                                       150                                
PRCFAMCHA070102065208065223000015MMM - 01 (AM) - KIM/RECESS/WEEKENDERS (OCT05) (:14                                                                          150                                
PRCFAMCHA070102065223065236000013That's A Wrap - Tomorrow - Kim Possible/Movie (Jan                                                                          150                                
PROFAMCHA070102065236065309000033xxKim Possible MORE RON (MMM) (MAY 06) Coming up N                                                                          150                                
PROFAMCHA070102065309065319000010FAMJAM - Open/Close                                                                                                         150                                
PGRFAMCHA070102065319065418000059MV Disney - (FAMILY HITS) That's So Raven Theme So                                                                     60688120                                
PROFAMCHA070102065418065432000014xxFAMJAM - Close (FAMILY) xxDNUxx                                                                                           150                                
PROFAMCHA070102065432065457000025xxRecess Sketches OCT 06 - CAJOLING GUS - Diaper G                                                                          150                                
PROFAMCHA070102065457065527000030Life is Ruff (AUG06) Friday night @ 7:30                                                                                    150                                
PROFAMCHA070102065527065534000007Chef Boyardee BB - MMM $$$                                                                                            A     150                                
PROFAMCHA070102065534065553000019MadMadMornings Block Open $$$                                                                                               150                                
PRCFAMCHA070102065553065602000009CC Disclaimer - FAST - Generic (:08-:10) $$$                                                                                150                                
PGRFAMCHA070102065602071853002251Disney's Kim Possible                             EP: 1-006                                                           A6068607ECC                              
PRCFAMCHA070102071853071908000015MMM - 02 (AM) - RECESS/WEEKENDERS/LILO (OCT05) (:1                                                                          150                                
PRCFAMCHA070102071908071943000035xxBig Big --- That's A Wrap Promo (Dec 12-Jan5) ap                                                                          150                                
PROFAMCHA070102071943071951000008Family Bumpers - (Phase 2 F/W 04) - Snow Ball (MD-                                                                          150                                
PROFAMCHA070102071951072001000010FAMJAM - Open/Close                                                                                                         150                                
PGRFAMCHA070102072001072146000145MV Disney - (MD/NS/NSW) - HSM - What I've Been Loo                                                                     60688120                                
PROFAMCHA070102072146072200000014xxFAMJAM - Close (FAMILY) xxDNUxx                                                                                           150                                
PROFAMCHA070102072200072225000025xxRecess Sketches OCT 06 - CAJOLING GUS - Duck Gus                                                                          150                                
PRCFAMCHA070102072225072305000040xxBullying Stand Up CUFF $$$ (Nov 13- TBD) (after                                                                           150                                
PROFAMCHA070102072305072334000029High School Musical Dance Along Tonight @ 7:30 (AU                                                                          150                                
PROFAMCHA070102072334072341000007Chef Boyardee BB - MMM $$$                                                                                            A     150                                
PROFAMCHA070102072341072400000019MadMadMornings Block Open $$$                                                                                               150                                
PGRFAMCHA070102072400074635002235Disney's Recess                                   EP: 1-041                                                            6068607E                                
PRCFAMCHA070102074635074640000005Astral ID (FEB05) $$$                                                                                                       150                                
PRCFAMCHA070102074640074656000016PH - 09 - WEEKENDERS/LILO/EINSTEINS (:14 - :16) (A                                                                          150                                
PRCFAMCHA070102074656074709000013That's A Wrap - Tomorrow - Kim Possible/Movie (Jan                                                                          150                                
PROFAMCHA070102074709074745000036Weekenders - PIZZA (MMM) - (APR06) - Coming Up Nex                                                                          150                                
PRCFAMCHA070102074745074845000100Family Lab- Duplicator (DEC06) use as filler (min                                                                           150                                
PROFAMCHA070102074845074910000025xxRecess Sketches OCT 06 - CAJOLING GUS - Glasses                                                                           150                                
PROFAMCHA070102074910074924000014Emperor's New School STRAW - NSW - Weekend afterno                                                                          150                                
PROFAMCHA070102074924075004000040xxArthur and the Invisibles (in theatres Jan 12)                                                                            150                                
PROFAMCHA070102075004075034000030Life is Ruff (AUG06) Friday night @ 7:30                                                                                    150                                
PROFAMCHA070102075034075053000019MadMadMornings Block Open $$$                                                                                               150                                
PRCFAMCHA070102075053075102000009CC Disclaimer - FAST - Family.ca (:08-:10) $$$                                                                              150                                
