OFFFAMCHA000501043000060000013000                                                                                                                                                               
SO FAMCHA000501060000060011000011Sign On (oct 1)                                                                                                                                                
PROFAMCHA000501060011060016000005CC Disclaimer (oct) **DO NOT USE**                                                                                                                             
PGRFAMCHA000501060016062416002400Hello Mrs. Cherrywinkle                           M. Armoire Goes Empty                                         B18877A1065607ACC                              
ID FAMCHA000501062416062431000015Generic ID - confetti                                                                                                                                          
PRCFAMCHA000501062431062501000030Franklin - Weekdays @ 7:30am (MAR)                                                                                                                             
PROFAMCHA000501062501062540000039Goof Troop - Today @ 3pm                                                                                                                                       
PGRFAMCHA000501062540062740000200Disney Circle Time - The Greedy Dog (anywhere but                                                                      60688130                                
PROFAMCHA000501062740062825000045PB&J Otter - Mon, Wed & Fri @ 8:30am (oct 1)                                                                                                                   
PROFAMCHA000501062825062930000105Adventures of Gummi Bears - Today @ 7am (MAR)                                                                                                                  
PRCFAMCHA000501062930062940000010Morning Block menu background (flex time)                                                                                                                      
ID FAMCHA000501062940063000000020Morning block open play pen                                                                                                                                    
PROFAMCHA000501063000063005000005CC Disclaimer (oct) **DO NOT USE**                                                                                                                             
PGRFAMCHA000501063005065415002410Busy World Of Richard Scarry; The                 Now I Know My 1,2,3'S/Forget-Bur Never Forgets/Too            B24406 1165607ECC                              
ID FAMCHA000501065415065420000005Generic ID - Couch 2                                                                                                                                           
ID FAMCHA000501065420065431000011URL - MOTHER'S DAY (April 20 - May 14)                                                                                                                         
PROFAMCHA000501065431065526000055Generic Series Promo - Celebrate the Day w/Family                                                                                                              
PROFAMCHA000501065526065626000100Morning Block-(MWF)- Generic                                                                                                                                   
PGRFAMCHA000501065626065826000200Music Break-Polka Dots,Checks & Stripes:Parachute                                                                      60686130                                
PROFAMCHA000501065826065905000039Goof Troop - Today @ 3pm                                                                                                                                       
PRCFAMCHA000501065905065940000035Little Lulu Show; The - Tuesday @ 6:00pm (oct1)                                                                                                                
PRCFAMCHA000501065940065950000010Morning Block menu background (flex time)                                                                                                                      
ID FAMCHA000501065950070000000010Magic of Disney - Kid v/o female                                                                                                                               
PROFAMCHA000501070000070005000005CC Disclaimer (oct) **DO NOT USE**                                                                                                                             
PGRFAMCHA000501070005072243002238Adventures of the Gummi Bears; The                Tuxford's Turnaround                                                 6068607ECC                              
ID FAMCHA000501072243072253000010Generic ID - Ring around the rosie                                                                                                                             
PROFAMCHA000501072253072338000045PB&J Otter - Mon, Wed & Fri @ 8:30am (oct 1)                                                                                                                   
PRCFAMCHA000501072338072408000030Franklin - Next (MAR)                                                                                                                                          
PGRFAMCHA000501072408072823000415Art Attack - Elephant                                                                                                  60686130                                
PROFAMCHA000501072823072853000030Out of The Box - Tuesday and Thursday @ 8:30am (oc                                                                                                             
PROFAMCHA000501072853072928000035Lion King's Timon & Pumbaa - wkdays @ noon (OCT 1)                                                                                                             
PRCFAMCHA000501072928072940000012Morning Block menu background (flex time)                                                                                                                      
ID FAMCHA000501072940073000000020Morning block open play pen                                                                                                                                    
PROFAMCHA000501073000073005000005CC Disclaimer (oct) **DO NOT USE**                                                                                                                             
PGRFAMCHA000501073005075258002253Franklin                                          Franklin the Copycat/Big Brother Franklin                     P02772A1065607ECC                              
ID FAMCHA000501075258075308000010Generic ID - soccer **DO NOT USE**                                                                                                                             
PROFAMCHA000501075308075353000045PB&J Otter - Mon, Wed & Fri @ 8:30am (oct 1)                                                                                                                   
PRCFAMCHA000501075353075428000035Little Lulu Show; The - Tuesday @ 6:00pm (oct1)                                                                                                                
PGRFAMCHA000501075428075613000145Disney Circle Time - The Milkmaids Pail (anywhere                                                                      60688130                                
PROFAMCHA000501075613075643000030Madeline -Madeline on Saturday (oct)                                                                                                                           
PRCFAMCHA000501075643075716000033Hoze Houndz - Tuesday @ 6:30pm on Family (oct 1)                                                                                                               
PGRFAMCHA000501075716075851000135Big Garage, "stop" - Sounds Funny To Me                                                                         P21470 10656130                                
PROFAMCHA000501075851075930000039Goof Troop - Today @ 3pm                                                                                                                                       
PRCFAMCHA000501075930075940000010Morning Block menu background (flex time)                                                                                                                      
ID FAMCHA000501075940080000000020Morning block open play pen                                                                                                                                    
PGRFAMCHA000501080000082001002001Art Attack                                        1-109                                                                60686110                                
ID FAMCHA000501082001082011000010Generic ID - Ring around the rosie                                                                                                                             
PROFAMCHA000501082011082050000039Goof Troop - Today @ 3pm                                                                                                                                       
PGRFAMCHA000501082050082250000200Disney Circle Time - The Lion & The Mouse Fable (a                                                                     60688130                                
PRCFAMCHA000501082250082325000035Little Lulu Show; The - Tuesday @ 6:00pm (oct1)                                                                                                                
PGRFAMCHA000501082325082834000509Plasmo #3                                                                                                              70688130                                
PROFAMCHA000501082834082901000027Recess - Today @ 5:30 pm (oct1)                                                                                                                                
PRCFAMCHA000501082901083001000100Morning Block-(MWF)- PB&J next/Babar/Katie                                                                                                                     
PROFAMCHA000501083001083006000005CC Disclaimer (oct) **DO NOT USE**                                                                                                                             
PGRFAMCHA000501083006085229002223PB&J Otter                                        Otter In The Water/All Popped Out                                   A6068607ECC                              
ID FAMCHA000501085229085236000007Generic ID - Whisper                                                                                                                                           
PROFAMCHA000501085236085257000021Recess - Today @ 5:30 pm (oct1)                                                                                                                                
PRCFAMCHA000501085257085330000033Hoze Houndz - Tuesday @ 6:30pm on Family (oct 1)                                                                                                               
PROFAMCHA000501085330085400000030Generic Series Promo - There's Always Something On                                                                                                             
PROFAMCHA000501085400085500000100Morning Block-(MWF)- Babar next/Katie/Billy                                                                                                                    
PROFAMCHA000501085500085505000005CC Disclaimer (oct) **DO NOT USE**                                                                                                                             
PGRFAMCHA000501085505091817002312Babar                                             Fathers And Sons                                              C07575 1065607ECC                              
ID FAMCHA000501091817091822000005Generic ID - Couch 2                                                                                                                                           
ID FAMCHA000501091822091839000017URL(1) - KIDS' GALLERY (Preschool ONLY)                                                                                                                        
PROFAMCHA000501091839091900000021Recess - Today @ 5:30 pm (oct1)                                                                                                                                
PROFAMCHA000501091900092000000100Morning Block-(MWF)- Katie next/Billy/Busy                                                                                                                     
PROFAMCHA000501092000092005000005CC Disclaimer (oct) **DO NOT USE**                                                                                                                             
PGRFAMCHA000501092005094640002635Katie And Orbie                                   The Attic/The Zoo/Katie Up A Tree                             C12449 1065607ECC                              
ID FAMCHA000501094640094645000005Generic ID - Couch 1                                                                                                                                           
PROFAMCHA000501094645094700000015Doug - Today @ 5:00 pm (oct1)                                                                                                                                  
PROFAMCHA000501094700094800000100Morning Block-(MWF)- Billy next/Busy/Art Attack                                                                                                                
PROFAMCHA000501094800094805000005CC Disclaimer (oct) **DO NOT USE**                                                                                                                             
PGRFAMCHA000501094805101225002420Billy The Cat                                     Born To Be A Wildcat                                          B27655A1065607ECC                              
ID FAMCHA000501101225101230000005Generic ID - Marbles                                                                                                                                           
PROFAMCHA000501101230101300000030Generic Series Promo - Where the Fun Is                                                                                                                        
PROFAMCHA000501101300101400000100Morning Block-(MWF)- Busy next/Art Attack/Out of t                                                                                                             
PROFAMCHA000501101400101405000005CC Disclaimer (oct) **DO NOT USE**                                                                                                                             
PGRFAMCHA000501101405103814002409Busy World Of Richard Scarry; The                 Sleepover/Count On Us/Mystery Of The Stone Circle             B24407 1165607ECC                              
ID FAMCHA000501103814103821000007Generic ID - Whisper                                                                                                                                           
PROFAMCHA000501103821103900000039Goof Troop - Today @ 3pm                                                                                                                                       
PROFAMCHA000501103900104000000100Morning Block-(MWF)- Art Attack next/Out of the Bo                                                                                                             
PGRFAMCHA000501104000105939001939Art Attack                                        1-080                                                                60686110                                
ID FAMCHA000501105939105949000010Generic ID - Hula Hoop                                                                                                                                         
PROFAMCHA000501105949110006000017Hercules - Today @ 4:30 pm (Oct 1)                                                                                                                             
PRCFAMCHA000501110006110039000033Hoze Houndz - Tuesday @ 6:30pm on Family (oct 1)                                                                                                               
PROFAMCHA000501110039110100000021Recess - Today @ 5:30 pm (oct1)                                                                                                                                
PROFAMCHA000501110100110200000100Morning Block-(MWF)- Out of the Box next/Space Cas                                                                                                             
PROFAMCHA000501110200110205000005CC Disclaimer (oct) **DO NOT USE**                                                                                                                             
PGRFAMCHA000501110205112516002311Out of the Box                                    Goin' Buggy                                                          60686110CC                              
ID FAMCHA000501112516112526000010Generic ID - Pink inner tube                                                                                                                                   
ID FAMCHA000501112526112538000012URL(FAM2) - SMILING                                                                                                                                            
PROFAMCHA000501112538112600000022Hercules - Today @ 4:30 pm (oct 1)                                                                                                                             
PROFAMCHA000501112600112700000100Morning Block-(MWF)- Space Cases next                                                                                                                          
PROFAMCHA000501112700112705000005CC Disclaimer (oct) **DO NOT USE**                                                                                                                             
PGRFAMCHA000501112705115125002420Space Cases                                       Truth Hurts                                                   B22691 1165607BCC                              
ID FAMCHA000501115125115135000010Generic ID - Bubbles                                                                                                                                           
PROFAMCHA000501115135115235000100Morning Block-(MWF)- Generic                                                                                                                                   
PROFAMCHA000501115235115320000045Beetlejuice - Saturday @ 8pm                                                                                                                                   
PROFAMCHA000501115320115401000041Honey I Shrunk the Kids (series oct) tonight @ 6pm                                                                                                             
PROFAMCHA000501115401115440000039Goof Troop - Today @ 3pm                                                                                                                                       
PGRFAMCHA000501115440115715000235Art Attack - Window Cat                                                                                                60686130                                
PROFAMCHA000501115715115745000030Bug Juice Promo - Saturday @ 10am                                                                                                                              
PRCFAMCHA000501115745115820000035Misguided Angels - Tonight @ 6:45pm (MAR)                                                                                                                      
PROFAMCHA000501115820115850000030Goonies (MAY5) - Friday @ 8pm                                                                                                                                  
PROFAMCHA000501115850115950000100Afternoon Block - Lion King next/Flash Forward/Cla                                                                                                             
ID FAMCHA000501115950120000000010Magic of Disney - Teen v/o female                                                                                                                              
PGRFAMCHA000501120000122245002245Lion King's Timon & Pumbaa; The                   Space Ham/You Bet Your Tuhkus                                        6068607E                                
ID FAMCHA000501122245122255000010Generic ID - confetti                                                                                                                                          
PROFAMCHA000501122255122325000030Toothless (MAY) - Sunday @ 10:30am                                                                                                                             
PRCFAMCHA000501122325122400000035Little Lulu Show; The - Tuesday @ 6:00pm (oct1)                                                                                                                
PROFAMCHA000501122400122500000100Afternoon Block - Flash Forward next/Clarissa/Litt                                                                                                             
PROFAMCHA000501122500122505000005CC Disclaimer (oct) **DO NOT USE**                                                                                                                             
PGRFAMCHA000501122505124839002334Flash Forward                                     Good Sports                                                   A04591 1065607ACC                              
ID FAMCHA000501124839124849000010Generic ID - Bubbles                                                                                                                                           
ID FAMCHA000501124849124900000011URL - MOTHER'S DAY (April 20 - May 14)                                                                                                                         
PROFAMCHA000501124900125000000100Afternoon Block - Clarissa next/Little Lulu/Frankl                                                                                                             
PGRFAMCHA000501125000131335002335Clarissa                                          A Little Romance                                                     2068607B                                
ID FAMCHA000501131335131345000010Generic ID - Pink inner tube                                                                                                                                   
PROFAMCHA000501131345131415000030Toothless (MAY) - Sunday @ 10:30am                                                                                                                             
PROFAMCHA000501131415131445000030Contest - Bug Juice Marathon - Saturday @ 10am                                                                                                                 
PROFAMCHA000501131445131500000015Doug - Today @ 5:00 pm (oct1)                                                                                                                                  
PROFAMCHA000501131500131600000100Afternoon Block - Little Lulu next/Franklin/Art At                                                                                                             
PROFAMCHA000501131600131605000005CC Disclaimer (oct) **DO NOT USE**                                                                                                                             
PGRFAMCHA000501131605133937002332Little Lulu Show; The                             Bowlfinger/Great Tubbini                                      A20191A1055607E  3                             
ID FAMCHA000501133937133947000010Generic ID - Ring around the rosie                                                                                                                             
ID FAMCHA000501133947134000000013URL(2) - SILLY STORIES                                                                                                                                         
PROFAMCHA000501134000134021000021Recess - Today @ 5:30 pm (oct1)                                                                                                                                
PROFAMCHA000501134021134100000039Goof Troop - Today @ 3pm                                                                                                                                       
PROFAMCHA000501134100134200000100Afternoon Block - Franklin next/Art Attack/Darkwin                                                                                                             
PROFAMCHA000501134200134205000005CC Disclaimer (oct) **DO NOT USE**                                                                                                                             
PGRFAMCHA000501134205140458002253Franklin                                          Franklin's Family Treasure/Franklin's Music Lesson            B13645 1065607ECC                              
ID FAMCHA000501140458140508000010Generic ID - soccer **DO NOT USE**                                                                                                                             
PROFAMCHA000501140508140543000035Lion King's Timon & Pumbaa - today @ 4:00pm (OCT 1                                                                                                             
PROFAMCHA000501140543140600000017Hercules - Today @ 4:30 pm (Oct 1)                                                                                                                             
PROFAMCHA000501140600140700000100Afternoon Block - Art Attack next/Darkwing Duck                                                                                                                
PGRFAMCHA000501140700142646001946Art Attack                                        1-081                                                                60686110                                
ID FAMCHA000501142646142653000007Generic ID - Whisper                                                                                                                                           
PROFAMCHA000501142653142720000027Recess - Today @ 5:30 pm (oct1)                                                                                                                                
PROFAMCHA000501142720142750000030Generic Series Promo - There's Always Something On                                                                                                             
PROFAMCHA000501142750142850000100Afternoon Block - Darkwing Duck next                                                                                                                           
ID FAMCHA000501142850142900000010Magic of Disney - Teen v/o male                                                                                                                                
PROFAMCHA000501142900142905000005CC Disclaimer (oct) **DO NOT USE**                                                                                                                             
PGRFAMCHA000501142905145147002242Darkwing Duck                                     Darkly Dawns The Duck (part 1)                                       6068607ECC                              
ID FAMCHA000501145147145157000010Generic ID - Family w/dog                                                                                                                                      
ID FAMCHA000501145157145208000011URL - MOTHER'S DAY (April 20 - May 14)                                                                                                                         
PROFAMCHA000501145208145308000100Afternoon Block - Generic                                                                                                                                      
PROFAMCHA000501145308145353000045Beetlejuice - Saturday @ 8pm                                                                                                                                   
PROFAMCHA000501145353145432000039Goof Troop - Next                                                                                                                                              
PROFAMCHA000501145432145502000030Bug Juice Promo - Saturday @ 10am                                                                                                                              
PGRFAMCHA000501145502145806000304Music Break - Bobby Mcferrin: Baby                                                                                     60688130                                
PROFAMCHA000501145806145841000035Lion King's Timon & Pumbaa - today @ 4:00pm (OCT 1                                                                                                             
PROFAMCHA000501145841145911000030Contest - Bug Juice Marathon - Saturday @ 10am                                                                                                                 
PROFAMCHA000501145911145941000030Toothless (MAY) - Sunday @ 10:30am                                                                                                                             
PRCFAMCHA000501145941145950000009Morning Block menu background (flex time)                                                                                                                      
ID FAMCHA000501145950150000000010Magic of Disney - Teen v/o male                                                                                                                                
PROFAMCHA000501150000150005000005CC Disclaimer (oct) **DO NOT USE**                                                                                                                             
PGRFAMCHA000501150005152250002245Goof Troop                                        Gymnauseum                                                           6068607ECC                              
ID FAMCHA000501152250152255000005Generic ID - Couch 1                                                                                                                                           
ID FAMCHA000501152255152303000008URL(2) - TRIVIA                                                                                                                                                
PROFAMCHA000501152303152333000030Goonies (MAY5) - Friday @ 8pm                                                                                                                                  
PROFAMCHA000501152333152403000030So Weird - Wednesday @ 6:30pm (MAR)                                                                                                                            
PROFAMCHA000501152403152435000032Sherlock Holmes - Tonight @ midnight (oct)                                                                                                                     
PGRFAMCHA000501152435152845000410MV Disney - Colours of the wind (oct 1)                                                                                60688130                                
PRCFAMCHA000501152845152920000035Misguided Angels - Tonight @ 6:45pm (MAR)                                                                                                                      
PROFAMCHA000501152920152950000030Toothless (MAY) - Sunday @ 10:30am                                                                                                                             
ID FAMCHA000501152950153000000010Magic of Disney - Teen v/o female                                                                                                                              
PROFAMCHA000501153000153005000005CC Disclaimer (oct) **DO NOT USE**                                                                                                                             
PGRFAMCHA000501153005155246002241Disney's Aladdin                                  Power To The Parrot                                                  6068607ECC                              
ID FAMCHA000501155246155256000010Generic ID - soccer **DO NOT USE**                                                                                                                             
ID FAMCHA000501155256155307000011URL - MOTHER'S DAY (April 20 - May 14)                                                                                                                         
PROFAMCHA000501155307155337000030Goonies (MAY5) - Friday @ 8pm                                                                                                                                  
PROFAMCHA000501155337155412000035Lion King's Timon & Pumbaa - next (OCT 1)                                                                                                                      
PGRFAMCHA000501155412155523000111Mix Ups - Cat in the bag                                                                                               60688130                                
PROFAMCHA000501155523155553000030Bug Juice Promo - Saturday @ 10am                                                                                                                              
PROFAMCHA000501155553155634000041Honey I Shrunk the Kids (series oct) tonight @ 6pm                                                                                                             
PROFAMCHA000501155634155704000030Contest - Bug Juice Marathon - Saturday @ 10am                                                                                                                 
PGRFAMCHA000501155704155838000134MV Disney - He's A Tramp (oct)                                                                                         60688130                                
PRCFAMCHA000501155838155911000033Hoze Houndz - Tuesday @ 6:30pm on Family (oct 1)                                                                                                               
PROFAMCHA000501155911155941000030Toothless (MAY) - Sunday @ 10:30am                                                                                                                             
PRCFAMCHA000501155941155950000009Morning Block menu background (flex time)                                                                                                                      
ID FAMCHA000501155950160000000010Magic of Disney - Teen v/o male                                                                                                                                
PGRFAMCHA000501160000162245002245Lion King's Timon & Pumbaa; The                   No Good Samaritan/Living in De Nile                                  6068607E                                
ID FAMCHA000501162245162255000010Generic ID - Pink inner tube                                                                                                                                   
PROFAMCHA000501162255162340000045Beetlejuice - Saturday @ 8pm                                                                                                                                   
PROFAMCHA000501162340162355000015Disney's One Too - Next (oct 1)                                                                                                                                
PROFAMCHA000501162355162425000030Bug Juice Promo - Saturday @ 10am                                                                                                                              
PROFAMCHA000501162425162455000030Contest - Bug Juice Marathon - Saturday @ 10am                                                                                                                 
PGRFAMCHA000501162455162828000333MV Disney - Reflection (oct 1)                                                                                         60688130                                
PROFAMCHA000501162828162853000025Adventures of Pete & Pete - Wednesday @ 6pm                                                                                                                    
PROFAMCHA000501162853162910000017Hercules - Next (Oct 1)*                                                                                                                                       
PROFAMCHA000501162910162940000030Toothless (MAY) - Sunday @ 10:30am                                                                                                                             
PRCFAMCHA000501162940162950000010Morning Block menu background (flex time)                                                                                                                      
ID FAMCHA000501162950163000000010Magic of Disney - Teen v/o female                                                                                                                              
PROFAMCHA000501163000163030000030Disney's One Too - Opening                                                                                                                                     
PGRFAMCHA000501163030165330002300Disney's Hercules                                 Hercules And The Aetolian Amphora                                    6068607ECC                              
ID FAMCHA000501165330165335000005Generic ID - Fingerpaint                                                                                                                                       
ID FAMCHA000501165335165346000011URL - MOTHER'S DAY (April 20 - May 14)                                                                                                                         
PROFAMCHA000501165346165416000030Goonies (MAY5) - Friday @ 8pm                                                                                                                                  
PROFAMCHA000501165416165431000015Doug - Next (oct1)                                                                                                                                             
PROFAMCHA000501165431165511000040Microsoap - Weekends @ 2:30pm (MAR)                                                                                                                            
PGRFAMCHA000501165511165532000021Doug Sketches - Adventures of Quailman                                                                                 60686130                                
PGRFAMCHA000501165532165723000151Disney Magic Shop(04)- Magic Arrow (D12 only)                                                                          60686130                                
PROFAMCHA000501165723165753000030Bug Juice Promo - Saturday @ 10am                                                                                                                              
PGRFAMCHA000501165753165814000021Doug Sketches - Big Book of Dating for Boys - Pare                                                                     60686130                                
PROFAMCHA000501165814165844000030Contest - Bug Juice Marathon - Saturday @ 10am                                                                                                                 
PGRFAMCHA000501165844165905000021Doug Sketches - Planet One - Catalogue                                                                                 60686130                                
PROFAMCHA000501165905165935000030Toothless (MAY) - Sunday @ 10:30am                                                                                                                             
PRCFAMCHA000501165935165945000010Morning Block menu background (flex time)                                                                                                                      
ID FAMCHA000501165945170000000015Afternoon block pinball open **DO NOT USE**                                                                                                                    
PROFAMCHA000501170000170030000030Disney's One Too - Opening                                                                                                                                     
PGRFAMCHA000501170030172257002227Disney's Doug                                     Quailman Takes the Blame                                             6068607E                                
ID FAMCHA000501172257172312000015Generic ID - confetti                                                                                                                                          
PROFAMCHA000501172312172357000045Beetlejuice - Saturday @ 8pm                                                                                                                                   
PROFAMCHA000501172357172418000021Recess - Next (oct1)                                                                                                                                           
PRCFAMCHA000501172418172448000030Are You Afraid of the Dark(MAR)- Tonight @ 7:30pm                                                                                                              
PGRFAMCHA000501172448172610000122Disney Dinner Time(06)- Thomas Edison (D12 only)                                                                       60686130                                
PROFAMCHA000501172610172627000017Mentors - Version 2 - Friday @ 6pm                                                                                                                             
PGRFAMCHA000501172627172648000021Recess Sketches - Bad Weather                                                                                          60686130                                
PGRFAMCHA000501172648172718000030Disney Magic Drawings(02)- Tigger (D12 only)                                                                           60686130                                
PGRFAMCHA000501172718172739000021Recess Sketches - Gretchen's Inventions - Quarters                                                                     60686130                                
PROFAMCHA000501172739172809000030Bug Juice Promo - Saturday @ 10am                                                                                                                              
PRCFAMCHA000501172809172844000035Misguided Angels - Tonight @ 6:45pm (MAR)                                                                                                                      
PGRFAMCHA000501172844172905000021Recess Sketches - Mickey's World Record - Mouth St                                                                     60686130                                
PROFAMCHA000501172905172935000030Toothless (MAY) - Sunday @ 10:30am                                                                                                                             
PRCFAMCHA000501172935172945000010Morning Block menu background (flex time)                                                                                                                      
ID FAMCHA000501172945173000000015Afternoon block pinball open **DO NOT USE**                                                                                                                    
PROFAMCHA000501173000173030000030Disney's One Too - Opening                                                                                                                                     
PGRFAMCHA000501173030175305002235Disney's Recess                                   Gus' Last Stand/Operation Field Trip                                 6068607E                                
ID FAMCHA000501175305175315000010Generic ID - Bubbles                                                                                                                                           
PROFAMCHA000501175315175400000045Beetlejuice - Saturday @ 8pm                                                                                                                                   
PROFAMCHA000501175400175441000041Honey I Shrunk the Kids (series oct) next                                                                                                                      
PRCFAMCHA000501175441175511000030Are You Afraid of the Dark(MAR)- Tonight @ 7:30pm                                                                                                              
PGRFAMCHA000501175511175722000211MV Disney - Right Back Where We Started From                                                                           60688130                                
PROFAMCHA000501175722175752000030Bug Juice Promo - Saturday @ 10am                                                                                                                              
PRCFAMCHA000501175752175827000035Misguided Angels - Tonight @ 6:45pm (MAR)                                                                                                                      
PROFAMCHA000501175827175857000030Contest - Bug Juice Marathon - Saturday @ 10am                                                                                                                 
PROFAMCHA000501175857175939000042Gargoyles - Tonight @ 11pm (MAR)                                                                                                                               
PRCFAMCHA000501175939175950000011Morning Block menu background (flex time)                                                                                                                      
ID FAMCHA000501175950180000000010Magic of Disney - Adult v/o female                                                                                                                             
PGRFAMCHA000501180000184312004312Disney's Honey, I Shrunk The Kids: The TV Show    She's Like A Fish Out Of Water                                       6068807B                                
ID FAMCHA000501184312184322000010Generic ID - confetti                                                                                                                                          
PROFAMCHA000501184322184352000030Toothless (MAY) - Sunday @ 10:30am                                                                                                                             
PRCFAMCHA000501184352184427000035Misguided Angels - Next (MAR)                                                                                                                                  
PROFAMCHA000501184427184439000012Mentors - Version 3 - Friday @ 6pm                                                                                                                             
ID FAMCHA000501184439184500000021Prime time open count down                                                                                                                                     
PROFAMCHA000501184500184505000005CC Disclaimer (oct) **DO NOT USE**                                                                                                                             
PGRFAMCHA000501184505190718002213Misguided Angels                                  The New Beginning                                             A29552 1065807BCC                              
ID FAMCHA000501190718190723000005Generic ID - Couch 1                                                                                                                                           
PROFAMCHA000501190723190728000005CC Disclaimer (oct) **DO NOT USE**                                                                                                                             
PGRFAMCHA000501190728192944002216Blossom                                           Meat                                                                 6068807ACC                              
ID FAMCHA000501192944192951000007Generic ID - Whisper                                                                                                                                           
ID FAMCHA000501192951193001000010Prime time open top of hour                                                                                                                                    
PGRFAMCHA000501193001195436002435Are You Afraid Of The Dark?                       The Tale of the Unexpected Visitor                            SR0306 1066807A                                
ID FAMCHA000501195436195446000010Generic ID - confetti                                                                                                                                          
ID FAMCHA000501195446195458000012URL(FAM2) - EATING                                                                                                                                             
PROFAMCHA000501195458195543000045Beetlejuice - Saturday @ 8pm                                                                                                                                   
PROFAMCHA000501195543195607000024So Weird - Wednesday @ 6:30pm (MAR)                                                                                                                            
PRCFAMCHA000501195607195629000022Mentors - Version 1 - Friday @ 6pm                                                                                                                             
PROFAMCHA000501195629195659000030Bug Juice Promo - Saturday @ 10am                                                                                                                              
PROFAMCHA000501195659195741000042Gargoyles - Tonight @ 11pm (MAR)                                                                                                                               
PROFAMCHA000501195741195811000030Contest - Bug Juice Marathon - Saturday @ 10am                                                                                                                 
PROFAMCHA000501195811195828000017Hercules - Weekdays @ 4:30 pm (oct 1)                                                                                                                          
PROFAMCHA000501195828195900000032Sherlock Holmes - Tonight @ midnight (oct)                                                                                                                     
PROFAMCHA000501195900195930000030Goonies (MAY5) - Friday @ 8pm                                                                                                                                  
PRCFAMCHA000501195930195939000009Morning Block menu background (flex time)                                                                                                                      
ID FAMCHA000501195939200000000021Move open family size movie                                                                                                                                    
PROFAMCHA000501200000200007000007Rating - G (oct )                                                                                                                                              
PROFAMCHA000501200007200012000005CC Disclaimer (oct) **DO NOT USE**                                                                                                                             
PGRFAMCHA000501200012213653013641Joey                                                                                                                  A2068807CCC                              
ID FAMCHA000501213653213703000010Generic ID - Family w/dog                                                                                                                                      
PROFAMCHA000501213703213733000030Goonies (MAY5) - Friday @ 8pm                                                                                                                                  
PROFAMCHA000501213733213803000030Bug Juice Promo - Saturday @ 10am                                                                                                                              
PROFAMCHA000501213803213824000021Recess - Weekdays @ 5:30 pm (oct1)                                                                                                                             
PROFAMCHA000501213824213854000030Contest - Bug Juice Marathon - Saturday @ 10am                                                                                                                 
PROFAMCHA000501213854213939000045Beetlejuice - Saturday @ 8pm                                                                                                                                   
ID FAMCHA000501213939214000000021Move open family size movie                                                                                                                                    
PROFAMCHA000501214000214007000007Rating - G (oct )                                                                                                                                              
ID FAMCHA000501214007214017000010Magic of Disney - Adult v/o male                                                                                                                               
PGRFAMCHA000501214017230209012152Smart House                                                                                                           A6068807C                                
ID FAMCHA000501230209230214000005Generic ID - Couch 1                                                                                                                                           
PGRFAMCHA000501230214232505002251Gargoyles                                         Cloud Fathers                                                        6068607E                                
ID FAMCHA000501232505232515000010Generic ID - Family w/dog                                                                                                                                      
ID FAMCHA000501232515232526000011URL - MOTHER'S DAY (April 20 - May 14)                                                                                                                         
PROFAMCHA000501232526232556000030Goonies (MAY5) - Friday @ 8pm                                                                                                                                  
PRCFAMCHA000501232556232626000030Are You Afraid of the Dark(JAN)- Next                                                                                                                          
PGRFAMCHA000501232626232807000141Bill Nye - Whatta Brain                                                                                                60688130                                
PROFAMCHA000501232807232837000030Bug Juice Promo - Saturday @ 10am                                                                                                                              
PROFAMCHA000501232837232909000032Sherlock Holmes - Tonight @ midnight (oct)                                                                                                                     
PROFAMCHA000501232909232939000030Toothless (MAY) - Sunday @ 10:30am                                                                                                                             
ID FAMCHA000501232939233000000021Prime time open count down                                                                                                                                     
PGRFAMCHA000501233000235434002434Are You Afraid Of The Dark?                       The Tale of the Chamelons                                     SR0306 1066807A                                
ID FAMCHA000501235434235444000010Generic ID - Hula Hoop                                                                                                                                         
PROFAMCHA000501235444235529000045Beetlejuice - Saturday @ 8pm                                                                                                                                   
PROFAMCHA000501235529235601000032Sherlock Holmes - Next (oct)                                                                                                                                   
PROFAMCHA000501235601235631000030Adventures of Pete & Pete - Wednesday @ 6pm                                                                                                                    
PGRFAMCHA000501235631235827000156Music Break - Walking: Parachute Express                                                                               60688130                                
PROFAMCHA000501235827235909000042Gargoyles - Tuesday & Wednesday @ 7pm (MAR)                                                                                                                    
PROFAMCHA000501235909235939000030Goonies (MAY5) - Friday @ 8pm                                                                                                                                  
ID FAMCHA000501235939000000000021Prime time open count down                                                                                                                                     
PROFAMCHA000501000000000005000005CC Disclaimer (oct) **DO NOT USE**                                                                                                                             
PGRFAMCHA000501000005002222002217Sherlock Holmes In The 22nd Century               1-020                                                                6068607ECC                              
ID FAMCHA000501002222002237000015Generic ID - confetti                                                                                                                                          
PROFAMCHA000501002237002307000030Toothless (MAY) - Sunday @ 10:30am                                                                                                                             
PROFAMCHA000501002307002337000030Adventures of Pete & Pete - Wednesday @ 6pm                                                                                                                    
PROFAMCHA000501002337002354000017Hercules - Weekdays @ 4:30 pm (oct 1)                                                                                                                          
PGRFAMCHA000501002354002756000402MV Disney - A Whole New World (oct)                                                                                    60688130                                
PROFAMCHA000501002756002813000017Mentors - Version 2 - Friday @ 6pm                                                                                                                             
PROFAMCHA000501002813002854000041Honey I Shrunk the Kids (series oct) Mon & Thurs @                                                                                                             
PROFAMCHA000501002854002939000045Beetlejuice - Saturday @ 8pm                                                                                                                                   
ID FAMCHA000501002939003000000021Prime time open count down                                                                                                                                     
PGRFAMCHA000501003000005335002335Clarissa                                          A Little Romance                                                     2068607B                                
ID FAMCHA000501005335005345000010Generic ID - soccer **DO NOT USE**                                                                                                                             
PROFAMCHA000501005345005415000030Goonies (MAY5) - Friday @ 8pm                                                                                                                                  
PROFAMCHA000501005415005439000024So Weird - Wednesday @ 6:30pm (MAR)                                                                                                                            
PROFAMCHA000501005439005509000030Generic Series Promo - Where the Fun Is                                                                                                                        
PROFAMCHA000501005509005521000012Mentors - Version 3 - Friday @ 6pm                                                                                                                             
PGRFAMCHA00050100552100562100010060 Seconds of Science - Engines (anywhere but D12)                                                                     60688130                                
PROFAMCHA000501005621005651000030Toothless (MAY) - Sunday @ 10:30am                                                                                                                             
PGRFAMCHA000501005651010200000509Plasmo #1                                                                                                              70688130                                
SO FAMCHA000501010200010212000012Sign Off (oct 1)                                                                                                                                               
OFFFAMCHA000501010212043000032748                                                                                                                                                               
OFFFAMCHA000502043000060000013000                                                                                                                                                               
SO FAMCHA000502060000060011000011Sign On (oct 1)                                                                                                                                                
PROFAMCHA000502060011060016000005CC Disclaimer (oct) **DO NOT USE**                                                                                                                             
PGRFAMCHA000502060016062416002400Hello Mrs. Cherrywinkle                           No Place Like Home                                            B18878A1065607ACC                              
ID FAMCHA000502062416062426000010Generic ID - Bubbles                                                                                                                                           
ID FAMCHA000502062426062434000008URL(1) - NEWSLETTER                                                                                                                                            
PROFAMCHA000502062434062539000105Adventures of Gummi Bears - Today @ 7am (MAR)                                                                                                                  
PGRFAMCHA000502062539062910000331MV Disney - Baby Mine (Alison Krauss)                                                                                  60688130                                
PRCFAMCHA000502062910062940000030Franklin - Weekdays @ 7:30am (MAR)                                                                                                                             
ID FAMCHA000502062940063000000020Morning block open play pen                                                                                                                                    
PROFAMCHA000502063000063005000005CC Disclaimer (oct) **DO NOT USE**                                                                                                                             
PGRFAMCHA000502063005065409002404Busy World Of Richard Scarry; The                 The Talking Bread/Couscous/The Three Fishermen                B10180 1065607ECC                              
ID FAMCHA000502065409065414000005Generic ID - Bubbles                                                                                                                                           
PROFAMCHA000502065414065519000105Adventures of Gummi Bears - Next (MAR)                                                                                                                         
PRCFAMCHA000502065519065549000030Franklin - Weekdays @ 7:30am (MAR)                                                                                                                             
PGRFAMCHA000502065549065840000251Art Attack - Hairy Spider (HALLOWEEN)                                                                                  60686130                                
PROFAMCHA000502065840065940000100Morning Block-(TT)- Generic                                                                                                                                    
PRCFAMCHA000502065940065950000010Morning Block menu background (flex time)                                                                                                                      
ID FAMCHA000502065950070000000010Magic of Disney - Kid v/o female                                                                                                                               
PROFAMCHA000502070000070005000005CC Disclaimer (oct) **DO NOT USE**                                                                                                                             
PGRFAMCHA000502070005072237002232Adventures of the Gummi Bears; The                Thornberry To The Rescue                                             6068607ECC                              
ID FAMCHA000502072237072252000015Generic ID - confetti                                                                                                                                          
PRCFAMCHA000502072252072322000030Franklin - Next (MAR)                                                                                                                                          
PGRFAMCHA000502072322072352000030Disney Magic Drawings(06)- Tinkerbell (D12 only)                                                                       60686130                                
PROFAMCHA000502072352072431000039Goof Troop - Today @ 3pm                                                                                                                                       
PGRFAMCHA000502072431072853000422MV Disney - True to your heart (oct 1)                                                                                 60688130                                
PROFAMCHA000502072853072928000035Lion King's Timon & Pumbaa - wkdays @ noon (OCT 1)                                                                                                             
PRCFAMCHA000502072928072940000012Morning Block menu background (flex time)                                                                                                                      
ID FAMCHA000502072940073000000020Morning block open play pen                                                                                                                                    
PROFAMCHA000502073000073005000005CC Disclaimer (oct) **DO NOT USE**                                                                                                                             
PGRFAMCHA000502073005075258002253Franklin                                          Franklin and the Grump/Franklin's Promise                     P02772A1065607ECC                              
ID FAMCHA000502075258075303000005Generic ID - Bubbles                                                                                                                                           
ID FAMCHA000502075303075314000011URL - MOTHER'S DAY (April 20 - May 14)                                                                                                                         
PROFAMCHA000502075314075353000039Goof Troop - Today @ 3pm                                                                                                                                       
PGRFAMCHA000502075353075843000450MV Disney - Circle of Life (oct 1)                                                                                     60688130                                
PROFAMCHA000502075843075905000022Disney's One Too - Today @ 4:30 (Oct 1)                                                                                                                        
PROFAMCHA000502075905075940000035Lion King's Timon & Pumbaa - wkdays @ noon (OCT 1)                                                                                                             
ID FAMCHA000502075940080000000020Morning block open play pen                                                                                                                                    
PGRFAMCHA000502080000081947001947Art Attack                                        1-110                                                                60686110                                
ID FAMCHA000502081947081952000005Generic ID - Couch 1                                                                                                                                           
ID FAMCHA000502081952082003000011URL - MOTHER'S DAY (April 20 - May 14)                                                                                                                         
PROFAMCHA000502082003082025000022Hercules - Today @ 4:30 pm (oct 1)                                                                                                                             
PROFAMCHA000502082025082100000035Lion King's Timon & Pumbaa - wkdays @ noon (OCT 1)                                                                                                             
PRCFAMCHA000502082100082133000033Hoze Houndz - Tonight @ 6:30pm on Family (oct 1)                                                                                                               
PGRFAMCHA000502082133082803000630Richard Scarry - Hans, The Dutch Plumber                                                                        P17877 10656130                                
PRCFAMCHA000502082803082838000035Little Lulu Show; The - Tonight @ 6:00pm (oct1)                                                                                                                
PROFAMCHA000502082838082900000022Disney's One Too - Today @ 4:30 (Oct 1)                                                                                                                        
PRCFAMCHA000502082900083000000100Morning Block-(TT)- Out of the Box next/Babar/Kati                                                                                                             
PROFAMCHA000502083000083005000005CC Disclaimer (oct) **DO NOT USE**                                                                                                                             
PGRFAMCHA000502083005085308002303Out of the Box                                    Make'em Laugh                                                        60686110CC                              
ID FAMCHA000502085308085315000007Generic ID - Whisper                                                                                                                                           
PROFAMCHA000502085315085400000045PB&J Otter - Mon, Wed & Fri @ 8:30am (oct 1)                                                                                                                   
PROFAMCHA000502085400085500000100Morning Block-(TT)- Babar next/Katie/Billy                                                                                                                     
PROFAMCHA000502085500085505000005CC Disclaimer (oct) **DO NOT USE**                                                                                                                             
PGRFAMCHA000502085505091819002314Babar                                             Witch's Potion                                                C07575 1065607ECC                              
ID FAMCHA000502091819091829000010Generic ID - Family w/dog                                                                                                                                      
PROFAMCHA000502091829091859000030Toothless (MAY) - Sunday @ 10:30am                                                                                                                             
PROFAMCHA000502091859091959000100Morning Block-(TT)- Katie next/Billy/Busy                                                                                                                      
PROFAMCHA000502091959092004000005CC Disclaimer (oct) **DO NOT USE**                                                                                                                             
PGRFAMCHA000502092004094639002635Katie And Orbie                                   The New Baby/Leaky Taps/Orbits                                C12449 1065607ECC                              
ID FAMCHA000502094639094649000010Generic ID - confetti                                                                                                                                          
ID FAMCHA000502094649094700000011URL - MOTHER'S DAY (April 20 - May 14)                                                                                                                         
PROFAMCHA000502094700094800000100Morning Block-(TT)- Billy next/Busy/Art Attack                                                                                                                 
PROFAMCHA000502094800094805000005CC Disclaimer (oct) **DO NOT USE**                                                                                                                             
PGRFAMCHA000502094805101229002424Billy The Cat                                     Monkey Business                                               B27656A1065607ECC                              
ID FAMCHA000502101229101239000010Generic ID - Hula Hoop                                                                                                                                         
PROFAMCHA000502101239101301000022Hercules - Today @ 4:30 pm (oct 1)                                                                                                                             
PROFAMCHA000502101301101401000100Morning Block-(TT)- Busy next/Art Attack/PB&J                                                                                                                  
PROFAMCHA000502101401101406000005CC Disclaimer (oct) **DO NOT USE**                                                                                                                             
PGRFAMCHA000502101406103810002404Busy World Of Richard Scarry; The                 The Best Birthday Present Ever/Patrick Pig Learns             B10181 1065607ECC                              
ID FAMCHA000502103810103815000005Generic ID - Marbles                                                                                                                                           
PROFAMCHA000502103815103900000045PB&J Otter - Mon, Wed & Fri @ 8:30am (oct 1)                                                                                                                   
PROFAMCHA000502103900104000000100Morning Block-(TT)- Art Attack next/PB&J/Space Cas                                                                                                             
PGRFAMCHA000502104000105941001941Art Attack                                        1-082                                                                60686110                                
ID FAMCHA000502105941105951000010Generic ID - Pink inner tube                                                                                                                                   
PROFAMCHA000502105951110030000039Goof Troop - Today @ 3pm                                                                                                                                       
PROFAMCHA000502110030110100000030Generic Series Promo - Where the Fun Is                                                                                                                        
PROFAMCHA000502110100110200000100Morning Block-(TT)- PB&J next/Space Cases                                                                                                                      
PROFAMCHA000502110200110205000005CC Disclaimer (oct) **DO NOT USE**                                                                                                                             
PGRFAMCHA000502110205112426002221PB&J Otter                                        Nothin' But The Tooth/Special Delivery                              A6068607ECC                              
ID FAMCHA000502112426112436000010Generic ID - Ring around the rosie                                                                                                                             
PRCFAMCHA000502112436112509000033Hoze Houndz - Tonight @ 6:30pm on Family (oct 1)                                                                                                               
PROFAMCHA000502112509112601000052Great African Wildlife Rescue - Sunday at 2pm on F                                                                                                             
PROFAMCHA000502112601112701000100Morning Block-(TT)- Space Cases next                                                                                                                           
PROFAMCHA000502112701112706000005CC Disclaimer (oct) **DO NOT USE**                                                                                                                             
PGRFAMCHA000502112706115126002420Space Cases                                       Homeward Bound                                                B22692 1165607BCC                              
ID FAMCHA000502115126115131000005Generic ID - Bubbles                                                                                                                                           
PROFAMCHA000502115131115231000100Morning Block-(TT)- Generic                                                                                                                                    
PROFAMCHA000502115231115301000030Goonies (MAY5) - Friday @ 8pm                                                                                                                                  
PRCFAMCHA000502115301115336000035Little Lulu Show; The - Tonight @ 6:00pm (oct1)                                                                                                                
PGRFAMCHA000502115336115735000359MV Disney - Beauty and the beast (oct 1)                                                                               60688130                                
PROFAMCHA000502115735115750000015Disney's One Too - today @ 4:30 (Oct 1)                                                                                                                        
PROFAMCHA000502115750115820000030Adventures of Pete & Pete - Wednesday @ 6pm                                                                                                                    
PROFAMCHA000502115820115850000030Toothless (MAY) - Sunday @ 10:30am                                                                                                                             
PROFAMCHA000502115850115950000100Afternoon Block - Lion King next/Flash Forward/Cla                                                                                                             
ID FAMCHA000502115950120000000010Magic of Disney - Teen v/o female                                                                                                                              
PGRFAMCHA000502120000122245002245Lion King's Timon & Pumbaa; The                   One Tough Bug/Pirates of Penzance                                    6068607E                                
ID FAMCHA000502122245122300000015Generic ID - confetti                                                                                                                                          
PROFAMCHA000502122300122330000030Toothless (MAY) - Sunday @ 10:30am                                                                                                                             
PROFAMCHA000502122330122400000030Goonies (MAY5) - Friday @ 8pm                                                                                                                                  
PROFAMCHA000502122400122500000100Afternoon Block - Flash Forward next/Clarissa/Litt                                                                                                             
PROFAMCHA000502122500122505000005CC Disclaimer (oct) **DO NOT USE**                                                                                                                             
PGRFAMCHA000502122505124839002334Flash Forward                                     Crime And Punishment                                          A04592 1065607ACC                              
ID FAMCHA000502124839124846000007Generic ID - Whisper                                                                                                                                           
PROFAMCHA000502124846124901000015Disney's One Too - today @ 4:30 (Oct 1)                                                                                                                        
PROFAMCHA000502124901125001000100Afternoon Block - Clarissa next/Little Lulu/Frankl                                                                                                             
PGRFAMCHA000502125001131404002403Clarissa                                          The Zone                                                             2068607B                                
ID FAMCHA000502131404131419000015Generic ID - confetti                                                                                                                                          
ID FAMCHA000502131419131430000011URL(FAM2) - TALKER                                                                                                                                             
PROFAMCHA000502131430131500000030Goonies (MAY5) - Friday @ 8pm                                                                                                                                  
PROFAMCHA000502131500131600000100Afternoon Block - Little Lulu next/Franklin/Art At                                                                                                             
PROFAMCHA000502131600131605000005CC Disclaimer (oct) **DO NOT USE**                                                                                                                             
PGRFAMCHA000502131605133937002332Little Lulu Show; The                             Polly Patrol/Money Problems                                   A20192A1055607ECC3                             
ID FAMCHA000502133937133942000005Generic ID - Bubbles                                                                                                                                           
PROFAMCHA000502133942134012000030Bug Juice Promo - Saturday @ 10am                                                                                                                              
PRCFAMCHA000502134012134100000048Ripley's BION - Saturday @ 11am (MAR)                                                                                                                          
PROFAMCHA000502134100134200000100Afternoon Block - Franklin next/Art Attack/Darkwin                                                                                                             
PROFAMCHA000502134200134205000005CC Disclaimer (oct) **DO NOT USE**                                                                                                                             
PGRFAMCHA000502134205140458002253Franklin                                          Franklin Takes A Trip/Franklin's Bicycle Helmet               B13646 1065607ECC                              
ID FAMCHA000502140458140513000015Generic ID - confetti                                                                                                                                          
PROFAMCHA000502140513140543000030Goonies (MAY5) - Friday @ 8pm                                                                                                                                  
PROFAMCHA000502140543140600000017Hercules - Today @ 4:30 pm (Oct 1)                                                                                                                             
PROFAMCHA000502140600140700000100Afternoon Block - Art Attack next/Darkwing Duck                                                                                                                
PGRFAMCHA000502140700142644001944Art Attack                                        1-083                                                                60686110                                
ID FAMCHA000502142644142654000010Generic ID - confetti                                                                                                                                          
ID FAMCHA000502142654142703000009URL(FAM1) - ALLOWANCE                                                                                                                                          
PROFAMCHA000502142703142733000030Bug Juice Promo - Saturday @ 10am                                                                                                                              
PROFAMCHA000502142733142750000017Mentors - Version 2 - Friday @ 6pm                                                                                                                             
PROFAMCHA000502142750142850000100Afternoon Block - Darkwing Duck next                                                                                                                           
ID FAMCHA000502142850142900000010Magic of Disney - Teen v/o male                                                                                                                                
PROFAMCHA000502142900142905000005CC Disclaimer (oct) **DO NOT USE**                                                                                                                             
PGRFAMCHA000502142905145149002244Darkwing Duck                                     Darkly Dawns The Duck (part 2)                                       6068607ECC                              
ID FAMCHA000502145149145154000005Generic ID - Couch 1                                                                                                                                           
PROFAMCHA000502145154145254000100Afternoon Block - Generic                                                                                                                                      
PROFAMCHA000502145254145324000030Goonies (MAY5) - Friday @ 8pm                                                                                                                                  
PROFAMCHA000502145324145403000039Goof Troop - Next                                                                                                                                              
PROFAMCHA000502145403145433000030Crash Zone - Saturday & Sunday @ 6:30am (MAR)                                                                                                                  
PGRFAMCHA000502145433145748000315Art Attack - Sailing Ship                                                                                              60686130                                
PROFAMCHA000502145748145818000030Contest - Bug Juice Marathon - Saturday @ 10am                                                                                                                 
PROFAMCHA000502145818145910000052Great African Wildlife Rescue - Sunday at 2pm on F                                                                                                             
PROFAMCHA000502145910145940000030Toothless (MAY) - Sunday @ 10:30am                                                                                                                             
PRCFAMCHA000502145940145950000010Morning Block menu background (flex time)                                                                                                                      
ID FAMCHA000502145950150000000010Magic of Disney - Teen v/o female                                                                                                                              
PROFAMCHA000502150000150005000005CC Disclaimer (oct) **DO NOT USE**                                                                                                                             
PGRFAMCHA000502150005152255002250Goof Troop                                        Come Fly With Me (goof Troop)                                        6068607ECC                              
ID FAMCHA000502152255152300000005Generic ID - Couch 2                                                                                                                                           
ID FAMCHA000502152300152311000011URL - MOTHER'S DAY (April 20 - May 14)                                                                                                                         
PROFAMCHA000502152311152341000030Bug Juice Promo - Saturday @ 10am                                                                                                                              
PROFAMCHA000502152341152433000052Great African Wildlife Rescue - Sunday at 2pm on F                                                                                                             
PGRFAMCHA000502152433152824000351Art Attack - Puppy Dog                                                                                                 60686130                                
PROFAMCHA000502152824152905000041Honey I Shrunk the Kids (series oct) Mon & Thurs @                                                                                                             
PROFAMCHA000502152905152950000045Beetlejuice - Saturday @ 8pm                                                                                                                                   
ID FAMCHA000502152950153000000010Magic of Disney - Teen v/o male                                                                                                                                
PROFAMCHA000502153000153005000005CC Disclaimer (oct) **DO NOT USE**                                                                                                                             
PGRFAMCHA000502153005155242002237Disney's Aladdin                                  Smells Like Trouble                                                  6068607ECC                              
ID FAMCHA000502155242155252000010Generic ID - Family w/dog                                                                                                                                      
ID FAMCHA000502155252155300000008URL(2) - TRIVIA                                                                                                                                                
PROFAMCHA000502155300155330000030Goonies (MAY5) - Friday @ 8pm                                                                                                                                  
PROFAMCHA000502155330155405000035Lion King's Timon & Pumbaa - next (OCT 1)                                                                                                                      
PROFAMCHA000502155405155446000041Honey I Shrunk the Kids (series oct) Mon & Thurs @                                                                                                             
PGRFAMCHA000502155446155817000331MV Disney - Baby Mine (Alison Krauss)                                                                                  60688130                                
PROFAMCHA000502155817155847000030Contest - Bug Juice Marathon - Saturday @ 10am                                                                                                                 
PRCFAMCHA000502155847155920000033Hoze Houndz - Tonight @ 6:30pm on Family (oct 1)                                                                                                               
PROFAMCHA000502155920155950000030Toothless (MAY) - Sunday @ 10:30am                                                                                                                             
ID FAMCHA000502155950160000000010Magic of Disney - Teen v/o female                                                                                                                              
PGRFAMCHA000502160000162245002245Lion King's Timon & Pumbaa; The                   Mis perfect/Hakuna Matata U                                          6068607E                                
ID FAMCHA000502162245162250000005Generic ID - Fingerpaint                                                                                                                                       
ID FAMCHA000502162250162257000007URL(1) - FUNSTUFF                                                                                                                                              
PROFAMCHA000502162257162327000030Bug Juice Promo - Saturday @ 10am                                                                                                                              
PROFAMCHA000502162327162349000022Disney's One Too - Next (Oct 1)                                                                                                                                
PRCFAMCHA000502162349162422000033Hoze Houndz - Tonight @ 6:30pm on Family (oct 1)                                                                                                               
PGRFAMCHA000502162422162803000341MV Disney - Hakuna Matata (oct)                                                                                        60688130                                
PROFAMCHA000502162803162843000040Microsoap - Weekends @ 2:30pm (MAR)                                                                                                                            
PROFAMCHA000502162843162905000022Hercules - Next (oct 1)*                                                                                                                                       
PROFAMCHA000502162905162950000045Beetlejuice - Saturday @ 8pm                                                                                                                                   
ID FAMCHA000502162950163000000010Magic of Disney - Teen v/o male                                                                                                                                
PROFAMCHA000502163000163030000030Disney's One Too - Opening                                                                                                                                     
PGRFAMCHA000502163030165331002301Disney's Hercules                                 Hercules And The Son Of Poseidon                                     6068607ECC                              
ID FAMCHA000502165331165341000010Generic ID - Hula Hoop                                                                                                                                         
PROFAMCHA000502165341165411000030Goonies (MAY5) - Friday @ 8pm                                                                                                                                  
PROFAMCHA000502165411165426000015Doug - Next (oct1)                                                                                                                                             
PROFAMCHA000502165426165521000055Generic Series Promo - Celebrate the Day w/Family                                                                                                              
PGRFAMCHA000502165521165542000021Doug Sketches - Adventures of Quailman                                                                                 60686130                                
PGRFAMCHA000502165542165704000122Disney Dinner Time(01)- John Gutzon Borglum (D12 o                                                                     60686130                                
PGRFAMCHA000502165704165725000021Doug Sketches - Planet One - Girls                                                                                     60286130                                
PGRFAMCHA000502165725165755000030Disney Magic Drawings(03)- Donald (D12 only)                                                                           60686130                                
PGRFAMCHA000502165755165816000021Doug Sketches - Skunky's Word of the Day                                                                               60686130                                
PROFAMCHA000502165816165835000019So Weird - Wednesday @ 6:30pm (MAR)                                                                                                                            
PROFAMCHA000502165835165905000030Contest - Bug Juice Marathon - Saturday @ 10am                                                                                                                 
PROFAMCHA000502165905165935000030Toothless (MAY) - Sunday @ 10:30am                                                                                                                             
PRCFAMCHA000502165935165945000010Morning Block menu background (flex time)                                                                                                                      
ID FAMCHA000502165945170000000015Afternoon block pinball open **DO NOT USE**                                                                                                                    
PROFAMCHA000502170000170030000030Disney's One Too - Opening                                                                                                                                     
PGRFAMCHA000502170030172259002229Disney's Doug                                     Doug and the Bluffington Five                                        6068607E                                
