SO FAMCHA090401043000043011000011Sign On (oct 1)                                                                                                                                                
PRCFAMCHA090401043011043020000009CC Disclaimer - FAST - Family.ca (:09-:10)                                                                                  150                                
PGRFAMCHA090401043020045655002635Katie And Orbie                                   EP: 2-024                                                     C11896A1065607ECC                              
PRCFAMCHA090401045655045701000006Astral ID - Family Jr. Version (MAR 2009)                                                                                   150                                
PRCFAMCHA090401045701045712000011FJR - 02 - FRANNY'S FEET / BENJAMIN BEAR (SEPT08)                                                                           150                                
PRCFAMCHA090401045712045723000011Family Jr. Bumper - Music (:11- :14) (JUL08)                                                                                150                                
PRCFAMCHA090401045723045732000009CC Disclaimer - FAST - Generic (:09-:10)                                                                                    150                                
PGRFAMCHA090401045732052002002230Franny's Feet                                     EPS # 37                                                      C23971 1065607ECC                              
PRCFAMCHA090401052002052015000013FJR - 03 - BENJAMIN BEAR / HOZE HOUNDZ (SEPT08)                                                                             150                                
PRCFAMCHA090401052015052030000015Family Jr. Bumper - Portal (:14- :17) (JUL08)                                                                               150                                
PRCFAMCHA090401052030052039000009CC Disclaimer - FAST - Family.ca (:09-:10)                                                                                  150                                
PGRFAMCHA090401052039054309002230Secret World of Benjamin Bear, The                EP: 29                                                        C27272 1065607ECC                              
PRCFAMCHA090401054309054315000006Astral ID - Family Jr. Version (MAR 2009)                                                                                   150                                
PRCFAMCHA090401054315054326000011FJR - 04 - HOZE HOUNDZ / HENRY'S WORLD (SEPT08)                                                                             150                                
PRCFAMCHA090401054326054337000011Family Jr. Bumper - Acrobat (:10- :13) (JUL08)                                                                              150                                
PRCFAMCHA090401054337054346000009CC Disclaimer - FAST - Generic (:09-:10)                                                                                    150                                
PGRFAMCHA090401054346060624002238Hoze Houndz                                       EP: 5-065                                                     B63401A1065607ECC                              
PRCFAMCHA090401060624060637000013FJR - 05 - HENRY'S WORLD / KING (SEPT08)                                                                                    150                                
PRCFAMCHA090401060637060649000012Family Jr. Bumper - Collide (:11- :14) (JUL08)                                                                              150                                
PRCFAMCHA090401060649060658000009CC Disclaimer - FAST - Family.ca (:09-:10)                                                                                  150                                
PGRFAMCHA090401060658063058002400Henry's World                                     EP: 2-016                                                     B81047A1065607GCC                              
PRCFAMCHA090401063058063104000006Astral ID - Family Jr. Version (MAR 2009)                                                                                   150                                
PRCFAMCHA090401063104063115000011FJR - 06 - KING (SEPT08)                                                                                                    150                                
PRCFAMCHA090401063115063127000012Family Jr. Bumper - Music (:11- :14) (JUL08)                                                                                150                                
PRCFAMCHA090401063127063136000009CC Disclaimer - FAST - Generic (:09-:10)                                                                                    150                                
PGRFAMCHA090401063136065406002230King                                              EPS # 029                                                     C25350 1065607ECC                              
PRCFAMCHA090401065406065418000012MMM - 01 - RECESS/PHINEAS (:11 - :13) (OCT08)                                                                               150                                
PRCFAMCHA090401065418065435000017Family First Generic Throw - Promo SHORT VERSION -                                                                          150                                
PROFAMCHA090401065435065515000040Jonas Brothers 3D Soundtrack Blast - Available Now                                                                          150                                
PROFAMCHA090401065515065540000025Recess - CAREER DAY (MMM) - (JULY06) - Coming Up N                                                                          150                                
PROFAMCHA090401065540065559000019MadMadMornings Block Open                                                                                                   150                                
PRCFAMCHA090401065559065608000009CC Disclaimer - FAST - Generic (:09-:10)                                                                                    150                                
PGRFAMCHA090401065608071843002235Disney's Recess                                   EP: 1-044                                                            6068607ECC                              
PRCFAMCHA090401071843071849000006Astral ID (FEB 2009)                                                                                                        150                                
PRCFAMCHA090401071849071902000013MMM - 02 - PHINEAS/WEEKENDERS (:11 - :13) (OCT08)                                                                           150                                
PROFAMCHA090401071902071937000035Camp Rock Around The World Stunt - April 10 & Apri                                                                          150                                
PROFAMCHA090401071937072017000040Hannah Montana Keeping It Real DVD Blast - Availab                                                                          150                                
PROFAMCHA090401072017072050000033Weekenders - TINO (MMM) This Morning @ 7:50am (NOV                                                                          150                                
PGRFAMCHA090401072050072218000128Leo Little's Big Show - Pinocchio (Till April 5th)                                                                    A60288120                                
PROFAMCHA090401072218072236000018Phineas & Ferb (MMM) Candace Tease - Coming Up Nex                                                                          150                                
PROFAMCHA090401072236072316000040Jonas Brothers World Tour Concert Blast (March 31                                                                           150                                
PRCFAMCHA090401072316072351000035Family Games Spot - Generic - 3/4 Day (not in PH)                                                                           150                                
PROFAMCHA090401072351072410000019MadMadMornings Block Open                                                                                                   150                                
PRCFAMCHA090401072410072419000009CC Disclaimer - FAST - Family.ca (:09-:10)                                                                                  150                                
PGRFAMCHA090401072419074710002251Disney Phineas & Ferb                             EP: 08                                                               6068607ECC                              
PRCFAMCHA090401074710074722000012MMM - 03 - WEEKENDERS/KIM POSSIBLE (:11 - :13) (OC                                                                          150                                
PRCFAMCHA090401074722074802000040Really Big Birthdays - June - 3-4 X Day (April 1 -                                                                          150                                
PROFAMCHA090401074802074842000040Bedtime Stories DVD Blast - Available April 7 (Mar                                                                          150                                
PROFAMCHA090401074842074909000027Weekenders - CARVER (MMM) Coming Up Next (NOV08)                                                                            150                                
PROFAMCHA0904010749090750090001004 Artists Family Favourites CD Blast (Wal-Mart) (M                                                                          150                                
PRCFAMCHA090401075009075054000045Hannah Montana Private Screening Contest - Version                                                                          150                                
PROFAMCHA090401075054075113000019MadMadMornings Block Open                                                                                                   150                                
PRCFAMCHA090401075113075122000009CC Disclaimer - FAST - Family.ca (:09-:10)                                                                                  150                                
PGRFAMCHA090401075122081403002241Disney's The Weekenders                           EP: 1-034                                                           A6068607ECC                              
PRCFAMCHA090401081403081409000006Astral ID (FEB 2009)                                                                                                        150                                
PRCFAMCHA090401081409081422000013MMM - 04 - KIM POSSIBLE (:11 - :13) (OCT08)                                                                                 150                                
PROFAMCHA090401081422081502000040Jonas Brothers 3D Soundtrack Blast - Available Now                                                                          150                                
PRCFAMCHA090401081502081718000216April Fools Munro Prank - No Titles (Airs Only on                                                                           150                                
PROFAMCHA090401081718081758000040Family Favourites CD - Family Jams 2 (Wal-Mart Ver                                                                          150                                
PROFAMCHA090401081758081817000019MadMadMornings Block Open                                                                                                   150                                
PRCFAMCHA090401081817081827000010CC Disclaimer - FAST - Generic (:09-:10)                                                                                    150                                
PGRFAMCHA090401081827084121002254Disney's Kim Possible                             EP: 03                                                               6068607ECC                              
PRCFAMCHA090401084121084134000013FJR - 07 - IMAGINATION MOVERS/FRANNY'S FEET (JAN09                                                                          150                                
PROFAMCHA090401084134084225000051PH-D Promo - Little E Animal Adventure Week - Star                                                                          150                                
PRCFAMCHA090401084225084300000035Franny's Feet (FJR) GENERIC - This Morning @ 9:10                                                                           150                                
PROFAMCHA090401084300084345000045Collect & Get Contest (Hasbro) (March 16 - April 1                                                                          150                                
PROFAMCHA090401084345084415000030Imagination Movers (FJR) Coming Up Next (JAN09)                                                                             150                                
PROFAMCHA090401084415084445000030PH-D Promo - Ooh & Aah.Ca Throw 08 - PH-D.CA                                                                                150                                
ID FAMCHA090401084445084459000014Family Jr. Block Open (:14-:17) (JUL08)                                                                                     150                                
PRCFAMCHA090401084459084508000009CC Disclaimer - FAST - Family.ca (:09-:10)                                                                                  150                                
PGRFAMCHA090401084508090908002400Disney Imagination Movers                         EP: 11                                                               6068607ACC                              
PRCFAMCHA090401090908090914000006Astral ID - Family Jr. Version (MAR 2009)                                                                                   150                                
PRCFAMCHA090401090914090923000009FJR - 08 - FRANNY'S FEET/TIGGER & POOH (:09 - :12)                                                                          150                                
PRCFAMCHA090401090923090948000025PH-D Promo - Ohh & Ahh PH-D Throw 2009 - Call Your                                                                          150                                
PRCFAMCHA090401090948091023000035Franny's Feet (FJR) GENERIC - Coming Up Next (JUL0                                                                          150                                
PROFAMCHA090401091023091038000015PH-D Promo - Earth Day Marathon - PH-D.CA/Earthday                                                                          150                                
PRCFAMCHA090401091038091053000015Family Jr. Bumper - Portal (:14- :17) (JUL08)                                                                               150                                
PRCFAMCHA090401091053091102000009CC Disclaimer - FAST - Generic (:09-:10)                                                                                    150                                
PGRFAMCHA090401091102093332002230Franny's Feet                                     EPS # 1-009                                                   C23970A1065607ECC                              
PRCFAMCHA090401093332093342000010FJR - 09 - TIGGER & POOH/MICKEY MOUSE CLUBHOUSE (:                                                                          150                                
PROFAMCHA090401093342093433000051PH-D Promo - Earth Day Marathon - April 18 @ 6am                                                                            150                                
PROFAMCHA090401093433093449000016Mickey Mouse Clubhouse (FJR) GENERIC - This Mornin                                                                          150                                
PROFAMCHA090401093449093549000100Tigger and Pooh (FJR) SUPER SLEUTH - Coming Up Nex                                                                          150                                
PROFAMCHA090401093549093640000051PH-D Promo - Little E Animal Adventure Week - Star                                                                          150                                
PRCFAMCHA090401093640093650000010Family Jr. Bumper - Acrobat (:10- :13) (JUL08)                                                                              150                                
PRCFAMCHA090401093650093659000009CC Disclaimer - FAST - Family.ca (:09-:10)                                                                                  150                                
PGRFAMCHA090401093659100059002400Disney My Friends Tigger and Pooh                 EP: 13                                                               6068607ECC                              
PRCFAMCHA090401100059100105000006Astral ID - Family Jr. Version (MAR 2009)                                                                                   150                                
PRCFAMCHA090401100105100115000010FJR - 10 - MICKEY MOUSE CLUBHOUSE/HANDY MANNY (:10                                                                          150                                
PRCFAMCHA090401100115100140000025PH-D Promo - Ohh & Ahh PH-D Throw 2009 - Call Your                                                                          150                                
PROFAMCHA090401100140100210000030Handy Manny (FJR) HOP UP/JUMP IN - This Morning @                                                                           150                                
PROFAMCHA090401100210100255000045Barbie Presents Thumbelina DVD Contest - Available                                                                          150                                
PROFAMCHA090401100255100326000031Mickey Mouse Clubhouse (FJR) GENERIC - Coming Up N                                                                          150                                
PROFAMCHA090401100326100341000015PH-D Promo - Earth Day Marathon - PH-D.CA/Earthday                                                                          150                                
PRCFAMCHA090401100341100353000012Family Jr. Bumper - Collide (:11- :14) (JUL08)                                                                              150                                
ID FAMCHA090401100353100401000008Magic of Disney - PLAYHOUSE - Shape (:06-:09)                                                                               150                                
PRCFAMCHA090401100401100410000009CC Disclaimer - FAST - Generic (:09-:10)                                                                                    150                                
PGRFAMCHA090401100410102810002400Disney's Mickey Mouse Clubhouse                   EP: 15                                                               6068607ECC                              
PRCFAMCHA090401102810102821000011FJR - 11 - HANDY MANNY/BENJAMIN BEAR (:10 - :13) (                                                                          150                                
PROFAMCHA090401102821102836000015PH-D Promo - Earth Day Marathon - PH-D.CA/Earthday                                                                          150                                
PROFAMCHA090401102836102921000045Collect & Get Contest (Hasbro) (March 16 - April 1                                                                          150                                
PROFAMCHA090401102921102936000015Handy Manny (FJR) TIME - Coming Up Next (JUL08)                                                                             150                                
PRCFAMCHA090401102936102948000012Family Jr. Bumper - Music (:11- :14) (JUL08)                                                                                150                                
ID FAMCHA090401102948102956000008Magic of Disney - PLAYHOUSE - Wipe (:06-:09)                                                                                150                                
PRCFAMCHA090401102956103005000009CC Disclaimer - FAST - Family.ca (:09-:10)                                                                                  150                                
PGRFAMCHA090401103005105410002405Handy Manny                                       EP: 02                                                               6068607ECC                              
PRCFAMCHA090401105410105416000006Astral ID - Family Jr. Version (MAR 2009)                                                                                   150                                
PRCFAMCHA090401105416105428000012FJR - 12 - BENJAMIN BEAR/KING (:10 - :13) (JULY08)                                                                          150                                
PROFAMCHA090401105428105519000051PH-D Promo - Little E Animal Adventure Week - Star                                                                          150                                
PROFAMCHA090401105519105554000035Barbie Pass - Dream Shanghai Lifesytle Contest (Ma                                                                          150                                
PRCFAMCHA090401105554105624000030Benjamin Bear (FJR) GENERIC - Coming Up Next (JUL0                                                                          150                                
PROFAMCHA090401105624105633000009PH-D Promo - Ooh & Aah Web Throw - PH-D.CA                                                                                  150                                
PRCFAMCHA090401105633105650000017Family Jr. Bumper - Portal (:14- :17) (JUL08)                                                                               150                                
PRCFAMCHA090401105650105659000009CC Disclaimer - FAST - Generic (:09-:10)                                                                                    150                                
PGRFAMCHA090401105659111929002230Secret World of Benjamin Bear, The                EP: 32                                                        C27272 1065607ECC                              
PRCFAMCHA090401111929111939000010FJR - 13 - KING/RECESS (:09 - :12) (JULY08)                                                                                 150                                
PROFAMCHA090401111939112030000051PH-D Promo - Earth Day Marathon - April 18 @ 6am                                                                            150                                
PROFAMCHA090401112030112045000015Handy Manny (FJR) HOP UP/JUMP IN SHORT - NEW EPS F                                                                          150                                
PGRFAMCHA090401112045112316000231Cars Toons # 1 (Rescue Squad Mater)                                                                                   A60688120                                
PRCFAMCHA090401112316112346000030King (FJR) GENERIC - Coming Up Next (JUL08)                                                                                 150                                
PROFAMCHA090401112346112437000051PH-D Promo - Little E Animal Adventure Week - Star                                                                          150                                
PRCFAMCHA090401112437112450000013Family Jr. Bumper - Acrobat (:10- :13) (JUL08)                                                                              150                                
PRCFAMCHA090401112450112459000009CC Disclaimer - FAST - Family.ca (:09-:10)                                                                                  150                                
PGRFAMCHA090401112459114729002230King                                              EP: 4-049                                                     C25350 1065607ECC                              
PRCFAMCHA090401114729114735000006Astral ID (FEB 2009)                                                                                                        150                                
PRCFAMCHA090401114735114747000012MD - 01 - RECESS/KIM (:11 - :13) (JULY08)                                                                                   150                                
PRCFAMCHA090401114747114804000017Family First Generic Throw - Promo SHORT VERSION -                                                                          150                                
PROFAMCHA090401114804114838000034Recess - HEROES (MD) - (APR06) - Coming Up Next                                                                             150                                
PROFAMCHA090401114838114855000017Mad Dash Block Open (:16-:18) APR06                                                                                         150                                
PRCFAMCHA090401114855114904000009CC Disclaimer - FAST - Generic (:09-:10)                                                                                    150                                
PGRFAMCHA090401114904121139002235Disney's Recess                                   EP: 1-034                                                            6068607ECC                              
PRCFAMCHA090401121139121150000011MD - 02 - KIM/WEEKENDERS (:11 - :13) (JULY08)                                                                               150                                
PRCFAMCHA090401121150121235000045Hannah Montana Private Screening Contest - Version                                                                          150                                
PROFAMCHA090401121235121305000030Weekenders - TISH (MD) This Afternoon @ 12:40pm (N                                                                          150                                
PROFAMCHA090401121305121320000015Kim Possible BOYFRIEND (MD) Coming Up Next (JULY08                                                                          150                                
PRCFAMCHA090401121320121358000038Family Web Player Version 2 Promo - No Tag 3/day (                                                                          150                                
PRCFAMCHA090401121358121407000009MD Bumper - Race Cars (:08-:10) JUNE06                                                                                      150                                
PRCFAMCHA090401121407121416000009CC Disclaimer - FAST - Family.ca (:09-:10)                                                                                  150                                
PGRFAMCHA090401121416123709002253Disney's Kim Possible                             EPS # 1-035                                                         A6068607ECC                              
PRCFAMCHA090401123709123715000006Astral ID (FEB 2009)                                                                                                        150                                
PRCFAMCHA090401123715123728000013MD - 03 - WEEKENDERS/AMERICAN DRAGON (:11 - :13) (                                                                          150                                
PRCFAMCHA090401123728123808000040Really Big Birthdays - June - 3-4 X Day (April 1 -                                                                          150                                
PROFAMCHA090401123808123835000027Weekenders - CARVER (MD) Coming Up Next (NOV08)                                                                             150                                
PRCFAMCHA090401123835123850000015MD Bumper - Shopping Race (:15-:17) APR06                                                                                   150                                
PRCFAMCHA090401123850123859000009CC Disclaimer - FAST - Generic (:09-:10)                                                                                    150                                
PGRFAMCHA090401123859130152002253Disney's The Weekenders                           EP: 1-007                                                           A6068607ECC                              
PRCFAMCHA090401130152130204000012MD - 04 - AMERICAN DRAGON/EMPERORS'S (:11 - :13) (                                                                          150                                
PROFAMCHA090401130204130239000035Camp Rock Around The World Stunt - April 10 & Apri                                                                          150                                
PROFAMCHA090401130239130257000018American Dragon Jake Long (MD) TRIXIE - Coming Up                                                                           150                                
PROFAMCHA090401130257130353000056Roxy Hunter: Mystery of The Moddy Ghost - Sunday A                                                                          150                                
PRCFAMCHA090401130353130400000007MD Bumper - Ski Race (:07-:09) APR06                                                                                        150                                
PGRFAMCHA090401130400132639002239Disney's American Dragon: Jake Long               EPS # 09                                                             6068607E                                
PRCFAMCHA090401132639132645000006Astral ID (FEB 2009)                                                                                                        150                                
PRCFAMCHA090401132645132657000012MD - 05 - EMPEROR'S/FILLMORE (:11 - :13) (JULY08)                                                                           150                                
PRCFAMCHA090401132657132732000035Family Games Spot - Generic - 3/4 Day (not in PH)                                                                           150                                
PROFAMCHA090401132732132754000022Fillmore (MD) POLLY - This Afternoon @ 1:55 (JULY0                                                                          150                                
PROFAMCHA090401132754132818000024Emperor's New School (MD) ZIT - Coming Up Next (JU                                                                          150                                
PRCFAMCHA090401132818132856000038FOD - Family On Demand - Generic - Check you local                                                                          150                                
PRCFAMCHA090401132856132904000008MD Bumper - Race Cars (:08-:10) JUNE06                                                                                      150                                
PRCFAMCHA090401132904132913000009CC Disclaimer - FAST - Generic (:09-:10)                                                                                    150                                
PGRFAMCHA090401132913135143002230Disney's The Emperor's New School                 EP: 21                                                               6068807ECC                              
PRCFAMCHA090401135143135155000012MD - 06 - FILLMORE/WEEKENDERS (:11 - :13) (JULY08)                                                                          150                                
PRCFAMCHA090401135155135240000045Hannah Montana Private Screening Contest - Version                                                                          150                                
PROFAMCHA090401135240135311000031Weekenders - LOR (MD) This Afternoon @ 2:20pm (JAN                                                                          150                                
PROFAMCHA090401135311135333000022Fillmore (MD) POLLY - Coming Up Next (JULY08)                                                                               150                                
PRCFAMCHA090401135333135350000017Family First Generic Throw - Promo SHORT VERSION -                                                                          150                                
PRCFAMCHA090401135350135405000015MD Bumper - Shopping Race (:15-:17) APR06                                                                                   150                                
PRCFAMCHA090401135405135414000009CC Disclaimer - FAST - Family.ca (:09-:10)                                                                                  150                                
PGRFAMCHA090401135414141652002238Disney's Fillmore!                                EPS # 1-005                                                          6068607ECC                              
PRCFAMCHA090401141652141658000006Astral ID (FEB 2009)                                                                                                        150                                
PRCFAMCHA090401141658141709000011MD - 07 - WEEKENDERS/KIM (:11 - :13) (JULY08)                                                                               150                                
PROFAMCHA090401141709141756000047Kim Possible MISSION (MD) This Afternoon @ 2:45pm                                                                           150                                
PROFAMCHA090401141756141825000029Replacements (MD) LIBRARIAN - This Afternoon @ 3:1                                                                          150                                
PROFAMCHA090401141825141858000033Weekenders - TINO (MD) Coming Up Next (NOV08)                                                                               150                                
PRCFAMCHA090401141858141905000007MD Bumper - Ski Race (:07-:09) APR06                                                                                        150                                
PRCFAMCHA090401141905141914000009CC Disclaimer - FAST - Family.ca (:09-:10)                                                                                  150                                
PGRFAMCHA090401141914144151002237Disney's The Weekenders                           EP: 1-026                                                           A6068607ECC                              
PRCFAMCHA090401144151144202000011MD - 08 - KIM/REPLACEMENTS (:11 - :13) (JULY08)                                                                             150                                
PROFAMCHA090401144202144233000031Replacements - GENERIC (MD) This Afternoon @ 3:10p                                                                          150                                
PROFAMCHA090401144233144308000035Barbie Pass - Dream Shanghai Lifesytle Contest (Ma                                                                          150                                
PROFAMCHA090401144308144320000012Kim Possible BAD GUYS (MD) Coming Up Next (OCT08)                                                                           150                                
PROFAMCHA090401144320144355000035Camp Rock Around The World Stunt - April 10 & Apri                                                                          150                                
PRCFAMCHA090401144355144404000009MD Bumper - Race Cars (:08-:10) JUNE06                                                                                      150                                
PRCFAMCHA090401144404144413000009CC Disclaimer - FAST - Generic (:09-:10)                                                                                    150                                
PGRFAMCHA090401144413150707002254Disney's Kim Possible                             EPS # 1-044                                                         A6068607ECC                              
PRCFAMCHA090401150707150713000006Astral ID (FEB 2009)                                                                                                        150                                
PRCFAMCHA090401150713150725000012MD - 09 - REPLACEMENTS/EMPEROR (:11 - :13) (JULY08                                                                          150                                
PRCFAMCHA090401150725150803000038FOD - Family On Demand - Generic - Check you local                                                                          150                                
PROFAMCHA090401150803150821000018Emperor's New School (MD) BUTT - New Eps - Tomorro                                                                          150                                
PROFAMCHA090401150821150901000040Hannah Montana Keeping It Real DVD Blast - Availab                                                                          150                                
PROFAMCHA090401150901150934000033Recess - COOTIE SHOTS (MD) - This Afternoon @ 4:10                                                                          150                                
PROFAMCHA090401150934151014000040Jonas Brothers 3D Soundtrack Blast - Available Now                                                                          150                                
PROFAMCHA090401151014151043000029Replacements (MD) LIBRARIAN - Coming Up Next (JULY                                                                          150                                
PROFAMCHA090401151043151123000040Dragonball Evolution Blast - In Theatres April 10                                                                           150                                
PRCFAMCHA090401151123151140000017Family First Generic Throw - Promo SHORT VERSION -                                                                          150                                
PRCFAMCHA090401151140151155000015MD Bumper - Shopping Race (:15-:17) APR06                                                                                   150                                
PRCFAMCHA090401151155151204000009CC Disclaimer - FAST - Family.ca (:09-:10)                                                                                  150                                
PGRFAMCHA090401151204153443002239The Replacements                                  EP: 18                                                               2068607ECC                              
PRCFAMCHA090401153443153456000013MD - 10 - EMPEROR 3:40/RECESS 4:10 (:11 - :13) (JA                                                                          150                                
PRCFAMCHA090401153456153541000045Hannah Montana Private Screening Contest - Version                                                                          150                                
PROFAMCHA090401153541153614000033Recess - COOTIE SHOTS (MD) - This Afternoon @ 4:10                                                                          150                                
PROFAMCHA090401153614153654000040Hannah Montana The Movie - In Theatres April 10 (M                                                                          150                                
PROFAMCHA090401153654153726000032Suite Life of Z & C (MD) IMPRESS - This Afternoon                                                                           150                                
PROFAMCHA090401153726153806000040Hannah Montana The Movie - CD Sdtrk- Available Now                                                                          150                                
PROFAMCHA090401153806153830000024Emperor's New School (MD) ZIT - Coming Up Next (JU                                                                          150                                
PROFAMCHA090401153830153910000040Dragonball Evolution Blast - In Theatres April 10                                                                           150                                
PROFAMCHA090401153910154006000056Roxy Hunter: Mystery of The Moddy Ghost - Sunday A                                                                          150                                
PRCFAMCHA090401154006154013000007MD Bumper - Ski Race (:07-:09) APR06                                                                                        150                                
PRCFAMCHA090401154013154022000009CC Disclaimer - FAST - Generic (:09-:10)                                                                                    150                                
PGRFAMCHA090401154022160252002230Disney's The Emperor's New School                 EP: 24                                                               6068807ECC                              
PRCFAMCHA090401160252160258000006Astral ID (FEB 2009)                                                                                                        150                                
PRCFAMCHA090401160258160311000013MD - 11 - RECESS 4:10/PHINEAS 4:35 (:11 - :13) (JA                                                                          150                                
PRCFAMCHA090401160311160328000017Family First Generic Throw - Promo SHORT VERSION -                                                                          150                                
PROFAMCHA090401160328160413000045Collect & Get Contest (Hasbro) (March 16 - April 1                                                                          150                                
PRCFAMCHA090401160413160419000006Family Bumpers - (Phase 2 F/W 04) - Gymnastics (MD                                                                          150                                
PRCFAMCHA090401160419160635000216April Fools Munro Prank - No Titles (Airs Only on                                                                           150                                
PROFAMCHA090401160635160700000025Recess - CAREER DAY (MD) - (JULY06) - Coming Up Ne                                                                          150                                
PROFAMCHA090401160700160745000045Tale of Desperaux DVD Contest - Available April 7                                                                           150                                
PRCFAMCHA090401160745160820000035Family Games Spot - Generic - 3/4 Day (not in PH)                                                                           150                                
PRCFAMCHA090401160820160830000010MD Bumper - Race Cars (:08-:10) JUNE06                                                                                      150                                
PRCFAMCHA090401160830160840000010CC Disclaimer - FAST - Family.ca (:09-:10)                                                                                  150                                
PGRFAMCHA090401160840163115002235Disney's Recess                                   EP: 1-050                                                            6068607ECC                              
PRCFAMCHA090401163115163128000013MD - 12 - PHINEAS 4:35/ SUITE LIFE OF Z & C 5:05 (                                                                          150                                
PRCFAMCHA090401163128163208000040Really Big Birthdays - June - 3-4 X Day (April 1 -                                                                          150                                
PROFAMCHA090401163208163305000057Suite Life of Z & C (MD) FAB LIFESTYLES - This Aft                                                                          150                                
PROFAMCHA090401163305163345000040Bedtime Stories DVD Blast - Available April 7 (Mar                                                                          150                                
PROFAMCHA090401163345163414000029Hannah Montana - SUPER AWESOME (NS) This Afternoon                                                                          150                                
PROFAMCHA090401163414163432000018Phineas & Ferb (MD) Ferb Tease - Coming Up Next (J                                                                          150                                
PROFAMCHA090401163432163512000040Family Favourites CD - Family Jams 2 (Wal-Mart Ver                                                                          150                                
PROFAMCHA090401163512163552000040Dragonball Evolution Blast - In Theatres April 10                                                                           150                                
PRCFAMCHA090401163552163607000015MD Bumper - Shopping Race (:15-:17) APR06                                                                                   150                                
PRCFAMCHA090401163607163616000009CC Disclaimer - FAST - Generic (:09-:10)                                                                                    150                                
PGRFAMCHA090401163616165846002230Disney Phineas & Ferb                             EP: 20                                                               6068607ECC                              
PRCFAMCHA090401165846165852000006Astral ID (FEB 2009)                                                                                                        150                                
PRCFAMCHA090401165852165905000013MD - 13 - SUITE LIFE/HANNAH (:11 - :13) (JULY08)                                                                            150                                
PRCFAMCHA090401165905170121000216April Fools Munro Prank - No Titles (Airs Only on                                                                           150                                
PROFAMCHA090401170121170201000040Hannah Montana Keeping It Real DVD Blast - Availab                                                                          150                                
PRCFAMCHA090401170201170207000006Family Bumpers - Reptile Pet - Lion (MD/NS/NSW)                                                                             150                                
PROFAMCHA0904011702071703070001004 Artists Family Favourites CD Blast (Wal-Mart) (M                                                                          150                                
PROFAMCHA090401170307170339000032Suite Life of Z & C (MD) Wonderful Hotel - Coming                                                                           150                                
PROFAMCHA090401170339170419000040Dragonball Evolution Blast - In Theatres April 10                                                                           150                                
PRCFAMCHA090401170419170426000007MD Bumper - Ski Race (:07-:09) APR06                                                                                        150                                
ID FAMCHA090401170426170434000008Magic of Disney - MAD DASH - Shape (:06-:09)                                                                                150                                
PRCFAMCHA090401170434170443000009CC Disclaimer - FAST - Family.ca (:09-:10)                                                                                  150                                
PGRFAMCHA090401170443170701000218Suite Life of Zack & Cody, The                    EP: 16                                                               6068607BCC                              
PGRFAMCHA090401170701171516000815Suite Life of Zack & Cody, The                    EP: 16                                                               6068607BCC                              
PGRFAMCHA090401171516172549001033Suite Life of Zack & Cody, The                    EP: 16                                                               6068607BCC                              
PGRFAMCHA090401172549172720000131Suite Life of Zack & Cody, The                    EP: 16                                                               6068607BCC                              
PRCFAMCHA090401172720172733000013MD - 14 - HANNAH/ZOEY (:11 - :13) (JULY08)                                                                                  150                                
PRCFAMCHA090401172733172949000216April Fools Munro Prank - No Titles (Airs Only on                                                                           150                                
PROFAMCHA090401172949173029000040Marley & Me DVD Blast - Available Now (March 31 -                                                                           150                                
PRCFAMCHA090401173029173035000006Family Bumpers - (Phase 3 Spring 05) - Bubble Gum                                                                           150                                
PROFAMCHA090401173035173120000045Tale of Desperaux DVD Contest - Available April 7                                                                           150                                
PROFAMCHA090401173120173149000029Hannah Montana - SUPER AWESOME (MD) Coming Up Next                                                                          150                                
PROFAMCHA090401173149173229000040Jonas Brothers World Tour Concert Blast (March 31                                                                           150                                
PRCFAMCHA090401173229173246000017Family First Generic Throw - Promo SHORT VERSION -                                                                          150                                
PRCFAMCHA090401173246173255000009MD Bumper - Race Cars (:08-:10) JUNE06                                                                                      150                                
PRCFAMCHA090401173255173305000010CC Disclaimer - FAST - Generic (:09-:10)                                                                                    150                                
PGRFAMCHA090401173305173833000528Hannah Montana                                    EP: 16                                                               6068807BCC                              
PGRFAMCHA090401173833174332000459Hannah Montana                                    EP: 16                                                               6068807BCC                              
PGRFAMCHA090401174332174811000439Hannah Montana                                    EP: 16                                                               6068807BCC                              
PGRFAMCHA090401174811175541000730Hannah Montana                                    EP: 16                                                               6068807BCC                              
PRCFAMCHA090401175541175547000006Astral ID (FEB 2009)                                                                                                        150                                
PRCFAMCHA090401175547175559000012NS - 01 - ZOEY 101/DEREK (:11 - :13) (MARCH08)                                                                              150                                
PROFAMCHA090401175559175634000035Camp Rock Around The World Stunt - April 10 & Apri                                                                          150                                
PROFAMCHA090401175634175714000040Hannah Montana The Movie - In Theatres April 10 (M                                                                          150                                
PRCFAMCHA090401175714175741000027Life W D (NS) CLIP - Tonight @ 6:30pm (JULY08)                                                                              150                                
PROFAMCHA090401175741175826000045Barbie Presents Thumbelina DVD Contest - Available                                                                          150                                
PROFAMCHA090401175826175843000017Zoey 101 (NS)  ZOEY, ZOEY, ZOEY - Coming Up Next (                                                                          150                                
PROFAMCHA090401175843175923000040Jonas Brothers World Tour Concert Blast (March 31                                                                           150                                
PRCFAMCHA090401175923180001000038FOD - Family On Demand - Generic - Check you local                                                                          150                                
PROFAMCHA090401180001180017000016Nonstop Block Open (:16-:18) APR06                                                                                          150                                
PRCFAMCHA090401180017180026000009CC Disclaimer - FAST - Family.ca (:09-:10)                                                                                  150                                
PGRFAMCHA090401180026182258002232Zoey 101                                          EPS # 08                                                             2068807BCC                              
PRCFAMCHA090401182258182311000013NS - 02 - DEREK/WIZARDS (:11 - :13) (OCT08)                                                                                 150                                
PRCFAMCHA090401182311182351000040Really Big Birthdays - June - 3-4 X Day (April 1 -                                                                          150                                
PROFAMCHA090401182351182431000040Bedtime Stories DVD Blast - Available April 7 (Mar                                                                          150                                
PROFAMCHA090401182431182501000030Wizards of Waverrly Place ALEX (NS) - Tonight @7.0                                                                          150                                
PGRFAMCHA090401182501182701000200MS - Hannah Montana Movie #1 - In Theatres April 1                                                                    A60688120                                
PROFAMCHA090401182701182742000041Hannah Montana - EVERYWHERE (NS) Tonight @ 7:30pm                                                                           150                                
PROFAMCHA090401182742182822000040Hannah Montana The Movie - CD Sdtrk- Available Now                                                                          150                                
PRCFAMCHA090401182822182900000038Life W D (NS) Edwin Mystery Man - Coming Up Next (                                                                          150                                
PROFAMCHA090401182900182940000040Dragonball Evolution Blast - In Theatres April 10                                                                           150                                
PRCFAMCHA090401182940183025000045Hannah Montana Private Screening Contest - Version                                                                          150                                
PRCFAMCHA090401183025183033000008NS Bumper - Dodgeball (:07-:09) APR06                                                                                       150                                
PRCFAMCHA090401183033183042000009CC Disclaimer - FAST - Generic (:09-:10)                                                                                    150                                
PGRFAMCHA090401183042185312002230Life with Derek                                   EP: 21                                                        C26679A1065607BCC                              
PRCFAMCHA090401185312185318000006Astral ID (FEB 2009)                                                                                                        150                                
PRCFAMCHA090401185318185331000013NS - 03 - WIZARDS/HANNAH (:11 - :13) (FEB09)                                                                                150                                
PRCFAMCHA090401185331185416000045Hannah Montana Private Screening Contest - Version                                                                          150                                
PROFAMCHA090401185416185456000040Dragonball Evolution Blast - In Theatres April 10                                                                           150                                
PROFAMCHA090401185456185559000103Hannah Montana (NS) Mockumentry - Tonight @ 7:30pm                                                                          150                                
PRCFAMCHA090401185559185815000216April Fools Munro Prank - No Titles (Airs Only on                                                                           150                                
PROFAMCHA090401185815185845000030Wizards of Waverrly Place JUSTIN (NS) - Coming Up                                                                           150                                
PROFAMCHA090401185845185925000040Marley & Me DVD Blast - Available Now (March 31 -                                                                           150                                
PRCFAMCHA090401185925190000000035Family Games Spot - Generic - 3/4 Day (not in PH)                                                                           150                                
PRCFAMCHA090401190000190014000014NS Bumper - Fashion (:12-:14) JUNE06                                                                                        150                                
PRCFAMCHA090401190014190024000010CC Disclaimer - FAST - Family.ca (:09-:10)                                                                                  150                                
PGRFAMCHA090401190024192255002231Disney Wizards of Waverly Place                   EP: 03                                                               6068607BCC                              
PRCFAMCHA090401192255192308000013NS - 04 - HANNAH/SUITE LIFE (:11 - :13) (FEB09)                                                                             150                                
PRCFAMCHA090401192308192346000038FOD - Family On Demand - Generic - Check you local                                                                          150                                
PROFAMCHA090401192346192417000031Suite Life of Z & C (NS) TONY HAWK - Tonight @ 8pm                                                                          150                                
PROFAMCHA090401192417192457000040Hannah Montana The Movie - In Theatres April 10 (M                                                                          150                                
PRCFAMCHA090401192457192713000216April Fools Munro Prank - No Titles (Airs Only on                                                                           150                                
PROFAMCHA090401192713192813000100Sonny With A Chance OVERALL PROMO - Friday Nights                                                                           150                                
PROFAMCHA090401192813192842000029Hannah Montana - SUPER AWESOME (NS) Coming Up Next                                                                          150                                
PROFAMCHA09040119284219292200004017 Again Blast - In Theatres April 17 (April 1 - 1                                                                          150                                
PROFAMCHA090401192922192957000035Camp Rock Around The World Stunt - April 10 & Apri                                                                          150                                
PRCFAMCHA090401192957193014000017NS Bumper - Tennis (:15-:17) APR06                                                                                          150                                
PRCFAMCHA090401193014193024000010CC Disclaimer - FAST - Family.ca (:09-:10)                                                                                  150                                
PGRFAMCHA090401193024193551000527Hannah Montana                                    EP: 16                                                               6068807BCC                              
PGRFAMCHA090401193551194051000500Hannah Montana                                    EP: 16                                                               6068807BCC                              
PGRFAMCHA090401194051194529000438Hannah Montana                                    EP: 16                                                               6068807BCC                              
PGRFAMCHA090401194529195259000730Hannah Montana                                    EP: 16                                                               6068807BCC                              
PRCFAMCHA090401195259195305000006Astral ID (FEB 2009)                                                                                                        150                                
PRCFAMCHA090401195305195316000011NS - 05 - SUITE LIFE 8:00/LATEST BUZZ 8:30 (:11 -                                                                           150                                
PRCFAMCHA090401195316195333000017Family First Generic Throw - Promo SHORT VERSION -                                                                          150                                
PRCFAMCHA090401195333195417000044Latest Buzz - ALL WEEK (NS) Tonight @ 8:30pm (JAN0                                                                          150                                
PROFAMCHA090401195417195452000035Barbie Pass - Dream Shanghai Lifesytle Contest (Ma                                                                          150                                
PROFAMCHA090401195452195522000030Wizards of Waverrly Place SIBLING (NS) - Tonight @                                                                          150                                
PGRFAMCHA090401195522195722000200MS - Hannah Montana Movie #1 - In Theatres April 1                                                                    A60688120                                
PROFAMCHA090401195722195819000057Suite Life of Z & C FABULOUS LIFESTYLES (NS) Comin                                                                          150                                
PROFAMCHA090401195819195904000045Tale of Desperaux DVD Contest - Available April 7                                                                           150                                
PROFAMCHA090401195904200000000056Roxy Hunter: Mystery of The Moddy Ghost - Sunday A                                                                          150                                
PRCFAMCHA090401200000200007000007NS Bumper - Dodgeball (:07-:09) APR06                                                                                       150                                
ID FAMCHA090401200007200015000008Magic of Disney - NS/NSW/PB - Shape (:06-:09)                                                                               150                                
PRCFAMCHA090401200015200024000009CC Disclaimer - FAST - Family.ca (:09-:10)                                                                                  150                                
PGRFAMCHA090401200024202305002241Suite Life of Zack & Cody, The                    EP: 09                                                               6068607BCC                              
PRCFAMCHA090401202305202318000013NS - 06 - LATEST BUZZ 8:30/WIZARDS 9:00 (:11 - :13                                                                          150                                
PRCFAMCHA090401202318202358000040Really Big Birthdays - June - 3-4 X Day (April 1 -                                                                          150                                
PROFAMCHA090401202358202438000040Dragonball Evolution Blast - In Theatres April 10                                                                           150                                
PROFAMCHA090401202438202508000030Wizards of Waverrly Place ALEX (NS) - Tonight @7.0                                                                          150                                
PRCFAMCHA090401202508202724000216April Fools Munro Prank - No Titles (Airs Only on                                                                           150                                
PRCFAMCHA090401202724202839000115Movie Entertainment (8)                                                                                                     150                                
PRCFAMCHA090401202839202850000011Family Bumpers - (Phase 2 F/W 04) - Science (MD-AM                                                                          150                                
PROFAMCHA090401202850202930000040Bedtime Stories DVD Blast - Available April 7 (Mar                                                                          150                                
PRCFAMCHA090401202930203002000032Latest Buzz - HEADLINES (NS) Coming Up Next (SEPT0                                                                          150                                
PRCFAMCHA090401203002203016000014NS Bumper - Fashion (:12-:14) JUNE06                                                                                        150                                
PRCFAMCHA090401203016203026000010CC Disclaimer - FAST - Generic (:09-:10)                                                                                    150                                
PGRFAMCHA090401203026205302002236Latest Buzz, The                                  EP: 01                                                        C29140 1055607BCC3                             
PRCFAMCHA090401205302205308000006Astral ID (FEB 2009)                                                                                                        150                                
PRCFAMCHA090401205308205321000013NS - 07 - WIZARDS 9:00/LIFE WITH DEREK 9:30 (:11 -                                                                          150                                
PRCFAMCHA090401205321205413000052Life With Derek (NS) Casey & Derek - Tonight @ 9:3                                                                          150                                
PROFAMCHA090401205413205453000040Hannah Montana Keeping It Real DVD Blast - Availab                                                                          150                                
PROFAMCHA090401205453205536000043Ned's DSSG (NS) Too Cool for School  - Tonight @ 1                                                                          150                                
PRCFAMCHA090401205536205542000006Family Bumpers - Reptile Pet - Elephant (MD/NS/NSW                                                                          150                                
PRCFAMCHA090401205542205758000216April Fools Munro Prank - No Titles (Airs Only on                                                                           150                                
PROFAMCHA090401205758205828000030Wizards of Waverrly Place JUSTIN (NS) - Coming Up                                                                           150                                
PROFAMCHA0904012058282059280001004 Artists Family Favourites CD Blast (Wal-Mart) (M                                                                          150                                
PROFAMCHA090401205928210003000035Camp Rock Around The World Stunt - April 10 & Apri                                                                          150                                
PRCFAMCHA090401210003210020000017NS Bumper - Tennis (:15-:17) APR06                                                                                          150                                
PRCFAMCHA090401210020210029000009CC Disclaimer - SLOW - Family.ca (:09-:10)                                                                                  150                                
PGRFAMCHA090401210029212300002231Disney Wizards of Waverly Place                   EP: 04                                                               6068607BCC                              
PRCFAMCHA090401212300212312000012NS - 08 - DEREK/NED'S (:11 - :13) (MARCH08)                                                                                 150                                
PRCFAMCHA090401212312212357000045Hannah Montana Private Screening Contest - Version                                                                          150                                
PROFAMCHA090401212357212437000040Family Favourites CD - Family Jams 2 (Wal-Mart Ver                                                                          150                                
PROFAMCHA090401212437212520000043Ned's DSSG (NS) Too Cool for School  - Tonight @ 1                                                                          150                                
PGRFAMCHA090401212520212720000200MS - Hannah Montana Movie #1 - In Theatres April 1                                                                    A60688120                                
PROFAMCHA090401212720212820000100Cory In The House - Cory vs. Sophie (NS) Tonight @                                                                          150                                
PRCFAMCHA090401212820212858000038Life W D (NS) Edwin Mystery Man - Coming Up Next (                                                                          150                                
PROFAMCHA090401212858212938000040Hannah Montana The Movie - CD Sdtrk- Available Now                                                                          150                                
PRCFAMCHA090401212938213013000035Family Games Spot - Generic - 3/4 Day (not in PH)                                                                           150                                
PRCFAMCHA090401213013213020000007NS Bumper - Dodgeball (:07-:09) APR06                                                                                       150                                
PRCFAMCHA090401213020213029000009CC Disclaimer - FAST - Generic (:09-:10)                                                                                    150                                
PGRFAMCHA090401213029215259002230Life with Derek                                   EP: 21                                                        C26679A1065607BCC                              
PRCFAMCHA090401215259215305000006Astral ID (FEB 2009)                                                                                                        150                                
PRCFAMCHA090401215305215316000011NS - 09 - NEDS/CORY IN THE HOUSE (:11 - :13) (SEPT                                                                          150                                
PRCFAMCHA090401215316215354000038FOD - Family On Demand - Generic - Check you local                                                                          150                                
PROFAMCHA0904012153542154540001004 Artists Family Favourites CD Blast (Wal-Mart) (M                                                                          150                                
PROFAMCHA090401215454215527000033Cory In The House (NS) WHAT THEY'RE SAYING - Tonig                                                                          150                                
PRCFAMCHA090401215527215642000115Movie Entertainment (8)                                                                                                     150                                
PROFAMCHA090401215642215739000057Suite Life of Z & C FABULOUS LIFESTYLES (NS) Tonig                                                                          150                                
PROFAMCHA090401215739215839000100Sonny With A Chance OVERALL PROMO - Friday Nights                                                                           150                                
PROFAMCHA090401215839215920000041Ned's DSSG (NS) COOKIE - Coming Up Next (JAN09)                                                                             150                                
PRCFAMCHA090401215920220010000050Family Online Community Promo - 3/4 Day (not in PH                                                                          150                                
PRCFAMCHA090401220010220023000013NS Bumper - Fashion (:12-:14) JUNE06                                                                                        150                                
PRCFAMCHA090401220023220033000010CC Disclaimer - SLOW - Family.ca (:09-:10)                                                                                  150                                
PGRFAMCHA090401220033220917000844Ned's Declassified School Survival Guide          EP: 28                                                               2068807BCC                              
PGRFAMCHA090401220917221222000305Ned's Declassified School Survival Guide          EP: 28                                                               2068807BCC                              
PGRFAMCHA090401221222222031000809Ned's Declassified School Survival Guide          EP: 28                                                               2068807BCC                              
PGRFAMCHA090401222031222448000417Ned's Declassified School Survival Guide          EP: 28                                                               2068807BCC                              
PRCFAMCHA090401222448222459000011NS - 10 - CORY IN THE HOUSE/SUITE LIFE (:11 - :13)                                                                          150                                
PRCFAMCHA090401222459222539000040Really Big Birthdays - June - 3-4 X Day (April 1 -                                                                          150                                
PROFAMCHA090401222539222636000057Suite Life of Z & C FABULOUS LIFESTYLES (NS) Tonig                                                                          150                                
PRCFAMCHA090401222636222642000006Family Bumpers - Reptile Pet - Car Horn (MD/NS/NSW                                                                          150                                
PROFAMCHA090401222642222652000010FAMJAM - Open/Close                                                                                                         150                                
PGRFAMCHA090401222652222837000145MV Disney - (MD/NS/NSW) - Jesse McCartney - Just S                                                                     60688120                                
PROFAMCHA090401222837222851000014xxFAMJAM - Close (FAMILY) xxDNUxx                                                                                           150                                
PROFAMCHA090401222851222924000033Cory In The House (NS) WHAT THEY'RE SAYING - Comin                                                                          150                                
PROFAMCHA090401222924222959000035Camp Rock Around The World Stunt - April 10 & Apri                                                                          150                                
PRCFAMCHA090401222959223015000016NS Bumper - Tennis (:15-:17) APR06                                                                                          150                                
PRCFAMCHA090401223015223025000010CC Disclaimer - SLOW - Generic (:09 -:10)                                                                                   150                                
PGRFAMCHA090401223025225256002231Disney Cory in the House                          EP: 13                                                               6068607BCC                              
PRCFAMCHA090401225256225302000006Astral ID (FEB 2009)                                                                                                        150                                
PRCFAMCHA090401225302225313000011NS - 11 - SUITE LIFE/LIFE WITH DEREK (:11 - :13) (                                                                          150                                
PRCFAMCHA090401225313225351000038FOD - Family On Demand - Generic - Check you local                                                                          150                                
PRCFAMCHA090401225351225443000052Life With Derek (NS) Casey & Derek - Tonight @ 11:                                                                          150                                
PRCFAMCHA090401225443225512000029Naturally Sadie - CLIP (NS) Tonight @ 12:00am (MAY                                                                          150                                
PROFAMCHA090401225512225522000010FAMJAM - Open/Close                                                                                                         150                                
PGRFAMCHA090401225522225812000250MV Disney - (MD/NS/NSW) - Jesse McCartney - Just S                                                                     20688120                                
PROFAMCHA090401225812225826000014xxFAMJAM - Close (FAMILY) xxDNUxx                                                                                           150                                
PROFAMCHA090401225826225859000033Sonny With A Chance PREMISE PROMO - Friday Nights                                                                           150                                
PROFAMCHA090401225859225930000031Suite Life of Z & C (NS) TONY HAWK - Coming Up Nex                                                                          150                                
PRCFAMCHA090401225930230005000035Family Games Spot - Generic - 3/4 Day (not in PH)                                                                           150                                
PRCFAMCHA090401230005230012000007NS Bumper - Dodgeball (:07-:09) APR06                                                                                       150                                
ID FAMCHA090401230012230018000006Magic of Disney - NS/NSW/PB - Shape (:06-:09)                                                                               150                                
PRCFAMCHA090401230018230027000009CC Disclaimer - SLOW - Family.ca (:09-:10)                                                                                  150                                
PGRFAMCHA090401230027232307002240Suite Life of Zack & Cody, The                    EP: 09                                                               6068607BCC                              
PRCFAMCHA090401232307232319000012NS - 12 - LIFE WITH DEREK/SADIE (:11 - :13) (SEPT0                                                                          150                                
PRCFAMCHA090401232319232404000045Hannah Montana Private Screening Contest - Version                                                                          150                                
PRCFAMCHA090401232404232444000040Naturally Sadie - ROMANTIC (NS) Tonight @ 12:00am                                                                           150                                
PROFAMCHA090401232444232516000032Sonny With A Chance TEASE PROMO - Friday Nights @                                                                           150                                
PGRFAMCHA090401232516232831000315MS - Hannah Montana Movie #1 - In Theatres April 1                                                                    A60688120                                
PRCFAMCHA090401232831232914000043Life W Derek (NS) Trailer Generic - Coming Up Next                                                                          150                                
PRCFAMCHA090401232914232952000038Family Web Player Version 2 Promo - No Tag 3/day (                                                                          150                                
PRCFAMCHA090401232952233004000012NS Bumper - Fashion (:12-:14) JUNE06                                                                                        150                                
PRCFAMCHA090401233004233014000010CC Disclaimer - SLOW - Generic (:09 -:10)                                                                                   150                                
PGRFAMCHA090401233014235244002230Life with Derek                                   EP: 21                                                        C26679A1065607BCC                              
PRCFAMCHA090401235244235250000006Astral ID (FEB 2009)                                                                                                        150                                
PRCFAMCHA090401235250235301000011NS - 13 - SADIE/SADIE (:11 - :13) (SEPT07)                                                                                  150                                
PRCFAMCHA090401235301235341000040Really Big Birthdays - June - 3-4 X Day (April 1 -                                                                          150                                
PRCFAMCHA090401235341235355000014Family Bumpers - (Phase 1 Spring 04) - Basketball                                                                           150                                
PROFAMCHA090401235355235405000010FAMJAM - Open/Close                                                                                                         150                                
PGRFAMCHA090401235405235800000355MV Disney - (MD/NS/NSW) - Jesse McCartney - Just S                                                                     60688120                                
PROFAMCHA090401235800235814000014xxFAMJAM - Close (FAMILY) xxDNUxx                                                                                           150                                
PRCFAMCHA090401235814235850000036Naturally Sadie - TEENAGER (NS) Coming Up Next (MA                                                                          150                                
PRCFAMCHA090401235850235940000050Family Online Community Promo - 3/4 Day (not in PH                                                                          150                                
PRCFAMCHA090401235940235955000015NS Bumper - Tennis (:15-:17) APR06                                                                                          150                                
PRCFAMCHA090401235955000005000010CC Disclaimer - SLOW - Family.ca (:09-:10)                                                                                  150                                
PGRFAMCHA090401000005002233002228Naturally, Sadie                                  EP: 53                                                        C29639 1065607ACC                              
PRCFAMCHA090401002233002244000011NS - 14 - SADIE/HANNAH (:11 - :13) (SEPT07)                                                                                 150                                
PRCFAMCHA090401002244002322000038FOD - Family On Demand - Generic - Check you local                                                                          150                                
PROFAMCHA090401002322002422000100Sonny With A Chance OVERALL PROMO - Friday Nights                                                                           150                                
PROFAMCHA090401002422002432000010FAMJAM - Open/Close                                                                                                         150                                
PGRFAMCHA090401002432002812000340MV Disney - (MD/NS/NSW) - Jesse McCartney - Just S                                                                     60688120                                
PROFAMCHA090401002812002826000014xxFAMJAM - Close (FAMILY) xxDNUxx                                                                                           150                                
PRCFAMCHA090401002826002906000040Naturally Sadie - ROMANTIC (NS) Coming Up Next (MA                                                                          150                                
PROFAMCHA090401002906002941000035Camp Rock Around The World Stunt - April 10 & Apri                                                                          150                                
PRCFAMCHA090401002941002948000007NS Bumper - Dodgeball (:07-:09) APR06                                                                                       150                                
PRCFAMCHA090401002948002957000009CC Disclaimer - SLOW - Generic (:09 -:10)                                                                                   150                                
PGRFAMCHA090401002957005227002230Naturally, Sadie                                  EP: 34                                                        C25428 1065607ACC                              
PRCFAMCHA090401005227005233000006Astral ID (FEB 2009)                                                                                                        150                                
PRCFAMCHA090401005233005244000011NS - 15 - HANNAH/CORY (:11 - :13) (OCT08)                                                                                   150                                
PRCFAMCHA090401005244005319000035Family Games Spot - Generic - 3/4 Day (not in PH)                                                                           150                                
PROFAMCHA090401005319005352000033Sonny With A Chance PREMISE PROMO - Friday Nights                                                                           150                                
PROFAMCHA090401005352005402000010FAMJAM - Open/Close                                                                                                         150                                
PGRFAMCHA090401005402005752000350MV Disney - (MD/NS/NSW) - Jesse McCartney - Just S                                                                     60688120                                
PROFAMCHA090401005752005806000014xxFAMJAM - Close (FAMILY) xxDNUxx                                                                                           150                                
PROFAMCHA090401005806005847000041Hannah Montana - EVERYWHERE (NS) Coming Up Next (O                                                                          150                                
PRCFAMCHA090401005847005937000050Family Online Community Promo - 3/4 Day (not in PH                                                                          150                                
PRCFAMCHA090401005937005949000012NS Bumper - Fashion (:12-:14) JUNE06                                                                                        150                                
PRCFAMCHA090401005949005959000010CC Disclaimer - SLOW - Family.ca (:09-:10)                                                                                  150                                
PGRFAMCHA090401005959012231002232Hannah Montana                                    EP: 18                                                               6068807BCC                              
PRCFAMCHA090401012231012244000013NS - 16 - CORY/PHIL (:11 - :13) (OCT08)                                                                                     150                                
PRCFAMCHA090401012244012301000017NS Bumper - Tennis (:15-:17) APR06                                                                                          150                                
PRCFAMCHA090401012301012311000010CC Disclaimer - SLOW - Generic (:09 -:10)                                                                                   150                                
PGRFAMCHA090401012311014542002231Disney Cory in the House                          EP: 03                                                               6068607BCC                              
PRCFAMCHA090401014542014548000006Astral ID (FEB 2009)                                                                                                        150                                
PRCFAMCHA090401014548014600000012NS - 17 - PHIL/LIZZIE (:11 - :13) (OCT08)                                                                                   150                                
PRCFAMCHA090401014600014608000008NS Bumper - Dodgeball (:07-:09) APR06                                                                                       150                                
ID FAMCHA090401014608014616000008Magic of Disney - NS/NSW/PB - Shape (:06-:09)                                                                               150                                
PRCFAMCHA090401014616014625000009CC Disclaimer - SLOW - Family.ca (:09-:10)                                                                                  150                                
PGRFAMCHA090401014625020901002236Phil of the Future Yr 2                           EP: 36                                                               6068607BCC                              
PRCFAMCHA090401020901020912000011NS - 18 - LIZZIE/LIFE WITH DEREK (:11 - :13) (OCT0                                                                          150                                
PRCFAMCHA090401020912020925000013NS Bumper - Fashion (:12-:14) JUNE06                                                                                        150                                
ID FAMCHA090401020925020933000008Magic of Disney - NS/NSW/PB - Wipe (:06-:09)                                                                                150                                
PRCFAMCHA090401020933020942000009CC Disclaimer - SLOW - Generic (:09 -:10)                                                                                   150                                
PGRFAMCHA090401020942023216002234Lizzie McGuire                                    EP: 2-030                                                            6068607BCC                              
PRCFAMCHA090401023216023222000006Astral ID (FEB 2009)                                                                                                        150                                
PRCFAMCHA090401023222023235000013NS - 19 - LIFE WITH DEREK/CORY IN THE HOUSE (:11 -                                                                          150                                
PRCFAMCHA090401023235023251000016NS Bumper - Tennis (:15-:17) APR06                                                                                          150                                
PRCFAMCHA090401023251023300000009CC Disclaimer - SLOW - Family.ca (:09-:10)                                                                                  150                                
PGRFAMCHA090401023300025530002230Life with Derek                                   EP: 05                                                        C26822 1065607BCC                              
PRCFAMCHA090401025530025541000011NS - 20 - CORY IN THE HOUSE/RAVEN (:11 - :13) (SEP                                                                          150                                
PRCFAMCHA090401025541025549000008NS Bumper - Dodgeball (:07-:09) APR06                                                                                       150                                
PRCFAMCHA090401025549025559000010CC Disclaimer - SLOW - Generic (:09 -:10)                                                                                   150                                
PGRFAMCHA090401025559025756000157Disney Cory in the House                          EP: 12                                                               6068607BCC                              
PGRFAMCHA090401025756030757001001Disney Cory in the House                          EP: 12                                                               6068607BCC                              
PGRFAMCHA090401030757031746000949Disney Cory in the House                          EP: 12                                                               6068607BCC                              
PGRFAMCHA090401031746031835000049Disney Cory in the House                          EP: 12                                                               6068607BCC                              
PRCFAMCHA090401031835031841000006Astral ID (FEB 2009)                                                                                                        150                                
PRCFAMCHA090401031841031854000013NS - 21 - RAVEN/ SUITE LIFE (:11 - :13) (SEPT07)                                                                            150                                
PRCFAMCHA090401031854031908000014NS Bumper - Fashion (:12-:14) JUNE06                                                                                        150                                
ID FAMCHA090401031908031914000006Magic of Disney - NS/NSW/PB - Shape (:06-:09)                                                                               150                                
PRCFAMCHA090401031914031923000009CC Disclaimer - SLOW - Family.ca (:09-:10)                                                                                  150                                
PGRFAMCHA090401031923034204002241That's So Raven                                   EP: 087                                                              6068607BCC                              
PRCFAMCHA090401034204034217000013NS - 22 - SUITE LIFE/LIFE WITH DEREK (:11 - :13) (                                                                          150                                
PRCFAMCHA090401034217034234000017NS Bumper - Tennis (:15-:17) APR06                                                                                          150                                
ID FAMCHA090401034234034243000009Magic of Disney - NS/NSW/PB - Wipe (:06-:09)                                                                                150                                
PRCFAMCHA090401034243034253000010CC Disclaimer - SLOW - Generic (:09 -:10)                                                                                   150                                
PGRFAMCHA090401034253040532002239Suite Life of Zack & Cody, The                    EP: 14                                                               6068607BCC                              
PRCFAMCHA090401040532040538000006Astral ID (FEB 2009)                                                                                                        150                                
PRCFAMCHA090401040538040551000013NS - 23 - LIFE WITH DEREK (:11 - :13) (SEPT07)                                                                              150                                
PRCFAMCHA090401040551040600000009NS Bumper - Dodgeball (:07-:09) APR06                                                                                       150                                
PRCFAMCHA090401040600040610000010CC Disclaimer - SLOW - Family.ca (:09-:10)                                                                                  150                                
PGRFAMCHA090401040610042840002230Life with Derek                                   EP: 06                                                        C26822 1065607BCC                              
PRCFAMCHA090401042840042851000011FJR - 01 - KATIE& ORBIE / FRANNY'S FEET (SEPT08)                                                                            150                                
PROFAMCHA090401042851042942000051PH-D Promo - Little E Animal Adventure Week - Star                                                                          150                                
ID FAMCHA090401042942042959000017Family Jr. Block Open (:14-:17) (JUL08)                                                                                     150                                
OFFFAMCHA090401042959043000000001OFF AIR                                                                                                                                                        
SO FAMCHA090402043000043011000011Sign On (oct 1)                                                                                                                                                
PRCFAMCHA090402043011043020000009CC Disclaimer - FAST - Family.ca (:09-:10)                                                                                  150                                
PGRFAMCHA090402043020045655002635Katie And Orbie                                   EP: 2-025                                                     C11896A1065607ECC                              
PRCFAMCHA090402045655045701000006Astral ID - Family Jr. Version (MAR 2009)                                                                                   150                                
PRCFAMCHA090402045701045712000011FJR - 02 - FRANNY'S FEET / BENJAMIN BEAR (SEPT08)                                                                           150                                
PRCFAMCHA090402045712045723000011Family Jr. Bumper - Acrobat (:10- :13) (JUL08)                                                                              150                                
PRCFAMCHA090402045723045732000009CC Disclaimer - FAST - Generic (:09-:10)                                                                                    150                                
PGRFAMCHA090402045732052002002230Franny's Feet                                     EPS # 39                                                      C23971 1065607ECC                              
PRCFAMCHA090402052002052015000013FJR - 03 - BENJAMIN BEAR / HOZE HOUNDZ (SEPT08)                                                                             150                                
PRCFAMCHA090402052015052027000012Family Jr. Bumper - Collide (:11- :14) (JUL08)                                                                              150                                
PRCFAMCHA090402052027052036000009CC Disclaimer - FAST - Family.ca (:09-:10)                                                                                  150                                
PGRFAMCHA090402052036054306002230Secret World of Benjamin Bear, The                EP: 30                                                        C27272 1065607ECC                              
PRCFAMCHA090402054306054312000006Astral ID - Family Jr. Version (MAR 2009)                                                                                   150                                
PRCFAMCHA090402054312054323000011FJR - 04 - HOZE HOUNDZ / HENRY'S WORLD (SEPT08)                                                                             150                                
PRCFAMCHA090402054323054335000012Family Jr. Bumper - Music (:11- :14) (JUL08)                                                                                150                                
