SO FAMCHA020101043000043011000011Sign On (oct 1)                                                                                                                                                
PROFAMCHA020101043011043019000008CC Is Brought To You By - Ian **DNU AFTER 09/22**                                                                           150                                
PGRFAMCHA020101043019045242002223Out of the Box                                    Rainbow Colours                                                      60686110CC                              
ID FAMCHA020101045242045252000010Generic ID - Bubbles                                                                                                        150                                
PROFAMCHA020101045252045320000028Art Attack (SCOTSMAN) - Coming Up                                                                                           150                                
PROFAMCHA020101045320045350000030House of Mouse (GWB) - Starting This Weekend                                                                                150                                
PROFAMCHA020101045350045400000010Preschool Line-Up -02- ART/KATIE/DUCKTALES                                                                                  150                                
PGRFAMCHA020101045400051400002000Art Attack                                        1-061                                                                60686110                                
ID FAMCHA020101051400051405000005Generic ID - Bubbles*                                                                                                       150                                
PROFAMCHA020101051405051422000017Katie and Orbie (OCT2001) - Coming Up                                                                                       150                                
PROFAMCHA020101051422051450000028Art Attack (SCOTSMAN) - Today @ 8am                                                                                         150                                
PROFAMCHA020101051450051500000010Preschool Line-Up -03- KATIE/DUCKTALES/LULU                                                                                 150                                
PROFAMCHA020101051500051508000008CC Is Brought To You By - Lark **DNU AFTER 09/22**                                                                          150                                
PGRFAMCHA020101051508054146002638Katie And Orbie                                   Lumpy Bed/Vincent and the Art Gallery/The Buskers             C19665A1065607ECC                              
ID FAMCHA020101054146054151000005Generic ID - Bubbles*                                                                                                       150                                
PROFAMCHA020101054151054238000047DuckTales (AUG2001) - Coming Up                                                                                             150                                
PROFAMCHA020101054238054250000012New Adv of WTP (AUG2001) - Blustery - Today @ 10:2                                                                          150                                
PROFAMCHA020101054250054300000010Preschool Line-Up -04- DUCKTALES/LULU/ALF                                                                                   150                                
PROFAMCHA020101054300054308000008CC Is Brought To You By - Ian **DNU AFTER 09/22**                                                                           150                                
PGRFAMCHA020101054308060555002247Disney's DuckTales                                Working For Scales                                                  A6068607ECC                              
ID FAMCHA020101060555060605000010Generic ID - confetti                                                                                                       150                                
PROFAMCHA020101060605060611000006Little Lulu (AUG2001) - Lulu - Coming Up                                                                                    150                                
PROFAMCHA020101060611060650000039Weekenders (CLOSET-D12/WKNDS) - Weekends @ 4:35pm                                                                           150                                
PROFAMCHA020101060650060700000010Preschool Line-Up -05- LULU/ALF                                                                                             150                                
PROFAMCHA020101060700060708000008CC Is Brought To You By - Lark **DNU AFTER 09/22**                                                                          150                                
PGRFAMCHA020101060708063043002335Little Lulu Show; The                             Order in the Court, Maybe Use Sugar, Road Trip                B20199A1065607ECC                              
ID FAMCHA020101063043063048000005Generic ID - Couch 1*                                                                                                       150                                
PROFAMCHA020101063048063118000030House of Mouse (GWB) - Starting This Weekend                                                                                150                                
PROFAMCHA020101063118063130000012New Adv of WTP (AUG2001) - Blustery - Today @ 10:2                                                                          150                                
PRCFAMCHA020101063130063140000010Morning Block menu background (flex time)                                                                                   150                                
ID FAMCHA020101063140063200000020Morning block open play pen                                                                                                 150                                
PROFAMCHA020101063200063208000008CC Is Brought To You By - Ian **DNU AFTER 09/22**                                                                           150                                
PGRFAMCHA020101063208065337002129ALF                                               Having My Baby                                                      A2068807BCC                              
ID FAMCHA020101065337065343000006Generic ID - soccer                                                                                                         150                                
PROFAMCHA020101065343065413000030Raw Toonage (AUG2001) - Tomorrow @ 7am                                                                                      150                                
PROFAMCHA020101065413065443000030Nightmare Ned (DR JECKLE) - Coming Up                                                                                       150                                
PROFAMCHA020101065443065513000030Shnookums & Meat (NEIGHBOURS) - Thursday @ 7am                                                                              150                                
INTFAMCHA020101065513065809000256MV Disney - Strangers Like Me (PHIL COLLINS)                                                                           60688120                                
PROFAMCHA020101065809065839000030Lizzie McGuire (KATE) - Friday @ 7am                                                                                        150                                
PROFAMCHA020101065839065906000027Even Stevens (DREAM) - Tonight @ 6pm                                                                                        150                                
PROFAMCHA020101065906065940000034Morning Madness (7AM BLOCK) - Coming Up                                                                                     150                                
ID FAMCHA020101065940070000000020Morning block open play pen                                                                                                 150                                
PROFAMCHA020101070000070008000008CC Is Brought To You By - Lark **DNU AFTER 09/22**                                                                          150                                
PGRFAMCHA020101070008072243002235Nightmare Ned                                     Abduction/Bad Report Card                                           A6068607ECC                              
ID FAMCHA020101072243072253000010Generic ID - Family w/dog                                                                                                   150                                
PROFAMCHA020101072253072321000028Art Attack (SCOTSMAN) - Today @ 8am                                                                                         150                                
PRCFAMCHA020101072321072335000014Franklin (AUG2001) - Leaf - Coming Up                                                                                       150                                
PROFAMCHA020101072335072341000006Little Lulu (AUG2001) - Lulu - Today @ 8:20am                                                                               150                                
INTFAMCHA020101072341072704000323Schoolhouse Rock - Telegraph Line                                                                                     A60686120                                
PROFAMCHA020101072704072711000007PB&J Otter (AUG2001) - Kite - Today @ 9:30am                                                                                150                                
INTFAMCHA020101072711072911000200MV Disney - I'm Gonna Fly                                                                                              60688120                                
PROFAMCHA020101072911072928000017Katie and Orbie (OCT2001) - Today @ 9:55am                                                                                  150                                
PRCFAMCHA020101072928072940000012Morning Block menu background (flex time)                                                                                   150                                
ID FAMCHA020101072940073000000020Morning block open play pen                                                                                                 150                                
PROFAMCHA020101073000073008000008CC Is Brought To You By - Ian **DNU AFTER 09/22**                                                                           150                                
PGRFAMCHA020101073008075301002253Franklin                                          At The Seashore/Snail's Dream                                 B38158A1065607ECC                              
ID FAMCHA020101075301075316000015Generic ID - confetti                                                                                                       150                                
PROFAMCHA020101075316075344000028Art Attack (SCOTSMAN) - Coming Up                                                                                           150                                
PROFAMCHA020101075344075350000006Little Lulu (AUG2001) - Lulu - Today @ 8:20am                                                                               150                                
INTFAMCHA020101075350075550000200Disney Circle Time - The Greedy Dog (anywhere but                                                                      60688120                                
PROFAMCHA020101075550075557000007PB&J Otter (AUG2001) - Kite - Today @ 9:30am                                                                                150                                
INTFAMCHA020101075557075920000323Schoolhouse Rock - The Four-Legged Zoo                                                                                A60686120                                
PROFAMCHA020101075920075937000017Katie and Orbie (OCT2001) - Today @ 9:55am                                                                                  150                                
PROFAMCHA020101075937075952000015Out of the Box - Today @ 10:45am                                                                                            150                                
PROFAMCHA020101075952080002000010Preschool Line-Up -06- ART/LULU/ELMO                                                                                        150                                
PGRFAMCHA020101080002081646001644Art Attack                                        Gondola & Bridge/Door Dangler                                       A60686110                                
ID FAMCHA020101081646081651000005Generic ID - Couch 2*                                                                                                       150                                
PROFAMCHA020101081651081657000006Little Lulu (AUG2001) - Lulu - Coming Up                                                                                    150                                
PROFAMCHA020101081657081712000015New Adv of WTP (AUG2001) - Poem - Today @ 10:20am                                                                           150                                
INTFAMCHA020101081712082035000323Schoolhouse Rock - Electricity, Electricity                                                                           A60686120                                
PROFAMCHA020101082035082050000015Building Holiday Fun Contest                                                                                                150                                
PROFAMCHA020101082050082100000010Preschool Line-Up -07- LULU/ELMO/BOP                                                                                        150                                
PROFAMCHA020101082100082108000008CC Is Brought To You By - Lark **DNU AFTER 09/22**                                                                          150                                
PGRFAMCHA020101082108084500002352Little Lulu Show; The                             The Bogeyman/Tattoos/Mimibur                                  C19511A1065607ECC                              
ID FAMCHA020101084500084505000005Generic ID - Marbles                                                                                                        150                                
PROFAMCHA020101084505084522000017Katie and Orbie (OCT2001) - Today @ 9:55am                                                                                  150                                
PROFAMCHA020101084522084550000028Art Attack (SCOTSMAN) - Weekdays @ 8am                                                                                      150                                
PROFAMCHA020101084550084600000010Preschool Line-Up -08- ELMO/BOP/PB&J                                                                                        150                                
PGRFAMCHA020101084600090133001533Elmo's World                                      Teeth                                                               A2068607G                                
ID FAMCHA020101090133090140000007Generic ID - Whisper*                                                                                                       150                                
PROFAMCHA020101090140090149000009PB&J Otter (AUG2001) - Open - Today @ 9:30am                                                                                150                                
PROFAMCHA020101090149090204000015Building Holiday Fun Contest                                                                                                150                                
INTFAMCHA020101090204090422000218Art Attack - Windmill                                                                                                  60688120                                
PROFAMCHA020101090422090439000017Katie and Orbie (OCT2001) - Today @ 9:55am                                                                                  150                                
PROFAMCHA020101090439090449000010Preschool Line-Up -09- BOP/PB&J/KATIE                                                                                       150                                
ID FAMCHA020101090449090459000010xxMagic of Disney - V2(sky) - KID FEMALE                                                                                    150                                
PGRFAMCHA020101090459092901002402Book Of Pooh; The                                 Take Me To What River/My Gloomy Valentine                            6068607G                                
ID FAMCHA020101092901092911000010Generic ID - Ring around the rosie                                                                                          150                                
PROFAMCHA020101092911092920000009PB&J Otter (AUG2001) - Open - Coming Up                                                                                     150                                
PROFAMCHA020101092920092935000015Out of the Box - Today @ 10:45am                                                                                            150                                
PROFAMCHA020101092935092950000015New Adv of WTP (AUG2001) - Poem - Today @ 10:20am                                                                           150                                
PROFAMCHA020101092950093000000010Preschool Line-Up -10- PB&J/KATIE/WTP                                                                                       150                                
PROFAMCHA020101093000093008000008CC Is Brought To You By - Ian **DNU AFTER 09/22**                                                                           150                                
PGRFAMCHA020101093008095229002221PB&J Otter                                        The Silent Treatment/Picture Perfect                                A6068607ECC                              
ID FAMCHA020101095229095240000011Generic ID - soccer                                                                                                         150                                
PROFAMCHA020101095240095257000017Katie and Orbie (OCT2001) - Coming Up                                                                                       150                                
PROFAMCHA020101095257095309000012New Adv of WTP (AUG2001) - Blustery - Today @ 10:2                                                                          150                                
INTFAMCHA020101095309095435000126Mix Ups - Birthday Befuddle                                                                                            60688120                                
PROFAMCHA020101095435095450000015Out of the Box - Today @ 10:45am                                                                                            150                                
PROFAMCHA020101095450095500000010Preschool Line-Up -11- KATIE/WTP/OOTB                                                                                       150                                
PROFAMCHA020101095500095508000008CC Is Brought To You By - Lark **DNU AFTER 09/22**                                                                          150                                
PGRFAMCHA020101095508102146002638Katie And Orbie                                   Chill/Christian/Seventh Wave                                  C19664A1055607ECC3                             
ID FAMCHA020101102146102152000006Generic ID - soccer                                                                                                         150                                
PROFAMCHA020101102152102207000015New Adv of WTP (AUG2001) - Poem - Coming Up                                                                                 150                                
PROFAMCHA020101102207102222000015Out of the Box - Today @ 10:45am                                                                                            150                                
PROFAMCHA020101102222102240000018Buzz Lightyear (DO YOUR BEST) - Today @ 4pm                                                                                 150                                
PROFAMCHA020101102240102250000010Preschool Line-Up -12- WTP/OOTB/DUCKTALES                                                                                   150                                
ID FAMCHA020101102250102300000010xxMagic of Disney - V2(sky) - KID MALE                                                                                      150                                
PROFAMCHA020101102300102308000008CC Is Brought To You By - Ian **DNU AFTER 09/22**                                                                           150                                
PGRFAMCHA020101102308104549002241New Adventures of Winnie the Pooh; The            There's No Camp Like Home/Ballonatics                                6068607ECC                              
ID FAMCHA020101104549104559000010Generic ID - Bubbles                                                                                                        150                                
PROFAMCHA020101104559104614000015Out of the Box - Coming Up                                                                                                  150                                
PROFAMCHA020101104614104640000026DuckTales (CLIP) - Today @ 11:10am                                                                                          150                                
ID FAMCHA020101104640104700000020Morning block open play pen                                                                                                 150                                
PROFAMCHA020101104700104708000008CC Is Brought To You By - Lark **DNU AFTER 09/22**                                                                          150                                
PGRFAMCHA020101104708110958002250Out of the Box                                    Family Fare                                                          60686110CC                              
ID FAMCHA020101110958111004000006Generic ID - soccer                                                                                                         150                                
PROFAMCHA020101111004111030000026DuckTales (CLIP) - Coming Up                                                                                                150                                
PRCFAMCHA020101111030111040000010Morning Block menu background (flex time)                                                                                   150                                
ID FAMCHA020101111040111100000020Morning block open play pen                                                                                                 150                                
PROFAMCHA020101111100111108000008CC Is Brought To You By - Ian **DNU AFTER 09/22**                                                                           150                                
PGRFAMCHA020101111108113343002235Disney's DuckTales                                The Bride Wore Stripes                                              A6068607ECC                              
ID FAMCHA020101113343113348000005Generic ID - Bubbles*                                                                                                       150                                
PRCFAMCHA020101113348113420000032Flubber Event - January 12th                                                                                                150                                
PROFAMCHA020101113420113440000020Disney's One, Too (AUG2001) - Today @ 4pm                                                                                   150                                
ID FAMCHA020101113440113500000020Morning block open play pen                                                                                                 150                                
PGRFAMCHA020101113500122503005003Rudolph's Shiny New Year                                                                                              A2068807E                                
ID FAMCHA020101122503122514000011Generic ID - soccer                                                                                                         150                                
PRCFAMCHA020101122514122526000012Zenon The Zequel (SPACE) - Saturday @ 9pm                                                                                   150                                
PROFAMCHA020101122526122556000030House of Mouse (GWB) - Starting This Weekend                                                                                150                                
PROFAMCHA020101122556122611000015Building Holiday Fun Contest                                                                                                150                                
INTFAMCHA020101122611122829000218Art Attack - Windmill                                                                                                  60688120                                
PROFAMCHA020101122829122858000029Recess (COOL VINCE-D12/WKNDS) - Today @ 5:30pm                                                                              150                                
PRCFAMCHA020101122858122930000032Flubber Event - January 12th                                                                                                150                                
PRCFAMCHA020101122930122940000010Morning Block menu background (flex time)                                                                                   150                                
ID FAMCHA020101122940123000000020Move open family size movie                                                                                                 150                                
PROFAMCHA020101123000123008000008Rating - PG - Ian                                                                                                           150                                
ID FAMCHA020101123008123018000010xxMagic of Disney - V4 - TEEN FEMALE                                                                                        150                                
PGRFAMCHA020101123018141109014051First Kid                                                                                                             B6068807D                                
ID FAMCHA020101141109141119000010Generic ID - confetti                                                                                                       150                                
PRCFAMCHA020101141119141151000032Flubber Event - January 12th                                                                                                150                                
PROFAMCHA020101141151141231000040Buzz Lightyear (TRANDIBULATOR) - Today @ 4pm                                                                                150                                
PROFAMCHA020101141231141246000015Building Holiday Fun Contest                                                                                                150                                
INTFAMCHA02010114124614134600010060 Seconds of Science - Time(13) (anywhere but D12                                                                     60688120                                
PROFAMCHA020101141346141416000030House of Mouse (GWB) - Starting This Weekend                                                                                150                                
PRCFAMCHA020101141416141441000025Zenon The Zequel (IT'S TIME) - Saturday @ 9pm                                                                               150                                
PRCFAMCHA020101141441141450000009Morning Block menu background (flex time)                                                                                   150                                
ID FAMCHA020101141450141510000020Move open family size movie                                                                                                 150                                
PROFAMCHA020101141510141518000008Rating - PG - Lark                                                                                                          150                                
PGRFAMCHA020101141518155200013642Heavyweights                                                                                                          B6068807D                                
ID FAMCHA020101155200155207000007Generic ID - Whisper*                                                                                                       150                                
PRCFAMCHA020101155207155219000012Zenon The Zequel (SPACE) - Saturday @ 9pm                                                                                   150                                
PROFAMCHA020101155219155237000018Buzz Lightyear (DO YOUR BEST) - Coming Up                                                                                   150                                
INTFAMCHA020101155237155250000013Toy Story Treats - Go Fish                                                                                             60686120                                
INTFAMCHA020101155250155420000130Family X-Periment - Ep.04: The Fisherman's Friend                                                                     A10656120                                
PROFAMCHA020101155420155450000030Disney Promo (D12 only) - RECESS - Set Your Clocks                                                                          150                                
INTFAMCHA020101155450155620000130Klootz - Espace 05                                                                                                    A10658120                                
INTFAMCHA020101155620155633000013Toy Story Treats - Mad Scientist                                                                                       60686120                                
INTFAMCHA020101155633155803000130Family X-Periment - Ep.07: Battle Royale                                                                              A10656120                                
PROFAMCHA020101155803155830000027Even Stevens (DREAM) - Tonight @ 6pm                                                                                        150                                
INTFAMCHA020101155830155843000013Toy Story Treats - Thrill Ride #3                                                                                      60686120                                
PROFAMCHA020101155843155917000034Morning Madness (7AM BLOCK) - Weekday Mornings @ 7                                                                          150                                
PRCFAMCHA020101155917155949000032Flubber Event - January 12th                                                                                                150                                
ID FAMCHA020101155949155959000010xxMagic of Disney - V3(water) - TEEN FEMALE                                                                                 150                                
PROFAMCHA020101155959160029000030Disney's One Too - Opening                                                                                                  150                                
PROFAMCHA020101160029160037000008CC Is Brought To You By - Games                                                                                             150                                
PGRFAMCHA020101160037162230002153Disney/Pixar's Buzz Lightyear of Star Command     Devolutionairies                                                     6068607ECC                              
ID FAMCHA020101162230162235000005Generic ID - Couch 2*                                                                                                       150                                
PRCFAMCHA020101162235162307000032Flubber Event - January 12th                                                                                                150                                
INTFAMCHA020101162307162320000013Toy Story Treats - Alien On Board                                                                                      60686120                                
INTFAMCHA020101162320162620000300Art Attack - Jack-In-The-Box                                                                                           60686120                                
PROFAMCHA020101162620162640000020Disney Promo (D12 only) - TARZAN - Learning The Wa                                                                          150                                
PROFAMCHA020101162640162655000015Building Holiday Fun Contest                                                                                                150                                
INTFAMCHA020101162655162825000130Family X-Periment - Ep.05: The Phenomenon                                                                             A10656120                                
INTFAMCHA020101162825162855000030Disney Magic Drawings(09)- Dumbo (D12 only)                                                                            60686120                                
INTFAMCHA020101162855162908000013Toy Story Treats - Itchy Rex                                                                                           60686120                                
PRCFAMCHA020101162908162933000025Zenon The Zequel (IT'S TIME) - Saturday @ 9pm                                                                               150                                
PRCFAMCHA020101162933162942000009Morning Block menu background (flex time)                                                                                   150                                
ID FAMCHA020101162942163000000018Afternoon block pinball open                                                                                                150                                
PROFAMCHA020101163000163030000030Disney's One Too - Opening                                                                                                  150                                
PROFAMCHA020101163030163038000008CC Is Brought To You By - Click Club                                                                                        150                                
PGRFAMCHA020101163038165327002249Disney's Pepper Ann                               Burn, Hazelnut, Burn/Career Daze                                     6068607ECC                              
ID FAMCHA020101165327165337000010Generic ID - Family w/dog                                                                                                   150                                
PRCFAMCHA020101165337165349000012Zenon The Zequel (SPACE) - Saturday @ 9pm                                                                                   150                                
PROFAMCHA020101165349165424000035Legend of Tarzan (PICKS&NIBBLES-D12/WKNDS) - Comin                                                                          150                                
INTFAMCHA020101165424165556000132Disney Magic Shop(07)- Dividing Dime (D12 only)                                                                        60686120                                
ID FAMCHA020101165556165633000037Wonder Kid - Artist II                                                                                                      150                                
ID FAMCHA020101165633165645000012Wonder Kid Tag - Female                                                                                                     150                                
PROFAMCHA020101165645165715000030House of Mouse (GWB) - Starting This Weekend                                                                                150                                
INTFAMCHA020101165715165845000130Family X-Periment - Ep.06: Ham Means Jambon                                                                           A10656120                                
PROFAMCHA020101165845165900000015Disney Promo (D12 only) - BUZZ - Name You Can Coun                                                                          150                                
PRCFAMCHA020101165900165932000032Flubber Event - January 12th                                                                                                150                                
PRCFAMCHA020101165932165942000010Morning Block menu background (flex time)                                                                                   150                                
ID FAMCHA020101165942170000000018Afternoon block pinball open                                                                                                150                                
PROFAMCHA020101170000170030000030Disney's One Too - Opening                                                                                                  150                                
PGRFAMCHA020101170030172316002246Disney's The Legend of Tarzan                     Trading Post                                                        A6068607E                                
ID FAMCHA020101172316172323000007Generic ID - Whisper*                                                                                                       150                                
PRCFAMCHA020101172323172355000032Flubber Event - January 12th                                                                                                150                                
PROFAMCHA020101172355172424000029Recess (COOL VINCE-D12/WKNDS) - Coming Up                                                                                   150                                
PROFAMCHA020101172424172454000030House of Mouse (GWB) - Starting This Weekend                                                                                150                                
INTFAMCHA020101172454172515000021Recess Sketches - Gretchen's Inventions - Mirro Gr                                                                     60686120                                
INTFAMCHA020101172515172619000104Jack and Marcel: Ep.087 "Captain Jack, Super Marce                                                                    A40688120                                
PROFAMCHA020101172619172649000030Even Stevens (GUITAR) - Tonight @ 6pm                                                                                       150                                
INTFAMCHA020101172649172710000021Recess Sketches - Mickey's World Record - Sling sh                                                                     60686120                                
INTFAMCHA020101172710172840000130Family X-Periment - Ep.07: Battle Royale                                                                              A10656120                                
INTFAMCHA020101172840172901000021Recess Sketches - The Assignment - Gold Coins                                                                          60686120                                
PROFAMCHA020101172901172916000015Building Holiday Fun Contest                                                                                                150                                
PRCFAMCHA020101172916172941000025Zenon The Zequel (IT'S TIME) - Saturday @ 9pm                                                                               150                                
ID FAMCHA020101172941172959000018Afternoon block pinball open                                                                                                150                                
PROFAMCHA020101172959173029000030Disney's One Too - Opening                                                                                                  150                                
PGRFAMCHA020101173029175304002235Disney's Recess                                   Partners In Crime/The Bet                                            6068607E                                
ID FAMCHA020101175304175311000007Generic ID - Whisper*                                                                                                       150                                
PRCFAMCHA020101175311175323000012Zenon The Zequel (SPACE) - Saturday @ 9pm                                                                                   150                                
PROFAMCHA020101175323175353000030Even Stevens (GUITAR) - Coming Up                                                                                           150                                
PROFAMCHA020101175353175417000024Honey, I Shrunk the Kids (AUG2001) - Tonight @ 8pm                                                                          150                                
INTFAMCHA020101175417175837000420Art Attack - Genie                                                                                                     60686120                                
PROFAMCHA020101175837175907000030House of Mouse (GWB) - Starting This Weekend                                                                                150                                
PRCFAMCHA020101175907175939000032Flubber Event - January 12th                                                                                                150                                
PRCFAMCHA020101175939175950000011Morning Block menu background (flex time)                                                                                   150                                
ID FAMCHA020101175950180000000010xxMagic of Disney - V3(water) - TEEN MALE                                                                                   150                                
PGRFAMCHA020101180000182242002242Even Stevens                                      After Hours                                                         A6068807B                                
ID FAMCHA020101182242182247000005Generic ID - Marbles                                                                                                        150                                
PRCFAMCHA020101182247182319000032Flubber Event - January 12th                                                                                                150                                
PROFAMCHA020101182319182343000024Honey, I Shrunk the Kids (AUG2001) - Tonight @ 8pm                                                                          150                                
PROFAMCHA020101182343182358000015Building Holiday Fun Contest                                                                                                150                                
INTFAMCHA020101182358182528000130Family X-Periment - Ep.07: Battle Royale                                                                              A10656120                                
PROFAMCHA020101182528182602000034Morning Madness (7AM BLOCK) - Weekday Mornings @ 7                                                                          150                                
INTFAMCHA020101182602182904000302Art Attack - Ballerina                                                                                                 60686120                                
PRCFAMCHA020101182904182929000025Zenon The Zequel (IT'S TIME) - Saturday @ 9pm                                                                               150                                
PRCFAMCHA020101182929182939000010Morning Block menu background (flex time)                                                                                   150                                
ID FAMCHA020101182939183000000021Prime time open count down                                                                                                  150                                
PROFAMCHA020101183000183008000008CC Is Brought To You By - Lark **DNU AFTER 09/22**                                                                          150                                
PGRFAMCHA020101183008185438002430Famous Jett Jackson; The                          Battle of Wilstead                                            B57175 1065607ACC                              
ID FAMCHA020101185438185448000010Generic ID - Pink inner tube                                                                                                150                                
PRCFAMCHA020101185448185500000012Zenon The Zequel (SPACE) - Saturday @ 9pm                                                                                   150                                
PROFAMCHA020101185500185524000024Honey, I Shrunk the Kids (AUG2001) - Tonight @ 8pm                                                                          150                                
INTFAMCHA020101185524185842000318MV Disney - If You Wanna Dance (NOBODY'S ANGEL)                                                                        60688120                                
PROFAMCHA020101185842185909000027Even Stevens (DREAM) - Tomorrow @ 6pm                                                                                       150                                
PRCFAMCHA020101185909185941000032Flubber Event - January 12th                                                                                                150                                
PRCFAMCHA020101185941185950000009Morning Block menu background (flex time)                                                                                   150                                
ID FAMCHA020101185950190000000010xxMagic of Disney - V3(water) - TEEN FEMALE                                                                                 150                                
PGRFAMCHA020101190000192445002445Jersey; The                                       Pilot                                                                6068607A                                
ID FAMCHA020101192445192455000010Generic ID - Ring around the rosie                                                                                          150                                
PRCFAMCHA020101192455192527000032Flubber Event - January 12th                                                                                                150                                
PROFAMCHA020101192527192557000030House of Mouse (GWB) - Starting This Weekend                                                                                150                                
INTFAMCHA020101192557192840000243Art Attack - Eiffel Tower                                                                                              60686120                                
PROFAMCHA020101192840192904000024Honey, I Shrunk the Kids (AUG2001) - Tonight @ 8pm                                                                          150                                
PRCFAMCHA020101192904192929000025Zenon The Zequel (IT'S TIME) - Saturday @ 9pm                                                                               150                                
PRCFAMCHA020101192929192939000010Morning Block menu background (flex time)                                                                                   150                                
ID FAMCHA020101192939193000000021Prime time open count down                                                                                                  150                                
PROFAMCHA020101193000193008000008CC Is Brought To You By - Click Club                                                                                        150                                
PGRFAMCHA020101193008195137002129ALF                                               Having My Baby                                                      A2068807BCC                              
ID FAMCHA020101195137195148000011Generic ID - soccer                                                                                                         150                                
PRCFAMCHA020101195148195200000012Zenon The Zequel (SPACE) - Saturday @ 9pm                                                                                   150                                
PROFAMCHA020101195200195224000024Honey, I Shrunk the Kids (AUG2001) - Coming Up                                                                              150                                
PROFAMCHA020101195224195234000010MV FAMJAM - Teaser (Generic)                                                                                                150                                
PROFAMCHA020101195234195249000015Building Holiday Fun Contest                                                                                                150                                
INTFAMCHA020101195249195644000355MV - More Than That                                                                                                   A20688120                                
PROFAMCHA020101195644195654000010MV Web Throw - music@family.ca                                                                                              150                                
PROFAMCHA020101195654195724000030House of Mouse (GWB) - Starting This Weekend                                                                                150                                
INTFAMCHA020101195724195909000145Art Attack - Bi-Plane I                                                                                                60686120                                
PRCFAMCHA020101195909195941000032Flubber Event - January 12th                                                                                                150                                
PRCFAMCHA020101195941195950000009Morning Block menu background (flex time)                                                                                   150                                
ID FAMCHA020101195950200000000010xxMagic of Disney - V4 - ADULT MALE                                                                                         150                                
PGRFAMCHA020101200000204337004337Disney's Honey, I Shrunk The Kids: The TV Show    The Play's The Triangle                                              6068807BCC                              
ID FAMCHA020101204337204342000005Generic ID - Couch 1*                                                                                                       150                                
PRCFAMCHA020101204342204414000032Flubber Event - January 12th                                                                                                150                                
PRCFAMCHA020101204414204439000025Zenon The Zequel (IT'S TIME) - Saturday @ 9pm                                                                               150                                
ID FAMCHA020101204439204500000021Prime time open count down                                                                                                  150                                
PGRFAMCHA020101204500205856001356Are You Afraid of the Dark?                       Last Dance Pt.2                                               SR0308A1066807ACC                              
ID FAMCHA020101205856205901000005Generic ID - Bubbles*                                                                                                       150                                
PRCFAMCHA020101205901205933000032Flubber Event - January 12th                                                                                                150                                
PROFAMCHA020101205933205940000007MV Web Throw - family.ca                                                                                                    150                                
ID FAMCHA020101205940210000000020Move open family size movie                                                                                                 150                                
PROFAMCHA020101210000210008000008Rating - PG - Ian                                                                                                           150                                
PROFAMCHA020101210008210016000008CC Is Brought To You By - Click Club                                                                                        150                                
ID FAMCHA020101210016210026000010xxMagic of Disney - V2(sky) - ADULT FEMALE                                                                                  150                                
PGRFAMCHA020101210026223831013805Cool Runnings                                                                                                         B6068807DCC                              
ID FAMCHA020101223831223836000005Generic ID - Couch 1*                                                                                                       150                                
PRCFAMCHA020101223836223908000032Flubber Event - January 12th                                                                                                150                                
PROFAMCHA020101223908223915000007MV Web Throw - family.ca                                                                                                    150                                
PRCFAMCHA020101223915223940000025Zenon The Zequel (IT'S TIME) - Saturday @ 9pm                                                                               150                                
ID FAMCHA020101223940224000000020Move open family size movie                                                                                                 150                                
PROFAMCHA020101224000224008000008Rating - AA - Lark                                                                                                          150                                
PGRFAMCHA020101224008005338021330Victor Victoria                                                                                                       C2068807D                                
ID FAMCHA020101005338005353000015Generic ID - confetti                                                                                                       150                                
PRCFAMCHA020101005353005405000012Zenon The Zequel (SPACE) - Saturday @ 9pm                                                                                   150                                
PROFAMCHA020101005405005435000030Even Stevens (GUITAR) - Tomorrow @ 6pm                                                                                      150                                
PRCFAMCHA020101005435005507000032Flubber Event - January 12th                                                                                                150                                
INTFAMCHA020101005507005856000349MV Disney - Dancing In The Street (MYRA)                                                                               60688120                                
INTFAMCHA020101005856010026000130Klootz - Handymen 05 (post 7PM)                                                                                       A10658120                                
INTFAMCHA020101010026010200000134MV Disney - He's A Tramp                                                                                               60688120                                
SO FAMCHA020101010200010212000012Sign Off (oct 1)                                                                                                                                               
OFFFAMCHA020101010212043000032748                                                                                                                                                               
SO FAMCHA020102043000043011000011Sign On (oct 1)                                                                                                                                                
PROFAMCHA020102043011043019000008CC Is Brought To You By - Ian **DNU AFTER 09/22**                                                                           150                                
PGRFAMCHA020102043019045354002335Out of the Box                                    Happy Birthday To Us                                                 60686110CC                              
ID FAMCHA020102045354045359000005Generic ID - Couch 1*                                                                                                       150                                
PROFAMCHA020102045359045409000010Preschool Line-Up -02- ART/KATIE/DUCKTALES                                                                                  150                                
PGRFAMCHA020102045409051405001956Art Attack                                        1-062                                                                60686110                                
ID FAMCHA020102051405051415000010Generic ID - Bubbles                                                                                                        150                                
PROFAMCHA020102051415051432000017Katie and Orbie (OCT2001) - Coming Up                                                                                       150                                
PROFAMCHA020102051432051450000018Stanley - Weekends @ 5pm                                                                                                    150                                
PROFAMCHA020102051450051500000010Preschool Line-Up -03- KATIE/DUCKTALES/LULU                                                                                 150                                
PROFAMCHA020102051500051508000008CC Is Brought To You By - Lark **DNU AFTER 09/22**                                                                          150                                
PGRFAMCHA020102051508054146002638Katie And Orbie                                   A Scary Story/John The Music Man/Orbie The Grouch             C19665A1065607ECC                              
ID FAMCHA020102054146054156000010Generic ID - Family w/dog                                                                                                   150                                
PROFAMCHA020102054156054243000047DuckTales (AUG2001) - Coming Up                                                                                             150                                
PROFAMCHA020102054243054250000007PB&J Otter (AUG2001) - Kite - Today @ 9:30am                                                                                150                                
PROFAMCHA020102054250054300000010Preschool Line-Up -04- DUCKTALES/LULU/ALF                                                                                   150                                
PROFAMCHA020102054300054308000008CC Is Brought To You By - Ian **DNU AFTER 09/22**                                                                           150                                
PGRFAMCHA020102054308060556002248Disney's DuckTales                                Merit-Time Adventure                                                A6068607ECC                              
ID FAMCHA020102060556060606000010Generic ID - Hula Hoop                                                                                                      150                                
PROFAMCHA020102060606060612000006Little Lulu (AUG2001) - Lulu - Coming Up                                                                                    150                                
PROFAMCHA020102060612060630000018Buzz Lightyear (DO YOUR BEST) - Today @ 4pm                                                                                 150                                
PROFAMCHA020102060630060650000020Hoze Houndz (AUG2001) - Today @ 11:35am                                                                                     150                                
PROFAMCHA020102060650060700000010Preschool Line-Up -05- LULU/ALF                                                                                             150                                
PROFAMCHA020102060700060708000008CC Is Brought To You By - Lark **DNU AFTER 09/22**                                                                          150                                
PGRFAMCHA020102060708063042002334Little Lulu Show; The                             Bicycle Built for Too Many, Tax Time Trouble, Mayo            B20200A1065607ECC                              
ID FAMCHA020102063042063053000011Generic ID - soccer                                                                                                         150                                
PROFAMCHA020102063053063122000029Recess (COOL VINCE-D12/WKNDS) - Today @ 5:30pm                                                                              150                                
PROFAMCHA020102063122063140000018Stanley - Weekends @ 5pm                                                                                                    150                                
ID FAMCHA020102063140063200000020Morning block open play pen                                                                                                 150                                
PROFAMCHA020102063200063208000008CC Is Brought To You By - Ian **DNU AFTER 09/22**                                                                           150                                
PGRFAMCHA020102063208065337002129ALF                                               Baby, Come Back                                                     A2068807BCC                              
ID FAMCHA020102065337065347000010Generic ID - Ring around the rosie                                                                                          150                                
PROFAMCHA020102065347065413000026Weekenders (FUNVILLE) - Weekends @ 4:35pm                                                                                   150                                
PROFAMCHA020102065413065443000030Raw Toonage (AUG2001) - Coming Up                                                                                           150                                
INTFAMCHA020102065443065806000323Schoolhouse Rock - Little Twelvetoes                                                                                  A60686120                                
PROFAMCHA020102065806065841000035Legend of Tarzan (PICKS&NIBBLES-D12/WKNDS) - Today                                                                          150                                
PROFAMCHA020102065841065911000030Shnookums & Meat (NEIGHBOURS) - Thursday @ 7am                                                                              150                                
PROFAMCHA020102065911065941000030Lizzie McGuire (KATE) - Friday @ 7am                                                                                        150                                
PRCFAMCHA020102065941065950000009Morning Block menu background (flex time)                                                                                   150                                
ID FAMCHA020102065950070000000010xxMagic of Disney - V3(water) - KID MALE                                                                                    150                                
PGRFAMCHA020102070000072350002350Raw Toonage                                       1-009                                                               A6068607E                                
ID FAMCHA020102072350072355000005Generic ID - Fingerpaint                                                                                                    150                                
PROFAMCHA020102072355072423000028Art Attack (SCOTSMAN) - Today @ 8am                                                                                         150                                
PRCFAMCHA020102072423072437000014Franklin (AUG2001) - Leaf - Coming Up                                                                                       150                                
PROFAMCHA020102072437072507000030House of Mouse (GWB) - Starting This Weekend                                                                                150                                
INTFAMCHA020102072507072830000323Schoolhouse Rock - My Hero, Zero                                                                                      A60686120                                
PROFAMCHA020102072830072842000012New Adv of WTP (AUG2001) - Blustery - Today @ 10:2                                                                          150                                
PROFAMCHA020102072842072929000047DuckTales (AUG2001) - Today @ 11:10am                                                                                       150                                
PRCFAMCHA020102072929072940000011Morning Block menu background (flex time)                                                                                   150                                
ID FAMCHA020102072940073000000020Morning block open play pen                                                                                                 150                                
PROFAMCHA020102073000073008000008CC Is Brought To You By - Lark **DNU AFTER 09/22**                                                                          150                                
PGRFAMCHA020102073008075301002253Franklin                                          My Franklin/Franklin's Mom                                    B38159A1065607ECC                              
ID FAMCHA020102075301075311000010Generic ID - Family w/dog                                                                                                   150                                
PROFAMCHA020102075311075341000030House of Mouse (GWB) - Starting This Weekend                                                                                150                                
PROFAMCHA020102075341075355000014Art Attack (ART) - Coming Up                                                                                                150                                
INTFAMCHA020102075355075718000323Schoolhouse Rock - Electricity, Electricity                                                                           A60686120                                
PROFAMCHA020102075718075758000040Buzz Lightyear (TRANDIBULATOR) - Today @ 4pm                                                                                150                                
INTFAMCHA020102075758075932000134MV Disney - He's A Tramp                                                                                               60688120                                
PROFAMCHA020102075932075950000018Stanley - Weekends @ 5pm                                                                                                    150                                
PROFAMCHA020102075950080000000010Preschool Line-Up -06- ART/LULU/ELMO                                                                                        150                                
PGRFAMCHA020102080000081653001653Art Attack                                        1-148                                                               A60686110                                
ID FAMCHA020102081653081703000010Generic ID - confetti                                                                                                       150                                
PROFAMCHA020102081703081709000006Little Lulu (AUG2001) - Lulu - Coming Up                                                                                    150                                
INTFAMCHA020102081709082032000323Schoolhouse Rock - Them Not-So-Dry Bones                                                                              A60686120                                
PROFAMCHA020102082032082050000018Stanley - Weekends @ 5pm                                                                                                    150                                
PROFAMCHA020102082050082100000010Preschool Line-Up -07- LULU/ELMO/BOP                                                                                        150                                
PROFAMCHA020102082100082108000008CC Is Brought To You By - Ian **DNU AFTER 09/22**                                                                           150                                
PGRFAMCHA020102082108084500002352Little Lulu Show; The                             Lancelot Jr./Lucky Lady/Five Little Babies                    C19511A1065607ECC                              
ID FAMCHA020102084500084505000005Generic ID - Couch 1*                                                                                                       150                                
PROFAMCHA020102084505084535000030House of Mouse (GWB) - Starting This Weekend                                                                                150                                
PROFAMCHA020102084535084550000015Out of the Box - Today @ 10:45am                                                                                            150                                
PROFAMCHA020102084550084600000010Preschool Line-Up -08- ELMO/BOP/PB&J                                                                                        150                                
PGRFAMCHA020102084600090111001511Elmo's World                                      Hands                                                               A2068607G                                
ID FAMCHA020102090111090121000010Generic ID - Hula Hoop                                                                                                      150                                
PROFAMCHA020102090121090208000047DuckTales (AUG2001) - Today @ 11:10am                                                                                       150                                
PROFAMCHA020102090208090225000017Katie and Orbie (OCT2001) - Today @ 9:55am                                                                                  150                                
INTFAMCHA020102090225090440000215Disney Circle Time - Endless Story (anywhere but D                                                                     60688120                                
PROFAMCHA020102090440090450000010Preschool Line-Up -09- BOP/PB&J/KATIE                                                                                       150                                
ID FAMCHA020102090450090500000010xxMagic of Disney - V2(sky) - KID FEMALE                                                                                    150                                
PGRFAMCHA020102090500092902002402Book Of Pooh; The                                 The Words Are Out/Brain Drain                                        6068607G                                
ID FAMCHA020102092902092913000011Generic ID - soccer                                                                                                         150                                
PROFAMCHA020102092913092920000007PB&J Otter (AUG2001) - Kite - Coming Up                                                                                     150                                
PROFAMCHA020102092920092950000030House of Mouse (GWB) - Starting This Weekend                                                                                150                                
PROFAMCHA020102092950093000000010Preschool Line-Up -10- PB&J/KATIE/WTP                                                                                       150                                
PROFAMCHA020102093000093008000008CC Is Brought To You By - Lark **DNU AFTER 09/22**                                                                          150                                
PGRFAMCHA020102093008095230002222PB&J Otter                                        Invitation To The Snooties/Too Hot For Fishsicles                   A6068607ECC                              
ID FAMCHA020102095230095237000007Generic ID - Whisper*                                                                                                       150                                
PROFAMCHA020102095237095254000017Katie and Orbie (OCT2001) - Coming Up                                                                                       150                                
PROFAMCHA020102095254095309000015New Adv of WTP (AUG2001) - Poem - Today @ 10:20am                                                                           150                                
INTFAMCHA020102095309095435000126Mix Ups - Birthday Befuddle                                                                                            60688120                                
PROFAMCHA020102095435095450000015Out of the Box - Today @ 10:45am                                                                                            150                                
PROFAMCHA020102095450095500000010Preschool Line-Up -11- KATIE/WTP/OOTB                                                                                       150                                
PROFAMCHA020102095500095508000008CC Is Brought To You By - Ian **DNU AFTER 09/22**                                                                           150                                
PGRFAMCHA020102095508102146002638Katie And Orbie                                   Pizza/The Argument/Sidewalk Storyboard                        C19664A1055607ECC3                             
ID FAMCHA020102102146102156000010Generic ID - confetti                                                                                                       150                                
PROFAMCHA020102102156102226000030House of Mouse (GWB) - Starting This Weekend                                                                                150                                
PRCFAMCHA020102102226102240000014Franklin (AUG2001) - Leaf - Today @ 12:20pm                                                                                 150                                
PROFAMCHA020102102240102250000010Preschool Line-Up -12- WTP/OOTB/DUCKTALES                                                                                   150                                
ID FAMCHA020102102250102300000010xxMagic of Disney - V2(sky) - KID FEMALE                                                                                    150                                
PROFAMCHA020102102300102308000008CC Is Brought To You By - Lark **DNU AFTER 09/22**                                                                          150                                
PGRFAMCHA020102102308104541002233New Adventures of Winnie the Pooh; The            Find Her, Keep Her                                                   6068607ECC                              
ID FAMCHA020102104541104546000005Generic ID - Marbles                                                                                                        150                                
PROFAMCHA020102104546104601000015Out of the Box - Coming Up                                                                                                  150                                
PROFAMCHA020102104601104627000026DuckTales (CLIP) - Today @ 11:10am                                                                                          150                                
PROFAMCHA020102104627104636000009PB&J Otter (AUG2001) - Open - Today @ 1:30pm                                                                                150                                
PRCFAMCHA020102104636104650000014Franklin (AUG2001) - Leaf - Today @ 12:20pm                                                                                 150                                
PROFAMCHA020102104650104700000010Preschool Line-Up -13- OOTB/DUCKTALES/HOZE                                                                                  150                                
PGRFAMCHA020102104700111105002405Out of the Box                                    Pattern Pattern                                                     A6068607A                                
ID FAMCHA020102111105111110000005Generic ID - Couch 2*                                                                                                       150                                
PROFAMCHA020102111110111120000010Preschool Line-Up -14- DUCKTALES/HOZE/LULU                                                                                  150                                
PROFAMCHA020102111120111128000008CC Is Brought To You By - Ian **DNU AFTER 09/22**                                                                           150                                
PGRFAMCHA020102111128113414002246Disney's DuckTales                                Attack Of The 50 Ft. Webby                                          A6068607ECC                              
ID FAMCHA020102113414113419000005Generic ID - Bubbles*                                                                                                       150                                
PROFAMCHA020102113419113439000020Hoze Houndz (AUG2001) - Coming Up                                                                                           150                                
PROFAMCHA020102113439113451000012New Adv of WTP (AUG2001) - Blustery - Today @ 2:25                                                                          150                                
PROFAMCHA020102113451113501000010Preschool Line-Up -15- HOZE/LULU/FRANKLIN                                                                                   150                                
PROFAMCHA020102113501113509000008CC Is Brought To You By - Lark **DNU AFTER 09/22**                                                                          150                                
PGRFAMCHA020102113509115744002235Hoze Houndz                                       Ship Of Fools/Room and Boards                                 B45774A1065607ECC                              
ID FAMCHA020102115744115759000015Generic ID - confetti                                                                                                       150                                
PROFAMCHA020102115759115805000006Little Lulu (AUG2001) - Lulu - Coming Up                                                                                    150                                
PROFAMCHA020102115805115835000030House of Mouse (GWB) - Starting This Weekend                                                                                150                                
PROFAMCHA020102115835115850000015Out of the Box - Today @ 2:45pm                                                                                             150                                
PROFAMCHA020102115850115900000010Preschool Line-Up -16- LULU/FRANKLIN/ELMO                                                                                   150                                
PROFAMCHA020102115900115908000008CC Is Brought To You By - Ian **DNU AFTER 09/22**                                                                           150                                
PGRFAMCHA020102115908122300002352Little Lulu Show; The                             Potato Kids/The Ventriloquist/Bunny Fun                       C19511A1065607ECC                              
ID FAMCHA020102122300122306000006Generic ID - soccer                                                                                                         150                                
PRCFAMCHA020102122306122320000014Franklin (AUG2001) - Leaf - Coming Up                                                                                       150                                
PROFAMCHA020102122320122350000030House of Mouse (GWB) - Starting This Weekend                                                                                150                                
PROFAMCHA020102122350122400000010Preschool Line-Up -17- FRANKLIN/ELMO/BOP                                                                                    150                                
PROFAMCHA020102122400122408000008CC Is Brought To You By - Ian **DNU AFTER 09/22**                                                                           150                                
PGRFAMCHA020102122408124701002253Franklin                                          Franklin Stays Up/Franklin's Bargain                          A53202A1065607ECC                              
ID FAMCHA020102124701124706000005Generic ID - Fingerpaint                                                                                                    150                                
PROFAMCHA020102124706124713000007PB&J Otter (AUG2001) - Kite - Today @ 1:30pm                                                                                150                                
PROFAMCHA020102124713124731000018Stanley - Weekends @ 5pm                                                                                                    150                                
PROFAMCHA020102124731124751000020Hoze Houndz (AUG2001) - Today @ 3:35pm                                                                                      150                                
PROFAMCHA020102124751124801000010Preschool Line-Up -18- ELMO/BOP/PB&J                                                                                        150                                
PGRFAMCHA020102124801130329001528Elmo's World                                      Families                                                            A2068607G                                
ID FAMCHA020102130329130334000005Generic ID - Bubbles*                                                                                                       150                                
PROFAMCHA020102130334130349000015Out of the Box - Today @ 2:45pm                                                                                             150                                
PROFAMCHA020102130349130406000017Katie and Orbie (OCT2001) - Today @ 1:55pm                                                                                  150                                
INTFAMCHA020102130406130551000145Disney Circle Time - The Fox And The Crow (anywher                                                                     60688120                                
PROFAMCHA020102130551130600000009PB&J Otter (AUG2001) - Open - Today @ 1:30pm                                                                                150                                
PROFAMCHA020102130600130640000040Buzz Lightyear (TRANDIBULATOR) - Today @ 4pm                                                                                150                                
PROFAMCHA020102130640130650000010Preschool Line-Up -19- BOP/PB&J/KATIE                                                                                       150                                
ID FAMCHA020102130650130700000010xxMagic of Disney - V3(water) - TEEN MALE                                                                                   150                                
PGRFAMCHA020102130700133102002402Book Of Pooh; The                                 Pleas and Thank You's/The Rumour Milstone                            6068607G                                
ID FAMCHA020102133102133113000011Generic ID - soccer                                                                                                         150                                
PROFAMCHA020102133113133120000007PB&J Otter (AUG2001) - Kite - Coming Up                                                                                     150                                
PROFAMCHA020102133120133150000030House of Mouse (GWB) - Starting This Weekend                                                                                150                                
PROFAMCHA020102133150133200000010Preschool Line-Up -20- PB&J/KATIE/WTP                                                                                       150                                
PROFAMCHA020102133200133208000008CC Is Brought To You By - Lark **DNU AFTER 09/22**                                                                          150                                
PGRFAMCHA020102133208135431002223PB&J Otter                                        Otter In The Water/All Popped Out                                   A6068607ECC                              
ID FAMCHA020102135431135441000010Generic ID - Hula Hoop                                                                                                      150                                
PROFAMCHA020102135441135458000017Katie and Orbie (OCT2001) - Coming Up                                                                                       150                                
PROFAMCHA020102135458135513000015New Adv of WTP (AUG2001) - Poem - Today @ 2:25pm                                                                            150                                
INTFAMCHA020102135513135620000107Disney Moments-Many Adventures Of Ichabod-Headless                                                                     60688120                                
PROFAMCHA020102135620135650000030House of Mouse (GWB) - Starting This Weekend                                                                                150                                
PROFAMCHA020102135650135700000010Preschool Line-Up -21- KATIE/WTP/OOTB                                                                                       150                                
PROFAMCHA020102135700135710000010CC Is Brought To You By - Ian **DNU AFTER 09/22**                                                                           150                                
PGRFAMCHA020102135710142348002638Katie And Orbie                                   Snake In The Grass/Sprite/Homegrown Supper                    C19664A1055607ECC3                             
ID FAMCHA020102142348142355000007Generic ID - Whisper*                                                                                                       150                                
PROFAMCHA020102142355142407000012New Adv of WTP (AUG2001) - Blustery - Coming Up                                                                             150                                
PROFAMCHA020102142407142422000015Out of the Box - Today @ 2:45pm                                                                                             150                                
PROFAMCHA020102142422142442000020Hoze Houndz (AUG2001) - Today @ 3:35pm                                                                                      150                                
PROFAMCHA020102142442142452000010Preschool Line-Up -22- WTP/OOTB/DUCKTALES                                                                                   150                                
ID FAMCHA020102142452142502000010xxMagic of Disney - V3(water) - TEEN MALE                                                                                   150                                
PROFAMCHA020102142502142510000008CC Is Brought To You By - Lark **DNU AFTER 09/22**                                                                          150                                
PGRFAMCHA020102142510144741002231New Adventures of Winnie the Pooh; The            Piglet Who Would Be King                                             6068607ECC                              
ID FAMCHA020102144741144751000010Generic ID - Bubbles                                                                                                        150                                
PROFAMCHA020102144751144806000015Out of the Box - Coming Up                                                                                                  150                                
PROFAMCHA020102144806144824000018Stanley - Weekends @ 5pm                                                                                                    150                                
PROFAMCHA020102144824144852000028Art Attack (SCOTSMAN) - Weekdays @ 8am                                                                                      150                                
PROFAMCHA020102144852144902000010Preschool Line-Up -23- OOTB/DUCKTALES/HOZE                                                                                  150                                
PGRFAMCHA020102144902151307002405Out of the Box                                    Leap Frog Leap                                                      A6068607A                                
ID FAMCHA020102151307151312000005Generic ID - Marbles                                                                                                        150                                
PROFAMCHA020102151312151322000010Preschool Line-Up -24- DUCKTALES/HOZE/D12                                                                                   150                                
PROFAMCHA020102151322151332000010CC Is Brought To You By - Ian **DNU AFTER 09/22**                                                                           150                                
PGRFAMCHA020102151332153610002238Disney's DuckTales                                The Masked Mallard                                                  A6068607ECC                              
ID FAMCHA020102153610153615000005Generic ID - Fingerpaint                                                                                                    150                                
PROFAMCHA020102153615153635000020Hoze Houndz (AUG2001) - Coming Up                                                                                           150                                
PROFAMCHA020102153635153653000018Buzz Lightyear (DO YOUR BEST) - Today @ 4pm                                                                                 150                                
PROFAMCHA020102153653153703000010Preschool Line-Up -25- HOZE/D12                                                                                             150                                
PROFAMCHA020102153703153711000008CC Is Brought To You By - Lark **DNU AFTER 09/22**                                                                          150                                
PGRFAMCHA020102153711155947002236Hoze Houndz                                       Blasterpiece/When The Flu Hits The Fan                        B45775A1065607ECC                              
ID FAMCHA020102155947155954000007Generic ID - Whisper*                                                                                                       150                                
ID FAMCHA020102155954160004000010xxMagic of Disney - V2(sky) - TEEN MALE                                                                                     150                                
PROFAMCHA020102160004160034000030Disney's One Too - Opening                                                                                                  150                                
PROFAMCHA020102160034160042000008CC Is Brought To You By - Games                                                                                             150                                
PGRFAMCHA020102160042162234002152Disney/Pixar's Buzz Lightyear of Star Command     Head Case                                                            6068607ECC                              
ID FAMCHA020102162234162244000010Generic ID - Family w/dog                                                                                                   150                                
PRCFAMCHA020102162244162316000032Flubber Event - January 12th                                                                                                150                                
PROFAMCHA020102162316162351000035Legend of Tarzan (PICKS&NIBBLES-D12/WKNDS) - Today                                                                          150                                
PROFAMCHA020102162351162413000022Even Stevens (KARAOKE) - Tonight @ 6pm                                                                                      150                                
INTFAMCHA020102162413162543000130Family X-Periment - Ep.06: Ham Means Jambon                                                                           A10656120                                
PROFAMCHA020102162543162603000020Disney Promo (D12 only) - BUZZ - Name You Can Coun                                                                          150                                
PROFAMCHA020102162603162623000020Weekenders (D12/WEEKENDS) - Weekends @ 4:35pm                                                                               150                                
PROFAMCHA020102162623162647000024Honey, I Shrunk the Kids (AUG2001) - Tonight @ 8pm                                                                          150                                
PROFAMCHA020102162647162707000020Disney's One, Too (AUG2001) - You're Watching                                                                               150                                
PROFAMCHA020102162707162736000029Recess (COOL VINCE-D12/WKNDS) - Today @ 5:30pm                                                                              150                                
INTFAMCHA020102162736162906000130Family X-Periment - Ep.07: Battle Royale                                                                              A10656120                                
PRCFAMCHA020102162906162931000025Zenon The Zequel (IT'S TIME) - Saturday @ 9pm                                                                               150                                
PRCFAMCHA020102162931162940000009Morning Block menu background (flex time)                                                                                   150                                
ID FAMCHA020102162940163000000020Morning block open play pen                                                                                                 150                                
PROFAMCHA020102163000163030000030Disney's One Too - Opening                                                                                                  150                                
PROFAMCHA020102163030163038000008CC Is Brought To You By - Click Club                                                                                        150                                
PGRFAMCHA020102163038165328002250Disney's Pepper Ann                               G.I. Jane/Miss Moose                                                 6068607ECC                              
ID FAMCHA020102165328165338000010Generic ID - Family w/dog                                                                                                   150                                
PRCFAMCHA020102165338165410000032Flubber Event - January 12th                                                                                                150                                
PROFAMCHA020102165410165445000035Legend of Tarzan (PICKS&NIBBLES-D12/WKNDS) - Comin                                                                          150                                
PROFAMCHA020102165445165509000024Honey, I Shrunk the Kids (AUG2001) - Tonight @ 8pm                                                                          150                                
PROFAMCHA020102165509165524000015Disney Promo (D12 only) - RECESS - Set Your Clocks                                                                          150                                
INTFAMCHA020102165524165537000013Toy Story Treats - Mad Scientist                                                                                       60686120                                
PROFAMCHA020102165537165606000029Recess (COOL VINCE-D12/WKNDS) - Today @ 5:30pm                                                                              150                                
INTFAMCHA020102165606165736000130Family X-Periment - Ep.05: The Phenomenon                                                                             A10656120                                
PROFAMCHA020102165736165806000030Lizzie McGuire (KATE) - Friday @ 7am                                                                                        150                                
PROFAMCHA020102165806165826000020Disney's One, Too (AUG2001) - You're Watching                                                                               150                                
PROFAMCHA020102165826165905000039Weekenders (CLOSET-D12/WKNDS) - Weekends @ 4:35pm                                                                           150                                
PRCFAMCHA020102165905165930000025Zenon The Zequel (IT'S TIME) - Saturday @ 9pm                                                                               150                                
PRCFAMCHA020102165930165942000012Morning Block menu background (flex time)                                                                                   150                                
ID FAMCHA020102165942170000000018Afternoon block pinball open                                                                                                150                                
PROFAMCHA020102170000170030000030Disney's One Too - Opening                                                                                                  150                                
