SO FAMCHA011001043000043011000011Sign On (oct 1)                                                                                                                                                
PGRFAMCHA011001043011045415002404Out of the Box                                    Thinkin Lincoln                                                     A6068607A                                
ID FAMCHA011001045415045420000005Generic ID - Couch 2*                                                                                                       150                                
PROFAMCHA011001045420045430000010Preschool Line-Up -02- ART/KATIE/DUCKTALES                                                                                  150                                
PGRFAMCHA011001045430051437002007Art Attack                                        1-050                                                                60686110                                
ID FAMCHA011001051437051442000005Generic ID - Bubbles*                                                                                                       150                                
PRCFAMCHA011001051442051450000008Franklin (AUG2001) - Slide - Today @ 7:30am                                                                                 150                                
PROFAMCHA011001051450051500000010Preschool Line-Up -03- KATIE/DUCKTALES/LULU                                                                                 150                                
PROFAMCHA011001051500051508000008CC Is Brought To You By - Ian **DNU AFTER 09/22**                                                                           150                                
PGRFAMCHA011001051508054143002635Katie And Orbie                                   The Attic/The Zoo/Katie Up A Tree                             C12449A1065607ECC                              
ID FAMCHA011001054143054148000005Generic ID - Marbles                                                                                                        150                                
PROFAMCHA011001054148054235000047DuckTales (AUG2001) - Coming Up                                                                                             150                                
PROFAMCHA011001054235054250000015New Adv of WTP (AUG2001) - Poem - Today @ 10:20am                                                                           150                                
PROFAMCHA011001054250054300000010Preschool Line-Up -04- DUCKTALES/LULU/ALF                                                                                   150                                
PROFAMCHA011001054300054308000008CC Is Brought To You By - Lark **DNU AFTER 09/22**                                                                          150                                
PGRFAMCHA011001054308060554002246Disney's DuckTales                                Duckworth's Revolt                                                  A6068607ECC                              
ID FAMCHA011001060554060604000010Generic ID - confetti                                                                                                       150                                
PROFAMCHA011001060604060610000006Little Lulu (AUG2001) - Lulu - Coming Up                                                                                    150                                
PROFAMCHA011001060610060630000020Hoze Houndz (AUG2001) - Today @ 11:35am                                                                                     150                                
PROFAMCHA011001060630060650000020Disney's One, Too (AUG2001) - Today @ 4pm                                                                                   150                                
PROFAMCHA011001060650060700000010Preschool Line-Up -05- LULU/ALF                                                                                             150                                
PROFAMCHA011001060700060708000008CC Is Brought To You By - Ian **DNU AFTER 09/22**                                                                           150                                
PGRFAMCHA011001060708063042002334Little Lulu Show; The                             Castaway Kids, Wrestling Away, Never Too Late                 B20207A1065607ECC                              
ID FAMCHA011001063042063047000005Generic ID - Couch 1*                                                                                                       150                                
PRCFAMCHA011001063047063101000014Franklin (AUG2001) - Leaf - Today @ 7:30am                                                                                  150                                
PROFAMCHA011001063101063129000028Art Attack (SCOTSMAN) - Today @ 8am                                                                                         150                                
PRCFAMCHA011001063129063140000011Morning Block menu background (flex time)                                                                                   150                                
ID FAMCHA011001063140063200000020Morning block open play pen                                                                                                 150                                
PROFAMCHA011001063200063208000008CC Is Brought To You By - Lark **DNU AFTER 09/22**                                                                          150                                
PGRFAMCHA011001063208065336002128ALF                                               Don't It Make My Brown Eyes Blue                                    A2068807B                                
ID FAMCHA011001065336065341000005Generic ID - Fingerpaint                                                                                                    150                                
PROFAMCHA011001065341065411000030Nightmare Ned (DR JECKLE) - Tomorrow @ 7am                                                                                  150                                
PROFAMCHA011001065411065441000030Mighty Ducks (AUG2001) - Coming Up                                                                                          150                                
PROFAMCHA011001065441065501000020Disney's One, Too (AUG2001) - Today @ 4pm                                                                                   150                                
INTFAMCHA011001065501065808000307MV Disney - Part Of Your World (JODI BENSON)                                                                           60688120                                
PROFAMCHA011001065808065816000008MV Web Throw - family.ca                                                                                                    150                                
PROFAMCHA011001065816065846000030Shnookums & Meat (AUG2001) - Thursday @ 7am                                                                                 150                                
PROFAMCHA011001065846065916000030Lizzie McGuire (AUG2001) - Friday @ 7am                                                                                     150                                
PROFAMCHA011001065916065950000034Morning Madness (7AM BLOCK) - Coming Up                                                                                     150                                
ID FAMCHA011001065950070000000010xxMagic of Disney - V2(sky) - KID FEMALE                                                                                    150                                
PGRFAMCHA011001070000072242002242Mighty Ducks: The Animated Series                 Puck Fiction                                                        A6068607E                                
ID FAMCHA011001072242072252000010Generic ID - Family w/dog                                                                                                   150                                
PROFAMCHA011001072252072320000028Art Attack (SCOTSMAN) - Today @ 8am                                                                                         150                                
PRCFAMCHA011001072320072334000014Franklin (AUG2001) - Leaf - Coming Up                                                                                       150                                
PROFAMCHA011001072334072340000006Little Lulu (AUG2001) - Lulu - Today @ 8:20am                                                                               150                                
ID FAMCHA011001072340072421000041Silly Stories - Don't Get Soaked                                                                                            150                                
PROFAMCHA011001072421072441000020Book of Pooh - This Morning                                                                                                 150                                
ID FAMCHA011001072441072451000010Silly Stories Teaser - Female                                                                                               150                                
INTFAMCHA011001072451072917000426Art Attack - Robin Hood                                                                                                60686120                                
PRCFAMCHA011001072917072928000011Elmo's World Bumper - Tricycle - This Morning                                                                               150                                
PRCFAMCHA011001072928072940000012Morning Block menu background (flex time)                                                                                   150                                
ID FAMCHA011001072940073000000020Morning block open play pen                                                                                                 150                                
PROFAMCHA011001073000073008000008CC Is Brought To You By - Ian **DNU AFTER 09/22**                                                                           150                                
PGRFAMCHA011001073008075301002253Franklin                                          Sam/Berry Patch                                               B38154A1065607ECC                              
ID FAMCHA011001075301075306000005Generic ID - Fingerpaint                                                                                                    150                                
PROFAMCHA011001075306075334000028Art Attack (SCOTSMAN) - Coming Up                                                                                           150                                
PROFAMCHA011001075334075340000006Little Lulu (AUG2001) - Lulu - Today @ 8:20am                                                                               150                                
INTFAMCHA011001075340075713000333MV Disney - Reflection (CHRISTINA AGUILERA)                                                                            60688120                                
PROFAMCHA011001075713075733000020Book of Pooh - This Morning                                                                                                 150                                
INTFAMCHA011001075733075933000200Disney Circle Time - The Greedy Dog (anywhere but                                                                      60688120                                
PROFAMCHA011001075933075950000017Katie and Orbie (NEW EPS) - Today @ 9:55am                                                                                  150                                
PROFAMCHA011001075950080000000010Preschool Line-Up -06- ART/LULU/ELMO                                                                                        150                                
PGRFAMCHA011001080000081701001701Art Attack                                        Cave Men/TV Screens                                                 A60286110                                
ID FAMCHA011001081701081706000005Astral 40th Anniversary Logo                                                                                                150                                
ID FAMCHA011001081706081716000010Generic ID - Hula Hoop                                                                                                      150                                
PROFAMCHA011001081716081722000006Little Lulu (AUG2001) - Lulu - Coming Up                                                                                    150                                
PRCFAMCHA011001081722081733000011Elmo's World Bumper - Tricycle - This Morning                                                                               150                                
INTFAMCHA011001081733082032000259Music Break - Sebastian's Party Gras: Sing Along                                                                       60686120                                
PROFAMCHA011001082032082050000018Book of Pooh - This Morning                                                                                                 150                                
PROFAMCHA011001082050082100000010Preschool Line-Up -07- LULU/ELMO/BOP                                                                                        150                                
PROFAMCHA011001082100082108000008CC Is Brought To You By - Lark **DNU AFTER 09/22**                                                                          150                                
PGRFAMCHA011001082108084440002332Little Lulu Show; The                             Dancin' Fol, Hop Hazzard, Satge Fright                        B20202A1065607ECC                              
ID FAMCHA011001084440084445000005Generic ID - Marbles                                                                                                        150                                
PRCFAMCHA011001084445084456000011Elmo's World Bumper - Tricycle - Coming Up                                                                                  150                                
ID FAMCHA011001084456084525000029Silly Stories - COLD Story                                                                                                  150                                
PRCFAMCHA011001084525084532000007Book of Pooh Bumper - Gang - This Morning                                                                                   150                                
ID FAMCHA011001084532084541000009Silly Stories Teaser - Male                                                                                                 150                                
PROFAMCHA011001084541084550000009PB&J Otter (AUG2001) - Open - Today @ 9:30am                                                                                150                                
PROFAMCHA011001084550084600000010Preschool Line-Up -08- ELMO/BOP/PB&J                                                                                        150                                
PGRFAMCHA011001084600090418001818Elmo's World                                      Flowers, Plants and Trees                                           A2068607G                                
ID FAMCHA011001090418090423000005Astral 40th Anniversary Logo                                                                                                150                                
ID FAMCHA011001090423090428000005Generic ID - Bubbles*                                                                                                       150                                
PRCFAMCHA011001090428090434000006Book of Pooh Bumper - Hug - Coming Up                                                                                       150                                
PROFAMCHA011001090434090440000006Little Lulu (AUG2001) - Lulu - Today @ 11:55am                                                                              150                                
PROFAMCHA011001090440090450000010Preschool Line-Up -09- BOP/PB&J/KATIE                                                                                       150                                
ID FAMCHA011001090450090500000010xxMagic of Disney - V2(sky) - KID MALE                                                                                      150                                
PGRFAMCHA011001090500092902002402Book Of Pooh; The                                 Night of the Brussels Sprout/I Could Have Laughed                    6068607G                                
ID FAMCHA011001092902092912000010Generic ID - Ring around the rosie                                                                                          150                                
PROFAMCHA011001092912092921000009PB&J Otter (AUG2001) - Open - Coming Up                                                                                     150                                
PROFAMCHA011001092921092949000028Art Attack (SCOTSMAN) - Weekdays @ 8am                                                                                      150                                
PROFAMCHA011001092949092959000010Preschool Line-Up -10- PB&J/KATIE/WTP                                                                                       150                                
PROFAMCHA011001092959093008000009CC Is Brought To You By - Ian                                                                                               150                                
PGRFAMCHA011001093008095229002221PB&J Otter                                        The Silent Treatment/Picture Perfect                                A6068607ECC                              
ID FAMCHA011001095229095234000005Astral 40th Anniversary Logo                                                                                                150                                
ID FAMCHA011001095234095244000010Generic ID - soccer **DO NOT USE**                                                                                          150                                
PROFAMCHA011001095244095301000017Katie and Orbie (NEW EPS) - Coming Up                                                                                       150                                
PROFAMCHA011001095301095316000015New Adv of WTP (AUG2001) - Poem - Today @ 10:20am                                                                           150                                
INTFAMCHA011001095316095436000120Bill Nye - Whether the Weather                                                                                         60688120                                
PROFAMCHA011001095436095451000015Out of the Box - Today @ 10:45am                                                                                            150                                
PROFAMCHA011001095451095501000010Preschool Line-Up -11- KATIE/WTP/OOTB                                                                                       150                                
PROFAMCHA011001095501095508000007CC Is Brought To You By - Lark                                                                                              150                                
PGRFAMCHA011001095508102149002641Katie And Orbie                                   In Kyra's Pocket/Sandbox/Yee Ping's Appendix                  C19664A1015607ECC3                             
ID FAMCHA011001102149102154000005Generic ID - soccer **DO NOT USE**                                                                                          150                                
PROFAMCHA011001102154102209000015New Adv of WTP (AUG2001) - Poem - Coming Up                                                                                 150                                
PROFAMCHA011001102209102229000020Hoze Houndz (AUG2001) - Today @ 11:35am                                                                                     150                                
PRCFAMCHA011001102229102240000011Elmo's World Bumper - Tricycle - This Afternoon                                                                             150                                
PROFAMCHA011001102240102250000010Preschool Line-Up -12- WTP/OOTB/DUCKTALES                                                                                   150                                
ID FAMCHA011001102250102300000010xxMagic of Disney - V3(water) - KID FEMALE                                                                                  150                                
PROFAMCHA011001102300102308000008CC Is Brought To You By - Ian **DNU AFTER 09/22**                                                                           150                                
PGRFAMCHA011001102308104625002317New Adventures of Winnie the Pooh; The            New Eeyore/Tigger Private Ear                                        6068607ECC                              
ID FAMCHA011001104625104630000005Astral 40th Anniversary Logo                                                                                                150                                
ID FAMCHA011001104630104635000005Generic ID - Marbles                                                                                                        150                                
PROFAMCHA011001104635104650000015Out of the Box - Coming Up                                                                                                  150                                
PROFAMCHA011001104650104700000010Preschool Line-Up -13- OOTB/DUCKTALES/HOZE                                                                                  150                                
PGRFAMCHA011001104700110905002205Out of the Box                                    The Fuzzy Worm                                                       60686110                                
ID FAMCHA011001110905110915000010Generic ID - Bubbles                                                                                                        150                                
PROFAMCHA011001110915110941000026DuckTales (CLIP) - Coming Up                                                                                                150                                
PROFAMCHA011001110941111001000020Hoze Houndz (AUG2001) - Today @ 11:35am                                                                                     150                                
PRCFAMCHA011001111001111015000014Franklin (AUG2001) - Leaf - Today @ 12:20pm                                                                                 150                                
PROFAMCHA011001111015111030000015New Adv of WTP (AUG2001) - Poem - Today @ 2:25pm                                                                            150                                
PROFAMCHA011001111030111050000020Book of Pooh - This Afternoon                                                                                               150                                
PROFAMCHA011001111050111100000010Preschool Line-Up -14- DUCKTALES/HOZE/LULU                                                                                  150                                
PROFAMCHA011001111100111108000008CC Is Brought To You By - Lark **DNU AFTER 09/22**                                                                          150                                
PGRFAMCHA011001111108113354002246Disney's DuckTales                                The Golden Fleecing                                                 A6068607ECC                              
ID FAMCHA011001113354113359000005Astral 40th Anniversary Logo                                                                                                150                                
ID FAMCHA011001113359113404000005Generic ID - Bubbles*                                                                                                       150                                
PROFAMCHA011001113404113424000020Hoze Houndz (AUG2001) - Coming Up                                                                                           150                                
PROFAMCHA011001113424113439000015Out of the Box - Today @ 2:45pm                                                                                             150                                
PRCFAMCHA011001113439113450000011Elmo's World Bumper - Tricycle - This Afternoon                                                                             150                                
PROFAMCHA011001113450113500000010Preschool Line-Up -15- HOZE/LULU/FRANKLIN                                                                                   150                                
PROFAMCHA011001113500113508000008CC Is Brought To You By - Ian **DNU AFTER 09/22**                                                                           150                                
PGRFAMCHA011001113508115743002235Hoze Houndz                                       One Big Squirt/Love Potion                                    B34008 1065607ECC                              
ID FAMCHA011001115743115758000015Generic ID - confetti                                                                                                       150                                
PROFAMCHA011001115758115804000006Little Lulu (AUG2001) - Lulu - Coming Up                                                                                    150                                
PROFAMCHA011001115804115821000017Katie and Orbie (NEW EPS) - Today @ 1:55pm                                                                                  150                                
PROFAMCHA011001115821115836000015Out of the Box - Today @ 2:45pm                                                                                             150                                
PRCFAMCHA011001115836115850000014Franklin (AUG2001) - Leaf - Today @ 12:20pm                                                                                 150                                
PROFAMCHA011001115850115900000010Preschool Line-Up -16- LULU/FRANKLIN/ELMO                                                                                   150                                
PROFAMCHA011001115900115908000008CC Is Brought To You By - Lark **DNU AFTER 09/22**                                                                          150                                
PGRFAMCHA011001115908122244002336Little Lulu Show; The                             The Unnatural, The People's Choice, SuperLulu                 B20203A1065607ECC                              
ID FAMCHA011001122244122249000005Astral 40th Anniversary Logo                                                                                                150                                
ID FAMCHA011001122249122256000007Generic ID - Whisper*                                                                                                       150                                
PRCFAMCHA011001122256122310000014Franklin (AUG2001) - Leaf - Coming Up                                                                                       150                                
PRCFAMCHA011001122310122321000011Elmo's World Bumper - Tricycle - This Afternoon                                                                             150                                
PROFAMCHA011001122321122330000009PB&J Otter (AUG2001) - Open - Today @ 1:30pm                                                                                150                                
PROFAMCHA011001122330122350000020Book of Pooh - This Afternoon                                                                                               150                                
PROFAMCHA011001122350122400000010Preschool Line-Up -17- FRANKLIN/ELMO/BOP                                                                                    150                                
PROFAMCHA011001122400122408000008CC Is Brought To You By - Ian **DNU AFTER 09/22**                                                                           150                                
PGRFAMCHA011001122408124701002253Franklin                                          Franklin Wants A Pet/Franklin Plays The Game                  B10180A1025607ECC                              
ID FAMCHA011001124701124706000005Generic ID - Couch 1*                                                                                                       150                                
PRCFAMCHA011001124706124717000011Elmo's World Bumper - Tricycle - Coming Up                                                                                  150                                
PROFAMCHA011001124717124737000020Book of Pooh - This Afternoon                                                                                               150                                
PRCFAMCHA011001124737124751000014Franklin (AUG2001) - Leaf - Weekdays @ 7:30am                                                                               150                                
PROFAMCHA011001124751124801000010Preschool Line-Up -18- ELMO/BOP/PB&J                                                                                        150                                
PGRFAMCHA011001124801130235001434Elmo's World                                      Pets                                                                A2068607G                                
ID FAMCHA011001130235130240000005Astral 40th Anniversary Logo                                                                                                150                                
ID FAMCHA011001130240130245000005Generic ID - Couch 2*                                                                                                       150                                
PROFAMCHA011001130245130305000020Book of Pooh - Coming Up                                                                                                    150                                
PROFAMCHA011001130305130314000009PB&J Otter (AUG2001) - Open - Today @ 1:30pm                                                                                150                                
INTFAMCHA011001130314130624000310Art Attack - Digger                                                                                                    60686120                                
PROFAMCHA011001130624130641000017Katie and Orbie (NEW EPS) - Today @ 1:55pm                                                                                  150                                
PROFAMCHA011001130641130651000010Preschool Line-Up -19- BOP/PB&J/KATIE                                                                                       150                                
ID FAMCHA011001130651130701000010xxMagic of Disney - V3(water) - TEEN MALE                                                                                   150                                
PGRFAMCHA011001130701133103002402Book Of Pooh; The                                 Take Me To What River/My Gloomy Valentine                            6068607G                                
ID FAMCHA011001133103133113000010Generic ID - Family w/dog                                                                                                   150                                
PROFAMCHA011001133113133120000007PB&J Otter (AUG2001) - Kite - Coming Up                                                                                     150                                
PROFAMCHA011001133120133150000030Pepper Ann (MARCH2001) - Today @ 4:30pm                                                                                     150                                
PROFAMCHA011001133150133200000010Preschool Line-Up -20- PB&J/KATIE/WTP                                                                                       150                                
PROFAMCHA011001133200133208000008CC Is Brought To You By - Lark **DNU AFTER 09/22**                                                                          150                                
PGRFAMCHA011001133208135430002222PB&J Otter                                        Invitation To The Snooties/Too Hot For Fishsicles                   A6068607ECC                              
ID FAMCHA011001135430135435000005Astral 40th Anniversary Logo                                                                                                150                                
ID FAMCHA011001135435135440000005Generic ID - Fingerpaint                                                                                                    150                                
PROFAMCHA011001135440135457000017Katie and Orbie (NEW EPS) - Coming Up                                                                                       150                                
PROFAMCHA011001135457135509000012New Adv of WTP (AUG2001) - Blustery - Today @ 2:25                                                                          150                                
INTFAMCHA011001135509135635000126Mix Ups - Birthday Befuddle                                                                                            60688120                                
PROFAMCHA011001135635135650000015Out of the Box - Today @ 2:45pm                                                                                             150                                
PROFAMCHA011001135650135700000010Preschool Line-Up -21- KATIE/WTP/OOTB                                                                                       150                                
PROFAMCHA011001135700135708000008CC Is Brought To You By - Ian **DNU AFTER 09/22**                                                                           150                                
PGRFAMCHA011001135708142346002638Katie And Orbie                                   Mrs Parette's Necklace/Orbie and the Pumpkin Seed/            C19664A1015607ECC3                             
ID FAMCHA011001142346142356000010Generic ID - Hula Hoop                                                                                                      150                                
PROFAMCHA011001142356142411000015New Adv of WTP (AUG2001) - Poem - Coming Up                                                                                 150                                
PROFAMCHA011001142411142439000028Art Attack (SCOTSMAN) - Weekdays @ 8am                                                                                      150                                
PROFAMCHA011001142439142449000010Preschool Line-Up -22- WTP/OOTB/DUCKTALES                                                                                   150                                
ID FAMCHA011001142449142459000010xxMagic of Disney - V4 - TEEN FEMALE                                                                                        150                                
PROFAMCHA011001142459142508000009CC Is Brought To You By - Lark                                                                                              150                                
PGRFAMCHA011001142508144828002320New Adventures of Winnie the Pooh; The            Party Poohper/Old Switcheroo                                         6068607ECC                              
ID FAMCHA011001144828144833000005Astral 40th Anniversary Logo                                                                                                150                                
ID FAMCHA011001144833144838000005Generic ID - Marbles                                                                                                        150                                
PROFAMCHA011001144838144853000015Out of the Box - Coming Up                                                                                                  150                                
PROFAMCHA011001144853144903000010Preschool Line-Up -23- OOTB/DUCKTALES/HOZE                                                                                  150                                
PGRFAMCHA011001144903151123002220Out of the Box                                    Hats Off                                                             60686110                                
ID FAMCHA011001151123151133000010Generic ID - Pink inner tube                                                                                                150                                
PROFAMCHA011001151133151220000047DuckTales (AUG2001) - Coming Up                                                                                             150                                
PROFAMCHA011001151220151250000030Pepper Ann (MARCH2001) - Today @ 4:30pm                                                                                     150                                
PROFAMCHA011001151250151300000010Preschool Line-Up -24- DUCKTALES/HOZE/D12                                                                                   150                                
PROFAMCHA011001151300151308000008CC Is Brought To You By - Ian **DNU AFTER 09/22**                                                                           150                                
PGRFAMCHA011001151308153523002215Disney's DuckTales                                Ducks Of The West                                                   A6068607ECC                              
ID FAMCHA011001153523153528000005Astral 40th Anniversary Logo                                                                                                150                                
ID FAMCHA011001153528153533000005Generic ID - Bubbles*                                                                                                       150                                
PROFAMCHA011001153533153553000020Hoze Houndz (AUG2001) - Coming Up                                                                                           150                                
PROFAMCHA011001153553153613000020Disney's One, Too (AUG2001) - Today @ 4pm                                                                                   150                                
PROFAMCHA011001153613153622000009PB&J Otter (AUG2001) - Open - Weekdays @ 9:30am                                                                             150                                
PROFAMCHA011001153622153650000028Art Attack (SCOTSMAN) - Weekdays @ 8am                                                                                      150                                
PROFAMCHA011001153650153700000010Preschool Line-Up -25- HOZE/D12                                                                                             150                                
PROFAMCHA011001153700153708000008CC Is Brought To You By - Lark **DNU AFTER 09/22**                                                                          150                                
PGRFAMCHA011001153708155943002235Hoze Houndz                                       Club Fever/Blaze of Glory                                     B34009 1065607ECC                              
ID FAMCHA011001155943155950000007Generic ID - Whisper*                                                                                                       150                                
ID FAMCHA011001155950160000000010xxMagic of Disney - V4 - TEEN MALE                                                                                          150                                
PROFAMCHA011001160000160030000030Disney's One Too - Opening                                                                                                  150                                
PROFAMCHA011001160030160038000008CC Is Brought To You By - Games                                                                                             150                                
PGRFAMCHA011001160038162231002153Disney/Pixar's Buzz Lightyear of Star Command     Down Loaded                                                          6068607ECC                              
ID FAMCHA011001162231162236000005Generic ID - soccer **DO NOT USE**                                                                                          150                                
PROFAMCHA011001162236162306000030Even Stevens (AUG2001) - Tonight @ 6pm                                                                                      150                                
PROFAMCHA011001162306162336000030Pepper Ann (MARCH2001) - Coming Up                                                                                          150                                
PROFAMCHA011001162336162406000030Disney Promo (D12 only) - TARZAN - Learning The Wa                                                                          150                                
INTFAMCHA011001162406162419000013Toy Story Treats - Buzz Box #1                                                                                         60686120                                
PROFAMCHA011001162419162434000015Spy Kids Video Contest                                                                                                      150                                
INTFAMCHA011001162434162900000426MV Disney - Love Will Find A Way (KENNY LATIMORE/H                                                                     60688120                                
INTFAMCHA011001162900162913000013Toy Story Treats - Remote Control                                                                                      60686120                                
PROFAMCHA011001162913162933000020Weekenders (D12/WEEKENDS) - Weekends @ 4:35pm                                                                               150                                
PRCFAMCHA011001162933162945000012Morning Block menu background (flex time)                                                                                   150                                
ID FAMCHA011001162945163000000015Afternoon block pinball open **DO NOT USE**                                                                                 150                                
PROFAMCHA011001163000163030000030Disney's One Too - Opening                                                                                                  150                                
PROFAMCHA011001163030163038000008CC Is Brought To You By - Click Club                                                                                        150                                
PGRFAMCHA011001163038165328002250Disney's Pepper Ann                               Cocoon Gables/Green Eyed Monster                                     6068607ECC                              
ID FAMCHA011001165328165333000005Generic ID - Marbles                                                                                                        150                                
PROFAMCHA011001165333165403000030Nightmare Ned (DR JECKLE) - Tomorrow @ 7am                                                                                  150                                
PROFAMCHA011001165403165433000030Legend of Tarzan -2- THEME SONG - Coming Up                                                                                 150                                
PROFAMCHA011001165433165503000030Disney Promo (D12 only) - BUZZ - Name You Can Coun                                                                          150                                
PROFAMCHA011001165503165533000030Raw Toonage (AUG2001) - Wednesday @ 7am                                                                                     150                                
INTFAMCHA011001165533165655000122Disney Dinner Time(07)- King Tut (D12 only)                                                                            60686120                                
PROFAMCHA011001165655165725000030Even Stevens (AUG2001) - Tonight @ 6pm                                                                                      150                                
INTFAMCHA011001165725165911000146Disney Magic Shop(05)- Fantastic Fruit Prediction                                                                      60686120                                
PROFAMCHA011001165911165926000015Disney Promo (D12 only) - RECESS - Set Your Clocks                                                                          150                                
PROFAMCHA011001165926165946000020Disney's One, Too (AUG2001) - You're Watching                                                                               150                                
ID FAMCHA011001165946170001000015Afternoon block pinball open **DO NOT USE**                                                                                 150                                
PROFAMCHA011001170001170031000030Disney's One Too - Opening                                                                                                  150                                
PGRFAMCHA011001170031172315002244Disney's The Legend of Tarzan                     All-Seeing Elephant                                                 A6028607E                                
ID FAMCHA011001172315172325000010Generic ID - Bubbles                                                                                                        150                                
PROFAMCHA011001172325172345000020Disney's One, Too (AUG2001) - You're Watching                                                                               150                                
INTFAMCHA011001172345172406000021Recess Sketches - Kindergartner's Surprise - Kitty                                                                     60686120                                
PROFAMCHA011001172406172426000020Disney Promo (D12 only) - TARZAN - Learning The Wa                                                                          150                                
PROFAMCHA011001172426172456000030Weekenders (D12/WEEKENDS) - Weekends @ 4:35pm                                                                               150                                
INTFAMCHA011001172456172737000241MV Disney - Baby Mine (MICHAEL CRAWFORD)                                                                               60688120                                
INTFAMCHA011001172737172758000021Recess Sketches - Mickey's World Record - Grape To                                                                     60686120                                
PROFAMCHA011001172758172813000015Spy Kids Video Contest                                                                                                      150                                
PROFAMCHA011001172813172843000030Lizzie McGuire (AUG2001) - Friday @ 7am                                                                                     150                                
INTFAMCHA011001172843172904000021Recess Sketches - TJ's Dream day off - Blizard                                                                         60686120                                
PROFAMCHA011001172904172934000030Shnookums & Meat (AUG2001) - Thursday @ 7am                                                                                 150                                
PRCFAMCHA011001172934172945000011Morning Block menu background (flex time)                                                                                   150                                
ID FAMCHA011001172945173000000015Afternoon block pinball open **DO NOT USE**                                                                                 150                                
PROFAMCHA011001173000173030000030Disney's One Too - Opening                                                                                                  150                                
PGRFAMCHA011001173030175305002235Disney's Recess                                   Dodgeball City/Space Cadet                                           6068607E                                
ID FAMCHA011001175305175310000005Astral 40th Anniversary Logo                                                                                                150                                
ID FAMCHA011001175310175315000005Generic ID - Bubbles*                                                                                                       150                                
PRCFAMCHA011001175315175345000030Famous Jett Jackson (NEW) - Tonight @ 7pm                                                                                   150                                
PROFAMCHA011001175345175415000030Even Stevens (AUG2001) - Coming Up                                                                                          150                                
PROFAMCHA011001175415175439000024Honey, I Shrunk the Kids (AUG2001) - Tonight @ 8pm                                                                          150                                
INTFAMCHA011001175439175913000434MV Disney - A Dream Is A Wish Your Heart Makes (LI                                                                     60688120                                
PRCFAMCHA011001175913175941000028Are You Afraid...Dark? (45MIN) - Tonight @ 8:45pm                                                                           150                                
PRCFAMCHA011001175941175950000009Morning Block menu background (flex time)                                                                                   150                                
ID FAMCHA011001175950180000000010xxMagic of Disney - V2(sky) - TEEN FEMALE                                                                                   150                                
PROFAMCHA011001180000180008000008CC Is Brought To You By - Games                                                                                             150                                
PGRFAMCHA011001180008182250002242Even Stevens                                      Luscious Lou                                                        A6068807BCC                              
ID FAMCHA011001182250182305000015Generic ID - confetti                                                                                                       150                                
PROFAMCHA011001182305182350000045Batman (OCT05) - Premieres Friday @ 9:00pm                                                                                  150                                
PROFAMCHA011001182350182414000024Honey, I Shrunk the Kids (AUG2001) - Tonight @ 8pm                                                                          150                                
PROFAMCHA011001182414182429000015Spy Kids Video Contest                                                                                                      150                                
INTFAMCHA011001182429182851000422MV Disney - True To Your Heart (98 DEGREES/STEVIE                                                                      60688120                                
PROFAMCHA011001182851182911000020Disney's One, Too (AUG2001) - Weekdays @ 4pm                                                                                150                                
PRCFAMCHA011001182911182939000028Are You Afraid...Dark? (45MIN) - Tonight @ 8:45pm                                                                           150                                
PRCFAMCHA011001182939182950000011Morning Block menu background (flex time)                                                                                   150                                
ID FAMCHA011001182950183000000010xxMagic of Disney - V2(sky) - TEEN MALE                                                                                     150                                
PROFAMCHA011001183000183008000008CC Is Brought To You By - Click Club                                                                                        150                                
PGRFAMCHA011001183008185239002231Jersey; The                                       Batgirl                                                              6068607ACC                              
ID FAMCHA011001185239185244000005Astral 40th Anniversary Logo                                                                                                150                                
ID FAMCHA011001185244185251000007Generic ID - Whisper*                                                                                                       150                                
PRCFAMCHA011001185251185319000028Are You Afraid...Dark? (45MIN) - Tonight @ 8:45pm                                                                           150                                
PRCFAMCHA011001185319185349000030Famous Jett Jackson (NEW) - Coming Up                                                                                       150                                
PROFAMCHA011001185349185419000030Nightmare Ned (DR JECKLE) - Tomorrow @ 7am                                                                                  150                                
INTFAMCHA011001185419185839000420MV Disney - Someday (ALL 4 ONE)                                                                                        60688120                                
ID FAMCHA011001185839185854000015Click Club - JULY 13 TO OCTOBER 12                                                                                          150                                
PROFAMCHA011001185854185928000034Morning Madness (7AM BLOCK) - Weekday Mornings @ 7                                                                          150                                
PRCFAMCHA011001185928185939000011Morning Block menu background (flex time)                                                                                   150                                
ID FAMCHA011001185939190000000021Prime time open count down                                                                                                  150                                
PROFAMCHA011001190000190008000008CC Is Brought To You By - Games                                                                                             150                                
PGRFAMCHA011001190008192438002430Famous Jett Jackson; The                          Battle of Wilstead                                            B57175 1065607ACC                              
ID FAMCHA011001192438192443000005Generic ID - Couch 1*                                                                                                       150                                
PROFAMCHA011001192443192528000045Batman (OCT05) - Premieres Friday @ 9:00pm                                                                                  150                                
PROFAMCHA011001192528192543000015Spy Kids Video Contest                                                                                                      150                                
INTFAMCHA011001192543192901000318MV Disney - If You Wanna Dance (NOBODY'S ANGEL)                                                                        60688120                                
PROFAMCHA011001192901192910000009MV Web Throw - family.ca                                                                                                    150                                
PROFAMCHA011001192910192940000030Even Stevens (AUG2001) - Tomorrow @ 6pm                                                                                     150                                
ID FAMCHA011001192940193001000021Prime time open count down                                                                                                  150                                
PROFAMCHA011001193001193008000007CC Is Brought To You By - Click Club                                                                                        150                                
PGRFAMCHA011001193008195136002128ALF                                               Don't It Make My Brown Eyes Blue                                    A2068807B                                
ID FAMCHA011001195136195141000005Astral 40th Anniversary Logo                                                                                                150                                
ID FAMCHA011001195141195156000015Generic ID - confetti                                                                                                       150                                
PROFAMCHA011001195156195241000045Batman (OCT05) - Premieres Friday @ 9:00pm                                                                                  150                                
PROFAMCHA011001195241195305000024Honey, I Shrunk the Kids (AUG2001) - Coming Up                                                                              150                                
PROFAMCHA011001195305195315000010MV FAMJAM - Teaser (Generic)                                                                                                150                                
PROFAMCHA011001195315195330000015Spy Kids Video Contest                                                                                                      150                                
INTFAMCHA011001195330195753000423xMV - This I Promise You                                                                                              A20688120                                
PROFAMCHA011001195753195759000006MV Web Throw - family.ca                                                                                                    150                                
PROFAMCHA011001195759195823000024Honey, I Shrunk the Kids (AUG2001) - Tomorrow @ 8p                                                                          150                                
PROFAMCHA011001195823195852000029Astral Testimonial #05                                                                                                      150                                
PROFAMCHA011001195852195922000030Nightmare Ned (DR JECKLE) - Tomorrow @ 7am                                                                                  150                                
PRCFAMCHA011001195922195950000028Are You Afraid...Dark? (45MIN) - Weeknights @ 8:45                                                                          150                                
ID FAMCHA011001195950200000000010xxMagic of Disney - V3(water) - ADULT FEMALE                                                                                150                                
PGRFAMCHA011001200000204314004314Disney's Honey, I Shrunk The Kids: The TV Show    It's A Miracle                                                       6068807B                                
ID FAMCHA011001204314204319000005Generic ID - Couch 2*                                                                                                       150                                
PRCFAMCHA011001204319204347000028Are You Afraid...Dark? (45MIN) - Coming Up                                                                                  150                                
PROFAMCHA011001204347204402000015Spy Kids Video Contest                                                                                                      150                                
PROFAMCHA011001204402204409000007MV Web Throw - family.ca                                                                                                    150                                
PROFAMCHA011001204409204439000030Even Stevens (AUG2001) - Tomorrow @ 6pm                                                                                     150                                
ID FAMCHA011001204439204500000021Prime time open count down                                                                                                  150                                
PROFAMCHA011001204500204508000008CC Is Brought To You By - Games                                                                                             150                                
PGRFAMCHA011001204508205904001356Are You Afraid of the Dark?                       Last Dance Pt.2                                               SR0308A1066807ACC                              
ID FAMCHA011001205904205909000005Generic ID - Fingerpaint                                                                                                    150                                
ID FAMCHA011001205909205924000015Click Club - JULY 13 TO OCTOBER 12                                                                                          150                                
PROFAMCHA011001205924205939000015Raw Toonage (CARTOON) - Wednesdays @ 7am                                                                                    150                                
ID FAMCHA011001205939205959000020Move open family size movie                                                                                                 150                                
PROFAMCHA011001205959210008000009Rating - PG - Ian                                                                                                           150                                
PGRFAMCHA011001210008223757013749Big Business                                                                                                          B6068807D                                
ID FAMCHA011001223757223802000005Generic ID - Marbles                                                                                                        150                                
ID FAMCHA011001223802223822000020Move open family size movie                                                                                                 150                                
PROFAMCHA011001223822223830000008Rating - G - Lark                                                                                                           150                                
PROFAMCHA011001223830223838000008CC Is Brought To You By - Click Club                                                                                        150                                
PGRFAMCHA011001223838001456013618Coming Unglued                                                                                                  B13079A1065807CCC                              
PROFAMCHA011001001456001504000008CC Was Brought To You By - Click Club                                                                                       150                                
ID FAMCHA011001001504001509000005Generic ID - Marbles                                                                                                        150                                
PROFAMCHA011001001509001539000030Nightmare Ned (DR JECKLE) - Tomorrow @ 7am                                                                                  150                                
ID FAMCHA011001001539001600000021Prime time open count down                                                                                                  150                                
PROFAMCHA011001001600001608000008CC Is Brought To You By - Games                                                                                             150                                
PGRFAMCHA011001001608003736002128ALF                                               Don't It Make My Brown Eyes Blue                                    A2068807B                                
ID FAMCHA011001003736003741000005Generic ID - Couch 2*                                                                                                       150                                
PROFAMCHA011001003741003815000034Morning Madness (7AM BLOCK) - Weekday Mornings @ 7                                                                          150                                
PROFAMCHA011001003815003903000048Astral Testimonial #07                                                                                                      150                                
PROFAMCHA011001003903003909000006MV Web Throw - family.ca                                                                                                    150                                
PROFAMCHA011001003909003939000030Even Stevens (AUG2001) - Tomorrow @ 6pm                                                                                     150                                
ID FAMCHA011001003939004000000021Prime time open count down                                                                                                  150                                
PROFAMCHA011001004000004008000008CC Is Brought To You By - Click Club                                                                                        150                                
PGRFAMCHA011001004008010428002420Are You Afraid Of The Dark?                       The Tale of the Virtual Pets                                  SR0307 1066807ACC                              
SO FAMCHA011001010428010440000012Sign Off (oct 1)                                                                                                                                               
OFFFAMCHA011001010440043000032520                                                                                                                                                               
SO FAMCHA011002043000043011000011Sign On (oct 1)                                                                                                                                                
PGRFAMCHA011002043011045415002404Out of the Box                                    Horsing Around                                                      A6068607A                                
ID FAMCHA011002045415045420000005Generic ID - Couch 1*                                                                                                       150                                
PROFAMCHA011002045420045430000010Preschool Line-Up -02- ART/KATIE/DUCKTALES                                                                                  150                                
PGRFAMCHA011002045430051428001958Art Attack                                        1-051                                                                60686110                                
ID FAMCHA011002051428051433000005Generic ID - Couch 1*                                                                                                       150                                
PROFAMCHA011002051433051450000017Katie and Orbie (NEW EPS) - Coming Up                                                                                       150                                
PROFAMCHA011002051450051500000010Preschool Line-Up -03- KATIE/DUCKTALES/LULU                                                                                 150                                
PROFAMCHA011002051500051508000008CC Is Brought To You By - Ian **DNU AFTER 09/22**                                                                           150                                
PGRFAMCHA011002051508054143002635Katie And Orbie                                   The New Baby/Leaky Taps/Orbits                                C12449A1065607ECC                              
ID FAMCHA011002054143054148000005Generic ID - soccer **DO NOT USE**                                                                                          150                                
PROFAMCHA011002054148054214000026DuckTales (CLIP) - Coming Up                                                                                                150                                
PROFAMCHA011002054214054220000006Little Lulu (AUG2001) - Lulu - Today @ 6:05am                                                                               150                                
PROFAMCHA011002054220054240000020Book of Pooh - This Morning                                                                                                 150                                
PRCFAMCHA011002054240054250000010Elmo's World Bumper - Dance - This Morning                                                                                  150                                
PROFAMCHA011002054250054300000010Preschool Line-Up -04- DUCKTALES/LULU/ALF                                                                                   150                                
PROFAMCHA011002054300054308000008CC Is Brought To You By - Lark **DNU AFTER 09/22**                                                                          150                                
PGRFAMCHA011002054308060553002245Disney's DuckTales                                The Mirror Quacked/Take Me Out Of The...                            A6068607ECC                              
ID FAMCHA011002060553060603000010Generic ID - Hula Hoop                                                                                                      150                                
PROFAMCHA011002060603060609000006Little Lulu (AUG2001) - Lulu - Coming Up                                                                                    150                                
PROFAMCHA011002060609060621000012New Adv of WTP (AUG2001) - Blustery - Today @ 10:2                                                                          150                                
PRCFAMCHA011002060621060635000014Franklin (AUG2001) - Leaf - Today @ 7:30am                                                                                  150                                
PROFAMCHA011002060635060650000015Out of the Box - Today @ 10:45am                                                                                            150                                
PROFAMCHA011002060650060700000010Preschool Line-Up -05- LULU/ALF                                                                                             150                                
PROFAMCHA011002060700060708000008CC Is Brought To You By - Ian **DNU AFTER 09/22**                                                                           150                                
PGRFAMCHA011002060708063041002333Little Lulu Show; The                             Tubbie on Ice, Iggie's New Leaf, Dr. X's Xtremely             B20208A1065607ECC                              
ID FAMCHA011002063041063051000010Generic ID - Family w/dog                                                                                                   150                                
PROFAMCHA011002063051063111000020Hoze Houndz (AUG2001) - Today @ 11:35am                                                                                     150                                
PROFAMCHA011002063111063129000018Book of Pooh - This Morning                                                                                                 150                                
PRCFAMCHA011002063129063140000011Morning Block menu background (flex time)                                                                                   150                                
ID FAMCHA011002063140063200000020Morning block open play pen                                                                                                 150                                
PGRFAMCHA011002063200065329002129ALF                                               Jump                                                                A2068807B                                
ID FAMCHA011002065329065339000010Generic ID - Ring around the rosie                                                                                          150                                
PROFAMCHA011002065339065409000030Raw Toonage (AUG2001) - Tomorrow @ 7am                                                                                      150                                
PROFAMCHA011002065409065439000030Nightmare Ned (DR JECKLE) - Coming Up                                                                                       150                                
PROFAMCHA011002065439065509000030Lizzie McGuire (AUG2001) - Friday @ 7am                                                                                     150                                
INTFAMCHA011002065509065838000329Art Attack - Fireman                                                                                                   60686120                                
PROFAMCHA011002065838065908000030Shnookums & Meat (AUG2001) - Thursday @ 7am                                                                                 150                                
PROFAMCHA011002065908065928000020Disney's One, Too (AUG2001) - Today @ 4pm                                                                                   150                                
PRCFAMCHA011002065928065940000012Morning Block menu background (flex time)                                                                                   150                                
ID FAMCHA011002065940070000000020Morning block open play pen                                                                                                 150                                
PGRFAMCHA011002070000072235002235Nightmare Ned                                     Girl Trouble/Canadian Bacon                                         A6028607ECC                              
ID FAMCHA011002072235072245000010Generic ID - soccer **DO NOT USE**                                                                                          150                                
PROFAMCHA011002072245072259000014Art Attack (ART) - Today @ 8am                                                                                              150                                
PRCFAMCHA011002072259072307000008Franklin (AUG2001) - Slide - Coming Up                                                                                      150                                
INTFAMCHA011002072307072548000241MV Disney - Baby Mine (MICHAEL CRAWFORD)                                                                               60688120                                
PROFAMCHA011002072548072608000020Hoze Houndz (AUG2001) - Today @ 11:35am                                                                                     150                                
INTFAMCHA011002072608072903000255Art Attack - Skateboarder                                                                                              60686120                                
PROFAMCHA011002072903072915000012New Adv of WTP (AUG2001) - Blustery - Today @ 10:2                                                                          150                                
PROFAMCHA011002072915072930000015Out of the Box - Today @ 10:45am                                                                                            150                                
PRCFAMCHA011002072930072940000010Morning Block menu background (flex time)                                                                                   150                                
ID FAMCHA011002072940073000000020Morning block open play pen                                                                                                 150                                
PROFAMCHA011002073000073008000008CC Is Brought To You By - Ian **DNU AFTER 09/22**                                                                           150                                
PGRFAMCHA011002073008075301002253Franklin                                          Robot/The Detective                                           B38156A1065607ECC                              
ID FAMCHA011002075301075311000010Generic ID - Hula Hoop                                                                                                      150                                
PROFAMCHA011002075311075339000028Art Attack (SCOTSMAN) - Coming Up                                                                                           150                                
INTFAMCHA011002075339075441000102Disney Moments-Steamboat Willie-Mickey Steers Boat                                                                     60688120                                
PROFAMCHA011002075441075501000020Book of Pooh - This Morning                                                                                                 150                                
INTFAMCHA011002075501075935000434Art Attack - Army Surplus Helicopter                                                                                   60686120                                
PROFAMCHA011002075935075950000015Out of the Box - Today @ 10:45am                                                                                            150                                
PROFAMCHA011002075950080000000010Preschool Line-Up -06- ART/LULU/ELMO                                                                                        150                                
PGRFAMCHA011002080000081654001654Art Attack                                        1-153                                                               A60286110                                
ID FAMCHA011002081654081659000005Astral 40th Anniversary Logo                                                                                                150                                
ID FAMCHA011002081659081704000005Generic ID - soccer **DO NOT USE**                                                                                          150                                
PROFAMCHA011002081704081710000006Little Lulu (AUG2001) - Lulu - Coming Up                                                                                    150                                
PRCFAMCHA011002081710081721000011Elmo's World Bumper - Tricycle - This Morning                                                                               150                                
INTFAMCHA011002081721082050000329Art Attack - 2 Swans                                                                                                   60686120                                
PROFAMCHA011002082050082100000010Preschool Line-Up -07- LULU/ELMO/BOP                                                                                        150                                
PROFAMCHA011002082100082108000008CC Is Brought To You By - Lark **DNU AFTER 09/22**                                                                          150                                
PGRFAMCHA011002082108084440002332Little Lulu Show; The                             Infomercial, Tubby Kicks the Habit, Infomercial               B20204A1065607ECC                              
ID FAMCHA011002084440084445000005Generic ID - Fingerpaint                                                                                                    150                                
PRCFAMCHA011002084445084455000010Elmo's World Bumper - Dance - Coming Up                                                                                     150                                
PROFAMCHA011002084455084510000015Out of the Box - Today @ 10:45am                                                                                            150                                
PROFAMCHA011002084510084530000020Hoze Houndz (AUG2001) - Today @ 11:35am                                                                                     150                                
PROFAMCHA011002084530084550000020Book of Pooh - This Morning                                                                                                 150                                
PROFAMCHA011002084550084600000010Preschool Line-Up -08- ELMO/BOP/PB&J                                                                                        150                                
PGRFAMCHA011002084600090133001533Elmo's World                                      Teeth                                                               A2068607G                                
ID FAMCHA011002090133090138000005Astral 40th Anniversary Logo                                                                                                150                                
ID FAMCHA011002090138090148000010Generic ID - Family w/dog                                                                                                   150                                
PROFAMCHA011002090148090206000018Book of Pooh - Coming Up                                                                                                    150                                
PROFAMCHA011002090206090223000017Katie and Orbie (NEW EPS) - Today @ 9:55am                                                                                  150                                
INTFAMCHA011002090223090423000200MV Disney - I'm Gonna Fly                                                                                              60688120                                
PRCFAMCHA011002090423090431000008Franklin (AUG2001) - Slide - Today @ 12:20pm                                                                                150                                
PROFAMCHA011002090431090440000009PB&J Otter (AUG2001) - Open - Today @ 9:30am                                                                                150                                
PROFAMCHA011002090440090450000010Preschool Line-Up -09- BOP/PB&J/KATIE                                                                                       150                                
ID FAMCHA011002090450090500000010xxMagic of Disney - V3(water) - KID FEMALE                                                                                  150                                
PGRFAMCHA011002090500092902002402Book Of Pooh; The                                 The Words Are Out/Brain Drain                                        6068607G                                
ID FAMCHA011002092902092907000005Astral 40th Anniversary Logo                                                                                                150                                
ID FAMCHA011002092907092912000005Generic ID - Marbles                                                                                                        150                                
PROFAMCHA011002092912092919000007PB&J Otter (AUG2001) - Kite - Coming Up                                                                                     150                                
PRCFAMCHA011002092919092933000014Franklin (AUG2001) - Leaf - Today @ 12:20pm                                                                                 150                                
PROFAMCHA011002092933092950000017Katie and Orbie (NEW EPS) - Today @ 9:55am                                                                                  150                                
PROFAMCHA011002092950093000000010Preschool Line-Up -10- PB&J/KATIE/WTP                                                                                       150                                
PROFAMCHA011002093000093007000007CC Is Brought To You By - Lark                                                                                              150                                
PGRFAMCHA011002093007095230002223PB&J Otter                                        Otter In The Water/All Popped Out                                   A6068607ECC                              
ID FAMCHA011002095230095240000010Generic ID - Family w/dog                                                                                                   150                                
PROFAMCHA011002095240095257000017Katie and Orbie (NEW EPS) - Coming Up                                                                                       150                                
PROFAMCHA011002095257095309000012New Adv of WTP (AUG2001) - Blustery - Today @ 10:2                                                                          150                                
INTFAMCHA011002095309095435000126Mix Ups - Birthday Befuddle                                                                                            60688120                                
PROFAMCHA011002095435095450000015Out of the Box - Today @ 10:45am                                                                                            150                                
PROFAMCHA011002095450095500000010Preschool Line-Up -11- KATIE/WTP/OOTB                                                                                       150                                
PROFAMCHA011002095500095508000008CC Is Brought To You By - Ian **DNU AFTER 09/22**                                                                           150                                
PGRFAMCHA011002095508102146002638Katie And Orbie                                   Chill/Christian/Seventh Wave                                  C19664A1015607ECC3                             
ID FAMCHA011002102146102153000007Generic ID - Whisper*                                                                                                       150                                
PROFAMCHA011002102153102205000012New Adv of WTP (AUG2001) - Blustery - Coming Up                                                                             150                                
PROFAMCHA011002102205102220000015Out of the Box - Today @ 10:45am                                                                                            150                                
PROFAMCHA011002102220102240000020Hoze Houndz (AUG2001) - Today @ 11:35am                                                                                     150                                
PROFAMCHA011002102240102250000010Preschool Line-Up -12- WTP/OOTB/DUCKTALES                                                                                   150                                
ID FAMCHA011002102250102300000010xxMagic of Disney - V2(sky) - KID MALE                                                                                      150                                
PROFAMCHA011002102300102308000008CC Is Brought To You By - Lark **DNU AFTER 09/22**                                                                          150                                
PGRFAMCHA011002102308104627002319New Adventures of Winnie the Pooh; The            Me and My Shadow/To Catch a Hiccup                                   6068607ECC                              
ID FAMCHA011002104627104632000005Astral 40th Anniversary Logo                                                                                                150                                
PROFAMCHA011002104632104650000018Book of Pooh - This Afternoon                                                                                               150                                
PROFAMCHA011002104650104700000010Preschool Line-Up -13- OOTB/DUCKTALES/HOZE                                                                                  150                                
PROFAMCHA011002104700104708000008CC Is Brought To You By - Ian **DNU AFTER 09/22**                                                                           150                                
PGRFAMCHA011002104708110911002203Out of the Box                                    Sticky Icky                                                          60686110CC                              
ID FAMCHA011002110911110926000015Generic ID - confetti                                                                                                       150                                
PROFAMCHA011002110926111013000047DuckTales (AUG2001) - Coming Up                                                                                             150                                
PRCFAMCHA011002111013111027000014Franklin (AUG2001) - Leaf - Today @ 12:20pm                                                                                 150                                
PROFAMCHA011002111027111039000012New Adv of WTP (AUG2001) - Blustery - Today @ 2:25                                                                          150                                
PRCFAMCHA011002111039111050000011Elmo's World Bumper - Tricycle - This Afternoon                                                                             150                                
PROFAMCHA011002111050111100000010Preschool Line-Up -14- DUCKTALES/HOZE/LULU                                                                                  150                                
PROFAMCHA011002111100111108000008CC Is Brought To You By - Lark **DNU AFTER 09/22**                                                                          150                                
PGRFAMCHA011002111108113352002244Disney's DuckTales                                Time Teasers                                                        A6068607ECC                              
ID FAMCHA011002113352113357000005Astral 40th Anniversary Logo                                                                                                150                                
ID FAMCHA011002113357113402000005Generic ID - Couch 1*                                                                                                       150                                
PROFAMCHA011002113402113422000020Hoze Houndz (AUG2001) - Coming Up                                                                                           150                                
PRCFAMCHA011002113422113436000014Franklin (AUG2001) - Leaf - Today @ 12:20pm                                                                                 150                                
PROFAMCHA011002113436113450000014Art Attack (ART) - Weekdays @ 8am                                                                                           150                                
PROFAMCHA011002113450113500000010Preschool Line-Up -15- HOZE/LULU/FRANKLIN                                                                                   150                                
PROFAMCHA011002113500113508000008CC Is Brought To You By - Ian **DNU AFTER 09/22**                                                                           150                                
PGRFAMCHA011002113508115743002235Hoze Houndz                                       Brainwash/Money For Nuthin'                                   B34010 1065607ECC                              
ID FAMCHA011002115743115748000005Generic ID - Couch 2*                                                                                                       150                                
PROFAMCHA011002115748115754000006Little Lulu (AUG2001) - Lulu - Coming Up                                                                                    150                                
ID FAMCHA011002115754115803000009Silly Stories Teaser - Female                                                                                               150                                
PRCFAMCHA011002115803115811000008Franklin (AUG2001) - Slide - Today @ 12:20pm                                                                                150                                
ID FAMCHA011002115811115850000039Silly Stories - What's a Bathroom?                                                                                          150                                
PROFAMCHA011002115850115900000010Preschool Line-Up -16- LULU/FRANKLIN/ELMO                                                                                   150                                
PROFAMCHA011002115900115908000008CC Is Brought To You By - Lark **DNU AFTER 09/22**                                                                          150                                
PGRFAMCHA011002115908122245002337Little Lulu Show; The                             Telethon of Fallen Stars, Bulldozer Blues, What's             B20205A1065607ECC                              
ID FAMCHA011002122245122250000005Astral 40th Anniversary Logo                                                                                                150                                
ID FAMCHA011002122250122300000010Generic ID - Hula Hoop                                                                                                      150                                
PRCFAMCHA011002122300122314000014Franklin (AUG2001) - Leaf - Coming Up                                                                                       150                                
PRCFAMCHA011002122314122325000011Elmo's World Bumper - Tricycle - This Afternoon                                                                             150                                
PROFAMCHA011002122325122351000026DuckTales (CLIP) - Today @ 3:10pm                                                                                           150                                
PROFAMCHA011002122351122401000010Preschool Line-Up -17- FRANKLIN/ELMO/BOP                                                                                    150                                
PROFAMCHA011002122401122409000008CC Is Brought To You By - Ian **DNU AFTER 09/22**                                                                           150                                
PGRFAMCHA011002122409124702002253Franklin                                          Hurry Up Franklin/Franklin's Bad Day                          B10181A1025607ECC                              
ID FAMCHA011002124702124712000010Generic ID - Family w/dog                                                                                                   150                                
PRCFAMCHA011002124712124722000010Elmo's World Bumper - Dance - Coming Up                                                                                     150                                
PROFAMCHA011002124722124750000028Art Attack (SCOTSMAN) - Weekdays @ 8am                                                                                      150                                
PROFAMCHA011002124750124800000010Preschool Line-Up -18- ELMO/BOP/PB&J                                                                                        150                                
PGRFAMCHA011002124800130311001511Elmo's World                                      Hands                                                               A2068607G                                
ID FAMCHA011002130311130316000005Astral 40th Anniversary Logo                                                                                                150                                
ID FAMCHA011002130316130326000010Generic ID - Hula Hoop                                                                                                      150                                
PROFAMCHA011002130326130344000018Book of Pooh - Coming Up                                                                                                    150                                
PROFAMCHA011002130344130359000015Out of the Box - Today @ 10:45am                                                                                            150                                
INTFAMCHA011002130359130624000225Art Attack - Snooker                                                                                                   60686120                                
PROFAMCHA011002130624130641000017Katie and Orbie (NEW EPS) - Today @ 1:55pm                                                                                  150                                
PROFAMCHA011002130641130651000010Preschool Line-Up -19- BOP/PB&J/KATIE                                                                                       150                                
ID FAMCHA011002130651130701000010xxMagic of Disney - V3(water) - TEEN FEMALE                                                                                 150                                
PGRFAMCHA011002130701133103002402Book Of Pooh; The                                 Pleas and Thank You's/The Rumour Milstone                            6068607G                                
ID FAMCHA011002133103133108000005Generic ID - Couch 1*                                                                                                       150                                
PROFAMCHA011002133108133115000007PB&J Otter (AUG2001) - Kite - Coming Up                                                                                     150                                
PROFAMCHA011002133115133130000015Out of the Box - Today @ 2:45pm                                                                                             150                                
PROFAMCHA011002133130133150000020Hoze Houndz (AUG2001) - Today @ 3:35pm                                                                                      150                                
PROFAMCHA011002133150133200000010Preschool Line-Up -20- PB&J/KATIE/WTP                                                                                       150                                
PROFAMCHA011002133200133208000008CC Is Brought To You By - Lark **DNU AFTER 09/22**                                                                          150                                
PGRFAMCHA011002133208135429002221PB&J Otter                                        Nothin' But The Tooth/Special Delivery                              A6068607ECC                              
ID FAMCHA011002135429135434000005Astral 40th Anniversary Logo                                                                                                150                                
