SO FAMCHA080101043000043011000011Sign On (oct 1)                                                                                                                                                
PRCFAMCHA080101043011043020000009CC Disclaimer - FAST - Family.ca (:09-:10)                                                                                  150                                
PGRFAMCHA080101043020045655002635Katie And Orbie                                   EP: 2-024                                                     C11896A1065607ECC                              
PRCFAMCHA080101045655045709000014PH - 02 - FRANNY/SOMETHING/HOZE (:14 - :16) (SEPT0                                                                          150                                
ID FAMCHA080101045709045719000010PS Playhouse AM Block Open (:10-:15)                                                                                        150                                
PRCFAMCHA080101045719045728000009CC Disclaimer - FAST - Generic (:09-:10)                                                                                    150                                
PGRFAMCHA080101045728051958002230Franny's Feet                                     EPS # 1-011                                                   C23970A1065607ECC                              
PRCFAMCHA080101051958052004000006Astral ID (DEC 2007)                                                                                                        150                                
PRCFAMCHA080101052004052018000014PH - 03 - SOMETHING/HOZE/HENRY'S (:14 - :16) (SEPT                                                                          150                                
ID FAMCHA080101052018052028000010PS Playhouse AM Block Open (:10-:15)                                                                                        150                                
PRCFAMCHA080101052028052037000009CC Disclaimer - FAST - Family.ca (:09-:10)                                                                                  150                                
PGRFAMCHA080101052037054308002231Something Else                                    EP: 1-003                                                     B69257A1065607ECC                              
PRCFAMCHA080101054308054322000014PH - 04 - HOZE/HENRY'S/KING (:14 - :16) (SEPT07)                                                                            150                                
ID FAMCHA080101054322054335000013PS Playhouse AM Block Open (:10-:15)                                                                                        150                                
PRCFAMCHA080101054335054344000009CC Disclaimer - FAST - Generic (:09-:10)                                                                                    150                                
PGRFAMCHA080101054344060622002238Hoze Houndz                                       EP: 4-043                                                     B63379A1065607ECC                              
PRCFAMCHA080101060622060628000006Astral ID (DEC 2007)                                                                                                        150                                
PRCFAMCHA080101060628060642000014PH - 05 - HENRY'S WORLD/KING (:14 - :16) (SEPT07)                                                                           150                                
ID FAMCHA080101060642060654000012PS Playhouse AM Block Open (:10-:15)                                                                                        150                                
PRCFAMCHA080101060654060703000009CC Disclaimer - FAST - Family.ca (:09-:10)                                                                                  150                                
PGRFAMCHA080101060703063105002402Henry's World                                     EP: 1-005                                                     B66547A1065607GCC                              
PRCFAMCHA080101063105063119000014PH - 06 - KING (:14 - :16) (SEPT07)                                                                                         150                                
ID FAMCHA080101063119063132000013PS Playhouse AM Block Open (:10-:15)                                                                                        150                                
PRCFAMCHA080101063132063140000008CC Disclaimer - FAST - Generic (:09-:10)                                                                                    150                                
PGRFAMCHA080101063140065410002230King                                              EP: 4-048                                                     C25350 1065607ECC                              
PRCFAMCHA080101065410065416000006Astral ID (DEC 2007)                                                                                                        150                                
PROFAMCHA080101065416065503000047xxHSM - The Ice Tour Promo #4 B (Dec 31 - Feb 3) $                                                                          150                                
PROFAMCHA080101065503065515000012Family Bumpers - (Phase 1 Spring 04) - Pillow Figh                                                                          150                                
PROFAMCHA080101065515065549000034xxFamily Holiday CD - Available Now (Nov 13 - Jan                                                                           150                                
PROFAMCHA080101065549065608000019MadMadMornings Block Open                                                                                                   150                                
PRCFAMCHA080101065608065616000008CC Disclaimer - FAST - Family.ca (:09-:10)                                                                                  150                                
PGRFAMCHA080101065616071907002251Disney's Kim Possible                             EP: 1-007                                                           A6068607ECC                              
PROFAMCHA080101071907072002000055xxGnu Gnu Year Stunt - All Day Long  (Jan 1-4) $$$                                                                          150                                
PROFAMCHA080101072002072032000030xxKim Possible EVIL (MD) Coming Up Next (SEPT07)                                                                            150                                
PROFAMCHA080101072032072106000034xxFamily Holiday CD - Available Now (Nov 13 - Jan                                                                           150                                
PROFAMCHA080101072106072151000045xxRecess - SNACKS FOR SNITCHES (MMM) - (MAY06) - T                                                                          150                                
PROFAMCHA080101072151072230000039Weekenders - (MMM) Alternate Universe - This Morni                                                                          150                                
PROFAMCHA080101072230072256000026xxDisney Game of the Week - HSM REVISION (Jan 1-6)                                                                          150                                
PROFAMCHA080101072256072326000030Popcorn Pix - Slapstick - Tonight @ 7:30pm                                                                                  150                                
PRCFAMCHA080101072326072337000011Naturally Sadie ID's - I'm Charlotte, you're watch                                                                          150                                
PROFAMCHA080101072337072356000019MadMadMornings Block Open                                                                                                   150                                
PRCFAMCHA080101072356072404000008CC Disclaimer - FAST - Generic (:09-:10)                                                                                    150                                
PGRFAMCHA080101072404074640002236Disney's Recess                                   EP: 1-051                                                            6068607ECC                              
PRCFAMCHA080101074640074646000006Astral ID (DEC 2007)                                                                                                        150                                
PROFAMCHA080101074646074741000055xxGnu Gnu Year Stunt - Keep Watching (Jan 1 - 4) $                                                                          150                                
PROFAMCHA080101074741074820000039Weekenders - (MMM) Alternate Universe - Coming Up                                                                           150                                
PROFAMCHA080101074820074850000030xxHSM - The Ice Tour Revised Blast without Toronto                                                                          150                                
PROFAMCHA080101074850074902000012Family Bumpers - (Phase 3 Spring 05) - Bake (MD/NS                                                                          150                                
PROFAMCHA080101074902074935000033xxBarbie Pass Spice Girls Contest (Dec 17 - Jan 14                                                                          150                                
PROFAMCHA080101074935075020000045xxRecess - SNACKS FOR SNITCHES (MMM) - (MAY06) - T                                                                          150                                
PROFAMCHA080101075020075035000015Phil of the Future IDs - Aly Flute Spit - I'm Aly                                                                           150                                
PROFAMCHA080101075035075054000019MadMadMornings Block Open                                                                                                   150                                
PRCFAMCHA080101075054075102000008CC Disclaimer - FAST - Family.ca (:09-:10)                                                                                  150                                
PGRFAMCHA080101075102081356002254Disney's The Weekenders                           EP: 1-001                                                           A6068607ECC                              
PROFAMCHA080101081356081451000055xxGnu Gnu Year Stunt - Happy Gnu Year (Jan 1 - 4)                                                                           150                                
PROFAMCHA080101081451081507000016xxKim Possible FINGER TAUNT (MMM) (July 06) Tomorr                                                                          150                                
PROFAMCHA080101081507081533000026xxDisney Game of the Week - HSM REVISION (Jan 1-6)                                                                          150                                
PROFAMCHA080101081533081618000045xxRecess - SNACKS FOR SNITCHES (MMM) - (MAY06) - T                                                                          150                                
PRCFAMCHA080101081618081658000040Magazine Spot (MD,NS,NSW) 2/3 day (not in PH) (til                                                                          150                                
PROFAMCHA080101081658081737000039Weekenders - (MMM) Alternate Universe - Tomorrow M                                                                          150                                
PROFAMCHA080101081737081744000007Aly & A.J. IDs - (A.J.) You're watching Family, NA                                                                          150                                
PROFAMCHA080101081744081803000019MadMadMornings Block Open                                                                                                   150                                
PGRFAMCHA080101081803084056002253Disney's Lloyd In Space                           EP: 11                                                               6068607ECC                              
PRCFAMCHA080101084056084102000006Astral ID (DEC 2007)                                                                                                        150                                
PRCFAMCHA080101084102084118000016PH - 07 - EINSTEINS/FRANNY'S/TIGGER & POOH (:14 -                                                                           150                                
PROFAMCHA080101084118084157000039Little Einstein (PH) LOVE - Coming Up Next (MAY07)                                                                          150                                
PGRFAMCHA080101084157084325000128They Might Be Giants (123's) - One Everything - Co                                                                     60688120                                
PROFAMCHA080101084325084415000050Tigger & Pooh WHAT'S NEW (PH) This Morning @ 9:35a                                                                          150                                
PRCFAMCHA080101084415084445000030xxPost Launch PHD- Kid Sell (PH Only) Post Launch                                                                           150                                
ID FAMCHA080101084445084500000015PS Playhouse AM Block Open (:10-:15)                                                                                        150                                
PGRFAMCHA080101084500090905002405Disney's Little Einsteins                         EP: 19                                                               6068607ECC                              
PRCFAMCHA080101090905090920000015PH - 08 - FRANNY'S/TIGGER & POOH/ CLUB HOUSE (:14                                                                           150                                
PRCFAMCHA080101090920090950000030Franny's Feet - Concept  (APR06)(PH-M/Wknd) - Comi                                                                          150                                
PROFAMCHA080101090950091020000030Tigger & Pooh NEW FRIEND DARBY (PH) This Morning @                                                                          150                                
PROFAMCHA080101091020091041000021xxPHD Promo - PHD 24/7 TV Channel (Dec 10 - till?)                                                                          150                                
ID FAMCHA080101091041091052000011PS Playhouse AM Block Open (:10-:15)                                                                                        150                                
PRCFAMCHA080101091052091101000009CC Disclaimer - FAST - Generic (:09-:10)                                                                                    150                                
PGRFAMCHA080101091101093331002230Franny's Feet                                     EPS # 19                                                      C23971 1065607ECC                              
PRCFAMCHA080101093331093337000006Astral ID (DEC 2007)                                                                                                        150                                
PRCFAMCHA080101093337093351000014PH - 10 - TIGGER & POOH/ CLUB HOUSE/SPRITES (:14 -                                                                          150                                
PROFAMCHA080101093351093441000050Tigger & Pooh WHAT'S NEW (PH) Coming Up Next (SEPT                                                                          150                                
PROFAMCHA080101093441093512000031xxJohnny and the Sprites CRAZY (PH) This Morning @                                                                          150                                
PRCFAMCHA080101093512093531000019xxPlayhouse - HOZE HOUNDZ - Code Blue                                                                                       150                                
PROFAMCHA080101093531093610000039Little Einstein (PH) LOVE - Tomorrow Morning @ 8:4                                                                          150                                
PROFAMCHA080101093610093640000030xxBunnytown (PH) Premieres on PHD January 13 (Dec                                                                           150                                
ID FAMCHA080101093640093651000011PS Playhouse AM Block Open (:10-:15)                                                                                        150                                
PRCFAMCHA080101093651093700000009CC Disclaimer - FAST - Family.ca (:09-:10)                                                                                  150                                
PGRFAMCHA080101093700100101002401Disney My Friends Tigger and Pooh                 EP: 25                                                               6068607ECC                              
PRCFAMCHA080101100101100115000014PH - 13 - CLUB HOUSE/SPRITES/BENJAMIN BEAR (:14 -                                                                           150                                
PROFAMCHA080101100115100145000030Mickey Mouse Clubhouse GENERIC - Coming Up Next                                                                             150                                
PROFAMCHA080101100145100215000030xxJohnny and the Sprites LILY (PH) This Morning @                                                                           150                                
PGRFAMCHA080101100215100328000113They Might Be Giants (123's) - Zeros - Coming Soon                                                                     60688120                                
PROFAMCHA080101100328100349000021xxPHD Promo - PHD 24/7 TV Channel (Dec 10 - till?)                                                                          150                                
ID FAMCHA080101100349100359000010PS Playhouse AM Block Open (:10-:15)                                                                                        150                                
ID FAMCHA080101100359100405000006Magic of Disney - PLAYHOUSE - Shape (:06-:09)                                                                               150                                
PGRFAMCHA080101100405102807002402Disney's Mickey Mouse Clubhouse                   EP: 07                                                               6068607ECC                              
PRCFAMCHA080101102807102813000006Astral ID (DEC 2007)                                                                                                        150                                
PRCFAMCHA080101102813102828000015PH - 16 - SPRITES/BENJAMIN BEAR/KING (:14 - :16) (                                                                          150                                
PROFAMCHA080101102828102859000031xxJohnny and the Sprites CRAZY (PH) Coming Up Next                                                                          150                                
PRCFAMCHA080101102859102930000031King (PH) (APR06) - This Morning @ 11:25am                                                                                  150                                
PRCFAMCHA080101102930102944000014xxPlayhouse - HOZE HOUNDZ - Skater                                                                                          150                                
PROFAMCHA080101102944103040000056xxHandy Mandy TOOLS (PH) Tomorrow Morning @ 10:30a                                                                          150                                
ID FAMCHA080101103040103050000010PS Playhouse AM Block Open (:10-:15)                                                                                        150                                
PRCFAMCHA080101103050103058000008CC Disclaimer - FAST - Family.ca (:09-:10)                                                                                  150                                
PGRFAMCHA080101103058105507002409Disney Johnny and the Sprites                     EP: 06                                                               6068607GCC                              
PRCFAMCHA080101105507105523000016PH - 18 - BENJAMIN BEAR/KING/RECESS (:14 - :16) (S                                                                          150                                
PRCFAMCHA080101105523105535000012Benjamin Bear - Slide (PH-) (APR06) -Coming Up Nex                                                                          150                                
PRCFAMCHA080101105535105606000031King (PH) (APR06) - This Morning @ 11:25am                                                                                  150                                
PRCFAMCHA080101105606105636000030xxPost Launch PHD- Kid Sell (PH Only) Post Launch                                                                           150                                
ID FAMCHA080101105636105651000015PS Playhouse AM Block Open (:10-:15)                                                                                        150                                
PRCFAMCHA080101105651105701000010CC Disclaimer - FAST - Generic (:09-:10)                                                                                    150                                
PGRFAMCHA080101105701111931002230Secret World of Benjamin Bear, The                EP: 21                                                        C26066 1065607ECC                              
PRCFAMCHA080101111931111937000006Astral ID (DEC 2007)                                                                                                        150                                
PRCFAMCHA080101111937111952000015PH - 19 - KING/RECESS/KIM POSSIBLE (:14 - :16) (SE                                                                          150                                
PRCFAMCHA080101111952112023000031King (PH) (APR06) - Coming Up Next                                                                                          150                                
PROFAMCHA080101112023112102000039Little Einstein (PH) LOVE - Tomorrow Morning @ 8:4                                                                          150                                
PROFAMCHA080101112102112132000030Tigger & Pooh NEW FRIEND DARBY (PH) Tomorrow Morni                                                                          150                                
PROFAMCHA080101112132112235000103xxChef Boyardee - Messy Treasures (Dec 26 - Feb 5)                                                                          150                                
PROFAMCHA080101112235112305000030Mickey Mouse Clubhouse GENERIC - Tomorrow Morning                                                                           150                                
PROFAMCHA080101112305112401000056xxHandy Mandy TOOLS (PH) Tomorrow Morning @ 10:30a                                                                          150                                
PROFAMCHA080101112401112431000030xxBunnytown (PH) Premieres on PHD January 13 (Dec                                                                           150                                
ID FAMCHA080101112431112446000015PS Playhouse AM Block Open (:10-:15)                                                                                        150                                
PRCFAMCHA080101112446112456000010CC Disclaimer - FAST - Family.ca (:09-:10)                                                                                  150                                
PGRFAMCHA080101112456114726002230King                                              EPS # 2-024                                                   B75779 1065607ECC                              
PROFAMCHA080101114726114821000055xxGnu Gnu Year Stunt - All Day Long  (Jan 1-4) $$$                                                                          150                                
PRCFAMCHA080101114821114832000011Naturally Sadie ID's - I'm Charlotte, you're watch                                                                          150                                
PROFAMCHA080101114832114850000018Mad Dash Block Open (:16-:18) APR06                                                                                         150                                
PGRFAMCHA080101114850121020002130Flight 29 Down                                    EP: 01                                                               2068807A                                
PRCFAMCHA080101121020121026000006Astral ID (DEC 2007)                                                                                                        150                                
PROFAMCHA080101121026121121000055xxGnu Gnu Year Stunt - Happy Gnu Year (Jan 1 - 4)                                                                           150                                
PRCFAMCHA080101121121121151000030xxFamous Players Popcorn Parties 2 (May 2-Jan 31/0                                                                          150                                
PROFAMCHA080101121151121221000030Popcorn Pix - Slapstick - Tonight @ 7:30pm                                                                                  150                                
PRCFAMCHA080101121221121230000009Naturally Sadie ID's - You're watching Family...NA                                                                          150                                
PROFAMCHA080101121230121251000021xxGnu Gnu Bumpers - Gnu Band (Dec 26 - Jan 4) $$$                                                                           150                                
PGRFAMCHA080101121251123422002131Flight 29 Down                                    EP: 02                                                               2068807A                                
PROFAMCHA080101123422123517000055xxGnu Gnu Year Stunt - Keep Watching (Jan 1 - 4) $                                                                          150                                
PRCFAMCHA080101123517123557000040Magazine Spot (MD,NS,NSW) 2/3 day (not in PH) (til                                                                          150                                
PROFAMCHA080101123557123621000024xxRecess - MONTAGE (MMM) - (JULY06) - Tomorrow @ 7                                                                          150                                
PROFAMCHA080101123621123630000009Raven ID's II - You're Watching Family, NADM                                                                                150                                
PROFAMCHA080101123630123651000021xxGnu Gnu Bumpers - Gnu Friends (Dec 26 - Jan 4) $                                                                          150                                
PGRFAMCHA080101123651125822002131Flight 29 Down                                    EP: 03                                                               2068807A                                
PRCFAMCHA080101125822125828000006Astral ID (DEC 2007)                                                                                                        150                                
PROFAMCHA080101125828125923000055xxGnu Gnu Year Stunt - All Day Long  (Jan 1-4) $$$                                                                          150                                
PROFAMCHA080101125923125944000021xxGnu Gnu Bumpers - Gnu Sport (Dec 26 - Jan 4) $$$                                                                          150                                
PGRFAMCHA080101125944132112002128Flight 29 Down                                    EP: 06                                                               2068807A                                
PROFAMCHA080101132112132207000055xxGnu Gnu Year Stunt - Happy Gnu Year (Jan 1 - 4)                                                                           150                                
PROFAMCHA080101132207132252000045xxRecess - SNACKS FOR SNITCHES (MMM) - (MAY06) - T                                                                          150                                
PROFAMCHA080101132252132322000030Popcorn Pix - Slapstick - Tonight @ 7:30pm                                                                                  150                                
PROFAMCHA080101132322132343000021xxGnu Gnu Bumpers - Gnu Hairstyle (Dec 26 - Jan 4)                                                                          150                                
PGRFAMCHA080101132343134513002130Flight 29 Down                                    EP: 11                                                               2068807A                                
PRCFAMCHA080101134513134519000006Astral ID (DEC 2007)                                                                                                        150                                
PROFAMCHA080101134519134614000055xxGnu Gnu Year Stunt - Keep Watching (Jan 1 - 4) $                                                                          150                                
PRCFAMCHA080101134614134654000040Magazine Spot (MD,NS,NSW) 2/3 day (not in PH) (til                                                                          150                                
PROFAMCHA080101134654134710000016Phil of the Future IDs - Aly Mr. Potato head - fam                                                                          150                                
PROFAMCHA080101134710134731000021xxGnu Gnu Bumpers - Gnu Hobbie (Dec 26 - Jan 4) $$                                                                          150                                
PGRFAMCHA080101134731140904002133Flight 29 Down                                    EP: 13                                                               2068807A                                
PROFAMCHA080101140904140959000055xxGnu Gnu Year Stunt - All Day Long  (Jan 1-4) $$$                                                                          150                                
PRCFAMCHA080101140959141039000040Magazine Spot (MD,NS,NSW) 2/3 day (not in PH) (til                                                                          150                                
PROFAMCHA080101141039141109000030Popcorn Pix - Slapstick - Tonight @ 7:30pm                                                                                  150                                
PROFAMCHA080101141109141130000021xxGnu Gnu Bumpers - Gnu Sport (Dec 26 - Jan 4) $$$                                                                          150                                
PGRFAMCHA080101141130143303002133Flight 29 Down                                    EP: 14                                                               2068807A                                
PRCFAMCHA080101143303143309000006Astral ID (DEC 2007)                                                                                                        150                                
PROFAMCHA080101143309143404000055xxGnu Gnu Year Stunt - Happy Gnu Year (Jan 1 - 4)                                                                           150                                
PRCFAMCHA080101143404143434000030xxFamous Players Popcorn Parties 2 (May 2-Jan 31/0                                                                          150                                
PROFAMCHA080101143434143458000024xxRecess - MONTAGE (MMM) - (JULY06) - Tomorrow @ 7                                                                          150                                
PROFAMCHA080101143458143519000021xxGnu Gnu Bumpers - Gnu Hairstyle (Dec 26 - Jan 4)                                                                          150                                
PGRFAMCHA080101143519145651002132Flight 29 Down                                    EP: 21                                                               2068807A                                
PROFAMCHA080101145651145746000055xxGnu Gnu Year Stunt - All Day Long  (Jan 1-4) $$$                                                                          150                                
PROFAMCHA080101145746145833000047xxHSM - The Ice Tour Promo #4 B (Dec 31 - Feb 3) $                                                                          150                                
PROFAMCHA080101145833145903000030Popcorn Pix - Slapstick - Tonight @ 7:30pm                                                                                  150                                
PROFAMCHA080101145903145943000040xxGnu Gnu Years Celebrity Resolutions - All (Dec 3                                                                          150                                
PROFAMCHA080101145943145950000007Aly & A.J. IDs - (A.J.) You're watching Family, NA                                                                          150                                
PROFAMCHA080101145950150011000021xxGnu Gnu Bumpers - Gnu Band (Dec 26 - Jan 4) $$$                                                                           150                                
PGRFAMCHA080101150011152141002130Flight 29 Down                                    EP: 22                                                               2068807A                                
PRCFAMCHA080101152141152147000006Astral ID (DEC 2007)                                                                                                        150                                
PROFAMCHA080101152147152242000055xxGnu Gnu Year Stunt - Keep Watching (Jan 1 - 4) $                                                                          150                                
PROFAMCHA080101152242152317000035xxVeggie Tales Movie - In Theatres Jan 11 (Dec 29                                                                           150                                
PROFAMCHA080101152317152334000017Kim Possible WHEELS MMM (MAY 07) Tomorrow morning                                                                           150                                
PROFAMCHA080101152334152419000045xxRecess - SNACKS FOR SNITCHES (MMM) - (MAY06) - T                                                                          150                                
PROFAMCHA080101152419152427000008Family Bumpers - (Phase 2 F/W 04) - Snow Ball (MD-                                                                          150                                
PROFAMCHA080101152427152500000033xxBarbie Pass Spice Girls Contest (Dec 17 - Jan 14                                                                          150                                
PROFAMCHA080101152500152539000039Weekenders - (MMM) Alternate Universe - Tomorrow M                                                                          150                                
PROFAMCHA080101152539152600000021xxGnu Gnu Bumpers - Gnu Friends (Dec 26 - Jan 4) $                                                                          150                                
PGRFAMCHA080101152600154731002131Flight 29 Down                                    EP: 23                                                               2068807A                                
PROFAMCHA080101154731154826000055xxGnu Gnu Year Stunt - Keep Watching (Jan 1 - 4) $                                                                          150                                
PROFAMCHA080101154826154842000016xxKim Possible FINGER TAUNT (MMM) (July 06) Tomorr                                                                          150                                
PROFAMCHA080101154842154912000030xxHSM - The Ice Tour Revised Blast without Toronto                                                                          150                                
PROFAMCHA080101154912154957000045xxRecess - SNACKS FOR SNITCHES (MMM) - (MAY06) - T                                                                          150                                
PROFAMCHA080101154957155036000039Weekenders - (MMM) Alternate Universe - Tomorrow M                                                                          150                                
PROFAMCHA080101155036155102000026xxDisney Game of the Week - HSM REVISION (Jan 1-6)                                                                          150                                
PROFAMCHA080101155102155132000030Popcorn Pix - Slapstick - Tonight @ 7:30pm                                                                                  150                                
PROFAMCHA080101155132155153000021xxGnu Gnu Bumpers - Gnu Hairstyle (Dec 26 - Jan 4)                                                                          150                                
PGRFAMCHA080101155153161330002137Flight 29 Down                                    EP: 27                                                               2068807A                                
PRCFAMCHA080101161330161336000006Astral ID (DEC 2007)                                                                                                        150                                
PROFAMCHA080101161336161431000055xxGnu Gnu Year Stunt - Happy Gnu Year (Jan 1 - 4)                                                                           150                                
PROFAMCHA080101161431161518000047xxHSM - The Ice Tour Promo #4 B (Dec 31 - Feb 3) $                                                                          150                                
PRCFAMCHA080101161518161525000007Family Bumpers - (Phase 2 F/W 04) - Hockey (MD-L/M                                                                          150                                
PROFAMCHA080101161525161558000033xxBarbie Pass Spice Girls Contest (Dec 17 - Jan 14                                                                          150                                
PROFAMCHA080101161558161628000030Popcorn Pix - Slapstick - Tonight @ 7:30pm                                                                                  150                                
PROFAMCHA080101161628161649000021xxGnu Gnu Bumpers - Gnu Sport (Dec 26 - Jan 4) $$$                                                                          150                                
PGRFAMCHA080101161649163824002135Flight 29 Down                                    EP: 28                                                               2068807A                                
PROFAMCHA080101163824163919000055xxGnu Gnu Year Stunt - Keep Watching (Jan 1 - 4) $                                                                          150                                
PROFAMCHA080101163919163954000035xxVeggie Tales Movie - In Theatres Jan 11 (Dec 29                                                                           150                                
PROFAMCHA080101163954164011000017Kim Possible WHEELS MMM (MAY 07) Tomorrow morning                                                                           150                                
PROFAMCHA080101164011164023000012Family Bumpers - (Phase 1 Spring 04) - Pillow Figh                                                                          150                                
PROFAMCHA080101164023164051000028xxGnu Gnu Years Celebrity Resolutions - Ashley, Mi                                                                          150                                
PROFAMCHA080101164051164136000045xxRecess - SNACKS FOR SNITCHES (MMM) - (MAY06) - T                                                                          150                                
PROFAMCHA080101164136164206000030xxHSM - The Ice Tour Revised Blast without Toronto                                                                          150                                
PROFAMCHA080101164206164245000039Weekenders - (MMM) Alternate Universe - Tomorrow M                                                                          150                                
PROFAMCHA080101164245164306000021xxGnu Gnu Bumpers - Gnu Hobbie (Dec 26 - Jan 4) $$                                                                          150                                
PGRFAMCHA080101164306170441002135Flight 29 Down                                    EP: 29                                                               2068807A                                
PRCFAMCHA080101170441170447000006Astral ID (DEC 2007)                                                                                                        150                                
PROFAMCHA080101170447170542000055xxGnu Gnu Year Stunt - All Day Long  (Jan 1-4) $$$                                                                          150                                
PROFAMCHA080101170542170638000056xxChef Boyardee - Hamster on the Loose (Dec 26 - F                                                                          150                                
PROFAMCHA080101170638170717000039Weekenders - (MMM) Alternate Universe - Tomorrow M                                                                          150                                
PROFAMCHA080101170717170747000030Popcorn Pix - Slapstick - Tonight @ 7:30pm                                                                                  150                                
PROFAMCHA080101170747170808000021xxGnu Gnu Bumpers - Gnu Sport (Dec 26 - Jan 4) $$$                                                                          150                                
PGRFAMCHA080101170808172943002135Flight 29 Down                                    EP: 30                                                               2068807A                                
PROFAMCHA080101172943173038000055xxGnu Gnu Year Stunt - Happy Gnu Year (Jan 1 - 4)                                                                           150                                
PROFAMCHA080101173038173121000043Cory In The House (NS) Coming Up Next (SEPT07)                                                                              150                                
PROFAMCHA080101173121173224000103xxChef Boyardee - Messy Treasures (Dec 26 - Feb 5)                                                                          150                                
PROFAMCHA080101173224173241000017xxZoey 101 (NS)  ZOEY, ZOEY, ZOEY - Tonight @ 6pm                                                                           150                                
PROFAMCHA080101173241173318000037xxNaturally Sadie - TEENAGE (NS) Tonight @ 6:30 (M                                                                          150                                
PRCFAMCHA080101173318173329000011Naturally Sadie ID's - I'm Charlotte, you're watch                                                                          150                                
PROFAMCHA080101173329173350000021xxGnu Gnu Bumpers - Gnu Band (Dec 26 - Jan 4) $$$                                                                           150                                
PRCFAMCHA080101173350173358000008CC Disclaimer - FAST - Generic (:09-:10)                                                                                    150                                
ID FAMCHA080101173358173407000009Magic of Disney - MAD DASH - Shape (:06-:09)                                                                                150                                
PGRFAMCHA080101173407175639002232Cory in the House Season 2                        EP: 02                                                               6068607BCC                              
PRCFAMCHA080101175639175645000006Astral ID (DEC 2007)                                                                                                        150                                
PROFAMCHA080101175645175740000055xxGnu Gnu Year Stunt - Keep Watching (Jan 1 - 4) $                                                                          150                                
PROFAMCHA080101175740175757000017xxZoey 101 (NS)  ZOEY, ZOEY, ZOEY - Coming Up Next                                                                          150                                
PROFAMCHA080101175757175832000035xxVeggie Tales Movie - In Theatres Jan 11 (Dec 29                                                                           150                                
PROFAMCHA080101175832175839000007Family Bumpers - (Phase 2 F/W 04) - Snow Twirl (MD                                                                          150                                
PROFAMCHA080101175839175912000033xxBarbie Pass Spice Girls Contest (Dec 17 - Jan 14                                                                          150                                
PROFAMCHA080101175912175941000029xxThat's So Raven (APR06) HELLO LADIES (NS) - Toni                                                                          150                                
PROFAMCHA080101175941180002000021xxGnu Gnu Bumpers - Gnu Sport (Dec 26 - Jan 4) $$$                                                                          150                                
PRCFAMCHA080101180002180012000010CC Disclaimer - FAST - Family.ca (:09-:10)                                                                                  150                                
PGRFAMCHA080101180012182343002331Zoey 101                                          EP: 21                                                              A2068807BCC                              
PRCFAMCHA080101182343182354000011NS - 02 - SADIE/RAVEN (:11 - :13) (SEPT07) $$$                                                                              150                                
PROFAMCHA080101182354182449000055xxGnu Gnu Year Stunt - All Day Long  (Jan 1-4) $$$                                                                          150                                
PROFAMCHA080101182449182526000037Naturally Sadie - TEENAGE (NS) NEXT (MAY07)                                                                                 150                                
PROFAMCHA080101182526182556000030xxHSM - The Ice Tour Revised Blast without Toronto                                                                          150                                
PROFAMCHA080101182556182625000029xxThat's So Raven (AUG06) BEAUTY MARK - NS - Tonig                                                                          150                                
PROFAMCHA080101182625182725000100xxAstral Corporate Promo (NS, NSW) 3 X Day (Nov.22                                                                          150                                
PROFAMCHA080101182725182755000030Popcorn Pix - Slapstick - Tonight @ 7:30pm                                                                                  150                                
PROFAMCHA080101182755182838000043Cory In The House (NS) Tonight @ 10:30pm (SEPT07)                                                                           150                                
PROFAMCHA080101182838182911000033xxBarbie Pass Spice Girls Contest (Dec 17 - Jan 14                                                                          150                                
PROFAMCHA080101182911182947000036Suite Life of Z & C GOLF (NS) - Tonight @ 11:00pm                                                                           150                                
PROFAMCHA080101182947183008000021xxGnu Gnu Bumpers - Gnu Friends (Dec 26 - Jan 4) $                                                                          150                                
PRCFAMCHA080101183008183016000008CC Disclaimer - FAST - Generic (:09-:10)                                                                                    150                                
PGRFAMCHA080101183016185246002230Naturally, Sadie                                  EP: 23                                                        C24010 1065607ACC                              
PRCFAMCHA080101185246185252000006Astral ID (DEC 2007)                                                                                                        150                                
PROFAMCHA080101185252185347000055xxGnu Gnu Year Stunt - Happy Gnu Year (Jan 1 - 4)                                                                           150                                
PROFAMCHA080101185347185416000029xxThat's So Raven (APR06) HELLO LADIES (NS) - Comi                                                                          150                                
PROFAMCHA080101185416185451000035xxVeggie Tales Movie - In Theatres Jan 11 (Dec 29                                                                           150                                
PROFAMCHA080101185451185521000030Popcorn Pix - Slapstick - Tonight @ 7:30pm                                                                                  150                                
PROFAMCHA080101185521185621000100xxAstral Corporate Promo (NS, NSW) 3 X Day (Nov.22                                                                          150                                
PROFAMCHA080101185621185704000043Cory In The House (NS) Tonight @ 10:30pm (SEPT07)                                                                           150                                
PROFAMCHA080101185704185714000010FAMJAM - Open/Close                                                                                                         150                                
PGRFAMCHA080101185714185814000100MV Disney - Superstition (Raven)                                                                                       60688120                                
PROFAMCHA080101185814185828000014xxFAMJAM - Close (FAMILY) xxDNUxx                                                                                           150                                
PROFAMCHA080101185828185900000032Suite Life of Z & C (NS) Wonderful Hotel - Tonight                                                                          150                                
PROFAMCHA080101185900185926000026xxDisney Game of the Week - HSM REVISION (Jan 1-6)                                                                          150                                
PRCFAMCHA080101185926185944000018xxLife with Derek NS OJ (SEPT06) Tonight at 11:30p                                                                          150                                
PROFAMCHA080101185944190005000021xxGnu Gnu Bumpers - Gnu Hairstyle (Dec 26 - Jan 4)                                                                          150                                
ID FAMCHA080101190005190012000007Magic of Disney - NS/NSW/PB - Shape (:06-:09)                                                                               150                                
PRCFAMCHA080101190012190020000008CC Disclaimer - FAST - Family.ca (:09-:10)                                                                                  150                                
PGRFAMCHA080101190020192258002238That's So Raven                                   EPS # 1-043                                                          6068607BCC                              
PROFAMCHA080101192258192353000055xxGnu Gnu Year Stunt - Keep Watching (Jan 1 - 4) $                                                                          150                                
PROFAMCHA080101192353192423000030Popcorn Pix - Slapstick - Coming Up Next                                                                                    150                                
PROFAMCHA080101192423192526000103xxChef Boyardee - Messy Treasures (Dec 26 - Feb 5)                                                                          150                                
PROFAMCHA080101192526192539000013Family Bumpers - (Phase 2 F/W 04) - Leaves (PB/MD-                                                                          150                                
PROFAMCHA080101192539192549000010FAMJAM - Open/Close                                                                                                         150                                
PGRFAMCHA080101192549192900000311MV Disney - (MD/NS/NSW) - Jesse McCartney - Just S                                                                     60688120                                
PROFAMCHA080101192900192914000014xxFAMJAM - Close (FAMILY) xxDNUxx                                                                                           150                                
PRCFAMCHA080101192914192932000018xxLife with Derek NS OJ (SEPT06) Tonight at 11:30p                                                                          150                                
PROFAMCHA080101192932192953000021xxGnu Gnu Bumpers - Gnu Band (Dec 26 - Jan 4) $$$                                                                           150                                
ID FAMCHA080101192953193002000009Rating - PG - Nightly Pix Only  (DEC05) (:08 - :10                                                                          150                                
PRCFAMCHA080101193002193011000009CC Disclaimer - FAST - Generic (:09-:10)                                                                                    150                                
PGRFAMCHA080101193011212126015115Stepmom                                                                                                               B2068807DCC                              
PGRFAMCHA080101212126213515001349Stepmom                                                                                                               B2068807DCC                              
PROFAMCHA080101213515213548000033xxBarbie Pass Spice Girls Contest (Dec 17 - Jan 14                                                                          150                                
PRCFAMCHA080101213548213555000007Family Bumpers - (Phase 2 F/W 04) - Hockey (MD-L/M                                                                          150                                
PROFAMCHA080101213555213629000034xxFamily Holiday CD - Available Now (Nov 13 - Jan                                                                           150                                
PROFAMCHA080101213629213650000021xxGnu Gnu Bumpers - Gnu Friends (Dec 26 - Jan 4) $                                                                          150                                
ID FAMCHA080101213650213658000008Magic of Disney - NS/NSW/PB - Wipe (:06-:09)                                                                                150                                
PGRFAMCHA080101213658215934002236Phil of the Future Yr 2                           EP: 27                                                               6068607BCC                              
PRCFAMCHA080101215934215947000013NS - 09 - NEDS/CORY IN THE HOUSE (:11 - :13) (SEPT                                                                          150                                
PROFAMCHA080101215947220021000034xxFamily Holiday CD - Available Now (Nov 13 - Jan                                                                           150                                
PROFAMCHA080101220021220042000021xxGnu Gnu Bumpers - Gnu Sport (Dec 26 - Jan 4) $$$                                                                          150                                
PRCFAMCHA080101220042220050000008CC Disclaimer - SLOW - Family.ca (:09-:10)                                                                                  150                                
PGRFAMCHA080101220050222504002414Ned's Declassified School Survival Guide          EPS # 02                                                             2068807BCC                              
PRCFAMCHA080101222504222510000006Astral ID (DEC 2007)                                                                                                        150                                
PRCFAMCHA080101222510222521000011NS - 10 - CORY IN THE HOUSE/SUITE LIFE (:11 - :13)                                                                          150                                
PROFAMCHA080101222521222616000055xxGnu Gnu Year Stunt - Keep Watching (Jan 1 - 4) $                                                                          150                                
PROFAMCHA080101222616222659000043Cory In The House (NS) Coming Up Next (SEPT07)                                                                              150                                
PROFAMCHA080101222659222733000034xxFamily Holiday CD - Available Now (Nov 13 - Jan                                                                           150                                
PROFAMCHA080101222733222806000033Suite Life of Z & C SCOUT (NS) - Tonight @ 11pm (S                                                                          150                                
PROFAMCHA080101222806222906000100xxAstral Corporate Promo (NS, NSW) 3 X Day (Nov.22                                                                          150                                
PRCFAMCHA080101222906222944000038Life W D (NS) Edwin Mystery Man - Tonight @ 11:30p                                                                          150                                
PROFAMCHA080101222944222952000008Phil of the Future IDs - I'm Ricky Ullman, You're                                                                           150                                
PROFAMCHA080101222952223013000021xxGnu Gnu Bumpers - Gnu Friends (Dec 26 - Jan 4) $                                                                          150                                
ID FAMCHA080101223013223019000006Magic of Disney - NS/NSW/PB - Wipe (:06-:09)                                                                                150                                
PRCFAMCHA080101223019223027000008CC Disclaimer - SLOW - Generic (:09 -:10)                                                                                   150                                
PGRFAMCHA080101223027225305002238Cory in the House                                 EP: 10                                                               6068607BCC                              
PRCFAMCHA080101225305225318000013NS - 11 - SUITE LIFE/LIFE WITH DEREK (:11 - :13) (                                                                          150                                
PROFAMCHA080101225318225413000055xxGnu Gnu Year Stunt - All Day Long  (Jan 1-4) $$$                                                                          150                                
PROFAMCHA080101225413225449000036Suite Life of Z & C - NS - GOLF - Coming Up Next (                                                                          150                                
PROFAMCHA080101225449225459000010FAMJAM - Open/Close                                                                                                         150                                
PGRFAMCHA080101225459225829000330MV Disney - (MD/NS/NSW) - Jesse McCartney - Just S                                                                     60688120                                
PROFAMCHA080101225829225843000014xxFAMJAM - Close (FAMILY) xxDNUxx                                                                                           150                                
PRCFAMCHA080101225843225913000030Life with Derek (NS) MORE FUN (OCT06)  Tonight @ 1                                                                          150                                
PROFAMCHA080101225913225943000030Popcorn Pix - Slapstick - Tomorrow Night @ 7:30pm                                                                           150                                
PROFAMCHA080101225943230004000021xxGnu Gnu Bumpers - Gnu Band (Dec 26 - Jan 4) $$$                                                                           150                                
ID FAMCHA080101230004230010000006Magic of Disney - NS/NSW/PB - Shape (:06-:09)                                                                               150                                
PRCFAMCHA080101230010230018000008CC Disclaimer - SLOW - Family.ca (:09-:10)                                                                                  150                                
PGRFAMCHA080101230018232256002238Suite Life of Zack & Cody, The                    EP: 13                                                               6068607BCC                              
PRCFAMCHA080101232256232302000006Astral ID (DEC 2007)                                                                                                        150                                
PRCFAMCHA080101232302232313000011NS - 12 - LIFE WITH DEREK/SADIE (:11 - :13) (SEPT0                                                                          150                                
PROFAMCHA080101232313232408000055xxGnu Gnu Year Stunt - Happy Gnu Year (Jan 1 - 4)                                                                           150                                
PRCFAMCHA080101232408232446000038Life W D (NS) Edwin Mystery Man - Coming Up Next (                                                                          150                                
PROFAMCHA080101232446232456000010FAMJAM - Open/Close                                                                                                         150                                
PGRFAMCHA080101232456232824000328xxMV Disney - (MD/NS/NSW) - Corbin Bleu - Deal Wit                                                                     60688120                                
PROFAMCHA080101232824232838000014xxFAMJAM - Close (FAMILY) xxDNUxx                                                                                           150                                
PROFAMCHA080101232838232910000032Suite Life of Z & C (NSW) Wonderful Hotel - New Ep                                                                          150                                
PROFAMCHA080101232910232947000037Naturally Sadie - TEENAGE (NS) Tonight @ 12:00 (MA                                                                          150                                
PROFAMCHA080101232947233008000021xxGnu Gnu Bumpers - Gnu Friends (Dec 26 - Jan 4) $                                                                          150                                
PRCFAMCHA080101233008233016000008CC Disclaimer - FAST - Generic (:09-:10)                                                                                    150                                
PGRFAMCHA080101233016235246002230Life with Derek                                   EP: 06                                                        C23968A1065607BCC                              
PRCFAMCHA080101235246235259000013NS - 13 - SADIE/SADIE (:11 - :13) (SEPT07)                                                                                  150                                
PROFAMCHA080101235259235354000055xxGnu Gnu Year Stunt - Keep Watching (Jan 1 - 4) $                                                                          150                                
PROFAMCHA080101235354235431000037Naturally Sadie - TEENAGE (NS) NEXT (MAY07)                                                                                 150                                
PROFAMCHA080101235431235441000010FAMJAM - Open/Close                                                                                                         150                                
PGRFAMCHA080101235441235823000342xxMV Disney - (MD/NS/NSW) - Rob Thomas - Little Wo                                                                     60688120                                
PROFAMCHA080101235823235837000014xxFAMJAM - Close (FAMILY) xxDNUxx                                                                                           150                                
PROFAMCHA080101235837235907000030Popcorn Pix - Slapstick - Tomorrow Night @ 7:30pm                                                                           150                                
PROFAMCHA080101235907235939000032Suite Life of Z & C (NSW) Wonderful Hotel - New Ep                                                                          150                                
PROFAMCHA080101235939235947000008Raven ID's II - Log onto family.ca                                                                                          150                                
PROFAMCHA080101235947000008000021xxGnu Gnu Bumpers - Gnu Hobbie (Dec 26 - Jan 4) $$                                                                          150                                
PRCFAMCHA080101000008000016000008CC Disclaimer - SLOW - Family.ca (:09-:10)                                                                                  150                                
PGRFAMCHA080101000016002246002230Naturally, Sadie                                  EP: 13                                                        C24010 1065607ACC                              
PRCFAMCHA080101002246002252000006Astral ID (DEC 2007)                                                                                                        150                                
PRCFAMCHA080101002252002305000013NS - 14 - SADIE/HANNAH (:11 - :13) (SEPT07)                                                                                 150                                
PROFAMCHA080101002305002400000055xxGnu Gnu Year Stunt - All Day Long  (Jan 1-4) $$$                                                                          150                                
PROFAMCHA080101002400002437000037Naturally Sadie - TEENAGE (NS) NEXT (MAY07)                                                                                 150                                
PROFAMCHA080101002437002447000010FAMJAM - Open/Close                                                                                                         150                                
PGRFAMCHA080101002447002827000340MV Disney - (MD/NS/NSW) - Jesse McCartney - Just S                                                                     60688120                                
PROFAMCHA080101002827002841000014xxFAMJAM - Close (FAMILY) xxDNUxx                                                                                           150                                
PROFAMCHA080101002841002911000030Popcorn Pix - Slapstick - Tomorrow Night @ 7:30pm                                                                           150                                
PROFAMCHA080101002911002943000032Suite Life of Z & C (NSW) Wonderful Hotel - New Ep                                                                          150                                
PROFAMCHA080101002943003004000021xxGnu Gnu Bumpers - Gnu Hairstyle (Dec 26 - Jan 4)                                                                          150                                
PRCFAMCHA080101003004003012000008CC Disclaimer - SLOW - Generic (:09 -:10)                                                                                   150                                
PGRFAMCHA080101003012005242002230Naturally, Sadie                                  EP: 37                                                        C25428 1065607ACC                              
PRCFAMCHA080101005242005253000011NS - 15 - HANNAH/LIZZIE (:11 - :13) (SEPT07)                                                                                150                                
PROFAMCHA080101005253005348000055xxGnu Gnu Year Stunt - Happy Gnu Year (Jan 1 - 4)                                                                           150                                
PROFAMCHA080101005348005422000034Hannah Montana (NS) Wig Auditions - Coming Up Next                                                                          150                                
PROFAMCHA080101005422005432000010FAMJAM - Open/Close                                                                                                         150                                
PGRFAMCHA080101005432005743000311MV Disney - (MD/NS/NSW) - Jesse McCartney - Just S                                                                     60688120                                
PROFAMCHA080101005743005757000014xxFAMJAM - Close (FAMILY) xxDNUxx                                                                                           150                                
PROFAMCHA080101005757005827000030Popcorn Pix - Slapstick - Tomorrow Night @ 7:30pm                                                                           150                                
PROFAMCHA080101005827005907000040xxGnu Gnu Years Celebrity Resolutions - All (Dec 3                                                                          150                                
PROFAMCHA080101005907005939000032Suite Life of Z & C (NSW) Wonderful Hotel - New Ep                                                                          150                                
PROFAMCHA080101005939010000000021xxGnu Gnu Bumpers - Gnu Hobbie (Dec 26 - Jan 4) $$                                                                          150                                
ID FAMCHA080101010000010006000006Magic of Disney - NS/NSW/PB - Shape (:06-:09)                                                                               150                                
PRCFAMCHA080101010006010014000008CC Disclaimer - SLOW - Family.ca (:09-:10)                                                                                  150                                
PGRFAMCHA080101010014012252002238Hannah Montana                                    EP: 03                                                               6068807BCC                              
PRCFAMCHA080101012252012258000006Astral ID (DEC 2007)                                                                                                        150                                
PRCFAMCHA080101012258012311000013NS - 16 - LIZZIE/PHIL (:11 - :13) (SEPT07)                                                                                  150                                
PROFAMCHA080101012311012332000021xxGnu Gnu Bumpers - Gnu Sport (Dec 26 - Jan 4) $$$                                                                          150                                
ID FAMCHA080101012332012341000009Magic of Disney - NS/NSW/PB - Wipe (:06-:09)                                                                                150                                
PGRFAMCHA080101012341014615002234Lizzie McGuire                                    EP: 2-034                                                            6068607BCC                              
PRCFAMCHA080101014615014626000011NS - 17 - PHIL/BOY MEETS WORLD (:11 - :13) (SEPT07                                                                          150                                
PROFAMCHA080101014626014647000021xxGnu Gnu Bumpers - Gnu Friends (Dec 26 - Jan 4) $                                                                          150                                
ID FAMCHA080101014647014653000006Magic of Disney - NS/NSW/PB - Shape (:06-:09)                                                                               150                                
PGRFAMCHA080101014653020930002237Phil of the Future Yr 2                           EP: 43                                                               6068607BCC                              
PRCFAMCHA080101020930020936000006Astral ID (DEC 2007)                                                                                                        150                                
PRCFAMCHA080101020936020948000012NS - 18 - BOY MEETS WORLD/LIFE WITH DEREK (:11 - :                                                                          150                                
PROFAMCHA080101020948021009000021xxGnu Gnu Bumpers - Gnu Band (Dec 26 - Jan 4) $$$                                                                           150                                
ID FAMCHA080101021009021015000006Magic of Disney - NS/NSW/PB - Wipe (:06-:09)                                                                                150                                
PRCFAMCHA080101021015021023000008CC Disclaimer - SLOW - Generic (:09 -:10)                                                                                   150                                
PGRFAMCHA080101021023023203002140Boy Meets World                                   EP: 1-128                                                           B6068807BCC                              
PRCFAMCHA080101023203023214000011NS - 19 - LIFE WITH DEREK/CORY IN THE HOUSE (:11 -                                                                          150                                
PROFAMCHA080101023214023235000021xxGnu Gnu Bumpers - Gnu Sport (Dec 26 - Jan 4) $$$                                                                          150                                
PRCFAMCHA080101023235023243000008CC Disclaimer - SLOW - Family.ca (:09-:10)                                                                                  150                                
PGRFAMCHA080101023243025513002230Life with Derek                                   EP: 03                                                        C23968A1065607BCC                              
PRCFAMCHA080101025513025519000006Astral ID (DEC 2007)                                                                                                        150                                
PRCFAMCHA080101025519025532000013NS - 20 -CORY IN THE HOUSE/RAVEN (:11 - :13) (SEPT                                                                          150                                
PROFAMCHA080101025532025553000021xxGnu Gnu Bumpers - Gnu Friends (Dec 26 - Jan 4) $                                                                          150                                
ID FAMCHA080101025553025601000008Magic of Disney - NS/NSW/PB - Wipe (:06-:09)                                                                                150                                
PRCFAMCHA080101025601025611000010CC Disclaimer - SLOW - Generic (:09 -:10)                                                                                   150                                
PGRFAMCHA080101025611031849002238Cory in the House                                 EP: 09                                                               6068607BCC                              
PRCFAMCHA080101031849031902000013NS - 21 - RAVEN/ SUITE LIFE (:11 - :13) (SEPT07)                                                                            150                                
PROFAMCHA080101031902031923000021xxGnu Gnu Bumpers - Gnu Hairstyle (Dec 26 - Jan 4)                                                                          150                                
ID FAMCHA080101031923031931000008Magic of Disney - NS/NSW/PB - Shape (:06-:09)                                                                               150                                
PRCFAMCHA080101031931031941000010CC Disclaimer - SLOW - Family.ca (:09-:10)                                                                                  150                                
PGRFAMCHA080101031941034220002239That's So Raven                                   EP: 090                                                              6068607BCC                              
PRCFAMCHA080101034220034226000006Astral ID (DEC 2007)                                                                                                        150                                
PRCFAMCHA080101034226034239000013NS - 22 - SUITE LIFE/LIFE WITH DEREK (:11 - :13) (                                                                          150                                
PROFAMCHA080101034239034300000021xxGnu Gnu Bumpers - Gnu Band (Dec 26 - Jan 4) $$$                                                                           150                                
ID FAMCHA080101034300034308000008Magic of Disney - NS/NSW/PB - Wipe (:06-:09)                                                                                150                                
PRCFAMCHA080101034308034318000010CC Disclaimer - SLOW - Generic (:09 -:10)                                                                                   150                                
PGRFAMCHA080101034318040556002238Suite Life of Zack & Cody, The                    EP: 59                                                               6068607BCC                              
PRCFAMCHA080101040556040609000013NS - 23 - LIFE WITH DEREK (:11 - :13) (SEPT07)                                                                              150                                
PROFAMCHA080101040609040630000021xxGnu Gnu Bumpers - Gnu Hobbie (Dec 26 - Jan 4) $$                                                                          150                                
PRCFAMCHA080101040630040639000009CC Disclaimer - SLOW - Family.ca (:09-:10)                                                                                  150                                
PGRFAMCHA080101040639042909002230Life with Derek                                   EP: 13                                                        C23968A1065607BCC                              
PRCFAMCHA080101042909042915000006Astral ID (DEC 2007)                                                                                                        150                                
PRCFAMCHA080101042915042931000016PH - 01 - KATIE/FRANNY/SOMETHING  (:14 - :16) (SEP                                                                          150                                
PRCFAMCHA080101042931042946000015Franny's Feet - Bowleriffic (PH-Mon) - (APR06) - T                                                                          150                                
ID FAMCHA080101042946042959000013PS Playhouse AM Block Open (:10-:15)                                                                                        150                                
OFFFAMCHA080101042959043000000001OFF AIR                                                                                                                                                        
SO FAMCHA080102043000043011000011Sign On (oct 1)                                                                                                                                                
PRCFAMCHA080102043011043020000009CC Disclaimer - FAST - Family.ca (:09-:10)                                                                                  150                                
PGRFAMCHA080102043020045655002635Katie And Orbie                                   EP: 2-025                                                     C11896A1065607ECC                              
PRCFAMCHA080102045655045710000015PH - 02 - FRANNY/SOMETHING/HOZE (:14 - :16) (SEPT0                                                                          150                                
ID FAMCHA080102045710045723000013PS Playhouse AM Block Open (:10-:15)                                                                                        150                                
PRCFAMCHA080102045723045732000009CC Disclaimer - FAST - Generic (:09-:10)                                                                                    150                                
PGRFAMCHA080102045732052002002230Franny's Feet                                     EPS # 1-012                                                   C23970A1065607ECC                              
PRCFAMCHA080102052002052008000006Astral ID (DEC 2007)                                                                                                        150                                
PRCFAMCHA080102052008052023000015PH - 03 - SOMETHING/HOZE/HENRY'S (:14 - :16) (SEPT                                                                          150                                
ID FAMCHA080102052023052036000013PS Playhouse AM Block Open (:10-:15)                                                                                        150                                
PRCFAMCHA080102052036052045000009CC Disclaimer - FAST - Family.ca (:09-:10)                                                                                  150                                
PGRFAMCHA080102052045054316002231Something Else                                    EP: 1-004                                                     B69258A1065607ECC                              
PRCFAMCHA080102054316054331000015PH - 04 - HOZE/HENRY'S/KING (:14 - :16) (SEPT07)                                                                            150                                
ID FAMCHA080102054331054344000013PS Playhouse AM Block Open (:10-:15)                                                                                        150                                
PRCFAMCHA080102054344054353000009CC Disclaimer - FAST - Generic (:09-:10)                                                                                    150                                
PGRFAMCHA080102054353060631002238Hoze Houndz                                       EP: 4-044                                                     B63380A1065607ECC                              
PRCFAMCHA080102060631060637000006Astral ID (DEC 2007)                                                                                                        150                                
PRCFAMCHA080102060637060652000015PH - 05 - HENRY'S WORLD/KING (:14 - :16) (SEPT07)                                                                           150                                
ID FAMCHA080102060652060705000013PS Playhouse AM Block Open (:10-:15)                                                                                        150                                
PRCFAMCHA080102060705060714000009CC Disclaimer - FAST - Family.ca (:09-:10)                                                                                  150                                
PGRFAMCHA080102060714063119002405Henry's World                                     EP: 1-006                                                     B66548A1065607GCC                              
PRCFAMCHA080102063119063134000015PH - 06 - KING (:14 - :16) (SEPT07)                                                                                         150                                
ID FAMCHA080102063134063147000013PS Playhouse AM Block Open (:10-:15)                                                                                        150                                
PRCFAMCHA080102063147063155000008CC Disclaimer - FAST - Generic (:09-:10)                                                                                    150                                
PGRFAMCHA080102063155065425002230King                                              EP: 4-049                                                     C25350 1065607ECC                              
PRCFAMCHA080102065425065431000006Astral ID (DEC 2007)                                                                                                        150                                
PROFAMCHA080102065431065501000030xxHSM - The Ice Tour Revised Blast without Toronto                                                                          150                                
PROFAMCHA080102065501065508000007Family Bumpers - (Phase 2 F/W 04) - Snow Twirl (MD                                                                          150                                
PROFAMCHA080102065508065541000033xxBarbie Pass Spice Girls Contest (Dec 17 - Jan 14                                                                          150                                
PROFAMCHA080102065541065600000019MadMadMornings Block Open                                                                                                   150                                
PRCFAMCHA080102065600065609000009CC Disclaimer - FAST - Family.ca (:09-:10)                                                                                  150                                
PGRFAMCHA080102065609071900002251Disney's Kim Possible                             EP: 1-008                                                           A6068607ECC                              
PROFAMCHA080102071900071955000055xxGnu Gnu Year Stunt - Happy Gnu Year (Jan 1 - 4)                                                                           150                                
PROFAMCHA080102071955072019000024xxRecess - MONTAGE (MMM) - (JULY06) - Coming Up Ne                                                                          150                                
PROFAMCHA080102072019072053000034xxFamily Holiday CD - Available Now (Nov 13 - Jan                                                                           150                                
PROFAMCHA080102072053072100000007MadMadMornings Bumper                                                                                                       150                                
PROFAMCHA080102072100072110000010FAMJAM - Open/Close                                                                                                         150                                
PGRFAMCHA080102072110072210000100xxMV Disney - (MD/MMM) - T-Squad - Flip :60 (June                                                                      60688120                                
PROFAMCHA080102072210072224000014xxFAMJAM - Close (FAMILY) xxDNUxx                                                                                           150                                
PROFAMCHA080102072224072303000039Weekenders - (MMM) Alternate Universe - This Morni                                                                          150                                
PROFAMCHA080102072303072336000033xxBarbie Pass Spice Girls Contest (Dec 17 - Jan 14                                                                          150                                
PROFAMCHA080102072336072342000006Phil of the Future IDs - Your Watching Family...NA                                                                          150                                
PROFAMCHA080102072342072401000019MadMadMornings Block Open                                                                                                   150                                
PRCFAMCHA080102072401072410000009CC Disclaimer - FAST - Generic (:09-:10)                                                                                    150                                
PGRFAMCHA080102072410074645002235Disney's Recess                                   EP: 1-052                                                            6068607ECC                              
PRCFAMCHA080102074645074651000006Astral ID (DEC 2007)                                                                                                        150                                
PROFAMCHA080102074651074746000055xxGnu Gnu Year Stunt - Happy Gnu Year (Jan 1 - 4)                                                                           150                                
PROFAMCHA080102074746074825000039Weekenders - (MMM) Alternate Universe - Coming Up                                                                           150                                
PROFAMCHA080102074825074900000035xxVeggie Tales Movie - In Theatres Jan 11 (Dec 29                                                                           150                                
PROFAMCHA080102074900074917000017Kim Possible WHEELS MMM (MAY 07) Tomorrow morning                                                                           150                                
PROFAMCHA080102074917075002000045xxRecess - SNACKS FOR SNITCHES (MMM) - (MAY06) - T                                                                          150                                
PROFAMCHA080102075002075032000030xxHSM - The Ice Tour Revised Blast without Toronto                                                                          150                                
PROFAMCHA080102075032075041000009Raven ID's II - You're Watching Family, NADM                                                                                150                                
PROFAMCHA080102075041075100000019MadMadMornings Block Open                                                                                                   150                                
PRCFAMCHA080102075100075109000009CC Disclaimer - FAST - Family.ca (:09-:10)                                                                                  150                                
PGRFAMCHA080102075109081403002254Disney's The Weekenders                           EP: 1-002                                                           A6068607ECC                              
PROFAMCHA080102081403081458000055xxGnu Gnu Year Stunt - Happy Gnu Year (Jan 1 - 4)                                                                           150                                
PROFAMCHA080102081458081545000047xxHSM - The Ice Tour Promo #4 B (Dec 31 - Feb 3) $                                                                          150                                
PROFAMCHA080102081545081601000016xxKim Possible FINGER TAUNT (MMM) (July 06) Tomorr                                                                          150                                
PROFAMCHA080102081601081640000039Weekenders - (MMM) Alternate Universe - Tomorrow M                                                                          150                                
PROFAMCHA080102081640081710000030xxHSM - The Ice Tour Revised Blast without Toronto                                                                          150                                
PROFAMCHA080102081710081741000031xxGnu Gnu Years Celebrity Resolutions - Zac, Drew,                                                                          150                                
PROFAMCHA080102081741081800000019MadMadMornings Block Open                                                                                                   150                                
PGRFAMCHA080102081800084054002254Disney's Lloyd In Space                           EP: 12                                                               6068607ECC                              
PRCFAMCHA080102084054084100000006Astral ID (DEC 2007)                                                                                                        150                                
PRCFAMCHA080102084100084115000015PH - 07 - EINSTEINS/FRANNY'S/TIGGER & POOH (:14 -                                                                           150                                
PROFAMCHA080102084115084154000039Little Einstein (PH) LOVE - Coming Up Next (MAY07)                                                                          150                                
PROFAMCHA080102084154084241000047xxHSM - The Ice Tour Promo #4 B (Dec 31 - Feb 3) $                                                                          150                                
PROFAMCHA080102084241084311000030Tigger & Pooh NEW FRIEND DARBY (PH) This Morning @                                                                          150                                
PGRFAMCHA080102084311084426000115xxThey Might Be Giants (ABC's) - QU                                                                                    60688120                                
PROFAMCHA080102084426084447000021xxPHD Promo - PHD 24/7 TV Channel (Dec 10 - till?)                                                                          150                                
ID FAMCHA080102084447084500000013PS Playhouse AM Block Open (:10-:15)                                                                                        150                                
PGRFAMCHA080102084500090905002405Disney's Little Einsteins                         EP: 20                                                               6068607ECC                              
PRCFAMCHA080102090905090920000015PH - 08 - FRANNY'S/TIGGER & POOH/ CLUB HOUSE (:14                                                                           150                                
PROFAMCHA080102090920091016000056xxHandy Mandy TOOLS (PH) This Morning @ 10:30am (S                                                                          150                                
PROFAMCHA080102091016091046000030xxBunnytown (PH) Premieres on PHD January 13 (Dec                                                                           150                                
ID FAMCHA080102091046091100000014PS Playhouse AM Block Open (:10-:15)                                                                                        150                                
PRCFAMCHA080102091100091109000009CC Disclaimer - FAST - Generic (:09-:10)                                                                                    150                                
PGRFAMCHA080102091109093339002230Franny's Feet                                     EPS # 20                                                      C23971 1065607ECC                              
PRCFAMCHA080102093339093345000006Astral ID (DEC 2007)                                                                                                        150                                
PRCFAMCHA080102093345093400000015PH - 09 - TIGGER & POOH/ CLUB HOUSE/HANDY (:14 - :                                                                          150                                
PROFAMCHA080102093400093450000050Tigger & Pooh WHAT'S NEW (PH) Coming Up Next (SEPT                                                                          150                                
PROFAMCHA080102093450093525000035xxVeggie Tales Movie - In Theatres Jan 11 (Dec 29                                                                           150                                
PROFAMCHA080102093525093555000030Mickey Mouse Clubhouse GENERIC - This Morning @ 10                                                                          150                                
PRCFAMCHA080102093555093626000031King (PH) (APR06) - This Morning @ 11:25am                                                                                  150                                
PROFAMCHA080102093626093647000021xxPHD Promo - PHD 24/7 TV Channel (Dec 10 - till?)                                                                          150                                
ID FAMCHA080102093647093700000013PS Playhouse AM Block Open (:10-:15)                                                                                        150                                
PRCFAMCHA080102093700093709000009CC Disclaimer - FAST - Family.ca (:09-:10)                                                                                  150                                
PGRFAMCHA080102093709100117002408Disney My Friends Tigger and Pooh                 EP: 02                                                               6068607ECC                              
PRCFAMCHA080102100117100132000015PH - 12 - CLUB HOUSE/HANDY/BENJAMIN BEAR (:14 - :1                                                                          150                                
PROFAMCHA080102100132100202000030Mickey Mouse Clubhouse GENERIC - Coming Up Next                                                                             150                                
PRCFAMCHA080102100202100217000015Franny's Feet - Bowleriffic (PH-Mon) - (APR06) - T                                                                          150                                
PRCFAMCHA080102100217100248000031King (PH) (APR06) - This Morning @ 11:25am                                                                                  150                                
PROFAMCHA080102100248100318000030Tigger & Pooh NEW FRIEND DARBY (PH) Tomorrow Morni                                                                          150                                
PROFAMCHA080102100318100348000030xxBunnytown (PH) Premieres on PHD January 13 (Dec                                                                           150                                
ID FAMCHA080102100348100400000012PS Playhouse AM Block Open (:10-:15)                                                                                        150                                
ID FAMCHA080102100400100408000008Magic of Disney - PLAYHOUSE - Shape (:06-:09)                                                                               150                                
PGRFAMCHA080102100408102810002402Disney's Mickey Mouse Clubhouse                   EP: 06                                                               6068607ECC                              
PRCFAMCHA080102102810102816000006Astral ID (DEC 2007)                                                                                                        150                                
PRCFAMCHA080102102816102832000016PH - 15 - HANDY/BENJAMIN BEAR/KING (:14 - :16) (SE                                                                          150                                
PROFAMCHA080102102832102928000056xxHandy Mandy TOOLS (PH) Coming Up Next (SEPT07)                                                                            150                                
PRCFAMCHA080102102928102947000019xxPlayhouse - HOZE HOUNDZ - Code Blue                                                                                       150                                
PROFAMCHA080102102947103026000039Little Einstein (PH) LOVE - Tomorrow Morning @ 8:4                                                                          150                                
PROFAMCHA080102103026103047000021xxPHD Promo - PHD 24/7 TV Channel (Dec 10 - till?)                                                                          150                                
