OFFFAMCHA000201043000060000013000                                                                                                                                                               
SO FAMCHA000201060000060011000011Sign On (oct 1)                                                                                                                                                
PROFAMCHA000201060011060016000005CC Disclaimer (oct) **DO NOT USE**                                                                                                                             
PGRFAMCHA000201060016062416002400Hello Mrs. Cherrywinkle                           Catch The Rainbow                                             B18892A1065607ACC                              
ID FAMCHA000201062416062431000015Generic ID - confetti                                                                                                                                          
PRCFAMCHA000201062431062441000010Morning Block menu background (flex time)                                                                                                                      
PRCFAMCHA000201062441062511000030Franklin-weekdays @ 7:00am (oct 1)                                                                                                                             
PROFAMCHA000201062511062541000030Out of The Box - Tuesday and Thursday @ 8:30am (oc                                                                                                             
PGRFAMCHA000201062541062716000135Big Garage, "stop" - Lickety Split                                                                              P21477 10656130                                
PROFAMCHA000201062716062816000100Morning Block - Generic                                                                                                                                        
PROFAMCHA000201062816062901000045PB&J Otter - Tuesday and Thursday @ 11:30am (oct 1                                                                                                             
PROFAMCHA000201062901062940000039Goof Troop - Today @ 3pm                                                                                                                                       
ID FAMCHA000201062940063000000020Morning block open play pen                                                                                                                                    
PROFAMCHA000201063000063005000005CC Disclaimer (oct) **DO NOT USE**                                                                                                                             
PGRFAMCHA000201063005065414002409Busy World Of Richard Scarry; The                 Mr. Gronkle Comes To Stay/Leo-Pardo's Smile/Bloomi            B24404 1165607ECC                              
ID FAMCHA000201065414065429000015Interactive bumper w/URL                                                                                                                                       
ID FAMCHA000201065429065439000010Generic ID - Hula Hoop                                                                                                                                         
PRCFAMCHA000201065439065448000009Morning Block menu background (flex time)                                                                                                                      
PRCFAMCHA000201065448065523000035Little Lulu Show; The - Weekdays @ 1:00pm (oct1)                                                                                                               
PRCFAMCHA000201065523065556000033Hoze Houndz - Tonight @ 6:30pm on Family (oct 1)                                                                                                               
PGRFAMCHA000201065556065720000124Bill Nye - R.E.C.Y.C.L.E                                                                                               60688130                                
PROFAMCHA000201065720065825000105Adventures of Gummi Bears-Today @ 8am on Family (o                                                                                                             
PRCFAMCHA000201065825065855000030Franklin-next (oct 1)                                                                                                                                          
PROFAMCHA000201065855065940000045PB&J Otter - Tuesday and Thursday @ 11:30am (oct 1                                                                                                             
ID FAMCHA000201065940070000000020Morning block open play pen                                                                                                                                    
PROFAMCHA000201070000070005000005CC Disclaimer (oct) **DO NOT USE**                                                                                                                             
PGRFAMCHA000201070005072258002253Franklin                                          Franklin's Garden/Franklin Runs Away                          B13650 1065607ECC                              
ID FAMCHA000201072258072308000010Generic ID - Pink inner tube                                                                                                                                   
PRCFAMCHA000201072308072317000009Morning Block menu background (flex time)                                                                                                                      
PROFAMCHA000201072317072347000030Madeline - 8:30am on Saturday (oct)                                                                                                                            
PROFAMCHA000201072347072402000015Doug - Today @ 5:00 pm (oct1)                                                                                                                                  
PROFAMCHA000201072402072447000045PB&J Otter - Tuesday and Thursday @ 11:30am (oct 1                                                                                                             
PGRFAMCHA000201072447072836000349Art Attack - Pyramid                                                                                                   60686130                                
PROFAMCHA000201072836072915000039Goof Troop - Next                                                                                                                                              
PROFAMCHA000201072915072950000035Lion King's Timon & Pumbaa - wkdays @ noon (OCT 1)                                                                                                             
ID FAMCHA000201072950073000000010Presentation bumper - Magic of Disney                                                                                                                          
PROFAMCHA000201073000073005000005CC Disclaimer (oct) **DO NOT USE**                                                                                                                             
PGRFAMCHA000201073005075246002241Goof Troop                                        Shake, Rattle & Goof                                                 6068607ECC                              
ID FAMCHA000201075246075256000010Generic ID - soccer **DO NOT USE**                                                                                                                             
PRCFAMCHA000201075256075306000010Morning Block menu background (flex time)                                                                                                                      
PRCFAMCHA000201075306075336000030Franklin-weekdays @ 1:30pm (oct 1)                                                                                                                             
PROFAMCHA000201075336075415000039Goof Troop - Today @ 3pm                                                                                                                                       
PRCFAMCHA000201075415075445000030Gadget Boy - Saturday @ 9am                                                                                                                                    
PGRFAMCHA000201075445075615000130Big Garage, "tools" - Copy Cars                                                                                 P21456 10656130                                
PGRFAMCHA000201075615075815000200Disney Circle Time - The Lion & The Mouse Fable (a                                                                     60688130                                
PROFAMCHA000201075815075920000105Adventures of Gummi Bears-Next on Family (oct)                                                                                                                 
PROFAMCHA000201075920075950000030Out of The Box - Tuesday and Thursday @ 8:30am (oc                                                                                                             
ID FAMCHA000201075950080000000010Presentation bumper - Magic of Disney                                                                                                                          
PROFAMCHA000201080000080005000005CC Disclaimer (oct) **DO NOT USE**                                                                                                                             
PGRFAMCHA000201080005082244002239Adventures of the Gummi Bears; The                Queen Of The Carpies                                                 6068607ECC                              
ID FAMCHA000201082244082249000005Generic ID - Marbles                                                                                                                                           
PRCFAMCHA000201082249082259000010Morning Block menu background (flex time)                                                                                                                      
PRCFAMCHA000201082259082329000030Franklin-weekdays @ 7:00am (oct 1)                                                                                                                             
PROFAMCHA000201082329082356000027Recess - Today @ 5:30 pm (oct1)                                                                                                                                
PRCFAMCHA000201082356082429000033Hoze Houndz - Tonight @ 6:30pm on Family (oct 1)                                                                                                               
PGRFAMCHA000201082429082825000356Art Attack - Soccer Player                                                                                             60686130                                
PROFAMCHA000201082825082855000030Out of The Box - Next (oct1)                                                                                                                                   
PROFAMCHA000201082855082940000045PB&J Otter - Tuesday and Thursday @ 11:30am (oct 1                                                                                                             
ID FAMCHA000201082940083000000020Morning block open play pen                                                                                                                                    
PGRFAMCHA000201083000085206002206Out of the Box                                    Seeds of Imagination                                                 60286110CC                              
ID FAMCHA000201085206085221000015Interactive bumper w/URL                                                                                                                                       
ID FAMCHA000201085221085231000010Generic ID - Ring around the rosie                                                                                                                             
PRCFAMCHA000201085231085240000009Morning Block menu background (flex time)                                                                                                                      
PROFAMCHA000201085240085325000045Turner & Hooch - Friday at 8pm                                                                                                                                 
PROFAMCHA000201085325085355000030Crash Zone - Saturday @10 am                                                                                                                                   
PGRFAMCHA000201085355085805000410MV Disney - Colours of the wind (oct 1)                                                                                60688130                                
PRCFAMCHA000201085805085838000033Hoze Houndz - Tonight @ 6:30pm on Family (oct 1)                                                                                                               
PROFAMCHA000201085838085900000022Hercules - Today @ 4:30 pm (oct 1)                                                                                                                             
PRCFAMCHA000201085900090000000100Morning Block - Babar next/Nilus/Katie                                                                                                                         
PROFAMCHA000201090000090005000005CC Disclaimer (oct) **DO NOT USE**                                                                                                                             
PGRFAMCHA000201090005092318002313Babar                                             A Charmed Life                                                C07575 1065607ECC                              
ID FAMCHA000201092318092325000007Generic ID - Whisper                                                                                                                                           
PRCFAMCHA000201092325092400000035Little Lulu Show; The - Weekdays @ 1:00pm (oct1)                                                                                                               
PROFAMCHA000201092400092500000100Morning Block - Nilus next/Katie/Billy                                                                                                                         
PROFAMCHA000201092500092505000005CC Disclaimer (oct) **DO NOT USE**                                                                                                                             
PGRFAMCHA000201092505094840002335Nilus The Sandman                                 Someone Just Like Me                                          B06995 1065607ECC                              
ID FAMCHA000201094840094850000010Generic ID - Family w/dog                                                                                                                                      
PRCFAMCHA000201094850094920000030Franklin-weekdays @ 1:30pm (oct 1)                                                                                                                             
PROFAMCHA000201094920095000000040Microsoap-Wednesday @ 6:30pm (oct)                                                                                                                             
PROFAMCHA000201095000095100000100Morning Block - Katie next/Billy/Busy World                                                                                                                    
PROFAMCHA000201095100095105000005CC Disclaimer (oct) **DO NOT USE**                                                                                                                             
PGRFAMCHA000201095105101740002635Katie And Orbie                                   The Umbrella/The Great Idea/Everybody Counts                  C11896 1065607ECC                              
PROFAMCHA000201101740101840000100Morning Block - Billy next/Busy World/Art Attack                                                                                                               
PROFAMCHA000201101840101845000005CC Disclaimer (oct) **DO NOT USE**                                                                                                                             
PGRFAMCHA000201101845104303002418Billy The Cat                                     The Jolly Mouser                                              B27644A1065607ECC                              
PROFAMCHA000201104303104403000100Morning Block - Busy World next/Art Attack                                                                                                                     
PROFAMCHA000201104403104408000005CC Disclaimer (oct) **DO NOT USE**                                                                                                                             
PGRFAMCHA000201104408110818002410Busy World Of Richard Scarry; The                 Mr.Gronkle Moves Away/Counting Chickens/Spelling B            B24405 1165607ECC                              
PROFAMCHA000201110818110918000100Morning Block - Art Attack next                                                                                                                                
PGRFAMCHA000201110918112427001509Art Attack                                        1-033                                                                60686110                                
ID FAMCHA000201112427112432000005Generic ID - soccer **DO NOT USE**                                                                                                                             
PRCFAMCHA000201112432112440000008Morning Block menu background (flex time)                                                                                                                      
PROFAMCHA000201112440112540000100Morning Block - Generic                                                                                                                                        
PROFAMCHA000201112540112621000041Honey I Shrunk the Kids (series oct) Mon & Thurs @                                                                                                             
PGRFAMCHA000201112621112825000204MV Disney - You've got a friend in me (oct 1)                                                                          60688130                                
PROFAMCHA000201112825112910000045PB&J Otter - Next (oct 1)                                                                                                                                      
PROFAMCHA000201112910112940000030Jodie Foster Double, Double - Thursday @ 8pm                                                                                                                   
ID FAMCHA000201112940113000000020Morning block open play pen                                                                                                                                    
PROFAMCHA000201113000113005000005CC Disclaimer (oct) **DO NOT USE**                                                                                                                             
PGRFAMCHA000201113005115335002330PB&J Otter                                        Gotcha/Mysterious Mirror                                            A6068607ECC                              
ID FAMCHA000201115335115345000010Generic ID - Family w/dog                                                                                                                                      
PRCFAMCHA000201115345115355000010Morning Block menu background (flex time)                                                                                                                      
PRCFAMCHA000201115355115428000033Hoze Houndz - Tonight @ 6:30pm on Family (oct 1)                                                                                                               
PRCFAMCHA000201115428115503000035Little Lulu Show; The - Weekdays @ 1:00pm (oct1)                                                                                                               
PROFAMCHA000201115503115518000015Doug - Today @ 5:00 pm (oct1)                                                                                                                                  
PGRFAMCHA000201115518115825000307Part Of Your World - Jodi Benson                                                                                       60688130                                
PROFAMCHA000201115825115900000035Lion King's Timon & Pumbaa - next (OCT 1)                                                                                                                      
PROFAMCHA000201115900115945000045Turner & Hooch - Friday at 8pm                                                                                                                                 
ID FAMCHA000201115945120000000015Afternoon block pinball open **DO NOT USE**                                                                                                                    
PROFAMCHA000201120000120005000005CC Disclaimer (oct) **DO NOT USE**                                                                                                                             
PGRFAMCHA000201120005122250002245Lion King's Timon & Pumbaa; The                   Never Everglades/Cooked Goose                                        6068607ECC                              
ID FAMCHA000201122250122305000015Interactive bumper w/URL                                                                                                                                       
ID FAMCHA000201122305122315000010Generic ID - Pink inner tube                                                                                                                                   
PRCFAMCHA000201122315122325000010Morning Block menu background (flex time)                                                                                                                      
PROFAMCHA000201122325122355000030Jodie Foster Double, Double - Thursday @ 8pm                                                                                                                   
PGRFAMCHA000201122355122532000137Bill Nye - The Science Guy Theme                                                                                       60688130                                
PROFAMCHA000201122532122612000040Microsoap-Wednesday @ 6:30pm (oct)                                                                                                                             
PGRFAMCHA000201122612122757000145Disney Circle Time - The Milkmaids Pail (anywhere                                                                      60688130                                
PROFAMCHA000201122757122827000030Crash Zone - Saturday @10 am                                                                                                                                   
PRCFAMCHA000201122827122900000033Hoze Houndz - Tonight @ 6:30pm on Family (oct 1)                                                                                                               
PROFAMCHA000201122900122945000045Turner & Hooch - Friday at 8pm                                                                                                                                 
ID FAMCHA000201122945123000000015Afternoon block pinball open **DO NOT USE**                                                                                                                    
PGRFAMCHA000201123000125345002345Clarissa                                          The Flu                                                              2068607B                                
ID FAMCHA000201125345125350000005Generic ID - Couch 2                                                                                                                                           
PRCFAMCHA000201125350125400000010Morning Block menu background (flex time)                                                                                                                      
PROFAMCHA000201125400125435000035Lion King's Timon & Pumbaa - today @ 4:00pm (OCT 1                                                                                                             
PROFAMCHA000201125435125520000045Turner & Hooch - Friday at 8pm                                                                                                                                 
PGRFAMCHA000201125520125720000200MV Disney - I'm Gonna Fly (oct)                                                                                        60688130                                
PROFAMCHA000201125720125801000041Honey I Shrunk the Kids (series oct) Mon & Thurs @                                                                                                             
PROFAMCHA000201125801125831000030Jodie Foster Double, Double - Thursday @ 8pm                                                                                                                   
PRCFAMCHA000201125831125906000035Little Lulu Show; The - Next (oct1)                                                                                                                            
PROFAMCHA000201125906125945000039Goof Troop - Today @ 3pm                                                                                                                                       
ID FAMCHA000201125945130000000015Afternoon block pinball open **DO NOT USE**                                                                                                                    
PROFAMCHA000201130000130005000005CC Disclaimer (oct) **DO NOT USE**                                                                                                                             
PGRFAMCHA000201130005132357002352Little Lulu Show; The                             Space Kids/Case of Disappearing Drum/From Hero to             B03816A1065607ECC                              
ID FAMCHA000201132357132407000010Generic ID - confetti                                                                                                                                          
PROFAMCHA000201132407132452000045Turner & Hooch - Friday at 8pm                                                                                                                                 
PRCFAMCHA000201132452132525000033Hoze Houndz - Tonight @ 6:30pm on Family (oct 1)                                                                                                               
PRCFAMCHA000201132525132555000030Are You Afraid of the Dark(JAN)- Tonight @ 7:30pm                                                                                                              
PGRFAMCHA000201132555132755000200Disney Circle Time - The Greedy Dog (anywhere but                                                                      60688130                                
PROFAMCHA000201132755132836000041Honey I Shrunk the Kids (series oct) Mon & Thurs @                                                                                                             
PRCFAMCHA000201132836132906000030Franklin-next (oct 1)                                                                                                                                          
PROFAMCHA000201132906132945000039Goof Troop - Today @ 3pm                                                                                                                                       
ID FAMCHA000201132945133000000015Afternoon block pinball open **DO NOT USE**                                                                                                                    
PROFAMCHA000201133000133005000005CC Disclaimer (oct) **DO NOT USE**                                                                                                                             
PGRFAMCHA000201133005135258002253Franklin                                          Franklin's Garden/Franklin Runs Away                          B13650 1065607ECC                              
ID FAMCHA000201135258135308000010Generic ID - Hula Hoop                                                                                                                                         
PRCFAMCHA000201135308135315000007Morning Block menu background (flex time)                                                                                                                      
PROFAMCHA000201135315135345000030Jodie Foster Double, Double - Thursday @ 8pm                                                                                                                   
PROFAMCHA000201135345135424000039Goof Troop - Today @ 3pm                                                                                                                                       
PRCFAMCHA000201135424135459000035Little Lulu Show; The - Tonight @ 6:00pm (oct1)                                                                                                                
PGRFAMCHA000201135459135833000334MV Disney - Forever and ever (preschool)                                                                               60688130                                
PROFAMCHA000201135833135900000027Recess - Today @ 5:30 pm (oct1)                                                                                                                                
PROFAMCHA000201135900135945000045Turner & Hooch - Friday at 8pm                                                                                                                                 
ID FAMCHA000201135945140000000015Afternoon block pinball open **DO NOT USE**                                                                                                                    
PGRFAMCHA000201140000141507001507Art Attack                                        1-034                                                                60686110                                
ID FAMCHA000201141507141522000015Interactive bumper w/URL                                                                                                                                       
ID FAMCHA000201141522141537000015Generic ID - confetti                                                                                                                                          
PRCFAMCHA000201141537141547000010Morning Block menu background (flex time)                                                                                                                      
PROFAMCHA000201141547141632000045Turner & Hooch - Friday at 8pm                                                                                                                                 
PRCFAMCHA000201141632141705000033Hoze Houndz - Tonight @ 6:30pm on Family (oct 1)                                                                                                               
PROFAMCHA000201141705141740000035Lion King's Timon & Pumbaa - today @ 4:00pm (OCT 1                                                                                                             
PGRFAMCHA000201141740142249000509Plasmo #5                                                                                                              70688130                                
PROFAMCHA000201142249142319000030Jodie Foster Double, Double - Thursday @ 8pm                                                                                                                   
PROFAMCHA000201142319142359000040Microsoap-Wednesday @ 6:30pm (oct)                                                                                                                             
PGRFAMCHA000201142359142849000450MV Disney - Circle of Life (oct 1)                                                                                     60688130                                
PRCFAMCHA000201142849142923000034Misguided Angels-Monday and Thursday @ 6:45pm (oct                                                                                                             
PROFAMCHA000201142923142950000027Recess - Today @ 5:30 pm (oct1)                                                                                                                                
ID FAMCHA000201142950143000000010Presentation bumper - Magic of Disney                                                                                                                          
PROFAMCHA000201143000143005000005CC Disclaimer (oct) **DO NOT USE**                                                                                                                             
PGRFAMCHA000201143005145242002237Darkwing Duck                                     Planet Of The Capes                                                  6068607ECC                              
ID FAMCHA000201145242145252000010Generic ID - Bubbles                                                                                                                                           
PRCFAMCHA000201145252145302000010Morning Block menu background (flex time)                                                                                                                      
PRCFAMCHA000201145302145337000035Little Lulu Show; The - Tonight @ 6:00pm (oct1)                                                                                                                
PROFAMCHA000201145337145412000035Lion King's Timon & Pumbaa - today @ 4:00pm (OCT 1                                                                                                             
PGRFAMCHA000201145412145811000359MV Disney - Beauty and the beast (oct 1)                                                                               60688130                                
PROFAMCHA000201145811145826000015Doug - Today @ 5:00pm (oct1)                                                                                                                                   
PROFAMCHA000201145826145905000039Goof Troop - Next                                                                                                                                              
PROFAMCHA000201145905145950000045Turner & Hooch - Friday at 8pm                                                                                                                                 
ID FAMCHA000201145950150000000010Presentation bumper - Magic of Disney                                                                                                                          
PROFAMCHA000201150000150005000005CC Disclaimer (oct) **DO NOT USE**                                                                                                                             
PGRFAMCHA000201150005152253002248Goof Troop                                        Terminal Pete                                                        6068607ECC                              
ID FAMCHA000201152253152258000005Generic ID - Couch 1                                                                                                                                           
PRCFAMCHA000201152258152311000013Morning Block menu background (flex time)                                                                                                                      
PROFAMCHA000201152311152346000035Lion King's Timon & Pumbaa - today @ 4:00pm (OCT 1                                                                                                             
PROFAMCHA000201152346152413000027Recess - Today @ 5:30 pm (oct1)                                                                                                                                
PGRFAMCHA000201152413152804000351Art Attack - Puppy Dog                                                                                                 60686130                                
PROFAMCHA000201152804152845000041Honey I Shrunk the Kids (series oct) Mon & Thurs @                                                                                                             
PROFAMCHA000201152845152915000030Jodie Foster Double, Double - Thursday @ 8pm                                                                                                                   
PRCFAMCHA000201152915152950000035Little Lulu Show; The - Tonight @ 6:00pm (oct1)                                                                                                                
ID FAMCHA000201152950153000000010Presentation bumper - Magic of Disney                                                                                                                          
PROFAMCHA000201153000153005000005CC Disclaimer (oct) **DO NOT USE**                                                                                                                             
PGRFAMCHA000201153005155244002239Disney's Aladdin                                  Strike Up The Sand                                                  A6068607ECC                              
ID FAMCHA000201155244155254000010Generic ID - Bubbles                                                                                                                                           
PRCFAMCHA000201155254155304000010Morning Block menu background (flex time)                                                                                                                      
PROFAMCHA000201155304155334000030Jodie Foster Double, Double - Thursday @ 8pm                                                                                                                   
PROFAMCHA000201155334155414000040Microsoap-Wednesday @ 6:30pm (oct)                                                                                                                             
PROFAMCHA000201155414155436000022Hercules - Today @ 4:30 pm (oct 1)                                                                                                                             
PGRFAMCHA000201155436155714000238MV Disney - Lion King 2: We are One (oct)                                                                              60688130                                
PRCFAMCHA000201155714155747000033Hoze Houndz - Tonight @ 6:30pm on Family (oct 1)                                                                                                               
PGRFAMCHA000201155747155844000057Frankenguy and the Professor - sleepy                                                                                  60688130                                
PROFAMCHA000201155844155929000045Turner & Hooch - Friday at 8pm                                                                                                                                 
PROFAMCHA000201155929155950000021Recess - Today @ 5:30 pm (oct1)                                                                                                                                
ID FAMCHA000201155950160000000010Presentation bumper - Magic of Disney                                                                                                                          
PROFAMCHA000201160000160005000005CC Disclaimer (oct) **DO NOT USE**                                                                                                                             
PGRFAMCHA000201160005162140002135Movie Surfers Go Inside Disney's Tarzan                                                                               A60688110CC                              
ID FAMCHA000201162140162155000015Interactive bumper w/URL                                                                                                                                       
ID FAMCHA000201162155162202000007Generic ID - Whisper                                                                                                                                           
PROFAMCHA000201162202162247000045Turner & Hooch - Friday at 8pm                                                                                                                                 
PROFAMCHA000201162247162309000022Disney's One Too - Next (Oct 1)                                                                                                                                
PROFAMCHA000201162309162339000030Jodie Foster Double, Double - Thursday @ 8pm                                                                                                                   
PGRFAMCHA000201162339162543000204Music Break - Little Mermaid: In Harmony                                                                               60688130                                
PROFAMCHA000201162543162615000032Sherlock Holmes - Tonight @ midnight (oct)                                                                                                                     
PGRFAMCHA000201162615162735000120Bill Nye - Whether the Weather                                                                                         60688130                                
PRCFAMCHA000201162735162823000048Ripley's BION - Today @ 11am (MAR)                                                                                                                             
PRCFAMCHA000201162823162853000030Are You Afraid of the Dark(JAN)- Tonight @ 7:30pm                                                                                                              
PROFAMCHA000201162853162915000022Hercules - Next (oct 1)*                                                                                                                                       
PRCFAMCHA000201162915162950000035Little Lulu Show; The - Tonight @ 6:00pm (oct1)                                                                                                                
ID FAMCHA000201162950163000000010Presentation bumper - Magic of Disney                                                                                                                          
PROFAMCHA000201163000163030000030Disney's One Too - Opening                                                                                                                                     
PGRFAMCHA000201163030165329002259Disney's Hercules                                 Hercules And The Grim Avenger                                        6068607ECC                              
ID FAMCHA000201165329165334000005Generic ID - Couch 1                                                                                                                                           
PRCFAMCHA000201165334165343000009Morning Block menu background (flex time)                                                                                                                      
PRCFAMCHA000201165343165416000033Hoze Houndz - Tonight @ 6:30pm on Family (oct 1)                                                                                                               
PGRFAMCHA000201165416165437000021Doug Sketches - Big Book of Dating for Boys - Pare                                                                     60686130                                
PGRFAMCHA000201165437165559000122Disney Dinner Time(04)- Harry Houdini (D12 Only)                                                                       60686130                                
PGRFAMCHA000201165559165620000021Doug Sketches - Judy and her Giant Egg                                                                                 60686130                                
PGRFAMCHA000201165620165724000104Bill Nye - Let's Talk About Stress                                                                                     60688130                                
PGRFAMCHA000201165724165754000030Disney Magic Drawings(02)- Tigger (D12 only)                                                                           60686130                                
PGRFAMCHA000201165754165815000021Doug Sketches - Skunky's Word of the Day                                                                               60686130                                
PROFAMCHA000201165815165845000030Jodie Foster Double, Double - Thursday @ 8pm                                                                                                                   
PROFAMCHA000201165845165900000015Doug - Next (oct1)                                                                                                                                             
PROFAMCHA000201165900165945000045Turner & Hooch - Friday at 8pm                                                                                                                                 
ID FAMCHA000201165945170000000015Afternoon block pinball open w/burp                                                                                                                            
PROFAMCHA000201170000170030000030Disney's One Too - Opening                                                                                                                                     
PGRFAMCHA000201170030172257002227Disney's Doug                                     Quailman Takes the Blame                                             6068607E                                
ID FAMCHA000201172257172307000010Generic ID - confetti                                                                                                                                          
PRCFAMCHA000201172307172318000011Morning Block menu background (flex time)                                                                                                                      
PROFAMCHA000201172318172348000030Jodie Foster Double, Double - Thursday @ 8pm                                                                                                                   
PGRFAMCHA000201172348172409000021Recess Sketches - Cajoling Gus - Hair Gus                                                                              60286130                                
PRCFAMCHA000201172409172442000033Hoze Houndz - Tonight @ 6:30pm on Family (oct 1)                                                                                                               
PGRFAMCHA000201172442172503000021Recess Sketches - Gretchen's Inventions - Can Open                                                                     60686130                                
PGRFAMCHA000201172503172654000151Disney Magic Shop(09)- Four Ace Trick (D12 only)                                                                       60686130                                
PGRFAMCHA000201172654172715000021Recess Sketches - Telephone                                                                                            60686130                                
PRCFAMCHA000201172715172750000035Little Lulu Show; The - Tonight @ 6:00pm (oct1)                                                                                                                
PGRFAMCHA000201172750172811000021Recess Sketches - Kindergartner's Surprise - ABC's                                                                     60686130                                
PRCFAMCHA000201172811172833000022Mentors - Version 1 - Friday @ 6pm                                                                                                                             
PROFAMCHA000201172833172900000027Recess - Next (oct1)                                                                                                                                           
PROFAMCHA000201172900172945000045Turner & Hooch - Friday at 8pm                                                                                                                                 
ID FAMCHA000201172945173000000015Afternoon block pinball open **DO NOT USE**                                                                                                                    
PROFAMCHA000201173000173030000030Disney's One Too - Opening                                                                                                                                     
PGRFAMCHA000201173030175305002235Disney's Recess                                   First Name Ashley/To Finster With Love                               6068607E                                
ID FAMCHA000201175305175315000010Generic ID - Family w/dog                                                                                                                                      
PRCFAMCHA000201175315175326000011Morning Block menu background (flex time)                                                                                                                      
PROFAMCHA000201175326175356000030Jodie Foster Double, Double - Thursday @ 8pm                                                                                                                   
PROFAMCHA000201175356175436000040Microsoap-Wednesday @ 6:30pm (oct)                                                                                                                             
PGRFAMCHA000201175436175547000111Mix Ups - Spring cleaning                                                                                              60688130                                
PROFAMCHA000201175547175604000017Mentors - Version 2 - Friday @ 6pm                                                                                                                             
PGRFAMCHA000201175604175749000145Disney Circle Time - My Shadow (anywhere but D12)                                                                      60688130                                
PRCFAMCHA000201175749175819000030Are You Afraid of the Dark(JAN)- Tonight @ 7:30pm                                                                                                              
PRCFAMCHA000201175819175854000035Little Lulu Show; The - Next (oct1)                                                                                                                            
PROFAMCHA000201175854175939000045Turner & Hooch - Friday at 8pm                                                                                                                                 
ID FAMCHA000201175939180000000021Prime time open count down                                                                                                                                     
PROFAMCHA000201180000180005000005CC Disclaimer (oct) **DO NOT USE**                                                                                                                             
PGRFAMCHA000201180005182357002352Little Lulu Show; The                             Detective Story/Swan Shot Pops/The Old Master                 B03817A1065607ECC                              
ID FAMCHA000201182357182407000010Generic ID - Pink inner tube                                                                                                                                   
PROFAMCHA000201182407182449000042Gargoyles-Tonight @ 7:00 pm (Oct 1)                                                                                                                            
PROFAMCHA000201182449182519000030Jodie Foster Double, Double - Thursday @ 8pm                                                                                                                   
PROFAMCHA000201182519182551000032Sherlock Holmes - Tonight @ midnight (oct)                                                                                                                     
PGRFAMCHA000201182551182751000200Disney Circle Time - The Lion & The Mouse Fable (a                                                                     60688130                                
PROFAMCHA000201182751182821000030Crash Zone - Saturday @10 am                                                                                                                                   
PRCFAMCHA000201182821182854000033Hoze Houndz - Next (oct 1)                                                                                                                                     
PROFAMCHA000201182854182939000045Turner & Hooch - Friday at 8pm                                                                                                                                 
ID FAMCHA000201182939183000000021Prime time open count down                                                                                                                                     
PROFAMCHA000201183000183005000005CC Disclaimer (oct) **DO NOT USE**                                                                                                                             
PGRFAMCHA000201183005185241002236Hoze Houndz **FLAGGED FOR WTC**                   Hypnohoundz/Houndz in Space                                   B17125A1065607ECC                              
ID FAMCHA000201185241185246000005Generic ID - Couch 2                                                                                                                                           
PRCFAMCHA000201185246185254000008Morning Block menu background (flex time)                                                                                                                      
PROFAMCHA000201185254185339000045Turner & Hooch - Friday at 8pm                                                                                                                                 
PROFAMCHA000201185339185420000041Honey I Shrunk the Kids (series oct) Mon & Thurs @                                                                                                             
PROFAMCHA000201185420185452000032Sherlock Holmes - Tonight @ midnight (oct)                                                                                                                     
PGRFAMCHA000201185452185637000145Disney Circle Time - My Shadow (anywhere but D12)                                                                      60688130                                
PROFAMCHA000201185637185654000017Mentors - Version 2 - Friday @ 6pm                                                                                                                             
PGRFAMCHA000201185654185835000141Bill Nye - Whatta Brain                                                                                                60688130                                
PROFAMCHA000201185835185917000042Gargoyles-Next (Oct 1)                                                                                                                                         
PRCFAMCHA000201185917185939000022Are You Afraid of the Dark - Tonight @ 7:30pm (oct                                                                                                             
ID FAMCHA000201185939190000000021Prime time open count down                                                                                                                                     
PGRFAMCHA000201190000192250002250Gargoyles                                         I'll Meet By Moonlight                                               6068607E                                
ID FAMCHA000201192250192300000010Generic ID - soccer **DO NOT USE**                                                                                                                             
PRCFAMCHA000201192300192310000010Morning Block menu background (flex time)                                                                                                                      
PROFAMCHA000201192310192351000041Honey I Shrunk the Kids (series oct) Mon & Thurs @                                                                                                             
PROFAMCHA000201192351192431000040Microsoap-Wednesday @ 6:30pm (oct)                                                                                                                             
PGRFAMCHA000201192431192802000331MV Disney - Baby Mine (Alison Krauss)                                                                                  60688130                                
PROFAMCHA000201192802192847000045Turner & Hooch - Friday at 8pm                                                                                                                                 
PRCFAMCHA000201192847192909000022Are You Afraid of the Dark - Next (oct1)                                                                                                                       
PROFAMCHA000201192909192939000030Jodie Foster Double, Double - Thursday @ 8pm                                                                                                                   
ID FAMCHA000201192939193000000021Prime time open count down                                                                                                                                     
PGRFAMCHA000201193000195452002452Are You Afraid Of The Dark?                       The Tale of the Pinball Wizard                                SR0302 1066807A                                
ID FAMCHA000201195452195507000015Interactive bumper w/URL                                                                                                                                       
ID FAMCHA000201195507195512000005Generic ID - Couch 2                                                                                                                                           
PROFAMCHA000201195512195554000042Gargoyles-Tonight @ 11:30 pm (Oct 1)                                                                                                                           
PROFAMCHA000201195554195634000040Microsoap-Wednesday @ 6:30pm (oct)                                                                                                                             
PGRFAMCHA000201195634195727000053Bill Nye - Friction Happens                                                                                            60688130                                
PRCFAMCHA000201195727195802000035Little Lulu Show; The - Saturday @ 6:30pm (oct1)                                                                                                               
PROFAMCHA000201195802195854000052Great African Wildlife Rescue - Sunday at 2pm on F                                                                                                             
PROFAMCHA000201195854195939000045Turner & Hooch - Friday at 8pm                                                                                                                                 
ID FAMCHA000201195939200000000021Move open family size movie                                                                                                                                    
PROFAMCHA000201200000200007000007Rating - G (oct )                                                                                                                                              
PGRFAMCHA000201200007213737013730Great Muppet Caper; The                                                                                               A3068807D                                
ID FAMCHA000201213737213752000015Interactive bumper w/URL                                                                                                                                       
ID FAMCHA000201213752213802000010Generic ID - confetti                                                                                                                                          
PRCFAMCHA000201213802213810000008Morning Block menu background (flex time)                                                                                                                      
PROFAMCHA000201213810213855000045Turner & Hooch - Friday at 8pm                                                                                                                                 
PROFAMCHA000201213855213917000022Hercules - Weekdays @ 4:30 pm (Oct 1)                                                                                                                          
PROFAMCHA000201213917213959000042Gargoyles-Tonight @ 11:30 pm (Oct 1)                                                                                                                           
PGRFAMCHA000201213959214255000256MV Disney - Strangers Like Me (oct)                                                                                    60688130                                
PROFAMCHA000201214255214347000052Great African Wildlife Rescue - Sunday at 2pm on F                                                                                                             
PRCFAMCHA000201214347214409000022Are You Afraid of the Dark - Tonight @ 11pm (oct1)                                                                                                             
PROFAMCHA000201214409214439000030Jodie Foster Double, Double - Thursday @ 8pm                                                                                                                   
ID FAMCHA000201214439214500000021Move open family size movie                                                                                                                                    
PROFAMCHA000201214500214507000007Rating - G (oct )                                                                                                                                              
PROFAMCHA000201214507214512000005CC Disclaimer (oct) **DO NOT USE**                                                                                                                             
ID FAMCHA000201214512214522000010Presentation bumper - Magic of Disney                                                                                                                          
PGRFAMCHA000201214522232844014322Cat From Outer Space; The                                                                                             A6068807DCC                              
ID FAMCHA000201232844232854000010Generic ID - Bubbles                                                                                                                                           
PROFAMCHA000201232854232939000045Turner & Hooch - Friday at 8pm                                                                                                                                 
ID FAMCHA000201232939233000000021Prime time open count down                                                                                                                                     
PGRFAMCHA000201233000235254002254Gargoyles                                         Temptation                                                           6068607E                                
ID FAMCHA000201235254235309000015Interactive bumper w/URL                                                                                                                                       
ID FAMCHA000201235309235314000005Generic ID - Fingerpaint                                                                                                                                       
PROFAMCHA000201235314235344000030Jodie Foster Double, Double - Thursday @ 8pm                                                                                                                   
PROFAMCHA000201235344235426000042Gargoyles-Monday thru Thursday 11:30 pm (Oct 1)                                                                                                                
PGRFAMCHA000201235426235826000400Music Video - Angelique Kidjo (oct 1)                                                                                  60688130                                
PROFAMCHA000201235826235858000032Sherlock Holmes - Next (oct)                                                                                                                                   
PROFAMCHA000201235858235939000041Honey I Shrunk the Kids (series oct) Mon & Thurs @                                                                                                             
ID FAMCHA000201235939000000000021Prime time open count down                                                                                                                                     
PROFAMCHA000201000000000005000005CC Disclaimer (oct) **DO NOT USE**                                                                                                                             
PGRFAMCHA000201000005002223002218Sherlock Holmes In The 22nd Century               1-022                                                                6068607ECC                              
ID FAMCHA000201002223002228000005Generic ID - Couch 2                                                                                                                                           
PROFAMCHA000201002228002313000045Turner & Hooch - Friday at 8pm                                                                                                                                 
PROFAMCHA000201002313002355000042Gargoyles-Monday thru Thursday 11:30 pm (Oct 1)                                                                                                                
PGRFAMCHA00020100235500245500010060 Seconds of Science - Balloons(14) (anywhere but                                                                     60688130                                
PRCFAMCHA000201002455002517000022Mentors - Version 1 - Friday @ 6pm                                                                                                                             
PGRFAMCHA000201002517002824000307Part Of Your World - Jodi Benson                                                                                       60688130                                
PROFAMCHA000201002824002905000041Honey I Shrunk the Kids (series oct) Mon & Thurs @                                                                                                             
PRCFAMCHA000201002905002939000034Misguided Angels-Monday and Thursday @ 6:45pm (oct                                                                                                             
ID FAMCHA000201002939003000000021Prime time open count down                                                                                                                                     
PGRFAMCHA000201003000005345002345Clarissa                                          The Flu                                                              2068607B                                
ID FAMCHA000201005345005355000010Generic ID - Family w/dog                                                                                                                                      
PROFAMCHA000201005355005440000045Turner & Hooch - Friday at 8pm                                                                                                                                 
PROFAMCHA000201005440005512000032Sherlock Holmes - Monday through Thursday @ midnig                                                                                                             
PGRFAMCHA00020100551200561200010060 Seconds of Science - Black Light (anywhere but                                                                      60688130                                
PROFAMCHA000201005612005627000015Doug - Weekdays @ 5:00 pm (oct1)                                                                                                                               
PROFAMCHA000201005627005709000042Gargoyles-Tuesdays and Wednesdays @ 7:00 pm (Oct 1                                                                                                             
PROFAMCHA000201005709005739000030Jodie Foster Double, Double - Thursday @ 8pm                                                                                                                   
PGRFAMCHA000201005739010201000422MV Disney - True to your heart (oct 1)                                                                                 60688130                                
SO FAMCHA000201010201010213000012Sign Off (oct 1)                                                                                                                                               
OFFFAMCHA000201010213043000032747                                                                                                                                                               
OFFFAMCHA000202043000060000013000                                                                                                                                                               
SO FAMCHA000202060000060011000011Sign On (oct 1)                                                                                                                                                
PROFAMCHA000202060011060016000005CC Disclaimer (oct) **DO NOT USE**                                                                                                                             
PGRFAMCHA000202060016062406002350Hello Mrs. Cherrywinkle                           Kitty And The Wild Wind                                       B18893A1065607ACC                              
ID FAMCHA000202062406062416000010Generic ID - Bubbles                                                                                                                                           
PRCFAMCHA000202062416062425000009Morning Block menu background (flex time)                                                                                                                      
PROFAMCHA000202062425062510000045Turner & Hooch - Friday at 8pm                                                                                                                                 
PROFAMCHA000202062510062615000105Adventures of Gummi Bears-Today @ 8am on Family (o                                                                                                             
PRCFAMCHA000202062615062645000030Franklin-weekdays @ 7:00am (oct 1)                                                                                                                             
PGRFAMCHA000202062645062840000155Disney Moments - Peter Pan-You Can Fly                                                                                 60688130                                
PROFAMCHA000202062840062910000030Jodie Foster Double, Double - Thursday @ 8pm                                                                                                                   
PROFAMCHA000202062910062940000030Willy Wonka (FEB) - Saturday @ 8pm                                                                                                                             
ID FAMCHA000202062940063000000020Morning block open play pen                                                                                                                                    
PROFAMCHA000202063000063005000005CC Disclaimer (oct) **DO NOT USE**                                                                                                                             
PGRFAMCHA000202063005065415002410Busy World Of Richard Scarry; The                 Now I Know My 1,2,3'S/Forget-Bur Never Forgets/Too            B24406 1165607ECC                              
ID FAMCHA000202065415065420000005Generic ID - Bubbles                                                                                                                                           
PRCFAMCHA000202065420065430000010Morning Block menu background (flex time)                                                                                                                      
PROFAMCHA000202065430065500000030Willy Wonka (FEB) - Saturday @ 8pm                                                                                                                             
PROFAMCHA000202065500065539000039Goof Troop - Today @ 3pm                                                                                                                                       
PGRFAMCHA000202065539065720000141Mix Ups - Mixed up messages                                                                                            60688130                                
PROFAMCHA000202065720065825000105Adventures of Gummi Bears-Today @ 8am on Family (o                                                                                                             
PRCFAMCHA000202065825065855000030Franklin-next (oct 1)                                                                                                                                          
PROFAMCHA000202065855065940000045Turner & Hooch - Friday at 8pm                                                                                                                                 
ID FAMCHA000202065940070000000020Morning block open play pen                                                                                                                                    
PROFAMCHA000202070000070005000005CC Disclaimer (oct) **DO NOT USE**                                                                                                                             
PGRFAMCHA000202070005072258002253Franklin                                          Franklin & The Gloomy Day/Franklin Tells Time                 B13651 1065607ECC                              
ID FAMCHA000202072258072313000015Generic ID - confetti                                                                                                                                          
PRCFAMCHA000202072313072321000008Morning Block menu background (flex time)                                                                                                                      
PROFAMCHA000202072321072406000045Turner & Hooch - Friday at 8pm                                                                                                                                 
PROFAMCHA000202072406072511000105Adventures of Gummi Bears-Today @ 8am on Family (o                                                                                                             
PROFAMCHA000202072511072541000030Jodie Foster Double, Double - Thursday @ 8pm                                                                                                                   
PGRFAMCHA000202072541072806000225Art Attack - Snooker                                                                                                   60686130                                
PRCFAMCHA000202072806072841000035Little Lulu Show; The - Weekdays @ 1:00pm (oct1)                                                                                                               
PROFAMCHA000202072841072920000039Goof Troop - Next                                                                                                                                              
PROFAMCHA000202072920072950000030Willy Wonka (FEB) - Saturday @ 8pm                                                                                                                             
ID FAMCHA000202072950073000000010Presentation bumper - Magic of Disney                                                                                                                          
PROFAMCHA000202073000073005000005CC Disclaimer (oct) **DO NOT USE**                                                                                                                             
PGRFAMCHA000202073005075251002246Goof Troop                                        Fool's Gold                                                          6068607ECC                              
ID FAMCHA000202075251075301000010Generic ID - confetti                                                                                                                                          
PROFAMCHA000202075301075331000030Willy Wonka (FEB) - Saturday @ 8pm                                                                                                                             
PROFAMCHA000202075331075348000017Hercules - Today @ 4:30 pm (Oct 1)                                                                                                                             
PRCFAMCHA000202075348075418000030Franklin-weekdays @ 1:30pm (oct 1)                                                                                                                             
PGRFAMCHA000202075418075725000307MV Disney - Part of your world (oct 1)                                                                                 60688130                                
PRCFAMCHA000202075725075800000035Little Lulu Show; The - Weekdays @ 1:00pm (oct1)                                                                                                               
PROFAMCHA000202075800075905000105Adventures of Gummi Bears-Next on Family (oct)                                                                                                                 
PROFAMCHA000202075905075950000045Turner & Hooch - Friday at 8pm                                                                                                                                 
ID FAMCHA000202075950080000000010Presentation bumper - Magic of Disney                                                                                                                          
PROFAMCHA000202080000080005000005CC Disclaimer (oct) **DO NOT USE**                                                                                                                             
PGRFAMCHA000202080005082233002228Adventures of the Gummi Bears; The                Rocking Chair Bear                                                   6068607ECC                              
ID FAMCHA000202082233082238000005Generic ID - Couch 1                                                                                                                                           
PRCFAMCHA000202082238082246000008Morning Block menu background (flex time)                                                                                                                      
PROFAMCHA000202082246082331000045Turner & Hooch - Friday at 8pm                                                                                                                                 
PROFAMCHA000202082331082401000030Out of The Box - Monday, Wednesday, and Friday @ 1                                                                                                             
PROFAMCHA000202082401082431000030Jodie Foster Double, Double - Thursday @ 8pm                                                                                                                   
PGRFAMCHA000202082431082746000315Art Attack - Sailing Ship                                                                                              60686130                                
PROFAMCHA000202082746082825000039Goof Troop - Today @ 3pm                                                                                                                                       
PROFAMCHA000202082825082910000045PB&J Otter - Next (oct 1)                                                                                                                                      
PROFAMCHA000202082910082940000030Willy Wonka (FEB) - Saturday @ 8pm                                                                                                                             
ID FAMCHA000202082940083000000020Morning block open play pen                                                                                                                                    
PROFAMCHA000202083000083005000005CC Disclaimer (oct) **DO NOT USE**                                                                                                                             
PGRFAMCHA000202083005085335002330PB&J Otter                                        Butter's First Check-Up/Legend of Pond De L'Otter                   A6068607ECC                              
ID FAMCHA000202085335085340000005Generic ID - Couch 2                                                                                                                                           
PRCFAMCHA000202085340085350000010Morning Block menu background (flex time)                                                                                                                      
PROFAMCHA000202085350085420000030Willy Wonka (FEB) - Saturday @ 8pm                                                                                                                             
PROFAMCHA000202085420085520000100Morning Block - Generic                                                                                                                                        
PGRFAMCHA000202085520085745000225MV Disney - T&P - Yummy,Yummy,Yummy                                                                                    60688130                                
PROFAMCHA000202085745085815000030Out of The Box - Monday, Wednesday, and Friday @ 1                                                                                                             
PROFAMCHA000202085815085900000045Turner & Hooch - Friday at 8pm                                                                                                                                 
PRCFAMCHA000202085900090000000100Morning Block - Babar next/Nilus/Katie                                                                                                                         
PROFAMCHA000202090000090005000005CC Disclaimer (oct) **DO NOT USE**                                                                                                                             
PGRFAMCHA000202090005092316002311Babar                                             A Tale Of Two Siblings                                        C07575 1065607ECC                              
ID FAMCHA000202092316092326000010Generic ID - Family w/dog                                                                                                                                      
PRCFAMCHA000202092326092338000012Morning Block menu background (flex time)                                                                                                                      
PROFAMCHA000202092338092400000022Hercules - Today @ 4:30 pm (oct 1)                                                                                                                             
PROFAMCHA000202092400092500000100Morning Block - Nilus next/Katie/Billy                                                                                                                         
PROFAMCHA000202092500092505000005CC Disclaimer (oct) **DO NOT USE**                                                                                                                             
PGRFAMCHA000202092505094840002335Nilus The Sandman                                 House Of Horrors                                              B06996 1065607ECC                              
ID FAMCHA000202094840094845000005Generic ID - Fingerpaint                                                                                                                                       
PRCFAMCHA000202094845094855000010Morning Block menu background (flex time)                                                                                                                      
PROFAMCHA000202094855095000000105Adventures of Gummi Bears-Monday to Friday @ 8am (                                                                                                             
PROFAMCHA000202095000095100000100Morning Block - Katie next/Billy/Busy World                                                                                                                    
PROFAMCHA000202095100095105000005CC Disclaimer (oct) **DO NOT USE**                                                                                                                             
PGRFAMCHA000202095105101740002635Katie And Orbie                                   The Garage Sale/The Big Heart/How Does The Band Fi            C11896 1065607ECC                              
PROFAMCHA000202101740101840000100Morning Block - Billy next/Busy World/Art Attack                                                                                                               
PROFAMCHA000202101840101845000005CC Disclaimer (oct) **DO NOT USE**                                                                                                                             
PGRFAMCHA000202101845104307002422Billy The Cat                                     Hubert & The Siamese Siren                                    B27645A1065607ECC                              
PROFAMCHA000202104307104407000100Morning Block - Busy World next/Art Attack                                                                                                                     
PROFAMCHA000202104407104412000005CC Disclaimer (oct) **DO NOT USE**                                                                                                                             
PGRFAMCHA000202104412110821002409Busy World Of Richard Scarry; The                 Sleepover/Count On Us/Mystery Of The Stone Circle             B24407 1165607ECC                              
PROFAMCHA000202110821110921000100Morning Block - Art Attack next                                                                                                                                
PGRFAMCHA000202110921112428001507Art Attack                                        1-034                                                                60686110                                
ID FAMCHA000202112428112433000005Generic ID - Fingerpaint                                                                                                                                       
PRCFAMCHA000202112433112440000007Morning Block menu background (flex time)                                                                                                                      
PROFAMCHA000202112440112540000100Morning Block - Generic                                                                                                                                        
PROFAMCHA000202112540112625000045Turner & Hooch - Friday at 8pm                                                                                                                                 
PROFAMCHA000202112625112640000015Disney's One Too - today @ 4:30 (Oct 1)                                                                                                                        
PROFAMCHA000202112640112710000030Jodie Foster Double, Double - Thursday @ 8pm                                                                                                                   
PGRFAMCHA000202112710112840000130Disney Circle Time - Growing Smiles (anywhere but                                                                      60688130                                
PROFAMCHA000202112840112910000030Out of The Box - Next (oct1)                                                                                                                                   
PROFAMCHA000202112910112940000030Willy Wonka (FEB) - Saturday @ 8pm                                                                                                                             
ID FAMCHA000202112940113000000020Morning block open play pen                                                                                                                                    
PGRFAMCHA000202113000115221002221Out of the Box                                    Scrub a Dub                                                          60286110CC                              
ID FAMCHA000202115221115236000015Interactive bumper w/URL                                                                                                                                       
ID FAMCHA000202115236115246000010Generic ID - soccer **DO NOT USE**                                                                                                                             
PRCFAMCHA000202115246115258000012Morning Block menu background (flex time)                                                                                                                      
PROFAMCHA000202115258115328000030Willy Wonka (FEB) - Saturday @ 8pm                                                                                                                             
PROFAMCHA000202115328115358000030Crash Zone - Saturday @10 am                                                                                                                                   
PGRFAMCHA000202115358115800000402MV Disney - A Whole New World (oct)                                                                                    60688130                                
PRCFAMCHA000202115800115830000030Gadget Boy - Saturday @ 9am                                                                                                                                    
PROFAMCHA000202115830115905000035Lion King's Timon & Pumbaa - next (OCT 1)                                                                                                                      
PROFAMCHA000202115905115950000045Turner & Hooch - Friday at 8pm                                                                                                                                 
ID FAMCHA000202115950120000000010Presentation bumper - Magic of Disney                                                                                                                          
PROFAMCHA000202120000120005000005CC Disclaimer (oct) **DO NOT USE**                                                                                                                             
PGRFAMCHA000202120005122248002243Lion King's Timon & Pumbaa; The                   Uganda Be An Elephant/To Kilimanjaro Bird                            6068607ECC                              
ID FAMCHA000202122248122255000007Generic ID - Whisper                                                                                                                                           
PRCFAMCHA000202122255122309000014Morning Block menu background (flex time)                                                                                                                      
PROFAMCHA000202122309122354000045Turner & Hooch - Friday at 8pm                                                                                                                                 
PROFAMCHA000202122354122446000052Great African Wildlife Rescue - Sunday at 2pm on F                                                                                                             
PGRFAMCHA000202122446122845000359MV Disney - Beauty and the beast (oct 1)                                                                               60688130                                
PROFAMCHA000202122845122915000030Jodie Foster Double, Double - Thursday @ 8pm                                                                                                                   
PROFAMCHA000202122915122945000030Willy Wonka (FEB) - Saturday @ 8pm                                                                                                                             
ID FAMCHA000202122945123000000015Afternoon block pinball open **DO NOT USE**                                                                                                                    
PGRFAMCHA000202123000125337002337Clarissa                                          ESP R-Us                                                             2068607B                                
ID FAMCHA000202125337125344000007Generic ID - Whisper                                                                                                                                           
PRCFAMCHA000202125344125352000008Morning Block menu background (flex time)                                                                                                                      
PROFAMCHA000202125352125422000030Willy Wonka (FEB) - Saturday @ 8pm                                                                                                                             
PRCFAMCHA000202125422125455000033Hoze Houndz - Saturday @ 7:00pm                                                                                                                                
PGRFAMCHA000202125455125744000249MV Disney - Never alone (oct 1)                                                                                        60688130                                
PROFAMCHA000202125744125825000041Honey I Shrunk the Kids (series oct) Mon & Thurs @                                                                                                             
PRCFAMCHA000202125825125900000035Little Lulu Show; The - Next (oct1)                                                                                                                            
PROFAMCHA000202125900125945000045Turner & Hooch - Friday at 8pm                                                                                                                                 
ID FAMCHA000202125945130000000015Afternoon block pinball open w/burp                                                                                                                            
PROFAMCHA000202130000130005000005CC Disclaimer (oct) **DO NOT USE**                                                                                                                             
PGRFAMCHA000202130005132356002351Little Lulu Show; The                             The Case of the Missing Wig/Froglegs/A Wrong Move             B03818A1065607ECC                              
ID FAMCHA000202132356132411000015Interactive bumper w/URL                                                                                                                                       
ID FAMCHA000202132411132421000010Generic ID - Bubbles                                                                                                                                           
PRCFAMCHA000202132421132432000011Morning Block menu background (flex time)                                                                                                                      
PROFAMCHA000202132432132517000045Turner & Hooch - Friday at 8pm                                                                                                                                 
PROFAMCHA000202132517132552000035Lion King's Timon & Pumbaa - today @ 4:00pm (OCT 1                                                                                                             
PROFAMCHA000202132552132622000030Jodie Foster Double, Double - Thursday @ 8pm                                                                                                                   
PGRFAMCHA000202132622132805000143MV Disney - Siamese Cat Song (oct)                                                                                     60688130                                
PROFAMCHA000202132805132845000040Microsoap-Tonight @ 6:30pm (oct)                                                                                                                               
PRCFAMCHA000202132845132915000030Franklin-next (oct 1)                                                                                                                                          
PROFAMCHA000202132915132945000030Willy Wonka (FEB) - Saturday @ 8pm                                                                                                                             
ID FAMCHA000202132945133000000015Afternoon block pinball open **DO NOT USE**                                                                                                                    
PROFAMCHA000202133000133005000005CC Disclaimer (oct) **DO NOT USE**                                                                                                                             
PGRFAMCHA000202133005135258002253Franklin                                          Franklin & The Gloomy Day/Franklin Tells Time                 B13651 1065607ECC                              
ID FAMCHA000202135258135303000005Generic ID - Bubbles                                                                                                                                           
PRCFAMCHA000202135303135314000011Morning Block menu background (flex time)                                                                                                                      
PROFAMCHA000202135314135344000030Willy Wonka (FEB) - Saturday @ 8pm                                                                                                                             
PRCFAMCHA000202135344135406000022Mentors - Version 1 - Friday @ 6pm                                                                                                                             
PGRFAMCHA000202135406135826000420MV Disney - Someday (oct 1)                                                                                            60688130                                
PRCFAMCHA000202135826135900000034Misguided Angels-Monday and Thursday @ 6:45pm (oct                                                                                                             
PROFAMCHA000202135900135945000045Turner & Hooch - Friday at 8pm                                                                                                                                 
ID FAMCHA000202135945140000000015Afternoon block pinball open w/burp                                                                                                                            
PGRFAMCHA000202140000141508001508Art Attack                                        1-035                                                                60286110                                
ID FAMCHA000202141508141513000005Generic ID - Fingerpaint                                                                                                                                       
