SO FAMCHA070701043000043011000011Sign On (oct 1)                                                                                                                                                
PRCFAMCHA070701043011043020000009CC Disclaimer - FAST - Family.ca (:08-:10) $$$                                                                              150                                
PGRFAMCHA070701043020045425002405Henry's World                                     EPS # 2-024                                                   B81055A1065607GCC                              
PRCFAMCHA070701045425045430000005Astral ID (FEB05)                                                                                                           150                                
PRCFAMCHA070701045430045445000015xxPH - 01 - BEN/FRANNY/KING (SAT/SUN) (JUNE06) (:1                                                                          150                                
ID FAMCHA070701045445045458000013PS Playhouse AM Block Open (:10-:15) $$$                                                                                    150                                
PRCFAMCHA070701045458045507000009CC Disclaimer - FAST - Generic (:08-:10) $$$                                                                                150                                
PGRFAMCHA070701045507051742002235The Secret World Of Benjamin Bear                 EPS # 1-011                                                   B75156 1065607ECC                              
PRCFAMCHA070701051742051757000015xxPH - 02 - FRANNY/KING (SAT/SUN) (JUNE06) (:14 -                                                                           150                                
ID FAMCHA070701051757051810000013PS Playhouse AM Block Open (:10-:15) $$$                                                                                    150                                
PRCFAMCHA070701051810051819000009CC Disclaimer - FAST - Family.ca (:08-:10) $$$                                                                              150                                
PGRFAMCHA070701051819054049002230Franny's Feet                                     EPS # 24                                                      C23971 1065607ECC                              
PRCFAMCHA070701054049054054000005Astral ID (FEB05)                                                                                                           150                                
PRCFAMCHA070701054054054109000015xxPH - 03 - KING (SAT/SUN) (JUNE06) (:14 - :16) $$                                                                          150                                
ID FAMCHA070701054109054122000013PS Playhouse AM Block Open (:10-:15) $$$                                                                                    150                                
PRCFAMCHA070701054122054131000009CC Disclaimer - FAST - Generic (:08-:10) $$$                                                                                150                                
PGRFAMCHA070701054131060401002230King                                              EPS # 2-023                                                   B75778 1065607ECC                              
PROFAMCHA070701060401060419000018Jetix Block Open $$$ (:18-:21)                                                                                              150                                
PGRFAMCHA070701060419062700002241Oban Star Racers                                  EP: 17                                                               2068607E                                
PRCFAMCHA070701062700062705000005Astral ID (FEB05)                                                                                                           150                                
PROFAMCHA070701062705062728000023xxWITCH (JETIX) - This morning @ 7:20 (Sept06)                                                                              150                                
PRCFAMCHA070701062728062758000030Famous Players Popcorn Parties 2 (May 2-Jan 31/08)                                                                          150                                
PRCFAMCHA070701062758062841000043xxRoad to HSM 2 Promo - Every Friday Night                                                                                  150                                
PROFAMCHA070701062841062900000019Jetix Block Open $$$ (:18-:21)                                                                                              150                                
PRCFAMCHA070701062900062909000009CC Disclaimer - FAST - Family.ca (:08-:10) $$$                                                                              150                                
PGRFAMCHA070701062909065148002239Power Rangers:  Operation Overdrive               EP: 03                                                               2068607ECC                              
PROFAMCHA070701065148065211000023xxWITCH (JETIX) - This morning @ 7:20 (Sept06)                                                                              150                                
PGRFAMCHA070701065211065254000043xxSummer Chill Contest - Sing it All or Nothing (t                                                                    A60688120                                
PROFAMCHA070701065254065259000005Jetix Bumper (Sept 06)                                                                                                      150                                
PROFAMCHA070701065259065331000032xxDC Games 2007 Game Face - Sat afternoons after y                                                                          150                                
PRCFAMCHA070701065331065341000010xxRatatouille ID - Tomato Splat (June 19 - July 08                                                                          150                                
PROFAMCHA070701065341065401000020Jetix Block Open $$$ (:18-:21)                                                                                              150                                
PRCFAMCHA070701065401065410000009CC Disclaimer - FAST - Family.ca (:08-:10) $$$                                                                              150                                
PGRFAMCHA070701065410071649002239Yin Yang Yo!                                      EP: 15                                                               2028607ECC                              
PRCFAMCHA070701071649071654000005Astral ID (FEB05)                                                                                                           150                                
PRCFAMCHA070701071654071704000010xxJTX - 04 - WITCH/LIZZIE (SEPT06) $$$                                                                                      150                                
PGRFAMCHA070701071704071744000040xxSummer Chill Event Spot  REVISED (Till Aug 26)                                                                      A60688120                                
PROFAMCHA070701071744071807000023xxWITCH (JETIX) - Coming Up Next (Sept06)                                                                                   150                                
PRCFAMCHA070701071807071847000040Magazine Spot (MD,NS,NSW) 2/3 day (not in PH) (til                                                                          150                                
PROFAMCHA070701071847071902000015Johnny Kapahala - Saturday @ 1:30pm                                                                                         150                                
PROFAMCHA070701071902071934000032xxDC Games 2007 Game Face - Sat afternoons after y                                                                          150                                
PRCFAMCHA070701071934071944000010xxRatatouille ID - Pole Vault (June 19 - July 08)                                                                           150                                
PROFAMCHA070701071944072002000018Jetix Block Open $$$ (:18-:21)                                                                                              150                                
PGRFAMCHA070701072002074144002142W.I.T.C.H.                                        EP: 33                                                               2068607E                                
PRCFAMCHA070701074144074155000011xxNSW - 02 - LIZZIE/SUITE (APR06) (:11 - 13) $$$                                                                            150                                
PRCFAMCHA070701074155074238000043xxRoad to HSM 2 Promo - Every Friday Night                                                                                  150                                
PROFAMCHA070701074238074306000028Lizzie McGuire - (Sick) (APR06) (NSW/AMorPM) -   C                                                                          150                                
PROFAMCHA070701074306074342000036xxHannah Montana Popstar DVD - Available Now (June                                                                          150                                
PROFAMCHA070701074342074415000033xxSuite Life of Z & C - NSW - SCOUT TROOP - This M                                                                          150                                
PGRFAMCHA070701074415074615000200xxMS - Ratatouille - Foley Artists - Now Playing (                                                                    A60688120                                
PROFAMCHA070701074615074653000038Double Teamed (SEPT12) - Next Friday @ 7:30pm                                                                               150                                
PROFAMCHA070701074653074728000035xxHSM Concert DVD - Available Now (June26-July2) $                                                                          150                                
PRCFAMCHA070701074728074734000006xxDC Games 2007 IDs - Brenda Song                                                                                           150                                
PROFAMCHA070701074734074750000016Nonstop Weekend Block Open (:16-:18) APR06 $$$                                                                              150                                
ID FAMCHA070701074750074758000008Magic of Disney - NS/NSW/PB - Shape (:06-:09) $$$                                                                           150                                
PGRFAMCHA070701074758081030002232Lizzie McGuire                                    EP: 1-022                                                           A6068607B                                
PRCFAMCHA070701081030081035000005Astral ID (FEB05)                                                                                                           150                                
PRCFAMCHA070701081035081047000012xxNSW - 03 - SUITE/ZOEY (APR06) (:11 - 13) $$$                                                                              150                                
PROFAMCHA070701081047081123000036xxSuite Life of Z & C - NSW - GOLF - Coming Up Nex                                                                          150                                
PROFAMCHA070701081123081213000050xxKellogg's Vanilla Version 1 (June 29-July 22) $$                                                                          150                                
PROFAMCHA070701081213081222000009Family Bumpers - (Phase 1 Spring 04) - DJ Spinning                                                                          150                                
PGRFAMCHA070701081222081422000200xxShort Report (MD, NS/NSW before 7pm) Terabithia                                                                     A60688120                                
PROFAMCHA070701081422081444000022That's So Raven (BEAR) (NSW) This Morning @ 9:40 (                                                                          150                                
PRCFAMCHA070701081444081452000008NSW Bumper $$$ - Dodgeball (:07-:09) APR06                                                                                  150                                
ID FAMCHA070701081452081500000008Magic of Disney - NS/NSW/PB - Shape (:06-:09) $$$                                                                           150                                
PGRFAMCHA070701081500083738002238Suite Life of Zack and Cody, The                  EP: 38                                                               6068607B                                
PROFAMCHA070701083738083822000044xxZoey 101 - PHONE DIARY (NS) (JUNE06) - Coming Up                                                                          150                                
PROFAMCHA070701083822083912000050xxKellogg's Vanilla Version 1 (June 29-July 22) $$                                                                          150                                
PROFAMCHA070701083912083955000043Cory In The House (NSW) (MAR07) - This morning @ 9                                                                          150                                
PGRFAMCHA070701083955084155000200xxShort Report (MD, NS/NSW) Hannah Montana DVD Now                                                                    A60688120                                
PROFAMCHA070701084155084233000038Double Teamed (SEPT12) - Next Friday @ 7:30pm                                                                               150                                
PRCFAMCHA070701084233084238000005xxRatatouille ID - Say Cheese (June 19 - July 08)                                                                           150                                
PRCFAMCHA070701084238084251000013NSW Bumper $$$ - Fashion (:12-:14) APR06  **DNU                                                                             150                                
PRCFAMCHA070701084251084300000009CC Disclaimer - FAST - Generic (:08-:10) $$$                                                                                150                                
PGRFAMCHA070701084300090632002332Zoey 101                                          EP: 27                                                               2068807BCC                              
PRCFAMCHA070701090632090637000005Astral ID (FEB05)                                                                                                           150                                
PROFAMCHA070701090637090720000043Cory In The House (NSW) (MAR07) - Coming Up Next                                                                            150                                
PGRFAMCHA070701090720090850000130xxMS - Ratatouille - Jeryn/Moped - Now Playing (Ju                                                                    A60688120                                
PROFAMCHA070701090850090920000030That's So Raven (SCREAM) (NSW) This Mornings @ 9:4                                                                          150                                
PROFAMCHA070701090920090958000038Double Teamed (SEPT12) - Next Friday @ 7:30pm                                                                               150                                
PROFAMCHA070701090958091030000032xxSinbad Show NSW Dance (SEPT06) This morn @ 11:35                                                                          150                                
PROFAMCHA070701091030091105000035xxHSM Concert DVD - Available Now (June26-July2) $                                                                          150                                
PROFAMCHA070701091105091141000036xxHannah Montana Stunt - NEW EPISODES Friday, Satu                                                                          150                                
PRCFAMCHA070701091141091156000015NSW Bumper $$$ - Tennis (:15-:17) APR06                                                                                     150                                
PRCFAMCHA070701091156091205000009CC Disclaimer - FAST - Family.ca (:08-:10) $$$                                                                              150                                
PGRFAMCHA070701091205093443002238Cory in the House                                 EP: 03                                                               6068607BCC                              
PROFAMCHA070701093443093505000022That's So Raven (BEAR) (NSW) Coming Up Next (APR07                                                                          150                                
PROFAMCHA070701093505093541000036xxHannah Montana Popstar DVD - Available Now (June                                                                          150                                
PRCFAMCHA070701093541093550000009xxFamily Bumpers - (Phase 1 Spring 04) - Soccer (M                                                                          150                                
PGRFAMCHA070701093550093905000315xxMS - Ratatouille - Tessa/Comedy - Now Playing (J                                                                    A60688120                                
PROFAMCHA070701093905093928000023xxNed's DSSG - Doggy Munch (JUNE06) NSW This Morn                                                                           150                                
PROFAMCHA070701093928094013000045xxBratz The Movie Contest - In theatres Aug 3 (Jun                                                                          150                                
PROFAMCHA070701094013094050000037xxSinbad Show NSW Car (NOV06) This morn @ 11:35                                                                             150                                
PRCFAMCHA070701094050094057000007NSW Bumper $$$ - Dodgeball (:07-:09) APR06                                                                                  150                                
PRCFAMCHA070701094057094106000009CC Disclaimer - FAST - Generic (:08-:10) $$$                                                                                150                                
PGRFAMCHA070701094106100345002239That's So Raven                                   EPS # 1-022                                                          6068607BCC                              
PRCFAMCHA070701100345100350000005Astral ID (FEB05)                                                                                                           150                                
PRCFAMCHA070701100350100433000043xxRoad to HSM 2 Promo - Every Friday Night                                                                                  150                                
PROFAMCHA070701100433100503000030Phil of the Future THINGS TO COME (NSW) (APR06) -                                                                           150                                
PROFAMCHA070701100503100538000035xxHSM Concert DVD - Available Now (June26-July2) $                                                                          150                                
PROFAMCHA070701100538100616000038Double Teamed (SEPT12) - Next Friday @ 7:30pm                                                                               150                                
PROFAMCHA070701100616100626000010FAMJAM - Open/Close                                                                                                         150                                
PGRFAMCHA070701100626100756000130xxMV Disney - (MD/NS/NSW) - HSM - We're All In Thi                                                                     60688120                                
PROFAMCHA070701100756100810000014xxFAMJAM - Close (FAMILY) xxDNUxx                                                                                           150                                
PROFAMCHA070701100810100831000021xxNed's DSSG - RECORDER (AUG06) NSW This Morn @ 11                                                                          150                                
PROFAMCHA070701100831100903000032xxSinbad Show NSW Dance (SEPT06) This morn @ 11:35                                                                          150                                
PGRFAMCHA070701100903100946000043xxSummer Chill Contest - Sing it All or Nothing (t                                                                    A60688120                                
PRCFAMCHA070701100946100958000012NSW Bumper $$$ - Fashion (:12-:14) APR06  **DNU                                                                             150                                
ID FAMCHA070701100958101006000008Magic of Disney - NS/NSW/PB - Wipe (:06-:09) $$$                                                                            150                                
PGRFAMCHA070701101006103246002240Phil of the Future                                EPS # 10                                                             6068607B                                
PRCFAMCHA070701103246103257000011xxNSW - 08 - BMW/NEDS (APR06) (:11 - 13) $$$                                                                                150                                
PROFAMCHA070701103257103335000038Double Teamed (SEPT12) - Next Friday @ 7:30pm                                                                               150                                
PROFAMCHA070701103335103345000010FAMJAM - Open/Close                                                                                                         150                                
PGRFAMCHA070701103345103631000246MV Disney - Superstition (Raven)                                                                                       60688120                                
PROFAMCHA070701103631103645000014xxFAMJAM - Close (FAMILY) xxDNUxx                                                                                           150                                
PROFAMCHA070701103645103721000036xxHannah Montana Stunt - NEW EPISODES Friday, Satu                                                                          150                                
PRCFAMCHA070701103721103727000006xxHSM 2 ID - A.Tisdale & M.Coleman - HSM 2 Coming                                                                           150                                
PRCFAMCHA070701103727103743000016NSW Bumper $$$ - Tennis (:15-:17) APR06                                                                                     150                                
ID FAMCHA070701103743103751000008Magic of Disney - NS/NSW/PB - Shape (:06-:09) $$$                                                                           150                                
PRCFAMCHA070701103751103800000009CC Disclaimer - FAST - Family.ca (:08-:10) $$$                                                                              150                                
PGRFAMCHA070701103800105957002157Boy Meets World                                   EP: 1-020                                                           B6068807BCC                              
PRCFAMCHA070701105957110002000005Astral ID (FEB05)                                                                                                           150                                
PRCFAMCHA070701110002110014000012xxNSW - 09 - NEDS/SINBAD (SEPT06) (:11 - 13) $$$                                                                            150                                
PROFAMCHA070701110014110034000020xxNeds DSSG - Drum Roll - NS (JUNE06) Coming Up Ne                                                                          150                                
PROFAMCHA070701110034110110000036xxHannah Montana Popstar DVD - Available Now (June                                                                          150                                
PROFAMCHA070701110110110141000031xxSmart Guy FIGHT (JUNE06) NSW - This afternoon @                                                                           150                                
PROFAMCHA070701110141110151000010FAMJAM - Open/Close                                                                                                         150                                
PGRFAMCHA070701110151110420000229xxMV Disney - (MD/NS/NSW) - Jonas Bros - Poor Unfo                                                                     60688120                                
PROFAMCHA070701110420110434000014xxFAMJAM - Close (FAMILY) xxDNUxx                                                                                           150                                
PRCFAMCHA070701110434110444000010xxRatatouille ID - Tomato Splat (June 19 - July 08                                                                          150                                
PRCFAMCHA070701110444110451000007NSW Bumper $$$ - Dodgeball (:07-:09) APR06                                                                                  150                                
PRCFAMCHA070701110451110500000009CC Disclaimer - FAST - Generic (:08-:10) $$$                                                                                150                                
PGRFAMCHA070701110500112934002434Ned's Declassified School Survival Guide          EPS # 10                                                             2068807BCC                              
PRCFAMCHA070701112934112945000011xxNSW - 10 - SINBAD/PP (SEPT06) (:11 - :13) $$$                                                                             150                                
PROFAMCHA070701112945113022000037xxSinbad Show NSW Car (NOV06) Next                                                                                          150                                
PRCFAMCHA070701113022113052000030Famous Players Popcorn Parties 2 (May 2-Jan 31/08)                                                                          150                                
PROFAMCHA070701113052113127000035xxSmart Guy GOOD FRIEND (JULY06) NSW - This aftern                                                                          150                                
PROFAMCHA070701113127113154000027xxLizzie McGuire - (Bad Breath) (NSW) (APR06) - Th                                                                          150                                
PGRFAMCHA070701113154113234000040xxSummer Chill Event Spot  REVISED (Till Aug 26)                                                                      A60688120                                
PRCFAMCHA070701113234113246000012NSW Bumper $$$ - Fashion (:12-:14) APR06  **DNU                                                                             150                                
PGRFAMCHA070701113246115509002223The Sinbad Show                                   EP: 19                                                               2068507B                                
PRCFAMCHA070701115509115514000005Astral ID (FEB05)                                                                                                           150                                
PRCFAMCHA070701115514115525000011xxNSW - 11 - PP/SMART GUY (July06) (:12 - :13) $$$                                                                          150                                
PROFAMCHA070701115525115535000010Cowbelles IDs/INTROS Cowbelles next (guy popping i                                                                          150                                
PGRFAMCHA070701115535115850000315xxRoad to HSM 2 Interstitial #3 (NSW) - This Summe                                                                    A60688120                                
PROFAMCHA070701115850115925000035xxHSM Concert DVD - Available Now (June26-July2) $                                                                          150                                
ID FAMCHA070701115925115943000018Popcorn Pix Block Open $$$ (JUNE 06) (:18-:20)                                                                              150                                
ID FAMCHA070701115943115952000009Rating - G - Nightly Pix Only  (DEC05) (:08 - :10)                                                                          150                                
ID FAMCHA070701115952120000000008Magic of Disney - NS/NSW/PB - Wipe (:06-:09) $$$                                                                            150                                
PGRFAMCHA070701120000132934012934Cow Belles                                                                                                            A6068807D                                
PRCFAMCHA070701132934132945000011xxNSW - 11 - PP/SMART GUY (July06) (:12 - :13) $$$                                                                          150                                
ID FAMCHA070701132945133003000018Popcorn Pix Block Open $$$ (JUNE 06) (:18-:20)                                                                              150                                
ID FAMCHA070701133003133012000009Rating - G - Nightly Pix Only  (DEC05) (:08 - :10)                                                                          150                                
PGRFAMCHA070701133012145746012734Mr. Magoo                                                                                                             A6068807D                                
PRCFAMCHA070701145746145751000005Astral ID (FEB05)                                                                                                           150                                
PRCFAMCHA070701145751145803000012xxNSW - 12 -SMART/LIZZIE (APR06) (:11 - :13) $$$                                                                            150                                
PRCFAMCHA070701145803145846000043xxRoad to HSM 2 Promo - Every Friday Night                                                                                  150                                
PROFAMCHA070701145846145917000031Smart Guy FIGHT (JUNE06) NSW - Coming Up Next                                                                               150                                
PRCFAMCHA070701145917145927000010xxRatatouille ID - TV Time (June 19 - July 08)                                                                              150                                
PROFAMCHA070701145927145943000016Nonstop Weekend Block Open (:16-:18) APR06 $$$                                                                              150                                
ID FAMCHA070701145943145951000008Magic of Disney - NS/NSW/PB - Shape (:06-:09) $$$                                                                           150                                
PRCFAMCHA070701145951150000000009CC Disclaimer - FAST - Generic (:08-:10) $$$                                                                                150                                
PGRFAMCHA070701150000152212002212Smart Guy                                         EP: 1-050                                                           A6068807BCC                              
PRCFAMCHA070701152212152223000011xxNSW - 13 -LIZZIE/SUITE (APR06) (:11 - :13) $$$                                                                            150                                
PROFAMCHA070701152223152250000027Lizzie McGuire - (Bad Breath) (NSW) (APR06) - Comi                                                                          150                                
PRCFAMCHA070701152250152330000040Magazine Spot (MD,NS,NSW) 2/3 day (not in PH) (til                                                                          150                                
PRCFAMCHA070701152330152340000010xxRatatouille ID - Tomato Splat (June 19 - July 08                                                                          150                                
PRCFAMCHA070701152340152352000012NSW Bumper $$$ - Fashion (:12-:14) APR06  **DNU                                                                             150                                
ID FAMCHA070701152352152400000008Magic of Disney - NS/NSW/PB - Wipe (:06-:09) $$$                                                                            150                                
PGRFAMCHA070701152400154634002234Lizzie McGuire                                    EP: 2-034                                                           A6068607B                                
PRCFAMCHA070701154634154639000005Astral ID (FEB05)                                                                                                           150                                
PRCFAMCHA070701154639154652000013xxNSW - 14 -SUITE/PROUD (APR06) (:11 - :13) $$$                                                                             150                                
PROFAMCHA070701154652154744000052xxDC Games 2007 Long - Sat afternoons after your f                                                                          150                                
PROFAMCHA070701154744154820000036xxSuite Life of Z & C - NSW - GOLF - Coming Up Nex                                                                          150                                
PGRFAMCHA070701154820154903000043xxSummer Chill Contest - Sing it All or Nothing (t                                                                    A60688120                                
PROFAMCHA070701154903154928000025xxReplacements (FEB07) LIGHT SHOW (NSW) - Today @                                                                           150                                
PRCFAMCHA070701154928154958000030xxHSM 2 Tease - Coming This Summer (MAY07) $$$                                                                              150                                
PROFAMCHA070701154958155034000036xxHannah Montana Stunt - NEW EPISODES Friday, Satu                                                                          150                                
PRCFAMCHA070701155034155051000017NSW Bumper $$$ - Tennis (:15-:17) APR06                                                                                     150                                
ID FAMCHA070701155051155059000008Magic of Disney - NS/NSW/PB - Shape (:06-:09) $$$                                                                           150                                
PGRFAMCHA070701155059161337002238Suite Life of Zack and Cody, The                  EP: 35                                                               6068607BCC                              
PRCFAMCHA070701161337161350000013xxNSW - 15 - PROUD/REPLACEMENTS (JAN06) (:11 - :13                                                                          150                                
PROFAMCHA070701161350161439000049Proud Family (APR06) STRIKE (NSW) - Coming Up Next                                                                          150                                
PGRFAMCHA070701161439161639000200xxShort Report (MD, NS/NSW before 7pm) Terabithia                                                                     A60688120                                
PROFAMCHA070701161639161702000023xxReplacements (FEB07) JAPAN (NSW) - Today @ 4:45                                                                           150                                
PROFAMCHA070701161702161734000032xxDC Games 2007 Game Face - Sat afternoons after y                                                                          150                                
PRCFAMCHA070701161734161743000009NSW Bumper $$$ - Dodgeball (:07-:09) APR06                                                                                  150                                
ID FAMCHA070701161743161751000008Magic of Disney - NS/NSW/PB - Wipe (:06-:09) $$$                                                                            150                                
PRCFAMCHA070701161751161800000009CC Disclaimer - FAST - Family.ca (:08-:10) $$$                                                                              150                                
PGRFAMCHA070701161800164031002231The Proud Family                                  EP: 1-018                                                           A6068607ECC                              
PRCFAMCHA070701164031164036000005Astral ID (FEB05)                                                                                                           150                                
PRCFAMCHA070701164036164047000011xxNSW - 16 - REPLACEMENTS/KIM (JAN07) (:11 - :13)                                                                           150                                
PGRFAMCHA070701164047164127000040xxSummer Chill Event Spot  REVISED (Till Aug 26)                                                                      A60688120                                
PROFAMCHA070701164127164150000023xxReplacements (FEB07) JAPAN (NSW) - Coming Up Nex                                                                          150                                
PROFAMCHA070701164150164226000036xxHannah Montana Popstar DVD - Available Now (June                                                                          150                                
PROFAMCHA070701164226164235000009xxFamily Bumpers - (Phase 1 Spring 04) - Baseball                                                                           150                                
PGRFAMCHA070701164235164435000200xxMS - Ratatouille - Foley Artists - Now Playing (                                                                    A60688120                                
PRCFAMCHA070701164435164440000005xxRatatouille ID - Say Cheese (June 19 - July 08)                                                                           150                                
PRCFAMCHA070701164440164452000012NSW Bumper $$$ - Fashion (:12-:14) APR06  **DNU                                                                             150                                
PRCFAMCHA070701164452164501000009CC Disclaimer - FAST - Generic (:08-:10) $$$                                                                                150                                
PGRFAMCHA070701164501170740002239Disney's The Replacements                         EP: 11                                                               2068607ECC                              
PRCFAMCHA070701170740170751000011xxNSW - 17 - KIM/PHIL (APR06) (:11 - :13) $$$                                                                               150                                
PROFAMCHA070701170751170824000033xxKim Possible MORE RON NSW (MAY 06) Coming Up Nex                                                                          150                                
PROFAMCHA070701170824170909000045xxBratz The Movie Contest - In theatres Aug 3 (Jun                                                                          150                                
PROFAMCHA070701170909170946000037xxLloyd In Space (Star Wars) (APR06) - Tomorrow @                                                                           150                                
PROFAMCHA070701170946171009000023xxDave the Barbarian - SNEEZE (MD) -  Tomorrow aft                                                                          150                                
PROFAMCHA070701171009171043000034Proud Family (APR06) GET BURNED (MD) - Tomorrow Af                                                                          150                                
PRCFAMCHA070701171043171126000043xxRoad to HSM 2 Promo - Every Friday Night                                                                                  150                                
PRCFAMCHA070701171126171136000010xxRatatouille ID - Pole Vault (June 19 - July 08)                                                                           150                                
PRCFAMCHA070701171136171151000015NSW Bumper $$$ - Tennis (:15-:17) APR06                                                                                     150                                
PRCFAMCHA070701171151171200000009CC Disclaimer - FAST - Family.ca (:08-:10) $$$                                                                              150                                
PGRFAMCHA070701171200173453002253Disney's Kim Possible                             EPS # 1-038                                                         A6068607ECC                              
PRCFAMCHA070701173453173458000005Astral ID (FEB05)                                                                                                           150                                
PRCFAMCHA070701173458173510000012xxNSW - 18 - PHIL/SADIE (APR06) (:11 - :13) $$$                                                                             150                                
PROFAMCHA070701173510173540000030Phil of the Future THINGS TO COME (NSW) (APR06) -                                                                           150                                
PGRFAMCHA070701173540173710000130xxMS - Ratatouille - Jeryn/Moped - Now Playing (Ju                                                                    A60688120                                
PROFAMCHA070701173710173747000037xxNaturally Sadie - New Episodes TEENAGE (NSW) Ton                                                                          150                                
PROFAMCHA070701173747173809000022xxThat's So Raven (BEAR) (NSW) Tonight @ 7:00 (APR                                                                          150                                
PROFAMCHA070701173809173845000036xxHannah Montana Stunt - NEW EPISODES Friday, Satu                                                                          150                                
PRCFAMCHA070701173845173852000007NSW Bumper $$$ - Dodgeball (:07-:09) APR06                                                                                  150                                
ID FAMCHA070701173852173900000008Magic of Disney - NS/NSW/PB - Shape (:06-:09) $$$                                                                           150                                
PGRFAMCHA070701173900180136002236Phil of the Future Yr 2                           EP: 30                                                               6068607B                                
PROFAMCHA070701180136180213000037xxNaturally Sadie - New Episodes TEENAGE (NSW) NEX                                                                          150                                
PGRFAMCHA070701180213180413000200xxShort Report (MD, NS/NSW) Hannah Montana DVD Now                                                                    A60688120                                
PRCFAMCHA070701180413180448000035xxLife WD - TV Remote - Tonight @ 7:50 NSW                                                                                  150                                
PROFAMCHA070701180448180524000036Suite Life of Z & C - NS - GOLF - Tomorrow Night @                                                                          150                                
PRCFAMCHA070701180524180538000014xxDC Games 2007 IDs - Jason Earles - Saturday Afte                                                                          150                                
PRCFAMCHA070701180538180551000013NSW Bumper $$$ - Fashion (:12-:14) APR06  **DNU                                                                             150                                
PRCFAMCHA070701180551180600000009CC Disclaimer - FAST - Family.ca (:08-:10) $$$                                                                              150                                
PGRFAMCHA070701180600182830002230Naturally, Sadie                                  EP: 57                                                        A39179 1015607ACC3                             
PRCFAMCHA070701182830182835000005Astral ID (FEB05)                                                                                                           150                                
PROFAMCHA070701182835182905000030xxThat's So Raven (SCREAM) (NSW) Tonight @ 7:00 (A                                                                          150                                
PRCFAMCHA070701182905182935000030xxHSM 2 Tease - Coming This Summer (MAY07) $$$                                                                              150                                
PRCFAMCHA070701182935182945000010xxRatatouille ID - TV Time (June 19 - July 08)                                                                              150                                
PRCFAMCHA070701182945183000000015NSW Bumper $$$ - Tennis (:15-:17) APR06                                                                                     150                                
PGRFAMCHA070701183000185128002128Flight 29 Down                                    EP: 10                                                               2028807A                                
PRCFAMCHA070701185128185140000012xxNSW - 21 - RAVEN/ZOEY (MAY06) (:11 - :13) $$$                                                                             150                                
PGRFAMCHA070701185140185223000043xxSummer Chill Contest - Sing it All or Nothing (t                                                                    A60688120                                
PROFAMCHA070701185223185245000022That's So Raven (BEAR) (NSW) Coming Up Next (APR07                                                                          150                                
PROFAMCHA070701185245185320000035xxHSM Concert DVD - Available Now (June26-July2) $                                                                          150                                
PROFAMCHA070701185320185332000012xxFamily Bumpers - (Phase 1 Spring 04) - Picnic (M                                                                          150                                
PGRFAMCHA070701185332185802000430xxMS - Ratatouille - Gourmet Cooking - Now Playing                                                                    A60688120                                
PROFAMCHA070701185802185846000044xxZoey 101 - PHONE DIARY (NSW) (JUNE06) - Tonight                                                                           150                                
PRCFAMCHA070701185846185917000031xxLife with Derek NSW FAMJAM (NOV06) Tonight @ 7:5                                                                          150                                
PROFAMCHA070701185917185953000036xxHannah Montana Stunt - NEW EPISODES Friday, Satu                                                                          150                                
PRCFAMCHA070701185953190000000007NSW Bumper $$$ - Dodgeball (:07-:09) APR06                                                                                  150                                
ID FAMCHA070701190000190008000008Magic of Disney - NS/NSW/PB - Wipe (:06-:09) $$$                                                                            150                                
PRCFAMCHA070701190008190017000009CC Disclaimer - FAST - Family.ca (:08-:10) $$$                                                                              150                                
PGRFAMCHA070701190017192236002219That's So Raven                                   EPS # 1-035                                                          6068607BCC                              
PRCFAMCHA070701192236192241000005Astral ID (FEB05)                                                                                                           150                                
PRCFAMCHA070701192241192252000011xxNSW - 22 - ZOEY/DEREK (MAY06) (:11 - :13) $$$                                                                             150                                
PROFAMCHA070701192252192336000044xxZoey 101 - PHONE DIARY (NSW) (JUNE06) - Coming U                                                                          150                                
PROFAMCHA070701192336192345000009xxFamily Bumpers - (Phase 2 F/W 04) - Skateboard (                                                                          150                                
PRCFAMCHA070701192345192415000030Famous Players Popcorn Parties 2 (May 2-Jan 31/08)                                                                          150                                
PRCFAMCHA070701192415192450000035xxLife WD - TV Remote - Tonight @ 7:50 NSW                                                                                  150                                
PRCFAMCHA070701192450192502000012NSW Bumper $$$ - Fashion (:12-:14) APR06  **DNU                                                                             150                                
PRCFAMCHA070701192502192511000009CC Disclaimer - FAST - Generic (:08-:10) $$$                                                                                150                                
PGRFAMCHA070701192511194843002332Zoey 101                                          EP: 28                                                               2068807BCC                              
PRCFAMCHA070701194843194856000013xxNSW - 23 - DEREK/8 SIMPLE (APR06) (:11 - :13) $$                                                                          150                                
PRCFAMCHA070701194856194939000043xxRoad to HSM 2 Promo - Every Friday Night                                                                                  150                                
PRCFAMCHA070701194939195009000030xxLife WD - Housecleaning Coming Up Next                                                                                    150                                
PROFAMCHA070701195009195035000026xxDC Games 2007 Short - Sat afternoons after your                                                                           150                                
PRCFAMCHA070701195035195051000016NSW Bumper $$$ - Tennis (:15-:17) APR06                                                                                     150                                
PRCFAMCHA070701195051195059000008CC Disclaimer - FAST - Family.ca (:08-:10) $$$                                                                              150                                
PGRFAMCHA070701195059201329002230Life With Derek                                   EP: 01                                                        C23968A1055607BCC3                             
PRCFAMCHA070701201329201334000005Astral ID (FEB05)                                                                                                           150                                
PRCFAMCHA070701201334201345000011xxNSW - 24 - 8 SIMPLE/BONNIE (SEPT06) (:11 - :13)                                                                           150                                
PROFAMCHA070701201345201358000013xxBonnie - Life With NSW - Tonight @ 8:40 (Sept 06                                                                          150                                
PROFAMCHA070701201358201434000036xxHannah Montana Popstar DVD - Available Now (June                                                                          150                                
PRCFAMCHA070701201434201444000010xxRatatouille ID - Pole Vault (June 19 - July 08)                                                                           150                                
PRCFAMCHA070701201444201451000007NSW Bumper $$$ - Dodgeball (:07-:09) APR06                                                                                  150                                
PRCFAMCHA070701201451201500000009CC Disclaimer - FAST - Generic (:08-:10) $$$                                                                                150                                
PGRFAMCHA0707012015002035370020378 Simple Rules                                    EP: 14                                                              B2068807BCC                              
PRCFAMCHA070701203537203550000013xxNSW - 25 - BONNIE/NPIX (SEPT06) (:11 - :13) $$$                                                                           150                                
PROFAMCHA070701203550203603000013xxBonnie - Life With NSW - Coming Up Next (Sept 06                                                                          150                                
PRCFAMCHA070701203603203643000040Magazine Spot (MD,NS,NSW) 2/3 day (not in PH) (til                                                                          150                                
PROFAMCHA070701203643203652000009Family Bumpers - (Phase 3 Spring 05) - Giant Food(                                                                          150                                
PGRFAMCHA070701203652203732000040xxSummer Chill Event Spot  REVISED (Till Aug 26)                                                                      A60688120                                
PRCFAMCHA070701203732203747000015xxHSM 2 ID - A.Tisdale, V.Hudges, M.Coleman  HSM 2                                                                          150                                
PRCFAMCHA070701203747203800000013NSW Bumper $$$ - Fashion (:12-:14) APR06  **DNU                                                                             150                                
PGRFAMCHA070701203800205926002126Life With Bonnie                                  EP: 43                                                               2068507B                                
PRCFAMCHA070701205926205931000005Astral ID (FEB05)                                                                                                           150                                
PRCFAMCHA070701205931205943000012xxNSW - 26 - NPIX/MOVIE ENT (SEPT06) (:11 - :13) $                                                                          150                                
PROFAMCHA070701205943205956000013xxNightly Pix Movie Open (:10-:15)                                                                                          150                                
ID FAMCHA070701205956210005000009Rating - PG - Nightly Pix Only  (DEC05) (:08 - :10                                                                          150                                
PRCFAMCHA070701210005210014000009CC Disclaimer - SLOW - Family.ca (:08-:10) $$$                                                                              150                                
PGRFAMCHA070701210014223218013204Blank Check                                                                                                           B6068807DCC                              
PRCFAMCHA070701223218223231000013xxNSW - 27 - MOVIE ENT/NPIX (SEPT06) (:11 - :13) $                                                                          150                                
PROFAMCHA070701223231223244000013xxNightly Pix Movie Open (:10-:15)                                                                                          150                                
PRCFAMCHA070701223244224844001600Movie Entertainment (8)                                                                                               B     150                                
PROFAMCHA070701224844224859000015xxNightly Pix Movie Open (:10-:15)                                                                                          150                                
ID FAMCHA070701224859224908000009Rating - PG - Nightly Pix Only  (DEC05) (:08 - :10                                                                          150                                
PGRFAMCHA070701224908004255015347Associate, The                                                                                                        B6068807D                                
PRCFAMCHA070701004255004300000005Astral ID (FEB05)                                                                                                           150                                
PROFAMCHA070701004300004318000018Nonstop Weekend Block Open (:16-:18) APR06 $$$                                                                              150                                
PRCFAMCHA070701004318004327000009CC Disclaimer - SLOW - Generic (:08-:10) $$$                                                                                150                                
PGRFAMCHA070701004327010557002230Naturally, Sadie                                  EP: 34                                                        C25428 1065607ACC                              
PRCFAMCHA070701010557010613000016NSW Bumper $$$ - Tennis (:15-:17) APR06                                                                                     150                                
PRCFAMCHA070701010613010622000009CC Disclaimer - SLOW - Family.ca (:08-:10) $$$                                                                              150                                
PGRFAMCHA0707010106220127580021368 Simple Rules                                    EP: 01                                                              B2068807BCC                              
PRCFAMCHA070701012758012803000005Astral ID (FEB05)                                                                                                           150                                
PRCFAMCHA070701012803012811000008NSW Bumper $$$ - Dodgeball (:07-:09) APR06                                                                                  150                                
PGRFAMCHA070701012811021154004343Popular                                           EP: 01                                                              B2068807B                                
PRCFAMCHA070701021154021207000013NSW Bumper $$$ - Fashion (:12-:14) APR06  **DNU                                                                             150                                
PGRFAMCHA070701021207023345002138Life With Bonnie                                  EP: 01                                                               2068507B                                
PRCFAMCHA070701023345023401000016NSW Bumper $$$ - Tennis (:15-:17) APR06                                                                                     150                                
PRCFAMCHA070701023401023410000009CC Disclaimer - SLOW - Generic (:08-:10) $$$                                                                                150                                
PGRFAMCHA070701023410025640002230Life With Derek                                   EP: 01                                                        C23968A1065607BCC                              
PRCFAMCHA070701025640025645000005Astral ID (FEB05)                                                                                                           150                                
PRCFAMCHA070701025645025653000008NSW Bumper $$$ - Dodgeball (:07-:09) APR06                                                                                  150                                
PGRFAMCHA070701025653032036002343The Sinbad Show                                   EP: 01                                                               2068507B                                
PRCFAMCHA070701032036032049000013NSW Bumper $$$ - Fashion (:12-:14) APR06  **DNU                                                                             150                                
ID FAMCHA070701032049032057000008Magic of Disney - NS/NSW/PB - Shape (:06-:09) $$$                                                                           150                                
PRCFAMCHA070701032057032106000009CC Disclaimer - SLOW - Family.ca (:08-:10) $$$                                                                              150                                
PGRFAMCHA070701032106034345002239That's So Raven                                   EP: 1-001                                                            6068607BCC                              
PRCFAMCHA070701034345034350000005Astral ID (FEB05)                                                                                                           150                                
PRCFAMCHA070701034350034406000016NSW Bumper $$$ - Tennis (:15-:17) APR06                                                                                     150                                
ID FAMCHA070701034406034414000008Magic of Disney - NS/NSW/PB - Wipe (:06-:09) $$$                                                                            150                                
PGRFAMCHA070701034414040653002239Suite Life of Zack & Cody, The                    EP: 01                                                               6068607B                                
PRCFAMCHA070701040653040701000008NSW Bumper $$$ - Dodgeball (:07-:09) APR06                                                                                  150                                
PRCFAMCHA070701040701040710000009CC Disclaimer - SLOW - Generic (:08-:10) $$$                                                                                150                                
PGRFAMCHA070701040710042940002230Life With Derek                                   EP: 01                                                        C23968A1065607BCC                              
PRCFAMCHA070701042940042945000005Astral ID (FEB05)                                                                                                           150                                
PRCFAMCHA070701042945042958000013NSW Bumper $$$ - Fashion (:12-:14) APR06  **DNU                                                                             150                                
OFFFAMCHA070701042958043000000002OFF AIR                                                                                                                                                        
SO FAMCHA070702043000043011000011Sign On (oct 1)                                                                                                                                                
PRCFAMCHA070702043011043020000009CC Disclaimer - FAST - Family.ca (:08-:10) $$$                                                                              150                                
PGRFAMCHA070702043020045655002635Katie And Orbie                                   EP: 2-022                                                     C11896A1065607ECC                              
PRCFAMCHA070702045655045710000015xxPH - 04 - FRANNY/SOMETHING/HOZE  (:14 - :16) (AP                                                                          150                                
ID FAMCHA070702045710045723000013PS Playhouse AM Block Open (:10-:15) $$$                                                                                    150                                
PRCFAMCHA070702045723045732000009CC Disclaimer - FAST - Generic (:08-:10) $$$                                                                                150                                
PGRFAMCHA070702045732052002002230Franny's Feet                                     EPS # 33                                                      C23971 1065607ECC                              
PRCFAMCHA070702052002052007000005Astral ID (FEB05)                                                                                                           150                                
ID FAMCHA070702052007052020000013PS Playhouse AM Block Open (:10-:15) $$$                                                                                    150                                
PRCFAMCHA070702052020052029000009CC Disclaimer - FAST - Family.ca (:08-:10) $$$                                                                              150                                
PGRFAMCHA070702052029054300002231Something Else                                    EP: 1-002                                                     B69256A1065607ECC                              
ID FAMCHA070702054300054313000013PS Playhouse AM Block Open (:10-:15) $$$                                                                                    150                                
PRCFAMCHA070702054313054322000009CC Disclaimer - FAST - Generic (:08-:10) $$$                                                                                150                                
PGRFAMCHA070702054322060600002238Hoze Houndz                                       EP: 4-045                                                     B63381A1065607ECC                              
PRCFAMCHA070702060600060605000005Astral ID (FEB05)                                                                                                           150                                
ID FAMCHA070702060605060618000013PS Playhouse AM Block Open (:10-:15) $$$                                                                                    150                                
PRCFAMCHA070702060618060627000009CC Disclaimer - FAST - Family.ca (:08-:10) $$$                                                                              150                                
PGRFAMCHA070702060627063031002404Henry's World                                     EPS # 2-022                                                   B81053A1065607GCC                              
ID FAMCHA070702063031063044000013PS Playhouse AM Block Open (:10-:15) $$$                                                                                    150                                
PRCFAMCHA070702063044063053000009CC Disclaimer - FAST - Generic (:08-:10) $$$                                                                                150                                
PGRFAMCHA070702063053065323002230King                                              EPS # 2-021                                                   B75776 1065607ECC                              
PRCFAMCHA070702065323065328000005Astral ID (FEB05)                                                                                                           150                                
PRCFAMCHA070702065328065342000014xxMMM - 01 (AM) - KIM/RECESS/WEEKENDERS (OCT05) (:                                                                          150                                
PRCFAMCHA070702065342065425000043xxRoad to HSM 2 Promo - Every Friday Night                                                                                  150                                
PROFAMCHA070702065425065455000030xxKim Possible EVIL (MMM) (MAY07) Coming Up Next                                                                            150                                
PROFAMCHA070702065455065510000015Johnny Kapahala - Saturday @ 1:30pm                                                                                         150                                
PROFAMCHA070702065510065536000026xxDC Games 2007 Short - Sat afternoons after your                                                                           150                                
PROFAMCHA070702065536065555000019MadMadMornings Block Open $$$                                                                                               150                                
PRCFAMCHA070702065555065604000009CC Disclaimer - FAST - Family.ca (:08-:10) $$$                                                                              150                                
PGRFAMCHA070702065604071858002254Disney's Kim Possible - Yr. 4                     EP: 78                                                               6068607ECC                              
PRCFAMCHA070702071858071913000015xxMMM - 02 (AM) - RECESS/WEEKENDERS/LILO (OCT05) (                                                                          150                                
PROFAMCHA070702071913071945000032xxDC Games 2007 Game Face - Sat afternoons after y                                                                          150                                
PROFAMCHA070702071945072019000034xxRecess - HEROES (MMM) - (APR06) - Coming Up Next                                                                          150                                
PGRFAMCHA070702072019072219000200xxShort Report (MD, NS/NSW before 7pm) Terabithia                                                                     A60688120                                
PROFAMCHA070702072219072228000009xxFamily Bumpers - (Phase 2 F/W 04) - Skateboard (                                                                          150                                
PRCFAMCHA070702072228072258000030Famous Players Popcorn Parties 2 (May 2-Jan 31/08)                                                                          150                                
PGRFAMCHA070702072258072341000043xxSummer Chill Contest - Sing it All or Nothing (t                                                                    A60688120                                
PROFAMCHA070702072341072400000019MadMadMornings Block Open $$$                                                                                               150                                
PGRFAMCHA070702072400074635002235Disney's Recess                                   EP: 1-044                                                            6068607E                                
PRCFAMCHA070702074635074640000005Astral ID (FEB05)                                                                                                           150                                
PRCFAMCHA070702074640074654000014xxPH - 09 - WEEKENDERS/LILO/EINSTEINS (:14 - :16)                                                                           150                                
PROFAMCHA070702074654074730000036xxWeekenders - PIZZA (MMM) - (APR06) - Coming Up N                                                                          150                                
PRCFAMCHA070702074730074810000040Magazine Spot (MD,NS,NSW) 2/3 day (not in PH) (til                                                                          150                                
PROFAMCHA070702074810074822000012xxFamily Bumpers - (Phase 1 Spring 04) - Picnic (M                                                                          150                                
PGRFAMCHA070702074822074952000130xxMS - Ratatouille - Jeryn/Moped - Now Playing (Ju                                                                    A60688120                                
PGRFAMCHA070702074952075032000040xxSummer Chill Event Spot  REVISED (Till Aug 26)                                                                      A60688120                                
PROFAMCHA070702075032075051000019MadMadMornings Block Open $$$                                                                                               150                                
PRCFAMCHA070702075051075100000009CC Disclaimer - FAST - Generic (:08-:10) $$$                                                                                150                                
PGRFAMCHA070702075100081334002234Disney's The Weekenders                           EP: 1-018                                                           A6068607ECC                              
PRCFAMCHA070702081334081348000014xxPH - 10 - LILO/EINSTEINS/WINNIE (:14 - :16) (APR                                                                          150                                
PRCFAMCHA070702081348081418000030xxHSM 2 Tease - Coming This Summer (MAY07) $$$                                                                              150                                
PROFAMCHA070702081418081451000033xxLilo & Stitch (MMM) DANCE - Coming Up Next (JUNE                                                                          150                                
PGRFAMCHA070702081451081651000200xxShort Report (MD, NS/NSW) Hannah Montana DVD Now                                                                    A60688120                                
PROFAMCHA070702081651081723000032xxDC Games 2007 Game Face - Sat afternoons after y                                                                          150                                
PRCFAMCHA070702081723081733000010xxRatatouille ID - TV Time (June 19 - July 08)                                                                              150                                
PROFAMCHA070702081733081752000019MadMadMornings Block Open $$$                                                                                               150                                
PRCFAMCHA070702081752081801000009CC Disclaimer - FAST - Family.ca (:08-:10) $$$                                                                              150                                
PGRFAMCHA070702081801084040002239Disney's Lilo & Stitch                            EPS # 16                                                            A6068607ECC                              
PRCFAMCHA070702084040084045000005Astral ID (FEB05)                                                                                                           150                                
PROFAMCHA070702084045084124000039Little Einstein (PH) LOVE - Coming Up Next (MAY07)                                                                          150                                
PGRFAMCHA070702084124084355000231Lilo & Stitch Music Video - On DVD Now *DNU*                                                                           60688120                                
PROFAMCHA070702084355084451000056xxHandy Manny - TOOLS - (MAR07) - Wed mornings @ 1                                                                          150                                
ID FAMCHA070702084451084501000010PS Playhouse AM Block Open (:10-:15) $$$                                                                                    150                                
PGRFAMCHA070702084501090906002405Disney's Little Einsteins                         EP: 09                                                               6068607E                                
PRCFAMCHA070702090906090921000015Franny's Feet - Bowleriffic (PH-) - (APR06) - Comi                                                                          150                                
PGRFAMCHA070702090921091036000115They Might Be Giants (ABC's) - QU                                                                                      60688120                                
ID FAMCHA070702091036091051000015PS Playhouse AM Block Open (:10-:15) $$$                                                                                    150                                
PRCFAMCHA070702091051091100000009CC Disclaimer - FAST - Family.ca (:08-:10) $$$                                                                              150                                
PGRFAMCHA070702091100093330002230Franny's Feet                                     EPS # 1-011                                                   C23970A1065607ECC                              
PRCFAMCHA070702093330093335000005Astral ID (FEB05)                                                                                                           150                                
PRCFAMCHA070702093335093405000030Benjamin Bear - (PH-Tue) (OCT06) - NEXT                                                                                     150                                
PROFAMCHA070702093405093435000030Mickey Mouse Clubhouse GENERIC - This Morning @ 10                                                                          150                                
PRCFAMCHA070702093435093510000035Playhouse - KATIE & ORBIE - Did You Know?                                                                                   150                                
PROFAMCHA070702093510093600000050xxTigger and Pooh "What's New"(PH/AM) (JUNE07) - T                                                                          150                                
PROFAMCHA070702093600093642000042xxHigglytown HEROES - (MAR07) - This morning @ 10:                                                                          150                                
ID FAMCHA070702093642093652000010PS Playhouse AM Block Open (:10-:15) $$$                                                                                    150                                
PRCFAMCHA070702093652093701000009CC Disclaimer - FAST - Generic (:08-:10) $$$                                                                                150                                
PGRFAMCHA070702093701095936002235The Secret World Of Benjamin Bear                 EPS # 1-011                                                   B75156 1065607ECC                              
PROFAMCHA070702095936100006000030Mickey Mouse Clubhouse GENERIC - Coming Up Next                                                                             150                                
PGRFAMCHA070702100006100313000307xxMV Disney - (PH) - Anytime You Need A Friend (Th                                                                     60688120                                
PRCFAMCHA070702100313100344000031King (PH) (APR06) - This Morning @ 11:25am                                                                                  150                                
ID FAMCHA070702100344100354000010PS Playhouse AM Block Open (:10-:15) $$$                                                                                    150                                
ID FAMCHA070702100354100402000008Magic of Disney - PLAYHOUSE - Shape (:06-:09) $$$                                                                           150                                
PGRFAMCHA070702100402102804002402Disney's Mickey Mouse Clubhouse                   EP: 11                                                               6068607E                                
PRCFAMCHA070702102804102809000005Astral ID (FEB05)                                                                                                           150                                
PROFAMCHA070702102809102859000050xxTigger and Pooh "What's New"(PH/AM) (JUNE07) - C                                                                          150                                
PRCFAMCHA070702102859102934000035Playhouse - KATIE & ORBIE - Did You Know?                                                                                   150                                
PROFAMCHA070702102934103016000042xxHigglytown HEROES - (MAR07) - This morning @ 10:                                                                          150                                
PRCFAMCHA070702103016103047000031King (PH) (APR06) - This Morning @ 11:25am                                                                                  150                                
ID FAMCHA070702103047103100000013PS Playhouse AM Block Open (:10-:15) $$$                                                                                    150                                
PRCFAMCHA070702103100103109000009CC Disclaimer - FAST - Family.ca (:08-:10) $$$                                                                              150                                
PGRFAMCHA070702103109105517002408Disney My Friends Tigger and Pooh                 EP: 03                                                               6028607ECC                              
PRCFAMCHA070702105517105531000014xxPH - 16 -HIGGLY/KING/RECESS (:14- :16) (FEB07) $                                                                          150                                
PROFAMCHA070702105531105613000042xxHigglytown HEROES - (MAR07) - Coming Up Next                                                                              150                                
PRCFAMCHA070702105613105644000031King (PH) (APR06) - This Morning @ 11:25am                                                                                  150                                
ID FAMCHA070702105644105654000010PS Playhouse AM Block Open (:10-:15) $$$                                                                                    150                                
ID FAMCHA070702105654105702000008Magic of Disney - PLAYHOUSE - Wipe (:06-:09) $$$                                                                            150                                
PGRFAMCHA070702105702112107002405Higglytown Heroes                                 EPS # 26                                                             6068607E                                
PRCFAMCHA070702112107112112000005Astral ID (FEB05)                                                                                                           150                                
PRCFAMCHA070702112112112126000014xxPH - 17 -KING/RECESS/KIM (:14 - :16) (APR06) $$$                                                                          150                                
PRCFAMCHA070702112126112157000031King (PH) (APR06) - Coming Up Next                                                                                          150                                
PGRFAMCHA070702112157112447000250They Might Be Giants (ABC's) - E Eats Everything                                                                       60688120                                
ID FAMCHA070702112447112457000010PS Playhouse AM Block Open (:10-:15) $$$                                                                                    150                                
PRCFAMCHA070702112457112506000009CC Disclaimer - FAST - Family.ca (:08-:10) $$$                                                                              150                                
PGRFAMCHA070702112506114736002230King                                              EPS # 2-021                                                   B75776 1065607ECC                              
PRCFAMCHA070702114736114747000011xxMD - 01 - RECESS/KIM (APR06) (:11 - :13) $$$                                                                              150                                
PROFAMCHA070702114747114839000052xxDC Games 2007 Long - Sat afternoons after your f                                                                          150                                
PRCFAMCHA070702114839114844000005xxRatatouille ID - Say Cheese (June 19 - July 08)                                                                           150                                
PROFAMCHA070702114844114900000016Mad Dash Block Open (:16-:18) APR06 $$$                                                                                     150                                
PGRFAMCHA070702114900121150002250Disney's Recess                                   EP: 1-058                                                           A6068607E                                
PRCFAMCHA070702121150121155000005Astral ID (FEB05)                                                                                                           150                                
PRCFAMCHA070702121155121206000011xxMD - 02 - KIM/WEEKENDERS (APR06) (:11 - :13) $$$                                                                          150                                
PROFAMCHA070702121206121238000032xxDC Games 2007 Game Face - Sat afternoons after y                                                                          150                                
PRCFAMCHA070702121238121253000015MD Bumper - $$$ Shopping Race (:15-:17) APR06                                                                               150                                
PRCFAMCHA070702121253121302000009CC Disclaimer - FAST - Generic (:08-:10) $$$                                                                                150                                
PGRFAMCHA070702121302123551002249Disney's Kim Possible                             EPS # 1-029                                                         A6068607ECC                              
PRCFAMCHA070702123551123603000012xxMD - 03 - WEEKENDERS/AMERICAN DRAGON (JAN07) (:1                                                                          150                                
PGRFAMCHA070702123603123643000040xxSummer Chill Event Spot  REVISED (Till Aug 26)                                                                      A60688120                                
PRCFAMCHA070702123643123651000008MD Bumper - $$$ Ski Race (:07-:09) APR06                                                                                    150                                
PRCFAMCHA070702123651123700000009CC Disclaimer - FAST - Family.ca (:08-:10) $$$                                                                              150                                
PGRFAMCHA070702123700125932002232Disney's The Weekenders                           EP: 1-019                                                           A6068607ECC                              
PRCFAMCHA070702125932125937000005Astral ID (FEB05)                                                                                                           150                                
PRCFAMCHA070702125937125948000011xxMD - 04 - AMERICAN DRAGON/EMPEROR (JAN07) (:11 -                                                                          150                                
PRCFAMCHA070702125948125956000008MD Bumper $$$ - Race Cars (:08-:10) APR06 **DNU                                                                             150                                
PRCFAMCHA070702125956130005000009CC Disclaimer - FAST - Generic (:08-:10) $$$                                                                                150                                
PGRFAMCHA070702130005132244002239Disney's American Dragon:  Jake Long              EP: 43                                                               6068607ECC                              
PRCFAMCHA070702132244132257000013xxMD - 05 - EMPEROR/LILO (JAN07) (:11 - :13) $$$                                                                            150                                
PROFAMCHA070702132257132333000036xxHannah Montana Stunt - NEW EPISODES Friday, Satu                                                                          150                                
PRCFAMCHA070702132333132343000010xxRatatouille ID - TV Time (June 19 - July 08)                                                                              150                                
PRCFAMCHA070702132343132400000017MD Bumper - $$$ Shopping Race (:15-:17) APR06                                                                               150                                
PGRFAMCHA070702132400134636002236Disney's The Emperor's New School                 EP: 21                                                               6068807E                                
PRCFAMCHA070702134636134641000005Astral ID (FEB05)                                                                                                           150                                
PRCFAMCHA070702134641134653000012xxMD - 06 - LILO/FILLMORE! (APR06) (:11 - :13) $$$                                                                          150                                
PRCFAMCHA070702134653134736000043xxRoad to HSM 2 Promo - Every Friday Night                                                                                  150                                
PROFAMCHA070702134736134751000015Johnny Kapahala - Saturday @ 1:30pm                                                                                         150                                
PRCFAMCHA070702134751134800000009MD Bumper - $$$ Ski Race (:07-:09) APR06                                                                                    150                                
PGRFAMCHA070702134800141039002239Disney's Lilo & Stitch                            EPS # 35                                                            A6068607E                                
PRCFAMCHA070702141039141052000013xxMD - 07 - FILLMORE!/PROUD (APR06) (:11 - :13) $$                                                                          150                                
PROFAMCHA070702141052141114000022Fillmore! - POLLY (MD) (APR06) - Coming up next                                                                             150                                
PRCFAMCHA070702141114141144000030Famous Players Popcorn Parties 2 (May 2-Jan 31/08)                                                                          150                                
PRCFAMCHA070702141144141150000006xxHSM 2 ID - A.Tisdale & M.Coleman - HSM 2 Coming                                                                           150                                
PRCFAMCHA070702141150141200000010MD Bumper $$$ - Race Cars (:08-:10) APR06 **DNU                                                                             150                                
PGRFAMCHA070702141200143438002238Disney's Fillmore!                                EPS # 1-021                                                         A6068607E                                
PRCFAMCHA070702143438143443000005Astral ID (FEB05)                                                                                                           150                                
PRCFAMCHA070702143443143456000013xxMD - 08 - PROUD/WEEKENDERS (APR06) (:11 - :13) $                                                                          150                                
PRCFAMCHA070702143456143526000030xxHSM 2 Tease - Coming This Summer (MAY07) $$$                                                                              150                                
PRCFAMCHA070702143526143543000017MD Bumper - $$$ Shopping Race (:15-:17) APR06                                                                               150                                
ID FAMCHA070702143543143551000008Magic of Disney - MAD DASH - Shape (:06-:09) $$$                                                                            150                                
PRCFAMCHA070702143551143600000009CC Disclaimer - FAST - Generic (:08-:10) $$$                                                                                150                                
PGRFAMCHA070702143600145813002213The Proud Family                                  EP: 1-005                                                           A6068607ECC                              
PRCFAMCHA070702145813145824000011xxMD - 09 - WEEKENDERS/LLOYD (APR06) (:11 - :13) $                                                                          150                                
PROFAMCHA070702145824145900000036xxWeekenders - PIZZA (MD) - (APR06) - Coming Up Ne                                                                          150                                
PRCFAMCHA070702145900145940000040Magazine Spot (MD,NS,NSW) 2/3 day (not in PH) (til                                                                          150                                
PROFAMCHA070702145940145956000016Mad Dash Block Open (:16-:18) APR06 $$$                                                                                     150                                
PRCFAMCHA070702145956150005000009CC Disclaimer - FAST - Family.ca (:08-:10) $$$                                                                              150                                
PGRFAMCHA070702150005152237002232Disney's The Weekenders                           EP: 1-019                                                           A6068607ECC                              
PRCFAMCHA070702152237152242000005Astral ID (FEB05)                                                                                                           150                                
PRCFAMCHA070702152242152254000012xxMD - 10 - LLOYD/DAVE (APR06) (:11 - :13) $$$                                                                              150                                
PGRFAMCHA070702152254152337000043xxSummer Chill Contest - Sing it All or Nothing (t                                                                    A60688120                                
PROFAMCHA070702152337152355000018xxLloyd In Space (LARRY) (JUNE06) MD- Coming Up Ne                                                                          150                                
PROFAMCHA070702152355152447000052xxDC Games 2007 Long - Sat afternoons after your f                                                                          150                                
PRCFAMCHA070702152447152452000005xxRatatouille ID - Say Cheese (June 19 - July 08)                                                                           150                                
PRCFAMCHA070702152452152500000008MD Bumper - $$$ Ski Race (:07-:09) APR06                                                                                    150                                
PGRFAMCHA070702152500154753002253Disney's Lloyd In Space                           EP: 34                                                               6068607E                                
PRCFAMCHA070702154753154804000011xxMD - 11 - DAVE/PROUD (APR06) (:11 - :13) $$$                                                                              150                                
PROFAMCHA070702154804154836000032xxDC Games 2007 Game Face - Sat afternoons after y                                                                          150                                
PROFAMCHA070702154836154859000023xxDave the Barbarian - SNEEZE (MD) - Coming up (JU                                                                          150                                
PROFAMCHA070702154859154933000034Proud Family (APR06) GET BURNED (MD) - This Aftern                                                                          150                                
PROFAMCHA070702154933155007000034xxRecess - HEROES (MD) - (APR06) - This Atft @ 4:4                                                                          150                                
PROFAMCHA070702155007155025000018xxEmperor's New School  MD - Butt In Urn - Tomorro                                                                          150                                
PROFAMCHA070702155025155101000036xxHannah Montana Stunt - NEW EPISODES Friday, Satu                                                                          150                                
PRCFAMCHA070702155101155144000043xxRoad to HSM 2 Promo - Every Friday Night                                                                                  150                                
PRCFAMCHA070702155144155152000008MD Bumper $$$ - Race Cars (:08-:10) APR06 **DNU                                                                             150                                
PRCFAMCHA070702155152155201000009CC Disclaimer - FAST - Family.ca (:08-:10) $$$                                                                              150                                
PGRFAMCHA070702155201161439002238Disney's Dave the Barbarian                       EPS # 01                                                             6068607ECC                              
PRCFAMCHA070702161439161444000005Astral ID (FEB05)                                                                                                           150                                
PRCFAMCHA070702161444161456000012xxMD - 12 - PROUD/RECESS (APR06) (:11 - :13) $$$                                                                            150                                
PROFAMCHA070702161456161530000034Proud Family (JULY06) MOM YELLS (MD) -  Coming Up                                                                           150                                
PROFAMCHA070702161530161604000034xxRecess - HEROES (MD) - (APR06) - This Atft @ 4:4                                                                          150                                
PROFAMCHA070702161604161636000032xxDC Games 2007 Game Face - Sat afternoons after y                                                                          150                                
PRCFAMCHA070702161636161652000016MD Bumper - $$$ Shopping Race (:15-:17) APR06                                                                               150                                
ID FAMCHA070702161652161700000008Magic of Disney - MAD DASH - Wipe (:06-:09) $$$                                                                             150                                
PGRFAMCHA070702161700163934002234The Proud Family                                  EPS # 2-031                                                         A6068607E                                
PRCFAMCHA070702163934163946000012xxMD - 13 - RECESS/KIM (APR06) (:11 - :13) $$$                                                                              150                                
PROFAMCHA070702163946164011000025xxRecess - CAREER DAY (MD) - (JULY06) - Coming Up                                                                           150                                
PGRFAMCHA070702164011164211000200xxMS - Ratatouille - Foley Artists - Now Playing (                                                                    A60688120                                
PRCFAMCHA070702164211164241000030xxHSM 2 Tease - Coming This Summer (MAY07) $$$                                                                              150                                
PRCFAMCHA070702164241164251000010xxRatatouille ID - Pole Vault (June 19 - July 08)                                                                           150                                
PRCFAMCHA070702164251164300000009MD Bumper - $$$ Ski Race (:07-:09) APR06                                                                                    150                                
PGRFAMCHA070702164300170535002235Disney's Recess                                   EP: 1-032                                                            6068607E                                
