PGRFAMCHA130501043000045404002404Henry's World                                     EPS # 2-025                                                   B81056 1065607ECC                              
ID FAMCHA130501045404045410000006Astral ID (HD) (Jan2011)                                                                                                    150                                
PROFAMCHA130501045410045417000007D-JR Live Action ID - Franny's Feet - Coming Up (M                                                                          150                                
PROFAMCHA130501045417045442000025D-JR Live Action ID - #12 Feed Goldfish (May2012)                                                                           150                                
PROFAMCHA130501045442045517000035D-JR Promo - Bananas in Pajamas - Clip 1 - Get mor                                                                          150                                
PROFAMCHA130501045517045542000025D-JR Live Action ID - #13 Make Bed (May2012)                                                                                150                                
PROFAMCHA130501045542045549000007D-JR Live Action ID - Franny's Feet - Now (May2012                                                                          150                                
PROFAMCHA130501045549045556000007D-JR - Flex ID - Blue (:6-:10) (Feb2012)                                                                                    150                                
PGRFAMCHA130501045556051827002231Franny's Feet                                     EP: 49                                                        C31292 1065607ECC                              
ID FAMCHA130501051827051832000005Astral ID (HD) (Jan2011)                                                                                                    150                                
PROFAMCHA130501051832051839000007D-JR Live Action ID - SWOBB - Coming Up (May2012)                                                                           150                                
PROFAMCHA130501051839051904000025D-JR Live Action ID - #20 Calendar (May2012)                                                                                150                                
PROFAMCHA130501051904051934000030D-JR Promo - Henry Hugglemonster: Character Spot 1                                                                          150                                
PROFAMCHA130501051934052034000100D-JR Promo - Tickety Toc - Racing The Clock - Get                                                                           150                                
PROFAMCHA130501052034052059000025D-JR Live Action ID - #29 Put Shoes On (Sept2012)                                                                           150                                
PROFAMCHA130501052059052106000007D-JR Live Action ID - SWOBB - Now (May2012)                                                                                 150                                
PROFAMCHA130501052106052113000007D-JR - Flex ID - Green (:6-:10) (Feb2012)                                                                                   150                                
PGRFAMCHA130501052113054343002230The Secret World of Benjamin Bear                 EP: 51                                                        C31763 1065607ECC                              
PROFAMCHA130501054343054350000007D-JR Live Action ID - Harry & His Dinosaurs - Comi                                                                          150                                
PROFAMCHA130501054350054415000025D-JR Live Action ID - #29 Put Shoes On (Sept2012)                                                                           150                                
PROFAMCHA130501054415054425000010D-JR - Flex ID - Purple (:6-:10) (Feb2012)                                                                                  150                                
PROFAMCHA130501054425054450000025D-JR Live Action ID - #42 Brush Teeth (May2012)                                                                             150                                
PROFAMCHA130501054450054457000007D-JR Live Action ID - Harry & His Dinosaurs - Now                                                                           150                                
PGRFAMCHA130501054457060632002135Harry and His Bucket Full of Dinosaurs            EP: 16                                                        B05035 1065607ECC                              
PROFAMCHA130501060632060640000008D-JR Live Action ID - Stella & Sam - Coming Up (Ma                                                                          150                                
PROFAMCHA130501060640060705000025D-JR Live Action ID - #44 Fold Towels (Sept2012)                                                                            150                                
PROFAMCHA130501060705060735000030D-JR Promo - On demand online REVISED - D-JR.ca (M                                                                          150                                
PROFAMCHA130501060735060817000042D-JR Promo - Bananas in Pajamas - Weekdays @ 10am                                                                           150                                
PROFAMCHA130501060817060852000035D-JR Promo - Handy Manny - Get more on the channel                                                                          150                                
PROFAMCHA130501060852060917000025D-JR Promo - JATNP - Get more on the channel REV (                                                                          150                                
PROFAMCHA130501060917060942000025D-JR Live Action ID - #45 Sorting Socks (May2012)                                                                           150                                
PROFAMCHA130501060942060950000008D-JR Live Action ID - Stella & Sam - Now (Mar2013)                                                                          150                                
PROFAMCHA130501060950060957000007D-JR - Flex ID - Yellow (:6-:10) (Feb2012)                                                                                  150                                
PGRFAMCHA130501060957063312002315Stella and Sam                                    EP: 08                                                        C32553 1065607ECD                              
ID FAMCHA130501063312063317000005Astral ID (HD) (Jan2011)                                                                                                    150                                
PRCFAMCHA130501063317063344000027Next Step Episodic (HD) 109 - New Episode Friday N                                                                          150                                
PROFAMCHA130501063344063417000033Austin & Ally (HD) Music Lesson - This Afternoon @                                                                          150                                
PROFAMCHA130501063417063437000020Hannah (HD) Clip Promo Cookies - Coming Up Next (A                                                                          150                                
PRCFAMCHA130501063437063454000017Family Bumper Flex (HD) Flex ID - ANT Farm (:16-:2                                                                          150                                
PGRFAMCHA130501063454065727002233Hannah Montana                                    EP: 17                                                               6068807BCC                              
PRCFAMCHA130501065727065749000022Game Change Friday April Promo (HD) Family.ca (Apr                                                                          150                                
PROFAMCHA130501065749065829000040Kellogg's                                                                                                                   150                                
PROFAMCHA130501065829065859000030Shake It Up (HD) Cee Cee Sell - Coming Up Next  (A                                                                          150                                
PROFAMCHA130501065859065945000046xGLC Get Down With The Duncans Marathon (HD) Fri M                                                                          150                                
PRCFAMCHA130501065945065958000013Family Bumper (HD) - Drums ID (Jan 2011)                                                                                    150                                
PGRFAMCHA130501065958072233002235Disney Shake It Up                                EP: 02                                                               6068707BCC                              
PRCFAMCHA130501072233072303000030Web FOD 2012 Refresh (HD) Family.ca New Look (Apr2                                                                          150                                
PROFAMCHA130501072303072343000040Kellogg's                                                                                                                   150                                
PROFAMCHA130501072343072358000015Jessie (HD) Refresh CD - This Afternoon @ 5:00 (Ap                                                                          150                                
PROFAMCHA130501072358072413000015ANT Farm (HD) Ole McDonald CD - Coming Up Next (Ap                                                                          150                                
PROFAMCHA130501072413072443000030Tangled (HD) Premieres Saturday May 18 @ 6:00 (Apr                                                                          150                                
PRCFAMCHA130501072443072459000016Family Bumper (HD) - Fashion ID (Jan 2011)                                                                                  150                                
PGRFAMCHA130501072459074715002216Disney A.N.T. Farm                                EP: 14                                                               6068607BCC                              
PROFAMCHA130501074715074741000026Web DWAB @ family.ca (HD) Play Games at family.ca                                                                           150                                
PROFAMCHA130501074741074806000025Kellogg's                                                                                                                   150                                
PRCFAMCHA130501074806074837000031Phineas & Ferb (HD) Disney Refresh - This Afternoo                                                                          150                                
PGRFAMCHA130501074837074927000050Synergy DMS (HD) Iron Man 3 - Coming Soon (Apr19-M                                                                     60688120                                
PROFAMCHA130501074927074957000030Jessie (HD) Happy Place - Coming Up Next (Apr2013)                                                                          150                                
PRCFAMCHA130501074957075042000045xGood Luck Charlie Episodic (HD) 401 - New Episode                                                                          150                                
PRCFAMCHA130501075042075058000016Family Bumper Flex (HD) Flex ID - Music ID (:14-:1                                                                          150                                
PGRFAMCHA130501075058081430002332Disney Jessie                                     EP: 09                                                               6068807BCC                              
ID FAMCHA130501081430081436000006Astral ID (HD) (Jan2011)                                                                                                    150                                
PRCFAMCHA130501081436081503000027Next Step Episodic (HD) 109 - New Episode Friday N                                                                          150                                
PROFAMCHA130501081503081533000030ANT Farm (HD) Disney Refresh - This Afternoon @ 3:                                                                          150                                
PROFAMCHA130501081533081600000027Good Luck Charlie (HD) Promo 3 - This Afternoon @                                                                           150                                
PROFAMCHA130501081600081638000038Wingin It (HD) Refresh Promo - Tonight @ 7:30 (Apr                                                                          150                                
PROFAMCHA130501081638081657000019WOWP (HD) Clip Bad Time - Coming Up Next (April 20                                                                          150                                
PRCFAMCHA130501081657081742000045Rebound (HD) Premieres Friday May 10 @ 8:00 (Apr30                                                                          150                                
PRCFAMCHA130501081742081754000012Family Bumper Flex (HD) Flex ID - Really Me (Apr20                                                                          150                                
PGRFAMCHA130501081754084025002231Disney Wizards of Waverly Place                   EP: 09                                                               6068607BCC                              
PROFAMCHA130501084025084033000008D-JR Live Action ID - Tickity Toc - Coming Up (Mar                                                                          150                                
PROFAMCHA130501084033084058000025D-JR Live Action ID - #45 Sorting Socks (May2012)                                                                           150                                
PROFAMCHA130501084058084128000030D-JR Promo - On demand online REVISED - D-JR.ca (M                                                                          150                                
PROFAMCHA130501084128084208000040MGA Entertainment                                                                                                           150                                
PROFAMCHA130501084208084238000030D-JR Promo - Henry Hugglemonster: Character Spot 1                                                                          150                                
PROFAMCHA130501084238084323000045D-JR Promo - Sofia The First: What's on the Inside                                                                          150                                
PROFAMCHA130501084323084413000050The Walt Disney Company                                                                                                     150                                
PROFAMCHA130501084413084438000025D-JR Live Action ID - #46 Donating Clothes (Sept20                                                                          150                                
PROFAMCHA130501084438084446000008D-JR Live Action ID - Tickity Toc - Now (Mar2013)                                                                           150                                
PROFAMCHA130501084446084454000008D-JR - Flex ID - Blue (:6-:10) (Feb2012)                                                                                    150                                
PGRFAMCHA130501084454085555001101Tickety Toc                                       EP: 07                                                               3068605ACC                              
PGRFAMCHA130501085555090656001101Tickety Toc                                       EP: 08                                                               3068605ACC                              
ID FAMCHA130501090656090701000005Astral ID (HD) (Jan2011)                                                                                                    150                                
PROFAMCHA130501090701090708000007D-JR Live Action ID - Mickey Mouse Clubhouse - Com                                                                          150                                
PROFAMCHA130501090708090733000025D-JR Live Action ID - #47 Making Breakfast (May201                                                                          150                                
PROFAMCHA130501090733090803000030D-JR Promo - Little Einsteins - Get more on D-JR t                                                                          150                                
PROFAMCHA130501090803090843000040MGA Entertainment                                                                                                           150                                
PROFAMCHA130501090843090943000100D-JR Promo - Tickety Toc - Racing The Clock - Get                                                                           150                                
PROFAMCHA130501090943091013000030D-JR Promo - Henry Hugglemonster: Character Spot 1                                                                          150                                
PROFAMCHA130501091013091038000025D-JR Live Action ID - #48 Help Feed Sibling (Sept2                                                                          150                                
PROFAMCHA130501091038091045000007D-JR Live Action ID - Mickey Mouse Clubhouse - Now                                                                          150                                
PROFAMCHA130501091045091053000008D-JR - Flex ID - Green (:6-:10) (Feb2012)                                                                                   150                                
PGRFAMCHA130501091053093454002401Disney's Mickey Mouse Clubhouse                   EP: 24                                                               6068605ACC                              
ID FAMCHA130501093454093459000005Astral ID (HD) (Jan2011)                                                                                                    150                                
PROFAMCHA130501093459093506000007D-JR Live Action ID - Handy Manny - Coming Up (May                                                                          150                                
PROFAMCHA130501093506093531000025D-JR Live Action ID - #49 Making Lunch Routine (Ma                                                                          150                                
PROFAMCHA130501093531093613000042D-JR Promo - Bananas in Pajamas - Weekdays @ 10am                                                                           150                                
PROFAMCHA130501093613093638000025D-JR Live Action ID - #64 Pick Up Room/Turn off Li                                                                          150                                
PROFAMCHA130501093638093645000007D-JR Live Action ID - Handy Manny - Now (May2012)                                                                           150                                
PROFAMCHA130501093645093655000010D-JR - Flex ID - Purple (:6-:10) (Feb2012)                                                                                  150                                
PGRFAMCHA130501093655100101002406Handy Manny                                       EP: 06                                                               6068605ACC                              
PROFAMCHA130501100101100109000008D-JR Live Action ID - Jake & the Never Land Pirate                                                                          150                                
PROFAMCHA130501100109100134000025D-JR Live Action ID - #12 Feed Goldfish (May2012)                                                                           150                                
PROFAMCHA130501100134100149000015D-JR Promo - Sofia The First: Clip 3 - Get More We                                                                          150                                
PROFAMCHA130501100149100239000050The Walt Disney Company                                                                                                     150                                
PROFAMCHA130501100239100314000035D-JR Promo - Handy Manny - Get more on the channel                                                                          150                                
PROFAMCHA130501100314100339000025D-JR Live Action ID - #44 Fold Towels (Sept2012)                                                                            150                                
PROFAMCHA130501100339100346000007D-JR Live Action ID - Jake & the Never Land Pirate                                                                          150                                
PROFAMCHA130501100346100356000010D-JR - Flex ID - Yellow (:6-:10) (Feb2012)                                                                                  150                                
PGRFAMCHA130501100356102802002406Disney Jake and the Never Land Pirates            EP: 09                                                               6068605ACC                              
PROFAMCHA130501102802102810000008D-JR Live Action ID - Little Einsteins - Coming Up                                                                          150                                
PROFAMCHA130501102810102835000025D-JR Live Action ID - #72 Family Tree Craft (Sept2                                                                          150                                
PROFAMCHA130501102835102917000042D-JR Promo - Bananas in Pajamas - Get more on the                                                                           150                                
PROFAMCHA130501102917102942000025D-JR Live Action ID - #20 Calendar (May2012)                                                                                150                                
PROFAMCHA130501102942102950000008D-JR Live Action ID - Little Einsteins - Now (Nov2                                                                          150                                
PROFAMCHA130501102950103000000010D-JR - Flex ID - Blue (:6-:10) (Feb2012)                                                                                    150                                
PGRFAMCHA130501103000105407002407Disney's Little Einsteins                         EP: 18                                                               6068605ACC                              
ID FAMCHA130501105407105412000005Astral ID (HD) (Jan2011)                                                                                                    150                                
PRCFAMCHA130501105412105439000027Next Step Episodic (HD) 109 - New Episode Friday N                                                                          150                                
PRCFAMCHA130501105439105510000031Phineas & Ferb (HD) Disney Refresh - This Afternoo                                                                          150                                
PROFAMCHA130501105510105543000033Austin & Ally (HD) Music Lesson - This Afternoon @                                                                          150                                
PGRFAMCHA130501105543105757000214xMV Disney (HD) Bella & Zendaya - Contagious Love                                                                      60685120CC                              
PROFAMCHA130501105757105827000030Shake It Up (HD) Cee Cee Sell - Tonight @ 630  (Ap                                                                          150                                
PROFAMCHA130501105827105903000036SLOZ+C (HD) Refresh Jan2011 - Coming Up Next (Apri                                                                          150                                
PRCFAMCHA130501105903105948000045xGood Luck Charlie Episodic (HD) 401 - New Episode                                                                          150                                
PRCFAMCHA130501105948110001000013Family Bumper (HD) - Karate ID (Jan 2011)                                                                                   150                                
ID FAMCHA130501110001110006000005Popcorn Pix Magic of Disney Bumper (HD) (Apr2013)                                                                           150                                
PGRFAMCHA130501110006112237002231The Suite Life of Zack and Cody                   EP: 07                                                               6068607BCC                              
PRCFAMCHA130501112237112259000022Game Change Friday April Promo (HD) Family.ca (Apr                                                                          150                                
PROFAMCHA130501112259112339000040Kellogg's                                                                                                                   150                                
PROFAMCHA130501112339112402000023WOWP (HD) Harper - Today @ Noon (April 2013)                                                                                150                                
PGRFAMCHA130501112402112756000354MV Disney (HD) Bridgit Mendler - Hurricane (Apr13-                                                                     60685120CC                              
PRCFAMCHA130501112756112827000031Phineas & Ferb (HD) Disney Refresh - Weekday After                                                                          150                                
PROFAMCHA130501112827112902000035D-JR Promo - Bananas in Pajamas - Clip 1 - Get mor                                                                          150                                
PRCFAMCHA130501112902112947000045Rebound (HD) Premieres Friday May 10 @ 8:00 (Apr30                                                                          150                                
PRCFAMCHA130501112947112958000011Family Bumper Flex (HD) Flex ID - Wingin It (Apr20                                                                          150                                
ID FAMCHA130501112958113003000005Popcorn Pix Magic of Disney Bumper (HD) (Apr2013)                                                                           150                                
PGRFAMCHA130501113003115236002233The Suite Life on Deck                            EP: 14                                                               6068807BCC                              
ID FAMCHA130501115236115242000006Astral ID (HD) (Jan2011)                                                                                                    150                                
PROFAMCHA130501115242115308000026Web DWAB @ family.ca (HD) Play Games at family.ca                                                                           150                                
PROFAMCHA130501115308115338000030ANT Farm (HD) Disney Refresh - This Afternoon @ 3:                                                                          150                                
PGRFAMCHA130501115338115730000352MV Non Disney (HD) Hunter Hayes - Wanted (Dec9-Jun                                                                     10615120CC                              
PROFAMCHA130501115730115808000038Wingin It (HD) Refresh Promo - Tonight @ 7:30 (Apr                                                                          150                                
PRCFAMCHA130501115808115838000030Descriptive Video PSA (HD) (Apr15-Jun30)                                                                                    150                                
PROFAMCHA130501115838115857000019WOWP (HD) Clip Bad Time - Coming Up Next (April 20                                                                          150                                
PROFAMCHA130501115857115943000046xGLC Get Down With The Duncans Marathon (HD) Fri M                                                                          150                                
PRCFAMCHA130501115943115959000016Family Bumper Flex (HD) Flex ID - WUW (May2012) (:                                                                          150                                
PGRFAMCHA130501115959122233002234Disney Wizards of Waverly Place                   EP: 12                                                               6068607BCC                              
PRCFAMCHA130501122233122303000030Web FOD 2012 Refresh (HD) Family.ca New Look (Apr2                                                                          150                                
PROFAMCHA130501122303122328000025Kellogg's                                                                                                                   150                                
PROFAMCHA130501122328122343000015PSA CMF (HD) Canada on Screen (Nov2012) (3x per da                                                                          150                                
PRCFAMCHA130501122343122414000031Phineas & Ferb (HD) Disney Refresh - This Afternoo                                                                          150                                
PGRFAMCHA130501122414122722000308MV Non Disney (HD) Victoria Duffield ft Cody-They                                                                      10615120CC                              
PROFAMCHA130501122722122822000100Gravity Falls (HD) Twin Sell - Tonight @ 8:30 (Apr                                                                          150                                
PROFAMCHA130501122822122847000025D-JR Promo - JATNP - Get more on the channel REV (                                                                          150                                
PROFAMCHA130501122847122907000020Hannah (HD) Clip Promo Cookies - Coming Up Next (A                                                                          150                                
PRCFAMCHA130501122907122952000045xGood Luck Charlie Episodic (HD) 401 - New Episode                                                                          150                                
PRCFAMCHA130501122952123002000010Family Bumper (HD) - Amoeba ID (Jan 2011)                                                                                   150                                
PGRFAMCHA130501123002125235002233Hannah Montana                                    EP: 09                                                               6068707BCC                              
PRCFAMCHA130501125235125302000027Next Step Episodic (HD) 109 - New Episode Friday N                                                                          150                                
PROFAMCHA130501125302125327000025Kellogg's                                                                                                                   150                                
PRCFAMCHA130501125327125412000045Austin & Ally (HD) Pitch Perfect - This Afternoon                                                                           150                                
PGRFAMCHA130501125412125502000050Synergy DMS (HD) Iron Man 3 - Coming Soon (Apr19-M                                                                     60688120                                
PROFAMCHA130501125502125517000015Jessie (HD) Refresh CD - This Afternoon @ 5:00 (Ap                                                                          150                                
PGRFAMCHA130501125517125717000200Who I Am (HD) Maia Mitchell (March5-May5)                                                                              60685120                                
PROFAMCHA130501125717125744000027Good Luck Charlie (HD) Promo 3 - Tonight @ 7:00 (A                                                                          150                                
PROFAMCHA130501125744125859000115MV Disney (HD) Phineas & Ferb - MV OWCA - Generic                                                                           150CC                              
PROFAMCHA130501125859125915000016SWAC (HD) Weather - Coming Up Next (April 2013)                                                                             150                                
PROFAMCHA130501125915125945000030Tangled (HD) Premieres Saturday May 18 @ 6:00 (Apr                                                                          150                                
PRCFAMCHA130501125945130003000018Family Bumper (HD) - Dominoes ID (Jan 2011)                                                                                 150                                
PGRFAMCHA130501130003132229002226Disney Sonny With A Chance                        EP: 05                                                               6068507BCC                              
PRCFAMCHA130501132229132259000030Next Step Aftershow Promo (HD) On family.ca (Sep20                                                                          150                                
PROFAMCHA130501132259132339000040Kellogg's                                                                                                                   150                                
PROFAMCHA130501132339132402000023WOWP (HD) Harper - Weekday Afternoons @ 3 (April 2                                                                          150                                
PROFAMCHA130501132402132432000030ANT Farm (HD) Disney Refresh - This Afternoon @ 3:                                                                          150                                
PGRFAMCHA130501132432132800000328MV Non Disney (HD) Mandia Nantsios - One Last Time                                                                     10615120CC                              
PROFAMCHA130501132800132830000030Shake It Up (HD) Cee Cee Sell - Tonight @ 630  (Ap                                                                          150                                
PROFAMCHA130501132830132900000030D-JR Promo - Little Einsteins - Get more on D-JR t                                                                          150                                
PROFAMCHA130501132900132930000030So Random (HD) Musical Guest Refresh - Coming Up N                                                                          150                                
PRCFAMCHA130501132930132959000029Family Bumper Flex (HD) Flex ID - Austin & Ally (F                                                                          150                                
PGRFAMCHA130501132959135232002233So Random!                                        EP: 18                                                               6068807BCC                              
ID FAMCHA130501135232135238000006Astral ID (HD) (Jan2011)                                                                                                    150                                
PROFAMCHA130501135238135324000046xGLC Get Down With The Duncans Marathon (HD) Fri M                                                                          150                                
PROFAMCHA130501135324135404000040Kellogg's                                                                                                                   150                                
PROFAMCHA130501135404135421000017Phineas & Ferb (HD) Disney Refresh CD - This After                                                                          150                                
PGRFAMCHA130501135421135635000214xMV Disney (HD) Bella & Zendaya - Contagious Love                                                                      60685120CC                              
PROFAMCHA130501135635135651000016Shake It Up (HD) Refresh CD - Tonight @ 6:30 (Apri                                                                          150                                
PGRFAMCHA130501135651135852000201Who I Am (HD) Laura Marano (Apr1-Jun1)                                                                                 60685120                                
PRCFAMCHA130501135852135944000052Next Step (HD) A Troop Promo - Tomorrow Night @ 73                                                                          150                                
PRCFAMCHA130501135944140004000020Family Bumper (HD) - Wallpaper ID (Jan 2011)                                                                                150                                
PGRFAMCHA130501140004142242002238That's So Raven                                   EPS # 1-057                                                          6068607BCC                              
PRCFAMCHA130501142242142304000022Game Change Friday April Promo (HD) Family.ca (Apr                                                                          150                                
PROFAMCHA130501142304142329000025Kellogg's                                                                                                                   150                                
PROFAMCHA130501142329142348000019WOWP (HD) Clip Bad Time - This Afternoon @ 3 (Apri                                                                          150                                
PROFAMCHA130501142348142418000030Shake It Up (HD) Cee Cee Sell - Tonight @ 630  (Ap                                                                          150                                
PGRFAMCHA130501142418142812000354MV Disney (HD) Bridgit Mendler - Hurricane (Apr13-                                                                     60685120CC                              
PRCFAMCHA130501142812142835000023Gravity Falls (HD) Comedy Sell - Tonight @ 8:30 (A                                                                          150                                
PROFAMCHA130501142835142905000030D-JR Promo - Tickety Toc - Time to Chime - Get mor                                                                          150                                
PRCFAMCHA130501142905142950000045xGood Luck Charlie Episodic (HD) 401 - New Episode                                                                          150                                
PRCFAMCHA130501142950143004000014Family Flex Next (HD) Jessie - Emma (:12-:14) (Mar                                                                          150                                
PGRFAMCHA130501143004145235002231The Suite Life on Deck                            EP: 14                                                               6068607BCC                              
PRCFAMCHA130501145235145302000027Next Step Episodic (HD) 109 - New Episode Friday N                                                                          150                                
PROFAMCHA130501145302145347000045Live Nation                                                                                                                 150                                
PRCFAMCHA130501145347145417000030Descriptive Video PSA (HD) (Apr15-Jun30)                                                                                    150                                
PROFAMCHA130501145417145455000038Wingin It (HD) Refresh Promo - New Episode Sunday                                                                           150                                
PGRFAMCHA130501145455145847000352MV Non Disney (HD) Hunter Hayes - Wanted (Dec9-Jun                                                                     10615120CC                              
PROFAMCHA130501145847145906000019WOWP (HD) Clip Bad Time - Coming Up Next (April 20                                                                          150                                
PROFAMCHA130501145906145932000026Web DWAB @ family.ca (HD) Play Games at family.ca                                                                           150                                
PRCFAMCHA130501145932150002000030Family Bumper Flex (HD) Flex ID - Austin & Ally (F                                                                          150                                
PGRFAMCHA130501150002152238002236Disney Wizards of Waverly Place                   EP: 10                                                               6068607BCC                              
PRCFAMCHA130501152238152308000030Web FOD 2012 Refresh (HD) Family.ca New Look (Apr2                                                                          150                                
PROFAMCHA130501152308152353000045Live Nation                                                                                                                 150                                
PROFAMCHA130501152353152410000017Phineas & Ferb (HD) Disney Refresh CD - This After                                                                          150                                
PROFAMCHA130501152410152443000033Austin & Ally (HD) Music Lesson - This Afternoon @                                                                          150                                
PGRFAMCHA130501152443152810000327MV Disney (HD) Demi Lovato - Heart Attack (post 3p                                                                     60685120CC                              
PROFAMCHA130501152810152825000015ANT Farm (HD) Refresh CT - Coming Up Next (April 2                                                                          150                                
PROFAMCHA130501152825152905000040Kellogg's                                                                                                                   150                                
PRCFAMCHA130501152905152950000045Rebound (HD) Premieres Friday May 10 @ 8:00 (Apr30                                                                          150                                
PRCFAMCHA130501152950153006000016Family Bumper (HD) - Fashion ID (Jan 2011)                                                                                  150                                
PGRFAMCHA130501153006155337002331Disney A.N.T. Farm                                EP: 22                                                               6068607BCC                              
ID FAMCHA130501155337155342000005Astral ID (HD) (Jan2011)                                                                                                    150                                
PRCFAMCHA130501155342155412000030Next Step Aftershow Promo (HD) On family.ca (Sep20                                                                          150                                
PROFAMCHA130501155412155427000015Jessie (HD) Refresh CD - This Afternoon @ 5:00 (Ap                                                                          150                                
PROFAMCHA130501155427155527000100Gravity Falls (HD) Twin Sell - Tonight @ 8:30 (Apr                                                                          150                                
PGRFAMCHA130501155527155835000308MV Non Disney (HD) Victoria Duffield ft Cody-They                                                                      10615120CC                              
PRCFAMCHA130501155835155906000031Phineas & Ferb (HD) Disney Refresh - Coming Up Nex                                                                          150                                
PROFAMCHA130501155906155952000046xGLC Get Down With The Duncans Marathon (HD) Fri M                                                                          150                                
PRCFAMCHA130501155952160003000011Family Bumper Flex (HD) Flex ID - Wingin It (Apr20                                                                          150                                
PGRFAMCHA130501160003162234002231Disney Phineas & Ferb                             EP: 26                                                               6068607ECC                              
PROFAMCHA130501162234162304000030Tangled (HD) Premieres Saturday May 18 @ 6:00 (Apr                                                                          150                                
PROFAMCHA130501162304162329000025Kellogg's                                                                                                                   150                                
PROFAMCHA130501162329162344000015ANT Farm (HD) Refresh CT - Tonight @ 6:00 (April 2                                                                          150                                
PGRFAMCHA130501162344162434000050Synergy DMS (HD) Iron Man 3 - Coming Soon (Apr19-M                                                                     60688120                                
PROFAMCHA130501162434162450000016Shake It Up (HD) Refresh CD - Tonight @ 6:30 (Apri                                                                          150                                
PGRFAMCHA130501162450162818000328MV Non Disney (HD) Mandia Nantsios - One Last Time                                                                     10615120CC                              
PRCFAMCHA130501162818162903000045Austin & Ally (HD) Pitch Perfect - Coming Up Next                                                                           150                                
PRCFAMCHA130501162903162948000045xGood Luck Charlie Episodic (HD) 401 - New Episode                                                                          150                                
PRCFAMCHA130501162948163001000013Family Bumper Flex (HD) Flex ID - WUW (May2012) (:                                                                          150                                
PGRFAMCHA130501163001165234002233Disney Austin & Ally                              EP: 06                                                               6068807BCC                              
PRCFAMCHA130501165234165301000027Next Step Episodic (HD) 109 - New Episode Friday N                                                                          150                                
PROFAMCHA130501165301165351000050Walt Disney Pictures                                                                                                        150                                
PROFAMCHA130501165351165419000028Good Luck Charlie (HD) Promo 4 - Mon to Thurs @ 5:                                                                          150                                
PGRFAMCHA130501165419165633000214xMV Disney (HD) Bella & Zendaya - Contagious Love                                                                      60685120CC                              
PRCFAMCHA130501165633165718000045Austin & Ally (HD) Pitch Perfect - Tonight @ 8:00                                                                           150                                
PGRFAMCHA130501165718165918000200Who I Am (HD) Maia Mitchell (March5-May5)                                                                              60685120                                
PROFAMCHA130501165918165948000030Jessie (HD) Happy Place - Coming Up Next (Apr2013)                                                                          150                                
PRCFAMCHA130501165948170002000014Family Bumper (HD) - Horseshoe ID (Jan 2011)                                                                                150                                
PGRFAMCHA130501170002172206002204Disney Jessie                                     EP: 16                                                               6068807BCC                              
PRCFAMCHA130501172206172228000022Game Change Friday April Promo (HD) Family.ca (Apr                                                                          150                                
PROFAMCHA130501172228172258000030ANT Farm (HD) Disney Refresh - Tonight @ 6:00 (Apr                                                                          150                                
PGRFAMCHA130501172258172459000201Who I Am (HD) Laura Marano (Apr1-Jun1)                                                                                 60685120                                
PRCFAMCHA130501172459172528000029Next Step Dancing Is (HD) Eldon - Friday Night @ 7                                                                          150                                
PGRFAMCHA130501172528172922000354MV Disney (HD) Bridgit Mendler - Hurricane (Apr13-                                                                     60685120CC                              
PROFAMCHA130501172922172949000027GLC (HD) Promo 3 - Coming Up Next (Apr2013)                                                                                 150                                
PRCFAMCHA130501172949173004000015Family Bumper (HD) - Hot Potato ID (Jan 2011)                                                                               150                                
PGRFAMCHA130501173004175208002204Good Luck Charlie                                 EP: 15                                                               6068707BCC                              
PROFAMCHA130501175208175254000046xGLC Get Down With The Duncans Marathon (HD) Fri M                                                                          150                                
PROFAMCHA130501175254175409000115MV Disney (HD) Phineas & Ferb - MV OWCA - Generic                                                                           150CC                              
PROFAMCHA130501175409175509000100Gravity Falls (HD) Twin Sell - Tonight @ 8:30 (Apr                                                                          150                                
PGRFAMCHA130501175509175901000352MV Non Disney (HD) Hunter Hayes - Wanted (Dec9-Jun                                                                     10615120CC                              
PROFAMCHA130501175901175931000030ANT Farm (HD) Disney Refresh - Coming Up Next (Apr                                                                          150                                
PROFAMCHA130501175931175957000026Web DWAB @ family.ca (HD) Play Games at family.ca                                                                           150                                
PRCFAMCHA130501175957180007000010Family Bumper (HD) - Amoeba ID (Jan 2011)                                                                                   150                                
PGRFAMCHA130501180007182238002231Disney A.N.T. Farm                                EP: 07                                                               6068607BCC                              
PRCFAMCHA130501182238182308000030Web FOD 2012 Refresh (HD) Family.ca New Look (Apr2                                                                          150                                
PROFAMCHA130501182308182358000050Walt Disney Pictures                                                                                                        150                                
PRCFAMCHA130501182358182421000023Gravity Falls (HD) Comedy Sell - Weekend Afternoon                                                                          150                                
PGRFAMCHA130501182421182748000327MV Disney (HD) Demi Lovato - Heart Attack (post 3p                                                                     60685120CC                              
PROFAMCHA130501182748182818000030Shake It Up (HD) Cee Cee Sell - Coming Up Next  (A                                                                          150                                
PROFAMCHA130501182818182903000045Live Nation                                                                                                                 150                                
PRCFAMCHA130501182903182948000045xGood Luck Charlie Episodic (HD) 401 - New Episode                                                                          150                                
PRCFAMCHA130501182948183006000018Family Bumper Flex (HD) Flex ID - ANT Farm (:16-:2                                                                          150                                
PGRFAMCHA130501183006185253002247Disney Shake It Up                                EP: 09                                                               6068707BCC                              
ID FAMCHA130501185253185258000005Astral ID (HD) (Jan2011)                                                                                                    150                                
PRCFAMCHA130501185258185325000027Next Step Episodic (HD) 109 - New Episode Friday N                                                                          150                                
PROFAMCHA130501185325185405000040Kellogg's                                                                                                                   150                                
PROFAMCHA130501185405185443000038Wingin It (HD) Refresh Promo - Tonight @ 7:30 (Apr                                                                          150                                
PROFAMCHA130501185443185513000030Jessie (HD) Happy Place - Friday Night @ 7:30 (Apr                                                                          150                                
PGRFAMCHA130501185513185821000308MV Non Disney (HD) Victoria Duffield ft Cody-They                                                                      10615120CC                              
PROFAMCHA130501185821185849000028GLC (HD) Promo 4 - Coming Up Next (April 2013)                                                                              150                                
PRCFAMCHA130501185849185934000045Rebound (HD) Premieres Friday May 10 @ 8:00 (Apr30                                                                          150                                
PRCFAMCHA130501185934190004000030Family Bumper Flex (HD) Flex ID - Austin & Ally (F                                                                          150                                
PGRFAMCHA130501190004192205002201Disney Good Luck Charlie                          EP: 06                                                               6068807BCC                              
PROFAMCHA130501192205192251000046xGLC Get Down With The Duncans Marathon (HD) Fri M                                                                          150                                
PROFAMCHA130501192251192341000050Walt Disney Pictures                                                                                                        150                                
PRCFAMCHA130501192341192426000045Austin & Ally (HD) Pitch Perfect - Tonight @ 8:00                                                                           150                                
PGRFAMCHA130501192426192827000401MV Non Disney (HD) Taylor Matthews - Head Over Fee                                                                     10615120CC                              
PROFAMCHA130501192827192846000019WOWP (HD) Clip Bad Time - Weekend Mornings @ 8 (Ap                                                                          150                                
PROFAMCHA130501192846192924000038Wingin It (HD) Refresh Promo - Coming Up Next (Apr                                                                          150                                
PRCFAMCHA130501192924192946000022Game Change Friday April Promo (HD) Family.ca (Apr                                                                          150                                
PRCFAMCHA130501192946193003000017Family Bumper Flex (HD) Flex ID - Jessie ID (:15-:                                                                          150                                
PRCFAMCHA130501193003193017000014Descriptive Video Slate (HD) (Apr2013)                                                                                      150                                
PGRFAMCHA130501193017195247002230Wingin' It                                        EP: 05                                                        C35822 1055607ACD3                             
PRCFAMCHA130501195247195317000030Next Step Aftershow Promo (HD) On family.ca (Sep20                                                                          150                                
PGRFAMCHA130501195317195531000214xMV Disney (HD) Bella & Zendaya - Contagious Love                                                                      60685120CC                              
PROFAMCHA130501195531195631000100Gravity Falls (HD) Twin Sell - Tonight @ 8:30 (Apr                                                                          150                                
PROFAMCHA130501195631195646000015PSA CMF (HD) Canada on Screen (Nov2012) (3x per da                                                                          150                                
PGRFAMCHA130501195646195846000200Who I Am (HD) Maia Mitchell (March5-May5)                                                                              60685120                                
PROFAMCHA130501195846195919000033Austin & Ally (HD) Music Lesson - Coming Up Next (                                                                          150                                
PROFAMCHA130501195919195949000030Tangled (HD) Premieres Saturday May 18 @ 6:00 (Apr                                                                          150                                
PRCFAMCHA130501195949200001000012Family Bumper Flex (HD) Flex ID - Really Me (Apr20                                                                          150                                
PGRFAMCHA130501200001202232002231Disney Austin & Ally                              EP: 03                                                               6068807BCC                              
PRCFAMCHA130501202232202317000045xGood Luck Charlie Episodic (HD) 401 - New Episode                                                                          150                                
PROFAMCHA130501202317202342000025Kellogg's                                                                                                                   150                                
PROFAMCHA130501202342202412000030Jessie (HD) Happy Place - Friday Night @ 7:30 (Apr                                                                          150                                
PGRFAMCHA130501202412202502000050Synergy DMS (HD) Iron Man 3 - Coming Soon (Apr19-M                                                                     60688120                                
PROFAMCHA130501202502202528000026Web DWAB @ family.ca (HD) Play Games at family.ca                                                                           150                                
PGRFAMCHA130501202528202922000354MV Disney (HD) Bridgit Mendler - Hurricane (Apr13-                                                                     60685120CC                              
PRCFAMCHA130501202922202945000023Gravity Falls (HD) Comedy Sell - Coming Up Next (A                                                                          150                                
PRCFAMCHA130501202945203000000015Family Bumper Flex (HD) Flex ID - Music ID (:14-:1                                                                          150                                
PGRFAMCHA130501203000205135002135Disney Gravity Falls                              EP: 16                                                               6068607ECC                              
ID FAMCHA130501205135205141000006Astral ID (HD) (Jan2011)                                                                                                    150                                
PRCFAMCHA130501205141205208000027Next Step Episodic (HD) 109 - New Episode Friday N                                                                          150                                
PROFAMCHA130501205208205227000019WOWP (HD) Clip Bad Time - Tomorrow @ Noon (April 2                                                                          150                                
PGRFAMCHA130501205227205619000352MV Non Disney (HD) Hunter Hayes - Wanted (Dec9-Jun                                                                     10615120CC                              
PRCFAMCHA130501205619205649000030Descriptive Video PSA (HD) (Apr15-Jun30)                                                                                    150                                
PGRFAMCHA130501205649205850000201Who I Am (HD) Laura Marano (Apr1-Jun1)                                                                                 60685120                                
PROFAMCHA130501205850205907000017Phineas & Ferb (HD) Disney Refresh CD - Tomorrow A                                                                          150                                
PROFAMCHA130501205907205945000038Wingin It (HD) Refresh Promo - Coming Up Next (Apr                                                                          150                                
PRCFAMCHA130501205945210000000015Family Bumper Flex (HD) Flex ID - Spring (:12-:15)                                                                          150                                
PRCFAMCHA130501210000210014000014Descriptive Video Slate (HD) (Apr2013)                                                                                      150                                
PGRFAMCHA130501210014212246002232Wingin' It                                        EP: 02                                                        C32727 1065607ACD                              
PROFAMCHA130501212246212332000046xGLC Get Down With The Duncans Marathon (HD) Fri M                                                                          150                                
PROFAMCHA130501212332212447000115MV Disney (HD) Phineas & Ferb - MV OWCA - Generic                                                                           150CC                              
PRCFAMCHA130501212447212532000045Austin & Ally (HD) Pitch Perfect - Tomorrow Aftern                                                                          150                                
PGRFAMCHA130501212532212859000327MV Disney (HD) Demi Lovato - Heart Attack (post 3p                                                                     60685120CC                              
PROFAMCHA130501212859212924000025D-JR Promo - JATNP - Get more on the channel REV (                                                                          150                                
PROFAMCHA130501212924212954000030Jessie (HD) Happy Place - Tomorrow Afternoon @ 5:0                                                                          150                                
PRCFAMCHA130501212954213002000008Family Bumper (HD) - Origami ID (Jan 2011)                                                                                  150                                
PGRFAMCHA130501213002215303002301What's Up, Warthogs!                              EP: 20                                                        B33327 1065607BCC                              
ID FAMCHA130501215303215309000006Astral ID (HD) (Jan2011)                                                                                                    150                                
PRCFAMCHA130501215309215331000022Game Change Friday April Promo (HD) Family.ca (Apr                                                                          150                                
PROFAMCHA130501215331215401000030Shake It Up (HD) Cee Cee Sell - Monday to Thursday                                                                          150                                
PRCFAMCHA130501215401215453000052Next Step (HD) A Troop Promo - Tomorrow Night @ 73                                                                          150                                
PGRFAMCHA130501215453215801000308MV Non Disney (HD) Victoria Duffield ft Cody-They                                                                      10615120CC                              
PROFAMCHA130501215801215901000100Gravity Falls (HD) Twin Sell - Weekend Afternoons                                                                           150                                
PRCFAMCHA130501215901215946000045Rebound (HD) Premieres Friday May 10 @ 8:00 (Apr30                                                                          150                                
PRCFAMCHA130501215946215958000012Family Bumper Flex (HD) Flex ID - Really Me Chest                                                                           150                                
PGRFAMCHA130501215958222232002234Lizzie McGuire                                    EP: 22                                                               6068607BCC                              
PRCFAMCHA130501222232222302000030Web FOD 2012 Refresh (HD) Family.ca New Look (Apr2                                                                          150                                
PROFAMCHA130501222302222347000045Live Nation                                                                                                                 150                                
PROFAMCHA130501222347222402000015PSA CMF (HD) Canada on Screen (Nov2012) (3x per da                                                                          150                                
PROFAMCHA130501222402222435000033Austin & Ally (HD) Music Lesson - Monday to Thursd                                                                          150                                
PGRFAMCHA130501222435222803000328MV Non Disney (HD) Mandia Nantsios - One Last Time                                                                     10615120CC                              
PRCFAMCHA130501222803222829000026Next Step Dancing Is (HD) James - Friday Night @ 7                                                                          150                                
PROFAMCHA130501222829222859000030D-JR Promo - Little Einsteins - Get more on D-JR t                                                                          150                                
PRCFAMCHA130501222859222944000045xGood Luck Charlie Episodic (HD) 401 - New Episode                                                                          150                                
PRCFAMCHA130501222944222957000013Family Bumper Flex (HD) Flex ID - Wingin It (Apr20                                                                          150                                
ID FAMCHA130501222957223002000005Popcorn Pix Magic of Disney Bumper (HD) (Apr2013)                                                                           150                                
PGRFAMCHA130501223002225243002241That's So Raven                                   EP: 096                                                              6068607BCD                              
ID FAMCHA130501225243225248000005Astral ID (HD) (Jan2011)                                                                                                    150                                
PRCFAMCHA130501225248225315000027Next Step Episodic (HD) 109 - New Episode Friday N                                                                          150                                
PROFAMCHA130501225315225340000025Kellogg's                                                                                                                   150                                
PRCFAMCHA130501225340225425000045Austin & Ally (HD) Pitch Perfect - Weekend Morning                                                                          150                                
PGRFAMCHA130501225425225639000214xMV Disney (HD) Bella & Zendaya - Contagious Love                                                                      60685120CC                              
PROFAMCHA130501225639225717000038Wingin It (HD) Refresh Promo - New Episode Sunday                                                                           150                                
PGRFAMCHA130501225717225917000200Who I Am (HD) Maia Mitchell (March5-May5)                                                                              60685120                                
PROFAMCHA130501225917225947000030Tangled (HD) Premieres Saturday May 18 @ 6:00 (Apr                                                                          150                                
PRCFAMCHA130501225947230000000013Family Bumper (HD) - Drums ID (Jan 2011)                                                                                    150                                
PGRFAMCHA130501230000232233002233Disney Cory in the House                          EP: 20                                                               6068607BCC                              
PRCFAMCHA130501232233232303000030Next Step Aftershow Promo (HD) On family.ca (Sep20                                                                          150                                
PROFAMCHA130501232303232318000015Jessie (HD) Refresh CD - Tomorrow Afternoon @ 5:00                                                                          150                                
PGRFAMCHA130501232318232710000352MV Non Disney (HD) Hunter Hayes - Wanted (Dec9-Jun                                                                     10615120CC                              
PROFAMCHA130501232710232740000030Shake It Up (HD) Cee Cee Sell - Monday to Thursday                                                                          150                                
PGRFAMCHA130501232740232830000050Synergy DMS (HD) Iron Man 3 - Coming Soon (Apr19-M                                                                     60688120                                
PROFAMCHA130501232830232900000030D-JR Promo - MMCH - Get more MMCH on D-JR the chan                                                                          150                                
PROFAMCHA130501232900232946000046xGLC Get Down With The Duncans Marathon (HD) Fri M                                                                          150                                
PRCFAMCHA130501232946233004000018Family Bumper (HD) - Dominoes ID (Jan 2011)                                                                                 150                                
PGRFAMCHA130501233004235453002449The Elephant Princess                             EP: 07                                                               7068507ACC                              
PROFAMCHA130501235453235519000026Web DWAB @ family.ca (HD) Play Games at family.ca                                                                           150                                
PGRFAMCHA130501235519235649000130MV Disney (HD) Bridgit Mendler - Hurricane (Apr13-                                                                     60685120CC                              
PROFAMCHA130501235649235704000015ANT Farm (HD) Refresh CT - Weekday Afternoons @ 3:                                                                          150                                
PGRFAMCHA130501235704235905000201Who I Am (HD) Laura Marano (Apr1-Jun1)                                                                                 60685120                                
PROFAMCHA130501235905235935000030Jessie (HD) Happy Place - Monday to Thursday After                                                                          150                                
PRCFAMCHA130501235935000006000031Family Bumper Flex (HD) Flex ID - Austin & Ally (F                                                                          150                                
PGRFAMCHA130501000006002244002238The Latest Buzz                                   EP: 02                                                        C30362 1065607BCC                              
ID FAMCHA130501002244002250000006Astral ID (HD) (Jan2011)                                                                                                    150                                
PRCFAMCHA130501002250002335000045xGood Luck Charlie Episodic (HD) 401 - New Episode                                                                          150                                
PRCFAMCHA130501002335002406000031Phineas & Ferb (HD) Disney Refresh - Weekday After                                                                          150                                
PGRFAMCHA130501002406002733000327MV Disney (HD) Demi Lovato - Heart Attack (post 3p                                                                     60685120CC                              
PROFAMCHA130501002733002833000100Gravity Falls (HD) Twin Sell - Weekend Afternoons                                                                           150                                
PROFAMCHA130501002833002905000032D-JR Promo - Stella and Sam - Get more on the chan                                                                          150                                
PRCFAMCHA130501002905002950000045Rebound (HD) Premieres Friday May 10 @ 8:00 (Apr30                                                                          150                                
PRCFAMCHA130501002950003008000018Family Bumper Flex (HD) Flex ID - Jessie ID (:15-:                                                                          150                                
PGRFAMCHA130501003008005239002231Overruled!                                        EP: 05                                                        C28762 1065607ACC                              
PRCFAMCHA130501005239005306000027Next Step Episodic (HD) 109 - New Episode Friday N                                                                          150                                
PRCFAMCHA130501005306005328000022Game Change Friday April Promo (HD) Family.ca (Apr                                                                          150                                
PGRFAMCHA130501005328005636000308MV Non Disney (HD) Victoria Duffield ft Cody-They                                                                      10615120CC                              
PRCFAMCHA130501005636005653000017Phineas & Ferb (HD) Disney Refresh CD - Weekday Af                                                                          150                                
PROFAMCHA130501005653005808000115MV Disney (HD) Phineas & Ferb - MV OWCA - Generic                                                                           150CC                              
PRCFAMCHA130501005808005853000045Austin & Ally (HD) Pitch Perfect - Tomorrow Aftern                                                                          150                                
PROFAMCHA130501005853005909000016Shake It Up (HD) Refresh CD - Monday to Thursday N                                                                          150                                
PROFAMCHA130501005909005955000046xGLC Get Down With The Duncans Marathon (HD) Fri M                                                                          150                                
PRCFAMCHA130501005955010009000014Family Flex Next (HD) Jessie - Jessie  (:12-:14) (                                                                          150                                
PGRFAMCHA130501010009012242002233DEBRA!                                            EP: 06                                                        C35763 1065607ACD                              
PRCFAMCHA130501012242012257000015Family Bumper Flex (HD) Flex ID - Really Me (Apr20                                                                          150                                
PGRFAMCHA130501012257014459002202Disney JONAS                                      EP: 09                                                               6068507BCC                              
ID FAMCHA130501014459014505000006Astral ID (HD) (Jan2011)                                                                                                    150                                
PRCFAMCHA130501014505014518000013Family Bumper Flex (HD) Flex ID - Spring (:12-:15)                                                                          150                                
ID FAMCHA130501014518014523000005Popcorn Pix Magic of Disney Bumper (HD) (Apr2013)                                                                           150                                
PGRFAMCHA130501014523020758002235Phil of the Future                                EPS # 05                                                             6068607BCD                              
PRCFAMCHA130501020758020812000014Family Bumper Flex (HD) Flex ID - Wingin It (Apr20                                                                          150                                
ID FAMCHA130501020812020817000005Popcorn Pix Magic of Disney Bumper (HD) (Apr2013)                                                                           150                                
PGRFAMCHA130501020817023310002453The Elephant Princess                             EP: 26                                                               7068507ACC                              
ID FAMCHA130501023310023316000006Astral ID (HD) (Jan2011)                                                                                                    150                                
PRCFAMCHA130501023316023328000012Family Bumper Flex (HD) Flex ID - WUW (May2012) (:                                                                          150                                
PGRFAMCHA130501023328025559002231Life with Derek                                   EP: 24                                                        C26822 1065607BCC                              
PRCFAMCHA130501025559025619000020Family Bumper Flex (HD) Flex ID - ANT Farm (:16-:2                                                                          150                                
PGRFAMCHA130501025619031821002202Slugterra                                         EP: 12                                                        A33763 1065607ACC                              
ID FAMCHA130501031821031827000006Astral ID (HD) (Jan2011)                                                                                                    150                                
PRCFAMCHA130501031827031858000031Family Bumper Flex (HD) Flex ID - Austin & Ally (F                                                                          150                                
PGRFAMCHA130501031858034130002232Overruled!                                        EP: 13                                                        C28762 1065607ACC                              
ID FAMCHA130501034130034136000006Astral ID (HD) (Jan2011)                                                                                                    150                                
PRCFAMCHA130501034136034154000018Family Bumper Flex (HD) Flex ID - Jessie ID (:15-:                                                                          150                                
PGRFAMCHA130501034154040429002235Latest Buzz II                                    EP: 01                                                        C29635 1065607BCC                              
PRCFAMCHA130501040429040447000018Family Bumper Flex (HD) Flex ID - Music ID (:14-:1                                                                          150                                
PGRFAMCHA130501040447042719002232Life with Derek                                   EP: 14                                                        C26679A1065607BCC                              
PROFAMCHA130501042719042801000042D-JR Promo - Bananas in Pajamas - Weekdays @ 10am                                                                           150                                
PROFAMCHA130501042801042826000025D-JR Promo - JATNP - Get more on the channel REV (                                                                          150                                
PROFAMCHA130501042826042858000032D-JR Promo - Stella and Sam - Get more on the chan                                                                          150                                
PROFAMCHA130501042858042950000052D-JR Promo - Doc McStuffins - Get more on the chan                                                                          150                                
PROFAMCHA130501042950043000000010D-JR - Flex ID - Yellow (:6-:10) (Feb2012)                                                                                  150                                
PGRFAMCHA130502043000045352002352Henry's World                                     EP: 01                                                        B66543 1065607ECC                              
ID FAMCHA130502045352045358000006Astral ID (HD) (Jan2011)                                                                                                    150                                
PROFAMCHA130502045358045405000007D-JR Live Action ID - Franny's Feet - Coming Up (M                                                                          150                                
PROFAMCHA130502045405045430000025D-JR Live Action ID - #12 Feed Goldfish (May2012)                                                                           150                                
PROFAMCHA130502045430045522000052D-JR Promo - Doc McStuffins - Get more on the chan                                                                          150                                
PROFAMCHA130502045522045547000025D-JR Live Action ID - #29 Put Shoes On (Sept2012)                                                                           150                                
PROFAMCHA130502045547045554000007D-JR Live Action ID - Franny's Feet - Now (May2012                                                                          150                                
PROFAMCHA130502045554045601000007D-JR - Flex ID - Blue (:6-:10) (Feb2012)                                                                                    150                                
PGRFAMCHA130502045601051834002233Franny's Feet                                     EP: 50                                                        C31292 1065607ECC                              
PROFAMCHA130502051834051841000007D-JR Live Action ID - SWOBB - Coming Up (May2012)                                                                           150                                
PROFAMCHA130502051841051906000025D-JR Live Action ID - #20 Calendar (May2012)                                                                                150                                
PROFAMCHA130502051906051936000030D-JR Promo - On demand online REVISED - D-JR.ca (M                                                                          150                                
PROFAMCHA130502051936052011000035D-JR Promo - Bananas in Pajamas - Clip 1 - Get mor                                                                          150                                
PROFAMCHA130502052011052036000025D-JR Promo - JATNP - Get more on the channel REV (                                                                          150                                
PROFAMCHA130502052036052101000025D-JR Live Action ID - #44 Fold Towels (Sept2012)                                                                            150                                
PROFAMCHA130502052101052108000007D-JR Live Action ID - SWOBB - Now (May2012)                                                                                 150                                
PROFAMCHA130502052108052114000006D-JR - Bumper 7 (May2011)                                                                                                   150                                
PGRFAMCHA130502052114054345002231The Secret World of Benjamin Bear                 EP: 52                                                        C31763 1065607ECC                              
ID FAMCHA130502054345054350000005Astral ID (HD) (Jan2011)                                                                                                    150                                
PROFAMCHA130502054350054357000007D-JR Live Action ID - Harry & His Dinosaurs - Comi                                                                          150                                
PROFAMCHA130502054357054422000025D-JR Live Action ID - #45 Sorting Socks (May2012)                                                                           150                                
PROFAMCHA130502054422054433000011D-JR - Station ID (:11) (May2011)                                                                                           150                                
PROFAMCHA130502054433054458000025D-JR Live Action ID - #47 Making Breakfast (May201                                                                          150                                
PROFAMCHA130502054458054505000007D-JR Live Action ID - Harry & His Dinosaurs - Now                                                                           150                                
PGRFAMCHA130502054505060639002134Harry and His Bucket Full of Dinosaurs            EP: 17                                                        B05036 1065607ECC                              
PROFAMCHA130502060639060647000008D-JR Live Action ID - Stella & Sam - Coming Up (Ma                                                                          150                                
PROFAMCHA130502060647060712000025D-JR Live Action ID - #42 Brush Teeth (May2012)                                                                             150                                
PROFAMCHA130502060712060757000045D-JR Promo - Sofia The First: What's on the Inside                                                                          150                                
PROFAMCHA130502060757060832000035D-JR Promo - Handy Manny - Get more on the channel                                                                          150                                
PROFAMCHA130502060832060914000042D-JR Promo - Bananas in Pajamas - Weekdays @ 10am                                                                           150                                
PROFAMCHA130502060914060939000025D-JR Live Action ID - #13 Make Bed (May2012)                                                                                150                                
PROFAMCHA130502060939060947000008D-JR Live Action ID - Stella & Sam - Now (Mar2013)                                                                          150                                
PROFAMCHA130502060947060954000007D-JR - Flex ID - Yellow (:6-:10) (Feb2012)                                                                                  150                                
PGRFAMCHA130502060954063310002316Stella and Sam                                    EP: 05                                                        C32553 1065607ECD                              
ID FAMCHA130502063310063316000006Astral ID (HD) (Jan2011)                                                                                                    150                                
PROFAMCHA130502063316063402000046xGLC Get Down With The Duncans Marathon (HD) Tomor                                                                          150                                
PROFAMCHA130502063402063417000015PSA CMF (HD) Canada on Screen (Nov2012) (3x per da                                                                          150                                
PROFAMCHA130502063417063423000006Hannah (HD) ID - Jason Earles 1 - "Coming Up Next"                                                                          150                                
PRCFAMCHA130502063423063450000027Next Step Episodic (HD) 109 - New Episode Tomorrow                                                                          150                                
PRCFAMCHA130502063450063459000009Family Bumper (HD) - Dragonflies ID (Jan 2011)                                                                              150                                
PGRFAMCHA130502063459065730002231Hannah Montana                                    EP: 22                                                               6068807BCC                              
PROFAMCHA130502065730065811000041Web Next Step Online Mashup (HD) On family.ca (Mar                                                                          150                                
PROFAMCHA130502065811065851000040Kellogg's                                                                                                                   150                                
PROFAMCHA130502065851065929000038Wingin It (HD) Refresh Promo - New Episode Sunday                                                                           150                                
PROFAMCHA130502065929065945000016Shake It Up (HD) Refresh CD - Coming Up Next (Apri                                                                          150                                
PRCFAMCHA130502065945065958000013Family Bumper Flex (HD) Flex ID - Spring (:12-:15)                                                                          150                                
PGRFAMCHA130502065958072316002318Disney Shake It Up                                EP: 10                                                               6068707BCC                              
ID FAMCHA130502072316072322000006Astral ID (HD) (Jan2011)                                                                                                    150                                
PROFAMCHA130502072322072352000030Tangled (HD) Premieres Saturday May 18 @ 6:00 (Apr                                                                          150                                
PRCFAMCHA130502072352072414000022Game Change Friday April Promo (HD) Family.ca (Apr                                                                          150                                
PROFAMCHA130502072414072429000015ANT Farm (HD) Ole McDonald CD - Coming Up Next (Ap                                                                          150                                
PRCFAMCHA130502072429072456000027Next Step Episodic (HD) 109 - New Episode Tomorrow                                                                          150                                
PRCFAMCHA130502072456072504000008Family Bumper (HD) - Origami ID (Jan 2011)                                                                                  150                                
PGRFAMCHA130502072504074835002331Disney A.N.T. Farm                                EP: 22                                                               6068607BCC                              
PRCFAMCHA130502074835074920000045xGood Luck Charlie Episodic (HD) 401 - New Episode                                                                          150                                
PRCFAMCHA130502074920074950000030Descriptive Video PSA (HD) (Apr15-Jun30)                                                                                    150                                
PROFAMCHA130502074950075005000015Jessie (HD) Refresh CD - Coming Up Next (Apr2013)                                                                           150                                
PRCFAMCHA130502075005075035000030Next Step Aftershow Promo (HD) On family.ca (Sep20                                                                          150                                
PRCFAMCHA130502075035075051000016Family Bumper Flex (HD) Flex ID - Music ID (:14-:1                                                                          150                                
PGRFAMCHA130502075051081253002202Disney Jessie                                     EP: 16                                                               6068807BCC                              
ID FAMCHA130502081253081259000006Astral ID (HD) (Jan2011)                                                                                                    150                                
PROFAMCHA130502081259081345000046xGLC Get Down With The Duncans Marathon (HD) Tomor                                                                          150                                
PROFAMCHA130502081345081410000025Kellogg's                                                                                                                   150                                
PROFAMCHA130502081410081436000026Web DWAB @ family.ca (HD) Play Games at family.ca                                                                           150                                
PGRFAMCHA130502081436081526000050Synergy DMS (HD) Iron Man 3 - Coming Soon (Apr19-M                                                                     60688120                                
PROFAMCHA130502081526081559000033Austin & Ally (HD) Music Lesson - This Afternoon @                                                                          150                                
PRCFAMCHA130502081559081626000027Next Step Episodic (HD) 109 - New Episode Tomorrow                                                                          150                                
PROFAMCHA130502081626081645000019WOWP (HD) Clip Bad Time - Coming Up Next (April 20                                                                          150                                
PRCFAMCHA130502081645081730000045Rebound (HD) Premieres Friday May 10 @ 8:00 (Apr30                                                                          150                                
PRCFAMCHA130502081730081759000029Family Bumper Flex (HD) Flex ID - Austin & Ally (F                                                                          150                                
PGRFAMCHA130502081759083955002156Disney Wizards of Waverly Place                   EP: 08                                                               6068607BCC                              
PROFAMCHA130502083955084003000008D-JR Live Action ID - Tickity Toc - Coming Up (Mar                                                                          150                                
PROFAMCHA130502084003084028000025D-JR Live Action ID - #49 Making Lunch Routine (Ma                                                                          150                                
PROFAMCHA130502084028084058000030D-JR Promo - On demand online REVISED - D-JR.ca (M                                                                          150                                
PROFAMCHA130502084058084138000040MGA Entertainment                                                                                                           150                                
PROFAMCHA130502084138084208000030D-JR - Standalone ID - Clouds (May2011)                                                                                     150                                
PROFAMCHA130502084208084258000050The Walt Disney Company                                                                                                     150                                
PROFAMCHA130502084258084323000025D-JR Promo - JATNP - Get more on the channel REV (                                                                          150                                
PROFAMCHA130502084323084348000025D-JR Live Action ID - #64 Pick Up Room/Turn off Li                                                                          150                                
PROFAMCHA130502084348084356000008D-JR Live Action ID - Tickity Toc - Now (Mar2013)                                                                           150                                
PROFAMCHA130502084356084404000008D-JR - Flex ID - Green (:6-:10) (Feb2012)                                                                                   150                                
PGRFAMCHA130502084404085505001101Tickety Toc                                       EP: 09                                                               3068605ACC                              
PGRFAMCHA130502085505090607001102Tickety Toc                                       EP: 10                                                               3068605ACC                              
ID FAMCHA130502090607090612000005Astral ID (HD) (Jan2011)                                                                                                    150                                
PROFAMCHA130502090612090619000007D-JR Live Action ID - Mickey Mouse Clubhouse - Com                                                                          150                                
PROFAMCHA130502090619090644000025D-JR Live Action ID - #48 Help Feed Sibling (Sept2                                                                          150                                
PROFAMCHA130502090644090719000035D-JR Promo - Handy Manny - Get more on the channel                                                                          150                                
PROFAMCHA130502090719090809000050The Walt Disney Company                                                                                                     150                                
PROFAMCHA130502090809090834000025D-JR Promo - JATNP - Get more on the channel REV (                                                                          150                                
PROFAMCHA130502090834090859000025D-JR Live Action ID - #65 Putting Toys Away (Sept2                                                                          150                                
PROFAMCHA130502090859090906000007D-JR Live Action ID - Mickey Mouse Clubhouse - Now                                                                          150                                
PROFAMCHA130502090906090915000009D-JR - Station ID (:09) (May2011)                                                                                           150                                
PGRFAMCHA130502090915093916003001Disney's Mickey Mouse Clubhouse                   EP: 05                                                               6068605ACC                              
