SO FAMCHA010801043000043011000011Sign On (oct 1)                                                                                                         02                                     
PROFAMCHA010801043011043019000008CC Is Brought To You By - Ian (PRESCHOOL)                                                                               02  150                                
PGRFAMCHA010801043019045420002401Hello Mrs. Cherrywinkle                           Missing Cookies                                               C14683A1025607ACC                              
ID FAMCHA010801045420045425000005Generic ID - Bubbles                                                                                                    02  150                                
PROFAMCHA010801045425045440000015Doug (MARCH2001) - Today @ 4pm                                                                                          02  150                                
ID FAMCHA010801045440045500000020Morning block open play pen                                                                                             02  150                                
PROFAMCHA010801045500045508000008CC Is Brought To You By - Lark (PRESCHOOL)                                                                              02  150                                
PGRFAMCHA010801045508051918002410Busy World Of Richard Scarry; The                 Dad's Neat Job                                                P24302 1125607ECC                              
ID FAMCHA010801051918051928000010Generic ID - Family w/dog                                                                                               02  150                                
PROFAMCHA010801051928051940000012New Adv of WTP Bumpers - Blustery - Today @ 7:30am                                                                      02  150                                
ID FAMCHA010801051940052000000020Morning block open play pen                                                                                             06  150                                
PROFAMCHA010801052000052008000008CC Is Brought To You By - Ian (PRESCHOOL)                                                                               06  150                                
PGRFAMCHA010801052008054424002416Billy The Cat                                     The Rescue                                                    B27642A1025607ECC                              
ID FAMCHA010801054424054434000010Generic ID - Ring around the rosie                                                                                      02  150                                
PROFAMCHA010801054434054440000006Little Lulu Bumpers - Lulu - Coming Up                                                                                  02  150                                
ID FAMCHA010801054440054500000020Morning block open play pen                                                                                             06  150                                
PROFAMCHA010801054500054508000008CC Is Brought To You By - Lark (PRESCHOOL)                                                                              06  150                                
PGRFAMCHA010801054508060859002351Little Lulu Show; The                             Hairy Day/Noses Off/Boy Cannon Ball                           B03813A1025607ECC                              
ID FAMCHA010801060859060909000010Generic ID - Hula Hoop                                                                                                  02  150                                
PROFAMCHA010801060909060930000021Buzz Lightyear (DISNEY'S ONE TOO) - Today @ 5:30pm                                                                      02  150                                
PRCFAMCHA010801060930060940000010Morning Block menu background (flex time)                                                                               02  150                                
ID FAMCHA010801060940061000000020Morning block open play pen                                                                                             06  150                                
PROFAMCHA010801061000061008000008CC Is Brought To You By - Ian (PRESCHOOL)                                                                               06  150                                
PGRFAMCHA010801061008063408002400Big Garage; The                                   Un-Pumped                                                     P21463 1025607ECC                              
ID FAMCHA010801063408063418000010Generic ID - Ring around the rosie                                                                                      06  150                                
PRCFAMCHA010801063418063426000008Franklin Bumper - Slide - This Morning @ 7am                                                                           102  150                                
PROFAMCHA010801063426063440000014ALF (Dreams) - Today @ 12pm                                                                                             02  150                                
ID FAMCHA010801063440063500000020Morning block open play pen                                                                                             06  150                                
PGRFAMCHA010801063500065920002420Adventures of Pete & Pete; The                    My Little Viking Part 1                                             A2028607B                                
ID FAMCHA010801065920065925000005Generic ID - Couch 2                                                                                                    02  150                                
PRCFAMCHA010801065925065939000014Franklin Bumper - Leaf - Coming Up                                                                                     102  150                                
ID FAMCHA010801065939065959000020Morning block open play pen                                                                                             06  150                                
PROFAMCHA010801065959070007000008CC Is Brought To You By - Lark (PRESCHOOL)                                                                              06  150                                
PGRFAMCHA010801070007072300002253Franklin                                          Franklin's Nature Hike/Franklin's Starring Role                     A1025607ECC                              
ID FAMCHA010801072300072310000010Generic ID - confetti                                                                                                   02  150                                
PROFAMCHA010801072310072325000015New Adv of WTP Bumpers - Poem - Coming Up                                                                               02  150                                
PRCFAMCHA010801072325072357000032Funshine 2001 - GENERIC TOUR SPOT #1                                                                                   102 5150                                
PRCFAMCHA010801072357072436000039Funshine 2001 - Spot #13 - JULY 30 TO AUGUST 06                                                                        102 5150                                
PROFAMCHA010801072436072520000044Little Lulu Show - HOMEWORK - This Morning                                                                              02  150                                
INTFAMCHA010801072520072745000225Art Attack - Snooker                                                                                                   60286120                                
PRCFAMCHA010801072745072755000010Elmo's World Bumper - Dance - This Morning                                                                             102  150                                
PROFAMCHA010801072755072940000145Fall Press Tape - Preschool (up to 4pm)                                                                                 02  150                                
PRCFAMCHA010801072940072950000010Morning Block menu background (flex time)                                                                               06  150                                
ID FAMCHA010801072950073000000010Magic of Disney - V4 - KID MALE                                                                                         02  150                                
PROFAMCHA010801073000073007000007CC Is Brought To You By - Ian (PRESCHOOL)                                                                               02  150                                
PGRFAMCHA010801073007075250002243New Adventures of Winnie the Pooh; The            Tigger Is The Mother of Invention/Bug Stops Here                     6028607ECC                              
ID FAMCHA010801075250075300000010Generic ID - Pink inner tube                                                                                            02  150                                
PROFAMCHA010801075300075311000011Kidsummer - Book of Pooh                                                                                              A102 8150                                
PROFAMCHA010801075311075355000044Little Lulu Show - HOMEWORK - This Morning                                                                              06  150                                
INTFAMCHA010801075355075452000057Frankenguy and the Professor - cold                                                                                    60288120                                
PROFAMCHA010801075452075500000008House of Mouse Bumpers - Clap - Weekends @ 4:30pm                                                                       02  150                                
INTFAMCHA010801075500075934000434Art Attack - Army Surplus Helicopter                                                                                   60286120                                
PROFAMCHA010801075934075950000016ALF (Description) - Today @ 12pm                                                                                        02  150                                
PROFAMCHA010801075950080000000010Triple Line-up - 01 - ART/LULU/ELMO                                                                                     02  150                                
PGRFAMCHA010801080000082005002005Art Attack                                        1-098                                                                60286110                                
ID FAMCHA010801082005082012000007Generic ID - Whisper                                                                                                    02  150                                
PROFAMCHA010801082012082056000044Little Lulu Show - HOMEWORK - Coming Up                                                                                 02  150                                
PRCFAMCHA010801082056082110000014Franklin Bumper - Leaf - Today                                                                                         102  150                                
PROFAMCHA010801082110082130000020Book of Pooh - This Morning                                                                                             02  150                                
PROFAMCHA010801082130082151000021Buzz Lightyear (DISNEY'S ONE TOO) - Today @ 5:30pm                                                                      06  150                                
PROFAMCHA010801082151082201000010Triple Line-up - 02 - LULU/ELMO/PB&J                                                                                    02  150                                
PROFAMCHA010801082201082209000008CC Is Brought To You By - Lark (PRESCHOOL)                                                                              06  150                                
PGRFAMCHA010801082209084601002352Little Lulu Show; The                             Popcorn Theif/The Little Tornando/She Flies Throug            B03814A1025607ECC                              
ID FAMCHA010801084601084611000010Generic ID - Hula Hoop                                                                                                  06  150                                
PRCFAMCHA010801084611084621000010Elmo's World Bumper - Dance - Coming Up                                                                                102  150                                
PROFAMCHA010801084621084629000008House of Mouse Bumpers - Clap - Weekends @ 4:30pm                                                                       06  150                                
INTFAMCHA01080108462908472900010060 Seconds of Science - Simple Machines (anywhere                                                                      60288120                                
PROFAMCHA010801084729084750000021Buzz Lightyear (DISNEY'S ONE TOO) - Today @ 5:30pm                                                                      06  150                                
PROFAMCHA010801084750084800000010Triple Line-up - 03 - ELMO/PB&J/POOH                                                                                    02  150                                
PGRFAMCHA010801084800090316001516Elmo's World                                      Drawing                                                             A2028607G                                
ID FAMCHA010801090316090321000005Generic ID - Couch 1                                                                                                    02  150                                
PROFAMCHA010801090321090506000145Fall Press Tape - Preschool (up to 4pm)                                                                                 06  150                                
PROFAMCHA010801090506090513000007PB&J Bumpers - Kite - Coming Up                                                                                         02  150                                
PRCFAMCHA010801090513090545000032Funshine 2001 - GENERIC TOUR SPOT #1                                                                                   106 5150                                
PRCFAMCHA010801090545090624000039Funshine 2001 - Spot #13 - JULY 30 TO AUGUST 06                                                                        106 5150                                
INTFAMCHA010801090624090735000111Mix Ups - Cat in the bag                                                                                               60288120                                
PROFAMCHA010801090735090750000015ALF (Lucky) - Today @ Noon                                                                                              02  150                                
PROFAMCHA010801090750090800000010Triple Line-up - 04 - PB&J/POOH/BUSY                                                                                    02  150                                
PROFAMCHA010801090800090808000008CC Is Brought To You By - Ian (PRESCHOOL)                                                                               06  150                                
PGRFAMCHA010801090808093138002330PB&J Otter                                        Giggle Melon                                                        A6028607ECC                              
ID FAMCHA010801093138093143000005Generic ID - soccer                                                                                                     02  150                                
PROFAMCHA010801093143093203000020Book of Pooh - Coming Up                                                                                                02  150                                
PROFAMCHA010801093203093211000008House of Mouse Bumpers - Clap - Weekends @ 4:30pm                                                                       06  150                                
PRCFAMCHA010801093211093225000014Franklin Bumper - Leaf - Today                                                                                         106  150                                
INTFAMCHA010801093225093319000054Bill Nye - Power to the Plankton                                                                                       60288120                                
PROFAMCHA010801093319093340000021Buzz Lightyear (DISNEY'S ONE TOO) - Today @ 5:30pm                                                                      06  150                                
PROFAMCHA010801093340093350000010Triple Line-up - 05 - POOH/BUSY/MADELINE                                                                                02  150                                
ID FAMCHA010801093350093400000010Magic of Disney - V3(water) - KID MALE                                                                                  02  150                                
PGRFAMCHA010801093400095802002402Book Of Pooh; The                                 Take Me To What River/My Gloomy Valentine                            6028607G                                
ID FAMCHA010801095802095812000010Generic ID - confetti                                                                                                   06  150                                
PROFAMCHA010801095812095850000038Dual Combo Promo - PB&J/ALADDIN (air ONLY before T                                                                      02  150                                
PROFAMCHA010801095850095900000010Triple Line-up - 06 - BUSY/MADELINE/OOTB                                                                                02  150                                
PROFAMCHA010801095900095908000008CC Is Brought To You By - Lark (PRESCHOOL)                                                                              06  150                                
PGRFAMCHA010801095908102318002410Busy World Of Richard Scarry; The                 Denys At Camp                                                 P24303 1125607ECC                              
ID FAMCHA010801102318102325000007Generic ID - Whisper                                                                                                    06  150                                
PRCFAMCHA010801102325102339000014Franklin Bumper - Leaf - Today                                                                                         106  150                                
PRCFAMCHA010801102339102350000011Elmo's World Bumper - Tricycle - This Afternoon                                                                        102  150                                
PROFAMCHA010801102350102400000010Triple Line-up - 07 - MADELINE/OOTB/GOOF                                                                                02  150                                
PGRFAMCHA010801102400104636002236Madeline                                          Madeline and the Ballet                                              6028607E                                
ID FAMCHA010801104636104646000010Generic ID - Bubbles                                                                                                    02  150                                
PROFAMCHA010801104646104701000015Doug (MARCH2001) - Today @ 4pm                                                                                          06  150                                
ID FAMCHA010801104701104707000006Silly Stories Teaser - Female                                                                                           02  150                                
PROFAMCHA010801104707104718000011Kidsummer - Excite.ca                                                                                                 A102 8150                                
ID FAMCHA010801104718104750000032Silly Stories - Funky Tent Smell                                                                                        02  150                                
PROFAMCHA010801104750104800000010Triple Line-up - 08 - OOTB/GOOF/ALADDIN                                                                                 02  150                                
PROFAMCHA010801104800104808000008CC Is Brought To You By - Ian (PRESCHOOL)                                                                               06  150                                
PGRFAMCHA010801104808111104002256Out Of The Box                                    Yes and Nose                                                         60286110CC                              
ID FAMCHA010801111104111114000010Generic ID - soccer                                                                                                     02  150                                
PROFAMCHA010801111114111130000016ALF (Description) - Today @ 12pm                                                                                        06  150                                
PRCFAMCHA010801111130111138000008Franklin Bumper - Slide - Today                                                                                        102  150                                
INTFAMCHA010801111138111240000102Bill Nye - Bloodstream Baby                                                                                            60288120                                
PROFAMCHA010801111240111250000010Triple Line-up - 09 - GOOF/ALADDIN/ALF                                                                                  02  150                                
ID FAMCHA010801111250111300000010Magic of Disney - V3(water) - KID MALE                                                                                  06  150                                
PROFAMCHA010801111300111308000008CC Is Brought To You By - Lark (PRESCHOOL)                                                                              06  150                                
PGRFAMCHA010801111308113559002251Goof Troop                                        And Baby Makes Three (goof Troop)                                   A6028607ECC                              
ID FAMCHA010801113559113609000010Generic ID - Hula Hoop                                                                                                  06  150                                
PROFAMCHA010801113609113624000015Doug (MARCH2001) - Today @ 4pm                                                                                          02  150                                
PROFAMCHA010801113624113640000016ALF (Description) - Today @ 12pm                                                                                        06  150                                
PROFAMCHA010801113640113650000010Triple Line-up - 10 - ALADDIN/ALF/FRANKLIN                                                                              02  150                                
ID FAMCHA010801113650113700000010Magic of Disney - V2(sky) - KID MALE                                                                                    02  150                                
PROFAMCHA010801113700113708000008CC Is Brought To You By - Ian (PRESCHOOL)                                                                               06  150                                
PGRFAMCHA010801113708115941002233Disney's Aladdin                                  Caught By The Tale                                                   6028607ECC                              
ID FAMCHA010801115941115951000010Generic ID - Family w/dog                                                                                               06  150                                
PROFAMCHA010801115951120001000010Triple Line-up - 11 - ALF/FRANKLIN/ELMO                                                                                 02  150                                
PROFAMCHA010801120001120009000008CC Is Brought To You By - Lark (PRESCHOOL)                                                                              06  150                                
PGRFAMCHA010801120009122138002129ALF                                               Fight Back                                                          A2028807BCC                              
ID FAMCHA010801122138122143000005Generic ID - Couch 1                                                                                                    06  150                                
PRCFAMCHA010801122143122151000008Franklin Bumper - Slide - Coming Up                                                                                    102  150                                
PROFAMCHA010801122151122221000030Even Stevens - Premieres August 13th                                                                                    02  150                                
PROFAMCHA010801122221122241000020Book of Pooh - This Afternoon                                                                                           02  150                                
PROFAMCHA010801122241122250000009House of Mouse Bumpers - No TV - Weekends @ 4:30pm                                                                      02  150                                
PROFAMCHA010801122250122300000010Triple Line-up - 12 - FRANKLIN/ELMO/PB&J                                                                                02  150                                
PROFAMCHA010801122300122307000007CC Is Brought To You By - Ian (PRESCHOOL)                                                                               06  150                                
PGRFAMCHA010801122307124600002253Franklin                                          Robot/The Detective                                                 A1025607ECC                              
ID FAMCHA010801124600124610000010Generic ID - soccer                                                                                                     06  150                                
PRCFAMCHA010801124610124620000010Elmo's World Bumper - Dance - Coming Up                                                                                106  150                                
PRCFAMCHA010801124620124650000030Hoze Houndz - Weekends @ 7pm                                                                                            02  150                                
PROFAMCHA010801124650124700000010Triple Line-up - 13 - ELMO/PB&J/POOH                                                                                    02  150                                
PGRFAMCHA010801124700130353001653Elmo's World                                      Dogs                                                                A2028607G                                
ID FAMCHA010801130353130358000005Generic ID - Couch 1                                                                                                    06  150                                
PROFAMCHA010801130358130407000009PB&J Bumpers - Open - Coming Up                                                                                         02  150                                
ID FAMCHA010801130407130417000010Silly Stories Teaser - Male                                                                                             02  150                                
PROFAMCHA010801130417130501000044Little Lulu Show - HOMEWORK - Weekday Mornings                                                                          02  150                                
ID FAMCHA010801130501130541000040Silly Stories - Backstreet Boy                                                                                          02  150                                
PRCFAMCHA010801130541130611000030Funshine 2001 - GENERIC TOUR SPOT #2                                                                                   102 5150                                
PRCFAMCHA010801130611130650000039Funshine 2001 - Spot #13 - JULY 30 TO AUGUST 06                                                                        106 5150                                
PROFAMCHA010801130650130700000010Triple Line-up - 14 - PB&J/POOH/BUSY                                                                                    02  150                                
PROFAMCHA010801130700130708000008CC Is Brought To You By - Lark (PRESCHOOL)                                                                              06  150                                
PGRFAMCHA010801130708133038002330PB&J Otter                                        Hope Castle                                                         A6028607ECC                              
ID FAMCHA010801133038133048000010Generic ID - confetti                                                                                                   06  150                                
PROFAMCHA010801133048133106000018Book of Pooh - Coming Up                                                                                                02  150                                
PROFAMCHA010801133106133136000030Pepper Ann (MARCH2001) - Today @ 4:30pm                                                                                 02  150                                
INTFAMCHA010801133136133240000104Jack and Marcel: Ep.054 "Termite-Nator"                                                                               A40288120                                
PROFAMCHA010801133240133250000010Triple Line-up - 15 - POOH/BUSY/MADELINE                                                                                02  150                                
ID FAMCHA010801133250133300000010Magic of Disney - V4 - TEEN FEMALE                                                                                      02  150                                
PGRFAMCHA010801133300135702002402Book Of Pooh; The                                 The Words Are Out/Brain Drain                                        6028607G                                
ID FAMCHA010801135702135712000010Generic ID - Family w/dog                                                                                               06  150                                
PROFAMCHA010801135712135750000038Dual Combo Promo - PB&J/ALADDIN (air ONLY before T                                                                      06  150                                
PROFAMCHA010801135750135800000010Triple Line-up - 16 - BUSY/MADELINE/OOTB                                                                                02  150                                
PROFAMCHA010801135800135808000008CC Is Brought To You By - Ian (PRESCHOOL)                                                                               06  150                                
PGRFAMCHA010801135808142218002410Busy World Of Richard Scarry; The                 School Dance                                                  P24304 1125607ECC                              
ID FAMCHA010801142218142228000010Generic ID - Hula Hoop                                                                                                  06  150                                
PROFAMCHA010801142228142242000014ALF (Dreams) - Tonight @ 7:30pm                                                                                         02  150                                
PROFAMCHA010801142242142250000008House of Mouse Bumpers - Clap - Weekends @ 4:30pm                                                                       06  150                                
PROFAMCHA010801142250142300000010Triple Line-up - 17 - MADELINE/OOTB/GOOF                                                                                02  150                                
PGRFAMCHA010801142300144536002236Madeline                                          Madeline's Singing Dog                                               6028607E                                
ID FAMCHA010801144536144546000010Generic ID - Bubbles                                                                                                    06  150                                
PROFAMCHA010801144546144616000030Movie Image Promo - Celebration of Family                                                                               02  150                                
PROFAMCHA010801144616144636000020Book of Pooh - Weekday Mornings                                                                                         02  150                                
PROFAMCHA010801144636144650000014ALF (Dreams) - Tonight @ 7:30pm                                                                                         06  150                                
PROFAMCHA010801144650144700000010Triple Line-up - 18 - OOTB/GOOF/ALADDIN                                                                                 02  150                                
PGRFAMCHA010801144700151025002325Out Of The Box                                    Pick a Pet                                                           60286110                                
ID FAMCHA010801151025151030000005Generic ID - Couch 2                                                                                                    06  150                                
PROFAMCHA010801151030151100000030Movie Image Promo - Faces                                                                                               02  150                                
PRCFAMCHA010801151100151110000010Elmo's World Bumper - Dance - Weekday Mornings                                                                         102  150                                
PROFAMCHA010801151110151140000030Pepper Ann (MARCH2001) - Today @ 4:30pm                                                                                 06  150                                
PROFAMCHA010801151140151150000010Triple Line-up - 19 - GOOF/ALADDIN                                                                                      02  150                                
ID FAMCHA010801151150151200000010Magic of Disney - V2(sky) - TEEN FEMALE                                                                                 02  150                                
PROFAMCHA010801151200151208000008CC Is Brought To You By - Lark (PRESCHOOL)                                                                              06  150                                
PGRFAMCHA010801151208153448002240Goof Troop                                        The Incredible Bulk (goof Troop)                                    A6028607ECC                              
ID FAMCHA010801153448153453000005Generic ID - Couch 2                                                                                                    06  150                                
PROFAMCHA010801153453153523000030Lizzie McGuire - Premieres August 17th                                                                                  02  150                                
PROFAMCHA010801153523153534000011Kidsummer - Fujifilm                                                                                                  A102 8150                                
PROFAMCHA010801153534153540000006Little Lulu Bumpers - Lulu - Weekday Mornings                                                                           02  150                                
PROFAMCHA010801153540153550000010Triple Line-up - 21 - ALADDIN/DS12                                                                                      02  150                                
ID FAMCHA010801153550153600000010Magic of Disney - V3(water) - TEEN MALE                                                                                 02  150                                
PROFAMCHA010801153600153608000008CC Is Brought To You By - Ian (PRESCHOOL)                                                                               06  150                                
PGRFAMCHA010801153608155846002238Disney's Aladdin                                  Fowl Weather                                                         6028607ECC                              
ID FAMCHA010801155846155856000010Generic ID - Ring around the rosie                                                                                      06  150                                
PROFAMCHA010801155856155926000030Even Stevens - Premieres August 13th                                                                                    06  150                                
PROFAMCHA010801155926155940000014ALF (Dreams) - Tonight @ 7:30pm                                                                                         06  150                                
PROFAMCHA010801155940155950000010Triple Line-up - 22 - DS12                                                                                              02  150                                
ID FAMCHA010801155950160000000010Magic of Disney - V2(sky) - TEEN FEMALE                                                                                 06  150                                
PROFAMCHA010801160000160030000030Disney's One Too - Opening                                                                                              02  150                                
PGRFAMCHA010801160030162256002226Disney's Doug                                     Doug's Concert Crisis                                                6028607E                                
ID FAMCHA010801162256162301000005Generic ID - Fingerpaint                                                                                                02  150                                
PROFAMCHA010801162301162331000030Movie Image Promo - Memories                                                                                            02  150                                
PROFAMCHA010801162331162401000030Pepper Ann (MARCH2001) - Coming Up                                                                                      02  150                                
PROFAMCHA010801162401162431000030Lizzie McGuire - Premieres August 17th                                                                                  06  150                                
ID FAMCHA010801162431162510000039Wonder Kid - Dino                                                                                                       02  150                                
ID FAMCHA010801162510162521000011Wonder Kid Tag - Male                                                                                                   02  150                                
PRCFAMCHA010801162521162551000030Famous Jett Jackson (NEW) - Tonight @ 7pm                                                                              102  150                                
INTFAMCHA010801162551162604000013Toy Story Treats - Ancient History                                                                                     60286120                                
PRCFAMCHA010801162604162636000032Funshine 2001 - GENERIC TOUR SPOT #1                                                                                   106 5150                                
PRCFAMCHA010801162636162715000039Funshine 2001 - Spot #13 - JULY 30 TO AUGUST 06                                                                        106 5150                                
INTFAMCHA010801162715162748000033Toy Story Treats - Shadow Puppets                                                                                      60286120                                
PROFAMCHA010801162748162816000028Honey (MARCH2001) - Tonight @ 8pm                                                                                       02  150                                
ID FAMCHA010801162816162831000015Click Club - JULY 13 TO OCTOBER 12                                                                                      02  150                                
PROFAMCHA010801162831162904000033Recess (King Gus) - Today @ 5:00pm                                                                                      02  150                                
PROFAMCHA010801162904162934000030Even Stevens - Premieres August 13th                                                                                    06  150                                
PRCFAMCHA010801162934162945000011Morning Block menu background (flex time)                                                                               06  150                                
ID FAMCHA010801162945163000000015Afternoon block pinball open                                                                                            02  150                                
PROFAMCHA010801163000163030000030Disney's One Too - Opening                                                                                              06  150                                
PROFAMCHA010801163030163037000007CC Is Brought To You By - Lark (PRESCHOOL)                                                                              02  150                                
PGRFAMCHA010801163037165309002232Disney's Pepper Ann                               The Environ-Mentals                                                  6028607ECC                              
ID FAMCHA010801165309165314000005Generic ID - Bubbles                                                                                                    06  150                                
PROFAMCHA010801165314165344000030Movie Image Promo - Memories                                                                                            06  150                                
PROFAMCHA010801165344165419000035Recess (Library Kid) - Coming Up                                                                                        02  150                                
ID FAMCHA010801165419165434000015Click Club - JULY 6 TO SEPTEMBER 1                                                                                      02  150                                
INTFAMCHA010801165434165455000021Recess Sketches - Kindergartner's Surprise - Spina                                                                     60286120                                
PROFAMCHA010801165455165525000030Lizzie McGuire - Premieres August 17th                                                                                  06  150                                
PRCFAMCHA010801165525165552000027Funshine 2001 Contest - This Sunday                                                                                    102 5150                                
INTFAMCHA010801165552165656000104Jack and Marcel: Ep.018 "Barbs"                                                                                       A40288120                                
INTFAMCHA010801165656165726000030Disney Magic Drawings(08)- Pluto (D12 only)                                                                            60286120                                
INTFAMCHA010801165726165747000021Recess Sketches - Telephone                                                                                            60286120                                
PRCFAMCHA010801165747165817000030Famous Jett Jackson (NEW) - Tonight @ 7pm                                                                              106  150                                
PROFAMCHA010801165817165845000028Honey (MARCH2001) - Tonight @ 8pm                                                                                       06  150                                
INTFAMCHA010801165845165906000021Recess Sketches - The Assignment - Moon Rocks                                                                          60286120                                
PROFAMCHA010801165906165936000030Even Stevens - Premieres August 13th                                                                                    06  150                                
PRCFAMCHA010801165936165945000009Morning Block menu background (flex time)                                                                               06  150                                
ID FAMCHA010801165945170000000015Afternoon block pinball open                                                                                            06  150                                
PROFAMCHA010801170000170030000030Disney's One Too - Opening                                                                                              06  150                                
PGRFAMCHA010801170030172305002235Disney's Recess                                   My Funny Valentines/The Ratings Game                                 6028607E                                
ID FAMCHA010801172305172315000010Generic ID - Hula Hoop                                                                                                  06  150                                
PROFAMCHA010801172315172617000302Fall Press Tape - Tween One (4-8pm)                                                                                     02  150                                
PROFAMCHA010801172617172638000021Buzz Lightyear (DISNEY'S ONE TOO) - Coming Up                                                                           02  150                                
PROFAMCHA010801172638172652000014ALF (Dreams) - Tonight @ 7:30pm                                                                                         06  150                                
ID FAMCHA010801172652172707000015Click Club - JULY 13 TO OCTOBER 12                                                                                      06  150                                
PROFAMCHA010801172707172737000030Jersey (MARCH2001) - Weekends @ 10:16am                                                                                 02  150                                
PRCFAMCHA010801172737172807000030Famous Jett Jackson (NEW) - Tonight @ 7pm                                                                              106  150                                
PROFAMCHA010801172807172837000030Princess for a Day Contest                                                                                            A102 8150                                
PROFAMCHA010801172837172905000028Honey (MARCH2001) - Tonight @ 8pm                                                                                       06  150                                
PROFAMCHA010801172905172935000030Lizzie McGuire - Premieres August 17th                                                                                  06  150                                
PRCFAMCHA010801172935172945000010Morning Block menu background (flex time)                                                                               06  150                                
ID FAMCHA010801172945173000000015Afternoon block pinball open                                                                                            06  150                                
PROFAMCHA010801173000173030000030Disney's One Too - Opening                                                                                              06  150                                
PROFAMCHA010801173030173038000008CC Is Brought To You By - Ian (PRESCHOOL)                                                                               06  150                                
PGRFAMCHA010801173038175232002154Disney/Pixar's Buzz Lightyear of Star Command     Planet of the Lost                                                   6028607ECC                              
ID FAMCHA010801175232175247000015Generic ID - confetti                                                                                                   02  150                                
PRCFAMCHA010801175247175317000030Famous Jett Jackson (NEW) - Tonight @ 7pm                                                                              106  150                                
PROFAMCHA010801175317175347000030Even Stevens - Premieres August 13th                                                                                    06  150                                
ID FAMCHA010801175347175402000015Click Club - JULY 6 TO SEPTEMBER 1                                                                                      06  150                                
INTFAMCHA010801175402175506000104Jack and Marcel: Ep.002 "The Green Monsters"                                                                           40288120                                
PRCFAMCHA010801175506175533000027Funshine 2001 Contest - This Sunday                                                                                    106 5150                                
INTFAMCHA010801175533175637000104Jack and Marcel: Ep.034 "Anti Aircraft"                                                                               A40288120                                
PROFAMCHA010801175637175707000030Lizzie McGuire - Premieres August 17th                                                                                  06  150                                
PROFAMCHA010801175707175737000030Princess for a Day Contest                                                                                            A106 8150                                
PROFAMCHA010801175737175940000203Fall Press Tape - Tween Two (4-8pm)                                                                                     02  150                                
PRCFAMCHA010801175940175950000010Morning Block menu background (flex time)                                                                               06  150                                
ID FAMCHA010801175950180000000010Magic of Disney - V3(water) - TEEN MALE                                                                                 06  150                                
PGRFAMCHA010801180000182245002245Lion King's Timon & Pumbaa; The                   Guru Some/Jailhouse Shock                                            6028607E                                
ID FAMCHA010801182245182250000005Generic ID - Fingerpaint                                                                                                06  150                                
PROFAMCHA010801182250182320000030Movie Image Promo - Faces                                                                                               06  150                                
PRCFAMCHA010801182320182348000028Are You Afraid...Dark? (45MIN) - Tonight @ 8:45pm                                                                       02  150                                
ID FAMCHA010801182348182403000015Click Club - JULY 13 TO OCTOBER 12                                                                                      06  150                                
PRCFAMCHA010801182403182433000030Famous Jett Jackson (NEW) - Tonight @ 7pm                                                                              106  150                                
INTFAMCHA010801182433182810000337MV Disney - Supergirl                                                                                                  60288120                                
PROFAMCHA010801182810182821000011Kidsummer - Rogers Video                                                                                              A102 8150                                
PROFAMCHA010801182821182835000014ALF (Dreams) - Tonight @ 7:30pm                                                                                         06  150                                
PROFAMCHA010801182835182905000030Princess for a Day Contest                                                                                            A106 8150                                
PROFAMCHA010801182905182935000030Lizzie McGuire - Premieres August 17th                                                                                  06  150                                
PRCFAMCHA010801182935182945000010Morning Block menu background (flex time)                                                                               06  150                                
ID FAMCHA010801182945183000000015Afternoon block pinball open                                                                                            06  150                                
PGRFAMCHA010801183000185257002257Gargoyles                                         Legion                                                               6028607E                                
ID FAMCHA010801185257185312000015Generic ID - confetti                                                                                                   06  150                                
PROFAMCHA010801185312185340000028Honey (MARCH2001) - Tonight @ 8pm                                                                                       06  150                                
PRCFAMCHA010801185340185410000030Famous Jett Jackson (NEW) - Coming Up                                                                                  102  150                                
PROFAMCHA010801185410185440000030Princess for a Day Contest                                                                                            A106 8150                                
PROFAMCHA010801185440185456000016ALF (Description) - Tonight @ 7:30pm                                                                                    02  150                                
PRCFAMCHA010801185456185526000030Funshine 2001 - GENERIC TOUR SPOT #2                                                                                   106 5150                                
PRCFAMCHA010801185526185605000039Funshine 2001 - Spot #13 - JULY 30 TO AUGUST 06                                                                        106 5150                                
INTFAMCHA010801185605185709000104Jack and Marcel: Ep.042 "Summer Night"                                                                                A40288120                                
PROFAMCHA010801185709185720000011Kidsummer - Toronto Blue Jays                                                                                         A102 8150                                
PROFAMCHA010801185720185750000030Even Stevens - Premieres August 13th                                                                                    06  150                                
PRCFAMCHA010801185750185818000028Are You Afraid...Dark? (45MIN) - Tonight @ 8:45pm                                                                       06  150                                
ID FAMCHA010801185818185833000015Click Club - JULY 6 TO SEPTEMBER 1                                                                                      06  150                                
PRCFAMCHA010801185833185900000027Funshine 2001 Contest - This Sunday                                                                                    106 5150                                
PROFAMCHA010801185900185930000030Lizzie McGuire - Premieres August 17th                                                                                  06  150                                
PRCFAMCHA010801185930185939000009Morning Block menu background (flex time)                                                                               06  150                                
ID FAMCHA010801185939190000000021Prime time open count down                                                                                              02  150                                
PROFAMCHA010801190000190009000009CC Is Brought To You By - Lark (PRESCHOOL)                                                                              02  150                                
PGRFAMCHA010801190009192442002433Famous Jett Jackson; The                          Popularity                                                           1025607ACC                              
ID FAMCHA010801192442192447000005Generic ID - Couch 2                                                                                                    06  150                                
PROFAMCHA010801192447192517000030Lizzie McGuire - Premieres August 17th                                                                                  06  150                                
PRCFAMCHA010801192517192544000027Funshine 2001 Contest - This Sunday                                                                                    106 5150                                
INTFAMCHA01080119254419264400010060 Seconds of Science - Adhesives (anywhere but D1                                                                     60288120                                
ID FAMCHA010801192644192659000015Click Club - JULY 13 TO OCTOBER 12                                                                                      06  150                                
INTFAMCHA010801192659192829000130Klootz - Olympics 03                                                                                                  A10258120                                
PROFAMCHA010801192829192859000030Even Stevens - Premieres August 13th                                                                                    06  150                                
PROFAMCHA010801192859192929000030Princess for a Day Contest                                                                                            A106 8150                                
PRCFAMCHA010801192929192939000010Morning Block menu background (flex time)                                                                               06  150                                
ID FAMCHA010801192939193000000021Prime time open count down                                                                                              06  150                                
PROFAMCHA010801193000193008000008CC Is Brought To You By - Ian (PRESCHOOL)                                                                               06  150                                
PGRFAMCHA010801193008195137002129ALF                                               Fight Back                                                          A2068807BCC                              
ID FAMCHA010801195137195147000010Generic ID - confetti                                                                                                   06  150                                
PROFAMCHA010801195147195217000030Even Stevens - Premieres August 13th                                                                                    06  150                                
PROFAMCHA010801195217195245000028Honey (MARCH2001) - Coming Up                                                                                           02  150                                
PROFAMCHA010801195245195255000010MV FAMJAM - Teaser (Generic)                                                                                           602 5150                                
ID FAMCHA010801195255195310000015Click Club - JULY 6 TO SEPTEMBER 1                                                                                      06  150                                
INTFAMCHA010801195310195622000312MV - From My Head To My Heart                                                                                         A20288120                                
PROFAMCHA010801195622195630000008MV Web Throw - music@family.ca                                                                                         602 5150                                
PROFAMCHA010801195630195700000030Princess for a Day Contest                                                                                            A106 8150                                
INTFAMCHA01080119570019580000010060 Seconds of Science - Siphons(12) (anywhere but                                                                      60288120                                
PRCFAMCHA010801195800195832000032Funshine 2001 - GENERIC TOUR SPOT #1                                                                                   106 5150                                
PRCFAMCHA010801195832195911000039Funshine 2001 - Spot #13 - JULY 30 TO AUGUST 06                                                                        106 5150                                
PROFAMCHA010801195911195941000030Lizzie McGuire - Premieres August 17th                                                                                  06  150                                
PRCFAMCHA010801195941195950000009Morning Block menu background (flex time)                                                                               06  150                                
ID FAMCHA010801195950200000000010Magic of Disney - V3(water) - ADULT MALE                                                                                02  150                                
PROFAMCHA010801200000200008000008CC Is Brought To You By - Lark (PRESCHOOL)                                                                              06  150                                
PGRFAMCHA010801200008204344004336Disney's Honey, I Shrunk The Kids: The TV Show    I Shrink, Therefore I Am                                             6028807BCC                              
ID FAMCHA010801204344204349000005Generic ID - Couch 1                                                                                                    06  150                                
PRCFAMCHA010801204349204416000027Funshine 2001 Contest - This Sunday                                                                                    106 5150                                
ID FAMCHA010801204416204431000015Click Club - JULY 13 TO OCTOBER 12                                                                                      06  150                                
PROFAMCHA010801204431204439000008MV Web Throw - family.ca                                                                                               602 5150                                
ID FAMCHA010801204439204500000021Prime time open count down                                                                                              06  150                                
PGRFAMCHA010801204500205837001337Are You Afraid of the Dark?                       Closet Keeper Pt.1                                                  A1025807A                                
ID FAMCHA010801205837205842000005Generic ID - Fingerpaint                                                                                                06  150                                
PRCFAMCHA010801205842205909000027Funshine 2001 Contest - This Sunday                                                                                    106 5150                                
ID FAMCHA010801205909205924000015Click Club - JULY 13 TO OCTOBER 12                                                                                      06  150                                
PROFAMCHA010801205924205939000015Doug (MARCH2001) - Weekdays @ 4pm                                                                                       02  150                                
ID FAMCHA010801205939210000000021Move open family size movie                                                                                             02  150                                
PROFAMCHA010801210000210007000007Rating - PG - Ian                                                                                                       02  150                                
PGRFAMCHA010801210007224104014057Heartbreak Hotel                                                                                                      B6028807D                                
ID FAMCHA010801224104224109000005Generic ID - soccer                                                                                                     06  150                                
PROFAMCHA010801224109224116000007Rating - G - Lark                                                                                                       02  150                                
PROFAMCHA010801224116224123000007CC Is Brought To You By - Ian (PRESCHOOL)                                                                               06  150                                
ID FAMCHA010801224123224133000010Magic of Disney - V4 - ADULT MALE                                                                                       02  150                                
PGRFAMCHA010801224133001232013059Monkey's Uncle; The                                                                                                   A6028807DCC                              
PROFAMCHA010801001232001239000007CC Was Brought To You By - Ian (PRESCHOOL)                                                                              02  150                                
ID FAMCHA010801001239001244000005Generic ID - Marbles                                                                                                    02  150                                
PROFAMCHA010801001244001252000008CC Is Brought To You By - Ian (PRESCHOOL)                                                                               06  150                                
PGRFAMCHA010801001252003421002129ALF                                               Fight Back                                                          A2068807BCC                              
ID FAMCHA010801003421003426000005Generic ID - Bubbles                                                                                                    06  150                                
PGRFAMCHA010801003426005838002412Are You Afraid Of The Dark?                       The Tale of the Prom Queen                                    P11875 1025807A                                
ID FAMCHA010801005838005848000010Generic ID - soccer                                                                                                     06  150                                
PROFAMCHA010801005848005918000030Movie Image Promo - Celebration of Family                                                                               06  150                                
PROFAMCHA010801005918005948000030Lizzie McGuire - Premieres August 17th                                                                                  06  150                                
ID FAMCHA010801005948010000000012Web Rant - My Last Year                                                                                                 02  150                                
PROFAMCHA010801010000010030000030Jersey (MARCH2001) - Weekends @ 7:30pm                                                                                  02  150                                
INTFAMCHA010801010030010200000130Klootz - Handymen 04 (post 7PM)                                                                                       A10258120                                
SO FAMCHA010801010200010212000012Sign Off (oct 1)                                                                                                        02                                     
OFFFAMCHA010801010212043000032748                                                                                                                                                               
SO FAMCHA010802043000043011000011Sign On (oct 1)                                                                                                         02                                     
PROFAMCHA010802043011043019000008CC Is Brought To You By - Ian (PRESCHOOL)                                                                               02  150                                
PGRFAMCHA010802043019045419002400Hello Mrs. Cherrywinkle                           Wet Paint                                                     C14683A1025607ACC                              
ID FAMCHA010802045419045429000010Generic ID - Bubbles                                                                                                    02  150                                
PRCFAMCHA010802045429045440000011Elmo's World Bumper - Tricycle - This Morning                                                                          102  150                                
ID FAMCHA010802045440045500000020Morning block open play pen                                                                                             02  150                                
PROFAMCHA010802045500045508000008CC Is Brought To You By - Lark (PRESCHOOL)                                                                              02  150                                
PGRFAMCHA010802045508051917002409Busy World Of Richard Scarry; The                 Mr. Frumble's Brother                                         P24305 1125607ECC                              
ID FAMCHA010802051917051922000005Generic ID - Bubbles                                                                                                    02  150                                
PROFAMCHA010802051922051930000008House of Mouse Bumpers - Clap - Weekends @ 4:30pm                                                                       02  150                                
PRCFAMCHA010802051930051940000010Morning Block menu background (flex time)                                                                               02  150                                
ID FAMCHA010802051940052000000020Morning block open play pen                                                                                             06  150                                
PROFAMCHA010802052000052008000008CC Is Brought To You By - Ian (PRESCHOOL)                                                                               06  150                                
PGRFAMCHA010802052008054427002419Billy The Cat                                     The Big Meow                                                  B27643A1025607ECC                              
ID FAMCHA010802054427054432000005Generic ID - Couch 2                                                                                                    02  150                                
PROFAMCHA010802054432054440000008House of Mouse Bumpers - Clap - Weekends @ 4:30pm                                                                       06  150                                
ID FAMCHA010802054440054500000020Morning block open play pen                                                                                             06  150                                
PROFAMCHA010802054500054508000008CC Is Brought To You By - Lark (PRESCHOOL)                                                                              06  150                                
PGRFAMCHA010802054508060900002352Little Lulu Show; The                             Tiny Tot's Syrup/The Night Before Christmas/The Pi            B03815A1025607ECC                              
ID FAMCHA010802060900060910000010Generic ID - confetti                                                                                                   02  150                                
PROFAMCHA010802060910060930000020Book of Pooh - This Morning                                                                                             02  150                                
PRCFAMCHA010802060930060940000010Morning Block menu background (flex time)                                                                               06  150                                
ID FAMCHA010802060940061000000020Morning block open play pen                                                                                             06  150                                
PROFAMCHA010802061000061008000008CC Is Brought To You By - Ian (PRESCHOOL)                                                                               06  150                                
PGRFAMCHA010802061008063409002401Big Garage; The                                   Blow Your Own Horn                                            P21464 1025607ECC                              
ID FAMCHA010802063409063414000005Generic ID - Couch 1                                                                                                    02  150                                
PROFAMCHA010802063414063430000016ALF (Description) - Today @ 12pm                                                                                        02  150                                
PRCFAMCHA010802063430063440000010Morning Block menu background (flex time)                                                                               06  150                                
ID FAMCHA010802063440063500000020Morning block open play pen                                                                                             06  150                                
PGRFAMCHA010802063500065920002420Adventures of Pete & Pete; The                    My Little Viking Part 2                                             A2028607B                                
ID FAMCHA010802065920065925000005Generic ID - Couch 2                                                                                                    06  150                                
PROFAMCHA010802065925065940000015ALF (Lucky) - Today @ Noon                                                                                              02  150                                
ID FAMCHA010802065940070000000020Morning block open play pen                                                                                             06  150                                
PROFAMCHA010802070000070008000008CC Is Brought To You By - Lark (PRESCHOOL)                                                                              06  150                                
PGRFAMCHA010802070008072301002253Franklin                                          Franklin's Masterpiece/Franklin and the Computer                    A1025607ECC                              
ID FAMCHA010802072301072316000015Generic ID - confetti                                                                                                   02  150                                
PROFAMCHA010802072316072400000044Little Lulu Show - HOMEWORK - This Morning                                                                              02  150                                
PROFAMCHA010802072400072415000015New Adv of WTP Bumpers - Poem - Coming Up                                                                               02  150                                
PRCFAMCHA010802072415072447000032Funshine 2001 - GENERIC TOUR SPOT #1                                                                                   102 5150                                
PRCFAMCHA010802072447072526000039Funshine 2001 - Spot #13 - JULY 30 TO AUGUST 06                                                                        102 5150                                
INTFAMCHA010802072526072744000218Art Attack - Windmill                                                                                                  60288120                                
PROFAMCHA010802072744072755000011Kidsummer - Book of Pooh                                                                                              A102 8150                                
PROFAMCHA010802072755072940000145Fall Press Tape - Preschool (up to 4pm)                                                                                 02  150                                
PRCFAMCHA010802072940072950000010Morning Block menu background (flex time)                                                                               06  150                                
ID FAMCHA010802072950073000000010Magic of Disney - V2(sky) - KID FEMALE                                                                                  02  150                                
PROFAMCHA010802073000073008000008CC Is Brought To You By - Ian (PRESCHOOL)                                                                               06  150                                
PGRFAMCHA010802073008075249002241New Adventures of Winnie the Pooh; The            Easy Come Easy Gopher/Invasion of Pooh Snatcher                      6028607ECC                              
ID FAMCHA010802075249075254000005Generic ID - Fingerpaint                                                                                                02  150                                
PROFAMCHA010802075254075338000044Little Lulu Show - HOMEWORK - This Morning                                                                              06  150                                
PRCFAMCHA010802075338075410000032Funshine 2001 - GENERIC TOUR SPOT #1                                                                                   106 5150                                
PRCFAMCHA010802075410075449000039Funshine 2001 - Spot #13 - JULY 30 TO AUGUST 06                                                                        106 5150                                
INTFAMCHA010802075449075756000307Art Attack - Shuttle                                                                                                   60286120                                
PROFAMCHA010802075756075805000009PB&J Bumpers - Open - This Morning                                                                                      02  150                                
PROFAMCHA010802075805075950000145Fall Press Tape - Preschool (up to 4pm)                                                                                 06  150                                
PROFAMCHA010802075950080000000010Triple Line-up - 01 - ART/LULU/ELMO                                                                                     02  150                                
PGRFAMCHA010802080000081953001953Art Attack                                        1-099                                                                60286110                                
ID FAMCHA010802081953082003000010Generic ID - Hula Hoop                                                                                                  02  150                                
PRCFAMCHA010802082003082038000035Little Lulu (MARCH2001) - Coming Up                                                                                    102  150                                
PROFAMCHA010802082038082102000024ALF - Today @ Noon                                                                                                      02  150                                
PROFAMCHA010802082102082150000048Dual Combo Promo - OOTB/MADELINE (airs ONLY before                                                                      02  150                                
PROFAMCHA010802082150082200000010Triple Line-up - 02 - LULU/ELMO/PB&J                                                                                    02  150                                
PROFAMCHA010802082200082208000008CC Is Brought To You By - Lark (PRESCHOOL)                                                                              06  150                                
PGRFAMCHA010802082208084600002352Little Lulu Show; The                             Space Kids/Case of Disappearing Drum/From Hero to             B03816A1025607ECC                              
ID FAMCHA010802084600084605000005Generic ID - Marbles                                                                                                    02  150                                
PROFAMCHA010802084605084616000011Kidsummer - Excite.ca                                                                                                 A102 8150                                
PROFAMCHA010802084616084623000007PB&J Bumpers - Kite - This Morning                                                                                      02  150                                
INTFAMCHA010802084623084730000107Disney Moments-Many Adventures Of Ichabod-Headless                                                                     60288120                                
PROFAMCHA010802084730084750000020Book of Pooh - This Morning                                                                                             06  150                                
PROFAMCHA010802084750084800000010Triple Line-up - 03 - ELMO/PB&J/POOH                                                                                    02  150                                
PGRFAMCHA010802084800090333001533Elmo's World                                      Bananas                                                             A2028607G                                
ID FAMCHA010802090333090343000010Generic ID - Pink inner tube                                                                                            02  150                                
PROFAMCHA010802090343090352000009PB&J Bumpers - Open - Coming Up                                                                                         02  150                                
PROFAMCHA010802090352090412000020Book of Pooh - This Morning                                                                                             06  150                                
PRCFAMCHA010802090412090444000032Funshine 2001 - GENERIC TOUR SPOT #1                                                                                   106 5150                                
PRCFAMCHA010802090444090523000039Funshine 2001 - Spot #13 - JULY 30 TO AUGUST 06                                                                        106 5150                                
INTFAMCHA010802090523090714000151Disney Moments - Mickey's Birthday Party                                                                               60288120                                
PROFAMCHA010802090714090750000036Dual Combo Promo - ALF/LULU (air ONLY before TLU)                                                                       02  150                                
PROFAMCHA010802090750090800000010Triple Line-up - 04 - PB&J/POOH/BUSY                                                                                    02  150                                
PROFAMCHA010802090800090807000007CC Is Brought To You By - Ian (PRESCHOOL)                                                                               02  150                                
PGRFAMCHA010802090807093137002330PB&J Otter                                        Where, Oh Where Is Flick/Win-Win, Winner                             6028607ECC                              
ID FAMCHA010802093137093147000010Generic ID - Ring around the rosie                                                                                      02  150                                
PROFAMCHA010802093147093207000020Book of Pooh - Coming Up                                                                                                02  150                                
PROFAMCHA010802093207093231000024ALF - Today @ Noon                                                                                                      06  150                                
PROFAMCHA010802093231093242000011Kidsummer - Fujifilm                                                                                                  A102 8150                                
PRCFAMCHA010802093242093252000010Elmo's World Bumper - Dance - This Afternoon                                                                           102  150                                
PROFAMCHA010802093252093340000048Dual Combo Promo - OOTB/MADELINE (airs ONLY before                                                                      06  150                                
PROFAMCHA010802093340093350000010Triple Line-up - 05 - POOH/BUSY/MADELINE                                                                                02  150                                
ID FAMCHA010802093350093400000010Magic of Disney - V2(sky) - KID MALE                                                                                    02  150                                
PGRFAMCHA010802093400095802002402Book Of Pooh; The                                 Pleas and Thank You's/The Rumour Milstone                            6028607G                                
ID FAMCHA010802095802095812000010Generic ID - soccer                                                                                                     02  150                                
PROFAMCHA010802095812095850000038Dual Combo Promo - PB&J/ALADDIN (air ONLY before T                                                                      02  150                                
PROFAMCHA010802095850095900000010Triple Line-up - 06 - BUSY/MADELINE/OOTB                                                                                02  150                                
PROFAMCHA010802095900095908000008CC Is Brought To You By - Lark (PRESCHOOL)                                                                              06  150                                
PGRFAMCHA010802095908102318002410Busy World Of Richard Scarry; The                 Tough Test                                                    P24306A1125607ECC                              
ID FAMCHA010802102318102323000005Generic ID - soccer                                                                                                     02  150                                
PROFAMCHA010802102323102334000011Kidsummer - Rogers Video                                                                                              A102 8150                                
PROFAMCHA010802102334102350000016ALF (Description) - Today @ 12pm                                                                                        06  150                                
PROFAMCHA010802102350102400000010Triple Line-up - 07 - MADELINE/OOTB/GOOF                                                                                02  150                                
PGRFAMCHA010802102400104635002235Madeline                                          Madeline's Winter Vacation                                           6028607E                                
ID FAMCHA010802104635104640000005Generic ID - Fingerpaint                                                                                                06  150                                
PRCFAMCHA010802104640104710000030Funshine 2001 - GENERIC TOUR SPOT #2                                                                                   102 5150                                
PRCFAMCHA010802104710104749000039Funshine 2001 - Spot #13 - JULY 30 TO AUGUST 06                                                                        106 5150                                
PROFAMCHA010802104749104759000010Triple Line-up - 08 - OOTB/GOOF/ALADDIN                                                                                 02  150                                
PGRFAMCHA010802104759111119002320Out Of The Box                                    Ships Ahoy                                                           60286110                                
ID FAMCHA010802111119111124000005Generic ID - Bubbles                                                                                                    06  150                                
PRCFAMCHA010802111124111131000007Book of Pooh Bumper - Gang - This Afternoon                                                                            102  150                                
PRCFAMCHA010802111131111201000030Funshine 2001 - GENERIC TOUR SPOT #2                                                                                   106 5150                                
PRCFAMCHA010802111201111240000039Funshine 2001 - Spot #13 - JULY 30 TO AUGUST 06                                                                        106 5150                                
PROFAMCHA010802111240111250000010Triple Line-up - 09 - GOOF/ALADDIN/ALF                                                                                  02  150                                
ID FAMCHA010802111250111300000010Magic of Disney - V3(water) - KID FEMALE                                                                                02  150                                
PROFAMCHA010802111300111308000008CC Is Brought To You By - Ian (PRESCHOOL)                                                                               06  150                                
PGRFAMCHA010802111308113554002246Goof Troop                                        Mrs. Spoonerville                                                   A6028607ECC                              
ID FAMCHA010802113554113604000010Generic ID - confetti                                                                                                   06  150                                
PROFAMCHA010802113604113640000036Dual Combo Promo - GOOF/ELMO (air ONLY before TLU)                                                                      02  150                                
PROFAMCHA010802113640113650000010Triple Line-up - 10 - ALADDIN/ALF/FRANKLIN                                                                              02  150                                
ID FAMCHA010802113650113700000010Magic of Disney - V3(water) - KID MALE                                                                                  02  150                                
PROFAMCHA010802113700113708000008CC Is Brought To You By - Lark (PRESCHOOL)                                                                              06  150                                
PGRFAMCHA010802113708115946002238Disney's Aladdin                                  Egg-Stra Protection                                                  6028607ECC                              
ID FAMCHA010802115946115951000005Generic ID - Couch 2                                                                                                    06  150                                
PROFAMCHA010802115951120001000010Triple Line-up - 11 - ALF/FRANKLIN/ELMO                                                                                 02  150                                
PROFAMCHA010802120001120009000008CC Is Brought To You By - Ian (PRESCHOOL)                                                                               06  150                                
PGRFAMCHA010802120009122138002129ALF                                               Suspicious Mind                                                     A2028807BCC                              
ID FAMCHA010802122138122148000010Generic ID - confetti                                                                                                   06  150                                
PRCFAMCHA010802122148122211000023Franklin (MARCH2001) - Coming Up                                                                                       102  150                                
PROFAMCHA010802122211122220000009House of Mouse Bumpers - No TV - Weekends @ 4:30pm                                                                      02  150                                
PROFAMCHA010802122220122250000030Movie Image Promo - Road of Life                                                                                        02  150                                
PROFAMCHA010802122250122300000010Triple Line-up - 12 - FRANKLIN/ELMO/PB&J                                                                                02  150                                
PROFAMCHA010802122300122307000007CC Was Brought To You By - Lark (PRESCHOOL)                                                                             02  150                                
PGRFAMCHA010802122307124600002253Franklin                                          Fearless/Lucky Charm                                                A1025607ECC                              
ID FAMCHA010802124600124610000010Generic ID - Hula Hoop                                                                                                  06  150                                
PROFAMCHA010802124610124621000011Kidsummer - Toronto Blue Jays                                                                                         A102 8150                                
PROFAMCHA010802124621124630000009PB&J Bumpers - Open - This Afternoon                                                                                    02  150                                
PROFAMCHA010802124630124650000020Book of Pooh - This Afternoon                                                                                           02  150                                
PROFAMCHA010802124650124700000010Triple Line-up - 13 - ELMO/PB&J/POOH                                                                                    02  150                                
PGRFAMCHA010802124700130124001424Elmo's World                                      Exercise                                                            A2028607G                                
ID FAMCHA010802130124130129000005Generic ID - Couch 2                                                                                                    06  150                                
PROFAMCHA010802130129130138000009PB&J Bumpers - Open - Coming Up                                                                                         06  150                                
PROFAMCHA010802130138130158000020Book of Pooh - This Afternoon                                                                                           06  150                                
PRCFAMCHA010802130158130228000030Funshine 2001 - GENERIC TOUR SPOT #2                                                                                   106 5150                                
PRCFAMCHA010802130228130307000039Funshine 2001 - Spot #13 - JULY 30 TO AUGUST 06                                                                        106 5150                                
INTFAMCHA010802130307130606000259Music Break - Sebastian's Party Gras: Sing Along                                                                       60286120                                
PROFAMCHA010802130606130620000014ALF (Dreams) - Tonight @ 7:30pm                                                                                         02  150                                
PROFAMCHA010802130620130650000030Movie Image Promo - Road of Life                                                                                        06  150                                
PROFAMCHA010802130650130700000010Triple Line-up - 14 - PB&J/POOH/BUSY                                                                                    02  150                                
PROFAMCHA010802130700130708000008CC Is Brought To You By - Ian (PRESCHOOL)                                                                               06  150                                
PGRFAMCHA010802130708133038002330PB&J Otter                                        A Peanut Cries Uncle/Nanner Says 'I Do'                              6028607ECC                              
ID FAMCHA010802133038133048000010Generic ID - Family w/dog                                                                                               02  150                                
PROFAMCHA010802133048133231000143Sunday Pick - Sundays @ 12pm                                                                                            02  150                                
PROFAMCHA010802133231133240000009House of Mouse Bumpers - No TV - Weekends @ 4:30pm                                                                      06  150                                
PROFAMCHA010802133240133250000010Triple Line-up - 15 - POOH/BUSY/MADELINE                                                                                02  150                                
ID FAMCHA010802133250133300000010Magic of Disney - V4 - TEEN FEMALE                                                                                      02  150                                
PGRFAMCHA010802133300135702002402Book Of Pooh; The                                 Busy As A Spelling Bee/Up In The Air Junior Bird D                   6028607G                                
ID FAMCHA010802135702135707000005Generic ID - Fingerpaint                                                                                                06  150                                
PROFAMCHA010802135707135737000030Movie Image Promo - Road of Life                                                                                        06  150                                
PROFAMCHA010802135737135750000013Buzz Lightyear (DISNEY'S ONE TOO) - Today @ 5:30pm                                                                      02  150                                
PROFAMCHA010802135750135800000010Triple Line-up - 16 - BUSY/MADELINE/OOTB                                                                                02  150                                
PROFAMCHA010802135800135808000008CC Is Brought To You By - Lark (PRESCHOOL)                                                                              06  150                                
PGRFAMCHA010802135808142218002410Busy World Of Richard Scarry; The                 The Inventor Of The Year                                      P24307A1125607ECC                              
ID FAMCHA010802142218142223000005Generic ID - Fingerpaint                                                                                                06  150                                
PROFAMCHA010802142223142236000013Buzz Lightyear (DISNEY'S ONE TOO) - Today @ 5:30pm                                                                      06  150                                
PROFAMCHA010802142236142250000014ALF (Dreams) - Tonight @ 7:30pm                                                                                         06  150                                
PROFAMCHA010802142250142300000010Triple Line-up - 17 - MADELINE/OOTB/GOOF                                                                                02  150                                
PGRFAMCHA010802142300144535002235Madeline                                          Madeline In Hollywood                                                6028607E                                
