SO FAMCHA080901043000043011000011Sign On (oct 1)                                                                                                                                                
PRCFAMCHA080901043011043020000009CC Disclaimer - FAST - Family.ca (:09-:10)                                                                                  150                                
PGRFAMCHA080901043020045656002636Katie And Orbie                                   EP: 3-028                                                     C12449A1065607ECC                              
PRCFAMCHA080901045656045702000006Astral ID (DEC 2007)                                                                                                        150                                
PRCFAMCHA080901045702045714000012Family Jr. Bumper - Collide (:11- :14) (JUL08)                                                                              150                                
PRCFAMCHA080901045714045723000009CC Disclaimer - FAST - Generic (:09-:10)                                                                                    150                                
PGRFAMCHA080901045723051953002230Franny's Feet                                     EPS # 35                                                      C23971 1065607ECC                              
PRCFAMCHA080901051953052005000012Family Jr. Bumper - Music (:11- :14) (JUL08)                                                                                150                                
PRCFAMCHA080901052005052014000009CC Disclaimer - FAST - Family.ca (:09-:10)                                                                                  150                                
PGRFAMCHA080901052014054244002230The Secret World Of Benjamin Bear                 EPS # 1-001                                                   B75146 1065607ECC                              
PRCFAMCHA080901054244054250000006Astral ID (DEC 2007)                                                                                                        150                                
PRCFAMCHA080901054250054305000015Family Jr. Bumper - Portal (:14- :17) (JUL08)                                                                               150                                
PRCFAMCHA080901054305054314000009CC Disclaimer - FAST - Generic (:09-:10)                                                                                    150                                
PGRFAMCHA080901054314060552002238Hoze Houndz                                       EP: 5-065                                                     B63401A1065607ECC                              
PRCFAMCHA080901060552060603000011Family Jr. Bumper - Acrobat (:10- :13) (JUL08)                                                                              150                                
PRCFAMCHA080901060603060612000009CC Disclaimer - FAST - Family.ca (:09-:10)                                                                                  150                                
PGRFAMCHA080901060612063017002405Henry's World                                     EPS # 2-024                                                   B81055A1065607GCC                              
PRCFAMCHA080901063017063023000006Astral ID (DEC 2007)                                                                                                        150                                
PRCFAMCHA080901063023063035000012Family Jr. Bumper - Collide (:11- :14) (JUL08)                                                                              150                                
PRCFAMCHA080901063035063044000009CC Disclaimer - FAST - Generic (:09-:10)                                                                                    150                                
PGRFAMCHA080901063044065314002230King                                              EPS # 2-015                                                   B75770 1065607ECC                              
PROFAMCHA080901065314065330000016DC Games Marathon ID - Jasmine Richards - Marathon                                                                          150                                
PROFAMCHA080901065330065355000025Recess - CAREER DAY (MMM) - (JULY06) - Coming Up N                                                                          150                                
PRCFAMCHA080901065355065440000045Bratz Girlz Really Rock DVD Contest - Available Se                                                                          150                                
PRCFAMCHA080901065440065450000010Family First Pre Promote Tease (MD/ NS/ NSW) 3/4 P                                                                          150                                
PRCFAMCHA080901065450065535000045September Stunt Promo - New Eps/Popcorn Pix Friday                                                                          150                                
PROFAMCHA080901065535065554000019MadMadMornings Block Open                                                                                                   150                                
PRCFAMCHA080901065554065603000009CC Disclaimer - FAST - Generic (:09-:10)                                                                                    150                                
PGRFAMCHA080901065603071837002234Disney's Recess                                   EP: 1-002                                                            6068607ECC                              
PRCFAMCHA080901071837071843000006Astral ID (DEC 2007)                                                                                                        150                                
PROFAMCHA080901071843071913000030Cheetah Girls - One World Online Streaming Availab                                                                          150                                
PROFAMCHA080901071913071949000036Weekenders - PIZZA (MMM) - (APR06) - This Morning                                                                           150                                
PRCFAMCHA080901071949072034000045Walmart / Cheetah Girls (Aug 19 - Sept 15) $$$                                                                              150                                
PROFAMCHA080901072034072104000030American Dragon Jake Long (MD) HERO - This Afterno                                                                          150                                
PROFAMCHA080901072104072114000010FAMJAM - Open/Close                                                                                                         150                                
PGRFAMCHA080901072114072214000100MV Disney - (MD/NS/NSW) - Jesse McCartney - Just S                                                                     60288120                                
PROFAMCHA080901072214072228000014xxFAMJAM - Close (FAMILY) xxDNUxx                                                                                           150                                
PROFAMCHA080901072228072246000018Emperor's New School (MD) BUTT IN URN - This After                                                                          150                                
PRCFAMCHA080901072246072326000040Fly Me To The Moon - In Theatres Sept.5 (Aug 28 -                                                                           150                                
PROFAMCHA080901072326072342000016DC Games Marathon ID - Selena Gomez - Marathon Tod                                                                          150                                
PROFAMCHA080901072342072401000019MadMadMornings Block Open                                                                                                   150                                
PRCFAMCHA080901072401072410000009CC Disclaimer - FAST - Family.ca (:09-:10)                                                                                  150                                
PGRFAMCHA080901072410074640002230Phineas & Ferb                                    EP: 01                                                               6068607ECC                              
PROFAMCHA080901074640074714000034Jonas Brothers Living The Dream Promo - Fridays Fo                                                                          150                                
PROFAMCHA080901074714074750000036Weekenders - PIZZA (MMM) - (APR06) - Coming Up Nex                                                                          150                                
PROFAMCHA080901074750074830000040Simple Plan Refresh Spot (Aug 30 - Sept 13) $$$                                                                             150                                
PROFAMCHA080901074830074904000034Recess - HEROES (MD) - (APR06) - This Morning @ 11                                                                          150                                
PROFAMCHA080901074904074936000032Kim Possible RON FACTOR (MD) (July 06)  This after                                                                          150                                
PROFAMCHA080901074936075006000030Fillmore (MD) LAW & ORDER - This Afternoon @ 1:55                                                                           150                                
PROFAMCHA080901075006075034000028DC Games Marathon Promo - Starts This Afternoon @                                                                           150                                
PROFAMCHA080901075034075053000019MadMadMornings Block Open                                                                                                   150                                
PRCFAMCHA080901075053075102000009CC Disclaimer - FAST - Family.ca (:09-:10)                                                                                  150                                
PGRFAMCHA080901075102081342002240Disney's The Weekenders                           EP: 1-034                                                           A6068607ECC                              
PRCFAMCHA080901081342081348000006Astral ID (DEC 2007)                                                                                                        150                                
PROFAMCHA080901081348081418000030Cheetah Girls One World Singalong - Premieres Frid                                                                          150                                
PROFAMCHA080901081418081448000030Kim Possible EVIL (MMM) (MAY07) Coming Up Next                                                                              150                                
PROFAMCHA080901081448081458000010FAMJAM - Open/Close                                                                                                         150                                
PGRFAMCHA080901081458081628000130MV Disney - (MD/NS/NSW) - Jesse McCartney - Just S                                                                     60288120                                
PROFAMCHA080901081628081642000014xxFAMJAM - Close (FAMILY) xxDNUxx                                                                                           150                                
PRCFAMCHA080901081642081654000012Family Jams Bumper - Boombox (:10 -:13) (JULY08)                                                                            150                                
PROFAMCHA080901081654081724000030American Dragon Jake Long (MD) HERO - This Afterno                                                                          150                                
PROFAMCHA080901081724081742000018DC Games Marathon ID - Kyle Massey - Marathon Toda                                                                          150                                
PROFAMCHA080901081742081801000019MadMadMornings Block Open                                                                                                   150                                
PRCFAMCHA080901081801081810000009CC Disclaimer - FAST - Generic (:09-:10)                                                                                    150                                
PGRFAMCHA080901081810084101002251Disney's Kim Possible                             EP: 1-001                                                           A6068607ECC                              
PROFAMCHA080901084101084152000051PH-D Promo - MMCH Once Upon A Club House - Starts                                                                           150                                
PROFAMCHA080901084152084207000015Little Einsteins (FJR) GENERIC - Coming Up Next (J                                                                          150                                
PRCFAMCHA080901084207084242000035Franny's Feet (FJR) GENERIC - This Morning @ 9:10                                                                           150                                
PGRFAMCHA080901084242084352000110Pixie Previews - (MMM, PH) Tink & Pepper Shaker                                                                       A60688120                                
PRCFAMCHA080901084352084422000030PH-D Promo - Parent Sell (JUNE 2008)                                                                                        150                                
ID FAMCHA080901084422084437000015Family Jr. Block Open (:14-:17) (JUL08)                                                                                     150                                
PRCFAMCHA080901084437084446000009CC Disclaimer - FAST - Family.ca (:09-:10)                                                                                  150                                
PGRFAMCHA080901084446090851002405Disney's Little Einsteins                         EP: 05                                                               6068607ECC                              
PRCFAMCHA080901090851090857000006Astral ID (DEC 2007)                                                                                                        150                                
PRCFAMCHA080901090857090907000010FJR - 08 - FRANNY'S FEET/TIGGER & POOH (:09 - :12)                                                                          150                                
PRCFAMCHA080901090907090942000035Franny's Feet (FJR) GENERIC - Coming Up Next (JUL0                                                                          150                                
PRCFAMCHA080901090942091017000035Winnie The Pooh/Disney Live - On Sale #1 - 2 Day P                                                                          150                                
PROFAMCHA080901091017091047000030Tigger and Pooh (FJR) DARBY SELL - This Morning @                                                                           150                                
PRCFAMCHA080901091047091059000012Family Jr. Bumper - Music (:11- :14) (JUL08)                                                                                150                                
PRCFAMCHA080901091059091108000009CC Disclaimer - FAST - Generic (:09-:10)                                                                                    150                                
PGRFAMCHA080901091108093338002230Franny's Feet                                     EPS # 1-009                                                   C23970A1065607ECC                              
PRCFAMCHA080901093338093349000011FJR - 09 - TIGGER & POOH/MICKEY MOUSE CLUBHOUSE (:                                                                          150                                
PROFAMCHA080901093349093434000045Tigger and Pooh (FJR) POOH SELL - Coming Up Next (                                                                          150                                
PGRFAMCHA080901093434093559000125Pixie Previews - (MMM, PH) Silvermist                                                                                 A60688120                                
PROFAMCHA080901093559093650000051PH-D Promo - MMCH Once Upon A Club House - Starts                                                                           150                                
PRCFAMCHA080901093650093705000015Family Jr. Bumper - Portal (:14- :17) (JUL08)                                                                               150                                
PRCFAMCHA080901093705093714000009CC Disclaimer - FAST - Family.ca (:09-:10)                                                                                  150                                
PGRFAMCHA080901093714100122002408Disney My Friends Tigger and Pooh                 EP: 02                                                               6068607ECC                              
PRCFAMCHA080901100122100128000006Astral ID (DEC 2007)                                                                                                        150                                
PRCFAMCHA080901100128100138000010FJR - 10 - MICKEY MOUSE CLUBHOUSE/BUNNYTOWN (:09 -                                                                          150                                
PROFAMCHA080901100138100209000031PH-D Promo - Web Sell on Family -  24/7 Ooh & Aah                                                                           150                                
PROFAMCHA080901100209100225000016Mickey Mouse Clubhouse (FJR) GENERIC - Coming Up N                                                                          150                                
PROFAMCHA080901100225100255000030Handy Manny (FJR) HOP UP/JUMP IN - This Morning @                                                                           150                                
PROFAMCHA080901100255100346000051PH-D Promo - MMCH Once Upon A Club House - Starts                                                                           150                                
PRCFAMCHA080901100346100357000011Family Jr. Bumper - Acrobat (:10- :13) (JUL08)                                                                              150                                
ID FAMCHA080901100357100405000008Magic of Disney - PLAYHOUSE - Shape (:06-:09)                                                                               150                                
PRCFAMCHA080901100405100414000009CC Disclaimer - FAST - Generic (:09-:10)                                                                                    150                                
PGRFAMCHA080901100414102816002402Disney's Mickey Mouse Clubhouse                   EP: 01                                                               6068607ECC                              
PRCFAMCHA080901102816102827000011FJR - 11 - BUNNYTOWN/BENJAMIN BEAR (:10 - :13) (JU                                                                          150                                
PROFAMCHA080901102827102857000030Handy Manny (FJR) NEIGHBOURS - Coming Up Next (JUL                                                                          150                                
PRCFAMCHA080901102857102932000035Winnie The Pooh/Disney Live - On Sale #1 - 2 Day P                                                                          150                                
PRCFAMCHA080901102932103002000030Benjamin Bear (FJR) GENERIC - This Morning @ 10:55                                                                          150                                
PRCFAMCHA080901103002103032000030King (FJR) GENERIC - This Morning @ 11:25 (JUL08)                                                                           150                                
PROFAMCHA080901103032103051000019Johnny and the Sprites (FJR) BASIL #1 - Tomorrow M                                                                          150                                
PRCFAMCHA080901103051103103000012Family Jr. Bumper - Collide (:11- :14) (JUL08)                                                                              150                                
ID FAMCHA080901103103103111000008Magic of Disney - PLAYHOUSE - Wipe (:06-:09)                                                                                150                                
PRCFAMCHA080901103111103120000009CC Disclaimer - FAST - Family.ca (:09-:10)                                                                                  150                                
PGRFAMCHA080901103120105525002405Handy Manny                                       EP: 16                                                               6068607ECC                              
PRCFAMCHA080901105525105531000006Astral ID (DEC 2007)                                                                                                        150                                
PRCFAMCHA080901105531105542000011FJR - 12 - BENJAMIN BEAR/KING (:10 - :13) (JULY08)                                                                          150                                
PRCFAMCHA080901105542105612000030Benjamin Bear (FJR) GENERIC - Coming Up Next (JUL0                                                                          150                                
PRCFAMCHA080901105612105642000030King (FJR) GENERIC - This Morning @ 11:25 (JUL08)                                                                           150                                
PRCFAMCHA080901105642105654000012Family Jr. Bumper - Music (:11- :14) (JUL08)                                                                                150                                
PRCFAMCHA080901105654105703000009CC Disclaimer - FAST - Generic (:09-:10)                                                                                    150                                
PGRFAMCHA080901105703111933002230Secret World of Benjamin Bear, The                EP: 30                                                        C27272 1065607ECC                              
PRCFAMCHA080901111933111943000010FJR - 13 - KING/RECESS (:09 - :12) (JULY08)                                                                                 150                                
PRCFAMCHA080901111943112013000030King (FJR) GENERIC - Coming Up Next (JUL08)                                                                                 150                                
PROFAMCHA080901112013112043000030Little Einsteins (FJR) PROMO #1 - Tomorrow Morning                                                                          150                                
PROFAMCHA080901112043112143000100Tigger and Pooh (FJR) SUPER SLEUTH - Tomorrow Morn                                                                          150                                
PGRFAMCHA080901112143112308000125Pixie Previews - (MMM, PH) Tink & Bell                                                                                A60688120                                
PROFAMCHA080901112308112324000016Mickey Mouse Clubhouse (FJR) GENERIC - Tomorrow Mo                                                                          150                                
PROFAMCHA080901112324112341000017Johnny and the Sprites (FJR) BASIL #2 - Tomorrow M                                                                          150                                
PROFAMCHA080901112341112432000051PH-D Promo - MMCH Once Upon A Club House - Starts                                                                           150                                
PRCFAMCHA080901112432112447000015Family Jr. Bumper - Portal (:14- :17) (JUL08)                                                                               150                                
PRCFAMCHA080901112447112456000009CC Disclaimer - FAST - Family.ca (:09-:10)                                                                                  150                                
PGRFAMCHA080901112456114726002230King                                              EP: 4-042                                                     C25350 1065607ECC                              
PRCFAMCHA080901114726114732000006Astral ID (DEC 2007)                                                                                                        150                                
PROFAMCHA080901114732114746000014Phil of the Future IDs - Ricky Tomato - watching f                                                                          150                                
PROFAMCHA080901114746114820000034Recess - HEROES (MD) - (APR06) - Coming Up Next                                                                             150                                
PROFAMCHA080901114820114836000016DC Games Marathon ID - Joe Jonas - Marathon Today                                                                           150                                
PROFAMCHA080901114836114852000016Mad Dash Block Open (:16-:18) APR06                                                                                         150                                
PRCFAMCHA080901114852114901000009CC Disclaimer - FAST - Generic (:09-:10)                                                                                    150                                
PGRFAMCHA080901114901121136002235Disney's Recess                                   EP: 1-050                                                            6068607ECC                              
PRCFAMCHA080901121136121148000012MD - 02 - KIM/WEEKENDERS (:11 - :13) (JULY08)                                                                               150                                
PROFAMCHA080901121148121218000030Kim Possible EVIL (MD) Coming Up Next (JULY08)                                                                              150                                
PROFAMCHA080901121218121254000036Weekenders - PIZZA (MD) - (APR06) - This Afternoon                                                                          150                                
PRCFAMCHA080901121254121339000045September Stunt Promo - New Eps/Popcorn Pix Friday                                                                          150                                
PRCFAMCHA080901121339121354000015MD Bumper - Shopping Race (:15-:17) APR06                                                                                   150                                
PRCFAMCHA080901121354121403000009CC Disclaimer - FAST - Family.ca (:09-:10)                                                                                  150                                
PGRFAMCHA080901121403123656002253Disney's Kim Possible                             EPS # 1-062                                                          6068607ECC                              
PRCFAMCHA080901123656123702000006Astral ID (DEC 2007)                                                                                                        150                                
PRCFAMCHA080901123702123714000012MD - 03 - WEEKENDERS/AMERICAN DRAGON (:11 - :13) (                                                                          150                                
PROFAMCHA080901123714123753000039Weekenders (MD) ALT UNIVERSE - Coming Up Next (JUL                                                                          150                                
PROFAMCHA080901123753123823000030American Dragon Jake Long (MD) HERO - This Afterno                                                                          150                                
PROFAMCHA080901123823123851000028DC Games Marathon Promo - Starts This Afternoon @                                                                           150                                
PRCFAMCHA080901123851123859000008MD Bumper - Ski Race (:07-:09) APR06                                                                                        150                                
PRCFAMCHA080901123859123908000009CC Disclaimer - FAST - Generic (:09-:10)                                                                                    150                                
PGRFAMCHA080901123908130201002253Disney's The Weekenders                           EP: 1-012                                                           A6068607ECC                              
PRCFAMCHA080901130201130213000012MD - 04 - AMERICAN DRAGON/EMPERORS'S (:11 - :13) (                                                                          150                                
PROFAMCHA080901130213130243000030Cheetah Girls One World Singalong - Premieres Frid                                                                          150                                
PROFAMCHA080901130243130313000030American Dragon Jake Long (MD) HERO - Coming Up Ne                                                                          150                                
PROFAMCHA080901130313130335000022Fillmore (MD) POLLY - This Afternoon @ 1:55 (JULY0                                                                          150                                
PROFAMCHA080901130335130353000018DC Games Marathon ID - Kyle Massey - Marathon Toda                                                                          150                                
PRCFAMCHA080901130353130402000009MD Bumper - Race Cars (:08-:10) APR06                                                                                       150                                
PRCFAMCHA080901130402130411000009CC Disclaimer - FAST - Family.ca (:09-:10)                                                                                  150                                
PGRFAMCHA080901130411132650002239Disney's American Dragon: Jake Long               EPS # 16                                                             6068607ECC                              
PRCFAMCHA080901132650132656000006Astral ID (DEC 2007)                                                                                                        150                                
PRCFAMCHA080901132656132708000012MD - 05 - EMPEROR'S/FILLMORE (:11 - :13) (JULY08)                                                                           150                                
PROFAMCHA080901132708132726000018Emperor's New School (MD) BUTT IN URN - Coming Up                                                                           150                                
PROFAMCHA080901132726132745000019DC Games Marathon ID - Mitchel Musso - Marathon To                                                                          150                                
PRCFAMCHA080901132745132833000048Family Video Player Promo - No Tag 3/day (not in P                                                                          150                                
PRCFAMCHA080901132833132849000016MD Bumper - Shopping Race (:15-:17) APR06                                                                                   150                                
PRCFAMCHA080901132849132858000009CC Disclaimer - FAST - Generic (:09-:10)                                                                                    150                                
PGRFAMCHA080901132858135134002236Disney's The Emperor's New School                 EP: 11                                                               6068807ECC                              
PRCFAMCHA080901135134135146000012MD - 06 - FILLMORE/WEEKENDERS (:11 - :13) (JULY08)                                                                          150                                
PROFAMCHA080901135146135220000034Jonas Brothers Living The Dream Promo - Catch it o                                                                          150                                
PROFAMCHA080901135220135250000030Fillmore (MD) LAW & ORDER - Coming Up Next (AUG08)                                                                          150                                
PROFAMCHA080901135250135329000039Weekenders (MD) ALT UNIVERSE - This Afternoon @ 2:                                                                          150                                
PROFAMCHA080901135329135357000028DC Games Marathon Promo - Starts This Afternoon @                                                                           150                                
PRCFAMCHA080901135357135405000008MD Bumper - Ski Race (:07-:09) APR06                                                                                        150                                
PRCFAMCHA080901135405135414000009CC Disclaimer - FAST - Family.ca (:09-:10)                                                                                  150                                
PGRFAMCHA080901135414141651002237Disney's Fillmore!                                EPS # 1-020                                                          6068607ECC                              
PRCFAMCHA080901141651141657000006Astral ID (DEC 2007)                                                                                                        150                                
PRCFAMCHA080901141657141709000012MD - 07 - WEEKENDERS/KIM (:11 - :13) (JULY08)                                                                               150                                
PROFAMCHA080901141709141745000036Weekenders - PIZZA (MD) - (APR06) - Coming Up Next                                                                          150                                
PRCFAMCHA080901141745141815000030Cineplex Latest Buzz Popcorn Parties Post-Launch 3                                                                          150                                
PROFAMCHA080901141815141843000028DC Games Marathon Promo - Starts This Afternoon @                                                                           150                                
PRCFAMCHA080901141843141853000010MD Bumper - Race Cars (:08-:10) APR06                                                                                       150                                
PRCFAMCHA080901141853141902000009CC Disclaimer - FAST - Family.ca (:09-:10)                                                                                  150                                
PGRFAMCHA080901141902144135002233Disney's The Weekenders                           EP: 1-022                                                           A6068607ECC                              
PRCFAMCHA080901144135144220000045September Stunt Promo - New Eps/Popcorn Pix Friday                                                                          150                                
PROFAMCHA080901144220144235000015Kim Possible BOYFRIEND (MD) Coming Up Next (JULY08                                                                          150                                
PROFAMCHA080901144235144315000040Simple Plan Refresh Spot (Aug 30 - Sept 13) $$$                                                                             150                                
PROFAMCHA080901144315144343000028DC Games Marathon Promo - Starts This Afternoon @                                                                           150                                
PRCFAMCHA080901144343144400000017MD Bumper - Shopping Race (:15-:17) APR06                                                                                   150                                
PRCFAMCHA080901144400144409000009CC Disclaimer - FAST - Generic (:09-:10)                                                                                    150                                
PGRFAMCHA080901144409150703002254Disney's Kim Possible - Yr. 4                     EP: 08                                                               6068607ECC                              
PRCFAMCHA080901150703150709000006Astral ID (DEC 2007)                                                                                                        150                                
PROFAMCHA080901150709150737000028DC Games Marathon Promo - Begins Next                                                                                       150                                
PRCFAMCHA080901150737150822000045Bratz Girlz Really Rock DVD Contest - Available Se                                                                          150                                
PRCFAMCHA080901150822150907000045September Stunt Promo - New Eps/Popcorn Pix Friday                                                                          150                                
PROFAMCHA080901150907150925000018Nonstop Block Open (:16-:18) APR06                                                                                          150                                
PROFAMCHA080901150925150936000011DCG EP #1 - Segment #1 Airs Immediately Prior Epis                                                                          150                                
PGRFAMCHA080901150936151422000446DC Games 2008                                     EP: 1                                                               A6068607CCC                              
PROFAMCHA080901151422151549000127DCG EP #1 - Segment #2 - Airs Between Seg 1 & 2                                                                             150                                
PGRFAMCHA080901151549152135000546DC Games 2008                                     EP: 1                                                               A6068607CCC                              
PROFAMCHA080901152135152238000103DCG EP #1 - Segment #3 - Airs Between Seg 2 & 3                                                                             150                                
PGRFAMCHA080901152238152745000507DC Games 2008                                     EP: 1                                                               A6068607CCC                              
PROFAMCHA080901152745152827000042DCG EP #1 - Segment #4 - Airs Between Seg 3 & 4                                                                             150                                
PGRFAMCHA080901152827153517000650DC Games 2008                                     EP: 1                                                               A6068607CCC                              
PROFAMCHA080901153517153737000220DCG EP #1 - Segment #5 - Airs Immediately Followin                                                                          150                                
PROFAMCHA080901153737153753000016DC Games Marathon ID - Selena Gomez - Continues Ne                                                                          150                                
PROFAMCHA080901153753153812000019DCG EP #2 - Segment #1 Airs Immediately Prior Epis                                                                          150                                
PGRFAMCHA080901153812154424000612DC Games 2008                                     EP: 2                                                               A6068607CCC                              
PROFAMCHA080901154424154614000150DCG EP #2 - Segment #2 - Airs Between Seg 1 & 2                                                                             150                                
PGRFAMCHA080901154614155045000431DC Games 2008                                     EP: 2                                                               A6068607CCC                              
PROFAMCHA080901155045155217000132DCG EP #2 - Segment #3 - Airs Between Seg 2 & 3                                                                             150                                
PGRFAMCHA080901155217155744000527DC Games 2008                                     EP: 2                                                               A6068607CCC                              
PROFAMCHA080901155744155827000043DCG EP #2 - Segment #4 - Airs Between Seg 3 & 4                                                                             150                                
PGRFAMCHA080901155827160448000621DC Games 2008                                     EP: 2                                                               A6068607CCC                              
PROFAMCHA080901160448160553000105DCG EP #2 - Segment #5 - Airs Immediately Followin                                                                          150                                
PRCFAMCHA080901160553160559000006Astral ID (DEC 2007)                                                                                                        150                                
PRCFAMCHA080901160559160639000040Fly Me To The Moon - In Theatres Sept.5 (Aug 28 -                                                                           150                                
PROFAMCHA080901160639160658000019DC Games Marathon ID - Mitchel Musso - Continues N                                                                          150                                
PROFAMCHA080901160658160711000013DCG EP #3 - Segment #1 Airs Immediately Prior Epis                                                                          150                                
PGRFAMCHA080901160711161247000536DC Games 2008                                     EP: 3                                                               A6068607CCC                              
PROFAMCHA080901161247161442000155DCG EP #3 - Segment #2 - Airs Between Seg 1 & 2                                                                             150                                
PGRFAMCHA080901161442162020000538DC Games 2008                                     EP: 3                                                               A6068607CCC                              
PROFAMCHA080901162020162149000129DCG EP #3 - Segment #3 - Airs Between Seg 2 & 3                                                                             150                                
PGRFAMCHA080901162149162748000559DC Games 2008                                     EP: 3                                                               A6068607CCC                              
PROFAMCHA080901162748162847000059DCG EP #3 - Segment #4 - Airs Between Seg 3 & 4                                                                             150                                
PGRFAMCHA080901162847163405000518DC Games 2008                                     EP: 3                                                               A6068607CCC                              
PROFAMCHA080901163405163500000055DCG EP #3 - Segment #5 - Airs Immediately Followin                                                                          150                                
PROFAMCHA080901163500163540000040Simple Plan Refresh Spot (Aug 30 - Sept 13) $$$                                                                             150                                
PROFAMCHA080901163540163558000018DC Games Marathon ID - Kyle Massey - Continues Nex                                                                          150                                
PRCFAMCHA080901163558163608000010Rogers Pre Paid Spot Billboard (Aug 25 - Oct 5) $$                                                                          150                                
PROFAMCHA080901163608163623000015DCG EP #4 - Segment #1 Airs Immediately Prior Epis                                                                          150                                
PGRFAMCHA080901163623163945000322DC Games 2008                                     EP: 4                                                               A6068607CCC                              
PROFAMCHA080901163945164030000045DCG EP #4 - Segment #2 - Airs Between Seg 1 & 2                                                                             150                                
PGRFAMCHA080901164030164712000642DC Games 2008                                     EP: 4                                                               A6068607CCC                              
PROFAMCHA080901164712164842000130DCG EP #4 - Segment #3 - Airs Between Seg 2 & 3 (S                                                                          150                                
PGRFAMCHA080901164842165546000704DC Games 2008                                     EP: 4                                                               A6068607CCC                              
PROFAMCHA080901165546165649000103DCG EP #4 - Segment #4 - Airs Between Seg 3 & 4                                                                             150                                
PGRFAMCHA080901165649170211000522DC Games 2008                                     EP: 4                                                               A6068607CCC                              
PROFAMCHA080901170211170405000154DCG EP #4 - Segment #5 - Airs Immediately Followin                                                                          150                                
PRCFAMCHA080901170405170411000006Astral ID (DEC 2007)                                                                                                        150                                
PRCFAMCHA080901170411170456000045Rogers Pre Paid Spot (Aug 25 - Oct 5) $$$                                                                                   150                                
PROFAMCHA080901170456170512000016DC Games Marathon ID - Joe Jonas - Continues Next                                                                           150                                
PRCFAMCHA080901170512170557000045Walmart / Cheetah Girls (Aug 19 - Sept 15) $$$                                                                              150                                
PROFAMCHA080901170557170628000031DCG EP #5 - Segment #1 Airs Immediately Prior Epis                                                                          150                                
PGRFAMCHA080901170628171232000604DC Games 2008                                     EP: 5                                                               A6068607CCC                              
PROFAMCHA080901171232171320000048DCG EP #5 - Segment #2 - Airs Between Seg 1 & 2                                                                             150                                
PGRFAMCHA080901171320171913000553DC Games 2008                                     EP: 5                                                               A6068607CCC                              
PROFAMCHA080901171913172037000124DCG EP #5 - Segment #3 - Airs Between Seg 2 & 3                                                                             150                                
PGRFAMCHA080901172037172515000438DC Games 2008                                     EP: 5                                                               A6068607CCC                              
PROFAMCHA080901172515172635000120DCG EP #5 - Segment #4 - Airs Between Seg 3 & 4                                                                             150                                
PGRFAMCHA080901172635173233000558DC Games 2008                                     EP: 5                                                               A6068607CCC                              
PROFAMCHA080901173233173408000135DCG EP #5 - Segment #5 - Airs Immediately Followin                                                                          150                                
PRCFAMCHA080901173408173453000045Bratz Discover Your Passion for Fashion - Bratz PF                                                                          150                                
PRCFAMCHA080901173453173503000010Rogers Pre Paid Spot Billboard (Aug 25 - Oct 5) $$                                                                          150                                
PROFAMCHA080901173503173531000028DC Games Marathon Promo - Continues Next                                                                                    150                                
PRCFAMCHA080901173531173616000045Zellers Hannah Montana Contest (Aug 18 - Sept 14)                                                                           150                                
PROFAMCHA080901173616173628000012DCG EP #1 - Segment #1 Airs Immediately Prior Epis                                                                          150                                
PGRFAMCHA080901173628174114000446DC Games 2008                                     EP: 1                                                               A6068607CCC                              
PROFAMCHA080901174114174241000127DCG EP #1 - Segment #2 - Airs Between Seg 1 & 2                                                                             150                                
PGRFAMCHA080901174241174827000546DC Games 2008                                     EP: 1                                                               A6068607CCC                              
PROFAMCHA080901174827174930000103DCG EP #1 - Segment #3 - Airs Between Seg 2 & 3                                                                             150                                
PGRFAMCHA080901174930175436000506DC Games 2008                                     EP: 1                                                               A6068607CCC                              
PROFAMCHA080901175436175518000042DCG EP #1 - Segment #4 - Airs Between Seg 3 & 4                                                                             150                                
PGRFAMCHA080901175518180209000651DC Games 2008                                     EP: 1                                                               A6068607CCC                              
PROFAMCHA080901180209180429000220DCG EP #1 - Segment #5 - Airs Immediately Followin                                                                          150                                
PRCFAMCHA080901180429180435000006Astral ID (DEC 2007)                                                                                                        150                                
PRCFAMCHA080901180435180520000045Rogers Pre Paid Spot (Aug 25 - Oct 5) $$$                                                                                   150                                
PROFAMCHA080901180520180536000016DC Games Marathon ID - Jasmine Richards - Continue                                                                          150                                
PRCFAMCHA080901180536180621000045Bratz Girlz Really Rock DVD Contest - Available Se                                                                          150                                
PROFAMCHA080901180621180640000019DCG EP #2 - Segment #1 Airs Immediately Prior Epis                                                                          150                                
PGRFAMCHA080901180640181252000612DC Games 2008                                     EP: 2                                                               A6068607CCC                              
PROFAMCHA080901181252181442000150DCG EP #2 - Segment #2 - Airs Between Seg 1 & 2                                                                             150                                
PGRFAMCHA080901181442181913000431DC Games 2008                                     EP: 2                                                               A6068607CCC                              
PROFAMCHA080901181913182045000132DCG EP #2 - Segment #3 - Airs Between Seg 2 & 3                                                                             150                                
PGRFAMCHA080901182045182612000527DC Games 2008                                     EP: 2                                                               A6068607CCC                              
PROFAMCHA080901182612182656000044DCG EP #2 - Segment #4 - Airs Between Seg 3 & 4                                                                             150                                
PGRFAMCHA080901182656183316000620DC Games 2008                                     EP: 2                                                               A6068607CCC                              
PROFAMCHA080901183316183421000105DCG EP #2 - Segment #5 - Airs Immediately Followin                                                                          150                                
PRCFAMCHA080901183421183506000045Walmart / Cheetah Girls (Aug 19 - Sept 15) $$$                                                                              150                                
PRCFAMCHA080901183506183516000010Rogers Pre Paid Spot Billboard (Aug 25 - Oct 5) $$                                                                          150                                
PROFAMCHA080901183516183532000016DC Games Marathon ID - Selena Gomez - Continues Ne                                                                          150                                
PRCFAMCHA080901183532183617000045Bratz Discover Your Passion for Fashion - Bratz PF                                                                          150                                
PROFAMCHA080901183617183630000013DCG EP #3 - Segment #1 Airs Immediately Prior Epis                                                                          150                                
PGRFAMCHA080901183630184207000537DC Games 2008                                     EP: 3                                                               A6068607CCC                              
PROFAMCHA080901184207184402000155DCG EP #3 - Segment #2 - Airs Between Seg 1 & 2                                                                             150                                
PGRFAMCHA080901184402184939000537DC Games 2008                                     EP: 3                                                               A6068607CCC                              
PROFAMCHA080901184939185108000129DCG EP #3 - Segment #3 - Airs Between Seg 2 & 3                                                                             150                                
PGRFAMCHA080901185108185707000559DC Games 2008                                     EP: 3                                                               A6068607CCC                              
PROFAMCHA080901185707185806000059DCG EP #3 - Segment #4 - Airs Between Seg 3 & 4                                                                             150                                
PGRFAMCHA080901185806190325000519DC Games 2008                                     EP: 3                                                               A6068607CCC                              
PROFAMCHA080901190325190420000055DCG EP #3 - Segment #5 - Airs Immediately Followin                                                                          150                                
PRCFAMCHA080901190420190426000006Astral ID (DEC 2007)                                                                                                        150                                
PROFAMCHA080901190426190506000040Simple Plan Refresh Spot (Aug 30 - Sept 13) $$$                                                                             150                                
PROFAMCHA080901190506190524000018DC Games Marathon ID - Kyle Massey - Continues Nex                                                                          150                                
PRCFAMCHA080901190524190609000045Zellers Hannah Montana Contest (Aug 18 - Sept 14)                                                                           150                                
PROFAMCHA080901190609190624000015DCG EP #4 - Segment #1 Airs Immediately Prior Epis                                                                          150                                
PGRFAMCHA080901190624190945000321DC Games 2008                                     EP: 4                                                               A6068607CCC                              
PROFAMCHA080901190945191030000045DCG EP #4 - Segment #2 - Airs Between Seg 1 & 2                                                                             150                                
PGRFAMCHA080901191030191712000642DC Games 2008                                     EP: 4                                                               A6068607CCC                              
PROFAMCHA080901191712191842000130DCG EP #4 - Segment #3 - Airs Between Seg 2 & 3 (S                                                                          150                                
PGRFAMCHA080901191842192546000704DC Games 2008                                     EP: 4                                                               A6068607CCC                              
PROFAMCHA080901192546192649000103DCG EP #4 - Segment #4 - Airs Between Seg 3 & 4                                                                             150                                
PGRFAMCHA080901192649193212000523DC Games 2008                                     EP: 4                                                               A6068607CCC                              
PROFAMCHA080901193212193406000154DCG EP #4 - Segment #5 - Airs Immediately Followin                                                                          150                                
PROFAMCHA080901193406193422000016DC Games Marathon ID - Joe Jonas - Continues Next                                                                           150                                
PRCFAMCHA080901193422193507000045Rogers Pre Paid Spot (Aug 25 - Oct 5) $$$                                                                                   150                                
PROFAMCHA080901193507193538000031DCG EP #5 - Segment #1 Airs Immediately Prior Epis                                                                          150                                
PGRFAMCHA080901193538194141000603DC Games 2008                                     EP: 5                                                               A6068607CCC                              
PROFAMCHA080901194141194229000048DCG EP #5 - Segment #2 - Airs Between Seg 1 & 2                                                                             150                                
PGRFAMCHA080901194229194822000553DC Games 2008                                     EP: 5                                                               A6068607CCC                              
PROFAMCHA080901194822194946000124DCG EP #5 - Segment #3 - Airs Between Seg 2 & 3                                                                             150                                
PGRFAMCHA080901194946195424000438DC Games 2008                                     EP: 5                                                               A6068607CCC                              
PROFAMCHA080901195424195544000120DCG EP #5 - Segment #4 - Airs Between Seg 3 & 4                                                                             150                                
PGRFAMCHA080901195544200141000557DC Games 2008                                     EP: 5                                                               A6068607CCC                              
PROFAMCHA080901200141200316000135DCG EP #5 - Segment #5 - Airs Immediately Followin                                                                          150                                
PRCFAMCHA080901200316200322000006Astral ID (DEC 2007)                                                                                                        150                                
PRCFAMCHA080901200322200334000012NS - 05 - SUITE LIFE 8:00/SADIE 8:30 (:11 - :13) (                                                                          150                                
PRCFAMCHA080901200334200419000045Bratz Discover Your Passion for Fashion - Bratz PF                                                                          150                                
PRCFAMCHA080901200419200429000010Family Jams Bumper - Disco Ball  (JULY08)                                                                                   150                                
PRCFAMCHA080901200429200509000040Fly Me To The Moon - In Theatres Sept.5 (Aug 28 -                                                                           150                                
PROFAMCHA080901200509200525000016Nonstop Block Open (:16-:18) APR06                                                                                          150                                
ID FAMCHA080901200525200531000006Magic of Disney - NS/NSW/PB - Shape (:06-:09)                                                                               150                                
PRCFAMCHA080901200531200539000008CC Disclaimer - FAST - Family.ca (:09-:10)                                                                                  150                                
PGRFAMCHA080901200539202817002238Suite Life of Zack & Cody, The                    EP: 65                                                               6068607BCC                              
PRCFAMCHA080901202817202823000006Astral ID (DEC 2007)                                                                                                        150                                
PRCFAMCHA080901202823202834000011NS - 06 - N. SADIE/HANNAH M (:11 - :13) (MARCH08)                                                                           150                                
PROFAMCHA080901202834202846000012Hannah Montana IDs - (NS) Miley # 1 - Tonight @ 9p                                                                          150                                
PRCFAMCHA080901202846202931000045Rogers Pre Paid Spot (Aug 25 - Oct 5) $$$                                                                                   150                                
PROFAMCHA080901202931203001000030Cheetah Girls One World Singalong - Premieres Frid                                                                          150                                
PRCFAMCHA080901203001203013000012NS Bumper - Fashion (:12-:14) APR06                                                                                         150                                
PRCFAMCHA080901203013203022000009CC Disclaimer - FAST - Generic (:09-:10)                                                                                    150                                
PGRFAMCHA080901203022205252002230Naturally, Sadie                                  EP: 55                                                        A39177 1055607ACC3                             
PRCFAMCHA080901205252205303000011NS - 07 - HANNAH M/DEREK (:11 - :13) (MARCH08)                                                                              150                                
PROFAMCHA080901205303205337000034Hannah Montana (NS) Wig Auditions - Coming Up Next                                                                          150                                
PRCFAMCHA080901205337205422000045Zellers Hannah Montana Contest (Aug 18 - Sept 14)                                                                           150                                
PRCFAMCHA080901205422205449000027Life W D (NS) CLIP - Tonight @ 9:30pm (JULY08)                                                                              150                                
PGRFAMCHA080901205449205619000130Camp Rock - How To Be A Rockstar #2                                                                                   A60688120                                
PROFAMCHA080901205619205702000043Ned's DSSG (NS) Too Cool for School  - Tonight @ 1                                                                          150                                
PROFAMCHA080901205702205745000043Cory In The House (NS) Tonight @ 10:30pm (SEPT07)                                                                           150                                
PSAFAMCHA080901205745205815000030MS Society of Canada                                                                                                   1    130                                
PROFAMCHA080901205815205832000017Zoey 101 (NS)  ZOEY, ZOEY, ZOEY - Tomorrow Night @                                                                          150                                
PRCFAMCHA080901205832205912000040Fly Me To The Moon - In Theatres Sept.5 (Aug 28 -                                                                           150                                
PRCFAMCHA080901205912205957000045September Stunt Promo - New Eps/Popcorn Pix Friday                                                                          150                                
PRCFAMCHA080901205957210012000015NS Bumper - Tennis (:15-:17) APR06                                                                                          150                                
ID FAMCHA080901210012210020000008Magic of Disney - MAD DASH - Shape (:06-:09)                                                                                150                                
PRCFAMCHA080901210020210028000008CC Disclaimer - SLOW - Family.ca (:09-:10)                                                                                  150                                
PGRFAMCHA080901210028212305002237Hannah Montana                                    EP: 08                                                               6068807BCC                              
PRCFAMCHA080901212305212311000006Astral ID (DEC 2007)                                                                                                        150                                
PRCFAMCHA080901212311212322000011NS - 08 - DEREK/NED'S (:11 - :13) (MARCH08)                                                                                 150                                
PRCFAMCHA080901212322212400000038Life W D (NS) Edwin Mystery Man - Coming Up Next (                                                                          150                                
PRCFAMCHA080901212400212430000030Cineplex Latest Buzz Popcorn Parties Post-Launch 3                                                                          150                                
PROFAMCHA080901212430212513000043Ned's DSSG (NS) Too Cool for School  - Tonight @ 1                                                                          150                                
PSAFAMCHA080901212513212543000030MS Society of Canada                                                                                                   1    130                                
PRCFAMCHA080901212543212553000010Family First Pre Promote Tease (MD/ NS/ NSW) 3/4 P                                                                          150                                
PROFAMCHA080901212553212603000010FAMJAM - Open/Close                                                                                                         150                                
PGRFAMCHA080901212603212733000130MV Disney - (MD/NS/NSW) - Jesse McCartney - Just S                                                                     60688120                                
PROFAMCHA080901212733212747000014xxFAMJAM - Close (FAMILY) xxDNUxx                                                                                           150                                
PROFAMCHA080901212747212847000100Cory In The House - Cory vs. Sophie (NS) Tonight @                                                                          150                                
PROFAMCHA080901212847212927000040Simple Plan Refresh Spot (Aug 30 - Sept 13) $$$                                                                             150                                
PROFAMCHA080901212927213001000034Jonas Brothers Living The Dream Promo - Fridays Fo                                                                          150                                
PRCFAMCHA080901213001213008000007NS Bumper - Dodgeball (:07-:09) APR06                                                                                       150                                
PRCFAMCHA080901213008213017000009CC Disclaimer - FAST - Generic (:09-:10)                                                                                    150                                
PGRFAMCHA080901213017215247002230Life with Derek                                   EP: 01                                                        C26822 1055607BCC3                             
PRCFAMCHA080901215247215259000012NS - 09 - NEDS/CORY IN THE HOUSE (:11 - :13) (SEPT                                                                          150                                
PROFAMCHA080901215259215329000030Cheetah Girls - One World Online Streaming Availab                                                                          150                                
PROFAMCHA080901215329215412000043Ned's DSSG (NSW) Too Cool for School  - Coming Up                                                                           150                                
PROFAMCHA080901215412215507000055Disney Behind The Curtain (MD, NS, NSW) 2 x Day  (                                                                          150                                
PROFAMCHA080901215507215539000032Suite Life of Z & C (NS) IMPRESS - Tonight @ 11pm                                                                           150                                
PSAFAMCHA080901215539215609000030MS Society of Canada                                                                                                   1    130                                
PROFAMCHA080901215609215711000102Hannah Montana (NS) Mockumentry - Tomorrow Night @                                                                          150                                
PRCFAMCHA080901215711215911000200Movie Entertainment (8)                                                                                                     150                                
PRCFAMCHA080901215911215959000048Family Video Player Promo - No Tag 3/day (not in P                                                                          150                                
PRCFAMCHA080901215959220011000012NS Bumper - Fashion (:12-:14) APR06                                                                                         150                                
PRCFAMCHA080901220011220020000009CC Disclaimer - SLOW - Family.ca (:09-:10)                                                                                  150                                
PGRFAMCHA080901220020222436002416Ned's Declassified School Survival Guide          EP: 54                                                               2068807BCC                              
PRCFAMCHA080901222436222442000006Astral ID (DEC 2007)                                                                                                        150                                
PRCFAMCHA080901222442222454000012NS - 10 - CORY IN THE HOUSE/SUITE LIFE (:11 - :13)                                                                          150                                
PRCFAMCHA080901222454222539000045September Stunt Promo - New Eps/Popcorn Pix Friday                                                                          150                                
PROFAMCHA080901222539222622000043Cory In The House (NS) Coming Up Next (SEPT07)                                                                              150                                
PRCFAMCHA080901222622222652000030Cineplex Latest Buzz Popcorn Parties Post-Launch 3                                                                          150                                
PROFAMCHA080901222652222724000032Suite Life of Z & C (NS) Wonderful Hotel - Tonight                                                                          150                                
PROFAMCHA080901222724222734000010FAMJAM - Open/Close                                                                                                         150                                
PGRFAMCHA080901222734222834000100MV Disney - (MD/NS/NSW) - Jesse McCartney - Just S                                                                     60288120                                
PROFAMCHA080901222834222848000014xxFAMJAM - Close (FAMILY) xxDNUxx                                                                                           150                                
PROFAMCHA080901222848222857000009Family Bumpers - (Phase 1 Spring 04) - DJ Spinning                                                                          150                                
PSAFAMCHA080901222857222927000030MS Society of Canada                                                                                                   1    130                                
PROFAMCHA080901222927222957000030Cheetah Girls One World Singalong - Premieres Frid                                                                          150                                
PRCFAMCHA080901222957223012000015NS Bumper - Tennis (:15-:17) APR06                                                                                          150                                
ID FAMCHA080901223012223018000006Magic of Disney - NS/NSW/PB - Wipe (:06-:09)                                                                                150                                
PRCFAMCHA080901223018223026000008CC Disclaimer - SLOW - Generic (:09 -:10)                                                                                   150                                
PGRFAMCHA080901223026225304002238Cory in the House                                 EP: 10                                                               6068607BCC                              
PRCFAMCHA080901225304225316000012NS - 11 - SUITE LIFE/LIFE WITH DEREK (:11 - :13) (                                                                          150                                
PROFAMCHA080901225316225413000057Suite Life of Z & C FABULOUS LIFESTYLES (NS) Comin                                                                          150                                
PSAFAMCHA080901225413225443000030MS Society of Canada                                                                                                   1    130                                
PRCFAMCHA080901225443225510000027Life W D (NS) CLIP - Tonight @ 11:30pm (JULY08)                                                                             150                                
PRCFAMCHA080901225510225539000029Naturally Sadie - CLIP (NS) Tonight @ 12:00am (MAY                                                                          150                                
PROFAMCHA080901225539225914000335Jonas Brothers: Living The Dream Interstitial #13                                                                           150                                
PROFAMCHA080901225914225957000043Ned's DSSG (NS) Too Cool for School  - Tomorrow Ni                                                                          150                                
PRCFAMCHA080901225957230005000008NS Bumper - Dodgeball (:07-:09) APR06                                                                                       150                                
ID FAMCHA080901230005230013000008Magic of Disney - NS/NSW/PB - Shape (:06-:09)                                                                               150                                
PRCFAMCHA080901230013230022000009CC Disclaimer - SLOW - Family.ca (:09-:10)                                                                                  150                                
PGRFAMCHA080901230022232300002238Suite Life of Zack & Cody, The                    EP: 53                                                               6068607BCC                              
PRCFAMCHA080901232300232306000006Astral ID (DEC 2007)                                                                                                        150                                
PRCFAMCHA080901232306232318000012NS - 12 - LIFE WITH DEREK/SADIE (:11 - :13) (SEPT0                                                                          150                                
PRCFAMCHA080901232318232345000027Life W D (NSW) CLIP - Coming Up Next (JULY08)                                                                               150                                
PROFAMCHA080901232345232355000010FAMJAM - Open/Close                                                                                                         150                                
PGRFAMCHA080901232355232815000420MV Disney - (MD/NS/NSW) - Jesse McCartney - Just S                                                                     60688120                                
PROFAMCHA080901232815232829000014xxFAMJAM - Close (FAMILY) xxDNUxx                                                                                           150                                
PRCFAMCHA080901232829232858000029Naturally Sadie - CLIP (NS) Tonight @ 12:00am (MAY                                                                          150                                
PRCFAMCHA080901232858232946000048Family Video Player Promo - No Tag 3/day (not in P                                                                          150                                
PRCFAMCHA080901232946232959000013NS Bumper - Fashion (:12-:14) APR06                                                                                         150                                
PRCFAMCHA080901232959233007000008CC Disclaimer - SLOW - Generic (:09 -:10)                                                                                   150                                
PGRFAMCHA080901233007235237002230Life with Derek                                   EP: 20                                                        C26822 1065607BCC                              
PRCFAMCHA080901235237235250000013NS - 13 - SADIE/SADIE (:11 - :13) (SEPT07)                                                                                  150                                
PRCFAMCHA080901235250235335000045September Stunt Promo - New Eps/Popcorn Pix Friday                                                                          150                                
PRCFAMCHA080901235335235415000040Naturally Sadie - ROMANTIC (NS) Coming Up Next (MA                                                                          150                                
PROFAMCHA080901235415235510000055Disney Behind The Curtain (MD, NS, NSW) 2 x Day  (                                                                          150                                
PROFAMCHA080901235510235540000030Zoey 101 (NS) ANOTHER DAY AT PCA - Tomorrow Night                                                                           150                                
PROFAMCHA080901235540235550000010FAMJAM - Open/Close                                                                                                         150                                
PGRFAMCHA080901235550235920000330MV Disney - (MD/NS/NSW) - Jesse McCartney - Just S                                                                     60688120                                
PROFAMCHA080901235920235934000014xxFAMJAM - Close (FAMILY) xxDNUxx                                                                                           150                                
PROFAMCHA080901235934000004000030Cheetah Girls - One World Online Streaming Availab                                                                          150                                
PRCFAMCHA080901000004000020000016NS Bumper - Tennis (:15-:17) APR06                                                                                          150                                
PRCFAMCHA080901000020000029000009CC Disclaimer - SLOW - Family.ca (:09-:10)                                                                                  150                                
PGRFAMCHA080901000029002259002230Naturally, Sadie                                  EP: 51                                                        C25428 1065607ACC                              
PRCFAMCHA080901002259002305000006Astral ID (DEC 2007)                                                                                                        150                                
PRCFAMCHA080901002305002317000012NS - 14 - SADIE/HANNAH (:11 - :13) (SEPT07)                                                                                 150                                
PROFAMCHA080901002317002351000034Jonas Brothers Living The Dream Promo - Catch it o                                                                          150                                
PRCFAMCHA080901002351002420000029Naturally Sadie - CLIP (NS) Coming Up Next (MARCH0                                                                          150                                
PRCFAMCHA080901002420002620000200Movie Entertainment (8)                                                                                                     150                                
PRCFAMCHA080901002620002647000027Life W D (NS) CLIP - Tomorrow Night @ 6:30pm (JULY                                                                          150                                
PROFAMCHA080901002647002657000010FAMJAM - Open/Close                                                                                                         150                                
PGRFAMCHA080901002657002757000100MV Disney - (MD/NS/NSW) - Jesse McCartney - Just S                                                                     60688120                                
PROFAMCHA080901002757002811000014xxFAMJAM - Close (FAMILY) xxDNUxx                                                                                           150                                
PRCFAMCHA080901002811002824000013Family Jams Bumper - Guitar  (:12 -:14) (JULY08)                                                                            150                                
PROFAMCHA080901002824002921000057Suite Life of Z & C FABULOUS LIFESTYLES (NS) Tomor                                                                          150                                
PROFAMCHA080901002921002951000030Cheetah Girls One World Singalong - Premieres Frid                                                                          150                                
PRCFAMCHA080901002951002959000008NS Bumper - Dodgeball (:07-:09) APR06                                                                                       150                                
PRCFAMCHA080901002959003007000008CC Disclaimer - SLOW - Generic (:09 -:10)                                                                                   150                                
PGRFAMCHA080901003007005237002230Naturally, Sadie                                  EP: 08                                                        C24010 1065607ACC                              
PRCFAMCHA080901005237005322000045September Stunt Promo - New Eps/Popcorn Pix Friday                                                                          150                                
PROFAMCHA080901005322005351000029Hannah Montana - SUPER AWESOME (NS) Coming Up Next                                                                          150                                
PGRFAMCHA080901005351005521000130Camp Rock - How To Be A Rockstar #1                                                                                   A60688120                                
PROFAMCHA080901005521005604000043Ned's DSSG (NS) Too Cool for School  - Tomorrow Ni                                                                          150                                
PRCFAMCHA080901005604005614000010Family First Pre Promote Tease (MD/ NS/ NSW) 3/4 P                                                                          150                                
PROFAMCHA080901005614005657000043Cory In The House (NS) Tomorrow Night @ 10:30pm (S                                                                          150                                
PROFAMCHA080901005657005706000009Family Bumpers - (Phase 1 Spring 04) - Baseball (M                                                                          150                                
PRCFAMCHA080901005706005726000020Latest Buzz - SIZZLE (NS) Fridays Nights @ 6:30pm                                                                           150                                
PROFAMCHA080901005726005736000010FAMJAM - Open/Close                                                                                                         150                                
PGRFAMCHA080901005736005906000130MV Disney - (MD/NS/NSW) - Jesse McCartney - Just S                                                                     60688120                                
PROFAMCHA080901005906005920000014xxFAMJAM - Close (FAMILY) xxDNUxx                                                                                           150                                
PROFAMCHA080901005920005950000030Wizards of Waverrly Place ALEX (NS) - Friday Night                                                                          150                                
PRCFAMCHA080901005950010002000012NS Bumper - Fashion (:12-:14) APR06                                                                                         150                                
ID FAMCHA080901010002010010000008Magic of Disney - NS/NSW/PB - Shape (:06-:09)                                                                               150                                
PRCFAMCHA080901010010010019000009CC Disclaimer - SLOW - Family.ca (:09-:10)                                                                                  150                                
PGRFAMCHA080901010019012257002238Hannah Montana                                    EP: 16                                                               6068807BCC                              
PRCFAMCHA080901012257012303000006Astral ID (DEC 2007)                                                                                                        150                                
PRCFAMCHA080901012303012319000016NS Bumper - Tennis (:15-:17) APR06                                                                                          150                                
ID FAMCHA080901012319012327000008Magic of Disney - NS/NSW/PB - Wipe (:06-:09)                                                                                150                                
PRCFAMCHA080901012327012336000009CC Disclaimer - SLOW - Generic (:09 -:10)                                                                                   150                                
PGRFAMCHA080901012336014607002231Cory in the House                                 EP: 21                                                               6068607B                                
PRCFAMCHA080901014607014615000008NS Bumper - Dodgeball (:07-:09) APR06                                                                                       150                                
ID FAMCHA080901014615014623000008Magic of Disney - NS/NSW/PB - Shape (:06-:09)                                                                               150                                
PRCFAMCHA080901014623014632000009CC Disclaimer - SLOW - Family.ca (:09-:10)                                                                                  150                                
PGRFAMCHA080901014632020911002239Phil of the Future                                EPS # 01                                                             6068607BCC                              
PRCFAMCHA080901020911020917000006Astral ID (DEC 2007)                                                                                                        150                                
PRCFAMCHA080901020917020929000012NS - 18 - BOY MEETS WORLD/LIFE WITH DEREK (:11 - :                                                                          150                                
PRCFAMCHA080901020929020942000013NS Bumper - Fashion (:12-:14) APR06                                                                                         150                                
ID FAMCHA080901020942020950000008Magic of Disney - NS/NSW/PB - Wipe (:06-:09)                                                                                150                                
PRCFAMCHA080901020950020959000009CC Disclaimer - SLOW - Generic (:09 -:10)                                                                                   150                                
PGRFAMCHA080901020959023244002245Lizzie McGuire                                    EP: 1-001                                                            6068607BCC                              
PRCFAMCHA080901023244023256000012NS - 19 - LIFE WITH DEREK/CORY IN THE HOUSE (:11 -                                                                          150                                
PRCFAMCHA080901023256023312000016NS Bumper - Tennis (:15-:17) APR06                                                                                          150                                
PRCFAMCHA080901023312023321000009CC Disclaimer - SLOW - Family.ca (:09-:10)                                                                                  150                                
PGRFAMCHA080901023321025551002230Life with Derek                                   EP: 21                                                        C26822 1065607BCC                              
PRCFAMCHA080901025551025557000006Astral ID (DEC 2007)                                                                                                        150                                
PRCFAMCHA080901025557025609000012NS - 20 -CORY IN THE HOUSE/RAVEN (:11 - :13) (SEPT                                                                          150                                
PRCFAMCHA080901025609025617000008NS Bumper - Dodgeball (:07-:09) APR06                                                                                       150                                
ID FAMCHA080901025617025625000008Magic of Disney - NS/NSW/PB - Wipe (:06-:09)                                                                                150                                
PRCFAMCHA080901025625025634000009CC Disclaimer - SLOW - Generic (:09 -:10)                                                                                   150                                
PGRFAMCHA080901025634031912002238Cory in the House                                 EP: 03                                                               6068607BCC                              
PRCFAMCHA080901031912031925000013NS - 21 - RAVEN/ SUITE LIFE (:11 - :13) (SEPT07)                                                                            150                                
PRCFAMCHA080901031925031939000014NS Bumper - Fashion (:12-:14) APR06                                                                                         150                                
ID FAMCHA080901031939031945000006Magic of Disney - NS/NSW/PB - Shape (:06-:09)                                                                               150                                
OFTFAMCHA080901031945032028000043Black - Off Time due to technical difficulty - OFT                                                                                                             
PRCFAMCHA080901032028032038000010CC Disclaimer - SLOW - Family.ca (:09-:10)                                                                                  150                                
PGRFAMCHA080901032038034255002217That's So Raven                                   EPS # 1-055                                                          6068607BCC                              
PRCFAMCHA080901034255034301000006Astral ID (DEC 2007)                                                                                                        150                                
PRCFAMCHA080901034301034318000017NS Bumper - Tennis (:15-:17) APR06                                                                                          150                                
ID FAMCHA080901034318034327000009Magic of Disney - NS/NSW/PB - Wipe (:06-:09)                                                                                150                                
PRCFAMCHA080901034327034337000010CC Disclaimer - SLOW - Generic (:09 -:10)                                                                                   150                                
PGRFAMCHA080901034337040615002238Suite Life of Zack & Cody, The                    EP: 25                                                               6068607BCC                              
PRCFAMCHA080901040615040624000009NS Bumper - Dodgeball (:07-:09) APR06                                                                                       150                                
PRCFAMCHA080901040624040634000010CC Disclaimer - SLOW - Family.ca (:09-:10)                                                                                  150                                
PGRFAMCHA080901040634042905002231Life with Derek                                   EP: 04                                                        C26822 1065607BCC                              
PRCFAMCHA080901042905042911000006Astral ID (DEC 2007)                                                                                                        150                                
PROFAMCHA080901042911042942000031Mickey Mouse Clubhouse (FJR) GENERIC - This Mornin                                                                          150                                
ID FAMCHA080901042942042959000017Family Jr. Block Open (:14-:17) (JUL08)                                                                                     150                                
OFFFAMCHA080901042959043000000001OFF AIR                                                                                                                                                        
SO FAMCHA080902043000043011000011Sign On (oct 1)                                                                                                                                                
PRCFAMCHA080902043011043020000009CC Disclaimer - FAST - Family.ca (:09-:10)                                                                                  150                                
PGRFAMCHA080902043020045655002635Katie And Orbie                                   EP: 3-029                                                     C12449A1065607ECC                              
PRCFAMCHA080902045655045710000015Family Jr. Bumper - Portal (:14- :17) (JUL08)                                                                               150                                
PRCFAMCHA080902045710045719000009CC Disclaimer - FAST - Generic (:09-:10)                                                                                    150                                
PGRFAMCHA080902045719051949002230Franny's Feet                                     EPS # 36                                                      C23971 1065607ECC                              
PRCFAMCHA080902051949051955000006Astral ID (DEC 2007)                                                                                                        150                                
PRCFAMCHA080902051955052007000012Family Jr. Bumper - Music (:11- :14) (JUL08)                                                                                150                                
PRCFAMCHA080902052007052016000009CC Disclaimer - FAST - Family.ca (:09-:10)                                                                                  150                                
PGRFAMCHA080902052016054251002235The Secret World Of Benjamin Bear                 EPS # 1-002                                                   B75147 1065607ECC                              
PRCFAMCHA080902054251054302000011Family Jr. Bumper - Collide (:11- :14) (JUL08)                                                                              150                                
PRCFAMCHA080902054302054311000009CC Disclaimer - FAST - Generic (:09-:10)                                                                                    150                                
PGRFAMCHA080902054311060549002238Hoze Houndz                                       EPS # 6-066                                                   C22818A1065607ECC                              
PRCFAMCHA080902060549060555000006Astral ID (DEC 2007)                                                                                                        150                                
PRCFAMCHA080902060555060605000010Family Jr. Bumper - Acrobat (:10- :13) (JUL08)                                                                              150                                
PRCFAMCHA080902060605060613000008CC Disclaimer - FAST - Family.ca (:09-:10)                                                                                  150                                
PGRFAMCHA080902060613063017002404Henry's World                                     EPS # 2-025                                                   B81056A1065607GCC                              
PRCFAMCHA080902063017063031000014Family Jr. Bumper - Portal (:14- :17) (JUL08)                                                                               150                                
PRCFAMCHA080902063031063040000009CC Disclaimer - FAST - Generic (:09-:10)                                                                                    150                                
PGRFAMCHA080902063040065310002230King                                              EPS # 2-016                                                   B75771 1065607ECC                              
