SO FAMCHA060701043000043011000011Sign On (oct 1)                                                                                                                                                
PRCFAMCHA060701043011043020000009CC Disclaimer - FAST - Family.ca (:08-:10)                                                                                  150                                
PGRFAMCHA060701043020045424002404Henry's World                                     EPS # 2-025                                                   B81056A1065607GCC                              
PRCFAMCHA060701045424045429000005Astral ID (FEB05)                                                                                                           150                                
PRCFAMCHA060701045429045444000015PH - 01 - BEN/FRANNY/KING (SAT/SUN) (JUNE06) (:14                                                                           150                                
ID FAMCHA060701045444045457000013PS Playhouse AM Block Open (:10-:15)                                                                                        150                                
PRCFAMCHA060701045457045506000009CC Disclaimer - FAST - Generic (:08-:10)                                                                                    150                                
PGRFAMCHA060701045506051741002235The Secret World Of Benjamin Bear                 EPS # 1-009                                                   B75154A1065607ECC                              
PRCFAMCHA060701051741051756000015PH - 01 - FRANNY/KING (SAT/SUN) (JUNE06) (:14 - :1                                                                          150                                
ID FAMCHA060701051756051809000013PS Playhouse AM Block Open (:10-:15)                                                                                        150                                
PRCFAMCHA060701051809051818000009CC Disclaimer - FAST - Family.ca (:08-:10)                                                                                  150                                
PGRFAMCHA060701051818054048002230Franny's Feet                                     EPS # 34                                                      C23971 1065607ECC                              
PRCFAMCHA060701054048054053000005Astral ID (FEB05)                                                                                                           150                                
PRCFAMCHA060701054053054108000015PH - 01 - KING (SAT/SUN) (JUNE06) (:14 - :16)                                                                               150                                
ID FAMCHA060701054108054121000013PS Playhouse AM Block Open (:10-:15)                                                                                        150                                
PRCFAMCHA060701054121054130000009CC Disclaimer - FAST - Generic (:08-:10)                                                                                    150                                
PGRFAMCHA060701054130060400002230King                                              EPS # 035                                                     C25350A1065607ECC                              
PRCFAMCHA060701060400060412000012PB - 06 -  SPIDER/PR MYSTIC FORCE (JUNE06) (:11-:1                                                                          150                                
PROFAMCHA060701060412060425000013xxPower Box Block Open (:10-:15)                                                                                            150                                
PGRFAMCHA060701060425062606002141Spiderman                                         EP: 09                                                        C02618 1065607E                                
PRCFAMCHA060701062606062611000005Astral ID (FEB05)                                                                                                           150                                
PRCFAMCHA060701062611062623000012PB - 05 -  PR MYSTIC FORCE/SUPER ROBOT MONKEY (JUN                                                                          150                                
PROFAMCHA060701062623062644000021xxPower Rangers - Mystic Force - NICE Coming Up Ne                                                                          150                                
PROFAMCHA060701062644062714000030xxSuper Robot MTHG - Today @ 6:55am                                                                                         150                                
PGRFAMCHA060701062714062806000052xxPlanet Rock Profiles - Green Day (Grade 5) xxDNUEP: 46                                                              A70687120                                
PRCFAMCHA060701062806062836000030xxPsychedelic Summer Stunt #1 (MMM, MD, NS, NSW) T                                                                          150                                
PRCFAMCHA060701062836062846000010xxPsychedelic Summer Billboard (JUNE ) July 1 - 6                                                                           150                                
PROFAMCHA060701062846062900000014xxPower Box Block Open (:10-:15)                                                                                            150                                
PGRFAMCHA060701062900065138002238Power Rangers:  Mystic Force                      EP: 04                                                               2068607E                                
PRCFAMCHA060701065138065153000015PB - 03 - ROBOT/W.I.T.C.H./LIZZIE (NOV05) (:14 - :                                                                          150                                
PROFAMCHA060701065153065223000030xxSuper Robot MTHG - Coming Up Next                                                                                         150                                
PROFAMCHA060701065223065232000009xxFamily Bumpers - (Phase 1 Spring 04) - Baseball                                                                           150                                
PROFAMCHA060701065232065302000030xxWITCH (PB) (APR06) - Today @ 7:20am                                                                                       150                                
PRCFAMCHA060701065302065325000023Life with Derek ID - You're Watching - In It Toget                                                                          150                                
PROFAMCHA060701065325065346000021xxPower Rangers - Mystic Force - ICED Tomorrow mor                                                                          150                                
PROFAMCHA060701065346065400000014xxPower Box Block Open (:10-:15)                                                                                            150                                
PGRFAMCHA060701065400071529002129Super Robot Monkey Team Hyperforce Go!            EP: 35                                                               2068607E                                
PRCFAMCHA060701071529071534000005Astral ID (FEB05)                                                                                                           150                                
PRCFAMCHA060701071534071548000014PB - 04 - W.I.T.C.H./LIZZIE/SUITE (NOV05) (:14 - :                                                                          150                                
PRCFAMCHA060701071548071628000040xxPsychedelic Summer Chill Event (1xMMM 1xMD 2xNS                                                                           150                                
PROFAMCHA060701071628071658000030xxWITCH (PB) (APR06) - Coming Up Next                                                                                       150                                
PROFAMCHA060701071658071708000010FAMJAM - Open/Close                                                                                                         150                                
PGRFAMCHA060701071708071838000130MV Disney - (MD/NSW) - Get Your Shine On (Jesse Mc                                                                     60688120                                
PROFAMCHA060701071838071852000014xxFAMJAM - Close (FAMILY) xxDNUxx                                                                                           150                                
PROFAMCHA060701071852071922000030Lizzie McGuire - (Romeo) (APR06) (NSW/AM) - This M                                                                          150                                
PRCFAMCHA060701071922071952000030xxPsychedelic Summer Stunt #1 (MMM, MD, NS, NSW) T                                                                          150                                
PROFAMCHA060701071952072004000012xxPower Box Block Open (:10-:15)                                                                                            150                                
PGRFAMCHA060701072004074147002143W.I.T.C.H.                                        EP: 32                                                               2068607E                                
PRCFAMCHA060701074147074200000013NSW - 02 - LIZZIE/SUITE (APR06) (:11 - 13) (                                                                                150                                
PROFAMCHA060701074200074227000027Lizzie McGuire - (Bad Breath) (NSW) (APR06) - Comi                                                                          150                                
PRCFAMCHA060701074227074327000100xxPsychedelic Summer CONTEST (1xMMM 1xMD 2NS - 4NS                                                                          150                                
PROFAMCHA060701074327074357000030xxSuite Life of Z & C - NSW (JULY 06) GIRLFRIEND 2                                                                          150                                
PROFAMCHA060701074357074435000038xxHilary Duff HOB Contest (June 23-July 6) 5/Day i                                                                          150                                
PROFAMCHA060701074435074445000010FAMJAM - Open/Close                                                                                                         150                                
PGRFAMCHA060701074445074700000215MV Disney - (FAMILY HITS 2) - Cinderella - Cheetah                                                                     60688120                                
PROFAMCHA060701074700074714000014xxFAMJAM - Close (FAMILY) xxDNUxx                                                                                           150                                
PROFAMCHA060701074714074741000027Zoey 101 - LOGAN - NSW (MAY06) (may13-aug30) This                                                                           150                                
PROFAMCHA060701074741074759000018Nonstop Weekend Block Open (:16-:18) APR06                                                                                  150                                
ID FAMCHA060701074759074807000008Magic of Disney - NS/NSW/PB - Shape (:06-:09)                                                                               150                                
PRCFAMCHA060701074807074816000009CC Disclaimer - FAST - Family.ca (:08-:10)                                                                                  150                                
PGRFAMCHA060701074816081047002231Lizzie McGuire                                    EP: 2-015                                                           A6068607BCC                              
PRCFAMCHA060701081047081052000005Astral ID (FEB05)                                                                                                           150                                
PRCFAMCHA060701081052081104000012NSW - 03 - SUITE/ZOEY (APR06) (:11 - 13)                                                                                    150                                
PROFAMCHA060701081104081123000019Suite Life of Z & C - NSW (JULY 06) MEDITATE - Com                                                                          150                                
PRCFAMCHA060701081123081144000021xxPsychedelic Summer Web #2 ( 1xMMM 1xMD 1xNS, 1xN                                                                          150                                
PROFAMCHA060701081144081228000044xxZoey 101 - PHONE (NSW) (APR06) - This Morning @                                                                           150                                
PGRFAMCHA060701081228081327000059xxPlanet Rock Profiles - Beyonce (Solo) xxDNUxx   EP: 46                                                              A70687120                                
PROFAMCHA060701081327081347000020xxThat's So Raven (JUNE06) NO PANTS (NSW) - This m                                                                          150                                
PROFAMCHA060701081347081417000030Leroy and Stitch DVD Blast Available Now (June 27-                                                                          150                                
PRCFAMCHA060701081417081447000030xxLife WD - Dinnertime Tonight @ 7:50 NSW                                                                                   150                                
PRCFAMCHA060701081447081500000013NSW Bumper - Fashion (:12-:14) JUNE06 xxDNUxx                                                                               150                                
PGRFAMCHA060701081500083739002239Suite Life of Zack & Cody, The                    EP: 10                                                               6068607B                                
PRCFAMCHA060701083739083752000013NSW - 04 - ZOEY/RAVEN (APR06) (:11 - 13)                                                                                    150                                
PRCFAMCHA060701083752083822000030xxPsychedelic Summer Stunt #1 (MMM, MD, NS, NSW) T                                                                          150                                
PRCFAMCHA060701083822083832000010xxPsychedelic Summer Billboard (JUNE ) July 1 - 6                                                                           150                                
PROFAMCHA060701083832083859000027Zoey 101 - LOGAN - NSW (MAY06) (may13-aug30) Comin                                                                          150                                
PROFAMCHA060701083859083908000009Family Bumpers - (Phase 1 Spring 04) - DJ Spinning                                                                          150                                
PROFAMCHA060701083908083918000010FAMJAM - Open/Close                                                                                                         150                                
PGRFAMCHA060701083918084048000130MV Disney - (MD/NS/NSW) - Karaoke Song (HIGH SCHOO                                                                     60688120                                
PROFAMCHA060701084048084102000014xxFAMJAM - Close (FAMILY) xxDNUxx                                                                                           150                                
PROFAMCHA060701084102084154000052That's So Raven (JUNE06) SHOW ME (NSW) - This morn                                                                          150                                
PRCFAMCHA060701084154084213000019Life WD Derek Bloopers #8 (MD/NS/NSW)                                                                                       150                                
PROFAMCHA060701084213084243000030Phil of the Future THINGS TO COME (NSW) (APR06) -                                                                           150                                
PRCFAMCHA060701084243084300000017NSW Bumper - Tennis (:15-:17) APR06                                                                                         150                                
PRCFAMCHA060701084300084309000009CC Disclaimer - FAST - Generic (:08-:10)                                                                                    150                                
PGRFAMCHA060701084309090641002332Zoey 101                                          EP: 22                                                              A2068807BCC                              
PRCFAMCHA060701090641090646000005Astral ID (FEB05)                                                                                                           150                                
PRCFAMCHA060701090646090658000012NSW - 05 - RAVEN/PHIL (APR06) (:11 - 13)                                                                                    150                                
PRCFAMCHA060701090658090738000040xxPsychedelic Summer Chill Event (1xMMM 1xMD 2xNS                                                                           150                                
PROFAMCHA060701090738090758000020xxThat's So Raven (JUNE06) NO PANTS (NSW) - Coming                                                                          150                                
PROFAMCHA060701090758090828000030Leroy and Stitch DVD Blast Available Now (June 27-                                                                          150                                
PROFAMCHA060701090828090858000030Phil of the Future THINGS TO COME (NSW) (APR06) -                                                                           150                                
PROFAMCHA060701090858090908000010FAMJAM - Open/Close                                                                                                         150                                
PGRFAMCHA060701090908091038000130MV Disney - (MD//NSNSW) - Walking On Sunshine (Aly                                                                     60688120                                
PROFAMCHA060701091038091052000014xxFAMJAM - Close (FAMILY) xxDNUxx                                                                                           150                                
PROFAMCHA060701091052091123000031Even Stevens - Swing (APR06) - (NSW) - This Morn @                                                                          150                                
PRCFAMCHA060701091123091153000030xxDarcy's Wild Life (NEWS) NSW (APR06) - Tonight @                                                                          150                                
PRCFAMCHA060701091153091200000007NSW Bumper - Dodgeball (:07-:09) APR06                                                                                      150                                
PGRFAMCHA060701091200093436002236That's So Raven                                   EP: 72                                                               6068607B                                
PRCFAMCHA060701093436093448000012NSW - 06 - PHIL/EVEN (APR06) (:11 - 13)                                                                                     150                                
PRCFAMCHA060701093448093518000030xxPsychedelic Summer Stunt #1 (MMM, MD, NS, NSW) T                                                                          150                                
PROFAMCHA060701093518093548000030Phil of the Future THINGS TO COME (NSW) (APR06) -                                                                           150                                
PROFAMCHA060701093548093626000038xxHilary Duff HOB Contest (June 23-July 6) 5/Day i                                                                          150                                
PROFAMCHA060701093626093700000034Even Stevens - Bad Boys (APR06) - (NSW) - This Mor                                                                          150                                
PROFAMCHA060701093700093710000010FAMJAM - Open/Close                                                                                                         150                                
PGRFAMCHA060701093710093940000230MV Disney - (FAMILY HITS 2) - Girl Power (Cheetah                                                                      60688120                                
PROFAMCHA060701093940093954000014xxFAMJAM - Close (FAMILY) xxDNUxx                                                                                           150                                
PROFAMCHA060701093954094014000020xxNed's DSSG - Drum Roll (JUNE06) NSW This Morn @                                                                           150                                
PROFAMCHA060701094014094041000027Aly & A.J. Faves and Funnies - Fave Vacay (JUNE/JU                                                                          150                                
PROFAMCHA060701094041094047000006Phil of the Future IDs - Check out Phil..Coming Up                                                                          150                                
PRCFAMCHA060701094047094100000013NSW Bumper - Fashion (:12-:14) JUNE06 xxDNUxx                                                                               150                                
PGRFAMCHA060701094100100339002239Phil of the Future Yr 2                           EP: 38                                                               6068607B                                
PRCFAMCHA060701100339100344000005Astral ID (FEB05)                                                                                                           150                                
PRCFAMCHA060701100344100355000011NSW - 07 - EVEN/BMW (APR06) (:11 - 13)                                                                                      150                                
PRCFAMCHA060701100355100435000040xxPsychedelic Summer Chill Event (1xMMM 1xMD 2xNS                                                                           150                                
PROFAMCHA060701100435100506000031Even Stevens - Swing (APR06) - (NSW) - Coming Up N                                                                          150                                
PRCFAMCHA060701100506100535000029Life With Derek Web Promo                                                                                                   150                                
PROFAMCHA060701100535100558000023xxNed's DSSG - Doggy Munch (JUNE06) NSW This Morn                                                                           150                                
PROFAMCHA060701100558100608000010FAMJAM - Open/Close                                                                                                         150                                
PGRFAMCHA060701100608100847000239MV Disney - Come Clean (Hillary Duff)                                                                                  60688120                                
PROFAMCHA060701100847100901000014xxFAMJAM - Close (FAMILY) xxDNUxx                                                                                           150                                
PROFAMCHA060701100901100931000030Double Teamed (SEPT12) - Next Friday @ 7:30pm                                                                               150                                
PROFAMCHA060701100931100951000020xxThat's So Raven (JUNE06) NO PANTS (NSW) - Tonigh                                                                          150                                
PRCFAMCHA060701100951101006000015NSW Bumper - Tennis (:15-:17) APR06                                                                                         150                                
ID FAMCHA060701101006101014000008Magic of Disney - NS/NSW/PB - Wipe (:06-:09)                                                                                150                                
PRCFAMCHA060701101014101023000009CC Disclaimer - FAST - Family.ca (:08-:10)                                                                                  150                                
PGRFAMCHA060701101023103242002219Even Stevens                                      EP: 3-052                                                           A6068807BCC                              
PRCFAMCHA060701103242103254000012NSW - 08 - BMW/NEDS (APR06) (:11 - 13)                                                                                      150                                
PROFAMCHA060701103254103324000030Double Teamed (SEPT12) - Next Friday @ 7:30pm                                                                               150                                
PROFAMCHA060701103324103344000020xxNed's DSSG - Drum Roll (JUNE06) NSW This Morn @                                                                           150                                
PROFAMCHA060701103344103354000010FAMJAM - Open/Close                                                                                                         150                                
PGRFAMCHA060701103354103658000304MV Disney - (MD/NS/NSW) - Why Not (HILARY DUFF)                                                                        60688120                                
PROFAMCHA060701103658103712000014xxFAMJAM - Close (FAMILY) xxDNUxx                                                                                           150                                
PRCFAMCHA060701103712103742000030xxPsychedelic Summer Stunt #1 (MMM, MD, NS, NSW) T                                                                          150                                
PRCFAMCHA060701103742103752000010xxPsychedelic Summer Billboard (JUNE ) July 1 - 6                                                                           150                                
PRCFAMCHA060701103752103800000008NSW Bumper - Dodgeball (:07-:09) APR06                                                                                      150                                
PRCFAMCHA060701103800103809000009CC Disclaimer - FAST - Generic (:08-:10)                                                                                    150                                
PGRFAMCHA060701103809110103002254Boy Meets World                                   EP: 1-024                                                           B6068807BCC                              
PRCFAMCHA060701110103110108000005Astral ID (FEB05)                                                                                                           150                                
PRCFAMCHA060701110108110120000012NSW - 09 - NEDS/BROTHERLY (APR06) (:11 - 13)                                                                                150                                
PROFAMCHA060701110120110143000023xxNed's DSSG - Doggy Munch (JUNE06) NSW Coming Up                                                                           150                                
PROFAMCHA060701110143110155000012xxFamily Bumpers - (Phase 1 Spring 04) - Picnic (M                                                                          150                                
PROFAMCHA060701110155110205000010FAMJAM - Open/Close                                                                                                         150                                
PGRFAMCHA060701110205110305000100MV Disney - (MD/NSW) - I Can't Wait (HILARY DUFF)                                                                      60688120                                
PROFAMCHA060701110305110319000014xxFAMJAM - Close (FAMILY) xxDNUxx                                                                                           150                                
PROFAMCHA060701110319110357000038xxBrotherly Love (JULY06) Mambo Mama NSW - This mo                                                                          150                                
PRCFAMCHA060701110357110416000019Life WD Derek Bloopers #5 (MD/NS/NSW)                                                                                       150                                
PROFAMCHA060701110416110447000031Smart Guy FIGHT (JUNE06) NSW - This afternnoon @ 3                                                                          150                                
PRCFAMCHA060701110447110500000013NSW Bumper - Fashion (:12-:14) JUNE06 xxDNUxx                                                                               150                                
PGRFAMCHA060701110500112916002416Ned's Declassified School Survival Guide          EP: 23                                                               2068807B                                
PRCFAMCHA060701112916112927000011xxNSW - 10 - BROTHERLY/WDP (APR06) (:11 - 13)                                                                               150                                
PRCFAMCHA060701112927112957000030xxPsychedelic Summer Stunt #1 (MMM, MD, NS, NSW) T                                                                          150                                
PROFAMCHA060701112957113027000030xxBrotherly Love (JULY06) Psychoanalysis NSW - Com                                                                          150                                
PROFAMCHA060701113027113105000038xxHilary Duff HOB Contest (June 23-July 6) 5/Day i                                                                          150                                
PROFAMCHA060701113105113135000030xxSmart Guy MOE MUSIC (JUNE06) NSW This afternoon                                                                           150                                
PROFAMCHA060701113135113202000027Lizzie McGuire - (Bad Breath) (NSW) (APR06) - This                                                                          150                                
PGRFAMCHA060701113202113315000113xxPlanet Rock Profiles - Alicia Keys xxDNUxx      EP: 46                                                              A70687120                                
PROFAMCHA060701113315113345000030xxSuite Life of Z & C - NSW (JULY 06) GIRLFRIEND 2                                                                          150                                
PRCFAMCHA060701113345113400000015NSW Bumper - Tennis (:15-:17) APR06                                                                                         150                                
PRCFAMCHA060701113400113409000009CC Disclaimer - FAST - Family.ca (:08-:10)                                                                                  150                                
PGRFAMCHA060701113409115631002222Brotherly Love                                    EPS # 21                                                             6068807B                                
PRCFAMCHA060701115631115636000005Astral ID (FEB05)                                                                                                           150                                
PROFAMCHA060701115636115707000031Smart Guy FIGHT (JUNE06) NSW - This afternnoon @ 3                                                                          150                                
PROFAMCHA060701115707115737000030Leroy and Stitch DVD Blast Available Now (June 27-                                                                          150                                
PROFAMCHA060701115737115756000019Suite Life of Z & C - NSW (JULY 06) MEDITATE - Thi                                                                          150                                
PGRFAMCHA060701115756115908000112xxPlanet Rock Profiles - Nelly Furtado (School) xxEP: 46                                                              A70687120                                
PROFAMCHA060701115908115938000030Phil of the Future THINGS TO COME (NSW) (APR06) -                                                                           150                                
ID FAMCHA060701115938115958000020Popcorn Pix Block Open (JUNE 06) (:18-:20)                                                                                  150                                
ID FAMCHA060701115958120007000009Rating - PG - (DEC05) (:08 - :10)                                                                                           150                                
PRCFAMCHA060701120007120016000009CC Disclaimer - FAST - Generic (:08-:10)                                                                                    150                                
PGRFAMCHA060701120016133037013021Rudy                                                                                                                   2068807DCC                              
PROFAMCHA060701133037133053000016Nonstop Weekend - 17(SEP) - WDP MOVIE (:14-:16)                                                                             150                                
ID FAMCHA060701133053133113000020Popcorn Pix Block Open (JUNE 06) (:18-:20)                                                                                  150                                
ID FAMCHA060701133113133122000009Rating - G - (DEC05) (:08 - :10)                                                                                            150                                
ID FAMCHA060701133122133130000008Magic of Disney - PIX - Wipe (:06-:09)                                                                                      150                                
PRCFAMCHA060701133130133135000005Astral ID (FEB05)                                                                                                           150                                
PGRFAMCHA060701133135150051012916Buffalo Dreams                                                                                                        B6068807C                                
PRCFAMCHA060701150051150103000012NSW - 12 -SMART/LIZZIE (APR06) (:11 - :13)                                                                                  150                                
PROFAMCHA060701150103150120000017Nonstop Weekend Block Open (:16-:18) APR06                                                                                  150                                
PRCFAMCHA060701150120150129000009CC Disclaimer - FAST - Family.ca (:08-:10)                                                                                  150                                
PGRFAMCHA060701150129152356002227Smart Guy                                         EP: 1-004                                                           A6068807BCC                              
PRCFAMCHA060701152356152408000012NSW - 13 -LIZZIE/SUITE (APR06) (:11 - :13)                                                                                  150                                
PRCFAMCHA060701152408152416000008NSW Bumper - Dodgeball (:07-:09) APR06                                                                                      150                                
ID FAMCHA060701152416152424000008Magic of Disney - NS/NSW/PB - Shape (:06-:09)                                                                               150                                
PGRFAMCHA060701152424154659002235Lizzie McGuire                                    EP: 1-026                                                           A6068607B                                
PRCFAMCHA060701154659154704000005Astral ID (FEB05)                                                                                                           150                                
PRCFAMCHA060701154704154716000012NSW - 14 -SUITE/PROUD (APR06) (:11 - :13)                                                                                   150                                
PROFAMCHA060701154716154735000019Suite Life of Z & C - NSW (JULY 06) MEDITATE - Com                                                                          150                                
PROFAMCHA060701154735154805000030Leroy and Stitch DVD Blast Available Now (June 27-                                                                          150                                
PROFAMCHA060701154805154854000049Proud Family (APR06) STRIKE (NSW) - This Afternoon                                                                          150                                
PGRFAMCHA060701154854155006000112xxPlanet Rock Profiles - Jewel (Lilith) xxDNUxx xxEP: 46                                                              A70687120                                
PRCFAMCHA060701155006155036000030xxPsychedelic Summer Stunt #1 (MMM, MD, NS, NSW) T                                                                          150                                
PRCFAMCHA060701155036155046000010xxPsychedelic Summer Billboard (JUNE ) July 1 - 6                                                                           150                                
PRCFAMCHA060701155046155100000014NSW Bumper - Fashion (:12-:14) JUNE06 xxDNUxx                                                                               150                                
PGRFAMCHA060701155100161339002239Suite Life of Zack & Cody, The                    EP: 08                                                               6068607B                                
PRCFAMCHA060701161339161352000013NSW - 15 - PROUD/EMPEROR (MAY06) (:11 - :13)                                                                                150                                
PRCFAMCHA060701161352161432000040xxPsychedelic Summer Chill Event (1xMMM 1xMD 2xNS                                                                           150                                
PROFAMCHA060701161432161521000049Proud Family (APR06) STRIKE (NSW) - Coming Up Next                                                                          150                                
PROFAMCHA060701161521161546000025Aly & A.J. Faves and Funnies - Fave Band (JUNE/JUL                                                                          150                                
PROFAMCHA060701161546161602000016Emperor's New School KOOKOO - NSW - This afternoon                                                                          150                                
PGRFAMCHA060701161602161711000109xxPlanet Rock Profiles - Craig David (Studio) xxDNEP: 46                                                              A70687120                                
PROFAMCHA060701161711161743000032Kim Possible RON FACTOR (NSW) (July 06) This after                                                                          150                                
PRCFAMCHA060701161743161800000017NSW Bumper - Tennis (:15-:17) APR06                                                                                         150                                
PRCFAMCHA060701161800161809000009CC Disclaimer - FAST - Generic (:08-:10)                                                                                    150                                
PGRFAMCHA060701161809164027002218The Proud Family                                  EP: 1-017                                                           A6068607ECC                              
PRCFAMCHA060701164027164032000005Astral ID (FEB05)                                                                                                           150                                
PRCFAMCHA060701164032164045000013NSW - 16 - EMPEROR/KIM (MAY06) (:11 - :13)                                                                                  150                                
PROFAMCHA060701164045164101000016Emperor's New School KOOKOO - NSW - Coming UP Next                                                                          150                                
PRCFAMCHA060701164101164201000100xxPsychedelic Summer CONTEST (1xMMM 1xMD 2NS - 4NS                                                                          150                                
PRCFAMCHA060701164201164210000009xxFamily Bumpers - (Phase 1 Spring 04) - Soccer (M                                                                          150                                
PROFAMCHA060701164210164226000016Kim Possible FINGER TAUNT (NSW) (July 06) This aft                                                                          150                                
PROFAMCHA060701164226164236000010FAMJAM - Open/Close                                                                                                         150                                
PGRFAMCHA060701164236164406000130MV Disney - Huckaroo (Pixel Perfect)                                                                                   60688120                                
PROFAMCHA060701164406164420000014xxFAMJAM - Close (FAMILY) xxDNUxx                                                                                           150                                
PROFAMCHA060701164420164447000027Lizzie McGuire - (Bad Breath) (NSW) (APR06) - Tomo                                                                          150                                
PRCFAMCHA060701164447164456000009NSW Bumper - Dodgeball (:07-:09) APR06                                                                                      150                                
PGRFAMCHA060701164456170732002236Disney's The Emperor's New School                 EP: 05                                                               6068807E                                
PRCFAMCHA060701170732170745000013NSW - 17 - KIM/PHIL (APR06) (:11 - :13)                                                                                     150                                
PROFAMCHA060701170745170817000032Kim Possible RON FACTOR (NSW) (July 06) Coming Up                                                                           150                                
PROFAMCHA060701170817170847000030Phil of the Future THINGS TO COME (NSW) (APR06) -                                                                           150                                
PROFAMCHA060701170847170857000010FAMJAM - Open/Close                                                                                                         150                                
PGRFAMCHA060701170857171027000130MV Disney - (MD/NS/NSW) - Get'cha Head In The Game                                                                     60688120                                
PROFAMCHA060701171027171041000014xxFAMJAM - Close (FAMILY) xxDNUxx                                                                                           150                                
PRCFAMCHA060701171041171105000024Life WD Derek  Watch for Derek ID #1- Derek -Its c                                                                          150                                
PRCFAMCHA060701171105171135000030xxPsychedelic Summer Stunt #1 (MMM, MD, NS, NSW) T                                                                          150                                
PRCFAMCHA060701171135171145000010xxPsychedelic Summer Billboard (JUNE ) July 1 - 6                                                                           150                                
PRCFAMCHA060701171145171159000014NSW Bumper - Fashion (:12-:14) JUNE06 xxDNUxx                                                                               150                                
PGRFAMCHA060701171159173452002253Disney's Kim Possible                             EP: 1-059                                                            6068607E                                
PRCFAMCHA060701173452173457000005Astral ID (FEB05)                                                                                                           150                                
PRCFAMCHA060701173457173508000011NSW - 18 - PHIL/SADIE (APR06) (:11 - :13)                                                                                   150                                
PRCFAMCHA060701173508173538000030xxPsychedelic Summer Stunt #1 (MMM, MD, NS, NSW) T                                                                          150                                
PROFAMCHA060701173538173608000030Phil of the Future THINGS TO COME (NSW) (APR06) -                                                                           150                                
PRCFAMCHA060701173608173648000040Naturally Sadie (APR06) - Tonight @ 6:05pm                                                                                  150                                
PGRFAMCHA060701173648173809000121Planet Rock Profiles - Michelle Branch - First GigEP: 46                                                              A70687120                                
PRCFAMCHA060701173809173839000030xxDarcy's Wild Life (NEWS) NSW (APR06) - Tonight @                                                                          150                                
PROFAMCHA060701173839173846000007Phil of the Future IDs - I'm Ricky Ullman, stay tu                                                                          150                                
PRCFAMCHA060701173846173901000015NSW Bumper - Tennis (:15-:17) APR06                                                                                         150                                
PGRFAMCHA060701173901180140002239Phil of the Future                                EPS # 11                                                             6068607B                                
PRCFAMCHA060701180140180153000013NSW - 19 - SADIE/DARCY (APR06) (:11 - :13)                                                                                  150                                
PRCFAMCHA060701180153180233000040Naturally Sadie (APR06) - Coming Up Next                                                                                    150                                
PROFAMCHA060701180233180311000038xxHilary Duff HOB Contest (June 23-July 6) 5/Day i                                                                          150                                
PROFAMCHA060701180311180320000009xxFamily Bumpers - (Phase 2 F/W 04) - Skateboard (                                                                          150                                
PRCFAMCHA060701180320180350000030xxDarcy's Wild Life (NEWS) NSW (APR06) - Tonight @                                                                          150                                
PGRFAMCHA060701180350180450000100xxPlanet Rock Profiles - Green Day (Hype) xxDNUxx EP: 46                                                              A70687120                                
PROFAMCHA060701180450180542000052That's So Raven (JUNE06) SHOW ME (NSW) - Tonight @                                                                          150                                
PRCFAMCHA060701180542180551000009Naturally Sadie ID's - Check out Naturally Sadie N                                                                          150                                
PRCFAMCHA060701180551180600000009NSW Bumper - Dodgeball (:07-:09) APR06                                                                                      150                                
PRCFAMCHA060701180600180609000009CC Disclaimer - FAST - Family.ca (:08-:10)                                                                                  150                                
PGRFAMCHA060701180609182839002230Naturally, Sadie                                  EP: 24                                                        C24010 1055607ACC                              
PRCFAMCHA060701182839182844000005Astral ID (FEB05)                                                                                                           150                                
PRCFAMCHA060701182844182857000013NSW - 20 - DARCY/RAVEN (APR06) (:11 - :13)                                                                                  150                                
PRCFAMCHA060701182857182927000030xxDarcy's Wild Life (NEWS) NSW (APR06) - Coming Up                                                                          150                                
PROFAMCHA060701182927182947000020xxThat's So Raven (JUNE06) NO PANTS (NSW) - Tonigh                                                                          150                                
PROFAMCHA060701182947182956000009Family Bumpers - (Phase 3 Spring 05) - Giant Food(                                                                          150                                
PROFAMCHA060701182956183006000010FAMJAM - Open/Close                                                                                                         150                                
PGRFAMCHA060701183006183136000130MV Disney - Superstition (Raven)                                                                                       60688120                                
PROFAMCHA060701183136183150000014xxFAMJAM - Close (FAMILY) xxDNUxx                                                                                           150                                
PRCFAMCHA060701183150183220000030xxPsychedelic Summer Stunt #1 (MMM, MD, NS, NSW) T                                                                          150                                
PRCFAMCHA060701183220183230000010xxPsychedelic Summer Billboard (JUNE ) July 1 - 6                                                                           150                                
PRCFAMCHA060701183230183240000010Darcy's IDs - Jack - Nonstop animal fun...next                                                                              150                                
PRCFAMCHA060701183240183254000014NSW Bumper - Fashion (:12-:14) JUNE06 xxDNUxx                                                                               150                                
PRCFAMCHA060701183254183303000009CC Disclaimer - FAST - Generic (:08-:10)                                                                                    150                                
PGRFAMCHA060701183303185432002129Darcy's Wild Life                                 EP: 26                                                        A23415A1065607BCC                              
PRCFAMCHA060701185432185444000012NSW - 21 - RAVEN/ZOEY (MAY06) (:11 - :13)                                                                                   150                                
PRCFAMCHA060701185444185514000030xxPsychedelic Summer Stunt #1 (MMM, MD, NS, NSW) T                                                                          150                                
PROFAMCHA060701185514185606000052That's So Raven (JUNE06) SHOW ME (NSW) - Coming Up                                                                          150                                
PROFAMCHA060701185606185644000038xxHilary Duff HOB Contest (June 23-July 6) 5/Day i                                                                          150                                
PRCFAMCHA060701185644185714000030xxLife WD - Housecleaning Tonight @ 7:50 NSW                                                                                150                                
PROFAMCHA060701185714185724000010FAMJAM - Open/Close                                                                                                         150                                
PGRFAMCHA060701185724185854000130MV Disney - (FAMILY HITS) That's So Raven Theme So                                                                     60688120                                
PROFAMCHA060701185854185908000014xxFAMJAM - Close (FAMILY) xxDNUxx                                                                                           150                                
PRCFAMCHA060701185908185945000037Movie Entertainment - Tonight @ 8:40pm (APR 06)                                                                             150                                
PRCFAMCHA060701185945190000000015NSW Bumper - Tennis (:15-:17) APR06                                                                                         150                                
PRCFAMCHA060701190000190009000009CC Disclaimer - FAST - Family.ca (:08-:10)                                                                                  150                                
PGRFAMCHA060701190009192249002240That's So Raven                                   EP: 1-010                                                            6068607B                                
PRCFAMCHA060701192249192254000005Astral ID (FEB05)                                                                                                           150                                
PRCFAMCHA060701192254192305000011NSW - 22 - ZOEY/DEREK (MAY06) (:11 - :13)                                                                                   150                                
PROFAMCHA060701192305192349000044xxZoey 101 - PHONE (NSW) (APR06) - Coming Up Next                                                                           150                                
PRCFAMCHA060701192349192424000035xxPsychedelic Summer Web #3 ( 1xMMM 1xMD 1xNS, 1xN                                                                          150                                
PRCFAMCHA060701192424192454000030xxLife WD - Dinnertime Tonight @ 7:50 NSW                                                                                   150                                
PRCFAMCHA060701192454192501000007NSW Bumper - Dodgeball (:07-:09) APR06                                                                                      150                                
PRCFAMCHA060701192501192510000009CC Disclaimer - FAST - Generic (:08-:10)                                                                                    150                                
PGRFAMCHA060701192510194835002325Zoey 101 Season 2                                 EP: 15                                                              A2068807BCC                              
PRCFAMCHA060701194835194846000011NSW - 23 - DEREK/8 SIMPLE (APR06) (:11 - :13)                                                                               150                                
PROFAMCHA060701194846194916000030Leroy and Stitch DVD Blast Available Now (June 27-                                                                          150                                
PRCFAMCHA060701194916194929000013NSW Bumper - Fashion (:12-:14) JUNE06 xxDNUxx                                                                               150                                
PRCFAMCHA060701194929194938000009CC Disclaimer - FAST - Family.ca (:08-:10)                                                                                  150                                
PGRFAMCHA060701194938201208002230Life With Derek                                   EP: 13                                                        C23968A1055607BCC3                             
PRCFAMCHA060701201208201213000005Astral ID (FEB05)                                                                                                           150                                
PRCFAMCHA060701201213201225000012xxNSW - 24 - 8 SIMPLE/MOVIE (APR06) (:11 - :13)                                                                             150                                
PROFAMCHA0607012012252012400000158 Simple Rules (JUN06) (NSW) PROFILES - Tonight @                                                                           150                                
PRCFAMCHA060701201240201309000029Life With Derek Web Promo                                                                                                   150                                
PRCFAMCHA060701201309201346000037Movie Entertainment - Tonight @ 8:40pm (APR 06)                                                                             150                                
PRCFAMCHA060701201346201404000018Life WD Derek Bloopers #3 (MD/NS/NSW)                                                                                       150                                
PRCFAMCHA060701201404201434000030xxPsychedelic Summer Stunt #1 (MMM, MD, NS, NSW) T                                                                          150                                
PRCFAMCHA060701201434201444000010xxPsychedelic Summer Billboard (JUNE ) July 1 - 6                                                                           150                                
PRCFAMCHA060701201444201500000016NSW Bumper - Tennis (:15-:17) APR06                                                                                         150                                
PRCFAMCHA060701201500201509000009CC Disclaimer - FAST - Generic (:08-:10)                                                                                    150                                
PGRFAMCHA0607012015092036450021368 Simple Rules                                    EP: 61                                                              B6068807BCC                              
PRCFAMCHA060701203645203656000011xxNSW - 25 - MOVIE/NPIX (APR06) (:11 - :13)                                                                                 150                                
PRCFAMCHA060701203656203736000040xxPsychedelic Summer Chill Event (1xMMM 1xMD 2xNS                                                                           150                                
PRCFAMCHA060701203736203813000037Movie Entertainment - Coming Up Next (APR 06)                                                                               150                                
PRCFAMCHA060701203813203830000017xxPsychedelic Summer Web #1 ( 1xMMM 1xMD 1xNS, 1xN                                                                          150                                
PROFAMCHA060701203830203850000020xxThat's So Raven (JUNE06) NO PANTS (NSW) - Tomorr                                                                          150                                
PROFAMCHA060701203850203900000010FAMJAM - Open/Close                                                                                                         150                                
PGRFAMCHA060701203900204111000211MV Disney - (MD/NS/NSW) - Do You Believe In Magic                                                                      60688120                                
PROFAMCHA060701204111204125000014xxFAMJAM - Close (FAMILY) xxDNUxx                                                                                           150                                
PROFAMCHA060701204125204155000030xxSuite Life of Z & C - NSW (JULY 06) GIRLFRIEND 2                                                                          150                                
PRCFAMCHA060701204155204202000007NSW Bumper - Dodgeball (:07-:09) APR06                                                                                      150                                
PRCFAMCHA060701204202205802001600Movie Entertainment (7)                                                                                               B     150                                
PRCFAMCHA060701205802205807000005Astral ID (FEB05)                                                                                                           150                                
PROFAMCHA060701205807205821000014Nightly Pix Line-up (SEPT) - GENERIC (:14-:16)                                                                              150                                
PROFAMCHA060701205821205851000030xxBrotherly Love (JULY06) Psychoanalysis NSW - Tom                                                                          150                                
PRCFAMCHA060701205851205951000100xxPsychedelic Summer CONTEST (1xMMM 1xMD 2NS - 4NS                                                                          150                                
PROFAMCHA060701205951210001000010xxNightly Pix Movie Open (:10-:15)                                                                                          150                                
ID FAMCHA060701210001210010000009Rating - 14A - (DEC05) (:08 - :10)                                                                                          150                                
PRCFAMCHA060701210010210019000009CC Disclaimer - SLOW - Family.ca (:08-:10)                                                                                  150                                
PGRFAMCHA060701210019231203021144Legends Of The Fall                                                                                                    2068807DCC                              
PROFAMCHA060701231203231218000015Nightly Pix Line-up (SEPT) - GENERIC (:14-:16)                                                                              150                                
PROFAMCHA060701231218231230000012xxNightly Pix Movie Open (:10-:15)                                                                                          150                                
ID FAMCHA060701231230231239000009Rating - 14A - (DEC05) (:08 - :10)                                                                                          150                                
PGRFAMCHA060701231239003455012216My Boyfriend's Back                                                                                                   C6068807D                                
PRCFAMCHA060701003455003500000005Astral ID (FEB05)                                                                                                           150                                
PRCFAMCHA060701003500003513000013NSW - 30 - SPIDER (APR06) (:11 - :13)                                                                                       150                                
PROFAMCHA060701003513003544000031Even Stevens - Swing (APR06) - (NSW) - Tomorrow Mo                                                                          150                                
PROFAMCHA060701003544003614000030Double Teamed (SEPT12) - Next Friday @ 7:30pm                                                                               150                                
PROFAMCHA060701003614003624000010FAMJAM - Open/Close                                                                                                         150                                
PGRFAMCHA060701003624003939000315MV Disney - Superstition (Raven)                                                                                       60688120                                
PROFAMCHA060701003939003953000014xxFAMJAM - Close (FAMILY) xxDNUxx                                                                                           150                                
PROFAMCHA060701003953004002000009Family Bumpers - (Phase 3 Spring 05) - Hip Hop (MD                                                                          150                                
PROFAMCHA060701004002004022000020xxNed's DSSG - Drum Roll (JUNE06) NSW Tomorrow Mor                                                                          150                                
PROFAMCHA060701004022004032000010FAMJAM - Open/Close                                                                                                         150                                
PGRFAMCHA060701004032004348000316MV Disney - Girl Power (Cheetah Girls)                                                                                 60688120                                
PROFAMCHA060701004348004402000014xxFAMJAM - Close (FAMILY) xxDNUxx                                                                                           150                                
PRCFAMCHA060701004402004432000030xxPsychedelic Summer Stunt #1 (MMM, MD, NS, NSW) T                                                                          150                                
PRCFAMCHA060701004432004442000010xxPsychedelic Summer Billboard (JUNE ) July 1 - 6                                                                           150                                
PROFAMCHA060701004442004500000018Nonstop Weekend Block Open (:16-:18) APR06                                                                                  150                                
PGRFAMCHA060701004500010641002141Spiderman                                         EP: 06                                                        C02618 1065607E                                
PRCFAMCHA060701010641010654000013NSW Bumper - Fashion (:12-:14) JUNE06 xxDNUxx                                                                               150                                
PRCFAMCHA060701010654010709000015Astral - LOVE                                                                                                               150                                
SO FAMCHA060701010709010721000012Sign Off                                                                                                                                                       
OFFFAMCHA060701010721043000032239OFF AIR                                                                                                                                                        
SO FAMCHA060702043000043011000011Sign On (oct 1)                                                                                                                                                
PRCFAMCHA060702043011043020000009CC Disclaimer - FAST - Family.ca (:08-:10)                                                                                  150                                
PGRFAMCHA060702043020045422002402Henry's World                                     EP: 2-026                                                     B81057A1065607GCC                              
PRCFAMCHA060702045422045437000015PH - 01 - BEN/FRANNY/KING (SAT/SUN) (JUNE06) (:14                                                                           150                                
ID FAMCHA060702045437045450000013PS Playhouse AM Block Open (:10-:15)                                                                                        150                                
PRCFAMCHA060702045450045459000009CC Disclaimer - FAST - Generic (:08-:10)                                                                                    150                                
PGRFAMCHA060702045459051730002231The Secret World Of Benjamin Bear                 EPS # 1-010                                                   B75155A1065607ECC                              
PRCFAMCHA060702051730051735000005Astral ID (FEB05)                                                                                                           150                                
PRCFAMCHA060702051735051750000015PH - 01 - FRANNY/KING (SAT/SUN) (JUNE06) (:14 - :1                                                                          150                                
ID FAMCHA060702051750051803000013PS Playhouse AM Block Open (:10-:15)                                                                                        150                                
PRCFAMCHA060702051803051812000009CC Disclaimer - FAST - Family.ca (:08-:10)                                                                                  150                                
PGRFAMCHA060702051812054042002230Franny's Feet                                     EPS # 35                                                      C23971 1065607ECC                              
PRCFAMCHA060702054042054057000015PH - 01 - KING (SAT/SUN) (JUNE06) (:14 - :16)                                                                               150                                
ID FAMCHA060702054057054110000013PS Playhouse AM Block Open (:10-:15)                                                                                        150                                
PRCFAMCHA060702054110054119000009CC Disclaimer - FAST - Generic (:08-:10)                                                                                    150                                
PGRFAMCHA060702054119060349002230King                                              EPS # 036                                                     C25350A1065607ECC                              
PRCFAMCHA060702060349060354000005Astral ID (FEB05)                                                                                                           150                                
PRCFAMCHA060702060354060406000012PB - 06 -  SPIDER/PR MYSTIC FORCE (JUNE06) (:11-:1                                                                          150                                
PROFAMCHA060702060406060420000014xxPower Box Block Open (:10-:15)                                                                                            150                                
PGRFAMCHA060702060420062601002141Spiderman                                         EP: 10                                                        C02618 1065607E                                
PRCFAMCHA060702062601062612000011PB - 05 -  PR MYSTIC FORCE/SUPER ROBOT MONKEY (JUN                                                                          150                                
PROFAMCHA060702062612062633000021xxPower Rangers - Mystic Force - ICED Coming Up Ne                                                                          150                                
PROFAMCHA060702062633062703000030xxSuper Robot MTHG - Today @ 6:55am                                                                                         150                                
PROFAMCHA060702062703062733000030xxWITCH (PB) (APR06) - Today @ 7:20am                                                                                       150                                
PGRFAMCHA060702062733062809000036xxPlanet Rock Profiles - Beyonce (Destiny's Child EP: 46                                                              A70687120                                
PRCFAMCHA060702062809062839000030xxPsychedelic Summer Stunt #1 (MMM, MD, NS, NSW) T                                                                          150                                
PRCFAMCHA060702062839062849000010xxPsychedelic Summer Billboard (JUNE ) July 1 - 6                                                                           150                                
PROFAMCHA060702062849062901000012xxPower Box Block Open (:10-:15)                                                                                            150                                
PGRFAMCHA060702062901065140002239Power Rangers:  Mystic Force                      EP: 05                                                               2028607E                                
PRCFAMCHA060702065140065145000005Astral ID (FEB05)                                                                                                           150                                
PRCFAMCHA060702065145065201000016PB - 03 - ROBOT/W.I.T.C.H./LIZZIE (NOV05) (:14 - :                                                                          150                                
PROFAMCHA060702065201065231000030xxSuper Robot MTHG - Coming Up Next                                                                                         150                                
PGRFAMCHA060702065231065316000045xxPlanet Rock Profiles - Ashanti (Record)         EP: 46                                                              A70687120                                
PROFAMCHA060702065316065346000030xxWITCH (PB) (APR06) - Today @ 7:20am                                                                                       150                                
PROFAMCHA060702065346065400000014xxPower Box Block Open (:10-:15)                                                                                            150                                
PGRFAMCHA060702065400071529002129Super Robot Monkey Team Hyperforce Go!            EP: 36                                                               2028607E                                
PRCFAMCHA060702071529071545000016PB - 04 - W.I.T.C.H./LIZZIE/SUITE (NOV05) (:14 - :                                                                          150                                
PROFAMCHA060702071545071615000030xxWITCH (PB) (APR06) - Coming Up Next                                                                                       150                                
PROFAMCHA060702071615071624000009xxFamily Bumpers - (Phase 1 Spring 04) - Baseball                                                                           150                                
PROFAMCHA060702071624071654000030Lizzie McGuire - (Romeo) (APR06) (NSW/AM) - This M                                                                          150                                
PROFAMCHA060702071654071704000010FAMJAM - Open/Close                                                                                                         150                                
PGRFAMCHA060702071704071849000145MV Disney - (MD/NS/NSW) - What I've Been Looking F                                                                     60688120                                
PROFAMCHA060702071849071903000014xxFAMJAM - Close (FAMILY) xxDNUxx                                                                                           150                                
PROFAMCHA060702071903071933000030xxSuite Life of Z & C - NSW (JULY 06) GIRLFRIEND 2                                                                          150                                
PRCFAMCHA060702071933071946000013Life WD Derek Bloopers #7 (MD/NS/NSW)                                                                                       150                                
PROFAMCHA060702071946072000000014xxPower Box Block Open (:10-:15)                                                                                            150                                
PGRFAMCHA060702072000074142002142W.I.T.C.H.                                        EP: 33                                                               2028607E                                
PRCFAMCHA060702074142074147000005Astral ID (FEB05)                                                                                                           150                                
PRCFAMCHA060702074147074159000012NSW - 02 - LIZZIE/SUITE (APR06) (:11 - 13) (                                                                                150                                
PRCFAMCHA060702074159074239000040xxPsychedelic Summer Chill Event (1xMMM 1xMD 2xNS                                                                           150                                
PROFAMCHA060702074239074306000027Lizzie McGuire - (Bad Breath) (NSW) (APR06) - Comi                                                                          150                                
PROFAMCHA060702074306074325000019Suite Life of Z & C - NSW (JULY 06) MEDITATE - Thi                                                                          150                                
PROFAMCHA060702074325074409000044xxZoey 101 - PHONE (NSW) (APR06) - This Morning @                                                                           150                                
PROFAMCHA060702074409074419000010FAMJAM - Open/Close                                                                                                         150                                
PGRFAMCHA060702074419074549000130MV Disney - Huckaroo (Pixel Perfect)                                                                                   60688120                                
PROFAMCHA060702074549074603000014xxFAMJAM - Close (FAMILY) xxDNUxx                                                                                           150                                
PROFAMCHA060702074603074655000052That's So Raven (JUNE06) SHOW ME (NSW) - This morn                                                                          150                                
PRCFAMCHA060702074655074713000018Life WD Derek Bloopers #3 (MD/NS/NSW)                                                                                       150                                
PROFAMCHA060702074713074743000030Phil of the Future THINGS TO COME (NSW) (APR06) -                                                                           150                                
PROFAMCHA060702074743074800000017Nonstop Weekend Block Open (:16-:18) APR06                                                                                  150                                
ID FAMCHA060702074800074808000008Magic of Disney - NS/NSW/PB - Shape (:06-:09)                                                                               150                                
PRCFAMCHA060702074808074817000009CC Disclaimer - FAST - Family.ca (:08-:10)                                                                                  150                                
PGRFAMCHA060702074817081048002231Lizzie McGuire                                    EP: 2-016                                                           A6068607BCC                              
PRCFAMCHA060702081048081100000012NSW - 03 - SUITE/ZOEY (APR06) (:11 - 13)                                                                                    150                                
PROFAMCHA060702081100081130000030xxSuite Life of Z & C - NSW (JULY 06) GIRLFRIEND 2                                                                          150                                
PROFAMCHA060702081130081200000030Leroy and Stitch DVD Blast Available Now (June 27-                                                                          150                                
PROFAMCHA060702081200081227000027Zoey 101 - LOGAN - NSW (MAY06) (may13-aug30) This                                                                           150                                
PROFAMCHA060702081227081237000010FAMJAM - Open/Close                                                                                                         150                                
PGRFAMCHA060702081237081407000130MV Disney - Superstition (Raven)                                                                                       60688120                                
PROFAMCHA060702081407081421000014xxFAMJAM - Close (FAMILY) xxDNUxx                                                                                           150                                
PROFAMCHA060702081421081441000020xxThat's So Raven (JUNE06) NO PANTS (NSW) - This m                                                                          150                                
PRCFAMCHA060702081441081452000011Naturally Sadie ID's - I'm Charlotte, you're watch                                                                          150                                
PRCFAMCHA060702081452081500000008NSW Bumper - Dodgeball (:07-:09) APR06                                                                                      150                                
PGRFAMCHA060702081500083738002238Suite Life of Zack & Cody, The                    EP: 11                                                               6068607B                                
PRCFAMCHA060702083738083743000005Astral ID (FEB05)                                                                                                           150                                
PRCFAMCHA060702083743083754000011NSW - 04 - ZOEY/RAVEN (APR06) (:11 - 13)                                                                                    150                                
PROFAMCHA060702083754083821000027Zoey 101 - LOGAN - NSW (MAY06) (may13-aug30) Comin                                                                          150                                
PROFAMCHA060702083821083859000038xxHilary Duff HOB Contest (June 23-July 6) 5/Day i                                                                          150                                
PROFAMCHA060702083859083951000052That's So Raven (JUNE06) SHOW ME (NSW) - This morn                                                                          150                                
PRCFAMCHA060702083951084008000017xxPsychedelic Summer Web #1 ( 1xMMM 1xMD 1xNS, 1xN                                                                          150                                
PROFAMCHA060702084008084038000030Phil of the Future THINGS TO COME (NSW) (APR06) -                                                                           150                                
PROFAMCHA060702084038084047000009Family Bumpers - (Phase 1 Spring 04) - DJ Spinning                                                                          150                                
PROFAMCHA060702084047084118000031Even Stevens - Swing (APR06) - (NSW) - This Morn @                                                                          150                                
PGRFAMCHA060702084118084217000059xxPlanet Rock Profiles - Beyonce (Solo) xxDNUxx   EP: 46                                                              A70687120                                
PROFAMCHA060702084217084247000030Double Teamed (SEPT12) - Next Friday @ 7:30pm                                                                               150                                
PRCFAMCHA060702084247084300000013NSW Bumper - Fashion (:12-:14) JUNE06 xxDNUxx                                                                               150                                
PRCFAMCHA060702084300084309000009CC Disclaimer - FAST - Generic (:08-:10)                                                                                    150                                
PGRFAMCHA060702084309090634002325Zoey 101 Season 2                                 EP: 15                                                              A2068807BCC                              
PRCFAMCHA060702090634090645000011NSW - 05 - RAVEN/PHIL (APR06) (:11 - 13)                                                                                    150                                
PRCFAMCHA060702090645090715000030xxPsychedelic Summer Stunt #1 (MMM, MD, NS, NSW) T                                                                          150                                
PRCFAMCHA060702090715090725000010xxPsychedelic Summer Billboard (JUNE ) July 1 - 6                                                                           150                                
PROFAMCHA060702090725090817000052That's So Raven (JUNE06) SHOW ME (NSW) - Coming Up                                                                          150                                
PROFAMCHA060702090817090847000030Leroy and Stitch DVD Blast Available Now (June 27-                                                                          150                                
PROFAMCHA060702090847090917000030Phil of the Future THINGS TO COME (NSW) (APR06) -                                                                           150                                
PROFAMCHA060702090917090927000010FAMJAM - Open/Close                                                                                                         150                                
PGRFAMCHA060702090927091057000130MV Disney - (MD//NSNSW) - Walking On Sunshine (Aly                                                                     60688120                                
PROFAMCHA060702091057091111000014xxFAMJAM - Close (FAMILY) xxDNUxx                                                                                           150                                
PROFAMCHA060702091111091145000034Even Stevens - Bad Boys (APR06) - (NSW) - This Mor                                                                          150                                
PRCFAMCHA060702091145091200000015NSW Bumper - Tennis (:15-:17) APR06                                                                                         150                                
PGRFAMCHA060702091200093436002236That's So Raven                                   EP: 73                                                               6068607B                                
PRCFAMCHA060702093436093441000005Astral ID (FEB05)                                                                                                           150                                
PRCFAMCHA060702093441093452000011NSW - 06 - PHIL/EVEN (APR06) (:11 - 13)                                                                                     150                                
PROFAMCHA060702093452093522000030Phil of the Future THINGS TO COME (NSW) (APR06) -                                                                           150                                
PRCFAMCHA060702093522093622000100xxPsychedelic Summer CONTEST (1xMMM 1xMD 2NS - 4NS                                                                          150                                
PROFAMCHA060702093622093653000031Even Stevens - Swing (APR06) - (NSW) - This Morn @                                                                          150                                
PROFAMCHA060702093653093720000027Aly & A.J. Faves and Funnies - Fave Vacay (JUNE/JU                                                                          150                                
PROFAMCHA060702093720093750000030Double Teamed (SEPT12) - Next Friday @ 7:30pm                                                                               150                                
PROFAMCHA060702093750093800000010FAMJAM - Open/Close                                                                                                         150                                
PGRFAMCHA060702093800094015000215MV Disney - (FAMILY HITS 2) - Cinderella - Cheetah                                                                     60688120                                
PROFAMCHA060702094015094029000014xxFAMJAM - Close (FAMILY) xxDNUxx                                                                                           150                                
PROFAMCHA060702094029094049000020xxNed's DSSG - Drum Roll (JUNE06) NSW This Morn @                                                                           150                                
PRCFAMCHA060702094049094056000007NSW Bumper - Dodgeball (:07-:09) APR06                                                                                      150                                
PGRFAMCHA060702094056100332002236Phil of the Future Yr 2                           EP: 39                                                               6028607B                                
PRCFAMCHA060702100332100344000012NSW - 07 - EVEN/BMW (APR06) (:11 - 13)                                                                                      150                                
PROFAMCHA060702100344100415000031Even Stevens - Swing (APR06) - (NSW) - Coming Up N                                                                          150                                
PROFAMCHA060702100415100453000038xxHilary Duff HOB Contest (June 23-July 6) 5/Day i                                                                          150                                
PROFAMCHA060702100453100523000030Double Teamed (SEPT12) - Next Friday @ 7:30pm                                                                               150                                
PRCFAMCHA060702100523100552000029Life With Derek Web Promo                                                                                                   150                                
PROFAMCHA060702100552100615000023xxNed's DSSG - Doggy Munch (JUNE06) NSW This Morn                                                                           150                                
PROFAMCHA060702100615100627000012xxFamily Bumpers - (Phase 1 Spring 04) - Picnic (M                                                                          150                                
PROFAMCHA060702100627100705000038xxBrotherly Love (JULY06) Mambo Mama NSW - This mo                                                                          150                                
PROFAMCHA060702100705100715000010FAMJAM - Open/Close                                                                                                         150                                
PGRFAMCHA060702100715100845000130MV Disney - (MD/NS/NSW) - We're All In This Togeth                                                                     60688120                                
PROFAMCHA060702100845100859000014xxFAMJAM - Close (FAMILY) xxDNUxx                                                                                           150                                
PROFAMCHA060702100859100930000031Smart Guy FIGHT (JUNE06) NSW - This afternnoon @ 3                                                                          150                                
PRCFAMCHA060702100930100947000017Life WD Derek Bloopers #9 (MD/NS/NSW)                                                                                       150                                
PRCFAMCHA060702100947101000000013NSW Bumper - Fashion (:12-:14) JUNE06 xxDNUxx                                                                               150                                
ID FAMCHA060702101000101008000008Magic of Disney - NS/NSW/PB - Wipe (:06-:09)                                                                                150                                
PRCFAMCHA060702101008101017000009CC Disclaimer - FAST - Family.ca (:08-:10)                                                                                  150                                
PGRFAMCHA060702101017103247002230Even Stevens                                      EP: 3-053                                                           A6068807BCC                              
PRCFAMCHA060702103247103252000005Astral ID (FEB05)                                                                                                           150                                
PRCFAMCHA060702103252103303000011NSW - 08 - BMW/NEDS (APR06) (:11 - 13)                                                                                      150                                
PRCFAMCHA060702103303103343000040xxPsychedelic Summer Chill Event (1xMMM 1xMD 2xNS                                                                           150                                
PROFAMCHA060702103343103413000030Double Teamed (SEPT12) - Next Friday @ 7:30pm                                                                               150                                
PROFAMCHA060702103413103443000030Leroy and Stitch DVD Blast Available Now (June 27-                                                                          150                                
PROFAMCHA060702103443103503000020xxNed's DSSG - Drum Roll (JUNE06) NSW This Morn @                                                                           150                                
PROFAMCHA060702103503103513000010FAMJAM - Open/Close                                                                                                         150                                
PGRFAMCHA060702103513103613000100MV Disney - Huckaroo (Pixel Perfect)                                                                                   60688120                                
PROFAMCHA060702103613103627000014xxFAMJAM - Close (FAMILY) xxDNUxx                                                                                           150                                
PROFAMCHA060702103627103657000030xxBrotherly Love (JULY06) Psychoanalysis NSW - Thi                                                                          150                                
PROFAMCHA060702103657103728000031Smart Guy FIGHT (JUNE06) NSW - This afternnoon @ 3                                                                          150                                
PRCFAMCHA060702103728103747000019Life WD - Grow Up - Casey and Derek - Keep Watchin                                                                          150                                
PRCFAMCHA060702103747103802000015NSW Bumper - Tennis (:15-:17) APR06                                                                                         150                                
PRCFAMCHA060702103802103811000009CC Disclaimer - FAST - Generic (:08-:10)                                                                                    150                                
PGRFAMCHA060702103811110035002224Boy Meets World                                   EP: 1-025                                                           B6068807BCC                              
PRCFAMCHA060702110035110046000011NSW - 09 - NEDS/BROTHERLY (APR06) (:11 - 13)                                                                                150                                
PROFAMCHA060702110046110106000020xxNed's DSSG - Drum Roll (JUNE06) NSW Coming Up Ne                                                                          150                                
PRCFAMCHA060702110106110127000021xxPsychedelic Summer Web #2 ( 1xMMM 1xMD 1xNS, 1xN                                                                          150                                
PROFAMCHA060702110127110205000038xxBrotherly Love (JULY06) Mambo Mama NSW - This mo                                                                          150                                
PROFAMCHA060702110205110215000010FAMJAM - Open/Close                                                                                                         150                                
PGRFAMCHA060702110215110345000130MV Disney - (MD/NS/NSW) - She's No You (SHORT) (Je                                                                     60688120                                
PROFAMCHA060702110345110359000014xxFAMJAM - Close (FAMILY) xxDNUxx                                                                                           150                                
PROFAMCHA060702110359110430000031Smart Guy FIGHT (JUNE06) NSW - This afternnoon @ 3                                                                          150                                
PROFAMCHA0607021104301104450000158 Simple Rules (JUN06) (NSW) PROFILES - Tonight @                                                                           150                                
PRCFAMCHA060702110445110458000013NSW Bumper - Fashion (:12-:14) JUNE06 xxDNUxx                                                                               150                                
PGRFAMCHA060702110458112914002416Ned's Declassified School Survival Guide          EP: 23                                                               2068807B                                
PRCFAMCHA060702112914112919000005Astral ID (FEB05)                                                                                                           150                                
PRCFAMCHA060702112919112930000011xxNSW - 10 - BROTHERLY/WDP (APR06) (:11 - 13)                                                                               150                                
PROFAMCHA060702112930113008000038xxBrotherly Love (JULY06) Mambo Mama NSW - Coming                                                                           150                                
PROFAMCHA060702113008113046000038xxHilary Duff HOB Contest (June 23-July 6) 5/Day i                                                                          150                                
PROFAMCHA060702113046113116000030xxSmart Guy MOE MUSIC (JUNE06) NSW This afternoon                                                                           150                                
PRCFAMCHA060702113116113125000009xxFamily Bumpers - (Phase 1 Spring 04) - Soccer (M                                                                          150                                
PROFAMCHA060702113125113155000030xxSuite Life of Z & C - NSW (JULY 06) GIRLFRIEND 2                                                                          150                                
PGRFAMCHA060702113155113316000121Planet Rock Profiles - Michelle Branch - First GigEP: 46                                                              A70687120                                
PROFAMCHA060702113316113346000030Phil of the Future THINGS TO COME (NSW) (APR06) -                                                                           150                                
PROFAMCHA060702113346113353000007Aly & A.J. IDs - (A.J.) You're watching Family, NA                                                                          150                                
PRCFAMCHA060702113353113400000007NSW Bumper - Dodgeball (:07-:09) APR06                                                                                      150                                
PGRFAMCHA060702113400115609002209Brotherly Love                                    EPS # 22                                                             6068807B                                
PRCFAMCHA060702115609115639000030xxPsychedelic Summer Stunt #1 (MMM, MD, NS, NSW) T                                                                          150                                
PRCFAMCHA060702115639115649000010xxPsychedelic Summer Billboard (JUNE ) July 1 - 6                                                                           150                                
PROFAMCHA060702115649115720000031Smart Guy FIGHT (JUNE06) NSW - This afternnoon @ 3                                                                          150                                
PGRFAMCHA060702115720115901000141xxPlanet Rock Profiles - Nelly Furtado (Bird)     EP: 46                                                              A70687120                                
PRCFAMCHA060702115901115941000040Naturally Sadie (APR06) - Tonight @ 6:05pm                                                                                  150                                
