SO FAMCHA041201043000043011000011Sign On (oct 1)                                                                                                                                                
PROFAMCHA041201043011043020000009CC Disclaimer - FAST - Family.ca (:08-:10)                                                                                  150                                
PGRFAMCHA041201043020045313002253Franklin                                          EP: 3-033                                                     B36668A1065607ECC                              
PROFAMCHA041201045313045328000015PS - 01(PH) - WTP/Benjamin/Franny                                                                                           150                                
ID FAMCHA041201045328045341000013PS Playhouse AM Block Open (:10-:15)                                                                                        150                                
PROFAMCHA041201045341045350000009CC Disclaimer - FAST - Family.ca (:08-:10)                                                                                  150                                
PGRFAMCHA041201045350051620002230King                                              EP: 005                                                       B75760A1065607ECC                              
PROFAMCHA041201051620051635000015PS - 01(PH) - WTP/Benjamin/Franny                                                                                           150                                
ID FAMCHA041201051635051648000013PS Playhouse AM Block Open (:10-:15)                                                                                        150                                
PGRFAMCHA041201051648054323002635Katie And Orbie                                   EP: 1-012                                                     P16151A1065607E                                
PROFAMCHA041201054323054338000015PS - 01(PH) - WTP/Benjamin/Franny                                                                                           150                                
ID FAMCHA041201054338054351000013PS Playhouse AM Block Open (:10-:15)                                                                                        150                                
PROFAMCHA041201054351054400000009CC Disclaimer - FAST - Family.ca (:08-:10)                                                                                  150                                
PGRFAMCHA041201054400060653002253Franklin                                          EP: 3-034                                                     B36669A1065607ECC                              
PROFAMCHA041201060653060708000015PS - 01(PH) - WTP/Benjamin/Franny                                                                                           150                                
ID FAMCHA041201060708060721000013PS Playhouse AM Block Open (:10-:15)                                                                                        150                                
PROFAMCHA041201060721060730000009CC Disclaimer - FAST - Family.ca (:08-:10)                                                                                  150                                
PGRFAMCHA041201060730063001002231Something Else                                    EPS # 1-006                                                   B69260A1065607ECC                              
PROFAMCHA041201063001063016000015PS - 01(PH) - WTP/Benjamin/Franny                                                                                           150                                
ID FAMCHA041201063016063031000015xxPower Box Block Open (:10-:15)                                                                                            150                                
PGRFAMCHA041201063031065200002129Daigunder                                         EPS # 34                                                             2068607E                                
PROFAMCHA041201065200065214000014PS - 01(PH) - WTP/Benjamin/Franny                                                                                           150                                
PROFAMCHA041201065214065244000030Celeste in the City (PP/PREM) - Premiering Friday                                                                           150                                
PROFAMCHA041201065244065320000036xxPower Rangers Dino Thunder (LONG/0804) - Coming                                                                           150                                
PRCFAMCHA041201065320065329000009Bullying - The Pledge 2004 (w/o music)                                                                                      150                                
PRCFAMCHA041201065329065404000035Daigunder (PB) - Tomorrow @ 6:30am                                                                                          150                                
PRCFAMCHA041201065404065432000028Power Box Block Promo (APR04) - (PB) - Tomorrow @                                                                           150                                
INTFAMCHA041201065432065448000016xxLindsay Lohan Interview - Away from home                                                                            A10628120                                
ID FAMCHA041201065448065500000012xxPower Box Block Open (:10-:15)                                                                                            150                                
PGRFAMCHA041201065500071629002129Power Rangers Dino Thunder                        EPS # 23                                                            A6068607E                                
PROFAMCHA041201071629071643000014PS - 01(PH) - WTP/Benjamin/Franny                                                                                           150                                
PROFAMCHA041201071643071713000030Celeste in the City (PP/PREM) - Premiering Friday                                                                           150                                
PROFAMCHA041201071713071743000030xxPower Rangers Ninja Storm (AUG04) (PB) - Coming                                                                           150                                
PRCFAMCHA041201071743071818000035Daigunder (PB) - Tomorrow @ 6:30am                                                                                          150                                
PRCFAMCHA041201071818071846000028Power Box Block Promo (APR04) - (PB) - Tomorrow @                                                                           150                                
INTFAMCHA041201071846072000000114Gagsters                                          EP: 46                                                              A20686120                                
PROFAMCHA041201072000072024000024Jason (Hiking) - Today @ 11:25am                                                                                            150                                
PRCFAMCHA041201072024072041000017Radio Free Roscoe - Webthrow (Question Mark)                                                                                150                                
PROFAMCHA041201072041072105000024Hercules (Count) - Today @ 12:10pm                                                                                          150                                
PROFAMCHA041201072105072136000031Son In Law - Premiering Friday @ 9pm                                                                                        150                                
PRCFAMCHA041201072136072150000014Family Bumpers - (Phase 1 Spring 04) - Basketball                                                                           150                                
ID FAMCHA041201072150072202000012xxPower Box Block Open (:10-:15)                                                                                            150                                
PGRFAMCHA041201072202074327002125Power Rangers Ninja Storm                         EPS # 1-038                                                         A6068607E                                
PROFAMCHA041201074327074342000015PS - 01(PH) - WTP/Benjamin/Franny                                                                                           150                                
PROFAMCHA041201074342074412000030Playhouse (FUNTIMES) - (AM) - Weekdays @ 8:30am                                                                       A     150                                
PRCFAMCHA041201074412074430000018Art Attack (CARNIVAL)                                                                                                       150                                
INTFAMCHA041201074430074630000200xxDisney Circle Time - The Greedy Dog (anywhere bu                                                                     60688120                                
PRCFAMCHA041201074630074700000030xxFranny's Feet (PH-M/W/F) - Today @ 8:45am                                                                                 150                                
PRCFAMCHA041201074700074719000019Playhouse - FRANKLIN - Party                                                                                                150                                
PROFAMCHA041201074719074748000029Winnie the Pooh (TRAP) (PH/AM) - Today @ 9:10am                                                                             150                                
ID FAMCHA041201074748074800000012PS Playhouse AM Block Open (:10-:15)                                                                                        150                                
PROFAMCHA041201074800074809000009CC Disclaimer - FAST - Family.ca (:08-:10)                                                                                  150                                
PGRFAMCHA041201074809081047002238Hoze Houndz                                       EP: 5-053                                                     B63389A1065607ECC                              
PROFAMCHA041201081047081103000016PS - 01(PH) - WTP/Benjamin/Franny                                                                                           150                                
PRCFAMCHA041201081103081121000018Art Attack (CARNIVAL)                                                                                                       150                                
PRCFAMCHA041201081121081151000030xxFranny's Feet (PH-M/W/F) - Today @ 8:45am                                                                                 150                                
PROFAMCHA041201081151081220000029Winnie the Pooh (TRAP) (PH/AM) - Today @ 9:10am                                                                             150                                
INTFAMCHA041201081220081350000130xxDisney Circle Time - Growing Smiles (anywhere bu                                                                     60688120                                
PROFAMCHA041201081350081429000039Jojo's Circus - (PH/AM) - Weekdays @ 9:45am                                                                                 150                                
PROFAMCHA041201081429081513000044xxStanley - (AUG04) - (PH-M/W/F) - Today @ 10:05am                                                                          150                                
PROFAMCHA041201081513081544000031Son In Law - Premiering Friday @ 9pm                                                                                        150                                
ID FAMCHA041201081544081558000014PS Playhouse AM Block Open (:10-:15)                                                                                        150                                
PRCFAMCHA041201081558081608000010Holly Daze - Special Presentation BBD                                                                                       150                                
PROFAMCHA041201081608081617000009CC Disclaimer - FAST - Family.ca (:08-:10)                                                                                  150                                
PGRFAMCHA041201081617084019002402Henry's World                                     EP: 2-026                                                     B81057A1065607GCC                              
PROFAMCHA041201084019084033000014PS - 01(PH) - WTP/Benjamin/Franny                                                                                           150                                
PRCFAMCHA041201084033084103000030xxFranny's Feet (PH) - Coming Up Next                                                                                       150                                
PROFAMCHA041201084103084132000029Winnie the Pooh (TRAP) (PH/AM) - Today @ 9:10am                                                                             150                                
INTFAMCHA041201084132084317000145xxDisney Circle Time - My Shadow (anywhere but D12                                                                     60688120                                
PROFAMCHA041201084317084359000042Jojo's Circus - (PH/AM) - Weekdays @ 9:45am                                                                                 150                                
PRCFAMCHA041201084359084422000023Playhouse - HOUSE OF MOUSE - Calculator                                                                                     150                                
PRCFAMCHA041201084422084453000031King (FRIENDS/0804) (PH/AM) - Weekdays @ 11am                                                                               150                                
ID FAMCHA041201084453084503000010PS Playhouse AM Block Open (:10-:15)                                                                                        150                                
PROFAMCHA041201084503084512000009CC Disclaimer - FAST - Family.ca (:08-:10)                                                                                  150                                
PGRFAMCHA041201084512090742002230Franny's Feet                                     EPS # 1-005                                                   C23970A1065607ECC                              
PROFAMCHA041201090742090756000014PS - 01(PH) - WTP/Benjamin/Franny                                                                                           150                                
PROFAMCHA041201090756090825000029Winnie the Pooh (TRAP) (PH/AM) - Coming Up Next                                                                             150                                
PROFAMCHA041201090825090904000039Jojo's Circus - (PH/AM) - Weekdays @ 9:45am                                                                                 150                                
PROFAMCHA041201090904090934000030Playhouse (FUNTIMES) - (AM) - Weekdays @ 8:30am                                                                       A     150                                
PROFAMCHA041201090934091018000044xxStanley - (AUG04) - (PH-M/W/F) - Today @ 10:05am                                                                          150                                
INTFAMCHA041201091018091203000145xxDisney Circle Time - The Milkmaids Pail (anywher                                                                     60688120                                
PRCFAMCHA041201091203091234000031King (FRIENDS/0804) (PH/AM) - Weekdays @ 11am                                                                               150                                
PROFAMCHA041201091234091305000031Son In Law - Premiering Friday @ 9pm                                                                                        150                                
ID FAMCHA041201091305091316000011PS Playhouse AM Block Open (:10-:15)                                                                                        150                                
PROFAMCHA041201091316091325000009CC Disclaimer - FAST - Family.ca (:08-:10)                                                                                  150                                
PGRFAMCHA041201091325093641002316The New Adventures of Winnie the Pooh             EP: 1-017                                                            6068607ECC                              
PROFAMCHA041201093641093655000014PS - 01(PH) - WTP/Benjamin/Franny                                                                                           150                                
PROFAMCHA041201093655093737000042Jojo's Circus - (PH/AM) - Weekdays @ 9:45am                                                                                 150                                
PROFAMCHA041201093737093821000044xxStanley - (AUG04) - (PH-M/W/F) - Today @ 10:05am                                                                          150                                
PRCFAMCHA041201093821093848000027Playhouse - FRANKLIN - Laundry                                                                                              150                                
PRCFAMCHA041201093848093919000031King (FRIENDS/0804) (PH/AM) - Weekdays @ 11am                                                                               150                                
PROFAMCHA041201093919093949000030Princess Block (NOV04) - Today @ 1pm                                                                                        150                                
ID FAMCHA041201093949094000000011PS Playhouse AM Block Open (:10-:15)                                                                                        150                                
PGRFAMCHA041201094000100407002407JoJo's Circus                                     EPS # 01                                                            A6068607E                                
PROFAMCHA041201100407100421000014PS - 01(PH) - WTP/Benjamin/Franny                                                                                           150                                
PROFAMCHA041201100421100505000044xxStanley - (AUG04) - (PH-M/W/F) - Coming Up Next                                                                           150                                
PRCFAMCHA041201100505100536000031King (FRIENDS/0804) (PH/AM) - Weekdays @ 11am                                                                               150                                
PROFAMCHA041201100536100601000025Hoze Houndz (Can't Fly) (PH/PM) - Today @ 2:10pm                                                                            150                                
PRCFAMCHA041201100601100647000046Playhouse - STANLEY - Squirrel Song                                                                                         150                                
PRCFAMCHA041201100647100719000032xxBenjamin Bear (PH-T/T) - Tomorrow @ 8:45am                                                                                150                                
PROFAMCHA041201100719100750000031Son In Law - Premiering Friday @ 9pm                                                                                        150                                
ID FAMCHA041201100750100800000010PS Playhouse AM Block Open (:10-:15)                                                                                        150                                
PGRFAMCHA041201100800103205002405Stanley                                           EPS # 1-053                                                         A6068607E                                
PROFAMCHA041201103205103220000015PS - 01(PH) - WTP/Benjamin/Franny                                                                                           150                                
PRCFAMCHA041201103220103251000031King (FRIENDS/0804) (PH/AM) - Weekdays @ 11am                                                                               150                                
PROFAMCHA041201103251103316000025Hoze Houndz (Can't Fly) (PH/PM) - Today @ 2:10pm                                                                            150                                
PRCFAMCHA041201103316103348000032xxBenjamin Bear (PH-T/T) - Tomorrow @ 8:45am                                                                                150                                
PRCFAMCHA041201103348103423000035Playhouse - KATIE & ORBIE - Discoveries                                                                                     150                                
PRCFAMCHA041201103423103516000053Franklin (SOCCER) - (PH/AM) - Tomorrow @ 5:45am                                                                             150                                
PROFAMCHA041201103516103546000030Princess Block (NOV04) - Today @ 1pm                                                                                        150                                
ID FAMCHA041201103546103600000014PS Playhouse AM Block Open (:10-:15)                                                                                        150                                
PGRFAMCHA041201103600105116001516Art Attack                                        EP: 1-021                                                            60686110                                
PROFAMCHA041201105116105131000015PS - 01(PH) - WTP/Benjamin/Franny                                                                                           150                                
PRCFAMCHA041201105131105202000031King (FRIENDS/0804) (PH/AM) - Weekdays @ 11am                                                                               150                                
PRCFAMCHA041201105202105235000033Wish List (Mattel) - Holly Daze Contest 2004 - Pla                                                                          150                                
PROFAMCHA041201105235105300000025Hoze Houndz (Can't Fly) (PH/PM) - Today @ 2:10pm                                                                            150                                
INTFAMCHA041201105300105532000232MV Disney - (PH) - With A Few Good Friends (CARLY                                                                      60688120                                
PRCFAMCHA041201105532105550000018Art Attack (CARNIVAL)                                                                                                       150                                
PRCFAMCHA041201105550105604000014Playhouse - HOZE HOUNDZ - Skater                                                                                            150                                
PRCFAMCHA041201105604105636000032xxBenjamin Bear (PH-T/T) - Tomorrow @ 8:45am                                                                                150                                
INTFAMCHA041201105636105836000200xxDisney Circle Time - The Lion & The Mouse Fable                                                                      60688120                                
PROFAMCHA041201105836105918000042Jojo's Circus - (PH/AM) - Weekdays @ 9:45am                                                                                 150                                
PROFAMCHA041201105918105949000031Son In Law - Premiering Friday @ 9pm                                                                                        150                                
ID FAMCHA041201105949110000000011PS Playhouse AM Block Open (:10-:15)                                                                                        150                                
PROFAMCHA041201110000110009000009CC Disclaimer - FAST - Family.ca (:08-:10)                                                                                  150                                
PGRFAMCHA041201110009112239002230King                                              EPS # 2-025                                                   B75780A1065607ECC                              
PROFAMCHA041201112239112253000014PS - 01(PH) - WTP/Benjamin/Franny                                                                                           150                                
PROFAMCHA041201112253112323000030Celeste in the City (PP/PREM) - Premiering Friday                                                                           150                                
PROFAMCHA041201112323112347000024Jason (Hiking) - Coming Up Next                                                                                             150                                
PROFAMCHA041201112347112417000030xxLilo & Stitch (AUG04) - (MD) - Today @ 11:50am                                                                            150                                
INTFAMCHA041201112417112547000130Klootz - Rowboat Or The Motor #45                                                                                     A10658120                                
PROFAMCHA041201112547112618000031Hercules (Wits) - Today @ 12:10pm                                                                                           150                                
PROFAMCHA041201112618112648000030Recess (AUG04) - Weekdays @ 3:50pm                                                                                          150                                
ID FAMCHA041201112648112701000013Mad Dash Block Open (:13-:15)                                                                                               150                                
PGRFAMCHA041201112701114915002214Jason and the Heroes of Mount Olympus             EPS # 20                                                             6068607E                                
PROFAMCHA041201114915114929000014PS - 01(PH) - WTP/Benjamin/Franny                                                                                           150                                
PRCFAMCHA041201114929114941000012Family Bumpers - (Phase 1 Spring 04) - Funhouse (P                                                                          150                                
PRCFAMCHA041201114941114948000007xxFrankie Muniz ID - You're Watching Family                                                                                 150                                
ID FAMCHA041201114948115001000013Mad Dash Block Open (:13-:15)                                                                                               150                                
PGRFAMCHA041201115001121240002239Disney's Lilo & Stitch                            EPS # 32                                                            A6068607E                                
PROFAMCHA041201121240121255000015PS - 01(PH) - WTP/Benjamin/Franny                                                                                           150                                
ID FAMCHA041201121255121308000013Mad Dash Block Open (:13-:15)                                                                                               150                                
PGRFAMCHA041201121308123609002301Disney's Hercules                                 EP: 1-006                                                            6068607E                                
PROFAMCHA041201123609123624000015PS - 01(PH) - WTP/Benjamin/Franny                                                                                           150                                
PRCFAMCHA041201123624123646000022Mad Dash - LIZZIE MCGUIRE - Chase                                                                                           150                                
ID FAMCHA041201123646123700000014Mad Dash Block Open (:13-:15)                                                                                               150                                
PROFAMCHA041201123700123709000009CC Disclaimer - FAST - Family.ca (:08-:10)                                                                                  150                                
PGRFAMCHA041201123709125953002244Goof Troop                                        EP: 1-076                                                            6068607ECC                              
PROFAMCHA041201125953130007000014PS - 01(PH) - WTP/Benjamin/Franny                                                                                           150                                
PROFAMCHA041201130007130037000030Princess Block (NOV04) - Coming Up Next                                                                                     150                                
PRCFAMCHA041201130037130051000014Playhouse - HOZE HOUNDZ - Skater                                                                                            150                                
ID FAMCHA041201130051130101000010PS Playhouse PM Block Open (:10-:15)                                                                                        150                                
PROFAMCHA041201130101130110000009CC Disclaimer - FAST - Family.ca (:08-:10)                                                                                  150                                
PGRFAMCHA041201130110132413002303The Little Mermaid                                EP: 1-025                                                            6068607ECC                              
PROFAMCHA041201132413132428000015PS - 01(PH) - WTP/Benjamin/Franny                                                                                           150                                
PRCFAMCHA041201132428132447000019Playhouse - HOZE HOUNDZ - Code Blue                                                                                         150                                
ID FAMCHA041201132447132500000013PS Playhouse PM Block Open (:10-:15)                                                                                        150                                
PROFAMCHA041201132500132509000009CC Disclaimer - FAST - Family.ca (:08-:10)                                                                                  150                                
PGRFAMCHA041201132509134746002237Disney's Aladdin                                  EP: 1-003                                                            6068607ECC                              
PROFAMCHA041201134746134801000015PS - 22(PH) - DALMATIANS/HOZE/HOUSE (:14-:16) (AUG                                                                          150                                
ID FAMCHA041201134801134816000015PS Playhouse PM Block Open (:10-:15)                                                                                        150                                
PGRFAMCHA041201134816141103002247Disney's 101 Dalmatians: The Series               EPS # 1-006                                                         A6068607E                                
PROFAMCHA041201141103141118000015PS - 01(PH) - WTP/Benjamin/Franny                                                                                           150                                
PROFAMCHA041201141118141148000030Playhouse (FUNTIMES) - (AM) - Weekdays @ 8:30am                                                                       A     150                                
ID FAMCHA041201141148141200000012PS Playhouse AM Block Open (:10-:15)                                                                                        150                                
PROFAMCHA041201141200141209000009CC Disclaimer - FAST - Family.ca (:08-:10)                                                                                  150                                
PGRFAMCHA041201141209143447002238Hoze Houndz                                       EP: 5-054                                                     B63390A1065607ECC                              
PROFAMCHA041201143447143501000014PS - 01(PH) - WTP/Benjamin/Franny                                                                                           150                                
PROFAMCHA041201143501143531000030Princess Block (NOV04) - Tomorrow @ 1pm                                                                                     150                                
PRCFAMCHA041201143531143550000019Playhouse - FRANKLIN - Party                                                                                                150                                
ID FAMCHA041201143550143600000010PS Playhouse PM Block Open (:10-:15)                                                                                        150                                
PGRFAMCHA041201143600145837002237Disney's House Of Mouse                           EP: 1-031                                                           A6068607E                                
PROFAMCHA041201145837145851000014PS - 01(PH) - WTP/Benjamin/Franny                                                                                           150                                
PRCFAMCHA041201145851145921000030xxMad Dash - GUIDE - Tomorrow starting @ 3pm                                                                                150                                
PRCFAMCHA041201145921145951000030Zoo Tycoon 2 Contest (Nov 22 - Dec 19)                                                                                      150                                
ID FAMCHA041201145951150004000013Mad Dash Block Open (:13-:15)                                                                                               150                                
PGRFAMCHA041201150004152241002237Disney's Fillmore!                                EPS # 1-017                                                         A6068607E                                
PROFAMCHA041201152241152256000015PS - 01(PH) - WTP/Benjamin/Franny                                                                                           150                                
PROFAMCHA041201152256152326000030xxWeekenders (REALITY) - Coming Up                                                                                          150                                
PRCFAMCHA041201152326152359000033Wish List (Mattel) - Holly Daze Contest 2004 - Gen                                                                          150                                
PRCFAMCHA041201152359152408000009Bullying - The Pledge 2004 (w/o music)                                                                                      150                                
PROFAMCHA041201152408152439000031Son In Law - Premiering Friday @ 9pm                                                                                        150                                
ID FAMCHA041201152439152446000007xxLindsay Lohan ID - You're Watching Family                                                                                 150                                
ID FAMCHA041201152446152500000014Mad Dash Block Open (:13-:15)                                                                                               150                                
PGRFAMCHA041201152500154754002254Disney's The Weekenders                           EP: 1-003                                                           A6068607E                                
PROFAMCHA041201154754154808000014PS - 01(PH) - WTP/Benjamin/Franny                                                                                           150                                
PROFAMCHA041201154808154838000030Celeste in the City (PP/PREM) - Premiering Friday                                                                           150                                
PRCFAMCHA041201154838154900000022Laurentien Sanford Contest                                                                                                  150                                
PRCFAMCHA041201154900154935000035Bullying Pledge Bumper - NOV 17 to DEC 31                                                                                   150                                
PRCFAMCHA041201154935154949000014Family Bumpers - (Phase 1 Spring 04) - Basketball                                                                           150                                
ID FAMCHA041201154949155002000013Mad Dash Block Open (:13-:15)                                                                                               150                                
PGRFAMCHA041201155002161236002234Disney's Recess                                   EP: 1-022                                                            6068607E                                
PROFAMCHA041201161236161251000015PS - 01(PH) - WTP/Benjamin/Franny                                                                                           150                                
PROFAMCHA041201161251161321000030Brotherly Love (NSW) - Tomorrow @ 11:30am                                                                                   150                                
PRCFAMCHA041201161321161354000033Wish List (Mattel) - Holly Daze Contest 2004 - Gen                                                                          150                                
PROFAMCHA041201161354161424000030Kim Possible (MD) (AUG04) - Tomorrow @ 4:40pm                                                                               150                                
PRCFAMCHA041201161424161509000045Famous Players Popcorn Parties                                                                                              150                                
PROFAMCHA041201161509161540000031Son In Law - Premiering Friday @ 9pm                                                                                        150                                
PRCFAMCHA041201161540161547000007xxFrankie Muniz ID - You're Watching Family                                                                                 150                                
ID FAMCHA041201161547161600000013Mad Dash Block Open (:13-:15)                                                                                               150                                
PGRFAMCHA041201161600163838002238Disney's Dave the Barbarian                       EPS # 10                                                             6068607E                                
PROFAMCHA041201163838163853000015PS - 01(PH) - WTP/Benjamin/Franny                                                                                           150                                
PROFAMCHA041201163853163923000030Kim Possible (MD) (AUG04) - Tomorrow @ 4:40pm                                                                               150                                
PRCFAMCHA041201163923163953000030Zoo Tycoon 2 Contest (Nov 22 - Dec 19)                                                                                      150                                
PRCFAMCHA041201163953164026000033Mad Dash - WEEKENDERS - Clown                                                                                               150                                
PRCFAMCHA041201164026164116000050Family Lab - Commercial - Food Swapper                                                                                      150                                
PROFAMCHA041201164116164146000030Celeste in the City (PP/PREM) - Premiering Friday                                                                           150                                
ID FAMCHA041201164146164200000014Mad Dash Block Open (:13-:15)                                                                                               150                                
PGRFAMCHA041201164200170454002254Disney's Kim Possible                             EPS # 1-039                                                         A6068607E                                
PROFAMCHA041201170454170509000015PS - 01(PH) - WTP/Benjamin/Franny                                                                                           150                                
PROFAMCHA041201170509170537000028Proud Family (BOND) - (MD) - Coming Up                                                                                      150                                
PROFAMCHA041201170537170607000030UNO Contest (Nov 15 - Dec 5)                                                                                                150                                
PRCFAMCHA041201170607170707000100Bullying - The Pledge 2004 (w/o music)                                                                                      150                                
PROFAMCHA041201170707170738000031Son In Law - Premiering Friday @ 9pm                                                                                        150                                
PROFAMCHA041201170738170747000009Raven ID's II - You're Watching Family, NADM                                                                                150                                
ID FAMCHA041201170747170800000013Mad Dash Block Open (:13-:15)                                                                                               150                                
PGRFAMCHA041201170800173033002233The Proud Family                                  EPS # 2-024                                                         A6068807E                                
PROFAMCHA041201173033173047000014Mad Dash - 07 (M-T) - LIZZIE/RAVEN/EVEN (:14-:16)                                                                           150                                
PROFAMCHA041201173047173118000031xxLizzie McGuire - GROWN UP (MD) - Coming Up                                                                                150                                
PROFAMCHA041201173118173148000030Juice Box Contest (Nov 15 - Dec 5)                                                                                          150                                
PRCFAMCHA041201173148173218000030xxMad Dash - GUIDE - Tomorrow starting @ 3pm                                                                                150                                
PROFAMCHA041201173218173248000030xxWeekenders (REALITY) - Coming Up                                                                                          150                                
PRCFAMCHA041201173248173326000038Mad Dash - LIZZIE MCGUIRE - Breakfast                                                                                       150                                
PROFAMCHA041201173326173356000030Celeste in the City (PP/PREM) - Premiering Friday                                                                           150                                
ID FAMCHA041201173356173409000013Mad Dash Block Open (:13-:15)                                                                                               150                                
ID FAMCHA041201173409173417000008Magic of Disney - MAD DASH - Shape (:06-:09)                                                                                150                                
PROFAMCHA041201173417173426000009CC Disclaimer - FAST - Family.ca (:08-:10)                                                                                  150                                
PGRFAMCHA041201173426175657002231Lizzie McGuire                                    EP: 2-012                                                           A6068607BCC                              
PROFAMCHA041201175657175711000014PS - 01(PH) - WTP/Benjamin/Franny                                                                                           150                                
PROFAMCHA041201175711175741000030Celeste in the City (PP/PREM) - Premiering Friday                                                                           150                                
PRCFAMCHA041201175741175828000047SpongeBob SquarePants @ the movies Contest - Now (                                                                          150                                
PRCFAMCHA041201175828175840000012Family Bumpers - (Phase 1 Spring 04) - Pillow Figh                                                                          150                                
PROFAMCHA041201175840175925000045Avril Lavigne Blast! (Nov 29 - Dec 15)                                                                                      150                                
PROFAMCHA041201175925175955000030That's So Raven (GOOD LIFE) - Mon to Thu @ 6:30pm                                                                           150                                
ID FAMCHA041201175955180009000014Nonstop Block Open (:14-:17)                                                                                                150                                
PGRFAMCHA041201180009182248002239That's So Raven                                   EPS # 1-044                                                          6068807B                                
PROFAMCHA041201182248182303000015PS - 01(PH) - WTP/Benjamin/Franny                                                                                           150                                
PROFAMCHA041201182303182335000032Even Stevens (SIBLINGS) - (NS) - Coming Up                                                                                  150                                
PRCFAMCHA041201182335182357000022Laurentien Sanford Contest                                                                                                  150                                
PROFAMCHA041201182357182436000039Brotherly Love (NSW) - Tomorrow @ 11:30am                                                                                   150                                
PRCFAMCHA041201182436182556000120Bullying - The Pledge 2004 (w/o music)                                                                                      150                                
PRCFAMCHA041201182556182626000030xxRadio Free Roscoe II - V1 (NS1) - Tonight @ 7:30                                                                          150                                
PRCFAMCHA041201182626182716000050Bullying Pledge Bumper - NOV 17 to DEC 31                                                                                   150                                
PROFAMCHA041201182716182746000030Double Teamed (SEPT12) - Next Friday @ 7:30pm                                                                               150                                
PRCFAMCHA041201182746182849000103Family Lab - Commercial - E-Z Traveller                                                                                     150                                
PROFAMCHA041201182849182915000026Smart Guy (APR04) - Mon to Thurs @ 11:30pm                                                                                  150                                
PROFAMCHA041201182915182946000031Son In Law - Premiering Friday @ 9pm                                                                                        150                                
ID FAMCHA041201182946183002000016Nonstop Block Open (:14-:17)                                                                                                150                                
PROFAMCHA041201183002183011000009CC Disclaimer - FAST - Family.ca (:08-:10)                                                                                  150                                
PGRFAMCHA041201183011185247002236Even Stevens                                      EP: 2-011                                                           A6068807BCC                              
PROFAMCHA041201185247185301000014PS - 01(PH) - WTP/Benjamin/Franny                                                                                           150                                
PROFAMCHA041201185301185340000039Brotherly Love (NSW) - Tomorrow @ 11:30am                                                                                   150                                
PROFAMCHA041201185340185410000030UNO Contest (Nov 15 - Dec 5)                                                                                                150                                
PRCFAMCHA041201185410185440000030xxRadio Free Roscoe II - V2 (NS1) - Tonight @ 7:30                                                                          150                                
PRCFAMCHA041201185440185601000121Bullying - The Pledge 2004 (w/o music)                                                                                      150                                
PROFAMCHA041201185601185631000030Double Teamed (SEPT12) - Next Friday @ 7:30pm                                                                               150                                
INTFAMCHA041201185631185801000130Klootz - Bad For The Ego #47                                                                                          A10658120                                
PRCFAMCHA041201185801185833000032Bullying - The Pledge 2004 (w/o music)                                                                                      150                                
PROFAMCHA041201185833185918000045Hoze Houndz (GROCERIES - FALL 2003) - Weekdays @ 6                                                                          150                                
PROFAMCHA041201185918185948000030Celeste in the City (PP/PREM) - Premiering Friday                                                                           150                                
ID FAMCHA041201185948190004000016Nonstop Block Open (:14-:17)                                                                                                150                                
PGRFAMCHA041201190004192237002233Brotherly Love                                    EPS # 20                                                             6068807B                                
PROFAMCHA041201192237192251000014PS - 01(PH) - WTP/Benjamin/Franny                                                                                           150                                
PRCFAMCHA041201192251192321000030xxRadio Free Roscoe II - V1 (NS) - Coming Up Next                                                                           150                                
PRCFAMCHA041201192321192354000033Wish List (Mattel) - Holly Daze Contest 2004 - Gen                                                                          150                                
PROFAMCHA041201192354192424000030Double Teamed (SEPT12) - Next Friday @ 7:30pm                                                                               150                                
PRCFAMCHA041201192424192454000030Elf DVD Blast! - On DVD Now (Dec 1 - 14)                                                                                    150                                
PROFAMCHA041201192454192539000045Hoze Houndz (GROCERIES - FALL 2003) - Weekdays @ 6                                                                          150                                
PROFAMCHA041201192539192549000010FAMJAM - Open/Close                                                                                                         150                                
INTFAMCHA041201192549192719000130MV Disney - Huckaroo (Pixel Perfect)                                                                                   60688120                                
PROFAMCHA041201192719192733000014xxFAMJAM - Close (FAMILY) xxDNUxx                                                                                           150                                
PRCFAMCHA041201192733192742000009Bullying - The Pledge 2004 (w/o music)                                                                                      150                                
PROFAMCHA041201192742192812000030Mentors (AUG04) (NS) - Tonight @ 11:50pm                                                                                    150                                
PROFAMCHA041201192812192838000026Smart Guy (APR04) - Mon to Thurs @ 11:30pm                                                                                  150                                
PRCFAMCHA041201192838192923000045Famous Players Popcorn Parties                                                                                              150                                
PROFAMCHA041201192923192954000031Son In Law - Premiering Friday @ 9pm                                                                                        150                                
ID FAMCHA041201192954193009000015Nonstop Block Open (:14-:17)                                                                                                150                                
PROFAMCHA041201193009193018000009CC Disclaimer - FAST - Family.ca (:08-:10)                                                                                  150                                
PGRFAMCHA041201193018195248002230Radio Free Roscoe                                 EPS # 37                                                      A05970A1065607ACC                              
PROFAMCHA041201195248195303000015PS - 01(PH) - WTP/Benjamin/Franny                                                                                           150                                
PROFAMCHA041201195303195333000030Celeste in the City (PP/PREM) - Premiering Friday                                                                           150                                
PROFAMCHA041201195333195403000030Double Teamed (SEPT12) - Next Friday @ 7:30pm                                                                               150                                
PRCFAMCHA041201195403195433000030Elf DVD Blast! - On DVD Now (Dec 1 - 14)                                                                                    150                                
PRCFAMCHA041201195433195503000030xxRadio Free Roscoe II - V1 (NS2) - Tonight @ 8:30                                                                          150                                
PROFAMCHA041201195503195548000045Avril Lavigne Blast! (Nov 29 - Dec 15)                                                                                      150                                
PROFAMCHA041201195548195633000045Hoze Houndz (GROCERIES - FALL 2003) - Weekdays @ 6                                                                          150                                
INTFAMCHA041201195633195742000109Gagsters - Candy Surpise                          EP: 46                                                              A20686120                                
PRCFAMCHA041201195742195842000100Bullying - The Pledge 2004 (w/o music)                                                                                      150                                
PROFAMCHA041201195842195912000030Mentors (AUG04) (NS) - Tonight @ 11:50pm                                                                                    150                                
PROFAMCHA041201195912195943000031Son In Law - Premiering Friday @ 9pm                                                                                        150                                
PRCFAMCHA041201195943195952000009Family Bumpers - (Phase 1 Spring 04) - DJ Spinning                                                                          150                                
ID FAMCHA041201195952200009000017Nonstop Block Open (:14-:17)                                                                                                150                                
PRCFAMCHA041201200009200019000010Holly Daze - Special Presentation BBD                                                                                       150                                
PROFAMCHA041201200019200028000009CC Disclaimer - FAST - Family.ca (:08-:10)                                                                                  150                                
PGRFAMCHA041201200028202142002114Boy Meets World                                   EP: 1-100                                                           B6068807BCC                              
PROFAMCHA041201202142202156000014PS - 01(PH) - WTP/Benjamin/Franny                                                                                           150                                
PRCFAMCHA041201202156202204000008Radio Free Roscoe ID (Jan5) - Coming Up Next                                                                                150                                
PROFAMCHA041201202204202234000030UNO Contest (Nov 15 - Dec 5)                                                                                                150                                
PROFAMCHA041201202234202304000030Double Teamed (SEPT12) - Next Friday @ 7:30pm                                                                               150                                
PROFAMCHA041201202304202334000030Juice Box Contest (Nov 15 - Dec 5)                                                                                          150                                
PROFAMCHA041201202334202419000045Hoze Houndz (GROCERIES - FALL 2003) - Weekdays @ 6                                                                          150                                
PROFAMCHA041201202419202429000010FAMJAM - Open/Close                                                                                                         150                                
INTFAMCHA041201202429202659000230MV Disney - (MD/NS/NSW) - Girl Power (Cheetah Girl                                                                     60688120                                
PROFAMCHA041201202659202713000014xxFAMJAM - Close (FAMILY) xxDNUxx                                                                                           150                                
PROFAMCHA041201202713202743000030Mentors (AUG04) (NS) - Tonight @ 11:50pm                                                                                    150                                
PRCFAMCHA041201202743202841000058Family Lab - Commercial - Homeworker                                                                                        150                                
PRCFAMCHA041201202841202856000015xxNonstop - ALL THAT - Mouth                                                                                                150                                
PROFAMCHA041201202856202926000030Knock First (AUG04) (NSW/PM) - Weekends @ 7:50pm                                                                            150                                
PROFAMCHA041201202926202956000030Celeste in the City (PP/PREM) - Premiering Friday                                                                           150                                
ID FAMCHA041201202956203013000017Nonstop Block Open (:14-:17)                                                                                                150                                
PROFAMCHA041201203013203022000009CC Disclaimer - FAST - Family.ca (:08-:10)                                                                                  150                                
PGRFAMCHA041201203022205252002230Radio Free Roscoe                                 EPS # 38                                                      A05971A1065607ACC                              
PROFAMCHA041201205252205307000015Nightly Pix Line-up (SEPT) - GENERIC (:14-:16)                                                                              150                                
PROFAMCHA041201205307205337000030Double Teamed (SEPT12) - Next Friday @ 7:30pm                                                                               150                                
PRCFAMCHA041201205337205407000030Zoo Tycoon 2 Contest (Nov 22 - Dec 19)                                                                                      150                                
PROFAMCHA041201205407205452000045Hoze Houndz (GROCERIES - FALL 2003) - Weekdays @ 6                                                                          150                                
PROFAMCHA041201205452205522000030Mentors (AUG04) (NS) - Tonight @ 11:50pm                                                                                    150                                
PROFAMCHA041201205522205532000010FAMJAM - Open/Close                                                                                                         150                                
INTFAMCHA041201205532205741000209MV Disney - Santa Claus Lane xCHRISTMASx (HILARY D                                                                     60688120                                
PROFAMCHA041201205741205755000014xxFAMJAM - Close (FAMILY) xxDNUxx                                                                                           150                                
PROFAMCHA041201205755205825000030Knock First (AUG04) (NSW/PM) - Weekends @ 7:50pm                                                                            150                                
PRCFAMCHA041201205825205845000020Nonstop - BOY MEETS WORLD - Good Looking                                                                                    150                                
PROFAMCHA041201205845205916000031Son In Law - Premiering Friday @ 9pm                                                                                        150                                
PROFAMCHA041201205916205946000030Celeste in the City (PP/PREM) - Premiering Friday                                                                           150                                
PRCFAMCHA041201205946205958000012Wish List (Mattel) - Billboard 2004                                                                                         150                                
ID FAMCHA041201205958210015000017Nonstop Block Open (:14-:17)                                                                                                150                                
PRCFAMCHA041201210015210025000010Holly Daze - Special Presentation BBD                                                                                       150                                
ID FAMCHA041201210025210033000008Rating - G - Ian (:08-:10)                                                                                                  150                                
PGRFAMCHA041201210033223207013134Ernest Saves Christmas                                                                                                A6068807D                                
PROFAMCHA041201223207223221000014Nonstop - 07(M-T) - BMW/LIFE/MENTORS (:14-:16) (AU                                                                          150                                
ID FAMCHA041201223221223235000014Nonstop Block Open (:14-:17)                                                                                                150                                
PROFAMCHA041201223235223244000009CC Disclaimer - SLOW - Family.ca (:08-:10)                                                                                  150                                
PGRFAMCHA041201223244225503002219Boy Meets World                                   EP: 1-050                                                           B6068807BCC                              
PROFAMCHA041201225503225517000014PS - 01(PH) - WTP/Benjamin/Franny                                                                                           150                                
PROFAMCHA041201225517225602000045Hoze Houndz (GROCERIES - FALL 2003) - Weekdays @ 6                                                                          150                                
PROFAMCHA041201225602225632000030Mentors (AUG04) (NS) - Tonight @ 11:50pm                                                                                    150                                
PROFAMCHA041201225632225642000010FAMJAM - Open/Close                                                                                                         150                                
INTFAMCHA041201225642225812000130MV Disney - Huckaroo (Pixel Perfect)                                                                                   60688120                                
PROFAMCHA041201225812225826000014xxFAMJAM - Close (FAMILY) xxDNUxx                                                                                           150                                
PRCFAMCHA041201225826225858000032Bullying - The Pledge 2004 (w/o music)                                                                                      150                                
PROFAMCHA041201225858225942000044Son In Law - Premiering Friday @ 9pm                                                                                        150                                
PROFAMCHA041201225942230012000030Celeste in the City (PP/PREM) - Premiering Friday                                                                           150                                
ID FAMCHA041201230012230028000016Nonstop Block Open (:14-:17)                                                                                                150                                
PGRFAMCHA041201230028234847004819My So-Called Life                                 EPS # 01                                                             2068807A                                
PROFAMCHA041201234847234901000014PS - 01(PH) - WTP/Benjamin/Franny                                                                                           150                                
PROFAMCHA041201234901234931000030Mentors (AUG04) (NS) - Coming Up Next                                                                                       150                                
PRCFAMCHA041201234931234942000011xxNonstop - ALL THAT - Boring                                                                                               150                                
PROFAMCHA041201234942235012000030Celeste in the City (PP/PREM) - Premiering Friday                                                                           150                                
ID FAMCHA041201235012235026000014Nonstop Block Open (:14-:17)                                                                                                150                                
PROFAMCHA041201235026235034000008CC Disclaimer - SLOW - Family.ca (:08-:10)                                                                                  150                                
PGRFAMCHA041201235034001345002311Mentors                                           EP: 3-033                                                     C18998A1065607ACC                              
PROFAMCHA041201001345001359000014PS - 01(PH) - WTP/Benjamin/Franny                                                                                           150                                
PROFAMCHA041201001359001430000031Son In Law - Premiering Friday @ 9pm                                                                                        150                                
INTFAMCHA041201001430001511000041xxGagsters - Messy Mouth                          EP: 46                                                              A20686120                                
ID FAMCHA041201001511001526000015Nonstop Block Open (:14-:17)                                                                                                150                                
PGRFAMCHA041201001526004000002434Are You Afraid Of The Dark?                       EP: 1-059                                                     SR0306 1066807A                                
PROFAMCHA041201004000004014000014PS - 01(PH) - WTP/Benjamin/Franny                                                                                           150                                
ID FAMCHA041201004014004029000015Nonstop Block Open (:14-:17)                                                                                                150                                
PGRFAMCHA041201004029010039002010Art Attack                                        EP: 1-057                                                            60686110                                
PROFAMCHA041201010039010109000030Celeste in the City (PP/PREM) - Premiering Friday                                                                           150                                
PRCFAMCHA041201010109010128000019Nonstop Weekend - LIZZIE MCGUIRE - Pyramid                                                                                  150                                
PROFAMCHA041201010128010159000031Son In Law - Premiering Friday @ 9pm                                                                                        150                                
PRCFAMCHA041201010159010229000030Astral - Clock (until June 26)                                                                                              150                                
SO FAMCHA041201010229010241000012Sign Off                                                                                                                                                       
OFFFAMCHA041201010241043000032719OFF AIR                                                                                                                                                        
SO FAMCHA041202043000043011000011Sign On (oct 1)                                                                                                                                                
PROFAMCHA041202043011043021000010CC Disclaimer - FAST - Generic (:08-:10)                                                                                    150                                
PGRFAMCHA041202043021045314002253Franklin                                          EP: 3-035                                                     B36670A1065607ECC                              
PROFAMCHA041202045314045328000014PS - 01(PH) - WTP/Benjamin/Franny                                                                                           150                                
ID FAMCHA041202045328045338000010PS Playhouse AM Block Open (:10-:15)                                                                                        150                                
PROFAMCHA041202045338045348000010CC Disclaimer - FAST - Generic (:08-:10)                                                                                    150                                
PGRFAMCHA041202045348051618002230King                                              EP: 006                                                       B75761A1065607ECC                              
PROFAMCHA041202051618051632000014PS - 01(PH) - WTP/Benjamin/Franny                                                                                           150                                
ID FAMCHA041202051632051642000010PS Playhouse AM Block Open (:10-:15)                                                                                        150                                
PGRFAMCHA041202051642054317002635Katie And Orbie                                   EP: 1-013                                                     P16152A1065607E                                
PROFAMCHA041202054317054331000014PS - 01(PH) - WTP/Benjamin/Franny                                                                                           150                                
ID FAMCHA041202054331054341000010PS Playhouse AM Block Open (:10-:15)                                                                                        150                                
PROFAMCHA041202054341054351000010CC Disclaimer - FAST - Generic (:08-:10)                                                                                    150                                
PGRFAMCHA041202054351060644002253Franklin                                          EP: 3-036                                                     B36671A1065607ECC                              
PROFAMCHA041202060644060658000014PS - 01(PH) - WTP/Benjamin/Franny                                                                                           150                                
ID FAMCHA041202060658060708000010PS Playhouse AM Block Open (:10-:15)                                                                                        150                                
PROFAMCHA041202060708060718000010CC Disclaimer - FAST - Generic (:08-:10)                                                                                    150                                
PGRFAMCHA041202060718062951002233Something Else                                    EP: 1-007                                                     B69261A1065607ECC                              
PROFAMCHA041202062951063005000014PS - 01(PH) - WTP/Benjamin/Franny                                                                                           150                                
ID FAMCHA041202063005063017000012xxPower Box Block Open (:10-:15)                                                                                            150                                
PGRFAMCHA041202063017065145002128Daigunder                                         EPS # 35                                                             2068607E                                
PROFAMCHA041202065145065159000014PS - 01(PH) - WTP/Benjamin/Franny                                                                                           150                                
PROFAMCHA041202065159065235000036xxPower Rangers Dino Thunder (LONG/0804) - Coming                                                                           150                                
PRCFAMCHA041202065235065307000032Bullying - The Pledge 2004 (w/o music)                                                                                      150                                
PROFAMCHA041202065307065337000030xxPower Rangers Ninja Storm (AUG04) (PB/WKDAY) - T                                                                          150                                
INTFAMCHA041202065337065418000041xxGagsters - Messy Mouth                          EP: 46                                                              A20686120                                
PROFAMCHA041202065418065448000030Celeste in the City (PP/PREM) - Premiering Tomorro                                                                          150                                
ID FAMCHA041202065448065500000012xxPower Box Block Open (:10-:15)                                                                                            150                                
PGRFAMCHA041202065500071630002130Power Rangers Dino Thunder                        EPS # 24                                                            A6068607E                                
PROFAMCHA041202071630071645000015PS - 01(PH) - WTP/Benjamin/Franny                                                                                           150                                
PROFAMCHA041202071645071715000030Celeste in the City (PP/PREM) - Premiering Tomorro                                                                          150                                
PROFAMCHA041202071715071745000030xxPower Rangers Ninja Storm (AUG04) (PB) - Coming                                                                           150                                
PRCFAMCHA041202071745071835000050Bullying Pledge Bumper - NOV 17 to DEC 31                                                                                   150                                
PRCFAMCHA041202071835071903000028Power Box Block Promo (APR04) - (PB) - Tomorrow @                                                                           150                                
PRCFAMCHA041202071903071938000035Daigunder (PB) - Tomorrow @ 6:30am                                                                                          150                                
INTFAMCHA041202071938072101000123Gagsters -  Framed                                EP: 46                                                              A20686120                                
PROFAMCHA041202072101072137000036xxPower Rangers Dino Thunder (LONG/0804) - Tomorro                                                                          150                                
PRCFAMCHA041202072137072146000009Family Bumpers - (Phase 1 Spring 04) - DJ Spinning                                                                          150                                
ID FAMCHA041202072146072200000014xxPower Box Block Open (:10-:15)                                                                                            150                                
PGRFAMCHA041202072200074325002125Power Rangers Ninja Storm                         EP: 1-001                                                           A6068607E                                
PROFAMCHA041202074325074340000015PS - 01(PH) - WTP/Benjamin/Franny                                                                                           150                                
PROFAMCHA041202074340074410000030Playhouse (FUNTIMES) - (AM) - Weekdays @ 8:30am                                                                       A     150                                
PRCFAMCHA041202074410074428000018Art Attack (CARNIVAL)                                                                                                       150                                
PRCFAMCHA041202074428074500000032xxBenjamin Bear (PH-T/T) - Today @ 8:45am                                                                                   150                                
INTFAMCHA041202074500074630000130MV Disney - (PH) - Walk The Llama Llama                                                                                60688120                                
PROFAMCHA041202074630074659000029Winnie the Pooh (TRAP) (PH/AM) - Today @ 9:10am                                                                             150                                
PROFAMCHA041202074659074738000039Jojo's Circus - (PH/AM) - Weekdays @ 9:45am                                                                                 150                                
PROFAMCHA041202074738074747000009Raven ID's II - You're Watching Family, NADM                                                                                150                                
ID FAMCHA041202074747074800000013PS Playhouse AM Block Open (:10-:15)                                                                                        150                                
PROFAMCHA041202074800074810000010CC Disclaimer - FAST - Generic (:08-:10)                                                                                    150                                
PGRFAMCHA041202074810081048002238Hoze Houndz                                       EP: 5-055                                                     B63391A1065607ECC                              
PROFAMCHA041202081048081103000015PS - 01(PH) - WTP/Benjamin/Franny                                                                                           150                                
PRCFAMCHA041202081103081121000018Art Attack (CARNIVAL)                                                                                                       150                                
PRCFAMCHA041202081121081153000032xxBenjamin Bear (PH-T/T) - Today @ 8:45am                                                                                   150                                
PROFAMCHA041202081153081223000030Playhouse (FUNTIMES) - (AM) - Weekdays @ 8:30am                                                                       A     150                                
PROFAMCHA041202081223081252000029Winnie the Pooh (TRAP) (PH/AM) - Today @ 9:10am                                                                             150                                
INTFAMCHA041202081252081437000145xxDisney Circle Time - The Fox And The Crow (anywh                                                                     60688120                                
PROFAMCHA041202081437081519000042Jojo's Circus - (PH/AM) - Weekdays @ 9:45am                                                                                 150                                
PRCFAMCHA041202081519081549000030xxFranny's Feet (PH-M/W/F) - Tomorrow @ 8:45am                                                                              150                                
ID FAMCHA041202081549081600000011PS Playhouse AM Block Open (:10-:15)                                                                                        150                                
PROFAMCHA041202081600081610000010CC Disclaimer - FAST - Generic (:08-:10)                                                                                    150                                
PGRFAMCHA041202081610084014002404Henry's World                                     EP: 1-010                                                     B66552A1065607GCC                              
PROFAMCHA041202084014084028000014PS - 01(PH) - WTP/Benjamin/Franny                                                                                           150                                
PRCFAMCHA041202084028084100000032xxBenjamin Bear (PH) - Coming Up Next                                                                                       150                                
PROFAMCHA041202084100084129000029Winnie the Pooh (TRAP) (PH/AM) - Today @ 9:10am                                                                             150                                
PROFAMCHA041202084129084159000030Princess Block (NOV04) - Today @ 1pm                                                                                        150                                
INTFAMCHA041202084159084329000130xxDisney Circle Time - Growing Smiles (anywhere bu                                                                     60688120                                
PROFAMCHA041202084329084408000039Jojo's Circus - (PH/AM) - Weekdays @ 9:45am                                                                                 150                                
PROFAMCHA041202084408084452000044xxStanley - (AUG04) - (PH-M/W/F) - Today @ 10:05am                                                                          150                                
ID FAMCHA041202084452084502000010PS Playhouse AM Block Open (:10-:15)                                                                                        150                                
PROFAMCHA041202084502084512000010CC Disclaimer - FAST - Generic (:08-:10)                                                                                    150                                
PGRFAMCHA041202084512090747002235The Secret World Of Benjamin Bear                 EPS # 1-004                                                   A75149A1065607ECC                              
PROFAMCHA041202090747090802000015PS - 01(PH) - WTP/Benjamin/Franny                                                                                           150                                
PROFAMCHA041202090802090831000029Winnie the Pooh (TRAP) (PH/AM) - Coming Up Next                                                                             150                                
PROFAMCHA041202090831090913000042Jojo's Circus - (PH/AM) - Weekdays @ 9:45am                                                                                 150                                
PROFAMCHA041202090913090943000030Playhouse (FUNTIMES) - (AM) - Weekdays @ 8:30am                                                                       A     150                                
PROFAMCHA041202090943091027000044xxStanley - (AUG04) - (PH-M/W/F) - Today @ 10:05am                                                                          150                                
PRCFAMCHA041202091027091133000106Playhouse - WINNIE THE POOH - Christopher Robin                                                                             150                                
PRCFAMCHA041202091133091204000031King (FRIENDS/0804) (PH/AM) - Weekdays @ 11am                                                                               150                                
PRCFAMCHA041202091204091234000030xxFranny's Feet (PH-M/W/F) - Tomorrow @ 8:45am                                                                              150                                
PRCFAMCHA041202091234091246000012Family Bumpers - (Phase 1 Spring 04) - Funhouse (P                                                                          150                                
ID FAMCHA041202091246091300000014PS Playhouse AM Block Open (:10-:15)                                                                                        150                                
PROFAMCHA041202091300091310000010CC Disclaimer - FAST - Generic (:08-:10)                                                                                    150                                
PGRFAMCHA041202091310093627002317The New Adventures of Winnie the Pooh             EP: 1-018                                                            6068607ECC                              
PROFAMCHA041202093627093642000015PS - 01(PH) - WTP/Benjamin/Franny                                                                                           150                                
PROFAMCHA041202093642093724000042Jojo's Circus - (PH/AM) - Weekdays @ 9:45am                                                                                 150                                
PROFAMCHA041202093724093808000044xxStanley - (AUG04) - (PH-M/W/F) - Today @ 10:05am                                                                          150                                
PROFAMCHA041202093808093838000030Princess Block (NOV04) - Today @ 1pm                                                                                        150                                
PRCFAMCHA041202093838093909000031King (FRIENDS/0804) (PH/AM) - Weekdays @ 11am                                                                               150                                
PRCFAMCHA041202093909093939000030xxFranny's Feet (PH-M/W/F) - Tomorrow @ 8:45am                                                                              150                                
PRCFAMCHA041202093939093946000007xxFrankie Muniz ID - You're Watching Family                                                                                 150                                
ID FAMCHA041202093946094000000014PS Playhouse AM Block Open (:10-:15)                                                                                        150                                
PGRFAMCHA041202094000100407002407JoJo's Circus                                     EPS # 02                                                            A6068607E                                
PROFAMCHA041202100407100422000015PS - 01(PH) - WTP/Benjamin/Franny                                                                                           150                                
PROFAMCHA041202100422100506000044xxStanley - (AUG04) - (PH-M/W/F) - Coming Up Next                                                                           150                                
PRCFAMCHA041202100506100537000031King (FRIENDS/0804) (PH/AM) - Weekdays @ 11am                                                                               150                                
PROFAMCHA041202100537100607000030Playhouse (FUNTIMES) - (AM) - Weekdays @ 8:30am                                                                       A     150                                
PRCFAMCHA041202100607100637000030xxFranny's Feet (PH-M/W/F) - Tomorrow @ 8:45am                                                                              150                                
PRCFAMCHA041202100637100723000046Playhouse - STANLEY - Squirrel Song                                                                                         150                                
PROFAMCHA041202100723100748000025Hoze Houndz (Can't Fly) (PH/PM) - Today @ 2:10pm                                                                            150                                
ID FAMCHA041202100748100800000012PS Playhouse AM Block Open (:10-:15)                                                                                        150                                
PGRFAMCHA041202100800103205002405Stanley                                           EPS # 1-054                                                         A6068607E                                
PROFAMCHA041202103205103220000015PS - 01(PH) - WTP/Benjamin/Franny                                                                                           150                                
PRCFAMCHA041202103220103251000031King (FRIENDS/0804) (PH/AM) - Weekdays @ 11am                                                                               150                                
PROFAMCHA041202103251103321000030xxLilo & Stitch (AUG04) - (MD) - Today @ 11:50am                                                                            150                                
PROFAMCHA041202103321103351000030Princess Block (NOV04) - Today @ 1pm                                                                                        150                                
PRCFAMCHA041202103351103421000030xxFranny's Feet (PH-M/W/F) - Tomorrow @ 8:45am                                                                              150                                
PROFAMCHA041202103421103446000025Hoze Houndz (Can't Fly) (PH/PM) - Today @ 2:10pm                                                                            150                                
PRCFAMCHA041202103446103504000018Art Attack (CARNIVAL)                                                                                                       150                                
PROFAMCHA041202103504103548000044xxStanley - (AUG04) - (PH-M/W/F) - Tomorrow @ 10:0                                                                          150                                
ID FAMCHA041202103548103600000012PS Playhouse AM Block Open (:10-:15)                                                                                        150                                
PRCFAMCHA041202103600103610000010Holly Daze - Special Presentation BBD                                                                                       150                                
PGRFAMCHA041202103610110124002514Art Attack                                        EP: 1-091                                                            60686110                                
PROFAMCHA041202110124110138000014PS - 01(PH) - WTP/Benjamin/Franny                                                                                           150                                
PRCFAMCHA041202110138110211000033Wish List (Mattel) - Holly Daze Contest 2004 - Pla                                                                          150                                
ID FAMCHA041202110211110221000010PS Playhouse AM Block Open (:10-:15)                                                                                        150                                
PROFAMCHA041202110221110231000010CC Disclaimer - FAST - Generic (:08-:10)                                                                                    150                                
PGRFAMCHA041202110231112501002230King                                              EPS # 2-026                                                   B75781A1065607ECC                              
PROFAMCHA041202112501112515000014PS - 01(PH) - WTP/Benjamin/Franny                                                                                           150                                
PROFAMCHA041202112515112539000024Jason (Hiking) - Coming Up Next                                                                                             150                                
PROFAMCHA041202112539112609000030xxLilo & Stitch (AUG04) - (MD) - Today @ 11:50am                                                                            150                                
PROFAMCHA041202112609112639000030Celeste in the City (PP/PREM) - Premiering Tomorro                                                                          150                                
ID FAMCHA041202112639112646000007xxLindsay Lohan ID - You're Watching Family                                                                                 150                                
ID FAMCHA041202112646112700000014Mad Dash Block Open (:13-:15)                                                                                               150                                
PGRFAMCHA041202112700114909002209Jason and the Heroes of Mount Olympus             EPS # 21                                                             6068607E                                
PROFAMCHA041202114909114923000014PS - 01(PH) - WTP/Benjamin/Franny                                                                                           150                                
PROFAMCHA041202114923114953000030xxLilo & Stitch (AUG04) - (MD) - Coming Up Next                                                                             150                                
ID FAMCHA041202114953115006000013Mad Dash Block Open (:13-:15)                                                                                               150                                
PGRFAMCHA041202115006121245002239Disney's Lilo & Stitch                            EPS # 33                                                            A6068607E                                
PROFAMCHA041202121245121259000014PS - 01(PH) - WTP/Benjamin/Franny                                                                                           150                                
ID FAMCHA041202121259121312000013Mad Dash Block Open (:13-:15)                                                                                               150                                
PGRFAMCHA041202121312123611002259Disney's Hercules                                 EP: 1-007                                                            6068607E                                
PROFAMCHA041202123611123625000014PS - 01(PH) - WTP/Benjamin/Franny                                                                                           150                                
PRCFAMCHA041202123625123647000022Mad Dash - LIZZIE MCGUIRE - Chase                                                                                           150                                
ID FAMCHA041202123647123700000013Mad Dash Block Open (:13-:15)                                                                                               150                                
PRCFAMCHA041202123700123710000010Holly Daze - Special Presentation BBD                                                                                       150                                
PROFAMCHA041202123710123720000010CC Disclaimer - FAST - Generic (:08-:10)                                                                                    150                                
PGRFAMCHA041202123720130107002347A Goof Troop Christmas                                                                                                A6068807ECC                              
PROFAMCHA041202130107130121000014PS - 01(PH) - WTP/Benjamin/Franny                                                                                           150                                
PRCFAMCHA041202130121130133000012Wish List (Mattel) - Billboard 2004                                                                                         150                                
ID FAMCHA041202130133130143000010PS Playhouse PM Block Open (:10-:15)                                                                                        150                                
PROFAMCHA041202130143130153000010CC Disclaimer - FAST - Generic (:08-:10)                                                                                    150                                
PGRFAMCHA041202130153132455002302The Little Mermaid                                EP: 1-026                                                            6068607ECC                              
PROFAMCHA041202132455132509000014PS - 01(PH) - WTP/Benjamin/Franny                                                                                           150                                
ID FAMCHA041202132509132519000010PS Playhouse PM Block Open (:10-:15)                                                                                        150                                
PROFAMCHA041202132519132529000010CC Disclaimer - FAST - Generic (:08-:10)                                                                                    150                                
PGRFAMCHA041202132529134808002239Disney's Aladdin                                  EP: 1-004                                                            6068607ECC                              
PROFAMCHA041202134808134822000014PS - 22(PH) - DALMATIANS/HOZE/HOUSE (:14-:16) (AUG                                                                          150                                
ID FAMCHA041202134822134832000010PS Playhouse PM Block Open (:10-:15)                                                                                        150                                
PGRFAMCHA041202134832141128002256Disney's 101 Dalmatians: The Series               EPS # 1-007                                                         A6068607E                                
