SO FAMCHA020801043000043011000011Sign On (oct 1)                                                                                                                                                
PROFAMCHA020801043011043019000008CC Is Brought To You By - Ian **DNU AFTER 09/22**                                                                           150                                
PGRFAMCHA020801043019045325002306Out of the Box                                    We're Cooking                                                        60686110CC                              
ID FAMCHA020801045325045336000011Generic ID - soccer                                                                                                         150                                
PROFAMCHA020801045336045350000014Art Attack (ART) - Coming Up                                                                                                150                                
PROFAMCHA020801045350045400000010Preschool Line-Up - 01 - ART/KATIE/DUCKTALES                                                                                150                                
PGRFAMCHA020801045400050858001458Art Attack                                        1-112                                                                60686110                                
ID FAMCHA020801050858050903000005Generic ID - Bubbles*                                                                                                       150                                
PROFAMCHA020801050903050920000017Katie and Orbie (OCT2001) - Coming Up                                                                                       150                                
PROFAMCHA020801050920051041000121Elmo's World (FAM2) - Today @ 8:45am                                                                                        150                                
ID FAMCHA020801051041051101000020Schoolhouse Promo - Coming Up                                                                                               150                                
PROFAMCHA020801051101051127000026DuckTales (CLIP) - Today @ 5:40am                                                                                           150                                
INTFAMCHA020801051127051450000323Schoolhouse Rock - A Victim of Gravity                                                                                A60686120                                
PROFAMCHA020801051450051500000010Preschool Line-Up - 02 - KATIE/DUCKTALES/LULU                                                                               150                                
PROFAMCHA020801051500051508000008CC Is Brought To You By - Lark **DNU AFTER 09/22**                                                                          150                                
PGRFAMCHA020801051508054146002638Katie And Orbie                                   Science/911/Bedspread Painting Party                          C19665A1065607ECC                              
ID FAMCHA020801054146054201000015Generic ID - confetti                                                                                                       150                                
PROFAMCHA020801054201054227000026DuckTales (CLIP) - Coming Up                                                                                                150                                
PRCFAMCHA020801054227054250000023Goof Troop (TV) - Today @ 7am                                                                                               150                                
PROFAMCHA020801054250054300000010Preschool Line-Up - 03 - DUCKTALES/LULU/FRANKLIN                                                                            150                                
PROFAMCHA020801054300054308000008CC Is Brought To You By - Ian **DNU AFTER 09/22**                                                                           150                                
PGRFAMCHA020801054308060559002251Disney's DuckTales                                Bubba Trubba (part 3 - Time Is Money)                               A6068607ECC                              
ID FAMCHA020801060559060609000010Generic ID - confetti                                                                                                       150                                
PROFAMCHA020801060609060622000013Little Lulu (SWEEP) - Coming Up                                                                                             150                                
PROFAMCHA020801060622060650000028Stanley (ELEPHANT) - Today @ 9:05am                                                                                         150                                
PROFAMCHA020801060650060700000010Preschool Line-Up - 04 - LULU/FRANKLIN/GOOF                                                                                 150                                
PROFAMCHA020801060700060708000008CC Is Brought To You By - Lark **DNU AFTER 09/22**                                                                          150                                
PGRFAMCHA020801060708063100002352Little Lulu Show; The                             Popcorn Theif/The Little Tornando/She Flies Throug            C19509A1065607ECC                              
ID FAMCHA020801063100063105000005Generic ID - Couch 1*                                                                                                       150                                
PROFAMCHA020801063105063115000010Preschool Line-Up - 05 - FRANKLIN/GOOF/BUZZ                                                                                 150                                
PROFAMCHA020801063115063123000008CC Is Brought To You By - Ian **DNU AFTER 09/22**                                                                           150                                
PGRFAMCHA020801063123065416002253Franklin                                          Franklin Wants A Pet/Franklin Plays The Game                  B10180A1065607ECC                              
ID FAMCHA020801065416065421000005Generic ID - Couch 2*                                                                                                       150                                
PRCFAMCHA020801065421065454000033Henry's World (PARTY) - Coming Soon                                                                                         150                                
ID FAMCHA020801065454065514000020Schoolhouse Promo - Coming Up                                                                                               150                                
PRCFAMCHA020801065514065552000038Funshine 2002 - GENERIC TOUR SPOT                                                                                           150                                
PRCFAMCHA020801065552065617000025Funshine 2002 - Spot #12 - JUL 29 TO AUG 04                                                                                 150                                
INTFAMCHA020801065617065940000323Schoolhouse Rock - Three Is a Magic Number                                                                            A60686120                                
PROFAMCHA020801065940065950000010Preschool Line-Up - 06 - GOOF/BUZZ/ART                                                                                      150                                
ID FAMCHA020801065950070000000010xxMagic of Disney - V2(sky) - KID FEMALE                                                                                    150                                
PROFAMCHA020801070000070008000008CC Is Brought To You By - Lark **DNU AFTER 09/22**                                                                          150                                
PGRFAMCHA020801070008072256002248Goof Troop                                        Good Neighbour Goof                                                  6068607ECC                              
ID FAMCHA020801072256072306000010Generic ID - Family w/dog                                                                                                   150                                
PRCFAMCHA020801072306072333000027Henry's World (WISH) - Coming Soon                                                                                          150                                
PROFAMCHA020801072333072351000018Buzz Lightyear (DO YOUR BEST) - Coming Up                                                                                   150                                
PROFAMCHA020801072351072521000130Family BLAST Interstitial #1 - In Theatres August                                                                           150                                
ID FAMCHA020801072521072534000013Schoolhouse Promo - Coming Up                                                                                               150                                
PROFAMCHA020801072534072613000039House of Mouse (DOOR) - Weekends @ 3:50pm                                                                                   150                                
INTFAMCHA020801072613072936000323Schoolhouse Rock - My Hero, Zero                                                                                      A60686120                                
PROFAMCHA020801072936072950000014Art Attack (ART) - Today @ 8am                                                                                              150                                
PROFAMCHA020801072950073003000013Preschool Line-Up - 07 - BUZZ/ART/LULU                                                                                      150                                
PGRFAMCHA020801073003075246002243Disney/Pixar's Buzz Lightyear of Star Command     Return to Karn                                                      A6068607E                                
ID FAMCHA020801075246075256000010Generic ID - Bubbles                                                                                                        150                                
PRCFAMCHA020801075256075329000033Henry's World (PARTY) - Coming Soon                                                                                         150                                
PROFAMCHA020801075329075343000014Art Attack (ART) - Coming Up                                                                                                150                                
PROFAMCHA020801075343075513000130Family BLAST Interstitial #1 - In Theatres August                                                                           150                                
PROFAMCHA020801075513075526000013Little Lulu (SWEEP) - Today @ 8:20am                                                                                        150                                
INTFAMCHA020801075526075730000204MV Disney - You've Got A Friend In Me (RANDY NEWMA                                                                     60688120                                
PRCFAMCHA020801075730075808000038Funshine 2002 - GENERIC TOUR SPOT                                                                                           150                                
PRCFAMCHA020801075808075833000025Funshine 2002 - Spot #12 - JUL 29 TO AUG 04                                                                                 150                                
PROFAMCHA020801075833075954000121Elmo's World (FAM2) - Weekdays @ 8:45am                                                                                     150                                
PROFAMCHA020801075954080006000012Preschool Line-Up - 08 - ART/LULU/ELMO                                                                                      150                                
PGRFAMCHA020801080006081511001505Art Attack                                        1-134                                                               A60686110                                
PROFAMCHA020801081511081524000013Little Lulu (SWEEP) - Coming Up                                                                                             150                                
PROFAMCHA020801081524081550000026Elmo's World (FAM1) - Today @ 12:45pm                                                                                       150                                
ID FAMCHA020801081550081605000015Schoolhouse Promo - Coming Up                                                                                               150                                
PROFAMCHA020801081605081615000010Kidsummer 2002 - Ford                                                                                                       150                                
INTFAMCHA020801081615081938000323Schoolhouse Rock - Verb: That's What's Happening                                                                      A60686120                                
PROFAMCHA020801081938082018000040Buzz Lightyear (TRANDIBULATOR) - Today @ 4pm                                                                                150                                
PRCFAMCHA020801082018082045000027Franklin (SUB) - Today @ 12:25pm                                                                                            150                                
PROFAMCHA020801082045082058000013Preschool Line-Up - 09 - LULU/ELMO/STANLEY                                                                                  150                                
PROFAMCHA020801082058082106000008CC Is Brought To You By - Ian **DNU AFTER 09/22**                                                                           150                                
PGRFAMCHA020801082106084438002332Little Lulu Show; The                             Bowlfinger/Great Tubbini                                      B20191A1065607E                                
ID FAMCHA020801084438084444000006Generic ID - soccer                                                                                                         150                                
PROFAMCHA020801084444084502000018Elmo's World (FAM3) - Coming Up                                                                                             150                                
PROFAMCHA020801084502084509000007PB&J Otter (AUG2001) - Kite - Today @ 9:30am                                                                                150                                
PROFAMCHA020801084509084548000039House of Mouse (DOOR) - Weekends @ 3:50pm                                                                                   150                                
PROFAMCHA020801084548084559000011Preschool Line-Up - 10 - ELMO/STANLEY/PB&J                                                                                  150                                
PGRFAMCHA020801084559085935001336Elmo's World                                      Jackets                                                             A2068607G                                
ID FAMCHA020801085935085945000010Generic ID - Pink inner tube                                                                                                150                                
PROFAMCHA020801085945090007000022Stanley (ANTELOPE) - Coming Up                                                                                              150                                
PRCFAMCHA020801090007090030000023Goof Troop (TV) - Weekdays @ 7am                                                                                            150                                
PROFAMCHA020801090030090040000010Kidsummer 2002 - Kellogg's                                                                                                  150                                
INTFAMCHA020801090040090328000248Art Attack - Magic Carpet                                                                                              60688120                                
PROFAMCHA020801090328090449000121Elmo's World (FAM2) - Today @ 12:45pm                                                                                       150                                
PROFAMCHA020801090449090501000012Preschool Line-Up - 11 - STANLEY/PB&J/KATIE                                                                                 150                                
PROFAMCHA020801090501090509000008CC Is Brought To You By - Lark **DNU AFTER 09/22**                                                                          150                                
PGRFAMCHA020801090509092907002358Stanley                                           Dolphin Talk/Whole Lotta' Snakin' Goin' On'                         A6068607ECC                              
ID FAMCHA020801092907092917000010Generic ID - Ring around the rosie                                                                                          150                                
PROFAMCHA020801092917092924000007PB&J Otter (AUG2001) - Kite - Coming Up                                                                                     150                                
PRCFAMCHA020801092924092951000027Franklin (SUB) - Today @ 12:25pm                                                                                            150                                
PROFAMCHA020801092951093001000010Preschool Line-Up - 12 - PB&J/KATIE/WTP                                                                                     150                                
PROFAMCHA020801093001093009000008CC Is Brought To You By - Ian **DNU AFTER 09/22**                                                                           150                                
PGRFAMCHA020801093009095339002330PB&J Otter                                        On The Right Track/ Itchy Situation                                 A6068607ECC                              
ID FAMCHA020801095339095354000015Generic ID - confetti                                                                                                       150                                
PROFAMCHA020801095354095411000017Katie and Orbie (OCT2001) - Coming Up                                                                                       150                                
PROFAMCHA020801095411095451000040Buzz Lightyear (TRANDIBULATOR) - Today @ 4pm                                                                                150                                
PROFAMCHA020801095451095501000010Preschool Line-Up - 13 - KATIE/WTP/OOTB                                                                                     150                                
PROFAMCHA020801095501095509000008CC Is Brought To You By - Lark **DNU AFTER 09/22**                                                                          150                                
PGRFAMCHA020801095509102144002635Katie And Orbie                                   Garage Sale/Big Heart/How Does The Band Fit                   C11896A1065607ECC                              
ID FAMCHA020801102144102150000006Generic ID - soccer                                                                                                         150                                
PROFAMCHA020801102150102215000025New Adv of WTP (TREE) - Coming Up                                                                                           150                                
PROFAMCHA020801102215102241000026Stanley (BABY PICS) - Today @ 1:05pm                                                                                        150                                
PROFAMCHA020801102241102251000010Preschool Line-Up - 14 - WTP/OOTB/DUCKTALES                                                                                 150                                
ID FAMCHA020801102251102301000010xxMagic of Disney - V2(sky) - KID MALE                                                                                      150                                
PROFAMCHA020801102301102309000008CC Is Brought To You By - Ian **DNU AFTER 09/22**                                                                           150                                
PGRFAMCHA020801102309104555002246New Adventures of Winnie the Pooh; The            Great Honey Pot Robbery                                              6068607ECC                              
ID FAMCHA020801104555104601000006Generic ID - soccer                                                                                                         150                                
PROFAMCHA020801104601104616000015Out of the Box - Coming Up                                                                                                  150                                
PROFAMCHA020801104616104651000035Legend of Tarzan (PICKS&NIBBLES-D12/WKNDS) - Today                                                                          150                                
PROFAMCHA020801104651104701000010Preschool Line-Up - 15 - OOTB/DUCKTALES/HOZE                                                                                150                                
PROFAMCHA020801104701104709000008CC Is Brought To You By - Lark **DNU AFTER 09/22**                                                                          150                                
PGRFAMCHA020801104709110930002221Out of the Box                                    Scrub a Dub                                                          60686110CC                              
ID FAMCHA020801110930110945000015Generic ID - confetti                                                                                                       150                                
PROFAMCHA020801110945111011000026DuckTales (CLIP) - Coming Up                                                                                                150                                
PROFAMCHA020801111011111051000040Buzz Lightyear (TRANDIBULATOR) - Today @ 4pm                                                                                150                                
PROFAMCHA020801111051111101000010Preschool Line-Up - 16 - DUCKTALES/HOZE/LULU                                                                                150                                
PROFAMCHA020801111101111109000008CC Is Brought To You By - Ian **DNU AFTER 09/22**                                                                           150                                
PGRFAMCHA020801111109113400002251Disney's DuckTales                                Bubba Trubba (part 3 - Time Is Money)                               A6068607ECC                              
ID FAMCHA020801113400113406000006Generic ID - soccer                                                                                                         150                                
PROFAMCHA020801113406113424000018Hoze Houndz (FOOD) - Coming Up                                                                                              150                                
PRCFAMCHA020801113424113451000027Henry's World (WISH) - Coming Soon                                                                                          150                                
PROFAMCHA020801113451113501000010Preschool Line-Up - 17 - HOZE/LULU/FRANKLIN                                                                                 150                                
PROFAMCHA020801113501113509000008CC Is Brought To You By - Lark **DNU AFTER 09/22**                                                                          150                                
PGRFAMCHA020801113509115749002240Hoze Houndz                                       High Noon Hozer/Win, Place Or Show Off                        B45779A1065607ECC                              
ID FAMCHA020801115749115804000015Generic ID - confetti                                                                                                       150                                
PROFAMCHA020801115804115817000013Little Lulu (SWEEP) - Coming Up                                                                                             150                                
PROFAMCHA020801115817115852000035Legend of Tarzan (PICKS&NIBBLES-D12/WKNDS) - Today                                                                          150                                
PROFAMCHA020801115852115904000012Preschool Line-Up - 18 - LULU/FRANKLIN/ELMO                                                                                 150                                
PROFAMCHA020801115904115911000007CC Is Brought To You By - Ian                                                                                               150                                
PGRFAMCHA020801115911122243002332Little Lulu Show; The                             Polly Patrol/Money Problems                                   B20192A1065607ECC                              
ID FAMCHA020801122243122254000011Generic ID - soccer                                                                                                         150                                
PRCFAMCHA020801122254122321000027Franklin (FIXIT) - Coming Up                                                                                                150                                
PROFAMCHA020801122321122352000031Hoze Houndz (TEETH) - Today @ 3:35pm                                                                                        150                                
PROFAMCHA020801122352122402000010Preschool Line-Up - 19 - FRANKLIN/ELMO/STANLEY                                                                              150                                
PROFAMCHA020801122402122411000009CC Is Brought To You By - Lark                                                                                              150                                
PGRFAMCHA020801122411124704002253Franklin                                          Hurry Up Franklin/Franklin's Bad Day                          B10181A1065607ECC                              
ID FAMCHA020801124704124709000005Generic ID - Couch 1*                                                                                                       150                                
PROFAMCHA020801124709124735000026Elmo's World (FAM1) - Coming Up                                                                                             150                                
PROFAMCHA020801124735124753000018Buzz Lightyear (DO YOUR BEST) - Today @ 4pm                                                                                 150                                
PROFAMCHA020801124753124803000010Preschool Line-Up - 20 - ELMO/STANLEY/PB&J                                                                                  150                                
PGRFAMCHA020801124803130448001645Elmo's World                                      Food                                                                A2068607G                                
ID FAMCHA020801130448130453000005Generic ID - Couch 2*                                                                                                       150                                
PROFAMCHA020801130453130515000022Stanley (ANTELOPE) - Coming Up                                                                                              150                                
PROFAMCHA020801130515130532000017Katie and Orbie (OCT2001) - Today @ 1:55pm                                                                                  150                                
PROFAMCHA020801130532130603000031Hoze Houndz (TEETH) - Today @ 3:35pm                                                                                        150                                
PROFAMCHA020801130603130613000010Kidsummer 2002 - Rogers Video                                                                                               150                                
PROFAMCHA020801130613130628000015Out of the Box - Today @ 2:45pm                                                                                             150                                
PROFAMCHA020801130628130653000025New Adv of WTP (TREE) - Today @ 2:25pm                                                                                      150                                
PROFAMCHA020801130653130705000012Preschool Line-Up - 21 - STANLEY/PB&J/KATIE                                                                                 150                                
PROFAMCHA020801130705130713000008CC Is Brought To You By - Ian **DNU AFTER 09/22**                                                                           150                                
PGRFAMCHA020801130713133111002358Stanley                                           Platypus Problems/Rabbit Habit                                      A6068607ECC                              
ID FAMCHA020801133111133121000010Generic ID - Family w/dog                                                                                                   150                                
PROFAMCHA020801133121133128000007PB&J Otter (AUG2001) - Kite - Coming Up                                                                                     150                                
PRCFAMCHA020801133128133155000027Franklin (FIXIT) - Weekdays @ 12:25pm                                                                                       150                                
PROFAMCHA020801133155133208000013Preschool Line-Up - 22 - PB&J/KATIE/WTP                                                                                     150                                
PROFAMCHA020801133208133216000008CC Is Brought To You By - Lark **DNU AFTER 09/22**                                                                          150                                
PGRFAMCHA020801133216135546002330PB&J Otter                                        Big Surprise/Bazania Mania                                           6068607ECC                              
ID FAMCHA020801135546135551000005Generic ID - Fingerpaint                                                                                                    150                                
PROFAMCHA020801135551135608000017Katie and Orbie (OCT2001) - Coming Up                                                                                       150                                
PROFAMCHA020801135608135643000035Legend of Tarzan (PICKS&NIBBLES-D12/WKNDS) - Today                                                                          150                                
PROFAMCHA020801135643135654000011Preschool Line-Up - 23 - KATIE/WTP/OOTB                                                                                     150                                
PROFAMCHA020801135654135702000008CC Is Brought To You By - Ian **DNU AFTER 09/22**                                                                           150                                
PGRFAMCHA020801135702142337002635Katie And Orbie                                   Close To My Heart/Frozen Fish Cafe/Katie's First..            C11896A1065607ECC                              
ID FAMCHA020801142337142347000010Generic ID - Hula Hoop                                                                                                      150                                
PROFAMCHA020801142347142412000025New Adv of WTP (TREE) - Coming Up                                                                                           150                                
PROFAMCHA020801142412142434000022Legend of Tarzan (MY JEWEL-D12/WKNDS) - Today @ 5p                                                                          150                                
PROFAMCHA020801142434142444000010Preschool Line-Up - 24 - WTP/OOTB/DUCKTALES                                                                                 150                                
ID FAMCHA020801142444142455000011xxMagic of Disney - V3(water) - TEEN FEMALE                                                                                 150                                
PROFAMCHA020801142455142503000008CC Is Brought To You By - Lark **DNU AFTER 09/22**                                                                          150                                
PGRFAMCHA020801142503144746002243New Adventures of Winnie the Pooh; The            Stripes/Monkey See, Monkey Do Better                                 6068607ECC                              
ID FAMCHA020801144746144751000005Generic ID - Marbles                                                                                                        150                                
PROFAMCHA020801144751144806000015Out of the Box - Coming Up                                                                                                  150                                
PROFAMCHA020801144806144845000039Weekenders (CLOSET) - Weekends @ 4:40pm                                                                                     150                                
PROFAMCHA020801144845144900000015Preschool Line-Up - 25 - OOTB/DUCKTALES/HOZE                                                                                150                                
PROFAMCHA020801144900144908000008CC Is Brought To You By - Ian **DNU AFTER 09/22**                                                                           150                                
PGRFAMCHA020801144908151144002236Out of the Box                                    Blowin'in the Wind                                                   60686110CC                              
ID FAMCHA020801151144151154000010Generic ID - Pink inner tube                                                                                                150                                
PROFAMCHA020801151154151220000026DuckTales (CLIP) - Coming Up                                                                                                150                                
PROFAMCHA020801151220151250000030House of Mouse (MAR2002) - Weekends @ 3:50pm                                                                                150                                
PROFAMCHA020801151250151300000010Preschool Line-Up - 26 - DUCKTALES/HOZE/BUZZ                                                                                150                                
PROFAMCHA020801151300151308000008CC Is Brought To You By - Lark **DNU AFTER 09/22**                                                                          150                                
PGRFAMCHA020801151308153558002250Disney's DuckTales                                Ducks On The Lam (part 4 - Time Is Money)                           A6068607ECC                              
ID FAMCHA020801153558153608000010Generic ID - Ring around the rosie                                                                                          150                                
PRCFAMCHA020801153608153641000033Henry's World (PARTY) - Coming Soon                                                                                         150                                
PROFAMCHA020801153641153650000009PB&J Otter (AUG2001) - Open - Weekdays @ 9:30am                                                                             150                                
PROFAMCHA020801153650153700000010Preschool Line-Up - 27 - HOZE/BUZZ                                                                                          150                                
PROFAMCHA020801153700153708000008CC Is Brought To You By - Ian **DNU AFTER 09/22**                                                                           150                                
PGRFAMCHA020801153708155948002240Hoze Houndz                                       Byte-Sized/Attack Of The 50 Foot Barber                       B45780A1065607ECC                              
ID FAMCHA020801155948155953000005Generic ID - Bubbles*                                                                                                       150                                
ID FAMCHA020801155953160003000010xxMagic of Disney - V3(water) - TEEN MALE                                                                                   150                                
PROFAMCHA020801160003160033000030Disney's One Too - Opening                                                                                                  150                                
PROFAMCHA020801160033160041000008CC Is Brought To You By - Games                                                                                             150                                
PGRFAMCHA020801160041162321002240Disney/Pixar's Buzz Lightyear of Star Command     Little Secrets                                                       6068607ECC                              
ID FAMCHA020801162321162327000006Generic ID - soccer                                                                                                         150                                
PRCFAMCHA020801162327162400000033Henry's World (PARTY) - Coming Soon                                                                                         150                                
PROFAMCHA020801162400162428000028Recess (LOGIC-D12/WKNDS) - Today @ 5:30pm                                                                                   150                                
PROFAMCHA020801162428162558000130Family BLAST Interstitial #1 - In Theatres August                                                                           150                                
PROFAMCHA020801162558162617000019House of Mouse (PINOCCHIO) - Weekends @ 3:50pm                                                                              150                                
PRCFAMCHA020801162617162655000038Funshine 2002 - GENERIC TOUR SPOT                                                                                           150                                
PRCFAMCHA020801162655162720000025Funshine 2002 - Spot #12 - JUL 29 TO AUG 04                                                                                 150                                
PROFAMCHA020801162720162750000030Lizzie McGuire (KATE) - Weekends @ 8am                                                                                      150                                
PROFAMCHA020801162750162820000030Be A Spy Kid Contest - In Theatres August 7th                                                                               150                                
PROFAMCHA020801162820162904000044Funshine Contest Spot                                                                                                       150                                
PROFAMCHA020801162904162932000028SPDF - AUG04 - Sunday @ 12pm                                                                                                150                                
PRCFAMCHA020801162932162942000010Morning Block menu background (flex time)                                                                                   150                                
ID FAMCHA020801162942163000000018Afternoon block pinball open                                                                                                150                                
PROFAMCHA020801163000163030000030Disney's One Too - Opening                                                                                                  150                                
PROFAMCHA020801163030163038000008CC Is Brought To You By - Click Club                                                                                        150                                
PGRFAMCHA020801163038165310002232Disney's Pepper Ann                               Live and Let Dye                                                     6068607ECC                              
ID FAMCHA020801165310165315000005Generic ID - Bubbles*                                                                                                       150                                
PROFAMCHA020801165315165343000028SPDF - AUG04 - Sunday @ 12pm                                                                                                150                                
PROFAMCHA020801165343165405000022Legend of Tarzan (MY JEWEL-D12/WKNDS) - Coming Up                                                                           150                                
PROFAMCHA020801165405165449000044Funshine Contest Spot                                                                                                       150                                
PROFAMCHA020801165449165529000040Buzz Lightyear (TRANDIBULATOR) - Weekdays @ 4pm                                                                             150                                
PROFAMCHA020801165529165559000030Be A Spy Kid Contest - In Theatres August 7th                                                                               150                                
PROFAMCHA020801165559165636000037Amanda Show (CLEAN) - Tonight @ 6pm                                                                                         150                                
PROFAMCHA020801165636165731000055Go To Nick With Nic - "Fun 'N Wheels"                                                                                       150                                
PROFAMCHA020801165731165741000010Kidsummer 2002 - Toronto Blue Jays                                                                                          150                                
PROFAMCHA020801165741165911000130Family BLAST Interstitial #1 - In Theatres August                                                                           150                                
PROFAMCHA020801165911165932000021xxSmart Guy (KEYBOARD) - Weekends @ 7:30am **DNU*                                                                           150                                
PRCFAMCHA020801165932165942000010Morning Block menu background (flex time)                                                                                   150                                
ID FAMCHA020801165942170000000018Afternoon block pinball open                                                                                                150                                
PROFAMCHA020801170000170030000030Disney's One Too - Opening                                                                                                  150                                
PGRFAMCHA020801170030172315002245Disney's The Legend of Tarzan                     Outbreak                                                            A6068607E                                
ID FAMCHA020801172315172320000005Generic ID - Bubbles*                                                                                                       150                                
PRCFAMCHA020801172320172347000027Henry's World (WISH) - Coming Soon                                                                                          150                                
PROFAMCHA020801172347172414000027Recess (FRIENDSHIP-D12/WKNDS) - Coming Up                                                                                   150                                
PRCFAMCHA020801172414172452000038Funshine 2002 - GENERIC TOUR SPOT                                                                                           150                                
PRCFAMCHA020801172452172517000025Funshine 2002 - Spot #12 - JUL 29 TO AUG 04                                                                                 150                                
PROFAMCHA020801172517172550000033Your Big Break (MADONNA) - Sunday @ 8pm                                                                                     150                                
PROFAMCHA020801172550172620000030Be A Spy Kid Contest - In Theatres August 7th                                                                               150                                
PROFAMCHA020801172620172650000030Lizzie McGuire (KATE) - Weekends @ 8am                                                                                      150                                
PROFAMCHA020801172650172820000130Family BLAST Interstitial #1 - In Theatres August                                                                           150                                
PROFAMCHA020801172820172904000044Funshine Contest Spot                                                                                                       150                                
PROFAMCHA020801172904172932000028SPDF - AUG04 - Sunday @ 12pm                                                                                                150                                
PRCFAMCHA020801172932172942000010Morning Block menu background (flex time)                                                                                   150                                
ID FAMCHA020801172942173000000018Afternoon block pinball open                                                                                                150                                
PROFAMCHA020801173000173030000030Disney's One Too - Opening                                                                                                  150                                
PGRFAMCHA020801173030175321002251Disney's Recess                                   Lawson And His Crew                                                 A6068607E                                
ID FAMCHA020801175321175326000005Generic ID - Bubbles*                                                                                                       150                                
PROFAMCHA020801175326175354000028SPDF - AUG04 - Sunday @ 12pm                                                                                                150                                
PROFAMCHA020801175354175441000047Amanda Show (DOG) - Coming Up                                                                                               150                                
PROFAMCHA020801175441175525000044Funshine Contest Spot                                                                                                       150                                
PROFAMCHA020801175525175630000105Your Big Break (CHRISTINA) - Sunday @ 8pm                                                                                   150                                
PROFAMCHA020801175630175700000030Be A Spy Kid Contest - In Theatres August 7th                                                                               150                                
PROFAMCHA020801175700175721000021xxSmart Guy (KEYBOARD) - Weekends @ 7:30am **DNU*                                                                           150                                
PROFAMCHA020801175721175851000130Family BLAST Interstitial #1 - In Theatres August                                                                           150                                
PROFAMCHA020801175851175929000038Totally Hoops (NATIONALS) - Weekends @ 11:35am                                                                              150                                
PRCFAMCHA020801175929175939000010Morning Block menu background (flex time)                                                                                   150                                
ID FAMCHA020801175939180000000021Prime time open count down                                                                                                  150                                
PGRFAMCHA020801180000182205002205Amanda Show; The                                  2-024                                                               A20686090                                
ID FAMCHA020801182205182220000015Generic ID - confetti                                                                                                       150                                
PROFAMCHA020801182220182248000028SPDF - AUG04 - Sunday @ 12pm                                                                                                150                                
PROFAMCHA020801182248182318000030Even Stevens (GUITAR) - Coming Up                                                                                           150                                
PRCFAMCHA020801182318182356000038Funshine 2002 - GENERIC TOUR SPOT                                                                                           150                                
PRCFAMCHA020801182356182421000025Funshine 2002 - Spot #12 - JUL 29 TO AUG 04                                                                                 150                                
PROFAMCHA020801182421182451000030Nightmare Ned (SLEEP) - Weekends @ 3:25pm                                                                                   150                                
INTFAMCHA020801182451182911000420Art Attack - Kit Flier                                                                                                 60686120                                
PROFAMCHA020801182911182941000030Famous Jett Jackson - Tonight @ 7pm (WKNGHTS)                                                                               150                                
PRCFAMCHA020801182941182950000009Morning Block menu background (flex time)                                                                                   150                                
ID FAMCHA020801182950183000000010xxMagic of Disney - V4 - ADULT FEMALE                                                                                       150                                
PROFAMCHA020801183000183008000008CC Is Brought To You By - Games                                                                                             150                                
PGRFAMCHA020801183008185250002242Even Stevens                                      Swap.Com                                                            A6068807BCC                              
ID FAMCHA020801185250185301000011Generic ID - soccer                                                                                                         150                                
PROFAMCHA020801185301185329000028SPDF - AUG04 - Sunday @ 12pm                                                                                                150                                
PROFAMCHA020801185329185359000030Famous Jett Jackson - Coming Up                                                                                             150                                
PROFAMCHA020801185359185443000044Funshine Contest Spot                                                                                                       150                                
PROFAMCHA020801185443185530000047Amanda Show (DOG) - Weeknights @ 6pm                                                                                        150                                
PROFAMCHA020801185530185700000130Family BLAST Interstitial #1 - In Theatres August                                                                           150                                
PROFAMCHA020801185700185733000033Totally Circus (MAR) - Weekends @ 11:10am                                                                                   150                                
INTFAMCHA020801185733185903000130Klootz - Espace 06                                                                                                    A10658120                                
PROFAMCHA020801185903185928000025xxSmart Guy (DATE) - Weekends @ 7:30am **DNU**                                                                              150                                
PRCFAMCHA020801185928185939000011Morning Block menu background (flex time)                                                                                   150                                
ID FAMCHA020801185939190000000021Prime time open count down                                                                                                  150                                
PROFAMCHA020801190000190008000008CC Is Brought To You By - Click Club                                                                                        150                                
PGRFAMCHA020801190008192441002433Famous Jett Jackson; The                          Par For The Course                                            B57122 1065607ACC                              
ID FAMCHA020801192441192448000007Generic ID - Whisper*                                                                                                       150                                
PROFAMCHA020801192448192516000028SPDF - AUG04 - Sunday @ 12pm                                                                                                150                                
PROFAMCHA020801192516192540000024Honey, I Shrunk the Kids (AUG2001) - Tonight @ 8pm                                                                          150                                
PROFAMCHA020801192540192710000130Family BLAST Interstitial #1 - In Theatres August                                                                           150                                
PROFAMCHA020801192710192815000105Your Big Break (CHRISTINA) - Sunday @ 8pm                                                                                   150                                
PROFAMCHA020801192815192859000044Funshine Contest Spot                                                                                                       150                                
PROFAMCHA020801192859192929000030Are You Afraid of the Dark? (PT.1) - Tonight @ 8:4                                                                          150                                
PRCFAMCHA020801192929192939000010Morning Block menu background (flex time)                                                                                   150                                
ID FAMCHA020801192939193000000021Prime time open count down                                                                                                  150                                
PROFAMCHA020801193000193008000008CC Is Brought To You By - Games                                                                                             150                                
PGRFAMCHA020801193008195137002129ALF                                               Torn Between Two Lovers                                             A2068807BCC                              
ID FAMCHA020801195137195142000005Generic ID - Couch 2*                                                                                                       150                                
PROFAMCHA020801195142195210000028SPDF - AUG04 - Sunday @ 12pm                                                                                                150                                
PROFAMCHA020801195210195234000024Honey, I Shrunk the Kids (AUG2001) - Coming Up                                                                              150                                
PROFAMCHA020801195234195244000010MV FAMJAM - Teaser (Generic)                                                                                                150                                
PRCFAMCHA020801195244195308000024Jersey (FOOTBALL) - Weekends @ 9:50am                                                                                       150                                
INTFAMCHA020801195308195639000331xMV - Frontin' On Me (Velvet Empire)                                                                                  A10658120                                
PROFAMCHA020801195639195649000010MV Web Throw - music@family.ca                                                                                              150                                
PRCFAMCHA020801195649195727000038Funshine 2002 - GENERIC TOUR SPOT                                                                                           150                                
PRCFAMCHA020801195727195752000025Funshine 2002 - Spot #12 - JUL 29 TO AUG 04                                                                                 150                                
PROFAMCHA020801195752195922000130Family BLAST Interstitial #1 - In Theatres August                                                                           150                                
PROFAMCHA020801195922195940000018Buzz Lightyear (DO YOUR BEST) - Weekdays @ 4pm                                                                              150                                
PRCFAMCHA020801195940195950000010Morning Block menu background (flex time)                                                                                   150                                
ID FAMCHA020801195950200000000010xxMagic of Disney - V4 - ADULT MALE                                                                                         150                                
PGRFAMCHA020801200000204314004314Disney's Honey, I Shrunk The Kids: The TV Show    We're Past Tense                                                     6068807B                                
ID FAMCHA020801204314204324000010Generic ID - Family w/dog                                                                                                   150                                
PROFAMCHA020801204324204352000028SPDF - AUG04 - Sunday @ 12pm                                                                                                150                                
PROFAMCHA020801204352204422000030Are You Afraid of the Dark? (PT.1) - Coming Up                                                                              150                                
PROFAMCHA020801204422204439000017Bug Juice - Weekends @ 10:40am                                                                                              150                                
ID FAMCHA020801204439204500000021Prime time open count down                                                                                                  150                                
PROFAMCHA020801204500204508000008CC Is Brought To You By - Click Club                                                                                        150                                
PGRFAMCHA020801204508205917001409Are You Afraid of the Dark?                       Highway 13 Pt.1                                               SR0308A1066807ACC                              
ID FAMCHA020801205917205922000005Generic ID - Fingerpaint                                                                                                    150                                
PROFAMCHA020801205922205940000018Buzz Lightyear (DO YOUR BEST) - Weekdays @ 4pm                                                                              150                                
ID FAMCHA020801205940210000000020Move open family size movie                                                                                                 150                                
PROFAMCHA020801210000210008000008Rating - G - Ian                                                                                                            150                                
PROFAMCHA020801210008210016000008CC Is Brought To You By - Click Club                                                                                        150                                
PGRFAMCHA020801210016222700012644Borrowers; The                                                                                                        A2068807DCC                              
ID FAMCHA020801222700222705000005Generic ID - Bubbles*                                                                                                       150                                
PROFAMCHA020801222705222713000008CC Is Brought To You By - Games                                                                                             150                                
PGRFAMCHA020801222713224019001306Are You Afraid of the Dark?                       Highway 13 Pt.2                                               SR0308A1066807ACC                              
ID FAMCHA020801224019224024000005Generic ID - Marbles                                                                                                        150                                
PROFAMCHA020801224024224052000028SPDF - AUG04 - Sunday @ 12pm                                                                                                150                                
PROFAMCHA020801224052224130000038Totally Hoops (NATIONALS) - Weekends @ 11:35am                                                                              150                                
PRCFAMCHA020801224130224140000010Morning Block menu background (flex time)                                                                                   150                                
ID FAMCHA020801224140224200000020Move open family size movie                                                                                                 150                                
PROFAMCHA020801224200224208000008Rating - PG - Lark                                                                                                          150                                
PGRFAMCHA020801224208004353020145Being There                                                                                                           B2068807D                                
ID FAMCHA020801004353004400000007Generic ID - Whisper*                                                                                                       150                                
PGRFAMCHA020801004400010832002432Are You Afraid Of The Dark?                       The Tale of the Dark Music                                    SR0302 1066807A                                
SO FAMCHA020801010832010844000012Sign Off (oct 1)                                                                                                                                               
OFFFAMCHA020801010844043000032116                                                                                                                                                               
SO FAMCHA020802043000043011000011Sign On (oct 1)                                                                                                                                                
PROFAMCHA020802043011043019000008CC Is Brought To You By - Ian **DNU AFTER 09/22**                                                                           150                                
PGRFAMCHA020802043019045325002306Out of the Box                                    Feathered Friends                                                    60686110CC                              
ID FAMCHA020802045325045335000010Generic ID - confetti                                                                                                       150                                
PROFAMCHA020802045335045350000015PB&J Otter (SAND) - Today @ 9:30am                                                                                          150                                
PROFAMCHA020802045350045400000010Preschool Line-Up - 01 - ART/KATIE/DUCKTALES                                                                                150                                
PGRFAMCHA020802045400050850001450Art Attack                                        1-113                                                                60686110                                
ID FAMCHA020802050850050855000005Generic ID - Couch 1*                                                                                                       150                                
PROFAMCHA020802050855050912000017Katie and Orbie (OCT2001) - Coming Up                                                                                       150                                
PROFAMCHA020802050912050938000026Stanley (BABY PICS) - Today @ 9:05am                                                                                        150                                
ID FAMCHA020802050938050953000015Schoolhouse Promo - Coming Up                                                                                               150                                
PROFAMCHA020802050953051006000013Little Lulu (SWEEP) - Today @ 6:05am                                                                                        150                                
INTFAMCHA020802051006051329000323Schoolhouse Rock - The Check's In The Mail                                                                            A60686120                                
PROFAMCHA020802051329051450000121Elmo's World (FAM2) - Today @ 8:45am                                                                                        150                                
PROFAMCHA020802051450051500000010Preschool Line-Up - 02 - KATIE/DUCKTALES/LULU                                                                               150                                
PROFAMCHA020802051500051508000008CC Is Brought To You By - Lark **DNU AFTER 09/22**                                                                          150                                
PGRFAMCHA020802051508054146002638Katie And Orbie                                   My Favourite Song/Milk Monster/Pills                          C19665A1065607ECC                              
ID FAMCHA020802054146054156000010Generic ID - Hula Hoop                                                                                                      150                                
PROFAMCHA020802054156054222000026DuckTales (CLIP) - Coming Up                                                                                                150                                
PROFAMCHA020802054222054250000028Stanley (ELEPHANT) - Today @ 9:05am                                                                                         150                                
PROFAMCHA020802054250054300000010Preschool Line-Up - 03 - DUCKTALES/LULU/FRANKLIN                                                                            150                                
PROFAMCHA020802054300054308000008CC Is Brought To You By - Ian **DNU AFTER 09/22**                                                                           150                                
PGRFAMCHA020802054308060555002247Disney's DuckTales                                Allowance Day                                                       A6068607ECC                              
ID FAMCHA020802060555060600000005Generic ID - Couch 2*                                                                                                       150                                
PROFAMCHA020802060600060613000013Little Lulu (SWEEP) - Coming Up                                                                                             150                                
PROFAMCHA020802060613060631000018Hoze Houndz (FOOD) - Today @ 11:35am                                                                                        150                                
PROFAMCHA020802060631060650000019House of Mouse (PINOCCHIO) - Tomorrow @ 3:50pm                                                                              150                                
PROFAMCHA020802060650060700000010Preschool Line-Up - 04 - LULU/FRANKLIN/GOOF                                                                                 150                                
PROFAMCHA020802060700060708000008CC Is Brought To You By - Lark **DNU AFTER 09/22**                                                                          150                                
PGRFAMCHA020802060708063100002352Little Lulu Show; The                             Space Kids/Case of Disappearing Drum/From Hero to             C19509A1065607ECC                              
ID FAMCHA020802063100063105000005Generic ID - Fingerpaint                                                                                                    150                                
PROFAMCHA020802063105063115000010Preschool Line-Up - 05 - FRANKLIN/GOOF/BUZZ                                                                                 150                                
PROFAMCHA020802063115063123000008CC Is Brought To You By - Ian **DNU AFTER 09/22**                                                                           150                                
PGRFAMCHA020802063123065416002253Franklin                                          Franklin Goes To School/Franklin Is Lost                      B10182A1065607ECC                              
ID FAMCHA020802065416065426000010Generic ID - Ring around the rosie                                                                                          150                                
PRCFAMCHA020802065426065449000023Goof Troop (TV) - Coming Up                                                                                                 150                                
PROFAMCHA020802065449065507000018Buzz Lightyear (DO YOUR BEST) - Today @ 7:30am                                                                              150                                
ID FAMCHA020802065507065527000020Schoolhouse Promo - Coming Up                                                                                               150                                
PROFAMCHA020802065527065541000014New Adv of WTP (REMOTE) - Today @ 10:20am                                                                                   150                                
INTFAMCHA020802065541065904000323Schoolhouse Rock - Seven-Fifty Once a Week                                                                            A60686120                                
PROFAMCHA020802065904065921000017Katie and Orbie (OCT2001) - Today @ 9:55am                                                                                  150                                
PROFAMCHA020802065921065940000019House of Mouse (PINOCCHIO) - Tomorrow @ 3:50pm                                                                              150                                
PROFAMCHA020802065940065950000010Preschool Line-Up - 06 - GOOF/BUZZ/ART                                                                                      150                                
ID FAMCHA020802065950070003000013xxMagic of Disney - V2(sky) - KID MALE                                                                                      150                                
PROFAMCHA020802070003070011000008CC Is Brought To You By - Lark **DNU AFTER 09/22**                                                                          150                                
PGRFAMCHA020802070011072259002248Goof Troop                                        Goodbye, Mr. Goofy                                                   6068607ECC                              
ID FAMCHA020802072259072314000015Generic ID - confetti                                                                                                       150                                
PRCFAMCHA020802072314072344000030Henry's World (SECRET) - Premieres August 24th                                                                              150                                
PROFAMCHA020802072344072424000040Buzz Lightyear (TRANDIBULATOR) - Coming Up                                                                                  150                                
PRCFAMCHA020802072424072502000038Funshine 2002 - GENERIC TOUR SPOT                                                                                           150                                
PRCFAMCHA020802072502072522000020Funshine 2002 - Spot #12 - JUL 29 TO AUG 04                                                                                 150                                
PROFAMCHA020802072522072552000030Mighty Ducks (MAR2002) - Weekends @ 5:05pm                                                                                  150                                
PROFAMCHA020802072552072607000015PB&J Otter (SAND) - Today @ 9:30am                                                                                          150                                
PROFAMCHA020802072607072728000121Elmo's World (FAM2) - Today @ 8:45am                                                                                        150                                
PROFAMCHA020802072728072807000039House of Mouse (DOOR) - Tomorrow @ 3:50pm                                                                                   150                                
PROFAMCHA020802072807072937000130Family BLAST Interstitial #1 - In Theatres August                                                                           150                                
PROFAMCHA020802072937072953000016Kim Possible (PANTS) - Premieres August 25th                                                                                150                                
PROFAMCHA020802072953073006000013Preschool Line-Up - 07 - BUZZ/ART/LULU                                                                                      150                                
PGRFAMCHA020802073006075250002244Disney/Pixar's Buzz Lightyear of Star Command     Opposites Attract                                                   A6068607E                                
ID FAMCHA020802075250075300000010Generic ID - Family w/dog                                                                                                   150                                
PRCFAMCHA020802075300075330000030Henry's World (SECRET) - Premieres August 24th                                                                              150                                
PROFAMCHA020802075330075358000028Art Attack (SCOTSMAN) - Coming Up                                                                                           150                                
PRCFAMCHA020802075358075436000038Funshine 2002 - GENERIC TOUR SPOT                                                                                           150                                
PRCFAMCHA020802075436075456000020Funshine 2002 - Spot #12 - JUL 29 TO AUG 04                                                                                 150                                
INTFAMCHA020802075456075626000130Disney Circle Time - Growing Smiles (anywhere but                                                                      60688120                                
PROFAMCHA020802075626075756000130Family BLAST Interstitial #1 - In Theatres August                                                                           150                                
PROFAMCHA020802075756075825000029House of Mouse (HATS) - Tomorrow @ 3:50pm                                                                                   150                                
PROFAMCHA020802075825075946000121Elmo's World (FAM2) - Today @ 8:45am                                                                                        150                                
PROFAMCHA020802075946075958000012Preschool Line-Up - 08 - ART/LULU/ELMO                                                                                      150                                
PGRFAMCHA020802075958081454001456Art Attack                                        1-135                                                               A60686110                                
ID FAMCHA020802081454081459000005Generic ID - Marbles                                                                                                        150                                
PROFAMCHA020802081459081521000022Legend of Tarzan (MY JEWEL-D12/WKNDS) - Today @ 5p                                                                          150                                
PROFAMCHA020802081521081534000013Little Lulu (SWEEP) - Coming Up                                                                                             150                                
PROFAMCHA020802081534081602000028Stanley (ELEPHANT) - Today @ 9:05am                                                                                         150                                
ID FAMCHA020802081602081622000020Schoolhouse Promo - Coming Up                                                                                               150                                
PROFAMCHA020802081622081639000017Katie and Orbie (OCT2001) - Today @ 9:55am                                                                                  150                                
INTFAMCHA020802081639082002000323Schoolhouse Rock - Walkin' On Wall Street                                                                             A60686120                                
PROFAMCHA020802082002082018000016Kim Possible (PANTS) - Premieres August 25th                                                                                150                                
PRCFAMCHA020802082018082048000030Henry's World (SECRET) - Premieres August 24th                                                                              150                                
PROFAMCHA020802082048082102000014Preschool Line-Up - 09 - LULU/ELMO/STANLEY                                                                                  150                                
PROFAMCHA020802082102082110000008CC Is Brought To You By - Ian **DNU AFTER 09/22**                                                                           150                                
PGRFAMCHA020802082110084441002331Little Lulu Show; The                             No Pain, No Gain/Tragic Magic                                 B20193A1065607ECC                              
ID FAMCHA020802084441084451000010Generic ID - Ring around the rosie                                                                                          150                                
PROFAMCHA020802084451084517000026Elmo's World (FAM1) - Coming Up                                                                                             150                                
PROFAMCHA020802084517084552000035Legend of Tarzan (PICKS&NIBBLES-D12/WKNDS) - Today                                                                          150                                
PROFAMCHA020802084552084605000013Preschool Line-Up - 10 - ELMO/STANLEY/PB&J                                                                                  150                                
PGRFAMCHA020802084605090218001613Elmo's World                                      Music                                                               A2068607G                                
ID FAMCHA020802090218090223000005Generic ID - Marbles                                                                                                        150                                
PROFAMCHA020802090223090249000026Stanley (BABY PICS) - Coming Up                                                                                             150                                
PROFAMCHA020802090249090316000027PB&J Otter (PIE) - Today @ 9:30am                                                                                           150                                
PROFAMCHA020802090316090356000040Buzz Lightyear (TRANDIBULATOR) - Today @ 4pm                                                                                150                                
PROFAMCHA020802090356090426000030Mighty Ducks (MAR2002) - Tomorrow @ 5:05pm                                                                                  150                                
PROFAMCHA020802090426090455000029House of Mouse (HATS) - Tomorrow @ 3:50pm                                                                                   150                                
PROFAMCHA020802090455090505000010Preschool Line-Up - 11 - STANLEY/PB&J/KATIE                                                                                 150                                
PGRFAMCHA020802090505092903002358Stanley                                           Savanna Speeders/Tyrannosaurus Wrecks                               A6068607E                                
ID FAMCHA020802092903092913000010Generic ID - Bubbles                                                                                                        150                                
PROFAMCHA020802092913092920000007PB&J Otter (AUG2001) - Kite - Coming Up                                                                                     150                                
PROFAMCHA020802092920092955000035Legend of Tarzan (PICKS&NIBBLES-D12/WKNDS) - Today                                                                          150                                
PROFAMCHA020802092955093006000011Preschool Line-Up - 12 - PB&J/KATIE/WTP                                                                                     150                                
PROFAMCHA020802093006093014000008CC Is Brought To You By - Lark **DNU AFTER 09/22**                                                                          150                                
PGRFAMCHA020802093014095344002330PB&J Otter                                        Sgt. Gravel To The Rescue/Sleepy Head                               A6068607ECC                              
ID FAMCHA020802095344095351000007Generic ID - Whisper*                                                                                                       150                                
PROFAMCHA020802095351095408000017Katie and Orbie (OCT2001) - Coming Up                                                                                       150                                
PRCFAMCHA020802095408095431000023Franklin (HICCUP) - Today @ 12:25pm                                                                                         150                                
PROFAMCHA020802095431095456000025Weekenders (TOAST) - Tomorrow @ 4:40pm                                                                                      150                                
PROFAMCHA020802095456095507000011Preschool Line-Up - 13 - KATIE/WTP/OOTB                                                                                     150                                
PROFAMCHA020802095507095515000008CC Is Brought To You By - Ian **DNU AFTER 09/22**                                                                           150                                
PGRFAMCHA020802095515102150002635Katie And Orbie                                   Lulu/The Farm/Splash                                          C11896A1065607ECC                              
ID FAMCHA020802102150102200000010Generic ID - Family w/dog                                                                                                   150                                
PROFAMCHA020802102200102214000014New Adv of WTP (REMOTE) - Coming Up                                                                                         150                                
PROFAMCHA020802102214102232000018Buzz Lightyear (DO YOUR BEST) - Today @ 4pm                                                                                 150                                
PROFAMCHA020802102232102247000015PB&J Otter (SAND) - Today @ 1:30pm                                                                                          150                                
PROFAMCHA020802102247102257000010Preschool Line-Up - 14 - WTP/OOTB/DUCKTALES                                                                                 150                                
ID FAMCHA020802102257102307000010xxMagic of Disney - V3(water) - KID MALE                                                                                    150                                
PROFAMCHA020802102307102315000008CC Is Brought To You By - Lark **DNU AFTER 09/22**                                                                          150                                
PGRFAMCHA020802102315104553002238New Adventures of Winnie the Pooh; The            Babysitter Blues                                                     6068607ECC                              
ID FAMCHA020802104553104603000010Generic ID - Hula Hoop                                                                                                      150                                
PROFAMCHA020802104603104618000015Out of the Box - Coming Up                                                                                                  150                                
PROFAMCHA020802104618104657000039House of Mouse (DOOR) - Tomorrow @ 3:50pm                                                                                   150                                
PROFAMCHA020802104657104707000010Preschool Line-Up - 15 - OOTB/DUCKTALES/HOZE                                                                                150                                
PROFAMCHA020802104707104715000008CC Is Brought To You By - Ian **DNU AFTER 09/22**                                                                           150                                
PGRFAMCHA020802104715111111002356Out of the Box                                    Eye Spy                                                              60686110CC                              
ID FAMCHA020802111111111116000005Generic ID - Bubbles*                                                                                                       150                                
PROFAMCHA020802111116111124000008CC Is Brought To You By - Lark **DNU AFTER 09/22**                                                                          150                                
PGRFAMCHA020802111124113412002248Disney's DuckTales                                Bubbeo & Juliet                                                     A6068607ECC                              
ID FAMCHA020802113412113417000005Generic ID - Bubbles*                                                                                                       150                                
PROFAMCHA020802113417113447000030House of Mouse (MAR2002) - Tomorrow @ 3:50pm                                                                                150                                
PROFAMCHA020802113447113502000015Preschool Line-Up - 17 - HOZE/LULU/FRANKLIN                                                                                 150                                
PROFAMCHA020802113502113510000008CC Is Brought To You By - Ian **DNU AFTER 09/22**                                                                           150                                
PGRFAMCHA020802113510115745002235Hoze Houndz                                       Ghost in the Machine/Savage Steamer                           B17121A1065607ECC                              
ID FAMCHA020802115745115750000005Generic ID - Couch 1*                                                                                                       150                                
PRCFAMCHA020802115750115820000030Henry's World (SECRET) - Premieres August 24th                                                                              150                                
PROFAMCHA020802115820115830000010Kidsummer 2002 - Fujifilm                                                                                                   150                                
PROFAMCHA020802115830115843000013Little Lulu (SWEEP) - Coming Up                                                                                             150                                
PROFAMCHA020802115843115852000009PB&J Otter (AUG2001) - Open - Today @ 1:30pm                                                                                150                                
PROFAMCHA020802115852115903000011Preschool Line-Up - 18 - LULU/FRANKLIN/ELMO                                                                                 150                                
PROFAMCHA020802115903115911000008CC Is Brought To You By - Lark **DNU AFTER 09/22**                                                                          150                                
PGRFAMCHA020802115911122244002333Little Lulu Show; The                             First Aid Brigade, Matinee Madness, It's a Dogs Li            B20194A1065607ECC                              
ID FAMCHA020802122244122254000010Generic ID - Family w/dog                                                                                                   150                                
PRCFAMCHA020802122254122321000027Franklin (FIXIT) - Coming Up                                                                                                150                                
PROFAMCHA020802122321122335000014New Adv of WTP (REMOTE) - Today @ 2:25pm                                                                                    150                                
PROFAMCHA020802122335122353000018Elmo's World (FAM3) - Today @ 12:45pm                                                                                       150                                
PROFAMCHA020802122353122404000011Preschool Line-Up - 19 - FRANKLIN/ELMO/STANLEY                                                                              150                                
PROFAMCHA020802122404122412000008CC Is Brought To You By - Ian **DNU AFTER 09/22**                                                                           150                                
PGRFAMCHA020802122412124705002253Franklin                                          Franklin Rides A Bike/Franklin Is Messy                       B10184A1065607ECC                              
ID FAMCHA020802124705124715000010Generic ID - Bubbles                                                                                                        150                                
PROFAMCHA020802124715124741000026Elmo's World (FAM1) - Coming Up                                                                                             150                                
PROFAMCHA020802124741124755000014New Adv of WTP (REMOTE) - Today @ 2:25pm                                                                                    150                                
PROFAMCHA020802124755124806000011Preschool Line-Up - 20 - ELMO/STANLEY/PB&J                                                                                  150                                
PGRFAMCHA020802124806130207001401Elmo's World                                      Water                                                               A2068607G                                
ID FAMCHA020802130207130217000010Generic ID - Hula Hoop                                                                                                      150                                
PROFAMCHA020802130217130245000028Stanley (ELEPHANT) - Coming Up                                                                                              150                                
PROFAMCHA020802130245130255000010Kidsummer 2002 - Indigo/Chapters                                                                                            150                                
ID FAMCHA020802130255130308000013Schoolhouse Promo - Coming Up                                                                                               150                                
PROFAMCHA020802130308130333000025New Adv of WTP (TREE) - Today @ 2:25pm                                                                                      150                                
INTFAMCHA020802130333130656000323Schoolhouse Rock - A Noun Is A Person, Place or Th                                                                    A60686120                                
PROFAMCHA020802130656130708000012Preschool Line-Up - 21 - STANLEY/PB&J/KATIE                                                                                 150                                
PGRFAMCHA020802130708133104002356Stanley                                           Hippo Helpers/Where's Stanley?                                      A6068607E                                
ID FAMCHA020802133104133114000010Generic ID - Ring around the rosie                                                                                          150                                
PROFAMCHA020802133114133141000027PB&J Otter (PIE) - Coming Up                                                                                                150                                
PROFAMCHA020802133141133157000016Kim Possible (PANTS) - Premieres August 25th                                                                                150                                
PROFAMCHA020802133157133208000011Preschool Line-Up - 22 - PB&J/KATIE/WTP                                                                                     150                                
PROFAMCHA020802133208133216000008CC Is Brought To You By - Lark **DNU AFTER 09/22**                                                                          150                                
PGRFAMCHA020802133216135546002330PB&J Otter                                        Watchbird Alert!/Flick's Hat                                        A6068607ECC                              
ID FAMCHA020802135546135556000010Generic ID - confetti                                                                                                       150                                
PROFAMCHA020802135556135613000017Katie and Orbie (OCT2001) - Coming Up                                                                                       150                                
PROFAMCHA020802135613135627000014New Adv of WTP (REMOTE) - Today @ 2:25pm                                                                                    150                                
PROFAMCHA020802135627135658000031Hoze Houndz (TEETH) - Today @ 3:35pm                                                                                        150                                
PROFAMCHA020802135658135709000011Preschool Line-Up - 23 - KATIE/WTP/OOTB                                                                                     150                                
PROFAMCHA020802135709135717000008CC Is Brought To You By - Ian **DNU AFTER 09/22**                                                                           150                                
PGRFAMCHA020802135717142352002635Katie And Orbie                                   New Year's Eve/Kyra/T-Ball                                    C11896A1065607ECC                              
ID FAMCHA020802142352142357000005Generic ID - Couch 1*                                                                                                       150                                
PROFAMCHA020802142357142422000025New Adv of WTP (TREE) - Coming Up                                                                                           150                                
PROFAMCHA020802142422142449000027Recess (FRIENDSHIP-D12/WKNDS) - Today @ 5:30pm                                                                              150                                
PROFAMCHA020802142449142459000010Preschool Line-Up - 24 - WTP/OOTB/DUCKTALES                                                                                 150                                
ID FAMCHA020802142459142510000011xxMagic of Disney - V3(water) - TEEN FEMALE                                                                                 150                                
PROFAMCHA020802142510142518000008CC Is Brought To You By - Lark **DNU AFTER 09/22**                                                                          150                                
PGRFAMCHA020802142518144755002237New Adventures of Winnie the Pooh; The            How Much Is The Rabbit In The Window                                 6068607ECC                              
ID FAMCHA020802144755144805000010Generic ID - Family w/dog                                                                                                   150                                
PROFAMCHA020802144805144820000015Out of the Box - Coming Up                                                                                                  150                                
PROFAMCHA020802144820144900000040Buzz Lightyear (TRANDIBULATOR) - Today @ 4pm                                                                                150                                
PROFAMCHA020802144900144910000010Preschool Line-Up - 25 - OOTB/DUCKTALES/HOZE                                                                                150                                
PROFAMCHA020802144910144918000008CC Is Brought To You By - Ian **DNU AFTER 09/22**                                                                           150                                
PGRFAMCHA020802144918151259002341Out of the Box                                    We Got the Beat                                                      60686110CC                              
ID FAMCHA020802151259151304000005Generic ID - Marbles                                                                                                        150                                
PROFAMCHA020802151304151314000010Preschool Line-Up - 26 - DUCKTALES/HOZE/BUZZ                                                                                150                                
