SO FAMCHA041101043000043011000011Sign On (oct 1)                                                                                                                                                
PROFAMCHA041101043011043020000009CC Disclaimer - FAST - Family.ca (:08-:10)                                                                                  150                                
PGRFAMCHA041101043020045313002253Franklin                                          Franklin's Day Off/Franklin's Homemade Cookies                B36668A1065607ECC                              
PROFAMCHA041101045313045328000015PS - 01(PH) - KING/KATIE/FRANKLIN (:14-:16) (AUG04                                                                          150                                
ID FAMCHA041101045328045341000013PS Playhouse AM Block Open (:10-:15)                                                                                        150                                
PROFAMCHA041101045341045350000009CC Disclaimer - FAST - Family.ca (:08-:10)                                                                                  150                                
PGRFAMCHA041101045350051620002230King                                              Down In The Dark With the Yu-Yus                              B75764A1065607ECC                              
PROFAMCHA041101051620051635000015PS - 02(PH) - KATIE/FRANKLIN/SOMETHING (:14-:16) (                                                                          150                                
ID FAMCHA041101051635051648000013PS Playhouse AM Block Open (:10-:15)                                                                                        150                                
PROFAMCHA041101051648051657000009CC Disclaimer - FAST - Family.ca (:08-:10)                                                                                  150                                
PGRFAMCHA041101051657054335002638Katie And Orbie                                   Decorate Your Bike Day/Lights!/Beach Bouncing                 B62274A1065607ECC                              
PROFAMCHA041101054335054350000015PS - 03(PH) - FRANKLIN/SOMETHING/DAIGUNDER (:14-:1                                                                          150                                
ID FAMCHA041101054350054403000013PS Playhouse AM Block Open (:10-:15)                                                                                        150                                
PROFAMCHA041101054403054412000009CC Disclaimer - FAST - Family.ca (:08-:10)                                                                                  150                                
PGRFAMCHA041101054412060705002253Franklin                                          Franklin the Fabulous/Franklin Camps Out                      B36669A1065607ECC                              
ID FAMCHA041101060705060718000013PS Playhouse AM Block Open (:10-:15)                                                                                        150                                
PROFAMCHA041101060718060728000010CC Disclaimer - FAST - Family.ca (:08-:10)                                                                                  150                                
PGRFAMCHA041101060728062959002231Something Else                                    Hello Dolly/Decoration Day                                    B69264A1065607ECC                              
ID FAMCHA041101062959063014000015Power Box Block Open (:12-:15)                                                                                              150                                
PROFAMCHA041101063014063022000008CC Disclaimer - FAST - Family.ca (:08-:10)                                                                                  150                                
PGRFAMCHA041101063022065151002129Daigunder                                         EPS # 12                                                             2068607E                                
PROFAMCHA041101065151065206000015Proud Family - BAD CATCH (NSW) - Weekends @ 4:45pm                                                                          150                                
PROFAMCHA041101065206065242000036Power Rangers Dino Thunder (LONG/0804) - Coming Up                                                                          150                                
PROFAMCHA041101065242065306000024Jason (Hiking) - Today @ 11:25am                                                                                            150                                
PRCFAMCHA041101065306065334000028xxPower Box Block Promo (NOV04) (PB) - You're Watc                                                                          150                                
PROFAMCHA041101065334065405000031Hercules (Wits) - Today @ 12:10pm                                                                                           150                                
PROFAMCHA041101065405065435000030Power Rangers Ninja Storm (AUG04) (PB/WKDAY) - Tod                                                                          150                                
PROFAMCHA041101065435065505000030Weekenders (AUG04) - Today @ 3:25pm                                                                                         150                                
PROFAMCHA041101065505065535000030Dave the Barbarian (MD) - Today @ 4:15pm                                                                                    150                                
PRCFAMCHA041101065535065549000014Family Bumpers - (Phase 1 Spring 04) - Basketball                                                                           150                                
ID FAMCHA041101065549065602000013Power Box Block Open (:12-:15)                                                                                              150                                
PGRFAMCHA041101065602071726002124Power Rangers Dino Thunder                        EPS # 01                                                            A6068607E                                
PROFAMCHA041101071726071741000015PS - 07(PH) - NINJA/HOZE/HENRY (:14-:16) (AUG04)                                                                            150                                
PROFAMCHA041101071741071811000030Power Rangers Ninja Storm (AUG04) (PB) - Coming Up                                                                          150                                
PRCFAMCHA041101071811071839000028xxPower Box Block Promo (NOV04) (PB) - You're Watc                                                                          150                                
INTFAMCHA041101071839072009000130Klootz - Olympics 03                                                                                                  A10658120                                
PROFAMCHA041101072009072033000024Jason (Hiking) - Today @ 11:25am                                                                                            150                                
PROFAMCHA041101072033072104000031Hercules (Wits) - Today @ 12:10pm                                                                                           150                                
PROFAMCHA041101072104072134000030Dave the Barbarian (MD) - Today @ 4:15pm                                                                                    150                                
PROFAMCHA041101072134072149000015Proud Family - BAD CATCH (NSW) - Weekends @ 4:45pm                                                                          150                                
ID FAMCHA041101072149072201000012Power Box Block Open (:12-:15)                                                                                              150                                
PGRFAMCHA041101072201074325002124Power Rangers Ninja Storm                         EPS # 1-016                                                         A6068607E                                
PROFAMCHA041101074325074340000015PS - 08(PH-M/W/F) - HOZE/HENRY/FRANNY (:14-:16) (A                                                                          150                                
PROFAMCHA041101074340074410000030Playhouse (PEDAL) - (PH/AM) - Coming Up Next                                                                          A     150                                
PRCFAMCHA041101074410074428000018Henry's World (AUG04) (PH/AM) - Today @ 8:15am                                                                              150                                
PROFAMCHA041101074428074458000030Dave the Barbarian (MD) - Today @ 4:15pm                                                                                    150                                
   FAMCHA041101074458074527000029Winnie the Pooh (TRAP) (PH/AM) - Today @ 9:10am                                                                                                                
PRCFAMCHA041101074527074557000030Playhouse - FRANKLIN - Skunk                                                                                                150                                
PROFAMCHA041101074557074639000042xxJojo's Circus - (CRAB/0804) - (PH/AM) - Today @                                                                           150                                
PROFAMCHA041101074639074723000044Stanley - (AUG04) - (PH) - Today @ 10:05am                                                                                  150                                
PROFAMCHA041101074723074748000025Hoze Houndz (AUG04) (PH) - Coming Up Next                                                                                   150                                
ID FAMCHA041101074748074800000012PS Playhouse AM Block Open (:10-:15)                                                                                        150                                
PROFAMCHA041101074800074809000009CC Disclaimer - FAST - Family.ca (:08-:10)                                                                                  150                                
PGRFAMCHA041101074809081047002238Hoze Houndz                                       EPS # 6-071                                                   C22818A1065607ECC                              
PROFAMCHA041101081047081102000015PS - 09(PH-M/W/F) - HENRY/FRANNY/WTP (:14-:16) (AU                                                                          150                                
PRCFAMCHA041101081102081120000018Henry's World (AUG04) (PH/AM) - Coming Up Next                                                                              150                                
PROFAMCHA041101081120081150000030Dave the Barbarian (MD) - Today @ 4:15pm                                                                                    150                                
   FAMCHA041101081150081219000029Winnie the Pooh (TRAP) (PH/AM) - Today @ 9:10am                                                                                                                
PROFAMCHA041101081219081301000042xxJojo's Circus - (CRAB/0804) - (PH/AM) - Today @                                                                           150                                
INTFAMCHA041101081301081431000130Disney Circle Time - Growing Smiles (anywhere but                                                                      60688120                                
PROFAMCHA041101081431081515000044Stanley - (AUG04) - (PH) - Today @ 10:05am                                                                                  150                                
PROFAMCHA041101081515081545000030Playhouse (PEDAL) - (PH/AM) - You're Watching                                                                         A     150                                
ID FAMCHA041101081545081600000015PS Playhouse AM Block Open (:10-:15)                                                                                        150                                
PROFAMCHA041101081600081609000009CC Disclaimer - FAST - Family.ca (:08-:10)                                                                                  150                                
PGRFAMCHA041101081609084012002403Henry's World                                     Super Hero Henry/The Treasure Hunt                            A81045A1065607GCC                              
PROFAMCHA041101084012084027000015PS - 10(PH-M/W/F) - FRANNY/WTP/JOJO (:14-:16) (AUG                                                                          150                                
PROFAMCHA041101084027084057000030Dave the Barbarian (MD) - Today @ 4:15pm                                                                                    150                                
INTFAMCHA041101084057084129000032Benjamin Bear (PH) (MON/WED) - Tomorrow @ 8:45am                                                                       10275120                                
   FAMCHA041101084129084158000029Winnie the Pooh (TRAP) (PH/AM) - Today @ 9:10am                                                                                                                
PROFAMCHA041101084158084240000042xxJojo's Circus - (CRAB/0804) - (PH/AM) - Today @                                                                           150                                
PROFAMCHA041101084240084324000044Stanley - (AUG04) - (PH) - Today @ 10:05am                                                                                  150                                
PRCFAMCHA041101084324084420000056Playhouse - STANLEY - Fish Song                                                                                             150                                
PROFAMCHA041101084420084450000030Playhouse (PRINCESS) (PH/PM) - Today @ 1pm                                                                                  150                                
ID FAMCHA041101084450084500000010PS Playhouse AM Block Open (:10-:15)                                                                                        150                                
PROFAMCHA041101084500084509000009CC Disclaimer - FAST - Family.ca (:08-:10)                                                                                  150                                
PGRFAMCHA041101084509090739002230Franny's Feet                                     EPS # 1-005                                                   B84194A1065607ECC                              
PROFAMCHA041101090739090754000015PS - 11(PH) - WTP/JOJO/STANLEY (:14-:16) (AUG04)                                                                            150                                
   FAMCHA041101090754090823000029Winnie the Pooh (TRAP) (PH/AM) - Coming Up Next                                                                                                                
PROFAMCHA041101090823090905000042xxJojo's Circus - (CRAB/0804) - (PH/AM) - Today @                                                                           150                                
PROFAMCHA041101090905090949000044Stanley - (AUG04) - (PH) - Today @ 10:05am                                                                                  150                                
PRCFAMCHA041101090949091020000031King (AUG04) (PH/AM) - Today @ 11am                                                                                         150                                
INTFAMCHA041101091020091220000200Disney Circle Time - The Lion & The Mouse Fable (a                                                                     60688120                                
PROFAMCHA041101091220091250000030Playhouse (PRINCESS) (PH/PM) - Today @ 1pm                                                                                  150                                
ID FAMCHA041101091250091300000010PS Playhouse AM Block Open (:10-:15)                                                                                        150                                
PROFAMCHA041101091300091308000008CC Disclaimer - FAST - Family.ca (:08-:10)                                                                                  150                                
PGRFAMCHA041101091308093545002237New Adventures of Winnie the Pooh; The            A Pooh Day Afternoon                                                 6068607ECC                              
PROFAMCHA041101093545093559000014PS - 12(PH) - JOJO/STANLEY/ART (:14-:16) (AUG04)                                                                            150                                
PROFAMCHA041101093559093641000042xxJojo's Circus - (CRAB/0804) - (PH/AM) - Coming U                                                                          150                                
INTFAMCHA041101093641093713000032Benjamin Bear (PH) (MON/WED) - Tomorrow @ 8:45am                                                                       10675120                                
PROFAMCHA041101093713093757000044Stanley - (AUG04) - (PH) - Today @ 10:05am                                                                                  150                                
PRCFAMCHA041101093757093828000031King (AUG04) (PH/AM) - Today @ 11am                                                                                         150                                
PRCFAMCHA041101093828093921000053Franklin (AUG04) - (PH) - Tomorrow @ 5:40am                                                                                 150                                
PROFAMCHA041101093921093951000030Playhouse (PRINCESS) (PH/PM) - Today @ 1pm                                                                                  150                                
ID FAMCHA041101093951094001000010PS Playhouse AM Block Open (:10-:15)                                                                                        150                                
PGRFAMCHA041101094001100408002407JoJo's Circus                                     EPS # 03                                                            A6068607E                                
PROFAMCHA041101100408100423000015PS - 13(PH) - STANLEY/ART/KING (:14-:16) (AUG04)                                                                            150                                
PROFAMCHA041101100423100507000044Stanley - (AUG04) - (PH) - Coming Up Next                                                                                   150                                
PRCFAMCHA041101100507100538000031King (AUG04) (PH/AM) - Today @ 11am                                                                                         150                                
PRCFAMCHA041101100538100552000014Playhouse - HOZE HOUNDZ - Skater                                                                                            150                                
PROFAMCHA041101100552100622000030Playhouse (PEDAL) - (PH/AM) - You're Watching                                                                         A     150                                
PRCFAMCHA041101100622100715000053Franklin (AUG04) - (PH) - Tomorrow @ 5:40am                                                                                 150                                
INTFAMCHA041101100715100747000032Benjamin Bear (PH) (MON/WED) - Tomorrow @ 8:45am                                                                       10675120                                
ID FAMCHA041101100747100801000014PS Playhouse AM Block Open (:10-:15)                                                                                        150                                
PROFAMCHA041101100801100810000009CC Disclaimer - FAST - Family.ca (:08-:10)                                                                                  150                                
PGRFAMCHA041101100810103212002402Stanley                                           Eelectricity/Roller Rhino                                           A6068607ECC                              
PROFAMCHA041101103212103227000015PS - 14(PH) - ART/KING/JASON (:14-:16) (AUG04)                                                                              150                                
PRCFAMCHA041101103227103258000031King (AUG04) (PH/AM) - Today @ 11am                                                                                         150                                
PRCFAMCHA041101103258103351000053Franklin (AUG04) - (PH) - Tomorrow @ 5:40am                                                                                 150                                
INTFAMCHA041101103351103423000032Benjamin Bear (PH) (MON/WED) - Tomorrow @ 8:45am                                                                       10675120                                
PROFAMCHA041101103423103502000039xxJojo's Circus - (DANCING/0804) - (PH/AM) - Tomor                                                                          150                                
PRCFAMCHA041101103502103521000019Playhouse - FRANKLIN - Party                                                                                                150                                
PROFAMCHA041101103521103551000030Playhouse (PEDAL) - (PH/AM) - You're Watching                                                                         A     150                                
ID FAMCHA041101103551103603000012PS Playhouse AM Block Open (:10-:15)                                                                                        150                                
PROFAMCHA041101103603103612000009CC Disclaimer - FAST - Family.ca (:08-:10)                                                                                  150                                
PGRFAMCHA041101103612105619002007Art Attack                                                                                                            A60686110                                
PROFAMCHA041101105619105634000015PS - 15(PH) - KING/JASON/LILO (:14-:16) (AUG04)                                                                             150                                
PRCFAMCHA041101105634105705000031King (AUG04) (PH/AM) - Coming Up Next                                                                                       150                                
INTFAMCHA041101105705105737000032Benjamin Bear (PH) (MON/WED) - Tomorrow @ 8:45am                                                                       10675120                                
PROFAMCHA041101105737105807000030Dave the Barbarian (MD) - Today @ 4:15pm                                                                                    150                                
PROFAMCHA041101105807105849000042xxJojo's Circus - (CRAB/0804) - (PH/AM) - Tomorrow                                                                          150                                
PROFAMCHA041101105849105919000030Playhouse (PEDAL) - (PH/AM) - You're Watching                                                                         A     150                                
PRCFAMCHA041101105919105950000031King (AUG04) (PH/AM) - Tomorrow @ 11am                                                                                      150                                
ID FAMCHA041101105950110000000010PS Playhouse AM Block Open (:10-:15)                                                                                        150                                
PROFAMCHA041101110000110009000009CC Disclaimer - FAST - Family.ca (:08-:10)                                                                                  150                                
PGRFAMCHA041101110009112239002230King                                              In Near Under And Out The Other                               B75758A1065607ECC                              
PROFAMCHA041101112239112253000014PS - 16(MD/L) - JASON/LILO/HERCULES (:14-:16) (AUG                                                                          150                                
PROFAMCHA041101112253112317000024Jason (Hiking) - Coming Up Next                                                                                             150                                
PROFAMCHA041101112317112347000030xxLilo & Stitch (AUG04) - (MD) - Today @ 11:50am                                                                            150                                
PROFAMCHA041101112347112418000031Hercules (Wits) - Today @ 12:10pm                                                                                           150                                
INTFAMCHA041101112418112542000124Gagsters - Copy Cat                                                                                                   A20686120                                
PROFAMCHA041101112542112616000034Fillmore (AUG04) - (MD) - Today @ 3pm                                                                                       150                                
PROFAMCHA041101112616112647000031Weekenders - LGS (MD) - Today @ 3:25pm                                                                                      150                                
ID FAMCHA041101112647112700000013Mad Dash Block Open (:13-:15)                                                                                               150                                
PROFAMCHA041101112700112709000009CC Disclaimer - FAST - Family.ca (:08-:10)                                                                                  150                                
PGRFAMCHA041101112709114918002209Jason and the Heroes of Mount Olympus             EPS # 24                                                             6068607E                                
PROFAMCHA041101114918114932000014PS - 17(MD/L) - LILO/HERCULES/GOOF (:14-:16) (AUG0                                                                          150                                
PROFAMCHA041101114932114947000015Proud Family - BAD CATCH (NSW) - Weekends @ 4:45pm                                                                          150                                
ID FAMCHA041101114947115000000013Mad Dash Block Open (:13-:15)                                                                                               150                                
PROFAMCHA041101115000115009000009CC Disclaimer - FAST - Family.ca (:08-:10)                                                                                  150                                
PGRFAMCHA041101115009121249002240Disney's Lilo & Stitch: The Series                EPS # 10                                                            A6068607E                                
PROFAMCHA041101121249121304000015PS - 18(MD/L) - HERCULES/GOOF/MERMAID (:14-:16) (A                                                                          150                                
ID FAMCHA041101121304121318000014Mad Dash Block Open (:13-:15)                                                                                               150                                
PROFAMCHA041101121318121327000009CC Disclaimer - FAST - Family.ca (:08-:10)                                                                                  150                                
PGRFAMCHA041101121327123625002258Disney's Hercules: The Series                     Hercules And The Arabian Night                                       6068607ECC                              
PROFAMCHA041101123625123640000015PS - 19(MD/L) - GOOF/MERMAID/ALADDIN (:14-:16) (AU                                                                          150                                
PRCFAMCHA041101123640123647000007Frankie Muniz ID - You're Watching Family                                                                                   150                                
ID FAMCHA041101123647123700000013Mad Dash Block Open (:13-:15)                                                                                               150                                
PROFAMCHA041101123700123709000009CC Disclaimer - FAST - Family.ca (:08-:10)                                                                                  150                                
PGRFAMCHA041101123709125956002247Goof Troop                                        Calling All Goofs                                                    6068607ECC                              
PROFAMCHA041101125956130011000015PS - 20(PH) - MERMAID/ALADDIN/DALMATIANS (:14-:16)                                                                          150                                
PRCFAMCHA041101130011130023000012Family Bumpers - (Phase 1 Spring 04) - Funhouse (P                                                                          150                                
PROFAMCHA041101130023130053000030Playhouse (PRINCESS) (PH/PM) - Coming Up Next                                                                               150                                
ID FAMCHA041101130053130108000015PS Playhouse PM Block Open (:10-:15)                                                                                        150                                
PROFAMCHA041101130108130117000009CC Disclaimer - FAST - Family.ca (:08-:10)                                                                                  150                                
PGRFAMCHA041101130117132417002300Little Mermaid; The                               When You Fish Upon A Starfish                                        6068607ECC                              
PROFAMCHA041101132417132432000015PS - 21(PH) - ALADDIN/DALMATIANS/HOZE (:14-:16) (A                                                                          150                                
PRCFAMCHA041101132432132446000014Playhouse - HOZE HOUNDZ - Skater                                                                                            150                                
ID FAMCHA041101132446132500000014PS Playhouse PM Block Open (:10-:15)                                                                                        150                                
PROFAMCHA041101132500132509000009CC Disclaimer - FAST - Family.ca (:08-:10)                                                                                  150                                
PGRFAMCHA041101132509134748002239Disney's Aladdin                                  Garden Of Evil                                                       6068607ECC                              
PROFAMCHA041101134748134803000015PS - 22(PH) - DALMATIANS/HOZE/HOUSE (:14-:16) (AUG                                                                          150                                
PRCFAMCHA041101134803134833000030Polly Pocket - Get Your Groove On (Oct 18 - Nov14)                                                                          150                                
ID FAMCHA041101134833134848000015PS Playhouse PM Block Open (:10-:15)                                                                                        150                                
PGRFAMCHA041101134848141134002246Disney's 101 Dalmatians: The Series               EPS # 1-048                                                         A6068607E                                
PROFAMCHA041101141134141149000015PS - 23(PH) - HOZE/HOUSE/FILLMORE (:14-:16) (AUG04                                                                          150                                
ID FAMCHA041101141149141200000011PS Playhouse AM Block Open (:10-:15)                                                                                        150                                
PROFAMCHA041101141200141209000009CC Disclaimer - FAST - Family.ca (:08-:10)                                                                                  150                                
PGRFAMCHA041101141209143447002238Hoze Houndz                                       EPS # 6-072                                                   C22818A1065607ECC                              
PROFAMCHA041101143447143502000015PS - 24(PH) - HOUSE/FILLMORE/WEEKENDERS (:14-:16)                                                                           150                                
PROFAMCHA041101143502143527000025Hoze Houndz (AUG04) (PH) - Coming Up Next                                                                                   150                                
PRCFAMCHA041101143527143546000019Playhouse - HOZE HOUNDZ - Code Blue                                                                                         150                                
ID FAMCHA041101143546143600000014PS Playhouse PM Block Open (:10-:15)                                                                                        150                                
PROFAMCHA041101143600143609000009CC Disclaimer - FAST - Family.ca (:08-:10)                                                                                  150                                
PGRFAMCHA041101143609145846002237Disney's House Of Mouse                           Rent Day                                                             6068607ECC                              
PROFAMCHA041101145846145901000015Mad Dash - 01 - FILLMORE/WEEKENDERS/RECESS (:14-:1                                                                          150                                
PROFAMCHA041101145901145935000034Fillmore (AUG04) - (MD) - Coming Up Next                                                                                    150                                
PRCFAMCHA041101145935145947000012Mad Dash - WEEKENDERS - Reality                                                                                             150                                
ID FAMCHA041101145947150000000013Mad Dash Block Open (:13-:15)                                                                                               150                                
PGRFAMCHA041101150000152238002238Disney's Fillmore!                                EPS # 1-022                                                         A6068607E                                
PROFAMCHA041101152238152254000016Mad Dash - 02 - WEEKENDERS/RECESS/DAVE (:14-:16) (                                                                          150                                
PROFAMCHA041101152254152324000030Weekenders (AUG04) - Coming Up Next                                                                                         150                                
PRCFAMCHA041101152324152354000030Polly Pocket - Get Your Groove On (Oct 18 - Nov14)                                                                          150                                
PRCFAMCHA041101152354152406000012Mad Dash - WEEKENDERS - Reality                                                                                             150                                
PRCFAMCHA041101152406152415000009Family Bumpers - (Phase 1 Spring 04) - Soccer (MD-                                                                          150                                
PROFAMCHA041101152415152445000030Recess (AUG04) - Today @ 3:50pm                                                                                             150                                
ID FAMCHA041101152445152500000015Mad Dash Block Open (:13-:15)                                                                                               150                                
PROFAMCHA041101152500152509000009CC Disclaimer - FAST - Family.ca (:08-:10)                                                                                  150                                
PGRFAMCHA041101152509154744002235Disney's The Weekenders                           Sitters/Band                                                        A6068607ECC                              
PROFAMCHA041101154744154759000015Mad Dash - 03 - RECESS/DAVE/KIM (:14-:16) (AUG04)                                                                           150                                
PROFAMCHA041101154759154829000030Recess (AUG04) - Coming Up Next                                                                                             150                                
PRCFAMCHA041101154829154904000035Polar Express Contest - In Theatres Nov 10 (Nov 1-                                                                          150                                
PROFAMCHA041101154904154916000012Mad Dash - RECESS - Sprinkler                                                                                               150                                
PROFAMCHA041101154916154946000030Dave the Barbarian (MD) - Today @ 4:15pm                                                                                    150                                
ID FAMCHA041101154946155000000014Mad Dash Block Open (:13-:15)                                                                                               150                                
PGRFAMCHA041101155000161233002233Disney's Recess                                   The Break In/ The New Kid                                            6068607E                                
PROFAMCHA041101161233161248000015Mad Dash - 04 - DAVE/KIM/PROUD (:14-:16) (AUG04)                                                                            150                                
PROFAMCHA041101161248161318000030Dave the Barbarian (MD) - Coming Up Next                                                                                    150                                
PROFAMCHA041101161318161348000030Kim Possible (AUG04) (MD) - Today @ 4:40pm                                                                                  150                                
PRCFAMCHA041101161348161411000023Mad Dash - WEEKENDERS - Pizza                                                                                               150                                
PRCFAMCHA041101161411161441000030Mad Dash Combo (AUG04) - You're Experiencing                                                                                150                                
PROFAMCHA041101161441161512000031Lizzie McGuire - (AUG04) (MD) - Today @ 5:35pm                                                                              150                                
PROFAMCHA041101161512161537000025xxEven Stevens (AUG04) - (NS) - Tonight @ 6:30pm                                                                            150                                
PRCFAMCHA041101161537161546000009Family Bumpers - (Phase 1 Spring 04) - Soccer (MD-                                                                          150                                
ID FAMCHA041101161546161600000014Mad Dash Block Open (:13-:15)                                                                                               150                                
PGRFAMCHA041101161600163839002239Disney's Dave the Barbarian                       EPS # 09                                                             6068607E                                
PROFAMCHA041101163839163854000015Mad Dash - 05 - KIM/PROUD/LIZZIE (:14-:16) (AUG04)                                                                          150                                
PROFAMCHA041101163854163924000030Kim Possible (AUG04) (MD) - Coming Up Next                                                                                  150                                
PROFAMCHA041101163924163955000031Lizzie McGuire - (AUG04) (MD) - Today @ 5:35pm                                                                              150                                
PROFAMCHA041101163955164025000030That's So Raven (NS) IMAGE - Tonight @ 6pm                                                                                  150                                
PROFAMCHA041101164025164104000039Brotherly Love (NS) - Tonight @ 7pm                                                                                         150                                
PRCFAMCHA041101164104164134000030Radio Free Roscoe II - V1 (NS1) - Tonight @ 7:30pm                                                                          150                                
PRCFAMCHA041101164134164146000012Family Bumpers - (Phase 1 Spring 04) - Pillow Figh                                                                          150                                
ID FAMCHA041101164146164200000014Mad Dash Block Open (:13-:15)                                                                                               150                                
PGRFAMCHA041101164200170450002250Disney's Kim Possible                             Pain King vs Cleopatra                                              A6068607E                                
PROFAMCHA041101170450170505000015Mad Dash - 06 (M-T) - PROUD/LIZZIE/RAVEN (:14-:16)                                                                          150                                
PROFAMCHA041101170505170536000031Lizzie McGuire - (AUG04) (MD) - Today @ 5:35pm                                                                              150                                
PROFAMCHA041101170536170606000030That's So Raven (NS) IMAGE - Tonight @ 6pm                                                                                  150                                
PRCFAMCHA041101170606170629000023Mad Dash - WEEKENDERS - Pizza                                                                                               150                                
PROFAMCHA041101170629170654000025xxEven Stevens (AUG04) - (NS) - Tonight @ 6:30pm                                                                            150                                
PROFAMCHA041101170654170733000039Brotherly Love (NS) - Tonight @ 7pm                                                                                         150                                
PRCFAMCHA041101170733170746000013Family Bumpers - (Phase 2 F/W 04) - Leaves (PB/MD-                                                                          150                                
ID FAMCHA041101170746170800000014Mad Dash Block Open (:13-:15)                                                                                               150                                
PROFAMCHA041101170800170809000009CC Disclaimer - FAST - Family.ca (:08-:10)                                                                                  150                                
PGRFAMCHA041101170809173040002231Proud Family; The                                 Ain't Nothing But The Real Thing                                    A6068807ECC                              
PROFAMCHA041101173040173055000015Mad Dash - 07 (M-T) - LIZZIE/RAVEN/EVEN (:14-:16)                                                                           150                                
PROFAMCHA041101173055173126000031Lizzie McGuire - (AUG04) (MD) - Coming Up Next                                                                              150                                
PROFAMCHA041101173126173156000030VideoNow Contest (Nov 1 - 21)                                                                                               150                                
PROFAMCHA041101173156173226000030That's So Raven (NS) IMAGE - Tonight @ 6pm                                                                                  150                                
PRCFAMCHA041101173226173242000016Radio Free Roscoe - Webthrow (Smog)                                                                                         150                                
PROFAMCHA041101173242173307000025xxEven Stevens (AUG04) - (NS) - Tonight @ 6:30pm                                                                            150                                
PROFAMCHA041101173307173346000039Brotherly Love (NS) - Tonight @ 7pm                                                                                         150                                
ID FAMCHA041101173346173400000014Mad Dash Block Open (:13-:15)                                                                                               150                                
ID FAMCHA041101173400173408000008Magic of Disney - MAD DASH - Shape (:06-:09)                                                                                150                                
PROFAMCHA041101173408173417000009CC Disclaimer - FAST - Family.ca (:08-:10)                                                                                  150                                
PGRFAMCHA041101173417175648002231Lizzie McGuire                                    Scarlett Larry                                                      A6068607BCC                              
PROFAMCHA041101175648175703000015Nonstop - 01(M-T) - RAVEN/EVEN/BROTHERLY (:14-:16)                                                                          150                                
PROFAMCHA041101175703175733000030That's So Raven (NS) IMAGE - Coming Up Next                                                                                 150                                
PROFAMCHA041101175733175758000025xxEven Stevens (AUG04) - (NS) - Tonight @ 6:30pm                                                                            150                                
PROFAMCHA041101175758175837000039Brotherly Love (NS) - Tonight @ 7pm                                                                                         150                                
PRCFAMCHA041101175837175907000030Radio Free Roscoe II - V1 (NS1) - Tonight @ 7:30pm                                                                          150                                
PROFAMCHA041101175907175933000026Smart Guy (AUG04) - (NS/FRI) - Fridays @ 7pm                                                                                150                                
PRCFAMCHA041101175933175946000013Family Bumpers - (Phase 2 F/W 04) - Leaves (PB/MD-                                                                          150                                
ID FAMCHA041101175946180000000014Nonstop Block Open (:14-:17)                                                                                                150                                
PROFAMCHA041101180000180009000009CC Disclaimer - FAST - Family.ca (:08-:10)                                                                                  150                                
PGRFAMCHA041101180009182248002239That's So Raven                                   EPS # 1-028                                                         A6068807B                                
PROFAMCHA041101182248182302000014Nonstop - 02(M-T) - EVEN/BROTHERLY/RADIO (:14-:16)                                                                          150                                
PROFAMCHA041101182302182327000025xxEven Stevens (AUG04) - (NS) - Coming Up Next                                                                              150                                
PRCFAMCHA041101182327182402000035Polar Express Contest - In Theatres Nov 10 (Nov 1-                                                                          150                                
PROFAMCHA041101182402182441000039Brotherly Love (NS) - Tonight @ 7pm                                                                                         150                                
PRCFAMCHA041101182441182511000030Radio Free Roscoe II - V2 (NS1) - Tonight @ 7:30pm                                                                          150                                
PROFAMCHA041101182511182521000010FAMJAM - Open                                                                                                               150                                
INTFAMCHA041101182521182736000215MV Disney - (MD/NS/NSW) - Cinderella (Cheetah Girl                                                                     60688120                                
PROFAMCHA041101182736182750000014FAMJAM - Close (EMAIL)                                                                                                      150                                
PROFAMCHA041101182750182816000026Smart Guy (AUG04) - (NS/FRI) - Fridays @ 7pm                                                                                150                                
PROFAMCHA041101182816182854000038xxTeen Angel (AUG04) (NSW) - Weekends @ 7:50am                                                                              150                                
PROFAMCHA041101182854182924000030Mentors (AUG04) (NS) - Tonight @ 11:50pm                                                                                    150                                
PROFAMCHA041101182924182933000009Raven ID's II - You're Watching Family, NADM                                                                                150                                
PRCFAMCHA041101182933182946000013Family Bumpers - (Phase 2 F/W 04) - Leaves (PB/MD-                                                                          150                                
ID FAMCHA041101182946183000000014Nonstop Block Open (:14-:17)                                                                                                150                                
PROFAMCHA041101183000183009000009CC Disclaimer - FAST - Family.ca (:08-:10)                                                                                  150                                
PGRFAMCHA041101183009185251002242Even Stevens                                      Get A Job                                                           A6068807BCC                              
PROFAMCHA041101185251185306000015Nonstop - 03(M-T) - BROTHERLY/RADIO/BMW (:14-:16)                                                                           150                                
PROFAMCHA041101185306185345000039Brotherly Love (NS) - Coming Up Next                                                                                        150                                
PRCFAMCHA041101185345185415000030Radio Free Roscoe II - V1 (NS1) - Tonight @ 7:30pm                                                                          150                                
PROFAMCHA041101185415185500000045My So-Called Life - Tonight @ 11pm                                                                                          150                                
PROFAMCHA041101185500185510000010FAMJAM - Open                                                                                                               150                                
INTFAMCHA041101185510185847000337MV Disney - (MD/NS/NSW) - Backflip (Raven)                                                                             60688120                                
PROFAMCHA041101185847185901000014FAMJAM - Close (EMAIL)                                                                                                      150                                
PROFAMCHA041101185901185931000030Mentors (AUG04) (NS) - Tonight @ 11:50pm                                                                                    150                                
PRCFAMCHA041101185931185945000014Family Bumpers - (Phase 1 Spring 04) - Basketball                                                                           150                                
ID FAMCHA041101185945190000000015Nonstop Block Open (:14-:17)                                                                                                150                                
PROFAMCHA041101190000190009000009CC Disclaimer - FAST - Family.ca (:08-:10)                                                                                  150                                
PGRFAMCHA041101190009192258002249Brotherly Love                                    EPS # 02                                                             6068807B                                
PROFAMCHA041101192258192313000015Nonstop - 04(M-T) - RADIO/BMW/RADIO (:14-:16) (AUG                                                                          150                                
PRCFAMCHA041101192313192343000030Radio Free Roscoe II - V2 (NS) - Coming Up Next                                                                             150                                
PROFAMCHA041101192343192413000030VideoNow Contest (Nov 1 - 21)                                                                                               150                                
PROFAMCHA041101192413192458000045My So-Called Life - Tonight @ 11pm                                                                                          150                                
PROFAMCHA041101192458192508000010FAMJAM - Open                                                                                                               150                                
INTFAMCHA041101192508192859000351MV Disney - Fly (Hillary Duff)                                                                                         60688120                                
PROFAMCHA041101192859192913000014FAMJAM - Close (LOGO)                                                                                                       150                                
PROFAMCHA041101192913192943000030Mentors (AUG04) (NS) - Tonight @ 11:50pm                                                                                    150                                
ID FAMCHA041101192943193000000017Nonstop Block Open (:14-:17)                                                                                                150                                
PROFAMCHA041101193000193009000009CC Disclaimer - FAST - Family.ca (:08-:10)                                                                                  150                                
PGRFAMCHA041101193009195239002230Radio Free Roscoe                                 EPS # 19                                                      A88732A1065607ACC                              
PROFAMCHA041101195239195255000016Nightly Pix Line-up (SEPT) - GENERIC (:14-:16)                                                                              150                                
PRCFAMCHA041101195255195325000030Radio Free Roscoe II - V2 (NS2) - Tonight @ 8:30pm                                                                          150                                
PROFAMCHA041101195325195410000045My So-Called Life - Tonight @ 11pm                                                                                          150                                
PRCFAMCHA041101195410195423000013Nonstop - ALL THAT - Sugar & Coffee                                                                                         150                                
PROFAMCHA041101195423195453000030Mentors (AUG04) (NS) - Tonight @ 11:50pm                                                                                    150                                
PROFAMCHA041101195453195503000010FAMJAM - Open                                                                                                               150                                
INTFAMCHA041101195503195814000311MV Disney - Grazing In The Grass (Raven)                                                                               60688120                                
PROFAMCHA041101195814195828000014FAMJAM - Close (EMAIL)                                                                                                      150                                
PROFAMCHA041101195828195854000026Smart Guy (AUG04) - (NS/FRI) - Fridays @ 7pm                                                                                150                                
PROFAMCHA041101195854195932000038xxTeen Angel (AUG04) (NSW) - Weekends @ 7:50am                                                                              150                                
PRCFAMCHA041101195932195945000013Family Bumpers - (Phase 2 F/W 04) - Leaves (PB/MD-                                                                          150                                
ID FAMCHA041101195945200000000015Nonstop Block Open (:14-:17)                                                                                                150                                
PROFAMCHA041101200000200009000009CC Disclaimer - FAST - Family.ca (:08-:10)                                                                                  150                                
PGRFAMCHA041101200009202125002116Boy Meets World                                   Last Tango In Philly                                                B6068807BCC                              
PROFAMCHA041101202125202140000015Nonstop - 06(M-T) - RADIO/N-PIX (:14-:16) (AUG04)                                                                           150                                
PRCFAMCHA041101202140202210000030Radio Free Roscoe II - V2 (NS) - Coming Up Next                                                                             150                                
PROFAMCHA041101202210202255000045My So-Called Life - Tonight @ 11pm                                                                                          150                                
PROFAMCHA041101202255202325000030Mentors (AUG04) (NS) - Tonight @ 11:50pm                                                                                    150                                
PROFAMCHA041101202325202355000030All That (AUG04) (FRI) - Tonight @ 6pm                                                                                      150                                
PROFAMCHA041101202355202405000010FAMJAM - Open                                                                                                               150                                
INTFAMCHA041101202405202800000355MV Disney - (MD/NS/NSW) - Breakaway (Kelly Clarkso                                                                     60688120                                
PROFAMCHA041101202800202814000014FAMJAM - Close (EMAIL)                                                                                                      150                                
PROFAMCHA041101202814202840000026Smart Guy (AUG04) - (NS/FRI) - Fridays @ 7pm                                                                                150                                
PRCFAMCHA041101202840202858000018Radio Free Roscoe - Webthrow (Waller)                                                                                       150                                
PROFAMCHA041101202858202936000038xxTeen Angel (AUG04) (NSW) - Weekends @ 7:50am                                                                              150                                
PRCFAMCHA041101202936202945000009Family Bumpers - (Phase 1 Spring 04) - Soccer (MD-                                                                          150                                
ID FAMCHA041101202945203000000015Nonstop Block Open (:14-:17)                                                                                                150                                
PROFAMCHA041101203000203009000009CC Disclaimer - FAST - Family.ca (:08-:10)                                                                                  150                                
PGRFAMCHA041101203009205239002230Radio Free Roscoe                                 EPS # 20                                                      A88733A1065607ACC                              
PROFAMCHA041101205239205255000016Nightly Pix Line-up (SEPT) - GENERIC (:14-:16)                                                                              150                                
PROFAMCHA041101205255205340000045My So-Called Life - Coming Up Next                                                                                          150                                
PROFAMCHA041101205340205410000030Mentors (AUG04) (NS) - Tonight @ 11:50pm                                                                                    150                                
PROFAMCHA041101205410205435000025xxEven Stevens (AUG04) - (NS) - Tomorrow @ 6:30pm                                                                           150                                
PRCFAMCHA041101205435205452000017Radio Free Roscoe - Webthrow (Question Mark)                                                                                150                                
ID FAMCHA041101205452205507000015Nonstop Block Open (:14-:17)                                                                                                150                                
PROFAMCHA041101205507205517000010FAMJAM - Open                                                                                                               150                                
INTFAMCHA041101205507205901000354MV - Shadow (Ashlee Simpson)                                                                                          A10278120                                
PROFAMCHA041101205911205925000014FAMJAM - Close (LOGO)                                                                                                       150                                
PROFAMCHA041101205925205951000026Smart Guy (AUG04) - (NS/FRI) - Fridays @ 7pm                                                                                150                                
PRCFAMCHA041101205951210000000009Family Bumpers - (Phase 1 Spring 04) - DJ Spinning                                                                          150                                
ID FAMCHA041101210000210009000009Rating - PG - Ian (:08-:10)                                                                                                 150                                
PROFAMCHA041101210009210018000009CC Disclaimer - SLOW - Family.ca (:08-:10)                                                                                  150                                
PGRFAMCHA041101210018223121013103Made In America                                                                                                       B2068807DCC                              
PROFAMCHA041101223121223136000015Nonstop - 07(M-T) - BMW/LIFE/MENTORS (:14-:16) (AU                                                                          150                                
ID FAMCHA041101223136223151000015Nonstop Block Open (:14-:17)                                                                                                150                                
PROFAMCHA041101223151223200000009CC Disclaimer - SLOW - Family.ca (:08-:10)                                                                                  150                                
PGRFAMCHA041101223200225427002227Boy Meets World                                   Danger Boy                                                          B6068807BCC                              
PROFAMCHA041101225427225442000015Nonstop - 08(M-T) - LIFE/MENTORS/DARK (:14-:16) (A                                                                          150                                
PROFAMCHA041101225442225527000045My So-Called Life - Coming Up Next                                                                                          150                                
PROFAMCHA041101225527225557000030Mentors (AUG04) (NS) - Tonight @ 11:50pm                                                                                    150                                
PROFAMCHA041101225557225627000030That's So Raven (NS) IMAGE - Tomorrow @ 6pm                                                                                 150                                
PROFAMCHA041101225627225652000025xxEven Stevens (AUG04) - (NS) - Tomorrow @ 6:30pm                                                                           150                                
INTFAMCHA041101225652225817000125Gagsters - Creepy Crawlers                                                                                            A20686120                                
PRCFAMCHA041101225817225847000030Radio Free Roscoe II - V1 (NS1) - Tomorrow @ 7:30p                                                                          150                                
PROFAMCHA041101225847225913000026Smart Guy (AUG04) - (NS/FRI) - Fridays @ 7pm                                                                                150                                
PROFAMCHA041101225913225944000031Nonstop Block (LOVE) - Tomorrow @ 6pm                                                                                       150                                
ID FAMCHA041101225944230000000016Nonstop Block Open (:14-:17)                                                                                                150                                
PROFAMCHA041101230000230009000009CC Disclaimer - SLOW - Family.ca (:08-:10)                                                                                  150                                
PGRFAMCHA041101230009234738004729My So-Called Life                                 EPS # 03                                                             2068807A                                
PROFAMCHA041101234738234753000015Nonstop - 09(M-T) - MENTORS/DARK/ART (:14-:16) (AU                                                                          150                                
PROFAMCHA041101234753234823000030Mentors (AUG04) (NS) - Coming Up Next                                                                                       150                                
PROFAMCHA041101234823234853000030That's So Raven (NS) IMAGE - Tomorrow @ 6pm                                                                                 150                                
PROFAMCHA041101234853234918000025xxEven Stevens (AUG04) - (NS) - Tomorrow @ 6:30pm                                                                           150                                
PROFAMCHA041101234918234944000026Smart Guy (AUG04) - (NS/FRI) - Fridays @ 7pm                                                                                150                                
ID FAMCHA041101234944235000000016Nonstop Block Open (:14-:17)                                                                                                150                                
PROFAMCHA041101235000235009000009CC Disclaimer - SLOW - Family.ca (:08-:10)                                                                                  150                                
PGRFAMCHA041101235009001320002311Mentors                                           Dear Diary                                                    C17437 1065607ACC                              
PROFAMCHA041101001320001335000015Nonstop - 10(M-T) - DARK/ART (:14-:16) (AUG04)                                                                              150                                
PROFAMCHA041101001335001405000030That's So Raven (NS) IMAGE - Tomorrow @ 6pm                                                                                 150                                
PRCFAMCHA041101001405001435000030Radio Free Roscoe II - V2 (NS1) - Tomorrow @ 7:30p                                                                          150                                
PROFAMCHA041101001435001444000009Raven ID's II - You're Watching Family, NADM                                                                                150                                
ID FAMCHA041101001444001500000016Nonstop Block Open (:14-:17)                                                                                                150                                
PGRFAMCHA041101001500003934002434Are You Afraid Of The Dark?                       The Tale of Cutter's Treasure (part 2)                        SR0305 1066807A                                
PROFAMCHA041101003934003949000015Nonstop - 11(M-T) - ART (:14-:16) (AUG04)                                                                                   150                                
ID FAMCHA041101003949004006000017Nonstop Block Open (:14-:17)                                                                                                150                                
PROFAMCHA041101004006004015000009CC Disclaimer - SLOW - Family.ca (:08-:10)                                                                                  150                                
PGRFAMCHA041101004015005519001504Art Attack                                                                                                             60686110                                
PROFAMCHA041101005519005550000031Nonstop Block (LOVE) - Tomorrow @ 6pm                                                                                       150                                
PROFAMCHA041101005550005615000025xxEven Stevens (AUG04) - (NS) - Tomorrow @ 6:30pm                                                                           150                                
PROFAMCHA041101005615005654000039Brotherly Love (NS) - Tomorrow @ 7pm                                                                                        150                                
PROFAMCHA041101005654005704000010FAMJAM - Open                                                                                                               150                                
INTFAMCHA041101005704010051000347MV Disney - Everybody Wants You (Josh Kelley)                                                                          60688120                                
PROFAMCHA041101010051010105000014FAMJAM - Close (EMAIL)                                                                                                      150                                
PRCFAMCHA041101010105010135000030Radio Free Roscoe II - V2 (NS1) - Tomorrow @ 7:30p                                                                          150                                
PROFAMCHA041101010135010213000038xxTeen Angel (AUG04) (NSW) - Weekends @ 7:50am                                                                              150                                
PROFAMCHA041101010213010258000045My So-Called Life - Tomorrow @ 11pm                                                                                         150                                
PRCFAMCHA041101010258010328000030Astral - Clock                                                                                                              150                                
SO FAMCHA041101010328011528001200Sign Off                                                                                                                                                       
OFFFAMCHA041101011528043000031432OFF AIR                                                                                                                                                        
SO FAMCHA041102043000043011000011Sign On (oct 1)                                                                                                                                                
PROFAMCHA041102043011043021000010CC Disclaimer - FAST - Generic (:08-:10)                                                                                    150                                
PGRFAMCHA041102043021045314002253Franklin                                          Franklin Finds a Puppy/Franklin Takes the Bus                 B36670A1065607ECC                              
PROFAMCHA041102045314045328000014PS - 01(PH) - KING/KATIE/FRANKLIN (:14-:16) (AUG04                                                                          150                                
ID FAMCHA041102045328045338000010PS Playhouse AM Block Open (:10-:15)                                                                                        150                                
PROFAMCHA041102045338045348000010CC Disclaimer - FAST - Generic (:08-:10)                                                                                    150                                
PGRFAMCHA041102045348051618002230King                                              Roughing It Is Not So Hard                                    B75765A1065607ECC                              
PROFAMCHA041102051618051632000014PS - 02(PH) - KATIE/FRANKLIN/SOMETHING (:14-:16) (                                                                          150                                
ID FAMCHA041102051632051642000010PS Playhouse AM Block Open (:10-:15)                                                                                        150                                
PROFAMCHA041102051642051652000010CC Disclaimer - FAST - Generic (:08-:10)                                                                                    150                                
PGRFAMCHA041102051652054330002638Katie And Orbie                                   The Pond Prince/Katies' Rogue's Gallery/Pink!                 B62273A1065607ECC                              
PROFAMCHA041102054330054344000014PS - 03(PH) - FRANKLIN/SOMETHING/DAIGUNDER (:14-:1                                                                          150                                
ID FAMCHA041102054344054354000010PS Playhouse AM Block Open (:10-:15)                                                                                        150                                
PROFAMCHA041102054354054404000010CC Disclaimer - FAST - Generic (:08-:10)                                                                                    150                                
PGRFAMCHA041102054404060657002253Franklin                                          Franklin the Copycat/Big Brother Franklin                     B36671A1065607ECC                              
PRCFAMCHA041102060657060711000014Playhouse - HOZE HOUNDZ - Skater                                                                                            150                                
ID FAMCHA041102060711060721000010PS Playhouse AM Block Open (:10-:15)                                                                                        150                                
PROFAMCHA041102060721060731000010CC Disclaimer - FAST - Generic (:08-:10)                                                                                    150                                
PGRFAMCHA041102060731063002002231Something Else                                    Crisis Kevin/Once In A Pink Moon                              B69265A1065607ECC                              
ID FAMCHA041102063002063014000012Power Box Block Open (:12-:15)                                                                                              150                                
PGRFAMCHA041102063014065143002129Daigunder                                         EPS # 13                                                             2068607E                                
PROFAMCHA041102065143065219000036Power Rangers Dino Thunder (LONG/0804) - Coming Up                                                                          150                                
PROFAMCHA041102065219065249000030Power Rangers Ninja Storm (AUG04) (PB/WKDAY) - Tod                                                                          150                                
INTFAMCHA041102065249065412000123Gagsters - Feline Frenzy                                                                                              A20686120                                
PROFAMCHA041102065412065436000024Jason (Hiking) - Today @ 11:25am                                                                                            150                                
PRCFAMCHA041102065436065445000009Family Bumpers - (Phase 1 Spring 04) - DJ Spinning                                                                          150                                
ID FAMCHA041102065445065500000015Power Box Block Open (:12-:15)                                                                                              150                                
PGRFAMCHA041102065500071629002129Power Rangers Dino Thunder                        EPS # 02                                                            A6068607E                                
PROFAMCHA041102071629071644000015PS - 07(PH) - NINJA/HOZE/HENRY (:14-:16) (AUG04)                                                                            150                                
PROFAMCHA041102071644071714000030Power Rangers Ninja Storm (AUG04) (PB) - Coming Up                                                                          150                                
PROFAMCHA041102071714071738000024Jason (Hiking) - Today @ 11:25am                                                                                            150                                
INTFAMCHA041102071738072013000235Art Attack - Car Bike                                                                                                  60686120                                
PROFAMCHA041102072013072044000031Hercules (Wits) - Today @ 12:10pm                                                                                           150                                
PRCFAMCHA041102072044072112000028xxPower Box Block Promo (NOV04) (PB) - You're Watc                                                                          150                                
PROFAMCHA041102072112072146000034Fillmore (AUG04) - (MD) - Today @ 3pm                                                                                       150                                
ID FAMCHA041102072146072200000014Power Box Block Open (:12-:15)                                                                                              150                                
PGRFAMCHA041102072200074325002125Power Rangers Ninja Storm                         Samurai's Journey, Part 2                                           A6068607E                                
PROFAMCHA041102074325074340000015PS - 08(PH-M/W/F) - HOZE/HENRY/FRANNY (:14-:16) (A                                                                          150                                
PROFAMCHA041102074340074405000025Hoze Houndz (AUG04) (PH) - Coming Up Next                                                                                   150                                
PRCFAMCHA041102074405074423000018Henry's World (AUG04) (PH/AM) - Today @ 8:15am                                                                              150                                
INTFAMCHA041102074423074455000032Benjamin Bear (PH) (TUE/THU) - Today @ 8:45am                                                                          10275120                                
   FAMCHA041102074455074524000029Winnie the Pooh (TRAP) (PH/AM) - Today @ 9:10am                                                                                                                
PRCFAMCHA041102074524074554000030Playhouse - FRANKLIN - Skunk                                                                                                150                                
PROFAMCHA041102074554074633000039xxJojo's Circus - (DANCING/0804) - (PH/AM) - Today                                                                          150                                
PROFAMCHA041102074633074717000044Stanley - (AUG04) - (PH) - Today @ 10:05am                                                                                  150                                
PROFAMCHA041102074717074747000030Playhouse (PRINCESS) (PH/PM) - Today @ 1pm                                                                                  150                                
ID FAMCHA041102074747074800000013PS Playhouse AM Block Open (:10-:15)                                                                                        150                                
PROFAMCHA041102074800074810000010CC Disclaimer - FAST - Generic (:08-:10)                                                                                    150                                
PGRFAMCHA041102074810081048002238Hoze Houndz                                       EPS # 6-073                                                   C22818A1065607ECC                              
PROFAMCHA041102081048081103000015PS - 09(PH-M/W/F) - HENRY/FRANNY/WTP (:14-:16) (AU                                                                          150                                
PRCFAMCHA041102081103081121000018Henry's World (AUG04) (PH/AM) - Coming Up Next                                                                              150                                
INTFAMCHA041102081121081153000032Benjamin Bear (PH) (TUE/THU) - Today @ 8:45am                                                                          10675120                                
   FAMCHA041102081153081222000029Winnie the Pooh (TRAP) (PH/AM) - Today @ 9:10am                                                                                                                
PROFAMCHA041102081222081252000030Playhouse (PEDAL) - (PH/AM) - You're Watching                                                                         A     150                                
PROFAMCHA041102081252081334000042xxJojo's Circus - (CRAB/0804) - (PH/AM) - Today @                                                                           150                                
PRCFAMCHA041102081334081430000056Playhouse - STANLEY - Fish Song                                                                                             150                                
PROFAMCHA041102081430081514000044Stanley - (AUG04) - (PH) - Today @ 10:05am                                                                                  150                                
PRCFAMCHA041102081514081545000031King (AUG04) (PH/AM) - Today @ 11am                                                                                         150                                
ID FAMCHA041102081545081600000015PS Playhouse AM Block Open (:10-:15)                                                                                        150                                
PROFAMCHA041102081600081610000010CC Disclaimer - FAST - Generic (:08-:10)                                                                                    150                                
PGRFAMCHA041102081610084011002401Henry's World                                     Henry's New Shoes/Stuck On You                                A81046A1065607GCC                              
PROFAMCHA041102084011084027000016PS - 10(PH-M/W/F) - FRANNY/WTP/JOJO (:14-:16) (AUG                                                                          150                                
INTFAMCHA041102084027084059000032Benjamin Bear (PH) - Coming Up Next                                                                                    10275120                                
   FAMCHA041102084059084128000029Winnie the Pooh (TRAP) (PH/AM) - Today @ 9:10am                                                                                                                
PROFAMCHA041102084128084210000042xxJojo's Circus - (CRAB/0804) - (PH/AM) - Today @                                                                           150                                
PRCFAMCHA041102084210084256000046Playhouse - STANLEY - Squirrel Song                                                                                         150                                
PROFAMCHA041102084256084340000044Stanley - (AUG04) - (PH) - Today @ 10:05am                                                                                  150                                
PRCFAMCHA041102084340084411000031King (AUG04) (PH/AM) - Today @ 11am                                                                                         150                                
PROFAMCHA041102084411084441000030Playhouse (PRINCESS) (PH/PM) - Today @ 1pm                                                                                  150                                
ID FAMCHA041102084441084456000015PS Playhouse AM Block Open (:10-:15)                                                                                        150                                
PROFAMCHA041102084456084506000010CC Disclaimer - FAST - Generic (:08-:10)                                                                                    150                                
INTFAMCHA041102084456090731002235Secret World Of Benjamin Bear; The                EPS # 1-008                                                   A75153A10656120CC                              
PROFAMCHA041102090741090756000015PS - 11(PH) - WTP/JOJO/STANLEY (:14-:16) (AUG04)                                                                            150                                
   FAMCHA041102090756090825000029Winnie the Pooh (TRAP) (PH/AM) - Coming Up Next                                                                                                                
PROFAMCHA041102090825090855000030Playhouse (PEDAL) - (PH/AM) - You're Watching                                                                         A     150                                
PROFAMCHA041102090855090934000039xxJojo's Circus - (DANCING/0804) - (PH/AM) - Today                                                                          150                                
PRCFAMCHA041102090934090953000019Playhouse - FRANKLIN - Party                                                                                                150                                
INTFAMCHA041102090953091123000130MV Disney - (PH) Walk The Llama Llama                                                                                  60688120                                
PROFAMCHA041102091123091207000044Stanley - (AUG04) - (PH) - Today @ 10:05am                                                                                  150                                
PRCFAMCHA041102091207091238000031King (AUG04) (PH/AM) - Today @ 11am                                                                                         150                                
PRCFAMCHA041102091238091250000012Family Bumpers - (Phase 1 Spring 04) - Funhouse (P                                                                          150                                
ID FAMCHA041102091250091300000010PS Playhouse AM Block Open (:10-:15)                                                                                        150                                
PROFAMCHA041102091300091310000010CC Disclaimer - FAST - Generic (:08-:10)                                                                                    150                                
PGRFAMCHA041102091310093549002239New Adventures of Winnie the Pooh; The            The Good, The Bad, and The Tigger                                    6068607ECC                              
PROFAMCHA041102093549093605000016PS - 12(PH) - JOJO/STANLEY/ART (:14-:16) (AUG04)                                                                            150                                
PROFAMCHA041102093605093647000042xxJojo's Circus - (CRAB/0804) - (PH/AM) - Coming U                                                                          150                                
PROFAMCHA041102093647093731000044Stanley - (AUG04) - (PH) - Today @ 10:05am                                                                                  150                                
PRCFAMCHA041102093731093802000031King (AUG04) (PH/AM) - Today @ 11am                                                                                         150                                
PRCFAMCHA041102093802093831000029Playhouse - WINNIE THE POOH - Tigger Bounce                                                                                 150                                
PROFAMCHA041102093831093856000025Hoze Houndz (Can't Fly) (PH/PM) - Today @ 2:10pm                                                                            150                                
PRCFAMCHA041102093856093914000018Henry's World (AUG04) (PH/AM) - Tomorrow @ 8:15am                                                                           150                                
PROFAMCHA041102093914093944000030Playhouse (PRINCESS) (PH/PM) - Today @ 1pm                                                                                  150                                
ID FAMCHA041102093944093959000015PS Playhouse AM Block Open (:10-:15)                                                                                        150                                
PGRFAMCHA041102093959100407002408JoJo's Circus                                     EPS # 04                                                            A6068607E                                
PROFAMCHA041102100407100422000015PS - 13(PH) - STANLEY/ART/KING (:14-:16) (AUG04)                                                                            150                                
PROFAMCHA041102100422100506000044Stanley - (AUG04) - (PH) - Coming Up Next                                                                                   150                                
PRCFAMCHA041102100506100537000031King (AUG04) (PH/AM) - Today @ 11am                                                                                         150                                
PROFAMCHA041102100537100607000030Playhouse (PEDAL) - (PH/AM) - You're Watching                                                                         A     150                                
PROFAMCHA041102100607100632000025Hoze Houndz (Can't Fly) (PH/PM) - Today @ 2:10pm                                                                            150                                
PRCFAMCHA041102100632100655000023Playhouse - HOUSE OF MOUSE - Calculator                                                                                     150                                
PRCFAMCHA041102100655100748000053Franklin (AUG04) - (PH) - Tomorrow @ 5:40am                                                                                 150                                
ID FAMCHA041102100748100800000012PS Playhouse AM Block Open (:10-:15)                                                                                        150                                
PROFAMCHA041102100800100810000010CC Disclaimer - FAST - Generic (:08-:10)                                                                                    150                                
PGRFAMCHA041102100810103212002402Stanley                                           Bloodhound Blues/Clock-A-Doodle-Do!                                 A6068607ECC                              
PROFAMCHA041102103212103226000014PS - 14(PH) - ART/KING/JASON (:14-:16) (AUG04)                                                                              150                                
PRCFAMCHA041102103226103257000031King (AUG04) (PH/AM) - Today @ 11am                                                                                         150                                
PROFAMCHA041102103257103327000030Playhouse (PRINCESS) (PH/PM) - Today @ 1pm                                                                                  150                                
PROFAMCHA041102103327103352000025Hoze Houndz (Can't Fly) (PH/PM) - Today @ 2:10pm                                                                            150                                
PRCFAMCHA041102103352103406000014Playhouse - HOZE HOUNDZ - Skater                                                                                            150                                
PROFAMCHA041102103406103448000042xxJojo's Circus - (CRAB/0804) - (PH/AM) - Tomorrow                                                                          150                                
INTFAMCHA041102103448103520000032Benjamin Bear (PH) (MON/WED) - Tomorrow @ 8:45am                                                                       10675120                                
PROFAMCHA041102103520103550000030Family Image AUG04 - Playhouse                                                                                        A     150                                
ID FAMCHA041102103550103600000010PS Playhouse AM Block Open (:10-:15)                                                                                        150                                
PGRFAMCHA041102103600105606002006Art Attack                                                                                                            A60686110                                
PROFAMCHA041102105606105621000015PS - 15(PH) - KING/JASON/LILO (:14-:16) (AUG04)                                                                             150                                
PRCFAMCHA041102105621105652000031King (AUG04) (PH/AM) - Coming Up Next                                                                                       150                                
PROFAMCHA041102105652105717000025Hoze Houndz (Can't Fly) (PH/PM) - Today @ 2:10pm                                                                            150                                
PRCFAMCHA041102105717105823000106Playhouse - WINNIE THE POOH - Christopher Robin                                                                             150                                
PRCFAMCHA041102105823105841000018Henry's World (AUG04) (PH/AM) - Tomorrow @ 8:15am                                                                           150                                
PROFAMCHA041102105841105911000030Playhouse (PEDAL) - (PH/AM) - You're Watching                                                                         A     150                                
   FAMCHA041102105911105940000029Winnie the Pooh (TRAP) (PH/AM) - Tomorrow @ 9:10am                                                                                                             
PRCFAMCHA041102105940105947000007Frankie Muniz ID - You're Watching Family                                                                                   150                                
ID FAMCHA041102105947110000000013PS Playhouse AM Block Open (:10-:15)                                                                                        150                                
PROFAMCHA041102110000110010000010CC Disclaimer - FAST - Generic (:08-:10)                                                                                    150                                
PGRFAMCHA041102110010112240002230King                                              The Self-Mobilating Gizmet                                    B75759A1065607ECC                              
PROFAMCHA041102112240112255000015PS - 16(MD/L) - JASON/LILO/HERCULES (:14-:16) (AUG                                                                          150                                
PROFAMCHA041102112255112319000024Jason (Hiking) - Coming Up Next                                                                                             150                                
PROFAMCHA041102112319112349000030xxLilo & Stitch (AUG04) - (MD) - Today @ 11:50am                                                                            150                                
PROFAMCHA041102112349112413000024Hercules (Count) - Today @ 12:10pm                                                                                          150                                
INTFAMCHA041102112413112533000120Gagsters - Boat Blaster                                                                                               A20686120                                
PROFAMCHA041102112533112607000034Fillmore (AUG04) - (MD) - Today @ 3pm                                                                                       150                                
PRCFAMCHA041102112607112637000030Mad Dash Combo (AUG04) - Coming Up Next                                                                                     150                                
PRCFAMCHA041102112637112646000009Family Bumpers - (Phase 1 Spring 04) - Soccer (MD-                                                                          150                                
ID FAMCHA041102112646112700000014Mad Dash Block Open (:13-:15)                                                                                               150                                
PGRFAMCHA041102112700114909002209Jason and the Heroes of Mount Olympus             EPS # 25                                                             6068607E                                
PROFAMCHA041102114909114923000014PS - 17(MD/L) - LILO/HERCULES/GOOF (:14-:16) (AUG0                                                                          150                                
PRCFAMCHA041102114923114953000030Mad Dash Combo (AUG04) - You're Experiencing                                                                                150                                
ID FAMCHA041102114953115006000013Mad Dash Block Open (:13-:15)                                                                                               150                                
PGRFAMCHA041102115006121245002239Disney's Lilo & Stitch: The Series                EPS # 11                                                            A6068607E                                
PROFAMCHA041102121245121259000014PS - 18(MD/L) - HERCULES/GOOF/MERMAID (:14-:16) (A                                                                          150                                
ID FAMCHA041102121259121312000013Mad Dash Block Open (:13-:15)                                                                                               150                                
PROFAMCHA041102121312121322000010CC Disclaimer - FAST - Generic (:08-:10)                                                                                    150                                
