SO FAMCHA120801043000043011000011Sign On (oct 1)                                                                                                                                                
PGRFAMCHA120801043011045649002638Katie And Orbie                                   EP: 66                                                        B62269A1065607ECC                              
ID FAMCHA120801045649045655000006Astral ID (HD) (Jan2011)                                                                                                    150                                
PROFAMCHA120801045655045701000006D-JR - Bumper 5 (May2011)                                                                                                   150                                
PGRFAMCHA120801045701051932002231Franny's Feet                                     EP: 50                                                        C31292 1065607ECC                              
PROFAMCHA120801051932051939000007D-JR Live Action ID - SWOBB - Coming Up (May2012)                                                                           150                                
PROFAMCHA120801051939052004000025D-JR Live Action ID - #12 Feed Goldfish (May2012)                                                                           150                                
PROFAMCHA120801052004052011000007D-JR - Flex ID - Blue (:6-:10) (Feb2012)                                                                                    150                                
PROFAMCHA120801052011052036000025D-JR Live Action ID - #20 Calendar (May2012)                                                                                150                                
PROFAMCHA120801052036052043000007D-JR Live Action ID - SWOBB - Now (May2012)                                                                                 150                                
PGRFAMCHA120801052043054318002235The Secret World of Benjamin Bear                 EPS # 1-006                                                   B75151 1065607ECC                              
ID FAMCHA120801054318054324000006Astral ID (HD) (Jan2011)                                                                                                    150                                
PROFAMCHA120801054324054334000010D-JR - Station ID (:10) (May2011)                                                                                           150                                
PGRFAMCHA120801054334060508002134Harry and His Bucket Full of Dinosaurs            EP: 13                                                        B05032 1065607ECC                              
PROFAMCHA120801060508060518000010D-JR - Flex ID - Green (:6-:10) (Feb2012)                                                                                   150                                
PGRFAMCHA120801060518062924002406Henry's World                                     EPS # 2-024                                                   B81055 1065607ECC                              
ID FAMCHA120801062924062930000006Astral ID (HD) (Jan2011)                                                                                                    150                                
PROFAMCHA120801062930062937000007D-JR Live Action ID - Mickey Mouse Clubhouse - Com                                                                          150                                
PROFAMCHA120801062937063002000025D-JR Live Action ID - #47 Making Breakfast (May201                                                                          150                                
PROFAMCHA120801063002063008000006D-JR - Bumper 6 (May2011)                                                                                                   150                                
PROFAMCHA120801063008063033000025D-JR Live Action ID - #42 Brush Teeth (May2012)                                                                             150                                
PROFAMCHA120801063033063040000007D-JR Live Action ID - Mickey Mouse Clubhouse - Now                                                                          150                                
PGRFAMCHA120801063040065440002400Disney's Mickey Mouse Clubhouse                   EP: 31                                                               6068605ACC                              
PROFAMCHA120801065440065512000032D-JR Icon Story - JATNLP - Maze Part 1 - Coming Up                                                                          150                                
PROFAMCHA120801065512065542000030D-JR Promo - On demand online REVISED - D-JR.ca (M                                                                          150                                
PROFAMCHA120801065542065548000006D-JR - Short Open (:06) (May2011)                                                                                           150                                
PROFAMCHA120801065548065848000300PH-D Short - Mickey Mousekersize Shorts - 08 - Min                                                                          150                                
PROFAMCHA120801065848065854000006D-JR - Short Close (:06) (May2011)                                                                                          150                                
PROFAMCHA120801065854065919000025D-JR Promo - JATNP - Get more on the channel REV (                                                                          150                                
PROFAMCHA120801065919065950000031D-JR Icon Story - JATNLP - Maze Part 2 - Now (May                                                                           150                                
PROFAMCHA120801065950065958000008D-JR - Flex ID - Purple (:6-:10) (Feb2012)                                                                                  150                                
PGRFAMCHA120801065958072402002404Disney Jake and the Never Land Pirates            EP: 23                                                               6068605ACC                              
ID FAMCHA120801072402072407000005Astral ID (HD) (Jan2011)                                                                                                    150                                
PROFAMCHA120801072407072416000009LU Summer 2012 (HD) Hannah Montana/Wingin' It @ 8:                                                                          150                                
PRCFAMCHA120801072416072439000023xBeverly Hills Chihauhau 2 (HD) Premieres Friday N                                                                          150                                
PRCFAMCHA120801072439072535000056Big Ticket Summer (HD) Hype 3 - Family.ca (July30-                                                                          150                                
PROFAMCHA120801072535072605000030xSLOD (HD) Retag - This Morning @ 8:30 (Jun2012)                                                                            150                                
PGRFAMCHA120801072605072734000129MV Non Disney (HD) BTS - Veronica - Incompatible (                                                                     10615120                                
PROFAMCHA120801072734072804000030Jessie (HD) Clip Promo- Scrabble - Friday Night @                                                                           150                                
PROFAMCHA120801072804072900000056xHannah (HD) Dec Refresh - Coming Up Next (Dec2011                                                                          150                                
PROFAMCHA120801072900072930000030Phineas & Ferb DXD Summer Morn Marathons (HD) Week                                                                          150                                
PRCFAMCHA120801072930073000000030Family Bumper Flex (HD) Flex ID Version #1 (Mar201                                                                          150                                
PGRFAMCHA120801073000075240002240Hannah Montana                                    EP: 20                                                               6068807BCC                              
PROFAMCHA120801075240075250000010LU Summer 2012 (HD) Wingin It/SLOD @ 8:30am (8-10)                                                                          150                                
PRCFAMCHA120801075250075335000045SIU Made In Japan (HD) Rocky & CeeCee Sell - Prems                                                                          150                                
PROFAMCHA120801075335075356000021Summer Marathons (HD) Austin & Ally - This Afterno                                                                          150                                
PROFAMCHA120801075356075447000051xWOWP The Movie (HD) Popcorn Pix - Saturday @ Noon                                                                          150                                
PGRFAMCHA120801075447075720000233MV Disney (HD) BTS - Ross Lynch - Heard it on the                                                                      60685120                                
PRCFAMCHA120801075720075812000052WUW (HD) Clip Promo 2 - New Episode Sunday Morning                                                                          150                                
PROFAMCHA120801075812075827000015Big Ticket Summer (HD) Countdown Clock - 4 Weeks L                                                                          150                                
PRCFAMCHA120801075827075857000030Aug 10 ANT Farm vs Jessie Stunt (HD) Friday Aug 10                                                                          150                                
PROFAMCHA120801075857075918000021Wingin It (HD) Season 2 Promo - ALEX - Coming Up N                                                                          150                                
PROFAMCHA120801075918075948000030Phineas & Ferb DXD Summer Morn Marathons (HD) Week                                                                          150                                
PRCFAMCHA120801075948080003000015Family Bumper Flex (HD) Flex ID - Really Me (Apr20                                                                          150                                
PRCFAMCHA120801080003080015000012xDescriptive Video Slate (HD) (Jan 2011)                                                                                    150                                
PGRFAMCHA120801080015082244002229Wingin' It                                        EP: 16                                                        C32727 1065607ACD                              
ID FAMCHA120801082244082249000005Astral ID (HD) (Jan2011)                                                                                                    150                                
PROFAMCHA120801082249082257000008LU Summer 2012 (HD) SLOD/WOWP @ 9:00am (8-10)                                                                               150                                
PROFAMCHA120801082257082327000030Phineas & Ferb DXD Summer Morn Marathons (HD) Week                                                                          150                                
PROFAMCHA120801082327082350000023Summer Marathons (HD) GLC - This Afternoon Startin                                                                          150                                
PGRFAMCHA120801082350082720000330MV Disney (HD) BTS - Bridgit Mendler - Somebody (J                                                                     60685120                                
PROFAMCHA120801082720082835000115ANT Farm (HD) Music Video - Weekend Afternoons @ 2                                                                          150                                
PROFAMCHA120801082835082905000030xSLOD (HD) Sandwich - Coming Up Next (April2012)                                                                            150                                
PROFAMCHA120801082905082945000040DXD Promo (HD) West 49 LRN2SK Tour Promo - Disneyx                                                                          150                                
PRCFAMCHA120801082945082959000014Family Summer Bumper (HD) - Mole (June 29-Sept3)                                                                            150                                
PGRFAMCHA120801082959085200002201The Suite Life on Deck                            EP: 26                                                               6068607BCC                              
PROFAMCHA120801085200085209000009LU Summer 2012 (HD) WOWP/SWAC @ 9:30am (8-10)                                                                               150                                
PROFAMCHA120801085209085324000115SIU Made In Japan (HD) Trailer - Prems Friday Augu                                                                          150                                
PROFAMCHA120801085324085354000030Good Luck Charlie (HD) Duncan Family Retag - This                                                                           150                                
PGRFAMCHA120801085354085734000340MV Non Disney (HD) BTS - Veronica - Busted (Jul17-                                                                     10615120                                
PROFAMCHA120801085734085749000015xANT Farm (HD) Ole McDonald Retag - Today @ Noon (                                                                          150                                
PROFAMCHA120801085749085810000021Summer Marathons (HD) Austin & Ally - This Afterno                                                                          150                                
PRCFAMCHA120801085810085832000022Really Me (HD) Keepin It Real - Saturday Night @ 6                                                                          150                                
PROFAMCHA120801085832085902000030xWOWP (HD) Spellbook - Coming Up Next (Oct2011)                                                                             150                                
PROFAMCHA120801085902085932000030Phineas & Ferb DXD Summer Morn Marathons (HD) Week                                                                          150                                
PRCFAMCHA120801085932090002000030Family Bumper Flex (HD) Flex ID Version #2 (Mar201                                                                          150                                
PGRFAMCHA120801090002092234002232Disney Wizards of Waverly Place                   EP: 17                                                               6068507BCC                              
ID FAMCHA120801092234092240000006Astral ID (HD) (Jan2011)                                                                                                    150                                
PROFAMCHA120801092240092249000009LU Summer 2012 (HD) SWAC/GLC @ 10:00am (8-10)                                                                               150                                
PROFAMCHA120801092249092319000030Phineas & Ferb DXD Summer Morn Marathons (HD) Week                                                                          150                                
PROFAMCHA120801092319092349000030xSLOD (HD) Retag - This Morning @ 10:30 (Jun2012)                                                                           150                                
PROFAMCHA120801092349092419000030xShake It Up (HD) Cee Cee Sell - This Morning @ 11                                                                          150                                
PGRFAMCHA120801092419092805000346MV Non Disney (HD) BTS Tyler Medeiros - Say I Love                                                                     10615120                                
PROFAMCHA120801092805092838000033xAustin & Ally (HD) Music Lesson - Tonight @ 8:00                                                                           150                                
PROFAMCHA120801092838092923000045xSWAC (HD) Made Up Show - Coming Up Next (Jan2011)                                                                          150                                
PRCFAMCHA120801092923092946000023xBeverly Hills Chihauhau 2 (HD) Premieres Friday N                                                                          150                                
PRCFAMCHA120801092946093001000015Family Bumper Flex (HD) Flex ID - Really Me (Apr20                                                                          150                                
PGRFAMCHA120801093001095232002231Sonny With A Chance                               EP: 05                                                               6068607BCC                              
PROFAMCHA120801095232095241000009LU Summer 2012 (HD) GLC/SLOD @ 10:30am (8-10)                                                                               150                                
PROFAMCHA120801095241095311000030Phineas & Ferb DXD Summer Morn Marathons (HD) Week                                                                          150                                
PROFAMCHA120801095311095354000043Gravity Falls (HD) Gruncle Stan - New Episode Frid                                                                          150                                
PROFAMCHA120801095354095418000024Jessie (HD) Clip Promo #2 - Friday Night @ 7:00 (M                                                                          150                                
PGRFAMCHA120801095418095807000349MV Non Disney (HD) Victoria Duffield - Break My He                                                                     10615120CC                              
PRCFAMCHA120801095807095849000042WUW (HD) Clip Promo 1 - New Episode Sunday Morning                                                                          150                                
PROFAMCHA120801095849095919000030Good Luck Charlie (HD) Duncan Family Refresh - Com                                                                          150                                
PRCFAMCHA120801095919095949000030Big Ticket Summer (HD) Concert 2 - Get All Ticket                                                                           150                                
PRCFAMCHA120801095949100003000014Family Bumper Flex (HD) Flex ID - Wingin It (Apr20                                                                          150                                
PGRFAMCHA120801100003102304002301Disney Good Luck Charlie                          EP: 08                                                               6068807BCC                              
ID FAMCHA120801102304102310000006Astral ID (HD) (Jan2011)                                                                                                    150                                
PROFAMCHA120801102310102319000009LU Summer 2012 (HD) SLOD/WOWP @ 11:00am (8-10)                                                                              150                                
PROFAMCHA120801102319102349000030Phineas & Ferb DXD Summer Morn Marathons (HD) Week                                                                          150                                
PGRFAMCHA120801102349102642000253MV Non Disney (HD) BTS R5 - Say You'll Stay (June                                                                      10615120                                
PROFAMCHA120801102642102716000034Big Ticket Summer (HD) R5 Liner - Family.ca (Jul9-                                                                          150                                
PROFAMCHA120801102716102846000130ME:  Paranorman (HD) Story 1 - In Theatres Aug 17                                                                           150                                
PROFAMCHA120801102846102909000023Summer Marathons (HD) GLC - This Afternoon Startin                                                                          150                                
PROFAMCHA120801102909102939000030xSLOD (HD) Sandwich - Coming Up Next (April2012)                                                                            150                                
PRCFAMCHA120801102939102957000018Family Summer Bumper (HD) - Tennis Ball (June 29-S                                                                          150                                
PGRFAMCHA120801102957105444002447The Suite Life on Deck                            EP: 29                                                               6068607BCC                              
PROFAMCHA120801105444105454000010LU Summer 2012 (HD) WOWP/SIU @ 11:30am  (8-10)                                                                              150                                
PRCFAMCHA120801105454105539000045SIU Made In Japan (HD) Rocky & CeeCee Sell - Prems                                                                          150                                
PROFAMCHA120801105539105624000045MGA Entertainment                                                                                                           150                                
PROFAMCHA120801105624105639000015xANT Farm (HD) Ole McDonald Retag - Today @ Noon (                                                                          150                                
PRCFAMCHA120801105639105735000056Big Ticket Summer (HD) Hype 3 - Family.ca (July30-                                                                          150                                
PROFAMCHA120801105735105756000021Summer Marathons (HD) Austin & Ally - This Afterno                                                                          150                                
PROFAMCHA120801105756105841000045xSo Random (HD) Super Tease Promo - Tonight @ 8:30                                                                          150                                
PROFAMCHA120801105841105904000023xWOWP (HD) Harper - Coming Up Next (Jan2011)                                                                                150                                
PROFAMCHA120801105904105934000030Phineas & Ferb DXD Summer Morn Marathons (HD) Week                                                                          150                                
PRCFAMCHA120801105934105954000020Family Bumper Flex (HD) Flex ID Version #3 (Mar201                                                                          150                                
PGRFAMCHA120801105954112227002233Disney Wizards of Waverly Place                   EP: 03                                                               6068607BCC                              
PROFAMCHA120801112227112237000010LU Summer 2012 (HD) SIU/ANT Farm @ Noon (8-10)                                                                              150                                
PROFAMCHA120801112237112307000030Phineas & Ferb DXD Summer Morn Marathons (HD) Week                                                                          150                                
PROFAMCHA120801112307112322000015MGA Entertainment                                                                                                           150                                
PROFAMCHA120801112322112345000023Summer Marathons (HD) GLC - This Afternoon Startin                                                                          150                                
PRCFAMCHA120801112345112408000023xBeverly Hills Chihauhau 2 (HD) Premieres Friday N                                                                          150                                
PGRFAMCHA120801112408112641000233MV Disney (HD) BTS - Ross Lynch - Heard it on the                                                                      60685120                                
PRCFAMCHA120801112641112711000030Aug 10 ANT Farm vs Jessie Stunt (HD) Friday Aug 10                                                                          150                                
PROFAMCHA120801112711112743000032D-JR Promo - Stella and Sam - Get more on the chan                                                                          150                                
PROFAMCHA120801112743112813000030xShake It Up (HD) Cee Cee Sell - Coming Up Next (J                                                                          150                                
PROFAMCHA12080111281311290300005020th Century Fox                                                                                                            150                                
PROFAMCHA120801112903112943000040DXD Promo (HD) West 49 LRN2SK Tour Promo - Disneyx                                                                          150                                
PRCFAMCHA120801112943112958000015Family Bumper Flex (HD) Flex ID - Really Me (Apr20                                                                          150                                
PGRFAMCHA120801112958115231002233Disney Shake It Up                                EP: 20                                                               6068707BCC                              
PROFAMCHA120801115231115346000115SIU Made In Japan (HD) Trailer - Prems Friday Augu                                                                          150                                
PROFAMCHA12080111534611543600005020th Century Fox                                                                                                            150                                
PROFAMCHA120801115436115457000021Summer Marathons (HD) Austin & Ally - This Afterno                                                                          150                                
PGRFAMCHA120801115457115802000305MV Disney (HD) BTS - Allstar Weekend - Come Down W                                                                     60685120                                
PRCFAMCHA120801115802115824000022Really Me (HD) Keepin It Real - Saturday Night @ 6                                                                          150                                
PROFAMCHA120801115824115907000043xANT Farm (HD) Refresh Ole McDonald (Long) - Comin                                                                          150                                
PROFAMCHA120801115907115937000030Phineas & Ferb DXD Summer Morn Marathons (HD) Week                                                                          150                                
PRCFAMCHA120801115937115955000018Family Summer Bumper (HD) - Beach Ball (June 29-Se                                                                          150                                
PGRFAMCHA120801115955122211002216Disney A.N.T. Farm                                EP: 21                                                               6068607BCC                              
ID FAMCHA120801122211122217000006Astral ID (HD) (Jan2011)                                                                                                    150                                
PROFAMCHA120801122217122246000029Phineas & Ferb (HD) Where's Perry Pt 1 - Special E                                                                          150                                
PROFAMCHA120801122246122331000045Tennis Canada                                                                                                               150                                
PROFAMCHA120801122331122346000015Big Ticket Summer (HD) Countdown Clock - 4 Weeks L                                                                          150                                
PROFAMCHA120801122346122429000043Gravity Falls (HD) Gruncle Stan - New Episode Frid                                                                          150                                
PGRFAMCHA120801122429122759000330MV Disney (HD) BTS - Bridgit Mendler - Somebody (J                                                                     60685120                                
PROFAMCHA120801122759122842000043ANT Farm (HD) Refresh Ole McDonald (Long) - Weeken                                                                          150                                
PROFAMCHA120801122842122917000035D-JR Promo - Handy Manny - Get more on the channel                                                                          150                                
PROFAMCHA120801122917122947000030xSo Random (HD) Girl Sell - Coming Up Next (July20                                                                          150                                
PRCFAMCHA120801122947122959000012Family Summer Bumper (HD) - Worm (June 29-Sept3)                                                                            150                                
PGRFAMCHA120801122959125130002131So Random!                                        EP: 11                                                               6068807BCC                              
PROFAMCHA120801125130125200000030Phineas & Ferb DXD Summer Morn Marathons (HD) Week                                                                          150                                
PROFAMCHA12080112520012525000005020th Century Fox                                                                                                            150                                
PROFAMCHA120801125250125313000023Summer Marathons (HD) GLC - This Afternoon Startin                                                                          150                                
PROFAMCHA120801125313125354000041xAustin & Ally (HD) Music Sell - Tonight @ 8:00 (M                                                                          150                                
PROFAMCHA120801125354125439000045xSo Random (HD) Super Tease Promo - Tonight @ 8:30                                                                          150                                
PGRFAMCHA120801125439125819000340MV Non Disney (HD) BTS - Veronica - Busted (Jul17-                                                                     10615120                                
PROFAMCHA120801125819125849000030Wingin It (HD) Bennet High Clip - Saturday Morning                                                                          150                                
PROFAMCHA120801125849125902000013xWOWP (HD) Alex S3 GENERIC - Coming Up Next (Jan20                                                                          150                                
PRCFAMCHA120801125902125932000030Big Ticket Summer (HD) Concert 2 - Get All Ticket                                                                           150                                
PRCFAMCHA120801125932130002000030Family Bumper Flex (HD) Flex ID Version #4 (Mar201                                                                          150                                
PGRFAMCHA120801130002132205002203Disney Wizards of Waverly Place                   EP: 10                                                               6068507BCC                              
ID FAMCHA120801132205132211000006Astral ID (HD) (Jan2011)                                                                                                    150                                
PRCFAMCHA120801132211132256000045SIU Made In Japan (HD) Rocky & CeeCee Sell - Prems                                                                          150                                
PROFAMCHA120801132256132317000021Summer Marathons (HD) Austin & Ally - This Afterno                                                                          150                                
PRCFAMCHA120801132317132340000023xGravity Falls (HD) Comedy Sell - New Episode Frid                                                                          150                                
PGRFAMCHA120801132340132729000349MV Non Disney (HD) Victoria Duffield - Break My He                                                                     10615120CC                              
PROFAMCHA120801132729132759000030Jessie (HD) Clip Promo- Scrabble - Friday Night @                                                                           150                                
PROFAMCHA120801132759132829000030xWOWP (HD) Spellbook - Weekend Afternoons @ 4:30 (                                                                          150                                
PROFAMCHA120801132829132854000025D-JR Promo - JATNP - Get more on the channel REV (                                                                          150                                
PROFAMCHA120801132854132914000020Good Luck Charlie (HD) DuncanBallet - Coming Up Ne                                                                          150                                
PROFAMCHA120801132914132943000029Phineas & Ferb (HD) Where's Perry Pt 1 - Special E                                                                          150                                
PRCFAMCHA120801132943132959000016Family Summer Bumper (HD) - Bee (June29-Sept3)                                                                              150                                
PGRFAMCHA120801132959135230002231Good Luck Charlie                                 EP: 18                                                               6068707BCC                              
PROFAMCHA120801135230135300000030Phineas & Ferb DXD Summer Morn Marathons (HD) Week                                                                          150                                
PROFAMCHA120801135300135315000015MGA Entertainment                                                                                                           150                                
PRCFAMCHA120801135315135338000023xBeverly Hills Chihauhau 2 (HD) Premieres Friday N                                                                          150                                
PGRFAMCHA120801135338135633000255MV Non Disney (HD) Cody Simpson - Got Me Good (Jul                                                                     10615120                                
PRCFAMCHA120801135633135649000016xReally Me (HD) Green Screen - Saturday Night @ 6:                                                                          150                                
PROFAMCHA120801135649135819000130ME:  Paranorman (HD) Story 1 - In Theatres Aug 17                                                                           150                                
PRCFAMCHA120801135819135849000030Aug 10 ANT Farm vs Jessie Stunt (HD) Friday Aug 10                                                                          150                                
PROFAMCHA120801135849135910000021Summer Marathons (HD) Austin & Ally - Next (jun29-                                                                          150                                
PROFAMCHA120801135910135950000040DXD Promo (HD) West 49 LRN2SK Tour Promo - Disneyx                                                                          150                                
PRCFAMCHA120801135950140006000016Family Summer Bumper (HD) - Popsicle (June 29-Sept                                                                          150                                
PGRFAMCHA120801140006142607002601Disney Austin & Ally                              EP: 01                                                               6068807BCC                              
ID FAMCHA120801142607142613000006Astral ID (HD) (Jan2011)                                                                                                    150                                
PRCFAMCHA120801142613142709000056Big Ticket Summer (HD) Hype 3 - Family.ca (July30-                                                                          150                                
PROFAMCHA120801142709142754000045Universal Home Entertainment                                                                                                150                                
PROFAMCHA120801142754142824000030D-JR Promo - MMCH - Get more MMCH on D-JR the chan                                                                          150                                
PROFAMCHA120801142824142857000033xAustin & Ally (HD) Music Lesson - Coming Up Next                                                                           150                                
PROFAMCHA120801142857142926000029Phineas & Ferb (HD) Where's Perry Pt 1 - Special E                                                                          150                                
PRCFAMCHA120801142926142956000030Family Bumper Flex (HD) Flex ID Version #1 (Mar201                                                                          150                                
PGRFAMCHA120801142956145312002316Disney Austin & Ally                              EP: 03                                                               6068807BCC                              
PROFAMCHA120801145312145342000030Phineas & Ferb DXD Summer Morn Marathons (HD) Week                                                                          150                                
PROFAMCHA120801145342145427000045xSo Random (HD) Super Tease Promo - Tonight @ 8:30                                                                          150                                
PROFAMCHA120801145427145451000024Jessie (HD) Clip Promo #2 - Friday Night @ 7:00 (M                                                                          150                                
PROFAMCHA120801145451145542000051xWOWP The Movie (HD) Popcorn Pix - Saturday @ Noon                                                                          150                                
PRCFAMCHA120801145542145634000052WUW (HD) Clip Promo 2 - New Episode Sunday Morning                                                                          150                                
PGRFAMCHA120801145634145907000233MV Disney (HD) BTS - Ross Lynch - Heard it on the                                                                      60685120                                
PROFAMCHA120801145907145922000015Big Ticket Summer (HD) Countdown Clock - 4 Weeks L                                                                          150                                
PROFAMCHA120801145922145943000021Summer Marathons (HD) Austin & Ally - Next (jun29-                                                                          150                                
PRCFAMCHA120801145943145958000015Family Bumper Flex (HD) Flex ID - Really Me (Apr20                                                                          150                                
PGRFAMCHA120801145958152244002246Disney Austin & Ally                              EP: 19                                                               6068807BCC                              
ID FAMCHA120801152244152250000006Astral ID (HD) (Jan2011)                                                                                                    150                                
PROFAMCHA120801152250152405000115SIU Made In Japan (HD) Trailer - Prems Friday Augu                                                                          150                                
PROFAMCHA120801152405152450000045Feld Entertainment                                                                                                          150                                
PRCFAMCHA120801152450152520000030Big Ticket Summer (HD) Concert 2 - Get All Ticket                                                                           150                                
PROFAMCHA12080115252015261000005020th Century Fox                                                                                                            150                                
PROFAMCHA120801152610152625000015xANT Farm (HD) Refresh Ole McDonald - Weekend Morn                                                                          150                                
PGRFAMCHA120801152625152755000130MV Disney (HD) BTS - Allstar Weekend - Come Down W                                                                     60685120                                
PROFAMCHA120801152755152828000033xAustin & Ally (HD) Music Lesson - Coming Up Next                                                                           150                                
PROFAMCHA120801152828152913000045Universal Home Entertainment                                                                                                150                                
PROFAMCHA120801152913152942000029Phineas & Ferb (HD) Where's Perry Pt 1 - Special E                                                                          150                                
PRCFAMCHA120801152942152956000014Family Summer Bumper (HD) - Mole (June 29-Sept3)                                                                            150                                
PGRFAMCHA120801152956155227002231Disney Austin & Ally                              EP: 05                                                               6068807BCC                              
PROFAMCHA120801155227155257000030Phineas & Ferb DXD Summer Morn Marathons (HD) Week                                                                          150                                
PROFAMCHA12080115525715534700005020th Century Fox                                                                                                            150                                
PROFAMCHA120801155347155411000024Jessie (HD) Clip Promo #2 - Friday Night @ 7:00 (M                                                                          150                                
PROFAMCHA120801155411155456000045S2BN Entertainment                                                                                                          150                                
PRCFAMCHA120801155456155518000022Really Me (HD) Keepin It Real - Saturday Night @ 6                                                                          150                                
PGRFAMCHA120801155518155811000253MV Non Disney (HD) BTS R5 - Say You'll Stay (June                                                                      10615120                                
PROFAMCHA120801155811155832000021Summer Marathons (HD) Austin & Ally - Next (jun29-                                                                          150                                
PROFAMCHA120801155832155917000045Universal Home Entertainment                                                                                                150                                
PRCFAMCHA120801155917155940000023xBeverly Hills Chihauhau 2 (HD) Premieres Friday N                                                                          150                                
PRCFAMCHA120801155940155956000016Family Summer Bumper (HD) - Popsicle (June 29-Sept                                                                          150                                
PGRFAMCHA120801155956162227002231Disney Austin & Ally                              EP: 04                                                               6068807BCC                              
ID FAMCHA120801162227162233000006Astral ID (HD) (Jan2011)                                                                                                    150                                
PROFAMCHA120801162233162242000009LU Summer 2012 (HD) GLC/GLC (8-10)                                                                                          150                                
PRCFAMCHA120801162242162327000045SIU Made In Japan (HD) Rocky & CeeCee Sell - Prems                                                                          150                                
PROFAMCHA12080116232716241700005020th Century Fox                                                                                                            150                                
PROFAMCHA120801162417162500000043Gravity Falls (HD) Gruncle Stan - New Episode Frid                                                                          150                                
PROFAMCHA120801162500162530000030Wingin It (HD) Bennet High Clip - Saturday Morning                                                                          150                                
PGRFAMCHA120801162530162659000129MV Non Disney (HD) BTS - Veronica - Incompatible (                                                                     10615120                                
PRCFAMCHA120801162659162729000030Big Ticket Summer (HD) Concert 2 - Get All Ticket                                                                           150                                
PROFAMCHA120801162729162748000019SLOD (HD) Whale Clip Promo - Weekend Nights @ 7:30                                                                          150                                
PROFAMCHA120801162748162811000023Summer Marathons (HD) GLC - Next (Jun29-Aug31)                                                                              150                                
PROFAMCHA120801162811162856000045MGA Entertainment                                                                                                           150                                
PROFAMCHA120801162856162925000029Phineas & Ferb (HD) Where's Perry Pt 1 - Special E                                                                          150                                
PRCFAMCHA120801162925162955000030Family Bumper Flex (HD) Flex ID Version #2 (Mar201                                                                          150                                
PGRFAMCHA120801162955165212002217Disney Good Luck Charlie                          EP: 21                                                               6068807BCC                              
PROFAMCHA120801165212165221000009LU Summer 2012 (HD) GLC/GLC (8-10)                                                                                          150                                
PROFAMCHA120801165221165241000020Good Luck Charlie (HD) DuncanBallet - Coming Up Ne                                                                          150                                
PRCFAMCHA120801165241165257000016Family Summer Bumper (HD) - Strawberry/Lady Bug (J                                                                          150                                
PGRFAMCHA120801165257171529002232Disney Good Luck Charlie                          EP: 22                                                               6068807BCC                              
ID FAMCHA120801171529171534000005Astral ID (HD) (Jan2011)                                                                                                    150                                
PROFAMCHA120801171534171543000009LU Summer 2012 (HD) GLC/GLC (8-10)                                                                                          150                                
PROFAMCHA120801171543171613000030Phineas & Ferb DXD Summer Morn Marathons (HD) Week                                                                          150                                
PROFAMCHA120801171613171628000015MGA Entertainment                                                                                                           150                                
PROFAMCHA120801171628171643000015Big Ticket Summer (HD) Countdown Clock - 4 Weeks L                                                                          150                                
PROFAMCHA12080117164317173300005020th Century Fox                                                                                                            150                                
PROFAMCHA120801171733171756000023Summer Marathons (HD) GLC - Next (Jun29-Aug31)                                                                              150                                
PRCFAMCHA120801171756171808000012Family Summer Bumper (HD) - Worm (June 29-Sept3)                                                                            150                                
PGRFAMCHA120801171808174039002231Disney Good Luck Charlie                          EP: 05                                                               6068807BCC                              
PROFAMCHA120801174039174048000009LU Summer 2012 (HD) GLC/GLC (8-10)                                                                                          150                                
PRCFAMCHA120801174048174118000030Aug 10 ANT Farm vs Jessie Stunt (HD) Friday Aug 10                                                                          150                                
PROFAMCHA12080117411817420800005020th Century Fox                                                                                                            150                                
PRCFAMCHA120801174208174238000030Big Ticket Summer (HD) Concert 2 - Get All Ticket                                                                           150                                
PROFAMCHA120801174238174319000041xAustin & Ally (HD) Music Sell - Tonight @ 8:00 (M                                                                          150                                
PROFAMCHA120801174319174349000030xJessie (HD) Happy Place - Friday Night @ 7pm (May                                                                          150                                
PROFAMCHA120801174349174419000030Good Luck Charlie (HD) Duncan Family Refresh - Com                                                                          150                                
PROFAMCHA120801174419174448000029Phineas & Ferb (HD) Where's Perry Pt 1 - Special E                                                                          150                                
PRCFAMCHA120801174448174502000014Family Bumper Flex (HD) Flex ID - Wingin It (Apr20                                                                          150                                
PGRFAMCHA120801174502180703002201Disney Good Luck Charlie                          EP: 06                                                               6068807BCC                              
ID FAMCHA120801180703180708000005Astral ID (HD) (Jan2011)                                                                                                    150                                
PROFAMCHA120801180708180717000009LU Summer 2012 (HD) GLC/GLC (8-10)                                                                                          150                                
PROFAMCHA120801180717180747000030Phineas & Ferb DXD Summer Morn Marathons (HD) Week                                                                          150                                
PROFAMCHA12080118074718083700005020th Century Fox                                                                                                            150                                
PROFAMCHA120801180837180907000030Good Luck Charlie (HD) Duncan Family Refresh - Com                                                                          150                                
PRCFAMCHA120801180907180930000023xBeverly Hills Chihauhau 2 (HD) Premieres Friday N                                                                          150                                
PRCFAMCHA120801180930181000000030Family Bumper Flex (HD) Flex ID Version #3 (Mar201                                                                          150                                
PGRFAMCHA120801181000183146002146Disney Good Luck Charlie                          EP: 07                                                               6068807BCC                              
PROFAMCHA120801183146183155000009LU Summer 2012 (HD) GLC/GLC (8-10)                                                                                          150                                
PROFAMCHA120801183155183224000029Phineas & Ferb (HD) Where's Perry Pt 1 - Special E                                                                          150                                
PROFAMCHA12080118322418331400005020th Century Fox                                                                                                            150                                
PROFAMCHA120801183314183359000045xSo Random (HD) Super Tease Promo - Tonight @ 8:30                                                                          150                                
PROFAMCHA120801183359183422000023Summer Marathons (HD) GLC - Next (Jun29-Aug31)                                                                              150                                
PRCFAMCHA120801183422183452000030Big Ticket Summer (HD) Concert 2 - Get All Ticket                                                                           150                                
PRCFAMCHA120801183452183504000012Family Summer Bumper (HD) - Worm (June 29-Sept3)                                                                            150                                
PGRFAMCHA120801183504185735002231Disney Good Luck Charlie                          EP: 10                                                               6068807BCC                              
ID FAMCHA120801185735185741000006Astral ID (HD) (Jan2011)                                                                                                    150                                
PROFAMCHA120801185741185750000009LU Summer 2012 (HD) GLC/GLC (8-10)                                                                                          150                                
PROFAMCHA120801185750185905000115SIU Made In Japan (HD) Trailer - Prems Friday Augu                                                                          150                                
PROFAMCHA12080118590518595500005020th Century Fox                                                                                                            150                                
PROFAMCHA120801185955190025000030Good Luck Charlie (HD) Duncan Family Refresh - Com                                                                          150                                
PROFAMCHA120801190025190110000045MGA Entertainment                                                                                                           150                                
PROFAMCHA120801190110190140000030Phineas & Ferb DXD Summer Morn Marathons (HD) Week                                                                          150                                
PRCFAMCHA120801190140190158000018Family Summer Bumper (HD) - Tennis Ball (June 29-S                                                                          150                                
PGRFAMCHA120801190158192359002201Disney Good Luck Charlie                          EP: 11                                                               6068807BCC                              
PROFAMCHA120801192359192408000009LU Summer 2012 (HD) GLC/A&A @ 8:00pm (8-10)                                                                                 150                                
PROFAMCHA120801192408192437000029Phineas & Ferb (HD) Where's Perry Pt 1 - Special E                                                                          150                                
PROFAMCHA120801192437192452000015MGA Entertainment                                                                                                           150                                
PROFAMCHA120801192452192507000015Big Ticket Summer (HD) Countdown Clock - 4 Weeks L                                                                          150                                
PRCFAMCHA120801192507192529000022Really Me (HD) Keepin It Real - Saturday Night @ 6                                                                          150                                
PGRFAMCHA120801192529192802000233MV Disney (HD) BTS - Ross Lynch - Heard it on the                                                                      60685120                                
PROFAMCHA120801192802192817000015GLC (HD) Duncan Family Refresh 15s - Coming Up Nex                                                                          150                                
PROFAMCHA12080119281719290700005020th Century Fox                                                                                                            150                                
PRCFAMCHA120801192907192952000045SIU Made In Japan (HD) Rocky & CeeCee Sell - Prems                                                                          150                                
PRCFAMCHA120801192952193008000016Family Summer Bumper (HD) - Bee (June29-Sept3)                                                                              150                                
PGRFAMCHA120801193008195224002216Good Luck Charlie                                 EP: 10                                                               6068707BCC                              
ID FAMCHA120801195224195230000006Astral ID (HD) (Jan2011)                                                                                                    150                                
PROFAMCHA120801195230195239000009LU Summer 2012 (HD) A&A/So Random @ 8:30pm (8-10)                                                                           150                                
PROFAMCHA120801195239195309000030Phineas & Ferb DXD Summer Morn Marathons (HD) Week                                                                          150                                
PROFAMCHA120801195309195354000045Tennis Canada                                                                                                               150                                
PROFAMCHA120801195354195439000045xSo Random (HD) Super Tease Promo - Tonight @ 8:30                                                                          150                                
PROFAMCHA120801195439195609000130ME:  Paranorman (HD) Story 1 - In Theatres Aug 17                                                                           150                                
PROFAMCHA120801195609195628000019Summer Marathons (HD) ANT Farm - Tomorrow Afternoo                                                                          150                                
PROFAMCHA12080119562819571800005020th Century Fox                                                                                                            150                                
PROFAMCHA120801195718195751000033xAustin & Ally (HD) Music Lesson - Coming Up Next                                                                           150                                
PROFAMCHA120801195751195836000045Feld Entertainment                                                                                                          150                                
PRCFAMCHA120801195836195932000056Big Ticket Summer (HD) Hype 3 - Family.ca (July30-                                                                          150                                
PRCFAMCHA120801195932200002000030Family Bumper Flex (HD) Flex ID Version #4 (Mar201                                                                          150                                
PGRFAMCHA120801200002202133002131Disney Austin & Ally                              EP: 07                                                               6068807BCC                              
PROFAMCHA120801202133202202000029Phineas & Ferb (HD) Where's Perry Pt 1 - Special E                                                                          150                                
PROFAMCHA12080120220220225200005020th Century Fox                                                                                                            150                                
PRCFAMCHA120801202252202334000042xWUW (HD) Retag - Tonight @ 9:30 (Jun2012)                                                                                  150                                
PROFAMCHA120801202334202426000052Sweet Summer Marathons (HD) Weekday Afternoons Sta                                                                          150                                
PROFAMCHA120801202426202511000045Universal Home Entertainment                                                                                                150                                
PRCFAMCHA120801202511202533000022Really Me (HD) Keepin It Real - Saturday Night @ 6                                                                          150                                
PGRFAMCHA120801202533202838000305MV Disney (HD) BTS - Allstar Weekend - Come Down W                                                                     60685120                                
PROFAMCHA120801202838202908000030xSo Random (HD) Girl Sell - Coming Up Next (July20                                                                          150                                
PROFAMCHA120801202908202923000015MGA Entertainment                                                                                                           150                                
PRCFAMCHA120801202923202946000023xBeverly Hills Chihauhau 2 (HD) Premieres Friday N                                                                          150                                
PRCFAMCHA120801202946203002000016Family Summer Bumper (HD) - Bee (June29-Sept3)                                                                              150                                
PGRFAMCHA120801203002205233002231So Random!                                        EP: 10                                                               6068807BCC                              
ID FAMCHA120801205233205239000006Astral ID (HD) (Jan2011)                                                                                                    150                                
PRCFAMCHA120801205239205309000030Aug 10 ANT Farm vs Jessie Stunt (HD) Friday Aug 10                                                                          150                                
PROFAMCHA120801205309205339000030Tennis Canada                                                                                                               150                                
PRCFAMCHA120801205339205409000030Big Ticket Summer (HD) Concert 2 - Get All Ticket                                                                           150                                
PROFAMCHA120801205409205432000023Summer Marathons (HD) SIU - Tom Afternoon Starting                                                                          150                                
PROFAMCHA120801205432205517000045Universal Home Entertainment                                                                                                150                                
PROFAMCHA120801205517205608000051xWOWP The Movie (HD) Popcorn Pix - Saturday @ Noon                                                                          150                                
PGRFAMCHA120801205608205802000154MV Non Disney (HD) BTS - Veronica - Busted (Jul17-                                                                     10615120                                
PROFAMCHA120801205802205823000021Wingin It (HD) Season 2 Promo - DENISE - Coming Up                                                                          150                                
PROFAMCHA12080120582320591300005020th Century Fox                                                                                                            150                                
PROFAMCHA120801205913205943000030Phineas & Ferb DXD Summer Morn Marathons (HD) Week                                                                          150                                
PRCFAMCHA120801205943210001000018Family Summer Bumper (HD) - Beach Ball (June 29-Se                                                                          150                                
PGRFAMCHA120801210001212231002230Wingin' It                                        EP: 23                                                        C32727 1055607ACD3                             
PROFAMCHA120801212231212346000115SIU Made In Japan (HD) Trailer - Prems Friday Augu                                                                          150                                
PROFAMCHA120801212346212401000015MGA Entertainment                                                                                                           150                                
PROFAMCHA120801212401212416000015Big Ticket Summer (HD) Countdown Clock - 4 Weeks L                                                                          150                                
PROFAMCHA120801212416212459000043Gravity Falls (HD) Gruncle Stan - New Episode Frid                                                                          150                                
PGRFAMCHA120801212459212754000255MV Non Disney (HD) Cody Simpson - Got Me Good (Jul                                                                     10615120                                
PRCFAMCHA120801212754212836000042xWUW (HD) Clip Promo 1 - Coming Up Next (Apr2012)                                                                           150                                
PROFAMCHA120801212836212921000045MGA Entertainment                                                                                                           150                                
PROFAMCHA120801212921212950000029Phineas & Ferb (HD) Where's Perry Pt 1 - Special E                                                                          150                                
PRCFAMCHA120801212950213004000014Family Bumper Flex (HD) Flex ID - Really Me (Apr20                                                                          150                                
PGRFAMCHA120801213004215305002301What's Up, Warthogs!                              EP: 17                                                        C32738 1065607BCC                              
PROFAMCHA120801215305215345000040DXD Promo (HD) West 49 LRN2SK Tour Promo - Disneyx                                                                          150                                
PROFAMCHA120801215345215415000030Tennis Canada                                                                                                               150                                
PROFAMCHA120801215415215452000037xThat's So Raven (HD) Dance Retag - Tonight @ 10:3                                                                          150                                
PROFAMCHA120801215452215511000019Summer Marathons (HD) ANT Farm - Tomorrow Afternoo                                                                          150                                
PROFAMCHA120801215511215530000019SLOD (HD) Whale Clip Promo - Weekend Nights @ 7:30                                                                          150                                
PGRFAMCHA120801215530215859000329MV Non Disney (HD) Demi Lovato - Give Your Heart a                                                                     10615120                                
PROFAMCHA120801215859215929000030Phineas & Ferb DXD Summer Morn Marathons (HD) Week                                                                          150                                
PRCFAMCHA120801215929215956000027Family Bumper Flex (HD) Flex ID Version #1 (Mar201                                                                          150                                
PGRFAMCHA120801215956222233002237Lizzie McGuire                                    EP: 29                                                               6068607BCC                              
PROFAMCHA120801222233222243000010LU - 28 - Raven/Neds @ 11:00pm (HD) (:9 - :11) Sep                                                                          150                                
PROFAMCHA120801222243222312000029Phineas & Ferb (HD) Where's Perry Pt 1 - Special E                                                                          150                                
PROFAMCHA120801222312222402000050Tennis Canada                                                                                                               150                                
PROFAMCHA120801222402222438000036xNed's DSSG (HD) School Tour Retag - Tonight @ 11:                                                                          150                                
PRCFAMCHA120801222438222501000023xBeverly Hills Chihauhau 2 (HD) Premieres Friday N                                                                          150                                
PGRFAMCHA120801222501222734000233MV Disney (HD) BTS - Ross Lynch - Heard it on the                                                                      60685120                                
PRCFAMCHA120801222734222750000016xReally Me (HD) Green Screen - Saturday Night @ 6:                                                                          150                                
PROFAMCHA120801222750222825000035D-JR Promo - Handy Manny - Get more on the channel                                                                          150                                
PROFAMCHA120801222825222902000037xThat's So Raven (HD) Dance Retag - Coming Up Next                                                                          150                                
PRCFAMCHA120801222902222947000045SIU Made In Japan (HD) Rocky & CeeCee Sell - Prems                                                                          150                                
PRCFAMCHA120801222947222959000012Family Summer Bumper (HD) - Worm (June 29-Sept3)                                                                            150                                
ID FAMCHA120801222959223004000005xMagic of Disney Bumper (HD)(:5-:6) (Jan 2011)                                                                              150                                
PGRFAMCHA120801223004225242002238That's So Raven                                   EPS # 1-045                                                          6068607BCC                              
ID FAMCHA120801225242225248000006Astral ID (HD) (Jan2011)                                                                                                    150                                
PROFAMCHA120801225248225318000030Phineas & Ferb DXD Summer Morn Marathons (HD) Week                                                                          150                                
PROFAMCHA120801225318225403000045S2BN Entertainment                                                                                                          150                                
PROFAMCHA120801225403225441000038xElephant Princess (HD) Music Sell - Tonight @ 11:                                                                          150                                
PGRFAMCHA120801225441225811000330MV Disney (HD) BTS - Bridgit Mendler - Somebody (J                                                                     60685120                                
PROFAMCHA120801225811225844000033xAustin & Ally (HD) Music Lesson - Weekend Morning                                                                          150                                
PRCFAMCHA120801225844225906000022Really Me (HD) Keepin It Real - Saturday Night @ 6                                                                          150                                
PROFAMCHA120801225906225942000036xNed's DSSG (HD) School Tour - Coming Up Next (Jan                                                                          150                                
PRCFAMCHA120801225942230000000018Family Summer Bumper (HD) - Beach Ball (June 29-Se                                                                          150                                
PGRFAMCHA120801230000232416002416Ned's Declassified School Survival Guide          EP: 39                                                               2068807BCD                              
PROFAMCHA120801232416232531000115SIU Made In Japan (HD) Trailer - Prems Friday Augu                                                                          150                                
PROFAMCHA120801232531232616000045Tennis Canada                                                                                                               150                                
PROFAMCHA120801232616232639000023Summer Marathons (HD) SIU - Tom Afternoon Starting                                                                          150                                
PROFAMCHA120801232639232709000030xJessie (HD) Happy Place - Friday Night @ 7pm (May                                                                          150                                
PROFAMCHA120801232709232738000029Phineas & Ferb (HD) Where's Perry Pt 1 - Special E                                                                          150                                
PROFAMCHA120801232738232803000025D-JR Promo - JATNP - Get more on the channel REV (                                                                          150                                
PROFAMCHA120801232803232848000045xElephant Princess (HD) Refresh - Coming Up Next (                                                                          150                                
PRCFAMCHA120801232848232944000056Big Ticket Summer (HD) Hype 3 - Family.ca (July30-                                                                          150                                
PRCFAMCHA120801232944233000000016Family Summer Bumper (HD) - Popsicle (June 29-Sept                                                                          150                                
PGRFAMCHA120801233000235438002438The Elephant Princess                             EP: 11                                                               7068507ACC                              
PROFAMCHA120801235438235508000030Phineas & Ferb DXD Summer Morn Marathons (HD) Week                                                                          150                                
PROFAMCHA120801235508235523000015MGA Entertainment                                                                                                           150                                
PROFAMCHA120801235523235615000052Sweet Summer Marathons (HD) Weekday Afternoons Sta                                                                          150                                
PGRFAMCHA120801235615235715000100MV Disney (HD) BTS - Allstar Weekend - Come Down W                                                                     60685120                                
PRCFAMCHA120801235715235749000034WUW (HD) Clip Promo - New Episode Sunday Morning @                                                                          150                                
PROFAMCHA120801235749235819000030xLatest Buzz (HD) Loco Oct.09 - Coming Up Next (Ja                                                                          150                                
PROFAMCHA120801235819235904000045Feld Entertainment                                                                                                          150                                
PRCFAMCHA120801235904235934000030Aug 10 ANT Farm vs Jessie Stunt (HD) Friday Aug 10                                                                          150                                
PRCFAMCHA120801235934000004000030Family Bumper Flex (HD) Flex ID Version #2 (Mar201                                                                          150                                
PGRFAMCHA120801000004002239002235Latest Buzz II                                    EP: 22                                                        C29635 1065607BCC                              
PROFAMCHA120801002239002308000029Phineas & Ferb (HD) Where's Perry Pt 1 - Special E                                                                          150                                
PROFAMCHA120801002308002327000019Summer Marathons (HD) ANT Farm - Tomorrow Afternoo                                                                          150                                
PROFAMCHA120801002327002401000034Big Ticket Summer (HD) R5 Liner - Family.ca (Jul9-                                                                          150                                
PGRFAMCHA120801002401002747000346MV Non Disney (HD) BTS Tyler Medeiros - Say I Love                                                                     10615120                                
PROFAMCHA120801002747002817000030D-JR Promo - MMCH - Get more MMCH on D-JR the chan                                                                          150                                
PROFAMCHA120801002817002904000047xOverruled! (HD) Refresh - Coming Up Next (Jan2011                                                                          150                                
PROFAMCHA120801002904002944000040DXD Promo (HD) West 49 LRN2SK Tour Promo - Disneyx                                                                          150                                
PRCFAMCHA120801002944002959000015Family Bumper Flex (HD) Flex ID - Really Me (Apr20                                                                          150                                
PGRFAMCHA120801002959005230002231Overruled!                                        EP: 05                                                        C28762 1065607ACC                              
PROFAMCHA120801005230005240000010LU - 33 - HANNAH/CORY 1:25am (HD) (:9 - :11) Jan 2                                                                          150                                
PROFAMCHA120801005240005355000115SIU Made In Japan (HD) Trailer - Prems Friday Augu                                                                          150                                
PROFAMCHA120801005355005425000030Phineas & Ferb DXD Summer Morn Marathons (HD) Week                                                                          150                                
PROFAMCHA120801005425005440000015Big Ticket Summer (HD) Countdown Clock - 4 Weeks L                                                                          150                                
PGRFAMCHA120801005440005809000329MV Non Disney (HD) Demi Lovato - Give Your Heart a                                                                     10615120                                
PRCFAMCHA120801005809005825000016xReally Me (HD) Green Screen - Saturday Night @ 6:                                                                          150                                
PROFAMCHA120801005825005921000056xHannah (HD) Dec Refresh - Coming Up Next (Dec2011                                                                          150                                
PRCFAMCHA120801005921005944000023xBeverly Hills Chihauhau 2 (HD) Premieres Friday N                                                                          150                                
PRCFAMCHA120801005944010000000016Family Bumper Flex (HD) Flex ID - WUW (May2012) (:                                                                          150                                
PGRFAMCHA120801010000012236002236Hannah Montana                                    EP: 09                                                               6068807BCC                              
ID FAMCHA120801012236012242000006Astral ID (HD) (Jan2011)                                                                                                    150                                
PROFAMCHA120801012242012252000010LU - 34 - CORY/PHIL OF THE FUTURE 1:45am (HD) (:9                                                                           150                                
PRCFAMCHA120801012252012304000012Family Summer Bumper (HD) - Worm (June 29-Sept3)                                                                            150                                
PGRFAMCHA120801012304014535002231Disney Cory in the House                          EP: 02                                                               6068607BCC                              
PRCFAMCHA120801014535014605000030Family Bumper Flex (HD) Flex ID Version #3 (Mar201                                                                          150                                
ID FAMCHA120801014605014610000005xMagic of Disney Bumper (HD)(:5-:6) (Jan 2011)                                                                              150                                
PGRFAMCHA120801014610020846002236Phil of the Future                                EP: 22                                                               6068607BCC                              
ID FAMCHA120801020846020852000006Astral ID (HD) (Jan2011)                                                                                                    150                                
PRCFAMCHA120801020852020908000016Family Summer Bumper (HD) - Bee (June29-Sept3)                                                                              150                                
ID FAMCHA120801020908020913000005xMagic of Disney Bumper (HD)(:5-:6) (Jan 2011)                                                                              150                                
PGRFAMCHA120801020913023326002413The Elephant Princess                             EP: 12                                                               7068507ACC                              
ID FAMCHA120801023326023332000006Astral ID (HD) (Jan2011)                                                                                                    150                                
PROFAMCHA120801023332023342000010LU - 37 - DEREK/CORY 2:55am (HD) (:9 - :11) Jan201                                                                          150                                
PRCFAMCHA120801023342023356000014Family Summer Bumper (HD) - Mole (June 29-Sept3)                                                                            150                                
PGRFAMCHA120801023356025626002230Life with Derek                                   EP: 23                                                        C26822 1065607BCC                              
PROFAMCHA120801025626025636000010LU - 38 - CORY/RAVEN 3:20am (HD) (:9 - :11) Jan201                                                                          150                                
PRCFAMCHA120801025636025652000016Family Summer Bumper (HD) - Strawberry/Lady Bug (J                                                                          150                                
PGRFAMCHA120801025652031923002231Disney Cory in the House                          EP: 02                                                               6068607BCC                              
ID FAMCHA120801031923031929000006Astral ID (HD) (Jan2011)                                                                                                    150                                
PROFAMCHA120801031929031939000010LU - 39 - RAVEN/SLZC 3:40am (HD) (:9 - :11) Jan201                                                                          150                                
PRCFAMCHA120801031939031954000015Family Bumper Flex (HD) Flex ID - Really Me (Apr20                                                                          150                                
ID FAMCHA120801031954031959000005xMagic of Disney Bumper (HD)(:5-:6) (Jan 2011)                                                                              150                                
PGRFAMCHA120801031959034238002239That's So Raven                                   EP: 083                                                              6068607BCD                              
PROFAMCHA120801034238034248000010LU - 40 - SLZC/DEREK 4:05am (HD) (:9 - :11) Jan201                                                                          150                                
PRCFAMCHA120801034248034306000018Family Summer Bumper (HD) - Beach Ball (June 29-Se                                                                          150                                
ID FAMCHA120801034306034311000005xMagic of Disney Bumper (HD)(:5-:6) (Jan 2011)                                                                              150                                
PGRFAMCHA120801034311040550002239The Suite Life of Zack and Cody                   EP: 05                                                               6068607BCC                              
ID FAMCHA120801040550040555000005Astral ID (HD) (Jan2011)                                                                                                    150                                
PROFAMCHA120801040555040605000010LU - 41 - LIFE WITH DEREK (HD) (:9 - :11) Jan2011                                                                           150                                
PRCFAMCHA120801040605040617000012Family Summer Bumper (HD) - Worm (June 29-Sept3)                                                                            150                                
PGRFAMCHA120801040617042847002230Life with Derek                                   EP: 15                                                        C26679A1065607BCC                              
PROFAMCHA120801042847042914000027Doc McStuffins - Get more Doc on D-JR the channel                                                                           150                                
PROFAMCHA120801042914042939000025D-JR Promo - JATNP - Get more on the channel REV (                                                                          150                                
PROFAMCHA120801042939042949000010D-JR - Station ID (:10) (May2011)                                                                                           150                                
PROFAMCHA120801042949042959000010D-JR - Station ID (:10) (May2011)                                                                                           150                                
OFFFAMCHA120801042959043000000001OFF AIR                                                                                                                                                        
SO FAMCHA120802043000043011000011Sign On (oct 1)                                                                                                                                                
PGRFAMCHA120802043011045649002638Katie And Orbie                                   EP: 67                                                        B62270A1065607ECC                              
ID FAMCHA120802045649045655000006Astral ID (HD) (Jan2011)                                                                                                    150                                
PROFAMCHA120802045655045704000009D-JR - Flex ID - Blue (:6-:10) (Feb2012)                                                                                    150                                
PGRFAMCHA120802045704051936002232Franny's Feet                                     EP: 51                                                        C31292 1065607ECC                              
PROFAMCHA120802051936051943000007D-JR Live Action ID - SWOBB - Coming Up (May2012)                                                                           150                                
PROFAMCHA120802051943052008000025D-JR Live Action ID - #45 Sorting Socks (May2012)                                                                           150                                
PROFAMCHA120802052008052014000006D-JR - Bumper 1 (May2011)                                                                                                   150                                
PROFAMCHA120802052014052039000025D-JR Live Action ID - #42 Brush Teeth (May2012)                                                                             150                                
PROFAMCHA120802052039052046000007D-JR Live Action ID - SWOBB - Now (May2012)                                                                                 150                                
PGRFAMCHA120802052046054321002235The Secret World of Benjamin Bear                 EPS # 1-007                                                   B75152 1065607ECC                              
ID FAMCHA120802054321054326000005Astral ID (HD) (Jan2011)                                                                                                    150                                
PROFAMCHA120802054326054334000008D-JR - Flex ID - Purple (:6-:10) (Feb2012)                                                                                  150                                
PGRFAMCHA120802054334060507002133Harry and His Bucket Full of Dinosaurs            EP: 14                                                        B05033 1065607ECC                              
PROFAMCHA120802060507060515000008D-JR - Station ID (:08) (May2011)                                                                                           150                                
PGRFAMCHA120802060515062919002404Henry's World                                     EPS # 2-025                                                   B81056 1065607ECC                              
ID FAMCHA120802062919062925000006Astral ID (HD) (Jan2011)                                                                                                    150                                
PROFAMCHA120802062925062934000009D-JR - Flex ID - Green (:6-:10) (Feb2012)                                                                                   150                                
PGRFAMCHA120802062934065336002402Disney's Mickey Mouse Clubhouse                   EP: 25                                                               6068605ACC                              
PROFAMCHA120802065336065408000032D-JR Icon Story - JATNLP - Maze Part 1 - Coming Up                                                                          150                                
PROFAMCHA120802065408065438000030D-JR Promo - On demand online REVISED - D-JR.ca (M                                                                          150                                
PROFAMCHA120802065438065448000010D-JR - Short Open (:10) (May2011)                                                                                           150                                
PROFAMCHA120802065448065718000230PH-D Short - Whiffle & Fuzz - 08 - Puppy (Jan10)                                                                            150                                
PROFAMCHA120802065718065724000006D-JR - Short Close (:06) (May2011)                                                                                          150                                
PROFAMCHA120802065724065751000027Doc McStuffins - Get more Doc on D-JR the channel                                                                           150                                
PROFAMCHA120802065751065821000030D-JR Promo - MMCH - Get more MMCH on D-JR the chan                                                                          150                                
PROFAMCHA120802065821065851000030D-JR - Standalone ID - Light Parade (May2011)                                                                               150                                
PROFAMCHA120802065851065923000032D-JR Promo - Stella and Sam - Get more on the chan                                                                          150                                
PROFAMCHA120802065923065954000031D-JR Icon Story - JATNLP - Maze Part 2 - Now (May                                                                           150                                
PROFAMCHA120802065954070000000006D-JR - Bumper 5 (May2011)                                                                                                   150                                
PGRFAMCHA120802070000072404002404Disney Jake and the Never Land Pirates            EP: 02                                                               6068605A                                
ID FAMCHA120802072404072409000005Astral ID (HD) (Jan2011)                                                                                                    150                                
PROFAMCHA120802072409072418000009LU Summer 2012 (HD) Hannah Montana/Wingin' It @ 8:                                                                          150                                
PROFAMCHA120802072418072448000030Phineas & Ferb DXD Summer Morn Marathons (HD) Week                                                                          150                                
PROFAMCHA120802072448072548000100The Canada Group                                                                                                            150                                
PROFAMCHA120802072548072618000030xSLOD (HD) Retag - Weekday Mornings @ 8:30 (Jun201                                                                          150                                
PROFAMCHA120802072618072648000030xWOWP (HD) Spellbook - This Morning @ 9:00 (Feb201                                                                          150                                
PGRFAMCHA120802072648072813000125MV Disney (HD) BTS - Ross Lynch - Heard it on the                                                                      60685120                                
PROFAMCHA120802072813072832000019Summer Marathons (HD) ANT Farm - This Afternoon St                                                                          150                                
PROFAMCHA120802072832072916000044xHannah (HD) Refresh - Coming Up Next (May2011)                                                                             150                                
PRCFAMCHA120802072916072939000023xBeverly Hills Chihauhau 2 (HD) Premieres Tomorrow                                                                          150                                
PRCFAMCHA120802072939073006000027Family Bumper Flex (HD) Flex ID Version #3 (Mar201                                                                          150                                
PGRFAMCHA120802073006075246002240Hannah Montana                                    EP: 25                                                               6068807BCC                              
PROFAMCHA120802075246075256000010LU Summer 2012 (HD) Wingin It/SLOD @ 8:30am (8-10)                                                                          150                                
PROFAMCHA120802075256075336000040DXD Promo (HD) West 49 LRN2SK Tour Promo - Disneyx                                                                          150                                
PROFAMCHA120802075336075406000030Phineas & Ferb DXD Summer Morn Marathons (HD) Week                                                                          150                                
PGRFAMCHA120802075406075736000330MV Disney (HD) BTS - Bridgit Mendler - Somebody (J                                                                     60685120                                
PROFAMCHA120802075736075806000030xWOWP (HD) Spellbook - This Morning @ 9:00 (Feb201                                                                          150                                
PROFAMCHA120802075806075829000023Summer Marathons (HD) SIU - This Afternoon Startin                                                                          150                                
PROFAMCHA120802075829075902000033xAustin & Ally (HD) Music Lesson - Weekend Morning                                                                          150                                
PROFAMCHA120802075902075923000021Wingin It (HD) Season 2 Promo - DENISE - Coming Up                                                                          150                                
PRCFAMCHA120802075923075953000030Aug 10 ANT Farm vs Jessie Stunt (HD) Friday Aug 10                                                                          150                                
PRCFAMCHA120802075953080005000012Family Summer Bumper (HD) - Worm (June 29-Sept3)                                                                            150                                
PRCFAMCHA120802080005080018000013xDescriptive Video Slate (HD) (Jan 2011)                                                                                    150                                
PGRFAMCHA120802080018082248002230Wingin' It                                        EP: 01                                                        C32727 1065607ACD                              
ID FAMCHA120802082248082254000006Astral ID (HD) (Jan2011)                                                                                                    150                                
PROFAMCHA120802082254082302000008LU Summer 2012 (HD) SLOD/WOWP @ 9:00am (8-10)                                                                               150                                
PRCFAMCHA120802082302082324000022Game Change Friday July Promo (HD) Family.ca                                                                                150                                
PGRFAMCHA120802082324082629000305MV Disney (HD) BTS - Allstar Weekend - Come Down W                                                                     60685120                                
PROFAMCHA120802082629082659000030Good Luck Charlie (HD) Duncan Family Retag - This                                                                           150                                
