SO FAMCHA030301043000043011000011Sign On (oct 1)                                                                                                         06                                     
PROFAMCHA030301043011043020000009CC Disclaimer - FAST - Generic (:08-:10)                                                                                06  150                                
PGRFAMCHA030301043020045313002253Franklin                                          Franklin And The Toy Drive/Franklin's And Granny's            B10191A1065607ECC                              
PROFAMCHA030301045313045327000014NSW - 01(PH) - ART/KATIE/FRANKLIN (:13-:16)                                                                             02  150                                
OFFFAMCHA030301045327045340000013PS Playhouse Block Open (:10-:15)                                                                                       06                                     
PGRFAMCHA030301045340050841001501Art Attack                                        1-016                                                                60686110                                
PROFAMCHA030301050841050855000014NSW - 02(PH) - KATIE/FRANKLIN/RIPLEY (:13-:16)                                                                          02  150                                
INTFAMCHA030301050855051247000352Art Attack - Deer On A Hill                                                                                            60686120                                
OFFFAMCHA030301051247051300000013PS Playhouse Block Open (:10-:15)                                                                                       06                                     
PGRFAMCHA030301051300053935002635Katie And Orbie                                   Dinosaur Bones Aren't For Climbing/Dad Of The Mont            P16152A1065607E                                
PRCFAMCHA030301053935053953000018Franklin (CAST) - Coming Up                                                                                            106  150                                
OFFFAMCHA030301053953054003000010PS Playground Block Open (:10-:15)                                                                                      06                                     
PROFAMCHA030301054003054012000009CC Disclaimer - FAST - Family (:08-:10)                                                                                 06  150                                
PGRFAMCHA030301054012060305002253Franklin                                          Franklin And The Baby/Franklin Goes To Day Camp               B10192A1065607ECC                              
PROFAMCHA030301060305060317000012NSW - 04(PG) - RIPLEY/PRWF (:10-:13)                                                                                    02  150                                
PROFAMCHA030301060317060347000030Art Attack (HORSE) - Tomorrow @ 3:10pm                                                                                  02  150                                
OFFFAMCHA030301060347060400000013PS Playground Block Open (:10-:15)                                                                                      06                                     
PROFAMCHA030301060400060409000009CC Disclaimer - FAST - Generic (:08-:10)                                                                                06  150                                
PGRFAMCHA030301060409062837002428Ripley's Believe It Or Not!                       The Daruma Dolls                                              B21797 1065607ECC                              
PROFAMCHA030301062837062851000014NSW - 05(PB-SAT)- PRWF1/PRFW2/SMART (:13-:16)                                                                           02  150                                
PROFAMCHA030301062851062921000030That's So Raven - Premieres Today @ 5:25pm                                                                              02  150                                
PROFAMCHA030301062921062947000026PR Wild Force (EXPO) - Today @ 6:30am                                                                                   06  150                                
OFFFAMCHA030301062947063000000013Power Box Block Open (:10-:15)                                                                                          06                                     
PGRFAMCHA030301063000065055002055Power Rangers Wild Force                          The Lone Wolf                                                       A6068607E                                
PROFAMCHA030301065055065109000014NSW - 06(PB-SAT)- PRWF2/SMART/LIZZIE (:13-:16)                                                                          06  150                                
PROFAMCHA030301065109065139000030That's So Raven - Premieres Today @ 5:25pm                                                                              06  150                                
PROFAMCHA030301065139065209000030Lizzie McGuire (GORDO) - Today @ 8am                                                                                    06  150                                
INTFAMCHA030301065209065550000341MV Disney - Mambo #5 (LOU BEGA)                                                                                        60688120                                
PROFAMCHA030301065550065620000030All That (NEW) - Today @ 9am                                                                                            06  150                                
INTFAMCHA030301065620065724000104Jack and Marcel: Ep.064 "Frozen Slipper"                                                                              A40688120                                
PROFAMCHA030301065724065754000030Best of Amanda (MBE) - Starting March 10th                                                                              06  150                                
PROFAMCHA030301065754065814000020Amanda Show (LOBSTERS) - Today @ 8:30am                                                                                 06  150                                
INTFAMCHA030301065814065918000104Jack and Marcel: Ep.070 "Reflection"                                                                                  A40688120                                
PRCFAMCHA030301065918065948000030Mentors (EVERYONE) - New Season starts Monday @ 8:                                                                      06  150                                
OFFFAMCHA030301065948070000000012Power Box Block Open (:10-:15)                                                                                          06                                     
PGRFAMCHA030301070000072130002130Power Rangers Wild Force                          Power Play                                                          A6068607E                                
PRCFAMCHA030301072130072140000010Bullying Bumper                                                                                                         06  150                                
PROFAMCHA030301072140072154000014NSW - 07 - SMART/LIZZIE/AMANDA (:13-:16)                                                                                02  150                                
PROFAMCHA030301072154072224000030All That (MBE) - Starting March 10th                                                                                    06  150                                
PROFAMCHA030301072224072254000030That's So Raven - Premieres Today @ 5:25pm                                                                              06  150                                
INTFAMCHA030301072254072753000459Art Attack - Bride & Groom                                                                                             60686120                                
PROFAMCHA030301072753072823000030Proud Family (MBE) - Starting March 15th                                                                                02  150                                
PROFAMCHA030301072823072919000056Boy Meets World (MOM) - Today @ 10:15am                                                                                 06  150                                
PROFAMCHA030301072919072949000030Weekend Double Pix Promo - Today @ 12pm                                                                                 06  150                                
OFFFAMCHA030301072949073000000011Nonstop Weekend Block Open (:10-:15)                                                                                    06                                     
PROFAMCHA030301073000073009000009CC Disclaimer - FAST - Family (:08-:10)                                                                                 06  150                                
PGRFAMCHA030301073009075237002228Smart Guy                                         Lab Rats                                                            A6068807BCC                              
PROFAMCHA030301075237075251000014NSW - 08 - LIZZIE/AMANDA/ALL (:13-:16)                                                                                  02  150                                
PROFAMCHA030301075251075321000030That's So Raven - Premieres Today @ 5:25pm                                                                              06  150                                
PROFAMCHA030301075321075351000030Best of Amanda (MBE) - Starting March 10th                                                                              06  150                                
INTFAMCHA030301075351075839000448Art Attack - Indian On A Horse                                                                                         60686120                                
PRCFAMCHA030301075839075909000030Mentors (EVERYONE) - New Season starts Monday @ 8:                                                                      06  150                                
PROFAMCHA030301075909075939000030Proud Family (MBE) - Starting March 15th                                                                                06  150                                
OFFFAMCHA030301075939075952000013Nonstop Weekend Block Open (:10-:15)                                                                                    06                                     
ID FAMCHA030301075952080000000008Magic of Disney - NS/NSW/PB - Shape (:06-:09)                                                                           06  150                                
PGRFAMCHA030301080000082235002235Lizzie McGuire                                    Come Fly With Me                                                    A6068607B                                
PRCFAMCHA030301082235082245000010Bullying Bumper                                                                                                         06  150                                
PROFAMCHA030301082245082259000014NSW - 09 - AMANDA/ALL/EVEN (:13-:16)                                                                                    02  150                                
PROFAMCHA030301082259082329000030Best of Amanda (MBE) - Starting March 10th                                                                              06  150                                
PROFAMCHA030301082329082359000030All That (MBE) - Starting March 10th                                                                                    06  150                                
INTFAMCHA030301082359082503000104Jack and Marcel: ep.116 "Mad Green Hornet"                                                                            A40688120                                
PROFAMCHA030301082503082533000030Proud Family (MBE) - Starting March 15th                                                                                06  150                                
INTFAMCHA030301082533082851000318MV Disney - If You Wanna Dance (NOBODY'S ANGEL)                                                                        60688120                                
PROFAMCHA030301082851082916000025Nonstop Weekend - KIM POSSIBLE - Friends                                                                                06  150                                
PROFAMCHA030301082916082946000030Weekend Double Pix Promo - Today @ 12pm                                                                                 06  150                                
OFFFAMCHA030301082946083000000014Nonstop Weekend Block Open (:10-:15)                                                                                    06                                     
PGRFAMCHA030301083000085206002206Amanda Show; The                                  2-025                                                               A20686090                                
PROFAMCHA030301085206085221000015NSW - 10 - ALL/EVEN/JERSEY (:13-:16)                                                                                    02  150                                
PROFAMCHA030301085221085251000030All That (MBE) - Starting March 10th                                                                                    06  150                                
PROFAMCHA030301085251085321000030Proud Family (MBE) - Starting March 15th                                                                                06  150                                
INTFAMCHA030301085321085712000351MV Disney - Miracles Happen (MYRA)                                                                                     60688120                                
PRCFAMCHA030301085712085742000030Mentors (EVERYONE) - New Season starts Monday @ 8:                                                                      06  150                                
PROFAMCHA030301085742085838000056Boy Meets World (MOM) - Tomorrow @ 10:15am                                                                              06  150                                
PROFAMCHA030301085838085915000037Kim Possible (RON THE MAN) - Today @ 4:35pm                                                                             06  150                                
PROFAMCHA030301085915085945000030That's So Raven - Premieres Today @ 5:25pm                                                                              06  150                                
OFFFAMCHA030301085945090000000015Nonstop Weekend Block Open (:10-:15)                                                                                    06                                     
PROFAMCHA030301090000090009000009CC Disclaimer - FAST - Generic (:08-:10)                                                                                06  150                                
PGRFAMCHA030301090009091959001950All That                                          999                                                                 A20686090CC                              
PRCFAMCHA030301091959092009000010Bullying Bumper                                                                                                         06  150                                
PROFAMCHA030301092009092023000014NSW - 11 - EVEN/JERSEY/BMW (:13-:16)                                                                                    02  150                                
PROFAMCHA030301092023092053000030Weekend Double Pix Promo - Today @ 12pm                                                                                 06  150                                
PROFAMCHA030301092053092130000037Kim Possible (RON THE MAN) - Today @ 4:35pm                                                                             06  150                                
PROFAMCHA030301092130092149000019Nonstop Weekend - EVEN STEVENS - Locker                                                                                 06  150                                
INTFAMCHA030301092149092526000337MV Disney - Supergirl (KRYSTAL MARIE HARRIS)                                                                           60688120                                
PROFAMCHA030301092526092556000030Smart Guy (BRAINY) - Today @ 10:40am                                                                                    06  150                                
INTFAMCHA030301092556092726000130Family X-Pedition - Ep.49                                                                                             A10656120                                
PROFAMCHA030301092726092810000044Nonstop Weekend - LIZZIE MCGUIRE - Fountain                                                                             06  150                                
PROFAMCHA030301092810092840000030That's So Raven - Premieres Today @ 5:25pm                                                                              06  150                                
OFFFAMCHA030301092840092852000012Nonstop Weekend Block Open (:10-:15)                                                                                    06                                     
ID FAMCHA030301092852092900000008Magic of Disney - NS/NSW/PB - Wipe (:06-:09)                                                                            06  150                                
PGRFAMCHA030301092900095142002242Even Stevens                                      Take My Sister...Please                                             A6068807B                                
PROFAMCHA030301095142095156000014NSW - 12 - JERSEY/BMW/SMART (:13-:16)                                                                                   02  150                                
PROFAMCHA030301095156095226000030Weekend Double Pix Promo - Today @ 12pm                                                                                 06  150                                
PROFAMCHA030301095226095256000030Best of Amanda (MBE) - Starting March 10th                                                                              06  150                                
PROFAMCHA030301095256095323000027Nonstop Weekend - KIM POSSIBLE - Villains                                                                               06  150                                
PROFAMCHA030301095323095338000015Weekenders (REALITY) - Weekdays @ 4:40pm                                                                                06  150                                
PROFAMCHA030301095338095408000030Proud Family (MBE) - Starting March 15th                                                                                06  150                                
PROFAMCHA030301095408095438000030That's So Raven - Premieres Today @ 5:25pm                                                                              06  150                                
OFFFAMCHA030301095438095452000014Nonstop Weekend Block Open (:10-:15)                                                                                    06                                     
ID FAMCHA030301095452095500000008Magic of Disney - NS/NSW/PB - Wipe (:06-:09)                                                                            06  150                                
PGRFAMCHA030301095500101736002236Jersey; The                                       New Kid                                                             A6068807A                                
PRCFAMCHA030301101736101746000010Bullying Bumper                                                                                                         06  150                                
PROFAMCHA030301101746101800000014NSW - 13 - BMW/SMART/TEEN (:13-:16)                                                                                     02  150                                
PROFAMCHA030301101800101830000030Weekend Double Pix Promo - Today @ 12pm                                                                                 06  150                                
PROFAMCHA030301101830101917000047Amanda Show (HAM) - Tomorrow @ 8:30am                                                                                   06  150                                
PROFAMCHA030301101917101947000030That's So Raven - Premieres Today @ 5:25pm                                                                              06  150                                
OFFFAMCHA030301101947102000000013Nonstop Weekend Block Open (:10-:15)                                                                                    06                                     
PROFAMCHA030301102000102009000009CC Disclaimer - FAST - Family (:08-:10)                                                                                 06  150                                
PGRFAMCHA030301102009104241002232Boy Meets World                                   Rave On                                                             B6068807BCC                              
PROFAMCHA030301104241104255000014NSW - 14 - SMART/TEEN/YOU (:13-:16)                                                                                     02  150                                
PROFAMCHA030301104255104325000030That's So Raven - Premieres Today @ 5:25pm                                                                              06  150                                
PROFAMCHA030301104325104357000032PR Wild Force (CHAIR) - Tomorrow @ 6:30am                                                                               06  150                                
PROFAMCHA030301104357104417000020Amanda Show (LOBSTERS) - Tomorrow @ 8:30am                                                                              06  150                                
PRCFAMCHA030301104417104447000030Mentors (EVERYONE) - New Season starts Monday @ 8:                                                                      06  150                                
OFFFAMCHA030301104447104500000013Nonstop Weekend Block Open (:10-:15)                                                                                    06                                     
PROFAMCHA030301104500104509000009CC Disclaimer - FAST - Family.ca (:08-:10)                                                                              06  150                                
PGRFAMCHA030301104509110737002228Smart Guy                                         A Little Knowledge                                                  A6068807BCC                              
PRCFAMCHA030301110737110747000010Bullying Bumper                                                                                                         06  150                                
PROFAMCHA030301110747110801000014NSW - 15 - TEEN/YOU/D-PIX (:13-:16)                                                                                     02  150                                
PROFAMCHA030301110801110831000030That's So Raven - Premieres Today @ 5:25pm                                                                              06  150                                
PROFAMCHA030301110831110901000030Proud Family (MBE) - Starting March 15th                                                                                06  150                                
PROFAMCHA030301110901110917000016Lizzie McGuire (MONEY TREE) - Tomorrow @ 8am                                                                            06  150                                
PROFAMCHA030301110917110947000030Best of Amanda (MBE) - Starting March 10th                                                                              06  150                                
OFFFAMCHA030301110947111000000013Nonstop Weekend Block Open (:10-:15)                                                                                    06                                     
PROFAMCHA030301111000111009000009CC Disclaimer - FAST - Generic (:08-:10)                                                                                06  150                                
PGRFAMCHA030301111009112959001950Teen Angel                                        Sings Like An Angel                                                 A6068807BCC                              
PROFAMCHA030301112959113011000012NSW - 16 - YOU/D-PIX (:10-:13)                                                                                          02  150                                
PROFAMCHA030301113011113041000030All That (MBE) - Starting March 10th                                                                                    06  150                                
PRCFAMCHA030301113041113111000030Mentors (EVERYONE) - New Season starts Monday @ 8:                                                                      06  150                                
PROFAMCHA030301113111113146000035Nonstop Weekend - LIZZIE MCGUIRE - Blooper #5 *DNU                                                                      06  150                                
PRCFAMCHA030301113146113216000030Snow Days Event Promo - Spot #2 - FEB 23 TO MAR 01                                                                      06  150                                
PROFAMCHA030301113216113246000030That's So Raven - Premieres Today @ 5:25pm                                                                              06  150                                
INTFAMCHA030301113246113416000130Family X-Pedition - Ep.51                                                                                             A10656120                                
PROFAMCHA030301113416113446000030Weekend Double Pix Promo - Today @ 12pm                                                                                 06  150                                
OFFFAMCHA030301113446113500000014Nonstop Weekend Block Open (:10-:15)                                                                                    06                                     
PROFAMCHA030301113500113509000009CC Disclaimer - FAST - Family (:08-:10)                                                                                 06  150                                
PGRFAMCHA030301113509115629002120You Wish                                          Welcome To The Dollhouse                                            A6068807BCC                              
PRCFAMCHA030301115629115639000010Bullying Bumper                                                                                                         06  150                                
PROFAMCHA030301115639115649000010NSW - 17 - DOUBLE PIX 1 (:08-:11)                                                                                       02  150                                
PROFAMCHA030301115649115719000030That's So Raven - Premieres Today @ 5:25pm                                                                              06  150                                
PROFAMCHA030301115719115749000030Lizzie McGuire (GORDO) - Tomorrow @ 8am                                                                                 06  150                                
PROFAMCHA030301115749115809000020Nonstop Weekend - LIZZIE MCGUIRE - Priceless                                                                            06  150                                
PROFAMCHA030301115809115829000020Amanda Show (LOBSTERS) - Tomorrow @ 8:30am                                                                              06  150                                
PROFAMCHA030301115829115848000019Nonstop Weekend - TEAMO SUPREMO - Intro                                                                                 06  150                                
PROFAMCHA030301115848115918000030Proud Family (MBE) - Starting March 15th                                                                                06  150                                
PROFAMCHA030301115918115948000030Weekend Double Pix Promo - Coming Up                                                                                    06  150                                
OFFFAMCHA030301115948120000000012Weekend Double Pix Movie Open (:10-:15)                                                                                 06                                     
PRCFAMCHA030301120000120009000009Rating - G - Ian (:08-:10)                                                                                              06  150                                
PGRFAMCHA030301120009133745013736Free Willy                                                                                                            A2068807D                                
PROFAMCHA030301133745133754000009NSW - 18 - DOUBLE PIX 2 (:08-:11)                                                                                       02  150                                
PROFAMCHA030301133754133824000030That's So Raven - Premieres Today @ 5:25pm                                                                              06  150                                
PROFAMCHA030301133824133850000026PR Wild Force (EXPO) - Tomorrow @ 6:30am                                                                                06  150                                
INTFAMCHA030301133850134020000130Family X-Pedition - Ep.50                                                                                             A10656120                                
PROFAMCHA030301134020134050000030All That (MBE) - Starting March 10th                                                                                    06  150                                
INTFAMCHA030301134050134154000104Jack and Marcel: Ep.048 "Sticking Together"                                                                           A40688120                                
PROFAMCHA030301134154134224000030Smart Guy (BRAINY) - Tomorrow @ 7:30am                                                                                  06  150                                
PROFAMCHA030301134224134320000056Boy Meets World (MOM) - Tomorrow @ 10:15am                                                                              06  150                                
PRCFAMCHA030301134320134350000030Snow Days Event Promo - Spot #2 - FEB 23 TO MAR 01                                                                      06  150                                
PRCFAMCHA030301134350134420000030Mentors (EVERYONE) - New Season starts Monday @ 8:                                                                      06  150                                
PROFAMCHA030301134420134450000030Weekend Double Pix Promo - Coming Up                                                                                    06  150                                
OFFFAMCHA030301134450134500000010Weekend Double Pix Movie Open (:10-:15)                                                                                 06                                     
PRCFAMCHA030301134500134509000009Rating - PG - Ian (:08-:10)                                                                                             06  150                                
PGRFAMCHA030301134509151935013426Kelly                                                                                                           F00202B1065807D                                
PRCFAMCHA030301151935151945000010Bullying Bumper                                                                                                         06  150                                
PROFAMCHA030301151945151959000014NSW - 20 - TEAMO/HOM/PROUD (:13-:16)                                                                                    02  150                                
PROFAMCHA030301151959152029000030That's So Raven - Premieres Today @ 5:25pm                                                                              06  150                                
PRCFAMCHA030301152029152059000030Snow Days Event Promo - Spot #2 - FEB 23 TO MAR 01                                                                      06  150                                
PROFAMCHA030301152059152129000030Best of Amanda (MBE) - Starting March 10th                                                                              06  150                                
PROFAMCHA030301152129152159000030Proud Family (MBE) - Starting March 15th                                                                                06  150                                
PROFAMCHA030301152159152247000048Amanda Show (JACUZZI) - Tomorrow @ 8:30am                                                                               06  150                                
OFFFAMCHA030301152247152300000013Nonstop Weekend Block Open (:10-:15)                                                                                    06                                     
PROFAMCHA030301152300152309000009CC Disclaimer - FAST - Generic (:08-:10)                                                                                06  150                                
PGRFAMCHA030301152309154607002258Disney's Teamo Supremo                            The Cheif's New Groove/Capitol Offense                              A6068607ECC                              
PROFAMCHA030301154607154621000014NSW - 21 - HOM/PROUD/KIM (:13-:16)                                                                                      02  150                                
PROFAMCHA030301154621154651000030That's So Raven - Premieres Today @ 5:25pm                                                                              06  150                                
PROFAMCHA030301154651154717000026Nonstop Weekend - KIM POSSIBLE - Ron                                                                                    06  150                                
PROFAMCHA030301154717154747000030All That (MBE) - Starting March 10th                                                                                    06  150                                
OFFFAMCHA030301154747154800000013Nonstop Weekend Block Open (:10-:15)                                                                                    06                                     
PGRFAMCHA030301154800161038002238Disney's House Of Mouse                           Gone Goofy                                                           6068607E                                
PRCFAMCHA030301161038161048000010Bullying Bumper                                                                                                         06  150                                
PROFAMCHA030301161048161102000014NSW - 22 - PROUD/KIM/LIZZIE (:13-:16)                                                                                   02  150                                
PROFAMCHA030301161102161132000030Proud Family (MBE) - Starting March 15th                                                                                06  150                                
PROFAMCHA030301161132161216000044Nonstop Weekend - LIZZIE MCGUIRE - Fountain                                                                             06  150                                
PROFAMCHA030301161216161246000030That's So Raven - Premieres Today @ 5:25pm                                                                              06  150                                
OFFFAMCHA030301161246161300000014Nonstop Weekend Block Open (:10-:15)                                                                                    06                                     
PROFAMCHA030301161300161309000009CC Disclaimer - FAST - Family (:08-:10)                                                                                 06  150                                
PGRFAMCHA030301161309163539002230Proud Family; The                                 Party                                                               A6068807ECC                              
PROFAMCHA030301163539163553000014NSW - 23 - KIM/LIZZIE/RAVEN (:13-:16)                                                                                   02  150                                
PROFAMCHA030301163553163623000030That's So Raven - Premieres Today @ 5:25pm                                                                              06  150                                
PROFAMCHA030301163623163717000054Nonstop Weekend - LIZZIE MCGUIRE - Blooper #3 *DNU                                                                      06  150                                
PRCFAMCHA030301163717163747000030Mentors (EVERYONE) - New Season starts Monday @ 8:                                                                      06  150                                
OFFFAMCHA030301163747163800000013Nonstop Weekend Block Open (:10-:15)                                                                                    06                                     
PGRFAMCHA030301163800170052002252Disney's Kim Possible                             Low Budget                                                          A6068607E                                
PRCFAMCHA030301170052170102000010Bullying Bumper                                                                                                         06  150                                
PROFAMCHA030301170102170116000014NSW - 24(SAT) - LIZZIE/RAVEN/TEEN (:13-:16)                                                                             02  150                                
PROFAMCHA030301170116170146000030That's So Raven - Premieres Today @ 5:25pm                                                                              06  150                                
PROFAMCHA030301170146170210000024Nonstop Weekend - KIM POSSIBLE - Gadgets                                                                                06  150                                
PROFAMCHA030301170210170240000030Best of Amanda (MBE) - Starting March 10th                                                                              06  150                                
OFFFAMCHA030301170240170252000012Nonstop Weekend Block Open (:10-:15)                                                                                    06                                     
ID FAMCHA030301170252170300000008Magic of Disney - NS/NSW/PB - Shape (:06-:09)                                                                           06  150                                
PGRFAMCHA030301170300172535002235Lizzie McGuire                                    Random Acts of Miranda                                              A6068607B                                
PROFAMCHA030301172535172549000014NSW - 25(SAT) - RAVEN/TEEN/HOZE (:13-:16)                                                                               02  150                                
PROFAMCHA030301172549172619000030Proud Family (MBE) - Starting March 15th                                                                                06  150                                
PRCFAMCHA030301172619172649000030Snow Days Event Promo - Spot #2 - FEB 23 TO MAR 01                                                                      06  150                                
PROFAMCHA030301172649172716000027Nonstop Weekend - KIM POSSIBLE - Villains                                                                               06  150                                
PROFAMCHA030301172716172746000030Lizzie McGuire (GORDO) - Tomorrow @ 8am                                                                                 06  150                                
OFFFAMCHA030301172746172800000014Nonstop Weekend Block Open (:10-:15)                                                                                    06                                     
PROFAMCHA030301172800172809000009CC Disclaimer - FAST - Family.ca (:08-:10)                                                                              06  150                                
PGRFAMCHA030301172809175049002240That's So Raven                                   The Smell of Victory                                                A6028807BCC                              
PROFAMCHA030301175049175103000014NSW - 26(SAT) - TEEN/HOZE/FRANKLIN (:13-:16)                                                                            02  150                                
PROFAMCHA030301175103175133000030All That (MBE) - Starting March 10th                                                                                    06  150                                
PRCFAMCHA030301175133175203000030Snow Days Event Promo - Spot #2 - FEB 23 TO MAR 01                                                                      06  150                                
PROFAMCHA030301175203175222000019Nonstop Weekend - EVEN STEVENS - Locker                                                                                 06  150                                
PROFAMCHA030301175222175248000026PR Wild Force (WAKEUP) - Tomorrow @ 6:30am                                                                              06  150                                
OFFFAMCHA030301175248175300000012Nonstop Weekend Block Open (:10-:15)                                                                                    06                                     
PGRFAMCHA030301175300181348002048Teen Angel                                        Marty Buys The Farm                                                 A6068807B                                
PROFAMCHA030301181348181402000014NSW - 27 - HOZE/FRANKLIN/HENRY (:13-:16)                                                                                02  150                                
PROFAMCHA030301181402181432000030All That (MBE) - Starting March 10th                                                                                    06  150                                
PRCFAMCHA030301181432181502000030Snow Days Event Promo - Spot #2 - FEB 23 TO MAR 01                                                                      06  150                                
PROFAMCHA030301181502181521000019Nonstop Weekend - EVEN STEVENS - Locker                                                                                 06  150                                
PROFAMCHA030301181521181617000056Boy Meets World (MOM) - Tomorrow @ 10:15am                                                                              06  150                                
PROFAMCHA030301181617181647000030Best of Amanda (MBE) - Starting March 10th                                                                              06  150                                
OFFFAMCHA030301181647181700000013Nonstop Weekend Block Open (:10-:15)                                                                                    06                                     
PROFAMCHA030301181700181709000009CC Disclaimer - FAST - Generic (:08-:10)                                                                                06  150                                
PGRFAMCHA030301181709183946002237Hoze Houndz                                       Badderama/The Bonehead Brotherhood of Brothers                A63399A1065607ECC                              
PROFAMCHA030301183946184001000015NSW - 28 - FRANKLIN/HENRY/JETT (:13-:16)                                                                                02  150                                
PROFAMCHA030301184001184051000050Art Attack (BASEBALL) - Tomorrow @ 3:10pm                                                                               06  150                                
INTFAMCHA030301184051184145000054Disney Moments-Donald In Mathmagic-Donald Plays                                                                        60688120                                
OFFFAMCHA030301184145184200000015Nonstop Weekend Block Open (:10-:15)                                                                                    06                                     
PROFAMCHA030301184200184209000009CC Disclaimer - FAST - Family (:08-:10)                                                                                 06  150                                
PGRFAMCHA030301184209190502002253Franklin                                          Franklin's Night Friend/Franklin's Two Henry's                B36662A1025607ECC                              
PROFAMCHA030301190502190516000014NSW - 29(SAT) - HENRY/JETT/HONEY (:13-:16)                                                                              02  150                                
PROFAMCHA030301190516190553000037Kim Possible (RON THE MAN) - Tomorrow @ 4:35pm                                                                          06  150                                
PROFAMCHA030301190553190632000039Nonstop Weekend - LIZZIE MCGUIRE - Blooper #1 *DNU                                                                      06  150                                
PROFAMCHA030301190632190647000015Weekenders (REALITY) - Weekdays @ 4:40pm                                                                                06  150                                
OFFFAMCHA030301190647190700000013Nonstop Weekend Block Open (:10-:15)                                                                                    06                                     
PROFAMCHA030301190700190709000009CC Disclaimer - FAST - Family.ca (:08-:10)                                                                              06  150                                
PGRFAMCHA030301190709193055002346Henry's World                                     Out There/Secrets                                             A66546A1065607GCC                              
PROFAMCHA030301193055193109000014NSW - 30(SAT) - JETT/HONEY/DARK (:13-:16)                                                                               02  150                                
PROFAMCHA030301193109193139000030All That (MBE) - Starting March 10th                                                                                    06  150                                
PROFAMCHA030301193139193154000015Recess (SPRINKLER) - Weekdays @ 5:05pm                                                                                  06  150                                
PROFAMCHA030301193154193217000023Proud Family (HERO) - Tomorrow @ 4:10pm                                                                                 06  150                                
PRCFAMCHA030301193217193247000030Mentors (EVERYONE) - New Season starts Monday @ 8:                                                                      06  150                                
OFFFAMCHA030301193247193300000013Nonstop Weekend Block Open (:10-:15)                                                                                    06                                     
PROFAMCHA030301193300193309000009CC Disclaimer - FAST - Generic (:08-:10)                                                                                06  150                                
PGRFAMCHA030301193309195741002432Famous Jett Jackson; The                          Going Up                                                            A2068607ACC                              
PROFAMCHA030301195741195755000014NSW - 31(SAT)- HONEY/DARK/N-PIX1 (:13-:16)                                                                              02  150                                
PROFAMCHA030301195755195825000030Best of Amanda (MBE) - Starting March 10th                                                                              06  150                                
PROFAMCHA030301195825195909000044Nonstop Weekend - AMANDA SHOW - Remote                                                                                  06  150                                
PROFAMCHA030301195909195939000030Nightly Pix Block Promo - Tonight @ 9pm                                                                                 06  150                                
OFFFAMCHA030301195939195952000013Nonstop Weekend Block Open (:10-:15)                                                                                    06                                     
ID FAMCHA030301195952200000000008Magic of Disney - NS/NSW/PB - Wipe (:06-:09)                                                                            06  150                                
PGRFAMCHA030301200000204256004256Disney's Honey, I Shrunk The Kids: The TV Show    You've Got Nine Lives                                                6068807B                                
ID FAMCHA030301204256204259000003Astral "A Network Of" Logo - English Animation                                                                          06  150                                
PROFAMCHA030301204259204311000012NSW - 32(SAT)- DARK/N-PIX1 (:10-:13)                                                                                    02  150                                
PROFAMCHA030301204311204341000030Best of Amanda (MBE) - Starting March 10th                                                                              06  150                                
PROFAMCHA030301204341204420000039Nonstop Weekend - LIZZIE MCGUIRE - Blooper #1 *DNU                                                                      06  150                                
PRCFAMCHA030301204420204450000030Mentors (EVERYONE) - New Season starts Monday @ 8:                                                                      06  150                                
OFFFAMCHA030301204450204500000010Nonstop Weekend Block Open (:10-:15)                                                                                    06                                     
PROFAMCHA030301204500204509000009CC Disclaimer - FAST - Click Club (:08-:10)                                                                             06  150                                
PGRFAMCHA030301204509205838001329Are You Afraid of the Dark?                       The Stone Maiden Pt.1                                         SR0308A1066807ACC                              
ID FAMCHA030301205838205843000005Astral "A Network Of" Logo - English Animation                                                                          06  150                                
PROFAMCHA030301205843205853000010Nightly Pix Line-up - 01 - GENERIC1 (:08-:11)                                                                           06  150                                
PROFAMCHA030301205853205917000024Boy Meets World (GYROSCOPE) - Tomorrow @ 10:15am                                                                        06  150                                
PROFAMCHA030301205917205947000030Nightly Pix Block Promo - Coming Up                                                                                     06  150                                
ID FAMCHA030301205947210000000013Nightly Pix Movie Open (:10-:15)                                                                                        06  150                                
PRCFAMCHA030301210000210009000009Rating - AA - Ian (:08-:10)                                                                                             06  150                                
PGRFAMCHA030301210009223958013949Flamingo Kid; The                                                                                                     C6028807D                                
ID FAMCHA030301223958224001000003Astral "A Network Of" Logo - English Animation                                                                          06  150                                
PROFAMCHA030301224001224015000014NSW - 33(SAT)- DARK/N-PIX2/AMAZING (:13-:16)                                                                            02  150                                
OFFFAMCHA030301224015224025000010Nonstop Weekend Block Open (:10-:15)                                                                                    06                                     
PROFAMCHA030301224025224034000009CC Disclaimer - SLOW - Click Club (:08-:10)                                                                             06  150                                
PGRFAMCHA030301224034225329001255Are You Afraid of the Dark?                       The Stone Maiden Pt.2                                         SR0308A1066807ACC                              
ID FAMCHA030301225329225334000005Astral "A Network Of" Logo - English Animation                                                                          06  150                                
PROFAMCHA030301225334225344000010Nightly Pix Line-up - 04 - DRAMA (:08-:11)                                                                              06  150                                
PROFAMCHA030301225344225414000030That's So Raven - Tomorrow @ 5:25pm                                                                                     02  150                                
PROFAMCHA030301225414225446000032PR Wild Force (CHAIR) - Tomorrow @ 6:30am                                                                               06  150                                
ID FAMCHA030301225446225500000014Nightly Pix Movie Open (:10-:15)                                                                                        06  150                                
PRCFAMCHA030301225500225509000009Rating - PG - Ian (:08-:10)                                                                                             06  150                                
PGRFAMCHA030301225509005837020328Beaches                                                                                                               B6068807D                                
ID FAMCHA030301005837005842000005Astral "A Network Of" Logo - English Animation                                                                          06  150                                
PROFAMCHA030301005842005852000010NSW - 35 - DARK (:08-:11)                                                                                               02  150                                
PROFAMCHA030301005852005901000009CC Disclaimer - SLOW - Family (:08-:10)                                                                                 06  150                                
PGRFAMCHA030301005901012321002420Are You Afraid of the Dark?                       Tale Of Highway 13                                            SR0308 1066807ACC                              
SO FAMCHA030301012321012333000012Sign Off (oct 1)                                                                                                        06                                     
OFFFAMCHA030301012333043000030627                                                                                                                                                               
SO FAMCHA030302043000043011000011Sign On (oct 1)                                                                                                         06                                     
PROFAMCHA030302043011043020000009CC Disclaimer - FAST - Generic (:08-:10)                                                                                06  150                                
PGRFAMCHA030302043020045313002253Franklin                                          Franklin's Visitor/Franklin's Not-So-Broken Bone              B13640A1065607ECC                              
PROFAMCHA030302045313045326000013NSW - 01(PH) - ART/KATIE/FRANKLIN (:13-:16)                                                                             06  150                                
OFFFAMCHA030302045326045336000010PS Playhouse Block Open (:10-:15)                                                                                       06                                     
PGRFAMCHA030302045336050850001514Art Attack                                        1-017                                                                60686110                                
PROFAMCHA030302050850050904000014NSW - 02(PH) - KATIE/FRANKLIN/RIPLEY (:13-:16)                                                                          06  150                                
PROFAMCHA030302050904050954000050Art Attack (BASEBALL) - Today @ 3:10pm                                                                                  06  150                                
INTFAMCHA030302050954051226000232MV Disney - With A Few Good Friends (CARLY SIMON)                                                                      60688120                                
PROFAMCHA030302051226051250000024Playhouse - BOOK OF POOH - Big Bee                                                                                      06  150                                
OFFFAMCHA030302051250051300000010PS Playhouse Block Open (:10-:15)                                                                                       06                                     
PROFAMCHA030302051300051309000009CC Disclaimer - FAST - Family (:08-:10)                                                                                 06  150                                
PGRFAMCHA030302051309053944002635Katie And Orbie                                   Made to Order Pancakes/Chicken Pox Party/No Chance            C18896A1065607ECC                              
PRCFAMCHA030302053944054002000018Franklin (CAST) - Coming Up                                                                                            106  150                                
OFFFAMCHA030302054002054012000010PS Playhouse Block Open (:10-:15)                                                                                       06                                     
PROFAMCHA030302054012054021000009CC Disclaimer - FAST - Family.ca (:08-:10)                                                                              06  150                                
PGRFAMCHA030302054021060314002253Franklin                                          Franklin's Gift/Franklin Growing Up Fast                      B13641A1065607ECC                              
PROFAMCHA030302060314060326000012NSW - 04(PG) - RIPLEY/PRWF (:10-:13)                                                                                    06  150                                
ID FAMCHA030302060326060346000020Schoolhouse Promo - Weekday Mornings                                                                                    06  150                                
OFFFAMCHA030302060346060400000014PS Playground Block Open (:10-:15)                                                                                      06                                     
PROFAMCHA030302060400060409000009CC Disclaimer - FAST - Click Club (:08-:10)                                                                             06  150                                
PGRFAMCHA030302060409062839002430Ripley's Believe It Or Not!                       Wattam the Warriors Mask                                      B21798 1065607ECC                              
PROFAMCHA030302062839062854000015NSW - 05(PB-SAT)- PRWF1/PRFW2/SMART (:13-:16)                                                                           06  150                                
PROFAMCHA030302062854062945000051March Break Escape - Starting March 10th                                                                                06  150                                
OFFFAMCHA030302062945063000000015Power Box Block Open (:10-:15)                                                                                          06                                     
PGRFAMCHA030302063000065129002129Power Rangers Wild Force                          Soul Bird Salvation                                                 A6068607E                                
PROFAMCHA030302065129065143000014NSW - 06(PB-SAT)- PRWF2/SMART/LIZZIE (:13-:16)                                                                          06  150                                
PROFAMCHA030302065143065213000030That's So Raven - Today @ 5:25pm                                                                                        02  150                                
PROFAMCHA030302065213065243000030Smart Guy (BRAINY) - Today @ 10:40am                                                                                    06  150                                
INTFAMCHA030302065243065413000130Family X-Pedition - Ep.50                                                                                             A10656120                                
PROFAMCHA030302065413065443000030Best of Amanda (MBE) - Starting March 10th                                                                              06  150                                
INTFAMCHA030302065443065849000406Art Attack - Beach Chair                                                                                               60686120                                
PROFAMCHA030302065849065919000030Lizzie McGuire (GORDO) - Today @ 8am                                                                                    06  150                                
PROFAMCHA030302065919065949000030Proud Family (MBE) - Starting March 15th                                                                                06  150                                
OFFFAMCHA030302065949070000000011Power Box Block Open (:10-:15)                                                                                          06                                     
PGRFAMCHA030302070000072130002130Power Rangers Wild Force                          Curse Of The Wolf                                                   A6068607E                                
PROFAMCHA030302072130072144000014NSW - 07 - SMART/LIZZIE/AMANDA (:13-:16)                                                                                06  150                                
PROFAMCHA030302072144072235000051March Break Escape - Starting March 10th                                                                                06  150                                
PROFAMCHA030302072235072305000030Lizzie McGuire (GORDO) - Today @ 8am                                                                                    06  150                                
INTFAMCHA030302072305072409000104Jack and Marcel: Ep.048 "Sticking Together"                                                                           A40688120                                
PRCFAMCHA030302072409072439000030Mentors (EVERYONE) - New Season starts Tomorrow @                                                                       02  150                                
INTFAMCHA030302072439072847000408Art Attack - Venice Canal                                                                                              60686120                                
PROFAMCHA030302072847072917000030Amanda Show (CONCEPT) - Today @ 8:30am                                                                                  06  150                                
PROFAMCHA030302072917072947000030All That (MBE) - Starting March 10th                                                                                    06  150                                
OFFFAMCHA030302072947073000000013Nonstop Weekend Block Open (:10-:15)                                                                                    06                                     
PROFAMCHA030302073000073009000009CC Disclaimer - FAST - Generic (:08-:10)                                                                                06  150                                
PGRFAMCHA030302073009075224002215Smart Guy                                         Baby It's You...and You...and You                                   A6068807BCC                              
PRCFAMCHA030302075224075234000010Bullying Bumper                                                                                                         06  150                                
PROFAMCHA030302075234075248000014NSW - 08 - LIZZIE/AMANDA/ALL (:13-:16)                                                                                  06  150                                
PROFAMCHA030302075248075318000030That's So Raven - Today @ 5:25pm                                                                                        06  150                                
PROFAMCHA030302075318075355000037Kim Possible (RON THE MAN) - Today @ 4:35pm                                                                             06  150                                
PROFAMCHA030302075355075425000030Best of Amanda (MBE) - Starting March 10th                                                                              06  150                                
INTFAMCHA030302075425075814000349MV Disney - Dancing In The Street (MYRA)                                                                               60688120                                
PROFAMCHA030302075814075910000056Boy Meets World (MOM) - Today @ 10:15am                                                                                 06  150                                
PROFAMCHA030302075910075940000030Proud Family (MBE) - Starting March 15th                                                                                06  150                                
OFFFAMCHA030302075940075952000012Nonstop Weekend Block Open (:10-:15)                                                                                    06                                     
ID FAMCHA030302075952080000000008Magic of Disney - NS/NSW/PB - Shape (:06-:09)                                                                           06  150                                
PGRFAMCHA030302080000082235002235Lizzie McGuire                                    Lizzie's Nightmare                                                  A6068607B                                
PROFAMCHA030302082235082249000014NSW - 09 - AMANDA/ALL/EVEN (:13-:16)                                                                                    06  150                                
PROFAMCHA030302082249082340000051March Break Escape - Starting March 10th                                                                                06  150                                
PROFAMCHA030302082340082436000056Boy Meets World (MOM) - Today @ 10:15am                                                                                 06  150                                
PRCFAMCHA030302082436082506000030Mentors (EVERYONE) - New Season starts Tomorrow @                                                                       06  150                                
INTFAMCHA030302082506082917000411MV Disney - I'm Still Here (JOHN RZEZNIK)                                                                              60688120                                
PROFAMCHA030302082917082947000030All That (MBE) - Starting March 10th                                                                                    06  150                                
OFFFAMCHA030302082947083000000013Nonstop Weekend Block Open (:10-:15)                                                                                    06                                     
PGRFAMCHA030302083000085308002308Amanda Show; The                                  2-040                                                               A20686090                                
PRCFAMCHA030302085308085318000010Bullying Bumper                                                                                                         06  150                                
PROFAMCHA030302085318085332000014NSW - 10 - ALL/EVEN/JERSEY (:13-:16)                                                                                    06  150                                
PROFAMCHA030302085332085402000030That's So Raven - Today @ 5:25pm                                                                                        06  150                                
PROFAMCHA030302085402085432000030Smart Guy (BRAINY) - Today @ 10:40am                                                                                    06  150                                
PROFAMCHA030302085432085502000030Best of Amanda (MBE) - Starting March 10th                                                                              06  150                                
INTFAMCHA030302085502085847000345Art Attack - Couple In Horse Carriage                                                                                  60686120                                
PROFAMCHA030302085847085917000030Weekend Double Pix Promo - Today @ 12pm                                                                                 06  150                                
PROFAMCHA030302085917085947000030Proud Family (MBE) - Starting March 15th                                                                                06  150                                
OFFFAMCHA030302085947090000000013Nonstop Weekend Block Open (:10-:15)                                                                                    06                                     
PGRFAMCHA030302090000092419002419All That                                          720                                                                 A20686090                                
PROFAMCHA030302092419092433000014NSW - 11 - EVEN/JERSEY/BMW (:13-:16)                                                                                    06  150                                
PROFAMCHA030302092433092524000051March Break Escape - Starting March 10th                                                                                06  150                                
PRCFAMCHA030302092524092554000030Mentors (EVERYONE) - New Season starts Tomorrow @                                                                       06  150                                
INTFAMCHA030302092554092724000130Family X-Pedition - Ep.51                                                                                             A10656120                                
PROFAMCHA030302092724092809000045Lizzie McGuire (MAGIC TRICK) - Tomorrow @ 5:35pm                                                                        06  150                                
PROFAMCHA030302092809092839000030All That (MBE) - Starting March 10th                                                                                    06  150                                
OFFFAMCHA030302092839092852000013Nonstop Weekend Block Open (:10-:15)                                                                                    06                                     
ID FAMCHA030302092852092900000008Magic of Disney - NS/NSW/PB - Wipe (:06-:09)                                                                            06  150                                
PROFAMCHA030302092900092909000009CC Disclaimer - FAST - Family (:08-:10)                                                                                 06  150                                
PGRFAMCHA030302092909095151002242Even Stevens                                      Louis In The Middle                                                 A6068807BCC                              
PRCFAMCHA030302095151095201000010Bullying Bumper                                                                                                         06  150                                
PROFAMCHA030302095201095215000014NSW - 12 - JERSEY/BMW/SMART (:13-:16)                                                                                   06  150                                
PROFAMCHA030302095215095245000030That's So Raven - Today @ 5:25pm                                                                                        06  150                                
PROFAMCHA030302095245095315000030Best of Amanda (MBE) - Starting March 10th                                                                              06  150                                
PROFAMCHA030302095315095411000056Boy Meets World (MOM) - Today @ 10:15am                                                                                 06  150                                
PROFAMCHA030302095411095441000030Proud Family (MBE) - Starting March 15th                                                                                06  150                                
OFFFAMCHA030302095441095452000011Nonstop Weekend Block Open (:10-:15)                                                                                    06                                     
ID FAMCHA030302095452095500000008Magic of Disney - NS/NSW/PB - Shape (:06-:09)                                                                           06  150                                
PGRFAMCHA030302095500101737002237Jersey; The                                       Three Boys and a Nephew                                             A6068807A                                
PROFAMCHA030302101737101753000016NSW - 13 - BMW/SMART/TEEN (:13-:16)                                                                                     06  150                                
PROFAMCHA030302101753101844000051March Break Escape - Starting March 10th                                                                                06  150                                
PRCFAMCHA030302101844101914000030Mentors (EVERYONE) - New Season starts Tomorrow @                                                                       06  150                                
PROFAMCHA030302101914101944000030All That (MBE) - Starting March 10th                                                                                    06  150                                
OFFFAMCHA030302101944101959000015Nonstop Weekend Block Open (:10-:15)                                                                                    06                                     
PROFAMCHA030302101959102009000010CC Disclaimer - FAST - Family.ca (:08-:10)                                                                              06  150                                
PGRFAMCHA030302102009104202002153Boy Meets World                                   The Pink Flamingo                                                   B6068807BCC                              
PRCFAMCHA030302104202104212000010Bullying Bumper                                                                                                         06  150                                
PROFAMCHA030302104212104226000014NSW - 14 - SMART/TEEN/YOU (:13-:16)                                                                                     06  150                                
PROFAMCHA030302104226104256000030That's So Raven - Today @ 5:25pm                                                                                        06  150                                
PROFAMCHA030302104256104326000030Best of Amanda (MBE) - Starting March 10th                                                                              06  150                                
PROFAMCHA030302104326104416000050Art Attack (BASEBALL) - Today @ 3:10pm                                                                                  06  150                                
PROFAMCHA030302104416104446000030Proud Family (MBE) - Starting March 15th                                                                                06  150                                
OFFFAMCHA030302104446104500000014Nonstop Weekend Block Open (:10-:15)                                                                                    06                                     
PROFAMCHA030302104500104509000009CC Disclaimer - FAST - Click Club (:08-:10)                                                                             06  150                                
PGRFAMCHA030302104509110737002228Smart Guy                                         Below The Rim                                                       A6068807BCC                              
PROFAMCHA030302110737110753000016NSW - 15 - TEEN/YOU/D-PIX (:13-:16)                                                                                     06  150                                
PROFAMCHA030302110753110844000051March Break Escape - Starting March 10th                                                                                06  150                                
PRCFAMCHA030302110844110914000030Mentors (EVERYONE) - New Season starts Tomorrow @                                                                       06  150                                
PROFAMCHA030302110914110944000030All That (MBE) - Starting March 10th                                                                                    06  150                                
OFFFAMCHA030302110944110959000015Nonstop Weekend Block Open (:10-:15)                                                                                    06                                     
PROFAMCHA030302110959111009000010CC Disclaimer - FAST - Generic (:08-:10)                                                                                06  150                                
PGRFAMCHA030302111009113129002120Teen Angel                                        Honest Abe and Popular Steve                                        A6068807BCC                              
PRCFAMCHA030302113129113139000010Bullying Bumper                                                                                                         06  150                                
PROFAMCHA030302113139113150000011NSW - 16 - YOU/D-PIX (:10-:13)                                                                                          06  150                                
PROFAMCHA030302113150113220000030That's So Raven - Today @ 5:25pm                                                                                        06  150                                
INTFAMCHA030302113220113350000130Family X-Pedition - Ep.52                                                                                             A10656120                                
PROFAMCHA030302113350113420000030Best of Amanda (MBE) - Starting March 10th                                                                              06  150                                
PROFAMCHA030302113420113450000030Proud Family (MBE) - Starting March 15th                                                                                06  150                                
OFFFAMCHA030302113450113500000010Nonstop Weekend Block Open (:10-:15)                                                                                    06                                     
PROFAMCHA030302113500113509000009CC Disclaimer - FAST - Family (:08-:10)                                                                                 06  150                                
PGRFAMCHA030302113509115613002104You Wish                                          Bride Of Prejudice                                                  A6068807BCC                              
PROFAMCHA030302115613115623000010NSW - 17 - DOUBLE PIX 1 (:08-:11)                                                                                       06  150                                
PROFAMCHA030302115623115714000051March Break Escape - Starting March 10th                                                                                06  150                                
PRCFAMCHA030302115714115744000030Mentors (EVERYONE) - New Season starts Tomorrow @                                                                       06  150                                
INTFAMCHA030302115744115848000104Jack and Marcel: Ep.017 "The Hair-Dryer"                                                                              A40688120                                
PROFAMCHA030302115848115918000030All That (MBE) - Starting March 10th                                                                                    06  150                                
PROFAMCHA030302115918115948000030Weekend Double Pix Promo - Coming Up                                                                                    06  150                                
OFFFAMCHA030302115948120000000012Weekend Double Pix Movie Open (:10-:15)                                                                                 06                                     
PRCFAMCHA030302120000120009000009Rating - PG - Ian (:08-:10)                                                                                             06  150                                
PROFAMCHA030302120009120018000009CC Disclaimer - FAST - Click Club (:08-:10)                                                                             06  150                                
PGRFAMCHA030302120018134030014012Last Starfighter; The                                                                                                 B2068807D                                
PRCFAMCHA030302134030134040000010Bullying Bumper                                                                                                         06  150                                
PROFAMCHA030302134040134048000008NSW - 18 - DOUBLE PIX 2 (:08-:11)                                                                                       06  150                                
OFFFAMCHA030302134048134058000010Weekend Double Pix Movie Open (:10-:15)                                                                                 06                                     
PRCFAMCHA030302134058134107000009Rating - PG - Ian (:08-:10)                                                                                             06  150                                
PROFAMCHA030302134107134116000009CC Disclaimer - FAST - Family (:08-:10)                                                                                 06  150                                
PGRFAMCHA030302134116151000012844Bad News Bears; The                                                                                                   B2068807DCC                              
PROFAMCHA030302151000151013000013NSW - 19 - ART/TEAMO/HOM (:13-:16)                                                                                      02  150                                
OFFFAMCHA030302151013151023000010Nonstop Weekend Block Open (:10-:15)                                                                                    06                                     
PGRFAMCHA030302151023152443001420Art Attack                                        1-008                                                                60686110                                
PRCFAMCHA030302152443152453000010Bullying Bumper                                                                                                         06  150                                
PROFAMCHA030302152453152506000013NSW - 20 - TEAMO/HOM/PROUD (:13-:16)                                                                                    06  150                                
OFFFAMCHA030302152506152516000010Nonstop Weekend Block Open (:10-:15)                                                                                    06                                     
PROFAMCHA030302152516152525000009CC Disclaimer - FAST - Family.ca (:08-:10)                                                                              06  150                                
PGRFAMCHA030302152525154822002257Disney's Teamo Supremo                            Danger: Dirigibles/Enter The Cheapskates                            A6068607ECC                              
PROFAMCHA030302154822154835000013NSW - 21 - HOM/PROUD/KIM (:13-:16)                                                                                      06  150                                
OFFFAMCHA030302154835154845000010Nonstop Weekend Block Open (:10-:15)                                                                                    06                                     
PGRFAMCHA030302154845161122002237Disney's House Of Mouse                           Jiminy Cricket                                                       6068607E                                
PRCFAMCHA030302161122161132000010Bullying Bumper                                                                                                         06  150                                
PROFAMCHA030302161132161146000014NSW - 22 - PROUD/KIM/LIZZIE (:13-:16)                                                                                   06  150                                
PRCFAMCHA030302161146161216000030Mentors (EVERYONE) - New Season starts Tomorrow @                                                                       06  150                                
PROFAMCHA030302161216161246000030All That (MBE) - Starting March 10th                                                                                    06  150                                
OFFFAMCHA030302161246161300000014Nonstop Weekend Block Open (:10-:15)                                                                                    06                                     
PROFAMCHA030302161300161309000009CC Disclaimer - FAST - Click Club (:08-:10)                                                                             06  150                                
PGRFAMCHA030302161309163539002230Proud Family; The                                 Love Thy Neighbor                                                   A6068807ECC                              
PROFAMCHA030302163539163553000014NSW - 23 - KIM/LIZZIE/RAVEN (:13-:16)                                                                                   06  150                                
PROFAMCHA030302163553163623000030That's So Raven - Today @ 5:25pm                                                                                        06  150                                
PROFAMCHA030302163623163653000030Best of Amanda (MBE) - Starting March 10th                                                                              06  150                                
PROFAMCHA030302163653163717000024Legend of Tarzan (S.O.S) - Weekdays @ 4:15pm                                                                            06  150                                
PROFAMCHA030302163717163747000030Proud Family (MBE) - Starting March 15th                                                                                06  150                                
OFFFAMCHA030302163747163800000013Nonstop Weekend Block Open (:10-:15)                                                                                    06                                     
PGRFAMCHA030302163800170052002252Disney's Kim Possible                             All The News                                                        A6068607E                                
PRCFAMCHA030302170052170102000010Bullying Bumper                                                                                                         06  150                                
PROFAMCHA030302170102170116000014NSW - 24(SUN) - LIZZIE/RAVEN/YOU (:13-:16)                                                                              02  150                                
PROFAMCHA030302170116170207000051March Break Escape - Starting March 10th                                                                                06  150                                
PROFAMCHA030302170207170237000030All That (MBE) - Starting March 10th                                                                                    06  150                                
OFFFAMCHA030302170237170252000015Nonstop Weekend Block Open (:10-:15)                                                                                    06                                     
ID FAMCHA030302170252170300000008Magic of Disney - NS/NSW/PB - Shape (:06-:09)                                                                           06  150                                
PGRFAMCHA030302170300172535002235Lizzie McGuire                                    Obsession                                                           A6068607B                                
PROFAMCHA030302172535172549000014NSW - 25(SUN) - RAVEN/YOU/HOZE (:13-:16)                                                                                02  150                                
PROFAMCHA030302172549172619000030That's So Raven - Today @ 5:25pm                                                                                        06  150                                
PROFAMCHA030302172619172649000030Best of Amanda (MBE) - Starting March 10th                                                                              06  150                                
PROFAMCHA030302172649172716000027Pepper Ann (WHO IS SHE?) - Weekdays @ 3:50pm                                                                            06  150                                
PROFAMCHA030302172716172746000030Proud Family (MBE) - Starting March 15th                                                                                06  150                                
OFFFAMCHA030302172746172800000014Nonstop Weekend Block Open (:10-:15)                                                                                    06                                     
PROFAMCHA030302172800172809000009CC Disclaimer - FAST - Generic (:08-:10)                                                                                06  150                                
PGRFAMCHA030302172809175049002240That's So Raven                                   Mother Dearest                                                      A6028807BCC                              
PROFAMCHA030302175049175103000014NSW - 26(SUN) - YOU/HOZE/FRANKLIN (:13-:16)                                                                             02  150                                
PROFAMCHA030302175103175154000051March Break Escape - Starting March 10th                                                                                06  150                                
PROFAMCHA030302175154175217000023Your Big Break (B-52) - Tonight @ 8pm                                                                                   06  150                                
PROFAMCHA030302175217175247000030All That (MBE) - Starting March 10th                                                                                    06  150                                
OFFFAMCHA030302175247175300000013Nonstop Weekend Block Open (:10-:15)                                                                                    06                                     
PROFAMCHA030302175300175309000009CC Disclaimer - FAST - Family (:08-:10)                                                                                 06  150                                
PGRFAMCHA030302175309181453002144You Wish                                          Pilot                                                               A6068807BCC                              
PROFAMCHA030302181453181507000014NSW - 27 - HOZE/FRANKLIN/HENRY (:13-:16)                                                                                06  150                                
PROFAMCHA030302181507181537000030That's So Raven - Today @ 5:25pm                                                                                        06  150                                
PROFAMCHA030302181537181607000030Best of Amanda (MBE) - Starting March 10th                                                                              06  150                                
PROFAMCHA030302181607181618000011Nonstop Weekend - LIZZIE MCGUIRE - Junk Food                                                                            06  150                                
PROFAMCHA030302181618181648000030Proud Family (MBE) - Starting March 15th                                                                                06  150                                
OFFFAMCHA030302181648181700000012Nonstop Weekend Block Open (:10-:15)                                                                                    06                                     
PROFAMCHA030302181700181709000009CC Disclaimer - FAST - Family.ca (:08-:10)                                                                              06  150                                
PGRFAMCHA030302181709183947002238Hoze Houndz                                       Employee Of The Month/Hozerdysseus                            A63400A1025607ECC                              
PROFAMCHA030302183947184000000013NSW - 28 - FRANKLIN/HENRY/JETT (:13-:16)                                                                                06  150                                
PROFAMCHA030302184000184051000051March Break Escape - Starting March 10th                                                                                06  150                                
PRCFAMCHA030302184051184121000030Mentors (EVERYONE) - New Season starts Tomorrow @                                                                       06  150                                
PROFAMCHA030302184121184151000030All That (MBE) - Starting March 10th                                                                                    06  150                                
OFFFAMCHA030302184151184201000010Nonstop Weekend Block Open (:10-:15)                                                                                    06                                     
PROFAMCHA030302184201184209000008CC Disclaimer - FAST - Click Club (:08-:10)                                                                             06  150                                
PGRFAMCHA030302184209190502002253Franklin                                          Franklin's Nature Hike/Franklin's Starring Role               B36663A1025607ECC                              
PROFAMCHA030302190502190516000014NSW - 29(SUN) - HENRY/JETT/YBB (:13-:16)                                                                                02  150                                
PROFAMCHA030302190516190546000030That's So Raven - Today @ 5:25pm                                                                                        06  150                                
PROFAMCHA030302190546190616000030Best of Amanda (MBE) - Starting March 10th                                                                              06  150                                
PROFAMCHA030302190616190646000030Proud Family (MBE) - Starting March 15th                                                                                06  150                                
OFFFAMCHA030302190646190700000014Nonstop Weekend Block Open (:10-:15)                                                                                    06                                     
PROFAMCHA030302190700190709000009CC Disclaimer - FAST - Generic (:08-:10)                                                                                06  150                                
PGRFAMCHA030302190709193058002349Henry's World                                     My Gorilla Is Bigger Than Yours/Whither Weather               A66547A1065607GCC                              
PROFAMCHA030302193058193112000014NSW - 30(SUN) - JETT/YBB/@MOVIES (:13-:16)                                                                              02  150                                
PROFAMCHA030302193112193203000051March Break Escape - Starting March 10th                                                                                06  150                                
PROFAMCHA030302193203193218000015Weekenders (REALITY) - Weekdays @ 4:40pm                                                                                06  150                                
PRCFAMCHA030302193218193248000030Mentors (EVERYONE) - New Season starts Tomorrow @                                                                       06  150                                
OFFFAMCHA030302193248193300000012Nonstop Weekend Block Open (:10-:15)                                                                                    06                                     
PROFAMCHA030302193300193309000009CC Disclaimer - FAST - Family (:08-:10)                                                                                 06  150                                
PGRFAMCHA030302193309195743002434Famous Jett Jackson; The                          Who's The Man                                                 SR0295A1066607ACC                              
PROFAMCHA030302195743195757000014NSW - 31(SUN)- YBB/@MOVIES/N-PIX1 (:13-:16)                                                                             02  150                                
PROFAMCHA030302195757195827000030That's So Raven - Today @ 5:25pm                                                                                        06  150                                
PROFAMCHA030302195827195857000030Best of Amanda (MBE) - Starting March 10th                                                                              06  150                                
PROFAMCHA030302195857195916000019Nonstop Weekend - EVEN STEVENS - Locker                                                                                 06  150                                
PROFAMCHA030302195916195946000030Proud Family (MBE) - Starting March 15th                                                                                06  150                                
OFFFAMCHA030302195946200000000014Nonstop Weekend Block Open (:10-:15)                                                                                    06                                     
PGRFAMCHA030302200000204248004248Your Big Break                                    2-014                                                               A60688090                                
ID FAMCHA030302204248204253000005Astral "A Network Of" Logo - English Animation                                                                          06  150                                
PROFAMCHA030302204253204305000012NSW - 32(SUN)- @MOVIES/N-PIX1 (:10-:13)                                                                                 02  150                                
PROFAMCHA030302204305204356000051March Break Escape - Starting March 10th                                                                                06  150                                
