SO FAMCHA060501043000043011000011Sign On (oct 1)                                                                                                                                                
PRCFAMCHA060501043011043020000009CC Disclaimer - FAST - Family.ca (:08-:10)                                                                                  150                                
PGRFAMCHA060501043020045658002638Katie And Orbie                                   EP: 5-064                                                     C19665A1065607ECC                              
PRCFAMCHA060501045658045711000013PH - 02 - FRANNY/SOMETHING/HOZE  (:14 - :16) (APR0                                                                          150                                
ID FAMCHA060501045711045724000013PS Playhouse AM Block Open (:10-:15)                                                                                        150                                
PRCFAMCHA060501045724045734000010CC Disclaimer - FAST - Generic (:08-:10)                                                                                    150                                
PGRFAMCHA060501045734052004002230Franny's Feet                                     EPS # 1-001                                                   C23970A1065607ECC                              
PRCFAMCHA060501052004052009000005Astral ID (FEB05)                                                                                                           150                                
PRCFAMCHA060501052009052022000013PH - 03 - SOMETHING/HOZE/KING (:14 - :16) (APR06)                                                                           150                                
ID FAMCHA060501052022052035000013PS Playhouse AM Block Open (:10-:15)                                                                                        150                                
PRCFAMCHA060501052035052044000009CC Disclaimer - FAST - Family.ca (:08-:10)                                                                                  150                                
PGRFAMCHA060501052044054315002231Something Else                                    EP: 1-009                                                     B69263A1065607ECC                              
PRCFAMCHA060501054315054328000013PH - 04 - HOZE/KING/SPIDERMAN (:14 - :16) (APR06)                                                                           150                                
PRCFAMCHA060501054328054338000010CC Disclaimer - FAST - Generic (:08-:10)                                                                                    150                                
PGRFAMCHA060501054338060613002235Hoze Houndz                                       EP: 2-015                                                     B34004A1065607ECC                              
PRCFAMCHA060501060613060618000005Astral ID (FEB05)                                                                                                           150                                
PRCFAMCHA060501060618060631000013PH - 05 - KING/SPIDERMAN/KIM  (:14 - :16) (APR06)                                                                           150                                
ID FAMCHA060501060631060644000013PS Playhouse AM Block Open (:10-:15)                                                                                        150                                
PRCFAMCHA060501060644060653000009CC Disclaimer - FAST - Family.ca (:08-:10)                                                                                  150                                
PGRFAMCHA060501060653062923002230King                                              EP: 4-043                                                     C25350A1065607ECC                              
PRCFAMCHA060501062923062936000013PH - 06 - SPIDERMAN/KIM ( (:14 - :16) (APR06)                                                                               150                                
PROFAMCHA060501062936062955000019MadMadMornings Block Open                                                                                                   150                                
PGRFAMCHA060501062955065136002141Spiderman                                         EP: 17                                                        C02618 1065607E                                
PRCFAMCHA060501065136065141000005Astral ID (FEB05)                                                                                                           150                                
PRCFAMCHA060501065141065157000016MMM - 01 (AM) - KIM/RECESS/WEEKENDERS (OCT05) (:14                                                                          150                                
PROFAMCHA060501065157065231000034xxRecess - HEROES (MMM) - (APR06) - This  Morn @ 7                                                                          150                                
PROFAMCHA060501065231065309000038xxAly and AJ Blast (April 10 - May 8)  3xMD, 3xNS,                                                                          150                                
PROFAMCHA060501065309065345000036Weekenders - PIZZA (MMM) - (APR06) - This Morning                                                                           150                                
PROFAMCHA060501065345065355000010FAMJAM - Open/Close                                                                                                         150                                
PGRFAMCHA060501065355065455000100MV Disney - (MD/NSW) - I Can't Wait (HILARY DUFF)                                                                      60688120                                
PROFAMCHA060501065455065509000014xxFAMJAM - Close (FAMILY) xxDNUxx                                                                                           150                                
PROFAMCHA060501065509065534000025xxLilo & Stitch (MMM) (APR06) - This Morning @ 8:1                                                                          150                                
PROFAMCHA060501065534065553000019MadMadMornings Block Open                                                                                                   150                                
PGRFAMCHA060501065553071844002251Disney's Kim Possible                             EPS # 1-022                                                         A6068607E                                
PRCFAMCHA060501071844071858000014MMM - 02 (AM) - RECESS/WEEKENDERS/LILO (OCT05) (:1                                                                          150                                
PROFAMCHA060501071858071932000034xxRecess - HEROES (MMM) - (APR06) - Coming Up Next                                                                          150                                
PRCFAMCHA060501071932071938000006xxFamily Bumpers - Reptile Pet - Horse  (MD/NS/NSW                                                                          150                                
PROFAMCHA060501071938072014000036Weekenders - PIZZA (MMM) - (APR06) - This Morning                                                                           150                                
PROFAMCHA060501072014072024000010FAMJAM - Open/Close                                                                                                         150                                
PGRFAMCHA060501072024072154000130MV Disney - (MD/NS/NSW) - We're All In This Togeth                                                                     60688120                                
PROFAMCHA060501072154072208000014xxFAMJAM - Close (FAMILY) xxDNUxx                                                                                           150                                
PROFAMCHA060501072208072233000025xxLilo & Stitch (MMM) (APR06) - This Morning @ 8:1                                                                          150                                
PRCFAMCHA060501072233072307000034SBO Re-Cap (APR06) 3x MD, NS, NSW in NS (apr21 - m                                                                          150                                
PROFAMCHA060501072307072343000036Teenage Mutant Ninja Turtles (WDP) - Saturday @ 1:                                                                          150                                
PROFAMCHA060501072343072402000019MadMadMornings Block Open                                                                                                   150                                
PGRFAMCHA060501072402074637002235Disney's Recess                                   EP: 1-057                                                           A6068607E                                
PRCFAMCHA060501074637074642000005Astral ID (FEB05)                                                                                                           150                                
PRCFAMCHA060501074642074654000012PH - 07 - WEEKENDERS/LILO/EINSTEINS (:14 - :16) (A                                                                          150                                
PROFAMCHA060501074654074730000036Weekenders - PIZZA (MMM) - (APR06) - Coming Up Nex                                                                          150                                
PROFAMCHA060501074730074807000037Hoodwinked Blast - In Theatres May 2 (April 28-May                                                                    A     150                                
PROFAMCHA060501074807074832000025xxLilo & Stitch (MMM) (APR06) - This Morning @ 8:1                                                                          150                                
PROFAMCHA060501074832074906000034xxRecess - HEROES (MD/PM) - (APR06) - This Morning                                                                          150                                
PGRFAMCHA060501074906075015000109Planet Rock Profiles - Craig David (Studio) xxDNUxEP: 46                                                              A70687120                                
PROFAMCHA060501075015075045000030Brandy & Mr. Whiskers (Lets Do Lunch (APR06) -This                                                                          150                                
PROFAMCHA060501075045075104000019MadMadMornings Block Open                                                                                                   150                                
PRCFAMCHA060501075104075114000010CC Disclaimer - FAST - Generic (:08-:10)                                                                                    150                                
PGRFAMCHA060501075114081353002239Disney's The Weekenders                           EP: 1-036                                                           A6068607ECC                              
PRCFAMCHA060501081353081407000014PH - 08 - LILO/EINSTEINS/WINNIE (:14 - :16) (APR06                                                                          150                                
PROFAMCHA060501081407081424000017xxLilo & Stitch (MMM) (APR06) - coming Up Next                                                                              150                                
PRCFAMCHA060501081424081458000034SBO Re-Cap (APR06) 3x MD, NS, NSW in NS (apr21 - m                                                                          150                                
PROFAMCHA060501081458081520000022Fillmore! - POLLY (MD) (APR06) - This Afternoon @                                                                           150                                
PGRFAMCHA060501081520081558000038Planet Rock Profiles - Ashanti (Writing)          EP: 46                                                              A70687120                                
PROFAMCHA060501081558081634000036Weekenders - PIZZA (MD) - (APR06) - This Afternoon                                                                          150                                
PROFAMCHA060501081634081712000038xxAly and AJ Blast (April 10 - May 8)  3xMD, 3xNS,                                                                          150                                
PROFAMCHA060501081712081741000029High School Musical Dance Along May 19 @ 7:30 (May                                                                          150                                
PROFAMCHA060501081741081800000019MadMadMornings Block Open                                                                                                   150                                
PGRFAMCHA060501081800084038002238Disney's Lilo & Stitch                            EPS # 38                                                            A6068607E                                
PRCFAMCHA060501084038084043000005Astral ID (FEB05)                                                                                                           150                                
PRCFAMCHA060501084043084056000013PH - 09 -EINSTEINS/WINNIE/PB&J  (:14 - :16) (APR06                                                                          150                                
PROFAMCHA060501084056084126000030Little Einstein (PH) (PRESCHOOL) - Coming Up Next                                                                           150                                
ID FAMCHA060501084126084141000015Franny's Feet Web BBD - Part of Playhouse @ family                                                                          150                                
PROFAMCHA060501084141084211000030Winnie the Pooh (PH/AM) (APR06) - This Mornings @                                                                           150                                
PGRFAMCHA060501084211084341000130They Might Be Giants (ABC's) - Clap Your Hands                                                                         60688120                                
PRCFAMCHA060501084341084411000030Franny's Feet - Concept (APR06)(PH-Mon) - This Mor                                                                          150                                
PRCFAMCHA060501084411084442000031King (PH) (APR06) - This Morning @ 11:25am                                                                                  150                                
ID FAMCHA060501084442084455000013PS Playhouse AM Block Open (:10-:15)                                                                                        150                                
PGRFAMCHA060501084455090900002405Disney's Little Einsteins                         EP: 04                                                               6068607E                                
PRCFAMCHA060501090900090913000013PH - 10 -WINNIE/PB&J/JOJO  (:14 - :16) (APR06)                                                                              150                                
PROFAMCHA060501090913090943000030Winnie the Pooh (PH/AM) (APR06) - Coming Up Next                                                                            150                                
PROFAMCHA060501090943091013000030Little Einsteins Blast (3x PH)                                                                                        A     150                                
PRCFAMCHA060501091013091043000030Franny's Feet - Concept (APR06)(PH-Mon) - This Mor                                                                          150                                
ID FAMCHA060501091043091056000013PS Playhouse AM Block Open (:10-:15)                                                                                        150                                
PRCFAMCHA060501091056091105000009CC Disclaimer - FAST - Family.ca (:08-:10)                                                                                  150                                
PGRFAMCHA060501091105093414002309The New Adventures of Winnie the Pooh             EP: 1-030                                                            6068607ECC                              
PRCFAMCHA060501093414093419000005Astral ID (FEB05)                                                                                                           150                                
PRCFAMCHA060501093419093431000012PH - 11 -PB&J/JOJO/FRANNY  (:14 - :16) (APR06)                                                                              150                                
PRCFAMCHA060501093431093501000030Franny's Feet - Concept (APR06)(PH-Mon) - This Mor                                                                          150                                
PRCFAMCHA060501093501093513000012xxFamily Bumpers - (Phase 1 Spring 04) - Funhouse                                                                           150                                
PROFAMCHA060501093513093619000106Playhouse - WINNIE THE POOH - Christopher Robin                                                                             150                                
PRCFAMCHA060501093619093650000031King (PH) (APR06) - This Morning @ 11:25am                                                                                  150                                
ID FAMCHA060501093650093700000010PS Playhouse AM Block Open (:10-:15)                                                                                        150                                
PRCFAMCHA060501093700093710000010CC Disclaimer - FAST - Generic (:08-:10)                                                                                    150                                
PGRFAMCHA060501093710100040002330PB&J Otter                                        EP: 3-046                                                            6068607ECC                              
PRCFAMCHA060501100040100055000015PH - 10 - JOJO/FRANNY/STANLEY (FEB06) (:14 - 16) M                                                                          150                                
PROFAMCHA060501100055100129000034Jojo's Circus - GIGGLECORN - Coming Up Next                                                                                 150                                
PROFAMCHA060501100129100159000030Little Einsteins Blast (3x PH)                                                                                        A     150                                
PRCFAMCHA060501100159100229000030Franny's Feet - Concept (APR06)(PH-Mon) - This Mor                                                                          150                                
PROFAMCHA060501100229100315000046Playhouse - STANLEY - Squirrel Song                                                                                         150                                
PRCFAMCHA060501100315100346000031King (PH) (APR06) - This Morning @ 11:25am                                                                                  150                                
ID FAMCHA060501100346100400000014PS Playhouse AM Block Open (:10-:15)                                                                                        150                                
PGRFAMCHA060501100400102809002409JoJo's Circus                                     EPS # 06                                                            A6068607E                                
PRCFAMCHA060501102809102814000005Astral ID (FEB05)                                                                                                           150                                
PRCFAMCHA060501102814102828000014PH - 21 -FRANNY/STANLEY/KING (:14 - :16) (APR06)                                                                            150                                
PRCFAMCHA060501102828102859000031King (PH) (APR06) - This Morning @ 11:25am                                                                                  150                                
PROFAMCHA060501102859102938000039Princess Block - Be A Princess (Fashion) PH 1 per                                                                           150                                
PROFAMCHA060501102938103008000030Winnie the Pooh (PH/AM) (APR06) - Tomorrow Morning                                                                          150                                
PRCFAMCHA060501103008103043000035Playhouse - KATIE & ORBIE - Discoveries                                                                                     150                                
ID FAMCHA060501103043103058000015PS Playhouse AM Block Open (:10-:15)                                                                                        150                                
PRCFAMCHA060501103058103107000009CC Disclaimer - FAST - Family.ca (:08-:10)                                                                                  150                                
PGRFAMCHA060501103107105337002230Franny's Feet                                     EPS # 25                                                      C23971 1065607ECC                              
PRCFAMCHA060501105337105349000012PH - 26-STANLEY/KING/RECESS (:14- :16) (APR06)                                                                              150                                
PRCFAMCHA060501105349105419000030Stanley - Get Into It (MAR05) - (PH-M/W/F) - Comin                                                                          150                                
ID FAMCHA060501105419105434000015Franny's Feet Web BBD - Part of Playhouse @ family                                                                          150                                
PRCFAMCHA060501105434105505000031King (PH) (APR06) - This Morning @ 11:25am                                                                                  150                                
PGRFAMCHA060501105505105635000130MV Disney - (PH) - Walk The Llama Llama                                                                                60688120                                
PROFAMCHA060501105635105705000030Little Einstein (PH) (PRESCHOOL) - Tomorrow @ 8:45                                                                          150                                
ID FAMCHA060501105705105715000010PS Playhouse AM Block Open (:10-:15)                                                                                        150                                
PGRFAMCHA060501105715112120002405Stanley                                           EPS # 1-057                                                         A6068607E                                
PRCFAMCHA060501112120112125000005Astral ID (FEB05)                                                                                                           150                                
PRCFAMCHA060501112125112138000013PH - 27-KING/RECESS/KIM (:14 - :16) (APR06)                                                                                 150                                
PRCFAMCHA060501112138112209000031King (PH) (APR06) - Coming Up Next                                                                                          150                                
PROFAMCHA060501112209112239000030Little Einsteins Blast (3x PH)                                                                                        A     150                                
PRCFAMCHA060501112239112254000015Franny's Feet - Bowleriffic (PH-Mon) - (APR06) - T                                                                          150                                
PGRFAMCHA060501112254112414000120They Might Be Giants (ABC's) - Go for G                                                                                60688120                                
PRCFAMCHA060501112414112445000031King (PH) (APR06) - Tomorrow Morning @ 6:05am                                                                               150                                
ID FAMCHA060501112445112500000015PS Playhouse AM Block Open (:10-:15)                                                                                        150                                
PRCFAMCHA060501112500112510000010CC Disclaimer - FAST - Generic (:08-:10)                                                                                    150                                
PGRFAMCHA060501112510114740002230King                                              EPS # 2-017                                                   B75772A1065607ECC                              
PRCFAMCHA060501114740114751000011MD - 01 - RECESS/KIM (APR06) (:11 - :13)                                                                                    150                                
PROFAMCHA060501114751114825000034xxRecess - HEROES (MD/PM) - (APR06) -Coming Up Nex                                                                          150                                
PROFAMCHA060501114825114901000036Weekenders - PIZZA (MD) - (APR06) - This Afternoon                                                                          150                                
PROFAMCHA060501114901114917000016Mad Dash Block Open (:16-:18) APR06                                                                                         150                                
PGRFAMCHA060501114917121152002235Disney's Recess                                   EP: 1-021                                                            6068607E                                
PRCFAMCHA060501121152121157000005Astral ID (FEB05)                                                                                                           150                                
PRCFAMCHA060501121157121208000011MD - 02 - KIM/WEEKENDERS (APR06) (:11 - :13)                                                                                150                                
PROFAMCHA060501121208121244000036Weekenders - PIZZA (MD) - (APR06) - This Afternoon                                                                          150                                
PRCFAMCHA060501121244121254000010xxBullying (2005) (TTP - Stars) - Sara Paxton                                                                               150                                
PRCFAMCHA060501121254121301000007MD Bumper - Ski Race (:07-:09) APR06                                                                                        150                                
PGRFAMCHA060501121301123554002253Disney's Kim Possible                             EPS # 1-061                                                          6068607E                                
PRCFAMCHA060501123554123607000013MD - 03 - WEEKENDERS/LLOYD (APR06) (:11 - :13)                                                                              150                                
PROFAMCHA060501123607123643000036Weekenders - PIZZA (MD) - (APR06) - Coming Up Next                                                                          150                                
PRCFAMCHA060501123643123653000010MD Bumper - Race Cars (:08-:10) APR06 xxDNUxx                                                                               150                                
PRCFAMCHA060501123653123702000009CC Disclaimer - FAST - Family.ca (:08-:10)                                                                                  150                                
PGRFAMCHA060501123702125938002236Disney's The Weekenders                           EP: 1-023                                                           A6068607ECC                              
PRCFAMCHA060501125938125943000005Astral ID (FEB05)                                                                                                           150                                
PRCFAMCHA060501125943125956000013MD - 04 - LLOYD/BRANDY (APR06) (:11 - :13)                                                                                  150                                
PRCFAMCHA060501125956130013000017MD Bumper - Shopping Race (:15-:17) APR06                                                                                   150                                
ID FAMCHA060501130013130021000008Magic of Disney - MAD DASH - Shape (:06-:09)                                                                                150                                
PGRFAMCHA060501130021132315002254Disney's Lloyd In Space                           EP: 21                                                               6068607E                                
PRCFAMCHA060501132315132326000011MD - 05 - BRANDY/LILO (APR06) (:11 - :13)                                                                                   150                                
PROFAMCHA060501132326132356000030Brandy & Mr. Whiskers (Lets Do Lunch (APR06) -Comi                                                                          150                                
PRCFAMCHA060501132356132403000007MD Bumper - Ski Race (:07-:09) APR06                                                                                        150                                
ID FAMCHA060501132403132411000008Magic of Disney - MAD DASH - Shape (:06-:09)                                                                                150                                
PGRFAMCHA060501132411134649002238Disney's Brandy & Mr. Whiskers                    EP: 21                                                               6068607E                                
PRCFAMCHA060501134649134654000005Astral ID (FEB05)                                                                                                           150                                
PRCFAMCHA060501134654134705000011MD - 06 - LILO/FILLMORE! (APR06) (:11 - :13)                                                                                150                                
PROFAMCHA060501134705134722000017Lilo & Stitch (MD) LICK(APR06) - Coming Up Next                                                                             150                                
PRCFAMCHA060501134722134732000010xxBullying (2005) (TTP - Stars) - Ally & A.J.                                                                               150                                
PROFAMCHA060501134732134754000022Fillmore! - POLLY (MD) (APR06) - This Afternoon @                                                                           150                                
PRCFAMCHA060501134754134802000008MD Bumper - Race Cars (:08-:10) APR06 xxDNUxx                                                                               150                                
PGRFAMCHA060501134802141041002239Disney's Lilo & Stitch                            EPS # 22                                                            A6068607E                                
PRCFAMCHA060501141041141052000011MD - 07 - FILLMORE!/PROUD (APR06) (:11 - :13)                                                                               150                                
PROFAMCHA060501141052141114000022Fillmore! - POLLY (MD) (APR06) - coming up next                                                                             150                                
PROFAMCHA060501141114141150000036Weekenders - PIZZA (MD) - (APR06) - This Afternoon                                                                          150                                
PRCFAMCHA060501141150141205000015MD Bumper - Shopping Race (:15-:17) APR06                                                                                   150                                
PGRFAMCHA060501141205143443002238Disney's Fillmore!                                EPS # 1-021                                                         A6068607E                                
PRCFAMCHA060501143443143448000005Astral ID (FEB05)                                                                                                           150                                
PRCFAMCHA060501143448143459000011MD - 08 - PROUD/WEEKENDERS (APR06) (:11 - :13)                                                                              150                                
PROFAMCHA060501143459143533000034Proud Family (APR06) GET BURNED (MD) - Coming Up N                                                                          150                                
PROFAMCHA060501143533143610000037Hoodwinked Blast - In Theatres May 2 (April 28-May                                                                    A     150                                
PRCFAMCHA060501143610143617000007MD Bumper - Ski Race (:07-:09) APR06                                                                                        150                                
PRCFAMCHA060501143617143627000010CC Disclaimer - FAST - Generic (:08-:10)                                                                                    150                                
PGRFAMCHA060501143627145858002231The Proud Family                                  EP: 2-023                                                           A6068607ECC                              
PRCFAMCHA060501145858145909000011MD - 03 - WEEKENDERS/LLOYD (APR06) (:11 - :13)                                                                              150                                
PROFAMCHA060501145909145945000036Weekenders - PIZZA (MD) - (APR06) - Coming Up Next                                                                          150                                
PROFAMCHA060501145945150001000016Mad Dash Block Open (:16-:18) APR06                                                                                         150                                
PRCFAMCHA060501150001150010000009CC Disclaimer - FAST - Family.ca (:08-:10)                                                                                  150                                
PGRFAMCHA060501150010152243002233Disney's The Weekenders                           EP: 1-022                                                           A6068607ECC                              
PRCFAMCHA060501152243152248000005Astral ID (FEB05)                                                                                                           150                                
PRCFAMCHA060501152248152300000012MD - 10 - LLOYD/DAVE (APR06) (:11 - :13)                                                                                    150                                
PROFAMCHA060501152300152337000037xxLloyd In Space (Star Wars) (APR06) - Coming Up N                                                                          150                                
PROFAMCHA060501152337152415000038xxAly and AJ Blast (April 10 - May 8)  3xMD, 3xNS,                                                                          150                                
PROFAMCHA060501152415152448000033xxDave the Barbarian - RACE CAR (MD) - This Aftern                                                                          150                                
PRCFAMCHA060501152448152457000009MD Bumper - Race Cars (:08-:10) APR06 xxDNUxx                                                                               150                                
ID FAMCHA060501152457152505000008Magic of Disney - MAD DASH - Shape (:06-:09)                                                                                150                                
PGRFAMCHA060501152505154800002255Disney's Lloyd In Space                           EP: 15                                                               6068607E                                
PRCFAMCHA060501154800154811000011MD - 11 - DAVE/PROUD (APR06) (:11 - :13)                                                                                    150                                
PROFAMCHA060501154811154829000018xxDave the Barbarian - COOL PANT (MD) - Coming Up                                                                           150                                
PROFAMCHA060501154829154906000037Hoodwinked Blast - In Theatres May 2 (April 28-May                                                                    A     150                                
PROFAMCHA060501154906154940000034Proud Family (APR06) GET BURNED (MD) - This Aftern                                                                          150                                
PRCFAMCHA060501154940154946000006xxFamily Bumpers - (Phase 3 Spring 05) - Bubble Gu                                                                          150                                
PROFAMCHA060501154946155020000034xxRecess - HEROES (MD/PM) - (APR06) - This Atft @                                                                           150                                
PROFAMCHA060501155020155110000050Cheetah Girls Interstitials - Tear Sheet                                                                                    150                                
PROFAMCHA060501155110155146000036Teenage Mutant Ninja Turtles (WDP) - Saturday @ 1:                                                                          150                                
PRCFAMCHA060501155146155201000015MD Bumper - Shopping Race (:15-:17) APR06                                                                                   150                                
PGRFAMCHA060501155201161440002239Disney's Dave the Barbarian                       EPS # 21                                                             6068607E                                
PRCFAMCHA060501161440161445000005Astral ID (FEB05)                                                                                                           150                                
PRCFAMCHA060501161445161457000012MD - 12 - PROUD/RECESS (APR06) (:11 - :13)                                                                                  150                                
PROFAMCHA060501161457161531000034Proud Family (APR06) GET BURNED (MD) - Coming Up N                                                                          150                                
PRCFAMCHA060501161531161605000034SBO Re-Cap (APR06) 3x MD, NS, NSW in NS (apr21 - m                                                                          150                                
PROFAMCHA060501161605161639000034xxRecess - HEROES (MD/PM) - (APR06) - This Atft @                                                                           150                                
PROFAMCHA060501161639161653000014Phil of the Future IDs - Ricky Tomato - watching f                                                                          150                                
PRCFAMCHA060501161653161700000007MD Bumper - Ski Race (:07-:09) APR06                                                                                        150                                
PGRFAMCHA060501161700163933002233The Proud Family                                  EP: 1-007                                                           A6068607E                                
PRCFAMCHA060501163933163945000012MD - 13 - RECESS/KIM (APR06) (:11 - :13)                                                                                    150                                
PROFAMCHA060501163945164014000029High School Musical Dance Along May 19 @ 7:30 (May                                                                          150                                
PROFAMCHA060501164014164048000034xxRecess - HEROES (MD/PM) - (APR06) -Coming Up Nex                                                                          150                                
PROFAMCHA060501164048164148000100Barbie Diaries Contest (Apr24 - May7)                                                                                       150                                
PROFAMCHA060501164148164215000027Lizzie McGuire - (Bad Breath) (MD) (APR06) - This                                                                           150                                
PROFAMCHA060501164215164251000036Weekenders - PIZZA (MMM) - (APR06) - Tomorrow Morn                                                                          150                                
PRCFAMCHA060501164251164300000009MD Bumper - Race Cars (:08-:10) APR06 xxDNUxx                                                                               150                                
PGRFAMCHA060501164300170536002236Disney's Recess                                   EP: 1-054                                                           A6068607E                                
PRCFAMCHA060501170536170541000005Astral ID (FEB05)                                                                                                           150                                
PRCFAMCHA060501170541170552000011MD - 14 - KIM/LIZZIE (APR06) (:11 - :13)                                                                                    150                                
PROFAMCHA060501170552170622000030Lizzie McGuire - (Romeo) (APR06) (MD) - This Aft @                                                                          150                                
PROFAMCHA060501170622170659000037Hoodwinked Blast - In Theatres May 2 (April 28-May                                                                    A     150                                
PROFAMCHA060501170659170735000036Weekenders - PIZZA (MMM) - (APR06) - Tomorrow Morn                                                                          150                                
PROFAMCHA060501170735170752000017xxLilo & Stitch (MMM) (APR06) - Tomorrow Moring @                                                                           150                                
PRCFAMCHA060501170752170807000015MD Bumper - Shopping Race (:15-:17) APR06                                                                                   150                                
PGRFAMCHA060501170807173101002254Disney's Kim Possible                             EPS # 1-032                                                         A6068607E                                
PRCFAMCHA060501173101173112000011MD - 16 - LIZZIE/SO LITTLE (APR06) (:11 - :13)                                                                              150                                
PROFAMCHA060501173112173140000028Lizzie McGuire - (Sick) (APR06) (MD) - Coming UP N                                                                          150                                
PRCFAMCHA060501173140173218000038xxBullying (2005) - Celebrity Pledge (1x, daily UN                                                                          150                                
PROFAMCHA060501173218173313000055So Little Time (NS) (APR06) Watching TV - Tonight                                                                           150                                
PRCFAMCHA060501173313173324000011xxFamily Bumpers - (Phase 2 F/W 04) - Science (MD-                                                                          150                                
PRCFAMCHA060501173324173354000030Darcy's Wild Life (NEWS) NS (APR06) - Tonight @ 6:                                                                          150                                
PRCFAMCHA060501173354173401000007MD Bumper - Ski Race (:07-:09) APR06                                                                                        150                                
ID FAMCHA060501173401173409000008Magic of Disney - MAD DASH - Shape (:06-:09)                                                                                150                                
PGRFAMCHA060501173409175644002235Lizzie McGuire                                    EP: 1-021                                                           A6068607B                                
PRCFAMCHA060501175644175649000005Astral ID (FEB05)                                                                                                           150                                
PRCFAMCHA060501175649175702000013NS - 01 - TIME/DARCY (APR06) (:11 - :13)                                                                                    150                                
PROFAMCHA060501175702175757000055So Little Time (NS) (APR06) Watching TV - Coming U                                                                          150                                
PROFAMCHA060501175757175857000100Barbie Diaries Contest (Apr24 - May7)                                                                                       150                                
PRCFAMCHA060501175857175927000030Darcy's Wild Life (NEWS) NS (APR06) - Tonight @ 6:                                                                          150                                
PROFAMCHA060501175927175936000009Raven ID's II - You're Watching Family, NADM                                                                                150                                
PROFAMCHA060501175936175954000018Nonstop Block Open (:16-:18) APR06                                                                                          150                                
PGRFAMCHA060501175954182130002136So Little Time                                    EP: 25                                                              A2068607B                                
PRCFAMCHA060501182130182143000013NS - 02 - DARCY/RAVEN (APR06) (:11 - :13)                                                                                   150                                
PRCFAMCHA060501182143182213000030Darcy's Wild Life (NEWS) NS (APR06) - Coming Up Ne                                                                          150                                
PROFAMCHA060501182213182251000038xxAly and AJ Blast (April 10 - May 8)  3xMD, 3xNS,                                                                          150                                
PROFAMCHA060501182251182321000030xxThat's So Raven (APR06) LUNCH (NS/M-T) - Tonight                                                                          150                                
PROFAMCHA060501182321182331000010FAMJAM - Open/Close                                                                                                         150                                
PGRFAMCHA060501182331182722000351MV Disney - Come Clean (Hillary Duff)                                                                                  60688120                                
PROFAMCHA060501182722182736000014xxFAMJAM - Close (FAMILY) xxDNUxx                                                                                           150                                
PROFAMCHA060501182736182810000034xxSmart Guy (APR06) (HAPPY DANCE) - (NS) - Tonight                                                                          150                                
PGRFAMCHA060501182810182846000036Planet Rock Profiles - Beyonce (Destiny's Child - EP: 46                                                              A70687120                                
PROFAMCHA060501182846182922000036Teenage Mutant Ninja Turtles (WDP) - Saturday @ 1:                                                                          150                                
PRCFAMCHA060501182922182938000016Darcy's IDs - Sara - Stay tuned...next (with bee)                                                                           150                                
PRCFAMCHA060501182938182955000017NS Bumper - Tennis (:15-:17) APR06                                                                                          150                                
PRCFAMCHA060501182955183005000010CC Disclaimer - FAST - Generic (:08-:10)                                                                                    150                                
PGRFAMCHA060501183005185134002129Darcy's Wild Life                                 EP: 03                                                        A03950 1065607BCC                              
PRCFAMCHA060501185134185139000005Astral ID (FEB05)                                                                                                           150                                
PRCFAMCHA060501185139185150000011NS - 03 - RAVEN/SMART (APR06) (:11 - :13)                                                                                   150                                
PROFAMCHA060501185150185219000029xxThat's So Raven (APR06) HELLO LADIES (NS) - Comi                                                                          150                                
PROFAMCHA060501185219185310000051Cheetah Girls Interstitials - Pink Eye                                                                                      150                                
PROFAMCHA060501185310185344000034xxSmart Guy (APR06) (HAPPY DANCE) - (NS) - Tonight                                                                          150                                
PRCFAMCHA060501185344185351000007xxFamily Bumpers - (Phase 2 F/W 04) - Hockey (MD-L                                                                          150                                
PROFAMCHA060501185351185418000027xx8 Simple Rules (APR06) (NS) - DAD JUMPS GUN - To                                                                          150                                
PRCFAMCHA060501185418185429000011xxBullying (2005) (TTP - Stars) - Charlotte Arnold                                                                          150                                
PROFAMCHA060501185429185459000030Double Teamed (SEPT12) - Next Friday @ 7:30pm                                                                               150                                
PROFAMCHA060501185459185509000010FAMJAM - Open/Close                                                                                                         150                                
PGRFAMCHA060501185509185904000355MV Disney - Come Clean (Hillary Duff)                                                                                  60688120                                
PROFAMCHA060501185904185918000014xxFAMJAM - Close (FAMILY) xxDNUxx                                                                                           150                                
PROFAMCHA060501185918185954000036Teenage Mutant Ninja Turtles (WDP) - Saturday @ 1:                                                                          150                                
PRCFAMCHA060501185954190001000007NS Bumper - Dodgeball (:07-:09) APR06                                                                                       150                                
PGRFAMCHA060501190001192237002236That's So Raven                                   EP: 80                                                               6068607B                                
PRCFAMCHA060501192237192248000011NS - 04 - SMART/8 SIMPLE (APR06) (:11 - :13)                                                                                150                                
PROFAMCHA060501192248192322000034xxSmart Guy (APR06) (HAPPY DANCE) - (NS/NSW) - Com                                                                          150                                
PRCFAMCHA060501192322192351000029Life With Derek Web Promo                                                                                                   150                                
PROFAMCHA060501192351192413000022xx8 Simple Rules (APR06) (NS) - BRIDGET DRUMS - To                                                                          150                                
PROFAMCHA060501192413192443000030Double Teamed (SEPT12) - Next Friday @ 7:30pm                                                                               150                                
PROFAMCHA060501192443192453000010FAMJAM - Open/Close                                                                                                         150                                
PGRFAMCHA060501192453192830000337MV Disney - Superstition (Raven)                                                                                       60688120                                
PROFAMCHA060501192830192844000014xxFAMJAM - Close (FAMILY) xxDNUxx                                                                                           150                                
PROFAMCHA060501192844192915000031xxZoey 101 - Guess What's New (NS/FRI) (APR06) Fri                                                                          150                                
PROFAMCHA060501192915192951000036Teenage Mutant Ninja Turtles (WDP) - Saturday @ 1:                                                                          150                                
PRCFAMCHA060501192951193003000012NS Bumper - Fashion (:12-:14) APR06 xxDUNxx                                                                                 150                                
PRCFAMCHA060501193003193012000009CC Disclaimer - FAST - Family.ca (:08-:10)                                                                                  150                                
PGRFAMCHA060501193012195240002228Smart Guy                                         EP: 1-023                                                           A6068807BCC                              
PRCFAMCHA060501195240195245000005Astral ID (FEB05)                                                                                                           150                                
PRCFAMCHA060501195245195256000011NS - 05 - 8 SIMPLE/BMW (APR06) (:11 - :13)                                                                                  150                                
PROFAMCHA060501195256195323000027xx8 Simple Rules (APR06) (NS) - DAD JUMPS GUN - Co                                                                          150                                
PRCFAMCHA060501195323195340000017xxNaturally Sadie Web BBD - 2x daily NS/NSW                                                                                 150                                
PROFAMCHA060501195340195410000030Double Teamed (SEPT12) - Next Friday @ 7:30pm                                                                               150                                
PGRFAMCHA060501195410195445000035Planet Rock Profiles - Nelly Furtado (Famous PeoplEP: 46                                                              A70687120                                
PROFAMCHA060501195445195515000030xxBrotherly Love (APR06) NEAT (NS) - Tonight @ 9pm                                                                          150                                
PROFAMCHA060501195515195525000010FAMJAM - Open/Close                                                                                                         150                                
PGRFAMCHA060501195525195907000342MV Disney - (MD/NS/NSW) - Teenage Drama Queen (Tha                                                                     60688120                                
PROFAMCHA060501195907195921000014xxFAMJAM - Close (FAMILY) xxDNUxx                                                                                           150                                
PRCFAMCHA060501195921195951000030xxRadio Free Roscoe - (NS/M-T) (APR06) - Tonight @                                                                          150                                
PRCFAMCHA060501195951200006000015NS Bumper - Tennis (:15-:17) APR06                                                                                          150                                
PRCFAMCHA060501200006200016000010CC Disclaimer - FAST - Generic (:08-:10)                                                                                    150                                
PGRFAMCHA0605012000162021510021358 Simple Rules                                    EP: 16                                                              B6068807BCC                              
PRCFAMCHA060501202151202203000012NS - 06 - BMW/BROTHERLY (APR06) (:11 - :13)                                                                                 150                                
PROFAMCHA060501202203202233000030Double Teamed (SEPT12) - Next Friday @ 7:30pm                                                                               150                                
PRCFAMCHA060501202233202307000034SBO Re-Cap (APR06) 3x MD, NS, NSW in NS (apr21 - m                                                                          150                                
PROFAMCHA060501202307202337000030xxBrotherly Love (APR06) NEAT (NS) - Tonight @ 9pm                                                                          150                                
PROFAMCHA060501202337202347000010FAMJAM - Open/Close                                                                                                         150                                
PGRFAMCHA060501202347202724000337MV Disney - Superstition (Raven)                                                                                       60688120                                
PROFAMCHA060501202724202738000014xxFAMJAM - Close (FAMILY) xxDNUxx                                                                                           150                                
PRCFAMCHA060501202738202808000030xxRadio Free Roscoe - (NS/M-T) (APR06) - Tonight @                                                                          150                                
PGRFAMCHA060501202808202917000109Planet Rock Profiles - Craig David (Studio) xxDNUxEP: 46                                                              A70687120                                
PROFAMCHA060501202917202937000020Popular (JULY06) (ALI MCB) - Tonight  @ 10pm                                                                                150                                
PRCFAMCHA060501202937202952000015NS Bumper - Tennis (:15-:17) APR06                                                                                          150                                
PRCFAMCHA060501202952203001000009CC Disclaimer - FAST - Family.ca (:08-:10)                                                                                  150                                
PGRFAMCHA060501203001205137002136Boy Meets World                                   EP: 1-093                                                           B6068807BCC                              
PRCFAMCHA060501205137205142000005Astral ID (FEB05)                                                                                                           150                                
PRCFAMCHA060501205142205155000013NS - 07 - BROTHERLY/RADIO (APR06) (:11 - :13)                                                                               150                                
PROFAMCHA060501205155205225000030xxBrotherly Love (APR06) NEAT (NS) - Coming Up Nex                                                                          150                                
PROFAMCHA060501205225205303000038xxAly and AJ Blast (April 10 - May 8)  3xMD, 3xNS,                                                                          150                                
PRCFAMCHA060501205303205333000030xxRadio Free Roscoe - (NS/M-T) (APR06) - Tonight @                                                                          150                                
PGRFAMCHA060501205333205419000046Planet Rock Profiles - Jewel (Neil Young          EP: 46                                                              A70687120                                
PROFAMCHA060501205419205439000020Popular (JULY06) (ALI MCB) - Tonight  @ 10pm                                                                                150                                
PROFAMCHA060501205439205449000010FAMJAM - Open/Close                                                                                                         150                                
PGRFAMCHA060501205449205836000347MV Disney - (MD/NS/NSW) - Everybody Wants You (Jos                                                                     60688120                                
PROFAMCHA060501205836205850000014xxFAMJAM - Close (FAMILY) xxDNUxx                                                                                           150                                
PROFAMCHA060501205850205917000027xx8 Simple Rules (APR06) (NS) - DAD JUMPS GUN - To                                                                          150                                
PRCFAMCHA060501205917205923000006xxFamily Bumpers - (Phase 2 F/W 04) - Gymnastics (                                                                          150                                
PROFAMCHA060501205923205951000028So Little Time (NS Flat Tire) (APR06) - Tomorrow N                                                                          150                                
PRCFAMCHA060501205951210000000009NS Bumper - Dodgeball (:07-:09) APR06                                                                                       150                                
PGRFAMCHA060501210000212214002214Brotherly Love                                    EPS # 17                                                             6068807B                                
PRCFAMCHA060501212214212225000011NS - 08 - RADIO/POPULAR (APR06) (:11 - :13)                                                                                 150                                
PRCFAMCHA060501212225212255000030xxRadio Free Roscoe - (NS/M-T) (APR06) - Coming Up                                                                          150                                
PRCFAMCHA060501212255212329000034SBO Re-Cap (APR06) 3x MD, NS, NSW in NS (apr21 - m                                                                          150                                
PROFAMCHA060501212329212349000020Popular (JULY06) (ALI MCB) - Tonight  @ 10pm                                                                                150                                
PGRFAMCHA060501212349212421000032Planet Rock Profiles - Ashanti (Hot)              EP: 46                                                              A70687120                                
PROFAMCHA060501212421212443000022xx8 Simple Rules (APR06) (NS) - BRIDGET DRUMS - To                                                                          150                                
PROFAMCHA060501212443212453000010FAMJAM - Open/Close                                                                                                         150                                
PGRFAMCHA060501212453212907000414MV Disney - (NSpost7pm/NSW-PM) - Shine Your Light                                                                      60688120                                
PROFAMCHA060501212907212921000014xxFAMJAM - Close (FAMILY) xxDNUxx                                                                                           150                                
PRCFAMCHA060501212921212951000030Darcy's Wild Life (NEWS) NS (APR06) - Tomorrow @ 6                                                                          150                                
PRCFAMCHA060501212951213003000012NS Bumper - Fashion (:12-:14) APR06 xxDUNxx                                                                                 150                                
PRCFAMCHA060501213003213012000009CC Disclaimer - SLOW - Family.ca (:08-:10)                                                                                  150                                
PGRFAMCHA060501213012215242002230Radio Free Roscoe                                 EPS # 23                                                      B88736A1065607ACC                              
PRCFAMCHA060501215242215247000005Astral ID (FEB05)                                                                                                           150                                
PRCFAMCHA060501215247215259000012NS - 09 - POPULAR/8 SIMPLE (APR06) (:11 - :13)                                                                              150                                
PROFAMCHA060501215259215319000020Popular (JULY06) (ALI MCB) - Coming Up Next                                                                                 150                                
PRCFAMCHA060501215319215336000017xxNaturally Sadie Web BBD - 2x daily NS/NSW                                                                                 150                                
PROFAMCHA060501215336215403000027xx8 Simple Rules (APR06) (NS) - DAD JUMPS GUN - To                                                                          150                                
PROFAMCHA060501215403215413000010FAMJAM - Open/Close                                                                                                         150                                
PGRFAMCHA060501215413215724000311MV Disney - (MD/NS/NSW) - Grazing In The Grass (Ra                                                                     60688120                                
PROFAMCHA060501215724215738000014xxFAMJAM - Close (FAMILY) xxDNUxx                                                                                           150                                
PRCFAMCHA060501215738215808000030xxRadio Free Roscoe - (NS/M-T) (APR06) - Tonight @                                                                          150                                
PGRFAMCHA060501215808215914000106Planet Rock Profiles - Sum 41 (Old Guy)           EP: 46                                                              A70687120                                
PROFAMCHA060501215914215944000030xxThat's So Raven (APR06) LUNCH (NS/M-T) - Tomorro                                                                          150                                
PRCFAMCHA060501215944220000000016NS Bumper - Tennis (:15-:17) APR06                                                                                          150                                
PGRFAMCHA060501220000224415004415Popular                                           EP: 43                                                              B6068807B                                
PRCFAMCHA060501224415224428000013NS - 10 - 8 SIMPLE/RADIO (APR06) (:11 - :13)                                                                                150                                
PROFAMCHA060501224428224457000029High School Musical Dance Along May 19 @ 7:30 (May                                                                          150                                
PROFAMCHA060501224457224519000022xx8 Simple Rules (APR06) (NS) - BRIDGET DRUMS - Co                                                                          150                                
PROFAMCHA060501224519224557000038xxAly and AJ Blast (April 10 - May 8)  3xMD, 3xNS,                                                                          150                                
PRCFAMCHA060501224557224627000030xxRadio Free Roscoe - (NS/M-T) (APR06) - Tonight @                                                                          150                                
PRCFAMCHA060501224627224636000009Family Bumpers - (Phase 1 Spring 04) - Soccer (MD-                                                                          150                                
PROFAMCHA060501224636224710000034xxSmart Guy (APR06) (HAPPY DANCE) - (NS) - Tomorro                                                                          150                                
PROFAMCHA060501224710224720000010FAMJAM - Open/Close                                                                                                         150                                
PGRFAMCHA060501224720225115000355MV Disney - Come Clean (Hillary Duff)                                                                                  60688120                                
PROFAMCHA060501225115225129000014xxFAMJAM - Close (FAMILY) xxDNUxx                                                                                           150                                
PGRFAMCHA060501225129225310000141Planet Rock Profiles - Nelly Furtado (Bird)       EP: 46                                                              A70687120                                
PROFAMCHA060501225310225340000030Double Teamed (SEPT12) - Next Friday @ 7:30pm                                                                               150                                
PROFAMCHA060501225340225350000010FAMJAM - Open/Close                                                                                                         150                                
PGRFAMCHA060501225350225703000313MV Disney - (MD/NS/NSW) - She's No You (FULL) (Jes                                                                     60688120                                
PROFAMCHA060501225703225717000014xxFAMJAM - Close (FAMILY) xxDNUxx                                                                                           150                                
PROFAMCHA060501225717225748000031xxZoey 101 - Guess What's New (NS/FRI) (APR06) Fri                                                                          150                                
PGRFAMCHA060501225748225843000055Planet Rock Profiles - Green Day (Burgers) xxDNUxxEP: 46                                                              A70687120                                
PRCFAMCHA060501225843225913000030Life WD - Housecleaning Weekend Nights @ 7:50 NSW                                                                           150                                
PROFAMCHA060501225913225949000036Teenage Mutant Ninja Turtles (WDP) - Saturday @ 1:                                                                          150                                
PRCFAMCHA060501225949225957000008NS Bumper - Dodgeball (:07-:09) APR06                                                                                       150                                
PRCFAMCHA060501225957230006000009CC Disclaimer - SLOW - Generic (:08-:10)                                                                                    150                                
PGRFAMCHA0605012300062321130021078 Simple Rules                                    EP: 15                                                              B6068807BCC                              
PRCFAMCHA060501232113232118000005Astral ID (FEB05)                                                                                                           150                                
PRCFAMCHA060501232118232131000013NS - 11 - RADIO/MENTORS (APR06) (:11 - :13)                                                                                 150                                
PRCFAMCHA060501232131232201000030xxRadio Free Roscoe - (NS/M-T) (APR06) - Coming Up                                                                          150                                
PRCFAMCHA060501232201232230000029Life With Derek Web Promo                                                                                                   150                                
PROFAMCHA060501232230232252000022xx8 Simple Rules (APR06) (NS) - BRIDGET DRUMS - To                                                                          150                                
PGRFAMCHA060501232252232426000134Planet Rock Profiles - Green Day (Influence) xxDNUEP: 46                                                              A70687120                                
PROFAMCHA060501232426232456000030Double Teamed (SEPT12) - Next Friday @ 7:30pm                                                                               150                                
PROFAMCHA060501232456232506000010FAMJAM - Open/Close                                                                                                         150                                
PGRFAMCHA060501232506232855000349MV Disney - Dancing In The Street (MYRA)                                                                               60688120                                
PROFAMCHA060501232855232909000014xxFAMJAM - Close (FAMILY) xxDNUxx                                                                                           150                                
PROFAMCHA060501232909232939000030xxBrotherly Love (APR06) NEAT (NS) - Tommorow @ 9p                                                                          150                                
PRCFAMCHA060501232939232953000014NS Bumper - Fashion (:12-:14) APR06 xxDUNxx                                                                                 150                                
PRCFAMCHA060501232953233002000009CC Disclaimer - SLOW - Family.ca (:08-:10)                                                                                  150                                
PGRFAMCHA060501233002235232002230Radio Free Roscoe                                 EPS # 40                                                      A05973A1065607ACC                              
PRCFAMCHA060501235232235244000012NS - 12 - MENTORS/SPIDER (APR06) (:11 - :13)                                                                                150                                
PROFAMCHA060501235244235312000028So Little Time (NS Flat Tire) (APR06) - Tomorrow N                                                                          150                                
PRCFAMCHA060501235312235342000030Darcy's Wild Life (NEWS) NS (APR06) - Tomorrow @ 6                                                                          150                                
PGRFAMCHA060501235342235428000046Planet Rock Profiles - Nickelback (Great Band) xxDEP: 46                                                              A70687120                                
PROFAMCHA060501235428235457000029xxThat's So Raven (APR06) HELLO LADIES (NSW) - Tom                                                                          150                                
PROFAMCHA060501235457235507000010FAMJAM - Open/Close                                                                                                         150                                
PGRFAMCHA060501235507235825000318MV Disney - Can't Help Falling In Love (A*Teens)                                                                       60688120                                
PROFAMCHA060501235825235839000014xxFAMJAM - Close (FAMILY) xxDNUxx                                                                                           150                                
PRCFAMCHA060501235839235909000030xxLife WD - Housecleaning Friday Nights @ 6:30 NS                                                                           150                                
PROFAMCHA060501235909235945000036Teenage Mutant Ninja Turtles (WDP) - Saturday @ 1:                                                                          150                                
PRCFAMCHA060501235945000000000015NS Bumper - Tennis (:15-:17) APR06                                                                                          150                                
PRCFAMCHA060501000000000009000009CC Disclaimer - SLOW - Generic (:08-:10)                                                                                    150                                
PGRFAMCHA060501000009002320002311Mentors                                           EP: 3-028                                                     C18998A1065607ACC                              
PRCFAMCHA060501002320002325000005Astral ID (FEB05)                                                                                                           150                                
PRCFAMCHA060501002325002336000011NS - 13 - SPIDER (APR06) (:11 - :13)                                                                                        150                                
PROFAMCHA060501002336002410000034xxSmart Guy (APR06) (HAPPY DANCE) - (NS) - Tomorro                                                                          150                                
PRCFAMCHA060501002410002444000034SBO Re-Cap (APR06) 3x MD, NS, NSW in NS (apr21 - m                                                                          150                                
PROFAMCHA060501002444002511000027xx8 Simple Rules (APR06) (NS) - DAD JUMPS GUN - To                                                                          150                                
PROFAMCHA060501002511002521000010FAMJAM - Open/Close                                                                                                         150                                
PGRFAMCHA060501002521002825000304MV Disney - (MD/NS/NSW) - Why Not (HILARY DUFF)                                                                        60688120                                
PROFAMCHA060501002825002839000014xxFAMJAM - Close (FAMILY) xxDNUxx                                                                                           150                                
PROFAMCHA060501002839002909000030Double Teamed (SEPT12) - Next Friday @ 7:30pm                                                                               150                                
PRCFAMCHA060501002909002923000014xxFamily Bumpers - (Phase 1 Spring 04) - Basketbal                                                                          150                                
PROFAMCHA060501002923002953000030xxBrotherly Love (APR06) NEAT (NS) - Tommorow @ 9p                                                                          150                                
PRCFAMCHA060501002953003000000007NS Bumper - Dodgeball (:07-:09) APR06                                                                                       150                                
PGRFAMCHA060501003000005141002141Spiderman                                         EP: 09                                                        C02618 1065607E                                
PRCFAMCHA060501005141005155000014NS Bumper - Fashion (:12-:14) APR06 xxDUNxx                                                                                 150                                
PRCFAMCHA060501005155005225000030xxRadio Free Roscoe - (NS/M-T) (APR06) - Tomorrow                                                                           150                                
PROFAMCHA060501005225005245000020Popular (JULY06) (ALI MCB) - Tomorrow Night  @ 10p                                                                          150                                
PROFAMCHA060501005245005255000010FAMJAM - Open/Close                                                                                                         150                                
PGRFAMCHA060501005255005623000328MV Disney - (MD/NS/NSW) - First (Lindsay Lohan) (H                                                                     60688120                                
PROFAMCHA060501005623005637000014xxFAMJAM - Close (FAMILY) xxDNUxx                                                                                           150                                
PROFAMCHA060501005637005659000022xx8 Simple Rules (APR06) (NS) - BRIDGET DRUMS - To                                                                          150                                
PROFAMCHA060501005659005747000048xxSuite Life of Zack & Cody NS COMMERCIAL (MAY06)                                                                           150                                
PROFAMCHA060501005747005818000031xxZoey 101 - Guess What's New (NS/FRI) (APR06) Fri                                                                          150                                
PROFAMCHA060501005818005828000010FAMJAM - Open/Close                                                                                                         150                                
PGRFAMCHA060501005828010107000239MV Disney - Come Clean (Hillary Duff)                                                                                  60688120                                
PROFAMCHA060501010107010121000014xxFAMJAM - Close (FAMILY) xxDNUxx                                                                                           150                                
PROFAMCHA060501010121010157000036Teenage Mutant Ninja Turtles (WDP) - Saturday @ 1:                                                                          150                                
PRCFAMCHA060501010157010212000015Astral - LOVE                                                                                                               150                                
SO FAMCHA060501010212010224000012Sign Off                                                                                                                                                       
OFFFAMCHA060501010224043000032736OFF AIR                                                                                                                                                        
SO FAMCHA060502043000043011000011Sign On (oct 1)                                                                                                                                                
PRCFAMCHA060502043011043020000009CC Disclaimer - FAST - Family.ca (:08-:10)                                                                                  150                                
PGRFAMCHA060502043020045658002638Katie And Orbie                                   EP: 5-065                                                     C19665A1065607ECC                              
PRCFAMCHA060502045658045711000013PH - 02 - FRANNY/SOMETHING/HOZE  (:14 - :16) (APR0                                                                          150                                
ID FAMCHA060502045711045724000013PS Playhouse AM Block Open (:10-:15)                                                                                        150                                
PRCFAMCHA060502045724045734000010CC Disclaimer - FAST - Generic (:08-:10)                                                                                    150                                
PGRFAMCHA060502045734052004002230Franny's Feet                                     EPS # 1-002                                                   C23970A1065607ECC                              
PRCFAMCHA060502052004052009000005Astral ID (FEB05)                                                                                                           150                                
PRCFAMCHA060502052009052022000013PH - 03 - SOMETHING/HOZE/KING (:14 - :16) (APR06)                                                                           150                                
ID FAMCHA060502052022052035000013PS Playhouse AM Block Open (:10-:15)                                                                                        150                                
PRCFAMCHA060502052035052044000009CC Disclaimer - FAST - Family.ca (:08-:10)                                                                                  150                                
PGRFAMCHA060502052044054315002231Something Else                                    EP: 1-010                                                     B69264A1065607ECC                              
PRCFAMCHA060502054315054328000013PH - 04 - HOZE/KING/SPIDERMAN (:14 - :16) (APR06)                                                                           150                                
PRCFAMCHA060502054328054338000010CC Disclaimer - FAST - Generic (:08-:10)                                                                                    150                                
PGRFAMCHA060502054338060613002235Hoze Houndz                                       EP: 2-016                                                     B34005A1065607ECC                              
PRCFAMCHA060502060613060618000005Astral ID (FEB05)                                                                                                           150                                
PRCFAMCHA060502060618060631000013PH - 05 - KING/SPIDERMAN/KIM  (:14 - :16) (APR06)                                                                           150                                
ID FAMCHA060502060631060644000013PS Playhouse AM Block Open (:10-:15)                                                                                        150                                
PRCFAMCHA060502060644060653000009CC Disclaimer - FAST - Family.ca (:08-:10)                                                                                  150                                
PGRFAMCHA060502060653062923002230King                                              EP: 4-044                                                     C25350A1065607ECC                              
PRCFAMCHA060502062923062935000012PH - 06 - SPIDERMAN/KIM ( (:14 - :16) (APR06)                                                                               150                                
PROFAMCHA060502062935062941000006Phil of the Future IDs - You're Watching Family...                                                                          150                                
PROFAMCHA060502062941063000000019MadMadMornings Block Open                                                                                                   150                                
PGRFAMCHA060502063000065142002142Spiderman                                         EP: 18                                                        C02618 1065607E                                
PRCFAMCHA060502065142065147000005Astral ID (FEB05)                                                                                                           150                                
PRCFAMCHA060502065147065202000015MMM - 01 (AM) - KIM/RECESS/WEEKENDERS (OCT05) (:14                                                                          150                                
PROFAMCHA060502065202065231000029High School Musical Dance Along May 19 @ 7:30 (May                                                                          150                                
PROFAMCHA060502065231065305000034xxRecess - HEROES (MMM) - (APR06) - This  Morn @ 7                                                                          150                                
PRCFAMCHA060502065305065311000006xxFamily Bumpers - Reptile Pet - Siren (MD/NS/NSW)                                                                          150                                
PROFAMCHA060502065311065347000036Weekenders - PIZZA (MMM) - (APR06) - This Morning                                                                           150                                
PROFAMCHA060502065347065357000010FAMJAM - Open/Close                                                                                                         150                                
PGRFAMCHA060502065357065455000058MV Disney - (FAMILY HITS) That's So Raven Theme So                                                                     60688120                                
PROFAMCHA060502065455065509000014xxFAMJAM - Close (FAMILY) xxDNUxx                                                                                           150                                
PROFAMCHA060502065509065545000036Teenage Mutant Ninja Turtles (WDP) - Saturday @ 1:                                                                          150                                
PROFAMCHA060502065545065604000019MadMadMornings Block Open                                                                                                   150                                
PGRFAMCHA060502065604071855002251Disney's Kim Possible                             EPS # 1-023                                                         A6068607E                                
PRCFAMCHA060502071855071910000015MMM - 02 (AM) - RECESS/WEEKENDERS/LILO (OCT05) (:1                                                                          150                                
PROFAMCHA060502071910071944000034xxRecess - HEROES (MMM) - (APR06) - Coming Up Next                                                                          150                                
PROFAMCHA060502071944072021000037Hoodwinked Blast - Available Now  (May 2-7)                                                                           A     150                                
PROFAMCHA060502072021072057000036Weekenders - PIZZA (MMM) - (APR06) - This Morning                                                                           150                                
PROFAMCHA060502072057072107000010FAMJAM - Open/Close                                                                                                         150                                
PGRFAMCHA060502072107072237000130MV Disney - (MD/NS/NSW) - We're All In This Togeth                                                                     60688120                                
PROFAMCHA060502072237072251000014xxFAMJAM - Close (FAMILY) xxDNUxx                                                                                           150                                
PROFAMCHA060502072251072308000017xxLilo & Stitch (MMM) (APR06) - This Moring @ 8:15                                                                          150                                
PROFAMCHA060502072308072338000030Brandy & Mr. Whiskers (Lets Do Lunch (APR06) -This                                                                          150                                
PROFAMCHA060502072338072357000019MadMadMornings Block Open                                                                                                   150                                
PGRFAMCHA060502072357074647002250Disney's Recess                                   EP: 1-058                                                           A6068607E                                
PRCFAMCHA060502074647074652000005Astral ID (FEB05)                                                                                                           150                                
PRCFAMCHA060502074652074705000013PH - 07 - WEEKENDERS/LILO/EINSTEINS (:14 - :16) (A                                                                          150                                
PROFAMCHA060502074705074741000036Weekenders - PIZZA (MMM) - (APR06) - Coming Up Nex                                                                          150                                
PROFAMCHA060502074741074819000038xxAly and AJ Blast (April 10 - May 8)  3xMD, 3xNS,                                                                          150                                
PROFAMCHA060502074819074826000007MadMadMornings Bumper                                                                                                       150                                
PROFAMCHA060502074826074843000017Lilo & Stitch (MD) LICK (APR06) - This Afternoon @                                                                          150                                
PGRFAMCHA060502074843074928000045Planet Rock Profiles - Ashanti (Record)           EP: 46                                                              A70687120                                
PROFAMCHA060502074928075005000037xxLloyd In Space (Star Wars) (APR06) - Today @ 3:2                                                                          150                                
PROFAMCHA060502075005075041000036Teenage Mutant Ninja Turtles (WDP) - Saturday @ 1:                                                                          150                                
PROFAMCHA060502075041075100000019MadMadMornings Block Open                                                                                                   150                                
PRCFAMCHA060502075100075110000010CC Disclaimer - FAST - Generic (:08-:10)                                                                                    150                                
PGRFAMCHA060502075110081348002238Disney's The Weekenders                           EP: 1-038                                                           A6068607ECC                              
PRCFAMCHA060502081348081401000013PH - 08 - LILO/EINSTEINS/WINNIE (:14 - :16) (APR06                                                                          150                                
PROFAMCHA060502081401081418000017xxLilo & Stitch (MMM) (APR06) - coming Up Next                                                                              150                                
PRCFAMCHA060502081418081452000034SBO Re-Cap (APR06) 3x MD, NS, NSW in NS (apr21 - m                                                                          150                                
PROFAMCHA060502081452081514000022Fillmore! - POLLY (MD) (APR06) - This Afternoon @                                                                           150                                
PROFAMCHA060502081514081524000010FAMJAM - Open/Close                                                                                                         150                                
PGRFAMCHA060502081524081654000130MV Disney - (FAMILY HITS) That's So Raven Theme So                                                                     60688120                                
PROFAMCHA060502081654081708000014xxFAMJAM - Close (FAMILY) xxDNUxx                                                                                           150                                
PROFAMCHA060502081708081741000033xxDave the Barbarian - RACE CAR (MD) - This Aftern                                                                          150                                
PROFAMCHA060502081741081800000019MadMadMornings Block Open                                                                                                   150                                
PGRFAMCHA060502081800084039002239Disney's Lilo & Stitch                            EPS # 39                                                            A6068607E                                
PRCFAMCHA060502084039084044000005Astral ID (FEB05)                                                                                                           150                                
PRCFAMCHA060502084044084057000013PH - 09 -EINSTEINS/WINNIE/PB&J  (:14 - :16) (APR06                                                                          150                                
PROFAMCHA060502084057084127000030Little Einstein (PH) (PRESCHOOL) - Coming Up Next                                                                           150                                
PROFAMCHA060502084127084157000030Little Einsteins Blast (3x PH)                                                                                        A     150                                
PROFAMCHA060502084157084227000030Winnie the Pooh (PH/AM) (APR06) - This Mornings @                                                                           150                                
PRCFAMCHA060502084227084239000012Benjamin Bear - Slide (PH-Tue) (APR06) - This Morn                                                                          150                                
PGRFAMCHA060502084239084424000145They Might Be Giants (ABC's) - D and W                                                                                 60688120                                
PROFAMCHA060502084424084454000030Higglytown - Kids Love - PH Tomorrow morning @ 10:                                                                          150                                
ID FAMCHA060502084454084504000010PS Playhouse AM Block Open (:10-:15)                                                                                        150                                
PGRFAMCHA060502084504090909002405Disney's Little Einsteins                         EP: 05                                                               6068607E                                
PRCFAMCHA060502090909090922000013PH - 10 -WINNIE/PB&J/JOJO  (:14 - :16) (APR06)                                                                              150                                
PROFAMCHA060502090922090952000030Winnie the Pooh (PH/AM) (APR06) - Coming Up Next                                                                            150                                
PRCFAMCHA060502090952091004000012xxFamily Bumpers - (Phase 1 Spring 04) - Funhouse                                                                           150                                
PRCFAMCHA060502091004091024000020Benjamin Bear - Snack (PHTue) (APR06) - This Morn                                                                           150                                
PRCFAMCHA060502091024091054000030Franny's Feet - Concept (APR06)(PH-Mon) - Tomorrow                                                                          150                                
ID FAMCHA060502091054091104000010PS Playhouse AM Block Open (:10-:15)                                                                                        150                                
PRCFAMCHA060502091104091113000009CC Disclaimer - FAST - Family.ca (:08-:10)                                                                                  150                                
PGRFAMCHA060502091113093422002309The New Adventures of Winnie the Pooh             EP: 1-031                                                            6068607ECC                              
PRCFAMCHA060502093422093427000005Astral ID (FEB05)                                                                                                           150                                
PRCFAMCHA060502093427093440000013PH - 12 -PB&J/JOJO/BEN  (:14 - :16) (APR06)                                                                                 150                                
PRCFAMCHA060502093440093452000012Benjamin Bear - Slide (PH-Tue) (APR06) - This Morn                                                                          150                                
