SO FAMCHA070501043000043011000011Sign On (oct 1)                                                                                                                                                
PRCFAMCHA070501043011043020000009CC Disclaimer - FAST - Generic (:08-:10) $$$                                                                                150                                
PGRFAMCHA070501043020045655002635Katie And Orbie                                   EP: 3-030                                                     C12449A1065607ECC                              
PRCFAMCHA070501045655045700000005Astral ID (FEB05) $$$                                                                                                       150                                
PRCFAMCHA070501045700045715000015PH - 04 - FRANNY/SOMETHING/HOZE  (:14 - :16) (APR0                                                                          150                                
ID FAMCHA070501045715045728000013PS Playhouse AM Block Open (:10-:15) $$$                                                                                    150                                
PRCFAMCHA070501045728045737000009CC Disclaimer - FAST - Family.ca (:08-:10) $$$                                                                              150                                
PGRFAMCHA070501045737052007002230Franny's Feet                                     EPS # 28                                                      C23971 1065607ECC                              
PRCFAMCHA070501052007052023000016PH - 05 - SOMETHING/HOZE/KING (:14 - :16) (APR06)                                                                           150                                
ID FAMCHA070501052023052036000013PS Playhouse AM Block Open (:10-:15) $$$                                                                                    150                                
PRCFAMCHA070501052036052045000009CC Disclaimer - FAST - Generic (:08-:10) $$$                                                                                150                                
PGRFAMCHA070501052045054316002231Something Else                                    EP: 1-010                                                     B69264A1065607ECC                              
PRCFAMCHA070501054316054321000005Astral ID (FEB05) $$$                                                                                                       150                                
PRCFAMCHA070501054321054337000016PH - 06 - HOZE/KING/SPIDERMAN (:14 - :16) (APR06)                                                                           150                                
ID FAMCHA070501054337054350000013PS Playhouse AM Block Open (:10-:15) $$$                                                                                    150                                
PRCFAMCHA070501054350054359000009CC Disclaimer - FAST - Family.ca (:08-:10) $$$                                                                              150                                
PGRFAMCHA070501054359060637002238Hoze Houndz                                       EP: 5-053                                                     B63389A1065607ECC                              
PRCFAMCHA070501060637060653000016PH - 07 - KING/SPIDERMAN/KIM  (:14 - :16) (APR06)                                                                           150                                
ID FAMCHA070501060653060706000013PS Playhouse AM Block Open (:10-:15) $$$                                                                                    150                                
PRCFAMCHA070501060706060715000009CC Disclaimer - FAST - Generic (:08-:10) $$$                                                                                150                                
PGRFAMCHA070501060715062945002230King                                              EPS # 032                                                     C25350A1065607ECC                              
PRCFAMCHA070501062945062950000005Astral ID (FEB05) $$$                                                                                                       150                                
PRCFAMCHA070501062950063005000015PH - 08- SPIDERMAN/KIM ( (:14 - :16) (APR06) $$$                                                                            150                                
PROFAMCHA070501063005063024000019MadMadMornings Block Open $$$                                                                                               150                                
PGRFAMCHA070501063024065206002142Spiderman                                         EP: 18                                                        C02618 1065607E                                
PRCFAMCHA070501065206065221000015MMM - 01 (AM) - KIM/RECESS/WEEKENDERS (OCT05) (:14                                                                          150                                
PROFAMCHA070501065221065251000030Life is Ruff (AUG06) Saturday @ 12                                                                                          150                                
PROFAMCHA070501065251065324000033Kim Possible MORE RON (MMM) (MAY 06) Coming up Nex                                                                          150                                
PROFAMCHA070501065324065358000034Recess - HEROES (MMM) - (APR06) - This  Morn @ 7:2                                                                          150                                
PGRFAMCHA070501065358065500000102Planet Rock Profiles - BNL - Starting Out         EP: 46                                                              A70687120                                
PRCFAMCHA070501065500065530000030MMM Coming Up Next (APR06)                                                                                                  150                                
PROFAMCHA070501065530065537000007Aly & A.J. IDs - (A.J.) You're watching Family, NA                                                                          150                                
PROFAMCHA070501065537065556000019MadMadMornings Block Open $$$                                                                                               150                                
PRCFAMCHA070501065556065605000009CC Disclaimer - FAST - Generic (:08-:10) $$$                                                                                150                                
PGRFAMCHA070501065605071858002253Disney's Kim Possible                             EPS # 1-030                                                         A6068607ECC                              
PRCFAMCHA070501071858071903000005Astral ID (FEB05) $$$                                                                                                       150                                
PRCFAMCHA070501071903071917000014MMM - 02 (AM) - RECESS/WEEKENDERS/LILO (OCT05) (:1                                                                          150                                
PROFAMCHA070501071917071942000025Recess - CAREER DAY (MD) - (JULY06) - Coming Up Ne                                                                          150                                
PRCFAMCHA070501071942072018000036xxFamous Players Popcorn Parties REVISED(Nov06) 3/                                                                          150                                
PRCFAMCHA070501072018072024000006xxFamily Bumpers - (Phase 2 F/W 04) - Gymnastics (                                                                          150                                
PROFAMCHA070501072024072034000010FAMJAM - Open/Close                                                                                                         150                                
PGRFAMCHA070501072034072303000229MV Disney - (MD/NS/NSW) - Jonas Bros - Poor Unfort                                                                     60688120                                
PROFAMCHA070501072303072317000014xxFAMJAM - Close (FAMILY) xxDNUxx                                                                                           150                                
PROFAMCHA070501072317072353000036Weekenders - PIZZA (MMM) - (APR06) - This Morning                                                                           150                                
PROFAMCHA070501072353072412000019MadMadMornings Block Open $$$                                                                                               150                                
PGRFAMCHA070501072412074702002250Disney's Recess                                   EP: 1-064                                                           A6068607E                                
PRCFAMCHA070501074702074718000016PH - 09 - WEEKENDERS/LILO/EINSTEINS (:14 - :16) (A                                                                          150                                
PROFAMCHA070501074718074754000036Weekenders - PIZZA (MMM) - (APR06) - Coming Up Nex                                                                          150                                
PROFAMCHA070501074754074839000045xxHappily N'Ever After DVD Contest Available Now (                                                                          150                                
PROFAMCHA070501074839074912000033Lilo & Stitch (MMM) DANCE  - This morn @ 8:15 (JUN                                                                          150                                
PROFAMCHA070501074912074942000030xxKim Possible - EVIL (MD) (MAR07) Today @ 12:10                                                                            150                                
PROFAMCHA070501074942075013000031American Dragon Jake Long (MD) (APR07) HERO This A                                                                          150                                
PROFAMCHA070501075013075038000025Replacements (FEB07) LIGHT SHOW (NSW) - Weekends @                                                                          150                                
PROFAMCHA070501075038075057000019MadMadMornings Block Open $$$                                                                                               150                                
PRCFAMCHA070501075057075106000009CC Disclaimer - FAST - Family.ca (:08-:10) $$$                                                                              150                                
PGRFAMCHA070501075106081356002250Disney's The Weekenders                           EP: 1-010                                                           A6068607ECC                              
PRCFAMCHA070501081356081401000005Astral ID (FEB05) $$$                                                                                                       150                                
PRCFAMCHA070501081401081416000015PH - 10 - LILO/EINSTEINS/WINNIE (:14 - :16) (APR06                                                                          150                                
PROFAMCHA070501081416081451000035Backwards Upside Day Contest (May 1-20 3-4/day MD,                                                                          150                                
PROFAMCHA070501081451081524000033Lilo & Stitch (MMM) DANCE - Coming Up Next (JUNE06                                                                          150                                
PROFAMCHA070501081524081557000033Kim Possible MORE RON MD (MAY 06) This afternoon @                                                                          150                                
PROFAMCHA070501081557081628000031American Dragon Jake Long (MD) (APR07) HERO This A                                                                          150                                
PROFAMCHA070501081628081655000027Emperor's New School  - Zit - This afternoon @ 1:2                                                                          150                                
PROFAMCHA070501081655081717000022Fillmore! - POLLY (MD) (APR06) - This Afternoon @                                                                           150                                
PROFAMCHA070501081717081740000023Dave the Barbarian - SNEEZE (MD) - This afternoon                                                                           150                                
PROFAMCHA070501081740081759000019MadMadMornings Block Open $$$                                                                                               150                                
PGRFAMCHA070501081759084038002239Disney's Lilo & Stitch                            EPS # 37                                                            A6068607E                                
PRCFAMCHA070501084038084054000016PH - 11 -EINSTEINS/WINNIE/BEAR  (:14 - :16) (NOV06                                                                          150                                
PROFAMCHA070501084054084124000030xxLittle Einstein (PH) (PRESCHOOL) - Coming Up Nex                                                                          150                                
PRCFAMCHA070501084124084136000012xxFamily Bumpers - (Phase 1 Spring 04) - Funhouse                                                                           150                                
PGRFAMCHA070501084136084443000307MV Disney - (PH) - Anytime You Need A Friend (The                                                                      60688120                                
ID FAMCHA070501084443084457000014PS Playhouse AM Block Open (:10-:15) $$$                                                                                    150                                
PGRFAMCHA070501084457090902002405Disney's Little Einsteins                         EP: 26                                                               6068607E                                
PRCFAMCHA070501090902090907000005Astral ID (FEB05) $$$                                                                                                       150                                
PRCFAMCHA070501090907090923000016PH - 12 -WINNIE/BEAR/JOJO  (:14 - :16) (NOV06) $$$                                                                          150                                
PROFAMCHA070501090923090953000030Winnie the Pooh (PH/AM) (APR06) - Coming Up Next                                                                            150                                
PRCFAMCHA070501090953091005000012Benjamin Bear - Slide (PH-Tue) (APR06) - This Morn                                                                          150                                
PROFAMCHA070501091005091047000042Higglytown HEROES - (MAR07) - This morning @ 10:55                                                                          150                                
ID FAMCHA070501091047091101000014PS Playhouse AM Block Open (:10-:15) $$$                                                                                    150                                
PRCFAMCHA070501091101091110000009CC Disclaimer - FAST - Generic (:08-:10) $$$                                                                                150                                
PGRFAMCHA070501091110093347002237The New Adventures of Winnie the Pooh             EP: 1-045                                                            6068607ECC                              
PRCFAMCHA070501093347093403000016PH - 13 -BEAR/JOJO/BEN  (:14 - :16) (NOV06) $$$                                                                             150                                
PROFAMCHA070501093403093432000029Bear In The Big Blue House 'BOOK' (PH) Coming Up N                                                                          150                                
PRCFAMCHA070501093432093502000030Benjamin Bear - (PH-Tue) (OCT06) - This morn @ 10:                                                                          150                                
PROFAMCHA070501093502093520000018Jojo's Circus - HIP HOP - OCT 06 - This morn @ 10:                                                                          150                                
PROFAMCHA070501093520093616000056Handy Manny - TOOLS - (MAR07) - Tomorrow morning @                                                                          150                                
PROFAMCHA070501093616093647000031Johnny and the Sprites (CRAZY THINGS) (MD) Thursda                                                                          150                                
ID FAMCHA070501093647093702000015PS Playhouse AM Block Open (:10-:15) $$$                                                                                    150                                
PGRFAMCHA070501093702100107002405Bear In the Big Blue House                        EP: 026                                                              2068607E                                
PRCFAMCHA070501100107100112000005Astral ID (FEB05) $$$                                                                                                       150                                
PRCFAMCHA070501100112100128000016PH - 14 -JOJO/BEN/HIGGLY (:14 - :16) (FEB07) $$$                                                                            150                                
PROFAMCHA070501100128100154000026Jojo's Circus - GIANT - OCT 06 - Coming Up Next                                                                             150                                
PRCFAMCHA070501100154100214000020Benjamin Bear - Snack (PHTue) (APR06) - This Morn                                                                           150                                
PROFAMCHA070501100214100256000042Higglytown HEROES - (MAR07) - This morning @ 10:55                                                                          150                                
PRCFAMCHA070501100256100315000019Playhouse - HOZE HOUNDZ - Code Blue                                                                                         150                                
PRCFAMCHA070501100315100346000031King (PH) (APR06) - This Morning @ 11:25am                                                                                  150                                
ID FAMCHA070501100346100400000014PS Playhouse AM Block Open (:10-:15) $$$                                                                                    150                                
PGRFAMCHA070501100400102802002402JoJo's Circus                                     EPS # 28                                                             6068607E                                
PRCFAMCHA070501102802102817000015PH - 15 -BEN/HIGGLY/KING  (:14 - :16) (FEB07) $$$                                                                           150                                
PRCFAMCHA070501102817102829000012Benjamin Bear - Slide (PH-) (APR06) -Coming Up Nex                                                                          150                                
PROFAMCHA070501102829102925000056Handy Manny - TOOLS - (MAR07) - Tomorrow morning @                                                                          150                                
PROFAMCHA070501102925102956000031Johnny and the Sprites (CRAZY THINGS) (MD) Thursda                                                                          150                                
PROFAMCHA070501102956103056000100Mickey Mouse Clubhouse (Video 2) Friday morn @ 10:                                                                          150                                
ID FAMCHA070501103056103109000013PS Playhouse AM Block Open (:10-:15) $$$                                                                                    150                                
PRCFAMCHA070501103109103118000009CC Disclaimer - FAST - Generic (:08-:10) $$$                                                                                150                                
PGRFAMCHA070501103118105353002235The Secret World Of Benjamin Bear                 EPS # 1-009                                                   B75154A1065607ECC                              
PRCFAMCHA070501105353105358000005Astral ID (FEB05) $$$                                                                                                       150                                
PRCFAMCHA070501105358105413000015PH - 16 -HIGGLY/KING/RECESS (:14- :16) (FEB07) $$$                                                                          150                                
PROFAMCHA070501105413105455000042Higglytown HEROES - (MAR07) - Coming Up Next                                                                                150                                
PRCFAMCHA070501105455105522000027xxPlayhouse Web Promo - Family.ca                                                                                           150                                
PRCFAMCHA070501105522105553000031King (PH) (APR06) - This Morning @ 11:25am                                                                                  150                                
PROFAMCHA070501105553105653000100Mickey Mouse Clubhouse (Video 1) Friday morn @ 10:                                                                          150                                
ID FAMCHA070501105653105706000013PS Playhouse AM Block Open (:10-:15) $$$                                                                                    150                                
ID FAMCHA070501105706105714000008Magic of Disney - MAD DASH - Shape (:06-:09) $$$                                                                            150                                
PGRFAMCHA070501105714112119002405Higglytown Heroes                                 EP: 37                                                               6068607E                                
PRCFAMCHA070501112119112134000015PH - 17 -KING/RECESS/KIM (:14 - :16) (APR06) $$$                                                                            150                                
PRCFAMCHA070501112134112205000031King (PH) (APR06) - Coming Up Next                                                                                          150                                
PGRFAMCHA070501112205112437000232xxMV Disney - (PH) - With A Few Good Friends (CARL                                                                     60688120                                
PRCFAMCHA070501112437112452000015Franny's Feet - Bowleriffic (PH-Mon) - (APR06) - T                                                                          150                                
ID FAMCHA070501112452112505000013PS Playhouse AM Block Open (:10-:15) $$$                                                                                    150                                
PRCFAMCHA070501112505112514000009CC Disclaimer - FAST - Generic (:08-:10) $$$                                                                                150                                
PGRFAMCHA070501112514114744002230King                                              EPS # 037                                                     C25350A1065607ECC                              
PRCFAMCHA070501114744114749000005Astral ID (FEB05) $$$                                                                                                       150                                
PRCFAMCHA070501114749114801000012MD - 01 - RECESS/KIM (APR06) (:11 - :13) $$$                                                                                150                                
PROFAMCHA070501114801114826000025Recess - CAREER DAY (MD) - (JULY06) - Coming Up Ne                                                                          150                                
PROFAMCHA070501114826114844000018Emperor's New School  MD - Butt In Urn - This Afte                                                                          150                                
PROFAMCHA070501114844114901000017Mad Dash Block Open (:16-:18) APR06 $$$                                                                                     150                                
PGRFAMCHA070501114901121136002235Disney's Recess                                   EP: 1-013                                                            6068607E                                
PRCFAMCHA070501121136121148000012MD - 02 - KIM/WEEKENDERS (APR06) (:11 - :13) $$$                                                                            150                                
PROFAMCHA070501121148121218000030xxKim Possible - EVIL (MD) (MAR07) Coming Up Next                                                                           150                                
PROFAMCHA070501121218121252000034Proud Family (JULY06) MOM YELLS (MD) -  This After                                                                          150                                
PRCFAMCHA070501121252121300000008MD Bumper - $$$ Ski Race (:07-:09) APR06                                                                                    150                                
PRCFAMCHA070501121300121309000009CC Disclaimer - FAST - Family.ca (:08-:10) $$$                                                                              150                                
PGRFAMCHA070501121309123558002249Disney's Kim Possible                             EPS # 1-056                                                          6068607ECC                              
PRCFAMCHA070501123558123610000012MD - 03 - WEEKENDERS/AMERICAN DRAGON (JAN07) (:11                                                                           150                                
PROFAMCHA070501123610123646000036Weekenders - PIZZA (MMM) - (APR06) - Coming Up Nex                                                                          150                                
PROFAMCHA070501123646123653000007Aly & A.J. IDs - (ALY) You're Watching Family, NAD                                                                          150                                
PRCFAMCHA070501123653123702000009MD Bumper $$$ - Race Cars (:08-:10) APR06                                                                                   150                                
PRCFAMCHA070501123702123711000009CC Disclaimer - FAST - Generic (:08-:10) $$$                                                                                150                                
PGRFAMCHA070501123711130004002253Disney's The Weekenders                           EP: 1-012                                                           A6068607ECC                              
PRCFAMCHA070501130004130009000005Astral ID (FEB05) $$$                                                                                                       150                                
PRCFAMCHA070501130009130021000012MD - 04 - AMERICAN DRAGON/EMPEROR (JAN07) (:11 - :                                                                          150                                
PRCFAMCHA070501130021130037000016MD Bumper - $$$ Shopping Race (:15-:17) APR06                                                                               150                                
PGRFAMCHA070501130037132316002239Disney's American Dragon:  Jake Long              EP: 21                                                               6028607E                                
PRCFAMCHA070501132316132328000012MD - 05 - EMPEROR/LILO (JAN07) (:11 - :13) $$$                                                                              150                                
PROFAMCHA070501132328132355000027Emperor's New School  - Zit - Coming Up Next (APR0                                                                          150                                
PRCFAMCHA070501132355132403000008MD Bumper - $$$ Ski Race (:07-:09) APR06                                                                                    150                                
PGRFAMCHA070501132403134639002236Disney's The Emperor's New School                 EP: 20                                                               6068807E                                
PRCFAMCHA070501134639134644000005Astral ID (FEB05) $$$                                                                                                       150                                
PRCFAMCHA070501134644134656000012MD - 06 - LILO/FILLMORE! (APR06) (:11 - :13) $$$                                                                            150                                
PROFAMCHA070501134656134729000033Lilo & Stitch (MD) DANCE (JUNE06) - Coming up next                                                                          150                                
PROFAMCHA070501134729134752000023Dave the Barbarian - SNEEZE (MD) - This afternoon                                                                           150                                
PRCFAMCHA070501134752134801000009MD Bumper $$$ - Race Cars (:08-:10) APR06                                                                                   150                                
PRCFAMCHA070501134801134810000009CC Disclaimer - FAST - Generic (:08-:10) $$$                                                                                150                                
PGRFAMCHA070501134810141049002239Disney's Lilo & Stitch                            EPS # 18                                                            A6068607ECC                              
PRCFAMCHA070501141049141101000012MD - 07 - FILLMORE!/PROUD (APR06) (:11 - :13) $$$                                                                           150                                
PROFAMCHA070501141101141123000022Fillmore! - POLLY (MD) (APR06) - coming up next                                                                             150                                
PROFAMCHA070501141123141148000025xxRecess Sketches OCT 06 - THE BIG KICK - Flag Pol                                                                          150                                
PRCFAMCHA070501141148141204000016MD Bumper - $$$ Shopping Race (:15-:17) APR06                                                                               150                                
PGRFAMCHA070501141204143442002238Disney's Fillmore!                                EPS # 1-004                                                         A6068607E                                
PRCFAMCHA070501143442143447000005Astral ID (FEB05) $$$                                                                                                       150                                
PRCFAMCHA070501143447143459000012MD - 08 - PROUD/WEEKENDERS (APR06) (:11 - :13) $$$                                                                          150                                
PROFAMCHA070501143459143533000034Proud Family (APR06) GET BURNED (MD) - Coming Up N                                                                          150                                
PROFAMCHA070501143533143551000018Lloyd In Space (LARRY) (JUNE06) MD- This afternoon                                                                          150                                
PRCFAMCHA070501143551143600000009MD Bumper - $$$ Ski Race (:07-:09) APR06                                                                                    150                                
ID FAMCHA070501143600143608000008Magic of Disney - MAD DASH - Wipe (:06-:09) $$$                                                                             150                                
PRCFAMCHA070501143608143617000009CC Disclaimer - FAST - Family.ca (:08-:10) $$$                                                                              150                                
PGRFAMCHA070501143617145901002244The Proud Family                                  EP: 1-012                                                           A6068607ECC                              
PRCFAMCHA070501145901145913000012MD - 09 - WEEKENDERS/LLOYD (APR06) (:11 - :13) $$$                                                                          150                                
PROFAMCHA070501145913145949000036Weekenders - PIZZA (MD) - (APR06) - Coming Up Next                                                                          150                                
PROFAMCHA070501145949150006000017Mad Dash Block Open (:16-:18) APR06 $$$                                                                                     150                                
PRCFAMCHA070501150006150015000009CC Disclaimer - FAST - Generic (:08-:10) $$$                                                                                150                                
PGRFAMCHA070501150015152248002233Disney's The Weekenders                           EP: 1-022                                                           A6068607ECC                              
PRCFAMCHA070501152248152253000005Astral ID (FEB05) $$$                                                                                                       150                                
PRCFAMCHA070501152253152305000012MD - 10 - LLOYD/DAVE (APR06) (:11 - :13) $$$                                                                                150                                
PROFAMCHA070501152305152342000037Lloyd In Space (Star Wars) (APR06) - Coming Up Nex                                                                          150                                
PROFAMCHA070501152342152427000045xxHappily N'Ever After DVD Contest Available Now (                                                                          150                                
PROFAMCHA070501152427152452000025xxRecess Sketches OCT 06 - THE BIG KICK - Stray                                                                             150                                
PRCFAMCHA070501152452152501000009MD Bumper $$$ - Race Cars (:08-:10) APR06                                                                                   150                                
PGRFAMCHA070501152501154755002254Disney's Lloyd In Space                           EP: 30                                                               6068607E                                
PRCFAMCHA070501154755154807000012MD - 11 - DAVE/PROUD (APR06) (:11 - :13) $$$                                                                                150                                
PROFAMCHA070501154807154825000018Dave the Barbarian - LEARNING (MD) -  Coming Up Ne                                                                          150                                
PRCFAMCHA070501154825154901000036xxFamous Players Popcorn Parties REVISED(Nov06) 3/                                                                          150                                
PRCFAMCHA070501154901154912000011xxFamily Bumpers - (Phase 2 F/W 04) - Science (MD-                                                                          150                                
PROFAMCHA070501154912154945000033Suite Life of Z & C - MD - SCOUT TROOP - This Afte                                                                          150                                
PROFAMCHA070501154945154955000010FAMJAM - Open/Close                                                                                                         150                                
PGRFAMCHA070501154955155054000059MV Disney - (FAMILY HITS) That's So Raven Theme So                                                                     60688120                                
PROFAMCHA070501155054155108000014xxFAMJAM - Close (FAMILY) xxDNUxx                                                                                           150                                
PROFAMCHA070501155108155143000035Backwards Upside Day Contest (May 1-20 3-4/day MD,                                                                          150                                
PRCFAMCHA070501155143155200000017MD Bumper - $$$ Shopping Race (:15-:17) APR06                                                                               150                                
PRCFAMCHA070501155200155209000009CC Disclaimer - FAST - Generic (:08-:10) $$$                                                                                150                                
PGRFAMCHA070501155209161448002239Disney's Dave the Barbarian                       EPS # 21                                                             6068607ECC                              
PRCFAMCHA070501161448161453000005Astral ID (FEB05) $$$                                                                                                       150                                
PRCFAMCHA070501161453161505000012MD - 12 - PROUD/RECESS (APR06) (:11 - :13) $$$                                                                              150                                
PROFAMCHA070501161505161539000034Proud Family (JULY06) MOM YELLS (MD) -  Coming Up                                                                           150                                
PROFAMCHA070501161539161620000041Zoey 101 VIP Fashion Spree Contest (Feb 26-June 3)                                                                          150                                
PROFAMCHA070501161620161650000030Life is Ruff (AUG06) Saturday @ 12                                                                                          150                                
PRCFAMCHA070501161650161658000008MD Bumper - $$$ Ski Race (:07-:09) APR06                                                                                    150                                
ID FAMCHA070501161658161706000008Magic of Disney - MAD DASH - Shape (:06-:09) $$$                                                                            150                                
PRCFAMCHA070501161706161715000009CC Disclaimer - FAST - Family.ca (:08-:10) $$$                                                                              150                                
PGRFAMCHA070501161715163857002142The Proud Family                                  EP: 1-006                                                           A6068607ECC                              
PRCFAMCHA070501163857163909000012MD - 13 - RECESS/KIM (APR06) (:11 - :13) $$$                                                                                150                                
PROFAMCHA070501163909163943000034Recess - HEROES (MD) - (APR06) - Coming Up Next                                                                             150                                
PROFAMCHA070501163943164028000045xxHappily N'Ever After DVD Contest Available Now (                                                                          150                                
PROFAMCHA070501164028164051000023Dave the Barbarian - SNEEZE (MD) -  Tomorrow after                                                                          150                                
PROFAMCHA070501164051164101000010FAMJAM - Open/Close                                                                                                         150                                
PGRFAMCHA070501164101164231000130MV Disney - Huckaroo (Pixel Perfect)                                                                                   60688120                                
PROFAMCHA070501164231164245000014xxFAMJAM - Close (FAMILY) xxDNUxx                                                                                           150                                
PROFAMCHA070501164245164259000014Phil of the Future IDs - Ricky Tomato - watching f                                                                          150                                
PRCFAMCHA070501164259164307000008MD Bumper $$$ - Race Cars (:08-:10) APR06                                                                                   150                                
PGRFAMCHA070501164307170542002235Disney's Recess                                   EP: 1-052                                                            6068607E                                
PRCFAMCHA070501170542170547000005Astral ID (FEB05) $$$                                                                                                       150                                
PRCFAMCHA070501170547170558000011MD - 20 (PM-M-TH) - KIM/SUITE (JULY06) (:11-:13) $                                                                          150                                
PROFAMCHA070501170558170628000030xxKim Possible - EVIL (MD) (MAR07) Coming Up Next                                                                           150                                
PGRFAMCHA070501170628170734000106Planet Rock Profiles - BNL - Humour               EP: 46                                                              A70687120                                
PRCFAMCHA070501170734170745000011Naturally Sadie ID's - I'm Charlotte, you're watch                                                                          150                                
PRCFAMCHA070501170745170800000015MD Bumper - $$$ Shopping Race (:15-:17) APR06                                                                               150                                
PRCFAMCHA070501170800170809000009CC Disclaimer - FAST - Generic (:08-:10) $$$                                                                                150                                
PGRFAMCHA070501170809173102002253Disney's Kim Possible                             EPS # 1-061                                                          6068607ECC                              
PRCFAMCHA070501173102173114000012MD - 21 (PM-M-TH) - SUITE/LITTLE (JULY06) (:11-:13                                                                          150                                
PROFAMCHA070501173114173150000036Suite Life of Z & C - MD - GOLF - Coming Up Next (                                                                          150                                
PROFAMCHA070501173150173222000032Corbin Bleu "Another Side" CD Blast -- Avail Now (                                                                          150                                
PROFAMCHA070501173222173255000033Lilo & Stitch (MMM) DANCE - Tomorrow morn @ 8:15 (                                                                          150                                
PRCFAMCHA070501173255173309000014xxFamily Bumpers - (Phase 1 Spring 04) - Basketbal                                                                          150                                
PROFAMCHA070501173309173327000018Lloyd In Space (LARRY) (JUNE06) MD- Tomorrow after                                                                          150                                
PROFAMCHA070501173327173352000025Replacements (FEB07) LIGHT SHOW (NSW) - Weekends @                                                                          150                                
PRCFAMCHA070501173352173401000009MD Bumper - $$$ Ski Race (:07-:09) APR06                                                                                    150                                
ID FAMCHA070501173401173409000008Magic of Disney - MAD DASH - Shape (:06-:09) $$$                                                                            150                                
PGRFAMCHA070501173409175648002239Suite Life of Zack & Cody, The                    EP: 20                                                               6068607B                                
PRCFAMCHA070501175648175653000005Astral ID (FEB05) $$$                                                                                                       150                                
PRCFAMCHA070501175653175706000013NS - 01 - TIME/DARCY (APR06) (:11 - :13) $$$                                                                                150                                
PROFAMCHA070501175706175801000055So Little Time (NS) (APR06) Watching TV - Coming U                                                                          150                                
PRCFAMCHA070501175801175809000008Darcy's Wild Life (NADM) NS or NSW (AUG06) - Tonig                                                                          150                                
PROFAMCHA070501175809175839000030That's So Raven SCREAM (NS) Tonight @ 7pm (APR07)                                                                           150                                
PRCFAMCHA070501175839175857000018Life WD Derek Bloopers #3 (NS/NSW)                                                                                          150                                
PRCFAMCHA070501175857175928000031Life with Derek NS FAMJAM (NOV06) Tonight @ 8:30                                                                            150                                
PRCFAMCHA070501175928175939000011Naturally Sadie ID's - I'm Charlotte, you're watch                                                                          150                                
PROFAMCHA070501175939175957000018Nonstop Block Open (:16-:18) APR06 $$$                                                                                      150                                
PGRFAMCHA070501175957182130002133So Little Time                                    EP: 24                                                              A2068607B                                
PRCFAMCHA070501182130182143000013NS - 02 - DARCY/RAVEN (APR06) (:11 - :13) $$$                                                                               150                                
PROFAMCHA070501182143182213000030Life is Ruff (AUG06) Saturday @ 12                                                                                          150                                
PRCFAMCHA070501182213182221000008Darcy's Wild Life (NADM) NS or NSW (AUG06) - Comin                                                                          150                                
PRCFAMCHA070501182221182227000006xxFamily Bumpers - (Phase 3 Spring 05) - Bubble Gu                                                                          150                                
PROFAMCHA070501182227182302000035Smart Guy GOOD FRIEND (JULY06) NS - Tonight @ 7:30                                                                          150                                
PROFAMCHA070501182302182336000034Suite Life of Z & C - NS - SCOUT TROOP - Tonight @                                                                          150                                
PRCFAMCHA070501182336182412000036xxFamous Players Popcorn Parties REVISED(Nov06) 3/                                                                          150                                
PROFAMCHA070501182412182449000037Hannah Montana - NS - Achy Breaky (Oct06) Fridays                                                                           150                                
PROFAMCHA070501182449182512000023Neds DSSG - Doggy Munch- NS (JUNE06) Friday nights                                                                          150                                
PROFAMCHA070501182512182522000010FAMJAM - Open/Close                                                                                                         150                                
PGRFAMCHA070501182522182844000322MV Disney - Superstition (Raven)                                                                                       60688120                                
PROFAMCHA070501182844182858000014xxFAMJAM - Close (FAMILY) xxDNUxx                                                                                           150                                
PROFAMCHA070501182858182941000043Cory In The House (NSW) (MAR07) - Weekends @ 9:10a                                                                          150                                
PRCFAMCHA070501182941182958000017NS Bumper $$$- Tennis (:15-:17) APR06                                                                                       150                                
PRCFAMCHA070501182958183007000009CC Disclaimer - FAST - Family.ca (:08-:10) $$$                                                                              150                                
PGRFAMCHA070501183007185137002130Darcy's Wild Life                                 EP: 05                                                        A03952 1065607BCC                              
PRCFAMCHA070501185137185142000005Astral ID (FEB05) $$$                                                                                                       150                                
PRCFAMCHA070501185142185155000013NS - 03 - RAVEN/SMART (APR06) (:11 - :13) $$$                                                                               150                                
PROFAMCHA070501185155185230000035Backwards Upside Day Contest (May 1-20 3-4/day MD,                                                                          150                                
PROFAMCHA070501185230185252000022xxThat's So Raven (BEAR) (NS) Coming Up Next (APR0                                                                          150                                
PROFAMCHA070501185252185324000032Corbin Bleu "Another Side" CD Blast -- Avail Now (                                                                          150                                
PROFAMCHA070501185324185355000031Smart Guy FIGHT (JUNE06) NS - Tonight @ 7:30                                                                                150                                
PROFAMCHA070501185355185431000036Suite Life of Z & C - NS - GOLF - Tonight @ 8:00 (                                                                          150                                
PRCFAMCHA070501185431185459000028Life WD Derek Bloopers Season 2 #5 (NS/NSW)                                                                                 150                                
PRCFAMCHA070501185459185521000022Life with Derek NS Hugaphobia (SEPT06) Tonight at                                                                           150                                
PGRFAMCHA070501185521185651000130xxMS - Pirates 3 (NS, NSW post 6pm) Keira Knightle                                                                    A60288120                                
PROFAMCHA070501185651185721000030Zoey 101 - QUINN (NS) (MAR07) - New Eps - Friday N                                                                          150                                
PGRFAMCHA070501185721185816000055Planet Rock Profiles - BNL - Writing              EP: 46                                                              A70687120                                
PROFAMCHA070501185816185846000030Double Teamed (SEPT12) - Next Friday @ 7:30pm                                                                               150                                
PROFAMCHA070501185846185916000030Phil of the Future THINGS TO COME (NSW) (APR06) -                                                                           150                                
PRCFAMCHA070501185916185949000033xxNaturally Sadie - WOO YOUR BOO (JAN06)- Weekend                                                                           150                                
PRCFAMCHA070501185949185958000009NS Bumper $$$ - Dodgeball (:07-:09) APR06                                                                                   150                                
ID FAMCHA070501185958190006000008Magic of Disney - NS/NSW/PB - Shape (:06-:09) $$$                                                                           150                                
PGRFAMCHA070501190006192246002240That's So Raven                                   EP: 1-003                                                            6068607B                                
PRCFAMCHA070501192246192258000012NS - 04 - SMART/SUITE (FEB07) (:11 - :13) $$$                                                                               150                                
PROFAMCHA070501192258192333000035Smart Guy GOOD FRIEND (JULY06) NS - Coming Up Next                                                                          150                                
PROFAMCHA070501192333192407000034Suite Life of Z & C - NS - SCOUT TROOP - Tonight @                                                                          150                                
PRCFAMCHA070501192407192438000031Life with Derek NS FAMJAM (NOV06) Tonight @ 8:30                                                                            150                                
PROFAMCHA070501192438192448000010FAMJAM - Open/Close                                                                                                         150                                
PGRFAMCHA070501192448192819000331MV Disney - (MD/NS/NSW) - Everlife - Find Yourself                                                                     60688120                                
PROFAMCHA070501192819192833000014xxFAMJAM - Close (FAMILY) xxDNUxx                                                                                           150                                
PROFAMCHA070501192833192850000017Popular (APR06) (PADS) - Tonight @ 10pm                                                                                     150                                
PROFAMCHA070501192850192927000037Hannah Montana - NS - Achy Breaky (Oct06) Fridays                                                                           150                                
PROFAMCHA070501192927192948000021xx8 Simple Rules (MAY06) (NSW) - ELEPHANT - Weeken                                                                          150                                
PRCFAMCHA070501192948193002000014NS Bumper $$$ - Fashion (:12-:14) APR06                                                                                     150                                
ID FAMCHA070501193002193010000008Magic of Disney - NS/NSW/PB - Wipe (:06-:09) $$$                                                                            150                                
PGRFAMCHA070501193010195235002225Smart Guy                                         EP: 1-017                                                           A6068807BCC                              
PRCFAMCHA070501195235195240000005Astral ID (FEB05) $$$                                                                                                       150                                
PRCFAMCHA070501195240195252000012NS - 05 -SUITE/DEREK (FEB07) (:11 - :13) $$$                                                                                150                                
PROFAMCHA070501195252195328000036Suite Life of Z & C - NS - GOLF - Coming Up Next (                                                                          150                                
PROFAMCHA070501195328195409000041Zoey 101 VIP Fashion Spree Contest (Feb 26-June 3)                                                                          150                                
PRCFAMCHA070501195409195415000006xxFamily Bumpers - Reptile Pet - Elephant (MD/NS/N                                                                          150                                
PRCFAMCHA070501195415195434000019Life WD Derek Bloopers Season 2 #2 (NS/NSW)                                                                                 150                                
PRCFAMCHA070501195434195456000022Life with Derek NS Hugaphobia (SEPT06) Tonight at                                                                           150                                
PROFAMCHA070501195456195524000028So Little Time (NS Flat Tire) (APR06) - Tomorrow N                                                                          150                                
PRCFAMCHA070501195524195532000008Darcy's Wild Life (NADM) NS or NSW (AUG06) - Tomor                                                                          150                                
PROFAMCHA070501195532195602000030That's So Raven SCREAM (NS) Tomorrow Night @ 7pm (                                                                          150                                
PROFAMCHA070501195602195622000020Hannah Montana - NS - SITUPS (Oct06) Fridays @ 5:3                                                                          150                                
PGRFAMCHA070501195622195743000121Planet Rock Profiles - Michelle Branch - First GigEP: 46                                                              A70687120                                
PRCFAMCHA070501195743195816000033xxNaturally Sadie - WOO YOUR BOO (JAN06)- Weekend                                                                           150                                
PROFAMCHA070501195816195901000045xxHappily N'Ever After DVD Contest Available Now (                                                                          150                                
PROFAMCHA070501195901195945000044Zoey 101 - PHONE DIARY (NSW) (JUNE06) - Weekend ni                                                                          150                                
PRCFAMCHA070501195945200001000016NS Bumper $$$- Tennis (:15-:17) APR06                                                                                       150                                
ID FAMCHA070501200001200009000008Magic of Disney - NS/NSW/PB - Shape (:06-:09) $$$                                                                           150                                
PGRFAMCHA070501200009202247002238Suite Life of Zack and Cody, The - Season 2       EP: 52                                                               6068607E                                
PRCFAMCHA070501202247202259000012NS - 06 - DEREK/8 SIMPLE RULES (FEB07) (:11-:13) $                                                                          150                                
PROFAMCHA070501202259202329000030Life is Ruff (AUG06) Saturday @ 12                                                                                          150                                
PRCFAMCHA070501202329202400000031Life with Derek NS FAMJAM (NOV06) Next                                                                                      150                                
PROFAMCHA070501202400202430000030Zoey 101 - QUINN (NS) (MAR07) - New Eps - Friday N                                                                          150                                
PROFAMCHA070501202430202450000020Neds DSSG - Drum Roll - NS (JUNE06) Friday nighs @                                                                          150                                
PROFAMCHA070501202450202533000043Cory In The House (NSW) (MAR07) - Weekends @ 9:10a                                                                          150                                
PROFAMCHA070501202533202603000030Double Teamed (SEPT12) - Next Friday @ 7:30pm                                                                               150                                
PROFAMCHA070501202603202613000010FAMJAM - Open/Close                                                                                                         150                                
PGRFAMCHA070501202613202917000304MV Disney - (MD/NS/NSW) - Hilary Duff - Why Not (A                                                                     60688120                                
PROFAMCHA070501202917202931000014xxFAMJAM - Close (FAMILY) xxDNUxx                                                                                           150                                
PRCFAMCHA070501202931202954000023Life with Derek ID - You're Watching - In It Toget                                                                          150                                
PRCFAMCHA070501202954203002000008NS Bumper $$$ - Dodgeball (:07-:09) APR06                                                                                   150                                
PRCFAMCHA070501203002203011000009CC Disclaimer - FAST - Family.ca (:08-:10) $$$                                                                              150                                
PGRFAMCHA070501203011205241002230Life with Derek Season 2                          EP: 19                                                        C26679A1055607BCC3                             
PRCFAMCHA070501205241205246000005Astral ID (FEB05) $$$                                                                                                       150                                
PRCFAMCHA070501205246205257000011NS - 07 -8 SIMPLE RULES/SINBAD (FEB07) (:11-:13) $                                                                          150                                
PROFAMCHA0705012052572053270000308 Simple Rules (JUN06) (NS) TICKET - Coming Up Nex                                                                          150                                
PROFAMCHA070501205327205359000032Corbin Bleu "Another Side" CD Blast -- Avail Now (                                                                          150                                
PROFAMCHA070501205359205416000017Popular (APR06) (PADS) - Tonight @ 10pm                                                                                     150                                
PRCFAMCHA070501205416205432000016Life WD Derek Bloopers #2 (NS/NSW)                                                                                          150                                
PRCFAMCHA070501205432205454000022Life with Derek NS Hugaphobia (SEPT06) Tonight at                                                                           150                                
PROFAMCHA070501205454205504000010FAMJAM - Open/Close                                                                                                         150                                
PGRFAMCHA070501205504205800000256MV NON-DISNEY (MD, NS, NSW) - Holly Dolly - The Do                                                                     70688120                                
PROFAMCHA070501205800205814000014xxFAMJAM - Close (FAMILY) xxDNUxx                                                                                           150                                
PROFAMCHA070501205814205836000022That's So Raven BEAR (NS) Tomorrow Night @ 7pm (AP                                                                          150                                
PROFAMCHA070501205836205910000034Suite Life of Z & C - NS - SCOUT TROOP - Tomorrow                                                                           150                                
PROFAMCHA070501205910205947000037Hannah Montana - NS - Achy Breaky (Oct06) Fridays                                                                           150                                
PRCFAMCHA070501205947205959000012NS Bumper $$$ - Fashion (:12-:14) APR06                                                                                     150                                
PRCFAMCHA070501205959210008000009CC Disclaimer - SLOW - Family.ca (:08-:10) $$$                                                                              150                                
PGRFAMCHA0705012100082121280021208 Simple Rules                                    EP: 74                                                              B2068807BCC                              
PRCFAMCHA070501212128212140000012NS - 08 -SINBAD/POPULAR (FEB07) (:11-:13) $$$                                                                               150                                
PROFAMCHA070501212140212217000037Sinbad Show NS Car (NOV06) Coming Up Next                                                                                   150                                
PROFAMCHA070501212217212234000017Popular (APR06) (PADS) - Tonight @ 10pm                                                                                     150                                
PROFAMCHA070501212234212304000030Zoey 101 - QUINN (NS) (MAR07) - New Eps - Friday N                                                                          150                                
PGRFAMCHA070501212304212434000130xxMS - Pirates 3 (NS, NSW post 6pm) Johnny Depp -                                                                     A60288120                                
PROFAMCHA070501212434212455000021Neds DSSG - RECORDER - NS (AUG06) Friday nights @                                                                           150                                
PROFAMCHA070501212455212525000030Phil of the Future THINGS TO COME (NSW) (APR06) -                                                                           150                                
PROFAMCHA070501212525212535000010FAMJAM - Open/Close                                                                                                         150                                
PGRFAMCHA070501212535212848000313MV Disney - (MD/NS/NSW) - Jesse McCartney - She's                                                                      60688120                                
PROFAMCHA070501212848212902000014xxFAMJAM - Close (FAMILY) xxDNUxx                                                                                           150                                
PRCFAMCHA070501212902212935000033xxNaturally Sadie - WOO YOUR BOO (JAN06)- Weekend                                                                           150                                
PRCFAMCHA070501212935212943000008Darcy's Wild Life (NADM) NSW (AUG06) - Weekends @                                                                           150                                
PRCFAMCHA070501212943213000000017NS Bumper $$$- Tennis (:15-:17) APR06                                                                                       150                                
PGRFAMCHA070501213000215221002221The Sinbad Show                                   EP: 16                                                               2068507B                                
PRCFAMCHA070501215221215226000005Astral ID (FEB05) $$$                                                                                                       150                                
PRCFAMCHA070501215226215238000012NS - 09 - POPULAR/8 SIMPLE (APR06) (:11 - :13) $$$                                                                          150                                
PROFAMCHA070501215238215255000017Popular (APR06) (PADS) - Coming Up Next                                                                                     150                                
PROFAMCHA0705012152552153250000308 Simple Rules (JUN06) (NS) TICKET - Tonight @ 11                                                                           150                                
PROFAMCHA070501215325215335000010FAMJAM - Open/Close                                                                                                         150                                
PGRFAMCHA070501215335215724000349xxMV Disney - (NS/NSWpost 7:30pm) - Ingram Hill -                                                                      60688120                                
PROFAMCHA070501215724215738000014xxFAMJAM - Close (FAMILY) xxDNUxx                                                                                           150                                
PRCFAMCHA070501215738215756000018Life WD Derek Bloopers Season 2 #1 (NS/NSW)                                                                                 150                                
PRCFAMCHA070501215756215831000035Life WD - TV Remote - Weekend Nights @ 7:50 NSW                                                                             150                                
PGRFAMCHA070501215831215941000110Planet Rock Profiles - BNL - Bootlegging          EP: 46                                                              A70687120                                
PROFAMCHA070501215941215954000013Bonnie - Life With NSW - Weekends @ 8:40 (Sept 06)                                                                          150                                
PRCFAMCHA070501215954220003000009NS Bumper $$$ - Dodgeball (:07-:09) APR06                                                                                   150                                
PGRFAMCHA070501220003224447004444Popular                                           EP: 36                                                              B2068807B                                
PRCFAMCHA070501224447224459000012NS - 10 - 8 SIMPLE/DEREK (SEPT06) (:11 - :13) $$$                                                                           150                                
PROFAMCHA070501224459224529000030Life is Ruff (AUG06) Saturday @ 12                                                                                          150                                
PROFAMCHA070501224529224550000021xx8 Simple Rules (MAY06) (NS) - ELEPHANT - Coming                                                                           150                                
PRCFAMCHA070501224550224621000031Life with Derek NS FAMJAM (NOV06) Tonight @ 11:30                                                                           150                                
PGRFAMCHA070501224621224751000130xxMS - Pirates 3 (NS, NSW post 6pm) Keira Knightle                                                                    A60688120                                
PROFAMCHA070501224751224811000020Hannah Montana - NS - SITUPS (Oct06) Fridays @ 5:3                                                                          150                                
PROFAMCHA070501224811224841000030Zoey 101 - QUINN (NS) (MAR07) - New Eps - Friday N                                                                          150                                
PROFAMCHA070501224841224851000010FAMJAM - Open/Close                                                                                                         150                                
PGRFAMCHA070501224851225228000337MV Disney - (MD/NS/NSW) - Hilary Duff - Wake Up (A                                                                     60688120                                
PROFAMCHA070501225228225242000014xxFAMJAM - Close (FAMILY) xxDNUxx                                                                                           150                                
PRCFAMCHA070501225242225312000030Life WD - Housecleaning Friday Nights @ 6:30 NS                                                                             150                                
PROFAMCHA070501225312225335000023Neds DSSG - Doggy Munch- NS (JUNE06) Friday nights                                                                          150                                
PROFAMCHA070501225335225418000043Cory In The House (NSW) (MAR07) - Weekends @ 9:10a                                                                          150                                
PROFAMCHA070501225418225440000022That's So Raven (BEAR) (NSW) Weekend Mornings @ 9:                                                                          150                                
PROFAMCHA070501225440225510000030Double Teamed (SEPT12) - Next Friday @ 7:30pm                                                                               150                                
PROFAMCHA070501225510225520000010FAMJAM - Open/Close                                                                                                         150                                
PGRFAMCHA070501225520225857000337MV Disney - Superstition (Raven)                                                                                       60688120                                
PROFAMCHA070501225857225911000014xxFAMJAM - Close (FAMILY) xxDNUxx                                                                                           150                                
PROFAMCHA070501225911225948000037Sinbad Show NSW Car (NOV06) Weekend morn @ 11:35                                                                            150                                
PRCFAMCHA070501225948230001000013NS Bumper $$$ - Fashion (:12-:14) APR06                                                                                     150                                
PRCFAMCHA070501230001230010000009CC Disclaimer - SLOW - Generic (:08-:10) $$$                                                                                150                                
PGRFAMCHA0705012300102321470021378 Simple Rules                                    EP: 05                                                              B2068807BCC                              
PRCFAMCHA070501232147232152000005Astral ID (FEB05) $$$                                                                                                       150                                
PRCFAMCHA070501232152232204000012NS - 11 - DEREK/RADIO (SEPT06) (:11 - :13) $$$                                                                              150                                
PRCFAMCHA070501232204232226000022Life with Derek NS Hugaphobia (SEPT06) Coming Up N                                                                          150                                
PROFAMCHA070501232226232254000028So Little Time (NS Flat Tire) (APR06) - Tomorrow N                                                                          150                                
PROFAMCHA070501232254232304000010FAMJAM - Open/Close                                                                                                         150                                
PGRFAMCHA070501232304232449000145MV Disney - Superstition (Raven)                                                                                       60688120                                
PROFAMCHA070501232449232503000014xxFAMJAM - Close (FAMILY) xxDNUxx                                                                                           150                                
PROFAMCHA070501232503232533000030That's So Raven SCREAM (NS) Tomorrow Night @ 7pm (                                                                          150                                
PROFAMCHA070501232533232608000035Smart Guy GOOD FRIEND (JULY06) NS - Tomorrow @ 7:3                                                                          150                                
PROFAMCHA070501232608232618000010FAMJAM - Open/Close                                                                                                         150                                
PGRFAMCHA070501232618232857000239MV Disney - Come Clean (Hillary Duff)                                                                                  60688120                                
PROFAMCHA070501232857232911000014xxFAMJAM - Close (FAMILY) xxDNUxx                                                                                           150                                
PROFAMCHA070501232911232947000036Suite Life of Z & C - NS - GOLF - Tomorrow Night @                                                                          150                                
PRCFAMCHA070501232947233003000016NS Bumper $$$- Tennis (:15-:17) APR06                                                                                       150                                
PRCFAMCHA070501233003233012000009CC Disclaimer - SLOW - Family.ca (:08-:10) $$$                                                                              150                                
PGRFAMCHA070501233012235242002230Life with Derek Season 2                          EP: 22                                                        C26679A1065607BCC                              
PRCFAMCHA070501235242235254000012NS - 12 - RADIO/SPIDER (SEPT06) (:11 - :13) $$$                                                                             150                                
PRCFAMCHA070501235254235324000030Radio Free Roscoe - (NS/M-Th) (JUNE06) Coming up                                                                            150                                
PROFAMCHA070501235324235341000017Popular (APR06) (PADS) - Tomorrow Night @ 10pm                                                                              150                                
PROFAMCHA0705012353412354110000308 Simple Rules (JUN06) (NS) TICKET - Tomorrow nigh                                                                          150                                
PROFAMCHA070501235411235421000010FAMJAM - Open/Close                                                                                                         150                                
PGRFAMCHA070501235421235803000342MV Disney - (MD/NS/NSW) - Rob Thomas - Little Wond                                                                     60688120                                
PROFAMCHA070501235803235817000014xxFAMJAM - Close (FAMILY) xxDNUxx                                                                                           150                                
PROFAMCHA070501235817235854000037Hannah Montana - NS - Achy Breaky (Oct06) Fridays                                                                           150                                
PROFAMCHA070501235854235924000030Zoey 101 - QUINN (NS) (MAR07) - New Eps - Friday N                                                                          150                                
PROFAMCHA070501235924235945000021Neds DSSG - RECORDER - NS (AUG06) Friday nights @                                                                           150                                
PRCFAMCHA070501235945235954000009Radio Free Roscoe ID (MAR04) - You're Watching Fam                                                                          150                                
PRCFAMCHA070501235954000001000007NS Bumper $$$ - Dodgeball (:07-:09) APR06                                                                                   150                                
PRCFAMCHA070501000001000010000009CC Disclaimer - SLOW - Generic (:08-:10) $$$                                                                                150                                
PGRFAMCHA070501000010002241002231Radio Free Roscoe                                 EPS # 41                                                      A05974A1065607ACC                              
PRCFAMCHA070501002241002246000005Astral ID (FEB05) $$$                                                                                                       150                                
PRCFAMCHA070501002246002257000011NS - 13 - SPIDER (APR06) (:11 - :13) $$$                                                                                    150                                
PROFAMCHA070501002257002325000028So Little Time (NS Flat Tire) (APR06) - Tomorrow N                                                                          150                                
PGRFAMCHA070501002325002455000130xxMS - Pirates 3 (NS, NSW post 6pm) Johnny Depp -                                                                     A60688120                                
PROFAMCHA070501002455002529000034Suite Life of Z & C - NS - SCOUT TROOP - Tomorrow                                                                           150                                
PROFAMCHA070501002529002539000010FAMJAM - Open/Close                                                                                                         150                                
PGRFAMCHA070501002539002920000341MV Disney - (MD/NS/NSW) - Hannah Montana - Pump Up                                                                     60688120                                
PROFAMCHA070501002920002934000014xxFAMJAM - Close (FAMILY) xxDNUxx                                                                                           150                                
PROFAMCHA070501002934002955000021xx8 Simple Rules (MAY06) (NS) - ELEPHANT - Tomorro                                                                          150                                
PRCFAMCHA070501002955003007000012NS Bumper $$$ - Fashion (:12-:14) APR06                                                                                     150                                
PGRFAMCHA070501003007005148002141Spiderman                                         EP: 07                                                        C02618 1065607E                                
PROFAMCHA070501005148005218000030Life is Ruff (AUG06) Saturday @ 12                                                                                          150                                
PROFAMCHA070501005218005240000022That's So Raven BEAR (NS) Tomorrow Night @ 7pm (AP                                                                          150                                
PROFAMCHA070501005240005250000010FAMJAM - Open/Close                                                                                                         150                                
PGRFAMCHA070501005250005546000256MV Disney - (MD/NS/NSW) - Aly & A.J. - No One (Jul                                                                     60688120                                
PROFAMCHA070501005546005600000014xxFAMJAM - Close (FAMILY) xxDNUxx                                                                                           150                                
PROFAMCHA070501005600005620000020Hannah Montana - NS - SITUPS (Oct06) Fridays @ 5:3                                                                          150                                
PROFAMCHA070501005620005650000030Zoey 101 - QUINN (NS) (MAR07) - New Eps - Friday N                                                                          150                                
PROFAMCHA070501005650005733000043Cory In The House (NSW) (MAR07) - Weekends @ 9:10a                                                                          150                                
PROFAMCHA070501005733005803000030Double Teamed (SEPT12) - Next Friday @ 7:30pm                                                                               150                                
PROFAMCHA070501005803005813000010FAMJAM - Open/Close                                                                                                         150                                
PGRFAMCHA070501005813010137000324MV Disney - (MD/NS/NSW) - Ashley Tisdale - Kiss Th                                                                     60688120                                
PROFAMCHA070501010137010151000014xxFAMJAM - Close (FAMILY) xxDNUxx                                                                                           150                                
PROFAMCHA070501010151010221000030Phil of the Future THINGS TO COME (NSW) (APR06) -                                                                           150                                
PRCFAMCHA070501010221010254000033xxNaturally Sadie - WOO YOUR BOO (JAN06)- Weekend                                                                           150                                
PRCFAMCHA070501010254010310000016NS Bumper $$$- Tennis (:15-:17) APR06                                                                                       150                                
SO FAMCHA070501010310010322000012Sign Off                                                                                                                                                       
OFFFAMCHA070501010322043000032638OFF AIR                                                                                                                                                        
SO FAMCHA070502043000043011000011Sign On (oct 1)                                                                                                                                                
PRCFAMCHA070502043011043020000009CC Disclaimer - FAST - Generic (:08-:10) $$$                                                                                150                                
PGRFAMCHA070502043020045655002635Katie And Orbie                                   EP: 3-031                                                     C12449A1065607ECC                              
PRCFAMCHA070502045655045710000015PH - 04 - FRANNY/SOMETHING/HOZE  (:14 - :16) (APR0                                                                          150                                
ID FAMCHA070502045710045723000013PS Playhouse AM Block Open (:10-:15) $$$                                                                                    150                                
PRCFAMCHA070502045723045732000009CC Disclaimer - FAST - Family.ca (:08-:10) $$$                                                                              150                                
PGRFAMCHA070502045732052003002231Franny's Feet                                     EPS # 29                                                      C23971 1065607ECC                              
PRCFAMCHA070502052003052008000005Astral ID (FEB05) $$$                                                                                                       150                                
PRCFAMCHA070502052008052024000016PH - 05 - SOMETHING/HOZE/KING (:14 - :16) (APR06)                                                                           150                                
ID FAMCHA070502052024052037000013PS Playhouse AM Block Open (:10-:15) $$$                                                                                    150                                
PRCFAMCHA070502052037052046000009CC Disclaimer - FAST - Generic (:08-:10) $$$                                                                                150                                
PGRFAMCHA070502052046054317002231Something Else                                    EP: 1-011                                                     B69265A1065607ECC                              
PRCFAMCHA070502054317054333000016PH - 06 - HOZE/KING/SPIDERMAN (:14 - :16) (APR06)                                                                           150                                
ID FAMCHA070502054333054346000013PS Playhouse AM Block Open (:10-:15) $$$                                                                                    150                                
PRCFAMCHA070502054346054355000009CC Disclaimer - FAST - Family.ca (:08-:10) $$$                                                                              150                                
PGRFAMCHA070502054355060633002238Hoze Houndz                                       EP: 5-054                                                     B63390A1065607ECC                              
PRCFAMCHA070502060633060638000005Astral ID (FEB05) $$$                                                                                                       150                                
PRCFAMCHA070502060638060654000016PH - 08- SPIDERMAN/KIM ( (:14 - :16) (APR06) $$$                                                                            150                                
ID FAMCHA070502060654060707000013PS Playhouse AM Block Open (:10-:15) $$$                                                                                    150                                
PRCFAMCHA070502060707060716000009CC Disclaimer - FAST - Generic (:08-:10) $$$                                                                                150                                
PGRFAMCHA070502060716062946002230King                                              EPS # 033                                                     C25350A1065607ECC                              
PRCFAMCHA070502062946063001000015PH - 08- SPIDERMAN/KIM ( (:14 - :16) (APR06) $$$                                                                            150                                
PROFAMCHA070502063001063020000019MadMadMornings Block Open $$$                                                                                               150                                
PGRFAMCHA070502063020065203002143Spiderman                                         EP: 19                                                        C02618 1065607E                                
PRCFAMCHA070502065203065208000005Astral ID (FEB05) $$$                                                                                                       150                                
PRCFAMCHA070502065208065223000015MMM - 01 (AM) - KIM/RECESS/WEEKENDERS (OCT05) (:14                                                                          150                                
PROFAMCHA070502065223065258000035Backwards Upside Day Contest (May 1-20 3-4/day MD,                                                                          150                                
PROFAMCHA070502065258065331000033Kim Possible MORE RON (MMM) (MAY 06) Coming up Nex                                                                          150                                
PROFAMCHA070502065331065338000007MadMadMornings Bumper                                                                                                       150                                
PROFAMCHA070502065338065411000033Lilo & Stitch (MMM) DANCE  - This morn @ 8:15 (JUN                                                                          150                                
PROFAMCHA070502065411065421000010FAMJAM - Open/Close                                                                                                         150                                
PGRFAMCHA070502065421065519000058MV Disney - (FAMILY HITS) That's So Raven Theme So                                                                     60688120                                
PROFAMCHA070502065519065533000014xxFAMJAM - Close (FAMILY) xxDNUxx                                                                                           150                                
PROFAMCHA070502065533065551000018Dave the Barbarian - LEARNING (MD) -  This afterno                                                                          150                                
PROFAMCHA070502065551065610000019MadMadMornings Block Open $$$                                                                                               150                                
PRCFAMCHA070502065610065619000009CC Disclaimer - FAST - Generic (:08-:10) $$$                                                                                150                                
PGRFAMCHA070502065619071912002253Disney's Kim Possible                             EPS # 1-031                                                         A6068607ECC                              
PRCFAMCHA070502071912071927000015MMM - 02 (AM) - RECESS/WEEKENDERS/LILO (OCT05) (:1                                                                          150                                
PROFAMCHA070502071927072001000034Recess - HEROES (MMM) - (APR06) - Coming Up Next                                                                            150                                
PROFAMCHA070502072001072046000045xxHappily N'Ever After DVD Contest Available Now (                                                                          150                                
PROFAMCHA070502072046072104000018Emperor's New School  MD - Butt In Urn - This Afte                                                                          150                                
PROFAMCHA070502072104072114000010FAMJAM - Open/Close                                                                                                         150                                
PGRFAMCHA070502072114072244000130MV Disney - Girl Power (Cheetah Girls)                                                                                 60688120                                
PROFAMCHA070502072244072258000014xxFAMJAM - Close (FAMILY) xxDNUxx                                                                                           150                                
PROFAMCHA070502072258072328000030Life is Ruff (AUG06) Saturday @ 12                                                                                          150                                
PROFAMCHA070502072328072347000019MadMadMornings Block Open $$$                                                                                               150                                
PGRFAMCHA070502072347074622002235Disney's Recess                                   EP: 1-065                                                           A6068607E                                
PRCFAMCHA070502074622074627000005Astral ID (FEB05) $$$                                                                                                       150                                
PRCFAMCHA070502074627074643000016PH - 09 - WEEKENDERS/LILO/EINSTEINS (:14 - :16) (A                                                                          150                                
PROFAMCHA070502074643074719000036Weekenders - PIZZA (MMM) - (APR06) - Coming Up Nex                                                                          150                                
PROFAMCHA070502074719074818000059xxShrek The Third - ME Contest - In Theatres May 1                                                                          150                                
PROFAMCHA070502074818074849000031American Dragon Jake Long (MD) (APR07) HERO This A                                                                          150                                
PRCFAMCHA070502074849074855000006xxFamily Bumpers - Reptile Pet - Rooster (MD/NS/NS                                                                          150                                
PROFAMCHA070502074855074913000018Dave the Barbarian - LEARNING (MD) -  This afterno                                                                          150                                
PROFAMCHA070502074913074938000025xxRecess Sketches OCT 06 - THE BIG KICK - Kickball                                                                          150                                
PROFAMCHA070502074938075018000040Holly Dolly CD Blast -- Avail Now (May 2-29) $$$                                                                            150                                
PROFAMCHA070502075018075041000023Replacements (FEB07) JAPAN (NSW) - Weekends @ 4:45                                                                          150                                
PROFAMCHA070502075041075100000019MadMadMornings Block Open $$$                                                                                               150                                
PRCFAMCHA070502075100075109000009CC Disclaimer - FAST - Family.ca (:08-:10) $$$                                                                              150                                
PGRFAMCHA070502075109081403002254Disney's The Weekenders                           EP: 1-011                                                           A6068607ECC                              
PRCFAMCHA070502081403081418000015PH - 10 - LILO/EINSTEINS/WINNIE (:14 - :16) (APR06                                                                          150                                
PROFAMCHA070502081418081448000030Life is Ruff (AUG06) Saturday @ 12                                                                                          150                                
PROFAMCHA070502081448081521000033Lilo & Stitch (MMM) DANCE - Coming Up Next (JUNE06                                                                          150                                
PRCFAMCHA070502081521081551000030Famous Players Popcorn Parties 2 (May 2-Sept 30/07                                                                          150                                
PROFAMCHA070502081551081616000025Recess - CAREER DAY (MD) - (JULY06) - This morn @                                                                           150                                
PROFAMCHA070502081616081647000031American Dragon Jake Long (MD) (APR07) HERO This A                                                                          150                                
PROFAMCHA070502081647081709000022Fillmore! - POLLY (MD) (APR06) - This Afternoon @                                                                           150                                
PROFAMCHA070502081709081742000033Suite Life of Z & C - MD - SCOUT TROOP - This Afte                                                                          150                                
PROFAMCHA070502081742081801000019MadMadMornings Block Open $$$                                                                                               150                                
PGRFAMCHA070502081801084039002238Disney's Lilo & Stitch                            EPS # 38                                                            A6068607E                                
PRCFAMCHA070502084039084044000005Astral ID (FEB05) $$$                                                                                                       150                                
PRCFAMCHA070502084044084100000016PH - 11 -EINSTEINS/WINNIE/BEAR  (:14 - :16) (NOV06                                                                          150                                
PROFAMCHA070502084100084130000030xxLittle Einstein (PH) (PRESCHOOL) - Coming Up Nex                                                                          150                                
PGRFAMCHA070502084130084315000145They Might Be Giants (ABC's) - D and W                                                                                 60688120                                
