SO FAMCHA061201043000043011000011Sign On (oct 1)                                                                                                                                                
PGRFAMCHA061201043011045647002636Katie And Orbie                                   EP: 1-001                                                     P16140A1065607E                                
PRCFAMCHA061201045647045702000015PH - 04 - FRANNY/SOMETHING/HOZE  (:14 - :16) (APR0                                                                          150                                
ID FAMCHA061201045702045715000013PS Playhouse AM Block Open (:10-:15) $$$                                                                                    150                                
PRCFAMCHA061201045715045724000009CC Disclaimer - FAST - Generic (:08-:10) $$$                                                                                150                                
PGRFAMCHA061201045724051954002230Franny's Feet                                     EPS # 36                                                      C23971 1065607ECC                              
PRCFAMCHA061201051954051959000005Astral ID (FEB05) $$$                                                                                                       150                                
PRCFAMCHA061201051959052015000016PH - 05 - SOMETHING/HOZE/KING (:14 - :16) (APR06)                                                                           150                                
ID FAMCHA061201052015052028000013PS Playhouse AM Block Open (:10-:15) $$$                                                                                    150                                
PRCFAMCHA061201052028052037000009CC Disclaimer - FAST - Family.ca (:08-:10) $$$                                                                              150                                
PGRFAMCHA061201052037054310002233Something Else                                    EP: 1-007                                                     B69261A1065607ECC                              
PRCFAMCHA061201054310054326000016PH - 06 - HOZE/KING/SPIDERMAN (:14 - :16) (APR06)                                                                           150                                
ID FAMCHA061201054326054339000013PS Playhouse AM Block Open (:10-:15) $$$                                                                                    150                                
PRCFAMCHA061201054339054348000009CC Disclaimer - FAST - Generic (:08-:10) $$$                                                                                150                                
PGRFAMCHA061201054348060626002238Hoze Houndz                                       EP: 4-049                                                     B63385A1065607ECC                              
PRCFAMCHA061201060626060631000005Astral ID (FEB05) $$$                                                                                                       150                                
PRCFAMCHA061201060631060647000016PH - 07 - KING/SPIDERMAN/KIM  (:14 - :16) (APR06)                                                                           150                                
ID FAMCHA061201060647060700000013PS Playhouse AM Block Open (:10-:15) $$$                                                                                    150                                
PRCFAMCHA061201060700060709000009CC Disclaimer - FAST - Family.ca (:08-:10) $$$                                                                              150                                
PGRFAMCHA061201060709062939002230King                                              EPS # 028                                                     C25350A1065607ECC                              
PRCFAMCHA061201062939062955000016PH - 08- SPIDERMAN/KIM ( (:14 - :16) (APR06) $$$                                                                            150                                
PROFAMCHA061201062955063014000019MadMadMornings Block Open $$$                                                                                               150                                
PGRFAMCHA061201063014065155002141Spiderman                                         EP: 15                                                        C02618 1065607E                                
PRCFAMCHA061201065155065200000005Astral ID (FEB05) $$$                                                                                                       150                                
PRCFAMCHA061201065200065216000016MMM - 01 (AM) - KIM/RECESS/WEEKENDERS (OCT05) (:14                                                                          150                                
PROFAMCHA061201065216065228000012xxKim Possible READY (MMM) (AUG 06) Coming Up Next                                                                          150                                
PROFAMCHA061201065228065313000045xxZoey 101 Holiday Chic Boutique Spot (oct 23-jan7                                                                          150                                
PROFAMCHA061201065313065330000017Lilo & Stitch (MMM) (APR06) LICK- This Morning @ 8                                                                          150                                
PROFAMCHA061201065330065342000012Family Bumpers - (Phase 1 Spring 04) - Pillow Figh                                                                          150                                
PROFAMCHA061201065342065417000035xxHSM Concert Contest $$$ (Nov 18-Dec 3) 4/day in                                                                     A     150                                
PROFAMCHA061201065417065445000028Brandy & Mr. Whiskers (Race] Today @ 1:25 (NOV06)                                                                           150                                
PROFAMCHA061201065445065518000033xxHSM Remix Edition DVD (avail Dec 5) (nov 27-Dec                                                                     A     150                                
PROFAMCHA061201065518065540000022Fillmore! - POLLY (MD) (APR06) - Weekdays @ 2:10pm                                                                          150                                
PROFAMCHA061201065540065559000019MadMadMornings Block Open $$$                                                                                               150                                
PRCFAMCHA061201065559065609000010CC Disclaimer - FAST - Family.ca (:08-:10) $$$                                                                              150                                
PGRFAMCHA061201065609071901002252Disney's Kim Possible                             EPS # 1-051                                                         A6068607ECC                              
PRCFAMCHA061201071901071917000016MMM - 02 (AM) - RECESS/WEEKENDERS/LILO (OCT05) (:1                                                                          150                                
PROFAMCHA061201071917071941000024xxRecess - MONTAGE (MMM) - (JULY06) - Coming Up Ne                                                                          150                                
PROFAMCHA061201071941072026000045xxZoey 101 Holiday Chic Boutique Spot (oct 23-jan7                                                                          150                                
PRCFAMCHA061201072026072033000007Family Bumpers - (Phase 2 F/W 04) - Hockey (MD-L/M                                                                          150                                
PRCFAMCHA061201072033072113000040Bullying Stand Up CUFF $$$ (Nov 13- TBD) (after PS                                                                          150                                
PROFAMCHA061201072113072143000030xxCheetah Girls 2 CD Blast $$$ - Avail Dec 5 (Nov1                                                                    A     150                                
PROFAMCHA061201072143072219000036Weekenders - PIZZA (MMM) - (APR06) - This Morning                                                                           150                                
PRCFAMCHA061201072219072301000042xxBig Big Present Contest REVISED (Nov 24-Dec 23)                                                                           150                                
PRCFAMCHA061201072301072331000030xxBig Big Present HolidayShowstunt (Nov 24-Dec 24)                                                                          150                                
PROFAMCHA061201072331072338000007Aly & A.J. IDs - (ALY) You're Watching Family, NAD                                                                          150                                
PROFAMCHA061201072338072357000019MadMadMornings Block Open $$$                                                                                               150                                
PGRFAMCHA061201072357074632002235Disney's Recess                                   EP: 1-020                                                            6068607E                                
PRCFAMCHA061201074632074637000005Astral ID (FEB05) $$$                                                                                                       150                                
PRCFAMCHA061201074637074653000016PH - 09 - WEEKENDERS/LILO/EINSTEINS (:14 - :16) (A                                                                          150                                
PROFAMCHA061201074653074729000036Weekenders - PIZZA (MMM) - (APR06) - Coming Up Nex                                                                          150                                
PROFAMCHA061201074729074803000034xxZoey 101 Fashion Show $$$                                                                                                 150                                
PROFAMCHA061201074803074816000013Family Bumpers - (Phase 2 F/W 04) - Leaves (PB/MD-                                                                          150                                
PROFAMCHA061201074816074848000032xxCheetah Girls 2 DVD Blast $$$ Avail Now (Nov 28                                                                     A     150                                
PROFAMCHA061201074848074923000035xxHSM Concert Contest $$$ (Nov 18-Dec 3) 4/day in                                                                     A     150                                
PROFAMCHA061201074923074947000024Brandy & Mr. Whiskers (Karaoke] Today @ 1:25 (NOV0                                                                          150                                
PROFAMCHA061201074947075018000031xxDisney Games - Chicken Little $$$ (Nov 28-Dec 15                                                                    A     150                                
PROFAMCHA061201075018075040000022Fillmore! - POLLY (MD) (APR06) - Weekdays @ 2:10pm                                                                          150                                
PROFAMCHA061201075040075059000019MadMadMornings Block Open $$$                                                                                               150                                
PRCFAMCHA061201075059075109000010CC Disclaimer - FAST - Generic (:08-:10) $$$                                                                                150                                
PGRFAMCHA061201075109081402002253Disney's The Weekenders                           EP: 1-012                                                           A6068607ECC                              
PRCFAMCHA061201081402081418000016PH - 10 - LILO/EINSTEINS/WINNIE (:14 - :16) (APR06                                                                          150                                
PROFAMCHA061201081418081435000017Lilo & Stitch (MMM) (APR06) LICK- coming Up Next                                                                            150                                
PROFAMCHA061201081435081508000033xxHSM Remix Edition DVD (avail Dec 5) (nov 27-Dec                                                                     A     150                                
PROFAMCHA061201081508081553000045xxRecess - SNACKS FOR SNITCHES (MD) - (MAY06) - Th                                                                          150                                
PROFAMCHA061201081553081600000007MadMadMornings Bumper                                                                                                       150                                
PROFAMCHA061201081600081636000036Weekenders - PIZZA (MD) - (APR06) - This Afternoon                                                                          150                                
PROFAMCHA061201081636081710000034xxZoey 101 Fashion Show $$$                                                                                                 150                                
PRCFAMCHA061201081710081740000030xxBig Big Present HolidayShowstunt (Nov 24-Dec 24)                                                                          150                                
PROFAMCHA061201081740081759000019MadMadMornings Block Open $$$                                                                                               150                                
PGRFAMCHA061201081759084038002239Disney's Lilo & Stitch: The Series                EP: 60                                                               6068607E                                
PRCFAMCHA061201084038084043000005Astral ID (FEB05) $$$                                                                                                       150                                
PRCFAMCHA061201084043084059000016PH - 11 -EINSTEINS/WINNIE/BEAR  (:14 - :16) (NOV06                                                                          150                                
PROFAMCHA061201084059084129000030Little Einstein (PH) (PRESCHOOL) - Coming Up Next                                                                           150                                
PROFAMCHA061201084129084201000032xxCheetah Girls 2 DVD Blast $$$ Avail Now (Nov 28                                                                     A     150                                
PROFAMCHA061201084201084227000026Jojo's Circus - GIANT - OCT 06 - This morn @ 10:05                                                                          150                                
PROFAMCHA061201084227084257000030xxCranium Hullabaloo $$$ (Oct 23-Dec10)                                                                               A     150                                
PROFAMCHA061201084257084357000100Mickey Mouse Clubhouse (Video 1) This morn @ 10:30                                                                          150                                
PROFAMCHA061201084357084443000046Playhouse - STANLEY - Squirrel Song                                                                                         150                                
ID FAMCHA061201084443084458000015PS Playhouse AM Block Open (:10-:15) $$$                                                                                    150                                
PGRFAMCHA061201084458090903002405Disney's Little Einsteins                         EP: 24                                                               6068607E                                
PRCFAMCHA061201090903090919000016PH - 12 -WINNIE/BEAR/JOJO  (:14 - :16) (NOV06) $$$                                                                          150                                
PROFAMCHA061201090919090949000030Winnie the Pooh (PH/AM) (APR06) - Coming Up Next                                                                            150                                
PROFAMCHA061201090949091026000037Princess Block - Be A Princess (Frog Prince) PH 1                                                                           150                                
PROFAMCHA061201091026091044000018Jojo's Circus - HIP HOP - OCT 06 - This morn @ 10:                                                                          150                                
ID FAMCHA061201091044091058000014PS Playhouse AM Block Open (:10-:15) $$$                                                                                    150                                
PRCFAMCHA061201091058091107000009CC Disclaimer - FAST - Family.ca (:08-:10) $$$                                                                              150                                
PGRFAMCHA061201091107093348002241The New Adventures of Winnie the Pooh             EP: 1-035                                                            6068607ECC                              
PRCFAMCHA061201093348093353000005Astral ID (FEB05) $$$                                                                                                       150                                
PRCFAMCHA061201093353093409000016PH - 13 -BEAR/JOJO/MICKEY (:14 - :16) (NOV06) $$$                                                                           150                                
PROFAMCHA061201093409093509000100Mickey Mouse Clubhouse (Video 2) This morn @ 10:30                                                                          150                                
PRCFAMCHA061201093509093525000016xxPlayhouse Web Gigglefactory Web Promo (PH 1/day                                                                           150                                
PRCFAMCHA061201093525093556000031King (PH) (APR06) - This Morning @ 11:25am                                                                                  150                                
PROFAMCHA061201093556093652000056Playhouse - STANLEY - Fish Song                                                                                             150                                
ID FAMCHA061201093652093705000013PS Playhouse AM Block Open (:10-:15) $$$                                                                                    150                                
PRCFAMCHA061201093705093714000009CC Disclaimer - FAST - Generic (:08-:10) $$$                                                                                150                                
PGRFAMCHA061201093714100119002405Bear In the Big Blue House                        EP: 020                                                              2028607ECC                              
PRCFAMCHA061201100119100134000015PH - 14 -JoJo/MICKEY/STANLEY (FRI) (JUNE06) (:14 -                                                                          150                                
PROFAMCHA061201100134100200000026Jojo's Circus - GIANT - OCT 06 - Coming Up Next                                                                             150                                
PRCFAMCHA061201100200100227000027Playhouse Web Promo - Family.ca                                                                                             150                                
PROFAMCHA061201100227100327000100Mickey Mouse Clubhouse (Video 1) This morn @ 10:30                                                                          150                                
PRCFAMCHA061201100327100346000019Playhouse - HOZE HOUNDZ - Code Blue                                                                                         150                                
ID FAMCHA061201100346100359000013PS Playhouse AM Block Open (:10-:15) $$$                                                                                    150                                
PGRFAMCHA061201100359102804002405JoJo's Circus                                     EP: 40                                                               6068607E                                
PRCFAMCHA061201102804102809000005Astral ID (FEB05) $$$                                                                                                       150                                
PRCFAMCHA061201102809102824000015PH - 15 -MICKEY/STANLEY/KING (FRI) (JUNE06) (:14 -                                                                          150                                
PROFAMCHA061201102824102924000100Mickey Mouse Clubhouse (Video 2) Coming Up Next (J                                                                          150                                
PROFAMCHA061201102924102954000030xxHasbro Littlest Digital Petshop Contest $$$ Nov                                                                     A     150                                
PRCFAMCHA061201102954103009000015Franny's Feet - Bowleriffic (PH-Mon) - (APR06) - M                                                                          150                                
PROFAMCHA061201103009103039000030xxCranium Hullabaloo $$$ (Oct 23-Dec10)                                                                               A     150                                
PRCFAMCHA061201103039103051000012Benjamin Bear - Slide (PH-Tue) (APR06) - Tuesday M                                                                          150                                
ID FAMCHA061201103051103104000013PS Playhouse AM Block Open (:10-:15) $$$                                                                                    150                                
PGRFAMCHA061201103104105509002405Disney's Mickey Mouse Clubhouse                   EP: 23                                                               6028607E                                
PRCFAMCHA061201105509105524000015PH - 16 -STANLEY/KING/RECESS (:14- :16) (APR06) $$                                                                          150                                
PRCFAMCHA061201105524105554000030Stanley - Get Into It (MAR05) - (PH-M/W/F) - Comin                                                                          150                                
PRCFAMCHA061201105554105621000027Playhouse - HENRY'S WORLD - Snowball (WINTER)                                                                               150                                
PROFAMCHA061201105621105651000030Little Einstein (PH) (PRESCHOOL) - Weekdays @ 8:45                                                                          150                                
ID FAMCHA061201105651105704000013PS Playhouse AM Block Open (:10-:15) $$$                                                                                    150                                
PRCFAMCHA061201105704105713000009CC Disclaimer - FAST - Generic (:08-:10) $$$                                                                                150                                
PGRFAMCHA061201105713112111002358Stanley                                           EP: 1-016                                                           A6068607ECC                              
PRCFAMCHA061201112111112116000005Astral ID (FEB05) $$$                                                                                                       150                                
PRCFAMCHA061201112116112131000015PH - 17 -KING/RECESS/KIM (:14 - :16) (APR06) $$$                                                                            150                                
PRCFAMCHA061201112131112202000031King (PH) (APR06) - Coming Up Next                                                                                          150                                
PGRFAMCHA061201112202112452000250They Might Be Giants (ABC's) - E Eats Everything                                                                       60688120                                
ID FAMCHA061201112452112505000013PS Playhouse AM Block Open (:10-:15) $$$                                                                                    150                                
PRCFAMCHA061201112505112514000009CC Disclaimer - FAST - Family.ca (:08-:10) $$$                                                                              150                                
PGRFAMCHA061201112514114744002230King                                              EP: 001                                                       B75756A1065607ECC                              
PRCFAMCHA061201114744114756000012MD - 01 - RECESS/KIM (APR06) (:11 - :13) $$$                                                                                150                                
PROFAMCHA061201114756114820000024Brandy & Mr. Whiskers (Trojan Horse] Today@ 1:25 (                                                                          150                                
PROFAMCHA061201114820114845000025xxRecess Sketches OCT 06 - BAD WEATHER - Cut 05                                                                             150                                
PROFAMCHA061201114845114902000017Mad Dash Block Open (:16-:18) APR06 $$$                                                                                     150                                
PGRFAMCHA061201114902121137002235Disney's Recess                                   EP: 1-050                                                            6068607E                                
PRCFAMCHA061201121137121142000005Astral ID (FEB05) $$$                                                                                                       150                                
PRCFAMCHA061201121142121154000012MD - 02 - KIM/WEEKENDERS (APR06) (:11 - :13) $$$                                                                            150                                
PROFAMCHA061201121154121208000014Kim Possible ARM MD (MAY 06) Coming Up Next                                                                                 150                                
PRCFAMCHA061201121208121238000030xxBig Big Present HolidayShowstunt (Nov 24-Dec 24)                                                                          150                                
PROFAMCHA061201121238121245000007Aly & A.J. IDs - (A.J.) You're watching Family, NA                                                                          150                                
PRCFAMCHA061201121245121301000016MD Bumper - $$$ Shopping Race (:15-:17) APR06                                                                               150                                
PRCFAMCHA061201121301121310000009CC Disclaimer - FAST - Generic (:08-:10) $$$                                                                                150                                
PGRFAMCHA061201121310123600002250Disney's Kim Possible                             EPS # 1-025                                                         A6068607ECC                              
PRCFAMCHA061201123600123613000013MD - 03 - WEEKENDERS/LLOYD (APR06) (:11 - :13) $$$                                                                          150                                
PROFAMCHA061201123613123649000036Weekenders - PIZZA (MD) - (APR06) - Coming Up Next                                                                          150                                
PRCFAMCHA061201123649123659000010MD Bumper $$$ - Race Cars (:08-:10) APR06                                                                                   150                                
PRCFAMCHA061201123659123708000009CC Disclaimer - FAST - Family.ca (:08-:10) $$$                                                                              150                                
PGRFAMCHA061201123708125941002233Disney's The Weekenders                           EP: 1-028                                                           A6068607ECC                              
PRCFAMCHA061201125941125946000005Astral ID (FEB05) $$$                                                                                                       150                                
PRCFAMCHA061201125946125958000012MD - 04 - LLOYD/BRANDY (APR06) (:11 - :13) $$$                                                                              150                                
PRCFAMCHA061201125958130007000009MD Bumper - $$$ Ski Race (:07-:09) APR06                                                                                    150                                
ID FAMCHA061201130007130015000008Magic of Disney - MAD DASH - Shape (:06-:09) $$$                                                                            150                                
PGRFAMCHA061201130015132309002254Disney's Lloyd In Space                           EP: 18                                                               6068607E                                
PRCFAMCHA061201132309132321000012MD - 05 - BRANDY/LILO (APR06) (:11 - :13) $$$                                                                               150                                
PROFAMCHA061201132321132345000024Brandy & Mr. Whiskers (Karaoke] Next  (NOV06)                                                                               150                                
PRCFAMCHA061201132345132400000015MD Bumper - $$$ Shopping Race (:15-:17) APR06                                                                               150                                
ID FAMCHA061201132400132408000008Magic of Disney - MAD DASH - Shape (:06-:09) $$$                                                                            150                                
PGRFAMCHA061201132408134646002238Disney's Brandy & Mr. Whiskers                    EP: 18                                                               6068607E                                
PRCFAMCHA061201134646134651000005Astral ID (FEB05) $$$                                                                                                       150                                
PRCFAMCHA061201134651134704000013MD - 06 - LILO/FILLMORE! (APR06) (:11 - :13) $$$                                                                            150                                
PROFAMCHA061201134704134721000017Lilo & Stitch (MD) LICK(APR06) - Coming Up Next                                                                             150                                
PROFAMCHA061201134721134746000025xxRecess Sketches OCT 06 - BAD WEATHER - Cut 06                                                                             150                                
PRCFAMCHA061201134746134756000010MD Bumper $$$ - Race Cars (:08-:10) APR06                                                                                   150                                
PRCFAMCHA061201134756134805000009CC Disclaimer - FAST - Family.ca (:08-:10) $$$                                                                              150                                
PGRFAMCHA061201134805141044002239Disney's Lilo & Stitch                            EPS # 20                                                            A6068607ECC                              
PRCFAMCHA061201141044141056000012MD - 07 - FILLMORE!/PROUD (APR06) (:11 - :13) $$$                                                                           150                                
PROFAMCHA061201141056141118000022Fillmore! - POLLY (MD) (APR06) - coming up next                                                                             150                                
PRCFAMCHA061201141118141148000030xxBig Big Present HolidayShowstunt (Nov 24-Dec 24)                                                                          150                                
PRCFAMCHA061201141148141156000008MD Bumper - $$$ Ski Race (:07-:09) APR06                                                                                    150                                
PGRFAMCHA061201141156143434002238Disney's Fillmore!                                EPS # 1-018                                                         A6068607E                                
PRCFAMCHA061201143434143439000005Astral ID (FEB05) $$$                                                                                                       150                                
PRCFAMCHA061201143439143451000012MD - 08 - PROUD/WEEKENDERS (APR06) (:11 - :13) $$$                                                                          150                                
PROFAMCHA061201143451143509000018Lloyd In Space (LARRY) (JUNE06) MD- This afternoon                                                                          150                                
PROFAMCHA061201143509143534000025xxRecess Sketches OCT 06 - BAD WEATHER - Cut 07                                                                             150                                
PRCFAMCHA061201143534143550000016MD Bumper - $$$ Shopping Race (:15-:17) APR06                                                                               150                                
PRCFAMCHA061201143550143559000009CC Disclaimer - FAST - Generic (:08-:10) $$$                                                                                150                                
PGRFAMCHA061201143559145828002229The Proud Family                                  EP: 2-025                                                           A6068607ECC                              
PRCFAMCHA061201145828145840000012MD - 09 - WEEKENDERS/LLOYD (APR06) (:11 - :13) $$$                                                                          150                                
PROFAMCHA061201145840145914000034xxZoey 101 Fashion Show $$$                                                                                                 150                                
PROFAMCHA061201145914145922000008Family Bumpers - (Phase 2 F/W 04) - Snow Ball (MD-                                                                          150                                
PROFAMCHA061201145922145952000030xxCheetah Girls 2 CD Blast $$$ - Avail Dec 5 (Nov1                                                                    A     150                                
PROFAMCHA061201145952150009000017Mad Dash Block Open (:16-:18) APR06 $$$                                                                                     150                                
PRCFAMCHA061201150009150018000009CC Disclaimer - FAST - Family.ca (:08-:10) $$$                                                                              150                                
PGRFAMCHA061201150018152304002246Disney's The Weekenders                           EP: 1-033                                                           A6068607ECC                              
PRCFAMCHA061201152304152309000005Astral ID (FEB05) $$$                                                                                                       150                                
PRCFAMCHA061201152309152321000012MD - 10 - LLOYD/DAVE (APR06) (:11 - :13) $$$                                                                                150                                
PROFAMCHA061201152321152355000034xxHSM Karaoke CD - Available Now $$$ (Oct 10-Jan 1                                                                    A     150                                
PROFAMCHA061201152355152402000007Family Bumpers - (Phase 2 F/W 04) - Snow Twirl (MD                                                                          150                                
PROFAMCHA061201152402152447000045xxIce Age 2 -  REVISED The Meltdown Avail Now $$$                                                                           150                                
PROFAMCHA061201152447152456000009Raven ID's II - You're Watching Family, NADM                                                                                150                                
PRCFAMCHA061201152456152505000009MD Bumper $$$ - Race Cars (:08-:10) APR06                                                                                   150                                
ID FAMCHA061201152505152513000008Magic of Disney - MAD DASH - Shape (:06-:09) $$$                                                                            150                                
PGRFAMCHA061201152513154806002253Disney's Lloyd In Space                           EP: 09                                                               6068607E                                
PRCFAMCHA061201154806154819000013MD - 11 - DAVE/PROUD (APR06) (:11 - :13) $$$                                                                                150                                
PROFAMCHA061201154819154842000023xxDave the Barbarian - SNEEZE (MD) - Coming up (JU                                                                          150                                
PROFAMCHA061201154842154912000030xxHasbro Littlest Digital Petshop Contest $$$ Nov                                                                     A     150                                
PROFAMCHA061201154912154946000034Proud Family (APR06) GET BURNED (MD) - This Aftern                                                                          150                                
PRCFAMCHA061201154946155022000036Famous Players Popcorn Parties REVISED (Nov06) 3/d                                                                          150                                
PROFAMCHA061201155022155050000028xxLizzie McGuire - (Sick) (APR06) (NSW/AM) - Weeke                                                                          150                                
PROFAMCHA061201155050155123000033xxHSM DVD Game Contest - Version 2 $$$ (nov 27-dec                                                                    A     150                                
PRCFAMCHA061201155123155153000030xxBig Big Present HolidayShowstunt (Nov 24-Dec 24)                                                                          150                                
PRCFAMCHA061201155153155202000009MD Bumper - $$$ Ski Race (:07-:09) APR06                                                                                    150                                
PRCFAMCHA061201155202155211000009CC Disclaimer - FAST - Family.ca (:08-:10) $$$                                                                              150                                
PGRFAMCHA061201155211161449002238Disney's Dave the Barbarian                       EPS # 06                                                             6068607ECC                              
PRCFAMCHA061201161449161454000005Astral ID (FEB05) $$$                                                                                                       150                                
PRCFAMCHA061201161454161506000012MD - 12 - PROUD/RECESS (APR06) (:11 - :13) $$$                                                                              150                                
PROFAMCHA061201161506161518000012xxKim Possible READY - MD (AUG 06) This afternoon                                                                           150                                
PROFAMCHA061201161518161530000012Family Bumpers - (Phase 3 Spring 05) - Bake (MD/NS                                                                          150                                
PROFAMCHA061201161530161600000030xxHasbro Littlest Digital Petshop Contest $$$ Nov                                                                     A     150                                
PRCFAMCHA061201161600161644000044Family Lab-pet Talker Version 1(Nov06)  3/day in M                                                                          150                                
PRCFAMCHA061201161644161700000016MD Bumper - $$$ Shopping Race (:15-:17) APR06                                                                               150                                
PRCFAMCHA061201161700161709000009CC Disclaimer - FAST - Generic (:08-:10) $$$                                                                                150                                
PGRFAMCHA061201161709163939002230The Proud Family                                  EP: 1-008                                                           A6068607ECC                              
PRCFAMCHA061201163939163952000013MD - 13 - RECESS/KIM (APR06) (:11 - :13) $$$                                                                                150                                
PROFAMCHA061201163952164016000024xxRecess - MONTAGE (MD) - JULY06 - Coming Up Next                                                                           150                                
PROFAMCHA061201164016164048000032xxCheetah Girls 2 DVD Blast $$$ Avail Now (Nov 28                                                                     A     150                                
PROFAMCHA061201164048164102000014Kim Possible ARM MD (MAY 06) This afternoon @ 5:05                                                                          150                                
PRCFAMCHA061201164102164138000036Famous Players Popcorn Parties REVISED (Nov06) 3/d                                                                          150                                
PROFAMCHA061201164138164205000027Lizzie McGuire - (Bad Breath) (NSW) (APR06) - Week                                                                          150                                
PROFAMCHA061201164205164239000034xxZoey 101 Fashion Show $$$                                                                                                 150                                
PROFAMCHA061201164239164247000008Phil of the Future IDs - I'm Ricky Ullman, You're                                                                           150                                
PRCFAMCHA061201164247164257000010MD Bumper $$$ - Race Cars (:08-:10) APR06                                                                                   150                                
PGRFAMCHA061201164257170532002235Disney's Recess                                   EP: 1-016                                                            6068607E                                
PRCFAMCHA061201170532170537000005Astral ID (FEB05) $$$                                                                                                       150                                
PRCFAMCHA061201170537170549000012MD - 22 (FRI) - KIM/HANNAH (July06) (:11-:13) $$$                                                                           150                                
PROFAMCHA061201170549170601000012xxKim Possible READY - MD (AUG 06) Coming Up Next                                                                           150                                
PROFAMCHA061201170601170633000032xxCheetah Girls 2 DVD Blast $$$ Avail Now (Nov 28                                                                     A     150                                
PROFAMCHA061201170633170722000049Proud Family (APR06) STRIKE (NSW) - Tomorrow After                                                                          150                                
PROFAMCHA061201170722170739000017xxEmperor's New School BANK - NSW - Tomorrow Aft @                                                                          150                                
PRCFAMCHA061201170739170750000011Naturally Sadie ID's - I'm Charlotte, you're watch                                                                          150                                
PRCFAMCHA061201170750170759000009MD Bumper - $$$ Ski Race (:07-:09) APR06                                                                                    150                                
PRCFAMCHA061201170759170808000009CC Disclaimer - FAST - Family.ca (:08-:10) $$$                                                                              150                                
PGRFAMCHA061201170808173101002253Disney's Kim Possible                             EPS # 1-061                                                          6068607ECC                              
PRCFAMCHA061201173101173113000012NS - 14 - HANNAH/ZOEY (July06) (:11 - :13) $$$                                                                              150                                
PROFAMCHA061201173113173133000020Hannah Montana - NS - SITUPS (Oct06) Next                                                                                   150                                
PROFAMCHA061201173133173218000045xxZoey 101 Holiday Chic Boutique Spot (oct 23-jan7                                                                          150                                
PROFAMCHA061201173218173231000013Bonnie - Life With NSW - Tomorrow @ 8:40 (Sept 06)                                                                          150                                
PROFAMCHA061201173231173309000038xxPirates of the Carrribbean (Avail Dec 5) (Nov 27                                                                    A     150                                
PRCFAMCHA061201173309173339000030xxBig Big Present HolidayShowstunt (Nov 24-Dec 24)                                                                          150                                
PROFAMCHA061201173339173357000018Nonstop Block Open (:16-:18) APR06 $$$                                                                                      150                                
PGRFAMCHA061201173357175635002238Hannah Montana                                    EP: 17                                                               6028807E                                
PRCFAMCHA061201175635175640000005Astral ID (FEB05) $$$                                                                                                       150                                
PRCFAMCHA061201175640175652000012NS - 15 - ZOEY/DEREK (APR06) (:11 - :13) $$$                                                                                150                                
PROFAMCHA061201175652175736000044Zoey 101 - PHONE DIARY (NS) (JUNE06) - Coming Up N                                                                          150                                
PROFAMCHA061201175736175808000032xxCheetah Girls 2 DVD Blast $$$ Avail Now (Nov 28                                                                     A     150                                
PRCFAMCHA061201175808175839000031Life with Derek NS FAMJAM (NOV06) NEW EPS today @                                                                           150                                
PROFAMCHA061201175839175912000033xxHSM Remix Edition DVD (avail Dec 5) (nov 27-Dec                                                                     A     150                                
PROFAMCHA061201175912175950000038xxNeds DSSG -NS Survivor (OCT06) New Eps Tonight @                                                                          150                                
PRCFAMCHA061201175950180006000016NS Bumper $$$- Tennis (:15-:17) APR06                                                                                       150                                
PRCFAMCHA061201180006180015000009CC Disclaimer - FAST - Family.ca (:08-:10) $$$                                                                              150                                
PGRFAMCHA061201180015182347002332Zoey 101 Season 2                                 EP: 17                                                              A2068807BCC                              
PRCFAMCHA061201182347182359000012NS - 16 - DEREK/NEDS (APR06) (:11 - :13) $$$                                                                                150                                
PRCFAMCHA061201182359182430000031Life with Derek NS FAMJAM (NOV06) NEW EPS next (to                                                                          150                                
PROFAMCHA061201182430182458000028xxDisney Games - Kim Possible $$$ (Nov 28-Dec 14)                                                                     A     150                                
PROFAMCHA061201182458182536000038xxNeds DSSG -NS Survivor (OCT06) New Eps Tonight @                                                                          150                                
PROFAMCHA061201182536182610000034xxZoey 101 Fashion Show $$$                                                                                                 150                                
PROFAMCHA061201182610182640000030xxThat's So Raven (APR06) LUNCH (NSW) - Tomorrow M                                                                          150                                
PROFAMCHA061201182640182715000035xxHSM Concert Contest $$$ (Nov 18-Dec 3) 4/day in                                                                     A     150                                
PRCFAMCHA061201182715182755000040Bullying Stand Up CUFF $$$ (Nov 13- TBD) (after PS                                                                          150                                
PROFAMCHA061201182755182825000030Double Teamed (SEPT12) - Next Friday @ 7:30pm                                                                               150                                
PRCFAMCHA061201182825182907000042xxBig Big Present Contest REVISED (Nov 24-Dec 23)                                                                           150                                
PRCFAMCHA061201182907182940000033Naturally Sadie - New Eps Tomorrow night @ 6:05 (t                                                                          150                                
PROFAMCHA061201182940182947000007Chef Boyardee BB - NS $$$                                                                                             A     150                                
PRCFAMCHA061201182947183000000013NS Bumper $$$ - Fashion (:12-:14) APR06                                                                                     150                                
PRCFAMCHA061201183000183009000009CC Disclaimer - FAST - Generic (:08-:10) $$$                                                                                150                                
PGRFAMCHA061201183009185239002230Life with Derek Season 2                          EP: 26                                                        A28441A1015607BCC3                             
PRCFAMCHA061201185239185244000005Astral ID (FEB05) $$$                                                                                                       150                                
PRCFAMCHA061201185244185256000012xxNS - 17 - NEDS/PPIX (APR06) (:11 - :13) $$$                                                                               150                                
PROFAMCHA061201185256185334000038xxNeds DSSG -NS Survivor (OCT06) New Eps Next (to                                                                           150                                
PROFAMCHA061201185334185407000033xxHSM DVD Game Contest - Version 2 $$$ (nov 27-dec                                                                    A     150                                
PROFAMCHA061201185407185429000022xx8 Simple Rules (APR06) (NSW) - BRIDGET DRUMS - T                                                                          150                                
PROFAMCHA061201185429185439000010FAMJAM - Open/Close                                                                                                         150                                
PGRFAMCHA061201185439185757000318MV Disney - Can't Help Falling In Love (A*Teens)                                                                       60688120                                
PROFAMCHA061201185757185811000014xxFAMJAM - Close (FAMILY) xxDNUxx                                                                                           150                                
PROFAMCHA061201185811185824000013Bonnie - Life With NSW - Tomorrow @ 8:40 (Sept 06)                                                                          150                                
PROFAMCHA061201185824185902000038xxPirates of the Carrribbean (Avail Dec 5) (Nov 27                                                                    A     150                                
PRCFAMCHA061201185902185932000030xxBig Big Present HolidayShowstunt (Nov 24-Dec 24)                                                                          150                                
PRCFAMCHA061201185932185951000019Life WD - Grow Up - Casey and Derek - Keep Watchin                                                                          150                                
PRCFAMCHA061201185951190000000009NS Bumper $$$ - Dodgeball (:07-:09) APR06                                                                                   150                                
PGRFAMCHA061201190000192416002416Ned's Declassified School Survival Guide - Season EP: 46                                                               2028807B                                
PROFAMCHA061201192416192431000015Nightly Pix Line-up (SEPT) - GENERIC (:14-:16) $$$                                                                          150                                
PROFAMCHA061201192431192458000027Zoey 101 - LOGAN - NSW (MAY06) (may13-aug30) Tomor                                                                          150                                
PRCFAMCHA061201192458192540000042xxBig Big Present Contest REVISED (Nov 24-Dec 23)                                                                           150                                
PROFAMCHA061201192540192600000020That's So Raven (JUNE06) NO PANTS (NSW) - Tomorrow                                                                          150                                
PROFAMCHA061201192600192634000034xxHSM Karaoke CD - Available Now $$$ (Oct 10-Jan 1                                                                    A     150                                
PRCFAMCHA061201192634192718000044Family Lab-pet Talker Version 1(Nov06)  3/day in M                                                                          150                                
PROFAMCHA061201192718192752000034Even Stevens - Bad Boys (APR06) - (NSW) - Tomorrow                                                                          150                                
PROFAMCHA061201192752192837000045xxIce Age 2 -  REVISED The Meltdown Avail Now $$$                                                                           150                                
PROFAMCHA061201192837192914000037Sinbad Show NSW Car (NOV06) Tomorrow morn @ 11:35                                                                           150                                
PRCFAMCHA061201192914192934000020Big Big Present Clues Donut - Dollar Sign                                                                                   150                                
PROFAMCHA061201192934192941000007Chef Boyardee BB - NS $$$                                                                                             A     150                                
ID FAMCHA061201192941193000000019Popcorn Pix Block Open $$$ (JUNE 06) (:18-:20)                                                                              150                                
ID FAMCHA061201193000193009000009Rating - PG - (DEC05) (:08 - :10) $$$                                                                                       150                                
PRCFAMCHA061201193009193018000009CC Disclaimer - FAST - Generic (:08-:10) $$$                                                                                150                                
PGRFAMCHA061201193018210804013746Santa With Muscles                                                                                                    B2068807ECC                              
PRCFAMCHA061201210804210809000005Astral ID (FEB05) $$$                                                                                                       150                                
PROFAMCHA061201210809210824000015Nightly Pix Line-up (SEPT) - GENERIC (:14-:16) $$$                                                                          150                                
PRCFAMCHA061201210824210844000020Big Big Present Clues Donut - Dollar Sign                                                                                   150                                
PROFAMCHA061201210844210857000013xxNightly Pix Movie Open (:10-:15)                                                                                          150                                
ID FAMCHA061201210857210906000009Rating - 14A - (DEC05) (:08 - :10) $$$                                                                                      150                                
PGRFAMCHA061201210906222939012033Spy Hard                                                                                                              C6068807D                                
PROFAMCHA061201222939222954000015Nightly Pix Line-up (SEPT) - GENERIC (:14-:16) $$$                                                                          150                                
PROFAMCHA061201222954223007000013xxNightly Pix Movie Open (:10-:15)                                                                                          150                                
ID FAMCHA061201223007223016000009Rating - PG - (DEC05) (:08 - :10) $$$                                                                                       150                                
PRCFAMCHA061201223016223025000009CC Disclaimer - SLOW - Generic (:08-:10) $$$                                                                                150                                
PGRFAMCHA061201223025000505013440Killer Flood:  The Day the Dam Broke                                                                                  B2068807DCC                              
PRCFAMCHA061201000505000510000005Astral ID (FEB05) $$$                                                                                                       150                                
PRCFAMCHA061201000510000523000013NS - 12 - RADIO/SPIDER (SEPT06) (:11 - :13) $$$                                                                             150                                
PRCFAMCHA061201000523000553000030Radio Free Roscoe - (NS/M-Th) (JUNE06) Coming up                                                                            150                                
PROFAMCHA061201000553000628000035xxHSM Concert Contest $$$ (Nov 18-Dec 3) 4/day in                                                                     A     150                                
PROFAMCHA061201000628000658000030Phil of the Future THINGS TO COME (NSW) (APR06) -                                                                           150                                
PRCFAMCHA061201000658000734000036Famous Players Popcorn Parties REVISED (Nov06) 3/d                                                                          150                                
PROFAMCHA061201000734000805000031xxSmart Guy FIGHT (JUNE06) NSW - Tomorrow afternoo                                                                          150                                
PRCFAMCHA061201000805000813000008Darcy's Wild Life (NADM) NS or NSW (AUG06) - Tomor                                                                          150                                
PRCFAMCHA061201000813000857000044Family Lab-pet Talker Version 1(Nov06)  3/day in M                                                                          150                                
PRCFAMCHA061201000857000930000033Naturally Sadie - New Eps Tomorrow night @ 6:05 (t                                                                          150                                
PROFAMCHA061201000930000940000010FAMJAM - Open/Close                                                                                                         150                                
PGRFAMCHA061201000940001250000310MV Disney - Superstition (Raven)                                                                                       60688120                                
PROFAMCHA061201001250001304000014xxFAMJAM - Close (FAMILY) xxDNUxx                                                                                           150                                
PRCFAMCHA061201001304001335000031Life with Derek NSW FAMJAM (NOV06) Tomorrow night                                                                           150                                
PROFAMCHA061201001335001430000055So Little Time (NS) (APR06) Watching TV - Monday t                                                                          150                                
PRCFAMCHA061201001430001512000042xxBig Big Present Contest REVISED (Nov 24-Dec 23)                                                                           150                                
PRCFAMCHA061201001512001542000030xxBig Big Present HolidayShowstunt (Nov 24-Dec 24)                                                                          150                                
PROFAMCHA061201001542001600000018Nonstop Block Open (:16-:18) APR06 $$$                                                                                      150                                
PRCFAMCHA061201001600001609000009CC Disclaimer - SLOW - Family.ca (:08-:10) $$$                                                                              150                                
PGRFAMCHA061201001609003839002230Radio Free Roscoe                                 EPS # 43                                                      A05976A1065607ACC                              
PRCFAMCHA061201003839003851000012NS - 13 - SPIDER (APR06) (:11 - :13) $$$                                                                                    150                                
PRCFAMCHA061201003851003907000016NS Bumper $$$- Tennis (:15-:17) APR06                                                                                       150                                
PGRFAMCHA061201003907010051002144Spiderman                                         EP: 04                                                        C02618 1065607E                                
PRCFAMCHA061201010051010056000005Astral ID (FEB05) $$$                                                                                                       150                                
PRCFAMCHA061201010056010109000013NS Bumper $$$ - Fashion (:12-:14) APR06                                                                                     150                                
PROFAMCHA061201010109010139000030Jetix Combo - Tomorrow morn @ 6:00 (SEPT 06)                                                                                150                                
PROFAMCHA061201010139010159000020Oban Star Racers (JETIX) - Tomorrow morning @ 6:55                                                                          150                                
PRCFAMCHA061201010159010214000015xxAstral - LOVE $$$                                                                                                         150                                
SO FAMCHA061201010214010226000012Sign Off                                                                                                                                                       
OFFFAMCHA061201010226043000032734OFF AIR                                                                                                                                                        
SO FAMCHA061202043000043011000011Sign On (oct 1)                                                                                                                                                
PRCFAMCHA061202043011043020000009CC Disclaimer - FAST - Family.ca (:08-:10) $$$                                                                              150                                
PGRFAMCHA061202043020045412002352Henry's World                                     EP: 1-013                                                     B66555A1065607GCC                              
PRCFAMCHA061202045412045427000015PH - 01 - BEN/FRANNY/KING (SAT/SUN) (JUNE06) (:14                                                                           150                                
ID FAMCHA061202045427045440000013PS Playhouse AM Block Open (:10-:15) $$$                                                                                    150                                
PRCFAMCHA061202045440045449000009CC Disclaimer - FAST - Generic (:08-:10) $$$                                                                                150                                
PGRFAMCHA061202045449051719002230The Secret World Of Benjamin Bear                 EPS # 1-001                                                   B75146A1065607ECC                              
PRCFAMCHA061202051719051724000005Astral ID (FEB05) $$$                                                                                                       150                                
PRCFAMCHA061202051724051739000015PH - 02 - FRANNY/KING (SAT/SUN) (JUNE06) (:14 - :1                                                                          150                                
ID FAMCHA061202051739051752000013PS Playhouse AM Block Open (:10-:15) $$$                                                                                    150                                
PRCFAMCHA061202051752051801000009CC Disclaimer - FAST - Family.ca (:08-:10) $$$                                                                              150                                
PGRFAMCHA061202051801054031002230Franny's Feet                                     EPS # 39                                                      C23971 1065607ECC                              
PRCFAMCHA061202054031054046000015PH - 03 - KING (SAT/SUN) (JUNE06) (:14 - :16) $$$                                                                           150                                
ID FAMCHA061202054046054059000013PS Playhouse AM Block Open (:10-:15) $$$                                                                                    150                                
PRCFAMCHA061202054059054108000009CC Disclaimer - FAST - Generic (:08-:10) $$$                                                                                150                                
PGRFAMCHA061202054108060338002230King                                              EP: 012                                                       B75769A1065607ECC                              
PRCFAMCHA061202060338060343000005Astral ID (FEB05) $$$                                                                                                       150                                
PRCFAMCHA061202060343060353000010JTX - 01 -  ED/PR MYSTIC FORCE (SEPT06) $$$                                                                                 150                                
PROFAMCHA061202060353060411000018Jetix Block Open $$$ (:18-:21)                                                                                              150                                
PGRFAMCHA061202060411062650002239Get Ed                                            EP: 12                                                              A2068607E                                
PRCFAMCHA061202062650062700000010JTX - 02 - PR MYSTIC FORCE/OBAN (SEPT06) $$$                                                                                150                                
PROFAMCHA061202062700062722000022Power Rangers: Mystic Force (JETIX) - Coming Up Ne                                                                          150                                
PROFAMCHA061202062722062727000005Jetix Bumper (Sept 06)                                                                                                      150                                
PROFAMCHA061202062727062747000020Oban Star Racers (JETIX) - This morning @ 6:55 (Se                                                                          150                                
PGRFAMCHA061202062747062823000036xxPlanet Rock Profiles - Beyonce (Destiny's Child EP: 46                                                              A70687120                                
PROFAMCHA061202062823062846000023WITCH (JETIX) - This morning @ 7:20 (Sept06)                                                                                150                                
PROFAMCHA061202062846062905000019Jetix Block Open $$$ (:18-:21)                                                                                              150                                
PGRFAMCHA061202062905065143002238Power Rangers:  Mystic Force                      EP: 26                                                               2068607E                                
PRCFAMCHA061202065143065148000005Astral ID (FEB05) $$$                                                                                                       150                                
PRCFAMCHA061202065148065158000010JTX - 03 - OBAN/WITCH (SEPT06) $$$                                                                                          150                                
PRCFAMCHA061202065158065228000030xxBig Big Present HolidayShowstunt (Nov 24-Dec 24)                                                                          150                                
PROFAMCHA061202065228065248000020Oban Star Racers (JETIX) - Coming Up Next (Sept06)                                                                          150                                
PROFAMCHA061202065248065311000023WITCH (JETIX) - This morning @ 7:20 (Sept06)                                                                                150                                
PROFAMCHA061202065311065335000024Get Ed (JETIX) - Tomorrow @ 6am (Sept06)                                                                                    150                                
PRCFAMCHA061202065335065343000008Darcy's IDs - Sara - family.ca                                                                                              150                                
PROFAMCHA061202065343065404000021Jetix Block Open $$$ (:18-:21)                                                                                              150                                
PGRFAMCHA061202065404071647002243Oban Star Racers                                  EP: 12                                                               2068607E                                
PRCFAMCHA061202071647071657000010JTX - 04 - WITCH/LIZZIE (SEPT06) $$$                                                                                        150                                
PROFAMCHA061202071657071720000023WITCH (JETIX) - Coming Up Next (Sept06)                                                                                     150                                
PROFAMCHA061202071720071753000033xxHSM Remix Edition DVD (avail Dec 5) (nov 27-Dec                                                                     A     150                                
PROFAMCHA061202071753071817000024Get Ed (JETIX) - Tomorrow @ 6am (Sept06)                                                                                    150                                
PGRFAMCHA061202071817071923000106xxPlanet Rock Profiles - BNL - Humour             EP: 46                                                              A70687120                                
PROFAMCHA061202071923071945000022Power Rangers: Mystic Force (JETIX) - Tomorrow mor                                                                          150                                
PROFAMCHA061202071945072004000019Jetix Block Open $$$ (:18-:21)                                                                                              150                                
PGRFAMCHA061202072004074146002142W.I.T.C.H.                                        EP: 24                                                               2068607E                                
PRCFAMCHA061202074146074151000005Astral ID (FEB05) $$$                                                                                                       150                                
PRCFAMCHA061202074151074203000012NSW - 02 - LIZZIE/SUITE (APR06) (:11 - 13) $$$                                                                              150                                
PRCFAMCHA061202074203074233000030xxBig Big Present HolidayShowstunt (Nov 24-Dec 24)                                                                          150                                
PROFAMCHA061202074233074300000027Lizzie McGuire - (Bad Breath) (NSW) (APR06) - Comi                                                                          150                                
PROFAMCHA061202074300074345000045xxZoey 101 Holiday Chic Boutique Spot (oct 23-jan7                                                                          150                                
PROFAMCHA061202074345074415000030xxSuite Life of Z & C - NSW (JULY 06) GIRLFRIEND 2                                                                          150                                
PROFAMCHA061202074415074427000012Family Bumpers - (Phase 1 Spring 04) - Pillow Figh                                                                          150                                
PROFAMCHA061202074427074511000044Zoey 101 - PHONE DIARY (NSW) (JUNE06) - This morni                                                                          150                                
PRCFAMCHA061202074511074555000044Family Lab- EZ Traveller Version 1(Nov06)  3/day i                                                                          150                                
PROFAMCHA061202074555074615000020That's So Raven (JUNE06) NO PANTS (NSW) - This mor                                                                          150                                
PRCFAMCHA061202074615074648000033Naturally Sadie - New Eps Tonight @ 6:05 (to Jan 2                                                                          150                                
PROFAMCHA061202074648074722000034xxZoey 101 Fashion Show $$$                                                                                                 150                                
PROFAMCHA061202074722074749000027xx8 Simple Rules (APR06) (NSW) - DAD JUMPS GUN - T                                                                          150                                
PROFAMCHA061202074749074805000016Nonstop Weekend Block Open (:16-:18) APR06 $$$                                                                              150                                
ID FAMCHA061202074805074813000008Magic of Disney - NS/NSW/PB - Shape (:06-:09) $$$                                                                           150                                
PGRFAMCHA061202074813081048002235Lizzie McGuire                                    EP: 1-026                                                           A6068607B                                
PRCFAMCHA061202081048081100000012NSW - 03 - SUITE/ZOEY (APR06) (:11 - 13) $$$                                                                                150                                
PROFAMCHA061202081100081109000009Suite Life ID - You're watching Suite Life on Fami                                                                          150                                
PROFAMCHA061202081109081142000033xxHSM Remix Edition DVD (avail Dec 5) (nov 27-Dec                                                                     A     150                                
PROFAMCHA061202081142081226000044Zoey 101 - PHONE DIARY (NSW) (JUNE06) - This morni                                                                          150                                
PROFAMCHA061202081226081256000030xxCranium Hullabaloo $$$ (Oct 23-Dec10)                                                                               A     150                                
PROFAMCHA061202081256081316000020That's So Raven (JUNE06) NO PANTS (NSW) - This mor                                                                          150                                
PGRFAMCHA061202081316081429000113xxPlanet Rock Profiles - Alicia Keys xxDNUxx      EP: 46                                                              A70687120                                
PRCFAMCHA061202081429081437000008Darcy's Wild Life (NADM) NS or NSW (AUG06) - Tonig                                                                          150                                
PROFAMCHA061202081437081443000006Phil of the Future IDs - You're Watching Family...                                                                          150                                
PROFAMCHA061202081443081450000007Chef Boyardee BB - NSW $$$                                                                                            A     150                                
PRCFAMCHA061202081450081502000012NSW Bumper $$$ - Fashion (:12-:14) APR06                                                                                    150                                
PGRFAMCHA061202081502083741002239Suite Life of Zack and Cody, The - Season 2       EP: 28                                                               6068607E                                
PRCFAMCHA061202083741083746000005Astral ID (FEB05) $$$                                                                                                       150                                
PRCFAMCHA061202083746083758000012NSW - 04 - ZOEY/RAVEN (APR06) (:11 - 13) $$$                                                                                150                                
PROFAMCHA061202083758083842000044Zoey 101 - PHONE DIARY (NSW) (JUNE06) - Coming Up                                                                           150                                
PROFAMCHA061202083842083915000033xxHSM DVD Game Contest - Version 2 $$$ (nov 27-dec                                                                    A     150                                
PROFAMCHA061202083915083935000020That's So Raven (JUNE06) NO PANTS (NSW) - This mor                                                                          150                                
PROFAMCHA061202083935084020000045xxIce Age 2 -  REVISED The Meltdown Avail Now $$$                                                                           150                                
PROFAMCHA061202084020084050000030Phil of the Future THINGS TO COME (NSW) (APR06) -                                                                           150                                
PROFAMCHA061202084050084100000010FAMJAM - Open/Close                                                                                                         150                                
PGRFAMCHA061202084100084200000100MV Disney - Huckaroo (Pixel Perfect)                                                                                   60688120                                
PROFAMCHA061202084200084214000014xxFAMJAM - Close (FAMILY) xxDNUxx                                                                                           150                                
PRCFAMCHA061202084214084247000033Naturally Sadie - New Eps Tonight @ 6:05 (to Jan 2                                                                          150                                
PROFAMCHA061202084247084254000007Aly & A.J. IDs - (ALY) You're Watching Family, NAD                                                                          150                                
PRCFAMCHA061202084254084301000007NSW Bumper $$$ - Dodgeball (:07-:09) APR06                                                                                  150                                
PRCFAMCHA061202084301084310000009CC Disclaimer - FAST - Family.ca (:08-:10) $$$                                                                              150                                
PGRFAMCHA061202084310090642002332Zoey 101                                          EP: 18                                                              A2068807BCC                              
PRCFAMCHA061202090642090654000012NSW - 05 - RAVEN/PHIL (APR06) (:11 - 13) $$$                                                                                150                                
PRCFAMCHA061202090654090724000030xxBig Big Present HolidayShowstunt (Nov 24-Dec 24)                                                                          150                                
PROFAMCHA061202090724090744000020That's So Raven (JUNE06) NO PANTS (NSW) - Coming u                                                                          150                                
PROFAMCHA061202090744090814000030xxCranium Hullabaloo $$$ (Oct 23-Dec10)                                                                               A     150                                
PROFAMCHA061202090814090844000030Phil of the Future THINGS TO COME (NSW) (APR06) -                                                                           150                                
PROFAMCHA061202090844090919000035xxHSM Concert Contest $$$ (Nov 18-Dec 3) 4/day in                                                                     A     150                                
PROFAMCHA061202090919090953000034Even Stevens - Bad Boys (APR06) - (NSW) - This Mor                                                                          150                                
PROFAMCHA061202090953091031000038xxPirates of the Carrribbean (Avail Dec 5) (Nov 27                                                                    A     150                                
PROFAMCHA061202091031091101000030Double Teamed (SEPT12) - Next Friday @ 7:30pm                                                                               150                                
PRCFAMCHA061202091101091123000022xx8 Simple Rules (APR06) (NS) - BRIDGET DRUMS - Mo                                                                          150                                
PROFAMCHA061202091123091144000021xxNeds DSSG Rock Idol NSW (MAY06) This morning @ 1                                                                          150                                
PRCFAMCHA061202091144091159000015NSW Bumper $$$ - Tennis (:15-:17) APR06                                                                                     150                                
PRCFAMCHA061202091159091208000009CC Disclaimer - FAST - Generic (:08-:10) $$$                                                                                150                                
PGRFAMCHA061202091208093447002239That's So Raven                                   EPS # 1-036                                                          6068607BCC                              
PRCFAMCHA061202093447093452000005Astral ID (FEB05) $$$                                                                                                       150                                
PRCFAMCHA061202093452093504000012NSW - 06 - PHIL/EVEN (APR06) (:11 - 13) $$$                                                                                 150                                
PROFAMCHA061202093504093534000030Phil of the Future THINGS TO COME (NSW) (APR06) -                                                                           150                                
PRCFAMCHA061202093534093616000042xxBig Big Present Contest REVISED (Nov 24-Dec 23)                                                                           150                                
PROFAMCHA061202093616093647000031Even Stevens - Swing (APR06) - (NSW) - This Morn @                                                                          150                                
PROFAMCHA061202093647093721000034xxZoey 101 Fashion Show $$$                                                                                                 150                                
PROFAMCHA061202093721093751000030Double Teamed (SEPT12) - Next Friday @ 7:30pm                                                                               150                                
PRCFAMCHA061202093751093758000007Family Bumpers - (Phase 2 F/W 04) - Hockey (MD-L/M                                                                          150                                
PROFAMCHA061202093758093819000021xxNeds DSSG Rock Idol NSW (MAY06) This morning @ 1                                                                          150                                
PRCFAMCHA061202093819093859000040Bullying Stand Up CUFF $$$ (Nov 13- TBD) (after PS                                                                          150                                
PROFAMCHA061202093859093936000037Sinbad Show NSW Car (NOV06) This morn @ 11:35                                                                               150                                
PROFAMCHA061202093936094006000030xxHasbro Littlest Digital Petshop Contest $$$ Nov                                                                     A     150                                
PRCFAMCHA061202094006094039000033Naturally Sadie - New Eps Tonight @ 6:05 (to Jan 2                                                                          150                                
PROFAMCHA061202094039094046000007Chef Boyardee BB - NSW $$$                                                                                            A     150                                
PRCFAMCHA061202094046094059000013NSW Bumper $$$ - Fashion (:12-:14) APR06                                                                                    150                                
PGRFAMCHA061202094059100335002236Phil of the Future Yr 2                           EP: 39                                                               6068607B                                
PRCFAMCHA061202100335100347000012NSW - 07 - EVEN/BMW (APR06) (:11 - 13) $$$                                                                                  150                                
PRCFAMCHA061202100347100417000030xxBig Big Present HolidayShowstunt (Nov 24-Dec 24)                                                                          150                                
PROFAMCHA061202100417100451000034Even Stevens - Bad Boys (APR06) - (NSW) -coming Up                                                                          150                                
PROFAMCHA061202100451100524000033xxHSM DVD Game Contest - Version 2 $$$ (nov 27-dec                                                                    A     150                                
PROFAMCHA061202100524100554000030Double Teamed (SEPT12) - Next Friday @ 7:30pm                                                                               150                                
PRCFAMCHA061202100554100630000036Famous Players Popcorn Parties REVISED (Nov06) 3/d                                                                          150                                
PROFAMCHA061202100630100651000021xxNeds DSSG Rock Idol NSW (MAY06) This morning @ 1                                                                          150                                
PROFAMCHA061202100651100701000010FAMJAM - Open/Close                                                                                                         150                                
PGRFAMCHA061202100701100831000130MV Disney - (MD//NSNSW) - Because You Live (Jesse                                                                      60688120                                
PROFAMCHA061202100831100845000014xxFAMJAM - Close (FAMILY) xxDNUxx                                                                                           150                                
PROFAMCHA061202100845100917000032Sinbad Show NSW Dance (SEPT06) This morn @ 11:35                                                                            150                                
PROFAMCHA061202100917100948000031xxDisney Games - Chicken Little $$$ (Nov 28-Dec 15                                                                    A     150                                
PRCFAMCHA061202100948100956000008Darcy's Wild Life (NADM) NS or NSW (AUG06) - Tonig                                                                          150                                
PRCFAMCHA061202100956101004000008NSW Bumper $$$ - Dodgeball (:07-:09) APR06                                                                                  150                                
ID FAMCHA061202101004101012000008Magic of Disney - NS/NSW/PB - Wipe (:06-:09) $$$                                                                            150                                
PRCFAMCHA061202101012101021000009CC Disclaimer - FAST - Generic (:08-:10) $$$                                                                                150                                
PGRFAMCHA061202101021103256002235Even Stevens                                      EP: 2-031                                                           A6068807BCC                              
PRCFAMCHA061202103256103301000005Astral ID (FEB05) $$$                                                                                                       150                                
PRCFAMCHA061202103301103313000012NSW - 08 - BMW/NEDS (APR06) (:11 - 13) $$$                                                                                  150                                
PROFAMCHA061202103313103343000030Double Teamed (SEPT12) - Next Friday @ 7:30pm                                                                               150                                
PROFAMCHA061202103343103416000033xxHSM Remix Edition DVD (avail Dec 5) (nov 27-Dec                                                                     A     150                                
PROFAMCHA061202103416103437000021xxNeds DSSG Rock Idol NSW (MAY06) This morning @ 1                                                                          150                                
PRCFAMCHA061202103437103521000044Family Lab- EZ Traveller Version 1(Nov06)  3/day i                                                                          150                                
PROFAMCHA061202103521103558000037Sinbad Show NSW Car (NOV06) This morn @ 11:35                                                                               150                                
PRCFAMCHA061202103558103631000033Naturally Sadie - New Eps Tonight @ 6:05 (to Jan 2                                                                          150                                
PROFAMCHA061202103631103709000038xxPirates of the Carrribbean (Avail Dec 5) (Nov 27                                                                    A     150                                
PROFAMCHA061202103709103736000027xx8 Simple Rules (APR06) (NSW) - DAD JUMPS GUN - T                                                                          150                                
PROFAMCHA061202103736103743000007Chef Boyardee BB - NSW $$$                                                                                            A     150                                
PRCFAMCHA061202103743103759000016NSW Bumper $$$ - Tennis (:15-:17) APR06                                                                                     150                                
PRCFAMCHA061202103759103808000009CC Disclaimer - FAST - Family.ca (:08-:10) $$$                                                                              150                                
PGRFAMCHA061202103808110034002226Boy Meets World                                   EP: 1-067                                                           B6068807BCC                              
PRCFAMCHA061202110034110046000012NSW - 09 - NEDS/SINBAD (SEPT06) (:11 - 13) $$$                                                                              150                                
PROFAMCHA061202110046110107000021xxNeds DSSG Rock Idol NSW (MAY06) Coming Up Next                                                                            150                                
PRCFAMCHA061202110107110149000042xxBig Big Present Contest REVISED (Nov 24-Dec 23)                                                                           150                                
PROFAMCHA061202110149110221000032Sinbad Show NS Dance (SEPT06) Tonight @ 9                                                                                   150                                
PROFAMCHA061202110221110306000045xxZoey 101 Holiday Chic Boutique Spot (oct 23-jan7                                                                          150                                
PROFAMCHA061202110306110337000031xxSmart Guy FIGHT (JUNE06) NSW - This afternnoon @                                                                          150                                
PROFAMCHA061202110337110350000013Family Bumpers - (Phase 2 F/W 04) - Leaves (PB/MD-                                                                          150                                
PROFAMCHA061202110350110424000034xxZoey 101 Fashion Show $$$                                                                                                 150                                
PROFAMCHA061202110424110446000022xx8 Simple Rules (APR06) (NSW) - BRIDGET DRUMS - T                                                                          150                                
PRCFAMCHA061202110446110458000012NSW Bumper $$$ - Fashion (:12-:14) APR06                                                                                    150                                
PGRFAMCHA061202110458112919002421Ned's Declassified School Survival Guide          EP: 18                                                               2068807B                                
PRCFAMCHA061202112919112924000005Astral ID (FEB05) $$$                                                                                                       150                                
PRCFAMCHA061202112924112936000012NSW - 10 - SINBAD/PP (SEPT06) (:11 - :13) $$$                                                                               150                                
PRCFAMCHA061202112936113006000030xxBig Big Present HolidayShowstunt (Nov 24-Dec 24)                                                                          150                                
PROFAMCHA061202113006113043000037Sinbad Show NSW Car (NOV06) Next                                                                                            150                                
PROFAMCHA061202113043113116000033xxHSM Remix Edition DVD (avail Dec 5) (nov 27-Dec                                                                     A     150                                
PRCFAMCHA061202113116113124000008Darcy's Wild Life (NADM) NS or NSW (AUG06) - Tonig                                                                          150                                
PROFAMCHA061202113124113159000035xxHSM Concert Contest $$$ (Nov 18-Dec 3) 4/day in                                                                     A     150                                
PROFAMCHA061202113159113219000020That's So Raven (JUNE06) NO PANTS (NSW) - Tonight                                                                           150                                
PROFAMCHA061202113219113257000038xxPirates of the Carrribbean (Avail Dec 5) (Nov 27                                                                    A     150                                
PRCFAMCHA061202113257113330000033Naturally Sadie - New Eps Tonight @ 6:05 (to Jan 2                                                                          150                                
PROFAMCHA061202113330113344000014Phil of the Future IDs - Ricky Tomato - watching f                                                                          150                                
PROFAMCHA061202113344113351000007Chef Boyardee BB - NSW $$$                                                                                            A     150                                
PRCFAMCHA061202113351113400000009NSW Bumper $$$ - Dodgeball (:07-:09) APR06                                                                                  150                                
PGRFAMCHA061202113400115622002222The Sinbad Show                                   EP: 12                                                               2068507B                                
PRCFAMCHA061202115622115635000013NSW - 11 - PP/SMART GUY (July06) (:11 - :13) $$$                                                                            150                                
PROFAMCHA061202115635115705000030Phil of the Future THINGS TO COME (NSW) (APR06) -                                                                           150                                
PROFAMCHA061202115705115750000045xxIce Age 2 -  REVISED The Meltdown Avail Now $$$                                                                           150                                
PRCFAMCHA061202115750115823000033Naturally Sadie - New Eps Tonight @ 6:05 (to Jan 2                                                                          150                                
PROFAMCHA061202115823115857000034xxHSM Karaoke CD - Available Now $$$ (Oct 10-Jan 1                                                                    A     150                                
PROFAMCHA061202115857115917000020That's So Raven (JUNE06) NO PANTS (NSW) - Tonight                                                                           150                                
PRCFAMCHA061202115917115937000020Big Big Present Clues Donut - Pirate Ship                                                                                   150                                
ID FAMCHA061202115937115957000020Popcorn Pix Block Open $$$ (JUNE 06) (:18-:20)                                                                              150                                
