SO FAMCHA020901043000043011000011Sign On (oct 1)                                                                                                                                                
PGRFAMCHA020901043011045416002405Out of the Box                                    Pop To It!                                                          A6028607A                                
ID FAMCHA020901045416045421000005Generic ID - Marbles                                                                                                        150                                
PGRFAMCHA020901045421050928001507Art Attack                                        1-001                                                                60686110                                
ID FAMCHA020901050928050933000005Generic ID - Bubbles*                                                                                                       150                                
PRCFAMCHA020901050933050956000023xxHenry's World (ICE CREAM) - Tonight @ 6:40pm                                                                              150                                
INTFAMCHA020901050956051306000310Art Attack - Digger                                                                                                    60686120                                
PRCFAMCHA020901051306051330000024Franklin (LADDER) - Tonight @ 6:15pm                                                                                        150                                
PRCFAMCHA020901051330051339000009Morning Block menu background (flex time)                                                                                   150                                
ID FAMCHA020901051339051400000021Prime time open count down                                                                                                  150                                
PROFAMCHA020901051400051408000008CC Is Brought To You By - Ian **DNU AFTER 09/22**                                                                           150                                
PGRFAMCHA020901051408054043002635Katie And Orbie                                   Shop and Seek/Surprise!/Katie's Music Box                     C12449A1065607ECC                              
ID FAMCHA020901054043054050000007Generic ID - Whisper*                                                                                                       150                                
ID FAMCHA020901054050054100000010Prime time open top of hour                                                                                                 150                                
PROFAMCHA020901054100054108000008CC Is Brought To You By - Lark **DNU AFTER 09/22**                                                                          150                                
PGRFAMCHA020901054108060343002235Hoze Houndz                                       Brainwash/Money For Nuthin'                                   B34010 1065607ECC                              
ID FAMCHA020901060343060353000010Generic ID - confetti                                                                                                       150                                
PROFAMCHA020901060353060429000036Teamo Supremo (STINGER) - Today @ 5pm                                                                                       150                                
PRCFAMCHA020901060429060439000010Morning Block menu background (flex time)                                                                                   150                                
ID FAMCHA020901060439060500000021Prime time open count down                                                                                                  150                                
PROFAMCHA020901060500060508000008CC Is Brought To You By - Ian **DNU AFTER 09/22**                                                                           150                                
PGRFAMCHA020901060508062842002334Little Lulu Show; The                             Bicycle Built for Too Many, Tax Time Trouble, Mayo            B20200A1065607ECC                              
ID FAMCHA020901062842062847000005Generic ID - Couch 1*                                                                                                       150                                
PROFAMCHA020901062847062917000030xxWeekend Double Pix Movie Promo - Today, Starting                                                                          150                                
PROFAMCHA020901062917062929000012Buzz Lightyear (SPACE RANGER) - Weekdays @ 7:30am                                                                           150                                
PRCFAMCHA020901062929062939000010Morning Block menu background (flex time)                                                                                   150                                
ID FAMCHA020901062939063000000021Prime time open count down                                                                                                  150                                
PGRFAMCHA020901063000065128002128Power Rangers Wild Force                          Secrets And Lies                                                    A6028607E                                
ID FAMCHA020901065128065133000005Generic ID - Couch 2*                                                                                                       150                                
PROFAMCHA020901065133065203000030xxWeekend Double Pix Movie Promo - Today, Starting                                                                          150                                
PROFAMCHA020901065203065233000030Power Rangers Wild Force (CHAIR) - Coming Up                                                                                150                                
PROFAMCHA020901065233065254000021xxSmart Guy (KEYBOARD) - Today @ 7:30am **DNU**                                                                             150                                
PROFAMCHA020901065254065354000100xxKim Possible (BTS) - Today @ 4:35pm**DO NOT USE*                                                                          150                                
PROFAMCHA020901065354065409000015UFC Teaser #3                                                                                                               150                                
INTFAMCHA020901065409065859000450MV Disney - Circle of Life (ELTON JOHN)                                                                                60688120                                
PROFAMCHA020901065859065929000030Teen/Wish - Today @ 11:05am                                                                                                 150                                
PRCFAMCHA020901065929065939000010Morning Block menu background (flex time)                                                                                   150                                
ID FAMCHA020901065939070000000021Prime time open count down                                                                                                  150                                
PGRFAMCHA020901070000072057002057Power Rangers Wild Force                          The Tornado Spin                                                    A6028607E                                
ID FAMCHA020901072057072107000010Generic ID - Family w/dog                                                                                                   150                                
PROFAMCHA020901072107072137000030xxWeekend Double Pix Movie Promo - Today, Starting                                                                          150                                
PROFAMCHA020901072137072202000025xxSmart Guy (DATE) - Coming Up **DNU**                                                                                      150                                
PROFAMCHA020901072202072245000043Lizzie McGuire (TRASH - AUG) - Today @ 8am                                                                                  150                                
PROFAMCHA020901072245072345000100xxKim Possible (BTS) - Today @ 4:35pm**DO NOT USE*                                                                          150                                
PROFAMCHA020901072345072400000015UFC Teaser #4                                                                                                               150                                
PROFAMCHA020901072400072500000100Amanda Show (UNDERPANTS) - Today @ 8:30am                                                                                   150                                
INTFAMCHA020901072500072910000410Art Attack - Giant Crab                                                                                                60686120                                
PROFAMCHA020901072910072930000020xxAll That - Today @ 9am *DNU*                                                                                              150                                
PRCFAMCHA020901072930072939000009Morning Block menu background (flex time)                                                                                   150                                
ID FAMCHA020901072939073000000021Prime time open count down                                                                                                  150                                
PROFAMCHA020901073000073008000008CC Is Brought To You By - Games                                                                                             150                                
PGRFAMCHA020901073008075236002228Smart Guy                                         A Little Knowledge                                                  A6068807BCC                              
ID FAMCHA020901075236075241000005Generic ID - Fingerpaint                                                                                                    150                                
PROFAMCHA020901075241075311000030xxWeekend Double Pix Movie Promo - Today, Starting                                                                          150                                
PROFAMCHA020901075311075354000043Lizzie McGuire (TRASH - AUG) - Coming Up                                                                                    150                                
PROFAMCHA020901075354075441000047Amanda Show (HAM) - Today @ 8:30am                                                                                          150                                
PROFAMCHA020901075441075456000015UFC Teaser #5                                                                                                               150                                
PROFAMCHA020901075456075516000020xxAll That - Today @ 9am *DNU*                                                                                              150                                
INTFAMCHA020901075516075919000403Art Attack - Fairy On A Mushroom                                                                                       60686120                                
PROFAMCHA020901075919075940000021Even Stevens (TOILET - AUG) - Today @ 9:25am                                                                                150                                
PRCFAMCHA020901075940075950000010Morning Block menu background (flex time)                                                                                   150                                
ID FAMCHA020901075950080000000010xxMagic of Disney - V2(sky) - TEEN FEMALE                                                                                   150                                
PGRFAMCHA020901080000082235002235Lizzie McGuire                                    Lizzie's Nightmare                                                  A6068607B                                
ID FAMCHA020901082235082245000010Generic ID - Hula Hoop                                                                                                      150                                
PROFAMCHA020901082245082305000020xxAll That - Today @ 9am *DNU*                                                                                              150                                
PROFAMCHA020901082305082353000048Amanda Show (JACUZZI) - Coming Up                                                                                           150                                
PRCFAMCHA020901082353082431000038Funshine 2002 - GENERIC TOUR SPOT                                                                                           150                                
PRCFAMCHA020901082431082454000023Funshine 2002 - Spot #18 - SEP 01 TO SEP 02                                                                                 150                                
PROFAMCHA020901082454082515000021Even Stevens (TOILET - AUG) - Today @ 9:25am                                                                                150                                
INTFAMCHA020901082515082859000344Art Attack - Kids On Swing                                                                                             60686120                                
PROFAMCHA020901082859082929000030xxWeekend Double Pix Movie Promo - Today, Starting                                                                          150                                
PRCFAMCHA020901082929082939000010Morning Block menu background (flex time)                                                                                   150                                
ID FAMCHA020901082939083000000021Prime time open count down                                                                                                  150                                
PGRFAMCHA020901083000085415002415Amanda Show; The                                  1-010                                                               A20686090                                
ID FAMCHA020901085415085420000005Generic ID - Marbles                                                                                                        150                                
PROFAMCHA020901085420085450000030xxWeekend Double Pix Movie Promo - Today, Starting                                                                          150                                
PROFAMCHA020901085450085510000020xxAll That - Coming Up *DNU*                                                                                                150                                
PRCFAMCHA020901085510085548000038Funshine 2002 - GENERIC TOUR SPOT                                                                                           150                                
PRCFAMCHA020901085548085611000023Funshine 2002 - Spot #18 - SEP 01 TO SEP 02                                                                                 150                                
PROFAMCHA020901085611085641000030xxBoy Meets World - Today @ 10:15am                                                                                         150                                
PROFAMCHA020901085641085841000200Your Big Break (JANET) - Tonight @ 8pm                                                                                      150                                
PROFAMCHA020901085841085909000028xxKim Possible (SOCKS) - Today @ 4:35pm**DO NOT US                                                                          150                                
PROFAMCHA020901085909085930000021Even Stevens (TOILET - AUG) - Today @ 9:25am                                                                                150                                
PRCFAMCHA020901085930085939000009Morning Block menu background (flex time)                                                                                   150                                
ID FAMCHA020901085939090000000021Prime time open count down                                                                                                  150                                
PGRFAMCHA020901090000092421002421All That                                          592                                                                 A20686090                                
ID FAMCHA020901092421092428000007Generic ID - Whisper*                                                                                                       150                                
PROFAMCHA020901092428092458000030xxWeekend Double Pix Movie Promo - Today, Starting                                                                          150                                
PROFAMCHA020901092458092519000021Even Stevens (TOILET - AUG) - Coming Up                                                                                     150                                
PROFAMCHA020901092519092549000030xxBoy Meets World - Today @ 10:15am                                                                                         150                                
PRCFAMCHA020901092549092627000038Funshine 2002 - GENERIC TOUR SPOT                                                                                           150                                
PRCFAMCHA020901092627092650000023Funshine 2002 - Spot #18 - SEP 01 TO SEP 02                                                                                 150                                
PROFAMCHA020901092650092726000036Teamo Supremo (STINGER) - Today @ 5pm                                                                                       150                                
INTFAMCHA020901092726092909000143MV Disney - Siamese Cat Song                                                                                           60688120                                
PROFAMCHA020901092909092939000030Teen/Wish - Today @ 11:05am                                                                                                 150                                
PRCFAMCHA020901092939092950000011Morning Block menu background (flex time)                                                                                   150                                
ID FAMCHA020901092950093000000010xxMagic of Disney - V2(sky) - TEEN MALE                                                                                     150                                
PROFAMCHA020901093000093008000008CC Is Brought To You By - Click Club                                                                                        150                                
PGRFAMCHA020901093008095250002242Even Stevens                                      Louis In The Middle                                                 A6068807BCC                              
ID FAMCHA020901095250095255000005Generic ID - Bubbles*                                                                                                       150                                
ID FAMCHA020901095255095305000010xxMagic of Disney - V3(water) - TEEN FEMALE                                                                                 150                                
PROFAMCHA020901095305095313000008CC Is Brought To You By - Games                                                                                             150                                
PGRFAMCHA020901095313101543002230Jersey; The                                       Elliot and Goliath                                                   6068607ACC                              
ID FAMCHA020901101543101554000011Generic ID - soccer                                                                                                         150                                
PROFAMCHA020901101554101624000030xxBoy Meets World - Coming Up                                                                                               150                                
PROFAMCHA020901101624101654000030xxWeekend Double Pix Movie Promo - Today, Starting                                                                          150                                
PROFAMCHA020901101654101730000036Teamo Supremo (STINGER) - Today @ 5pm                                                                                       150                                
PRCFAMCHA020901101730101739000009Morning Block menu background (flex time)                                                                                   150                                
ID FAMCHA020901101739101800000021Prime time open count down                                                                                                  150                                
PROFAMCHA020901101800101808000008CC Is Brought To You By - Click Club                                                                                        150                                
PGRFAMCHA020901101808104037002229Boy Meets World                                   Father Knows Less                                                   B6068807BCC                              
ID FAMCHA020901104037104048000011Generic ID - soccer                                                                                                         150                                
PROFAMCHA020901104048104118000030xxWeekend Double Pix Movie Promo - Today, Starting                                                                          150                                
PROFAMCHA020901104118104139000021xxSmart Guy (KEYBOARD) - Coming Up **DNU**                                                                                  150                                
PROFAMCHA020901104139104209000030Teen/Wish - Today @ 11:05am                                                                                                 150                                
PROFAMCHA020901104209104229000020xxAll That - Tomorrow @ 6:30pm *DNU*                                                                                        150                                
PRCFAMCHA020901104229104239000010Morning Block menu background (flex time)                                                                                   150                                
ID FAMCHA020901104239104300000021Prime time open count down                                                                                                  150                                
PROFAMCHA020901104300104308000008CC Is Brought To You By - Games                                                                                             150                                
PGRFAMCHA020901104308110523002215Smart Guy                                         Baby It's You...and You...and You                                   A6068807BCC                              
ID FAMCHA020901110523110530000007Generic ID - Whisper*                                                                                                       150                                
PROFAMCHA020901110530110600000030xxWeekend Double Pix Movie Promo - Today, Starting                                                                          150                                
PROFAMCHA020901110600110628000028xxKim Possible (SOCKS) - Today @ 4:35pm**DO NOT US                                                                          150                                
PRCFAMCHA020901110628110639000011Morning Block menu background (flex time)                                                                                   150                                
ID FAMCHA020901110639110700000021Prime time open count down                                                                                                  150                                
PROFAMCHA020901110700110708000008CC Is Brought To You By - Click Club                                                                                        150                                
PGRFAMCHA020901110708112854002146Teen Angel                                        Date With An Angel                                                  A6028807BCC                              
ID FAMCHA020901112854112901000007Generic ID - Whisper*                                                                                                       150                                
PROFAMCHA020901112901112931000030xxWeekend Double Pix Movie Promo - Today, Starting                                                                          150                                
PROFAMCHA020901112931113004000033House of Mouse (PETE - AUG) - Today @ 3:45pm                                                                                150                                
PRCFAMCHA020901113004113042000038Funshine 2002 - GENERIC TOUR SPOT                                                                                           150                                
PRCFAMCHA020901113042113105000023Funshine 2002 - Spot #18 - SEP 01 TO SEP 02                                                                                 150                                
PROFAMCHA020901113105113141000036Teamo Supremo (STINGER) - Today @ 5pm                                                                                       150                                
INTFAMCHA020901113141113352000211MV Disney - Right Back Where We Started From (CLEO                                                                     60688120                                
PROFAMCHA020901113352113428000036Proud Family (GIRL BAND) - Today @ 4:10pm                                                                                   150                                
PRCFAMCHA020901113428113439000011Morning Block menu background (flex time)                                                                                   150                                
ID FAMCHA020901113439113500000021Prime time open count down                                                                                                  150                                
PROFAMCHA020901113500113508000008CC Is Brought To You By - Games                                                                                             150                                
PGRFAMCHA020901113508115613002105You Wish                                          A Real Don Juan                                                     A6028807BCC                              
ID FAMCHA020901115613115624000011Generic ID - soccer                                                                                                         150                                
PROFAMCHA020901115624115700000036Proud Family (GIRL BAND) - Today @ 4:10pm                                                                                   150                                
PROFAMCHA020901115700115730000030xxWeekend Double Pix Movie Promo - Coming Up                                                                                150                                
PROFAMCHA020901115730115745000015UFC Teaser #6                                                                                                               150                                
PROFAMCHA020901115745115845000100xxKim Possible (BTS) - Today @ 4:35pm**DO NOT USE*                                                                          150                                
PROFAMCHA020901115845115940000055Your Big Break (INTERLUDE) - Tonight @ 8pm                                                                                  150                                
ID FAMCHA020901115940120000000020Move open family size movie                                                                                                 150                                
PROFAMCHA020901120000120008000008Rating - G - Ian                                                                                                            150                                
PROFAMCHA020901120008120016000008CC Is Brought To You By - Click Club                                                                                        150                                
ID FAMCHA020901120016120026000010xxMagic of Disney - V3(water) - TEEN MALE                                                                                   150                                
PGRFAMCHA020901120026133210013144Motocrossed                                                                                                           A6068807CCC                              
ID FAMCHA020901133210133225000015Generic ID - confetti                                                                                                       150                                
PROFAMCHA020901133225133232000007xxWeekend Double Pix Movie Promo - You're Watching                                                                          150                                
PRCFAMCHA020901133232133310000038Funshine 2002 - GENERIC TOUR SPOT                                                                                           150                                
PRCFAMCHA020901133310133333000023Funshine 2002 - Spot #18 - SEP 01 TO SEP 02                                                                                 150                                
PROFAMCHA020901133333133406000033House of Mouse (PETE - AUG) - Today @ 3:45pm                                                                                150                                
PROFAMCHA020901133406133430000024Legend of Tarzan (S.O.S) - Weekdays @ 4:15pm                                                                                150                                
PRCFAMCHA020901133430133440000010Morning Block menu background (flex time)                                                                                   150                                
ID FAMCHA020901133440133500000020Move open family size movie                                                                                                 150                                
PROFAMCHA020901133500133508000008Rating - G - Lark                                                                                                           150                                
PROFAMCHA020901133508133516000008CC Is Brought To You By - Games                                                                                             150                                
ID FAMCHA020901133516133526000010xxMagic of Disney - V4 - TEEN FEMALE                                                                                        150                                
PGRFAMCHA020901133526151854014328Mighty Ducks; The                                                                                                     A6068807DCC                              
ID FAMCHA020901151854151904000010Generic ID - confetti                                                                                                       150                                
PROFAMCHA020901151904151937000033House of Mouse (PETE - AUG) - Today @ 3:45pm                                                                                150                                
PROFAMCHA020901151937151953000016xxKim Possible (PANTS) - Today @ 4:35pm**DO NOT US                                                                          150                                
PROFAMCHA020901151953152029000036Proud Family (GIRL BAND) - Today @ 4:10pm                                                                                   150                                
PRCFAMCHA020901152029152039000010Morning Block menu background (flex time)                                                                                   150                                
ID FAMCHA020901152039152100000021Prime time open count down                                                                                                  150                                
PROFAMCHA020901152100152108000008CC Is Brought To You By - Games                                                                                             150                                
PGRFAMCHA020901152108154338002230Nightmare Ned                                     Steamed Vegetable/Along For The Ride                                A6068607ECC                              
ID FAMCHA020901154338154343000005Generic ID - Couch 1*                                                                                                       150                                
PROFAMCHA020901154343154419000036Proud Family (GIRL BAND) - Today @ 4:10pm                                                                                   150                                
PROFAMCHA020901154419154452000033House of Mouse (PETE - AUG) - Coming Up                                                                                     150                                
PROFAMCHA020901154452154507000015UFC Teaser #7                                                                                                               150                                
PRCFAMCHA020901154507154530000023xxHenry's World (ICE CREAM) - Tonight @ 6:40pm                                                                              150                                
PRCFAMCHA020901154530154539000009Morning Block menu background (flex time)                                                                                   150                                
ID FAMCHA020901154539154600000021Prime time open count down                                                                                                  150                                
PROFAMCHA020901154600154608000008CC Is Brought To You By - Click Club                                                                                        150                                
PGRFAMCHA020901154608160843002235Disney's House Of Mouse                           The Stolen Cartoons                                                  6068607ECC                              
ID FAMCHA020901160843160848000005Generic ID - Couch 2*                                                                                                       150                                
PROFAMCHA020901160848160924000036Proud Family (GIRL BAND) - Coming Up                                                                                        150                                
PROFAMCHA020901160924161000000036Teamo Supremo (STINGER) - Today @ 5pm                                                                                       150                                
PROFAMCHA020901161000161030000030xxKim Possible (FAMILY) - Today @ 4:35pm**DO NOT U                                                                          150                                
PRCFAMCHA020901161030161039000009Morning Block menu background (flex time)                                                                                   150                                
ID FAMCHA020901161039161100000021Prime time open count down                                                                                                  150                                
PROFAMCHA020901161100161108000008CC Is Brought To You By - Games                                                                                             150                                
PGRFAMCHA020901161108163253002145Proud Family; The                                 EZ-Jackster                                                         A6068807ECC                              
ID FAMCHA020901163253163303000010Generic ID - Family w/dog                                                                                                   150                                
PROFAMCHA020901163303163327000024Legend of Tarzan (S.O.S) - Weekdays @ 4:15pm                                                                                150                                
PROFAMCHA020901163327163343000016xxKim Possible (PANTS) - Coming Up**DO NOT USE**                                                                            150                                
PRCFAMCHA020901163343163421000038Funshine 2002 - GENERIC TOUR SPOT                                                                                           150                                
PRCFAMCHA020901163421163444000023Funshine 2002 - Spot #18 - SEP 01 TO SEP 02                                                                                 150                                
PROFAMCHA020901163444163510000026Pepper Ann (OBSESSION - AUG) - Weekdays @ 3:50pm                                                                            150                                
PROFAMCHA020901163510163530000020xxAll That - Tomorrow @ 6:30pm *DNU*                                                                                        150                                
PRCFAMCHA020901163530163539000009Morning Block menu background (flex time)                                                                                   150                                
ID FAMCHA020901163539163600000021Prime time open count down                                                                                                  150                                
PGRFAMCHA020901163600165852002252Disney's Kim Possible                             Tick, Tick, Tick                                                    A6028607E                                
ID FAMCHA020901165852165857000005Generic ID - Fingerpaint                                                                                                    150                                
PROFAMCHA020901165857165933000036Teamo Supremo (STINGER) - Coming Up                                                                                         150                                
PROFAMCHA020901165933165959000026Pepper Ann (OBSESSION - AUG) - Weekdays @ 3:50pm                                                                            150                                
PROFAMCHA020901165959170029000030xxBoy Meets World - Tomorrow @ 8pm                                                                                          150                                
PRCFAMCHA020901170029170039000010Morning Block menu background (flex time)                                                                                   150                                
ID FAMCHA020901170039170100000021Prime time open count down                                                                                                  150                                
PROFAMCHA020901170100170108000008CC Is Brought To You By - Click Club                                                                                        150                                
PGRFAMCHA020901170108172401002253Disney's Teamo Supremo                            In The Beginning/Duly Deputized Super Agents                        A6028607ECC                              
ID FAMCHA020901172401172411000010Generic ID - Hula Hoop                                                                                                      150                                
PRCFAMCHA020901172411172435000024Franklin (LADDER) - Tonight @ 6:15pm                                                                                        150                                
PROFAMCHA020901172435172455000020Out Of The Box (AUG) - Weekdays @ 10:25am                                                                                   150                                
PROFAMCHA020901172455172528000033Stanley (CAT BATH) - Weekdays @ 9:35am                                                                                      150                                
PRCFAMCHA020901172528172551000023xxHenry's World (ICE CREAM) - Tonight @ 6:40pm                                                                              150                                
PROFAMCHA020901172551172601000010WKND Line-Up - 01 - PB&J/WTP/FRANKLIN                                                                                       150                                
PROFAMCHA020901172601172608000007CC Is Brought To You By - Ian                                                                                               150                                
PGRFAMCHA020901172608174938002330PB&J Otter                                        Peanut Overboard/Come Back Mama                                      6068607ECC                              
ID FAMCHA020901174938174944000006Generic ID - soccer                                                                                                         150                                
PRCFAMCHA020901174944175002000018Franklin (CAST) - Tonight @ 6:15pm                                                                                          150                                
PROFAMCHA020901175002175035000033House of Mouse (PETE - AUG) - Tomorrow @ 7am                                                                                150                                
PROFAMCHA020901175035175047000012Buzz Lightyear (SPACE RANGER) - Weekdays @ 3:25pm                                                                           150                                
PROFAMCHA020901175047175120000033Stanley (CAT BATH) - Weekdays @ 9:35am                                                                                      150                                
PRCFAMCHA020901175120175142000022Hoze Houndz (FIREFIGHTER) - Tonight @ 7:35pm                                                                                150                                
PROFAMCHA020901175142175150000008WKND Line-Up - 02 - WTP/FRANKLIN                                                                                            150                                
ID FAMCHA020901175150175200000010xxMagic of Disney - V2(sky) - TEEN FEMALE                                                                                   150                                
PROFAMCHA020901175200175208000008CC Is Brought To You By - Lark **DNU AFTER 09/22**                                                                          150                                
PGRFAMCHA020901175208181445002237New Adventures of Winnie the Pooh; The            A Knight To Remember                                                 6068607ECC                              
ID FAMCHA020901181445181456000011Generic ID - soccer                                                                                                         150                                
PRCFAMCHA020901181456181520000024Franklin (LADDER) - Coming Up                                                                                               150                                
INTFAMCHA020901181520181724000204MV Disney - You've Got A Friend In Me (RANDY NEWMA                                                                     60688120                                
PRCFAMCHA020901181724181754000030xxHenry's World (TOOTH FAIRY) - Tonight @ 6:40pm                                                                            150                                
PROFAMCHA020901181754181800000006WKND Line-Up - 03 - FRANKLIN                                                                                                150                                
PROFAMCHA020901181800181808000008CC Is Brought To You By - Ian **DNU AFTER 09/22**                                                                           150                                
PGRFAMCHA020901181808184101002253Franklin                                          Franklin And The Red Scooter/Franklin In The Dark             B10189A1065607ECC                              
ID FAMCHA020901184101184111000010Generic ID - Ring around the rosie                                                                                          150                                
PRCFAMCHA020901184111184134000023xxHenry's World (ICE CREAM) - Coming Up                                                                                     150                                
PROFAMCHA020901184134184154000020Out Of The Box (AUG) - Weekdays @ 10:25am                                                                                   150                                
PROFAMCHA020901184154184209000015UFC Teaser #8                                                                                                               150                                
ID FAMCHA020901184209184229000020Schoolhouse Promo - Weekday Mornings                                                                                        150                                
PRCFAMCHA020901184229184239000010Morning Block menu background (flex time)                                                                                   150                                
ID FAMCHA020901184239184300000021Prime time open count down                                                                                                  150                                
PROFAMCHA020901184300184308000008CC Is Brought To You By - Lark **DNU AFTER 09/22**                                                                          150                                
PGRFAMCHA020901184308190658002350Henry's World                                     Triple Trouble/Tunnelling To China                            B66545A1025607GCC                              
ID FAMCHA020901190658190708000010Generic ID - Bubbles                                                                                                        150                                
PRCFAMCHA020901190708190730000022Hoze Houndz (FIREFIGHTER) - Coming Up                                                                                       150                                
PROFAMCHA020901190730190742000012Buzz Lightyear (SPACE RANGER) - Weekdays @ 3:25pm                                                                           150                                
PROFAMCHA020901190742190815000033House of Mouse (PETE - AUG) - Tomorrow @ 7am                                                                                150                                
PROFAMCHA020901190815190854000039Recess (MAJORITY) - Weekdays @ 5:10pm                                                                                       150                                
PROFAMCHA020901190854190900000006WKND Line-Up - 04 - LULU (7:09PM)                                                                                           150                                
PROFAMCHA020901190900190908000008CC Is Brought To You By - Ian **DNU AFTER 09/22**                                                                           150                                
PGRFAMCHA020901190908193528002620Little Lulu Show; The                             Business Girl/The Pet Duck/Lulu's Umbrella Service            C19574A1065607ECC                              
ID FAMCHA020901193528193533000005Generic ID - Bubbles*                                                                                                       150                                
PROFAMCHA020901193533193541000008CC Is Brought To You By - Lark **DNU AFTER 09/22**                                                                          150                                
PGRFAMCHA020901193541195815002234Hoze Houndz                                       Monsterhound/Robohound                                        B17127A1065607ECC                              
ID FAMCHA020901195815195825000010Generic ID - Bubbles                                                                                                        150                                
PROFAMCHA020901195825195920000055Your Big Break (INTERLUDE) - Coming Up                                                                                      150                                
PRCFAMCHA020901195920195950000030@ The Movies - Tonight @ 8:45pm                                                                                             150                                
ID FAMCHA020901195950200000000010Prime time open top of hour                                                                                                 150                                
PGRFAMCHA020901200000204315004315Your Big Break                                    2-010                                                               A60688090                                
ID FAMCHA020901204315204325000010Generic ID - Bubbles                                                                                                        150                                
PRCFAMCHA020901204325204355000030@ The Movies - Coming Up                                                                                                    150                                
PROFAMCHA020901204355204455000100xxKim Possible (BTS) - Weekends @ 4:35pm**DO NOT U                                                                          150                                
ID FAMCHA020901204455204500000005Generic ID - Marbles                                                                                                        150                                
PGRFAMCHA020901204500210100001600@ The Movies (3)                                                                                                      A10228150                                
ID FAMCHA020901210100210105000005Generic ID - Bubbles*                                                                                                       150                                
ID FAMCHA020901210105210125000020Move open family size movie                                                                                                 150                                
PROFAMCHA020901210125210133000008Rating - AA - Ian                                                                                                           150                                
PGRFAMCHA020901210133223440013307Five Days One Summer                                                                                                  C2068807D                                
ID FAMCHA020901223440223445000005Generic ID - Bubbles*                                                                                                       150                                
PGRFAMCHA020901223445225045001600@ The Movies (3)                                                                                                      A10628150                                
ID FAMCHA020901225045225055000010Generic ID - Hula Hoop                                                                                                      150                                
ID FAMCHA020901225055225115000020Move open family size movie                                                                                                 150                                
PROFAMCHA020901225115225123000008Rating - PG - Lark                                                                                                          150                                
PGRFAMCHA020901225123004408015245Arthur 2: On The Rocks                                                                                                B2068807D                                
ID FAMCHA020901004408004413000005Generic ID - Bubbles*                                                                                                       150                                
PGRFAMCHA020901004413010855002442Amazing Stories                                   The Main Attraction                                                 A2068807A                                
ID FAMCHA020901010855010900000005Generic ID - Bubbles*                                                                                                       150                                
PGRFAMCHA020901010900013335002435Are You Afraid Of The Dark?                       The Tale of the Mystical Mirror                               SR0306 1066807A                                
SO FAMCHA020901013335013347000012Sign Off (oct 1)                                                                                                                                               
OFFFAMCHA020901013347043000025613                                                                                                                                                               
SO FAMCHA020902043000043011000011Sign On (oct 1)                                                                                                                                                
PGRFAMCHA020902043011045416002405Out of the Box                                    Pop To It!                                                          A6068607A                                
ID FAMCHA020902045416045421000005Generic ID - Bubbles*                                                                                                       150                                
PROFAMCHA020902045421045431000010xxPS Line-Up - 01 - ART/KATIE/HOZE                                                                                          150                                
PGRFAMCHA020902045431050939001508Art Attack                                        1-002                                                                60686110                                
ID FAMCHA020902050939050944000005Generic ID - Couch 1*                                                                                                       150                                
PRCFAMCHA020902050944051006000022Hoze Houndz (FIREFIGHTER) - Today @ 5:40am                                                                                  150                                
INTFAMCHA020902051006051350000344Art Attack - Kids On Swing                                                                                             60686120                                
PROFAMCHA020902051350051400000010xxPS Line-Up - 02 - KATIE/HOZE/LULU                                                                                         150                                
PROFAMCHA020902051400051408000008CC Is Brought To You By - Ian **DNU AFTER 09/22**                                                                           150                                
PGRFAMCHA020902051408054044002636Katie And Orbie                                   The Library/Rollerskates/Scary Movie                          C12449A1065607ECC                              
ID FAMCHA020902054044054050000006Generic ID - soccer                                                                                                         150                                
PROFAMCHA020902054050054100000010xxPS Line-Up - 03 - HOZE/LULU/GOOF                                                                                          150                                
PROFAMCHA020902054100054108000008CC Is Brought To You By - Lark **DNU AFTER 09/22**                                                                          150                                
PGRFAMCHA020902054108060343002235Hoze Houndz                                       Ranger Bob/Bad Medicine                                       B34011A1065607ECC                              
ID FAMCHA020902060343060348000005Generic ID - Marbles                                                                                                        150                                
PROFAMCHA020902060348060400000012Buzz Lightyear (SPACE RANGER) - Today @ 7:30am                                                                              150                                
PROFAMCHA020902060400060426000026Pepper Ann (OBSESSION - NEW EPS) - Today @ 3:50pm                                                                           150                                
PROFAMCHA020902060426060450000024Legend of Tarzan (S.O.S) - Today @ 4:15pm                                                                                   150                                
PROFAMCHA020902060450060500000010xxPS Line-Up - 04 - LULU/GOOF/HOM                                                                                           150                                
PROFAMCHA020902060500060508000008CC Is Brought To You By - Ian **DNU AFTER 09/22**                                                                           150                                
PGRFAMCHA020902060508062839002331Little Lulu Show; The                             Hooky Holiday, Red Tape Run Around, Country Clubby            B20201A1065607ECC                              
ID FAMCHA020902062839062849000010Generic ID - Pink inner tube                                                                                                150                                
PROFAMCHA020902062849062922000033Stanley (CAT BATH - NEW EPS) - Today @ 9:35am                                                                               150                                
PRCFAMCHA020902062922062940000018Franklin (CAST) - Today @ 8:25am                                                                                            150                                
PROFAMCHA020902062940062950000010xxPS Line-Up - 05 - GOOF/HOM/BUZZ                                                                                           150                                
ID FAMCHA020902062950063004000014xxMagic of Disney - V4 - KID MALE                                                                                           150                                
PROFAMCHA020902063004063012000008CC Is Brought To You By - Lark **DNU AFTER 09/22**                                                                          150                                
PGRFAMCHA020902063012065303002251Goof Troop                                        Where There's Smoke, There's Goof                                    6068607ECC                              
ID FAMCHA020902065303065313000010Generic ID - Ring around the rosie                                                                                          150                                
PROFAMCHA020902065313065349000036Weekenders (CLOWN2 - NEW EPS) - Today @ 4:40pm                                                                              150                                
PROFAMCHA020902065349065422000033House of Mouse (PETE - NEW EPS) - Coming Up                                                                                 150                                
PRCFAMCHA020902065422065438000016xxHenry's World (SOCCER) - Weekends @ 6:40pm                                                                                150                                
ID FAMCHA020902065438065458000020Schoolhouse Promo - Coming Up                                                                                               150                                
PRCFAMCHA020902065458065522000024Franklin (LADDER) - Today @ 8:25am                                                                                          150                                
INTFAMCHA020902065522065845000323Schoolhouse Rock - Walkin' On Wall Street                                                                             A60686120                                
PROFAMCHA020902065845065909000024Legend of Tarzan (S.O.S) - Today @ 4:15pm                                                                                   150                                
PROFAMCHA020902065909065942000033Book Of Pooh (ADVENTURE - NEW EPS) - Tomorrow @ 10                                                                          150                                
PROFAMCHA020902065942065954000012Buzz Lightyear (SPACE RANGER) - Today @ 7:30am                                                                              150                                
PROFAMCHA020902065954070004000010xxPS Line-Up - 06 - HOM/BUZZ/LULU                                                                                           150                                
PGRFAMCHA020902070004072241002237Disney's House Of Mouse                           Mickey & Minnie's Big Vacation                                      A6028607E                                
ID FAMCHA020902072241072252000011Generic ID - soccer                                                                                                         150                                
PROFAMCHA020902072252072304000012Buzz Lightyear (SPACE RANGER) - Coming Up                                                                                   150                                
PROFAMCHA020902072304072328000024Legend of Tarzan (S.O.S) - Today @ 4:15pm                                                                                   150                                
PRCFAMCHA020902072328072406000038Funshine 2002 - GENERIC TOUR SPOT                                                                                           150                                
PRCFAMCHA020902072406072429000023Funshine 2002 - Spot #18 - SEP 01 TO SEP 02                                                                                 150                                
PROFAMCHA020902072429072502000033Book Of Pooh (ADVENTURE - NEW EPS) - Tomorrow @ 10                                                                          150                                
INTFAMCHA020902072502072936000434Art Attack - Army Surplus Helicopter                                                                                   60686120                                
PRCFAMCHA020902072936072954000018Franklin (CAST) - Tomorrow @ 8:25am                                                                                         150                                
PROFAMCHA020902072954073004000010xxPS Line-Up - 07 - BUZZ/LULU/FRANKLIN                                                                                      150                                
PROFAMCHA020902073004073012000008CC Is Brought To You By - Ian **DNU AFTER 09/22**                                                                           150                                
PGRFAMCHA020902073012075205002153Disney/Pixar's Buzz Lightyear of Star Command     A Zoo Out There                                                      6068607ECC                              
ID FAMCHA020902075205075215000010Generic ID - Hula Hoop                                                                                                      150                                
PROFAMCHA020902075215075248000033House of Mouse (PETE - NEW EPS) - Tomorrow @ 7am                                                                            150                                
PRCFAMCHA020902075248075326000038Funshine 2002 - GENERIC TOUR SPOT                                                                                           150                                
PRCFAMCHA020902075326075349000023Funshine 2002 - Spot #18 - SEP 01 TO SEP 02                                                                                 150                                
PRCFAMCHA020902075349075411000022Hoze Houndz (FIREFIGHTER) - Today @ 11:15am                                                                                 150                                
INTFAMCHA020902075411075801000350Art Attack - Boy With A YoYo                                                                                           60686120                                
PROFAMCHA020902075801075813000012Buzz Lightyear (SPACE RANGER) - Today @ 3:25pm                                                                              150                                
INTFAMCHA020902075813075954000141Mix Ups - Mixed up messages                                                                                            60688120                                
PROFAMCHA020902075954080008000014xxPS Line-Up - 08 - LULU/FRANKLIN/ELMO                                                                                      150                                
PROFAMCHA020902080008080016000008CC Is Brought To You By - Lark **DNU AFTER 09/22**                                                                          150                                
PGRFAMCHA020902080016082351002335Little Lulu Show; The                             Wild Boy, The Whistle Blower, Elephant Ride                   B20186A1065607ECC                              
ID FAMCHA020902082351082406000015Generic ID - confetti                                                                                                       150                                
PRCFAMCHA020902082406082424000018Franklin (CAST) - Coming Up                                                                                                 150                                
PROFAMCHA020902082424082436000012Buzz Lightyear (SPACE RANGER) - Today @ 3:25pm                                                                              150                                
PRCFAMCHA020902082436082459000023xxHenry's World (ICE CREAM) - Weekends @ 6:40pm                                                                             150                                
PROFAMCHA020902082459082509000010xxPS Line-Up - 09 - FRANKLIN/ELMO/KATIE                                                                                     150                                
PROFAMCHA020902082509082517000008CC Is Brought To You By - Ian **DNU AFTER 09/22**                                                                           150                                
PGRFAMCHA020902082517084810002253Franklin                                          Crystal/Advice                                                A53213A1065607ECC                              
ID FAMCHA020902084810084825000015Generic ID - confetti                                                                                                       150                                
PROFAMCHA020902084825084858000033Book Of Pooh (ADVENTURE - NEW EPS) - Tomorrow @ 10                                                                          150                                
PROFAMCHA020902084858084910000012xxPS Line-Up - 10 - ELMO/KATIE/STANLEY                                                                                      150                                
PGRFAMCHA020902084910090437001527Elmo's World                                      Farms                                                               A2068607G                                
PRCFAMCHA020902090437090459000022Hoze Houndz (FIREFIGHTER) - Today @ 11:15am                                                                                 150                                
PROFAMCHA020902090459090519000020Out Of The Box (NEW EPS) - Today @ 10:25am                                                                                  150                                
INTFAMCHA020902090519090718000159Disney Moments-Fun And Fancy Free-Jack And The Bea                                                                     60688120                                
PROFAMCHA020902090718090751000033House of Mouse (PETE - NEW EPS) - Tomorrow @ 7am                                                                            150                                
PROFAMCHA020902090751090801000010xxPS Line-Up - 11 (MON/WED/FRI) - KATIE/STANLEY/WT                                                                          150                                
PROFAMCHA020902090801090809000008CC Is Brought To You By - Lark **DNU AFTER 09/22**                                                                          150                                
PGRFAMCHA020902090809093447002638Katie And Orbie                                   Raccoon Rescue/Cheer Up Pals/Maple Sugar                      C19665A1055607ECC3                             
ID FAMCHA020902093447093457000010Generic ID - Pink inner tube                                                                                                150                                
PROFAMCHA020902093457093530000033Stanley (CAT BATH - NEW EPS) - Coming Up                                                                                    150                                
PROFAMCHA020902093530093550000020Out Of The Box (NEW EPS) - Today @ 10:25am                                                                                  150                                
PROFAMCHA020902093550093602000012xxPS Line-Up - 12 (MON/WED/FRI) - STANLEY/WTP/OOTB                                                                          150                                
PROFAMCHA020902093602093610000008CC Is Brought To You By - Ian **DNU AFTER 09/22**                                                                           150                                
PGRFAMCHA020902093610100008002358Stanley                                           Up The Apple/Kangaroo Clean Up                                      A6068607ECC                              
ID FAMCHA020902100008100015000007Generic ID - Whisper*                                                                                                       150                                
PROFAMCHA020902100015100043000028xxKim Possible (SOCKS) - Weekends @ 4:35pm**DO NOT                                                                          150                                
PROFAMCHA020902100043100053000010xxPS Line-Up - 13 (MON/WED/FRI) - WTP/OOTB/DUCKTAL                                                                          150                                
ID FAMCHA020902100053100103000010xxMagic of Disney - V4 - KID FEMALE                                                                                         150                                
PROFAMCHA020902100103100111000008CC Is Brought To You By - Lark **DNU AFTER 09/22**                                                                          150                                
PGRFAMCHA020902100111102356002245New Adventures of Winnie the Pooh; The            Honey For A Bunny/Trap As Trap Can                                  A6068607ECC                              
ID FAMCHA020902102356102407000011Generic ID - soccer                                                                                                         150                                
PROFAMCHA020902102407102427000020Out Of The Box (NEW EPS) - Coming Up                                                                                        150                                
PRCFAMCHA020902102427102449000022Hoze Houndz (FIREFIGHTER) - Today @ 11:15am                                                                                 150                                
PRCFAMCHA020902102449102519000030xxHenry's World (SECRET) - Weekends @ 6:40pm                                                                                150                                
PROFAMCHA020902102519102552000033Book Of Pooh (ADVENTURE - NEW EPS) - Tomorrow @ 10                                                                          150                                
PROFAMCHA020902102552102602000010xxPS Line-Up - 14 - OOTB/DUCKTALES/HOZE                                                                                     150                                
PGRFAMCHA020902102602105007002405Out of the Box                                    Read The Signs!                                                     A6028607A                                
ID FAMCHA020902105007105012000005Generic ID - Couch 1*                                                                                                       150                                
PRCFAMCHA020902105012105034000022Hoze Houndz (FIREFIGHTER) - Today @ 11:15am                                                                                 150                                
PRCFAMCHA020902105034105052000018Franklin (CAST) - Tomorrow @ 8:25am                                                                                         150                                
PROFAMCHA020902105052105102000010xxPS Line-Up - 15 - DUCKTALES/HOZE/LULU                                                                                     150                                
PROFAMCHA020902105102105110000008CC Is Brought To You By - Ian **DNU AFTER 09/22**                                                                           150                                
PGRFAMCHA020902105110111357002247Disney's DuckTales                                Allowance Day                                                       A6068607ECC                              
ID FAMCHA020902111357111407000010Generic ID - Pink inner tube                                                                                                150                                
PRCFAMCHA020902111407111429000022Hoze Houndz (FIREFIGHTER) - Coming Up                                                                                       150                                
PROFAMCHA020902111429111502000033Book Of Pooh (ADVENTURE - NEW EPS) - Tomorrow @ 10                                                                          150                                
PRCFAMCHA020902111502111528000026xxHenry's World (MERRY GO ROUND) - Weekends @ 6:40                                                                          150                                
PROFAMCHA020902111528111554000026Pepper Ann (OBSESSION - NEW EPS) - Today @ 3:50pm                                                                           150                                
PROFAMCHA020902111554111604000010xxPS Line-Up - 16 - HOZE/LULU                                                                                               150                                
PROFAMCHA020902111604111612000008CC Is Brought To You By - Lark **DNU AFTER 09/22**                                                                          150                                
PGRFAMCHA020902111612113847002235Hoze Houndz                                       Jail Houndz/Crystal Clear                                     B34012A1065607ECC                              
ID FAMCHA020902113847113852000005Generic ID - Couch 2*                                                                                                       150                                
PRCFAMCHA020902113852113922000030xxHenry's World (TOOTH FAIRY) - Weekends @ 6:40pm                                                                           150                                
PROFAMCHA020902113922113958000036Weekenders (CLOWN2 - NEW EPS) - Today @ 4:40pm                                                                              150                                
PROFAMCHA020902113958114034000036Teamo Supremo (STINGER) - Weekends @ 5pm                                                                                    150                                
PROFAMCHA020902114034114058000024Legend of Tarzan (S.O.S) - Today @ 4:15pm                                                                                   150                                
PROFAMCHA020902114058114107000009xxPS Line-Up - 17 - LULU                                                                                                    150                                
PROFAMCHA020902114107114115000008CC Is Brought To You By - Ian **DNU AFTER 09/22**                                                                           150                                
PGRFAMCHA020902114115120452002337Little Lulu Show; The                             The Beast in the Clubhouse, Gone Finshin', Out, Ou            B20187A1065607ECC                              
ID FAMCHA020902120452120457000005Generic ID - Couch 1*                                                                                                       150                                
PROFAMCHA020902120457120518000021xxSmart Guy (KEYBOARD) - Coming Up **DNU**                                                                                  150                                
PROFAMCHA020902120518120538000020xxAll That - Tonight @ 6:30pm *DNU*                                                                                         150                                
ID FAMCHA020902120538120556000018Afternoon block pinball open                                                                                                150                                
PROFAMCHA020902120556120604000008CC Is Brought To You By - Lark **DNU AFTER 09/22**                                                                          150                                
PGRFAMCHA020902120604122832002228Smart Guy                                         Dateline                                                            A6068807BCC                              
ID FAMCHA020902122832122837000005Generic ID - Marbles                                                                                                        150                                
PROFAMCHA020902122837122903000026Pepper Ann (OBSESSION - NEW EPS) - Today @ 3:50pm                                                                           150                                
PRCFAMCHA020902122903122925000022Hoze Houndz (FIREFIGHTER) - Today @ 3pm                                                                                     150                                
PROFAMCHA020902122925123008000043Lizzie McGuire (TRASH - NEW EPS) - Today @ 5:35pm                                                                           150                                
PROFAMCHA020902123008123020000012Buzz Lightyear (SPACE RANGER) - Today @ 3:25pm                                                                              150                                
PRCFAMCHA020902123020123046000026xxHenry's World (MERRY GO ROUND) - Weekends @ 6:40                                                                          150                                
PROFAMCHA020902123046123056000010xxPS Line-Up - 18 - ELMO/KATIE/STANLEY                                                                                      150                                
PGRFAMCHA020902123056124833001737Elmo's World                                      Telephone                                                           A2068607G                                
ID FAMCHA020902124833124838000005Generic ID - Marbles                                                                                                        150                                
PROFAMCHA020902124838124911000033Stanley (CAT BATH) - Today @ 1:20pm                                                                                         150                                
PROFAMCHA020902124911124931000020Out Of The Box (NEW EPS) - Today @ 2:10pm                                                                                   150                                
PRCFAMCHA020902124931124954000023xxHenry's World (ICE CREAM) - Weekends @ 6:40pm                                                                             150                                
PROFAMCHA020902124954125022000028xxKim Possible (SOCKS) - Weekends @ 4:35pm**DO NOT                                                                          150                                
PROFAMCHA020902125022125046000024Legend of Tarzan (S.O.S) - Today @ 4:15pm                                                                                   150                                
PROFAMCHA020902125046125056000010xxPS Line-Up - 19 (MON/WED/FRI) - KATIE/STANLEY/WT                                                                          150                                
PROFAMCHA020902125056125104000008CC Is Brought To You By - Ian **DNU AFTER 09/22**                                                                           150                                
PGRFAMCHA020902125104131740002636Katie And Orbie                                   The Thunderstorm/The Rabbit and How To Make It Sta            P16140A1065607E                                
ID FAMCHA020902131740131750000010Generic ID - Bubbles                                                                                                        150                                
PROFAMCHA020902131750131823000033Stanley (CAT BATH - NEW EPS) - Coming Up                                                                                    150                                
PRCFAMCHA020902131823131846000023xxHenry's World (ICE CREAM) - Weekends @ 6:40pm                                                                             150                                
PROFAMCHA020902131846131856000010xxPS Line-Up - 20 (MON/WED/FRI) - STANLEY/WTP/OOTB                                                                          150                                
PROFAMCHA020902131856131904000008CC Is Brought To You By - Lark **DNU AFTER 09/22**                                                                          150                                
PGRFAMCHA020902131904134302002358Stanley                                           Up The Apple/Kangaroo Clean Up                                      A6068607ECC                              
ID FAMCHA020902134302134307000005Generic ID - Marbles                                                                                                        150                                
PRCFAMCHA020902134307134337000030xxHenry's World (SECRET) - Weekends @ 6:40pm                                                                                150                                
PROFAMCHA020902134337134347000010xxPS Line-Up - 21 (MON/WED/FRI) - WTP/OOTB/DUCKTAL                                                                          150                                
ID FAMCHA020902134347134401000014xxMagic of Disney - V3(water) - TEEN FEMALE                                                                                 150                                
PROFAMCHA020902134401134409000008CC Is Brought To You By - Ian **DNU AFTER 09/22**                                                                           150                                
PGRFAMCHA020902134409140659002250New Adventures of Winnie the Pooh; The            Masked Offender/Things That Go...                                   A6068607ECC                              
ID FAMCHA020902140659140709000010Generic ID - Family w/dog                                                                                                   150                                
PROFAMCHA020902140709140729000020Out Of The Box (NEW EPS) - Coming Up                                                                                        150                                
PRCFAMCHA020902140729140751000022Hoze Houndz (FIREFIGHTER) - Today @ 3pm                                                                                     150                                
PROFAMCHA020902140751140817000026Pepper Ann (OBSESSION - NEW EPS) - Today @ 3:50pm                                                                           150                                
PROFAMCHA020902140817140850000033House of Mouse (PETE - NEW EPS) - Tomorrow @ 7am                                                                            150                                
PROFAMCHA020902140850140904000014xxPS Line-Up - 22 - OOTB/DUCKTALES/HOZE                                                                                     150                                
PGRFAMCHA020902140904143309002405Out of the Box                                    Read The Signs!                                                     A6068607A                                
ID FAMCHA020902143309143314000005Generic ID - Fingerpaint                                                                                                    150                                
PROFAMCHA020902143314143347000033House of Mouse (PETE - NEW EPS) - Tomorrow @ 7am                                                                            150                                
PROFAMCHA020902143347143420000033Book Of Pooh (ADVENTURE - NEW EPS) - Tomorrow @ 10                                                                          150                                
PRCFAMCHA020902143420143436000016xxHenry's World (SOCCER) - Weekends @ 6:40pm                                                                                150                                
PRCFAMCHA020902143436143458000022Hoze Houndz (FIREFIGHTER) - Today @ 3pm                                                                                     150                                
PROFAMCHA020902143458143506000008xxPS Line-Up - 23 - DUCKTALES (14:35PM)                                                                                     150                                
PROFAMCHA020902143506143514000008CC Is Brought To You By - Lark **DNU AFTER 09/22**                                                                          150                                
PGRFAMCHA020902143514145802002248Disney's DuckTales                                Bubbeo & Juliet                                                     A6068607ECC                              
ID FAMCHA020902145802145807000005Generic ID - Marbles                                                                                                        150                                
PRCFAMCHA020902145807145829000022Hoze Houndz (FIREFIGHTER) - Coming Up                                                                                       150                                
PROFAMCHA020902145829145849000020Recess (BALLS) - Today @ 5:10pm                                                                                             150                                
PROFAMCHA020902145849145913000024Legend of Tarzan (S.O.S) - Today @ 4:15pm                                                                                   150                                
PROFAMCHA020902145913145939000026Pepper Ann (OBSESSION - NEW EPS) - Today @ 3:50pm                                                                           150                                
ID FAMCHA020902145939145957000018Afternoon block pinball open                                                                                                150                                
PROFAMCHA020902145957150005000008CC Is Brought To You By - Ian **DNU AFTER 09/22**                                                                           150                                
PGRFAMCHA020902150005152240002235Hoze Houndz                                       The Day The Houndz Stood Still/Poeticize                      B34013A1065607ECC                              
ID FAMCHA020902152240152250000010Generic ID - Pink inner tube                                                                                                150                                
PROFAMCHA020902152250152310000020xxAll That - Tonight @ 6:30pm *DNU*                                                                                         150                                
PROFAMCHA020902152310152353000043Lizzie McGuire (TRASH - NEW EPS) - Today @ 5:35pm                                                                           150                                
PROFAMCHA020902152353152429000036Weekenders (CLOWN2 - NEW EPS) - Today @ 4:40pm                                                                              150                                
PRCFAMCHA020902152429152439000010Morning Block menu background (flex time)                                                                                   150                                
ID FAMCHA020902152439152500000021Afternoon block pinball open                                                                                                150                                
PROFAMCHA020902152500152508000008CC Is Brought To You By - Games                                                                                             150                                
PGRFAMCHA020902152508154701002153Disney/Pixar's Buzz Lightyear of Star Command     The Lightyear Factory                                                6068607ECC                              
ID FAMCHA020902154701154707000006Generic ID - soccer                                                                                                         150                                
PROFAMCHA020902154707154743000036Weekenders (CLOWN2 - NEW EPS) - Today @ 4:40pm                                                                              150                                
PROFAMCHA020902154743154809000026Pepper Ann (OBSESSION - NEW EPS) - Coming Up                                                                                150                                
PROFAMCHA020902154809154852000043Lizzie McGuire (TRASH - NEW EPS) - Today @ 5:35pm                                                                           150                                
PROFAMCHA020902154852154933000041Amanda Show (KYLE) - Tonight @ 6pm                                                                                          150                                
PRCFAMCHA020902154933154942000009Morning Block menu background (flex time)                                                                                   150                                
ID FAMCHA020902154942155000000018Afternoon block pinball open                                                                                                150                                
PROFAMCHA020902155000155008000008CC Is Brought To You By - Click Club                                                                                        150                                
PGRFAMCHA020902155008161243002235Disney's Pepper Ann                               One With Mr. Reason/Sense And Senselessness                         A6028607E                                
ID FAMCHA020902161243161250000007Generic ID - Whisper*                                                                                                       150                                
PROFAMCHA020902161250161310000020xxAll That - Tonight @ 6:30pm *DNU*                                                                                         150                                
PROFAMCHA020902161310161334000024Legend of Tarzan (S.O.S) - Coming Up                                                                                        150                                
PRCFAMCHA020902161334161412000038Funshine 2002 - GENERIC TOUR SPOT                                                                                           150                                
PRCFAMCHA020902161412161435000023Funshine 2002 - Spot #18 - SEP 01 TO SEP 02                                                                                 150                                
PROFAMCHA020902161435161511000036Weekenders (CLOWN2 - NEW EPS) - Today @ 4:40pm                                                                              150                                
PROFAMCHA020902161511161532000021Even Stevens (TOILET - NEW EPS) - Tonight @ 7pm                                                                             150                                
PRCFAMCHA020902161532161542000010Morning Block menu background (flex time)                                                                                   150                                
ID FAMCHA020902161542161600000018Afternoon block pinball open                                                                                                150                                
PGRFAMCHA020902161600163846002246Disney's The Legend of Tarzan                     Enemy Within                                                        A6068607E                                
ID FAMCHA020902163846163856000010Generic ID - Pink inner tube                                                                                                150                                
PROFAMCHA020902163856163932000036Weekenders (CLOWN2 - NEW EPS) - Coming Up                                                                                   150                                
PROFAMCHA020902163932164015000043Lizzie McGuire (TRASH - NEW EPS) - Today @ 5:35pm                                                                           150                                
PROFAMCHA020902164015164102000047Amanda Show (HAM) - Tonight @ 6pm                                                                                           150                                
PROFAMCHA020902164102164132000030xxBoy Meets World - Tonight @ 8pm                                                                                           150                                
PRCFAMCHA020902164132164142000010Morning Block menu background (flex time)                                                                                   150                                
ID FAMCHA020902164142164200000018Afternoon block pinball open                                                                                                150                                
PGRFAMCHA020902164200170432002232Disney's The Weekenders                           Shoes Of Destiny/Sense and Sensitivity                              A6028607ECC                              
ID FAMCHA020902170432170442000010Generic ID - Hula Hoop                                                                                                      150                                
PROFAMCHA020902170442170521000039Recess (MAJORITY) - Coming Up                                                                                               150                                
PROFAMCHA020902170521170542000021Even Stevens (TOILET - NEW EPS) - Tonight @ 7pm                                                                             150                                
INTFAMCHA020902170542170646000104Jack and Marcel: Ep.112 "Check Mate"                                                                                  A40688120                                
PROFAMCHA020902170646170712000026Pepper Ann (OBSESSION - NEW EPS) - Weekdays @ 3:50                                                                          150                                
PROFAMCHA020902170712170732000020xxAll That - Tonight @ 6:30pm *DNU*                                                                                         150                                
PRCFAMCHA020902170732170742000010Morning Block menu background (flex time)                                                                                   150                                
ID FAMCHA020902170742170800000018Afternoon block pinball open                                                                                                150                                
PGRFAMCHA020902170800173035002235Disney's Recess                                   The Substitute/Gretchen and the Secret of Yo                         6068607E                                
ID FAMCHA020902173035173045000010Generic ID - Bubbles                                                                                                        150                                
PROFAMCHA020902173045173106000021Even Stevens (TOILET - NEW EPS) - Tonight @ 7pm                                                                             150                                
PROFAMCHA020902173106173149000043Lizzie McGuire (TRASH - NEW EPS) - Coming Up                                                                                150                                
PROFAMCHA020902173149173225000036Weekenders (CLOWN2 - NEW EPS) - Weekdays @ 4:40pm                                                                           150                                
PRCFAMCHA020902173225173251000026xxHenry's World (MERRY GO ROUND) - Weekends @ 6:40                                                                          150                                
PROFAMCHA020902173251173311000020xxAll That - Tonight @ 6:30pm *DNU*                                                                                         150                                
PROFAMCHA020902173311173341000030xxKim Possible (FAMILY) - Weekends @ 4:35pm**DO NO                                                                          150                                
PRCFAMCHA020902173341173350000009Morning Block menu background (flex time)                                                                                   150                                
ID FAMCHA020902173350173400000010xxMagic of Disney - V3(water) - ADULT MALE                                                                                  150                                
PGRFAMCHA020902173400175632002232Lizzie McGuire                                    Scarlett Larry                                                      A6028607BCC                              
ID FAMCHA020902175632175642000010Generic ID - Bubbles                                                                                                        150                                
PRCFAMCHA020902175642175720000038Funshine 2002 - GENERIC TOUR SPOT                                                                                           150                                
PRCFAMCHA020902175720175743000023Funshine 2002 - Spot #18 - SEP 01 TO SEP 02                                                                                 150                                
PROFAMCHA020902175743175811000028xxKim Possible (SOCKS) - Weekends @ 4:35pm**DO NOT                                                                          150                                
INTFAMCHA020902175811175941000130Family X-Pedition - Ep.01                                                                                             A10656120                                
