SO FAMCHA040501043000043011000011Sign On (oct 1)                                                                                                                                                
PROFAMCHA040501043011043020000009CC Disclaimer - FAST - Family (:08-:10)                                                                                     150                                
PGRFAMCHA040501043020045313002253Franklin                                          Franklin Stays Up/Franklin's Bargain                          A53202A1065607ECC                              
PROFAMCHA040501045313045327000014Nnstp Wknd - 01(PH) - WTP/KATIE/FRANKLIN (:14-:16)                                                                          150                                
ID FAMCHA040501045327045337000010PS Playhouse AM Block Open (:10-:15)                                                                                        150                                
PROFAMCHA040501045337045346000009CC Disclaimer - FAST - Family.ca (:08-:10)                                                                                  150                                
PGRFAMCHA040501045346051623002237New Adventures of Winnie the Pooh; The            A Pooh Day Afternoon                                                 6068607ECC                              
PROFAMCHA040501051623051637000014Nnstp Wknd - 02(PH) - KATIE/FRANKLIN/RIPLEY (:14-:                                                                          150                                
PRCFAMCHA040501051637051651000014Playhouse - HOZE HOUNDZ - Skater                                                                                            150                                
ID FAMCHA040501051651051701000010PS Playhouse AM Block Open (:10-:15)                                                                                        150                                
PROFAMCHA040501051701051711000010CC Disclaimer - FAST - Generic (:08-:10)                                                                                    150                                
PGRFAMCHA040501051711054349002638Katie And Orbie                                   A New Neighbour/A Perfect Place For Us/Charisse an            C19665A1065607ECC                              
PROFAMCHA040501054349054403000014Nnstp Wknd - 03(PH) - FRANKLIN/RIPLEY/NINJA (:14-:                                                                          150                                
ID FAMCHA040501054403054413000010PS Playhouse AM Block Open (:10-:15)                                                                                        150                                
PROFAMCHA040501054413054422000009CC Disclaimer - FAST - Family (:08-:10)                                                                                     150                                
PGRFAMCHA040501054422060715002253Franklin                                          Franklin and the Bus Patrol/Franklin and Wolvie               A53203A1065607ECC                              
PROFAMCHA040501060715060731000016Nnstp Wknd - 04(PH/MAR) - RIPLEY/NINJA/DINO (:14-:                                                                          150                                
PRCFAMCHA040501060731060745000014Playhouse - HOZE HOUNDZ - Skater                                                                                            150                                
ID FAMCHA040501060745060800000015PS Playhouse AM Block Open (:10-:15)                                                                                        150                                
PROFAMCHA040501060800060809000009CC Disclaimer - FAST - Family.ca (:08-:10)                                                                                  150                                
PGRFAMCHA040501060809063239002430Ripley's Believe It Or Not!                       Head's I Win, Tails You Lose                                  B71299 1065607ECC                              
PROFAMCHA040501063239063255000016Nnstp Wknd - 05(PB/MAR) - NINJA/DINO/LIZZIE (:14-:                                                                          150                                
PROFAMCHA040501063255063325000030Mom's On Strike - (PP) - Friday @ 7:30pm                                                                                    150                                
PROFAMCHA040501063325063401000036Power Rangers Dino Thunder (LONG) - Today @ 7am                                                                             150                                
PROFAMCHA040501063401063426000025Mother's Day Specials (Strike/Salute/All-Star) - M                                                                    A     150                                
PRCFAMCHA040501063426063445000019Radio Free Roscoe - Webthrow (Pronto)                                                                                       150                                
ID FAMCHA040501063445063500000015Power Box Block Open (:12-:15)                                                                                              150                                
PGRFAMCHA040501063500065624002124Power Rangers Ninja Storm                         EPS # 1-030                                                         A6068607E                                
PROFAMCHA040501065624065640000016Nnstp Wknd - 06(PB/MAR) - DINO/LIZZIE/RADIO (:14-:                                                                          150                                
PROFAMCHA040501065640065710000030Mom's On Strike - (PP) - Friday @ 7:30pm                                                                                    150                                
PROFAMCHA040501065710065746000036Power Rangers Dino Thunder (LONG) - Coming Up Next                                                                          150                                
PRCFAMCHA040501065746065816000030Power Rangers Dino Thunder Contest                                                                                          150                                
INTFAMCHA040501065816065921000105Gagsters - Handbag                                                                                                    A20686120                                
PROFAMCHA040501065921065946000025Mother's Day Specials (Strike/Salute/All-Star) - M                                                                    A     150                                
ID FAMCHA040501065946070000000014Power Box Block Open (:12-:15)                                                                                              150                                
PGRFAMCHA040501070000072129002129Power Rangers Dino Thunder                        EPS # 06                                                            A6068607E                                
PROFAMCHA040501072129072145000016Nnstp Wknd - 07(MAR) - LIZZIE/RADIO/AMANDA (:14-:1                                                                          150                                
PROFAMCHA040501072145072215000030Mom's On Strike - (PP) - Friday @ 7:30pm                                                                                    150                                
PROFAMCHA040501072215072249000034xxLizzie McGuire - GROWN UP (MD) - Coming Up                                                                                150                                
PRCFAMCHA040501072249072319000030Lizzie's Watch & Win Contest                                                                                                150                                
PROFAMCHA040501072319072329000010FAMJAM - Open                                                                                                               150                                
INTFAMCHA040501072329072659000330MV Disney - Come Clean (Hillary Duff)                                                                                  60688120                                
PROFAMCHA040501072659072713000014xxFAMJAM - Close (WEB) xxDNUxx                                                                                              150                                
PRCFAMCHA040501072713072803000050Bullying PSA - Ongoing to September 1                                                                                       150                                
INTFAMCHA040501072803072849000046Gagsters - Scurrying Skunk                                                                                            A20686120                                
PRCFAMCHA040501072849072919000030xxRadio Free Roscoe (NSW/AM) - Today @ 8am                                                                                  150                                
PROFAMCHA040501072919072944000025Mother's Day Specials (Strike/Salute/All-Star) - M                                                                    A     150                                
ID FAMCHA040501072944073000000016Nonstop Weekend Block Open (:14-:17)                                                                                        150                                
ID FAMCHA040501073000073008000008Magic of Disney - NS/NSW/PB - Shape (:06-:09)                                                                               150                                
PROFAMCHA040501073008073017000009CC Disclaimer - FAST - Generic (:08-:10)                                                                                    150                                
PGRFAMCHA040501073017075250002233Lizzie McGuire                                    Inner Beauty II: A Gordo Story                                      A6068607B                                
PROFAMCHA040501075250075304000014Nnstp Wknd - 08 - RADIO/AMANDA/ALL (:14-:16)                                                                                150                                
PROFAMCHA040501075304075334000030Mom's On Strike - (PP) - Friday @ 7:30pm                                                                                    150                                
PRCFAMCHA040501075334075404000030xxRadio Free Roscoe (NSW) - Coming Up Next                                                                                  150                                
PRCFAMCHA040501075404075434000030Lizzie's Watch & Win Contest                                                                                                150                                
PROFAMCHA040501075434075444000010FAMJAM - Open                                                                                                               150                                
INTFAMCHA040501075444075807000323MV Disney - Superstition (Raven)                                                                                       60688120                                
PROFAMCHA040501075807075821000014FAMJAM - Close (EMAIL)                                                                                                      150                                
PRCFAMCHA040501075821075851000030xxFamily Birthday Club #3 - ONGOING (P) xxDNUxx                                                                             150                                
PROFAMCHA040501075851075921000030Amanda Show - FACES - (NSW) - Today @ 8:30am                                                                                150                                
PROFAMCHA040501075921075946000025Mother's Day Specials (Strike/Salute/All-Star) - M                                                                    A     150                                
ID FAMCHA040501075946080000000014Nonstop Weekend Block Open (:14-:17)                                                                                        150                                
PROFAMCHA040501080000080008000008CC Disclaimer - FAST - Family (:08-:10)                                                                                     150                                
PGRFAMCHA040501080008082238002230Radio Free Roscoe                                 EPS # 15                                                      A88728A1065607ACC                              
PROFAMCHA040501082238082252000014Nnstp Wknd - 09 - AMANDA/ALL/EVEN (:14-:16)                                                                                 150                                
PROFAMCHA040501082252082322000030Mom's On Strike - (PP) - Friday @ 7:30pm                                                                                    150                                
PROFAMCHA040501082322082352000030Amanda Show - FACES - (NSW) - Coming Up                                                                                     150                                
PRCFAMCHA040501082352082422000030Power Rangers Dino Thunder Contest                                                                                          150                                
PROFAMCHA040501082422082432000010FAMJAM - Open                                                                                                               150                                
INTFAMCHA040501082432082809000337MV Disney - So Yesterday LIVE (Hillary Duff)                                                                           60688120                                
PROFAMCHA040501082809082823000014FAMJAM - Close (EMAIL)                                                                                                      150                                
PRCFAMCHA040501082823082853000030xxFamily Birthday Club #4 - ONGOING (P) xxDNUxx                                                                             150                                
PROFAMCHA040501082853082923000030All That (NSW/MAR) - Today @ 9am                                                                                            150                                
PROFAMCHA040501082923082948000025Mother's Day Specials (Strike/Salute/All-Star) - M                                                                    A     150                                
ID FAMCHA040501082948083002000014Nonstop Weekend Block Open (:14-:17)                                                                                        150                                
PGRFAMCHA040501083002085207002205Amanda Show; The                                                                                                      A20686090                                
PROFAMCHA040501085207085223000016Nnstp Wknd - 10 - ALL/EVEN/RAVEN (:14-:16)                                                                                  150                                
PROFAMCHA040501085223085253000030Mom's On Strike - (PP) - Friday @ 7:30pm                                                                                    150                                
PROFAMCHA040501085253085323000030All That (NSW/MAR) - Coming Up Next                                                                                         150                                
PROFAMCHA040501085323085333000010FAMJAM - Open                                                                                                               150                                
INTFAMCHA040501085333085720000347MV Disney - Everybody Wants You (Josh Kelley)                                                                          60688120                                
PROFAMCHA040501085720085734000014FAMJAM - Close (LOGO)                                                                                                       150                                
PROFAMCHA040501085734085759000025Even Stevens (SIBLINGS) - (NSW) - Today @ 9:30am                                                                            150                                
INTFAMCHA040501085759085920000121Gagsters - Broken Bicycle                                                                                             A20686120                                
PROFAMCHA040501085920085945000025Mother's Day Specials (Strike/Salute/All-Star) - M                                                                    A     150                                
ID FAMCHA040501085945090000000015Nonstop Weekend Block Open (:14-:17)                                                                                        150                                
PROFAMCHA040501090000090009000009CC Disclaimer - FAST - Family.ca (:08-:10)                                                                                  150                                
PGRFAMCHA040501090009092010002001All That                                          EPS # 943                                                           A20686090                                
PROFAMCHA040501092010092024000014Nnstp Wknd - 11 - EVEN/RAVEN/BMW (:14-:16)                                                                                  150                                
PROFAMCHA040501092024092054000030Mom's On Strike - (PP) - Friday @ 7:30pm                                                                                    150                                
PROFAMCHA040501092054092119000025Even Stevens (SIBLINGS) - (NSW) - Coming Up                                                                                 150                                
PRCFAMCHA040501092119092149000030Lizzie's Watch & Win Contest                                                                                                150                                
PROFAMCHA040501092149092159000010FAMJAM - Open                                                                                                               150                                
INTFAMCHA040501092159092501000302MV Disney - Light and Day (Polyphonic Spree)                                                                           60688120                                
PROFAMCHA040501092501092515000014FAMJAM - Close (LOGO)                                                                                                       150                                
PROFAMCHA040501092515092546000031That's So Raven (APR04) - (NSW/AM) - Today @ 9:55a                                                                          150                                
INTFAMCHA040501092546092821000235Art Attack - Car Bike                                                                                                  60686120                                
PROFAMCHA040501092821092846000025Mother's Day Specials (Strike/Salute/All-Star) - M                                                                    A     150                                
ID FAMCHA040501092846092900000014Nonstop Weekend Block Open (:14-:17)                                                                                        150                                
ID FAMCHA040501092900092908000008Magic of Disney - NS/NSW/PB - Wipe (:06-:09)                                                                                150                                
PROFAMCHA040501092908092918000010CC Disclaimer - FAST - Generic (:08-:10)                                                                                    150                                
PGRFAMCHA040501092918095200002242Even Stevens                                      After Hours                                                         A6068807B                                
PROFAMCHA040501095200095216000016Nnstp Wknd - 12 - RAVEN/BMW/SMART (:14-:16)                                                                                 150                                
PROFAMCHA040501095216095246000030Mom's On Strike - (PP) - Friday @ 7:30pm                                                                                    150                                
PROFAMCHA040501095246095317000031That's So Raven (APR04) - (NSW) - Coming Up Next                                                                            150                                
PRCFAMCHA040501095317095412000055Kellogg's - Vote Blue Contest (March 29 - May 2)                                                                            150                                
PROFAMCHA040501095412095437000025Mother's Day Specials (Strike/Salute/All-Star) - M                                                                    A     150                                
ID FAMCHA040501095437095446000009xxBugs Bunny ID's - What's Up Doc? xDNUx                                                                                    150                                
ID FAMCHA040501095446095500000014Nonstop Weekend Block Open (:14-:17)                                                                                        150                                
PROFAMCHA040501095500095509000009CC Disclaimer - FAST - Family (:08-:10)                                                                                     150                                
PGRFAMCHA040501095509101749002240That's So Raven                                   Saturday Afternoon Fever                                            A6068807BCC                              
PROFAMCHA040501101749101805000016Nnstp Wknd - 13 - BMW/SMART/TEEN (:14-:16)                                                                                  150                                
PROFAMCHA040501101805101835000030Mom's On Strike - (PP) - Friday @ 7:30pm                                                                                    150                                
INTFAMCHA040501101835101920000045Gagsters - Hairy                                                                                                      A20686120                                
PROFAMCHA040501101920101945000025Mother's Day Specials (Strike/Salute/All-Star) - M                                                                    A     150                                
ID FAMCHA040501101945102000000015Nonstop Weekend Block Open (:14-:17)                                                                                        150                                
PROFAMCHA040501102000102009000009CC Disclaimer - FAST - Family.ca (:08-:10)                                                                                  150                                
PGRFAMCHA040501102009104035002026Boy Meets World                                   Singled Out                                                         B6068807BCC                              
PROFAMCHA040501104035104050000015Nnstp Wknd - 14 - SMART/TEEN/WISH (:14-:16)                                                                                 150                                
PROFAMCHA040501104050104120000030Mom's On Strike - (PP) - Friday @ 7:30pm                                                                                    150                                
PROFAMCHA040501104120104150000030xxTeen Angel - (NSW/AM) - Today @ 11:10am                                                                                   150                                
PRCFAMCHA040501104150104220000030Lizzie's Watch & Win Contest                                                                                                150                                
INTFAMCHA040501104220104346000126Gagsters - Arm Chair                                                                                                  A20686120                                
PRCFAMCHA040501104346104421000035Bullying Pledge - Ongoing to September 1                                                                                    150                                
PROFAMCHA040501104421104446000025Mother's Day Specials (Strike/Salute/All-Star) - M                                                                    A     150                                
ID FAMCHA040501104446104500000014Nonstop Weekend Block Open (:14-:17)                                                                                        150                                
PROFAMCHA040501104500104510000010CC Disclaimer - FAST - Generic (:08-:10)                                                                                    150                                
PGRFAMCHA040501104510110734002224Smart Guy                                         Break Up Not Make Up                                                A6068807BCC                              
PROFAMCHA040501110734110750000016Nnstp Wknd - 15 - TEEN/WISH (:14-:16)                                                                                       150                                
PROFAMCHA040501110750110820000030xxTeen Angel - (NSW) - Coming Up                                                                                            150                                
PRCFAMCHA040501110820110915000055Kellogg's - Vote Blue Contest (March 29 - May 2)                                                                            150                                
PROFAMCHA040501110915110945000030Mom's On Strike - (PP) - Friday @ 7:30pm                                                                                    150                                
ID FAMCHA040501110945111000000015Nonstop Weekend Block Open (:14-:17)                                                                                        150                                
PROFAMCHA040501111000111009000009CC Disclaimer - FAST - Family (:08-:10)                                                                                     150                                
PGRFAMCHA040501111009113054002045Teen Angel                                        Steve & Marty & Jordan & Uncle Lou                                  A6068807BCC                              
PROFAMCHA040501113054113110000016Nnstp Wknd - 16 - WISH (:14-:16)                                                                                            150                                
PROFAMCHA040501113110113140000030Mom's On Strike - (PP) - Friday @ 7:30pm                                                                                    150                                
PRCFAMCHA040501113140113235000055Kellogg's - Vote Blue Contest (March 29 - May 2)                                                                            150                                
INTFAMCHA040501113235113420000145Gagsters - Cheesy Pizza                                                                                               A20686120                                
PROFAMCHA040501113420113445000025Mother's Day Specials (Strike/Salute/All-Star) - M                                                                    A     150                                
ID FAMCHA040501113445113500000015Nonstop Weekend Block Open (:14-:17)                                                                                        150                                
PROFAMCHA040501113500113509000009CC Disclaimer - FAST - Family.ca (:08-:10)                                                                                  150                                
PGRFAMCHA040501113509115556002047You Wish                                          Gift Of The Travi                                                   A6068807BCC                              
PROFAMCHA040501115556115612000016Nnstp Wknd - 17(SEP) - WDP MOVIE (:14-:16)                                                                                  150                                
PROFAMCHA040501115612115642000030Mom's On Strike - (PP) - Friday @ 7:30pm                                                                                    150                                
PRCFAMCHA040501115642115712000030Weekend Double Pix Promo (ACTION) - Coming Up                                                                               150                                
INTFAMCHA040501115712115847000135Gagsters - Hidden Hamster                                                                                             A20686120                                
PROFAMCHA040501115847115921000034Fillmore (APR04) - (NSW) - Today @ 4:15pm                                                                                   150                                
PROFAMCHA040501115921115946000025Mother's Day Specials (Strike/Salute/All-Star) - M                                                                    A     150                                
ID FAMCHA040501115946120000000014Weekend Double Pix Movie Open (:13-:17)                                                                                     150                                
ID FAMCHA040501120000120009000009Rating - G - Ian (:08-:10)                                                                                                  150                                
PROFAMCHA040501120009120019000010CC Disclaimer - FAST - Generic (:08-:10)                                                                                    150                                
ID FAMCHA040501120019120027000008Magic of Disney - PIX - Shape (:06-:09)                                                                                     150                                
PGRFAMCHA040501120027134041014014Cadet Kelly                                                                                                           A6068807CCC                              
PROFAMCHA040501134041134057000016Nnstp Wknd - 17(SEP) - SPECIAL (:14-:16)                                                                                    150                                
PROFAMCHA040501134057134127000030Mom's On Strike - (PP) - Friday @ 7:30pm                                                                                    150                                
PROFAMCHA040501134127134157000030xxLilo & Stitch - (NSW) - Today @ 3:25pm                                                                                    150                                
PROFAMCHA040501134157134225000028Proud Family (BOND) - (NSW) - Today @ 3:50pm                                                                                150                                
INTFAMCHA040501134225134345000120Gagsters - Dirty Rat                                                                                                  A20686120                                
PROFAMCHA040501134345134419000034Fillmore (APR04) - (NSW) - Today @ 4:15pm                                                                                   150                                
PROFAMCHA040501134419134444000025Mother's Day Specials (Strike/Salute/All-Star) - M                                                                    A     150                                
ID FAMCHA040501134444134500000016Nonstop Weekend Block Open (:14-:17)                                                                                        150                                
PROFAMCHA040501134500134515000015Jammin' In Jamaica Billboard - OPEN                                                                                         150                                
ID FAMCHA040501134515134524000009Rating - G - Ian (:08-:10)                                                                                                  150                                
PGRFAMCHA040501134524142924004400Jammin' In Jamaica                                                                                                    A2028607C                                
PROFAMCHA040501142924142939000015Jammin' In Jamaica Billboard - CLOSE                                                                                        150                                
PROFAMCHA040501142939143009000030Mom's On Strike - (PP) - Friday @ 7:30pm                                                                                    150                                
PROFAMCHA040501143009143037000028xxKim Possible (APR04) - (MD) - Today @ 4:40pm  xx                                                                          150                                
PROFAMCHA040501143037143111000034xxLizzie McGuire - GROWN UP (NSW/PM) - Today @ 5:0                                                                          150                                
INTFAMCHA040501143111143405000254Art Attack - Dig Dinosaur                                                                                              60686120                                
PROFAMCHA040501143405143430000025Mother's Day Specials (Strike/Salute/All-Star) - M                                                                    A     150                                
PROFAMCHA040501143430143446000016Nnstp Wknd - 17(SEP) - SPECIAL (:14-:16)                                                                                    150                                
ID FAMCHA040501143446143500000014Nonstop Weekend Block Open (:14-:17)                                                                                        150                                
PROFAMCHA040501143500143509000009CC Disclaimer - FAST - Family.ca (:08-:10)                                                                                  150                                
ID FAMCHA040501143509143517000008Magic of Disney - NS/NSW/PB - Wipe (:06-:09)                                                                                150                                
PGRFAMCHA040501143517152254004737Disney's All-Star Mother's Day Album                                                                                  A6068807E                                
PROFAMCHA040501152254152310000016Nnstp Wknd - 19 - LILO/PROUD/FILLMORE (NOV2) (:14-                                                                          150                                
PROFAMCHA040501152310152340000030Mom's On Strike - (PP) - Friday @ 7:30pm                                                                                    150                                
PROFAMCHA040501152340152410000030xxLilo & Stitch - (NSW) - Coming Up                                                                                         150                                
INTFAMCHA040501152410152520000110Gagsters - Kite-astrophe                                                                                              A20686120                                
PROFAMCHA040501152520152545000025Mother's Day Specials (Strike/Salute/All-Star) - M                                                                    A     150                                
ID FAMCHA040501152545152600000015Nonstop Weekend Block Open (:14-:17)                                                                                        150                                
PROFAMCHA040501152600152610000010CC Disclaimer - FAST - Generic (:08-:10)                                                                                    150                                
PGRFAMCHA040501152610154849002239Disney's Lilo & Stitch: The Series                EPS # 27                                                            A6068607E                                
PROFAMCHA040501154849154903000014Nnstp Wknd - 20 - PROUD/FILLMORE/KIM (:14-:16)                                                                              150                                
PROFAMCHA040501154903154933000030Mom's On Strike - (PP) - Friday @ 7:30pm                                                                                    150                                
PROFAMCHA040501154933155001000028Proud Family (BOND) - (NSW) - Coming Up                                                                                     150                                
PROFAMCHA040501155001155026000025Even Stevens (SIBLINGS) - (NSW) - Tomorrow @ 9:30a                                                                          150                                
PROFAMCHA040501155026155051000025Mother's Day Specials (Strike/Salute/All-Star) - M                                                                    A     150                                
ID FAMCHA040501155051155105000014Nonstop Weekend Block Open (:14-:17)                                                                                        150                                
PROFAMCHA040501155105155114000009CC Disclaimer - FAST - Family (:08-:10)                                                                                     150                                
PGRFAMCHA040501155114161345002231Proud Family; The                                 Camping Trip                                                        A6068807ECC                              
PROFAMCHA040501161345161401000016Nnstp Wknd - 21 - FILLMORE/KIM/LIZZIE (:14-:16)                                                                             150                                
PROFAMCHA040501161401161431000030Mom's On Strike - (PP) - Friday @ 7:30pm                                                                                    150                                
PRCFAMCHA040501161431161526000055Kellogg's - Vote Blue Contest (March 29 - May 2)                                                                            150                                
PROFAMCHA040501161526161551000025Mother's Day Specials (Strike/Salute/All-Star) - M                                                                    A     150                                
ID FAMCHA040501161551161605000014Nonstop Weekend Block Open (:14-:17)                                                                                        150                                
PGRFAMCHA040501161605163843002238Disney's Fillmore!                                EPS # 1-010                                                         A6068607E                                
PROFAMCHA040501163843163858000015Nnstp Wknd - 22 - KIM/LIZZIE/RAVEN (:14-:16)                                                                                150                                
PROFAMCHA040501163858163928000030Mom's On Strike - (PP) - Friday @ 7:30pm                                                                                    150                                
PRCFAMCHA040501163928163958000030Power Rangers Dino Thunder Contest                                                                                          150                                
INTFAMCHA040501163958164023000025Harrisons; The - Stuff Through Window                                                                                 A10626120                                
PROFAMCHA040501164023164048000025Mother's Day Specials (Strike/Salute/All-Star) - M                                                                    A     150                                
ID FAMCHA040501164048164102000014Nonstop Weekend Block Open (:14-:17)                                                                                        150                                
PGRFAMCHA040501164102170356002254Disney's Kim Possible                             EPS # 1-036                                                         A6068607E                                
PROFAMCHA040501170356170411000015Nnstp Wknd - 23(SAT) - LIZZIE/RAVEN/TEEN (:14-:16)                                                                          150                                
PROFAMCHA040501170411170441000030Mom's On Strike - (PP) - Friday @ 7:30pm                                                                                    150                                
INTFAMCHA040501170441170521000040Harrisons; The - Joy Ride                                                                                             A10626120                                
PROFAMCHA040501170521170546000025Mother's Day Specials (Strike/Salute/All-Star) - M                                                                    A     150                                
ID FAMCHA040501170546170600000014Nonstop Weekend Block Open (:14-:17)                                                                                        150                                
ID FAMCHA040501170600170608000008Magic of Disney - NS/NSW/PB - Shape (:06-:09)                                                                               150                                
PROFAMCHA040501170608170617000009CC Disclaimer - FAST - Family.ca (:08-:10)                                                                                  150                                
PGRFAMCHA040501170617172850002233Lizzie McGuire                                    Magic Train                                                         A6068607B                                
PROFAMCHA040501172850172906000016Nnstp Wknd - 24(SAT) - RAVEN/TEEN/RADIO (:14-:16)                                                                           150                                
PROFAMCHA040501172906172936000030Mom's On Strike - (PP) - Friday @ 7:30pm                                                                                    150                                
INTFAMCHA040501172936173020000044Harrisons; The - Baby Spit Up                                                                                         A10626120                                
PROFAMCHA040501173020173045000025Mother's Day Specials (Strike/Salute/All-Star) - M                                                                    A     150                                
ID FAMCHA040501173045173100000015Nonstop Weekend Block Open (:14-:17)                                                                                        150                                
PROFAMCHA040501173100173110000010CC Disclaimer - FAST - Generic (:08-:10)                                                                                    150                                
PGRFAMCHA040501173110175350002240That's So Raven                                   Test of Friendship                                                  A6068807BCC                              
PROFAMCHA040501175350175405000015Nnstp Wknd - 25(SAT/MAR) - TEEN/RADIO/HOZE (:14-:1                                                                          150                                
PROFAMCHA040501175405175435000030Mom's On Strike - (PP) - Friday @ 7:30pm                                                                                    150                                
PROFAMCHA040501175435175505000030xxTeen Angel - (NSW) - Coming Up                                                                                            150                                
PROFAMCHA040501175505175530000025Mother's Day Specials (Strike/Salute/All-Star) - M                                                                    A     150                                
PRCFAMCHA040501175530175546000016Radio Free Roscoe - Webthrow (Smog)                                                                                         150                                
ID FAMCHA040501175546175600000014Nonstop Weekend Block Open (:14-:17)                                                                                        150                                
PROFAMCHA040501175600175609000009CC Disclaimer - FAST - Family (:08-:10)                                                                                     150                                
PGRFAMCHA040501175609181801002152Teen Angel                                        Grumpy Young Men                                                    A6068807BCC                              
PROFAMCHA040501181801181817000016Nnstp Wknd - 26(MAR) - RADIO/HOZE/FRANK (:14-:16)                                                                           150                                
PROFAMCHA040501181817181847000030Mom's On Strike - (PP) - Friday @ 7:30pm                                                                                    150                                
PROFAMCHA040501181847181921000034xxLizzie McGuire - GROWN UP (NSW/PM) - Tomorrow @                                                                           150                                
PROFAMCHA040501181921181946000025Mother's Day Specials (Strike/Salute/All-Star) - M                                                                    A     150                                
ID FAMCHA040501181946182000000014Nonstop Weekend Block Open (:14-:17)                                                                                        150                                
PROFAMCHA040501182000182009000009CC Disclaimer - FAST - Family.ca (:08-:10)                                                                                  150                                
PGRFAMCHA040501182009184239002230Radio Free Roscoe                                 EPS # 15                                                      A88728A1065607ACC                              
PROFAMCHA040501184239184253000014Nnstp Wknd - 27(MAR) - HOZE/FRANK/KING (:14-:16)                                                                            150                                
PROFAMCHA040501184253184316000023Hoze Houndz (Can't Fly) (NSW) - Coming Up Next                                                                              150                                
PROFAMCHA040501184316184416000100Playhouse (FUNTIMES) - (AM) - Weekdays @ 8:30am                                                                       A     150                                
PRCFAMCHA040501184416184445000029xxFranklin (HANKY - FALL 2003) - Tonight @ 7:10pm                                                                           150                                
ID FAMCHA040501184445184500000015Nonstop Weekend Block Open (:14-:17)                                                                                        150                                
PROFAMCHA040501184500184510000010CC Disclaimer - FAST - Generic (:08-:10)                                                                                    150                                
PGRFAMCHA040501184510190747002237Hoze Houndz                                       Rock n' Roll Never Dies/King Of The Mole People               B45777A1065607ECC                              
PROFAMCHA040501190747190803000016Nnstp Wknd - 28(SEP) - FRANKLIN/KING/HONEY (:14-:1                                                                          150                                
PRCFAMCHA040501190803190827000024xxFranklin (PUPPY - FALL 2003) - Coming Up (NSW)                                                                            150                                
PROFAMCHA040501190827190927000100Playhouse (FUNTIMES) - (AM) - Weekdays @ 8:30am                                                                       A     150                                
PROFAMCHA040501190927190942000015Hoze Houndz (Squirt Bored) (NSW) - Tomorrow @ 6:45                                                                          150                                
ID FAMCHA040501190942190959000017Nonstop Weekend Block Open (:14-:17)                                                                                        150                                
PROFAMCHA040501190959191008000009CC Disclaimer - FAST - Family (:08-:10)                                                                                     150                                
PGRFAMCHA040501191008193301002253Franklin                                          Franklin's Masterpiece/Franklin and the Computer              B36664A1065607ECC                              
PROFAMCHA040501193301193317000016Nnstp Wknd - 29(SAT/SEP) - KING/HONEY/DARK (:14-:1                                                                          150                                
PROFAMCHA040501193317193417000100Playhouse (FUNTIMES) - (AM) - Weekdays @ 8:30am                                                                       A     150                                
PRCFAMCHA040501193417193444000027Nonstop Weekend - KIM POSSIBLE - Villains                                                                                   150                                
ID FAMCHA040501193444193500000016Nonstop Weekend Block Open (:14-:17)                                                                                        150                                
PROFAMCHA040501193500193509000009CC Disclaimer - FAST - Family.ca (:08-:10)                                                                                  150                                
PGRFAMCHA040501193509195739002230King                                              EPS # 2-019                                                   A75774A1065607ECC                              
PROFAMCHA040501195739195755000016Nnstp Wknd - 30(SAT) - HONEY/DARK/N-PIX1 (:14-:16)                                                                          150                                
PROFAMCHA040501195755195825000030Mom's On Strike - (PP) - Friday @ 7:30pm                                                                                    150                                
PROFAMCHA040501195825195855000030Honey, I Shrunk The Kids (FALL 2003) - Coming Up                                                                            150                                
PROFAMCHA040501195855195920000025Even Stevens (SIBLINGS) - (NSW) - Tomorrow @ 9:30a                                                                          150                                
PROFAMCHA040501195920195945000025Mother's Day Specials (Strike/Salute/All-Star) - M                                                                    A     150                                
ID FAMCHA040501195945200000000015Nonstop Weekend Block Open (:14-:17)                                                                                        150                                
PGRFAMCHA040501200000204237004237Disney's Honey, I Shrunk The Kids: The TV Show    I Know What Your Thinking                                            6068807B                                
PROFAMCHA040501204237204253000016Nnstp Wknd - 31(SAT) - DARK/N-PIX1 (:14-:16)                                                                                150                                
PROFAMCHA040501204253204323000030Mom's On Strike - (PP) - Friday @ 7:30pm                                                                                    150                                
PRCFAMCHA040501204323204353000030@ The Movies (REVERSION) - Tomorrow @ 8:45pm                                                                                150                                
PROFAMCHA040501204353204418000025Even Stevens (SIBLINGS) - (NSW) - Tomorrow @ 9:30a                                                                          150                                
PROFAMCHA040501204418204443000025Mother's Day Specials (Strike/Salute/All-Star) - M                                                                    A     150                                
ID FAMCHA040501204443204500000017Nonstop Weekend Block Open (:14-:17)                                                                                        150                                
PGRFAMCHA040501204500205858001358Are You Afraid of the Dark?                       Cutters Treasure Pt.1                                         SR0305A1066807A                                
PROFAMCHA040501205858205914000016Nightly Pix Line-up (SEPT) - GENERIC (:14-:16)                                                                              150                                
PROFAMCHA040501205914205944000030Mom's On Strike - (PP) - Friday @ 7:30pm                                                                                    150                                
ID FAMCHA040501205944205959000015Nightly Pix Movie Open (:10-:15)                                                                                            150                                
ID FAMCHA040501205959210008000009Rating - AA - Ian (:08-:10)                                                                                                 150                                
PGRFAMCHA040501210008224953014945Mermaids                                                                                                              B2028807D                                
PROFAMCHA040501224953225008000015Nnstp Wknd - 32(SAT) - DARK/N-PIX2 (:14-:16)                                                                                150                                
ID FAMCHA040501225008225022000014Nonstop Weekend Block Open (:14-:17)                                                                                        150                                
PGRFAMCHA040501225022230340001318Are You Afraid of the Dark?                       Cutters Treasure Pt.2                                         SR0305A1066807A                                
PROFAMCHA040501230340230355000015Nightly Pix Line-up (SEPT) - GENERIC (:14-:16)                                                                              150                                
PROFAMCHA040501230355230425000030Mom's On Strike - (PP) - Friday @ 7:30pm                                                                                    150                                
PROFAMCHA040501230425230450000025Mother's Day Specials (Strike/Salute/All-Star) - M                                                                    A     150                                
ID FAMCHA040501230450230500000010Nightly Pix Movie Open (:10-:15)                                                                                            150                                
ID FAMCHA040501230500230509000009Rating - PG - Ian (:08-:10)                                                                                                 150                                
PROFAMCHA040501230509230518000009CC Disclaimer - SLOW - Family (:08-:10)                                                                                     150                                
PGRFAMCHA0405012305180049590144418 Seconds                                                                                                             B2068807ECC                              
PROFAMCHA040501004959005013000014Nnstp Wknd - 33 - RADIO/DARK (:14-:16)                                                                                      150                                
ID FAMCHA040501005013005027000014Nonstop Weekend Block Open (:14-:17)                                                                                        150                                
PROFAMCHA040501005027005036000009CC Disclaimer - SLOW - Family.ca (:08-:10)                                                                                  150                                
PGRFAMCHA040501005036011306002230Radio Free Roscoe                                 EPS # 18                                                      A88731A1065607ACC                              
PROFAMCHA040501011306011320000014Nnstp Wknd - 34 - DARK (:14-:16)                                                                                            150                                
PRCFAMCHA040501011320011350000030Astral - Clock                                                                                                              150                                
ID FAMCHA040501011350011404000014Nonstop Weekend Block Open (:14-:17)                                                                                        150                                
PGRFAMCHA040501011404013826002422Are You Afraid Of The Dark?                       The Tale of the Dollmaker                                     SR0304 1066807A                                
SO FAMCHA040501013826015026001200Sign Off                                                                                                                                                       
OFFFAMCHA040501015026043000023934OFF AIR                                                                                                                                                        
SO FAMCHA040502043000043011000011Sign On (oct 1)                                                                                                                                                
PROFAMCHA040502043011043020000009CC Disclaimer - FAST - Family.ca (:08-:10)                                                                                  150                                
PGRFAMCHA040502043020045313002253Franklin                                          Franklin's Pumpkin/Franklin's Jug Band                        A53204A1065607ECC                              
PROFAMCHA040502045313045329000016Nnstp Wknd - 01(PH) - WTP/KATIE/FRANKLIN (:14-:16)                                                                          150                                
ID FAMCHA040502045329045342000013PS Playhouse AM Block Open (:10-:15)                                                                                        150                                
PROFAMCHA040502045342045351000009CC Disclaimer - FAST - Family.ca (:08-:10)                                                                                  150                                
PGRFAMCHA040502045351051630002239New Adventures of Winnie the Pooh; The            The Good, The Bad, and The Tigger                                    6068607ECC                              
PROFAMCHA040502051630051646000016Nnstp Wknd - 02(PH) - KATIE/FRANKLIN/RIPLEY (:14-:                                                                          150                                
ID FAMCHA040502051646051700000014PS Playhouse AM Block Open (:10-:15)                                                                                        150                                
PROFAMCHA040502051700051709000009CC Disclaimer - FAST - Family.ca (:08-:10)                                                                                  150                                
PGRFAMCHA040502051709054347002638Katie And Orbie                                   Star/Later/Rainy Day Zombies                                  C19665A1065607ECC                              
PROFAMCHA040502054347054403000016Nnstp Wknd - 03(PH) - FRANKLIN/RIPLEY/NINJA (:14-:                                                                          150                                
ID FAMCHA040502054403054416000013PS Playhouse AM Block Open (:10-:15)                                                                                        150                                
PROFAMCHA040502054416054425000009CC Disclaimer - FAST - Family.ca (:08-:10)                                                                                  150                                
PGRFAMCHA040502054425060718002253Franklin                                          Franklin's Big Game/Franklin's Reading Club                   A53205A1065607ECC                              
PROFAMCHA040502060718060734000016Nnstp Wknd - 04(PH/MAR) - RIPLEY/NINJA/DINO (:14-:                                                                          150                                
PRCFAMCHA040502060734060748000014Playhouse - HOZE HOUNDZ - Skater                                                                                            150                                
ID FAMCHA040502060748060800000012PS Playhouse AM Block Open (:10-:15)                                                                                        150                                
PROFAMCHA040502060800060809000009CC Disclaimer - FAST - Family.ca (:08-:10)                                                                                  150                                
PGRFAMCHA040502060809063239002430Ripley's Believe It Or Not!                       A Flare for Fashion                                           B71300 1065607ECC                              
PROFAMCHA040502063239063255000016Nnstp Wknd - 05(PB/MAR) - NINJA/DINO/LIZZIE (:14-:                                                                          150                                
PROFAMCHA040502063255063331000036Power Rangers Dino Thunder (LONG) - Today @ 7am                                                                             150                                
INTFAMCHA040502063331063448000117Gagsters - Bunny Hop                                                                                                  A20686120                                
ID FAMCHA040502063448063500000012Power Box Block Open (:12-:15)                                                                                              150                                
PGRFAMCHA040502063500065624002124Power Rangers Ninja Storm                         EPS # 1-031                                                         A6068607E                                
PROFAMCHA040502065624065640000016Nnstp Wknd - 06(PB/MAR) - DINO/LIZZIE/RADIO (:14-:                                                                          150                                
PROFAMCHA040502065640065710000030Mom's On Strike - (PP) - Friday @ 7:30pm                                                                                    150                                
PROFAMCHA040502065710065746000036Power Rangers Dino Thunder (LONG) - Coming Up Next                                                                          150                                
PROFAMCHA040502065746065816000030All That (NSW/MAR) - Today @ 9am                                                                                            150                                
PRCFAMCHA040502065816065846000030Power Rangers Dino Thunder Contest                                                                                          150                                
PROFAMCHA040502065846065912000026Smart Guy (APR04) - (NSW-AM) - Today @ 10:45am                                                                              150                                
PRCFAMCHA040502065912065921000009Radio Free Roscoe ID (MAR) - You're Watching Famil                                                                          150                                
PROFAMCHA040502065921065946000025Mother's Day Specials (Strike/Salute/All-Star) - M                                                                    A     150                                
ID FAMCHA040502065946070000000014Power Box Block Open (:12-:15)                                                                                              150                                
PGRFAMCHA040502070000072124002124Power Rangers Dino Thunder                        EPS # 07                                                            A6028607E                                
PROFAMCHA040502072124072140000016Nnstp Wknd - 07(MAR) - LIZZIE/RADIO/AMANDA (:14-:1                                                                          150                                
PROFAMCHA040502072140072214000034xxLizzie McGuire - GROWN UP (NSW/AM) - Coming Up N                                                                          150                                
PRCFAMCHA040502072214072244000030xxRadio Free Roscoe (NSW/AM) - Today @ 8am                                                                                  150                                
PRCFAMCHA040502072244072314000030Lizzie's Watch & Win Contest                                                                                                150                                
PROFAMCHA040502072314072344000030Amanda Show - FACES - (NSW) - Today @ 8:30am                                                                                150                                
INTFAMCHA040502072344072448000104Gagsters - Lost Lunch                                                                                                 A20686120                                
PROFAMCHA040502072448072513000025Even Stevens (SIBLINGS) - (NSW) - Today @ 9:30am                                                                            150                                
PROFAMCHA040502072513072523000010FAMJAM - Open                                                                                                               150                                
INTFAMCHA040502072523072900000337MV Disney - So Yesterday LIVE (Hillary Duff)                                                                           60688120                                
PROFAMCHA040502072900072914000014FAMJAM - Close (LOGO)                                                                                                       150                                
PROFAMCHA040502072914072945000031That's So Raven (APR04) - (NSW/AM) - Today @ 9:55a                                                                          150                                
ID FAMCHA040502072945073000000015Nonstop Weekend Block Open (:14-:17)                                                                                        150                                
ID FAMCHA040502073000073008000008Magic of Disney - NS/NSW/PB - Shape (:06-:09)                                                                               150                                
PGRFAMCHA040502073008075241002233Lizzie McGuire                                    The Greatest Crush of All                                           A6068607B                                
PROFAMCHA040502075241075257000016Nnstp Wknd - 08 - RADIO/AMANDA/ALL (:14-:16)                                                                                150                                
PROFAMCHA040502075257075327000030Mom's On Strike - (PP) - Friday @ 7:30pm                                                                                    150                                
PRCFAMCHA040502075327075357000030xxRadio Free Roscoe (NSW) - Coming Up Next                                                                                  150                                
INTFAMCHA040502075357075425000028Harrisons; The - Soaker                                                                                               A10626120                                
PROFAMCHA040502075425075455000030Amanda Show - FACES - (NSW) - Today @ 8:30am                                                                                150                                
PRCFAMCHA040502075455075525000030Lizzie's Watch & Win Contest                                                                                                150                                
PROFAMCHA040502075525075555000030All That (NSW/MAR) - Today @ 9am                                                                                            150                                
PROFAMCHA040502075555075620000025Even Stevens (SIBLINGS) - (NSW) - Today @ 9:30am                                                                            150                                
INTFAMCHA040502075620075720000100Gagsters - Crazy Camera                                                                                               A20686120                                
PROFAMCHA040502075720075750000030Boy Meets World (SCRAWNY) - (NSW) - Today @ 10:20a                                                                          150                                
PROFAMCHA040502075750075816000026Smart Guy (APR04) - (NSW-AM) - Today @ 10:45am                                                                              150                                
INTFAMCHA040502075816075946000130Klootz - Horseback Riding 101 #48                                                                                     A10658120                                
ID FAMCHA040502075946080000000014Nonstop Weekend Block Open (:14-:17)                                                                                        150                                
PROFAMCHA040502080000080009000009CC Disclaimer - FAST - Family.ca (:08-:10)                                                                                  150                                
PGRFAMCHA040502080009082239002230Radio Free Roscoe                                 EPS # 16                                                      A88729A1065607ACC                              
PROFAMCHA040502082239082255000016Nnstp Wknd - 09 - AMANDA/ALL/EVEN (:14-:16)                                                                                 150                                
PROFAMCHA040502082255082320000025Mother's Day Specials (Strike/Salute/All-Star) - M                                                                    A     150                                
PROFAMCHA040502082320082350000030Amanda Show - FACES - (NSW) - Today @ 8:30am                                                                                150                                
PRCFAMCHA040502082350082420000030xxFamily Birthday Club #1 - ONGOING (G) xxDNUxx                                                                             150                                
PROFAMCHA040502082420082450000030All That (NSW/MAR) - Today @ 9am                                                                                            150                                
INTFAMCHA040502082450082620000130Klootz - Farwest Flick #51                                                                                            A10658120                                
INTFAMCHA040502082620082716000056Harrisons; The - Electrocution                                                                                        A10626120                                
PROFAMCHA040502082716082747000031That's So Raven (APR04) - (NSW/AM) - Today @ 9:55a                                                                          150                                
INTFAMCHA040502082747082916000129Gagsters - Egg-cellent                                                                                                A20686120                                
PROFAMCHA040502082916082946000030Boy Meets World (SCRAWNY) - (NSW) - Today @ 10:20a                                                                          150                                
ID FAMCHA040502082946083000000014Nonstop Weekend Block Open (:14-:17)                                                                                        150                                
PGRFAMCHA040502083000085308002308Amanda Show; The                                                                                                      A20686090                                
PROFAMCHA040502085308085324000016Nnstp Wknd - 10 - ALL/EVEN/RAVEN (:14-:16)                                                                                  150                                
PROFAMCHA040502085324085354000030Mom's On Strike - (PP) - Friday @ 7:30pm                                                                                    150                                
PROFAMCHA040502085354085424000030All That (NSW/MAR) - Coming Up Next                                                                                         150                                
PROFAMCHA040502085424085449000025Even Stevens (SIBLINGS) - (NSW) - Today @ 9:30am                                                                            150                                
PRCFAMCHA040502085449085539000050Bullying PSA - Ongoing to September 1                                                                                       150                                
PROFAMCHA040502085539085610000031That's So Raven (APR04) - (NSW/AM) - Today @ 9:55a                                                                          150                                
INTFAMCHA040502085610085701000051Raven Symone Interview Cutdown #1 - Funniest Thing                                                                    A10628120                                
PROFAMCHA040502085701085727000026Smart Guy (APR04) - (NSW-AM) - Today @ 10:45am                                                                              150                                
INTFAMCHA040502085727085846000119Gagsters - Flower Power                                                                                               A20686120                                
PROFAMCHA040502085846085916000030xxTeen Angel - (NSW/AM) - Today @ 11:10am                                                                                   150                                
PRCFAMCHA040502085916085946000030Weekend Double Pix (FEB 2004) - Today starting @ 1                                                                          150                                
ID FAMCHA040502085946090000000014Nonstop Weekend Block Open (:14-:17)                                                                                        150                                
PGRFAMCHA040502090000092000002000All That                                          EPS # 944                                                           A20686090                                
PROFAMCHA040502092000092015000015Nnstp Wknd - 11 - EVEN/RAVEN/BMW (:14-:16)                                                                                  150                                
PROFAMCHA040502092015092040000025Mother's Day Specials (Strike/Salute/All-Star) - M                                                                    A     150                                
PROFAMCHA040502092040092105000025Even Stevens (SIBLINGS) - (NSW) - Coming Up                                                                                 150                                
INTFAMCHA040502092105092225000120Gagsters - Dirty Rat                                                                                                  A20686120                                
PROFAMCHA040502092225092256000031That's So Raven (APR04) - (NSW/AM) - Today @ 9:55a                                                                          150                                
PRCFAMCHA040502092256092351000055Kellogg's - Vote Blue Contest (March 29 - May 2)                                                                            150                                
PROFAMCHA040502092351092421000030Boy Meets World (SCRAWNY) - (NSW) - Today @ 10:20a                                                                          150                                
PROFAMCHA040502092421092431000010FAMJAM - Open                                                                                                               150                                
INTFAMCHA040502092431092801000330MV Disney - Come Clean (Hillary Duff)                                                                                  60688120                                
PROFAMCHA040502092801092815000014FAMJAM - Close (EMAIL)                                                                                                      150                                
PROFAMCHA040502092815092845000030xxTeen Angel - (NSW/AM) - Today @ 11:10am                                                                                   150                                
ID FAMCHA040502092845092900000015Nonstop Weekend Block Open (:14-:17)                                                                                        150                                
ID FAMCHA040502092900092908000008Magic of Disney - NS/NSW/PB - Wipe (:06-:09)                                                                                150                                
PROFAMCHA040502092908092917000009CC Disclaimer - FAST - Family.ca (:08-:10)                                                                                  150                                
PGRFAMCHA040502092917095159002242Even Stevens                                      Battle of the Bands                                                 A6068807BCC                              
PROFAMCHA040502095159095215000016Nnstp Wknd - 12 - RAVEN/BMW/SMART (:14-:16)                                                                                 150                                
PROFAMCHA040502095215095245000030Mom's On Strike - (PP) - Friday @ 7:30pm                                                                                    150                                
PROFAMCHA040502095245095316000031That's So Raven (APR04) - (NSW) - Coming Up Next                                                                            150                                
PRCFAMCHA040502095316095411000055Kellogg's - Vote Blue Contest (March 29 - May 2)                                                                            150                                
PROFAMCHA040502095411095445000034xxLizzie McGuire - GROWN UP (NSW/PM) - Today @ 5:0                                                                          150                                
ID FAMCHA040502095445095500000015Nonstop Weekend Block Open (:14-:17)                                                                                        150                                
PROFAMCHA040502095500095509000009CC Disclaimer - FAST - Family.ca (:08-:10)                                                                                  150                                
PGRFAMCHA040502095509101749002240That's So Raven                                   Dissin' Cousins                                                     A6068807BCC                              
PROFAMCHA040502101749101805000016Nnstp Wknd - 13 - BMW/SMART/TEEN (:14-:16)                                                                                  150                                
PROFAMCHA040502101805101830000025Mother's Day Specials (Strike/Salute/All-Star) - M                                                                    A     150                                
PROFAMCHA040502101830101900000030Boy Meets World (SCRAWNY) - (NSW) - Coming Up                                                                               150                                
INTFAMCHA040502101900101945000045Gagsters - Hairy                                                                                                      A20686120                                
ID FAMCHA040502101945102000000015Nonstop Weekend Block Open (:14-:17)                                                                                        150                                
PROFAMCHA040502102000102008000008CC Disclaimer - FAST - Family.ca (:08-:10)                                                                                  150                                
PGRFAMCHA040502102008104158002150Boy Meets World                                   Sixteen Candles & Four-Hundred-Pound Men                            B6068807BCC                              
PROFAMCHA040502104158104212000014Nnstp Wknd - 14 - SMART/TEEN/WISH (:14-:16)                                                                                 150                                
PROFAMCHA040502104212104242000030Mom's On Strike - (PP) - Friday @ 7:30pm                                                                                    150                                
PROFAMCHA040502104242104308000026Smart Guy (APR04) - (NSW) - Coming Up Next                                                                                  150                                
PRCFAMCHA040502104308104403000055Kellogg's - Vote Blue Contest (March 29 - May 2)                                                                            150                                
PROFAMCHA040502104403104437000034xxLizzie McGuire - GROWN UP (NSW/PM) - Today @ 5:0                                                                          150                                
PRCFAMCHA040502104437104446000009Radio Free Roscoe ID (MAR) - You're Watching Famil                                                                          150                                
ID FAMCHA040502104446104500000014Nonstop Weekend Block Open (:14-:17)                                                                                        150                                
PROFAMCHA040502104500104509000009CC Disclaimer - FAST - Family.ca (:08-:10)                                                                                  150                                
PGRFAMCHA040502104509110739002230Smart Guy                                         She Got Game                                                        A6068807BCC                              
PROFAMCHA040502110739110754000015Nnstp Wknd - 15 - TEEN/WISH (:14-:16)                                                                                       150                                
PROFAMCHA040502110754110819000025Mother's Day Specials (Strike/Salute/All-Star) - M                                                                    A     150                                
PROFAMCHA040502110819110849000030xxTeen Angel - (NSW) - Coming Up                                                                                            150                                
PROFAMCHA040502110849110915000026Smart Guy (APR04) - (NSW-PM) - Today @ 3pm                                                                                  150                                
PROFAMCHA040502110915110946000031That's So Raven (APR04) - (NSW/PM) - Today @ 5:30p                                                                          150                                
ID FAMCHA040502110946111000000014Nonstop Weekend Block Open (:14-:17)                                                                                        150                                
PGRFAMCHA040502111000113129002129Teen Angel                                        Who's The Boss                                                      A6068807B                                
PROFAMCHA040502113129113145000016Nnstp Wknd - 16 - WISH (:14-:16)                                                                                            150                                
PROFAMCHA040502113145113215000030Mom's On Strike - (PP) - Friday @ 7:30pm                                                                                    150                                
PRCFAMCHA040502113215113245000030Weekend Double Pix Promo (ACTION) - Today, Startin                                                                          150                                
INTFAMCHA040502113245113415000130Klootz - Olympics 03                                                                                                  A10658120                                
PROFAMCHA040502113415113446000031That's So Raven (APR04) - (NSW/PM) - Today @ 5:30p                                                                          150                                
ID FAMCHA040502113446113500000014Nonstop Weekend Block Open (:14-:17)                                                                                        150                                
PROFAMCHA040502113500113509000009CC Disclaimer - FAST - Family.ca (:08-:10)                                                                                  150                                
PGRFAMCHA040502113509115613002104You Wish                                          Bride Of Prejudice                                                  A6068807BCC                              
PROFAMCHA040502115613115627000014Nnstp Wknd - 17(SEP) - WDP MOVIE (:14-:16)                                                                                  150                                
PROFAMCHA040502115627115652000025Mother's Day Specials (Strike/Salute/All-Star) - M                                                                    A     150                                
PRCFAMCHA040502115652115722000030Weekend Double Pix Promo (ACTION) - Coming Up                                                                               150                                
PROFAMCHA040502115722115756000034xxLizzie McGuire - GROWN UP (NSW/PM) - Today @ 5:0                                                                          150                                
PROFAMCHA040502115756115827000031That's So Raven (APR04) - (NSW/PM) - Today @ 5:30p                                                                          150                                
PRCFAMCHA040502115827115857000030Lizzie's Watch & Win Contest                                                                                                150                                
PRCFAMCHA040502115857115916000019Nonstop Weekend - EVEN STEVENS - Locker                                                                                     150                                
PRCFAMCHA040502115916115946000030xxRadio Free Roscoe (NSW/PM) - Tonight @ 6:20pm                                                                             150                                
ID FAMCHA040502115946120000000014Weekend Double Pix Movie Open (:13-:17)                                                                                     150                                
ID FAMCHA040502120000120009000009Rating - PG - Ian (:08-:10)                                                                                                 150                                
PGRFAMCHA040502120009133557013548Crocodile Dundee                                                                                                      B7068807D                                
PROFAMCHA040502133557133613000016Nnstp Wknd - 17(SEP) - WDP MOVIE (:14-:16)                                                                                  150                                
PROFAMCHA040502133613133643000030Mom's On Strike - (PP) - Friday @ 7:30pm                                                                                    150                                
PROFAMCHA040502133643133713000030xxLilo & Stitch - (NSW) - Coming Up                                                                                         150                                
PROFAMCHA040502133713133747000034xxLizzie McGuire - GROWN UP (NSW/PM) - Today @ 5:0                                                                          150                                
PROFAMCHA040502133747133757000010FAMJAM - Open                                                                                                               150                                
INTFAMCHA040502133757134108000311MV Disney - Grazing In The Grass (Raven)                                                                               60688120                                
PROFAMCHA040502134108134122000014FAMJAM - Close (LOGO)                                                                                                       150                                
PROFAMCHA040502134122134153000031That's So Raven (APR04) - (NSW/PM) - Today @ 5:30p                                                                          150                                
INTFAMCHA040502134153134226000033Harrisons; The - Coffee Time                                                                                          A10626120                                
PRCFAMCHA040502134226134256000030xxRadio Free Roscoe (NSW/PM) - Tonight @ 6:20pm                                                                             150                                
INTFAMCHA040502134256134422000126Gagsters - Arm Chair                                                                                                  A20686120                                
PROFAMCHA040502134422134447000025Even Stevens (SIBLINGS) - (NS/M-T) - Tomorrow @ 7p                                                                          150                                
ID FAMCHA040502134447134500000013Weekend Double Pix Movie Open (:13-:17)                                                                                     150                                
ID FAMCHA040502134500134508000008Rating - G - Ian (:08-:10)                                                                                                  150                                
PGRFAMCHA040502134508151536013028Gordy                                                                                                                 A2068807E                                
PROFAMCHA040502151536151550000014Nnstp Wknd - 18 - SMART/LILO/PROUD (MAR) (:14-:16)                                                                          150                                
PROFAMCHA040502151550151615000025Mother's Day Specials (Strike/Salute/All-Star) - M                                                                    A     150                                
PROFAMCHA040502151615151645000030xxLilo & Stitch - (NSW) - Coming Up                                                                                         150                                
PROFAMCHA040502151645151713000028Proud Family (BOND) - (NSW) - Today @ 3:50pm                                                                                150                                
PROFAMCHA040502151713151723000010FAMJAM - Open                                                                                                               150                                
INTFAMCHA040502151723152027000304MV Disney - Why Not (HILARY DUFF)                                                                                      60688120                                
PROFAMCHA040502152027152041000014FAMJAM - Close (LOGO)                                                                                                       150                                
PROFAMCHA040502152041152115000034Fillmore (APR04) - (NSW) - Today @ 4:15pm                                                                                   150                                
INTFAMCHA040502152115152233000118Gagsters - Crabby                                                                                                     A20686120                                
PROFAMCHA040502152233152307000034xxLizzie McGuire - GROWN UP (NSW/PM) - Today @ 5:0                                                                          150                                
PRCFAMCHA040502152307152342000035Bullying Pledge - Ongoing to September 1                                                                                    150                                
PROFAMCHA040502152342152413000031That's So Raven (APR04) - (NSW/PM) - Today @ 5:30p                                                                          150                                
INTFAMCHA040502152413152510000057Gagsters - Door Prize                                                                                                 A20686120                                
ID FAMCHA040502152510152518000008That's So Raven ID's - You're Watching Family                                                                               150                                
PRCFAMCHA040502152518152548000030xxRadio Free Roscoe (NSW/PM) - Tonight @ 6:20pm                                                                             150                                
ID FAMCHA040502152548152602000014Nonstop Weekend Block Open (:14-:17)                                                                                        150                                
PGRFAMCHA040502152602154841002239Disney's Lilo & Stitch: The Series                EPS # 28                                                            A6068607E                                
PROFAMCHA040502154841154855000014Nnstp Wknd - 20 - PROUD/FILLMORE/KIM (:14-:16)                                                                              150                                
PROFAMCHA040502154855154925000030Mom's On Strike - (PP) - Friday @ 7:30pm                                                                                    150                                
PROFAMCHA040502154925154953000028Proud Family (BOND) - (MD) - Coming Up                                                                                      150                                
PROFAMCHA040502154953155027000034Fillmore (APR04) - (NSW) - Today @ 4:15pm                                                                                   150                                
PRCFAMCHA040502155027155047000020Radio Free Roscoe - Webthrow (Shady Lane)                                                                                   150                                
ID FAMCHA040502155047155101000014Nonstop Weekend Block Open (:14-:17)                                                                                        150                                
PROFAMCHA040502155101155111000010CC Disclaimer - FAST - Family.ca (:08-:10)                                                                                  150                                
PGRFAMCHA040502155111161347002236Proud Family; The                                 Adventures In Bebe-Sitting                                          A6068807ECC                              
PROFAMCHA040502161347161403000016Nnstp Wknd - 21 - FILLMORE/KIM/LIZZIE (:14-:16)                                                                             150                                
PROFAMCHA040502161403161428000025Mother's Day Specials (Strike/Salute/All-Star) - M                                                                    A     150                                
PROFAMCHA040502161428161502000034Fillmore (APR04) - (NSW) - Coming Up Next                                                                                   150                                
PRCFAMCHA040502161502161532000030Power Rangers Dino Thunder Contest                                                                                          150                                
PROFAMCHA040502161532161543000011Nonstop Weekend - LIZZIE MCGUIRE - Junk Food                                                                                150                                
ID FAMCHA040502161543161600000017Nonstop Weekend Block Open (:14-:17)                                                                                        150                                
PGRFAMCHA040502161600163838002238Disney's Fillmore!                                EPS # 1-011                                                         A6068607E                                
PROFAMCHA040502163838163854000016Nnstp Wknd - 22 - KIM/LIZZIE/RAVEN (:14-:16)                                                                                150                                
PROFAMCHA040502163854163924000030Mom's On Strike - (PP) - Friday @ 7:30pm                                                                                    150                                
PROFAMCHA040502163924163952000028xxKim Possible (APR04) - (NSW) - Coming Up Next  x                                                                          150                                
PROFAMCHA040502163952164026000034xxLizzie McGuire - GROWN UP (NSW/PM) - Today @ 5:0                                                                          150                                
PRCFAMCHA040502164026164044000018Radio Free Roscoe - Webthrow (Waller)                                                                                       150                                
ID FAMCHA040502164044164100000016Nonstop Weekend Block Open (:14-:17)                                                                                        150                                
PGRFAMCHA040502164100170354002254Disney's Kim Possible                             EPS # 1-037                                                         A6028607E                                
PROFAMCHA040502170354170408000014Nnstp Wknd - 23(SUN) - LIZZIE/RAVEN/WISH (:14-:16)                                                                          150                                
PROFAMCHA040502170408170433000025Mother's Day Specials (Strike/Salute/All-Star) - M                                                                    A     150                                
PROFAMCHA040502170433170507000034xxLizzie McGuire - GROWN UP (NSW/PM) - Coming Up                                                                            150                                
PROFAMCHA040502170507170538000031That's So Raven (APR04) - (NSW/PM) - Today @ 5:30p                                                                          150                                
PRCFAMCHA040502170538170547000009Radio Free Roscoe ID (MAR) - You're Watching Famil                                                                          150                                
ID FAMCHA040502170547170601000014Nonstop Weekend Block Open (:14-:17)                                                                                        150                                
ID FAMCHA040502170601170608000007Magic of Disney - NS/NSW/PB - Shape (:06-:09)                                                                               150                                
PGRFAMCHA040502170608172853002245Lizzie McGuire                                    Pool Party                                                          A6068607B                                
PROFAMCHA040502172853172909000016Nnstp Wknd - 24(SUN) - RAVEN/WISH/RADIO (:14-:16)                                                                           150                                
PROFAMCHA040502172909172939000030Mom's On Strike - (PP) - Friday @ 7:30pm                                                                                    150                                
PRCFAMCHA040502172939173034000055Kellogg's - Vote Blue Contest (March 29 - May 2)                                                                            150                                
PRCFAMCHA040502173034173043000009Radio Free Roscoe ID (MAR) - You're Watching Famil                                                                          150                                
ID FAMCHA040502173043173100000017Nonstop Weekend Block Open (:14-:17)                                                                                        150                                
