SO FAMCHA050401043000043011000011Sign On (oct 1)                                                                                                                                                
PROFAMCHA050401043011043020000009CC Disclaimer - FAST - Family.ca (:08-:10)                                                                                  150                                
PGRFAMCHA050401043020045313002253Franklin                                          EPS # 4-042                                                   B38149A1065607ECC                              
PRCFAMCHA050401045313045318000005Astral ID (FEB05)                                                                                                           150                                
PROFAMCHA050401045318045332000014PS - 01(PH) - WTP/Benjamin/Franny                                                                                           150                                
ID FAMCHA050401045332045342000010PS Playhouse AM Block Open (:10-:15)                                                                                        150                                
PROFAMCHA050401045342045351000009CC Disclaimer - FAST - Family.ca (:08-:10)                                                                                  150                                
PGRFAMCHA050401045351051621002230King                                              EP: 014                                                       B75768A1065607ECC                              
PROFAMCHA050401051621051635000014PS - 01(PH) - WTP/Benjamin/Franny                                                                                           150                                
ID FAMCHA050401051635051645000010PS Playhouse AM Block Open (:10-:15)                                                                                        150                                
PROFAMCHA050401051645051654000009CC Disclaimer - FAST - Family.ca (:08-:10)                                                                                  150                                
PGRFAMCHA050401051654054329002635Katie And Orbie                                   EP: 2-019                                                     C11896A1065607ECC                              
PRCFAMCHA050401054329054334000005Astral ID (FEB05)                                                                                                           150                                
PROFAMCHA050401054334054348000014PS - 01(PH) - WTP/Benjamin/Franny                                                                                           150                                
ID FAMCHA050401054348054358000010PS Playhouse AM Block Open (:10-:15)                                                                                        150                                
PROFAMCHA050401054358054407000009CC Disclaimer - FAST - Family.ca (:08-:10)                                                                                  150                                
PGRFAMCHA050401054407060700002253Franklin                                          EP: 4-043                                                     B38150A1065607ECC                              
PROFAMCHA050401060700060714000014PS - 01(PH) - WTP/Benjamin/Franny                                                                                           150                                
ID FAMCHA050401060714060724000010PS Playhouse AM Block Open (:10-:15)                                                                                        150                                
PROFAMCHA050401060724060733000009CC Disclaimer - FAST - Family.ca (:08-:10)                                                                                  150                                
PGRFAMCHA050401060733063004002231Something Else                                    EP: 1-002                                                     B69256A1065607ECC                              
PRCFAMCHA050401063004063009000005Astral ID (FEB05)                                                                                                           150                                
PROFAMCHA050401063009063023000014PS - 01(PH) - WTP/Benjamin/Franny                                                                                           150                                
ID FAMCHA050401063023063033000010PS Playhouse AM Block Open (:10-:15)                                                                                        150                                
PROFAMCHA050401063033063042000009CC Disclaimer - FAST - Family.ca (:08-:10)                                                                                  150                                
PGRFAMCHA050401063042065319002237Hoze Houndz                                       EP: 5-063                                                     B63399A1065607ECC                              
PROFAMCHA050401065319065333000014PS - 01(PH) - WTP/Benjamin/Franny                                                                                           150                                
PRCFAMCHA050401065333065403000030Mad Dash - AM (OLDER) - Coming Up Next                                                                                      150                                
ID FAMCHA050401065403065416000013Mad Dash Block Open (:13-:15)                                                                                               150                                
PROFAMCHA050401065416065425000009CC Disclaimer - FAST - Family.ca (:08-:10)                                                                                  150                                
PGRFAMCHA050401065425071635002210Disney's Aladdin                                  EP: 1-028                                                            6068607ECC                              
PRCFAMCHA050401071635071640000005Astral ID (FEB05)                                                                                                           150                                
PROFAMCHA050401071640071655000015PS - 01(PH) - WTP/Benjamin/Franny                                                                                           150                                
PROFAMCHA050401071655071725000030Kim Possible 007 (FEB05) (MD) - Coming Up Next                                                                              150                                
PROFAMCHA050401071725071806000041Smart Guy (APR04) - Mon to Thurs @ 11:30pm                                                                                  150                                
PROFAMCHA050401071806071940000134Bullying - The Pledge 2004 (w/o music)                                                                                      150                                
PROFAMCHA050401071940072012000032Power Rangers - SPD - He's Tough - Tomorrow @ 6:55                                                                          150                                
PRCFAMCHA050401072012072046000034Bullying - The Pledge 2004 (w/o music)                                                                                      150                                
ID FAMCHA050401072046072100000014Mad Dash Block Open (:13-:15)                                                                                               150                                
PGRFAMCHA050401072100074350002250Disney's Kim Possible                             EP: 1-014                                                           A6068607E                                
PROFAMCHA050401074350074406000016PS - 01(PH) - WTP/Benjamin/Franny                                                                                           150                                
PROFAMCHA050401074406074434000028Lilo & Stitch (MD) (JAN05) - Coming Up Next                                                                                 150                                
PROFAMCHA050401074434074515000041Smart Guy (APR04) - Mon to Thurs @ 11:30pm                                                                                  150                                
PROFAMCHA050401074515074545000030Gotta Kick It Up (WDP) - Sunday @ 12pm                                                                                      150                                
PROFAMCHA050401074545074658000113Bullying - The Pledge 2004 (w/o music)                                                                                      150                                
PROFAMCHA050401074658074722000024Jason (Hiking) - Today @ 11:25am                                                                                            150                                
PROFAMCHA050401074722074739000017Zoey 101 - Jaime (NS/FRI) (MAR05) - Tonight @ 6pm                                                                           150                                
PROFAMCHA050401074739074809000030American Dragon: Jake Long - Tomorrow @ 5:10pm                                                                              150                                
PRCFAMCHA050401074809074843000034Bullying - The Pledge 2004 (w/o music)                                                                                      150                                
ID FAMCHA050401074843074858000015Mad Dash Block Open (:13-:15)                                                                                               150                                
PGRFAMCHA050401074858081137002239Disney's Lilo & Stitch                            EPS # 16                                                            A6068607E                                
PRCFAMCHA050401081137081142000005Astral ID (FEB05)                                                                                                           150                                
PROFAMCHA050401081142081157000015PS - 01(PH) - WTP/Benjamin/Franny                                                                                           150                                
PRCFAMCHA050401081157081231000034Bullying - The Pledge 2004 (w/o music)                                                                                      150                                
PROFAMCHA050401081231081312000041Smart Guy (APR04) - Mon to Thurs @ 11:30pm                                                                                  150                                
PROFAMCHA050401081312081344000032Power Rangers - SPD - He's Tough - Tomorrow @ 6:55                                                                          150                                
PROFAMCHA050401081344081408000024Jason (Hiking) - Today @ 11:25am                                                                                            150                                
PRCFAMCHA050401081408081453000045Famous Players Popcorn Parties                                                                                              150                                
PROFAMCHA050401081453081524000031Hercules (Wits) - Today @ 12:10pm                                                                                           150                                
PRCFAMCHA050401081524081536000012Mad Dash - WEEKENDERS - Reality                                                                                             150                                
PROFAMCHA050401081536081606000030Brotherly Love (NSW) - Tomorrow @ 11:30am                                                                                   150                                
PROFAMCHA050401081606081636000030Gotta Kick It Up (WDP) - Sunday @ 12pm                                                                                      150                                
PRCFAMCHA050401081636081647000011Family Bumpers - (Phase 2 F/W 04) - Science (MD-AM                                                                          150                                
ID FAMCHA050401081647081700000013Mad Dash Block Open (:13-:15)                                                                                               150                                
PROFAMCHA050401081700081709000009CC Disclaimer - FAST - Family.ca (:08-:10)                                                                                  150                                
PGRFAMCHA050401081709084010002301The Little Mermaid                                EP: 1-024                                                            6068607ECC                              
PROFAMCHA050401084010084026000016PS - 01(PH) - WTP/Benjamin/Franny                                                                                           150                                
PRCFAMCHA050401084026084056000030xxFranny's Feet (PH) - Coming Up Next                                                                                       150                                
PROFAMCHA050401084056084125000029Winnie the Pooh (TRAP) (PH/AM) - Today @ 9:10am                                                                             150                                
PROFAMCHA050401084125084155000030Jojo's Circus - (PH/AM) - Weekdays @ 9:45am                                                                                 150                                
INTFAMCHA050401084155084325000130MV Disney - (PH) - Walk The Llama Llama                                                                                60688120                                
PROFAMCHA050401084325084409000044xxStanley - (AUG04) - (PH-M/W/F) - Today @ 10:05am                                                                          150                                
PROFAMCHA050401084409084428000019Henry's World (JAN05) - Today @ 10:35am                                                                                     150                                
PRCFAMCHA050401084428084445000017Hoze Houndz (SQUIRT) - (PS) - Weekdays @ 6:35am                                                                             150                                
ID FAMCHA050401084445084458000013PS Playhouse PM Block Open (:10-:15)                                                                                        150                                
PROFAMCHA050401084458084507000009CC Disclaimer - FAST - Family.ca (:08-:10)                                                                                  150                                
PGRFAMCHA050401084507090737002230Franny's Feet                                     EPS # 1-010                                                   C23970A1065607ECC                              
PRCFAMCHA050401090737090742000005Astral ID (FEB05)                                                                                                           150                                
PROFAMCHA050401090742090757000015PS - 01(PH) - WTP/Benjamin/Franny                                                                                           150                                
PROFAMCHA050401090757090826000029Winnie the Pooh (TRAP) (PH/AM) - Coming Up Next                                                                             150                                
PROFAMCHA050401090826090856000030Jojo's Circus - (PH/AM) - Weekdays @ 9:45am                                                                                 150                                
PROFAMCHA050401090856090940000044xxStanley - (AUG04) - (PH-M/W/F) - Today @ 10:05am                                                                          150                                
INTFAMCHA050401090940091211000231Lilo & Stitch Music Video - On DVD Now *DNU*                                                                           60688120                                
PROFAMCHA050401091211091230000019Henry's World (JAN05) - Today @ 10:35am                                                                                     150                                
ID FAMCHA050401091230091245000015Franny's Feet Web BBD - Part of Playhouse @ family                                                                          150                                
ID FAMCHA050401091245091300000015PS Playhouse AM Block Open (:10-:15)                                                                                        150                                
PROFAMCHA050401091300091309000009CC Disclaimer - FAST - Family.ca (:08-:10)                                                                                  150                                
PGRFAMCHA050401091309093546002237The New Adventures of Winnie the Pooh             EP: 1-044                                                            6068607ECC                              
PROFAMCHA050401093546093602000016PS - 01(PH) - WTP/Benjamin/Franny                                                                                           150                                
PROFAMCHA050401093602093632000030Jojo's Circus - (PH/AM) - Weekdays @ 9:45am                                                                                 150                                
PROFAMCHA050401093632093716000044xxStanley - (AUG04) - (PH-M/W/F) - Today @ 10:05am                                                                          150                                
PROFAMCHA050401093716093735000019Henry's World (JAN05) - Today @ 10:35am                                                                                     150                                
PRCFAMCHA050401093735093841000106Playhouse - WINNIE THE POOH - Christopher Robin                                                                             150                                
PRCFAMCHA050401093841093913000032xxBenjamin Bear (PH-S/S) - Tomorrow @ 5:15am                                                                                150                                
PRCFAMCHA050401093913093930000017Hoze Houndz (SQUIRT) - (PS) - Weekdays @ 6:35am                                                                             150                                
PRCFAMCHA050401093930093942000012Family Bumpers - (Phase 1 Spring 04) - Funhouse (P                                                                          150                                
ID FAMCHA050401093942093957000015PS Playhouse AM Block Open (:10-:15)                                                                                        150                                
PGRFAMCHA050401093957100404002407JoJo's Circus                                     EPS # 23                                                            A6068607E                                
PRCFAMCHA050401100404100409000005Astral ID (FEB05)                                                                                                           150                                
PROFAMCHA050401100409100425000016PS - 01(PH) - WTP/Benjamin/Franny                                                                                           150                                
PROFAMCHA050401100425100455000030Stanley - Get Into It (MAR05) - (PH-M/W/F) - Comin                                                                          150                                
PROFAMCHA050401100455100514000019Henry's World (JAN05) - Today @ 10:35am                                                                                     150                                
PRCFAMCHA050401100514100545000031King (FRIENDS/0804) (PH/AM) - Weekdays @ 11am                                                                               150                                
PRCFAMCHA050401100545100620000035Playhouse - KATIE & ORBIE - Did You Know?                                                                                   150                                
PROFAMCHA050401100620100645000025Hoze Houndz (Can't Fly) (PH/PM) - Today @ 2:10pm                                                                            150                                
PRCFAMCHA050401100645100715000030xxFranny's Feet (PH-S/S) - Tomorrow @ 5:40am                                                                                150                                
   FAMCHA050401100715100744000029Winnie the Pooh (TRAP) (PH/AM) - Weekdays @ 9:10am                                                                                                             
ID FAMCHA050401100744100759000015PS Playhouse AM Block Open (:10-:15)                                                                                        150                                
PGRFAMCHA050401100759103204002405Stanley                                           EPS # 1-057                                                         A6068607E                                
PROFAMCHA050401103204103219000015PS - 01(PH) - WTP/Benjamin/Franny                                                                                           150                                
PROFAMCHA050401103219103238000019Henry's World (JAN05) - Coming Up Next                                                                                      150                                
PRCFAMCHA050401103238103255000017Hoze Houndz (SQUIRT) - (PS) - Weekdays @ 6:35am                                                                             150                                
PRCFAMCHA050401103255103314000019Playhouse - HOZE HOUNDZ - Code Blue                                                                                         150                                
PRCFAMCHA050401103314103346000032xxBenjamin Bear (PH-S/S) - Tomorrow @ 5:15am                                                                                150                                
ID FAMCHA050401103346103400000014PS Playhouse AM Block Open (:10-:15)                                                                                        150                                
PROFAMCHA050401103400103409000009CC Disclaimer - FAST - Family.ca (:08-:10)                                                                                  150                                
PGRFAMCHA050401103409105811002402Henry's World                                     EP: 1-005                                                     B66547A1065607GCC                              
PRCFAMCHA050401105811105816000005Astral ID (FEB05)                                                                                                           150                                
PROFAMCHA050401105816105831000015PS - 01(PH) - WTP/Benjamin/Franny                                                                                           150                                
PRCFAMCHA050401105831105902000031King (FRIENDS/0804) (PH/AM) - Weekdays @ 11am                                                                               150                                
PRCFAMCHA050401105902105919000017Hoze Houndz (SQUIRT) - (PS) - Weekdays @ 6:35am                                                                             150                                
PRCFAMCHA050401105919105949000030xxFranny's Feet (PH-S/S) - Tomorrow @ 5:40am                                                                                150                                
ID FAMCHA050401105949110000000011PS Playhouse AM Block Open (:10-:15)                                                                                        150                                
PROFAMCHA050401110000110009000009CC Disclaimer - FAST - Family.ca (:08-:10)                                                                                  150                                
INTFAMCHA050401110009112239002230King                                              EPS # 039                                                     A00343A10256120CC                              
PROFAMCHA050401112239112254000015PS - 01(PH) - WTP/Benjamin/Franny                                                                                           150                                
PROFAMCHA050401112254112335000041Smart Guy (APR04) - Mon to Thurs @ 11:30pm                                                                                  150                                
PROFAMCHA050401112335112359000024Jason (Hiking) - Coming Up Next                                                                                             150                                
PROFAMCHA050401112359112533000134Bullying - The Pledge 2004 (w/o music)                                                                                      150                                
PROFAMCHA050401112533112603000030American Dragon: Jake Long - Tomorrow @ 5:10pm                                                                              150                                
PRCFAMCHA050401112603112637000034Bullying - The Pledge 2004 (w/o music)                                                                                      150                                
PRCFAMCHA050401112637112646000009Family Bumpers - (Phase 2 F/W 04) - Skateboard (MD                                                                          150                                
ID FAMCHA050401112646112700000014Mad Dash Block Open (:13-:15)                                                                                               150                                
PGRFAMCHA050401112700114915002215Jason and the Heroes of Mount Olympus             EPS # 17                                                             6068607E                                
PRCFAMCHA050401114915114920000005Astral ID (FEB05)                                                                                                           150                                
PROFAMCHA050401114920114935000015PS - 01(PH) - WTP/Benjamin/Franny                                                                                           150                                
PROFAMCHA050401114935114947000012Mad Dash - RECESS - Sprinkler                                                                                               150                                
ID FAMCHA050401114947115000000013Mad Dash Block Open (:13-:15)                                                                                               150                                
PGRFAMCHA050401115000121239002239Disney's Lilo & Stitch: The Series                EPS # 46                                                             6068607E                                
PROFAMCHA050401121239121253000014PS - 01(PH) - WTP/Benjamin/Franny                                                                                           150                                
PROFAMCHA050401121253121317000024Hercules (Count) - Coming Up Next                                                                                           150                                
PROFAMCHA050401121317121359000042Power Rangers SPD Contest (March 7 - April 3)                                                                               150                                
ID FAMCHA050401121359121413000014Mad Dash Block Open (:13-:15)                                                                                               150                                
PGRFAMCHA050401121413123709002256Disney's Hercules                                 EP: 1-027                                                            6068607E                                
PRCFAMCHA050401123709123714000005Astral ID (FEB05)                                                                                                           150                                
PROFAMCHA050401123714123728000014PS - 01(PH) - WTP/Benjamin/Franny                                                                                           150                                
PROFAMCHA050401123728123800000032Power Rangers - SPD - He's Tough - Tomorrow @ 6:55                                                                          150                                
ID FAMCHA050401123800123814000014Mad Dash Block Open (:13-:15)                                                                                               150                                
PROFAMCHA050401123814123822000008CC Disclaimer - FAST - Family.ca (:08-:10)                                                                                  150                                
PGRFAMCHA050401123822130104002242Goof Troop                                        EP: 1-002                                                            6068607ECC                              
PROFAMCHA050401130104130118000014PS - 01(PH) - WTP/Benjamin/Franny                                                                                           150                                
ID FAMCHA050401130118130128000010PS Playhouse PM Block Open (:10-:15)                                                                                        150                                
PROFAMCHA050401130128130136000008CC Disclaimer - FAST - Family.ca (:08-:10)                                                                                  150                                
PGRFAMCHA050401130136132440002304The Little Mermaid                                EP: 1-009                                                            6068607ECC                              
PRCFAMCHA050401132440132445000005Astral ID (FEB05)                                                                                                           150                                
PROFAMCHA050401132445132459000014PS - 01(PH) - WTP/Benjamin/Franny                                                                                           150                                
ID FAMCHA050401132459132514000015Franny's Feet Web BBD - Part of Playhouse @ family                                                                          150                                
ID FAMCHA050401132514132524000010PS Playhouse PM Block Open (:10-:15)                                                                                        150                                
PROFAMCHA050401132524132532000008CC Disclaimer - FAST - Family.ca (:08-:10)                                                                                  150                                
PGRFAMCHA050401132532134811002239Disney's Aladdin                                  EP: 1-056                                                            6068607ECC                              
PROFAMCHA050401134811134825000014PS - 22(PH) - DALMATIANS/HOZE/HOUSE (:14-:16) (AUG                                                                          150                                
ID FAMCHA050401134825134835000010PS Playhouse PM Block Open (:10-:15)                                                                                        150                                
PGRFAMCHA050401134835141118002243Disney's 101 Dalmatians: The Series               EPS # 1-020                                                         A6068607E                                
PRCFAMCHA050401141118141123000005Astral ID (FEB05)                                                                                                           150                                
PROFAMCHA050401141123141138000015PS - 01(PH) - WTP/Benjamin/Franny                                                                                           150                                
PROFAMCHA050401141138141147000009Raven ID's II - You're Watching Family, NADM                                                                                150                                
ID FAMCHA050401141147141200000013PS Playhouse PM Block Open (:10-:15)                                                                                        150                                
PROFAMCHA050401141200141209000009CC Disclaimer - FAST - Family.ca (:08-:10)                                                                                  150                                
PGRFAMCHA050401141209143444002235Hoze Houndz                                       EP: 2-022                                                     B34011A1065607ECC                              
PROFAMCHA050401143444143459000015PS - 01(PH) - WTP/Benjamin/Franny                                                                                           150                                
PRCFAMCHA050401143459143545000046Playhouse - STANLEY - Squirrel Song                                                                                         150                                
ID FAMCHA050401143545143600000015PS Playhouse PM Block Open (:10-:15)                                                                                        150                                
PROFAMCHA050401143600143609000009CC Disclaimer - FAST - Family.ca (:08-:10)                                                                                  150                                
PGRFAMCHA050401143609145847002238Disney's House Of Mouse                           EP: 1-017                                                           A6068607ECC                              
PRCFAMCHA050401145847145852000005Astral ID (FEB05)                                                                                                           150                                
PROFAMCHA050401145852145906000014PS - 01(PH) - WTP/Benjamin/Franny                                                                                           150                                
PROFAMCHA050401145906145947000041Smart Guy (APR04) - Mon to Thurs @ 11:30pm                                                                                  150                                
ID FAMCHA050401145947150000000013Mad Dash Block Open (:13-:15)                                                                                               150                                
PGRFAMCHA050401150000152237002237Disney's Fillmore!                                EPS # 1-025                                                         A6068607E                                
PROFAMCHA050401152237152252000015PS - 01(PH) - WTP/Benjamin/Franny                                                                                           150                                
PROFAMCHA050401152252152333000041Smart Guy (APR04) - Mon to Thurs @ 11:30pm                                                                                  150                                
PROFAMCHA050401152333152403000030American Dragon: Jake Long - Tomorrow @ 5:10pm                                                                              150                                
PRCFAMCHA050401152403152437000034Bullying - The Pledge 2004 (w/o music)                                                                                      150                                
PRCFAMCHA050401152437152446000009Family Bumpers - (Phase 1 Spring 04) - DJ Spinning                                                                          150                                
ID FAMCHA050401152446152500000014Mad Dash Block Open (:13-:15)                                                                                               150                                
PROFAMCHA050401152500152509000009CC Disclaimer - FAST - Family.ca (:08-:10)                                                                                  150                                
PGRFAMCHA050401152509154741002232Disney's The Weekenders                           EP: 1-019                                                           A6068607ECC                              
PRCFAMCHA050401154741154746000005Astral ID (FEB05)                                                                                                           150                                
PROFAMCHA050401154746154800000014PS - 01(PH) - WTP/Benjamin/Franny                                                                                           150                                
PROFAMCHA050401154800154841000041Smart Guy (APR04) - Mon to Thurs @ 11:30pm                                                                                  150                                
PROFAMCHA050401154841154913000032Power Rangers - SPD - He's Tough - Tomorrow @ 6:55                                                                          150                                
PRCFAMCHA050401154913154947000034Bullying - The Pledge 2004 (w/o music)                                                                                      150                                
ID FAMCHA050401154947155000000013Mad Dash Block Open (:13-:15)                                                                                               150                                
PGRFAMCHA050401155000161236002236Disney's Recess                                   EP: 1-046                                                            6068607E                                
PROFAMCHA050401161236161250000014PS - 01(PH) - WTP/Benjamin/Franny                                                                                           150                                
PROFAMCHA050401161250161331000041Smart Guy (APR04) - Mon to Thurs @ 11:30pm                                                                                  150                                
PROFAMCHA050401161331161413000042Power Rangers SPD Contest (March 7 - April 3)                                                                               150                                
PRCFAMCHA050401161413161553000140Family Lab - Amazing Pet Talker                                                                                             150                                
ID FAMCHA050401161553161607000014Mad Dash Block Open (:13-:15)                                                                                               150                                
PGRFAMCHA050401161607163845002238Disney's Dave the Barbarian                       EPS # 12                                                             6068607E                                
PRCFAMCHA050401163845163850000005Astral ID (FEB05)                                                                                                           150                                
PROFAMCHA050401163850163904000014PS - 01(PH) - WTP/Benjamin/Franny                                                                                           150                                
PROFAMCHA050401163904163945000041Smart Guy (APR04) - Mon to Thurs @ 11:30pm                                                                                  150                                
PROFAMCHA050401163945164025000040Avril Lavigne Concert Tour Blast! - (April 1-2)                                                                             150                                
PROFAMCHA050401164025164138000113Bullying - The Pledge 2004 (w/o music)                                                                                      150                                
PRCFAMCHA050401164138164212000034Bullying - The Pledge 2004 (w/o music)                                                                                      150                                
ID FAMCHA050401164212164226000014Mad Dash Block Open (:13-:15)                                                                                               150                                
PGRFAMCHA050401164226170519002253Disney's Kim Possible                             EPS # 1-060                                                          6068607E                                
PROFAMCHA050401170519170533000014Mad Dash - 06 (FRI) PROUD/LIZZIE/ZOEY (:14-:16) (M                                                                          150                                
PROFAMCHA050401170533170614000041Smart Guy (APR04) - Mon to Thurs @ 11:30pm                                                                                  150                                
PRCFAMCHA050401170614170648000034Bullying - The Pledge 2004 (w/o music)                                                                                      150                                
PROFAMCHA050401170648170705000017Zoey 101 - Jaime (NS/FRI) (MAR05) - Tonight @ 6pm                                                                           150                                
PROFAMCHA050401170705170735000030American Dragon: Jake Long - Tomorrow @ 5:10pm                                                                              150                                
PRCFAMCHA050401170735170749000014Family Bumpers - (Phase 1 Spring 04) - Basketball                                                                           150                                
ID FAMCHA050401170749170803000014Mad Dash Block Open (:13-:15)                                                                                               150                                
PROFAMCHA050401170803170811000008CC Disclaimer - FAST - Family.ca (:08-:10)                                                                                  150                                
PGRFAMCHA050401170811173042002231The Proud Family                                  EP: 2-008                                                           A6068807ECC                              
PRCFAMCHA050401173042173047000005Astral ID (FEB05)                                                                                                           150                                
PROFAMCHA050401173047173101000014PS - 01(PH) - WTP/Benjamin/Franny                                                                                           150                                
PROFAMCHA050401173101173142000041Smart Guy (APR04) - Mon to Thurs @ 11:30pm                                                                                  150                                
PROFAMCHA050401173142173222000040Avril Lavigne Concert Tour Blast! - (April 1-2)                                                                             150                                
PROFAMCHA050401173222173254000032Power Rangers - SPD - He's Tough - Tomorrow @ 6:55                                                                          150                                
PRCFAMCHA050401173254173339000045Famous Players Popcorn Parties                                                                                              150                                
PRCFAMCHA050401173339173413000034Bullying - The Pledge 2004 (w/o music)                                                                                      150                                
ID FAMCHA050401173413173426000013Mad Dash Block Open (:13-:15)                                                                                               150                                
ID FAMCHA050401173426173434000008Magic of Disney - MAD DASH - Shape (:06-:09)                                                                                150                                
PGRFAMCHA050401173434175708002234Lizzie McGuire                                    EP: 2-034                                                           A6068607B                                
PROFAMCHA050401175708175723000015PS - 01(PH) - WTP/Benjamin/Franny                                                                                           150                                
PROFAMCHA050401175723175740000017Zoey 101 - Jaime (NS/FRI) (MAR05) - Coming Up Next                                                                          150                                
PROFAMCHA050401175740175820000040Avril Lavigne Concert Tour Blast! - (April 1-2)                                                                             150                                
PRCFAMCHA050401175820175850000030Phil of the Future (NS) (PHIL) (DEC04) - Tonight @                                                                          150                                
PROFAMCHA050401175850175931000041Smart Guy (APR04) - Mon to Thurs @ 11:30pm                                                                                  150                                
PROFAMCHA050401175931175952000021Laurentien/Zoey - BBD Question 2 (April 1 & 3)                                                                              150                                
ID FAMCHA050401175952180009000017Nonstop Block Open (:14-:17)                                                                                                150                                
PROFAMCHA050401180009180018000009CC Disclaimer - FAST - Family.ca (:08-:10)                                                                                  150                                
PGRFAMCHA050401180018182250002232Zoey 101                                          EPS # 02                                                             2028807BCC                              
PRCFAMCHA050401182250182255000005Astral ID (FEB05)                                                                                                           150                                
PROFAMCHA050401182255182309000014PS - 01(PH) - WTP/Benjamin/Franny                                                                                           150                                
PROFAMCHA050401182309182350000041Smart Guy (APR04) - Mon to Thurs @ 11:30pm                                                                                  150                                
PROFAMCHA050401182350182441000051Laurentien/Zoey - This Week - Double Ended Markers                                                                          150                                
PRCFAMCHA050401182441182511000030Phil of the Future (NS) (PIM) (DEC04) - Coming Up                                                                           150                                
PRCFAMCHA050401182511182545000034Bullying - The Pledge 2004 (w/o music)                                                                                      150                                
PROFAMCHA050401182545182719000134Bullying - The Pledge 2004 (w/o music)                                                                                      150                                
PROFAMCHA050401182719182751000032Power Rangers - SPD - He's Tough - Tomorrow @ 6:55                                                                          150                                
PRCFAMCHA050401182751182811000020Nonstop - BOY MEETS WORLD - Good Looking                                                                                    150                                
PROFAMCHA050401182811182853000042Power Rangers SPD Contest (March 7 - April 3)                                                                               150                                
PROFAMCHA050401182853182910000017Zoey 101 - Jaime (NSW) (MAR05) - Tomorrow @ 9:40am                                                                          150                                
PROFAMCHA050401182910182940000030Gotta Kick It Up (WDP) - Sunday @ 12pm                                                                                      150                                
PRCFAMCHA050401182940182952000012Family Bumpers - (Phase 1 Spring 04) - Pillow Figh                                                                          150                                
ID FAMCHA050401182952183006000014Nonstop Block Open (:14-:17)                                                                                                150                                
PGRFAMCHA050401183006185246002240Phil of the Future                                EPS # 13                                                             6028807B                                
PROFAMCHA050401185246185301000015PS - 01(PH) - WTP/Benjamin/Franny                                                                                           150                                
PROFAMCHA050401185301185342000041Smart Guy (APR04) - Mon to Thurs @ 11:30pm                                                                                  150                                
PROFAMCHA050401185342185422000040Avril Lavigne Concert Tour Blast! - (April 1-2)                                                                             150                                
PRCFAMCHA050401185422185456000034Bullying - The Pledge 2004 (w/o music)                                                                                      150                                
PRCFAMCHA050401185456185526000030Phil of the Future (NSW) (PHIL) (DEC04) - Tomorrow                                                                          150                                
PRCFAMCHA050401185526185716000150Family Lab - Hypnotizer                                                                                                     150                                
PROFAMCHA050401185716185746000030Gotta Kick It Up (WDP) - Sunday @ 12pm                                                                                      150                                
INTFAMCHA050401185746185900000114xxGagsters - Eye Dropper                          EP: 46                                                              A20686120                                
PROFAMCHA050401185900185917000017Zoey 101 - Jaime (NSW) (MAR05) - Tomorrow @ 9:40am                                                                          150                                
PROFAMCHA050401185917185947000030American Dragon: Jake Long - Tomorrow @ 5:10pm                                                                              150                                
ID FAMCHA050401185947190001000014Nonstop Block Open (:14-:17)                                                                                                150                                
PROFAMCHA050401190001190010000009CC Disclaimer - FAST - Family.ca (:08-:10)                                                                                  150                                
PGRFAMCHA050401190010192350002340Ned's Declassified School Survival Guide          EPS # 01                                                             2028807BCC                              
PRCFAMCHA050401192350192355000005Astral ID (FEB05)                                                                                                           150                                
PRCFAMCHA050401192355192429000034Bullying - The Pledge 2004 (w/o music)                                                                                      150                                
PROFAMCHA050401192429192509000040Avril Lavigne Concert Tour Blast! - (April 1-2)                                                                             150                                
PRCFAMCHA050401192509192542000033That's So Raven - Dog Wash (NSW/AM) (MAR05) - Tomo                                                                          150                                
PROFAMCHA050401192542192655000113Bullying - The Pledge 2004 (w/o music)                                                                                      150                                
PROFAMCHA050401192655192712000017Zoey 101 - Jaime (NSW) (MAR05) - Tomorrow @ 9:40am                                                                          150                                
PROFAMCHA050401192712192744000032Power Rangers - SPD - He's Tough - Tomorrow @ 6:55                                                                          150                                
INTFAMCHA050401192744192909000125xxGagsters - Creepy Crawlers                      EP: 46                                                              A20686120                                
PROFAMCHA050401192909192939000030Gotta Kick It Up (WDP) - Sunday @ 12pm                                                                                      150                                
PRCFAMCHA050401192939192946000007Family Bumpers - (Phase 2 F/W 04) - Hockey (MD-L/M                                                                          150                                
ID FAMCHA050401192946193000000014Popcorn Pix Movie Open (:13-:17)                                                                                            150                                
ID FAMCHA050401193000193009000009Rating - G - Ian (:08-:10)                                                                                                  150                                
ID FAMCHA050401193009193017000008Magic of Disney - PIX - Shape (:06-:09)                                                                                     150                                
PGRFAMCHA050401193017210415013358The Even Stevens Movie                                                                                                A6068807C                                
PROFAMCHA050401210415210429000014Nightly Pix Line-up (SEPT) - GENERIC (:14-:16)                                                                              150                                
ID FAMCHA050401210429210439000010xxNightly Pix Movie Open (:10-:15)                                                                                          150                                
ID FAMCHA050401210439210448000009Rating - PG - Ian (:08-:10)                                                                                                 150                                
PROFAMCHA050401210448210457000009CC Disclaimer - SLOW - Family.ca (:08-:10)                                                                                  150                                
ID FAMCHA050401210457210505000008Magic of Disney - PIX - Wipe (:06-:09)                                                                                      150                                
PGRFAMCHA050401210505224634014129Adventures In Babysitting                                                                                             B6068807DCC                              
PRCFAMCHA050401224634224639000005Astral ID (FEB05)                                                                                                           150                                
PROFAMCHA050401224639224653000014Nightly Pix Line-up (SEPT) - GENERIC (:14-:16)                                                                              150                                
ID FAMCHA050401224653224703000010xxNightly Pix Movie Open (:10-:15)                                                                                          150                                
ID FAMCHA050401224703224712000009Rating - PG - Ian (:08-:10)                                                                                                 150                                
PROFAMCHA050401224712224721000009CC Disclaimer - SLOW - Family.ca (:08-:10)                                                                                  150                                
PGRFAMCHA050401224721001453012732A Fine Mess                                                                                                            2068807DCC                              
PROFAMCHA050401001453001507000014Nnstp Wknd - 01(PH) - WTP/BENJAMIN/FRANNY (:14-:16                                                                          150                                
ID FAMCHA050401001507001521000014Nonstop Weekend Block Open (:14-:17)                                                                                        150                                
PROFAMCHA050401001521001530000009CC Disclaimer - SLOW - Family.ca (:08-:10)                                                                                  150                                
PGRFAMCHA050401001530003800002230Radio Free Roscoe                                 EPS # 34                                                      A05967A1065607ACC                              
PROFAMCHA050401003800003814000014Nnstp Wknd - 01(PH) - WTP/BENJAMIN/FRANNY (:14-:16                                                                          150                                
PRCFAMCHA050401003814003819000005Astral ID (FEB05)                                                                                                           150                                
ID FAMCHA050401003819003833000014Nonstop Weekend Block Open (:14-:17)                                                                                        150                                
PROFAMCHA050401003833003842000009CC Disclaimer - SLOW - Family.ca (:08-:10)                                                                                  150                                
PGRFAMCHA050401003842010301002419Are You Afraid of the Dark?                       EP: 1-082                                                     SR0308 1066807ACC                              
PRCFAMCHA050401010301010331000030Astral - Clock (until June 26)                                                                                              150                                
SO FAMCHA050401010331010343000012Sign Off                                                                                                                                                       
OFFFAMCHA050401010343043000032617OFF AIR                                                                                                                                                        
SO FAMCHA050402043000043011000011Sign On (oct 1)                                                                                                                                                
PROFAMCHA050402043011043020000009CC Disclaimer - FAST - Family.ca (:08-:10)                                                                                  150                                
PGRFAMCHA050402043020045313002253Franklin                                          EP: 4-044                                                     B38151A1065607ECC                              
PRCFAMCHA050402045313045318000005Astral ID (FEB05)                                                                                                           150                                
PROFAMCHA050402045318045332000014Nnstp Wknd - 01(PH) - WTP/BENJAMIN/FRANNY (:14-:16                                                                          150                                
ID FAMCHA050402045332045342000010PS Playhouse AM Block Open (:10-:15)                                                                                        150                                
PROFAMCHA050402045342045351000009CC Disclaimer - FAST - Family.ca (:08-:10)                                                                                  150                                
PGRFAMCHA050402045351051744002353Henry's World                                     EP: 1-001                                                     B66543A1065607GCC                              
PROFAMCHA050402051744051758000014Nnstp Wknd - 01(PH) - WTP/BENJAMIN/FRANNY (:14-:16                                                                          150                                
ID FAMCHA050402051758051808000010PS Playhouse AM Block Open (:10-:15)                                                                                        150                                
PROFAMCHA050402051808051817000009CC Disclaimer - FAST - Family.ca (:08-:10)                                                                                  150                                
PGRFAMCHA050402051817054052002235The Secret World Of Benjamin Bear                 EPS # 1-009                                                   A75154A1065607ECC                              
PRCFAMCHA050402054052054057000005Astral ID (FEB05)                                                                                                           150                                
PROFAMCHA050402054057054111000014Nnstp Wknd - 01(PH) - WTP/BENJAMIN/FRANNY (:14-:16                                                                          150                                
ID FAMCHA050402054111054126000015Franny's Feet Web BBD - Part of Playhouse @ family                                                                          150                                
ID FAMCHA050402054126054136000010PS Playhouse AM Block Open (:10-:15)                                                                                        150                                
PROFAMCHA050402054136054145000009CC Disclaimer - FAST - Family.ca (:08-:10)                                                                                  150                                
PGRFAMCHA050402054145060415002230Franny's Feet                                     EPS # 1-010                                                   C23970A1065607ECC                              
PROFAMCHA050402060415060429000014Nnstp Wknd - 01(PH) - WTP/BENJAMIN/FRANNY (:14-:16                                                                          150                                
PRCFAMCHA050402060429060504000035Daigunder (PB) - Tomorrow @ 6:30am                                                                                          150                                
ID FAMCHA050402060504060516000012xxPower Box Block Open (:10-:15)                                                                                            150                                
PGRFAMCHA050402060516062645002129Daigunder                                         EPS # 05                                                             2068607E                                
PRCFAMCHA050402062645062650000005Astral ID (FEB05)                                                                                                           150                                
PROFAMCHA050402062650062705000015Nnstp Wknd - 01(PH) - WTP/BENJAMIN/FRANNY (:14-:16                                                                          150                                
PROFAMCHA050402062705062737000032Power Rangers - SPD - He's Tough - Today @ 6:55am                                                                           150                                
PROFAMCHA050402062737062807000030American Dragon: Jake Long - Today @ 5:10pm                                                                                 150                                
PRCFAMCHA050402062807062835000028Power Box Block Promo (APR04) - (PB) - Tomorrow @                                                                           150                                
PROFAMCHA050402062835062917000042Power Rangers SPD Contest (March 7 - April 3)                                                                               150                                
PROFAMCHA050402062917062947000030Gotta Kick It Up (WDP) - Tomorrow @ 12pm                                                                                    150                                
ID FAMCHA050402062947063000000013xxPower Box Block Open (:10-:15)                                                                                            150                                
PGRFAMCHA050402063000065130002130Power Rangers Dino Thunder                        EPS # 16                                                            A6068607E                                
PROFAMCHA050402065130065145000015Nnstp Wknd - 01(PH) - WTP/BENJAMIN/FRANNY (:14-:16                                                                          150                                
PROFAMCHA050402065145065217000032Power Rangers - SPD - He's Tough - Coming Up Next                                                                           150                                
PRCFAMCHA050402065217065245000028Power Box Block Promo (APR04) - (PB) - Tomorrow @                                                                           150                                
PROFAMCHA050402065245065315000030Zoey 101 - Perfect (NSW) (MAR05) - Today @ 9:40am                                                                           150                                
PROFAMCHA050402065315065357000042Power Rangers SPD Contest (March 7 - April 3)                                                                               150                                
PROFAMCHA050402065357065427000030Gotta Kick It Up (WDP) - Tomorrow @ 12pm                                                                                    150                                
PRCFAMCHA050402065427065446000019Radio Free Roscoe - Webthrow (Pronto)                                                                                       150                                
ID FAMCHA050402065446065500000014Nonstop Weekend Block Open (:14-:17)                                                                                        150                                
PGRFAMCHA050402065500071739002239Power Rangers Space Patrol Delta                  EP: 04                                                               6028607E                                
PRCFAMCHA050402071739071744000005Astral ID (FEB05)                                                                                                           150                                
PROFAMCHA050402071744071759000015Nnstp Wknd - 01(PH) - WTP/BENJAMIN/FRANNY (:14-:16                                                                          150                                
PROFAMCHA050402071759071829000030All That (NS/MAR) - Coming Up Next                                                                                          150                                
PROFAMCHA050402071829071852000023Lizzie McGuire - SFX2 (NSW/AM) - Today @ 7:50am                                                                             150                                
PROFAMCHA050402071852071921000029Smart Guy (APR04) - Mon to Thurs @ 11:30pm                                                                                  150                                
PRCFAMCHA050402071921071945000024Nonstop Weekend - EVEN STEVENS - Banned                                                                                     150                                
PROFAMCHA050402071945072015000030American Dragon: Jake Long - Today @ 5:10pm                                                                                 150                                
PROFAMCHA050402072015072045000030Gotta Kick It Up (WDP) - Tomorrow @ 12pm                                                                                    150                                
ID FAMCHA050402072045072100000015Nonstop Weekend Block Open (:14-:17)                                                                                        150                                
PGRFAMCHA050402072100074521002421All That                                          EP: 724                                                             A20686090                                
PROFAMCHA050402074521074535000014Nnstp Wknd - 01(PH) - WTP/BENJAMIN/FRANNY (:14-:16                                                                          150                                
PROFAMCHA050402074535074559000024Lizzie McGuire - SFX (NSW) - Coming Up Next                                                                                 150                                
PRCFAMCHA050402074559074626000027Radio Free Roscoe - (APR05) (NSW/AM) - Today @ 8:1                                                                          150                                
PRCFAMCHA050402074626074656000030Phil of the Future (NSW) (PHIL) (DEC04) - Today @                                                                           150                                
PRCFAMCHA050402074656074715000019Nonstop Weekend - LIZZIE MCGUIRE - Pyramid                                                                                  150                                
PROFAMCHA050402074715074745000030Zoey 101 - Perfect (NSW) (MAR05) - Today @ 9:40am                                                                           150                                
PROFAMCHA050402074745074817000032Power Rangers - SPD - He's Tough - Tomorrow @ 6:55                                                                          150                                
PROFAMCHA050402074817074847000030Gotta Kick It Up (WDP) - Tomorrow @ 12pm                                                                                    150                                
ID FAMCHA050402074847074904000017Nonstop Weekend Block Open (:14-:17)                                                                                        150                                
ID FAMCHA050402074904074912000008Magic of Disney - NS/NSW/PB - Shape (:06-:09)                                                                               150                                
PROFAMCHA050402074912074921000009CC Disclaimer - FAST - Family.ca (:08-:10)                                                                                  150                                
PGRFAMCHA050402074921081152002231Lizzie McGuire                                    EP: 2-012                                                           A6068607BCC                              
PRCFAMCHA050402081152081157000005Astral ID (FEB05)                                                                                                           150                                
PROFAMCHA050402081157081212000015Nnstp Wknd - 01(PH) - WTP/BENJAMIN/FRANNY (:14-:16                                                                          150                                
PRCFAMCHA050402081212081220000008Radio Free Roscoe ID (Jan5) - Coming Up Next                                                                                150                                
PRCFAMCHA050402081220081250000030Phil of the Future (NSW) (PHIL) (DEC04) - Today @                                                                           150                                
PRCFAMCHA050402081250081323000033That's So Raven - Dog Wash (NSW/AM) (MAR05) - Toda                                                                          150                                
PROFAMCHA050402081323081353000030Zoey 101 - Perfect (NSW) (MAR05) - Today @ 9:40am                                                                           150                                
PRCFAMCHA050402081353081423000030xxNonstop Weekend Block Promo (NSW) - On Family                                                                             150                                
PROFAMCHA050402081423081430000007Zoey 101 ID - You're watching family..NADM                                                                                  150                                
PROFAMCHA050402081430081500000030American Dragon: Jake Long - Today @ 5:10pm                                                                                 150                                
PROFAMCHA050402081500081530000030Gotta Kick It Up (WDP) - Tomorrow @ 12pm                                                                                    150                                
PRCFAMCHA050402081530081544000014Family Bumpers - (Phase 1 Spring 04) - Basketball                                                                           150                                
ID FAMCHA050402081544081600000016Nonstop Weekend Block Open (:14-:17)                                                                                        150                                
PROFAMCHA050402081600081609000009CC Disclaimer - FAST - Family.ca (:08-:10)                                                                                  150                                
PGRFAMCHA050402081609083839002230Radio Free Roscoe                                 EPS # 24                                                      B88737A1065607ACC                              
PROFAMCHA050402083839083855000016Nnstp Wknd - 01(PH) - WTP/BENJAMIN/FRANNY (:14-:16                                                                          150                                
PRCFAMCHA050402083855083925000030Phil of the Future (NSW) (PHIL) (DEC04) - Coming U                                                                          150                                
PRCFAMCHA050402083925083958000033That's So Raven - Dog Wash (NSW/AM) (MAR05) - Toda                                                                          150                                
PROFAMCHA050402083958084028000030Zoey 101 - Perfect (NSW) (MAR05) - Today @ 9:40am                                                                           150                                
PROFAMCHA050402084028084101000033Even Stevens - Stinky Feet (MAR05) - (NSW) - Today                                                                          150                                
PROFAMCHA050402084101084131000030Double Teamed (SEPT12) - Next Friday @ 7:30pm                                                                               150                                
PRCFAMCHA050402084131084201000030Nonstop Weekend - EVEN STEVENS - Gym Test                                                                                   150                                
PROFAMCHA050402084201084230000029Smart Guy (APR04) - Mon to Thurs @ 11:30pm                                                                                  150                                
PROFAMCHA050402084230084300000030Gotta Kick It Up (WDP) - Tomorrow @ 12pm                                                                                    150                                
PROFAMCHA050402084300084434000134Bullying - The Pledge 2004 (w/o music)                                                                                      150                                
PROFAMCHA050402084434084440000006Phil of the Future IDs - Check out Phil..Coming Up                                                                          150                                
ID FAMCHA050402084440084457000017Nonstop Weekend Block Open (:14-:17)                                                                                        150                                
PGRFAMCHA050402084457090737002240Phil of the Future                                EPS # 12                                                             6068807B                                
PRCFAMCHA050402090737090742000005Astral ID (FEB05)                                                                                                           150                                
PROFAMCHA050402090742090758000016Nnstp Wknd - 01(PH) - WTP/BENJAMIN/FRANNY (:14-:16                                                                          150                                
PRCFAMCHA050402090758090831000033That's So Raven - Dog Wash (NSW) (MAR05) - Coming                                                                           150                                
PROFAMCHA050402090831090901000030Zoey 101 - Perfect (NSW) (MAR05) - Today @ 9:40am                                                                           150                                
PROFAMCHA050402090901090934000033Even Stevens - Stinky Feet (MAR05) - (NSW) - Today                                                                          150                                
PROFAMCHA050402090934091003000029Smart Guy (APR04) - Mon to Thurs @ 11:30pm                                                                                  150                                
PROFAMCHA050402091003091013000010FAMJAM - Open/Close                                                                                                         150                                
INTFAMCHA050402091013091143000130MV Disney - Huckaroo (Pixel Perfect)                                                                                   60688120                                
PROFAMCHA050402091143091157000014xxFAMJAM - Close (FAMILY) xxDNUxx                                                                                           150                                
PROFAMCHA050402091157091227000030American Dragon: Jake Long - Today @ 5:10pm                                                                                 150                                
PRCFAMCHA050402091227091312000045Famous Players Popcorn Parties                                                                                              150                                
PROFAMCHA050402091312091342000030Gotta Kick It Up (WDP) - Tomorrow @ 12pm                                                                                    150                                
ID FAMCHA050402091342091359000017Nonstop Weekend Block Open (:14-:17)                                                                                        150                                
PGRFAMCHA050402091359093638002239That's So Raven                                   EPS # 1-036                                                         A6068807B                                
PROFAMCHA050402093638093652000014Nnstp Wknd - 01(PH) - WTP/BENJAMIN/FRANNY (:14-:16                                                                          150                                
PROFAMCHA050402093652093722000030Zoey 101 - Perfect (NSW) (MAR05) - Coming Up Next                                                                           150                                
PROFAMCHA050402093722093802000040Avril Lavigne Concert Tour Blast! - (April 1-2)                                                                             150                                
PROFAMCHA050402093802093832000030Gotta Kick It Up (WDP) - Tomorrow @ 12pm                                                                                    150                                
PROFAMCHA050402093832093945000113Bullying - The Pledge 2004 (w/o music)                                                                                      150                                
ID FAMCHA050402093945094000000015Nonstop Weekend Block Open (:14-:17)                                                                                        150                                
PROFAMCHA050402094000094009000009CC Disclaimer - FAST - Family.ca (:08-:10)                                                                                  150                                
PGRFAMCHA050402094009100326002317Zoey 101                                          EPS # 01                                                             2068707BCC                              
PRCFAMCHA050402100326100331000005Astral ID (FEB05)                                                                                                           150                                
PROFAMCHA050402100331100345000014Nnstp Wknd - 01(PH) - WTP/BENJAMIN/FRANNY (:14-:16                                                                          150                                
PROFAMCHA050402100345100418000033Even Stevens - Stinky Feet (MAR05) - (NSW) - Comin                                                                          150                                
PROFAMCHA050402100418100448000030Zoey 101 - Perfect (NSW) (MAR05) - Tomorrow @ 9:40                                                                          150                                
PROFAMCHA050402100448100518000030Double Teamed (SEPT12) - Next Friday @ 7:30pm                                                                               150                                
PROFAMCHA050402100518100547000029Smart Guy (APR04) - Mon to Thurs @ 11:30pm                                                                                  150                                
PROFAMCHA050402100547100557000010FAMJAM - Open/Close                                                                                                         150                                
INTFAMCHA050402100557100727000130MV Disney - Girl Power (Cheetah Girls)                                                                                 60688120                                
PROFAMCHA050402100727100741000014xxFAMJAM - Close (FAMILY) xxDNUxx                                                                                           150                                
PROFAMCHA050402100741100811000030American Dragon: Jake Long - Today @ 5:10pm                                                                                 150                                
PRCFAMCHA050402100811100836000025Nonstop Weekend - KIM POSSIBLE - Friends                                                                                    150                                
PROFAMCHA050402100836100906000030Gotta Kick It Up (WDP) - Tomorrow @ 12pm                                                                                    150                                
PRCFAMCHA050402100906101046000140Family Lab - Amazing Pet Talker                                                                                             150                                
ID FAMCHA050402101046101100000014Nonstop Weekend Block Open (:14-:17)                                                                                        150                                
ID FAMCHA050402101100101108000008Magic of Disney - NS/NSW/PB - Wipe (:06-:09)                                                                                150                                
PROFAMCHA050402101108101117000009CC Disclaimer - FAST - Family.ca (:08-:10)                                                                                  150                                
PGRFAMCHA050402101117103346002229Even Stevens                                      EP: 3-004                                                           A6068807BCC                              
PROFAMCHA050402103346103401000015Nnstp Wknd - 01(PH) - WTP/BENJAMIN/FRANNY (:14-:16                                                                          150                                
PROFAMCHA050402103401103431000030Double Teamed (SEPT12) - Next Friday @ 7:30pm                                                                               150                                
PROFAMCHA050402103431103513000042Power Rangers SPD Contest (March 7 - April 3)                                                                               150                                
PROFAMCHA050402103513103542000029Smart Guy (APR04) - Mon to Thurs @ 11:30pm                                                                                  150                                
PROFAMCHA050402103542103600000018xxBrotherly Love - Fire (NSW) (MAR05) - Today @ 11                                                                          150                                
PROFAMCHA050402103600103610000010FAMJAM - Open/Close                                                                                                         150                                
INTFAMCHA050402103610103710000100MV Disney - (FAMILY HITS) That's So Raven Theme So                                                                     60688120                                
PROFAMCHA050402103710103724000014xxFAMJAM - Close (FAMILY) xxDNUxx                                                                                           150                                
PRCFAMCHA050402103724103754000030Weekend Double Pix Combo (DEC04) - Today @ 12pm                                                                             150                                
PROFAMCHA050402103754103805000011Nonstop Weekend - LIZZIE MCGUIRE - Junk Food                                                                                150                                
PROFAMCHA050402103805103835000030Gotta Kick It Up (WDP) - Tomorrow @ 12pm                                                                                    150                                
PRCFAMCHA050402103835103844000009Family Bumpers - (Phase 2 F/W 04) - Skateboard (MD                                                                          150                                
ID FAMCHA050402103844103900000016Nonstop Weekend Block Open (:14-:17)                                                                                        150                                
PROFAMCHA050402103900103909000009CC Disclaimer - FAST - Family.ca (:08-:10)                                                                                  150                                
PGRFAMCHA050402103909110119002210Boy Meets World                                   EP: 1-040                                                           B6068807BCC                              
PRCFAMCHA050402110119110124000005Astral ID (FEB05)                                                                                                           150                                
PROFAMCHA050402110124110140000016Nnstp Wknd - 01(PH) - WTP/BENJAMIN/FRANNY (:14-:16                                                                          150                                
PROFAMCHA050402110140110209000029Smart Guy (APR04) - Mon to Thurs @ 11:30pm                                                                                  150                                
PROFAMCHA050402110209110227000018xxBrotherly Love - Fire (NSW) (MAR05) - Today @ 11                                                                          150                                
PRCFAMCHA050402110227110245000018Radio Free Roscoe - Webthrow (Waller)                                                                                       150                                
PROFAMCHA050402110245110315000030Smart Guy (APR04) - Mon to Thurs @ 11:30pm                                                                                  150                                
PROFAMCHA050402110315110345000030Gotta Kick It Up (WDP) - Tomorrow @ 12pm                                                                                    150                                
ID FAMCHA050402110345110400000015Nonstop Weekend Block Open (:14-:17)                                                                                        150                                
PROFAMCHA050402110400110409000009CC Disclaimer - FAST - Family.ca (:08-:10)                                                                                  150                                
PGRFAMCHA050402110409112749002340Ned's Declassified School Survival Guide          EPS # 01                                                             2068807BCC                              
PROFAMCHA050402112749112828000039Brotherly Love (NSW) - Tomorrow @ 11:30am                                                                                   150                                
PROFAMCHA050402112828112858000030Smart Guy (APR04) - Mon to Thurs @ 11:30pm                                                                                  150                                
PROFAMCHA050402112858112921000023Lizzie McGuire - SFX2 (NSW/PM) - Today @ 3:25pm                                                                             150                                
PROFAMCHA050402112921112951000030American Dragon: Jake Long - Today @ 5:10pm                                                                                 150                                
INTFAMCHA050402112951113109000118Gagsters                                          EP: 46                                                              A20686120                                
PROFAMCHA050402113109113139000030Zoey 101 - Perfect (NSW) (MAR05) - Tomorrow @ 9:40                                                                          150                                
PROFAMCHA050402113139113208000029Smart Guy (APR04) - Mon to Thurs @ 11:30pm                                                                                  150                                
PROFAMCHA050402113208113238000030Gotta Kick It Up (WDP) - Tomorrow @ 12pm                                                                                    150                                
PRCFAMCHA050402113238113245000007Family Bumpers - (Phase 2 F/W 04) - Hockey (MD-L/M                                                                          150                                
ID FAMCHA050402113245113300000015Nonstop Weekend Block Open (:14-:17)                                                                                        150                                
PGRFAMCHA050402113300115533002233Brotherly Love                                    EPS # 13                                                             6068807B                                
PROFAMCHA050402115533115549000016Nonstop Weekend - 17(SEP) - WDP MOVIE (:14-:16)                                                                             150                                
PRCFAMCHA050402115549115619000030Weekend Double Pix Combo (DEC04) - Coming Up Next                                                                           150                                
PROFAMCHA050402115619115649000030Smart Guy (APR04) - Mon to Thurs @ 11:30pm                                                                                  150                                
PROFAMCHA050402115649115712000023Lizzie McGuire - SFX2 (NSW/PM) - Today @ 3:25pm                                                                             150                                
PROFAMCHA050402115712115742000030That's So Raven (GOOD LIFE) - Mon to Thu @ 6:30pm                                                                           150                                
PRCFAMCHA050402115742115812000030xxNonstop Weekend Block Promo (NSW) - On Family                                                                             150                                
PROFAMCHA050402115812115842000030American Dragon: Jake Long - Today @ 5:10pm                                                                                 150                                
PROFAMCHA050402115842115911000029Smart Guy (APR04) - Mon to Thurs @ 11:30pm                                                                                  150                                
PROFAMCHA050402115911115941000030Zoey 101 - Perfect (NSW) (MAR05) - Tomorrow @ 9:40                                                                          150                                
ID FAMCHA050402115941115958000017Weekend Double Pix Movie Open (:13-:17)                                                                                     150                                
ID FAMCHA050402115958120007000009Rating - G - Ian (:08-:10)                                                                                                  150                                
PROFAMCHA050402120007120016000009CC Disclaimer - FAST - Family.ca (:08-:10)                                                                                  150                                
PGRFAMCHA050402120016132653012637MVP2: Most Vertical Primate                                                                                     C19871A1065807DCC                              
PROFAMCHA050402132653132709000016Nonstop Weekend - 17(SEP) - WDP MOVIE (:14-:16)                                                                             150                                
PROFAMCHA050402132709132739000030Zoey 101 - Perfect (NSW) (MAR05) - Tomorrow @ 9:40                                                                          150                                
PROFAMCHA050402132739132809000030Smart Guy (APR04) - Mon to Thurs @ 11:30pm                                                                                  150                                
PROFAMCHA050402132809132839000030That's So Raven (GOOD LIFE) - Mon to Thu @ 6:30pm                                                                           150                                
PROFAMCHA050402132839132908000029Smart Guy (APR04) - Mon to Thurs @ 11:30pm                                                                                  150                                
PROFAMCHA050402132908132938000030Gotta Kick It Up (WDP) - Tomorrow @ 12pm                                                                                    150                                
ID FAMCHA050402132938132955000017Weekend Double Pix Movie Open (:13-:17)                                                                                     150                                
ID FAMCHA050402132955133004000009Rating - PG - Ian (:08-:10)                                                                                                 150                                
PROFAMCHA050402133004133013000009CC Disclaimer - FAST - Family.ca (:08-:10)                                                                                  150                                
PGRFAMCHA050402133013150431013418The Stupids                                                                                                           B2068807ECC                              
PROFAMCHA050402150431150447000016Nnstp Wknd - 01(PH) - WTP/BENJAMIN/FRANNY (:14-:16                                                                          150                                
ID FAMCHA050402150447150504000017Nonstop Weekend Block Open (:14-:17)                                                                                        150                                
PROFAMCHA050402150504150513000009CC Disclaimer - FAST - Family.ca (:08-:10)                                                                                  150                                
PGRFAMCHA050402150513152743002230Smart Guy                                         EP: 1-033                                                           A6068807BCC                              
PROFAMCHA050402152743152757000014Nnstp Wknd - 01(PH) - WTP/BENJAMIN/FRANNY (:14-:16                                                                          150                                
PROFAMCHA050402152757152837000040Avril Lavigne Concert Tour Blast! - (April 1-2)                                                                             150                                
ID FAMCHA050402152837152851000014Nonstop Weekend Block Open (:14-:17)                                                                                        150                                
ID FAMCHA050402152851152859000008Magic of Disney - NS/NSW/PB - Shape (:06-:09)                                                                               150                                
PGRFAMCHA050402152859155134002235Lizzie McGuire                                    EP: 1-023                                                           A6068607B                                
PROFAMCHA050402155134155148000014Nnstp Wknd - 19 - RAVEN/PROUD/FILLMORE (:14-:16) (                                                                          150                                
PROFAMCHA050402155148155301000113Bullying - The Pledge 2004 (w/o music)                                                                                      150                                
PROFAMCHA050402155301155331000030Gotta Kick It Up (WDP) - Tomorrow @ 12pm                                                                                    150                                
ID FAMCHA050402155331155345000014Nonstop Weekend Block Open (:14-:17)                                                                                        150                                
PGRFAMCHA050402155345161606002221That's So Raven                                   EPS # 1-053                                                          6068807B                                
PROFAMCHA050402161606161622000016Nonstop Weekend - 21 - PROUD/FILLMORE/KIM (:14-:16                                                                          150                                
PROFAMCHA050402161622161652000030Zoey 101 - Perfect (NSW) (MAR05) - Tomorrow @ 9:40                                                                          150                                
PRCFAMCHA050402161652161701000009Radio Free Roscoe ID (MAR) - You're Watching Famil                                                                          150                                
PROFAMCHA050402161701161731000030American Dragon: Jake Long - Today @ 5:10pm                                                                                 150                                
PRCFAMCHA050402161731161743000012Family Bumpers - (Phase 1 Spring 04) - Pillow Figh                                                                          150                                
ID FAMCHA050402161743161800000017Nonstop Weekend Block Open (:14-:17)                                                                                        150                                
PROFAMCHA050402161800161809000009CC Disclaimer - FAST - Family.ca (:08-:10)                                                                                  150                                
PGRFAMCHA050402161809164044002235The Proud Family                                  EP: 2-021                                                           A6068807ECC                              
PROFAMCHA050402164044164058000014Nonstop Weekend - 22 - FILLMORE/KIM/LIZZIE (:14-:1                                                                          150                                
PROFAMCHA050402164058164132000034Fillmore (STYLISH) - (NSW) - Weekends @ 4:15pm                                                                              150                                
PROFAMCHA050402164132164202000030American Dragon: Jake Long - Today @ 5:10pm                                                                                 150                                
PROFAMCHA050402164202164232000030Kim Possible (NOV2003) - (MD) - Coming Up                                                                                   150                                
