SO FAMCHA050301043000043011000011Sign On (oct 1)                                                                                                                                                
PROFAMCHA050301043011043020000009CC Disclaimer - FAST - Family.ca (:08-:10)                                                                                  150                                
PGRFAMCHA050301043020045313002253Franklin                                          EP: 4-040                                                     B38147A1065607ECC                              
PROFAMCHA050301045313045328000015PS - 01(PH) - WTP/Benjamin/Franny                                                                                           150                                
ID FAMCHA050301045328045341000013PS Playhouse AM Block Open (:10-:15)                                                                                        150                                
PROFAMCHA050301045341045350000009CC Disclaimer - FAST - Family.ca (:08-:10)                                                                                  150                                
PGRFAMCHA050301045350051620002230King                                              EPS # 2-017                                                   B75772A1065607ECC                              
PROFAMCHA050301051620051635000015PS - 01(PH) - WTP/Benjamin/Franny                                                                                           150                                
ID FAMCHA050301051635051648000013PS Playhouse AM Block Open (:10-:15)                                                                                        150                                
PROFAMCHA050301051648051657000009CC Disclaimer - FAST - Family.ca (:08-:10)                                                                                  150                                
PGRFAMCHA050301051657054335002638Katie And Orbie                                   EP: 6-074                                                     B62277A1065607ECC                              
PROFAMCHA050301054335054351000016PS - 01(PH) - WTP/Benjamin/Franny                                                                                           150                                
ID FAMCHA050301054351054404000013PS Playhouse AM Block Open (:10-:15)                                                                                        150                                
PROFAMCHA050301054404054413000009CC Disclaimer - FAST - Family.ca (:08-:10)                                                                                  150                                
PGRFAMCHA050301054413060706002253Franklin                                          EP: 4-041                                                     B38148A1065607ECC                              
PROFAMCHA050301060706060721000015PS - 01(PH) - WTP/Benjamin/Franny                                                                                           150                                
ID FAMCHA050301060721060734000013PS Playhouse AM Block Open (:10-:15)                                                                                        150                                
PROFAMCHA050301060734060743000009CC Disclaimer - FAST - Family.ca (:08-:10)                                                                                  150                                
PGRFAMCHA050301060743063014002231Something Else                                    EP: 1-005                                                     B69259A1065607ECC                              
PROFAMCHA050301063014063029000015PS - 01(PH) - WTP/Benjamin/Franny                                                                                           150                                
ID FAMCHA050301063029063042000013PS Playhouse AM Block Open (:10-:15)                                                                                        150                                
PROFAMCHA050301063042063051000009CC Disclaimer - FAST - Family.ca (:08-:10)                                                                                  150                                
PGRFAMCHA050301063051065331002240Hoze Houndz                                       EP: 4-040                                                     B63376A1065607ECC                              
PROFAMCHA050301065331065346000015PS - 01(PH) - WTP/Benjamin/Franny                                                                                           150                                
ID FAMCHA050301065346065400000014Mad Dash Block Open (:13-:15)                                                                                               150                                
PROFAMCHA050301065400065408000008CC Disclaimer - FAST - Family.ca (:08-:10)                                                                                  150                                
PGRFAMCHA050301065408071643002235Disney's Aladdin                                  EP: 1-079                                                            6068607ECC                              
PROFAMCHA050301071643071657000014PS - 01(PH) - WTP/Benjamin/Franny                                                                                           150                                
PROFAMCHA050301071657071727000030Smart Guy (APR04) - Mon to Thurs @ 11:30pm                                                                                  150                                
PROFAMCHA050301071727071757000030Kim Possible 007 (FEB05) (MD) - New Episodes start                                                                          150                                
PROFAMCHA050301071757071835000038Smart Guy (APR04) - Mon to Thurs @ 11:30pm                                                                                  150                                
PROFAMCHA050301071835071851000016Cheetah Girls (WDP) - Saturday @ 12pm                                                                                       150                                
PROFAMCHA050301071851071919000028Lilo & Stitch (MD/AM) (JAN05) - Today @ 7:50am                                                                              150                                
PRCFAMCHA050301071919071951000032Benjamin Bear (PH-T/T) - Today @ 8:45am                                                                                     150                                
PROFAMCHA050301071951072047000056Spring Break-Out - Mall Tour (Feb 21 - Mar 16)                                                                              150                                
ID FAMCHA050301072047072100000013Mad Dash Block Open (:13-:15)                                                                                               150                                
PGRFAMCHA050301072100074354002254Disney's Kim Possible                             EPS # 1-043                                                         A6068607E                                
PROFAMCHA050301074354074410000016PS - 01(PH) - WTP/Benjamin/Franny                                                                                           150                                
PROFAMCHA050301074410074440000030Smart Guy (APR04) - Mon to Thurs @ 11:30pm                                                                                  150                                
PROFAMCHA050301074440074508000028Lilo & Stitch (MD) (JAN05) - Coming Up Next                                                                                 150                                
PROFAMCHA050301074508074524000016Cheetah Girls (WDP) - Saturday @ 12pm                                                                                       150                                
PROFAMCHA050301074524074548000024Jason (Hiking) - Today @ 11:25am                                                                                            150                                
PRCFAMCHA050301074548074620000032Benjamin Bear (PH-T/T) - Today @ 8:45am                                                                                     150                                
PROFAMCHA050301074620074644000024Hercules (Count) - Today @ 12:10pm                                                                                          150                                
PRCFAMCHA050301074644074714000030xxNonstop Weekend Block Promo (NSW) - On Family                                                                             150                                
PROFAMCHA050301074714074755000041Smart Guy (APR04) - Mon to Thurs @ 11:30pm                                                                                  150                                
PROFAMCHA050301074755074851000056Spring Break-Out - Mall Tour (Feb 21 - Mar 16)                                                                              150                                
ID FAMCHA050301074851074906000015Mad Dash Block Open (:13-:15)                                                                                               150                                
PGRFAMCHA050301074906081146002240Disney's Lilo & Stitch                            EPS # 02                                                            A6068607E                                
PROFAMCHA050301081146081200000014PS - 01(PH) - WTP/Benjamin/Franny                                                                                           150                                
PROFAMCHA050301081200081230000030Smart Guy (APR04) - Mon to Thurs @ 11:30pm                                                                                  150                                
PROFAMCHA050301081230081308000038Smart Guy (APR04) - Mon to Thurs @ 11:30pm                                                                                  150                                
PROFAMCHA050301081308081324000016Proud Family (BOND) - (MD) - Coming Up                                                                                      150                                
PRCFAMCHA050301081324081354000030Mad Dash - AM (YOUNGER) - You're Watching                                                                                   150                                
INTFAMCHA050301081354081508000114xxGagsters - Eye Dropper                          EP: 46                                                              A20686120                                
PROFAMCHA050301081508081538000030Kim Possible 007 (FEB05) (MD) - Today @ 4:40pm                                                                              150                                
PROFAMCHA050301081538081606000028Proud Family (BOND) - (MD) - Coming Up                                                                                      150                                
PROFAMCHA050301081606081652000046Spring Break-Out - Big Event (Feb 21 - Mar 16)                                                                              150                                
ID FAMCHA050301081652081706000014Mad Dash Block Open (:13-:15)                                                                                               150                                
PROFAMCHA050301081706081714000008CC Disclaimer - FAST - Family.ca (:08-:10)                                                                                  150                                
PGRFAMCHA050301081714084017002303The Little Mermaid                                EP: 1-012                                                            6068607ECC                              
PROFAMCHA050301084017084032000015PS - 01(PH) - WTP/Benjamin/Franny                                                                                           150                                
PRCFAMCHA050301084032084104000032Benjamin Bear (PH) - Coming Up Next                                                                                         150                                
PROFAMCHA050301084104084133000029Winnie the Pooh (TRAP) (PH/AM) - Today @ 9:10am                                                                             150                                
PROFAMCHA050301084133084203000030Jojo's Circus - (PH/AM) - Weekdays @ 9:45am                                                                                 150                                
INTFAMCHA050301084203084348000145Disney Circle Time - My Shadow (anywhere but D12)                                                                      60688120                                
PROFAMCHA050301084348084432000044xxStanley - (AUG04) - (PH-M/W/F) - Tomorrow @ 10:0                                                                          150                                
PROFAMCHA050301084432084451000019Henry's World (JAN05) - Today @ 10:35am                                                                                     150                                
ID FAMCHA050301084451084501000010PS Playhouse AM Block Open (:10-:15)                                                                                        150                                
PROFAMCHA050301084501084510000009CC Disclaimer - FAST - Family.ca (:08-:10)                                                                                  150                                
PGRFAMCHA050301084510090745002235The Secret World Of Benjamin Bear                 EPS # 1-002                                                   A75147A1065607ECC                              
PROFAMCHA050301090745090801000016PS - 01(PH) - WTP/Benjamin/Franny                                                                                           150                                
PROFAMCHA050301090801090830000029Winnie the Pooh (TRAP) (PH/AM) - Coming Up Next                                                                             150                                
PROFAMCHA050301090830090900000030Jojo's Circus - (PH/AM) - Weekdays @ 9:45am                                                                                 150                                
PRCFAMCHA050301090900090930000030Franny's Feet (PH-M/W/F) - Tomorrow @ 8:45am                                                                                150                                
PROFAMCHA050301090930091017000047Doggie Day Care - March 11 & 29 @ 1pm (Feb 25 to M                                                                          150                                
PROFAMCHA050301091017091101000044xxStanley - (AUG04) - (PH-M/W/F) - Tomorrow @ 10:0                                                                          150                                
PRCFAMCHA050301091101091157000056Playhouse - STANLEY - Fish Song                                                                                             150                                
PROFAMCHA050301091157091216000019Henry's World (JAN05) - Today @ 10:35am                                                                                     150                                
PROFAMCHA050301091216091246000030Princess Block (NOV04) - Today @ 1pm                                                                                        150                                
ID FAMCHA050301091246091300000014PS Playhouse AM Block Open (:10-:15)                                                                                        150                                
PROFAMCHA050301091300091309000009CC Disclaimer - FAST - Family.ca (:08-:10)                                                                                  150                                
PGRFAMCHA050301091309093620002311The New Adventures of Winnie the Pooh             EP: 1-032                                                            6068607ECC                              
PROFAMCHA050301093620093636000016PS - 12(PH) - JOJO/STANLEY/HENRY (:14-:16) (Jan12)                                                                          150                                
PROFAMCHA050301093636093706000030Jojo's Circus - (PH/AM) - Weekdays @ 9:45am                                                                                 150                                
PRCFAMCHA050301093706093736000030Franny's Feet (PH-M/W/F) - Tomorrow @ 8:45am                                                                                150                                
PRCFAMCHA050301093736093842000106Playhouse - WINNIE THE POOH - Christopher Robin                                                                             150                                
PROFAMCHA050301093842093926000044xxStanley - (AUG04) - (PH-M/W/F) - Tomorrow @ 10:0                                                                          150                                
PROFAMCHA050301093926093945000019Henry's World (JAN05) - Today @ 10:35am                                                                                     150                                
ID FAMCHA050301093945094000000015PS Playhouse AM Block Open (:10-:15)                                                                                        150                                
PGRFAMCHA050301094000100408002408JoJo's Circus                                     EPS # 09                                                            A6068607E                                
PROFAMCHA050301100408100423000015PS - 01(PH) - WTP/Benjamin/Franny                                                                                           150                                
PROFAMCHA050301100423100442000019Henry's World (JAN05) - Today @ 10:35am                                                                                     150                                
PRCFAMCHA050301100442100512000030Franny's Feet (PH-M/W/F) - Tomorrow @ 8:45am                                                                                150                                
PROFAMCHA050301100512100556000044xxStanley - (AUG04) - (PH-M/W/F) - Tomorrow @ 10:0                                                                          150                                
PRCFAMCHA050301100556100652000056Playhouse - STANLEY - Fish Song                                                                                             150                                
PRCFAMCHA050301100652100723000031King (FRIENDS/0804) (PH/AM) - Weekdays @ 11am                                                                               150                                
PROFAMCHA050301100723100748000025Hoze Houndz (Can't Fly) (PH/PM) - Today @ 2:10pm                                                                            150                                
ID FAMCHA050301100748100800000012PS Playhouse AM Block Open (:10-:15)                                                                                        150                                
PROFAMCHA050301100800100809000009CC Disclaimer - FAST - Family.ca (:08-:10)                                                                                  150                                
PGRFAMCHA050301100809103213002404Higglytown Heroes                                 EPS # 01                                                             6028607E                                
PROFAMCHA050301103213103228000015PS - 01(PH) - WTP/Benjamin/Franny                                                                                           150                                
PROFAMCHA050301103228103247000019Henry's World (JAN05) - Coming Up Next                                                                                      150                                
PRCFAMCHA050301103247103318000031King (FRIENDS/0804) (PH/AM) - Weekdays @ 11am                                                                               150                                
PRCFAMCHA050301103318103348000030Franny's Feet (PH-M/W/F) - Tomorrow @ 8:45am                                                                                150                                
ID FAMCHA050301103348103400000012PS Playhouse AM Block Open (:10-:15)                                                                                        150                                
PROFAMCHA050301103400103409000009CC Disclaimer - FAST - Family.ca (:08-:10)                                                                                  150                                
PGRFAMCHA050301103409105810002401Henry's World                                     EP: 2-019                                                     A81050A1065607GCC                              
PROFAMCHA050301105810105824000014PS - 01(PH) - WTP/Benjamin/Franny                                                                                           150                                
PRCFAMCHA050301105824105855000031King (FRIENDS/0804) (PH/AM) - Weekdays @ 11am                                                                               150                                
PROFAMCHA050301105855105920000025Hoze Houndz (Can't Fly) (PH/PM) - Today @ 2:10pm                                                                            150                                
PROFAMCHA050301105920105950000030Jojo's Circus - (PH/AM) - Weekdays @ 9:45am                                                                                 150                                
ID FAMCHA050301105950110000000010PS Playhouse AM Block Open (:10-:15)                                                                                        150                                
PROFAMCHA050301110000110009000009CC Disclaimer - FAST - Family.ca (:08-:10)                                                                                  150                                
INTFAMCHA050301110009112239002230King                                              EPS # 027                                                     A00331A10256120CC                              
PROFAMCHA050301112239112255000016PS - 01(PH) - WTP/Benjamin/Franny                                                                                           150                                
PROFAMCHA050301112255112325000030Smart Guy (APR04) - Mon to Thurs @ 11:30pm                                                                                  150                                
PROFAMCHA050301112325112349000024Jason (Hiking) - Coming Up Next                                                                                             150                                
PROFAMCHA050301112349112421000032xxPower Rangers - SPD - He's Tough - Premiering Sa                                                                          150                                
PROFAMCHA050301112421112449000028Lilo & Stitch (MD/L) (JAN05) - Today @ 11:50am                                                                              150                                
PROFAMCHA050301112449112530000041Smart Guy (APR04) - Mon to Thurs @ 11:30pm                                                                                  150                                
PROFAMCHA050301112530112542000012Mad Dash - RECESS - Sprinkler                                                                                               150                                
PROFAMCHA050301112542112638000056Spring Break-Out - Mall Tour (Feb 21 - Mar 16)                                                                              150                                
PRCFAMCHA050301112638112645000007Family Bumpers - (Phase 2 F/W 04) - Hockey (MD-L/M                                                                          150                                
ID FAMCHA050301112645112700000015Mad Dash Block Open (:13-:15)                                                                                               150                                
PGRFAMCHA050301112700114914002214Jason and the Heroes of Mount Olympus             EPS # 05                                                             6068607E                                
PROFAMCHA050301114914114929000015PS - 01(PH) - WTP/Benjamin/Franny                                                                                           150                                
PROFAMCHA050301114929114945000016Proud Family (BOND) - (MD) - Coming Up                                                                                      150                                
ID FAMCHA050301114945115000000015Mad Dash Block Open (:13-:15)                                                                                               150                                
PGRFAMCHA050301115000121239002239Disney's Lilo & Stitch                            EPS # 17                                                            A6068607E                                
PROFAMCHA050301121239121254000015PS - 01(PH) - WTP/Benjamin/Franny                                                                                           150                                
ID FAMCHA050301121254121308000014Mad Dash Block Open (:13-:15)                                                                                               150                                
PGRFAMCHA050301121308123600002252Disney's Hercules                                 EP: 1-004                                                            6068607E                                
PROFAMCHA050301123600123615000015PS - 01(PH) - WTP/Benjamin/Franny                                                                                           150                                
PROFAMCHA050301123615123645000030Smart Guy (APR04) - Mon to Thurs @ 11:30pm                                                                                  150                                
ID FAMCHA050301123645123700000015Mad Dash Block Open (:13-:15)                                                                                               150                                
PROFAMCHA050301123700123709000009CC Disclaimer - FAST - Family.ca (:08-:10)                                                                                  150                                
PGRFAMCHA050301123709130001002252Goof Troop                                        EP: 1-057                                                            6068607ECC                              
PROFAMCHA050301130001130016000015PS - 01(PH) - WTP/Benjamin/Franny                                                                                           150                                
PROFAMCHA050301130016130103000047Doggie Day Care - March 11 & 29 @ 1pm (Feb 25 to M                                                                          150                                
ID FAMCHA050301130103130117000014PS Playhouse PM Block Open (:10-:15)                                                                                        150                                
PROFAMCHA050301130117130126000009CC Disclaimer - FAST - Family.ca (:08-:10)                                                                                  150                                
PGRFAMCHA050301130126132429002303The Little Mermaid                                EP: 1-018                                                            6068607ECC                              
PROFAMCHA050301132429132443000014PS - 01(PH) - WTP/Benjamin/Franny                                                                                           150                                
PRCFAMCHA050301132443132450000007Family Bumpers - (Phase 2 F/W 04) - Snow Twirl (MD                                                                          150                                
ID FAMCHA050301132450132500000010PS Playhouse PM Block Open (:10-:15)                                                                                        150                                
PROFAMCHA050301132500132509000009CC Disclaimer - FAST - Family.ca (:08-:10)                                                                                  150                                
PGRFAMCHA050301132509134742002233Disney's Aladdin                                  EP: 1-016                                                           A6068607ECC                              
PROFAMCHA050301134742134758000016PS - 01(PH) - WTP/Benjamin/Franny                                                                                           150                                
ID FAMCHA050301134758134813000015PS Playhouse PM Block Open (:10-:15)                                                                                        150                                
PGRFAMCHA050301134813141059002246Disney's 101 Dalmatians: The Series               EPS # 1-060                                                         A6068607E                                
PROFAMCHA050301141059141115000016PS - 01(PH) - WTP/Benjamin/Franny                                                                                           150                                
PROFAMCHA050301141115141145000030Princess Block (NOV04) - You're Watching                                                                                    150                                
ID FAMCHA050301141145141200000015PS Playhouse PM Block Open (:10-:15)                                                                                        150                                
PROFAMCHA050301141200141209000009CC Disclaimer - FAST - Family.ca (:08-:10)                                                                                  150                                
PGRFAMCHA050301141209143447002238Hoze Houndz                                       EP: 5-064                                                     B63400A1065607ECC                              
PROFAMCHA050301143447143503000016PS - 01(PH) - WTP/Benjamin/Franny                                                                                           150                                
PROFAMCHA050301143503143533000030Princess Block (NOV04) - You're Watching                                                                                    150                                
PRCFAMCHA050301143533143545000012Family Bumpers - (Phase 1 Spring 04) - Funhouse (P                                                                          150                                
ID FAMCHA050301143545143600000015PS Playhouse PM Block Open (:10-:15)                                                                                        150                                
PGRFAMCHA050301143600145837002237Disney's House Of Mouse                           EP: 1-043                                                           A6068607E                                
PROFAMCHA050301145837145851000014PS - 01(PH) - WTP/Benjamin/Franny                                                                                           150                                
PROFAMCHA050301145851145921000030Smart Guy (APR04) - Mon to Thurs @ 11:30pm                                                                                  150                                
PROFAMCHA050301145921145951000030Kim Possible 007 (FEB05) (MD) - New Episodes start                                                                          150                                
ID FAMCHA050301145951150004000013Mad Dash Block Open (:13-:15)                                                                                               150                                
PGRFAMCHA050301150004152242002238Disney's Fillmore!                                EP: 1-002                                                           A6068607E                                
PROFAMCHA050301152242152256000014PS - 01(PH) - WTP/Benjamin/Franny                                                                                           150                                
PROFAMCHA050301152256152326000030Smart Guy (APR04) - Mon to Thurs @ 11:30pm                                                                                  150                                
PROFAMCHA050301152326152342000016Proud Family (BOND) - (MD) - Coming Up                                                                                      150                                
PROFAMCHA050301152342152438000056Spring Break-Out - Mall Tour (Feb 21 - Mar 16)                                                                              150                                
PRCFAMCHA050301152438152447000009Family Bumpers - (Phase 2 F/W 04) - Skateboard (MD                                                                          150                                
ID FAMCHA050301152447152500000013Mad Dash Block Open (:13-:15)                                                                                               150                                
PROFAMCHA050301152500152509000009CC Disclaimer - FAST - Family.ca (:08-:10)                                                                                  150                                
PGRFAMCHA050301152509154757002248Disney's The Weekenders                           EP: 1-032                                                           A6068607ECC                              
PROFAMCHA050301154757154813000016PS - 01(PH) - WTP/Benjamin/Franny                                                                                           150                                
PROFAMCHA050301154813154843000030Smart Guy (APR04) - Mon to Thurs @ 11:30pm                                                                                  150                                
PROFAMCHA050301154843154859000016Cheetah Girls (WDP) - Saturday @ 12pm                                                                                       150                                
PROFAMCHA050301154859154945000046Spring Break-Out - Big Event (Feb 21 - Mar 16)                                                                              150                                
ID FAMCHA050301154945155000000015Mad Dash Block Open (:13-:15)                                                                                               150                                
PGRFAMCHA050301155000161235002235Disney's Recess                                   EP: 1-021                                                            6068607E                                
PROFAMCHA050301161235161251000016PS - 01(PH) - WTP/Benjamin/Franny                                                                                           150                                
PROFAMCHA050301161251161321000030Smart Guy (APR04) - Mon to Thurs @ 11:30pm                                                                                  150                                
PROFAMCHA050301161321161418000057Spring Break-Out - Nintendo Contest (Feb 21 - Mar                                                                           150                                
PRCFAMCHA050301161418161503000045Famous Players Popcorn Parties                                                                                              150                                
PROFAMCHA050301161503161544000041Smart Guy (APR04) - Mon to Thurs @ 11:30pm                                                                                  150                                
ID FAMCHA050301161544161559000015Mad Dash Block Open (:13-:15)                                                                                               150                                
PGRFAMCHA050301161559163837002238Disney's Dave the Barbarian                       EPS # 10                                                             6068607E                                
PROFAMCHA050301163837163851000014PS - 01(PH) - WTP/Benjamin/Franny                                                                                           150                                
PROFAMCHA050301163851163921000030Smart Guy (APR04) - Mon to Thurs @ 11:30pm                                                                                  150                                
PROFAMCHA050301163921163951000030Kim Possible 007 (FEB05) (MD) - New Episodes start                                                                          150                                
PROFAMCHA050301163951164019000028Proud Family (BOND) - (MD) - Coming Up                                                                                      150                                
PROFAMCHA050301164019164057000038Smart Guy (APR04) - Mon to Thurs @ 11:30pm                                                                                  150                                
PROFAMCHA050301164057164153000056Spring Break-Out - Mall Tour (Feb 21 - Mar 16)                                                                              150                                
ID FAMCHA050301164153164206000013Mad Dash Block Open (:13-:15)                                                                                               150                                
PGRFAMCHA050301164206170458002252Disney's Kim Possible                             EP: 1-002                                                           A6068607E                                
PROFAMCHA050301170458170512000014PS - 01(PH) - WTP/Benjamin/Franny                                                                                           150                                
PROFAMCHA050301170512170542000030Smart Guy (APR04) - Mon to Thurs @ 11:30pm                                                                                  150                                
PROFAMCHA050301170542170612000030Kim Possible 007 (FEB05) (MD) - New Episodes start                                                                          150                                
PRCFAMCHA050301170612170657000045Famous Players Popcorn Parties                                                                                              150                                
PROFAMCHA050301170657170753000056Spring Break-Out - Mall Tour (Feb 21 - Mar 16)                                                                              150                                
ID FAMCHA050301170753170806000013Mad Dash Block Open (:13-:15)                                                                                               150                                
PROFAMCHA050301170806170815000009CC Disclaimer - FAST - Family.ca (:08-:10)                                                                                  150                                
PGRFAMCHA050301170815173102002247The Proud Family                                  EP: 1-004                                                           A6068807ECC                              
PROFAMCHA050301173102173117000015PS - 01(PH) - WTP/Benjamin/Franny                                                                                           150                                
PROFAMCHA050301173117173147000030Smart Guy (APR04) - Mon to Thurs @ 11:30pm                                                                                  150                                
PROFAMCHA050301173147173228000041Smart Guy (APR04) - Mon to Thurs @ 11:30pm                                                                                  150                                
PROFAMCHA050301173228173244000016Cheetah Girls (WDP) - Saturday @ 12pm                                                                                       150                                
PROFAMCHA050301173244173300000016Proud Family (BOND) - (MD) - Coming Up                                                                                      150                                
PROFAMCHA050301173300173346000046Spring Break-Out - Big Event (Feb 21 - Mar 16)                                                                              150                                
ID FAMCHA050301173346173400000014Mad Dash Block Open (:13-:15)                                                                                               150                                
ID FAMCHA050301173400173408000008Magic of Disney - MAD DASH - Shape (:06-:09)                                                                                150                                
PGRFAMCHA050301173408175641002233Lizzie McGuire                                    EP: 2-010                                                           A6068607B                                
PROFAMCHA050301175641175655000014PS - 01(PH) - WTP/Benjamin/Franny                                                                                           150                                
PROFAMCHA050301175655175725000030Smart Guy (APR04) - Mon to Thurs @ 11:30pm                                                                                  150                                
PRCFAMCHA050301175725175755000030xxRadio Free Roscoe II - V1 (NS) - Only On Family                                                                           150                                
PROFAMCHA050301175755175852000057Spring Break-Out - Nintendo Contest (Feb 21 - Mar                                                                           150                                
PROFAMCHA050301175852175924000032Even Stevens (SIBLINGS) - (NS) - Coming Up                                                                                  150                                
PROFAMCHA050301175924175940000016Cheetah Girls (WDP) - Saturday @ 12pm                                                                                       150                                
PROFAMCHA050301175940175946000006Raven ID's II - Stay tuned, That's So Raven Coming                                                                          150                                
ID FAMCHA050301175946180000000014Nonstop Block Open (:14-:17)                                                                                                150                                
PGRFAMCHA050301180000182239002239That's So Raven                                   EPS # 1-038                                                         A6068807B                                
PROFAMCHA050301182239182253000014PS - 01(PH) - WTP/Benjamin/Franny                                                                                           150                                
PROFAMCHA050301182253182323000030Smart Guy (APR04) - Mon to Thurs @ 11:30pm                                                                                  150                                
PROFAMCHA050301182323182355000032Even Stevens (SIBLINGS) - (NS) - Coming Up                                                                                  150                                
PROFAMCHA050301182355182434000039Brotherly Love (NSW) - Tomorrow @ 11:30am                                                                                   150                                
PROFAMCHA050301182434182515000041Smart Guy (APR04) - Mon to Thurs @ 11:30pm                                                                                  150                                
PRCFAMCHA050301182515182545000030SBI - NSW all week - Starting Monday March 14th (M                                                                          150                                
PRCFAMCHA050301182545182615000030xxRadio Free Roscoe II - V1 (NS1) - Tonight @ 7:30                                                                          150                                
PROFAMCHA050301182615182625000010FAMJAM - Open/Close                                                                                                         150                                
INTFAMCHA050301182625182755000130MV Disney - (FAMILY HITS) That's So Raven Theme So                                                                     60688120                                
PROFAMCHA050301182755182809000014xxFAMJAM - Close (FAMILY) xxDNUxx                                                                                           150                                
PRCFAMCHA050301182809182839000030Phil of the Future (NS) (PIM) (DEC04) - Friday @ 6                                                                          150                                
PROFAMCHA050301182839182935000056Spring Break-Out - Mall Tour (Feb 21 - Mar 16)                                                                              150                                
PRCFAMCHA050301182935182947000012Family Bumpers - (Phase 1 Spring 04) - Pillow Figh                                                                          150                                
ID FAMCHA050301182947183004000017Nonstop Block Open (:14-:17)                                                                                                150                                
PROFAMCHA050301183004183012000008CC Disclaimer - FAST - Family.ca (:08-:10)                                                                                  150                                
PGRFAMCHA050301183012185254002242Even Stevens                                      EP: 1-018                                                           A6068807BCC                              
PROFAMCHA050301185254185308000014PS - 01(PH) - WTP/Benjamin/Franny                                                                                           150                                
PROFAMCHA050301185308185338000030Smart Guy (APR04) - Mon to Thurs @ 11:30pm                                                                                  150                                
PROFAMCHA050301185338185417000039Brotherly Love (NSW) - Tomorrow @ 11:30am                                                                                   150                                
PRCFAMCHA050301185417185447000030SBI - NSW all week - Starting Monday March 14th (M                                                                          150                                
PRCFAMCHA050301185447185517000030xxRadio Free Roscoe II - V2 (NS1) - Tonight @ 7:30                                                                          150                                
PROFAMCHA050301185517185558000041Smart Guy (APR04) - Mon to Thurs @ 11:30pm                                                                                  150                                
PROFAMCHA050301185558185608000010FAMJAM - Open/Close                                                                                                         150                                
INTFAMCHA050301185608185823000215MV Disney - Cinderella (Cheetah Girls) - Textless                                                                      60688120                                
PROFAMCHA050301185823185837000014xxFAMJAM - Close (FAMILY) xxDNUxx                                                                                           150                                
PROFAMCHA050301185837185853000016Cheetah Girls (WDP) - Saturday @ 12pm                                                                                       150                                
PROFAMCHA050301185853185949000056Spring Break-Out - Mall Tour (Feb 21 - Mar 16)                                                                              150                                
ID FAMCHA050301185949190003000014Nonstop Block Open (:14-:17)                                                                                                150                                
PROFAMCHA050301190003190012000009CC Disclaimer - FAST - Family.ca (:08-:10)                                                                                  150                                
PGRFAMCHA050301190012192214002202Brotherly Love                                    EPS # 31                                                             6068807BCC                              
PROFAMCHA050301192214192229000015PS - 01(PH) - WTP/Benjamin/Franny                                                                                           150                                
PROFAMCHA050301192229192259000030Smart Guy (APR04) - Mon to Thurs @ 11:30pm                                                                                  150                                
PRCFAMCHA050301192259192329000030xxRadio Free Roscoe II - V2 (NS) - Coming Up Next                                                                           150                                
PRCFAMCHA050301192329192359000030SBI - NSW all week - Starting Monday March 14th (M                                                                          150                                
PROFAMCHA050301192359192429000030Double Teamed (SEPT12) - Next Friday @ 7:30pm                                                                               150                                
PROFAMCHA050301192429192507000038Smart Guy (APR04) - Mon to Thurs @ 11:30pm                                                                                  150                                
PROFAMCHA050301192507192517000010FAMJAM - Open/Close                                                                                                         150                                
INTFAMCHA050301192517192647000130MV Disney - Girl Power (Cheetah Girls)                                                                                 60688120                                
PROFAMCHA050301192647192701000014xxFAMJAM - Close (FAMILY) xxDNUxx                                                                                           150                                
PRCFAMCHA050301192701192731000030Phil of the Future (NS) (PHIL) (DEC04) - Fridays @                                                                          150                                
PRCFAMCHA050301192731192751000020Radio Free Roscoe - Webthrow (Shady Lane)                                                                                   150                                
INTFAMCHA050301192751192848000057Gagsters                                          EP: 46                                                              A20686120                                
PROFAMCHA050301192848192934000046Spring Break-Out - Big Event (Feb 21 - Mar 16)                                                                              150                                
PRCFAMCHA050301192934192948000014Family Bumpers - (Phase 1 Spring 04) - Basketball                                                                           150                                
ID FAMCHA050301192948193004000016Nonstop Block Open (:14-:17)                                                                                                150                                
PROFAMCHA050301193004193012000008CC Disclaimer - FAST - Family.ca (:08-:10)                                                                                  150                                
PGRFAMCHA050301193012195242002230Radio Free Roscoe (Spring Break)                  EPS # 23                                                      B88736A1025607ACC                              
PROFAMCHA050301195242195256000014PS - 01(PH) - WTP/Benjamin/Franny                                                                                           150                                
PROFAMCHA050301195256195326000030Smart Guy (APR04) - Mon to Thurs @ 11:30pm                                                                                  150                                
PROFAMCHA050301195326195356000030Double Teamed (SEPT12) - Next Friday @ 7:30pm                                                                               150                                
PRCFAMCHA050301195356195426000030xxRadio Free Roscoe II - V1 (NS2) - Tonight @ 8:30                                                                          150                                
PROFAMCHA050301195426195504000038Smart Guy (APR04) - Mon to Thurs @ 11:30pm                                                                                  150                                
PROFAMCHA050301195504195534000030That's So Raven (GOOD LIFE) - Mon to Thu @ 6:30pm                                                                           150                                
INTFAMCHA050301195534195632000058Gagsters - Alien Attack                           EP: 46                                                              A20686120                                
PROFAMCHA050301195632195711000039Brotherly Love (NSW) - Tomorrow @ 11:30am                                                                                   150                                
PRCFAMCHA050301195711195741000030Phil of the Future (NS) (PHIL) (DEC04) - Fridays @                                                                          150                                
PROFAMCHA050301195741195822000041Smart Guy (APR04) - Mon to Thurs @ 11:30pm                                                                                  150                                
PROFAMCHA050301195822195854000032Even Stevens (SIBLINGS) - (NS) - Coming Up                                                                                  150                                
PROFAMCHA050301195854195950000056Spring Break-Out - Mall Tour (Feb 21 - Mar 16)                                                                              150                                
ID FAMCHA050301195950200006000016Nonstop Block Open (:14-:17)                                                                                                150                                
PROFAMCHA050301200006200014000008CC Disclaimer - FAST - Family.ca (:08-:10)                                                                                  150                                
PGRFAMCHA050301200014202243002229Boy Meets World                                   EP: 1-004                                                           B6068807BCC                              
PROFAMCHA050301202243202257000014PS - 01(PH) - WTP/Benjamin/Franny                                                                                           150                                
PROFAMCHA050301202257202327000030Smart Guy (APR04) - Mon to Thurs @ 11:30pm                                                                                  150                                
PRCFAMCHA050301202327202357000030xxRadio Free Roscoe II - V1 (NS) - Coming Up Next                                                                           150                                
PROFAMCHA050301202357202454000057Spring Break-Out - Nintendo Contest (Feb 21 - Mar                                                                           150                                
PROFAMCHA050301202454202524000030Double Teamed (SEPT12) - Next Friday @ 7:30pm                                                                               150                                
PROFAMCHA050301202524202605000041Smart Guy (APR04) - Mon to Thurs @ 11:30pm                                                                                  150                                
PROFAMCHA050301202605202635000030All That (NS/MAR) - Coming Up Next                                                                                          150                                
PRCFAMCHA050301202635202705000030Phil of the Future (NS) (PHIL) (DEC04) - Fridays @                                                                          150                                
PRCFAMCHA050301202705202735000030SBI - NSW all week - Starting Monday March 14th (M                                                                          150                                
PROFAMCHA050301202735202805000030That's So Raven (GOOD LIFE) - Mon to Thu @ 6:30pm                                                                           150                                
PROFAMCHA050301202805202835000030Smart Guy (APR04) - Mon to Thurs @ 11:30pm                                                                                  150                                
PRCFAMCHA050301202835202851000016Radio Free Roscoe - Webthrow (Smog)                                                                                         150                                
PROFAMCHA050301202851202947000056Spring Break-Out - Mall Tour (Feb 21 - Mar 16)                                                                              150                                
PRCFAMCHA050301202947202956000009Family Bumpers - (Phase 1 Spring 04) - DJ Spinning                                                                          150                                
ID FAMCHA050301202956203012000016Nonstop Block Open (:14-:17)                                                                                                150                                
PROFAMCHA050301203012203020000008CC Disclaimer - FAST - Family.ca (:08-:10)                                                                                  150                                
PGRFAMCHA050301203020205250002230Radio Free Roscoe                                 EPS # 24                                                      B88737A1065607ACC                              
PROFAMCHA050301205250205304000014Nightly Pix Line-up (SEPT) - GENERIC (:14-:16)                                                                              150                                
PROFAMCHA050301205304205334000030Smart Guy (APR04) - Mon to Thurs @ 11:30pm                                                                                  150                                
PRCFAMCHA050301205334205404000030SBI - NSW all week - Starting Monday March 14th (M                                                                          150                                
PROFAMCHA050301205404205442000038Smart Guy (APR04) - Mon to Thurs @ 11:30pm                                                                                  150                                
PROFAMCHA050301205442205452000010FAMJAM - Open/Close                                                                                                         150                                
INTFAMCHA050301205452205808000316MV Disney - Girl Power (Cheetah Girls)                                                                                 60688120                                
PROFAMCHA050301205808205822000014xxFAMJAM - Close (FAMILY) xxDNUxx                                                                                           150                                
PRCFAMCHA050301205822205852000030Phil of the Future (NS) (PHIL) (DEC04) - Fridays @                                                                          150                                
PROFAMCHA050301205852205908000016Cheetah Girls (WDP) - Saturday @ 12pm                                                                                       150                                
PROFAMCHA050301205908205954000046Spring Break-Out - Big Event (Feb 21 - Mar 16)                                                                              150                                
ID FAMCHA050301205954210008000014Nonstop Block Open (:14-:17)                                                                                                150                                
ID FAMCHA050301210008210017000009Rating - PG - Ian (:08-:10)                                                                                                 150                                
PROFAMCHA050301210017210026000009CC Disclaimer - SLOW - Family.ca (:08-:10)                                                                                  150                                
PGRFAMCHA050301210026223512013446Spaceballs                                                                                                            B2068807DCC                              
PROFAMCHA050301223512223527000015PS - 01(PH) - WTP/Benjamin/Franny                                                                                           150                                
ID FAMCHA050301223527223541000014Nonstop Block Open (:14-:17)                                                                                                150                                
PROFAMCHA050301223541223549000008CC Disclaimer - SLOW - Family.ca (:08-:10)                                                                                  150                                
PGRFAMCHA050301223549225729002140Boy Meets World                                   EP: 1-094                                                           B6068807BCC                              
PROFAMCHA050301225729225743000014PS - 01(PH) - WTP/Benjamin/Franny                                                                                           150                                
PROFAMCHA050301225743225813000030Smart Guy (APR04) - Mon to Thurs @ 11:30pm                                                                                  150                                
PROFAMCHA050301225813225851000038Smart Guy (APR04) - Mon to Thurs @ 11:30pm                                                                                  150                                
PROFAMCHA050301225851225907000016Cheetah Girls (WDP) - Saturday @ 12pm                                                                                       150                                
PROFAMCHA050301225907225953000046Spring Break-Out - Big Event (Feb 21 - Mar 16)                                                                              150                                
ID FAMCHA050301225953230007000014Nonstop Block Open (:14-:17)                                                                                                150                                
PGRFAMCHA050301230007234759004752My So-Called Life                                 EPS # 13                                                             2068807A                                
PROFAMCHA050301234759234813000014PS - 01(PH) - WTP/Benjamin/Franny                                                                                           150                                
PROFAMCHA050301234813234843000030Smart Guy (APR04) - Mon to Thurs @ 11:30pm                                                                                  150                                
PRCFAMCHA050301234843234913000030SBI - NSW all week - Starting Monday March 14th (M                                                                          150                                
PROFAMCHA050301234913234951000038Smart Guy (APR04) - Mon to Thurs @ 11:30pm                                                                                  150                                
ID FAMCHA050301234951235005000014Nonstop Block Open (:14-:17)                                                                                                150                                
PROFAMCHA050301235005235014000009CC Disclaimer - SLOW - Family.ca (:08-:10)                                                                                  150                                
PGRFAMCHA050301235014001325002311Mentors                                           EP: 4-045                                                     C20779A1065607ACC3                             
PROFAMCHA050301001325001339000014PS - 01(PH) - WTP/Benjamin/Franny                                                                                           150                                
PROFAMCHA050301001339001409000030Smart Guy (APR04) - Mon to Thurs @ 11:30pm                                                                                  150                                
PROFAMCHA050301001409001439000030That's So Raven (GOOD LIFE) - Mon to Thu @ 6:30pm                                                                           150                                
PROFAMCHA050301001439001455000016Cheetah Girls (WDP) - Saturday @ 12pm                                                                                       150                                
ID FAMCHA050301001455001512000017Nonstop Block Open (:14-:17)                                                                                                150                                
PGRFAMCHA050301001512003935002423Are You Afraid Of The Dark?                       EP: 1-019                                                     SR0303 1066807A                                
PROFAMCHA050301003935003949000014PS - 01(PH) - WTP/Benjamin/Franny                                                                                           150                                
ID FAMCHA050301003949004003000014Nonstop Block Open (:14-:17)                                                                                                150                                
PGRFAMCHA050301004003005453001450Art Attack                                        EP: 1-113                                                            60686110                                
PROFAMCHA050301005453005523000030Smart Guy (APR04) - Mon to Thurs @ 11:30pm                                                                                  150                                
PROFAMCHA050301005523005604000041Smart Guy (APR04) - Mon to Thurs @ 11:30pm                                                                                  150                                
PROFAMCHA050301005604005614000010FAMJAM - Open/Close                                                                                                         150                                
INTFAMCHA050301005614005944000330MV Disney - (FAMILY HITS) That's So Raven Theme So                                                                     60688120                                
PROFAMCHA050301005944005958000014xxFAMJAM - Close (FAMILY) xxDNUxx                                                                                           150                                
PROFAMCHA050301005958010014000016Cheetah Girls (WDP) - Saturday @ 12pm                                                                                       150                                
PROFAMCHA050301010014010053000039Brotherly Love (NSW) - Tomorrow @ 11:30am                                                                                   150                                
PROFAMCHA050301010053010149000056Spring Break-Out - Mall Tour (Feb 21 - Mar 16)                                                                              150                                
PRCFAMCHA050301010149010219000030Astral - Clock (until June 26)                                                                                              150                                
SO FAMCHA050301010219010231000012Sign Off                                                                                                                                                       
OFFFAMCHA050301010231043000032729OFF AIR                                                                                                                                                        
SO FAMCHA050302043000043011000011Sign On (oct 1)                                                                                                                                                
PROFAMCHA050302043011043020000009CC Disclaimer - FAST - Family.ca (:08-:10)                                                                                  150                                
PGRFAMCHA050302043020045313002253Franklin                                          EPS # 4-042                                                   B38149A1065607ECC                              
PROFAMCHA050302045313045327000014PS - 01(PH) - WTP/Benjamin/Franny                                                                                           150                                
ID FAMCHA050302045327045337000010PS Playhouse AM Block Open (:10-:15)                                                                                        150                                
PROFAMCHA050302045337045346000009CC Disclaimer - FAST - Family.ca (:08-:10)                                                                                  150                                
PGRFAMCHA050302045346051616002230King                                              EPS # 2-018                                                   B75773A1065607ECC                              
PROFAMCHA050302051616051630000014PS - 01(PH) - WTP/Benjamin/Franny                                                                                           150                                
ID FAMCHA050302051630051640000010PS Playhouse AM Block Open (:10-:15)                                                                                        150                                
PROFAMCHA050302051640051649000009CC Disclaimer - FAST - Family.ca (:08-:10)                                                                                  150                                
PGRFAMCHA050302051649054327002638Katie And Orbie                                   EP: 6-075                                                     B62278A1065607ECC                              
PROFAMCHA050302054327054341000014PS - 01(PH) - WTP/Benjamin/Franny                                                                                           150                                
ID FAMCHA050302054341054351000010PS Playhouse AM Block Open (:10-:15)                                                                                        150                                
PROFAMCHA050302054351054400000009CC Disclaimer - FAST - Family.ca (:08-:10)                                                                                  150                                
PGRFAMCHA050302054400060653002253Franklin                                          EP: 4-043                                                     B38150A1065607ECC                              
PROFAMCHA050302060653060707000014PS - 01(PH) - WTP/Benjamin/Franny                                                                                           150                                
ID FAMCHA050302060707060717000010PS Playhouse AM Block Open (:10-:15)                                                                                        150                                
PROFAMCHA050302060717060726000009CC Disclaimer - FAST - Family.ca (:08-:10)                                                                                  150                                
PGRFAMCHA050302060726062957002231Something Else                                    EPS # 1-006                                                   B69260A1065607ECC                              
PROFAMCHA050302062957063011000014PS - 01(PH) - WTP/Benjamin/Franny                                                                                           150                                
ID FAMCHA050302063011063021000010PS Playhouse AM Block Open (:10-:15)                                                                                        150                                
PROFAMCHA050302063021063030000009CC Disclaimer - FAST - Family.ca (:08-:10)                                                                                  150                                
PGRFAMCHA050302063030065309002239Hoze Houndz                                       EP: 4-041                                                     B63377A1065607ECC                              
PROFAMCHA050302065309065323000014PS - 01(PH) - WTP/Benjamin/Franny                                                                                           150                                
PRCFAMCHA050302065323065353000030Mad Dash - AM (OLDER) - Coming Up Next                                                                                      150                                
ID FAMCHA050302065353065406000013Mad Dash Block Open (:13-:15)                                                                                               150                                
PROFAMCHA050302065406065415000009CC Disclaimer - FAST - Family.ca (:08-:10)                                                                                  150                                
PGRFAMCHA050302065415071654002239Disney's Aladdin                                  EP: 1-080                                                            6068607ECC                              
PROFAMCHA050302071654071708000014PS - 01(PH) - WTP/Benjamin/Franny                                                                                           150                                
PROFAMCHA050302071708071738000030Kim Possible 007 (FEB05) (MD) - New Episodes start                                                                          150                                
PROFAMCHA050302071738071806000028Lilo & Stitch (MD/L) (JAN05) - Today @ 11:50am                                                                              150                                
PROFAMCHA050302071806071836000030Smart Guy (APR04) - Mon to Thurs @ 11:30pm                                                                                  150                                
PROFAMCHA050302071836071900000024Jason (Hiking) - Today @ 11:25am                                                                                            150                                
PRCFAMCHA050302071900071930000030SBI - NSW all week - Starting Monday March 14th (M                                                                          150                                
PROFAMCHA050302071930071954000024Hercules (Count) - Today @ 12:10pm                                                                                          150                                
PRCFAMCHA050302071954072017000023Mad Dash - WEEKENDERS - Pizza                                                                                               150                                
PROFAMCHA050302072017072049000032xxPower Rangers - SPD - He's Tough - Premiering Sa                                                                          150                                
ID FAMCHA050302072049072102000013Mad Dash Block Open (:13-:15)                                                                                               150                                
PGRFAMCHA050302072102074356002254Disney's Kim Possible                             EPS # 1-044                                                         A6068607E                                
PROFAMCHA050302074356074410000014PS - 01(PH) - WTP/Benjamin/Franny                                                                                           150                                
PROFAMCHA050302074410074448000038Smart Guy (APR04) - Mon to Thurs @ 11:30pm                                                                                  150                                
PROFAMCHA050302074448074516000028Lilo & Stitch (MD) (JAN05) - Coming Up Next                                                                                 150                                
PROFAMCHA050302074516074532000016Cheetah Girls (WDP) - Saturday @ 12pm                                                                                       150                                
PROFAMCHA050302074532074556000024Jason (Hiking) - Today @ 11:25am                                                                                            150                                
PROFAMCHA050302074556074606000010FAMJAM - Open/Close                                                                                                         150                                
INTFAMCHA050302074606074736000130MV Disney - Girl Power (Cheetah Girls)                                                                                 60688120                                
PROFAMCHA050302074736074750000014xxFAMJAM - Close (FAMILY) xxDNUxx                                                                                           150                                
PROFAMCHA050302074750074814000024Hercules (Count) - Today @ 12:10pm                                                                                          150                                
PROFAMCHA050302074814074844000030Kim Possible 007 (FEB05) (MD) - New Episodes start                                                                          150                                
PRCFAMCHA050302074844074853000009Family Bumpers - (Phase 2 F/W 04) - Skateboard (MD                                                                          150                                
ID FAMCHA050302074853074906000013Mad Dash Block Open (:13-:15)                                                                                               150                                
PGRFAMCHA050302074906081145002239Disney's Lilo & Stitch                            EPS # 05                                                            A6068607E                                
PROFAMCHA050302081145081201000016PS - 01(PH) - WTP/Benjamin/Franny                                                                                           150                                
PROFAMCHA050302081201081233000032xxPower Rangers - SPD - He's Tough - Premiering Sa                                                                          150                                
PROFAMCHA050302081233081249000016Cheetah Girls (WDP) - Saturday @ 12pm                                                                                       150                                
PROFAMCHA050302081249081313000024Jason (Hiking) - Today @ 11:25am                                                                                            150                                
PROFAMCHA050302081313081343000030Kim Possible 007 (FEB05) (MD) - New Episodes start                                                                          150                                
PROFAMCHA050302081343081411000028Lilo & Stitch (MD/L) (JAN05) - Today @ 11:50am                                                                              150                                
PROFAMCHA050302081411081435000024Hercules (Count) - Today @ 12:10pm                                                                                          150                                
PRCFAMCHA050302081435081505000030SBI - NSW all week - Starting Monday March 14th (M                                                                          150                                
PROFAMCHA050302081505081535000030Brotherly Love (NSW) - Tomorrow @ 11:30am                                                                                   150                                
PROFAMCHA050302081535081603000028Proud Family (BOND) - (MD) - Coming Up                                                                                      150                                
PROFAMCHA050302081603081644000041Smart Guy (APR04) - Mon to Thurs @ 11:30pm                                                                                  150                                
ID FAMCHA050302081644081659000015Mad Dash Block Open (:13-:15)                                                                                               150                                
PROFAMCHA050302081659081708000009CC Disclaimer - FAST - Family.ca (:08-:10)                                                                                  150                                
PGRFAMCHA050302081708084007002259The Little Mermaid                                EP: 1-013                                                            6068607ECC                              
PROFAMCHA050302084007084021000014PS - 01(PH) - WTP/Benjamin/Franny                                                                                           150                                
PROFAMCHA050302084021084051000030Playhouse (FUNTIMES) - (AM) - Weekdays @ 8:30am                                                                       A     150                                
PROFAMCHA050302084051084120000029Winnie the Pooh (TRAP) (PH/AM) - Today @ 9:10am                                                                             150                                
PROFAMCHA050302084120084150000030Jojo's Circus - (PH/AM) - Weekdays @ 9:45am                                                                                 150                                
INTFAMCHA050302084150084320000130Disney Circle Time - Growing Smiles (anywhere but                                                                      60688120                                
PROFAMCHA050302084320084404000044xxStanley - (AUG04) - (PH-M/W/F) - Today @ 10:05am                                                                          150                                
PRCFAMCHA050302084404084434000030Franny's Feet (PH) - Coming Up Next                                                                                         150                                
ID FAMCHA050302084434084449000015Franny's Feet Web BBD - Part of Playhouse @ family                                                                          150                                
ID FAMCHA050302084449084503000014PS Playhouse PM Block Open (:10-:15)                                                                                        150                                
PROFAMCHA050302084503084512000009CC Disclaimer - FAST - Family.ca (:08-:10)                                                                                  150                                
PGRFAMCHA050302084512090742002230Franny's Feet                                     EPS # 1-004                                                   B84193A1065607ECC                              
PROFAMCHA050302090742090757000015PS - 01(PH) - WTP/Benjamin/Franny                                                                                           150                                
PROFAMCHA050302090757090826000029Winnie the Pooh (TRAP) (PH/AM) - Coming Up Next                                                                             150                                
PROFAMCHA050302090826090913000047Doggie Day Care - March 11 & 29 @ 1pm (Feb 25 to M                                                                          150                                
PROFAMCHA050302090913090943000030Jojo's Circus - (PH/AM) - Weekdays @ 9:45am                                                                                 150                                
PROFAMCHA050302090943091027000044xxStanley - (AUG04) - (PH-M/W/F) - Today @ 10:05am                                                                          150                                
PROFAMCHA050302091027091057000030Playhouse (FUNTIMES) - (AM) - Weekdays @ 8:30am                                                                       A     150                                
PROFAMCHA050302091057091116000019Henry's World (JAN05) - Today @ 10:35am                                                                                     150                                
PRCFAMCHA050302091116091135000019Playhouse - FRANKLIN - Party                                                                                                150                                
PRCFAMCHA050302091135091207000032Benjamin Bear (PH-T/T) - Tomorrow @ 8:45am                                                                                  150                                
INTFAMCHA050302091207091237000030Franny's Feet (PH-M/W/F) - Weekends @ 5:40am                                                                           10675120                                
PRCFAMCHA050302091237091249000012Family Bumpers - (Phase 1 Spring 04) - Funhouse (P                                                                          150                                
ID FAMCHA050302091249091300000011PS Playhouse AM Block Open (:10-:15)                                                                                        150                                
PROFAMCHA050302091300091309000009CC Disclaimer - FAST - Family.ca (:08-:10)                                                                                  150                                
PGRFAMCHA050302091309093551002242The New Adventures of Winnie the Pooh             EP: 1-033                                                            6068607ECC                              
PROFAMCHA050302093551093607000016PS - 01(PH) - WTP/Benjamin/Franny                                                                                           150                                
PROFAMCHA050302093607093637000030Jojo's Circus - (PH/AM) - Weekdays @ 9:45am                                                                                 150                                
PROFAMCHA050302093637093721000044xxStanley - (AUG04) - (PH-M/W/F) - Today @ 10:05am                                                                          150                                
PROFAMCHA050302093721093740000019Henry's World (JAN05) - Today @ 10:35am                                                                                     150                                
ID FAMCHA050302093740093755000015Franny's Feet Web BBD - Part of Playhouse @ family                                                                          150                                
PRCFAMCHA050302093755093826000031King (FRIENDS/0804) (PH/AM) - Weekdays @ 11am                                                                               150                                
PROFAMCHA050302093826093856000030Princess Block (NOV04) - Today @ 1pm                                                                                        150                                
PRCFAMCHA050302093856093913000017Hoze Houndz (SQUIRT) - (PS) - Weekdays @ 6:35am                                                                             150                                
PRCFAMCHA050302093913093945000032Benjamin Bear (PH-T/T) - Tomorrow @ 8:45am                                                                                  150                                
ID FAMCHA050302093945094000000015PS Playhouse AM Block Open (:10-:15)                                                                                        150                                
PGRFAMCHA050302094000100408002408JoJo's Circus                                     EPS # 10                                                            A6068607E                                
PROFAMCHA050302100408100423000015PS - 01(PH) - WTP/Benjamin/Franny                                                                                           150                                
PROFAMCHA050302100423100507000044xxStanley - (AUG04) - (PH-M/W/F) - Coming Up Next                                                                           150                                
PROFAMCHA050302100507100526000019Henry's World (JAN05) - Today @ 10:35am                                                                                     150                                
PROFAMCHA050302100526100556000030Playhouse (FUNTIMES) - (AM) - Weekdays @ 8:30am                                                                       A     150                                
PRCFAMCHA050302100556100627000031King (FRIENDS/0804) (PH/AM) - Weekdays @ 11am                                                                               150                                
PRCFAMCHA050302100627100650000023Playhouse - HOUSE OF MOUSE - Calculator                                                                                     150                                
PROFAMCHA050302100650100715000025Hoze Houndz (Can't Fly) (PH/PM) - Today @ 2:10pm                                                                            150                                
PRCFAMCHA050302100715100747000032Benjamin Bear (PH-T/T) - Tomorrow @ 8:45am                                                                                  150                                
ID FAMCHA050302100747100800000013PS Playhouse AM Block Open (:10-:15)                                                                                        150                                
PROFAMCHA050302100800100809000009CC Disclaimer - FAST - Family.ca (:08-:10)                                                                                  150                                
PGRFAMCHA050302100809103214002405Stanley                                           EP: 1-051                                                           A6068607ECC                              
PROFAMCHA050302103214103229000015PS - 01(PH) - WTP/Benjamin/Franny                                                                                           150                                
PROFAMCHA050302103229103248000019Henry's World (JAN05) - Coming Up Next                                                                                      150                                
PROFAMCHA050302103248103318000030Princess Block (NOV04) - Today @ 1pm                                                                                        150                                
PRCFAMCHA050302103318103349000031King (FRIENDS/0804) (PH/AM) - Weekdays @ 11am                                                                               150                                
ID FAMCHA050302103349103400000011PS Playhouse AM Block Open (:10-:15)                                                                                        150                                
PROFAMCHA050302103400103409000009CC Disclaimer - FAST - Family.ca (:08-:10)                                                                                  150                                
PGRFAMCHA050302103409105809002400Henry's World                                     EP: 2-020                                                     A81051A1065607GCC                              
PROFAMCHA050302105809105824000015PS - 01(PH) - WTP/Benjamin/Franny                                                                                           150                                
PRCFAMCHA050302105824105855000031King (FRIENDS/0804) (PH/AM) - Weekdays @ 11am                                                                               150                                
PROFAMCHA050302105855105925000030Playhouse (FUNTIMES) - (AM) - Weekdays @ 8:30am                                                                       A     150                                
PROFAMCHA050302105925105950000025Hoze Houndz (Can't Fly) (PH/PM) - Today @ 2:10pm                                                                            150                                
ID FAMCHA050302105950110000000010PS Playhouse AM Block Open (:10-:15)                                                                                        150                                
PROFAMCHA050302110000110009000009CC Disclaimer - FAST - Family.ca (:08-:10)                                                                                  150                                
INTFAMCHA050302110009112239002230King                                              EPS # 028                                                     A00332A10256120CC                              
PROFAMCHA050302112239112254000015PS - 01(PH) - WTP/Benjamin/Franny                                                                                           150                                
PROFAMCHA050302112254112326000032xxPower Rangers - SPD - He's Tough - Premiering Sa                                                                          150                                
PROFAMCHA050302112326112350000024Jason (Hiking) - Coming Up Next                                                                                             150                                
PROFAMCHA050302112350112431000041Smart Guy (APR04) - Mon to Thurs @ 11:30pm                                                                                  150                                
PROFAMCHA050302112431112459000028Lilo & Stitch (MD/L) (JAN05) - Today @ 11:50am                                                                              150                                
PROFAMCHA050302112459112523000024Hercules (Count) - Today @ 12:10pm                                                                                          150                                
PROFAMCHA050302112523112553000030Brotherly Love (NSW) - Tomorrow @ 11:30am                                                                                   150                                
PROFAMCHA050302112553112609000016Cheetah Girls (WDP) - Saturday @ 12pm                                                                                       150                                
PROFAMCHA050302112609112639000030Smart Guy (APR04) - Mon to Thurs @ 11:30pm                                                                                  150                                
PRCFAMCHA050302112639112646000007xxFrankie Muniz ID - You're Watching Family                                                                                 150                                
ID FAMCHA050302112646112700000014Mad Dash Block Open (:13-:15)                                                                                               150                                
PGRFAMCHA050302112700114915002215Jason and the Heroes of Mount Olympus             EPS # 06                                                             6068607E                                
PROFAMCHA050302114915114930000015PS - 01(PH) - WTP/Benjamin/Franny                                                                                           150                                
PRCFAMCHA050302114930114937000007Family Bumpers - (Phase 2 F/W 04) - Snow Twirl (MD                                                                          150                                
PRCFAMCHA050302114937114946000009Radio Free Roscoe ID (MAR) - You're Watching Famil                                                                          150                                
ID FAMCHA050302114946115000000014Mad Dash Block Open (:13-:15)                                                                                               150                                
PGRFAMCHA050302115000121239002239Disney's Lilo & Stitch                            EPS # 18                                                            A6068607E                                
PROFAMCHA050302121239121253000014PS - 01(PH) - WTP/Benjamin/Franny                                                                                           150                                
ID FAMCHA050302121253121306000013Mad Dash Block Open (:13-:15)                                                                                               150                                
PROFAMCHA050302121306121315000009CC Disclaimer - FAST - Family.ca (:08-:10)                                                                                  150                                
PGRFAMCHA050302121315123616002301Disney's Hercules                                 EP: 1-005                                                            6068607E                                
PROFAMCHA050302123616123632000016PS - 01(PH) - WTP/Benjamin/Franny                                                                                           150                                
PROFAMCHA050302123632123644000012Mad Dash - RECESS - Sprinkler                                                                                               150                                
ID FAMCHA050302123644123659000015Mad Dash Block Open (:13-:15)                                                                                               150                                
PROFAMCHA050302123659123708000009CC Disclaimer - FAST - Family.ca (:08-:10)                                                                                  150                                
PGRFAMCHA050302123708125959002251Goof Troop                                        EP: 1-058                                                            6068607ECC                              
PROFAMCHA050302125959130015000016PS - 01(PH) - WTP/Benjamin/Franny                                                                                           150                                
PROFAMCHA050302130015130045000030Princess Block (NOV04) - Coming Up Next                                                                                     150                                
ID FAMCHA050302130045130100000015PS Playhouse PM Block Open (:10-:15)                                                                                        150                                
PROFAMCHA050302130100130109000009CC Disclaimer - FAST - Family.ca (:08-:10)                                                                                  150                                
PGRFAMCHA050302130109132409002300The Little Mermaid                                EP: 1-019                                                            6068607ECC                              
PROFAMCHA050302132409132424000015PS - 01(PH) - WTP/Benjamin/Franny                                                                                           150                                
PRCFAMCHA050302132424132447000023Playhouse - HOUSE OF MOUSE - Calculator                                                                                     150                                
ID FAMCHA050302132447132500000013PS Playhouse PM Block Open (:10-:15)                                                                                        150                                
PROFAMCHA050302132500132509000009CC Disclaimer - FAST - Family.ca (:08-:10)                                                                                  150                                
PGRFAMCHA050302132509134744002235Disney's Aladdin                                  EP: 1-018                                                            6068607ECC                              
