SO FAMCHA081001043000043011000011Sign On (oct 1)                                                                                                                                                
PRCFAMCHA081001043011043020000009CC Disclaimer - FAST - Family.ca (:09-:10)                                                                                  150                                
PGRFAMCHA081001043020045658002638Katie And Orbie                                   EP: 4-050                                                     C19664A1065607ECC                              
PRCFAMCHA081001045658045704000006Astral ID (DEC 2007)                                                                                                        150                                
PRCFAMCHA081001045704045715000011FJR - 02 - FRANNY'S FEET / BENJAMIN BEAR (SEPT08)                                                                           150                                
PRCFAMCHA081001045715045727000012Family Jr. Bumper - Collide (:11- :14) (JUL08)                                                                              150                                
PRCFAMCHA081001045727045736000009CC Disclaimer - FAST - Generic (:09-:10)                                                                                    150                                
PGRFAMCHA081001045736052006002230Franny's Feet                                     EPS # 19                                                      C23971 1065607ECC                              
PRCFAMCHA081001052006052019000013FJR - 03 - BENJAMIN BEAR / HOZE HOUNDZ (SEPT08)                                                                             150                                
PRCFAMCHA081001052019052031000012Family Jr. Bumper - Music (:11- :14) (JUL08)                                                                                150                                
PRCFAMCHA081001052031052040000009CC Disclaimer - FAST - Family.ca (:09-:10)                                                                                  150                                
PGRFAMCHA081001052040054310002230Secret World of Benjamin Bear, The                EP: 25                                                        C26066 1065607ECC                              
PRCFAMCHA081001054310054316000006Astral ID (DEC 2007)                                                                                                        150                                
PRCFAMCHA081001054316054327000011FJR - 04 - HOZE HOUNDZ / HENRY'S WORLD (SEPT08)                                                                             150                                
PRCFAMCHA081001054327054342000015Family Jr. Bumper - Portal (:14- :17) (JUL08)                                                                               150                                
PRCFAMCHA081001054342054351000009CC Disclaimer - FAST - Generic (:09-:10)                                                                                    150                                
PGRFAMCHA081001054351060629002238Hoze Houndz                                       EP: 4-049                                                     B63385A1065607ECC                              
PRCFAMCHA081001060629060642000013FJR - 05 - HENRY'S WORLD / KING (SEPT08)                                                                                    150                                
PRCFAMCHA081001060642060653000011Family Jr. Bumper - Acrobat (:10- :13) (JUL08)                                                                              150                                
PRCFAMCHA081001060653060702000009CC Disclaimer - FAST - Family.ca (:09-:10)                                                                                  150                                
PGRFAMCHA081001060702063107002405Henry's World                                     EPS # 2-024                                                   B81055A1065607GCC                              
PRCFAMCHA081001063107063113000006Astral ID (DEC 2007)                                                                                                        150                                
PRCFAMCHA081001063113063124000011FJR - 06 - KING (SEPT08)                                                                                                    150                                
PRCFAMCHA081001063124063136000012Family Jr. Bumper - Collide (:11- :14) (JUL08)                                                                              150                                
PRCFAMCHA081001063136063145000009CC Disclaimer - FAST - Generic (:09-:10)                                                                                    150                                
PGRFAMCHA081001063145065415002230King                                              EPS # 037                                                     C25350 1065607ECC                              
PROFAMCHA081001065415065440000025Recess - CAREER DAY (MMM) - (JULY06) - Coming Up N                                                                          150                                
PROFAMCHA081001065440065520000040Sleeping Beauty DVD - Available Oct 7 (Sept 26 - O                                                                          150                                
PROFAMCHA081001065520065538000018Phineas & Ferb (MMM) Candace Tease - This Morning                                                                           150                                
PROFAMCHA081001065538065557000019MadMadMornings Block Open                                                                                                   150                                
PRCFAMCHA081001065557065606000009CC Disclaimer - FAST - Generic (:09-:10)                                                                                    150                                
PGRFAMCHA081001065606071842002236Disney's Recess                                   EP: 1-026                                                            6068607ECC                              
PRCFAMCHA081001071842071848000006Astral ID (DEC 2007)                                                                                                        150                                
PROFAMCHA081001071848071907000019Phineas & Ferb (MMM) Isabella Tease - Coming Up Ne                                                                          150                                
PROFAMCHA081001071907071947000040Bret Ryan CD Blast (Sept 5 - Nov 28) $$$                                                                                    150                                
PROFAMCHA081001071947071956000009xxFamily Bumpers - (Phase 1 Spring 04) - Baseball                                                                           150                                
PRCFAMCHA081001071956072126000130Movie Entertainment (8)                                                                                                     150                                
PROFAMCHA081001072126072202000036Weekenders - PIZZA (MMM) - (APR06) - This Morning                                                                           150                                
PROFAMCHA081001072202072242000040Cheetah Girls One World Tour (Nov 3 -12) $$$                                                                                150                                
PRCFAMCHA081001072242072342000100Wiz-tober Overall Promo Post 9pm Only (Sept 26 - O                                                                          150                                
PROFAMCHA081001072342072401000019MadMadMornings Block Open                                                                                                   150                                
PRCFAMCHA081001072401072411000010CC Disclaimer - FAST - Family.ca (:09-:10)                                                                                  150                                
PGRFAMCHA081001072411074641002230Phineas & Ferb                                    EP: 05                                                               6068607ECC                              
PRCFAMCHA081001074641074716000035Family First Overall Promo - 3/4 Per Day (Sept.6 -                                                                          150                                
PROFAMCHA081001074716074752000036Weekenders - PIZZA (MMM) - (APR06) - Coming Up Nex                                                                          150                                
PROFAMCHA081001074752074832000040Sleeping Beauty DVD - Available Oct 7 (Sept 26 - O                                                                          150                                
PROFAMCHA081001074832074902000030American Dragon Jake Long (MD) HERO - This Afterno                                                                          150                                
PROFAMCHA081001074902074911000009xxFamily Bumpers - (Phase 3 Spring 05) - Giant Foo                                                                          150                                
PROFAMCHA081001074911074929000018Emperor's New School (MD) BUTT IN URN - This After                                                                          150                                
PROFAMCHA081001074929075014000045Family Favourites - Demi Lovato CD (Sept 23 - Oct                                                                           150                                
PROFAMCHA081001075014075042000028Camp Rock Freestyle Jam Promo - Prems Oct 13 @ 7pm                                                                          150                                
PROFAMCHA081001075042075101000019MadMadMornings Block Open                                                                                                   150                                
PRCFAMCHA081001075101075110000009CC Disclaimer - FAST - Family.ca (:09-:10)                                                                                  150                                
PGRFAMCHA081001075110081343002233Disney's The Weekenders                           EP: 1-020                                                           A6068607ECC                              
PRCFAMCHA081001081343081349000006Astral ID (DEC 2007)                                                                                                        150                                
PROFAMCHA081001081349081425000036HSM 3 Fly Away Contest - 4 X Day 3 to 8pm - Versio                                                                          150                                
PROFAMCHA081001081425081455000030Kim Possible EVIL (MMM) (MAY07) Coming Up Next                                                                              150                                
PRCFAMCHA081001081455081625000130Movie Entertainment (8)                                                                                                     150                                
PROFAMCHA081001081625081650000025Recess - CAREER DAY (MD) - (JULY06) - This morn @                                                                           150                                
PRCFAMCHA081001081650081735000045Bullying Awareness Week - 5 x Day - Nomination Spo                                                                          150                                
PROFAMCHA081001081735081754000019MadMadMornings Block Open                                                                                                   150                                
PRCFAMCHA081001081754081804000010CC Disclaimer - FAST - Generic (:09-:10)                                                                                    150                                
PGRFAMCHA081001081804084052002248Disney's Kim Possible                             EPS # 1-024                                                         A6068607ECC                              
PRCFAMCHA081001084052084102000010FJR - 07 - LITTLE EINSTEINS/FRANNY'S FEET (:09 - :                                                                          150                                
PROFAMCHA081001084102084132000030Little Einsteins (FJR) PROMO #1 - Coming Up Next (                                                                          150                                
PGRFAMCHA081001084132084332000200MV Disney - (MD/NS/NSW) - Jesse McCartney - Just S                                                                     60688120                                
PROFAMCHA081001084332084348000016Mickey Mouse Clubhouse (FJR) GENERIC - This Mornin                                                                          150                                
PROFAMCHA081001084348084439000051PH-D Promo - Bunnytown Funny Bunny Mix - Starts Mo                                                                          150                                
ID FAMCHA081001084439084453000014Family Jr. Block Open (:14-:17) (JUL08)                                                                                     150                                
PRCFAMCHA081001084453084503000010CC Disclaimer - FAST - Family.ca (:09-:10)                                                                                  150                                
PGRFAMCHA081001084503090908002405Disney's Little Einsteins                         EP: 12                                                               6068607ECC                              
PRCFAMCHA081001090908090914000006Astral ID (DEC 2007)                                                                                                        150                                
PRCFAMCHA081001090914090923000009FJR - 08 - FRANNY'S FEET/TIGGER & POOH (:09 - :12)                                                                          150                                
PRCFAMCHA081001090923090958000035Franny's Feet (FJR) GENERIC - Coming Up Next (JUL0                                                                          150                                
PROFAMCHA081001090958091014000016Mickey Mouse Clubhouse (FJR) GENERIC - This Mornin                                                                          150                                
PRCFAMCHA081001091014091044000030PH-D Promo - Kid Sell (JUNE 2008)                                                                                           150                                
PRCFAMCHA081001091044091055000011Family Jr. Bumper - Music (:11- :14) (JUL08)                                                                                150                                
PRCFAMCHA081001091055091105000010CC Disclaimer - FAST - Generic (:09-:10)                                                                                    150                                
PGRFAMCHA081001091105093336002231Franny's Feet                                     EPS # 30                                                      C23971 1065607ECC                              
PRCFAMCHA081001093336093346000010FJR - 09 - TIGGER & POOH/MICKEY MOUSE CLUBHOUSE (:                                                                          150                                
PROFAMCHA081001093346093446000100Tigger and Pooh (FJR) SUPER SLEUTH - Coming Up Nex                                                                          150                                
PGRFAMCHA081001093446093546000100Pixie Previews - (MMM, PH) Fawn & The Log                                                                             A60688120                                
PROFAMCHA081001093546093637000051PH-D Promo - Bunnytown Funny Bunny Mix - Starts Mo                                                                          150                                
PRCFAMCHA081001093637093651000014Family Jr. Bumper - Portal (:14- :17) (JUL08)                                                                               150                                
PRCFAMCHA081001093651093700000009CC Disclaimer - FAST - Family.ca (:09-:10)                                                                                  150                                
PGRFAMCHA081001093700100100002400Disney My Friends Tigger and Pooh                 EP: 13                                                               6068607ECC                              
PRCFAMCHA081001100100100106000006Astral ID (DEC 2007)                                                                                                        150                                
PRCFAMCHA081001100106100118000012FJR - 10 - MICKEY MOUSE CLUBHOUSE/HANDY MANNY (:10                                                                          150                                
PROFAMCHA081001100118100149000031Mickey Mouse Clubhouse (FJR) GENERIC - Coming Up N                                                                          150                                
PGRFAMCHA081001100149100259000110Pixie Previews - (MMM, PH) Tink & Pepper Shaker                                                                       A60688120                                
PROFAMCHA081001100259100330000031PH-D Promo - Web Sell on Family -  24/7 Ooh & Aah                                                                           150                                
PRCFAMCHA081001100330100343000013Family Jr. Bumper - Acrobat (:10- :13) (JUL08)                                                                              150                                
ID FAMCHA081001100343100351000008Magic of Disney - PLAYHOUSE - Shape (:06-:09)                                                                               150                                
PRCFAMCHA081001100351100400000009CC Disclaimer - FAST - Generic (:09-:10)                                                                                    150                                
PGRFAMCHA081001100400102805002405Disney's Mickey Mouse Clubhouse                   EP: 20                                                               6068607ECC                              
PRCFAMCHA081001102805102816000011FJR - 11 - HANDY MANNY/BENJAMIN BEAR (:10 - :13) (                                                                          150                                
PROFAMCHA081001102816102846000030Handy Manny (FJR) HOP UP/JUMP IN - Coming Up Next                                                                           150                                
PRCFAMCHA081001102846102916000030Benjamin Bear (FJR) GENERIC - This Morning @ 10:55                                                                          150                                
PRCFAMCHA081001102916102946000030King (FJR) GENERIC - This Morning @ 11:25 (JUL08)                                                                           150                                
PROFAMCHA081001102946103037000051PH-D Promo - Bunnytown Funny Bunny Mix - Starts Mo                                                                          150                                
PRCFAMCHA081001103037103049000012Family Jr. Bumper - Collide (:11- :14) (JUL08)                                                                              150                                
ID FAMCHA081001103049103057000008Magic of Disney - PLAYHOUSE - Wipe (:06-:09)                                                                                150                                
PRCFAMCHA081001103057103106000009CC Disclaimer - FAST - Family.ca (:09-:10)                                                                                  150                                
PGRFAMCHA081001103106105511002405Handy Manny                                       EP: 22                                                               6068607ECC                              
PRCFAMCHA081001105511105517000006Astral ID (DEC 2007)                                                                                                        150                                
PRCFAMCHA081001105517105527000010FJR - 12 - BENJAMIN BEAR/KING (:10 - :13) (JULY08)                                                                          150                                
PRCFAMCHA081001105527105557000030Benjamin Bear (FJR) GENERIC - Coming Up Next (JUL0                                                                          150                                
PROFAMCHA081001105557105648000051PH-D Promo - Bunnytown Funny Bunny Mix - Starts Mo                                                                          150                                
PRCFAMCHA081001105648105659000011Family Jr. Bumper - Music (:11- :14) (JUL08)                                                                                150                                
PRCFAMCHA081001105659105708000009CC Disclaimer - FAST - Generic (:09-:10)                                                                                    150                                
PGRFAMCHA081001105708111943002235The Secret World Of Benjamin Bear                 EPS # 1-013                                                   B75158 1065607ECC                              
PRCFAMCHA081001111943111953000010FJR - 13 - KING/RECESS (:09 - :12) (JULY08)                                                                                 150                                
PRCFAMCHA081001111953112023000030King (FJR) GENERIC - Coming Up Next (JUL08)                                                                                 150                                
PGRFAMCHA081001112023112153000130MV Disney - (MD/NS/NSW) - Jesse McCartney - Just S                                                                     60688120                                
PROFAMCHA081001112153112209000016Mickey Mouse Clubhouse (FJR) GENERIC - Tomorrow Mo                                                                          150                                
PROFAMCHA081001112209112239000030Imagination Movers (FJR) Tomorrow Morning @ 10:30a                                                                          150                                
PGRFAMCHA081001112239112404000125Pixie Previews - (MMM, PH) Rosetta & The Flower                                                                       A60688120                                
PRCFAMCHA081001112404112434000030PH-D Promo - Kid Sell (JUNE 2008)                                                                                           150                                
PRCFAMCHA081001112434112451000017Family Jr. Bumper - Portal (:14- :17) (JUL08)                                                                               150                                
PRCFAMCHA081001112451112500000009CC Disclaimer - FAST - Family.ca (:09-:10)                                                                                  150                                
PGRFAMCHA081001112500114730002230King                                              EPS # 2-026                                                   B75781 1065607ECC                              
PRCFAMCHA081001114730114736000006Astral ID (DEC 2007)                                                                                                        150                                
PRCFAMCHA081001114736114748000012MD - 01 - RECESS/KIM (:11 - :13) (JULY08)                                                                                   150                                
PROFAMCHA081001114748114813000025Recess - CAREER DAY (MD) - (JULY06) - Coming Up Ne                                                                          150                                
PROFAMCHA081001114813114843000030Kim Possible EVIL (MD) (MAY07) Today @ 12:10                                                                                150                                
PROFAMCHA081001114843114900000017Mad Dash Block Open (:16-:18) APR06                                                                                         150                                
PRCFAMCHA081001114900114909000009CC Disclaimer - FAST - Generic (:09-:10)                                                                                    150                                
PGRFAMCHA081001114909121144002235Disney's Recess                                   EP: 1-017                                                            6068607ECC                              
PRCFAMCHA081001121144121156000012MD - 02 - KIM/WEEKENDERS (:11 - :13) (JULY08)                                                                               150                                
PRCFAMCHA081001121156121256000100Wiz-tober Overall Promo Post 9pm Only (Sept 26 - O                                                                          150                                
PROFAMCHA081001121256121311000015Kim Possible BOYFRIEND (MD) Coming Up Next (JULY08                                                                          150                                
PRCFAMCHA081001121311121346000035Family First Overall Promo - 3/4 Per Day (Sept.6 -                                                                          150                                
PRCFAMCHA081001121346121355000009MD Bumper - Race Cars (:08-:10) APR06                                                                                       150                                
PRCFAMCHA081001121355121405000010CC Disclaimer - FAST - Family.ca (:09-:10)                                                                                  150                                
PGRFAMCHA081001121405123651002246Disney's Kim Possible - Yr. 4                     EP: 19                                                               6068607ECC                              
PRCFAMCHA081001123651123657000006Astral ID (DEC 2007)                                                                                                        150                                
PRCFAMCHA081001123657123710000013MD - 03 - WEEKENDERS/AMERICAN DRAGON (:11 - :13) (                                                                          150                                
PROFAMCHA081001123710123746000036Weekenders - PIZZA (MD) - (APR06) - Coming Up Next                                                                          150                                
PRCFAMCHA081001123746123831000045Bullying Awareness Week - 5 x Day - Nomination Spo                                                                          150                                
PRCFAMCHA081001123831123848000017MD Bumper - Shopping Race (:15-:17) APR06                                                                                   150                                
PRCFAMCHA081001123848123858000010CC Disclaimer - FAST - Generic (:09-:10)                                                                                    150                                
PGRFAMCHA081001123858130137002239Disney's The Weekenders                           EP: 1-036                                                           A6068607ECC                              
PRCFAMCHA081001130137130149000012MD - 04 - AMERICAN DRAGON/EMPERORS'S (:11 - :13) (                                                                          150                                
PROFAMCHA081001130149130219000030American Dragon Jake Long (MD) HERO - Coming Up Ne                                                                          150                                
PROFAMCHA081001130219130303000044Emperor's New School (MD) KUZCO - This Afternoon @                                                                          150                                
PRCFAMCHA081001130303130351000048Family Video Player Promo - No Tag 3/day (not in P                                                                          150                                
PRCFAMCHA081001130351130359000008MD Bumper - Ski Race (:07-:09) APR06                                                                                        150                                
PRCFAMCHA081001130359130408000009CC Disclaimer - FAST - Family.ca (:09-:10)                                                                                  150                                
PGRFAMCHA081001130408132644002236Disney's American Dragon: Jake Long               EP: 40                                                               6068607ECC                              
PRCFAMCHA081001132644132650000006Astral ID (DEC 2007)                                                                                                        150                                
PRCFAMCHA081001132650132702000012MD - 05 - EMPEROR'S/FILLMORE (:11 - :13) (JULY08)                                                                           150                                
PROFAMCHA081001132702132720000018Emperor's New School (MD) BUTT IN URN - Coming Up                                                                           150                                
PROFAMCHA081001132720132815000055Disney Behind The Curtain (MD, NS, NSW) 2 x Day  (                                                                          150                                
PROFAMCHA081001132815132851000036HSM 3 Fly Away Contest - 4 X Day 3 to 8pm - Versio                                                                          150                                
PRCFAMCHA081001132851132900000009MD Bumper - Race Cars (:08-:10) APR06                                                                                       150                                
PRCFAMCHA081001132900132909000009CC Disclaimer - FAST - Generic (:09-:10)                                                                                    150                                
PGRFAMCHA081001132909135139002230Disney's The Emperor's New School Season 2        EP: 13                                                               6068807ECC                              
PRCFAMCHA081001135139135151000012MD - 06 - FILLMORE/WEEKENDERS (:11 - :13) (JULY08)                                                                          150                                
PROFAMCHA081001135151135213000022Fillmore (MD) POLLY - Coming Up Next (JULY08)                                                                               150                                
PROFAMCHA081001135213135243000030Kim Possible EVIL (MD) This Afternoons @ 2:45 (JUL                                                                          150                                
PRCFAMCHA081001135243135343000100Wiz-tober Overall Promo Post 9pm Only (Sept 26 - O                                                                          150                                
PRCFAMCHA081001135343135359000016MD Bumper - Shopping Race (:15-:17) APR06                                                                                   150                                
PRCFAMCHA081001135359135408000009CC Disclaimer - FAST - Family.ca (:09-:10)                                                                                  150                                
PGRFAMCHA081001135408141645002237Disney's Fillmore!                                EPS # 1-016                                                          6068607ECC                              
PRCFAMCHA081001141645141651000006Astral ID (DEC 2007)                                                                                                        150                                
PRCFAMCHA081001141651141703000012MD - 07 - WEEKENDERS/KIM (:11 - :13) (JULY08)                                                                               150                                
PROFAMCHA081001141703141742000039Weekenders (MD) ALT UNIVERSE - Coming Up Next (JUL                                                                          150                                
PROFAMCHA081001141742141759000017Kim Possible WHEELS (MD) This Afternoons @ 2:45 (J                                                                          150                                
PRCFAMCHA081001141759141844000045Bullying Awareness Week - 5 x Day - Nomination Spo                                                                          150                                
PRCFAMCHA081001141844141851000007MD Bumper - Ski Race (:07-:09) APR06                                                                                        150                                
PRCFAMCHA081001141851141900000009CC Disclaimer - FAST - Family.ca (:09-:10)                                                                                  150                                
PGRFAMCHA081001141900144134002234Disney's The Weekenders                           EP: 1-014                                                           A6068607ECC                              
PRCFAMCHA081001144134144146000012MD - 08 - KIM/REPLACEMENTS (:11 - :13) (JULY08)                                                                             150                                
PROFAMCHA081001144146144218000032Kim Possible RON FACTOR (MD) (July 06)  Coming Up                                                                           150                                
PROFAMCHA081001144218144227000009xxFamily Bumpers - (Phase 1 Spring 04) - DJ Spinni                                                                          150                                
PROFAMCHA081001144227144307000040Easy Bake Decorating Contest (Sept 22 - Oct 20) $$                                                                          150                                
PRCFAMCHA081001144307144342000035Family First Overall Promo - 3/4 Per Day (Sept.6 -                                                                          150                                
PRCFAMCHA081001144342144351000009MD Bumper - Race Cars (:08-:10) APR06                                                                                       150                                
PRCFAMCHA081001144351144400000009CC Disclaimer - FAST - Generic (:09-:10)                                                                                    150                                
PGRFAMCHA081001144400150651002251Disney's Kim Possible                             EP: 1-008                                                           A6068607ECC                              
PRCFAMCHA081001150651150657000006Astral ID (DEC 2007)                                                                                                        150                                
PRCFAMCHA081001150657150709000012MD - 09 - REPLACEMENTS/EMPEROR (:11 - :13) (JULY08                                                                          150                                
PROFAMCHA081001150709150738000029Replacements (MD) BABYSITTER - Coming Up Next (JUL                                                                          150                                
PROFAMCHA081001150738150814000036HSM 3 Fly Away Contest - 4 X Day 3 to 8pm - Versio                                                                          150                                
PROFAMCHA081001150814150858000044Emperor's New School (MD) KUZCO - This Afternoon @                                                                          150                                
PROFAMCHA081001150858150938000040Sleeping Beauty DVD - Available Oct 7 (Sept 26 - O                                                                          150                                
PROFAMCHA081001150938151027000049Proud Family (MD) STRIKE - This Afternoon @ 4:10 (                                                                          150                                
PROFAMCHA081001151027151107000040HSM 3 - Family First Advance Ticket Sale (Sept 29                                                                           150                                
PROFAMCHA081001151107151133000026Recess (MD) CAREER DAY - This Afternoon @ 4:35 (JU                                                                          150                                
PRCFAMCHA081001151133151150000017MD Bumper - Shopping Race (:15-:17) APR06                                                                                   150                                
PRCFAMCHA081001151150151200000010CC Disclaimer - FAST - Family.ca (:09-:10)                                                                                  150                                
PGRFAMCHA081001151200153429002229Replacements Season 2                             EP: 01                                                               6068607ECC                              
PRCFAMCHA081001153429153441000012MD - 10 - EMPEROR/PROUD FAMILY (:11 - :13) (JULY08                                                                          150                                
PRCFAMCHA081001153441153541000100Wiz-tober Overall Promo Post 9pm Only (Sept 26 - O                                                                          150                                
PROFAMCHA081001153541153605000024Emperor's New School (MD) ZIT - Coming Up Next (JU                                                                          150                                
PROFAMCHA081001153605153645000040Iron Man DVD - Available Now (Sept 30 - Oct 7) $$$                                                                          150                                
PROFAMCHA081001153645153720000035Proud Family - IDOL (MD) This Afternoon @ 4:10pm (                                                                          150                                
PROFAMCHA081001153720153805000045HSM - The Ice Tour FF On Sale 2- 10 Day Advance On                                                                          150                                
PROFAMCHA081001153805153831000026Recess (MD) CAREER DAY - This Afternoon @ 4:35 (JU                                                                          150                                
PROFAMCHA081001153831153916000045Family Favourites - Demi Lovato CD (Sept 23 - Oct                                                                           150                                
PROFAMCHA081001153916153952000036HSM 3 Fly Away Contest - 4 X Day 3 to 8pm - Versio                                                                          150                                
PRCFAMCHA081001153952154000000008MD Bumper - Ski Race (:07-:09) APR06                                                                                        150                                
PRCFAMCHA081001154000154009000009CC Disclaimer - FAST - Generic (:09-:10)                                                                                    150                                
PGRFAMCHA081001154009160245002236Disney's The Emperor's New School                 EP: 12                                                               6068807ECC                              
PRCFAMCHA081001160245160251000006Astral ID (DEC 2007)                                                                                                        150                                
PRCFAMCHA081001160251160303000012MD - 11 - PROUD FAMILY/RECESS (:11 - :13) (JULY08)                                                                          150                                
PRCFAMCHA081001160303160338000035Family First Overall Promo - 3/4 Per Day (Sept.6 -                                                                          150                                
PROFAMCHA081001160338160413000035Proud Family - IDOL (MD) Coming Up Next (JULY08)                                                                            150                                
PRCFAMCHA081001160413160458000045Rogers Pre Paid Spot (Aug 25 - Oct 5) $$$                                                                                   150                                
PROFAMCHA081001160458160524000026Recess (MD) CAREER DAY - This Afternoon @ 4:35 (JU                                                                          150                                
PROFAMCHA081001160524160604000040Cheetah Girls One World Tour (Nov 3 -12) $$$                                                                                150                                
PROFAMCHA081001160604160701000057Suite Life of Z & C (MD) FAB LIFESTYLES - This Aft                                                                          150                                
PRCFAMCHA081001160701160711000010Rogers Pre Paid Spot Billboard (Aug 25 - Oct 5) $$                                                                          150                                
PROFAMCHA081001160711160740000029Hannah Montana (MD) SCIENCE - This Afternoon @ 5:3                                                                          150                                
PRCFAMCHA081001160740160749000009MD Bumper - Race Cars (:08-:10) APR06                                                                                       150                                
ID FAMCHA081001160749160757000008Magic of Disney - MAD DASH - Wipe (:06-:09)                                                                                 150                                
PRCFAMCHA081001160757160806000009CC Disclaimer - FAST - Family.ca (:09-:10)                                                                                  150                                
PGRFAMCHA081001160806163039002233The Proud Family                                  EP: 1-007                                                            6068607ECC                              
PRCFAMCHA081001163039163050000011MD - 12 - RECESS/SUITE LIFE (:11 - :13) (JULY08)                                                                            150                                
PRCFAMCHA081001163050163125000035Family First Overall Promo - 3/4 Per Day (Sept.6 -                                                                          150                                
PROFAMCHA081001163125163159000034Recess - HEROES (MD) - (APR06) - Coming Up Next                                                                             150                                
PROFAMCHA081001163159163234000035Barbie Candy Glam - B Candy Glamourous (Sept 22 -                                                                           150                                
PROFAMCHA081001163234163246000012xxFamily Bumpers - (Phase 1 Spring 04) - Picnic (M                                                                          150                                
PROFAMCHA081001163246163256000010FAMJAM - Open/Close                                                                                                         150                                
PGRFAMCHA081001163256163426000130MV Disney - (MD/NS/NSW) - Jesse McCartney - Just S                                                                     60688120                                
PROFAMCHA081001163426163440000014xxFAMJAM - Close (FAMILY) xxDNUxx                                                                                           150                                
PROFAMCHA081001163440163512000032Suite Life of Z & C (MD) IMPRESS - This Afternoon                                                                           150                                
PRCFAMCHA081001163512163522000010Rogers Pre Paid Spot Billboard (Aug 25 - Oct 5) $$                                                                          150                                
PROFAMCHA081001163522163554000032Hannah Montana - WIG AUDITIONS (MD) This Afternoon                                                                          150                                
PROFAMCHA081001163554163603000009Wiz-tober Bumper - Bats (Oct 1- 31)                                                                                         150                                
PRCFAMCHA081001163603163613000010CC Disclaimer - FAST - Generic (:09-:10)                                                                                    150                                
PGRFAMCHA081001163613165847002234Disney's Recess                                   EP: 1-037                                                            6068607ECC                              
PRCFAMCHA081001165847165900000013MD - 13 - SUITE LIFE/HANNAH (:11 - :13) (JULY08)                                                                            150                                
PROFAMCHA081001165900165932000032Suite Life of Z & C (NS) IMPRESS - Coming Up Next                                                                           150                                
PRCFAMCHA081001165932170017000045Rogers Pre Paid Spot (Aug 25 - Oct 5) $$$                                                                                   150                                
PROFAMCHA081001170017170049000032Hannah Montana - WIG AUDITIONS (MD) This Afternoon                                                                          150                                
PROFAMCHA081001170049170134000045HSM - The Ice Tour FF On Sale 2- 10 Day Advance On                                                                          150                                
PROFAMCHA081001170134170208000034Proud Family - GET BURNED (MD) Tomorrow Afternoon                                                                           150                                
PROFAMCHA081001170208170248000040HSM 3 - Family First Advance Ticket Sale (Sept 29                                                                           150                                
PRCFAMCHA081001170248170333000045Bullying Awareness Week - 5 x Day - Nomination Spo                                                                          150                                
PRCFAMCHA081001170333170341000008MD Bumper - Ski Race (:07-:09) APR06                                                                                        150                                
ID FAMCHA081001170341170350000009Magic of Disney - MAD DASH - Shape (:06-:09)                                                                                150                                
PRCFAMCHA081001170350170400000010CC Disclaimer - FAST - Family.ca (:09-:10)                                                                                  150                                
PGRFAMCHA081001170400172638002238Suite Life of Zack & Cody, The                    EP: 18                                                               6068607BCC                              
PRCFAMCHA081001172638172650000012MD - 14 - HANNAH/ZOEY (:11 - :13) (JULY08)                                                                                  150                                
PROFAMCHA081001172650172753000103Hannah Montana - MOCKUMENTARY (MD) Coming Up Next                                                                           150                                
PROFAMCHA081001172753172833000040Easy Bake Decorating Contest (Sept 22 - Oct 20) $$                                                                          150                                
PRCFAMCHA081001172833172842000009xxFamily Bumpers - (Phase 1 Spring 04) - Soccer (M                                                                          150                                
PRCFAMCHA081001172842172927000045Rogers Pre Paid Spot (Aug 25 - Oct 5) $$$                                                                                   150                                
PROFAMCHA081001172927172959000032Suite Life of Z & C (MD) IMPRESS - Tomorrow Aftern                                                                          150                                
PROFAMCHA081001172959173039000040HSM 3 - Family First Advance Ticket Sale (Sept 29                                                                           150                                
PRCFAMCHA081001173039173139000100Wiz-tober Overall Promo Post 9pm Only (Sept 26 - O                                                                          150                                
PRCFAMCHA081001173139173148000009MD Bumper - Race Cars (:08-:10) APR06                                                                                       150                                
ID FAMCHA081001173148173156000008Magic of Disney - MAD DASH - Shape (:06-:09)                                                                                150                                
PRCFAMCHA081001173156173205000009CC Disclaimer - FAST - Generic (:09-:10)                                                                                    150                                
PGRFAMCHA081001173205175443002238Hannah Montana                                    EP: 20                                                               6068807BCC                              
PRCFAMCHA081001175443175456000013NS - 01 - ZOEY 101/DEREK (:11 - :13) (MARCH08)                                                                              150                                
PROFAMCHA081001175456175532000036HSM 3 Fly Away Contest - 4 X Day 3 to 8pm - Versio                                                                          150                                
PROFAMCHA081001175532175612000040Zoey 101 (NS) SAFETY CUPCAKE - Coming Up Next (MAR                                                                          150                                
PRCFAMCHA081001175612175657000045Bratz Discover Your Passion for Fashion - Bratz PF                                                                          150                                
PRCFAMCHA081001175657175735000038Life W D (NS) Edwin Mystery Man - Tonight @ 6:30pm                                                                          150                                
PROFAMCHA081001175735175815000040Iron Man DVD - Available Now (Sept 30 - Oct 7) $$$                                                                          150                                
PROFAMCHA081001175815175845000030Wizards of Waverrly Place ALEX (NS) - Tonight @7.0                                                                          150                                
PRCFAMCHA081001175845175855000010Rogers Pre Paid Spot Billboard (Aug 25 - Oct 5) $$                                                                          150                                
PRCFAMCHA081001175855175930000035Family First Overall Promo - 3/4 Per Day (Sept.6 -                                                                          150                                
PROFAMCHA081001175930175947000017Nonstop Block Open (:16-:18) APR06                                                                                          150                                
PRCFAMCHA081001175947175956000009CC Disclaimer - FAST - Family.ca (:09-:10)                                                                                  150                                
PGRFAMCHA081001175956182327002331Zoey 101                                          EP: 40                                                               2068807BCC                              
PRCFAMCHA081001182327182410000043Life W Derek (NS) Trailer Generic - Coming Up Next                                                                          150                                
PRCFAMCHA081001182410182455000045Bratz Discover Your Passion for Fashion - Bratz PF                                                                          150                                
PROFAMCHA081001182455182525000030Wizards of Waverrly Place JUSTIN (NS) - Tonight @                                                                           150                                
PROFAMCHA081001182525182620000055Disney Behind The Curtain (MD, NS, NSW) 2 x Day  (                                                                          150                                
PROFAMCHA081001182620182647000027That's So Raven CLIP (NS) Tonight @ 7:30pm (SEPT08                                                                          150                                
PROFAMCHA081001182647182727000040Bret Ryan CD Blast (Sept 5 - Nov 28) $$$                                                                                    150                                
PROFAMCHA081001182727182759000032Suite Life of Z & C (NS) IMPRESS - Tonight @ 8pm (                                                                          150                                
PRCFAMCHA081001182759182828000029Naturally Sadie - CLIP (NS) Tonight @ 8:30pm (MARC                                                                          150                                
PROFAMCHA081001182828182913000045HSM - The Ice Tour FF On Sale 2- 10 Day Advance On                                                                          150                                
PROFAMCHA081001182913182947000034Hannah Montana (NS) Wig Auditions - Tonight @ 9 (O                                                                          150                                
PROFAMCHA081001182947183001000014Wiz-tober Bumper - Emily (Oct 1- 31)                                                                                        150                                
PRCFAMCHA081001183001183011000010CC Disclaimer - FAST - Generic (:09-:10)                                                                                    150                                
PGRFAMCHA081001183011185241002230Life with Derek                                   EP: 12                                                        C26822 1055607BCC3                             
PROFAMCHA081001185241185317000036HSM 3 Fly Away Contest - 4 X Day 3 to 8pm - Versio                                                                          150                                
PROFAMCHA081001185317185347000030Wizards of Waverrly Place ALEX (NS) - Coming up Ne                                                                          150                                
PROFAMCHA081001185347185427000040Sleeping Beauty DVD - Available Oct 7 (Sept 26 - O                                                                          150                                
PROFAMCHA081001185427185521000054That's So Raven FORTUNE TELLER (NS) Tonight @ 7:30                                                                          150                                
PROFAMCHA081001185521185531000010FAMJAM - Open/Close                                                                                                         150                                
PGRFAMCHA081001185531185811000240MV Disney - (MD/NS/NSW) - Jesse McCartney - Just S                                                                     20688120                                
PROFAMCHA081001185811185825000014xxFAMJAM - Close (FAMILY) xxDNUxx                                                                                           150                                
PROFAMCHA081001185825185857000032Suite Life of Z & C (NS) Wonderful Hotel - Tonight                                                                          150                                
PRCFAMCHA081001185857185945000048Family Video Player Promo - No Tag 3/day (not in P                                                                          150                                
PRCFAMCHA081001185945185958000013NS Bumper - Fashion (:12-:14) APR06                                                                                         150                                
PRCFAMCHA081001185958190007000009CC Disclaimer - FAST - Family.ca (:09-:10)                                                                                  150                                
PGRFAMCHA081001190007192238002231Disney Wizards of Waverly Place                   EP: 21                                                               6068607BCC                              
PROFAMCHA081001192238192305000027That's So Raven CLIP (NS) Coming Up Next (SEPT08)                                                                           150                                
PRCFAMCHA081001192305192350000045Rogers Pre Paid Spot (Aug 25 - Oct 5) $$$                                                                                   150                                
PROFAMCHA081001192350192447000057Suite Life of Z & C FABULOUS LIFESTYLES (NS) Tonig                                                                          150                                
PRCFAMCHA081001192447192527000040Naturally Sadie - ROMANTIC (NS) Tonight @ 8:30pm (                                                                          150                                
PROFAMCHA081001192527192537000010FAMJAM - Open/Close                                                                                                         150                                
PGRFAMCHA081001192537192707000130MV Disney - (MD/NS/NSW) - Jesse McCartney - Just S                                                                     60688120                                
PROFAMCHA081001192707192721000014xxFAMJAM - Close (FAMILY) xxDNUxx                                                                                           150                                
PROFAMCHA081001192721192750000029Hannah Montana - SUPER AWESOME (NS) Tonight @ 9pm                                                                           150                                
PROFAMCHA081001192750192830000040HSM 3 - Family First Advance Ticket Sale (Sept 29                                                                           150                                
PRCFAMCHA081001192830192930000100Wiz-tober Overall Promo Post 9pm Only (Sept 26 - O                                                                          150                                
PRCFAMCHA081001192930192945000015NS Bumper - Tennis (:15-:17) APR06                                                                                          150                                
ID FAMCHA081001192945192952000007Magic of Disney - NS/NSW/PB - Wipe (:06-:09)                                                                                150                                
PRCFAMCHA081001192952193001000009CC Disclaimer - FAST - Generic (:09-:10)                                                                                    150                                
PGRFAMCHA081001193001195240002239That's So Raven                                   EP: 1-008                                                            6068607BCC                              
PRCFAMCHA081001195240195251000011NS - 05 - SUITE LIFE 8:00/SADIE 8:30 (:11 - :13) (                                                                          150                                
PRCFAMCHA081001195251195326000035Family First Overall Promo - 3/4 Per Day (Sept.6 -                                                                          150                                
PROFAMCHA081001195326195358000032Suite Life of Z & C (NS) IMPRESS - Coming Up Next                                                                           150                                
PROFAMCHA081001195358195433000035Barbie Candy Glam - B Candy Glamourous (Sept 22 -                                                                           150                                
PRCFAMCHA081001195433195502000029Naturally Sadie - CLIP (NS) Tonight @ 8:30pm (MARC                                                                          150                                
PRCFAMCHA081001195502195632000130Movie Entertainment (8)                                                                                                     150                                
PROFAMCHA081001195632195641000009xxFamily Bumpers - (Phase 3 Spring 05) - Giant Foo                                                                          150                                
PROFAMCHA081001195641195651000010FAMJAM - Open/Close                                                                                                         150                                
PGRFAMCHA081001195651195821000130MV Disney - (MD/NS/NSW) - Jesse McCartney - Just S                                                                     60688120                                
PROFAMCHA081001195821195835000014xxFAMJAM - Close (FAMILY) xxDNUxx                                                                                           150                                
PROFAMCHA081001195835195909000034Hannah Montana (NS) Wig Auditions - Tonight @ 9 (O                                                                          150                                
PRCFAMCHA081001195909195954000045Bullying Awareness Week - 5 x Day - Nomination Spo                                                                          150                                
PRCFAMCHA081001195954200001000007NS Bumper - Dodgeball (:07-:09) APR06                                                                                       150                                
ID FAMCHA081001200001200008000007Magic of Disney - NS/NSW/PB - Shape (:06-:09)                                                                               150                                
PRCFAMCHA081001200008200017000009CC Disclaimer - FAST - Family.ca (:09-:10)                                                                                  150                                
PGRFAMCHA081001200017202229002212Suite Life of Zack and Cody, The                  EP: 12                                                               6068607BCC                              
PRCFAMCHA081001202229202241000012NS - 06 - N. SADIE/HANNAH M (:11 - :13) (MARCH08)                                                                           150                                
PRCFAMCHA081001202241202321000040Naturally Sadie - ROMANTIC (NS) Coming Up Next (MA                                                                          150                                
PRCFAMCHA081001202321202406000045Bratz Discover Your Passion for Fashion - Bratz PF                                                                          150                                
PROFAMCHA081001202406202415000009xxFamily Bumpers - (Phase 3 Spring 05) - Hip Hop (                                                                          150                                
PRCFAMCHA081001202415202515000100Ian Greenberg - Last Man Standing Astral ID - Post                                                                          150                                
PROFAMCHA081001202515202617000102Hannah Montana (NS) Mockumentry - Tonight @ 9pm (J                                                                          150                                
PGRFAMCHA081001202617202747000130MS - HSM 3 - Dance Rehearsal - Coming Soon (Till O                                                                    A60688120                                
PRCFAMCHA081001202747202830000043Life W Derek (NS) Trailer Generic - Tonight @ 9:30                                                                          150                                
PRCFAMCHA081001202830202915000045Rogers Pre Paid Spot (Aug 25 - Oct 5) $$$                                                                                   150                                
PROFAMCHA081001202915202951000036HSM 3 Fly Away Contest - 4 X Day 3 to 8pm - Versio                                                                          150                                
PROFAMCHA081001202951203000000009Wiz-tober Bumper - Bats (Oct 1- 31)                                                                                         150                                
PRCFAMCHA081001203000203009000009CC Disclaimer - FAST - Generic (:09-:10)                                                                                    150                                
PGRFAMCHA081001203009205239002230Naturally, Sadie                                  EP: 21                                                        C24010 1065607ACC                              
PRCFAMCHA081001205239205251000012NS - 07 - HANNAH M/DEREK (:11 - :13) (MARCH08)                                                                              150                                
PROFAMCHA081001205251205325000034Hannah Montana (NS) Wig Auditions - Coming Up Next                                                                          150                                
PROFAMCHA081001205325205400000035Barbie Candy Glam - B Candy Glamourous (Sept 22 -                                                                           150                                
PRCFAMCHA081001205400205452000052Life With Derek (NS) Casey & Derek - Tonight @ 9:3                                                                          150                                
PROFAMCHA081001205452205502000010FAMJAM - Open/Close                                                                                                         150                                
PGRFAMCHA081001205502205741000239MV Disney - (MD/NS/NSW) - Jesse McCartney - Just S                                                                     20288120                                
PROFAMCHA081001205741205755000014xxFAMJAM - Close (FAMILY) xxDNUxx                                                                                           150                                
PROFAMCHA081001205755205838000043Ned's DSSG (NS) Too Cool for School  - Tonight @ 1                                                                          150                                
PROFAMCHA081001205838205918000040Bret Ryan CD Blast (Sept 5 - Nov 28) $$$                                                                                    150                                
PROFAMCHA081001205918205929000011Hannah Montana IDs - (MD) Miley # 1 - Next                                                                                  150                                
PRCFAMCHA081001205929205945000016NS Bumper - Tennis (:15-:17) APR06                                                                                          150                                
ID FAMCHA081001205945205951000006Magic of Disney - MAD DASH - Shape (:06-:09)                                                                                150                                
PRCFAMCHA081001205951210000000009CC Disclaimer - SLOW - Family.ca (:09-:10)                                                                                  150                                
PGRFAMCHA081001210000212238002238Hannah Montana                                    EP: 25                                                               6068807BCC                              
PRCFAMCHA081001212238212250000012NS - 08 - DEREK/NED'S (:11 - :13) (MARCH08)                                                                                 150                                
PRCFAMCHA081001212250212328000038Life W D (NS) Edwin Mystery Man - Coming Up Next (                                                                          150                                
PROFAMCHA081001212328212413000045Family Favourites - Demi Lovato CD (Sept 23 - Oct                                                                           150                                
PROFAMCHA081001212413212456000043Ned's DSSG (NS) Too Cool for School  - Tonight @ 1                                                                          150                                
PRCFAMCHA081001212456212556000100Ian Greenberg - Last Man Standing Astral ID - Post                                                                          150                                
PROFAMCHA081001212556212639000043Cory In The House (NS) Tonight @ 10:30pm (SEPT07)                                                                           150                                
PGRFAMCHA081001212639212809000130xxMS - Beverly Hills Chihuahua - Other Characters                                                                     A60688120                                
PROFAMCHA081001212809212841000032Suite Life of Z & C (NS) IMPRESS - Tonight @ 11pm                                                                           150                                
PRCFAMCHA081001212841212941000100Wiz-tober Overall Promo Post 9pm Only (Sept 26 - O                                                                          150                                
PRCFAMCHA081001212941212950000009NS Bumper - Dodgeball (:07-:09) APR06                                                                                       150                                
PRCFAMCHA081001212950213000000010CC Disclaimer - FAST - Generic (:09-:10)                                                                                    150                                
PGRFAMCHA081001213000215230002230Life with Derek                                   EP: 21                                                        C26822 1055607BCC3                             
PRCFAMCHA081001215230215243000013NS - 09 - NEDS/CORY IN THE HOUSE (:11 - :13) (SEPT                                                                          150                                
PRCFAMCHA081001215243215328000045Bullying Awareness Week - 5 x Day - Nomination Spo                                                                          150                                
PROFAMCHA081001215328215411000043Ned's DSSG (NS) Too Cool for School  - Coming Up N                                                                          150                                
PROFAMCHA081001215411215421000010FAMJAM - Open/Close                                                                                                         150                                
PGRFAMCHA081001215421215821000400MV Disney - (MD/NS/NSW) - Jesse McCartney - Just S                                                                     60688120                                
PROFAMCHA081001215821215835000014xxFAMJAM - Close (FAMILY) xxDNUxx                                                                                           150                                
PROFAMCHA081001215835215935000100Cory In The House - Cory vs. Sophie (NS) Tonight @                                                                          150                                
PRCFAMCHA081001215935215949000014NS Bumper - Fashion (:12-:14) APR06                                                                                         150                                
PRCFAMCHA081001215949215959000010CC Disclaimer - SLOW - Family.ca (:09-:10)                                                                                  150                                
PGRFAMCHA081001215959222419002420Ned's Declassified School Survival Guide          EP: 17                                                               2068807BCC                              
PRCFAMCHA081001222419222431000012NS - 10 - CORY IN THE HOUSE/SUITE LIFE (:11 - :13)                                                                          150                                
PROFAMCHA081001222431222504000033Cory In The House (NS) WHAT THEY'RE SAYING - Comin                                                                          150                                
PRCFAMCHA081001222504222604000100Ian Greenberg - Last Man Standing Astral ID - Post                                                                          150                                
PROFAMCHA081001222604222701000057Suite Life of Z & C FABULOUS LIFESTYLES (NS) Tonig                                                                          150                                
PRCFAMCHA081001222701222728000027Life W D (NS) CLIP - Tonight @ 11:30pm (JULY08)                                                                             150                                
PGRFAMCHA081001222728222858000130MS - HSM 3 - Dance Rehearsal - Coming Soon (Till O                                                                    A60688120                                
PRCFAMCHA081001222858222933000035Family First Overall Promo - 3/4 Per Day (Sept.6 -                                                                          150                                
PROFAMCHA081001222933222947000014Wiz-tober Bumper - Emily (Oct 1- 31)                                                                                        150                                
ID FAMCHA081001222947222955000008Magic of Disney - NS/NSW/PB - Wipe (:06-:09)                                                                                150                                
PRCFAMCHA081001222955223004000009CC Disclaimer - SLOW - Generic (:09 -:10)                                                                                   150                                
PGRFAMCHA081001223004225205002201Cory in the House Season 2                        EP: 10                                                               6068607BCC                              
PRCFAMCHA081001225205225217000012NS - 11 - SUITE LIFE/LIFE WITH DEREK (:11 - :13) (                                                                          150                                
PROFAMCHA081001225217225253000036HSM 3 Fly Away Contest - 4 X Day 3 to 8pm - Versio                                                                          150                                
PROFAMCHA081001225253225325000032Suite Life of Z & C (NS) IMPRESS - Coming Up Next                                                                           150                                
PROFAMCHA081001225325225335000010FAMJAM - Open/Close                                                                                                         150                                
PGRFAMCHA081001225335225615000240MV Disney - (MD/NS/NSW) - Jesse McCartney - Just S                                                                     20688120                                
PROFAMCHA081001225615225629000014xxFAMJAM - Close (FAMILY) xxDNUxx                                                                                           150                                
PRCFAMCHA081001225629225707000038Life W D (NS) Edwin Mystery Man - Tonight @ 11:30p                                                                          150                                
PROFAMCHA081001225707225717000010FAMJAM - Open/Close                                                                                                         150                                
PGRFAMCHA081001225717225847000130MV Disney - (MD/NS/NSW) - Jesse McCartney - Just S                                                                     60688120                                
PROFAMCHA081001225847225901000014xxFAMJAM - Close (FAMILY) xxDNUxx                                                                                           150                                
PRCFAMCHA081001225901225946000045Bullying Awareness Week - 5 x Day - Nomination Spo                                                                          150                                
PRCFAMCHA081001225946225954000008NS Bumper - Dodgeball (:07-:09) APR06                                                                                       150                                
ID FAMCHA081001225954230002000008Magic of Disney - NS/NSW/PB - Shape (:06-:09)                                                                               150                                
PRCFAMCHA081001230002230011000009CC Disclaimer - SLOW - Family.ca (:09-:10)                                                                                  150                                
PGRFAMCHA081001230011232242002231Suite Life of Zack and Cody, The                  EP: 04                                                               6068607BCC                              
PRCFAMCHA081001232242232255000013NS - 12 - LIFE WITH DEREK/SADIE (:11 - :13) (SEPT0                                                                          150                                
PRCFAMCHA081001232255232347000052Life With Derek (NS) Casey & Derek - Coming Up Nex                                                                          150                                
PRCFAMCHA081001232347232447000100Ian Greenberg - Last Man Standing Astral ID - Post                                                                          150                                
PRCFAMCHA081001232447232527000040Naturally Sadie - ROMANTIC (NS) Tonight @ 12:00am                                                                           150                                
PGRFAMCHA081001232527232657000130xxMS - Beverly Hills Chihuahua - Other Characters                                                                     A60688120                                
PROFAMCHA081001232657232709000012xxFamily Bumpers - (Phase 1 Spring 04) - Picnic (M                                                                          150                                
PROFAMCHA081001232709232719000010FAMJAM - Open/Close                                                                                                         150                                
PGRFAMCHA081001232719232849000130Jonas Brothers Burning Up Music Video/ Camp Rock B                                                                     60688120                                
PROFAMCHA081001232849232903000014xxFAMJAM - Close (FAMILY) xxDNUxx                                                                                           150                                
PRCFAMCHA081001232903232938000035Family First Overall Promo - 3/4 Per Day (Sept.6 -                                                                          150                                
PROFAMCHA081001232938232947000009Wiz-tober Bumper - Bats (Oct 1- 31)                                                                                         150                                
PRCFAMCHA081001232947232957000010CC Disclaimer - SLOW - Generic (:09 -:10)                                                                                   150                                
PGRFAMCHA081001232957235227002230Life with Derek                                   EP: 12                                                        C23968A1065607BCC                              
PRCFAMCHA081001235227235239000012NS - 13 - SADIE/SADIE (:11 - :13) (SEPT07)                                                                                  150                                
PRCFAMCHA081001235239235339000100Wiz-tober Overall Promo Post 9pm Only (Sept 26 - O                                                                          150                                
PRCFAMCHA081001235339235408000029Naturally Sadie - CLIP (NS) Coming Up Next (MARCH0                                                                          150                                
PROFAMCHA081001235408235418000010FAMJAM - Open/Close                                                                                                         150                                
PGRFAMCHA081001235418235818000400MV Disney - (MD/NS/NSW) - Jesse McCartney - Just S                                                                     60688120                                
PROFAMCHA081001235818235832000014xxFAMJAM - Close (FAMILY) xxDNUxx                                                                                           150                                
PROFAMCHA081001235832235848000016Suite Life on Deck (NS) Premiering Oct 13 @ 6pm                                                                             150                                
PRCFAMCHA081001235848235936000048Family Video Player Promo - No Tag 3/day (not in P                                                                          150                                
PRCFAMCHA081001235936235950000014NS Bumper - Fashion (:12-:14) APR06                                                                                         150                                
PRCFAMCHA081001235950000000000010CC Disclaimer - SLOW - Family.ca (:09-:10)                                                                                  150                                
PGRFAMCHA081001000000002230002230Naturally, Sadie                                  EP: 07                                                        C24010 1065607ACC                              
PRCFAMCHA081001002230002243000013NS - 14 - SADIE/HANNAH (:11 - :13) (SEPT07)                                                                                 150                                
PRCFAMCHA081001002243002323000040Naturally Sadie - ROMANTIC (NS) Coming Up Next (MA                                                                          150                                
PRCFAMCHA081001002323002423000100Ian Greenberg - Last Man Standing Astral ID - Post                                                                          150                                
PROFAMCHA081001002423002432000009xxFamily Bumpers - (Phase 1 Spring 04) - DJ Spinni                                                                          150                                
PGRFAMCHA081001002432002602000130MS - HSM 3 - Dance Rehearsal - Coming Soon (Till O                                                                    A60688120                                
PROFAMCHA081001002602002659000057Suite Life of Z & C FABULOUS LIFESTYLES (NS) Tomor                                                                          150                                
PROFAMCHA081001002659002709000010FAMJAM - Open/Close                                                                                                         150                                
PGRFAMCHA081001002709002839000130Jonas Brothers Burning Up Music Video/ Camp Rock B                                                                     60688120                                
PROFAMCHA081001002839002853000014xxFAMJAM - Close (FAMILY) xxDNUxx                                                                                           150                                
PRCFAMCHA081001002853002938000045Bullying Awareness Week - 5 x Day - Nomination Spo                                                                          150                                
PRCFAMCHA081001002938002947000009NS Bumper - Dodgeball (:07-:09) APR06                                                                                       150                                
PRCFAMCHA081001002947002956000009CC Disclaimer - SLOW - Generic (:09 -:10)                                                                                   150                                
PGRFAMCHA081001002956005226002230Naturally, Sadie                                  EP: 34                                                        C25428 1065607ACC                              
PROFAMCHA081001005226005302000036HSM 3 Fly Away Contest - 4 X Day 3 to 8pm - Versio                                                                          150                                
PROFAMCHA081001005302005404000102Hannah Montana (NS) Mockumentry - Coming Up Next (                                                                          150                                
PROFAMCHA081001005404005414000010FAMJAM - Open/Close                                                                                                         150                                
PGRFAMCHA081001005414005747000333MV Disney - (MD/NS/NSW) - Jesse McCartney - Just S                                                                     60688120                                
PROFAMCHA081001005747005801000014xxFAMJAM - Close (FAMILY) xxDNUxx                                                                                           150                                
PRCFAMCHA081001005801005844000043Life W Derek (NSW) Trailer/New Season - This Sunda                                                                          150                                
PRCFAMCHA081001005844005944000100Wiz-tober Overall Promo Post 9pm Only (Sept 26 - O                                                                          150                                
PRCFAMCHA081001005944005958000014NS Bumper - Fashion (:12-:14) APR06                                                                                         150                                
ID FAMCHA081001005958010007000009Magic of Disney - NS/NSW/PB - Shape (:06-:09)                                                                               150                                
PRCFAMCHA081001010007010016000009CC Disclaimer - SLOW - Family.ca (:09-:10)                                                                                  150                                
PGRFAMCHA081001010016012243002227Hannah Montana                                    EP: 15                                                               6068807BCC                              
PRCFAMCHA081001012243012300000017NS Bumper - Tennis (:15-:17) APR06                                                                                          150                                
ID FAMCHA081001012300012308000008Magic of Disney - NS/NSW/PB - Wipe (:06-:09)                                                                                150                                
PRCFAMCHA081001012308012317000009CC Disclaimer - SLOW - Generic (:09 -:10)                                                                                   150                                
PGRFAMCHA081001012317014548002231Cory in the House Season 2                        EP: 07                                                               6068607BCC                              
PRCFAMCHA081001014548014556000008NS Bumper - Dodgeball (:07-:09) APR06                                                                                       150                                
ID FAMCHA081001014556014604000008Magic of Disney - NS/NSW/PB - Shape (:06-:09)                                                                               150                                
PRCFAMCHA081001014604014613000009CC Disclaimer - SLOW - Family.ca (:09-:10)                                                                                  150                                
PGRFAMCHA081001014613020852002239Phil of the Future Yr 2                           EP: 38                                                               6068607BCC                              
PRCFAMCHA081001020852020905000013NS Bumper - Fashion (:12-:14) APR06                                                                                         150                                
ID FAMCHA081001020905020913000008Magic of Disney - NS/NSW/PB - Wipe (:06-:09)                                                                                150                                
PRCFAMCHA081001020913020922000009CC Disclaimer - SLOW - Generic (:09 -:10)                                                                                   150                                
PGRFAMCHA081001020922023153002231Lizzie McGuire                                    EP: 2-012                                                            6068607BCC                              
PRCFAMCHA081001023153023205000012NS - 19 - LIFE WITH DEREK/CORY IN THE HOUSE (:11 -                                                                          150                                
PRCFAMCHA081001023205023221000016NS Bumper - Tennis (:15-:17) APR06                                                                                          150                                
PRCFAMCHA081001023221023230000009CC Disclaimer - SLOW - Family.ca (:09-:10)                                                                                  150                                
PGRFAMCHA081001023230025500002230Life with Derek                                   EP: 26                                                        C26679A1065607BCC                              
PRCFAMCHA081001025500025512000012NS - 20 -CORY IN THE HOUSE/RAVEN (:11 - :13) (SEPT                                                                          150                                
PRCFAMCHA081001025512025520000008NS Bumper - Dodgeball (:07-:09) APR06                                                                                       150                                
ID FAMCHA081001025520025529000009Magic of Disney - NS/NSW/PB - Wipe (:06-:09)                                                                                150                                
PRCFAMCHA081001025529025539000010CC Disclaimer - SLOW - Generic (:09 -:10)                                                                                   150                                
PGRFAMCHA081001025539031812002233Cory in the House                                 EP: 20                                                               6068607BCC                              
PRCFAMCHA081001031812031825000013NS - 21 - RAVEN/ SUITE LIFE (:11 - :13) (SEPT07)                                                                            150                                
PRCFAMCHA081001031825031839000014NS Bumper - Fashion (:12-:14) APR06                                                                                         150                                
ID FAMCHA081001031839031848000009Magic of Disney - NS/NSW/PB - Shape (:06-:09)                                                                               150                                
PRCFAMCHA081001031848031858000010CC Disclaimer - SLOW - Family.ca (:09-:10)                                                                                  150                                
PGRFAMCHA081001031858034137002239That's So Raven                                   EP: 083                                                              6068607BCC                              
PRCFAMCHA081001034137034150000013NS - 22 - SUITE LIFE/LIFE WITH DEREK (:11 - :13) (                                                                          150                                
PRCFAMCHA081001034150034207000017NS Bumper - Tennis (:15-:17) APR06                                                                                          150                                
ID FAMCHA081001034207034216000009Magic of Disney - NS/NSW/PB - Wipe (:06-:09)                                                                                150                                
PRCFAMCHA081001034216034226000010CC Disclaimer - SLOW - Generic (:09 -:10)                                                                                   150                                
PGRFAMCHA081001034226040507002241Suite Life of Zack & Cody, The                    EP: 16                                                               6068607BCC                              
PRCFAMCHA081001040507040520000013NS - 23 - LIFE WITH DEREK (:11 - :13) (SEPT07)                                                                              150                                
PRCFAMCHA081001040520040529000009NS Bumper - Dodgeball (:07-:09) APR06                                                                                       150                                
PRCFAMCHA081001040529040539000010CC Disclaimer - SLOW - Family.ca (:09-:10)                                                                                  150                                
PGRFAMCHA081001040539042809002230Life with Derek                                   EP: 10                                                        C23968A1065607BCC                              
PRCFAMCHA081001042809042820000011FJR - 01 - KATIE& ORBIE / FRANNY'S FEET (SEPT08)                                                                            150                                
PROFAMCHA081001042820042911000051PH-D Promo - Bunnytown Funny Bunny Mix - Starts Mo                                                                          150                                
PROFAMCHA081001042911042942000031PH-D Promo - Web Sell on Family -  24/7 Ooh & Aah                                                                           150                                
ID FAMCHA081001042942042959000017Family Jr. Block Open (:14-:17) (JUL08)                                                                                     150                                
OFFFAMCHA081001042959043000000001OFF AIR                                                                                                                                                        
SO FAMCHA081002043000043011000011Sign On (oct 1)                                                                                                                                                
PRCFAMCHA081002043011043020000009CC Disclaimer - FAST - Family.ca (:09-:10)                                                                                  150                                
PGRFAMCHA081002043020045658002638Katie And Orbie                                   EP: 4-051                                                     C19664A1065607ECC                              
PRCFAMCHA081002045658045704000006Astral ID (DEC 2007)                                                                                                        150                                
PRCFAMCHA081002045704045715000011FJR - 02 - FRANNY'S FEET / BENJAMIN BEAR (SEPT08)                                                                           150                                
PRCFAMCHA081002045715045726000011Family Jr. Bumper - Acrobat (:10- :13) (JUL08)                                                                              150                                
PRCFAMCHA081002045726045735000009CC Disclaimer - FAST - Generic (:09-:10)                                                                                    150                                
PGRFAMCHA081002045735052005002230Franny's Feet                                     EPS # 20                                                      C23971 1065607ECC                              
PRCFAMCHA081002052005052018000013FJR - 03 - BENJAMIN BEAR / HOZE HOUNDZ (SEPT08)                                                                             150                                
PRCFAMCHA081002052018052030000012Family Jr. Bumper - Collide (:11- :14) (JUL08)                                                                              150                                
PRCFAMCHA081002052030052039000009CC Disclaimer - FAST - Family.ca (:09-:10)                                                                                  150                                
PGRFAMCHA081002052039054309002230Secret World of Benjamin Bear, The                EP: 26                                                        C26066 1065607ECC                              
PRCFAMCHA081002054309054315000006Astral ID (DEC 2007)                                                                                                        150                                
PRCFAMCHA081002054315054326000011FJR - 04 - HOZE HOUNDZ / HENRY'S WORLD (SEPT08)                                                                             150                                
PRCFAMCHA081002054326054338000012Family Jr. Bumper - Music (:11- :14) (JUL08)                                                                                150                                
PRCFAMCHA081002054338054347000009CC Disclaimer - FAST - Generic (:09-:10)                                                                                    150                                
PGRFAMCHA081002054347060625002238Hoze Houndz                                       EP: 4-050                                                     B63386A1065607ECC                              
PRCFAMCHA081002060625060638000013FJR - 05 - HENRY'S WORLD / KING (SEPT08)                                                                                    150                                
PRCFAMCHA081002060638060653000015Family Jr. Bumper - Portal (:14- :17) (JUL08)                                                                               150                                
PRCFAMCHA081002060653060702000009CC Disclaimer - FAST - Family.ca (:09-:10)                                                                                  150                                
PGRFAMCHA081002060702063106002404Henry's World                                     EPS # 2-025                                                   B81056A1065607GCC                              
PRCFAMCHA081002063106063112000006Astral ID (DEC 2007)                                                                                                        150                                
PRCFAMCHA081002063112063123000011FJR - 06 - KING (SEPT08)                                                                                                    150                                
PRCFAMCHA081002063123063134000011Family Jr. Bumper - Acrobat (:10- :13) (JUL08)                                                                              150                                
PRCFAMCHA081002063134063143000009CC Disclaimer - FAST - Generic (:09-:10)                                                                                    150                                
PGRFAMCHA081002063143065413002230King                                              EPS # 038                                                     C25350 1065607ECC                              
PROFAMCHA081002065413065447000034Recess - HEROES (MMM) - (APR06) - Coming Up Next                                                                            150                                
PROFAMCHA081002065447065506000019Phineas & Ferb (MMM) Isabella Tease - This Morning                                                                          150                                
PROFAMCHA081002065506065542000036Weekenders - PIZZA (MMM) - (APR06) - This Morning                                                                           150                                
