SO FAMCHA051201043000043011000011Sign On (oct 1)                                                                                                                                                
PROFAMCHA051201043011043020000009CC Disclaimer - FAST - Family.ca (:08-:10)                                                                                  150                                
PGRFAMCHA051201043020045655002635Katie And Orbie                                   EP: 3-037                                                     C12449A1065607ECC                              
PRCFAMCHA051201045655045700000005Astral ID (FEB05)                                                                                                           150                                
PROFAMCHA051201045700045715000015PH - 01 - FRANNY/SOMETHING/HOZE (SEP05) (:14 - 16)                                                                          150                                
ID FAMCHA051201045715045728000013PS Playhouse AM Block Open (:10-:15)                                                                                        150                                
PROFAMCHA051201045728045737000009CC Disclaimer - FAST - Family.ca (:08-:10)                                                                                  150                                
PGRFAMCHA051201045737052007002230Franny's Feet                                     EPS # 1-011                                                   C23970A1065607ECC                              
PROFAMCHA051201052007052022000015PH - 02 - SOMETHING/HOZE/KING (SEP05) (:14 - 16)                                                                            150                                
ID FAMCHA051201052022052035000013PS Playhouse AM Block Open (:10-:15)                                                                                        150                                
PROFAMCHA051201052035052044000009CC Disclaimer - FAST - Family.ca (:08-:10)                                                                                  150                                
PGRFAMCHA051201052044054315002231Something Else                                    EPS # 1-006                                                   B69260A1065607ECC                              
PRCFAMCHA051201054315054320000005Astral ID (FEB05)                                                                                                           150                                
PROFAMCHA051201054320054335000015PH - 03 - HOZE/KING/SPIDERMAN (SEP05) (:14 - 16)                                                                            150                                
ID FAMCHA051201054335054348000013PS Playhouse AM Block Open (:10-:15)                                                                                        150                                
PROFAMCHA051201054348054357000009CC Disclaimer - FAST - Family.ca (:08-:10)                                                                                  150                                
PGRFAMCHA051201054357060637002240Hoze Houndz                                       EP: 4-040                                                     B63376A1065607ECC                              
PROFAMCHA051201060637060652000015PH - 04 - KING/SPIDERMAN/KIM (SEP05) (:14 - 16)                                                                             150                                
ID FAMCHA051201060652060705000013PS Playhouse AM Block Open (:10-:15)                                                                                        150                                
PROFAMCHA051201060705060714000009CC Disclaimer - FAST - Family.ca (:08-:10)                                                                                  150                                
PGRFAMCHA051201060714062944002230King                                              EP: 4-040                                                     C25350A1065607ECC                              
PRCFAMCHA051201062944062949000005Astral ID (FEB05)                                                                                                           150                                
PROFAMCHA051201062949063004000015PH - 05 - SPIDERMAN/KIM/RECESS (SEP05) (:14 - 16)                                                                           150                                
ID FAMCHA051201063004063023000019MadMadMornings Block Open                                                                                                   150                                
PGRFAMCHA051201063023065204002141Spiderman                                         EP: 14                                                        C02618 1065607E                                
PROFAMCHA051201065204065218000014MMM - 01 (AM) - KIM/RECESS/WEEKENDERS (OCT05) (:14                                                                          150                                
PROFAMCHA051201065218065248000030xxKim Possible 007 (OCT05) (MD) - Coming Up Next                                                                            150                                
PROFAMCHA051201065248065328000040Kronk's New Groove Blast - Nov 17 - Dec 11                                                                            A     150                                
PROFAMCHA051201065328065406000038Recess - Keepin Clean (MD/AM) - (SEP05) - Today @                                                                           150                                
PROFAMCHA051201065406065452000046Fillmore! - Chase (MD) (SEP05) - Today @ 2:35pm                                                                             150                                
PROFAMCHA051201065452065542000050Dullmark Stunt Promo - All Month Long                                                                                       150                                
ID FAMCHA051201065542065601000019MadMadMornings Block Open                                                                                                   150                                
PGRFAMCHA051201065601071855002254Disney's Kim Possible                             EPS # 1-040                                                         A6068607E                                
PRCFAMCHA051201071855071900000005Astral ID (FEB05)                                                                                                           150                                
PROFAMCHA051201071900071915000015MMM - 02 (AM) - RECESS/WEEKENDERS/LILO (OCT05) (:1                                                                          150                                
PROFAMCHA051201071915071953000038Recess - Keepin Clean (MD/AM) - (SEP05) - Coming U                                                                          150                                
PROFAMCHA051201071953072059000106Yours, Mine & Ours Contest - In Theatres Now (Nov                                                                     A     150                                
PROFAMCHA051201072059072153000054Weekenders - B-Ball (MD/AM) - (SEP05) - Today @ 7:                                                                          150                                
PROFAMCHA051201072153072221000028Lilo & Stitch (MD) (SEP05) - Today @ 8:15am                                                                                 150                                
PROFAMCHA051201072221072303000042Sky High DVD Blast                                                                                                    A     150                                
PROFAMCHA051201072303072335000032Dave the Barbarian - LAY WASTE (MD) (SEP05) - Toda                                                                          150                                
PRCFAMCHA051201072335072341000006Family Bumpers - Reptile Pet - Siren (MD/NS/NSW)                                                                            150                                
ID FAMCHA051201072341072400000019MadMadMornings Block Open                                                                                                   150                                
PGRFAMCHA051201072400074634002234Disney's Recess                                   EP: 1-011                                                            6068607E                                
PROFAMCHA051201074634074648000014MMM - 03 (AM) - WEEKENDERS/LILO/WINNIE (OCT05) (:1                                                                          150                                
PROFAMCHA051201074648074742000054Weekenders - B-Ball (MD/AM) - (SEP05) - Coming Up                                                                           150                                
PROFAMCHA051201074742074810000028Lilo & Stitch (MD) (SEP05) - Today @ 8:15am                                                                                 150                                
PROFAMCHA051201074810074850000040Kronk's New Groove Blast - Nov 17 - Dec 11                                                                            A     150                                
PRCFAMCHA051201074850074920000030Brandy & Mr. Whiskers - Today @ 12:10pm                                                                                     150                                
PROFAMCHA051201074920074952000032Dave the Barbarian - LAY WASTE (MD) (SEP05) - Toda                                                                          150                                
PROFAMCHA051201074952075042000050Dullmark Stunt Promo - All Month Long                                                                                       150                                
ID FAMCHA051201075042075101000019MadMadMornings Block Open                                                                                                   150                                
PGRFAMCHA051201075101081341002240Disney's The Weekenders                           EP: 1-034                                                           A6068607E                                
PRCFAMCHA051201081341081346000005Astral ID (FEB05)                                                                                                           150                                
PROFAMCHA051201081346081401000015MMM - 04 (AM-T/T) - LILO/WINNIE/BEN (OCT05) (:14 -                                                                          150                                
PROFAMCHA051201081401081428000027Lilo & Stitch (MD) (SEP05) - Coming Up Next                                                                                 150                                
PROFAMCHA051201081428081508000040Kronk's New Groove Blast - Nov 17 - Dec 11                                                                            A     150                                
PRCFAMCHA051201081508081538000030Brandy & Mr. Whiskers - Today @ 12:10pm                                                                                     150                                
PROFAMCHA051201081538081632000054Weekenders - B-Ball (MD/PM) - (SEP05) - Today @ 3p                                                                          150                                
PRCFAMCHA051201081632081712000040Family Hits Take 2 CD (Oct 24 - Dec 9) (3x, daily                                                                           150                                
PRCFAMCHA051201081712081741000029Lloyd In Space (Oops) - Today @ 3:25pm                                                                                      150                                
ID FAMCHA051201081741081800000019MadMadMornings Block Open                                                                                                   150                                
PGRFAMCHA051201081800084039002239Disney's Lilo & Stitch: The Series                EP: 61                                                               6068607E                                
PROFAMCHA051201084039084054000015PH - 06 (T/T) - WINNIE/BENJAMIN/MACDONALD (SEP05)                                                                           150                                
PROFAMCHA051201084054084139000045Princess Block - Be A Princess (Frog Prince) - Tod                                                                          150                                
PROFAMCHA051201084139084209000030Winnie the Pooh (PH/AM) (SEP05) - Coming Up Next                                                                            150                                
PRCFAMCHA051201084209084221000012Benjamin Bear - Slide (PH-T/T) (SEP05) - Today @ 9                                                                          150                                
PRCFAMCHA051201084221084235000014Playhouse - HOZE HOUNDZ - Skater                                                                                            150                                
PROFAMCHA051201084235084305000030New MacDonald's Farm (PH) (SEP05) - Today @ 9:35am                                                                          150                                
PROFAMCHA051201084305084448000143Little Mermaid (Long) (PH-T/T) - Today @ 10:05am                                                                            150                                
ID FAMCHA051201084448084500000012PS Playhouse AM Block Open (:10-:15)                                                                                        150                                
PROFAMCHA051201084500084509000009CC Disclaimer - FAST - Family.ca (:08-:10)                                                                                  150                                
PGRFAMCHA051201084509090826002317The New Adventures of Winnie the Pooh             EP: 1-020                                                            6068607ECC                              
PRCFAMCHA051201090826090831000005Astral ID (FEB05)                                                                                                           150                                
PROFAMCHA051201090831090846000015PH - 07 (T/T) - BENJAMIN/MACDONALD/MERMAID (SEP05)                                                                          150                                
PRCFAMCHA051201090846090858000012Benjamin Bear - Slide (PH) (SEP05) - Coming Up Nex                                                                          150                                
PROFAMCHA051201090858090928000030New MacDonald's Farm (PH) (SEP05) - Today @ 9:35am                                                                          150                                
PROFAMCHA051201090928090952000024Little Mermaid (Trouble) (PH-T/T) - Today @ 10:05a                                                                          150                                
PRCFAMCHA051201090952091015000023Playhouse - HOUSE OF MOUSE - Calculator                                                                                     150                                
PRCFAMCHA051201091015091046000031King (PH) (SEP05) - Today @ 11:25am                                                                                         150                                
ID FAMCHA051201091046091100000014PS Playhouse AM Block Open (:10-:15)                                                                                        150                                
PROFAMCHA051201091100091109000009CC Disclaimer - FAST - Family.ca (:08-:10)                                                                                  150                                
PGRFAMCHA051201091109093344002235The Secret World Of Benjamin Bear                 EPS # 1-012                                                   B75157A1065607ECC                              
PROFAMCHA051201093344093359000015PH - 08 (T/T) - MACDONALD/MERMAID/PB&J (SEP05) (:1                                                                          150                                
PROFAMCHA051201093359093429000030New MacDonald's Farm (PH) (SEP05) - Coming Up Next                                                                          150                                
PROFAMCHA051201093429093448000019Henry's World (SEP05) - Today @ 11am                                                                                        150                                
PRCFAMCHA051201093448093517000029Playhouse - HOUSE OF MOUSE - Snug                                                                                           150                                
PRCFAMCHA051201093517093548000031King (PH) (SEP05) - Today @ 11:25am                                                                                         150                                
ID FAMCHA051201093548093600000012PS Playhouse AM Block Open (:10-:15)                                                                                        150                                
PGRFAMCHA051201093600100546002946New MacDonald's Farm                              EP: 21                                                               7068607E                                
PRCFAMCHA051201100546100551000005Astral ID (FEB05)                                                                                                           150                                
PROFAMCHA051201100551100606000015PH - 09 (T/T) - MERMAID/PB&J/HENRY (SEP05) (:14 -                                                                           150                                
PROFAMCHA051201100606100749000143Little Mermaid (Long) (PH-T/T) - Today @ 10:05am                                                                            150                                
ID FAMCHA051201100749100800000011PS Playhouse AM Block Open (:10-:15)                                                                                        150                                
PROFAMCHA051201100800100809000009CC Disclaimer - FAST - Family.ca (:08-:10)                                                                                  150                                
PGRFAMCHA051201100809103113002304The Little Mermaid                                EP: 1-009                                                            6068607ECC                              
PROFAMCHA051201103113103128000015PH - 10 - PB&J/HENRY/KING (SEP05) (:14 - 16)                                                                                150                                
PROFAMCHA051201103128103147000019Henry's World (SEP05) - Today @ 11am                                                                                        150                                
PRCFAMCHA051201103147103218000031King (PH) (SEP05) - Today @ 11:25am                                                                                         150                                
PROFAMCHA051201103218103248000030xxWinnie the Pooh (PH/AM) (SEP05) - Tomorrow @ 8:4                                                                          150                                
PRCFAMCHA051201103248103318000030xxFranny's Feet - Feet Talkin' (PH-M/W/F) - Tomorr                                                                          150                                
PRCFAMCHA051201103318103332000014Playhouse - HOZE HOUNDZ - Skater                                                                                            150                                
ID FAMCHA051201103332103347000015Franny's Feet Web BBD - Part of Playhouse @ family                                                                          150                                
ID FAMCHA051201103347103400000013PS Playhouse AM Block Open (:10-:15)                                                                                        150                                
PROFAMCHA051201103400103409000009CC Disclaimer - FAST - Family.ca (:08-:10)                                                                                  150                                
PGRFAMCHA051201103409105629002220PB&J Otter                                        EP: 1-002                                                           A6068607ECC                              
PRCFAMCHA051201105629105634000005Astral ID (FEB05)                                                                                                           150                                
PROFAMCHA051201105634105650000016PH - 11 - HENRY/KING/LILO (SEP05) (:14 - 16)                                                                                150                                
PROFAMCHA051201105650105709000019Henry's World (SEP05) - Coming Up Next                                                                                      150                                
PRCFAMCHA051201105709105740000031King (PH) (SEP05) - Today @ 11:25am                                                                                         150                                
PRCFAMCHA051201105740105815000035Playhouse - KATIE & ORBIE - Discoveries                                                                                     150                                
PRCFAMCHA051201105815105845000030xxFranny's Feet - Feet Talkin' (PH-M/W/F) - Tomorr                                                                          150                                
ID FAMCHA051201105845105900000015PS Playhouse AM Block Open (:10-:15)                                                                                        150                                
PROFAMCHA051201105900105908000008CC Disclaimer - FAST - Family.ca (:08-:10)                                                                                  150                                
PGRFAMCHA051201105908112309002401Henry's World                                     EP: 2-019                                                     B81050A1065607GCC                              
PROFAMCHA051201112309112323000014PH - 12 (M-T) - KING/LILO/BRANDY (SEP05) (:14 - 16                                                                          150                                
PRCFAMCHA051201112323112354000031King (PH) (SEP05) - Coming Up Next                                                                                          150                                
PRCFAMCHA051201112354112424000030xxFranny's Feet - Feet Talkin' (PH-M/W/F) - Tomorr                                                                          150                                
ID FAMCHA051201112424112439000015Franny's Feet Web BBD - Part of Playhouse @ family                                                                          150                                
PRCFAMCHA051201112439112451000012Family Bumpers - (Phase 1 Spring 04) - Funhouse (P                                                                          150                                
ID FAMCHA051201112451112501000010PS Playhouse AM Block Open (:10-:15)                                                                                        150                                
PROFAMCHA051201112501112510000009CC Disclaimer - FAST - Family.ca (:08-:10)                                                                                  150                                
PGRFAMCHA051201112510114740002230King                                              EPS # 027                                                     C25350A1065607ECC                              
PRCFAMCHA051201114740114745000005Astral ID (FEB05)                                                                                                           150                                
PROFAMCHA051201114745114759000014DM (MD) - 02 (M-T) - LILO/BRANDY/ALADDIN (:14 - :1                                                                          150                                
PRCFAMCHA051201114759114807000008Buzz On Maggie (HEEL CLICK) (MD-FRI) (NOV05) - Tom                                                                          150                                
PROFAMCHA051201114807114847000040Kronk's New Groove Blast - Nov 17 - Dec 11                                                                            A     150                                
ID FAMCHA051201114847114900000013Mad Dash Block Open (:13-:15)                                                                                               150                                
PGRFAMCHA051201114900121139002239Disney's Lilo & Stitch                            EPS # 33                                                            A6068607E                                
PROFAMCHA051201121139121153000014DM (MD) - 03 (FRI) - BRANDY/ALADDIN/HOZE (:14 - :1                                                                          150                                
PROFAMCHA051201121153121256000103Disney Download - Phase #2 - Chicken Little                                                                           A     150                                
PRCFAMCHA051201121256121304000008Buzz On Maggie (HEEL CLICK) (MD-FRI) (NOV05) - Tom                                                                          150                                
PGRFAMCHA051201121304123542002238Disney's Brandy & Mr. Whiskers                    EP: 10                                                               6068607E                                
PRCFAMCHA051201123542123547000005Astral ID (FEB05)                                                                                                           150                                
PROFAMCHA051201123547123601000014DM (MD) - 04 - ALADDIN/HOZE/MOUSE (:14 - :16)                                                                               150                                
PROFAMCHA051201123601123628000027Aladdin (Love Clip) - Coming Up Next                                                                                        150                                
PROFAMCHA051201123628123648000020Disney Download - Phase #2 - Contest BBD (Nov 16 -                                                                    A     150                                
PROFAMCHA051201123648123700000012Mad Dash - RECESS - Sprinkler                                                                                               150                                
PROFAMCHA051201123700123709000009CC Disclaimer - FAST - Family.ca (:08-:10)                                                                                  150                                
PGRFAMCHA051201123709125948002239Disney's Aladdin                                  EP: 1-004                                                            6068607ECC                              
PROFAMCHA051201125948130003000015DM (MD) - 05 - HOZE/MOUSE/DALMATIANS (:14 - :16)                                                                            150                                
PROFAMCHA051201130003130011000008CC Disclaimer - FAST - Family.ca (:08-:10)                                                                                  150                                
PGRFAMCHA051201130011132249002238Hoze Houndz                                       EPS # 6-075                                                   C22818A1065607ECC                              
PRCFAMCHA051201132249132254000005Astral ID (FEB05)                                                                                                           150                                
PROFAMCHA051201132254132308000014DM (MD) - 06 - MOUSE/DALMATIANS/HERCULES (:14 - :1                                                                          150                                
PROFAMCHA051201132308132354000046Fillmore! - Chase (MD) (SEP05) - Today @ 2:35pm                                                                             150                                
PRCFAMCHA051201132354132402000008Buzz On Maggie (HEEL CLICK) (MD-FRI) (NOV05) - Tom                                                                          150                                
PGRFAMCHA051201132402134639002237Disney's House Of Mouse                           EP: 1-048                                                           A6068607E                                
PROFAMCHA051201134639134655000016DM (MD) - 07 - DALMATIANS/HERCULES/FILLMORE (:14 -                                                                          150                                
PROFAMCHA051201134655134749000054Weekenders - B-Ball (MD/PM) - (SEP05) - Today @ 3p                                                                          150                                
PRCFAMCHA051201134749134801000012Family Bumpers - (Phase 1 Spring 04) - Funhouse (P                                                                          150                                
PGRFAMCHA051201134801141053002252Disney's 101 Dalmatians: The Series               EPS # 1-024                                                         A6068607E                                
PRCFAMCHA051201141053141058000005Astral ID (FEB05)                                                                                                           150                                
PROFAMCHA051201141058141114000016DM (MD) - 08 - HERCULES/FILLMORE/WEEKENDERS (:14 -                                                                          150                                
PROFAMCHA051201141114141200000046Fillmore! - Chase (MD) (SEP05) - Today @ 2:35pm                                                                             150                                
PGRFAMCHA051201141200143458002258Disney's Hercules                                 EP: 1-025                                                            6068607E                                
PROFAMCHA051201143458143514000016DM (MD) - 09 - FILLMORE/WEEKENDERS/LLOYD (:14 - :1                                                                          150                                
PROFAMCHA051201143514143600000046Fillmore! - Chase (MD) (SEP05) - Coming Up Next                                                                             150                                
PGRFAMCHA051201143600145838002238Disney's Fillmore!                                EPS # 1-007                                                         A6068607E                                
PRCFAMCHA051201145838145843000005Astral ID (FEB05)                                                                                                           150                                
PROFAMCHA051201145843145858000015DM (MD) - 10 - WEEKENDERS/LLOYD/DAVE (:14 - :16)                                                                            150                                
PROFAMCHA051201145858145940000042Sky High DVD Blast                                                                                                    A     150                                
PROFAMCHA051201145940150000000020Recess - Kindergarten (MD/PM) - (SEP05) - Today @                                                                           150                                
PROFAMCHA051201150000150009000009CC Disclaimer - FAST - Family.ca (:08-:10)                                                                                  150                                
PGRFAMCHA051201150009152242002233Disney's The Weekenders                           EP: 1-022                                                           A6068607ECC                              
PROFAMCHA051201152242152257000015DM (MD) - 11 - LLOYD/DAVE/PROUD (:14 - :16)                                                                                 150                                
PRCFAMCHA051201152257152326000029Lloyd In Space (Oops) - Coming Up Next                                                                                      150                                
PROFAMCHA051201152326152432000106Yours, Mine & Ours Contest - In Theatres Now (Nov                                                                     A     150                                
INTFAMCHA051201152432152453000021Recess Sketches - Bad Weather                                                                                          60686120                                
PRCFAMCHA051201152453152500000007Family Bumpers - (Phase 2 F/W 04) - Hockey (MD-L/M                                                                          150                                
PGRFAMCHA051201152500154753002253Disney's Lloyd In Space                           EP: 25                                                               6068607E                                
PRCFAMCHA051201154753154758000005Astral ID (FEB05)                                                                                                           150                                
PROFAMCHA051201154758154812000014DM (MD) - 12 - DAVE/PROUD/RECESS (:14 - :16)                                                                                150                                
PROFAMCHA051201154812154836000024Dave the Barbarian - GYM (MD) (SEP05) - Coming Up                                                                           150                                
PROFAMCHA051201154836154914000038Recess - Keepin Clean (MD/PM) - (SEP05) - Today @                                                                           150                                
PROFAMCHA051201154914154954000040Kronk's New Groove Blast - Nov 17 - Dec 11                                                                            A     150                                
PROFAMCHA051201154954155024000030xxKim Possible 007 (OCT05) (MD/PM) - Today @ 5:05p                                                                          150                                
PROFAMCHA051201155024155051000027xxLizzie McGuire - (Bad Breath) (OCT05) (MD) - Tod                                                                          150                                
PROFAMCHA051201155051155145000054Weekenders - B-Ball (MD/AM) - (SEP05) - Tomorrow @                                                                          150                                
PRCFAMCHA051201155145155200000015Buzz On Maggie (BUG) (MD-FRI) (NOV05) - Tomorrow @                                                                          150                                
PGRFAMCHA051201155200161438002238Disney's Dave the Barbarian                       EPS # 19                                                             6068607E                                
PROFAMCHA051201161438161452000014DM (MD) - 13 - PROUD/RECESS/KIM (:14 - :16)                                                                                 150                                
PROFAMCHA051201161452161520000028Proud Family (NOV04) (MD) - Coming Up Next                                                                                  150                                
PRCFAMCHA051201161520161600000040Family Hits Take 2 CD (Oct 24 - Dec 9) (3x, daily                                                                           150                                
PROFAMCHA051201161600161608000008Phil of the Future IDs - I'm Ricky Ullman, You're                                                                           150                                
PROFAMCHA051201161608161648000040Kronk's New Groove Blast - Nov 17 - Dec 11                                                                            A     150                                
PRCFAMCHA051201161648161703000015Buzz On Maggie (BUG) (MD-FRI) (NOV05) - Tomorrow @                                                                          150                                
PROFAMCHA051201161703161712000009CC Disclaimer - FAST - Family.ca (:08-:10)                                                                                  150                                
PGRFAMCHA051201161712163921002209The Proud Family                                  EP: 1-001                                                           A6068607ECC                              
PRCFAMCHA051201163921163926000005Astral ID (FEB05)                                                                                                           150                                
PROFAMCHA051201163926163940000014DM (MD) - 14 - RECESS/KIM/LIZZIE (:14 - :16)                                                                                150                                
PROFAMCHA051201163940164000000020Recess - Kindergarten (MD/AM) - (SEP05) - Coming U                                                                          150                                
PROFAMCHA051201164000164102000102Disney Download - Phase #2 - Chronicles of Narnia                                                                     A     150                                
PRCFAMCHA051201164102164124000022Mad Dash - LIZZIE MCGUIRE - Chase                                                                                           150                                
PROFAMCHA051201164124164154000030xxKim Possible 007 (OCT05) (MD/PM) - Today @ 5:05p                                                                          150                                
PROFAMCHA051201164154164214000020Disney Download - Phase #2 - Contest BBD (Nov 16 -                                                                    A     150                                
PROFAMCHA051201164214164304000050Dullmark Stunt Promo - All Month Long                                                                                       150                                
PGRFAMCHA051201164304170538002234Disney's Recess                                   EP: 1-010                                                            6068607E                                
PROFAMCHA051201170538170552000014DM (MD) - 15 (M-T) - KIM/LIZZIE/EVEN (:14 - :16)                                                                            150                                
PROFAMCHA051201170552170622000030xxKim Possible 007 (OCT05) (MD) - Coming Up Next                                                                            150                                
PROFAMCHA051201170622170649000027xxLizzie McGuire - (Bad Breath) (OCT05) (MD) - Tod                                                                          150                                
PROFAMCHA051201170649170717000028Bratz - What's Your Fashion Passion (NOV14 - DEC 1                                                                    A     150                                
PROFAMCHA051201170717170751000034xxEven Stevens - Bad Boys (NOV05) - (NS/M-TH) - To                                                                          150                                
PROFAMCHA051201170751170757000006Phil of the Future IDs - You're Watching Family...                                                                          150                                
PRCFAMCHA051201170757170803000006Family Bumpers - (Phase 2 F/W 04) - Gymnastics (MD                                                                          150                                
PGRFAMCHA051201170803173057002254Disney's Kim Possible                             EPS # 1-052                                                         A6068607E                                
PRCFAMCHA051201173057173102000005Astral ID (FEB05)                                                                                                           150                                
PROFAMCHA051201173102173116000014DM (MD) - 16 (M-T) - LIZZIE/EVEN/DARCY (:14 - :16)                                                                          150                                
PROFAMCHA051201173116173143000027xxLizzie McGuire - (Bad Breath) (OCT05) (MD) - Com                                                                          150                                
PROFAMCHA051201173143173246000103Disney Download - Phase #2 - Chicken Little                                                                           A     150                                
PRCFAMCHA051201173246173301000015Naturally Sadie - MONTAGE (Clip) (NSW) - Weekends                                                                           150                                
PROFAMCHA051201173301173333000032ChatNow - Chat In A Snap!                                                                                             A     150                                
PROFAMCHA051201173333173341000008Phil of the Future IDs - I'm Ricky Ullman, You're                                                                           150                                
PROFAMCHA051201173341173401000020Disney Download - Phase #2 - Contest BBD (Nov 16 -                                                                    A     150                                
PROFAMCHA051201173401173410000009CC Disclaimer - FAST - Family.ca (:08-:10)                                                                                  150                                
PGRFAMCHA051201173410175644002234Lizzie McGuire                                    EP: 2-018                                                           A6068607BCC                              
PROFAMCHA051201175644175659000015DM (NS) - 01 (M-T) - EVEN/DARCY/RAVEN (:14 - :16)                                                                           150                                
PROFAMCHA051201175659175718000019xxEven Stevens - What's Up (SEPT05) - (NS/M-TH) -                                                                           150                                
PROFAMCHA051201175718175758000040Kronk's New Groove Blast - Nov 17 - Dec 11                                                                            A     150                                
PROFAMCHA051201175758175826000028xx8 Simple Rules (PREM) (NS) - Premiering Tonight                                                                           150                                
PROFAMCHA051201175826175918000052Laurentien - Fashion 101 - (Aug 15 - Jan 1)                                                                                 150                                
PROFAMCHA051201175918175946000028xxPopular (PREM) (NS) (DEC05) - Premiering Tonight                                                                          150                                
ID FAMCHA051201175946180000000014Nonstop Block Open (:14-:17)                                                                                                150                                
PROFAMCHA051201180000180009000009CC Disclaimer - FAST - Family.ca (:08-:10)                                                                                  150                                
PGRFAMCHA051201180009182248002239Even Stevens                                      EP: 2-017                                                           A6068807BCC                              
PRCFAMCHA051201182248182253000005Astral ID (FEB05)                                                                                                           150                                
PROFAMCHA051201182253182309000016DM (NS) - 02 (M-T) - DARCY/RAVEN/SMART (:14 - :16)                                                                          150                                
PROFAMCHA051201182309182337000028xx8 Simple Rules (PREM) (NS) - Premiering Tonight                                                                           150                                
PRCFAMCHA051201182337182400000023Darcy's Wild Life - (GOAT PILLS) (NS) (SEP05) - Co                                                                          150                                
PROFAMCHA051201182400182430000030Shakira's Blast Interstitial (Nov 29 - Dec 11)                                                                        A     150                                
PROFAMCHA051201182430182520000050Dullmark Stunt Promo - All Month Long                                                                                       150                                
PROFAMCHA051201182520182550000030That's So Raven (OCT05) (NS/M-T) - Tonight 7pm                                                                              150                                
PRCFAMCHA051201182550182635000045Famous Players Popcorn Parties (1x)                                                                                         150                                
PROFAMCHA051201182635182709000034Smart Guy (APR06) (HAPPY DANCE) - (NS) - Tonight @                                                                          150                                
PROFAMCHA051201182709182748000039xxBrotherly Love (NSW) (SEP05) - Weekends @ 11:35a                                                                          150                                
PROFAMCHA051201182748182854000106Yours, Mine & Ours Contest - In Theatres Now (Nov                                                                     A     150                                
PROFAMCHA051201182854182932000038Ned's DSSG - KUNG FU (NS/FRI) (NOV05) - Tomorrow @                                                                          150                                
PROFAMCHA051201182932183000000028xxPopular (PREM) (NS) (DEC05) - Premiering Tonight                                                                          150                                
PROFAMCHA051201183000183009000009CC Disclaimer - FAST - Family.ca (:08-:10)                                                                                  150                                
PGRFAMCHA051201183009185139002130Darcy's Wild Life                                 EP: 17                                                        A23406A1065607BCC                              
PROFAMCHA051201185139185154000015DM (NS) - 03 (M-T) - RAVEN/SMART/SIMPLE (:14 - :16                                                                          150                                
PROFAMCHA051201185154185222000028xx8 Simple Rules (PREM) (NS) - Premiering Tonight                                                                           150                                
PROFAMCHA051201185222185252000030That's So Raven (OCT05) (NS/M-T) - Coming Up Next                                                                           150                                
PROFAMCHA051201185252185320000028Bratz - What's Your Fashion Passion (NOV14 - DEC 1                                                                    A     150                                
PROFAMCHA051201185320185354000034Smart Guy (APR06) (HAPPY DANCE) - (NS) - Tonight @                                                                          150                                
PRCFAMCHA051201185354185424000030Phil of the Future (NS) (OCT05) - Tomorrow @ 6:30p                                                                          150                                
INTFAMCHA051201185424185554000130Movie Surfers - Chronicles of Narnia - Inter. #2 L                                                                    A60285120                                
PRCFAMCHA051201185554185624000030Suite Life of Zack and Cody (NSW/AM) - Weekends @                                                                           150                                
PRCFAMCHA051201185624185655000031Naturally Sadie - TIE (Clip) (NSW) - Weekends @ 6:                                                                          150                                
PROFAMCHA051201185655185705000010FAMJAM - Open/Close                                                                                                         150                                
MVCFAMCHA051201185705185835000130MV Disney - (MD//NSNSW) - Walking On Sunshine (Aly                                                                     60688120                                
PROFAMCHA051201185835185849000014xxFAMJAM - Close (FAMILY) xxDNUxx                                                                                           150                                
PROFAMCHA051201185849185917000028xxPopular (PREM) (NS) (DEC05) - Premiering Tonight                                                                          150                                
PRCFAMCHA051201185917185928000011Family Bumpers - (Phase 2 F/W 04) - Science (MD-AM                                                                          150                                
PROFAMCHA051201185928190000000032ChatNow - Chat In A Snap!                                                                                             A     150                                
PGRFAMCHA051201190000192236002236That's So Raven                                   EP: 68                                                               6068607B                                
PRCFAMCHA051201192236192241000005Astral ID (FEB05)                                                                                                           150                                
PROFAMCHA051201192241192255000014DM (NS) - 04 (M-T) - SMART/SIMPLE/BMW (:14 - :16)                                                                           150                                
PROFAMCHA051201192255192323000028xx8 Simple Rules (PREM) (NS) - Premiering Tonight                                                                           150                                
PROFAMCHA051201192323192357000034Smart Guy (APR06) (HAPPY DANCE) - (NS/NSW) - Comin                                                                          150                                
PROFAMCHA051201192357192439000042Sky High DVD Blast                                                                                                    A     150                                
PROFAMCHA051201192439192529000050Dullmark Stunt Promo - All Month Long                                                                                       150                                
ID FAMCHA051201192529192554000025Darcy's Wild Life Web BBD - visit family.ca                                                                                 150                                
PROFAMCHA051201192554192604000010FAMJAM - Open/Close                                                                                                         150                                
INTFAMCHA051201192604192734000130MV Disney - (FAMILY HITS) That's So Raven Theme So                                                                     60688120                                
PROFAMCHA051201192734192748000014xxFAMJAM - Close (FAMILY) xxDNUxx                                                                                           150                                
PRCFAMCHA051201192748192818000030Phil of the Future (NS) (OCT05) - Tomorrow @ 6:30p                                                                          150                                
PROFAMCHA051201192818192858000040Kronk's New Groove Blast - Nov 17 - Dec 11                                                                            A     150                                
PROFAMCHA051201192858192937000039xxBrotherly Love (NSW) (SEP05) - Weekends @ 11:35a                                                                          150                                
PROFAMCHA051201192937193005000028xxPopular (PREM) (NS) (DEC05) - Premiering Tonight                                                                          150                                
PROFAMCHA051201193005193013000008CC Disclaimer - FAST - Family.ca (:08-:10)                                                                                  150                                
PGRFAMCHA051201193013195242002229Smart Guy                                         EP: 1-044                                                           A6068807BCC                              
PROFAMCHA051201195242195256000014DM (NS) - 05 (M-T) - SIMPLE/BMW/BROTHERLY (:14 - :                                                                          150                                
PROFAMCHA051201195256195324000028xx8 Simple Rules (PREM) (NS) - Premiering Next                                                                              150                                
INTFAMCHA051201195324195454000130Movie Surfers - Chronicles of Narnia - Inter. #1 -                                                                    A60288120                                
PROFAMCHA051201195454195538000044Zoey 101 - PHONE (NS/FRI) (NOV05) - Tomorrow @ 6pm                                                                          150                                
PRCFAMCHA051201195538195608000030Phil of the Future (NS) (OCT05) - Tomorrow @ 6:30p                                                                          150                                
INTFAMCHA051201195608195721000113Planet Rock Profiles - Beyonce (Lifelong Music) xxEP: 46                                                              A70687120                                
PROFAMCHA051201195721195742000021Ned's DSSG - Cafeteria Food (NS/FRI) (SEP05) - Tom                                                                          150                                
PROFAMCHA051201195742195821000039xxBrotherly Love (NSW) (SEP05) - Weekends @ 11:35a                                                                          150                                
PROFAMCHA051201195821195901000040Kronk's New Groove Blast - Nov 17 - Dec 11                                                                            A     150                                
PRCFAMCHA051201195901195932000031Naturally Sadie - TIE (Clip) (NSW) - Weekends @ 6:                                                                          150                                
PROFAMCHA051201195932200000000028xxPopular (PREM) (NS) (DEC05) - Premiering Tonight                                                                          150                                
PROFAMCHA051201200000200009000009CC Disclaimer - FAST - Family.ca (:08-:10)                                                                                  150                                
PGRFAMCHA0512012000092021450021368 Simple Rules                                    EP: 01                                                              B6028807BCC                              
PRCFAMCHA051201202145202150000005Astral ID (FEB05)                                                                                                           150                                
PROFAMCHA051201202150202205000015DM (NS) - 06 (M-T) - BMW/BROTHERLY/RADIO (:14 - :1                                                                          150                                
PROFAMCHA051201202205202233000028xxPopular (PREM) (NS) (DEC05) - Premiering Tonight                                                                          150                                
PROFAMCHA051201202233202303000030Shakira's Blast Interstitial (Nov 29 - Dec 11)                                                                        A     150                                
PROFAMCHA051201202303202347000044Zoey 101 - PHONE (NS/FRI) (NOV05) - Tomorrow @ 6pm                                                                          150                                
PROFAMCHA051201202347202357000010FAMJAM - Open/Close                                                                                                         150                                
INTFAMCHA051201202357202727000330MV - On My Own (Hedley)                           B00101                                                              A10677120                                
PROFAMCHA051201202727202741000014xxFAMJAM - Close (FAMILY) xxDNUxx                                                                                           150                                
PROFAMCHA051201202741202820000039xxBrotherly Love (NSW) (SEP05) - Weekends @ 11:35a                                                                          150                                
PRCFAMCHA051201202820202900000040Family Hits Take 2 CD (Oct 24 - Dec 9) (3x, daily                                                                           150                                
PRCFAMCHA051201202900202910000010Naturally Sadie ID's - Log on to family.ca                                                                                  150                                
PROFAMCHA051201202910203000000050Dullmark Stunt Promo - All Month Long                                                                                       150                                
PROFAMCHA051201203000203009000009CC Disclaimer - FAST - Family.ca (:08-:10)                                                                                  150                                
PGRFAMCHA051201203009205225002216Boy Meets World                                   EP: 1-008                                                           B6068807BCC                              
PROFAMCHA051201205225205240000015DM (NS) - 07 (M-T) - BROTHERLY/RADIO/POPULAR (:14                                                                           150                                
PROFAMCHA051201205240205308000028xxPopular (PREM) (NS) (DEC05) - Premiering Tonight                                                                          150                                
PROFAMCHA051201205308205347000039Brotherly Love (NSW) - Tomorrow @ 11:30am                                                                                   150                                
INTFAMCHA051201205347205747000400Movie Surfers - Chronicles of Narnia - Feat. #1 -                                                                     A60685120                                
ID FAMCHA051201205747205812000025Darcy's Wild Life Web BBD - visit family.ca                                                                                 150                                
PROFAMCHA051201205812205856000044Zoey 101 - PHONE (NS/FRI) (NOV05) - Tomorrow @ 6pm                                                                          150                                
PRCFAMCHA051201205856205926000030Phil of the Future (NS) (OCT05) - Tomorrow @ 6:30p                                                                          150                                
PROFAMCHA051201205926210004000038Ned's DSSG - KUNG FU (NS/FRI) (NOV05) - Tomorrow @                                                                          150                                
PGRFAMCHA051201210004212237002233Brotherly Love                                    EPS # 13                                                             6068807B                                
PRCFAMCHA051201212237212242000005Astral ID (FEB05)                                                                                                           150                                
PROFAMCHA051201212242212258000016DM (NS) - 08 (M-T) - RADIO/POPULAR/8 SIMPLE (:14 -                                                                          150                                
PROFAMCHA051201212258212326000028xxPopular (PREM) (NS) (DEC05) - Premiering Tonight                                                                          150                                
PRCFAMCHA051201212326212356000030xxRadio Free Roscoe (DATING GAME) - (NS/M-T) (NOV0                                                                          150                                
PRCFAMCHA051201212356212426000030Phil of the Future (NS) (OCT05) - Tomorrow @ 6:30p                                                                          150                                
PROFAMCHA051201212426212436000010FAMJAM - Open/Close                                                                                                         150                                
INTFAMCHA051201212436212744000308MV Disney - (MD/NS/NSW) - Beat of My Heart (HILARY                                                                     60288120                                
PROFAMCHA051201212744212758000014xxFAMJAM - Close (FAMILY) xxDNUxx                                                                                           150                                
PROFAMCHA051201212758212819000021Ned's DSSG - Cafeteria Food (NS/FRI) (SEP05) - Tom                                                                          150                                
PROFAMCHA051201212819212858000039xxBrotherly Love (NSW) (SEP05) - Weekends @ 11:35a                                                                          150                                
PROFAMCHA051201212858212948000050Dullmark Stunt Promo - All Month Long                                                                                       150                                
PRCFAMCHA051201212948213000000012xxFamily Bumpers - (Phase 3 Spring 05) - Bake (MD/                                                                          150                                
PROFAMCHA051201213000213009000009CC Disclaimer - SLOW - Family.ca (:08-:10)                                                                                  150                                
PGRFAMCHA051201213009215239002230Radio Free Roscoe                                 EPS # 38                                                      A05971A1065607ACC                              
PROFAMCHA051201215239215254000015DM (NS) - 09 (M-T) - POPULAR/8 SIMPLE/RADIO (:14 -                                                                          150                                
PROFAMCHA051201215254215322000028xxPopular (PREM) (NS) (DEC05) - Premiering Next                                                                             150                                
PROFAMCHA051201215322215406000044Zoey 101 - PHONE (NS/FRI) (NOV05) - Tomorrow @ 6pm                                                                          150                                
PRCFAMCHA051201215406215436000030Phil of the Future (NS) (OCT05) - Tomorrow @ 6:30p                                                                          150                                
PROFAMCHA051201215436215446000010FAMJAM - Open/Close                                                                                                         150                                
INTFAMCHA051201215446215742000256MV Disney - (MD/NS/NSW) - No One (Aly & A.J.)                                                                          60688120                                
PROFAMCHA051201215742215756000014xxFAMJAM - Close (FAMILY) xxDNUxx                                                                                           150                                
PROFAMCHA051201215756215834000038Ned's DSSG - KUNG FU (NS/FRI) (NOV05) - Tomorrow @                                                                          150                                
PRCFAMCHA051201215834215904000030Suite Life of Zack and Cody (NSW/AM) - Weekends @                                                                           150                                
PRCFAMCHA051201215904215935000031Naturally Sadie - TIE (Clip) (NSW) - Weekends @ 6:                                                                          150                                
PRCFAMCHA051201215935220000000025Darcy's Wild Life - (FREAK OUT) (NSW) (SEP05) - We                                                                          150                                
PGRFAMCHA051201220000224343004343Popular                                           EP: 01                                                              B6028807B                                
PRCFAMCHA051201224343224348000005Astral ID (FEB05)                                                                                                           150                                
PROFAMCHA051201224348224402000014DM (NS) - 10 (M-T) - 8 SIMPLE/RADIO/MENTORS (:14 -                                                                          150                                
PROFAMCHA051201224402224430000028xx8 Simple Rules (NS) (DULLMARK) - Coming Up Next                                                                           150                                
PROFAMCHA051201224430224514000044Zoey 101 - PHONE (NS/FRI) (NOV05) - Tomorrow @ 6pm                                                                          150                                
PRCFAMCHA051201224514224544000030Phil of the Future (NS) (OCT05) - Tomorrow @ 6:30p                                                                          150                                
PROFAMCHA051201224544224554000010FAMJAM - Open/Close                                                                                                         150                                
INTFAMCHA051201224554224949000355MV Disney - Come Clean (Hillary Duff)                                                                                  60688120                                
PROFAMCHA051201224949225003000014xxFAMJAM - Close (FAMILY) xxDNUxx                                                                                           150                                
PROFAMCHA051201225003225040000037Ned's DSSG - Jungle (NS/FRI) (SEP05) - Tomorrow @                                                                           150                                
PROFAMCHA051201225040225107000027Lizzie McGuire - (Bad Breath) (OCT05) (NSW/AM) - W                                                                          150                                
INTFAMCHA051201225107225241000134Planet Rock Profiles - Green Day (Influence) xxDNUEP: 46                                                              A70687120                                
PROFAMCHA051201225241225315000034Even Stevens - Corn Dog (SEPT05) - (NSW) - Weekend                                                                          150                                
PROFAMCHA051201225315225354000039xxBrotherly Love (NSW) (SEP05) - Weekends @ 11:35a                                                                          150                                
PRCFAMCHA051201225354225425000031Naturally Sadie - TIE (Clip) (NSW) - Weekends @ 6:                                                                          150                                
PROFAMCHA051201225425225435000010FAMJAM - Open/Close                                                                                                         150                                
INTFAMCHA051201225435225822000347MV Disney - (MD/NS/NSW) - Everybody Wants You (Jos                                                                     60688120                                
PROFAMCHA051201225822225836000014xxFAMJAM - Close (FAMILY) xxDNUxx                                                                                           150                                
PRCFAMCHA051201225836225901000025Darcy's Wild Life - (FREAK OUT) (NSW) (SEP05) - We                                                                          150                                
PROFAMCHA051201225901225951000050Dullmark Stunt Promo - All Month Long                                                                                       150                                
PRCFAMCHA051201225951230000000009xxFamily Bumpers - (Phase 3 Spring 05) - Hip Hop (                                                                          150                                
PROFAMCHA051201230000230010000010CC Disclaimer - SLOW - Family.ca (:08-:10)                                                                                  150                                
PGRFAMCHA0512012300102321460021368 Simple Rules                                    EP: 01                                                              B6068807BCC                              
PROFAMCHA051201232146232201000015NS - 12 (M-T) RADIO/MENTORS/SPIDER (SEP05) (:14 -                                                                           150                                
PROFAMCHA051201232201232245000044Zoey 101 - PHONE (NS/FRI) (NOV05) - Tomorrow @ 6pm                                                                          150                                
PRCFAMCHA051201232245232315000030Phil of the Future (NS) (OCT05) - Tomorrow @ 6:30p                                                                          150                                
PROFAMCHA051201232315232353000038Ned's DSSG - KUNG FU (NS/FRI) (NOV05) - Tomorrow @                                                                          150                                
PROFAMCHA051201232353232403000010FAMJAM - Open/Close                                                                                                         150                                
INTFAMCHA051201232403232740000337MV Disney - (MD/NS/NSW) - Wake Up (Hilary Duff)                                                                        60688120                                
PROFAMCHA051201232740232754000014xxFAMJAM - Close (FAMILY) xxDNUxx                                                                                           150                                
PROFAMCHA051201232754232828000034Even Stevens - Bad Boys (NOV05) - (NSW) - Weekends                                                                          150                                
PROFAMCHA051201232828232907000039xxBrotherly Love (NSW) (SEP05) - Weekends @ 11:35a                                                                          150                                
PRCFAMCHA051201232907232922000015Naturally Sadie - MONTAGE (Clip) (NSW) - Weekends                                                                           150                                
PRCFAMCHA051201232922232949000027Darcy's Wild Life - (CHICKS) (NSW) (SEP05) - Weeke                                                                          150                                
PRCFAMCHA051201232949233000000011Naturally Sadie ID's - I'm Charlotte, you're watch                                                                          150                                
PROFAMCHA051201233000233009000009CC Disclaimer - SLOW - Family.ca (:08-:10)                                                                                  150                                
PGRFAMCHA051201233009235239002230Radio Free Roscoe                                 EPS # 002                                                     B88717A1065607ACC                              
PROFAMCHA051201235239235254000015NS - 13 (M-F) MENTORS/SPIDER (SEP05) (:14 - 16)                                                                             150                                
PROFAMCHA051201235254235344000050Dullmark Stunt Promo - All Month Long                                                                                       150                                
PROFAMCHA051201235344235428000044Zoey 101 - PHONE (NS/FRI) (NOV05) - Tomorrow @ 6pm                                                                          150                                
PRCFAMCHA051201235428235458000030Phil of the Future (NS) (OCT05) - Tomorrow @ 6:30p                                                                          150                                
PROFAMCHA051201235458235508000010FAMJAM - Open/Close                                                                                                         150                                
INTFAMCHA051201235508235738000230MV Disney - (FAMILY HITS 2) - Girl Power (Cheetah                                                                      60688120                                
PROFAMCHA051201235738235752000014xxFAMJAM - Close (FAMILY) xxDNUxx                                                                                           150                                
PRCFAMCHA051201235752235822000030Suite Life of Zack and Cody (NSW/AM) - Weekends @                                                                           150                                
PROFAMCHA051201235822235852000030That's So Raven (OCT05) (NSW/AM) - Weekends @ 9:10                                                                          150                                
PRCFAMCHA051201235852235912000020Nonstop - BOY MEETS WORLD - Good Looking                                                                                    150                                
PROFAMCHA051201235912235951000039xxBrotherly Love (NSW) (SEP05) - Weekends @ 11:35a                                                                          150                                
PRCFAMCHA051201235951000000000009xxFamily Bumpers - (Phase 3 Spring 05) - Giant Foo                                                                          150                                
PROFAMCHA051201000000000008000008CC Disclaimer - SLOW - Family.ca (:08-:10)                                                                                  150                                
PGRFAMCHA051201000008002319002311Mentors                                           EP: 4-043                                                     C20779A1065607ACC                              
PROFAMCHA051201002319002333000014NS - 14 (M-F) SPIDER (SEP05) (:14 - 16)                                                                                     150                                
PROFAMCHA051201002333002417000044Zoey 101 - PHONE (NS/FRI) (NOV05) - Tomorrow @ 6pm                                                                          150                                
PRCFAMCHA051201002417002447000030Phil of the Future (NS) (OCT05) - Tomorrow @ 6:30p                                                                          150                                
PROFAMCHA051201002447002457000010FAMJAM - Open/Close                                                                                                         150                                
INTFAMCHA051201002457002627000130MV Disney - (MD/NS/NSW) - She's No You (SHORT) (Je                                                                     60688120                                
PROFAMCHA051201002627002641000014xxFAMJAM - Close (FAMILY) xxDNUxx                                                                                           150                                
PRCFAMCHA051201002641002711000030Suite Life of Zack and Cody (NSW/AM) - Weekends @                                                                           150                                
PROFAMCHA051201002711002745000034Even Stevens - Bad Boys (NOV05) - (NSW) - Weekends                                                                          150                                
INTFAMCHA051201002745002854000109Planet Rock Profiles - Craig David (Studio) xxDNUxEP: 46                                                              A70687120                                
PROFAMCHA051201002854002933000039xxBrotherly Love (NSW) (SEP05) - Weekends @ 11:35a                                                                          150                                
PRCFAMCHA051201002933003004000031Naturally Sadie - TIE (Clip) (NSW) - Weekends @ 6:                                                                          150                                
PGRFAMCHA051201003004005145002141Spiderman                                         EP: 14                                                        C02618 1065607E                                
PROFAMCHA051201005145005229000044Zoey 101 - PHONE (NS/FRI) (NOV05) - Tomorrow @ 6pm                                                                          150                                
INTFAMCHA051201005229005342000113Planet Rock Profiles - Alicia Keys xxDNUxx        EP: 46                                                              A70687120                                
PROFAMCHA051201005342005420000038Ned's DSSG - KUNG FU (NS/FRI) (NOV05) - Tomorrow @                                                                          150                                
PROFAMCHA051201005420005447000027Lizzie McGuire - (Bad Breath) (OCT05) (NSW/AM) - W                                                                          150                                
PRCFAMCHA051201005447005517000030Suite Life of Zack and Cody (NSW/AM) - Weekends @                                                                           150                                
PROFAMCHA051201005517005527000010FAMJAM - Open/Close                                                                                                         150                                
INTFAMCHA051201005527005839000312MV Disney - (MD/NS/NSW) - Only You (Josh Kelly)                                                                        60688120                                
PROFAMCHA051201005839005853000014xxFAMJAM - Close (FAMILY) xxDNUxx                                                                                           150                                
PROFAMCHA051201005853005932000039xxBrotherly Love (NSW) (SEP05) - Weekends @ 11:35a                                                                          150                                
PROFAMCHA051201005932010006000034Smart Guy (OCT05) (HAPPY DANCE) - (NSW) - Weekends                                                                          150                                
INTFAMCHA051201010006010059000053Planet Rock Profiles - Nickelback (Studio Anthem) EP: 46                                                              A70687120                                
PRCFAMCHA051201010059010130000031Naturally Sadie - TIE (Clip) (NSW) - Weekends @ 6:                                                                          150                                
PROFAMCHA051201010130010158000028xx8 Simple Rules (NS) (DULLMARK) - Monday to Thurs                                                                          150                                
PROFAMCHA051201010158010226000028xxPopular (NS) (DEC05) - Monday to Thursday @ 10pm                                                                          150                                
SO FAMCHA051201010226011426001200Sign Off                                                                                                                                                       
OFFFAMCHA051201011426043000031534OFF AIR                                                                                                                                                        
SO FAMCHA051202043000043011000011Sign On (oct 1)                                                                                                                                                
PROFAMCHA051202043011043020000009CC Disclaimer - FAST - Family.ca (:08-:10)                                                                                  150                                
PGRFAMCHA051202043020045656002636Katie And Orbie                                   EP: 3-038                                                     C12449A1065607ECC                              
PROFAMCHA051202045656045711000015PH - 01 - FRANNY/SOMETHING/HOZE (SEP05) (:14 - 16)                                                                          150                                
ID FAMCHA051202045711045724000013PS Playhouse AM Block Open (:10-:15)                                                                                        150                                
PROFAMCHA051202045724045733000009CC Disclaimer - FAST - Family.ca (:08-:10)                                                                                  150                                
PGRFAMCHA051202045733052003002230Franny's Feet                                     EPS # 1-012                                                   C23970A1065607ECC                              
PRCFAMCHA051202052003052008000005Astral ID (FEB05)                                                                                                           150                                
PROFAMCHA051202052008052023000015PH - 02 - SOMETHING/HOZE/KING (SEP05) (:14 - 16)                                                                            150                                
ID FAMCHA051202052023052036000013PS Playhouse AM Block Open (:10-:15)                                                                                        150                                
PROFAMCHA051202052036052045000009CC Disclaimer - FAST - Family.ca (:08-:10)                                                                                  150                                
PGRFAMCHA051202052045054318002233Something Else                                    EP: 1-007                                                     B69261A1065607ECC                              
PROFAMCHA051202054318054333000015PH - 03 - HOZE/KING/SPIDERMAN (SEP05) (:14 - 16)                                                                            150                                
ID FAMCHA051202054333054346000013PS Playhouse AM Block Open (:10-:15)                                                                                        150                                
PROFAMCHA051202054346054355000009CC Disclaimer - FAST - Family.ca (:08-:10)                                                                                  150                                
PGRFAMCHA051202054355060634002239Hoze Houndz                                       EP: 4-041                                                     B63377A1065607ECC                              
PRCFAMCHA051202060634060639000005Astral ID (FEB05)                                                                                                           150                                
PROFAMCHA051202060639060654000015PH - 04 - KING/SPIDERMAN/KIM (SEP05) (:14 - 16)                                                                             150                                
ID FAMCHA051202060654060707000013PS Playhouse AM Block Open (:10-:15)                                                                                        150                                
PROFAMCHA051202060707060716000009CC Disclaimer - FAST - Family.ca (:08-:10)                                                                                  150                                
PGRFAMCHA051202060716062946002230King                                              EP: 4-041                                                     C25350A1065607ECC                              
PROFAMCHA051202062946063001000015PH - 05 - SPIDERMAN/KIM/RECESS (SEP05) (:14 - 16)                                                                           150                                
ID FAMCHA051202063001063020000019MadMadMornings Block Open                                                                                                   150                                
PGRFAMCHA051202063020065201002141Spiderman                                         EP: 15                                                        C02618 1065607E                                
PRCFAMCHA051202065201065206000005Astral ID (FEB05)                                                                                                           150                                
PROFAMCHA051202065206065220000014MMM - 01 (AM) - KIM/RECESS/WEEKENDERS (OCT05) (:14                                                                          150                                
PROFAMCHA051202065220065250000030Dullmark PP XMAS Movies - Tonight @ 7:30pm                                                                                  150                                
PROFAMCHA051202065250065320000030xxKim Possible 007 (OCT05) (MD) - Coming Up Next                                                                            150                                
PROFAMCHA051202065320065340000020Recess - Kindergarten (MD/AM) - (SEP05) - Today @                                                                           150                                
PRCFAMCHA051202065340065403000023Mad Dash - WEEKENDERS - Pizza                                                                                               150                                
PROFAMCHA051202065403065457000054Weekenders - B-Ball (MD/AM) - (SEP05) - Today @ 7:                                                                          150                                
PROFAMCHA051202065457065527000030One Small Hero (WDP) - Sunday @ 1:30pm                                                                                      150                                
PROFAMCHA051202065527065543000016Dullmark Bumpers - Gingerbread Man (:15 - :17)                                                                              150                                
ID FAMCHA051202065543065602000019MadMadMornings Block Open                                                                                                   150                                
PGRFAMCHA051202065602071856002254Disney's Kim Possible                             EPS # 1-041                                                         A6068607E                                
PROFAMCHA051202071856071910000014MMM - 02 (AM) - RECESS/WEEKENDERS/LILO (OCT05) (:1                                                                          150                                
PROFAMCHA051202071910071940000030Dullmark Holiday WKND Specials - Dec 10 & 11 @ 12p                                                                          150                                
PROFAMCHA051202071940072000000020Recess - Kindergarten (MD/AM) - (SEP05) - Coming U                                                                          150                                
PROFAMCHA051202072000072042000042Sky High DVD Blast                                                                                                    A     150                                
PROFAMCHA051202072042072136000054Weekenders - B-Ball (MD/AM) - (SEP05) - Today @ 7:                                                                          150                                
PROFAMCHA051202072136072204000028Lilo & Stitch (MD) (SEP05) - Today @ 8:15am                                                                                 150                                
PROFAMCHA051202072204072244000040Kronk's New Groove Blast - Nov 17 - Dec 11                                                                            A     150                                
PROFAMCHA051202072244072256000012Mad Dash - RECESS - Sprinkler                                                                                               150                                
PRCFAMCHA051202072256072336000040Family Hits Take 2 CD (Oct 24 - Dec 9) (3x, daily                                                                           150                                
PRCFAMCHA051202072336072342000006Family Bumpers - Reptile Pet - Monkey (MD/NS/NSW)                                                                           150                                
ID FAMCHA051202072342072401000019MadMadMornings Block Open                                                                                                   150                                
PGRFAMCHA051202072401074637002236Disney's Recess                                   EP: 1-012                                                            6068607E                                
PRCFAMCHA051202074637074642000005Astral ID (FEB05)                                                                                                           150                                
PROFAMCHA051202074642074657000015MMM - 03 (AM) - WEEKENDERS/LILO/WINNIE (OCT05) (:1                                                                          150                                
PROFAMCHA051202074657074747000050Dullmark Stunt Promo - All Month Long                                                                                       150                                
PROFAMCHA051202074747074841000054Weekenders - B-Ball (MD/AM) - (SEP05) - Coming Up                                                                           150                                
PROFAMCHA051202074841074921000040Kronk's New Groove Blast - Nov 17 - Dec 11                                                                            A     150                                
PROFAMCHA051202074921074949000028Lilo & Stitch (MD) (SEP05) - Today @ 8:15am                                                                                 150                                
PRCFAMCHA051202074949075028000039Mad Dash - WEEKENDERS - Arrival                                                                                             150                                
PRCFAMCHA051202075028075037000009xxFamily Bumpers - (Phase 3 Spring 05) - Hip Hop (                                                                          150                                
ID FAMCHA051202075037075056000019MadMadMornings Block Open                                                                                                   150                                
PROFAMCHA051202075056075105000009CC Disclaimer - FAST - Family.ca (:08-:10)                                                                                  150                                
PGRFAMCHA051202075105081343002238Disney's The Weekenders                           EP: 1-035                                                           A6068607ECC                              
PROFAMCHA051202081343081413000030Dullmark PP XMAS Movies - Tonight @ 7:30pm                                                                                  150                                
PROFAMCHA051202081413081440000027Lilo & Stitch (MD) (SEP05) - Coming Up Next                                                                                 150                                
PRCFAMCHA051202081440081525000045Famous Players Popcorn Parties (1x)                                                                                         150                                
PROFAMCHA051202081525081552000027Aladdin (Love Clip) - Today @ 12:35pm                                                                                       150                                
PRCFAMCHA051202081552081630000038Mad Dash - LIZZIE MCGUIRE - Breakfast                                                                                       150                                
PROFAMCHA051202081630081653000023Dave the Barbarian - DANCE (MD) (SEP05) - Today @                                                                           150                                
PROFAMCHA051202081653081723000030One Small Hero (WDP) - Sunday @ 1:30pm                                                                                      150                                
PRCFAMCHA051202081723081732000009xxFamily Bumpers - (Phase 3 Spring 05) - Giant Foo                                                                          150                                
ID FAMCHA051202081732081751000019MadMadMornings Block Open                                                                                                   150                                
PGRFAMCHA051202081751084030002239Disney's Lilo & Stitch: The Series                EP: 62                                                               6068607E                                
PRCFAMCHA051202084030084035000005Astral ID (FEB05)                                                                                                           150                                
PROFAMCHA051202084035084105000030New MacDonald's Farm (PH) (SEP05) - Today @ 9:35am                                                                          150                                
PROFAMCHA051202084105084138000033Princess Block - Be A Princess (Royal Treatment) -                                                                          150                                
INTFAMCHA051202084138084323000145They Might Be Giants (ABC's) - Flying V                                                                                60688120                                
PROFAMCHA051202084323084342000019Henry's World (SEP05) - Today @ 11am                                                                                        150                                
PRCFAMCHA051202084342084413000031King (PH) (SEP05) - Today @ 11:25am                                                                                         150                                
PRCFAMCHA051202084413084421000008Buzz On Maggie (HEEL CLICK) (MD-FRI) (NOV05) - Tod                                                                          150                                
PRCFAMCHA051202084421084433000012Family Bumpers - (Phase 1 Spring 04) - Funhouse (P                                                                          150                                
ID FAMCHA051202084433084443000010PS Playhouse AM Block Open (:10-:15)                                                                                        150                                
PGRFAMCHA051202084443093316004833Jack Frost                                                                                                            A2068807E                                
PROFAMCHA051202093316093331000015PH - 08 (M/W/F) - MACDONALD/BELLE/PB&J (SEP05) (:1                                                                          150                                
PRCFAMCHA051202093331093341000010Dullmark Moment - Special Presentation BBD                                                                                  150                                
PROFAMCHA051202093341093411000030New MacDonald's Farm (PH) (SEP05) - Coming Up Next                                                                          150                                
PROFAMCHA051202093411093456000045Princess Block - Be A Princess (Frog Prince) - Tod                                                                          150                                
PRCFAMCHA051202093456093529000033Playhouse - HOUSE OF MOUSE - Someone's Watching                                                                             150                                
PROFAMCHA051202093529093548000019Henry's World (SEP05) - Today @ 11am                                                                                        150                                
ID FAMCHA051202093548093600000012PS Playhouse AM Block Open (:10-:15)                                                                                        150                                
PGRFAMCHA051202093600100510002910New MacDonald's Farm                              EP: 22                                                               7068607E                                
PRCFAMCHA051202100510100515000005Astral ID (FEB05)                                                                                                           150                                
PROFAMCHA051202100515100530000015PH - 09 (M/W/F) - BELLE/PB&J/HENRY (SEP05) (:14 -                                                                           150                                
PROFAMCHA051202100530100615000045Princess Block - Be A Princess (Frog Prince) - Com                                                                          150                                
ID FAMCHA051202100615100630000015Franny's Feet Web BBD - Part of Playhouse @ family                                                                          150                                
PROFAMCHA051202100630100649000019Henry's World (SEP05) - Today @ 11am                                                                                        150                                
PRCFAMCHA051202100649100724000035Playhouse - KATIE & ORBIE - Did You Know?                                                                                   150                                
PRCFAMCHA051202100724100736000012Benjamin Bear - Slide (PH-WKND) (SEP05) - Tomorrow                                                                          150                                
ID FAMCHA051202100736100749000013PS Playhouse AM Block Open (:10-:15)                                                                                        150                                
ID FAMCHA051202100749100757000008Magic of Disney - PLAYHOUSE - Shape (:06-:09)                                                                               150                                
PGRFAMCHA051202100757103101002304Disney's Sing Me A Story With Belle               EP: 14                                                               6068607G                                
PROFAMCHA051202103101103115000014PH - 10 - PB&J/HENRY/KING (SEP05) (:14 - 16)                                                                                150                                
PROFAMCHA051202103115103134000019Henry's World (SEP05) - Today @ 11am                                                                                        150                                
INTFAMCHA051202103134103309000135They Might Be Giants (ABC's) - Letter Shapes                                                                           60688120                                
PRCFAMCHA051202103309103340000031King (PH) (SEP05) - Today @ 11:25am                                                                                         150                                
PRCFAMCHA051202103340103352000012Benjamin Bear - Slide (PH-WKND) (SEP05) - Tomorrow                                                                          150                                
ID FAMCHA051202103352103402000010PS Playhouse AM Block Open (:10-:15)                                                                                        150                                
PROFAMCHA051202103402103411000009CC Disclaimer - FAST - Family.ca (:08-:10)                                                                                  150                                
