SO FAMCHA091001043000043011000011Sign On (oct 1)                                                                                                                                                
PRCFAMCHA091001043011043020000009CC Disclaimer - FAST - Family.ca (:09-:10)                                                                                  150                                
PGRFAMCHA091001043020045658002638Katie And Orbie                                   EP: 6-077                                                     B62280A1065607ECC                              
PRCFAMCHA091001045658045704000006Astral ID - Family Jr. Version (MAR 2009)                                                                                   150                                
PROFAMCHA091001045704045724000020PH-D - Show Throw - CAN Franny's Feet #2- Ooh & Aa                                                                          150                                
PROFAMCHA091001045724045734000010PH-D EOB ID - Bubbles - Happiness (Sept09)                                                                                  150                                
PRCFAMCHA091001045734045743000009CC Disclaimer - FAST - Generic (:09-:10)                                                                                    150                                
PGRFAMCHA091001045743052013002230Franny's Feet                                     EPS # 32                                                      C23971 1065607ECC                              
PROFAMCHA091001052013052033000020PH-D - Show Throw - CAN Benjamin Bear #2-  Ooh & A                                                                          150                                
PROFAMCHA091001052033052043000010PH-D EOB ID - Kaleidoscope # 02 (Sept09)                                                                                    150                                
PRCFAMCHA091001052043052053000010CC Disclaimer - FAST - Family.ca (:09-:10)                                                                                  150                                
PGRFAMCHA091001052053054323002230Secret World of Benjamin Bear, The                EP: 14                                                        C26066 1065607ECC                              
PRCFAMCHA091001054323054329000006Astral ID - Family Jr. Version (MAR 2009)                                                                                   150                                
PROFAMCHA091001054329054344000015PH-D Short Throw -Generic #1 (Something Special Co                                                                          150                                
PROFAMCHA091001054344054354000010PH-D EOB ID - Beach (Sept09)                                                                                                150                                
PRCFAMCHA091001054354054404000010CC Disclaimer - FAST - Generic (:09-:10)                                                                                    150                                
PGRFAMCHA091001054404060642002238Hoze Houndz                                       EPS # 6-077                                                   C22818A1065607ECC                              
PROFAMCHA091001060642060657000015PH-D - Show Throw - CAN Henry's World #1- Ooh & Aa                                                                          150                                
PROFAMCHA091001060657060707000010PH-D EOB ID - Bouncy Flex (Sept09)                                                                                          150                                
PRCFAMCHA091001060707060717000010CC Disclaimer - FAST - Family.ca (:09-:10)                                                                                  150                                
PGRFAMCHA091001060717063118002401Henry's World                                     EP: 2-015                                                     B81046A1065607GCC                              
PRCFAMCHA091001063118063124000006Astral ID - Family Jr. Version (MAR 2009)                                                                                   150                                
PROFAMCHA091001063124063139000015PH-D - Show Throw - CAN Franny's Feet #1- Ooh & Aa                                                                          150                                
PROFAMCHA091001063139063149000010PH-D EOB ID - Kaleidoscope # 06 (Sept09)                                                                                    150                                
PRCFAMCHA091001063149063158000009CC Disclaimer - FAST - Generic (:09-:10)                                                                                    150                                
PGRFAMCHA091001063158065429002231Franny's Feet                                     EPS # 27                                                      C23971 1065607ECC                              
PROFAMCHA091001065429065504000035PH-D - Strawberry Shortcake Sneak Peek - Starting                                                                           150                                
PROFAMCHA091001065504065519000015PH-D Short Throw - Happy Monster #1- Ooh & Aah (Se                                                                          150                                
PROFAMCHA091001065519065719000200PH-D Short - Happy Monster Band - 05 - Do-Re-Me-Me                                                                          150                                
PROFAMCHA091001065719065749000030Imagination Movers - PH-D - Generic - This Morning                                                                          150                                
PGRFAMCHA091001065749065849000100MV Disney - (MD/NS/NSW) - Jesse McCartney - Just S                                                                     60688120                                
PROFAMCHA091001065849065904000015Handy Manny - (Episodic 224) -"Home Sweet Home"-Ne                                                                          150                                
PROFAMCHA091001065904065919000015PH-D - Show Throw - Mickey Mouse Clubhouse #3 - Oo                                                                          150                                
PROFAMCHA091001065919070003000044Thanksgiving - HM Motorcycle Adventure - Starts Oc                                                                          150                                
PROFAMCHA091001070003070013000010PH-D EOB ID - Bubbles - Laughter (Sept09)                                                                                   150                                
PRCFAMCHA091001070013070023000010CC Disclaimer - FAST - Family.ca (:09-:10)                                                                                  150                                
PGRFAMCHA091001070023072425002402Disney's Mickey Mouse Clubhouse                   EP: 03                                                               6068607ECC                              
PRCFAMCHA091001072425072431000006Astral ID - Family Jr. Version (MAR 2009)                                                                                   150                                
PROFAMCHA091001072431072446000015Handy Manny - (Episodic 224) -"Home Sweet Home"-Ne                                                                          150                                
PROFAMCHA091001072446072501000015PH-D - Show Throw - Mickey Mouse Clubhouse #4 - Oo                                                                          150                                
PROFAMCHA091001072501072511000010PH-D EOB ID - City - Boy Version (Sept09)                                                                                   150                                
PRCFAMCHA091001072511072521000010CC Disclaimer - FAST - Generic (:09-:10)                                                                                    150                                
PGRFAMCHA091001072521074927002406Disney's Mickey Mouse Clubhouse                   EP: 22                                                               6068607ECC                              
PROFAMCHA091001074927074957000030PH-D Promo - Ooh & Aah.Ca Throw 08 - PH-D.CA (Sept                                                                          150                                
PROFAMCHA091001074957075027000030Tigger and Pooh - PH-D - Darby Sell # 2 - This Mor                                                                          150                                
PROFAMCHA091001075027075045000018MMCH - (Episodic 224) - "Captain Donald" - New Eps                                                                          150                                
PROFAMCHA091001075045075100000015PH-D - Show Throw - Handy Manny #3 - Ooh & Aah (Se                                                                          150                                
PROFAMCHA091001075100075110000010PH-D EOB ID - City - Girl Version (Sept09)                                                                                  150                                
PRCFAMCHA091001075110075120000010CC Disclaimer - FAST - Family.ca (:09-:10)                                                                                  150                                
PGRFAMCHA091001075120081525002405Handy Manny                                       EP: 26                                                               6068607ECC                              
PRCFAMCHA091001081525081531000006Astral ID - Family Jr. Version (MAR 2009)                                                                                   150                                
PROFAMCHA091001081531081616000045PH-D Promo More MMCH/Handy Manny on PH-D - Every M                                                                          150                                
PROFAMCHA091001081616081646000030Imagination Movers - PH-D - Generic - This Morning                                                                          150                                
PROFAMCHA091001081646081716000030Tigger and Pooh - PH-D - Darby Sell # 2 - This Mor                                                                          150                                
PROFAMCHA091001081716081731000015PH-D - Show Throw - Handy Manny #4 - Ooh & Aah (Se                                                                          150                                
PROFAMCHA091001081731081806000035PH-D - Strawberry Shortcake Sneak Peek - Starting                                                                           150                                
PROFAMCHA091001081806081816000010PH-D EOB ID - Farm (Sept09)                                                                                                 150                                
PRCFAMCHA091001081816081826000010CC Disclaimer - FAST - Generic (:09-:10)                                                                                    150                                
PGRFAMCHA091001081826084231002405Handy Manny                                       EP: 25                                                               6068607ECC                              
PROFAMCHA091001084231084301000030Thanksgiving Stunt - Tarzan/HM - Starts Oct 12 @ 5                                                                          150                                
PROFAMCHA091001084301084331000030Tigger and Pooh - PH-D - Darby Sell # 2 - This Mor                                                                          150                                
PROFAMCHA091001084331084346000015Handy Manny - (Episodic 224) -"Home Sweet Home"-Ne                                                                          150                                
PROFAMCHA091001084346084404000018MMCH - (Episodic 224) - "Captain Donald" - New Eps                                                                          150                                
PROFAMCHA091001084404084434000030PH-D - Show Throw - Imagination Movers #3- Ooh & A                                                                          150                                
PROFAMCHA091001084434084444000010PH-D EOB ID - Field (Sept09)                                                                                                150                                
PRCFAMCHA091001084444084454000010CC Disclaimer - FAST - Family.ca (:09-:10)                                                                                  150                                
PGRFAMCHA091001084454090855002401Disney Imagination Movers                         EP: 25                                                               6068607ACC                              
PRCFAMCHA091001090855090901000006Astral ID - Family Jr. Version (MAR 2009)                                                                                   150                                
PROFAMCHA091001090901090931000030Tigger and Pooh - PH-D - Darby Sell # 2 - This Mor                                                                          150                                
PROFAMCHA091001090931091001000030Handy Manny - PH-D - Hop Jump 30 - This Morning @                                                                           150                                
PROFAMCHA091001091001091031000030Imagination Movers - PH-D - Generic - Tomorrow Mor                                                                          150                                
PROFAMCHA091001091031091049000018MMCH - (Episodic 224) - "Captain Donald" - New Eps                                                                          150                                
PROFAMCHA091001091049091109000020PH-D - Show Throw - CAN Franny's Feet #2- Ooh & Aa                                                                          150                                
PROFAMCHA091001091109091119000010PH-D EOB ID - Jungle (Sept09)                                                                                               150                                
PRCFAMCHA091001091119091129000010CC Disclaimer - FAST - Generic (:09-:10)                                                                                    150                                
PGRFAMCHA091001091129093359002230Franny's Feet                                     EPS # 17                                                      C23971 1065607ECC                              
PROFAMCHA091001093359093434000035PH-D - Strawberry Shortcake Sneak Peek - Starting                                                                           150                                
PROFAMCHA091001093434093514000040Hasbro                                                                                                                      150                                
PROFAMCHA091001093514093545000031Mickey Mouse Clubhouse - PH-D -  Generic 31 - This                                                                          150                                
PROFAMCHA091001093545093615000030Imagination Movers - PH-D - Generic - Tomorrow Mor                                                                          150                                
PROFAMCHA091001093615093630000015Handy Manny - (Episodic 224) -"Home Sweet Home"-Ne                                                                          150                                
PROFAMCHA091001093630093645000015PH-D - Show Throw - My Friends Tigger & Pooh #3 -                                                                           150                                
PROFAMCHA091001093645093655000010PH-D EOB ID - Sky (Sept09)                                                                                                  150                                
PRCFAMCHA091001093655093705000010CC Disclaimer - FAST - Family.ca (:09-:10)                                                                                  150                                
PGRFAMCHA091001093705100107002402Disney My Friends Tigger and Pooh                 EP: 11                                                               6068607ECC                              
PRCFAMCHA091001100107100113000006Astral ID - Family Jr. Version (MAR 2009)                                                                                   150                                
PROFAMCHA091001100113100143000030PH-D Promo - Ooh & Aah.Ca Throw 08 - PH-D.CA (Sept                                                                          150                                
PROFAMCHA091001100143100227000044Thanksgiving - HM Motorcycle Adventure - Starts Oc                                                                          150                                
PROFAMCHA091001100227100307000040Hasbro                                                                                                                      150                                
PROFAMCHA091001100307100322000015Handy Manny - PH-D - Hop Jump 15 - This Morning @                                                                           150                                
PROFAMCHA091001100322100352000030Tigger and Pooh - PH-D - Darby Sell # 2 - New Ep T                                                                          150                                
PROFAMCHA091001100352100407000015PH-D - Show Throw - Mickey Mouse Clubhouse #5 - Oo                                                                          150                                
PROFAMCHA091001100407100417000010PH-D EOB ID - Marina (Sept09)                                                                                               150                                
PRCFAMCHA091001100417100427000010CC Disclaimer - FAST - Generic (:09-:10)                                                                                    150                                
PGRFAMCHA091001100427102827002400Disney's Mickey Mouse Clubhouse                   EP: 14                                                               6068607ECC                              
PROFAMCHA091001102827102902000035PH-D - Strawberry Shortcake Sneak Peek - Starting                                                                           150                                
PROFAMCHA091001102902102920000018MMCH - (Episodic 224) - "Captain Donald" - New Eps                                                                          150                                
PROFAMCHA091001102920102950000030PH-D - Show Throw - Handy Manny #5 - Ooh & Aah (Se                                                                          150                                
PRCFAMCHA091001102950103015000025PH-D Promo - Ooh & Ahh PH-D Throw 2009 - Call Your                                                                          150                                
PROFAMCHA091001103015103025000010PH-D EOB ID - Undersea (Sept09)                                                                                             150                                
PRCFAMCHA091001103025103035000010CC Disclaimer - FAST - Family.ca (:09-:10)                                                                                  150                                
PGRFAMCHA091001103035105434002359Handy Manny                                       EP: 22                                                               6068607ECC                              
PRCFAMCHA091001105434105440000006Astral ID - Family Jr. Version (MAR 2009)                                                                                   150                                
PROFAMCHA091001105440105555000115Halloween Contest Full  - Sept 25-Oct 18 (4x a day                                                                          150                                
PROFAMCHA091001105555105641000046Phineas & Ferb (MD) INSIDE - Coming Up Next (MAY09                                                                          150                                
PRCFAMCHA091001105641105720000039Really Big Birthdays - December - 3-4 X Day (Octob                                                                          150                                
PRCFAMCHA091001105720105730000010CC Disclaimer - FAST - Generic (:09-:10)                                                                                    150                                
PGRFAMCHA091001105730105826000056Disney Phineas & Ferb                             EP: 14                                                               6068607ECC                              
PGRFAMCHA091001105826110927001101Disney Phineas & Ferb                             EP: 14                                                               6068607ECC                              
PGRFAMCHA091001110927111929001002Disney Phineas & Ferb                             EP: 14                                                               6068607ECC                              
PGRFAMCHA091001111929111959000030Disney Phineas & Ferb                             EP: 14                                                               6068607ECC                              
PROFAMCHA091001111959112029000030Thanksgiving Stunt - Tarzan/HM - Starts Oct 12 @ 5                                                                          150                                
PROFAMCHA091001112029112058000029Kim Possible BAKING CLIP (MD) This Afternoon @ 12:                                                                          150                                
PROFAMCHA091001112058112131000033Weekenders - TINO (MD) This Afternoon @ 12:40pm (N                                                                          150                                
PROFAMCHA091001112131112217000046Phineas & Ferb (MD) INSIDE - NEW EPS Tomorrow Afte                                                                          150                                
PRCFAMCHA091001112217112332000115Movie Entertainment (8)                                                                                                     150                                
PROFAMCHA091001112332112404000032Suite Life of Z & C (MD) Wonderful Hotel - Coming                                                                           150                                
PROFAMCHA091001112404112453000049Roxy Hunter - Horrific Halloween - Premieres Tomor                                                                          150                                
PRCFAMCHA091001112453112502000009MD Bumper - Race Cars (:08-:10) JUNE06                                                                                      150                                
ID FAMCHA091001112502112511000009Magic of Disney - MAD DASH - Shape (:06-:09)                                                                                150                                
PRCFAMCHA091001112511112520000009CC Disclaimer - FAST - Generic (:09-:10)                                                                                    150                                
PGRFAMCHA091001112520112636000116Suite Life of Zack & Cody, The                    EP: 14                                                               6068607BCC                              
PGRFAMCHA091001112636113723001047Suite Life of Zack & Cody, The                    EP: 14                                                               6068607BCC                              
PGRFAMCHA091001113723114538000815Suite Life of Zack & Cody, The                    EP: 14                                                               6068607BCC                              
PGRFAMCHA091001114538114757000219Suite Life of Zack & Cody, The                    EP: 14                                                               6068607BCC                              
PRCFAMCHA091001114757114803000006Astral ID (FEB 2009)                                                                                                        150                                
PRCFAMCHA091001114803114815000012MD - 01 - RECESS/KIM (:11 - :13) (JULY08)                                                                                   150                                
PROFAMCHA091001114815114849000034Recess - HEROES (MD) - (APR06) - Coming Up Next                                                                             150                                
PRCFAMCHA091001114849114906000017MD Bumper - Shopping Race (:15-:17) APR06                                                                                   150                                
PRCFAMCHA091001114906114916000010CC Disclaimer - FAST - Generic (:09-:10)                                                                                    150                                
PGRFAMCHA091001114916121152002236Disney's Recess                                   EP: 1-046                                                            6068607ECC                              
PRCFAMCHA091001121152121205000013MD - 02 - KIM/WEEKENDERS (:11 - :13) (JULY08)                                                                               150                                
PROFAMCHA091001121205121254000049Roxy Hunter - Horrific Halloween - Premieres Tomor                                                                          150                                
PROFAMCHA091001121254121329000035BAW - Stand Up With Nico - Post (Sept 26-Nov 19 20                                                                          150                                
PROFAMCHA091001121329121358000029Kim Possible BAKING CLIP (MD) Coming Up Next (JULY                                                                          150                                
PRCFAMCHA091001121358121407000009CC Disclaimer - FAST - Family.ca (:09-:10)                                                                                  150                                
PGRFAMCHA091001121407123701002254Disney's Kim Possible                             EP: 07                                                               6068607ECC                              
PRCFAMCHA091001123701123707000006Astral ID (FEB 2009)                                                                                                        150                                
PRCFAMCHA091001123707123719000012MD - 03 - WEEKENDERS/AMERICAN DRAGON (:11 - :13) (                                                                          150                                
PRCFAMCHA091001123719123749000030Family Kicks Event Spot - 4 Per Day (July 11 - Oct                                                                          150                                
PROFAMCHA091001123749123819000030Emperor's New School (MD) Potions - This Afternoon                                                                          150                                
PROFAMCHA091001123819123849000030Weekenders - TISH (MD) Coming Up Next (NOV08)                                                                               150                                
PRCFAMCHA091001123849123859000010MD Bumper - Race Cars (:08-:10) JUNE06                                                                                      150                                
PRCFAMCHA091001123859123908000009CC Disclaimer - FAST - Generic (:09-:10)                                                                                    150                                
PGRFAMCHA091001123908130140002232Disney's The Weekenders                           EP: 1-021                                                           A6068607ECC                              
PRCFAMCHA091001130140130152000012MD - 04 - AMERICAN DRAGON/EMPERORS'S (:11 - :13) (                                                                          150                                
PROFAMCHA091001130152130241000049Roxy Hunter - Horrific Halloween - Premieres Tomor                                                                          150                                
PROFAMCHA091001130241130304000023Fillmore (MD) POLLY - This Afternoon @ 1:55pm (JUN                                                                          150                                
PROFAMCHA091001130304130334000030PH-D Out Of Block - Handy Manny Helping Friends -                                                                           150                                
PROFAMCHA091001130334130348000014American Dragon Jake Long (MD) JAKE - Coming Up Ne                                                                          150                                
PRCFAMCHA091001130348130403000015MD Bumper - Shopping Race (:15-:17) APR06                                                                                   150                                
PRCFAMCHA091001130403130412000009CC Disclaimer - FAST - Family.ca (:09-:10)                                                                                  150                                
PGRFAMCHA091001130412132648002236Disney's American Dragon: Jake Long               EP: 35                                                               6068607ECC                              
PRCFAMCHA091001132648132654000006Astral ID (FEB 2009)                                                                                                        150                                
PRCFAMCHA091001132654132706000012MD - 05 - EMPEROR'S/FILLMORE (:11 - :13) (JULY08)                                                                           150                                
PROFAMCHA091001132706132757000051Halloween Contest Cutdown  - Sept 25-Oct 18 (4x a                                                                           150                                
PROFAMCHA091001132757132811000014Emperor's New School (MD) 101 - Coming Up Next (JU                                                                          150                                
PROFAMCHA091001132811132845000034Family.ca - Check Out New Games at Family.ca (Oct                                                                           150                                
PRCFAMCHA091001132845132852000007MD Bumper - Ski Race (:07-:09) APR06                                                                                        150                                
PRCFAMCHA091001132852132901000009CC Disclaimer - FAST - Generic (:09-:10)                                                                                    150                                
PGRFAMCHA091001132901135137002236Disney's The Emperor's New School                 EP: 14                                                               6068807ECC                              
PRCFAMCHA091001135137135149000012MD - 06 - FILLMORE/WEEKENDERS (:11 - :13) (JULY08)                                                                          150                                
PROFAMCHA091001135149135219000030Thanksgiving Stunt - Tarzan/HM - Starts Oct 12 @ 5                                                                          150                                
PROFAMCHA091001135219135306000047Kim Possible MISSION (MD) This Afternoon @ 2:45pm                                                                           150                                
PROFAMCHA091001135306135336000030PH-D Out Of Block - MMCH Generic 31 - Every Mornin                                                                          150                                
PROFAMCHA091001135336135359000023Fillmore (MD) POLLY - Coming Up Next (JUNE09)                                                                               150                                
PRCFAMCHA091001135359135408000009MD Bumper - Race Cars (:08-:10) JUNE06                                                                                      150                                
PRCFAMCHA091001135408135417000009CC Disclaimer - FAST - Family.ca (:09-:10)                                                                                  150                                
PGRFAMCHA091001135417141655002238Disney's Fillmore!                                EPS # 1-022                                                          6068607ECC                              
PRCFAMCHA091001141655141701000006Astral ID (FEB 2009)                                                                                                        150                                
PRCFAMCHA091001141701141713000012MD - 07 - WEEKENDERS/KIM (:11 - :13) (JULY08)                                                                               150                                
PRCFAMCHA091001141713141752000039Really Big Birthdays - December - 3-4 X Day (Octob                                                                          150                                
PROFAMCHA091001141752141807000015Halloween Knights - Sir Loin - Bumper (Oct 1-31)                                                                            150                                
PROFAMCHA091001141807141840000033Weekenders - TINO (MD) Coming Up Next (NOV08)                                                                               150                                
PRCFAMCHA091001141840141857000017MD Bumper - Shopping Race (:15-:17) APR06                                                                                   150                                
PRCFAMCHA091001141857141906000009CC Disclaimer - FAST - Family.ca (:09-:10)                                                                                  150                                
PGRFAMCHA091001141906144159002253Disney's The Weekenders                           EP: 1-006                                                           A6068607ECC                              
PRCFAMCHA091001144159144211000012MD - 08 - KIM/REPLACEMENTS (:11 - :13) (JULY08)                                                                             150                                
PROFAMCHA091001144211144240000029Replacements (MD) BABYSITTER - This Afternoon @ 3:                                                                          150                                
PROFAMCHA091001144240144310000030Emperor's New School (MD) Potions - This Afternoon                                                                          150                                
PROFAMCHA091001144310144340000030PH-D Out Of Block - Handy Manny Help Friends-Wkday                                                                          150                                
PROFAMCHA091001144340144355000015Kim Possible BOYFRIEND (MD) Coming Up Next (JULY08                                                                          150                                
PRCFAMCHA091001144355144403000008MD Bumper - Ski Race (:07-:09) APR06                                                                                        150                                
PRCFAMCHA091001144403144412000009CC Disclaimer - FAST - Generic (:09-:10)                                                                                    150                                
PGRFAMCHA091001144412150703002251Disney's Kim Possible                             EP: 16                                                               6068607ECC                              
PRCFAMCHA091001150703150709000006Astral ID (FEB 2009)                                                                                                        150                                
PRCFAMCHA091001150709150721000012MD - 09 - REPLACEMENTS/EMPEROR (:11 - :13) (JULY08                                                                          150                                
PROFAMCHA091001150721150810000049Roxy Hunter - Horrific Halloween - Premieres Tomor                                                                          150                                
PROFAMCHA091001150810150855000045Kellogg's                                                                                                                   150                                
PROFAMCHA091001150855150909000014Emperor's New School (MD) 101 - This Afternoon @ 3                                                                          150                                
PROFAMCHA091001150909150954000045Ubisoft                                                                                                                     150                                
PROFAMCHA091001150954151020000026Recess - CAREER DAY (MD) - This Afternoon @ 4:10pm                                                                          150                                
PROFAMCHA091001151020151049000029Phineas & Ferb (MD) FREAK OUT - This Afternoon @ 4                                                                          150                                
PROFAMCHA091001151049151134000045Walt Disney Studios Home Entertainment                                                                                      150                                
PROFAMCHA091001151134151151000017Replacements (MD) SHAKE IT - Coming Up Next (JUNE0                                                                          150                                
PRCFAMCHA091001151151151200000009MD Bumper - Race Cars (:08-:10) JUNE06                                                                                      150                                
PRCFAMCHA091001151200151209000009CC Disclaimer - FAST - Family.ca (:09-:10)                                                                                  150                                
PGRFAMCHA091001151209153439002230The Replacements                                  EP: 11                                                               6068607ECC                              
PRCFAMCHA091001153439153450000011MD - 10 - EMPEROR 3:40/RECESS 4:10 (:11 - :13) (JA                                                                          150                                
PRCFAMCHA091001153450153520000030Family Kicks Event Spot - 4 Per Day (July 11 - Oct                                                                          150                                
PROFAMCHA091001153520153605000045Universal Music                                                                                                             150                                
PROFAMCHA091001153605153623000018Phineas & Ferb (MD) Candace Tease - This Afternoon                                                                          150                                
PROFAMCHA091001153623153703000040Kellogg's                                                                                                                   150                                
PROFAMCHA091001153703153735000032Suite Life of Z & C (MD) IMPRESS - This Afternoon                                                                           150                                
PROFAMCHA091001153735153805000030Emperor's New School (MD) Potions - Coming Up Next                                                                          150                                
PROFAMCHA091001153805153845000040Paramount Home Entertainment                                                                                                150                                
PROFAMCHA091001153845153936000051Halloween Contest Cutdown  - Sept 25-Oct 18 (4x a                                                                           150                                
PRCFAMCHA091001153936153951000015MD Bumper - Shopping Race (:15-:17) APR06                                                                                   150                                
PRCFAMCHA091001153951154000000009CC Disclaimer - FAST - Generic (:09-:10)                                                                                    150                                
PGRFAMCHA091001154000160236002236Disney's The Emperor's New School                 EP: 14                                                               6068807ECC                              
PRCFAMCHA091001160236160242000006Astral ID (FEB 2009)                                                                                                        150                                
PRCFAMCHA091001160242160255000013MD - 11 - RECESS 4:10/PHINEAS 4:35 (:11 - :13) (JA                                                                          150                                
PROFAMCHA091001160255160325000030Thanksgiving Stunt - Tarzan/HM - Starts Oct 12 @ 5                                                                          150                                
PROFAMCHA091001160325160405000040Hasbro                                                                                                                      150                                
PROFAMCHA091001160405160423000018Phineas & Ferb (MD) Candace Tease - This Afternoon                                                                          150                                
PROFAMCHA091001160423160503000040Walt Disney Pictures                                                                                                        150                                
PROFAMCHA091001160503160534000031Suite Life of Z & C (MD) TONY HAWK - This Afternoo                                                                          150                                
PROFAMCHA091001160534160547000013Family Bumpers - (Phase 2 F/W 04) - Leaves (NS/NSW                                                                          150                                
PROFAMCHA091001160547160650000103Hannah Montana (MD) Mockumentary - This Afternoon                                                                           150                                
PROFAMCHA091001160650160730000040Kellogg's                                                                                                                   150                                
PROFAMCHA091001160730160745000015Recess - TIME FOR RECESS (MD) - Coming Up Next (JU                                                                          150                                
PRCFAMCHA091001160745160754000009MD Bumper - Ski Race (:07-:09) APR06                                                                                        150                                
PRCFAMCHA091001160754160803000009CC Disclaimer - FAST - Family.ca (:09-:10)                                                                                  150                                
PGRFAMCHA091001160803163037002234Disney's Recess                                   EP: 1-010                                                            6068607ECC                              
PRCFAMCHA091001163037163049000012MD - 12 - PHINEAS 4:35/ SUITE LIFE OF Z & C 5:05 (                                                                          150                                
PROFAMCHA091001163049163123000034Family.ca - Check Out New Games at Family.ca (Oct                                                                           150                                
PROFAMCHA091001163123163203000040Universal Music                                                                                                             150                                
PROFAMCHA091001163203163235000032Suite Life of Z & C (MD) RHYMING - This Afternoon                                                                           150                                
PROFAMCHA091001163235163325000050The Walt Disney Company                                                                                                     150                                
PROFAMCHA091001163325163406000041Hannah Montana (MD) Everywhere - This Afternoon @                                                                           150                                
PROFAMCHA091001163406163424000018Phineas & Ferb (MD) Candace Tease - Coming Up Next                                                                          150                                
PROFAMCHA091001163424163509000045Ubisoft                                                                                                                     150                                
PRCFAMCHA091001163509163548000039Really Big Birthdays - December - 3-4 X Day (Octob                                                                          150                                
PRCFAMCHA091001163548163558000010MD Bumper - Race Cars (:08-:10) JUNE06                                                                                      150                                
PRCFAMCHA091001163558163607000009CC Disclaimer - FAST - Generic (:09-:10)                                                                                    150                                
PGRFAMCHA091001163607163703000056Disney Phineas & Ferb                             EP: 01                                                               6068607ECC                              
PGRFAMCHA091001163703164921001218Disney Phineas & Ferb                             EP: 01                                                               6068607ECC                              
PGRFAMCHA091001164921165807000846Disney Phineas & Ferb                             EP: 01                                                               6068607ECC                              
PGRFAMCHA091001165807165837000030Disney Phineas & Ferb                             EP: 01                                                               6068607ECC                              
PRCFAMCHA091001165837165843000006Astral ID (FEB 2009)                                                                                                        150                                
PRCFAMCHA091001165843165855000012MD - 13 - SUITE LIFE/HANNAH (:11 - :13) (JULY08)                                                                            150                                
PROFAMCHA091001165855165925000030Thanksgiving Stunt - Tarzan/HM - Starts Oct 12 @ 5                                                                          150                                
PROFAMCHA091001165925170010000045Walt Disney Studios Home Entertainment                                                                                      150                                
PROFAMCHA091001170010170039000029Hannah Montana (MD) Science - This Afternoon @ 5:3                                                                          150                                
PROFAMCHA091001170039170104000025Zoey 101 - BOOTH (NS) Tonight @ 6pm (SEPT08)                                                                                150                                
PROFAMCHA091001170104170150000046Phineas & Ferb (MD) INSIDE - NEW EPS Tomorrow Afte                                                                          150                                
PROFAMCHA091001170150170221000031Suite Life of Z & C (MD) TONY HAWK - Coming Up Nex                                                                          150                                
PROFAMCHA091001170221170306000045Kellogg's                                                                                                                   150                                
PRCFAMCHA091001170306170344000038FOD - Family On Demand - Generic - Check you local                                                                          150                                
PRCFAMCHA091001170344170400000016MD Bumper - Shopping Race (:15-:17) APR06                                                                                   150                                
ID FAMCHA091001170400170406000006Magic of Disney - MAD DASH - Shape (:06-:09)                                                                                150                                
PRCFAMCHA091001170406170415000009CC Disclaimer - FAST - Family.ca (:09-:10)                                                                                  150                                
PGRFAMCHA091001170415172715002300Suite Life of Zack & Cody, The                    EP: 64                                                               6068607BCC                              
PRCFAMCHA091001172715172727000012MD - 14 - HANNAH/ZOEY (:11 - :13) (JULY08)                                                                                  150                                
PROFAMCHA091001172727172842000115Halloween Contest Full  - Sept 25-Oct 18 (4x a day                                                                          150                                
PROFAMCHA091001172842172922000040Universal Music                                                                                                             150                                
PROFAMCHA091001172922173008000046Phineas & Ferb (MD) INSIDE - NEW EPS Tomorrow Afte                                                                          150                                
PROFAMCHA091001173008173038000030Zeke & Luther - SKATE (NSW) New Episodes Sunday Af                                                                          150                                
PROFAMCHA091001173038173107000029Hannah Montana (MD) Super Awesome - Coming Up Next                                                                          150                                
PROFAMCHA091001173107173156000049Roxy Hunter - Horrific Halloween - Premieres Tomor                                                                          150                                
PRCFAMCHA091001173156173204000008MD Bumper - Ski Race (:07-:09) APR06                                                                                        150                                
PRCFAMCHA091001173204173213000009CC Disclaimer - FAST - Generic (:09-:10)                                                                                    150                                
PGRFAMCHA091001173213173930000717Hannah Montana Season 3                           EP: 11                                                               6068607BCC                              
PGRFAMCHA091001173930174606000636Hannah Montana Season 3                           EP: 11                                                               6068607BCC                              
PGRFAMCHA091001174606175329000723Hannah Montana Season 3                           EP: 11                                                               6068607BCC                              
PGRFAMCHA091001175329175441000112Hannah Montana Season 3                           EP: 11                                                               6068607BCC                              
PRCFAMCHA091001175441175447000006Astral ID (FEB 2009)                                                                                                        150                                
PRCFAMCHA091001175447175459000012NS - 01 - ZOEY 101/DEREK (:11 - :13) (MARCH08)                                                                              150                                
PROFAMCHA091001175459175551000052Thanksgiving - Sonny/Jonas/Sneak Peek - Monday Oct                                                                          150                                
PROFAMCHA091001175551175612000021Wizards of Waverly Place LAMP (NS) Tonight @ 7pm (                                                                          150                                
PROFAMCHA091001175612175622000010FAMJAM - Open/Close                                                                                                         150                                
PGRFAMCHA091001175622175837000215MV Disney - (MD/NS/NSW) - Jesse McCartney - Just S                                                                     60688120                                
PROFAMCHA091001175837175851000014xxFAMJAM - Close (FAMILY) xxDNUxx                                                                                           150                                
PROFAMCHA091001175851175908000017Zoey 101 (NS)  ZOEY, ZOEY, ZOEY - Coming Up Next (                                                                          150                                
PRCFAMCHA091001175908175938000030Family Kicks Event Spot - 4 Per Day (July 11 - Oct                                                                          150                                
PROFAMCHA091001175938175955000017Nonstop Block Open (:16-:18) APR06                                                                                          150                                
PRCFAMCHA091001175955180005000010CC Disclaimer - FAST - Family.ca (:09-:10)                                                                                  150                                
PGRFAMCHA091001180005180105000100Zoey 101                                          EPS # 01                                                             2068707BCC                              
PGRFAMCHA091001180105181056000951Zoey 101                                          EPS # 01                                                             2068707BCC                              
PGRFAMCHA091001181056182243001147Zoey 101                                          EPS # 01                                                             2068707BCC                              
PGRFAMCHA091001182243182319000036Zoey 101                                          EPS # 01                                                             2068707BCC                              
PRCFAMCHA091001182319182331000012NS - 02 - DEREK/WIZARDS (:11 - :13) (OCT08)                                                                                 150                                
PROFAMCHA091001182331182405000034Family.ca - Check Out New Games at Family.ca (Oct                                                                           150                                
PROFAMCHA091001182405182455000050The Walt Disney Company                                                                                                     150                                
PROFAMCHA091001182455182542000047Wizards of Waverly Place BOXING (NS) Tonight @ 7pm                                                                          150                                
PROFAMCHA091001182542182617000035BAW - Stand Up With Nico - Post (Sept 26-Nov 19 20                                                                          150                                
PROFAMCHA091001182617182702000045Walt Disney Studios Home Entertainment                                                                                      150                                
PROFAMCHA091001182702182805000103Hannah Montana (NS) Mockumentry - Tonight @ 7:30pm                                                                          150                                
PROFAMCHA091001182805182820000015Halloween Knights - Sir Loin - Bumper (Oct 1-31)                                                                            150                                
PROFAMCHA091001182820182853000033JONAS "Joe and Stella" (NS) - NEW EPS Tomorrow Nig                                                                          150                                
PROFAMCHA091001182853182933000040Walt Disney Pictures                                                                                                        150                                
PRCFAMCHA091001182933183000000027Life W D (NS) CLIP - Coming Up Next (JULY08)                                                                                150                                
PRCFAMCHA091001183000183007000007NS Bumper - Dodgeball (:07-:09) APR06                                                                                       150                                
PRCFAMCHA091001183007183016000009CC Disclaimer - FAST - Generic (:09-:10)                                                                                    150                                
PGRFAMCHA091001183016185246002230Life with Derek                                   EP: 21                                                        C26822 1065607BCC                              
PRCFAMCHA091001185246185252000006Astral ID (FEB 2009)                                                                                                        150                                
PRCFAMCHA091001185252185304000012NS - 03 - WIZARDS/HANNAH (:11 - :13) (FEB09)                                                                                150                                
PROFAMCHA091001185304185338000034Suite Life of Z & C (NS) RHYMING - Tonight @ 8pm (                                                                          150                                
PROFAMCHA091001185338185428000050The Walt Disney Company                                                                                                     150                                
PRCFAMCHA091001185428185458000030Latest Buzz - LOCO (NS) Tonight @ 8:30pm (JAN09)                                                                            150                                
PROFAMCHA091001185458185508000010FAMJAM - Open/Close                                                                                                         150                                
PGRFAMCHA091001185508185638000130MV Disney - (MD/NS/NSW) - Jesse McCartney - Just S                                                                     60688120                                
PROFAMCHA091001185638185652000014xxFAMJAM - Close (FAMILY) xxDNUxx                                                                                           150                                
PROFAMCHA091001185652185743000051Overruled! - Series Promo (NSW) New Episode Sunday                                                                          150                                
PROFAMCHA091001185743185808000025Wizards of Waverly Place HOODIE (NS) Coming Up Nex                                                                          150                                
PROFAMCHA091001185808185853000045Kellogg's                                                                                                                   150                                
PROFAMCHA091001185853185942000049Roxy Hunter - Horrific Halloween - Premieres Tomor                                                                          150                                
PRCFAMCHA091001185942185955000013NS Bumper - Fashion (:12-:14) JUNE06                                                                                        150                                
PRCFAMCHA091001185955190004000009CC Disclaimer - FAST - Family.ca (:09-:10)                                                                                  150                                
PGRFAMCHA091001190004190339000335Disney Wizards of Waverly Place                   EP: 30                                                               6068607BCC                              
PGRFAMCHA091001190339191012000633Disney Wizards of Waverly Place                   EP: 30                                                               6068607BCC                              
PGRFAMCHA091001191012192136001124Disney Wizards of Waverly Place                   EP: 30                                                               6068607BCC                              
PGRFAMCHA091001192136192235000059Disney Wizards of Waverly Place                   EP: 30                                                               6068607BCC                              
PRCFAMCHA091001192235192247000012NS - 04 - HANNAH/SUITE LIFE (:11 - :13) (FEB09)                                                                             150                                
PRCFAMCHA091001192247192326000039Really Big Birthdays - December - 3-4 X Day (Octob                                                                          150                                
PROFAMCHA091001192326192406000040Paramount Home Entertainment                                                                                                150                                
PRCFAMCHA091001192406192426000020Latest Buzz - SIZZLE (NS) Tonight @ 8:30pm (JAN09)                                                                          150                                
PROFAMCHA091001192426192436000010FAMJAM - Open/Close                                                                                                         150                                
PGRFAMCHA091001192436192738000302MV Disney - (MD/NS/NSW) - Jesse McCartney - Just S                                                                     60688120                                
PROFAMCHA091001192738192752000014xxFAMJAM - Close (FAMILY) xxDNUxx                                                                                           150                                
PRCFAMCHA091001192752192819000027Life W D (NS) CLIP - Tonight @ 9:30pm (JULY08)                                                                              150                                
PROFAMCHA091001192819192849000030Zeke & Luther - SELL (NSW) New Episodes Sunday Aft                                                                          150                                
PROFAMCHA091001192849192901000012Hannah Montana (NS) IDs - Miley # 1 - Next                                                                                  150                                
PROFAMCHA091001192901192953000052Thanksgiving - Sonny/Jonas/Sneak Peek - Monday Oct                                                                          150                                
PRCFAMCHA091001192953193009000016NS Bumper - Tennis (:15-:17) APR06                                                                                          150                                
PRCFAMCHA091001193009193018000009CC Disclaimer - FAST - Family.ca (:09-:10)                                                                                  150                                
PGRFAMCHA091001193018195255002237Hannah Montana                                    EP: 02                                                               6068807BCC                              
PRCFAMCHA091001195255195301000006Astral ID (FEB 2009)                                                                                                        150                                
PRCFAMCHA091001195301195312000011NS - 05 - SUITE LIFE 8:00/LATEST BUZZ 8:30 (:11 -                                                                           150                                
PRCFAMCHA091001195312195350000038FOD - Family On Demand - Generic - Check you local                                                                          150                                
PROFAMCHA091001195350195435000045Universal Music                                                                                                             150                                
PRCFAMCHA091001195435195525000050Latest Buzz - REPORTER (NS) Tonight @ 8:30pm (JAN0                                                                          150                                
PROFAMCHA091001195525195608000043Synergy - Toy Story 1&2 in 3D - "Rex" - Coming Soo                                                                          150                                
PROFAMCHA091001195608195629000021Wizards of Waverly Place LAMP (NS) Tonight @ 9pm (                                                                          150                                
PRCFAMCHA091001195629195744000115Movie Entertainment (8)                                                                                                     150                                
PROFAMCHA091001195744195809000025Zoey 101 - BOOTH (NS) Tomorrow Night @ 6pm (SEPT08                                                                          150                                
PROFAMCHA091001195809195840000031Suite Life of Z & C (NS) TONY HAWK - Coming Up Nex                                                                          150                                
PROFAMCHA091001195840195955000115Halloween Contest Full  - Sept 25-Oct 18 (4x a day                                                                          150                                
PRCFAMCHA091001195955200002000007NS Bumper - Dodgeball (:07-:09) APR06                                                                                       150                                
ID FAMCHA091001200002200008000006Magic of Disney - NS/NSW/PB - Shape (:06-:09)                                                                               150                                
PRCFAMCHA091001200008200017000009CC Disclaimer - FAST - Family.ca (:09-:10)                                                                                  150                                
PGRFAMCHA091001200017200317000300Suite Life of Zack & Cody, The                    EP: 24                                                               6068607BCC                              
PGRFAMCHA091001200317201732001415Suite Life of Zack & Cody, The                    EP: 24                                                               6068607BCC                              
PGRFAMCHA091001201732202243000511Suite Life of Zack & Cody, The                    EP: 24                                                               6068607BCC                              
PGRFAMCHA091001202243202318000035Suite Life of Zack & Cody, The                    EP: 24                                                               6068607BCC                              
PRCFAMCHA091001202318202329000011NS - 06 - LATEST BUZZ 8:30/WIZARDS 9:00 (:11 - :13                                                                          150                                
PRCFAMCHA091001202329202359000030Family Kicks Event Spot - 4 Per Day (July 11 - Oct                                                                          150                                
PROFAMCHA091001202359202439000040Entertainment 1                                                                                                             150                                
PRCFAMCHA091001202439202531000052Life W D (NS) Casey & Derek - Tonight @ 9:30 (MAR0                                                                          150                                
PROFAMCHA091001202531202546000015Halloween Knights - Sir Loin - Bumper (Oct 1-31)                                                                            150                                
PROFAMCHA091001202546202629000043Ned's DSSG (NS) Too Cool for School  - Tonight @ 1                                                                          150                                
PROFAMCHA091001202629202729000100Cory In The House - Cory vs. Sophie (NS) Tonight @                                                                          150                                
PROFAMCHA091001202729202802000033JONAS "Joe and Stella" (NS) - NEW EPS Tomorrow Nig                                                                          150                                
PRCFAMCHA091001202802202822000020Latest Buzz - SIZZLE (NS) Coming Up Next (JUN08)                                                                            150                                
PROFAMCHA091001202822202907000045Universal Music                                                                                                             150                                
PROFAMCHA091001202907202956000049Roxy Hunter - Horrific Halloween - Premieres Tomor                                                                          150                                
PRCFAMCHA091001202956203008000012NS Bumper - Fashion (:12-:14) JUNE06                                                                                        150                                
PRCFAMCHA091001203008203017000009CC Disclaimer - FAST - Generic (:09-:10)                                                                                    150                                
PGRFAMCHA091001203017205252002235Latest Buzz II                                    EP: 19                                                        C29635 1055607BCC3                             
PRCFAMCHA091001205252205258000006Astral ID (FEB 2009)                                                                                                        150                                
PRCFAMCHA091001205258205310000012NS - 07 - WIZARDS 9:00/LIFE WITH DEREK 9:30 (:11 -                                                                          150                                
PROFAMCHA091001205310205344000034Family.ca - Check Out New Games at Family.ca (Oct                                                                           150                                
PROFAMCHA091001205344205424000040Universal Music                                                                                                             150                                
PRCFAMCHA091001205424205451000027Life W D (NS) CLIP - Tonight @ 9:30pm (JULY08)                                                                              150                                
PROFAMCHA091001205451205501000010FAMJAM - Open/Close                                                                                                         150                                
PGRFAMCHA091001205501205756000255MV Disney - (MD/NS/NSW) - Jesse McCartney - Just S                                                                     60688120                                
PROFAMCHA091001205756205810000014xxFAMJAM - Close (FAMILY) xxDNUxx                                                                                           150                                
PROFAMCHA091001205810205840000030Zeke & Luther - BTS ZEKE'S ROOM (NSW) New Eps Sun                                                                           150                                
PROFAMCHA091001205840205852000012Wizards of Waverrly Place ID - Selena Gomez #2 - N                                                                          150                                
PROFAMCHA091001205852205944000052Thanksgiving - Sonny/Jonas/Sneak Peek - Monday Oct                                                                          150                                
PRCFAMCHA091001205944210001000017NS Bumper - Tennis (:15-:17) APR06                                                                                          150                                
PRCFAMCHA091001210001210011000010CC Disclaimer - SLOW - Family.ca (:09-:10)                                                                                  150                                
PGRFAMCHA091001210011210803000752Disney Wizards of Waverly Place                   EP: 17                                                               6068607BCC                              
PGRFAMCHA091001210803211411000608Disney Wizards of Waverly Place                   EP: 17                                                               6068607BCC                              
PGRFAMCHA091001211411211945000534Disney Wizards of Waverly Place                   EP: 17                                                               6068607BCC                              
PGRFAMCHA091001211945212240000255Disney Wizards of Waverly Place                   EP: 17                                                               6068607BCC                              
PRCFAMCHA091001212240212252000012NS - 08 - DEREK/NED'S (:11 - :13) (MARCH08)                                                                                 150                                
PROFAMCHA091001212252212333000041Ned's DSSG (NS) COOKIE - Tonight @ 10pm (JAN09)                                                                             150                                
PROFAMCHA091001212333212418000045Ubisoft                                                                                                                     150                                
PROFAMCHA091001212418212432000014Cory In The House (NS) NEWT - Tonight @ 10:30pm (J                                                                          150                                
PROFAMCHA091001212432212507000035BAW - Stand Up With Nico - Post (Sept 26-Nov 19 20                                                                          150                                
PROFAMCHA091001212507212517000010FAMJAM - Open/Close                                                                                                         150                                
PGRFAMCHA091001212517212741000224MV Disney - (MD/NS/NSW) - Jesse McCartney - Just S                                                                     20688120                                
PROFAMCHA091001212741212755000014xxFAMJAM - Close (FAMILY) xxDNUxx                                                                                           150                                
PROFAMCHA091001212755212846000051Overruled! - Series Promo (NSW) New Episode Sunday                                                                          150                                
PROFAMCHA091001212846212926000040Walt Disney Pictures                                                                                                        150                                
PRCFAMCHA091001212926212953000027Life W D (NS) CLIP - Coming Up Next (JULY08)                                                                                150                                
PRCFAMCHA091001212953213002000009NS Bumper - Dodgeball (:07-:09) APR06                                                                                       150                                
PRCFAMCHA091001213002213011000009CC Disclaimer - FAST - Generic (:09-:10)                                                                                    150                                
PGRFAMCHA091001213011215241002230Life With Derek IV (eps 53-70)                    EP: 16                                                        C24891 1055607BCC3                             
PRCFAMCHA091001215241215247000006Astral ID (FEB 2009)                                                                                                        150                                
PRCFAMCHA091001215247215258000011NS - 23 - NEDS/CORY IN THE HOUSE (:11 - :13) (SEPT                                                                          150                                
PROFAMCHA091001215258215413000115Halloween Contest Full  - Sept 25-Oct 18 (4x a day                                                                          150                                
PROFAMCHA091001215413215458000045Ubisoft                                                                                                                     150                                
PROFAMCHA091001215458215531000033Cory In The House (NS) WHAT THEY'RE SAYING - Tonig                                                                          150                                
PROFAMCHA091001215531215540000009Family Bumpers - (Phase 2 F/W 04) - Halloween (MD-                                                                          150                                
PROFAMCHA091001215540215612000032Sonny With A Chance TEASE PROMO (NS) - Tomorrow Ni                                                                          150                                
PROFAMCHA091001215612215622000010FAMJAM - Open/Close                                                                                                         150                                
PGRFAMCHA091001215622215722000100MV Disney - (MD/NS/NSW) - Jesse McCartney - Just S                                                                     60688120                                
PROFAMCHA091001215722215736000014xxFAMJAM - Close (FAMILY) xxDNUxx                                                                                           150                                
PROFAMCHA091001215736215819000043Ned's DSSG (NS) Too Cool for School  - Coming Up N                                                                          150                                
PROFAMCHA091001215819215859000040Kellogg's                                                                                                                   150                                
PROFAMCHA091001215859215948000049Roxy Hunter - Horrific Halloween - Premieres Tomor                                                                          150                                
PRCFAMCHA091001215948220002000014NS Bumper - Fashion (:12-:14) JUNE06                                                                                        150                                
PRCFAMCHA091001220002220012000010CC Disclaimer - SLOW - Family.ca (:09-:10)                                                                                  150                                
PGRFAMCHA091001220012220052000040Ned's Declassified School Survival Guide          EPS # 10                                                             2068807BCC                              
PGRFAMCHA091001220052221222001130Ned's Declassified School Survival Guide          EPS # 10                                                             2068807BCC                              
PGRFAMCHA091001221222222357001135Ned's Declassified School Survival Guide          EPS # 10                                                             2068807BCC                              
PGRFAMCHA091001222357222442000045Ned's Declassified School Survival Guide          EPS # 10                                                             2068807BCC                              
PRCFAMCHA091001222442222454000012NS - 10 - CORY IN THE HOUSE/SUITE LIFE (:11 - :13)                                                                          150                                
PROFAMCHA091001222454222546000052Thanksgiving - Sonny/Jonas/Sneak Peek - Monday Oct                                                                          150                                
PROFAMCHA091001222546222620000034Suite Life of Z & C (NS) RHYMING - Tonight @ 11pm                                                                           150                                
PRCFAMCHA091001222620222647000027Life W D (NS) CLIP - Tonight @ 11:30pm (JULY08)                                                                             150                                
PROFAMCHA091001222647222657000010FAMJAM - Open/Close                                                                                                         150                                
PGRFAMCHA091001222657222757000100MV Disney - (MD/NS/NSW) - Jesse McCartney - Just S                                                                     60688120                                
PROFAMCHA091001222757222811000014xxFAMJAM - Close (FAMILY) xxDNUxx                                                                                           150                                
PROFAMCHA091001222811222844000033JONAS "Joe and Stella" (NS) - NEW EPS Tomorrow Nig                                                                          150                                
PROFAMCHA091001222844222903000019Cory In The House (NS) SOPHIE - Coming Up Next (JU                                                                          150                                
PRCFAMCHA091001222903222941000038FOD - Family On Demand - Generic - Check you local                                                                          150                                
PRCFAMCHA091001222941222957000016NS Bumper - Tennis (:15-:17) APR06                                                                                          150                                
PRCFAMCHA091001222957223006000009CC Disclaimer - SLOW - Generic (:09 -:10)                                                                                   150                                
PGRFAMCHA091001223006223227000221Disney Cory in the House                          EP: 11                                                               6068607BCC                              
PGRFAMCHA091001223227223925000658Disney Cory in the House                          EP: 11                                                               6068607BCC                              
PGRFAMCHA091001223925225118001153Disney Cory in the House                          EP: 11                                                               6068607BCC                              
PGRFAMCHA091001225118225241000123Disney Cory in the House                          EP: 11                                                               6068607BCC                              
PRCFAMCHA091001225241225247000006Astral ID (FEB 2009)                                                                                                        150                                
PRCFAMCHA091001225247225258000011NS - 11 - SUITE LIFE/LIFE WITH DEREK (:11 - :13) (                                                                          150                                
PROFAMCHA091001225258225313000015Halloween Knights - Sir Loin - Bumper (Oct 1-31)                                                                            150                                
PRCFAMCHA091001225313225343000030Life W D (NS) A Whole New Derek - Tonight @ 11:30p                                                                          150                                
PROFAMCHA091001225343225434000051Overruled! - Series Promo (NSW) New Episode Sunday                                                                          150                                
PROFAMCHA091001225434225444000010FAMJAM - Open/Close                                                                                                         150                                
PGRFAMCHA091001225444225822000338MV Disney - (MD/NS/NSW) - Jesse McCartney - Just S                                                                     20688120                                
PROFAMCHA091001225822225836000014xxFAMJAM - Close (FAMILY) xxDNUxx                                                                                           150                                
PROFAMCHA091001225836225907000031Suite Life of Z & C (NS) TONY HAWK - Coming Up Nex                                                                          150                                
PROFAMCHA091001225907225956000049Roxy Hunter - Horrific Halloween - Premieres Tomor                                                                          150                                
PRCFAMCHA091001225956230003000007NS Bumper - Dodgeball (:07-:09) APR06                                                                                       150                                
ID FAMCHA091001230003230011000008Magic of Disney - NS/NSW/PB - Shape (:06-:09)                                                                               150                                
PRCFAMCHA091001230011230020000009CC Disclaimer - SLOW - Family.ca (:09-:10)                                                                                  150                                
PGRFAMCHA091001230020230231000211Suite Life of Zack & Cody, The                    EP: 09                                                               6068607BCC                              
PGRFAMCHA091001230231231145000914Suite Life of Zack & Cody, The                    EP: 09                                                               6068607BCC                              
PGRFAMCHA091001231145232208001023Suite Life of Zack & Cody, The                    EP: 09                                                               6068607BCC                              
PGRFAMCHA091001232208232255000047Suite Life of Zack & Cody, The                    EP: 09                                                               6068607BCC                              
PRCFAMCHA091001232255232307000012NS - 26 - LIFE WITH DEREK/SADIE (:11 - :13) (SEPT0                                                                          150                                
PRCFAMCHA091001232307232337000030Family Kicks Event Spot - 4 Per Day (July 11 - Oct                                                                          150                                
PRCFAMCHA091001232337232417000040Naturally Sadie - ROMANTIC (NS) Tonight @ 12:00am                                                                           150                                
PROFAMCHA091001232417232427000010FAMJAM - Open/Close                                                                                                         150                                
PGRFAMCHA091001232427232557000130MV Disney - (MD/NS/NSW) - Jesse McCartney - Just S                                                                     60688120                                
PROFAMCHA091001232557232611000014xxFAMJAM - Close (FAMILY) xxDNUxx                                                                                           150                                
PROFAMCHA091001232611232641000030Zeke & Luther - BTS GINGER (NSW) New Eps Sunday Af                                                                          150                                
PRCFAMCHA091001232641232756000115Movie Entertainment (8)                                                                                                     150                                
PRCFAMCHA091001232756232834000038Life W D (NS) Edwin Mystery Man - Coming Up Next (                                                                          150                                
PROFAMCHA091001232834232949000115Halloween Contest Full  - Sept 25-Oct 18 (4x a day                                                                          150                                
PRCFAMCHA091001232949233002000013NS Bumper - Fashion (:12-:14) JUNE06                                                                                        150                                
PRCFAMCHA091001233002233011000009CC Disclaimer - SLOW - Generic (:09 -:10)                                                                                   150                                
PGRFAMCHA091001233011235241002230Life with Derek                                   EP: 22                                                        C26679A1065607BCC                              
PRCFAMCHA091001235241235247000006Astral ID (FEB 2009)                                                                                                        150                                
PRCFAMCHA091001235247235259000012NS - 27 - SADIE/SADIE (:11 - :13) (SEPT07)                                                                                  150                                
PROFAMCHA091001235259235333000034Family.ca - Check Out New Games at Family.ca (Oct                                                                           150                                
PROFAMCHA091001235333235406000033JONAS "Joe and Stella" (NS) - NEW EPS Tomorrow Nig                                                                          150                                
PROFAMCHA091001235406235416000010FAMJAM - Open/Close                                                                                                         150                                
PGRFAMCHA091001235416235746000330MV Disney - (MD/NS/NSW) - Jesse McCartney - Just S                                                                     60688120                                
PROFAMCHA091001235746235800000014xxFAMJAM - Close (FAMILY) xxDNUxx                                                                                           150                                
PROFAMCHA091001235800235845000045Sonny With A Chance BOYS (NS) - Tomorrow Night @ 7                                                                          150                                
PROFAMCHA091001235845235920000035BAW - Stand Up With Nico - Post (Sept 26-Nov 19 20                                                                          150                                
PRCFAMCHA091001235920235956000036Naturally Sadie - TEENAGER (NS) Coming Up Next (MA                                                                          150                                
PRCFAMCHA091001235956000012000016NS Bumper - Tennis (:15-:17) APR06                                                                                          150                                
PRCFAMCHA091001000012000021000009CC Disclaimer - SLOW - Family.ca (:09-:10)                                                                                  150                                
PGRFAMCHA091001000021002251002230Naturally, Sadie                                  EP: 35                                                        C25428 1065607ACC                              
PRCFAMCHA091001002251002303000012NS - 28 - SADIE/HANNAH (:11 - :13) (SEPT07)                                                                                 150                                
PROFAMCHA091001002303002355000052Thanksgiving - Sonny/Jonas/Sneak Peek - Monday Oct                                                                          150                                
PROFAMCHA091001002355002457000102Hannah Montana (NS) Mockumentry - Tomorrow Afterno                                                                          150                                
PROFAMCHA091001002457002530000033JONAS "Joe and Stella" (NS) - NEW EPS Tomorrow Nig                                                                          150                                
PROFAMCHA091001002530002552000022Sonny With A Chance ID (NS) DEMI LOVATO - Tomorrow                                                                          150                                
PROFAMCHA091001002552002602000010FAMJAM - Open/Close                                                                                                         150                                
PGRFAMCHA091001002602002732000130MV Disney - (MD/NS/NSW) - Jesse McCartney - Just S                                                                     60288120                                
PROFAMCHA091001002732002746000014xxFAMJAM - Close (FAMILY) xxDNUxx                                                                                           150                                
PROFAMCHA091001002746002837000051Overruled! - Series Promo (NSW) New Episode Sunday                                                                          150                                
PRCFAMCHA091001002837002906000029Naturally Sadie - CLIP (NS) Coming Up Next (MARCH0                                                                          150                                
PROFAMCHA091001002906002955000049Roxy Hunter - Horrific Halloween - Premieres Tomor                                                                          150                                
PRCFAMCHA091001002955003005000010CC Disclaimer - SLOW - Generic (:09 -:10)                                                                                   150                                
PGRFAMCHA091001003005005236002231Naturally, Sadie                                  EP: 20                                                        C24010 1065607ACC                              
PRCFAMCHA091001005236005242000006Astral ID (FEB 2009)                                                                                                        150                                
PRCFAMCHA091001005242005253000011NS - 29 - HANNAH/CORY (:11 - :13) (OCT08)                                                                                   150                                
PRCFAMCHA091001005253005331000038FOD - Family On Demand - Generic - Check you local                                                                          150                                
PROFAMCHA091001005331005402000031Sonny With A Chance PREMISE PROMO (NS) - Tomorrow                                                                           150                                
PROFAMCHA091001005402005412000010FAMJAM - Open/Close                                                                                                         150                                
PGRFAMCHA091001005412005714000302MV Disney - (MD/NS/NSW) - Jesse McCartney - Just S                                                                     60688120                                
PROFAMCHA091001005714005728000014xxFAMJAM - Close (FAMILY) xxDNUxx                                                                                           150                                
PROFAMCHA091001005728005758000030Zeke & Luther - BTS 1 (NSW) New Episodes Sunday Af                                                                          150                                
PROFAMCHA091001005758005827000029Hannah Montana (NS) Science - Coming Up Next (SEPT                                                                          150                                
PROFAMCHA091001005827005942000115Halloween Contest Full  - Sept 25-Oct 18 (4x a day                                                                          150                                
PRCFAMCHA091001005942005954000012NS Bumper - Fashion (:12-:14) JUNE06                                                                                        150                                
PRCFAMCHA091001005954010003000009CC Disclaimer - SLOW - Family.ca (:09-:10)                                                                                  150                                
PGRFAMCHA091001010003012234002231Hannah Montana                                    EP: 15                                                               6068807BCC                              
PRCFAMCHA091001012234012240000006Astral ID (FEB 2009)                                                                                                        150                                
PRCFAMCHA091001012240012252000012NS - 30 - CORY/PHIL (:11 - :13) (OCT08)                                                                                     150                                
PRCFAMCHA091001012252012308000016NS Bumper - Tennis (:15-:17) APR06                                                                                          150                                
PRCFAMCHA091001012308012317000009CC Disclaimer - SLOW - Generic (:09 -:10)                                                                                   150                                
PGRFAMCHA091001012317012746000429Disney Cory in the House                          EP: 01                                                               6068607BCC                              
PGRFAMCHA091001012746013316000530Disney Cory in the House                          EP: 01                                                               6068607BCC                              
PGRFAMCHA091001013316014413001057Disney Cory in the House                          EP: 01                                                               6068607BCC                              
PGRFAMCHA091001014413014553000140Disney Cory in the House                          EP: 01                                                               6068607BCC                              
PRCFAMCHA091001014553014559000006Astral ID (FEB 2009)                                                                                                        150                                
PRCFAMCHA091001014559014611000012NS - 31 - PHIL/LIZZIE (:11 - :13) (OCT08)                                                                                   150                                
PRCFAMCHA091001014611014618000007NS Bumper - Dodgeball (:07-:09) APR06                                                                                       150                                
ID FAMCHA091001014618014626000008Magic of Disney - NS/NSW/PB - Shape (:06-:09)                                                                               150                                
PRCFAMCHA091001014626014635000009CC Disclaimer - SLOW - Family.ca (:09-:10)                                                                                  150                                
PGRFAMCHA091001014635014908000233Phil of the Future Yr 2                           EP: 38                                                               6068607BCC                              
PGRFAMCHA091001014908015818000910Phil of the Future Yr 2                           EP: 38                                                               6068607BCC                              
PGRFAMCHA091001015818020742000924Phil of the Future Yr 2                           EP: 38                                                               6068607BCC                              
PGRFAMCHA091001020742020911000129Phil of the Future Yr 2                           EP: 38                                                               6068607BCC                              
PRCFAMCHA091001020911020923000012NS - 32 - LIZZIE/LIFE WITH DEREK (:11 - :13) (OCT0                                                                          150                                
PRCFAMCHA091001020923020936000013NS Bumper - Fashion (:12-:14) JUNE06                                                                                        150                                
ID FAMCHA091001020936020944000008Magic of Disney - NS/NSW/PB - Wipe (:06-:09)                                                                                150                                
PRCFAMCHA091001020944020953000009CC Disclaimer - SLOW - Generic (:09 -:10)                                                                                   150                                
