SO FAMCHA090301043000043011000011Sign On (oct 1)                                                                                                                                                
PRCFAMCHA090301043011043020000009CC Disclaimer - FAST - Family.ca (:09-:10)                                                                                  150                                
PGRFAMCHA090301043020045420002400Henry's World                                     EP: 2-016                                                     B81047A1065607GCC                              
PRCFAMCHA090301045420045433000013FJR - 15 - BENJAMIN BEAR / FRANNY'S FEET (SEPT08)                                                                           150                                
PRCFAMCHA090301045433045448000015Family Jr. Bumper - Portal (:14- :17) (JUL08)                                                                               150                                
PRCFAMCHA090301045448045457000009CC Disclaimer - FAST - Generic (:09-:10)                                                                                    150                                
PGRFAMCHA090301045457051727002230Secret World of Benjamin Bear, The                EP: 25                                                        C26066 1065607ECC                              
PRCFAMCHA090301051727051733000006Astral ID (FEB 2009)                                                                                                        150                                
PRCFAMCHA090301051733051744000011FJR - 16 - FRANNY'S FEET / KING (SEPT08)                                                                                    150                                
PRCFAMCHA090301051744051756000012Family Jr. Bumper - Music (:11- :14) (JUL08)                                                                                150                                
PRCFAMCHA090301051756051805000009CC Disclaimer - FAST - Family.ca (:09-:10)                                                                                  150                                
PGRFAMCHA090301051805054035002230Franny's Feet                                     EPS # 1-010                                                   C23970A1065607ECC                              
PRCFAMCHA090301054035054046000011FJR - 17 - KING (SEPT08)                                                                                                    150                                
PRCFAMCHA090301054046054058000012Family Jr. Bumper - Collide (:11- :14) (JUL08)                                                                              150                                
PRCFAMCHA090301054058054107000009CC Disclaimer - FAST - Generic (:09-:10)                                                                                    150                                
PGRFAMCHA090301054107060337002230King                                              EPS # 030                                                     C25350 1065607ECC                              
PRCFAMCHA090301060337060343000006Astral ID (FEB 2009)                                                                                                        150                                
PROFAMCHA090301060343060401000018Jetix Block Open (:18-:21)                                                                                                  150                                
PRCFAMCHA090301060401060410000009CC Disclaimer - FAST - Family.ca (:09-:10)                                                                                  150                                
PGRFAMCHA090301060410062649002239Power Rangers:  Operation Overdrive               EP: 09                                                               2068607ECC                              
PRCFAMCHA090301062649062737000048Family Video Player Promo - No Tag 3/day (not in P                                                                          150                                
PROFAMCHA090301062737062808000031Jump In - Today @ 12                                                                                                        150                                
PROFAMCHA090301062808062827000019Jetix Block Open (:18-:21)                                                                                                  150                                
PRCFAMCHA090301062827062836000009CC Disclaimer - FAST - Generic (:09-:10)                                                                                    150                                
PGRFAMCHA090301062836065108002232Power Rangers Jungle Fury                         EP: 05                                                               2068607ACC                              
PRCFAMCHA090301065108065114000006Astral ID (FEB 2009)                                                                                                        150                                
PRCFAMCHA090301065114065204000050Family Online Community Promo - 3/4 Day (not in PH                                                                          150                                
PROFAMCHA090301065204065235000031Jump In - Today @ 12                                                                                                        150                                
PRCFAMCHA090301065235065315000040Really Big Birthdays - May - 3-4 X Day (March 1 -3                                                                          150                                
PROFAMCHA090301065315065334000019Jetix Block Open (:18-:21)                                                                                                  150                                
PRCFAMCHA090301065334065343000009CC Disclaimer - FAST - Family.ca (:09-:10)                                                                                  150                                
PGRFAMCHA090301065343071548002205Digimon Data Squad                                EP: 26                                                               2068607ECC                              
PRCFAMCHA090301071548071601000013NSW - 00 - NEDS/HANNAH (:11 - :13) (OCT08)                                                                                  150                                
PRCFAMCHA090301071601071618000017Family First Generic Throw - Promo SHORT VERSION -                                                                          150                                
PROFAMCHA090301071618071658000040Disney on Ice - Worlds Of Fantasy - Bounce On Fami                                                                          150                                
PROFAMCHA090301071658071758000100Cory In The House - Cory vs. Sophie (NSW) This Mor                                                                          150                                
PROFAMCHA090301071758071835000037That's So Raven DANCE (NSW) This Morning @ 9:30am                                                                           150                                
PROFAMCHA090301071835071906000031Jump In - Today @ 12                                                                                                        150                                
PROFAMCHA090301071906071921000015Wizards of Waverrly Place DAVID #2 IDs (NS) - NEW                                                                           150                                
PROFAMCHA090301071921072002000041Ned's DSSG (NSW) COOKIE - Coming Up Next (JAN09)                                                                            150                                
PROFAMCHA090301072002072019000017Nonstop Weekend Block Open (:16-:18) APR06                                                                                  150                                
PRCFAMCHA090301072019072028000009CC Disclaimer - FAST - Family.ca (:09-:10)                                                                                  150                                
PGRFAMCHA090301072028074444002416Ned's Declassified School Survival Guide          EP: 23                                                               2068807BCC                              
PRCFAMCHA090301074444074450000006Astral ID (FEB 2009)                                                                                                        150                                
PRCFAMCHA090301074450074501000011NSW - 01 - HANNAH/SUITE LIFE (:11 - :13) (SEPT07)                                                                           150                                
PROFAMCHA090301074501074558000057Suite Life of Z & C FABULOUS LIFESTYLES (NSW) This                                                                          150                                
PROFAMCHA090301074558074638000040Beverly Hills Chihuahua DVD - Available March 3 (F                                                                          150                                
PRCFAMCHA090301074638074644000006Family Bumpers - (Phase 2 F/W 04) - Gymnastics (MD                                                                          150                                
PROFAMCHA090301074644074715000031Jump In - Today @ 12                                                                                                        150                                
PROFAMCHA090301074715074744000029Hannah Montana - SUPER AWESOME (NSW) Coming Up Nex                                                                          150                                
PRCFAMCHA090301074744074800000016NSW Bumper - Tennis (:15-:17) APR06                                                                                         150                                
PRCFAMCHA090301074800074809000009CC Disclaimer - FAST - Generic (:09-:10)                                                                                    150                                
PGRFAMCHA090301074809081047002238Hannah Montana                                    EP: 10                                                               6068807BCC                              
PRCFAMCHA090301081047081059000012NSW - 02 - SUITE LIFE/ZOEY 101 (:11 - :13) (SEPT07                                                                          150                                
PROFAMCHA090301081059081131000032Sonny With A Chance PREMISE PROMO - Prems March 16                                                                          150                                
PROFAMCHA090301081131081211000040HSM Ice Tour Flight 2 Family First ONSALE Version                                                                           150                                
PROFAMCHA090301081211081242000031Jump In - Today @ 12                                                                                                        150                                
PROFAMCHA090301081242081311000029Hannah Montana - SUPER AWESOME (NS) New Eps - Fri                                                                           150                                
PROFAMCHA090301081311081351000040Jonas Brothers 3D Soundtrack Blast - Available Now                                                                          150                                
PROFAMCHA090301081351081448000057Suite Life of Z & C FABULOUS LIFESTYLES (NSW) Comi                                                                          150                                
PRCFAMCHA090301081448081501000013NSW Bumper - Fashion (:12-:14) JUNE06 **DNU                                                                                 150                                
ID FAMCHA090301081501081509000008Magic of Disney - MAD DASH - Wipe (:06-:09)                                                                                 150                                
PRCFAMCHA090301081509081518000009CC Disclaimer - FAST - Family.ca (:09-:10)                                                                                  150                                
PGRFAMCHA090301081518083757002239Suite Life of Zack & Cody, The                    EP: 08                                                               6068607BCC                              
PRCFAMCHA090301083757083803000006Astral ID (FEB 2009)                                                                                                        150                                
PRCFAMCHA090301083803083816000013NSW - 03 - ZOEY 101/CORY IN THE HOUSE (:11 - :13)                                                                           150                                
PRCFAMCHA090301083816083846000030FOD - March Movies from March 16-30 3x4 A Day (Mar                                                                          150                                
PROFAMCHA090301083846083931000045Family Favourites CD - Family Jams 2 (Feb 12 - Mar                                                                          150                                
PROFAMCHA090301083931084001000030Phil Of The Future (NSW) POP QUIZ - This Morning @                                                                          150                                
PROFAMCHA090301084001084032000031Jump In - Today @ 12                                                                                                        150                                
PROFAMCHA090301084032084042000010FAMJAM - Open/Close                                                                                                         150                                
PGRFAMCHA090301084042084212000130MV Disney - (MD/NS/NSW) - Jesse McCartney - Just S                                                                     60688120                                
PROFAMCHA090301084212084226000014xxFAMJAM - Close (FAMILY) xxDNUxx                                                                                           150                                
PROFAMCHA090301084226084257000031Suite Life on Deck LIFE AT SEA (NSW) This Afternoo                                                                          150                                
PROFAMCHA090301084257084314000017Zoey 101 (NSW)  ZOEY, ZOEY, ZOEY - Coming Up Next                                                                           150                                
PRCFAMCHA090301084314084322000008NSW Bumper - Dodgeball (:07-:09) APR06                                                                                      150                                
PRCFAMCHA090301084322084331000009CC Disclaimer - FAST - Generic (:09-:10)                                                                                    150                                
PGRFAMCHA090301084331090703002332Zoey 101                                          EP: 54                                                               2068807BCC                              
PRCFAMCHA090301090703090714000011NSW - 04 - CORY IN THE HOUSE/RAVEN (:11 - :13) (SE                                                                          150                                
PROFAMCHA090301090714090741000027That's So Raven CLIP (NSW) This Morning @ 9:40am (                                                                          150                                
PROFAMCHA090301090741090821000040Disney on Ice - Worlds Of Fantasy - Bounce On Fami                                                                          150                                
PROFAMCHA090301090821090852000031Jump In - Today @ 12                                                                                                        150                                
PROFAMCHA090301090852090902000010FAMJAM - Open/Close                                                                                                         150                                
PGRFAMCHA090301090902091032000130MV Disney - (MD/NS/NSW) - Jesse McCartney - Just S                                                                     60688120                                
PROFAMCHA090301091032091046000014xxFAMJAM - Close (FAMILY) xxDNUxx                                                                                           150                                
PROFAMCHA090301091046091100000014Wizards of Waverrly Place ID - Selena Gomez #1 - T                                                                          150                                
PROFAMCHA090301091100091143000043Cory In The House (NSW) (MAR07) - Coming Up Next                                                                            150                                
PRCFAMCHA090301091143091159000016NSW Bumper - Tennis (:15-:17) APR06                                                                                         150                                
PRCFAMCHA090301091159091208000009CC Disclaimer - FAST - Family.ca (:09-:10)                                                                                  150                                
PGRFAMCHA090301091208093446002238Cory in the House                                 EP: 04                                                               6068607BCC                              
PRCFAMCHA090301093446093452000006Astral ID (FEB 2009)                                                                                                        150                                
PRCFAMCHA090301093452093504000012NSW - 05 - RAVEN/PHIL (:11 - :13) (SEPT07)                                                                                  150                                
PROFAMCHA090301093504093537000033Sonny With A Chance TEASE PROMO - Prems March 16 @                                                                          150                                
PROFAMCHA090301093537093622000045Family Favourites CD - Family Jams 2 (Feb 12 - Mar                                                                          150                                
PROFAMCHA090301093622093652000030Phil Of The Future (NSW) POP QUIZ - This Morning @                                                                          150                                
PROFAMCHA090301093652093706000014Wizards of Waverrly Place ID - Selena Gomez #1 - T                                                                          150                                
PRCFAMCHA090301093706093720000014Family Bumpers - (Phase 1 Spring 04) - Basketball                                                                           150                                
PROFAMCHA090301093720093730000010FAMJAM - Open/Close                                                                                                         150                                
PGRFAMCHA090301093730093900000130MV Disney - (MD/NS/NSW) - Jesse McCartney - Just S                                                                     60688120                                
PROFAMCHA090301093900093914000014xxFAMJAM - Close (FAMILY) xxDNUxx                                                                                           150                                
PROFAMCHA090301093914093945000031Jump In - Today @ 12                                                                                                        150                                
PROFAMCHA090301093945094022000037That's So Raven DANCE (NSW) Coming Up Next (FEB09)                                                                          150                                
PRCFAMCHA090301094022094039000017Family First Generic Throw - Promo SHORT VERSION -                                                                          150                                
PRCFAMCHA090301094039094052000013NSW Bumper - Fashion (:12-:14) JUNE06 **DNU                                                                                 150                                
ID FAMCHA090301094052094100000008Magic of Disney - NS/NSW/PB - Wipe (:06-:09)                                                                                150                                
PRCFAMCHA090301094100094109000009CC Disclaimer - FAST - Generic (:09-:10)                                                                                    150                                
PGRFAMCHA090301094109100349002240That's So Raven                                   EP: 1-004                                                            6068607BCC                              
PRCFAMCHA090301100349100401000012NSW - 06 - PHIL/WIZARDS(:11 - :13) (OCT08)                                                                                  150                                
PROFAMCHA090301100401100431000030Wizards of Waverrly Place JUSTIN (NSW) - This Morn                                                                          150                                
PROFAMCHA090301100431100511000040HSM Ice Tour Flight 2 Family First ONSALE Version                                                                           150                                
PROFAMCHA090301100511100542000031Jump In - Today @ 12                                                                                                        150                                
PROFAMCHA090301100542100610000028Suite Life on Deck PREMISE (NSW) This Afternoon @                                                                           150                                
PGRFAMCHA090301100610100740000130HSM 3 DVD Awards - Segment 4                                                                                          A60688120                                
PROFAMCHA090301100740100821000041Hannah Montana - EVERYWHERE (NS) NEW EPS - Friday                                                                           150                                
PROFAMCHA090301100821100901000040Jonas Brothers 3D Soundtrack Blast - Available Now                                                                          150                                
PROFAMCHA090301100901100931000030Phil Of The Future (NSW) POP QUIZ - Coming Up Next                                                                          150                                
PRCFAMCHA090301100931101011000040Really Big Birthdays - May - 3-4 X Day (March 1 -3                                                                          150                                
PRCFAMCHA090301101011101019000008NSW Bumper - Dodgeball (:07-:09) APR06                                                                                      150                                
ID FAMCHA090301101019101027000008Magic of Disney - NS/NSW/PB - Shape (:06-:09)                                                                               150                                
PRCFAMCHA090301101027101036000009CC Disclaimer - FAST - Family.ca (:09-:10)                                                                                  150                                
PGRFAMCHA090301101036103310002234Phil of the Future                                EPS # 05                                                             6068607BCC                              
PRCFAMCHA090301103310103316000006Astral ID (FEB 2009)                                                                                                        150                                
PRCFAMCHA090301103316103328000012NSW - 07 - BOY MEETS WORLD/NED'S (:11 - :13) (SEPT                                                                          150                                
PRCFAMCHA090301103328103416000048Family Video Player Promo - No Tag 3/day (not in P                                                                          150                                
PROFAMCHA090301103416103456000040Beverly Hills Chihuahua DVD - Available March 3 (F                                                                          150                                
PROFAMCHA090301103456103527000031Jump In - Today @ 12                                                                                                        150                                
PROFAMCHA090301103527103537000010FAMJAM - Open/Close                                                                                                         150                                
PGRFAMCHA090301103537103707000130MV Disney - (MD/NS/NSW) - Jesse McCartney - Just S                                                                     60688120                                
PROFAMCHA090301103707103721000014xxFAMJAM - Close (FAMILY) xxDNUxx                                                                                           150                                
PROFAMCHA090301103721103751000030Wizards of Waverrly Place ALEX (NSW) - Coming Up N                                                                          150                                
PRCFAMCHA090301103751103807000016NSW Bumper - Tennis (:15-:17) APR06                                                                                         150                                
PRCFAMCHA090301103807103816000009CC Disclaimer - FAST - Generic (:09-:10)                                                                                    150                                
PGRFAMCHA090301103816110047002231Disney Wizards of Waverly Place                   EP: 10                                                               6068607BCC                              
PRCFAMCHA090301110047110059000012NSW - 08 - NED'S/SUITE LIFE (:11 - :13) (SEPT07)                                                                            150                                
PROFAMCHA090301110059110131000032Sonny With A Chance PREMISE PROMO - Prems March 16                                                                          150                                
PROFAMCHA090301110131110216000045Family Favourites CD - Family Jams 2 (Feb 12 - Mar                                                                          150                                
PROFAMCHA090301110216110247000031Jump In - Today @ 12                                                                                                        150                                
PROFAMCHA090301110247110315000028Suite Life on Deck PREMISE (NSW) This Afternoon @                                                                           150                                
PROFAMCHA090301110315110351000036Flight 29 Down - (NSW) Tonight @ 6:30pm (JULY08)                                                                            150                                
PROFAMCHA090301110351110404000013Wizards of Waverrly Place JENNIFER #1 IDs (NS) - N                                                                          150                                
PROFAMCHA090301110404110447000043Ned's DSSG (NSW) Too Cool for School  - Coming Up                                                                           150                                
PRCFAMCHA090301110447110500000013NSW Bumper - Fashion (:12-:14) JUNE06 **DNU                                                                                 150                                
PRCFAMCHA090301110500110509000009CC Disclaimer - FAST - Family.ca (:09-:10)                                                                                  150                                
PGRFAMCHA090301110509112925002416Ned's Declassified School Survival Guide          EP: 23                                                               2068807BCC                              
PRCFAMCHA090301112925112931000006Astral ID (FEB 2009)                                                                                                        150                                
PRCFAMCHA090301112931112943000012NSW - 09 - SUITE LIFE/POPCORN PIX (:11 - :13) (SEP                                                                          150                                
PRCFAMCHA090301112943113000000017Family First Generic Throw - Promo SHORT VERSION -                                                                          150                                
PROFAMCHA090301113000113040000040Disney on Ice - Worlds Of Fantasy - Bounce On Fami                                                                          150                                
PROFAMCHA090301113040113111000031Jump In - Today @ 12                                                                                                        150                                
PROFAMCHA090301113111113121000010FAMJAM - Open/Close                                                                                                         150                                
PGRFAMCHA090301113121113306000145MV Disney - (MD/NS/NSW) - Jesse McCartney - Just S                                                                     60688120                                
PROFAMCHA090301113306113320000014xxFAMJAM - Close (FAMILY) xxDNUxx                                                                                           150                                
PROFAMCHA090301113320113351000031Suite Life of Z & C (NSW) TONY HAWK - Coming Up Ne                                                                          150                                
PRCFAMCHA090301113351113359000008NSW Bumper - Dodgeball (:07-:09) APR06                                                                                      150                                
ID FAMCHA090301113359113407000008Magic of Disney - NS/NSW/PB - Shape (:06-:09)                                                                               150                                
PRCFAMCHA090301113407113416000009CC Disclaimer - FAST - Generic (:09-:10)                                                                                    150                                
PGRFAMCHA090301113416115655002239Suite Life of Zack & Cody, The                    EP: 08                                                               6068607BCC                              
PRCFAMCHA090301115655115707000012NSW - 10 - POPCORN PIX/POPCORN PIX (:11 - :13) (SE                                                                          150                                
PRCFAMCHA090301115707115737000030FOD - March Movies from March 16-30 3x4 A Day (Mar                                                                          150                                
PROFAMCHA090301115737115808000031Jump In - Coming Up Next                                                                                                    150                                
PROFAMCHA090301115808115838000030Suite Life on Deck ROOMMATES (NSW) This Afternoon                                                                           150                                
PROFAMCHA090301115838115908000030Life is Ruff (AUG06) Friday night @ 7:30                                                                                    150                                
PROFAMCHA090301115908115941000033Sonny With A Chance TEASE PROMO - Prems March 16 @                                                                          150                                
ID FAMCHA090301115941120000000019Popcorn Pix Block Open (JUNE 06) (:18-:20)                                                                                  150                                
ID FAMCHA090301120000120010000010Ratings - G - Popcorn Pix Only (July 07)                                                                                    150                                
PRCFAMCHA090301120010120019000009CC Disclaimer - FAST - Generic (:09-:10)                                                                                    150                                
ID FAMCHA090301120019120027000008Magic of Disney - PIX - Shape (:06-:09)                                                                                     150                                
PGRFAMCHA090301120027132454012427Jump In!                                                                                                              A6068807CCC                              
PRCFAMCHA090301132454132500000006Astral ID (FEB 2009)                                                                                                        150                                
PRCFAMCHA090301132500132512000012NSW - 11 - POPCORN PIX/CORY (:11 - :13) (OCT08)                                                                             150                                
PRCFAMCHA090301132512132542000030FOD - March Movies from March 16-30 3x4 A Day (Mar                                                                          150                                
PROFAMCHA090301132542132614000032Suite Life of Z & C (NSW) IMPRESS - This Afternoon                                                                          150                                
PROFAMCHA090301132614132642000028Suite Life on Deck ID 2 - This Afternoon @ 3:50pm                                                                           150                                
PRCFAMCHA090301132642132648000006Family Bumpers - Reptile Pet - Car Horn (MD/NS/NSW                                                                          150                                
PROFAMCHA090301132648132702000014Wizards of Waverrly Place ID - Selena Gomez #1 - N                                                                          150                                
PROFAMCHA090301132702132712000010FAMJAM - Open/Close                                                                                                         150                                
PGRFAMCHA090301132712132812000100MV Disney - (MD/NS/NSW) - Jesse McCartney - Just S                                                                     60688120                                
PROFAMCHA090301132812132826000014xxFAMJAM - Close (FAMILY) xxDNUxx                                                                                           150                                
PROFAMCHA090301132826132856000030Life is Ruff (AUG06) Friday night @ 7:30                                                                                    150                                
PRCFAMCHA090301132856132946000050Family Online Community Promo - 3/4 Day (not in PH                                                                          150                                
ID FAMCHA090301132946133005000019Popcorn Pix Block Open (JUNE 06) (:18-:20)                                                                                  150                                
ID FAMCHA090301133005133015000010Ratings - PG - Popcorn Pix Only (July 07)                                                                                   150                                
PRCFAMCHA090301133015133024000009CC Disclaimer - FAST - Family.ca (:09-:10)                                                                                  150                                
PGRFAMCHA0903011330241503500133263 Ninjas Kick Back                                                                                                    B2068807DCC                              
PRCFAMCHA090301150350150402000012NSW - 12 - CORY IN THE HOUSE/SUITE Z&C (:11 - :13)                                                                          150                                
PROFAMCHA090301150402150419000017Nonstop Weekend Block Open (:16-:18) APR06                                                                                  150                                
PRCFAMCHA090301150419150428000009CC Disclaimer - FAST - Family.ca (:09-:10)                                                                                  150                                
PGRFAMCHA090301150428152659002231Cory in the House Season 2                        EP: 08                                                               6068607BCC                              
PRCFAMCHA090301152659152705000006Astral ID (FEB 2009)                                                                                                        150                                
PRCFAMCHA090301152705152717000012NSW - 13 - SUITE Z & C/SUITE DECK (:11 - :13) (OCT                                                                          150                                
PRCFAMCHA090301152717152733000016NSW Bumper - Tennis (:15-:17) APR06                                                                                         150                                
ID FAMCHA090301152733152741000008Magic of Disney - NS/NSW/PB - Shape (:06-:09)                                                                               150                                
PRCFAMCHA090301152741152750000009CC Disclaimer - FAST - Generic (:09-:10)                                                                                    150                                
PGRFAMCHA090301152750154951002201Suite Life of Zack and Cody, The                  EP: 14                                                               6068607BCC                              
PRCFAMCHA090301154951155003000012NSW - 14 - SUITE DECK/PROUD FAMILY (:11 - :13) (OC                                                                          150                                
PROFAMCHA090301155003155020000017Suite Life on Deck ID 1 - Coming Up Next (FEB09)                                                                            150                                
PROFAMCHA090301155020155050000030Life is Ruff (AUG06) Friday night @ 7:30                                                                                    150                                
PRCFAMCHA090301155050155103000013NSW Bumper - Fashion (:12-:14) JUNE06 **DNU                                                                                 150                                
PRCFAMCHA090301155103155112000009CC Disclaimer - FAST - Generic (:09-:10)                                                                                    150                                
PGRFAMCHA090301155112161328002216Suite Life on Deck, The                           EP: 07                                                               6068807BCC                              
PRCFAMCHA090301161328161334000006Astral ID (FEB 2009)                                                                                                        150                                
PRCFAMCHA090301161334161346000012NSW - 15 - PROUD FAMILY/PHINEAS (:11 - :13) (MARCH                                                                          150                                
PRCFAMCHA090301161346161426000040Really Big Birthdays - May - 3-4 X Day (March 1 -3                                                                          150                                
PROFAMCHA090301161426161456000030Phineas & Ferb (NSW) Candace Character Sell - This                                                                          150                                
PROFAMCHA090301161456161506000010FAMJAM - Open/Close                                                                                                         150                                
PGRFAMCHA090301161506161636000130MV Disney - (MD/NS/NSW) - Jesse McCartney - Just S                                                                     60688120                                
PROFAMCHA090301161636161650000014xxFAMJAM - Close (FAMILY) xxDNUxx                                                                                           150                                
PROFAMCHA090301161650161706000016Kim Possible RON POSSIBLE (NSW) Today @ 5:10pm (OC                                                                          150                                
PROFAMCHA090301161706161755000049Proud Family (APR06) STRIKE (NSW) - Coming Up Next                                                                          150                                
PRCFAMCHA090301161755161803000008NSW Bumper - Dodgeball (:07-:09) APR06                                                                                      150                                
ID FAMCHA090301161803161811000008Magic of Disney - NS/NSW/PB - Shape (:06-:09)                                                                               150                                
PRCFAMCHA090301161811161820000009CC Disclaimer - FAST - Generic (:09-:10)                                                                                    150                                
PGRFAMCHA090301161820164055002235The Proud Family                                  EP: 2-039                                                           A6068607ECC                              
PRCFAMCHA090301164055164107000012NSW - 16 - PHINEAS/KIM POSSIBLE (:11 - :13) (MARCH                                                                          150                                
PROFAMCHA090301164107164137000030Life is Ruff (AUG06) Friday night @ 7:30                                                                                    150                                
PROFAMCHA090301164137164224000047Kim Possible MISSION (NSW) This Afternoon @ 5:10pm                                                                          150                                
PROFAMCHA090301164224164326000102Hannah Montana (NSW) Mockumentry - This Afternoon                                                                           150                                
PROFAMCHA090301164326164423000057Suite Life of Z & C FABULOUS LIFESTYLES (NSW) Toni                                                                          150                                
PROFAMCHA090301164423164442000019Phineas & Ferb (NSW) Isabella Tease - Coming Up Ne                                                                          150                                
PRCFAMCHA090301164442164458000016NSW Bumper - Tennis (:15-:17) APR06                                                                                         150                                
PRCFAMCHA090301164458164507000009CC Disclaimer - FAST - Family.ca (:09-:10)                                                                                  150                                
PGRFAMCHA090301164507170737002230Phineas & Ferb                                    EP: 07                                                               6068607ECC                              
PRCFAMCHA090301170737170743000006Astral ID (FEB 2009)                                                                                                        150                                
PRCFAMCHA090301170743170755000012NSW - 17 - KIM/HANNAH (:11 - :13) (SEPT07)                                                                                  150                                
PROFAMCHA090301170755170829000034Hannah Montana (NSW) Wig Auditions - This Afternoo                                                                          150                                
PROFAMCHA090301170829170839000010FAMJAM - Open/Close                                                                                                         150                                
PGRFAMCHA090301170839171118000239MV Disney - (MD/NS/NSW) - Jesse McCartney - Just S                                                                     20688120                                
PROFAMCHA090301171118171132000014xxFAMJAM - Close (FAMILY) xxDNUxx                                                                                           150                                
PROFAMCHA090301171132171148000016Kim Possible RON POSSIBLE (NSW) Coming Up Next (OC                                                                          150                                
PRCFAMCHA090301171148171201000013NSW Bumper - Fashion (:12-:14) JUNE06 **DNU                                                                                 150                                
PRCFAMCHA090301171201171210000009CC Disclaimer - FAST - Generic (:09-:10)                                                                                    150                                
PGRFAMCHA090301171210173456002246Disney's Kim Possible - Yr. 4                     EP: 21                                                               6068607ECC                              
PRCFAMCHA090301173456173508000012NSW - 18 - HANNAH/SADIE (:11 - :13) (SEPT07)                                                                                150                                
PRCFAMCHA090301173508173556000048Family Video Player Promo - No Tag 3/day (not in P                                                                          150                                
PROFAMCHA090301173556173636000040Jonas Brothers 3D Soundtrack Blast - Available Now                                                                          150                                
PRCFAMCHA090301173636173716000040Naturally Sadie - ROMANTIC (NSW) Tonight @ 6:05pm                                                                           150                                
PROFAMCHA090301173716173752000036Flight 29 Down - (NSW) Tonight @ 6:30pm (JULY08)                                                                            150                                
PROFAMCHA090301173752173821000029Hannah Montana - SUPER AWESOME (NSW) Coming Up Nex                                                                          150                                
PROFAMCHA090301173821173853000032Sonny With A Chance PREMISE PROMO - Prems March 16                                                                          150                                
PRCFAMCHA090301173853173901000008NSW Bumper - Dodgeball (:07-:09) APR06                                                                                      150                                
PRCFAMCHA090301173901173910000009CC Disclaimer - FAST - Family.ca (:09-:10)                                                                                  150                                
PGRFAMCHA090301173910180141002231Hannah Montana - Season 2                         EP: 29                                                               6068807BCC                              
PRCFAMCHA090301180141180147000006Astral ID (FEB 2009)                                                                                                        150                                
PRCFAMCHA090301180147180159000012NSW - 19 - SADIE/FLIGHT 29 DOWN (:11 - :13) (SEPT0                                                                          150                                
PRCFAMCHA090301180159180216000017Family First Generic Throw - Promo SHORT VERSION -                                                                          150                                
PROFAMCHA090301180216180256000040Beverly Hills Chihuahua DVD - Available March 3 (F                                                                          150                                
PROFAMCHA090301180256180333000037That's So Raven DANCE (NSW) Tonight @ 6:55pm (FEB0                                                                          150                                
PROFAMCHA090301180333180403000030Zoey 101 - ANGELS (NSW) Tonight @ 7:20pm (JAN09)                                                                            150                                
PRCFAMCHA090301180403180433000030Life W D (NSW) A WHOLE NEW DEREK - Tonight @ 7:50p                                                                          150                                
PROFAMCHA090301180433180502000029Hannah Montana SCIENCE (NS) - New Eps Friday's @ 5                                                                          150                                
PROFAMCHA090301180502180517000015Wizards of Waverrly Place DAVID #2 IDs (NS) - NEW                                                                           150                                
PRCFAMCHA090301180517180546000029Naturally Sadie - CLIP (NSW) Coming Up Next (MARCH                                                                          150                                
PRCFAMCHA090301180546180602000016NSW Bumper - Tennis (:15-:17) APR06                                                                                         150                                
PRCFAMCHA090301180602180611000009CC Disclaimer - FAST - Generic (:09-:10)                                                                                    150                                
PGRFAMCHA090301180611182841002230Naturally, Sadie                                  EP: 29                                                        C25428 1065607ACC                              
PRCFAMCHA090301182841182853000012NSW - 20 - FLIGHT 29 DOWN/RAVEN (:11 - :13) (SEPT0                                                                          150                                
PROFAMCHA090301182853182933000040Zoey 101 (NSW) SAFETY CUPCAKE - Tonight @ 7:20 (MA                                                                          150                                
PROFAMCHA090301182933183013000040HSM Ice Tour Flight 2 Family First ONSALE Version                                                                           150                                
PROFAMCHA090301183013183049000036Flight 29 Down - (NSW) Coming Up Next (JULY08)                                                                              150                                
PRCFAMCHA090301183049183102000013NSW Bumper - Fashion (:12-:14) JUNE06 **DNU                                                                                 150                                
PGRFAMCHA090301183102185232002130Flight 29 Down                                    EP: 07                                                               2068807A                                
PRCFAMCHA090301185232185238000006Astral ID (FEB 2009)                                                                                                        150                                
PRCFAMCHA090301185238185250000012NSW - 21 - RAVEN/ZOEY 101 (:11 - :13) (SEPT07)                                                                              150                                
PROFAMCHA090301185250185320000030Life is Ruff (AUG06) Friday night @ 7:30                                                                                    150                                
PROFAMCHA090301185320185401000041Hannah Montana - EVERYWHERE (NSW) Tonight @ 8:35pm                                                                          150                                
PROFAMCHA090301185401185411000010FAMJAM - Open/Close                                                                                                         150                                
PGRFAMCHA090301185411185511000100MV Disney - (MD/NS/NSW) - Jesse McCartney - Just S                                                                     60688120                                
PROFAMCHA090301185511185525000014xxFAMJAM - Close (FAMILY) xxDNUxx                                                                                           150                                
PROFAMCHA090301185525185619000054That's So Raven FORTUNE TELLER (NSW) Coming Up Nex                                                                          150                                
PROFAMCHA090301185619185652000033Sonny With A Chance TEASE PROMO - Prems March 16 @                                                                          150                                
PRCFAMCHA090301185652185700000008NSW Bumper - Dodgeball (:07-:09) APR06                                                                                      150                                
ID FAMCHA090301185700185708000008Magic of Disney - NS/NSW/PB - Shape (:06-:09)                                                                               150                                
PRCFAMCHA090301185708185717000009CC Disclaimer - FAST - Family.ca (:09-:10)                                                                                  150                                
PGRFAMCHA090301185717191956002239That's So Raven                                   EPS # 1-024                                                          6068607BCC                              
PRCFAMCHA090301191956192008000012NSW - 21 - ZOEY 101/LIFE WITH DEREK (:11 - :13) (S                                                                          150                                
PRCFAMCHA090301192008192058000050Family Online Community Promo - 3/4 Day (not in PH                                                                          150                                
PROFAMCHA090301192058192138000040Zoey 101 (NSW) SAFETY CUPCAKE - Coming Up Next (MA                                                                          150                                
PRCFAMCHA090301192138192154000016NSW Bumper - Tennis (:15-:17) APR06                                                                                         150                                
PRCFAMCHA090301192154192203000009CC Disclaimer - FAST - Generic (:09-:10)                                                                                    150                                
PGRFAMCHA090301192203194535002332Zoey 101                                          EP: 54                                                               2068807BCC                              
PRCFAMCHA090301194535194541000006Astral ID (FEB 2009)                                                                                                        150                                
PRCFAMCHA090301194541194553000012NSW - 22 - LIFE WITH DEREK/SUITE LIFE (:11 - :13)                                                                           150                                
PRCFAMCHA090301194553194633000040Really Big Birthdays - May - 3-4 X Day (March 1 -3                                                                          150                                
PROFAMCHA090301194633194702000029Hannah Montana SCIENCE (NS) - New Eps Friday's @ 5                                                                          150                                
PRCFAMCHA090301194702194740000038Life W D (NSW) Edwin Mystery Man - Coming Up Next                                                                           150                                
PRCFAMCHA090301194740194753000013NSW Bumper - Fashion (:12-:14) JUNE06 **DNU                                                                                 150                                
PRCFAMCHA090301194753194802000009CC Disclaimer - FAST - Family.ca (:09-:10)                                                                                  150                                
PGRFAMCHA090301194802201032002230Life With Derek IV (eps 53-70)                    EP: 07                                                        C24891 1055607BCC3                             
PRCFAMCHA090301201032201044000012NSW - 23 - SUITE LIFE/HANNAH (:11 - :13) (SEPT07)                                                                           150                                
PROFAMCHA090301201044201113000029Hannah Montana - SUPER AWESOME (NSW) Tonight @ 8:3                                                                          150                                
PROFAMCHA090301201113201127000014Wizards of Waverrly Place JENNIFER #2 IDs (NS) - N                                                                          150                                
PROFAMCHA090301201127201158000031Suite Life of Z & C (NSW) TONY HAWK - Coming Up Ne                                                                          150                                
PRCFAMCHA090301201158201206000008NSW Bumper - Dodgeball (:07-:09) APR06                                                                                      150                                
ID FAMCHA090301201206201214000008Magic of Disney - NS/NSW/PB - Wipe (:06-:09)                                                                                150                                
PRCFAMCHA090301201214201223000009CC Disclaimer - FAST - Generic (:09-:10)                                                                                    150                                
PGRFAMCHA090301201223203501002238Suite Life of Zack & Cody, The                    EP: 56                                                               6068607BCC                              
PRCFAMCHA090301203501203507000006Astral ID (FEB 2009)                                                                                                        150                                
PRCFAMCHA090301203507203518000011NSW - 24 - HANNAH/NIGHTLY PIX (:11 - :13) (SEPT07)                                                                          150                                
PROFAMCHA090301203518203547000029Hannah Montana SCIENCE (NSW) - Coming Up Next (SEP                                                                          150                                
PRCFAMCHA090301203547203602000015NSW Bumper - Tennis (:15-:17) APR06                                                                                         150                                
PRCFAMCHA090301203602203611000009CC Disclaimer - FAST - Family.ca (:09-:10)                                                                                  150                                
PGRFAMCHA090301203611205849002238Hannah Montana                                    EP: 08                                                               6068807BCC                              
PRCFAMCHA090301205849205901000012NSW - 25 - NIGHTLY PIX/NIGHTLY PIX (no time) :11 -                                                                          150                                
PROFAMCHA090301205901205931000030Life is Ruff (AUG06) Friday night @ 7:30                                                                                    150                                
PRCFAMCHA090301205931205948000017Family First Generic Throw - Promo SHORT VERSION -                                                                          150                                
PROFAMCHA090301205948210000000012xxNightly Pix Movie Open (:10-:15)                                                                                          150                                
ID FAMCHA090301210000210009000009Rating - PG - Nightly Pix Only  (DEC05) (:08 - :10                                                                          150                                
PRCFAMCHA090301210009210018000009CC Disclaimer - SLOW - Family.ca (:09-:10)                                                                                  150                                
PGRFAMCHA090301210018223211013153Bob The Butler                                                                                                  A12859B1065807DCC                              
PRCFAMCHA090301223211223217000006Astral ID (FEB 2009)                                                                                                        150                                
PRCFAMCHA090301223217223229000012NSW - 25a - NIGHTLY PIX/SADIE (12:00)( :11 - :13)                                                                           150                                
PROFAMCHA090301223229223242000013xxNightly Pix Movie Open (:10-:15)                                                                                          150                                
ID FAMCHA090301223242223251000009Rating - PG - Nightly Pix Only  (DEC05) (:08 - :10                                                                          150                                
PRCFAMCHA090301223251223300000009CC Disclaimer - SLOW - Generic (:09 -:10)                                                                                   150                                
PGRFAMCHA090301223300000305013005Angus                                                                                                                 B2068807DCC                              
PRCFAMCHA090301000305000317000012NSW - 26 - SADIE/SADIE (:11 - :13) (SEPT07)                                                                                 150                                
PROFAMCHA090301000317000334000017Nonstop Weekend Block Open (:16-:18) APR06                                                                                  150                                
PRCFAMCHA090301000334000343000009CC Disclaimer - SLOW - Family.ca (:09-:10)                                                                                  150                                
PGRFAMCHA090301000343002613002230Naturally, Sadie                                  EP: 10                                                        C24010 1065607ACC                              
PRCFAMCHA090301002613002619000006Astral ID (FEB 2009)                                                                                                        150                                
PRCFAMCHA090301002619002631000012NSW - 27 - SADIE/HANNAH (:11 - :13) (SEPT07)                                                                                150                                
PRCFAMCHA090301002631002701000030FOD - March Movies from March 16-30 3x4 A Day (Mar                                                                          150                                
PROFAMCHA090301002701002730000029Hannah Montana SCIENCE (NS) - New Eps Friday's @ 5                                                                          150                                
PROFAMCHA090301002730002813000043Ned's DSSG (NS) Too Cool for School  - Mon - Thurs                                                                          150                                
PROFAMCHA090301002813002846000033Cory In The House (NS) WHAT THEY'RE SAYING - Mon-T                                                                          150                                
PRCFAMCHA090301002846002915000029Naturally Sadie - CLIP (NSW) Coming Up Next (MARCH                                                                          150                                
PROFAMCHA090301002915002947000032Sonny With A Chance PREMISE PROMO - Prems March 16                                                                          150                                
PRCFAMCHA090301002947003000000013NSW Bumper - Fashion (:12-:14) JUNE06 **DNU                                                                                 150                                
PRCFAMCHA090301003000003009000009CC Disclaimer - SLOW - Generic (:09 -:10)                                                                                   150                                
PGRFAMCHA090301003009005239002230Naturally, Sadie                                  EP: 06                                                        C24010 1065607ACC                              
PRCFAMCHA090301005239005251000012NSW - 28 - HANNAH/CORY (:11 - :13) (OCT08)                                                                                  150                                
PRCFAMCHA090301005251005331000040Really Big Birthdays - May - 3-4 X Day (March 1 -3                                                                          150                                
PROFAMCHA090301005331005348000017Zoey 101 (NS)  ZOEY, ZOEY, ZOEY - Tomorrow Night @                                                                          150                                
PROFAMCHA090301005348005418000030Wizards of Waverrly Place ALEX (NS) Tomorrow Night                                                                          150                                
PROFAMCHA090301005418005428000010FAMJAM - Open/Close                                                                                                         150                                
PGRFAMCHA090301005428005813000345MV Disney - (MD/NS/NSW) - Jesse McCartney - Just S                                                                     60288120                                
PROFAMCHA090301005813005827000014xxFAMJAM - Close (FAMILY) xxDNUxx                                                                                           150                                
PROFAMCHA090301005827005857000030Life is Ruff (AUG06) Friday night @ 7:30                                                                                    150                                
PROFAMCHA090301005857005911000014Wizards of Waverrly Place SELENA #1 IDs (NS) - NEW                                                                          150                                
PROFAMCHA090301005911005952000041Hannah Montana - EVERYWHERE (NSW) Coming Up Next (                                                                          150                                
PRCFAMCHA090301005952010000000008NSW Bumper - Dodgeball (:07-:09) APR06                                                                                      150                                
PRCFAMCHA090301010000010009000009CC Disclaimer - SLOW - Family.ca (:09-:10)                                                                                  150                                
PGRFAMCHA090301010009012247002238Hannah Montana                                    EP: 16                                                               6068807BCC                              
PRCFAMCHA090301012247012253000006Astral ID (FEB 2009)                                                                                                        150                                
PRCFAMCHA090301012253012305000012NSW - 29 - CORY/PHIL  (:11 - :13) (OCT08)                                                                                   150                                
PRCFAMCHA090301012305012321000016NSW Bumper - Tennis (:15-:17) APR06                                                                                         150                                
ID FAMCHA090301012321012329000008Magic of Disney - NS/NSW/PB - Wipe (:06-:09)                                                                                150                                
PRCFAMCHA090301012329012338000009CC Disclaimer - SLOW - Generic (:09 -:10)                                                                                   150                                
PGRFAMCHA090301012338014609002231Cory in the House Season 2                        EP: 08                                                               6068607BCC                              
PRCFAMCHA090301014609014621000012NSW - 30 - PHIL/LIZZIE (:11 - :13) (OCT08)                                                                                  150                                
PRCFAMCHA090301014621014634000013NSW Bumper - Fashion (:12-:14) JUNE06 **DNU                                                                                 150                                
ID FAMCHA090301014634014642000008Magic of Disney - NS/NSW/PB - Shape (:06-:09)                                                                               150                                
PRCFAMCHA090301014642014651000009CC Disclaimer - SLOW - Family.ca (:09-:10)                                                                                  150                                
PGRFAMCHA090301014651020927002236Phil of the Future Yr 2                           EP: 41                                                               6068607BCC                              
PRCFAMCHA090301020927020933000006Astral ID (FEB 2009)                                                                                                        150                                
PRCFAMCHA090301020933020945000012NSW - 31 - LIZZIE/LIFE WITH DEREK (:11 - :13) (OCT                                                                          150                                
PRCFAMCHA090301020945020953000008NSW Bumper - Dodgeball (:07-:09) APR06                                                                                      150                                
ID FAMCHA090301020953021001000008Magic of Disney - NS/NSW/PB - Wipe (:06-:09)                                                                                150                                
PRCFAMCHA090301021001021010000009CC Disclaimer - SLOW - Generic (:09 -:10)                                                                                   150                                
PGRFAMCHA090301021010023242002232Lizzie McGuire                                    EP: 1-030                                                            6068607BCC                              
PRCFAMCHA090301023242023254000012NSW - 32 - DEREK/CORY IN THE HOUSE (:11 - :13) (SE                                                                          150                                
PRCFAMCHA090301023254023310000016NSW Bumper - Tennis (:15-:17) APR06                                                                                         150                                
PRCFAMCHA090301023310023319000009CC Disclaimer - SLOW - Family.ca (:09-:10)                                                                                  150                                
PGRFAMCHA090301023319025549002230Life With Derek IV (eps 53-70)                    EP: 13                                                        C24891 1065607BCC                              
PRCFAMCHA090301025549025555000006Astral ID (FEB 2009)                                                                                                        150                                
PRCFAMCHA090301025555025607000012NSW - 33 - CORY IN THE HOUSE/RAVEN (:11 - :13) (SE                                                                          150                                
PRCFAMCHA090301025607025620000013NSW Bumper - Fashion (:12-:14) JUNE06 **DNU                                                                                 150                                
PRCFAMCHA090301025620025629000009CC Disclaimer - SLOW - Generic (:09 -:10)                                                                                   150                                
PGRFAMCHA090301025629031905002236Cory in the House                                 EP: 16                                                               6068607BCC                              
PRCFAMCHA090301031905031917000012NSW - 34 - RAVEN/SUITE LIFE (:11 - :13) (SEPT07)                                                                            150                                
PRCFAMCHA090301031917031925000008NSW Bumper - Dodgeball (:07-:09) APR06                                                                                      150                                
ID FAMCHA090301031925031933000008Magic of Disney - NS/NSW/PB - Shape (:06-:09)                                                                               150                                
PRCFAMCHA090301031933031942000009CC Disclaimer - SLOW - Family.ca (:09-:10)                                                                                  150                                
PGRFAMCHA090301031942034220002238That's So Raven                                   EPS # 1-056                                                          6068607BCC                              
PRCFAMCHA090301034220034226000006Astral ID (FEB 2009)                                                                                                        150                                
PRCFAMCHA090301034226034238000012NSW - 35 - SUITE LIFE/DEREK (:11 - :13) (SEPT07)                                                                            150                                
PRCFAMCHA090301034238034254000016NSW Bumper - Tennis (:15-:17) APR06                                                                                         150                                
ID FAMCHA090301034254034302000008Magic of Disney - NS/NSW/PB - Wipe (:06-:09)                                                                                150                                
PRCFAMCHA090301034302034311000009CC Disclaimer - SLOW - Generic (:09 -:10)                                                                                   150                                
PGRFAMCHA090301034311040551002240Suite Life of Zack & Cody, The                    EP: 02                                                               6068607BCC                              
PRCFAMCHA090301040551040604000013NSW - 36 - LIFE WITH DEREK (:11 - :13) (SEPT07)                                                                             150                                
PRCFAMCHA090301040604040618000014NSW Bumper - Fashion (:12-:14) JUNE06 **DNU                                                                                 150                                
PRCFAMCHA090301040618040628000010CC Disclaimer - SLOW - Family.ca (:09-:10)                                                                                  150                                
PGRFAMCHA090301040628042902002234Life With Derek IV (eps 53-70)                    EP: 14                                                        C24891 1065607BCC                              
PRCFAMCHA090301042902042908000006Astral ID (FEB 2009)                                                                                                        150                                
PRCFAMCHA090301042908042919000011FJR - 01 - KATIE& ORBIE / FRANNY'S FEET (SEPT08)                                                                            150                                
PRCFAMCHA090301042919042944000025PH-D Promo - Ohh & Ahh PH-D Throw 2009 - Call Your                                                                          150                                
ID FAMCHA090301042944042959000015Family Jr. Block Open (:14-:17) (JUL08)                                                                                     150                                
OFFFAMCHA090301042959043000000001OFF AIR                                                                                                                                                        
SO FAMCHA090302043000043011000011Sign On (oct 1)                                                                                                                                                
PRCFAMCHA090302043011043020000009CC Disclaimer - FAST - Family.ca (:09-:10)                                                                                  150                                
PGRFAMCHA090302043020045658002638Katie And Orbie                                   EP: 1-002                                                     P16141A1065607ECC                              
PRCFAMCHA090302045658045704000006Astral ID (FEB 2009)                                                                                                        150                                
PRCFAMCHA090302045704045715000011FJR - 02 - FRANNY'S FEET / BENJAMIN BEAR (SEPT08)                                                                           150                                
PRCFAMCHA090302045715045726000011Family Jr. Bumper - Acrobat (:10- :13) (JUL08)                                                                              150                                
PRCFAMCHA090302045726045735000009CC Disclaimer - FAST - Generic (:09-:10)                                                                                    150                                
PGRFAMCHA090302045735052005002230Franny's Feet                                     EPS # 14                                                      C23971 1065607ECC                              
PRCFAMCHA090302052005052018000013FJR - 03 - BENJAMIN BEAR / HOZE HOUNDZ (SEPT08)                                                                             150                                
PRCFAMCHA090302052018052030000012Family Jr. Bumper - Collide (:11- :14) (JUL08)                                                                              150                                
PRCFAMCHA090302052030052039000009CC Disclaimer - FAST - Family.ca (:09-:10)                                                                                  150                                
PGRFAMCHA090302052039054312002233The Secret World Of Benjamin Bear                 EPS # 1-005                                                   B75150 1065607ECC                              
PRCFAMCHA090302054312054318000006Astral ID (FEB 2009)                                                                                                        150                                
PRCFAMCHA090302054318054329000011FJR - 04 - HOZE HOUNDZ / HENRY'S WORLD (SEPT08)                                                                             150                                
PRCFAMCHA090302054329054341000012Family Jr. Bumper - Music (:11- :14) (JUL08)                                                                                150                                
PRCFAMCHA090302054341054350000009CC Disclaimer - FAST - Generic (:09-:10)                                                                                    150                                
PGRFAMCHA090302054350060628002238Hoze Houndz                                       EP: 4-043                                                     B63379A1065607ECC                              
PRCFAMCHA090302060628060641000013FJR - 05 - HENRY'S WORLD / KING (SEPT08)                                                                                    150                                
PRCFAMCHA090302060641060656000015Family Jr. Bumper - Portal (:14- :17) (JUL08)                                                                               150                                
PRCFAMCHA090302060656060705000009CC Disclaimer - FAST - Family.ca (:09-:10)                                                                                  150                                
PGRFAMCHA090302060705063105002400Henry's World                                     EP: 2-016                                                     B81047A1065607GCC                              
PRCFAMCHA090302063105063111000006Astral ID (FEB 2009)                                                                                                        150                                
PRCFAMCHA090302063111063122000011FJR - 06 - KING (SEPT08)                                                                                                    150                                
PRCFAMCHA090302063122063133000011Family Jr. Bumper - Acrobat (:10- :13) (JUL08)                                                                              150                                
PRCFAMCHA090302063133063142000009CC Disclaimer - FAST - Generic (:09-:10)                                                                                    150                                
PGRFAMCHA090302063142065412002230King                                              EPS # 031                                                     C25350 1065607ECC                              
PRCFAMCHA090302065412065424000012MMM - 01 - RECESS/PHINEAS (:11 - :13) (OCT08)                                                                               150                                
PRCFAMCHA090302065424065509000045Gimmie A Break Event Spot - March 16-20 - 4 X Day                                                                           150                                
PROFAMCHA090302065509065534000025Recess - CAREER DAY (MMM) - (JULY06) - Coming Up N                                                                          150                                
PROFAMCHA090302065534065553000019MadMadMornings Block Open                                                                                                   150                                
PRCFAMCHA090302065553065602000009CC Disclaimer - FAST - Generic (:09-:10)                                                                                    150                                
PGRFAMCHA090302065602071837002235Disney's Recess                                   EP: 1-019                                                            6068607ECC                              
PRCFAMCHA090302071837071843000006Astral ID (FEB 2009)                                                                                                        150                                
PRCFAMCHA090302071843071856000013MMM - 02 - PHINEAS/WEEKENDERS (:11 - :13) (OCT08)                                                                           150                                
PRCFAMCHA090302071856071936000040Really Big Birthdays - May - 3-4 X Day (March 1 -3                                                                          150                                
PROFAMCHA090302071936072003000027Weekenders - CARVER (MMM) This Morning @ 7:50am (N                                                                          150                                
PROFAMCHA090302072003072043000040HSM Ice Tour Flight 2 Family First ONSALE Version                                                                           150                                
PRCFAMCHA090302072043072054000011Family Bumpers - (Phase 2 F/W 04) - Science (MD-AM                                                                          150                                
PGRFAMCHA090302072054072224000130What's The Word - Phineas & Ferb - Daze Of Summer                                                                     A60688120                                
PROFAMCHA090302072224072235000011Kim Possible BAD GUYS (MMM) Today @ 8:20am (OCT08)                                                                          150                                
PROFAMCHA090302072235072315000040Pinocchio 70th Anniversary DVD - Available March 1                                                                          150                                
PROFAMCHA090302072315072333000018Phineas & Ferb (MMM) Perry Tease - Coming Up Next                                                                           150                                
PROFAMCHA090302072333072352000019MadMadMornings Block Open                                                                                                   150                                
PRCFAMCHA090302072352072401000009CC Disclaimer - FAST - Family.ca (:09-:10)                                                                                  150                                
PGRFAMCHA090302072401074631002230Phineas & Ferb                                    EP: 07                                                               6068607ECC                              
PRCFAMCHA090302074631074643000012MMM - 03 - WEEKENDERS/KIM POSSIBLE (:11 - :13) (OC                                                                          150                                
PRCFAMCHA090302074643074728000045Gimmie A Break Event Spot - March 16-20 - 4 X Day                                                                           150                                
PROFAMCHA090302074728074743000015Kim Possible RON POSSIBLE (MMM) This Morning @ 8:2                                                                          150                                
PROFAMCHA090302074743074828000045Family Favourites CD - Family Jams 2 (Feb 12 - Mar                                                                          150                                
PROFAMCHA090302074828074858000030American Dragon Jake Long (MD) HERO - This Afterno                                                                          150                                
PROFAMCHA090302074858074916000018Emperor's New School (MD) BUTT IN URN - This After                                                                          150                                
PROFAMCHA090302074916074943000027Weekenders - CARVER (MMM) Coming Up Next (NOV08)                                                                            150                                
PRCFAMCHA090302074943075033000050Family Online Community Promo - 3/4 Day (not in PH                                                                          150                                
PROFAMCHA090302075033075052000019MadMadMornings Block Open                                                                                                   150                                
PRCFAMCHA090302075052075101000009CC Disclaimer - FAST - Family.ca (:09-:10)                                                                                  150                                
PGRFAMCHA090302075101081355002254Disney's The Weekenders                           EP: 1-011                                                           A6068607ECC                              
PRCFAMCHA090302081355081401000006Astral ID (FEB 2009)                                                                                                        150                                
PRCFAMCHA090302081401081414000013MMM - 04 - KIM POSSIBLE (:11 - :13) (OCT08)                                                                                 150                                
PRCFAMCHA090302081414081444000030FOD - March Movies from March 16-30 3x4 A Day (Mar                                                                          150                                
PROFAMCHA090302081444081509000025Recess - CAREER DAY (MD) - (JULY06) - This morn @                                                                           150                                
PRCFAMCHA090302081509081515000006Family Bumpers - Reptile Pet - Elephant (MD/NS/NSW                                                                          150                                
PGRFAMCHA090302081515081645000130What's The Word - Phineas & Ferb - Daze Of Summer                                                                     A60688120                                
PROFAMCHA090302081645081700000015Kim Possible RON POSSIBLE (MMM) Coming Up Next (OC                                                                          150                                
PRCFAMCHA090302081700081735000035Family Games Spot - Starting March 6th - 3/4 Day (                                                                          150                                
PROFAMCHA090302081735081754000019MadMadMornings Block Open                                                                                                   150                                
PRCFAMCHA090302081754081803000009CC Disclaimer - FAST - Generic (:09-:10)                                                                                    150                                
PGRFAMCHA090302081803084057002254Disney's Kim Possible                             EPS # 1-046                                                         A6068607ECC                              
PRCFAMCHA090302084057084110000013FJR - 07 - IMAGINATION MOVERS/FRANNY'S FEET (JAN09                                                                          150                                
PROFAMCHA090302084110084201000051PH-D Promo - Tigger & Pooh Mystery Week - Starting                                                                          150                                
PRCFAMCHA090302084201084236000035Franny's Feet (FJR) GENERIC - This Morning @ 9:10                                                                           150                                
PROFAMCHA090302084236084316000040Disney on Ice - Worlds Of Fantasy - Bounce On Fami                                                                          150                                
PROFAMCHA090302084316084416000100Tigger and Pooh (FJR) SUPER SLEUTH - This Morning                                                                           150                                
PROFAMCHA090302084416084446000030Imagination Movers (FJR) Coming Up Next (JAN09)                                                                             150                                
ID FAMCHA090302084446084501000015Family Jr. Block Open (:14-:17) (JUL08)                                                                                     150                                
PRCFAMCHA090302084501084510000009CC Disclaimer - FAST - Family.ca (:09-:10)                                                                                  150                                
PGRFAMCHA090302084510090910002400Disney Imagination Movers                         EP: 22                                                               6068607ACC                              
PRCFAMCHA090302090910090916000006Astral ID (FEB 2009)                                                                                                        150                                
PRCFAMCHA090302090916090925000009FJR - 08 - FRANNY'S FEET/TIGGER & POOH (:09 - :12)                                                                          150                                
PRCFAMCHA090302090925090950000025PH-D Promo - Ohh & Ahh PH-D Throw 2009 - Call Your                                                                          150                                
PRCFAMCHA090302090950091025000035Franny's Feet (FJR) GENERIC - Coming Up Next (JUL0                                                                          150                                
PROFAMCHA090302091025091034000009PH-D Promo - Ooh & Aah Web Throw - PH-D.CA                                                                                  150                                
PRCFAMCHA090302091034091048000014Family Jr. Bumper - Collide (:11- :14) (JUL08)                                                                              150                                
PRCFAMCHA090302091048091058000010CC Disclaimer - FAST - Generic (:09-:10)                                                                                    150                                
PGRFAMCHA090302091058093328002230Franny's Feet                                     EPS # 23                                                      C23971 1065607ECC                              
PRCFAMCHA090302093328093339000011FJR - 09 - TIGGER & POOH/MICKEY MOUSE CLUBHOUSE (:                                                                          150                                
PROFAMCHA090302093339093430000051PH-D Promo - Tigger & Pooh Mystery Week - Starting                                                                          150                                
PROFAMCHA090302093430093501000031Mickey Mouse Clubhouse (FJR) GENERIC - This Mornin                                                                          150                                
PROFAMCHA090302093501093541000040Disney on Ice - Worlds Of Fantasy - Bounce On Fami                                                                          150                                
PROFAMCHA090302093541093641000100Tigger and Pooh (FJR) SUPER SLEUTH - Coming Up Nex                                                                          150                                
PRCFAMCHA090302093641093653000012Family Jr. Bumper - Music (:11- :14) (JUL08)                                                                                150                                
PRCFAMCHA090302093653093702000009CC Disclaimer - FAST - Family.ca (:09-:10)                                                                                  150                                
PGRFAMCHA090302093702100105002403Disney My Friends Tigger and Pooh                 EP: 02                                                               6068607ECC                              
PRCFAMCHA090302100105100111000006Astral ID (FEB 2009)                                                                                                        150                                
PRCFAMCHA090302100111100122000011FJR - 10 - MICKEY MOUSE CLUBHOUSE/HANDY MANNY (:10                                                                          150                                
PRCFAMCHA090302100122100147000025PH-D Promo - Ohh & Ahh PH-D Throw 2009 - Call Your                                                                          150                                
PROFAMCHA090302100147100202000015Handy Manny (FJR) HOP UP/JUMP IN SHORT- This Morni                                                                          150                                
PRCFAMCHA090302100202100232000030Benjamin Bear (FJR) GENERIC - This Morning @ 10:55                                                                          150                                
PRCFAMCHA090302100232100302000030King (FJR) GENERIC - This Morning @ 11:25 (JUL08)                                                                           150                                
PROFAMCHA090302100302100318000016Mickey Mouse Clubhouse (FJR) GENERIC - Coming Up N                                                                          150                                
PROFAMCHA090302100318100327000009PH-D Promo - Ooh & Aah Web Throw - PH-D.CA                                                                                  150                                
PRCFAMCHA090302100327100343000016Family Jr. Bumper - Portal (:14- :17) (JUL08)                                                                               150                                
ID FAMCHA090302100343100351000008Magic of Disney - PLAYHOUSE - Shape (:06-:09)                                                                               150                                
PRCFAMCHA090302100351100400000009CC Disclaimer - FAST - Generic (:09-:10)                                                                                    150                                
PGRFAMCHA090302100400102802002402Disney's Mickey Mouse Clubhouse                   EP: 17                                                               6068607ECC                              
PRCFAMCHA090302102802102813000011FJR - 11 - HANDY MANNY/BENJAMIN BEAR (:10 - :13) (                                                                          150                                
PROFAMCHA090302102813102904000051PH-D Promo - Tigger & Pooh Mystery Week - Starting                                                                          150                                
PROFAMCHA090302102904102934000030Handy Manny (FJR) NEIGHBOURS - Coming Up Next (JUL                                                                          150                                
PRCFAMCHA090302102934102945000011Family Jr. Bumper - Acrobat (:10- :13) (JUL08)                                                                              150                                
ID FAMCHA090302102945102953000008Magic of Disney - PLAYHOUSE - Wipe (:06-:09)                                                                                150                                
PRCFAMCHA090302102953103002000009CC Disclaimer - FAST - Family.ca (:09-:10)                                                                                  150                                
PGRFAMCHA090302103002105407002405Handy Manny                                       EP: 20                                                               6068607ECC                              
PRCFAMCHA090302105407105413000006Astral ID (FEB 2009)                                                                                                        150                                
PRCFAMCHA090302105413105424000011FJR - 12 - BENJAMIN BEAR/KING (:10 - :13) (JULY08)                                                                          150                                
PROFAMCHA090302105424105515000051PH-D Promo - Tigger & Pooh Mystery Week - Starting                                                                          150                                
PRCFAMCHA090302105515105545000030King (FJR) GENERIC - This Morning @ 11:25 (JUL08)                                                                           150                                
PROFAMCHA090302105545105625000040Disney on Ice - Worlds Of Fantasy - Bounce On Fami                                                                          150                                
PRCFAMCHA090302105625105655000030Benjamin Bear (FJR) GENERIC - Coming Up Next (JUL0                                                                          150                                
PRCFAMCHA090302105655105707000012Family Jr. Bumper - Collide (:11- :14) (JUL08)                                                                              150                                
PRCFAMCHA090302105707105716000009CC Disclaimer - FAST - Generic (:09-:10)                                                                                    150                                
PGRFAMCHA090302105716111951002235The Secret World Of Benjamin Bear                 EPS # 1-008                                                   B75153 1065607ECC                              
PRCFAMCHA090302111951112001000010FJR - 13 - KING/RECESS (:09 - :12) (JULY08)                                                                                 150                                
PROFAMCHA090302112001112052000051PH-D Promo - Tigger & Pooh Mystery Week - Starting                                                                          150                                
PROFAMCHA090302112052112122000030Imagination Movers (FJR) Tomorrow Morning @ 8:45am                                                                          150                                
PRCFAMCHA090302112122112157000035Franny's Feet (FJR) GENERIC - Tomorrow Morning @ 9                                                                          150                                
PROFAMCHA090302112157112242000045Tigger and Pooh (FJR) POOH SELL - Tomorrow Morning                                                                          150                                
PROFAMCHA090302112242112313000031Mickey Mouse Clubhouse (FJR) GENERIC - Tomorrow Mo                                                                          150                                
