SO FAMCHA070301043000043011000011Sign On (oct 1)                                                                                                                                                
PRCFAMCHA070301043011043020000009CC Disclaimer - FAST - Family.ca (:08-:10) $$$                                                                              150                                
PGRFAMCHA070301043020045658002638Katie And Orbie                                   EP: 6-078                                                     B62281A1065607ECC                              
PRCFAMCHA070301045658045713000015PH - 04 - FRANNY/SOMETHING/HOZE  (:14 - :16) (APR0                                                                          150                                
ID FAMCHA070301045713045726000013PS Playhouse AM Block Open (:10-:15) $$$                                                                                    150                                
PRCFAMCHA070301045726045735000009CC Disclaimer - FAST - Generic (:08-:10) $$$                                                                                150                                
PGRFAMCHA070301045735052005002230Franny's Feet                                     EPS # 24                                                      C23971 1065607ECC                              
PRCFAMCHA070301052005052010000005Astral ID (FEB05) $$$                                                                                                       150                                
PRCFAMCHA070301052010052026000016PH - 05 - SOMETHING/HOZE/KING (:14 - :16) (APR06)                                                                           150                                
ID FAMCHA070301052026052039000013PS Playhouse AM Block Open (:10-:15) $$$                                                                                    150                                
PRCFAMCHA070301052039052048000009CC Disclaimer - FAST - Family.ca (:08-:10) $$$                                                                              150                                
PGRFAMCHA070301052048054319002231Something Else                                    EPS # 1-006                                                   B69260A1065607ECC                              
PRCFAMCHA070301054319054335000016PH - 06 - HOZE/KING/SPIDERMAN (:14 - :16) (APR06)                                                                           150                                
ID FAMCHA070301054335054348000013PS Playhouse AM Block Open (:10-:15) $$$                                                                                    150                                
PRCFAMCHA070301054348054357000009CC Disclaimer - FAST - Generic (:08-:10) $$$                                                                                150                                
PGRFAMCHA070301054357060635002238Hoze Houndz                                       EP: 5-062                                                     B63398A1065607ECC                              
PRCFAMCHA070301060635060640000005Astral ID (FEB05) $$$                                                                                                       150                                
PRCFAMCHA070301060640060656000016PH - 07 - KING/SPIDERMAN/KIM  (:14 - :16) (APR06)                                                                           150                                
ID FAMCHA070301060656060709000013PS Playhouse AM Block Open (:10-:15) $$$                                                                                    150                                
PRCFAMCHA070301060709060718000009CC Disclaimer - FAST - Family.ca (:08-:10) $$$                                                                              150                                
PGRFAMCHA070301060718062948002230King                                              EP: 4-040                                                     C25350A1065607ECC                              
PRCFAMCHA070301062948063004000016PH - 08- SPIDERMAN/KIM ( (:14 - :16) (APR06) $$$                                                                            150                                
PROFAMCHA070301063004063023000019MadMadMornings Block Open $$$                                                                                               150                                
PGRFAMCHA070301063023065206002143Spiderman                                         EP: 01                                                        C02618 1065607E                                
PRCFAMCHA070301065206065211000005Astral ID (FEB05) $$$                                                                                                       150                                
PRCFAMCHA070301065211065226000015MMM - 01 (AM) - KIM/RECESS/WEEKENDERS (OCT05) (:14                                                                          150                                
PROFAMCHA070301065226065258000032xxKim Possible RON FACTOR (MMM) (July 06)  Coming                                                                           150                                
PROFAMCHA070301065258065328000030Jump In Soundtrack (Avail Now) (Jan 30-Apr22) $$$                                                                           150                                
PROFAMCHA070301065328065404000036Weekenders - PIZZA (MMM) - (APR06) - This Morning                                                                           150                                
PROFAMCHA070301065404065411000007MadMadMornings Bumper                                                                                                       150                                
PROFAMCHA070301065411065433000022Fillmore! - POLLY (MD) (APR06) - This Afternoon @                                                                           150                                
PGRFAMCHA070301065433065517000044xxMovie Surfers - Meet the Robinsons - Suite Life                                                                     A60688120                                
PROFAMCHA070301065517065542000025xxRecess Sketches OCT 06 - TELEPHONE - cut 11                                                                               150                                
PROFAMCHA070301065542065601000019MadMadMornings Block Open $$$                                                                                               150                                
PRCFAMCHA070301065601065610000009CC Disclaimer - FAST - Family.ca (:08-:10) $$$                                                                              150                                
PGRFAMCHA070301065610071902002252Disney's Kim Possible                             EPS # 1-051                                                         A6068607ECC                              
PRCFAMCHA070301071902071917000015MMM - 02 (AM) - RECESS/WEEKENDERS/LILO (OCT05) (:1                                                                          150                                
PROFAMCHA070301071917071941000024Recess - MONTAGE (MMM) - (JULY06) - Coming Up Next                                                                          150                                
PROFAMCHA070301071941072014000033Peter Pan DVD (Avail March 6) (Feb 22-Mar5) $$$                                                                             150                                
PROFAMCHA070301072014072039000025xxLilo & Stitch (MMM) (APR06) CRAM - This Morning                                                                           150                                
PROFAMCHA070301072039072049000010FAMJAM - Open/Close                                                                                                         150                                
PGRFAMCHA070301072049072222000133MV Disney - Superstition (Raven)                                                                                       60688120                                
PROFAMCHA070301072222072236000014xxFAMJAM - Close (FAMILY) xxDNUxx                                                                                           150                                
PROFAMCHA070301072236072254000018xxDave the Barbarian - COOL PANT (MD) - This After                                                                          150                                
PRCFAMCHA070301072254072323000029Family Lab- Hair Growth Cream Cutdown - I Grew Up                                                                           150                                
PROFAMCHA070301072323072344000021Wendy Wu: HW Sat @ 1:30 (Sept06)                                                                                            150                                
PROFAMCHA070301072344072403000019MadMadMornings Block Open $$$                                                                                               150                                
PGRFAMCHA070301072403074638002235Disney's Recess                                   EP: 1-019                                                            6068607E                                
PRCFAMCHA070301074638074643000005Astral ID (FEB05) $$$                                                                                                       150                                
PRCFAMCHA070301074643074658000015PH - 09 - WEEKENDERS/LILO/EINSTEINS (:14 - :16) (A                                                                          150                                
PROFAMCHA070301074658074734000036Weekenders - PIZZA (MMM) - (APR06) - Coming Up Nex                                                                          150                                
PGRFAMCHA070301074734074904000130xxMovie Surfers - Meet the Robinsons - Coming Soon                                                                    A60688120                                
PROFAMCHA070301074904074920000016xxKim Possible FINGER TAUNT (MD) (July 06) This af                                                                          150                                
PROFAMCHA070301074920074944000024Lloyd In Space (DATE) (JUNE06) MD- This aftternoon                                                                          150                                
PRCFAMCHA070301074944075020000036Famous Players Popcorn Parties REVISED (Nov06) 3/d                                                                          150                                
PROFAMCHA070301075020075045000025xxRecess Sketches OCT 06 - TELEPHONE - cut 10                                                                               150                                
PROFAMCHA070301075045075104000019MadMadMornings Block Open $$$                                                                                               150                                
PRCFAMCHA070301075104075113000009CC Disclaimer - FAST - Generic (:08-:10) $$$                                                                                150                                
PGRFAMCHA070301075113081407002254Disney's The Weekenders                           EP: 1-003                                                           A6068607ECC                              
PRCFAMCHA070301081407081422000015PH - 10 - LILO/EINSTEINS/WINNIE (:14 - :16) (APR06                                                                          150                                
PROFAMCHA070301081422081447000025xxLilo & Stitch (MMM) (APR06) CRAM- coming up Next                                                                          150                                
PROFAMCHA070301081447081520000033Peter Pan DVD (Avail March 6) (Feb 22-Mar5) $$$                                                                             150                                
PRCFAMCHA070301081520081531000011Family Bumpers - (Phase 2 F/W 04) - Science (MD-AM                                                                          150                                
PROFAMCHA070301081531081541000010FAMJAM - Open/Close                                                                                                         150                                
PGRFAMCHA070301081541081711000130MV Disney - (MD/NSW) - Kim Possible (Jesse McCartn                                                                     60688120                                
PROFAMCHA070301081711081725000014xxFAMJAM - Close (FAMILY) xxDNUxx                                                                                           150                                
PROFAMCHA070301081725081746000021Wendy Wu: HW Sat @ 1:30 (Sept06)                                                                                            150                                
PROFAMCHA070301081746081805000019MadMadMornings Block Open $$$                                                                                               150                                
PGRFAMCHA070301081805084044002239Disney's Lilo & Stitch: The Series                EP: 59                                                               6068607E                                
PRCFAMCHA070301084044084049000005Astral ID (FEB05) $$$                                                                                                       150                                
PRCFAMCHA070301084049084105000016PH - 11 -EINSTEINS/WINNIE/BEAR  (:14 - :16) (NOV06                                                                          150                                
PROFAMCHA070301084105084135000030Little Einstein (PH) (PRESCHOOL) - Coming Up Next                                                                           150                                
PRCFAMCHA070301084135084202000027Playhouse Web Promo - Family.ca                                                                                             150                                
PROFAMCHA070301084202084220000018xxJojo's Circus - HIP HOP - OCT 06 - This morn @ 1                                                                          150                                
PGRFAMCHA070301084220084340000120They Might Be Giants (ABC's) - Go for G                                                                                60688120                                
PROFAMCHA070301084340084440000100Mickey Mouse Clubhouse (Video 1) Tomorrow morn @ 1                                                                          150                                
ID FAMCHA070301084440084455000015PS Playhouse AM Block Open (:10-:15) $$$                                                                                    150                                
PGRFAMCHA070301084455090900002405Disney's Little Einsteins                         EP: 10                                                               6068607E                                
PRCFAMCHA070301090900090916000016PH - 12 -WINNIE/BEAR/JOJO  (:14 - :16) (NOV06) $$$                                                                          150                                
PROFAMCHA070301090916090946000030Winnie the Pooh (PH/AM) (APR06) - Coming Up Next                                                                            150                                
PRCFAMCHA070301090946091013000027xxPlayhouse - HENRY'S WORLD - Snowball (WINTER)                                                                             150                                
PRCFAMCHA070301091013091044000031King (PH) (APR06) - This Morning @ 11:25am                                                                                  150                                
ID FAMCHA070301091044091057000013PS Playhouse AM Block Open (:10-:15) $$$                                                                                    150                                
PRCFAMCHA070301091057091106000009CC Disclaimer - FAST - Family.ca (:08-:10) $$$                                                                              150                                
PGRFAMCHA070301091106093343002237The New Adventures of Winnie the Pooh             EP: 1-050                                                            6068607ECC                              
PRCFAMCHA070301093343093348000005Astral ID (FEB05) $$$                                                                                                       150                                
PRCFAMCHA070301093348093403000015PH - 13 -BEAR/JOJO/JOHNNY (:14 - :16) (FEB07) $$$                                                                           150                                
PROFAMCHA070301093403093419000016Jojo's Circus - MAGIC - OCT 06 - This morn @ 10:05                                                                          150                                
PGRFAMCHA070301093419093719000300They Might Be Giants (ABC's) - Can You Find It?                                                                        60688120                                
PRCFAMCHA070301093719093734000015Franny's Feet - Bowleriffic (PH-Mon) - (APR06) - T                                                                          150                                
ID FAMCHA070301093734093747000013PS Playhouse AM Block Open (:10-:15) $$$                                                                                    150                                
PRCFAMCHA070301093747093756000009CC Disclaimer - FAST - Generic (:08-:10) $$$                                                                                150                                
PGRFAMCHA070301093756100201002405Bear In the Big Blue House                        EP: 033                                                              2068607ECC                              
PRCFAMCHA070301100201100217000016PH - 14 -JOJO/JOHNNY/HIGGLY (:14- :16) (FEB07) $$$                                                                          150                                
PROFAMCHA070301100217100235000018xxJojo's Circus - HIP HOP - OCT 06 - Coming Up Nex                                                                          150                                
PROFAMCHA070301100235100305000030Little Einstein (PH) (PRESCHOOL) - Tomorrow @ 8:45                                                                          150                                
PROFAMCHA070301100305100405000100Mickey Mouse Clubhouse (Video 2) Tomorrow morn @ 1                                                                          150                                
ID FAMCHA070301100405100418000013PS Playhouse AM Block Open (:10-:15) $$$                                                                                    150                                
PGRFAMCHA070301100418102823002405JoJo's Circus                                     EP: 44                                                               6068607E                                
PRCFAMCHA070301102823102828000005Astral ID (FEB05) $$$                                                                                                       150                                
PRCFAMCHA070301102828102843000015PH - 15 -JOHNNY/HIGGLY/KING  (:14 - :16) (FEB07) $                                                                          150                                
PRCFAMCHA070301102843102914000031King (PH) (APR06) - This Morning @ 11:25am                                                                                  150                                
PROFAMCHA070301102914103020000106Playhouse - WINNIE THE POOH - Christopher Robin                                                                             150                                
PROFAMCHA070301103020103050000030Winnie the Pooh (PH/AM) (APR06) - Tomorrow Morning                                                                          150                                
ID FAMCHA070301103050103103000013PS Playhouse AM Block Open (:10-:15) $$$                                                                                    150                                
ID FAMCHA070301103103103111000008Magic of Disney - PLAYHOUSE - Shape (:06-:09) $$$                                                                           150                                
PRCFAMCHA070301103111103120000009CC Disclaimer - FAST - Generic (:08-:10) $$$                                                                                150                                
PGRFAMCHA070301103120105529002409Johnny and the Sprites                            EP: 04                                                               6028607ECC                              
PRCFAMCHA070301105529105545000016PH - 16 -HIGGLY/KING/RECESS (:14- :16) (FEB07) $$$                                                                          150                                
PROFAMCHA070301105545105615000030Higglytown - Kids Love - PH Coming Up Next                                                                                  150                                
PRCFAMCHA070301105615105627000012Family Bumpers - (Phase 1 Spring 04) - Funhouse (P                                                                          150                                
PRCFAMCHA070301105627105647000020Benjamin Bear - Snack (PHwknd) (APR06) - Weekend M                                                                          150                                
ID FAMCHA070301105647105702000015PS Playhouse AM Block Open (:10-:15) $$$                                                                                    150                                
ID FAMCHA070301105702105711000009Magic of Disney - PLAYHOUSE - Wipe (:06-:09) $$$                                                                            150                                
PGRFAMCHA070301105711112116002405Higglytown Heroes                                 EP: 46                                                               6068607E                                
PRCFAMCHA070301112116112121000005Astral ID (FEB05) $$$                                                                                                       150                                
PRCFAMCHA070301112121112135000014PH - 17 -KING/RECESS/KIM (:14 - :16) (APR06) $$$                                                                            150                                
PRCFAMCHA070301112135112206000031King (PH) (APR06) - Coming Up Next                                                                                          150                                
PGRFAMCHA070301112206112316000110They Might Be Giants (ABC's) - Letter/Not A Letter                                                                     60688120                                
PROFAMCHA070301112316112346000030Little Einstein (PH) (PRESCHOOL) - Tomorrow @ 8:45                                                                          150                                
PROFAMCHA070301112346112446000100Mickey Mouse Clubhouse (Video 1) Tomorrow morn @ 1                                                                          150                                
ID FAMCHA070301112446112456000010PS Playhouse AM Block Open (:10-:15) $$$                                                                                    150                                
PRCFAMCHA070301112456112505000009CC Disclaimer - FAST - Family.ca (:08-:10) $$$                                                                              150                                
PGRFAMCHA070301112505114735002230King                                              EPS # 033                                                     C25350A1065607ECC                              
PRCFAMCHA070301114735114747000012MD - 01 - RECESS/KIM (APR06) (:11 - :13) $$$                                                                                150                                
PROFAMCHA070301114747114832000045Recess - SNACKS FOR SNITCHES (MD) - (MAY06) - Comi                                                                          150                                
PROFAMCHA070301114832114853000021Wendy Wu: HW Sat @ 1:30 (Sept06)                                                                                            150                                
PROFAMCHA070301114853114910000017Mad Dash Block Open (:16-:18) APR06 $$$                                                                                     150                                
PGRFAMCHA070301114910121146002236Disney's Recess                                   EP: 1-039                                                           A6068607E                                
PRCFAMCHA070301121146121151000005Astral ID (FEB05) $$$                                                                                                       150                                
PRCFAMCHA070301121151121203000012MD - 02 - KIM/WEEKENDERS (APR06) (:11 - :13) $$$                                                                            150                                
PROFAMCHA070301121203121219000016xxKim Possible FINGER TAUNT (MD) (July 06) Coming                                                                           150                                
PROFAMCHA070301121219121244000025xxRecess Sketches OCT 06 - TELEPHONE - cut 09                                                                               150                                
PRCFAMCHA070301121244121252000008MD Bumper - $$$ Ski Race (:07-:09) APR06                                                                                    150                                
PRCFAMCHA070301121252121301000009CC Disclaimer - FAST - Generic (:08-:10) $$$                                                                                150                                
PGRFAMCHA070301121301123551002250Disney's Kim Possible                             EP: 1-015                                                           A6068607ECC                              
PRCFAMCHA070301123551123604000013MD - 03 - WEEKENDERS/AMERICAN DRAGON (JAN07) (:11                                                                           150                                
PROFAMCHA070301123604123640000036Weekenders - PIZZA (MD) - (APR06) - Coming Up Next                                                                          150                                
PRCFAMCHA070301123640123657000017MD Bumper - $$$ Shopping Race (:15-:17) APR06                                                                               150                                
PRCFAMCHA070301123657123706000009CC Disclaimer - FAST - Family.ca (:08-:10) $$$                                                                              150                                
PGRFAMCHA070301123706125956002250Disney's The Weekenders                           EP: 1-010                                                           A6068607ECC                              
PRCFAMCHA070301125956130001000005Astral ID (FEB05) $$$                                                                                                       150                                
PRCFAMCHA070301130001130013000012MD - 04 - AMERICAN DRAGON/EMPEROR (JAN07) (:11 - :                                                                          150                                
PRCFAMCHA070301130013130022000009MD Bumper - $$$ Race Cars (:08-:10) JUNE06                                                                                  150                                
PGRFAMCHA070301130022132258002236Disney's American Dragon:  Jake Long              EP: 22                                                               6028607E                                
PRCFAMCHA070301132258132310000012MD - 05 - EMPEROR/LILO (JAN07) (:11 - :13) $$$                                                                              150                                
PROFAMCHA070301132310132332000022Fillmore! - POLLY (MD) (APR06) - This Afternoon @                                                                           150                                
PROFAMCHA070301132332132353000021Wendy Wu: HW Sat @ 1:30 (Sept06)                                                                                            150                                
PRCFAMCHA070301132353132401000008MD Bumper - $$$ Ski Race (:07-:09) APR06                                                                                    150                                
PGRFAMCHA070301132401134638002237Disney's The Emperor's New School                 EP: 03                                                               6068807E                                
PRCFAMCHA070301134638134643000005Astral ID (FEB05) $$$                                                                                                       150                                
PRCFAMCHA070301134643134655000012MD - 06 - LILO/FILLMORE! (APR06) (:11 - :13) $$$                                                                            150                                
PROFAMCHA070301134655134720000025xxLilo & Stitch (MD) CRAM (APR06) - Coming UP Next                                                                          150                                
PROFAMCHA070301134720134744000024Recess - MONTAGE (MD) - JULY06 - This afternoon @                                                                           150                                
PRCFAMCHA070301134744134800000016MD Bumper - $$$ Shopping Race (:15-:17) APR06                                                                               150                                
PGRFAMCHA070301134800141039002239Disney's Lilo & Stitch: The Series                EPS # 46                                                             6068607E                                
PRCFAMCHA070301141039141051000012MD - 07 - FILLMORE!/PROUD (APR06) (:11 - :13) $$$                                                                           150                                
PROFAMCHA070301141051141113000022Fillmore! - POLLY (MD) (APR06) - coming up next                                                                             150                                
PROFAMCHA070301141113141138000025xxRecess Sketches OCT 06 - TELEPHONE - cut 08                                                                               150                                
PROFAMCHA070301141138141147000009Raven ID's II - You're Watching Family, NADM                                                                                150                                
PRCFAMCHA070301141147141156000009MD Bumper - $$$ Race Cars (:08-:10) JUNE06                                                                                  150                                
PGRFAMCHA070301141156143434002238Disney's Fillmore!                                EPS # 1-020                                                         A6068607E                                
PRCFAMCHA070301143434143439000005Astral ID (FEB05) $$$                                                                                                       150                                
PRCFAMCHA070301143439143451000012MD - 08 - PROUD/WEEKENDERS (APR06) (:11 - :13) $$$                                                                          150                                
PROFAMCHA070301143451143525000034Proud Family (APR06) GET BURNED (MD) - Coming Up N                                                                          150                                
PROFAMCHA070301143525143555000030Replacements (FEB07) BABYSITTER (NSW) - Weekends @                                                                          150                                
PRCFAMCHA070301143555143603000008MD Bumper - $$$ Ski Race (:07-:09) APR06                                                                                    150                                
ID FAMCHA070301143603143611000008Magic of Disney - MAD DASH - Shape (:06-:09) $$$                                                                            150                                
PRCFAMCHA070301143611143620000009CC Disclaimer - FAST - Generic (:08-:10) $$$                                                                                150                                
PGRFAMCHA070301143620145851002231The Proud Family                                  EP: 2-028                                                           A6068607ECC                              
PRCFAMCHA070301145851145903000012MD - 09 - WEEKENDERS/LLOYD (APR06) (:11 - :13) $$$                                                                          150                                
PROFAMCHA070301145903145924000021Wendy Wu: HW Sat @ 1:30 (Sept06)                                                                                            150                                
PROFAMCHA070301145924145957000033Peter Pan DVD (Avail March 6) (Feb 22-Mar5) $$$                                                                             150                                
PROFAMCHA070301145957150014000017Mad Dash Block Open (:16-:18) APR06 $$$                                                                                     150                                
PRCFAMCHA070301150014150023000009CC Disclaimer - FAST - Family.ca (:08-:10) $$$                                                                              150                                
PGRFAMCHA070301150023152256002233Disney's The Weekenders                           EP: 1-022                                                           A6068607ECC                              
PRCFAMCHA070301152256152301000005Astral ID (FEB05) $$$                                                                                                       150                                
PRCFAMCHA070301152301152313000012MD - 10 - LLOYD/DAVE (APR06) (:11 - :13) $$$                                                                                150                                
PROFAMCHA070301152313152350000037Lloyd In Space (Star Wars) (APR06) - Coming Up Nex                                                                          150                                
PRCFAMCHA070301152350152426000036Famous Players Popcorn Parties REVISED (Nov06) 3/d                                                                          150                                
PROFAMCHA070301152426152444000018xxDave the Barbarian - COOL PANT (MD) - This After                                                                          150                                
PRCFAMCHA070301152444152500000016MD Bumper - $$$ Shopping Race (:15-:17) APR06                                                                               150                                
PGRFAMCHA070301152500154753002253Disney's Lloyd In Space                           EP: 33                                                               6068607E                                
PRCFAMCHA070301154753154805000012MD - 11 - DAVE/PROUD (APR06) (:11 - :13) $$$                                                                                150                                
PROFAMCHA070301154805154838000033xxDave the Barbarian - RACE CAR (MD) - Coming Up                                                                            150                                
PROFAMCHA070301154838154911000033Peter Pan DVD (Avail March 6) (Feb 22-Mar5) $$$                                                                             150                                
PROFAMCHA070301154911154945000034Proud Family (APR06) GET BURNED (MD) - This Aftern                                                                          150                                
PROFAMCHA070301154945154955000010FAMJAM - Open/Close                                                                                                         150                                
PGRFAMCHA070301154955155110000115MV Disney - (FAMILY HITS) - Naked Mole Rap                                                                             60688120                                
PROFAMCHA070301155110155124000014xxFAMJAM - Close (FAMILY) xxDNUxx                                                                                           150                                
PROFAMCHA070301155124155149000025xxRecess Sketches OCT 06 - TELEPHONE - cut 07                                                                               150                                
PRCFAMCHA070301155149155158000009MD Bumper - $$$ Race Cars (:08-:10) JUNE06                                                                                  150                                
PRCFAMCHA070301155158155207000009CC Disclaimer - FAST - Family.ca (:08-:10) $$$                                                                              150                                
PGRFAMCHA070301155207161445002238Disney's Dave the Barbarian                       EPS # 06                                                             6068607ECC                              
PRCFAMCHA070301161445161450000005Astral ID (FEB05) $$$                                                                                                       150                                
PRCFAMCHA070301161450161502000012MD - 12 - PROUD/RECESS (APR06) (:11 - :13) $$$                                                                              150                                
PROFAMCHA070301161502161536000034Proud Family (JULY06) MOM YELLS (MD) -  Coming Up                                                                           150                                
PROFAMCHA070301161536161617000041Zoey 101 VIP Fashion Spree Contest (Feb 26-June 3)                                                                          150                                
PROFAMCHA070301161617161633000016xxKim Possible FINGER TAUNT (MD) (July 06) This af                                                                          150                                
PROFAMCHA070301161633161654000021Wendy Wu: HW Sat @ 1:30 (Sept06)                                                                                            150                                
PRCFAMCHA070301161654161702000008MD Bumper - $$$ Ski Race (:07-:09) APR06                                                                                    150                                
ID FAMCHA070301161702161710000008Magic of Disney - MAD DASH - Wipe (:06-:09) $$$                                                                             150                                
PRCFAMCHA070301161710161719000009CC Disclaimer - FAST - Generic (:08-:10) $$$                                                                                150                                
PGRFAMCHA070301161719163947002228The Proud Family                                  EP: 1-021                                                           A6068607ECC                              
PRCFAMCHA070301163947163959000012MD - 13 - RECESS/KIM (APR06) (:11 - :13) $$$                                                                                150                                
PROFAMCHA070301163959164044000045Recess - SNACKS FOR SNITCHES (MD) - (MAY06) - Comi                                                                          150                                
PROFAMCHA070301164044164122000038Bratz Fashion Pixies DVD Contest Avail Now (Feb 27                                                                          150                                
PROFAMCHA070301164122164138000016xxKim Possible FINGER TAUNT (MD) (July 06) This af                                                                          150                                
PRCFAMCHA070301164138164214000036Famous Players Popcorn Parties REVISED (Nov06) 3/d                                                                          150                                
PROFAMCHA070301164214164244000030Replacements (FEB07) LIBRARIAN (NSW) - Weekends @                                                                           150                                
PRCFAMCHA070301164244164300000016MD Bumper - $$$ Shopping Race (:15-:17) APR06                                                                               150                                
PGRFAMCHA070301164300170536002236Disney's Recess                                   EP: 1-014                                                            6068607E                                
PRCFAMCHA070301170536170541000005Astral ID (FEB05) $$$                                                                                                       150                                
PRCFAMCHA070301170541170554000013MD - 20 (PM-M-TH) - KIM/SUITE (JULY06) (:11-:13) $                                                                          150                                
PROFAMCHA070301170554170610000016xxKim Possible FINGER TAUNT (MD) (July 06) Coming                                                                           150                                
PROFAMCHA070301170610170642000032Hannah Montana CD (Avail Now) (Feb9-Apr6)                                                                                   150                                
PROFAMCHA070301170642170721000039Suite Life of Z & C -MD Girlfriend - This afternoo                                                                          150                                
PROFAMCHA070301170721170751000030Lizzie McGuire - (Romeo) (APR06) (NSW/AM) - Weeken                                                                          150                                
PRCFAMCHA070301170751170800000009MD Bumper - $$$ Race Cars (:08-:10) JUNE06                                                                                  150                                
PRCFAMCHA070301170800170809000009CC Disclaimer - FAST - Family.ca (:08-:10) $$$                                                                              150                                
PGRFAMCHA070301170809173102002253Disney's Kim Possible                             EPS # 1-061                                                          6068607ECC                              
PRCFAMCHA070301173102173114000012MD - 21 (PM-M-TH) - SUITE/LITTLE (JULY06) (:11-:13                                                                          150                                
PROFAMCHA070301173114173144000030xxSuite Life of Z & C -MD Girlfriend 2 - Coming Up                                                                          150                                
PROFAMCHA070301173144173214000030Jump In Soundtrack (Avail Now) (Jan 30-Apr22) $$$                                                                           150                                
PROFAMCHA070301173214173244000030Replacements (FEB07) BABYSITTER (NSW) - Weekends @                                                                          150                                
PROFAMCHA070301173244173325000041Zoey 101 VIP Fashion Spree Contest (Feb 26-June 3)                                                                          150                                
PROFAMCHA070301173325173346000021Wendy Wu: HW Sat @ 1:30 (Sept06)                                                                                            150                                
PROFAMCHA070301173346173355000009Suite Life ID - You're watching Suite Life on Fami                                                                          150                                
PRCFAMCHA070301173355173403000008MD Bumper - $$$ Ski Race (:07-:09) APR06                                                                                    150                                
ID FAMCHA070301173403173411000008Magic of Disney - MAD DASH - Shape (:06-:09) $$$                                                                            150                                
PRCFAMCHA070301173411173420000009CC Disclaimer - FAST - Generic (:08-:10) $$$                                                                                150                                
PRCFAMCHA070301173420173425000005Astral ID (FEB05) $$$                                                                                                       150                                
PGRFAMCHA070301173425175703002238Suite Life of Zack and Cody, The - Season 2       EP: 62                                                               6028607ECC                              
PRCFAMCHA070301175703175715000012NS - 01 - TIME/DARCY (APR06) (:11 - :13) $$$                                                                                150                                
PROFAMCHA070301175715175743000028So Little Time (NS Flat Tire) (APR06) - Coming Up                                                                           150                                
PROFAMCHA070301175743175821000038Bratz Fashion Pixies DVD Contest Avail Now (Feb 27                                                                          150                                
PRCFAMCHA070301175821175835000014Family Bumpers - (Phase 1 Spring 04) - Basketball                                                                           150                                
PROFAMCHA070301175835175905000030Jump In Soundtrack (Avail Now) (Jan 30-Apr22) $$$                                                                           150                                
PRCFAMCHA070301175905175935000030Darcy's Wild Life (NEWS) NS (APR06) - Tonight @ 6:                                                                          150                                
PRCFAMCHA070301175935175946000011Naturally Sadie ID's (NOV06) - Ben - Podcast versi                                                                          150                                
PROFAMCHA070301175946180004000018Nonstop Block Open (:16-:18) APR06 $$$                                                                                      150                                
PGRFAMCHA070301180004182137002133So Little Time                                    EP: 16                                                              A2068607B                                
PRCFAMCHA070301182137182150000013NS - 02 - DARCY/RAVEN (APR06) (:11 - :13) $$$                                                                               150                                
PRCFAMCHA070301182150182159000009Darcy's IDs - Dr. Vet - Nonstop animal fun...next                                                                           150                                
PROFAMCHA070301182159182237000038Bratz Fashion Pixies DVD Contest Avail Now (Feb 27                                                                          150                                
PROFAMCHA070301182237182329000052That's So Raven (JUNE06) SHOW ME (NS) - Tonight @                                                                           150                                
PRCFAMCHA070301182329182401000032Family Lab- Hair Growth Cream Cutdown - Cafeteria                                                                           150                                
PRCFAMCHA070301182401182419000018Life with Derek NS OJ (SEPT06) Tonight at 8:30pm                                                                            150                                
PROFAMCHA070301182419182429000010FAMJAM - Open/Close                                                                                                         150                                
PGRFAMCHA070301182429182725000256MV NON-DISNEY (MD, NS, NSW) - Holly Dolly - The Do                                                                     70688120                                
PROFAMCHA070301182725182739000014xxFAMJAM - Close (FAMILY) xxDNUxx                                                                                           150                                
PROFAMCHA070301182739182816000037xxHannah Montana - NS - Achy Breaky (Oct06) Tomorr                                                                          150                                
PROFAMCHA070301182816182837000021xxNeds DSSG - Rock Idol NS (MAY06) Tomorrow night                                                                           150                                
PROFAMCHA070301182837182909000032Hannah Montana CD (Avail Now) (Feb9-Apr6)                                                                                   150                                
PRCFAMCHA070301182909182942000033xxNaturally Sadie - New Eps Weekend nights @ 6:05                                                                           150                                
PRCFAMCHA070301182942182959000017NS Bumper $$$- Tennis (:15-:17) APR06                                                                                       150                                
PRCFAMCHA070301182959183008000009CC Disclaimer - FAST - Generic (:08-:10) $$$                                                                                150                                
PGRFAMCHA070301183008185138002130Darcy's Wild Life                                 EP: 01                                                        A03948 1065607BCC                              
PRCFAMCHA070301185138185143000005Astral ID (FEB05) $$$                                                                                                       150                                
PRCFAMCHA070301185143185156000013NS - 03 - RAVEN/SMART (APR06) (:11 - :13) $$$                                                                               150                                
PROFAMCHA070301185156185248000052That's So Raven (JUNE06) SHOW ME (NS) - Coming Up                                                                           150                                
PROFAMCHA070301185248185329000041Zoey 101 VIP Fashion Spree Contest (Feb 26-June 3)                                                                          150                                
PROFAMCHA070301185329185400000031xxSmart Guy FIGHT (JUNE06) NS - Tonight @ 7:30                                                                              150                                
PROFAMCHA070301185400185410000010FAMJAM - Open/Close                                                                                                         150                                
PGRFAMCHA070301185410185716000306MV Disney - Superstition (Raven)                                                                                       60688120                                
PROFAMCHA070301185716185730000014xxFAMJAM - Close (FAMILY) xxDNUxx                                                                                           150                                
PROFAMCHA0703011857301857520000228 Simple Rules (APR06) (NS) - BRIDGET DRUMS - Toni                                                                          150                                
PGRFAMCHA070301185752185836000044xxMovie Surfers - Meet the Robinsons - Raven (Feb2                                                                    A60688120                                
PROFAMCHA070301185836185849000013Bonnie - Life With NSW - Weekends @ 8:40 (Sept 06)                                                                          150                                
PROFAMCHA070301185849185927000038Bratz Fashion Pixies DVD Contest Avail Now (Feb 27                                                                          150                                
PROFAMCHA070301185927185948000021Wendy Wu: HW Sat @ 1:30 (Sept06)                                                                                            150                                
PRCFAMCHA070301185948190001000013NS Bumper $$$ - Fashion (:12-:14) JUNE06                                                                                    150                                
ID FAMCHA070301190001190009000008Magic of Disney - NS/NSW/PB - Shape (:06-:09) $$$                                                                           150                                
PRCFAMCHA070301190009190018000009CC Disclaimer - FAST - Family.ca (:08-:10) $$$                                                                              150                                
PGRFAMCHA070301190018192254002236That's So Raven                                   EP: 68                                                               6068607BCC                              
PRCFAMCHA070301192254192306000012NS - 04 - SMART/SUITE (FEB07) (:11 - :13) $$$                                                                               150                                
PROFAMCHA070301192306192336000030xxSmart Guy MOE MUSIC (JUNE06) NS Coming Up Next                                                                            150                                
PROFAMCHA070301192336192409000033Peter Pan DVD (Avail March 6) (Feb 22-Mar5) $$$                                                                             150                                
PROFAMCHA070301192409192429000020Popular (JULY06) (ALI MCB) - Tonight  @ 10pm                                                                                150                                
PRCFAMCHA070301192429192435000006Family Bumpers - (Phase 3 Spring 05) - Bubble Gum                                                                           150                                
PROFAMCHA070301192435192512000037xxHannah Montana - NS - Achy Breaky (Oct06) Tomorr                                                                          150                                
PROFAMCHA070301192512192522000010FAMJAM - Open/Close                                                                                                         150                                
PGRFAMCHA070301192522192806000244MV Disney - Superstition (Raven)                                                                                       60688120                                
PROFAMCHA070301192806192820000014xxFAMJAM - Close (FAMILY) xxDNUxx                                                                                           150                                
PRCFAMCHA070301192820192845000025Life WD Derek ID #1- Casey Tomorrow Night @ 6:30                                                                            150                                
PROFAMCHA070301192845192923000038Bratz Fashion Pixies DVD Contest Avail Now (Feb 27                                                                          150                                
PROFAMCHA070301192923192953000030Sinbad Show NSW Responsible (SEPT06) Weekend morn                                                                           150                                
PRCFAMCHA070301192953193001000008NS Bumper $$$ - Dodgeball (:07-:09) APR06                                                                                   150                                
ID FAMCHA070301193001193009000008Magic of Disney - NS/NSW/PB - Wipe (:06-:09) $$$                                                                            150                                
PRCFAMCHA070301193009193018000009CC Disclaimer - FAST - Generic (:08-:10) $$$                                                                                150                                
PGRFAMCHA070301193018195247002229Smart Guy                                         EP: 1-034                                                           A6068807BCC                              
PRCFAMCHA070301195247195252000005Astral ID (FEB05) $$$                                                                                                       150                                
PRCFAMCHA070301195252195304000012NS - 05 -SUITE/DEREK (FEB07) (:11 - :13) $$$                                                                                150                                
PROFAMCHA070301195304195325000021Wendy Wu: HW Sat @ 1:30 (Sept06)                                                                                            150                                
PROFAMCHA070301195325195334000009Suite Life ID - You're watching Suite Life on Fami                                                                          150                                
PROFAMCHA070301195334195412000038Bratz Fashion Pixies DVD Contest Avail Now (Feb 27                                                                          150                                
PRCFAMCHA070301195412195442000030Life with Derek (NS) MORE FUN (OCT06)  Tonight @ 8                                                                          150                                
PROFAMCHA070301195442195452000010FAMJAM - Open/Close                                                                                                         150                                
PGRFAMCHA070301195452195800000308MV Disney - Superstition (Raven)                                                                                       60688120                                
PROFAMCHA070301195800195814000014xxFAMJAM - Close (FAMILY) xxDNUxx                                                                                           150                                
PROFAMCHA0703011958141958410000278 Simple Rules (APR06) (NS) - DAD JUMPS GUN - Toni                                                                          150                                
PROFAMCHA070301195841195913000032Hannah Montana CD (Avail Now) (Feb9-Apr6)                                                                                   150                                
PRCFAMCHA070301195913195946000033xxNaturally Sadie - New Eps Weekend nights @ 6:05                                                                           150                                
PRCFAMCHA070301195946200002000016NS Bumper $$$- Tennis (:15-:17) APR06                                                                                       150                                
ID FAMCHA070301200002200010000008Magic of Disney - NS/NSW/PB - Shape (:06-:09) $$$                                                                           150                                
PGRFAMCHA070301200010202249002239Suite Life of Zack & Cody, The                    EP: 17                                                               6068607B                                
PRCFAMCHA070301202249202301000012NS - 06 - DEREK/8 SIMPLE RULES (FEB07) (:11-:13) $                                                                          150                                
PRCFAMCHA070301202301202319000018Life with Derek NS OJ (SEPT06) Coming Up Next                                                                               150                                
PROFAMCHA070301202319202400000041Zoey 101 VIP Fashion Spree Contest (Feb 26-June 3)                                                                          150                                
PROFAMCHA070301202400202418000018xxHannah Montana - NS - CROSSDRESSER (Oct06) Tomor                                                                          150                                
PRCFAMCHA070301202418202424000006Family Bumpers - Reptile Pet - Burp (MD/NS/NSW)                                                                             150                                
PROFAMCHA070301202424202502000038xxNeds DSSG - Survivor NS (DEC06) Tomorrow nights                                                                           150                                
PROFAMCHA070301202502202512000010FAMJAM - Open/Close                                                                                                         150                                
PGRFAMCHA070301202512202810000258MV Disney - Superstition (Raven)                                                                                       60688120                                
PROFAMCHA070301202810202824000014xxFAMJAM - Close (FAMILY) xxDNUxx                                                                                           150                                
PROFAMCHA070301202824202851000027Zoey 101 - LOGAN - NSW (MAY06) (may13-aug30) Weeke                                                                          150                                
PROFAMCHA070301202851202924000033Peter Pan DVD (Avail March 6) (Feb 22-Mar5) $$$                                                                             150                                
PRCFAMCHA070301202924202947000023Life WD -  ID #2 -  Casey Watch For Yourself                                                                                150                                
PRCFAMCHA070301202947203000000013NS Bumper $$$ - Fashion (:12-:14) JUNE06                                                                                    150                                
PRCFAMCHA070301203000203009000009CC Disclaimer - FAST - Generic (:08-:10) $$$                                                                                150                                
PGRFAMCHA070301203009205239002230Life With Derek                                   EP: 11                                                        C23968A1055607BCC3                             
PRCFAMCHA070301205239205244000005Astral ID (FEB05) $$$                                                                                                       150                                
PRCFAMCHA070301205244205256000012NS - 07 -8 SIMPLE RULES/SINBAD (FEB07) (:11-:13) $                                                                          150                                
PROFAMCHA0703012052562053230000278 Simple Rules (APR06) (NS) - DAD JUMPS GUN - Comi                                                                          150                                
PGRFAMCHA070301205323205523000200Really Short Report - Peter Pan - Coming Soon (Feb                                                                    A60688120                                
PROFAMCHA070301205523205543000020Popular (JULY06) (ALI MCB) - Tonight  @ 10pm                                                                                150                                
PROFAMCHA070301205543205553000010FAMJAM - Open/Close                                                                                                         150                                
PGRFAMCHA070301205553205723000130MV Disney - (MD/NS/NSW) - HSM - B5 - Get'cha Head                                                                      60688120                                
PROFAMCHA070301205723205737000014xxFAMJAM - Close (FAMILY) xxDNUxx                                                                                           150                                
PROFAMCHA070301205737205821000044Zoey 101 - PHONE DIARY (NS) (JUNE06) - Tomorrow ni                                                                          150                                
PROFAMCHA070301205821205848000027Aly & A.J. Faves and Funnies - Fave Vacay (JUNE/JU                                                                          150                                
PROFAMCHA070301205848205901000013Bonnie - Life With NSW - Weekends @ 8:40 (Sept 06)                                                                          150                                
PGRFAMCHA070301205901205946000045xxMovie Surfers - Meet the Robinsons - Hannah Mont                                                                    A60688120                                
PROFAMCHA070301205946210007000021Wendy Wu: HW Sat @ 1:30 (Sept06)                                                                                            150                                
PRCFAMCHA070301210007210015000008NS Bumper $$$ - Dodgeball (:07-:09) APR06                                                                                   150                                
PRCFAMCHA070301210015210024000009CC Disclaimer - SLOW - Family.ca (:08-:10) $$$                                                                              150                                
PGRFAMCHA0703012100242121590021358 Simple Rules                                    EP: 37                                                              B2068807BCC                              
PRCFAMCHA070301212159212211000012NS - 08 -SINBAD/POPULAR (FEB07) (:11-:13) $$$                                                                               150                                
PROFAMCHA070301212211212241000030Sinbad Show NS Responsible (SEPT06) Coming Up Next                                                                          150                                
PRCFAMCHA070301212241212247000006Family Bumpers - (Phase 2 F/W 04) - Gymnastics (MD                                                                          150                                
PROFAMCHA070301212247212307000020Popular (JULY06) (ALI MCB) - Tonight  @ 10pm                                                                                150                                
PROFAMCHA070301212307212317000010FAMJAM - Open/Close                                                                                                         150                                
PGRFAMCHA070301212317212623000306MV Disney - Superstition (Raven)                                                                                       60688120                                
PROFAMCHA070301212623212637000014xxFAMJAM - Close (FAMILY) xxDNUxx                                                                                           150                                
PRCFAMCHA070301212637212702000025Life WD Derek ID #1- Casey Tomorrow Night @ 6:30                                                                            150                                
PRCFAMCHA070301212702212724000022Life WD Derek Bloopers Season 2 #9 (NS/NSW)                                                                                 150                                
PROFAMCHA070301212724212759000035xxNeds DSSG - Superheroes - NS (JULY 06) Tomorrow                                                                           150                                
PRCFAMCHA070301212759212843000044Family Lab - Pet Talker Cutdown - Crush on the Tea                                                                          150                                
PROFAMCHA070301212843212910000027Zoey 101 - LOGAN - NSW (MAY06) (may13-aug30) Weeke                                                                          150                                
PRCFAMCHA070301212910212943000033xxNaturally Sadie - New Eps Weekend nights @ 6:05                                                                           150                                
PRCFAMCHA070301212943212959000016NS Bumper $$$- Tennis (:15-:17) APR06                                                                                       150                                
PGRFAMCHA070301212959215241002242The Sinbad Show                                   EP: 06                                                               2068507B                                
PRCFAMCHA070301215241215246000005Astral ID (FEB05) $$$                                                                                                       150                                
PRCFAMCHA070301215246215258000012NS - 09 - POPULAR/8 SIMPLE (APR06) (:11 - :13) $$$                                                                          150                                
PROFAMCHA070301215258215318000020Popular (JULY06) (ALI MCB) - Coming Up Next                                                                                 150                                
PROFAMCHA070301215318215328000010FAMJAM - Open/Close                                                                                                         150                                
PROFAMCHA070301215822215836000014xxFAMJAM - Close (FAMILY) xxDNUxx                                                                                           150                                
PROFAMCHA0703012158362158580000228 Simple Rules (APR06) (NS) - BRIDGET DRUMS - Toni                                                                          150                                
PROFAMCHA070301215858215928000030Sinbad Show NSW Responsible (SEPT06) Weekend morn                                                                           150                                
PROFAMCHA070301215928215941000013Bonnie - Life With NSW - Weekends @ 8:40 (Sept 06)                                                                          150                                
PRCFAMCHA070301215941215954000013NS Bumper $$$ - Fashion (:12-:14) JUNE06                                                                                    150                                
PGRFAMCHA070301215954224304004310Popular                                           EP: 02                                                              B2068807B                                
PRCFAMCHA070301224304224316000012NS - 10 - 8 SIMPLE/DEREK (SEPT06) (:11 - :13) $$$                                                                           150                                
PROFAMCHA070301224316224337000021Wendy Wu: HW Sat @ 1:30 (Sept06)                                                                                            150                                
PROFAMCHA0703012243372244040000278 Simple Rules (APR06) (NS) - DAD JUMPS GUN - Comi                                                                          150                                
PROFAMCHA070301224404224414000010FAMJAM - Open/Close                                                                                                         150                                
PGRFAMCHA070301224414224732000318MV Disney - Superstition (Raven)                                                                                       60288120                                
PROFAMCHA070301224732224746000014xxFAMJAM - Close (FAMILY) xxDNUxx                                                                                           150                                
PRCFAMCHA070301224746224816000030Life with Derek (NS) MORE FUN (OCT06)  Tonight @ 1                                                                          150                                
PROFAMCHA070301224816224853000037xxHannah Montana - NS - Achy Breaky (Oct06) Tomorr                                                                          150                                
PROFAMCHA070301224853224937000044Zoey 101 - PHONE DIARY (NS) (JUNE06) - Tomorrow ni                                                                          150                                
PROFAMCHA070301224937224947000010FAMJAM - Open/Close                                                                                                         150                                
PGRFAMCHA070301224947225312000325MV Disney - Superstition (Raven)                                                                                       60688120                                
PROFAMCHA070301225312225326000014xxFAMJAM - Close (FAMILY) xxDNUxx                                                                                           150                                
PROFAMCHA070301225326225400000034Even Stevens - Bad Boys (APR06) - (NSW) - Weekends                                                                          150                                
PROFAMCHA070301225400225431000031xxNed's DSSG - Cookie Clip (APR06)(NSW) Weekend Mo                                                                          150                                
PROFAMCHA070301225431225502000031xxSmart Guy FIGHT (JUNE06) NSW - Weekend afternoon                                                                          150                                
PROFAMCHA070301225502225512000010FAMJAM - Open/Close                                                                                                         150                                
PGRFAMCHA070301225512225822000310MV Disney - Superstition (Raven)                                                                                       60688120                                
PROFAMCHA070301225822225836000014xxFAMJAM - Close (FAMILY) xxDNUxx                                                                                           150                                
PROFAMCHA070301225836225906000030Phil of the Future THINGS TO COME (NSW) (APR06) -                                                                           150                                
PRCFAMCHA070301225906225939000033xxNaturally Sadie - New Eps Weekend nights @ 6:05                                                                           150                                
PRCFAMCHA070301225939225952000013Naturally Sadie ID's (NOV06) - Ben - Podcast versi                                                                          150                                
PRCFAMCHA070301225952230000000008NS Bumper $$$ - Dodgeball (:07-:09) APR06                                                                                   150                                
PGRFAMCHA0703012300002321360021368 Simple Rules                                    EP: 45                                                              B2068807B                                
PRCFAMCHA070301232136232141000005Astral ID (FEB05) $$$                                                                                                       150                                
PRCFAMCHA070301232141232153000012NS - 11 - DEREK/RADIO (SEPT06) (:11 - :13) $$$                                                                              150                                
PRCFAMCHA070301232153232228000035Life WD - TV Remote - Coming Up Next                                                                                        150                                
PGRFAMCHA070301232228232358000130xxMovie Surfers - Meet the Robinsons - Coming Soon                                                                    A60688120                                
PROFAMCHA070301232358232416000018xxHannah Montana - NS - CROSSDRESSER (Oct06) Tomor                                                                          150                                
PROFAMCHA070301232416232445000029xxThat's So Raven (APR06) HELLO LADIES (NSW) - Wee                                                                          150                                
PROFAMCHA070301232445232455000010FAMJAM - Open/Close                                                                                                         150                                
PGRFAMCHA070301232455232847000352MV Disney - Superstition (Raven)                                                                                       60688120                                
PROFAMCHA070301232847232901000014xxFAMJAM - Close (FAMILY) xxDNUxx                                                                                           150                                
PROFAMCHA070301232901232931000030Double Teamed (SEPT12) - Next Friday @ 7:30pm                                                                               150                                
PRCFAMCHA070301232931232940000009Radio Free Roscoe ID (MAR) - You're Watching Famil                                                                          150                                
PRCFAMCHA070301232940232956000016NS Bumper $$$- Tennis (:15-:17) APR06                                                                                       150                                
PRCFAMCHA070301232956233005000009CC Disclaimer - SLOW - Family.ca (:08-:10) $$$                                                                              150                                
PGRFAMCHA070301233005235235002230Life with Derek Season 2                          EP: 14                                                        C26679A1065607BCC                              
PRCFAMCHA070301235235235248000013NS - 12 - RADIO/SPIDER (SEPT06) (:11 - :13) $$$                                                                             150                                
PRCFAMCHA070301235248235318000030Radio Free Roscoe - (NS/M-Th) (JUNE06) Coming up                                                                            150                                
PRCFAMCHA070301235318235357000039Family Lab - Pet Talker Cutdown - Teacher failed K                                                                          150                                
PROFAMCHA070301235357235434000037xxHannah Montana - NS - Achy Breaky (Oct06) Tomorr                                                                          150                                
PRCFAMCHA070301235434235452000018Life WD Derek Bloopers Season 2 #10 (NS/NSW)                                                                                150                                
PRCFAMCHA070301235452235522000030Life with Derek (NS) MORE FUN Tomorrow night @ 6:3                                                                          150                                
PROFAMCHA070301235522235532000010FAMJAM - Open/Close                                                                                                         150                                
PGRFAMCHA070301235532235848000316MV Disney - Girl Power (Cheetah Girls)                                                                                 60688120                                
PROFAMCHA070301235848235902000014xxFAMJAM - Close (FAMILY) xxDNUxx                                                                                           150                                
PROFAMCHA070301235902235923000021xxNeds DSSG - Rock Idol NS (MAY06) Tomorrow night                                                                           150                                
PROFAMCHA070301235923235944000021Wendy Wu: HW Sat @ 1:30 (Sept06)                                                                                            150                                
PRCFAMCHA070301235944235958000014NS Bumper $$$ - Fashion (:12-:14) JUNE06                                                                                    150                                
PRCFAMCHA070301235958000007000009CC Disclaimer - SLOW - Generic (:08-:10) $$$                                                                                150                                
PGRFAMCHA070301000007002237002230Radio Free Roscoe                                 EPS # 005                                                     B88720A1065607ACC                              
PRCFAMCHA070301002237002242000005Astral ID (FEB05) $$$                                                                                                       150                                
PRCFAMCHA070301002242002254000012NS - 13 - SPIDER (APR06) (:11 - :13) $$$                                                                                    150                                
PROFAMCHA070301002254002312000018xxHannah Montana - NS - CROSSDRESSER (Oct06) Tomor                                                                          150                                
PROFAMCHA070301002312002356000044Zoey 101 - PHONE DIARY (NS) (JUNE06) - Tomorrow ni                                                                          150                                
PROFAMCHA070301002356002434000038xxNeds DSSG - Survivor NS (DEC06) Tomorrow nights                                                                           150                                
PROFAMCHA070301002434002444000010FAMJAM - Open/Close                                                                                                         150                                
PGRFAMCHA070301002444002740000256MV NON-DISNEY (MD, NS, NSW) - Holly Dolly - The Do                                                                     70688120                                
PROFAMCHA070301002740002754000014xxFAMJAM - Close (FAMILY) xxDNUxx                                                                                           150                                
PRCFAMCHA070301002754002827000033xxNaturally Sadie - New Eps Weekend nights @ 6:05                                                                           150                                
PGRFAMCHA070301002827002925000058Planet Rock Profiles - Sum41 (Future)             EP: 46                                                              A70687120                                
PROFAMCHA0703010029250029520000278 Simple Rules (APR06) (NSW) - DAD JUMPS GUN - Wee                                                                          150                                
PRCFAMCHA070301002952003001000009NS Bumper $$$ - Dodgeball (:07-:09) APR06                                                                                   150                                
PGRFAMCHA070301003001005145002144Spiderman                                         EP: 04                                                        C02618 1065607E                                
PROFAMCHA070301005145005206000021Wendy Wu: HW Sat @ 1:30 (Sept06)                                                                                            150                                
PRCFAMCHA070301005206005241000035xxLife WD - TV Remote - Tomorrow Night @ 6:30pm NS                                                                          150                                
PROFAMCHA070301005241005251000010FAMJAM - Open/Close                                                                                                         150                                
PGRFAMCHA070301005251005421000130MV Disney - (MD/NS/NSW) - HSM - We're All In This                                                                      60688120                                
PROFAMCHA070301005421005435000014xxFAMJAM - Close (FAMILY) xxDNUxx                                                                                           150                                
PROFAMCHA070301005435005505000030xxJetix Combo - Weekend morn @ 6:00 (SEPT 06)                                                                               150                                
PROFAMCHA070301005505005557000052That's So Raven (JUNE06) SHOW ME (NSW) - Weekend m                                                                          150                                
PGRFAMCHA070301005557005727000130xxMovie Surfers - Meet the Robinsons - Coming Soon                                                                    A60688120                                
PROFAMCHA070301005727005757000030Phil of the Future THINGS TO COME (NSW) (APR06) -                                                                           150                                
PROFAMCHA070301005757005807000010FAMJAM - Open/Close                                                                                                         150                                
PGRFAMCHA070301005807010107000300MV Disney - Superstition (Raven)                                                                                       60688120                                
PROFAMCHA070301010107010121000014xxFAMJAM - Close (FAMILY) xxDNUxx                                                                                           150                                
PROFAMCHA070301010121010152000031xxNed's DSSG - Cookie Clip (APR06)(NSW) Weekend Mo                                                                          150                                
PRCFAMCHA070301010152010209000017NS Bumper $$$- Tennis (:15-:17) APR06                                                                                       150                                
SO FAMCHA070301010209010221000012Sign Off                                                                                                                                                       
OFFFAMCHA070301010221043000032739OFF AIR                                                                                                                                                        
SO FAMCHA070302043000043011000011Sign On (oct 1)                                                                                                                                                
PRCFAMCHA070302043011043020000009CC Disclaimer - FAST - Family.ca (:08-:10) $$$                                                                              150                                
PGRFAMCHA070302043020045659002639Katie And Orbie                                   EP: 6-066                                                     B62269A1065607ECC                              
PRCFAMCHA070302045659045714000015PH - 04 - FRANNY/SOMETHING/HOZE  (:14 - :16) (APR0                                                                          150                                
ID FAMCHA070302045714045727000013PS Playhouse AM Block Open (:10-:15) $$$                                                                                    150                                
PRCFAMCHA070302045727045736000009CC Disclaimer - FAST - Generic (:08-:10) $$$                                                                                150                                
PGRFAMCHA070302045736052006002230Franny's Feet                                     EPS # 25                                                      C23971 1065607ECC                              
PRCFAMCHA070302052006052011000005Astral ID (FEB05) $$$                                                                                                       150                                
PRCFAMCHA070302052011052026000015PH - 05 - SOMETHING/HOZE/KING (:14 - :16) (APR06)                                                                           150                                
ID FAMCHA070302052026052039000013PS Playhouse AM Block Open (:10-:15) $$$                                                                                    150                                
PRCFAMCHA070302052039052048000009CC Disclaimer - FAST - Family.ca (:08-:10) $$$                                                                              150                                
PGRFAMCHA070302052048054321002233Something Else                                    EP: 1-007                                                     B69261A1065607ECC                              
PRCFAMCHA070302054321054336000015PH - 06 - HOZE/KING/SPIDERMAN (:14 - :16) (APR06)                                                                           150                                
ID FAMCHA070302054336054349000013PS Playhouse AM Block Open (:10-:15) $$$                                                                                    150                                
PRCFAMCHA070302054349054358000009CC Disclaimer - FAST - Generic (:08-:10) $$$                                                                                150                                
PGRFAMCHA070302054358060635002237Hoze Houndz                                       EP: 5-063                                                     B63399A1065607ECC                              
PRCFAMCHA070302060635060640000005Astral ID (FEB05) $$$                                                                                                       150                                
PRCFAMCHA070302060640060655000015PH - 07 - KING/SPIDERMAN/KIM  (:14 - :16) (APR06)                                                                           150                                
ID FAMCHA070302060655060708000013PS Playhouse AM Block Open (:10-:15) $$$                                                                                    150                                
PRCFAMCHA070302060708060717000009CC Disclaimer - FAST - Family.ca (:08-:10) $$$                                                                              150                                
PGRFAMCHA070302060717062947002230King                                              EP: 4-041                                                     C25350A1065607ECC                              
PRCFAMCHA070302062947063002000015PH - 08- SPIDERMAN/KIM ( (:14 - :16) (APR06) $$$                                                                            150                                
PROFAMCHA070302063002063021000019MadMadMornings Block Open $$$                                                                                               150                                
PGRFAMCHA070302063021065204002143Spiderman                                         EP: 02                                                        C02618 1065607E                                
PRCFAMCHA070302065204065209000005Astral ID (FEB05) $$$                                                                                                       150                                
PRCFAMCHA070302065209065224000015MMM - 01 (AM) - KIM/RECESS/WEEKENDERS (OCT05) (:14                                                                          150                                
PROFAMCHA070302065224065236000012Kim Possible READY (MMM) (AUG 06) Coming Up Next                                                                            150                                
PGRFAMCHA070302065236065506000230Really Short Report - Cinderella III - Now Playing                                                                    A60688120                                
PROFAMCHA070302065506065527000021Wendy Wu: HW Tomorrow @ 1:30 (Sept06)                                                                                       150                                
PROFAMCHA070302065527065542000015Phil of the Future IDs - Aly Flute Spit - I'm Aly                                                                           150                                
PROFAMCHA070302065542065601000019MadMadMornings Block Open $$$                                                                                               150                                
PRCFAMCHA070302065601065610000009CC Disclaimer - FAST - Family.ca (:08-:10) $$$                                                                              150                                
PGRFAMCHA070302065610071903002253Disney's Kim Possible                             EPS # 1-052                                                         A6068607ECC                              
PRCFAMCHA070302071903071917000014MMM - 02 (AM) - RECESS/WEEKENDERS/LILO (OCT05) (:1                                                                          150                                
PROFAMCHA070302071917071941000024Recess - MONTAGE (MMM) - (JULY06) - Coming Up Next                                                                          150                                
PROFAMCHA070302071941072014000033Peter Pan DVD (Avail March 6) (Feb 22-Mar5) $$$                                                                             150                                
PROFAMCHA070302072014072050000036Weekenders - PIZZA (MMM) - (APR06) - This Morning                                                                           150                                
PROFAMCHA070302072050072100000010FAMJAM - Open/Close                                                                                                         150                                
PGRFAMCHA070302072100072233000133MV Disney - Superstition (Raven)                                                                                       60688120                                
PROFAMCHA070302072233072247000014xxFAMJAM - Close (FAMILY) xxDNUxx                                                                                           150                                
PROFAMCHA070302072247072304000017Lilo & Stitch (MMM) (APR06) LICK- This Morning @ 8                                                                          150                                
PROFAMCHA070302072304072311000007MadMadMornings Bumper                                                                                                       150                                
PROFAMCHA070302072311072341000030Replacements (FEB07) LIBRARIAN (NSW) - Tomorrow @                                                                           150                                
PROFAMCHA070302072341072400000019MadMadMornings Block Open $$$                                                                                               150                                
PGRFAMCHA070302072400074635002235Disney's Recess                                   EP: 1-020                                                            6068607E                                
PRCFAMCHA070302074635074640000005Astral ID (FEB05) $$$                                                                                                       150                                
PRCFAMCHA070302074640074654000014PH - 09 - WEEKENDERS/LILO/EINSTEINS (:14 - :16) (A                                                                          150                                
PROFAMCHA070302074654074733000039SBO 2007 - Edmonton/Calgary REVISION(Feb28-Mar3) $                                                                          150                                
PROFAMCHA070302074733074809000036Weekenders - PIZZA (MMM) - (APR06) - Coming Up Nex                                                                          150                                
PROFAMCHA070302074809074839000030Jump In Soundtrack (Avail Now) (Jan 30-Apr22) $$$                                                                           150                                
PROFAMCHA070302074839074856000017Lilo & Stitch (MMM) (APR06) LICK- This Morning @ 8                                                                          150                                
PRCFAMCHA070302074856074932000036Famous Players Popcorn Parties REVISED (Nov06) 3/d                                                                          150                                
PROFAMCHA070302074932074954000022Fillmore! - POLLY (MD) (APR06) - This Afternoon @                                                                           150                                
PROFAMCHA070302074954075028000034Proud Family (JULY06) MOM YELLS (MD) -  This After                                                                          150                                
PRCFAMCHA070302075028075039000011Naturally Sadie ID's - I'm Charlotte, you're watch                                                                          150                                
PROFAMCHA070302075039075058000019MadMadMornings Block Open $$$                                                                                               150                                
PRCFAMCHA070302075058075108000010CC Disclaimer - FAST - Generic (:08-:10) $$$                                                                                150                                
PGRFAMCHA070302075108081358002250Disney's The Weekenders                           EP: 1-004                                                           A6068607ECC                              
PRCFAMCHA070302081358081414000016PH - 10 - LILO/EINSTEINS/WINNIE (:14 - :16) (APR06                                                                          150                                
PROFAMCHA070302081414081435000021Wendy Wu: HW Tomorrow @ 1:30 (Sept06)                                                                                       150                                
PROFAMCHA070302081435081452000017Lilo & Stitch (MMM) (APR06) LICK- coming Up Next                                                                            150                                
PROFAMCHA070302081452081525000033Peter Pan DVD (Avail March 6) (Feb 22-Mar5) $$$                                                                             150                                
PROFAMCHA070302081525081549000024Lloyd In Space (DATE) (JUNE06) MD- This aftternoon                                                                          150                                
PRCFAMCHA070302081549081628000039Family Lab - Pet Talker Cutdown - Lose a Finger (u                                                                          150                                
PROFAMCHA070302081628081656000028Dave the Barbarian - WIGGIN (MD) -  This afternoon                                                                          150                                
PROFAMCHA070302081656081726000030Replacements (FEB07) BABYSITTER (NSW) - Tomorrow @                                                                          150                                
PROFAMCHA070302081726081741000015Phil of the Future IDs - Aly Flute Spit - I'm Aly                                                                           150                                
PROFAMCHA070302081741081800000019MadMadMornings Block Open $$$                                                                                               150                                
PGRFAMCHA070302081800084039002239Disney's Lilo & Stitch: The Series                EP: 60                                                               6068607E                                
PRCFAMCHA070302084039084044000005Astral ID (FEB05) $$$                                                                                                       150                                
PRCFAMCHA070302084044084059000015PH - 11 -EINSTEINS/WINNIE/BEAR  (:14 - :16) (NOV06                                                                          150                                
PROFAMCHA070302084059084129000030Winnie the Pooh (PH/AM) (APR06) - This Morning @ 9                                                                          150                                
PGRFAMCHA070302084129084429000300They Might Be Giants (ABC's) - Can You Find It?                                                                        60688120                                
