SO FAMCHA070901043000043011000011Sign On (oct 1)                                                                                                                                                
PRCFAMCHA070901043011043020000009CC Disclaimer - FAST - Family.ca (:09-:10)                                                                                  150                                
PGRFAMCHA070901043020045421002401Henry's World                                     EP: 2-015                                                     B81046A1065607GCC                              
PRCFAMCHA070901045421045436000015xxPH - 01 - BEN/FRANNY/KING (SAT/SUN) (JUNE06) (:1                                                                          150                                
ID FAMCHA070901045436045449000013PS Playhouse AM Block Open (:10-:15)                                                                                        150                                
PRCFAMCHA070901045449045458000009CC Disclaimer - FAST - Generic (:09-:10)                                                                                    150                                
PGRFAMCHA070901045458051733002235The Secret World Of Benjamin Bear                 EPS # 1-002                                                   B75147 1065607ECC                              
PRCFAMCHA070901051733051738000005xxAstral ID (FEB05)                                                                                                         150                                
PRCFAMCHA070901051738051753000015xxPH - 02 - FRANNY/KING (SAT/SUN) (JUNE06) (:14 -                                                                           150                                
ID FAMCHA070901051753051806000013PS Playhouse AM Block Open (:10-:15)                                                                                        150                                
PRCFAMCHA070901051806051815000009CC Disclaimer - FAST - Family.ca (:09-:10)                                                                                  150                                
PGRFAMCHA070901051815054045002230Franny's Feet                                     EPS # 1-002                                                   C23970A1065607ECC                              
PRCFAMCHA070901054045054100000015xxPH - 03 - KING (SAT/SUN) (JUNE06) (:14 - :16) $$                                                                          150                                
ID FAMCHA070901054100054113000013PS Playhouse AM Block Open (:10-:15)                                                                                        150                                
PRCFAMCHA070901054113054122000009CC Disclaimer - FAST - Generic (:09-:10)                                                                                    150                                
PGRFAMCHA070901054122060352002230King                                              EP: 001                                                       B75756 1065607ECC                              
PRCFAMCHA070901060352060357000005xxAstral ID (FEB05)                                                                                                         150                                
PROFAMCHA070901060357060416000019Jetix Block Open (:18-:21)                                                                                                  150                                
PRCFAMCHA070901060416060425000009CC Disclaimer - FAST - Family.ca (:09-:10)                                                                                  150                                
PGRFAMCHA070901060425062657002232Power Rangers:  Operation Overdrive               EP: 22                                                               2068607ECC                              
PROFAMCHA070901062657062732000035xxSummer Grad 07 Event Spot - Friday Nights 5:35 -                                                                          150                                
PRCFAMCHA070901062732062802000030xxFamous Players Popcorn Parties 2 (May 2-Jan 31/0                                                                          150                                
PROFAMCHA070901062802062840000038xxLife With Derek Online Content Blast Now Online                                                                           150                                
PROFAMCHA070901062840062900000020Jetix Block Open (:18-:21)                                                                                                  150                                
PRCFAMCHA070901062900062909000009CC Disclaimer - FAST - Generic (:09-:10)                                                                                    150                                
PGRFAMCHA070901062909065148002239Power Rangers:  Operation Overdrive               EP: 01                                                               2068607ECC                              
PRCFAMCHA070901065148065153000005xxAstral ID (FEB05)                                                                                                         150                                
PROFAMCHA070901065153065205000012xxSuite Life Marathon Promo -  Monday @ 3:00-6:00p                                                                          150                                
PRCFAMCHA070901065205065245000040Magazine Spot (MD,NS,NSW) 2/3 day (not in PH) (til                                                                          150                                
PROFAMCHA070901065245065250000005Jetix Bumper (Sept 06)                                                                                                      150                                
PROFAMCHA070901065250065341000051xxSummer Grad 07 Contest Spot-Friday Nights Starts                                                                          150                                
PROFAMCHA070901065341065400000019Jetix Block Open (:18-:21)                                                                                                  150                                
PRCFAMCHA070901065400065409000009CC Disclaimer - FAST - Family.ca (:09-:10)                                                                                  150                                
PGRFAMCHA070901065409071648002239Yin Yang Yo!                                      EP: 23                                                               2068607ECC                              
PROFAMCHA070901071648071740000052xxDC Games 2007 Long - This afternoon after your f                                                                          150                                
PRCFAMCHA070901071740071939000159xxHSM 2 Interstitial - Movie Ent Story & Interview                                                                          150                                
PROFAMCHA070901071939072000000021Jetix Block Open (:18-:21)                                                                                                  150                                
PGRFAMCHA070901072000074301002301Pucca                                             EP: 01                                                               2028607ECC                              
PRCFAMCHA070901074301074306000005xxAstral ID (FEB05)                                                                                                         150                                
PROFAMCHA070901074306074336000030Popcorn Pix - Slapstick - Today @ Noon                                                                                      150                                
PROFAMCHA070901074336074406000030That's So Raven (SCREAM) (NSW) This Mornings @ 9:4                                                                          150                                
PROFAMCHA070901074406074441000035xxReturn to Halloweentown DVD Availabe Now  (Aug 2                                                                          150                                
PROFAMCHA070901074441074511000030xxSuite Life of Z & C - NSW (JULY 06) GIRLFRIEND 2                                                                          150                                
PRCFAMCHA070901074511074623000112xxGet'cha Head In The Game - Soccer Version 2                                                                               150                                
PROFAMCHA070901074623074643000020Zoey 101 - He Loves Her 1 - (NSW) This Morning @ 8                                                                          150                                
PROFAMCHA070901074643074726000043xxZoey 101 Back To School Contest (Aug 20 - Sept 1                                                                          150                                
PRCFAMCHA070901074726074737000011Naturally Sadie ID's - I'm Charlotte, you're watch                                                                          150                                
PROFAMCHA070901074737074744000007xxHallmark Billboard - NSW (Aug 20 -Sept 2) $$$                                                                             150                                
PROFAMCHA070901074744074801000017Nonstop Weekend Block Open (:16-:18) APR06                                                                                  150                                
ID FAMCHA070901074801074809000008Magic of Disney - NS/NSW/PB - Shape (:06-:09)                                                                               150                                
PRCFAMCHA070901074809074819000010CC Disclaimer - FAST - Generic (:09-:10)                                                                                    150                                
PGRFAMCHA070901074819081057002238Hannah Montana                                    EP: 20                                                               6068807BCC                              
PRCFAMCHA070901081057081110000013xxNSW - 03 - SUITE/ZOEY (APR06) (:11 - 13) $$$                                                                              150                                
PROFAMCHA070901081110081122000012xxSuite Life Marathon Promo -  Monday @ 3:00-6:00p                                                                          150                                
PROFAMCHA070901081122081141000019xxSuite Life of Z & C - NSW (JULY 06) MEDITATE - C                                                                          150                                
PROFAMCHA070901081141081211000030xxHSM - The Ice Tour Promo #2 (Aug 20 - Dec 13) $$                                                                          150                                
PROFAMCHA070901081211081231000020Zoey 101 - He Loves Her 1 - (NSW) This Morning @ 8                                                                          150                                
PROFAMCHA070901081231081314000043Cory In The House (NSW) (MAR07) - This morning @ 9                                                                          150                                
PROFAMCHA070901081314081349000035xxNeds DSSG - Superheroes - NSW (JULY 06) This mor                                                                          150                                
PROFAMCHA070901081349081420000031xxHSM 2 CD Blast Now Available (Aug 14 - Oct 31) $                                                                          150                                
PROFAMCHA070901081420081452000032xxDC Games 2007 Game Face - This afternoon after y                                                                          150                                
PRCFAMCHA070901081452081501000009NSW Bumper - Dodgeball (:07-:09) APR06                                                                                      150                                
ID FAMCHA070901081501081509000008Magic of Disney - NS/NSW/PB - Shape (:06-:09)                                                                               150                                
PGRFAMCHA070901081509083745002236Suite Life of Zack and Cody, The                  EP: 03                                                               6068607BCC                              
PRCFAMCHA070901083745083750000005xxAstral ID (FEB05)                                                                                                         150                                
PROFAMCHA070901083750083820000030Popcorn Pix - Slapstick - Today @ Noon                                                                                      150                                
PROFAMCHA070901083820083840000020Zoey 101 - He Loves Her 1 - (NSW) Coming Up Next (                                                                          150                                
PROFAMCHA070901083840083923000043xxZoey 101 Back To School Contest (Aug 20 - Sept 1                                                                          150                                
PROFAMCHA070901083923083953000030That's So Raven (SCREAM) (NSW) This Mornings @ 9:4                                                                          150                                
PRCFAMCHA070901083953084118000125xxMS - Game Plan - The Rock Interview - Coming Soo                                                                          150                                
PROFAMCHA070901084118084156000038Double Teamed (SEPT12) - Next Friday @ 7:30pm                                                                               150                                
PROFAMCHA070901084156084228000032xxEnchanted Tales Follow Your Dreams DVD Blast Ava                                                                          150                                
PRCFAMCHA070901084228084237000009Naturally Sadie ID's - You're watching Family...NA                                                                          150                                
PROFAMCHA070901084237084244000007xxHallmark Billboard - NSW (Aug 20 -Sept 2) $$$                                                                             150                                
PROFAMCHA070901084244084302000018Nonstop Weekend Block Open (:16-:18) APR06                                                                                  150                                
PRCFAMCHA070901084302084312000010CC Disclaimer - FAST - Generic (:09-:10)                                                                                    150                                
PGRFAMCHA070901084312090544002232Zoey 101                                          EPS # 05                                                             2068807BCC                              
PROFAMCHA070901090544090627000043Cory In The House (NSW) (MAR07) - Coming Up Next                                                                            150                                
PROFAMCHA070901090627090658000031xxTelus "My Faves" Contest (Aug 24 - Sept 4) $$$                                                                            150                                
PROFAMCHA070901090658090732000034xxNeds DSSG - Granny Kiss NSW (MAY06) This morn @                                                                           150                                
PROFAMCHA070901090732090742000010FAMJAM - Open/Close                                                                                                         150                                
PGRFAMCHA070901090742090953000211xxMV Disney - (MD/NS/NSW) - Aly & A.J. - Do You Be                                                                     60688120                                
PROFAMCHA070901090953091007000014xxFAMJAM - Close (FAMILY) xxDNUxx                                                                                           150                                
PROFAMCHA070901091007091043000036Suite Life of Z & C GOLF (NSW) - This Morning @ 11                                                                          150                                
PROFAMCHA070901091043091124000041xxFamily Fest Phase 2 REVISED Version 2 (Aug 30 -S                                                                          150                                
PROFAMCHA070901091124091150000026xxDC Games 2007 Short - This afternoon after your                                                                           150                                
PRCFAMCHA070901091150091202000012NSW Bumper - Fashion (:12-:14) APR06  **DNU                                                                                 150                                
ID FAMCHA070901091202091210000008Magic of Disney - NS/NSW/PB - Wipe (:06-:09)                                                                                150                                
PRCFAMCHA070901091210091218000008CC Disclaimer - FAST - Family.ca (:09-:10)                                                                                  150                                
PGRFAMCHA070901091218093456002238Cory in the House                                 EP: 11                                                               6068607BCC                              
PRCFAMCHA070901093456093501000005xxAstral ID (FEB05)                                                                                                         150                                
PROFAMCHA070901093501093536000035xxSummer Grad 07 Event Spot - Friday Nights 5:35 -                                                                          150                                
PROFAMCHA070901093536093605000029xxThat's So Raven (AUG06) BEAUTY MARK (NSW) - Comi                                                                          150                                
PROFAMCHA070901093605093640000035xxReturn to Halloweentown DVD Availabe Now  (Aug 2                                                                          150                                
PROFAMCHA070901093640093718000038Double Teamed (SEPT12) - Next Friday @ 7:30pm                                                                               150                                
PRCFAMCHA070901093718093845000127xxGet'cha Head In The Game - Skateboard Version 1                                                                           150                                
PROFAMCHA070901093845093928000043Cory In The House (NSW) This Afternoon @ 3:25pm (S                                                                          150                                
PROFAMCHA070901093928094009000041xxFamily Fest Phase 2 REVISED Version 2 (Aug 30 -S                                                                          150                                
PROFAMCHA070901094009094038000029Hannah Montana SCIENCE (NSW) - This Afternoon @ 5:                                                                          150                                
PROFAMCHA070901094038094045000007xxHallmark Billboard - NSW (Aug 20 -Sept 2) $$$                                                                             150                                
PROFAMCHA070901094045094101000016Nonstop Weekend Block Open (:16-:18) APR06                                                                                  150                                
ID FAMCHA070901094101094109000008Magic of Disney - NS/NSW/PB - Shape (:06-:09)                                                                               150                                
PRCFAMCHA070901094109094118000009CC Disclaimer - FAST - Generic (:09-:10)                                                                                    150                                
PGRFAMCHA070901094118100356002238That's So Raven                                   EPS # 1-040                                                          6068607BCC                              
PROFAMCHA070901100356100434000038xxLife With Derek Online Content Blast Now Online                                                                           150                                
PROFAMCHA070901100434100504000030xxPhil of the Future THINGS TO COME (NSW) (APR06)                                                                           150                                
PROFAMCHA070901100504100535000031xxHSM 2 CD Blast Now Available (Aug 14 - Oct 31) $                                                                          150                                
PROFAMCHA070901100535100556000021xxNeds DSSG Rock Idol NSW (MAY06) This morning @ 1                                                                          150                                
PRCFAMCHA070901100556100636000040Magazine Spot (MD,NS,NSW) 2/3 day (not in PH) (til                                                                          150                                
PROFAMCHA070901100636100708000032Suite Life of Z & C (NSW) Wonderful Hotel - This M                                                                          150                                
PROFAMCHA070901100708100737000029Hannah Montana SCIENCE (NSW) - This Afternoon @ 5:                                                                          150                                
PROFAMCHA070901100737100813000036xxFlight 29 Down - (NSW) Tonight @ 6:30pm (JUNE07)                                                                          150                                
PROFAMCHA070901100813100833000020Zoey 101 - He Loves Her 1 - (NSW) Tonight @ 7:25pm                                                                          150                                
PROFAMCHA070901100833100914000041xxFamily Fest Phase 2 REVISED Version 2 (Aug 30 -S                                                                          150                                
PROFAMCHA070901100914100944000030Popcorn Pix - Slapstick - Today @ Noon                                                                                      150                                
PRCFAMCHA070901100944101001000017NSW Bumper - Tennis (:15-:17) APR06                                                                                         150                                
ID FAMCHA070901101001101009000008Magic of Disney - NS/NSW/PB - Wipe (:06-:09)                                                                                150                                
PRCFAMCHA070901101009101018000009CC Disclaimer - FAST - Family.ca (:09-:10)                                                                                  150                                
PGRFAMCHA070901101018103254002236Phil of the Future Yr 2                           EP: 27                                                               6068607BCC                              
PRCFAMCHA070901103254103259000005xxAstral ID (FEB05)                                                                                                         150                                
PRCFAMCHA070901103259103311000012xxNSW - 08 - BMW/NEDS (APR06) (:11 - 13) $$$                                                                                150                                
PROFAMCHA070901103311103403000052xxDC Games 2007 Long - This afternoon after your f                                                                          150                                
PROFAMCHA070901103403103441000038Double Teamed (SEPT12) - Next Friday @ 7:30pm                                                                               150                                
PROFAMCHA070901103441103511000030xxHSM - Theatrical Show (Aug 31 - Sept 12) $$$                                                                              150                                
PROFAMCHA070901103511103544000033Suite Life of Z & C SCOUT (NSW) - This Morning @ 1                                                                          150                                
PROFAMCHA070901103544103627000043Cory In The House (NSW) This Afternoon @ 3:25pm (S                                                                          150                                
PROFAMCHA070901103627103708000041xxFamily Fest Phase 2 REVISED Version 2 (Aug 30 -S                                                                          150                                
PRCFAMCHA070901103708103738000030xxLife WD - Dinnertime Tonight @ 7:50 NSW                                                                                   150                                
PROFAMCHA070901103738103745000007xxHallmark Billboard - NSW (Aug 20 -Sept 2) $$$                                                                             150                                
PROFAMCHA070901103745103801000016Nonstop Weekend Block Open (:16-:18) APR06                                                                                  150                                
ID FAMCHA070901103801103809000008Magic of Disney - NS/NSW/PB - Shape (:06-:09)                                                                               150                                
PRCFAMCHA070901103809103818000009CC Disclaimer - FAST - Generic (:09-:10)                                                                                    150                                
PGRFAMCHA070901103818110044002226Boy Meets World                                   EP: 1-037                                                           B6068807BCC                              
PROFAMCHA070901110044110114000030Popcorn Pix - Slapstick - Today @ Noon                                                                                      150                                
PROFAMCHA070901110114110149000035xxNeds DSSG - Superheroes - NS (JULY 06) Coming Up                                                                          150                                
PROFAMCHA070901110149110219000030xxHSM - Theatrical Show (Aug 31 - Sept 12) $$$                                                                              150                                
PROFAMCHA070901110219110252000033Suite Life of Z & C SCOUT (NSW) - This Morning @ 1                                                                          150                                
PROFAMCHA070901110252110321000029Hannah Montana SCIENCE (NSW) - This Afternoon @ 5:                                                                          150                                
PRCFAMCHA070901110321110339000018xxLife with Derek NSW OJ (SEPT06) Tonight @ 7:50                                                                            150                                
PROFAMCHA070901110339110359000020Zoey 101 - He Loves Her 1 - (NSW) Tomorrow Morning                                                                          150                                
PROFAMCHA070901110359110440000041xxFamily Fest Phase 2 REVISED Version 2 (Aug 30 -S                                                                          150                                
PROFAMCHA070901110440110452000012xxSuite Life Marathon Promo -  Monday @ 3:00-6:00p                                                                          150                                
PRCFAMCHA070901110452110501000009NSW Bumper - Dodgeball (:07-:09) APR06                                                                                      150                                
PRCFAMCHA070901110501110510000009CC Disclaimer - FAST - Family.ca (:09-:10)                                                                                  150                                
PGRFAMCHA070901110510112850002340Ned's Declassified School Survival Guide          EPS # 01                                                             2068807BCC                              
PRCFAMCHA070901112850112855000005xxAstral ID (FEB05)                                                                                                         150                                
PROFAMCHA070901112855112914000019xxSuite Life of Z & C - NSW (JULY 06) MEDITATE - C                                                                          150                                
PROFAMCHA070901112914112945000031xxTelus "My Faves" Contest (Aug 24 - Sept 4) $$$                                                                            150                                
PROFAMCHA070901112945113028000043Cory In The House (NSW) This Afternoon @ 3:25pm (S                                                                          150                                
PRCFAMCHA070901113028113227000159xxHSM 2 Interstitial - Movie Ent Story & Interview                                                                          150                                
PROFAMCHA070901113227113304000037Naturally Sadie - TEENAGE (NSW) Saturday Night @ 6                                                                          150                                
PROFAMCHA070901113304113341000037xxHilroy HSM 2 Contest Tag 2 (Aug 18 - Sept 16) $$                                                                          150                                
PROFAMCHA070901113341113348000007Phil of the Future IDs - I'm Ricky Ullman, stay tu                                                                          150                                
PRCFAMCHA070901113348113401000013NSW Bumper - Fashion (:12-:14) APR06  **DNU                                                                                 150                                
ID FAMCHA070901113401113409000008Magic of Disney - NS/NSW/PB - Wipe (:06-:09)                                                                                150                                
PRCFAMCHA070901113409113418000009CC Disclaimer - FAST - Generic (:09-:10)                                                                                    150                                
PGRFAMCHA070901113418115658002240Suite Life of Zack & Cody, The                    EP: 01                                                               6068607BCC                              
PROFAMCHA070901115658115728000030Popcorn Pix - Slapstick - Coming Up Next                                                                                    150                                
PROFAMCHA070901115728115803000035xxReturn to Halloweentown DVD Availabe Now  (Aug 2                                                                          150                                
PROFAMCHA070901115803115835000032Suite Life of Z & C (NSW) Wonderful Hotel - New Ep                                                                          150                                
PROFAMCHA070901115835115907000032xxEnchanted Tales Follow Your Dreams DVD Blast Ava                                                                          150                                
PROFAMCHA070901115907115933000026xxDC Games 2007 Short - This afternoon after your                                                                           150                                
PROFAMCHA070901115933115941000008xxHallmark Billboard - Popcorn Pix (Aug 20 -Sept 2                                                                          150                                
ID FAMCHA070901115941120001000020Popcorn Pix Block Open (JUNE 06) (:18-:20)                                                                                  150                                
ID FAMCHA070901120001120010000009Rating - PG - Nightly Pix Only  (DEC05) (:08 - :10                                                                          150                                
PRCFAMCHA070901120010120019000009CC Disclaimer - FAST - Family.ca (:09-:10)                                                                                  150                                
PGRFAMCHA070901120019132124012105Ernest Goes To Jail                                                                                                   B6068807DCC                              
PRCFAMCHA070901132124132129000005xxAstral ID (FEB05)                                                                                                         150                                
PROFAMCHA070901132129132159000030Popcorn Pix - Slapstick - Coming Up Next                                                                                    150                                
PROFAMCHA070901132159132242000043Cory In The House (NSW) This Afternoon @ 3:25pm (S                                                                          150                                
PRCFAMCHA070901132242132312000030xxFamous Players Popcorn Parties 2 (May 2-Jan 31/0                                                                          150                                
PROFAMCHA070901132312132342000030xxSuite Life of Z & C - NSW (JULY 06) GIRLFRIEND 2                                                                          150                                
PRCFAMCHA070901132342132705000323xxAnother Side of Corbin Bleu Interstitial (Aug 18                                                                          150                                
PROFAMCHA070901132705132734000029Hannah Montana SCIENCE (NSW) - This Afternoon @ 5:                                                                          150                                
PRCFAMCHA070901132734132814000040Magazine Spot (MD,NS,NSW) 2/3 day (not in PH) (til                                                                          150                                
PROFAMCHA070901132814132850000036xxFlight 29 Down - (NSW) Tonight @ 6:30pm (JUNE07)                                                                          150                                
PROFAMCHA070901132850132941000051xxSummer Grad 07 Contest Spot-Friday Nights Starts                                                                          150                                
ID FAMCHA070901132941133001000020Popcorn Pix Block Open (JUNE 06) (:18-:20)                                                                                  150                                
ID FAMCHA070901133001133010000009Rating - G - Nightly Pix Only  (DEC05) (:08 - :10)                                                                          150                                
PRCFAMCHA070901133010133019000009CC Disclaimer - FAST - Generic (:09-:10)                                                                                    150                                
PGRFAMCHA070901133019145747012728Air Bud: Spikes Back                                                                                            C21538A1065807DCC                              
PROFAMCHA070901145747145814000027Lizzie McGuire - (Bad Breath) (NSW) (APR06) - Comi                                                                          150                                
PROFAMCHA070901145814145855000041xxFamily Fest Phase 2 REVISED Version 2 (Aug 30 -S                                                                          150                                
PROFAMCHA070901145855145904000009xxFamily Bumpers - (Phase 1 Spring 04) - Baseball                                                                           150                                
PROFAMCHA070901145904145934000030xxHSM - Theatrical Show (Aug 31 - Sept 12) $$$                                                                              150                                
PRCFAMCHA070901145934145944000010Naturally Sadie ID's - Log on to family.ca                                                                                  150                                
PROFAMCHA070901145944150002000018Nonstop Weekend Block Open (:16-:18) APR06                                                                                  150                                
ID FAMCHA070901150002150010000008Magic of Disney - NS/NSW/PB - Shape (:06-:09)                                                                               150                                
PGRFAMCHA070901150010152245002235Lizzie McGuire                                    EP: 1-019                                                            6068607BCC                              
PRCFAMCHA070901152245152250000005xxAstral ID (FEB05)                                                                                                         150                                
PROFAMCHA070901152250152333000043Cory In The House (NSW) (MAR07) - Coming Up Next                                                                            150                                
PGRFAMCHA070901152333153034000701DC Games 2007 Closing Ceremonies - Open                                                                               A60288110                                
PROFAMCHA070901153034153043000009xxFamily Bumpers - (Phase 1 Spring 04) - DJ Spinni                                                                          150                                
PROFAMCHA070901153043153126000043xxZoey 101 Back To School Contest (Aug 20 - Sept 1                                                                          150                                
PROFAMCHA070901153126153155000029Hannah Montana SCIENCE (NSW) - This Afternoon @ 5:                                                                          150                                
PROFAMCHA070901153155153236000041xxFamily Fest Phase 2 REVISED Version 2 (Aug 30 -S                                                                          150                                
PROFAMCHA070901153236153257000021xxNeds DSSG Rock Idol NSW (MAY06) Tomorrow morning                                                                          150                                
PRCFAMCHA070901153257153305000008NSW Bumper - Dodgeball (:07-:09) APR06                                                                                      150                                
ID FAMCHA070901153305153313000008Magic of Disney - NS/NSW/PB - Wipe (:06-:09)                                                                                150                                
PRCFAMCHA070901153313153322000009CC Disclaimer - FAST - Family.ca (:09-:10)                                                                                  150                                
PGRFAMCHA070901153322155600002238Cory in the House                                 EP: 01                                                               6068607BCC                              
PROFAMCHA070901155600155619000019xxSuite Life of Z & C - NSW (JULY 06) MEDITATE - C                                                                          150                                
PGRFAMCHA070901155619160440000821DC Games 2007 Closing Ceremonies - Interstitial #                                                                     A60288110                                
PRCFAMCHA070901160440160449000009xxFamily Bumpers - (Phase 1 Spring 04) - Soccer (M                                                                          150                                
PROFAMCHA070901160449160532000043xxZoey 101 Back To School Contest (Aug 20 - Sept 1                                                                          150                                
PROFAMCHA070901160532160609000037Naturally Sadie - TEENAGE (NSW) Saturday Night @ 6                                                                          150                                
PROFAMCHA070901160609160639000030xxHSM - Theatrical Show (Aug 31 - Sept 12) $$$                                                                              150                                
PROFAMCHA070901160639160651000012xxSuite Life Marathon Promo -  Monday @ 3:00-6:00p                                                                          150                                
PRCFAMCHA070901160651160703000012NSW Bumper - Fashion (:12-:14) APR06  **DNU                                                                                 150                                
ID FAMCHA070901160703160711000008Magic of Disney - NS/NSW/PB - Shape (:06-:09)                                                                               150                                
PRCFAMCHA070901160711160720000009CC Disclaimer - FAST - Generic (:09-:10)                                                                                    150                                
PGRFAMCHA070901160720162958002238Suite Life of Zack & Cody, The                    EP: 63                                                               6068607BCC                              
PRCFAMCHA070901162958163003000005xxAstral ID (FEB05)                                                                                                         150                                
PROFAMCHA070901163003163028000025xxReplacements (FEB07) WEDGIE (NSW) - Coming Up Ne                                                                          150                                
PGRFAMCHA070901163028163612000544DC Games 2007 Closing Ceremonies - Interstitial #                                                                     A60288110                                
PROFAMCHA070901163612163621000009xxFamily Bumpers - (Phase 2 F/W 04) - Skateboard (                                                                          150                                
PROFAMCHA070901163621163704000043xxZoey 101 Back To School Contest (Aug 20 - Sept 1                                                                          150                                
PROFAMCHA070901163704163720000016xxKim Possible FINGER TAUNT (NSW) (July 06) This a                                                                          150                                
PROFAMCHA070901163720163801000041xxFamily Fest Phase 2 REVISED Version 2 (Aug 30 -S                                                                          150                                
PROFAMCHA070901163801163808000007Aly & A.J. IDs - (ALY) You're Watching Family, NAD                                                                          150                                
PRCFAMCHA070901163808163824000016NSW Bumper - Tennis (:15-:17) APR06                                                                                         150                                
PRCFAMCHA070901163824163833000009CC Disclaimer - FAST - Generic (:09-:10)                                                                                    150                                
PGRFAMCHA070901163833170104002231Disney's The Replacements                         EP: 13                                                               2068607ECC                              
PROFAMCHA070901170104170121000017Kim Possible WHEELS NSW (MAY 07) Coming Up Next                                                                             150                                
PGRFAMCHA070901170121170953000832xxDC Games 2007 Closing Ceremonies - Closing                                                                           60288110                                
PROFAMCHA070901170953171002000009xxFamily Bumpers - (Phase 3 Spring 05) - Giant Foo                                                                          150                                
PROFAMCHA070901171002171037000035xxReturn to Halloweentown DVD Availabe Now  (Aug 2                                                                          150                                
PROFAMCHA070901171037171106000029Hannah Montana SCIENCE (NSW) - This Afternoon @ 5:                                                                          150                                
PROFAMCHA070901171106171138000032xxEnchanted Tales Follow Your Dreams DVD Blast Ava                                                                          150                                
PROFAMCHA070901171138171146000008Raven ID's II - Log onto family.ca                                                                                          150                                
PRCFAMCHA070901171146171158000012NSW Bumper - Fashion (:12-:14) APR06  **DNU                                                                                 150                                
PRCFAMCHA070901171158171207000009CC Disclaimer - FAST - Family.ca (:09-:10)                                                                                  150                                
PGRFAMCHA070901171207173502002255Disney's Kim Possible                             EPS # 1-056                                                          6068607ECC                              
PRCFAMCHA070901173502173507000005xxAstral ID (FEB05)                                                                                                         150                                
PROFAMCHA070901173507173536000029Hannah Montana SCIENCE (NSW) - Coming Up Next (SEP                                                                          150                                
PROFAMCHA070901173536173617000041xxFamily Fest Phase 2 REVISED Version 2 (Aug 30 -S                                                                          150                                
PROFAMCHA070901173617173637000020Zoey 101 - He Loves Her 1 - (NSW) Tonight @ 7:25pm                                                                          150                                
PRCFAMCHA070901173637173655000018xxLife with Derek NSW OJ (SEPT06) Tonight @ 7:50                                                                            150                                
PROFAMCHA070901173655173725000030xxHSM - Theatrical Show (Aug 31 - Sept 12) $$$                                                                              150                                
PRCFAMCHA070901173725173736000011Naturally Sadie ID's - I'm Charlotte, you're watch                                                                          150                                
PRCFAMCHA070901173736173743000007NSW Bumper - Dodgeball (:07-:09) APR06                                                                                      150                                
ID FAMCHA070901173743173751000008Magic of Disney - NS/NSW/PB - Shape (:06-:09)                                                                               150                                
PRCFAMCHA070901173751173800000009CC Disclaimer - FAST - Generic (:09-:10)                                                                                    150                                
PGRFAMCHA070901173800180040002240Hannah Montana                                    EP: 20                                                               6068807BCC                              
PROFAMCHA070901180040180118000038xxLife With Derek Online Content Blast Now Online                                                                           150                                
PROFAMCHA070901180118180155000037Naturally Sadie - TEENAGE (NSW) NEXT (MAY07)                                                                                150                                
PROFAMCHA070901180155180238000043xxZoey 101 Back To School Contest (Aug 20 - Sept 1                                                                          150                                
PROFAMCHA070901180238180307000029xxThat's So Raven (AUG06) BEAUTY MARK (NSW) - Toni                                                                          150                                
PROFAMCHA070901180307180339000032Suite Life of Z & C (NSW) Wonderful Hotel - Tonigh                                                                          150                                
PROFAMCHA070901180339180409000030xxHSM - The Ice Tour Promo #2 (Aug 20 - Dec 13) $$                                                                          150                                
PRCFAMCHA070901180409180418000009Naturally Sadie ID's - Check out Naturally Sadie N                                                                          150                                
PRCFAMCHA070901180418180432000014NSW Bumper - Fashion (:12-:14) APR06  **DNU                                                                                 150                                
PRCFAMCHA070901180432180441000009CC Disclaimer - FAST - Generic (:09-:10)                                                                                    150                                
PGRFAMCHA070901180441182711002230Naturally, Sadie                                  EP: 65                                                        C29639 1055607ACC3                             
PRCFAMCHA070901182711182716000005xxAstral ID (FEB05)                                                                                                         150                                
PROFAMCHA070901182716182745000029xxThat's So Raven (APR06) HELLO LADIES (NSW) - Ton                                                                          150                                
PROFAMCHA070901182745182816000031xxHSM 2 CD Blast Now Available (Aug 14 - Oct 31) $                                                                          150                                
PROFAMCHA070901182816182825000009xxFamily Bumpers - (Phase 3 Spring 05) - Hip Hop (                                                                          150                                
PROFAMCHA070901182825182855000030xxHSM - Theatrical Show (Aug 31 - Sept 12) $$$                                                                              150                                
PROFAMCHA070901182855182901000006Phil of the Future IDs - Your Watching Family...NA                                                                          150                                
PRCFAMCHA070901182901182917000016NSW Bumper - Tennis (:15-:17) APR06                                                                                         150                                
PRCFAMCHA070901182917182926000009CC Disclaimer - FAST - Family.ca (:09-:10)                                                                                  150                                
PGRFAMCHA070901182926185056002130Flight 29 Down                                    EP: 01                                                               2068807A                                
PRCFAMCHA070901185056185108000012xxNSW - 21 - RAVEN/ZOEY (MAY06) (:11 - :13) $$$                                                                             150                                
PROFAMCHA070901185108185138000030Popcorn Pix - Slapstick - Tomorrow @ Noon                                                                                   150                                
PROFAMCHA070901185138185208000030That's So Raven (SCREAM) (NSW) Coming Up Next (APR                                                                          150                                
PROFAMCHA070901185208185239000031xxTelus "My Faves" Contest (Aug 24 - Sept 4) $$$                                                                            150                                
PROFAMCHA070901185239185309000030Zoey 101 - QUINN (NSW) (MAR07) - Tonight @ 7:25                                                                             150                                
PRCFAMCHA070901185309185327000018xxLife with Derek NSW OJ (SEPT06) Tonight @ 7:50                                                                            150                                
PRCFAMCHA070901185327185346000019xxLife WD Derek Bloopers #8 (NS/NSW)                                                                                        150                                
PROFAMCHA070901185346185418000032Suite Life of Z & C (NSW) Wonderful Hotel - New Ep                                                                          150                                
PROFAMCHA070901185418185455000037xxHilroy HSM 2 Contest Tag 2 (Aug 18 - Sept 16) $$                                                                          150                                
PROFAMCHA070901185455185530000035xxSummer Grad 07 Event Spot - Friday Nights 5:35 -                                                                          150                                
PRCFAMCHA070901185530185539000009NSW Bumper - Dodgeball (:07-:09) APR06                                                                                      150                                
ID FAMCHA070901185539185547000008Magic of Disney - NS/NSW/PB - Wipe (:06-:09)                                                                                150                                
PRCFAMCHA070901185547185555000008CC Disclaimer - FAST - Generic (:09-:10)                                                                                    150                                
PGRFAMCHA070901185555191834002239That's So Raven                                   EPS # 1-052                                                          6068607BCC                              
PRCFAMCHA070901191834191839000005xxAstral ID (FEB05)                                                                                                         150                                
PRCFAMCHA070901191839191850000011xxNSW - 22 - ZOEY/DEREK (MAY06) (:11 - :13) $$$                                                                             150                                
PROFAMCHA070901191850191910000020Zoey 101 - He Loves Her 1 - (NSW) Coming Up Next (                                                                          150                                
PROFAMCHA070901191910191953000043xxZoey 101 Back To School Contest (Aug 20 - Sept 1                                                                          150                                
PROFAMCHA070901191953192002000009xxFamily Bumpers - (Phase 1 Spring 04) - Baseball                                                                           150                                
PROFAMCHA070901192002192032000030xxHSM - Theatrical Show (Aug 31 - Sept 12) $$$                                                                              150                                
PROFAMCHA070901192032192044000012xxSuite Life Marathon Promo -  Monday @ 3:00-6:00p                                                                          150                                
PRCFAMCHA070901192044192056000012NSW Bumper - Fashion (:12-:14) APR06  **DNU                                                                                 150                                
PRCFAMCHA070901192056192105000009CC Disclaimer - FAST - Family.ca (:09-:10)                                                                                  150                                
PGRFAMCHA070901192105194337002232Zoey 101                                          EPS # 07                                                             2068807BCC                              
PRCFAMCHA070901194337194407000030xxLife WD - Dinnertime Coming Up Next                                                                                       150                                
PROFAMCHA070901194407194438000031xxTelus "My Faves" Contest (Aug 24 - Sept 4) $$$                                                                            150                                
PROFAMCHA070901194438194447000009xxFamily Bumpers - (Phase 1 Spring 04) - DJ Spinni                                                                          150                                
PROFAMCHA070901194447194519000032xxEnchanted Tales Follow Your Dreams DVD Blast Ava                                                                          150                                
PRCFAMCHA070901194519194544000025xxLife WD Generic ID #1- Casey Coming Up Next                                                                               150                                
PRCFAMCHA070901194544194600000016NSW Bumper - Tennis (:15-:17) APR06                                                                                         150                                
PRCFAMCHA070901194600194609000009CC Disclaimer - FAST - Generic (:09-:10)                                                                                    150                                
PGRFAMCHA070901194609200839002230Life with Derek                                   EP: 09                                                        C23968A1065607BCC                              
PRCFAMCHA070901200839200844000005xxAstral ID (FEB05)                                                                                                         150                                
PROFAMCHA070901200844200914000030xxSuite Life of Z & C - NSW (JULY 06) GIRLFRIEND 2                                                                          150                                
PROFAMCHA070901200914200945000031xxTelus "My Faves" Contest (Aug 24 - Sept 4) $$$                                                                            150                                
PROFAMCHA070901200945201014000029Hannah Montana SCIENCE (NSW) - Tonight @ 8:35pm (S                                                                          150                                
PRCFAMCHA070901201014201044000030xxFamous Players Popcorn Parties 2 (May 2-Jan 31/0                                                                          150                                
PROFAMCHA070901201044201053000009Suite Life ID - You're watching Suite Life on Fami                                                                          150                                
PRCFAMCHA070901201053201101000008NSW Bumper - Dodgeball (:07-:09) APR06                                                                                      150                                
ID FAMCHA070901201101201109000008Magic of Disney - NS/NSW/PB - Shape (:06-:09)                                                                               150                                
PRCFAMCHA070901201109201118000009CC Disclaimer - FAST - Family.ca (:09-:10)                                                                                  150                                
PGRFAMCHA070901201118203357002239Suite Life of Zack & Cody, The                    EP: 01                                                               6068607BCC                              
PROFAMCHA070901203357203426000029Hannah Montana SCIENCE (NSW) - Coming Up Next (SEP                                                                          150                                
PROFAMCHA070901203426203458000032Suite Life of Z & C (NSW) Wonderful Hotel - New Ep                                                                          150                                
PROFAMCHA070901203458203505000007Aly & A.J. IDs - (A.J.) You're watching Family, NA                                                                          150                                
PRCFAMCHA070901203505203517000012NSW Bumper - Fashion (:12-:14) APR06  **DNU                                                                                 150                                
ID FAMCHA070901203517203523000006Magic of Disney - NS/NSW/PB - Shape (:06-:09)                                                                               150                                
PGRFAMCHA070901203523205911002348Hannah Montana                                    EP: 01                                                               6068807BCC                              
PRCFAMCHA070901205911205916000005xxAstral ID (FEB05)                                                                                                         150                                
PROFAMCHA070901205916205928000012xxZoey 101 - SCREAM (NS) (JULY07) - New Eps - Frid                                                                          150                                
PRCFAMCHA070901205928205943000015NSW Bumper - Tennis (:15-:17) APR06                                                                                         150                                
ID FAMCHA070901205943205952000009Rating - PG - Nightly Pix Only  (DEC05) (:08 - :10                                                                          150                                
PRCFAMCHA070901205952210001000009CC Disclaimer - SLOW - Family.ca (:09-:10)                                                                                  150                                
PGRFAMCHA070901210001223022013021Rudy                                                                                                                  B2068807DCC                              
PRCFAMCHA070901223022223033000011xxNSW - 27 - MOVIE ENT/NPIX (SEPT06) (:11 - :13) $                                                                          150                                
PROFAMCHA070901223033223045000012xxNightly Pix Movie Open (:10-:15)                                                                                          150                                
PRCFAMCHA070901223045224645001600Movie Entertainment (8)                                                                                               B     150                                
PROFAMCHA070901224645224655000010xxNightly Pix Movie Open (:10-:15)                                                                                          150                                
ID FAMCHA070901224655224703000008Rating - PG - Nightly Pix Only  (DEC05) (:08 - :10                                                                          150                                
PGRFAMCHA070901224703001307012604Class President                                                                                                       B2068807D                                
PRCFAMCHA070901001307001312000005xxAstral ID (FEB05)                                                                                                         150                                
PROFAMCHA070901001312001349000037Naturally Sadie - TEENAGE (NSW) NEXT (MAY07)                                                                                150                                
PROFAMCHA070901001349001418000029Hannah Montana SCIENCE (NSW) - Tomorrow @ 5:40pm (                                                                          150                                
PROFAMCHA070901001418001450000032Suite Life of Z & C (NSW) Wonderful Hotel - New Ep                                                                          150                                
PROFAMCHA070901001450001506000016Nonstop Weekend Block Open (:16-:18) APR06                                                                                  150                                
PRCFAMCHA070901001506001515000009CC Disclaimer - SLOW - Family.ca (:09-:10)                                                                                  150                                
PGRFAMCHA070901001515003745002230Naturally, Sadie                                  EP: 01                                                        C24010 1065607ACC                              
PRCFAMCHA070901003745003753000008NSW Bumper - Dodgeball (:07-:09) APR06                                                                                      150                                
PRCFAMCHA070901003753003802000009CC Disclaimer - SLOW - Generic (:09 -:10)                                                                                   150                                
PGRFAMCHA070901003802010032002230Naturally, Sadie                                  EP: 15                                                        C24010 1065607ACC                              
PRCFAMCHA070901010032010037000005xxAstral ID (FEB05)                                                                                                         150                                
PROFAMCHA070901010037010128000051xxSummer Grad 07 Contest Spot-Friday Nights Starts                                                                          150                                
PRCFAMCHA070901010128010143000015NSW Bumper - Tennis (:15-:17) APR06                                                                                         150                                
ID FAMCHA070901010143010151000008Magic of Disney - NS/NSW/PB - Shape (:06-:09)                                                                               150                                
PRCFAMCHA070901010151010200000009CC Disclaimer - SLOW - Generic (:09 -:10)                                                                                   150                                
PGRFAMCHA070901010200012438002238Hannah Montana                                    EP: 09                                                               6068807BCC                              
PROFAMCHA070901012438012447000009Raven ID's II - You're Watching Family, NADM                                                                                150                                
PRCFAMCHA070901012447012501000014NSW Bumper - Fashion (:12-:14) APR06  **DNU                                                                                 150                                
ID FAMCHA070901012501012510000009Magic of Disney - NS/NSW/PB - Wipe (:06-:09)                                                                                150                                
PGRFAMCHA070901012510014755002245Lizzie McGuire                                    EP: 1-001                                                            6068607BCC                              
PRCFAMCHA070901014755014800000005xxAstral ID (FEB05)                                                                                                         150                                
PRCFAMCHA070901014800014807000007NSW Bumper - Dodgeball (:07-:09) APR06                                                                                      150                                
ID FAMCHA070901014807014815000008Magic of Disney - NS/NSW/PB - Shape (:06-:09)                                                                               150                                
PGRFAMCHA070901014815021054002239Phil of the Future                                EPS # 01                                                             6068607BCC                              
PRCFAMCHA070901021054021107000013NSW Bumper - Fashion (:12-:14) APR06  **DNU                                                                                 150                                
ID FAMCHA070901021107021115000008Magic of Disney - NS/NSW/PB - Wipe (:06-:09)                                                                                150                                
PRCFAMCHA070901021115021124000009CC Disclaimer - SLOW - Family.ca (:09-:10)                                                                                  150                                
PGRFAMCHA070901021124023348002224Boy Meets World                                   EP: 1-001                                                           B6068807BCC                              
PRCFAMCHA070901023348023353000005xxAstral ID (FEB05)                                                                                                         150                                
PRCFAMCHA070901023353023409000016NSW Bumper - Tennis (:15-:17) APR06                                                                                         150                                
PRCFAMCHA070901023409023418000009CC Disclaimer - SLOW - Generic (:09 -:10)                                                                                   150                                
PGRFAMCHA070901023418025648002230Life with Derek                                   EP: 11                                                        C23968A1065607BCC                              
PRCFAMCHA070901025648025656000008NSW Bumper - Dodgeball (:07-:09) APR06                                                                                      150                                
ID FAMCHA070901025656025704000008Magic of Disney - NS/NSW/PB - Shape (:06-:09)                                                                               150                                
PRCFAMCHA070901025704025713000009CC Disclaimer - SLOW - Family.ca (:09-:10)                                                                                  150                                
PGRFAMCHA070901025713031951002238Cory in the House                                 EP: 01                                                               6068607BCC                              
PRCFAMCHA070901031951031956000005xxAstral ID (FEB05)                                                                                                         150                                
PRCFAMCHA070901031956032009000013NSW Bumper - Fashion (:12-:14) APR06  **DNU                                                                                 150                                
ID FAMCHA070901032009032017000008Magic of Disney - NS/NSW/PB - Wipe (:06-:09)                                                                                150                                
PRCFAMCHA070901032017032026000009CC Disclaimer - SLOW - Generic (:09 -:10)                                                                                   150                                
PGRFAMCHA070901032026034307002241That's So Raven                                   EP: 064                                                              6068607BCC                              
PRCFAMCHA070901034307034324000017NSW Bumper - Tennis (:15-:17) APR06                                                                                         150                                
ID FAMCHA070901034324034332000008Magic of Disney - NS/NSW/PB - Shape (:06-:09)                                                                               150                                
PRCFAMCHA070901034332034342000010CC Disclaimer - SLOW - Family.ca (:09-:10)                                                                                  150                                
PGRFAMCHA070901034342040642002300Suite Life of Zack & Cody, The                    EP: 64                                                               6068607BCC                              
PRCFAMCHA070901040642040647000005xxAstral ID (FEB05)                                                                                                         150                                
PRCFAMCHA070901040647040656000009NSW Bumper - Dodgeball (:07-:09) APR06                                                                                      150                                
PRCFAMCHA070901040656040706000010CC Disclaimer - SLOW - Generic (:09 -:10)                                                                                   150                                
PGRFAMCHA070901040706042936002230Life with Derek                                   EP: 11                                                        C23968A1065607BCC                              
PROFAMCHA070901042936042944000008Phil of the Future IDs - I'm Ricky Ullman, You're                                                                           150                                
ID FAMCHA070901042944042957000013PS Playhouse AM Block Open (:10-:15)                                                                                        150                                
OFFFAMCHA070901042957043000000003OFF AIR                                                                                                                                                        
SO FAMCHA070902043000043011000011Sign On (oct 1)                                                                                                                                                
PRCFAMCHA070902043011043020000009CC Disclaimer - FAST - Generic (:09-:10)                                                                                    150                                
PGRFAMCHA070902043020045420002400Henry's World                                     EP: 2-016                                                     B81047A1065607GCC                              
PRCFAMCHA070902045420045425000005xxAstral ID (FEB05)                                                                                                         150                                
PRCFAMCHA070902045425045440000015xxPH - 01 - BEN/FRANNY/KING (SAT/SUN) (JUNE06) (:1                                                                          150                                
ID FAMCHA070902045440045453000013PS Playhouse AM Block Open (:10-:15)                                                                                        150                                
PRCFAMCHA070902045453045502000009CC Disclaimer - FAST - Family.ca (:09-:10)                                                                                  150                                
PGRFAMCHA070902045502051737002235The Secret World Of Benjamin Bear                 EPS # 1-003                                                   B75148 1065607ECC                              
PRCFAMCHA070902051737051752000015xxPH - 02 - FRANNY/KING (SAT/SUN) (JUNE06) (:14 -                                                                           150                                
ID FAMCHA070902051752051802000010PS Playhouse AM Block Open (:10-:15)                                                                                        150                                
PRCFAMCHA070902051802051811000009CC Disclaimer - FAST - Generic (:09-:10)                                                                                    150                                
PGRFAMCHA070902051811054041002230Franny's Feet                                     EPS # 1-003                                                   C23970A1065607ECC                              
PRCFAMCHA070902054041054046000005xxAstral ID (FEB05)                                                                                                         150                                
PRCFAMCHA070902054046054100000014xxPH - 03 - KING (SAT/SUN) (JUNE06) (:14 - :16) $$                                                                          150                                
ID FAMCHA070902054100054112000012PS Playhouse AM Block Open (:10-:15)                                                                                        150                                
PRCFAMCHA070902054112054120000008CC Disclaimer - FAST - Family.ca (:09-:10)                                                                                  150                                
PGRFAMCHA070902054120060350002230King                                              EP: 002                                                       B75757 1065607ECC                              
PROFAMCHA070902060350060409000019Jetix Block Open (:18-:21)                                                                                                  150                                
PRCFAMCHA070902060409060417000008CC Disclaimer - FAST - Generic (:09-:10)                                                                                    150                                
PGRFAMCHA070902060417062649002232Power Rangers:  Operation Overdrive               EP: 23                                                               2068607ECC                              
PRCFAMCHA070902062649062654000005xxAstral ID (FEB05)                                                                                                         150                                
PROFAMCHA070902062654062724000030Popcorn Pix - Slapstick - Today @ Noon                                                                                      150                                
PROFAMCHA070902062724062759000035xxSummer Grad 07 Event Spot - Friday Nights 5:35 -                                                                          150                                
PROFAMCHA070902062759062837000038xxLife With Derek Online Content Blast Now Online                                                                           150                                
PROFAMCHA070902062837062855000018Jetix Block Open (:18-:21)                                                                                                  150                                
PRCFAMCHA070902062855062903000008CC Disclaimer - FAST - Family.ca (:09-:10)                                                                                  150                                
PGRFAMCHA070902062903065142002239Power Rangers:  Operation Overdrive               EP: 01                                                               2068607ECC                              
PROFAMCHA070902065142065233000051xxSummer Grad 07 Contest Spot-Friday Nights Starts                                                                          150                                
PRCFAMCHA070902065233065313000040Magazine Spot (MD,NS,NSW) 2/3 day (not in PH) (til                                                                          150                                
PRCFAMCHA070902065313065333000020Naturally Sadie ID's (NOV06) - Coming Up Soon (gen                                                                          150                                
PROFAMCHA070902065333065351000018Jetix Block Open (:18-:21)                                                                                                  150                                
PRCFAMCHA070902065351065400000009CC Disclaimer - FAST - Generic (:09-:10)                                                                                    150                                
PGRFAMCHA070902065400071639002239Yin Yang Yo!                                      EP: 24                                                               2068607ECC                              
PRCFAMCHA070902071639071644000005xxAstral ID (FEB05)                                                                                                         150                                
PROFAMCHA070902071644071656000012xxSuite Life Marathon Promo -  Tomorrow @ 3:00-6:0                                                                          150                                
PRCFAMCHA070902071656071838000142xxGet'cha Head In The Game - Baseball Version 2                                                                             150                                
PROFAMCHA070902071838071843000005Jetix Bumper (Sept 06)                                                                                                      150                                
PRCFAMCHA070902071843071913000030xxFamous Players Popcorn Parties 2 (May 2-Jan 31/0                                                                          150                                
PROFAMCHA070902071913071943000030Popcorn Pix - Slapstick - Today @ Noon                                                                                      150                                
PROFAMCHA070902071943072004000021Jetix Block Open (:18-:21)                                                                                                  150                                
PGRFAMCHA070902072004074305002301Pucca                                             EP: 01                                                               2068607ECC                              
PROFAMCHA070902074305074340000035xxSummer Grad 07 Event Spot - Friday Nights 5:35 -                                                                          150                                
PROFAMCHA070902074340074409000029Hannah Montana SCIENCE (NSW) - Coming Up Next (SEP                                                                          150                                
PROFAMCHA070902074409074444000035xxReturn to Halloweentown DVD Availabe Now  (Aug 2                                                                          150                                
PROFAMCHA070902074444074453000009xxFamily Bumpers - (Phase 3 Spring 05) - Hip Hop (                                                                          150                                
PROFAMCHA070902074453074503000010FAMJAM - Open/Close                                                                                                         150                                
PGRFAMCHA070902074503074603000100MV Disney - (MD/NS/NSW) - Jesse McCartney - Just S                                                                     60288120                                
PROFAMCHA070902074603074617000014xxFAMJAM - Close (FAMILY) xxDNUxx                                                                                           150                                
PROFAMCHA070902074617074649000032Suite Life of Z & C (NSW) Wonderful Hotel - New Ep                                                                          150                                
PROFAMCHA070902074649074721000032xxEnchanted Tales Follow Your Dreams DVD Blast Ava                                                                          150                                
PROFAMCHA070902074721074727000006Phil of the Future IDs - Your Watching Family...NA                                                                          150                                
PROFAMCHA070902074727074734000007xxHallmark Billboard - NSW (Aug 20 -Sept 2) $$$                                                                             150                                
PROFAMCHA070902074734074750000016Nonstop Weekend Block Open (:16-:18) APR06                                                                                  150                                
ID FAMCHA070902074750074756000006Magic of Disney - NS/NSW/PB - Shape (:06-:09)                                                                               150                                
PRCFAMCHA070902074756074804000008CC Disclaimer - FAST - Generic (:09-:10)                                                                                    150                                
PGRFAMCHA070902074804081042002238Hannah Montana                                    EP: 24                                                               6068807BCC                              
PRCFAMCHA070902081042081047000005xxAstral ID (FEB05)                                                                                                         150                                
PRCFAMCHA070902081047081058000011xxNSW - 03 - SUITE/ZOEY (APR06) (:11 - 13) $$$                                                                              150                                
PROFAMCHA070902081058081110000012xxSuite Life Marathon Promo -  Tomorrow @ 3:00-6:0                                                                          150                                
PROFAMCHA070902081110081142000032Suite Life of Z & C (NSW) Wonderful Hotel - New Ep                                                                          150                                
PROFAMCHA070902081142081213000031xxHSM 2 CD Blast Now Available (Aug 14 - Oct 31) $                                                                          150                                
PROFAMCHA070902081213081222000009xxFamily Bumpers - (Phase 2 F/W 04) - Skateboard (                                                                          150                                
PRCFAMCHA070902081222081347000125xxMS - Game Plan - The Rock Interview - Coming Soo                                                                          150                                
PROFAMCHA070902081347081407000020Zoey 101 - He Loves Her 1 - (NSW) This Morning @ 8                                                                          150                                
PROFAMCHA070902081407081437000030xxHSM - Theatrical Show (Aug 31 - Sept 12) $$$                                                                              150                                
PROFAMCHA070902081437081445000008Phil of the Future IDs - I'm Ricky Ullman, You're                                                                           150                                
PRCFAMCHA070902081445081453000008NSW Bumper - Dodgeball (:07-:09) APR06                                                                                      150                                
ID FAMCHA070902081453081459000006Magic of Disney - NS/NSW/PB - Shape (:06-:09)                                                                               150                                
PRCFAMCHA070902081459081507000008CC Disclaimer - FAST - Family.ca (:09-:10)                                                                                  150                                
PGRFAMCHA070902081507083743002236Suite Life of Zack and Cody, The                  EP: 02                                                               6068607BCC                              
PROFAMCHA070902083743083813000030Zoey 101 - QUINN (NSW) (MAR07) - Coming Up Next                                                                             150                                
PROFAMCHA070902083813083856000043xxZoey 101 Back to School Version #2 (Sept 2 - Oct                                                                          150                                
PROFAMCHA070902083856083905000009xxFamily Bumpers - (Phase 1 Spring 04) - DJ Spinni                                                                          150                                
PRCFAMCHA070902083905084104000159xxHSM 2 Interstitial - Movie Ent Story & Interview                                                                          150                                
PROFAMCHA070902084104084147000043Cory In The House (NSW) (MAR07) - This morning @ 9                                                                          150                                
PROFAMCHA070902084147084218000031xxTelus "My Faves" Contest (Aug 24 - Sept 4) $$$                                                                            150                                
PROFAMCHA070902084218084234000016xxZoey 101 ID - Lola - Recognize                                                                                            150                                
PROFAMCHA070902084234084241000007xxHallmark Billboard - NSW (Aug 20 -Sept 2) $$$                                                                             150                                
PROFAMCHA070902084241084257000016Nonstop Weekend Block Open (:16-:18) APR06                                                                                  150                                
PRCFAMCHA070902084257084305000008CC Disclaimer - FAST - Generic (:09-:10)                                                                                    150                                
PGRFAMCHA070902084305090537002232Zoey 101                                          EPS # 07                                                             2068807BCC                              
PRCFAMCHA070902090537090542000005xxAstral ID (FEB05)                                                                                                         150                                
PROFAMCHA070902090542090633000051xxSummer Grad 07 Contest Spot-Friday Nights Starts                                                                          150                                
PROFAMCHA070902090633090716000043Cory In The House (NSW) (MAR07) - Coming Up Next                                                                            150                                
PROFAMCHA070902090716090747000031xxHSM 2 CD Blast Now Available (Aug 14 - Oct 31) $                                                                          150                                
PRCFAMCHA070902090747090756000009xxFamily Bumpers - (Phase 1 Spring 04) - Soccer (M                                                                          150                                
PROFAMCHA070902090756090806000010FAMJAM - Open/Close                                                                                                         150                                
PGRFAMCHA070902090806090951000145xxMV Disney - (MD/NS/NSW) - HSM - What I've Been L                                                                     60688120                                
PROFAMCHA070902090951091005000014xxFAMJAM - Close (FAMILY) xxDNUxx                                                                                           150                                
PROFAMCHA070902091005091035000030That's So Raven (SCREAM) (NSW) This Mornings @ 9:4                                                                          150                                
PROFAMCHA070902091035091116000041xxFamily Fest Phase 2 REVISED Version 2 (Aug 30 -S                                                                          150                                
PROFAMCHA070902091116091137000021xxNeds DSSG Rock Idol NSW (MAY06) This morning @ 1                                                                          150                                
PRCFAMCHA070902091137091150000013NSW Bumper - Fashion (:12-:14) APR06  **DNU                                                                                 150                                
ID FAMCHA070902091150091156000006Magic of Disney - NS/NSW/PB - Wipe (:06-:09)                                                                                150                                
PRCFAMCHA070902091156091205000009CC Disclaimer - FAST - Family.ca (:09-:10)                                                                                  150                                
PGRFAMCHA070902091205093443002238Cory in the House                                 EP: 03                                                               6068607BCC                              
PROFAMCHA070902093443093505000022That's So Raven (BEAR) (NSW) Coming Up Next (APR07                                                                          150                                
PROFAMCHA070902093505093540000035xxReturn to Halloweentown DVD Availabe Now  (Aug 2                                                                          150                                
PROFAMCHA070902093540093549000009xxFamily Bumpers - (Phase 3 Spring 05) - Giant Foo                                                                          150                                
PRCFAMCHA070902093549093912000323xxAnother Side of Corbin Bleu Interstitial (Aug 18                                                                          150                                
PROFAMCHA070902093912093933000021xxNeds DSSG Rock Idol NSW (MAY06) This morning @ 1                                                                          150                                
PROFAMCHA070902093933094014000041xxFamily Fest Phase 2 REVISED Version 2 (Aug 30 -S                                                                          150                                
PRCFAMCHA070902094014094024000010Naturally Sadie ID's - I'm Charlotte from Naturall                                                                          150                                
PROFAMCHA070902094024094031000007xxHallmark Billboard - NSW (Aug 20 -Sept 2) $$$                                                                             150                                
PROFAMCHA070902094031094047000016Nonstop Weekend Block Open (:16-:18) APR06                                                                                  150                                
ID FAMCHA070902094047094053000006Magic of Disney - NS/NSW/PB - Shape (:06-:09)                                                                               150                                
PRCFAMCHA070902094053094101000008CC Disclaimer - FAST - Generic (:09-:10)                                                                                    150                                
PGRFAMCHA070902094101100340002239That's So Raven                                   EPS # 1-041                                                          6068607BCC                              
PRCFAMCHA070902100340100345000005xxAstral ID (FEB05)                                                                                                         150                                
PROFAMCHA070902100345100415000030xxPhil of the Future THINGS TO COME (NSW) (APR06)                                                                           150                                
PROFAMCHA070902100415100458000043xxZoey 101 Back to School Version #2 (Sept 2 - Oct                                                                          150                                
PROFAMCHA070902100458100510000012xxFamily Bumpers - (Phase 1 Spring 04) - Picnic (M                                                                          150                                
PROFAMCHA070902100510100520000010FAMJAM - Open/Close                                                                                                         150                                
PGRFAMCHA070902100520100756000236MV Disney - (MD/NS/NSW) - Jesse McCartney - Just S                                                                     60688120                                
PROFAMCHA070902100756100810000014xxFAMJAM - Close (FAMILY) xxDNUxx                                                                                           150                                
PROFAMCHA070902100810100848000038Double Teamed (SEPT12) - Next Friday @ 7:30pm                                                                               150                                
PROFAMCHA070902100848100929000041xxFamily Fest Phase 2 REVISED Version 2 (Aug 30 -S                                                                          150                                
PROFAMCHA070902100929100941000012xxSuite Life Marathon Promo -  Tomorrow @ 3:00-6:0                                                                          150                                
PRCFAMCHA070902100941100957000016NSW Bumper - Tennis (:15-:17) APR06                                                                                         150                                
ID FAMCHA070902100957101006000009Magic of Disney - NS/NSW/PB - Wipe (:06-:09)                                                                                150                                
PGRFAMCHA070902101006103242002236Phil of the Future Yr 2                           EP: 28                                                               6068607BCC                              
PROFAMCHA070902103242103333000051xxSummer Grad 07 Contest Spot-Friday Nights Starts                                                                          150                                
PROFAMCHA070902103333103411000038Double Teamed (SEPT12) - Next Friday @ 7:30pm                                                                               150                                
PROFAMCHA070902103411103441000030xxHSM - The Ice Tour Promo #2 (Aug 20 - Dec 13) $$                                                                          150                                
PROFAMCHA070902103441103450000009xxFamily Bumpers - (Phase 3 Spring 05) - Hip Hop (                                                                          150                                
PRCFAMCHA070902103450103602000112xxGet'cha Head In The Game - Soccer Version 2                                                                               150                                
PROFAMCHA070902103602103623000021xxNeds DSSG Rock Idol NSW (MAY06) This morning @ 1                                                                          150                                
PROFAMCHA070902103623103704000041xxFamily Fest Phase 2 REVISED Version 2 (Aug 30 -S                                                                          150                                
PROFAMCHA070902103704103739000035xxSummer Grad 07 Event Spot - Friday Nights 5:35 -                                                                          150                                
PRCFAMCHA070902103739103746000007NSW Bumper - Dodgeball (:07-:09) APR06                                                                                      150                                
ID FAMCHA070902103746103755000009Magic of Disney - NS/NSW/PB - Shape (:06-:09)                                                                               150                                
PRCFAMCHA070902103755103803000008CC Disclaimer - FAST - Generic (:09-:10)                                                                                    150                                
PGRFAMCHA070902103803110027002224Boy Meets World                                   EP: 1-038                                                           B6068807BCC                              
PRCFAMCHA070902110027110032000005xxAstral ID (FEB05)                                                                                                         150                                
PROFAMCHA070902110032110053000021xxNeds DSSG Rock Idol NSW (MAY06) Coming Up Next                                                                            150                                
PROFAMCHA070902110053110124000031xxHSM 2 CD Blast Now Available (Aug 14 - Oct 31) $                                                                          150                                
PROFAMCHA070902110124110133000009xxFamily Bumpers - (Phase 1 Spring 04) - DJ Spinni                                                                          150                                
PROFAMCHA070902110133110143000010FAMJAM - Open/Close                                                                                                         150                                
PGRFAMCHA070902110143110243000100MV Disney - (MD/NS/NSW) - Jesse McCartney - Just S                                                                     60688120                                
PROFAMCHA070902110243110257000014xxFAMJAM - Close (FAMILY) xxDNUxx                                                                                           150                                
