SO FAMCHA010101043000043011000011Sign On (oct 1)                                                                                                         06                                     
PROFAMCHA010101043011043016000005CC Disclaimer (oct) **DO NOT USE**                                                                                      06  150                                
PGRFAMCHA010101043016045416002400Hello Mrs. Cherrywinkle                           Mrs. C TV                                                     B18888A1065607ACC                              
ID FAMCHA010101045416045426000010Generic ID - Bubbles                                                                                                    06  150                                
PROFAMCHA010101045426045441000015Doug (MARCH2001) - Today @ 4pm                                                                                          06  150                                
ID FAMCHA010101045441045501000020Morning block open play pen                                                                                             06  150                                
PROFAMCHA010101045501045506000005CC Disclaimer (oct) **DO NOT USE**                                                                                      06  150                                
PGRFAMCHA010101045506051916002410Busy World Of Richard Scarry; The                 The Busiest Firefighters Ever/Manuel Of Mexico                B10182 1065607ECC                              
ID FAMCHA010101051916051921000005Generic ID - Bubbles*                                                                                                   06  150                                
PROFAMCHA010101051921051939000018Mickey Mouseworks - Weekends @ 4:30pm                                                                                   06  150                                
ID FAMCHA010101051939051959000020Morning block open play pen                                                                                             06  150                                
PROFAMCHA010101051959052004000005CC Disclaimer (oct) **DO NOT USE**                                                                                      06  150                                
PGRFAMCHA010101052004054505002501Amazing Animals                                   Farm Animals                                                         60686110CC                              
ID FAMCHA010101054505054510000005Generic ID - Fingerpaint                                                                                                06  150                                
PROFAMCHA010101054510054540000030Mickey Mouseworks - Weekends @ 4:30pm                                                                                   06  150                                
ID FAMCHA010101054540054600000020Morning block open play pen                                                                                             06  150                                
PROFAMCHA010101054600054605000005CC Disclaimer (oct) **DO NOT USE**                                                                                      06  150                                
PGRFAMCHA010101054605061025002420Billy The Cat                                     Born To Be A Wildcat                                          B27655A1065607ECC                              
ID FAMCHA010101061025061032000007Generic ID - Whisper*                                                                                                   06  150                                
ID FAMCHA010101061032061041000009URL(1) - CONTESTS                                                                                                       06  150                                
ID FAMCHA010101061041061101000020Morning block open play pen                                                                                             06  150                                
PROFAMCHA010101061101061106000005CC Disclaimer (oct) **DO NOT USE**                                                                                      06  150                                
PGRFAMCHA010101061106063437002331Little Lulu Show; The                             Involuntary Volunteers, Malpractice Makes Perfect,            A20206A1055607ECC3                             
ID FAMCHA010101063437063442000005Generic ID - Couch 1*                                                                                                   06  150                                
PROFAMCHA010101063442063542000100Morning Block - Crunch - Today @ 9am                                                                                    06  150                                
ID FAMCHA010101063542063602000020Morning block open play pen                                                                                             06  150                                
PROFAMCHA010101063602063607000005CC Disclaimer (oct) **DO NOT USE**                                                                                      06  150                                
PGRFAMCHA010101063607070007002400Big Garage; The                                   The Latest Style                                              P21474 1065607ECC                              
ID FAMCHA010101070007070012000005Generic ID - Couch 2*                                                                                                   06  150                                
PROFAMCHA010101070012070017000005CC Disclaimer (oct) **DO NOT USE**                                                                                      06  150                                
PGRFAMCHA010101070017072310002253Franklin                                          Good Deeds/Submarine                                          A38147A1065607ECC                              
ID FAMCHA010101072310072320000010Generic ID - Family w/dog                                                                                               06  150                                
PROFAMCHA010101072320072420000100Morning Block - Crunch - Today @ 9am                                                                                    06  150                                
PROFAMCHA010101072420072450000030New Adventures of WTP (MARCH2001) - Coming Up                                                                           06  150                                
INTFAMCHA010101072450072910000420MV Disney - Someday (ALL 4 ONE)                                                                                        60688120                                
PROFAMCHA010101072910072940000030Mickey Mouseworks - Weekends @ 4:30pm                                                                                   06  150                                
PRCFAMCHA010101072940072950000010Morning Block menu background (flex time)                                                                               06  150                                
ID FAMCHA010101072950073000000010xxMagic of Disney - V2(sky) - KID FEMALE                                                                                06  150                                
PROFAMCHA010101073000073005000005CC Disclaimer (oct) **DO NOT USE**                                                                                      06  150                                
PGRFAMCHA010101073005075244002239New Adventures of Winnie the Pooh; The            The Good, The Bad, and The Tigger                                    6068607ECC                              
ID FAMCHA010101075244075249000005Generic ID - Fingerpaint                                                                                                06  150                                
PRCFAMCHA010101075249075319000030Franklin (MARCH2001) - Today @ 12:30pm                                                                                 106  150                                
PROFAMCHA010101075319075349000030New Adventures of WTP (MARCH2001) - Weekdays @ 7:3                                                                      06  150                                
INTFAMCHA010101075349075831000442Art Attack - Ice Skaters (WINTER)                                                                                      60686120                                
PROFAMCHA010101075831075846000015Doug (MARCH2001) - Today @ 4pm                                                                                          06  150                                
PROFAMCHA010101075846075916000030Mickey Mouseworks - Weekends @ 4:30pm                                                                                   06  150                                
PROFAMCHA010101075916075940000024ALF - Today @ Noon                                                                                                      06  150                                
ID FAMCHA010101075940080000000020Morning block open play pen                                                                                             06  150                                
PGRFAMCHA010101080000081459001459Art Attack                                        1-024                                                                60686110                                
ID FAMCHA010101081459081509000010Generic ID - Hula Hoop                                                                                                  06  150                                
PROFAMCHA010101081509081609000100Morning Block - Crunch - Today @ 9am                                                                                    06  150                                
ID FAMCHA010101081609081619000010Holiday Web Throw                                                                                                       06  150                                
PGRFAMCHA010101081619082908001249Donald And The Wheel                                                                                                   60686150                                
PRCFAMCHA010101082908082938000030Franklin (MARCH2001) - Today @ 12:30pm                                                                                 106  150                                
PRCFAMCHA010101082938082950000012Morning Block menu background (flex time)                                                                               06  150                                
ID FAMCHA010101082950083000000010xxMagic of Disney - V2(sky) - KID MALE                                                                                  06  150                                
PROFAMCHA010101083000083005000005CC Disclaimer (oct) **DO NOT USE**                                                                                      06  150                                
PGRFAMCHA010101083005085313002308Disney Presents Bill Nye the Science Guy          Oceanography                                                         60686110CC                              
ID FAMCHA010101085313085320000007Generic ID - Whisper*                                                                                                   06  150                                
PROFAMCHA010101085320085405000045PB&J Otter (MARCH2001) - Coming Up                                                                                     206  150                                
PROFAMCHA010101085405085420000015ALF (Lucky) - Today @ Noon                                                                                              02  150                                
INTFAMCHA010101085420085830000410MV Disney - Colours Of The Wind (POCAHONTAS)                                                                           60688120                                
PRCFAMCHA010101085830085900000030Franklin (MARCH2001) - Today @ 12:30pm                                                                                 106  150                                
PROFAMCHA010101085900090000000100Morning Block - Crunch - PB&J/BUSY/MADLEINE                                                                             06  150                                
PROFAMCHA010101090000090005000005CC Disclaimer (oct) **DO NOT USE**                                                                                      06  150                                
PGRFAMCHA010101090005092228002223PB&J Otter                                        Otter In The Water/All Popped Out                                   A6068607ECC                              
ID FAMCHA010101092228092233000005Generic ID - Couch 2*                                                                                                   06  150                                
PRCFAMCHA010101092233092303000030Franklin (MARCH2001) - Today @ 12:30pm                                                                                 106  150                                
PROFAMCHA010101092303092330000027Recess (MARCH2001) - Today @ 5pm                                                                                        06  150                                
PROFAMCHA010101092330092345000015ALF (Lucky) - Today @ Noon                                                                                              06  150                                
PROFAMCHA010101092345092400000015Doug (MARCH2001) - Today @ 4pm                                                                                          06  150                                
PROFAMCHA010101092400092500000100Morning Block - Crunch - BUSY/MADELINE/OOTB                                                                             06  150                                
PROFAMCHA010101092500092505000005CC Disclaimer (oct) **DO NOT USE**                                                                                      06  150                                
PGRFAMCHA010101092505094915002410Busy World Of Richard Scarry; The                 Mr. Raccoon's Different Day/Mario, The Venetian               B10183 1065607ECC                              
ID FAMCHA010101094915094925000010Generic ID - Ring around the rosie                                                                                      06  150                                
PRCFAMCHA010101094925094955000030Madeline (AUG2000) - Coming Up                                                                                         106  150                                
PROFAMCHA010101094955095010000015Doug (MARCH2001) - Today @ 4pm                                                                                          06  150                                
INTFAMCHA010101095010095130000120Bill Nye - Whether the Weather                                                                                         60688120                                
PROFAMCHA010101095130095200000030Pepper Ann (MARCH2001) - Today @ 4:30pm                                                                                 06  150                                
PROFAMCHA010101095200095300000100Morning Block - Crunch - MADELINE/OOTB/BILLY                                                                            06  150                                
PGRFAMCHA010101095300101536002236Madeline                                          Madeline at the Louvre                                               6068607E                                
ID FAMCHA010101101536101546000010Generic ID - soccer **DO NOT USE**                                                                                      06  150                                
PRCFAMCHA010101101546101616000030Out of the Box (AUG2000) - Coming Up                                                                                   106  150                                
PROFAMCHA010101101616101646000030Pepper Ann (MARCH2001) - Today @ 4:30pm                                                                                 06  150                                
PROFAMCHA010101101646101701000015ALF (Lucky) - Today @ Noon                                                                                              06  150                                
PROFAMCHA010101101701101801000100Morning Block - Crunch - OOTB/BILLY/GOOF                                                                                06  150                                
PGRFAMCHA010101101801104051002250Out of the Box                                    Tube Town                                                            60686110                                
ID FAMCHA010101104051104056000005Generic ID - soccer **DO NOT USE**                                                                                      06  150                                
PROFAMCHA010101104056104126000030Pepper Ann (MARCH2001) - Today @ 4:30pm                                                                                 06  150                                
ID FAMCHA010101104126104133000007URL(1) - FUNSTUFF                                                                                                       06  150                                
PROFAMCHA010101104133104200000027Recess (MARCH2001) - Today @ 5pm                                                                                        06  150                                
PROFAMCHA010101104200104300000100Morning Block - Crunch - BILLY/GOOF/ALADDIN                                                                             06  150                                
PROFAMCHA010101104300104305000005CC Disclaimer (oct) **DO NOT USE**                                                                                      06  150                                
PGRFAMCHA010101104305110729002424Billy The Cat                                     Monkey Business                                               B27656A1065607ECC                              
ID FAMCHA010101110729110736000007Generic ID - Whisper*                                                                                                   06  150                                
PRCFAMCHA010101110736110812000036Goof Troop (MARCH2001) - Coming Up                                                                                      06  150                                
PROFAMCHA010101110812110842000030Jersey - Weekends @ 9am                                                                                                 06  150                                
PROFAMCHA010101110842110900000018Mickey Mouseworks - Weekends @ 4:30pm                                                                                   06  150                                
PROFAMCHA010101110900111000000100Morning Block - Crunch - GOOF/ALADDIN/RECAP                                                                             06  150                                
PROFAMCHA010101111000111005000005CC Disclaimer (oct) **DO NOT USE**                                                                                      06  150                                
PGRFAMCHA010101111005113248002243Goof Troop                                        From Air To Eternity                                                 6068607ECC                              
ID FAMCHA010101113248113258000010Generic ID - Bubbles                                                                                                    06  150                                
PROFAMCHA010101113258113325000027Recess (MARCH2001) - Today @ 5pm                                                                                        06  150                                
PRCFAMCHA010101113325113400000035Little Lulu (AUG2000) - Tonight @ 6pm                                                                                  106  150                                
PROFAMCHA010101113400113500000100Morning Block - Crunch - ALADDIN/RECAP                                                                                  06  150                                
PROFAMCHA010101113500113505000005CC Disclaimer (oct) **DO NOT USE**                                                                                      06  150                                
PGRFAMCHA010101113505115742002237Disney's Aladdin                                  Hero With A Thousand Feathers                                        6068607ECC                              
ID FAMCHA010101115742115752000010Generic ID - Hula Hoop                                                                                                  06  150                                
PROFAMCHA010101115752115852000100Morning Block - Crunch - RECAP - REBOUND COMING UP                                                                      06  150                                
PROFAMCHA010101115852115916000024ALF - Coming Up                                                                                                         06  150                                
PRCFAMCHA010101115916115951000035Little Lulu (AUG2000) - Tonight @ 6pm                                                                                  106  150                                
ID FAMCHA010101115951120006000015Afternoon block pinball open **DO NOT USE**                                                                             06  150                                
PGRFAMCHA010101120006122134002128ALF                                               Varsity Drag                                                        A2068807B                                
ID FAMCHA010101122134122149000015Generic ID - confetti                                                                                                   06  150                                
PROFAMCHA010101122149122219000030My Girl (JAN6) - Saturday @ 9pm                                                                                         06  150                                
PRCFAMCHA010101122219122249000030Franklin (MARCH2001) - Coming Up                                                                                       106  150                                
PROFAMCHA010101122249122349000100Afternoon Block - Rebound - Today @ 1pm                                                                                 02  150                                
ID FAMCHA010101122349122359000010Holiday Web Throw                                                                                                       06  150                                
INTFAMCHA010101122359122825000426MV Disney - Love Will Find A Way (KENNY LATIMORE/H                                                                     60688120                                
PRCFAMCHA010101122825122900000035Little Lulu (AUG2000) - Tonight @ 6pm                                                                                  106  150                                
PROFAMCHA010101122900122933000033Genius (JAN7) - Sunday @ 12pm                                                                                           02  150                                
PRCFAMCHA010101122933122945000012Morning Block menu background (flex time)                                                                               06  150                                
ID FAMCHA010101122945123000000015Afternoon block pinball open **DO NOT USE**                                                                             06  150                                
PROFAMCHA010101123000123005000005CC Disclaimer (oct) **DO NOT USE**                                                                                      06  150                                
PGRFAMCHA010101123005125258002253Franklin                                          Meets Ermine/Funny Business                                   A38153A1065607ECC                              
ID FAMCHA010101125258125313000015Generic ID - confetti                                                                                                   06  150                                
PROFAMCHA010101125313125345000032Superman - Sunday @ 9:15pm                                                                                              02  150                                
PROFAMCHA010101125345125430000045PB&J Otter (MARCH2001) - Coming Up                                                                                     206  150                                
PRCFAMCHA010101125430125505000035Little Lulu (AUG2000) - Tonight @ 6pm                                                                                  106  150                                
INTFAMCHA010101125505125801000256MV Disney - Strangers Like Me (PHIL COLLINS)                                                                           60688120                                
PROFAMCHA010101125801125831000030Lion King (AUG2000) - Tonight @ 6:30pm                                                                                 206  150                                
PROFAMCHA010101125831125901000030My Girl (JAN6) - Saturday @ 9pm                                                                                         06  150                                
PROFAMCHA010101125901130001000100Afternoon Block - Rebound - PB&J/BUSY/MADELINE                                                                          02  150                                
PROFAMCHA010101130001130006000005CC Disclaimer (oct) **DO NOT USE**                                                                                      06  150                                
PGRFAMCHA010101130006132227002221PB&J Otter                                        Nothin' But The Tooth/Special Delivery                              A6068607ECC                              
ID FAMCHA010101132227132232000005Generic ID - Couch 1*                                                                                                   06  150                                
PROFAMCHA010101132232132247000015Doug (MARCH2001) - Today @ 4pm                                                                                          06  150                                
PROFAMCHA010101132247132332000045PB&J Otter (MARCH2001) - Weekends @ 5pm                                                                                206  150                                
PROFAMCHA010101132332132402000030Pepper Ann (MARCH2001) - Today @ 4:30pm                                                                                 06  150                                
PROFAMCHA010101132402132502000100Afternoon Block - Rebound - BUSY/MADELINE/OOTB                                                                          02  150                                
PROFAMCHA010101132502132507000005CC Disclaimer (oct) **DO NOT USE**                                                                                      06  150                                
PGRFAMCHA010101132507134919002412Busy World Of Richard Scarry; The                 The Best Mistake Ever/Sneef, The Best Detective               B10184 1065607ECC                              
ID FAMCHA010101134919134924000005Generic ID - Couch 2*                                                                                                   06  150                                
PRCFAMCHA010101134924134954000030Madeline (AUG2000) - Coming Up                                                                                         106  150                                
PROFAMCHA010101134954135024000030Pepper Ann (MARCH2001) - Today @ 4:30pm                                                                                 06  150                                
INTFAMCHA010101135024135140000116Bill Nye - How Can We Communicate?                                                                                     60688120                                
PROFAMCHA010101135140135201000021Recess (MARCH2001) - Today @ 5pm                                                                                        06  150                                
PROFAMCHA010101135201135301000100Afternoon Block - Rebound - MADELINE/OOTB/BILLY                                                                         02  150                                
PGRFAMCHA010101135301141534002233Madeline                                          Madeline and the Missing Clown                                       6068607E                                
ID FAMCHA010101141534141544000010Generic ID - Family w/dog                                                                                               06  150                                
PRCFAMCHA010101141544141614000030Out of the Box (AUG2000) - Coming Up                                                                                   106  150                                
PROFAMCHA010101141614141644000030Pepper Ann (MARCH2001) - Today @ 4:30pm                                                                                 06  150                                
PROFAMCHA010101141644141700000016ALF (Description) - Weekdays @ 12pm                                                                                     06  150                                
PROFAMCHA010101141700141800000100Afternoon Block - Rebound - OOTB/BILLY/GOOF                                                                             02  150                                
PGRFAMCHA010101141800144030002230Out of the Box                                    High Fliers                                                          60686110                                
ID FAMCHA010101144030144035000005Generic ID - Fingerpaint                                                                                                06  150                                
PROFAMCHA010101144035144105000030Pepper Ann (MARCH2001) - Today @ 4:30pm                                                                                 06  150                                
PROFAMCHA010101144105144133000028Honey (MARCH2001) - Tonight @ 8pm                                                                                       06  150                                
PROFAMCHA010101144133144200000027Recess (MARCH2001) - Today @ 5pm                                                                                        06  150                                
PROFAMCHA010101144200144300000100Afternoon Block - Rebound - BILLY/GOOF/ALADDIN                                                                          02  150                                
PROFAMCHA010101144300144305000005CC Disclaimer (oct) **DO NOT USE**                                                                                      06  150                                
PGRFAMCHA010101144305150727002422Billy The Cat                                     Snowbound                                                     B27657A1065607ECC                              
ID FAMCHA010101150727150732000005Generic ID - Couch 2*                                                                                                   06  150                                
PRCFAMCHA010101150732150808000036Goof Troop (MARCH2001) - Coming Up                                                                                      06  150                                
PROFAMCHA010101150808150835000027Recess (MARCH2001) - Today @ 5pm                                                                                        06  150                                
PROFAMCHA010101150835150900000025Pete & Pete (AUG2000) - Weekends @ 7:30am                                                                              206  150                                
PROFAMCHA010101150900151000000100Afternoon Block - Rebound - GOOF/ALADDIN/RECAP                                                                          02  150                                
PROFAMCHA010101151000151005000005CC Disclaimer (oct) **DO NOT USE**                                                                                      06  150                                
PGRFAMCHA010101151005153251002246Goof Troop                                        Pistolgeist                                                          6068607ECC                              
ID FAMCHA010101153251153258000007Generic ID - Whisper*                                                                                                   06  150                                
PROFAMCHA010101153258153325000027Recess (MARCH2001) - Today @ 5pm                                                                                        06  150                                
PRCFAMCHA010101153325153400000035Little Lulu (AUG2000) - Tonight @ 6pm                                                                                  106  150                                
PROFAMCHA010101153400153500000100Afternoon Block - Rebound - ALADDIN/RECAP                                                                               02  150                                
PROFAMCHA010101153500153505000005CC Disclaimer (oct) **DO NOT USE**                                                                                      06  150                                
PGRFAMCHA010101153505155742002237Disney's Aladdin                                  A Sultan Worth His Salt                                              6068607ECC                              
ID FAMCHA010101155742155752000010Generic ID - Pink inner tube                                                                                            06  150                                
PROFAMCHA010101155752155852000100Afternoon Block - Rebound - RECAP                                                                                       02  150                                
PROFAMCHA010101155852155922000030Disney's One, Too - Coming Up                                                                                           06  150                                
PROFAMCHA010101155922155950000028Honey (MARCH2001) - Tonight @ 8pm                                                                                       06  150                                
ID FAMCHA010101155950160000000010xxMagic of Disney - V2(sky) - TEEN FEMALE                                                                               06  150                                
PROFAMCHA010101160000160030000030Disney's One Too - Opening                                                                                              06  150                                
PGRFAMCHA010101160030162300002230Disney's Doug                                     Doug's Hairy Situation                                               6068607E                                
ID FAMCHA010101162300162310000010Generic ID - Ring around the rosie                                                                                      06  150                                
PROFAMCHA010101162310162340000030My Girl (JAN6) - Saturday @ 9pm                                                                                         06  150                                
PROFAMCHA010101162340162410000030Pepper Ann (MARCH2001) - Coming Up                                                                                      06  150                                
PRCFAMCHA010101162410162450000040Famous Jett Jackson - Weekends @ 9:30am                                                                                106  150                                
INTFAMCHA010101162450162503000013Toy Story Treats - Buzz Box #1                                                                                         60686120                                
INTFAMCHA010101162503162625000122Disney Dinner Time(03)- Tecumseh (D12 only)                                                                            60686120                                
INTFAMCHA010101162625162638000013Toy Story Treats - Global Swarming                                                                                     60686120                                
INTFAMCHA010101162638162800000122Disney Dinner Time(07)- King Tut (D12 only)                                                                            60686120                                
INTFAMCHA010101162800162833000033Toy Story Treats - Hands Down Winner                                                                                   60686120                                
PRCFAMCHA010101162833162903000030In A Heartbeat (PREM) - Sunday @ 8:30pm                                                                                102  150                                
PROFAMCHA010101162903162936000033Genius (JAN7) - Sunday @ 12pm                                                                                           06  150                                
PRCFAMCHA010101162936162945000009Morning Block menu background (flex time)                                                                               06  150                                
ID FAMCHA010101162945163000000015Afternoon block pinball open **DO NOT USE**                                                                             06  150                                
PROFAMCHA010101163000163030000030Disney's One Too - Opening                                                                                              06  150                                
PROFAMCHA010101163030163035000005CC Disclaimer (oct) **DO NOT USE**                                                                                      06  150                                
PGRFAMCHA010101163035165324002249Disney's Pepper Ann                               Snot Your Mother's Music/Uniform, Uniformity                         6068607ECC                              
ID FAMCHA010101165324165334000010Generic ID - soccer **DO NOT USE**                                                                                      06  150                                
PROFAMCHA010101165334165406000032Superman - Sunday @ 9:15pm                                                                                              06  150                                
PROFAMCHA010101165406165433000027Recess (MARCH2001) - Coming Up                                                                                          06  150                                
PRCFAMCHA010101165433165503000030In A Heartbeat (PREM) - Sunday @ 8:30pm                                                                                106  150                                
INTFAMCHA010101165503165524000021Recess Sketches - Cajoling Gus - Miss Finster Gus                                                                      60686120                                
INTFAMCHA010101165524165554000030Disney Magic Drawings(07)- Mermaid (D12 only)                                                                          60686120                                
INTFAMCHA010101165554165615000021Recess Sketches - Mickey's World Record - Card Hou                                                                     60686120                                
PROFAMCHA010101165615165640000025Pete & Pete (AUG2000) - Weekends @ 7:30am                                                                              206  150                                
INTFAMCHA010101165640165710000030Disney Magic Drawings(09)- Dumbo (D12 only)                                                                            60686120                                
INTFAMCHA010101165710165731000021Recess Sketches - Telephone                                                                                            60686120                                
INTFAMCHA010101165731165801000030Disney Magic Drawings(05)- Goofy (D12 only)                                                                            60686120                                
PROFAMCHA010101165801165825000024ALF - Weekdays @ Noon                                                                                                   06  150                                
PRCFAMCHA010101165825165905000040Famous Jett Jackson - Saturday @ 8:30pm                                                                                106  150                                
PROFAMCHA010101165905165935000030My Girl (JAN6) - Saturday @ 9pm                                                                                         06  150                                
PRCFAMCHA010101165935165945000010Morning Block menu background (flex time)                                                                               06  150                                
ID FAMCHA010101165945170000000015Afternoon block pinball open **DO NOT USE**                                                                             06  150                                
PROFAMCHA010101170000170030000030Disney's One Too - Opening                                                                                              06  150                                
PGRFAMCHA010101170030172305002235Disney's Recess                                   Shiner/Stand-Up Randall                                              6068607E                                
ID FAMCHA010101172305172315000010Generic ID - Family w/dog                                                                                               06  150                                
PROFAMCHA010101172315172345000030My Girl (JAN6) - Saturday @ 9pm                                                                                         06  150                                
INTFAMCHA010101172345172418000033Toy Story Treats - Alter Egos                                                                                          60686120                                
INTFAMCHA010101172418172604000146Disney Magic Shop(05)- Fantastic Fruit Prediction                                                                      60686120                                
INTFAMCHA010101172604172638000034Toy Story Treats - It's ABC (DO NOT USE)                                                                               60686120                                
INTFAMCHA010101172638172829000151Disney Magic Shop(09)- Four Ace Trick (D12 only)                                                                       60686120                                
INTFAMCHA010101172829172902000033Toy Story Treats - Shadow Puppets                                                                                      60686120                                
PROFAMCHA010101172902172935000033Genius (JAN7) - Sunday @ 12pm                                                                                           06  150                                
PRCFAMCHA010101172935172945000010Morning Block menu background (flex time)                                                                               06  150                                
ID FAMCHA010101172945173000000015Afternoon block pinball open **DO NOT USE**                                                                             06  150                                
PROFAMCHA010101173000173030000030Disney's One Too - Opening                                                                                              06  150                                
PROFAMCHA010101173030173035000005CC Disclaimer (oct) **DO NOT USE**                                                                                      06  150                                
PGRFAMCHA010101173035175229002154Disney/Pixar's Buzz Lightyear of Star Command     Planet of the Lost                                                   6028607ECC                              
ID FAMCHA010101175229175236000007Generic ID - Whisper*                                                                                                   06  150                                
PROFAMCHA010101175236175308000032Superman - Sunday @ 9:15pm                                                                                              06  150                                
PRCFAMCHA010101175308175343000035Little Lulu (AUG2000) - Coming Up                                                                                      106  150                                
PROFAMCHA010101175343175413000030Lion King (AUG2000) - Tonight @ 6:30pm                                                                                 206  150                                
ID FAMCHA010101175413175423000010Holiday Web Throw                                                                                                       06  150                                
INTFAMCHA010101175423175838000415MV Disney - You'll Be In My Heart (PHIL COLLINS)                                                                       60688120                                
PROFAMCHA010101175838175902000024ALF - Weekdays @ Noon                                                                                                   06  150                                
PROFAMCHA010101175902175932000030My Girl (JAN6) - Saturday @ 9pm                                                                                         06  150                                
PRCFAMCHA010101175932175945000013Morning Block menu background (flex time)                                                                               06  150                                
ID FAMCHA010101175945180000000015Afternoon block pinball open **DO NOT USE**                                                                             06  150                                
PROFAMCHA010101180000180005000005CC Disclaimer (oct) **DO NOT USE**                                                                                      06  150                                
PGRFAMCHA010101180005182337002332Little Lulu Show; The                             The Fright Racket, The Lucky Gold Piece, Very Litt            A20184A1055607ECC3                             
ID FAMCHA010101182337182347000010Generic ID - Bubbles                                                                                                    06  150                                
PROFAMCHA010101182347182417000030My Girl (JAN6) - Saturday @ 9pm                                                                                         06  150                                
PROFAMCHA010101182417182447000030Lion King (MARCH2001) - Coming Up                                                                                      206  150                                
PROFAMCHA010101182447182503000016ALF (Description) - Weekdays @ 12pm                                                                                     06  150                                
INTFAMCHA010101182503182837000334MV Disney - Forever And Ever (KATHIE LEE GIFFORD)                                                                      60688120                                
PROFAMCHA010101182837182905000028Honey (MARCH2001) - Tonight @ 8pm                                                                                       06  150                                
PROFAMCHA010101182905182938000033Genius (JAN7) - Sunday @ 12pm                                                                                           06  150                                
PRCFAMCHA010101182938182950000012Morning Block menu background (flex time)                                                                               06  150                                
ID FAMCHA010101182950183000000010xxMagic of Disney - V3(water) - TEEN FEMALE                                                                             06  150                                
PROFAMCHA010101183000183005000005CC Disclaimer (oct) **DO NOT USE**                                                                                      06  150                                
PGRFAMCHA010101183005185241002236Lion King's Timon & Pumbaa; The                   Alcatraz-Mataz/Oahu Wahoo                                            6068607ECC                              
ID FAMCHA010101185241185246000005Generic ID - Bubbles*                                                                                                   06  150                                
PROFAMCHA010101185246185318000032Superman - Sunday @ 9:15pm                                                                                              06  150                                
PRCFAMCHA010101185318185359000041Gargoyles (AUG2000) - Coming Up                                                                                         06  150                                
PROFAMCHA010101185359185427000028Honey (MARCH2001) - Tonight @ 8pm                                                                                       06  150                                
INTFAMCHA010101185427185837000410MV Disney - If I Never Knew You (JON SECADA/SHENIC                                                                     60688120                                
ID FAMCHA010101185837185845000008URL(1) - NEWSLETTER                                                                                                     06  150                                
PROFAMCHA010101185845185909000024ALF - Weekdays @ Noon                                                                                                   06  150                                
PROFAMCHA010101185909185939000030My Girl (JAN6) - Saturday @ 9pm                                                                                         06  150                                
ID FAMCHA010101185939190000000021Prime time open count down                                                                                              06  150                                
PGRFAMCHA010101190000192254002254Gargoyles                                         The Reckoning                                                        6068607E                                
ID FAMCHA010101192254192309000015Generic ID - confetti                                                                                                   06  150                                
PROFAMCHA010101192309192339000030My Girl (JAN6) - Saturday @ 9pm                                                                                         06  150                                
PROFAMCHA010101192339192407000028Honey (MARCH2001) - Tonight @ 8pm                                                                                       06  150                                
INTFAMCHA010101192407192656000249MV Disney - My Funny Friend & Me (STING)                                                                               60688120                                
PRCFAMCHA010101192656192727000031Are You Afraid of the Dark? (2000) - Tonight @ 12:                                                                      06  150                                
INTFAMCHA010101192727192906000139Disney Moments-Lady And The Tramp-Siamese Cat Song                                                                     60688120                                
PROFAMCHA010101192906192939000033Genius (JAN7) - Sunday @ 12pm                                                                                           06  150                                
PRCFAMCHA010101192939192950000011Morning Block menu background (flex time)                                                                               06  150                                
ID FAMCHA010101192950193000000010xxMagic of Disney - V4 - ADULT FEMALE                                                                                   06  150                                
PROFAMCHA010101193000193005000005CC Disclaimer (oct) **DO NOT USE**                                                                                      06  150                                
PGRFAMCHA010101193005195235002230Movie Surfers Go Inside The Emperor's New Groove                                                                      A60288110CC                              
ID FAMCHA010101195235195242000007Generic ID - Whisper*                                                                                                   06  150                                
PROFAMCHA010101195242195314000032Superman - Sunday @ 9:15pm                                                                                              06  150                                
PROFAMCHA010101195314195342000028Honey (MARCH2001) - Coming Up                                                                                           06  150                                
PRCFAMCHA010101195342195413000031Are You Afraid of the Dark? (2000) - Tonight @ 12:                                                                      06  150                                
INTFAMCHA010101195413195833000420MV Disney - Someday (ALL 4 ONE)                                                                                        60688120                                
PROFAMCHA010101195833195910000037So Weird (EARTH101) - Sunday @ 8pm                                                                                      06  150                                
PROFAMCHA010101195910195940000030My Girl (JAN6) - Saturday @ 9pm                                                                                         06  150                                
PRCFAMCHA010101195940195950000010Morning Block menu background (flex time)                                                                               06  150                                
ID FAMCHA010101195950200000000010xxMagic of Disney - V4 - ADULT MALE                                                                                     06  150                                
PGRFAMCHA010101200000204341004341Disney's Honey, I Shrunk The Kids: The TV Show    Honey, We're Stuck In The 70's                                       6068807B                                
ID FAMCHA010101204341204346000005Generic ID - Couch 1*                                                                                                   06  150                                
PROFAMCHA010101204346204416000030My Girl (JAN6) - Saturday @ 9pm                                                                                         06  150                                
PROFAMCHA010101204416204449000033So Weird (CARNIVAL) - Sunday @ 8pm                                                                                      06  150                                
ID FAMCHA010101204449204459000010Holiday Web Throw                                                                                                       06  150                                
PGRFAMCHA010101204459205823001324Goofy's Freeway Troubles                                                                                               60688150                                
PRCFAMCHA010101205823205854000031Are You Afraid of the Dark? (2000) - Tonight @ 12:                                                                      06  150                                
PROFAMCHA010101205854205927000033Genius (JAN7) - Sunday @ 12pm                                                                                           06  150                                
PRCFAMCHA010101205927205939000012Morning Block menu background (flex time)                                                                               06  150                                
ID FAMCHA010101205939210000000021Move open family size movie                                                                                             06  150                                
PROFAMCHA010101210000210007000007Rating - AA (oct 1)                                                                                                     06  150                                
PROFAMCHA010101210007210012000005CC Disclaimer (oct) **DO NOT USE**                                                                                      06  150                                
ID FAMCHA010101210012210022000010xxMagic of Disney - V2(sky) - ADULT FEMALE                                                                              06  150                                
PGRFAMCHA010101210022224549014527Three Musketeers; The                                                                                                 C6068807DCC                              
ID FAMCHA010101224549224554000005Generic ID - Couch 2*                                                                                                   06  150                                
PROFAMCHA010101224554224626000032Superman - Sunday @ 9:15pm                                                                                              06  150                                
PRCFAMCHA010101224626224657000031Are You Afraid of the Dark? (2000) - Tonight @ 12:                                                                      06  150                                
INTFAMCHA010101224657224820000123Monkey Minutes - Scream (after 7:30PM)                                                                                A20688120                                
PRCFAMCHA010101224820224900000040Famous Jett Jackson - Saturday @ 8:30pm                                                                                106  150                                
PROFAMCHA010101224900224930000030My Girl (JAN6) - Saturday @ 9pm                                                                                         06  150                                
PRCFAMCHA010101224930224939000009Morning Block menu background (flex time)                                                                               06  150                                
ID FAMCHA010101224939225000000021Move open family size movie                                                                                             06  150                                
PROFAMCHA010101225000225007000007Rating - PG (oct)                                                                                                       06  150                                
PGRFAMCHA010101225007002536013529Vice Versa                                                                                                            B2068807D                                
ID FAMCHA010101002536002546000010Generic ID - Family w/dog                                                                                               06  150                                
PROFAMCHA010101002546002616000030My Girl (JAN6) - Saturday @ 9pm                                                                                         06  150                                
PRCFAMCHA010101002616002647000031Are You Afraid of the Dark? (2000) - Coming Up                                                                          06  150                                
PRCFAMCHA010101002647002728000041Gargoyles (AUG2000) - Weeknights @ 7pm                                                                                  06  150                                
INTFAMCHA010101002728002826000058Monkey Minutes - Ghost                                                                                                A20688120                                
PRCFAMCHA010101002826002906000040Famous Jett Jackson - Saturday @ 8:30pm                                                                                106  150                                
PROFAMCHA010101002906002939000033Genius (JAN7) - Sunday @ 12pm                                                                                           06  150                                
ID FAMCHA010101002939003000000021Prime time open count down                                                                                              06  150                                
PROFAMCHA010101003000003005000005CC Disclaimer (oct) **DO NOT USE**                                                                                      06  150                                
PGRFAMCHA010101003005005425002420Are You Afraid of the Dark?                       Silver Sight Part 1                                           SR0308A1066807ACC                              
ID FAMCHA010101005425005430000005Generic ID - Fingerpaint                                                                                                06  150                                
PROFAMCHA010101005430005502000032Superman - Sunday @ 9:15pm                                                                                              06  150                                
INTFAMCHA010101005502005606000104Monkey Minutes - Alien                                                                                                A20688120                                
PROFAMCHA010101005606005636000030My Girl (JAN6) - Saturday @ 9pm                                                                                         06  150                                
PGRFAMCHA010101005636010200000524Name Game                                                                                                              60686150                                
SO FAMCHA010101010200010212000012Sign Off (oct 1)                                                                                                        06                                     
OFFFAMCHA010101010212043000032748                                                                                                                                                               
SO FAMCHA010102043000043011000011Sign On (oct 1)                                                                                                         06                                     
PROFAMCHA010102043011043016000005CC Disclaimer (oct) **DO NOT USE**                                                                                      06  150                                
PGRFAMCHA010102043016045416002400Hello Mrs. Cherrywinkle                           Fairest Of Them All                                           B18889A1065607ACC                              
ID FAMCHA010102045416045426000010Generic ID - Pink inner tube                                                                                            06  150                                
PROFAMCHA010102045426045441000015Doug (MARCH2001) - Today @ 4pm                                                                                          06  150                                
ID FAMCHA010102045441045501000020Morning block open play pen                                                                                             06  150                                
PROFAMCHA010102045501045506000005CC Disclaimer (oct) **DO NOT USE**                                                                                      06  150                                
PGRFAMCHA010102045506051916002410Busy World Of Richard Scarry; The                 Mr. Frumble's New Cars/Ernst And Heidi In The Alps            B10185 1065607ECC                              
ID FAMCHA010102051916051921000005Generic ID - Couch 1*                                                                                                   06  150                                
PROFAMCHA010102051921051939000018Mickey Mouseworks - Weekends @ 4:30pm                                                                                   06  150                                
ID FAMCHA010102051939051959000020Morning block open play pen                                                                                             06  150                                
PROFAMCHA010102051959052004000005CC Disclaimer (oct) **DO NOT USE**                                                                                      06  150                                
PGRFAMCHA010102052004054509002505Amazing Animals                                   Animal Changes                                                       60686110CC                              
ID FAMCHA010102054509054519000010Generic ID - Bubbles                                                                                                    06  150                                
PROFAMCHA010102054519054540000021Recess (MARCH2001) - Today @ 5pm                                                                                        06  150                                
ID FAMCHA010102054540054600000020Morning block open play pen                                                                                             06  150                                
PROFAMCHA010102054600054605000005CC Disclaimer (oct) **DO NOT USE**                                                                                      06  150                                
PGRFAMCHA010102054605061019002414Billy The Cat                                     Gutbucket                                                     B27658A1065607ECC                              
ID FAMCHA010102061019061024000005Generic ID - Couch 2*                                                                                                   06  150                                
PROFAMCHA010102061024061040000016ALF (Description) - Today @ 12pm                                                                                        06  150                                
ID FAMCHA010102061040061100000020Morning block open play pen                                                                                             06  150                                
PROFAMCHA010102061100061105000005CC Disclaimer (oct) **DO NOT USE**                                                                                      06  150                                
PGRFAMCHA010102061105063439002334Little Lulu Show; The                             Castaway Kids, Wrestling Away, Never Too Late                 A20207A1055607ECC3                             
ID FAMCHA010102063439063444000005Generic ID - Fingerpaint                                                                                                06  150                                
PROFAMCHA010102063444063505000021Recess (MARCH2001) - Today @ 5pm                                                                                        06  150                                
PRCFAMCHA010102063505063540000035Little Lulu (AUG2000) - Tonight @ 6pm                                                                                  106  150                                
ID FAMCHA010102063540063600000020Morning block open play pen                                                                                             06  150                                
PROFAMCHA010102063600063605000005CC Disclaimer (oct) **DO NOT USE**                                                                                      06  150                                
PGRFAMCHA010102063605070005002400Big Garage; The                                   Breaking All The Rules                                        P21475 1065607ECC                              
ID FAMCHA010102070005070010000005Generic ID - Marbles                                                                                                    06  150                                
PROFAMCHA010102070010070015000005CC Disclaimer (oct) **DO NOT USE**                                                                                      06  150                                
PGRFAMCHA010102070015072308002253Franklin                                          Mr. Fix-It/Has The Hickups                                    A38148A1065607ECC                              
ID FAMCHA010102072308072318000010Generic ID - soccer **DO NOT USE**                                                                                      06  150                                
PROFAMCHA010102072318072333000015ALF (Lucky) - Today @ Noon                                                                                              06  150                                
PROFAMCHA010102072333072403000030New Adventures of WTP (MARCH2001) - Coming Up                                                                           06  150                                
INTFAMCHA010102072403072825000422Furrever Friends: You're A Sensation                                                                                   60688120                                
PRCFAMCHA010102072825072855000030Franklin (MARCH2001) - Today @ 12:30pm                                                                                 106  150                                
PRCFAMCHA010102072855072930000035Little Lulu (AUG2000) - Tonight @ 6pm                                                                                  106  150                                
PRCFAMCHA010102072930072940000010Morning Block menu background (flex time)                                                                               06  150                                
ID FAMCHA010102072940073000000020Morning block open play pen                                                                                             06  150                                
PROFAMCHA010102073000073005000005CC Disclaimer (oct) **DO NOT USE**                                                                                      06  150                                
PGRFAMCHA010102073005075242002237New Adventures of Winnie the Pooh; The            Home Is Where The Home Is                                            6068607ECC                              
ID FAMCHA010102075242075252000010Generic ID - Family w/dog                                                                                               06  150                                
PROFAMCHA010102075252075352000100Morning Block - Crunch - Today @ 9am                                                                                    06  150                                
PRCFAMCHA010102075352075427000035Little Lulu (AUG2000) - Tonight @ 6pm                                                                                  106  150                                
INTFAMCHA010102075427075842000415MV Disney - You'll Be In My Heart (PHIL COLLINS)                                                                       60688120                                
PROFAMCHA010102075842075858000016ALF (Description) - Today @ 12pm                                                                                        06  150                                
PROFAMCHA010102075858075928000030Disney's One, Too - Today @ 4pm                                                                                         06  150                                
PRCFAMCHA010102075928075940000012Morning Block menu background (flex time)                                                                               06  150                                
ID FAMCHA010102075940080000000020Morning block open play pen                                                                                             06  150                                
PGRFAMCHA010102080000081516001516Art Attack                                        1-025                                                                60686110                                
ID FAMCHA010102081516081521000005Generic ID - Couch 2*                                                                                                   06  150                                
PROFAMCHA010102081521081536000015ALF (Lucky) - Today @ Noon                                                                                              06  150                                
PGRFAMCHA010102081536082206000630Richard Scarry (ii) Captain Willy And The Pirates                                                               P19586 10656150                                
PRCFAMCHA010102082206082241000035Little Lulu (AUG2000) - Tonight @ 6pm                                                                                  106  150                                
PGRFAMCHA010102082241082910000629Richard Scarry - A Trip To The Moon                                                                             P17886 10656150                                
PRCFAMCHA010102082910082940000030Franklin (MARCH2001) - Today @ 12:30pm                                                                                 106  150                                
PRCFAMCHA010102082940082950000010Morning Block menu background (flex time)                                                                               06  150                                
ID FAMCHA010102082950083000000010xxMagic of Disney - V4 - KID MALE                                                                                       06  150                                
PROFAMCHA010102083000083005000005CC Disclaimer (oct) **DO NOT USE**                                                                                      06  150                                
PGRFAMCHA010102083005085312002307Disney Presents Bill Nye the Science Guy          Heat                                                                 60686110CC                              
ID FAMCHA010102085312085322000010Generic ID - confetti                                                                                                   06  150                                
PRCFAMCHA010102085322085357000035Little Lulu (AUG2000) - Tonight @ 6pm                                                                                  106  150                                
PROFAMCHA010102085357085424000027Recess (MARCH2001) - Today @ 5pm                                                                                        06  150                                
INTFAMCHA010102085424085901000437MV Disney - Go The Distance (MICHAEL BOLTON)                                                                           60688120                                
PROFAMCHA010102085901090001000100Morning Block - Crunch - PB&J/BUSY/MADLEINE                                                                             06  150                                
PROFAMCHA010102090001090006000005CC Disclaimer (oct) **DO NOT USE**                                                                                      06  150                                
PGRFAMCHA010102090006092227002221PB&J Otter                                        Soap Box Derby Day/Howdy Hoohaw Day                                 A6068607ECC                              
ID FAMCHA010102092227092234000007Generic ID - Whisper*                                                                                                   06  150                                
PROFAMCHA010102092234092304000030Lion King (AUG2000) - Tonight @ 6:30pm                                                                                 206  150                                
PRCFAMCHA010102092304092339000035Little Lulu (AUG2000) - Tonight @ 6pm                                                                                  106  150                                
PROFAMCHA010102092339092400000021Recess (MARCH2001) - Today @ 5pm                                                                                        06  150                                
PROFAMCHA010102092400092500000100Morning Block - Crunch - BUSY/MADELINE/OOTB                                                                             06  150                                
PROFAMCHA010102092500092505000005CC Disclaimer (oct) **DO NOT USE**                                                                                      06  150                                
PGRFAMCHA010102092505094916002411Busy World Of Richard Scarry; The                 The Snowstorm/Professor Dig And His Egyptian Mummy            B10186 1065607ECC                              
ID FAMCHA010102094916094921000005Generic ID - Couch 1*                                                                                                   06  150                                
PRCFAMCHA010102094921094951000030Madeline (AUG2000) - Coming Up                                                                                         106  150                                
PROFAMCHA010102094951095021000030Pepper Ann (MARCH2001) - Today @ 4:30pm                                                                                 06  150                                
INTFAMCHA010102095021095200000139Disney Moments-Lady And The Tramp-Siamese Cat Song                                                                     60688120                                
PROFAMCHA010102095200095300000100Morning Block - Crunch - MADELINE/OOTB/BILLY                                                                            06  150                                
PGRFAMCHA010102095300101535002235Madeline                                          Madeline's Costume Party                                             6068607E                                
ID FAMCHA010102101535101545000010Generic ID - soccer **DO NOT USE**                                                                                      06  150                                
PRCFAMCHA010102101545101615000030Out of the Box (AUG2000) - Coming Up                                                                                   106  150                                
PROFAMCHA010102101615101630000015Doug (MARCH2001) - Today @ 4pm                                                                                          06  150                                
PROFAMCHA010102101630101700000030Lion King (AUG2000) - Tonight @ 6:30pm                                                                                 206  150                                
PROFAMCHA010102101700101800000100Morning Block - Crunch - OOTB/BILLY/GOOF                                                                                06  150                                
PGRFAMCHA010102101800104005002205Out of the Box                                    Tall and Small                                                       60686110                                
ID FAMCHA010102104005104015000010Generic ID - soccer **DO NOT USE**                                                                                      06  150                                
PROFAMCHA010102104015104042000027Recess (MARCH2001) - Today @ 5pm                                                                                        06  150                                
PRCFAMCHA010102104042104117000035Little Lulu (AUG2000) - Tonight @ 6pm                                                                                  106  150                                
ID FAMCHA010102104117104130000013URL(2) - SILLY STORIES                                                                                                  06  150                                
PRCFAMCHA010102104130104200000030Franklin (MARCH2001) - Today @ 12:30pm                                                                                 106  150                                
PROFAMCHA010102104200104300000100Morning Block - Crunch - BILLY/GOOF/ALADDIN                                                                             06  150                                
PROFAMCHA010102104300104305000005CC Disclaimer (oct) **DO NOT USE**                                                                                      06  150                                
PGRFAMCHA010102104305110628002323Billy The Cat                                     The Pigeon That Fell To The Earth                             B27659A1065607ECC                              
ID FAMCHA010102110628110638000010Generic ID - Ring around the rosie                                                                                      06  150                                
PRCFAMCHA010102110638110714000036Goof Troop (MARCH2001) - Coming Up                                                                                      06  150                                
PRCFAMCHA010102110714110749000035Little Lulu (AUG2000) - Tonight @ 6pm                                                                                  106  150                                
PROFAMCHA010102110749110804000015Doug (MARCH2001) - Today @ 4pm                                                                                          06  150                                
PROFAMCHA010102110804110831000027Recess (MARCH2001) - Today @ 5pm                                                                                        06  150                                
PRCFAMCHA010102110831110901000030Out of the Box (AUG2000) - Today @ 2:18pm                                                                              106  150                                
PROFAMCHA010102110901111001000100Morning Block - Crunch - GOOF/ALADDIN/RECAP                                                                             06  150                                
PROFAMCHA010102111001111006000005CC Disclaimer (oct) **DO NOT USE**                                                                                      06  150                                
PGRFAMCHA010102111006113249002243Goof Troop                                        Sherlock Goof                                                        6068607ECC                              
ID FAMCHA010102113249113254000005Generic ID - Couch 1*                                                                                                   06  150                                
PROFAMCHA010102113254113315000021Recess (MARCH2001) - Today @ 5pm                                                                                        06  150                                
PROFAMCHA010102113315113330000015ALF (Lucky) - Today @ Noon                                                                                              06  150                                
PROFAMCHA010102113330113400000030Lion King (AUG2000) - Tonight @ 6:30pm                                                                                 206  150                                
PROFAMCHA010102113400113500000100Morning Block - Crunch - ALADDIN/RECAP                                                                                  06  150                                
PROFAMCHA010102113500113505000005CC Disclaimer (oct) **DO NOT USE**                                                                                      06  150                                
PGRFAMCHA010102113505115742002237Disney's Aladdin                                  Beast Or Famine                                                      6068607ECC                              
ID FAMCHA010102115742115757000015Generic ID - confetti                                                                                                   06  150                                
PROFAMCHA010102115757115857000100Morning Block - Crunch - RECAP - REBOUND COMING UP                                                                      06  150                                
PROFAMCHA010102115857115913000016ALF (Description) - Coming Up                                                                                           06  150                                
PROFAMCHA010102115913115934000021Recess (MARCH2001) - Today @ 5pm                                                                                        06  150                                
PRCFAMCHA010102115934115945000011Morning Block menu background (flex time)                                                                               06  150                                
ID FAMCHA010102115945120000000015Afternoon block pinball open **DO NOT USE**                                                                             06  150                                
PROFAMCHA010102120000120005000005CC Disclaimer (oct) **DO NOT USE**                                                                                      06  150                                
PGRFAMCHA010102120005122131002126ALF                                               Pilot                                                               A2068807BCC                              
ID FAMCHA010102122131122141000010Generic ID - soccer **DO NOT USE**                                                                                      06  150                                
PROFAMCHA010102122141122214000033Genius (JAN7) - Sunday @ 12pm                                                                                           06  150                                
PRCFAMCHA010102122214122244000030Franklin (MARCH2001) - Coming Up                                                                                       106  150                                
INTFAMCHA010102122244122706000422MV Disney - True To Your Heart (98 DEGREES/STEVIE                                                                      60688120                                
PROFAMCHA010102122706122727000021Recess (MARCH2001) - Today @ 5pm                                                                                        06  150                                
INTFAMCHA010102122727122835000108Disney Moments - Cinderella-Bibbidi Bobbidi Boo                                                                        60688120                                
PRCFAMCHA010102122835122905000030Out of the Box (AUG2000) - Today @ 2:18pm                                                                              106  150                                
PROFAMCHA010102122905122935000030Pepper Ann (MARCH2001) - Today @ 4:30pm                                                                                 06  150                                
PRCFAMCHA010102122935122945000010Morning Block menu background (flex time)                                                                               06  150                                
ID FAMCHA010102122945123000000015Afternoon block pinball open **DO NOT USE**                                                                             06  150                                
PROFAMCHA010102123000123005000005CC Disclaimer (oct) **DO NOT USE**                                                                                      06  150                                
PGRFAMCHA010102123005125258002253Franklin                                          Sam/Berry Patch                                               A38154A1065607ECC                              
ID FAMCHA010102125258125303000005Generic ID - Couch 2*                                                                                                   06  150                                
PROFAMCHA010102125303125333000030Disney's One, Too - Today @ 4pm                                                                                         06  150                                
PROFAMCHA010102125333125418000045PB&J Otter (MARCH2001) - Coming Up                                                                                     206  150                                
INTFAMCHA010102125418125844000426Art Attack - Robin Hood                                                                                                60686120                                
PROFAMCHA010102125844125900000016ALF (Description) - Tonight @ 7:30pm                                                                                    06  150                                
PROFAMCHA010102125900130000000100Afternoon Block - Rebound - PB&J/BUSY/MADELINE                                                                          06  150                                
PROFAMCHA010102130000130005000005CC Disclaimer (oct) **DO NOT USE**                                                                                      06  150                                
PGRFAMCHA010102130005132227002222PB&J Otter                                        Butter The Balloonatic/Gizmotron Raffle                             A6068607ECC                              
ID FAMCHA010102132227132234000007Generic ID - Whisper*                                                                                                   06  150                                
PRCFAMCHA010102132234132309000035Little Lulu (AUG2000) - Tonight @ 6pm                                                                                  106  150                                
PROFAMCHA010102132309132330000021Recess (MARCH2001) - Today @ 5pm                                                                                        06  150                                
PROFAMCHA010102132330132400000030Lion King (AUG2000) - Tonight @ 6:30pm                                                                                 206  150                                
PROFAMCHA010102132400132500000100Afternoon Block - Rebound - BUSY/MADELINE/OOTB                                                                          06  150                                
PROFAMCHA010102132500132505000005CC Disclaimer (oct) **DO NOT USE**                                                                                      06  150                                
PGRFAMCHA010102132505134915002410Busy World Of Richard Scarry; The                 The Missing Bananas/Good Luck In Rome/The Accident            B10187 1065607ECC                              
ID FAMCHA010102134915134920000005Generic ID - Couch 2*                                                                                                   06  150                                
PROFAMCHA010102134920134935000015Doug (MARCH2001) - Today @ 4pm                                                                                          06  150                                
PRCFAMCHA010102134935135005000030Madeline (AUG2000) - Coming Up                                                                                         106  150                                
INTFAMCHA010102135005135125000120Disney Magic Shop(03)- Nimble Thimble (D12 only)                                                                       60686120                                
PRCFAMCHA010102135125135200000035Little Lulu (AUG2000) - Tonight @ 6pm                                                                                  106  150                                
PROFAMCHA010102135200135300000100Afternoon Block - Rebound - MADELINE/OOTB/BILLY                                                                         06  150                                
PGRFAMCHA010102135300141539002239Madeline                                          Madeline and the Old Violin                                          6068607E                                
ID FAMCHA010102141539141549000010Generic ID - Pink inner tube                                                                                            06  150                                
PROFAMCHA010102141549141622000033Genius (JAN7) - Sunday @ 12pm                                                                                           06  150                                
PRCFAMCHA010102141622141652000030Out of the Box (AUG2000) - Coming Up                                                                                   106  150                                
ID FAMCHA010102141652141700000008URL(1) - NEWSLETTER                                                                                                     06  150                                
PROFAMCHA010102141700141800000100Afternoon Block - Rebound - OOTB/BILLY/GOOF                                                                             06  150                                
PGRFAMCHA010102141800144050002250Out of the Box                                    Day at the Beach                                                     60686110                                
ID FAMCHA010102144050144100000010Generic ID - Ring around the rosie                                                                                      06  150                                
PROFAMCHA010102144100144130000030Pepper Ann (MARCH2001) - Today @ 4:30pm                                                                                 06  150                                
PROFAMCHA010102144130144200000030Lion King (AUG2000) - Tonight @ 6:30pm                                                                                 206  150                                
PROFAMCHA010102144200144300000100Afternoon Block - Rebound - BILLY/GOOF/ALADDIN                                                                          06  150                                
PROFAMCHA010102144300144305000005CC Disclaimer (oct) **DO NOT USE**                                                                                      06  150                                
PGRFAMCHA010102144305150726002421Billy The Cat                                     Curse Of Catopatra                                            B27660A1065607ECC                              
ID FAMCHA010102150726150736000010Generic ID - Bubbles                                                                                                    06  150                                
PROFAMCHA010102150736150809000033Genius (JAN7) - Sunday @ 12pm                                                                                           06  150                                
PROFAMCHA010102150809150830000021Recess (MARCH2001) - Today @ 5pm                                                                                        06  150                                
PROFAMCHA010102150830150900000030Lion King (AUG2000) - Tonight @ 6:30pm                                                                                 206  150                                
PROFAMCHA010102150900151000000100Afternoon Block - Rebound - GOOF/ALADDIN/RECAP                                                                          06  150                                
PROFAMCHA010102151000151005000005CC Disclaimer (oct) **DO NOT USE**                                                                                      06  150                                
PGRFAMCHA010102151005153249002244Goof Troop                                        Clan Of The Cave Goof                                                6068607ECC                              
ID FAMCHA010102153249153256000007Generic ID - Whisper*                                                                                                   06  150                                
PROFAMCHA010102153256153329000033Genius (JAN7) - Sunday @ 12pm                                                                                           06  150                                
PROFAMCHA010102153329153359000030My Girl (JAN6) - Saturday @ 9pm                                                                                         06  150                                
PROFAMCHA010102153359153459000100Afternoon Block - Rebound - ALADDIN/RECAP                                                                               06  150                                
PROFAMCHA010102153459153504000005CC Disclaimer (oct) **DO NOT USE**                                                                                      06  150                                
PGRFAMCHA010102153504155742002238Disney's Aladdin                                  Sneeze The Day                                                       6068607ECC                              
ID FAMCHA010102155742155747000005Generic ID - Couch 2*                                                                                                   06  150                                
PROFAMCHA010102155747155847000100Afternoon Block - Rebound - RECAP                                                                                       06  150                                
PROFAMCHA010102155847155902000015Doug (MARCH2001) - Coming Up                                                                                            06  150                                
PROFAMCHA010102155902155918000016ALF (Description) - Tonight @ 7:30pm                                                                                    06  150                                
PROFAMCHA010102155918155950000032Superman - Sunday @ 9:15pm                                                                                              06  150                                
ID FAMCHA010102155950160000000010xxMagic of Disney - V2(sky) - TEEN FEMALE                                                                               06  150                                
PROFAMCHA010102160000160030000030Disney's One Too - Opening                                                                                              06  150                                
PGRFAMCHA010102160030162258002228Disney's Doug                                     Doug: Oh, Baby!                                                      6068607E                                
ID FAMCHA010102162258162308000010Generic ID - Pink inner tube                                                                                            06  150                                
PROFAMCHA010102162308162341000033Genius (JAN7) - Sunday @ 12pm                                                                                           06  150                                
PROFAMCHA010102162341162411000030Pepper Ann (MARCH2001) - Coming Up                                                                                      06  150                                
INTFAMCHA010102162411162831000420MV Disney - Someday (ALL 4 ONE)                                                                                        60688120                                
PROFAMCHA010102162831162901000030Lion King (AUG2000) - Tonight @ 6:30pm                                                                                 206  150                                
PRCFAMCHA010102162901162935000034Hoze Houndz (MARCH2001) - Weekends @ 7:00pm                                                                             06  150                                
