SO FAMCHA010501043000043011000011Sign On (oct 1)                                                                                                         02                                     
PROFAMCHA010501043011043019000008CC Is Brought To You By - Ian (PRESCHOOL)                                                                               02  150                                
PGRFAMCHA010501043019045419002400Hello Mrs. Cherrywinkle                           Hickory Dickory Docker                                        B18891A1025607ACC                              
PROFAMCHA010501045419045427000008CC Was Brought To You By - Ian (PRESCHOOL)                                                                              02  150                                
ID FAMCHA010501045427045432000005Generic ID - Couch 1                                                                                                    02  150                                
PRCFAMCHA010501045432045440000008Franklin Bumper - Slide - This Morning @ 7am                                                                           102  150                                
ID FAMCHA010501045440045500000020Morning block open play pen                                                                                             02  150                                
PROFAMCHA010501045500045508000008CC Is Brought To You By - Lark (PRESCHOOL)                                                                              02  150                                
PGRFAMCHA010501045508051918002410Busy World Of Richard Scarry; The                 Who's Afraid Of/Hold Your Breath/Pumpkin Heads                P24323 1025607ECC                              
PROFAMCHA010501051918051925000007CC Was Brought To You By - Lark (PRESCHOOL)                                                                             02  150                                
ID FAMCHA010501051925051940000015Generic ID - confetti                                                                                                   02  150                                
ID FAMCHA010501051940052000000020Morning block open play pen                                                                                             06  150                                
PROFAMCHA010501052000052008000008CC Is Brought To You By - Ian (PRESCHOOL)                                                                               06  150                                
PGRFAMCHA010501052008054426002418Billy The Cat                                     The Great Purple Nothing                                      B27654A1025607ECC                              
PROFAMCHA010501054426054435000009CC Was Brought To You By - Ian (PRESCHOOL)                                                                              06  150                                
ID FAMCHA010501054435054440000005Generic ID - Marbles                                                                                                    02  150                                
ID FAMCHA010501054440054500000020Morning block open play pen                                                                                             06  150                                
PROFAMCHA010501054500054508000008CC Is Brought To You By - Lark (PRESCHOOL)                                                                              06  150                                
PGRFAMCHA010501054508061127002619Little Lulu Show; The                             Gilbert The Gorilla/Snow Business/The case of the             P22333A1025607ECC                              
PROFAMCHA010501061127061135000008CC Was Brought To You By - Lark (PRESCHOOL)                                                                             06  150                                
ID FAMCHA010501061135061140000005Generic ID - Marbles                                                                                                    06  150                                
PROFAMCHA010501061140061148000008CC Is Brought To You By - Ian (PRESCHOOL)                                                                               06  150                                
PGRFAMCHA010501061148063548002400Big Garage; The                                   The Latest Style                                              P21474 1025607ECC                              
PROFAMCHA010501063548063556000008CC Was Brought To You By - Ian (PRESCHOOL)                                                                              06  150                                
ID FAMCHA010501063556063601000005Generic ID - soccer                                                                                                     02  150                                
PGRFAMCHA010501063601070008002407Clarissa                                          Alter Ego                                                            2028607B                                
ID FAMCHA010501070008070018000010Generic ID - Pink inner tube                                                                                            02  150                                
PROFAMCHA010501070018070026000008CC Is Brought To You By - Lark (PRESCHOOL)                                                                              06  150                                
PGRFAMCHA010501070026072319002253Franklin                                          Franklin Stays Up/Franklin's Bargain                                A1025607ECC                              
PROFAMCHA010501072319072327000008CC Was Brought To You By - Lark (PRESCHOOL)                                                                             06  150                                
ID FAMCHA010501072327072337000010Generic ID - Hula Hoop                                                                                                  02  150                                
PROFAMCHA010501072337072353000016ALF (Description) - Today @ 12pm                                                                                        02  150                                
PROFAMCHA010501072353072423000030New Adventures of WTP (MARCH2001) - Coming Up                                                                           02  150                                
PRCFAMCHA010501072423072430000007Book of Pooh Bumper - Gang - This Morning                                                                              102  150                                
INTFAMCHA010501072430072840000410MV Disney - Colours of the wind (oct 1)                                                                                60288120                                
PROFAMCHA010501072840072940000100Morning Crunch (MAY) - This Morning                                                                                     02  150                                
PRCFAMCHA010501072940072950000010Morning Block menu background (flex time)                                                                               02  150                                
ID FAMCHA010501072950073000000010Magic of Disney - V4 - KID MALE                                                                                         02  150                                
PROFAMCHA010501073000073008000008CC Is Brought To You By - Ian (PRESCHOOL)                                                                               06  150                                
PGRFAMCHA010501073008075253002245New Adventures of Winnie the Pooh; The            Honey For A Bunny/Trap As Trap Can                                  A6028607ECC                              
PROFAMCHA010501075253075301000008CC Was Brought To You By - Ian (PRESCHOOL)                                                                              06  150                                
ID FAMCHA010501075301075306000005Generic ID - Couch 2                                                                                                    02  150                                
PRCFAMCHA010501075306075313000007Book of Pooh Bumper - Gang - This Morning                                                                              106  150                                
PROFAMCHA010501075313075343000030New Adventures of WTP (MARCH2001) - Weekdays @ 7:3                                                                      02  150                                
PROFAMCHA010501075343075443000100Morning Crunch (MAY) - This Morning                                                                                     06  150                                
INTFAMCHA010501075443075839000356Art Attack - Parachutist                                                                                               60286120                                
PROFAMCHA010501075839075900000021Buzz Lightyear (DISNEY'S ONE TOO) - Today @ 5:30pm                                                                      02  150                                
PROFAMCHA010501075900075915000015Doug (MARCH2001) - Today @ 4pm                                                                                          02  150                                
PROFAMCHA010501075915075930000015ALF (Lucky) - Today @ Noon                                                                                              02  150                                
PRCFAMCHA010501075930075940000010Morning Block menu background (flex time)                                                                               06  150                                
ID FAMCHA010501075940080000000020Morning block open play pen                                                                                             06  150                                
PGRFAMCHA010501080000081429001429Art Attack                                        1-011                                                                60286110                                
ID FAMCHA010501081429081436000007Generic ID - Whisper                                                                                                    02  150                                
PROFAMCHA010501081436081536000100Morning Crunch (MAY) - This Morning                                                                                     06  150                                
PRCFAMCHA010501081536081611000035Little Lulu (MARCH2001) - Coming Up                                                                                    102  150                                
INTFAMCHA010501081611082110000459Art Attack - Bride & Groom                                                                                             60286120                                
PROFAMCHA010501082110082124000014ALF (Dreams) - Today @ 12pm                                                                                             02  150                                
PRCFAMCHA010501082124082131000007Book of Pooh Bumper - Gang - This Morning                                                                              106  150                                
PRCFAMCHA010501082131082140000009Morning Block menu background (flex time)                                                                               06  150                                
ID FAMCHA010501082140082200000020Morning block open play pen                                                                                             06  150                                
PROFAMCHA010501082200082208000008CC Is Brought To You By - Lark (PRESCHOOL)                                                                              06  150                                
PGRFAMCHA010501082208084828002620Little Lulu Show; The                             Business Girl/The Pet Duck/Lulu's Umbrella Service            P22334A1025607ECC                              
PROFAMCHA010501084828084836000008CC Was Brought To You By - Lark (PRESCHOOL)                                                                             06  150                                
ID FAMCHA010501084836084841000005Generic ID - Couch 1                                                                                                    06  150                                
PGRFAMCHA010501084841090311001430Elmo's World                                      Balls                                                               A2028607G                                
ID FAMCHA010501090311090316000005Generic ID - Marbles                                                                                                    06  150                                
PRCFAMCHA010501090316090324000008Franklin Bumper - Slide - Today                                                                                        102  150                                
PROFAMCHA010501090324090409000045PB&J Otter (MARCH2001) - Coming Up                                                                                     202  150                                
INTFAMCHA010501090409090708000259Music Break - Sebastian's Party Gras: Sing Along                                                                       60286120                                
PRCFAMCHA010501090708090715000007Book of Pooh Bumper - Gang - This Morning                                                                              106  150                                
PROFAMCHA010501090715090731000016ALF (Description) - Today @ 12pm                                                                                        06  150                                
PRCFAMCHA010501090731090740000009Morning Block menu background (flex time)                                                                               06  150                                
ID FAMCHA010501090740090800000020Morning block open play pen                                                                                             06  150                                
PROFAMCHA010501090800090808000008CC Is Brought To You By - Ian (PRESCHOOL)                                                                               06  150                                
PGRFAMCHA010501090808093138002330PB&J Otter                                        Butter Tags Along/Flick's Big Find                                  A6028607ECC                              
PROFAMCHA010501093138093147000009CC Was Brought To You By - Ian (PRESCHOOL)                                                                              06  150                                
ID FAMCHA010501093147093157000010Generic ID - soccer                                                                                                     02  150                                
PROFAMCHA010501093157093212000015ALF (Lucky) - Today @ Noon                                                                                              06  150                                
PRCFAMCHA010501093212093219000007Book of Pooh Bumper - Gang - Coming Up                                                                                 102  150                                
INTFAMCHA01050109321909331900010060 Seconds of Science - Time(13) (anywhere but D12                                                                     60288120                                
PROFAMCHA010501093319093340000021Buzz Lightyear (DISNEY'S ONE TOO) - Today @ 5:30pm                                                                      06  150                                
PRCFAMCHA010501093340093350000010Morning Block menu background (flex time)                                                                               06  150                                
ID FAMCHA010501093350093400000010Magic of Disney - V4 - KID FEMALE                                                                                       02  150                                
PGRFAMCHA010501093400095802002402Book Of Pooh; The                                 Mr. Narrator/Honey-Glazed Hamlet                                     6028607G                                
ID FAMCHA010501095802095807000005Generic ID - Marbles                                                                                                    06  150                                
PRCFAMCHA010501095807095815000008Franklin Bumper - Slide - Today                                                                                        106  150                                
PROFAMCHA010501095815095830000015Doug (MARCH2001) - Today @ 4pm                                                                                          06  150                                
PRCFAMCHA010501095830095840000010Morning Block menu background (flex time)                                                                               06  150                                
ID FAMCHA010501095840095900000020Morning block open play pen                                                                                             06  150                                
PROFAMCHA010501095900095908000008CC Is Brought To You By - Ian (PRESCHOOL)                                                                               06  150                                
PGRFAMCHA010501095908102318002410Busy World Of Richard Scarry; The                 The Mole Machine/Royal Game Of Dennis/Now That's              B24399 1125607ECC                              
PROFAMCHA010501102318102325000007CC Was Brought To You By - Ian (PRESCHOOL)                                                                              06  150                                
ID FAMCHA010501102325102340000015Generic ID - confetti                                                                                                   06  150                                
ID FAMCHA010501102340102400000020Morning block open play pen                                                                                             06  150                                
PGRFAMCHA010501102400104635002235Madeline                                          Madeline and the Mean, Nasty, Horrible Hats                          6028607E                                
ID FAMCHA010501104635104645000010Generic ID - Bubbles                                                                                                    02  150                                
PROFAMCHA010501104645104715000030Pepper Ann (MARCH2001) - Today @ 4:30pm                                                                                 02  150                                
PROFAMCHA010501104715104730000015Doug (MARCH2001) - Today @ 4pm                                                                                          02  150                                
PRCFAMCHA010501104730104740000010Morning Block menu background (flex time)                                                                               06  150                                
ID FAMCHA010501104740104800000020Morning block open play pen                                                                                             06  150                                
PROFAMCHA010501104800104808000008CC Is Brought To You By - Ian (PRESCHOOL)                                                                               06  150                                
PGRFAMCHA010501104808111138002330Out Of The Box                                    Whose Home?                                                          60286110CC                              
PROFAMCHA010501111138111146000008CC Was Brought To You By - Ian (PRESCHOOL)                                                                              06  150                                
ID FAMCHA010501111146111156000010Generic ID - soccer                                                                                                     06  150                                
PRCFAMCHA010501111156111232000036Goof Troop (MARCH2001) - Coming Up                                                                                      02  150                                
PRCFAMCHA010501111232111240000008Franklin Bumper - Slide - Today                                                                                        106  150                                
PRCFAMCHA010501111240111250000010Morning Block menu background (flex time)                                                                               06  150                                
ID FAMCHA010501111250111300000010Magic of Disney - V3(water) - KID MALE                                                                                  02  150                                
PROFAMCHA010501111300111308000008CC Is Brought To You By - Lark (PRESCHOOL)                                                                              06  150                                
PGRFAMCHA010501111308113548002240Goof Troop                                        The Incredible Bulk (goof Troop)                                    A6028607ECC                              
PROFAMCHA010501113548113556000008CC Was Brought To You By - Lark (PRESCHOOL)                                                                             06  150                                
ID FAMCHA010501113556113603000007Generic ID - Whisper                                                                                                    06  150                                
PROFAMCHA010501113603113633000030Pepper Ann (MARCH2001) - Today @ 4:30pm                                                                                 06  150                                
PRCFAMCHA010501113633113640000007Book of Pooh Bumper - Gang - This Afternoon                                                                            102  150                                
PRCFAMCHA010501113640113650000010Morning Block menu background (flex time)                                                                               06  150                                
ID FAMCHA010501113650113700000010Magic of Disney - V4 - KID MALE                                                                                         06  150                                
PROFAMCHA010501113700113708000008CC Is Brought To You By - Ian (PRESCHOOL)                                                                               06  150                                
PGRFAMCHA010501113708115947002239Disney's Aladdin                                  Do The Rat Thing                                                     6028607ECC                              
PROFAMCHA010501115947115955000008CC Was Brought To You By - Ian (PRESCHOOL)                                                                              06  150                                
ID FAMCHA010501115955120000000005Generic ID - Couch 1                                                                                                    06  150                                
PROFAMCHA010501120000120008000008CC Is Brought To You By - Lark (PRESCHOOL)                                                                              06  150                                
PGRFAMCHA010501120008122137002129ALF                                               Future's So Bright, I Gotta Wear Shades                             A2028807BCC                              
PROFAMCHA010501122137122145000008CC Was Brought To You By - Lark (PRESCHOOL)                                                                             06  150                                
ID FAMCHA010501122145122200000015Generic ID - confetti                                                                                                   06  150                                
PROFAMCHA010501122200122213000013Buzz Lightyear (DISNEY'S ONE TOO) - Today @ 5:30pm                                                                      02  150                                
PRCFAMCHA010501122213122227000014Franklin Bumper - Leaf - Coming Up                                                                                     102  150                                
PRCFAMCHA010501122227122234000007Book of Pooh Bumper - Gang - This Afternoon                                                                            106  150                                
PRCFAMCHA010501122234122245000011Morning Block menu background (flex time)                                                                               06  150                                
ID FAMCHA010501122245122300000015Afternoon block pinball open                                                                                            02  150                                
PROFAMCHA010501122300122308000008CC Is Brought To You By - Ian (PRESCHOOL)                                                                               06  150                                
PGRFAMCHA010501122308124601002253Franklin                                          Gee Whiz Franklin/Franklin Can't Wait                               A1025607ECC                              
PROFAMCHA010501124601124609000008CC Was Brought To You By - Ian (PRESCHOOL)                                                                              06  150                                
ID FAMCHA010501124609124619000010Generic ID - Ring around the rosie                                                                                      02  150                                
PROFAMCHA010501124619124635000016ALF (Description) - Tonight @ 7:30pm                                                                                    02  150                                
PRCFAMCHA010501124635124645000010Morning Block menu background (flex time)                                                                               06  150                                
ID FAMCHA010501124645124700000015Afternoon block pinball open                                                                                            06  150                                
PGRFAMCHA010501124700130232001532Elmo's World                                      Shoes                                                               A2028607G                                
ID FAMCHA010501130232130242000010Generic ID - Hula Hoop                                                                                                  06  150                                
PROFAMCHA010501130242130312000030Pepper Ann (MARCH2001) - Today @ 4:30pm                                                                                 06  150                                
PROFAMCHA010501130312130357000045PB&J Otter (MARCH2001) - Coming Up                                                                                     206  150                                
INTFAMCHA010501130357130608000211MV Disney - Right Back Where We Started From                                                                           60288120                                
PRCFAMCHA010501130608130622000014Franklin Bumper - Leaf - Weekdays                                                                                      102  150                                
PRCFAMCHA010501130622130629000007Book of Pooh Bumper - Gang - This Afternoon                                                                            106  150                                
PRCFAMCHA010501130629130640000011Morning Block menu background (flex time)                                                                               06  150                                
ID FAMCHA010501130640130700000020Morning block open play pen                                                                                             06  150                                
PROFAMCHA010501130700130708000008CC Is Brought To You By - Ian (PRESCHOOL)                                                                               06  150                                
PGRFAMCHA010501130708133038002330PB&J Otter                                        This Little Light of Mine/Look Ma, No Hands                         A6028607ECC                              
PROFAMCHA010501133038133046000008CC Was Brought To You By - Ian (PRESCHOOL)                                                                              06  150                                
ID FAMCHA010501133046133056000010Generic ID - Family w/dog                                                                                               02  150                                
PRCFAMCHA010501133056133103000007Book of Pooh Bumper - Gang - Coming Up                                                                                 106  150                                
PROFAMCHA010501133103133124000021Buzz Lightyear (DISNEY'S ONE TOO) - Today @ 5:30pm                                                                      06  150                                
INTFAMCHA010501133124133226000102Bill Nye - Bloodstream Baby                                                                                            60288120                                
PRCFAMCHA010501133226133240000014Franklin Bumper - Leaf - Weekdays                                                                                      106  150                                
PRCFAMCHA010501133240133250000010Morning Block menu background (flex time)                                                                               06  150                                
ID FAMCHA010501133250133300000010Magic of Disney - V3(water) - TEEN MALE                                                                                 02  150                                
PGRFAMCHA010501133300135702002402Book Of Pooh; The                                 Bee-Friended/Nightmare                                               6028607G                                
ID FAMCHA010501135702135712000010Generic ID - Family w/dog                                                                                               06  150                                
PROFAMCHA010501135712135725000013Buzz Lightyear (DISNEY'S ONE TOO) - Today @ 5:30pm                                                                      06  150                                
PROFAMCHA010501135725135740000015Doug (MARCH2001) - Today @ 4pm                                                                                          06  150                                
ID FAMCHA010501135740135800000020Morning block open play pen                                                                                             06  150                                
PROFAMCHA010501135800135808000008CC Is Brought To You By - Ian (PRESCHOOL)                                                                               06  150                                
PGRFAMCHA010501135808142218002410Busy World Of Richard Scarry; The                 Superstitious Bananas/Pepe The Goodstaire/Drive-Th            B24400 1125607ECC                              
PROFAMCHA010501142218142227000009CC Was Brought To You By - Ian (PRESCHOOL)                                                                              06  150                                
ID FAMCHA010501142227142237000010Generic ID - Pink inner tube                                                                                            06  150                                
PRCFAMCHA010501142237142245000008Franklin Bumper - Slide - Weekdays                                                                                     102  150                                
ID FAMCHA010501142245142300000015Afternoon block pinball open                                                                                            06  150                                
PGRFAMCHA010501142300144536002236Madeline                                          Madeline and the Talking Parrot                                      6028607E                                
ID FAMCHA010501144536144546000010Generic ID - Hula Hoop                                                                                                  06  150                                
PROFAMCHA010501144546144602000016ALF (Description) - Tonight @ 7:30pm                                                                                    06  150                                
PROFAMCHA010501144602144632000030New Adventures of WTP (MARCH2001) - Weekdays @ 7:3                                                                      06  150                                
PROFAMCHA010501144632144645000013Buzz Lightyear (DISNEY'S ONE TOO) - Today @ 5:30pm                                                                      06  150                                
ID FAMCHA010501144645144700000015Afternoon block pinball open                                                                                            06  150                                
PROFAMCHA010501144700144708000008CC Is Brought To You By - Lark (PRESCHOOL)                                                                              06  150                                
PGRFAMCHA010501144708151038002330Out Of The Box                                    Unicorn-U-Copia                                                      60286110CC                              
PROFAMCHA010501151038151046000008CC Was Brought To You By - Lark (PRESCHOOL)                                                                             06  150                                
ID FAMCHA010501151046151056000010Generic ID - Ring around the rosie                                                                                      06  150                                
PRCFAMCHA010501151056151132000036Goof Troop (MARCH2001) - Coming Up                                                                                      06  150                                
PRCFAMCHA010501151132151140000008Franklin Bumper - Slide - Weekdays                                                                                     106  150                                
PRCFAMCHA010501151140151150000010Morning Block menu background (flex time)                                                                               06  150                                
ID FAMCHA010501151150151200000010Magic of Disney - V2(sky) - TEEN FEMALE                                                                                 02  150                                
PROFAMCHA010501151200151208000008CC Is Brought To You By - Ian (PRESCHOOL)                                                                               06  150                                
PGRFAMCHA010501151208153454002246Goof Troop                                        Mrs. Spoonerville                                                   A6028607ECC                              
PROFAMCHA010501153454153502000008CC Was Brought To You By - Ian (PRESCHOOL)                                                                              06  150                                
ID FAMCHA010501153502153507000005Generic ID - Couch 1                                                                                                    06  150                                
PROFAMCHA010501153507153537000030Pepper Ann (MARCH2001) - Today @ 4:30pm                                                                                 06  150                                
PROFAMCHA010501153537153550000013Buzz Lightyear (DISNEY'S ONE TOO) - Today @ 5:30pm                                                                      06  150                                
ID FAMCHA010501153550153600000010Magic of Disney - V3(water) - TEEN MALE                                                                                 06  150                                
PROFAMCHA010501153600153608000008CC Is Brought To You By - Lark (PRESCHOOL)                                                                              06  150                                
PGRFAMCHA010501153608155845002237Disney's Aladdin                                  Stinker Belle                                                        6028607ECC                              
PROFAMCHA010501155845155853000008CC Was Brought To You By - Lark (PRESCHOOL)                                                                             06  150                                
ID FAMCHA010501155853155903000010Generic ID - Pink inner tube                                                                                            06  150                                
PROFAMCHA010501155903155918000015Doug (MARCH2001) - Coming Up                                                                                            02  150                                
PROFAMCHA010501155918155939000021Buzz Lightyear (DISNEY'S ONE TOO) - Today @ 5:30pm                                                                      06  150                                
PRCFAMCHA010501155939155950000011Morning Block menu background (flex time)                                                                               06  150                                
ID FAMCHA010501155950160000000010Magic of Disney - V2(sky) - TEEN FEMALE                                                                                 06  150                                
PROFAMCHA010501160000160030000030Disney's One Too - Opening                                                                                              02  150                                
PGRFAMCHA010501160030162255002225Disney's Doug                                     Doug's Dream House                                                   6028607E                                
ID FAMCHA010501162255162305000010Generic ID - Pink inner tube                                                                                            06  150                                
PROFAMCHA010501162305162338000033Recess (King Gus) - Today @ 5:00pm                                                                                      02  150                                
PROFAMCHA010501162338162408000030Pepper Ann (MARCH2001) - Coming Up                                                                                      02  150                                
PRCFAMCHA010501162408162448000040Famous Jett Jackson (MARCH2001) - Tonight @ 7pm                                                                        102  150                                
INTFAMCHA010501162448162552000104Jack and Marcel: Ep.004 "Banzai and Sushi"                                                                             40288120                                
INTFAMCHA010501162552162656000104Jack and Marcel: Ep.013 "Copyright"                                                                                   A40288120                                
PROFAMCHA010501162656162724000028Honey (MARCH2001) - Tonight @ 8pm                                                                                       02  150                                
INTFAMCHA010501162724162846000122Disney Dinner Time(02)- Bill Pickett (D12 only)                                                                        60286120                                
PROFAMCHA010501162846162907000021Buzz Lightyear (DISNEY'S ONE TOO) - Today @ 5:30pm                                                                      06  150                                
PRCFAMCHA010501162907162935000028Are You Afraid...Dark? (45MIN) - Tonight @ 8:45pm                                                                       02  150                                
PRCFAMCHA010501162935162945000010Morning Block menu background (flex time)                                                                               06  150                                
ID FAMCHA010501162945163000000015Afternoon block pinball open                                                                                            06  150                                
PROFAMCHA010501163000163030000030Disney's One Too - Opening                                                                                              06  150                                
PROFAMCHA010501163030163038000008CC Is Brought To You By - Ian (PRESCHOOL)                                                                               06  150                                
PGRFAMCHA010501163038165327002249Disney's Pepper Ann                               Sell-Out/Tell-Tale Fuzzy                                             6028607ECC                              
PROFAMCHA010501165327165336000009CC Was Brought To You By - Ian (PRESCHOOL)                                                                              06  150                                
ID FAMCHA010501165336165346000010Generic ID - soccer                                                                                                     06  150                                
PROFAMCHA010501165346165401000015ALF (Lucky) - Tonight @ 7:30pm                                                                                          02  150                                
PROFAMCHA010501165401165434000033Recess (King Gus) - Coming Up                                                                                           02  150                                
ID FAMCHA010501165434165444000010Silly Stories Teaser - Male                                                                                             02  150                                
INTFAMCHA010501165444165635000151Disney Magic Shop(04)- Magic Arrow (D12 only)                                                                          60286120                                
ID FAMCHA010501165635165704000029Silly Stories - COLD Story                                                                                              02  150                                
INTFAMCHA010501165704165725000021Recess Sketches - Gretchen's Inventions - Me Gus                                                                       60286120                                
INTFAMCHA010501165725165755000030Disney Magic Drawings(04)- Winnie the Pooh (D12 on                                                                     60286120                                
INTFAMCHA010501165755165816000021Recess Sketches - Telephone                                                                                            60286120                                
PRCFAMCHA010501165816165856000040Famous Jett Jackson (MARCH2001) - Tonight @ 7pm                                                                        106  150                                
INTFAMCHA010501165856165917000021Recess Sketches - The Big Kick - Stray                                                                                 60286120                                
PROFAMCHA010501165917165945000028Honey (MARCH2001) - Tonight @ 8pm                                                                                       06  150                                
ID FAMCHA010501165945170000000015Afternoon block pinball open                                                                                            06  150                                
PROFAMCHA010501170000170030000030Disney's One Too - Opening                                                                                              06  150                                
PGRFAMCHA010501170030172306002236Disney's Recess                                   Mikey's Pants/Here Comes Mr. Perfect                                A6028607E                                
ID FAMCHA010501172306172316000010Generic ID - Ring around the rosie                                                                                      06  150                                
PRCFAMCHA010501172316172356000040Famous Jett Jackson (MARCH2001) - Tonight @ 7pm                                                                        106  150                                
PROFAMCHA010501172356172417000021Buzz Lightyear (DISNEY'S ONE TOO) - Coming Up                                                                           02  150                                
PROFAMCHA010501172417172441000024ALF - Tonight @ 7:30pm                                                                                                  02  150                                
INTFAMCHA010501172441172514000033Toy Story Treats - Shell Game                                                                                          60286120                                
PROFAMCHA010501172514172544000030Pepper Ann (MARCH2001) - Weekdays @ 4:30pm                                                                              02  150                                
INTFAMCHA010501172544172648000104Jack and Marcel: Ep.022 "Piggy Bank"                                                                                  A40288120                                
INTFAMCHA010501172648172752000104Jack and Marcel: Ep.023 "After The Party"                                                                             A40288120                                
PRCFAMCHA010501172752172834000042Gargoyles (MARCH2001) - Tonight @ 6:30pm                                                                                02  150                                
INTFAMCHA010501172834172908000034Toy Story Treats - It's ABC (DO NOT USE)                                                                               60286120                                
PROFAMCHA010501172908172936000028Honey (MARCH2001) - Tonight @ 8pm                                                                                       06  150                                
PRCFAMCHA010501172936172945000009Morning Block menu background (flex time)                                                                               06  150                                
ID FAMCHA010501172945173000000015Afternoon block pinball open                                                                                            06  150                                
PROFAMCHA010501173000173030000030Disney's One Too - Opening                                                                                              06  150                                
PROFAMCHA010501173030173038000008CC Is Brought To You By - Lark (PRESCHOOL)                                                                              06  150                                
PGRFAMCHA010501173038175231002153Disney/Pixar's Buzz Lightyear of Star Command     Down Loaded                                                          6028607ECC                              
PROFAMCHA010501175231175239000008CC Was Brought To You By - Lark (PRESCHOOL)                                                                             06  150                                
ID FAMCHA010501175239175249000010Generic ID - Family w/dog                                                                                               06  150                                
PRCFAMCHA010501175249175329000040Famous Jett Jackson (MARCH2001) - Tonight @ 7pm                                                                        106  150                                
PROFAMCHA010501175329175345000016ALF (Description) - Tonight @ 7:30pm                                                                                    06  150                                
INTFAMCHA010501175345175822000437MV Disney - Go the distance (oct 1)                                                                                    60288120                                
PROFAMCHA010501175822175850000028Honey (MARCH2001) - Tonight @ 8pm                                                                                       06  150                                
PRCFAMCHA010501175850175932000042Gargoyles (MARCH2001) - Tonight @ 6:30pm                                                                                06  150                                
PRCFAMCHA010501175932175945000013Morning Block menu background (flex time)                                                                               06  150                                
ID FAMCHA010501175945180000000015Afternoon block pinball open                                                                                            06  150                                
PGRFAMCHA010501180000182245002245Lion King's Timon & Pumbaa; The                   Mis perfect/Hakuna Matata U                                          6028607E                                
ID FAMCHA010501182245182250000005Generic ID - Fingerpaint                                                                                                02  150                                
PROFAMCHA010501182250182318000028Honey (MARCH2001) - Tonight @ 8pm                                                                                       06  150                                
PRCFAMCHA010501182318182400000042Gargoyles (MARCH2001) - Coming Up                                                                                       02  150                                
INTFAMCHA010501182400182543000143MV Disney - Siamese Cat Song (oct)                                                                                     60288120                                
PROFAMCHA010501182543182553000010MV Web Throw - family.ca                                                                                               602 5150                                
PRCFAMCHA010501182553182633000040Famous Jett Jackson (MARCH2001) - Tonight @ 7pm                                                                        106  150                                
INTFAMCHA010501182633182737000104Jack and Marcel: Ep.028 "Birds"                                                                                       A40288120                                
INTFAMCHA010501182737182841000104Jack and Marcel: Ep.035 "Breakfast"                                                                                   A40288120                                
PROFAMCHA010501182841182911000030Pepper Ann (MARCH2001) - Weekdays @ 4:30pm                                                                              06  150                                
PROFAMCHA010501182911182935000024ALF - Tonight @ 7:30pm                                                                                                  06  150                                
PRCFAMCHA010501182935182945000010Morning Block menu background (flex time)                                                                               06  150                                
ID FAMCHA010501182945183000000015Afternoon block pinball open                                                                                            06  150                                
PGRFAMCHA010501183000185250002250Gargoyles                                         Metamorphosis                                                        6028607E                                
ID FAMCHA010501185250185300000010Generic ID - Hula Hoop                                                                                                  06  150                                
PROFAMCHA010501185300185316000016ALF (Description) - Tonight @ 7:30pm                                                                                    06  150                                
PRCFAMCHA010501185316185356000040Famous Jett Jackson (MARCH2001) - Coming Up                                                                            102  150                                
INTFAMCHA010501185356185833000437MV Disney - Go the distance (oct 1)                                                                                    60688120                                
PROFAMCHA010501185833185846000013Buzz Lightyear (DISNEY'S ONE TOO) - Weekdays @ 5:3                                                                      02  150                                
PROFAMCHA010501185846185914000028Honey (MARCH2001) - Tonight @ 8pm                                                                                       06  150                                
PROFAMCHA010501185914185939000025Recess (Finster) - Weekdays @ 5pm                                                                                       02  150                                
ID FAMCHA010501185939190000000021Prime time open count down                                                                                              02  150                                
PROFAMCHA010501190000190008000008CC Is Brought To You By - Ian (PRESCHOOL)                                                                               06  150                                
PGRFAMCHA010501190008192441002433Famous Jett Jackson; The                          Popularity                                                           1025607ACC                              
PROFAMCHA010501192441192449000008CC Was Brought To You By - Ian (PRESCHOOL)                                                                              06  150                                
ID FAMCHA010501192449192459000010Generic ID - soccer                                                                                                     06  150                                
PROFAMCHA010501192459192527000028Honey (MARCH2001) - Tonight @ 8pm                                                                                       06  150                                
PROFAMCHA010501192527192551000024ALF - Coming Up                                                                                                         02  150                                
INTFAMCHA010501192551192840000249MV Disney - My Funny Friend & Me                                                                                       60288120                                
PRCFAMCHA010501192840192908000028Are You Afraid...Dark? (45MIN) - Tonight @ 8:45pm                                                                       06  150                                
PROFAMCHA010501192908192929000021Buzz Lightyear (DISNEY'S ONE TOO) - Weekdays @ 5:3                                                                      02  150                                
PRCFAMCHA010501192929192939000010Morning Block menu background (flex time)                                                                               06  150                                
ID FAMCHA010501192939193000000021Prime time open count down                                                                                              06  150                                
PROFAMCHA010501193000193008000008CC Is Brought To You By - Lark (PRESCHOOL)                                                                              06  150                                
PGRFAMCHA010501193008195137002129ALF                                               Future's So Bright, I Gotta Wear Shades                             A2068807BCC                              
PROFAMCHA010501195137195145000008CC Was Brought To You By - Lark (PRESCHOOL)                                                                             06  150                                
ID FAMCHA010501195145195150000005Generic ID - Couch 2                                                                                                    06  150                                
PRCFAMCHA010501195150195218000028Are You Afraid...Dark? (45MIN) - Tonight @ 8:45pm                                                                       06  150                                
PROFAMCHA010501195218195246000028Honey (MARCH2001) - Coming Up                                                                                           02  150                                
INTFAMCHA010501195246195350000104Monkey Minutes - Alien                                                                                                A20288120                                
PROFAMCHA010501195350195400000010MV FAMJAM - Teaser (Generic)                                                                                           602 5150                                
PROFAMCHA010501195400195421000021Buzz Lightyear (DISNEY'S ONE TOO) - Weekdays @ 5:3                                                                      06  150                                
INTFAMCHA010501195421195816000355MV - Angel                                                                                                            A20288120                                
PROFAMCHA010501195816195826000010MV Web Throw - music@family.ca                                                                                         602 5150                                
PROFAMCHA010501195826195859000033Recess (King Gus) - Weekdays @ 5:00pm                                                                                   02  150                                
PRCFAMCHA010501195859195939000040Famous Jett Jackson (MARCH2001) - Weeknights @ 7pm                                                                     102  150                                
PRCFAMCHA010501195939195950000011Morning Block menu background (flex time)                                                                               06  150                                
ID FAMCHA010501195950200000000010Magic of Disney - V4 - ADULT FEMALE                                                                                     02  150                                
PROFAMCHA010501200000200008000008CC Is Brought To You By - Ian (PRESCHOOL)                                                                               06  150                                
PGRFAMCHA010501200008204343004335Disney's Honey, I Shrunk The Kids: The TV Show    I'm Spooked                                                          6028807BCC                              
PROFAMCHA010501204343204351000008CC Was Brought To You By - Ian (PRESCHOOL)                                                                              06  150                                
ID FAMCHA010501204351204401000010Generic ID - Bubbles                                                                                                    06  150                                
PRCFAMCHA010501204401204429000028Are You Afraid...Dark? (45MIN) - Coming Up                                                                              02  150                                
PRCFAMCHA010501204429204439000010Morning Block menu background (flex time)                                                                               06  150                                
ID FAMCHA010501204439204500000021Prime time open count down                                                                                              06  150                                
PROFAMCHA010501204500204507000007CC Is Brought To You By - Ian (PRESCHOOL)                                                                               02  150                                
PGRFAMCHA010501204507205836001329Are You Afraid of the Dark?                       The Stone Maiden Pt.1                                               A1025807ACC                              
PROFAMCHA010501205836205843000007CC Was Brought To You By - Ian (PRESCHOOL)                                                                              02  150                                
ID FAMCHA010501205843205853000010Generic ID - confetti                                                                                                   02  150                                
PROFAMCHA010501205853205923000030Recess (Brother Chad) - Weekdays @ 5:00pm                                                                               02  150                                
PROFAMCHA010501205923205939000016ALF (Description) - Weeknights @ 7:30pm                                                                                 02  150                                
ID FAMCHA010501205939210000000021Move open family size movie                                                                                             02  150                                
PROFAMCHA010501210000210008000008Rating - G - Lark                                                                                                       02  150                                
ID FAMCHA010501210008210018000010Magic of Disney - V3(water) - ADULT MALE                                                                                02  150                                
PGRFAMCHA010501210018222250012232Flight Of The Grey Wolf; The                                                                                          A6028807C                                
ID FAMCHA010501222250222255000005Generic ID - Fingerpaint                                                                                                06  150                                
PRCFAMCHA010501222255222326000031Are You Afraid...Dark? (MARCH2001) - Tonight @ 12:                                                                      02  150                                
INTFAMCHA01050122232622242600010060 Seconds of Science - Balloons(14) (anywhere but                                                                     60288120                                
PROFAMCHA010501222426222440000014ALF (Dreams) - Tonight @ 12am                                                                                           02  150                                
ID FAMCHA010501222440222501000021Move open family size movie                                                                                             06  150                                
PROFAMCHA010501222501222508000007Rating - PG - Ian                                                                                                       02  150                                
PGRFAMCHA010501222508000144013636House Calls                                                                                                           B2028807D                                
ID FAMCHA010501000144000149000005Generic ID - soccer                                                                                                     06  150                                
PROFAMCHA010501000149000157000008CC Is Brought To You By - Lark (PRESCHOOL)                                                                              06  150                                
PGRFAMCHA010501000157002326002129ALF                                               Future's So Bright, I Gotta Wear Shades                             A2068807BCC                              
PROFAMCHA010501002326002335000009CC Was Brought To You By - Lark (PRESCHOOL)                                                                             06  150                                
ID FAMCHA010501002335002345000010Generic ID - Family w/dog                                                                                               06  150                                
PRCFAMCHA010501002345002425000040Famous Jett Jackson (MARCH2001) - Weeknights @ 7pm                                                                     106  150                                
PRCFAMCHA010501002425002453000028Are You Afraid...Dark? (45MIN) - Coming Up                                                                              06  150                                
INTFAMCHA010501002453002915000422MV Disney - True to your heart (oct 1)                                                                                 60288120                                
PROFAMCHA010501002915002939000024ALF - Weeknights @ 7:30pm                                                                                               02  150                                
ID FAMCHA010501002939003000000021Prime time open count down                                                                                              06  150                                
PROFAMCHA010501003000003008000008CC Is Brought To You By - Ian (PRESCHOOL)                                                                               06  150                                
PGRFAMCHA010501003008005425002417Are You Afraid of the Dark?                       Photo Finish                                                         1025807ACC                              
PROFAMCHA010501005425005433000008CC Was Brought To You By - Ian (PRESCHOOL)                                                                              06  150                                
ID FAMCHA010501005433005448000015Generic ID - confetti                                                                                                   06  150                                
PROFAMCHA010501005448005516000028Honey (MARCH2001) - Weeknights @ 8pm                                                                                    02  150                                
PROFAMCHA010501005516005548000032Recess (Experiment) - Weekdays @ 5:00pm                                                                                 02  150                                
INTFAMCHA010501005548005641000053Monkey Minutes - Evita (after 7:30PM)                                                                                 A20288120                                
PRCFAMCHA010501005641005723000042Gargoyles (MARCH2001) - Weeknights @ 6:30pm                                                                             02  150                                
INTFAMCHA010501005723010200000437MV Disney - Go the distance (oct 1)                                                                                    60688120                                
SO FAMCHA010501010200010212000012Sign Off (oct 1)                                                                                                        02                                     
OFFFAMCHA010501010212043000032748                                                                                                                                                               
SO FAMCHA010502043000043011000011Sign On (oct 1)                                                                                                         02                                     
PROFAMCHA010502043011043019000008CC Is Brought To You By - Ian (PRESCHOOL)                                                                               02  150                                
PGRFAMCHA010502043019045419002400Hello Mrs. Cherrywinkle                           Catch The Rainbow                                             B18892A1025607ACC                              
PROFAMCHA010502045419045427000008CC Was Brought To You By - Ian (PRESCHOOL)                                                                              02  150                                
ID FAMCHA010502045427045432000005Generic ID - Couch 1                                                                                                    02  150                                
PRCFAMCHA010502045432045440000008Franklin Bumper - Slide - Today                                                                                        102  150                                
ID FAMCHA010502045440045500000020Morning block open play pen                                                                                             02  150                                
PROFAMCHA010502045500045508000008CC Is Brought To You By - Lark (PRESCHOOL)                                                                              02  150                                
PGRFAMCHA010502045508051918002410Busy World Of Richard Scarry; The                 King & Queen For A Day/Piggy Express/Practice Make            B24401 1125607ECC                              
PROFAMCHA010502051918051926000008CC Was Brought To You By - Lark (PRESCHOOL)                                                                             02  150                                
ID FAMCHA010502051926051931000005Generic ID - Bubbles                                                                                                    02  150                                
ID FAMCHA010502051931051940000009URL(1) - CONTESTS                                                                                                       02  150                                
ID FAMCHA010502051940052000000020Morning block open play pen                                                                                             06  150                                
PROFAMCHA010502052000052008000008CC Is Brought To You By - Ian (PRESCHOOL)                                                                               06  150                                
PGRFAMCHA010502052008054428002420Billy The Cat                                     Born To Be A Wildcat                                          B27655A1025607ECC                              
PROFAMCHA010502054428054435000007CC Was Brought To You By - Ian (PRESCHOOL)                                                                              02  150                                
ID FAMCHA010502054435054440000005Generic ID - Fingerpaint                                                                                                02  150                                
ID FAMCHA010502054440054500000020Morning block open play pen                                                                                             06  150                                
PROFAMCHA010502054500054508000008CC Is Brought To You By - Lark (PRESCHOOL)                                                                              06  150                                
PGRFAMCHA010502054508061128002620Little Lulu Show; The                             Friends & Enemies/The Beauty Contest/Rich Little P            P22335A1025607ECC                              
PROFAMCHA010502061128061136000008CC Was Brought To You By - Lark (PRESCHOOL)                                                                             06  150                                
ID FAMCHA010502061136061141000005Generic ID - soccer                                                                                                     02  150                                
PROFAMCHA010502061141061149000008CC Is Brought To You By - Ian (PRESCHOOL)                                                                               06  150                                
PGRFAMCHA010502061149063549002400Big Garage; The                                   Breaking All The Rules                                        P21475 1025607ECC                              
PROFAMCHA010502063549063557000008CC Was Brought To You By - Ian (PRESCHOOL)                                                                              06  150                                
ID FAMCHA010502063557063602000005Generic ID - Couch 1                                                                                                    06  150                                
PGRFAMCHA010502063602070010002408Clarissa                                          Sam's Dad                                                            2028607B                                
ID FAMCHA010502070010070015000005Generic ID - Couch 2                                                                                                    02  150                                
PROFAMCHA010502070015070023000008CC Is Brought To You By - Lark (PRESCHOOL)                                                                              06  150                                
PGRFAMCHA010502070023072316002253Franklin                                          Franklin and the Bus Patrol/Franklin and Wolvie                     A1025607ECC                              
PROFAMCHA010502072316072324000008CC Was Brought To You By - Lark (PRESCHOOL)                                                                             06  150                                
ID FAMCHA010502072324072334000010Generic ID - Family w/dog                                                                                               02  150                                
PROFAMCHA010502072334072404000030New Adventures of WTP (MARCH2001) - Coming Up                                                                           02  150                                
PRCFAMCHA010502072404072411000007Book of Pooh Bumper - Gang - This Morning                                                                              102  150                                
INTFAMCHA010502072411072835000424Art Attack - Bowler                                                                                                    60286120                                
PRCFAMCHA010502072835072910000035Little Lulu (MARCH2001) - Weekends @ 6:30pm                                                                            102  150                                
PROFAMCHA010502072910072940000030House of Mouse - Weekends @ 4:30pm                                                                                      02  150                                
PRCFAMCHA010502072940072950000010Morning Block menu background (flex time)                                                                               02  150                                
ID FAMCHA010502072950073000000010Magic of Disney - V2(sky) - KID FEMALE                                                                                  02  150                                
PROFAMCHA010502073000073008000008CC Is Brought To You By - Ian (PRESCHOOL)                                                                               06  150                                
PGRFAMCHA010502073008075258002250New Adventures of Winnie the Pooh; The            Masked Offender/Things That Go...                                   A6028607ECC                              
PROFAMCHA010502075258075307000009CC Was Brought To You By - Ian (PRESCHOOL)                                                                              02  150                                
ID FAMCHA010502075307075314000007Generic ID - Whisper                                                                                                    02  150                                
PROFAMCHA010502075314075414000100Morning Crunch (MAY) - This Morning                                                                                     02  150                                
INTFAMCHA010502075414075904000450MV Disney - Circle of Life (oct 1)                                                                                     60288120                                
PRCFAMCHA010502075904075940000036Goof Troop (MARCH2001) - Weekends @ 4pm                                                                                 02  150                                
ID FAMCHA010502075940080000000020Morning block open play pen                                                                                             06  150                                
PGRFAMCHA010502080000081510001510Art Attack                                        1-012                                                                60286110                                
ID FAMCHA010502081510081520000010Generic ID - Hula Hoop                                                                                                  02  150                                
PROFAMCHA010502081520081620000100Morning Crunch (MAY) - This Morning                                                                                     06  150                                
PRCFAMCHA010502081620081655000035Little Lulu (MARCH2001) - Coming Up                                                                                    102  150                                
PROFAMCHA010502081655081740000045PB&J Otter (MARCH2001) - Weekends @ 5pm                                                                                202  150                                
INTFAMCHA010502081740082055000315Art Attack - Sailing Ship                                                                                              60286120                                
PRCFAMCHA010502082055082131000036Goof Troop (MARCH2001) - Weekends @ 4pm                                                                                 06  150                                
PRCFAMCHA010502082131082140000009Morning Block menu background (flex time)                                                                               06  150                                
ID FAMCHA010502082140082200000020Morning block open play pen                                                                                             06  150                                
PROFAMCHA010502082200082208000008CC Is Brought To You By - Lark (PRESCHOOL)                                                                              06  150                                
PGRFAMCHA010502082208084559002351Little Lulu Show; The                             Hairy Day/Noses Off/Boy Cannon Ball                           B03813A1025607ECC                              
PROFAMCHA010502084559084607000008CC Was Brought To You By - Lark (PRESCHOOL)                                                                             06  150                                
ID FAMCHA010502084607084612000005Generic ID - Marbles                                                                                                    02  150                                
PROFAMCHA010502084612084627000015Doug (MARCH2001) - Today @ 4pm                                                                                          02  150                                
ID FAMCHA010502084627084633000006Silly Stories Teaser - Female                                                                                           02  150                                
PROFAMCHA010502084633084703000030Pepper Ann (MARCH2001) - Today @ 4:30pm                                                                                 02  150                                
ID FAMCHA010502084703084730000027Silly Stories - No Fair!                                                                                                02  150                                
PRCFAMCHA010502084730084740000010Morning Block menu background (flex time)                                                                               06  150                                
ID FAMCHA010502084740084800000020Morning block open play pen                                                                                             06  150                                
PGRFAMCHA010502084800090318001518Elmo's World                                      Hats                                                                A2028607G                                
ID FAMCHA010502090318090323000005Generic ID - Couch 1                                                                                                    06  150                                
PRCFAMCHA010502090323090330000007Book of Pooh Bumper - Gang - This Morning                                                                              106  150                                
INTFAMCHA010502090330090710000340Art Attack - Tape Batman                                                                                               60286120                                
PROFAMCHA010502090710090731000021D12 - Pepper Ann/Doug - Today, starting @ 4pm                                                                           02  150                                
PRCFAMCHA010502090731090740000009Morning Block menu background (flex time)                                                                               06  150                                
ID FAMCHA010502090740090800000020Morning block open play pen                                                                                             06  150                                
PROFAMCHA010502090800090808000008CC Is Brought To You By - Ian (PRESCHOOL)                                                                               06  150                                
PGRFAMCHA010502090808093138002330PB&J Otter                                        Gotcha/Mysterious Mirror                                            A6028607ECC                              
PROFAMCHA010502093138093146000008CC Was Brought To You By - Ian (PRESCHOOL)                                                                              06  150                                
ID FAMCHA010502093146093156000010Generic ID - Pink inner tube                                                                                            02  150                                
PRCFAMCHA010502093156093203000007Book of Pooh Bumper - Gang - Coming Up                                                                                 102  150                                
ID FAMCHA010502093203093210000007Silly Stories Teaser - Male                                                                                             02  150                                
PROFAMCHA010502093210093231000021Buzz Lightyear (DISNEY'S ONE TOO) - Today @ 5:30pm                                                                      02  150                                
ID FAMCHA010502093231093310000039Silly Stories - What's a Bathroom?                                                                                      02  150                                
PROFAMCHA010502093310093340000030House of Mouse - Weekends @ 4:30pm                                                                                      06  150                                
PRCFAMCHA010502093340093350000010Morning Block menu background (flex time)                                                                               06  150                                
ID FAMCHA010502093350093400000010Magic of Disney - V2(sky) - KID MALE                                                                                    02  150                                
PGRFAMCHA010502093400095802002402Book Of Pooh; The                                 A Win Won Situation/Best Wishes, Winnie The Pooh                     6028607G                                
ID FAMCHA010502095802095817000015Generic ID - confetti                                                                                                   02  150                                
PROFAMCHA010502095817095841000024ALF - Today @ Noon                                                                                                      02  150                                
ID FAMCHA010502095841095901000020Morning block open play pen                                                                                             06  150                                
PROFAMCHA010502095901095909000008CC Is Brought To You By - Lark (PRESCHOOL)                                                                              06  150                                
PGRFAMCHA010502095909102319002410Busy World Of Richard Scarry; The                 Winners/No More Games/We Won't Go To The Dr.                  B24402 1125607ECC                              
PROFAMCHA010502102319102326000007CC Was Brought To You By - Lark (PRESCHOOL)                                                                             02  150                                
ID FAMCHA010502102326102341000015Generic ID - confetti                                                                                                   06  150                                
ID FAMCHA010502102341102401000020Morning block open play pen                                                                                             06  150                                
PGRFAMCHA010502102401104641002240Madeline                                          Madeline in New York                                                 6028607E                                
ID FAMCHA010502104641104646000005Generic ID - soccer                                                                                                     06  150                                
PRCFAMCHA010502104646104700000014Franklin Bumper - Leaf - Weekdays                                                                                      102  150                                
PROFAMCHA010502104700104730000030Jersey (MARCH2001) - Weekends @ 10:16am                                                                                 02  150                                
PRCFAMCHA010502104730104740000010Morning Block menu background (flex time)                                                                               06  150                                
ID FAMCHA010502104740104800000020Morning block open play pen                                                                                             06  150                                
PROFAMCHA010502104800104808000008CC Is Brought To You By - Ian (PRESCHOOL)                                                                               06  150                                
PGRFAMCHA010502104808111103002255Out Of The Box                                    Tooth or Consequences                                                60286110CC                              
PROFAMCHA010502111103111111000008CC Was Brought To You By - Ian (PRESCHOOL)                                                                              06  150                                
ID FAMCHA010502111111111118000007Generic ID - Whisper                                                                                                    06  150                                
PROFAMCHA010502111118111148000030House of Mouse - Weekends @ 4:30pm                                                                                      06  150                                
PRCFAMCHA010502111148111155000007Book of Pooh Bumper - Gang - This Afternoon                                                                            102  150                                
PROFAMCHA010502111155111240000045PB&J Otter (MARCH2001) - Weekends @ 5pm                                                                                206  150                                
PRCFAMCHA010502111240111250000010Morning Block menu background (flex time)                                                                               06  150                                
ID FAMCHA010502111250111300000010Magic of Disney - V3(water) - KID FEMALE                                                                                02  150                                
PROFAMCHA010502111300111308000008CC Is Brought To You By - Lark (PRESCHOOL)                                                                              06  150                                
PGRFAMCHA010502111308113555002247Goof Troop                                        For Pete's Sake                                                     A6028607ECC                              
PROFAMCHA010502113555113603000008CC Was Brought To You By - Lark (PRESCHOOL)                                                                             06  150                                
ID FAMCHA010502113603113613000010Generic ID - Bubbles                                                                                                    02  150                                
PROFAMCHA010502113613113637000024ALF - Today @ Noon                                                                                                      06  150                                
PROFAMCHA010502113637113650000013Buzz Lightyear (DISNEY'S ONE TOO) - Today @ 5:30pm                                                                      02  150                                
ID FAMCHA010502113650113700000010Magic of Disney - V3(water) - KID MALE                                                                                  02  150                                
PROFAMCHA010502113700113708000008CC Is Brought To You By - Ian (PRESCHOOL)                                                                               06  150                                
PGRFAMCHA010502113708115947002239Disney's Aladdin                                  The Secret Of Dagger Rock                                            6028607ECC                              
PROFAMCHA010502115947115955000008CC Was Brought To You By - Ian (PRESCHOOL)                                                                              06  150                                
ID FAMCHA010502115955120000000005Generic ID - Bubbles                                                                                                    06  150                                
PROFAMCHA010502120000120008000008CC Is Brought To You By - Lark (PRESCHOOL)                                                                              06  150                                
PGRFAMCHA010502120008122137002129ALF                                               When I'm Sixty-Four                                                 A2028807BCC                              
PROFAMCHA010502122137122145000008CC Was Brought To You By - Lark (PRESCHOOL)                                                                             06  150                                
ID FAMCHA010502122145122150000005Generic ID - Marbles                                                                                                    06  150                                
PRCFAMCHA010502122150122220000030Franklin (MARCH2001) - Coming Up                                                                                       102  150                                
PROFAMCHA010502122220122245000025Recess (Finster) - Today @ 5pm                                                                                          02  150                                
ID FAMCHA010502122245122300000015Afternoon block pinball open                                                                                            02  150                                
PROFAMCHA010502122300122308000008CC Is Brought To You By - Ian (PRESCHOOL)                                                                               06  150                                
PGRFAMCHA010502122308124601002253Franklin                                          Spring First/Plays Golf                                             A1025607ECC                              
PROFAMCHA010502124601124609000008CC Was Brought To You By - Ian (PRESCHOOL)                                                                              06  150                                
ID FAMCHA010502124609124619000010Generic ID - confetti                                                                                                   02  150                                
PROFAMCHA010502124619124635000016ALF (Description) - Tonight @ 7:30pm                                                                                    02  150                                
PRCFAMCHA010502124635124645000010Morning Block menu background (flex time)                                                                               06  150                                
ID FAMCHA010502124645124700000015Afternoon block pinball open                                                                                            06  150                                
PGRFAMCHA010502124700130154001454Elmo's World                                      Dance                                                               A2028607G                                
ID FAMCHA010502130154130159000005Generic ID - Couch 2                                                                                                    06  150                                
PROFAMCHA010502130159130229000030New Adventures of WTP (MARCH2001) - Weekends @ 5:3                                                                      02  150                                
INTFAMCHA010502130229130603000334MV Disney - Forever and ever (preschool)                                                                               60288120                                
ID FAMCHA010502130603130615000012Web Rant - I Was Happy                                                                                                  02  150                                
PRCFAMCHA010502130615130645000030Hoze Houndz - Weekends @ 7pm                                                                                            02  150                                
ID FAMCHA010502130645130700000015Afternoon block pinball open                                                                                            06  150                                
PROFAMCHA010502130700130708000008CC Is Brought To You By - Lark (PRESCHOOL)                                                                              06  150                                
PGRFAMCHA010502130708133038002330PB&J Otter                                        Butter's First Check-Up/Legend of Pond De L'Otter                   A6028607ECC                              
PROFAMCHA010502133038133046000008CC Was Brought To You By - Lark (PRESCHOOL)                                                                             06  150                                
ID FAMCHA010502133046133051000005Generic ID - Couch 1                                                                                                    06  150                                
PRCFAMCHA010502133051133058000007Book of Pooh Bumper - Gang - Coming Up                                                                                 106  150                                
PROFAMCHA010502133058133113000015Doug (MARCH2001) - Today @ 4pm                                                                                          06  150                                
INTFAMCHA010502133113133210000057Frankenguy and the Professor - sleepy                                                                                  60288120                                
PROFAMCHA010502133210133240000030Pepper Ann (MARCH2001) - Today @ 4:30pm                                                                                 06  150                                
PRCFAMCHA010502133240133250000010Morning Block menu background (flex time)                                                                               06  150                                
ID FAMCHA010502133250133300000010Magic of Disney - V4 - TEEN FEMALE                                                                                      02  150                                
PGRFAMCHA010502133300135702002402Book Of Pooh; The                                 Best Wishes, Winnie the Pooh/Double Time                             6028607G                                
ID FAMCHA010502135702135707000005Generic ID - Couch 2                                                                                                    06  150                                
PRCFAMCHA010502135707135715000008Franklin Bumper - Slide - Weekdays                                                                                     102  150                                
PROFAMCHA010502135715135745000030House of Mouse - Weekends @ 4:30pm                                                                                      06  150                                
ID FAMCHA010502135745135800000015Afternoon block pinball open                                                                                            06  150                                
PROFAMCHA010502135800135808000008CC Is Brought To You By - Ian (PRESCHOOL)                                                                               06  150                                
PGRFAMCHA010502135808142218002410Busy World Of Richard Scarry; The                 Never Too Small/Albert, The Belgian Barge Capt./Ra            B24403 1125607ECC                              
PROFAMCHA010502142218142228000010CC Was Brought To You By - Ian (PRESCHOOL)                                                                              02  150                                
ID FAMCHA010502142228142238000010Generic ID - Family w/dog                                                                                               06  150                                
PRCFAMCHA010502142238142245000007Book of Pooh Bumper - Gang - Weekday Mornings                                                                          102  150                                
ID FAMCHA010502142245142300000015Afternoon block pinball open                                                                                            06  150                                
PROFAMCHA010502142300142308000008CC Is Brought To You By - Lark (PRESCHOOL)                                                                              06  150                                
PGRFAMCHA010502142308144553002245Madeline                                          Madeline and the Lost Crown                                          6028607ECC                              
PROFAMCHA010502144553144601000008CC Was Brought To You By - Lark (PRESCHOOL)                                                                             06  150                                
ID FAMCHA010502144601144606000005Generic ID - Fingerpaint                                                                                                06  150                                
PROFAMCHA010502144606144636000030House of Mouse - Weekends @ 4:30pm                                                                                      06  150                                
PRCFAMCHA010502144636144645000009Morning Block menu background (flex time)                                                                               06  150                                
ID FAMCHA010502144645144700000015Afternoon block pinball open                                                                                            06  150                                
PROFAMCHA010502144700144708000008CC Is Brought To You By - Ian (PRESCHOOL)                                                                               06  150                                
