SO FAMCHA080401043000043011000011Sign On (oct 1)                                                                                                                                                
PRCFAMCHA080401043011043020000009CC Disclaimer - FAST - Family.ca (:09-:10)                                                                                  150                                
PGRFAMCHA080401043020045655002635Katie And Orbie                                   EP: 3-033                                                     C12449A1065607ECC                              
PRCFAMCHA080401045655045711000016PH - 02 - FRANNY/SOMETHING/HOZE (:14 - :16) (SEPT0                                                                          150                                
ID FAMCHA080401045711045724000013PS Playhouse AM Block Open (:10-:15)                                                                                        150                                
PRCFAMCHA080401045724045733000009CC Disclaimer - FAST - Generic (:09-:10)                                                                                    150                                
PGRFAMCHA080401045733052003002230Franny's Feet                                     EPS # 1-002                                                   C23970A1065607ECC                              
PRCFAMCHA080401052003052009000006Astral ID (DEC 2007)                                                                                                        150                                
PRCFAMCHA080401052009052025000016PH - 03 - SOMETHING/HOZE/HENRY'S (:14 - :16) (SEPT                                                                          150                                
ID FAMCHA080401052025052038000013PS Playhouse AM Block Open (:10-:15)                                                                                        150                                
PRCFAMCHA080401052038052047000009CC Disclaimer - FAST - Family.ca (:09-:10)                                                                                  150                                
PGRFAMCHA080401052047054318002231Something Else                                    EP: 1-003                                                     B69257A1065607ECC                              
PRCFAMCHA080401054318054334000016PH - 04 - HOZE/HENRY'S/KING (:14 - :16) (SEPT07)                                                                            150                                
ID FAMCHA080401054334054347000013PS Playhouse AM Block Open (:10-:15)                                                                                        150                                
PRCFAMCHA080401054347054356000009CC Disclaimer - FAST - Generic (:09-:10)                                                                                    150                                
PGRFAMCHA080401054356060634002238Hoze Houndz                                       EPS # 6-070                                                   C22818A1065607ECC                              
PRCFAMCHA080401060634060640000006Astral ID (DEC 2007)                                                                                                        150                                
PRCFAMCHA080401060640060656000016PH - 05 - HENRY'S WORLD/KING (:14 - :16) (SEPT07)                                                                           150                                
ID FAMCHA080401060656060706000010PS Playhouse AM Block Open (:10-:15)                                                                                        150                                
PRCFAMCHA080401060706060715000009CC Disclaimer - FAST - Family.ca (:09-:10)                                                                                  150                                
PGRFAMCHA080401060715063119002404Henry's World                                     EPS # 2-025                                                   B81056A1065607GCC                              
PRCFAMCHA080401063119063135000016PH - 06 - KING (:14 - :16) (SEPT07)                                                                                         150                                
ID FAMCHA080401063135063145000010PS Playhouse AM Block Open (:10-:15)                                                                                        150                                
PRCFAMCHA080401063145063154000009CC Disclaimer - FAST - Generic (:09-:10)                                                                                    150                                
PGRFAMCHA080401063154065424002230King                                              EP: 009                                                       B75764 1065607ECC                              
PRCFAMCHA080401065424065430000006Astral ID (DEC 2007)                                                                                                        150                                
PROFAMCHA080401065430065504000034xxFamJam CD - Available Now (March 4 - June 25) $$                                                                          150                                
PRCFAMCHA080401065504065510000006xxFamily Bumpers - Reptile Pet - Monkey (MD/NS/NSW                                                                          150                                
PROFAMCHA080401065510065541000031xxBarbie Pass Kick it into High Gear Contest REVIS                                                                          150                                
PROFAMCHA080401065541065600000019MadMadMornings Block Open                                                                                                   150                                
PRCFAMCHA080401065600065609000009CC Disclaimer - FAST - Family.ca (:09-:10)                                                                                  150                                
PGRFAMCHA080401065609071900002251Disney's Kim Possible                             EP: 1-010                                                           A6068607ECC                              
PROFAMCHA080401071900071925000025Recess - CAREER DAY (MMM) - (JULY06) - Coming Up N                                                                          150                                
PROFAMCHA080401071925071957000032xxJonas Brothers CD Blast - Available Now (Feb 2 -                                                                          150                                
PROFAMCHA080401071957072033000036Weekenders - PIZZA (MMM) - (APR06) - This Morning                                                                           150                                
PGRFAMCHA080401072033072145000112April Fools News Casts - Big Foot                                                                                     A10218120                                
PROFAMCHA080401072145072217000032Kim Possible RON FACTOR (MD) (July 06)  This after                                                                          150                                
PROFAMCHA080401072217072251000034xxFamJam CD - Available Now (March 4 - June 25) $$                                                                          150                                
PRCFAMCHA080401072251072335000044xxGame Off Online Contest (2-3 x MD/NS/NSW) (March                                                                          150                                
PROFAMCHA080401072335072354000019MadMadMornings Block Open                                                                                                   150                                
PRCFAMCHA080401072354072404000010CC Disclaimer - FAST - Generic (:09-:10)                                                                                    150                                
PGRFAMCHA080401072404074639002235Disney's Recess                                   EP: 1-055                                                           A6068607ECC                              
PRCFAMCHA080401074639074645000006Astral ID (DEC 2007)                                                                                                        150                                
PROFAMCHA080401074645074721000036Weekenders - PIZZA (MMM) - (APR06) - Coming Up Nex                                                                          150                                
PROFAMCHA080401074721074801000040xxJonas Brothers Ticket Blast - Available Now (Mar                                                                          150                                
PRCFAMCHA080401074801074807000006xxFamily Bumpers - (Phase 3 Spring 05) - Bubble Gu                                                                          150                                
PGRFAMCHA080401074807074903000056April Fools News Casts - Bubble Gum                                                                                   A10218120                                
PROFAMCHA080401074903074933000030Kim Possible EVIL (MD) (MAY07) Today @ 12:10                                                                                150                                
PROFAMCHA080401074933075006000033xxJust Like Bratz - Campaign #1 (March 17 - April                                                                           150                                
PROFAMCHA080401075006075033000027Emperor's New School  - Zit - This afternoon @ 1:2                                                                          150                                
PROFAMCHA080401075033075052000019MadMadMornings Block Open                                                                                                   150                                
PRCFAMCHA080401075052075101000009CC Disclaimer - FAST - Family.ca (:09-:10)                                                                                  150                                
PGRFAMCHA080401075101081349002248Disney's The Weekenders                           EP: 1-032                                                           A6068607ECC                              
PROFAMCHA080401081349081414000025Recess - CAREER DAY (MD) - (JULY06) - This morn @                                                                           150                                
PROFAMCHA080401081414081448000034xxFamJam CD - Available Now (March 4 - June 25) $$                                                                          150                                
PGRFAMCHA080401081448081541000053April Fools News Casts - Niagara Falls Bubble Bath                                                                    A10218120                                
PRCFAMCHA080401081541081547000006xxFamily Bumpers - (Phase 2 F/W 04) - Gymnastics (                                                                          150                                
PROFAMCHA080401081547081619000032Kim Possible RON FACTOR (MD) (July 06)  This after                                                                          150                                
PROFAMCHA080401081619081651000032xxJonas Brothers CD Blast - Available Now (Feb 2 -                                                                          150                                
PRCFAMCHA080401081651081747000056xxDC Games Set Visit Contest REVISION #1 (4-5 x MD                                                                          150                                
PROFAMCHA080401081747081806000019MadMadMornings Block Open                                                                                                   150                                
PRCFAMCHA080401081806081816000010CC Disclaimer - FAST - Generic (:09-:10)                                                                                    150                                
PGRFAMCHA080401081816084110002254Disney's Lloyd In Space                           EP: 39                                                               6068607ECC                              
PRCFAMCHA080401084110084116000006Astral ID (DEC 2007)                                                                                                        150                                
PRCFAMCHA080401084116084131000015PH - 07 - EINSTEINS/FRANNY'S/TIGGER & POOH (:14 -                                                                           150                                
PROFAMCHA080401084131084201000030Little Einstein (PH) (PRESCHOOL) - Coming Up Next                                                                           150                                
PGRFAMCHA080401084201084301000100Go Go Gametime (PH) Johnny and the Sprites (Till A                                                                    A60688120                                
PROFAMCHA080401084301084331000030Tigger & Pooh NEW FRIEND DARBY (PH) This Morning @                                                                          150                                
PROFAMCHA080401084331084401000030Bunnytown - PREMISE SELL 2 (PH) Premiering Friday                                                                           150                                
PROFAMCHA080401084401084446000045xxPHD Promo - Little Einstein's Musical Missions S                                                                          150                                
ID FAMCHA080401084446084456000010PS Playhouse AM Block Open (:10-:15)                                                                                        150                                
PRCFAMCHA080401084456084504000008CC Disclaimer - FAST - Family.ca (:09-:10)                                                                                  150                                
PGRFAMCHA080401084504090909002405Disney's Little Einsteins                         EP: 04                                                               6068607ECC                              
PRCFAMCHA080401090909090923000014PH - 08 - FRANNY'S/TIGGER & POOH/ CLUB HOUSE (:14                                                                           150                                
PRCFAMCHA080401090923090938000015Franny's Feet - Bowleriffic (PH-) - (APR06) - Comi                                                                          150                                
PROFAMCHA080401090938091008000030Bunnytown - PREMISE SELL 2 (PH) Premiering Friday                                                                           150                                
PROFAMCHA080401091008091039000031PH-D Promo - Web Sell on Family -  24/7 Ooh & Aah                                                                           150                                
ID FAMCHA080401091039091049000010PS Playhouse AM Block Open (:10-:15)                                                                                        150                                
PRCFAMCHA080401091049091059000010CC Disclaimer - FAST - Generic (:09-:10)                                                                                    150                                
PGRFAMCHA080401091059093329002230Franny's Feet                                     EPS # 1-010                                                   C23970A1065607ECC                              
PRCFAMCHA080401093329093335000006Astral ID (DEC 2007)                                                                                                        150                                
PRCFAMCHA080401093335093350000015PH - 10 - TIGGER & POOH/ CLUB HOUSE/SPRITES (:14 -                                                                          150                                
PROFAMCHA080401093350093420000030Tigger & Pooh NEW FRIEND DARBY (PH) Coming Up Next                                                                          150                                
PGRFAMCHA080401093420093520000100Go Go Gametime (PH) Little Einsteins #1 (Till Apri                                                                    A60688120                                
PROFAMCHA080401093520093550000030Bunnytown - PREMISE SELL 2 (PH) Premiering Friday                                                                           150                                
PROFAMCHA080401093550093635000045xxPHD Promo - Little Einstein's Musical Missions S                                                                          150                                
ID FAMCHA080401093635093650000015PS Playhouse AM Block Open (:10-:15)                                                                                        150                                
PRCFAMCHA080401093650093659000009CC Disclaimer - FAST - Family.ca (:09-:10)                                                                                  150                                
PGRFAMCHA080401093659100059002400Disney My Friends Tigger and Pooh                 EP: 17                                                               6068607ECC                              
PRCFAMCHA080401100059100115000016PH - 13 - CLUB HOUSE/SPRITES/BENJAMIN BEAR (:14 -                                                                           150                                
PROFAMCHA080401100115100145000030Mickey Mouse Clubhouse GENERIC - Coming Up Next                                                                             150                                
PGRFAMCHA080401100145100255000110Pixie Previews - (MMM, PH) Tink & Pepper Shaker                                                                       A60688120                                
PROFAMCHA080401100255100326000031PH-D Promo - Web Sell on Family -  24/7 Ooh & Aah                                                                           150                                
ID FAMCHA080401100326100341000015PS Playhouse AM Block Open (:10-:15)                                                                                        150                                
ID FAMCHA080401100341100349000008Magic of Disney - PLAYHOUSE - Shape (:06-:09)                                                                               150                                
PRCFAMCHA080401100349100359000010CC Disclaimer - FAST - Generic (:09-:10)                                                                                    150                                
PGRFAMCHA080401100359102801002402Disney's Mickey Mouse Clubhouse                   EP: 19                                                               6068607ECC                              
PRCFAMCHA080401102801102807000006Astral ID (DEC 2007)                                                                                                        150                                
PRCFAMCHA080401102807102821000014PH - 16 - SPRITES/BENJAMIN BEAR/KING (:14 - :16) (                                                                          150                                
PROFAMCHA080401102821102856000035Johnny and the Sprites BASIL (PH) Coming Up Next (                                                                          150                                
PGRFAMCHA080401102856102956000100Pixie Previews - (MMM, PH) Fawn & The Log                                                                             A60688120                                
PROFAMCHA080401102956103041000045xxPHD Promo - Little Einstein's Musical Missions S                                                                          150                                
ID FAMCHA080401103041103053000012PS Playhouse AM Block Open (:10-:15)                                                                                        150                                
PRCFAMCHA080401103053103101000008CC Disclaimer - FAST - Family.ca (:09-:10)                                                                                  150                                
PGRFAMCHA080401103101105510002409Disney Johnny and the Sprites                     EP: 09                                                               6068607GCC                              
PRCFAMCHA080401105510105524000014PH - 18 - BENJAMIN BEAR/KING/RECESS (:14 - :16) (S                                                                          150                                
PRCFAMCHA080401105524105554000030Benjamin Bear - (PH-Tue) (OCT06) - NEXT                                                                                     150                                
PROFAMCHA080401105554105609000015Bunnytown - BUNNIES ARE COMING (PH) Premiering Fri                                                                          150                                
PROFAMCHA080401105609105640000031PH-D Promo - Web Sell on Family -  24/7 Ooh & Aah                                                                           150                                
ID FAMCHA080401105640105650000010PS Playhouse AM Block Open (:10-:15)                                                                                        150                                
PRCFAMCHA080401105650105659000009CC Disclaimer - FAST - Generic (:09-:10)                                                                                    150                                
PGRFAMCHA080401105659111929002230Secret World of Benjamin Bear, The                EP: 32                                                        C27272 1065607ECC                              
PRCFAMCHA080401111929111935000006Astral ID (DEC 2007)                                                                                                        150                                
PRCFAMCHA080401111935111951000016PH - 19 - KING/RECESS/KIM POSSIBLE (:14 - :16) (SE                                                                          150                                
PRCFAMCHA080401111951112022000031King (PH) (APR06) - Coming Up Next                                                                                          150                                
PGRFAMCHA080401112022112122000100Go Go Gametime (PH) Little Einsteins #1 (Till Apri                                                                    A60688120                                
PROFAMCHA080401112122112152000030Tigger & Pooh NEW FRIEND DARBY (PH) Tomorrow Morni                                                                          150                                
PGRFAMCHA080401112152112317000125Pixie Previews - (MMM, PH) Silvermist                                                                                 A60688120                                
PROFAMCHA080401112317112347000030Bunnytown - PREMISE SELL 2 (PH) Premiering Friday                                                                           150                                
PROFAMCHA080401112347112432000045xxPHD Promo - Little Einstein's Musical Missions S                                                                          150                                
ID FAMCHA080401112432112447000015PS Playhouse AM Block Open (:10-:15)                                                                                        150                                
PRCFAMCHA080401112447112457000010CC Disclaimer - FAST - Family.ca (:09-:10)                                                                                  150                                
PGRFAMCHA080401112457114727002230King                                              EPS # 037                                                     C25350 1065607ECC                              
PRCFAMCHA080401114727114738000011MD - 01 - RECESS/KIM (:11 - :13) (SEPT07)                                                                                   150                                
PROFAMCHA080401114738114803000025Recess - CAREER DAY (MD) - (JULY06) - Coming Up Ne                                                                          150                                
PRCFAMCHA080401114803114833000030Cineplex Latest Buzz Popcorn Parties Post-Launch 3                                                                          150                                
PROFAMCHA080401114833114839000006Phil of the Future IDs - Your Watching Family...NA                                                                          150                                
PROFAMCHA080401114839114852000013SBO Bumpers - Amanda Winnipeg (March 28 - April 2)                                                                          150                                
PRCFAMCHA080401114852114901000009CC Disclaimer - FAST - Generic (:09-:10)                                                                                    150                                
PGRFAMCHA080401114901121137002236Disney's Recess                                   EP: 1-043                                                            6068607ECC                              
PRCFAMCHA080401121137121143000006Astral ID (DEC 2007)                                                                                                        150                                
PRCFAMCHA080401121143121156000013MD - 02 - KIM/WEEKENDERS (:11 - :13) (SEPT07)                                                                               150                                
PROFAMCHA080401121156121211000015Kim Possible BOYFRIEND (MD) Coming Up Next (SEPT07                                                                          150                                
PROFAMCHA080401121211121247000036Weekenders - PIZZA (MD) - (APR06) - This Afternoon                                                                          150                                
PROFAMCHA080401121247121300000013SBO Bumpers - Michael Winnipeg (March 28 - April 2                                                                          150                                
PRCFAMCHA080401121300121308000008CC Disclaimer - FAST - Family.ca (:09-:10)                                                                                  150                                
PGRFAMCHA080401121308123558002250Disney's Kim Possible                             EP: 1-013                                                           A6068607ECC                              
PRCFAMCHA080401123558123611000013MD - 03 - WEEKENDERS/AMERICAN DRAGON (:11 - :13) (                                                                          150                                
PROFAMCHA080401123611123638000027Emperor's New School  - Zit - This afternoon @ 1:2                                                                          150                                
PROFAMCHA080401123638123651000013SBO Bumpers - Noah Winnipeg (March 28 - April 2) $                                                                          150                                
PRCFAMCHA080401123651123700000009CC Disclaimer - FAST - Generic (:09-:10)                                                                                    150                                
PGRFAMCHA080401123700125954002254Disney's The Weekenders                           EP: 1-011                                                           A6068607ECC                              
PRCFAMCHA080401125954130000000006Astral ID (DEC 2007)                                                                                                        150                                
PRCFAMCHA080401130000130011000011MD - 04 - AMERICAN DRAGON/EMPEROR'S (:11 - :13) (S                                                                          150                                
PROFAMCHA080401130011130024000013SBO Bumpers - Rebecca Winnipeg (March 28 - April 2                                                                          150                                
PRCFAMCHA080401130024130033000009CC Disclaimer - FAST - Family.ca (:09-:10)                                                                                  150                                
PGRFAMCHA080401130033132311002238Disney's American Dragon: Jake Long               EP: 51                                                               6068607ECC                              
PRCFAMCHA080401132311132322000011MD - 05 - EMPEROR'S/FILLMORE (:11 - :13) (SEPT07)                                                                           150                                
PROFAMCHA080401132322132340000018Emperor's New School  MD - Butt In Urn - Coming Up                                                                          150                                
PROFAMCHA080401132340132353000013SBO Bumpers - Wilder Winnipeg (March 28 - April 2)                                                                          150                                
PRCFAMCHA080401132353132402000009CC Disclaimer - FAST - Generic (:09-:10)                                                                                    150                                
PGRFAMCHA080401132402134638002236Disney's The Emperor's New School                 EP: 07                                                               6068807ECC                              
PRCFAMCHA080401134638134644000006Astral ID (DEC 2007)                                                                                                        150                                
PRCFAMCHA080401134644134657000013MD - 06 - FILLMORE/PROUD FAMILY (:11 - :13) (SEPT0                                                                          150                                
PRCFAMCHA080401134657134737000040Magazine Spot (MD,NS,NSW) 2/3 day (not in PH) (til                                                                          150                                
PROFAMCHA080401134737134750000013SBO Bumpers - Amanda Winnipeg (March 28 - April 2)                                                                          150                                
PRCFAMCHA080401134750134759000009CC Disclaimer - FAST - Family.ca (:09-:10)                                                                                  150                                
PGRFAMCHA080401134759141036002237Disney's Fillmore!                                EPS # 1-016                                                          6068607ECC                              
PRCFAMCHA080401141036141048000012MD - 07 - PROUD FAMILY/WEEKENDERS (:11 - :13) (SEP                                                                          150                                
PRCFAMCHA080401141048141132000044xxGame Off Online Contest (2-3 x MD/NS/NSW) (March                                                                          150                                
PROFAMCHA080401141132141145000013SBO Bumpers - Michael Winnipeg (March 28 - April 2                                                                          150                                
ID FAMCHA080401141145141151000006Magic of Disney - MAD DASH - Shape (:06-:09)                                                                                150                                
PRCFAMCHA080401141151141200000009CC Disclaimer - FAST - Generic (:09-:10)                                                                                    150                                
PGRFAMCHA080401141200143434002234The Proud Family                                  EP: 2-034                                                           A6068607ECC                              
PRCFAMCHA080401143434143440000006Astral ID (DEC 2007)                                                                                                        150                                
PRCFAMCHA080401143440143453000013MD - 08 - WEEKENDERS/KIM (:11 - :13) (SEPT07) $$$                                                                           150                                
PRCFAMCHA080401143453143549000056xxDC Games Set Visit Contest REVISION #1 (4-5 x MD                                                                          150                                
PROFAMCHA080401143549143602000013SBO Bumpers - Noah Winnipeg (March 28 - April 2) $                                                                          150                                
PRCFAMCHA080401143602143610000008CC Disclaimer - FAST - Family.ca (:09-:10)                                                                                  150                                
PGRFAMCHA080401143610145842002232Disney's The Weekenders                           EP: 1-021                                                           A6068607ECC                              
PRCFAMCHA080401145842145853000011MD - 09 - KIM/REPLACEMENTS (:11 - :13) (SEPT07) $$                                                                          150                                
PROFAMCHA080401145853145923000030xxHSM Stage Show Contest (March 21 - April 11) $$$                                                                          150                                
PROFAMCHA080401145923145937000014Phil of the Future IDs - Ricky Tomato - watching f                                                                          150                                
PROFAMCHA080401145937145950000013SBO Bumpers - Rebecca Winnipeg (March 28 - April 2                                                                          150                                
PRCFAMCHA080401145950145959000009CC Disclaimer - FAST - Generic (:09-:10)                                                                                    150                                
PGRFAMCHA080401145959152253002254Disney's Kim Possible                             EPS # 1-041                                                         A6068607ECC                              
PRCFAMCHA080401152253152259000006Astral ID (DEC 2007)                                                                                                        150                                
PROFAMCHA080401152259152329000030xxReplacements  LIBRARIAN (MD) Coming Up Next (SEP                                                                          150                                
PROFAMCHA080401152329152405000036xxFamily Favourites -  Fam Jam CD (March 17 - Apri                                                                          150                                
PRCFAMCHA080401152405152411000006xxFamily Bumpers - Reptile Pet - Rooster (MD/NS/NS                                                                          150                                
PROFAMCHA080401152411152442000031xxBarbie Pass Kick it into High Gear Contest REVIS                                                                          150                                
PRCFAMCHA080401152442152538000056xxDC Games Set Visit Contest REVISION #1 (4-5 x MD                                                                          150                                
PROFAMCHA080401152538152551000013SBO Bumpers - Wilder Winnipeg (March 28 - April 2)                                                                          150                                
PRCFAMCHA080401152551152600000009CC Disclaimer - FAST - Family.ca (:09-:10)                                                                                  150                                
PGRFAMCHA080401152600155144002544Disney's The Replacements                         EP: 16                                                               2068607ECC                              
PRCFAMCHA080401155144155228000044xxGame Off Online Contest (2-3 x MD/NS/NSW) (March                                                                          150                                
PROFAMCHA080401155228155330000102Hannah Montana (MD) Mockumentry - This Afternoon @                                                                          150                                
PROFAMCHA080401155330155410000040xxJonas Brothers Ticket Blast - Available Now (Mar                                                                          150                                
PRCFAMCHA080401155410155421000011xxFamily Bumpers - (Phase 2 F/W 04) - Science (MD-                                                                          150                                
PROFAMCHA080401155421155431000010FAMJAM - Open/Close                                                                                                         150                                
PGRFAMCHA080401155431155744000313MV Disney - (MD/NS/NSW) - Jesse McCartney - Just S                                                                     60288120                                
PROFAMCHA080401155744155758000014xxFAMJAM - Close (FAMILY) xxDNUxx                                                                                           150                                
PROFAMCHA080401155758155834000036Suite Life of Z & C - MD - GOLF - Tomorrow Afterno                                                                          150                                
PROFAMCHA080401155834155907000033xxJust Like Bratz - Campaign #1 (March 17 - April                                                                           150                                
PRCFAMCHA080401155907155955000048Family Video Player Promo - No Tag 3/day (not in P                                                                          150                                
PROFAMCHA080401155955160008000013SBO Bumpers - Amanda Winnipeg (March 28 - April 2)                                                                          150                                
ID FAMCHA080401160008160018000010Ratings - PG - Popcorn Pix Only (July 07)                                                                                   150                                
PGRFAMCHA080401160018172501012443Ernest Goes To Jail                                                                                                   B6068807D                                
PRCFAMCHA080401172501172557000056xxDC Games Set Visit Contest REVISION #1 (4-5 x MD                                                                          150                                
PROFAMCHA080401172557172631000034Hannah Montana (MD) Wig Auditions - Coming Up Next                                                                          150                                
PROFAMCHA080401172631172731000100xxKid Fit - Phase One - Audition -Camp Rock Contes                                                                          150                                
PRCFAMCHA080401172731172737000006xxFamily Bumpers - Reptile Pet - Meow (MD/NS/NSW)                                                                           150                                
PRCFAMCHA080401172737172952000215Movie Entertainment (8)                                                                                               B     150                                
PROFAMCHA080401172952173017000025Recess - CAREER DAY (MD) - (JULY06) - Tomorrow aft                                                                          150                                
PROFAMCHA080401173017173027000010FAMJAM - Open/Close                                                                                                         150                                
PGRFAMCHA080401173027173127000100MV Disney - (MD/NS/NSW) - Jesse McCartney - Just S                                                                     60688120                                
PROFAMCHA080401173127173141000014xxFAMJAM - Close (FAMILY) xxDNUxx                                                                                           150                                
PROFAMCHA080401173141173214000033Suite Life of Z & C - MD - SCOUT TROOP - Tomorrow                                                                           150                                
PROFAMCHA080401173214173252000038xxWater Horse DVD Blast - Available April 8 (March                                                                          150                                
PRCFAMCHA080401173252173336000044xxGame Off Online Contest (2-3 x MD/NS/NSW) (March                                                                          150                                
PROFAMCHA080401173336173349000013SBO Bumpers - Michael Winnipeg (March 28 - April 2                                                                          150                                
ID FAMCHA080401173349173357000008Magic of Disney - MAD DASH - Shape (:06-:09)                                                                                150                                
PGRFAMCHA080401173357175939002542Hannah Montana                                    EP: 06                                                               6068807B                                
PRCFAMCHA080401175939175945000006xxFamily Bumpers - Reptile Pet - Horse  (MD/NS/NSW                                                                          150                                
PROFAMCHA080401175945180015000030xxHSM Stage Show Contest (March 21 - April 11) $$$                                                                          150                                
PROFAMCHA080401180015180051000036xxFamily Favourites -  Fam Jam CD (March 17 - Apri                                                                          150                                
PROFAMCHA080401180051180104000013SBO Bumpers - Noah Winnipeg (March 28 - April 2) $                                                                          150                                
ID FAMCHA080401180104180114000010Ratings - G - Popcorn Pix Only (July 07)                                                                                    150                                
PGRFAMCHA080401180114193212013058Mr. Magoo                                                                                                             A6068807D                                
PROFAMCHA080401193212193250000038xxWater Horse DVD Blast - Available April 8 (March                                                                          150                                
PRCFAMCHA080401193250193256000006xxFamily Bumpers - Reptile Pet - Siren (MD/NS/NSW)                                                                          150                                
PROFAMCHA080401193256193356000100xxKid Fit - Phase One - Audition -Camp Rock Contes                                                                          150                                
PROFAMCHA080401193356193409000013SBO Bumpers - Rebecca Winnipeg (March 28 - April 2                                                                          150                                
ID FAMCHA080401193409193418000009Magic of Disney - NS/NSW/PB - Wipe (:06-:09)                                                                                150                                
PRCFAMCHA080401193418193428000010CC Disclaimer - FAST - Generic (:09-:10)                                                                                    150                                
PGRFAMCHA080401193428195939002511Smart Guy                                         EP: 1-045                                                            6068807BCC                              
PROFAMCHA080401195939200015000036xxFamily Favourites -  Fam Jam CD (March 17 - Apri                                                                          150                                
PROFAMCHA080401200015200046000031xxBarbie Pass Kick it into High Gear Contest REVIS                                                                          150                                
PROFAMCHA080401200046200055000009Suite Life ID - You're watching Suite Life on Fami                                                                          150                                
PROFAMCHA080401200055200108000013SBO Bumpers - Wilder Winnipeg (March 28 - April 2)                                                                          150                                
ID FAMCHA080401200108200116000008Magic of Disney - NS/NSW/PB - Shape (:06-:09)                                                                               150                                
PRCFAMCHA080401200116200124000008CC Disclaimer - FAST - Family.ca (:09-:10)                                                                                  150                                
PGRFAMCHA080401200124202402002238Suite Life of Zack & Cody, The                    EP: 13                                                               6068607BCC                              
PRCFAMCHA080401202402202408000006Astral ID (DEC 2007)                                                                                                        150                                
PRCFAMCHA080401202408202437000029Naturally Sadie - CLIP (NS) Coming Up Next (MARCH0                                                                          150                                
PROFAMCHA080401202437202537000100xxKid Fit - Phase One - Audition -Camp Rock Contes                                                                          150                                
PROFAMCHA080401202537202606000029Hannah Montana SCIENCE (NS) - Tonight @ 9pm (SEPT0                                                                          150                                
PGRFAMCHA080401202606202659000053April Fools News Casts - Niagara Falls Bubble Bath                                                                    A10618120                                
PRCFAMCHA080401202659202705000006xxFamily Bumpers - Reptile Pet - Burp (MD/NS/NSW)                                                                           150                                
PRCFAMCHA080401202705202757000052Life With Derek (NS) Casey & Derek - Tonight @ 9:3                                                                          150                                
PROFAMCHA080401202757202840000043Ned's DSSG (NS) Too Cool for School  - Tonight @ 1                                                                          150                                
PROFAMCHA080401202840202920000040xxJonas Brothers Ticket Blast - Available Now (Mar                                                                          150                                
PRCFAMCHA080401202920202934000014Naturally Sadie ID's (NOV06) - Rain - Up Next                                                                               150                                
PROFAMCHA080401202934202947000013SBO Bumpers - Amanda Winnipeg (March 28 - April 2)                                                                          150                                
PRCFAMCHA080401202947202957000010CC Disclaimer - FAST - Generic (:09-:10)                                                                                    150                                
PGRFAMCHA080401202957205227002230Naturally, Sadie                                  EP: 16                                                        C24010 1065607ACC                              
PROFAMCHA080401205227205301000034Hannah Montana (NS) Wig Auditions - Coming Up Next                                                                          150                                
PROFAMCHA080401205301205332000031xxBarbie Pass Kick it into High Gear Contest REVIS                                                                          150                                
PRCFAMCHA080401205332205424000052Life With Derek (NS) Casey & Derek - Tonight @ 9:3                                                                          150                                
PRCFAMCHA080401205424205554000130Movie Entertainment (8)                                                                                               B     150                                
PRCFAMCHA080401205554205608000014xxFamily Bumpers - (Phase 1 Spring 04) - Basketbal                                                                          150                                
PGRFAMCHA080401205608205713000105April Fools News Casts - Sumo Curling                                                                                 A10218120                                
PROFAMCHA080401205713205756000043Ned's DSSG (NS) Too Cool for School  - Tonight @ 1                                                                          150                                
PROFAMCHA080401205756205829000033xxJust Like Bratz - Campaign #1 (March 17 - April                                                                           150                                
PRCFAMCHA080401205829205925000056xxDC Games Set Visit Contest REVISION #1 (4-5 x MD                                                                          150                                
PROFAMCHA080401205925205938000013SBO Bumpers - Michael Winnipeg (March 28 - April 2                                                                          150                                
ID FAMCHA080401205938205947000009Magic of Disney - MAD DASH - Shape (:06-:09)                                                                                150                                
PRCFAMCHA080401205947205957000010CC Disclaimer - SLOW - Family.ca (:09-:10)                                                                                  150                                
PGRFAMCHA080401205957212235002238Hannah Montana                                    EP: 16                                                               6068807BCC                              
PRCFAMCHA080401212235212241000006Astral ID (DEC 2007)                                                                                                        150                                
PRCFAMCHA080401212241212319000038Life W D (NS) Edwin Mystery Man - Coming Up Next (                                                                          150                                
PROFAMCHA080401212319212359000040xxJonas Brothers Ticket Blast - Available Now (Mar                                                                          150                                
PROFAMCHA080401212359212442000043Ned's DSSG (NS) Too Cool for School  - Tonight @ 1                                                                          150                                
PGRFAMCHA080401212442212538000056April Fools News Casts - Spaghetti Harvest                                                                            A10218120                                
PROFAMCHA080401212538212621000043Cory In The House (NS) Tonight @ 10:30pm (SEPT07)                                                                           150                                
PGRFAMCHA080401212621212752000131xxReally Short Report - Enchanted DVD (Till April                                                                     A60688120                                
PROFAMCHA080401212752212824000032Suite Life of Z & C (NS) Wonderful Hotel - Tonight                                                                          150                                
PROFAMCHA080401212824212856000032xxJonas Brothers CD Blast - Available Now (Feb 2 -                                                                          150                                
PRCFAMCHA080401212856212940000044xxGame Off Online Contest (2-3 x MD/NS/NSW) (March                                                                          150                                
PROFAMCHA080401212940212953000013SBO Bumpers - Noah Winnipeg (March 28 - April 2) $                                                                          150                                
PRCFAMCHA080401212953213002000009CC Disclaimer - FAST - Generic (:09-:10)                                                                                    150                                
PGRFAMCHA080401213002215232002230Life with Derek                                   EP: 15                                                        C26679A1055607BCC3                             
PROFAMCHA080401215232215315000043Ned's DSSG (NS) Too Cool for School  - Coming Up N                                                                          150                                
PRCFAMCHA080401215315215345000030Cineplex Latest Buzz Popcorn Parties Post-Launch 3                                                                          150                                
PROFAMCHA080401215345215445000100Cory In The House - Cory vs. Sophie (NS) Tonight @                                                                          150                                
PGRFAMCHA080401215445215531000046April Fools News Casts - Pocket Pets                                                                                  A10218120                                
PROFAMCHA080401215531215607000036Suite Life of Z & C GOLF (NS) - Tonight @ 11:00pm                                                                           150                                
PROFAMCHA080401215607215617000010FAMJAM - Open/Close                                                                                                         150                                
PGRFAMCHA080401215617215717000100MV Disney - (MD/NS/NSW) - Jesse McCartney - Just S                                                                     60288120                                
PROFAMCHA080401215717215731000014xxFAMJAM - Close (FAMILY) xxDNUxx                                                                                           150                                
PRCFAMCHA080401215731215821000050Latest Buzz - REPORTER QUIZ (NS) Friday Nights @ 6                                                                          150                                
PRCFAMCHA080401215821215901000040Magazine Spot (MD,NS,NSW) 2/3 day (not in PH) (til                                                                          150                                
PROFAMCHA080401215901215932000031Phineas & Ferb (NSW) Perry Character Sell - New Ep                                                                          150                                
PROFAMCHA080401215932215945000013SBO Bumpers - Rebecca Winnipeg (March 28 - April 2                                                                          150                                
PRCFAMCHA080401215945215955000010CC Disclaimer - SLOW - Family.ca (:09-:10)                                                                                  150                                
PGRFAMCHA080401215955222411002416Ned's Declassified School Survival Guide          EP: 24                                                               2068807BCC                              
PRCFAMCHA080401222411222417000006Astral ID (DEC 2007)                                                                                                        150                                
PRCFAMCHA080401222417222501000044xxGame Off Online Contest (2-3 x MD/NS/NSW) (March                                                                          150                                
PROFAMCHA080401222501222544000043Cory In The House (NS) Coming Up Next (SEPT07)                                                                              150                                
PGRFAMCHA080401222544222634000050April Fools News Casts - Under The Weather                                                                            A10218120                                
PROFAMCHA080401222634222706000032Suite Life of Z & C (NS) Wonderful Hotel - Tonight                                                                          150                                
PRCFAMCHA080401222706222836000130Movie Entertainment (8)                                                                                               B     150                                
PRCFAMCHA080401222836222932000056xxDC Games Set Visit Contest REVISION #1 (4-5 x MD                                                                          150                                
PROFAMCHA080401222932222945000013SBO Bumpers - Wilder Winnipeg (March 28 - April 2)                                                                          150                                
ID FAMCHA080401222945222951000006Magic of Disney - NS/NSW/PB - Wipe (:06-:09)                                                                                150                                
PRCFAMCHA080401222951222959000008CC Disclaimer - SLOW - Generic (:09 -:10)                                                                                   150                                
PGRFAMCHA080401222959225237002238Cory in the House                                 EP: 07                                                               6068607BCC                              
PRCFAMCHA080401225237225250000013NS - 11 - SUITE LIFE/LIFE WITH DEREK (:11 - :13) (                                                                          150                                
PROFAMCHA080401225250225326000036Suite Life of Z & C - NS - GOLF - Coming Up Next (                                                                          150                                
PGRFAMCHA080401225326225422000056April Fools News Casts - Bubble Gum                                                                                   A10618120                                
PRCFAMCHA080401225422225514000052Life With Derek (NS) Casey & Derek - Tonight @ 11:                                                                          150                                
PROFAMCHA080401225514225609000055Disney Behind The Curtain (MD, NS, NSW) 2 x Day  (                                                                          150                                
PROFAMCHA080401225609225646000037Naturally Sadie - TEENAGE (NS) Tonight @ 12:00 (MA                                                                          150                                
PROFAMCHA080401225646225656000010FAMJAM - Open/Close                                                                                                         150                                
PGRFAMCHA080401225656225826000130MV Disney - (MD/NS/NSW) - Jesse McCartney - Just S                                                                     60288120                                
PROFAMCHA080401225826225840000014xxFAMJAM - Close (FAMILY) xxDNUxx                                                                                           150                                
PRCFAMCHA080401225840225928000048Family Video Player Promo - No Tag 3/day (not in P                                                                          150                                
PROFAMCHA080401225928225941000013SBO Bumpers - Amanda Winnipeg (March 28 - April 2)                                                                          150                                
ID FAMCHA080401225941225949000008Magic of Disney - NS/NSW/PB - Shape (:06-:09)                                                                               150                                
PRCFAMCHA080401225949225959000010CC Disclaimer - SLOW - Family.ca (:09-:10)                                                                                  150                                
PGRFAMCHA080401225959232238002239Suite Life of Zack & Cody, The                    EP: 02                                                               6068607BCC                              
PRCFAMCHA080401232238232244000006Astral ID (DEC 2007)                                                                                                        150                                
PRCFAMCHA080401232244232256000012NS - 12 - LIFE WITH DEREK/SADIE (:11 - :13) (SEPT0                                                                          150                                
PRCFAMCHA080401232256232334000038Life W D (NS) Edwin Mystery Man - Coming Up Next (                                                                          150                                
PGRFAMCHA080401232334232420000046April Fools News Casts - Pocket Pets                                                                                  A10618120                                
PROFAMCHA080401232420232457000037Naturally Sadie - TEENAGE (NS) Tonight @ 12:30 (MA                                                                          150                                
PRCFAMCHA080401232457232712000215Movie Entertainment (8)                                                                                               B     150                                
PRCFAMCHA080401232712232802000050Latest Buzz - REPORTER QUIZ (NS) Friday Nights @ 6                                                                          150                                
PROFAMCHA080401232802232812000010FAMJAM - Open/Close                                                                                                         150                                
PGRFAMCHA080401232812232912000100MV Disney - (MD/NS/NSW) - Jesse McCartney - Just S                                                                     60288120                                
PROFAMCHA080401232912232926000014xxFAMJAM - Close (FAMILY) xxDNUxx                                                                                           150                                
PRCFAMCHA080401232926232937000011Naturally Sadie ID's - I'm Charlotte, you're watch                                                                          150                                
PROFAMCHA080401232937232950000013SBO Bumpers - Michael Winnipeg (March 28 - April 2                                                                          150                                
PRCFAMCHA080401232950232959000009CC Disclaimer - SLOW - Generic (:09 -:10)                                                                                   150                                
PGRFAMCHA080401232959235229002230Life with Derek                                   EP: 06                                                        C23968A1065607BCC                              
PRCFAMCHA080401235229235309000040Naturally Sadie - ROMANTIC (NS) Coming Up Next (MA                                                                          150                                
PGRFAMCHA080401235309235405000056April Fools News Casts - Spaghetti Harvest                                                                            A10618120                                
PRCFAMCHA080401235405235411000006xxFamily Bumpers - Reptile Pet - Cow (MD/NS/NSW)                                                                            150                                
PROFAMCHA080401235411235421000010FAMJAM - Open/Close                                                                                                         150                                
PGRFAMCHA080401235421235830000409MV Disney - (MD/NS/NSW) - Jesse McCartney - Just S                                                                     60688120                                
PROFAMCHA080401235830235844000014xxFAMJAM - Close (FAMILY) xxDNUxx                                                                                           150                                
PRCFAMCHA080401235844235934000050Latest Buzz - REPORTER QUIZ (NS) Friday Nights @ 6                                                                          150                                
PROFAMCHA080401235934235947000013SBO Bumpers - Noah Winnipeg (March 28 - April 2) $                                                                          150                                
PRCFAMCHA080401235947235957000010CC Disclaimer - SLOW - Family.ca (:09-:10)                                                                                  150                                
PGRFAMCHA080401235957002227002230Naturally, Sadie                                  EP: 09                                                        C24010 1065607ACC                              
PRCFAMCHA080401002227002233000006Astral ID (DEC 2007)                                                                                                        150                                
PRCFAMCHA080401002233002246000013NSW - 27 - SADIE/HANNAH (:11 - :13) (SEPT07)                                                                                150                                
PRCFAMCHA080401002246002342000056xxDC Games Set Visit Contest REVISION #1 (4-5 x MD                                                                          150                                
PRCFAMCHA080401002342002411000029Naturally Sadie - CLIP (NS) Coming Up Next (MARCH0                                                                          150                                
PRCFAMCHA080401002411002441000030Cineplex Latest Buzz Popcorn Parties Post-Launch 3                                                                          150                                
PRCFAMCHA080401002441002531000050Latest Buzz - REPORTER QUIZ (NS) Friday Nights @ 6                                                                          150                                
PGRFAMCHA080401002531002636000105April Fools News Casts - Sumo Curling                                                                                 A10618120                                
PROFAMCHA080401002636002706000030Phineas & Ferb (NSW) Phineas Character Sell - New                                                                           150                                
PRCFAMCHA080401002706002921000215Movie Entertainment (8)                                                                                               B     150                                
PRCFAMCHA080401002921002943000022Naturally Sadie ID's (NOV06) - Margaret - Sadie Ne                                                                          150                                
PROFAMCHA080401002943002956000013SBO Bumpers - Rebecca Winnipeg (March 28 - April 2                                                                          150                                
PRCFAMCHA080401002956003004000008CC Disclaimer - SLOW - Generic (:09 -:10)                                                                                   150                                
PGRFAMCHA080401003004005234002230Naturally, Sadie                                  EP: 01                                                        C24010 1065607ACC                              
PROFAMCHA080401005234005336000102Hannah Montana (NS) Mockumentry - Coming Up Next (                                                                          150                                
PGRFAMCHA080401005336005426000050April Fools News Casts - Under The Weather                                                                            A10618120                                
PROFAMCHA080401005426005457000031Phineas & Ferb (NSW) Perry Character Sell - New Ep                                                                          150                                
PROFAMCHA080401005457005552000055Disney Behind The Curtain (MD, NS, NSW) 2 x Day  (                                                                          150                                
PRCFAMCHA080401005552005558000006xxFamily Bumpers - Reptile Pet - Silly Horn (MD/NS                                                                          150                                
PROFAMCHA080401005558005608000010FAMJAM - Open/Close                                                                                                         150                                
PGRFAMCHA080401005608005921000313MV Disney - (MD/NS/NSW) - Jesse McCartney - Just S                                                                     60688120                                
PROFAMCHA080401005921005935000014xxFAMJAM - Close (FAMILY) xxDNUxx                                                                                           150                                
PROFAMCHA080401005935005949000014Hannah Montana IDs - (NS) Miley # 2 - Next                                                                                  150                                
PROFAMCHA080401005949010002000013SBO Bumpers - Wilder Winnipeg (March 28 - April 2)                                                                          150                                
ID FAMCHA080401010002010008000006Magic of Disney - NS/NSW/PB - Shape (:06-:09)                                                                               150                                
PRCFAMCHA080401010008010017000009CC Disclaimer - SLOW - Family.ca (:09-:10)                                                                                  150                                
PGRFAMCHA080401010017012255002238Hannah Montana                                    EP: 14                                                               6068807BCC                              
PRCFAMCHA080401012255012301000006Astral ID (DEC 2007)                                                                                                        150                                
PROFAMCHA080401012301012314000013SBO Bumpers - Amanda Winnipeg (March 28 - April 2)                                                                          150                                
ID FAMCHA080401012314012322000008Magic of Disney - NS/NSW/PB - Wipe (:06-:09)                                                                                150                                
PRCFAMCHA080401012322012330000008CC Disclaimer - SLOW - Generic (:09 -:10)                                                                                   150                                
PGRFAMCHA080401012330014608002238Cory in the House                                 EP: 03                                                               6068607BCC                              
PROFAMCHA080401014608014621000013SBO Bumpers - Michael Winnipeg (March 28 - April 2                                                                          150                                
ID FAMCHA080401014621014629000008Magic of Disney - NS/NSW/PB - Shape (:06-:09)                                                                               150                                
PRCFAMCHA080401014629014638000009CC Disclaimer - SLOW - Family.ca (:09-:10)                                                                                  150                                
PGRFAMCHA080401014638020911002233Smart Guy                                         EP: 1-031                                                            6068807BCC                              
PRCFAMCHA080401020911020917000006Astral ID (DEC 2007)                                                                                                        150                                
PRCFAMCHA080401020917020930000013NS - 18 - BOY MEETS WORLD/LIFE WITH DEREK (:11 - :                                                                          150                                
PROFAMCHA080401020930020943000013SBO Bumpers - Noah Winnipeg (March 28 - April 2) $                                                                          150                                
ID FAMCHA080401020943020951000008Magic of Disney - NS/NSW/PB - Wipe (:06-:09)                                                                                150                                
PRCFAMCHA080401020951021000000009CC Disclaimer - SLOW - Generic (:09 -:10)                                                                                   150                                
PGRFAMCHA080401021000023227002227Boy Meets World                                   EP: 1-066                                                           B6068807BCC                              
PRCFAMCHA080401023227023240000013NS - 19 - LIFE WITH DEREK/CORY IN THE HOUSE (:11 -                                                                          150                                
PROFAMCHA080401023240023253000013SBO Bumpers - Rebecca Winnipeg (March 28 - April 2                                                                          150                                
PRCFAMCHA080401023253023302000009CC Disclaimer - SLOW - Family.ca (:09-:10)                                                                                  150                                
PGRFAMCHA080401023302025532002230Life with Derek                                   EP: 16                                                        C26679A1065607BCC                              
PRCFAMCHA080401025532025538000006Astral ID (DEC 2007)                                                                                                        150                                
PRCFAMCHA080401025538025551000013NS - 20 -CORY IN THE HOUSE/RAVEN (:11 - :13) (SEPT                                                                          150                                
PROFAMCHA080401025551025604000013SBO Bumpers - Wilder Winnipeg (March 28 - April 2)                                                                          150                                
ID FAMCHA080401025604025612000008Magic of Disney - NS/NSW/PB - Wipe (:06-:09)                                                                                150                                
PRCFAMCHA080401025612025621000009CC Disclaimer - SLOW - Generic (:09 -:10)                                                                                   150                                
PGRFAMCHA080401025621031859002238Cory in the House                                 EP: 18                                                               6068607BCC                              
PRCFAMCHA080401031859031912000013NS - 21 - RAVEN/ SUITE LIFE (:11 - :13) (SEPT07)                                                                            150                                
PROFAMCHA080401031912031925000013SBO Bumpers - Amanda Winnipeg (March 28 - April 2)                                                                          150                                
ID FAMCHA080401031925031934000009Magic of Disney - NS/NSW/PB - Shape (:06-:09)                                                                               150                                
PRCFAMCHA080401031934031944000010CC Disclaimer - SLOW - Family.ca (:09-:10)                                                                                  150                                
PGRFAMCHA080401031944034224002240That's So Raven                                   EP: 085                                                              6068607BCC                              
PRCFAMCHA080401034224034230000006Astral ID (DEC 2007)                                                                                                        150                                
PRCFAMCHA080401034230034243000013NS - 22 - SUITE LIFE/LIFE WITH DEREK (:11 - :13) (                                                                          150                                
PROFAMCHA080401034243034256000013SBO Bumpers - Michael Winnipeg (March 28 - April 2                                                                          150                                
ID FAMCHA080401034256034305000009Magic of Disney - NS/NSW/PB - Wipe (:06-:09)                                                                                150                                
PRCFAMCHA080401034305034315000010CC Disclaimer - SLOW - Generic (:09 -:10)                                                                                   150                                
PGRFAMCHA080401034315040555002240Suite Life of Zack & Cody, The - featuring Jessie EP: 22                                                               6068607BCC                              
PRCFAMCHA080401040555040608000013NS - 23 - LIFE WITH DEREK (:11 - :13) (SEPT07)                                                                              150                                
PROFAMCHA080401040608040621000013SBO Bumpers - Noah Winnipeg (March 28 - April 2) $                                                                          150                                
PRCFAMCHA080401040621040631000010CC Disclaimer - SLOW - Family.ca (:09-:10)                                                                                  150                                
PGRFAMCHA080401040631042901002230Life with Derek                                   EP: 26                                                        C26679A1065607BCC                              
PRCFAMCHA080401042901042907000006Astral ID (DEC 2007)                                                                                                        150                                
PRCFAMCHA080401042907042923000016PH - 01 - KATIE/FRANNY/SOMETHING  (:14 - :16) (SEP                                                                          150                                
PRCFAMCHA080401042923042943000020Benjamin Bear - Snack (PHwknd) (APR06) - This Morn                                                                          150                                
ID FAMCHA080401042943042958000015PS Playhouse AM Block Open (:10-:15)                                                                                        150                                
OFFFAMCHA080401042958043000000002OFF AIR                                                                                                                                                        
SO FAMCHA080402043000043011000011Sign On (oct 1)                                                                                                                                                
PRCFAMCHA080402043011043020000009CC Disclaimer - FAST - Family.ca (:09-:10)                                                                                  150                                
PGRFAMCHA080402043020045656002636Katie And Orbie                                   EP: 3-034                                                     C12449A1065607ECC                              
PRCFAMCHA080402045656045702000006Astral ID (DEC 2007)                                                                                                        150                                
PRCFAMCHA080402045702045718000016PH - 02 - FRANNY/SOMETHING/HOZE (:14 - :16) (SEPT0                                                                          150                                
ID FAMCHA080402045718045731000013PS Playhouse AM Block Open (:10-:15)                                                                                        150                                
PRCFAMCHA080402045731045740000009CC Disclaimer - FAST - Generic (:09-:10)                                                                                    150                                
PGRFAMCHA080402045740052010002230Franny's Feet                                     EPS # 1-003                                                   C23970A1065607ECC                              
PRCFAMCHA080402052010052026000016PH - 03 - SOMETHING/HOZE/HENRY'S (:14 - :16) (SEPT                                                                          150                                
ID FAMCHA080402052026052039000013PS Playhouse AM Block Open (:10-:15)                                                                                        150                                
PRCFAMCHA080402052039052048000009CC Disclaimer - FAST - Family.ca (:09-:10)                                                                                  150                                
PGRFAMCHA080402052048054319002231Something Else                                    EP: 1-004                                                     B69258A1065607ECC                              
PRCFAMCHA080402054319054325000006Astral ID (DEC 2007)                                                                                                        150                                
PRCFAMCHA080402054325054341000016PH - 04 - HOZE/HENRY'S/KING (:14 - :16) (SEPT07)                                                                            150                                
ID FAMCHA080402054341054354000013PS Playhouse AM Block Open (:10-:15)                                                                                        150                                
PRCFAMCHA080402054354054403000009CC Disclaimer - FAST - Generic (:09-:10)                                                                                    150                                
PGRFAMCHA080402054403060641002238Hoze Houndz                                       EPS # 6-071                                                   C22818A1065607ECC                              
PRCFAMCHA080402060641060657000016PH - 05 - HENRY'S WORLD/KING (:14 - :16) (SEPT07)                                                                           150                                
ID FAMCHA080402060657060710000013PS Playhouse AM Block Open (:10-:15)                                                                                        150                                
PRCFAMCHA080402060710060719000009CC Disclaimer - FAST - Family.ca (:09-:10)                                                                                  150                                
PGRFAMCHA080402060719063122002403Henry's World                                     EP: 2-014                                                     B81045A1065607GCC                              
PRCFAMCHA080402063122063128000006Astral ID (DEC 2007)                                                                                                        150                                
PRCFAMCHA080402063128063144000016PH - 06 - KING (:14 - :16) (SEPT07)                                                                                         150                                
ID FAMCHA080402063144063157000013PS Playhouse AM Block Open (:10-:15)                                                                                        150                                
PRCFAMCHA080402063157063206000009CC Disclaimer - FAST - Generic (:09-:10)                                                                                    150                                
PGRFAMCHA080402063206065436002230King                                              EP: 010                                                       B75765 1065607ECC                              
PROFAMCHA080402065436065508000032xxJonas Brothers CD Blast - Available Now (Feb 2 -                                                                          150                                
PROFAMCHA080402065508065515000007MadMadMornings Bumper                                                                                                       150                                
PROFAMCHA080402065515065555000040xxJonas Brothers Ticket Blast - Available Now (Mar                                                                          150                                
PROFAMCHA080402065555065608000013SBO Bumpers - Amanda Winnipeg (March 28 - April 2)                                                                          150                                
PRCFAMCHA080402065608065617000009CC Disclaimer - FAST - Family.ca (:09-:10)                                                                                  150                                
PGRFAMCHA080402065617071907002250Disney's Kim Possible                             EP: 1-011                                                           A6068607ECC                              
PRCFAMCHA080402071907071913000006Astral ID (DEC 2007)                                                                                                        150                                
PRCFAMCHA080402071913072001000048Family Video Player Promo - No Tag 3/day (not in P                                                                          150                                
PROFAMCHA080402072001072026000025Recess - CAREER DAY (MMM) - (JULY06) - Coming Up N                                                                          150                                
PROFAMCHA080402072026072100000034xxFamJam CD - Available Now (March 4 - June 25) $$                                                                          150                                
PROFAMCHA080402072100072136000036Weekenders - PIZZA (MMM) - (APR06) - This Morning                                                                           150                                
PGRFAMCHA080402072136072236000100Go Go Gametime (MMM/MD) Arstocats #2 (Till April 1                                                                    A60688120                                
PROFAMCHA080402072236072307000031American Dragon Jake Long (MD) (APR07) HERO This A                                                                          150                                
PROFAMCHA080402072307072338000031xxBarbie Pass Kick it into High Gear Contest REVIS                                                                          150                                
PRCFAMCHA080402072338072347000009Naturally Sadie ID's - You're watching Family...NA                                                                          150                                
PROFAMCHA080402072347072400000013SBO Bumpers - Michael Winnipeg (March 28 - April 2                                                                          150                                
PRCFAMCHA080402072400072410000010CC Disclaimer - FAST - Generic (:09-:10)                                                                                    150                                
PGRFAMCHA080402072410074645002235Disney's Recess                                   EP: 1-056                                                            6068607ECC                              
PROFAMCHA080402074645074721000036Weekenders - PIZZA (MMM) - (APR06) - Coming Up Nex                                                                          150                                
PROFAMCHA080402074721074801000040xxJonas Brothers Ticket Blast - Available Now (Mar                                                                          150                                
PRCFAMCHA080402074801074807000006xxFamily Bumpers - (Phase 2 F/W 04) - Gymnastics (                                                                          150                                
PGRFAMCHA080402074807074907000100Go Go Gametime (MMM/MD) Snow Buddies #2 (Till Apri                                                                    A60688120                                
PROFAMCHA080402074907074922000015Kim Possible BOYFRIEND (MD) This Afternoons @ 3pm                                                                           150                                
PRCFAMCHA080402074922075002000040Magazine Spot (MD,NS,NSW) 2/3 day (not in PH) (til                                                                          150                                
PRCFAMCHA080402075002075046000044xxGame Off Online Contest (2-3 x MD/NS/NSW) (March                                                                          150                                
PROFAMCHA080402075046075059000013SBO Bumpers - Noah Winnipeg (March 28 - April 2) $                                                                          150                                
PRCFAMCHA080402075059075109000010CC Disclaimer - FAST - Family.ca (:09-:10)                                                                                  150                                
PGRFAMCHA080402075109081355002246Disney's The Weekenders                           EP: 1-033                                                           A6068607ECC                              
PRCFAMCHA080402081355081401000006Astral ID (DEC 2007)                                                                                                        150                                
PRCFAMCHA080402081401081457000056xxDC Games Set Visit Contest REVISION #1 (4-5 x MD                                                                          150                                
PRCFAMCHA080402081457081527000030Cineplex Latest Buzz Popcorn Parties Post-Launch 3                                                                          150                                
PROFAMCHA080402081527081601000034Recess - HEROES (MD) - (APR06) - This Morning @ 11                                                                          150                                
PROFAMCHA080402081601081619000018Emperor's New School  MD - Butt In Urn - This Afte                                                                          150                                
PGRFAMCHA080402081619081719000100Go Go Gametime (MMM/MD) 101 Dalmatians (Till April                                                                    A60688120                                
PROFAMCHA080402081719081749000030Replacements BABYSITTER (MD) This Afternoon @ 3:25                                                                          150                                
PROFAMCHA080402081749081802000013SBO Bumpers - Rebecca Winnipeg (March 28 - April 2                                                                          150                                
PRCFAMCHA080402081802081812000010CC Disclaimer - FAST - Generic (:09-:10)                                                                                    150                                
PGRFAMCHA080402081812084106002254Disney's Lloyd In Space                           EP: 01                                                               6068607ECC                              
PRCFAMCHA080402084106084122000016PH - 07 - EINSTEINS/FRANNY'S/TIGGER & POOH (:14 -                                                                           150                                
PROFAMCHA080402084122084152000030Little Einstein (PH) (PRESCHOOL) - Coming Up Next                                                                           150                                
PGRFAMCHA080402084152084317000125Pixie Previews - (MMM, PH) Fawn & Butterfly                                                                           A60688120                                
PRCFAMCHA080402084317084348000031King (PH) (APR06) - This Morning @ 11:25am                                                                                  150                                
PROFAMCHA080402084348084403000015Bunnytown - BUNNIES ARE COMING (PH) Premiering Fri                                                                          150                                
PROFAMCHA080402084403084448000045xxPHD Promo - Little Einstein's Musical Missions S                                                                          150                                
ID FAMCHA080402084448084500000012PS Playhouse AM Block Open (:10-:15)                                                                                        150                                
PRCFAMCHA080402084500084509000009CC Disclaimer - FAST - Family.ca (:09-:10)                                                                                  150                                
PGRFAMCHA080402084509090914002405Disney's Little Einsteins                         EP: 01                                                               6068607ECC                              
PRCFAMCHA080402090914090920000006Astral ID (DEC 2007)                                                                                                        150                                
PRCFAMCHA080402090920090934000014PH - 08 - FRANNY'S/TIGGER & POOH/ CLUB HOUSE (:14                                                                           150                                
PRCFAMCHA080402090934090949000015Franny's Feet - Bowleriffic (PH-) - (APR06) - Comi                                                                          150                                
PGRFAMCHA080402090949091019000030Fun Facts (PH) Little Einsteins - Rainforest (Till                                                                    A60688120                                
PRCFAMCHA080402091019091049000030xxPost Launch PHD- Kid Sell (PH Only) Post Launch                                                                           150                                
ID FAMCHA080402091049091100000011PS Playhouse AM Block Open (:10-:15)                                                                                        150                                
PRCFAMCHA080402091100091109000009CC Disclaimer - FAST - Generic (:09-:10)                                                                                    150                                
PGRFAMCHA080402091109093339002230Franny's Feet                                     EPS # 1-011                                                   C23970A1065607ECC                              
PRCFAMCHA080402093339093354000015PH - 09 - TIGGER & POOH/ CLUB HOUSE/HANDY (:14 - :                                                                          150                                
PROFAMCHA080402093354093444000050Tigger & Pooh WHAT'S NEW (PH) Coming Up Next (SEPT                                                                          150                                
PGRFAMCHA080402093444093544000100Go Go Gametime (PH) Johnny and the Sprites (Till A                                                                    A60688120                                
PROFAMCHA080402093544093614000030Mickey Mouse Clubhouse GENERIC - This Morning @ 10                                                                          150                                
PROFAMCHA080402093614093645000031PH-D Promo - Web Sell on Family -  24/7 Ooh & Aah                                                                           150                                
ID FAMCHA080402093645093700000015PS Playhouse AM Block Open (:10-:15)                                                                                        150                                
PRCFAMCHA080402093700093708000008CC Disclaimer - FAST - Family.ca (:09-:10)                                                                                  150                                
PGRFAMCHA080402093708100116002408Disney My Friends Tigger and Pooh                 EP: 02                                                               6068607ECC                              
PRCFAMCHA080402100116100122000006Astral ID (DEC 2007)                                                                                                        150                                
PRCFAMCHA080402100122100138000016PH - 12 - CLUB HOUSE/HANDY/BENJAMIN BEAR (:14 - :1                                                                          150                                
PROFAMCHA080402100138100208000030Mickey Mouse Clubhouse GENERIC - Coming Up Next                                                                             150                                
PROFAMCHA080402100208100304000056xxHandy Mandy TOOLS (PH) This Morning @ 10:30am (S                                                                          150                                
PROFAMCHA080402100304100319000015Bunnytown - BUNNIES ARE COMING (PH) Premiering Fri                                                                          150                                
PRCFAMCHA080402100319100344000025xxPost Launch PHD- Parent Sell (PH, NS, ) Post Lau                                                                          150                                
ID FAMCHA080402100344100359000015PS Playhouse AM Block Open (:10-:15)                                                                                        150                                
ID FAMCHA080402100359100407000008Magic of Disney - PLAYHOUSE - Shape (:06-:09)                                                                               150                                
PRCFAMCHA080402100407100417000010CC Disclaimer - FAST - Generic (:09-:10)                                                                                    150                                
PGRFAMCHA080402100417102822002405Disney's Mickey Mouse Clubhouse                   EP: 23                                                               6068607ECC                              
PRCFAMCHA080402102822102836000014PH - 15 - HANDY/BENJAMIN BEAR/KING (:14 - :16) (SE                                                                          150                                
PROFAMCHA080402102836102932000056xxHandy Mandy TOOLS (PH) Coming Up Next (SEPT07)                                                                            150                                
PGRFAMCHA080402102932103002000030Fun Facts (PH) Handy Manny - Cats (Till April 13)                                                                     A60688120                                
PROFAMCHA080402103002103047000045xxPHD Promo - Little Einstein's Musical Missions S                                                                          150                                
ID FAMCHA080402103047103100000013PS Playhouse AM Block Open (:10-:15)                                                                                        150                                
ID FAMCHA080402103100103108000008Magic of Disney - PLAYHOUSE - Wipe (:06-:09)                                                                                150                                
PRCFAMCHA080402103108103117000009CC Disclaimer - FAST - Family.ca (:09-:10)                                                                                  150                                
PGRFAMCHA080402103117105522002405Handy Manny                                       EP: 15                                                               6068607ECC                              
PRCFAMCHA080402105522105528000006Astral ID (DEC 2007)                                                                                                        150                                
PRCFAMCHA080402105528105544000016PH - 18 - BENJAMIN BEAR/KING/RECESS (:14 - :16) (S                                                                          150                                
