SO FAMCHA130401043000043011000011Sign On (oct 1)                                                                                                                                                
PGRFAMCHA130401043011045417002406Henry's World                                     EPS # 2-024                                                   B81055 1065607ECC                              
ID FAMCHA130401045417045423000006Astral ID (HD) (Jan2011)                                                                                                    150                                
PROFAMCHA130401045423045430000007D-JR Live Action ID - Franny's Feet - Coming Up (M                                                                          150                                
PROFAMCHA130401045430045455000025D-JR Live Action ID - #20 Calendar (May2012)                                                                                150                                
PROFAMCHA130401045455045520000025D-JR Promo - JATNP - Get more on the channel REV (                                                                          150                                
PROFAMCHA130401045520045545000025D-JR Live Action ID - #48 Help Feed Sibling (Sept2                                                                          150                                
PROFAMCHA130401045545045552000007D-JR Live Action ID - Franny's Feet - Now (May2012                                                                          150                                
PROFAMCHA130401045552045558000006D-JR - Bumper 1 (May2011)                                                                                                   150                                
PGRFAMCHA130401045558051829002231Franny's Feet                                     EP: 51                                                        C31292 1065607ECC                              
PROFAMCHA130401051829051836000007D-JR Live Action ID - SWOBB - Coming Up (May2012)                                                                           150                                
PROFAMCHA130401051836051901000025D-JR Live Action ID - #45 Sorting Socks (May2012)                                                                           150                                
PROFAMCHA130401051901051936000035D-JR Promo - Bananas in Pajamas - Clip 1 - Get mor                                                                          150                                
PROFAMCHA130401051936052006000030D-JR Promo - MMCH - Get more MMCH on D-JR the chan                                                                          150                                
PROFAMCHA130401052006052036000030D-JR Promo - On demand online REVISED - D-JR.ca (M                                                                          150                                
PROFAMCHA130401052036052101000025D-JR Live Action ID - #65 Putting Toys Away (Sept2                                                                          150                                
PROFAMCHA130401052101052108000007D-JR Live Action ID - SWOBB - Now (May2012)                                                                                 150                                
PROFAMCHA130401052108052116000008D-JR - Flex ID - Yellow (:6-:10) (Feb2012)                                                                                  150                                
PGRFAMCHA130401052116054347002231The Secret World of Benjamin Bear                 EP: 27                                                        C27272 1065607ECC                              
ID FAMCHA130401054347054352000005Astral ID (HD) (Jan2011)                                                                                                    150                                
PROFAMCHA130401054352054359000007D-JR Live Action ID - Harry & His Dinosaurs - Comi                                                                          150                                
PROFAMCHA130401054359054424000025D-JR Live Action ID - #42 Brush Teeth (May2012)                                                                             150                                
PROFAMCHA130401054424054431000007D-JR - Station ID (:07) (May2011)                                                                                           150                                
PROFAMCHA130401054431054456000025D-JR Live Action ID - #92 Getting Ready to Go Outs                                                                          150                                
PROFAMCHA130401054456054503000007D-JR Live Action ID - Harry & His Dinosaurs - Now                                                                           150                                
PGRFAMCHA130401054503060639002136Harry and His Bucket Full of Dinosaurs            EP: 18                                                        B05037 1065607ECC                              
PROFAMCHA130401060639060647000008D-JR Live Action ID - Stella & Sam - Coming Up (Ma                                                                          150                                
PROFAMCHA130401060647060712000025D-JR Live Action ID - #13 Make Bed (May2012)                                                                                150                                
PROFAMCHA130401060712060754000042D-JR Promo - Bananas in Pajamas - Weekdays @ 10am                                                                           150                                
PROFAMCHA130401060754060829000035D-JR Promo - Handy Manny - Get more on the channel                                                                          150                                
PROFAMCHA130401060829060859000030D-JR Promo - Little Einsteins - Get more on D-JR t                                                                          150                                
PROFAMCHA130401060859060919000020D-JR Promo - Sofia The First: Clip 1 - Get More We                                                                          150                                
PROFAMCHA130401060919060944000025D-JR Live Action ID - #47 Making Breakfast (May201                                                                          150                                
PROFAMCHA130401060944060952000008D-JR Live Action ID - Stella & Sam - Now (Mar2013)                                                                          150                                
PROFAMCHA130401060952061000000008D-JR - Flex ID - Blue (:6-:10) (Feb2012)                                                                                    150                                
PGRFAMCHA130401061000063315002315Stella and Sam                                    EP: 08                                                        C32553 1065607ECD                              
ID FAMCHA130401063315063321000006Astral ID (HD) (Jan2011)                                                                                                    150                                
PROFAMCHA130401063321063402000041Web Next Step Online Mashup (HD) On family.ca (Mar                                                                          150                                
PROFAMCHA130401063402063408000006Hannah (HD) ID - Jason Earles 2 - "Coming Up Next"                                                                          150                                
PRCFAMCHA130401063408063438000030Phineas & Ferb Episodic (HD) 401 - New Episode Fri                                                                          150                                
PRCFAMCHA130401063438063453000015Family Bumper Flex (HD) Flex ID - Music ID (:14-:1                                                                          150                                
PGRFAMCHA130401063453065732002239Hannah Montana                                    EP: 20                                                               6068807BCC                              
PROFAMCHA130401065732065758000026xDog With A Blog @ family.ca (HD) Play Games at fa                                                                          150                                
PROFAMCHA130401065758065858000100Visit Orlando                                                                                                               150                                
PROFAMCHA130401065858065914000016xShake It Up (HD) Refresh CD - Coming Up Next (Sep                                                                          150                                
PROFAMCHA130401065914065944000030Freaky Freakend Promo (HD) Friday April 12 Startin                                                                          150                                
PRCFAMCHA130401065944065957000013Family Bumper (HD) - Karate ID (Jan 2011)                                                                                   150                                
PGRFAMCHA130401065957072346002349Disney Shake It Up                                EP: 25                                                               6068707BCC                              
ID FAMCHA130401072346072352000006Astral ID (HD) (Jan2011)                                                                                                    150                                
PROFAMCHA130401072352072434000042Bella & Zendaya Day-A Stunt (HD) This Morning Star                                                                          150                                
PROFAMCHA130401072434072449000015xANT Farm (HD) Refresh CT - Coming Up Next (Mar201                                                                          150                                
PRCFAMCHA130401072449072459000010Family Bumper (HD) - Amoeba ID (Jan 2011)                                                                                   150                                
PGRFAMCHA130401072459074815002316Disney A.N.T. Farm                                EP: 02                                                               6068607BCC                              
ID FAMCHA130401074815074820000005Astral ID (HD) (Jan2011)                                                                                                    150                                
PROFAMCHA130401074820074852000032Beverly Hills Chihuahua 3 (HD) Premieres Friday Ni                                                                          150                                
PROFAMCHA130401074852074932000040Parmalat                                                                                                                    150                                
PROFAMCHA130401074932075014000042xDog With A Blog (HD) Comedy Sell - Tonight @ 8:30                                                                          150                                
PROFAMCHA130401075014075044000030xJessie (HD) Happy Place - Coming Up Next (May2012                                                                          150                                
PRCFAMCHA130401075044075057000013Family Flex Next (HD) Jessie - Jessie  (:12-:14) (                                                                          150                                
PGRFAMCHA130401075057081330002233Disney Jessie                                     EP: 26                                                               6068807BCC                              
ID FAMCHA130401081330081336000006Astral ID (HD) (Jan2011)                                                                                                    150                                
PRCFAMCHA130401081336081358000022Game Change Friday March Promo (HD) Family.ca (Mar                                                                          150                                
PROFAMCHA130401081358081431000033xAustin & Ally (HD) Music Lesson - Tomorrow Aftern                                                                          150                                
PGRFAMCHA130401081431081601000130Synergy DMS (HD) Oz the Great & Powerful - In Thea                                                                     60688120                                
PROFAMCHA130401081601081616000015PSA CMF (HD) Canada on Screen (Nov2012) (3x per da                                                                          150                                
PROFAMCHA130401081616081646000030Wingin It (HD) Bennet High Clip - Monday-Wednesday                                                                          150                                
PROFAMCHA130401081646081659000013xWOWP (HD) Alex S3 GENERIC - Coming Up Next (Jan20                                                                          150                                
PROFAMCHA130401081659081741000042Bella & Zendaya Day-A Stunt (HD) This Morning Star                                                                          150                                
PRCFAMCHA130401081741081757000016Family Bumper Flex (HD) Flex ID - Music ID (:14-:1                                                                          150                                
PGRFAMCHA130401081757084031002234Disney Wizards of Waverly Place                   EP: 15                                                               6068607BCC                              
ID FAMCHA130401084031084037000006Astral ID (HD) (Jan2011)                                                                                                    150                                
PROFAMCHA130401084037084118000041Web Next Step Online Mashup (HD) On family.ca (Mar                                                                          150                                
PROFAMCHA130401084118084148000030xFrenemies (HD) Trailer CD Retag - Tonight @ 7:00                                                                           150                                
PROFAMCHA130401084148084211000023xWOWP (HD) Harper - Tomorrow @ Noon (Jan2011)                                                                               150                                
PROFAMCHA130401084211084238000027xGood Luck Charlie (HD) Promo 3 - Tomorrow Night @                                                                          150                                
PROFAMCHA130401084238084338000100xGravity Falls (HD) Twin Sell - Wednesday Night @                                                                           150                                
PRCFAMCHA130401084338084408000030Phineas & Ferb Episodic (HD) 401 - New Episode Fri                                                                          150                                
PROFAMCHA130401084408084450000042Bella & Zendaya Day-A Stunt (HD) Starting Next (Ap                                                                          150                                
PRCFAMCHA130401084450084503000013Family Bumper (HD) - Karate ID (Jan 2011)                                                                                   150                                
PGRFAMCHA130401084503090835002332Disney Shake It Up                                EP: 01                                                               6068707BCC                              
ID FAMCHA130401090835090841000006Astral ID (HD) (Jan2011)                                                                                                    150                                
PROFAMCHA130401090841090911000030Freaky Freakend Promo (HD) Friday April 12 Startin                                                                          150                                
PROFAMCHA130401090911090941000030xShake It Up (HD) Cee Cee Sell - Coming Up Next (J                                                                          150                                
PRCFAMCHA130401090941091026000045ANT Farm Episodic (HD) 203 REPLAY - Friday Afterno                                                                          150                                
PRCFAMCHA130401091026091055000029Family Bumper Flex (HD) Flex ID - Austin & Ally (F                                                                          150                                
PGRFAMCHA130401091055093528002433Disney Shake It Up                                EP: 13                                                               6068707BCC                              
ID FAMCHA130401093528093534000006Astral ID (HD) (Jan2011)                                                                                                    150                                
PROFAMCHA130401093534093604000030Wingin It (HD) Bennet High Clip - Monday-Wednesday                                                                          150                                
PROFAMCHA130401093604093646000042Bella & Zendaya Day-A Stunt (HD) Continues Next (A                                                                          150                                
PRCFAMCHA130401093646093656000010Family Bumper Flex (HD) Flex ID - Wingin It (Apr20                                                                          150                                
PGRFAMCHA130401093656095929002233Disney Shake It Up                                EP: 19                                                               6068707BCC                              
ID FAMCHA130401095929095935000006Astral ID (HD) (Jan2011)                                                                                                    150                                
PROFAMCHA130401095935100007000032Beverly Hills Chihuahua 3 (HD) Premieres Friday Ni                                                                          150                                
PROFAMCHA130401100007100037000030xSo Random (HD) Musical Guest Refresh - Tomorrow A                                                                          150                                
PGRFAMCHA130401100037100316000239R5 Experience (HD) Spot 2 V2 (air Feb 20 post 8p t                                                                     10618120                                
PROFAMCHA130401100316100332000016xShake It Up (HD) Refresh CD - Coming Up Next (Sep                                                                          150                                
PRCFAMCHA130401100332100347000015Family Bumper Flex (HD) Flex ID - Music ID (:14-:1                                                                          150                                
PGRFAMCHA130401100347102707002320Disney Shake It Up                                EP: 10                                                               6068707BCC                              
ID FAMCHA130401102707102713000006Astral ID (HD) (Jan2011)                                                                                                    150                                
PRCFAMCHA130401102713102758000045ANT Farm Episodic (HD) 203 REPLAY - Friday Afterno                                                                          150                                
PRCFAMCHA130401102758102828000030Wizards Return: Alex vs Alex (HD) CD - Sunday @ No                                                                          150                                
PROFAMCHA130401102828102846000018xGood Luck Charlie (HD) Promo 2 - Weekend Mornings                                                                          150                                
PROFAMCHA130401102846102928000042Bella & Zendaya Day-A Stunt (HD) Continues Next (A                                                                          150                                
PRCFAMCHA130401102928102948000020Family Bumper (HD) - Wallpaper ID (Jan 2011)                                                                                150                                
PGRFAMCHA130401102948105221002233Disney Shake It Up                                EP: 04                                                               6068707BCC                              
ID FAMCHA130401105221105227000006Astral ID (HD) (Jan2011)                                                                                                    150                                
PROFAMCHA130401105227105308000041Web Next Step Online Mashup (HD) On family.ca (Mar                                                                          150                                
PROFAMCHA130401105308105408000100Visit Orlando                                                                                                               150                                
PROFAMCHA130401105408105438000030xFrenemies (HD) Trailer CD Retag - Tonight @ 7:00                                                                           150                                
PROFAMCHA130401105438105505000027xDog With A Blog (HD) Kid Sell - Tonight @ 8:30 (N                                                                          150                                
PROFAMCHA130401105505105538000033xAustin & Ally (HD) Music Lesson - Tomorrow Aftern                                                                          150                                
PRCFAMCHA130401105538105608000030Phineas & Ferb Episodic (HD) 401 - New Episode Fri                                                                          150                                
PGRFAMCHA130401105608105737000129xMV Disney (HD) Bella & Zendaya - Contagious Love                                                                      60685120CC                              
PROFAMCHA130401105737105807000030xShake It Up (HD) Cee Cee Sell - Coming Up Next (J                                                                          150                                
PROFAMCHA130401105807105857000050Nintendo                                                                                                                    150                                
PROFAMCHA130401105857105927000030Freaky Freakend Promo (HD) Friday April 12 Startin                                                                          150                                
PRCFAMCHA130401105927105945000018Family Bumper Flex (HD) Flex ID - ANT Farm (:16-:2                                                                          150                                
PGRFAMCHA130401105945112321002336Disney Shake It Up                                EP: 05                                                               6068707BCC                              
ID FAMCHA130401112321112327000006Astral ID (HD) (Jan2011)                                                                                                    150                                
PRCFAMCHA130401112327112412000045ANT Farm Episodic (HD) 203 REPLAY - Friday Afterno                                                                          150                                
PROFAMCHA130401112412112502000050Nintendo                                                                                                                    150                                
PROFAMCHA130401112502112532000030xReally Me (HD) S2 Promo - Tuesday Night @ 8:30 (N                                                                          150                                
PROFAMCHA130401112532112613000041xAustin & Ally (HD) Music Sell - Wednesday Night @                                                                          150                                
PROFAMCHA130401112613112643000030xGravity Falls (HD) Retag - Wednesday Night @ 8:30                                                                          150                                
PROFAMCHA130401112643112727000044xPhineas & Ferb (HD) Lines - Weekend Afternoons @                                                                           150                                
PROFAMCHA130401112727112759000032D-JR Promo - Stella and Sam - Get more on the chan                                                                          150                                
PROFAMCHA130401112759112841000042Bella & Zendaya Day-A Stunt (HD) Continues Next (A                                                                          150                                
PROFAMCHA130401112841112937000056Finn on the Fly (HD) Premieres Friday April 12 @ 8                                                                          150                                
PRCFAMCHA130401112937112950000013Family Bumper (HD) - Drums ID (Jan 2011)                                                                                    150                                
PGRFAMCHA130401112950115222002232Disney Shake It Up                                EP: 20                                                               6068707BCC                              
ID FAMCHA130401115222115228000006Astral ID (HD) (Jan2011)                                                                                                    150                                
PROFAMCHA130401115228115254000026xDog With A Blog @ family.ca (HD) Play Games at fa                                                                          150                                
PROFAMCHA130401115254115334000040Parmalat                                                                                                                    150                                
PROFAMCHA130401115334115349000015xANT Farm (HD) Ole McDonald Retag - Tomorrow Night                                                                          150                                
PGRFAMCHA130401115349115519000130Synergy DMS (HD) Oz the Great & Powerful - In Thea                                                                     60688120                                
PROFAMCHA130401115519115537000018xGood Luck Charlie (HD) Promo 2 - Friday Night @ 5                                                                          150                                
PGRFAMCHA130401115537115845000308MV Non Disney (HD) Victoria Duffield ft Cody-They                                                                      10615120CC                              
PROFAMCHA130401115845115901000016xShake It Up (HD) Refresh CD - Coming Up Next (Sep                                                                          150                                
PROFAMCHA130401115901115933000032Beverly Hills Chihuahua 3 (HD) Premieres Friday Ni                                                                          150                                
PRCFAMCHA130401115933115949000016Family Bumper Flex (HD) Flex ID - Music ID (:14-:1                                                                          150                                
PGRFAMCHA130401115949122321002332Disney Shake It Up                                EP: 24                                                               6068707BCC                              
ID FAMCHA130401122321122327000006Astral ID (HD) (Jan2011)                                                                                                    150                                
PROFAMCHA130401122327122357000030Wingin It (HD) Bennet High Clip - Monday-Wednesday                                                                          150                                
PROFAMCHA130401122357122457000100Visit Orlando                                                                                                               150                                
PROFAMCHA130401122457122527000030xFrenemies (HD) Trailer CD Retag - Tonight @ 7:00                                                                           150                                
PROFAMCHA130401122527122540000013xWOWP (HD) Alex S3 GENERIC - Tomorrow @ Noon (Jan2                                                                          150                                
PGRFAMCHA130401122540122718000138MV Disney (HD) Bella & Zendaya - This is My Dance                                                                      60685120                                
PRCFAMCHA130401122718122740000022Game Change Friday March Promo (HD) Family.ca (Mar                                                                          150                                
PROFAMCHA130401122740122810000030D-JR Promo - MMCH - Get more MMCH on D-JR the chan                                                                          150                                
PROFAMCHA130401122810122852000042Bella & Zendaya Day-A Stunt (HD) Continues Next (A                                                                          150                                
PRCFAMCHA130401122852122937000045ANT Farm Episodic (HD) 203 REPLAY - Friday Afterno                                                                          150                                
PRCFAMCHA130401122937122951000014Family Bumper Flex (HD) Flex ID - Really Me (Apr20                                                                          150                                
PGRFAMCHA130401122951125223002232Disney Shake It Up                                EP: 21                                                               6068707BCC                              
ID FAMCHA130401125223125229000006Astral ID (HD) (Jan2011)                                                                                                    150                                
PROFAMCHA130401125229125310000041Web Next Step Online Mashup (HD) On family.ca (Mar                                                                          150                                
PROFAMCHA130401125310125400000050Nintendo                                                                                                                    150                                
PROFAMCHA130401125400125417000017xPhineas & Ferb (HD) Disney Refresh CD - Tomorrow                                                                           150                                
PGRFAMCHA130401125417125738000321R5 Experience (HD) Spot 1 V3 (Generic) (Feb18-Apr1                                                                     70685120                                
PROFAMCHA130401125738125805000027xGood Luck Charlie (HD) Promo 3 - Tomorrow Night @                                                                          150                                
PROFAMCHA130401125805125835000030xANT Farm (HD) Disney Refresh - Weekend Mornings @                                                                          150                                
PROFAMCHA130401125835125905000030xShake It Up (HD) Cee Cee Sell - Coming Up Next (J                                                                          150                                
PRCFAMCHA130401125905125935000030Wizards Return: Alex vs Alex (HD) CD - Sunday @ No                                                                          150                                
PRCFAMCHA130401125935125952000017Family Bumper Flex (HD) Flex ID - Jessie ID (:15-:                                                                          150                                
PGRFAMCHA130401125952132212002220Disney Shake It Up                                EP: 27                                                               6068707BCC                              
ID FAMCHA130401132212132218000006Astral ID (HD) (Jan2011)                                                                                                    150                                
PROFAMCHA130401132218132248000030Freaky Freakend Promo (HD) Friday April 12 Startin                                                                          150                                
PROFAMCHA130401132248132318000030xFrenemies (HD) Trailer CD Retag - Tonight @ 7:00                                                                           150                                
PGRFAMCHA130401132318132710000352MV Non Disney (HD) Hunter Hayes - Wanted (Dec9-Jun                                                                     10615120CC                              
PRCFAMCHA130401132710132740000030Phineas & Ferb Episodic (HD) 401 - New Episode Fri                                                                          150                                
PROFAMCHA130401132740132852000112D-JR Promo - Sofia The First: BTS - Get More on D-                                                                          150                                
PROFAMCHA130401132852132934000042Bella & Zendaya Day-A Stunt (HD) Continues Next (A                                                                          150                                
PRCFAMCHA130401132934132952000018Family Bumper (HD) - Dominoes ID (Jan 2011)                                                                                 150                                
PGRFAMCHA130401132952135357002405Disney Shake It Up                                EP: 10                                                               6068707BCC                              
ID FAMCHA130401135357135402000005Astral ID (HD) (Jan2011)                                                                                                    150                                
PRCFAMCHA130401135402135432000030xFOD 2012 Refresh (HD) Family.ca New Look (Apr2012                                                                          150                                
PROFAMCHA130401135432135512000040Parmalat                                                                                                                    150                                
PROFAMCHA130401135512135531000019xWOWP (HD) Clip Bad Time - Tomorrow Afternoon @ 3:                                                                          150                                
PROFAMCHA130401135531135546000015xJessie (HD) Refresh CD - Tomorrow Night @ 5:00 (F                                                                          150                                
PRCFAMCHA130401135546135612000026Next Step Dancing Is (HD) James - Friday Night @ 7                                                                          150                                
PGRFAMCHA130401135612135741000129xMV Disney (HD) Bella & Zendaya - Contagious Love                                                                      60685120CC                              
PROFAMCHA130401135741135837000056Finn on the Fly (HD) Premieres Friday April 12 @ 8                                                                          150                                
PROFAMCHA130401135837135853000016xShake It Up (HD) Refresh CD - Coming Up Next (Sep                                                                          150                                
PRCFAMCHA130401135853135938000045ANT Farm Episodic (HD) 203 REPLAY - Friday Afterno                                                                          150                                
PRCFAMCHA130401135938135952000014Family Bumper (HD) - Horseshoe ID (Jan 2011)                                                                                150                                
PGRFAMCHA130401135952142125002133Disney Shake It Up                                EP: 14                                                               6068707BCC                              
ID FAMCHA130401142125142130000005Astral ID (HD) (Jan2011)                                                                                                    150                                
PROFAMCHA130401142130142202000032Beverly Hills Chihuahua 3 (HD) Premieres Friday Ni                                                                          150                                
PROFAMCHA130401142202142243000041xAustin & Ally (HD) Music Sell - Wednesday Night @                                                                          150                                
PGRFAMCHA130401142243142644000401MV Non Disney (HD) Taylor Matthews - Head Over Fee                                                                     10615120CC                              
PRCFAMCHA130401142644142736000052xNext Step (HD) A Troup Promo - Friday Night @ 7:0                                                                          150                                
PROFAMCHA130401142736142806000030Wingin It (HD) Bennet High Clip - Monday-Wednesday                                                                          150                                
PROFAMCHA130401142806142858000052D-JR Promo - Doc McStuffins - Get more on the chan                                                                          150                                
PROFAMCHA130401142858142940000042Bella & Zendaya Day-A Stunt (HD) Continues Next (A                                                                          150                                
PRCFAMCHA130401142940142956000016Family Bumper Flex (HD) Flex ID - Music ID (:14-:1                                                                          150                                
PGRFAMCHA130401142956145259002303Disney Shake It Up                                EP: 16                                                               6068707BCC                              
ID FAMCHA130401145259145304000005Astral ID (HD) (Jan2011)                                                                                                    150                                
PRCFAMCHA130401145304145349000045ANT Farm Episodic (HD) 203 REPLAY - Friday Afterno                                                                          150                                
PROFAMCHA130401145349145419000030xFrenemies (HD) Trailer CD Retag - Tonight @ 7:00                                                                           150                                
PGRFAMCHA130401145419145619000200Who I Am (HD) Maia Mitchell (March5-May5)                                                                              60685120                                
PROFAMCHA130401145619145634000015xJessie (HD) Refresh CD - Tomorrow Night @ 5:00 (F                                                                          150                                
PGRFAMCHA130401145634145913000239R5 Experience (HD) Spot 2 V2 (air Feb 20 post 8p t                                                                     10618120                                
PROFAMCHA130401145913145943000030xShake It Up (HD) Cee Cee Sell - Coming Up Next (J                                                                          150                                
PRCFAMCHA130401145943145956000013Family Bumper Flex (HD) Flex ID - Really Me Chest                                                                           150                                
PGRFAMCHA130401145956152202002206Disney Shake It Up                                EP: 18                                                               6068707BCC                              
PRCFAMCHA130401152202152224000022Game Change Friday March Promo (HD) Family.ca (Mar                                                                          150                                
PROFAMCHA130401152224152324000100Visit Orlando                                                                                                               150                                
PROFAMCHA130401152324152337000013xWOWP (HD) Alex S3 GENERIC - Tomorrow @ Noon (Jan2                                                                          150                                
PGRFAMCHA130401152337152713000336MV Disney (HD) R5 - Loud (Feb22-Sept6)                                                                                 60685120CC                              
PROFAMCHA130401152713152728000015xANT Farm (HD) Ole McDonald Retag - Tomorrow After                                                                          150                                
PGRFAMCHA130401152728152906000138MV Disney (HD) Bella & Zendaya - This is My Dance                                                                      60685120                                
PROFAMCHA130401152906152948000042Bella & Zendaya Day-A Stunt (HD) Continues Next (A                                                                          150                                
PRCFAMCHA130401152948152958000010Family Bumper (HD) - Amoeba ID (Jan 2011)                                                                                   150                                
PGRFAMCHA130401152958155301002303Disney Shake It Up                                EP: 01                                                               6068707BCC                              
ID FAMCHA130401155301155307000006Astral ID (HD) (Jan2011)                                                                                                    150                                
PRCFAMCHA130401155307155352000045ANT Farm Episodic (HD) 203 REPLAY - Friday Afterno                                                                          150                                
PROFAMCHA130401155352155422000030xFrenemies (HD) Trailer CD Retag - Tonight @ 7:00                                                                           150                                
PROFAMCHA130401155422155449000027xDog With A Blog (HD) Kid Sell - Tonight @ 8:30 (N                                                                          150                                
PGRFAMCHA130401155449155757000308MV Non Disney (HD) Victoria Duffield ft Cody-They                                                                      10615120CC                              
PROFAMCHA130401155757155816000019xWOWP (HD) Clip Bad Time - Tomorrow Afternoon @ 3:                                                                          150                                
PRCFAMCHA130401155816155846000030Phineas & Ferb Episodic (HD) 401 - New Episode Fri                                                                          150                                
PROFAMCHA130401155846155902000016xShake It Up (HD) Refresh CD - Coming Up Next (Sep                                                                          150                                
PROFAMCHA130401155902155932000030Freaky Freakend Promo (HD) Friday April 12 Startin                                                                          150                                
PRCFAMCHA130401155932155948000016Family Bumper Flex (HD) Flex ID - Music ID (:14-:1                                                                          150                                
PGRFAMCHA130401155948162308002320Disney Shake It Up                                EP: 02                                                               6068707BCC                              
ID FAMCHA130401162308162314000006Astral ID (HD) (Jan2011)                                                                                                    150                                
PROFAMCHA130401162314162344000030Wingin It (HD) Bennet High Clip - Monday-Wednesday                                                                          150                                
PROFAMCHA130401162344162444000100Visit Orlando                                                                                                               150                                
PROFAMCHA130401162444162501000017xPhineas & Ferb (HD) Disney Refresh CD - Tomorrow                                                                           150                                
PROFAMCHA130401162501162616000115MV Disney (HD) Phineas & Ferb - MV OWCA - Generic                                                                           150CC                              
PROFAMCHA130401162616162643000027xGood Luck Charlie (HD) Promo 3 - Tomorrow Night @                                                                          150                                
PROFAMCHA130401162643162713000030xANT Farm (HD) Disney Refresh - Weekend Mornings @                                                                          150                                
PROFAMCHA130401162713162828000115x16 Wishes (HD) Popcorn Pix - Saturday @ Noon (Jan                                                                          150                                
PROFAMCHA130401162828162854000026xDog With A Blog @ family.ca (HD) Play Games at fa                                                                          150                                
PROFAMCHA130401162854162936000042Bella & Zendaya Day-A Stunt (HD) Continues Next (A                                                                          150                                
PRCFAMCHA130401162936162956000020Family Bumper (HD) - Wallpaper ID (Jan 2011)                                                                                150                                
PGRFAMCHA130401162956165244002248Disney Shake It Up                                EP: 03                                                               6068707BCC                              
ID FAMCHA130401165244165250000006Astral ID (HD) (Jan2011)                                                                                                    150                                
PROFAMCHA130401165250165322000032Beverly Hills Chihuahua 3 (HD) Premieres Friday Ni                                                                          150                                
PROFAMCHA130401165322165412000050Nintendo                                                                                                                    150                                
PROFAMCHA130401165412165445000033xAustin & Ally (HD) Music Lesson - Tomorrow Aftern                                                                          150                                
PGRFAMCHA130401165445165659000214xMV Disney (HD) Bella & Zendaya - Contagious Love                                                                      60685120CC                              
PROFAMCHA130401165659165714000015PSA CMF (HD) Canada on Screen (Nov2012) (3x per da                                                                          150                                
PRCFAMCHA130401165714165806000052xNext Step (HD) A Troup Promo - Friday Night @ 7:0                                                                          150                                
PROFAMCHA130401165806165836000030xShake It Up (HD) Cee Cee Sell - Coming Up Next (J                                                                          150                                
PRCFAMCHA130401165836165921000045ANT Farm Episodic (HD) 203 REPLAY - Friday Afterno                                                                          150                                
PRCFAMCHA130401165921165950000029Family Bumper Flex (HD) Flex ID - Austin & Ally (F                                                                          150                                
PGRFAMCHA130401165950172225002235Disney Shake It Up                                EP: 04                                                               6068707BCC                              
ID FAMCHA130401172225172231000006Astral ID (HD) (Jan2011)                                                                                                    150                                
PROFAMCHA130401172231172301000030xFrenemies (HD) Trailer CD Retag - Tonight @ 7:00                                                                           150                                
PROFAMCHA130401172301172401000100Visit Orlando                                                                                                               150                                
PROFAMCHA130401172401172419000018xGood Luck Charlie (HD) Promo 2 - Friday Night @ 5                                                                          150                                
PGRFAMCHA130401172419172820000401MV Non Disney (HD) Taylor Matthews - Head Over Fee                                                                     10615120CC                              
PROFAMCHA130401172820172902000042Bella & Zendaya Day-A Stunt (HD) Continues Next (A                                                                          150                                
PROFAMCHA130401172902172943000041Web Next Step Online Mashup (HD) On family.ca (Mar                                                                          150                                
PRCFAMCHA130401172943172953000010Family Bumper (HD) - Satelite ID (Jan 2011)                                                                                 150                                
PGRFAMCHA130401172953175256002303Disney Shake It Up                                EP: 07                                                               6068707BCC                              
PRCFAMCHA130401175256175341000045ANT Farm Episodic (HD) 203 REPLAY - Friday Afterno                                                                          150                                
PROFAMCHA130401175341175356000015xJessie (HD) Refresh CD - Tomorrow Night @ 5:00 (F                                                                          150                                
PGRFAMCHA130401175356175717000321R5 Experience (HD) Spot 1 V3 (Generic) (Feb18-Apr1                                                                     70685120                                
PRCFAMCHA130401175717175747000030Phineas & Ferb Episodic (HD) 401 - New Episode Fri                                                                          150                                
PROFAMCHA130401175747175817000030xShake It Up (HD) Cee Cee Sell - Coming Up Next (J                                                                          150                                
PROFAMCHA130401175817175907000050Nintendo                                                                                                                    150                                
PRCFAMCHA130401175907175937000030Wizards Return: Alex vs Alex (HD) CD - Sunday @ No                                                                          150                                
PRCFAMCHA130401175937175955000018Family Bumper Flex (HD) Flex ID - Music ID (:14-:1                                                                          150                                
PGRFAMCHA130401175955182300002305Disney Shake It Up                                EP: 08                                                               6068707BCC                              
ID FAMCHA130401182300182306000006Astral ID (HD) (Jan2011)                                                                                                    150                                
PROFAMCHA130401182306182336000030Freaky Freakend Promo (HD) Friday April 12 Startin                                                                          150                                
PROFAMCHA130401182336182426000050Nintendo                                                                                                                    150                                
PROFAMCHA130401182426182456000030xFrenemies (HD) Trailer CD Retag - Tonight @ 7:00                                                                           150                                
PROFAMCHA130401182456182513000017xPhineas & Ferb (HD) Disney Refresh CD - Weekday A                                                                          150                                
PROFAMCHA130401182513182613000100xGravity Falls (HD) Twin Sell - Wednesday Night @                                                                           150                                
PGRFAMCHA130401182613182751000138MV Disney (HD) Bella & Zendaya - This is My Dance                                                                      60685120                                
PRCFAMCHA130401182751182843000052xNext Step (HD) A Troup Promo - Thursday Night @ 7                                                                          150                                
PROFAMCHA130401182843182913000030Wingin It (HD) Bennet High Clip - Monday-Wednesday                                                                          150                                
PROFAMCHA130401182913182955000042Bella & Zendaya Day-A Stunt (HD) Continues Next (A                                                                          150                                
PRCFAMCHA130401182955183003000008Family Bumper (HD) - Origami ID (Jan 2011)                                                                                  150                                
PGRFAMCHA130401183003185322002319Disney Shake It Up                                EP: 09                                                               6068707BCC                              
ID FAMCHA130401185322185328000006Astral ID (HD) (Jan2011)                                                                                                    150                                
PROFAMCHA130401185328185400000032Beverly Hills Chihuahua 3 (HD) Premieres Friday Ni                                                                          150                                
PROFAMCHA130401185400185500000100Visit Orlando                                                                                                               150                                
PROFAMCHA130401185500185527000027xDog With A Blog (HD) Kid Sell - Tonight @ 8:30 (N                                                                          150                                
PGRFAMCHA130401185527185727000200Who I Am (HD) Maia Mitchell (March5-May5)                                                                              60685120                                
PROFAMCHA130401185727185745000018xGood Luck Charlie (HD) Promo 2 - Friday Night @ 5                                                                          150                                
PGRFAMCHA130401185745185915000130Synergy DMS (HD) Oz the Great & Powerful - In Thea                                                                     60688120                                
PROFAMCHA130401185915185945000030xFrenemies (HD) Trailer CD - Coming Up Next (Jan20                                                                          150                                
PRCFAMCHA130401185945190005000020Family Bumper Flex (HD) Flex ID - ANT Farm (:16-:2                                                                          150                                
ID FAMCHA130401190005190014000009Popcorn Pix Rating Slate (HD) - G (Jan 2011)                                                                                150                                
ID FAMCHA130401190014190019000005xMagic of Disney Bumper (HD)(:5-:6) (Jan 2011)                                                                              150                                
PGRFAMCHA130401190019202712012653Frenemies                                                                                                             A6068807CCC                              
PROFAMCHA130401202712202808000056Finn on the Fly (HD) Premieres Friday April 12 @ 8                                                                          150                                
PROFAMCHA130401202808202823000015xJessie (HD) Refresh CD - Tomorrow Night @ 5:00 (F                                                                          150                                
PROFAMCHA130401202823202905000042xDog With A Blog (HD) Comedy Sell - Coming Up Next                                                                          150                                
PRCFAMCHA130401202905202950000045ANT Farm Episodic (HD) 203 REPLAY - Friday Afterno                                                                          150                                
PRCFAMCHA130401202950203003000013Family Bumper (HD) - Karate ID (Jan 2011)                                                                                   150                                
PGRFAMCHA130401203003205150002147Disney Dog With A Blog                            EP: 06                                                               6068807BCC                              
ID FAMCHA130401205150205156000006Astral ID (HD) (Jan2011)                                                                                                    150                                
PROFAMCHA130401205156205222000026xDog With A Blog @ family.ca (HD) Play Games at fa                                                                          150                                
PROFAMCHA130401205222205302000040Parmalat                                                                                                                    150                                
PRCFAMCHA130401205302205344000042xWUW (HD) Retag - Monday to Thursday Nights @ 9:30                                                                          150                                
PROFAMCHA130401205344205421000037xThat's So Raven (HD) Dance Retag - Tonight @ 10:3                                                                          150                                
PGRFAMCHA130401205421205635000214xMV Disney (HD) Bella & Zendaya - Contagious Love                                                                      60685120CC                              
PROFAMCHA130401205635205750000115x16 Wishes (HD) Popcorn Pix - Saturday @ Noon (Jan                                                                          150                                
PRCFAMCHA130401205750205842000052xNext Step (HD) A Troup Promo - Weekend Afternoons                                                                          150                                
PROFAMCHA130401205842205912000030Wingin It (HD) Friend Sell Promo - Coming Up Next                                                                           150                                
PROFAMCHA130401205912205942000030Wingin It (HD) Bennet High Clip - Monday-Wednesday                                                                          150                                
PRCFAMCHA130401205942205959000017Family Bumper Flex (HD) Flex ID - Music ID (:14-:1                                                                          150                                
PRCFAMCHA130401205959210013000014xDescriptive Video Slate (HD) (Jan 2011)                                                                                    150                                
PGRFAMCHA130401210013212245002232Wingin' It                                        EP: 04                                                        C32356 1065607ACD                              
ID FAMCHA130401212245212251000006Astral ID (HD) (Jan2011)                                                                                                    150                                
PRCFAMCHA130401212251212336000045ANT Farm Episodic (HD) 203 REPLAY - Friday Afterno                                                                          150                                
PROFAMCHA130401212336212414000038xElephant Princess (HD) Music Sell - Tonight @ 11:                                                                          150                                
PGRFAMCHA130401212414212552000138MV Disney (HD) Bella & Zendaya - This is My Dance                                                                      60685120                                
PROFAMCHA130401212552212611000019xWOWP (HD) Clip Bad Time - Tomorrow Afternoon @ 3:                                                                          150                                
PROFAMCHA130401212611212652000041xAustin & Ally (HD) Music Sell - Wednesday Night @                                                                          150                                
PGRFAMCHA130401212652212751000059MV Non Disney (HD) Taylor Matthews - Head Over Fee                                                                     10615120CC                              
PROFAMCHA130401212751212809000018xGood Luck Charlie (HD) Promo 2 - Thursday Night @                                                                          150                                
PRCFAMCHA130401212809212839000030Wizards Return: Alex vs Alex (HD) CD - Sunday @ No                                                                          150                                
PRCFAMCHA130401212839212924000045xWUW (HD) Clip Promo - Coming Up Next (Feb2012)                                                                             150                                
PRCFAMCHA130401212924212946000022Game Change Friday March Promo (HD) Family.ca (Mar                                                                          150                                
PRCFAMCHA130401212946213001000015Family Bumper (HD) - Hot Potato ID (Jan 2011)                                                                               150                                
PGRFAMCHA130401213001215238002237What's Up, Warthogs!                              EP: 17                                                        B33327 1065607BCC                              
ID FAMCHA130401215238215244000006Astral ID (HD) (Jan2011)                                                                                                    150                                
PROFAMCHA130401215244215340000056Finn on the Fly (HD) Premieres Friday April 12 @ 8                                                                          150                                
PROFAMCHA130401215340215430000050Nintendo                                                                                                                    150                                
PROFAMCHA130401215430215447000017xPhineas & Ferb (HD) Disney Refresh CD - Tomorrow                                                                           150                                
PGRFAMCHA130401215447215755000308MV Non Disney (HD) Victoria Duffield ft Cody-They                                                                      10615120CC                              
PROFAMCHA130401215755215855000100xGravity Falls (HD) Twin Sell - Weekend Afternoons                                                                          150                                
PROFAMCHA130401215855215922000027xDog With A Blog (HD) Kid Sell - Weekend Afternoon                                                                          150                                
PROFAMCHA130401215922215952000030Freaky Freakend Promo (HD) Friday April 12 Startin                                                                          150                                
PRCFAMCHA130401215952220003000011Family Bumper Flex (HD) Flex ID - Wingin It (Apr20                                                                          150                                
PGRFAMCHA130401220003222237002234Lizzie McGuire                                    EP: 04                                                               6068607BCC                              
PROFAMCHA130401222237222309000032Beverly Hills Chihuahua 3 (HD) Premieres Friday Ni                                                                          150                                
PGRFAMCHA130401222309222548000239R5 Experience (HD) Spot 2 V2 (air Feb 20 post 8p t                                                                     10618120                                
PROFAMCHA130401222548222607000019xWOWP (HD) Clip Bad Time - Tomorrow Afternoon @ 3:                                                                          150                                
PGRFAMCHA130401222607222807000200Who I Am (HD) Maia Mitchell (March5-May5)                                                                              60685120                                
PROFAMCHA130401222807222837000030xANT Farm (HD) Disney Refresh - Weekend Mornings @                                                                          150                                
PROFAMCHA130401222837222912000035D-JR Promo - Handy Manny - Get more on the channel                                                                          150                                
PROFAMCHA130401222912222949000037xThat's So Raven (HD) Dance Retag - Coming Up Next                                                                          150                                
PRCFAMCHA130401222949223003000014Family Bumper (HD) - Horseshoe ID (Jan 2011)                                                                                150                                
ID FAMCHA130401223003223008000005xMagic of Disney Bumper (HD)(:5-:6) (Jan 2011)                                                                              150                                
PGRFAMCHA130401223008225231002223That's So Raven                                   EP: 078                                                              6068607BCC                              
ID FAMCHA130401225231225237000006Astral ID (HD) (Jan2011)                                                                                                    150                                
PRCFAMCHA130401225237225322000045ANT Farm Episodic (HD) 203 REPLAY - Friday Afterno                                                                          150                                
PROFAMCHA130401225322225349000027xGood Luck Charlie (HD) Promo 3 - Tomorrow Night @                                                                          150                                
PGRFAMCHA130401225349225519000130Synergy DMS (HD) Oz the Great & Powerful - In Thea                                                                     60688120                                
PRCFAMCHA130401225519225611000052xNext Step (HD) A Troup Promo - Friday Night @ 7:0                                                                          150                                
PROFAMCHA130401225611225641000030Wingin It (HD) Bennet High Clip - Monday-Wednesday                                                                          150                                
PROFAMCHA130401225641225756000115MV Disney (HD) Phineas & Ferb - MV OWCA - Generic                                                                           150CC                              
PRCFAMCHA130401225756225826000030Wizards Return: Alex vs Alex (HD) CD - Sunday @ No                                                                          150                                
PROFAMCHA130401225826225911000045xCory In The House (HD) Clip Based Promo - Coming                                                                           150                                
PRCFAMCHA130401225911225941000030xFOD 2012 Refresh (HD) Family.ca New Look (Apr2012                                                                          150                                
PRCFAMCHA130401225941225958000017Family Bumper Flex (HD) Flex ID - Music ID (:14-:1                                                                          150                                
PGRFAMCHA130401225958232239002241Disney Cory in the House                          EP: 04                                                               6068607BCC                              
PRCFAMCHA130401232239232309000030Phineas & Ferb Episodic (HD) 401 - New Episode Fri                                                                          150                                
PROFAMCHA130401232309232359000050Nintendo                                                                                                                    150                                
PROFAMCHA130401232359232414000015xJessie (HD) Refresh CD - Tomorrow Night @ 5:00 (F                                                                          150                                
PGRFAMCHA130401232414232750000336MV Disney (HD) R5 - Loud (Feb22-Sept6)                                                                                 60685120CC                              
PROFAMCHA130401232750232815000025D-JR Promo - JATNP - Get more on the channel REV (                                                                          150                                
PROFAMCHA130401232815232853000038xElephant Princess (HD) Music Sell - Coming Up Nex                                                                          150                                
PROFAMCHA130401232853232949000056Finn on the Fly (HD) Premieres Friday April 12 @ 8                                                                          150                                
PRCFAMCHA130401232949233005000016Family Bumper (HD) - Fashion ID (Jan 2011)                                                                                  150                                
PGRFAMCHA130401233005235410002405The Elephant Princess                             EP: 09                                                               7068507ACC                              
ID FAMCHA130401235410235416000006Astral ID (HD) (Jan2011)                                                                                                    150                                
PROFAMCHA130401235416235457000041Web Next Step Online Mashup (HD) On family.ca (Mar                                                                          150                                
PROFAMCHA130401235457235524000027xDog With A Blog (HD) Kid Sell - Friday AFternoon                                                                           150                                
PROFAMCHA130401235524235539000015PSA CMF (HD) Canada on Screen (Nov2012) (3x per da                                                                          150                                
PROFAMCHA130401235539235611000032Beverly Hills Chihuahua 3 (HD) Premieres Friday Ni                                                                          150                                
PGRFAMCHA130401235611235740000129xMV Disney (HD) Bella & Zendaya - Contagious Love                                                                      60685120CC                              
PROFAMCHA130401235740235824000044xPhineas & Ferb (HD) Lines - Weekend Afternoons @                                                                           150                                
PROFAMCHA130401235824235854000030xLatest Buzz (HD) Loco Oct.09 - Coming Up Next (Ja                                                                          150                                
PRCFAMCHA130401235854235939000045ANT Farm Episodic (HD) 203 REPLAY - Friday Afterno                                                                          150                                
PRCFAMCHA130401235939000008000029Family Bumper Flex (HD) Flex ID - Austin & Ally (F                                                                          150                                
PGRFAMCHA130401000008002245002237The Latest Buzz                                   EP: 22                                                        C30362 1065607BCC                              
PROFAMCHA130401002245002315000030Freaky Freakend Promo (HD) Friday April 12 Startin                                                                          150                                
PRCFAMCHA130401002315002331000016xReally Me (HD) Green Screen Retag - Tuesday Night                                                                          150                                
PGRFAMCHA130401002331002652000321R5 Experience (HD) Spot 1 V3 (Generic) (Feb18-Apr1                                                                     70685120                                
PROFAMCHA130401002652002722000030xANT Farm (HD) Disney Refresh - Weekend Mornings @                                                                          150                                
PROFAMCHA130401002722002818000056Finn on the Fly (HD) Premieres Friday April 12 @ 8                                                                          150                                
PROFAMCHA130401002818002848000030D-JR Promo - Little Einsteins - Get more on D-JR t                                                                          150                                
PROFAMCHA130401002848002935000047xOverruled! (HD) Refresh - Coming Up Next (Jan2011                                                                          150                                
PRCFAMCHA130401002935002957000022Game Change Friday March Promo (HD) Family.ca (Mar                                                                          150                                
PRCFAMCHA130401002957003010000013Family Bumper (HD) - Drums ID (Jan 2011)                                                                                    150                                
PGRFAMCHA130401003010005242002232Overruled!                                        EP: 12                                                        C30129 1065607BCC                              
ID FAMCHA130401005242005248000006Astral ID (HD) (Jan2011)                                                                                                    150                                
PROFAMCHA130401005248005314000026xDog With A Blog @ family.ca (HD) Play Games at fa                                                                          150                                
PROFAMCHA130401005314005341000027xGood Luck Charlie (HD) Promo 3 - Tomorrow Night @                                                                          150                                
PGRFAMCHA130401005341005519000138MV Disney (HD) Bella & Zendaya - This is My Dance                                                                      60685120                                
PRCFAMCHA130401005519005611000052xNext Step (HD) A Troup Promo - Thursday Night @ 7                                                                          150                                
PROFAMCHA130401005611005638000027xDog With A Blog (HD) Kid Sell - Friday AFternoon                                                                           150                                
PGRFAMCHA130401005638005737000059MV Non Disney (HD) Taylor Matthews - Head Over Fee                                                                     10615120CC                              
PROFAMCHA130401005737005852000115x16 Wishes (HD) Popcorn Pix - Saturday @ Noon (Jan                                                                          150                                
PROFAMCHA130401005852005927000035xDEBRA! (HD) Hypotenuse Promo - Coming Up Next (De                                                                          150                                
PROFAMCHA130401005927005957000030Wingin It (HD) Bennet High Clip - Monday-Wednesday                                                                          150                                
PRCFAMCHA130401005957010015000018Family Bumper Flex (HD) Flex ID - Music ID (:14-:1                                                                          150                                
PGRFAMCHA130401010015012248002233DEBRA!                                            EP: 11                                                        C35763 1065607ACD                              
PRCFAMCHA130401012248012257000009Family Bumper (HD) - Dragonflies ID (Jan 2011)                                                                              150                                
PGRFAMCHA130401012257014530002233Disney JONAS                                      EP: 06                                                               6068507BCC                              
ID FAMCHA130401014530014536000006Astral ID (HD) (Jan2011)                                                                                                    150                                
PRCFAMCHA130401014536014552000016Family Bumper Flex (HD) Flex ID - WUW (May2012) (:                                                                          150                                
ID FAMCHA130401014552014557000005xMagic of Disney Bumper (HD)(:5-:6) (Jan 2011)                                                                              150                                
PGRFAMCHA130401014557020803002206Phil of the Future                                EPS # 16                                                             6068607BCD                              
ID FAMCHA130401020803020809000006Astral ID (HD) (Jan2011)                                                                                                    150                                
PRCFAMCHA130401020809020827000018Family Bumper (HD) - Dominoes ID (Jan 2011)                                                                                 150                                
PGRFAMCHA130401020827023254002427The Elephant Princess                             EP: 10                                                               7068507ACC                              
ID FAMCHA130401023254023300000006Astral ID (HD) (Jan2011)                                                                                                    150                                
PRCFAMCHA130401023300023318000018Family Bumper Flex (HD) Flex ID - Music ID (:14-:1                                                                          150                                
PGRFAMCHA130401023318025549002231Life with Derek                                   EP: 18                                                        C26679A1065607BCC                              
ID FAMCHA130401025549025555000006Astral ID (HD) (Jan2011)                                                                                                    150                                
PRCFAMCHA130401025555025605000010Family Bumper (HD) - Bobbleheads ID (Jan 2011)                                                                              150                                
PGRFAMCHA130401025605031807002202Slugterra                                         EP: 01                                                        A33763 1065607ACC                              
ID FAMCHA130401031807031813000006Astral ID (HD) (Jan2011)                                                                                                    150                                
PRCFAMCHA130401031813031829000016Family Bumper Flex (HD) Flex ID - Jessie ID (:15-:                                                                          150                                
PGRFAMCHA130401031829034100002231Overruled!                                        EP: 06                                                        C28762 1065607ACC                              
ID FAMCHA130401034100034105000005Astral ID (HD) (Jan2011)                                                                                                    150                                
PRCFAMCHA130401034105034123000018Family Bumper (HD) - Dominoes ID (Jan 2011)                                                                                 150                                
PGRFAMCHA130401034123040358002235Latest Buzz II                                    EP: 23                                                        C29635 1065607BCC                              
ID FAMCHA130401040358040403000005Astral ID (HD) (Jan2011)                                                                                                    150                                
PROFAMCHA130401040403040412000009LU - 41 - LIFE WITH DEREK (HD) (:9 - :11) Jan2011                                                                           150                                
PRCFAMCHA130401040412040430000018Family Bumper Flex (HD) Flex ID - Music ID (:14-:1                                                                          150                                
PGRFAMCHA130401040430042701002231Life With Derek                                   EP: 02                                                        C24891 1065607BCC                              
PROFAMCHA130401042701042743000042D-JR Promo - Bananas in Pajamas - Weekdays @ 10am                                                                           150                                
PROFAMCHA130401042743042808000025D-JR Promo - JATNP - Get more on the channel REV (                                                                          150                                
PROFAMCHA130401042808042838000030D-JR Promo - Little Einsteins - Get more on D-JR t                                                                          150                                
PROFAMCHA130401042838042908000030D-JR Promo - MMCH - Get more MMCH on D-JR the chan                                                                          150                                
PROFAMCHA130401042908042953000045D-JR Promo - Sofia The First: What's on the Inside                                                                          150                                
PROFAMCHA130401042953042959000006D-JR - Station ID (:06) (May2011)                                                                                           150                                
OFFFAMCHA130401042959043000000001OFF AIR                                                                                                                                                        
SO FAMCHA130402043000043011000011Sign On (oct 1)                                                                                                                                                
PGRFAMCHA130402043011045415002404Henry's World                                     EPS # 2-025                                                   B81056 1065607ECC                              
ID FAMCHA130402045415045421000006Astral ID (HD) (Jan2011)                                                                                                    150                                
PROFAMCHA130402045421045428000007D-JR Live Action ID - Franny's Feet - Coming Up (M                                                                          150                                
PROFAMCHA130402045428045453000025D-JR Live Action ID - #13 Make Bed (May2012)                                                                                150                                
PROFAMCHA130402045453045523000030D-JR Promo - On demand online REVISED - D-JR.ca (M                                                                          150                                
PROFAMCHA130402045523045548000025D-JR Live Action ID - #42 Brush Teeth (May2012)                                                                             150                                
PROFAMCHA130402045548045555000007D-JR Live Action ID - Franny's Feet - Now (May2012                                                                          150                                
PROFAMCHA130402045555045602000007D-JR - Flex ID - Green (:6-:10) (Feb2012)                                                                                   150                                
PGRFAMCHA130402045602051834002232Franny's Feet                                     EP: 40                                                        C31292 1065607ECC                              
PROFAMCHA130402051834051841000007D-JR Live Action ID - SWOBB - Coming Up (May2012)                                                                           150                                
PROFAMCHA130402051841051906000025D-JR Live Action ID - #44 Fold Towels (Sept2012)                                                                            150                                
PROFAMCHA130402051906051958000052D-JR Promo - Doc McStuffins - Get more on the chan                                                                          150                                
PROFAMCHA130402051958052023000025D-JR Promo - JATNP - Get more on the channel REV (                                                                          150                                
PROFAMCHA130402052023052048000025D-JR Live Action ID - #12 Feed Goldfish (May2012)                                                                           150                                
PROFAMCHA130402052048052055000007D-JR Live Action ID - SWOBB - Now (May2012)                                                                                 150                                
PROFAMCHA130402052055052106000011D-JR - Station ID (:11) (May2011)                                                                                           150                                
PGRFAMCHA130402052106054346002240The Secret World of Benjamin Bear                 EP: 28                                                        C27272 1065607ECC                              
ID FAMCHA130402054346054351000005Astral ID (HD) (Jan2011)                                                                                                    150                                
PROFAMCHA130402054351054358000007D-JR Live Action ID - Harry & His Dinosaurs - Comi                                                                          150                                
PROFAMCHA130402054358054423000025D-JR Live Action ID - #20 Calendar (May2012)                                                                                150                                
PROFAMCHA130402054423054429000006D-JR - Bumper 8 (May2011)                                                                                                   150                                
PROFAMCHA130402054429054454000025D-JR Live Action ID - #46 Donating Clothes (Sept20                                                                          150                                
PROFAMCHA130402054454054501000007D-JR Live Action ID - Harry & His Dinosaurs - Now                                                                           150                                
PGRFAMCHA130402054501060637002136Harry and His Bucket Full of Dinosaurs            EP: 19                                                        B05038 1065607ECC                              
PROFAMCHA130402060637060645000008D-JR Live Action ID - Stella & Sam - Coming Up (Ma                                                                          150                                
PROFAMCHA130402060645060710000025D-JR Live Action ID - #29 Put Shoes On (Sept2012)                                                                           150                                
PROFAMCHA130402060710060730000020D-JR Promo - Sofia The First: Clip 1 - Get More We                                                                          150                                
PROFAMCHA130402060730060805000035D-JR Promo - Bananas in Pajamas - Clip 1 - Get mor                                                                          150                                
PROFAMCHA130402060805060840000035D-JR Promo - Handy Manny - Get more on the channel                                                                          150                                
PROFAMCHA130402060840060910000030D-JR Promo - On demand online REVISED - D-JR.ca (M                                                                          150                                
PROFAMCHA130402060910060935000025D-JR Live Action ID - #47 Making Breakfast (May201                                                                          150                                
PROFAMCHA130402060935060943000008D-JR Live Action ID - Stella & Sam - Now (Mar2013)                                                                          150                                
PROFAMCHA130402060943060951000008D-JR - Flex ID - Yellow (:6-:10) (Feb2012)                                                                                  150                                
PGRFAMCHA130402060951063307002316Stella and Sam                                    EP: 05                                                        C32553 1065607ECD                              
ID FAMCHA130402063307063313000006Astral ID (HD) (Jan2011)                                                                                                    150                                
PROFAMCHA130402063313063343000030Freaky Freakend Promo (HD) Friday April 12 Startin                                                                          150                                
PRCFAMCHA130402063343063409000026Next Step Dancing Is (HD) West - Friday Night @ 7:                                                                          150                                
PROFAMCHA130402063409063415000006Hannah (HD) ID - Jason Earles 2 - "Coming Up Next"                                                                          150                                
PROFAMCHA130402063415063447000032Beverly Hills Chihuahua 3 (HD) Premieres Friday Ni                                                                          150                                
PRCFAMCHA130402063447063500000013Family Bumper (HD) - Karate ID (Jan 2011)                                                                                   150                                
PGRFAMCHA130402063500065739002239Hannah Montana                                    EP: 24                                                               6068807BCC                              
PROFAMCHA130402065739065809000030Jessie Episodic (HD) 212 - New Episode Friday Nigh                                                                          150                                
PRCFAMCHA130402065809065839000030Wizards Return: Alex vs Alex (HD) CD - Sunday @ No                                                                          150                                
PROFAMCHA130402065839065905000026xDog With A Blog @ family.ca (HD) Play Games at fa                                                                          150                                
PROFAMCHA130402065905065921000016xShake It Up (HD) Refresh CD - Coming Up Next (Sep                                                                          150                                
PRCFAMCHA130402065921065951000030Phineas & Ferb Episodic (HD) 401 - New Episode Fri                                                                          150                                
PRCFAMCHA130402065951070001000010Family Bumper (HD) - Satelite ID (Jan 2011)                                                                                 150                                
PGRFAMCHA130402070001072149002148Disney Shake It Up                                EP: 26                                                               6068707BCC                              
ID FAMCHA130402072149072154000005Astral ID (HD) (Jan2011)                                                                                                    150                                
PROFAMCHA130402072154072226000032Beverly Hills Chihuahua 3 (HD) Premieres Friday Ni                                                                          150                                
PROFAMCHA130402072226072306000040Parmalat                                                                                                                    150                                
PROFAMCHA130402072306072325000019xWOWP (HD) Clip Bad Time - This Morning @ 8:20 (Ma                                                                          150                                
PROFAMCHA130402072325072358000033xAustin & Ally (HD) Music Lesson - This Afternoon                                                                           150                                
PROFAMCHA130402072358072413000015xANT Farm (HD) Refresh CT - Coming Up Next (Mar201                                                                          150                                
PROFAMCHA130402072413072454000041Web Next Step Online Mashup (HD) On family.ca (Mar                                                                          150                                
PRCFAMCHA130402072454072504000010Family Bumper Flex (HD) Flex ID - Wingin It (Apr20                                                                          150                                
PGRFAMCHA130402072504074821002317Disney A.N.T. Farm                                EP: 05                                                               6068607BCC                              
PROFAMCHA130402074821074917000056Finn on the Fly (HD) Premieres Friday April 12 @ 8                                                                          150                                
PROFAMCHA130402074917074943000026xDog With A Blog @ family.ca (HD) Play Games at fa                                                                          150                                
PROFAMCHA130402074943075013000030xJessie (HD) Happy Place - Coming Up Next (May2012                                                                          150                                
PRCFAMCHA130402075013075043000030Phineas & Ferb Episodic (HD) 401 - New Episode Fri                                                                          150                                
PRCFAMCHA130402075043075101000018Family Bumper (HD) - Dominoes ID (Jan 2011)                                                                                 150                                
PGRFAMCHA130402075101081403002302Disney Jessie                                     EP: 17                                                               6068807BCC                              
ID FAMCHA130402081403081409000006Astral ID (HD) (Jan2011)                                                                                                    150                                
PROFAMCHA130402081409081439000030Jessie Episodic (HD) 212 - New Episode Friday Nigh                                                                          150                                
PROFAMCHA130402081439081529000050Nintendo                                                                                                                    150                                
PRCFAMCHA130402081529081551000022Game Change Friday March Promo (HD) Family.ca (Mar                                                                          150                                
PROFAMCHA130402081551081632000041xAustin & Ally (HD) Music Sell - Wednesday Night @                                                                          150                                
PROFAMCHA130402081632081651000019xWOWP (HD) Clip Bad Time - Coming Up Next (Mar2013                                                                          150                                
PRCFAMCHA130402081651081736000045ANT Farm Episodic (HD) 203 REPLAY - Friday Afterno                                                                          150                                
PRCFAMCHA130402081736081752000016Family Bumper Flex (HD) Flex ID - Music ID (:14-:1                                                                          150                                
PGRFAMCHA130402081752083955002203Disney Wizards of Waverly Place                   EP: 16                                                               6068607BCC                              
PROFAMCHA130402083955084003000008D-JR Live Action ID - Tickity Toc - NEW Coming Up                                                                           150                                
PROFAMCHA130402084003084028000025D-JR Live Action ID - #47 Making Breakfast (May201                                                                          150                                
PROFAMCHA130402084028084058000030D-JR Promo - On demand online REVISED - D-JR.ca (M                                                                          150                                
PROFAMCHA130402084058084133000035D-JR Promo - Handy Manny - Get more on the channel                                                                          150                                
PROFAMCHA130402084133084206000033D-JR Promo - Bananas in Pajamas - Clip 2 - Get mor                                                                          150                                
PROFAMCHA130402084206084248000042D-JR Promo - Sofia The First: A Princess Thing - G                                                                          150                                
PROFAMCHA130402084248084340000052D-JR Promo - Doc McStuffins - Get more on the chan                                                                          150                                
PROFAMCHA130402084340084405000025D-JR Promo - JATNP - Get more on the channel REV (                                                                          150                                
PROFAMCHA130402084405084430000025D-JR Live Action ID - #12 Feed Goldfish (May2012)                                                                           150                                
PROFAMCHA130402084430084438000008D-JR Live Action ID - Tickity Toc - NEW Now (Mar20                                                                          150                                
PROFAMCHA130402084438084446000008D-JR - Flex ID - Yellow (:6-:10) (Feb2012)                                                                                  150                                
PGRFAMCHA130402084446085602001116Tickety Toc                                       EP: 01                                                               3068605ACC                              
PGRFAMCHA130402085602090704001102Tickety Toc                                       EP: 02                                                               3068605ACC                              
ID FAMCHA130402090704090709000005Astral ID (HD) (Jan2011)                                                                                                    150                                
PROFAMCHA130402090709090716000007D-JR Live Action ID - Mickey Mouse Clubhouse - Com                                                                          150                                
