SO FAMCHA061101043000043011000011Sign On (oct 1)                                                                                                                                                
PRCFAMCHA061101043011043020000009CC Disclaimer - FAST - Generic (:08-:10) $$$                                                                                150                                
PGRFAMCHA061101043020045659002639Katie And Orbie                                   EP: 6-066                                                     B62269A1065607ECC                              
PRCFAMCHA061101045659045704000005Astral ID (FEB05) $$$                                                                                                       150                                
PRCFAMCHA061101045704045719000015PH - 04 - FRANNY/SOMETHING/HOZE  (:14 - :16) (APR0                                                                          150                                
ID FAMCHA061101045719045732000013PS Playhouse AM Block Open (:10-:15) $$$                                                                                    150                                
PRCFAMCHA061101045732045741000009CC Disclaimer - FAST - Family.ca (:08-:10) $$$                                                                              150                                
PGRFAMCHA061101045741052011002230Franny's Feet                                     EPS # 14                                                      C23971 1065607ECC                              
PRCFAMCHA061101052011052027000016PH - 05 - SOMETHING/HOZE/KING (:14 - :16) (APR06)                                                                           150                                
ID FAMCHA061101052027052040000013PS Playhouse AM Block Open (:10-:15) $$$                                                                                    150                                
PRCFAMCHA061101052040052049000009CC Disclaimer - FAST - Generic (:08-:10) $$$                                                                                150                                
PGRFAMCHA061101052049054320002231Something Else                                    EP: 1-011                                                     B69265A1065607ECC                              
PRCFAMCHA061101054320054325000005Astral ID (FEB05) $$$                                                                                                       150                                
PRCFAMCHA061101054325054341000016PH - 06 - HOZE/KING/SPIDERMAN (:14 - :16) (APR06)                                                                           150                                
ID FAMCHA061101054341054354000013PS Playhouse AM Block Open (:10-:15) $$$                                                                                    150                                
PRCFAMCHA061101054354054403000009CC Disclaimer - FAST - Family.ca (:08-:10) $$$                                                                              150                                
PGRFAMCHA061101054403060635002232Hoze Houndz                                       EP: 3-027                                                     B45768A1065607ECC                              
PRCFAMCHA061101060635060651000016PH - 07 - KING/SPIDERMAN/KIM  (:14 - :16) (APR06)                                                                           150                                
ID FAMCHA061101060651060704000013PS Playhouse AM Block Open (:10-:15) $$$                                                                                    150                                
PRCFAMCHA061101060704060713000009CC Disclaimer - FAST - Generic (:08-:10) $$$                                                                                150                                
PGRFAMCHA061101060713062943002230King                                              EP: 006                                                       B75761A1065607ECC                              
PRCFAMCHA061101062943062948000005Astral ID (FEB05) $$$                                                                                                       150                                
PRCFAMCHA061101062948063004000016PH - 08- SPIDERMAN/KIM ( (:14 - :16) (APR06) $$$                                                                            150                                
PROFAMCHA061101063004063023000019MadMadMornings Block Open $$$                                                                                               150                                
PGRFAMCHA061101063023065206002143Spiderman                                         EP: 19                                                        C02618 1065607E                                
PRCFAMCHA061101065206065222000016MMM - 01 (AM) - KIM/RECESS/WEEKENDERS (OCT05) (:14                                                                          150                                
PROFAMCHA061101065222065236000014Kim Possible ARM (MMM) (MAY 06) Coming Up Next                                                                              150                                
PROFAMCHA061101065236065314000038xxCars DVD Avail Nov 7 $$$ (Oct 23 - Nov 6)                                                                                 150                                
PROFAMCHA061101065314065350000036Weekenders - PIZZA (MMM) - (APR06) - This Morning                                                                           150                                
PROFAMCHA061101065350065435000045Zoey 101 Holiday Chic Boutique Spot (oct 23-jan7)                                                                           150                                
PROFAMCHA061101065435065516000041Brandy & Mr. Whiskers (Lifeguard] This afternoon @                                                                          150                                
PROFAMCHA061101065516065541000025xxRecess Sketches OCT 06 - Mikey's World Record -                                                                           150                                
PROFAMCHA061101065541065600000019MadMadMornings Block Open $$$                                                                                               150                                
PRCFAMCHA061101065600065609000009CC Disclaimer - FAST - Generic (:08-:10) $$$                                                                                150                                
PGRFAMCHA061101065609071900002251Disney's Kim Possible                             EPS # 1-027                                                         A6068607ECC                              
PRCFAMCHA061101071900071905000005Astral ID (FEB05) $$$                                                                                                       150                                
PRCFAMCHA061101071905071920000015MMM - 02 (AM) - RECESS/WEEKENDERS/LILO (OCT05) (:1                                                                          150                                
PROFAMCHA061101071920071944000024xxRecess - MONTAGE (MMM) - (JULY06) - Coming Up Ne                                                                          150                                
PROFAMCHA061101071944072030000046xxFlushed Away Contest - In Theatres Nov 3 (Oct 13                                                                    A     150                                
PROFAMCHA061101072030072106000036Weekenders - PIZZA (MMM) - (APR06) - This Morning                                                                           150                                
PRCFAMCHA061101072106072247000141xxFamily Lab - Anti Gravity Rocket Pack (Oct1-Nov5                                                                          150                                
PROFAMCHA061101072247072324000037xxHappy Feet Contest $$$ (in theatres Nov 17) (Nov                                                                          150                                
PROFAMCHA061101072324072341000017Lilo & Stitch (MMM) (APR06) LICK- This Morning @ 8                                                                          150                                
PROFAMCHA061101072341072400000019MadMadMornings Block Open $$$                                                                                               150                                
PGRFAMCHA061101072400074650002250Disney's Recess                                   EP: 1-063                                                           A6068607E                                
PRCFAMCHA061101074650074706000016PH - 09 - WEEKENDERS/LILO/EINSTEINS (:14 - :16) (A                                                                          150                                
PROFAMCHA061101074706074742000036Weekenders - PIZZA (MMM) - (APR06) - Coming Up Nex                                                                          150                                
PROFAMCHA061101074742074827000045Zoey 101 Holiday Chic Boutique Spot (oct 23-jan7)                                                                           150                                
PROFAMCHA061101074827074839000012Family Bumpers - (Phase 1 Spring 04) - Pillow Figh                                                                          150                                
PROFAMCHA061101074839074920000041Brandy & Mr. Whiskers (Earsick] This afternoon @ 1                                                                          150                                
PROFAMCHA061101074920074954000034Zoey 101 Fashion Show $$$                                                                                                   150                                
PROFAMCHA061101074954075016000022Fillmore! - POLLY (MD) (APR06) - This Afternoon @                                                                           150                                
PROFAMCHA061101075016075041000025xxRecess Sketches OCT 06 - Mikey's World Record -                                                                           150                                
PROFAMCHA061101075041075100000019MadMadMornings Block Open $$$                                                                                               150                                
PRCFAMCHA061101075100075109000009CC Disclaimer - FAST - Family.ca (:08-:10) $$$                                                                              150                                
PGRFAMCHA061101075109081346002237Disney's The Weekenders                           EP: 1-026                                                           A6068607ECC                              
PRCFAMCHA061101081346081351000005Astral ID (FEB05) $$$                                                                                                       150                                
PRCFAMCHA061101081351081407000016PH - 10 - LILO/EINSTEINS/WINNIE (:14 - :16) (APR06                                                                          150                                
PROFAMCHA061101081407081424000017Lilo & Stitch (MMM) (APR06) LICK- coming Up Next                                                                            150                                
PROFAMCHA061101081424081502000038xxCars DVD Avail Nov 7 $$$ (Oct 23 - Nov 6)                                                                                 150                                
PROFAMCHA061101081502081516000014Kim Possible ARM MD (MAY 06) This afternoon @ 12:1                                                                          150                                
PROFAMCHA061101081516081523000007MadMadMornings Bumper                                                                                                       150                                
PROFAMCHA061101081523081559000036Weekenders - PIZZA (MD) - (APR06) - This Afternoon                                                                          150                                
PROFAMCHA061101081559081648000049Proud Family (APR06) STRIKE (NSW) - Weekend Aftern                                                                          150                                
PROFAMCHA061101081648081722000034HSM Karaoke CD - Available Now $$$ (Oct 10-Jan 14)                                                                    A     150                                
PROFAMCHA061101081722081738000016xxEmperor's New School KOOKOO - NSW - Weekend afte                                                                          150                                
PROFAMCHA061101081738081757000019MadMadMornings Block Open $$$                                                                                               150                                
PGRFAMCHA061101081757084035002238Disney's Lilo & Stitch                            EPS # 38                                                            A6068607E                                
PRCFAMCHA061101084035084050000015xxPH - 09 -EINSTEINS/WINNIE/PB&J  (:14 - :16) (APR                                                                          150                                
PROFAMCHA061101084050084120000030Little Einstein (PH) (PRESCHOOL) - Coming Up Next                                                                           150                                
PROFAMCHA061101084120084157000037Princess Block - Be A Princess (Frog Prince) PH 1                                                                           150                                
PROFAMCHA061101084157084227000030Higglytown - Find Them - PH This morning @ 10:30                                                                            150                                
PGRFAMCHA061101084227084458000231Lilo & Stitch Music Video - On DVD Now *DNU*                                                                           60688120                                
ID FAMCHA061101084458084508000010PS Playhouse AM Block Open (:10-:15) $$$                                                                                    150                                
PGRFAMCHA061101084508090913002405Disney's Little Einsteins                         EP: 02                                                               6068607E                                
PRCFAMCHA061101090913090918000005Astral ID (FEB05) $$$                                                                                                       150                                
PRCFAMCHA061101090918090933000015xxPH - 04 - WINNIE/PB&J/JOJO (FEB06) (:14 - 16)                                                                             150                                
PROFAMCHA061101090933091003000030Winnie the Pooh (PH/AM) (APR06) - This Morning @ 9                                                                          150                                
PROFAMCHA061101091003091033000030Cranium Hullabaloo $$$ (Oct 23-Dec10)                                                                                 A     150                                
PROFAMCHA061101091033091057000024Little Mermaid - OCT 06 - Trouble - Tomorrow morn                                                                           150                                
ID FAMCHA061101091057091107000010PS Playhouse AM Block Open (:10-:15) $$$                                                                                    150                                
PRCFAMCHA061101091107091116000009CC Disclaimer - FAST - Generic (:08-:10) $$$                                                                                150                                
PGRFAMCHA061101091116093358002242The New Adventures of Winnie the Pooh             EP: 1-011                                                            6068607ECC                              
PRCFAMCHA061101093358093413000015xxPH - 13 PB&J/JOJO/HIGGLY  (:14 - :16) (APR06)                                                                             150                                
PROFAMCHA061101093413093439000026Jojo's Circus - GIANT - OCT 06 - This morn @ 10:05                                                                          150                                
PROFAMCHA061101093439093508000029Playhouse - WINNIE THE POOH - Tigger Bounce                                                                                 150                                
PROFAMCHA061101093508093651000143Little Mermaid - OCT 06 - Long - Tomorrow morn @ 1                                                                          150                                
ID FAMCHA061101093651093701000010PS Playhouse AM Block Open (:10-:15) $$$                                                                                    150                                
PRCFAMCHA061101093701093710000009CC Disclaimer - FAST - Family.ca (:08-:10) $$$                                                                              150                                
PGRFAMCHA061101093710100039002329PB&J Otter                                        EP: 3-046                                                            6068607ECC                              
PRCFAMCHA061101100039100044000005Astral ID (FEB05) $$$                                                                                                       150                                
PRCFAMCHA061101100044100100000016PH - 14 -JOJO/HIGGLY/STANLEY  (:14 - :16) (APR06)                                                                           150                                
PROFAMCHA061101100100100118000018Jojo's Circus - HIP HOP - OCT 06 - Coming Up Next                                                                           150                                
PGRFAMCHA061101100118100303000145They Might Be Giants (ABC's) - D and W                                                                                 60688120                                
PROFAMCHA061101100303100333000030Higglytown - Find Them - PH This morning @ 10:30                                                                            150                                
PRCFAMCHA061101100333100347000014Playhouse - HOZE HOUNDZ - Skater                                                                                            150                                
ID FAMCHA061101100347100400000013PS Playhouse AM Block Open (:10-:15) $$$                                                                                    150                                
PGRFAMCHA061101100400102808002408JoJo's Circus                                     EPS # 18                                                            A6068607E                                
PRCFAMCHA061101102808102824000016PH - 15 -HIGGLY/STANLEY/KING  (:14 - :16) (APR06)                                                                           150                                
PROFAMCHA061101102824102854000030Higglytown - Kids Love - PH Coming Up Next                                                                                  150                                
PROFAMCHA061101102854102950000056Playhouse - STANLEY - Fish Song                                                                                             150                                
PROFAMCHA061101102950103050000100Mickey Mouse Clubhouse (Video 2) Friday morn @ 10:                                                                          150                                
ID FAMCHA061101103050103103000013PS Playhouse AM Block Open (:10-:15) $$$                                                                                    150                                
PGRFAMCHA061101103103105505002402Higglytown Heroes                                 EPS # 14                                                             6068607E                                
PRCFAMCHA061101105505105510000005Astral ID (FEB05) $$$                                                                                                       150                                
PRCFAMCHA061101105510105525000015PH - 16 -STANLEY/KING/RECESS (:14- :16) (APR06) $$                                                                          150                                
PRCFAMCHA061101105525105555000030Stanley - Get Into It (MAR05) - (PH-M/W/F) - Comin                                                                          150                                
PROFAMCHA061101105555105625000030Cranium Hullabaloo $$$ (Oct 23-Dec10)                                                                                 A     150                                
PROFAMCHA061101105625105649000024Little Mermaid - OCT 06 - Trouble - Tomorrow morn                                                                           150                                
ID FAMCHA061101105649105702000013PS Playhouse AM Block Open (:10-:15) $$$                                                                                    150                                
PGRFAMCHA061101105702112107002405Stanley                                           EPS # 1-059                                                         A6068607E                                
PRCFAMCHA061101112107112122000015PH - 17 -KING/RECESS/KIM (:14 - :16) (APR06) $$$                                                                            150                                
PRCFAMCHA061101112122112153000031King (PH) (APR06) - Coming Up Next                                                                                          150                                
PRCFAMCHA061101112153112220000027Playhouse Web Promo - Family.ca                                                                                             150                                
PROFAMCHA061101112220112320000100Mickey Mouse Clubhouse (Video 1) Friday morn @ 10:                                                                          150                                
PGRFAMCHA061101112320112430000110They Might Be Giants (ABC's) - Letter/Not A Letter                                                                     60688120                                
PRCFAMCHA061101112430112445000015Franny's Feet - Bowleriffic (PH-Mon) - (APR06) - M                                                                          150                                
ID FAMCHA061101112445112500000015PS Playhouse AM Block Open (:10-:15) $$$                                                                                    150                                
PRCFAMCHA061101112500112509000009CC Disclaimer - FAST - Generic (:08-:10) $$$                                                                                150                                
PGRFAMCHA061101112509114739002230King                                              EPS # 2-018                                                   B75773A1065607ECC                              
PRCFAMCHA061101114739114744000005Astral ID (FEB05) $$$                                                                                                       150                                
PRCFAMCHA061101114744114757000013MD - 01 - RECESS/KIM (APR06) (:11 - :13) $$$                                                                                150                                
PROFAMCHA061101114757114842000045xxRecess - SNACKS FOR SNITCHES (MD) - (MAY06) - Co                                                                          150                                
PROFAMCHA061101114842114900000018Mad Dash Block Open (:16-:18) APR06 $$$                                                                                     150                                
PGRFAMCHA061101114900121135002235Disney's Recess                                   EP: 1-027                                                            6068607E                                
PRCFAMCHA061101121135121148000013MD - 02 - KIM/WEEKENDERS (APR06) (:11 - :13) $$$                                                                            150                                
PROFAMCHA061101121148121202000014Kim Possible ARM MD (MAY 06) Coming Up Next                                                                                 150                                
PROFAMCHA061101121202121224000022Fillmore! - POLLY (MD) (APR06) - This Afternoon @                                                                           150                                
PROFAMCHA061101121224121249000025xxRecess Sketches OCT 06 - Mikey's World Record -                                                                           150                                
PRCFAMCHA061101121249121258000009MD Bumper - $$$ Ski Race (:07-:09) APR06                                                                                    150                                
PRCFAMCHA061101121258121307000009CC Disclaimer - FAST - Family.ca (:08-:10) $$$                                                                              150                                
PGRFAMCHA061101121307123558002251Disney's Kim Possible                             EP: 1-002                                                           A6068607ECC                              
PRCFAMCHA061101123558123603000005Astral ID (FEB05) $$$                                                                                                       150                                
PRCFAMCHA061101123603123616000013MD - 03 - WEEKENDERS/LLOYD (APR06) (:11 - :13) $$$                                                                          150                                
PROFAMCHA061101123616123641000025xxRecess Sketches OCT 06 - Mikey's World Record -                                                                           150                                
PRCFAMCHA061101123641123658000017MD Bumper - $$$ Shopping Race (:15-:17) APR06                                                                               150                                
PRCFAMCHA061101123658123707000009CC Disclaimer - FAST - Generic (:08-:10) $$$                                                                                150                                
PGRFAMCHA061101123707125957002250Disney's The Weekenders                           EP: 1-004                                                           A6068607ECC                              
PRCFAMCHA061101125957130010000013MD - 04 - LLOYD/BRANDY (APR06) (:11 - :13) $$$                                                                              150                                
PRCFAMCHA061101130010130020000010MD Bumper - $$$ Race Cars (:08-:10) JUNE06 **DNU                                                                            150                                
ID FAMCHA061101130020130028000008Magic of Disney - MAD DASH - Shape (:06-:09) $$$                                                                            150                                
PGRFAMCHA061101130028132321002253Disney's Lloyd In Space                           EP: 35                                                               6068607E                                
PRCFAMCHA061101132321132326000005Astral ID (FEB05) $$$                                                                                                       150                                
PRCFAMCHA061101132326132338000012MD - 05 - BRANDY/LILO (APR06) (:11 - :13) $$$                                                                               150                                
PROFAMCHA061101132338132352000014Kim Possible ARM MD (MAY 06) This afternoon @ 5:05                                                                          150                                
PRCFAMCHA061101132352132400000008MD Bumper - $$$ Ski Race (:07-:09) APR06                                                                                    150                                
ID FAMCHA061101132400132408000008Magic of Disney - MAD DASH - Wipe (:06-:09) $$$                                                                             150                                
PGRFAMCHA061101132408134649002241Disney's Brandy & Mr. Whiskers                    EP: 35                                                               6068607E                                
PRCFAMCHA061101134649134702000013MD - 06 - LILO/FILLMORE! (APR06) (:11 - :13) $$$                                                                            150                                
PROFAMCHA061101134702134719000017Lilo & Stitch (MD) LICK(APR06) - Coming Up Next                                                                             150                                
PROFAMCHA061101134719134742000023xxDave the Barbarian - SNEEZE (MD) - This afternoo                                                                          150                                
PRCFAMCHA061101134742134759000017MD Bumper - $$$ Shopping Race (:15-:17) APR06                                                                               150                                
PGRFAMCHA061101134759141038002239Disney's Lilo & Stitch: The Series                EP: 62                                                               6068607E                                
PRCFAMCHA061101141038141043000005Astral ID (FEB05) $$$                                                                                                       150                                
PRCFAMCHA061101141043141055000012MD - 07 - FILLMORE!/PROUD (APR06) (:11 - :13) $$$                                                                           150                                
PROFAMCHA061101141055141117000022Fillmore! - POLLY (MD) (APR06) - coming up next                                                                             150                                
PROFAMCHA061101141117141151000034Proud Family (JULY06) MOM YELLS (MD) -  This After                                                                          150                                
PRCFAMCHA061101141151141200000009MD Bumper - $$$ Race Cars (:08-:10) JUNE06 **DNU                                                                            150                                
PGRFAMCHA061101141200143438002238Disney's Fillmore!                                EPS # 1-022                                                         A6068607E                                
PRCFAMCHA061101143438143451000013MD - 08 - PROUD/WEEKENDERS (APR06) (:11 - :13) $$$                                                                          150                                
PROFAMCHA061101143451143525000034Proud Family (APR06) GET BURNED (MD) - Coming Up N                                                                          150                                
PROFAMCHA061101143525143550000025xxRecess Sketches OCT 06 - Mikey's World Record -                                                                           150                                
PRCFAMCHA061101143550143559000009MD Bumper - $$$ Ski Race (:07-:09) APR06                                                                                    150                                
PRCFAMCHA061101143559143608000009CC Disclaimer - FAST - Family.ca (:08-:10) $$$                                                                              150                                
PGRFAMCHA061101143608145817002209The Proud Family                                  EP: 1-001                                                           A6068607ECC                              
PRCFAMCHA061101145817145822000005Astral ID (FEB05) $$$                                                                                                       150                                
PRCFAMCHA061101145822145834000012MD - 09 - WEEKENDERS/LLOYD (APR06) (:11 - :13) $$$                                                                          150                                
PROFAMCHA061101145834145910000036Weekenders - PIZZA (MD) - (APR06) - Coming Up Next                                                                          150                                
PROFAMCHA061101145910145947000037xxHappy Feet Contest $$$ (in theatres Nov 17) (Nov                                                                          150                                
PROFAMCHA061101145947150004000017Mad Dash Block Open (:16-:18) APR06 $$$                                                                                     150                                
PRCFAMCHA061101150004150013000009CC Disclaimer - FAST - Generic (:08-:10) $$$                                                                                150                                
PGRFAMCHA061101150013152305002252Disney's The Weekenders                           EP: 1-009                                                           A6068607ECC                              
PRCFAMCHA061101152305152317000012MD - 10 - LLOYD/DAVE (APR06) (:11 - :13) $$$                                                                                150                                
PROFAMCHA061101152317152351000034HSM Karaoke CD - Available Now $$$ (Oct 10-Jan 14)                                                                    A     150                                
PRCFAMCHA061101152351152358000007Family Bumpers - (Phase 2 F/W 04) - Hockey (MD-L/M                                                                          150                                
PROFAMCHA061101152358152444000046xxFlushed Away Contest - In Theatres Nov 3 (Oct 13                                                                    A     150                                
PRCFAMCHA061101152444152500000016MD Bumper - $$$ Shopping Race (:15-:17) APR06                                                                               150                                
ID FAMCHA061101152500152508000008Magic of Disney - MAD DASH - Shape (:06-:09) $$$                                                                            150                                
PGRFAMCHA061101152508154801002253Disney's Lloyd In Space                           EP: 26                                                               6068607E                                
PRCFAMCHA061101154801154806000005Astral ID (FEB05) $$$                                                                                                       150                                
PRCFAMCHA061101154806154818000012MD - 11 - DAVE/PROUD (APR06) (:11 - :13) $$$                                                                                150                                
PROFAMCHA061101154818154841000023xxDave the Barbarian - SNEEZE (MD) - Coming up (JU                                                                          150                                
PROFAMCHA061101154841154926000045Zoey 101 Holiday Chic Boutique Spot (oct 23-jan7)                                                                           150                                
PROFAMCHA061101154926154939000013Family Bumpers - (Phase 2 F/W 04) - Leaves (PB/MD-                                                                          150                                
PROFAMCHA061101154939155004000025xxRecess Sketches OCT 06 - Mikey's World Record -                                                                           150                                
PGRFAMCHA061101155004155134000130Movie Surfers - Santa Clause 3 - Interstitial #2 C                                                                    A60688120                                
PROFAMCHA061101155134155151000017xxEmperor's New School BANK - NSW - Weekend Aft @                                                                           150                                
PRCFAMCHA061101155151155200000009MD Bumper - $$$ Race Cars (:08-:10) JUNE06 **DNU                                                                            150                                
PRCFAMCHA061101155200155209000009CC Disclaimer - FAST - Generic (:08-:10) $$$                                                                                150                                
PGRFAMCHA061101155209161448002239Disney's Dave the Barbarian                       EPS # 05                                                             6068607ECC                              
PRCFAMCHA061101161448161500000012MD - 12 - PROUD/RECESS (APR06) (:11 - :13) $$$                                                                              150                                
PROFAMCHA061101161500161534000034Proud Family (JULY06) MOM YELLS (MD) -  Coming Up                                                                           150                                
PROFAMCHA061101161534161612000038xxCars DVD Avail Nov 7 $$$ (Oct 23 - Nov 6)                                                                                 150                                
PROFAMCHA061101161612161657000045xxRecess - SNACKS FOR SNITCHES (MD) - (MAY06) - Th                                                                          150                                
PRCFAMCHA061101161657161704000007MD Bumper - $$$ Ski Race (:07-:09) APR06                                                                                    150                                
PRCFAMCHA061101161704161713000009CC Disclaimer - FAST - Family.ca (:08-:10) $$$                                                                              150                                
PGRFAMCHA061101161713163949002236The Proud Family                                  EP: 2-038                                                           A6068607ECC                              
PRCFAMCHA061101163949163954000005Astral ID (FEB05) $$$                                                                                                       150                                
PRCFAMCHA061101163954164007000013MD - 13 - RECESS/KIM (APR06) (:11 - :13) $$$                                                                                150                                
PROFAMCHA061101164007164031000024xxRecess - MONTAGE (MD) - JULY06 - Coming Up Next                                                                           150                                
PROFAMCHA061101164031164111000040xxHSM DVD Game Contest - Version 1 $$$ (oct 30-nov                                                                    A     150                                
PROFAMCHA061101164111164123000012xxKim Possible READY - MD (AUG 06) This afternoon                                                                           150                                
PROFAMCHA061101164123164209000046xxFlushed Away Contest - In Theatres Nov 3 (Oct 13                                                                    A     150                                
PROFAMCHA061101164209164239000030xxSuite Life of Z & C -MD Girlfriend 2 - This afte                                                                          150                                
PRCFAMCHA061101164239164256000017MD Bumper - $$$ Shopping Race (:15-:17) APR06                                                                               150                                
PGRFAMCHA061101164256170544002248Disney's Recess                                   EP: 1-059                                                           A6068607E                                
PRCFAMCHA061101170544170557000013MD - 20 (PM-M-TH) - KIM/SUITE (JULY06) (:11-:13) $                                                                          150                                
PROFAMCHA061101170557170611000014Kim Possible ARM MD (MAY 06) Coming Up Next                                                                                 150                                
PROFAMCHA061101170611170651000040xxHSM DVD Game Contest - Version 1 $$$ (oct 30-nov                                                                    A     150                                
PROFAMCHA061101170651170739000048xxSuite Life of Z & C -MD Commercial - This aftern                                                                          150                                
PROFAMCHA061101170739170755000016xxEmperor's New School KOOKOO - NSW - Weekend afte                                                                          150                                
PRCFAMCHA061101170755170804000009MD Bumper - $$$ Race Cars (:08-:10) JUNE06 **DNU                                                                            150                                
PRCFAMCHA061101170804170813000009CC Disclaimer - FAST - Generic (:08-:10) $$$                                                                                150                                
PGRFAMCHA061101170813173106002253Disney's Kim Possible                             EPS # 1-038                                                         A6068607ECC                              
PRCFAMCHA061101173106173111000005Astral ID (FEB05) $$$                                                                                                       150                                
PRCFAMCHA061101173111173123000012MD - 21 (PM-M-TH) - SUITE/LITTLE (JULY06) (:11-:13                                                                          150                                
PROFAMCHA061101173123173153000030xxSuite Life of Z & C -MD Girlfriend 2 - Coming Up                                                                          150                                
PROFAMCHA061101173153173236000043Nintendogs - Dalmation Dog Blog $$$ (Oct 30-Nov 26                                                                    A     150                                
PROFAMCHA061101173236173244000008Family Bumpers - (Phase 2 F/W 04) - Snow Ball (MD-                                                                          150                                
PROFAMCHA061101173244173329000045Zoey 101 Holiday Chic Boutique Spot (oct 23-jan7)                                                                           150                                
PROFAMCHA061101173329173356000027Lizzie McGuire - (Bad Breath) (NSW) (APR06) - Week                                                                          150                                
PRCFAMCHA061101173356173404000008MD Bumper - $$$ Ski Race (:07-:09) APR06                                                                                    150                                
PGRFAMCHA061101173404175643002239Suite Life of Zack and Cody, The - Season 2       EP: 27                                                               6068607E                                
PRCFAMCHA061101175643175655000012NS - 01 - TIME/DARCY (APR06) (:11 - :13) $$$                                                                                150                                
PROFAMCHA061101175655175723000028So Little Time (NS Flat Tire) (APR06) - Coming Up                                                                           150                                
PROFAMCHA061101175723175808000045Zoey 101 Holiday Chic Boutique Spot (oct 23-jan7)                                                                           150                                
PROFAMCHA061101175808175828000020Hannah Montana - NS - SITUPS (Oct06) Fridays @ 5:3                                                                          150                                
PROFAMCHA061101175828175835000007Family Bumpers - (Phase 2 F/W 04) - Snow Twirl (MD                                                                          150                                
PROFAMCHA061101175835175909000034Zoey 101 Fashion Show $$$                                                                                                   150                                
PRCFAMCHA061101175909175942000033Naturally Sadie - New Eps Weekend nights @ 6:05 (t                                                                          150                                
PROFAMCHA061101175942180000000018Nonstop Block Open (:16-:18) APR06 $$$                                                                                      150                                
PGRFAMCHA061101180000182134002134So Little Time                                    EP: 26                                                              A2068607B                                
PRCFAMCHA061101182134182139000005Astral ID (FEB05) $$$                                                                                                       150                                
PRCFAMCHA061101182139182151000012NS - 02 - DARCY/RAVEN (APR06) (:11 - :13) $$$                                                                               150                                
PRCFAMCHA061101182151182200000009Darcy's IDs - Sara - Next (vers. 2 w/puppy)                                                                                 150                                
PROFAMCHA061101182200182246000046xxFlushed Away Contest - In Theatres Nov 3 (Oct 13                                                                    A     150                                
PROFAMCHA061101182246182306000020That's So Raven (JUNE06) NO PANTS (NS) - Tonight @                                                                          150                                
PRCFAMCHA061101182306182455000149xxFamily Lab - Disguise-o-matic (Oct1-Nov5) (2day                                                                           150                                
PROFAMCHA061101182455182522000027xx8 Simple Rules (APR06) (NS) - DAD JUMPS GUN - To                                                                          150                                
PROFAMCHA061101182522182532000010FAMJAM - Open/Close                                                                                                         150                                
PGRFAMCHA061101182532182717000145MV Disney - (MD/NS/NSW) - What I've Been Looking F                                                                     60688120                                
PROFAMCHA061101182717182731000014xxFAMJAM - Close (FAMILY) xxDNUxx                                                                                           150                                
PROFAMCHA061101182731182803000032Sinbad Show NS Dance (SEPT06) Tonight @ 9                                                                                   150                                
PROFAMCHA061101182803182842000039xxLaurentien's Q & A with Zoey 101 Contest $$$                                                                              150                                
PROFAMCHA061101182842182902000020Hannah Montana - NS - SITUPS (Oct06) Fridays @ 5:3                                                                          150                                
PROFAMCHA061101182902182940000038xxNeds DSSG -NS Survivor (OCT06) New Eps Friday ni                                                                          150                                
PROFAMCHA061101182940182947000007Chef Boyardee BB - NS $$$                                                                                             A     150                                
PRCFAMCHA061101182947183003000016NS Bumper $$$- Tennis (:15-:17) APR06                                                                                       150                                
PRCFAMCHA061101183003183012000009CC Disclaimer - FAST - Family.ca (:08-:10) $$$                                                                              150                                
PGRFAMCHA061101183012185142002130Darcy's Wild Life                                 EP: 32                                                        A23421A1065607BCC                              
PRCFAMCHA061101185142185154000012NS - 03 - RAVEN/SMART (APR06) (:11 - :13) $$$                                                                               150                                
PROFAMCHA061101185154185224000030xxThat's So Raven (APR06) LUNCH (NS/M-T) - Coming                                                                           150                                
PROFAMCHA061101185224185307000043Nintendogs - Dalmation Dog Blog $$$ (Oct 30-Nov 26                                                                    A     150                                
PROFAMCHA061101185307185338000031xxSmart Guy FIGHT (JUNE06) NS - Tonight @ 7:30                                                                              150                                
PRCFAMCHA061101185338185352000014xxLife WD Derek Bloopers Season 2 #4 (NS/NSW)                                                                               150                                
PROFAMCHA061101185352185402000010FAMJAM - Open/Close                                                                                                         150                                
PGRFAMCHA061101185402185757000355MV Disney - Come Clean (Hillary Duff)                                                                                  60688120                                
PROFAMCHA061101185757185811000014xxFAMJAM - Close (FAMILY) xxDNUxx                                                                                           150                                
PROFAMCHA061101185811185841000030Phil of the Future THINGS TO COME (NSW) (APR06) -                                                                           150                                
PROFAMCHA061101185841185919000038xxCars DVD Avail Nov 7 $$$ (Oct 23 - Nov 6)                                                                                 150                                
PRCFAMCHA061101185919185946000027Life with Derek NS RESEARCH New Eps Fri @ 6:30 (oc                                                                          150                                
PROFAMCHA061101185946185952000006Raven ID's II - Stay tuned, That's So Raven Coming                                                                          150                                
PRCFAMCHA061101185952190005000013NS Bumper $$$ - Fashion (:12-:14) JUNE06 **DNU                                                                              150                                
PRCFAMCHA061101190005190014000009CC Disclaimer - FAST - Generic (:08-:10) $$$                                                                                150                                
PGRFAMCHA061101190014192253002239That's So Raven                                   EPS # 1-030                                                          6068607BCC                              
PRCFAMCHA061101192253192258000005Astral ID (FEB05) $$$                                                                                                       150                                
PRCFAMCHA061101192258192310000012NS - 04 - SMART/8 SIMPLE (APR06) (:11 - :13) $$$                                                                            150                                
PROFAMCHA061101192310192340000030Smart Guy MOE MUSIC (JUNE06) NS Coming Up Next                                                                              150                                
PROFAMCHA061101192340192414000034HSM Karaoke CD - Available Now $$$ (Oct 10-Jan 14)                                                                    A     150                                
PROFAMCHA061101192414192436000022xx8 Simple Rules (APR06) (NS) - BRIDGET DRUMS - To                                                                          150                                
PROFAMCHA061101192436192446000010FAMJAM - Open/Close                                                                                                         150                                
PGRFAMCHA061101192446192756000310MV Disney - (MD/NS/NSW) - Aly & AJ - Rush                                                                              60688120                                
PROFAMCHA061101192756192810000014xxFAMJAM - Close (FAMILY) xxDNUxx                                                                                           150                                
PRCFAMCHA061101192810192837000027xxLife with Derek NS RESEARCH (OCT06) - Tonight @                                                                           150                                
PROFAMCHA061101192837192911000034Zoey 101 Fashion Show $$$                                                                                                   150                                
PROFAMCHA061101192911192949000038xxNeds DSSG -NS Survivor (OCT06) New Eps Friday ni                                                                          150                                
PROFAMCHA061101192949192956000007Chef Boyardee BB - NS $$$                                                                                             A     150                                
PRCFAMCHA061101192956193004000008NS Bumper $$$ - Dodgeball (:07-:09) APR06                                                                                   150                                
PRCFAMCHA061101193004193013000009CC Disclaimer - FAST - Family.ca (:08-:10) $$$                                                                              150                                
PGRFAMCHA061101193013195238002225Smart Guy                                         EP: 1-017                                                           A6068807BCC                              
PRCFAMCHA061101195238195251000013NS - 05 - 8 SIMPLE/DEREK (SEPT06) (:11 - :13) $$$                                                                           150                                
PROFAMCHA061101195251195318000027xx8 Simple Rules (APR06) (NS) - DAD JUMPS GUN - Co                                                                          150                                
PROFAMCHA061101195318195355000037xxHappy Feet Contest $$$ (in theatres Nov 17) (Nov                                                                          150                                
PRCFAMCHA061101195355195423000028xxLife WD Derek Bloopers Season 2 #5 (NS/NSW)                                                                               150                                
PROFAMCHA061101195423195433000010FAMJAM - Open/Close                                                                                                         150                                
PGRFAMCHA061101195433195703000230MV Disney - (FAMILY HITS 2) - Girl Power (Cheetah                                                                      60688120                                
PROFAMCHA061101195703195717000014xxFAMJAM - Close (FAMILY) xxDNUxx                                                                                           150                                
PROFAMCHA061101195717195749000032Sinbad Show NS Dance (SEPT06) Tonight @ 9                                                                                   150                                
PGRFAMCHA061101195749195919000130Movie Surfers - Santa Clause 3 - Interstitial #2 C                                                                    A60688120                                
PROFAMCHA061101195919195939000020Hannah Montana - NS - SITUPS (Oct06) Fridays @ 5:3                                                                          150                                
PRCFAMCHA061101195939195956000017NS Bumper $$$- Tennis (:15-:17) APR06                                                                                       150                                
PRCFAMCHA061101195956200005000009CC Disclaimer - FAST - Generic (:08-:10) $$$                                                                                150                                
PGRFAMCHA0611012000052021120021078 Simple Rules                                    EP: 41                                                              B2068807BCC                              
PRCFAMCHA061101202112202117000005Astral ID (FEB05) $$$                                                                                                       150                                
PRCFAMCHA061101202117202129000012NS - 06 - DEREK/SINBAD (SEPT06) (:11-:13) $$$                                                                               150                                
PRCFAMCHA061101202129202156000027xxLife with Derek NS RESEARCH (OCT06) - Coming Up                                                                           150                                
PROFAMCHA061101202156202241000045Zoey 101 Holiday Chic Boutique Spot (oct 23-jan7)                                                                           150                                
PROFAMCHA061101202241202318000037Sinbad Show NS Car (NOV06) Tonight@ 9:00                                                                                    150                                
PROFAMCHA061101202318202328000010FAMJAM - Open/Close                                                                                                         150                                
PGRFAMCHA061101202328202613000245MV Disney - Superstition (Raven)                                                                                       60688120                                
PROFAMCHA061101202613202627000014xxFAMJAM - Close (FAMILY) xxDNUxx                                                                                           150                                
PRCFAMCHA061101202627202808000141xxFamily Lab - Anti Gravity Rocket Pack (Oct1-Nov5                                                                          150                                
PROFAMCHA061101202808202839000031xxSmart Guy FIGHT (JUNE06) NS - Tomorrow night @ 7                                                                          150                                
PROFAMCHA061101202839202913000034Zoey 101 Fashion Show $$$                                                                                                   150                                
PROFAMCHA061101202913202940000027Zoey 101 - LOGAN - NSW (MAY06) (may13-aug30) Weeke                                                                          150                                
PROFAMCHA061101202940202947000007Chef Boyardee BB - NS $$$                                                                                             A     150                                
PRCFAMCHA061101202947203000000013NS Bumper $$$ - Fashion (:12-:14) JUNE06 **DNU                                                                              150                                
PRCFAMCHA061101203000203009000009CC Disclaimer - FAST - Family.ca (:08-:10) $$$                                                                              150                                
PGRFAMCHA061101203009205239002230Life With Derek                                   EP: 08                                                        C23968A1055607BCC3                             
PRCFAMCHA061101205239205252000013NS - 07 - SINBAD/BONNIE (SEPT06) (:11-:13) $$$                                                                              150                                
PROFAMCHA061101205252205324000032Sinbad Show NS Dance (SEPT06) Coming Up Next                                                                                150                                
PROFAMCHA061101205324205358000034HSM Karaoke CD - Available Now $$$ (Oct 10-Jan 14)                                                                    A     150                                
PROFAMCHA061101205358205415000017xxPopular (APR06) (PADS) - Tonight @ 10pm                                                                                   150                                
PROFAMCHA061101205415205442000027xx8 Simple Rules (APR06) (NS) - DAD JUMPS GUN - To                                                                          150                                
PROFAMCHA061101205442205452000010FAMJAM - Open/Close                                                                                                         150                                
PGRFAMCHA061101205452205802000310MV Disney - Superstition (Raven)                                                                                       60688120                                
PROFAMCHA061101205802205816000014xxFAMJAM - Close (FAMILY) xxDNUxx                                                                                           150                                
PROFAMCHA061101205816205911000055So Little Time (NS) (APR06) Watching TV - Tomorrow                                                                          150                                
PROFAMCHA061101205911205941000030xxThat's So Raven (APR06) LUNCH (NS/M-T) - Tomorro                                                                          150                                
PRCFAMCHA061101205941205950000009Radio Free Roscoe ID (MAR) - You're Watching Famil                                                                          150                                
PRCFAMCHA061101205950205959000009NS Bumper $$$ - Dodgeball (:07-:09) APR06                                                                                   150                                
PGRFAMCHA061101205959212251002252The Sinbad Show                                   EP: 10                                                               2068507B                                
PRCFAMCHA061101212251212256000005Astral ID (FEB05) $$$                                                                                                       150                                
PRCFAMCHA061101212256212308000012NS - 08 - BONNIE/POPULAR (SEPT06) (:11-:13) $$$                                                                             150                                
PROFAMCHA061101212308212325000017xxPopular (APR06) (PADS) - Tonight @ 10pm                                                                                   150                                
PRCFAMCHA061101212325212344000019Life WD Derek Bloopers Season 2 #6 (NS/NSW)                                                                                 150                                
PRCFAMCHA061101212344212402000018xxLife with Derek NS OJ (SEPT06) Tonight at 11:30p                                                                          150                                
PROFAMCHA061101212402212412000010FAMJAM - Open/Close                                                                                                         150                                
PGRFAMCHA061101212412212727000315MV Disney - Superstition (Raven)                                                                                       60688120                                
PROFAMCHA061101212727212741000014xxFAMJAM - Close (FAMILY) xxDNUxx                                                                                           150                                
PROFAMCHA061101212741212819000038xxNeds DSSG -NS Survivor (OCT06) New Eps Friday ni                                                                          150                                
PROFAMCHA061101212819212853000034HSM Karaoke CD - Available Now $$$ (Oct 10-Jan 14)                                                                    A     150                                
PRCFAMCHA061101212853212926000033xxNaturally Sadie (OCT06) - New Eps Starting Sun @                                                                          150                                
PROFAMCHA061101212926212936000010Phil of the Future IDs - Ricky Typing - log on to                                                                           150                                
PROFAMCHA061101212936212943000007Chef Boyardee BB - NS $$$                                                                                             A     150                                
PRCFAMCHA061101212943213000000017NS Bumper $$$- Tennis (:15-:17) APR06                                                                                       150                                
PGRFAMCHA061101213000215147002147Life With Bonnie                                  EP: 35                                                               2028507B                                
PRCFAMCHA061101215147215159000012NS - 09 - POPULAR/8 SIMPLE (APR06) (:11 - :13) $$$                                                                          150                                
PROFAMCHA061101215159215216000017xxPopular (APR06) (PADS) - Coming Up Next                                                                                   150                                
PROFAMCHA061101215216215226000010FAMJAM - Open/Close                                                                                                         150                                
PGRFAMCHA061101215226215356000130MV Disney - Superstition (Raven)                                                                                       60688120                                
PROFAMCHA061101215356215410000014xxFAMJAM - Close (FAMILY) xxDNUxx                                                                                           150                                
PROFAMCHA061101215410215440000030Smart Guy MOE MUSIC (JUNE06) NS Tomorrow night @ 7                                                                          150                                
PROFAMCHA061101215440215500000020Hannah Montana - NS - SITUPS (Oct06) Fridays @ 5:3                                                                          150                                
PROFAMCHA061101215500215544000044Zoey 101 - PHONE DIARY (NS) (JUNE06) - Friday nigh                                                                          150                                
PROFAMCHA061101215544215554000010FAMJAM - Open/Close                                                                                                         150                                
PGRFAMCHA061101215554215906000312MV Disney - Superstition (Raven)                                                                                       60688120                                
PROFAMCHA061101215906215920000014xxFAMJAM - Close (FAMILY) xxDNUxx                                                                                           150                                
PRCFAMCHA061101215920215947000027Life with Derek NS RESEARCH New Eps Fri @ 6:30 (oc                                                                          150                                
PRCFAMCHA061101215947220000000013NS Bumper $$$ - Fashion (:12-:14) JUNE06 **DNU                                                                              150                                
PGRFAMCHA061101220000224416004416Popular                                           EP: 20                                                              B2068807B                                
PRCFAMCHA061101224416224421000005Astral ID (FEB05) $$$                                                                                                       150                                
PRCFAMCHA061101224421224433000012NS - 10 - 8 SIMPLE/DEREK (SEPT06) (:11 - :13) $$$                                                                           150                                
PROFAMCHA061101224433224500000027xx8 Simple Rules (APR06) (NS) - DAD JUMPS GUN - Co                                                                          150                                
PRCFAMCHA061101224500224649000149xxFamily Lab - Disguise-o-matic (Oct1-Nov5) (2day                                                                           150                                
PRCFAMCHA061101224649224716000027xxLife with Derek NS RESEARCH (OCT06) - Tonight @                                                                           150                                
PGRFAMCHA061101224716225101000345Movie Surfers - Santa Clause 3 - Featurette #1 Com                                                                    A60688120                                
PROFAMCHA061101225101225131000030xxThat's So Raven (APR06) LUNCH (NS/M-T) - Tomorro                                                                          150                                
PRCFAMCHA061101225131225149000018Life WD Derek Bloopers Season 2 #7 (NS/NSW)                                                                                 150                                
PROFAMCHA061101225149225226000037Sinbad Show NS Car (NOV06) Tomorrow @ 9:00                                                                                  150                                
PROFAMCHA061101225226225236000010FAMJAM - Open/Close                                                                                                         150                                
PGRFAMCHA061101225236225546000310MV Disney - Superstition (Raven)                                                                                       60688120                                
PROFAMCHA061101225546225600000014xxFAMJAM - Close (FAMILY) xxDNUxx                                                                                           150                                
PROFAMCHA061101225600225630000030Double Teamed (SEPT12) - Next Friday @ 7:30pm                                                                               150                                
PGRFAMCHA061101225630225814000144xxPlanet Rock Profiles - BNL - One Week           EP: 46                                                              A70687120                                
PROFAMCHA061101225814225848000034Even Stevens - Bad Boys (APR06) - (NSW) - Weekends                                                                          150                                
PROFAMCHA061101225848225922000034HSM Karaoke CD - Available Now $$$ (Oct 10-Jan 14)                                                                    A     150                                
PROFAMCHA061101225922225943000021xxNeds DSSG Rock Idol NSW (MAY06) Weekend mornings                                                                          150                                
PROFAMCHA061101225943225951000008Raven ID's II - Log onto family.ca                                                                                          150                                
PRCFAMCHA061101225951230000000009NS Bumper $$$ - Dodgeball (:07-:09) APR06                                                                                   150                                
PRCFAMCHA061101230000230009000009CC Disclaimer - SLOW - Family.ca (:08-:10) $$$                                                                              150                                
PGRFAMCHA0611012300092321450021368 Simple Rules                                    EP: 48                                                              B2068807BCC                              
PRCFAMCHA061101232145232157000012NS - 11 - DEREK/RADIO (SEPT06) (:11 - :13) $$$                                                                              150                                
PRCFAMCHA061101232157232222000025Life WD Generic ID #1- Casey Coming Up Next                                                                                 150                                
PRCFAMCHA061101232222232240000018Life WD Derek Bloopers Season 2 #8 (NS/NSW)                                                                                 150                                
PROFAMCHA061101232240232335000055So Little Time (NS) (APR06) Watching TV - Tomorrow                                                                          150                                
PROFAMCHA061101232335232406000031xxSmart Guy FIGHT (JUNE06) NS - Tomorrow night @ 7                                                                          150                                
PROFAMCHA061101232406232416000010FAMJAM - Open/Close                                                                                                         150                                
PGRFAMCHA061101232416232701000245MV Disney - Superstition (Raven)                                                                                       60688120                                
PROFAMCHA061101232701232715000014xxFAMJAM - Close (FAMILY) xxDNUxx                                                                                           150                                
PROFAMCHA061101232715232745000030Phil of the Future THINGS TO COME (NSW) (APR06) -                                                                           150                                
PGRFAMCHA061101232745232915000130Movie Surfers - Santa Clause 3 - Interstitial #1 C                                                                    A60688120                                
PRCFAMCHA061101232915232948000033xxNaturally Sadie (OCT06) - New Eps Starting Sun @                                                                          150                                
PRCFAMCHA061101232948233004000016NS Bumper $$$- Tennis (:15-:17) APR06                                                                                       150                                
PRCFAMCHA061101233004233013000009CC Disclaimer - SLOW - Generic (:08-:10) $$$                                                                                150                                
PGRFAMCHA061101233013235243002230Life With Derek                                   EP: 10                                                        C23968A1065607BCC                              
PRCFAMCHA061101235243235248000005Astral ID (FEB05) $$$                                                                                                       150                                
PRCFAMCHA061101235248235300000012NS - 12 - RADIO/SPIDER (SEPT06) (:11 - :13) $$$                                                                             150                                
PRCFAMCHA061101235300235330000030Radio Free Roscoe - (NS/M-Th) (JUNE06) Coming up                                                                            150                                
PRCFAMCHA061101235330235352000022Life WD Derek Bloopers Season 2 #9 (NS/NSW)                                                                                 150                                
PROFAMCHA061101235352235419000027xx8 Simple Rules (APR06) (NS) - DAD JUMPS GUN - To                                                                          150                                
PROFAMCHA061101235419235450000031Even Stevens - Swing (APR06) - (NSW) - Weekends @                                                                           150                                
PROFAMCHA061101235450235500000010FAMJAM - Open/Close                                                                                                         150                                
PGRFAMCHA061101235500235837000337MV Disney - (MD/NS/NSW) - Wake Up (Hilary Duff)                                                                        60688120                                
PROFAMCHA061101235837235851000014xxFAMJAM - Close (FAMILY) xxDNUxx                                                                                           150                                
PROFAMCHA061101235851235923000032Sinbad Show NSW Dance (SEPT06) Weekend morn @ 11:3                                                                          150                                
PRCFAMCHA061101235923235946000023Life with Derek ID - You're Watching - In It Toget                                                                          150                                
PRCFAMCHA061101235946000000000014NS Bumper $$$ - Fashion (:12-:14) JUNE06 **DNU                                                                              150                                
PRCFAMCHA061101000000000009000009CC Disclaimer - SLOW - Family.ca (:08-:10) $$$                                                                              150                                
PGRFAMCHA061101000009002239002230Radio Free Roscoe                                 EPS # 42                                                      A05975A1065607ACC                              
PRCFAMCHA061101002239002251000012NS - 13 - SPIDER (APR06) (:11 - :13) $$$                                                                                    150                                
PROFAMCHA061101002251002311000020That's So Raven (JUNE06) NO PANTS (NS) - Tomorrow                                                                           150                                
PROFAMCHA061101002311002341000030Smart Guy MOE MUSIC (JUNE06) NS Tomorrow night @ 7                                                                          150                                
PROFAMCHA061101002341002351000010FAMJAM - Open/Close                                                                                                         150                                
PGRFAMCHA061101002351002848000457MV Disney - (FAMILY HITS) That's So Raven Theme So                                                                     60688120                                
PROFAMCHA061101002848002902000014xxFAMJAM - Close (FAMILY) xxDNUxx                                                                                           150                                
PRCFAMCHA061101002902002929000027xxLife with Derek NS RESEARCH (OCT06) - Tomorrow @                                                                          150                                
PROFAMCHA061101002929003001000032Sinbad Show NS Dance (SEPT06) Tomorrow @ 9                                                                                  150                                
PRCFAMCHA061101003001003009000008NS Bumper $$$ - Dodgeball (:07-:09) APR06                                                                                   150                                
PGRFAMCHA061101003009005151002142Spiderman                                         EP: 08                                                        C02618 1065607E                                
PRCFAMCHA061101005151005207000016NS Bumper $$$- Tennis (:15-:17) APR06                                                                                       150                                
PROFAMCHA061101005207005245000038xxNeds DSSG -NS Survivor (OCT06) New Eps Friday ni                                                                          150                                
PGRFAMCHA061101005245005630000345Movie Surfers - Santa Clause 3 - Featurette #1 Com                                                                    A60688120                                
PROFAMCHA061101005630005700000030Jetix Combo - Weekend morn @ 6:00 (SEPT 06)                                                                                 150                                
PROFAMCHA061101005700005710000010FAMJAM - Open/Close                                                                                                         150                                
PGRFAMCHA061101005710010047000337MV Disney - Superstition (Raven)                                                                                       60688120                                
PROFAMCHA061101010047010101000014xxFAMJAM - Close (FAMILY) xxDNUxx                                                                                           150                                
PROFAMCHA061101010101010149000048xxSuite Life of Zack & Cody NSW COMMERCIAL (MAY06)                                                                          150                                
PROFAMCHA061101010149010219000030Phil of the Future THINGS TO COME (NSW) (APR06) -                                                                           150                                
PRCFAMCHA061101010219010234000015Astral - LOVE $$$                                                                                                           150                                
SO FAMCHA061101010234010246000012Sign Off                                                                                                                                                       
OFFFAMCHA061101010246043000032714OFF AIR                                                                                                                                                        
SO FAMCHA061102043000043011000011Sign On (oct 1)                                                                                                                                                
PRCFAMCHA061102043011043020000009CC Disclaimer - FAST - Generic (:08-:10) $$$                                                                                150                                
PGRFAMCHA061102043020045658002638Katie And Orbie                                   EP: 6-072                                                     B62275A1065607ECC                              
PRCFAMCHA061102045658045703000005Astral ID (FEB05) $$$                                                                                                       150                                
PRCFAMCHA061102045703045718000015PH - 04 - FRANNY/SOMETHING/HOZE  (:14 - :16) (APR0                                                                          150                                
ID FAMCHA061102045718045731000013PS Playhouse AM Block Open (:10-:15) $$$                                                                                    150                                
PRCFAMCHA061102045731045740000009CC Disclaimer - FAST - Family.ca (:08-:10) $$$                                                                              150                                
PGRFAMCHA061102045740052010002230Franny's Feet                                     EPS # 15                                                      C23971 1065607ECC                              
PRCFAMCHA061102052010052026000016PH - 05 - SOMETHING/HOZE/KING (:14 - :16) (APR06)                                                                           150                                
ID FAMCHA061102052026052039000013PS Playhouse AM Block Open (:10-:15) $$$                                                                                    150                                
PRCFAMCHA061102052039052048000009CC Disclaimer - FAST - Generic (:08-:10) $$$                                                                                150                                
PGRFAMCHA061102052048054319002231Something Else                                    EP: 1-012                                                     B69266A1065607ECC                              
PRCFAMCHA061102054319054324000005Astral ID (FEB05) $$$                                                                                                       150                                
PRCFAMCHA061102054324054340000016PH - 06 - HOZE/KING/SPIDERMAN (:14 - :16) (APR06)                                                                           150                                
ID FAMCHA061102054340054353000013PS Playhouse AM Block Open (:10-:15) $$$                                                                                    150                                
PRCFAMCHA061102054353054402000009CC Disclaimer - FAST - Family.ca (:08-:10) $$$                                                                              150                                
PGRFAMCHA061102054402060636002234Hoze Houndz                                       EP: 3-028                                                     B45769A1065607ECC                              
PRCFAMCHA061102060636060652000016PH - 07 - KING/SPIDERMAN/KIM  (:14 - :16) (APR06)                                                                           150                                
ID FAMCHA061102060652060705000013PS Playhouse AM Block Open (:10-:15) $$$                                                                                    150                                
PRCFAMCHA061102060705060714000009CC Disclaimer - FAST - Generic (:08-:10) $$$                                                                                150                                
PGRFAMCHA061102060714062944002230King                                              EP: 007                                                       B75762A1065607ECC                              
PRCFAMCHA061102062944062949000005Astral ID (FEB05) $$$                                                                                                       150                                
PRCFAMCHA061102062949063005000016PH - 08- SPIDERMAN/KIM ( (:14 - :16) (APR06) $$$                                                                            150                                
PROFAMCHA061102063005063024000019MadMadMornings Block Open $$$                                                                                               150                                
PGRFAMCHA061102063024065203002139Spiderman                                         EP: 20                                                        C02618 1065607E                                
PRCFAMCHA061102065203065219000016MMM - 01 (AM) - KIM/RECESS/WEEKENDERS (OCT05) (:14                                                                          150                                
PROFAMCHA061102065219065233000014Kim Possible ARM (MMM) (MAY 06) Coming Up Next                                                                              150                                
PROFAMCHA061102065233065307000034Zoey 101 Fashion Show $$$                                                                                                   150                                
PROFAMCHA061102065307065343000036Weekenders - PIZZA (MMM) - (APR06) - This Morning                                                                           150                                
PROFAMCHA061102065343065350000007MadMadMornings Bumper                                                                                                       150                                
PROFAMCHA061102065350065400000010FAMJAM - Open/Close                                                                                                         150                                
PGRFAMCHA061102065400065500000100MV Disney - (FAMILY HITS) That's So Raven Theme So                                                                     60688120                                
PROFAMCHA061102065500065514000014xxFAMJAM - Close (FAMILY) xxDNUxx                                                                                           150                                
PROFAMCHA061102065514065531000017Lilo & Stitch (MMM) (APR06) LICK- This Morning @ 8                                                                          150                                
PROFAMCHA061102065531065540000009Raven ID's II - You're Watching Family, NADM                                                                                150                                
PROFAMCHA061102065540065559000019MadMadMornings Block Open $$$                                                                                               150                                
PRCFAMCHA061102065559065608000009CC Disclaimer - FAST - Generic (:08-:10) $$$                                                                                150                                
PGRFAMCHA061102065608071859002251Disney's Kim Possible                             EPS # 1-028                                                         A6068607ECC                              
PRCFAMCHA061102071859071904000005Astral ID (FEB05) $$$                                                                                                       150                                
PRCFAMCHA061102071904071919000015MMM - 02 (AM) - RECESS/WEEKENDERS/LILO (OCT05) (:1                                                                          150                                
PROFAMCHA061102071919071943000024xxRecess - MONTAGE (MMM) - (JULY06) - Coming Up Ne                                                                          150                                
PROFAMCHA061102071943072028000045Zoey 101 Holiday Chic Boutique Spot (oct 23-jan7)                                                                           150                                
PROFAMCHA061102072028072045000017Lilo & Stitch (MMM) (APR06) LICK- This Morning @ 8                                                                          150                                
PRCFAMCHA061102072045072226000141xxFamily Lab - Anti Gravity Rocket Pack (Oct1-Nov5                                                                          150                                
PROFAMCHA061102072226072251000025xxRecess Sketches OCT 06 - Mikey's World Record -                                                                           150                                
PROFAMCHA061102072251072329000038xxCars DVD Avail Nov 7 $$$ (Oct 23 - Nov 6)                                                                                 150                                
PROFAMCHA061102072329072345000016xxEmperor's New School KOOKOO - NSW - Weekend afte                                                                          150                                
PROFAMCHA061102072345072404000019MadMadMornings Block Open $$$                                                                                               150                                
PGRFAMCHA061102072404074654002250Disney's Recess                                   EP: 1-064                                                           A6068607E                                
PRCFAMCHA061102074654074710000016PH - 09 - WEEKENDERS/LILO/EINSTEINS (:14 - :16) (A                                                                          150                                
PROFAMCHA061102074710074746000036Weekenders - PIZZA (MMM) - (APR06) - Coming Up Nex                                                                          150                                
PROFAMCHA061102074746074832000046xxFlushed Away Contest - In Theatres Nov 3 (Oct 13                                                                    A     150                                
PROFAMCHA061102074832074844000012xxKim Possible READY - MD (AUG 06) This afternoon                                                                           150                                
PROFAMCHA061102074844074925000041Brandy & Mr. Whiskers (Earsick] This afternoon @ 1                                                                          150                                
PROFAMCHA061102074925074959000034HSM Karaoke CD - Available Now $$$ (Oct 10-Jan 14)                                                                    A     150                                
PROFAMCHA061102074959075040000041High School Musical (original) Friday @ 7:30 (SEPT                                                                          150                                
PROFAMCHA061102075040075059000019MadMadMornings Block Open $$$                                                                                               150                                
PRCFAMCHA061102075059075108000009CC Disclaimer - FAST - Family.ca (:08-:10) $$$                                                                              150                                
PGRFAMCHA061102075108081354002246Disney's The Weekenders                           EP: 1-027                                                           A6068607ECC                              
PRCFAMCHA061102081354081359000005Astral ID (FEB05) $$$                                                                                                       150                                
PRCFAMCHA061102081359081415000016PH - 10 - LILO/EINSTEINS/WINNIE (:14 - :16) (APR06                                                                          150                                
PROFAMCHA061102081415081432000017Lilo & Stitch (MMM) (APR06) LICK- coming Up Next                                                                            150                                
PROFAMCHA061102081432081517000045Zoey 101 Holiday Chic Boutique Spot (oct 23-jan7)                                                                           150                                
PROFAMCHA061102081517081556000039Lloyd In Space (NOTES) (AUG06) MD- This afternoon                                                                           150                                
PROFAMCHA061102081556081637000041Brandy & Mr. Whiskers (Lifeguard] This afternoon @                                                                          150                                
PROFAMCHA061102081637081714000037xxHappy Feet Contest $$$ (in theatres Nov 17) (Nov                                                                          150                                
PROFAMCHA061102081714081739000025xxRecess Sketches OCT 06 - Mikey's World Record -                                                                           150                                
PROFAMCHA061102081739081758000019MadMadMornings Block Open $$$                                                                                               150                                
PGRFAMCHA061102081758084037002239Disney's Lilo & Stitch                            EPS # 39                                                            A6068607E                                
PRCFAMCHA061102084037084053000016xxPH - 09 -EINSTEINS/WINNIE/PB&J  (:14 - :16) (APR                                                                          150                                
PROFAMCHA061102084053084123000030Little Einstein (PH) (PRESCHOOL) - Coming Up Next                                                                           150                                
PROFAMCHA061102084123084201000038xxCars DVD Avail Nov 7 $$$ (Oct 23 - Nov 6)                                                                                 150                                
PRCFAMCHA061102084201084228000027Playhouse Web Promo - Family.ca                                                                                             150                                
PROFAMCHA061102084228084258000030Cranium Hullabaloo $$$ (Oct 23-Dec10)                                                                                 A     150                                
PROFAMCHA061102084258084441000143Little Mermaid - OCT 06 - Long - This morn @ 10:30                                                                          150                                
ID FAMCHA061102084441084456000015PS Playhouse AM Block Open (:10-:15) $$$                                                                                    150                                
PGRFAMCHA061102084456090901002405Disney's Little Einsteins                         EP: 03                                                               6068607E                                
PRCFAMCHA061102090901090906000005Astral ID (FEB05) $$$                                                                                                       150                                
PRCFAMCHA061102090906090921000015xxPH - 04 - WINNIE/PB&J/JOJO (FEB06) (:14 - 16)                                                                             150                                
PROFAMCHA061102090921090951000030Winnie the Pooh (PH/AM) (APR06) - Coming Up Next                                                                            150                                
PROFAMCHA061102090951091051000100Mickey Mouse Clubhouse (Video 1) Tomorrow morn @ 1                                                                          150                                
ID FAMCHA061102091051091104000013PS Playhouse AM Block Open (:10-:15) $$$                                                                                    150                                
PRCFAMCHA061102091104091113000009CC Disclaimer - FAST - Generic (:08-:10) $$$                                                                                150                                
PGRFAMCHA061102091113093353002240The New Adventures of Winnie the Pooh             EP: 1-012                                                           A6068607ECC                              
PRCFAMCHA061102093353093409000016xxPH - 15 -PB&j/JOJO/MERMAID (:14 - :16) (APR06)                                                                            150                                
PROFAMCHA061102093409093427000018Jojo's Circus - HIP HOP - OCT 06 - This morn @ 10:                                                                          150                                
PRCFAMCHA061102093427093446000019Playhouse - HOZE HOUNDZ - Code Blue                                                                                         150                                
PROFAMCHA061102093446093510000024Little Mermaid - OCT 06 - Trouble - This morn @ 10                                                                          150                                
PROFAMCHA061102093510093547000037Princess Block - Be A Princess (Frog Prince) PH 1                                                                           150                                
PROFAMCHA061102093547093647000100Mickey Mouse Clubhouse (Video 2) Tomorrow morn @ 1                                                                          150                                
ID FAMCHA061102093647093700000013PS Playhouse AM Block Open (:10-:15) $$$                                                                                    150                                
PRCFAMCHA061102093700093709000009CC Disclaimer - FAST - Family.ca (:08-:10) $$$                                                                              150                                
PGRFAMCHA061102093709100038002329PB&J Otter                                        EP: 3-047                                                            6068607ECC                              
