SO FAMCHA020501043000043011000011Sign On (oct 1)                                                                                                                                                
PGRFAMCHA020501043011045331002320Out of the Box                                    Ships Ahoy                                                           60686110                                
ID FAMCHA020501045331045336000005Generic ID - Fingerpaint                                                                                                    150                                
PROFAMCHA020501045336045350000014Art Attack (ART) - Coming Up                                                                                                150                                
PROFAMCHA020501045350045400000010Preschool Line-Up - 01 - ART/KATIE/DUCKTALES                                                                                150                                
PGRFAMCHA020501045400050901001501Art Attack                                        1-016                                                                60686110                                
ID FAMCHA020501050901050906000005Generic ID - Bubbles*                                                                                                       150                                
PROFAMCHA020501050906050923000017Katie and Orbie (OCT2001) - Coming Up                                                                                       150                                
PROFAMCHA020501050923050951000028Art Attack (SCOTSMAN) - Today @ 8am                                                                                         150                                
ID FAMCHA020501050951051011000020Schoolhouse Promo - Coming Up                                                                                               150                                
PROFAMCHA020501051011051051000040Buzz Lightyear (TRANDIBULATOR) - Today @ 7:30am                                                                             150                                
INTFAMCHA020501051051051414000323Schoolhouse Rock - Lolly, Lolly, Lolly Get Your Ad                                                                    A60686120                                
PROFAMCHA020501051414051449000035Legend of Tarzan (PICKS&NIBBLES-D12/WKNDS) - Today                                                                          150                                
PROFAMCHA020501051449051459000010Preschool Line-Up - 02 - KATIE/DUCKTALES/LULU                                                                               150                                
PROFAMCHA020501051459051508000009CC Is Brought To You By - Ian                                                                                               150                                
PGRFAMCHA020501051508054144002636Katie And Orbie                                   The Thunderstorm/The Rabbit and How To Make It Sta            P16140A1065607E                                
ID FAMCHA020501054144054159000015Generic ID - confetti                                                                                                       150                                
PROFAMCHA020501054159054225000026DuckTales (CLIP) - Coming Up                                                                                                150                                
PROFAMCHA020501054225054250000025New Adv of WTP (TREE) - Today @ 10:20am                                                                                     150                                
PROFAMCHA020501054250054300000010Preschool Line-Up - 03 - DUCKTALES/LULU/FRANKLIN                                                                            150                                
PROFAMCHA020501054300054308000008CC Is Brought To You By - Lark **DNU AFTER 09/22**                                                                          150                                
PGRFAMCHA020501054308060552002244Disney's DuckTales                                Frozen Assets (part 2 - Of Super Ducktales)                         A6068607E                                
ID FAMCHA020501060552060602000010Generic ID - confetti                                                                                                       150                                
PROFAMCHA020501060602060615000013Little Lulu (SWEEP) - Coming Up                                                                                             150                                
PROFAMCHA020501060615060650000035Legend of Tarzan (PICKS&NIBBLES-D12/WKNDS) - Today                                                                          150                                
PROFAMCHA020501060650060700000010Preschool Line-Up - 04 - LULU/FRANKLIN/GOOF                                                                                 150                                
PROFAMCHA020501060700060708000008CC Is Brought To You By - Ian **DNU AFTER 09/22**                                                                           150                                
PGRFAMCHA020501060708063101002353Little Lulu Show; The                             Special Delivery/Little Sew and Sews/Tubby's Doll             C19509A1065607ECC                              
ID FAMCHA020501063101063111000010Generic ID - confetti                                                                                                       150                                
PROFAMCHA020501063111063121000010Preschool Line-Up - 05 - FRANKLIN/GOOF/BUZZ                                                                                 150                                
PROFAMCHA020501063121063129000008CC Is Brought To You By - Lark **DNU AFTER 09/22**                                                                          150                                
PGRFAMCHA020501063129065422002253Franklin                                          4-042                                                         B38149A1065607ECC                              
ID FAMCHA020501065422065427000005Generic ID - Couch 1*                                                                                                       150                                
PRCFAMCHA020501065427065441000014Goof Troop (SOUP) - Coming Up                                                                                               150                                
ID FAMCHA020501065441065456000015Schoolhouse Promo - Coming Up                                                                                               150                                
PROFAMCHA020501065456065617000121Elmo's World (FAM2) - Today @ 8:45am                                                                                        150                                
INTFAMCHA020501065617065940000323Schoolhouse Rock - Seven-Fifty Once a Week                                                                            A60686120                                
PROFAMCHA020501065940065950000010Preschool Line-Up - 06 - GOOF/BUZZ/ART                                                                                      150                                
ID FAMCHA020501065950070000000010xxMagic of Disney - V2(sky) - KID FEMALE                                                                                    150                                
PROFAMCHA020501070000070008000008CC Is Brought To You By - Ian **DNU AFTER 09/22**                                                                           150                                
PGRFAMCHA020501070008072254002246Goof Troop                                        Big City Blues                                                      A6068607ECC                              
ID FAMCHA020501072254072259000005Generic ID - Couch 2*                                                                                                       150                                
PROFAMCHA020501072259072322000023Buzz Lightyear (PROTON BURGERS) - Coming Up                                                                                 150                                
PROFAMCHA020501072322072350000028Art Attack (SCOTSMAN) - Today @ 8am                                                                                         150                                
ID FAMCHA020501072350072403000013Schoolhouse Promo - Coming Up                                                                                               150                                
PROFAMCHA020501072403072425000022Stanley (ANTELOPE) - Today @ 9:05am                                                                                         150                                
INTFAMCHA020501072425072748000323Schoolhouse Rock - This For That                                                                                      A60686120                                
PROFAMCHA020501072748072755000007PB&J Otter (AUG2001) - Kite - Today @ 9:30am                                                                                150                                
INTFAMCHA020501072755072940000145Disney Circle Time - The Fox And The Crow (anywher                                                                     60688120                                
PROFAMCHA020501072940072952000012Weekenders (HANG OUT) - Weekends @ 4:40pm                                                                                   150                                
PROFAMCHA020501072952073002000010Preschool Line-Up - 07 - BUZZ/ART/LULU                                                                                      150                                
PROFAMCHA020501073002073010000008CC Is Brought To You By - Lark **DNU AFTER 09/22**                                                                          150                                
PGRFAMCHA020501073010075201002151Disney/Pixar's Buzz Lightyear of Star Command     War and Peace and War                                                6068607ECC                              
ID FAMCHA020501075201075211000010Generic ID - Family w/dog                                                                                                   150                                
PROFAMCHA020501075211075239000028Art Attack (SCOTSMAN) - Coming Up                                                                                           150                                
PROFAMCHA020501075239075254000015Out of the Box - Today @ 10:45am                                                                                            150                                
INTFAMCHA020501075254075704000410MV Disney - (DSH) Colors of the Wind                                                                                   60688120                                
PRCFAMCHA020501075704075727000023Goof Troop (TV) - Weekdays @ 7am                                                                                            150                                
INTFAMCHA020501075727075927000200Disney Circle Time - The Greedy Dog (anywhere but                                                                      60688120                                
PRCFAMCHA020501075927075950000023Franklin (HICCUP) - Today @ 12:25pm                                                                                         150                                
PROFAMCHA020501075950080000000010Preschool Line-Up - 08 - ART/LULU/ELMO                                                                                      150                                
PGRFAMCHA020501080000082005002005Art Attack                                        1-064                                                                60686110                                
ID FAMCHA020501082005082010000005Generic ID - Fingerpaint                                                                                                    150                                
PROFAMCHA020501082010082023000013Little Lulu (SWEEP) - Coming Up                                                                                             150                                
PRCFAMCHA020501082023082050000027Franklin (FIXIT) - Today @ 12:25pm                                                                                          150                                
PROFAMCHA020501082050082100000010Preschool Line-Up - 09 - LULU/ELMO/STANLEY                                                                                  150                                
PROFAMCHA020501082100082108000008CC Is Brought To You By - Ian **DNU AFTER 09/22**                                                                           150                                
PGRFAMCHA020501082108084439002331Little Lulu Show; The                             Involuntary Volunteers, Malpractice Makes Perfect,            B20206A1065607ECC                              
ID FAMCHA020501084439084450000011Generic ID - soccer                                                                                                         150                                
PROFAMCHA020501084450084508000018Elmo's World (FAM3) - Coming Up                                                                                             150                                
PROFAMCHA020501084508084530000022Stanley (ANTELOPE) - Today @ 9:05am                                                                                         150                                
ID FAMCHA020501084530084550000020Schoolhouse Promo - Weekday Mornings                                                                                        150                                
PROFAMCHA020501084550084600000010Preschool Line-Up - 10 - ELMO/STANLEY/PB&J                                                                                  150                                
PGRFAMCHA020501084600090132001532Elmo's World                                      Shoes                                                               A2068607G                                
ID FAMCHA020501090132090137000005Generic ID - Marbles                                                                                                        150                                
PROFAMCHA020501090137090205000028Stanley (ELEPHANT) - Coming Up                                                                                              150                                
PROFAMCHA020501090205090212000007PB&J Otter (AUG2001) - Kite - Today @ 9:30am                                                                                150                                
INTFAMCHA020501090212090437000225Art Attack - Snooker                                                                                                   60686120                                
PROFAMCHA020501090437090452000015Out of the Box - Today @ 10:45am                                                                                            150                                
PROFAMCHA020501090452090502000010Preschool Line-Up - 11 - STANLEY/PB&J/KATIE                                                                                 150                                
PROFAMCHA020501090502090510000008CC Is Brought To You By - Lark **DNU AFTER 09/22**                                                                          150                                
PGRFAMCHA020501090510092906002356Stanley                                           Little Dog Lost                                                     A6068607ECC                              
ID FAMCHA020501092906092916000010Generic ID - Pink inner tube                                                                                                150                                
PROFAMCHA020501092916092939000023PB&J Otter (SNOW) - Coming Up                                                                                               150                                
PROFAMCHA020501092939092951000012Weekenders (HANG OUT) - Weekends @ 4:40pm                                                                                   150                                
PROFAMCHA020501092951093001000010Preschool Line-Up - 12 - PB&J/KATIE/WTP                                                                                     150                                
PROFAMCHA020501093001093009000008CC Is Brought To You By - Ian **DNU AFTER 09/22**                                                                           150                                
PGRFAMCHA020501093009095339002330PB&J Otter                                        Peanut Overboard/Come Back Mama                                      6068607ECC                              
ID FAMCHA020501095339095354000015Generic ID - confetti                                                                                                       150                                
PROFAMCHA020501095354095411000017Katie and Orbie (OCT2001) - Coming Up                                                                                       150                                
PROFAMCHA020501095411095451000040Buzz Lightyear (TRANDIBULATOR) - Today @ 4pm                                                                                150                                
PROFAMCHA020501095451095501000010Preschool Line-Up - 13 - KATIE/WTP/OOTB                                                                                     150                                
PROFAMCHA020501095501095509000008CC Is Brought To You By - Lark **DNU AFTER 09/22**                                                                          150                                
PGRFAMCHA020501095509102144002635Katie And Orbie                                   The Movie/Nasty Night/Dashing Through The Snow                C11896A1065607ECC                              
ID FAMCHA020501102144102155000011Generic ID - soccer                                                                                                         150                                
PROFAMCHA020501102155102220000025New Adv of WTP (TREE) - Coming Up                                                                                           150                                
ID FAMCHA020501102220102240000020Schoolhouse Promo - Weekday Mornings                                                                                        150                                
PROFAMCHA020501102240102250000010Preschool Line-Up - 14 - WTP/OOTB/DUCKTALES                                                                                 150                                
ID FAMCHA020501102250102300000010xxMagic of Disney - V2(sky) - KID MALE                                                                                      150                                
PROFAMCHA020501102300102308000008CC Is Brought To You By - Ian **DNU AFTER 09/22**                                                                           150                                
PGRFAMCHA020501102308104627002319New Adventures of Winnie the Pooh; The            Rabbit Marks The Spot/Good-Bye Mr.Pooh                               6068607ECC                              
ID FAMCHA020501104627104637000010Generic ID - Bubbles                                                                                                        150                                
PROFAMCHA020501104637104652000015Out of the Box - Coming Up                                                                                                  150                                
PROFAMCHA020501104652104702000010Preschool Line-Up - 15 - OOTB/DUCKTALES/HOZE                                                                                150                                
PGRFAMCHA020501104702110907002205Out of the Box                                    Animal Antics                                                        60686110                                
ID FAMCHA020501110907110914000007Generic ID - Whisper*                                                                                                       150                                
PROFAMCHA020501110914110940000026DuckTales (CLIP) - Coming Up                                                                                                150                                
PROFAMCHA020501110940111011000031Hoze Houndz (TEETH) - Today @ 11:35am                                                                                       150                                
PROFAMCHA020501111011111050000039House of Mouse (DOOR) - Weekends @ 3:50pm                                                                                   150                                
PROFAMCHA020501111050111100000010Preschool Line-Up - 16 - DUCKTALES/HOZE/LULU                                                                                150                                
PROFAMCHA020501111100111108000008CC Is Brought To You By - Lark **DNU AFTER 09/22**                                                                          150                                
PGRFAMCHA020501111108113346002238Disney's DuckTales                                The Masked Mallard                                                  A6068607ECC                              
ID FAMCHA020501113346113356000010Generic ID - Bubbles                                                                                                        150                                
PROFAMCHA020501113356113422000026Hoze Houndz (GAS) - Coming Up                                                                                               150                                
PROFAMCHA020501113422113450000028Stanley (ELEPHANT) - Today @ 1:05pm                                                                                         150                                
PROFAMCHA020501113450113500000010Preschool Line-Up - 17 - HOZE/LULU/FRANKLIN                                                                                 150                                
PROFAMCHA020501113500113508000008CC Is Brought To You By - Ian **DNU AFTER 09/22**                                                                           150                                
PGRFAMCHA020501113508115743002235Hoze Houndz                                       Stardumb/Where's The Beef?                                    B34006A1065607ECC                              
ID FAMCHA020501115743115748000005Generic ID - Bubbles*                                                                                                       150                                
PROFAMCHA020501115748115801000013Little Lulu (SWEEP) - Coming Up                                                                                             150                                
PROFAMCHA020501115801115810000009PB&J Otter (AUG2001) - Open - Today @ 1:30pm                                                                                150                                
PROFAMCHA020501115810115850000040Buzz Lightyear (TRANDIBULATOR) - Today @ 4pm                                                                                150                                
PROFAMCHA020501115850115900000010Preschool Line-Up - 18 - LULU/FRANKLIN/ELMO                                                                                 150                                
PROFAMCHA020501115900115908000008CC Is Brought To You By - Lark **DNU AFTER 09/22**                                                                          150                                
PGRFAMCHA020501115908122242002334Little Lulu Show; The                             Castaway Kids, Wrestling Away, Never Too Late                 B20207A1065607ECC                              
ID FAMCHA020501122242122257000015Generic ID - confetti                                                                                                       150                                
PRCFAMCHA020501122257122324000027Franklin (FIXIT) - Coming Up                                                                                                150                                
PROFAMCHA020501122324122350000026Hoze Houndz (GAS) - Today @ 3:35pm                                                                                          150                                
PROFAMCHA020501122350122400000010Preschool Line-Up - 19 - FRANKLIN/ELMO/STANLEY                                                                              150                                
PROFAMCHA020501122400122408000008CC Is Brought To You By - Ian **DNU AFTER 09/22**                                                                           150                                
PGRFAMCHA020501122408124701002253Franklin                                          Sailboats/Snoops                                              B38150A1065607ECC                              
ID FAMCHA020501124701124711000010Generic ID - confetti                                                                                                       150                                
PROFAMCHA020501124711124737000026Elmo's World (FAM1) - Coming Up                                                                                             150                                
ID FAMCHA020501124737124750000013Schoolhouse Promo - Weekday Mornings                                                                                        150                                
PROFAMCHA020501124750124800000010Preschool Line-Up - 20 - ELMO/STANLEY/PB&J                                                                                  150                                
PGRFAMCHA020501124800130318001518Elmo's World                                      Hats                                                                A2068607G                                
ID FAMCHA020501130318130328000010Generic ID - Bubbles                                                                                                        150                                
PROFAMCHA020501130328130350000022Stanley (ANTELOPE) - Coming Up                                                                                              150                                
PROFAMCHA020501130350130409000019House of Mouse (PINOCCHIO) - Weekends @ 3:50pm                                                                              150                                
INTFAMCHA020501130409130636000227Disney Moments - Dumbo-Song Of The Roustabouts                                                                         60688120                                
PROFAMCHA020501130636130650000014Art Attack (ART) - Weekdays @ 8am                                                                                           150                                
PROFAMCHA020501130650130700000010Preschool Line-Up - 21 - STANLEY/PB&J/KATIE                                                                                 150                                
PROFAMCHA020501130700130708000008CC Is Brought To You By - Lark **DNU AFTER 09/22**                                                                          150                                
PGRFAMCHA020501130708133107002359Stanley                                           Snow Monkey See, Snow Monkey Do/Sick Day Stanley                    A6068607ECC                              
ID FAMCHA020501133107133112000005Generic ID - Couch 2*                                                                                                       150                                
PROFAMCHA020501133112133135000023PB&J Otter (SNOW) - Coming Up                                                                                               150                                
PROFAMCHA020501133135133150000015Out of the Box - Today @ 2:45pm                                                                                             150                                
PROFAMCHA020501133150133200000010Preschool Line-Up - 22 - PB&J/KATIE/WTP                                                                                     150                                
PROFAMCHA020501133200133208000008CC Is Brought To You By - Ian **DNU AFTER 09/22**                                                                           150                                
PGRFAMCHA020501133208135538002330PB&J Otter                                        A Hoohaw Halloween                                                   6068607ECC                              
ID FAMCHA020501135538135548000010Generic ID - Family w/dog                                                                                                   150                                
PROFAMCHA020501135548135605000017Katie and Orbie (OCT2001) - Coming Up                                                                                       150                                
PROFAMCHA020501135605135635000030House of Mouse (MAR2002) - Weekends @ 3:50pm                                                                                150                                
PROFAMCHA020501135635135650000015Out of the Box - Today @ 2:45pm                                                                                             150                                
PROFAMCHA020501135650135700000010Preschool Line-Up - 23 - KATIE/WTP/OOTB                                                                                     150                                
PROFAMCHA020501135700135708000008CC Is Brought To You By - Lark **DNU AFTER 09/22**                                                                          150                                
PGRFAMCHA020501135708142343002635Katie And Orbie                                   The Umbrella/Great Idea/Everybody Counts                      C11896A1065607ECC                              
ID FAMCHA020501142343142348000005Generic ID - Fingerpaint                                                                                                    150                                
PROFAMCHA020501142348142413000025New Adv of WTP (TREE) - Coming Up                                                                                           150                                
PRCFAMCHA020501142413142440000027Franklin (SUB) - Weekdays @ 12:25pm                                                                                         150                                
PROFAMCHA020501142440142450000010Preschool Line-Up - 24 - WTP/OOTB/DUCKTALES                                                                                 150                                
ID FAMCHA020501142450142500000010xxMagic of Disney - V3(water) - TEEN FEMALE                                                                                 150                                
PROFAMCHA020501142500142508000008CC Is Brought To You By - Ian **DNU AFTER 09/22**                                                                           150                                
PGRFAMCHA020501142508144820002312New Adventures of Winnie the Pooh; The            Bubble Trouble/Ground Piglet Day                                    A6068607ECC                              
ID FAMCHA020501144820144835000015Generic ID - confetti                                                                                                       150                                
PROFAMCHA020501144835144850000015Out of the Box - Coming Up                                                                                                  150                                
PROFAMCHA020501144850144900000010Preschool Line-Up - 25 - OOTB/DUCKTALES/HOZE                                                                                150                                
PGRFAMCHA020501144900151150002250Out of the Box                                    Tube Town                                                            60686110                                
ID FAMCHA020501151150151155000005Generic ID - Marbles                                                                                                        150                                
PROFAMCHA020501151155151221000026DuckTales (CLIP) - Coming Up                                                                                                150                                
PROFAMCHA020501151221151250000029House of Mouse (HATS) - Weekends @ 3:50pm                                                                                   150                                
PROFAMCHA020501151250151300000010Preschool Line-Up - 26 - DUCKTALES/HOZE/BUZZ                                                                                150                                
PROFAMCHA020501151300151308000008CC Is Brought To You By - Lark **DNU AFTER 09/22**                                                                          150                                
PGRFAMCHA020501151308153553002245Disney's DuckTales                                Duck Mountain High                                                  A6068607ECC                              
ID FAMCHA020501153553153608000015Generic ID - confetti                                                                                                       150                                
PROFAMCHA020501153608153626000018Hoze Houndz (FOOD) - Coming Up                                                                                              150                                
PROFAMCHA020501153626153651000025SPDF - MAY05 - Sunday @ 12pm                                                                                                150                                
PROFAMCHA020501153651153701000010Preschool Line-Up - 27 - HOZE/BUZZ                                                                                          150                                
PROFAMCHA020501153701153709000008CC Is Brought To You By - Ian **DNU AFTER 09/22**                                                                           150                                
PGRFAMCHA020501153709155944002235Hoze Houndz                                       Hozer's Angels/Veggie Houndz                                  B34007 1065607ECC                              
ID FAMCHA020501155944155950000006Generic ID - soccer                                                                                                         150                                
ID FAMCHA020501155950160000000010xxMagic of Disney - V3(water) - TEEN MALE                                                                                   150                                
PROFAMCHA020501160000160030000030Disney's One Too - Opening                                                                                                  150                                
PGRFAMCHA020501160030162313002243Disney/Pixar's Buzz Lightyear of Star Command     Return to Karn                                                      A6068607E                                
ID FAMCHA020501162313162324000011Generic ID - soccer                                                                                                         150                                
PROFAMCHA020501162324162401000037Motocrossed - Saturday @ 9pm                                                                                                150                                
PROFAMCHA020501162401162431000030Famous Jett Jackson - Tonight @ 7pm (WKNGHTS)                                                                               150                                
INTFAMCHA020501162431162601000130Family X-Periment - Ep.03: Nic's Alma Mater                                                                           A10656120                                
PROFAMCHA020501162601162618000017Recess (TATTLETALE-D12/WKNDS) - Today @ 5:30pm                                                                              150                                
PROFAMCHA020501162618162655000037California Dreamin' Contest - Generic Spot                                                                                  150                                
INTFAMCHA020501162655162825000130Klootz - Olympics 06                                                                                                  A10658120                                
PROFAMCHA020501162825162912000047Amanda Show (DOG) - Tonight @ 6pm                                                                                           150                                
PROFAMCHA020501162912162942000030Little Shop of Horrors - Friday @ 9pm                                                                                       150                                
ID FAMCHA020501162942163000000018Afternoon block pinball open                                                                                                150                                
PROFAMCHA020501163000163030000030Disney's One Too - Opening                                                                                                  150                                
PROFAMCHA020501163030163038000008CC Is Brought To You By - Games                                                                                             150                                
PGRFAMCHA020501163038165325002247Disney's Pepper Ann                               The Big Pencil/Sani-Paper                                            6068607ECC                              
ID FAMCHA020501165325165331000006Generic ID - soccer                                                                                                         150                                
PROFAMCHA020501165331165401000030Little Shop of Horrors - Friday @ 9pm                                                                                       150                                
PROFAMCHA020501165401165436000035Legend of Tarzan (PICKS&NIBBLES-D12/WKNDS) - Comin                                                                          150                                
INTFAMCHA020501165436165606000130Family X-Periment - Ep.04: The Fisherman's Friend                                                                     A10656120                                
PROFAMCHA020501165606165805000159Your Big Break (BOYZIIMEN) - Sunday @ 8pm                                                                                   150                                
PROFAMCHA020501165805165842000037California Dreamin' Contest - Generic Spot                                                                                  150                                
PROFAMCHA020501165842165907000025Weekenders (TOAST) - Weekends @ 4:40pm                                                                                      150                                
PROFAMCHA020501165907165932000025SPDF - MAY05 - Sunday @ 12pm                                                                                                150                                
PRCFAMCHA020501165932165942000010Morning Block menu background (flex time)                                                                                   150                                
ID FAMCHA020501165942170000000018Afternoon block pinball open                                                                                                150                                
PROFAMCHA020501170000170030000030Disney's One Too - Opening                                                                                                  150                                
PGRFAMCHA020501170030172315002245Disney's The Legend of Tarzan                     Seeds of Destruction                                                A6068607E                                
ID FAMCHA020501172315172322000007Generic ID - Whisper*                                                                                                       150                                
PROFAMCHA020501172322172359000037Motocrossed - Saturday @ 9pm                                                                                                150                                
PROFAMCHA020501172359172428000029Recess (COOL VINCE-D12/WKNDS) - Coming Up                                                                                   150                                
INTFAMCHA020501172428172558000130Family X-Periment - Ep.05: The Phenomenon                                                                             A10656120                                
PROFAMCHA020501172558172628000030Lizzie McGuire (KATE) - Weekends @ 8am                                                                                      150                                
PROFAMCHA020501172628172705000037California Dreamin' Contest - Generic Spot                                                                                  150                                
PROFAMCHA020501172705172726000021xxSmart Guy (KEYBOARD) - Weekends @ 7:30am **DNU*                                                                           150                                
INTFAMCHA020501172726172747000021Recess Sketches - Gretchen's Inventions - Mirro Gr                                                                     60686120                                
PROFAMCHA020501172747172759000012Weekenders (HANG OUT) - Weekends @ 4:40pm                                                                                   150                                
INTFAMCHA020501172759172903000104Jack and Marcel: Ep.093 "Baby Foot"                                                                                   A40688120                                
PROFAMCHA020501172903172933000030Little Shop of Horrors - Friday @ 9pm                                                                                       150                                
PRCFAMCHA020501172933172942000009Morning Block menu background (flex time)                                                                                   150                                
ID FAMCHA020501172942173000000018Afternoon block pinball open                                                                                                150                                
PROFAMCHA020501173000173030000030Disney's One Too - Opening                                                                                                  150                                
PGRFAMCHA020501173030175305002235Disney's Recess                                   Old Folks Home/Some Friend                                          A6068607E                                
ID FAMCHA020501175305175315000010Generic ID - Bubbles                                                                                                        150                                
PROFAMCHA020501175315175345000030Little Shop of Horrors - Friday @ 9pm                                                                                       150                                
PROFAMCHA020501175345175422000037Amanda Show (CLEAN) - Coming Up                                                                                             150                                
PROFAMCHA020501175422175452000030Famous Jett Jackson - Tonight @ 7pm (WKNGHTS)                                                                               150                                
INTFAMCHA020501175452175622000130Family X-Periment - Ep.03: Nic's Alma Mater                                                                           A10656120                                
PROFAMCHA020501175622175649000027Even Stevens (DREAM) - Tonight @ 6:30pm                                                                                     150                                
PROFAMCHA020501175649175809000120Your Big Break (HOOTIE) - Sunday @ 8pm                                                                                      150                                
PROFAMCHA020501175809175848000039California Dreamin' Contest - Question #3                                                                                   150                                
PROFAMCHA020501175848175914000026xxSmart Guy (PENGUIN) - Weekends @ 7:30am **DNU**                                                                           150                                
PROFAMCHA020501175914175939000025SPDF - MAY05 - Sunday @ 12pm                                                                                                150                                
ID FAMCHA020501175939180000000021Prime time open count down                                                                                                  150                                
PGRFAMCHA020501180000182205002205Amanda Show; The                                  2-038                                                               A20286090                                
ID FAMCHA020501182205182210000005Generic ID - Bubbles*                                                                                                       150                                
PROFAMCHA020501182210182247000037Motocrossed - Saturday @ 9pm                                                                                                150                                
PROFAMCHA020501182247182314000027Even Stevens (DREAM) - Coming Up                                                                                            150                                
PROFAMCHA020501182314182344000030Are You Afraid of the Dark? (PT.1) - Tonight @ 8:4                                                                          150                                
INTFAMCHA020501182344182514000130Family X-Periment - Ep.04: The Fisherman's Friend                                                                     A10656120                                
PROFAMCHA020501182514182551000037California Dreamin' Contest - Generic Spot                                                                                  150                                
PROFAMCHA020501182551182620000029Amanda Show (HILLBILLY) - Weeknights @ 6pm                                                                                  150                                
INTFAMCHA020501182620182910000250Art Attack - Lentil Dragon                                                                                             60686120                                
PROFAMCHA020501182910182940000030Little Shop of Horrors - Friday @ 9pm                                                                                       150                                
PRCFAMCHA020501182940182950000010Morning Block menu background (flex time)                                                                                   150                                
ID FAMCHA020501182950183000000010xxMagic of Disney - V4 - ADULT FEMALE                                                                                       150                                
PROFAMCHA020501183000183008000008CC Is Brought To You By - Click Club                                                                                        150                                
PGRFAMCHA020501183008185250002242Even Stevens                                      Get A Job                                                           A6068807BCC                              
ID FAMCHA020501185250185300000010Generic ID - Bubbles                                                                                                        150                                
PROFAMCHA020501185300185330000030Little Shop of Horrors - Friday @ 9pm                                                                                       150                                
PROFAMCHA020501185330185400000030Famous Jett Jackson - Coming Up                                                                                             150                                
PROFAMCHA020501185400185430000030Nightmare Ned (SLEEP) - Weekends @ 3:25pm                                                                                   150                                
INTFAMCHA020501185430185600000130Family X-Periment - Ep.05: The Phenomenon                                                                             A10656120                                
PROFAMCHA020501185600185800000200Your Big Break (JANET) - Sunday @ 8pm                                                                                       150                                
INTFAMCHA020501185800185904000104Jack and Marcel: Ep.101 "Allergy"                                                                                     A40688120                                
PROFAMCHA020501185904185929000025SPDF - MAY05 - Sunday @ 12pm                                                                                                150                                
PRCFAMCHA020501185929185939000010Morning Block menu background (flex time)                                                                                   150                                
ID FAMCHA020501185939190000000021Prime time open count down                                                                                                  150                                
PROFAMCHA020501190000190008000008CC Is Brought To You By - Games                                                                                             150                                
PGRFAMCHA020501190008192441002433Famous Jett Jackson; The                          Field of Dweebs                                               B57119 1065607ACC                              
ID FAMCHA020501192441192451000010Generic ID - confetti                                                                                                       150                                
PROFAMCHA020501192451192528000037Motocrossed - Saturday @ 9pm                                                                                                150                                
PROFAMCHA020501192528192728000200Your Big Break (BRITNEY) - Sunday @ 8pm                                                                                     150                                
INTFAMCHA020501192728192858000130Family X-Periment - Ep.03: Nic's Alma Mater                                                                           A10656120                                
PROFAMCHA020501192858192928000030Little Shop of Horrors - Friday @ 9pm                                                                                       150                                
PRCFAMCHA020501192928192939000011Morning Block menu background (flex time)                                                                                   150                                
ID FAMCHA020501192939193000000021Prime time open count down                                                                                                  150                                
PROFAMCHA020501193000193008000008CC Is Brought To You By - Click Club                                                                                        150                                
PGRFAMCHA020501193008195137002129ALF                                               Running Scared                                                      A2068807BCC                              
ID FAMCHA020501195137195142000005Generic ID - Couch 1*                                                                                                       150                                
PROFAMCHA020501195142195212000030Little Shop of Horrors - Friday @ 9pm                                                                                       150                                
PROFAMCHA020501195212195236000024Honey, I Shrunk the Kids (AUG2001) - Coming Up                                                                              150                                
PROFAMCHA020501195236195246000010MV FAMJAM - Teaser (Generic)                                                                                                150                                
PROFAMCHA020501195246195323000037California Dreamin' Contest - Generic Spot                                                                                  150                                
INTFAMCHA020501195323195713000350xMV - Move It Like This (Baha Men)                                                                                    A20688120                                
PROFAMCHA020501195713195723000010MV Web Throw - music@family.ca                                                                                              150                                
PROFAMCHA020501195723195745000022Even Stevens (KARAOKE) - Weeknights @ 6:30pm                                                                                150                                
INTFAMCHA020501195745195915000130Family X-Periment - Ep.04: The Fisherman's Friend                                                                     A10656120                                
PROFAMCHA020501195915195940000025SPDF - MAY05 - Sunday @ 12pm                                                                                                150                                
PRCFAMCHA020501195940195950000010Morning Block menu background (flex time)                                                                                   150                                
ID FAMCHA020501195950200000000010xxMagic of Disney - V4 - ADULT MALE                                                                                         150                                
PGRFAMCHA020501200000204238004238Disney's Honey, I Shrunk The Kids: The TV Show    I'm In The Mood For Love                                             6068807B                                
ID FAMCHA020501204238204245000007Generic ID - Whisper*                                                                                                       150                                
PROFAMCHA020501204245204322000037Motocrossed - Saturday @ 9pm                                                                                                150                                
PROFAMCHA020501204322204409000047Amanda Show (HAM) - Weeknights @ 6pm                                                                                        150                                
PROFAMCHA020501204409204439000030Little Shop of Horrors - Friday @ 9pm                                                                                       150                                
ID FAMCHA020501204439204500000021Prime time open count down                                                                                                  150                                
PROFAMCHA020501204500204508000008CC Is Brought To You By - Games                                                                                             150                                
PGRFAMCHA020501204508205836001328Are You Afraid of the Dark?                       Secret Admirer Pt.1                                           SR0307A1066807ACC                              
ID FAMCHA020501205836205846000010Generic ID - Family w/dog                                                                                                   150                                
PROFAMCHA020501205846205916000030Little Shop of Horrors - Friday @ 9pm                                                                                       150                                
PROFAMCHA020501205916205941000025SPDF - MAY05 - Sunday @ 12pm                                                                                                150                                
ID FAMCHA020501205941210001000020Move open family size movie                                                                                                 150                                
PROFAMCHA020501210001210008000007Rating - PG - Ian                                                                                                           150                                
PGRFAMCHA020501210008223235013227My Favorite Year                                                                                                      B2068807D                                
ID FAMCHA020501223235223240000005Generic ID - Fingerpaint                                                                                                    150                                
PROFAMCHA020501223240223248000008CC Is Brought To You By - Click Club                                                                                        150                                
PGRFAMCHA020501223248224648001400Are You Afraid of the Dark?                       Secret Admirer Pt.2                                           SR0307A1066807ACC                              
ID FAMCHA020501224648224653000005Generic ID - Couch 1*                                                                                                       150                                
ID FAMCHA020501224653224713000020Move open family size movie                                                                                                 150                                
PROFAMCHA020501224713224721000008Rating - PG - Lark                                                                                                          150                                
PGRFAMCHA020501224721001743013022Strange Brew                                                                                                          B2068807D                                
ID FAMCHA020501001743001748000005Generic ID - Marbles                                                                                                        150                                
PROFAMCHA020501001748001756000008CC Is Brought To You By - Games                                                                                             150                                
PGRFAMCHA020501001756003925002129ALF                                               Running Scared                                                      A2068807BCC                              
ID FAMCHA020501003925003930000005Generic ID - Bubbles*                                                                                                       150                                
PGRFAMCHA020501003930010402002432Are You Afraid Of The Dark?                       The Tale of the Nightly Neighbours                            SR0302 1066807A                                
SO FAMCHA020501010402010414000012Sign Off (oct 1)                                                                                                                                               
OFFFAMCHA020501010414043000032546                                                                                                                                                               
SO FAMCHA020502043000043011000011Sign On (oct 1)                                                                                                                                                
PGRFAMCHA020502043011045241002230Out of the Box                                    High Fliers                                                          60686110                                
ID FAMCHA020502045241045251000010Generic ID - Bubbles                                                                                                        150                                
PROFAMCHA020502045251045305000014Art Attack (ART) - Coming Up                                                                                                150                                
PROFAMCHA020502045305045322000017Katie and Orbie (OCT2001) - Today @ 5:15am                                                                                  150                                
PROFAMCHA020502045322045350000028Stanley (ELEPHANT) - Today @ 9:05am                                                                                         150                                
PROFAMCHA020502045350045400000010Preschool Line-Up - 01 - ART/KATIE/DUCKTALES                                                                                150                                
PGRFAMCHA020502045400050914001514Art Attack                                        1-017                                                                60686110                                
ID FAMCHA020502050914050924000010Generic ID - Family w/dog                                                                                                   150                                
PROFAMCHA020502050924050941000017Katie and Orbie (OCT2001) - Coming Up                                                                                       150                                
ID FAMCHA020502050941051001000020Schoolhouse Promo - Coming Up                                                                                               150                                
PROFAMCHA020502051001051027000026Elmo's World (FAM1) - Today @ 8:45am                                                                                        150                                
INTFAMCHA020502051027051350000323Schoolhouse Rock - The Energy Blues                                                                                   A60686120                                
PROFAMCHA020502051350051419000029House of Mouse (HATS) - Weekends @ 3:50pm                                                                                   150                                
PROFAMCHA020502051419051450000031Hoze Houndz (TEETH) - Today @ 11:35am                                                                                       150                                
PROFAMCHA020502051450051500000010Preschool Line-Up - 02 - KATIE/DUCKTALES/LULU                                                                               150                                
PROFAMCHA020502051500051508000008CC Is Brought To You By - Ian **DNU AFTER 09/22**                                                                           150                                
PGRFAMCHA020502051508054146002638Katie And Orbie                                   Yee Ping/6 Cents Doesn't Go That Far/Mrs Parette's            P16141A1065607E                                
ID FAMCHA020502054146054156000010Generic ID - Hula Hoop                                                                                                      150                                
PROFAMCHA020502054156054222000026DuckTales (CLIP) - Coming Up                                                                                                150                                
PROFAMCHA020502054222054250000028Stanley (ELEPHANT) - Today @ 9:05am                                                                                         150                                
PROFAMCHA020502054250054300000010Preschool Line-Up - 03 - DUCKTALES/LULU/FRANKLIN                                                                            150                                
PROFAMCHA020502054300054308000008CC Is Brought To You By - Lark **DNU AFTER 09/22**                                                                          150                                
PGRFAMCHA020502054308060546002238Disney's DuckTales                                Billionaire Beagle Boys Club(part 4-Of Super Duckt                  A6068607ECC                              
ID FAMCHA020502060546060556000010Generic ID - Hula Hoop                                                                                                      150                                
PROFAMCHA020502060556060609000013Little Lulu (SWEEP) - Coming Up                                                                                             150                                
PRCFAMCHA020502060609060632000023Franklin (HICCUP) - Today @ 6:30am                                                                                          150                                
PROFAMCHA020502060632060650000018Elmo's World (FAM3) - Today @ 8:45am                                                                                        150                                
PROFAMCHA020502060650060700000010Preschool Line-Up - 04 - LULU/FRANKLIN/GOOF                                                                                 150                                
PROFAMCHA020502060700060708000008CC Is Brought To You By - Ian **DNU AFTER 09/22**                                                                           150                                
PGRFAMCHA020502060708063100002352Little Lulu Show; The                             Tuxedo Tango/The Football Star/Spook Delivery                 C19511A1065607ECC                              
ID FAMCHA020502063100063105000005Generic ID - Marbles                                                                                                        150                                
PROFAMCHA020502063105063115000010Preschool Line-Up - 05 - FRANKLIN/GOOF/BUZZ                                                                                 150                                
PROFAMCHA020502063115063123000008CC Is Brought To You By - Lark **DNU AFTER 09/22**                                                                          150                                
PGRFAMCHA020502063123065416002253Franklin                                          Father/Plays Hockey                                           B38151A1065607ECC                              
ID FAMCHA020502065416065426000010Generic ID - Pink inner tube                                                                                                150                                
PRCFAMCHA020502065426065445000019Goof Troop (TENNIS) - Coming Up                                                                                             150                                
ID FAMCHA020502065445065458000013Schoolhouse Promo - Coming Up                                                                                               150                                
PROFAMCHA020502065458065520000022Stanley (ANTELOPE) - Today @ 9:05am                                                                                         150                                
INTFAMCHA020502065520065843000323Schoolhouse Rock - Seven-Fifty Once a Week                                                                            A60686120                                
INTFAMCHA020502065843065940000057Frankenguy and the Professor - sleepy                                                                                  60688120                                
PROFAMCHA020502065940065950000010Preschool Line-Up - 06 - GOOF/BUZZ/ART                                                                                      150                                
ID FAMCHA020502065950070000000010xxMagic of Disney - V3(water) - KID MALE                                                                                    150                                
PROFAMCHA020502070000070008000008CC Is Brought To You By - Ian **DNU AFTER 09/22**                                                                           150                                
PGRFAMCHA020502070008072257002249Goof Troop                                        Rally Round The Goof                                                 6068607ECC                              
ID FAMCHA020502072257072303000006Generic ID - soccer                                                                                                         150                                
PROFAMCHA020502072303072326000023Buzz Lightyear (PROTON BURGERS) - Coming Up                                                                                 150                                
ID FAMCHA020502072326072339000013Schoolhouse Promo - Coming Up                                                                                               150                                
PROFAMCHA020502072339072418000039House of Mouse (DOOR) - Weekends @ 3:50pm                                                                                   150                                
INTFAMCHA020502072418072741000323Schoolhouse Rock - Lucky Seven Sampson                                                                                A60686120                                
PROFAMCHA020502072741072902000121Elmo's World (FAM2) - Today @ 8:45am                                                                                        150                                
PROFAMCHA020502072902072927000025New Adv of WTP (TREE) - Today @ 10:20am                                                                                     150                                
PROFAMCHA020502072927072950000023PB&J Otter (SNOW) - Today @ 9:30am                                                                                          150                                
PROFAMCHA020502072950073000000010Preschool Line-Up - 07 - BUZZ/ART/LULU                                                                                      150                                
PROFAMCHA020502073000073008000008CC Is Brought To You By - Lark **DNU AFTER 09/22**                                                                          150                                
PGRFAMCHA020502073008075251002243Disney/Pixar's Buzz Lightyear of Star Command     Lost In Time                                                        A6068607E                                
ID FAMCHA020502075251075301000010Generic ID - confetti                                                                                                       150                                
PROFAMCHA020502075301075315000014Art Attack (ART) - Coming Up                                                                                                150                                
PROFAMCHA020502075315075333000018Elmo's World (FAM3) - Today @ 8:45am                                                                                        150                                
INTFAMCHA020502075333075732000359MV Disney - (DSH) Beauty and the Beast                                                                                 60688120                                
PROFAMCHA020502075732075750000018Hoze Houndz (FOOD) - Today @ 11:35am                                                                                        150                                
INTFAMCHA020502075750075950000200Disney Circle Time - The Greedy Dog (anywhere but                                                                      60688120                                
PROFAMCHA020502075950080000000010Preschool Line-Up - 08 - ART/LULU/ELMO                                                                                      150                                
PGRFAMCHA020502080000082000002000Art Attack                                        1-065                                                                60686110                                
ID FAMCHA020502082000082010000010Generic ID - Family w/dog                                                                                                   150                                
PROFAMCHA020502082010082023000013Little Lulu (SWEEP) - Coming Up                                                                                             150                                
PROFAMCHA020502082023082051000028Stanley (ELEPHANT) - Today @ 9:05am                                                                                         150                                
PROFAMCHA020502082051082101000010Preschool Line-Up - 09 - LULU/ELMO/STANLEY                                                                                  150                                
PROFAMCHA020502082101082109000008CC Is Brought To You By - Ian **DNU AFTER 09/22**                                                                           150                                
PGRFAMCHA020502082109084442002333Little Lulu Show; The                             Tubbie on Ice, Iggie's New Leaf, Dr. X's Xtremely             B20208A1065607ECC                              
ID FAMCHA020502084442084449000007Generic ID - Whisper*                                                                                                       150                                
PROFAMCHA020502084449084515000026Elmo's World (FAM1) - Coming Up                                                                                             150                                
PROFAMCHA020502084515084550000035Legend of Tarzan (PICKS&NIBBLES-D12/WKNDS) - Today                                                                          150                                
PROFAMCHA020502084550084600000010Preschool Line-Up - 10 - ELMO/STANLEY/PB&J                                                                                  150                                
PGRFAMCHA020502084600090054001454Elmo's World                                      Dance                                                               A2068607G                                
ID FAMCHA020502090054090104000010Generic ID - Hula Hoop                                                                                                      150                                
PROFAMCHA020502090104090130000026Stanley (BABY PICS) - Coming Up                                                                                             150                                
PROFAMCHA020502090130090155000025New Adv of WTP (TREE) - Today @ 10:20am                                                                                     150                                
INTFAMCHA020502090155090450000255MV Disney - (DSH) Strangers Like Me                                                                                    60688120                                
PROFAMCHA020502090450090500000010Preschool Line-Up - 11 - STANLEY/PB&J/KATIE                                                                                 150                                
PGRFAMCHA020502090500092857002357Stanley                                           The Big Spill/Peekaboo Parrot                                       A6068607E                                
ID FAMCHA020502092857092902000005Generic ID - Couch 1*                                                                                                       150                                
PROFAMCHA020502092902092917000015PB&J Otter (SAND) - Coming Up                                                                                               150                                
PROFAMCHA020502092917092934000017Katie and Orbie (OCT2001) - Today @ 9:55am                                                                                  150                                
PROFAMCHA020502092934092950000016Legend of Tarzan (THUNDER-D12/WKNDS) - Today @ 5pm                                                                          150                                
PROFAMCHA020502092950093000000010Preschool Line-Up - 12 - PB&J/KATIE/WTP                                                                                     150                                
PROFAMCHA020502093000093008000008CC Is Brought To You By - Ian **DNU AFTER 09/22**                                                                           150                                
PGRFAMCHA020502093008095338002330PB&J Otter                                        Hoohaw Is Where the Heart Is/Everything In It's Pl                   6068607ECC                              
ID FAMCHA020502095338095343000005Generic ID - Couch 2*                                                                                                       150                                
PROFAMCHA020502095343095400000017Katie and Orbie (OCT2001) - Coming Up                                                                                       150                                
PROFAMCHA020502095400095414000014New Adv of WTP (REMOTE) - Today @ 10:20am                                                                                   150                                
PROFAMCHA020502095414095432000018Elmo's World (FAM3) - Today @ 12:45pm                                                                                       150                                
PROFAMCHA020502095432095450000018Hoze Houndz (FOOD) - Today @ 11:35am                                                                                        150                                
PROFAMCHA020502095450095500000010Preschool Line-Up - 13 - KATIE/WTP/OOTB                                                                                     150                                
PROFAMCHA020502095500095508000008CC Is Brought To You By - Lark **DNU AFTER 09/22**                                                                          150                                
PGRFAMCHA020502095508102143002635Katie And Orbie                                   Garage Sale/Big Heart/How Does The Band Fit                   C11896A1065607ECC                              
ID FAMCHA020502102143102153000010Generic ID - Family w/dog                                                                                                   150                                
PROFAMCHA020502102153102218000025New Adv of WTP (TREE) - Coming Up                                                                                           150                                
PROFAMCHA020502102218102240000022Legend of Tarzan (MY JEWEL-D12/WKNDS) - Today @ 5p                                                                          150                                
PROFAMCHA020502102240102250000010Preschool Line-Up - 14 - WTP/OOTB/DUCKTALES                                                                                 150                                
ID FAMCHA020502102250102300000010xxMagic of Disney - V2(sky) - KID FEMALE                                                                                    150                                
PROFAMCHA020502102300102308000008CC Is Brought To You By - Ian **DNU AFTER 09/22**                                                                           150                                
PGRFAMCHA020502102308104611002303New Adventures of Winnie the Pooh; The            All's Well That Ends Wishing Well                                    6068607ECC                              
ID FAMCHA020502104611104621000010Generic ID - Hula Hoop                                                                                                      150                                
PROFAMCHA020502104621104636000015Out of the Box - Coming Up                                                                                                  150                                
PROFAMCHA020502104636104651000015PB&J Otter (SAND) - Today @ 1:30pm                                                                                          150                                
PROFAMCHA020502104651104701000010Preschool Line-Up - 15 - OOTB/DUCKTALES/HOZE                                                                                150                                
PROFAMCHA020502104701104709000008CC Is Brought To You By - Ian **DNU AFTER 09/22**                                                                           150                                
PGRFAMCHA020502104709110912002203Out of the Box                                    Campout Kids                                                         60686110CC                              
ID FAMCHA020502110912110917000005Generic ID - Couch 1*                                                                                                       150                                
PROFAMCHA020502110917110943000026DuckTales (CLIP) - Coming Up                                                                                                150                                
PROFAMCHA020502110943111009000026Hoze Houndz (GAS) - Today @ 11:35am                                                                                         150                                
PROFAMCHA020502111009111031000022Legend of Tarzan (MY JEWEL-D12/WKNDS) - Today @ 5p                                                                          150                                
PROFAMCHA020502111031111050000019House of Mouse (PINOCCHIO) - Today @ 3:50pm                                                                                 150                                
PROFAMCHA020502111050111100000010Preschool Line-Up - 16 - DUCKTALES/HOZE/LULU                                                                                150                                
PROFAMCHA020502111100111108000008CC Is Brought To You By - Lark **DNU AFTER 09/22**                                                                          150                                
PGRFAMCHA020502111108113353002245Disney's DuckTales                                Attack Of The Metal Mites                                           A6068607ECC                              
ID FAMCHA020502113353113403000010Generic ID - Family w/dog                                                                                                   150                                
PROFAMCHA020502113403113421000018Hoze Houndz (FOOD) - Coming Up                                                                                              150                                
PROFAMCHA020502113421113450000029House of Mouse (HATS) - Weekends @ 3:50pm                                                                                   150                                
PROFAMCHA020502113450113500000010Preschool Line-Up - 17 - HOZE/LULU/FRANKLIN                                                                                 150                                
PROFAMCHA020502113500113508000008CC Is Brought To You By - Ian **DNU AFTER 09/22**                                                                           150                                
PGRFAMCHA020502113508115743002235Hoze Houndz                                       One Big Squirt/Love Potion                                    B34008 1065607ECC                              
ID FAMCHA020502115743115753000010Generic ID - Hula Hoop                                                                                                      150                                
PROFAMCHA020502115753115806000013Little Lulu (SWEEP) - Coming Up                                                                                             150                                
PRCFAMCHA020502115806115829000023Franklin (HICCUP) - Today @ 12:25pm                                                                                         150                                
PROFAMCHA020502115829115851000022Legend of Tarzan (MY JEWEL-D12/WKNDS) - Today @ 5p                                                                          150                                
PROFAMCHA020502115851115901000010Preschool Line-Up - 18 - LULU/FRANKLIN/ELMO                                                                                 150                                
PROFAMCHA020502115901115909000008CC Is Brought To You By - Lark **DNU AFTER 09/22**                                                                          150                                
PGRFAMCHA020502115909122241002332Little Lulu Show; The                             You Do the Math, Great Escape, The Little Lola Sho            B20209A1065607ECC                              
ID FAMCHA020502122241122251000010Generic ID - Pink inner tube                                                                                                150                                
PRCFAMCHA020502122251122318000027Franklin (FIXIT) - Coming Up                                                                                                150                                
PROFAMCHA020502122318122336000018Elmo's World (FAM3) - Today @ 12:45pm                                                                                       150                                
PROFAMCHA020502122336122350000014New Adv of WTP (REMOTE) - Today @ 2:25pm                                                                                    150                                
PROFAMCHA020502122350122400000010Preschool Line-Up - 19 - FRANKLIN/ELMO/STANLEY                                                                              150                                
PROFAMCHA020502122400122408000008CC Is Brought To You By - Ian **DNU AFTER 09/22**                                                                           150                                
PGRFAMCHA020502122408124701002253Franklin                                          The Puppet/Stopwatch                                          B38152A1065607ECC                              
ID FAMCHA020502124701124711000010Generic ID - Hula Hoop                                                                                                      150                                
PROFAMCHA020502124711124737000026Elmo's World (FAM1) - Coming Up                                                                                             150                                
PROFAMCHA020502124737124751000014New Adv of WTP (REMOTE) - Today @ 2:25pm                                                                                    150                                
PROFAMCHA020502124751124801000010Preschool Line-Up - 20 - ELMO/STANLEY/PB&J                                                                                  150                                
PGRFAMCHA020502124801130137001336Elmo's World                                      Jackets                                                             A2068607G                                
ID FAMCHA020502130137130148000011Generic ID - soccer                                                                                                         150                                
PROFAMCHA020502130148130210000022Stanley (ANTELOPE) - Coming Up                                                                                              150                                
PROFAMCHA020502130210130228000018Hoze Houndz (FOOD) - Today @ 3:35pm                                                                                         150                                
PROFAMCHA020502130228130242000014New Adv of WTP (REMOTE) - Today @ 2:25pm                                                                                    150                                
ID FAMCHA020502130242130255000013Schoolhouse Promo - Coming Up                                                                                               150                                
PROFAMCHA020502130255130304000009PB&J Otter (AUG2001) - Open - Today @ 1:30pm                                                                                150                                
INTFAMCHA020502130304130627000323Schoolhouse Rock - Electricity, Electricity                                                                           A60686120                                
PROFAMCHA020502130627130650000023Buzz Lightyear (POSTERITY) - Today @ 4pm                                                                                    150                                
PROFAMCHA020502130650130700000010Preschool Line-Up - 21 - STANLEY/PB&J/KATIE                                                                                 150                                
PGRFAMCHA020502130700133056002356Stanley                                           Gorilla Sleepover/Sea Lion Slip-Up                                  A6068607E                                
ID FAMCHA020502133056133101000005Generic ID - Couch 1*                                                                                                       150                                
PROFAMCHA020502133101133128000027PB&J Otter (PIE) - Coming Up                                                                                                150                                
PROFAMCHA020502133128133150000022Legend of Tarzan (MY JEWEL-D12/WKNDS) - Today @ 5p                                                                          150                                
PROFAMCHA020502133150133200000010Preschool Line-Up - 22 - PB&J/KATIE/WTP                                                                                     150                                
PROFAMCHA020502133200133208000008CC Is Brought To You By - Lark **DNU AFTER 09/22**                                                                          150                                
PGRFAMCHA020502133208135538002330PB&J Otter                                        On The Right Track/ Itchy Situation                                 A6068607ECC                              
ID FAMCHA020502135538135545000007Generic ID - Whisper*                                                                                                       150                                
PROFAMCHA020502135545135602000017Katie and Orbie (OCT2001) - Coming Up                                                                                       150                                
PROFAMCHA020502135602135627000025New Adv of WTP (TREE) - Today @ 2:25pm                                                                                      150                                
PROFAMCHA020502135627135650000023Buzz Lightyear (PROTON BURGERS) - Today @ 4pm                                                                               150                                
PROFAMCHA020502135650135700000010Preschool Line-Up - 23 - KATIE/WTP/OOTB                                                                                     150                                
PROFAMCHA020502135700135708000008CC Is Brought To You By - Ian **DNU AFTER 09/22**                                                                           150                                
PGRFAMCHA020502135708142343002635Katie And Orbie                                   Close To My Heart/Frozen Fish Cafe/Katie's First..            C11896A1065607ECC                              
ID FAMCHA020502142343142353000010Generic ID - Family w/dog                                                                                                   150                                
PROFAMCHA020502142353142407000014New Adv of WTP (REMOTE) - Coming Up                                                                                         150                                
PROFAMCHA020502142407142414000007PB&J Otter (AUG2001) - Kite - Weekdays @ 9:30am                                                                             150                                
PROFAMCHA020502142414142440000026Hoze Houndz (GAS) - Today @ 3:35pm                                                                                          150                                
PROFAMCHA020502142440142450000010Preschool Line-Up - 24 - WTP/OOTB/DUCKTALES                                                                                 150                                
ID FAMCHA020502142450142500000010xxMagic of Disney - V2(sky) - TEEN FEMALE                                                                                   150                                
PROFAMCHA020502142500142508000008CC Is Brought To You By - Lark **DNU AFTER 09/22**                                                                          150                                
PGRFAMCHA020502142508144808002300New Adventures of Winnie the Pooh; The            Unvalentine's Day                                                    6068607ECC                              
ID FAMCHA020502144808144818000010Generic ID - confetti                                                                                                       150                                
PROFAMCHA020502144818144833000015Out of the Box - Coming Up                                                                                                  150                                
PROFAMCHA020502144833144851000018Hoze Houndz (FOOD) - Today @ 3:35pm                                                                                         150                                
PROFAMCHA020502144851144901000010Preschool Line-Up - 25 - OOTB/DUCKTALES/HOZE                                                                                150                                
PGRFAMCHA020502144901151106002205Out of the Box                                    Tall and Small                                                       60686110                                
ID FAMCHA020502151106151116000010Generic ID - Bubbles                                                                                                        150                                
PROFAMCHA020502151116151142000026DuckTales (CLIP) - Coming Up                                                                                                150                                
PROFAMCHA020502151142151208000026Hoze Houndz (GAS) - Today @ 3:35pm                                                                                          150                                
PROFAMCHA020502151208151231000023Buzz Lightyear (POSTERITY) - Today @ 4pm                                                                                    150                                
PROFAMCHA020502151231151250000019House of Mouse (PINOCCHIO) - Weekends @ 3:50pm                                                                              150                                
PROFAMCHA020502151250151300000010Preschool Line-Up - 26 - DUCKTALES/HOZE/BUZZ                                                                                150                                
PROFAMCHA020502151300151308000008CC Is Brought To You By - Ian **DNU AFTER 09/22**                                                                           150                                
PGRFAMCHA020502151308153555002247Disney's DuckTales                                The Duck Who Knew Too Much                                          A6068607ECC                              
ID FAMCHA020502153555153601000006Generic ID - soccer                                                                                                         150                                
PROFAMCHA020502153601153627000026Hoze Houndz (GAS) - Coming Up                                                                                               150                                
PROFAMCHA020502153627153650000023Buzz Lightyear (POSTERITY) - Today @ 4pm                                                                                    150                                
PROFAMCHA020502153650153700000010Preschool Line-Up - 27 - HOZE/BUZZ                                                                                          150                                
PROFAMCHA020502153700153708000008CC Is Brought To You By - Lark **DNU AFTER 09/22**                                                                          150                                
PGRFAMCHA020502153708155943002235Hoze Houndz                                       Club Fever/Blaze of Glory                                     B34009 1065607ECC                              
ID FAMCHA020502155943155950000007Generic ID - Whisper*                                                                                                       150                                
ID FAMCHA020502155950160000000010xxMagic of Disney - V2(sky) - TEEN FEMALE                                                                                   150                                
PROFAMCHA020502160000160030000030Disney's One Too - Opening                                                                                                  150                                
PROFAMCHA020502160030160038000008CC Is Brought To You By - Click Club                                                                                        150                                
PGRFAMCHA020502160038162322002244Disney/Pixar's Buzz Lightyear of Star Command     Opposites Attract                                                   A6068607E                                
ID FAMCHA020502162322162333000011Generic ID - soccer                                                                                                         150                                
PROFAMCHA020502162333162403000030Little Shop of Horrors - Tomorrow @ 9pm                                                                                     150                                
PROFAMCHA020502162403162450000047Amanda Show (DOG) - Tonight @ 6pm                                                                                           150                                
PROFAMCHA020502162450162520000030Even Stevens (GUITAR) - Tonight @ 6:30pm                                                                                    150                                
PROFAMCHA020502162520162537000017Recess (TATTLETALE-D12/WKNDS) - Today @ 5:30pm                                                                              150                                
INTFAMCHA020502162537162707000130Family X-Periment - Ep.04: The Fisherman's Friend                                                                     A10656120                                
PROFAMCHA020502162707162744000037California Dreamin' Contest - Generic Spot                                                                                  150                                
PROFAMCHA020502162744162808000024Honey, I Shrunk the Kids (AUG2001) - Tonight @ 8pm                                                                          150                                
