SO FAMCHA010301043000043011000011Sign On (oct 1)                                                                                                         06                                     
PROFAMCHA010301043011043019000008CC Is Brought To You By - Ian **DNU AFTER 09/22**                                                                       02  150                                
PGRFAMCHA010301043019045419002400Hello Mrs. Cherrywinkle                           Kitty The Lion                                                C14683A1065607ACC                              
PROFAMCHA010301045419045427000008CC Was Brought To You By - Ian                                                                                          02  150                                
ID FAMCHA010301045427045432000005Generic ID - Fingerpaint                                                                                                06  150                                
ID FAMCHA010301045432045440000008URL(1) - NEWSLETTER                                                                                                     06  150                                
ID FAMCHA010301045440045500000020Morning block open play pen                                                                                             06  150                                
PROFAMCHA010301045500045508000008CC Is Brought To You By - Lark **DNU AFTER 09/22**                                                                      02  150                                
PGRFAMCHA010301045508051918002410Busy World Of Richard Scarry; The                 Grand Hotel                                                   P19590 1065607ECC                              
PROFAMCHA010301051918051926000008CC Was Brought To You By - Lark                                                                                         02  150                                
ID FAMCHA010301051926051931000005Generic ID - Bubbles*                                                                                                   06  150                                
ID FAMCHA010301051931051940000009URL(1) - CONTESTS                                                                                                       06  150                                
ID FAMCHA010301051940052000000020Morning block open play pen                                                                                             06  150                                
PROFAMCHA010301052000052008000008CC Is Brought To You By - Ian **DNU AFTER 09/22**                                                                       06  150                                
PGRFAMCHA010301052008054430002422Billy The Cat                                     Hubert & The Siamese Siren                                    B27645A1065607ECC                              
PROFAMCHA010301054430054438000008CC Was Brought To You By - Ian                                                                                          06  150                                
ID FAMCHA010301054438054443000005Generic ID - Fingerpaint                                                                                                06  150                                
ID FAMCHA010301054443054503000020Morning block open play pen                                                                                             06  150                                
PROFAMCHA010301054503054511000008CC Is Brought To You By - Lark **DNU AFTER 09/22**                                                                      06  150                                
PGRFAMCHA010301054511061130002619Little Lulu Show; The                             Gilbert The Gorilla/Snow Business/The case of the             P22333A1065607ECC                              
PROFAMCHA010301061130061138000008CC Was Brought To You By - Lark                                                                                         06  150                                
ID FAMCHA010301061138061143000005Generic ID - soccer **DO NOT USE**                                                                                      06  150                                
PROFAMCHA010301061143061151000008CC Is Brought To You By - Ian **DNU AFTER 09/22**                                                                       06  150                                
PGRFAMCHA010301061151063551002400Big Garage; The                                   Copy Cars                                                     P21465 1065607ECC                              
PROFAMCHA010301063551063559000008CC Was Brought To You By - Ian                                                                                          06  150                                
ID FAMCHA010301063559063604000005Generic ID - Couch 1*                                                                                                   06  150                                
PGRFAMCHA010301063604065949002345Clarissa                                          The Flu                                                              2068607B                                
ID FAMCHA010301065949065959000010Generic ID - Hula Hoop                                                                                                  06  150                                
PROFAMCHA010301065959070007000008CC Is Brought To You By - Lark **DNU AFTER 09/22**                                                                      06  150                                
PGRFAMCHA010301070007072300002253Franklin                                          Franklin's Fortune Teller/Franklin's Cellar                   P02772A1065607ECC                              
PROFAMCHA010301072300072308000008CC Was Brought To You By - Lark                                                                                         06  150                                
ID FAMCHA010301072308072318000010Generic ID - Family w/dog                                                                                               06  150                                
PROFAMCHA010301072318072418000100Morning Crunch (MARCH2001) - Today @ 9am                                                                                02  150                                
PROFAMCHA010301072418072448000030New Adventures of WTP (MARCH2001) - Coming Up                                                                           06  150                                
INTFAMCHA010301072448072903000415MV Disney - You'll Be In My Heart (PHIL COLLINS)                                                                       60688120                                
PRCFAMCHA010301072903072938000035Little Lulu (MARCH2001) - Today @ 8:30am                                                                               102  150                                
PRCFAMCHA010301072938072950000012Morning Block menu background (flex time)                                                                               06  150                                
ID FAMCHA010301072950073000000010xxMagic of Disney - V2(sky) - KID FEMALE                                                                                06  150                                
PROFAMCHA010301073000073008000008CC Is Brought To You By - Ian **DNU AFTER 09/22**                                                                       06  150                                
PGRFAMCHA010301073008075253002245New Adventures of Winnie the Pooh; The            Friend In Deed/Donkey for a Day                                      6068607ECC                              
PROFAMCHA010301075253075301000008CC Was Brought To You By - Ian                                                                                          06  150                                
ID FAMCHA010301075301075306000005Generic ID - Fingerpaint                                                                                                06  150                                
PRCFAMCHA010301075306075341000035Little Lulu (MARCH2001) - Today @ 8:30am                                                                               106  150                                
INTFAMCHA010301075341075831000450MV Disney - Circle of Life (ELTON JOHN)                                                                                60688120                                
PROFAMCHA010301075831075931000100Morning Crunch (MARCH2001) - Today @ 9am                                                                                06  150                                
PRCFAMCHA010301075931075940000009Morning Block menu background (flex time)                                                                               06  150                                
ID FAMCHA010301075940080000000020Morning block open play pen                                                                                             06  150                                
PGRFAMCHA010301080000081939001939Art Attack                                        1-079                                                                60686110                                
ID FAMCHA010301081939081949000010Generic ID - Hula Hoop                                                                                                  06  150                                
PROFAMCHA010301081949082049000100Morning Crunch (MARCH2001) - Today @ 9am                                                                                06  150                                
PRCFAMCHA010301082049082124000035Little Lulu (MARCH2001) - Coming Up                                                                                    102  150                                
PGRFAMCHA010301082124082754000630Richard Scarry (ii) High Flyers                                                                                 P19592 10656150                                
PROFAMCHA010301082754082809000015Doug (MARCH2001) - Today @ 4pm                                                                                          06  150                                
INTFAMCHA010301082809082920000111Mix Ups - Moving day                                                                                                   60688120                                
PROFAMCHA010301082920082940000020Book of Pooh (MARCH2001) - Today @ 9:26am                                                                               02  150                                
ID FAMCHA010301082940083000000020Morning block open play pen                                                                                             06  150                                
PROFAMCHA010301083000083008000008CC Is Brought To You By - Ian **DNU AFTER 09/22**                                                                       06  150                                
PGRFAMCHA010301083008085628002620Little Lulu Show; The                             Business Girl/The Pet Duck/Lulu's Umbrella Service            P22334A1065607ECC                              
PROFAMCHA010301085628085636000008CC Was Brought To You By - Ian                                                                                          06  150                                
ID FAMCHA010301085636085641000005Generic ID - Marbles                                                                                                    06  150                                
PROFAMCHA010301085641085726000045PB&J Otter (MARCH2001) - Coming Up                                                                                     206  150                                
PROFAMCHA010301085726085742000016ALF (Description) - Today @ 12pm                                                                                        06  150                                
PRCFAMCHA010301085742085818000036Goof Troop (MARCH2001) - Weekends @ 4pm                                                                                 06  150                                
ID FAMCHA010301085818085830000012URL(1) - MINI SITES                                                                                                     06  150                                
PRCFAMCHA010301085830085900000030Franklin (MARCH2001) - Today @ 12:30pm                                                                                 106  150                                
PROFAMCHA010301085900090000000100Morning Crunch (MARCH2001) - PB&J/BOOK/BUSY                                                                             02  150                                
PROFAMCHA010301090000090008000008CC Is Brought To You By - Lark **DNU AFTER 09/22**                                                                      06  150                                
PGRFAMCHA010301090008092338002330PB&J Otter                                        Johnny Pompalope Story/Soapbox Boat Race                            A6068607ECC                              
PROFAMCHA010301092338092346000008CC Was Brought To You By - Lark                                                                                         06  150                                
ID FAMCHA010301092346092356000010Generic ID - Pink inner tube                                                                                            06  150                                
PROFAMCHA010301092356092416000020Book of Pooh (CRUNCH) - Coming Up                                                                                       02  150                                
PROFAMCHA010301092416092431000015ALF (Lucky) - Today @ Noon                                                                                              06  150                                
ID FAMCHA010301092431092438000007URL(1) - WHAT'S ON                                                                                                      06  150                                
PRCFAMCHA010301092438092501000023Franklin (MARCH2001) - Today @ 12:30pm                                                                                 106  150                                
PROFAMCHA010301092501092601000100Morning Crunch (MARCH2001) - BOOK/BUSY/MADELINE                                                                         02  150                                
PGRFAMCHA010301092601095003002402Book Of Pooh; The                                 Best Wishes, Winnie the Pooh/Double Time                             6028607G                                
ID FAMCHA010301095003095008000005Generic ID - soccer **DO NOT USE**                                                                                      06  150                                
PROFAMCHA010301095008095108000100Morning Crunch (MARCH2001) - BUSY/MADELINE/OOTB                                                                         02  150                                
PROFAMCHA010301095108095116000008CC Is Brought To You By - Ian **DNU AFTER 09/22**                                                                       06  150                                
PGRFAMCHA010301095116101526002410Busy World Of Richard Scarry; The                 Lowly Breaks A Leg                                            P19591 1065607ECC                              
PROFAMCHA010301101526101534000008CC Was Brought To You By - Ian                                                                                          06  150                                
ID FAMCHA010301101534101544000010Generic ID - soccer **DO NOT USE**                                                                                      06  150                                
PRCFAMCHA010301101544101614000030Madeline (MARCH2001) - Coming Up                                                                                       102  150                                
PRCFAMCHA010301101614101644000030Franklin (MARCH2001) - Today @ 12:30pm                                                                                 106  150                                
PROFAMCHA010301101644101659000015Doug (MARCH2001) - Today @ 4pm                                                                                          06  150                                
PROFAMCHA010301101659101759000100Morning Crunch (MARCH2001) - MADELINE/OOTB/GOOF                                                                         02  150                                
PROFAMCHA010301101759101807000008CC Is Brought To You By - Lark **DNU AFTER 09/22**                                                                      06  150                                
PGRFAMCHA010301101807104047002240Madeline                                          Madeline at Versailles                                               6068607ECC                              
PROFAMCHA010301104047104055000008CC Was Brought To You By - Lark                                                                                         06  150                                
ID FAMCHA010301104055104100000005Generic ID - soccer **DO NOT USE**                                                                                      06  150                                
PROFAMCHA010301104100104121000021Buzz Lightyear (DISNEY'S ONE TOO) - Today @ 5:30pm                                                                      06  150                                
INTFAMCHA010301104121104229000108Disney Moments - Cinderella-Bibbidi Bobbidi Boo                                                                        60688120                                
PROFAMCHA010301104229104259000030Pepper Ann (MARCH2001) - Today @ 4:30pm                                                                                 06  150                                
PROFAMCHA010301104259104359000100Morning Crunch (MARCH2001) - OOTB/GOOF/ALADDIN                                                                          02  150                                
PGRFAMCHA010301104359110604002205Out of the Box                                    Box Full Of Boxes                                                    60686110                                
ID FAMCHA010301110604110609000005Generic ID - Couch 2*                                                                                                   06  150                                
PRCFAMCHA010301110609110645000036Goof Troop (MARCH2001) - Coming Up                                                                                      06  150                                
PROFAMCHA010301110645110700000015Doug (MARCH2001) - Today @ 4pm                                                                                          06  150                                
INTFAMCHA010301110700110830000130Big Garage, "stop" - Breaking All The Rules                                                                     P21457 10656120                                
PROFAMCHA010301110830110851000021Buzz Lightyear (DISNEY'S ONE TOO) - Today @ 5:30pm                                                                      06  150                                
PROFAMCHA010301110851110951000100Morning Crunch (MARCH2001) - GOOF/ALADDIN/RECAP                                                                         02  150                                
ID FAMCHA010301110951111001000010xxMagic of Disney - V2(sky) - KID MALE                                                                                  06  150                                
PROFAMCHA010301111001111009000008CC Is Brought To You By - Ian **DNU AFTER 09/22**                                                                       06  150                                
PGRFAMCHA010301111009113257002248Goof Troop                                        Take Me Out Of The Ball Game                                         6068607ECC                              
PROFAMCHA010301113257113305000008CC Was Brought To You By - Ian                                                                                          06  150                                
ID FAMCHA010301113305113315000010Generic ID - Bubbles                                                                                                    06  150                                
PROFAMCHA010301113315113345000030Pepper Ann (MARCH2001) - Today @ 4:30pm                                                                                 06  150                                
INTFAMCHA010301113345113438000053Bill Nye - Friction Happens                                                                                            60688120                                
PROFAMCHA010301113438113451000013Buzz Lightyear (DISNEY'S ONE TOO) - Today @ 5:30pm                                                                      06  150                                
PROFAMCHA010301113451113551000100Morning Crunch (MARCH2001) - ALADDIN/RECAP                                                                              02  150                                
ID FAMCHA010301113551113601000010xxMagic of Disney - V3(water) - KID FEMALE                                                                              06  150                                
PROFAMCHA010301113601113609000008CC Is Brought To You By - Lark **DNU AFTER 09/22**                                                                      06  150                                
PGRFAMCHA010301113609115846002237Disney's Aladdin                                  Of Ice And Men                                                       6068607ECC                              
PROFAMCHA010301115846115854000008CC Was Brought To You By - Lark                                                                                         06  150                                
ID FAMCHA010301115854115859000005Generic ID - Bubbles*                                                                                                   06  150                                
PROFAMCHA010301115859115959000100Morning Crunch (MARCH2001) - RECAP                                                                                      02  150                                
ID FAMCHA010301115959120014000015Afternoon block pinball open **DO NOT USE**                                                                             06  150                                
PROFAMCHA010301120014120022000008CC Is Brought To You By - Ian **DNU AFTER 09/22**                                                                       06  150                                
PGRFAMCHA010301120022122151002129ALF                                               Stop In The Name of Love                                            A2028807BCC                              
PROFAMCHA010301122151122159000008CC Was Brought To You By - Ian                                                                                          06  150                                
ID FAMCHA010301122159122214000015Generic ID - confetti                                                                                                   06  150                                
PROFAMCHA010301122214122244000030Color of Friendship - Sunday @ 12pm                                                                                     02  150                                
PRCFAMCHA010301122244122314000030Franklin (MARCH2001) - Coming Up                                                                                       106  150                                
PROFAMCHA010301122314122414000100Afternoon Rebound (MARCH2001) - Today @ 1pm                                                                             02  150                                
PRCFAMCHA010301122414122459000045No Boundaries Contest (MAR04) - Sunday @ 12pm                                                                          106  150                                
INTFAMCHA010301122459122919000420MV Disney - Someday (ALL 4 ONE)                                                                                        60688120                                
PROFAMCHA010301122919122937000018D12 - Recess/Buzz - Today, starting @ 4:00pm                                                                            06  150                                
PRCFAMCHA010301122937122945000008Morning Block menu background (flex time)                                                                               06  150                                
ID FAMCHA010301122945123000000015Afternoon block pinball open **DO NOT USE**                                                                             06  150                                
PROFAMCHA010301123000123008000008CC Is Brought To You By - Lark **DNU AFTER 09/22**                                                                      06  150                                
PGRFAMCHA010301123008125301002253Franklin                                          Fearless/Lucky Charm                                          A38157A1065607ECC                              
PROFAMCHA010301125301125309000008CC Was Brought To You By - Lark                                                                                         06  150                                
ID FAMCHA010301125309125319000010Generic ID - confetti                                                                                                   06  150                                
PROFAMCHA010301125319125404000045PB&J Otter (MARCH2001) - Coming Up                                                                                     206  150                                
PROFAMCHA010301125404125434000030Color of Friendship - Sunday @ 12pm                                                                                     06  150                                
PROFAMCHA010301125434125455000021D12 - Pepper Ann/Doug - Today, starting @ 4pm                                                                           06  150                                
INTFAMCHA010301125455125836000341MV Disney - Mambo #5 (LOU BEGA)                                                                                        60688120                                
PROFAMCHA010301125836125900000024ALF - Tonight @ 7:30pm                                                                                                  06  150                                
PROFAMCHA010301125900130000000100Afternoon Rebound (MARCH2001) - PB&J/BOOK/BUSY                                                                          02  150                                
PROFAMCHA010301130000130008000008CC Is Brought To You By - Ian **DNU AFTER 09/22**                                                                       06  150                                
PGRFAMCHA010301130008132339002331PB&J Otter                                        Aunt Nanner's Special Place/Munchy's Sad Day                        A6068607ECC                              
PROFAMCHA010301132339132347000008CC Was Brought To You By - Ian                                                                                          06  150                                
ID FAMCHA010301132347132352000005Generic ID - Couch 1*                                                                                                   06  150                                
PROFAMCHA010301132352132410000018Book of Pooh (REBOUND) - Coming Up                                                                                      02  150                                
PROFAMCHA010301132410132440000030Color of Friendship - Sunday @ 12pm                                                                                     06  150                                
PROFAMCHA010301132440132501000021Buzz Lightyear (DISNEY'S ONE TOO) - Today @ 5:30pm                                                                      06  150                                
PROFAMCHA010301132501132601000100Afternoon Rebound (MARCH2001) - BOOK/BUSY/MADELINE                                                                      02  150                                
PGRFAMCHA010301132601135002002401Book Of Pooh; The                                 Are You Me?/Rabbit's Happy Birthday Party                            6028607G                                
ID FAMCHA010301135002135007000005Generic ID - Couch 2*                                                                                                   06  150                                
PROFAMCHA010301135007135107000100Afternoon Rebound (MARCH2001) - BUSY/MADELINE/OOTB                                                                      02  150                                
PROFAMCHA010301135107135115000008CC Is Brought To You By - Ian **DNU AFTER 09/22**                                                                       06  150                                
PGRFAMCHA010301135115141525002410Busy World Of Richard Scarry; The                 Huckle Gets A Job                                             P19592 1065607ECC                              
PROFAMCHA010301141525141533000008CC Was Brought To You By - Ian                                                                                          06  150                                
ID FAMCHA010301141533141543000010Generic ID - Family w/dog                                                                                               06  150                                
PRCFAMCHA010301141543141613000030Madeline (MARCH2001) - Coming Up                                                                                       106  150                                
PROFAMCHA010301141613141631000018Book of Pooh (MARCH2001) - Weekdays @ 1:26pm                                                                            02  150                                
PROFAMCHA010301141631141701000030Color of Friendship - Sunday @ 12pm                                                                                     06  150                                
PROFAMCHA010301141701141801000100Afternoon Rebound (MARCH2001) - MADELINE/OOTB/GOOF                                                                      02  150                                
PROFAMCHA010301141801141809000008CC Is Brought To You By - Lark **DNU AFTER 09/22**                                                                      06  150                                
PGRFAMCHA010301141809144050002241Madeline                                          Madeline at the Ritz                                                 6028607E                                
PROFAMCHA010301144050144058000008CC Was Brought To You By - Lark                                                                                         06  150                                
ID FAMCHA010301144058144103000005Generic ID - Fingerpaint                                                                                                06  150                                
PROFAMCHA010301144103144133000030Color of Friendship - Sunday @ 12pm                                                                                     06  150                                
PROFAMCHA010301144133144154000021D12 - Pepper Ann/Doug - Today, starting @ 4pm                                                                           06  150                                
PROFAMCHA010301144154144224000030Your Big Break (MARCH2001) - Sunday @ 11:08am                                                                           02  150                                
PRCFAMCHA010301144224144300000036Goof Troop (MARCH2001) - Weekends @ 4pm                                                                                 06  150                                
PROFAMCHA010301144300144400000100Afternoon Rebound (MARCH2001) - OOTB/GOOF/ALADDIN                                                                       02  150                                
PGRFAMCHA010301144400150605002205Out of the Box                                    Hands On                                                             60686110                                
ID FAMCHA010301150605150615000010Generic ID - Hula Hoop                                                                                                  06  150                                
PRCFAMCHA010301150615150651000036Goof Troop (MARCH2001) - Coming Up                                                                                      06  150                                
PROFAMCHA010301150651150721000030Color of Friendship - Sunday @ 12pm                                                                                     06  150                                
PROFAMCHA010301150721150736000015Doug (MARCH2001) - Today @ 4pm                                                                                          06  150                                
INTFAMCHA010301150736150830000054Bill Nye - Power to the Plankton                                                                                       60688120                                
PROFAMCHA010301150830150900000030Pepper Ann (MARCH2001) - Today @ 4:30pm                                                                                 06  150                                
PROFAMCHA010301150900151000000100Afternoon Rebound (MARCH2001) - GOOF/ALADDIN/RECAP                                                                      02  150                                
PROFAMCHA010301151000151008000008CC Is Brought To You By - Ian **DNU AFTER 09/22**                                                                       06  150                                
PGRFAMCHA010301151008153234002226Goof Troop                                        Wrecks, Lies & Videotape                                             6068607ECC                              
PROFAMCHA010301153234153242000008CC Was Brought To You By - Ian                                                                                          06  150                                
ID FAMCHA010301153242153247000005Generic ID - Marbles                                                                                                    06  150                                
PROFAMCHA010301153247153317000030Color of Friendship - Sunday @ 12pm                                                                                     06  150                                
PROFAMCHA010301153317153347000030Pepper Ann (MARCH2001) - Today @ 4:30pm                                                                                 06  150                                
INTFAMCHA010301153347153440000053Bill Nye - Friction Happens                                                                                            60688120                                
PROFAMCHA010301153440153501000021Buzz Lightyear (DISNEY'S ONE TOO) - Today @ 5:30pm                                                                      06  150                                
PROFAMCHA010301153501153601000100Afternoon Rebound (MARCH2001) - ALADDIN/RECAP                                                                           02  150                                
PROFAMCHA010301153601153609000008CC Is Brought To You By - Lark **DNU AFTER 09/22**                                                                      06  150                                
PGRFAMCHA010301153609155848002239Disney's Aladdin                                  Mudder's Day                                                         6068607ECC                              
PROFAMCHA010301155848155856000008CC Was Brought To You By - Lark                                                                                         06  150                                
ID FAMCHA010301155856155901000005Generic ID - soccer **DO NOT USE**                                                                                      06  150                                
PROFAMCHA010301155901160001000100Afternoon Rebound (MARCH2001) - RECAP                                                                                   02  150                                
ID FAMCHA010301160001160011000010xxMagic of Disney - V3(water) - TEEN FEMALE                                                                             06  150                                
PROFAMCHA010301160011160041000030Disney's One Too - Opening                                                                                              06  150                                
PGRFAMCHA010301160041162307002226Disney's Doug                                     Quailman VS the Little Rubber Army                                   6068607E                                
ID FAMCHA010301162307162317000010Generic ID - Ring around the rosie                                                                                      06  150                                
PROFAMCHA010301162317162347000030Color of Friendship - Sunday @ 12pm                                                                                     06  150                                
PROFAMCHA010301162347162417000030Pepper Ann (MARCH2001) - Coming Up                                                                                      06  150                                
INTFAMCHA010301162417162430000013Toy Story Treats - Flip Flop                                                                                           60686120                                
INTFAMCHA010301162430162808000338Art Attack - Family At Beach                                                                                           60686120                                
PRCFAMCHA010301162808162853000045No Boundaries Contest (MAR04) - Sunday @ 12pm                                                                          106  150                                
INTFAMCHA010301162853162906000013Toy Story Treats - Rex Can't Sleep                                                                                     60686120                                
PROFAMCHA0103011629061629360000302 Hour Tour - LFO (MAR04) - Sunday @ 7:30pm                                                                             06  150                                
PRCFAMCHA010301162936162945000009Morning Block menu background (flex time)                                                                               06  150                                
ID FAMCHA010301162945163000000015Afternoon block pinball open **DO NOT USE**                                                                             06  150                                
PROFAMCHA010301163000163030000030Disney's One Too - Opening                                                                                              06  150                                
PROFAMCHA010301163030163038000008CC Is Brought To You By - Ian **DNU AFTER 09/22**                                                                       06  150                                
PGRFAMCHA010301163038165327002249Disney's Pepper Ann                               Untitled Milo Kamalani Project/Guess Who's Coming                    6068607ECC                              
PROFAMCHA010301165327165335000008CC Was Brought To You By - Ian                                                                                          06  150                                
ID FAMCHA010301165335165345000010Generic ID - soccer **DO NOT USE**                                                                                      06  150                                
PROFAMCHA0103011653451654150000302 Hour Tour - LFO (MAR04) - Sunday @ 7:30pm                                                                             06  150                                
PROFAMCHA010301165415165440000025Recess (Finster) - Coming Up                                                                                            06  150                                
PROFAMCHA010301165440165504000024ALF - Tonight @ 7:30pm                                                                                                  06  150                                
PRCFAMCHA010301165504165540000036Goof Troop (MARCH2001) - Weekends @ 4pm                                                                                 06  150                                
INTFAMCHA010301165540165601000021Recess Sketches - Cajoling Gus - Diaper Gus                                                                            60686120                                
INTFAMCHA010301165601165723000122Disney Dinner Time(03)- Tecumseh (D12 only)                                                                            60686120                                
INTFAMCHA010301165723165744000021Recess Sketches - Gretchen's Inventions - Teddy Be                                                                     60686120                                
INTFAMCHA010301165744165814000030Disney Magic Drawings(07)- Mermaid (D12 only)                                                                          60686120                                
INTFAMCHA010301165814165835000021Recess Sketches - Mickey's World Record - Card Hou                                                                     60686120                                
PROFAMCHA010301165835165905000030Your Big Break (MARCH2001) - Sunday @ 11:08am                                                                           06  150                                
PROFAMCHA010301165905165935000030Color of Friendship - Sunday @ 12pm                                                                                     06  150                                
PRCFAMCHA010301165935165945000010Morning Block menu background (flex time)                                                                               06  150                                
ID FAMCHA010301165945170000000015Afternoon block pinball open **DO NOT USE**                                                                             06  150                                
PROFAMCHA010301170000170030000030Disney's One Too - Opening                                                                                              06  150                                
PGRFAMCHA010301170030172305002235Disney's Recess                                   Operation Stuart/Pharoah Bob                                         6068607E                                
ID FAMCHA010301172305172310000005Generic ID - soccer **DO NOT USE**                                                                                      06  150                                
PROFAMCHA010301172310172340000030Color of Friendship - Sunday @ 12pm                                                                                     06  150                                
PROFAMCHA010301172340172401000021Buzz Lightyear (DISNEY'S ONE TOO) - Coming Up                                                                           06  150                                
PROFAMCHA010301172401172431000030Your Big Break (MARCH2001) - Sunday @ 11:08am                                                                           06  150                                
INTFAMCHA010301172431172444000013Toy Story Treats - Buzz Box #1                                                                                         60686120                                
INTFAMCHA010301172444172606000122Disney Dinner Time(07)- King Tut (D12 only)                                                                            60686120                                
PRCFAMCHA010301172606172651000045No Boundaries Contest (MAR04) - Sunday @ 12pm                                                                          106  150                                
INTFAMCHA010301172651172704000013Toy Story Treats - Hat Dance                                                                                           60686120                                
INTFAMCHA010301172704172824000120Disney Magic Shop(03)- Nimble Thimble (D12 only)                                                                       60686120                                
INTFAMCHA010301172824172837000013Toy Story Treats - Ranger Rex                                                                                          60686120                                
PROFAMCHA010301172837172905000028Honey (MARCH2001) - Tonight @ 8pm                                                                                       06  150                                
PROFAMCHA0103011729051729350000302 Hour Tour - LFO (MAR04) - Sunday @ 7:30pm                                                                             06  150                                
PRCFAMCHA010301172935172945000010Morning Block menu background (flex time)                                                                               06  150                                
ID FAMCHA010301172945173000000015Afternoon block pinball open **DO NOT USE**                                                                             06  150                                
PROFAMCHA010301173000173030000030Disney's One Too - Opening                                                                                              06  150                                
PROFAMCHA010301173030173038000008CC Is Brought To You By - Ian **DNU AFTER 09/22**                                                                       06  150                                
PGRFAMCHA010301173038175231002153Disney/Pixar's Buzz Lightyear of Star Command     Star Crossed                                                         6068607ECC                              
PROFAMCHA010301175231175239000008CC Was Brought To You By - Ian                                                                                          06  150                                
ID FAMCHA010301175239175246000007Generic ID - Whisper*                                                                                                   06  150                                
PROFAMCHA0103011752461753160000302 Hour Tour - LFO (MAR04) - Sunday @ 7:30pm                                                                             06  150                                
PROFAMCHA010301175316175346000030Lion King (MARCH2001) - Coming Up                                                                                      206  150                                
PROFAMCHA010301175346175410000024ALF - Tonight @ 7:30pm                                                                                                  06  150                                
INTFAMCHA010301175410175844000434MV Disney - A Dream Is A Wish Your Heart Makes (LI                                                                     60688120                                
PROFAMCHA010301175844175852000008MV Web Throw - family.ca                                                                                               606 5150                                
PROFAMCHA010301175852175920000028Honey (MARCH2001) - Tonight @ 8pm                                                                                       06  150                                
PROFAMCHA010301175920175950000030Color of Friendship - Sunday @ 12pm                                                                                     06  150                                
ID FAMCHA010301175950180000000010xxMagic of Disney - V4 - TEEN FEMALE                                                                                    06  150                                
PROFAMCHA010301180000180008000008CC Is Brought To You By - Lark **DNU AFTER 09/22**                                                                      06  150                                
PGRFAMCHA010301180008182248002240Lion King's Timon & Pumbaa; The                   Timon's Time Togo/Law of the Jungle                                  6068607ECC                              
PROFAMCHA010301182248182256000008CC Was Brought To You By - Lark                                                                                         06  150                                
ID FAMCHA010301182256182306000010Generic ID - Bubbles                                                                                                    06  150                                
PROFAMCHA010301182306182336000030Color of Friendship - Sunday @ 12pm                                                                                     06  150                                
PROFAMCHA010301182336182404000028Honey (MARCH2001) - Tonight @ 8pm                                                                                       06  150                                
INTFAMCHA010301182404182826000422MV Disney - True To Your Heart (98 DEGREES/STEVIE                                                                      60688120                                
PROFAMCHA010301182826182859000033So Weird (CARNIVAL) - Sunday @ 8pm                                                                                      06  150                                
PROFAMCHA0103011828591829290000302 Hour Tour - LFO (MAR04) - Sunday @ 7:30pm                                                                             06  150                                
PRCFAMCHA010301182929182939000010Morning Block menu background (flex time)                                                                               06  150                                
ID FAMCHA010301182939183000000021Prime time open count down                                                                                              06  150                                
PGRFAMCHA010301183000185253002253Gargoyles                                         Shadows of the Past                                                  6068607E                                
ID FAMCHA010301185253185258000005Generic ID - Bubbles*                                                                                                   06  150                                
PROFAMCHA0103011852581853280000302 Hour Tour - LFO (MAR04) - Sunday @ 7:30pm                                                                             06  150                                
PROFAMCHA010301185328185405000037So Weird (EARTH101) - Sunday @ 8pm                                                                                      06  150                                
INTFAMCHA010301185405185831000426MV Disney - Love Will Find A Way (KENNY LATIMORE/H                                                                     60688120                                
PROFAMCHA010301185831185839000008MV Web Throw - music@family.ca                                                                                         606 5150                                
PROFAMCHA010301185839185909000030Your Big Break (MARCH2001) - Sunday @ 11:08am                                                                           06  150                                
PROFAMCHA010301185909185939000030Color of Friendship - Sunday @ 12pm                                                                                     06  150                                
ID FAMCHA010301185939190000000021Prime time open count down                                                                                              06  150                                
PROFAMCHA010301190000190008000008CC Is Brought To You By - Ian **DNU AFTER 09/22**                                                                       06  150                                
PGRFAMCHA010301190008192441002433Famous Jett Jackson; The                          A Tragedy In Two Parts                                        B57115 1025607ACC                              
PROFAMCHA010301192441192449000008CC Was Brought To You By - Ian                                                                                          06  150                                
ID FAMCHA010301192449192504000015Generic ID - confetti                                                                                                   06  150                                
PROFAMCHA010301192504192534000030Color of Friendship - Sunday @ 12pm                                                                                     06  150                                
PROFAMCHA010301192534192548000014ALF (Dreams) - Coming Up                                                                                                06  150                                
PROFAMCHA010301192548192616000028Honey (MARCH2001) - Tonight @ 8pm                                                                                       06  150                                
PRCFAMCHA010301192616192701000045No Boundaries Contest (MAR04) - Sunday @ 12pm                                                                          106  150                                
INTFAMCHA010301192701192828000127Monkey Minutes - James Bond (vers 2 - after 7:30PM                                                                    A20688120                                
PROFAMCHA010301192828192858000030Your Big Break (MARCH2001) - Sunday @ 11:08am                                                                           06  150                                
PROFAMCHA0103011928581929280000302 Hour Tour - LFO (MAR04) - Sunday @ 7:30pm                                                                             06  150                                
PRCFAMCHA010301192928192939000011Morning Block menu background (flex time)                                                                               06  150                                
ID FAMCHA010301192939193000000021Prime time open count down                                                                                              06  150                                
PROFAMCHA010301193000193008000008CC Is Brought To You By - Lark **DNU AFTER 09/22**                                                                      06  150                                
PGRFAMCHA010301193008195137002129ALF                                                                                                                   A2068807BCC                              
PROFAMCHA010301195137195145000008CC Was Brought To You By - Lark                                                                                         06  150                                
ID FAMCHA010301195145195155000010Generic ID - confetti                                                                                                   06  150                                
PROFAMCHA0103011951551952250000302 Hour Tour - LFO (MAR04) - Sunday @ 7:30pm                                                                             06  150                                
PROFAMCHA010301195225195253000028Honey (MARCH2001) - Coming Up                                                                                           06  150                                
PROFAMCHA010301195253195316000023So Weird (VOODOO) - Sunday @ 8pm                                                                                        06  150                                
PRCFAMCHA010301195316195401000045No Boundaries Contest (MAR04) - Sunday @ 12pm                                                                          106  150                                
INTFAMCHA010301195401195838000437MV Disney - Go The Distance (MICHAEL BOLTON)                                                                           60688120                                
ID FAMCHA010301195838195850000012Web Rant - I Was Happy                                                                                                  06  150                                
PROFAMCHA010301195850195920000030Your Big Break (MARCH2001) - Sunday @ 11:08am                                                                           06  150                                
PROFAMCHA010301195920195950000030Color of Friendship - Sunday @ 12pm                                                                                     06  150                                
ID FAMCHA010301195950200000000010xxMagic of Disney - V2(sky) - ADULT FEMALE                                                                              06  150                                
PGRFAMCHA010301200000204312004312Disney's Honey, I Shrunk The Kids: The TV Show    I'm The Ghostest With The Mostest                                    6068807B                                
ID FAMCHA010301204312204317000005Generic ID - Couch 1*                                                                                                   06  150                                
PROFAMCHA010301204317204347000030Color of Friendship - Sunday @ 12pm                                                                                     06  150                                
PROFAMCHA010301204347204357000010MV FAMJAM - Teaser (Generic)                                                                                           606 5150                                
PROFAMCHA010301204357204434000037So Weird (EARTH101) - Sunday @ 8pm                                                                                      06  150                                
INTFAMCHA010301204434204834000400MV - The Call                                                                                                         A20688120                                
PROFAMCHA010301204834204841000007MV Web Throw - music@family.ca                                                                                         606 5150                                
PRCFAMCHA010301204841204926000045No Boundaries Contest (MAR04) - Sunday @ 12pm                                                                          106  150                                
ID FAMCHA010301204926204936000010Silly Stories Teaser - Male                                                                                             02  150                                
PROFAMCHA010301204936205004000028Honey (MARCH2001) - Weeknights @ 8pm                                                                                    06  150                                
ID FAMCHA010301205004205100000056Silly Stories - MEOW MEOW                                                                                               02  150                                
PROFAMCHA010301205100205124000024ALF - Tonight @ Midnight                                                                                                06  150                                
PGRFAMCHA010301205124205857000733Get It Right Goofy                                                                                                     60687150                                
ID FAMCHA010301205857205909000012Web Rant - Never Believe                                                                                                06  150                                
PROFAMCHA0103012059092059390000302 Hour Tour - LFO (MAR04) - Sunday @ 7:30pm                                                                             06  150                                
ID FAMCHA010301205939210000000021Move open family size movie                                                                                             06  150                                
PROFAMCHA010301210000210008000008Rating - PG - Ian                                                                                                       02  150                                
PROFAMCHA010301210008210016000008CC Is Brought To You By - Lark **DNU AFTER 09/22**                                                                      06  150                                
PGRFAMCHA010301210016222917012901Ladybugs                                                                                                              B2068807DCC                              
PROFAMCHA010301222917222925000008CC Was Brought To You By - Lark                                                                                         06  150                                
ID FAMCHA010301222925222930000005Generic ID - Couch 2*                                                                                                   06  150                                
PROFAMCHA010301222930222939000009MV Web Throw - family.ca                                                                                               606 5150                                
ID FAMCHA010301222939223000000021Move open family size movie                                                                                             06  150                                
PROFAMCHA010301223000223008000008Rating - G - Lark                                                                                                       02  150                                
PROFAMCHA010301223008223016000008CC Is Brought To You By - Ian **DNU AFTER 09/22**                                                                       06  150                                
ID FAMCHA010301223016223026000010xxMagic of Disney - V2(sky) - ADULT MALE                                                                                06  150                                
PGRFAMCHA010301223026000137013111Spaceman In King Arthur's Court; The                                                                                  A6068807DCC                              
PROFAMCHA010301000137000145000008CC Was Brought To You By - Ian                                                                                          06  150                                
ID FAMCHA010301000145000150000005Generic ID - Bubbles*                                                                                                   06  150                                
PROFAMCHA010301000150000158000008CC Is Brought To You By - Lark **DNU AFTER 09/22**                                                                      06  150                                
PGRFAMCHA010301000158002327002129ALF                                                                                                                   A2068807BCC                              
PROFAMCHA010301002327002335000008CC Was Brought To You By - Lark                                                                                         06  150                                
ID FAMCHA010301002335002340000005Generic ID - Fingerpaint                                                                                                06  150                                
PROFAMCHA010301002340002410000030Color of Friendship - Sunday @ 12pm                                                                                     06  150                                
PROFAMCHA010301002410002443000033So Weird (CARNIVAL) - Sunday @ 8pm                                                                                      06  150                                
INTFAMCHA010301002443002909000426MV Disney - Love Will Find A Way (KENNY LATIMORE/H                                                                     60688120                                
PROFAMCHA0103010029090029390000302 Hour Tour - LFO (MAR04) - Sunday @ 7:30pm                                                                             06  150                                
ID FAMCHA010301002939003000000021Prime time open count down                                                                                              06  150                                
PGRFAMCHA010301003000005435002435Are You Afraid Of The Dark?                       The Tale of the Room for Rent                                 SR0305 1066807A                                
ID FAMCHA010301005435005440000005Generic ID - soccer **DO NOT USE**                                                                                      06  150                                
PROFAMCHA0103010054400055100000302 Hour Tour - LFO (MAR04) - Sunday @ 7:30pm                                                                             06  150                                
INTFAMCHA010301005510005640000130MV Disney - Walk The Llama Llama                                                                                       60688120                                
PROFAMCHA010301005640005710000030Color of Friendship - Sunday @ 12pm                                                                                     06  150                                
INTFAMCHA010301005710010200000450MV Disney - Circle of Life (ELTON JOHN)                                                                                60688120                                
SO FAMCHA010301010200010212000012Sign Off (oct 1)                                                                                                        06                                     
OFFFAMCHA010301010212043000032748                                                                                                                                                               
SO FAMCHA010302043000043011000011Sign On (oct 1)                                                                                                         06                                     
PROFAMCHA010302043011043019000008CC Is Brought To You By - Ian **DNU AFTER 09/22**                                                                       06  150                                
PGRFAMCHA010302043019045419002400Hello Mrs. Cherrywinkle                           I Can't Wait                                                  C14683A1065607ACC                              
PROFAMCHA010302045419045427000008CC Was Brought To You By - Lark                                                                                         06  150                                
ID FAMCHA010302045427045432000005Generic ID - Couch 1*                                                                                                   06  150                                
ID FAMCHA010302045432045440000008URL(1) - NEWSLETTER                                                                                                     06  150                                
ID FAMCHA010302045440045500000020Morning block open play pen                                                                                             06  150                                
PROFAMCHA010302045500045508000008CC Is Brought To You By - Lark **DNU AFTER 09/22**                                                                      06  150                                
PGRFAMCHA010302045508051918002410Busy World Of Richard Scarry; The                 Knights Of The Busytown Table                                 P24298 1165607ECC                              
PROFAMCHA010302051918051925000007CC Was Brought To You By - Ian                                                                                          02  150                                
ID FAMCHA010302051925051930000005Generic ID - Marbles                                                                                                    06  150                                
ID FAMCHA010302051930051940000010URL(1) - FAMILIES                                                                                                       06  150                                
ID FAMCHA010302051940052000000020Morning block open play pen                                                                                             06  150                                
PROFAMCHA010302052000052007000007CC Is Brought To You By - Lark                                                                                          02  150                                
PGRFAMCHA010302052007054426002419Billy The Cat                                     A Star Is Born                                                B27646A1065607ECC                              
PROFAMCHA010302054426054433000007CC Was Brought To You By - Lark                                                                                         02  150                                
ID FAMCHA010302054433054440000007Generic ID - Whisper*                                                                                                   06  150                                
ID FAMCHA010302054440054500000020Morning block open play pen                                                                                             06  150                                
PROFAMCHA010302054500054507000007CC Is Brought To You By - Ian                                                                                           02  150                                
PGRFAMCHA010302054507061127002620Little Lulu Show; The                             Friends & Enemies/The Beauty Contest/Rich Little P            P22335A1065607ECC                              
PROFAMCHA010302061127061134000007CC Was Brought To You By - Lark                                                                                         06  150                                
ID FAMCHA010302061134061139000005Generic ID - Bubbles*                                                                                                   06  150                                
PROFAMCHA010302061139061146000007CC Is Brought To You By - Lark                                                                                          06  150                                
PGRFAMCHA010302061146063546002400Big Garage; The                                   Stop And Listen                                               P21466 1065607ECC                              
PROFAMCHA010302063546063553000007CC Was Brought To You By - Ian                                                                                          06  150                                
ID FAMCHA010302063553063558000005Generic ID - Couch 2*                                                                                                   06  150                                
PGRFAMCHA010302063558065935002337Clarissa                                          ESP R-Us                                                             2068607B                                
ID FAMCHA010302065935065940000005Generic ID - Couch 2*                                                                                                   06  150                                
ID FAMCHA010302065940070000000020Morning block open play pen                                                                                             06  150                                
PROFAMCHA010302070000070008000008CC Is Brought To You By - Lark **DNU AFTER 09/22**                                                                      06  150                                
PGRFAMCHA010302070008072301002253Franklin                                          Franklin Plants a Tree/Franklin and Hero                      P02772A1065607ECC                              
PROFAMCHA010302072301072308000007CC Was Brought To You By - Ian                                                                                          06  150                                
ID FAMCHA010302072308072313000005Generic ID - soccer **DO NOT USE**                                                                                      06  150                                
PROFAMCHA010302072313072333000020Book of Pooh (MARCH2001) - Today @ 9:26am                                                                               06  150                                
PROFAMCHA010302072333072403000030New Adventures of WTP (MARCH2001) - Coming Up                                                                           06  150                                
INTFAMCHA010302072403072752000349Art Attack - Pyramid                                                                                                   60686120                                
PROFAMCHA010302072752072822000030Lion King (MARCH2001) - Weekends @ 3:30pm                                                                              206  150                                
INTFAMCHA010302072822072919000057Frankenguy and the Professor - dog                                                                                     60688120                                
PROFAMCHA010302072919072940000021D12 - Pepper Ann/Doug - Today, starting @ 4pm                                                                           06  150                                
PRCFAMCHA010302072940072950000010Morning Block menu background (flex time)                                                                               06  150                                
ID FAMCHA010302072950073000000010xxMagic of Disney - V2(sky) - KID MALE                                                                                  06  150                                
PROFAMCHA010302073000073008000008CC Is Brought To You By - Ian **DNU AFTER 09/22**                                                                       06  150                                
PGRFAMCHA010302073008075249002241New Adventures of Winnie the Pooh; The            There's No Camp Like Home/Ballonatics                                6068607ECC                              
PROFAMCHA010302075249075256000007CC Was Brought To You By - Lark                                                                                         06  150                                
ID FAMCHA010302075256075306000010Generic ID - Pink inner tube                                                                                            06  150                                
PROFAMCHA010302075306075327000021D12 - Pepper Ann/Doug - Today, starting @ 4pm                                                                           06  150                                
PRCFAMCHA010302075327075402000035Little Lulu (MARCH2001) - Today @ 8:30am                                                                               106  150                                
INTFAMCHA010302075402075717000315Art Attack - Sailing Ship                                                                                              60686120                                
PRCFAMCHA010302075717075740000023Franklin (MARCH2001) - Today @ 12:30pm                                                                                 106  150                                
INTFAMCHA010302075740075856000116Bill Nye - How Can We Communicate?                                                                                     60688120                                
PRCFAMCHA010302075856075930000034Hoze Houndz (MARCH2001) - Weekends @ 7:00pm                                                                             06  150                                
PRCFAMCHA010302075930075940000010Morning Block menu background (flex time)                                                                               06  150                                
ID FAMCHA010302075940080000000020Morning block open play pen                                                                                             06  150                                
PGRFAMCHA010302080000081939001939Art Attack                                        1-080                                                                60686110                                
ID FAMCHA010302081939081949000010Generic ID - soccer **DO NOT USE**                                                                                      06  150                                
PROFAMCHA010302081949082019000030New Adventures of WTP (MARCH2001) - Weekends @ 5:3                                                                      06  150                                
PRCFAMCHA010302082019082054000035Little Lulu (MARCH2001) - Coming Up                                                                                    106  150                                
PRCFAMCHA010302082054082124000030Madeline (MARCH2001) - Today @ 10:18am                                                                                 102  150                                
PGRFAMCHA010302082124082753000629Richard Scarry - Mr. Frumble's New Cars                                                                         P17879 10656150                                
PRCFAMCHA010302082753082816000023Franklin (MARCH2001) - Today @ 12:30pm                                                                                 106  150                                
INTFAMCHA01030208281608291600010060 Seconds of Science - Simple Machines (anywhere                                                                      60688120                                
PROFAMCHA010302082916082931000015ALF (Lucky) - Today @ Noon                                                                                              06  150                                
PRCFAMCHA010302082931082940000009Morning Block menu background (flex time)                                                                               06  150                                
ID FAMCHA010302082940083000000020Morning block open play pen                                                                                             06  150                                
PROFAMCHA010302083000083008000008CC Is Brought To You By - Lark **DNU AFTER 09/22**                                                                      06  150                                
PGRFAMCHA010302083008085359002351Little Lulu Show; The                             Hairy Day/Noses Off/Boy Cannon Ball                           B03813A1065607ECC                              
PROFAMCHA010302085359085407000008CC Was Brought To You By - Ian                                                                                          06  150                                
ID FAMCHA010302085407085417000010Generic ID - Family w/dog                                                                                               06  150                                
PROFAMCHA010302085417085432000015ALF (Lucky) - Today @ Noon                                                                                              06  150                                
PRCFAMCHA010302085432085506000034Hoze Houndz (MARCH2001) - Weekends @ 7:00pm                                                                             06  150                                
INTFAMCHA010302085506085839000333Art Attack - Horse Race                                                                                                60686120                                
PROFAMCHA010302085839085900000021D12 - Pepper Ann/Doug - Today, starting @ 4pm                                                                           06  150                                
PROFAMCHA010302085900090000000100Morning Crunch (MARCH2001) - PB&J/BOOK/BUSY                                                                             06  150                                
PROFAMCHA010302090000090008000008CC Is Brought To You By - Ian **DNU AFTER 09/22**                                                                       06  150                                
PGRFAMCHA010302090008092338002330PB&J Otter                                        Mystery Crate/It's A Bird, It's A Plane, It's An E                   6068607ECC                              
PROFAMCHA010302092338092347000009CC Was Brought To You By - Lark                                                                                         02  150                                
ID FAMCHA010302092347092354000007Generic ID - Whisper*                                                                                                   06  150                                
PROFAMCHA010302092354092414000020Book of Pooh (CRUNCH) - Coming Up                                                                                       06  150                                
PRCFAMCHA010302092414092444000030Franklin (MARCH2001) - Today @ 12:30pm                                                                                 106  150                                
PROFAMCHA010302092444092500000016ALF (Description) - Today @ 12pm                                                                                        06  150                                
PROFAMCHA010302092500092600000100Morning Crunch (MARCH2001) - BOOK/BUSY/MADELINE                                                                         06  150                                
PGRFAMCHA010302092600095002002402Book Of Pooh; The                                 Circumference = Pirate 'Arrr' Squared/Pooh's To Do                   6028607G                                
ID FAMCHA010302095002095007000005Generic ID - Couch 1*                                                                                                   06  150                                
PROFAMCHA010302095007095021000014ALF (Dreams) - Today @ 12pm                                                                                             06  150                                
PROFAMCHA010302095021095121000100Morning Crunch (MARCH2001) - BUSY/MADELINE/OOTB                                                                         06  150                                
PROFAMCHA010302095121095129000008CC Is Brought To You By - Lark **DNU AFTER 09/22**                                                                      06  150                                
PGRFAMCHA010302095129101539002410Busy World Of Richard Scarry; The                 Billy Dog Gets Glasses                                        P24299 1165607ECC                              
PROFAMCHA010302101539101547000008CC Was Brought To You By - Ian                                                                                          06  150                                
ID FAMCHA010302101547101552000005Generic ID - Fingerpaint                                                                                                06  150                                
PROFAMCHA010302101552101610000018Book of Pooh (MARCH2001) - Today @ 1:26pm                                                                               02  150                                
PROFAMCHA010302101610101625000015Doug (MARCH2001) - Today @ 4pm                                                                                          06  150                                
PRCFAMCHA010302101625101659000034Hoze Houndz (MARCH2001) - Weekends @ 7:00pm                                                                             06  150                                
PROFAMCHA010302101659101759000100Morning Crunch (MARCH2001) - MADELINE/OOTB/GOOF                                                                         06  150                                
PROFAMCHA010302101759101806000007CC Is Brought To You By - Lark                                                                                          06  150                                
PGRFAMCHA010302101806104045002239Madeline                                          Madeline and the Marionettes                                         6028607E                                
PROFAMCHA010302104045104052000007CC Was Brought To You By - Ian                                                                                          06  150                                
ID FAMCHA010302104052104102000010Generic ID - Ring around the rosie                                                                                      06  150                                
PROFAMCHA010302104102104132000030Lion King (MARCH2001) - Weekends @ 3:30pm                                                                              206  150                                
PROFAMCHA010302104132104145000013Buzz Lightyear (DISNEY'S ONE TOO) - Today @ 5:30pm                                                                      06  150                                
INTFAMCHA01030210414510424500010060 Seconds of Science - Bike Gears (anywhere but D                                                                     60688120                                
PROFAMCHA010302104245104300000015ALF (Lucky) - Today @ Noon                                                                                              06  150                                
PROFAMCHA010302104300104400000100Morning Crunch (MARCH2001) - OOTB/GOOF/ALADDIN                                                                          06  150                                
PGRFAMCHA010302104400110714002314Out of the Box                                    Circle Circus                                                        60686110                                
ID FAMCHA010302110714110721000007Generic ID - Whisper*                                                                                                   06  150                                
PROFAMCHA010302110721110745000024ALF - Today @ Noon                                                                                                      06  150                                
PRCFAMCHA010302110745110820000035Little Lulu (MARCH2001) - Tomorrow @ 6:30pm                                                                            102  150                                
PRCFAMCHA010302110820110850000030Franklin (MARCH2001) - Today @ 12:30pm                                                                                 106  150                                
PROFAMCHA010302110850110950000100Morning Crunch (MARCH2001) - GOOF/ALADDIN/RECAP                                                                         06  150                                
ID FAMCHA010302110950111000000010xxMagic of Disney - V3(water) - KID FEMALE                                                                              06  150                                
PROFAMCHA010302111000111008000008CC Is Brought To You By - Lark **DNU AFTER 09/22**                                                                      06  150                                
PGRFAMCHA010302111008113250002242Goof Troop                                        Max-Imum Protection                                                  6068607ECC                              
PROFAMCHA010302113250113258000008CC Was Brought To You By - Lark                                                                                         06  150                                
ID FAMCHA010302113258113303000005Generic ID - Fingerpaint                                                                                                06  150                                
PROFAMCHA010302113303113333000030Color of Friendship - Sunday @ 12pm                                                                                     06  150                                
PROFAMCHA010302113333113348000015ALF (Lucky) - Today @ Noon                                                                                              06  150                                
PROFAMCHA010302113348113416000028Honey (MARCH2001) - Tonight @ 8pm                                                                                       06  150                                
PRCFAMCHA010302113416113450000034Hoze Houndz (MARCH2001) - Weekends @ 7:00pm                                                                             06  150                                
PROFAMCHA010302113450113550000100Morning Crunch (MARCH2001) - ALADDIN/RECAP                                                                              06  150                                
ID FAMCHA010302113550113600000010xxMagic of Disney - V2(sky) - KID FEMALE                                                                                06  150                                
PROFAMCHA010302113600113607000007CC Is Brought To You By - Lark                                                                                          06  150                                
PGRFAMCHA010302113607115840002233Disney's Aladdin                                  Caught By The Tale                                                   6068607ECC                              
PROFAMCHA010302115840115847000007CC Was Brought To You By - Ian                                                                                          06  150                                
ID FAMCHA010302115847115852000005Generic ID - Couch 1*                                                                                                   06  150                                
PROFAMCHA010302115852115952000100Morning Crunch (MARCH2001) - RECAP                                                                                      06  150                                
ID FAMCHA010302115952120007000015Afternoon block pinball open **DO NOT USE**                                                                             06  150                                
PROFAMCHA010302120007120015000008CC Is Brought To You By - Ian **DNU AFTER 09/22**                                                                       06  150                                
PGRFAMCHA010302120015122144002129ALF                                               Stairway To Heaven                                                  A2028807BCC                              
PROFAMCHA010302122144122154000010CC Was Brought To You By - Lark                                                                                         02  150                                
ID FAMCHA010302122154122204000010Generic ID - soccer **DO NOT USE**                                                                                      06  150                                
PROFAMCHA010302122204122234000030Color of Friendship - Sunday @ 12pm                                                                                     06  150                                
PRCFAMCHA010302122234122304000030Franklin (MARCH2001) - Coming Up                                                                                       106  150                                
PRCFAMCHA010302122304122349000045No Boundaries Contest (MAR04) - Sunday @ 12pm                                                                          106  150                                
INTFAMCHA010302122349122759000410MV Disney - Colours Of The Wind (POCAHONTAS)                                                                           60688120                                
INTFAMCHA010302122759122903000104Bill Nye - Let's Talk About Stress                                                                                     60688120                                
PROFAMCHA0103021229031229330000302 Hour Tour - LFO (MAR04) - Sunday @ 7:30pm                                                                             06  150                                
PRCFAMCHA010302122933122945000012Morning Block menu background (flex time)                                                                               06  150                                
ID FAMCHA010302122945123000000015Afternoon block pinball open **DO NOT USE**                                                                             06  150                                
PROFAMCHA010302123000123008000008CC Is Brought To You By - Ian **DNU AFTER 09/22**                                                                       06  150                                
PGRFAMCHA010302123008125301002253Franklin                                          At The Seashore/Snail's Dream                                 A38158A1065607ECC                              
PROFAMCHA010302125301125311000010CC Was Brought To You By - Lark                                                                                         06  150                                
ID FAMCHA010302125311125321000010Generic ID - confetti                                                                                                   06  150                                
PROFAMCHA010302125321125342000021D12 - Pepper Ann/Doug - Today, starting @ 4pm                                                                           06  150                                
PROFAMCHA010302125342125427000045PB&J Otter (MARCH2001) - Coming Up                                                                                     206  150                                
PRCFAMCHA010302125427125501000034Hoze Houndz (MARCH2001) - Tonight @ 7:00pm                                                                              06  150                                
INTFAMCHA010302125501125830000329Art Attack - 2 Swans                                                                                                   60686120                                
PRCFAMCHA010302125830125900000030Madeline (MARCH2001) - Tomorrow @ 6:35am                                                                               102  150                                
PROFAMCHA010302125900130000000100Afternoon Rebound (MARCH2001) - PB&J/BOOK/BUSY                                                                          06  150                                
PROFAMCHA010302130000130007000007CC Is Brought To You By - Lark                                                                                          06  150                                
PGRFAMCHA010302130007132337002330PB&J Otter                                        Whistling Up The Wrong Munchy/Billy the Duck                         6068607ECC                              
PROFAMCHA010302132337132346000009CC Was Brought To You By - Ian                                                                                          02  150                                
ID FAMCHA010302132346132351000005Generic ID - Couch 1*                                                                                                   06  150                                
PRCFAMCHA010302132351132425000034Hoze Houndz (MARCH2001) - Weekends @ 7:00pm                                                                             06  150                                
PRCFAMCHA010302132425132500000035Little Lulu (MARCH2001) - Tomorrow @ 6:30pm                                                                            106  150                                
PROFAMCHA010302132500132600000100Afternoon Rebound (MARCH2001) - BOOK/BUSY/MADELINE                                                                      06  150                                
PGRFAMCHA010302132600135001002401Book Of Pooh; The                                 Pigletry/Dinosnores                                                  6028607G                                
ID FAMCHA010302135001135006000005Generic ID - Bubbles*                                                                                                   06  150                                
PROFAMCHA010302135006135021000015Doug (MARCH2001) - Today @ 4pm                                                                                          06  150                                
PROFAMCHA010302135021135121000100Afternoon Rebound (MARCH2001) - BUSY/MADELINE/OOTB                                                                      06  150                                
PROFAMCHA010302135121135128000007CC Is Brought To You By - Lark                                                                                          06  150                                
PGRFAMCHA010302135128141538002410Busy World Of Richard Scarry; The                 The Big Dare                                                  P24300 1165607ECC                              
PROFAMCHA010302141538141545000007CC Was Brought To You By - Ian                                                                                          06  150                                
ID FAMCHA010302141545141600000015Generic ID - confetti                                                                                                   06  150                                
PRCFAMCHA010302141600141630000030Madeline (MARCH2001) - Coming Up                                                                                       106  150                                
PROFAMCHA010302141630141700000030New Adventures of WTP (MARCH2001) - Weekends @ 5:3                                                                      06  150                                
PROFAMCHA010302141700141800000100Afternoon Rebound (MARCH2001) - MADELINE/OOTB/GOOF                                                                      06  150                                
PROFAMCHA010302141800141808000008CC Is Brought To You By - Ian **DNU AFTER 09/22**                                                                       06  150                                
PGRFAMCHA010302141808144048002240Madeline                                          Madeline and the Ice Skates                                          6028607E                                
PROFAMCHA010302144048144057000009CC Was Brought To You By - Lark                                                                                         06  150                                
ID FAMCHA010302144057144107000010Generic ID - Family w/dog                                                                                               06  150                                
PRCFAMCHA010302144107144142000035Little Lulu (MARCH2001) - Tomorrow @ 6:30pm                                                                            106  150                                
PROFAMCHA010302144142144227000045PB&J Otter (MARCH2001) - Weekends @ 5pm                                                                                206  150                                
PRCFAMCHA010302144227144301000034Hoze Houndz (MARCH2001) - Weekends @ 7:00pm                                                                             06  150                                
PROFAMCHA010302144301144401000100Afternoon Rebound (MARCH2001) - OOTB/GOOF/ALADDIN                                                                       06  150                                
PROFAMCHA010302144401144409000008CC Is Brought To You By - Lark **DNU AFTER 09/22**                                                                      06  150                                
