SO FAMCHA100701043000043011000011Sign On (oct 1)                                                                                                                                                
PGRFAMCHA100701043011045650002639Katie And Orbie                                   EP: 72                                                        B62275A1065607ECC                              
ID FAMCHA100701045650045656000006Astral ID NEW (May 2010)                                                                                                    150                                
PROFAMCHA100701045656045711000015PH-D - Show Throw - CAN Franny's Feet #1- Ooh & Aa                                                                          150                                
PROFAMCHA100701045711045721000010PH-D EOB ID - Beach (Sept09)                                                                                                150                                
PGRFAMCHA100701045721051953002232Franny's Feet                                     EP: 46                                                        C31292 1065607ECC                              
ID FAMCHA100701051953051959000006Astral ID NEW (May 2010)                                                                                                    150                                
PROFAMCHA100701051959052019000020PH-D - Show Throw - CAN Benjamin Bear #2-  Ooh & A                                                                          150                                
PROFAMCHA100701052019052029000010PH-D EOB ID - Bouncy Flex (Sept09)                                                                                          150                                
PGRFAMCHA100701052029054300002231Secret World of Benjamin Bear, The                EP: 23                                                        C26066 1065607ECC                              
ID FAMCHA100701054300054306000006Astral ID NEW (May 2010)                                                                                                    150                                
PROFAMCHA100701054306054336000030PH-D - Show Throw - Generic #2(Now Visit More Frie                                                                          150                                
PROFAMCHA100701054336054346000010PH-D EOB ID - Yard (Sept09)                                                                                                 150                                
PGRFAMCHA100701054346060624002238Hoze Houndz                                       EPS # 6-077                                                   C22818A1065607ECC                              
ID FAMCHA100701060624060630000006Astral ID NEW (May 2010)                                                                                                    150                                
PROFAMCHA100701060630060645000015PH-D - Show Throw - CAN Henry's World #1- Ooh & Aa                                                                          150                                
PROFAMCHA100701060645060655000010PH-D EOB ID - Kaleidoscope # 01 (Sept09)                                                                                    150                                
PGRFAMCHA100701060655063101002406Henry's World                                     EP: 06                                                        B66548A1065607ECC                              
ID FAMCHA100701063101063107000006Astral ID NEW (May 2010)                                                                                                    150                                
PROFAMCHA100701063107063127000020PH-D - Show Throw - CAN Franny's Feet #2- Ooh & Aa                                                                          150                                
PROFAMCHA100701063127063137000010PH-D EOB ID - City - Girl Version (Sept09)                                                                                  150                                
PGRFAMCHA100701063137065409002232Franny's Feet                                     EPS # 36                                                      C23971 1065607ECC                              
ID FAMCHA100701065409065415000006Astral ID NEW (May 2010)                                                                                                    150                                
PROFAMCHA100701065415065445000030PH-D Promo - Centreville Express Weekend July 24-2                                                                          150                                
PROFAMCHA100701065445065515000030Handy Manny - PH-D - Paint, Build, Fix Generic - T                                                                          150                                
PROFAMCHA100701065515065543000028Special Agent OSO - PH-D - Friendship Sell - Weekd                                                                          150                                
PROFAMCHA100701065543065558000015PH-D Short Throw - Dan Zanes # 5 - Up Next (Jan10)                                                                          150                                
PGRFAMCHA100701065558065858000300PH-D Short - Dan Zane's  House Party - 01 - Catch                                                                      60688120                                
PROFAMCHA100701065858065943000045Jungle Junction - PH-D - Signs & Learning Sell -We                                                                          150                                
PROFAMCHA100701065943065958000015PH-D - Show Throw - Mickey Mouse Clubhouse #5 - Oo                                                                          150                                
PROFAMCHA100701065958070008000010PH-D EOB ID - Undersea (Sept09)                                                                                             150                                
PGRFAMCHA100701070008072409002401Disney's Mickey Mouse Clubhouse                   EP: 19                                                               6068605ACC                              
ID FAMCHA100701072409072415000006Astral ID NEW (May 2010)                                                                                                    150                                
PRCFAMCHA100701072415072440000025PH-D Promo - Ooh & Ahh PH-D Throw 2009 - Call Your                                                                          150                                
PROFAMCHA100701072440072455000015PH-D - Show Throw - Mickey Mouse Clubhouse #2- Ooh                                                                          150                                
PROFAMCHA100701072455072505000010PH-D EOB ID - Bubbles - Laughter (Sept09)                                                                                   150                                
PGRFAMCHA100701072505074906002401Disney's Mickey Mouse Clubhouse                   EP: 17                                                               6068605ACC                              
ID FAMCHA100701074906074912000006Astral ID NEW (May 2010)                                                                                                    150                                
PROFAMCHA100701074912074942000030PH-D Promo - PH-D On Demand - PH-D.CA/Grownups (3x                                                                          150                                
PROFAMCHA100701074942075012000030Imagination Movers - PH-D - Generic - This Morning                                                                          150                                
PROFAMCHA100701075012075040000028Special Agent OSO - PH-D - Friendship Sell - This                                                                           150                                
PROFAMCHA100701075040075055000015PH-D - Show Throw - Handy Manny #4 - Ooh & Aah (Se                                                                          150                                
PROFAMCHA100701075055075105000010PH-D EOB ID - Stage (Sept09)                                                                                                150                                
PGRFAMCHA100701075105081506002401Handy Manny                                       EP: 36                                                               6068605ACC                              
ID FAMCHA100701081506081512000006Astral ID NEW (May 2010)                                                                                                    150                                
PROFAMCHA100701081512081557000045PH-D Promo - IM Knock Knock Stunt - Starting Monda                                                                          150                                
PROFAMCHA100701081557081642000045Franny's Feet - PH-D - Perfet 10 - This Morning at                                                                          150                                
PROFAMCHA100701081642081658000016Mickey Mouse Clubhouse - PH-D - Generic 16 - This                                                                           150                                
PROFAMCHA100701081658081743000045Jungle Junction - PH-D - Signs & Learning Sell -We                                                                          150                                
PROFAMCHA100701081743081758000015PH-D - Show Throw - Handy Manny #2 - Ooh & Aah (Se                                                                          150                                
PROFAMCHA100701081758081808000010PH-D EOB ID - Field (Sept09)                                                                                                150                                
PGRFAMCHA100701081808084208002400Handy Manny                                       EP: 09                                                               6068605ACC                              
ID FAMCHA100701084208084214000006Astral ID NEW (May 2010)                                                                                                    150                                
PROFAMCHA100701084214084244000030PH-D Promo - Centreville Express Weekend July 24-2                                                                          150                                
PROFAMCHA100701084244084312000028Special Agent OSO - PH-D - Friendship Sell - This                                                                           150                                
PROFAMCHA100701084312084328000016Mickey Mouse Clubhouse - PH-D - Generic 16 - This                                                                           150                                
PROFAMCHA100701084328084358000030Wow Wow Wubsy - PH-D -  New Episode Sunday Morning                                                                          150                                
PROFAMCHA100701084358084428000030PH-D - Show Throw - Imagination Movers #5 - Ooh &                                                                           150                                
PROFAMCHA100701084428084458000030PH-D Promo - PH-D On Demand - PH-D.CA/Grownups (3x                                                                          150                                
PROFAMCHA100701084458084508000010PH-D EOB ID - Marina (Sept09)                                                                                               150                                
PGRFAMCHA100701084508090840002332Disney Imagination Movers                         EP: 07                                                               6068605ACC                              
ID FAMCHA100701090840090846000006Astral ID NEW (May 2010)                                                                                                    150                                
PROFAMCHA100701090846090931000045PH-D Promo - IM Knock Knock Stunt - Starting Monda                                                                          150                                
PROFAMCHA100701090931090959000028Special Agent OSO - PH-D - Friendship Sell - This                                                                           150                                
PROFAMCHA100701090959091014000015Handy Manny - PH-D - Hop Jump 15 - This Morning @                                                                           150                                
PROFAMCHA100701091014091044000030Harry And His Bucket - New Episode Sunday Morning                                                                           150                                
PROFAMCHA100701091044091059000015PH-D - Show Throw - CAN Franny's Feet #1- Ooh & Aa                                                                          150                                
PROFAMCHA100701091059091109000010PH-D EOB ID - Kaleidoscope # 05 (Sept09)                                                                                    150                                
PGRFAMCHA100701091109093343002234Franny's Feet                                     EP: 44                                                        C31292 1065607ECC                              
ID FAMCHA100701093343093349000006Astral ID NEW (May 2010)                                                                                                    150                                
PRCFAMCHA100701093349093414000025PH-D Promo - Ooh & Ahh PH-D Throw 2009 - Call Your                                                                          150                                
PROFAMCHA100701093414093449000035Franny's Feet - PH-D - Sweetie - Tomorrow Morning                                                                           150                                
PGRFAMCHA100701093449093600000111PH-D Short - Wow! Wow! Wubbzy! (Ep. 205 I Special                                                                     A20688120                                
PROFAMCHA100701093600093630000030Wow Wow Wubsy - PH-D -  New Episode Sunday Morning                                                                          150                                
PROFAMCHA100701093630093700000030PH-D - Show Throw - Special Agent Oso # 5 - Ooh &                                                                           150                                
PROFAMCHA100701093700093710000010PH-D EOB ID - Jungle (Sept09)                                                                                               150                                
PGRFAMCHA100701093710100114002404Special Agent Oso                                 EP: 10                                                               6068605ACC                              
ID FAMCHA100701100114100120000006Astral ID NEW (May 2010)                                                                                                    150                                
PROFAMCHA100701100120100150000030PH-D Promo - Centreville Express Weekend July 24-2                                                                          150                                
PROFAMCHA100701100150100224000034Handy Manny - PH-D - Kelly - This Morning @ 10:30                                                                           150                                
PROFAMCHA100701100224100309000045Jungle Junction - PH-D - Signs & Learning Sell -We                                                                          150                                
PROFAMCHA100701100309100339000030PH-D - Show Throw - Mickey Mouse Clubhouse #7 - Oo                                                                          150                                
PROFAMCHA100701100339100409000030PH-D Promo - PH-D On Demand - PH-D.CA/Grownups (3x                                                                          150                                
PROFAMCHA100701100409100419000010PH-D EOB ID - City - Boy Version (Sept09)                                                                                   150                                
PGRFAMCHA100701100419102820002401Disney's Mickey Mouse Clubhouse                   EP: 35                                                               6068605ACC                              
ID FAMCHA100701102820102826000006Astral ID NEW (May 2010)                                                                                                    150                                
PROFAMCHA100701102826102911000045PH-D Promo - IM Knock Knock Stunt - Starting Monda                                                                          150                                
PROFAMCHA100701102911102941000030Harry And His Bucket - New Episode Sunday Morning                                                                           150                                
PROFAMCHA100701102941103011000030PH-D - Show Throw - Handy Manny #7 - Ooh & Aah (Se                                                                          150                                
PROFAMCHA100701103011103021000010PH-D EOB ID - Sky (Sept09)                                                                                                  150                                
PGRFAMCHA100701103021105419002358Handy Manny                                       EP: 16                                                               6068605ACC                              
ID FAMCHA100701105419105425000006Astral ID NEW (May 2010)                                                                                                    150                                
PROFAMCHA100701105425105437000012NS - 01 - PHINEAS/SUITE LIFE OF Z&C @ 11:30 (:11-:                                                                          150                                
PRCFAMCHA100701105437105447000010Bright Lights Big Summer Logo Sting (June25 - Sept                                                                          150                                
PROFAMCHA100701105447105542000055Paramount Pictures                                                                                                          150                                
PROFAMCHA100701105542105616000034Suite Life of Z & C (NS) Refresh - This Morning @                                                                           150                                
PROFAMCHA100701105616105650000034Hannah Montana (NS) Robbie - This Afternoon @ 12:3                                                                          150                                
PROFAMCHA100701105650105809000119Synergy - Pixie Preview "Sil's Symphony" - Tinkerb                                                                          150                                
PROFAMCHA100701105809105854000045Good Luck Charlie Sibling Sell (NS) - New Episode                                                                           150                                
PROFAMCHA100701105854105914000020Zeke & Luther - S2 GENERIC PROMO (NSW) - Weekend A                                                                          150                                
PROFAMCHA100701105914105943000029Phineas & Ferb (NS) FREAK OUT Coming Up Next (OCT0                                                                          150                                
PROFAMCHA100701105943110001000018Really Big Birth-days Cutdown - Go To Family.ca (A                                                                          150                                
PROFAMCHA100701110001110019000018Nonstop Block Open (:16-:18) APR06                                                                                          150                                
PGRFAMCHA100701110019110115000056Disney Phineas & Ferb                             EP: 23                                                               6068607ECC                              
PGRFAMCHA100701110115111221001106Disney Phineas & Ferb                             EP: 23                                                               6068607ECC                              
PGRFAMCHA100701111221112219000958Disney Phineas & Ferb                             EP: 23                                                               6068607ECC                              
PGRFAMCHA100701112219112249000030Disney Phineas & Ferb                             EP: 23                                                               6068607ECC                              
ID FAMCHA100701112249112255000006Astral ID NEW (May 2010)                                                                                                    150                                
PROFAMCHA100701112255112307000012NS - 02 - SUITE LIFE OF Z&C/WOWP @ 12:00 (:11-:13)                                                                          150                                
PRCFAMCHA100701112307112339000032New Games at Family.ca promo (June 19 - July 17)                                                                            150                                
PROFAMCHA100701112339112429000050Best Western                                                                                                                150                                
PROFAMCHA100701112429112459000030Wizards of Waverly Place METRIC SYSTEM (NS) This A                                                                          150                                
PROFAMCHA100701112459112531000032Zoey 101 (NS) PCA - Tonight @ 5:30 (Apr2010)                                                                                150                                
ID FAMCHA100701112531112601000030Astral ID NEW - 30 sec (May 27 - Aug 19)(Max 4x pe                                                                          150                                
PROFAMCHA100701112601112646000045JONAS "Keepin It Real" (NS) - Tomorrow Night @ 6:3                                                                          150                                
PRCFAMCHA100701112646112722000036Baxter Generics School Promo (NSW) - New Episode S                                                                          150                                
PROFAMCHA100701112722112752000030PH-D Out Of Block - MMCH Generic 31 - Every Mornin                                                                          150                                
PROFAMCHA100701112752112849000057Suite Life of Z & C FABULOUS LIFESTYLES (NS) Comin                                                                          150                                
PROFAMCHA100701112849112934000045Disney Interative                                                                                                           150                                
PRCFAMCHA100701112934113010000036FOD - Family Online On Demand - Go to Family.ca/On                                                                          150                                
PRCFAMCHA100701113010113018000008NS Bumper - Dodgeball (:07-:09) APR06                                                                                       150                                
ID FAMCHA100701113018113025000007Magic of Disney - NS/NSW/PB - Wipe (:06-:09)                                                                                150                                
PGRFAMCHA100701113025113150000125Suite Life of Zack & Cody, The                    EP: 08                                                               6068607BCC                              
PGRFAMCHA100701113150113921000731Suite Life of Zack & Cody, The                    EP: 08                                                               6068607BCC                              
PGRFAMCHA100701113921114613000652Suite Life of Zack & Cody, The                    EP: 08                                                               6068607BCC                              
PGRFAMCHA100701114613115302000649Suite Life of Zack & Cody, The                    EP: 08                                                               6068607BCC                              
ID FAMCHA100701115302115308000006Astral ID NEW (May 2010)                                                                                                    150                                
PROFAMCHA100701115308115320000012NS - 03 - WOWP/HANNAH MONTANA @ 12:30 (:11-:13) (O                                                                          150                                
PROFAMCHA100701115320115353000033Agent Cody Banks - Popcorn Pix - Saturday @ Noon (                                                                          150                                
PROFAMCHA100701115353115443000050Best Western                                                                                                                150                                
PROFAMCHA100701115443115457000014Cory In The House (NS) CORY - This Afternoon @ 1:0                                                                          150                                
PROFAMCHA100701115457115542000045Suite Life on Deck KETTLECORN (NS) - Weekday After                                                                          150                                
PROFAMCHA100701115542115554000012Family Bumpers - (Phase 1 Spring 04) - Pillow Figh                                                                          150                                
PGRFAMCHA100701115554115723000129MV Disney - (MD/NS/NSW) - Joe Jonas & Demi Lovato                                                                      60688120                                
PROFAMCHA100701115723115753000030I'm In The Band - BTS Burger (NSW) - Weekend Morni                                                                          150                                
PROFAMCHA100701115753115823000030Zeke & Luther - AIRBAND Refresh (NSW) - Weekend Af                                                                          150                                
PROFAMCHA100701115823115853000030Wizards of Waverly Place METRIC SYSTEM (NS) Coming                                                                          150                                
PROFAMCHA100701115853115938000045Disney Interative                                                                                                           150                                
PROFAMCHA100701115938120008000030JONAS Living the Dream S2 - Continuing Tomorrow Ni                                                                          150                                
PRCFAMCHA100701120008120021000013NS Bumper - Fashion (:12-:14) JUNE06                                                                                        150                                
PGRFAMCHA100701120021120251000230Disney Wizards of Waverly Place                   EP: 07                                                               6068607BCC                              
PGRFAMCHA100701120251120822000531Disney Wizards of Waverly Place                   EP: 07                                                               6068607BCC                              
PGRFAMCHA100701120822121815000953Disney Wizards of Waverly Place                   EP: 07                                                               6068607BCC                              
PGRFAMCHA100701121815122255000440Disney Wizards of Waverly Place                   EP: 07                                                               6068607BCC                              
ID FAMCHA100701122255122301000006Astral ID NEW (May 2010)                                                                                                    150                                
PROFAMCHA100701122301122314000013NS - 04 - HANNAH MONTANA/CORY @ 1:00 (:11-:13) (Oc                                                                          150                                
PRCFAMCHA100701122314122347000033Baxter Online Promo - Baxter - Family.ca (June 12                                                                           150                                
PROFAMCHA100701122347122437000050Best Western                                                                                                                150                                
PROFAMCHA100701122437122451000014Cory In The House (NS) NEWT - This Afternoon @ 1:0                                                                          150                                
PRCFAMCHA100701122451122836000345Bright Lights Big Summer "It's On" Music Video (Ju                                                                          150                                
PROFAMCHA100701122836122910000034Hannah Montana (NS) Robbie - Coming Up Next (Jan10                                                                          150                                
PROFAMCHA100701122910122955000045Disney Interative                                                                                                           150                                
PRCFAMCHA100701122955123004000009Bright Lights Big Summer Marketing Tour Bumper (Ju                                                                          150                                
PRCFAMCHA100701123004123021000017NS Bumper - Tennis (:15-:17) APR06                                                                                          150                                
PGRFAMCHA100701123021123358000337Hannah Montana                                    EP: 04                                                               6068807BCC                              
PGRFAMCHA100701123358124348000950Hannah Montana                                    EP: 04                                                               6068807BCC                              
PGRFAMCHA100701124348125154000806Hannah Montana                                    EP: 04                                                               6068807BCC                              
PGRFAMCHA100701125154125258000104Hannah Montana                                    EP: 04                                                               6068807BCC                              
ID FAMCHA100701125258125304000006Astral ID NEW (May 2010)                                                                                                    150                                
PROFAMCHA100701125304125317000013NS - 05 - CORY/ RECESS @ 1:30 (:11-:13) (Oct09)                                                                             150                                
PRCFAMCHA100701125317125355000038FamClub - Famclub Stay Connected (2-3x per day)(Ap                                                                          150                                
PROFAMCHA100701125355125445000050Best Western                                                                                                                150                                
PROFAMCHA100701125445125519000034Recess - BELL (NS) - This Afternoon @ 1:30pm (June                                                                          150                                
PROFAMCHA100701125519125616000057Phineas & Ferb - ADVENTURES - (NS) Weekday Afterno                                                                          150                                
PROFAMCHA100701125616125800000144Synergy - DMS Toy Story 3 Int #1 - Tom & Tim - Now                                                                          150                                
PROFAMCHA100701125800125825000025PH-D Out Of Block - Handy Manny "Ola" - Saturday M                                                                          150                                
PROFAMCHA100701125825125925000100Cory In The House (NS) Cory vs. Sophie - Coming Up                                                                          150                                
PROFAMCHA100701125925125955000030Every Hannah Ever Made Stunt - Continues Tonight @                                                                          150                                
PRCFAMCHA100701125955130004000009NS Bumper - Dodgeball (:07-:09) APR06                                                                                       150                                
PGRFAMCHA100701130004130540000536Disney Cory in the House                          EP: 13                                                               6068607BCC                              
PGRFAMCHA100701130540131049000509Disney Cory in the House                          EP: 13                                                               6068607BCC                              
PGRFAMCHA100701131049131557000508Disney Cory in the House                          EP: 13                                                               6068607BCC                              
PGRFAMCHA100701131557132243000646Disney Cory in the House                          EP: 13                                                               6068607BCC                              
ID FAMCHA100701132243132249000006Astral ID NEW (May 2010)                                                                                                    150                                
PROFAMCHA100701132249132302000013NS - 06 - RECESS/ THE REPLACEMENTS @ 2:00 (:11-:13                                                                          150                                
PRCFAMCHA100701132302132338000036FOD - Family Online On Demand - Go to Family.ca/On                                                                          150                                
PGRFAMCHA100701132338132508000130MV Disney - (MD/NS/NSW) - Jesse McCartney - Just S                                                                     60688120                                
PROFAMCHA100701132508132541000033Replacements (NS) IMAGINE - This Afternoon @ 2:00p                                                                          150                                
PROFAMCHA100701132541132626000045Good Luck Charlie Sibling Sell (NS) - New Episode                                                                           150                                
PRCFAMCHA100701132626132924000258Allstar Weekend Int #1 - ASW on Family Full (New A                                                                          150                                
PROFAMCHA100701132924132958000034Recess - BELL (NS) - Coming Up Next (June2010)                                                                              150                                
PRCFAMCHA100701132958133012000014NS Bumper - Fashion (:12-:14) JUNE06                                                                                        150                                
PGRFAMCHA100701133012135247002235Disney's Recess                                   EP: 20                                                               6068607ECC                              
ID FAMCHA100701135247135253000006Astral ID NEW (May 2010)                                                                                                    150                                
PROFAMCHA100701135253135306000013NS - 07 - THE REPLACEMENTS/ NED'S @ 2:30 (:11-:13)                                                                          150                                
PROFAMCHA100701135306135342000036Dadnapped Promo - Sunday @ Noon (FEB09)                                                                                     150                                
PROFAMCHA100701135342135543000201Camp Rock 2 - Road to Interstitial #7 - Prems Sept                                                                          150                                
PROFAMCHA100701135543135619000036Ned's DSSG (NS) School Tour - Weekday Afternoons @                                                                          150                                
PRCFAMCHA100701135619135652000033Favourite Things Int- family.ca - Miley, Selena &                                                                           150                                
PROFAMCHA100701135652135715000023Wizards of Waverly Place HARPER (NS) This Afternoo                                                                          150                                
PROFAMCHA100701135715135811000056Synergy -Toy Story3 MissionClassic 3 -Potatoheads-                                                                          150                                
PROFAMCHA100701135811135843000032Zoey 101 (NS) PCA - Tonight @ 5:30 (Apr2010)                                                                                150                                
ID FAMCHA100701135843135913000030Astral ID NEW - 30 sec (May 27 - Aug 19)(Max 4x pe                                                                          150                                
PROFAMCHA100701135913135946000033Replacements (NS) IMAGINE - Coming Up Next (June20                                                                          150                                
PRCFAMCHA100701135946140003000017NS Bumper - Tennis (:15-:17) APR06                                                                                          150                                
PGRFAMCHA100701140003142233002230The Replacements                                  EP: 05                                                               6068607ECC                              
ID FAMCHA100701142233142239000006Astral ID NEW (May 2010)                                                                                                    150                                
PROFAMCHA100701142239142252000013NS - 08 - NED'S/ LIFE WITH DEREK @ 3:00 (:11-:13)                                                                           150                                
PRCFAMCHA100701142252142302000010Bright Lights Big Summer Logo Sting (June25 - Sept                                                                          150                                
PROFAMCHA100701142302142352000050Best Western                                                                                                                150                                
PROFAMCHA100701142352142852000500JONAS Living the Dream S2 Interstitial - 2-02 - Ou                                                                          150                                
PROFAMCHA100701142852142922000030PH-D Out Of Block - MMCH Generic 31 - Every Mornin                                                                          150                                
PROFAMCHA100701142922142958000036Ned's DSSG (NS) School Tour - Coming Up Next (May2                                                                          150                                
PRCFAMCHA100701142958143011000013NS Bumper - Fashion (:12-:14) JUNE06                                                                                        150                                
PGRFAMCHA100701143011143051000040Ned's Declassified School Survival Guide          EP: 14                                                               2068807BCC                              
PGRFAMCHA100701143051144319001228Ned's Declassified School Survival Guide          EP: 14                                                               2068807BCC                              
PGRFAMCHA100701144319145345001026Ned's Declassified School Survival Guide          EP: 14                                                               2068807BCC                              
PGRFAMCHA100701145345145430000045Ned's Declassified School Survival Guide          EP: 14                                                               2068807BCC                              
ID FAMCHA100701145430145436000006Astral ID NEW (May 2010)                                                                                                    150                                
PROFAMCHA100701145436145449000013NS - 09 - LIFE WITH DEREK/ SUITE LIFE OF Z&C @ 3:3                                                                          150                                
PROFAMCHA100701145449145522000033JONAS "Joe and Stella" (NS) - Tomorrow Night @ 6:3                                                                          150                                
PGRFAMCHA100701145522145902000340MV Disney - (MD/NS/NSW) - Jesse McCartney - Just S                                                                     60688120                                
PROFAMCHA100701145902145932000030Hatching Pete - Saturday Afternoon @ 1:30pm                                                                                 150                                
PRCFAMCHA100701145932150005000033Life W D (NS) Undercover - Coming Up Next (May2010                                                                          150                                
PRCFAMCHA100701150005150019000014NS Bumper - Fashion (:12-:14) JUNE06                                                                                        150                                
PGRFAMCHA100701150019152249002230Life with Derek                                   EP: 21                                                        C26822 1065607BCC                              
ID FAMCHA100701152249152255000006Astral ID NEW (May 2010)                                                                                                    150                                
PROFAMCHA100701152255152308000013NS - 10 - SUITE LIFE OF Z&C/ PHINEAS @ 4:00 (:11-:                                                                          150                                
PROFAMCHA100701152308152326000018Really Big Birth-days Cutdown - Go To Family.ca (A                                                                          150                                
PROFAMCHA100701152326152411000045Fox Home & Entertainment                                                                                                    150                                
PROFAMCHA100701152411152457000046Phineas & Ferb (NS) INSIDE - This Afternoon @ 4:00                                                                          150                                
PROFAMCHA100701152457152527000030Sonny With A Chance TAWNITOWN (NS) - Mon - Thurs N                                                                          150                                
PROFAMCHA100701152527152607000040J.M. Smucker                                                                                                                150                                
PROFAMCHA100701152607152640000033JONAS "Joe and Stella" (NS) - Tomorrow Night @ 6:3                                                                          150                                
PROFAMCHA100701152640152710000030Hatching Pete - Saturday Afternoon @ 1:30pm                                                                                 150                                
PROFAMCHA100701152710152806000056Synergy -Toy Story3 MissionClassic 2 -Rex & Hamm -                                                                          150                                
PROFAMCHA100701152806152836000030Suite Life of Z & C (NS) Season 3 Generic - Coming                                                                          150                                
PROFAMCHA100701152836152926000050Universal Pictures                                                                                                          150                                
PRCFAMCHA100701152926152958000032New Games at Family.ca promo (June 19 - July 17)                                                                            150                                
PRCFAMCHA100701152958153015000017NS Bumper - Tennis (:15-:17) APR06                                                                                          150                                
ID FAMCHA100701153015153024000009Magic of Disney - NS/NSW/PB - Shape (:06-:09)                                                                               150                                
PGRFAMCHA100701153024155254002230Suite Life of Zack and Cody, The                  EP: 09                                                               6068607BCC                              
ID FAMCHA100701155254155300000006Astral ID NEW (May 2010)                                                                                                    150                                
PROFAMCHA100701155300155311000011NS - 11 - PHINEAS/WOWP @ 4:30 (:11-:13) (Oct09)                                                                             150                                
PROFAMCHA100701155311155341000030JONAS Living the Dream S2 - Continuing Tomorrow Ni                                                                          150                                
PROFAMCHA100701155341155426000045Fox Home & Entertainment                                                                                                    150                                
PROFAMCHA100701155426155449000023Wizards of Waverly Place HARPER (NS) This Afternoo                                                                          150                                
PROFAMCHA100701155449155506000017Suite Life on Deck SENIORS (NS) - This Afternoon @                                                                          150                                
PROFAMCHA100701155506155737000231Camp Rock 2 - Road to Interstitial #9 - Prems Sept                                                                          150                                
PRCFAMCHA100701155737155813000036Baxter Generics School Promo (NSW) - New Episode S                                                                          150                                
PROFAMCHA100701155813155842000029Phineas & Ferb (NS) FREAK OUT Coming Up Next (OCT0                                                                          150                                
PROFAMCHA100701155842155937000055Paramount Pictures                                                                                                          150                                
PROFAMCHA100701155937160013000036Dadnapped Promo - Sunday @ Noon (FEB09)                                                                                     150                                
PRCFAMCHA100701160013160020000007NS Bumper - Dodgeball (:07-:09) APR06                                                                                       150                                
PGRFAMCHA100701160020162250002230Disney Phineas & Ferb                             EP: 16                                                               6068607ECC                              
ID FAMCHA100701162250162256000006Astral ID NEW (May 2010)                                                                                                    150                                
PROFAMCHA100701162256162308000012NS - 12 - WOWP/ SUITE LIFE ON DECK @ 5:00 (:11-:13                                                                          150                                
PRCFAMCHA100701162308162344000036FOD - Family Online On Demand - Go to Family.ca/On                                                                          150                                
PROFAMCHA100701162344162429000045Fox Home & Entertainment                                                                                                    150                                
PROFAMCHA100701162429162451000022Zoey 101 (NS) ROOMATES Tonight @ 5:30 (OCT09)                                                                               150                                
PROFAMCHA100701162451162635000144Synergy - DMS Toy Story 3 Int #1 - Tom & Tim - Now                                                                          150                                
PROFAMCHA100701162635162651000016Sonny With A Chance WEATHER (NS) - Tonight @ 7 (Ap                                                                          150                                
PGRFAMCHA100701162651162821000130MV Disney - (MD/NS/NSW) - Jesse McCartney - Just S                                                                     60688120                                
PROFAMCHA100701162821162844000023Wizards of Waverly Place HARPER (NS) Coming Up Nex                                                                          150                                
PROFAMCHA100701162844162934000050Universal Pictures                                                                                                          150                                
PROFAMCHA100701162934163004000030Every Hannah Ever Made Stunt - Continues Tonight @                                                                          150                                
PRCFAMCHA100701163004163018000014NS Bumper - Fashion (:12-:14) JUNE06                                                                                        150                                
PGRFAMCHA100701163018163244000226Disney Wizards of Waverly Place                   EP: 03                                                               6068607BCC                              
PGRFAMCHA100701163244164106000822Disney Wizards of Waverly Place                   EP: 03                                                               6068607BCC                              
PGRFAMCHA100701164106165159001053Disney Wizards of Waverly Place                   EP: 03                                                               6068607BCC                              
PGRFAMCHA100701165159165248000049Disney Wizards of Waverly Place                   EP: 03                                                               6068607BCC                              
ID FAMCHA100701165248165254000006Astral ID NEW (May 2010)                                                                                                    150                                
PROFAMCHA100701165254165306000012NS - 13 - SUITE LIFE ON DECK/ ZOEY 101 @ 5:30 (:11                                                                          150                                
PRCFAMCHA100701165306165315000009Bright Lights Big Summer Marketing Tour Bumper (Ju                                                                          150                                
PROFAMCHA100701165315165400000045Disney Interative                                                                                                           150                                
PROFAMCHA100701165400165432000032Hannah Montana (NS) Sweet 16 - Tonight @ 6:00 (Nov                                                                          150                                
PROFAMCHA100701165432165506000034Jonas MACY PROMO (NS) Tomorrow Night @ 6:30pm (NOV                                                                          150                                
PGRFAMCHA100701165506165641000135MV Disney - (MD/NS/NSW) - Jesse McCartney - Just S                                                                     60688120                                
PROFAMCHA100701165641165726000045Good Luck Charlie Sibling Sell (NS) - New Episode                                                                           150                                
PROFAMCHA100701165726165756000030Hatching Pete - Saturday Afternoon @ 1:30pm                                                                                 150                                
PRCFAMCHA100701165756165832000036Baxter Generics School Promo (NSW) - New Episode S                                                                          150                                
PROFAMCHA100701165832165852000020Zeke & Luther - S2 GENERIC PROMO (NSW) - Weekend A                                                                          150                                
PROFAMCHA100701165852165937000045Walt Disney Pictures                                                                                                        150                                
PROFAMCHA100701165937170003000026Suite Life on Deck RACE CAR (NS) Coming Up Next (O                                                                          150                                
PRCFAMCHA100701170003170020000017NS Bumper - Tennis (:15-:17) APR06                                                                                          150                                
PGRFAMCHA100701170020172506002446The Suite Life on Deck                            EP: 29                                                               6028607BCC                              
ID FAMCHA100701172506172512000006Astral ID NEW (May 2010)                                                                                                    150                                
PROFAMCHA100701172512172524000012NS - 14 - ZOEY 101/ HANNAH MONTANA @ 6:00 (:11-:13                                                                          150                                
PRCFAMCHA100701172524172602000038FamClub - Famclub Stay Connected (2-3x per day)(Ap                                                                          150                                
PROFAMCHA100701172602172657000055Paramount Pictures                                                                                                          150                                
PROFAMCHA100701172657172718000021Wizards of Waverly Place LAMP (NS) Tonight @ 6:30p                                                                          150                                
PROFAMCHA100701172718172918000200Synergy - DMS Sorcerer's Apprentice Int #1 - In Th                                                                          150                                
PROFAMCHA100701172918172940000022Zoey 101 (NS) ROOMATES Coming Up Next (AUG09)                                                                               150                                
PRCFAMCHA100701172940173013000033Baxter Online Promo - Baxter - Family.ca (June 12                                                                           150                                
PRCFAMCHA100701173013173020000007NS Bumper - Dodgeball (:07-:09) APR06                                                                                       150                                
PGRFAMCHA100701173020173121000101Zoey 101                                          EP: 51                                                               2068807BCC                              
PGRFAMCHA100701173121174201001040Zoey 101                                          EP: 51                                                               2068807BCC                              
PGRFAMCHA100701174201175314001113Zoey 101                                          EP: 51                                                               2068807BCC                              
PGRFAMCHA100701175314175348000034Zoey 101                                          EP: 51                                                               2068807BCC                              
ID FAMCHA100701175348175354000006Astral ID NEW (May 2010)                                                                                                    150                                
PROFAMCHA100701175354175406000012NS - 15 - HANNAH MONTANA/ WOWP @ 6:30 (:11-:13) (O                                                                          150                                
PROFAMCHA100701175406175424000018Really Big Birth-days Cutdown - Go To Family.ca (A                                                                          150                                
PROFAMCHA100701175424175504000040J.M. Smucker                                                                                                                150                                
PROFAMCHA100701175504175534000030Sonny With A Chance TAWNITOWN (NS) - Tonight @ 7 (                                                                          150                                
PRCFAMCHA100701175534175719000145Movie Entertainment (8)                                                                                                     150                                
PROFAMCHA100701175719175753000034Suite Life of Z & C (NS) Refresh - Monday - Thursd                                                                          150                                
ID FAMCHA100701175753175823000030Astral ID NEW - 30 sec (May 27 - Aug 19)(Max 4x pe                                                                          150                                
PROFAMCHA100701175823175853000030Hatching Pete - Saturday Afternoon @ 1:30pm                                                                                 150                                
PROFAMCHA100701175853175943000050Universal Pictures                                                                                                          150                                
PROFAMCHA100701175943180013000030Every Hannah Ever Made Stunt - Continues Next (Apr                                                                          150                                
PRCFAMCHA100701180013180026000013NS Bumper - Fashion (:12-:14) JUNE06                                                                                        150                                
PGRFAMCHA100701180026180348000322Hannah Montana                                    EP: 01                                                               6068607BCC                              
PGRFAMCHA100701180348181338000950Hannah Montana                                    EP: 01                                                               6068607BCC                              
PGRFAMCHA100701181338182223000845Hannah Montana                                    EP: 01                                                               6068607BCC                              
PGRFAMCHA100701182223182258000035Hannah Montana                                    EP: 01                                                               6068607BCC                              
ID FAMCHA100701182258182304000006Astral ID NEW (May 2010)                                                                                                    150                                
PROFAMCHA100701182304182316000012NS - 16 - WOWP/ SONNY WITH A CHANCE @ 7:00 (:11-:1                                                                          150                                
PROFAMCHA100701182316182346000030JONAS Living the Dream S2 - Continuing Tomorrow Ni                                                                          150                                
PROFAMCHA100701182346182436000050Best Western                                                                                                                150                                
PROFAMCHA100701182436182510000034Sonny with a Chance SONNY & CHAD (NS) - Tonight @                                                                           150                                
PRCFAMCHA100701182510182709000159Allstar Weekend Int #1 - ASW on Family Cutdown (Ne                                                                          150                                
PROFAMCHA100701182709182743000034Suite Life of Z & C (NS) Refresh - Tonight @ 7:30                                                                           150                                
PROFAMCHA100701182743182838000055Synergy - Toy Story 3 - Sneak Peek 1 - "Meet Ken"                                                                           150                                
PROFAMCHA100701182838182908000030Wingin' It Series Promo (NSW) - Weekend Nights @ 6                                                                          150                                
PROFAMCHA100701182908182958000050Universal Pictures                                                                                                          150                                
PROFAMCHA100701182958183010000012Wizards of Waverrly Place ID - Selena Gomez #2 - N                                                                          150                                
PRCFAMCHA100701183010183026000016NS Bumper - Tennis (:15-:17) APR06                                                                                          150                                
PGRFAMCHA100701183026183608000542Disney Wizards of Waverly Place                   EP: 02                                                               6068607BCC                              
PGRFAMCHA100701183608184123000515Disney Wizards of Waverly Place                   EP: 02                                                               6068607BCC                              
PGRFAMCHA100701184123184644000521Disney Wizards of Waverly Place                   EP: 02                                                               6068607BCC                              
PGRFAMCHA100701184644185258000614Disney Wizards of Waverly Place                   EP: 02                                                               6068607BCC                              
ID FAMCHA100701185258185304000006Astral ID NEW (May 2010)                                                                                                    150                                
PROFAMCHA100701185304185316000012NS - 17 - SONNY WITH A CHANCE/ SUITE LIFE OF Z&C @                                                                          150                                
PROFAMCHA100701185316185352000036Dadnapped Promo - Sunday @ Noon (FEB09)                                                                                     150                                
PROFAMCHA100701185352185442000050Best Western                                                                                                                150                                
PROFAMCHA100701185442185531000049Overruled! - Refresh (NS) - Tonight @ 8 (May2010)                                                                           150                                
PROFAMCHA100701185531185628000057Phineas & Ferb - ADVENTURES - (NS) Weekday Afterno                                                                          150                                
PROFAMCHA100701185628185718000050Universal Pictures                                                                                                          150                                
PROFAMCHA100701185718185735000017Suite Life on Deck SENIORS (NSW) - Weekend Morning                                                                          150                                
PROFAMCHA100701185735185820000045JONAS "Do's And Don'ts" (NSW) - Weekend Nights @ 6                                                                          150                                
PROFAMCHA100701185820185905000045Sonny With A Chance MADE UP SHOW (NS) - Coming Up                                                                           150                                
PROFAMCHA100701185905185950000045Walt Disney Pictures                                                                                                        150                                
PROFAMCHA100701185950190020000030Every Hannah Ever Made Stunt - Mon-Thurs @ 6; Week                                                                          150                                
PRCFAMCHA100701190020190027000007NS Bumper - Dodgeball (:07-:09) APR06                                                                                       150                                
PGRFAMCHA100701190027192258002231Sonny With A Chance                               EP: 04                                                               6068607BCC                              
ID FAMCHA100701192258192304000006Astral ID NEW (May 2010)                                                                                                    150                                
PROFAMCHA100701192304192316000012NS - 18 - SUITE LIFE OF Z&C/ OVERRULED! @ 8:00 (:1                                                                          150                                
PROFAMCHA100701192316192349000033Agent Cody Banks - Popcorn Pix - Saturday @ Noon (                                                                          150                                
PROFAMCHA100701192349192434000045Disney Interative                                                                                                           150                                
PROFAMCHA100701192434192454000020Hannah Montana (NS) Wig Off - Tonight @ 8:30 (Jan1                                                                          150                                
PROFAMCHA100701192454192523000029I'm In The Band - BTS Derek (NSW) - Weekend Mornin                                                                          150                                
PRCFAMCHA100701192523192708000145Movie Entertainment (8)                                                                                                     150                                
PRCFAMCHA100701192708192744000036Baxter Generics School Promo (NSW) - New Episode S                                                                          150                                
PROFAMCHA100701192744192814000030Zeke & Luther - BTS ZEKE'S ROOM (NSW) Weekend Afte                                                                          150                                
PROFAMCHA100701192814192911000057Suite Life of Z & C FABULOUS LIFESTYLES (NS) Comin                                                                          150                                
PROFAMCHA100701192911193001000050Universal Pictures                                                                                                          150                                
PRCFAMCHA100701193001193010000009Bright Lights Big Summer Marketing Tour Bumper (Ju                                                                          150                                
PRCFAMCHA100701193010193023000013NS Bumper - Fashion (:12-:14) JUNE06                                                                                        150                                
ID FAMCHA100701193023193029000006Magic of Disney - NS/NSW/PB - Shape (:06-:09)                                                                               150                                
PGRFAMCHA100701193029195308002239Suite Life of Zack & Cody, The                    EP: 08                                                               6068607BCC                              
ID FAMCHA100701195308195314000006Astral ID NEW (May 2010)                                                                                                    150                                
PROFAMCHA100701195314195326000012NS - 19 - OVERRULED!/ HANNAH MONTANA @ 8:30 (:11-:                                                                          150                                
PRCFAMCHA100701195326195358000032New Games at Family.ca promo (June 19 - July 17)                                                                            150                                
PROFAMCHA100701195358195438000040J.M. Smucker                                                                                                                150                                
PROFAMCHA100701195438195508000030Wizards of Waverly Place METRIC SYSTEM (NS) Tonigh                                                                          150                                
PRCFAMCHA100701195508195638000130Movie Entertainment (8)                                                                                                     150                                
PROFAMCHA100701195638195723000045Good Luck Charlie Sibling Sell (NS) - New Episode                                                                           150                                
PGRFAMCHA100701195723195853000130MV Disney - (MD/NS/NSW) - Jesse McCartney - Just S                                                                     60688120                                
PROFAMCHA100701195853195942000049Overruled! - Refresh (NS) - Coming Up Next (May201                                                                          150                                
PROFAMCHA100701195942200012000030I'm In The Band - BTS Burger (NSW) - Weekend Morni                                                                          150                                
PRCFAMCHA100701200012200029000017NS Bumper - Tennis (:15-:17) APR06                                                                                          150                                
PGRFAMCHA100701200029202300002231Overruled!                                        EP: 03                                                        C28762 1055607ACC3                             
ID FAMCHA100701202300202306000006Astral ID NEW (May 2010)                                                                                                    150                                
PROFAMCHA100701202306202318000012NS - 20 - HANNAH MONTANA/ WOWP @ 9:00 (:11-:13) (O                                                                          150                                
PRCFAMCHA100701202318202328000010Bright Lights Big Summer Logo Sting (June25 - Sept                                                                          150                                
PROFAMCHA100701202328202413000045Entertainment 1                                                                                                             150                                
PRCFAMCHA100701202413202443000030Latest Buzz - LOCO (NS) Tonight @ 9:30pm (OCT09)                                                                            150                                
PROFAMCHA100701202443202528000045Suite Life on Deck KETTLECORN (NS) - Tomorrow Nigh                                                                          150                                
PROFAMCHA100701202528202728000200Synergy - DMS Sorcerer's Apprentice Int #1 - In Th                                                                          150                                
PROFAMCHA100701202728202813000045Phineas & Ferb (NSW) INSIDE - Weekend Mornings @ 8                                                                          150                                
PROFAMCHA100701202813202842000029Hannah Montana (NS) Science - Coming Up Next (SEPT                                                                          150                                
PROFAMCHA100701202842202932000050Best Western                                                                                                                150                                
PRCFAMCHA100701202932203008000036FOD - Family Online On Demand - Go to Family.ca/On                                                                          150                                
PRCFAMCHA100701203008203016000008NS Bumper - Dodgeball (:07-:09) APR06                                                                                       150                                
PGRFAMCHA100701203016205254002238Hannah Montana                                    EP: 03                                                               6068807BCC                              
ID FAMCHA100701205254205300000006Astral ID NEW (May 2010)                                                                                                    150                                
PROFAMCHA100701205300205312000012NS - 21 - WOWP/ LATEST BUZZ @ 9:30 (:11-:13) (Oct0                                                                          150                                
PRCFAMCHA100701205312205345000033Baxter Online Promo - Baxter - Family.ca (June 12                                                                           150                                
PROFAMCHA100701205345205440000055Paramount Pictures                                                                                                          150                                
PROFAMCHA100701205440205523000043Ned's DSSG (NS) Too Cool for School  - Tonight @ 1                                                                          150                                
PRCFAMCHA100701205523205708000145Movie Entertainment (8)                                                                                                     150                                
PROFAMCHA100701205708205725000017Suite Life on Deck SENIORS (NS) - Weekday Afternoo                                                                          150                                
ID FAMCHA100701205725205755000030Astral ID NEW - 30 sec (May 27 - Aug 19)(Max 4x pe                                                                          150                                
PROFAMCHA100701205755205825000030Wingin' It Series Promo (NSW) - Weekend Nights @ 6                                                                          150                                
PROFAMCHA100701205825205922000057Synergy -Toy Story3 MissionClassic 1 -Buzz&Woody -                                                                          150                                
PROFAMCHA100701205922205952000030Wizards of Waverly Place METRIC SYSTEM (NS) Coming                                                                          150                                
PROFAMCHA100701205952210010000018Really Big Birth-days Cutdown - Go To Family.ca (A                                                                          150                                
PRCFAMCHA100701210010210024000014NS Bumper - Fashion (:12-:14) JUNE06                                                                                        150                                
PGRFAMCHA100701210024210421000357Disney Wizards of Waverly Place                   EP: 03                                                               6068507BCC                              
PGRFAMCHA100701210421211250000829Disney Wizards of Waverly Place                   EP: 03                                                               6068507BCC                              
PGRFAMCHA100701211250212133000843Disney Wizards of Waverly Place                   EP: 03                                                               6068507BCC                              
PGRFAMCHA100701212133212254000121Disney Wizards of Waverly Place                   EP: 03                                                               6068507BCC                              
ID FAMCHA100701212254212300000006Astral ID NEW (May 2010)                                                                                                    150                                
PROFAMCHA100701212300212311000011NS - 22 - LATEST BUZZ/ NED'S DSSG @ 10:00 (:11-:13                                                                          150                                
PROFAMCHA100701212311212341000030JONAS Living the Dream S2 - Continuing Tomorrow Ni                                                                          150                                
PROFAMCHA100701212341212426000045Disney Interative                                                                                                           150                                
PROFAMCHA100701212426212456000030Aaron Stone (NS) JetPack Retag - Tonight @ 10:30 (                                                                          150                                
PRCFAMCHA100701212456212841000345Bright Lights Big Summer "It's On" Music Video (Ju                                                                          150                                
PROFAMCHA100701212841212904000023Wizards of Waverly Place HARPER (NS) Tomorrow @ 6                                                                           150                                
PRCFAMCHA100701212904212934000030Latest Buzz - LOCO (NS) Coming Up Next (MAY08)                                                                              150                                
PROFAMCHA100701212934213010000036Dadnapped Promo - Sunday @ Noon (FEB09)                                                                                     150                                
PRCFAMCHA100701213010213025000015NS Bumper - Tennis (:15-:17) APR06                                                                                          150                                
PGRFAMCHA100701213025215300002235Latest Buzz II                                    EP: 22                                                        C29635 1065607BCC                              
ID FAMCHA100701215300215306000006Astral ID NEW (May 2010)                                                                                                    150                                
PROFAMCHA100701215306215318000012NS - 23 - NED'S DSSG/ Aaron Stone @ 10:30 (:11-:13                                                                          150                                
PRCFAMCHA100701215318215356000038FamClub - Famclub Stay Connected (2-3x per day)(Ap                                                                          150                                
PROFAMCHA100701215356215423000027That's So Raven CLIP (NS) Monday to Thursday Night                                                                          150                                
PROFAMCHA100701215423215654000231Camp Rock 2 - Road to Interstitial #8 - Prems Sept                                                                          150                                
PROFAMCHA100701215654215727000033JONAS "Joe and Stella" (NS) - Tomorrow Night @ 6:3                                                                          150                                
PRCFAMCHA100701215727215803000036Baxter Generics School Promo (NSW) - New Episode S                                                                          150                                
PRCFAMCHA100701215803215933000130Movie Entertainment (8)                                                                                                     150                                
PROFAMCHA100701215933220016000043Ned's DSSG (NS) Too Cool for School  - Coming Up N                                                                          150                                
PRCFAMCHA100701220016220023000007NS Bumper - Dodgeball (:07-:09) APR06                                                                                       150                                
PGRFAMCHA100701220023220103000040Ned's Declassified School Survival Guide          EP: 14                                                               2068807BCC                              
PGRFAMCHA100701220103221331001228Ned's Declassified School Survival Guide          EP: 14                                                               2068807BCC                              
PGRFAMCHA100701221331222357001026Ned's Declassified School Survival Guide          EP: 14                                                               2068807BCC                              
PGRFAMCHA100701222357222442000045Ned's Declassified School Survival Guide          EP: 14                                                               2068807BCC                              
ID FAMCHA100701222442222448000006Astral ID NEW (May 2010)                                                                                                    150                                
PROFAMCHA100701222448222500000012NS - 24 - Aaron Stone/ THAT'S SO RAVEN @ 11:00 (:1                                                                          150                                
PRCFAMCHA100701222500222509000009Bright Lights Big Summer Marketing Tour Bumper (Ju                                                                          150                                
PROFAMCHA100701222509222559000050Best Western                                                                                                                150                                
PROFAMCHA100701222559222616000017Suite Life on Deck SENIORS (NS) - Tomorrow Night @                                                                          150                                
PROFAMCHA100701222616222646000030I'm In The Band - BTS Burger (NSW) - Weekend Morni                                                                          150                                
PRCFAMCHA100701222646222816000130Movie Entertainment (8)                                                                                                     150                                
PROFAMCHA100701222816222846000030Wingin' It Series Promo (NSW) - Weekend Nights @ 6                                                                          150                                
PROFAMCHA100701222846222911000025PH-D Out Of Block - Handy Manny "Ola" - Saturday M                                                                          150                                
PROFAMCHA100701222911222941000030Aaron Stone (NS) Comedy Sell Retag - Coming Up Nex                                                                          150                                
PROFAMCHA100701222941223014000033Agent Cody Banks - Popcorn Pix - Saturday @ Noon (                                                                          150                                
PRCFAMCHA100701223014223027000013NS Bumper - Fashion (:12-:14) JUNE06                                                                                        150                                
PGRFAMCHA100701223027225259002232Aaron Stone                                       EP: 05                                                               6068707ACC                              
ID FAMCHA100701225259225305000006Astral ID NEW (May 2010)                                                                                                    150                                
PROFAMCHA100701225305225317000012NS - 25 - THAT'S SO RAVEN/LIFE WITH DEREK (:11-:13                                                                          150                                
PROFAMCHA100701225317225335000018Really Big Birth-days Cutdown - Go To Family.ca (A                                                                          150                                
PROFAMCHA100701225335225405000030Suite Life of Z & C (NS) Season 3 Generic - Weekda                                                                          150                                
PROFAMCHA100701225405225905000500JONAS Living the Dream S2 Interstitial - 2-02 - Ou                                                                          150                                
PROFAMCHA100701225905225959000054That's So Raven FORTUNE TELLER (NS) Coming Up Next                                                                          150                                
PRCFAMCHA100701225959230015000016NS Bumper - Tennis (:15-:17) APR06                                                                                          150                                
ID FAMCHA100701230015230021000006Magic of Disney - NS/NSW/PB - Shape (:06-:09)                                                                               150                                
PGRFAMCHA100701230021230319000258That's So Raven                                   EP: 068                                                              6068607BCC                              
PGRFAMCHA100701230319230835000516That's So Raven                                   EP: 068                                                              6068607BCC                              
PGRFAMCHA100701230835232142001307That's So Raven                                   EP: 068                                                              6068607BCC                              
PGRFAMCHA100701232142232254000112That's So Raven                                   EP: 068                                                              6068607BCC                              
ID FAMCHA100701232254232300000006Astral ID NEW (May 2010)                                                                                                    150                                
PRCFAMCHA100701232300232312000012NS - 26 - LIFE WITH DEREK/SADIE (:11 - :13) (SEPT0                                                                          150                                
PROFAMCHA100701232312232342000030JONAS Living the Dream S2 - Continuing Tomorrow Ni                                                                          150                                
PROFAMCHA100701232342232405000023Wizards of Waverly Place HARPER (NS) Tomorrow @ 6                                                                           150                                
PROFAMCHA100701232405232605000200Synergy - DMS Sorcerer's Apprentice Int #1 - In Th                                                                          150                                
PROFAMCHA100701232605232650000045Good Luck Charlie Sibling Sell (NS) - New Episode                                                                           150                                
PRCFAMCHA100701232650232835000145Movie Entertainment (8)                                                                                                     150                                
PROFAMCHA100701232835232905000030I'm In The Band - BTS Burger (NSW) - Weekend Morni                                                                          150                                
PROFAMCHA100701232905232935000030PH-D Out Of Block - MMCH Generic 31 - Every Mornin                                                                          150                                
PRCFAMCHA100701232935233018000043Life W D (NS) Trailer Generic - Coming Up Next (SE                                                                          150                                
PRCFAMCHA100701233018233027000009NS Bumper - Dodgeball (:07-:09) APR06                                                                                       150                                
PGRFAMCHA100701233027235257002230Life with Derek                                   EP: 14                                                        C26822 1065607BCC                              
ID FAMCHA100701235257235303000006Astral ID NEW (May 2010)                                                                                                    150                                
PRCFAMCHA100701235303235314000011NS - 27 - SADIE/SADIE (:11 - :13) (SEPT07)                                                                                  150                                
PRCFAMCHA100701235314235346000032New Games at Family.ca promo (June 19 - July 17)                                                                            150                                
PROFAMCHA100701235346235431000045Entertainment 1                                                                                                             150                                
PROFAMCHA100701235431235507000036Dadnapped Promo - Sunday @ Noon (FEB09)                                                                                     150                                
PROFAMCHA100701235507235513000006Family Bumpers - (NSW) Tania Gunadi - Aaron Stone                                                                           150                                
PGRFAMCHA100701235513235937000424MV Disney - (MD/NS/NSW) - Jesse McCartney - Just S                                                                     60688120                                
PRCFAMCHA100701235937000006000029Naturally Sadie - CLIP (NS) Coming Up Next (MARCH0                                                                          150                                
PRCFAMCHA100701000006000018000012NS Bumper - Fashion (:12-:14) JUNE06                                                                                        150                                
PGRFAMCHA100701000018002248002230Naturally, Sadie                                  EP: 51                                                        C25428 1065607ACC                              
ID FAMCHA100701002248002254000006Astral ID NEW (May 2010)                                                                                                    150                                
PRCFAMCHA100701002254002306000012NS - 28 - SADIE/HANNAH (:11 - :13) (SEPT07)                                                                                 150                                
PRCFAMCHA100701002306002339000033Baxter Online Promo - Baxter - Family.ca (June 12                                                                           150                                
PROFAMCHA100701002339002424000045Suite Life on Deck KETTLECORN (NS) - Tomorrow Nigh                                                                          150                                
PGRFAMCHA100701002424002738000314MV Disney - (MD/NS/NSW) - Jesse McCartney - Just S                                                                     60688120                                
PROFAMCHA100701002738002808000030Hatching Pete - Saturday Afternoon @ 1:30pm                                                                                 150                                
PROFAMCHA100701002808002824000016Sonny With A Chance WEATHER (NSW) - Weekend Mornin                                                                          150                                
PROFAMCHA100701002824002854000030Wingin' It Series Promo (NSW) - Weekend Nights @ 6                                                                          150                                
PROFAMCHA100701002854002924000030PH-D Out Of Block - MMCH Generic 31 - Sunday Morni                                                                          150                                
PRCFAMCHA100701002924003004000040Naturally Sadie - ROMANTIC (NS) Coming Up Next (MA                                                                          150                                
PRCFAMCHA100701003004003021000017NS Bumper - Tennis (:15-:17) APR06                                                                                          150                                
PGRFAMCHA100701003021005251002230Naturally, Sadie                                  EP: 35                                                        C25428 1065607ACC                              
ID FAMCHA100701005251005257000006Astral ID NEW (May 2010)                                                                                                    150                                
PRCFAMCHA100701005257005309000012NS - 29 - HANNAH/CORY (:11 - :13) (OCT08)                                                                                   150                                
PROFAMCHA100701005309005342000033Agent Cody Banks - Popcorn Pix - Saturday @ Noon (                                                                          150                                
PROFAMCHA100701005342005412000030Hatching Pete - Saturday Afternoon @ 1:30pm                                                                                 150                                
PROFAMCHA100701005412005509000057Phineas & Ferb - ADVENTURES - (NS) Weekday Afterno                                                                          150                                
PGRFAMCHA100701005509005901000352MV Disney - (MD/NS/NSW) - Jesse McCartney - Just S                                                                     60688120                                
PROFAMCHA100701005901005946000045Sonny With A Chance MADE UP SHOW (NSW) - Weekend M                                                                          150                                
PROFAMCHA100701005946010020000034Hannah Montana (NS) Robbie - Coming Up Next (Jan10                                                                          150                                
PRCFAMCHA100701010020010027000007NS Bumper - Dodgeball (:07-:09) APR06                                                                                       150                                
PGRFAMCHA100701010027010302000235Hannah Montana                                    EP: 18                                                               6068807BCC                              
PGRFAMCHA100701010302011129000827Hannah Montana                                    EP: 18                                                               6068807BCC                              
PGRFAMCHA100701011129012206001037Hannah Montana                                    EP: 18                                                               6068807BCC                              
PGRFAMCHA100701012206012303000057Hannah Montana                                    EP: 18                                                               6068807BCC                              
ID FAMCHA100701012303012309000006Astral ID NEW (May 2010)                                                                                                    150                                
PRCFAMCHA100701012309012320000011NS - 30 - CORY/PHIL (:11 - :13) (OCT08)                                                                                     150                                
PRCFAMCHA100701012320012332000012NS Bumper - Fashion (:12-:14) JUNE06                                                                                        150                                
PGRFAMCHA100701012332012801000429Disney Cory in the House                          EP: 01                                                               6068607BCC                              
PGRFAMCHA100701012801013331000530Disney Cory in the House                          EP: 01                                                               6068607BCC                              
PGRFAMCHA100701013331014428001057Disney Cory in the House                          EP: 01                                                               6068607BCC                              
PGRFAMCHA100701014428014608000140Disney Cory in the House                          EP: 01                                                               6068607BCC                              
ID FAMCHA100701014608014614000006Astral ID NEW (May 2010)                                                                                                    150                                
PRCFAMCHA100701014614014625000011NS - 31 - PHIL/LIZZIE (:11 - :13) (OCT08)                                                                                   150                                
PRCFAMCHA100701014625014640000015NS Bumper - Tennis (:15-:17) APR06                                                                                          150                                
ID FAMCHA100701014640014647000007Magic of Disney - NS/NSW/PB - Shape (:06-:09)                                                                               150                                
PGRFAMCHA100701014647014909000222Phil of the Future                                EPS # 21                                                             6068607BCC                              
PGRFAMCHA100701014909015917001008Phil of the Future                                EPS # 21                                                             6068607BCC                              
PGRFAMCHA100701015917020803000846Phil of the Future                                EPS # 21                                                             6068607BCC                              
PGRFAMCHA100701020803020919000116Phil of the Future                                EPS # 21                                                             6068607BCC                              
ID FAMCHA100701020919020925000006Astral ID NEW (May 2010)                                                                                                    150                                
PRCFAMCHA100701020925020936000011NS - 32 - LIZZIE/LIFE WITH DEREK (:11 - :13) (OCT0                                                                          150                                
PRCFAMCHA100701020936020943000007NS Bumper - Dodgeball (:07-:09) APR06                                                                                       150                                
ID FAMCHA100701020943020949000006Magic of Disney - NS/NSW/PB - Wipe (:06-:09)                                                                                150                                
PGRFAMCHA100701020949023222002233Lizzie McGuire                                    EP: 08                                                               6068607BCC                              
ID FAMCHA100701023222023228000006Astral ID NEW (May 2010)                                                                                                    150                                
PRCFAMCHA100701023228023240000012NS - 33 - LIFE WITH DEREK/CORY IN THE HOUSE (:11 -                                                                          150                                
PRCFAMCHA100701023240023252000012NS Bumper - Fashion (:12-:14) JUNE06                                                                                        150                                
PGRFAMCHA100701023252025522002230Life with Derek                                   EP: 06                                                        C26822 1065607BCC                              
ID FAMCHA100701025522025528000006Astral ID NEW (May 2010)                                                                                                    150                                
PRCFAMCHA100701025528025539000011NS - 34 - CORY IN THE HOUSE/RAVEN (:11 - :13) (SEP                                                                          150                                
