OFFFAMCHA990801043000060000013000                                                                                                                                                               
ID FAMCHA990801060000060011000011Magic of Disney - comet version                                                                                                                                
PROFAMCHA990801060011060016000005CC Disclaimer                                                                                                                                                  
PGRFAMCHA990801060016062328002312Quack Attack                                      Donald In Mathmagicland/Scrooge Mcduck & Money                       6068607ECC                              
ID FAMCHA990801062328062340000012Id - Kids                                                                                                                                                      
PRCFAMCHA990801062340062410000030Undercover Kid - Tonight @ 8:00pm                                                                                                                              
PROFAMCHA990801062410062438000028Going Wild With Jeff Corwin - Saturday @ 12:30 p.m                                                                                                             
PROFAMCHA990801062438062453000015Lion King's Timon & Pumbaa - tonight @ 7:00pm                                                                                                                  
PGRFAMCHA990801062453062827000334Music Video - Forever and Ever                                                                                         60688130                                
PRCFAMCHA990801062827062857000030Heck's Way Home - Monday @ 8:00pm                                                                                                                              
PRCFAMCHA990801062857062912000015Franklin - weekends @ 6:00pm                                                                                                                                   
PROFAMCHA990801062912062942000030Beverly Hillbillies - Wednesday @ 8:00pm                                                                                                                       
ID FAMCHA990801062942062948000006Bumper - Kids                                                                                                                                                  
PRCFAMCHA990801062948063000000012Profile/Chyron - Kids Coming Up                                                                                                                                
PROFAMCHA990801063000063005000005CC Disclaimer                                                                                                                                                  
PGRFAMCHA990801063005065426002421Billy The Cat                                     Curse Of Catopatra                                            B27660 1065607ECC                              
ID FAMCHA990801065426065438000012Id - Kids                                                                                                                                                      
PROFAMCHA990801065438065508000030Beverly Hillbillies - Wednesday @ 8:00pm                                                                                                                       
PROFAMCHA990801065508065534000026Muppets Tonight - Today @ 5:30pm                                                                                                                               
PGRFAMCHA990801065534065914000340Art Attack - Tape Batman                                                                                               60686130                                
PROFAMCHA990801065914065944000030Superman II - Saturday @ 8:00pm                                                                                                                                
ID FAMCHA990801065944065950000006Bumper - Kids                                                                                                                                                  
PRCFAMCHA990801065950070000000010Profile/Chyron - Kids Coming Up                                                                                                                                
PROFAMCHA990801070000070005000005CC Disclaimer                                                                                                                                                  
PGRFAMCHA990801070005072320002315Babar                                             School Days                                                   C07575 1065607ECC                              
PRCFAMCHA990801072320072328000008Profile/Chyron - Kids Coming Up                                                                                                                                
ID FAMCHA990801072328072340000012Id - Kids                                                                                                                                                      
PROFAMCHA990801072340072410000030Turner and Hooch - Thursday @ 8:00pm                                                                                                                           
PROFAMCHA990801072410072425000015Lion King's Timon & Pumbaa - Sunday @ 8:00am                                                                                                                   
PROFAMCHA990801072425072455000030Splash Too - Tuesday @ 8:00pm                                                                                                                                  
PGRFAMCHA990801072455072905000410Music Video - Colours of the Wind                                                                                      60688130                                
PROFAMCHA990801072905072920000015Dinosaurs - weekdays @ 12 noon                                                                                                                                 
PRCFAMCHA990801072920072950000030Heck's Way Home - Monday @ 8:00pm                                                                                                                              
ID FAMCHA990801072950073000000010Magic of Disney - scribble version                                                                                                                             
PROFAMCHA990801073000073005000005CC Disclaimer                                                                                                                                                  
PGRFAMCHA990801073005075223002218PB&J Otter                                        Bye-Bye, PB&J!/Babbleberry Day                                      A6068607ECC                              
PRCFAMCHA990801075223075234000011Profile/Chyron - Kids Coming Up                                                                                                                                
ID FAMCHA990801075234075246000012Id - Kids                                                                                                                                                      
PROFAMCHA990801075246075316000030Splash Too - Tuesday @ 8:00pm                                                                                                                                  
PRCFAMCHA990801075316075331000015Flash Forward - Weeknights @ 9:30pm                                                                                                                            
PGRFAMCHA990801075331075855000524Name Game                                                                                                              60686130                                
PRCFAMCHA990801075855075920000025Ripley's BION - Tonight @ 7:30pm                                                                                                                               
PROFAMCHA990801075920075950000030Turner and Hooch - Thursday @ 8:00pm                                                                                                                           
ID FAMCHA990801075950080000000010Magic of Disney - watercolour version                                                                                                                          
PROFAMCHA990801080000080005000005CC Disclaimer                                                                                                                                                  
PGRFAMCHA990801080005082242002237Lion King's Timon & Pumbaa; The                   Shopping Mauled/Library Brouhaha                                     6068607ECC                              
PRCFAMCHA990801082242082252000010Profile/Chyron - Kids Coming Up                                                                                                                                
ID FAMCHA990801082252082304000012Id - Kids                                                                                                                                                      
PROFAMCHA990801082304082334000030Splash Too - Tuesday @ 8:00pm                                                                                                                                  
PROFAMCHA990801082334082352000018Clarissa - weekends @ 7:00pm                                                                                                                                   
PGRFAMCHA990801082352082901000509Plasmo #3                                                                                                              70688130                                
PROFAMCHA990801082901082919000018Omba Mokomba - today @ 3:00pm                                                                                                                                  
PROFAMCHA990801082919082949000030Beverly Hillbillies - Wednesday @ 8:00pm                                                                                                                       
ID FAMCHA990801082949083000000011Magic of Disney - comet version                                                                                                                                
PROFAMCHA990801083000083005000005CC Disclaimer                                                                                                                                                  
PGRFAMCHA990801083005085309002304Mad Libs                                          1-026                                                               A60686100CC                              
ID FAMCHA990801085309085321000012Id - Kids                                                                                                                                                      
PRCFAMCHA990801085321085351000030Undercover Kid - Tonight @ 8:00pm                                                                                                                              
PROFAMCHA990801085351085417000026Muppets Tonight - Today @ 5:30pm                                                                                                                               
PROFAMCHA990801085417085432000015Off the Wall - Monday to Friday @ 4:30pm                                                                                                                       
PGRFAMCHA990801085432085854000422Music Video - True to your heart                                                                                       60688130                                
PROFAMCHA990801085854085914000020Blossom - Monday to Thursday @ 5:30 p.m.                                                                                                                       
PROFAMCHA990801085914085944000030Turner and Hooch - Thursday @ 8:00pm                                                                                                                           
ID FAMCHA990801085944085950000006Bumper - Kids                                                                                                                                                  
PRCFAMCHA990801085950090000000010Profile/Chyron - Kids Coming Up                                                                                                                                
PGRFAMCHA990801090000092403002403Clarissa                                          Educating Janet                                                      2028607B                                
ID FAMCHA990801092403092415000012Id - Kids                                                                                                                                                      
PRCFAMCHA990801092415092445000030Heck's Way Home - Monday @ 8:00pm                                                                                                                              
PRCFAMCHA990801092445092500000015Franklin - weekends @ 6:00pm                                                                                                                                   
PGRFAMCHA990801092500092859000359Music Video - Beauty and the Beast                                                                                     60688130                                
PRCFAMCHA990801092859092914000015Little Lulu Show; The - tonight @ 6:30pm                                                                                                                       
PROFAMCHA990801092914092944000030Superman II - Saturday @ 8:00pm                                                                                                                                
ID FAMCHA990801092944092950000006Bumper - Kids                                                                                                                                                  
PRCFAMCHA990801092950093000000010Profile/Chyron - Kids Coming Up                                                                                                                                
PROFAMCHA990801093000093005000005CC Disclaimer                                                                                                                                                  
PGRFAMCHA990801093005095226002221Blossom                                           Sitcom                                                               6068807ACC                              
ID FAMCHA990801095226095238000012Id - Kids                                                                                                                                                      
PROFAMCHA990801095238095308000030Superman II - Saturday @ 8:00pm                                                                                                                                
PROFAMCHA990801095308095323000015Dinosaurs - weeknights @ 7:30pm                                                                                                                                
PROFAMCHA990801095323095353000030Splash Too - Tuesday @ 8:00pm                                                                                                                                  
PGRFAMCHA990801095353095808000415Music Video - You'll Be In My Heart                                                                                    60688130                                
PROFAMCHA990801095808095826000018Clarissa - tonight @ 7:00pm                                                                                                                                    
PRCFAMCHA990801095826095856000030Undercover Kid - Tonight @ 8:00pm                                                                                                                              
PRCFAMCHA990801095856095911000015Flash Forward - Weeknights @ 9:30pm                                                                                                                            
PROFAMCHA990801095911095941000030Seven Day glance - August 2 - 8                                                                                                                                
ID FAMCHA990801095941095947000006Bumper - Kids                                                                                                                                                  
PRCFAMCHA990801095947100000000013Profile/Chyron - Kids Coming Up                                                                                                                                
PROFAMCHA990801100000100007000007Rating - G                                                                                                                                                     
PROFAMCHA990801100007100017000010Family Opening                                                                                                                                                 
PGRFAMCHA990801100017113429013412Pufnstuf                                                                                                              A2068807D                                
PRCFAMCHA990801113429113437000008Profile/Chyron - Kids Coming Up                                                                                                                                
ID FAMCHA990801113437113449000012Id - Kids                                                                                                                                                      
ID FAMCHA990801113449113500000011Magic of Disney - comet version                                                                                                                                
PROFAMCHA990801113500113507000007Rating - G                                                                                                                                                     
PROFAMCHA990801113507113517000010Family Opening                                                                                                                                                 
PGRFAMCHA990801113517131256013739Last Flight Of Noah's Ark; The                                                                                        A6068807DCC                              
ID FAMCHA990801131256131308000012Id - Kids                                                                                                                                                      
PRCFAMCHA990801131308131402000054Contest - Funshine Tour                                                                                                                                        
PRCFAMCHA990801131402131432000030Undercover Kid - Tonight @ 8:00pm                                                                                                                              
PROFAMCHA990801131432131450000018Omba Mokomba - today @ 3:00pm                                                                                                                                  
PROFAMCHA990801131450131520000030Superman II - Saturday @ 8:00pm                                                                                                                                
PROFAMCHA990801131520131535000015Off the Wall - Monday to Friday @ 4:30pm                                                                                                                       
PROFAMCHA990801131535131555000020Blossom - Monday to Thursday @ 5:30 p.m.                                                                                                                       
PRCFAMCHA990801131555131625000030Heck's Way Home - Monday @ 8:00pm                                                                                                                              
PROFAMCHA990801131625131640000015Lion King's Timon & Pumbaa - Weeknights @ 7:00pm                                                                                                               
PGRFAMCHA990801131640132635000955Mpt-Donalds Dog Laundry                                                                                                60688130                                
PRCFAMCHA990801132635132650000015Little Lulu Show; The - tonight @ 6:30pm                                                                                                                       
PROFAMCHA990801132650132720000030Turner and Hooch - Thursday @ 8:00pm                                                                                                                           
PRCFAMCHA990801132720132735000015Flash Forward - Weeknights @ 9:30pm                                                                                                                            
PROFAMCHA990801132735132800000025Aladdin - Monday to Thursday @ 6:30pm                                                                                                                          
PROFAMCHA990801132800132830000030Splash Too - Tuesday @ 8:00pm                                                                                                                                  
PROFAMCHA990801132830132856000026Muppets Tonight - Today @ 5:30pm                                                                                                                               
PROFAMCHA990801132856132911000015Dinosaurs - weeknights @ 7:30pm                                                                                                                                
PROFAMCHA990801132911132941000030Beverly Hillbillies - Wednesday @ 8:00pm                                                                                                                       
ID FAMCHA990801132941132947000006Bumper - Kids                                                                                                                                                  
PRCFAMCHA990801132947133000000013Profile/Chyron - Kids Coming Up                                                                                                                                
PROFAMCHA990801133000133005000005CC Disclaimer                                                                                                                                                  
PGRFAMCHA990801133005135314002309Disney Presents Bill Nye the Science Guy          Birds                                                                60686110CC                              
ID FAMCHA990801135314135326000012Id - Kids                                                                                                                                                      
PRCFAMCHA990801135326135420000054Contest - Funshine Tour                                                                                                                                        
PRCFAMCHA990801135420135450000030Undercover Kid - Tonight @ 8:00pm                                                                                                                              
PROFAMCHA990801135450135508000018Omba Mokomba - today @ 3:00pm                                                                                                                                  
PROFAMCHA990801135508135538000030Splash Too - Tuesday @ 8:00pm                                                                                                                                  
PGRFAMCHA990801135538135827000249Music Video - Never Alone                                                                                              60688130                                
PROFAMCHA990801135827135842000015Dinosaurs - weeknights @ 7:30pm                                                                                                                                
PROFAMCHA990801135842135908000026Muppets Tonight - Today @ 5:30pm                                                                                                                               
PROFAMCHA990801135908135938000030Beverly Hillbillies - Wednesday @ 8:00pm                                                                                                                       
ID FAMCHA990801135938135943000005Website                                                                                                                                                        
ID FAMCHA990801135943135949000006Bumper - Kids                                                                                                                                                  
PRCFAMCHA990801135949140000000011Profile/Chyron - Kids Coming Up                                                                                                                                
PROFAMCHA990801140000140005000005CC Disclaimer                                                                                                                                                  
PGRFAMCHA990801140005142422002417Amazing Animals                                   Amazing Animal Mothers                                               60686110CC                              
ID FAMCHA990801142422142434000012Id - Kids                                                                                                                                                      
PROFAMCHA990801142434142504000030Splash Too - Tuesday @ 8:00pm                                                                                                                                  
PROFAMCHA990801142504142519000015Off the Wall - Monday to Friday @ 4:30pm                                                                                                                       
PGRFAMCHA990801142519142653000134Music Video - He's A Tramp                                                                                             60688130                                
PGRFAMCHA990801142653142857000204Disney Moments - Brave Engineer:Casey Jones                                                                            60688130                                
PROFAMCHA990801142857142915000018Clarissa - tonight @ 7:00pm                                                                                                                                    
PROFAMCHA990801142915142945000030Superman II - Saturday @ 8:00pm                                                                                                                                
ID FAMCHA990801142945142951000006Bumper - Kids                                                                                                                                                  
PRCFAMCHA990801142951143000000009Profile/Chyron - Kids Coming Up                                                                                                                                
PROFAMCHA990801143000143005000005CC Disclaimer                                                                                                                                                  
PGRFAMCHA990801143005145405002400Audubon's Animal Adventures                       Parrots                                                              60688110CC                              
PRCFAMCHA990801145405145417000012Profile/Chyron - Kids Coming Up                                                                                                                                
ID FAMCHA990801145417145429000012Id - Kids                                                                                                                                                      
PRCFAMCHA990801145429145523000054Contest - Funshine Tour                                                                                                                                        
PROFAMCHA990801145523145553000030Splash Too - Tuesday @ 8:00pm                                                                                                                                  
PROFAMCHA990801145553145619000026Muppets Tonight - Today @ 5:30pm                                                                                                                               
PGRFAMCHA990801145619145854000235Art Attack - Car Bike                                                                                                  60686130                                
PROFAMCHA990801145854145919000025Aladdin - Monday to Thursday @ 6:30pm                                                                                                                          
PROFAMCHA990801145919145949000030Superman II - Saturday @ 8:00pm                                                                                                                                
ID FAMCHA990801145949150000000011Magic of Disney - comet version                                                                                                                                
PROFAMCHA990801150000150005000005CC Disclaimer                                                                                                                                                  
PGRFAMCHA990801150005152326002321Omba Mokomba                                      Candace's Letter Home                                                60686110CC                              
PRCFAMCHA990801152326152334000008Profile/Chyron - Kids Coming Up                                                                                                                                
ID FAMCHA990801152334152346000012Id - Kids                                                                                                                                                      
PRCFAMCHA990801152346152416000030Undercover Kid - Tonight @ 8:00pm                                                                                                                              
PRCFAMCHA990801152416152431000015Little Lulu Show; The - weekends @ 6:30pm                                                                                                                      
PROFAMCHA990801152431152446000015Dinosaurs - weeknights @ 7:30pm                                                                                                                                
PGRFAMCHA990801152446152811000325Barbie Music Video - Boys will be boys                                                                                 20688130                                
PRCFAMCHA990801152811152826000015Flash Forward - Weeknights @ 9:30pm                                                                                                                            
PROFAMCHA990801152826152856000030Turner and Hooch - Thursday @ 8:00pm                                                                                                                           
PRCFAMCHA990801152856152950000054Contest - Funshine Tour                                                                                                                                        
ID FAMCHA990801152950153000000010Magic of Disney - watercolour version                                                                                                                          
PROFAMCHA990801153000153005000005CC Disclaimer                                                                                                                                                  
PGRFAMCHA990801153005155406002401Going Wild With Jeff Corwin                       Death Valley                                                         60286110                                
ID FAMCHA990801155406155418000012Id - Kids                                                                                                                                                      
PRCFAMCHA990801155418155448000030Heck's Way Home - Monday @ 8:00pm                                                                                                                              
PROFAMCHA990801155448155508000020Blossom - Monday to Thursday @ 5:30 p.m.                                                                                                                       
PGRFAMCHA990801155508155815000307Part Of Your World - Jodi Benson                                                                                       60688130                                
PROFAMCHA990801155815155845000030Beverly Hillbillies - Wednesday @ 8:00pm                                                                                                                       
PROFAMCHA990801155845155911000026Muppets Tonight - Today @ 5:30pm                                                                                                                               
PROFAMCHA990801155911155941000030Turner and Hooch - Thursday @ 8:00pm                                                                                                                           
ID FAMCHA990801155941155947000006Bumper - Kids                                                                                                                                                  
PRCFAMCHA990801155947160000000013Profile/Chyron - Kids Coming Up                                                                                                                                
PGRFAMCHA990801160000162447002447Spellbinder: The Land Of The Dragon Lord          1-031                                                                7068807A                                
PRCFAMCHA990801162447162455000008Profile/Chyron - Kids Coming Up                                                                                                                                
ID FAMCHA990801162455162507000012Id - Kids                                                                                                                                                      
PRCFAMCHA990801162507162601000054Contest - Funshine Tour                                                                                                                                        
PROFAMCHA990801162601162631000030Beverly Hillbillies - Wednesday @ 8:00pm                                                                                                                       
PRCFAMCHA990801162631162656000025Ripley's BION - Tonight @ 7:30pm                                                                                                                               
PGRFAMCHA990801162656162848000152Bill Nye - Two Eyes ( sat at noon)                                                                                     60688130                                
ID FAMCHA990801162848162919000031Funshine Tour - July 31- August 2                                                                                                                              
PROFAMCHA990801162919162949000030Superman II - Saturday @ 8:00pm                                                                                                                                
ID FAMCHA990801162949163000000011Magic of Disney - comet version                                                                                                                                
PROFAMCHA990801163000163010000010Special Opening                                                                                                                                                
PGRFAMCHA990801163010171711004701Ducking Disaster With Donald Duck and His Friends                                                                     A6068807E                                
ID FAMCHA990801171711171723000012Id - Kids                                                                                                                                                      
PRCFAMCHA990801171723171753000030Undercover Kid - Tonight @ 8:00pm                                                                                                                              
PROFAMCHA990801171753171811000018Clarissa - tonight @ 7:00pm                                                                                                                                    
PGRFAMCHA990801171811172806000955Mpt-Donalds Dog Laundry                                                                                                60688130                                
PROFAMCHA990801172806172821000015Dinosaurs - weeknights @ 7:30pm                                                                                                                                
PROFAMCHA990801172821172851000030Turner and Hooch - Thursday @ 8:00pm                                                                                                                           
PRCFAMCHA990801172851172945000054Contest - Funshine Tour                                                                                                                                        
ID FAMCHA990801172945172951000006Bumper - Kids                                                                                                                                                  
PRCFAMCHA990801172951173000000009Profile/Chyron - Kids Coming Up                                                                                                                                
PGRFAMCHA990801173000175520002520Muppets Tonight                                   Garth Brooks                                                        A3068807B                                
ID FAMCHA990801175520175532000012Id - Kids                                                                                                                                                      
PROFAMCHA990801175532175602000030Splash Too - Tuesday @ 8:00pm                                                                                                                                  
PROFAMCHA990801175602175617000015Off the Wall - Monday to Friday @ 4:30pm                                                                                                                       
PGRFAMCHA990801175617175842000225Music Video-Timon & Pumbaa (Yummy, Yummy, Yummy)wk                                                                     60688130                                
ID FAMCHA990801175842175913000031Funshine Tour - July 31- August 2                                                                                                                              
PRCFAMCHA990801175913175943000030Heck's Way Home - Monday @ 8:00pm                                                                                                                              
ID FAMCHA990801175943175949000006Bumper - Kids                                                                                                                                                  
PRCFAMCHA990801175949180000000011Profile/Chyron - Kids Coming Up                                                                                                                                
PROFAMCHA990801180000180005000005CC Disclaimer                                                                                                                                                  
PGRFAMCHA990801180005182258002253Franklin                                          Franklin Says Sorry/Franklin & The Fire                       B13649 1065607ECC                              
ID FAMCHA990801182258182310000012Id - Kids                                                                                                                                                      
PRCFAMCHA990801182310182404000054Contest - Funshine Tour                                                                                                                                        
PRCFAMCHA990801182404182434000030Undercover Kid - Tonight @ 8:00pm                                                                                                                              
PROFAMCHA990801182434182449000015Mad Libs - Monday to Friday @ 4:00pm                                                                                                                           
PGRFAMCHA990801182449182820000331Music Video - Baby Mine                                                                                                60688130                                
PROFAMCHA990801182820182850000030Beverly Hillbillies - Wednesday @ 8:00pm                                                                                                                       
PRCFAMCHA990801182850182915000025Ripley's BION - Tonight @ 7:30pm                                                                                                                               
PROFAMCHA990801182915182945000030Superman II - Saturday @ 8:00pm                                                                                                                                
ID FAMCHA990801182945182951000006Bumper - Kids                                                                                                                                                  
PRCFAMCHA990801182951183000000009Profile/Chyron - Kids Coming Up                                                                                                                                
PROFAMCHA990801183000183005000005CC Disclaimer                                                                                                                                                  
PGRFAMCHA990801183005185357002352Little Lulu Show; The                             The Big Jewel Robbery/Pot Luck/The Spook Tree                 B25046 1065607ECC                              
ID FAMCHA990801185357185409000012Id - Family                                                                                                                                                    
PRCFAMCHA990801185409185439000030Undercover Kid - Tonight @ 8:00pm                                                                                                                              
PROFAMCHA990801185439185454000015Mad Libs - Monday to Friday @ 4:00pm                                                                                                                           
PROFAMCHA990801185454185509000015Off the Wall - Monday to Friday @ 4:30pm                                                                                                                       
PROFAMCHA990801185509185539000030Turner and Hooch - Thursday @ 8:00pm                                                                                                                           
PGRFAMCHA990801185539185710000131Disney Moments - Bear Country:Male Rushes Home                                                                         60688130                                
PGRFAMCHA990801185710185830000120Bill Nye - Whether the Weather                                                                                         60688130                                
ID FAMCHA990801185830185901000031Funshine Tour - July 31- August 2                                                                                                                              
PRCFAMCHA990801185901185916000015Flash Forward - Weeknights @ 9:30pm                                                                                                                            
PRCFAMCHA990801185916185946000030Heck's Way Home - Monday @ 8:00pm                                                                                                                              
ID FAMCHA990801185946185952000006Bumper - Family                                                                                                                                                
PRCFAMCHA990801185952190000000008Profile/Chyron - Family Coming Up                                                                                                                              
PGRFAMCHA990801190000192345002345Clarissa                                          The Flu                                                              2068607B                                
ID FAMCHA990801192345192357000012Id - Family                                                                                                                                                    
PRCFAMCHA990801192357192427000030Undercover Kid - Tonight @ 8:00pm                                                                                                                              
PROFAMCHA990801192427192447000020Blossom - Monday to Thursday @ 5:30 p.m.                                                                                                                       
PGRFAMCHA990801192447192807000320Music Video - Remember the Magic                                                                                       60688130                                
PROFAMCHA990801192807192822000015Dinosaurs - weekdays @ 12 noon                                                                                                                                 
PROFAMCHA990801192822192852000030Beverly Hillbillies - Wednesday @ 8:00pm                                                                                                                       
PRCFAMCHA990801192852192946000054Contest - Funshine Tour                                                                                                                                        
ID FAMCHA990801192946192952000006Bumper - Family                                                                                                                                                
PRCFAMCHA990801192952193000000008Profile/Chyron - Family Coming Up                                                                                                                              
PROFAMCHA990801193000193005000005CC Disclaimer                                                                                                                                                  
PGRFAMCHA990801193005195433002428Ripley's Believe It Or Not!                       The Daruma Dolls                                              A21797 1065607ECC                              
ID FAMCHA990801195433195445000012Id - Family                                                                                                                                                    
PRCFAMCHA990801195445195539000054Contest - Funshine Tour                                                                                                                                        
PRCFAMCHA990801195539195609000030Heck's Way Home - Monday @ 8:00pm                                                                                                                              
PROFAMCHA990801195609195624000015Off the Wall - Monday to Friday @ 4:30pm                                                                                                                       
PGRFAMCHA990801195624195839000215Disney Moments - Bambi-Bambi Is Born                                                                                   60688130                                
PRCFAMCHA990801195839195854000015Flash Forward - Weeknights @ 9:30pm                                                                                                                            
PROFAMCHA990801195854195924000030Superman II - Saturday @ 8:00pm                                                                                                                                
PRCFAMCHA990801195924195946000022Contest - Funshine Tour - reminder spot                                                                                                                        
ID FAMCHA990801195946195952000006Bumper - Family                                                                                                                                                
PRCFAMCHA990801195952200000000008Profile/Chyron - Family Coming Up                                                                                                                              
PROFAMCHA990801200000200007000007Rating - G                                                                                                                                                     
PROFAMCHA990801200007200017000010Block Special Opening; The                                                                                                                                     
PGRFAMCHA990801200017212058012041Undercover Kid; The                                                                                                   A2028807CCC                              
ID FAMCHA990801212058212110000012Id - Family                                                                                                                                                    
ID FAMCHA990801212110212115000005Website                                                                                                                                                        
PRCFAMCHA990801212115212145000030Heck's Way Home - Monday @ 8:00pm                                                                                                                              
PROFAMCHA990801212145212203000018Clarissa - Monday to Thursday @ 5:00pm                                                                                                                         
PROFAMCHA990801212203212233000030Splash Too - Tuesday @ 8:00pm                                                                                                                                  
PGRFAMCHA990801212233212507000234Music Video - Pocahontas 2                                                                                             60688130                                
PGRFAMCHA990801212507212746000239Music Video - Lion King 2                                                                                              60688130                                
PROFAMCHA990801212746212801000015Off the Wall - Monday to Friday @ 4:30pm                                                                                                                       
PROFAMCHA990801212801212816000015Dinosaurs - weeknights @ 7:30pm                                                                                                                                
PROFAMCHA990801212816212846000030Turner and Hooch - Thursday @ 8:00pm                                                                                                                           
PRCFAMCHA990801212846212940000054Contest - Funshine Tour                                                                                                                                        
ID FAMCHA990801212940212946000006Bumper - Family                                                                                                                                                
PRCFAMCHA990801212946213000000014Profile/Chyron - Family Coming Up                                                                                                                              
PROFAMCHA990801213000213007000007Rating - PG                                                                                                                                                    
PROFAMCHA990801213007213017000010Classics Opening                                                                                                                                               
PGRFAMCHA990801213017231527014510Anastasia                                                                                                             B2068807D                                
ID FAMCHA990801231527231533000006Bumper - Family                                                                                                                                                
PROFAMCHA990801231533231540000007Rating - G                                                                                                                                                     
PROFAMCHA990801231540231550000010Classics Opening                                                                                                                                               
PGRFAMCHA990801231550002313010723Affairs of Annabel; The                                                                                               A2068807D                                
PRCFAMCHA990801002313002323000010Profile/Chyron - Family Next                                                                                                                                   
ID FAMCHA990801002323002335000012Id - Family                                                                                                                                                    
PROFAMCHA990801002335002405000030Splash Too - Tuesday @ 8:00pm                                                                                                                                  
PROFAMCHA990801002405002425000020Blossom - Monday to Thursday @ 5:30 p.m.                                                                                                                       
PGRFAMCHA990801002425002835000410Music Video - If I Never Knew You                                                                                      60688130                                
PROFAMCHA990801002835002905000030Turner and Hooch - Thursday @ 8:00pm                                                                                                                           
PROFAMCHA990801002905002920000015Mad Libs - Monday to Friday @ 4:00pm                                                                                                                           
PROFAMCHA990801002920002950000030Superman II - Saturday @ 8:00pm                                                                                                                                
ID FAMCHA990801002950003000000010Magic of Disney - watercolour version                                                                                                                          
PROFAMCHA990801003000003005000005CC Disclaimer                                                                                                                                                  
PGRFAMCHA990801003005005408002403Mouse Tracks                                      Alice In Wonderland-Mad Hatter Tea Party/Clock                       6068607ECC                              
ID FAMCHA990801005408005414000006Bumper - Family                                                                                                                                                
PGRFAMCHA990801005414005554000140Disney Moments - Skelton Dance:Family Adult                                                                            60688130                                
PGRFAMCHA990801005554010241000647Mpt-Spare The Rod                                                                                                      60688130                                
SO FAMCHA990801010241010253000012Sign Off                                                                                                                                                       
OFFFAMCHA990801010253043000032707                                                                                                                                                               
OFFFAMCHA990802043000060000013000                                                                                                                                                               
ID FAMCHA990802060000060011000011Magic of Disney - comet version                                                                                                                                
PROFAMCHA990802060011060016000005CC Disclaimer                                                                                                                                                  
PGRFAMCHA990802060016062929002913Quack Attack                                      A Good Time For A Dime/A Gentleman's Gentleman                       6068607ECC                              
ID FAMCHA990802062929062935000006Bumper - Pre-school                                                                                                                                            
PRCFAMCHA990802062935062950000015Babar - Weekdays @ 9:00am                                                                                                                                      
PRCFAMCHA990802062950063000000010Profile/Chyron - Pre-school Coming Up                                                                                                                          
PROFAMCHA990802063000063005000005CC Disclaimer                                                                                                                                                  
PGRFAMCHA990802063005065640002635Katie And Orbie                                   The Attic/The Zoo/Katie Up A Tree                             C12449 1065607ECC                              
ID FAMCHA990802065640065652000012Id - Pre-school                                                                                                                                                
PRCFAMCHA990802065652065722000030Heck's Way Home - Tonight @ 8:00pm                                                                                                                             
PGRFAMCHA990802065722065859000137Disney Moments - Dumbo-Baby Dumbo Sneezes                                                                              60688130                                
PROFAMCHA990802065859065914000015Dinosaurs - today @ 12 noon                                                                                                                                    
PROFAMCHA990802065914065944000030Beverly Hillbillies - Wednesday @ 8:00pm                                                                                                                       
ID FAMCHA990802065944065950000006Bumper - Pre-school                                                                                                                                            
PRCFAMCHA990802065950070000000010Profile/Chyron - Pre-school Coming Up                                                                                                                          
PROFAMCHA990802070000070005000005CC Disclaimer                                                                                                                                                  
PGRFAMCHA990802070005072416002411Busy World Of Richard Scarry; The                 The Snowstorm/Professor Dig And His Egyptian Mummy            P17883 1065607ECC                              
ID FAMCHA990802072416072428000012Id - Pre-school                                                                                                                                                
PRCFAMCHA990802072428072443000015Babar - Weekdays @ 9:00am                                                                                                                                      
PROFAMCHA990802072443072458000015Goof Troop - Weekday mornings @ 8:00am                                                                                                                         
PGRFAMCHA990802072458072918000420Art Attack - Kit Flier                                                                                                 60686130                                
PRCFAMCHA990802072918072948000030Heck's Way Home - Tonight @ 8:00pm                                                                                                                             
ID FAMCHA990802072948072954000006Bumper - Pre-school                                                                                                                                            
PRCFAMCHA990802072954073001000007Profile/Chyron - Pre-school Coming Up                                                                                                                          
PROFAMCHA990802073001073006000005CC Disclaimer                                                                                                                                                  
PGRFAMCHA990802073006075259002253Franklin                                          Franklin Rides A Bike/Franklin Is Messsy                      A10184 1065607ECC                              
PRCFAMCHA990802075259075309000010Profile/Chyron - Pre-school Coming Up                                                                                                                          
ID FAMCHA990802075309075321000012Id - Pre-school                                                                                                                                                
PGRFAMCHA990802075321075950000629Richard Scarry (ii) Supermarket Mystery                                                                         P19586 10656130                                
ID FAMCHA990802075950080000000010Magic of Disney - scribble version                                                                                                                             
PROFAMCHA990802080000080005000005CC Disclaimer                                                                                                                                                  
PGRFAMCHA990802080005082251002246Goof Troop                                        Fool's Gold                                                          6068607ECC                              
PRCFAMCHA990802082251082301000010Profile/Chyron - Pre-school Coming Up                                                                                                                          
ID FAMCHA990802082301082313000012Id - Pre-school                                                                                                                                                
PRCFAMCHA990802082313082338000025Ripley's BION - Saturday @ 5:00pm                                                                                                                              
PROFAMCHA990802082338082408000030Beverly Hillbillies - Wednesday @ 8:00pm                                                                                                                       
PGRFAMCHA990802082408082849000441Art Attack - Horse                                                                                                     60686130                                
ID FAMCHA990802082849082920000031Funshine Tour - July 31- August 2                                                                                                                              
PRCFAMCHA990802082920082950000030Heck's Way Home - Tonight @ 8:00pm                                                                                                                             
ID FAMCHA990802082950083000000010Magic of Disney - watercolour version                                                                                                                          
PGRFAMCHA990802083000085149002149Chip 'n Dale Rescue Rangers                       A Lean On The Property                                               6068607E                                
ID FAMCHA990802085149085201000012Id - Pre-school                                                                                                                                                
PROFAMCHA990802085201085231000030Splash Too - Tuesday @ 8:00pm                                                                                                                                  
PGRFAMCHA990802085231085901000630Richard Scarry - The Best Mistake Ever                                                                          P17889 10656130                                
PROFAMCHA990802085901085917000016Bonkers - Weekdays @ 2:30pm                                                                                                                                    
PROFAMCHA990802085917085947000030Superman II - Saturday @ 8:00pm                                                                                                                                
ID FAMCHA990802085947085953000006Bumper - Pre-school                                                                                                                                            
PRCFAMCHA990802085953090000000007Profile/Chyron - Pre-school Coming Up                                                                                                                          
PROFAMCHA990802090000090005000005CC Disclaimer                                                                                                                                                  
PGRFAMCHA990802090005092322002317Babar                                             Peer Pressure                                                 C07575 1065607ECC                              
ID FAMCHA990802092322092334000012Id - Pre-school                                                                                                                                                
PRCFAMCHA990802092334092404000030Heck's Way Home - Tonight @ 8:00pm                                                                                                                             
PROFAMCHA990802092404092419000015Lion King's Timon & Pumbaa - Weeknights @ 7:00pm                                                                                                               
PROFAMCHA990802092419092449000030Turner and Hooch - Thursday @ 8:00pm                                                                                                                           
PRCFAMCHA990802092449092500000011Profile/Chyron - Pre-school Coming Up                                                                                                                          
PROFAMCHA990802092500092505000005CC Disclaimer                                                                                                                                                  
PGRFAMCHA990802092505094856002351Kleo The Misfit Unicorn                           Emperor Of Surtan                                             A03942 1065607ECC                              
ID FAMCHA990802094856094908000012Id - Pre-school                                                                                                                                                
PRCFAMCHA990802094908094938000030Heck's Way Home - Tonight @ 8:00pm                                                                                                                             
ID FAMCHA990802094938095009000031Funshine Tour - July 31- August 2                                                                                                                              
PROFAMCHA990802095009095039000030Splash Too - Tuesday @ 8:00pm                                                                                                                                  
PROFAMCHA990802095039095054000015Goof Troop - today @ 3:30pm                                                                                                                                    
PRCFAMCHA990802095054095101000007Profile/Chyron - Pre-school Coming Up                                                                                                                          
PROFAMCHA990802095101095106000005CC Disclaimer                                                                                                                                                  
PGRFAMCHA990802095106101516002410Busy World Of Richard Scarry; The                 The Missing Bananas/Good Luck In Rome/The Accident            P17884 1065607ECC                              
ID FAMCHA990802101516101522000006Bumper - Pre-school                                                                                                                                            
PROFAMCHA990802101522101552000030Splash Too - Tuesday @ 8:00pm                                                                                                                                  
PROFAMCHA990802101552101607000015Mad Libs - Today @ 4:00pm                                                                                                                                      
PROFAMCHA990802101607101623000016Bonkers - today @ 2:30pm                                                                                                                                       
PROFAMCHA990802101623101653000030Innerspace - Sunday @ 8:00 pm                                                                                                                                  
PRCFAMCHA990802101653101700000007Profile/Chyron - Pre-school Coming Up                                                                                                                          
PROFAMCHA990802101700101705000005CC Disclaimer                                                                                                                                                  
PGRFAMCHA990802101705104105002400Hello Mrs. Cherrywinkle                           M. Armoire Goes Empty                                         B18877 1065607ACC                              
ID FAMCHA990802104105104117000012Id - Pre-school                                                                                                                                                
PROFAMCHA990802104117104147000030Turner and Hooch - Thursday @ 8:00pm                                                                                                                           
PROFAMCHA990802104147104202000015Dinosaurs - today @ 12 noon                                                                                                                                    
PROFAMCHA990802104202104220000018Clarissa - today @ 5:00pm                                                                                                                                      
PRCFAMCHA990802104220104250000030Heck's Way Home - Tonight @ 8:00pm                                                                                                                             
PRCFAMCHA990802104250104300000010Profile/Chyron - Pre-school Coming Up                                                                                                                          
PROFAMCHA990802104300104305000005CC Disclaimer                                                                                                                                                  
PGRFAMCHA990802104305110558002253Franklin                                          Franklin Fibs/Franklin's Blanket                              A10185 1065607ECC                              
ID FAMCHA990802110558110610000012Id - Pre-school                                                                                                                                                
PRCFAMCHA990802110610110640000030Heck's Way Home - Tonight @ 8:00pm                                                                                                                             
PROFAMCHA990802110640110655000015Goof Troop - Weekday afternoons @ 3:30pm                                                                                                                       
PROFAMCHA990802110655110720000025Aladdin - tonight @ 6:30pm                                                                                                                                     
PROFAMCHA990802110720110750000030Superman II - Saturday @ 8:00pm                                                                                                                                
PRCFAMCHA990802110750110800000010Profile/Chyron - Pre-school Coming Up                                                                                                                          
PROFAMCHA990802110800110805000005CC Disclaimer                                                                                                                                                  
PGRFAMCHA990802110805113238002433Amazing Animals                                   Prehistoric Animals                                                  60686110CC                              
ID FAMCHA990802113238113250000012Id - Pre-school                                                                                                                                                
PGRFAMCHA990802113250113450000200Disney Moments - Opry House:Mickey Plays                                                                               60688130                                
PRCFAMCHA990802113450113500000010Profile/Chyron - Pre-school Coming Up                                                                                                                          
PROFAMCHA990802113500113505000005CC Disclaimer                                                                                                                                                  
PGRFAMCHA990802113505115857002352Little Lulu Show; The                             Tiny Tot's Syrup/The Night Before Christmas/The Pi            B03815 1065607ECC                              
PRCFAMCHA990802115857115904000007Profile/Chyron - Kids Coming Up                                                                                                                                
PRCFAMCHA990802115904115934000030Heck's Way Home - Tonight @ 8:00pm                                                                                                                             
PRCFAMCHA990802115934115956000022Contest - Funshine Tour - reminder spot                                                                                                                        
ID FAMCHA990802115956120002000006Bumper - Kids                                                                                                                                                  
PROFAMCHA990802120002120007000005CC Disclaimer                                                                                                                                                  
PGRFAMCHA990802120007122234002227Dinosaurs                                         Getting To Know You                                                  6068807BCC                              
PRCFAMCHA990802122234122242000008Profile/Chyron - Kids Coming Up                                                                                                                                
ID FAMCHA990802122242122254000012Id - Kids                                                                                                                                                      
PRCFAMCHA990802122254122348000054Contest - Funshine Tour                                                                                                                                        
PRCFAMCHA990802122348122418000030Heck's Way Home - Tonight @ 8:00pm                                                                                                                             
PROFAMCHA990802122418122433000015Mad Libs - Monday to Friday @ 4:00pm                                                                                                                           
PROFAMCHA990802122433122503000030Splash Too - Tuesday @ 8:00pm                                                                                                                                  
PROFAMCHA990802122503122521000018Clarissa - today @ 5:00pm                                                                                                                                      
PGRFAMCHA990802122521122818000257Art Attack - Dracula (HALLOWEEN)                                                                                       60686130                                
PROFAMCHA990802122818122848000030Turner and Hooch - Thursday @ 8:00pm                                                                                                                           
ID FAMCHA990802122848122919000031Funshine Tour - July 31- August 2                                                                                                                              
PROFAMCHA990802122919122949000030Innerspace - Sunday @ 8:00 pm                                                                                                                                  
ID FAMCHA990802122949123000000011Magic of Disney - comet version                                                                                                                                
PROFAMCHA990802123000123005000005CC Disclaimer                                                                                                                                                  
PGRFAMCHA990802123005125325002320Quack Attack                                      Honey Harvester/Golden Eggs/Mickey Steps Out                         6068607ECC                              
ID FAMCHA990802125325125337000012Id - Kids                                                                                                                                                      
PRCFAMCHA990802125337125431000054Contest - Funshine Tour                                                                                                                                        
PROFAMCHA990802125431125501000030Splash Too - Tuesday @ 8:00pm                                                                                                                                  
PROFAMCHA990802125501125516000015Goof Troop - today @ 3:30pm                                                                                                                                    
PROFAMCHA990802125516125546000030Beverly Hillbillies - Wednesday @ 8:00pm                                                                                                                       
PGRFAMCHA990802125546125759000213Muppet Time - Huffy Monster - You Make Me Feel...                                                                      30686130                                
ID FAMCHA990802125759125830000031Funshine Tour - July 31- August 2                                                                                                                              
PROFAMCHA990802125830125900000030Turner and Hooch - Thursday @ 8:00pm                                                                                                                           
PROFAMCHA990802125900125915000015Mad Libs - Today @ 4:00pm                                                                                                                                      
PRCFAMCHA990802125915125945000030Seven Day Glance - August 9 - 15                                                                                                                               
ID FAMCHA990802125945125951000006Bumper - Kids                                                                                                                                                  
PRCFAMCHA990802125951130000000009Profile/Chyron - Kids Coming Up                                                                                                                                
PGRFAMCHA990802130000131944001944Art Attack                                        1-085                                                                60686110                                
ID FAMCHA990802131944131956000012Id - Kids                                                                                                                                                      
PRCFAMCHA990802131956132011000015Flash Forward - Tonight @ 9:30pm                                                                                                                               
PGRFAMCHA990802132011132947000936Mpt-Lucky Number                                                                                                       60688130                                
ID FAMCHA990802132947132953000006Bumper - Kids                                                                                                                                                  
PRCFAMCHA990802132953133000000007Profile/Chyron - Kids Coming Up                                                                                                                                
PROFAMCHA990802133000133005000005CC Disclaimer                                                                                                                                                  
PGRFAMCHA990802133005135426002421Billy The Cat                                     I Am Not An Animal                                            B27661 1065607ECC                              
PRCFAMCHA990802135426135433000007Profile/Chyron - Kids Coming Up                                                                                                                                
ID FAMCHA990802135433135445000012Id - Kids                                                                                                                                                      
PRCFAMCHA990802135445135515000030Heck's Way Home - Tonight @ 8:00pm                                                                                                                             
PROFAMCHA990802135515135531000016Bonkers - today @ 2:30pm                                                                                                                                       
PROFAMCHA990802135531135601000030Splash Too - Tuesday @ 8:00pm                                                                                                                                  
PROFAMCHA990802135601135616000015Off the Wall - Today @ 4:30pm                                                                                                                                  
PGRFAMCHA990802135616135732000116Bill Nye - How Can We Communicate? (sat @ noon)                                                                        60688130                                
PROFAMCHA990802135732135802000030Beverly Hillbillies - Wednesday @ 8:00pm                                                                                                                       
ID FAMCHA990802135802135833000031Funshine Tour - July 31- August 2                                                                                                                              
PROFAMCHA990802135833135903000030Turner and Hooch - Thursday @ 8:00pm                                                                                                                           
PROFAMCHA990802135903135921000018Clarissa - today @ 5:00pm                                                                                                                                      
PROFAMCHA990802135921135951000030Innerspace - Sunday @ 8:00 pm                                                                                                                                  
ID FAMCHA990802135951140001000010Magic of Disney - scribble version                                                                                                                             
PROFAMCHA990802140001140006000005CC Disclaimer                                                                                                                                                  
PGRFAMCHA990802140006142237002231Darkwing Duck                                     You Sweat Your Life                                                  6068607ECC                              
PRCFAMCHA990802142237142250000013Profile/Chyron - Kids Coming Up                                                                                                                                
ID FAMCHA990802142250142302000012Id - Kids                                                                                                                                                      
PRCFAMCHA990802142302142332000030Heck's Way Home - Tonight @ 8:00pm                                                                                                                             
PGRFAMCHA990802142332142841000509Plasmo #8                                                                                                              70688130                                
PRCFAMCHA990802142841142856000015Flash Forward - Weeknights @ 9:30pm                                                                                                                            
PRCFAMCHA990802142856142950000054Contest - Funshine Tour                                                                                                                                        
ID FAMCHA990802142950143000000010Magic of Disney - watercolour version                                                                                                                          
PGRFAMCHA990802143000145246002246Bonkers                                           Tune Pig                                                             6068607E                                
PRCFAMCHA990802145246145253000007Profile/Chyron - Kids Coming Up                                                                                                                                
ID FAMCHA990802145253145305000012Id - Kids                                                                                                                                                      
PRCFAMCHA990802145305145335000030Heck's Way Home - Tonight @ 8:00pm                                                                                                                             
PROFAMCHA990802145335145350000015Goof Troop - Weekday afternoons @ 3:30pm                                                                                                                       
PROFAMCHA990802145350145420000030Superman II - Saturday @ 8:00pm                                                                                                                                
PGRFAMCHA990802145420145816000356Art Attack - Soccer Player                                                                                             60686130                                
PROFAMCHA990802145816145834000018Clarissa - today @ 5:00pm                                                                                                                                      
PROFAMCHA990802145834145904000030Innerspace - Sunday @ 8:00 pm                                                                                                                                  
PROFAMCHA990802145904145919000015Lion King's Timon & Pumbaa - tonight @ 7:00pm                                                                                                                  
PROFAMCHA990802145919145949000030Turner and Hooch - Thursday @ 8:00pm                                                                                                                           
ID FAMCHA990802145949150000000011Magic of Disney - comet version                                                                                                                                
PROFAMCHA990802150000150005000005CC Disclaimer                                                                                                                                                  
PGRFAMCHA990802150005152235002230TaleSpin                                          Captains Outrageous                                                  6068607ECC                              
PRCFAMCHA990802152235152245000010Profile/Chyron - Kids Coming Up                                                                                                                                
ID FAMCHA990802152245152257000012Id - Kids                                                                                                                                                      
PROFAMCHA990802152257152327000030Splash Too - Tuesday @ 8:00pm                                                                                                                                  
PROFAMCHA990802152327152352000025Aladdin - tonight @ 6:30pm                                                                                                                                     
PROFAMCHA990802152352152422000030Beverly Hillbillies - Wednesday @ 8:00pm                                                                                                                       
PGRFAMCHA990802152422152819000357Art Attack - Boat & Waterskier                                                                                         60686130                                
PROFAMCHA990802152819152834000015Lion King's Timon & Pumbaa - Weeknights @ 7:00pm                                                                                                               
PROFAMCHA990802152834152904000030Turner and Hooch - Thursday @ 8:00pm                                                                                                                           
PROFAMCHA990802152904152919000015Dinosaurs - tonight @ 7:30pm                                                                                                                                   
PROFAMCHA990802152919152949000030Superman II - Saturday @ 8:00pm                                                                                                                                
ID FAMCHA990802152949153000000011Magic of Disney - comet version                                                                                                                                
PROFAMCHA990802153000153005000005CC Disclaimer                                                                                                                                                  
PGRFAMCHA990802153005155257002252Goof Troop                                        Cat's Entertainment                                                  6068607ECC                              
PRCFAMCHA990802155257155307000010Profile/Chyron - Kids Coming Up                                                                                                                                
ID FAMCHA990802155307155319000012Id - Kids                                                                                                                                                      
PRCFAMCHA990802155319155413000054Contest - Funshine Tour                                                                                                                                        
PROFAMCHA990802155413155443000030Beverly Hillbillies - Wednesday @ 8:00pm                                                                                                                       
PROFAMCHA990802155443155458000015Off the Wall - Today @ 4:30pm                                                                                                                                  
PROFAMCHA990802155458155528000030Superman II - Saturday @ 8:00pm                                                                                                                                
PGRFAMCHA990802155528155822000254Art Attack - Dig Dinosaur                                                                                              60686130                                
PROFAMCHA990802155822155850000028Going Wild With Jeff Corwin - Saturday @ 12:30 p.m                                                                                                             
PROFAMCHA990802155850155920000030Darkwing Duck - weekdays @ 2:00pm                                                                                                                              
PROFAMCHA990802155920155950000030Innerspace - Sunday @ 8:00 pm                                                                                                                                  
ID FAMCHA990802155950160000000010Magic of Disney - scribble version                                                                                                                             
PROFAMCHA990802160000160005000005CC Disclaimer                                                                                                                                                  
PGRFAMCHA990802160005162309002304Mad Libs                                          1-027                                                               A60686100CC                              
PRCFAMCHA990802162309162319000010Profile/Chyron - Kids Coming Up                                                                                                                                
ID FAMCHA990802162319162331000012Id - Kids                                                                                                                                                      
PRCFAMCHA990802162331162425000054Contest - Funshine Tour                                                                                                                                        
PROFAMCHA990802162425162455000030Superman II - Saturday @ 8:00pm                                                                                                                                
PGRFAMCHA990802162455162817000322Art Attack - Kayak                                                                                                     60686130                                
PROFAMCHA990802162817162835000018Clarissa - today @ 5:00pm                                                                                                                                      
PRCFAMCHA990802162835162905000030Heck's Way Home - Tonight @ 8:00pm                                                                                                                             
PRCFAMCHA990802162905162920000015Flash Forward - Weeknights @ 9:30pm                                                                                                                            
PROFAMCHA990802162920162950000030Innerspace - Sunday @ 8:00 pm                                                                                                                                  
ID FAMCHA990802162950163000000010Magic of Disney - watercolour version                                                                                                                          
PROFAMCHA990802163000163005000005CC Disclaimer                                                                                                                                                  
PGRFAMCHA990802163005165406002401Off the Wall                                      1-015                                                                60686100CC                              
ID FAMCHA990802165406165418000012Id - Kids                                                                                                                                                      
PRCFAMCHA990802165418165512000054Contest - Funshine Tour                                                                                                                                        
PRCFAMCHA990802165512165542000030Heck's Way Home - Tonight @ 8:00pm                                                                                                                             
PROFAMCHA990802165542165602000020Blossom - Today @ 5:30 p.m.                                                                                                                                    
PROFAMCHA990802165602165632000030Splash Too - Tuesday @ 8:00pm                                                                                                                                  
PGRFAMCHA990802165632165734000102Bill Nye - Bloodstream Baby                                                                                            60688130                                
PROFAMCHA990802165734165804000030Beverly Hillbillies - Wednesday @ 8:00pm                                                                                                                       
PROFAMCHA990802165804165819000015Dinosaurs - weeknights @ 7:30pm                                                                                                                                
PROFAMCHA990802165819165849000030Turner and Hooch - Thursday @ 8:00pm                                                                                                                           
PROFAMCHA990802165849165917000028Going Wild With Jeff Corwin - Saturday @ 12:30 p.m                                                                                                             
PROFAMCHA990802165917165947000030Superman II - Saturday @ 8:00pm                                                                                                                                
ID FAMCHA990802165947165953000006Bumper - Kids                                                                                                                                                  
PRCFAMCHA990802165953170000000007Profile/Chyron - Kids Coming Up                                                                                                                                
PGRFAMCHA990802170000172406002406Clarissa                                          The Cycle                                                            2028607B                                
