SO FAMCHA031201043000043011000011Sign On (oct 1)                                                                                                                                                
PROFAMCHA031201043011043020000009CC Disclaimer - FAST - Family (:08-:10)                                                                                                                        
PGRFAMCHA031201043011045337002253Franklin                                          Franklin And The Toy Drive/Franklin's And Granny's            B10191A1065607ECC                              
PROFAMCHA031201045313045327000014PS - 01(PH) - WTP/KATIE/FRANKLIN (:14-:16)                                                                                                                     
ID FAMCHA031201045327045337000010PS Playhouse AM Block Open (:10-:15)                                                                                                                           
PROFAMCHA031201045337045346000009CC Disclaimer - FAST - Family.ca (:08-:10)                                                                                                                     
PGRFAMCHA031201045337051652002242New Adventures of Winnie the Pooh; The            Oh, Bottle/Owl In The Family                                         6068607ECC                              
PROFAMCHA031201051628051642000014PS - 02(PH) - KATIE/FRANKLIN/RIPLEY (:14-:16)                                                                                                                  
ID FAMCHA031201051642051652000010PS Playhouse AM Block Open (:10-:15)                                                                                                                           
PROFAMCHA031201051652051702000010CC Disclaimer - FAST - Generic (:08-:10)                                                                                                                       
PGRFAMCHA031201051652054401002635Katie And Orbie                                   Shop and Seek/Surprise!/Katie's Music Box                     C12449A1065607ECC                              
PROFAMCHA031201054337054351000014PS - 03(PH) - FRANKLIN/RIPLEY/HOZE (:14-:16)                                                                                                                   
ID FAMCHA031201054351054401000010PS Playhouse AM Block Open (:10-:15)                                                                                                                           
PROFAMCHA031201054401054410000009CC Disclaimer - FAST - Family (:08-:10)                                                                                                                        
PGRFAMCHA031201054401060800002253Franklin                                          Franklin And The Baby/Franklin Goes To Day Camp               B10192A1065607ECC                              
PROFAMCHA031201060703060719000016PS - 04(PH) - RIPLEY/HOZE/KNIGHT (:14-:16)                                                                                                                     
PRCFAMCHA031201060719060746000027Ripley's BION (MACHINES) - Coming Up                                                                                                                           
ID FAMCHA031201060746060800000014PS Playhouse AM Block Open (:10-:15)                                                                                                                           
PROFAMCHA031201060800060809000009CC Disclaimer - FAST - Family.ca (:08-:10)                                                                                                                     
PGRFAMCHA031201060800063500002430Ripley's Believe It Or Not!                       Head's I Win, Tails You Lose                                  B71299 1065607ECC                              
PROFAMCHA031201063239063255000016PS - 05(PH) - HOZE/KNIGHT/PRLR (:14-:16)                                                                                                                       
PROFAMCHA031201063255063327000032Hoze Houndz (GROCERIES - FALL 2003) - Coming Up (P                                                                                                             
PROFAMCHA031201063327063402000035Franklin (CANOE - FALL 2003) - Today @ 8:55am                                                                                                                  
PROFAMCHA031201063402063416000014Playhouse - HOZE HOUNDZ - Skater                                                                                                                               
PROFAMCHA031201063416063446000030Disney's 101 Dalmatians - Today @ 8:30am                                                                                                                       
ID FAMCHA031201063446063500000014PS Playhouse AM Block Open (:10-:15)                                                                                                                           
PROFAMCHA031201063500063510000010CC Disclaimer - FAST - Generic (:08-:10)                                                                                                                       
PGRFAMCHA031201063500070000002234Hoze Houndz                                       High Bred Hound/Hozer, I Shrunk the Houndz                    B17131A1065607ECC                              
PROFAMCHA031201065744065758000014PS - 06(PB) - KNIGHT/PRLR/GADGET (:14-:16)                                                                                                                     
PRCFAMCHA031201065758065832000034Once Upon A Christmas (DEC05) - Premiering Friday                                                                                                              
PROFAMCHA031201065832065902000030Mon Colle Knights - Coming Up                                                                                                                                  
PROFAMCHA031201065902065920000018That's So Raven (FALL 2003) - Tonight @ 6:30pm                                                                                                                 
PRCFAMCHA031201065920065950000030Holly Daze 7PM Specials - Tonight @ 7pm                                                                                                                        
ID FAMCHA031201065950070000000010PS Power Box Block Open (:10-:15)                                                                                                                              
PROFAMCHA031201070000070009000009CC Disclaimer - FAST - Family (:08-:10)                                                                                                                        
PGRFAMCHA031201070000072248002123Mon Colle Knights                                 EPS # 1-016                                                         A6068607ECC                              
PROFAMCHA031201072132072148000016PS - 07(PB) - PRLR/GADGET/DALMATIANS (:14-:16)                                                                                                                 
PRCFAMCHA031201072148072218000030Holly Daze 7PM Specials - Tonight @ 7pm                                                                                                                        
PROFAMCHA031201072218072248000030Gadget & The Gadgetinis - Today @ 8am                                                                                                                          
INTFAMCHA031201072248072615000327Gagsters - Bye Bye Balloons                                                                                           A                                        
PRCFAMCHA031201072615072645000030Power Box Block Promo - Weekdays, Starting @ 7am                                                                                                               
INTFAMCHA031201072645072918000233Gagsters - Screamer                                                                                                   A                                        
PROFAMCHA031201072918072948000030Recess (NOV2003) - Today @ 11:50am                                                                                                                             
ID FAMCHA031201072948073000000012PS Power Box Block Open (:10-:15)                                                                                                                              
PGRFAMCHA031201073000075249002129Power Rangers Lightspeed Rescue                   In The Limelight                                                    A6068607E                                
PROFAMCHA031201075129075145000016PS - 08(PB) - GADGET/DALMATIANS/FRANKLIN (:14-:16)                                                                                                             
PRCFAMCHA031201075145075219000034Once Upon A Christmas (DEC05) - Premiering Friday                                                                                                              
PROFAMCHA031201075219075249000030Gadget & The Gadgetinis - Coming Up                                                                                                                            
INTFAMCHA031201075249075419000130Movie Surfers Brother Bear #3                                                                                                                                  
PRCFAMCHA031201075419075449000030Power Box Block Promo - Weekdays, Starting @ 7am                                                                                                               
INTFAMCHA031201075449075619000130Movie Surfers Brother Bear #2                                                                                                                                  
PROFAMCHA031201075619075649000030Boy Meets World (SCRAWNY) - Tonight @ 8pm                                                                                                                      
INTFAMCHA031201075649075915000226Gagsters - Pee Pee Pouch                                                                                              A                                        
PRCFAMCHA031201075915075945000030Holly Daze 7PM Specials - Tonight @ 7pm                                                                                                                        
ID FAMCHA031201075945080000000015PS Power Box Block Open (:10-:15)                                                                                                                              
PGRFAMCHA031201080000082329002213Gadget & the Gadgetinis                           EPS # 1-024                                                         A6068607E                                
PROFAMCHA031201082213082229000016PS - 09(PH) - DALMATIANS/FRANKLIN/WTP (:14-:16)                                                                                                                
PRCFAMCHA031201082229082259000030PowerTouch Contest (3)                                                                                                                                         
PROFAMCHA031201082259082329000030Disney's 101 Dalmatians - Coming Up                                                                                                                            
INTFAMCHA031201082329082619000250Art Attack - Lentil Dragon                                                                                                                                     
PRCFAMCHA031201082619082651000032Holly Daze Wish List Contest (PH/NP) (2)                                                                                                                       
INTFAMCHA031201082651082922000231MV Disney - Aloha E Komo Mai (Lilo & Stitch)                                                                                                                   
PROFAMCHA031201082922082948000026Franklin (PUPPY - FALL 2003) - Today @ 8:55am                                                                                                                  
ID FAMCHA031201082948083000000012PS Playhouse AM Block Open (:10-:15)                                                                                                                           
PGRFAMCHA031201083000085500002249Disney's 101 Dalmatians: The Series               EPS # 1-023                                                         A6068607E                                
PROFAMCHA031201085249085305000016PS - 10(PH) - FRANKLIN/WTP/STANLEY (:14-:16) (DEC)                                                                                                             
PROFAMCHA031201085305085340000035Franklin (CANOE - FALL 2003) - Coming Up (PH)                                                                                                                  
PROFAMCHA031201085340085446000106Playhouse - WINNIE THE POOH - Christopher Robin                                                                                                                
ID FAMCHA031201085446085500000014PS Playhouse AM Block Open (:10-:15)                                                                                                                           
PROFAMCHA031201085500085509000009CC Disclaimer - FAST - Family.ca (:08-:10)                                                                                                                     
PGRFAMCHA031201085500091959002253Franklin                                          Franklin's Birthday Party/Franklin's Nickname                 B13647A1065607ECC                              
PROFAMCHA031201091802091818000016PS - 11(PH) - WTP/STANLEY/HENRY (:14-:16) (DEC)                                                                                                                
PROFAMCHA031201091818091848000030Stanley (FALL 2003) - Today @ 9:45am *DNU*                                                                                                                     
PROFAMCHA031201091848091944000056Playhouse - STANLEY - Fish Song                                                                                                                                
ID FAMCHA031201091944091959000015PS Playhouse AM Block Open (:10-:15)                                                                                                                           
PROFAMCHA031201091959092009000010CC Disclaimer - FAST - Generic (:08-:10)                                                                                                                       
PGRFAMCHA031201091959094600002241New Adventures of Winnie the Pooh; The            Pooh/Rock-A-Bye Pooh Bear                                            6068607ECC                              
PROFAMCHA031201094250094306000016PS - 12(PH) - STANLEY/HENRY/ELMO (:14-:16) (DEC)                                                                                                               
PROFAMCHA031201094306094336000030Stanley (FALL 2003) - Coming Up *DNU*                                                                                                                          
PRCFAMCHA031201094336094411000035Bullying Pledge - NOV 17 to DEC 31                                                                                                                             
PRCFAMCHA031201094411094441000030Land Before Time X BLAST! Interstitial (2)                                                                                                                     
PROFAMCHA031201094441094537000056Playhouse - STANLEY - Fish Song                                                                                                                                
PRCFAMCHA031201094537094547000010Bullying Pledge Bumper - NOV 17 to DEC 31                                                                                                                      
ID FAMCHA031201094547094600000013PS Playhouse AM Block Open (:10-:15)                                                                                                                           
PROFAMCHA031201094600094609000009CC Disclaimer - FAST - Family (:08-:10)                                                                                                                        
PGRFAMCHA031201094600101300002358Stanley                                           Frog Legs/Whoo's Afraid of the Dark                                 A6068607ECC                              
PROFAMCHA031201101007101023000016PS - 13(PH) - HENRY/ELMO/CHIP (:14-:16) (DEC)                                                                                                                  
PRCFAMCHA031201101023101053000030Henry's World (FALL 2003) - Coming Up *DNU*                                                                                                                    
PRCFAMCHA031201101053101143000050Bullying PSA - NOV 17 to DEC 31                                                                                                                                
PROFAMCHA031201101143101239000056Playhouse - STANLEY - Fish Song                                                                                                                                
PRCFAMCHA031201101239101249000010Bullying Pledge Bumper - NOV 17 to DEC 31                                                                                                                      
ID FAMCHA031201101249101300000011PS Playhouse AM Block Open (:10-:15)                                                                                                                           
PROFAMCHA031201101300101309000009CC Disclaimer - FAST - Family.ca (:08-:10)                                                                                                                     
PGRFAMCHA031201101300104000002404Henry's World                                     Middle Child Blues/Silver Tongue                              B66552A1065607GCC                              
PROFAMCHA031201103713103728000015PS - 14(PH) - ELMO/CHIP/ART (:14-:16) (DEC)                                                                                                                    
PROFAMCHA031201103728103756000028Elmo's World (BUG - FALL 2003) - Coming Up                                                                                                                     
PRCFAMCHA031201103756103826000030House of Mouse (FALL 2003) - Today @ 2:35pm                                                                                                                    
PROFAMCHA031201103826103922000056Playhouse - STANLEY - Fish Song                                                                                                                                
PRCFAMCHA031201103922103950000028Chip 'n Dale (FALL 2003) - Today @ 11am                                                                                                                        
ID FAMCHA031201103950104000000010PS Playhouse AM Block Open (:10-:15)                                                                                                                           
PGRFAMCHA031201104000105656001515Elmo's World                                      Birthdays                                                           A2068607G                                
PROFAMCHA031201105515105531000016PS - 15(PH) - CHIP/ART/RECESS (:14-:16)                                                                                                                        
PRCFAMCHA031201105531105559000028Chip 'n Dale (FALL 2003) - Coming Up                                                                                                                           
PRCFAMCHA031201105559105626000027Ripley's BION (MACHINES) - Tomorrow @ 6:05am                                                                                                                   
PRCFAMCHA031201105626105656000030Land Before Time X BLAST! Interstitial (2)                                                                                                                     
INTFAMCHA031201105656105928000232MV Disney - With A Few Good Friends (CARLY SIMON)                                                                                                              
PROFAMCHA031201105928110014000046Playhouse - STANLEY - Squirrel Song                                                                                                                            
PROFAMCHA031201110014110046000032Hoze Houndz (GROCERIES - FALL 2003) - Today @ 2:10                                                                                                             
ID FAMCHA031201110046110100000014PS Playhouse AM Block Open (:10-:15)                                                                                                                           
PGRFAMCHA031201110100112700002243Chip 'n Dale Rescue Rangers                       The Luck Stops Here                                                 A6068607E                                
ID FAMCHA031201110100110108000008Magic of Disney - PLAYHOUSE - Shape (:06-:09)                                                                                                                  
PROFAMCHA031201112351112407000016PS - 16(PH) - ART/RECESS/BMW (:14-:16) (DEC)                                                                                                                   
PRCFAMCHA031201112407112437000030House of Mouse (FALL 2003) - Today @ 2:35pm                                                                                                                    
PROFAMCHA031201112437112621000144Playhouse - HOUSE OF MOUSE - Seating Song                                                                                                                      
PRCFAMCHA031201112621112648000027Ripley's BION (MACHINES) - Tomorrow @ 6:05am                                                                                                                   
ID FAMCHA031201112648112700000012PS Playhouse AM Block Open (:10-:15)                                                                                                                           
PGRFAMCHA031201112700115000001949Art Attack                                                                                                            A60686110                                
PROFAMCHA031201114649114703000014PS - 17(MD) - RECESS/BMW/ALF (:14-:16) (DEC)                                                                                                                   
PRCFAMCHA031201114703114737000034Once Upon A Christmas (DEC05) - Premiering Friday                                                                                                              
PROFAMCHA031201114737114807000030Recess (NOV2003) - Coming Up                                                                                                                                   
PRCFAMCHA031201114807114842000035Bullying Pledge - NOV 17 to DEC 31                                                                                                                             
PROFAMCHA031201114842114907000025Even Stevens (SIBLINGS) - Fridays @ 6:30pm                                                                                                                     
PRCFAMCHA031201114907114917000010Bullying Pledge Bumper - NOV 17 to DEC 31                                                                                                                      
PRCFAMCHA031201114917114947000030Holly Daze 7PM Specials - Tonight @ 7pm                                                                                                                        
ID FAMCHA031201114947115000000013PS Mad Dash Block Open (:13-:15)                                                                                                                               
PGRFAMCHA031201115000121315002248Disney's Recess                                   Beyond A Reasonable Scout/The "C" Note                              A6068607E                                
PROFAMCHA031201121248121302000014PS - 18(MD) - BMW/ALF/MENTORS (:14-:16) (DEC)                                                                                                                  
ID FAMCHA031201121302121315000013PS Mad Dash Block Open (:13-:15)                                                                                                                               
PGRFAMCHA031201121315123700002136Boy Meets World                                   Prom-ises, Prom-ises                                                B6068807BCC                              
PROFAMCHA031201121315121325000010CC Disclaimer - FAST - Generic (:08-:10)                                                                                                                       
PROFAMCHA031201123501123517000016PS - 19(MD) - ALF/MENTORS/DALMATIANS (:14-:16) (DE                                                                                                             
PRCFAMCHA031201123517123551000034Once Upon A Christmas (DEC05) - Premiering Friday                                                                                                              
PROFAMCHA031201123551123616000025Even Stevens (SIBLINGS) - Fridays @ 6:30pm                                                                                                                     
PRCFAMCHA031201123616123646000030Holly Daze 7PM Specials - Tonight @ 7pm                                                                                                                        
ID FAMCHA031201123646123700000014Mad Dash Block Open (:13-:15)                                                                                                                                  
PGRFAMCHA031201123700130000002129ALF                                               Stay'in Alive                                                       A2068807BCC                              
PROFAMCHA031201123700123709000009CC Disclaimer - FAST - Family (:08-:10)                                                                                                                        
PROFAMCHA031201125838125852000014PS - 20(MD) - MENTORS/DALMATIANS/CHIP (:14-:16) (D                                                                                                             
PRCFAMCHA031201125852125922000030Holly Daze 7PM Specials - Tonight @ 7pm                                                                                                                        
PROFAMCHA031201125922125947000025Even Stevens (SIBLINGS) - Fridays @ 6:30pm                                                                                                                     
ID FAMCHA031201125947130000000013PS Mad Dash Block Open (:13-:15)                                                                                                                               
PROFAMCHA031201130000130009000009CC Disclaimer - FAST - Family.ca (:08-:10)                                                                                                                     
PGRFAMCHA031201130000132400002311Mentors                                           The Tao Of Hockey                                             C18998A1065607ACC                              
PROFAMCHA031201132320132334000014PS - 21(PH) - DALMATIANS/CHIP/HOZE (:14-:16)                                                                                                                   
PROFAMCHA031201132334132348000014Playhouse - HOZE HOUNDZ - Skater                                                                                                                               
ID FAMCHA031201132348132400000012PS Playhouse PM Block Open (:10-:15)                                                                                                                           
PGRFAMCHA031201132400134800002252Disney's 101 Dalmatians: The Series               EPS # 1-024                                                         A6068607E                                
PROFAMCHA031201134652134708000016PS - 22(PH) - CHIP/HOZE/HOM (:14-:16)                                                                                                                          
PRCFAMCHA031201134708134736000028Chip 'n Dale (FALL 2003) - Coming Up                                                                                                                           
PROFAMCHA031201134736134750000014Playhouse - HOZE HOUNDZ - Skater                                                                                                                               
ID FAMCHA031201134750134800000010PS Playhouse PM Block Open (:10-:15)                                                                                                                           
PGRFAMCHA031201134800141158002244Chip 'n Dale Rescue Rangers                       Fake Me To Your Leader                                              A6068607E                                
ID FAMCHA031201134800134808000008Magic of Disney - PLAYHOUSE - Wipe (:06-:09)                                                                                                                   
PROFAMCHA031201141052141108000016PS - 23(PH) - HOZE/HOM/LION (:14-:16)                                                                                                                          
PROFAMCHA031201141108141143000035Playhouse - KATIE & ORBIE - Discoveries                                                                                                                        
ID FAMCHA031201141143141158000015PS Playhouse PM Block Open (:10-:15)                                                                                                                           
PROFAMCHA031201141158141208000010CC Disclaimer - FAST - Generic (:08-:10)                                                                                                                       
PGRFAMCHA031201141158143600002235Hoze Houndz                                       The Hound Who Loved Me/The Torch                              B17130A1065607ECC                              
PROFAMCHA031201143443143459000016PS - 24(PH) - HOM/LION/TEAMO (:14-:16) (DEC)                                                                                                                   
PROFAMCHA031201143459143545000046Playhouse - STANLEY - Squirrel Song                                                                                                                            
ID FAMCHA031201143545143600000015PS Playhouse PM Block Open (:10-:15)                                                                                                                           
PROFAMCHA031201143600143609000009CC Disclaimer - FAST - Family (:08-:10)                                                                                                                        
PGRFAMCHA031201143600150000002239Disney's House Of Mouse                           Pete's One Man Show                                                 A6068607ECC                              
PROFAMCHA031201145848145902000014Mad Dash  - 01 - LION/TEAMO/WEEKENDERS (:14-:16) (                                                                                                             
PRCFAMCHA031201145902145936000034Once Upon A Christmas (DEC05) - Premiering Friday                                                                                                              
PROFAMCHA031201145936145946000010Mad Dash - LIZZIE MCGUIRE - Going In                                                                                                                           
ID FAMCHA031201145946150000000014Mad Dash Block Open (:13-:15)                                                                                                                                  
PGRFAMCHA031201150000152500002245Lion King's Timon & Pumbaa; The                   Wishy Washy/Ice Escapades                                            6068607E                                
PROFAMCHA031201152245152301000016Mad Dash  - 02 - TEAMO/WEEKENDERS/RECESS (:14-:16)                                                                                                             
PRCFAMCHA031201152301152331000030Holly Daze 7PM Specials - Tonight @ 7pm                                                                                                                        
PROFAMCHA031201152331152343000012Mad Dash - RECESS - Sprinkler                                                                                                                                  
PRCFAMCHA031201152343152415000032Holly Daze Wish List Contest (MD/NS/NSW) (2)                                                                                                                   
PRCFAMCHA031201152415152445000030Year Without A Santa Claus (DEC03) - Wednesday @ 7                                                                                                             
ID FAMCHA031201152445152500000015Mad Dash Block Open (:13-:15)                                                                                                                                  
PGRFAMCHA031201152500155000002253Disney's Teamo Supremo                            Going It Alone/Out To Dry                                           A6068607E                                
PROFAMCHA031201154753154809000016Mad Dash  - 03 - WEEKENDERS/RECESS/KIM (:14-:16)                                                                                                               
PRCFAMCHA031201154809154843000034Once Upon A Christmas (DEC05) - Premiering Friday                                                                                                              
PROFAMCHA031201154843154916000033Mad Dash - WEEKENDERS - Clown                                                                                                                                  
PRCFAMCHA031201154916154946000030Holly Daze 7PM Specials - Tonight @ 7pm                                                                                                                        
ID FAMCHA031201154946155000000014Mad Dash Block Open (:13-:15)                                                                                                                                  
PROFAMCHA031201155000155009000009CC Disclaimer - FAST - Family.ca (:08-:10)                                                                                                                     
PGRFAMCHA031201155000161556002246Disney's The Weekenders                           Tish's Hair/I Want To Be Alone                                      A6068607ECC                              
PROFAMCHA031201161255161311000016Mad Dash  - 04 - RECESS/KIM/PROUD (:14-:16)                                                                                                                    
PRCFAMCHA031201161311161341000030Holly Daze 7PM Specials - Tonight @ 7pm                                                                                                                        
PRCFAMCHA031201161341161431000050Bullying PSA - NOV 17 to DEC 31                                                                                                                                
PRCFAMCHA031201161431161501000030Break The Safe Contest (2)                                                                                                                                     
PRCFAMCHA031201161501161511000010Bullying Pledge Bumper - NOV 17 to DEC 31                                                                                                                      
PRCFAMCHA031201161511161541000030Year Without A Santa Claus (DEC03) - Wednesday @ 7                                                                                                             
ID FAMCHA031201161541161556000015Mad Dash Block Open (:13-:15)                                                                                                                                  
PGRFAMCHA031201161556163952002236Disney's Recess                                   The Break Up/The Hypnotist                                           6068607E                                
PROFAMCHA031201163832163848000016Mad Dash  - 05 - KIM/PROUD/LIZZIE (:14-:16)                                                                                                                    
PRCFAMCHA031201163848163922000034Once Upon A Christmas (DEC05) - Premiering Friday                                                                                                              
PROFAMCHA031201163922163952000030Kim Possible (NOV2003) - Coming Up (MD)                                                                                                                        
INTFAMCHA031201163952164020000028Harrisons; The - Soaker                                                                                               A                                        
PRCFAMCHA031201164020164050000030Family Birthday Club #1 - ONGOING (1)                                                                                                                          
INTFAMCHA031201164050164114000024Harrisons; The - Sandwich Face                                                                                        A                                        
PRCFAMCHA031201164114164144000030Holly Daze 7PM Specials - Tonight @ 7pm                                                                                                                        
ID FAMCHA031201164144164159000015Mad Dash Block Open (:13-:15)                                                                                                                                  
PGRFAMCHA031201164159170635002254Disney's Kim Possible                             EPS # 1-032                                                         A6068607E                                
PROFAMCHA031201170453170507000014Mad Dash  - 06 - PROUD/LIZZIE/ALL (:14-:16)                                                                                                                    
PRCFAMCHA031201170507170537000030Holly Daze 7PM Specials - Tonight @ 7pm                                                                                                                        
PROFAMCHA031201170537170605000028Proud Family (BOND) - Coming Up (MD)                                                                                                                           
PRCFAMCHA031201170605170635000030Family Birthday Club #2 - ONGOING (1)                                                                                                                          
INTFAMCHA031201170635170719000044Harrisons; The - Baby Spit Up                                                                                         A                                        
PRCFAMCHA031201170719170749000030Year Without A Santa Claus (DEC03) - Wednesday @ 7                                                                                                             
ID FAMCHA031201170749170802000013Mad Dash Block Open (:13-:15)                                                                                                                                  
PROFAMCHA031201170802170812000010CC Disclaimer - FAST - Generic (:08-:10)                                                                                                                       
PGRFAMCHA031201170802173232002232Proud Family; The                                 Hooray For Iesha                                                    A6068807ECC                              
PROFAMCHA031201173044173058000014Mad Dash  - 07(NOV) - LIZZIE/ALL/RAVEN (:14-:16)                                                                                                               
PRCFAMCHA031201173058173132000034Once Upon A Christmas (DEC05) - Premiering Friday                                                                                                              
PROFAMCHA031201173132173202000030Lizzie McGuire (FALL 2003) - Coming Up (MD)                                                                                                                    
PRCFAMCHA031201173202173232000030Family Birthday Club #3 - ONGOING AS OF DEC. 1(DNU                                                                                                             
INTFAMCHA031201173232173259000027Harrisons; The - Teeth In Cake                                                                                        A                                        
PROFAMCHA031201173259173317000018That's So Raven (FALL 2003) - Tonight @ 6:30pm                                                                                                                 
PRCFAMCHA031201173317173347000030Holly Daze 7PM Specials - Tonight @ 7pm                                                                                                                        
ID FAMCHA031201173347173400000013Mad Dash Block Open (:13-:15)                                                                                                                                  
PGRFAMCHA031201173400175812002235Lizzie McGuire                                    Obsession                                                           A6068607B                                
ID FAMCHA031201173400173408000008Magic of Disney - MAD DASH - Shape (:06-:09)                                                                                                                   
PRCFAMCHA031201175643175713000030Holly Daze 7PM Specials - Tonight @ 7pm                                                                                                                        
PROFAMCHA031201175713175731000018That's So Raven (FALL 2003) - Tonight @ 6:30pm                                                                                                                 
PROFAMCHA031201175731175742000011Nonstop - BRENDAN LEONARD - Bumper Boats                                                                                                                       
PRCFAMCHA031201175742175812000030Break The Safe Contest (2)                                                                                                                                     
INTFAMCHA031201175812175845000033Harrisons; The - Coffee Time                                                                                          A                                        
PROFAMCHA031201175845175915000030Boy Meets World (SCRAWNY) - Tonight @ 8pm                                                                                                                      
PRCFAMCHA031201175915175945000030Year Without A Santa Claus (DEC03) - Wednesday @ 7                                                                                                             
ID FAMCHA031201175945180000000015Nonstop Block Open (:14-:17)                                                                                                                                   
PGRFAMCHA031201180000182543002421All That                                                                                                              A20686090                                
PRCFAMCHA031201182421182455000034Once Upon A Christmas (DEC05) - Premiering Friday                                                                                                              
PROFAMCHA031201182455182513000018That's So Raven (FALL 2003) - Coming Up (NS)                                                                                                                   
PRCFAMCHA031201182513182543000030Cat In The Hat Contest (3)                                                                                                                                     
INTFAMCHA031201182543182849000306Gagsters - Musical Madness                                                                                            A                                        
PROFAMCHA031201182849182919000030Boy Meets World (SCRAWNY) - Tonight @ 8pm                                                                                                                      
PRCFAMCHA031201182919182949000030Holly Daze 7PM Specials - Tonight @ 7pm                                                                                                                        
ID FAMCHA031201182949183006000017Nonstop Block Open (:14-:17)                                                                                                                                   
PROFAMCHA031201183006183015000009CC Disclaimer - FAST - Family (:08-:10)                                                                                                                        
PGRFAMCHA031201183006185355002240That's So Raven                                   The Smell of Victory                                                A6068807BCC                              
PRCFAMCHA031201185255185325000030Holly Daze 7PM Specials - Coming Up                                                                                                                            
PROFAMCHA031201185325185355000030Boy Meets World (SCRAWNY) - Tonight @ 8pm                                                                                                                      
INTFAMCHA031201185355185600000205Gagsters - Kitty Calamity                                                                                             A                                        
PRCFAMCHA031201185600185632000032Holly Daze Wish List Contest (MD/NS/NSW) (2)                                                                                                                   
PROFAMCHA031201185632185642000010FAMJAM - Open                                                                                                                                                  
INTFAMCHA031201185642185851000209MV Disney - Santa Claus Lane *CHRISTMAS* (HILARY D                                                                                                             
PROFAMCHA031201185851185905000014FAMJAM - Close (EMAIL)                                                                                                                                         
PRCFAMCHA031201185905185935000030Year Without A Santa Claus (DEC03) - Wednesday @ 7                                                                                                             
ID FAMCHA031201185935185952000017Nonstop Block Open (:14-:17)                                                                                                                                   
PRCFAMCHA031201185952190004000012Holly Daze BBD - 7:00PM Special - Coming Up                                                                                                                    
PROFAMCHA031201190004190013000009CC Disclaimer - FAST - Family.ca (:08-:10)                                                                                                                     
PGRFAMCHA031201190004195502005246Franklin's Magic Christmas                                                                                      B58104A1065607ECC                              
PROFAMCHA031201195259195313000014Nonstop - 05(M-T) - BMW/HEARTBEAT/N-PIX (:14-:16)                                                                                                              
PRCFAMCHA031201195313195347000034Once Upon A Christmas (DEC05) - Premiering Friday                                                                                                              
PROFAMCHA031201195347195417000030Boy Meets World (SCRAWNY) - Coming Up (NS)                                                                                                                     
PRCFAMCHA031201195417195452000035Bullying Pledge - NOV 17 to DEC 31                                                                                                                             
PROFAMCHA031201195452195502000010FAMJAM - Open                                                                                                                                                  
INTFAMCHA031201195502195833000331MV Disney - So Yesterday (HILARY DUFF)                                                                                                                         
PROFAMCHA031201195833195847000014FAMJAM - Close (EMAIL)                                                                                                                                         
PRCFAMCHA031201195847195917000030Cat In The Hat Contest (3)                                                                                                                                     
PRCFAMCHA031201195917195927000010Bullying Pledge Bumper - NOV 17 to DEC 31                                                                                                                      
PRCFAMCHA031201195927195957000030Holly Daze 7PM Specials - Monday to Thursday @ 7pm                                                                                                             
ID FAMCHA031201195957200013000016Nonstop Block Open (:14-:17)                                                                                                                                   
PGRFAMCHA031201200013202438002225Boy Meets World                                   The Heart Is A Lonely Hunter                                        B6068807BCC                              
PROFAMCHA031201200013200023000010CC Disclaimer - FAST - Generic (:08-:10)                                                                                                                       
PROFAMCHA031201202248202304000016Nonstop - 06(M-T) - HEARTBEAT/N-PIX (:14-:16)                                                                                                                  
PRCFAMCHA031201202304202334000030Holly Daze 7PM Specials - Tonight @ 7pm                                                                                                                        
PRCFAMCHA031201202334202358000024In A Heartbeat (FALL2003) - Coming Up                                                                                                                          
PRCFAMCHA031201202358202428000030Cat In The Hat Contest (3)                                                                                                                                     
PROFAMCHA031201202428202438000010FAMJAM - Open                                                                                                                                                  
INTFAMCHA031201202438202742000304MV Disney - Why Not (HILARY DUFF)                                                                                                                              
PROFAMCHA031201202742202756000014FAMJAM - Close (WEB)                                                                                                                                           
PRCFAMCHA031201202756202826000030Year Without A Santa Claus (DEC03) - Wednesday @ 7                                                                                                             
INTFAMCHA031201202826202922000056Harrisons; The - Electrocution                                                                                        A                                        
PRCFAMCHA031201202922202952000030Popcorn Pix Block Promo (ACTION) - Fridays @ 7:30p                                                                                                             
ID FAMCHA031201202952203007000015Nonstop Block Open (:14-:17)                                                                                                                                   
PROFAMCHA031201203007203016000009CC Disclaimer - FAST - Family (:08-:10)                                                                                                                        
PGRFAMCHA031201203007205441002233In A Heartbeat                                    Assume Nothing - Pt.1                                         B57083A1065807ACC                              
PROFAMCHA031201205249205305000016Nightly Pix Line-up (SEPT) - GENERIC (:14-:16)                                                                                                                 
PRCFAMCHA031201205305205339000034Once Upon A Christmas (DEC05) - Premiering Friday                                                                                                              
PRCFAMCHA031201205339205409000030Popcorn Pix Block Promo (ACTION) - Fridays @ 7:30p                                                                                                             
PRCFAMCHA031201205409205441000032Holly Daze Wish List Contest (PH/NP) (2)                                                                                                                       
PROFAMCHA031201205441205451000010FAMJAM - Open                                                                                                                                                  
PGRFAMCHA031201205441205852000329MV - Train On A Track (Kelly Rowland)                                                                                 A20688120                                
PROFAMCHA031201205820205834000014FAMJAM - Close (WEB)                                                                                                                                           
PROFAMCHA031201205834205852000018That's So Raven (FALL 2003) - Tomorrow @ 6:30pm                                                                                                                
INTFAMCHA031201205852205927000035Harrisons; The - Bowl Switch                                                                                          A                                        
PRCFAMCHA031201205927205957000030Holly Daze 7PM Specials - Monday to Thursday @ 7pm                                                                                                             
ID FAMCHA031201205957210007000010Nightly Pix Movie Open (:10-:15)                                                                                                                               
PGRFAMCHA031201210007224847014705Memphis Belle                                                                                                         C3068807DCC                              
PRCFAMCHA031201210007210016000009Rating - AA - Ian (:08-:10)                                                                                                                                    
PROFAMCHA031201210016210025000009CC Disclaimer - SLOW - Family (:08-:10)                                                                                                                        
PROFAMCHA031201224730224746000016Nonstop - 08(M/T-SEP) - BRENDAN/ALF/AMAZ (:14-:16)                                                                                                             
PRCFAMCHA031201224746224816000030Holly Daze 7PM Specials - Tonight @ 7pm                                                                                                                        
PROFAMCHA031201224816224847000031Brendan Leonard (#1 - FALL 2003) - Coming Up                                                                                                                   
INTFAMCHA031201224847225316000429Art Attack - Christmas #3                                                                                                                                      
PRCFAMCHA031201225316225346000030PowerTouch Contest (3)                                                                                                                                         
INTFAMCHA031201225346225842000456Art Attack - Christmas #2                                                                                                                                      
PROFAMCHA031201225842225922000040Nonstop - AMANDA SHOW - Dandruff                                                                                                                               
PRCFAMCHA031201225922225952000030Year Without A Santa Claus (DEC03) - Wednesday @ 7                                                                                                             
ID FAMCHA031201225952230006000014Nonstop Block Open (:14-:17)                                                                                                                                   
PGRFAMCHA031201230006232222002047Brendan Leonard Show; The                         EPS # 1-010                                                         B6068807FCC                              
PROFAMCHA031201230006230015000009CC Disclaimer - SLOW - Family.ca (:08-:10)                                                                                                                     
PROFAMCHA031201232102232118000016Nonstop - 08b(M-T/SEP) - ALF/AMAZING/JETT (:14-:16                                                                                                             
PRCFAMCHA031201232118232152000034Once Upon A Christmas (DEC05) - Premiering Friday                                                                                                              
PROFAMCHA031201232152232222000030Boy Meets World (SCRAWNY) - Monday to Thursday @ 8                                                                                                             
INTFAMCHA031201232222232621000359Art Attack - Christmas #1                                                                                                                                      
PROFAMCHA031201232621232646000025Even Stevens (SIBLINGS) - Fridays @ 6:30pm                                                                                                                     
INTFAMCHA031201232646232919000233Gagsters - Screamer                                                                                                   A                                        
PRCFAMCHA031201232919232949000030Holly Daze 7PM Specials - Monday to Thursday @ 7pm                                                                                                             
ID FAMCHA031201232949233004000015Nonstop Block Open (:14-:17)                                                                                                                                   
PGRFAMCHA031201233004235337002129ALF                                               Stay'in Alive                                                       A2068807BCC                              
PROFAMCHA031201233004233013000009CC Disclaimer - SLOW - Generic (:08-:10)                                                                                                                       
PROFAMCHA031201235142235157000015Nonstop - 09 - AMAZING/JETT (:14-:16) (DEC)                                                                                                                    
PRCFAMCHA031201235157235227000030Holly Daze 7PM Specials - Tonight @ 7pm                                                                                                                        
PROFAMCHA031201235227235257000030Boy Meets World (SCRAWNY) - Monday to Thursday @ 8                                                                                                             
PRCFAMCHA031201235257235327000030PowerTouch Contest (3)                                                                                                                                         
PROFAMCHA031201235327235337000010FAMJAM - Open                                                                                                                                                  
INTFAMCHA031201235337235757000420MV Disney - Someday (ALL 4 ONE)                                                                                                                                
PROFAMCHA031201235757235811000014FAMJAM - Close (EMAIL)                                                                                                                                         
PROFAMCHA031201235811235836000025Even Stevens (SIBLINGS) - Fridays @ 6:30pm                                                                                                                     
INTFAMCHA031201235836235920000044Harrisons; The - Baby Spit Up                                                                                         A                                        
PRCFAMCHA031201235920235950000030Year Without A Santa Claus (DEC03) - Wednesday @ 7                                                                                                             
ID FAMCHA031201235950000006000016Nonstop Block Open (:14-:17)                                                                                                                                   
PGRFAMCHA031201000006002510002345Amazing Stories                                   Thanksgiving                                                        A2068807A                                
PROFAMCHA031201002351002406000015Nonstop - 10 - JETT (:14-:16)                                                                                                                                  
PRCFAMCHA031201002406002440000034Once Upon A Christmas (DEC05) - Premiering Friday                                                                                                              
PROFAMCHA031201002440002510000030Boy Meets World (SCRAWNY) - Monday to Thursday @ 8                                                                                                             
INTFAMCHA031201002510002851000341Art Attack - Christmas Carolers                                                                                                                                
PRCFAMCHA031201002851002921000030In A Heartbeat (FALL2003) - Monday to Thurday @ 8:                                                                                                             
PRCFAMCHA031201002921002951000030Holly Daze 7PM Specials - Monday to Thursday @ 7pm                                                                                                             
ID FAMCHA031201002951003005000014Nonstop Block Open (:14-:17)                                                                                                                                   
PROFAMCHA031201003005003014000009CC Disclaimer - SLOW - Family (:08-:10)                                                                                                                        
PGRFAMCHA031201003005005544002430Famous Jett Jackson; The                          The Game                                                      B57172 1065607ACC                              
PRCFAMCHA031201005444005514000030Holly Daze 7PM Specials - Tonight @ 7pm                                                                                                                        
PRCFAMCHA031201005514005544000030Popcorn Pix Block Promo (ACTION) - Fridays @ 7:30p                                                                                                             
INTFAMCHA031201005544005911000327Gagsters - Bye Bye Balloons                                                                                           A                                        
PRCFAMCHA031201005911005941000030Year Without A Santa Claus (DEC03) - Wednesday @ 7                                                                                                             
INTFAMCHA031201005941010208000227Gagsters - Goldfish Gusher                                                                                            A                                        
SO FAMCHA031201010208010208001200Sign Off                                                                                                                                                       
SO FAMCHA031201010208011408001200Sign Off                                                                                                                                                       
OFFFAMCHA031201011408043000031552OFF AIR                                                                                                                                                        
SO FAMCHA031202043000043011000011Sign On (oct 1)                                                                                                                                                
PROFAMCHA031202043011043020000009CC Disclaimer - FAST - Family (:08-:10)                                                                                                                        
PGRFAMCHA031202043011045342002253Franklin                                          Franklin's Visitor/Franklin's Not-So-Broken Bone              B13640A1065607ECC                              
PROFAMCHA031202045313045329000016PS - 01(PH) - WTP/KATIE/FRANKLIN (:14-:16)                                                                                                                     
ID FAMCHA031202045329045342000013PS Playhouse AM Block Open (:10-:15)                                                                                                                           
PROFAMCHA031202045342045351000009CC Disclaimer - FAST - Family.ca (:08-:10)                                                                                                                     
PGRFAMCHA031202045342051700002242New Adventures of Winnie the Pooh; The            What's The Score Pooh?/Tigger's Houseguest                           6068607ECC                              
PROFAMCHA031202051633051649000016PS - 02(PH) - KATIE/FRANKLIN/RIPLEY (:14-:16)                                                                                                                  
ID FAMCHA031202051649051700000011PS Playhouse AM Block Open (:10-:15)                                                                                                                           
PROFAMCHA031202051700051710000010CC Disclaimer - FAST - Generic (:08-:10)                                                                                                                       
PGRFAMCHA031202051700054415002636Katie And Orbie                                   The Library/Rollerskates/Scary Movie                          C12449A1065607ECC                              
PROFAMCHA031202054346054402000016PS - 03(PH) - FRANKLIN/RIPLEY/HOZE (:14-:16)                                                                                                                   
ID FAMCHA031202054402054415000013PS Playhouse AM Block Open (:10-:15)                                                                                                                           
PROFAMCHA031202054415054424000009CC Disclaimer - FAST - Family (:08-:10)                                                                                                                        
PGRFAMCHA031202054415060800002253Franklin                                          Franklin's Gift/Franklin Growing Up Fast                      B13641A1065607ECC                              
PROFAMCHA031202060717060733000016PS - 04(PH) - RIPLEY/HOZE/KNIGHT (:14-:16)                                                                                                                     
PROFAMCHA031202060733060747000014Playhouse - HOZE HOUNDZ - Skater                                                                                                                               
ID FAMCHA031202060747060800000013PS Playhouse AM Block Open (:10-:15)                                                                                                                           
PROFAMCHA031202060800060809000009CC Disclaimer - FAST - Family.ca (:08-:10)                                                                                                                     
PGRFAMCHA031202060800063500002430Ripley's Believe It Or Not!                       A Flare for Fashion                                           B71300 1065607ECC                              
PROFAMCHA031202063239063255000016PS - 05(PH) - HOZE/KNIGHT/PRLR (:14-:16)                                                                                                                       
PROFAMCHA031202063255063327000032Hoze Houndz (GROCERIES - FALL 2003) - Coming Up (P                                                                                                             
PRCFAMCHA031202063327063355000028Chip 'n Dale (FALL 2003) - Today @ 11am                                                                                                                        
PROFAMCHA031202063355063418000023Playhouse - HOUSE OF MOUSE - Calculator                                                                                                                        
PROFAMCHA031202063418063448000030Stanley (FALL 2003) - Today @ 9:45am *DNU*                                                                                                                     
ID FAMCHA031202063448063500000012PS Playhouse AM Block Open (:10-:15)                                                                                                                           
PROFAMCHA031202063500063510000010CC Disclaimer - FAST - Generic (:08-:10)                                                                                                                       
PGRFAMCHA031202063500070000002234Hoze Houndz                                       Bonehead Houndz/Moltese Chicken                               B17132A1065607ECC                              
PROFAMCHA031202065744065800000016PS - 06(PB) - KNIGHT/PRLR/GADGET (:14-:16)                                                                                                                     
PROFAMCHA031202065800065830000030Mon Colle Knights - Coming Up                                                                                                                                  
PROFAMCHA031202065830065848000018That's So Raven (FALL 2003) - Weekends @ 9:55am                                                                                                                
PRCFAMCHA031202065848065918000030Year Without A Santa Claus (DEC03) - Wednesday @ 7                                                                                                             
PRCFAMCHA031202065918065948000030Holly Daze 7PM Specials - Tonight @ 7pm                                                                                                                        
ID FAMCHA031202065948070000000012PS Power Box Block Open (:10-:15)                                                                                                                              
PROFAMCHA031202070000070009000009CC Disclaimer - FAST - Family (:08-:10)                                                                                                                        
PGRFAMCHA031202070000072348002124Mon Colle Knights                                 EPS # 1-017                                                         A6068607ECC                              
PROFAMCHA031202072133072149000016PS - 07(PB) - PRLR/GADGET/DALMATIANS (:14-:16)                                                                                                                 
PRCFAMCHA031202072149072223000034Once Upon A Christmas (DEC05) - Premiering Friday                                                                                                              
PROFAMCHA031202072223072253000030Boy Meets World (SCRAWNY) - Tonight @ 8pm                                                                                                                      
PROFAMCHA031202072253072318000025Even Stevens (SIBLINGS) - Fridays @ 6:30pm                                                                                                                     
PRCFAMCHA031202072318072348000030Year Without A Santa Claus (DEC03) - Wednesday @ 7                                                                                                             
INTFAMCHA031202072348072817000429Art Attack - Christmas #3                                                                                                                                      
PROFAMCHA031202072817072847000030Kim Possible (NOV2003) - Today @ 4:40pm (MD)                                                                                                                   
PRCFAMCHA031202072847072917000030King (FRIENDS) - Weekends @ 7:35pm                                                                                                                             
PRCFAMCHA031202072917072947000030Holly Daze 7PM Specials - Tonight @ 7pm                                                                                                                        
ID FAMCHA031202072947073000000013PS Power Box Block Open (:10-:15)                                                                                                                              
PGRFAMCHA031202073000075219002129Power Rangers Lightspeed Rescue                   Wrath Of The Queen                                                  A6068607E                                
PROFAMCHA031202075129075145000016PS - 08(PB) - GADGET/DALMATIANS/FRANKLIN (:14-:16)                                                                                                             
PRCFAMCHA031202075145075219000034Once Upon A Christmas (DEC05) - Premiering Friday                                                                                                              
INTFAMCHA031202075219075618000359Art Attack - Christmas #1                                                                                                                                      
PRCFAMCHA031202075618075648000030Holly Daze 7PM Specials - Tonight @ 7pm                                                                                                                        
INTFAMCHA031202075648075915000227Gagsters - Goldfish Gusher                                                                                            A                                        
PRCFAMCHA031202075915075945000030Year Without A Santa Claus (DEC03) - Wednesday @ 7                                                                                                             
ID FAMCHA031202075945080000000015PS Power Box Block Open (:10-:15)                                                                                                                              
PGRFAMCHA031202080000082319002213Gadget & the Gadgetinis                           EPS # 1-025                                                         A6068607E                                
PROFAMCHA031202082213082227000014PS - 09(PH) - DALMATIANS/FRANKLIN/WTP (:14-:16)                                                                                                                
PROFAMCHA031202082227082319000052Elmo's World (MUFFET - FALL 2003) - Today @ 10:40a                                                                                                             
INTFAMCHA031202082319082519000200Disney Circle Time - The Lion & The Mouse Fable (a                                                                                                             
PROFAMCHA031202082519082549000030Disney's 101 Dalmatians - Today @ 1:25pm                                                                                                                       
PROFAMCHA031202082549082620000031Franklin (HANKY - FALL 2003) - Today @ 8:55am                                                                                                                  
INTFAMCHA031202082620082805000145Disney Circle Time - My Shadow (anywhere but D12)                                                                                                              
PROFAMCHA031202082805082851000046Playhouse - STANLEY - Squirrel Song                                                                                                                            
PRCFAMCHA031202082851082919000028Chip 'n Dale (FALL 2003) - Today @ 11am                                                                                                                        
PRCFAMCHA031202082919082949000030Year Without A Santa Claus (DEC03) - Wednesday @ 7                                                                                                             
ID FAMCHA031202082949083003000014PS Playhouse AM Block Open (:10-:15)                                                                                                                           
PGRFAMCHA031202083003085500002247Disney's 101 Dalmatians: The Series               EPS # 1-025                                                         A6068607E                                
PROFAMCHA031202085250085306000016PS - 10(PH) - FRANKLIN/WTP/STANLEY (:14-:16) (DEC)                                                                                                             
PROFAMCHA031202085306085332000026Franklin (PUPPY - FALL 2003) - Coming Up (PH)                                                                                                                  
PRCFAMCHA031202085332085400000028Chip 'n Dale (FALL 2003) - Today @ 11am                                                                                                                        
PROFAMCHA031202085400085419000019Playhouse - FRANKLIN - Party                                                                                                                                   
PRCFAMCHA031202085419085449000030Holly Daze 7PM Specials - Tonight @ 7pm                                                                                                                        
ID FAMCHA031202085449085500000011PS Playhouse AM Block Open (:10-:15)                                                                                                                           
PROFAMCHA031202085500085509000009CC Disclaimer - FAST - Family.ca (:08-:10)                                                                                                                     
PGRFAMCHA031202085500092000002253Franklin                                          Franklin & Otter's Visit/Franklin's Collection                B13648A1065607ECC                              
PROFAMCHA031202091802091818000016PS - 11(PH) - WTP/STANLEY/HENRY (:14-:16) (DEC)                                                                                                                
PROFAMCHA031202091818091848000030Stanley (FALL 2003) - Today @ 9:45am *DNU*                                                                                                                     
PROFAMCHA031202091848091915000027Playhouse - HENRY'S WORLD - Snowball                                                                                                                           
PROFAMCHA031202091915091948000033Elmo's World (DANCE - FALL 2003) - Today @ 10:40am                                                                                                             
ID FAMCHA031202091948092000000012PS Playhouse AM Block Open (:10-:15)                                                                                                                           
PROFAMCHA031202092000092010000010CC Disclaimer - FAST - Generic (:08-:10)                                                                                                                       
PGRFAMCHA031202092000094600002242New Adventures of Winnie the Pooh; The            Rabbit Takes A Holiday/Eeyi Eeyore                                   6068607ECC                              
PROFAMCHA031202094252094308000016PS - 12(PH) - STANLEY/HENRY/ELMO (:14-:16) (DEC)                                                                                                               
PROFAMCHA031202094308094338000030Stanley (FALL 2003) - Coming Up *DNU*                                                                                                                          
PRCFAMCHA031202094338094408000030Land Before Time X BLAST! Interstitial (2)                                                                                                                     
PROFAMCHA031202094408094454000046Playhouse - STANLEY - Squirrel Song                                                                                                                            
PROFAMCHA031202094454094522000028Elmo's World (BUG - FALL 2003) - Today @ 10:40am                                                                                                               
PRCFAMCHA031202094522094546000024Something Else (IS WELL) - Weekends @ 6:45pm                                                                                                                   
ID FAMCHA031202094546094600000014PS Playhouse AM Block Open (:10-:15)                                                                                                                           
PROFAMCHA031202094600094609000009CC Disclaimer - FAST - Family (:08-:10)                                                                                                                        
PGRFAMCHA031202094600101300002357Stanley                                           Tiger Hunt/Monkey Bar Business                                      A6068607ECC                              
PROFAMCHA031202101006101022000016PS - 13(PH) - HENRY/ELMO/CHIP (:14-:16) (DEC)                                                                                                                  
PRCFAMCHA031202101022101057000035Bullying Pledge - NOV 17 to DEC 31                                                                                                                             
PRCFAMCHA031202101057101125000028Chip 'n Dale (FALL 2003) - Today @ 11am                                                                                                                        
PRCFAMCHA031202101125101155000030Henry's World (FALL 2003) - Coming Up *DNU*                                                                                                                    
PRCFAMCHA031202101155101205000010Bullying Pledge Bumper - NOV 17 to DEC 31                                                                                                                      
PROFAMCHA031202101205101219000014Playhouse - HOZE HOUNDZ - Skater                                                                                                                               
PRCFAMCHA031202101219101249000030King (FRIENDS) - Weekends @ 7:35pm                                                                                                                             
ID FAMCHA031202101249101300000011PS Playhouse AM Block Open (:10-:15)                                                                                                                           
PROFAMCHA031202101300101309000009CC Disclaimer - FAST - Family.ca (:08-:10)                                                                                                                     
PGRFAMCHA031202101300104000002404Henry's World                                     Carrots Away/Price Of Lame                                    B66553A1065607GCC                              
PROFAMCHA031202103713103729000016PS - 14(PH) - ELMO/CHIP/ART (:14-:16) (DEC)                                                                                                                    
PROFAMCHA031202103729103757000028Elmo's World (BUG - FALL 2003) - Coming Up                                                                                                                     
PRCFAMCHA031202103757103832000035Playhouse - KATIE & ORBIE - Did You Know?                                                                                                                      
PRCFAMCHA031202103832103900000028Chip 'n Dale (FALL 2003) - Today @ 11am                                                                                                                        
PROFAMCHA031202103900103919000019Playhouse - HOZE HOUNDZ - Code Blue                                                                                                                            
PROFAMCHA031202103919103949000030Stanley (FALL 2003) - Tomorrow @ 9:45am *DNU*                                                                                                                  
ID FAMCHA031202103949104000000011PS Playhouse AM Block Open (:10-:15)                                                                                                                           
PGRFAMCHA031202104000105632001514Elmo's World                                      Getting Dressed                                                     A2068607G                                
PROFAMCHA031202105514105530000016PS - 15(PH) - CHIP/ART/RECESS (:14-:16)                                                                                                                        
PRCFAMCHA031202105530105602000032Holly Daze Wish List Contest (PH/NP) (2)                                                                                                                       
PRCFAMCHA031202105602105632000030King (FRIENDS) - Weekends @ 7:35pm                                                                                                                             
INTFAMCHA031202105632110017000345MV Disney - Deck The Halls *CHRISTMAS*                                                                                                                         
PRCFAMCHA031202110017110047000030PowerTouch Contest (3)                                                                                                                                         
ID FAMCHA031202110047110100000013PS Playhouse AM Block Open (:10-:15)                                                                                                                           
PGRFAMCHA031202110100112701002243Chip 'n Dale Rescue Rangers                       Last Train To Cashville                                             A6068607E                                
ID FAMCHA031202110100110108000008Magic of Disney - PLAYHOUSE - Shape (:06-:09)                                                                                                                  
PROFAMCHA031202112351112405000014PS - 16(PH) - ART/RECESS/BMW (:14-:16) (DEC)                                                                                                                   
PROFAMCHA031202112405112437000032Elmo's World (LEAP - FALL 2003) - Tomorrow @ 10:40                                                                                                             
PROFAMCHA031202112437112621000144Playhouse - HOUSE OF MOUSE - Seating Song                                                                                                                      
PROFAMCHA031202112621112651000030Stanley (FALL 2003) - Tomorrow @ 9:45am *DNU*                                                                                                                  
ID FAMCHA031202112651112701000010PS Playhouse AM Block Open (:10-:15)                                                                                                                           
PGRFAMCHA031202112701115005001929Art Attack                                                                                                            A60686110                                
PROFAMCHA031202114630114646000016PS - 17(MD) - RECESS/BMW/ALF (:14-:16) (DEC)                                                                                                                   
PRCFAMCHA031202114646114721000035Bullying Pledge - NOV 17 to DEC 31                                                                                                                             
PROFAMCHA031202114721114753000032Elmo's World (LEAP - FALL 2003) - Tomorrow @ 10:40                                                                                                             
PRCFAMCHA031202114753114828000035Playhouse - KATIE & ORBIE - Did You Know?                                                                                                                      
PRCFAMCHA031202114828114858000030House of Mouse (FALL 2003) - Today @ 2:35pm                                                                                                                    
PROFAMCHA031202114858114912000014Playhouse - HOZE HOUNDZ - Skater                                                                                                                               
PRCFAMCHA031202114912114940000028Chip 'n Dale (FALL 2003) - Today @ 1:45pm                                                                                                                      
PRCFAMCHA031202114940114950000010Bullying Pledge Bumper - NOV 17 to DEC 31                                                                                                                      
ID FAMCHA031202114950115005000015PS Mad Dash Block Open (:13-:15)                                                                                                                               
PGRFAMCHA031202115005121322002250Disney's Recess                                   The Army Navy Game/Big Ol' Mikey                                    A6068607E                                
PROFAMCHA031202121255121309000014PS - 18(MD) - BMW/ALF/MENTORS (:14-:16) (DEC)                                                                                                                  
ID FAMCHA031202121309121322000013PS Mad Dash Block Open (:13-:15)                                                                                                                               
PGRFAMCHA031202121322123701002140Boy Meets World                                   Honesty Night                                                       B6068807BCC                              
PROFAMCHA031202121322121330000008CC Disclaimer - FAST - Generic (:08-:10)                                                                                                                       
PROFAMCHA031202123510123524000014PS - 19(MD) - ALF/MENTORS/DALMATIANS (:14-:16) (DE                                                                                                             
PRCFAMCHA031202123524123554000030Holly Daze 7PM Specials - Tonight @ 7pm                                                                                                                        
PRCFAMCHA031202123554123624000030Year Without A Santa Claus (DEC03) - Wednesday @ 7                                                                                                             
PRCFAMCHA031202123624123648000024In A Heartbeat (FALL2003) - Tonight @ 8:30pm                                                                                                                   
ID FAMCHA031202123648123701000013Mad Dash Block Open (:13-:15)                                                                                                                                  
PGRFAMCHA031202123701130001002130ALF                                               Hungry Like The Wolf                                                A2068807BCC                              
PROFAMCHA031202123701123710000009CC Disclaimer - FAST - Family (:08-:10)                                                                                                                        
PROFAMCHA031202125840125854000014PS - 20(MD) - MENTORS/DALMATIANS/CHIP (:14-:16) (D                                                                                                             
PRCFAMCHA031202125854125924000030Holly Daze 7PM Specials - Tonight @ 7pm                                                                                                                        
PRCFAMCHA031202125924125948000024In A Heartbeat (FALL2003) - Tonight @ 8:30pm                                                                                                                   
ID FAMCHA031202125948130001000013PS Mad Dash Block Open (:13-:15)                                                                                                                               
PROFAMCHA031202130001130010000009CC Disclaimer - FAST - Family.ca (:08-:10)                                                                                                                     
PGRFAMCHA031202130001132400002311Mentors                                           Homesick                                                      C18998A1065607ACC                              
PROFAMCHA031202132321132336000015PS - 21(PH) - DALMATIANS/CHIP/HOZE (:14-:16)                                                                                                                   
PROFAMCHA031202132336132350000014Playhouse - HOZE HOUNDZ - Skater                                                                                                                               
ID FAMCHA031202132350132400000010PS Playhouse PM Block Open (:10-:15)                                                                                                                           
PGRFAMCHA031202132400134759002246Disney's 101 Dalmatians: The Series               EPS # 1-026                                                         A6068607E                                
PROFAMCHA031202134646134702000016PS - 22(PH) - CHIP/HOZE/HOM (:14-:16)                                                                                                                          
PRCFAMCHA031202134702134730000028Chip 'n Dale (FALL 2003) - Coming Up                                                                                                                           
PROFAMCHA031202134730134744000014Playhouse - HOZE HOUNDZ - Skater                                                                                                                               
ID FAMCHA031202134744134759000015PS Playhouse PM Block Open (:10-:15)                                                                                                                           
PGRFAMCHA031202134759141159002249Chip 'n Dale Rescue Rangers                       The Case Of The Cola Cult                                           A6068607E                                
ID FAMCHA031202134759134807000008Magic of Disney - PLAYHOUSE - Wipe (:06-:09)                                                                                                                   
PROFAMCHA031202141056141112000016PS - 23(PH) - HOZE/HOM/LION (:14-:16)                                                                                                                          
PROFAMCHA031202141112141144000032Hoze Houndz (GROCERIES - FALL 2003) - Coming Up (P                                                                                                             
ID FAMCHA031202141144141159000015PS Playhouse PM Block Open (:10-:15)                                                                                                                           
PROFAMCHA031202141159141209000010CC Disclaimer - FAST - Generic (:08-:10)                                                                                                                       
PGRFAMCHA031202141159143559002234Hoze Houndz                                       High Bred Hound/Hozer, I Shrunk the Houndz                    B17131A1065607ECC                              
PROFAMCHA031202143443143459000016PS - 24(PH) - HOM/LION/TEAMO (:14-:16) (DEC)                                                                                                                   
PROFAMCHA031202143459143518000019Playhouse - HOZE HOUNDZ - Code Blue                                                                                                                            
PROFAMCHA031202143518143545000027Playhouse - HENRY'S WORLD - Snowball                                                                                                                           
ID FAMCHA031202143545143559000014PS Playhouse PM Block Open (:10-:15)                                                                                                                           
PROFAMCHA031202143559143608000009CC Disclaimer - FAST - Family (:08-:10)                                                                                                                        
PGRFAMCHA031202143559150000002230Disney's House Of Mouse                           Where's Minnie?                                                     A6068607ECC                              
PROFAMCHA031202145838145854000016Mad Dash  - 01 - LION/TEAMO/WEEKENDERS (:14-:16) (                                                                                                             
PRCFAMCHA031202145854145924000030Land Before Time X BLAST! Interstitial (2)                                                                                                                     
PROFAMCHA031202145924145947000023Playhouse - HOUSE OF MOUSE - Calculator                                                                                                                        
ID FAMCHA031202145947150000000013Mad Dash Block Open (:13-:15)                                                                                                                                  
PROFAMCHA031202150000150009000009CC Disclaimer - FAST - Family.ca (:08-:10)                                                                                                                     
PGRFAMCHA031202150000152500002245Lion King's Timon & Pumbaa; The                   Guru Some/Jailhouse Shock                                            6068607E                                
PROFAMCHA031202152254152310000016Mad Dash  - 02 - TEAMO/WEEKENDERS/RECESS (:14-:16)                                                                                                             
