OFFFAMCHA000801043000060000013000                                                                                                                                                               
SO FAMCHA000801060000060011000011Sign On (oct 1)                                                                                                                                                
PROFAMCHA000801060011060016000005CC Disclaimer (oct) **DO NOT USE**                                                                                                                             
PGRFAMCHA000801060016062325002309Disney Presents Bill Nye the Science Guy          Deserts                                                              60686110CC                              
ID FAMCHA000801062325062335000010Generic ID - Bubbles                                                                                                                                           
PROFAMCHA000801062335062440000105Adventures of Gummi Bears - Today @ 7am (MAR)                                                                                                                  
PGRFAMCHA000801062440062900000420MV Disney - Someday (oct 1)                                                                                            60688130                                
PRCFAMCHA000801062900062930000030Franklin - Weekdays @ 7:30am (MAR)                                                                                                                             
PRCFAMCHA000801062930062940000010Morning Block menu background (flex time)                                                                                                                      
ID FAMCHA000801062940063000000020Morning block open play pen                                                                                                                                    
PROFAMCHA000801063000063005000005CC Disclaimer (oct) **DO NOT USE**                                                                                                                             
PGRFAMCHA000801063005065415002410Busy World Of Richard Scarry; The                 A Big Operation/Cucumber, The African Photographer            B10190 1065607ECC                              
ID FAMCHA000801065415065420000005Generic ID - Bubbles                                                                                                                                           
PRCFAMCHA000801065420065450000030Franklin - Weekdays @ 7:30am (MAR)                                                                                                                             
PROFAMCHA000801065450065555000105Adventures of Gummi Bears - Next (MAR)                                                                                                                         
PGRFAMCHA000801065555065910000315Art Attack - Sailing Ship                                                                                              60686130                                
PROFAMCHA000801065910065940000030Out of The Box - Tuesday and Thursday @ 8:30am (oc                                                                                                             
PRCFAMCHA000801065940065950000010Morning Block menu background (flex time)                                                                                                                      
ID FAMCHA000801065950070000000010Magic of Disney - V4 - KID FEMALE                                                                                                                              
PROFAMCHA000801070000070005000005CC Disclaimer (oct) **DO NOT USE**                                                                                                                             
PGRFAMCHA000801070005072245002240Adventures of the Gummi Bears; The                A Hard Dazed Knight/Mirthy Me                                        6068607ECC                              
ID FAMCHA000801072245072300000015Generic ID - confetti                                                                                                                                          
PROFAMCHA000801072300072330000030Out of The Box - Tuesday and Thursday @ 8:30am (oc                                                                                                             
PRCFAMCHA000801072330072400000030Franklin - Next (MAR)                                                                                                                                          
PRCFAMCHA000801072400072430000030Funshine Tour - Generic Event Promo                                                                                                                            
PRCFAMCHA000801072430072510000040Funshine Tour - Location Spot #2-3 (JUL31-AUG06)                                                                                                               
PGRFAMCHA000801072510072844000334MV Disney - Forever and ever (preschool)                                                                               60688130                                
PROFAMCHA000801072844072929000045PB&J Otter - Mon, Wed & Fri @ 8:30am (oct 1)                                                                                                                   
PRCFAMCHA000801072929072940000011Morning Block menu background (flex time)                                                                                                                      
ID FAMCHA000801072940073000000020Morning block open play pen                                                                                                                                    
PROFAMCHA000801073000073005000005CC Disclaimer (oct) **DO NOT USE**                                                                                                                             
PGRFAMCHA000801073005075258002253Franklin                                          Franklin & The Gloomy Day/Franklin Tells Time                 B13651 1065607ECC                              
ID FAMCHA000801075258075308000010Generic ID - confetti                                                                                                                                          
PROFAMCHA000801075308075353000045PB&J Otter - Mon, Wed & Fri @ 8:30am (oct 1)                                                                                                                   
PGRFAMCHA000801075353075824000431Art Attack - Lion                                                                                                      60688130                                
PRCFAMCHA000801075824075854000030Funshine Tour - Contest - Watch Fridays @ 8pm                                                                                                                  
PRCFAMCHA000801075854075929000035Little Lulu Show; The - Tonight @ 6:00pm (oct1)                                                                                                                
PRCFAMCHA000801075929075940000011Morning Block menu background (flex time)                                                                                                                      
ID FAMCHA000801075940080000000020Morning block open play pen                                                                                                                                    
PGRFAMCHA000801080000082008002008Art Attack                                        1-105                                                                60686110                                
ID FAMCHA000801082008082015000007Generic ID - Whisper                                                                                                                                           
PRCFAMCHA000801082015082050000035Little Lulu Show; The - Tonight @ 6:00pm (oct1)                                                                                                                
PRCFAMCHA000801082050082120000030Funshine Tour - Generic Event Promo                                                                                                                            
PRCFAMCHA000801082120082200000040Funshine Tour - Location Spot #2-3 (JUL31-AUG06)                                                                                                               
PGRFAMCHA000801082200082830000630Richard Scarry (ii) Captain Willy And The Pirates                                                               P19586 10656130                                
PROFAMCHA000801082830082900000030Madeline - 8:30am on Saturday (oct)                                                                                                                            
PRCFAMCHA000801082900083000000100Morning Block-(TT)- Out of the Box next/Babar/Kati                                                                                                             
PGRFAMCHA000801083000085205002205Out of the Box                                    Box Full of Boxes                                                    60686110                                
ID FAMCHA000801085205085210000005Generic ID - Couch 2                                                                                                                                           
PROFAMCHA000801085210085240000030Madeline - 8:30am on Saturday (oct)                                                                                                                            
PROFAMCHA000801085240085255000015Doug - Weekdays @ 5:00 pm (oct1)                                                                                                                               
PROFAMCHA000801085255085400000105Adventures of Gummi Bears - Monday to Friday @ 7am                                                                                                             
PROFAMCHA000801085400085500000100Morning Block-(TT)- Babar next/Katie/Billy                                                                                                                     
PROFAMCHA000801085500085505000005CC Disclaimer (oct) **DO NOT USE**                                                                                                                             
PGRFAMCHA000801085505091819002314Babar                                             Witch's Potion                                                C07575 1065607ECC                              
ID FAMCHA000801091819091829000010Generic ID - Family w/dog                                                                                                                                      
PROFAMCHA000801091829091859000030Pepper Ann - Starting August 14                                                                                                                                
PROFAMCHA000801091859091959000100Morning Block-(TT)- Katie next/Billy/Busy                                                                                                                      
PROFAMCHA000801091959092004000005CC Disclaimer (oct) **DO NOT USE**                                                                                                                             
PGRFAMCHA000801092004094639002635Katie And Orbie                                   The Movie/Nasty Night/Dashing Through The Snow                C11896 1065607ECC                              
ID FAMCHA000801094639094644000005Generic ID - Fingerpaint                                                                                                                                       
PROFAMCHA000801094644094659000015Disney's One Too - today @ 4:30 (Oct 1)                                                                                                                        
PROFAMCHA000801094659094759000100Morning Block-(TT)- Billy next/Busy/Art Attack                                                                                                                 
PROFAMCHA000801094759094804000005CC Disclaimer (oct) **DO NOT USE**                                                                                                                             
PGRFAMCHA000801094804101220002416Billy The Cat                                     The Rescue                                                    B27642A1065607ECC                              
ID FAMCHA000801101220101230000010Generic ID - Hula Hoop                                                                                                                                         
PRCFAMCHA000801101230101300000030Franklin - Weekdays @ 7:30am (MAR)                                                                                                                             
PROFAMCHA000801101300101400000100Morning Block-(TT)- Busy next/Art Attack/PB&J                                                                                                                  
PROFAMCHA000801101400101405000005CC Disclaimer (oct) **DO NOT USE**                                                                                                                             
PGRFAMCHA000801101405103815002410Busy World Of Richard Scarry; The                 Sgt. Murphy's Day Off/Schmudge, The German Chimney            B10191 1065607ECC                              
ID FAMCHA000801103815103820000005Generic ID - Marbles                                                                                                                                           
PROFAMCHA000801103820103900000040Microsoap - Weekends @ 2:30pm (MAR)                                                                                                                            
PROFAMCHA000801103900104000000100Morning Block-(TT)- Art Attack next/PB&J/Space Cas                                                                                                             
PGRFAMCHA000801104000110001002001Art Attack                                        1-109                                                                60686110                                
PROFAMCHA000801110001110101000100Morning Block-(TT)- PB&J next/Space Cases                                                                                                                      
PROFAMCHA000801110101110106000005CC Disclaimer (oct) **DO NOT USE**                                                                                                                             
PGRFAMCHA000801110106112436002330PB&J Otter                                        Practice Makes Perfect/Three's A Crowd                              A6068607ECC                              
ID FAMCHA000801112436112451000015Generic ID - confetti                                                                                                                                          
PROFAMCHA000801112451112521000030Crash Zone - Saturday & Sunday @ 6:30am (MAR)                                                                                                                  
PROFAMCHA000801112521112600000039Goof Troop - Today @ 3pm                                                                                                                                       
PROFAMCHA000801112600112700000100Morning Block-(TT)- Space Cases next                                                                                                                           
PROFAMCHA000801112700112705000005CC Disclaimer (oct) **DO NOT USE**                                                                                                                             
PGRFAMCHA000801112705115125002420Space Cases                                       New Places, New Faces                                         B22687 1165607BCC                              
ID FAMCHA000801115125115135000010Generic ID - soccer **DO NOT USE**                                                                                                                             
PROFAMCHA000801115135115235000100Morning Block-(TT)- Generic                                                                                                                                    
PROFAMCHA000801115235115305000030Adventures of Pete & Pete - Saturday @ 10am                                                                                                                    
PROFAMCHA000801115305115345000040Microsoap - Weekends @ 2:30pm (MAR)                                                                                                                            
PGRFAMCHA000801115345115819000434MV Disney - A Dream is a Wish Your Heart Makes (oc                                                                     60688130                                
PRCFAMCHA000801115819115849000030Funshine Tour - Contest - Watch Fridays @ 8pm                                                                                                                  
PROFAMCHA000801115849115949000100Afternoon Block - Lion King next/Flash Forward/Cla                                                                                                             
ID FAMCHA000801115949115959000010Magic of Disney - V4 - TEEN MALE                                                                                                                               
PGRFAMCHA000801115959122244002245Lion King's Timon & Pumbaa; The                   Circus Jerks/Nest Best Thing                                         6068607E                                
ID FAMCHA000801122244122251000007Generic ID - Whisper                                                                                                                                           
PROFAMCHA000801122251122321000030Innerspace (AUG6) - Sunday @ 8pm                                                                                                                               
ID FAMCHA000801122321122330000009URL(1) - CONTESTS                                                                                                                                              
PROFAMCHA000801122330122400000030Bedknobs & Broomsticks (AUG) - Sunday @ 10am                                                                                                                   
PROFAMCHA000801122400122500000100Afternoon Block - Flash Forward next/Clarissa/Litt                                                                                                             
PROFAMCHA000801122500122505000005CC Disclaimer (oct) **DO NOT USE**                                                                                                                             
PGRFAMCHA000801122505124840002335Flash Forward                                     Makeover                                                      A04579 1065607ACC                              
ID FAMCHA000801124840124847000007Generic ID - Whisper                                                                                                                                           
ID FAMCHA000801124847124900000013URL(2) - HAPPY BIRTHDAY (as of JUL 01)                                                                                                                         
PROFAMCHA000801124900125000000100Afternoon Block - Clarissa next/Little Lulu/Frankl                                                                                                             
PGRFAMCHA000801125000131616002616Clarissa                                          Ferguson Explains it All                                             2068607B                                
PROFAMCHA000801131616131716000100Afternoon Block - Little Lulu next/Franklin/Art At                                                                                                             
PROFAMCHA000801131716131721000005CC Disclaimer (oct) **DO NOT USE**                                                                                                                             
PGRFAMCHA000801131721134113002352Little Lulu Show; The                             Tiny Tot's Syrup/The Night Before Christmas/The Pi            B03815A1065607ECC                              
PROFAMCHA000801134113134213000100Afternoon Block - Franklin next/Art Attack/Darkwin                                                                                                             
PROFAMCHA000801134213134218000005CC Disclaimer (oct) **DO NOT USE**                                                                                                                             
PGRFAMCHA000801134218140511002253Franklin                                          Franklin's Day Off/Franklin's Homemade Cookies                P02772A1065607ECC                              
ID FAMCHA000801140511140521000010Generic ID - Bubbles                                                                                                                                           
PRCFAMCHA000801140521140551000030Funshine Tour - Contest - Watch Fridays @ 8pm                                                                                                                  
ID FAMCHA000801140551140600000009URL(1) - CONTESTS                                                                                                                                              
PROFAMCHA000801140600140700000100Afternoon Block - Art Attack next/Darkwing Duck                                                                                                                
PGRFAMCHA000801140700142647001947Art Attack                                        1-110                                                                60686110                                
ID FAMCHA000801142647142652000005Generic ID - Bubbles                                                                                                                                           
PROFAMCHA000801142652142719000027Recess - Today @ 5:30 pm (oct1)                                                                                                                                
PRCFAMCHA000801142719142749000030Funshine Tour - Contest - Watch Fridays @ 8pm                                                                                                                  
PROFAMCHA000801142749142849000100Afternoon Block - Darkwing Duck next                                                                                                                           
ID FAMCHA000801142849142859000010Magic of Disney - V4 - TEEN FEMALE                                                                                                                             
PROFAMCHA000801142859142904000005CC Disclaimer (oct) **DO NOT USE**                                                                                                                             
PGRFAMCHA000801142904145148002244Darkwing Duck                                     A Revolution In Home Appliances                                      6068607ECC                              
ID FAMCHA000801145148145153000005Generic ID - Couch 1                                                                                                                                           
PROFAMCHA000801145153145253000100Afternoon Block - Generic                                                                                                                                      
PROFAMCHA000801145253145323000030Innerspace (AUG6) - Sunday @ 8pm                                                                                                                               
PROFAMCHA000801145323145402000039Goof Troop - Next                                                                                                                                              
PROFAMCHA000801145402145443000041Honey I Shrunk the Kids (series oct) Sunday @ 7pm                                                                                                              
PRCFAMCHA000801145443145513000030Funshine Tour - Generic Event Promo                                                                                                                            
PRCFAMCHA000801145513145553000040Funshine Tour - Location Spot #2-3 (JUL31-AUG06)                                                                                                               
PGRFAMCHA000801145553145831000238MV Disney - Lion King 2: We are One (oct)                                                                              60688130                                
PRCFAMCHA000801145831145901000030Funshine Tour - Contest - Watch Fridays @ 8pm                                                                                                                  
PROFAMCHA000801145901145936000035Lion King's Timon & Pumbaa - today @ 4:00pm (OCT 1                                                                                                             
PRCFAMCHA000801145936145950000014Morning Block menu background (flex time)                                                                                                                      
ID FAMCHA000801145950150000000010Magic of Disney - V4 - TEEN MALE                                                                                                                               
PROFAMCHA000801150000150005000005CC Disclaimer (oct) **DO NOT USE**                                                                                                                             
PGRFAMCHA000801150005152253002248Goof Troop                                        Gunfight At The Okie Doke Corral                                     6068607ECC                              
ID FAMCHA000801152253152258000005Generic ID - Couch 2                                                                                                                                           
PROFAMCHA000801152258152328000030Bedknobs & Broomsticks (AUG) - Sunday @ 10am                                                                                                                   
PROFAMCHA000801152328152403000035Lion King's Timon & Pumbaa - today @ 4:00pm (OCT 1                                                                                                             
PGRFAMCHA000801152403152837000434Art Attack - Army Surplus Helicopter                                                                                   60686130                                
PRCFAMCHA000801152837152910000033Hoze Houndz - Tonight @ 6:30pm on Family (oct 1)                                                                                                               
PROFAMCHA000801152910152940000030Innerspace (AUG6) - Sunday @ 8pm                                                                                                                               
PRCFAMCHA000801152940152950000010Morning Block menu background (flex time)                                                                                                                      
ID FAMCHA000801152950153000000010Magic of Disney - V2(sky) - TEEN FEMALE                                                                                                                        
PROFAMCHA000801153000153005000005CC Disclaimer (oct) **DO NOT USE**                                                                                                                             
PGRFAMCHA000801153005155242002237Disney's Aladdin                                  A Sultan Worth His Salt                                              6068607ECC                              
ID FAMCHA000801155242155257000015Generic ID - confetti                                                                                                                                          
PROFAMCHA000801155257155327000030Innerspace (AUG6) - Sunday @ 8pm                                                                                                                               
PROFAMCHA000801155327155402000035Lion King's Timon & Pumbaa - next (OCT 1)                                                                                                                      
PRCFAMCHA000801155402155435000033Hoze Houndz - Tonight @ 6:30pm on Family (oct 1)                                                                                                               
PRCFAMCHA000801155435155505000030Funshine Tour - Generic Event Promo                                                                                                                            
PRCFAMCHA000801155505155545000040Funshine Tour - Location Spot #2-3 (JUL31-AUG06)                                                                                                               
PGRFAMCHA000801155545155840000255Art Attack - Skateboarder                                                                                              60686130                                
PRCFAMCHA000801155840155915000035Little Lulu Show; The - Tonight @ 6:00pm (oct1)                                                                                                                
PROFAMCHA000801155915155945000030Bedknobs & Broomsticks (AUG) - Sunday @ 10am                                                                                                                   
PRCFAMCHA000801155945155955000010Morning Block menu background (flex time)                                                                                                                      
ID FAMCHA000801155955160005000010Magic of Disney - V2(sky) - TEEN MALE                                                                                                                          
PGRFAMCHA000801160005162250002245Lion King's Timon & Pumbaa; The                   Super Hog-O/Don't Have the Vegas Idea                                6068607E                                
ID FAMCHA000801162250162255000005Generic ID - Fingerpaint                                                                                                                                       
PROFAMCHA000801162255162325000030Fall Promos - The Jersey - This Fall                                                                                                                           
PROFAMCHA000801162325162355000030Bedknobs & Broomsticks (AUG) - Sunday @ 10am                                                                                                                   
PROFAMCHA000801162355162417000022Disney's One Too - Next (Oct 1)                                                                                                                                
PROFAMCHA000801162417162447000030SFSJ Lee Event Promo - Sunday Aug 20 starting @ 6p                                                                                                             
PRCFAMCHA000801162447162522000035Little Lulu Show; The - Tonight @ 6:00pm (oct1)                                                                                                                
PRCFAMCHA000801162522162552000030Funshine Tour - Contest - Watch Fridays @ 8pm                                                                                                                  
PROFAMCHA000801162552162622000030Pepper Ann - Starting August 14                                                                                                                                
PGRFAMCHA000801162622162748000126Mix Ups - Birthday Befuddle                                                                                            60688130                                
PROFAMCHA000801162748162828000040Fall Promos - 2 Hour Tour - This Fall                                                                                                                          
PROFAMCHA000801162828162858000030SFSJ Vote Promo - Sunday Aug 20 starting @ 6pm                                                                                                                 
PROFAMCHA000801162858162920000022Hercules - Next (oct 1)*                                                                                                                                       
PROFAMCHA000801162920162950000030Innerspace (AUG6) - Sunday @ 8pm                                                                                                                               
ID FAMCHA000801162950163000000010Magic of Disney - V3(water) - TEEN FEMALE                                                                                                                      
PROFAMCHA000801163000163030000030Disney's One Too - Opening                                                                                                                                     
PGRFAMCHA000801163030165331002301Disney's Hercules                                 Hercules And The Son Of Poseidon                                     6068607ECC                              
ID FAMCHA000801165331165336000005Generic ID - Fingerpaint                                                                                                                                       
PROFAMCHA000801165336165406000030Innerspace (AUG6) - Sunday @ 8pm                                                                                                                               
PROFAMCHA000801165406165421000015Doug - Next (oct1)                                                                                                                                             
PROFAMCHA000801165421165440000019So Weird - Friday @ 7:00 pm (oct1 )                                                                                                                            
PGRFAMCHA000801165440165501000021Doug Sketches - House of Pork Chop - President                                                                         60686130                                
PGRFAMCHA000801165501165623000122Disney Dinner Time(03)- Tecumseh (D12 only)                                                                            60686130                                
PRCFAMCHA000801165623165653000030Funshine Tour - Generic Event Promo                                                                                                                            
PRCFAMCHA000801165653165733000040Funshine Tour - Location Spot #2-3 (JUL31-AUG06)                                                                                                               
PGRFAMCHA000801165733165754000021Doug Sketches - Skeeter's Fun Science Facts - Mete                                                                     60686130                                
PGRFAMCHA000801165754165824000030Disney Magic Drawings(03)- Donald (D12 only)                                                                           60686130                                
PROFAMCHA000801165824165854000030SFSJ Vote Promo - Sunday Aug 20 starting @ 6pm                                                                                                                 
PGRFAMCHA000801165854165915000021Doug Sketches - Roger Klatz top ten screams                                                                            60686130                                
PROFAMCHA000801165915165945000030Bedknobs & Broomsticks (AUG) - Sunday @ 10am                                                                                                                   
ID FAMCHA000801165945170000000015Afternoon block pinball open **DO NOT USE**                                                                                                                    
PROFAMCHA000801170000170030000030Disney's One Too - Opening                                                                                                                                     
PGRFAMCHA000801170030172257002227Disney's Doug                                     The Annoying S.T.U.A.R.T.                                            6068607E                                
ID FAMCHA000801172257172307000010Generic ID - Pink inner tube                                                                                                                                   
PROFAMCHA000801172307172337000030Bedknobs & Broomsticks (AUG) - Sunday @ 10am                                                                                                                   
PROFAMCHA000801172337172358000021Recess - Next (oct1)                                                                                                                                           
PROFAMCHA000801172358172428000030Pepper Ann - Starting August 14                                                                                                                                
PROFAMCHA000801172428172450000022Mentors - Version 1 - Sunday @ 6:30pm                                                                                                                          
PGRFAMCHA000801172450172511000021Recess Sketches - Telephone                                                                                            60686130                                
PGRFAMCHA000801172511172541000030Disney Magic Drawings(05)- Goofy (D12 only)                                                                            60686130                                
PROFAMCHA000801172541172611000030Fall Promos - The Jersey - This Fall                                                                                                                           
PGRFAMCHA000801172611172632000021Recess Sketches - TJ's Dream day off - Volcano                                                                         60686130                                
PGRFAMCHA000801172632172752000120Disney Magic Shop(03)- Nimble Thimble (D12 only)                                                                       60686130                                
PROFAMCHA000801172752172814000022So Weird - Friday at 7:00 pm (oct1 )                                                                                                                           
PRCFAMCHA000801172814172844000030Funshine Tour - Contest - Watch Fridays @ 8pm                                                                                                                  
PGRFAMCHA000801172844172905000021Recess Sketches - The Word - Role Model                                                                                60686130                                
PROFAMCHA000801172905172935000030Innerspace (AUG6) - Sunday @ 8pm                                                                                                                               
PRCFAMCHA000801172935172945000010Morning Block menu background (flex time)                                                                                                                      
ID FAMCHA000801172945173000000015Afternoon block pinball open **DO NOT USE**                                                                                                                    
PROFAMCHA000801173000173030000030Disney's One Too - Opening                                                                                                                                     
PGRFAMCHA000801173030175306002236Disney's Recess                                   Madness of King Bob/Call Me Guy                                      6068607E                                
ID FAMCHA000801175306175316000010Generic ID - Pink inner tube                                                                                                                                   
PROFAMCHA000801175316175346000030Innerspace (AUG6) - Sunday @ 8pm                                                                                                                               
PRCFAMCHA000801175346175421000035Little Lulu Show; The - Next (oct1)                                                                                                                            
PRCFAMCHA000801175421175451000030Funshine Tour - Generic Event Promo                                                                                                                            
PRCFAMCHA000801175451175531000040Funshine Tour - Location Spot #2-3 (JUL31-AUG06)                                                                                                               
PGRFAMCHA000801175531175756000225MV Disney - T&P - Yummy,Yummy,Yummy                                                                                    60688130                                
ID FAMCHA000801175756175809000013URL(2) - SILLY STORIES                                                                                                                                         
PROFAMCHA000801175809175839000030Fall Promos - The Jersey - This Fall                                                                                                                           
PROFAMCHA000801175839175909000030SFSJ Vote Promo - Sunday Aug 20 starting @ 6pm                                                                                                                 
PROFAMCHA000801175909175939000030Bedknobs & Broomsticks (AUG) - Sunday @ 10am                                                                                                                   
ID FAMCHA000801175939180000000021Prime time open count down                                                                                                                                     
PROFAMCHA000801180000180005000005CC Disclaimer (oct) **DO NOT USE**                                                                                                                             
PGRFAMCHA000801180005182357002352Little Lulu Show; The                             Prisoner Exchange/The Balloon Derby/Dummy Skeleton            B25050A1065607ECC                              
ID FAMCHA000801182357182407000010Generic ID - Ring around the rosie                                                                                                                             
PROFAMCHA000801182407182437000030Bedknobs & Broomsticks (AUG) - Sunday @ 10am                                                                                                                   
PRCFAMCHA000801182437182510000033Hoze Houndz - Next (oct 1)                                                                                                                                     
PROFAMCHA000801182510182540000030SFSJ Lee Event Promo - Sunday Aug 20 starting @ 6p                                                                                                             
PRCFAMCHA000801182540182628000048Ripley's BION - Saturday @ 11am (MAR)                                                                                                                          
PRCFAMCHA000801182628182658000030Funshine Tour - Contest - Watch Fridays @ 8pm                                                                                                                  
PROFAMCHA000801182658182758000100Fall Promos - Jett Jackson - This Fall                                                                                                                         
PROFAMCHA000801182758182828000030Z Games - Starting August 19th                                                                                                                                 
PROFAMCHA000801182828182858000030Generic Series Promo - Where the Fun Is                                                                                                                        
PROFAMCHA000801182858182928000030Innerspace (AUG6) - Sunday @ 8pm                                                                                                                               
PRCFAMCHA000801182928182939000011Morning Block menu background (flex time)                                                                                                                      
ID FAMCHA000801182939183000000021Prime time open count down                                                                                                                                     
PROFAMCHA000801183000183005000005CC Disclaimer (oct) **DO NOT USE**                                                                                                                             
PGRFAMCHA000801183005185241002236Hoze Houndz **FLAGGED FOR WTC**                   Hypnohoundz/Houndz in Space                                   B17125A1065607ECC                              
ID FAMCHA000801185241185251000010Generic ID - soccer **DO NOT USE**                                                                                                                             
PROFAMCHA000801185251185321000030Innerspace (AUG6) - Sunday @ 8pm                                                                                                                               
PROFAMCHA000801185321185403000042Gargoyles - Next (MAR)                                                                                                                                         
PRCFAMCHA000801185403185451000048Ripley's BION - Saturday @ 11am (MAR)                                                                                                                          
PGRFAMCHA000801185451185740000249MV Disney - Never alone (oct 1)                                                                                        60688130                                
ID FAMCHA000801185740185747000007URL(1) - WHAT'S ON                                                                                                                                             
PROFAMCHA000801185747185817000030SFSJ Vote Promo - Sunday Aug 20 starting @ 6pm                                                                                                                 
PROFAMCHA000801185817185909000052Great African Wildlife Rescue - Sunday at 2pm on F                                                                                                             
PROFAMCHA000801185909185939000030Bedknobs & Broomsticks (AUG) - Sunday @ 10am                                                                                                                   
ID FAMCHA000801185939190000000021Prime time open count down                                                                                                                                     
PGRFAMCHA000801190000192253002253Gargoyles                                         Vendettas                                                            6068607E                                
ID FAMCHA000801192253192303000010Generic ID - confetti                                                                                                                                          
PROFAMCHA000801192303192333000030Bedknobs & Broomsticks (AUG) - Sunday @ 10am                                                                                                                   
PRCFAMCHA000801192333192403000030Are You Afraid of the Dark(MAR)- Next                                                                                                                          
PROFAMCHA000801192403192433000030SFSJ Lee Event Promo - Sunday Aug 20 starting @ 6p                                                                                                             
PROFAMCHA000801192433192525000052Great African Wildlife Rescue - Sunday at 2pm on F                                                                                                             
PROFAMCHA000801192525192555000030Z Games - Starting August 19th                                                                                                                                 
PROFAMCHA000801192555192625000030Fall Promos - The Jersey - This Fall                                                                                                                           
PGRFAMCHA000801192625192836000211MV Disney - Right Back Where We Started From                                                                           60688130                                
PROFAMCHA000801192836192908000032Sherlock Holmes - Tonight @ midnight (oct)                                                                                                                     
PROFAMCHA000801192908192938000030Innerspace (AUG6) - Sunday @ 8pm                                                                                                                               
ID FAMCHA000801192938192959000021Prime time open count down                                                                                                                                     
PGRFAMCHA000801192959195422002423Are You Afraid Of The Dark?                       The Tale of the Dream Girl                                    SR0304 1066807A                                
ID FAMCHA000801195422195429000007Generic ID - Whisper                                                                                                                                           
PROFAMCHA000801195429195459000030Innerspace (AUG6) - Sunday @ 8pm                                                                                                                               
PROFAMCHA000801195459195529000030SFSJ Vote Promo - Sunday Aug 20 starting @ 6pm                                                                                                                 
PGRFAMCHA000801195529195902000333MV Disney - Reflection (oct 1)                                                                                         60688130                                
ID FAMCHA000801195902195909000007URL(1) - FUNSTUFF                                                                                                                                              
PROFAMCHA000801195909195939000030Bedknobs & Broomsticks (AUG) - Sunday @ 10am                                                                                                                   
ID FAMCHA000801195939200000000021Move open family size movie                                                                                                                                    
PROFAMCHA000801200000200007000007Rating - G (oct )                                                                                                                                              
PROFAMCHA000801200007200012000005CC Disclaimer (oct) **DO NOT USE**                                                                                                                             
ID FAMCHA000801200012200022000010Magic of Disney - V4 - ADULT FEMALE                                                                                                                            
PGRFAMCHA000801200022214344014322Cat From Outer Space; The                                                                                             A6068807DCC                              
ID FAMCHA000801214344214354000010Generic ID - Family w/dog                                                                                                                                      
PROFAMCHA000801214354214424000030SFSJ Vote Promo - Sunday Aug 20 starting @ 6pm                                                                                                                 
PROFAMCHA000801214424214439000015Disney's One Too - Weekdays @4:30 (Oct 1)                                                                                                                      
ID FAMCHA000801214439214500000021Move open family size movie                                                                                                                                    
PROFAMCHA000801214500214507000007Rating - G (oct )                                                                                                                                              
PROFAMCHA000801214507214512000005CC Disclaimer (oct) **DO NOT USE**                                                                                                                             
ID FAMCHA000801214512214522000010Magic of Disney - V4 - ADULT MALE                                                                                                                              
PGRFAMCHA000801214522231642013120Napoleon And Samantha                                                                                                 A6068807DCC                              
ID FAMCHA000801231642231647000005Generic ID - Bubbles                                                                                                                                           
PROFAMCHA000801231647231717000030Innerspace (AUG6) - Sunday @ 8pm                                                                                                                               
PROFAMCHA000801231717231727000010MV FAMJAM - Teaser (Generic)                                                                                                                                   
PROFAMCHA000801231727231757000030SFSJ Lee Event Promo - Sunday Aug 20 starting @ 6p                                                                                                             
PROFAMCHA000801231757231827000030Generic Series Promo - There's Always Something On                                                                                                             
PROFAMCHA000801231827231852000025Adventures of Pete & Pete - Saturday @ 10am                                                                                                                    
PGRFAMCHA000801231852232143000251MV - All The Small Things                                                                                             A20688080                                
PROFAMCHA000801232143232155000012Mentors - Version 3 - Sunday @ 6:30pm                                                                                                                          
PROFAMCHA000801232155232225000030SFSJ Vote Promo - Sunday Aug 20 starting @ 6pm                                                                                                                 
PROFAMCHA000801232225232235000010MV FAMJAM - Teaser (Generic)                                                                                                                                   
PROFAMCHA000801232235232315000040Fall Promos - 2 Hour Tour - This Fall                                                                                                                          
PGRFAMCHA00080123231523241500010060 Seconds of Science - Boiling Water (anywhere bu                                                                     60688130                                
PROFAMCHA000801232415232442000027Recess - Weekdays @ 5:30 pm (oct1)                                                                                                                             
PGRFAMCHA000801232442232829000347MV - Rhythm Divine                                                                                                    A20688080                                
PROFAMCHA000801232829232859000030Fall Promos - The Jersey - This Fall                                                                                                                           
PROFAMCHA000801232859232929000030Bedknobs & Broomsticks (AUG) - Sunday @ 10am                                                                                                                   
PRCFAMCHA000801232929232939000010Morning Block menu background (flex time)                                                                                                                      
ID FAMCHA000801232939233000000021Prime time open count down                                                                                                                                     
PROFAMCHA000801233000233005000005CC Disclaimer (oct) **DO NOT USE**                                                                                                                             
PGRFAMCHA000801233005235233002228Dinosaurs                                         Fran Live                                                            6068807BCC                              
ID FAMCHA000801235233235248000015Generic ID - confetti                                                                                                                                          
PROFAMCHA000801235248235318000030Bedknobs & Broomsticks (AUG) - Sunday @ 10am                                                                                                                   
PROFAMCHA000801235318235350000032Sherlock Holmes - Next (oct)                                                                                                                                   
PROFAMCHA000801235350235420000030SFSJ Lee Event Promo - Sunday Aug 20 starting @ 6p                                                                                                             
PROFAMCHA000801235420235450000030So Weird - Friday @ 7:00 pm (Oct 1)                                                                                                                            
PROFAMCHA000801235450235550000100Fall Promos - Jett Jackson - This Fall                                                                                                                         
PGRFAMCHA000801235550235750000200MV Disney - I'm Gonna Fly (oct)                                                                                        60688130                                
ID FAMCHA000801235750235757000007URL(1) - FUNSTUFF                                                                                                                                              
PROFAMCHA000801235757235827000030Z Games - Starting August 19th                                                                                                                                 
PROFAMCHA000801235827235909000042Gargoyles - Tuesday & Wednesday @ 7pm (MAR)                                                                                                                    
PROFAMCHA000801235909235939000030Innerspace (AUG6) - Sunday @ 8pm                                                                                                                               
ID FAMCHA000801235939000000000021Prime time open count down                                                                                                                                     
PROFAMCHA000801000000000005000005CC Disclaimer (oct) **DO NOT USE**                                                                                                                             
PGRFAMCHA000801000005002222002217Sherlock Holmes In The 22nd Century               1-021                                                                6068607ECC                              
ID FAMCHA000801002222002232000010Generic ID - confetti                                                                                                                                          
PROFAMCHA000801002232002302000030Innerspace (AUG6) - Sunday @ 8pm                                                                                                                               
PROFAMCHA000801002302002354000052Great African Wildlife Rescue - Sunday at 2pm on F                                                                                                             
PROFAMCHA000801002354002424000030SFSJ Vote Promo - Sunday Aug 20 starting @ 6pm                                                                                                                 
PGRFAMCHA000801002424002839000415MV Disney - You'll Be In My Heart (oct)                                                                                60688130                                
PRCFAMCHA000801002839002909000030Are You Afraid of the Dark(MAR)- Weeknights @ 7:30                                                                                                             
PROFAMCHA000801002909002939000030Bedknobs & Broomsticks (AUG) - Sunday @ 10am                                                                                                                   
ID FAMCHA000801002939003000000021Prime time open count down                                                                                                                                     
PGRFAMCHA000801003000005616002616Clarissa                                          Ferguson Explains it All                                             2068607B                                
ID FAMCHA000801005616005623000007Generic ID - Whisper                                                                                                                                           
PROFAMCHA000801005623005653000030Bedknobs & Broomsticks (AUG) - Sunday @ 10am                                                                                                                   
PROFAMCHA000801005653005723000030Innerspace (AUG6) - Sunday @ 8pm                                                                                                                               
PGRFAMCHA000801005723010200000437MV Disney - Go the distance (oct 1)                                                                                    60688130                                
SO FAMCHA000801010200010212000012Sign Off (oct 1)                                                                                                                                               
OFFFAMCHA000801010212043000032748                                                                                                                                                               
OFFFAMCHA000802043000060000013000                                                                                                                                                               
SO FAMCHA000802060000060011000011Sign On (oct 1)                                                                                                                                                
PROFAMCHA000802060011060016000005CC Disclaimer (oct) **DO NOT USE**                                                                                                                             
PGRFAMCHA000802060016062321002305Disney Presents Bill Nye the Science Guy          Amphibians                                                           60686110CC                              
ID FAMCHA000802062321062331000010Generic ID - Pink inner tube                                                                                                                                   
PRCFAMCHA000802062331062401000030Franklin - Weekdays @ 7:30am (MAR)                                                                                                                             
PROFAMCHA000802062401062506000105Adventures of Gummi Bears - Today @ 7am (MAR)                                                                                                                  
PGRFAMCHA000802062506062850000344Music Break - Mary-Kate And Ashley Olsen                                                                               60686130                                
PROFAMCHA000802062850062929000039Goof Troop - Today @ 3pm                                                                                                                                       
PRCFAMCHA000802062929062940000011Morning Block menu background (flex time)                                                                                                                      
ID FAMCHA000802062940063000000020Morning block open play pen                                                                                                                                    
PROFAMCHA000802063000063005000005CC Disclaimer (oct) **DO NOT USE**                                                                                                                             
PGRFAMCHA000802063005065415002410Busy World Of Richard Scarry; The                 Busytown Regatta/Schtoompah, The Funny Austrian               B10192 1065607ECC                              
ID FAMCHA000802065415065420000005Generic ID - Couch 1                                                                                                                                           
PROFAMCHA000802065420065505000045PB&J Otter - Mon, Wed & Fri @ 8:30am (oct 1)                                                                                                                   
PROFAMCHA000802065505065610000105Adventures of Gummi Bears - Next (MAR)                                                                                                                         
PGRFAMCHA000802065610065825000215Disney Moments - Bambi-Bambi Is Born                                                                                   60688130                                
PROFAMCHA000802065825065900000035Lion King's Timon & Pumbaa - wkdays @ noon (OCT 1)                                                                                                             
PROFAMCHA000802065900065939000039Goof Troop - Today @ 3pm                                                                                                                                       
PRCFAMCHA000802065939065950000011Morning Block menu background (flex time)                                                                                                                      
ID FAMCHA000802065950070000000010Magic of Disney - V4 - KID FEMALE                                                                                                                              
PROFAMCHA000802070000070005000005CC Disclaimer (oct) **DO NOT USE**                                                                                                                             
PGRFAMCHA000802070005072244002239Adventures of the Gummi Bears; The                The Knights Of Gummadoon                                             6068607E                                
ID FAMCHA000802072244072254000010Generic ID - soccer **DO NOT USE**                                                                                                                             
PROFAMCHA000802072254072333000039Goof Troop - Today @ 3pm                                                                                                                                       
PRCFAMCHA000802072333072403000030Franklin - Next (MAR)                                                                                                                                          
PROFAMCHA000802072403072458000055Generic Series Promo - Celebrate the Day w/Family                                                                                                              
PGRFAMCHA000802072458072822000324Art Attack - Astronaut                                                                                                 60686130                                
PRCFAMCHA000802072822072857000035Little Lulu Show; The - Tonight @ 6:00pm (oct1)                                                                                                                
PRCFAMCHA000802072857072930000033Hoze Houndz - Saturday @ 7:00pm                                                                                                                                
PRCFAMCHA000802072930072940000010Morning Block menu background (flex time)                                                                                                                      
ID FAMCHA000802072940073000000020Morning block open play pen                                                                                                                                    
PROFAMCHA000802073000073005000005CC Disclaimer (oct) **DO NOT USE**                                                                                                                             
PGRFAMCHA000802073005075258002253Franklin                                          Franklin's Test/Franklin & the Duckling                       B13652 1065607ECC                              
ID FAMCHA000802075258075308000010Generic ID - Family w/dog                                                                                                                                      
PRCFAMCHA000802075308075343000035Little Lulu Show; The - Tonight @ 6:00pm (oct1)                                                                                                                
PROFAMCHA000802075343075422000039Goof Troop - Today @ 3pm                                                                                                                                       
PGRFAMCHA000802075422075712000250Art Attack - Wizard                                                                                                    60686130                                
PRCFAMCHA000802075712075742000030Funshine Tour - Generic Event Promo                                                                                                                            
PRCFAMCHA000802075742075822000040Funshine Tour - Location Spot #2-3 (JUL31-AUG06)                                                                                                               
PRCFAMCHA000802075822075855000033Hoze Houndz - Saturday @ 7:00pm                                                                                                                                
PROFAMCHA000802075855075930000035Lion King's Timon & Pumbaa - wkdays @ noon (OCT 1)                                                                                                             
PRCFAMCHA000802075930075940000010Morning Block menu background (flex time)                                                                                                                      
ID FAMCHA000802075940080000000020Morning block open play pen                                                                                                                                    
PGRFAMCHA000802080000081953001953Art Attack                                        1-106                                                                60686110                                
ID FAMCHA000802081953082003000010Generic ID - Bubbles                                                                                                                                           
PROFAMCHA000802082003082030000027Recess - Today @ 5:30 pm (oct1)                                                                                                                                
PGRFAMCHA000802082030082659000629Richard Scarry - Hilda's Romantic Tea Party                                                                     P17878 10656130                                
PGRFAMCHA000802082659082825000126Mix Ups - Birthday Befuddle                                                                                            60688130                                
PROFAMCHA000802082825082900000035Lion King's Timon & Pumbaa - wkdays @ noon (OCT 1)                                                                                                             
PRCFAMCHA000802082900083000000100Morning Block-(MWF)- PB&J next/Babar/Katie                                                                                                                     
PROFAMCHA000802083000083005000005CC Disclaimer (oct) **DO NOT USE**                                                                                                                             
PGRFAMCHA000802083005085335002330PB&J Otter                                        Lost and Found/Sherlock Otter                                       A6068607ECC                              
ID FAMCHA000802085335085345000010Generic ID - soccer **DO NOT USE**                                                                                                                             
PROFAMCHA000802085345085400000015Doug - Today @ 5:00pm (oct1)                                                                                                                                   
PROFAMCHA000802085400085500000100Morning Block-(MWF)- Babar next/Katie/Billy                                                                                                                    
PROFAMCHA000802085500085505000005CC Disclaimer (oct) **DO NOT USE**                                                                                                                             
PGRFAMCHA000802085505091818002313Babar                                             A Charmed Life                                                C07575 1065607ECC                              
ID FAMCHA000802091818091823000005Generic ID - Couch 2                                                                                                                                           
PROFAMCHA000802091823091845000022Hercules - Today @ 4:30 pm (oct 1)                                                                                                                             
PROFAMCHA000802091845091900000015Doug - Today @ 5:00 pm (oct1)                                                                                                                                  
PROFAMCHA000802091900092000000100Morning Block-(MWF)- Katie next/Billy/Busy                                                                                                                     
PROFAMCHA000802092000092005000005CC Disclaimer (oct) **DO NOT USE**                                                                                                                             
PGRFAMCHA000802092005094640002635Katie And Orbie                                   The Umbrella/The Great Idea/Everybody Counts                  C11896 1065607ECC                              
ID FAMCHA000802094640094645000005Generic ID - Bubbles                                                                                                                                           
PROFAMCHA000802094645094700000015Disney's One Too - today @ 4:30 (Oct 1)                                                                                                                        
PROFAMCHA000802094700094800000100Morning Block-(MWF)- Billy next/Busy/Art Attack                                                                                                                
PROFAMCHA000802094800094805000005CC Disclaimer (oct) **DO NOT USE**                                                                                                                             
PGRFAMCHA000802094805101224002419Billy The Cat                                     The Big Meow                                                  B27643A1065607ECC                              
ID FAMCHA000802101224101231000007Generic ID - Whisper                                                                                                                                           
PROFAMCHA000802101231101248000017Hercules - Today @ 4:30 pm (Oct 1)                                                                                                                             
ID FAMCHA000802101248101300000012URL(1) - MINI SITES                                                                                                                                            
PROFAMCHA000802101300101400000100Morning Block-(MWF)- Busy next/Art Attack/Out of t                                                                                                             
PROFAMCHA000802101400101405000005CC Disclaimer (oct) **DO NOT USE**                                                                                                                             
PGRFAMCHA000802101405103815002410Busy World Of Richard Scarry; The                 The Big Story/Couscous                                        P19580 1065607ECC                              
ID FAMCHA000802103815103825000010Generic ID - Pink inner tube                                                                                                                                   
PRCFAMCHA000802103825103900000035Little Lulu Show; The - Tonight @ 6:00pm (oct1)                                                                                                                
PROFAMCHA000802103900104000000100Morning Block-(MWF)- Art Attack next/Out of the Bo                                                                                                             
PGRFAMCHA000802104000105507001507Art Attack                                        1-001                                                                60686110                                
ID FAMCHA000802105507105517000010Generic ID - Ring around the rosie                                                                                                                             
PROFAMCHA000802105517105547000030Pepper Ann - Starting August 14                                                                                                                                
PGRFAMCHA000802105547105821000234Art Attack - Shopping Cart                                                                                             60686130                                
PROFAMCHA000802105821105900000039Goof Troop - Today @ 3pm                                                                                                                                       
PROFAMCHA000802105900110000000100Morning Block-(MWF)- Out of the Box next/Space Cas                                                                                                             
PGRFAMCHA000802110000112205002205Out of the Box                                    Hands On                                                             60686110                                
ID FAMCHA000802112205112215000010Generic ID - soccer **DO NOT USE**                                                                                                                             
PROFAMCHA000802112215112245000030Innerspace (AUG6) - Sunday @ 8pm                                                                                                                               
PRCFAMCHA000802112245112320000035Little Lulu Show; The - Tonight @ 6:00pm (oct1)                                                                                                                
PGRFAMCHA000802112320112524000204Music Break - Little Mermaid: In Harmony                                                                               60688130                                
ID FAMCHA000802112524112533000009URL(1) - CONTESTS                                                                                                                                              
PROFAMCHA000802112533112600000027Recess - Today @ 5:30 pm (oct1)                                                                                                                                
PROFAMCHA000802112600112700000100Morning Block-(MWF)- Space Cases next                                                                                                                          
PROFAMCHA000802112700112705000005CC Disclaimer (oct) **DO NOT USE**                                                                                                                             
PGRFAMCHA000802112705115125002420Space Cases                                       The Sporting Kind                                             B22688 1165607BCC                              
ID FAMCHA000802115125115132000007Generic ID - Whisper                                                                                                                                           
PROFAMCHA000802115132115232000100Morning Block-(MWF)- Generic                                                                                                                                   
PROFAMCHA000802115232115302000030Bedknobs & Broomsticks (AUG) - Sunday @ 10am                                                                                                                   
PRCFAMCHA000802115302115332000030Funshine Tour - Generic Event Promo                                                                                                                            
PRCFAMCHA000802115332115412000040Funshine Tour - Location Spot #2-3 (JUL31-AUG06)                                                                                                               
PGRFAMCHA000802115412115810000358Music Break - Walt Disney Records: Haircut                                                                             60688130                                
PROFAMCHA000802115810115840000030Innerspace (AUG6) - Sunday @ 8pm                                                                                                                               
PROFAMCHA000802115840115940000100Afternoon Block - Lion King next/Flash Forward/Cla                                                                                                             
PRCFAMCHA000802115940115950000010Morning Block menu background (flex time)                                                                                                                      
ID FAMCHA000802115950120000000010Magic of Disney - V4 - KID MALE                                                                                                                                
PGRFAMCHA000802120000122246002246Lion King's Timon & Pumbaa; The                   Hot Enough For Ya?/Werhog of London                                  6068607E                                
ID FAMCHA000802122246122251000005Generic ID - Marbles                                                                                                                                           
PROFAMCHA000802122251122321000030Innerspace (AUG6) - Sunday @ 8pm                                                                                                                               
PROFAMCHA000802122321122400000039Goof Troop - Today @ 3pm                                                                                                                                       
PROFAMCHA000802122400122500000100Afternoon Block - Flash Forward next/Clarissa/Litt                                                                                                             
PROFAMCHA000802122500122505000005CC Disclaimer (oct) **DO NOT USE**                                                                                                                             
PGRFAMCHA000802122505124839002334Flash Forward                                     Scalpers                                                      A04580 1065607ACC                              
ID FAMCHA000802124839124844000005Generic ID - Bubbles                                                                                                                                           
PROFAMCHA000802124844124901000017Hercules - Today @ 4:30 pm (Oct 1)                                                                                                                             
PROFAMCHA000802124901125001000100Afternoon Block - Clarissa next/Little Lulu/Frankl                                                                                                             
PGRFAMCHA000802125001131403002402Clarissa                                          Dear Clarissa                                                        2068607B                                
ID FAMCHA000802131403131410000007Generic ID - Whisper                                                                                                                                           
PROFAMCHA000802131410131422000012Mentors - Version 3 - Sunday @ 6:30pm                                                                                                                          
PRCFAMCHA000802131422131452000030Funshine Tour - Contest - Watch Fridays @ 8pm                                                                                                                  
ID FAMCHA000802131452131500000008URL(1) - NEWSLETTER                                                                                                                                            
PROFAMCHA000802131500131600000100Afternoon Block - Little Lulu next/Franklin/Art At                                                                                                             
PROFAMCHA000802131600131605000005CC Disclaimer (oct) **DO NOT USE**                                                                                                                             
PGRFAMCHA000802131605133957002352Little Lulu Show; The                             Detective Story/Swan Shot Pops/The Old Master                 B03817A1065607ECC                              
ID FAMCHA000802133957134012000015Generic ID - confetti                                                                                                                                          
PROFAMCHA000802134012134042000030Innerspace (AUG6) - Sunday @ 8pm                                                                                                                               
PROFAMCHA000802134042134100000018Adventures of Pete & Pete - Saturday @ 10am                                                                                                                    
PROFAMCHA000802134100134200000100Afternoon Block - Franklin next/Art Attack/Darkwin                                                                                                             
PROFAMCHA000802134200134205000005CC Disclaimer (oct) **DO NOT USE**                                                                                                                             
PGRFAMCHA000802134205140458002253Franklin                                          Franklin the Fabulous/Franklin Camps Out                      P02772A1065607ECC                              
ID FAMCHA000802140458140503000005Generic ID - Fingerpaint                                                                                                                                       
PROFAMCHA000802140503140530000027Recess - Today @ 5:30 pm (oct1)                                                                                                                                
PRCFAMCHA000802140530140600000030Funshine Tour - Contest - Watch Fridays @ 8pm                                                                                                                  
PROFAMCHA000802140600140700000100Afternoon Block - Art Attack next/Darkwing Duck                                                                                                                
PGRFAMCHA000802140700142208001508Art Attack                                        1-002                                                                60686110                                
ID FAMCHA000802142208142218000010Generic ID - Ring around the rosie                                                                                                                             
PROFAMCHA000802142218142248000030Bedknobs & Broomsticks (AUG) - Sunday @ 10am                                                                                                                   
PROFAMCHA000802142248142318000030Pepper Ann - Starting August 14                                                                                                                                
PRCFAMCHA000802142318142348000030Funshine Tour - Contest - Watch Fridays @ 8pm                                                                                                                  
PGRFAMCHA000802142348142548000200MV Disney - I'm Gonna Fly (oct)                                                                                        60688130                                
PROFAMCHA000802142548142609000021Recess - Today @ 5:30 pm (oct1)                                                                                                                                
PROFAMCHA000802142609142639000030SFSJ Lee Event Promo - Sunday Aug 20 starting @ 6p                                                                                                             
PROFAMCHA000802142639142709000030SFSJ Vote Promo - Sunday Aug 20 starting @ 6pm                                                                                                                 
PROFAMCHA000802142709142739000030Bedknobs & Broomsticks (AUG) - Sunday @ 10am                                                                                                                   
PROFAMCHA000802142739142839000100Afternoon Block - Darkwing Duck next                                                                                                                           
PRCFAMCHA000802142839142850000011Morning Block menu background (flex time)                                                                                                                      
ID FAMCHA000802142850142900000010Magic of Disney - V4 - TEEN FEMALE                                                                                                                             
PROFAMCHA000802142900142905000005CC Disclaimer (oct) **DO NOT USE**                                                                                                                             
PGRFAMCHA000802142905145145002240Darkwing Duck                                     Trading Faces                                                        6068607ECC                              
ID FAMCHA000802145145145150000005Generic ID - Couch 2                                                                                                                                           
PROFAMCHA000802145150145250000100Afternoon Block - Generic                                                                                                                                      
PROFAMCHA000802145250145320000030Bedknobs & Broomsticks (AUG) - Sunday @ 10am                                                                                                                   
PROFAMCHA000802145320145350000030SFSJ Lee Event Promo - Sunday Aug 20 starting @ 6p                                                                                                             
PROFAMCHA000802145350145420000030SFSJ Vote Promo - Sunday Aug 20 starting @ 6pm                                                                                                                 
PGRFAMCHA000802145420145840000420MV Disney - Someday (oct 1)                                                                                            60688130                                
PRCFAMCHA000802145840145910000030Funshine Tour - Contest - Watch Fridays @ 8pm                                                                                                                  
PROFAMCHA000802145910145940000030Innerspace (AUG6) - Sunday @ 8pm                                                                                                                               
PRCFAMCHA000802145940145950000010Morning Block menu background (flex time)                                                                                                                      
ID FAMCHA000802145950150000000010Magic of Disney - V3(water) - TEEN MALE                                                                                                                        
PROFAMCHA000802150000150005000005CC Disclaimer (oct) **DO NOT USE**                                                                                                                             
PGRFAMCHA000802150005152246002241Goof Troop                                        Three Ring Bind                                                      6068607ECC                              
ID FAMCHA000802152246152251000005Generic ID - Couch 1                                                                                                                                           
PROFAMCHA000802152251152321000030Innerspace (AUG6) - Sunday @ 8pm                                                                                                                               
PROFAMCHA000802152321152356000035Lion King's Timon & Pumbaa - today @ 4:00pm (OCT 1                                                                                                             
PRCFAMCHA000802152356152426000030Funshine Tour - Generic Event Promo                                                                                                                            
PRCFAMCHA000802152426152506000040Funshine Tour - Location Spot #2-3 (JUL31-AUG06)                                                                                                               
PGRFAMCHA000802152506152705000159Disney Moments-Fun And Fancy Free-Jack And The Bea                                                                     60688130                                
PROFAMCHA000802152705152735000030SFSJ Lee Event Promo - Sunday Aug 20 starting @ 6p                                                                                                             
PROFAMCHA000802152735152805000030SFSJ Vote Promo - Sunday Aug 20 starting @ 6pm                                                                                                                 
PRCFAMCHA000802152805152840000035Little Lulu Show; The - Tonight @ 6:00pm (oct1)                                                                                                                
PRCFAMCHA000802152840152910000030Funshine Tour - Contest - Watch Fridays @ 8pm                                                                                                                  
PROFAMCHA000802152910152940000030Bedknobs & Broomsticks (AUG) - Sunday @ 10am                                                                                                                   
PRCFAMCHA000802152940152950000010Morning Block menu background (flex time)                                                                                                                      
ID FAMCHA000802152950153000000010Magic of Disney - V4 - TEEN FEMALE                                                                                                                             
PROFAMCHA000802153000153005000005CC Disclaimer (oct) **DO NOT USE**                                                                                                                             
PGRFAMCHA000802153005155242002237Disney's Aladdin                                  Beast Or Famine                                                      6068607ECC                              
ID FAMCHA000802155242155252000010Generic ID - Hula Hoop                                                                                                                                         
PROFAMCHA000802155252155322000030Innerspace (AUG6) - Sunday @ 8pm                                                                                                                               
PROFAMCHA000802155322155357000035Lion King's Timon & Pumbaa - next (OCT 1)                                                                                                                      
PROFAMCHA000802155357155436000039Goof Troop - Monday to Friday @ 3pm                                                                                                                            
PROFAMCHA000802155436155506000030SFSJ Lee Event Promo - Sunday Aug 20 starting @ 6p                                                                                                             
PROFAMCHA000802155506155536000030SFSJ Vote Promo - Sunday Aug 20 starting @ 6pm                                                                                                                 
PGRFAMCHA000802155536155710000134MV Disney - He's A Tramp (oct)                                                                                         60688130                                
PGRFAMCHA00080215571015581000010060 Seconds of Science - Black Light (anywhere but                                                                      60688130                                
PROFAMCHA000802155810155910000100Fall Promos - Jett Jackson - This Fall                                                                                                                         
PROFAMCHA000802155910155940000030Bedknobs & Broomsticks (AUG) - Sunday @ 10am                                                                                                                   
PRCFAMCHA000802155940155950000010Morning Block menu background (flex time)                                                                                                                      
ID FAMCHA000802155950160000000010Magic of Disney - V4 - TEEN MALE                                                                                                                               
PGRFAMCHA000802160000162251002251Lion King's Timon & Pumbaa; The                   Bigfoot Littlebrain/Astro-Nots                                       6068607E                                
ID FAMCHA000802162251162301000010Generic ID - Bubbles                                                                                                                                           
PROFAMCHA000802162301162331000030Innerspace (AUG6) - Sunday @ 8pm                                                                                                                               
PROFAMCHA000802162331162343000012Mentors - Version 3 - Sunday @ 6:30pm                                                                                                                          
