SO FAMCHA010201043000043011000011Sign On (oct 1)                                                                                                         06                                     
PROFAMCHA010201043011043016000005CC Disclaimer (oct) **DO NOT USE**                                                                                      06  150                                
PGRFAMCHA010201043016045416002400Hello Mrs. Cherrywinkle                           Hiccup-And-Down                                               B18880A1065607ACC                              
ID FAMCHA010201045416045426000010Generic ID - Bubbles                                                                                                    06  150                                
PROFAMCHA010201045426045440000014ALF (Dreams) - Today @ 12pm                                                                                             06  150                                
ID FAMCHA010201045440045500000020Morning block open play pen                                                                                             06  150                                
PROFAMCHA010201045500045505000005CC Disclaimer (oct) **DO NOT USE**                                                                                      06  150                                
PGRFAMCHA010201045505051915002410Busy World Of Richard Scarry; The                 Ambulance Cake                                                P19586 1065607ECC                              
ID FAMCHA010201051915051925000010Generic ID - Family w/dog                                                                                               06  150                                
PROFAMCHA010201051925051940000015Doug (MARCH2001) - Today @ 4pm                                                                                          06  150                                
ID FAMCHA010201051940052000000020Morning block open play pen                                                                                             06  150                                
PROFAMCHA010201052000052005000005CC Disclaimer (oct) **DO NOT USE**                                                                                      06  150                                
PGRFAMCHA010201052005054456002451Amazing Animals                                   Builders                                                             60686110CC                              
ID FAMCHA010201054456054506000010Generic ID - Family w/dog                                                                                               06  150                                
PRCFAMCHA010201054506054540000034Hoze Houndz (MARCH2001) - Weekends @ 7:00pm                                                                             06  150                                
ID FAMCHA010201054540054600000020Morning block open play pen                                                                                             06  150                                
PROFAMCHA010201054600054605000005CC Disclaimer (oct) **DO NOT USE**                                                                                      06  150                                
PGRFAMCHA010201054605061023002418Billy The Cat                                     The Great Purple Nothing                                      B27654A1065607ECC                              
ID FAMCHA010201061023061033000010Generic ID - confetti                                                                                                   06  150                                
ID FAMCHA010201061033061040000007URL(1) - FUNSTUFF                                                                                                       06  150                                
ID FAMCHA010201061040061100000020Morning block open play pen                                                                                             06  150                                
PROFAMCHA010201061100061105000005CC Disclaimer (oct) **DO NOT USE**                                                                                      06  150                                
PGRFAMCHA010201061105063435002330Little Lulu Show; The                             The Big Egg, The Little Girl Who Never Heard of Gh            A20185A1055607ECC3                             
ID FAMCHA010201063435063440000005Generic ID - Couch 1*                                                                                                   06  150                                
INTFAMCHA010201063440063540000100Richard Scarry (ii) Camping                                                                                     P19592 10656120                                
ID FAMCHA010201063540063600000020Morning block open play pen                                                                                             06  150                                
PROFAMCHA010201063600063605000005CC Disclaimer (oct) **DO NOT USE**                                                                                      06  150                                
PGRFAMCHA010201063605070005002400Big Garage; The                                   Rain, Rain, Go Away                                           P21471 1065607ECC                              
ID FAMCHA010201070005070010000005Generic ID - Couch 2*                                                                                                   06  150                                
PROFAMCHA010201070010070015000005CC Disclaimer (oct) **DO NOT USE**                                                                                      06  150                                
PGRFAMCHA010201070015072308002253Franklin                                          Franklin and the Grump/Franklin's Promise                     P02772A1065607ECC                              
ID FAMCHA010201072308072318000010Generic ID - Family w/dog                                                                                               06  150                                
PROFAMCHA010201072318072418000100Morning Block - Crunch - Today @ 9am                                                                                    06  150                                
PROFAMCHA010201072418072448000030New Adventures of WTP (MARCH2001) - Coming Up                                                                           06  150                                
INTFAMCHA010201072448072910000422MV Disney - True To Your Heart (98 DEGREES/STEVIE                                                                      60688120                                
PRCFAMCHA010201072910072940000030Franklin (MARCH2001) - Today @ 12:30pm                                                                                 106  150                                
PRCFAMCHA010201072940072950000010Morning Block menu background (flex time)                                                                               06  150                                
ID FAMCHA010201072950073000000010xxMagic of Disney - V2(sky) - KID FEMALE                                                                                06  150                                
PROFAMCHA010201073000073005000005CC Disclaimer (oct) **DO NOT USE**                                                                                      06  150                                
PGRFAMCHA010201073005075324002319New Adventures of Winnie the Pooh; The            Rabbit Marks The Spot/Good-Bye Mr.Pooh                               6068607ECC                              
ID FAMCHA010201075324075329000005Generic ID - Fingerpaint                                                                                                06  150                                
PRCFAMCHA010201075329075404000035Little Lulu (AUG2000) - Tonight @ 6pm                                                                                  106  150                                
INTFAMCHA010201075404075838000434MV Disney - A Dream Is A Wish Your Heart Makes (LI                                                                     60688120                                
PRCFAMCHA010201075838075914000036Goof Troop (MARCH2001) - Weekends @ 4pm                                                                                 06  150                                
PROFAMCHA010201075914075929000015Doug (MARCH2001) - Today @ 4pm                                                                                          06  150                                
PRCFAMCHA010201075929075940000011Morning Block menu background (flex time)                                                                               06  150                                
ID FAMCHA010201075940080000000020Morning block open play pen                                                                                             06  150                                
PGRFAMCHA010201080000081958001958Art Attack                                        1-051                                                                60686110                                
ID FAMCHA010201081958082008000010Generic ID - Hula Hoop                                                                                                  06  150                                
PROFAMCHA010201082008082108000100Morning Block - Crunch - Today @ 9am                                                                                    06  150                                
PGRFAMCHA010201082108082738000630Richard Scarry (ii) Clean Garage                                                                                P19585 10656150                                
PROFAMCHA010201082738082753000015Doug (MARCH2001) - Today @ 4pm                                                                                          06  150                                
INTFAMCHA010201082753082917000124Bill Nye - R.E.C.Y.C.L.E                                                                                               60688120                                
PROFAMCHA010201082917082941000024ALF - Today @ Noon                                                                                                      06  150                                
PRCFAMCHA010201082941082950000009Morning Block menu background (flex time)                                                                               06  150                                
ID FAMCHA010201082950083000000010xxMagic of Disney - V2(sky) - KID MALE                                                                                  06  150                                
PROFAMCHA010201083000083005000005CC Disclaimer (oct) **DO NOT USE**                                                                                      06  150                                
PGRFAMCHA010201083005085313002308Disney Presents Bill Nye the Science Guy          Rivers and Streams                                                   60686110CC                              
ID FAMCHA010201085313085318000005Generic ID - Marbles                                                                                                    06  150                                
PROFAMCHA010201085318085403000045PB&J Otter (MARCH2001) - Coming Up                                                                                     206  150                                
PROFAMCHA010201085403085419000016ALF (Description) - Today @ 12pm                                                                                        06  150                                
INTFAMCHA010201085419085830000411Art Attack - Scuba Divers                                                                                              60686120                                
PRCFAMCHA010201085830085900000030Franklin (MARCH2001) - Today @ 12:30pm                                                                                 106  150                                
PROFAMCHA010201085900090000000100Morning Block - Crunch - PB&J/BUSY/MADLEINE                                                                             06  150                                
PROFAMCHA010201090000090005000005CC Disclaimer (oct) **DO NOT USE**                                                                                      06  150                                
PGRFAMCHA010201090005092335002330PB&J Otter                                        Soccer Surprise/Baking Blues                                        A6068607ECC                              
ID FAMCHA010201092335092345000010Generic ID - Pink inner tube                                                                                            06  150                                
PROFAMCHA010201092345092400000015Doug (MARCH2001) - Today @ 4pm                                                                                          06  150                                
PROFAMCHA010201092400092500000100Morning Block - Crunch - BUSY/MADELINE/OOTB                                                                             06  150                                
PROFAMCHA010201092500092505000005CC Disclaimer (oct) **DO NOT USE**                                                                                      06  150                                
PGRFAMCHA010201092505094915002410Busy World Of Richard Scarry; The                 Sgt. Murphy's Deputy                                          P19587 1065607ECC                              
ID FAMCHA010201094915094925000010Generic ID - Ring around the rosie                                                                                      06  150                                
PRCFAMCHA010201094925094955000030Madeline (AUG2000) - Coming Up                                                                                         106  150                                
PRCFAMCHA010201094955095025000030Franklin (MARCH2001) - Today @ 12:30pm                                                                                 106  150                                
INTFAMCHA010201095025095145000120Bill Nye - Whether the Weather                                                                                         60688120                                
PROFAMCHA010201095145095200000015Doug (MARCH2001) - Today @ 4pm                                                                                          06  150                                
PROFAMCHA010201095200095300000100Morning Block - Crunch - MADELINE/OOTB/BILLY                                                                            06  150                                
PROFAMCHA010201095300095305000005CC Disclaimer (oct) **DO NOT USE**                                                                                      06  150                                
PGRFAMCHA010201095305101552002247Madeline                                          Madeline and the Big Cheese                                          6068607ECC                              
ID FAMCHA010201101552101602000010Generic ID - soccer **DO NOT USE**                                                                                      06  150                                
PRCFAMCHA010201101602101632000030Out of the Box (AUG2000) - Coming Up                                                                                   106  150                                
PROFAMCHA010201101632101646000014ALF (Dreams) - Today @ 12pm                                                                                             06  150                                
ID FAMCHA010201101646101700000014Web Blast - Female                                                                                                      06  150                                
PROFAMCHA010201101700101800000100Morning Block - Crunch - OOTB/BILLY/GOOF                                                                                06  150                                
PGRFAMCHA010201101800104005002205Out of the Box                                    Tall and Small                                                       60686110                                
ID FAMCHA010201104005104010000005Generic ID - soccer **DO NOT USE**                                                                                      06  150                                
PROFAMCHA010201104010104025000015Doug (MARCH2001) - Today @ 4pm                                                                                          06  150                                
INTFAMCHA010201104025104129000104Bill Nye - Let's Talk About Stress                                                                                     60688120                                
PROFAMCHA010201104129104159000030Pepper Ann (MARCH2001) - Today @ 4:30pm                                                                                 06  150                                
PROFAMCHA010201104159104259000100Morning Block - Crunch - BILLY/GOOF/ALADDIN                                                                             06  150                                
PROFAMCHA010201104259104304000005CC Disclaimer (oct) **DO NOT USE**                                                                                      06  150                                
PGRFAMCHA010201104304110724002420Billy The Cat                                     Born To Be A Wildcat                                          B27655A1065607ECC                              
ID FAMCHA010201110724110731000007Generic ID - Whisper*                                                                                                   06  150                                
PRCFAMCHA010201110731110807000036Goof Troop (MARCH2001) - Coming Up                                                                                      06  150                                
PROFAMCHA010201110807110837000030Pepper Ann (MARCH2001) - Today @ 4:30pm                                                                                 06  150                                
PROFAMCHA010201110837110850000013Buzz Lightyear (DISNEY'S ONE TOO) - Today @ 5:30pm                                                                      06  150                                
PROFAMCHA010201110850110950000100Morning Block - Crunch - GOOF/ALADDIN/RECAP                                                                             06  150                                
ID FAMCHA010201110950111000000010xxMagic of Disney - V3(water) - KID FEMALE                                                                              06  150                                
PROFAMCHA010201111000111005000005CC Disclaimer (oct) **DO NOT USE**                                                                                      06  150                                
PGRFAMCHA010201111005113252002247Goof Troop                                        For Pete's Sake                                                     A6068607ECC                              
ID FAMCHA010201113252113302000010Generic ID - Bubbles                                                                                                    06  150                                
PROFAMCHA010201113302113323000021Buzz Lightyear (DISNEY'S ONE TOO) - Today @ 5:30pm                                                                      06  150                                
PROFAMCHA010201113323113350000027Recess (MARCH2001) - Today @ 5pm                                                                                        06  150                                
PROFAMCHA010201113350113450000100Morning Block - Crunch - ALADDIN/RECAP                                                                                  06  150                                
ID FAMCHA010201113450113500000010xxMagic of Disney - V3(water) - KID MALE                                                                                06  150                                
PROFAMCHA010201113500113505000005CC Disclaimer (oct) **DO NOT USE**                                                                                      06  150                                
PGRFAMCHA010201113505115746002241Disney's Aladdin                                  Power To The Parrot                                                  6068607ECC                              
ID FAMCHA010201115746115751000005Generic ID - Bubbles*                                                                                                   06  150                                
PROFAMCHA010201115751115851000100Morning Block - Crunch - RECAP - REBOUND COMING UP                                                                      06  150                                
PROFAMCHA010201115851115905000014ALF (Dreams) - Coming Up                                                                                                06  150                                
PRCFAMCHA010201115905115945000040Famous Jett Jackson - Weekends @ 9:30am                                                                                106  150                                
ID FAMCHA010201115945120000000015Afternoon block pinball open **DO NOT USE**                                                                             06  150                                
PROFAMCHA010201120000120005000005CC Disclaimer (oct) **DO NOT USE**                                                                                      06  150                                
PGRFAMCHA010201120005122133002128ALF                                               Weird Science                                                       A2068807BCC                              
ID FAMCHA010201122133122148000015Generic ID - confetti                                                                                                   06  150                                
PROFAMCHA010201122148122223000035Breakfast With Einstein (FEB3) - Saturday @ 9pm                                                                         06  150                                
PRCFAMCHA010201122223122253000030Franklin (MARCH2001) - Coming Up                                                                                       106  150                                
PRCFAMCHA010201122253122338000045No Boundaries Contest (FEB04) - Sunday @ 12pm                                                                          106  150                                
PROFAMCHA010201122338122438000100Afternoon Block - Rebound - Today @ 1pm                                                                                 06  150                                
INTFAMCHA010201122438122831000353Art Attack - Kids In Snow (WINTER)                                                                                     60686120                                
PRCFAMCHA010201122831122906000035Little Lulu (AUG2000) - Tonight @ 6pm                                                                                  106  150                                
PROFAMCHA010201122906122935000029Wizard of Oz - Sunday @ 1:35pm                                                                                          06  150                                
PRCFAMCHA010201122935122945000010Morning Block menu background (flex time)                                                                               06  150                                
ID FAMCHA010201122945123000000015Afternoon block pinball open **DO NOT USE**                                                                             06  150                                
PROFAMCHA010201123000123005000005CC Disclaimer (oct) **DO NOT USE**                                                                                      06  150                                
PGRFAMCHA010201123005125258002253Franklin                                          Franklin and the Trooper/Franklin's Fossil                    P02772A1065607ECC                              
ID FAMCHA010201125258125303000005Generic ID - Fingerpaint                                                                                                06  150                                
PROFAMCHA010201125303125332000029Wizard of Oz - Sunday @ 1:35pm                                                                                          06  150                                
PROFAMCHA010201125332125417000045PB&J Otter (MARCH2001) - Coming Up                                                                                     206  150                                
PRCFAMCHA010201125417125452000035Little Lulu (AUG2000) - Tonight @ 6pm                                                                                  106  150                                
INTFAMCHA010201125452125748000256MV Disney - Strangers Like Me (PHIL COLLINS)                                                                           60688120                                
PROFAMCHA010201125748125755000007MV Web Throw - family.ca                                                                                               606 5150                                
PROFAMCHA010201125755125825000030Lion King (AUG2000) - Tonight @ 6:30pm                                                                                 206  150                                
PROFAMCHA010201125825125900000035Breakfast With Einstein (FEB3) - Saturday @ 9pm                                                                         06  150                                
PROFAMCHA010201125900130000000100Afternoon Block - Rebound - PB&J/BUSY/MADELINE                                                                          06  150                                
PROFAMCHA010201130000130005000005CC Disclaimer (oct) **DO NOT USE**                                                                                      06  150                                
PGRFAMCHA010201130005132335002330PB&J Otter                                        Giggle Melon                                                        A6068607ECC                              
ID FAMCHA010201132335132340000005Generic ID - Couch 1*                                                                                                   06  150                                
PROFAMCHA010201132340132401000021Buzz Lightyear (DISNEY'S ONE TOO) - Today @ 5:30pm                                                                      06  150                                
PROFAMCHA010201132401132501000100Afternoon Block - Rebound - BUSY/MADELINE/OOTB                                                                          06  150                                
PROFAMCHA010201132501132506000005CC Disclaimer (oct) **DO NOT USE**                                                                                      06  150                                
PGRFAMCHA010201132506134916002410Busy World Of Richard Scarry; The                 Biggest Storm Ever                                            P19588 1065607ECC                              
ID FAMCHA010201134916134921000005Generic ID - Couch 2*                                                                                                   06  150                                
PROFAMCHA010201134921134956000035Breakfast With Einstein (FEB3) - Saturday @ 9pm                                                                         06  150                                
PRCFAMCHA010201134956135026000030Madeline (AUG2000) - Coming Up                                                                                         106  150                                
PRCFAMCHA010201135026135101000035Little Lulu (AUG2000) - Tonight @ 6pm                                                                                  106  150                                
PROFAMCHA010201135101135131000030Lion King (AUG2000) - Tonight @ 6:30pm                                                                                 206  150                                
PROFAMCHA010201135131135200000029Wizard of Oz - Sunday @ 1:35pm                                                                                          06  150                                
PROFAMCHA010201135200135300000100Afternoon Block - Rebound - MADELINE/OOTB/BILLY                                                                         06  150                                
PROFAMCHA010201135300135305000005CC Disclaimer (oct) **DO NOT USE**                                                                                      06  150                                
PGRFAMCHA010201135305141549002244Madeline                                          Madeline and the Science Project                                     6068607ECC                              
ID FAMCHA010201141549141554000005Generic ID - Marbles                                                                                                    06  150                                
PRCFAMCHA010201141554141624000030Out of the Box (AUG2000) - Coming Up                                                                                   106  150                                
PROFAMCHA010201141624141631000007MV Web Throw - music@family.ca                                                                                         606 5150                                
PROFAMCHA010201141631141700000029Wizard of Oz - Sunday @ 1:35pm                                                                                          06  150                                
PROFAMCHA010201141700141800000100Afternoon Block - Rebound - OOTB/BILLY/GOOF                                                                             06  150                                
PGRFAMCHA010201141800144050002250Out of the Box                                    Day at the Beach                                                     60686110                                
ID FAMCHA010201144050144057000007Generic ID - Whisper*                                                                                                   06  150                                
PROFAMCHA010201144057144132000035Breakfast With Einstein (FEB3) - Saturday @ 9pm                                                                         06  150                                
PROFAMCHA010201144132144201000029Wizard of Oz - Sunday @ 1:35pm                                                                                          06  150                                
PROFAMCHA010201144201144301000100Afternoon Block - Rebound - BILLY/GOOF/ALADDIN                                                                          06  150                                
PROFAMCHA010201144301144306000005CC Disclaimer (oct) **DO NOT USE**                                                                                      06  150                                
PGRFAMCHA010201144306150730002424Billy The Cat                                     Monkey Business                                               B27656A1065607ECC                              
ID FAMCHA010201150730150740000010Generic ID - Hula Hoop                                                                                                  06  150                                
PRCFAMCHA010201150740150816000036Goof Troop (MARCH2001) - Coming Up                                                                                      06  150                                
PRCFAMCHA010201150816150851000035Little Lulu (AUG2000) - Tonight @ 6pm                                                                                  106  150                                
PROFAMCHA010201150851150951000100Afternoon Block - Rebound - GOOF/ALADDIN/RECAP                                                                          06  150                                
ID FAMCHA010201150951151001000010xxMagic of Disney - V4 - TEEN FEMALE                                                                                    06  150                                
PROFAMCHA010201151001151006000005CC Disclaimer (oct) **DO NOT USE**                                                                                      06  150                                
PGRFAMCHA010201151006153252002246Goof Troop                                        Big City Blues                                                      A6068607ECC                              
ID FAMCHA010201153252153259000007Generic ID - Whisper*                                                                                                   06  150                                
PROFAMCHA010201153259153359000100Afternoon Block - Rebound - ALADDIN/RECAP                                                                               06  150                                
PROFAMCHA010201153359153434000035Breakfast With Einstein (FEB3) - Saturday @ 9pm                                                                         06  150                                
PROFAMCHA010201153434153452000018Mickey Mouseworks - Weekends @ 4:30pm                                                                                   06  150                                
ID FAMCHA010201153452153502000010xxMagic of Disney - V4 - TEEN MALE                                                                                      06  150                                
PROFAMCHA010201153502153507000005CC Disclaimer (oct) **DO NOT USE**                                                                                      06  150                                
PGRFAMCHA010201153507155744002237Disney's Aladdin                                  Smells Like Trouble                                                  6068607ECC                              
ID FAMCHA010201155744155754000010Generic ID - Pink inner tube                                                                                            06  150                                
PROFAMCHA010201155754155854000100Afternoon Block - Rebound - RECAP                                                                                       06  150                                
PRCFAMCHA010201155854155952000058Recess Vote (FEB16) - Today @ 5pm                                                                                      102  150                                
ID FAMCHA010201155952160002000010xxMagic of Disney - V2(sky) - TEEN FEMALE                                                                               06  150                                
PROFAMCHA010201160002160032000030Disney's One Too - Opening                                                                                              06  150                                
PGRFAMCHA010201160032162301002229Disney's Doug                                     Doug and the Bluffington Five                                        6068607E                                
ID FAMCHA010201162301162316000015Generic ID - confetti                                                                                                   06  150                                
PROFAMCHA010201162316162351000035Breakfast With Einstein (FEB3) - Saturday @ 9pm                                                                         06  150                                
PRCFAMCHA010201162351162436000045No Boundaries Contest (FEB04) - Sunday @ 12pm                                                                          106  150                                
INTFAMCHA010201162436162449000013Toy Story Treats - Checker King                                                                                        60686120                                
INTFAMCHA010201162449162756000307MV Disney - Part Of Your World (JODI BENSON)                                                                           60688120                                
INTFAMCHA010201162756162809000013Toy Story Treats - Flip Flop                                                                                           60686120                                
PRCFAMCHA010201162809162907000058Recess Vote (FEB16) - Today @ 5pm                                                                                      106  150                                
PROFAMCHA010201162907162936000029Wizard of Oz - Sunday @ 1:35pm                                                                                          06  150                                
PRCFAMCHA010201162936162945000009Morning Block menu background (flex time)                                                                               06  150                                
ID FAMCHA010201162945163000000015Afternoon block pinball open **DO NOT USE**                                                                             06  150                                
PROFAMCHA010201163000163030000030Disney's One Too - Opening                                                                                              06  150                                
PROFAMCHA010201163030163035000005CC Disclaimer (oct) **DO NOT USE**                                                                                      06  150                                
PGRFAMCHA010201163035165306002231Disney's Pepper Ann                               You Oughta Be In Musicals                                            6068607ECC                              
ID FAMCHA010201165306165316000010Generic ID - soccer **DO NOT USE**                                                                                      06  150                                
PROFAMCHA010201165316165345000029Wizard of Oz - Sunday @ 1:35pm                                                                                          06  150                                
PRCFAMCHA010201165345165443000058Recess Vote (FEB16) - Coming Up                                                                                        102  150                                
PROFAMCHA010201165443165513000030Jersey - Saturday @ 8pm                                                                                                 06  150                                
INTFAMCHA010201165513165534000021Recess Sketches - Gretchen's Inventions - Apple Tr                                                                     60686120                                
INTFAMCHA010201165534165656000122Disney Dinner Time(03)- Tecumseh (D12 only)                                                                            60686120                                
INTFAMCHA010201165656165717000021Recess Sketches - Kindergartner's Surprise - Time                                                                      60686120                                
INTFAMCHA010201165717165849000132Disney Magic Shop(07)- Dividing Dime (D12 only)                                                                        60686120                                
INTFAMCHA010201165849165910000021Recess Sketches - The Word - Be Cool                                                                                   60686120                                
PROFAMCHA010201165910165945000035Breakfast With Einstein (FEB3) - Saturday @ 9pm                                                                         06  150                                
ID FAMCHA010201165945170000000015Afternoon block pinball open **DO NOT USE**                                                                             06  150                                
PROFAMCHA010201170000170030000030Disney's One Too - Opening                                                                                              06  150                                
PGRFAMCHA010201170030172304002234Disney's Recess                                   My Fair Gretchen/Speedy, We Hardly Knew Ya                           6068607E                                
ID FAMCHA010201172304172309000005Generic ID - soccer **DO NOT USE**                                                                                      06  150                                
PROFAMCHA010201172309172344000035Breakfast With Einstein (FEB3) - Saturday @ 9pm                                                                         06  150                                
PROFAMCHA010201172344172357000013Buzz Lightyear (DISNEY'S ONE TOO) - Coming Up                                                                           02  150                                
PRCFAMCHA010201172357172442000045No Boundaries Contest (FEB04) - Sunday @ 12pm                                                                          106  150                                
INTFAMCHA010201172442172515000033Toy Story Treats - New Improved Buzz                                                                                   60686120                                
INTFAMCHA010201172515172708000153Disney Magic Shop(15)- Quirky Quarter (D12 only)                                                                       60686120                                
INTFAMCHA010201172708172721000013Toy Story Treats - Art Class                                                                                           60686120                                
PRCFAMCHA010201172721172819000058Recess Vote (FEB16) - Weekdays @ 5pm                                                                                   102  150                                
INTFAMCHA010201172819172852000033Toy Story Treats - Shell Game                                                                                          60686120                                
PROFAMCHA010201172852172916000024ALF - Tonight @ 7:30pm                                                                                                  06  150                                
PROFAMCHA010201172916172945000029Wizard of Oz - Sunday @ 1:35pm                                                                                          06  150                                
ID FAMCHA010201172945173000000015Afternoon block pinball open **DO NOT USE**                                                                             06  150                                
PROFAMCHA010201173000173030000030Disney's One Too - Opening                                                                                              06  150                                
PROFAMCHA010201173030173035000005CC Disclaimer (oct) **DO NOT USE**                                                                                      06  150                                
PGRFAMCHA010201173035175316002241Disney/Pixar's Buzz Lightyear of Star Command     Strange Invasion                                                     6068607ECC                              
ID FAMCHA010201175316175321000005Generic ID - Marbles                                                                                                    06  150                                
PROFAMCHA010201175321175350000029Wizard of Oz - Sunday @ 1:35pm                                                                                          06  150                                
PRCFAMCHA010201175350175425000035Little Lulu (AUG2000) - Coming Up                                                                                      106  150                                
PROFAMCHA010201175425175455000030Lion King (AUG2000) - Tonight @ 6:30pm                                                                                 206  150                                
INTFAMCHA010201175455175829000334MV Disney - Forever And Ever (KATHIE LEE GIFFORD)                                                                      60688120                                
ID FAMCHA010201175829175846000017Web Fun Stuff - Male                                                                                                    06  150                                
PROFAMCHA010201175846175910000024ALF - Tonight @ 7:30pm                                                                                                  06  150                                
PROFAMCHA010201175910175945000035Breakfast With Einstein (FEB3) - Saturday @ 9pm                                                                         06  150                                
ID FAMCHA010201175945180000000015Afternoon block pinball open **DO NOT USE**                                                                             06  150                                
PROFAMCHA010201180000180005000005CC Disclaimer (oct) **DO NOT USE**                                                                                      06  150                                
PGRFAMCHA010201180005182339002334Little Lulu Show; The                             Castaway Kids, Wrestling Away, Never Too Late                 A20207A1055607ECC3                             
ID FAMCHA010201182339182349000010Generic ID - Bubbles                                                                                                    06  150                                
PROFAMCHA010201182349182424000035Breakfast With Einstein (FEB3) - Saturday @ 9pm                                                                         06  150                                
PROFAMCHA010201182424182454000030Lion King (MARCH2001) - Coming Up                                                                                      206  150                                
PROFAMCHA010201182454182508000014ALF (Dreams) - Tonight @ 7:30pm                                                                                         06  150                                
INTFAMCHA010201182508182841000333MV Disney - Reflection (CHRISTINA AGUILERA)                                                                            60688120                                
ID FAMCHA010201182841182853000012Web Rant - Never Believe                                                                                                06  150                                
PROFAMCHA010201182853182921000028Honey (MARCH2001) - Tonight @ 8pm                                                                                       06  150                                
PROFAMCHA010201182921182950000029Wizard of Oz - Sunday @ 1:35pm                                                                                          06  150                                
ID FAMCHA010201182950183000000010xxMagic of Disney - V3(water) - TEEN MALE                                                                               06  150                                
PGRFAMCHA010201183000185245002245Lion King's Timon & Pumbaa; The                   Space Ham/You Bet Your Tuhkus                                        6068607E                                
ID FAMCHA010201185245185250000005Generic ID - Bubbles*                                                                                                   06  150                                
PROFAMCHA010201185250185330000040Driving Miss Daisy (FEB02) - Tomorrow @ 9pm                                                                             02  150                                
PROFAMCHA010201185330185358000028Honey (MARCH2001) - Tonight @ 8pm                                                                                       06  150                                
INTFAMCHA010201185358185835000437MV Disney - Go The Distance (MICHAEL BOLTON)                                                                           60688120                                
PRCFAMCHA010201185835185905000030In A Heartbeat - Sunday @ 8:30pm                                                                                       102  150                                
PROFAMCHA010201185905185940000035Breakfast With Einstein (FEB3) - Saturday @ 9pm                                                                         06  150                                
PRCFAMCHA010201185940185950000010Morning Block menu background (flex time)                                                                               06  150                                
ID FAMCHA010201185950190000000010xxMagic of Disney - V2(sky) - ADULT FEMALE                                                                              06  150                                
PROFAMCHA010201190000190005000005CC Disclaimer (oct) **DO NOT USE**                                                                                      06  150                                
PGRFAMCHA010201190005192235002230Movie Surfers Go Inside Disney's Dinosaur                                                                             A60688110CC                              
ID FAMCHA010201192235192245000010Generic ID - Family w/dog                                                                                               06  150                                
PROFAMCHA010201192245192320000035Breakfast With Einstein (FEB3) - Saturday @ 9pm                                                                         06  150                                
PROFAMCHA010201192320192336000016ALF (Description) - Coming Up                                                                                           06  150                                
PRCFAMCHA010201192336192421000045No Boundaries Contest (FEB04) - Sunday @ 12pm                                                                          106  150                                
PRCFAMCHA010201192421192451000030In A Heartbeat - Sunday @ 8:30pm                                                                                       106  150                                
INTFAMCHA010201192451192822000331MV Disney - Baby Mine (ALISON KRAUSS)                                                                                  60688120                                
PROFAMCHA010201192822192850000028Honey (MARCH2001) - Tonight @ 8pm                                                                                       06  150                                
PROFAMCHA010201192850192930000040Driving Miss Daisy (FEB02) - Tomorrow @ 9pm                                                                             06  150                                
PRCFAMCHA010201192930192939000009Morning Block menu background (flex time)                                                                               06  150                                
ID FAMCHA010201192939193000000021Prime time open count down                                                                                              06  150                                
PROFAMCHA010201193000193005000005CC Disclaimer (oct) **DO NOT USE**                                                                                      06  150                                
PGRFAMCHA010201193005195133002128ALF                                                                                                                   A2068807BCC                              
ID FAMCHA010201195133195143000010Generic ID - confetti                                                                                                   06  150                                
PROFAMCHA010201195143195223000040Driving Miss Daisy (FEB02) - Tomorrow @ 9pm                                                                             06  150                                
PROFAMCHA010201195223195251000028Honey (MARCH2001) - Coming Up                                                                                           06  150                                
PRCFAMCHA010201195251195336000045No Boundaries Contest (FEB04) - Sunday @ 12pm                                                                          106  150                                
PRCFAMCHA010201195336195406000030In A Heartbeat - Sunday @ 8:30pm                                                                                       106  150                                
INTFAMCHA010201195406195832000426MV Disney - Love Will Find A Way (KENNY LATIMORE/H                                                                     60688120                                
PROFAMCHA010201195832195905000033So Weird (CARNIVAL) - Sunday @ 8pm                                                                                      06  150                                
PROFAMCHA010201195905195940000035Breakfast With Einstein (FEB3) - Saturday @ 9pm                                                                         06  150                                
PRCFAMCHA010201195940195950000010Morning Block menu background (flex time)                                                                               06  150                                
ID FAMCHA010201195950200000000010xxMagic of Disney - V2(sky) - ADULT MALE                                                                                06  150                                
PGRFAMCHA010201200000204256004256Disney's Honey, I Shrunk The Kids: The TV Show    You're So Transparent                                                6068807B                                
ID FAMCHA010201204256204301000005Generic ID - Couch 1*                                                                                                   06  150                                
PROFAMCHA010201204301204336000035Breakfast With Einstein (FEB3) - Saturday @ 9pm                                                                         06  150                                
PROFAMCHA010201204336204346000010MV FAMJAM - Teaser (Generic)                                                                                           606 5150                                
PRCFAMCHA010201204346204431000045No Boundaries Contest (FEB04) - Sunday @ 12pm                                                                          106  150                                
INTFAMCHA010201204431204814000343MV - Walk Me Home                                                                                                     A20688120                                
PROFAMCHA010201204814204824000010MV Web Throw - music@family.ca                                                                                         606 5150                                
PRCFAMCHA010201204824204854000030In A Heartbeat - Sunday @ 8:30pm                                                                                       106  150                                
PGRFAMCHA010201204854205849000955Mpt-Donalds Dog Laundry                                                                                                60688150                                
PROFAMCHA010201205849205929000040Driving Miss Daisy (FEB02) - Tomorrow @ 9pm                                                                             06  150                                
PRCFAMCHA010201205929205939000010Morning Block menu background (flex time)                                                                               06  150                                
ID FAMCHA010201205939210000000021Move open family size movie                                                                                             06  150                                
PROFAMCHA010201210000210007000007Rating - PG (oct)                                                                                                       06  150                                
PGRFAMCHA010201210007223131013124Mr. Destiny                                                                                                           B6068807D                                
ID FAMCHA010201223131223136000005Generic ID - Couch 2*                                                                                                   06  150                                
ID FAMCHA010201223136223157000021Move open family size movie                                                                                             06  150                                
PROFAMCHA010201223157223204000007Rating - PG (oct)                                                                                                       06  150                                
ID FAMCHA010201223204223214000010xxMagic of Disney - V3(water) - ADULT FEMALE                                                                            06  150                                
PGRFAMCHA010201223214000415013201World's Greatest Athlete; The                                                                                         B6068807D                                
ID FAMCHA010201000415000425000010Generic ID - Family w/dog                                                                                               06  150                                
PROFAMCHA010201000425000430000005CC Disclaimer (oct) **DO NOT USE**                                                                                      06  150                                
PGRFAMCHA010201000430002558002128ALF                                                                                                                   A2068807BCC                              
ID FAMCHA010201002558002608000010Generic ID - Family w/dog                                                                                               06  150                                
PROFAMCHA010201002608002648000040Driving Miss Daisy (FEB02) - Tomorrow @ 9pm                                                                             06  150                                
PROFAMCHA010201002648002711000023So Weird (VOODOO) - Sunday @ 8pm                                                                                        06  150                                
INTFAMCHA010201002711002834000123Monkey Minutes - Scream (after 7:30PM)                                                                                A20688120                                
PRCFAMCHA010201002834002904000030In A Heartbeat - Sunday @ 8:30pm                                                                                       106  150                                
PROFAMCHA010201002904002939000035Breakfast With Einstein (FEB3) - Saturday @ 9pm                                                                         06  150                                
ID FAMCHA010201002939003000000021Prime time open count down                                                                                              06  150                                
PGRFAMCHA010201003000005423002423Are You Afraid Of The Dark?                       The Tale of the Dark Dragon                                   SR0303 1066807A                                
ID FAMCHA010201005423005430000007Generic ID - Whisper*                                                                                                   06  150                                
PROFAMCHA010201005430005505000035Breakfast With Einstein (FEB3) - Saturday @ 9pm                                                                         06  150                                
INTFAMCHA010201005505005705000200MV Disney - I'm Gonna Fly                                                                                              60688120                                
PROFAMCHA010201005705005745000040Driving Miss Daisy (FEB02) - Tomorrow @ 9pm                                                                             06  150                                
INTFAMCHA010201005745010200000415MV Disney - You'll Be In My Heart (PHIL COLLINS)                                                                       60688120                                
SO FAMCHA010201010200010212000012Sign Off (oct 1)                                                                                                        06                                     
OFFFAMCHA010201010212043000032748                                                                                                                                                               
SO FAMCHA010202043000043011000011Sign On (oct 1)                                                                                                         06                                     
PROFAMCHA010202043011043016000005CC Disclaimer (oct) **DO NOT USE**                                                                                      06  150                                
PGRFAMCHA010202043016045416002400Hello Mrs. Cherrywinkle                           Lost And Found                                                B18881A1065607ACC                              
ID FAMCHA010202045416045426000010Generic ID - Family w/dog                                                                                               06  150                                
PROFAMCHA010202045426045440000014ALF (Dreams) - Today @ 12pm                                                                                             06  150                                
ID FAMCHA010202045440045500000020Morning block open play pen                                                                                             06  150                                
PROFAMCHA010202045500045505000005CC Disclaimer (oct) **DO NOT USE**                                                                                      06  150                                
PGRFAMCHA010202045505051915002410Busy World Of Richard Scarry; The                 No Time For Bananas                                           P19589 1065607ECC                              
ID FAMCHA010202051915051925000010Generic ID - confetti                                                                                                   06  150                                
PROFAMCHA010202051925051940000015Doug (MARCH2001) - Today @ 4pm                                                                                          06  150                                
ID FAMCHA010202051940052000000020Morning block open play pen                                                                                             06  150                                
PROFAMCHA010202052000052005000005CC Disclaimer (oct) **DO NOT USE**                                                                                      06  150                                
PGRFAMCHA010202052005054422002417Amazing Animals                                   Amazing Animal Mothers                                               60686110CC                              
ID FAMCHA010202054422054427000005Generic ID - Couch 1*                                                                                                   06  150                                
PROFAMCHA010202054427054457000030New Adventures of WTP (MARCH2001) - Today @ 7:30am                                                                      06  150                                
PRCFAMCHA010202054457054520000023Franklin (MARCH2001) - Today @ 7am                                                                                     106  150                                
ID FAMCHA010202054520054530000010URL(1) - FAMILIES                                                                                                       06  150                                
PRCFAMCHA010202054530054540000010Morning Block menu background (flex time)                                                                               06  150                                
ID FAMCHA010202054540054600000020Morning block open play pen                                                                                             06  150                                
PROFAMCHA010202054600054605000005CC Disclaimer (oct) **DO NOT USE**                                                                                      06  150                                
PGRFAMCHA010202054605061027002422Billy The Cat                                     Snowbound                                                     B27657A1065607ECC                              
ID FAMCHA010202061027061034000007Generic ID - Whisper*                                                                                                   06  150                                
PROFAMCHA010202061034061040000006MV Web Throw - family.ca                                                                                               606 5150                                
ID FAMCHA010202061040061100000020Morning block open play pen                                                                                             06  150                                
PROFAMCHA010202061100061105000005CC Disclaimer (oct) **DO NOT USE**                                                                                      06  150                                
PGRFAMCHA010202061105063440002335Little Lulu Show; The                             Wild Boy, The Whistle Blower, Elephant Ride                   A20186A1055607ECC3                             
ID FAMCHA010202063440063445000005Generic ID - Couch 2*                                                                                                   06  150                                
PROFAMCHA010202063445063500000015Doug (MARCH2001) - Today @ 4pm                                                                                          06  150                                
PROFAMCHA010202063500063530000030New Adventures of WTP (MARCH2001) - Today @ 7:30am                                                                      06  150                                
PRCFAMCHA010202063530063540000010Morning Block menu background (flex time)                                                                               06  150                                
ID FAMCHA010202063540063600000020Morning block open play pen                                                                                             06  150                                
PROFAMCHA010202063600063605000005CC Disclaimer (oct) **DO NOT USE**                                                                                      06  150                                
PGRFAMCHA010202063605070005002400Big Garage; The                                   King For The Day                                              P21472 1065607ECC                              
ID FAMCHA010202070005070010000005Generic ID - Marbles                                                                                                    06  150                                
PROFAMCHA010202070010070015000005CC Disclaimer (oct) **DO NOT USE**                                                                                      06  150                                
PGRFAMCHA010202070015072308002253Franklin                                          Franklin and the Thunderstorm/Franklin's Maple Syr            P02772A1065607ECC                              
ID FAMCHA010202072308072318000010Generic ID - Ring around the rosie                                                                                      06  150                                
PROFAMCHA010202072318072418000100Morning Block - Crunch - Today @ 9am                                                                                    06  150                                
PROFAMCHA010202072418072448000030New Adventures of WTP (MARCH2001) - Coming Up                                                                           06  150                                
INTFAMCHA010202072448072836000348Art Attack - Pirate Treasure Chest                                                                                     60686120                                
PRCFAMCHA010202072836072911000035Little Lulu (AUG2000) - Tonight @ 6pm                                                                                  106  150                                
PROFAMCHA010202072911072941000030Mickey Mouseworks - Weekends @ 4:30pm                                                                                   06  150                                
PRCFAMCHA010202072941072950000009Morning Block menu background (flex time)                                                                               06  150                                
ID FAMCHA010202072950073000000010xxMagic of Disney - V2(sky) - KID FEMALE                                                                                06  150                                
PROFAMCHA010202073000073005000005CC Disclaimer (oct) **DO NOT USE**                                                                                      06  150                                
PGRFAMCHA010202073005075317002312New Adventures of Winnie the Pooh; The            Bubble Trouble/Ground Piglet Day                                    A6068607ECC                              
ID FAMCHA010202075317075327000010Generic ID - Pink inner tube                                                                                            06  150                                
PRCFAMCHA010202075327075350000023Franklin (MARCH2001) - Today @ 12:30pm                                                                                 106  150                                
PROFAMCHA010202075350075411000021Buzz Lightyear (DISNEY'S ONE TOO) - Today @ 5:30pm                                                                      06  150                                
INTFAMCHA010202075411075755000344Music Break - Mary-Kate And Ashley Olsen                                                                               60686120                                
PRCFAMCHA010202075755075830000035Little Lulu (AUG2000) - Tonight @ 6pm                                                                                  106  150                                
PROFAMCHA010202075830075930000100Morning Block - Crunch - Today @ 9am                                                                                    06  150                                
PRCFAMCHA010202075930075940000010Morning Block menu background (flex time)                                                                               06  150                                
ID FAMCHA010202075940080000000020Morning block open play pen                                                                                             06  150                                
PGRFAMCHA010202080000081956001956Art Attack                                        1-052                                                                60686110                                
ID FAMCHA010202081956082006000010Generic ID - Bubbles                                                                                                    06  150                                
PROFAMCHA010202082006082027000021Buzz Lightyear (DISNEY'S ONE TOO) - Today @ 5:30pm                                                                      06  150                                
PGRFAMCHA010202082027082657000630Richard Scarry (ii) Captain Willy And The Pirates                                                               P19586 10656150                                
PROFAMCHA010202082657082711000014ALF (Dreams) - Today @ 12pm                                                                                             06  150                                
INTFAMCHA010202082711082827000116Bill Nye - How Can We Communicate?                                                                                     60688120                                
INTFAMCHA010202082827082927000100Richard Scarry (ii) Dams                                                                                        P19584 10656120                                
PROFAMCHA010202082927082940000013Buzz Lightyear (DISNEY'S ONE TOO) - Today @ 5:30pm                                                                      06  150                                
PRCFAMCHA010202082940082950000010Morning Block menu background (flex time)                                                                               06  150                                
ID FAMCHA010202082950083000000010xxMagic of Disney - V3(water) - KID MALE                                                                                06  150                                
PROFAMCHA010202083000083005000005CC Disclaimer (oct) **DO NOT USE**                                                                                      06  150                                
PGRFAMCHA010202083005085306002301Disney Presents Bill Nye the Science Guy          Nutrition                                                            60686110CC                              
ID FAMCHA010202085306085316000010Generic ID - Hula Hoop                                                                                                  06  150                                
PROFAMCHA010202085316085345000029Wizard of Oz - Sunday @ 1:35pm                                                                                          06  150                                
PROFAMCHA010202085345085430000045PB&J Otter (MARCH2001) - Coming Up                                                                                     206  150                                
INTFAMCHA01020208543008553000010060 Seconds of Science - Momentum(10) (anywhere but                                                                     60688120                                
PRCFAMCHA010202085530085605000035Little Lulu (AUG2000) - Tonight @ 6pm                                                                                  106  150                                
INTFAMCHA010202085605085839000234Art Attack - Shopping Cart                                                                                             60686120                                
PROFAMCHA010202085839085900000021Buzz Lightyear (DISNEY'S ONE TOO) - Today @ 5:30pm                                                                      06  150                                
PROFAMCHA010202085900090000000100Morning Block - Crunch - PB&J/BUSY/MADLEINE                                                                             06  150                                
PROFAMCHA010202090000090005000005CC Disclaimer (oct) **DO NOT USE**                                                                                      06  150                                
PGRFAMCHA010202090005092335002330PB&J Otter                                        Hope Castle                                                         A6068607ECC                              
ID FAMCHA010202092335092345000010Generic ID - Hula Hoop                                                                                                  06  150                                
PROFAMCHA010202092345092400000015Doug (MARCH2001) - Today @ 4pm                                                                                          06  150                                
PROFAMCHA010202092400092500000100Morning Block - Crunch - BUSY/MADELINE/OOTB                                                                             06  150                                
PROFAMCHA010202092500092505000005CC Disclaimer (oct) **DO NOT USE**                                                                                      06  150                                
PGRFAMCHA010202092505094915002410Busy World Of Richard Scarry; The                 Grand Hotel                                                   P19590 1065607ECC                              
ID FAMCHA010202094915094925000010Generic ID - Hula Hoop                                                                                                  06  150                                
PRCFAMCHA010202094925094955000030Madeline (AUG2000) - Coming Up                                                                                         106  150                                
PROFAMCHA010202094955095024000029Wizard of Oz - Sunday @ 1:35pm                                                                                          06  150                                
PROFAMCHA010202095024095037000013Buzz Lightyear (DISNEY'S ONE TOO) - Today @ 5:30pm                                                                      06  150                                
INTFAMCHA010202095037095130000053Bill Nye - Friction Happens                                                                                            60688120                                
PROFAMCHA010202095130095200000030Lion King (AUG2000) - Tonight @ 6:30pm                                                                                 206  150                                
PROFAMCHA010202095200095300000100Morning Block - Crunch - MADELINE/OOTB/BILLY                                                                            06  150                                
PROFAMCHA010202095300095305000005CC Disclaimer (oct) **DO NOT USE**                                                                                      06  150                                
PGRFAMCHA010202095305101602002257Madeline                                          Madeline and the Haunted Castle                                      6068607ECC                              
ID FAMCHA010202101602101609000007Generic ID - Whisper*                                                                                                   06  150                                
PROFAMCHA010202101609101639000030New Adventures of WTP (MARCH2001) - Weekends @ 5:3                                                                      06  150                                
PROFAMCHA010202101639101700000021Buzz Lightyear (DISNEY'S ONE TOO) - Today @ 5:30pm                                                                      06  150                                
PROFAMCHA010202101700101800000100Morning Block - Crunch - OOTB/BILLY/GOOF                                                                                06  150                                
PGRFAMCHA010202101800104005002205Out of the Box                                    A Place Called Space                                                 60686110                                
ID FAMCHA010202104005104015000010Generic ID - Ring around the rosie                                                                                      06  150                                
PROFAMCHA010202104015104044000029Wizard of Oz - Sunday @ 1:35pm                                                                                          06  150                                
INTFAMCHA010202104044104200000116Bill Nye - How Can We Communicate?                                                                                     60688120                                
PROFAMCHA010202104200104300000100Morning Block - Crunch - BILLY/GOOF/ALADDIN                                                                             06  150                                
PROFAMCHA010202104300104305000005CC Disclaimer (oct) **DO NOT USE**                                                                                      06  150                                
PGRFAMCHA010202104305110719002414Billy The Cat                                     Gutbucket                                                     B27658A1065607ECC                              
ID FAMCHA010202110719110724000005Generic ID - Couch 1*                                                                                                   06  150                                
PROFAMCHA010202110724110753000029Wizard of Oz - Sunday @ 1:35pm                                                                                          06  150                                
PROFAMCHA010202110753110823000030New Adventures of WTP (MARCH2001) - Weekends @ 5:3                                                                      06  150                                
PROFAMCHA010202110823110836000013Buzz Lightyear (DISNEY'S ONE TOO) - Today @ 5:30pm                                                                      06  150                                
PROFAMCHA010202110836110850000014ALF (Dreams) - Today @ 12pm                                                                                             06  150                                
PROFAMCHA010202110850110950000100Morning Block - Crunch - GOOF/ALADDIN/RECAP                                                                             06  150                                
ID FAMCHA010202110950111000000010xxMagic of Disney - V3(water) - KID FEMALE                                                                              06  150                                
PROFAMCHA010202111000111005000005CC Disclaimer (oct) **DO NOT USE**                                                                                      06  150                                
PGRFAMCHA010202111005113254002249Goof Troop                                        Rally Round The Goof                                                 6068607ECC                              
ID FAMCHA010202113254113304000010Generic ID - Hula Hoop                                                                                                  06  150                                
PROFAMCHA010202113304113404000100Morning Block - Crunch - ALADDIN/RECAP                                                                                  06  150                                
PROFAMCHA010202113404113433000029Wizard of Oz - Sunday @ 1:35pm                                                                                          06  150                                
ID FAMCHA010202113433113450000017Web Fun Stuff - Female                                                                                                  06  150                                
ID FAMCHA010202113450113500000010xxMagic of Disney - V3(water) - KID MALE                                                                                06  150                                
PROFAMCHA010202113500113505000005CC Disclaimer (oct) **DO NOT USE**                                                                                      06  150                                
PGRFAMCHA010202113505115745002240Disney's Aladdin                                  Opposites Detract                                                    6068607ECC                              
ID FAMCHA010202115745115755000010Generic ID - confetti                                                                                                   06  150                                
PROFAMCHA010202115755115855000100Morning Block - Crunch - RECAP - REBOUND COMING UP                                                                      06  150                                
PROFAMCHA010202115855115910000015ALF (Lucky) - Coming Up                                                                                                 06  150                                
PROFAMCHA010202115910115935000025Pete & Pete (AUG2000) - Weekends @ 7:30am                                                                              206  150                                
PRCFAMCHA010202115935115945000010Morning Block menu background (flex time)                                                                               06  150                                
ID FAMCHA010202115945120000000015Afternoon block pinball open **DO NOT USE**                                                                             06  150                                
PROFAMCHA010202120000120005000005CC Disclaimer (oct) **DO NOT USE**                                                                                      06  150                                
PGRFAMCHA010202120005122132002127ALF                                               La Cucaracha                                                        A2068807BCC                              
ID FAMCHA010202122132122139000007Generic ID - Whisper*                                                                                                   06  150                                
PROFAMCHA010202122139122214000035Breakfast With Einstein (FEB3) - Tomorrow @ 9pm                                                                         02  150                                
PROFAMCHA010202122214122235000021Buzz Lightyear (DISNEY'S ONE TOO) - Today @ 5:30pm                                                                      06  150                                
INTFAMCHA010202122235122701000426MV Disney - Love Will Find A Way (KENNY LATIMORE/H                                                                     60688120                                
PRCFAMCHA010202122701122746000045No Boundaries Contest (FEB04) - Sunday @ 12pm                                                                          106  150                                
INTFAMCHA010202122746122906000120Bill Nye - Whether the Weather                                                                                         60688120                                
PROFAMCHA010202122906122935000029Wizard of Oz - Sunday @ 1:35pm                                                                                          06  150                                
PRCFAMCHA010202122935122945000010Morning Block menu background (flex time)                                                                               06  150                                
ID FAMCHA010202122945123000000015Afternoon block pinball open **DO NOT USE**                                                                             06  150                                
PROFAMCHA010202123000123005000005CC Disclaimer (oct) **DO NOT USE**                                                                                      06  150                                
PGRFAMCHA010202123005125258002253Franklin                                          Franklin's Fortune Teller/Franklin's Cellar                   P02772A1065607ECC                              
ID FAMCHA010202125258125303000005Generic ID - Couch 1*                                                                                                   06  150                                
PROFAMCHA010202125303125348000045PB&J Otter (MARCH2001) - Coming Up                                                                                     206  150                                
PROFAMCHA010202125348125417000029Wizard of Oz - Sunday @ 1:35pm                                                                                          06  150                                
INTFAMCHA010202125417125817000400MV Disney - We Are One (ANGELIQUE KIDJO)                                                                               60688120                                
PROFAMCHA010202125817125847000030Mickey Mouseworks - Weekends @ 4:30pm                                                                                   06  150                                
PROFAMCHA010202125847125900000013Buzz Lightyear (DISNEY'S ONE TOO) - Today @ 5:30pm                                                                      06  150                                
PROFAMCHA010202125900130000000100Afternoon Block - Rebound - PB&J/BUSY/MADELINE                                                                          06  150                                
PROFAMCHA010202130000130005000005CC Disclaimer (oct) **DO NOT USE**                                                                                      06  150                                
PGRFAMCHA010202130005132335002330PB&J Otter                                        Where, Oh Where Is Flick/Win-Win, Winner                             6028607ECC                              
ID FAMCHA010202132335132345000010Generic ID - Pink inner tube                                                                                            06  150                                
PROFAMCHA010202132345132400000015Doug (MARCH2001) - Today @ 4pm                                                                                          06  150                                
PROFAMCHA010202132400132500000100Afternoon Block - Rebound - BUSY/MADELINE/OOTB                                                                          06  150                                
PROFAMCHA010202132500132505000005CC Disclaimer (oct) **DO NOT USE**                                                                                      06  150                                
PGRFAMCHA010202132505134915002410Busy World Of Richard Scarry; The                 Lowly Breaks A Leg                                            P19591 1065607ECC                              
ID FAMCHA010202134915134925000010Generic ID - soccer **DO NOT USE**                                                                                      06  150                                
PRCFAMCHA010202134925134955000030Madeline (AUG2000) - Coming Up                                                                                         106  150                                
PROFAMCHA010202134955135024000029Wizard of Oz - Sunday @ 1:35pm                                                                                          06  150                                
PROFAMCHA010202135024135054000030New Adventures of WTP (MARCH2001) - Weekends @ 5:3                                                                      06  150                                
PRCFAMCHA010202135054135117000023Franklin (MARCH2001) - Tomorrow @ 6:00pm                                                                               102  150                                
PROFAMCHA010202135117135147000030Lion King (AUG2000) - Tonight @ 6:30pm                                                                                 206  150                                
PROFAMCHA010202135147135200000013Buzz Lightyear (DISNEY'S ONE TOO) - Today @ 5:30pm                                                                      06  150                                
PROFAMCHA010202135200135300000100Afternoon Block - Rebound - MADELINE/OOTB/BILLY                                                                         06  150                                
PROFAMCHA010202135300135305000005CC Disclaimer (oct) **DO NOT USE**                                                                                      06  150                                
PGRFAMCHA010202135305141602002257Madeline                                          Madeline in the Wild West                                            6068607ECC                              
ID FAMCHA010202141602141609000007Generic ID - Whisper*                                                                                                   06  150                                
PROFAMCHA010202141609141638000029Wizard of Oz - Sunday @ 1:35pm                                                                                          06  150                                
PRCFAMCHA010202141638141701000023Franklin (NEW EPS) - Tomorrow @ 6:00pm**DO NOT USE                                                                     102  150                                
PROFAMCHA010202141701141801000100Afternoon Block - Rebound - OOTB/BILLY/GOOF                                                                             06  150                                
PGRFAMCHA010202141801144006002205Out of the Box                                    Box Full Of Boxes                                                    60686110                                
ID FAMCHA010202144006144011000005Generic ID - Couch 1*                                                                                                   06  150                                
PROFAMCHA010202144011144040000029Wizard of Oz - Sunday @ 1:35pm                                                                                          06  150                                
INTFAMCHA01020214404014414000010060 Seconds of Science - Pollution(11) (anywhere bu                                                                     60688120                                
PROFAMCHA010202144140144201000021Buzz Lightyear (DISNEY'S ONE TOO) - Today @ 5:30pm                                                                      06  150                                
PROFAMCHA010202144201144301000100Afternoon Block - Rebound - BILLY/GOOF/ALADDIN                                                                          06  150                                
PROFAMCHA010202144301144306000005CC Disclaimer (oct) **DO NOT USE**                                                                                      06  150                                
PGRFAMCHA010202144306150629002323Billy The Cat                                     The Pigeon That Fell To The Earth                             B27659A1065607ECC                              
ID FAMCHA010202150629150639000010Generic ID - Bubbles                                                                                                    06  150                                
PROFAMCHA010202150639150714000035Breakfast With Einstein (FEB3) - Tomorrow @ 9pm                                                                         06  150                                
PRCFAMCHA010202150714150750000036Goof Troop (MARCH2001) - Coming Up                                                                                      06  150                                
PRCFAMCHA010202150750150820000030Madeline (AUG2000) - Weekends @ 6:36am                                                                                 106  150                                
PROFAMCHA010202150820150849000029Wizard of Oz - Sunday @ 1:35pm                                                                                          06  150                                
PROFAMCHA010202150849150949000100Afternoon Block - Rebound - GOOF/ALADDIN/RECAP                                                                          06  150                                
ID FAMCHA010202150949150959000010xxMagic of Disney - V3(water) - TEEN FEMALE                                                                             06  150                                
PROFAMCHA010202150959151004000005CC Disclaimer (oct) **DO NOT USE**                                                                                      06  150                                
PGRFAMCHA010202151004153248002244Goof Troop                                        Window Pains                                                         6068607ECC                              
ID FAMCHA010202153248153253000005Generic ID - Marbles                                                                                                    06  150                                
PROFAMCHA010202153253153308000015Doug (MARCH2001) - Today @ 4pm                                                                                          06  150                                
PROFAMCHA010202153308153338000030Mickey Mouseworks - Weekends @ 4:30pm                                                                                   06  150                                
ID FAMCHA010202153338153350000012Web Rant - Believe It                                                                                                   06  150                                
PROFAMCHA010202153350153450000100Afternoon Block - Rebound - ALADDIN/RECAP                                                                               06  150                                
ID FAMCHA010202153450153500000010xxMagic of Disney - V3(water) - TEEN MALE                                                                               06  150                                
PROFAMCHA010202153500153505000005CC Disclaimer (oct) **DO NOT USE**                                                                                      06  150                                
PGRFAMCHA010202153505155746002241Disney's Aladdin                                  In The Heat Of The Fright                                            6068607ECC                              
ID FAMCHA010202155746155753000007Generic ID - Whisper*                                                                                                   06  150                                
PROFAMCHA010202155753155853000100Afternoon Block - Rebound - RECAP                                                                                       06  150                                
PRCFAMCHA010202155853155951000058Recess Vote (FEB16) - Weekdays @ 5pm                                                                                   106  150                                
ID FAMCHA010202155951160001000010xxMagic of Disney - V3(water) - TEEN FEMALE                                                                             06  150                                
PROFAMCHA010202160001160031000030Disney's One Too - Opening                                                                                              06  150                                
PGRFAMCHA010202160031162257002226Disney's Doug                                     Quailman VS Supersport                                               6068607E                                
ID FAMCHA010202162257162307000010Generic ID - Hula Hoop                                                                                                  06  150                                
PROFAMCHA010202162307162342000035Breakfast With Einstein (FEB3) - Tomorrow @ 9pm                                                                         06  150                                
PROFAMCHA010202162342162412000030Pepper Ann (MARCH2001) - Coming Up                                                                                      06  150                                
PRCFAMCHA010202162412162457000045No Boundaries Contest (FEB04) - Sunday @ 12pm                                                                          106  150                                
INTFAMCHA010202162457162510000013Toy Story Treats - The Shark's Tale                                                                                    60686120                                
INTFAMCHA010202162510162714000204MV Disney - You've Got A Friend In Me (RANDY NEWMA                                                                     60688120                                
