SO FAMCHA061001043000043011000011Sign On (oct 1)                                                                                                                                                
PRCFAMCHA061001043011043020000009CC Disclaimer - FAST - Family.ca (:08-:10) $$$                                                                              150                                
PGRFAMCHA061001043020045422002402Henry's World                                     EP: 2-026                                                     B81057A1065607GCC                              
PRCFAMCHA061001045422045437000015PH - 01 - BEN/FRANNY/KING (SAT/SUN) (JUNE06) (:14                                                                           150                                
ID FAMCHA061001045437045450000013PS Playhouse AM Block Open (:10-:15) $$$                                                                                    150                                
PRCFAMCHA061001045450045459000009CC Disclaimer - FAST - Generic (:08-:10) $$$                                                                                150                                
PGRFAMCHA061001045459051730002231The Secret World Of Benjamin Bear                 EPS # 1-010                                                   B75155A1065607ECC                              
PRCFAMCHA061001051730051735000005Astral ID (FEB05) $$$                                                                                                       150                                
PRCFAMCHA061001051735051750000015PH - 02 - FRANNY/KING (SAT/SUN) (JUNE06) (:14 - :1                                                                          150                                
ID FAMCHA061001051750051803000013PS Playhouse AM Block Open (:10-:15) $$$                                                                                    150                                
PRCFAMCHA061001051803051812000009CC Disclaimer - FAST - Family.ca (:08-:10) $$$                                                                              150                                
PGRFAMCHA061001051812054043002231Franny's Feet                                     EPS # 22                                                      C23971 1065607ECC                              
PRCFAMCHA061001054043054058000015PH - 03 - KING (SAT/SUN) (JUNE06) (:14 - :16) $$$                                                                           150                                
ID FAMCHA061001054058054111000013PS Playhouse AM Block Open (:10-:15) $$$                                                                                    150                                
PRCFAMCHA061001054111054120000009CC Disclaimer - FAST - Generic (:08-:10) $$$                                                                                150                                
PGRFAMCHA061001054120060350002230King                                              EPS # 036                                                     C25350A1065607ECC                              
PRCFAMCHA061001060350060355000005Astral ID (FEB05) $$$                                                                                                       150                                
PRCFAMCHA061001060355060405000010JTX - 01 -  ED/PR MYSTIC FORCE (SEPT06) $$$                                                                                 150                                
PROFAMCHA061001060405060423000018Jetix Block Open $$$ (:18-:21)                                                                                              150                                
PGRFAMCHA061001060423062702002239Get Ed                                            EP: 04                                                              A2028607E                                
PRCFAMCHA061001062702062712000010JTX - 02 - PR MYSTIC FORCE/OBAN (SEPT06) $$$                                                                                150                                
PROFAMCHA061001062712062734000022Power Rangers: Mystic Force (JETIX) - Coming Up Ne                                                                          150                                
PROFAMCHA061001062734062754000020Oban Star Racers (JETIX) - This morning @ 6:55 (Se                                                                          150                                
PROFAMCHA061001062754062819000025xxRecess Sketches - Gretchen's Inventions - AM HAM                                                                          150                                
PROFAMCHA061001062819062842000023WITCH (JETIX) - This morning @ 7:20 (Sept06)                                                                                150                                
PROFAMCHA061001062842062900000018Jetix Block Open $$$ (:18-:21)                                                                                              150                                
PGRFAMCHA061001062900065138002238Power Rangers:  Mystic Force                      EP: 18                                                               2028607E                                
PRCFAMCHA061001065138065143000005Astral ID (FEB05) $$$                                                                                                       150                                
PRCFAMCHA061001065143065153000010JTX - 03 - OBAN/WITCH (SEPT06) $$$                                                                                          150                                
PROFAMCHA061001065153065213000020Oban Star Racers (JETIX) - Coming Up Next (Sept06)                                                                          150                                
PGRFAMCHA061001065213065319000106xxPlanet Rock Profiles - BNL - Humour             EP: 46                                                              A70687120                                
PROFAMCHA061001065319065342000023WITCH (JETIX) - This morning @ 7:20 (Sept06)                                                                                150                                
PROFAMCHA061001065342065400000018Jetix Block Open $$$ (:18-:21)                                                                                              150                                
PGRFAMCHA061001065400071644002244Oban Star Racers                                  EP: 04                                                               2028607E                                
PRCFAMCHA061001071644071654000010JTX - 04 - WITCH/LIZZIE (SEPT06) $$$                                                                                        150                                
PROFAMCHA061001071654071717000023WITCH (JETIX) - Coming Up Next (Sept06)                                                                                     150                                
PRCFAMCHA061001071717071747000030xxHalloween Contest (Oct06) Starting Oct 1 (3-5xda                                                                          150                                
PROFAMCHA061001071747071811000024Get Ed (JETIX) - Weekends @ 6am (Sept06)                                                                                    150                                
PROFAMCHA061001071811071816000005Jetix Bumper (Sept 06)                                                                                                      150                                
PROFAMCHA061001071816071838000022Power Rangers: Mystic Force (JETIX) - Weekend morn                                                                          150                                
PGRFAMCHA061001071838071933000055xxPlanet Rock Profiles - BNL - Writing            EP: 46                                                              A70687120                                
PRCFAMCHA061001071933071942000009Darcy's IDs - Sara - family.ca (vers. 2 w/puppy)                                                                            150                                
PROFAMCHA061001071942072000000018Jetix Block Open $$$ (:18-:21)                                                                                              150                                
PGRFAMCHA061001072000074142002142W.I.T.C.H.                                        EP: 07                                                               2068607E                                
PRCFAMCHA061001074142074147000005Astral ID (FEB05) $$$                                                                                                       150                                
PRCFAMCHA061001074147074159000012NSW - 02 - LIZZIE/SUITE (APR06) (:11 - 13) $$$                                                                              150                                
PROFAMCHA061001074159074226000027Lizzie McGuire - (Bad Breath) (NSW) (APR06) - Comi                                                                          150                                
PROFAMCHA061001074226074256000030Curious George DVD Contest - Available Now (Sept 2                                                                    A     150                                
PROFAMCHA061001074256074315000019Suite Life of Z & C - NSW (JULY 06) MEDITATE - Thi                                                                          150                                
PROFAMCHA061001074315074359000044Zoey 101 - PHONE DIARY (NSW) (JUNE06) - This morni                                                                          150                                
PRCFAMCHA061001074359074540000141xxFamily Lab - Anti Gravity Rocket Pack (Oct1-Nov5                                                                          150                                
PROFAMCHA061001074540074632000052xxThat's So Raven (JUNE06) SHOW ME (NSW) - This mo                                                                          150                                
PGRFAMCHA061001074632074713000041Planet Rock Profiles - Ashanti (JLo)              EP: 46                                                              A70687120                                
PROFAMCHA061001074713074743000030Phil of the Future THINGS TO COME (NSW) (APR06) -                                                                           150                                
PROFAMCHA061001074743074800000017Nonstop Weekend Block Open (:16-:18) APR06 $$$                                                                              150                                
ID FAMCHA061001074800074808000008Magic of Disney - NS/NSW/PB - Shape (:06-:09) $$$                                                                           150                                
PGRFAMCHA061001074808081043002235Lizzie McGuire                                    EP: 1-009                                                           A6068607B                                
PRCFAMCHA061001081043081055000012NSW - 03 - SUITE/ZOEY (APR06) (:11 - 13) $$$                                                                                150                                
PROFAMCHA061001081055081114000019Suite Life of Z & C - NSW (JULY 06) MEDITATE - Com                                                                          150                                
PROFAMCHA061001081114081148000034xxLittle Mermaid - Available Oct 3 (Sept 23 - Oct                                                                     A     150                                
PROFAMCHA061001081148081232000044Zoey 101 - PHONE DIARY (NSW) (JUNE06) - This morni                                                                          150                                
PGRFAMCHA061001081232081353000121xxPlanet Rock Profiles - Michelle Branch - First GEP: 46                                                              A70687120                                
PROFAMCHA061001081353081445000052xxThat's So Raven (JUNE06) SHOW ME (NSW) - This mo                                                                          150                                
PRCFAMCHA061001081445081501000016NSW Bumper $$$ - Tennis (:15-:17) APR06                                                                                     150                                
PGRFAMCHA061001081501083739002238Suite Life of Zack & Cody, The                    EP: 11                                                               6068607B                                
PRCFAMCHA061001083739083744000005Astral ID (FEB05) $$$                                                                                                       150                                
PRCFAMCHA061001083744083756000012NSW - 04 - ZOEY/RAVEN (APR06) (:11 - 13) $$$                                                                                150                                
PROFAMCHA061001083756083840000044Zoey 101 - PHONE DIARY (NSW) (JUNE06) - Coming Up                                                                           150                                
PROFAMCHA061001083840083913000033xxBratz - Bratz Babyz $$$ (Aug21 - Oct 29)                                                                            A     150                                
PROFAMCHA061001083913084005000052xxThat's So Raven (JUNE06) SHOW ME (NSW) - This mo                                                                          150                                
PROFAMCHA061001084005084014000009xxFamily Bumpers - (Phase 2 F/W 04) - Halloween (M                                                                          150                                
PROFAMCHA061001084014084044000030Phil of the Future THINGS TO COME (NSW) (APR06) -                                                                           150                                
PROFAMCHA061001084044084123000039xxLaurentien's Q & A with Zoey 101 Contest $$$                                                                              150                                
PROFAMCHA061001084123084154000031Even Stevens - Swing (APR06) - (NSW) - This Morn @                                                                          150                                
PRCFAMCHA061001084154084218000024xxLife WD Derek Bloopers #12 (NS/NSW)                                                                                       150                                
PROFAMCHA061001084218084248000030Double Teamed (SEPT12) - Next Friday @ 7:30pm                                                                               150                                
PRCFAMCHA061001084248084301000013NSW Bumper $$$ - Fashion (:12-:14) APR06                                                                                    150                                
PRCFAMCHA061001084301084310000009CC Disclaimer - FAST - Family.ca (:08-:10) $$$                                                                              150                                
PGRFAMCHA061001084310090642002332Zoey 101 Season 2                                 EP: 17                                                              A2068807BCC                              
PRCFAMCHA061001090642090654000012NSW - 05 - RAVEN/PHIL (APR06) (:11 - 13) $$$                                                                                150                                
PROFAMCHA061001090654090746000052xxThat's So Raven (JUNE06) SHOW ME (NSW) - Coming                                                                           150                                
PROFAMCHA061001090746090756000010FAMJAM - Open/Close                                                                                                         150                                
PROFAMCHA061001091056091110000014xxFAMJAM - Close (FAMILY) xxDNUxx                                                                                           150                                
PROFAMCHA061001091110091155000045Bratz DVD Contest - Available Now (Sept 26-29)                                                                        A     150                                
PRCFAMCHA061001091155091203000008NSW Bumper $$$ - Dodgeball (:07-:09) APR06                                                                                  150                                
PRCFAMCHA061001091203091212000009CC Disclaimer - FAST - Generic (:08-:10) $$$                                                                                150                                
PGRFAMCHA061001091212093452002240That's So Raven                                   EP: 1-021                                                            6068607BCC                              
PRCFAMCHA061001093452093457000005Astral ID (FEB05) $$$                                                                                                       150                                
PRCFAMCHA061001093457093509000012NSW - 06 - PHIL/EVEN (APR06) (:11 - 13) $$$                                                                                 150                                
PROFAMCHA061001093509093539000030Phil of the Future THINGS TO COME (NSW) (APR06) -                                                                           150                                
PROFAMCHA061001093539093613000034xxLittle Mermaid - Available Oct 3 (Sept 23 - Oct                                                                     A     150                                
PROFAMCHA061001093613093647000034Even Stevens - Bad Boys (APR06) - (NSW) - This Mor                                                                          150                                
PGRFAMCHA061001093647093817000130Movie Surfers - Santa Clause 3 - Interstitial #1 C                                                                    A60688120                                
PROFAMCHA061001093817093847000030Double Teamed (SEPT12) - Next Friday @ 7:30pm                                                                               150                                
PRCFAMCHA061001093847093906000019xxLife WD Derek Bloopers #8 (NS/NSW)                                                                                        150                                
PROFAMCHA061001093906093940000034Neds DSSG - Granny Kiss NSW (MAY06) This morn @ 11                                                                          150                                
PROFAMCHA061001093940094013000033xxBratz - Bratz Babyz $$$ (Aug21 - Oct 29)                                                                            A     150                                
PROFAMCHA061001094013094045000032Sinbad Show NSW Dance (SEPT06) This morn @ 11:35                                                                            150                                
PRCFAMCHA061001094045094101000016NSW Bumper $$$ - Tennis (:15-:17) APR06                                                                                     150                                
PGRFAMCHA061001094101100337002236Phil of the Future Yr 2                           EP: 32                                                               6068607B                                
PRCFAMCHA061001100337100349000012NSW - 07 - EVEN/BMW (APR06) (:11 - 13) $$$                                                                                  150                                
PROFAMCHA061001100349100423000034Even Stevens - Bad Boys (APR06) - (NSW) -coming Up                                                                          150                                
PRCFAMCHA061001100423100453000030xxHalloween Contest (Oct06) Starting Oct 1 (3-5xda                                                                          150                                
PROFAMCHA061001100453100523000030Double Teamed (SEPT12) - Next Friday @ 7:30pm                                                                               150                                
PROFAMCHA061001100523100533000010FAMJAM - Open/Close                                                                                                         150                                
PROFAMCHA061001100838100852000014xxFAMJAM - Close (FAMILY) xxDNUxx                                                                                           150                                
PROFAMCHA061001100852100926000034Neds DSSG - Granny Kiss NSW (MAY06) This morn @ 11                                                                          150                                
PROFAMCHA061001100926100956000030xxSinbad Show NSW Responsible (SEPT06) This morn @                                                                          150                                
PRCFAMCHA061001100956101009000013NSW Bumper $$$ - Fashion (:12-:14) APR06                                                                                    150                                
ID FAMCHA061001101009101017000008Magic of Disney - NS/NSW/PB - Wipe (:06-:09) $$$                                                                            150                                
PRCFAMCHA061001101017101026000009CC Disclaimer - FAST - Family.ca (:08-:10) $$$                                                                              150                                
PGRFAMCHA061001101026103308002242Even Stevens                                      EP: 1-015                                                           A6068807BCC                              
PRCFAMCHA061001103308103313000005Astral ID (FEB05) $$$                                                                                                       150                                
PRCFAMCHA061001103313103325000012NSW - 08 - BMW/NEDS (APR06) (:11 - 13) $$$                                                                                  150                                
PROFAMCHA061001103325103355000030Double Teamed (SEPT12) - Next Friday @ 7:30pm                                                                               150                                
PROFAMCHA061001103355103425000030Curious George DVD Contest - Available Now (Sept 2                                                                    A     150                                
PROFAMCHA061001103425103459000034Neds DSSG - Granny Kiss NSW (MAY06) This morn @ 11                                                                          150                                
PRCFAMCHA061001103459103648000149xxFamily Lab - Disguise-o-matic (Oct1-Nov5) (2day                                                                           150                                
PROFAMCHA061001103648103720000032Sinbad Show NSW Dance (SEPT06) This morn @ 11:35                                                                            150                                
PROFAMCHA061001103720103755000035Smart Guy GOOD FRIEND (JULY06) NSW - This afternoo                                                                          150                                
PRCFAMCHA061001103755103803000008NSW Bumper $$$ - Dodgeball (:07-:09) APR06                                                                                  150                                
PRCFAMCHA061001103803103812000009CC Disclaimer - FAST - Generic (:08-:10) $$$                                                                                150                                
PGRFAMCHA061001103812110040002228Boy Meets World                                   EP: 1-051                                                           B6068807BCC                              
PRCFAMCHA061001110040110052000012NSW - 09 - NEDS/SINBAD (SEPT06) (:11 - 13) $$$                                                                              150                                
PROFAMCHA061001110052110126000034Neds DSSG - Granny Kiss NSW (MAY06) Coming Up Next                                                                          150                                
PRCFAMCHA061001110126110156000030xxHalloween Contest (Oct06) Starting Oct 1 (3-5xda                                                                          150                                
PROFAMCHA061001110156110226000030xxSinbad Show NSW Responsible (SEPT06) This morn @                                                                          150                                
PROFAMCHA061001110226110251000025Aly & A.J. Faves and Funnies - Fave Band (OCTOBER)                                                                          150                                
PROFAMCHA061001110251110322000031xxSmart Guy FIGHT (JUNE06) NSW - This afternnoon @                                                                          150                                
PGRFAMCHA061001110322110417000055xxPlanet Rock Profiles - Michelle Branch          EP: 46                                                              A70687120                                
PROFAMCHA061001110417110447000030Phil of the Future THINGS TO COME (NSW) (APR06) -                                                                           150                                
PRCFAMCHA061001110447110503000016NSW Bumper $$$ - Tennis (:15-:17) APR06                                                                                     150                                
PGRFAMCHA061001110503112924002421Ned's Declassified School Survival Guide          EP: 19                                                               2068807B                                
PRCFAMCHA061001112924112929000005Astral ID (FEB05) $$$                                                                                                       150                                
PRCFAMCHA061001112929112941000012NSW - 10 - SINBAD/PP (SEPT06) (:11 - :13) $$$                                                                               150                                
PROFAMCHA061001112941113013000032Sinbad Show NSW Dance (SEPT06) Coming Up Next                                                                               150                                
PROFAMCHA061001113013113058000045Bratz DVD Contest - Available Now (Sept 26-29)                                                                        A     150                                
PROFAMCHA061001113058113133000035Smart Guy GOOD FRIEND (JULY06) NSW - This afternoo                                                                          150                                
PROFAMCHA061001113133113142000009xxFamily Bumpers - (Phase 1 Spring 04) - DJ Spinni                                                                          150                                
PRCFAMCHA061001113142113222000040Naturally Sadie (APR06) - Tonight @ 6:05pm                                                                                  150                                
PGRFAMCHA061001113222113335000113xxPlanet Rock Profiles - Alicia Keys xxDNUxx      EP: 46                                                              A70687120                                
PROFAMCHA061001113335113349000014Bonnie - Life With NSW - Tonight @ 8:40 (Sept 06)                                                                           150                                
PRCFAMCHA061001113349113402000013NSW Bumper $$$ - Fashion (:12-:14) APR06                                                                                    150                                
PGRFAMCHA061001113402115610002208The Sinbad Show                                   EP: 04                                                               2068507B                                
PRCFAMCHA061001115610115622000012NSW - 11 - PP/SMART GUY (July06) (:11 - :13) $$$                                                                            150                                
PROFAMCHA061001115622115653000031xxSmart Guy FIGHT (JUNE06) NSW - This afternnoon @                                                                          150                                
PRCFAMCHA061001115653115700000007Family Bumpers - (Phase 2 F/W 04) - Hockey (MD-L/M                                                                          150                                
PROFAMCHA061001115700115730000030Phil of the Future THINGS TO COME (NSW) (APR06) -                                                                           150                                
PGRFAMCHA061001115730115808000038Planet Rock Profiles - Ashanti (Writing)          EP: 46                                                              A70687120                                
PRCFAMCHA061001115808115848000040Naturally Sadie (APR06) - Tonight @ 6:05pm                                                                                  150                                
PROFAMCHA061001115848115940000052xxThat's So Raven (JUNE06) SHOW ME (NSW) - Tonight                                                                          150                                
ID FAMCHA061001115940120000000020Popcorn Pix Block Open $$$ (JUNE 06) (:18-:20)                                                                              150                                
ID FAMCHA061001120000120009000009Rating - PG - (DEC05) (:08 - :10) $$$                                                                                       150                                
PRCFAMCHA061001120009120018000009CC Disclaimer - FAST - Family.ca (:08-:10) $$$                                                                              150                                
ID FAMCHA061001120018120026000008Magic of Disney - PIX - Shape (:06-:09) $$$                                                                                 150                                
PGRFAMCHA061001120026132929012903Tower of Terror                                                                                                       B6068807CCC                              
PRCFAMCHA061001132929132934000005Astral ID (FEB05) $$$                                                                                                       150                                
PROFAMCHA061001132934132941000007Aly & A.J. IDs - (ALY) You're Watching Family, NAD                                                                          150                                
ID FAMCHA061001132941133000000019Popcorn Pix Block Open $$$ (JUNE 06) (:18-:20)                                                                              150                                
ID FAMCHA061001133000133009000009Rating - G - (DEC05) (:08 - :10) $$$                                                                                        150                                
ID FAMCHA061001133009133017000008Magic of Disney - PIX - Wipe (:06-:09) $$$                                                                                  150                                
PGRFAMCHA061001133017145640012623Twitches                                                                                                              A6068807C                                
PRCFAMCHA061001145640145652000012NSW - 12 -SMART/LIZZIE (APR06) (:11 - :13) $$$                                                                              150                                
PROFAMCHA061001145652145727000035Smart Guy GOOD FRIEND (JULY06) NSW - Coming Up Nex                                                                          150                                
PRCFAMCHA061001145727145757000030xxHalloween Contest (Oct06) Starting Oct 1 (3-5xda                                                                          150                                
PROFAMCHA061001145757145824000027Lizzie McGuire - (Bad Breath) (NSW) (APR06) - This                                                                          150                                
PGRFAMCHA061001145824145926000102xxPlanet Rock Profiles - BNL - Starting Out       EP: 46                                                              A70687120                                
PROFAMCHA061001145926145945000019Suite Life of Z & C - NSW (JULY 06) MEDITATE - Thi                                                                          150                                
PROFAMCHA061001145945150002000017Nonstop Weekend Block Open (:16-:18) APR06 $$$                                                                              150                                
PRCFAMCHA061001150002150011000009CC Disclaimer - FAST - Generic (:08-:10) $$$                                                                                150                                
PGRFAMCHA061001150011152238002227Smart Guy                                         EP: 1-026                                                           A6068807BCC                              
PRCFAMCHA061001152238152243000005Astral ID (FEB05) $$$                                                                                                       150                                
PRCFAMCHA061001152243152255000012NSW - 13 -LIZZIE/SUITE (APR06) (:11 - :13) $$$                                                                              150                                
PROFAMCHA061001152255152325000030Lizzie McGuire - (Romeo) (APR06) (NSW/AM or PM) -                                                                           150                                
PROFAMCHA061001152325152359000034xxLittle Mermaid - Available Oct 3 (Sept 23 - Oct                                                                     A     150                                
PRCFAMCHA061001152359152407000008NSW Bumper $$$ - Dodgeball (:07-:09) APR06                                                                                  150                                
ID FAMCHA061001152407152415000008Magic of Disney - NS/NSW/PB - Shape (:06-:09) $$$                                                                           150                                
PGRFAMCHA061001152415154649002234Lizzie McGuire                                    EP: 2-022                                                           A6068607B                                
PRCFAMCHA061001154649154701000012NSW - 14 -SUITE/PROUD (APR06) (:11 - :13) $$$                                                                               150                                
PROFAMCHA061001154701154731000030Suite Life of Z & C - NSW Disclaimer Coming Up Nex                                                                          150                                
PROFAMCHA061001154731154810000039xxLaurentien's Q & A with Zoey 101 Contest $$$                                                                              150                                
PROFAMCHA061001154810154859000049Proud Family (APR06) STRIKE (NSW) - This Afternoon                                                                          150                                
PROFAMCHA061001154859154912000013Family Bumpers - (Phase 2 F/W 04) - Leaves (PB/MD-                                                                          150                                
PROFAMCHA061001154912154929000017xxEmperor's New School BANK - NSW - This Aft @ 4:4                                                                          150                                
PROFAMCHA061001154929154954000025xxRecess Sketches - Gretchen's Inventions - APPLE                                                                           150                                
PROFAMCHA061001154954155010000016xxKim Possible FINGER TAUNT (NSW) (July 06) This a                                                                          150                                
PROFAMCHA061001155010155046000036Weekenders - PIZZA (MD) - (APR06) - Tomorrow @ 3pm                                                                          150                                
PRCFAMCHA061001155046155102000016NSW Bumper $$$ - Tennis (:15-:17) APR06                                                                                     150                                
PGRFAMCHA061001155102161341002239Suite Life of Zack & Cody , The                   EP: 09                                                               6068607B                                
PRCFAMCHA061001161341161346000005Astral ID (FEB05) $$$                                                                                                       150                                
PRCFAMCHA061001161346161358000012NSW - 15 - PROUD/EMPEROR (MAY06) (:11 - :13) $$$                                                                            150                                
PROFAMCHA061001161358161447000049Proud Family (APR06) STRIKE (NSW) - Coming Up Next                                                                          150                                
PROFAMCHA061001161447161532000045Bratz DVD Contest - Available Now (Sept 26-29)                                                                        A     150                                
PROFAMCHA061001161532161548000016xxEmperor's New School KOOKOO - NSW - This afterno                                                                          150                                
PROFAMCHA061001161548161558000010FAMJAM - Open/Close                                                                                                         150                                
PGRFAMCHA061001161558161657000059MV Disney - (FAMILY HITS) That's So Raven Theme So                                                                     60688120                                
PROFAMCHA061001161657161711000014xxFAMJAM - Close (FAMILY) xxDNUxx                                                                                           150                                
PROFAMCHA061001161711161743000032xxKim Possible RON FACTOR (NSW) (July 06) This aft                                                                          150                                
PRCFAMCHA061001161743161757000014NSW Bumper $$$ - Fashion (:12-:14) APR06                                                                                    150                                
PGRFAMCHA061001161757164020002223The Proud Family                                  EPS # 2-025                                                         A6068607E                                
PRCFAMCHA061001164020164032000012NSW - 16 - EMPEROR/KIM (MAY06) (:11 - :13) $$$                                                                              150                                
PROFAMCHA061001164032164049000017xxEmperor's New School BANK - NSW - Coming Up Next                                                                          150                                
PRCFAMCHA061001164049164230000141xxFamily Lab - Anti Gravity Rocket Pack (Oct1-Nov5                                                                          150                                
PROFAMCHA061001164230164246000016xxKim Possible FINGER TAUNT (NSW) (July 06) This a                                                                          150                                
PROFAMCHA061001164246164256000010FAMJAM - Open/Close                                                                                                         150                                
PGRFAMCHA061001164256164354000058MV Disney - (FAMILY HITS) That's So Raven Theme So                                                                     60688120                                
PROFAMCHA061001164354164408000014xxFAMJAM - Close (FAMILY) xxDNUxx                                                                                           150                                
PROFAMCHA061001164408164447000039Lloyd In Space (NOTES) (AUG06) MD- Tomorrow aftern                                                                          150                                
PRCFAMCHA061001164447164456000009NSW Bumper $$$ - Dodgeball (:07-:09) APR06                                                                                  150                                
PGRFAMCHA061001164456170732002236Disney's The Emperor's New School                 EP: 19                                                               6068807E                                
PRCFAMCHA061001170732170737000005Astral ID (FEB05) $$$                                                                                                       150                                
PRCFAMCHA061001170737170749000012NSW - 17 - KIM/PHIL (APR06) (:11 - :13) $$$                                                                                 150                                
PROFAMCHA061001170749170805000016xxKim Possible FINGER TAUNT (NSW) (July 06) Coming                                                                          150                                
PROFAMCHA061001170805170835000030Curious George DVD Contest - Available Now (Sept 2                                                                    A     150                                
PROFAMCHA061001170835170916000041Brandy & Mr. Whiskers (Earsick] Tomorrow afternoon                                                                          150                                
PROFAMCHA061001170916170926000010FAMJAM - Open/Close                                                                                                         150                                
PGRFAMCHA061001170926171111000145MV Disney - (MD/NS/NSW) - What I've Been Looking F                                                                     60688120                                
PROFAMCHA061001171111171125000014xxFAMJAM - Close (FAMILY) xxDNUxx                                                                                           150                                
PROFAMCHA061001171125171147000022Fillmore! - POLLY (MD) (APR06) - Tomorrow Afternoo                                                                          150                                
PRCFAMCHA061001171147171203000016NSW Bumper $$$ - Tennis (:15-:17) APR06                                                                                     150                                
PRCFAMCHA061001171203171212000009CC Disclaimer - FAST - Family.ca (:08-:10) $$$                                                                              150                                
PGRFAMCHA061001171212173502002250Disney's Kim Possible                             EPS # 1-022                                                         A6068607ECC                              
PRCFAMCHA061001173502173514000012NSW - 18 - PHIL/SADIE (APR06) (:11 - :13) $$$                                                                               150                                
PROFAMCHA061001173514173544000030Phil of the Future THINGS TO COME (NSW) (APR06) -                                                                           150                                
PRCFAMCHA061001173544173614000030xxHalloween Contest (Oct06) Starting Oct 1 (3-5xda                                                                          150                                
PRCFAMCHA061001173614173654000040Naturally Sadie (APR06) - Tonight @ 6:05pm                                                                                  150                                
PROFAMCHA061001173654173703000009xxFamily Bumpers - (Phase 2 F/W 04) - Halloween (M                                                                          150                                
PRCFAMCHA061001173703173711000008Darcy's Wild Life (NADM) NS or NSW (AUG06) - Tonig                                                                          150                                
PGRFAMCHA061001173711173756000045Planet Rock Profiles - Ashanti (Record)           EP: 46                                                              A70687120                                
PROFAMCHA061001173756173848000052xxThat's So Raven (JUNE06) SHOW ME (NSW) - Tonight                                                                          150                                
PRCFAMCHA061001173848173901000013NSW Bumper $$$ - Fashion (:12-:14) APR06                                                                                    150                                
PGRFAMCHA061001173901180141002240Phil of the Future                                EPS # 17                                                             6068607B                                
PRCFAMCHA061001180141180146000005Astral ID (FEB05) $$$                                                                                                       150                                
PRCFAMCHA061001180146180158000012NSW - 19 - SADIE/DARCY (APR06) (:11 - :13) $$$                                                                              150                                
PRCFAMCHA061001180158180238000040Naturally Sadie (APR06) - Coming Up Next                                                                                    150                                
PRCFAMCHA061001180238180246000008Darcy's Wild Life (NADM) NS or NSW (AUG06) - Tonig                                                                          150                                
PROFAMCHA061001180246180256000010FAMJAM - Open/Close                                                                                                         150                                
PGRFAMCHA061001180256180441000145MV Disney - Superstition (Raven)                                                                                       60688120                                
PROFAMCHA061001180441180455000014xxFAMJAM - Close (FAMILY) xxDNUxx                                                                                           150                                
PROFAMCHA061001180455180547000052xxThat's So Raven (JUNE06) SHOW ME (NSW) - Tonight                                                                          150                                
PROFAMCHA061001180547180553000006Phil of the Future IDs - You're Watching Family...                                                                          150                                
PRCFAMCHA061001180553180601000008NSW Bumper $$$ - Dodgeball (:07-:09) APR06                                                                                  150                                
PRCFAMCHA061001180601180610000009CC Disclaimer - FAST - Generic (:08-:10) $$$                                                                                150                                
PGRFAMCHA061001180610182840002230Naturally, Sadie                                  EP: 22                                                        C24010 1055607ACC3                             
PRCFAMCHA061001182840182852000012NSW - 20 - DARCY/RAVEN (APR06) (:11 - :13) $$$                                                                              150                                
PRCFAMCHA061001182852182900000008Darcy's Wild Life (NADM) NS or NSW (AUG06) - Comin                                                                          150                                
PROFAMCHA061001182900182909000009xxFamily Bumpers - (Phase 3 Spring 05) - Giant Foo                                                                          150                                
PROFAMCHA061001182909183001000052xxThat's So Raven (JUNE06) SHOW ME (NSW) - Tonight                                                                          150                                
PGRFAMCHA061001183001183103000102xxPlanet Rock Profiles - BNL - Starting Out       EP: 46                                                              A70687120                                
PROFAMCHA061001183103183147000044Zoey 101 - PHONE DIARY (NSW) (JUNE06) - Tonight @                                                                           150                                
PRCFAMCHA061001183147183203000016NSW Bumper $$$ - Tennis (:15-:17) APR06                                                                                     150                                
PRCFAMCHA061001183203183212000009CC Disclaimer - FAST - Family.ca (:08-:10) $$$                                                                              150                                
PGRFAMCHA061001183212185342002130Darcy's Wild Life                                 EP: 06                                                        A03953 1065607BCC                              
PRCFAMCHA061001185342185347000005Astral ID (FEB05) $$$                                                                                                       150                                
PRCFAMCHA061001185347185359000012NSW - 21 - RAVEN/ZOEY (MAY06) (:11 - :13) $$$                                                                               150                                
PROFAMCHA061001185359185451000052xxThat's So Raven (JUNE06) SHOW ME (NSW) - Coming                                                                           150                                
PROFAMCHA061001185451185525000034xxLittle Mermaid - Available Oct 3 (Sept 23 - Oct                                                                     A     150                                
PROFAMCHA061001185525185609000044Zoey 101 - PHONE DIARY (NSW) (JUNE06) - Tonight @                                                                           150                                
PGRFAMCHA061001185609185739000130Movie Surfers - Santa Clause 3 - Interstitial #1 C                                                                    A60688120                                
PRCFAMCHA061001185739185809000030xxLife with Derek (NSW) MORE FUN (OCT06) Tonight @                                                                          150                                
PROFAMCHA0610011858091858390000308 Simple Rules (JUN06) (NSW) TICKET - Tonight @ 8:                                                                          150                                
PRCFAMCHA061001185839185847000008Darcy's IDs - Sara - family.ca                                                                                              150                                
PRCFAMCHA061001185847185900000013NSW Bumper $$$ - Fashion (:12-:14) APR06                                                                                    150                                
PRCFAMCHA061001185900185909000009CC Disclaimer - FAST - Generic (:08-:10) $$$                                                                                150                                
PGRFAMCHA061001185909192148002239That's So Raven                                   EPS # 1-037                                                          6068607BCC                              
PRCFAMCHA061001192148192200000012NSW - 22 - ZOEY/DEREK (MAY06) (:11 - :13) $$$                                                                               150                                
PROFAMCHA061001192200192244000044Zoey 101 - PHONE DIARY (NSW) (JUNE06) - Coming Up                                                                           150                                
PRCFAMCHA061001192244192433000149xxFamily Lab - Disguise-o-matic (Oct1-Nov5) (2day                                                                           150                                
PROFAMCHA061001192433192452000019Suite Life of Z & C -MD Meditate Tomorrow @ 5:35 (                                                                          150                                
PRCFAMCHA061001192452192500000008NSW Bumper $$$ - Dodgeball (:07-:09) APR06                                                                                  150                                
PRCFAMCHA061001192500192509000009CC Disclaimer - FAST - Family.ca (:08-:10) $$$                                                                              150                                
PGRFAMCHA061001192509194741002232Zoey 101                                          EPS # 05                                                             2068807BCC                              
PRCFAMCHA061001194741194746000005Astral ID (FEB05) $$$                                                                                                       150                                
PRCFAMCHA061001194746194758000012NSW - 23 - DEREK/8 SIMPLE (APR06) (:11 - :13) $$$                                                                           150                                
PRCFAMCHA061001194758194828000030xxLife with Derek (NSW) MORE FUN (OCT06) Coming Up                                                                          150                                
PROFAMCHA061001194828194902000034xxLittle Mermaid - Available Oct 3 (Sept 23 - Oct                                                                     A     150                                
PROFAMCHA0610011949021949320000308 Simple Rules (JUN06) (NSW) TICKET - Tonight @ 8:                                                                          150                                
PROFAMCHA061001194932194941000009xxFamily Bumpers - (Phase 3 Spring 05) - Hip Hop (                                                                          150                                
PROFAMCHA061001194941194955000014Bonnie - Life With NSW - Tonight @ 8:40 (Sept 06)                                                                           150                                
PROFAMCHA061001194955195050000055So Little Time (NS) (APR06) Watching TV - Tomorrow                                                                          150                                
PRCFAMCHA061001195050195106000016NSW Bumper $$$ - Tennis (:15-:17) APR06                                                                                     150                                
PRCFAMCHA061001195106195115000009CC Disclaimer - FAST - Generic (:08-:10) $$$                                                                                150                                
PGRFAMCHA061001195115201345002230Life With Derek                                   EP: 01                                                        C23968A1055607BCC3                             
PRCFAMCHA061001201345201357000012NSW - 24 - 8 SIMPLE/BONNIE (SEPT06) (:11 - :13) $$                                                                          150                                
PROFAMCHA0610012013572014120000158 Simple Rules (JUN06) (NS/NSW) PROFILES - Coming                                                                           150                                
PRCFAMCHA061001201412201431000019xxLife WD Derek Bloopers #8 (NS/NSW)                                                                                        150                                
PROFAMCHA061001201431201445000014Bonnie - Life With NSW - Tonight @ 8:40 (Sept 06)                                                                           150                                
PRCFAMCHA061001201445201459000014NSW Bumper $$$ - Fashion (:12-:14) APR06                                                                                    150                                
PRCFAMCHA061001201459201508000009CC Disclaimer - FAST - Family.ca (:08-:10) $$$                                                                              150                                
PGRFAMCHA0610012015082036460021388 Simple Rules                                    EP: 13                                                              B2068807BCC                              
PRCFAMCHA061001203646203651000005Astral ID (FEB05) $$$                                                                                                       150                                
PRCFAMCHA061001203651203704000013NSW - 25 - BONNIE/NPIX (SEPT06) (:11 - :13) $$$                                                                             150                                
PROFAMCHA061001203704203718000014Bonnie - Life With NSW - Coming Up Next (Sept 06)                                                                           150                                
PROFAMCHA061001203718203750000032Sinbad Show NS Dance (SEPT06) Tomorrow @ 9                                                                                  150                                
PRCFAMCHA061001203750203759000009NSW Bumper $$$ - Dodgeball (:07-:09) APR06                                                                                  150                                
PGRFAMCHA061001203759205936002137Life With Bonnie                                  EP: 04                                                               2068507B                                
PRCFAMCHA061001205936205949000013NSW - 26 - NPIX/MOVIE ENT (SEPT06) (:11 - :13) $$$                                                                          150                                
PROFAMCHA061001205949210002000013xxNightly Pix Movie Open (:10-:15)                                                                                          150                                
ID FAMCHA061001210002210011000009Rating - 14A - (DEC05) (:08 - :10) $$$                                                                                      150                                
PGRFAMCHA061001210011225409015358I'll Do Anything                                                                                                       2068807D                                
PRCFAMCHA061001225409225414000005Astral ID (FEB05) $$$                                                                                                       150                                
PRCFAMCHA061001225414225426000012NSW - 27 - MOVIE ENT/NPIX (SEPT06) (:11 - :13) $$$                                                                          150                                
PRCFAMCHA061001225426225503000037xxMovie Entertainment - Coming Up Next (APR 06)                                                                             150                                
PROFAMCHA061001225503225516000013xxNightly Pix Movie Open (:10-:15)                                                                                          150                                
PRCFAMCHA061001225516231116001600Movie Entertainment (1)                                                                                               B     150                                
PRCFAMCHA061001231116231128000012NSW - 28 - NPIX/RADIO (SEPT06) (:11 - :13) $$$                                                                              150                                
PROFAMCHA061001231128231141000013xxNightly Pix Movie Open (:10-:15)                                                                                          150                                
ID FAMCHA061001231141231150000009Rating - 14A - (DEC05) (:08 - :10) $$$                                                                                      150                                
PGRFAMCHA061001231150004411013221Arachnophobia                                                                                                         C6068807D                                
PRCFAMCHA061001004411004416000005Astral ID (FEB05) $$$                                                                                                       150                                
PRCFAMCHA061001004416004428000012NSW - 29 - RADIO/SPIDERMAN (SEPT06) (:11 - :13) $$                                                                          150                                
PROFAMCHA061001004428004445000017Nonstop Block Open (:16-:18) APR06 $$$                                                                                      150                                
PRCFAMCHA061001004445004454000009CC Disclaimer - SLOW - Family.ca (:08-:10) $$$                                                                              150                                
PGRFAMCHA061001004454010724002230Radio Free Roscoe                                 EPS # 18                                                      B88731A1065607ACC                              
PRCFAMCHA061001010724010736000012NSW - 30 - SPIDER (APR06) (:11 - :13) $$$                                                                                   150                                
PROFAMCHA061001010736010753000017Nonstop Weekend Block Open (:16-:18) APR06 $$$                                                                              150                                
PGRFAMCHA061001010753012937002144Spiderman                                         EP: 03                                                        C02618 1065607E                                
PRCFAMCHA061001012937012945000008NSW Bumper $$$ - Dodgeball (:07-:09) APR06                                                                                  150                                
PRCFAMCHA061001012945013000000015Astral - LOVE $$$                                                                                                           150                                
SO FAMCHA061001013000013012000012Sign Off                                                                                                                                                       
OFFFAMCHA061001013012043000025948OFF AIR                                                                                                                                                        
SO FAMCHA061002043000043011000011Sign On (oct 1)                                                                                                                                                
PRCFAMCHA061002043011043020000009CC Disclaimer - FAST - Family.ca (:08-:10) $$$                                                                              150                                
PGRFAMCHA061002043020045658002638Katie And Orbie                                   EP: 6-069                                                     B62272A1065607ECC                              
PRCFAMCHA061002045658045703000005Astral ID (FEB05) $$$                                                                                                       150                                
PRCFAMCHA061002045703045718000015PH - 04 - FRANNY/SOMETHING/HOZE  (:14 - :16) (APR0                                                                          150                                
ID FAMCHA061002045718045731000013PS Playhouse AM Block Open (:10-:15) $$$                                                                                    150                                
PRCFAMCHA061002045731045740000009CC Disclaimer - FAST - Generic (:08-:10) $$$                                                                                150                                
PGRFAMCHA061002045740052010002230Franny's Feet                                     EPS # 33                                                      C23971 1065607ECC                              
PRCFAMCHA061002052010052026000016PH - 05 - SOMETHING/HOZE/KING (:14 - :16) (APR06)                                                                           150                                
ID FAMCHA061002052026052039000013PS Playhouse AM Block Open (:10-:15) $$$                                                                                    150                                
PRCFAMCHA061002052039052048000009CC Disclaimer - FAST - Family.ca (:08-:10) $$$                                                                              150                                
PGRFAMCHA061002052048054319002231Something Else                                    EP: 1-002                                                     B69256A1065607ECC                              
PRCFAMCHA061002054319054324000005Astral ID (FEB05) $$$                                                                                                       150                                
PRCFAMCHA061002054324054340000016PH - 06 - HOZE/KING/SPIDERMAN (:14 - :16) (APR06)                                                                           150                                
ID FAMCHA061002054340054353000013PS Playhouse AM Block Open (:10-:15) $$$                                                                                    150                                
PRCFAMCHA061002054353054402000009CC Disclaimer - FAST - Generic (:08-:10) $$$                                                                                150                                
PGRFAMCHA061002054402060640002238Hoze Houndz                                       EP: 5-060                                                     B63396A1065607ECC                              
PRCFAMCHA061002060640060656000016PH - 07 - KING/SPIDERMAN/KIM  (:14 - :16) (APR06)                                                                           150                                
ID FAMCHA061002060656060709000013PS Playhouse AM Block Open (:10-:15) $$$                                                                                    150                                
PRCFAMCHA061002060709060718000009CC Disclaimer - FAST - Family.ca (:08-:10) $$$                                                                              150                                
PGRFAMCHA061002060718062948002230King                                              EP: 4-049                                                     C25350A1065607ECC                              
PRCFAMCHA061002062948062953000005Astral ID (FEB05) $$$                                                                                                       150                                
PRCFAMCHA061002062953063009000016PH - 08- SPIDERMAN/KIM ( (:14 - :16) (APR06) $$$                                                                            150                                
PROFAMCHA061002063009063028000019MadMadMornings Block Open $$$                                                                                               150                                
PGRFAMCHA061002063028065213002145Spiderman                                         EP: 23                                                        C02618 1065607E                                
PRCFAMCHA061002065213065228000015MMM - 01 (AM) - KIM/RECESS/WEEKENDERS (OCT05) (:14                                                                          150                                
PROFAMCHA061002065228065244000016xxKim Possible FINGER TAUNT (MMM) (July 06) Coming                                                                          150                                
PROFAMCHA061002065244065254000010FAMJAM - Open/Close                                                                                                         150                                
PGRFAMCHA061002065254065524000230MV Disney - (FAMILY HITS) That's So Raven Theme So                                                                     60688120                                
PROFAMCHA061002065524065538000014xxFAMJAM - Close (FAMILY) xxDNUxx                                                                                           150                                
PROFAMCHA061002065538065547000009Raven ID's II - You're Watching Family, NADM                                                                                150                                
PROFAMCHA061002065547065606000019MadMadMornings Block Open $$$                                                                                               150                                
PRCFAMCHA061002065606065615000009CC Disclaimer - FAST - Generic (:08-:10) $$$                                                                                150                                
PGRFAMCHA061002065615071905002250Disney's Kim Possible                             EP: 1-005                                                           A6068607ECC                              
PRCFAMCHA061002071905071910000005Astral ID (FEB05) $$$                                                                                                       150                                
PRCFAMCHA061002071910071925000015MMM - 02 (AM) - RECESS/WEEKENDERS/LILO (OCT05) (:1                                                                          150                                
PROFAMCHA061002071925071950000025Recess - CAREER DAY (MMM) - (JULY06) - Coming Up N                                                                          150                                
PROFAMCHA061002071950072024000034xxLittle Mermaid - Available Oct 3 (Sept 23 - Oct                                                                     A     150                                
PROFAMCHA061002072024072049000025xxLilo & Stitch (MMM) (APR06) CRAM - This Morning                                                                           150                                
PROFAMCHA061002072049072058000009xxFamily Bumpers - (Phase 3 Spring 05) - Hip Hop (                                                                          150                                
PROFAMCHA061002072058072132000034Proud Family (JULY06) MOM YELLS (MD) -  This After                                                                          150                                
PRCFAMCHA061002072132072313000141xxFamily Lab - Anti Gravity Rocket Pack (Oct1-Nov5                                                                          150                                
PROFAMCHA061002072313072343000030Suite Life of Z & C -MD Disclaimer (concept) This                                                                           150                                
PROFAMCHA061002072343072402000019MadMadMornings Block Open $$$                                                                                               150                                
PGRFAMCHA061002072402074637002235Disney's Recess                                   EP: 1-040                                                           A6068607E                                
PRCFAMCHA061002074637074653000016PH - 09 - WEEKENDERS/LILO/EINSTEINS (:14 - :16) (A                                                                          150                                
PROFAMCHA061002074653074729000036Weekenders - PIZZA (MMM) - (APR06) - Coming Up Nex                                                                          150                                
PROFAMCHA061002074729074736000007MadMadMornings Bumper                                                                                                       150                                
PROFAMCHA061002074736074817000041Brandy & Mr. Whiskers (Lifeguard] This afternoon @                                                                          150                                
PROFAMCHA061002074817074827000010FAMJAM - Open/Close                                                                                                         150                                
PGRFAMCHA061002074827074957000130MV Disney - (FAMILY HITS) That's So Raven Theme So                                                                     60688120                                
PROFAMCHA061002074957075011000014xxFAMJAM - Close (FAMILY) xxDNUxx                                                                                           150                                
PROFAMCHA061002075011075036000025xxRecess Sketches - Gretchen's Inventions - SMOKE                                                                           150                                
PROFAMCHA061002075036075055000019MadMadMornings Block Open $$$                                                                                               150                                
PRCFAMCHA061002075055075104000009CC Disclaimer - FAST - Family.ca (:08-:10) $$$                                                                              150                                
PGRFAMCHA061002075104081358002254Disney's The Weekenders                           EP: 1-003                                                           A6068607ECC                              
PRCFAMCHA061002081358081403000005Astral ID (FEB05) $$$                                                                                                       150                                
PRCFAMCHA061002081403081418000015PH - 10 - LILO/EINSTEINS/WINNIE (:14 - :16) (APR06                                                                          150                                
PROFAMCHA061002081418081451000033Lilo & Stitch (MMM) DANCE (JUNE06) - coming Up Nex                                                                          150                                
PROFAMCHA061002081451081525000034xxLittle Mermaid - Available Oct 3 (Sept 23 - Oct                                                                     A     150                                
PROFAMCHA061002081525081602000037xxLloyd In Space (Star Wars) (APR06) - Today @ 3:2                                                                          150                                
PGRFAMCHA061002081602081708000106xxPlanet Rock Profiles - BNL - Humour             EP: 46                                                              A70687120                                
PROFAMCHA061002081708081741000033xxDave the Barbarian - RACE CAR (MD) - This Aftern                                                                          150                                
PROFAMCHA061002081741081800000019MadMadMornings Block Open $$$                                                                                               150                                
PRCFAMCHA061002081800081809000009CC Disclaimer - FAST - Generic (:08-:10) $$$                                                                                150                                
PGRFAMCHA061002081809084048002239Disney's Lilo & Stitch                            EPS # 18                                                            A6068607ECC                              
PRCFAMCHA061002084048084103000015xxPH - 09 -EINSTEINS/WINNIE/PB&J  (:14 - :16) (APR                                                                          150                                
PROFAMCHA061002084103084133000030Little Einstein (PH) (PRESCHOOL) - Coming Up Next                                                                           150                                
PGRFAMCHA061002084133084421000248MV Disney - (PH) - Teacher's Pet (Christy Romano)                                                                      60688120                                
PRCFAMCHA061002084421084451000030Franny's Feet - Concept (APR06)(PH-Mon) - This Mor                                                                          150                                
ID FAMCHA061002084451084504000013PS Playhouse AM Block Open (:10-:15) $$$                                                                                    150                                
PGRFAMCHA061002084504090909002405Disney's Little Einsteins                         EP: 09                                                               6068607E                                
PRCFAMCHA061002090909090914000005Astral ID (FEB05) $$$                                                                                                       150                                
PRCFAMCHA061002090914090929000015xxPH - 04 - WINNIE/PB&J/JOJO (FEB06) (:14 - 16)                                                                             150                                
PROFAMCHA061002090929090959000030Winnie the Pooh (PH/AM) (APR06) - Coming Up Next                                                                            150                                
PROFAMCHA061002090959091028000029Playhouse - WINNIE THE POOH - Tigger Bounce                                                                                 150                                
PRCFAMCHA061002091028091048000020Benjamin Bear - Snack (PHTue) (APR06) - Tomorrow M                                                                          150                                
ID FAMCHA061002091048091101000013PS Playhouse AM Block Open (:10-:15) $$$                                                                                    150                                
PRCFAMCHA061002091101091110000009CC Disclaimer - FAST - Family.ca (:08-:10) $$$                                                                              150                                
PGRFAMCHA061002091110093346002236The New Adventures of Winnie the Pooh             EP: 1-043                                                            6068607ECC                              
PRCFAMCHA061002093346093402000016xxPH - 11 -PB&J/JOJO/FRANNY  (:14 - :16) (APR06)                                                                            150                                
PRCFAMCHA061002093402093417000015Franny's Feet - Bowleriffic (PH-Mon) - (APR06) - T                                                                          150                                
PROFAMCHA061002093417093447000030Higglytown - Kids Love - PH Wed morning @ 10:30                                                                             150                                
PROFAMCHA061002093447093553000106Playhouse - WINNIE THE POOH - Christopher Robin                                                                             150                                
PROFAMCHA061002093553093653000100Mickey Mouse Clubhouse (Video 2) Friday morn @ 10:                                                                          150                                
ID FAMCHA061002093653093705000012PS Playhouse AM Block Open (:10-:15) $$$                                                                                    150                                
PRCFAMCHA061002093705093714000009CC Disclaimer - FAST - Generic (:08-:10) $$$                                                                                150                                
PGRFAMCHA061002093714100044002330PB&J Otter                                        EP: 2-029                                                           A6068607ECC                              
PRCFAMCHA061002100044100049000005Astral ID (FEB05) $$$                                                                                                       150                                
PRCFAMCHA061002100049100105000016PH - 14 -JOJO/FRANNY/STANLEY  (:14 - :16) (APR06)                                                                           150                                
PROFAMCHA061002100105100139000034xxJojo's Circus - GIGGLECORN - Coming Up Next                                                                               150                                
PGRFAMCHA061002100139100314000135They Might Be Giants (ABC's) - Letter Shapes                                                                           60688120                                
PRCFAMCHA061002100314100345000031King (PH) (APR06) - This Morning @ 11:25am                                                                                  150                                
ID FAMCHA061002100345100359000014PS Playhouse AM Block Open (:10-:15) $$$                                                                                    150                                
PGRFAMCHA061002100359102804002405Jojo's Circus                                     EP: 59                                                               6068607E                                
PRCFAMCHA061002102804102820000016PH - 15 -FRANNY/STANLEY/KING (:14 - :16) (APR06) $                                                                          150                                
PRCFAMCHA061002102820102850000030Franny's Feet - Concept  (APR06)(PH-M/Wknd) - Comi                                                                          150                                
PROFAMCHA061002102850102929000039Princess Block - Be A Princess (Fashion) PH 1 per                                                                           150                                
PROFAMCHA061002102929103029000100Mickey Mouse Clubhouse (Video 1) Friday morn @ 10:                                                                          150                                
PRCFAMCHA061002103029103048000019Playhouse - HOZE HOUNDZ - Code Blue                                                                                         150                                
ID FAMCHA061002103048103101000013PS Playhouse AM Block Open (:10-:15) $$$                                                                                    150                                
PRCFAMCHA061002103101103110000009CC Disclaimer - FAST - Family.ca (:08-:10) $$$                                                                              150                                
PGRFAMCHA061002103110105340002230Franny's Feet                                     EPS # 1-007                                                   C23970A1065607ECC                              
PRCFAMCHA061002105340105345000005Astral ID (FEB05) $$$                                                                                                       150                                
PRCFAMCHA061002105345105400000015PH - 16 -STANLEY/KING/RECESS (:14- :16) (APR06) $$                                                                          150                                
PRCFAMCHA061002105400105430000030Stanley - Get Into It (MAR05) - (PH-M/W/F) - Comin                                                                          150                                
PGRFAMCHA061002105430105545000115They Might Be Giants (ABC's) - QU                                                                                      60688120                                
PROFAMCHA061002105545105615000030Little Einstein (PH) (PRESCHOOL) - Tomorrow @ 8:45                                                                          150                                
PROFAMCHA061002105615105645000030Winnie the Pooh (PH/AM) (APR06) - Tomorrow Morning                                                                          150                                
ID FAMCHA061002105645105700000015PS Playhouse AM Block Open (:10-:15) $$$                                                                                    150                                
PRCFAMCHA061002105700105709000009CC Disclaimer - FAST - Generic (:08-:10) $$$                                                                                150                                
PGRFAMCHA061002105709112114002405Stanley                                           EP: 1-040                                                           A6068607ECC                              
PRCFAMCHA061002112114112130000016PH - 17 -KING/RECESS/KIM (:14 - :16) (APR06) $$$                                                                            150                                
PRCFAMCHA061002112130112201000031King (PH) (APR06) - Coming Up Next                                                                                          150                                
PRCFAMCHA061002112201112228000027Playhouse Web Promo - Family.ca                                                                                             150                                
PRCFAMCHA061002112228112243000015Franny's Feet - Bowleriffic (PH-Mon) - (APR06) - T                                                                          150                                
PGRFAMCHA061002112243112428000145They Might Be Giants (ABC's) - D and W                                                                                 60688120                                
PRCFAMCHA061002112428112440000012Benjamin Bear - Slide (PH-Tue) (APR06) - Tomorrow                                                                           150                                
ID FAMCHA061002112440112455000015PS Playhouse AM Block Open (:10-:15) $$$                                                                                    150                                
PRCFAMCHA061002112455112504000009CC Disclaimer - FAST - Family.ca (:08-:10) $$$                                                                              150                                
PGRFAMCHA061002112504114734002230King                                              EPS # 2-022                                                   B75777A1065607ECC                              
PRCFAMCHA061002114734114739000005Astral ID (FEB05) $$$                                                                                                       150                                
PRCFAMCHA061002114739114751000012MD - 01 - RECESS/KIM (APR06) (:11 - :13) $$$                                                                                150                                
PROFAMCHA061002114751114807000016xxKim Possible FINGER TAUNT (MD) (July 06) This af                                                                          150                                
PROFAMCHA061002114807114843000036Weekenders - PIZZA (MD) - (APR06) - This Afternoon                                                                          150                                
PROFAMCHA061002114843114900000017Mad Dash Block Open (:16-:18) APR06 $$$                                                                                     150                                
PGRFAMCHA061002114900121135002235Disney's Recess                                   EP: 1-004                                                            6068607E                                
PRCFAMCHA061002121135121147000012MD - 02 - KIM/WEEKENDERS (APR06) (:11 - :13) $$$                                                                            150                                
PROFAMCHA061002121147121219000032xxKim Possible RON FACTOR (MD) (July 06)  Coming U                                                                          150                                
PROFAMCHA061002121219121256000037xxLloyd In Space (Star Wars) (APR06) - Today @ 3:2                                                                          150                                
PRCFAMCHA061002121256121305000009MD Bumper $$$ - Race Cars (:08-:10) APR06                                                                                   150                                
PRCFAMCHA061002121305121314000009CC Disclaimer - FAST - Generic (:08-:10) $$$                                                                                150                                
PGRFAMCHA061002121314123608002254Disney's Kim Possible                             EPS # 1-044                                                         A6068607ECC                              
PRCFAMCHA061002123608123613000005Astral ID (FEB05) $$$                                                                                                       150                                
PRCFAMCHA061002123613123626000013MD - 03 - WEEKENDERS/LLOYD (APR06) (:11 - :13) $$$                                                                          150                                
PROFAMCHA061002123626123651000025xxLilo & Stitch (MD) CRAM (APR06) - This Afternoon                                                                          150                                
PRCFAMCHA061002123651123700000009MD Bumper - $$$ Ski Race (:07-:09) APR06                                                                                    150                                
PRCFAMCHA061002123700123709000009CC Disclaimer - FAST - Family.ca (:08-:10) $$$                                                                              150                                
PGRFAMCHA061002123709125941002232Disney's The Weekenders                           EP: 1-020                                                           A6068607ECC                              
PRCFAMCHA061002125941125953000012MD - 04 - LLOYD/BRANDY (APR06) (:11 - :13) $$$                                                                              150                                
PRCFAMCHA061002125953130009000016MD Bumper - $$$ Shopping Race (:15-:17) APR06                                                                               150                                
ID FAMCHA061002130009130017000008Magic of Disney - MAD DASH - Shape (:06-:09) $$$                                                                            150                                
PGRFAMCHA061002130017132310002253Disney's Lloyd In Space                           EP: 13                                                               6068607E                                
PRCFAMCHA061002132310132315000005Astral ID (FEB05) $$$                                                                                                       150                                
PRCFAMCHA061002132315132327000012MD - 05 - BRANDY/LILO (APR06) (:11 - :13) $$$                                                                               150                                
PROFAMCHA061002132327132408000041Brandy & Mr. Whiskers (Earsick] Coming Up Next (Au                                                                          150                                
PRCFAMCHA061002132408132417000009MD Bumper $$$ - Race Cars (:08-:10) APR06                                                                                   150                                
ID FAMCHA061002132417132425000008Magic of Disney - MAD DASH - Shape (:06-:09) $$$                                                                            150                                
PGRFAMCHA061002132425134702002237Disney's Brandy & Mr. Whiskers                    EP: 13                                                               6068607E                                
PRCFAMCHA061002134702134714000012MD - 06 - LILO/FILLMORE! (APR06) (:11 - :13) $$$                                                                            150                                
PROFAMCHA061002134714134747000033Lilo & Stitch (MD) DANCE (JUNE06) - Coming up next                                                                          150                                
PRCFAMCHA061002134747134755000008MD Bumper - $$$ Ski Race (:07-:09) APR06                                                                                    150                                
PGRFAMCHA061002134755141034002239Disney's Lilo & Stitch: The Series                EPS # 41                                                             6068607E                                
PRCFAMCHA061002141034141039000005Astral ID (FEB05) $$$                                                                                                       150                                
PRCFAMCHA061002141039141051000012MD - 07 - FILLMORE!/PROUD (APR06) (:11 - :13) $$$                                                                           150                                
PROFAMCHA061002141051141113000022Fillmore! - POLLY (MD) (APR06) - coming up next                                                                             150                                
PROFAMCHA061002141113141147000034Proud Family (JULY06) MOM YELLS (MD) -  This After                                                                          150                                
PRCFAMCHA061002141147141203000016MD Bumper - $$$ Shopping Race (:15-:17) APR06                                                                               150                                
PGRFAMCHA061002141203143441002238Disney's Fillmore!                                EPS # 1-026                                                         A6068607E                                
PRCFAMCHA061002143441143453000012MD - 08 - PROUD/WEEKENDERS (APR06) (:11 - :13) $$$                                                                          150                                
PROFAMCHA061002143453143527000034Proud Family (JULY06) MOM YELLS (MD) -  Coming Up                                                                           150                                
PROFAMCHA061002143527143536000009xxFamily Bumpers - (Phase 2 F/W 04) - Halloween (M                                                                          150                                
PROFAMCHA061002143536143552000016xxEmperor's New School KOOKOO - NSW - Weekend afte                                                                          150                                
PRCFAMCHA061002143552143601000009MD Bumper $$$ - Race Cars (:08-:10) APR06                                                                                   150                                
PRCFAMCHA061002143601143610000009CC Disclaimer - FAST - Generic (:08-:10) $$$                                                                                150                                
PGRFAMCHA061002143610145840002230The Proud Family                                  EP: 2-032                                                           A6068607ECC                              
PRCFAMCHA061002145840145845000005Astral ID (FEB05) $$$                                                                                                       150                                
PRCFAMCHA061002145845145857000012MD - 09 - WEEKENDERS/LLOYD (APR06) (:11 - :13) $$$                                                                          150                                
PROFAMCHA061002145857145933000036Weekenders - PIZZA (MD) - (APR06) - Coming Up Next                                                                          150                                
PROFAMCHA061002145933145940000007Aly & A.J. IDs - (ALY) You're Watching Family, NAD                                                                          150                                
PROFAMCHA061002145940145958000018Mad Dash Block Open (:16-:18) APR06 $$$                                                                                     150                                
PRCFAMCHA061002145958150007000009CC Disclaimer - FAST - Family.ca (:08-:10) $$$                                                                              150                                
PGRFAMCHA061002150007152241002234Disney's The Weekenders                           EP: 1-025                                                           A6068607ECC                              
PRCFAMCHA061002152241152253000012MD - 10 - LLOYD/DAVE (APR06) (:11 - :13) $$$                                                                                150                                
PROFAMCHA061002152253152332000039Lloyd In Space (NOTES) (AUG06) MD- Coming Up Next                                                                           150                                
PRCFAMCHA061002152332152402000030xxHalloween Contest (Oct06) Starting Oct 1 (3-5xda                                                                          150                                
PROFAMCHA061002152402152436000034Proud Family (APR06) GET BURNED (MD) - This Aftern                                                                          150                                
PROFAMCHA061002152436152455000019Suite Life of Z & C -MD Meditate This afternoon @                                                                           150                                
PRCFAMCHA061002152455152503000008MD Bumper - $$$ Ski Race (:07-:09) APR06                                                                                    150                                
ID FAMCHA061002152503152511000008Magic of Disney - MAD DASH - Shape (:06-:09) $$$                                                                            150                                
PGRFAMCHA061002152511154806002255Disney's Lloyd In Space                           EP: 07                                                               6068607E                                
PRCFAMCHA061002154806154811000005Astral ID (FEB05) $$$                                                                                                       150                                
PRCFAMCHA061002154811154823000012MD - 11 - DAVE/PROUD (APR06) (:11 - :13) $$$                                                                                150                                
PROFAMCHA061002154823154841000018xxDave the Barbarian - COOL PANT (MD) - Coming Up                                                                           150                                
PROFAMCHA061002154841154915000034xxLittle Mermaid - Available Oct 3 (Sept 23 - Oct                                                                     A     150                                
PROFAMCHA061002154915154924000009xxFamily Bumpers - (Phase 3 Spring 05) - Giant Foo                                                                          150                                
PRCFAMCHA061002154924155113000149xxFamily Lab - Disguise-o-matic (Oct1-Nov5) (2day                                                                           150                                
PROFAMCHA061002155113155147000034Recess - HEROES (MD) - (APR06) - This Atft @ 4:40p                                                                          150                                
PRCFAMCHA061002155147155203000016MD Bumper - $$$ Shopping Race (:15-:17) APR06                                                                               150                                
PRCFAMCHA061002155203155212000009CC Disclaimer - FAST - Generic (:08-:10) $$$                                                                                150                                
PGRFAMCHA061002155212161451002239Disney's Dave the Barbarian                       EPS # 04                                                             6068607ECC                              
PRCFAMCHA061002161451161503000012MD - 12 - PROUD/RECESS (APR06) (:11 - :13) $$$                                                                              150                                
PROFAMCHA061002161503161537000034Proud Family (JULY06) MOM YELLS (MD) -  Coming Up                                                                           150                                
PROFAMCHA061002161537161602000025xxRecess Sketches - Gretchen's Inventions - MICRO                                                                           150                                
