SO FAMCHA021101043000043011000011Sign On (oct 1)                                                                                                                                                
PROFAMCHA021101043011043020000009CC Disclaimer - FAST - Generic (:08-:10)                                                                                    150                                
PGRFAMCHA021101043020045321002301Out of the Box                                    Whodunit?                                                           A6068607ACC                              
ID FAMCHA021101045321045326000005Generic ID - Couch 2*                                                                                                       150                                
PRCFAMCHA021101045326045350000024Franklin (LADDER) - Today @ 8:25am                                                                                          150                                
PROFAMCHA021101045350045400000010xxPS Line-Up - 01 - ART/KATIE/HOZE                                                                                          150                                
PGRFAMCHA021101045400051400002000Art Attack                                        1-061                                                                60686110                                
ID FAMCHA021101051400051405000005Generic ID - Couch 1*                                                                                                       150                                
PROFAMCHA021101051405051415000010xxPS Line-Up - 02 - KATIE/HOZE/LULU                                                                                         150                                
PROFAMCHA021101051415051424000009CC Disclaimer - FAST - Family (:08-:10)                                                                                     150                                
PGRFAMCHA021101051424054059002635Katie And Orbie                                   Lulu/The Farm/Splash                                          C11896A1065607ECC                              
ID FAMCHA021101054059054104000005Generic ID - Couch 2*                                                                                                       150                                
PROFAMCHA021101054104054114000010xxPS Line-Up - 03 - HOZE/LULU/GOOF                                                                                          150                                
PROFAMCHA021101054114054123000009CC Disclaimer - FAST - Family.ca (:08-:10)                                                                                  150                                
PGRFAMCHA021101054123060358002235Hoze Houndz                                       Jail Houndz/Crystal Clear                                     B34012A1065607ECC                              
ID FAMCHA021101060358060408000010Generic ID - Pink inner tube                                                                                                150                                
PRCFAMCHA021101060408060430000022Hoze Houndz (FIREFIGHTER) - Today @ 11:15am                                                                                 150                                
PROFAMCHA021101060430060450000020Recess (BALLS) - Today @ 5:10pm                                                                                             150                                
PROFAMCHA021101060450060500000010xxPS Line-Up - 04 - LULU/GOOF/HOM                                                                                           150                                
PROFAMCHA021101060500060509000009CC Disclaimer - FAST - Generic (:08-:10)                                                                                    150                                
PGRFAMCHA021101060509063128002619Little Lulu Show; The                             Gilbert The Gorilla/Snow Business/The case of the             C19574A1065607ECC                              
ID FAMCHA021101063128063133000005Generic ID - Marbles                                                                                                        150                                
PROFAMCHA021101063133063143000010xxPS Line-Up - 05 - GOOF/HOM/BUZZ                                                                                           150                                
ID FAMCHA021101063143063153000010xxMagic of Disney - V3(water) - KID FEMALE                                                                                  150                                
PROFAMCHA021101063153063202000009CC Disclaimer - FAST - Family (:08-:10)                                                                                     150                                
PGRFAMCHA021101063202065448002246Goof Troop                                        Dr. Horatio's Magic Orchestra                                        6068607ECC                              
ID FAMCHA021101065448065458000010Generic ID - Pink inner tube                                                                                                150                                
PRCFAMCHA021101065458065520000022Hoze Houndz (FIREFIGHTER) - Today @ 11:15am                                                                                 150                                
PROFAMCHA021101065520065532000012Buzz Lightyear (SPACE RANGER) - Today @ 7:30am                                                                              150                                
INTFAMCHA021101065532065910000338Art Attack - Hot Air Balloon                                                                                           60686120                                
ID FAMCHA021101065910065923000013Schoolhouse Promo - This Morning                                                                                            150                                
PROFAMCHA021101065923065950000027Pepper Ann (WHO IS SHE?) - Today @ 3:50pm                                                                                   150                                
PROFAMCHA021101065950070000000010xxPS Line-Up - 06 - HOM/BUZZ/LULU                                                                                           150                                
PGRFAMCHA021101070000072232002232Disney's House Of Mouse                           The Mouse Who Came To Dinner                                        A6068607E                                
ID FAMCHA021101072232072242000010Generic ID - Pink inner tube                                                                                                150                                
PROFAMCHA021101072242072254000012Buzz Lightyear (SPACE RANGER) - Coming Up                                                                                   150                                
PRCFAMCHA021101072254072318000024Franklin (LADDER) - Today @ 8:25am                                                                                          150                                
ID FAMCHA021101072318072331000013Schoolhouse Promo - Coming Up                                                                                               150                                
PRCFAMCHA021101072331072353000022Hoze Houndz (FIREFIGHTER) - Today @ 11:15am                                                                                 150                                
INTFAMCHA021101072353072716000323Schoolhouse Rock - The Check's In The Mail                                                                            A60686120                                
INTFAMCHA021101072716072950000234Art Attack - Shopping Cart                                                                                             60686120                                
PROFAMCHA021101072950073005000015xxPS Line-Up - 07 - BUZZ/LULU/FRANKLIN                                                                                      150                                
PROFAMCHA021101073005073014000009CC Disclaimer - FAST - Family (:08-:10)                                                                                     150                                
PGRFAMCHA021101073014075254002240Disney/Pixar's Buzz Lightyear of Star Command     Little Secrets                                                       6068607ECC                              
ID FAMCHA021101075254075304000010Generic ID - Ring around the rosie                                                                                          150                                
PROFAMCHA021101075304075324000020Recess (BALLS) - Today @ 5:10pm                                                                                             150                                
ID FAMCHA021101075324075337000013Schoolhouse Promo - Coming Up                                                                                               150                                
PRCFAMCHA021101075337075359000022Hoze Houndz (FIREFIGHTER - NEW EPS) - Tomorrow @ 7                                                                          150                                
INTFAMCHA021101075359075722000323Schoolhouse Rock - Interjections                                                                                      A60686120                                
PRCFAMCHA021101075722075738000016xxHenry's World (SOCCER) - Tomorrow @ 6:40pm                                                                                150                                
PROFAMCHA021101075738075801000023Your Big Break (B-52) - Sunday @ 8pm                                                                                        150                                
INTFAMCHA021101075801075905000104Jack and Marcel: Ep.130 "Stop Making Scents"                                                                          A40688120                                
PROFAMCHA021101075905075955000050Art Attack (BASEBALL) - Tomorrow @ 3pm                                                                                      150                                
PROFAMCHA021101075955080005000010xxPS Line-Up - 08 - LULU/FRANKLIN/ELMO                                                                                      150                                
PROFAMCHA021101080005080014000009CC Disclaimer - FAST - Family.ca (:08-:10)                                                                                  150                                
PGRFAMCHA021101080014082405002351Little Lulu Show; The                             The Fuzzythings Poopi/Leaves for Everyone/A Moving            C19511A1065607ECC                              
ID FAMCHA021101082405082410000005Generic ID - Fingerpaint                                                                                                    150                                
PRCFAMCHA021101082410082434000024Franklin (LADDER) - Coming Up                                                                                               150                                
PRCFAMCHA021101082434082456000022Hoze Houndz (FIREFIGHTER) - Today @ 11:15am                                                                                 150                                
PROFAMCHA021101082456082509000013xxPS Line-Up - 09 - FRANKLIN/ELMO/KATIE                                                                                     150                                
PROFAMCHA021101082509082518000009CC Disclaimer - FAST - Generic (:08-:10)                                                                                    150                                
PGRFAMCHA021101082518084811002253Franklin                                          Franklin's Visitor/Franklin's Not-So-Broken Bone              B13640A1025607ECC                              
ID FAMCHA021101084811084816000005Generic ID - Couch 1*                                                                                                       150                                
PRCFAMCHA021101084816084838000022Hoze Houndz (FIREFIGHTER) - Today @ 11:15am                                                                                 150                                
PROFAMCHA021101084838084858000020Recess (BALLS) - Today @ 5:10pm                                                                                             150                                
PROFAMCHA021101084858084908000010xxPS Line-Up - 10 - ELMO/KATIE/STANLEY                                                                                      150                                
PGRFAMCHA021101084908090439001531Elmo's World                                      Computers                                                           A2068607G                                
ID FAMCHA021101090439090454000015Generic ID - confetti                                                                                                       150                                
PROFAMCHA021101090454090524000030Art Attack (HORSE) - Tomorrow @ 3pm                                                                                         150                                
INTFAMCHA021101090524090628000104Jack and Marcel: Ep.012 "Disillusion"                                                                                 A40688120                                
PRCFAMCHA021101090628090658000030xxHenry's World (TOOTH FAIRY) - Tomorrow @ 6:40pm                                                                           150                                
PROFAMCHA021101090658090725000027Pepper Ann (WHO IS SHE?) - Today @ 3:50pm                                                                                   150                                
PROFAMCHA021101090725090758000033Stanley (CAT BATH) - Today @ 9:35am                                                                                         150                                
PROFAMCHA021101090758090808000010xxPS Line-Up - 11 (MON/WED/FRI) - KATIE/STANLEY/WT                                                                          150                                
PROFAMCHA021101090808090817000009CC Disclaimer - FAST - Family (:08-:10)                                                                                     150                                
PGRFAMCHA021101090817093452002635Katie And Orbie                                   Lulu/The Farm/Splash                                          C11896A1065607ECC                              
PROFAMCHA021101093452093525000033Stanley (CAT BATH) - Coming Up                                                                                              150                                
PRCFAMCHA021101093525093548000023xxHenry's World (ICE CREAM) - Tomorrow @ 6:40pm                                                                             150                                
PROFAMCHA021101093548093600000012xxPS Line-Up - 12 (MON/WED/FRI) - STANLEY/WTP/OOTB                                                                          150                                
PROFAMCHA021101093600093609000009CC Disclaimer - FAST - Family.ca (:08-:10)                                                                                  150                                
PGRFAMCHA021101093609100007002358Stanley                                           Dolphin Talk/Whole Lotta' Snakin' Goin' On'                         A6068607ECC                              
ID FAMCHA021101100007100012000005Generic ID - Couch 2*                                                                                                       150                                
PROFAMCHA021101100012100051000039Recess (MAJORITY) - Today @ 5:10pm                                                                                          150                                
PROFAMCHA021101100051100101000010xxPS Line-Up - 13 (MON/WED/FRI) - WTP/OOTB/DUCKTAL                                                                          150                                
PROFAMCHA021101100101100110000009CC Disclaimer - FAST - Generic (:08-:10)                                                                                    150                                
PGRFAMCHA021101100110102351002241New Adventures of Winnie the Pooh; The            The Wishing Bear                                                     6068607ECC                              
ID FAMCHA021101102351102401000010Generic ID - Bubbles                                                                                                        150                                
PRCFAMCHA021101102401102427000026xxHenry's World (MERRY GO ROUND) - Tomorrow @ 6:40                                                                          150                                
PRCFAMCHA021101102427102449000022Hoze Houndz (FIREFIGHTER) - Today @ 11:15am                                                                                 150                                
PROFAMCHA021101102449102501000012Buzz Lightyear (SPACE RANGER) - Today @ 3:25pm                                                                              150                                
PROFAMCHA021101102501102551000050Art Attack (BASEBALL) - Tomorrow @ 3pm                                                                                      150                                
PROFAMCHA021101102551102601000010xxPS Line-Up - 14 - OOTB/DUCKTALES/HOZE                                                                                     150                                
PROFAMCHA021101102601102610000009CC Disclaimer - FAST - Generic (:08-:10)                                                                                    150                                
PGRFAMCHA021101102610104816002206Out of the Box                                    Goin' To The Grocery                                                A6068607ACC                              
ID FAMCHA021101104816104826000010Generic ID - Pink inner tube                                                                                                150                                
PRCFAMCHA021101104826104848000022Hoze Houndz (FIREFIGHTER) - Today @ 11:15am                                                                                 150                                
PRCFAMCHA021101104848104906000018Franklin (CAST) - Tomorrow @ 6:15pm                                                                                         150                                
PROFAMCHA021101104906104956000050Art Attack (BASEBALL) - Tomorrow @ 3pm                                                                                      150                                
PROFAMCHA021101104956105020000024Legend of Tarzan (S.O.S) - Today @ 4:15pm                                                                                   150                                
PRCFAMCHA021101105020105050000030xxHenry's World (TOOTH FAIRY) - Tomorrow @ 6:40pm                                                                           150                                
PROFAMCHA021101105050105100000010xxPS Line-Up - 15 - DUCKTALES/HOZE/LULU                                                                                     150                                
PROFAMCHA021101105100105109000009CC Disclaimer - FAST - Family (:08-:10)                                                                                     150                                
PGRFAMCHA021101105109111357002248Disney's DuckTales                                Bubbeo & Juliet                                                     A6068607ECC                              
ID FAMCHA021101111357111403000006Generic ID - soccer                                                                                                         150                                
PRCFAMCHA021101111403111425000022Hoze Houndz (FIREFIGHTER) - Coming Up                                                                                       150                                
PROFAMCHA021101111425111458000033Stanley (CAT BATH) - Today @ 1:20pm                                                                                         150                                
PROFAMCHA021101111458111528000030Mad Dash Block Promo - Today from 3pm to 6pm                                                                                150                                
PROFAMCHA021101111528111552000024Legend of Tarzan (S.O.S) - Today @ 4:15pm                                                                                   150                                
PROFAMCHA021101111552111600000008xxPS Line-Up - 16 - HOZE/LULU                                                                                               150                                
PROFAMCHA021101111600111608000008CC Disclaimer - FAST - Family.ca (:08-:10)                                                                                  150                                
PGRFAMCHA021101111608113843002235Hoze Houndz                                       The Day The Houndz Stood Still/Poeticize                      B34013A1065607ECC                              
ID FAMCHA021101113843113853000010Generic ID - Pink inner tube                                                                                                150                                
PROFAMCHA021101113853113923000030Mad Dash Block Promo - Today from 3pm to 6pm                                                                                150                                
PROFAMCHA021101113923113938000015Recess (SPRINKLER) - Today @ 5:05pm                                                                                         150                                
PROFAMCHA021101113938114002000024Legend of Tarzan (S.O.S) - Today @ 4:15pm                                                                                   150                                
PROFAMCHA021101114002114038000036Teamo Supremo (STINGER) - Tomorrow @ 5pm                                                                                    150                                
PRCFAMCHA021101114038114054000016xxHenry's World (SOCCER) - Tomorrow @ 6:40pm                                                                                150                                
PROFAMCHA021101114054114100000006xxPS Line-Up - 17 - LULU                                                                                                    150                                
PROFAMCHA021101114100114109000009CC Disclaimer - FAST - Generic (:08-:10)                                                                                    150                                
PGRFAMCHA021101114109120501002352Little Lulu Show; The                             The Big Jewel Robbery/Pot Luck/The Spook Tree                 C19511A1065607ECC                              
ID FAMCHA021101120501120511000010Generic ID - Family w/dog                                                                                                   150                                
PROFAMCHA021101120511120547000036Teamo Supremo (STINGER) - Tomorrow @ 5pm                                                                                    150                                
OFFFAMCHA021101120547120600000013Nonstop Block Open (:10-:15)                                                                                                                                   
PROFAMCHA021101120600120609000009CC Disclaimer - FAST - Generic (:08-:10)                                                                                    150                                
PGRFAMCHA021101120609122836002227Smart Guy                                         Don't Do That Thing You Do                                          A6068807BCC                              
ID FAMCHA021101122836122846000010Generic ID - Pink inner tube                                                                                                150                                
PROFAMCHA021101122846122919000033Stanley (CAT BATH) - Today @ 1:20pm                                                                                         150                                
PRCFAMCHA021101122919122941000022Hoze Houndz (FIREFIGHTER) - Today @ 3pm                                                                                     150                                
PROFAMCHA021101122941123017000036Teamo Supremo (STINGER) - Tomorrow @ 5pm                                                                                    150                                
PROFAMCHA021101123017123050000033Stanley (CAT BATH) - Today @ 1:20pm                                                                                         150                                
PROFAMCHA021101123050123100000010xxPS Line-Up - 18 - ELMO/KATIE/STANLEY                                                                                      150                                
PGRFAMCHA021101123100124632001532Elmo's World                                      Bicycles                                                            A2068607G                                
ID FAMCHA021101124632124637000005Generic ID - Marbles                                                                                                        150                                
PROFAMCHA021101124637124710000033Stanley (CAT BATH) - Today @ 1:20pm                                                                                         150                                
INTFAMCHA021101124710125026000316Art Attack - Party Clown                                                                                               60686120                                
PROFAMCHA021101125026125050000024Legend of Tarzan (S.O.S) - Today @ 4:15pm                                                                                   150                                
PROFAMCHA021101125050125100000010xxPS Line-Up - 19 (MON/WED/FRI) - KATIE/STANLEY/WT                                                                          150                                
PROFAMCHA021101125100125109000009CC Disclaimer - FAST - Family (:08-:10)                                                                                     150                                
PGRFAMCHA021101125109131744002635Katie And Orbie                                   New Year's Eve/Kyra/T-Ball                                    C11896A1065607ECC                              
ID FAMCHA021101131744131754000010Generic ID - Pink inner tube                                                                                                150                                
PROFAMCHA021101131754131827000033Stanley (CAT BATH) - Coming Up                                                                                              150                                
PRCFAMCHA021101131827131850000023xxHenry's World (ICE CREAM) - Tomorrow @ 6:40pm                                                                             150                                
PROFAMCHA021101131850131900000010xxPS Line-Up - 20 (MON/WED/FRI) - STANLEY/WTP/OOTB                                                                          150                                
PROFAMCHA021101131900131909000009CC Disclaimer - FAST - Family.ca (:08-:10)                                                                                  150                                
PGRFAMCHA021101131909134307002358Stanley                                           Platypus Problems/Rabbit Habit                                      A6068607ECC                              
ID FAMCHA021101134307134317000010Generic ID - Hula Hoop                                                                                                      150                                
PRCFAMCHA021101134317134340000023xxHenry's World (ICE CREAM) - Tomorrow @ 6:40pm                                                                             150                                
PROFAMCHA021101134340134350000010xxPS Line-Up - 21 (MON/WED/FRI) - WTP/OOTB/DUCKTAL                                                                          150                                
ID FAMCHA021101134350134400000010xxMagic of Disney - V3(water) - TEEN FEMALE                                                                                 150                                
PROFAMCHA021101134400134409000009CC Disclaimer - FAST - Generic (:08-:10)                                                                                    150                                
PGRFAMCHA021101134409140725002316New Adventures of Winnie the Pooh; The            King of the Beasties/Rats Who Came...                                6068607ECC                              
ID FAMCHA021101140725140730000005Generic ID - Marbles                                                                                                        150                                
PROFAMCHA021101140730140742000012Buzz Lightyear (SPACE RANGER) - Today @ 3:25pm                                                                              150                                
PROFAMCHA021101140742140806000024Legend of Tarzan (S.O.S) - Today @ 4:15pm                                                                                   150                                
PROFAMCHA021101140806140836000030Art Attack (HORSE) - Tomorrow @ 3pm                                                                                         150                                
PROFAMCHA021101140836140851000015Recess (SPRINKLER) - Today @ 5:05pm                                                                                         150                                
PROFAMCHA021101140851140901000010xxPS Line-Up - 22 - OOTB/DUCKTALES/HOZE                                                                                     150                                
PROFAMCHA021101140901140910000009CC Disclaimer - FAST - Family (:08-:10)                                                                                     150                                
PGRFAMCHA021101140910143245002335Out of the Box                                    Sing A Song                                                         A6068607ACC                              
ID FAMCHA021101143245143251000006Generic ID - soccer                                                                                                         150                                
PROFAMCHA021101143251143303000012Buzz Lightyear (SPACE RANGER) - Today @ 3:25pm                                                                              150                                
PRCFAMCHA021101143303143325000022Hoze Houndz (FIREFIGHTER) - Today @ 3pm                                                                                     150                                
PROFAMCHA021101143325143415000050Art Attack (BASEBALL) - Tomorrow @ 3pm                                                                                      150                                
PROFAMCHA021101143415143430000015Recess (SPRINKLER) - Today @ 5:05pm                                                                                         150                                
PROFAMCHA021101143430143454000024Legend of Tarzan (S.O.S) - Today @ 4:15pm                                                                                   150                                
PROFAMCHA021101143454143500000006xxPS Line-Up - 23 - DUCKTALES (14:35PM)                                                                                     150                                
PROFAMCHA021101143500143509000009CC Disclaimer - FAST - Family.ca (:08-:10)                                                                                  150                                
PGRFAMCHA021101143509145754002245Disney's DuckTales                                The Good Muddahs                                                    A6068607ECC                              
PROFAMCHA021101145754145808000014xxMD - 01 - HOZE/BUZZ/PEPPER (:13-:16)*DNU*                                                                                 150                                
PROFAMCHA021101145808145838000030Popcorn Pix Movie Promo - Tonight @ 7:30pm                                                                                  150                                
PROFAMCHA021101145838145848000010Popcorn Pix Line-Up - NOV01 - Tonight                                                                                       150                                
PROFAMCHA021101145848145923000035Mad Dash - LIZZIE MCGUIRE - Blooper #7 *DNU*                                                                                150                                
PROFAMCHA021101145923145947000024Your Big Break (BRIAN SETZER) - Sunday @ 8pm                                                                                150                                
OFFFAMCHA021101145947150000000013Mad Dash Block Open (:10-:15)                                                                                                                                  
PROFAMCHA021101150000150009000009CC Disclaimer - FAST - Generic (:08-:10)                                                                                    150                                
PGRFAMCHA021101150009152244002235Hoze Houndz                                       Little Green Men From Planet Ten/Hozer The Hero               B34014A1065607ECC                              
PROFAMCHA021101152244152258000014MD - 02 - BUZZ/PEPPER/TARZAN (:13-:16)                                                                                      150                                
PROFAMCHA021101152258152328000030Weekend Double Pix Promo - Tomorrow @ 12pm                                                                                  150                                
PROFAMCHA021101152328152409000041Mad Dash - LIZZIE MCGUIRE - Blooper #5 *DNU*                                                                                150                                
PROFAMCHA021101152409152445000036Teamo Supremo (STINGER) - Tomorrow @ 5pm                                                                                    150                                
OFFFAMCHA021101152445152500000015Mad Dash Block Open (:10-:15)                                                                                                                                  
PROFAMCHA021101152500152509000009CC Disclaimer - FAST - Generic (:08-:10)                                                                                    150                                
PGRFAMCHA021101152509154758002249Disney/Pixar's Buzz Lightyear of Star Command     The Main Event                                                       6068607ECC                              
PROFAMCHA021101154758154812000014MD - 03 - PEPPER/TARZAN/WKNDRS (:13-:16)                                                                                    150                                
PROFAMCHA021101154812154842000030Popcorn Pix Movie Promo - Tonight @ 7:30pm                                                                                  150                                
PROFAMCHA021101154842154852000010Popcorn Pix Line-Up - NOV01 - Tonight                                                                                       150                                
PROFAMCHA021101154852154919000027Mad Dash - PEPPER ANN - Great Mom                                                                                           150                                
PROFAMCHA021101154919154947000028All That (PHONE) - Tonight @ 6:30pm                                                                                         150                                
OFFFAMCHA021101154947155000000013Mad Dash Block Open (:10-:15)                                                                                                                                  
PROFAMCHA021101155000155009000009CC Disclaimer - FAST - Generic (:08-:10)                                                                                    150                                
PGRFAMCHA021101155009161259002250Disney's Pepper Ann                               Cocoon Gables/Green Eyed Monster                                     6068607ECC                              
PROFAMCHA021101161259161313000014MD - 04 - TARZAN/WKNDRS/RECESS (:13-:16)                                                                                    150                                
PROFAMCHA021101161313161343000030Popcorn Pix Movie Promo - Tonight @ 7:30pm                                                                                  150                                
PROFAMCHA021101161343161353000010Popcorn Pix Line-Up - NOV01 - Tonight                                                                                       150                                
PROFAMCHA021101161353161432000039Recess (MAJORITY) - Today @ 5:10pm                                                                                          150                                
PROFAMCHA021101161432161517000045Lizzie McGuire (MAGIC TRICK) - Today @ 5:35pm                                                                               150                                
PROFAMCHA021101161517161547000030xxKim Possible (GENERIC) - Tomorrow @ 4:35pm                                                                                150                                
OFFFAMCHA021101161547161600000013Mad Dash Block Open (:10-:15)                                                                                                                                  
PGRFAMCHA021101161600163845002245Disney's The Legend of Tarzan                     Seeds of Destruction                                                A6068607E                                
PROFAMCHA021101163845163859000014MD - 05 - WKNDRS/RECESS/LIZZIE (:13-:16)                                                                                    150                                
PROFAMCHA021101163859163929000030Popcorn Pix Movie Promo - Tonight @ 7:30pm                                                                                  150                                
PROFAMCHA021101163929163939000010Popcorn Pix Line-Up - NOV01 - Tonight                                                                                       150                                
INTFAMCHA021101163939164043000104Jack and Marcel: Ep.084 "Killer Suds"                                                                                 A40688120                                
PROFAMCHA021101164043164119000036Teamo Supremo (STINGER) - Tomorrow @ 5pm                                                                                    150                                
PROFAMCHA021101164119164147000028All That (PHONE) - Tonight @ 6:30pm                                                                                         150                                
OFFFAMCHA021101164147164200000013Mad Dash Block Open (:10-:15)                                                                                                                                  
PROFAMCHA021101164200164209000009CC Disclaimer - FAST - Family.ca (:08-:10)                                                                                  150                                
PGRFAMCHA021101164209170445002236Disney's The Weekenders                           To Each His Own/Diary                                               A6068607ECC                              
PROFAMCHA021101170445170459000014MD - 06 - RECESS/LIZZIE/AMANDA (:13-:16)                                                                                    150                                
PROFAMCHA021101170459170529000030Popcorn Pix Movie Promo - Tonight @ 7:30pm                                                                                  150                                
PROFAMCHA021101170529170539000010Popcorn Pix Line-Up - NOV01 - Tonight                                                                                       150                                
PROFAMCHA021101170539170629000050Art Attack (BASEBALL) - Tomorrow @ 3pm                                                                                      150                                
PROFAMCHA021101170629170650000021xxSmart Guy (KEYBOARD) - Weekends @ 7:30am **DNU*                                                                           150                                
PROFAMCHA021101170650170720000030Amanda Show - Tonight @ 6pm                                                                                                 150                                
PROFAMCHA021101170720170747000027Even Stevens (GOLF) - Tonight @ 7pm                                                                                         150                                
OFFFAMCHA021101170747170800000013Mad Dash Block Open (:10-:15)                                                                                                                                  
PGRFAMCHA021101170800173034002234Disney's Recess                                   The Experiment/The Great Jungle Gym Standoff                         6068607E                                
PROFAMCHA021101173034173048000014MD - 07 - LIZZIE/AMANDA/ALLTHAT (:13-:16)                                                                                   150                                
PROFAMCHA021101173048173118000030Popcorn Pix Movie Promo - Tonight @ 7:30pm                                                                                  150                                
PROFAMCHA021101173118173128000010Popcorn Pix Line-Up - NOV01 - Tonight                                                                                       150                                
PROFAMCHA021101173128173155000027Nonstop - EVEN STEVENS - B-Ball                                                                                             150                                
PRCFAMCHA021101173155173217000022Hoze Houndz (FIREFIGHTER - NEW EPS) - Tomorrow @ 7                                                                          150                                
PROFAMCHA021101173217173249000032Nonstop - JETT JACKSON - Crisis                                                                                             150                                
PROFAMCHA021101173249173316000027Even Stevens (GOLF) - Tonight @ 7pm                                                                                         150                                
PROFAMCHA021101173316173348000032PR Wild Force (CHAIR) - Tomorrow @ 6:30am                                                                                   150                                
OFFFAMCHA021101173348173400000012Mad Dash Block Open (:10-:15)                                                                                                                                  
PGRFAMCHA021101173400175634002234Lizzie McGuire                                    Bad Girl McGuire                                                    A6068607B                                
PROFAMCHA021101175634175648000014NS -FRI- 01 - AMANDA/ALL/EVEN (:13-:16)                                                                                     150                                
PROFAMCHA021101175648175718000030xxKim Possible (GENERIC) - Tomorrow @ 4:35pm                                                                                150                                
PROFAMCHA021101175718175739000021Nonstop - DARK - Plants                                                                                                     150                                
INTFAMCHA021101175739175909000130Family X-Pedition - Ep.45                                                                                             A10656120                                
PROFAMCHA021101175909175939000030Popcorn Pix Movie Promo - Tonight @ 7:30pm                                                                                  150                                
PROFAMCHA021101175939175949000010Popcorn Pix Line-Up - NOV01 - Tonight                                                                                       150                                
OFFFAMCHA021101175949180000000011Nonstop Block Open (:10-:15)                                                                                                                                   
PGRFAMCHA021101180000182415002415Amanda Show; The                                  1-010                                                               A20686090                                
PROFAMCHA021101182415182429000014NS -FRI- 02 - ALL/EVEN/P-PIX (:13-:16)                                                                                      150                                
PROFAMCHA021101182429182452000023Proud Family (HERO) - Tomorrow @ 4:10pm                                                                                     150                                
PRCFAMCHA021101182452182522000030@ The Movies - Sunday @ 8:45pm                                                                                              150                                
INTFAMCHA021101182522182626000104Jack and Marcel: ep.116 "Mad Green Hornet"                                                                            A40688120                                
PROFAMCHA021101182626182641000015Nonstop - ALL THAT - Mouth                                                                                                  150                                
PROFAMCHA021101182641182708000027Even Stevens (GOLF) - Tonight @ 7pm                                                                                         150                                
INTFAMCHA021101182708182838000130Family X-Pedition - Ep.43                                                                                             A10656120                                
PROFAMCHA021101182838182910000032Nonstop - JETT JACKSON - Crisis                                                                                             150                                
PROFAMCHA021101182910182940000030Popcorn Pix Movie Promo - Tonight @ 7:30pm                                                                                  150                                
PROFAMCHA021101182940182950000010Popcorn Pix Line-Up - NOV01 - Tonight                                                                                       150                                
OFFFAMCHA021101182950183000000010Nonstop Block Open (:10-:15)                                                                                                                                   
PGRFAMCHA021101183000185421002421All That                                          724                                                                 A20686090                                
PROFAMCHA021101185421185433000012NS -FRI- 03 - EVEN/P-PIX (:10-:13)                                                                                          150                                
PROFAMCHA021101185433185459000026PR Wild Force (WAKEUP) - Tomorrow @ 6:30am                                                                                  150                                
PROFAMCHA021101185459185529000030Nightly Pix Block Promo - Tonight @ 9pm                                                                                     150                                
PROFAMCHA021101185529185602000033xxTeen Angel/You Wish - Tomorrow @ 11:05am                                                                                  150                                
PROFAMCHA021101185602185624000022Nonstop - BOY MEETS WORLD - Girl's Washroom                                                                                 150                                
PROFAMCHA021101185624185640000016Lizzie McGuire (MONEY TREE) - Tomorrow @ 8am                                                                                150                                
PROFAMCHA021101185640185710000030Amanda Show (CONCEPT) - Tomorrow @ 8:30am                                                                                   150                                
PROFAMCHA021101185710185737000027Even Stevens (GOLF) - Tonight @ 7pm                                                                                         150                                
INTFAMCHA021101185737185907000130Family X-Pedition - Ep.44                                                                                             A10656120                                
PROFAMCHA021101185907185937000030Popcorn Pix Movie Promo - Tonight @ 7:30pm                                                                                  150                                
PROFAMCHA021101185937185947000010Popcorn Pix Line-Up - NOV01 - Tonight                                                                                       150                                
OFFFAMCHA021101185947190000000013Nonstop Block Open (:10-:15)                                                                                                                                   
PGRFAMCHA021101190000192242002242Even Stevens                                      Battle of the Bands                                                 A6068807BCC                              
PROFAMCHA021101192242192252000010Popcorn Pix Line-Up - NOV01 - Coming Up                                                                                     150                                
PROFAMCHA021101192252192322000030xxKim Possible (GENERIC) - Tomorrow @ 4:35pm                                                                                150                                
PROFAMCHA021101192322192355000033xxTeen Angel/You Wish - Tomorrow @ 11:05am                                                                                  150                                
PROFAMCHA021101192355192405000010FAMJAM - Open                                                                                                               150                                
INTFAMCHA021101192405192743000338MV - sk8er boi (Avril Lavigne)                                                                                        A20685120                                
PROFAMCHA021101192743192757000014FAMJAM - Close (EMAIL)                                                                                                      150                                
PROFAMCHA021101192757192813000016Nonstop - EVEN STEVENS - Oatmeal                                                                                            150                                
PROFAMCHA021101192813192849000036Teamo Supremo (STINGER) - Tomorrow @ 5pm                                                                                    150                                
PROFAMCHA021101192849192915000026PR Wild Force (EXPO) - Tomorrow @ 6:30am                                                                                    150                                
PROFAMCHA021101192915192945000030Popcorn Pix Movie Promo - Coming Up                                                                                         150                                
ID FAMCHA021101192945193000000015Popcorn Pix Movie Open (:10-:15)                                                                                            150                                
PRCFAMCHA021101193000193009000009Rating - G - Ian (:08-:10)                                                                                                  150                                
PROFAMCHA021101193009193018000009CC Disclaimer - SLOW - Family (:08-:10)                                                                                     150                                
PGRFAMCHA021101193018210216013158Real Macaw; The                                                                                                       A2028807DCC                              
PROFAMCHA021101210216210226000010Nightly Pix Line-Up - NOV01 - Coming Up                                                                                     150                                
ID FAMCHA021101210226210239000013Nightly Pix Movie Open (:10-:15)                                                                                            150                                
PRCFAMCHA021101210239210248000009Rating - AA - Ian (:08-:10)                                                                                                 150                                
PROFAMCHA021101210248210257000009CC Disclaimer - SLOW - Family (:08-:10)                                                                                     150                                
PGRFAMCHA021101210257225823015526Stakeout                                                                                                              C6028807DCC                              
PROFAMCHA021101225823225833000010Nightly Pix Line-up - 01 - GENERIC1 (:08-:11)                                                                               150                                
ID FAMCHA021101225833225846000013Nightly Pix Movie Open (:10-:15)                                                                                            150                                
PRCFAMCHA021101225846225855000009Rating - AA - Ian (:08-:10)                                                                                                 150                                
PROFAMCHA021101225855225904000009CC Disclaimer - SLOW - Family (:08-:10)                                                                                     150                                
PGRFAMCHA021101225904002934013030Batman Returns                                                                                                        C2068807DCC                              
ID FAMCHA021101002934002939000005Generic ID - Bubbles*                                                                                                       150                                
PROFAMCHA021101002939002951000012Buzz Lightyear (SPACE RANGER) - Weekdays @ 3:25pm                                                                           150                                
OFFFAMCHA021101002951003001000010Nonstop Block Open (:10-:15)                                                                                                                                   
PGRFAMCHA021101003001005343002342Amazing Stories                                   The Greibble                                                        A2068807A                                
ID FAMCHA021101005343005348000005Generic ID - Fingerpaint                                                                                                    150                                
PROFAMCHA021101005348005414000026PR Wild Force (EXPO) - Tomorrow @ 6:30am                                                                                    150                                
PROFAMCHA021101005414005447000033xxTeen Angel/You Wish - Tomorrow @ 11:05am                                                                                  150                                
OFFFAMCHA021101005447005500000013Nonstop Block Open (:10-:15)                                                                                                                                   
PGRFAMCHA021101005500011932002432Are You Afraid Of The Dark?                       The Tale of the Captured Souls                                SR0302 1066807A                                
SO FAMCHA021101011932011944000012Sign Off (oct 1)                                                                                                                                               
OFFFAMCHA021101011944043000031016                                                                                                                                                               
SO FAMCHA021102043000043011000011Sign On (oct 1)                                                                                                                                                
PROFAMCHA021102043011043020000009CC Disclaimer - FAST - Generic (:08-:10)                                                                                    150                                
PGRFAMCHA021102043020045243002223Out of the Box                                    Rainbow Colours                                                      60686110CC                              
ID FAMCHA021102045243045258000015Generic ID - confetti                                                                                                       150                                
PROFAMCHA021102045258045348000050Art Attack (BASEBALL) - Coming Up                                                                                           150                                
OFFFAMCHA021102045348045401000013Nonstop Weekend Block Open (:10-:15)                                                                                                                           
PGRFAMCHA021102045401051357001956Art Attack                                        1-062                                                                60686110                                
ID FAMCHA021102051357051402000005Generic ID - Bubbles*                                                                                                       150                                
OFFFAMCHA021102051402051412000010Nonstop Weekend Block Open (:10-:15)                                                                                                                           
PROFAMCHA021102051412051420000008CC Disclaimer - FAST - Family (:08-:10)                                                                                     150                                
PGRFAMCHA021102051420054055002635Katie And Orbie                                   New Year's Eve/Kyra/T-Ball                                    C11896A1065607ECC                              
ID FAMCHA021102054055054100000005Generic ID - Marbles                                                                                                        150                                
OFFFAMCHA021102054100054110000010Nonstop Weekend Block Open (:10-:15)                                                                                                                           
PROFAMCHA021102054110054119000009CC Disclaimer - FAST - Family.ca (:08-:10)                                                                                  150                                
PGRFAMCHA021102054119060354002235Hoze Houndz                                       Tenor Mercies/Sleeping Houndz                                 B34015A1065607ECC                              
ID FAMCHA021102060354060405000011Generic ID - soccer                                                                                                         150                                
PROFAMCHA021102060405060420000015Recess (SPRINKLER) - Weekdays @ 5:05pm                                                                                      150                                
PRCFAMCHA021102060420060446000026xxHenry's World (MERRY GO ROUND) - Tonight @ 6:40p                                                                          150                                
OFFFAMCHA021102060446060459000013Nonstop Weekend Block Open (:10-:15)                                                                                                                           
PROFAMCHA021102060459060509000010CC Disclaimer - FAST - Generic (:08-:10)                                                                                    150                                
PGRFAMCHA021102060509063129002620Little Lulu Show; The                             Business Girl/The Pet Duck/Lulu's Umbrella Service            C19574A1065607ECC                              
PROFAMCHA021102063129063142000013Power Box Line-Up - 01 - POWER1/POWER2/SMART (:13-                                                                          150                                
OFFFAMCHA021102063142063152000010Power Box Block Open (:10-:15)                                                                                                                                 
PROFAMCHA021102063152063201000009CC Disclaimer - FAST - Generic (:08-:10)                                                                                    150                                
PGRFAMCHA021102063201065258002057Power Rangers Wild Force                          A Father's Footsteps                                                A6068607ECC                              
PROFAMCHA021102065258065312000014NSW - 06(PB-SAT)- PRWF2/SMART/LIZZIE (:13-:16)                                                                              150                                
PROFAMCHA021102065312065342000030Weekend Double Pix Promo - Today @ 12pm                                                                                     150                                
PROFAMCHA021102065342065353000011Weekend Double Pix - NOV02 - Today                                                                                          150                                
INTFAMCHA021102065353065843000450MV Disney - Circle of Life (ELTON JOHN)                                                                                60688120                                
PROFAMCHA021102065843065919000036xxTeamo Supremo (PIE) - Today @ 5pm **DO NOT USE*                                                                           150                                
PROFAMCHA021102065919065949000030Nonstop Weekend Block Promo - Coming Up                                                                                     150                                
OFFFAMCHA021102065949070000000011Power Box Block Open (:10-:15)                                                                                                                                 
PGRFAMCHA021102070000072129002129Power Rangers Wild Force                          Sing Song                                                           A6028607E                                
PROFAMCHA021102072129072143000014Nonstop Wknd LU - 05(SAT)- SMRT/LIZ/AMND (:13-:16)                                                                          150                                
PROFAMCHA021102072143072213000030Weekend Double Pix Promo - Today @ 12pm                                                                                     150                                
PROFAMCHA021102072213072224000011Weekend Double Pix - NOV02 - Today                                                                                          150                                
INTFAMCHA021102072224072552000328Art Attack - Hockey (WINTER)                                                                                           60686120                                
PROFAMCHA021102072552072608000016Lizzie McGuire (MONEY TREE) - Today @ 8am                                                                                   150                                
INTFAMCHA021102072608072846000238MV Disney - We Are One (LION KING 2) Animated air                                                                      60688120                                
PROFAMCHA021102072846072946000100Amanda Show (UNDERPANTS) - Today @ 8:30am                                                                                   150                                
OFFFAMCHA021102072946073000000014Nonstop Weekend Block Open (:10-:15)                                                                                                                           
PROFAMCHA021102073000073009000009CC Disclaimer - FAST - Family.ca (:08-:10)                                                                                  150                                
PGRFAMCHA021102073009075240002231Smart Guy                                         A Date With Destiny                                                 A6068807BCC                              
PROFAMCHA021102075240075254000014Nonstop Wknd LU - 06 - LIZZIE/AMANDA/ALL (:13-:16)                                                                          150                                
PROFAMCHA021102075254075324000030Weekend Double Pix Promo - Today @ 12pm                                                                                     150                                
PROFAMCHA021102075324075335000011Weekend Double Pix - NOV02 - Today                                                                                          150                                
PROFAMCHA021102075335075422000047Amanda Show (HAM) - Today @ 8:30am                                                                                          150                                
PROFAMCHA021102075422075516000054Nonstop Weekend - LIZZIE MCGUIRE - Blooper #3 *DNU                                                                          150                                
INTFAMCHA021102075516075919000403Art Attack - Skiers (WINTER)                                                                                           60686120                                
PROFAMCHA021102075919075946000027Even Stevens (GOLF) - Weeknights @ 7pm                                                                                      150                                
OFFFAMCHA021102075946080000000014Nonstop Weekend Block Open (:10-:15)                                                                                                                           
PROFAMCHA021102080000080009000009CC Disclaimer - FAST - Click Club (:08-:10) **DNU*                                                                          150                                
PGRFAMCHA021102080009082240002231Lizzie McGuire                                    Mom's Best Friend                                                   A6068607BCC                              
PROFAMCHA021102082240082254000014Nonstop Wknd LU - 07 - AMANDA/ALL/EVEN (:13-:16)                                                                            150                                
PROFAMCHA021102082254082324000030Weekend Double Pix Promo - Today @ 12pm                                                                                     150                                
PROFAMCHA021102082324082335000011Weekend Double Pix - NOV02 - Today                                                                                          150                                
INTFAMCHA021102082335082746000411Art Attack - Scuba Divers                                                                                              60686120                                
PROFAMCHA021102082746082813000027Even Stevens (GOLF) - Weeknights @ 7pm                                                                                      150                                
INTFAMCHA021102082813082917000104Jack and Marcel: Ep.103 "Newt Hunt"                                                                                   A40688120                                
PROFAMCHA021102082917082947000030xxKim Possible (GENERIC) - Today @ 4:35pm                                                                                   150                                
OFFFAMCHA021102082947083000000013Nonstop Weekend Block Open (:10-:15)                                                                                                                           
PGRFAMCHA021102083000085205002205Amanda Show; The                                  2-027                                                               A20686090                                
PROFAMCHA021102085205085219000014Nonstop Wknd LU - 08 - ALL/EVEN/JERSEY (:13-:16)                                                                            150                                
PROFAMCHA021102085219085249000030Weekend Double Pix Promo - Today @ 12pm                                                                                     150                                
PROFAMCHA021102085249085300000011Weekend Double Pix - NOV02 - Today                                                                                          150                                
PROFAMCHA021102085300085325000025Your Big Break (LITTLE RICHARD) - Tomorrow @ 8pm                                                                            150                                
PROFAMCHA021102085325085409000044Nonstop Weekend - AMANDA SHOW - Remote                                                                                      150                                
PROFAMCHA021102085409085445000036xxTeamo Supremo (PIE) - Today @ 5pm **DO NOT USE*                                                                           150                                
INTFAMCHA021102085445085703000218Art Attack - Windmill                                                                                                  60688120                                
PROFAMCHA021102085703085746000043Nonstop Weekend - ART ATTACK - Slide                                                                                        150                                
PROFAMCHA021102085746085816000030xxKim Possible (GENERIC) - Today @ 4:35pm                                                                                   150                                
PROFAMCHA021102085816085915000059Nonstop Weekend - EVEN STEVENS - Faking                                                                                     150                                
PROFAMCHA021102085915085945000030xxBoy Meets World - Today @ 10:15am                                                                                         150                                
OFFFAMCHA021102085945090000000015Nonstop Weekend Block Open (:10-:15)                                                                                                                           
PGRFAMCHA021102090000092421002421All That                                          604                                                                 A20686090                                
PROFAMCHA021102092421092435000014Nonstop Wknd LU - 09 - EVEN/JERSEY/BMW (:13-:16)                                                                            150                                
PROFAMCHA021102092435092505000030Weekend Double Pix Promo - Today @ 12pm                                                                                     150                                
PROFAMCHA021102092505092516000011Weekend Double Pix - NOV02 - Today                                                                                          150                                
INTFAMCHA021102092516092646000130Family X-Pedition - Ep.15                                                                                             A10656120                                
PROFAMCHA021102092646092735000049Nonstop Weekend - LIZZIE MCGUIRE - Chimp                                                                                    150                                
INTFAMCHA021102092735092918000143MV Disney - Siamese Cat Song                                                                                           60688120                                
PROFAMCHA021102092918092948000030xxBoy Meets World - Today @ 10:15am                                                                                         150                                
OFFFAMCHA021102092948093000000012Nonstop Weekend Block Open (:10-:15)                                                                                                                           
PROFAMCHA021102093000093009000009CC Disclaimer - FAST - Generic (:08-:10)                                                                                    150                                
PGRFAMCHA021102093009095245002236Even Stevens                                      Easy Crier                                                          A6068807BCC                              
PROFAMCHA021102095245095258000013Nonstop Wknd LU - 10 - JERSEY/BMW/SMART (:13-:16)                                                                           150                                
OFFFAMCHA021102095258095308000010Nonstop Weekend Block Open (:10-:15)                                                                                                                           
PGRFAMCHA021102095308101544002236Jersey; The                                       Dueling Coaches                                                     A6068807A                                
PROFAMCHA021102101544101558000014Nonstop Wknd LU - 11 - BMW/SMART/TEEN (:13-:16)                                                                             150                                
PROFAMCHA021102101558101628000030Weekend Double Pix Promo - Today @ 12pm                                                                                     150                                
PROFAMCHA021102101628101639000011Weekend Double Pix - NOV02 - Today                                                                                          150                                
PROFAMCHA021102101639101714000035Nonstop Weekend - LIZZIE MCGUIRE - Blooper #5 *DNU                                                                          150                                
PROFAMCHA021102101714101747000033xxTeen Angel/You Wish - Today @ 11:05am                                                                                     150                                
OFFFAMCHA021102101747101800000013Nonstop Weekend Block Open (:10-:15)                                                                                                                           
PROFAMCHA021102101800101809000009CC Disclaimer - FAST - Family (:08-:10)                                                                                     150                                
PGRFAMCHA021102101809104024002215Boy Meets World                                   The Play's The Thing                                                B6068807BCC                              
PROFAMCHA021102104024104038000014Nonstop Wknd LU - 12 - SMART/TEEN/YOU (:13-:16)                                                                             150                                
PROFAMCHA021102104038104108000030Weekend Double Pix Promo - Today @ 12pm                                                                                     150                                
PROFAMCHA021102104108104119000011Weekend Double Pix - NOV02 - Today                                                                                          150                                
PROFAMCHA021102104119104152000033xxTeen Angel/You Wish - Today @ 11:05am                                                                                     150                                
PROFAMCHA021102104152104212000020Recess (BALLS) - Weekdays @ 5:10pm                                                                                          150                                
PROFAMCHA021102104212104248000036xxTeamo Supremo (PIE) - Today @ 5pm **DO NOT USE*                                                                           150                                
OFFFAMCHA021102104248104300000012Nonstop Weekend Block Open (:10-:15)                                                                                                                           
PGRFAMCHA021102104300110526002226Smart Guy                                         Diary of A Mad Schoolgirl                                           A6068807B                                
PROFAMCHA021102110526110540000014Nonstop Wknd LU - 13 - TEEN/YOU/D-PIX (:13-:16)                                                                             150                                
PROFAMCHA021102110540110610000030Weekend Double Pix Promo - Today @ 12pm                                                                                     150                                
PROFAMCHA021102110610110621000011Weekend Double Pix - NOV02 - Today                                                                                          150                                
PROFAMCHA021102110621110647000026PR Wild Force (EXPO) - Tomorrow @ 6:30am                                                                                    150                                
OFFFAMCHA021102110647110700000013Nonstop Weekend Block Open (:10-:15)                                                                                                                           
PROFAMCHA021102110700110709000009CC Disclaimer - FAST - Family.ca (:08-:10)                                                                                  150                                
PGRFAMCHA021102110709112829002120Teen Angel                                        The Play's The Thing                                                A6068807BCC                              
PROFAMCHA021102112829112841000012Nonstop Wknd LU - 14 - YOU/D-PIX (:10-:13)                                                                                  150                                
PROFAMCHA021102112841112911000030Weekend Double Pix Promo - Today @ 12pm                                                                                     150                                
PROFAMCHA021102112911112922000011Weekend Double Pix - NOV02 - Today                                                                                          150                                
INTFAMCHA021102112922113052000130Family X-Pedition - Ep.16                                                                                             A10656120                                
PROFAMCHA021102113052113124000032PR Wild Force (CHAIR) - Tomorrow @ 6:30am                                                                                   150                                
INTFAMCHA021102113124113426000302Art Attack - Ballerina                                                                                                 60686120                                
PROFAMCHA021102113426113449000023Proud Family (HERO) - Today @ 4:10pm                                                                                        150                                
OFFFAMCHA021102113449113500000011Nonstop Weekend Block Open (:10-:15)                                                                                                                           
PROFAMCHA021102113500113509000009CC Disclaimer - FAST - Click Club (:08-:10) **DNU*                                                                          150                                
PGRFAMCHA021102113509115619002110You Wish                                          Genie Without A Cause                                               A6068807BCC                              
PROFAMCHA021102115619115630000011Weekend Double Pix - NOV02 - Coming Up (LAST STARF                                                                          150                                
PROFAMCHA021102115630115720000050Art Attack (BASEBALL) - Today @ 3pm                                                                                         150                                
INTFAMCHA021102115720115850000130Family X-Pedition - Ep.17                                                                                             A10656120                                
PROFAMCHA021102115850115920000030xxKim Possible (GENERIC) - Today @ 4:35pm                                                                                   150                                
PROFAMCHA021102115920115950000030Weekend Double Pix Promo - Coming Up                                                                                        150                                
OFFFAMCHA021102115950120000000010Weekend Double Pix Movie Open (:10-:15)                                                                                                                        
PRCFAMCHA021102120000120009000009Rating - PG - Ian (:08-:10)                                                                                                 150                                
PGRFAMCHA021102120009134021014012Last Starfighter; The                                                                                                 B2068807D                                
PROFAMCHA021102134021134029000008Weekend Double Pix - NOV02 - Coming Up (MAKE MINE                                                                           150                                
PROFAMCHA021102134029134056000027Even Stevens (GOLF) - Weeknights @ 7pm                                                                                      150                                
INTFAMCHA021102134056134352000256MV Disney - Strangers Like Me (PHIL COLLINS)                                                                           60688120                                
PROFAMCHA021102134352134415000023Your Big Break (B-52) - Tomorrow @ 8pm                                                                                      150                                
PROFAMCHA021102134415134445000030Weekend Double Pix Promo - Coming Up                                                                                        150                                
OFFFAMCHA021102134445134500000015Weekend Double Pix Movie Open (:10-:15)                                                                                                                        
PRCFAMCHA021102134500134509000009Rating - G - Ian (:08-:10)                                                                                                  150                                
PROFAMCHA021102134509134518000009CC Disclaimer - FAST - Family.ca (:08-:10)                                                                                  150                                
PGRFAMCHA021102134518151045012527Make Mine Music                                                                                                       A6068807DCC                              
PROFAMCHA021102151045151058000013Nonstop Wknd LU - 17 - ART/NIGHTMARE/HOM (:13-:16)                                                                          150                                
OFFFAMCHA021102151058151108000010Nonstop Weekend Block Open (:10-:15)                                                                                                                           
PGRFAMCHA021102151108153051001943Art Attack                                        1-172                                                               A60686110                                
PROFAMCHA021102153051153104000013Nonstop Wknd LU - 18 - NGHTMR/HOM/PROUD (:13-:16)                                                                           150                                
OFFFAMCHA021102153104153114000010Nonstop Weekend Block Open (:10-:15)                                                                                                                           
PROFAMCHA021102153114153123000009CC Disclaimer - FAST - Generic (:08-:10)                                                                                    150                                
PGRFAMCHA021102153123155358002235Nightmare Ned                                     Tooth Or Consequences/Show Me The Infidel                           A6068607ECC                              
PROFAMCHA021102155358155411000013Nonstop Wknd LU - 19 - HOM/PROUD/KIM (:13-:16)                                                                              150                                
OFFFAMCHA021102155411155421000010Nonstop Weekend Block Open (:10-:15)                                                                                                                           
PGRFAMCHA021102155421161659002238Disney's House Of Mouse                           Mickey And The Culture Clash                                        A6068607E                                
PROFAMCHA021102161659161712000013Nonstop Wknd LU - 20 - PROUD/KIM/TEAMO (:13-:16)                                                                            150                                
OFFFAMCHA021102161712161722000010Nonstop Weekend Block Open (:10-:15)                                                                                                                           
PROFAMCHA021102161722161731000009CC Disclaimer - FAST - Generic (:08-:10)                                                                                    150                                
PGRFAMCHA021102161731164000002229Proud Family; The                                 Romeo Must Wed                                                      A6068807ECC                              
PROFAMCHA021102164000164013000013Nonstop Wknd LU - 21 - KIM/TEAMO/PB&J (:13-:16)                                                                             150                                
OFFFAMCHA021102164013164023000010Nonstop Weekend Block Open (:10-:15)                                                                                                                           
PGRFAMCHA021102164023170315002252Disney's Kim Possible                             All The News                                                        A6068607E                                
PROFAMCHA021102170315170328000013Nonstop Wknd LU - 22 - TEAMO/PB&J/WTP (:13-:16)                                                                             150                                
OFFFAMCHA021102170328170338000010Nonstop Weekend Block Open (:10-:15)                                                                                                                           
PROFAMCHA021102170338170347000009CC Disclaimer - FAST - Family (:08-:10)                                                                                     150                                
PGRFAMCHA021102170347172639002252Disney's Teamo Supremo                            Pog Panic/Enter Dr.Droid                                            A6068607ECC                              
ID FAMCHA021102172639172644000005Generic ID - Bubbles*                                                                                                       150                                
OFFFAMCHA021102172644172654000010Nonstop Weekend Block Open (:10-:15)                                                                                                                           
PROFAMCHA021102172654172703000009CC Disclaimer - FAST - Family.ca (:08-:10)                                                                                  150                                
PGRFAMCHA021102172703174921002218PB&J Otter                                        Bye-Bye, PB&J!/Babbleberry Day                                      A6068607ECC                              
ID FAMCHA021102174921174932000011Generic ID - soccer                                                                                                         150                                
PROFAMCHA021102174932174944000012Buzz Lightyear (SPACE RANGER) - Weekdays @ 3:25pm                                                                           150                                
INTFAMCHA021102174944175123000139Disney Moments-Lady And The Tramp-Siamese Cat Song                                                                     60688120                                
PRCFAMCHA021102175123175146000023xxHenry's World (ICE CREAM) - Tonight @ 6:40pm                                                                              150                                
OFFFAMCHA021102175146175200000014Nonstop Weekend Block Open (:10-:15)                                                                                                                           
PROFAMCHA021102175200175209000009CC Disclaimer - FAST - Click Club (:08-:10) **DNU*                                                                          150                                
PGRFAMCHA021102175209181448002239New Adventures of Winnie the Pooh; The            Cleanliness Is Next To Impossible                                    6068607ECC                              
ID FAMCHA021102181448181503000015Generic ID - confetti                                                                                                       150                                
PRCFAMCHA021102181503181521000018Franklin (CAST) - Coming Up                                                                                                 150                                
INTFAMCHA021102181521181725000204MV Disney - You've Got A Friend In Me (RANDY NEWMA                                                                     60688120                                
PRCFAMCHA021102181725181747000022Hoze Houndz (FIREFIGHTER - NEW EPS) - Tonight @ 7:                                                                          150                                
OFFFAMCHA021102181747181800000013Nonstop Weekend Block Open (:10-:15)                                                                                                                           
PROFAMCHA021102181800181809000009CC Disclaimer - FAST - Generic (:08-:10)                                                                                    150                                
PGRFAMCHA021102181809184102002253Franklin                                          Franklin and the Bus Patrol/Franklin and Wolvie               A53203A1065607ECC                              
ID FAMCHA021102184102184112000010Generic ID - confetti                                                                                                       150                                
PRCFAMCHA021102184112184142000030xxHenry's World (TOOTH FAIRY) - Coming Up                                                                                   150                                
PROFAMCHA021102184142184218000036xxTeamo Supremo (PIE) - Tomorrow @ 5pm **DO NOT US                                                                          150                                
PROFAMCHA021102184218184248000030Mad Dash Block Promo - Weekdays from 3pm to 6pm                                                                             150                                
OFFFAMCHA021102184248184300000012Nonstop Weekend Block Open (:10-:15)                                                                                                                           
PROFAMCHA021102184300184309000009CC Disclaimer - FAST - Family (:08-:10)                                                                                     150                                
PGRFAMCHA021102184309190700002351Henry's World                                     Middle Child Blues/Silver Tongue                              B66552A1025607GCC                              
ID FAMCHA021102190700190711000011Generic ID - soccer                                                                                                         150                                
PRCFAMCHA021102190711190733000022Hoze Houndz (FIREFIGHTER - NEW EPS) - Tonight @ 7:                                                                          150                                
PROFAMCHA021102190733190806000033Stanley (CAT BATH) - Weekdays @ 9:35am                                                                                      150                                
PROFAMCHA021102190806190845000039Recess (MAJORITY) - Weekdays @ 5:10pm                                                                                       150                                
OFFFAMCHA021102190845190900000015Nonstop Weekend Block Open (:10-:15)                                                                                                                           
PROFAMCHA021102190900190909000009CC Disclaimer - FAST - Family.ca (:08-:10)                                                                                  150                                
PGRFAMCHA021102190909193301002352Little Lulu Show; The                             Lancelot Jr./Lucky Lady/Five Little Babies                    C19511A1065607ECC                              
ID FAMCHA021102193301193306000005Generic ID - Couch 2*                                                                                                       150                                
PRCFAMCHA021102193306193328000022Hoze Houndz (FIREFIGHTER - NEW EPS) - Coming Up                                                                             150                                
PROFAMCHA021102193328193418000050Art Attack (BASEBALL) - Tomorrow @ 3pm                                                                                      150                                
PRCFAMCHA021102193418193448000030xxHenry's World (SECRET) - Tomorrow @ 6:40pm                                                                                150                                
OFFFAMCHA021102193448193500000012Nonstop Weekend Block Open (:10-:15)                                                                                                                           
PROFAMCHA021102193500193509000009CC Disclaimer - FAST - Click Club (:08-:10) **DNU*                                                                          150                                
PGRFAMCHA021102193509195747002238Hoze Houndz                                       Mission Improbable/Once Upon A Time                           A63382A1025607ECC                              
PROFAMCHA021102195747195801000014xxNonstop SAT LU - 01 - HONEY/DARK/N-PIX (:13-:16)                                                                          150                                
PROFAMCHA021102195801195825000024Your Big Break (BRIAN SETZER) - Tomorrow @ 8pm                                                                              150                                
PROFAMCHA021102195825195906000041Amanda Show (KYLE) - Tomorrow @ 8:30am                                                                                      150                                
PROFAMCHA021102195906195949000043Nowhere Man (NONSTOP) - Monday to Thursday @ 11pm                                                                           150                                
OFFFAMCHA021102195949200000000011Nonstop Block Open (:10-:15)                                                                                                                                   
PROFAMCHA021102200000200009000009CC Disclaimer - FAST - Click Club (:08-:10) **DNU*                                                                          150                                
PGRFAMCHA021102200009204342004333Disney's Honey, I Shrunk The Kids: The TV Show    I'm Kung Fu Fishing                                                  6068807BCC                              
PROFAMCHA021102204342204356000014xxNonstop SAT LU - 02 - DARK1/N-PIX/DARK2 (:13-:16                                                                          150                                
PRCFAMCHA021102204356204426000030@ The Movies - Tomorrow @ 8:45pm                                                                                            150                                
PROFAMCHA021102204426204446000020Recess (BALLS) - Weekdays @ 5:10pm                                                                                          150                                
OFFFAMCHA021102204446204500000014Nonstop Block Open (:10-:15)                                                                                                                                   
PROFAMCHA021102204500204509000009CC Disclaimer - FAST - Family (:08-:10)                                                                                     150                                
PGRFAMCHA021102204509205856001347Are You Afraid of the Dark?                       Virtual Pets Pt.1                                             SR0307A1066807ACC                              
PROFAMCHA021102205856205906000010Nightly Pix Line-up - 04 - DRAMA (:08-:11)                                                                                  150                                
PROFAMCHA021102205906205949000043Nowhere Man (NONSTOP) - Monday to Thursday @ 11pm                                                                           150                                
ID FAMCHA021102205949210000000011Nightly Pix Movie Open (:10-:15)                                                                                            150                                
PRCFAMCHA021102210000210009000009Rating - AA - Ian (:08-:10)                                                                                                 150                                
PROFAMCHA021102210009210018000009CC Disclaimer - SLOW - Click Club (:08-:10) **DNU*                                                                          150                                
PGRFAMCHA021102210018231812021754Pelican Brief; The                                                                                                    C2068807DCC                              
ID FAMCHA021102231812231817000005Generic ID - Bubbles*                                                                                                       150                                
OFFFAMCHA021102231817231827000010Nonstop Block Open (:10-:15)                                                                                                                                   
PROFAMCHA021102231827231836000009CC Disclaimer - SLOW - Family (:08-:10)                                                                                     150                                
