SO FAMCHA020601043000043011000011Sign On (oct 1)                                                                                                                                                
PROFAMCHA020601043011043019000008CC Is Brought To You By - Ian **DNU AFTER 09/22**                                                                           150                                
PGRFAMCHA020601043019045324002305Out of the Box                                    Down on the Farm                                                     60686110CC                              
ID FAMCHA020601045324045334000010Generic ID - Bubbles                                                                                                        150                                
PROFAMCHA020601045334045350000016Legend of Tarzan (THUNDER-D12/WKNDS) - Weekdays @                                                                           150                                
PROFAMCHA020601045350045400000010Weekend AM Line-Up - 01 - ART/KATIE/DUCKTALES                                                                               150                                
PGRFAMCHA020601045400051348001948Art Attack                                        1-047                                                                60686110                                
ID FAMCHA020601051348051403000015Generic ID - confetti                                                                                                       150                                
PROFAMCHA020601051403051420000017Katie and Orbie (OCT2001) - Coming Up                                                                                       150                                
PRCFAMCHA020601051420051450000030Franklin and the Green Knight - Next Saturday @ 12                                                                          150                                
PROFAMCHA020601051450051500000010Weekend AM Line-Up - 02 - KATIE/DUCKTALES/LULU                                                                              150                                
PROFAMCHA020601051500051508000008CC Is Brought To You By - Lark **DNU AFTER 09/22**                                                                          150                                
PGRFAMCHA020601051508054148002640Katie And Orbie                                   New Bike/Sorry/Tooth Fairy                                    C19664A1065607ECC                              
ID FAMCHA020601054148054153000005Generic ID - Couch 1*                                                                                                       150                                
PROFAMCHA020601054153054219000026DuckTales (CLIP) - Coming Up                                                                                                150                                
PROFAMCHA020601054219054250000031Hoze Houndz (TEETH) - Tonight @ 7:05pm                                                                                      150                                
PROFAMCHA020601054250054300000010Weekend AM Line-Up - 03 - DUCKTALES/LULU/BOP                                                                                150                                
PROFAMCHA020601054300054308000008CC Is Brought To You By - Ian **DNU AFTER 09/22**                                                                           150                                
PGRFAMCHA020601054308060555002247Disney's DuckTales                                The Curse Of Castle Mcduck                                          A6068607ECC                              
ID FAMCHA020601060555060600000005Generic ID - Couch 2*                                                                                                       150                                
PROFAMCHA020601060600060613000013Little Lulu (SWEEP) - Coming Up                                                                                             150                                
PROFAMCHA020601060613060650000037Amanda Show (CLEAN) - Today @ 8:30am                                                                                        150                                
PROFAMCHA020601060650060700000010Weekend AM Line-Up - 04 - LULU/BOP/KATIE                                                                                    150                                
PROFAMCHA020601060700060708000008CC Is Brought To You By - Lark **DNU AFTER 09/22**                                                                          150                                
PGRFAMCHA020601060708063040002332Little Lulu Show; The                             Infomercial, Tubby Kicks the Habit, Infomercial               B20204A1065607ECC                              
ID FAMCHA020601063040063045000005Generic ID - Fingerpaint                                                                                                    150                                
PROFAMCHA020601063045063052000007Weekend AM Line-Up - 05 - BOP/KATIE                                                                                         150                                
ID FAMCHA020601063052063102000010xxMagic of Disney - V3(water) - TEEN MALE                                                                                   150                                
PGRFAMCHA020601063102065504002402Book Of Pooh; The                                 Best Wishes, Winnie the Pooh/Double Time                             6068607G                                
ID FAMCHA020601065504065514000010Generic ID - Hula Hoop                                                                                                      150                                
PROFAMCHA020601065514065531000017Katie and Orbie (OCT2001) - Coming Up                                                                                       150                                
PROFAMCHA020601065531065556000025xxSmart Guy (DATE) - Today @ 7:30am **DNU**                                                                                 150                                
INTFAMCHA020601065556065925000329Art Attack - 2 Swans                                                                                                   60686120                                
PRCFAMCHA020601065925065955000030Franklin and the Green Knight - Next Saturday @ 12                                                                          150                                
PROFAMCHA020601065955070001000006Weekend AM Line-Up - 06 - KATIE                                                                                             150                                
PROFAMCHA020601070001070009000008CC Is Brought To You By - Ian **DNU AFTER 09/22**                                                                           150                                
PGRFAMCHA020601070009072650002641Katie And Orbie                                   In Kyra's Pocket/Sandbox/Yee Ping's Appendix                  C19664A1055607ECC3                             
ID FAMCHA020601072650072656000006Generic ID - soccer                                                                                                         150                                
PROFAMCHA020601072656072721000025SPDF - JUN02 - Tomorrow @ 12pm                                                                                              150                                
PROFAMCHA020601072721072747000026xxSmart Guy (PENGUIN) - Coming Up **DNU**                                                                                   150                                
PROFAMCHA020601072747072817000030Lizzie McGuire (KATE) - Today @ 8am                                                                                         150                                
PROFAMCHA020601072817072839000022Even Stevens (KARAOKE) - Today @ 9:25am                                                                                     150                                
PROFAMCHA020601072839072909000030Proud Family (DANCE) - Today @ 4:15pm                                                                                       150                                
PROFAMCHA020601072909072930000021Big Top Pee-wee - Premieres Next Saturday @ 9pm                                                                             150                                
PRCFAMCHA020601072930072939000009Morning Block menu background (flex time)                                                                                   150                                
ID FAMCHA020601072939073000000021Prime time open count down                                                                                                  150                                
PROFAMCHA020601073000073008000008CC Is Brought To You By - Lark **DNU AFTER 09/22**                                                                          150                                
PGRFAMCHA020601073008075231002223Smart Guy                                         The Dawgburger Rebellion                                            A6028807BCC                              
ID FAMCHA020601075231075241000010Generic ID - Pink inner tube                                                                                                150                                
PROFAMCHA020601075241075306000025SPDF - JUN02 - Tomorrow @ 12pm                                                                                              150                                
PROFAMCHA020601075306075336000030Lizzie McGuire (KATE) - Coming Up                                                                                           150                                
PROFAMCHA020601075336075406000030Even Stevens (GUITAR) - Today @ 9:25am                                                                                      150                                
INTFAMCHA020601075406075847000441Art Attack - Horse                                                                                                     60686120                                
PROFAMCHA020601075847075920000033Totally Circus (MAR) - Today @ 11:10am                                                                                      150                                
PROFAMCHA020601075920075941000021Big Top Pee-wee - Premieres Next Saturday @ 9pm                                                                             150                                
PRCFAMCHA020601075941075950000009Morning Block menu background (flex time)                                                                                   150                                
ID FAMCHA020601075950080000000010xxMagic of Disney - V4 - TEEN FEMALE                                                                                        150                                
PROFAMCHA020601080000080008000008CC Is Brought To You By - Ian **DNU AFTER 09/22**                                                                           150                                
PGRFAMCHA020601080008082243002235Lizzie McGuire                                    Election                                                            A6068607BCC                              
ID FAMCHA020601082243082253000010Generic ID - Ring around the rosie                                                                                          150                                
PROFAMCHA020601082253082318000025SPDF - JUN02 - Tomorrow @ 12pm                                                                                              150                                
PROFAMCHA020601082318082405000047Amanda Show (HAM) - Coming Up                                                                                               150                                
PROFAMCHA020601082405082444000039Weekenders (CLOSET) - Today @ 4:40pm                                                                                        150                                
INTFAMCHA020601082444082614000130Family X-Periment - Ep.33: Windypeg                                                                                   A10656120                                
PROFAMCHA020601082614082644000030Nightmare Ned (DRJECKLE) - Today @ 3:25pm                                                                                   150                                
PROFAMCHA020601082644082714000030Famous Jett Jackson - Today @ 10:15am                                                                                       150                                
PROFAMCHA020601082714082749000035Legend of Tarzan (PICKS&NIBBLES-D12/WKNDS) - Weekd                                                                          150                                
PROFAMCHA020601082749082909000120Your Big Break (HOOTIE) - Sunday @ 8pm                                                                                      150                                
PROFAMCHA020601082909082930000021Big Top Pee-wee - Premieres Next Saturday @ 9pm                                                                             150                                
PRCFAMCHA020601082930082939000009Morning Block menu background (flex time)                                                                                   150                                
ID FAMCHA020601082939083000000021Prime time open count down                                                                                                  150                                
PGRFAMCHA020601083000085206002206Amanda Show; The **DNU**                          2-023                                                               A20686090                                
ID FAMCHA020601085206085216000010Generic ID - Hula Hoop                                                                                                      150                                
PROFAMCHA020601085216085241000025SPDF - JUN02 - Tomorrow @ 12pm                                                                                              150                                
PROFAMCHA020601085241085311000030Famous Jett Jackson - Today @ 10:15am                                                                                       150                                
INTFAMCHA020601085311085551000240Art Attack - Baggage Plane                                                                                             60688120                                
PRCFAMCHA020601085551085631000040Funshine 2002 - GENERIC TOUR SPOT **DO NOT USE**                                                                            150                                
PRCFAMCHA020601085631085701000030Funshine 2002 - Spot #01 - MAY 27 TO JUN 02 **DO N                                                                          150                                
PROFAMCHA020601085701085739000038Totally Hoops (NATIONALS) - Today @ 11:35am                                                                                 150                                
INTFAMCHA020601085739085909000130Family X-Periment - Ep.34: Moonie                                                                                     A10656120                                
PROFAMCHA020601085909085930000021Big Top Pee-wee - Premieres Next Saturday @ 9pm                                                                             150                                
PRCFAMCHA020601085930085939000009Morning Block menu background (flex time)                                                                                   150                                
ID FAMCHA020601085939090000000021Prime time open count down                                                                                                  150                                
PROFAMCHA020601090000090008000008CC Is Brought To You By - Games                                                                                             150                                
PGRFAMCHA020601090008092136002128ALF                                               Weird Science                                                       A2068807BCC                              
ID FAMCHA020601092136092141000005Generic ID - Marbles                                                                                                        150                                
PROFAMCHA020601092141092206000025SPDF - JUN02 - Tomorrow @ 12pm                                                                                              150                                
PROFAMCHA020601092206092219000013Even Stevens (WASSUP) - Coming Up                                                                                           150                                
PROFAMCHA020601092219092252000033Totally Circus (MAR) - Today @ 11:10am                                                                                      150                                
PRCFAMCHA020601092252092312000020Jersey (SINGING) - Today @ 9:50am                                                                                           150                                
PROFAMCHA020601092312092350000038Totally Hoops (NATIONALS) - Today @ 11:35am                                                                                 150                                
PROFAMCHA020601092350092420000030Proud Family (DANCE) - Today @ 4:15pm                                                                                       150                                
PROFAMCHA020601092420092441000021Big Top Pee-wee - Premieres Next Saturday @ 9pm                                                                             150                                
PRCFAMCHA020601092441092450000009Morning Block menu background (flex time)                                                                                   150                                
ID FAMCHA020601092450092500000010xxMagic of Disney - V2(sky) - TEEN FEMALE                                                                                   150                                
PROFAMCHA020601092500092508000008CC Is Brought To You By - Click Club                                                                                        150                                
PGRFAMCHA020601092508094750002242Even Stevens                                      Strictly Ballroom                                                   A6068807BCC                              
ID FAMCHA020601094750094800000010Generic ID - Hula Hoop                                                                                                      150                                
PROFAMCHA020601094800094825000025SPDF - JUN02 - Tomorrow @ 12pm                                                                                              150                                
PRCFAMCHA020601094825094849000024Jersey (FOOTBALL) - Coming Up                                                                                               150                                
PROFAMCHA020601094849094929000040Buzz Lightyear (TRANDIBULATOR) - Weekdays @ 4pm                                                                             150                                
PROFAMCHA020601094929094950000021Big Top Pee-wee - Premieres Next Saturday @ 9pm                                                                             150                                
ID FAMCHA020601094950095000000010xxMagic of Disney - V3(water) - TEEN MALE                                                                                   150                                
PROFAMCHA020601095000095008000008CC Is Brought To You By - Games                                                                                             150                                
PGRFAMCHA020601095008101238002230Jersey; The                                       Election                                                             6068607ACC                              
ID FAMCHA020601101238101248000010Generic ID - Family w/dog                                                                                                   150                                
PROFAMCHA020601101248101313000025SPDF - JUN02 - Tomorrow @ 12pm                                                                                              150                                
PROFAMCHA020601101313101343000030Famous Jett Jackson - Coming Up                                                                                             150                                
PROFAMCHA020601101343101408000025Weekenders (TOAST) - Today @ 4:40pm                                                                                         150                                
PROFAMCHA020601101408101429000021Big Top Pee-wee - Premieres Next Saturday @ 9pm                                                                             150                                
PRCFAMCHA020601101429101439000010Morning Block menu background (flex time)                                                                                   150                                
ID FAMCHA020601101439101500000021Prime time open count down                                                                                                  150                                
PROFAMCHA020601101500101508000008CC Is Brought To You By - Click Club                                                                                        150                                
PGRFAMCHA020601101508103938002430Famous Jett Jackson; The                          Beauregard's Beach Bash                                       B57168 1065607ACC                              
ID FAMCHA020601103938103943000005Generic ID - Couch 2*                                                                                                       150                                
PROFAMCHA020601103943104008000025SPDF - JUN02 - Tomorrow @ 12pm                                                                                              150                                
PROFAMCHA020601104008104038000030Bug Juice - Coming Up                                                                                                       150                                
PROFAMCHA020601104038104103000025Weekenders (TOAST) - Today @ 4:40pm                                                                                         150                                
PROFAMCHA020601104103104208000105Your Big Break (CHRISTINA) - Tomorrow @ 8pm                                                                                 150                                
PROFAMCHA020601104208104229000021Big Top Pee-wee - Premieres Next Saturday @ 9pm                                                                             150                                
PRCFAMCHA020601104229104239000010Morning Block menu background (flex time)                                                                                   150                                
ID FAMCHA020601104239104300000021Prime time open count down                                                                                                  150                                
PGRFAMCHA020601104300110538002238Bug Juice                                         3-001                                                               A6068607A                                
ID FAMCHA020601110538110548000010Generic ID - Pink inner tube                                                                                                150                                
PROFAMCHA020601110548110613000025SPDF - JUN02 - Tomorrow @ 12pm                                                                                              150                                
PROFAMCHA020601110613110646000033Totally Circus (MAR) - Coming Up                                                                                            150                                
PROFAMCHA020601110646110659000013Even Stevens (WASSUP) - Tomorrow @ 9:25am                                                                                   150                                
PRCFAMCHA020601110659110739000040Funshine 2002 - GENERIC TOUR SPOT **DO NOT USE**                                                                            150                                
PRCFAMCHA020601110739110809000030Funshine 2002 - Spot #01 - MAY 27 TO JUN 02 **DO N                                                                          150                                
PROFAMCHA020601110809110830000021Big Top Pee-wee - Premieres Next Saturday @ 9pm                                                                             150                                
PRCFAMCHA020601110830110839000009Morning Block menu background (flex time)                                                                                   150                                
ID FAMCHA020601110839110900000021Prime time open count down                                                                                                  150                                
PROFAMCHA020601110900110908000008CC Is Brought To You By - Click Club                                                                                        150                                
PGRFAMCHA020601110908113308002400Totally Circus                                    1-007                                                               A6068607ACC                              
ID FAMCHA020601113308113315000007Generic ID - Whisper*                                                                                                       150                                
PROFAMCHA020601113315113340000025SPDF - JUN02 - Tomorrow @ 12pm                                                                                              150                                
PROFAMCHA020601113340113418000038Totally Hoops (NATIONALS) - Coming Up                                                                                       150                                
PROFAMCHA020601113418113439000021Big Top Pee-wee - Premieres Next Saturday @ 9pm                                                                             150                                
ID FAMCHA020601113439113500000021Prime time open count down                                                                                                  150                                
PGRFAMCHA020601113500115734002234Totally Hoops                                     1-010                                                               A6068607A                                
ID FAMCHA020601115734115744000010Generic ID - Ring around the rosie                                                                                          150                                
PROFAMCHA020601115744115809000025SPDF - JUN02 - Tomorrow @ 12pm                                                                                              150                                
PRCFAMCHA020601115809115849000040Funshine 2002 - GENERIC TOUR SPOT **DO NOT USE**                                                                            150                                
PRCFAMCHA020601115849115919000030Funshine 2002 - Spot #01 - MAY 27 TO JUN 02 **DO N                                                                          150                                
PROFAMCHA020601115919115940000021Big Top Pee-wee - Premieres Next Saturday @ 9pm                                                                             150                                
ID FAMCHA020601115940120000000020Move open family size movie                                                                                                 150                                
PROFAMCHA020601120000120007000007Rating - G - Ian                                                                                                            150                                
PROFAMCHA020601120007120014000007CC Is Brought To You By - Games                                                                                             150                                
ID FAMCHA020601120014120024000010xxMagic of Disney - V3(water) - TEEN FEMALE                                                                                 150                                
PGRFAMCHA020601120024132818012754Disney's Flubber                                                                                                      A6068807DCC                              
ID FAMCHA020601132818132828000010Generic ID - Family w/dog                                                                                                   150                                
PROFAMCHA020601132828132853000025SPDF - JUN02 - Tomorrow @ 12pm                                                                                              150                                
PROFAMCHA020601132853132910000017Recess (TATTLETALE-D12/WKNDS) - Weekdays @ 5:30pm                                                                           150                                
PROFAMCHA020601132910132940000030Nightmare Ned (DRJECKLE) - Today @ 3:25pm                                                                                   150                                
ID FAMCHA020601132940133000000020Move open family size movie                                                                                                 150                                
PROFAMCHA020601133000133007000007Rating - G - Ian                                                                                                            150                                
ID FAMCHA020601133007133017000010xxMagic of Disney - V3(water) - TEEN FEMALE                                                                                 150                                
PGRFAMCHA020601133017145549012532Demon In The Bottle                                                                                                   A6068807C                                
ID FAMCHA020601145549145559000010Generic ID - Hula Hoop                                                                                                      150                                
PROFAMCHA020601145559145624000025SPDF - JUN02 - Tomorrow @ 12pm                                                                                              150                                
PROFAMCHA020601145624145729000105Your Big Break (CHRISTINA) - Tomorrow @ 8pm                                                                                 150                                
PRCFAMCHA020601145729145809000040Funshine 2002 - GENERIC TOUR SPOT **DO NOT USE**                                                                            150                                
PRCFAMCHA020601145809145839000030Funshine 2002 - Spot #01 - MAY 27 TO JUN 02 **DO N                                                                          150                                
PROFAMCHA020601145839145908000029House of Mouse (HATS) - Today @ 3:50pm                                                                                      150                                
PROFAMCHA020601145908145929000021Big Top Pee-wee - Premieres Next Saturday @ 9pm                                                                             150                                
PRCFAMCHA020601145929145939000010Morning Block menu background (flex time)                                                                                   150                                
ID FAMCHA020601145939150000000021Prime time open count down                                                                                                  150                                
PROFAMCHA020601150000150008000008CC Is Brought To You By - Games                                                                                             150                                
PGRFAMCHA020601150008152136002128ALF                                               Weird Science                                                       A2068807BCC                              
ID FAMCHA020601152136152141000005Generic ID - Couch 2*                                                                                                       150                                
PROFAMCHA020601152141152206000025SPDF - JUN02 - Tomorrow @ 12pm                                                                                              150                                
PROFAMCHA020601152206152236000030Nightmare Ned (DRJECKLE) - Coming Up                                                                                        150                                
PROFAMCHA020601152236152258000022Legend of Tarzan (MY JEWEL-D12/WKNDS) - Today @ 5p                                                                          150                                
PRCFAMCHA020601152258152338000040Funshine 2002 - GENERIC TOUR SPOT **DO NOT USE**                                                                            150                                
PRCFAMCHA020601152338152408000030Funshine 2002 - Spot #01 - MAY 27 TO JUN 02 **DO N                                                                          150                                
PROFAMCHA020601152408152429000021Big Top Pee-wee - Premieres Next Saturday @ 9pm                                                                             150                                
PRCFAMCHA020601152429152439000010Morning Block menu background (flex time)                                                                                   150                                
ID FAMCHA020601152439152500000021Prime time open count down                                                                                                  150                                
PROFAMCHA020601152500152508000008CC Is Brought To You By - Click Club                                                                                        150                                
PGRFAMCHA020601152508154743002235Nightmare Ned                                     Tooth Or Consequences/Show Me The Infidel                           A6068607ECC                              
ID FAMCHA020601154743154753000010Generic ID - Pink inner tube                                                                                                150                                
PROFAMCHA020601154753154818000025SPDF - JUN02 - Tomorrow @ 12pm                                                                                              150                                
PROFAMCHA020601154818154857000039House of Mouse (DOOR) - Today @ 3:50pm                                                                                      150                                
PROFAMCHA020601154857154909000012Weekenders (HANG OUT) - Today @ 4:40pm                                                                                      150                                
PROFAMCHA020601154909154930000021Big Top Pee-wee - Premieres Next Saturday @ 9pm                                                                             150                                
PRCFAMCHA020601154930154939000009Morning Block menu background (flex time)                                                                                   150                                
ID FAMCHA020601154939155000000021Prime time open count down                                                                                                  150                                
PROFAMCHA020601155000155008000008CC Is Brought To You By - Games                                                                                             150                                
PGRFAMCHA020601155008161246002238Disney's House Of Mouse                           Goofy For A Day                                                     A6068607ECC                              
ID FAMCHA020601161246161256000010Generic ID - confetti                                                                                                       150                                
PROFAMCHA020601161256161321000025SPDF - JUN02 - Tomorrow @ 12pm                                                                                              150                                
PROFAMCHA020601161321161351000030Proud Family (DANCE) - Coming Up                                                                                            150                                
PROFAMCHA020601161351161408000017Recess (TATTLETALE-D12/WKNDS) - Weekdays @ 5:30pm                                                                           150                                
PROFAMCHA020601161408161429000021Big Top Pee-wee - Premieres Next Saturday @ 9pm                                                                             150                                
PRCFAMCHA020601161429161439000010Morning Block menu background (flex time)                                                                                   150                                
ID FAMCHA020601161439161500000021Prime time open count down                                                                                                  150                                
PROFAMCHA020601161500161508000008CC Is Brought To You By - Games                                                                                             150                                
PGRFAMCHA020601161508163727002219Proud Family; The                                 I Love You Penny                                                    A6068807ECC                              
ID FAMCHA020601163727163732000005Generic ID - Marbles                                                                                                        150                                
PROFAMCHA020601163732163757000025SPDF - JUN02 - Tomorrow @ 12pm                                                                                              150                                
PRCFAMCHA020601163757163837000040Funshine 2002 - GENERIC TOUR SPOT **DO NOT USE**                                                                            150                                
PRCFAMCHA020601163837163907000030Funshine 2002 - Spot #01 - MAY 27 TO JUN 02 **DO N                                                                          150                                
PROFAMCHA020601163907163928000021Big Top Pee-wee - Premieres Next Saturday @ 9pm                                                                             150                                
PRCFAMCHA020601163928163939000011Morning Block menu background (flex time)                                                                                   150                                
ID FAMCHA020601163939164000000021Prime time open count down                                                                                                  150                                
PGRFAMCHA020601164000170255002255Disney's The Weekenders                           Clown/Testing Dixon                                                 A6068607E                                
ID FAMCHA020601170255170300000005Generic ID - Couch 2*                                                                                                       150                                
PROFAMCHA020601170300170325000025SPDF - JUN02 - Tomorrow @ 12pm                                                                                              150                                
PROFAMCHA020601170325170355000030Mighty Ducks (MAR2002) - Coming Up                                                                                          150                                
PRCFAMCHA020601170355170419000024Jersey (FOOTBALL) - Tomorrow @ 9:50am                                                                                       150                                
PROFAMCHA020601170419170440000021Big Top Pee-wee - Premieres Next Saturday @ 9pm                                                                             150                                
PRCFAMCHA020601170440170450000010Morning Block menu background (flex time)                                                                                   150                                
ID FAMCHA020601170450170500000010xxMagic of Disney - V4 - TEEN MALE                                                                                          150                                
PGRFAMCHA020601170500172740002240Mighty Ducks: The Animated Series                 Jurassic Puck                                                       A6068607E                                
ID FAMCHA020601172740172750000010Generic ID - Bubbles                                                                                                        150                                
PROFAMCHA020601172750172800000010Weekend PM Line-Up - 01 - PB&J/WTP/FRANKLIN                                                                                 150                                
PROFAMCHA020601172800172808000008CC Is Brought To You By - Ian **DNU AFTER 09/22**                                                                           150                                
PGRFAMCHA020601172808175138002330PB&J Otter                                        Dollhouse/Tell-Tale Candy Wrapper                                   A6068607ECC                              
ID FAMCHA020601175138175143000005Generic ID - Couch 2*                                                                                                       150                                
PRCFAMCHA020601175143175213000030Franklin and the Green Knight - Next Saturday @ 12                                                                          150                                
PROFAMCHA020601175213175227000014New Adv of WTP (REMOTE) - Coming Up                                                                                         150                                
PROFAMCHA020601175227175240000013Little Lulu (SWEEP) - Tonight @ 6:40pm                                                                                      150                                
PROFAMCHA020601175240175250000010Weekend PM Line-Up - 02 - WTP/FRANKLIN/LULU                                                                                 150                                
ID FAMCHA020601175250175300000010xxMagic of Disney - V2(sky) - TEEN MALE                                                                                     150                                
PROFAMCHA020601175300175308000008CC Is Brought To You By - Lark **DNU AFTER 09/22**                                                                          150                                
PGRFAMCHA020601175308181549002241New Adventures of Winnie the Pooh; The            Pooh/Rock-A-Bye Pooh Bear                                            6068607ECC                              
ID FAMCHA020601181549181556000007Generic ID - Whisper*                                                                                                       150                                
PRCFAMCHA020601181556181619000023Franklin (HICCUP) - Coming Up                                                                                               150                                
PRCFAMCHA020601181619181649000030Franklin and the Green Knight - Next Saturday @ 12                                                                          150                                
PROFAMCHA020601181649181659000010Weekend PM Line-Up - 03 - FRANKLIN/LULU/HOZE                                                                                150                                
PROFAMCHA020601181659181707000008CC Is Brought To You By - Ian **DNU AFTER 09/22**                                                                           150                                
PGRFAMCHA020601181707184000002253Franklin                                          Meets Ermine/Funny Business                                   B38153A1065607ECC                              
ID FAMCHA020601184000184010000010Generic ID - Pink inner tube                                                                                                150                                
PROFAMCHA020601184010184023000013Little Lulu (SWEEP) - Coming Up                                                                                             150                                
PRCFAMCHA020601184023184053000030Franklin and the Green Knight - Next Saturday @ 12                                                                          150                                
PROFAMCHA020601184053184100000007Weekend PM Line-Up - 04 - LULU/HOZE                                                                                         150                                
PROFAMCHA020601184100184108000008CC Is Brought To You By - Lark **DNU AFTER 09/22**                                                                          150                                
PGRFAMCHA020601184108190758002650Little Lulu Show; The                             Green Girl/Rainy Day/Beautiful Lulu                           C19574A1065607ECC                              
ID FAMCHA020601190758190803000005Generic ID - Bubbles*                                                                                                       150                                
PROFAMCHA020601190803190809000006Weekend PM Line-Up - 05 - HOZE                                                                                              150                                
PROFAMCHA020601190809190817000008CC Is Brought To You By - Ian **DNU AFTER 09/22**                                                                           150                                
PGRFAMCHA020601190817193052002235Hoze Houndz                                       Stardumb/Where's The Beef?                                    B34006A1065607ECC                              
ID FAMCHA020601193052193057000005Generic ID - Bubbles*                                                                                                       150                                
PROFAMCHA020601193057193105000008CC Is Brought To You By - Games                                                                                             150                                
PGRFAMCHA020601193105195535002430Famous Jett Jackson; The                          Beauregard's Beach Bash                                       B57168 1065607ACC                              
ID FAMCHA020601195535195545000010Generic ID - Ring around the rosie                                                                                          150                                
PROFAMCHA020601195545195610000025SPDF - JUN02 - Tomorrow @ 12pm                                                                                              150                                
PROFAMCHA020601195610195634000024Honey, I Shrunk the Kids (AUG2001) - Coming Up                                                                              150                                
PROFAMCHA020601195634195704000030Are You Afraid of the Dark? (PT.1) - Tonight @ 8:4                                                                          150                                
PROFAMCHA020601195704195752000048Amanda Show (JACUZZI) - Tomorrow @ 8:30am                                                                                   150                                
INTFAMCHA020601195752195856000104Jack and Marcel: Ep.024 "The Bone"                                                                                    A40688120                                
PRCFAMCHA020601195856195920000024Jersey (FOOTBALL) - Tomorrow @ 9:50am                                                                                       150                                
PROFAMCHA020601195920195941000021Big Top Pee-wee - Premieres Next Saturday @ 9pm                                                                             150                                
PRCFAMCHA020601195941195950000009Morning Block menu background (flex time)                                                                                   150                                
ID FAMCHA020601195950200000000010xxMagic of Disney - V3(water) - ADULT MALE                                                                                  150                                
PGRFAMCHA020601200000204312004312Disney's Honey, I Shrunk The Kids: The TV Show    I'm Not Just Clowning Around                                         6068807B                                
ID FAMCHA020601204312204322000010Generic ID - Hula Hoop                                                                                                      150                                
PROFAMCHA020601204322204352000030Are You Afraid of the Dark? (PT.1) - Coming Up                                                                              150                                
PROFAMCHA020601204352204430000038Totally Hoops (NATIONALS) - Tomorrow @ 11:35am                                                                              150                                
PRCFAMCHA020601204430204439000009Morning Block menu background (flex time)                                                                                   150                                
ID FAMCHA020601204439204500000021Prime time open count down                                                                                                  150                                
PGRFAMCHA020601204500205856001356Are You Afraid of the Dark?                       Train Magic Pt.2                                              SR0305A1066807A                                
ID FAMCHA020601205856205906000010Generic ID - Ring around the rosie                                                                                          150                                
PROFAMCHA020601205906205941000035Legend of Tarzan (PICKS&NIBBLES-D12/WKNDS) - Weekd                                                                          150                                
ID FAMCHA020601205941210001000020Move open family size movie                                                                                                 150                                
PROFAMCHA020601210001210008000007Rating - PG - Lark                                                                                                          150                                
PGRFAMCHA020601210008233127023119Music Man; The                                                                                                        B2068807D                                
ID FAMCHA020601233127233132000005Generic ID - Bubbles*                                                                                                       150                                
PROFAMCHA020601233132233140000008MV Web Throw - family.ca                                                                                                    150                                
ID FAMCHA020601233140233200000020Move open family size movie                                                                                                 150                                
PROFAMCHA020601233200233207000007Rating - PG - Ian                                                                                                           150                                
PROFAMCHA020601233207233214000007CC Is Brought To You By - Games                                                                                             150                                
PGRFAMCHA020601233214010423013209What About Bob?                                                                                                       B6068807DCC                              
ID FAMCHA020601010423010429000006Generic ID - soccer                                                                                                         150                                
PGRFAMCHA020601010429012851002422Are You Afraid Of The Dark?                       The Tale of the Dangerous Soup                                SR0304 1066807A                                
OFFFAMCHA020601012851043000030109                                                                                                                                                               
SO FAMCHA020602043000043011000011Sign On (oct 1)                                                                                                                                                
PROFAMCHA020602043011043019000008CC Is Brought To You By - Ian **DNU AFTER 09/22**                                                                           150                                
PGRFAMCHA020602043019045329002310Out of the Box                                    Pajama Party                                                         60686110CC                              
ID FAMCHA020602045329045339000010Generic ID - Bubbles                                                                                                        150                                
PROFAMCHA020602045339045352000013Little Lulu (SWEEP) - Tonight @ 6:40pm                                                                                      150                                
PROFAMCHA020602045352045402000010Weekend AM Line-Up - 01 - ART/KATIE/DUCKTALES                                                                               150                                
PGRFAMCHA020602045402051413002011Art Attack                                        1-048                                                                60686110                                
ID FAMCHA020602051413051423000010Generic ID - Bubbles                                                                                                        150                                
PRCFAMCHA020602051423051453000030Franklin and the Green Knight - Saturday @ 12pm                                                                             150                                
PROFAMCHA020602051453051503000010Weekend AM Line-Up - 02 - KATIE/DUCKTALES/LULU                                                                              150                                
PROFAMCHA020602051503051510000007CC Is Brought To You By - Lark                                                                                              150                                
PGRFAMCHA020602051510054148002638Katie And Orbie                                   Mrs Parette's Necklace/Orbie and the Pumpkin Seed/            C19664A1065607ECC                              
ID FAMCHA020602054148054153000005Generic ID - Fingerpaint                                                                                                    150                                
PRCFAMCHA020602054153054223000030Franklin and the Green Knight - Saturday @ 12pm                                                                             150                                
PROFAMCHA020602054223054250000027PB&J Otter (PIE) - Today @ 5:25pm                                                                                           150                                
PROFAMCHA020602054250054300000010Weekend AM Line-Up - 03 - DUCKTALES/LULU/BOP                                                                                150                                
PROFAMCHA020602054300054308000008CC Is Brought To You By - Ian **DNU AFTER 09/22**                                                                           150                                
PGRFAMCHA020602054308060553002245Disney's DuckTales                                Launchpad's Civil War                                               A6068607ECC                              
ID FAMCHA020602060553060603000010Generic ID - confetti                                                                                                       150                                
PRCFAMCHA020602060603060633000030Franklin and the Green Knight - Saturday @ 12pm                                                                             150                                
PROFAMCHA020602060633060650000017Recess (TATTLETALE-D12/WKNDS) - Weekdays @ 5:30pm                                                                           150                                
PROFAMCHA020602060650060700000010Weekend AM Line-Up - 04 - LULU/BOP/KATIE                                                                                    150                                
PROFAMCHA020602060700060708000008CC Is Brought To You By - Lark **DNU AFTER 09/22**                                                                          150                                
PGRFAMCHA020602060708063045002337Little Lulu Show; The                             Telethon of Fallen Stars, Bulldozer Blues, What's             B20205A1065607ECC                              
ID FAMCHA020602063045063050000005Generic ID - Couch 1*                                                                                                       150                                
PROFAMCHA020602063050063057000007Weekend AM Line-Up - 05 - BOP/KATIE                                                                                         150                                
ID FAMCHA020602063057063107000010xxMagic of Disney - V4 - TEEN FEMALE                                                                                        150                                
PGRFAMCHA020602063107065508002401Book Of Pooh; The                                 Are You Me?/Rabbit's Happy Birthday Party                            6068607G                                
ID FAMCHA020602065508065513000005Generic ID - Couch 2*                                                                                                       150                                
PRCFAMCHA020602065513065543000030Franklin and the Green Knight - Saturday @ 12pm                                                                             150                                
PROFAMCHA020602065543065557000014New Adv of WTP (REMOTE) - Today @ 5:50pm                                                                                    150                                
INTFAMCHA020602065557065931000334MV Disney - Forever And Ever (KATHIE LEE GIFFORD)                                                                      60688120                                
PRCFAMCHA020602065931065954000023Franklin (HICCUP) - Tonight @ 6:15pm                                                                                        150                                
PROFAMCHA020602065954070000000006Weekend AM Line-Up - 06 - KATIE                                                                                             150                                
PROFAMCHA020602070000070008000008CC Is Brought To You By - Ian **DNU AFTER 09/22**                                                                           150                                
PGRFAMCHA020602070008072646002638Katie And Orbie                                   Chill/Christian/Seventh Wave                                  C19664A1055607ECC3                             
ID FAMCHA020602072646072656000010Generic ID - Family w/dog                                                                                                   150                                
PROFAMCHA020602072656072721000025SPDF - JUN02 - Today @ 12pm                                                                                                 150                                
PROFAMCHA020602072721072747000026xxSmart Guy (PENGUIN) - Coming Up **DNU**                                                                                   150                                
INTFAMCHA020602072747072917000130Family X-Periment - Ep.35: The Taste Test                                                                             A10656120                                
PROFAMCHA020602072917072938000021Big Top Pee-wee - Premieres Saturday @ 9pm                                                                                  150                                
ID FAMCHA020602072938072959000021Prime time open count down                                                                                                  150                                
PROFAMCHA020602072959073008000009CC Is Brought To You By - Games                                                                                             150                                
PGRFAMCHA020602073008075236002228Smart Guy                                         Something Wicked This Way Comes                                     A6028807BCC                              
ID FAMCHA020602075236075243000007Generic ID - Whisper*                                                                                                       150                                
PROFAMCHA020602075243075308000025SPDF - JUN02 - Today @ 12pm                                                                                                 150                                
PROFAMCHA020602075308075338000030Lizzie McGuire (KATE) - Coming Up                                                                                           150                                
INTFAMCHA020602075338075508000130Family X-Periment - Ep.36: The Candy Girl                                                                             A10656120                                
PROFAMCHA020602075508075707000159Your Big Break (BOYZIIMEN) - Tonight @ 8pm                                                                                  150                                
PROFAMCHA020602075707075748000041Amanda Show (KYLE) - Today @ 8:30am                                                                                         150                                
INTFAMCHA020602075748075918000130Family X-Periment - Ep.37: The Flat-Lands                                                                             A10656120                                
PROFAMCHA020602075918075939000021Big Top Pee-wee - Premieres Saturday @ 9pm                                                                                  150                                
PRCFAMCHA020602075939075950000011Morning Block menu background (flex time)                                                                                   150                                
ID FAMCHA020602075950080000000010xxMagic of Disney - V2(sky) - TEEN FEMALE                                                                                   150                                
PGRFAMCHA020602080000082235002235Lizzie McGuire                                    I Do, I Don't                                                       A6068607B                                
ID FAMCHA020602082235082240000005Generic ID - Couch 1*                                                                                                       150                                
PROFAMCHA020602082240082305000025SPDF - JUN02 - Today @ 12pm                                                                                                 150                                
PROFAMCHA020602082305082352000047Amanda Show (DOG) - Coming Up                                                                                               150                                
PROFAMCHA020602082352082431000039Weekenders (CLOSET) - Today @ 4:40pm                                                                                        150                                
INTFAMCHA020602082431082601000130Klootz - Espace 05                                                                                                    A10658120                                
PRCFAMCHA020602082601082641000040Funshine 2002 - GENERIC TOUR SPOT **DO NOT USE**                                                                            150                                
PRCFAMCHA020602082641082711000030Funshine 2002 - Spot #01 - MAY 27 TO JUN 02 **DO N                                                                          150                                
PROFAMCHA020602082711082738000027Even Stevens (DREAM) - Today @ 9:25am                                                                                       150                                
INTFAMCHA020602082738082908000130Family X-Periment - Ep.35: The Taste Test                                                                             A10656120                                
PROFAMCHA020602082908082929000021Big Top Pee-wee - Premieres Saturday @ 9pm                                                                                  150                                
PRCFAMCHA020602082929082939000010Morning Block menu background (flex time)                                                                                   150                                
ID FAMCHA020602082939083000000021Prime time open count down                                                                                                  150                                
PGRFAMCHA020602083000085205002205Amanda Show; The                                  2-024                                                               A20686090                                
ID FAMCHA020602085205085212000007Generic ID - Whisper*                                                                                                       150                                
PROFAMCHA020602085212085237000025SPDF - JUN02 - Today @ 12pm                                                                                                 150                                
INTFAMCHA020602085237085407000130Family X-Periment - Ep.36: The Candy Girl                                                                             A10656120                                
PROFAMCHA020602085407085607000200Your Big Break (BRITNEY) - Tonight @ 8pm                                                                                    150                                
PRCFAMCHA020602085607085647000040Funshine 2002 - GENERIC TOUR SPOT **DO NOT USE**                                                                            150                                
PRCFAMCHA020602085647085717000030Funshine 2002 - Spot #01 - MAY 27 TO JUN 02 **DO N                                                                          150                                
INTFAMCHA020602085717085821000104Jack and Marcel: Ep.095 "Football"                                                                                    A40688120                                
PROFAMCHA020602085821085908000047Amanda Show (VOICE) - Weeknights @ 6pm                                                                                      150                                
PROFAMCHA020602085908085929000021Big Top Pee-wee - Premieres Saturday @ 9pm                                                                                  150                                
PRCFAMCHA020602085929085939000010Morning Block menu background (flex time)                                                                                   150                                
ID FAMCHA020602085939090000000021Prime time open count down                                                                                                  150                                
PROFAMCHA020602090000090008000008CC Is Brought To You By - Click Club                                                                                        150                                
PGRFAMCHA020602090008092135002127ALF                                               La Cucaracha                                                        A2068807BCC                              
ID FAMCHA020602092135092145000010Generic ID - Pink inner tube                                                                                                150                                
PROFAMCHA020602092145092210000025SPDF - JUN02 - Today @ 12pm                                                                                                 150                                
PROFAMCHA020602092210092240000030Even Stevens (GUITAR) - Coming Up                                                                                           150                                
PRCFAMCHA020602092240092320000040Funshine 2002 - GENERIC TOUR SPOT **DO NOT USE**                                                                            150                                
PRCFAMCHA020602092320092350000030Funshine 2002 - Spot #01 - MAY 27 TO JUN 02 **DO N                                                                          150                                
PROFAMCHA020602092350092419000029House of Mouse (HATS) - Today @ 3:50pm                                                                                      150                                
PROFAMCHA020602092419092440000021Big Top Pee-wee - Premieres Saturday @ 9pm                                                                                  150                                
PRCFAMCHA020602092440092450000010Morning Block menu background (flex time)                                                                                   150                                
ID FAMCHA020602092450092500000010xxMagic of Disney - V2(sky) - TEEN MALE                                                                                     150                                
PROFAMCHA020602092500092508000008CC Is Brought To You By - Games                                                                                             150                                
PGRFAMCHA020602092508094750002242Even Stevens                                      Almost Perfect                                                      A6068807BCC                              
ID FAMCHA020602094750094800000010Generic ID - Ring around the rosie                                                                                          150                                
PROFAMCHA020602094800094825000025SPDF - JUN02 - Today @ 12pm                                                                                                 150                                
PRCFAMCHA020602094825094849000024Jersey (FOOTBALL) - Coming Up                                                                                               150                                
PROFAMCHA020602094849094919000030Amanda Show (CONCEPT) - Weeknights @ 6pm                                                                                    150                                
PROFAMCHA020602094919094940000021Big Top Pee-wee - Premieres Saturday @ 9pm                                                                                  150                                
PRCFAMCHA020602094940094950000010Morning Block menu background (flex time)                                                                                   150                                
ID FAMCHA020602094950095000000010xxMagic of Disney - V3(water) - TEEN FEMALE                                                                                 150                                
PROFAMCHA020602095000095008000008CC Is Brought To You By - Click Club                                                                                        150                                
PGRFAMCHA020602095008101238002230Jersey; The                                       Speeding Bullet                                                      6068607ACC                              
ID FAMCHA020602101238101249000011Generic ID - soccer                                                                                                         150                                
PROFAMCHA020602101249101314000025SPDF - JUN02 - Today @ 12pm                                                                                                 150                                
PROFAMCHA020602101314101344000030Famous Jett Jackson - Coming Up                                                                                             150                                
PROFAMCHA020602101344101408000024Honey, I Shrunk the Kids (AUG2001) - Tomorrow @ 8p                                                                          150                                
PROFAMCHA020602101408101429000021Big Top Pee-wee - Premieres Saturday @ 9pm                                                                                  150                                
PRCFAMCHA020602101429101439000010Morning Block menu background (flex time)                                                                                   150                                
ID FAMCHA020602101439101500000021Prime time open count down                                                                                                  150                                
PROFAMCHA020602101500101508000008CC Is Brought To You By - Games                                                                                             150                                
PGRFAMCHA020602101508103938002430Famous Jett Jackson; The                          Food For Thought                                              B57169 1065607ACC                              
ID FAMCHA020602103938103944000006Generic ID - soccer                                                                                                         150                                
PROFAMCHA020602103944104009000025SPDF - JUN02 - Today @ 12pm                                                                                                 150                                
PROFAMCHA020602104009104047000038Totally Hoops (NATIONALS) - Today @ 11:35am                                                                                 150                                
PRCFAMCHA020602104047104127000040Funshine 2002 - GENERIC TOUR SPOT **DO NOT USE**                                                                            150                                
PRCFAMCHA020602104127104157000030Funshine 2002 - Spot #01 - MAY 27 TO JUN 02 **DO N                                                                          150                                
PROFAMCHA020602104157104209000012Weekenders (HANG OUT) - Today @ 4:40pm                                                                                      150                                
PROFAMCHA020602104209104230000021Big Top Pee-wee - Premieres Saturday @ 9pm                                                                                  150                                
PRCFAMCHA020602104230104239000009Morning Block menu background (flex time)                                                                                   150                                
ID FAMCHA020602104239104300000021Prime time open count down                                                                                                  150                                
PGRFAMCHA020602104300110538002238Bug Juice                                         3-003                                                               A6028607A                                
ID FAMCHA020602110538110545000007Generic ID - Whisper*                                                                                                       150                                
PROFAMCHA020602110545110610000025SPDF - JUN02 - Today @ 12pm                                                                                                 150                                
INTFAMCHA020602110610110740000130Family X-Periment - Ep.37: The Flat-Lands                                                                             A10656120                                
PROFAMCHA020602110740110808000028Recess (LOGIC-D12/WKNDS) - Weekdays @ 5:30pm                                                                                150                                
PROFAMCHA020602110808110829000021Big Top Pee-wee - Premieres Saturday @ 9pm                                                                                  150                                
PRCFAMCHA020602110829110839000010Morning Block menu background (flex time)                                                                                   150                                
ID FAMCHA020602110839110900000021Prime time open count down                                                                                                  150                                
PROFAMCHA020602110900110908000008CC Is Brought To You By - Click Club                                                                                        150                                
PGRFAMCHA020602110908113308002400Totally Circus                                    1-008                                                               A6068607ACC                              
ID FAMCHA020602113308113318000010Generic ID - Bubbles                                                                                                        150                                
PROFAMCHA020602113318113343000025SPDF - JUN02 - Today @ 12pm                                                                                                 150                                
PROFAMCHA020602113343113418000035Legend of Tarzan (PICKS&NIBBLES-D12/WKNDS) - Today                                                                          150                                
PROFAMCHA020602113418113439000021Big Top Pee-wee - Premieres Saturday @ 9pm                                                                                  150                                
ID FAMCHA020602113439113500000021Prime time open count down                                                                                                  150                                
PGRFAMCHA020602113500115734002234Totally Hoops                                     1-011                                                               A6068607A                                
ID FAMCHA020602115734115739000005Generic ID - Bubbles*                                                                                                       150                                
PROFAMCHA020602115739115844000105Your Big Break (CHRISTINA) - Tonight @ 8pm                                                                                  150                                
PROFAMCHA020602115844115909000025SPDF - JUN02 - Coming Up - The Other Me                                                                                     150                                
PROFAMCHA020602115909115930000021Big Top Pee-wee - Premieres Saturday @ 9pm                                                                                  150                                
PRCFAMCHA020602115930115940000010Morning Block menu background (flex time)                                                                                   150                                
ID FAMCHA020602115940120000000020Move open family size movie                                                                                                 150                                
PROFAMCHA020602120000120008000008Rating - G - Ian                                                                                                            150                                
PROFAMCHA020602120008120016000008CC Is Brought To You By - Click Club                                                                                        150                                
ID FAMCHA020602120016120026000010xxMagic of Disney - V3(water) - TEEN MALE                                                                                   150                                
PGRFAMCHA020602120026132814012748Other Me; The                                                                                                         A6068807CCC                              
ID FAMCHA020602132814132819000005Generic ID - Couch 1*                                                                                                       150                                
PROFAMCHA020602132819132844000025SPDF - JUN02 - Coming Up - Hounded                                                                                          150                                
ID FAMCHA020602132844132904000020Move open family size movie                                                                                                 150                                
PROFAMCHA020602132904132912000008Rating - G - Lark                                                                                                           150                                
PROFAMCHA020602132912132920000008CC Is Brought To You By - Games                                                                                             150                                
ID FAMCHA020602132920132930000010xxMagic of Disney - V4 - TEEN FEMALE                                                                                        150                                
PGRFAMCHA020602132930150121013151Hounded                                                                                                               A6068807CCC                              
ID FAMCHA020602150121150126000005Generic ID - Fingerpaint                                                                                                    150                                
PROFAMCHA020602150126150134000008CC Is Brought To You By - Games                                                                                             150                                
PGRFAMCHA020602150134152301002127ALF                                               La Cucaracha                                                        A2068807BCC                              
ID FAMCHA020602152301152306000005Generic ID - Couch 1*                                                                                                       150                                
PROFAMCHA020602152306152327000021Big Top Pee-wee - Premieres Saturday @ 9pm                                                                                  150                                
PROFAMCHA020602152327152357000030Nightmare Ned (SLEEP) - Coming Up                                                                                           150                                
PROFAMCHA020602152357152414000017Recess (TATTLETALE-D12/WKNDS) - Weekdays @ 5:30pm                                                                           150                                
PROFAMCHA020602152414152439000025SPDF - JUN09 - Next Sunday @ 12pm                                                                                           150                                
ID FAMCHA020602152439152500000021Prime time open count down                                                                                                  150                                
PROFAMCHA020602152500152508000008CC Is Brought To You By - Click Club                                                                                        150                                
PGRFAMCHA020602152508154743002235Nightmare Ned                                     Willie Trout/House Of Games                                         A6068607ECC                              
ID FAMCHA020602154743154754000011Generic ID - soccer                                                                                                         150                                
PROFAMCHA020602154754154815000021Big Top Pee-wee - Premieres Saturday @ 9pm                                                                                  150                                
PRCFAMCHA020602154815154855000040Funshine 2002 - GENERIC TOUR SPOT **DO NOT USE**                                                                            150                                
PRCFAMCHA020602154855154925000030Funshine 2002 - Spot #01 - MAY 27 TO JUN 02 **DO N                                                                          150                                
PROFAMCHA020602154925154950000025SPDF - JUN09 - Next Sunday @ 12pm                                                                                           150                                
ID FAMCHA020602154950155000000010Prime time open top of hour                                                                                                 150                                
PROFAMCHA020602155000155008000008CC Is Brought To You By - Games                                                                                             150                                
PGRFAMCHA020602155008161242002234Disney's House Of Mouse                           Max's Embarassing Date                                              A6068607ECC                              
ID FAMCHA020602161242161252000010Generic ID - Family w/dog                                                                                                   150                                
PROFAMCHA020602161252161313000021Big Top Pee-wee - Premieres Saturday @ 9pm                                                                                  150                                
PROFAMCHA020602161313161343000030Proud Family (DANCE) - Coming Up                                                                                            150                                
PROFAMCHA020602161343161405000022Even Stevens (KARAOKE) - Weeknights @ 6:30pm                                                                                150                                
PROFAMCHA020602161405161430000025SPDF - JUN09 - Next Sunday @ 12pm                                                                                           150                                
PRCFAMCHA020602161430161439000009Morning Block menu background (flex time)                                                                                   150                                
ID FAMCHA020602161439161500000021Prime time open count down                                                                                                  150                                
PROFAMCHA020602161500161508000008CC Is Brought To You By - Click Club                                                                                        150                                
PGRFAMCHA020602161508163735002227Proud Family; The                                 Enter the Bullies                                                   A6028807ECC                              
ID FAMCHA020602163735163742000007Generic ID - Whisper*                                                                                                       150                                
PROFAMCHA020602163742163803000021Big Top Pee-wee - Premieres Saturday @ 9pm                                                                                  150                                
PROFAMCHA020602163803163815000012Weekenders (HANG OUT) - Coming Up                                                                                           150                                
PRCFAMCHA020602163815163855000040Funshine 2002 - GENERIC TOUR SPOT **DO NOT USE**                                                                            150                                
PRCFAMCHA020602163855163925000030Funshine 2002 - Spot #01 - MAY 27 TO JUN 02 **DO N                                                                          150                                
PROFAMCHA020602163925163950000025SPDF - JUN09 - Next Sunday @ 12pm                                                                                           150                                
ID FAMCHA020602163950164000000010Prime time open top of hour                                                                                                 150                                
PGRFAMCHA020602164000170254002254Disney's The Weekenders                           Croquembouche/Imperfection                                          A6068607E                                
ID FAMCHA020602170254170304000010Generic ID - Hula Hoop                                                                                                      150                                
PROFAMCHA020602170304170325000021Big Top Pee-wee - Premieres Saturday @ 9pm                                                                                  150                                
PROFAMCHA020602170325170355000030Mighty Ducks (MAR2002) - Coming Up                                                                                          150                                
PROFAMCHA020602170355170415000020Amanda Show (LOBSTERS) - Weeknights @ 6pm                                                                                   150                                
PROFAMCHA020602170415170440000025SPDF - JUN09 - Next Sunday @ 12pm                                                                                           150                                
PRCFAMCHA020602170440170450000010Morning Block menu background (flex time)                                                                                   150                                
ID FAMCHA020602170450170500000010xxMagic of Disney - V4 - TEEN MALE                                                                                          150                                
PGRFAMCHA020602170500172742002242Mighty Ducks: The Animated Series                 Monster Rally                                                       A6068607E                                
ID FAMCHA020602172742172752000010Generic ID - Bubbles                                                                                                        150                                
PROFAMCHA020602172752172802000010Weekend PM Line-Up - 01 - PB&J/WTP/FRANKLIN                                                                                 150                                
PROFAMCHA020602172802172810000008CC Is Brought To You By - Ian **DNU AFTER 09/22**                                                                           150                                
PGRFAMCHA020602172810175140002330PB&J Otter                                        Eye Spy/Happy Harmony                                               A6068607ECC                              
ID FAMCHA020602175140175150000010Generic ID - Pink inner tube                                                                                                150                                
PRCFAMCHA020602175150175220000030Franklin and the Green Knight - Saturday @ 12pm                                                                             150                                
ID FAMCHA020602175220175240000020Schoolhouse Promo - Weekday Mornings                                                                                        150                                
PROFAMCHA020602175240175250000010Weekend PM Line-Up - 02 - WTP/FRANKLIN/LULU                                                                                 150                                
ID FAMCHA020602175250175300000010xxMagic of Disney - V2(sky) - TEEN FEMALE                                                                                   150                                
PROFAMCHA020602175300175308000008CC Is Brought To You By - Lark **DNU AFTER 09/22**                                                                          150                                
PGRFAMCHA020602175308181550002242New Adventures of Winnie the Pooh; The            What's The Score Pooh?/Tigger's Houseguest                           6068607ECC                              
ID FAMCHA020602181550181600000010Generic ID - Ring around the rosie                                                                                          150                                
PRCFAMCHA020602181600181630000030Franklin and the Green Knight - Saturday @ 12pm                                                                             150                                
ID FAMCHA020602181630181650000020Schoolhouse Promo - Weekday Mornings                                                                                        150                                
PROFAMCHA020602181650181700000010Weekend PM Line-Up - 03 - FRANKLIN/LULU/HOZE                                                                                150                                
PROFAMCHA020602181700181708000008CC Is Brought To You By - Ian **DNU AFTER 09/22**                                                                           150                                
PGRFAMCHA020602181708184001002253Franklin                                          Sam/Berry Patch                                               B38154A1065607ECC                              
ID FAMCHA020602184001184011000010Generic ID - Bubbles                                                                                                        150                                
PROFAMCHA020602184011184024000013Little Lulu (SWEEP) - Coming Up                                                                                             150                                
PRCFAMCHA020602184024184054000030Franklin and the Green Knight - Saturday @ 12pm                                                                             150                                
PROFAMCHA020602184054184101000007Weekend PM Line-Up - 04 - LULU/HOZE                                                                                         150                                
PROFAMCHA020602184101184108000007CC Is Brought To You By - Lark                                                                                              150                                
PGRFAMCHA020602184108190658002550Little Lulu Show; The                             Alvins Record Player/Lulu's Television Debut/Cryba            C19574A1065607ECC                              
ID FAMCHA020602190658190703000005Generic ID - Bubbles*                                                                                                       150                                
PROFAMCHA020602190703190709000006Weekend PM Line-Up - 05 - HOZE                                                                                              150                                
PROFAMCHA020602190709190717000008CC Is Brought To You By - Ian **DNU AFTER 09/22**                                                                           150                                
PGRFAMCHA020602190717192952002235Hoze Houndz                                       Hozer's Angels/Veggie Houndz                                  B34007 1065607ECC                              
ID FAMCHA020602192952193002000010Generic ID - Bubbles                                                                                                        150                                
PROFAMCHA020602193002193010000008CC Is Brought To You By - Games                                                                                             150                                
PGRFAMCHA020602193010195246002236In A Heartbeat                                    Friends Don't let Friends...                                  B57194A1065807ACC                              
ID FAMCHA020602195246195253000007Generic ID - Whisper*                                                                                                       150                                
PROFAMCHA020602195253195314000021Big Top Pee-wee - Premieres Saturday @ 9pm                                                                                  150                                
PROFAMCHA020602195314195324000010MV FAMJAM - Teaser (Generic)                                                                                                150                                
PROFAMCHA020602195324195421000057Your Big Break (MATCHBOX20) - Coming Up                                                                                     150                                
INTFAMCHA020602195421195854000433xMV - Girlfriend (Nelly)                                                                                              A20688120                                
PROFAMCHA020602195854195904000010MV Web Throw - music@family.ca                                                                                              150                                
PROFAMCHA020602195904195929000025SPDF - JUN09 - Next Sunday @ 12pm                                                                                           150                                
PRCFAMCHA020602195929195939000010Morning Block menu background (flex time)                                                                                   150                                
ID FAMCHA020602195939200000000021Prime time open count down                                                                                                  150                                
PGRFAMCHA020602200000204222004222Your Big Break                                    2-019                                                               A60688090                                
ID FAMCHA020602204222204232000010Generic ID - Bubbles                                                                                                        150                                
PROFAMCHA020602204232204253000021Big Top Pee-wee - Premieres Saturday @ 9pm                                                                                  150                                
PROFAMCHA020602204253204323000030Are You Afraid of the Dark? (PT.1) - Coming Up                                                                              150                                
