SO FAMCHA020401043000043011000011Sign On (oct 1)                                                                                                                                                
PGRFAMCHA020401043011045416002405Out of the Box                                    Join The Parade                                                     A6068607A                                
ID FAMCHA020401045416045421000005Generic ID - Couch 1*                                                                                                       150                                
PROFAMCHA020401045421045431000010Preschool Line-Up - 01 - ART/KATIE/DUCKTALES                                                                                150                                
PGRFAMCHA020401045431051131001700Art Attack                                        Mummy/Monster Masks                                                 A60686110                                
ID FAMCHA020401051131051137000006Generic ID - soccer                                                                                                         150                                
PROFAMCHA020401051137051212000035First Easter Rabbit - Today @ 9:30am                                                                                        150                                
PROFAMCHA020401051212051229000017Katie and Orbie (OCT2001) - Coming Up                                                                                       150                                
PROFAMCHA020401051229051350000121Elmo's World (FAM2) - Today @ 8:45am                                                                                        150                                
PROFAMCHA020401051350051413000023PB&J Otter (SNOW) - Today @ 1:30pm                                                                                          150                                
PROFAMCHA020401051413051450000037Easter Bunny Is Comin' To Town - Today @ 2pm                                                                                150                                
PROFAMCHA020401051450051500000010Preschool Line-Up - 02 - KATIE/DUCKTALES/LULU                                                                               150                                
PROFAMCHA020401051500051508000008CC Is Brought To You By - Ian **DNU AFTER 09/22**                                                                           150                                
PGRFAMCHA020401051508054144002636Katie And Orbie                                   The Library/Rollerskates/Scary Movie                          C12449A1065607ECC                              
ID FAMCHA020401054144054149000005Generic ID - Couch 1*                                                                                                       150                                
PROFAMCHA020401054149054215000026DuckTales (CLIP) - Coming Up                                                                                                150                                
PROFAMCHA020401054215054250000035First Easter Rabbit - Today @ 9:30am                                                                                        150                                
PROFAMCHA020401054250054300000010Preschool Line-Up - 03 - DUCKTALES/LULU/FRANKLIN                                                                            150                                
PROFAMCHA020401054300054308000008CC Is Brought To You By - Lark **DNU AFTER 09/22**                                                                          150                                
PGRFAMCHA020401054308060555002247Disney's DuckTales                                Cold Duck (treasure Part 4)                                         A6068607ECC                              
ID FAMCHA020401060555060606000011Generic ID - soccer                                                                                                         150                                
PROFAMCHA020401060606060615000009PB&J Otter (AUG2001) - Open - Today @ 1:30pm                                                                                150                                
PROFAMCHA020401060615060650000035First Easter Rabbit - Today @ 9:30am                                                                                        150                                
PROFAMCHA020401060650060700000010Preschool Line-Up - 04 - LULU/FRANKLIN/GOOF                                                                                 150                                
PROFAMCHA020401060700060708000008CC Is Brought To You By - Ian **DNU AFTER 09/22**                                                                           150                                
PGRFAMCHA020401060708063040002332Little Lulu Show; The                             Bowlfinger/Great Tubbini                                      B20191A1065607E                                
ID FAMCHA020401063040063045000005Generic ID - Couch 1*                                                                                                       150                                
PROFAMCHA020401063045063055000010Preschool Line-Up - 05 - FRANKLIN/GOOF/BUZZ                                                                                 150                                
PROFAMCHA020401063055063103000008CC Is Brought To You By - Lark **DNU AFTER 09/22**                                                                          150                                
PGRFAMCHA020401063103065356002253Franklin                                          Franklin Fibs/Franklin's Blanket                              B10185A1065607ECC                              
ID FAMCHA020401065356065401000005Generic ID - Couch 2*                                                                                                       150                                
PROFAMCHA020401065401065436000035First Easter Rabbit - Today @ 9:30am                                                                                        150                                
PRCFAMCHA020401065436065459000023Goof Troop (TV) - Coming Up                                                                                                 150                                
ID FAMCHA020401065459065519000020Schoolhouse Promo - Coming Up                                                                                               150                                
PROFAMCHA020401065519065541000022Stanley (ANTELOPE) - Today @ 9:05am                                                                                         150                                
INTFAMCHA020401065541065904000323Schoolhouse Rock - Rufus Xavier Sarsparilla                                                                           A60686120                                
PROFAMCHA020401065904065941000037Easter Bunny Is Comin' To Town - Today @ 2pm                                                                                150                                
PROFAMCHA020401065941065951000010Preschool Line-Up - 06 - GOOF/BUZZ/ART                                                                                      150                                
ID FAMCHA020401065951070001000010xxMagic of Disney - V2(sky) - KID FEMALE                                                                                    150                                
PROFAMCHA020401070001070008000007CC Is Brought To You By - Ian                                                                                               150                                
PGRFAMCHA020401070008072254002246Goof Troop                                        Fool's Gold                                                          6068607ECC                              
ID FAMCHA020401072254072300000006Generic ID - soccer                                                                                                         150                                
PROFAMCHA020401072300072337000037Easter Bunny Is Comin' To Town - Today @ 2pm                                                                                150                                
PROFAMCHA020401072337072400000023Buzz Lightyear (POSTERITY) - Coming Up                                                                                      150                                
PROFAMCHA020401072400072407000007PB&J Otter (AUG2001) - Kite - Today @ 1:30pm                                                                                150                                
PROFAMCHA020401072407072435000028Art Attack (SCOTSMAN) - Today @ 8am                                                                                         150                                
ID FAMCHA020401072435072450000015Schoolhouse Promo - Coming Up                                                                                               150                                
PRCFAMCHA020401072450072517000027Franklin (SUB) - Today @ 12:25pm                                                                                            150                                
INTFAMCHA020401072517072840000323Schoolhouse Rock - Busy Prepositions                                                                                  A60686120                                
PROFAMCHA020401072840072915000035Legend of Tarzan (PICKS&NIBBLES-D12/WKNDS) - Today                                                                          150                                
PROFAMCHA020401072915072950000035First Easter Rabbit - Today @ 9:30am                                                                                        150                                
PROFAMCHA020401072950073000000010Preschool Line-Up - 07 - BUZZ/ART/LULU                                                                                      150                                
PROFAMCHA020401073000073008000008CC Is Brought To You By - Lark **DNU AFTER 09/22**                                                                          150                                
PGRFAMCHA020401073008075159002151Disney/Pixar's Buzz Lightyear of Star Command     Super Nova                                                           6068607ECC                              
ID FAMCHA020401075159075204000005Generic ID - Fingerpaint                                                                                                    150                                
PROFAMCHA020401075204075239000035First Easter Rabbit - Today @ 9:30am                                                                                        150                                
PROFAMCHA020401075239075253000014Art Attack (ART) - Coming Up                                                                                                150                                
PROFAMCHA020401075253075414000121Elmo's World (FAM2) - Today @ 8:45am                                                                                        150                                
ID FAMCHA020401075414075427000013Schoolhouse Promo - Coming Up                                                                                               150                                
PROFAMCHA020401075427075453000026Hoze Houndz (GAS) - Today @ 11:35am                                                                                         150                                
INTFAMCHA020401075453075816000323Schoolhouse Rock - Lolly, Lolly, Lolly Get Your Ad                                                                    A60686120                                
INTFAMCHA020401075816075913000057Frankenguy and the Professor - sleepy                                                                                  60688120                                
PROFAMCHA020401075913075950000037Easter Bunny Is Comin' To Town - Today @ 2pm                                                                                150                                
PROFAMCHA020401075950080000000010Preschool Line-Up - 08 - ART/LULU/ELMO                                                                                      150                                
PGRFAMCHA020401080000081510001510Art Attack                                        1-042                                                                60686110                                
ID FAMCHA020401081510081520000010Generic ID - Hula Hoop                                                                                                      150                                
PROFAMCHA020401081520081557000037Easter Bunny Is Comin' To Town - Today @ 2pm                                                                                150                                
ID FAMCHA020401081557081617000020Schoolhouse Promo - Coming Up                                                                                               150                                
PROFAMCHA020401081617081652000035Legend of Tarzan (PICKS&NIBBLES-D12/WKNDS) - Today                                                                          150                                
INTFAMCHA020401081652082015000323Schoolhouse Rock - Ready or Not, Here I Come                                                                          A60686120                                
PROFAMCHA020401082015082050000035First Easter Rabbit - Today @ 9:30am                                                                                        150                                
PROFAMCHA020401082050082100000010Preschool Line-Up - 09 - LULU/ELMO/STANLEY                                                                                  150                                
PROFAMCHA020401082100082108000008CC Is Brought To You By - Ian **DNU AFTER 09/22**                                                                           150                                
PGRFAMCHA020401082108084658002550Little Lulu Show; The                             Alvins Record Player/Lulu's Television Debut/Cryba            C19574A1065607ECC                              
ID FAMCHA020401084658084703000005Generic ID - Marbles                                                                                                        150                                
PGRFAMCHA020401084703090521001818Elmo's World                                      Flowers, Plants and Trees                                           A2068607G                                
ID FAMCHA020401090521090526000005Generic ID - Bubbles*                                                                                                       150                                
PROFAMCHA020401090526090534000008CC Is Brought To You By - Lark **DNU AFTER 09/22**                                                                          150                                
PGRFAMCHA020401090534092933002359Stanley                                           Remembering With Elephants/Garbage Can Bandit                       A6068607ECC                              
ID FAMCHA020401092933092940000007Generic ID - Whisper*                                                                                                       150                                
PROFAMCHA020401092940093015000035First Easter Rabbit - Coming Up                                                                                             150                                
ID FAMCHA020401093015093035000020Morning block open play pen                                                                                                 150                                
PGRFAMCHA020401093035095521002446First Easter Rabbit; The                                                                                              A2068807E                                
ID FAMCHA020401095521095526000005Generic ID - Couch 1*                                                                                                       150                                
PROFAMCHA020401095526095536000010Preschool Line-Up - 13 - KATIE/WTP/OOTB                                                                                     150                                
PROFAMCHA020401095536095544000008CC Is Brought To You By - Ian **DNU AFTER 09/22**                                                                           150                                
PGRFAMCHA020401095544102224002640Katie And Orbie                                   New Bike/Sorry/Tooth Fairy                                    C19664A1055607ECC3                             
ID FAMCHA020401102224102231000007Generic ID - Whisper*                                                                                                       150                                
PROFAMCHA020401102231102240000009PB&J Otter (AUG2001) - Open - Today @ 1:30pm                                                                                150                                
PROFAMCHA020401102240102250000010Preschool Line-Up - 14 - WTP/OOTB/DUCKTALES                                                                                 150                                
ID FAMCHA020401102250102300000010xxMagic of Disney - V2(sky) - KID MALE                                                                                      150                                
PROFAMCHA020401102300102308000008CC Is Brought To You By - Lark **DNU AFTER 09/22**                                                                          150                                
PGRFAMCHA020401102308104617002309New Adventures of Winnie the Pooh; The            Eeyore's Tail/Three Little Piglets                                   6068607ECC                              
ID FAMCHA020401104617104622000005Generic ID - Bubbles*                                                                                                       150                                
PROFAMCHA020401104622104637000015Out of the Box - Coming Up                                                                                                  150                                
PROFAMCHA020401104637104650000013Little Lulu (SWEEP) - Today @ 12pm                                                                                          150                                
PROFAMCHA020401104650104700000010Preschool Line-Up - 15 - OOTB/DUCKTALES/HOZE                                                                                150                                
PGRFAMCHA020401104700111105002405Out of the Box                                    Winning The Gold                                                    A6068607A                                
ID FAMCHA020401111105111110000005Generic ID - Bubbles*                                                                                                       150                                
PROFAMCHA020401111110111120000010Preschool Line-Up - 16 - DUCKTALES/HOZE/LULU                                                                                150                                
PROFAMCHA020401111120111128000008CC Is Brought To You By - Ian **DNU AFTER 09/22**                                                                           150                                
PGRFAMCHA020401111128113409002241Disney's DuckTales                                Don't Give Up The Ship (treasure Part 1)                            A6068607ECC                              
ID FAMCHA020401113409113414000005Generic ID - Bubbles*                                                                                                       150                                
PROFAMCHA020401113414113451000037Easter Bunny Is Comin' To Town - Today @ 2pm                                                                                150                                
PROFAMCHA020401113451113501000010Preschool Line-Up - 17 - HOZE/LULU/FRANKLIN                                                                                 150                                
PROFAMCHA020401113501113508000007CC Is Brought To You By - Lark                                                                                              150                                
PGRFAMCHA020401113508115743002235Hoze Houndz                                       The Hound Who Loved Me/The Torch                              B17130A1065607ECC                              
ID FAMCHA020401115743115758000015Generic ID - confetti                                                                                                       150                                
PROFAMCHA020401115758115835000037Easter Bunny Is Comin' To Town - Today @ 2pm                                                                                150                                
PROFAMCHA020401115835115850000015Out of the Box - Today @ 2:45pm                                                                                             150                                
PROFAMCHA020401115850115900000010Preschool Line-Up - 18 - LULU/FRANKLIN/ELMO                                                                                 150                                
PROFAMCHA020401115900115908000008CC Is Brought To You By - Ian **DNU AFTER 09/22**                                                                           150                                
PGRFAMCHA020401115908122455002547Little Lulu Show; The                             Snowball War/Junior Detective Tubby/Picnic Pirates            C19574A1065607ECC                              
ID FAMCHA020401122455122500000005Generic ID - Couch 2*                                                                                                       150                                
PROFAMCHA020401122500122510000010Preschool Line-Up - 19 - FRANKLIN/ELMO/STANLEY                                                                              150                                
PROFAMCHA020401122510122518000008CC Is Brought To You By - Lark **DNU AFTER 09/22**                                                                          150                                
PGRFAMCHA020401122518124811002253Franklin                                          Franklin Is Bossy/Franklin's Fort                             B10186A1065607ECC                              
ID FAMCHA020401124811124816000005Generic ID - Couch 1*                                                                                                       150                                
PROFAMCHA020401124816124826000010Preschool Line-Up - 20 - ELMO/STANLEY/PB&J                                                                                  150                                
PGRFAMCHA020401124826130300001434Elmo's World                                      Pets                                                                A2068607G                                
ID FAMCHA020401130300130305000005Generic ID - Couch 2*                                                                                                       150                                
PROFAMCHA020401130305130342000037Easter Bunny Is Comin' To Town - Today @ 2pm                                                                                150                                
PROFAMCHA020401130342130404000022Stanley (ANTELOPE) - Coming Up                                                                                              150                                
INTFAMCHA020401130404130604000200Disney Circle Time - The Greedy Dog (anywhere but                                                                      60688120                                
PROFAMCHA020401130604130630000026DuckTales (CLIP) - Today @ 3:10pm                                                                                           150                                
PRCFAMCHA020401130630130640000010Morning Block menu background (flex time)                                                                                   150                                
ID FAMCHA020401130640130700000020Morning block open play pen                                                                                                 150                                
PROFAMCHA020401130700130708000008CC Is Brought To You By - Ian **DNU AFTER 09/22**                                                                           150                                
PGRFAMCHA020401130708133107002359Stanley                                           Snow Monkey See, Snow Monkey Do/Sick Day Stanley                    A6068607ECC                              
ID FAMCHA020401133107133117000010Generic ID - Family w/dog                                                                                                   150                                
PRCFAMCHA020401133117133140000023Goof Troop (TV) - Weekdays @ 7am                                                                                            150                                
ID FAMCHA020401133140133200000020Morning block open play pen                                                                                                 150                                
PROFAMCHA020401133200133208000008CC Is Brought To You By - Lark **DNU AFTER 09/22**                                                                          150                                
PGRFAMCHA020401133208135429002221PB&J Otter                                        Go Away Gorilla/Mama For A Day                                      A6068607ECC                              
ID FAMCHA020401135429135434000005Generic ID - Fingerpaint                                                                                                    150                                
PROFAMCHA020401135434135500000026Stanley (BABY PICS) - Weekdays @ 9:05am                                                                                     150                                
PROFAMCHA020401135500135537000037Easter Bunny Is Comin' To Town - Coming Up                                                                                  150                                
ID FAMCHA020401135537135550000013Schoolhouse Promo - Coming Up                                                                                               150                                
PROFAMCHA020401135550135559000009PB&J Otter (AUG2001) - Open - Weekdays @ 9:30am                                                                             150                                
INTFAMCHA020401135559135922000323Schoolhouse Rock - The Energy Blues                                                                                   A60686120                                
PROFAMCHA020401135922135940000018Hoze Houndz (FOOD) - Today @ 3:35pm                                                                                         150                                
ID FAMCHA020401135940140000000020Morning block open play pen                                                                                                 150                                
PGRFAMCHA020401140000144957004957Easter Bunny Is Comin' To Town; The                                                                                   A2068607E                                
ID FAMCHA020401144957145002000005Generic ID - Bubbles*                                                                                                       150                                
PROFAMCHA020401145002145012000010Preschool Line-Up - 25 - OOTB/DUCKTALES/HOZE                                                                                150                                
PGRFAMCHA020401145012151417002405Out of the Box                                    Brick By Brick                                                      A6068607A                                
ID FAMCHA020401151417151422000005Generic ID - Marbles                                                                                                        150                                
PROFAMCHA020401151422151432000010Preschool Line-Up - 26 - DUCKTALES/HOZE/BUZZ                                                                                150                                
PROFAMCHA020401151432151440000008CC Is Brought To You By - Ian **DNU AFTER 09/22**                                                                           150                                
PGRFAMCHA020401151440153718002238Disney's DuckTales                                Wrong Way In Ronguay (treasure Part 2)                              A6068607ECC                              
ID FAMCHA020401153718153723000005Generic ID - Bubbles*                                                                                                       150                                
PROFAMCHA020401153723153733000010Preschool Line-Up - 27 - HOZE/BUZZ                                                                                          150                                
PROFAMCHA020401153733153741000008CC Is Brought To You By - Lark **DNU AFTER 09/22**                                                                          150                                
PGRFAMCHA020401153741160015002234Hoze Houndz                                       High Bred Hound/Hozer, I Shrunk the Houndz                    B17131A1065607ECC                              
ID FAMCHA020401160015160020000005Generic ID - Couch 2*                                                                                                       150                                
ID FAMCHA020401160020160030000010xxMagic of Disney - V3(water) - TEEN MALE                                                                                   150                                
PROFAMCHA020401160030160100000030Disney's One Too - Opening                                                                                                  150                                
PROFAMCHA020401160100160108000008CC Is Brought To You By - Games                                                                                             150                                
PGRFAMCHA020401160108162301002153Disney/Pixar's Buzz Lightyear of Star Command     Haunted Moon                                                         6068607ECC                              
ID FAMCHA020401162301162311000010Generic ID - Ring around the rosie                                                                                          150                                
PROFAMCHA020401162311162339000028Pee-wee's Big Adventure (APR) - Saturday @ 9pm                                                                              150                                
PROFAMCHA020401162339162409000030Disney Promo (D12 only) - TARZAN - Learning The Wa                                                                          150                                
INTFAMCHA020401162409162539000130Family X-Periment - Ep.31: Akamopachuff                                                                               A10656120                                
PROFAMCHA020401162539162639000100Amanda Show (UNDERPANTS) - Tonight @ 6pm                                                                                    150                                
INTFAMCHA020401162639162904000225Art Attack - Snooker                                                                                                   60686120                                
PROFAMCHA020401162904162929000025SPDF - APR07 - Sunday @ 12pm                                                                                                150                                
PRCFAMCHA020401162929162942000013Morning Block menu background (flex time)                                                                                   150                                
ID FAMCHA020401162942163000000018Afternoon block pinball open                                                                                                150                                
PROFAMCHA020401163000163030000030Disney's One Too - Opening                                                                                                  150                                
PROFAMCHA020401163030163038000008CC Is Brought To You By - Click Club                                                                                        150                                
PGRFAMCHA020401163038165311002233Disney's Pepper Ann                               The Way We Were                                                      6068607ECC                              
ID FAMCHA020401165311165322000011Generic ID - soccer                                                                                                         150                                
PROFAMCHA020401165322165405000043Poof Point - April 13th                                                                                                     150                                
PROFAMCHA020401165405165435000030Even Stevens (GUITAR) - Tonight @ 6:30pm                                                                                    150                                
INTFAMCHA020401165435165605000130Family X-Periment - Ep.32: Courtney's Goose                                                                           A10656120                                
PROFAMCHA020401165605165629000024Honey, I Shrunk the Kids (AUG2001) - Tonight @ 8pm                                                                          150                                
INTFAMCHA020401165629165904000235Art Attack - Car Bike                                                                                                  60686120                                
PROFAMCHA020401165904165932000028Pee-wee's Big Adventure (APR) - Saturday @ 9pm                                                                              150                                
PRCFAMCHA020401165932165942000010Morning Block menu background (flex time)                                                                                   150                                
ID FAMCHA020401165942170000000018Afternoon block pinball open                                                                                                150                                
PROFAMCHA020401170000170030000030Disney's One Too - Opening                                                                                                  150                                
PGRFAMCHA020401170030172317002247Disney's The Legend of Tarzan                     The Eagle's Feather                                                 A6068607E                                
ID FAMCHA020401172317172323000006Generic ID - soccer                                                                                                         150                                
PROFAMCHA020401172323172351000028Pee-wee's Big Adventure (APR) - Saturday @ 9pm                                                                              150                                
PROFAMCHA020401172351172419000028Recess (LOGIC-D12/WKNDS) - Coming Up                                                                                        150                                
PROFAMCHA020401172419172456000037Amanda Show (CLEAN) - Tonight @ 6pm                                                                                         150                                
INTFAMCHA020401172456172517000021Recess Sketches - Bad Weather                                                                                          60686120                                
PROFAMCHA020401172517172547000030Are You Afraid of the Dark? (PT.1) - Tonight @ 8:4                                                                          150                                
INTFAMCHA020401172547172717000130Family X-Periment - Ep.33: Windypeg                                                                                   A10656120                                
PROFAMCHA020401172717172741000024Honey, I Shrunk the Kids (AUG2001) - Tonight @ 8pm                                                                          150                                
INTFAMCHA020401172741172802000021Recess Sketches - Mickey's World Record - Card Hou                                                                     60686120                                
INTFAMCHA020401172802172906000104Jack and Marcel: Ep.063 "Happy Easter"                                                                                A40688120                                
PROFAMCHA020401172906172931000025SPDF - APR07 - Sunday @ 12pm                                                                                                150                                
PRCFAMCHA020401172931172942000011Morning Block menu background (flex time)                                                                                   150                                
ID FAMCHA020401172942173000000018Afternoon block pinball open                                                                                                150                                
PROFAMCHA020401173000173030000030Disney's One Too - Opening                                                                                                  150                                
PGRFAMCHA020401173030175305002235Disney's Recess                                   One Stayed Clean/Rumor Mill                                          6068607E                                
ID FAMCHA020401175305175312000007Generic ID - Whisper*                                                                                                       150                                
PROFAMCHA020401175312175355000043Poof Point - April 13th                                                                                                     150                                
PROFAMCHA020401175355175415000020Amanda Show (LOBSTERS) - Coming Up                                                                                          150                                
PROFAMCHA020401175415175442000027Even Stevens (DREAM) - Tonight @ 6:30pm                                                                                     150                                
INTFAMCHA020401175442175612000130Family X-Periment - Ep.34: Moonie                                                                                     A10656120                                
PROFAMCHA020401175612175642000030Famous Jett Jackson - Tonight @ 7:30pm (SAT)                                                                                150                                
INTFAMCHA020401175642175900000218Art Attack - Windmill                                                                                                  60688120                                
PROFAMCHA020401175900175928000028Pee-wee's Big Adventure (APR) - Saturday @ 9pm                                                                              150                                
PRCFAMCHA020401175928175939000011Morning Block menu background (flex time)                                                                                   150                                
ID FAMCHA020401175939180000000021Prime time open count down                                                                                                  150                                
PGRFAMCHA020401180000182405002405Amanda Show; The                                  2-016                                                               A20286090                                
ID FAMCHA020401182405182415000010Generic ID - Bubbles                                                                                                        150                                
PROFAMCHA020401182415182443000028Pee-wee's Big Adventure (APR) - Saturday @ 9pm                                                                              150                                
PROFAMCHA020401182443182513000030Even Stevens (GUITAR) - Coming Up                                                                                           150                                
PROFAMCHA020401182513182543000030Famous Jett Jackson - Tonight @ 7:30pm (SAT)                                                                                150                                
INTFAMCHA020401182543182713000130Family X-Periment - Ep.31: Akamopachuff                                                                               A10656120                                
PROFAMCHA020401182713182752000039Go To Nick With Nic Contest                                                                                                 150                                
PROFAMCHA020401182752182816000024Honey, I Shrunk the Kids (AUG2001) - Tonight @ 8pm                                                                          150                                
INTFAMCHA020401182816182915000059Monkey Minutes - Dumb & Dumber                                                                                        A20688120                                
PROFAMCHA020401182915182940000025SPDF - APR07 - Sunday @ 12pm                                                                                                150                                
PRCFAMCHA020401182940182950000010Morning Block menu background (flex time)                                                                                   150                                
ID FAMCHA020401182950183000000010xxMagic of Disney - V4 - ADULT FEMALE                                                                                       150                                
PROFAMCHA020401183000183008000008CC Is Brought To You By - Games                                                                                             150                                
PGRFAMCHA020401183008185250002242Even Stevens                                      Luscious Lou                                                        A6068807BCC                              
ID FAMCHA020401185250185255000005Generic ID - Bubbles*                                                                                                       150                                
PROFAMCHA020401185255185338000043Poof Point - April 13th                                                                                                     150                                
PROFAMCHA020401185338185408000030Famous Jett Jackson - Coming Up                                                                                             150                                
PROFAMCHA020401185408185448000040Buzz Lightyear (TRANDIBULATOR) - Weekdays @ 4pm                                                                             150                                
INTFAMCHA020401185448185618000130Family X-Periment - Ep.32: Courtney's Goose                                                                           A10656120                                
PROFAMCHA020401185618185657000039Go To Nick With Nic Contest                                                                                                 150                                
PROFAMCHA020401185657185727000030Are You Afraid of the Dark? (PT.1) - Tonight @ 8:4                                                                          150                                
INTFAMCHA020401185727185901000134MV Disney - He's A Tramp                                                                                               60688120                                
PROFAMCHA020401185901185929000028Pee-wee's Big Adventure (APR) - Saturday @ 9pm                                                                              150                                
PRCFAMCHA020401185929185939000010Morning Block menu background (flex time)                                                                                   150                                
ID FAMCHA020401185939190000000021Prime time open count down                                                                                                  150                                
PROFAMCHA020401190000190008000008CC Is Brought To You By - Click Club                                                                                        150                                
PGRFAMCHA020401190008192438002430Famous Jett Jackson; The                          Battle of Wilstead                                            B57175 1065607ACC                              
ID FAMCHA020401192438192453000015Generic ID - confetti                                                                                                       150                                
PROFAMCHA020401192453192521000028Pee-wee's Big Adventure (APR) - Saturday @ 9pm                                                                              150                                
PROFAMCHA020401192521192550000029Amanda Show (HILLBILLY) - Weeknights @ 6pm                                                                                  150                                
INTFAMCHA020401192550192720000130Family X-Periment - Ep.33: Windypeg                                                                                   A10656120                                
PROFAMCHA020401192720192759000039Go To Nick With Nic Contest                                                                                                 150                                
PROFAMCHA020401192759192823000024Honey, I Shrunk the Kids (AUG2001) - Tonight @ 8pm                                                                          150                                
PROFAMCHA020401192823192903000040Buzz Lightyear (TRANDIBULATOR) - Weekdays @ 4pm                                                                             150                                
PROFAMCHA020401192903192928000025SPDF - APR07 - Sunday @ 12pm                                                                                                150                                
PRCFAMCHA020401192928192939000011Morning Block menu background (flex time)                                                                                   150                                
ID FAMCHA020401192939193000000021Prime time open count down                                                                                                  150                                
PROFAMCHA020401193000193008000008CC Is Brought To You By - Games                                                                                             150                                
PGRFAMCHA020401193008195137002129ALF                                               We Gotta Get Out Of This Place                                      A2068807BCC                              
ID FAMCHA020401195137195147000010Generic ID - Bubbles                                                                                                        150                                
PROFAMCHA020401195147195230000043Poof Point - April 13th                                                                                                     150                                
PROFAMCHA020401195230195240000010MV FAMJAM - Teaser (Generic)                                                                                                150                                
PROFAMCHA020401195240195304000024Honey, I Shrunk the Kids (AUG2001) - Coming Up                                                                              150                                
INTFAMCHA020401195304195704000400MV - The Call                                                                                                         A20688120                                
PROFAMCHA020401195704195713000009MV Web Throw - music@family.ca                                                                                              150                                
INTFAMCHA020401195713195843000130Family X-Periment - Ep.34: Moonie                                                                                     A10656120                                
PROFAMCHA020401195843195922000039Go To Nick With Nic Contest                                                                                                 150                                
PROFAMCHA020401195922195950000028Pee-wee's Big Adventure (APR) - Saturday @ 9pm                                                                              150                                
ID FAMCHA020401195950200000000010xxMagic of Disney - V4 - ADULT MALE                                                                                         150                                
PROFAMCHA020401200000200008000008CC Is Brought To You By - Click Club                                                                                        150                                
PGRFAMCHA020401200008204344004336Disney's Honey, I Shrunk The Kids: The TV Show    You Won't Believe What Happens Next                                  6068807BCC                              
ID FAMCHA020401204344204349000005Generic ID - Couch 1*                                                                                                       150                                
PROFAMCHA020401204349204428000039Go To Nick With Nic Contest                                                                                                 150                                
PRCFAMCHA020401204428204439000011Morning Block menu background (flex time)                                                                                   150                                
ID FAMCHA020401204439204500000021Prime time open count down                                                                                                  150                                
PROFAMCHA020401204500204508000008CC Is Brought To You By - Games                                                                                             150                                
PGRFAMCHA020401204508205837001329Are You Afraid of the Dark?                       The Time Trap Pt.1                                            SR0308A1066807ACC                              
ID FAMCHA020401205837205844000007Generic ID - Whisper*                                                                                                       150                                
PROFAMCHA020401205844205901000017Recess (TATTLETALE-D12/WKNDS) - Weekdays @ 5:30pm                                                                           150                                
PROFAMCHA020401205901205940000039Go To Nick With Nic Contest                                                                                                 150                                
ID FAMCHA020401205940210000000020Move open family size movie                                                                                                 150                                
PROFAMCHA020401210000210008000008Rating - PG - Ian                                                                                                           150                                
PROFAMCHA020401210008210016000008CC Is Brought To You By - Click Club                                                                                        150                                
PGRFAMCHA020401210016003152033136Ben-Hur                                                                                                               B2068807DCC                              
ID FAMCHA020401003152003157000005Generic ID - Bubbles*                                                                                                       150                                
PGRFAMCHA020401003157004501001304Are You Afraid of the Dark?                       The Time Trap Pt.2                                            SR0308A1066807ACC                              
ID FAMCHA020401004501004506000005Generic ID - Fingerpaint                                                                                                    150                                
PROFAMCHA020401004506004514000008CC Is Brought To You By - Games                                                                                             150                                
PGRFAMCHA020401004514010934002420Are You Afraid Of The Dark?                       The Tale of the Virtual Pets                                  SR0307 1066807ACC                              
SO FAMCHA020401010934010946000012Sign Off (oct 1)                                                                                                                                               
OFFFAMCHA020401010946043000032014                                                                                                                                                               
SO FAMCHA020402043000043011000011Sign On (oct 1)                                                                                                                                                
PGRFAMCHA020402043011045416002405Out of the Box                                    Dinosaur Romp                                                       A6068607A                                
ID FAMCHA020402045416045421000005Generic ID - Bubbles*                                                                                                       150                                
PROFAMCHA020402045421045431000010Preschool Line-Up - 01 - ART/KATIE/DUCKTALES                                                                                150                                
PGRFAMCHA020402045431051134001703Art Attack                                        Egg Head/Haunted House                                              A60686110                                
ID FAMCHA020402051134051144000010Generic ID - confetti                                                                                                       150                                
PROFAMCHA020402051144051201000017Katie and Orbie (OCT2001) - Coming Up                                                                                       150                                
INTFAMCHA020402051201051450000249MV Disney - My Funny Friend & Me (STING)                                                                               60688120                                
PROFAMCHA020402051450051500000010Preschool Line-Up - 02 - KATIE/DUCKTALES/LULU                                                                               150                                
PROFAMCHA020402051500051508000008CC Is Brought To You By - Ian **DNU AFTER 09/22**                                                                           150                                
PGRFAMCHA020402051508054143002635Katie And Orbie                                   Flying High/The Block Castle/Wet!                             C12449A1065607ECC                              
ID FAMCHA020402054143054148000005Generic ID - Couch 1*                                                                                                       150                                
PROFAMCHA020402054148054214000026DuckTales (CLIP) - Coming Up                                                                                                150                                
PROFAMCHA020402054214054223000009PB&J Otter (AUG2001) - Open - Today @ 9:30am                                                                                150                                
PRCFAMCHA020402054223054250000027Franklin (FIXIT) - Today @ 6:30am                                                                                           150                                
PROFAMCHA020402054250054300000010Preschool Line-Up - 03 - DUCKTALES/LULU/FRANKLIN                                                                            150                                
PROFAMCHA020402054300054308000008CC Is Brought To You By - Lark **DNU AFTER 09/22**                                                                          150                                
PGRFAMCHA020402054308060557002249Disney's DuckTales                                Too Much Of A Gold Thing (treasure Part 5)                          A6068607ECC                              
ID FAMCHA020402060557060607000010Generic ID - Hula Hoop                                                                                                      150                                
PRCFAMCHA020402060607060634000027Franklin (SUB) - Today @ 6:30am                                                                                             150                                
PROFAMCHA020402060634060650000016Legend of Tarzan (THUNDER-D12/WKNDS) - Today @ 5pm                                                                          150                                
PROFAMCHA020402060650060700000010Preschool Line-Up - 04 - LULU/FRANKLIN/GOOF                                                                                 150                                
PROFAMCHA020402060700060708000008CC Is Brought To You By - Ian **DNU AFTER 09/22**                                                                           150                                
PGRFAMCHA020402060708063040002332Little Lulu Show; The                             Polly Patrol/Money Problems                                   B20192A1065607ECC                              
ID FAMCHA020402063040063045000005Generic ID - Marbles                                                                                                        150                                
PROFAMCHA020402063045063055000010Preschool Line-Up - 05 - FRANKLIN/GOOF/BUZZ                                                                                 150                                
PROFAMCHA020402063055063103000008CC Is Brought To You By - Lark **DNU AFTER 09/22**                                                                          150                                
PGRFAMCHA020402063103065356002253Franklin                                          Franklin's New Friend/Finders Keepers For Franklin            B10187A1065607ECC                              
ID FAMCHA020402065356065402000006Generic ID - soccer                                                                                                         150                                
PROFAMCHA020402065402065416000014New Adv of WTP (REMOTE) - Today @ 10:20am                                                                                   150                                
ID FAMCHA020402065416065429000013Schoolhouse Promo - Coming Up                                                                                               150                                
PROFAMCHA020402065429065447000018Buzz Lightyear (DO YOUR BEST) - Today @ 7:30am                                                                              150                                
INTFAMCHA020402065447065810000323Schoolhouse Rock - Dollars and Sense                                                                                  A60686120                                
INTFAMCHA020402065810065940000130Disney Circle Time - Growing Smiles (anywhere but                                                                      60688120                                
PROFAMCHA020402065940065950000010Preschool Line-Up - 06 - GOOF/BUZZ/ART                                                                                      150                                
ID FAMCHA020402065950070000000010xxMagic of Disney - V2(sky) - KID MALE                                                                                      150                                
PROFAMCHA020402070000070008000008CC Is Brought To You By - Ian **DNU AFTER 09/22**                                                                           150                                
PGRFAMCHA020402070008072300002252Goof Troop                                        Cat's Entertainment                                                  6068607ECC                              
ID FAMCHA020402072300072310000010Generic ID - confetti                                                                                                       150                                
PROFAMCHA020402072310072333000023Buzz Lightyear (PROTON BURGERS) - Coming Up                                                                                 150                                
ID FAMCHA020402072333072346000013Schoolhouse Promo - Coming Up                                                                                               150                                
PROFAMCHA020402072346072400000014Art Attack (ART) - Today @ 8am                                                                                              150                                
INTFAMCHA020402072400072723000323Schoolhouse Rock - Little Twelvetoes                                                                                  A60686120                                
INTFAMCHA020402072723072950000227Disney Moments - Dumbo-Song Of The Roustabouts                                                                         60688120                                
PROFAMCHA020402072950073000000010Preschool Line-Up - 07 - BUZZ/ART/LULU                                                                                      150                                
PROFAMCHA020402073000073008000008CC Is Brought To You By - Lark **DNU AFTER 09/22**                                                                          150                                
PGRFAMCHA020402073008075201002153Disney/Pixar's Buzz Lightyear of Star Command     Crawling Flesh                                                       6068607ECC                              
ID FAMCHA020402075201075206000005Generic ID - Couch 1*                                                                                                       150                                
PROFAMCHA020402075206075234000028Art Attack (SCOTSMAN) - Coming Up                                                                                           150                                
PROFAMCHA020402075234075256000022Stanley (ANTELOPE) - Today @ 9:05am                                                                                         150                                
ID FAMCHA020402075256075309000013Schoolhouse Promo - Coming Up                                                                                               150                                
PROFAMCHA020402075309075335000026Elmo's World (FAM1) - Today @ 8:45am                                                                                        150                                
INTFAMCHA020402075335075658000323Schoolhouse Rock - Do The Circulation                                                                                 A60686120                                
INTFAMCHA020402075658075938000240Art Attack - Baggage Plane                                                                                             60688120                                
PROFAMCHA020402075938075951000013Little Lulu (SWEEP) - Today @ 8:20am                                                                                        150                                
PROFAMCHA020402075951080001000010Preschool Line-Up - 08 - ART/LULU/ELMO                                                                                      150                                
PGRFAMCHA020402080001081507001506Art Attack                                        1-043                                                                60686110                                
ID FAMCHA020402081507081517000010Generic ID - Pink inner tube                                                                                                150                                
PROFAMCHA020402081517081530000013Little Lulu (SWEEP) - Coming Up                                                                                             150                                
PROFAMCHA020402081530081555000025New Adv of WTP (TREE) - Today @ 10:20am                                                                                     150                                
ID FAMCHA020402081555081615000020Schoolhouse Promo - Coming Up                                                                                               150                                
PROFAMCHA020402081615081643000028Stanley (ELEPHANT) - Today @ 9:05am                                                                                         150                                
INTFAMCHA020402081643082006000323Schoolhouse Rock - Conjunction Junction                                                                               A60686120                                
PROFAMCHA020402082006082032000026Elmo's World (FAM1) - Today @ 8:45am                                                                                        150                                
PROFAMCHA020402082032082050000018Hoze Houndz (FOOD) - Today @ 11:35am                                                                                        150                                
PROFAMCHA020402082050082100000010Preschool Line-Up - 09 - LULU/ELMO/STANLEY                                                                                  150                                
PROFAMCHA020402082100082108000008CC Is Brought To You By - Ian **DNU AFTER 09/22**                                                                           150                                
PGRFAMCHA020402082108084727002619Little Lulu Show; The                             Gilbert The Gorilla/Snow Business/The case of the             C19574A1065607ECC                              
ID FAMCHA020402084727084732000005Generic ID - Marbles                                                                                                        150                                
PROFAMCHA020402084732084742000010Preschool Line-Up - 10 - ELMO/STANLEY/PB&J                                                                                  150                                
PGRFAMCHA020402084742090315001533Elmo's World                                      Teeth                                                               A2068607G                                
ID FAMCHA020402090315090320000005Generic ID - Couch 2*                                                                                                       150                                
PROFAMCHA020402090320090342000022Stanley (ANTELOPE) - Coming Up                                                                                              150                                
PROFAMCHA020402090342090405000023PB&J Otter (SNOW) - Today @ 9:30am                                                                                          150                                
PROFAMCHA020402090405090433000028Art Attack (SCOTSMAN) - Weekdays @ 8am                                                                                      150                                
PROFAMCHA020402090433090450000017Katie and Orbie (OCT2001) - Today @ 9:55am                                                                                  150                                
PROFAMCHA020402090450090500000010Preschool Line-Up - 11 - STANLEY/PB&J/KATIE                                                                                 150                                
PROFAMCHA020402090500090508000008CC Is Brought To You By - Lark **DNU AFTER 09/22**                                                                          150                                
PGRFAMCHA020402090508092906002358Stanley                                           Up The Apple/Kangaroo Clean Up                                      A6068607ECC                              
ID FAMCHA020402092906092911000005Generic ID - Couch 1*                                                                                                       150                                
PROFAMCHA020402092911092938000027PB&J Otter (PIE) - Coming Up                                                                                                150                                
PROFAMCHA020402092938092951000013Little Lulu (SWEEP) - Today @ 12pm                                                                                          150                                
PROFAMCHA020402092951093001000010Preschool Line-Up - 12 - PB&J/KATIE/WTP                                                                                     150                                
PROFAMCHA020402093001093009000008CC Is Brought To You By - Ian **DNU AFTER 09/22**                                                                           150                                
PGRFAMCHA020402093009095231002222PB&J Otter                                        Born To Chirp/Mega-melon                                            A6068607ECC                              
ID FAMCHA020402095231095241000010Generic ID - Bubbles                                                                                                        150                                
PROFAMCHA020402095241095258000017Katie and Orbie (OCT2001) - Coming Up                                                                                       150                                
INTFAMCHA020402095258095437000139Disney Moments-Lady And The Tramp-Siamese Cat Song                                                                     60688120                                
PROFAMCHA020402095437095451000014New Adv of WTP (REMOTE) - Today @ 10:20am                                                                                   150                                
PROFAMCHA020402095451095501000010Preschool Line-Up - 13 - KATIE/WTP/OOTB                                                                                     150                                
PROFAMCHA020402095501095509000008CC Is Brought To You By - Lark **DNU AFTER 09/22**                                                                          150                                
PGRFAMCHA020402095509102147002638Katie And Orbie                                   Mrs Parette's Necklace/Orbie and the Pumpkin Seed/            C19664A1055607ECC3                             
ID FAMCHA020402102147102157000010Generic ID - confetti                                                                                                       150                                
PROFAMCHA020402102157102222000025New Adv of WTP (TREE) - Coming Up                                                                                           150                                
PROFAMCHA020402102222102240000018Elmo's World (FAM3) - Today @ 12:45pm                                                                                       150                                
PROFAMCHA020402102240102250000010Preschool Line-Up - 14 - WTP/OOTB/DUCKTALES                                                                                 150                                
ID FAMCHA020402102250102300000010xxMagic of Disney - V2(sky) - KID MALE                                                                                      150                                
PROFAMCHA020402102300102308000008CC Is Brought To You By - Ian **DNU AFTER 09/22**                                                                           150                                
PGRFAMCHA020402102308104619002311New Adventures of Winnie the Pooh; The            Pooh Moon/Caws and Effect                                            6068607ECC                              
ID FAMCHA020402104619104629000010Generic ID - Hula Hoop                                                                                                      150                                
PROFAMCHA020402104629104644000015Out of the Box - Coming Up                                                                                                  150                                
PROFAMCHA020402104644104651000007PB&J Otter (AUG2001) - Kite - Today @ 1:30pm                                                                                150                                
PROFAMCHA020402104651104701000010Preschool Line-Up - 15 - OOTB/DUCKTALES/HOZE                                                                                150                                
PGRFAMCHA020402104701111106002405Out of the Box                                    Topsy Tempo                                                         A6068607A                                
ID FAMCHA020402111106111111000005Generic ID - Couch 1*                                                                                                       150                                
PROFAMCHA020402111111111121000010Preschool Line-Up - 16 - DUCKTALES/HOZE/LULU                                                                                150                                
PROFAMCHA020402111121111129000008CC Is Brought To You By - Ian **DNU AFTER 09/22**                                                                           150                                
PGRFAMCHA020402111129113416002247Disney's DuckTales                                Three Ducks Of The Condor (treasure Part 3)                         A6068607ECC                              
ID FAMCHA020402113416113426000010Generic ID - Hula Hoop                                                                                                      150                                
PROFAMCHA020402113426113451000025New Adv of WTP (TREE) - Today @ 2:25pm                                                                                      150                                
PROFAMCHA020402113451113501000010Preschool Line-Up - 17 - HOZE/LULU/FRANKLIN                                                                                 150                                
PROFAMCHA020402113501113509000008CC Is Brought To You By - Lark **DNU AFTER 09/22**                                                                          150                                
PGRFAMCHA020402113509115743002234Hoze Houndz                                       Bonehead Houndz/Moltese Chicken                               B17132A1065607ECC                              
ID FAMCHA020402115743115753000010Generic ID - Ring around the rosie                                                                                          150                                
PROFAMCHA020402115753115806000013Little Lulu (SWEEP) - Coming Up                                                                                             150                                
PROFAMCHA020402115806115832000026Elmo's World (FAM1) - Today @ 12:45pm                                                                                       150                                
PROFAMCHA020402115832115850000018Stanley (MAR) - Today @ 1:05pm                                                                                              150                                
PROFAMCHA020402115850115900000010Preschool Line-Up - 18 - LULU/FRANKLIN/ELMO                                                                                 150                                
PROFAMCHA020402115900115908000008CC Is Brought To You By - Ian **DNU AFTER 09/22**                                                                           150                                
PGRFAMCHA020402115908122528002620Little Lulu Show; The                             Business Girl/The Pet Duck/Lulu's Umbrella Service            C19574A1065607ECC                              
ID FAMCHA020402122528122533000005Generic ID - Bubbles*                                                                                                       150                                
PROFAMCHA020402122533122543000010Preschool Line-Up - 19 - FRANKLIN/ELMO/STANLEY                                                                              150                                
PROFAMCHA020402122543122551000008CC Is Brought To You By - Lark **DNU AFTER 09/22**                                                                          150                                
PGRFAMCHA020402122551124844002253Franklin                                          Franklin And The Red Scooter/Franklin In The Dark             B10189A1065607ECC                              
ID FAMCHA020402124844124849000005Generic ID - Marbles                                                                                                        150                                
PROFAMCHA020402124849124859000010Preschool Line-Up - 20 - ELMO/STANLEY/PB&J                                                                                  150                                
PGRFAMCHA020402124859130410001511Elmo's World                                      Hands                                                               A2068607G                                
ID FAMCHA020402130410130420000010Generic ID - Pink inner tube                                                                                                150                                
PROFAMCHA020402130420130446000026Stanley (BABY PICS) - Coming Up                                                                                             150                                
INTFAMCHA020402130446130650000204Music Break - Little Mermaid: In Harmony                                                                               60688120                                
PROFAMCHA020402130650130700000010Preschool Line-Up - 21 - STANLEY/PB&J/KATIE                                                                                 150                                
PROFAMCHA020402130700130708000008CC Is Brought To You By - Ian **DNU AFTER 09/22**                                                                           150                                
PGRFAMCHA020402130708133107002359Stanley                                           Daddy Pride/Show And Tell Shark                                     A6068607ECC                              
ID FAMCHA020402133107133117000010Generic ID - Ring around the rosie                                                                                          150                                
PROFAMCHA020402133117133134000017Katie and Orbie (OCT2001) - Today @ 1:55pm                                                                                  150                                
PROFAMCHA020402133134133150000016Legend of Tarzan (THUNDER-D12/WKNDS) - Today @ 5pm                                                                          150                                
PROFAMCHA020402133150133200000010Preschool Line-Up - 22 - PB&J/KATIE/WTP                                                                                     150                                
PROFAMCHA020402133200133208000008CC Is Brought To You By - Lark **DNU AFTER 09/22**                                                                          150                                
PGRFAMCHA020402133208135429002221PB&J Otter                                        The Silent Treatment/Picture Perfect                                A6068607ECC                              
ID FAMCHA020402135429135435000006Generic ID - soccer                                                                                                         150                                
PROFAMCHA020402135435135452000017Katie and Orbie (OCT2001) - Coming Up                                                                                       150                                
PROFAMCHA020402135452135506000014New Adv of WTP (REMOTE) - Today @ 2:25pm                                                                                    150                                
PROFAMCHA020402135506135627000121Elmo's World (FAM2) - Weekdays @ 8:45am                                                                                     150                                
PROFAMCHA020402135627135650000023Buzz Lightyear (POSTERITY) - Today @ 4pm                                                                                    150                                
PROFAMCHA020402135650135700000010Preschool Line-Up - 23 - KATIE/WTP/OOTB                                                                                     150                                
PROFAMCHA020402135700135708000008CC Is Brought To You By - Ian **DNU AFTER 09/22**                                                                           150                                
PGRFAMCHA020402135708142346002638Katie And Orbie                                   Chill/Christian/Seventh Wave                                  C19664A1055607ECC3                             
ID FAMCHA020402142346142357000011Generic ID - soccer                                                                                                         150                                
PROFAMCHA020402142357142422000025New Adv of WTP (TREE) - Coming Up                                                                                           150                                
PROFAMCHA020402142422142440000018Buzz Lightyear (DO YOUR BEST) - Today @ 4pm                                                                                 150                                
PROFAMCHA020402142440142450000010Preschool Line-Up - 24 - WTP/OOTB/DUCKTALES                                                                                 150                                
ID FAMCHA020402142450142500000010xxMagic of Disney - V2(sky) - TEEN FEMALE                                                                                   150                                
PROFAMCHA020402142500142508000008CC Is Brought To You By - Lark **DNU AFTER 09/22**                                                                          150                                
PGRFAMCHA020402142508144750002242New Adventures of Winnie the Pooh; The            Oh, Bottle/Owl In The Family                                         6068607ECC                              
ID FAMCHA020402144750144755000005Generic ID - Couch 1*                                                                                                       150                                
PROFAMCHA020402144755144810000015Out of the Box - Coming Up                                                                                                  150                                
PROFAMCHA020402144810144850000040Buzz Lightyear (TRANDIBULATOR) - Today @ 4pm                                                                                150                                
PROFAMCHA020402144850144900000010Preschool Line-Up - 25 - OOTB/DUCKTALES/HOZE                                                                                150                                
PGRFAMCHA020402144900151305002405Out of the Box                                    Weather Or Not                                                      A6068607A                                
ID FAMCHA020402151305151310000005Generic ID - Bubbles*                                                                                                       150                                
PROFAMCHA020402151310151320000010Preschool Line-Up - 26 - DUCKTALES/HOZE/BUZZ                                                                                150                                
PROFAMCHA020402151320151328000008CC Is Brought To You By - Ian **DNU AFTER 09/22**                                                                           150                                
PGRFAMCHA020402151328153615002247Disney's DuckTales                                Cold Duck (treasure Part 4)                                         A6068607ECC                              
ID FAMCHA020402153615153620000005Generic ID - Fingerpaint                                                                                                    150                                
PROFAMCHA020402153620153651000031Hoze Houndz (TEETH) - Coming Up                                                                                             150                                
PROFAMCHA020402153651153701000010Preschool Line-Up - 27 - HOZE/BUZZ                                                                                          150                                
PROFAMCHA020402153701153709000008CC Is Brought To You By - Lark **DNU AFTER 09/22**                                                                          150                                
PGRFAMCHA020402153709155943002234Hoze Houndz                                       Glory Houndz/Blood Houndz                                     B17133A1065607ECC                              
ID FAMCHA020402155943155950000007Generic ID - Whisper*                                                                                                       150                                
ID FAMCHA020402155950160000000010xxMagic of Disney - V2(sky) - TEEN FEMALE                                                                                   150                                
PROFAMCHA020402160000160030000030Disney's One Too - Opening                                                                                                  150                                
PROFAMCHA020402160030160038000008CC Is Brought To You By - Games                                                                                             150                                
PGRFAMCHA020402160038162230002152Disney/Pixar's Buzz Lightyear of Star Command     Stranger Invasion                                                    6068607ECC                              
ID FAMCHA020402162230162240000010Generic ID - Pink inner tube                                                                                                150                                
PROFAMCHA020402162240162308000028Pee-wee's Big Adventure (APR) - Saturday @ 9pm                                                                              150                                
PROFAMCHA020402162308162355000047Amanda Show (DOG) - Tonight @ 6pm                                                                                           150                                
INTFAMCHA020402162355162525000130Family X-Periment - Ep.38: The Travellers                                                                             A10656120                                
PROFAMCHA020402162525162555000030Famous Jett Jackson - Tonight @ 7pm (WKNGHTS)                                                                               150                                
PROFAMCHA020402162555162622000027Recess (FRIENDSHIP-D12/WKNDS) - Today @ 5:30pm                                                                              150                                
ID FAMCHA020402162622162634000012Web Rant - Everywhere                                                                                                       150                                
PROFAMCHA020402162634162658000024Honey, I Shrunk the Kids (AUG2001) - Tonight @ 8pm                                                                          150                                
PROFAMCHA020402162658162720000022Even Stevens (KARAOKE) - Tonight @ 6:30pm                                                                                   150                                
INTFAMCHA020402162720162850000130Family X-Periment - Ep.39: T-Rex                                                                                      A10656120                                
PROFAMCHA020402162850162933000043Poof Point - April 13th                                                                                                     150                                
PRCFAMCHA020402162933162942000009Morning Block menu background (flex time)                                                                                   150                                
ID FAMCHA020402162942163000000018Afternoon block pinball open                                                                                                150                                
PROFAMCHA020402163000163030000030Disney's One Too - Opening                                                                                                  150                                
PROFAMCHA020402163030163038000008CC Is Brought To You By - Click Club                                                                                        150                                
PGRFAMCHA020402163038165308002230Disney's Pepper Ann                               Ziterella                                                            6068607ECC                              
ID FAMCHA020402165308165315000007Generic ID - Whisper*                                                                                                       150                                
PROFAMCHA020402165315165340000025SPDF - APR07 - Sunday @ 12pm                                                                                                150                                
PROFAMCHA020402165340165415000035Legend of Tarzan (PICKS&NIBBLES-D12/WKNDS) - Comin                                                                          150                                
PROFAMCHA020402165415165512000057Your Big Break (MATCHBOX20) - Sunday @ 8pm                                                                                  150                                
INTFAMCHA020402165512165525000013Toy Story Treats - Art Class                                                                                           60686120                                
PROFAMCHA020402165525165625000100Amanda Show (UNDERPANTS) - Tonight @ 6pm                                                                                    150                                
INTFAMCHA020402165625165755000130Family X-Periment - Ep.37: The Flat-Lands                                                                             A10656120                                
PROFAMCHA020402165755165824000029Recess (COOL VINCE-D12/WKNDS) - Today @ 5:30pm                                                                              150                                
PROFAMCHA020402165824165851000027Even Stevens (DREAM) - Tonight @ 6:30pm                                                                                     150                                
INTFAMCHA020402165851165904000013Toy Story Treats - Power Failure                                                                                       60686120                                
PROFAMCHA020402165904165932000028Pee-wee's Big Adventure (APR) - Saturday @ 9pm                                                                              150                                
PRCFAMCHA020402165932165942000010Morning Block menu background (flex time)                                                                                   150                                
ID FAMCHA020402165942170000000018Afternoon block pinball open                                                                                                150                                
PROFAMCHA020402170000170030000030Disney's One Too - Opening                                                                                                  150                                
PGRFAMCHA020402170030172317002247Disney's The Legend of Tarzan                     Face From the Past                                                  A6068607E                                
ID FAMCHA020402172317172324000007Generic ID - Whisper*                                                                                                       150                                
PROFAMCHA020402172324172352000028Pee-wee's Big Adventure (APR) - Saturday @ 9pm                                                                              150                                
PROFAMCHA020402172352172409000017Recess (TATTLETALE-D12/WKNDS) - Coming Up                                                                                   150                                
PROFAMCHA020402172409172431000022Even Stevens (KARAOKE) - Tonight @ 6:30pm                                                                                   150                                
INTFAMCHA020402172431172749000318MV Disney - If You Wanna Dance (NOBODY'S ANGEL)                                                                        60688120                                
PROFAMCHA020402172749172849000100Amanda Show (UNDERPANTS) - Tonight @ 6pm                                                                                    150                                
PROFAMCHA020402172849172932000043Poof Point - April 13th                                                                                                     150                                
PRCFAMCHA020402172932172942000010Morning Block menu background (flex time)                                                                                   150                                
ID FAMCHA020402172942173000000018Afternoon block pinball open                                                                                                150                                
PROFAMCHA020402173000173030000030Disney's One Too - Opening                                                                                                  150                                
PGRFAMCHA020402173030175306002236Disney's Recess                                   Madness of King Bob/Call Me Guy                                      6068607E                                
ID FAMCHA020402175306175312000006Generic ID - soccer                                                                                                         150                                
PROFAMCHA020402175312175337000025SPDF - APR07 - Sunday @ 12pm                                                                                                150                                
PROFAMCHA020402175337175414000037Amanda Show (CLEAN) - Coming Up                                                                                             150                                
PROFAMCHA020402175414175614000200Your Big Break (JANET) - Sunday @ 8pm                                                                                       150                                
INTFAMCHA020402175614175744000130Family X-Periment - Ep.39: T-Rex                                                                                      A10656120                                
PROFAMCHA020402175744175823000039Go To Nick With Nic Contest                                                                                                 150                                
PROFAMCHA020402175823175847000024Honey, I Shrunk the Kids (AUG2001) - Tonight @ 8pm                                                                          150                                
PROFAMCHA020402175847175930000043Poof Point - April 13th                                                                                                     150                                
PRCFAMCHA020402175930175939000009Morning Block menu background (flex time)                                                                                   150                                
ID FAMCHA020402175939180000000021Prime time open count down                                                                                                  150                                
PGRFAMCHA020402180000182205002205Amanda Show; The                                  2-017                                                               A20286090                                
ID FAMCHA020402182205182211000006Generic ID - soccer                                                                                                         150                                
PROFAMCHA020402182211182239000028Pee-wee's Big Adventure (APR) - Saturday @ 9pm                                                                              150                                
PROFAMCHA020402182239182306000027Even Stevens (DREAM) - Coming Up                                                                                            150                                
INTFAMCHA020402182306182436000130Family X-Periment - Ep.37: The Flat-Lands                                                                             A10656120                                
PROFAMCHA020402182436182515000039Go To Nick With Nic Contest                                                                                                 150                                
PROFAMCHA020402182515182620000105Your Big Break (CHRISTINA) - Sunday @ 8pm                                                                                   150                                
PROFAMCHA020402182620182650000030Are You Afraid of the Dark? (PT.1) - Tomorrow @ 8:                                                                          150                                
PROFAMCHA020402182650182718000028Recess (LOGIC-D12/WKNDS) - Weekdays @ 5:30pm                                                                                150                                
INTFAMCHA020402182718182845000127Monkey Minutes - James Bond (vers 2 - after 7:30PM                                                                    A20688120                                
PROFAMCHA020402182845182915000030Famous Jett Jackson - Tonight @ 7pm (WKNGHTS)                                                                               150                                
PROFAMCHA020402182915182940000025SPDF - APR07 - Sunday @ 12pm                                                                                                150                                
