SO FAMCHA130201043000043011000011Sign On (oct 1)                                                                                                                                                
PGRFAMCHA130201043011045415002404Henry's World                                     EPS # 2-025                                                   B81056 1065607ECC                              
PROFAMCHA130201045415045447000032D-JR Icon Story - Franny's Feet - Maze Part 1 - Co                                                                          150                                
PROFAMCHA130201045447045517000030D-JR Promo - On demand online REVISED - D-JR.ca (M                                                                          150                                
PROFAMCHA130201045517045547000030D-JR Icon Story - Franny's Feet - Maze Part 2 - No                                                                          150                                
PROFAMCHA130201045547045554000007D-JR - Flex ID - Yellow (:6-:10) (Feb2012)                                                                                  150                                
PGRFAMCHA130201045554051825002231Franny's Feet                                     EP: 46                                                        C31292 1065607ECC                              
PROFAMCHA130201051825051832000007D-JR Live Action ID - SWOBB - Coming Up (May2012)                                                                           150                                
PROFAMCHA130201051832051857000025D-JR Live Action ID - #49 Making Lunch Routine (Ma                                                                          150                                
PROFAMCHA130201051857052045000148D-JR Promo - Bananas in Pajamas: Cuddles Town - Co                                                                          150                                
PROFAMCHA130201052045052110000025D-JR Live Action ID - #42 Brush Teeth (May2012)                                                                             150                                
PROFAMCHA130201052110052117000007D-JR Live Action ID - SWOBB - Now (May2012)                                                                                 150                                
PROFAMCHA130201052117052124000007D-JR - Bumper 7 (May2011)                                                                                                   150                                
PGRFAMCHA130201052124054354002230The Secret World of Benjamin Bear                 EP: 36                                                        C27272 1065607ECC                              
ID FAMCHA130201054354054400000006Astral ID (HD) (Jan2011)                                                                                                    150                                
PROFAMCHA130201054400054431000031D-JR Icon Story - Stella & Sam NEW - Tag Part 1- C                                                                          150                                
PROFAMCHA130201054431054441000010D-JR - Flex ID - Blue (:6-:10) (Feb2012)                                                                                    150                                
PROFAMCHA130201054441054512000031D-JR Icon Story - Stella & Sam NEW - Tag Part 3 -                                                                           150                                
PGRFAMCHA130201054512060829002317Stella and Sam                                    EP: 07                                                        C33973 1025607ECC                              
PROFAMCHA130201060829060836000007D-JR Live Action ID - Harry & His Dinosaurs - Comi                                                                          150                                
PROFAMCHA130201060836060901000025D-JR Live Action ID - #29 Put Shoes On (Sept2012)                                                                           150                                
PROFAMCHA130201060901060931000030D-JR Promo - On demand online REVISED - D-JR.ca (M                                                                          150                                
PROFAMCHA130201060931061001000030D-JR Promo - Sofia The First: Flying Horse - Weeke                                                                          150                                
PROFAMCHA130201061001061026000025D-JR Live Action ID - #64 Pick Up Room/Turn off Li                                                                          150                                
PROFAMCHA130201061026061033000007D-JR Live Action ID - Harry & His Dinosaurs - Now                                                                           150                                
PROFAMCHA130201061033061044000011D-JR - Station ID (:11) (May2011)                                                                                           150                                
PGRFAMCHA130201061044063219002135Harry and His Bucket Full of Dinosaurs            EP: 26                                                        B05045 1065607ECC                              
ID FAMCHA130201063219063224000005Astral ID (HD) (Jan2011)                                                                                                    150                                
PROFAMCHA130201063224063324000100xEnchanted (HD) Premieres Friday Feb 8 @ 8:00pm (J                                                                          150                                
PROFAMCHA130201063324063342000018xGood Luck Charlie (HD) Promo 2 - Weekend Afternoo                                                                          150                                
PROFAMCHA130201063342063446000104Next Step (HD) Series Sizzle -  Coming This March                                                                           150                                
PROFAMCHA130201063446063506000020Hannah (HD) Clip Promo Pasta - Coming Up Next (Aug                                                                          150                                
PROFAMCHA130201063506063532000026xDog With A Blog @ family.ca (HD) Play Games at fa                                                                          150                                
PRCFAMCHA130201063532063544000012Family Bumper Flex (HD) Flex ID - Really Me Chest                                                                           150                                
PGRFAMCHA130201063544065815002231Hannah Montana                                    EP: 22                                                               6068607BCC                              
PRCFAMCHA130201065815065837000022Game Change Friday February Promo (HD) Family.ca (                                                                          150                                
PROFAMCHA130201065837065927000050Universal Home Entertainment                                                                                                150                                
PROFAMCHA130201065927065943000016xShake It Up (HD) Refresh CD - Coming Up Next (Sep                                                                          150                                
PROFAMCHA130201065943070033000050Family Loves China Stunt (HD) This Afternoon Start                                                                          150                                
PRCFAMCHA130201070033070043000010Family Bumper (HD) - Dragonflies ID (Jan 2011)                                                                              150                                
PGRFAMCHA130201070043072348002305Disney Shake It Up                                EP: 13                                                               6068707BCC                              
ID FAMCHA130201072348072353000005Astral ID (HD) (Jan2011)                                                                                                    150                                
PROFAMCHA130201072353072437000044DXD Takeover on Family Feb 3 (HD) Sunday Morning F                                                                          150                                
PROFAMCHA130201072437072452000015xJessie (HD) Refresh CD - This Morning @ 7:50 (Sep                                                                          150                                
PROFAMCHA130201072452072535000043xANT Farm (HD) Refresh Ole McDonald (Long) - Comin                                                                          150                                
PRCFAMCHA130201072535072549000014Family Bumper Flex (HD) Flex ID - Wingin It (Apr20                                                                          150                                
PGRFAMCHA130201072549074852002303Disney A.N.T. Farm                                EP: 15                                                               6068607BCC                              
PROFAMCHA130201074852074942000050Family Loves China Stunt (HD) This Afternoon Start                                                                          150                                
PROFAMCHA130201074942074952000010Walt Disney Studios Home Entertainment                                                                                      150                                
PRCFAMCHA130201074952075034000042xAquamarine (HD) Tonight @ 8:00 (Nov2012)                                                                                   150                                
PROFAMCHA130201075034075104000030xJessie (HD) Refresh - Coming Up Next (Sept2012)                                                                            150                                
PRCFAMCHA130201075104075134000030xFOD 2012 Refresh (HD) Family.ca New Look (Apr2012                                                                          150                                
PRCFAMCHA130201075134075147000013Family Bumper (HD) - Drums ID (Jan 2011)                                                                                    150                                
PGRFAMCHA130201075147081521002334Disney Jessie                                     EP: 09                                                               6068807BCC                              
ID FAMCHA130201081521081526000005Astral ID (HD) (Jan2011)                                                                                                    150                                
PRCFAMCHA130201081526081556000030Next Step Dancing Is (HD) Eldon - Coming in March                                                                           150                                
PROFAMCHA130201081556081646000050Walt Disney Studios Home Entertainment                                                                                      150                                
PROFAMCHA130201081646081652000006WOWP (HD) ID - Jennifer Stone 2 "Coming Up Next" (                                                                          150                                
PROFAMCHA130201081652081742000050Alliance Films                                                                                                              150                                
PROFAMCHA130201081742081832000050Family Loves China Stunt (HD) This Afternoon Start                                                                          150                                
PRCFAMCHA130201081832081848000016Family Bumper Flex (HD) Flex ID - WUW (May2012) (:                                                                          150                                
PGRFAMCHA130201081848084121002233Disney Wizards of Waverly Place                   EP: 21                                                               6068607BCC                              
PROFAMCHA130201084121084151000030D-JR Icon Story - Strawberry Shortcake - Seesaw Pa                                                                          150                                
PROFAMCHA130201084151084251000100D-JR Promo - Sofia The First: Animal Friends - Wee                                                                          150                                
PROFAMCHA130201084251084321000030D-JR Promo - Little Einsteins - Get more on D-JR t                                                                          150                                
PROFAMCHA130201084321084346000025D-JR Promo - JATNP - Get more on the channel REV (                                                                          150                                
PROFAMCHA130201084346084416000030D-JR Promo - MMCH - Get more MMCH on D-JR the chan                                                                          150                                
PROFAMCHA130201084416084521000105D-JR Promo - Cinderella III - Prems Sunday @ 10:20                                                                          150                                
PROFAMCHA130201084521084551000030D-JR Icon Story - Strawberry Shortcake - Seesaw Pa                                                                          150                                
PROFAMCHA130201084551084601000010D-JR - Flex ID - Green (:6-:10) (Feb2012)                                                                                   150                                
PGRFAMCHA130201084601090800002159Strawberry Shortcake                              EP: 03                                                               2068605ACC                              
ID FAMCHA130201090800090806000006Astral ID (HD) (Jan2011)                                                                                                    150                                
PROFAMCHA130201090806090813000007D-JR Live Action ID - Mickey Mouse Clubhouse - Com                                                                          150                                
PROFAMCHA130201090813090838000025D-JR Live Action ID - #20 Calendar (May2012)                                                                                150                                
PROFAMCHA130201090838091026000148D-JR Promo - Bananas in Pajamas: Cuddles Town - Co                                                                          150                                
PROFAMCHA130201091026091118000052D-JR Promo - Doc McStuffins - Get more on the chan                                                                          150                                
PROFAMCHA130201091118091143000025D-JR Live Action ID - #65 Putting Toys Away (Sept2                                                                          150                                
PROFAMCHA130201091143091150000007D-JR Live Action ID - Mickey Mouse Clubhouse - Now                                                                          150                                
PROFAMCHA130201091150091201000011D-JR - Station ID (:10) (May2011)                                                                                           150                                
PGRFAMCHA130201091201093601002400Disney's Mickey Mouse Clubhouse                   EP: 16                                                               6068605ACC                              
PROFAMCHA130201093601093633000032D-JR Icon Story - Handy Manny - Silly Song Part 1                                                                           150                                
PROFAMCHA130201093633093703000030D-JR Promo - Sofia The First: Flying Horse - Weeke                                                                          150                                
PROFAMCHA130201093703093734000031D-JR Icon Story - Handy Manny - Silly Song Part 2                                                                           150                                
PROFAMCHA130201093734093740000006D-JR - Flex ID - Purple (:6-:10) (Feb2012)                                                                                  150                                
PGRFAMCHA130201093740100139002359Handy Manny                                       EP: 48                                                               6068607ECC                              
ID FAMCHA130201100139100145000006Astral ID (HD) (Jan2011)                                                                                                    150                                
PROFAMCHA130201100145100153000008D-JR Live Action ID - Jake & the Never Land Pirate                                                                          150                                
PROFAMCHA130201100153100218000025D-JR Live Action ID - #13 Make Bed (May2012)                                                                                150                                
PROFAMCHA130201100218100248000030D-JR Promo - On demand online REVISED - D-JR.ca (M                                                                          150                                
PROFAMCHA130201100248100313000025D-JR Promo - JATNP - Get more on the channel REV (                                                                          150                                
PROFAMCHA130201100313100418000105D-JR Promo - Cinderella III - Prems Sunday @ 10:20                                                                          150                                
PROFAMCHA130201100418100443000025D-JR Live Action ID - #71 Making Cards (Sept2012)                                                                           150                                
PROFAMCHA130201100443100450000007D-JR Live Action ID - Jake & the Never Land Pirate                                                                          150                                
PROFAMCHA130201100450100456000006D-JR - Bumper 9 (May2011)                                                                                                   150                                
PGRFAMCHA130201100456102900002404Disney Jake and the Never Land Pirates            EP: 19                                                               6028605ACC                              
ID FAMCHA130201102900102906000006Astral ID (HD) (Jan2011)                                                                                                    150                                
PROFAMCHA130201102906102914000008D-JR Live Action ID - Little Einsteins - Coming Up                                                                          150                                
PROFAMCHA130201102914102939000025D-JR Live Action ID - #12 Feed Goldfish (May2012)                                                                           150                                
PROFAMCHA130201102939103011000032D-JR Promo - Stella and Sam - Get more on the chan                                                                          150                                
PROFAMCHA130201103011103036000025D-JR Live Action ID - #72 Family Tree Craft (Sept2                                                                          150                                
PROFAMCHA130201103036103044000008D-JR Live Action ID - Little Einsteins - Now (Nov2                                                                          150                                
PROFAMCHA130201103044103052000008D-JR - Flex ID - Yellow (:6-:10) (Feb2012)                                                                                  150                                
PGRFAMCHA130201103052105500002408Disney's Little Einsteins                         EP: 02                                                               6068605ACC                              
ID FAMCHA130201105500105506000006Astral ID (HD) (Jan2011)                                                                                                    150                                
PROFAMCHA130201105506105606000100xEnchanted (HD) Premieres Friday Feb 8 @ 8:00pm (J                                                                          150                                
PROFAMCHA130201105606105648000042xDog With A Blog (HD) Comedy Sell - Weekend Aftern                                                                          150                                
PRCFAMCHA130201105648105718000030xFOD 2012 Refresh (HD) Family.ca New Look (Apr2012                                                                          150                                
PROFAMCHA130201105718105748000030xShake It Up (HD) Cee Cee Sell - Weekend Afternoon                                                                          150                                
PROFAMCHA130201105748105914000126xFriends of Heartlake City (HD) To see more, go to                                                                          150                                
PROFAMCHA130201105914105950000036xSLOZ+C (HD) Refresh Jan2011 - Coming Up Next (Jan                                                                          150                                
PROFAMCHA130201105950110034000044DXD Takeover on Family Feb 3 (HD) Sunday Morning F                                                                          150                                
PRCFAMCHA130201110034110050000016Family Bumper (HD) - Fashion ID (Jan 2011)                                                                                  150                                
ID FAMCHA130201110050110055000005xMagic of Disney Bumper (HD)(:5-:6) (Jan 2011)                                                                              150                                
PGRFAMCHA130201110055112338002243The Suite Life of Zack and Cody                   EP: 17                                                               6068607BCC                              
PRCFAMCHA130201112338112420000042Next Step Dancing Is (HD) Emily - Coming in March                                                                           150                                
PROFAMCHA130201112420112505000045MGA Entertainment                                                                                                           150                                
PRCFAMCHA130201112505112547000042xAquamarine (HD) Tonight @ 8:00 (Nov2012)                                                                                   150                                
PGRFAMCHA130201112547112837000250MV Disney (HD) CoCo Jones - Holla at the DJ (Dec15                                                                     60685120                                
PROFAMCHA130201112837112909000032D-JR Promo - Stella and Sam - Get more on the chan                                                                          150                                
PROFAMCHA130201112909112939000030xSLOD (HD) Sandwich - Coming Up Next (April2012)                                                                            150                                
PROFAMCHA130201112939113029000050Family Loves China Stunt (HD) This Afternoon Start                                                                          150                                
PRCFAMCHA130201113029113046000017Family Bumper Flex (HD) Winter 2012 ID (:14-:17) (                                                                          150                                
ID FAMCHA130201113046113051000005xMagic of Disney Bumper (HD)(:5-:6) (Jan 2011)                                                                              150                                
PGRFAMCHA130201113051115323002232The Suite Life on Deck                            EP: 15                                                               6068607BCC                              
ID FAMCHA130201115323115329000006Astral ID (HD) (Jan2011)                                                                                                    150                                
PROFAMCHA130201115329115339000010LU - 07 - WIZARDS/HANNAH 12:30pm (HD) (:9 - :11) J                                                                          150                                
PRCFAMCHA130201115339115401000022Game Change Friday February Promo (HD) Family.ca (                                                                          150                                
PROFAMCHA130201115401115501000100Feld Entertainment                                                                                                          150                                
PROFAMCHA130201115501115557000056xHannah (HD) Dec Refresh - This Afternoon @ 12:30                                                                           150                                
PGRFAMCHA130201115557115917000320MV Non Disney (HD) Cody Simpson - Wish U Were Here                                                                     10615120                                
PROFAMCHA130201115917115947000030xWOWP (HD) Spellbook - Coming Up Next (Oct2011)                                                                             150                                
PROFAMCHA130201115947120031000044DXD Takeover on Family Feb 3 (HD) Sunday Morning F                                                                          150                                
PRCFAMCHA130201120031120051000020Family Bumper (HD) - Wallpaper ID (Jan 2011)                                                                                150                                
PGRFAMCHA130201120051122223002132Disney Wizards of Waverly Place                   EP: 24                                                               6068607BCC                              
PROFAMCHA130201122223122233000010LU - 08 - HANNAH/SWAC @ 1:00pm (HD) (:9 - :11) Sep                                                                          150                                
PROFAMCHA130201122233122259000026ANT Farm Episodic (HD) 216 Clip - New Episode Toni                                                                          150                                
PROFAMCHA130201122259122359000100Feld Entertainment                                                                                                          150                                
PROFAMCHA130201122359122416000017xPhineas & Ferb (HD) Disney Refresh CD - This Afte                                                                          150                                
PROFAMCHA130201122416122449000033xAustin & Ally (HD) Music Lesson - Tomorrow Mornin                                                                          150                                
PGRFAMCHA130201122449122841000352MV Non Disney (HD) Hunter Hayes - Wanted (Dec9-Jun                                                                     10615120CC                              
PROFAMCHA130201122841122911000030xShake It Up (HD) Cee Cee Sell - Weekend Afternoon                                                                          150                                
PROFAMCHA130201122911122941000030D-JR Promo - MMCH - Get more MMCH on D-JR the chan                                                                          150                                
PROFAMCHA130201122941123001000020Hannah (HD) Clip Promo Pasta - Coming Up Next (Aug                                                                          150                                
PRCFAMCHA130201123001123027000026Next Step Dancing Is (HD) James - Coming in March                                                                           150                                
PRCFAMCHA130201123027123047000020Family Bumper Flex (HD) Flex ID - ANT Farm (:16-:2                                                                          150                                
PGRFAMCHA130201123047125321002234Hannah Montana                                    EP: 05                                                               6068807BCC                              
ID FAMCHA130201125321125326000005Astral ID (HD) (Jan2011)                                                                                                    150                                
PROFAMCHA130201125326125352000026xDog With A Blog @ family.ca (HD) Play Games at fa                                                                          150                                
PRCFAMCHA130201125352125434000042xAquamarine (HD) Tonight @ 8:00 (Nov2012)                                                                                   150                                
PGRFAMCHA130201125434125835000401MV Non Disney (HD) Taylor Matthews - Head Over Fee                                                                     10615120CC                              
PROFAMCHA130201125835125903000028Good Luck Charlie (HD) Promo 3 - Weekend Afternoon                                                                          150                                
PROFAMCHA130201125903125948000045xSWAC (HD) Made Up Show - Coming Up Next (Jan2011)                                                                          150                                
PROFAMCHA130201125948130038000050Family Loves China Stunt (HD) This Afternoon Start                                                                          150                                
PRCFAMCHA130201130038130053000015Family Bumper (HD) - Hot Potato ID (Jan 2011)                                                                               150                                
PGRFAMCHA130201130053132339002246Sonny With A Chance                               EP: 21                                                               6068607BCC                              
PROFAMCHA130201132339132423000044DXD Takeover on Family Feb 3 (HD) Sunday Morning F                                                                          150                                
PROFAMCHA130201132423132453000030xFrenemies (HD) Trailer CD - Saturday @ Noon (Jan2                                                                          150                                
PROFAMCHA130201132453132508000015xJessie (HD) Refresh CD - Weekend Afternoons @ 4:0                                                                          150                                
PGRFAMCHA130201132508132816000308MV Non Disney (HD) Victoria Duffield ft Cody-They                                                                      10615120CC                              
PROFAMCHA130201132816132858000042xDog With A Blog (HD) Comedy Sell - Weekend Aftern                                                                          150                                
PROFAMCHA130201132858132928000030D-JR Promo - Little Einsteins - Get more on D-JR t                                                                          150                                
PROFAMCHA130201132928132958000030xSo Random (HD) Musical Guest Refresh - Coming Up                                                                           150                                
PROFAMCHA130201132958133036000038Family Love Disaster Dates (HD) Friday Feb 8 Start                                                                          150                                
PRCFAMCHA130201133036133047000011Family Bumper Flex (HD) Flex ID - Really Me (Apr20                                                                          150                                
PGRFAMCHA130201133047135221002134So Random!                                        EP: 11                                                               6068807BCC                              
ID FAMCHA130201135221135227000006Astral ID (HD) (Jan2011)                                                                                                    150                                
PROFAMCHA130201135227135253000026ANT Farm Episodic (HD) 216 Clip - New Episode Toni                                                                          150                                
PROFAMCHA130201135253135323000030xSLOD (HD) Sandwich - This Afternoon @ 2:30 (April                                                                          150                                
PGRFAMCHA130201135323135453000130MV Disney (HD) Jessie & Austin - Face 2 Face (Dec3                                                                     60685120                                
PROFAMCHA130201135453135537000044xPhineas & Ferb (HD) Lines - This Afternoon @ 4:00                                                                          150                                
PROFAMCHA130201135537135611000034Next Step (HD) Sizzle CD - Coming In March (Jan18-                                                                          150                                
PGRFAMCHA130201135611135812000201Get to Know Bridgit Mendler (HD) (Dec7-Feb7)                                                                           10618120                                
PROFAMCHA130201135812135840000028Good Luck Charlie (HD) Promo 3 - Weekend Afternoon                                                                          150                                
PROFAMCHA130201135840135910000030Wingin It (HD) Friend Sell Promo - Monday to Thurs                                                                          150                                
PROFAMCHA130201135910135947000037xThat's So Raven (HD) Dance Retag - Coming Up Next                                                                          150                                
PROFAMCHA130201135947140047000100xEnchanted (HD) Premieres Friday Feb 8 @ 8:00pm (J                                                                          150                                
PRCFAMCHA130201140047140100000013Family Bumper (HD) - Karate ID (Jan 2011)                                                                                   150                                
PGRFAMCHA130201140100142338002238That's So Raven                                   EP: 100                                                              6068607BCC                              
PROFAMCHA130201142338142428000050Family Loves China Stunt (HD) This Afternoon Start                                                                          150                                
PROFAMCHA130201142428142458000030xShake It Up (HD) Cee Cee Sell - Weekend Afternoon                                                                          150                                
PGRFAMCHA130201142458142643000145MV Disney (HD) Ross Lynch - Can You Feel It (Nov29                                                                     60685120                                
PROFAMCHA130201142643142713000030xSo Random (HD) Musical Guest Refresh - Sunday Aft                                                                          150                                
PGRFAMCHA130201142713142910000157Who I Am (HD) Ross Lynch (Dec 26 - Feb 26)                                                                             60685120                                
PROFAMCHA130201142910142935000025D-JR Promo - JATNP - Get more on the channel REV (                                                                          150                                
PROFAMCHA130201142935143005000030xSLOD (HD) Sandwich - Coming Up Next (April2012)                                                                            150                                
PROFAMCHA130201143005143035000030xFrenemies (HD) Trailer CD - Saturday @ Noon (Jan2                                                                          150                                
PRCFAMCHA130201143035143048000013Family Bumper Flex (HD) Flex ID - Really Me Chest                                                                           150                                
PGRFAMCHA130201143048145321002233The Suite Life on Deck                            EP: 11                                                               6068807BCC                              
ID FAMCHA130201145321145326000005Astral ID (HD) (Jan2011)                                                                                                    150                                
PROFAMCHA130201145326145352000026ANT Farm Episodic (HD) 216 Clip - New Episode Toni                                                                          150                                
PGRFAMCHA130201145352145642000250MV Disney (HD) CoCo Jones - Holla at the DJ (Dec15                                                                     60685120                                
PROFAMCHA130201145642145742000100xGravity Falls (HD) Twin Sell - Weekend Afternoons                                                                          150                                
PROFAMCHA130201145742145812000030xReally Me (HD) S2 Promo - Weekend Night @ 6:30 (N                                                                          150                                
PROFAMCHA130201145812145938000126xFriends of Heartlake City (HD) To see more, go to                                                                          150                                
PROFAMCHA130201145938150008000030xWOWP (HD) Spellbook - Coming Up Next (Oct2011)                                                                             150                                
PRCFAMCHA130201150008150050000042xAquamarine (HD) Tonight @ 8:00 (Nov2012)                                                                                   150                                
PRCFAMCHA130201150050150058000008Family Bumper (HD) - Origami ID (Jan 2011)                                                                                  150                                
PGRFAMCHA130201150058152330002232Disney Wizards of Waverly Place                   EP: 28                                                               6068607BCC                              
PRCFAMCHA130201152330152400000030xFOD 2012 Refresh (HD) Family.ca New Look (Apr2012                                                                          150                                
PROFAMCHA130201152400152450000050Sony Pictures Home Entertainment                                                                                            150                                
PRCFAMCHA130201152450152527000037Next Step Dancing Is (HD) Riley - Coming in March                                                                           150                                
PGRFAMCHA130201152527152657000130MV Disney (HD) Bridgit Mendler - Ready or Not (Acc                                                                     60685120                                
PROFAMCHA130201152657152739000042xDog With A Blog (HD) Comedy Sell - Weekend Aftern                                                                          150                                
PROFAMCHA130201152739152829000050Alliance Films                                                                                                              150                                
PROFAMCHA130201152829152912000043xANT Farm (HD) Refresh Ole McDonald (Long) - Comin                                                                          150                                
PROFAMCHA130201152912153002000050Walt Disney Studios Home Entertainment                                                                                      150                                
PROFAMCHA130201153002153046000044DXD Takeover on Family Feb 3 (HD) Sunday Morning F                                                                          150                                
PRCFAMCHA130201153046153058000012Family Bumper Flex (HD) Flex ID - Wingin It (Apr20                                                                          150                                
PGRFAMCHA130201153058155330002232Disney A.N.T. Farm                                EP: 16                                                               6068607BCC                              
ID FAMCHA130201155330155336000006Astral ID (HD) (Jan2011)                                                                                                    150                                
PROFAMCHA130201155336155346000010LU - 15 - PHINEAS/PHINEAS 4:30pm (HD) (:9 - :11) J                                                                          150                                
PROFAMCHA130201155346155436000050Family Loves China Stunt (HD) This Afternoon Start                                                                          150                                
PROFAMCHA130201155436155526000050Universal Home Entertainment                                                                                                150                                
PRCFAMCHA130201155526155608000042xAquamarine (HD) Tonight @ 8:00 (Nov2012)                                                                                   150                                
PROFAMCHA130201155608155623000015PSA CMF (HD) Canada on Screen (Nov2012) (3x per da                                                                          150                                
PROFAMCHA130201155623155653000030xShake It Up (HD) Cee Cee Sell - Weekend Afternoon                                                                          150                                
PROFAMCHA130201155653155703000010Walt Disney Studios Home Entertainment                                                                                      150                                
PRCFAMCHA130201155703155725000022Game Change Friday February Promo (HD) Family.ca (                                                                          150                                
PGRFAMCHA130201155725155824000059MV Non Disney (HD) Taylor Matthews - Head Over Fee                                                                     10615120CC                              
PRCFAMCHA130201155824155855000031xPhineas & Ferb (HD) Disney Refresh - Coming Up Ne                                                                          150                                
PROFAMCHA130201155855155940000045MGA Entertainment                                                                                                           150                                
PROFAMCHA130201155940160040000100xEnchanted (HD) Premieres Friday Feb 8 @ 8:00pm (J                                                                          150                                
PRCFAMCHA130201160040160050000010Family Bumper (HD) - Satelite ID (Jan 2011)                                                                                 150                                
PGRFAMCHA130201160050162341002251Disney Phineas & Ferb                             EP: 08                                                               6068607ECC                              
PROFAMCHA130201162341162351000010LU - 04 - PHINEAS AND FERB (HD) (:9 - :11) Jan 201                                                                          150                                
PROFAMCHA130201162351162417000026ANT Farm Episodic (HD) 216 Clip - New Episode Toni                                                                          150                                
PROFAMCHA130201162417162507000050Sony Pictures Home Entertainment                                                                                            150                                
PROFAMCHA130201162507162530000023xWOWP (HD) Harper - This Afternoon @ 5:00 (Jan2011                                                                          150                                
PROFAMCHA130201162530162556000026xDog With A Blog @ family.ca (HD) Play Games at fa                                                                          150                                
PROFAMCHA130201162556162626000030xFrenemies (HD) Trailer CD - Saturday @ Noon (Jan2                                                                          150                                
PROFAMCHA130201162626162716000050Alliance Films                                                                                                              150                                
PROFAMCHA130201162716162746000030xGravity Falls (HD) Retag - Weekend Afternoons @ 2                                                                          150                                
PROFAMCHA130201162746162824000038Family Love Disaster Dates (HD) Friday Feb 8 Start                                                                          150                                
PROFAMCHA130201162824162908000044xPhineas & Ferb (HD) Lines - Coming Up Next (Apr20                                                                          150                                
PROFAMCHA130201162908162958000050Universal Home Entertainment                                                                                                150                                
PROFAMCHA130201162958163032000034Next Step (HD) Sizzle CD - Coming In March (Jan18-                                                                          150                                
PRCFAMCHA130201163032163046000014Family Bumper Flex (HD) Flex ID - WUW (May2012) (:                                                                          150                                
PGRFAMCHA130201163046165320002234Disney Phineas & Ferb                             EP: 01                                                               6068607ECC                              
ID FAMCHA130201165320165326000006Astral ID (HD) (Jan2011)                                                                                                    150                                
PROFAMCHA130201165326165410000044DXD Takeover on Family Feb 3 (HD) Sunday Morning F                                                                          150                                
PROFAMCHA130201165410165500000050Alliance Films                                                                                                              150                                
PRCFAMCHA130201165500165542000042xAquamarine (HD) Tonight @ 8:00 (Nov2012)                                                                                   150                                
PROFAMCHA130201165542165615000033xAustin & Ally (HD) Music Lesson - Tomorrow Mornin                                                                          150                                
PROFAMCHA130201165615165657000042xDog With A Blog (HD) Comedy Sell - Weekend Aftern                                                                          150                                
PROFAMCHA130201165657165742000045MGA Entertainment                                                                                                           150                                
PROFAMCHA130201165742165812000030xSo Random (HD) Musical Guest Refresh - Sunday Aft                                                                          150                                
PROFAMCHA130201165812165842000030xWOWP (HD) Spellbook - Coming Up Next (Oct2011)                                                                             150                                
PROFAMCHA130201165842165932000050Warner Bros. Pictures                                                                                                       150                                
PROFAMCHA130201165932170022000050Family Loves China Stunt (HD) Starting Next (Feb1)                                                                          150                                
PRCFAMCHA130201170022170042000020Family Bumper (HD) - Wallpaper ID (Jan 2011)                                                                                150                                
PGRFAMCHA130201170042174848004806Disney Wizards of Waverly Place                   EP: 99                                                               6068607BCC                              
PROFAMCHA130201174848174914000026ANT Farm Episodic (HD) 216 Clip - New Episode Toni                                                                          150                                
PROFAMCHA130201174914174959000045MGA Entertainment                                                                                                           150                                
PROFAMCHA130201174959175014000015xJessie (HD) Refresh CD - Weekend Afternoons @ 4:0                                                                          150                                
PROFAMCHA130201175014175024000010Walt Disney Studios Home Entertainment                                                                                      150                                
PROFAMCHA130201175024175030000006Hannah (HD) ID - Jason Earles 2 - "Coming Up Next"                                                                          150                                
PRCFAMCHA130201175030175047000017Family Bumper Flex (HD) Winter 2012 ID (:14-:17) (                                                                          150                                
PGRFAMCHA130201175047181320002233Hannah Montana                                    EP: 09                                                               6068607BCC                              
ID FAMCHA130201181320181325000005Astral ID (HD) (Jan2011)                                                                                                    150                                
PROFAMCHA130201181325181359000034Next Step (HD) Sizzle CD - Coming In March (Jan18-                                                                          150                                
PROFAMCHA130201181359181444000045MGA Entertainment                                                                                                           150                                
PROFAMCHA130201181444181540000056ANT Farm Episodic (HD) 299 Retag - Coming Up Next                                                                           150                                
PRCFAMCHA130201181540181550000010Family Bumper (HD) - Amoeba ID (Jan 2011)                                                                                   150                                
PGRFAMCHA130201181550190623005033Disney A.N.T. Farm                                EP: 99                                                               6068607BCC                              
PROFAMCHA130201190623190638000015xANT Farm (HD) Refresh Ole McDonald - Coming Up Ne                                                                          150                                
PRCFAMCHA130201190638190646000008Family Bumper (HD) - Origami ID (Jan 2011)                                                                                  150                                
PGRFAMCHA130201190646192848002202Disney A.N.T. Farm                                EP: 15                                                               6068607BCC                              
ID FAMCHA130201192848192854000006Astral ID (HD) (Jan2011)                                                                                                    150                                
PRCFAMCHA130201192854192920000026Next Step Dancing Is (HD) James - Coming in March                                                                           150                                
PROFAMCHA130201192920193010000050Universal Home Entertainment                                                                                                150                                
PROFAMCHA130201193010193036000026ANT Farm Episodic (HD) 216 Clip - New Episode Comi                                                                          150                                
PRCFAMCHA130201193036193051000015Family Bumper Flex (HD) Flex ID - Really Me (Apr20                                                                          150                                
PGRFAMCHA130201193051195240002149Disney A.N.T. Farm                                EP: 16                                                               6028607BCC                              
PROFAMCHA130201195240195324000044DXD Takeover on Family Feb 3 (HD) Sunday Morning F                                                                          150                                
PROFAMCHA130201195324195414000050Walt Disney Studios Home Entertainment                                                                                      150                                
PRCFAMCHA130201195414195444000030xFOD 2012 Refresh (HD) Family.ca New Look (Apr2012                                                                          150                                
PROFAMCHA130201195444195514000030xGravity Falls (HD) Retag - Weekend Afternoons @ 2                                                                          150                                
PROFAMCHA130201195514195604000050Sony Pictures Home Entertainment                                                                                            150                                
PROFAMCHA130201195604195634000030xShake It Up (HD) Cee Cee Sell - Weekend Afternoon                                                                          150                                
PROFAMCHA130201195634195738000104Next Step (HD) Series Sizzle -  Coming This March                                                                           150                                
PROFAMCHA130201195738195828000050Warner Bros. Pictures                                                                                                       150                                
PRCFAMCHA130201195828195910000042xAquamarine (HD) Coming Up Next (Nov2012)                                                                                   150                                
PROFAMCHA130201195910200000000050Universal Home Entertainment                                                                                                150                                
PROFAMCHA130201200000200038000038Family Love Disaster Dates (HD) Friday Feb 8 Start                                                                          150                                
ID FAMCHA130201200038200053000015Popcorn Pix Block Open (HD)  (Jan2011)                                                                                      150                                
ID FAMCHA130201200053200103000010Popcorn Pix Rating Slate (HD) - PG (Jan 2011)                                                                               150                                
PGRFAMCHA130201200103214432014329Aquamarine                                                                                                            B2068807DCC                              
ID FAMCHA130201214432214437000005Astral ID (HD) (Jan2011)                                                                                                    150                                
PROFAMCHA130201214437214452000015xANT Farm (HD) Refresh Ole McDonald - Coming Up Ne                                                                          150                                
PRCFAMCHA130201214452214501000009Family Bumper Flex (HD) Flex ID - Wingin It (Apr20                                                                          150                                
PGRFAMCHA130201214501220805002304Disney A.N.T. Farm                                EP: 04                                                               6068607BCC                              
PROFAMCHA130201220805220850000045xSuite Life Movie (HD) Trailer CD - Coming Up Next                                                                          150                                
ID FAMCHA130201220850220905000015Popcorn Pix Block Open (HD)  (Jan2011)                                                                                      150                                
ID FAMCHA130201220905220914000009Popcorn Pix Rating Slate (HD) - G (Jan 2011)                                                                                150                                
ID FAMCHA130201220914220919000005xMagic of Disney Bumper (HD)(:5-:6) (Jan 2011)                                                                              150                                
PGRFAMCHA130201220919232813011854The Suite Life Movie                                                                                                  A6068807CCC                              
ID FAMCHA130201232813232818000005Astral ID (HD) (Jan2011)                                                                                                    150                                
PROFAMCHA130201232818232844000026xDog With A Blog @ family.ca (HD) Play Games at fa                                                                          150                                
PROFAMCHA130201232844232859000015PSA CMF (HD) Canada on Screen (Nov2012) (3x per da                                                                          150                                
PROFAMCHA130201232859232951000052D-JR Promo - Doc McStuffins - Get more on the chan                                                                          150                                
PROFAMCHA130201232951233029000038xElephant Princess (HD) Music Sell - Coming Up Nex                                                                          150                                
PRCFAMCHA130201233029233049000020Family Bumper Flex (HD) Flex ID - ANT Farm (:16-:2                                                                          150                                
PGRFAMCHA130201233049235533002444The Elephant Princess                             EP: 07                                                               7068507ACC                              
PROFAMCHA130201235533235633000100xEnchanted (HD) Premieres Friday Feb 8 @ 8:00pm (J                                                                          150                                
PROFAMCHA130201235633235718000045MGA Entertainment                                                                                                           150                                
PROFAMCHA130201235718235751000033xAustin & Ally (HD) Music Lesson - Tomorrow Mornin                                                                          150                                
PRCFAMCHA130201235751235813000022Game Change Friday February Promo (HD) Family.ca (                                                                          150                                
PROFAMCHA130201235813235939000126xFriends of Heartlake City (HD) To see more, go to                                                                          150                                
PROFAMCHA130201235939000009000030xLatest Buzz (HD) Loco Oct.09 - Coming Up Next (Ja                                                                          150                                
PROFAMCHA130201000009000043000034Next Step (HD) Sizzle CD - Coming In March (Jan18-                                                                          150                                
PRCFAMCHA130201000043000053000010Family Bumper (HD) - Bobbleheads ID (Jan 2011)                                                                              150                                
PGRFAMCHA130201000053002328002235The Latest Buzz                                   EP: 01                                                        C29140 1065607BCC                              
ID FAMCHA130201002328002334000006Astral ID (HD) (Jan2011)                                                                                                    150                                
PROFAMCHA130201002334002418000044DXD Takeover on Family Feb 3 (HD) Sunday Morning F                                                                          150                                
PGRFAMCHA130201002418002810000352MV Non Disney (HD) Hunter Hayes - Wanted (Dec9-Jun                                                                     10615120CC                              
PROFAMCHA130201002810002840000030xSo Random (HD) Musical Guest Refresh - Sunday Aft                                                                          150                                
PROFAMCHA130201002840002915000035D-JR Promo - Handy Manny - Get more on the channel                                                                          150                                
PROFAMCHA130201002915003002000047xOverruled! (HD) Refresh - Coming Up Next (Jan2011                                                                          150                                
PROFAMCHA130201003002003040000038Family Love Disaster Dates (HD) Friday Feb 8 Start                                                                          150                                
PRCFAMCHA130201003040003054000014Family Bumper Flex (HD) Flex ID - Really Me Chest                                                                           150                                
PGRFAMCHA130201003054005326002232Overruled!                                        EP: 01                                                        C30129 1065607BCC                              
PRCFAMCHA130201005326005356000030xFOD 2012 Refresh (HD) Family.ca New Look (Apr2012                                                                          150                                
PROFAMCHA130201005356005424000028Good Luck Charlie (HD) Promo 3 - Weekend Afternoon                                                                          150                                
PGRFAMCHA130201005424005825000401MV Non Disney (HD) Taylor Matthews - Head Over Fee                                                                     10615120CC                              
PROFAMCHA130201005825005907000042xDog With A Blog (HD) Comedy Sell - Weekend Aftern                                                                          150                                
PROFAMCHA130201005907005922000015PSA CMF (HD) Canada on Screen (Nov2012) (3x per da                                                                          150                                
PROFAMCHA130201005922005957000035xDEBRA! (HD) Hypotenuse Promo - Coming Up Next (De                                                                          150                                
PRCFAMCHA130201005957010039000042Next Step Dancing Is (HD) Emily - Coming in March                                                                           150                                
PRCFAMCHA130201010039010057000018Family Bumper (HD) - Dominoes ID (Jan 2011)                                                                                 150                                
PGRFAMCHA130201010057012329002232DEBRA!                                            EP: 05                                                        C35763 1065607ACD                              
ID FAMCHA130201012329012335000006Astral ID (HD) (Jan2011)                                                                                                    150                                
PRCFAMCHA130201012335012345000010Family Bumper Flex (HD) Flex ID - Wingin It (Apr20                                                                          150                                
PGRFAMCHA130201012345014518002133Disney JONAS                                      EP: 20                                                               6068507BCC                              
PRCFAMCHA130201014518014527000009Family Bumper (HD) - Dragonflies ID (Jan 2011)                                                                              150                                
ID FAMCHA130201014527014532000005xMagic of Disney Bumper (HD)(:5-:6) (Jan 2011)                                                                              150                                
PGRFAMCHA130201014532020758002226Phil of the Future                                EP: 42                                                               6068607BCC                              
ID FAMCHA130201020758020804000006Astral ID (HD) (Jan2011)                                                                                                    150                                
PRCFAMCHA130201020804020815000011Family Bumper Flex (HD) Flex ID - WUW (May2012) (:                                                                          150                                
ID FAMCHA130201020815020820000005xMagic of Disney Bumper (HD)(:5-:6) (Jan 2011)                                                                              150                                
PGRFAMCHA130201020820023229002409The Elephant Princess                             EP: 06                                                               7068507ACC                              
PRCFAMCHA130201023229023242000013Family Bumper (HD) - Drums ID (Jan 2011)                                                                                    150                                
PGRFAMCHA130201023242025513002231Life with Derek                                   EP: 02                                                        C26822 1065607BCC                              
ID FAMCHA130201025513025519000006Astral ID (HD) (Jan2011)                                                                                                    150                                
PRCFAMCHA130201025519025536000017Family Bumper Flex (HD) Winter 2012 ID (:14-:17) (                                                                          150                                
PGRFAMCHA130201025536031739002203Slugterra                                         EP: 13                                                        A33763 1065607ACC                              
PRCFAMCHA130201031739031755000016Family Bumper (HD) - Fashion ID (Jan 2011)                                                                                  150                                
PGRFAMCHA130201031755034025002230Overruled!                                        EP: 08                                                        C30129 1065607BCC                              
ID FAMCHA130201034025034031000006Astral ID (HD) (Jan2011)                                                                                                    150                                
PGRFAMCHA130201034031040307002236Latest Buzz II                                    EP: 13                                                        C29635 1065607BCC                              
PROFAMCHA130201040307040317000010LU - 41 - LIFE WITH DEREK (HD) (:9 - :11) Jan2011                                                                           150                                
PRCFAMCHA130201040317040331000014Family Bumper (HD) - Horseshoe ID (Jan 2011)                                                                                150                                
PGRFAMCHA130201040331042602002231Life With Derek                                   EP: 11                                                        C24891 1065607BCC                              
ID FAMCHA130201042602042607000005Astral ID (HD) (Jan2011)                                                                                                    150                                
PROFAMCHA130201042607042707000100D-JR Promo - Sofia The First: Animal Friends - Wee                                                                          150                                
PROFAMCHA130201042707042737000030D-JR Promo - MMCH - Get more MMCH on D-JR the chan                                                                          150                                
PROFAMCHA130201042737042802000025D-JR Promo - JATNP - Get more on the channel REV (                                                                          150                                
PROFAMCHA130201042802042854000052D-JR Promo - Doc McStuffins - Get more on the chan                                                                          150                                
PROFAMCHA130201042854042959000105D-JR Promo - Cinderella III - Prems Sunday @ 10:20                                                                          150                                
OFFFAMCHA130201042959043000000001OFF AIR                                                                                                                                                        
SO FAMCHA130202043000043011000011Sign On (oct 1)                                                                                                                                                
PGRFAMCHA130202043011045410002359Henry's World                                     EP: 16                                                        B81047 1065607ECC                              
ID FAMCHA130202045410045415000005Astral ID (HD) (Jan2011)                                                                                                    150                                
PROFAMCHA130202045415045422000007D-JR Live Action ID - SWOBB - Coming Up (May2012)                                                                           150                                
PROFAMCHA130202045422045447000025D-JR Live Action ID - #44 Fold Towels (Sept2012)                                                                            150                                
PROFAMCHA130202045447045517000030D-JR Promo - On demand online REVISED - D-JR.ca (M                                                                          150                                
PROFAMCHA130202045517045711000154D-JR Promo - Bananas in Pajamas: Banana Detective                                                                           150                                
PROFAMCHA130202045711045741000030D-JR Promo - MMCH - Get more MMCH on D-JR the chan                                                                          150                                
PROFAMCHA130202045741045816000035D-JR Promo - Handy Manny - Get more on the channel                                                                          150                                
PROFAMCHA130202045816045916000100D-JR Promo - Sofia The First: Animal Friends - Wee                                                                          150                                
PROFAMCHA130202045916045941000025D-JR Live Action ID - #42 Brush Teeth (May2012)                                                                             150                                
PROFAMCHA130202045941045948000007D-JR Live Action ID - SWOBB - Now (May2012)                                                                                 150                                
PROFAMCHA130202045948045957000009D-JR - Flex ID - Green (:6-:10) (Feb2012)                                                                                   150                                
PGRFAMCHA130202045957052232002235The Secret World of Benjamin Bear                 EPS # 1-007                                                   B75152 1065607ECC                              
PROFAMCHA130202052232052304000032D-JR Icon Story - Harry & His Bucket - Maze Part 1                                                                          150                                
PROFAMCHA130202052304052334000030D-JR Promo - Sofia The First: Flying Horse - Weeke                                                                          150                                
PROFAMCHA130202052334052340000006D-JR - Short Open (:06) (May2011)                                                                                           150                                
PROFAMCHA130202052340052640000300PH-D Short - Mickey Mousekersize Shorts - 09 - Fol                                                                          150CC                              
PROFAMCHA130202052640052646000006D-JR - Short Close (:06) (May2011)                                                                                          150                                
PROFAMCHA130202052646052718000032D-JR Promo - Stella and Sam - Get more on the chan                                                                          150                                
PROFAMCHA130202052718052743000025D-JR Promo - JATNP - Get more on the channel REV (                                                                          150                                
PROFAMCHA130202052743052818000035D-JR Promo - Handy Manny - Get more on the channel                                                                          150                                
PROFAMCHA130202052818052845000027Doc McStuffins - Get more Doc on D-JR the channel                                                                           150                                
PROFAMCHA130202052845052915000030D-JR Promo - On demand online REVISED - D-JR.ca (M                                                                          150                                
PROFAMCHA130202052915052945000030D-JR Icon Story - Harry & His Bucket - Maze Part 2                                                                          150                                
PROFAMCHA130202052945052953000008D-JR - Flex ID - Yellow (:6-:10) (Feb2012)                                                                                  150                                
PGRFAMCHA130202052953055126002133Harry and His Bucket Full of Dinosaurs            EP: 25                                                        B05044 1065607ECC                              
ID FAMCHA130202055126055132000006Astral ID (HD) (Jan2011)                                                                                                    150                                
PROFAMCHA130202055132055216000044DXD Takeover on Family Feb 3 (HD) Tomorrow Morning                                                                          150                                
PROFAMCHA130202055216055246000030xSLOD (HD) Retag - This Morning @ 6:30 (Jun2012)                                                                            150                                
PGRFAMCHA130202055246055627000341BAW Music Video (HD) Various Artists - Stand Up (M                                                                     60688120                                
PROFAMCHA130202055627055642000015PSA CMF (HD) Canada on Screen (Nov2012) (3x per da                                                                          150                                
PROFAMCHA130202055642055715000033xAustin & Ally (HD) Music Lesson - This Morning @                                                                           150                                
PROFAMCHA130202055715055745000030xFrenemies (HD) Trailer CD - Today @ Noon (Jan2012                                                                          150                                
PROFAMCHA130202055745055911000126xFriends of Heartlake City (HD) To see more, go to                                                                          150                                
PROFAMCHA130202055911055941000030Wingin It (HD) Friend Sell Promo - Coming Up Next                                                                           150                                
PRCFAMCHA130202055941055953000012Family Bumper Flex (HD) Flex ID - Really Me (Apr20                                                                          150                                
PRCFAMCHA130202055953060007000014xDescriptive Video Slate (HD) (Jan 2011)                                                                                    150                                
PGRFAMCHA130202060007062238002231Wingin' It                                        EP: 14                                                        C32727 1065607ACD                              
PRCFAMCHA130202062238062302000024Austin & Ally Episodic (HD) 203 - New Episode Frid                                                                          150                                
PROFAMCHA130202062302062346000044xPhineas & Ferb (HD) Lines - Weekend Afternoons @                                                                           150                                
PGRFAMCHA130202062346062706000320MV Non Disney (HD) Cody Simpson - Wish U Were Here                                                                     10615120                                
PRCFAMCHA130202062706062732000026Next Step Dancing Is (HD) James - Coming in March                                                                           150                                
PROFAMCHA130202062732062817000045xSo Random (HD) Super Tease Promo - Weekend Nights                                                                          150                                
PROFAMCHA130202062817062847000030xSLOD (HD) Sandwich - Coming Up Next (April2012)                                                                            150                                
PROFAMCHA130202062847062947000100xEnchanted (HD) Premieres Friday Night @ 8:00 (Feb                                                                          150                                
PRCFAMCHA130202062947063000000013Family Bumper (HD) - Karate ID (Jan 2011)                                                                                   150                                
PGRFAMCHA130202063000065150002150The Suite Life on Deck                            EP: 12                                                               6068607BCC                              
ID FAMCHA130202065150065156000006Astral ID (HD) (Jan2011)                                                                                                    150                                
PROFAMCHA130202065156065222000026xDog With A Blog @ family.ca (HD) Play Games at fa                                                                          150                                
PROFAMCHA130202065222065237000015xANT Farm (HD) Refresh Ole McDonald - This Morning                                                                          150                                
PGRFAMCHA130202065237065638000401MV Non Disney (HD) Taylor Matthews - Head Over Fee                                                                     10615120CC                              
PROFAMCHA130202065638065708000030xShake It Up (HD) Cee Cee Sell - This Morning @ 11                                                                          150                                
PROFAMCHA130202065708065808000100xGravity Falls (HD) Twin Sell - Weekend Afternoons                                                                          150                                
PROFAMCHA130202065808065904000056xHannah (HD) Dec Refresh - Coming Up Next (Dec2011                                                                          150                                
PROFAMCHA130202065904065942000038Family Love Disaster Dates (HD) Friday Afternoon S                                                                          150                                
PRCFAMCHA130202065942065958000016Family Bumper (HD) - Fashion ID (Jan 2011)                                                                                  150                                
PGRFAMCHA130202065958072229002231Hannah Montana                                    EP: 24                                                               6068607BCC                              
PRCFAMCHA130202072229072306000037Next Step Dancing Is (HD) Riley - Coming in March                                                                           150                                
PROFAMCHA130202072306072356000050Universal Home Entertainment                                                                                                150                                
PROFAMCHA130202072356072414000018xGood Luck Charlie (HD) Promo 2 - This Morning @ 9                                                                          150                                
PGRFAMCHA130202072414072722000308MV Non Disney (HD) Victoria Duffield ft Cody-They                                                                      10615120CC                              
PROFAMCHA130202072722072752000030xFrenemies (HD) Trailer CD - Today @ Noon (Jan2012                                                                          150                                
PROFAMCHA130202072752072822000030xReally Me (HD) S2 Promo - Weekend Night @ 6:30 (N                                                                          150                                
PROFAMCHA130202072822072852000030xJessie (HD) Happy Place - Tuesday Night @ 8pm (Ma                                                                          150                                
PROFAMCHA130202072852072859000007SWAC (HD) ID - Tiffany Thorton 1 "Coming Up Next"                                                                           150                                
PROFAMCHA130202072859072943000044DXD Takeover on Family Feb 3 (HD) Tomorrow Morning                                                                          150                                
PRCFAMCHA130202072943073001000018Family Bumper Flex (HD) Flex ID - ANT Farm (:16-:2                                                                          150                                
PGRFAMCHA130202073001075234002233Disney Sonny With A Chance                        EP: 10                                                               6068507BCC                              
ID FAMCHA130202075234075240000006Astral ID (HD) (Jan2011)                                                                                                    150                                
PROFAMCHA130202075240075340000100xEnchanted (HD) Premieres Friday Night @ 8:00 (Feb                                                                          150                                
PROFAMCHA130202075340075350000010Walt Disney Studios Home Entertainment                                                                                      150                                
PROFAMCHA130202075350075420000030xSLOD (HD) Sandwich - Weekend Nights @ 7:30 (April                                                                          150                                
PGRFAMCHA130202075420075812000352MV Non Disney (HD) Hunter Hayes - Wanted (Dec9-Jun                                                                     10615120CC                              
PROFAMCHA130202075812075842000030xSo Random (HD) Girl Sell - Tomorrow Afternoon @ 3                                                                          150                                
PROFAMCHA130202075842075857000015xANT Farm (HD) Refresh Ole McDonald - Monday Night                                                                          150                                
PROFAMCHA130202075857075927000030xWOWP (HD) Spellbook - Coming Up Next (Oct2011)                                                                             150                                
PRCFAMCHA130202075927075957000030xFOD 2012 Refresh (HD) Family.ca New Look (Apr2012                                                                          150                                
PRCFAMCHA130202075957080007000010Family Bumper (HD) - Satelite ID (Jan 2011)                                                                                 150                                
PGRFAMCHA130202080007082325002318Disney Wizards of Waverly Place                   EP: 19                                                               6068607BCC                              
PRCFAMCHA130202082325082347000022Game Change Friday February Promo (HD) Family.ca (                                                                          150                                
PROFAMCHA130202082347082437000050Walt Disney Studios Home Entertainment                                                                                      150                                
PROFAMCHA130202082437082455000018xGood Luck Charlie (HD) Promo 2 - This Morning @ 9                                                                          150                                
PGRFAMCHA130202082455082656000201Get to Know Bridgit Mendler (HD) (Dec7-Feb7)                                                                           10618120                                
PROFAMCHA130202082656082726000030xJessie (HD) Happy Place - This Morning @ 10:30am                                                                           150                                
PROFAMCHA130202082726082759000033xAustin & Ally (HD) Music Lesson - This Morning @                                                                           150                                
PROFAMCHA130202082759082829000030xFrenemies (HD) Trailer CD - Today @ Noon (Jan2012                                                                          150                                
PROFAMCHA130202082829082859000030xReally Me (HD) S2 Promo - Weekend Night @ 6:30 (N                                                                          150                                
PROFAMCHA130202082859082941000042xDog With A Blog (HD) Comedy Sell - Coming Up Next                                                                          150                                
PRCFAMCHA130202082941082959000018Family Bumper Flex (HD) Flex ID - ANT Farm (:16-:2                                                                          150                                
PGRFAMCHA130202082959085148002149Disney Dog With A Blog                            EP: 06                                                               6068807BCC                              
ID FAMCHA130202085148085153000005Astral ID (HD) (Jan2011)                                                                                                    150                                
PROFAMCHA130202085153085228000035Furry Vengence (HD) Premieres Friday Feb 15 @ 8:00                                                                          150                                
PROFAMCHA130202085228085318000050Sony Pictures Home Entertainment                                                                                            150                                
PROFAMCHA130202085318085402000044xPhineas & Ferb (HD) Lines - This Afternoon @ 1:30                                                                          150                                
PGRFAMCHA130202085402085743000341BAW Music Video (HD) Various Artists - Stand Up (M                                                                     60688120                                
PROFAMCHA130202085743085825000042xDog With A Blog (HD) Comedy Sell - Weekend Aftern                                                                          150                                
PROFAMCHA130202085825085853000028Good Luck Charlie (HD) Promo 3 - Coming Up Next (S                                                                          150                                
PROFAMCHA130202085853085937000044DXD Takeover on Family Feb 3 (HD) Tomorrow Morning                                                                          150                                
PRCFAMCHA130202085937085954000017Family Bumper Flex (HD) Winter 2012 ID (:14-:17) (                                                                          150                                
PGRFAMCHA130202085954092244002250Good Luck Charlie                                 EP: 10                                                               6068807BCC                              
PROFAMCHA130202092244092348000104Next Step (HD) Series Sizzle -  Coming This March                                                                           150                                
PROFAMCHA130202092348092433000045MGA Entertainment                                                                                                           150                                
PROFAMCHA130202092433092449000016xShake It Up (HD) Refresh CD - This Morning @ 11:3                                                                          150                                
PGRFAMCHA130202092449092646000157Who I Am (HD) Ross Lynch (Dec 26 - Feb 26)                                                                             60685120                                
PROFAMCHA130202092646092746000100xGravity Falls (HD) Twin Sell - Weekend Afternoons                                                                          150                                
PROFAMCHA130202092746092801000015PSA CMF (HD) Canada on Screen (Nov2012) (3x per da                                                                          150                                
PROFAMCHA130202092801092831000030xSo Random (HD) Girl Sell - Tomorrow Afternoon @ 3                                                                          150                                
PROFAMCHA130202092831092901000030Wingin It (HD) Friend Sell Promo - Coming Up Next                                                                           150                                
PROFAMCHA130202092901092939000038Family Love Disaster Dates (HD) Friday Afternoon S                                                                          150                                
PRCFAMCHA130202092939092957000018Family Bumper (HD) - Dominoes ID (Jan 2011)                                                                                 150                                
PRCFAMCHA130202092957093011000014xDescriptive Video Slate (HD) (Jan 2011)                                                                                    150                                
PGRFAMCHA130202093011095243002232Wingin' It                                        EP: 05                                                        C32727 1065607ACD                              
ID FAMCHA130202095243095249000006Astral ID (HD) (Jan2011)                                                                                                    150                                
PROFAMCHA130202095249095333000044DXD Takeover on Family Feb 3 (HD) Tomorrow Morning                                                                          150                                
PROFAMCHA130202095333095423000050Sony Pictures Home Entertainment                                                                                            150                                
PROFAMCHA130202095423095453000030xFrenemies (HD) Trailer CD - Today @ Noon (Jan2012                                                                          150                                
PGRFAMCHA130202095453095743000250MV Disney (HD) CoCo Jones - Holla at the DJ (Dec15                                                                     60685120                                
PROFAMCHA130202095743095816000033xAustin & Ally (HD) Music Lesson - Weekend Nights                                                                           150                                
PROFAMCHA130202095816095836000020xHannah (HD) Clip Promo Cookies - Weekend Mornings                                                                          150                                
PROFAMCHA130202095836095859000023xWOWP (HD) Harper - Weekdays @ Noon (Jan2011)                                                                               150                                
PROFAMCHA130202095859095942000043xANT Farm (HD) Refresh Ole McDonald (Long) - Comin                                                                          150                                
PRCFAMCHA130202095942095959000017Family Bumper Flex (HD) Winter 2012 ID (:14-:17) (                                                                          150                                
PGRFAMCHA130202095959102218002219Disney A.N.T. Farm                                EP: 13                                                               6068607BCC                              
PRCFAMCHA130202102218102248000030Next Step Dancing Is (HD) Eldon - Coming in March                                                                           150                                
PROFAMCHA130202102248102338000050Universal Home Entertainment                                                                                                150                                
PROFAMCHA130202102338102419000041xAustin & Ally (HD) Music Sell - This Morning @ 11                                                                          150                                
PGRFAMCHA130202102419102549000130MV Disney (HD) Bridgit Mendler - Ready or Not (Acc                                                                     60685120                                
PROFAMCHA130202102549102619000030xSo Random (HD) Girl Sell - Tomorrow Afternoon @ 3                                                                          150                                
PGRFAMCHA130202102619102749000130MV Disney (HD) Jessie & Austin - Face 2 Face (Dec3                                                                     60685120                                
PROFAMCHA130202102749102819000030xJessie (HD) Happy Place - Coming Up Next (May2012                                                                          150                                
PROFAMCHA130202102819102919000100Feld Entertainment                                                                                                          150                                
PROFAMCHA130202102919102945000026xDog With A Blog @ family.ca (HD) Play Games at fa                                                                          150                                
PRCFAMCHA130202102945102959000014Family Bumper (HD) - Horseshoe ID (Jan 2011)                                                                                150                                
PGRFAMCHA130202102959105233002234Disney Jessie                                     EP: 06                                                               6068807BCC                              
ID FAMCHA130202105233105239000006Astral ID (HD) (Jan2011)                                                                                                    150                                
PRCFAMCHA130202105239105309000030xFOD 2012 Refresh (HD) Family.ca New Look (Apr2012                                                                          150                                
PROFAMCHA130202105309105359000050Walt Disney Studios Home Entertainment                                                                                      150                                
PROFAMCHA130202105359105429000030xReally Me (HD) S2 Promo - Weekend Night @ 6:30 (N                                                                          150                                
PGRFAMCHA130202105429105749000320MV Non Disney (HD) Cody Simpson - Wish U Were Here                                                                     10615120                                
PROFAMCHA130202105749105808000019SLOD (HD) Whale Clip Promo - Weekend Nights @ 7:30                                                                          150                                
PROFAMCHA130202105808105838000030Wingin It (HD) Friend Sell Promo - Weekend Morning                                                                          150                                
PROFAMCHA130202105838105919000041xAustin & Ally (HD) Music Sell - Coming Up Next (M                                                                          150                                
PROFAMCHA130202105919105957000038Family Love Disaster Dates (HD) Friday Afternoon S                                                                          150                                
PRCFAMCHA130202105957110014000017Family Bumper Flex (HD) Winter 2012 ID (:14-:17) (                                                                          150                                
PGRFAMCHA130202110014112149002135Disney Austin & Ally                              EP: 04                                                               6068807BCC                              
PRCFAMCHA130202112149112213000024Austin & Ally Episodic (HD) 203 - New Episode Frid                                                                          150                                
PROFAMCHA130202112213112223000010Walt Disney Studios Home Entertainment                                                                                      150                                
PROFAMCHA130202112223112240000017Phineas & Ferb (HD) Disney Refresh CD - Weekday Af                                                                          150                                
PGRFAMCHA130202112240112548000308MV Non Disney (HD) Victoria Duffield ft Cody-They                                                                      10615120CC                              
PROFAMCHA130202112548112618000030xGravity Falls (HD) Retag - This Afternoon @ 2:00                                                                           150                                
PROFAMCHA130202112618112744000126xFriends of Heartlake City (HD) To see more, go to                                                                          150                                
PROFAMCHA130202112744112759000015xJessie (HD) Refresh CD - Tuesday Night @ 8:00 (Se                                                                          150                                
PROFAMCHA130202112759112829000030xShake It Up (HD) Cee Cee Sell - Coming Up Next (J                                                                          150                                
PROFAMCHA130202112829112919000050Alliance Films                                                                                                              150                                
PROFAMCHA130202112919113003000044DXD Takeover on Family Feb 3 (HD) Tomorrow Morning                                                                          150                                
