OFFFAMCHA991101043000060000013000                                                                                                                                                               
SO FAMCHA991101060000060011000011Sign On (oct 1)                                                                                                                                                
PROFAMCHA991101060011060016000005CC Disclaimer (oct) **DO NOT USE**                                                                                                                             
PGRFAMCHA991101060016062416002400Hello Mrs. Cherrywinkle                           Rain Rain Go Away                                             C14683A1065607ACC                              
ID FAMCHA991101062416062431000015Interactive bumper w/URL                                                                                                                                       
ID FAMCHA991101062431062441000010Generic ID - Bubbles                                                                                                                                           
PROFAMCHA991101062441062546000105Adventures of Gummi Bears-Today @ 8am on Family (o                                                                                                             
PRCFAMCHA991101062546062616000030Franklin-weekdays @ 7:00am (oct 1)                                                                                                                             
PGRFAMCHA991101062616062820000204Disney Moments - Brave Engineer:Casey Jones                                                                            60688130                                
PROFAMCHA991101062820062905000045PB&J Otter - Mon, Wed & Fri @ 8:30am (oct 1)                                                                                                                   
PRCFAMCHA991101062905062940000035Little Lulu Show; The - Weekdays @ 1:00pm (oct1)                                                                                                               
ID FAMCHA991101062940063000000020Morning block open play pen                                                                                                                                    
PROFAMCHA991101063000063005000005CC Disclaimer (oct) **DO NOT USE**                                                                                                                             
PGRFAMCHA991101063005065415002410Busy World Of Richard Scarry; The                 Bananas The Magician/First Horseless/Princess Hild            P24316 1065607ECC                              
ID FAMCHA991101065415065430000015Interactive bumper w/URL                                                                                                                                       
ID FAMCHA991101065430065440000010Generic ID - confetti                                                                                                                                          
PRCFAMCHA991101065440065510000030Franklin-next (oct 1)                                                                                                                                          
PROFAMCHA991101065510065615000105Adventures of Gummi Bears-Today @ 8am on Family (o                                                                                                             
PROFAMCHA991101065615065637000022Disney's One Too - Today @ 4:30 (Oct 1)                                                                                                                        
PRCFAMCHA991101065637065737000100Contest - What's Franklin Doing Now?                                                                                                                           
PRCFAMCHA991101065737065825000048Ripley's BION - Fridays @ 6:00pm (oct1)                                                                                                                        
PROFAMCHA991101065825065900000035Lion King's Timon & Pumbaa - wkdays @ noon (OCT 1)                                                                                                             
PROFAMCHA991101065900065940000040Microsoap-Wednesday @ 6:30pm (oct)                                                                                                                             
ID FAMCHA991101065940070000000020Morning block open play pen                                                                                                                                    
PROFAMCHA991101070000070005000005CC Disclaimer (oct) **DO NOT USE**                                                                                                                             
PGRFAMCHA991101070005072258002253Franklin                                          Franklin the Copycat/Big Brother Franklin                     P02772A1025607ECC                              
ID FAMCHA991101072258072313000015Interactive bumper w/URL                                                                                                                                       
ID FAMCHA991101072313072328000015Generic ID - confetti                                                                                                                                          
PRCFAMCHA991101072328072339000011Morning Block menu background (flex time)                                                                                                                      
PROFAMCHA991101072339072409000030Madeline - 8:30am on Saturday (oct)                                                                                                                            
PGRFAMCHA991101072409072700000251Art Attack - Zebra                                                                                                     60686130                                
PRCFAMCHA991101072700072800000100Contest - What's Franklin Doing Now?                                                                                                                           
PROFAMCHA991101072800072845000045PB&J Otter - Mon, Wed & Fri @ 8:30am (oct 1)                                                                                                                   
PROFAMCHA991101072845072950000105Adventures of Gummi Bears-Today @ 8am on Family (o                                                                                                             
ID FAMCHA991101072950073000000010Presentation bumper - Magic of Disney                                                                                                                          
PROFAMCHA991101073000073005000005CC Disclaimer (oct) **DO NOT USE**                                                                                                                             
PGRFAMCHA991101073005075251002246Goof Troop                                        Inspector Goofy                                                      6068607ECC                              
ID FAMCHA991101075251075306000015Interactive bumper w/URL                                                                                                                                       
ID FAMCHA991101075306075316000010Generic ID - Hula Hoop                                                                                                                                         
PRCFAMCHA991101075316075329000013Morning Block menu background (flex time)                                                                                                                      
PROFAMCHA991101075329075356000027Recess - Today @ 5:30 pm (oct1)                                                                                                                                
PROFAMCHA991101075356075436000040Microsoap-Wednesday @ 6:30pm (oct)                                                                                                                             
PGRFAMCHA991101075436075804000328Art Attack - Hockey (WINTER)                                                                                           60686130                                
PROFAMCHA991101075804075845000041Honey I Shrunk the Kids (series oct) tonight @ 6pm                                                                                                             
PROFAMCHA991101075845075950000105Adventures of Gummi Bears-Next on Family (oct)                                                                                                                 
ID FAMCHA991101075950080000000010Presentation bumper - Magic of Disney                                                                                                                          
PROFAMCHA991101080000080005000005CC Disclaimer (oct) **DO NOT USE**                                                                                                                             
PGRFAMCHA991101080005082244002239Adventures of the Gummi Bears; The                He Who Laughs Last                                                   6068607ECC                              
ID FAMCHA991101082244082259000015Interactive bumper w/URL                                                                                                                                       
ID FAMCHA991101082259082309000010Generic ID - confetti                                                                                                                                          
PRCFAMCHA991101082309082318000009Morning Block menu background (flex time)                                                                                                                      
PROFAMCHA991101082318082403000045PB&J Otter - Next (oct 1)                                                                                                                                      
PROFAMCHA991101082403082433000030Madeline - 8:30am on Saturday (oct)                                                                                                                            
PGRFAMCHA991101082433082732000259Art Attack - Jack-In-The-Box                                                                                           60686130                                
PRCFAMCHA991101082732082832000100Contest - What's Franklin Doing Now?                                                                                                                           
PRCFAMCHA991101082832082907000035Little Lulu Show; The - Weekdays @ 1:00pm (oct1)                                                                                                               
PRCFAMCHA991101082907082940000033Hoze Houndz - Tuesday @ 6:30pm on Family (oct 1)                                                                                                               
ID FAMCHA991101082940083000000020Morning block open play pen                                                                                                                                    
PROFAMCHA991101083000083005000005CC Disclaimer (oct) **DO NOT USE**                                                                                                                             
PGRFAMCHA991101083005085335002330PB&J Otter                                        Chez Otter/Hooray for Peanut                                        A6028607ECC                              
ID FAMCHA991101085335085350000015Interactive bumper w/URL                                                                                                                                       
ID FAMCHA991101085350085400000010Generic ID - Ring around the rosie                                                                                                                             
PRCFAMCHA991101085400085409000009Morning Block menu background (flex time)                                                                                                                      
PROFAMCHA991101085409085439000030Out of The Box - Monday, Wednesday, and Friday @ 1                                                                                                             
PROFAMCHA991101085439085514000035Lion King's Timon & Pumbaa - wkdays @ noon (OCT 1)                                                                                                             
PRCFAMCHA991101085514085614000100Contest - What's Franklin Doing Now?                                                                                                                           
PGRFAMCHA991101085614085832000218Art Attack - Windmill                                                                                                  60688130                                
PRCFAMCHA991101085832085905000033Hoze Houndz - Tuesday @ 6:30pm on Family (oct 1)                                                                                                               
PRCFAMCHA991101085905085940000035Little Lulu Show; The - Tuesday @ 6:00pm (oct1)                                                                                                                
ID FAMCHA991101085940090000000020Morning block open play pen                                                                                                                                    
PROFAMCHA991101090000090005000005CC Disclaimer (oct) **DO NOT USE**                                                                                                                             
PGRFAMCHA991101090005092319002314Babar                                             Witch's Potion                                                C07575 1065607ECC                              
ID FAMCHA991101092319092324000005Generic ID - Couch 2                                                                                                                                           
PROFAMCHA991101092324092359000035Lion King's Timon & Pumbaa - wkdays @ noon (OCT 1)                                                                                                             
PROFAMCHA991101092359092440000041Honey I Shrunk the Kids (series oct) tonight @ 6pm                                                                                                             
ID FAMCHA991101092440092500000020Morning block open play pen                                                                                                                                    
PROFAMCHA991101092500092505000005CC Disclaimer (oct) **DO NOT USE**                                                                                                                             
PGRFAMCHA991101092505094840002335Nilus The Sandman                                 Dream Doors                                                   B06994 1065607ECC                              
ID FAMCHA991101094840094845000005Generic ID - Couch 1                                                                                                                                           
PROFAMCHA991101094845094906000021Recess - Today @ 5:30 pm (oct1)                                                                                                                                
PRCFAMCHA991101094906095006000100Contest - What's Franklin Doing Now?                                                                                                                           
PRCFAMCHA991101095006095040000034Misguided Angels-Tonight @ 6:45pm (oct1)                                                                                                                       
ID FAMCHA991101095040095100000020Morning block open play pen                                                                                                                                    
PROFAMCHA991101095100095105000005CC Disclaimer (oct) **DO NOT USE**                                                                                                                             
PGRFAMCHA991101095105101740002635Katie And Orbie                                   The New Baby/Leaky Taps/Orbits                                C12449 1065607ECC                              
ID FAMCHA991101101740101745000005Generic ID - soccer **DO NOT USE**                                                                                                                             
PROFAMCHA991101101745101750000005CC Disclaimer (oct) **DO NOT USE**                                                                                                                             
PGRFAMCHA991101101750104214002424Billy The Cat                                     Monkey Business                                               B27656A1065607ECC                              
ID FAMCHA991101104214104219000005Generic ID - Fingerpaint                                                                                                                                       
PROFAMCHA991101104219104240000021Recess - Today @ 5:30 pm (oct1)                                                                                                                                
ID FAMCHA991101104240104300000020Morning block open play pen                                                                                                                                    
PROFAMCHA991101104300104305000005CC Disclaimer (oct) **DO NOT USE**                                                                                                                             
PGRFAMCHA991101104305110715002410Busy World Of Richard Scarry; The                 Daylight Savings/Eager Beaver's/Pickle Car Wash               P24317 1065607ECC                              
ID FAMCHA991101110715110725000010Generic ID - Family w/dog                                                                                                                                      
PROFAMCHA991101110725110740000015Doug - Weekdays @ 5:00pm (oct1)                                                                                                                                
ID FAMCHA991101110740110800000020Morning block open play pen                                                                                                                                    
PGRFAMCHA991101110800112805002005Art Attack                                        1-056                                                                60686110                                
ID FAMCHA991101112805112820000015Interactive bumper w/URL                                                                                                                                       
ID FAMCHA991101112820112830000010Generic ID - Ring around the rosie                                                                                                                             
PROFAMCHA991101112830112900000030Out of The Box - Next (oct1)                                                                                                                                   
PROFAMCHA991101112900112940000040Microsoap-Wednesday @ 6:30pm (oct)                                                                                                                             
ID FAMCHA991101112940113000000020Morning block open play pen                                                                                                                                    
PGRFAMCHA991101113000115250002250Out of the Box                                    Tube Town                                                            60686110                                
ID FAMCHA991101115250115305000015Interactive bumper w/URL                                                                                                                                       
ID FAMCHA991101115305115312000007Generic ID - Whisper                                                                                                                                           
PROFAMCHA991101115312115347000035Lion King's Timon & Pumbaa - next (OCT 1)                                                                                                                      
PROFAMCHA991101115347115428000041Honey I Shrunk the Kids (series oct) tonight @ 6pm                                                                                                             
PROFAMCHA991101115428115455000027Recess - Today @ 5:30 pm (oct1)                                                                                                                                
PGRFAMCHA991101115455115658000203Muppet Time - The Three Little Silly Bears - Beaut                                                                     30686130                                
PRCFAMCHA991101115658115758000100Contest - What's Franklin Doing Now?                                                                                                                           
PGRFAMCHA991101115758115855000057Frankenguy and the Professor - Hoola Hoop                                                                              60688130                                
PRCFAMCHA991101115855115928000033Hoze Houndz - Tuesday @ 6:30pm on Family (oct 1)                                                                                                               
PROFAMCHA991101115928115950000022Disney's One Too - Today @ 4:30 (Oct 1)                                                                                                                        
ID FAMCHA991101115950120002000012Presentation bumper - Magic of Disney                                                                                                                          
PROFAMCHA991101120002120007000005CC Disclaimer (oct) **DO NOT USE**                                                                                                                             
PGRFAMCHA991101120007122249002242Lion King's Timon & Pumbaa; The                   Klondike Con/Isle Find Out                                           6068607ECC                              
ID FAMCHA991101122249122304000015Interactive bumper w/URL                                                                                                                                       
ID FAMCHA991101122304122314000010Generic ID - soccer **DO NOT USE**                                                                                                                             
PRCFAMCHA991101122314122319000005Morning Block menu background (flex time)                                                                                                                      
PRCFAMCHA991101122319122354000035Little Lulu Show; The - Tuesday @ 6:00pm (oct1)                                                                                                                
PGRFAMCHA991101122354122808000414Art Attack - Fish                                                                                                      60686130                                
PRCFAMCHA991101122808122908000100Contest - What's Franklin Doing Now?                                                                                                                           
PROFAMCHA991101122908122943000035Lion King's Timon & Pumbaa - wkdays @ noon (OCT 1)                                                                                                             
ID FAMCHA991101122943122959000016Afternoon block pinball open **DO NOT USE**                                                                                                                    
PGRFAMCHA991101122959125517002518Clarissa                                          Parents Who Say No                                                   2068607B                                
ID FAMCHA991101125517125532000015Interactive bumper w/URL                                                                                                                                       
ID FAMCHA991101125532125542000010Generic ID - Pink inner tube                                                                                                                                   
PRCFAMCHA991101125542125617000035Little Lulu Show; The - Next (oct1)                                                                                                                            
PROFAMCHA991101125617125657000040Microsoap-Wednesday @ 6:30pm (oct)                                                                                                                             
PGRFAMCHA991101125657125808000111Mix Ups - Cat in the bag                                                                                               60688130                                
PGRFAMCHA991101125808125902000054Bill Nye - Power to the Plankton                                                                                       60688130                                
PROFAMCHA991101125902125944000042Zenon - Friday w/Billboard                                                                                                                                     
ID FAMCHA991101125944130000000016Afternoon block pinball open w/burp                                                                                                                            
PROFAMCHA991101130000130005000005CC Disclaimer (oct) **DO NOT USE**                                                                                                                             
PGRFAMCHA991101130005132337002332Little Lulu Show; The                             Polly Patrol/Money Problems                                   A20192A1055607ECC3                             
ID FAMCHA991101132337132352000015Interactive bumper w/URL                                                                                                                                       
ID FAMCHA991101132352132359000007Generic ID - Whisper                                                                                                                                           
PRCFAMCHA991101132359132429000030Franklin-next (oct 1)                                                                                                                                          
PROFAMCHA991101132429132514000045PB&J Otter - Tuesday and Thursday @ 11:30am (oct 1                                                                                                             
PRCFAMCHA991101132514132614000100Contest - What's Franklin Doing Now?                                                                                                                           
PGRFAMCHA991101132614132841000227Disney Moments - Dumbo-Song Of The Roustabouts                                                                         60688130                                
PROFAMCHA991101132841132903000022Disney's One Too - Today @ 4:30 (Oct 1)                                                                                                                        
PROFAMCHA991101132903132945000042Zenon - Friday w/Billboard                                                                                                                                     
ID FAMCHA991101132945133000000015Afternoon block pinball open **DO NOT USE**                                                                                                                    
PROFAMCHA991101133000133005000005CC Disclaimer (oct) **DO NOT USE**                                                                                                                             
PGRFAMCHA991101133005135258002253Franklin                                          Franklin the Copycat/Big Brother Franklin                     P02772A1065607ECC                              
ID FAMCHA991101135258135313000015Interactive bumper w/URL                                                                                                                                       
ID FAMCHA991101135313135323000010Generic ID - Family w/dog                                                                                                                                      
PRCFAMCHA991101135323135328000005Morning Block menu background (flex time)                                                                                                                      
PROFAMCHA991101135328135350000022Disney's One Too - Today @ 4:30 (Oct 1)                                                                                                                        
PRCFAMCHA991101135350135423000033Hoze Houndz - Tuesday @ 6:30pm on Family (oct 1)                                                                                                               
PGRFAMCHA991101135423135819000356Art Attack - Soccer Player                                                                                             60686130                                
PROFAMCHA991101135819135904000045PB&J Otter - Tuesday and Thursday @ 11:30am (oct 1                                                                                                             
PROFAMCHA991101135904135939000035Lion King's Timon & Pumbaa - today @ 4:00pm (OCT 1                                                                                                             
ID FAMCHA991101135939135954000015Afternoon block pinball open **DO NOT USE**                                                                                                                    
PGRFAMCHA991101135954142922002928Art Attack                                        007/008                                                              60686110                                
ID FAMCHA991101142922142927000005Generic ID - soccer **DO NOT USE**                                                                                                                             
PROFAMCHA991101142927142944000017Hercules - Today @ 4:30 pm (Oct 1)                                                                                                                             
ID FAMCHA991101142944142954000010Presentation bumper - Magic of Disney                                                                                                                          
PROFAMCHA991101142954142959000005CC Disclaimer (oct) **DO NOT USE**                                                                                                                             
PGRFAMCHA991101142959145243002244Darkwing Duck                                     Up, Up And Awry                                                      6068607ECC                              
ID FAMCHA991101145243145258000015Interactive bumper w/URL                                                                                                                                       
ID FAMCHA991101145258145313000015Generic ID - confetti                                                                                                                                          
PROFAMCHA991101145313145355000042Zenon - Friday w/Billboard                                                                                                                                     
PROFAMCHA991101145355145436000041Honey I Shrunk the Kids (series oct) tonight @ 6pm                                                                                                             
PROFAMCHA991101145436145506000030So Weird - Friday @ 7:00 pm (Oct 1)                                                                                                                            
PGRFAMCHA991101145506145603000057Frankenguy and the Professor - wheels                                                                                  60688130                                
PGRFAMCHA991101145603145838000235Art Attack - Car Bike                                                                                                  60686130                                
PRCFAMCHA991101145838145912000034Misguided Angels-Tonight @ 6:45pm (oct1)                                                                                                                       
PROFAMCHA991101145912145944000032Sherlock Holmes - Tonight @ midnight (oct)                                                                                                                     
ID FAMCHA991101145944145954000010Presentation bumper - Magic of Disney                                                                                                                          
PROFAMCHA991101145954145959000005CC Disclaimer (oct) **DO NOT USE**                                                                                                                             
PGRFAMCHA991101145959152240002241Goof Troop                                        Shake, Rattle & Goof                                                 6068607ECC                              
ID FAMCHA991101152240152255000015Interactive bumper w/URL                                                                                                                                       
ID FAMCHA991101152255152305000010Generic ID - Ring around the rosie                                                                                                                             
PROFAMCHA991101152305152320000015Disney's One Too - today @ 4:30 (Oct 1)                                                                                                                        
PROFAMCHA991101152320152400000040Microsoap-Wednesday @ 6:30pm (oct)                                                                                                                             
PROFAMCHA991101152400152424000024So Weird - Friday @ 7:00 pm (Oct 1)                                                                                                                            
PGRFAMCHA991101152424152828000404Art Attack - Gnome (HALLOWEEN)                                                                                         60686130                                
PRCFAMCHA991101152828152902000034Misguided Angels-Tonight @ 6:45pm (oct1)                                                                                                                       
PROFAMCHA991101152902152944000042Zenon - Friday w/Billboard                                                                                                                                     
ID FAMCHA991101152944152956000012Presentation bumper - Magic of Disney                                                                                                                          
PROFAMCHA991101152956153001000005CC Disclaimer (oct) **DO NOT USE**                                                                                                                             
PGRFAMCHA991101153001155238002237Disney's Aladdin                                  Hero With A Thousand Feathers                                        6068607ECC                              
ID FAMCHA991101155238155253000015Interactive bumper w/URL                                                                                                                                       
ID FAMCHA991101155253155303000010Generic ID - soccer **DO NOT USE**                                                                                                                             
PROFAMCHA991101155303155338000035Lion King's Timon & Pumbaa - next (OCT 1)                                                                                                                      
PROFAMCHA991101155338155420000042Zenon - Friday w/Billboard                                                                                                                                     
PGRFAMCHA991101155420155531000111Mix Ups - Spring cleaning                                                                                              60688130                                
PGRFAMCHA991101155531155807000236Art Attack - Frog                                                                                                      60686130                                
PRCFAMCHA991101155807155840000033Hoze Houndz - Tuesday @ 6:30pm on Family (oct 1)                                                                                                               
PROFAMCHA991101155840155912000032Sherlock Holmes - Tonight @ midnight (oct)                                                                                                                     
PRCFAMCHA991101155912155946000034Misguided Angels-Tonight @ 6:45pm (oct1)                                                                                                                       
ID FAMCHA991101155946155957000011Presentation bumper - Magic of Disney                                                                                                                          
PROFAMCHA991101155957160002000005CC Disclaimer (oct) **DO NOT USE**                                                                                                                             
PGRFAMCHA991101160002162243002241Lion King's Timon & Pumbaa; The                   Wide Awake in Wonderland/Zazu's Off By One Day                       6068607ECC                              
ID FAMCHA991101162243162258000015Interactive bumper w/URL                                                                                                                                       
ID FAMCHA991101162258162305000007Generic ID - Whisper                                                                                                                                           
PROFAMCHA991101162305162327000022Disney's One Too - Next (Oct 1)                                                                                                                                
PROFAMCHA991101162327162357000030Get Warped Fridays - Starts at 6pm on Friday (oct)                                                                                                             
PROFAMCHA991101162357162438000041Honey I Shrunk the Kids (series oct) tonight @ 6pm                                                                                                             
PGRFAMCHA991101162438162549000111Mix Ups - Switch play                                                                                                  60688130                                
PGRFAMCHA991101162549162826000237Muppet Time - Huffy Monster - Piano Lesson                                                                             30686130                                
PRCFAMCHA991101162826162900000034Misguided Angels-Tonight @ 6:45pm (oct1)                                                                                                                       
PROFAMCHA991101162900162942000042Zenon - Friday w/Billboard                                                                                                                                     
ID FAMCHA991101162942162957000015Afternoon block pinball open w/burp                                                                                                                            
PROFAMCHA991101162957163042000045Disney's One Too - Opening                                                                                                                                     
PGRFAMCHA991101163042165343002301Disney's Hercules                                 Hercules And The Son Of Poseidon                                     6028607ECC                              
ID FAMCHA991101165343165358000015Interactive bumper w/URL                                                                                                                                       
ID FAMCHA991101165358165403000005Generic ID - Bubbles                                                                                                                                           
PROFAMCHA991101165403165418000015Doug - Next (oct1)                                                                                                                                             
PROFAMCHA991101165418165450000032Sherlock Holmes - Tonight @ midnight (oct)                                                                                                                     
PGRFAMCHA991101165450165511000021Doug Sketches - A Very Expensive Moment with Bud D                                                                     60286130                                
PRCFAMCHA991101165511165545000034Misguided Angels-Tonight @ 6:45pm (oct1)                                                                                                                       
PGRFAMCHA991101165545165606000021Doug Sketches - Doug Opens the Door (includes blac                                                                     60686130                                
PROFAMCHA991101165606165636000030So Weird - Friday @ 7:00 pm (Oct 1)                                                                                                                            
PGRFAMCHA991101165636165738000102Disney Moments-Steamboat Willie-Mickey Steers Boat                                                                     60688130                                
PGRFAMCHA991101165738165759000021Doug Sketches - Judy and her Giant Egg                                                                                 60686130                                
PROFAMCHA991101165759165839000040Microsoap-Wednesday @ 6:30pm (oct)                                                                                                                             
PGRFAMCHA991101165839165900000021Doug Sketches - Skunky's Word of the Day                                                                               60686130                                
PROFAMCHA991101165900165943000043Zenon - Friday w/Billboard                                                                                                                                     
ID FAMCHA991101165943165959000016Afternoon block pinball open w/burp                                                                                                                            
PROFAMCHA991101165959170044000045Disney's One Too - Opening                                                                                                                                     
PGRFAMCHA991101170044172309002225Disney's Doug                                     Doug's Dream House                                                   6028607E                                
ID FAMCHA991101172309172324000015Interactive bumper w/URL                                                                                                                                       
ID FAMCHA991101172324172339000015Generic ID - confetti                                                                                                                                          
PROFAMCHA991101172339172406000027Recess - Next (oct1)                                                                                                                                           
PRCFAMCHA991101172406172454000048Ripley's BION - Fridays @ 6:00pm (oct1)                                                                                                                        
PGRFAMCHA991101172454172515000021Recess Sketches - Gretchen's Inventions - Can Open                                                                     60686130                                
PROFAMCHA991101172515172550000035Lion King's Timon & Pumbaa - wkdays @ noon (OCT 1)                                                                                                             
PGRFAMCHA991101172550172611000021Recess Sketches - Mickey's World Record - Midget L                                                                     60686130                                
PGRFAMCHA991101172611172708000057Frankenguy and the Professor - Hungry                                                                                  60688130                                
PROFAMCHA991101172708172750000042Gargoyles-Tonight @ 11:30 pm (Oct 1)                                                                                                                           
PGRFAMCHA991101172750172811000021Recess Sketches - The Assignment - African Beads                                                                       60286130                                
PROFAMCHA991101172811172841000030So Weird - Friday @ 7:00 pm (Oct 1)                                                                                                                            
PGRFAMCHA991101172841172902000021Recess Sketches - The Big Kick - Meteor                                                                                60286130                                
PROFAMCHA991101172902172948000046Zenon - Friday w/Billboard                                                                                                                                     
ID FAMCHA991101172948173003000015Afternoon block pinball open **DO NOT USE**                                                                                                                    
PROFAMCHA991101173003173048000045Disney's One Too - Opening                                                                                                                                     
PGRFAMCHA991101173048175323002235Disney's Recess                                   First Name Ashley/To Finster With Love                               6068607E                                
ID FAMCHA991101175323175338000015Interactive bumper w/URL                                                                                                                                       
ID FAMCHA991101175338175348000010Generic ID - soccer **DO NOT USE**                                                                                                                             
PRCFAMCHA991101175348175353000005Morning Block menu background (flex time)                                                                                                                      
PROFAMCHA991101175353175434000041Honey I Shrunk the Kids (series oct) next                                                                                                                      
PROFAMCHA991101175434175516000042Zenon - Friday w/Billboard                                                                                                                                     
PGRFAMCHA991101175516175613000057Frankenguy and the Professor - Hoola Hoop                                                                              60688130                                
PGRFAMCHA991101175613175754000141Mix Ups - Mixed up messages                                                                                            60688130                                
PROFAMCHA991101175754175829000035Lion King's Timon & Pumbaa - wkdays @ noon (OCT 1)                                                                                                             
PROFAMCHA991101175829175909000040Microsoap-Wednesday @ 6:30pm (oct)                                                                                                                             
PROFAMCHA991101175909175939000030Get Warped Fridays - Starts at 6pm on Friday (oct)                                                                                                             
ID FAMCHA991101175939175959000020Prime time open count down                                                                                                                                     
PGRFAMCHA991101175959184241004242Disney's Honey, I Shrunk The Kids: The TV Show    They Call Me the Space Cowboy                                        6028807B                                
ID FAMCHA991101184241184256000015Interactive bumper w/URL                                                                                                                                       
ID FAMCHA991101184256184301000005Generic ID - Couch 2                                                                                                                                           
PRCFAMCHA991101184301184335000034Misguided Angels-Next (oct1)                                                                                                                                   
PRCFAMCHA991101184335184357000022Are You Afraid of the Dark - Tonight @ 7:30pm (oct                                                                                                             
PROFAMCHA991101184357184439000042Zenon - Friday w/Billboard                                                                                                                                     
ID FAMCHA991101184439184459000020Prime time open count down                                                                                                                                     
PROFAMCHA991101184459184504000005CC Disclaimer (oct) **DO NOT USE**                                                                                                                             
PGRFAMCHA991101184504190714002210Misguided Angels                                  Unchained Felony                                              A29545 1065807BCC                              
ID FAMCHA991101190714190719000005Generic ID - soccer **DO NOT USE**                                                                                                                             
PROFAMCHA991101190719190724000005CC Disclaimer (oct) **DO NOT USE**                                                                                                                             
PGRFAMCHA991101190724192931002207Dinosaurs                                         The Mighty Megalosaurus                                              6068807BCC                              
ID FAMCHA991101192931192936000005Generic ID - Fingerpaint                                                                                                                                       
PRCFAMCHA991101192936192949000013Morning Block menu background (flex time)                                                                                                                      
ID FAMCHA991101192949192959000010Prime time open top of hour                                                                                                                                    
PGRFAMCHA991101192959195423002424Are You Afraid Of The Dark?                       The Tale of the Curious Camera                                SR0304 1026807A                                
ID FAMCHA991101195423195438000015Interactive bumper w/URL                                                                                                                                       
ID FAMCHA991101195438195443000005Generic ID - Bubbles                                                                                                                                           
PROFAMCHA991101195443195525000042Zenon - Friday w/Billboard                                                                                                                                     
PROFAMCHA991101195525195557000032Sherlock Holmes - Tonight @ midnight (oct)                                                                                                                     
PROFAMCHA991101195557195632000035Lion King's Timon & Pumbaa - wkdays @ noon (OCT 1)                                                                                                             
PGRFAMCHA991101195632195729000057Frankenguy and the Professor - black and white                                                                         60688130                                
PRCFAMCHA991101195729195817000048Ripley's BION - Fridays @ 6:00pm (oct1)                                                                                                                        
PROFAMCHA991101195817195859000042Gargoyles-Tonight @ 11:30 pm (Oct 1)                                                                                                                           
PROFAMCHA991101195859195939000040Microsoap-Wednesday @ 6:30pm (oct)                                                                                                                             
ID FAMCHA991101195939195959000020Move open family size movie                                                                                                                                    
PROFAMCHA991101195959200006000007Rating - G (oct )                                                                                                                                              
PGRFAMCHA991101200006212829012823Sesame Street Presents: Follow That Bird                                                                              A2068607D                                
ID FAMCHA991101212829212836000007Generic ID - Whisper                                                                                                                                           
PROFAMCHA991101212836212917000041Honey I Shrunk the Kids (series oct) Mon & Thurs @                                                                                                             
PROFAMCHA991101212917212939000022Hercules - Weekdays @ 4:30 pm (Oct 1)                                                                                                                          
ID FAMCHA991101212939212959000020Move open family size movie                                                                                                                                    
PROFAMCHA991101212959213006000007Rating - G (oct )                                                                                                                                              
ID FAMCHA991101213006213016000010Presentation bumper - Magic of Disney                                                                                                                          
PGRFAMCHA991101213016232113015057No Deposit, No Return                                                                                                 A6068807CCC                              
ID FAMCHA991101232113232128000015Interactive bumper w/URL                                                                                                                                       
ID FAMCHA991101232128232138000010Generic ID - Ring around the rosie                                                                                                                             
PROFAMCHA991101232138232220000042Zenon - Friday w/Billboard                                                                                                                                     
PRCFAMCHA991101232220232253000033Hoze Houndz - Tuesday @ 6:30pm on Family (oct 1)                                                                                                               
PROFAMCHA991101232253232312000019So Weird - Friday @ 7:00 pm (oct1 )                                                                                                                            
PGRFAMCHA991101232312232821000509Plasmo #1                                                                                                              70688130                                
PRCFAMCHA991101232821232843000022Are You Afraid of the Dark - Weeknights @ 7:30pm (                                                                                                             
PRCFAMCHA991101232843232917000034Misguided Angels-Monday and Thursday @ 6:45pm (oct                                                                                                             
PROFAMCHA991101232917232949000032Sherlock Holmes - Tonight @ midnight (oct)                                                                                                                     
ID FAMCHA991101232949232959000010Prime time open top of hour                                                                                                                                    
PGRFAMCHA991101232959235256002257Gargoyles                                         Legion                                                               6028607E                                
ID FAMCHA991101235256235311000015Interactive bumper w/URL                                                                                                                                       
ID FAMCHA991101235311235326000015Generic ID - confetti                                                                                                                                          
PROFAMCHA991101235326235358000032Sherlock Holmes - Next (oct)                                                                                                                                   
PROFAMCHA991101235358235428000030So Weird - Friday @ 7:00 pm (Oct 1)                                                                                                                            
PRCFAMCHA991101235428235502000034Misguided Angels-Monday and Thursday @ 6:45pm (oct                                                                                                             
PGRFAMCHA991101235502235835000333MV Disney - Reflection (oct 1)                                                                                         60688130                                
PRCFAMCHA991101235835235857000022Are You Afraid of the Dark - Weeknights @ 7:30pm (                                                                                                             
PROFAMCHA991101235857235939000042Zenon - Friday w/Billboard                                                                                                                                     
ID FAMCHA991101235939235959000020Prime time open count down                                                                                                                                     
PROFAMCHA991101235959000004000005CC Disclaimer (oct) **DO NOT USE**                                                                                                                             
PGRFAMCHA991101000004002217002213Sherlock Holmes In The 22nd Century               Man with the Twisted Lip                                             6028607E                                
ID FAMCHA991101002217002232000015Interactive bumper w/URL                                                                                                                                       
ID FAMCHA991101002232002237000005Generic ID - Couch 2                                                                                                                                           
PROFAMCHA991101002237002319000042Zenon - Friday w/Billboard                                                                                                                                     
PGRFAMCHA991101002319002828000509Plasmo #13                                                                                                             70688130                                
PROFAMCHA991101002828002909000041Honey I Shrunk the Kids (series oct) Mon & Thurs @                                                                                                             
PROFAMCHA991101002909002942000033Get Warped Fridays - Starts at 6pm on Friday (oct)                                                                                                             
ID FAMCHA991101002942003002000020Prime time open count down                                                                                                                                     
PGRFAMCHA991101003002005447002445Spellbinder: The Land Of The Dragon Lord          1-030                                                                7068807A                                
ID FAMCHA991101005447005502000015Interactive bumper w/URL                                                                                                                                       
ID FAMCHA991101005502005507000005Generic ID - Couch 2                                                                                                                                           
PROFAMCHA991101005507005549000042Zenon - Friday w/Billboard                                                                                                                                     
PRCFAMCHA991101005549005611000022Are You Afraid of the Dark - Weeknights @ 7:30pm (                                                                                                             
PGRFAMCHA991101005611005945000334MV Disney - Forever and ever (preschool)                                                                               60688130                                
PGRFAMCHA991101005945010056000111Mix Ups - Switch play                                                                                                  60688130                                
PRCFAMCHA991101010056010130000034Misguided Angels-Monday and Thursday @ 6:45pm (oct                                                                                                             
PROFAMCHA991101010130010211000041Honey I Shrunk the Kids (series oct) Mon & Thurs @                                                                                                             
SO FAMCHA991101010211010223000012Sign Off (oct 1)                                                                                                                                               
OFFFAMCHA991101010223043000032737                                                                                                                                                               
OFFFAMCHA991102043000060000013000                                                                                                                                                               
SO FAMCHA991102060000060011000011Sign On (oct 1)                                                                                                                                                
PROFAMCHA991102060011060016000005CC Disclaimer (oct) **DO NOT USE**                                                                                                                             
PGRFAMCHA991102060016062417002401Hello Mrs. Cherrywinkle                           Missing Cookies                                               C14683A1065607ACC                              
ID FAMCHA991102062417062432000015Interactive bumper w/URL                                                                                                                                       
ID FAMCHA991102062432062442000010Generic ID - soccer **DO NOT USE**                                                                                                                             
PRCFAMCHA991102062442062451000009Morning Block menu background (flex time)                                                                                                                      
PROFAMCHA991102062451062556000105Adventures of Gummi Bears-Today @ 8am on Family (o                                                                                                             
PROFAMCHA991102062556062641000045PB&J Otter - Tuesday and Thursday @ 11:30am (oct 1                                                                                                             
PRCFAMCHA991102062641062741000100Contest - What's Franklin Doing Now?                                                                                                                           
PGRFAMCHA991102062741062838000057Frankenguy and the Professor - black and white                                                                         60688130                                
PROFAMCHA991102062838062905000027Recess - Today @ 5:30 pm (oct1)                                                                                                                                
PRCFAMCHA991102062905062940000035Little Lulu Show; The - Tonight @ 6:00pm (oct1)                                                                                                                
ID FAMCHA991102062940063000000020Morning block open play pen                                                                                                                                    
PROFAMCHA991102063000063005000005CC Disclaimer (oct) **DO NOT USE**                                                                                                                             
PGRFAMCHA991102063005065415002410Busy World Of Richard Scarry; The                 Triple A Deliveries/Stanley's Photo/Lost In Swamp             P24318 1065607ECC                              
ID FAMCHA991102065415065430000015Interactive bumper w/URL                                                                                                                                       
ID FAMCHA991102065430065440000010Generic ID - Ring around the rosie                                                                                                                             
PRCFAMCHA991102065440065450000010Morning Block menu background (flex time)                                                                                                                      
PRCFAMCHA991102065450065520000030Franklin-next (oct 1)                                                                                                                                          
PROFAMCHA991102065520065605000045PB&J Otter - Tuesday and Thursday @ 11:30am (oct 1                                                                                                             
PRCFAMCHA991102065605065705000100Contest - What's Franklin Doing Now?                                                                                                                           
PGRFAMCHA991102065705065805000100Richard Scarry (ii) Camping                                                                                     P19592 10656130                                
PROFAMCHA991102065805065835000030Madeline - 8:30am on Saturday (oct)                                                                                                                            
PROFAMCHA991102065835065940000105Adventures of Gummi Bears-Today @ 8am on Family (o                                                                                                             
ID FAMCHA991102065940070000000020Morning block open play pen                                                                                                                                    
PROFAMCHA991102070000070005000005CC Disclaimer (oct) **DO NOT USE**                                                                                                                             
PGRFAMCHA991102070005072258002253Franklin                                          Franklin and the Grump/Franklin's Promise                     P02772A1025607ECC                              
ID FAMCHA991102072258072313000015Interactive bumper w/URL                                                                                                                                       
ID FAMCHA991102072313072318000005Generic ID - Fingerpaint                                                                                                                                       
PRCFAMCHA991102072318072327000009Morning Block menu background (flex time)                                                                                                                      
PROFAMCHA991102072327072432000105Adventures of Gummi Bears-Today @ 8am on Family (o                                                                                                             
PROFAMCHA991102072432072512000040Microsoap-Wednesday @ 6:30pm (oct)                                                                                                                             
PGRFAMCHA991102072512072727000215Disney Moments - Bambi-Bambi Is Born                                                                                   60688130                                
PRCFAMCHA991102072727072827000100Contest - What's Franklin Doing Now?                                                                                                                           
PROFAMCHA991102072827072842000015Doug - Today @ 5:00 pm (oct1)                                                                                                                                  
PROFAMCHA991102072842072917000035Lion King's Timon & Pumbaa - wkdays @ noon (OCT 1)                                                                                                             
PRCFAMCHA991102072917072950000033Hoze Houndz - Tonight @ 6:30pm on Family (oct 1)                                                                                                               
ID FAMCHA991102072950073000000010Presentation bumper - Magic of Disney                                                                                                                          
PROFAMCHA991102073000073005000005CC Disclaimer (oct) **DO NOT USE**                                                                                                                             
PGRFAMCHA991102073005075253002248Goof Troop                                        Terminal Pete                                                        6068607ECC                              
ID FAMCHA991102075253075308000015Interactive bumper w/URL                                                                                                                                       
ID FAMCHA991102075308075313000005Generic ID - Couch 1                                                                                                                                           
PRCFAMCHA991102075313075321000008Morning Block menu background (flex time)                                                                                                                      
PROFAMCHA991102075321075426000105Adventures of Gummi Bears-Next on Family (oct)                                                                                                                 
PROFAMCHA991102075426075443000017Hercules - Today @ 4:30 pm (Oct 1)                                                                                                                             
PGRFAMCHA991102075443075758000315Art Attack - Sailing Ship                                                                                              60686130                                
PRCFAMCHA991102075758075858000100Contest - What's Franklin Doing Now?                                                                                                                           
PROFAMCHA991102075858075928000030Out of The Box - Monday, Wednesday, and Friday @ 1                                                                                                             
PROFAMCHA991102075928075950000022Disney's One Too - Today @ 4:30 (Oct 1)                                                                                                                        
ID FAMCHA991102075950080000000010Presentation bumper - Magic of Disney                                                                                                                          
PROFAMCHA991102080000080005000005CC Disclaimer (oct) **DO NOT USE**                                                                                                                             
PGRFAMCHA991102080005082244002239Adventures of the Gummi Bears; The                Sweet & Sour Gruffi/Little Bears Lost                                6068607ECC                              
ID FAMCHA991102082244082259000015Interactive bumper w/URL                                                                                                                                       
ID FAMCHA991102082259082309000010Generic ID - confetti                                                                                                                                          
PRCFAMCHA991102082309082319000010Morning Block menu background (flex time)                                                                                                                      
PROFAMCHA991102082319082349000030Out of The Box - Next (oct1)                                                                                                                                   
PROFAMCHA991102082349082419000030Crash Zone - Saturday @10 am                                                                                                                                   
PRCFAMCHA991102082419082519000100Contest - What's Franklin Doing Now?                                                                                                                           
PGRFAMCHA991102082519082845000326Music Break - Dinosaurs - I'm the Baby                                                                                 60688130                                
PROFAMCHA991102082845082907000022Disney's One Too - Today @ 4:30 (Oct 1)                                                                                                                        
PRCFAMCHA991102082907082940000033Hoze Houndz - Tonight @ 6:30pm on Family (oct 1)                                                                                                               
ID FAMCHA991102082940083000000020Morning block open play pen                                                                                                                                    
PGRFAMCHA991102083000085230002230Out of the Box                                    High Fliers                                                          60686110                                
ID FAMCHA991102085230085245000015Interactive bumper w/URL                                                                                                                                       
ID FAMCHA991102085245085300000015Generic ID - confetti                                                                                                                                          
PRCFAMCHA991102085300085310000010Morning Block menu background (flex time)                                                                                                                      
PROFAMCHA991102085310085345000035Lion King's Timon & Pumbaa - wkdays @ noon (OCT 1)                                                                                                             
PRCFAMCHA991102085345085445000100Contest - What's Franklin Doing Now?                                                                                                                           
PGRFAMCHA991102085445085825000340Art Attack - Tape Batman                                                                                               60686130                                
PROFAMCHA991102085825085905000040Microsoap-Wednesday @ 6:30pm (oct)                                                                                                                             
PRCFAMCHA991102085905085940000035Little Lulu Show; The - Weekdays @ 1:00pm (oct1)                                                                                                               
ID FAMCHA991102085940090000000020Morning block open play pen                                                                                                                                    
PROFAMCHA991102090000090005000005CC Disclaimer (oct) **DO NOT USE**                                                                                                                             
PGRFAMCHA991102090005092318002313Babar                                             A Charmed Life                                                C07575 1065607ECC                              
ID FAMCHA991102092318092333000015Interactive bumper w/URL                                                                                                                                       
ID FAMCHA991102092333092338000005Generic ID - Marbles                                                                                                                                           
PRCFAMCHA991102092338092348000010Morning Block menu background (flex time)                                                                                                                      
PROFAMCHA991102092348092405000017Hercules - Today @ 4:30 pm (Oct 1)                                                                                                                             
PROFAMCHA991102092405092440000035Lion King's Timon & Pumbaa - wkdays @ noon (OCT 1)                                                                                                             
ID FAMCHA991102092440092500000020Morning block open play pen                                                                                                                                    
PROFAMCHA991102092500092505000005CC Disclaimer (oct) **DO NOT USE**                                                                                                                             
PGRFAMCHA991102092505094840002335Nilus The Sandman                                 Someone Just Like Me                                          B06995 1065607ECC                              
ID FAMCHA991102094840094855000015Interactive bumper w/URL                                                                                                                                       
ID FAMCHA991102094855094900000005Generic ID - Couch 1                                                                                                                                           
PROFAMCHA991102094900095000000100Morning Block - Generic                                                                                                                                        
PROFAMCHA991102095000095040000040Microsoap-Wednesday @ 6:30pm (oct)                                                                                                                             
ID FAMCHA991102095040095100000020Morning block open play pen                                                                                                                                    
PROFAMCHA991102095100095105000005CC Disclaimer (oct) **DO NOT USE**                                                                                                                             
PGRFAMCHA991102095105101740002635Katie And Orbie                                   Hopscotch/The Paddle Boat/Everybody Gets The Blues            C12449 1065607ECC                              
ID FAMCHA991102101740101745000005Generic ID - Fingerpaint                                                                                                                                       
PROFAMCHA991102101745101750000005CC Disclaimer (oct) **DO NOT USE**                                                                                                                             
PGRFAMCHA991102101750104212002422Billy The Cat                                     Snowbound                                                     B27657A1065607ECC                              
ID FAMCHA991102104212104219000007Generic ID - Whisper                                                                                                                                           
PROFAMCHA991102104219104240000021Recess - Today @ 5:30 pm (oct1)                                                                                                                                
ID FAMCHA991102104240104300000020Morning block open play pen                                                                                                                                    
PROFAMCHA991102104300104305000005CC Disclaimer (oct) **DO NOT USE**                                                                                                                             
PGRFAMCHA991102104305110715002410Busy World Of Richard Scarry; The                 Mr. Fixit's Super/Cahuchu's Magic/Mr. Bean's Resta            P24319 1065607ECC                              
ID FAMCHA991102110715110722000007Generic ID - Whisper                                                                                                                                           
PROFAMCHA991102110722110739000017Hercules - Today @ 4:30 pm (Oct 1)                                                                                                                             
ID FAMCHA991102110739110759000020Morning block open play pen                                                                                                                                    
PGRFAMCHA991102110759112758001959Art Attack                                        1-058                                                                60686110                                
ID FAMCHA991102112758112813000015Interactive bumper w/URL                                                                                                                                       
ID FAMCHA991102112813112820000007Generic ID - Whisper                                                                                                                                           
PROFAMCHA991102112820112905000045PB&J Otter - Next (oct 1)                                                                                                                                      
PROFAMCHA991102112905112940000035Lion King's Timon & Pumbaa - wkdays @ noon (OCT 1)                                                                                                             
ID FAMCHA991102112940113000000020Morning block open play pen                                                                                                                                    
PROFAMCHA991102113000113005000005CC Disclaimer (oct) **DO NOT USE**                                                                                                                             
PGRFAMCHA991102113005115335002330PB&J Otter                                        Kid Court/A Frog Named Measels                                      A6028607ECC                              
ID FAMCHA991102115335115350000015Interactive bumper w/URL                                                                                                                                       
ID FAMCHA991102115350115405000015Generic ID - confetti                                                                                                                                          
PRCFAMCHA991102115405115415000010Morning Block menu background (flex time)                                                                                                                      
PROFAMCHA991102115415115450000035Lion King's Timon & Pumbaa - next (OCT 1)                                                                                                                      
PROFAMCHA991102115450115530000040Microsoap-Wednesday @ 6:30pm (oct)                                                                                                                             
PRCFAMCHA991102115530115630000100Contest - What's Franklin Doing Now?                                                                                                                           
PGRFAMCHA991102115630115855000225Art Attack - Snooker                                                                                                   60686130                                
PROFAMCHA991102115855115917000022Disney's One Too - Today @ 4:30 (Oct 1)                                                                                                                        
PRCFAMCHA991102115917115950000033Hoze Houndz - Tonight @ 6:30pm on Family (oct 1)                                                                                                               
ID FAMCHA991102115950120000000010Presentation bumper - Magic of Disney                                                                                                                          
PROFAMCHA991102120000120005000005CC Disclaimer (oct) **DO NOT USE**                                                                                                                             
PGRFAMCHA991102120005122246002241Lion King's Timon & Pumbaa; The                   Africa-Dabra!/I Don't Bolivia                                        6068607ECC                              
ID FAMCHA991102122246122301000015Interactive bumper w/URL                                                                                                                                       
ID FAMCHA991102122301122306000005Generic ID - Couch 2                                                                                                                                           
PRCFAMCHA991102122306122314000008Morning Block menu background (flex time)                                                                                                                      
PROFAMCHA991102122314122356000042Zenon - Friday w/Billboard                                                                                                                                     
PROFAMCHA991102122356122437000041Honey I Shrunk the Kids (series oct) Mon & Thurs @                                                                                                             
PRCFAMCHA991102122437122525000048Ripley's BION - Fridays @ 6:00pm (oct1)                                                                                                                        
PROFAMCHA991102122525122557000032Genius - Coming to Family Without Billboard                                                                                                                    
PGRFAMCHA991102122557122654000057Frankenguy and the Professor - pilot                                                                                   60688130                                
PROFAMCHA991102122654122744000050Rookie of the Year - Coming to Family (no billboar                                                                                                             
PRCFAMCHA991102122744122818000034Misguided Angels-Monday and Thursday @ 6:45pm (oct                                                                                                             
PRCFAMCHA991102122818122851000033Hoze Houndz - Tonight @ 6:30pm on Family (oct 1)                                                                                                               
PROFAMCHA991102122851122945000054Big - Saturday With Billboard                                                                                                                                  
ID FAMCHA991102122945123000000015Afternoon block pinball open **DO NOT USE**                                                                                                                    
PGRFAMCHA991102123000125518002518Clarissa                                          Cool Dad                                                             2068607B                                
ID FAMCHA991102125518125533000015Interactive bumper w/URL                                                                                                                                       
ID FAMCHA991102125533125543000010Generic ID - soccer **DO NOT USE**                                                                                                                             
PRCFAMCHA991102125543125552000009Morning Block menu background (flex time)                                                                                                                      
PRCFAMCHA991102125552125627000035Little Lulu Show; The - Next (oct1)                                                                                                                            
PROFAMCHA991102125627125721000054Big - Saturday With Billboard                                                                                                                                  
PRCFAMCHA991102125721125755000034Misguided Angels-Monday and Thursday @ 6:45pm (oct                                                                                                             
PROFAMCHA991102125755125814000019So Weird - Friday @ 7:00 pm (oct1 )                                                                                                                            
PROFAMCHA991102125814125831000017Hercules - Today @ 4:30 pm (Oct 1)                                                                                                                             
PROFAMCHA991102125831125903000032Sherlock Holmes - Tonight @ midnight (oct)                                                                                                                     
PROFAMCHA991102125903125945000042Zenon - Friday w/Billboard                                                                                                                                     
ID FAMCHA991102125945130000000015Afternoon block pinball open **DO NOT USE**                                                                                                                    
PROFAMCHA991102130000130005000005CC Disclaimer (oct) **DO NOT USE**                                                                                                                             
PGRFAMCHA991102130005132336002331Little Lulu Show; The                             No Pain, No Gain/Tragic Magic                                 A20193A1055607ECC3                             
ID FAMCHA991102132336132351000015Interactive bumper w/URL                                                                                                                                       
ID FAMCHA991102132351132401000010Generic ID - Hula Hoop                                                                                                                                         
PRCFAMCHA991102132401132431000030Franklin-next (oct 1)                                                                                                                                          
PROFAMCHA991102132431132521000050Rookie of the Year - Coming to Family (no billboar                                                                                                             
PROFAMCHA991102132521132601000040Microsoap-Wednesday @ 6:30pm (oct)                                                                                                                             
PROFAMCHA991102132601132642000041Honey I Shrunk the Kids (series oct) Mon & Thurs @                                                                                                             
PRCFAMCHA991102132642132742000100Contest - What's Franklin Doing Now?                                                                                                                           
PROFAMCHA991102132742132814000032Genius - Coming to Family Without Billboard                                                                                                                    
PROFAMCHA991102132814132829000015Doug - Today @ 5:00 pm (oct1)                                                                                                                                  
PRCFAMCHA991102132829132903000034Misguided Angels-Monday and Thursday @ 6:45pm (oct                                                                                                             
PROFAMCHA991102132903132945000042Zenon - Friday w/Billboard                                                                                                                                     
ID FAMCHA991102132945133000000015Afternoon block pinball open w/burp                                                                                                                            
PROFAMCHA991102133000133005000005CC Disclaimer (oct) **DO NOT USE**                                                                                                                             
PGRFAMCHA991102133005135258002253Franklin                                          Franklin and the Grump/Franklin's Promise                     P02772A1065607ECC                              
ID FAMCHA991102135258135313000015Interactive bumper w/URL                                                                                                                                       
ID FAMCHA991102135313135328000015Generic ID - confetti                                                                                                                                          
PRCFAMCHA991102135328135340000012Morning Block menu background (flex time)                                                                                                                      
PROFAMCHA991102135340135434000054Big - Saturday With Billboard                                                                                                                                  
PROFAMCHA991102135434135514000040Microsoap-Wednesday @ 6:30pm (oct)                                                                                                                             
PROFAMCHA991102135514135549000035Lion King's Timon & Pumbaa - today @ 4:00pm (OCT 1                                                                                                             
PROFAMCHA991102135549135631000042Zenon - Friday w/Billboard                                                                                                                                     
PGRFAMCHA991102135631135728000057Frankenguy and the Professor - Hungry                                                                                  60688130                                
PRCFAMCHA991102135728135801000033Hoze Houndz - Tonight @ 6:30pm on Family (oct 1)                                                                                                               
PROFAMCHA991102135801135833000032Genius - Coming to Family Without Billboard                                                                                                                    
PROFAMCHA991102135833135855000022Disney's One Too - Today @ 4:30 (Oct 1)                                                                                                                        
PROFAMCHA991102135855135945000050Rookie of the Year - Coming to Family (no billboar                                                                                                             
ID FAMCHA991102135945140000000015Afternoon block pinball open w/burp                                                                                                                            
PGRFAMCHA991102140000141951001951Art Attack                                        1-059                                                                60686110                                
ID FAMCHA991102141951142006000015Interactive bumper w/URL                                                                                                                                       
ID FAMCHA991102142006142016000010Generic ID - Bubbles                                                                                                                                           
PROFAMCHA991102142016142048000032Genius - Coming to Family Without Billboard                                                                                                                    
PROFAMCHA991102142048142123000035Lion King's Timon & Pumbaa - today @ 4:00pm (OCT 1                                                                                                             
PROFAMCHA991102142123142150000027Recess - Today @ 5:30 pm (oct1)                                                                                                                                
PGRFAMCHA991102142150142659000509Plasmo #3                                                                                                              70688130                                
PROFAMCHA991102142659142741000042Zenon - Friday w/Billboard                                                                                                                                     
PROFAMCHA991102142741142822000041Honey I Shrunk the Kids (series oct) Mon & Thurs @                                                                                                             
PRCFAMCHA991102142822142856000034Misguided Angels-Monday and Thursday @ 6:45pm (oct                                                                                                             
PROFAMCHA991102142856142950000054Big - Saturday With Billboard                                                                                                                                  
ID FAMCHA991102142950143000000010Presentation bumper - Magic of Disney                                                                                                                          
PROFAMCHA991102143000143005000005CC Disclaimer (oct) **DO NOT USE**                                                                                                                             
PGRFAMCHA991102143005145246002241Darkwing Duck                                     Life, The Negaverse And Everything                                   6068607ECC                              
