SO FAMCHA040601043000043011000011Sign On (oct 1)                                                                                                                                                
PROFAMCHA040601043011043020000009CC Disclaimer - FAST - Family (:08-:10)                                                                                     150                                
PGRFAMCHA040601043020045313002253Franklin                                          Gee Whiz Franklin/Franklin Can't Wait                         A53210A1065607ECC                              
PROFAMCHA040601045313045327000014PS - 01(PH) - WTP/KATIE/FRANKLIN (:14-:16)                                                                                  150                                
ID FAMCHA040601045327045337000010PS Playhouse AM Block Open (:10-:15)                                                                                        150                                
PROFAMCHA040601045337045345000008CC Disclaimer - FAST - Family.ca (:08-:10)                                                                                  150                                
PGRFAMCHA040601045345051623002238New Adventures of Winnie the Pooh; The            Cloud, Cloud Go Away/To Dream The Impossible Schem                   6068607ECC                              
PROFAMCHA040601051623051637000014PS - 02(PH) - KATIE/FRANKLIN/SOMETHING (:14-:16)                                                                            150                                
PRCFAMCHA040601051637051651000014Playhouse - HOZE HOUNDZ - Skater                                                                                            150                                
ID FAMCHA040601051651051701000010PS Playhouse AM Block Open (:10-:15)                                                                                        150                                
PROFAMCHA040601051701051710000009CC Disclaimer - FAST - Family.ca (:08-:10)                                                                                  150                                
PGRFAMCHA040601051710054345002635Katie And Orbie                                   Dinosaur Bones Aren't For Climbing/Dad Of The Mont            P16152A1065607E                                
PROFAMCHA040601054345054359000014PS - 03(PH) - FRANKLIN/SOMETHING/HOZE (:14-:16)                                                                             150                                
ID FAMCHA040601054359054409000010PS Playhouse AM Block Open (:10-:15)                                                                                        150                                
PROFAMCHA040601054409054419000010CC Disclaimer - FAST - Generic (:08-:10)                                                                                    150                                
PGRFAMCHA040601054419060712002253Franklin                                          Spring First/Plays Golf                                       A53211A1065607ECC                              
PROFAMCHA040601060712060727000015PS - 04(PH) - SOMETHING/HOZE/KNIGHT (:14-:16)                                                                               150                                
PRCFAMCHA040601060727060746000019Playhouse - FRANKLIN - Party                                                                                                150                                
ID FAMCHA040601060746060800000014PS Playhouse AM Block Open (:10-:15)                                                                                        150                                
PROFAMCHA040601060800060809000009CC Disclaimer - FAST - Family (:08-:10)                                                                                     150                                
PGRFAMCHA040601060809063040002231Something Else                                    Charm School/Birthday Surprise                                A69259A1065607ECC                              
PROFAMCHA040601063040063054000014PS - 05(PH) - HOZE/KNIGHT/NINJA (:14-:16)                                                                                   150                                
PROFAMCHA040601063054063119000025Hoze Houndz (Can't Fly) (PH) - Coming Up Next                                                                               150                                
INTFAMCHA040601063119063350000231MV Disney - Aloha E Komo Mai (Lilo & Stitch)                                                                           60688120                                
PROFAMCHA040601063350063450000100Playhouse (FUNTIMES) - (AM) - Today @ 8:30am                                                                          A     150                                
ID FAMCHA040601063450063500000010PS Playhouse AM Block Open (:10-:15)                                                                                        150                                
PROFAMCHA040601063500063510000010CC Disclaimer - FAST - Generic (:08-:10)                                                                                    150                                
PGRFAMCHA040601063510065745002235Hoze Houndz                                       Stardumb/Where's The Beef?                                    B34006A1065607ECC                              
PROFAMCHA040601065745065801000016PS - 06(PB) - KNIGHT/NINJA/GADGET (:14-:16)                                                                                 150                                
PROFAMCHA040601065801065831000030Mon Colle Knights - Coming Up                                                                                               150                                
PROFAMCHA040601065831065857000026Walk Like A Man (PP) - Premiering June 11 @ 7:30pm                                                                          150                                
PRCFAMCHA040601065857065932000035Power Box Block Promo (APR04) - (PB) - Coming Up N                                                                          150                                
PRCFAMCHA040601065932065948000016Radio Free Roscoe - Webthrow (Smog)                                                                                         150                                
ID FAMCHA040601065948070000000012Power Box Block Open (:12-:15)                                                                                              150                                
PROFAMCHA040601070000070009000009CC Disclaimer - FAST - Family.ca (:08-:10)                                                                                  150                                
PGRFAMCHA040601070009072136002127Mon Colle Knights                                 EPS # 1-008                                                         A6068607E                                
PROFAMCHA040601072136072152000016PS - 07(PB) - NINJA/GADGET/DALMATIANS (:14-:16)                                                                             150                                
PROFAMCHA040601072152072218000026Walk Like A Man (PP) - Premiering June 11 @ 7:30pm                                                                          150                                
PRCFAMCHA040601072218072253000035Power Box Block Promo (APR04) - (PB) - Mon - Fri @                                                                          150                                
INTFAMCHA040601072253072722000429Art Attack - Cowboy                                                                                                    60686120                                
PROFAMCHA040601072722072753000031Lizzie McGuire (MAY04) - (MD) - Today @ 5:35pm                                                                              150                                
INTFAMCHA040601072753072915000122Gagsters - Terrifying Tarantula                                                                                       A20686120                                
PROFAMCHA040601072915072945000030Gadget & The Gadgetinis - (PB) - Today @ 8am                                                                                150                                
ID FAMCHA040601072945073000000015Power Box Block Open (:12-:15)                                                                                              150                                
PGRFAMCHA040601073000075124002124Power Rangers Ninja Storm                         Scent of a Ranger                                                   A6068607E                                
PROFAMCHA040601075124075140000016PS - 08(PB) - GADGET/DALMATIANS/FRANKLIN (:14-:16)                                                                          150                                
PROFAMCHA040601075140075206000026Walk Like A Man (PP) - Premiering June 11 @ 7:30pm                                                                          150                                
PROFAMCHA040601075206075236000030Gadget & The Gadgetinis - (PB) - Coming Up                                                                                  150                                
PRCFAMCHA040601075236075311000035Power Box Block Promo (APR04) - (PB) - Tomorrow @                                                                           150                                
INTFAMCHA040601075311075358000047Harrisons; The - Beans (Power Box; MD 4pm; weeknig                                                                    A10626120                                
PROFAMCHA040601075358075428000030Recess (NOV2003) - Today @ 11:50am                                                                                          150                                
INTFAMCHA040601075428075910000442Art Attack - Bi-Plane II                                                                                               60686120                                
PROFAMCHA040601075910075944000034Fillmore (APR04) - (MD/L) - Today @ 12:15pm                                                                                 150                                
ID FAMCHA040601075944075959000015Power Box Block Open (:12-:15)                                                                                              150                                
PGRFAMCHA040601075959082212002213Gadget & the Gadgetinis                           EPS # 1-046                                                         A6068607E                                
PROFAMCHA040601082212082227000015PS - 09(PH) - DALMATIANS/FRANKLIN/WTP (:14-:16)                                                                             150                                
PROFAMCHA040601082227082253000026Disney's 101 Dalmatians (PH) - Coming Up Next                                                                               150                                
PROFAMCHA040601082253082353000100Playhouse (FUNTIMES) - (AM) - Coming Up Next                                                                          A     150                                
PRCFAMCHA040601082353082446000053Franklin (SOCCER) - (PH) - Today @ 8:55am                                                                                   150                                
INTFAMCHA040601082446082718000232MV Disney - With A Few Good Friends (CARLY SIMON)                                                                      60688120                                
PROFAMCHA040601082718082800000042Jojo's Circus - (CRAB) - (PH/AM) - Today @ 9:45am                                                                           150                                
PRCFAMCHA040601082800082906000106Playhouse - WINNIE THE POOH - Christopher Robin                                                                             150                                
PROFAMCHA040601082906082950000044Stanley - (SONG) - (PH) - Today @ 10:10am                                                                                   150                                
ID FAMCHA040601082950083000000010PS Playhouse AM Block Open (:10-:15)                                                                                        150                                
PGRFAMCHA040601083000085249002249Disney's 101 Dalmatians: The Series               EPS # 1-010                                                         A6068607E                                
PROFAMCHA040601085249085304000015PS - 10(PH) - FRANKLIN/WTP/JOJO (:14-:16) (JAN12)                                                                           150                                
PRCFAMCHA040601085304085350000046Franklin (SPRING) - (PH) - Coming Up Next                                                                                   150                                
PROFAMCHA040601085350085450000100Playhouse (FUNTIMES) - (AM) - You're Watching Play                                                                    A     150                                
ID FAMCHA040601085450085500000010PS Playhouse AM Block Open (:10-:15)                                                                                        150                                
PROFAMCHA040601085500085510000010CC Disclaimer - FAST - Generic (:08-:10)                                                                                    150                                
PGRFAMCHA040601085510091803002253Franklin                                                                                                        B38149A1065607ECC                              
PROFAMCHA040601091803091818000015PS - 11(PH) - WTP/JOJO/STANLEY (:14-:16) (JAN12)                                                                            150                                
PROFAMCHA040601091818091918000100Playhouse (FUNTIMES) - (AM) - You're Watching Play                                                                    A     150                                
PRCFAMCHA040601091918091948000030xxHenry's World - TEDDY - Today @ 10:35am                                                                                   150                                
ID FAMCHA040601091948092000000012PS Playhouse AM Block Open (:10-:15)                                                                                        150                                
PROFAMCHA040601092000092010000010CC Disclaimer - FAST - Generic (:08-:10)                                                                                    150                                
PGRFAMCHA040601092010094247002237New Adventures of Winnie the Pooh; The            Piglet's Poohetry/Owl's Well That Ends Well                          6068607ECC                              
PROFAMCHA040601094247094302000015PS - 12(PH) - JOJO/STANLEY/HENRY (:14-:16) (JAN12)                                                                          150                                
PROFAMCHA040601094302094344000042Jojo's Circus - (CRAB) - (PH/AM) - Coming Up Next                                                                           150                                
PROFAMCHA040601094344094428000044Stanley - (SONG) - (PH) - Today @ 10:10am                                                                                   150                                
PRCFAMCHA040601094428094447000019Playhouse - FRANKLIN - Party                                                                                                150                                
PROFAMCHA040601094447094547000100Playhouse (FUNTIMES) - (AM) - You're Watching Play                                                                    A     150                                
ID FAMCHA040601094547094600000013PS Playhouse AM Block Open (:10-:15)                                                                                        150                                
PGRFAMCHA040601094600101008002408JoJo's Circus                                     EPS # 14                                                            A6068607E                                
PROFAMCHA040601101008101024000016PS - 13(PH) - STANLEY/HENRY/CHIP (:14-:16) (JAN12)                                                                          150                                
PROFAMCHA040601101024101124000100Playhouse (FUNTIMES) - (AM) - You're Watching Play                                                                    A     150                                
PRCFAMCHA040601101124101147000023Playhouse - HOUSE OF MOUSE - Calculator                                                                                     150                                
ID FAMCHA040601101147101200000013PS Playhouse AM Block Open (:10-:15)                                                                                        150                                
PROFAMCHA040601101200101209000009CC Disclaimer - FAST - Family (:08-:10)                                                                                     150                                
PGRFAMCHA040601101209103614002405Stanley                                           EPS # 1-054                                                         A6068607E                                
PROFAMCHA040601103614103630000016PS - 14(PH) - HENRY/CHIP/ART (:14-:16) (JAN12)                                                                              150                                
PROFAMCHA040601103630103730000100Playhouse (FUNTIMES) - (AM) - You're Watching Play                                                                    A     150                                
PRCFAMCHA040601103730103749000019Playhouse - FRANKLIN - Party                                                                                                150                                
ID FAMCHA040601103749103800000011PS Playhouse AM Block Open (:10-:15)                                                                                        150                                
PROFAMCHA040601103800103809000009CC Disclaimer - FAST - Family.ca (:08-:10)                                                                                  150                                
PGRFAMCHA040601103809110209002400Henry's World                                     Henry's Massive Munchies/Plant Life                           A81047A1065607GCC                              
PROFAMCHA040601110209110225000016PS - 15(PH) - CHIP/ART/RECESS (:14-:16)                                                                                     150                                
PROFAMCHA040601110225110325000100Playhouse (FUNTIMES) - (AM) - You're Watching Play                                                                    A     150                                
PRCFAMCHA040601110325110348000023Playhouse - HOUSE OF MOUSE - Calculator                                                                                     150                                
ID FAMCHA040601110348110400000012PS Playhouse AM Block Open (:10-:15)                                                                                        150                                
ID FAMCHA040601110400110408000008Magic of Disney - PLAYHOUSE - Shape (:06-:09)                                                                               150                                
PGRFAMCHA040601110408112655002247Chip 'n Dale Rescue Rangers                       Three Man And A Booby                                               A6068607E                                
PROFAMCHA040601112655112711000016PS - 16(PH) - ART/RECESS/FILLMORE (:14-:16) (JAN)                                                                           150                                
PROFAMCHA040601112711112811000100Playhouse (FUNTIMES) - (AM) - You're Watching Play                                                                    A     150                                
PRCFAMCHA040601112811112846000035Playhouse - KATIE & ORBIE - Did You Know?                                                                                   150                                
ID FAMCHA040601112846112900000014PS Playhouse AM Block Open (:10-:15)                                                                                        150                                
PGRFAMCHA040601112900114905002005Art Attack                                                                                                             60686110                                
PROFAMCHA040601114905114919000014PS - 17(MD) - RECESS/FILLMORE/GOOF (:14-:16) (JAN1                                                                          150                                
PROFAMCHA040601114919114949000030Polly Pocket (May 10 - June 6)                                                                                              150                                
ID FAMCHA040601114949115002000013PS Mad Dash Block Open (:13-:15)                                                                                            150                                
PGRFAMCHA040601115002121237002235Disney's Recess                                   Chez Vince/Tucked In Mikey                                          A6068607E                                
PROFAMCHA040601121237121251000014PS - 18(MD) - FILLMORE/GOOF/TEAMO (:14-:16) (JAN1)                                                                          150                                
ID FAMCHA040601121251121304000013PS Mad Dash Block Open (:13-:15)                                                                                            150                                
PGRFAMCHA040601121304123542002238Disney's Fillmore!                                Test Of The Tested                                                  A6068607E                                
PROFAMCHA040601123542123556000014PS - 19(MD) - GOOF/TEAMO/DALMATIANS (:14-:16) (JAN                                                                          150                                
PROFAMCHA040601123556123622000026Walk Like A Man (PP) - Premiering June 11 @ 7:30pm                                                                          150                                
PROFAMCHA040601123622123647000025Even Stevens (SIBLINGS) - (NS/M-T) - Tonight @ 7pm                                                                          150                                
ID FAMCHA040601123647123700000013Mad Dash Block Open (:13-:15)                                                                                               150                                
PROFAMCHA040601123700123710000010CC Disclaimer - FAST - Generic (:08-:10)                                                                                    150                                
PGRFAMCHA040601123710125957002247Goof Troop                                        Major Goof                                                           6068607ECC                              
PROFAMCHA040601125957130013000016PS - 20(MD) - TEAMO/DALMATIANS/CHIP (:14-:16) (JAN                                                                          150                                
PROFAMCHA040601130013130039000026Walk Like A Man (PP) - Premiering June 11 @ 7:30pm                                                                          150                                
ID FAMCHA040601130039130046000007Lindsay Lohan ID - You're Watching Family                                                                                   150                                
ID FAMCHA040601130046130100000014Mad Dash Block Open (:13-:15)                                                                                               150                                
PROFAMCHA040601130100130109000009CC Disclaimer - FAST - Generic (:08-:10)                                                                                    150                                
PGRFAMCHA040601130109132403002254Disney's Teamo Supremo                            Sinister Substitute/My Sister The Spy                               A6068607ECC                              
PROFAMCHA040601132403132417000014PS - 21(PH) - DALMATIANS/CHIP/HOZE (:14-:16)                                                                                150                                
ID FAMCHA040601132417132427000010PS Playhouse PM Block Open (:10-:15)                                                                                        150                                
PGRFAMCHA040601132427134711002244Disney's 101 Dalmatians: The Series               EPS # 1-011                                                         A6068607E                                
PROFAMCHA040601134711134727000016PS - 22(PH) - CHIP/HOZE/HOM (:14-:16)                                                                                       150                                
PRCFAMCHA040601134727134746000019Playhouse - FRANKLIN - Party                                                                                                150                                
ID FAMCHA040601134746134800000014PS Playhouse PM Block Open (:10-:15)                                                                                        150                                
ID FAMCHA040601134800134808000008Magic of Disney - PLAYHOUSE - Wipe (:06-:09)                                                                                150                                
PGRFAMCHA040601134808141054002246Chip 'n Dale Rescue Rangers                       The Carpetnaggers                                                   A6068607E                                
PROFAMCHA040601141054141110000016PS - 23(PH) - HOZE/HOM/TIMON (:14-:16)                                                                                      150                                
PRCFAMCHA040601141110141145000035Playhouse - KATIE & ORBIE - Discoveries                                                                                     150                                
ID FAMCHA040601141145141200000015PS Playhouse PM Block Open (:10-:15)                                                                                        150                                
PROFAMCHA040601141200141209000009CC Disclaimer - FAST - Family (:08-:10)                                                                                     150                                
PGRFAMCHA040601141209143447002238Hoze Houndz                                       Metamorphosis/Snowed                                          A63401A1065607ECC                              
PROFAMCHA040601143447143503000016PS - 24(PH) - HOM/TIMON/LILO (:14-:16) (JAN1)                                                                               150                                
PROFAMCHA040601143503143547000044Stanley - (SONG) - (PH) - Tomorrow @ 10:10am                                                                                150                                
ID FAMCHA040601143547143600000013PS Playhouse PM Block Open (:10-:15)                                                                                        150                                
PROFAMCHA040601143600143608000008CC Disclaimer - FAST - Generic (:08-:10)                                                                                    150                                
PGRFAMCHA040601143608145851002243Disney's House Of Mouse                           Timon & Pumbaa                                                      A6068607ECC                              
PROFAMCHA040601145853145907000014Mad Dash  - 01 - TIMON/LILO/WEEKENDERS (:14-:16) (                                                                          150                                
PROFAMCHA040601145908145934000026Walk Like A Man (PP) - Premiering June 11 @ 7:30pm                                                                          150                                
PRCFAMCHA040601145934145950000016Radio Free Roscoe - Webthrow (Smog)                                                                                         150                                
ID FAMCHA040601145947150000000013Mad Dash Block Open (:13-:15)                                                                                               150                                
PROFAMCHA040601150000150009000009CC Disclaimer - FAST - Family.ca (:08-:10)                                                                                  150                                
PGRFAMCHA040601150009152238002229Lion King's Timon & Pumbaa; The                   Isle of Manhood/Puttin' on the Brits                                 6068607ECC                              
PROFAMCHA040601152238152254000016Mad Dash  - 02 - LILO/WEEKENDERS/RECESS (:14-:16)                                                                           150                                
PROFAMCHA040601152254152320000026Walk Like A Man (PP) - Premiering June 11 @ 7:30pm                                                                          150                                
PROFAMCHA040601152320152350000030Weekenders (MESS) - Today @ 3:50pm                                                                                          150                                
PROFAMCHA040601152350152420000030Recess (NOV2003) - Today @ 4:15pm                                                                                           150                                
PRCFAMCHA040601152420152440000020xxRaven Live Event Bumper                                                                                                   150                                
ID FAMCHA040601152440152447000007Lindsay Lohan ID - You're Watching Family                                                                                   150                                
ID FAMCHA040601152447152500000013Mad Dash Block Open (:13-:15)                                                                                               150                                
PROFAMCHA040601152500152510000010CC Disclaimer - FAST - Generic (:08-:10)                                                                                    150                                
PGRFAMCHA040601152510154749002239Disney's Lilo & Stitch: The Series                EPS # 31                                                            A6068607E                                
PROFAMCHA040601154749154805000016Mad Dash  - 03 - WEEKENDERS/RECESS/KIM (:14-:16)                                                                            150                                
PROFAMCHA040601154805154831000026Walk Like A Man (PP) - Premiering June 11 @ 7:30pm                                                                          150                                
PROFAMCHA040601154831154901000030Weekenders (MESS) - Coming Up                                                                                               150                                
PROFAMCHA040601154901154929000028Teen Angel (MAY04) - (NS/FRI) - Fridays @ 7pm                                                                               150                                
PRCFAMCHA040601154929154945000016Radio Free Roscoe - Webthrow (Smog)                                                                                         150                                
ID FAMCHA040601154945155000000015Mad Dash Block Open (:13-:15)                                                                                               150                                
PROFAMCHA040601155000155010000010CC Disclaimer - FAST - Generic (:08-:10)                                                                                    150                                
PGRFAMCHA040601155010161242002232Disney's The Weekenders                           The Perfect Weekend/Throwing Carver                                 A6068607ECC                              
PROFAMCHA040601161242161258000016Mad Dash  - 04 - RECESS/KIM/PROUD (:14-:16)                                                                                 150                                
PROFAMCHA040601161258161324000026Walk Like A Man (PP) - Premiering June 11 @ 7:30pm                                                                          150                                
PROFAMCHA040601161324161354000030Recess (NOV2003) - Coming Up                                                                                                150                                
PROFAMCHA040601161354161424000030Polly Pocket (May 10 - June 6)                                                                                              150                                
PROFAMCHA040601161424161452000028Proud Family (BOND) - (MD) - Today @ 5:05pm                                                                                 150                                
PRCFAMCHA040601161452161512000020xxRaven Live Event Bumper                                                                                                   150                                
PROFAMCHA040601161512161546000034Fillmore (APR04) - (MD/L) - Tomorrow @ 12:15pm                                                                              150                                
ID FAMCHA040601161546161600000014Mad Dash Block Open (:13-:15)                                                                                               150                                
PGRFAMCHA040601161600163835002235Disney's Recess                                   The Game/The Lost Ball                                               6068607E                                
PROFAMCHA040601163835163851000016Mad Dash  - 05 - KIM/PROUD/LIZZIE (:14-:16)                                                                                 150                                
PROFAMCHA040601163851163917000026Walk Like A Man (PP) - Premiering June 11 @ 7:30pm                                                                          150                                
PROFAMCHA040601163917163945000028Teen Angel (MAY04) - (NS/FRI) - Fridays @ 7pm                                                                               150                                
PROFAMCHA040601163945164013000028Proud Family (BOND) - (MD) - Today @ 5:05pm                                                                                 150                                
INTFAMCHA040601164013164113000100Gagsters - Crazy Camera                                                                                               A20686120                                
PROFAMCHA040601164113164144000031Lizzie McGuire (MAY04) - (MD) - Today @ 5:35pm                                                                              150                                
ID FAMCHA040601164144164159000015Mad Dash Block Open (:13-:15)                                                                                               150                                
PGRFAMCHA040601164159170450002251Disney's Kim Possible                             The New Ron                                                         A6068607E                                
PROFAMCHA040601170450170506000016Mad Dash  - 06 - PROUD/LIZZIE/ALL (:14-:16)                                                                                 150                                
PROFAMCHA040601170506170532000026Walk Like A Man (PP) - Premiering June 11 @ 7:30pm                                                                          150                                
PROFAMCHA040601170532170600000028Proud Family (BOND) - (MD) - Coming Up                                                                                      150                                
PROFAMCHA040601170600170630000030Wendy's Sensations (PART 1) - (May 17 - July 31)                                                                            150                                
INTFAMCHA040601170630170715000045Gagsters - Hairy                                                                                                      A20686120                                
PROFAMCHA040601170715170746000031Lizzie McGuire (MAY04) - (MD) - Today @ 5:35pm                                                                              150                                
ID FAMCHA040601170746170800000014Mad Dash Block Open (:13-:15)                                                                                               150                                
PROFAMCHA040601170800170810000010CC Disclaimer - FAST - Family (:08-:10)                                                                                     150                                
PGRFAMCHA040601170810173049002239Proud Family; The                                 Makeover                                                            A6068807ECC                              
PROFAMCHA040601173049173105000016Mad Dash  - 07(NOV) - LIZZIE/ALL/RAVEN (:14-:16)                                                                            150                                
PROFAMCHA040601173105173131000026Walk Like A Man (PP) - Premiering June 11 @ 7:30pm                                                                          150                                
PROFAMCHA040601173131173202000031Lizzie McGuire (MAY04) - (MD) - Coming Up Next                                                                              150                                
PRCFAMCHA040601173202173235000033Kellogg's - Vote Blue BBD - May 31 - June 6                                                                                 150                                
INTFAMCHA040601173235173315000040Harrisons; The - Joy Ride                                                                                             A10626120                                
PROFAMCHA040601173315173345000030All That (NS/MAR) - Tonight @ 6pm                                                                                           150                                
ID FAMCHA040601173345173400000015Mad Dash Block Open (:13-:15)                                                                                               150                                
ID FAMCHA040601173400173408000008Magic of Disney - MAD DASH - Shape (:06-:09)                                                                                150                                
PROFAMCHA040601173408173417000009CC Disclaimer - FAST - Family.ca (:08-:10)                                                                                  150                                
PGRFAMCHA040601173417175648002231Lizzie McGuire                                    Lizzie In The Middle                                                A6068607BCC                              
PROFAMCHA040601175648175703000015Nonstop - 01(M-T/NOV) - ALL/RAVEN/EVEN (:14-:16)                                                                            150                                
PROFAMCHA040601175703175729000026Walk Like A Man (PP) - Premiering June 11 @ 7:30pm                                                                          150                                
PROFAMCHA040601175729175759000030All That (NS/MAR) - Coming Up Next                                                                                          150                                
PRCFAMCHA040601175759175833000034Family Kicks (May 21 - Sept 26)                                                                                             150                                
INTFAMCHA040601175833175915000042Gagsters - Clean Sweep                                                                                                A20686120                                
PROFAMCHA040601175915175946000031That's So Raven (APR04) - (NS) - Tonight @ 6:30pm                                                                           150                                
ID FAMCHA040601175946180000000014Nonstop Block Open (:14-:17)                                                                                                150                                
   FAMCHA040601180000182000002000All That                                                                                                                                                       
PROFAMCHA040601180000180010000010CC Disclaimer - FAST - Generic (:08-:10)                                                                                    150                                
PROFAMCHA040601182010182026000016Nonstop - 02(M-T/NOV) - RAVEN/EVEN/RADIO (:14-:16)                                                                          150                                
PROFAMCHA040601182026182052000026Walk Like A Man (PP) - Premiering June 11 @ 7:30pm                                                                          150                                
PROFAMCHA040601182052182123000031That's So Raven (APR04) - (NS) - Coming Up Next                                                                             150                                
PROFAMCHA040601182123182133000010FAMJAM - Open                                                                                                               150                                
INTFAMCHA040601182133182303000130MV Disney - Notice Me (The Zetta Bytes)                                                                                60688120                                
PROFAMCHA040601182303182317000014FAMJAM - Close (LOGO)                                                                                                       150                                
PRCFAMCHA040601182317182351000034Family Kicks (May 21 - Sept 26)                                                                                             150                                
PROFAMCHA040601182351182416000025Even Stevens (SIBLINGS) - (NS/M-T) - Tonight @ 7pm                                                                          150                                
PROFAMCHA040601182416182426000010FAMJAM - Open                                                                                                               150                                
INTFAMCHA040601182426182749000323MV Disney - Superstition (Raven)                                                                                       60688120                                
PROFAMCHA040601182749182803000014FAMJAM - Close (EMAIL)                                                                                                      150                                
PROFAMCHA040601182803182818000015Hubba Bubba - Have a Say Contest (April 9)                                                                            A     150                                
INTFAMCHA040601182818182925000107Gagsters - Dirty Dentures                                                                                             A20686120                                
PRCFAMCHA040601182925182945000020xxRaven Live Event Bumper                                                                                                   150                                
ID FAMCHA040601182945183000000015Nonstop Block Open (:14-:17)                                                                                                150                                
PROFAMCHA040601183000183010000010CC Disclaimer - FAST - Generic (:08-:10)                                                                                    150                                
PGRFAMCHA040601183010185250002240That's So Raven                                   EPS # 1-024                                                         A6068807B                                
PROFAMCHA040601185250185306000016Nonstop - 03(M-T/JAN) - EVEN/RADIO/BMW (:14-:16) (                                                                          150                                
PRCFAMCHA040601185306185326000020xxRaven Live Event Bumper                                                                                                   150                                
PROFAMCHA040601185326185351000025Even Stevens (SIBLINGS) - (NS) - Coming Up                                                                                  150                                
PROFAMCHA040601185351185406000015Hubba Bubba - Have a Say Contest (April 9)                                                                            A     150                                
PROFAMCHA040601185406185416000010FAMJAM - Open                                                                                                               150                                
INTFAMCHA040601185416185751000335MV Disney - I've Got To Move (Calvin Richardson)                                                                       60688120                                
PROFAMCHA040601185751185805000014FAMJAM - Close (EMAIL)                                                                                                      150                                
PRCFAMCHA040601185805185838000033Radio Free Roscoe (MAY04) - (NS/M-T) - Tonight @ 7                                                                          150                                
INTFAMCHA040601185838185917000039Harrisons; The - Woke Up Like This                                                                                    A10626120                                
PROFAMCHA040601185917185943000026Walk Like A Man (PP) - Premiering June 11 @ 7:30pm                                                                          150                                
ID FAMCHA040601185943190000000017Nonstop Block Open (:14-:17)                                                                                                150                                
PROFAMCHA040601190000190008000008CC Disclaimer - FAST - Family (:08-:10)                                                                                     150                                
PGRFAMCHA040601190008192237002229Even Stevens                                      Your Toast                                                          A6068807BCC                              
PROFAMCHA040601192237192251000014Nonstop - 04(M-T) - RADIO/BMW/MENTORS (:14-:16) (M                                                                          150                                
PROFAMCHA040601192251192317000026Walk Like A Man (PP) - Premiering June 11 @ 7:30pm                                                                          150                                
PRCFAMCHA040601192317192350000033Radio Free Roscoe (MAY04) - (NS) - Coming Up Next                                                                           150                                
PROFAMCHA040601192350192420000030Wendy's Sensations (PART 1) - (May 17 - July 31)                                                                            150                                
PROFAMCHA040601192420192450000030Boy Meets World (SCRAWNY) - (NS) - Tonight @ 8pm                                                                            150                                
PROFAMCHA040601192450192500000010FAMJAM - Open                                                                                                               150                                
INTFAMCHA040601192500192830000330MV Disney - Come Clean (Hillary Duff)                                                                                  60688120                                
PROFAMCHA040601192830192844000014xxFAMJAM - Close (WEB) xxDNUxx                                                                                              150                                
PRCFAMCHA040601192844192918000034Family Kicks (May 21 - Sept 26)                                                                                             150                                
PROFAMCHA040601192918192948000030Mentors (NS) - Tonight @ 8:30pm                                                                                             150                                
ID FAMCHA040601192948193002000014Nonstop Block Open (:14-:17)                                                                                                150                                
PROFAMCHA040601193002193012000010CC Disclaimer - FAST - Generic (:08-:10)                                                                                    150                                
PGRFAMCHA040601193012195242002230Radio Free Roscoe                                 EPS # 007                                                     A88723A1065607ACC                              
PROFAMCHA040601195242195258000016Nonstop - 05(M-T) - BMW/MENTORS/N-PIX (:14-:16) (M                                                                          150                                
PROFAMCHA040601195258195324000026Walk Like A Man (PP) - Premiering June 11 @ 7:30pm                                                                          150                                
PROFAMCHA040601195324195354000030Boy Meets World (SCRAWNY) - (NS) - Coming Up                                                                                150                                
PRCFAMCHA040601195354195429000035Bullying Pledge - Ongoing to September 1                                                                                    150                                
PROFAMCHA040601195429195439000010FAMJAM - Open                                                                                                               150                                
INTFAMCHA040601195439195741000302MV Disney - Light and Day (Polyphonic Spree)                                                                           60688120                                
PROFAMCHA040601195741195755000014FAMJAM - Close (EMAIL)                                                                                                      150                                
PROFAMCHA040601195755195825000030Mentors (NS) - Tonight @ 8:30pm                                                                                             150                                
INTFAMCHA040601195825195926000101Gagsters - Brain Teaser                                                                                               A20686120                                
PRCFAMCHA040601195926195946000020xxRaven Live Event Bumper                                                                                                   150                                
ID FAMCHA040601195946200000000014Nonstop Block Open (:14-:17)                                                                                                150                                
PROFAMCHA040601200000200008000008CC Disclaimer - FAST - Family.ca (:08-:10)                                                                                  150                                
PGRFAMCHA040601200008202224002216Boy Meets World                                   The Father/Son Game                                                 B6068807BCC                              
PROFAMCHA040601202224202238000014Nonstop - 06(M-T) - MENTORS/N-PIX (:14-:16) (MAR)                                                                           150                                
PROFAMCHA040601202238202304000026Walk Like A Man (PP) - Premiering June 11 @ 7:30pm                                                                          150                                
PROFAMCHA040601202304202334000030Mentors (NS) - Coming Up Next                                                                                               150                                
PROFAMCHA040601202334202408000034Nonstop Block (DATING) - Weeknights @ 6pm                                                                                   150                                
PROFAMCHA040601202408202418000010FAMJAM - Open                                                                                                               150                                
MVCFAMCHA040601202408202802000354MV - Addicted (Simple Plan)                                                                                           A20688120                                
PROFAMCHA040601202812202826000014xxFAMJAM - Close (WEB) xxDNUxx                                                                                              150                                
PRCFAMCHA040601202826202916000050Bullying PSA - Ongoing to September 1                                                                                       150                                
PROFAMCHA040601202916202946000030Family Charged Fridays - BOOMBOX - Fridays @ 6pm                                                                            150                                
ID FAMCHA040601202946203000000014Nonstop Block Open (:14-:17)                                                                                                150                                
PROFAMCHA040601203000203010000010CC Disclaimer - FAST - Generic (:08-:10)                                                                                    150                                
PGRFAMCHA040601203010205321002311Mentors                                           Future Forward                                                C20779A1055607ACC                              
PROFAMCHA040601205321205337000016Nightly Pix Line-up (SEPT) - GENERIC (:14-:16)                                                                              150                                
PROFAMCHA040601205337205403000026Walk Like A Man (PP) - Premiering June 11 @ 7:30pm                                                                          150                                
PROFAMCHA040601205403205434000031Brendan Leonard (#1 - FALL 2003) - Tonight @ 11pm                                                                           150                                
PRCFAMCHA040601205434205508000034Family Kicks (May 21 - Sept 26)                                                                                             150                                
PROFAMCHA040601205508205518000010FAMJAM - Open                                                                                                               150                                
INTFAMCHA040601205518205648000130MV Disney - Nothing's Wrong With Me (The Zetta Byt                                                                     60688120                                
PROFAMCHA040601205648205702000014FAMJAM - Close (EMAIL)                                                                                                      150                                
PRCFAMCHA040601205702205735000033Radio Free Roscoe (MAY04) - (NS) - Tonight @ 12am                                                                           150                                
INTFAMCHA040601205735205845000110Gagsters - Loaded Wallet                                                                                              A20686120                                
PROFAMCHA040601205845205919000034Nonstop Block (DATING) - Weeknights @ 6pm                                                                                   150                                
PROFAMCHA040601205919205945000026Smart Guy (APR04) - (NS/M-T) - Tonight @ 11:30                                                                              150                                
ID FAMCHA040601205945210000000015Nightly Pix Movie Open (:10-:15)                                                                                            150                                
ID FAMCHA040601210000210009000009Rating - PG - Ian (:08-:10)                                                                                                 150                                
PROFAMCHA040601210009210018000009CC Disclaimer - SLOW - Family (:08-:10)                                                                                     150                                
PGRFAMCHA040601210018230121020103Accidental Tourist; The                                                                                               B2068807DCC                              
PROFAMCHA040601230121230135000014Nonstop - 08(M/T-MAR) - BRENDAN/SMART/RADIO (:14-:                                                                          150                                
ID FAMCHA040601230135230149000014Nonstop Block Open (:14-:17)                                                                                                150                                
PROFAMCHA040601230149230158000009CC Disclaimer - SLOW - Family.ca (:08-:10)                                                                                  150                                
PGRFAMCHA040601230158232253002055Brendan Leonard Show; The                         EPS # 1-031                                                         B6068807FCC                              
PROFAMCHA040601232253232309000016Nonstop - 08b(M-T/MAR) - SMART/RADIO/DARK (:14-:16                                                                          150                                
PROFAMCHA040601232309232335000026Walk Like A Man (PP) - Premiering June 11 @ 7:30pm                                                                          150                                
PROFAMCHA040601232335232401000026Smart Guy (APR04) - (NS/M-T) - Coming Up Next                                                                               150                                
PROFAMCHA040601232401232435000034Nonstop Block (DATING) - Weeknights @ 6pm                                                                                   150                                
INTFAMCHA040601232435232843000408Art Attack - One Man Band                                                                                              60686120                                
PRCFAMCHA040601232843232916000033Radio Free Roscoe (MAY04) - (NS) - Tonight @ 12am                                                                           150                                
PROFAMCHA040601232916232946000030Family Charged Fridays - BOOMBOX - Fridays @ 6pm                                                                            150                                
ID FAMCHA040601232946233000000014Nonstop Block Open (:14-:17)                                                                                                150                                
PROFAMCHA040601233000233009000009CC Disclaimer - SLOW - Generic (:08-:10)                                                                                    150                                
PGRFAMCHA040601233009235239002230Smart Guy                                         T.A. Or Not T.A.                                                    A6068807BCC                              
PROFAMCHA040601235239235255000016Nonstop - 09 - RADIO/DARK (:14-:16) (MAR)                                                                                   150                                
PROFAMCHA040601235255235321000026Walk Like A Man (PP) - Premiering June 11 @ 7:30pm                                                                          150                                
PRCFAMCHA040601235321235354000033Radio Free Roscoe (MAY04) - (NS) - Coming Up Next                                                                           150                                
INTFAMCHA040601235354235819000425Art Attack - Flinstones                                                                                                60686120                                
PROFAMCHA040601235819235849000030Family Charged Fridays - BOOMBOX - Fridays @ 6pm                                                                            150                                
PROFAMCHA040601235915235946000031Brendan Leonard (#1 - FALL 2003) - Tomorrow @ 11pm                                                                          150                                
PROFAMCHA040601235915235940000025Even Stevens (SIBLINGS) - (NS/M-T) - Tomorrow @ 7p                                                                          150                                
ID FAMCHA040601235946000001000015Nonstop Block Open (:14-:17)                                                                                                150                                
PROFAMCHA040601000000000009000009CC Disclaimer - SLOW - Family (:08-:10)                                                                                     150                                
PGRFAMCHA040601000009002239002230Radio Free Roscoe                                 EPS # 25                                                      A88736A1065607ACC                              
PROFAMCHA040601002239002255000016Nonstop - 10 - DARK (:14-:16) (MAR)                                                                                         150                                
PROFAMCHA040601002255002321000026Walk Like A Man (PP) - Premiering June 11 @ 7:30pm                                                                          150                                
INTFAMCHA040601002321002415000054Gagsters - Handy Scooter                                                                                              A20686120                                
PROFAMCHA040601002415002449000034Nonstop Block (DATING) - Weeknights @ 6pm                                                                                   150                                
INTFAMCHA040601002449002915000426Art Attack - Robin Hood                                                                                                60686120                                
PROFAMCHA040601002915002946000031Brendan Leonard (#1 - FALL 2003) - Tomorrow @ 11pm                                                                          150                                
ID FAMCHA040601002946003000000014Nonstop Block Open (:14-:17)                                                                                                150                                
PROFAMCHA040601003000003010000010CC Disclaimer - SLOW - Family.ca (:08-:10)                                                                                  150                                
PGRFAMCHA040601003010005444002434Are You Afraid Of The Dark?                       The Tale of the Chamelons                                     SR0306 1066807A                                
PROFAMCHA040601005444005510000026Walk Like A Man (PP) - Premiering June 11 @ 7:30pm                                                                          150                                
PRCFAMCHA040601005510005540000030Astral - Clock                                                                                                              150                                
INTFAMCHA040601005540010014000434Art Attack - Family By Bonfire                                                                                         60686120                                
PROFAMCHA040601010014010044000030Amanda Show - FACES - (NS/FRI) - Fridays @ 6pm                                                                              150                                
INTFAMCHA040601010044010126000042Gagsters - Clean Sweep                                                                                                A20686120                                
PROFAMCHA040601010126010200000034Nonstop Block (DATING) - Weeknights @ 6pm                                                                                   150                                
SO FAMCHA040601010200011400001200Sign Off                                                                                                                                                       
OFFFAMCHA040601011400043000031600OFF AIR                                                                                                                                                        
SO FAMCHA040602043000043011000011Sign On (oct 1)                                                                                                                                                
PROFAMCHA040602043011043020000009CC Disclaimer - FAST - Family.ca (:08-:10)                                                                                  150                                
PGRFAMCHA040602043020045313002253Franklin                                          Franklin's Canoe Trip/Interview                               A53212A1065607ECC                              
PROFAMCHA040602045313045329000016PS - 01(PH) - WTP/KATIE/FRANKLIN (:14-:16)                                                                                  150                                
ID FAMCHA040602045329045342000013PS Playhouse AM Block Open (:10-:15)                                                                                        150                                
PROFAMCHA040602045342045351000009CC Disclaimer - FAST - Family.ca (:08-:10)                                                                                  150                                
PGRFAMCHA040602045351051626002235New Adventures of Winnie the Pooh; The            Pooh Oughta Be In Pictures                                           6068607ECC                              
PROFAMCHA040602051626051642000016PS - 02(PH) - KATIE/FRANKLIN/SOMETHING (:14-:16)                                                                            150                                
ID FAMCHA040602051642051657000015PS Playhouse AM Block Open (:10-:15)                                                                                        150                                
PROFAMCHA040602051657051707000010CC Disclaimer - FAST - Generic (:08-:10)                                                                                    150                                
PGRFAMCHA040602051707054342002635Katie And Orbie                                   Made to Order Pancakes/Chicken Pox Party/No Chance            C11896A1065607ECC                              
PROFAMCHA040602054342054358000016PS - 03(PH) - FRANKLIN/SOMETHING/HOZE (:14-:16)                                                                             150                                
ID FAMCHA040602054358054411000013PS Playhouse AM Block Open (:10-:15)                                                                                        150                                
PROFAMCHA040602054411054420000009CC Disclaimer - FAST - Family.ca (:08-:10)                                                                                  150                                
PGRFAMCHA040602054420060713002253Franklin                                          Crystal/Advice                                                A53213A1065607ECC                              
PROFAMCHA040602060713060729000016PS - 04(PH) - SOMETHING/HOZE/KNIGHT (:14-:16)                                                                               150                                
PRCFAMCHA040602060729060747000018Henry's World (HIS WORLD) (PH/AM) - Tomorrow @ 10:                                                                          150                                
ID FAMCHA040602060747060800000013PS Playhouse AM Block Open (:10-:15)                                                                                        150                                
PROFAMCHA040602060800060809000009CC Disclaimer - FAST - Family.ca (:08-:10)                                                                                  150                                
PGRFAMCHA040602060809063040002231Something Else                                    EPS # 1-006                                                   A69260A1065607ECC                              
PROFAMCHA040602063040063056000016PS - 05(PH) - HOZE/KNIGHT/NINJA (:14-:16)                                                                                   150                                
PROFAMCHA040602063056063156000100Playhouse (FUNTIMES) - (AM) - Today @ 8:30am                                                                          A     150                                
PROFAMCHA040602063156063221000025Hoze Houndz (Can't Fly) (PH) - Coming Up Next                                                                               150                                
PROFAMCHA040602063221063247000026Disney's 101 Dalmatians (PH/AM) - Today @ 8:30am                                                                            150                                
PROFAMCHA040602063247063329000042Jojo's Circus - (CRAB) - (PH/AM) - Today @ 9:45am                                                                           150                                
PRCFAMCHA040602063329063417000048Chip 'n Dale (MILK) - (PH/AM) - Today @ 11am                                                                                150                                
PROFAMCHA040602063417063447000030House of Mouse (GRASSHOPPER) - Today @ 2:35pm                                                                               150                                
ID FAMCHA040602063447063500000013PS Playhouse AM Block Open (:10-:15)                                                                                        150                                
PROFAMCHA040602063500063510000010CC Disclaimer - FAST - Generic (:08-:10)                                                                                    150                                
PGRFAMCHA040602063510065745002235Hoze Houndz                                       Hozer's Angels/Veggie Houndz                                  B34007 1065607ECC                              
PROFAMCHA040602065745065801000016PS - 06(PB) - KNIGHT/NINJA/GADGET (:14-:16)                                                                                 150                                
PROFAMCHA040602065801065831000030Mon Colle Knights - Coming Up                                                                                               150                                
PROFAMCHA040602065831065901000030Gadget & The Gadgetinis - (PB) - Today @ 8am                                                                                150                                
ID FAMCHA040602065901065910000009xxBugs Bunny ID's - What's Up Doc? xDNUx                                                                                    150                                
PRCFAMCHA040602065910065945000035Power Box Block Promo (APR04) - (PB) - Coming Up N                                                                          150                                
ID FAMCHA040602065945070000000015Power Box Block Open (:12-:15)                                                                                              150                                
PGRFAMCHA040602070000072124002124Mon Colle Knights                                 EPS # 1-009                                                         A6068607E                                
PROFAMCHA040602072124072140000016PS - 07(PB) - NINJA/GADGET/DALMATIANS (:14-:16)                                                                             150                                
PROFAMCHA040602072140072206000026Walk Like A Man (PP) - Premiering June 11 @ 7:30pm                                                                          150                                
PROFAMCHA040602072206072236000030Gadget & The Gadgetinis - (PB) - Today @ 8am                                                                                150                                
INTFAMCHA040602072236072402000126Gagsters - Arm Chair                                                                                                  A20686120                                
PROFAMCHA040602072402072438000036Power Rangers Dino Thunder (LONG) - Weekends @ 7am                                                                          150                                
INTFAMCHA040602072438072911000433Art Attack - Gorilla                                                                                                   60686120                                
PROFAMCHA040602072911072945000034Fillmore (APR04) - (MD/L) - Today @ 12:15pm                                                                                 150                                
ID FAMCHA040602072945073000000015Power Box Block Open (:12-:15)                                                                                              150                                
PGRFAMCHA040602073000075125002125Power Rangers Ninja Storm                         I Love Lothor                                                       A6068607E                                
PROFAMCHA040602075125075141000016PS - 08(PB) - GADGET/DALMATIANS/FRANKLIN (:14-:16)                                                                          150                                
PROFAMCHA040602075141075207000026Walk Like A Man (PP) - Premiering June 11 @ 7:30pm                                                                          150                                
PROFAMCHA040602075207075237000030Gadget & The Gadgetinis - (PB) - Coming Up                                                                                  150                                
PROFAMCHA040602075237075311000034Fillmore (APR04) - (MD/L) - Today @ 12:15pm                                                                                 150                                
INTFAMCHA040602075311075435000124Gagsters - Icky Cookies                                                                                               A20686120                                
PROFAMCHA040602075435075505000030Lilo & Stitch (MAY04) - (MD) - Today @ 3:25pm                                                                               150                                
INTFAMCHA040602075505075915000410Art Attack - Pony Ride                                                                                                 60686120                                
PROFAMCHA040602075915075945000030Recess (NOV2003) - Today @ 11:50am                                                                                          150                                
ID FAMCHA040602075945080000000015Power Box Block Open (:12-:15)                                                                                              150                                
PGRFAMCHA040602080000082213002213Gadget & the Gadgetinis                           EPS # 1-047                                                         A6068607E                                
PROFAMCHA040602082213082228000015PS - 09(PH) - DALMATIANS/FRANKLIN/WTP (:14-:16)                                                                             150                                
PROFAMCHA040602082228082254000026Disney's 101 Dalmatians (PH) - Coming Up Next                                                                               150                                
PRCFAMCHA040602082254082347000053Franklin (SOCCER) - (PH) - Today @ 8:55am                                                                                   150                                
PROFAMCHA040602082347082429000042Jojo's Circus - (CRAB) - (PH/AM) - Today @ 9:45am                                                                           150                                
INTFAMCHA040602082429082700000231MV Disney - Aloha E Komo Mai (Lilo & Stitch)                                                                           60688120                                
PROFAMCHA040602082700082744000044Stanley - (SONG) - (PH) - Today @ 10:10am                                                                                   150                                
PRCFAMCHA040602082744082850000106Playhouse - WINNIE THE POOH - Christopher Robin                                                                             150                                
PROFAMCHA040602082850082950000100Playhouse (FUNTIMES) - (AM) - Coming Up Next                                                                          A     150                                
ID FAMCHA040602082950083000000010PS Playhouse AM Block Open (:10-:15)                                                                                        150                                
PGRFAMCHA040602083000085251002251Disney's 101 Dalmatians: The Series               EPS # 1-012                                                         A6068607E                                
PROFAMCHA040602085251085305000014PS - 10(PH) - FRANKLIN/WTP/JOJO (:14-:16) (JAN12)                                                                           150                                
PROFAMCHA040602085305085405000100Playhouse (FUNTIMES) - (AM) - You're Watching Play                                                                    A     150                                
PRCFAMCHA040602085405085451000046Playhouse - STANLEY - Squirrel Song                                                                                         150                                
ID FAMCHA040602085451085501000010PS Playhouse AM Block Open (:10-:15)                                                                                        150                                
PROFAMCHA040602085501085510000009CC Disclaimer - FAST - Family.ca (:08-:10)                                                                                  150                                
PGRFAMCHA040602085510091803002253Franklin                                          Sailboats/Snoops                                              B38150A1065607ECC                              
PROFAMCHA040602091803091818000015PS - 11(PH) - WTP/JOJO/STANLEY (:14-:16) (JAN12)                                                                            150                                
PROFAMCHA040602091818091918000100Playhouse (FUNTIMES) - (AM) - You're Watching Play                                                                    A     150                                
PRCFAMCHA040602091918091947000029Playhouse - WINNIE THE POOH - Tigger Bounce                                                                                 150                                
ID FAMCHA040602091947092000000013PS Playhouse AM Block Open (:10-:15)                                                                                        150                                
PROFAMCHA040602092000092008000008CC Disclaimer - FAST - Family.ca (:08-:10)                                                                                  150                                
PGRFAMCHA040602092008094253002245New Adventures of Winnie the Pooh; The            Friend In Deed/Donkey for a Day                                      6068607ECC                              
PROFAMCHA040602094253094307000014PS - 12(PH) - JOJO/STANLEY/HENRY (:14-:16) (JAN12)                                                                          150                                
PROFAMCHA040602094307094407000100Playhouse (FUNTIMES) - (AM) - You're Watching Play                                                                    A     150                                
PRCFAMCHA040602094407094551000144Playhouse - HOUSE OF MOUSE - Seating Song                                                                                   150                                
ID FAMCHA040602094551094601000010PS Playhouse AM Block Open (:10-:15)                                                                                        150                                
PGRFAMCHA040602094601101009002408JoJo's Circus                                     EPS # 15                                                            A6068607E                                
PROFAMCHA040602101009101025000016PS - 13(PH) - STANLEY/HENRY/CHIP (:14-:16) (JAN12)                                                                          150                                
PROFAMCHA040602101025101125000100Playhouse (FUNTIMES) - (AM) - You're Watching Play                                                                    A     150                                
PRCFAMCHA040602101125101148000023Playhouse - HOUSE OF MOUSE - Calculator                                                                                     150                                
ID FAMCHA040602101148101200000012PS Playhouse AM Block Open (:10-:15)                                                                                        150                                
PGRFAMCHA040602101200103602002402Stanley                                           EPS # 1-055                                                         A6068607E                                
PROFAMCHA040602103602103618000016PS - 14(PH) - HENRY/CHIP/ART (:14-:16) (JAN12)                                                                              150                                
PRCFAMCHA040602103618103648000030xxHenry's World - TEDDY - Coming Up                                                                                         150                                
PROFAMCHA040602103648103748000100Playhouse (FUNTIMES) - (AM) - You're Watching Play                                                                    A     150                                
ID FAMCHA040602103748103800000012PS Playhouse AM Block Open (:10-:15)                                                                                        150                                
PROFAMCHA040602103800103810000010CC Disclaimer - FAST - Generic (:08-:10)                                                                                    150                                
PGRFAMCHA040602103810110217002407Henry's World                                     Home Run Henry/Henry the Brave Knight                         A81048A1065607GCC                              
PROFAMCHA040602110217110233000016PS - 15(PH) - CHIP/ART/RECESS (:14-:16)                                                                                     150                                
PROFAMCHA040602110233110333000100Playhouse (FUNTIMES) - (AM) - You're Watching Play                                                                    A     150                                
PRCFAMCHA040602110333110347000014Playhouse - HOZE HOUNDZ - Skater                                                                                            150                                
ID FAMCHA040602110347110400000013PS Playhouse AM Block Open (:10-:15)                                                                                        150                                
ID FAMCHA040602110400110408000008Magic of Disney - PLAYHOUSE - Shape (:06-:09)                                                                               150                                
PGRFAMCHA040602110408112650002242Chip 'n Dale Rescue Rangers                       Piratsy Under The Seas                                              A6068607E                                
PROFAMCHA040602112650112706000016PS - 16(PH) - ART/RECESS/FILLMORE (:14-:16) (JAN)                                                                           150                                
PROFAMCHA040602112706112806000100Playhouse (FUNTIMES) - (AM) - You're Watching Play                                                                    A     150                                
PROFAMCHA040602112806112848000042Jojo's Circus - (CRAB) - (PH/AM) - Tomorrow @ 9:45                                                                          150                                
ID FAMCHA040602112848112900000012PS Playhouse AM Block Open (:10-:15)                                                                                        150                                
PGRFAMCHA040602112900114853001953Art Attack                                                                                                             60686110                                
PROFAMCHA040602114853114909000016PS - 17(MD) - RECESS/FILLMORE/GOOF (:14-:16) (JAN1                                                                          150                                
PROFAMCHA040602114909114939000030Polly Pocket (May 10 - June 6)                                                                                              150                                
ID FAMCHA040602114939114946000007Lindsay Lohan ID - You're Watching Family                                                                                   150                                
ID FAMCHA040602114946115000000014PS Mad Dash Block Open (:13-:15)                                                                                            150                                
PGRFAMCHA040602115000121250002250Disney's Recess                                   Coolest Heatwave Ever/No Strings Attached                           A6068607E                                
PROFAMCHA040602121250121306000016PS - 18(MD) - FILLMORE/GOOF/TEAMO (:14-:16) (JAN1)                                                                          150                                
ID FAMCHA040602121306121320000014PS Mad Dash Block Open (:13-:15)                                                                                            150                                
PGRFAMCHA040602121320123559002239Disney's Fillmore!                                EPS # 1-003                                                         A6068607E                                
PROFAMCHA040602123559123613000014PS - 19(MD) - GOOF/TEAMO/DALMATIANS (:14-:16) (JAN                                                                          150                                
PROFAMCHA040602123613123639000026Walk Like A Man (PP) - Premiering June 11 @ 7:30pm                                                                          150                                
ID FAMCHA040602123639123647000008That's So Raven ID's - You're Watching Family                                                                               150                                
ID FAMCHA040602123647123700000013Mad Dash Block Open (:13-:15)                                                                                               150                                
PROFAMCHA040602123700123709000009CC Disclaimer - FAST - Family.ca (:08-:10)                                                                                  150                                
PGRFAMCHA040602123709125957002248Goof Troop                                        A Goof Of The People                                                 6068607ECC                              
PROFAMCHA040602125957130013000016PS - 20(MD) - TEAMO/DALMATIANS/CHIP (:14-:16) (JAN                                                                          150                                
PROFAMCHA040602130013130039000026Walk Like A Man (PP) - Premiering June 11 @ 7:30pm                                                                          150                                
PRCFAMCHA040602130039130046000007Frankie Muniz ID - You're Watching Family                                                                                   150                                
ID FAMCHA040602130046130100000014Mad Dash Block Open (:13-:15)                                                                                               150                                
PROFAMCHA040602130100130109000009CC Disclaimer - FAST - Family.ca (:08-:10)                                                                                  150                                
PGRFAMCHA040602130109132400002251Disney's Teamo Supremo                            Grounded/The Baron & The Baby Brother                               A6068607ECC                              
PROFAMCHA040602132400132416000016PS - 21(PH) - DALMATIANS/CHIP/HOZE (:14-:16)                                                                                150                                
ID FAMCHA040602132416132431000015PS Playhouse PM Block Open (:10-:15)                                                                                        150                                
PGRFAMCHA040602132431134718002247Disney's 101 Dalmatians: The Series               EPS # 1-013                                                         A6068607E                                
PROFAMCHA040602134718134732000014PS - 22(PH) - CHIP/HOZE/HOM (:14-:16)                                                                                       150                                
PRCFAMCHA040602134732134751000019Playhouse - FRANKLIN - Party                                                                                                150                                
ID FAMCHA040602134751134801000010PS Playhouse PM Block Open (:10-:15)                                                                                        150                                
ID FAMCHA040602134801134809000008Magic of Disney - PLAYHOUSE - Wipe (:06-:09)                                                                                150                                
PGRFAMCHA040602134809141056002247Chip 'n Dale Rescue Rangers                       Adventures In Squirrel-Sitting                                      A6068607E                                
PROFAMCHA040602141056141112000016PS - 23(PH) - HOZE/HOM/TIMON (:14-:16)                                                                                      150                                
PRCFAMCHA040602141112141145000033Playhouse - HOUSE OF MOUSE - Someone's Watching                                                                             150                                
ID FAMCHA040602141145141200000015PS Playhouse PM Block Open (:10-:15)                                                                                        150                                
PROFAMCHA040602141200141210000010CC Disclaimer - FAST - Generic (:08-:10)                                                                                    150                                
PGRFAMCHA040602141210143445002235Hoze Houndz                                       Ghost in the Machine/Savage Steamer                           B17121A1065607ECC                              
PROFAMCHA040602143445143501000016PS - 24(PH) - HOM/TIMON/LILO (:14-:16) (JAN1)                                                                               150                                
PRCFAMCHA040602143501143547000046Playhouse - STANLEY - Squirrel Song                                                                                         150                                
ID FAMCHA040602143547143600000013PS Playhouse PM Block Open (:10-:15)                                                                                        150                                
PROFAMCHA040602143600143609000009CC Disclaimer - FAST - Family.ca (:08-:10)                                                                                  150                                
PGRFAMCHA040602143609145846002237Disney's House Of Mouse                           Three Caballeros                                                     6068607ECC                              
PROFAMCHA040602145846145902000016Mad Dash  - 01 - TIMON/LILO/WEEKENDERS (:14-:16) (                                                                          150                                
PROFAMCHA040602145902145928000026Walk Like A Man (PP) - Premiering June 11 @ 7:30pm                                                                          150                                
PRCFAMCHA040602145928145946000018Radio Free Roscoe - Webthrow (Waller)                                                                                       150                                
ID FAMCHA040602145946150000000014Mad Dash Block Open (:13-:15)                                                                                               150                                
PROFAMCHA040602150000150009000009CC Disclaimer - FAST - Family.ca (:08-:10)                                                                                  150                                
PGRFAMCHA040602150009152250002241Lion King's Timon & Pumbaa; The                   Animal Barn/Roach Motel                                              6068607ECC                              
PROFAMCHA040602152250152305000015Mad Dash  - 02 - LILO/WEEKENDERS/RECESS (:14-:16)                                                                           150                                
PROFAMCHA040602152305152331000026Walk Like A Man (PP) - Premiering June 11 @ 7:30pm                                                                          150                                
PROFAMCHA040602152331152401000030Lilo & Stitch (MAY04) - (MD) - Coming Up Next                                                                               150                                
PROFAMCHA040602152401152431000030Weekenders (MESS) - Today @ 3:50pm                                                                                          150                                
PRCFAMCHA040602152431152447000016Radio Free Roscoe - Webthrow (Smog)                                                                                         150                                
ID FAMCHA040602152447152500000013Mad Dash Block Open (:13-:15)                                                                                               150                                
PGRFAMCHA040602152500154739002239Disney's Lilo & Stitch: The Series                EPS # 32                                                            A6068607E                                
PROFAMCHA040602154739154754000015Mad Dash  - 03 - WEEKENDERS/RECESS/KIM (:14-:16)                                                                            150                                
PROFAMCHA040602154754154820000026Walk Like A Man (PP) - Premiering June 11 @ 7:30pm                                                                          150                                
ID FAMCHA040602154820154827000007Lindsay Lohan ID - You're Watching Family                                                                                   150                                
PRCFAMCHA040602154827154917000050Bullying PSA - Ongoing to September 1                                                                                       150                                
PROFAMCHA040602154917154947000030All That (NS/MAR) - Tonight @ 6pm                                                                                           150                                
ID FAMCHA040602154947155000000013Mad Dash Block Open (:13-:15)                                                                                               150                                
PROFAMCHA040602155000155010000010CC Disclaimer - FAST - Generic (:08-:10)                                                                                    150                                
PGRFAMCHA040602155010161241002231Disney's The Weekenders                           Home @ Work/To Be Or Not To Be                                      A6068607ECC                              
PROFAMCHA040602161241161257000016Mad Dash  - 04 - RECESS/KIM/PROUD (:14-:16)                                                                                 150                                
PROFAMCHA040602161257161323000026Walk Like A Man (PP) - Premiering June 11 @ 7:30pm                                                                          150                                
PROFAMCHA040602161323161353000030Recess (NOV2003) - Coming Up                                                                                                150                                
PROFAMCHA040602161353161423000030Polly Pocket (May 10 - June 6)                                                                                              150                                
INTFAMCHA040602161423161515000052Gagsters - Balloon Busters                                                                                            A20686120                                
PROFAMCHA040602161515161546000031Lizzie McGuire (MAY04) - (MD) - Today @ 5:35pm                                                                              150                                
ID FAMCHA040602161546161600000014Mad Dash Block Open (:13-:15)                                                                                               150                                
PGRFAMCHA040602161600163835002235Disney's Recess                                   Gus' Last Stand/Operation Field Trip                                 6068607E                                
PROFAMCHA040602163835163851000016Mad Dash  - 05 - KIM/PROUD/LIZZIE (:14-:16)                                                                                 150                                
PROFAMCHA040602163851163917000026Walk Like A Man (PP) - Premiering June 11 @ 7:30pm                                                                          150                                
PROFAMCHA040602163917163947000030All That (NS/MAR) - Tonight @ 6pm                                                                                           150                                
PROFAMCHA040602163947164015000028Proud Family (BOND) - (MD) - Today @ 5:05pm                                                                                 150                                
INTFAMCHA040602164015164115000100Gagsters - Ice Scream                                                                                                 A20686120                                
PROFAMCHA040602164115164146000031Lizzie McGuire (MAY04) - (MD) - Today @ 5:35pm                                                                              150                                
ID FAMCHA040602164146164200000014Mad Dash Block Open (:13-:15)                                                                                               150                                
