SO FAMCHA121201043000043011000011Sign On (oct 1)                                                                                                                                                
PGRFAMCHA121201043011045406002355Henry's World                                     EP: 13                                                        B66555 1065607ECC                              
ID FAMCHA121201045406045412000006Astral ID (HD) (Jan2011)                                                                                                    150                                
PROFAMCHA121201045412045444000032D-JR Icon Story - SWOBB - Silly Song Part 1 - Comi                                                                          150                                
PROFAMCHA121201045444045514000030D-JR Promo - On demand online REVISED - D-JR.ca (M                                                                          150                                
PROFAMCHA121201045514045520000006D-JR - Short Open (:06) (May2011)                                                                                           150                                
PROFAMCHA121201045520045717000157PH-D Short - Can You...Alligator Manners S1 - 01 -                                                                          150                                
PROFAMCHA121201045717045723000006D-JR - Short Close (:06) (May2011)                                                                                          150                                
PGRFAMCHA121201045723045823000100Sofia The First MV Lift (HD) Rise & Shine - Prems                                                                      10258120                                
PROFAMCHA121201045823045855000032D-JR Promo - Stella and Sam - Get more on the chan                                                                          150                                
PROFAMCHA121201045855045920000025D-JR Promo - JATNP - Get more on the channel REV (                                                                          150                                
PROFAMCHA121201045920045951000031D-JR Icon Story - SWOBB - Silly Song Part 2 - Now                                                                           150                                
PROFAMCHA121201045951050001000010D-JR - Flex ID - Blue (:6-:10) (Feb2012)                                                                                    150                                
PGRFAMCHA121201050001052233002232The Secret World of Benjamin Bear                 EP: 40                                                        C31763 1065607ECC                              
PROFAMCHA121201052233052240000007D-JR Live Action ID - Harry & His Dinosaurs - Comi                                                                          150                                
PROFAMCHA121201052240052305000025D-JR Live Action ID - #65 Putting Toys Away (Sept2                                                                          150                                
PROFAMCHA121201052305052352000047D-JR Promo - Mickey Once Upon A Christmas - Saturd                                                                          150                                
PROFAMCHA121201052352052358000006D-JR - Short Open (:06) (May2011)                                                                                           150                                
PROFAMCHA121201052358052628000230PH-D Short - Whiffle & Fuzz - 08 - Puppy (Jan10)                                                                            150                                
PROFAMCHA121201052628052634000006D-JR - Short Close (:06) (May2011)                                                                                          150                                
PGRFAMCHA121201052634052749000115Sofia The First MV Lift (HD) True Sisters - Prems                                                                      10258120                                
PROFAMCHA121201052749052819000030D-JR - Standalone ID - Regal (May2011)                                                                                      150                                
PROFAMCHA121201052819052854000035D-JR Promo - Handy Manny - Get more on the channel                                                                          150                                
PROFAMCHA121201052854052924000030D-JR Promo - On demand online REVISED - D-JR.ca (M                                                                          150                                
PROFAMCHA121201052924052949000025D-JR Live Action ID - #72 Family Tree Craft (Sept2                                                                          150                                
PROFAMCHA121201052949052956000007D-JR Live Action ID - Harry & His Dinosaurs - Now                                                                           150                                
PROFAMCHA121201052956053006000010D-JR - Flex ID - Yellow (:6-:10) (Feb2012)                                                                                  150                                
PGRFAMCHA121201053006055142002136Harry and His Bucket Full of Dinosaurs            EP: 05                                                        B05024 1065607ECC                              
ID FAMCHA121201055142055147000005Astral ID (HD) (Jan2011)                                                                                                    150                                
PRCFAMCHA121201055147055229000042Twistmas Night of Premieres (HD) Friday Afternoon                                                                           150                                
PROFAMCHA121201055229055412000143Good Luck Charlie It's Christmas DCOM (HD) BTS 4 -                                                                          150                                
PGRFAMCHA121201055412055718000306MV Disney (HD) Austin & Ally - A Billion Hits (con                                                                     60685120                                
PROFAMCHA121201055718055800000042xDog With A Blog (HD) Comedy Sell - Weekend Aftern                                                                          150                                
PROFAMCHA121201055800055830000030Wingin It (HD) Friend Sell Promo - Coming Up Next                                                                           150                                
PROFAMCHA121201055830055929000059xPrincess & The Frog (HD) Premieres Tonight @ 5:30                                                                          150                                
PROFAMCHA121201055929055946000017Sofia the First REVISED (HD) Tonight @ 7:05 (Dec1)                                                                          150                                
PRCFAMCHA121201055946060002000016Family Bumper Flex (HD) Flex ID Version #1 (Mar201                                                                          150                                
PGRFAMCHA121201060002062232002230Wingin' It                                        EP: 07                                                        C32356 1065607ACD                              
PROFAMCHA121201062232062331000059xPrincess & The Frog (HD) Premieres Tonight @ 5:30                                                                          150                                
PROFAMCHA121201062331062348000017Sofia the First REVISED (HD) Tonight @ 7:05 (Dec1)                                                                          150                                
PROFAMCHA121201062348062405000017xPhineas & Ferb (HD) Disney Refresh CD - This Morn                                                                          150                                
PGRFAMCHA121201062405062746000341BAW Music Video (HD) Various Artists - Stand Up (M                                                                     60688120                                
PROFAMCHA121201062746062816000030xJessie (HD) Happy Place - Weekend Mornings @ 10:3                                                                          150                                
PROFAMCHA121201062816062831000015PSA CMF (HD) Canada on Screen (Nov2012) (3x per da                                                                          150                                
PROFAMCHA121201062831062850000019SLOD (HD) Whale Clip Promo - Coming Up Next (Feb20                                                                          150                                
PROFAMCHA121201062850062947000057R5 Fly-Away Contest (HD) (November 19 - December 2                                                                          150                                
PRCFAMCHA121201062947062956000009Twistmas 2011 IDs (HD) So Random - Tiffany (Dec9-J                                                                          150                                
PGRFAMCHA121201062956065259002303The Suite Life on Deck                            EP: 02                                                               6068807BCC                              
ID FAMCHA121201065259065305000006Astral ID (HD) (Jan2011)                                                                                                    150                                
PROFAMCHA121201065305065404000059xPrincess & The Frog (HD) Premieres Tonight @ 5:30                                                                          150                                
PROFAMCHA121201065404065421000017Sofia the First REVISED (HD) Tonight @ 7:05 (Dec1)                                                                          150                                
PROFAMCHA121201065421065521000100xGravity Falls (HD) Twin Sell - This Morning @ 8:3                                                                          150                                
PGRFAMCHA121201065521065753000232MV Disney (HD) Ross Lynch - Heard it on the Radio                                                                      60685120                                
PROFAMCHA121201065753065808000015xANT Farm (HD) Refresh Ole McDonald - This Morning                                                                          150                                
PROFAMCHA121201065808065843000035Twistmas Wrap Up Voting Promo (HD) Go to family.ca                                                                          150                                
PROFAMCHA121201065843065903000020Hannah (HD) Clip Promo Pasta - Coming Up Next (Aug                                                                          150                                
PROFAMCHA121201065903065944000041Home Alone 2 (HD) Premieres Friday Night @ 8:00 (D                                                                          150                                
PRCFAMCHA121201065944065959000015Twistmas 2011 Bumpers (HD) Jet Sled (Dec9-Jan6)                                                                             150                                
PGRFAMCHA121201065959072207002208Hannah Montana                                    EP: 06                                                               6068607BCC                              
PRCFAMCHA121201072207072237000030xFOD 2012 Refresh (HD) Family.ca New Look (Apr2012                                                                          150                                
PROFAMCHA121201072237072254000017xPhineas & Ferb (HD) Disney Refresh CD - This Morn                                                                          150                                
PROFAMCHA121201072254072424000130ME: Rise of the Guardians (HD) Story 1 - Now Playi                                                                          150                                
PROFAMCHA121201072424072454000030xJessie (HD) Refresh - This Morning @ 10:30 (Sept2                                                                          150                                
PROFAMCHA121201072454072637000143Good Luck Charlie It's Christmas DCOM (HD) BTS 4 -                                                                          150                                
PROFAMCHA121201072637072750000113Shake It Up Episodic (HD) 306 - Friday Night @ 6:0                                                                          150                                
PROFAMCHA121201072750072820000030xWOWP (HD) Spellbook - Coming Up Next (Oct2011)                                                                             150                                
PROFAMCHA121201072820072919000059xPrincess & The Frog (HD) Premieres Tonight @ 5:30                                                                          150                                
PROFAMCHA121201072919072936000017Sofia the First REVISED (HD) Tonight @ 7:05 (Dec1)                                                                          150                                
PRCFAMCHA121201072936073006000030Family Bumper Flex (HD) Flex ID Version #2 (Mar201                                                                          150                                
PGRFAMCHA121201073006075241002235Disney Wizards of Waverly Place                   EP: 28                                                               6068607BCC                              
PROFAMCHA121201075241075251000010LU - 04 - PHINEAS AND FERB (HD) (:9 - :11) Jan 201                                                                          150                                
PROFAMCHA121201075251075350000059xPrincess & The Frog (HD) Premieres Tonight @ 5:30                                                                          150                                
PROFAMCHA121201075350075407000017Sofia the First REVISED (HD) Tonight @ 7:05 (Dec1)                                                                          150                                
PROFAMCHA121201075407075457000050Sony Pictures Home Entertainment                                                                                            150                                
PRCFAMCHA121201075457075520000023Gravity Falls (HD) Comedy Sell - Weekend Mornings                                                                           150                                
PROFAMCHA121201075520075617000057R5 Fly-Away Contest (HD) (November 19 - December 2                                                                          150                                
PROFAMCHA121201075617075702000045RP TOYS                                                                                                                     150                                
PROFAMCHA121201075702075720000018xGood Luck Charlie (HD) Promo 2 - This Morning @ 9                                                                          150                                
PROFAMCHA121201075720075750000030Wingin It (HD) Friend Sell Promo - Weekend Morning                                                                          150                                
PRCFAMCHA121201075750075821000031xPhineas & Ferb (HD) Disney Refresh - Coming Up Ne                                                                          150                                
PROFAMCHA121201075821075921000100Paramount Pictures                                                                                                          150                                
PRCFAMCHA121201075921080003000042Twistmas Night of Premieres (HD) Friday Afternoon                                                                           150                                
PRCFAMCHA121201080003080010000007Twistmas 2011 IDs (HD) SIU - Zendaya (Dec9-Jan6)                                                                            150                                
PGRFAMCHA121201080010082243002233Disney Phineas & Ferb                             EP: 01                                                               6068607ECC                              
ID FAMCHA121201082243082249000006Astral ID (HD) (Jan2011)                                                                                                    150                                
PROFAMCHA121201082249082348000059xPrincess & The Frog (HD) Premieres Tonight @ 5:30                                                                          150                                
PROFAMCHA121201082348082405000017Sofia the First REVISED (HD) Tonight @ 7:05 (Dec1)                                                                          150                                
PROFAMCHA121201082405082455000050Walt Disney Studios Home Entertainment                                                                                      150                                
PROFAMCHA121201082455082525000030xJessie (HD) Happy Place - This Morning @ 10:30am                                                                           150                                
PROFAMCHA121201082525082606000041xAustin & Ally (HD) Music Sell - This Morning @ 11                                                                          150                                
PROFAMCHA121201082606082636000030The Canada Group                                                                                                            150                                
PROFAMCHA121201082636082706000030xShake It Up (HD) Cee Cee Sell - Weekend Mornings                                                                           150                                
PROFAMCHA121201082706082749000043Good Luck Charlie Episodic (HD) 320 - New Episode                                                                           150                                
PROFAMCHA121201082749082849000100xGravity Falls (HD) Twin Sell - Coming Up Next (No                                                                          150                                
PROFAMCHA121201082849082934000045Activision                                                                                                                  150                                
PROFAMCHA121201082934083000000026xDog With A Blog @ family.ca (HD) Play Games at fa                                                                          150                                
PRCFAMCHA121201083000083015000015Twistmas 2011 Bumpers (HD) Pudding (Dec9-Jan6)                                                                              150                                
PGRFAMCHA121201083015085221002206Disney Gravity Falls                              EP: 11                                                               6068607ECC                              
ID FAMCHA121201085221085227000006Astral ID (HD) (Jan2011)                                                                                                    150                                
PROFAMCHA121201085227085308000041Home Alone 2 (HD) Premieres Friday Night @ 8:00 (D                                                                          150                                
PROFAMCHA121201085308085353000045Lego                                                                                                                        150                                
PROFAMCHA121201085353085423000030Wingin It (HD) Friend Sell Promo - Weekend Morning                                                                          150                                
PROFAMCHA121201085423085438000015xANT Farm (HD) Refresh Ole McDonald - This Morning                                                                          150                                
PROFAMCHA121201085438085523000045Disney Interactive                                                                                                          150                                
PROFAMCHA121201085523085553000030xGravity Falls (HD) Retag - This Afternoon @ 2:00                                                                           150                                
PROFAMCHA121201085553085620000027xDog With A Blog (HD) Kid Sell - Weekend Afternoon                                                                          150                                
PROFAMCHA121201085620085710000050Walt Disney Studios Home Entertainment                                                                                      150                                
PROFAMCHA121201085710085755000045So Random (HD) Boy Sell - Tomorrow Afternoon @ 3:3                                                                          150                                
PROFAMCHA121201085755085813000018xGood Luck Charlie (HD) Promo 2 - Coming Up Next (                                                                          150                                
PROFAMCHA121201085813085858000045RP TOYS                                                                                                                     150                                
PROFAMCHA121201085858085957000059xPrincess & The Frog (HD) Premieres Tonight @ 5:30                                                                          150                                
PROFAMCHA121201085957090014000017Sofia the First REVISED (HD) Tonight @ 7:05 (Dec1)                                                                          150                                
PRCFAMCHA121201090014090021000007Twistmas 2011 IDs (HD) SIU - Bella (Dec9-Jan6)                                                                              150                                
PGRFAMCHA121201090021092238002217Good Luck Charlie                                 EP: 08                                                               6068807BCC                              
PROFAMCHA121201092238092321000043Good Luck Charlie Episodic (HD) 320 - New Episode                                                                           150                                
PROFAMCHA121201092321092406000045RP TOYS                                                                                                                     150                                
PROFAMCHA121201092406092436000030xJessie (HD) Happy Place - Weekend Mornings @ 10:3                                                                          150                                
PROFAMCHA121201092436092606000130ME: Rise of the Guardians (HD) Story 2 - Now Playi                                                                          150                                
PROFAMCHA121201092606092639000033xAustin & Ally (HD) Music Lesson - This Morning @                                                                           150                                
PROFAMCHA121201092639092719000040Kellogg's                                                                                                                   150                                
PROFAMCHA121201092719092749000030Wingin It (HD) Friend Sell Promo - Coming Up Next                                                                           150                                
PROFAMCHA121201092749092834000045Disney Interactive                                                                                                          150                                
PROFAMCHA121201092834092933000059xPrincess & The Frog (HD) Premieres Tonight @ 5:30                                                                          150                                
PROFAMCHA121201092933092950000017Sofia the First REVISED (HD) Tonight @ 7:05 (Dec1)                                                                          150                                
PRCFAMCHA121201092950093008000018Family Bumper Flex (HD) Flex ID Version #3 (Mar201                                                                          150                                
PRCFAMCHA121201093008093021000013xDescriptive Video Slate (HD) (Jan 2011)                                                                                    150                                
PGRFAMCHA121201093021095253002232Wingin' It                                        EP: 02                                                        C32356 1065607ACD                              
PROFAMCHA121201095253095352000059xPrincess & The Frog (HD) Premieres Tonight @ 5:30                                                                          150                                
PROFAMCHA121201095352095409000017Sofia the First REVISED (HD) Tonight @ 7:05 (Dec1)                                                                          150                                
PROFAMCHA121201095409095454000045RP TOYS                                                                                                                     150                                
PROFAMCHA121201095454095527000033xAustin & Ally (HD) Music Lesson - Weekend Morning                                                                          150                                
PROFAMCHA121201095527095642000115ME: Rise of the Guardians (HD) Story 3 - Now Playi                                                                          150                                
PROFAMCHA121201095642095712000030Good Luck Charlie It's Christmas (HD) Trailer CD -                                                                          150                                
PROFAMCHA121201095712095802000050Warner Music Canada                                                                                                         150                                
PROFAMCHA121201095802095817000015PSA CMF (HD) Canada on Screen (Nov2012) (3x per da                                                                          150                                
PROFAMCHA121201095817095832000015xANT Farm (HD) Refresh Ole McDonald - Coming Up Ne                                                                          150                                
PROFAMCHA121201095832095932000100Visit Orlando                                                                                                               150                                
PRCFAMCHA121201095932100002000030xFOD 2012 Refresh (HD) Family.ca New Look (Apr2012                                                                          150                                
PRCFAMCHA121201100002100009000007Twistmas 2011 IDs (HD) GLC - Bradly (Dec9-Jan6)                                                                             150                                
PGRFAMCHA121201100009102210002201Disney A.N.T. Farm                                EP: 15                                                               6068607BCC                              
ID FAMCHA121201102210102216000006Astral ID (HD) (Jan2011)                                                                                                    150                                
PROFAMCHA121201102216102315000059xPrincess & The Frog (HD) Premieres Tonight @ 5:30                                                                          150                                
PROFAMCHA121201102315102332000017Sofia the First REVISED (HD) Tonight @ 7:05 (Dec1)                                                                          150                                
PROFAMCHA121201102332102402000030The Canada Group                                                                                                            150                                
PROFAMCHA121201102402102435000033xAustin & Ally (HD) Music Lesson - Weekend Morning                                                                          150                                
PROFAMCHA121201102435102501000026xDog With A Blog @ family.ca (HD) Play Games at fa                                                                          150                                
PROFAMCHA121201102501102545000044xPhineas & Ferb (HD) Lines - Weekend Afternoons @                                                                           150                                
PROFAMCHA121201102545102630000045RP TOYS                                                                                                                     150                                
PROFAMCHA121201102630102730000100xGravity Falls (HD) Twin Sell - Weekend Afternoons                                                                          150                                
PROFAMCHA121201102730102745000015xANT Farm (HD) Ole McDonald Retag - This Afternoon                                                                          150                                
PROFAMCHA121201102745102815000030xJessie (HD) Happy Place - Coming Up Next (May2012                                                                          150                                
PROFAMCHA121201102815102900000045RP TOYS                                                                                                                     150                                
PRCFAMCHA121201102900102942000042Twistmas Night of Premieres (HD) Friday Afternoon                                                                           150                                
PRCFAMCHA121201102942103000000018Family Bumper Flex (HD) Flex ID Version #4 (Mar201                                                                          150                                
PGRFAMCHA121201103000105250002250Disney Jessie                                     EP: 01                                                               6068807BCC                              
ID FAMCHA121201105250105256000006Astral ID (HD) (Jan2011)                                                                                                    150                                
PROFAMCHA121201105256105355000059xPrincess & The Frog (HD) Premieres Tonight @ 5:30                                                                          150                                
PROFAMCHA121201105355105412000017Sofia the First REVISED (HD) Tonight @ 7:05 (Dec1)                                                                          150                                
PROFAMCHA121201105412105457000045Feld Entertainment                                                                                                          150                                
PROFAMCHA121201105457105527000030xJessie (HD) Refresh - This Afternoon @ 4:00 (Sept                                                                          150                                
PROFAMCHA121201105527105607000040Kellogg's                                                                                                                   150                                
PROFAMCHA121201105607105634000027xDog With A Blog (HD) Kid Sell - Weekend Afternoon                                                                          150                                
PROFAMCHA121201105634105707000033xAustin & Ally (HD) Music Lesson - Coming Up Next                                                                           150                                
PROFAMCHA121201105707105752000045So Random (HD) Boy Sell - Tomorrow Afternoon @ 3:3                                                                          150                                
PROFAMCHA121201105752105837000045Lego                                                                                                                        150                                
PROFAMCHA121201105837105950000113Shake It Up Episodic (HD) 306 - Friday Night @ 6:0                                                                          150                                
PRCFAMCHA121201105950110005000015Twistmas 2011 Bumpers (HD) Sky Diving (Dec9-Jan6)                                                                           150                                
PGRFAMCHA121201110005112340002335Disney Austin & Ally                              EP: 02                                                               6068807BCC                              
PROFAMCHA121201112340112350000010LU(SS) - 08 - SIU/Popcorn Pix @ 12:00pm (HD) (:9 -                                                                          150                                
PROFAMCHA121201112350112425000035Twistmas Wrap Up Voting Promo (HD) Go to family.ca                                                                          150                                
PROFAMCHA121201112425112515000050Walt Disney Studios Home Entertainment                                                                                      150                                
PROFAMCHA121201112515112545000030Good Luck Charlie It's Christmas (HD) Trailer CD -                                                                          150                                
PROFAMCHA121201112545112629000044xPhineas & Ferb (HD) Lines - Weekend Afternoons @                                                                           150                                
PROFAMCHA121201112629112649000020The Canada Group                                                                                                            150                                
PROFAMCHA121201112649112722000033xAustin & Ally (HD) Music Lesson - Weekend Morning                                                                          150                                
PROFAMCHA121201112722112752000030xShake It Up (HD) Cee Cee Sell - Coming Up Next (J                                                                          150                                
PROFAMCHA121201112752112837000045RP TOYS                                                                                                                     150                                
PROFAMCHA121201112837112936000059xPrincess & The Frog (HD) Premieres Tonight @ 5:30                                                                          150                                
PROFAMCHA121201112936112953000017Sofia the First REVISED (HD) Tonight @ 7:05 (Dec1)                                                                          150                                
PRCFAMCHA121201112953113008000015Twistmas 2011 Bumpers (HD) Blackhole (Dec9-Jan6)                                                                            150                                
PGRFAMCHA121201113008115314002306Disney Shake It Up                                EP: 01                                                               6068707BCC                              
PROFAMCHA121201115314115413000059xPrincess & The Frog (HD) Premieres Tonight @ 5:30                                                                          150                                
PROFAMCHA121201115413115430000017Sofia the First REVISED (HD) Tonight @ 7:05 (Dec1)                                                                          150                                
PROFAMCHA121201115430115515000045RP TOYS                                                                                                                     150                                
PROFAMCHA121201115515115545000030xGravity Falls (HD) Retag - This Afternoon @ 2:00                                                                           150                                
PROFAMCHA121201115545115630000045Activision                                                                                                                  150                                
PROFAMCHA121201115630115700000030xJessie (HD) Refresh - This Afternoon @ 4:00 (Sept                                                                          150                                
PROFAMCHA121201115700115716000016xShake It Up (HD) Refresh CD - Weekend Afternoons                                                                           150                                
PROFAMCHA121201115716115736000020The Canada Group                                                                                                            150                                
PROFAMCHA121201115736115803000027xDog With A Blog (HD) Kid Sell - Weekend Afternoon                                                                          150                                
PROFAMCHA121201115803115828000025D-JR Promo - JATNP - Get more on the channel REV (                                                                          150                                
PROFAMCHA121201115828115928000100Feld Entertainment                                                                                                          150                                
PROFAMCHA121201115928115958000030Good Luck Charlie It's Christmas (HD) Trailer CD -                                                                          150                                
ID FAMCHA121201115958120013000015Popcorn Pix Block Open (HD)  (Jan2011)                                                                                      150                                
ID FAMCHA121201120013120022000009Popcorn Pix Rating Slate (HD) - G (Jan 2011)                                                                                150                                
ID FAMCHA121201120022120027000005xMagic of Disney Bumper (HD)(:5-:6) (Jan 2011)                                                                              150                                
PGRFAMCHA121201120027132038012011Good Luck Charlie, It's Christmas!                                                                                    A6068807CCC                              
PROFAMCHA121201132038132121000043Good Luck Charlie Episodic (HD) 320 - New Episode                                                                           150                                
PRCFAMCHA121201132121132129000008Twistmas 2011 IDs (HD) ANT Farm - Jake (Dec9-Jan6)                                                                          150                                
PGRFAMCHA121201132129132757000628Tangled Ever After – The Wedding Short                                                                                 6068607ECC                              
PROFAMCHA121201132757132807000010LU - 04 - PHINEAS AND FERB (HD) (:9 - :11) Jan 201                                                                          150                                
PROFAMCHA121201132807132906000059xPrincess & The Frog (HD) Premieres Tonight @ 5:30                                                                          150                                
PROFAMCHA121201132906132923000017Sofia the First REVISED (HD) Tonight @ 7:05 (Dec1)                                                                          150                                
PROFAMCHA121201132923132938000015xJessie (HD) Refresh CD - This Afternoon @ 4:00 (S                                                                          150                                
PRCFAMCHA121201132938133009000031xPhineas & Ferb (HD) Disney Refresh - Coming Up Ne                                                                          150                                
PRCFAMCHA121201133009133016000007Twistmas 2011 IDs (HD) GLC - Bridgette (Dec9-Jan6)                                                                          150                                
PGRFAMCHA121201133016135247002231Disney Phineas & Ferb                             EP: 03                                                               6068607ECC                              
ID FAMCHA121201135247135252000005Astral ID (HD) (Jan2011)                                                                                                    150                                
PROFAMCHA121201135252135333000041Home Alone 2 (HD) Premieres Friday Night @ 8:00 (D                                                                          150                                
PROFAMCHA121201135333135418000045RP TOYS                                                                                                                     150                                
PROFAMCHA121201135418135433000015xANT Farm (HD) Ole McDonald Retag - Weekend Aftern                                                                          150                                
PROFAMCHA121201135433135508000035Twistmas Wrap Up Voting Promo (HD) Go to family.ca                                                                          150                                
PROFAMCHA121201135508135536000028Good Luck Charlie (HD) Promo 3 - This Afternoon @                                                                           150                                
PROFAMCHA121201135536135648000112xSWAC (HD) Repack - This Afternoon @ 3:30 (Jun2011                                                                          150                                
PROFAMCHA121201135648135748000100xGravity Falls (HD) Twin Sell - Coming Up Next (No                                                                          150                                
PROFAMCHA121201135748135833000045RP TOYS                                                                                                                     150                                
PROFAMCHA121201135833135932000059xPrincess & The Frog (HD) Premieres Tonight @ 5:30                                                                          150                                
PROFAMCHA121201135932135949000017Sofia the First REVISED (HD) Tonight @ 7:05 (Dec1)                                                                          150                                
PRCFAMCHA121201135949140007000018Family Bumper Flex (HD) Flex ID Version #4 (Mar201                                                                          150                                
PGRFAMCHA121201140007142242002235Disney Gravity Falls                              EP: 06                                                               6068607ECC                              
ID FAMCHA121201142242142247000005Astral ID (HD) (Jan2011)                                                                                                    150                                
PROFAMCHA121201142247142346000059xPrincess & The Frog (HD) Premieres Tonight @ 5:30                                                                          150                                
PROFAMCHA121201142346142403000017Sofia the First REVISED (HD) Tonight @ 7:05 (Dec1)                                                                          150                                
PROFAMCHA121201142403142445000042xDog With A Blog (HD) Comedy Sell - This Afternoon                                                                          150                                
PROFAMCHA121201142445142615000130ME: Rise of the Guardians (HD) Story 1 - Now Playi                                                                          150                                
PROFAMCHA121201142615142645000030xJessie (HD) Refresh - Weekend Afternoons @ 4:00 (                                                                          150                                
PROFAMCHA121201142645142745000100xGravity Falls (HD) Twin Sell - Weekend Mornings @                                                                          150                                
PROFAMCHA121201142745142829000044Phineas & Ferb (HD) Lines - Weekday Afternoons @ 4                                                                          150                                
PROFAMCHA121201142829142912000043xANT Farm (HD) Refresh Ole McDonald (Long) - Comin                                                                          150                                
PRCFAMCHA121201142912142954000042Twistmas Night of Premieres (HD) Friday Afternoon                                                                           150                                
PRCFAMCHA121201142954143009000015Twistmas 2011 Bumpers (HD) Jet Sled (Dec9-Jan6)                                                                             150                                
PGRFAMCHA121201143009145143002134Disney A.N.T. Farm                                EP: 11                                                               6068607BCC                              
PROFAMCHA121201145143145153000010LU(SS) - 13 - GLC/SWAC @ 3:30pm (HD) Saturdays (:9                                                                          150                                
PROFAMCHA121201145153145250000057R5 Fly-Away Contest (HD) (November 19 - December 2                                                                          150                                
PROFAMCHA121201145250145350000100xGravity Falls (HD) Twin Sell - Weekend Mornings @                                                                          150                                
PGRFAMCHA121201145350145731000341BAW Music Video (HD) Various Artists - Stand Up (M                                                                     60688120                                
PROFAMCHA121201145731145814000043xANT Farm (HD) Refresh Ole McDonald (Long) - Weeke                                                                          150                                
PROFAMCHA121201145814145842000028Good Luck Charlie (HD) Promo 3 - Coming Up Next (S                                                                          150                                
PROFAMCHA121201145842145941000059xPrincess & The Frog (HD) Premieres Tonight @ 5:30                                                                          150                                
PROFAMCHA121201145941145958000017Sofia the First REVISED (HD) Tonight @ 7:05 (Dec1)                                                                          150                                
PRCFAMCHA121201145958150013000015Twistmas 2011 Bumpers (HD) Jet Sled (Dec9-Jan6)                                                                             150                                
PGRFAMCHA121201150013152348002335Good Luck Charlie                                 EP: 15                                                               6068807BCC                              
ID FAMCHA121201152348152354000006Astral ID (HD) (Jan2011)                                                                                                    150                                
PROFAMCHA121201152354152453000059xPrincess & The Frog (HD) Premieres Tonight @ 5:30                                                                          150                                
PROFAMCHA121201152453152510000017Sofia the First REVISED (HD) Tonight @ 7:05 (Dec1)                                                                          150                                
PROFAMCHA121201152510152530000020The Canada Group                                                                                                            150                                
PROFAMCHA121201152530152557000027xDog With A Blog (HD) Kid Sell - This Afternoon @                                                                           150                                
PROFAMCHA121201152557152640000043Good Luck Charlie Episodic (HD) 320 - New Episode                                                                           150                                
PROFAMCHA121201152640152725000045Activision                                                                                                                  150                                
PROFAMCHA121201152725152838000113Shake It Up Episodic (HD) 306 - Friday Night @ 6:0                                                                          150                                
PROFAMCHA121201152838152844000006SWAC (HD) ID - Demi Lovato 7 "Coming Up Next" (gen                                                                          150                                
PROFAMCHA121201152844152929000045RP TOYS                                                                                                                     150                                
PROFAMCHA121201152929153004000035Twistmas Wrap Up Voting Promo (HD) Go to family.ca                                                                          150                                
PRCFAMCHA121201153004153011000007Twistmas 2011 IDs (HD) SIU - Adam (Dec9-Jan6)                                                                               150                                
PGRFAMCHA121201153011155242002231Sonny With A Chance                               EP: 18                                                               6068607BCC                              
PROFAMCHA121201155242155308000026xDog With A Blog @ family.ca (HD) Play Games at fa                                                                          150                                
PROFAMCHA121201155308155353000045RP TOYS                                                                                                                     150                                
PROFAMCHA121201155353155409000016xShake It Up (HD) Refresh CD - This Afternoon @ 5:                                                                          150                                
PROFAMCHA121201155409155521000112xSWAC (HD) Repack - Weekend Nights @ 8:00 (Jun2011                                                                          150                                
PROFAMCHA121201155521155606000045RP TOYS                                                                                                                     150                                
PROFAMCHA121201155606155636000030Wingin It (HD) Friend Sell Promo - Weekend Morning                                                                          150                                
PROFAMCHA121201155636155717000041Home Alone 2 (HD) Premieres Friday Night @ 8:00 (D                                                                          150                                
PROFAMCHA121201155717155732000015xJessie (HD) Refresh CD - Coming Up Next (Sept2012                                                                          150                                
PROFAMCHA121201155732155832000100Paramount Pictures                                                                                                          150                                
PROFAMCHA121201155832155931000059xPrincess & The Frog (HD) Premieres Tonight @ 5:30                                                                          150                                
PROFAMCHA121201155931155948000017Sofia the First REVISED (HD) Tonight @ 7:05 (Dec1)                                                                          150                                
PRCFAMCHA121201155948160005000017Family Bumper Flex (HD) Flex ID Version #1 (Mar201                                                                          150                                
PGRFAMCHA121201160005162238002233Disney Jessie                                     EP: 15                                                               6068807BCC                              
PROFAMCHA121201162238162337000059xPrincess & The Frog (HD) Premieres Tonight @ 5:30                                                                          150                                
PROFAMCHA121201162337162354000017Sofia the First REVISED (HD) Tonight @ 7:05 (Dec1)                                                                          150                                
PROFAMCHA121201162354162439000045RP TOYS                                                                                                                     150                                
PROFAMCHA121201162439162509000030xShake It Up (HD) Cee Cee Sell - Weekend Afternoon                                                                          150                                
PGRFAMCHA121201162509162815000306MV Disney (HD) Austin & Ally - A Billion Hits (con                                                                     60685120                                
PROFAMCHA121201162815162900000045xSo Random (HD) Super Tease Promo - Tonight @ 8:30                                                                          150                                
PROFAMCHA121201162900162945000045Activision                                                                                                                  150                                
PROFAMCHA121201162945162958000013Dog with a Blog (HD) Urgency Spot - Coming Up Next                                                                          150                                
PRCFAMCHA121201162958163006000008Twistmas 2011 IDs (HD) ANT Farm - Jake (Dec9-Jan6)                                                                          150                                
PGRFAMCHA121201163006165154002148Disney Dog With A Blog                            EP: 02                                                               6068807BCC                              
PROFAMCHA121201165154165220000026xDog With A Blog @ family.ca (HD) Play Games at fa                                                                          150                                
PROFAMCHA121201165220165300000040Kellogg's                                                                                                                   150                                
PROFAMCHA121201165300165344000044Phineas & Ferb (HD) Lines - Weekend Mornings @ 8:0                                                                          150                                
PROFAMCHA121201165344165514000130ME: Rise of the Guardians (HD) Story 2 - Now Playi                                                                          150                                
PROFAMCHA121201165514165544000030Wingin It (HD) Friend Sell Promo - Weekend Morning                                                                          150                                
PROFAMCHA121201165544165629000045RP TOYS                                                                                                                     150                                
PROFAMCHA121201165629165644000015xANT Farm (HD) Refresh Ole McDonald - Weekend Morn                                                                          150                                
PROFAMCHA121201165644165729000045So Random (HD) Boy Sell - Sunday Afternoon @ 3:30                                                                           150                                
PROFAMCHA121201165729165745000016xShake It Up (HD) Refresh CD - Coming Up Next (Sep                                                                          150                                
PROFAMCHA121201165745165845000100Visit Orlando                                                                                                               150                                
PROFAMCHA121201165845165944000059xPrincess & The Frog (HD) Premieres Tonight @ 5:30                                                                          150                                
PROFAMCHA121201165944170001000017Sofia the First REVISED (HD) Tonight @ 7:05 (Dec1)                                                                          150                                
PRCFAMCHA121201170001170009000008Twistmas 2011 IDs (HD) GLC - Jason (Dec9-Jan6)                                                                              150                                
PGRFAMCHA121201170009172158002149Disney Shake It Up                                EP: 26                                                               6068707BCC                              
PRCFAMCHA121201172158172240000042Twistmas Night of Premieres (HD) Friday Afternoon                                                                           150                                
PROFAMCHA121201172240172310000030The Canada Group                                                                                                            150                                
PROFAMCHA121201172310172340000030xGravity Falls (HD) Retag - Weekend Afternoons @ 2                                                                          150                                
PGRFAMCHA121201172340172612000232MV Disney (HD) Ross Lynch - Heard it on the Radio                                                                      60685120                                
PROFAMCHA121201172612172725000113Shake It Up Episodic (HD) 306 - Friday Night @ 6:0                                                                          150                                
PROFAMCHA121201172725172752000027Doc McStuffins - Get more Doc on D-JR the channel                                                                           150                                
PROFAMCHA121201172752172851000059xPrincess & The Frog (HD) Premieres Next (Dec1)                                                                             150                                
PROFAMCHA121201172851172936000045Lego                                                                                                                        150                                
PROFAMCHA121201172936172953000017Sofia the First REVISED (HD) Tonight @ 7:05 (Dec1)                                                                          150                                
ID FAMCHA121201172953173008000015Popcorn Pix Block Open (HD)  (Jan2011)                                                                                      150                                
ID FAMCHA121201173008173018000010Popcorn Pix Rating Slate (HD) - PG (Jan 2011)                                                                               150                                
PGRFAMCHA121201173018190743013725The Princess and the Frog                                                                                             A6028807DCC                              
PROFAMCHA121201190743190800000017Sofia the First REVISED (HD) Coming Up Next (Dec1)                                                                          150                                
PRCFAMCHA121201190800190808000008Twistmas 2011 IDs (HD) SIU - Zendaya (Dec9-Jan6)                                                                            150                                
PGRFAMCHA121201190808195541004733Sofia the First: Once Upon A Princess             EP: 99                                                               6028605ACC                              
PROFAMCHA121201195541195626000045RP TOYS                                                                                                                     150                                
PROFAMCHA121201195626195711000045Sofia the First Sizzle (HD) Coming This January to                                                                          150                                
PROFAMCHA121201195711195726000015xJessie (HD) Refresh CD - Weekend Mornings @ 10:30                                                                          150                                
PROFAMCHA121201195726195743000017Phineas & Ferb (HD) Disney Refresh CD - Weekday Af                                                                          150                                
PROFAMCHA121201195743195826000043Good Luck Charlie Episodic (HD) 320 - New Episode                                                                           150                                
PROFAMCHA121201195826195851000025D-JR Promo - JATNP - Get more on the channel REV (                                                                          150                                
PROFAMCHA121201195851195951000100Visit Orlando                                                                                                               150                                
PROFAMCHA121201195951195958000007SWAC (HD) ID - Tiffany Thorton 1 "Coming Up Next"                                                                           150                                
PRCFAMCHA121201195958200006000008Twistmas 2011 IDs (HD) ANT Farm - Jake (Dec9-Jan6)                                                                          150                                
PGRFAMCHA121201200006202310002304Sonny With A Chance                               EP: 03                                                               6068607BCC                              
ID FAMCHA121201202310202315000005Astral ID (HD) (Jan2011)                                                                                                    150                                
PROFAMCHA121201202315202355000040xChristmas with the Kranks (HD) Tomorrow @ Noon (N                                                                          150                                
PROFAMCHA121201202355202445000050E One Films - Family/Home Entertainment                                                                                     150                                
PROFAMCHA121201202445202500000015xJessie (HD) Refresh CD - Weekend Mornings @ 10:30                                                                          150                                
PROFAMCHA121201202500202530000030xGravity Falls (HD) Retag - Weekend Afternoons @ 2                                                                          150                                
PROFAMCHA121201202530202615000045RP TOYS                                                                                                                     150                                
PROFAMCHA121201202615202631000016xShake It Up (HD) Refresh CD - Weekend Afternoons                                                                           150                                
PROFAMCHA121201202631202648000017Phineas & Ferb (HD) Disney Refresh CD - Weekday Af                                                                          150                                
PROFAMCHA121201202648202733000045Lego                                                                                                                        150                                
PROFAMCHA121201202733202805000032xSo Random Int (HD) Brandon Smith - Coming Up Next                                                                          150                                
PROFAMCHA121201202805202855000050Warner Music Canada                                                                                                         150                                
PRCFAMCHA121201202855202937000042Twistmas Night of Premieres (HD) Friday Afternoon                                                                           150                                
PRCFAMCHA121201202937203007000030Family Bumper Flex (HD) Flex ID Version #4 (Mar201                                                                          150                                
PGRFAMCHA121201203007205242002235So Random!                                        EP: 25                                                               6068807BCC                              
ID FAMCHA121201205242205247000005Astral ID (HD) (Jan2011)                                                                                                    150                                
PROFAMCHA121201205247205327000040xChristmas with the Kranks (HD) Tomorrow @ Noon (N                                                                          150                                
PROFAMCHA121201205327205412000045RP TOYS                                                                                                                     150                                
PROFAMCHA121201205412205442000030xSo Random (HD) Girl Sell - Tomorrow Afternoon @ 3                                                                          150                                
PROFAMCHA121201205442205457000015xANT Farm (HD) Ole McDonald Retag - Weekend Aftern                                                                          150                                
PROFAMCHA121201205457205542000045RP TOYS                                                                                                                     150                                
PROFAMCHA121201205542205625000043Good Luck Charlie Episodic (HD) 320 - New Episode                                                                           150                                
PROFAMCHA121201205625205710000045RP TOYS                                                                                                                     150                                
PROFAMCHA121201205710205823000113Shake It Up Episodic (HD) 306 - Friday Night @ 6:0                                                                          150                                
PROFAMCHA121201205823205848000025D-JR Promo - JATNP - Get more on the channel REV (                                                                          150                                
PROFAMCHA121201205848205928000040Kellogg's                                                                                                                   150                                
PRCFAMCHA121201205928205958000030xFOD 2012 Refresh (HD) Family.ca New Look (Apr2012                                                                          150                                
ID FAMCHA121201205958210013000015Popcorn Pix Block Open (HD)  (Jan2011)                                                                                      150                                
ID FAMCHA121201210013210022000009Popcorn Pix Rating Slate (HD) - G (Jan 2011)                                                                                150                                
PGRFAMCHA121201210022223616013554The Perfect Holiday                                                                                                   A2068507DCC                              
PROFAMCHA121201223616223631000015xJessie (HD) Refresh CD - Weekend Mornings @ 10:30                                                                          150                                
ID FAMCHA121201223631223646000015Popcorn Pix Block Open (HD)  (Jan2011)                                                                                      150                                
ID FAMCHA121201223646223655000009Popcorn Pix Rating Slate (HD) - G (Jan 2011)                                                                                150                                
PGRFAMCHA121201223655235945012250The Cheetah Girls One World                                                                                           A6068807CCC                              
PROFAMCHA121201235945000015000030xLatest Buzz (HD) Loco Oct.09 - Coming Up Next (Ja                                                                          150                                
PRCFAMCHA121201000015000023000008Twistmas 2011 IDs (HD) So Random - Tiffany (Dec9-J                                                                          150                                
PGRFAMCHA121201000023002258002235Latest Buzz II                                    EP: 18                                                        C29635 1065607BCC                              
PROFAMCHA121201002258002333000035Twistmas Wrap Up Voting Promo (HD) Go to family.ca                                                                          150                                
PGRFAMCHA121201002333002714000341BAW Music Video (HD) Various Artists - Stand Up (M                                                                     60688120                                
PROFAMCHA121201002714002827000113Shake It Up Episodic (HD) 306 - Friday Night @ 6:0                                                                          150                                
PROFAMCHA121201002827002914000047xOverruled! (HD) Refresh - Coming Up Next (Jan2011                                                                          150                                
PROFAMCHA121201002914002955000041Home Alone 2 (HD) Premieres Friday Night @ 8:00 (D                                                                          150                                
PRCFAMCHA121201002955003011000016Family Bumper Flex (HD) Flex ID Version #2 (Mar201                                                                          150                                
PGRFAMCHA121201003011005241002230Overruled!                                        EP: 11                                                        C30129 1065607BCC                              
ID FAMCHA121201005241005247000006Astral ID (HD) (Jan2011)                                                                                                    150                                
PROFAMCHA121201005247005344000057R5 Fly-Away Contest (HD) (November 19 - December 2                                                                          150                                
PROFAMCHA121201005344005402000018xGood Luck Charlie (HD) Promo 2 - Weekend Mornings                                                                          150                                
PROFAMCHA121201005402005442000040xChristmas with the Kranks (HD) Tomorrow @ Noon (N                                                                          150                                
PGRFAMCHA121201005442005802000320MV Non Disney (HD) Conor Maynard - Vegas Girl (Cle                                                                     10615120                                
PROFAMCHA121201005802005819000017Phineas & Ferb (HD) Disney Refresh CD - Weekday Af                                                                          150                                
PROFAMCHA121201005819005834000015PSA CMF (HD) Canada on Screen (Nov2012) (3x per da                                                                          150                                
PROFAMCHA121201005834005909000035xDEBRA! (HD) Hypotenuse Promo - Coming Up Next (De                                                                          150                                
PROFAMCHA121201005909005935000026xDog With A Blog @ family.ca (HD) Play Games at fa                                                                          150                                
PRCFAMCHA121201005935010005000030Family Bumper Flex (HD) Flex ID Version #3 (Mar201                                                                          150                                
PGRFAMCHA121201010005012237002232DEBRA!                                            EP: 01                                                        C35763 1065607ACD                              
ID FAMCHA121201012237012243000006Astral ID (HD) (Jan2011)                                                                                                    150                                
PRCFAMCHA121201012243012250000007Twistmas 2011 IDs (HD) GLC - Bridgette (Dec9-Jan6)                                                                          150                                
PGRFAMCHA121201012250014453002203Disney JONAS L.A.                                 EP: 03                                                               6068707BCC                              
PRCFAMCHA121201014453014500000007Twistmas 2011 IDs (HD) So Random - Tiffany (Dec9-J                                                                          150                                
ID FAMCHA121201014500014505000005xMagic of Disney Bumper (HD)(:5-:6) (Jan 2011)                                                                              150                                
PGRFAMCHA121201014505020742002237Phil of the Future                                EP: 34                                                               6068607BCC                              
ID FAMCHA121201020742020747000005Astral ID (HD) (Jan2011)                                                                                                    150                                
PRCFAMCHA121201020747020817000030Family Bumper Flex (HD) Flex ID Version #1 (Mar201                                                                          150                                
PGRFAMCHA121201020817023256002439The Elephant Princess                             EP: 11                                                               7068507ACC                              
ID FAMCHA121201023256023302000006Astral ID (HD) (Jan2011)                                                                                                    150                                
PROFAMCHA121201023302023312000010LU - 37 - DEREK/CORY 2:55am (HD) (:9 - :11) Jan201                                                                          150                                
PRCFAMCHA121201023312023327000015Twistmas 2011 Bumpers (HD) Sky Diving (Dec9-Jan6)                                                                           150                                
PGRFAMCHA121201023327025557002230Life with Derek                                   EP: 10                                                        C26822 1065607BCC                              
PRCFAMCHA121201025557025604000007Twistmas 2011 IDs (HD) GLC - Bradly (Dec9-Jan6)                                                                             150                                
PGRFAMCHA121201025604031843002239Disney Cory in the House                          EP: 12                                                               6068607BCC                              
ID FAMCHA121201031843031848000005Astral ID (HD) (Jan2011)                                                                                                    150                                
PRCFAMCHA121201031848031918000030Family Bumper Flex (HD) Flex ID Version #4 (Mar201                                                                          150                                
PGRFAMCHA121201031918034149002231Overruled!                                        EP: 06                                                        C28762 1065607ACC                              
PRCFAMCHA121201034149034204000015Twistmas 2011 Bumpers (HD) Blackhole (Dec9-Jan6)                                                                            150                                
PGRFAMCHA121201034204040439002235Latest Buzz II                                    EP: 14                                                        C29635 1065607BCC                              
ID FAMCHA121201040439040445000006Astral ID (HD) (Jan2011)                                                                                                    150                                
PROFAMCHA121201040445040455000010LU - 41 - LIFE WITH DEREK (HD) (:9 - :11) Jan2011                                                                           150                                
PRCFAMCHA121201040455040522000027Family Bumper Flex (HD) Flex ID Version #3 (Mar201                                                                          150                                
PGRFAMCHA121201040522042752002230Life with Derek                                   EP: 03                                                        C23968A1065607BCC                              
ID FAMCHA121201042752042758000006Astral ID (HD) (Jan2011)                                                                                                    150                                
PROFAMCHA121201042758042828000030D-JR Promo - On demand online REVISED - D-JR.ca (M                                                                          150                                
PROFAMCHA121201042828042903000035D-JR Promo - Handy Manny - Get more on the channel                                                                          150                                
PROFAMCHA121201042903042950000047D-JR Promo - Mickey Once Upon A Christmas - Saturd                                                                          150                                
PROFAMCHA121201042950042959000009D-JR - Flex ID - Green (:6-:10) (Feb2012)                                                                                   150                                
OFFFAMCHA121201042959043000000001OFF AIR                                                                                                                                                        
SO FAMCHA121202043000043011000011Sign On (oct 1)                                                                                                                                                
PGRFAMCHA121202043011045406002355Henry's World                                     EP: 01                                                        B66543 1065607ECC                              
ID FAMCHA121202045406045411000005Astral ID (HD) (Jan2011)                                                                                                    150                                
PROFAMCHA121202045411045418000007D-JR Live Action ID - SWOBB - Coming Up (May2012)                                                                           150                                
PROFAMCHA121202045418045443000025D-JR Live Action ID - #45 Sorting Socks (May2012)                                                                           150                                
PROFAMCHA121202045443045513000030D-JR Promo - On demand online REVISED - D-JR.ca (M                                                                          150                                
PROFAMCHA121202045513045523000010D-JR - Short Open (:10) (May2011)                                                                                           150                                
PROFAMCHA121202045523045752000229PH-D Short - Whiffle & Fuzz - 03 - Piglet (Jan10)                                                                           150                                
PROFAMCHA121202045752045758000006D-JR - Short Close (:06) (May2011)                                                                                          150                                
PROFAMCHA121202045758045833000035D-JR Promo - Handy Manny - Get more on the channel                                                                          150                                
PROFAMCHA121202045833045923000050D-JR Promo - Mickey's Twice Upon A Christmas - Sat                                                                          150                                
PROFAMCHA121202045923045948000025D-JR Live Action ID - #29 Put Shoes On (Sept2012)                                                                           150                                
PROFAMCHA121202045948045955000007D-JR Live Action ID - SWOBB - Now (May2012)                                                                                 150                                
PROFAMCHA121202045955050005000010D-JR - Flex ID - Green (:6-:10) (Feb2012)                                                                                   150                                
PGRFAMCHA121202050005052241002236The Secret World of Benjamin Bear                 EPS # 1-005                                                   B75150 1065607ECC                              
PROFAMCHA121202052241052313000032D-JR Icon Story - Harry & His Bucket - Maze Part 1                                                                          150                                
PROFAMCHA121202052313052403000050D-JR Promo - Mickey's Twice Upon A Christmas - Sat                                                                          150                                
PROFAMCHA121202052403052413000010D-JR - Short Open (:10) (May2011)                                                                                           150                                
PROFAMCHA121202052413052642000229PH-D Short - Whiffle & Fuzz - 07 - Fish (Jan10)                                                                             150                                
PROFAMCHA121202052642052648000006D-JR - Short Close (:06) (May2011)                                                                                          150                                
PROFAMCHA121202052648052715000027Doc McStuffins - Get more Doc on D-JR the channel                                                                           150                                
PROFAMCHA121202052715052740000025D-JR Promo - JATNP - Get more on the channel REV (                                                                          150                                
PROFAMCHA121202052740052810000030D-JR - Standalone ID - Light Parade (May2011)                                                                               150                                
PROFAMCHA121202052810052840000030D-JR Promo - MMCH - Get more MMCH on D-JR the chan                                                                          150                                
PROFAMCHA121202052840052912000032D-JR Promo - Stella and Sam - Get more on the chan                                                                          150                                
PROFAMCHA121202052912052942000030D-JR Promo - On demand online REVISED - D-JR.ca (M                                                                          150                                
PROFAMCHA121202052942053012000030D-JR Icon Story - Harry & His Bucket - Maze Part 2                                                                          150                                
PROFAMCHA121202053012053022000010D-JR - Flex ID - Blue (:6-:10) (Feb2012)                                                                                    150                                
PGRFAMCHA121202053022055158002136Harry and His Bucket Full of Dinosaurs            EP: 06                                                        B05025 1065607ECC                              
ID FAMCHA121202055158055203000005Astral ID (HD) (Jan2011)                                                                                                    150                                
PRCFAMCHA121202055203055233000030xFOD 2012 Refresh (HD) Family.ca New Look (Apr2012                                                                          150                                
PROFAMCHA121202055233055303000030xSLOD (HD) Retag - Weekend Mornings @ 6:30 (Jun201                                                                          150                                
PGRFAMCHA121202055303055616000313MV Non Disney (HD) Veronica - Santa Is Coming To T                                                                     10215120CC                              
PROFAMCHA121202055616055644000028Good Luck Charlie (HD) Promo 3 - This Morning @ 9:                                                                          150                                
PROFAMCHA121202055644055759000115xANT Farm (HD) Music Video - This Morning @ 10:00                                                                           150                                
PROFAMCHA121202055759055832000033xAustin & Ally (HD) Music Lesson - This Morning @                                                                           150                                
PROFAMCHA121202055832055902000030Wingin It (HD) Friend Sell Promo - Coming Up Next                                                                           150                                
PROFAMCHA121202055902055942000040xChristmas with the Kranks (HD) Today @ Noon (Nov2                                                                          150                                
PRCFAMCHA121202055942055959000017Family Bumper Flex (HD) Flex ID Version #4 (Mar201                                                                          150                                
PGRFAMCHA121202055959062230002231Wingin' It                                        EP: 06                                                        C32356 1065607ACD                              
PROFAMCHA121202062230062327000057R5 Fly-Away Contest (HD) (November 19 - December 2                                                                          150                                
PROFAMCHA121202062327062411000044Phineas & Ferb (HD) Lines - Weekend Mornings @ 8:0                                                                          150                                
PGRFAMCHA121202062411062719000308MV Non Disney (HD) Victoria Duffield ft Cody-They                                                                      10615120CC                              
PROFAMCHA121202062719062749000030xShake It Up (HD) Cee Cee Sell - Weekend Mornings                                                                           150                                
PROFAMCHA121202062749062832000043Good Luck Charlie Episodic (HD) 320 - New Episode                                                                           150                                
PROFAMCHA121202062832062902000030xSLOD (HD) Sandwich - Coming Up Next (April2012)                                                                            150                                
PROFAMCHA121202062902062943000041Home Alone 2 (HD) Premieres Friday Night @ 8:00 (D                                                                          150                                
PRCFAMCHA121202062943062958000015Twistmas 2011 Bumpers (HD) Blackhole (Dec9-Jan6)                                                                            150                                
PGRFAMCHA121202062958065232002234The Suite Life on Deck                            EP: 03                                                               6068807BCC                              
ID FAMCHA121202065232065238000006Astral ID (HD) (Jan2011)                                                                                                    150                                
PROFAMCHA121202065238065351000113Shake It Up Episodic (HD) 306 - Friday Night @ 6:0                                                                          150                                
PROFAMCHA121202065351065417000026xDog With A Blog @ family.ca (HD) Play Games at fa                                                                          150                                
PROFAMCHA121202065417065517000100xGravity Falls (HD) Twin Sell - This Morning @ 8:3                                                                          150                                
PGRFAMCHA121202065517065823000306MV Disney (HD) Austin & Ally - A Billion Hits (con                                                                     60685120                                
PROFAMCHA121202065823065853000030Wingin It (HD) Friend Sell Promo - Weekend Morning                                                                          150                                
PROFAMCHA121202065853065913000020Hannah (HD) Clip Promo Pasta - Coming Up Next (Aug                                                                          150                                
PROFAMCHA121202065913065953000040xChristmas with the Kranks (HD) Today @ Noon (Nov2                                                                          150                                
PRCFAMCHA121202065953070009000016Family Bumper Flex (HD) Flex ID - Really Me Chest                                                                           150                                
PGRFAMCHA121202070009072241002232Hannah Montana                                    EP: 11                                                               6068607BCC                              
PROFAMCHA121202072241072322000041Home Alone 2 (HD) Premieres Friday Night @ 8:00 (D                                                                          150                                
PROFAMCHA121202072322072406000044Phineas & Ferb (HD) Lines - Weekend Mornings @ 8:0                                                                          150                                
PROFAMCHA121202072406072536000130ME: Rise of the Guardians (HD) Story 1 - Now Playi                                                                          150                                
PROFAMCHA121202072536072554000018xGood Luck Charlie (HD) Promo 2 - This Morning @ 9                                                                          150                                
PGRFAMCHA121202072554072914000320MV Non Disney (HD) Cody Simpson - Wish U Were Here                                                                     10615120                                
PROFAMCHA121202072914072944000030xWOWP (HD) Spellbook - Coming Up Next (Oct2011)                                                                             150                                
PRCFAMCHA121202072944073006000022Game Change Friday November Promo (HD) Family.ca (                                                                          150                                
PRCFAMCHA121202073006073013000007Twistmas 2011 IDs (HD) ANT Farm - Jake (Dec9-Jan6)                                                                          150                                
PGRFAMCHA121202073013075248002235Disney Wizards of Waverly Place                   EP: 01                                                               6068607BCC                              
ID FAMCHA121202075248075253000005Astral ID (HD) (Jan2011)                                                                                                    150                                
PROFAMCHA121202075253075303000010LU - 04 - PHINEAS AND FERB (HD) (:9 - :11) Jan 201                                                                          150                                
PROFAMCHA121202075303075343000040xChristmas with the Kranks (HD) Today @ Noon (Nov2                                                                          150                                
PROFAMCHA121202075343075428000045RP TOYS                                                                                                                     150                                
PRCFAMCHA121202075428075451000023Gravity Falls (HD) Comedy Sell - This Morning @ 8:                                                                          150                                
PGRFAMCHA121202075451075746000255MV Disney (HD) McClain Sisters - Great Divide Musi                                                                     60685120                                
PROFAMCHA121202075746075828000042xDog With A Blog (HD) Comedy Sell - Weekend Aftern                                                                          150                                
PRCFAMCHA121202075828075859000031xPhineas & Ferb (HD) Disney Refresh - Coming Up Ne                                                                          150                                
PRCFAMCHA121202075859075941000042Twistmas Night of Premieres (HD) Friday Afternoon                                                                           150                                
PRCFAMCHA121202075941080011000030Family Bumper Flex (HD) Flex ID Version #2 (Mar201                                                                          150                                
PGRFAMCHA121202080011081213001202Disney Phineas and Ferb                           EP: 17A                                                              6068607ECC                              
PGRFAMCHA121202081213082402001149Disney Phineas and Ferb                           EP: 26A                                                              6028607E                                
PROFAMCHA121202082402082443000041Home Alone 2 (HD) Premieres Friday Night @ 8:00 (D                                                                          150                                
PROFAMCHA121202082443082528000045Lego                                                                                                                        150                                
PROFAMCHA121202082528082546000018xGood Luck Charlie (HD) Promo 2 - This Morning @ 9                                                                          150                                
PGRFAMCHA121202082546082641000055MV Disney (HD) Ross Lynch - Heard it on the Radio                                                                      60685120                                
PROFAMCHA121202082641082711000030xJessie (HD) Refresh - This Morning @ 10:30 (Sept2                                                                          150                                
PROFAMCHA121202082711082756000045Disney Interactive                                                                                                          150                                
PRCFAMCHA121202082756082819000023xGravity Falls (HD) Comedy Sell - Coming Up Next (                                                                          150                                
PROFAMCHA121202082819082919000100Feld Entertainment                                                                                                          150                                
PROFAMCHA121202082919082954000035Twistmas Wrap Up Voting Promo (HD) Go to family.ca                                                                          150                                
PRCFAMCHA121202082954083009000015Twistmas 2011 Bumpers (HD) Jet Sled (Dec9-Jan6)                                                                             150                                
PGRFAMCHA121202083009085205002156Disney Gravity Falls                              EP: 02                                                               6068607ECC                              
ID FAMCHA121202085205085210000005Astral ID (HD) (Jan2011)                                                                                                    150                                
PROFAMCHA121202085210085323000113Shake It Up Episodic (HD) 306 - Friday Night @ 6:0                                                                          150                                
PROFAMCHA121202085323085353000030The Canada Group                                                                                                            150                                
PROFAMCHA121202085353085423000030Wingin It (HD) Friend Sell Promo - Weekend Morning                                                                          150                                
PGRFAMCHA121202085423085736000313MV Non Disney (HD) Veronica - Santa Is Coming To T                                                                     10615120CC                              
PROFAMCHA121202085736085803000027xDog With A Blog (HD) Kid Sell - Weekend Afternoon                                                                          150                                
PROFAMCHA121202085803085831000028Good Luck Charlie (HD) Promo 3 - Coming Up Next (S                                                                          150                                
PROFAMCHA121202085831085916000045Lego                                                                                                                        150                                
PROFAMCHA121202085916085956000040xChristmas with the Kranks (HD) Today @ Noon (Nov2                                                                          150                                
PRCFAMCHA121202085956090011000015Family Bumper Flex (HD) Flex ID - Really Me (Apr20                                                                          150                                
PGRFAMCHA121202090011092330002319Good Luck Charlie                                 EP: 16                                                               6068807BCC                              
PROFAMCHA121202092330092413000043Good Luck Charlie Episodic (HD) 320 - New Episode                                                                           150                                
PROFAMCHA121202092413092443000030The Canada Group                                                                                                            150                                
PROFAMCHA121202092443092458000015xANT Farm (HD) Refresh Ole McDonald - This Morning                                                                          150                                
PGRFAMCHA121202092458092806000308MV Non Disney (HD) Victoria Duffield ft Cody-They                                                                      10615120CC                              
PROFAMCHA121202092806092836000030Wingin It (HD) Friend Sell Promo - Coming Up Next                                                                           150                                
PROFAMCHA121202092836092936000100Visit Orlando                                                                                                               150                                
PROFAMCHA121202092936093017000041Home Alone 2 (HD) Premieres Friday Night @ 8:00 (D                                                                          150                                
PRCFAMCHA121202093017093024000007Twistmas 2011 IDs (HD) SIU - Adam (Dec9-Jan6)                                                                               150                                
PRCFAMCHA121202093024093037000013xDescriptive Video Slate (HD) (Jan 2011)                                                                                    150                                
PGRFAMCHA121202093037095306002229Wingin' It                                        EP: 08                                                        C32356 1065607ACD                              
ID FAMCHA121202095306095311000005Astral ID (HD) (Jan2011)                                                                                                    150                                
PROFAMCHA121202095311095337000026xDog With A Blog @ family.ca (HD) Play Games at fa                                                                          150                                
