SO FAMCHA080501043000043011000011Sign On (oct 1)                                                                                                                                                
PRCFAMCHA080501043011043020000009CC Disclaimer - FAST - Family.ca (:08-:10)                                                                                  150                                
PGRFAMCHA080501043020045658002638Katie And Orbie                                   EP: 6-071                                                     B62274A1065607ECC                              
PRCFAMCHA080501045658045714000016PH - 02 - FRANNY/SOMETHING/HOZE (:14 - :16) (SEPT0                                                                          150                                
ID FAMCHA080501045714045726000012PS Playhouse AM Block Open (:10-:15)                                                                                        150                                
PRCFAMCHA080501045726045735000009CC Disclaimer - FAST - Generic (:09-:10)                                                                                    150                                
PGRFAMCHA080501045735052005002230Franny's Feet                                     EPS # 24                                                      C23971 1065607ECC                              
PRCFAMCHA080501052005052011000006Astral ID (DEC 2007)                                                                                                        150                                
PRCFAMCHA080501052011052027000016PH - 03 - SOMETHING/HOZE/HENRY'S (:14 - :16) (SEPT                                                                          150                                
ID FAMCHA080501052027052040000013PS Playhouse AM Block Open (:10-:15)                                                                                        150                                
PRCFAMCHA080501052040052049000009CC Disclaimer - FAST - Family.ca (:08-:10)                                                                                  150                                
PGRFAMCHA080501052049054321002232Something Else                                    EP: 1-012                                                     B69266A1065607ECC                              
PRCFAMCHA080501054321054337000016PH - 04 - HOZE/HENRY'S/KING (:14 - :16) (SEPT07)                                                                            150                                
ID FAMCHA080501054337054352000015PS Playhouse AM Block Open (:10-:15)                                                                                        150                                
PRCFAMCHA080501054352054402000010CC Disclaimer - FAST - Generic (:09-:10)                                                                                    150                                
PGRFAMCHA080501054402060640002238Hoze Houndz                                       EP: 5-054                                                     B63390A1065607ECC                              
PRCFAMCHA080501060640060646000006Astral ID (DEC 2007)                                                                                                        150                                
PRCFAMCHA080501060646060702000016PH - 05 - HENRY'S WORLD/KING (:14 - :16) (SEPT07)                                                                           150                                
ID FAMCHA080501060702060712000010PS Playhouse AM Block Open (:10-:15)                                                                                        150                                
PRCFAMCHA080501060712060721000009CC Disclaimer - FAST - Family.ca (:08-:10)                                                                                  150                                
PGRFAMCHA080501060721063125002404Henry's World                                     EPS # 2-025                                                   B81056A1065607GCC                              
PRCFAMCHA080501063125063141000016PH - 06 - KING (:14 - :16) (SEPT07)                                                                                         150                                
ID FAMCHA080501063141063152000011PS Playhouse AM Block Open (:10-:15)                                                                                        150                                
PRCFAMCHA080501063152063201000009CC Disclaimer - FAST - Generic (:09-:10)                                                                                    150                                
PGRFAMCHA080501063201065431002230King                                              EPS # 031                                                     C25350 1065607ECC                              
PRCFAMCHA080501065431065437000006Astral ID (DEC 2007)                                                                                                        150                                
PROFAMCHA080501065437065507000030Kim Possible EVIL (MMM) (MAY07) Coming Up Next                                                                              150                                
PROFAMCHA080501065507065532000025Recess - CAREER DAY (MMM) - (JULY06) - This mornin                                                                          150                                
PROFAMCHA080501065532065551000019MadMadMornings Block Open                                                                                                   150                                
PRCFAMCHA080501065551065600000009CC Disclaimer - FAST - Family.ca (:08-:10)                                                                                  150                                
PGRFAMCHA080501065600071853002253Disney's Kim Possible                             EPS # 1-033                                                         A6068607ECC                              
PROFAMCHA080501071853071931000038Radio Free Roscoe Online Promo REVISION (MD/NS/NSW                                                                          150                                
PROFAMCHA080501071931072005000034Recess - HEROES (MMM) - (APR06) - Coming Up Next                                                                            150                                
PRCFAMCHA080501072005072035000030Cineplex Latest Buzz Popcorn Parties Post-Launch 3                                                                          150                                
PROFAMCHA080501072035072111000036Weekenders - PIZZA (MMM) - (APR06) - This Morning                                                                           150                                
PGRFAMCHA080501072111072241000130xxDisney's What's The Word - Cory In The House - N                                                                    A60688120                                
PRCFAMCHA080501072241072329000048Family Video Player Promo - No Tag 3/day (not in P                                                                          150                                
PROFAMCHA080501072329072348000019MadMadMornings Block Open                                                                                                   150                                
PRCFAMCHA080501072348072357000009CC Disclaimer - FAST - Generic (:09-:10)                                                                                    150                                
PGRFAMCHA080501072357074632002235Disney's Recess                                   EP: 1-020                                                            6068607ECC                              
PRCFAMCHA080501074632074638000006Astral ID (DEC 2007)                                                                                                        150                                
PROFAMCHA080501074638074714000036Weekenders - PIZZA (MMM) - (APR06) - Coming Up Nex                                                                          150                                
PRCFAMCHA080501074714074754000040Magazine Spot (MD,NS,NSW) 2/3 day (not in PH) (til                                                                          150                                
PRCFAMCHA080501074754074808000014xxFamily Bumpers - (Phase 1 Spring 04) - Basketbal                                                                          150                                
PGRFAMCHA080501074808075008000200xxDisney 365 - Wizard of Waverly Dude Promotes HSM                                                                    A60688120                                
PROFAMCHA080501075008075027000019Emperor's New School - Too Much Info - This Aftern                                                                          150                                
PROFAMCHA080501075027075046000019MadMadMornings Block Open                                                                                                   150                                
PRCFAMCHA080501075046075055000009CC Disclaimer - FAST - Family.ca (:08-:10)                                                                                  150                                
PGRFAMCHA080501075055081325002230Disney's The Weekenders                           EP: 1-017                                                           A6068607ECC                              
PRCFAMCHA080501081325081413000048Family Video Player Promo - No Tag 3/day (not in P                                                                          150                                
PROFAMCHA080501081413081443000030Kim Possible EVIL (MD) (MAY07) Today @ 12:10                                                                                150                                
PROFAMCHA080501081443081528000045xxFamily Favourites -  Hannah Montana CD (April 15                                                                          150                                
PRCFAMCHA080501081528081539000011xxFamily Bumpers - (Phase 2 F/W 04) - Science (MD-                                                                          150                                
PROFAMCHA080501081539081724000145xxCamp Rock Trailer REVISED Sneak Peek May 19                                                                               150                                
PROFAMCHA080501081724081730000006Phil of the Future IDs - Your Watching Family...NA                                                                          150                                
PROFAMCHA080501081730081749000019MadMadMornings Block Open                                                                                                   150                                
PRCFAMCHA080501081749081759000010CC Disclaimer - FAST - Generic (:09-:10)                                                                                    150                                
PGRFAMCHA080501081759084055002256Disney's Lloyd In Space                           EP: 22                                                               6068607ECC                              
PRCFAMCHA080501084055084101000006Astral ID (DEC 2007)                                                                                                        150                                
PRCFAMCHA080501084101084117000016PH - 07 - EINSTEINS/FRANNY'S/TIGGER & POOH (:14 -                                                                           150                                
PROFAMCHA080501084117084147000030Little Einstein (PH) (PRESCHOOL) - Coming Up Next                                                                           150                                
PGRFAMCHA080501084147084247000100Pixie Previews - (MMM, PH) Fawn & The Log                                                                             A60688120                                
PROFAMCHA080501084247084317000030Tigger & Pooh NEW FRIEND DARBY (PH) This Morning @                                                                          150                                
PROFAMCHA080501084317084435000118PHD Promo - Little Einstein's Musical Mon Stunt &                                                                           150                                
ID FAMCHA080501084435084450000015PS Playhouse AM Block Open (:10-:15)                                                                                        150                                
PRCFAMCHA080501084450084500000010CC Disclaimer - FAST - Family.ca (:08-:10)                                                                                  150                                
PGRFAMCHA080501084500090905002405Disney's Little Einsteins                         EP: 23                                                               6068607ECC                              
PRCFAMCHA080501090905090920000015PH - 08 - FRANNY'S/TIGGER & POOH/ CLUB HOUSE (:14                                                                           150                                
PRCFAMCHA080501090920090950000030Franny's Feet - Concept  (APR06)(PH-M/Wknd) - Comi                                                                          150                                
PROFAMCHA080501090950091041000051xxPHD Promo - I Love Mommy Marathon - Sat May 10 &                                                                          150                                
ID FAMCHA080501091041091051000010PS Playhouse AM Block Open (:10-:15)                                                                                        150                                
PRCFAMCHA080501091051091059000008CC Disclaimer - FAST - Family.ca (:08-:10)                                                                                  150                                
PGRFAMCHA080501091059093329002230Franny's Feet                                     EPS # 32                                                      C23971 1065607ECC                              
PRCFAMCHA080501093329093335000006Astral ID (DEC 2007)                                                                                                        150                                
PRCFAMCHA080501093335093351000016PH - 10 - TIGGER & POOH/ CLUB HOUSE/SPRITES (:14 -                                                                          150                                
PROFAMCHA080501093351093441000050Tigger & Pooh WHAT'S NEW (PH) Coming Up Next (SEPT                                                                          150                                
PROFAMCHA080501093441093511000030Mickey Mouse Clubhouse GENERIC - This Morning @ 10                                                                          150                                
PROFAMCHA080501093511093546000035Johnny and the Sprites BASIL (PH) This Morning @ 1                                                                          150                                
PROFAMCHA080501093546093637000051xxPHD Promo - I Love Mommy Marathon - Sat May 10 &                                                                          150                                
ID FAMCHA080501093637093650000013PS Playhouse AM Block Open (:10-:15)                                                                                        150                                
PRCFAMCHA080501093650093659000009CC Disclaimer - FAST - Family.ca (:08-:10)                                                                                  150                                
PGRFAMCHA080501093659100059002400Disney My Friends Tigger and Pooh                 EP: 17                                                               6068607ECC                              
PRCFAMCHA080501100059100115000016PH - 13 - CLUB HOUSE/SPRITES/BENJAMIN BEAR (:14 -                                                                           150                                
PROFAMCHA080501100115100145000030Mickey Mouse Clubhouse GENERIC - Coming Up Next                                                                             150                                
PROFAMCHA080501100145100213000028Johnny and the Sprites GINGER (PH) This Morning @                                                                           150                                
PROFAMCHA080501100213100331000118PHD Promo - Little Einstein's Musical Mon Stunt &                                                                           150                                
ID FAMCHA080501100331100341000010PS Playhouse AM Block Open (:10-:15)                                                                                        150                                
ID FAMCHA080501100341100349000008Magic of Disney - PLAYHOUSE - Shape (:06-:09)                                                                               150                                
PRCFAMCHA080501100349100359000010CC Disclaimer - FAST - Generic (:09-:10)                                                                                    150                                
PGRFAMCHA080501100359102804002405Disney's Mickey Mouse Clubhouse                   EP: 12                                                               6068607ECC                              
PRCFAMCHA080501102804102810000006Astral ID (DEC 2007)                                                                                                        150                                
PRCFAMCHA080501102810102826000016PH - 16 - SPRITES/BENJAMIN BEAR/KING (:14 - :16) (                                                                          150                                
PROFAMCHA080501102826102901000035Johnny and the Sprites BASIL (PH) Coming Up Next (                                                                          150                                
PRCFAMCHA080501102901102913000012xxFamily Bumpers - (Phase 1 Spring 04) - Funhouse                                                                           150                                
PRCFAMCHA080501102913102944000031King (PH) (APR06) - This Morning @ 11:25am                                                                                  150                                
PROFAMCHA080501102944103035000051xxPHD Promo - I Love Mommy Marathon - Sat May 10 &                                                                          150                                
ID FAMCHA080501103035103050000015PS Playhouse AM Block Open (:10-:15)                                                                                        150                                
PRCFAMCHA080501103050103059000009CC Disclaimer - FAST - Family.ca (:08-:10)                                                                                  150                                
PGRFAMCHA080501103059105508002409Disney Johnny and the Sprites                     EP: 05                                                               6068607GCC                              
PRCFAMCHA080501105508105538000030Benjamin Bear - (PH-Tue) (OCT06) - NEXT                                                                                     150                                
PRCFAMCHA080501105538105609000031King (PH) (APR06) - This Morning @ 11:25am                                                                                  150                                
PROFAMCHA080501105609105640000031PHD Promo - Web Sell on Family - PHD 24/7 Ooh & Aa                                                                          150                                
ID FAMCHA080501105640105651000011PS Playhouse AM Block Open (:10-:15)                                                                                        150                                
PRCFAMCHA080501105651105700000009CC Disclaimer - FAST - Generic (:09-:10)                                                                                    150                                
PGRFAMCHA080501105700111929002229Secret World of Benjamin Bear, The                EP: 16                                                        C26066 1065607ECC                              
PRCFAMCHA080501111929111935000006Astral ID (DEC 2007)                                                                                                        150                                
PRCFAMCHA080501111935111951000016PH - 19 - KING/RECESS/KIM POSSIBLE (:14 - :16) (SE                                                                          150                                
PRCFAMCHA080501111951112022000031King (PH) (APR06) - Coming Up Next                                                                                          150                                
PROFAMCHA080501112022112053000031PHD Promo - Web Sell on Family - PHD 24/7 Ooh & Aa                                                                          150                                
PGRFAMCHA080501112053112253000200xxDisney Behind The Ears (PH only) PH on Stage 1 (                                                                    A60688120                                
PROFAMCHA080501112253112323000030Bunnytown - PREMISE SELL 2 (PH) NEW EPISODES Tomor                                                                          150                                
PROFAMCHA080501112323112441000118PHD Promo - Little Einstein's Musical Mon Stunt &                                                                           150                                
ID FAMCHA080501112441112451000010PS Playhouse AM Block Open (:10-:15)                                                                                        150                                
PRCFAMCHA080501112451112501000010CC Disclaimer - FAST - Family.ca (:08-:10)                                                                                  150                                
PGRFAMCHA080501112501114731002230King                                              EP: 007                                                       B75762 1065607ECC                              
PROFAMCHA080501114731114756000025Recess - CAREER DAY (MD) - (JULY06) - Coming Up Ne                                                                          150                                
PROFAMCHA080501114756114834000038Radio Free Roscoe Online Promo REVISION (MD/NS/NSW                                                                          150                                
PROFAMCHA080501114834114850000016Mad Dash Block Open (:16-:18) APR06                                                                                         150                                
PRCFAMCHA080501114850114859000009CC Disclaimer - FAST - Generic (:09-:10)                                                                                    150                                
PGRFAMCHA080501114859121133002234Disney's Recess                                   EP: 1-011                                                            6068607ECC                              
PRCFAMCHA080501121133121139000006Astral ID (DEC 2007)                                                                                                        150                                
PRCFAMCHA080501121139121152000013MD - 02 - KIM/WEEKENDERS (:11 - :13) (SEPT07)                                                                               150                                
PROFAMCHA080501121152121207000015Kim Possible BOYFRIEND (MD) Coming Up Next (SEPT07                                                                          150                                
PROFAMCHA080501121207121243000036Weekenders - PIZZA (MD) - (APR06) - This Afternoon                                                                          150                                
PRCFAMCHA080501121243121252000009MD Bumper - Race Cars (:08-:10) APR06                                                                                       150                                
PRCFAMCHA080501121252121300000008CC Disclaimer - FAST - Family.ca (:08-:10)                                                                                  150                                
PGRFAMCHA080501121300123553002253Disney's Kim Possible                             EPS # 1-037                                                         A6068607ECC                              
PRCFAMCHA080501123553123606000013MD - 03 - WEEKENDERS/AMERICAN DRAGON (:11 - :13) (                                                                          150                                
PROFAMCHA080501123606123642000036Weekenders - PIZZA (MD) - (APR06) - Coming Up Next                                                                          150                                
PRCFAMCHA080501123642123650000008MD Bumper - Ski Race (:07-:09) APR06                                                                                        150                                
PRCFAMCHA080501123650123659000009CC Disclaimer - FAST - Generic (:09-:10)                                                                                    150                                
PGRFAMCHA080501123659125937002238Disney's The Weekenders                           EP: 1-035                                                           A6068607ECC                              
PRCFAMCHA080501125937125943000006Astral ID (DEC 2007)                                                                                                        150                                
PRCFAMCHA080501125943125958000015MD Bumper - Shopping Race (:15-:17) APR06                                                                                   150                                
PRCFAMCHA080501125958130006000008CC Disclaimer - FAST - Family.ca (:08-:10)                                                                                  150                                
PGRFAMCHA080501130006132242002236Disney's American Dragon: Jake Long               EP: 25                                                               6068607ECC                              
PRCFAMCHA080501132242132255000013MD - 05 - EMPEROR'S/FILLMORE (:11 - :13) (SEPT07)                                                                           150                                
PROFAMCHA080501132255132322000027Emperor's New School  - Zit - Coming Up Next (APR0                                                                          150                                
PROFAMCHA080501132322132337000015xxCamp Rock Promo Tease - Sneak Peek May 19                                                                                 150                                
PRCFAMCHA080501132337132347000010MD Bumper - Race Cars (:08-:10) APR06                                                                                       150                                
PRCFAMCHA080501132347132357000010CC Disclaimer - FAST - Generic (:09-:10)                                                                                    150                                
PGRFAMCHA080501132357134633002236Disney's The Emperor's New School                 EP: 05                                                               6068807ECC                              
PRCFAMCHA080501134633134639000006Astral ID (DEC 2007)                                                                                                        150                                
PROFAMCHA080501134639134701000022Fillmore! - POLLY (MD) (APR06) - Coming Up Next                                                                             150                                
PROFAMCHA080501134701134739000038Radio Free Roscoe Online Promo REVISION (MD/NS/NSW                                                                          150                                
PRCFAMCHA080501134739134748000009MD Bumper - Ski Race (:07-:09) APR06                                                                                        150                                
PRCFAMCHA080501134748134758000010CC Disclaimer - FAST - Family.ca (:08-:10)                                                                                  150                                
PGRFAMCHA080501134758141037002239Disney's Fillmore!                                EPS # 1-012                                                          6068607ECC                              
PRCFAMCHA080501141037141050000013MD - 07 - PROUD FAMILY/WEEKENDERS (:11 - :13) (SEP                                                                          150                                
PROFAMCHA080501141050141124000034Proud Family (APR06) GET BURNED (MD) - Coming Up N                                                                          150                                
PRCFAMCHA080501141124141141000017MD Bumper - Shopping Race (:15-:17) APR06                                                                                   150                                
ID FAMCHA080501141141141150000009Magic of Disney - MAD DASH - Shape (:06-:09)                                                                                150                                
PRCFAMCHA080501141150141200000010CC Disclaimer - FAST - Generic (:09-:10)                                                                                    150                                
PGRFAMCHA080501141200143447002247The Proud Family                                  EP: 1-004                                                           A6068607ECC                              
PRCFAMCHA080501143447143453000006Astral ID (DEC 2007)                                                                                                        150                                
PRCFAMCHA080501143453143506000013MD - 08 - WEEKENDERS/KIM (:11 - :13) (SEPT07) $$$                                                                           150                                
PROFAMCHA080501143506143542000036Weekenders - PIZZA (MD) - (APR06) - Coming Up Next                                                                          150                                
PRCFAMCHA080501143542143551000009MD Bumper - Race Cars (:08-:10) APR06                                                                                       150                                
PRCFAMCHA080501143551143600000009CC Disclaimer - FAST - Family.ca (:08-:10)                                                                                  150                                
PGRFAMCHA080501143600145853002253Disney's The Weekenders                           EP: 1-006                                                           A6068607ECC                              
PROFAMCHA080501145853145925000032Kim Possible RON FACTOR (MD) (July 06)  Coming Up                                                                           150                                
PROFAMCHA080501145925145940000015xxCamp Rock Promo Tease - Sneak Peek May 19                                                                                 150                                
PRCFAMCHA080501145940145949000009MD Bumper - Ski Race (:07-:09) APR06                                                                                        150                                
PRCFAMCHA080501145949145959000010CC Disclaimer - FAST - Generic (:09-:10)                                                                                    150                                
PGRFAMCHA080501145959152252002253Disney's Kim Possible                             EP: 07                                                               6068607ECC                              
PRCFAMCHA080501152252152258000006Astral ID (DEC 2007)                                                                                                        150                                
PRCFAMCHA080501152258152311000013MD - 10 - REPLACEMENTS/EMPEROR'S (:11 - :13) (SEPT                                                                          150                                
PROFAMCHA080501152311152341000030Replacements GENERIC (MD) Coming Up Next (APRIL08)                                                                          150                                
PROFAMCHA080501152341152526000145xxCamp Rock Trailer REVISED Sneak Peek May 19                                                                               150                                
PROFAMCHA080501152526152535000009Raven ID's II - You're Watching Family, NADM                                                                                150                                
PRCFAMCHA080501152535152551000016MD Bumper - Shopping Race (:15-:17) APR06                                                                                   150                                
PRCFAMCHA080501152551152600000009CC Disclaimer - FAST - Family.ca (:08-:10)                                                                                  150                                
PGRFAMCHA080501152600154839002239Disney's The Replacements                         EP: 13                                                               2068607ECC                              
PRCFAMCHA080501154839154851000012MD - 11 - EMPEROR'S/PROUD FAMILY (:11 - :13) (SEPT                                                                          150                                
PROFAMCHA080501154851154918000027Emperor's New School  - Zit - Coming Up Next (APR0                                                                          150                                
PRCFAMCHA080501154918154958000040Magazine Spot (MD,NS,NSW) 2/3 day (not in PH) (til                                                                          150                                
PROFAMCHA080501154958155033000035Proud Family - IDOL (MD) - This Afternoon @ 4:15pm                                                                          150                                
PROFAMCHA080501155033155128000055Disney Behind The Curtain (MD, NS, NSW) 2 x Day  (                                                                          150                                
PROFAMCHA080501155128155143000015xxCamp Rock Promo Tease - Sneak Peek May 19                                                                                 150                                
PRCFAMCHA080501155143155151000008MD Bumper - Race Cars (:08-:10) APR06                                                                                       150                                
PRCFAMCHA080501155151155200000009CC Disclaimer - FAST - Generic (:09-:10)                                                                                    150                                
PGRFAMCHA080501155200161436002236Disney's The Emperor's New School                 EP: 12                                                               6068807ECC                              
PRCFAMCHA080501161436161442000006Astral ID (DEC 2007)                                                                                                        150                                
PRCFAMCHA080501161442161453000011MD - 12 - PROUD FAMILY/RECESS (:11 - :13) (SEPT07)                                                                          150                                
PROFAMCHA080501161453161527000034Proud Family (JULY06) MOM YELLS (MD) -  Coming Up                                                                           150                                
PROFAMCHA080501161527161627000100xxKid Fit - Phase One - Audition -Camp Rock Contes                                                                          150                                
PRCFAMCHA080501161627161636000009Naturally Sadie ID's - You're watching Family...NA                                                                          150                                
PRCFAMCHA080501161636161643000007MD Bumper - Ski Race (:07-:09) APR06                                                                                        150                                
ID FAMCHA080501161643161651000008Magic of Disney - MAD DASH - Wipe (:06-:09)                                                                                 150                                
PRCFAMCHA080501161651161700000009CC Disclaimer - FAST - Family.ca (:08-:10)                                                                                  150                                
PGRFAMCHA080501161700163931002231The Proud Family                                  EPS # 2-027                                                          6068607ECC                              
PROFAMCHA080501163931164005000034Recess - HEROES (MD) - (APR06) - Coming Up Next                                                                             150                                
PROFAMCHA080501164005164015000010FAMJAM - Open/Close                                                                                                         150                                
PGRFAMCHA080501164015164145000130MV Disney - (MD/NS/NSW) - Jesse McCartney - Just S                                                                     60688120                                
PROFAMCHA080501164145164159000014xxFAMJAM - Close (FAMILY) xxDNUxx                                                                                           150                                
PROFAMCHA080501164159164235000036Suite Life of Z & C - MD - GOLF - This Afternoon @                                                                          150                                
PRCFAMCHA080501164235164251000016MD Bumper - Shopping Race (:15-:17) APR06                                                                                   150                                
PRCFAMCHA080501164251164300000009CC Disclaimer - FAST - Generic (:09-:10)                                                                                    150                                
PGRFAMCHA080501164300170534002234Disney's Recess                                   EP: 1-030                                                            6068607ECC                              
PRCFAMCHA080501170534170540000006Astral ID (DEC 2007)                                                                                                        150                                
PROFAMCHA080501170540170613000033Suite Life of Z & C - MD - SCOUT TROOP - Coming Up                                                                          150                                
PRCFAMCHA080501170613170643000030Cineplex Latest Buzz Popcorn Parties Post-Launch 3                                                                          150                                
PROFAMCHA080501170643170734000051xxPHD Promo - I Love Mommy Marathon - Sat May 10 &                                                                          150                                
PRCFAMCHA080501170734170743000009MD Bumper - Race Cars (:08-:10) APR06                                                                                       150                                
ID FAMCHA080501170743170751000008Magic of Disney - MAD DASH - Shape (:06-:09)                                                                                150                                
PRCFAMCHA080501170751170759000008CC Disclaimer - FAST - Family.ca (:08-:10)                                                                                  150                                
PGRFAMCHA080501170759173037002238Suite Life of Zack & Cody, The                    EP: 63                                                               6068607BCC                              
PRCFAMCHA080501173037173048000011MD - 15 - HANNAH/ZOEY 101 (:11 - :13) (SEPT07) $$$                                                                          150                                
PROFAMCHA080501173048173117000029Hannah Montana SCIENCE (MD) - Coming Up Next (JULY                                                                          150                                
PROFAMCHA080501173117173202000045xxFamily Favourites -  Hannah Montana CD (April 15                                                                          150                                
PRCFAMCHA080501173202173208000006xxFamily Bumpers - (Phase 2 F/W 04) - Gymnastics (                                                                          150                                
PROFAMCHA080501173208173243000035xxGolden Compass DVD Blast -  Available Now (April                                                                          150                                
PROFAMCHA080501173243173334000051xxPHD Promo - I Love Mommy Marathon - Sat May 10 &                                                                          150                                
PRCFAMCHA080501173334173342000008MD Bumper - Ski Race (:07-:09) APR06                                                                                        150                                
ID FAMCHA080501173342173350000008Magic of Disney - MAD DASH - Shape (:06-:09)                                                                                150                                
PRCFAMCHA080501173350173359000009CC Disclaimer - FAST - Generic (:09-:10)                                                                                    150                                
PGRFAMCHA080501173359175638002239Hannah Montana                                    EP: 10                                                               6068807BCC                              
PRCFAMCHA080501175638175644000006Astral ID (DEC 2007)                                                                                                        150                                
PROFAMCHA080501175644175714000030Zoey 101 - QUINN (NS) (MAR07) - Coming Up Next                                                                              150                                
PROFAMCHA080501175714175814000100xxKid Fit - Phase One - Audition -Camp Rock Contes                                                                          150                                
PRCFAMCHA080501175814175820000006xxFamily Bumpers - Reptile Pet - Car Horn (MD/NS/N                                                                          150                                
PROFAMCHA080501175820175855000035xxGolden Compass DVD Blast -  Available Now (April                                                                          150                                
PRCFAMCHA080501175855175917000022Life with Derek NS Hugaphobia tonight @ 6:30 (DEC                                                                           150                                
PROFAMCHA080501175917175932000015xxCamp Rock Promo Tease - Sneak Peek May 19                                                                                 150                                
PROFAMCHA080501175932175950000018Nonstop Block Open (:16-:18) APR06                                                                                          150                                
PRCFAMCHA080501175950180000000010CC Disclaimer - FAST - Family.ca (:08-:10)                                                                                  150                                
PGRFAMCHA080501180000182330002330Zoey 101                                          EP: 43                                                               2068807BCC                              
PRCFAMCHA080501182330182343000013NS - 02 - DEREK/THAT'S SO RAVEN (:11 - :13) (MARCH                                                                          150                                
PRCFAMCHA080501182343182421000038Life W D (NS) Edwin Mystery Man - Coming Up Next (                                                                          150                                
PGRFAMCHA080501182421182821000400xxMS - Prince Caspin - Ben Set Tour - Coming Soon                                                                     A60688120                                
PROFAMCHA080501182821182851000030That's So Raven SCREAM (NS) Tonight @ 7pm (APR07)                                                                           150                                
PROFAMCHA080501182851182942000051xxPHD Promo - I Love Mommy Marathon - Sat May 10 &                                                                          150                                
PRCFAMCHA080501182942182951000009NS Bumper - Dodgeball (:07-:09) APR06                                                                                       150                                
PRCFAMCHA080501182951183000000009CC Disclaimer - FAST - Generic (:09-:10)                                                                                    150                                
PGRFAMCHA080501183000185230002230Life with Derek                                   EP: 24                                                        C26822 1055607BCC3                             
PRCFAMCHA080501185230185236000006Astral ID (DEC 2007)                                                                                                        150                                
PRCFAMCHA080501185236185249000013NS - 03 - RAVEN/SMART GUY (:11 - :13) (SEPT07)                                                                              150                                
PROFAMCHA080501185249185316000027That's So Raven CLIP (NS) Coming Up Next (APR08)                                                                            150                                
PRCFAMCHA080501185316185431000115Movie Entertainment (8)                                                                                               B     150                                
PRCFAMCHA080501185431185437000006xxFamily Bumpers - Reptile Pet - Elephant (MD/NS/N                                                                          150                                
PROFAMCHA080501185437185447000010FAMJAM - Open/Close                                                                                                         150                                
PGRFAMCHA080501185447185840000353MV Disney - (MD/NS/NSW) - Jesse McCartney - Just S                                                                     60288120                                
PROFAMCHA080501185840185854000014xxFAMJAM - Close (FAMILY) xxDNUxx                                                                                           150                                
PROFAMCHA080501185854185929000035Smart Guy GOOD FRIEND (JULY06) NS - Tonight @ 7:30                                                                          150                                
PRCFAMCHA080501185929185943000014NS Bumper - Fashion (:12-:14) APR06                                                                                         150                                
ID FAMCHA080501185943185949000006Magic of Disney - NS/NSW/PB - Shape (:06-:09)                                                                               150                                
PRCFAMCHA080501185949185958000009CC Disclaimer - FAST - Family.ca (:08-:10)                                                                                  150                                
PGRFAMCHA080501185958192238002240That's So Raven                                   EP: 1-017                                                            6068607BCC                              
PRCFAMCHA080501192238192249000011NS - 04 - SMART GUY/SUITE LIFE (:11 - :13) (SEPT07                                                                          150                                
PROFAMCHA080501192249192327000038Radio Free Roscoe Online Promo REVISION (MD/NS/NSW                                                                          150                                
PROFAMCHA080501192327192358000031Smart Guy FIGHT (JUNE06) NS - Coming Up Next                                                                                150                                
PROFAMCHA080501192358192408000010FAMJAM - Open/Close                                                                                                         150                                
PGRFAMCHA080501192408192828000420MV Disney - (MD/NS/NSW) - Jesse McCartney - Just S                                                                     60688120                                
PROFAMCHA080501192828192842000014xxFAMJAM - Close (FAMILY) xxDNUxx                                                                                           150                                
PRCFAMCHA080501192842192930000048Family Video Player Promo - No Tag 3/day (not in P                                                                          150                                
PRCFAMCHA080501192930192945000015NS Bumper - Tennis (:15-:17) APR06                                                                                          150                                
ID FAMCHA080501192945192951000006Magic of Disney - NS/NSW/PB - Wipe (:06-:09)                                                                                150                                
PRCFAMCHA080501192951193001000010CC Disclaimer - FAST - Generic (:09-:10)                                                                                    150                                
PGRFAMCHA080501193001195229002228Smart Guy                                         EP: 1-012                                                            6068807BCC                              
PRCFAMCHA080501195229195235000006Astral ID (DEC 2007)                                                                                                        150                                
PRCFAMCHA080501195235195247000012NS - 05 - SUITE LIFE 8:00/SADIE 8:30 (:11 - :13) (                                                                          150                                
PROFAMCHA080501195247195302000015xxCamp Rock Promo Tease - Sneak Peek May 19                                                                                 150                                
PROFAMCHA080501195302195338000036Suite Life of Z & C - NS - GOLF - Coming Up Next (                                                                          150                                
PROFAMCHA080501195338195423000045xxFamily Favourites -  Hannah Montana CD (April 15                                                                          150                                
PRCFAMCHA080501195423195503000040Naturally Sadie - ROMANTIC (NS) Tonight @ 8:30pm (                                                                          150                                
PROFAMCHA080501195503195603000100xxKid Fit - Phase One - Audition -Camp Rock Contes                                                                          150                                
PROFAMCHA080501195603195637000034Hannah Montana (NS) Wig Auditions - Tonight @ 9 (O                                                                          150                                
PRCFAMCHA080501195637195752000115Movie Entertainment (8)                                                                                               B     150                                
PRCFAMCHA080501195752195844000052Life With Derek (NS) Casey & Derek - Tonight @ 9:3                                                                          150                                
PROFAMCHA080501195844195935000051xxPHD Promo - I Love Mommy Marathon - Sat May 10 &                                                                          150                                
PRCFAMCHA080501195935195943000008NS Bumper - Dodgeball (:07-:09) APR06                                                                                       150                                
ID FAMCHA080501195943195951000008Magic of Disney - NS/NSW/PB - Shape (:06-:09)                                                                               150                                
PRCFAMCHA080501195951200000000009CC Disclaimer - FAST - Family.ca (:08-:10)                                                                                  150                                
PGRFAMCHA080501200000202238002238Suite Life of Zack & Cody, The                    EP: 58                                                               6068607BCC                              
PRCFAMCHA080501202238202249000011NS - 06 - N. SADIE/HANNAH M (:11 - :13) (MARCH08)                                                                           150                                
PRCFAMCHA080501202249202318000029Naturally Sadie - CLIP (NS) Coming Up Next (MARCH0                                                                          150                                
PGRFAMCHA080501202318202718000400xxMS - Prince Caspin - Ben Set Tour - Coming Soon                                                                     A60688120                                
PROFAMCHA080501202718202747000029Hannah Montana SCIENCE (NS) - Tonight @ 9pm (SEPT0                                                                          150                                
PROFAMCHA080501202747202932000145xxCamp Rock Trailer REVISED Sneak Peek May 19                                                                               150                                
PROFAMCHA080501202932202939000007Aly & A.J. IDs - (ALY) You're Watching Family, NAD                                                                          150                                
PRCFAMCHA080501202939202951000012NS Bumper - Fashion (:12-:14) APR06                                                                                         150                                
PRCFAMCHA080501202951203000000009CC Disclaimer - FAST - Generic (:09-:10)                                                                                    150                                
PGRFAMCHA080501203000205230002230Naturally, Sadie                                  EP: 34                                                        C25428 1055607ACC3                             
PRCFAMCHA080501205230205236000006Astral ID (DEC 2007)                                                                                                        150                                
PROFAMCHA080501205236205338000102Hannah Montana (NS) Mockumentry - Coming Up Next (                                                                          150                                
PROFAMCHA080501205338205413000035xxGolden Compass DVD Blast -  Available Now (April                                                                          150                                
PRCFAMCHA080501205413205419000006xxFamily Bumpers - Reptile Pet - Meow (MD/NS/NSW)                                                                           150                                
PROFAMCHA080501205419205429000010FAMJAM - Open/Close                                                                                                         150                                
PGRFAMCHA080501205429205653000224MV NON-DISNEY (MD/NS/NSW) - Roxy Hunter - Here I C                                                                     20688120                                
PROFAMCHA080501205653205707000014xxFAMJAM - Close (FAMILY) xxDNUxx                                                                                           150                                
PRCFAMCHA080501205707205759000052Life With Derek (NS) Casey & Derek - Tonight @ 9:3                                                                          150                                
PROFAMCHA080501205759205854000055Disney Behind The Curtain (MD, NS, NSW) 2 x Day  (                                                                          150                                
PROFAMCHA080501205854205932000038Radio Free Roscoe Online Promo REVISION (MD/NS/NSW                                                                          150                                
PRCFAMCHA080501205932205947000015NS Bumper - Tennis (:15-:17) APR06                                                                                          150                                
ID FAMCHA080501205947205953000006Magic of Disney - MAD DASH - Shape (:06-:09)                                                                                150                                
PRCFAMCHA080501205953210003000010CC Disclaimer - SLOW - Family.ca (:08-:10)                                                                                  150                                
PGRFAMCHA080501210003212241002238Hannah Montana                                    EP: 04                                                               6068807BCC                              
PRCFAMCHA080501212241212252000011NS - 08 - DEREK/NED'S (:11 - :13) (MARCH08)                                                                                 150                                
PRCFAMCHA080501212252212330000038Life W D (NS) Edwin Mystery Man - Coming Up Next (                                                                          150                                
PRCFAMCHA080501212330212400000030Cineplex Latest Buzz Popcorn Parties Post-Launch 3                                                                          150                                
PROFAMCHA080501212400212443000043Ned's DSSG (NS) Too Cool for School  - Tonight @ 1                                                                          150                                
PROFAMCHA080501212443212453000010FAMJAM - Open/Close                                                                                                         150                                
PGRFAMCHA080501212453212717000224MV NON-DISNEY (MD/NS/NSW) - Roxy Hunter - Here I C                                                                     20688120                                
PROFAMCHA080501212717212731000014xxFAMJAM - Close (FAMILY) xxDNUxx                                                                                           150                                
PRCFAMCHA080501212731212737000006xxFamily Bumpers - Reptile Pet - Silly Horn (MD/NS                                                                          150                                
PROFAMCHA080501212737212747000010FAMJAM - Open/Close                                                                                                         150                                
PGRFAMCHA080501212747212917000130MV Disney - (MD/NS/NSW) - Jesse McCartney - Just S                                                                     60688120                                
PROFAMCHA080501212917212931000014xxFAMJAM - Close (FAMILY) xxDNUxx                                                                                           150                                
PROFAMCHA080501212931212945000014Phil of the Future IDs - Ricky Tomato - watching f                                                                          150                                
PRCFAMCHA080501212945212952000007NS Bumper - Dodgeball (:07-:09) APR06                                                                                       150                                
PRCFAMCHA080501212952213001000009CC Disclaimer - FAST - Generic (:09-:10)                                                                                    150                                
PGRFAMCHA080501213001215231002230Life with Derek                                   EP: 07                                                        C23968A1065607BCC                              
PRCFAMCHA080501215231215237000006Astral ID (DEC 2007)                                                                                                        150                                
PROFAMCHA080501215237215315000038Radio Free Roscoe Online Promo REVISION (MD/NS/NSW                                                                          150                                
PROFAMCHA080501215315215358000043Ned's DSSG (NS) Too Cool for School  - Coming Up N                                                                          150                                
PRCFAMCHA080501215358215513000115Movie Entertainment (8)                                                                                               B     150                                
PRCFAMCHA080501215513215527000014xxFamily Bumpers - (Phase 1 Spring 04) - Basketbal                                                                          150                                
PROFAMCHA080501215527215610000043Cory In The House (NS) Tonight @ 10:30pm (SEPT07)                                                                           150                                
PROFAMCHA080501215610215620000010FAMJAM - Open/Close                                                                                                         150                                
PGRFAMCHA080501215620215835000215MV Disney - (MD/NS/NSW) - Jesse McCartney - Just S                                                                     60688120                                
PROFAMCHA080501215835215849000014xxFAMJAM - Close (FAMILY) xxDNUxx                                                                                           150                                
PRCFAMCHA080501215849215937000048Family Video Player Promo - No Tag 3/day (not in P                                                                          150                                
PRCFAMCHA080501215937215951000014NS Bumper - Fashion (:12-:14) APR06                                                                                         150                                
PRCFAMCHA080501215951220001000010CC Disclaimer - SLOW - Family.ca (:08-:10)                                                                                  150                                
PGRFAMCHA080501220001222236002235Ned's Declassified School Survival Guide          EPS # 09                                                             2068807BCC                              
PRCFAMCHA080501222236222249000013NS - 10 - CORY IN THE HOUSE/SUITE LIFE (:11 - :13)                                                                          150                                
PROFAMCHA080501222249222349000100Cory In The House - Cory vs. Sophie (NS) Coming Up                                                                          150                                
PGRFAMCHA080501222349222749000400xxMS - Prince Caspin - Ben Set Tour - Coming Soon                                                                     A60688120                                
PROFAMCHA080501222749222821000032Suite Life of Z & C (NS) Wonderful Hotel - Tonight                                                                          150                                
PROFAMCHA080501222821222916000055Disney Behind The Curtain (MD, NS, NSW) 2 x Day  (                                                                          150                                
PRCFAMCHA080501222916222927000011Naturally Sadie ID's - I'm Charlotte, you're watch                                                                          150                                
PRCFAMCHA080501222927222943000016NS Bumper - Tennis (:15-:17) APR06                                                                                          150                                
ID FAMCHA080501222943222951000008Magic of Disney - NS/NSW/PB - Wipe (:06-:09)                                                                                150                                
PRCFAMCHA080501222951223000000009CC Disclaimer - SLOW - Generic (:08-:10)                                                                                    150                                
PGRFAMCHA080501223000225238002238Cory in the House                                 EP: 04                                                               6068607BCC                              
PRCFAMCHA080501225238225244000006Astral ID (DEC 2007)                                                                                                        150                                
PROFAMCHA080501225244225320000036Suite Life of Z & C GOLF (NS) - Coming Up Next (SE                                                                          150                                
PGRFAMCHA080501225320225413000053xxCole & Dylan Sprouse Interview Blast REVISION (N                                                                    A10618120                                
PRCFAMCHA080501225413225451000038Life W D (NS) Edwin Mystery Man - Tonight @ 11:30p                                                                          150                                
PROFAMCHA080501225451225501000010FAMJAM - Open/Close                                                                                                         150                                
PGRFAMCHA080501225501225910000409MV Disney - (MD/NS/NSW) - Jesse McCartney - Just S                                                                     60688120                                
PROFAMCHA080501225910225924000014xxFAMJAM - Close (FAMILY) xxDNUxx                                                                                           150                                
PROFAMCHA080501225924225939000015xxCamp Rock Promo Tease - Sneak Peek May 19                                                                                 150                                
PRCFAMCHA080501225939225946000007NS Bumper - Dodgeball (:07-:09) APR06                                                                                       150                                
ID FAMCHA080501225946225952000006Magic of Disney - NS/NSW/PB - Shape (:06-:09)                                                                               150                                
PRCFAMCHA080501225952230001000009CC Disclaimer - SLOW - Family.ca (:08-:10)                                                                                  150                                
PGRFAMCHA080501230001232239002238Suite Life of Zack & Cody, The                    EP: 21                                                               6068607BCC                              
PRCFAMCHA080501232239232250000011NS - 12 - LIFE WITH DEREK/SADIE (:11 - :13) (SEPT0                                                                          150                                
PROFAMCHA080501232250232328000038Radio Free Roscoe Online Promo REVISION (MD/NS/NSW                                                                          150                                
PRCFAMCHA080501232328232358000030Life with Derek (NS) MORE FUN (OCT06)  Coming Up N                                                                          150                                
PROFAMCHA080501232358232408000010FAMJAM - Open/Close                                                                                                         150                                
PGRFAMCHA080501232408232801000353MV Disney - (MD/NS/NSW) - Jesse McCartney - Just S                                                                     60688120                                
PROFAMCHA080501232801232815000014xxFAMJAM - Close (FAMILY) xxDNUxx                                                                                           150                                
PROFAMCHA080501232815232852000037Naturally Sadie - TEENAGE (NS) Tonight @ 12:00 (MA                                                                          150                                
PRCFAMCHA080501232852232940000048Family Video Player Promo - No Tag 3/day (not in P                                                                          150                                
PRCFAMCHA080501232940232952000012NS Bumper - Fashion (:12-:14) APR06                                                                                         150                                
PRCFAMCHA080501232952233000000008CC Disclaimer - SLOW - Generic (:08-:10)                                                                                    150                                
PGRFAMCHA080501233000235230002230Life with Derek                                   EP: 24                                                        C26679A1065607BCC                              
PRCFAMCHA080501235230235236000006Astral ID (DEC 2007)                                                                                                        150                                
PRCFAMCHA080501235236235248000012NS - 13 - SADIE/SADIE (:11 - :13) (SEPT07)                                                                                  150                                
PRCFAMCHA080501235248235328000040Naturally Sadie - ROMANTIC (NS) Coming Up Next (MA                                                                          150                                
PRCFAMCHA080501235328235408000040Magazine Spot (MD,NS,NSW) 2/3 day (not in PH) (til                                                                          150                                
PRCFAMCHA080501235408235458000050Latest Buzz - REPORTER QUIZ (NS) New Episodes Tomo                                                                          150                                
PRCFAMCHA080501235458235613000115Movie Entertainment (8)                                                                                               B     150                                
PRCFAMCHA080501235613235619000006xxFamily Bumpers - Reptile Pet - Lion (MD/NS/NSW)                                                                           150                                
PROFAMCHA080501235619235629000010FAMJAM - Open/Close                                                                                                         150                                
PGRFAMCHA080501235629235831000202MV NON-DISNEY (MD/NS/NSW) - Roxy Hunter - I'll Fig                                                                     20688120                                
PROFAMCHA080501235831235845000014xxFAMJAM - Close (FAMILY) xxDNUxx                                                                                           150                                
PROFAMCHA080501235845235936000051xxPHD Promo - I Love Mommy Marathon - Sat May 10 &                                                                          150                                
PRCFAMCHA080501235936235951000015NS Bumper - Tennis (:15-:17) APR06                                                                                          150                                
PRCFAMCHA080501235951000000000009CC Disclaimer - SLOW - Family.ca (:08-:10)                                                                                  150                                
PGRFAMCHA080501000000002229002229Naturally, Sadie                                  EP: 33                                                        C25428 1065607ACC                              
PRCFAMCHA080501002229002241000012NS - 14 - SADIE/HANNAH (:11 - :13) (SEPT07)                                                                                 150                                
PRCFAMCHA080501002241002310000029Naturally Sadie - CLIP (NS) Coming Up Next (MARCH0                                                                          150                                
PGRFAMCHA080501002310002710000400xxMS - Prince Caspin - Ben Set Tour - Coming Soon                                                                     A60688120                                
PRCFAMCHA080501002710002800000050Latest Buzz - REPORTER QUIZ (NS) New Episodes Tomo                                                                          150                                
PROFAMCHA080501002800002810000010FAMJAM - Open/Close                                                                                                         150                                
PGRFAMCHA080501002810002910000100MV Disney - (MD/NS/NSW) - Jesse McCartney - Just S                                                                     60688120                                
PROFAMCHA080501002910002924000014xxFAMJAM - Close (FAMILY) xxDNUxx                                                                                           150                                
PROFAMCHA080501002924002942000018Phineas & Ferb (NSW) Phineas Tease - New Episodes                                                                           150                                
PRCFAMCHA080501002942002950000008NS Bumper - Dodgeball (:07-:09) APR06                                                                                       150                                
PRCFAMCHA080501002950003000000010CC Disclaimer - SLOW - Generic (:08-:10)                                                                                    150                                
PGRFAMCHA080501003000005230002230Naturally, Sadie                                  EP: 30                                                        C25428 1065607ACC                              
PRCFAMCHA080501005230005236000006Astral ID (DEC 2007)                                                                                                        150                                
PROFAMCHA080501005236005338000102Hannah Montana (NS) Mockumentry - Coming Up Next (                                                                          150                                
PROFAMCHA080501005338005348000010FAMJAM - Open/Close                                                                                                         150                                
PGRFAMCHA080501005348005603000215MV Disney - (MD/NS/NSW) - Jesse McCartney - Just S                                                                     60688120                                
PROFAMCHA080501005603005617000014xxFAMJAM - Close (FAMILY) xxDNUxx                                                                                           150                                
PRCFAMCHA080501005617005707000050Latest Buzz - REPORTER QUIZ (NS) New Episodes Tomo                                                                          150                                
PROFAMCHA080501005707005717000010FAMJAM - Open/Close                                                                                                         150                                
PGRFAMCHA080501005717005847000130MV Disney - (MD/NS/NSW) - Jesse McCartney - Just S                                                                     60688120                                
PROFAMCHA080501005847005901000014xxFAMJAM - Close (FAMILY) xxDNUxx                                                                                           150                                
PRCFAMCHA080501005901005949000048Family Video Player Promo - No Tag 3/day (not in P                                                                          150                                
PRCFAMCHA080501005949010001000012NS Bumper - Fashion (:12-:14) APR06                                                                                         150                                
ID FAMCHA080501010001010009000008Magic of Disney - NS/NSW/PB - Shape (:06-:09)                                                                               150                                
PRCFAMCHA080501010009010018000009CC Disclaimer - SLOW - Family.ca (:08-:10)                                                                                  150                                
PGRFAMCHA080501010018012256002238Hannah Montana                                    EP: 24                                                               6068807BCC                              
PRCFAMCHA080501012256012311000015NS Bumper - Tennis (:15-:17) APR06                                                                                          150                                
ID FAMCHA080501012311012319000008Magic of Disney - NS/NSW/PB - Wipe (:06-:09)                                                                                150                                
PRCFAMCHA080501012319012328000009CC Disclaimer - SLOW - Generic (:08-:10)                                                                                    150                                
PGRFAMCHA080501012328014559002231Cory in the House                                 EP: 20                                                               6068607BCC                              
PRCFAMCHA080501014559014605000006Astral ID (DEC 2007)                                                                                                        150                                
PRCFAMCHA080501014605014613000008NS Bumper - Dodgeball (:07-:09) APR06                                                                                       150                                
ID FAMCHA080501014613014621000008Magic of Disney - NS/NSW/PB - Shape (:06-:09)                                                                               150                                
PRCFAMCHA080501014621014631000010CC Disclaimer - SLOW - Family.ca (:08-:10)                                                                                  150                                
PGRFAMCHA080501014631020859002228Smart Guy                                         EP: 1-011                                                            6068807BCC                              
PRCFAMCHA080501020859020912000013NS - 18 - BOY MEETS WORLD/LIFE WITH DEREK (:11 - :                                                                          150                                
PRCFAMCHA080501020912020924000012NS Bumper - Fashion (:12-:14) APR06                                                                                         150                                
ID FAMCHA080501020924020932000008Magic of Disney - NS/NSW/PB - Wipe (:06-:09)                                                                                150                                
PRCFAMCHA080501020932020941000009CC Disclaimer - SLOW - Generic (:08-:10)                                                                                    150                                
PGRFAMCHA080501020941023056002115Boy Meets World                                   EP: 1-098                                                           B6068807BCC                              
PRCFAMCHA080501023056023102000006Astral ID (DEC 2007)                                                                                                        150                                
PRCFAMCHA080501023102023115000013NS - 19 - LIFE WITH DEREK/CORY IN THE HOUSE (:11 -                                                                          150                                
PRCFAMCHA080501023115023131000016NS Bumper - Tennis (:15-:17) APR06                                                                                          150                                
PRCFAMCHA080501023131023140000009CC Disclaimer - SLOW - Family.ca (:08-:10)                                                                                  150                                
PGRFAMCHA080501023140025410002230Life with Derek                                   EP: 20                                                        C26679A1065607BCC                              
PRCFAMCHA080501025410025423000013NS - 20 -CORY IN THE HOUSE/RAVEN (:11 - :13) (SEPT                                                                          150                                
PRCFAMCHA080501025423025432000009NS Bumper - Dodgeball (:07-:09) APR06                                                                                       150                                
ID FAMCHA080501025432025441000009Magic of Disney - NS/NSW/PB - Wipe (:06-:09)                                                                                150                                
PRCFAMCHA080501025441025451000010CC Disclaimer - SLOW - Generic (:08-:10)                                                                                    150                                
PGRFAMCHA080501025451031730002239Cory in the House                                 EP: 09                                                               6068607BCC                              
PRCFAMCHA080501031730031736000006Astral ID (DEC 2007)                                                                                                        150                                
PRCFAMCHA080501031736031749000013NS - 21 - RAVEN/ SUITE LIFE (:11 - :13) (SEPT07)                                                                            150                                
PRCFAMCHA080501031749031803000014NS Bumper - Fashion (:12-:14) APR06                                                                                         150                                
ID FAMCHA080501031803031812000009Magic of Disney - NS/NSW/PB - Shape (:06-:09)                                                                               150                                
PRCFAMCHA080501031812031822000010CC Disclaimer - SLOW - Family.ca (:08-:10)                                                                                  150                                
PGRFAMCHA080501031822034104002242That's So Raven                                   EP: 1-020                                                            6068607BCC                              
PRCFAMCHA080501034104034117000013NS - 22 - SUITE LIFE/LIFE WITH DEREK (:11 - :13) (                                                                          150                                
PRCFAMCHA080501034117034134000017NS Bumper - Tennis (:15-:17) APR06                                                                                          150                                
ID FAMCHA080501034134034143000009Magic of Disney - NS/NSW/PB - Wipe (:06-:09)                                                                                150                                
PRCFAMCHA080501034143034153000010CC Disclaimer - SLOW - Generic (:08-:10)                                                                                    150                                
PGRFAMCHA080501034153040432002239Suite Life of Zack & Cody, The                    EP: 20                                                               6068607BCC                              
PRCFAMCHA080501040432040438000006Astral ID (DEC 2007)                                                                                                        150                                
PRCFAMCHA080501040438040451000013NS - 23 - LIFE WITH DEREK (:11 - :13) (SEPT07)                                                                              150                                
PRCFAMCHA080501040451040500000009NS Bumper - Dodgeball (:07-:09) APR06                                                                                       150                                
PRCFAMCHA080501040500040510000010CC Disclaimer - SLOW - Family.ca (:08-:10)                                                                                  150                                
PGRFAMCHA080501040510042740002230Life with Derek                                   EP: 04                                                        C23968A1065607BCC                              
PRCFAMCHA080501042740042756000016PH - 01 - KATIE/FRANNY/SOMETHING  (:14 - :16) (SEP                                                                          150                                
PRCFAMCHA080501042756042826000030Franny's Feet - Concept (APR06)(PH-Mon) - This Mor                                                                          150                                
PROFAMCHA080501042826042944000118PHD Promo - Little Einstein's Musical Mon Stunt &                                                                           150                                
ID FAMCHA080501042944042959000015PS Playhouse AM Block Open (:10-:15)                                                                                        150                                
OFFFAMCHA080501042959043000000001OFF AIR                                                                                                                                                        
SO FAMCHA080502043000043011000011Sign On (oct 1)                                                                                                                                                
PRCFAMCHA080502043011043020000009CC Disclaimer - FAST - Family.ca (:08-:10)                                                                                  150                                
PGRFAMCHA080502043020045658002638Katie And Orbie                                   EP: 6-070                                                     B62273A1065607ECC                              
PRCFAMCHA080502045658045704000006Astral ID (DEC 2007)                                                                                                        150                                
PRCFAMCHA080502045704045720000016PH - 02 - FRANNY/SOMETHING/HOZE (:14 - :16) (SEPT0                                                                          150                                
ID FAMCHA080502045720045732000012PS Playhouse AM Block Open (:10-:15)                                                                                        150                                
PRCFAMCHA080502045732045741000009CC Disclaimer - FAST - Generic (:09-:10)                                                                                    150                                
PGRFAMCHA080502045741052011002230Franny's Feet                                     EPS # 25                                                      C23971 1065607ECC                              
PRCFAMCHA080502052011052027000016PH - 03 - SOMETHING/HOZE/HENRY'S (:14 - :16) (SEPT                                                                          150                                
ID FAMCHA080502052027052041000014PS Playhouse AM Block Open (:10-:15)                                                                                        150                                
PRCFAMCHA080502052041052050000009CC Disclaimer - FAST - Family.ca (:08-:10)                                                                                  150                                
PGRFAMCHA080502052050054321002231Something Else                                    EP: 1-013                                                     B69267A1065607ECC                              
PRCFAMCHA080502054321054327000006Astral ID (DEC 2007)                                                                                                        150                                
PRCFAMCHA080502054327054343000016PH - 04 - HOZE/HENRY'S/KING (:14 - :16) (SEPT07)                                                                            150                                
ID FAMCHA080502054343054356000013PS Playhouse AM Block Open (:10-:15)                                                                                        150                                
PRCFAMCHA080502054356054405000009CC Disclaimer - FAST - Generic (:09-:10)                                                                                    150                                
PGRFAMCHA080502054405060643002238Hoze Houndz                                       EP: 5-055                                                     B63391A1065607ECC                              
PRCFAMCHA080502060643060659000016PH - 05 - HENRY'S WORLD/KING (:14 - :16) (SEPT07)                                                                           150                                
ID FAMCHA080502060659060712000013PS Playhouse AM Block Open (:10-:15)                                                                                        150                                
PRCFAMCHA080502060712060721000009CC Disclaimer - FAST - Family.ca (:08-:10)                                                                                  150                                
PGRFAMCHA080502060721063124002403Henry's World                                     EP: 2-014                                                     B81045A1065607GCC                              
PRCFAMCHA080502063124063130000006Astral ID (DEC 2007)                                                                                                        150                                
PRCFAMCHA080502063130063146000016PH - 06 - KING (:14 - :16) (SEPT07)                                                                                         150                                
ID FAMCHA080502063146063159000013PS Playhouse AM Block Open (:10-:15)                                                                                        150                                
PRCFAMCHA080502063159063209000010CC Disclaimer - FAST - Generic (:09-:10)                                                                                    150                                
PGRFAMCHA080502063209065439002230King                                              EPS # 032                                                     C25350 1065607ECC                              
PROFAMCHA080502065439065511000032Kim Possible RON FACTOR (MD) (July 06)  Coming Up                                                                           150                                
PRCFAMCHA080502065511065541000030Cineplex Latest Buzz Popcorn Parties Post-Launch 3                                                                          150                                
PROFAMCHA080502065541065600000019MadMadMornings Block Open                                                                                                   150                                
PRCFAMCHA080502065600065609000009CC Disclaimer - FAST - Family.ca (:08-:10)                                                                                  150                                
PGRFAMCHA080502065609071902002253Disney's Kim Possible                             EPS # 1-035                                                         A6068607ECC                              
PRCFAMCHA080502071902071908000006Astral ID (DEC 2007)                                                                                                        150                                
PROFAMCHA080502071908071923000015xxCamp Rock Promo Tease - Sneak Peek May 19                                                                                 150                                
PROFAMCHA080502071923071948000025Recess - CAREER DAY (MMM) - (JULY06) - Coming Up N                                                                          150                                
PROFAMCHA080502071948072023000035xxGolden Compass DVD Blast -  Available Now (April                                                                          150                                
PROFAMCHA080502072023072059000036Weekenders - PIZZA (MMM) - (APR06) - This Morning                                                                           150                                
PROFAMCHA080502072059072244000145xxCamp Rock Trailer REVISED Sneak Peek May 19                                                                               150                                
PRCFAMCHA080502072244072250000006xxFamily Bumpers - Reptile Pet - Siren (MD/NS/NSW)                                                                          150                                
PRCFAMCHA080502072250072330000040Magazine Spot (MD,NS,NSW) 2/3 day (not in PH) (til                                                                          150                                
PRCFAMCHA080502072330072341000011Naturally Sadie ID's - I'm Charlotte, you're watch                                                                          150                                
PROFAMCHA080502072341072400000019MadMadMornings Block Open                                                                                                   150                                
PRCFAMCHA080502072400072409000009CC Disclaimer - FAST - Generic (:09-:10)                                                                                    150                                
PGRFAMCHA080502072409074645002236Disney's Recess                                   EP: 1-021                                                            6068607ECC                              
PRCFAMCHA080502074645074733000048Family Video Player Promo - No Tag 3/day (not in P                                                                          150                                
PROFAMCHA080502074733074809000036Weekenders - PIZZA (MMM) - (APR06) - Coming Up Nex                                                                          150                                
PROFAMCHA080502074809074819000010FAMJAM - Open/Close                                                                                                         150                                
PGRFAMCHA080502074819074919000100MV Disney - (MD/NS/NSW) - Jesse McCartney - Just S                                                                     60688120                                
PROFAMCHA080502074919074933000014xxFAMJAM - Close (FAMILY) xxDNUxx                                                                                           150                                
PROFAMCHA080502074933075004000031American Dragon Jake Long (MD) (APR07) HERO This A                                                                          150                                
PROFAMCHA080502075004075031000027Emperor's New School  - Zit - This afternoon @ 1:2                                                                          150                                
PROFAMCHA080502075031075041000010Phil of the Future IDs - Ricky Typing - log on to                                                                           150                                
PROFAMCHA080502075041075100000019MadMadMornings Block Open                                                                                                   150                                
PRCFAMCHA080502075100075110000010CC Disclaimer - FAST - Family.ca (:08-:10)                                                                                  150                                
PGRFAMCHA080502075110081344002234Disney's The Weekenders                           EP: 1-018                                                           A6068607ECC                              
PRCFAMCHA080502081344081350000006Astral ID (DEC 2007)                                                                                                        150                                
PROFAMCHA080502081350081428000038Radio Free Roscoe Online Promo REVISION (MD/NS/NSW                                                                          150                                
PGRFAMCHA080502081428081628000200xxDisney 365 - Wizard of Waverly Dude Promotes HSM                                                                    A60688120                                
PRCFAMCHA080502081628081634000006xxFamily Bumpers - Reptile Pet - Cow (MD/NS/NSW)                                                                            150                                
PROFAMCHA080502081634081729000055Disney Behind The Curtain (MD, NS, NSW) 2 x Day  (                                                                          150                                
PROFAMCHA080502081729081741000012Hannah Montana IDs - (NS) Miley # 1 - This Afterno                                                                          150                                
PROFAMCHA080502081741081800000019MadMadMornings Block Open                                                                                                   150                                
PRCFAMCHA080502081800081810000010CC Disclaimer - FAST - Generic (:09-:10)                                                                                    150                                
PGRFAMCHA080502081810084103002253Disney's Lloyd In Space                           EP: 23                                                               6068607ECC                              
PRCFAMCHA080502084103084118000015PH - 07 - EINSTEINS/FRANNY'S/TIGGER & POOH (:14 -                                                                           150                                
PROFAMCHA080502084118084148000030Little Einstein (PH) (PRESCHOOL) - Coming Up Next                                                                           150                                
PGRFAMCHA080502084148084313000125Pixie Previews - (MMM, PH) Silvermist                                                                                 A60688120                                
PROFAMCHA080502084313084343000030Mickey Mouse Clubhouse GENERIC - This Morning @ 10                                                                          150                                
PRCFAMCHA080502084343084357000014xxPlayhouse - HOZE HOUNDZ - Skater                                                                                          150                                
PROFAMCHA080502084357084448000051xxPHD Promo - I Love Mommy Marathon - Sat May 10 &                                                                          150                                
ID FAMCHA080502084448084500000012PS Playhouse AM Block Open (:10-:15)                                                                                        150                                
PRCFAMCHA080502084500084509000009CC Disclaimer - FAST - Family.ca (:08-:10)                                                                                  150                                
PGRFAMCHA080502084509090909002400Disney's Little Einsteins                         EP: 21                                                               6068607ECC                              
PRCFAMCHA080502090909090915000006Astral ID (DEC 2007)                                                                                                        150                                
