SO FAMCHA030401043000043011000011Sign On (oct 1)                                                                                                                                                
PROFAMCHA030401043011043020000009CC Disclaimer - FAST - Generic (:08-:10)                                                                                    150                                
PGRFAMCHA030401043020045313002253Franklin                                          Franklin and the Trooper/Franklin's Fossil                    B36665A1065607ECC                              
PROFAMCHA030401045313045326000013Preschool - 01(PH) - ART/KATIE/FRANKLIN (:13-:16)                                                                           150                                
OFFFAMCHA030401045326045336000010PS Playhouse Block Open (:10-:15)                                                                                                                              
PGRFAMCHA030401045336051324001948Art Attack                                        1-047                                                                60686110                                
PROFAMCHA030401051324051337000013Preschool - 02(PH) - KATIE/FRANKLIN/RIPLEY (:13-:1                                                                          150                                
OFFFAMCHA030401051337051347000010PS Playhouse Block Open (:10-:15)                                                                                                                              
PROFAMCHA030401051347051356000009CC Disclaimer - FAST - Family (:08-:10)                                                                                     150                                
PGRFAMCHA030401051356054034002638Katie And Orbie                                   Pizza/The Argument/Sidewalk Storyboard                        C19664A1065607ECC                              
PROFAMCHA030401054034054047000013Preschool - 03(PH) - FRANKLIN/RIPLEY/HOZE (:13-:16                                                                          150                                
OFFFAMCHA030401054047054057000010PS Playhouse Block Open (:10-:15)                                                                                                                              
PROFAMCHA030401054057054106000009CC Disclaimer - FAST - Family.ca (:08-:10)                                                                                  150                                
PGRFAMCHA030401054106060359002253Franklin                                          Franklin's Fortune Teller/Franklin's Cellar                   B36666A1065607ECC                              
PROFAMCHA030401060359060412000013Preschool - 04(PG) - RIPLEY/HOZE/BUZZ (:13-:16)                                                                             150                                
OFFFAMCHA030401060412060422000010PS Playground Block Open (:10-:15) *DNU POST AUG 1                                                                                                             
PROFAMCHA030401060422060431000009CC Disclaimer - FAST - Click Club (:08-:10) **DNU*                                                                          150                                
PGRFAMCHA030401060431062901002430Ripley's Believe It Or Not!                       Ghost of the Mystery House                                    B21802 1065607ECC                              
PROFAMCHA030401062901062913000012Preschool - 05(PG) - HOZE/BUZZ (:10-:13)                                                                                    150                                
PROFAMCHA030401062913062948000035Playground - GOOF TROOP - Manners                                                                                           150                                
OFFFAMCHA030401062948063000000012PS Playground Block Open (:10-:15) *DNU POST AUG 1                                                                                                             
PROFAMCHA030401063000063009000009CC Disclaimer - FAST - Generic (:08-:10)                                                                                    150                                
PGRFAMCHA030401063009065249002240Hoze Houndz                                       Hockey Night In Bonehead Hollow/Merry Mealz                   A63376A1065607ECC                              
PROFAMCHA030401065249065305000016Preschool - 06(PB) - BUZZ/PRLR/PRWF (:13-:16)                                                                               150                                
PROFAMCHA030401065305065332000027Even Stevens (GOLF) - Tonight @ 7pm                                                                                         150                                
PROFAMCHA030401065332065411000039Power Box (WEEKDAYS) - Weekdays, Starting @ 7am                                                                             150                                
INTFAMCHA030401065411065859000448Art Attack - Indian On A Horse                                                                                         60686120                                
PROFAMCHA030401065859065944000045Lizzie McGuire (MAGIC TRICK) - Today @ 5:35pm                                                                               150                                
OFFFAMCHA030401065944065959000015PS Power Box Block Open (:10-:15)                                                                                                                              
PGRFAMCHA030401065959072242002243Disney/Pixar's Buzz Lightyear of Star Command     Lost In Time                                                        A6068607E                                
PROFAMCHA030401072242072256000014Preschool - 07(PB) - PRLR/PRWF/HOM (:13-:16)                                                                                150                                
PROFAMCHA030401072256072326000030xxSaturday Sideshow (GAMES) - Lizzie @ 5pm                                                                                  150                                
PROFAMCHA030401072326072405000039Power Box (WEEKDAYS) - Weekdays, Starting @ 7am                                                                             150                                
INTFAMCHA030401072405072847000442Art Attack - Bi-Plane II                                                                                               60686120                                
PRCFAMCHA030401072847072917000030Mentors (EVERYONE) - Tonight @ 8:30pm                                                                                       150                                
PROFAMCHA030401072917072947000030Smart Guy (BRAINY) - Weekends @ 7:30am                                                                                      150                                
OFFFAMCHA030401072947073000000013PS Power Box Block Open (:10-:15)                                                                                                                              
PGRFAMCHA030401073000075128002128Power Rangers Lightspeed Rescue                   As Time Runs Out                                                    A6068607E                                
PROFAMCHA030401075128075140000012Preschool - 08(PB) - PRWF/HOM (:10-:13)                                                                                     150                                
PROFAMCHA030401075140075210000030Nightly Pix Block Promo - Tonight @ 9pm                                                                                     150                                
PROFAMCHA030401075210075255000045Lizzie McGuire (MAGIC TRICK) - Today @ 5:35pm                                                                               150                                
INTFAMCHA030401075255075742000447Art Attack - Ping Pong                                                                                                 60686120                                
PROFAMCHA030401075742075821000039Power Box (WEEKDAYS) - Weekdays, Starting @ 7am                                                                             150                                
PROFAMCHA030401075821075920000059Boy Meets World (DANCE) - Tonight @ 8pm                                                                                     150                                
PROFAMCHA030401075920075947000027Even Stevens (GOLF) - Tonight @ 7pm                                                                                         150                                
OFFFAMCHA030401075947080000000013PS Power Box Block Open (:10-:15)                                                                                                                              
PGRFAMCHA030401080000082130002130Power Rangers Wild Force                          Power Play                                                          A6068607E                                
PROFAMCHA030401082130082140000010Preschool - 09(PB) - HOM (:08-:11)                                                                                          150                                
PROFAMCHA030401082140082210000030Out To Lunch Block Promo - Today @ 11:50am                                                                                  150                                
PROFAMCHA030401082210082247000037Kim Possible (RON THE MAN) - Weekends @ 4:35pm                                                                              150                                
INTFAMCHA030401082247082351000104Jack and Marcel: Ep.032 "Invisible Cat"                                                                               A40688120                                
PROFAMCHA030401082351082430000039Power Box (WEEKDAYS) - Weekdays, Starting @ 7am                                                                             150                                
INTFAMCHA030401082430082831000401Art Attack - Scary Dragon                                                                                              60686120                                
PRCFAMCHA030401082831082901000030Mentors (EVERYONE) - Tonight @ 8:30pm                                                                                       150                                
PROFAMCHA030401082901082946000045Lizzie McGuire (MAGIC TRICK) - Today @ 5:35pm                                                                               150                                
OFFFAMCHA030401082946083000000014PS Power Box Block Open (:10-:15)                                                                                                                              
PGRFAMCHA030401083000085237002237Disney's House Of Mouse                           House Of Genius                                                     A6068607E                                
PROFAMCHA030401085237085251000014Preschool - 10(PH) - ELMO/KATIE/STANLEY (:13-:16)                                                                           150                                
PRCFAMCHA030401085251085326000035Franklin (CANOE) - Today @ 11am                                                                                             150                                
PROFAMCHA030401085326085416000050Art Attack (BASEBALL) - Weekends @ 3pm                                                                                      150                                
PRCFAMCHA030401085416085447000031Book of Pooh (SURPRISE) - Today @ 10:10am                                                                                   150                                
OFFFAMCHA030401085447085500000013PS Playhouse Block Open (:10-:15)                                                                                                                              
PGRFAMCHA030401085500090930001430Elmo's World                                      Balls                                                               A2068607G                                
PROFAMCHA030401090930090944000014Preschool - 11(PH-TT) - KATIE/STANLEY/BOP (:13-:16                                                                          150                                
PRCFAMCHA030401090944091015000031Franklin (HANKY) - Today @ 11am                                                                                             150                                
PRCFAMCHA030401091015091045000030Strawberry Shortcake Contest - MAR31 TO APR6                                                                                150                                
INTFAMCHA030401091045091333000248Art Attack - Magic Carpet                                                                                              60688120                                
PRCFAMCHA030401091333091349000016Book of Pooh (SUGGESTION BOX) - Today @ 10:10am                                                                             150                                
OFFFAMCHA030401091349091400000011PS Playhouse Block Open (:10-:15)                                                                                                                              
PROFAMCHA030401091400091409000009CC Disclaimer - FAST - Family (:08-:10)                                                                                     150                                
PGRFAMCHA030401091409094047002638Katie And Orbie                                   Mrs Parette's Necklace/Orbie and the Pumpkin Seed/            C19664A1055607ECC3                             
PROFAMCHA030401094047094101000014Preschool - 12(PH-TT) - STANLEY/BOP/OOTB (:13-:16)                                                                          150                                
PRCFAMCHA030401094101094127000026Franklin (PUPPY) - Today @ 11am                                                                                             150                                
PRCFAMCHA030401094127094142000015Strawberry Shortcake Contest Throw                                                                                          150                                
PROFAMCHA030401094142094217000035Playhouse - KATIE & ORBIE - Discoveries                                                                                     150                                
PRCFAMCHA030401094217094245000028Book of Pooh (DANCE) - Today @ 10:10am                                                                                      150                                
OFFFAMCHA030401094245094300000015PS Playhouse Block Open (:10-:15)                                                                                                                              
PROFAMCHA030401094300094309000009CC Disclaimer - FAST - Family.ca (:08-:10)                                                                                  150                                
PGRFAMCHA030401094309100707002358Stanley                                           Woodpecker Woes/P.U. Pup                                            A6068607ECC                              
PROFAMCHA030401100707100721000014Preschool - 13(PH-TT) - BOP/OOTB/FRANKLIN (:13-:16                                                                          150                                
PROFAMCHA030401100721100741000020Playhouse - OUT OF THE BOX - Get Together *DNU*                                                                             150                                
PRCFAMCHA030401100741100811000030Strawberry Shortcake Contest - MAR31 TO APR6                                                                                150                                
PRCFAMCHA030401100811100837000026Franklin (PUPPY) - Today @ 11am                                                                                             150                                
OFFFAMCHA030401100837100852000015PS Playhouse Block Open (:10-:15)                                                                                                                              
ID FAMCHA030401100852100900000008Magic of Disney - PLAYHOUSE - Shape (:06-:09)                                                                               150                                
PGRFAMCHA030401100900103302002402Book Of Pooh; The                                 The Small Wonders/Are You Me?                                        6068607G                                
PRCFAMCHA030401103302103312000010April Fool's Web Throw                                                                                                      150                                
PROFAMCHA030401103312103326000014Preschool - 14(PH) - OOTB/FRANKLIN/DUCKTALES (:13-                                                                          150                                
PROFAMCHA030401103326103350000024Playhouse - BOOK OF POOH - Big Bee *DNU*                                                                                    150                                
OFFFAMCHA030401103350103400000010PS Playhouse Block Open (:10-:15)                                                                                                                              
PROFAMCHA030401103400103409000009CC Disclaimer - FAST - Click Club (:08-:10) **DNU*                                                                          150                                
PGRFAMCHA030401103409105645002236Out of the Box                                    Blowin'in the Wind                                                   60686110CC                              
PRCFAMCHA030401105645105655000010April Fool's Web Throw                                                                                                      150                                
PROFAMCHA030401105655105709000014Preschool - 15(PH) - FRANKLIN/DUCKTALES/AMANDA (:1                                                                          150                                
PRCFAMCHA030401105709105735000026Franklin (PUPPY) - Coming Up                                                                                                150                                
INTFAMCHA030401105735105920000145Disney Circle Time - My Shadow (anywhere but D12)                                                                      60688120                                
PRCFAMCHA030401105920105948000028Book of Pooh (DANCE) - Tues/Thurs @ 10:10am                                                                                 150                                
OFFFAMCHA030401105948110000000012PS Playhouse Block Open (:10-:15)                                                                                                                              
PROFAMCHA030401110000110009000009CC Disclaimer - FAST - Generic (:08-:10)                                                                                    150                                
PGRFAMCHA030401110009112302002253Franklin                                          Franklin Plants a Tree/Franklin and Hero                      B36667A1065607ECC                              
PRCFAMCHA030401112302112312000010April Fool's Web Throw                                                                                                      150                                
PROFAMCHA030401112312112324000012Preschool - 16(PH) - DUCKTALES/AMANDA (:10-:13)                                                                             150                                
PRCFAMCHA030401112324112340000016Book of Pooh (SUGGESTION BOX) - Tues/Thurs @ 10:10                                                                          150                                
PROFAMCHA030401112340112359000019Playhouse - FRANKLIN - Party                                                                                                150                                
PROFAMCHA030401112359112449000050Art Attack (BASEBALL) - Weekends @ 3pm                                                                                      150                                
OFFFAMCHA030401112449112500000011PS Playhouse Block Open (:10-:15)                                                                                                                              
PROFAMCHA030401112500112509000009CC Disclaimer - FAST - Family (:08-:10)                                                                                     150                                
PGRFAMCHA030401112509114755002246Disney's DuckTales                                Pearl Of Wisdom                                                     A6068607ECC                              
PRCFAMCHA030401114755114805000010April Fool's Web Throw                                                                                                      150                                
PROFAMCHA030401114805114819000014Preschool - 17(OTL) - AMANDA/RECESS/ELMO (:13-:16)                                                                          150                                
PROFAMCHA030401114819114846000027Even Stevens (GOLF) - Tonight @ 7pm                                                                                         150                                
PROFAMCHA030401114846114945000059Boy Meets World (DANCE) - Tonight @ 8pm                                                                                     150                                
OFFFAMCHA030401114945115000000015Mad Dash Block Open (:10-:15)                                                                                                                                  
PGRFAMCHA030401115000121415002415Amanda Show; The                                  1-010                                                               A20686090                                
PRCFAMCHA030401121415121425000010April Fool's Web Throw                                                                                                      150                                
PROFAMCHA030401121425121438000013Preschool - 18(OTL) - RECESS/ELMO/KATIE (:13-:16)                                                                           150                                
PRCFAMCHA030401121438121508000030Harry Potter (BLAST!) - In Stores April 11th                                                                                150                                
OFFFAMCHA030401121508121518000010Mad Dash Block Open (:10-:15)                                                                                                                                  
PGRFAMCHA030401121518123752002234Disney's Recess                                   The Story of Whomps/Weekend at Muriels                               6068607E                                
PRCFAMCHA030401123752123802000010April Fool's Web Throw                                                                                                      150                                
PROFAMCHA030401123802123815000013Preschool - 19(PH) - ELMO/KATIE/OOTB (:13-:16)                                                                              150                                
OFFFAMCHA030401123815123825000010PS Playhouse Block Open (:10-:15)                                                                                                                              
PGRFAMCHA030401123825125357001532Elmo's World                                      Shoes                                                               A2068607G                                
PRCFAMCHA030401125357125407000010April Fool's Web Throw                                                                                                      150                                
PROFAMCHA030401125407125423000016Preschool - 20(PH) - KATIE/OOTB/HOZE (:13-:16)                                                                              150                                
PRCFAMCHA030401125423125454000031Franklin (HANKY) - Tomorrow @ 11am                                                                                          150                                
PRCFAMCHA030401125454125509000015Strawberry Shortcake Contest Throw                                                                                          150                                
PROFAMCHA030401125509125544000035Playhouse - KATIE & ORBIE - Did You Know?                                                                                   150                                
OFFFAMCHA030401125544125559000015PS Playhouse Block Open (:10-:15)                                                                                                                              
PROFAMCHA030401125559125609000010CC Disclaimer - FAST - Family.ca (:08-:10)                                                                                  150                                
PGRFAMCHA030401125609132247002638Katie And Orbie                                   Chill/Christian/Seventh Wave                                  C19664A1055607ECC3                             
PRCFAMCHA030401132247132257000010April Fool's Web Throw                                                                                                      150                                
PROFAMCHA030401132257132310000013Preschool - 21(PH) - OOTB/HOZE/GOOF (:13-:16)                                                                               150                                
OFFFAMCHA030401132310132320000010PS Playhouse Block Open (:10-:15)                                                                                                                              
PROFAMCHA030401132320132329000009CC Disclaimer - FAST - Click Club (:08-:10) **DNU*                                                                          150                                
PGRFAMCHA030401132329134534002205Out of the Box                                    Rock-A-Bye Baby                                                     A6068607ACC                              
PRCFAMCHA030401134534134544000010April Fool's Web Throw                                                                                                      150                                
PROFAMCHA030401134544134558000014Preschool - 22(PG) - HOZE/GOOF/DUCKTALES (:13-:16)                                                                          150                                
PROFAMCHA030401134558134635000037Kim Possible (RON THE MAN) - Weekends @ 4:35pm                                                                              150                                
PROFAMCHA030401134635134702000027Playground - BUZZ LIGHTYEAR - Big Head                                                                                      150                                
PROFAMCHA030401134702134717000015Recess (SPRINKLER) - Today @ 5:05pm                                                                                         150                                
PROFAMCHA030401134717134747000030Mad Dash Block Promo - Today from 3pm to 6pm                                                                                150                                
OFFFAMCHA030401134747134800000013PS Playground Block Open (:10-:15) *DNU POST AUG 1                                                                                                             
PROFAMCHA030401134800134809000009CC Disclaimer - FAST - Generic (:08-:10)                                                                                    150                                
PGRFAMCHA030401134809141043002234Hoze Houndz                                       High Bred Hound/Hozer, I Shrunk the Houndz                    B17131A1065607ECC                              
PRCFAMCHA030401141043141053000010April Fool's Web Throw                                                                                                      150                                
PROFAMCHA030401141053141105000012Preschool - 23(PG) - GOOF/DUCKTALES (:10-:13)                                                                               150                                
PROFAMCHA030401141105141140000035Playground - GOOF TROOP - Manners                                                                                           150                                
OFFFAMCHA030401141140141152000012PS Playground Block Open (:10-:15) *DNU POST AUG 1                                                                                                             
ID FAMCHA030401141152141200000008Magic of Disney - PLAYGROUND - Wipe (:06-:09) *DNU                                                                          150                                
PROFAMCHA030401141200141209000009CC Disclaimer - FAST - Family (:08-:10)                                                                                     150                                
PGRFAMCHA030401141209143455002246Goof Troop                                        Fool's Gold                                                          6068607ECC                              
PRCFAMCHA030401143455143505000010April Fool's Web Throw                                                                                                      150                                
PROFAMCHA030401143505143515000010Preschool - 24(PG) - DUCKTALES (:08-:11)                                                                                    150                                
PROFAMCHA030401143515143547000032Playground - GOOF TROOP - TV                                                                                                150                                
OFFFAMCHA030401143547143600000013PS Playground Block Open (:10-:15) *DNU POST AUG 1                                                                                                             
PROFAMCHA030401143600143609000009CC Disclaimer - FAST - Family.ca (:08-:10)                                                                                  150                                
PGRFAMCHA030401143609145856002247Disney's DuckTales                                The Curse Of Castle Mcduck                                          A6068607ECC                              
PRCFAMCHA030401145856145906000010April Fool's Web Throw                                                                                                      150                                
PROFAMCHA030401145906145920000014MD - 01 - HOUSE/BUZZ/PEPPER (:13-:16)                                                                                       150                                
PROFAMCHA030401145920145947000027Mad Dash - PEPPER ANN - Great Mom                                                                                           150                                
OFFFAMCHA030401145947150000000013Mad Dash Block Open (:10-:15)                                                                                                                                  
PGRFAMCHA030401150000152232002232Disney's House Of Mouse                           The Mouse Who Came To Dinner                                        A6068607E                                
PRCFAMCHA030401152232152242000010April Fool's Web Throw                                                                                                      150                                
PROFAMCHA030401152242152256000014MD - 02 - BUZZ/PEPPER/TARZAN (:13-:16)                                                                                      150                                
PROFAMCHA030401152256152333000037Kim Possible (RON THE MAN) - Weekends @ 4:35pm                                                                              150                                
PRCFAMCHA030401152333152403000030Strawberry Shortcake Contest - MAR31 TO APR6                                                                                150                                
PROFAMCHA030401152403152425000022Mad Dash - LIZZIE MCGUIRE - Chase                                                                                           150                                
PROFAMCHA030401152425152449000024Legend of Tarzan (S.O.S) - Today @ 4:15pm                                                                                   150                                
OFFFAMCHA030401152449152500000011Mad Dash Block Open (:10-:15)                                                                                                                                  
PGRFAMCHA030401152500154738002238Disney/Pixar's Buzz Lightyear of Star Command     Ancient Evil                                                        A6068607E                                
PRCFAMCHA030401154738154748000010April Fool's Web Throw                                                                                                      150                                
PROFAMCHA030401154748154802000014MD - 03 - PEPPER/TARZAN/WKNDRS (:13-:16)                                                                                    150                                
PROFAMCHA030401154802154832000030PR Lightspeed Rescue - Tomorrow @ 7:30am                                                                                    150                                
PROFAMCHA030401154832154847000015Recess (SPRINKLER) - Today @ 5:05pm                                                                                         150                                
PROFAMCHA030401154847154946000059Boy Meets World (DANCE) - Tonight @ 8pm                                                                                     150                                
OFFFAMCHA030401154946155000000014Mad Dash Block Open (:10-:15)                                                                                                                                  
PROFAMCHA030401155000155009000009CC Disclaimer - FAST - Click Club (:08-:10) **DNU*                                                                          150                                
PGRFAMCHA030401155009161258002249Disney's Pepper Ann                               Psychic Moose/Doll & Chain                                           6068607ECC                              
PRCFAMCHA030401161258161308000010April Fool's Web Throw                                                                                                      150                                
PROFAMCHA030401161308161322000014MD - 04 - TARZAN/WKNDRS/RECESS (:13-:16)                                                                                    150                                
PROFAMCHA030401161322161352000030That's So Raven - Weekends @ 5:25pm                                                                                         150                                
PROFAMCHA030401161352161404000012Buzz Lightyear (SPACE RANGER) - Weekdays @ 3:25pm                                                                           150                                
PRCFAMCHA030401161404161419000015Strawberry Shortcake Contest Throw                                                                                          150                                
PROFAMCHA030401161419161518000059Boy Meets World (DANCE) - Tonight @ 8pm                                                                                     150                                
PROFAMCHA030401161518161548000030Popcorn Pix Movie Promo - Fridays @ 7:30pm                                                                                  150                                
OFFFAMCHA030401161548161600000012Mad Dash Block Open (:10-:15)                                                                                                                                  
PGRFAMCHA030401161600163845002245Disney's The Legend of Tarzan                     Silver Ape                                                          A6068607E                                
PRCFAMCHA030401163845163855000010April Fool's Web Throw                                                                                                      150                                
PROFAMCHA030401163855163908000013MD - 05 - WKNDRS/RECESS/LIZZIE (:13-:16)                                                                                    150                                
PROFAMCHA030401163908163935000027Even Stevens (GOLF) - Tonight @ 7pm                                                                                         150                                
INTFAMCHA030401163935164120000145Art Attack - Bi-Plane I                                                                                                60686120                                
PRCFAMCHA030401164120164150000030Harry Potter (BLAST!) - In Stores April 11th                                                                                150                                
OFFFAMCHA030401164150164200000010Mad Dash Block Open (:10-:15)                                                                                                                                  
PROFAMCHA030401164200164209000009CC Disclaimer - FAST - Generic (:08-:10)                                                                                    150                                
PGRFAMCHA030401164209170447002238Disney's The Weekenders                           Brain Dead/Lor's Will                                               A6068607ECC                              
PRCFAMCHA030401170447170457000010April Fool's Web Throw                                                                                                      150                                
PROFAMCHA030401170457170511000014MD - 06 - RECESS/LIZZIE/AMANDA (:13-:16)                                                                                    150                                
PROFAMCHA030401170511170556000045Lizzie McGuire (MAGIC TRICK) - Today @ 5:35pm                                                                               150                                
INTFAMCHA030401170556170700000104Jack and Marcel: Ep.033 "Bubbles"                                                                                     A40688120                                
PROFAMCHA030401170700170719000019Mad Dash - LEGEND OF TARZAN - Swinging                                                                                      150                                
PROFAMCHA030401170719170749000030That's So Raven - Weekends @ 5:25pm                                                                                         150                                
OFFFAMCHA030401170749170800000011Mad Dash Block Open (:10-:15)                                                                                                                                  
PGRFAMCHA030401170800173035002235Disney's Recess                                   A Great State Fair/The A.V. Kid                                      6068607E                                
PRCFAMCHA030401173035173045000010April Fool's Web Throw                                                                                                      150                                
PROFAMCHA030401173045173059000014MD - 07 - LIZZIE/AMANDA/ALLTHAT (:13-:16)                                                                                   150                                
PRCFAMCHA030401173059173129000030What A Girl Wants Contest - In Theatres April 4th                                                                           150                                
PROFAMCHA030401173129173228000059Boy Meets World (DANCE) - Tonight @ 8pm                                                                                     150                                
PROFAMCHA030401173228173238000010Mad Dash - LIZZIE MCGUIRE - Going In                                                                                        150                                
PRCFAMCHA030401173238173308000030Mentors (EVERYONE) - Tonight @ 8:30pm                                                                                       150                                
PRCFAMCHA030401173308173338000030What A Girl Wants (BLAST!) - In Theatres April 4th                                                                          150                                
OFFFAMCHA030401173338173352000014Mad Dash Block Open (:10-:15)                                                                                                                                  
ID FAMCHA030401173352173400000008Magic of Disney - MAD DASH - Shape (:06-:09)                                                                                150                                
PGRFAMCHA030401173400175634002234Lizzie McGuire                                    When Moms Attack                                                    A6068607B                                
PRCFAMCHA030401175634175644000010April Fool's Web Throw                                                                                                      150                                
PROFAMCHA030401175644175658000014NS - MON-THURS - 01 - AMNDA/ALL/EVEN (:13-:16)                                                                              150                                
PROFAMCHA030401175658175728000030All That (NEW) - Tonight @ 6:30pm                                                                                           150                                
PROFAMCHA030401175728175748000020Nonstop - BOY MEETS WORLD - Good Looking                                                                                    150                                
PRCFAMCHA030401175748175848000100What A Girl Wants (BLAST!) - In Theatres April 4th                                                                          150                                
PROFAMCHA030401175848175947000059Boy Meets World (DANCE) - Tonight @ 8pm                                                                                     150                                
OFFFAMCHA030401175947180000000013Nonstop Block Open (:10-:15)                                                                                                                                   
PGRFAMCHA030401180000182420002420Amanda Show; The                                  1-011                                                               A20686090                                
ID FAMCHA030401182420182425000005Astral "A Network Of" Logo - English Animation                                                                              150                                
PRCFAMCHA030401182425182435000010April Fool's Web Throw                                                                                                      150                                
PROFAMCHA030401182435182449000014NS - MON-THURS - 02 - ALL/EVEN/JETT (:13-:16)                                                                               150                                
PRCFAMCHA030401182449182549000100What A Girl Wants (BLAST!) - In Theatres April 4th                                                                          150                                
PROFAMCHA030401182549182616000027Even Stevens (GOLF) - Tonight @ 7pm                                                                                         150                                
INTFAMCHA030401182616182746000130Klootz - North Pole 04                                                                                                A10658120                                
PROFAMCHA030401182746182845000059Boy Meets World (DANCE) - Tonight @ 8pm                                                                                     150                                
PROFAMCHA030401182845182917000032PR Wild Force (CHAIR) - Weekends @ 6:30am                                                                                   150                                
PRCFAMCHA030401182917182947000030What A Girl Wants (BLAST!) - In Theatres April 4th                                                                          150                                
OFFFAMCHA030401182947183000000013Nonstop Block Open (:10-:15)                                                                                                                                   
PGRFAMCHA030401183000185421002421All That                                          594                                                                 A20686090                                
ID FAMCHA030401185421185426000005Astral "A Network Of" Logo - English Animation                                                                              150                                
PRCFAMCHA030401185426185436000010April Fool's Web Throw                                                                                                      150                                
PROFAMCHA030401185436185450000014NS - MON-THURS - 03 - EVEN/JETT/BMW (:13-:16)                                                                               150                                
PROFAMCHA030401185450185520000030Nightly Pix Block Promo - Tonight @ 9pm                                                                                     150                                
PRCFAMCHA030401185520185550000030Family Fridays Contest                                                                                                      150                                
INTFAMCHA030401185550185909000319Art Attack - Garbage Truckman                                                                                          60686120                                
PRCFAMCHA030401185909185939000030Mentors (EVERYONE) - Tonight @ 8:30pm                                                                                       150                                
OFFFAMCHA030401185939185952000013Nonstop Block Open (:10-:15)                                                                                                                                   
ID FAMCHA030401185952190000000008Magic of Disney - NS/NSW/PB - Wipe (:06-:09)                                                                                150                                
PROFAMCHA030401190000190009000009CC Disclaimer - FAST - Family (:08-:10)                                                                                     150                                
PGRFAMCHA030401190009192240002231Even Stevens                                      Beans On The Brain                                                  A6028807BCC                              
ID FAMCHA030401192240192243000003Astral "A Network Of" Logo - English Animation                                                                              150                                
PRCFAMCHA030401192243192253000010April Fool's Web Throw                                                                                                      150                                
PROFAMCHA030401192253192307000014NS - MON-THURS - 04 - JETT/BMW/MENTORS (:13-:16)                                                                            150                                
PROFAMCHA030401192307192406000059Boy Meets World (DANCE) - Tonight @ 8pm                                                                                     150                                
PROFAMCHA030401192406192436000030Out To Lunch Block Promo - Tomorrow @ 11:50am                                                                               150                                
INTFAMCHA030401192436192917000441Art Attack - Horse                                                                                                     60686120                                
PROFAMCHA030401192917192947000030Nightly Pix Block Promo - Tonight @ 9pm                                                                                     150                                
OFFFAMCHA030401192947193000000013Nonstop Block Open (:10-:15)                                                                                                                                   
PROFAMCHA030401193000193009000009CC Disclaimer - FAST - Family.ca (:08-:10)                                                                                  150                                
PGRFAMCHA030401193009195442002433Famous Jett Jackson; The                          Bank Robbery                                                  B57139 1065607ACC                              
ID FAMCHA030401195442195445000003Astral "A Network Of" Logo - English Animation                                                                              150                                
PRCFAMCHA030401195445195455000010April Fool's Web Throw                                                                                                      150                                
PROFAMCHA030401195455195509000014NS - MON-THURS - 05 - BMW/MENTORS/N-PIX (:13-:16)                                                                           150                                
PRCFAMCHA030401195509195539000030Mentors (EVERYONE) - Tonight @ 8:30pm                                                                                       150                                
INTFAMCHA030401195539195917000338Art Attack - Family At Beach                                                                                           60686120                                
PRCFAMCHA030401195917195947000030@ The Movies - Sunday @ 8:45pm                                                                                              150                                
OFFFAMCHA030401195947200000000013Nonstop Block Open (:10-:15)                                                                                                                                   
PROFAMCHA030401200000200009000009CC Disclaimer - FAST - Click Club (:08-:10) **DNU*                                                                          150                                
PGRFAMCHA030401200009202133002124Boy Meets World                                   Show Me The Love                                                    B6028807BCC                              
ID FAMCHA030401202133202138000005Astral "A Network Of" Logo - English Animation                                                                              150                                
PRCFAMCHA030401202138202148000010April Fool's Web Throw                                                                                                      150                                
PROFAMCHA030401202148202158000010NS - MON-THURS - 06 - MENTORS/N-PIX (:10-:13)                                                                               150                                
PROFAMCHA030401202158202228000030xxSaturday Sideshow (GAMES) - Lizzie @ 5pm                                                                                  150                                
INTFAMCHA030401202228202332000104Jack and Marcel: Ep.129 "Oh Glorious Food"                                                                            A40688120                                
PRCFAMCHA030401202332202402000030Family Fridays Contest                                                                                                      150                                
INTFAMCHA030401202402202849000447Art Attack - Ping Pong                                                                                                 60686120                                
PROFAMCHA030401202849202919000030That's So Raven - Weekends @ 5:25pm                                                                                         150                                
PROFAMCHA030401202919202949000030Nightly Pix Block Promo - Tonight @ 9pm                                                                                     150                                
OFFFAMCHA030401202949203000000011Nonstop Block Open (:10-:15)                                                                                                                                   
PROFAMCHA030401203000203009000009CC Disclaimer - FAST - Generic (:08-:10)                                                                                    150                                
PGRFAMCHA030401203009205320002311Mentors                                           Experience                                                    C18998A1055607ACC3                             
ID FAMCHA030401205320205325000005Astral "A Network Of" Logo - English Animation                                                                              150                                
PRCFAMCHA030401205325205335000010April Fool's Web Throw                                                                                                      150                                
PROFAMCHA030401205335205345000010Nightly Pix Line-up - 03 - COMEDY (:08-:11)                                                                                 150                                
PROFAMCHA030401205345205415000030Popcorn Pix Movie Promo - Fridays @ 7:30pm                                                                                  150                                
PROFAMCHA030401205415205452000037Kim Possible (RON THE MAN) - Weekends @ 4:35pm                                                                              150                                
PRCFAMCHA030401205452205522000030Family Fridays Contest                                                                                                      150                                
INTFAMCHA030401205522205851000329Art Attack - 2 Swans                                                                                                   60686120                                
PROFAMCHA030401205851205918000027Even Stevens (GOLF) - Tomorrow @ 7pm                                                                                        150                                
PROFAMCHA030401205918205948000030Nightly Pix Block Promo - Coming Up                                                                                         150                                
ID FAMCHA030401205948210000000012Nightly Pix Movie Open (:10-:15)                                                                                            150                                
PRCFAMCHA030401210000210009000009Rating - PG - Ian (:08-:10)                                                                                                 150                                
PROFAMCHA030401210009210018000009CC Disclaimer - SLOW - Click Club (:08-:10) **DNU*                                                                          150                                
PGRFAMCHA030401210018222754012736Airplane!                                                                                                             B2068807DCC                              
ID FAMCHA030401222754222757000003Astral "A Network Of" Logo - English Animation                                                                              150                                
PRCFAMCHA030401222757222807000010April Fool's Web Throw                                                                                                      150                                
PROFAMCHA030401222807222821000014NS - MON-THURS - 07 - DARK/YBB/AMAZING (:13-:16)                                                                            150                                
PRCFAMCHA030401222821222851000030@ The Movies - Sunday @ 8:45pm                                                                                              150                                
PRCFAMCHA030401222851222921000030Family Fridays Contest                                                                                                      150                                
PROFAMCHA030401222921222946000025Your Big Break (LITTLE RICHARD) - Sunday @ 8pm                                                                              150                                
OFFFAMCHA030401222946223000000014Nonstop Block Open (:10-:15)                                                                                                                                   
PGRFAMCHA030401223000225422002422Are You Afraid Of The Dark?                       The Tale of the Dangerous Soup                                SR0304 1066807A                                
ID FAMCHA030401225422225425000003Astral "A Network Of" Logo - English Animation                                                                              150                                
PRCFAMCHA030401225425225435000010April Fool's Web Throw                                                                                                      150                                
PROFAMCHA030401225435225450000015NS - MON-THURS - 08 - YBB/AMAZING/DARK (:13-:16)                                                                            150                                
PROFAMCHA030401225450225549000059Boy Meets World (DANCE) - Tomorrow @ 8pm                                                                                    150                                
INTFAMCHA030401225549225915000326Art Attack - Guitarist                                                                                                 60686120                                
PRCFAMCHA030401225915225945000030Mentors (EVERYONE) - Tomorrow @ 8:30pm                                                                                      150                                
OFFFAMCHA030401225945230000000015Nonstop Block Open (:10-:15)                                                                                                                                   
PROFAMCHA030401230000230009000009CC Disclaimer - SLOW - Family (:08-:10)                                                                                     150                                
PGRFAMCHA030401230009234400004351Your Big Break                                    1-018                                                                60688090CC                              
ID FAMCHA030401234400234405000005Astral "A Network Of" Logo - English Animation                                                                              150                                
PRCFAMCHA030401234405234415000010April Fool's Web Throw                                                                                                      150                                
PROFAMCHA030401234415234427000012NS - MON-THURS - 09 - AMAZING/DARK (:10-:13)                                                                                150                                
PROFAMCHA030401234427234457000030Out To Lunch Block Promo - Tomorrow @ 11:50am                                                                               150                                
PGRFAMCHA030401234457235821001324Goofy's Freeway Troubles                                                                                               60688150                                
PROFAMCHA030401235821235920000059Boy Meets World (DANCE) - Tomorrow @ 8pm                                                                                    150                                
PROFAMCHA030401235920235950000030PR Ninja Storm - Friday @ 8am                                                                                               150                                
OFFFAMCHA030401235950000000000010Nonstop Block Open (:10-:15)                                                                                                                                   
PGRFAMCHA030401000000002442002442Amazing Stories                                   The Main Attraction                                                 A2068807A                                
ID FAMCHA030401002442002447000005Astral "A Network Of" Logo - English Animation                                                                              150                                
PRCFAMCHA030401002447002457000010April Fool's Web Throw                                                                                                      150                                
PROFAMCHA030401002457002507000010NS - MON-THURS - 10 - DARK (:08-:11)                                                                                        150                                
PRCFAMCHA030401002507002537000030@ The Movies - Sunday @ 8:45pm                                                                                              150                                
INTFAMCHA030401002537002910000333Art Attack - Horse Race                                                                                                60686120                                
PROFAMCHA030401002910002949000039Power Box (WEEKDAYS) - Tomorrow, Starting @ 7am                                                                             150                                
OFFFAMCHA030401002949003000000011Nonstop Block Open (:10-:15)                                                                                                                                   
PGRFAMCHA030401003000005434002434Are You Afraid Of The Dark?                       The Tale of Cutter's Treasure (part 2)                        SR0305 1066807A                                
ID FAMCHA030401005434005437000003Astral "A Network Of" Logo - English Animation                                                                              150                                
PRCFAMCHA030401005437005447000010April Fool's Web Throw                                                                                                      150                                
PROFAMCHA030401005447005546000059Boy Meets World (DANCE) - Tomorrow @ 8pm                                                                                    150                                
PROFAMCHA030401005546005613000027Even Stevens (GOLF) - Tomorrow @ 7pm                                                                                        150                                
INTFAMCHA030401005613005743000130Klootz - Medecin 06 (post 7PM)                                                                                        A10658120                                
PROFAMCHA030401005743005843000100Amanda Show (UNDERPANTS) - Weeknights @ 6pm                                                                                 150                                
INTFAMCHA030401005843010201000318MV Disney - Can't Help Falling In Love                                                                                 60688120                                
SO FAMCHA030401010201010213000012Sign Off (oct 1)                                                                                                                                               
OFFFAMCHA030401010213043000032747                                                                                                                                                               
SO FAMCHA030402043000043011000011Sign On (oct 1)                                                                                                                                                
PROFAMCHA030402043011043020000009CC Disclaimer - FAST - Generic (:08-:10)                                                                                    150                                
PGRFAMCHA030402043020045313002253Franklin                                          Franklin's Day Off/Franklin's Homemade Cookies                B36668A1065607ECC                              
PROFAMCHA030402045313045327000014Preschool - 01(PH) - ART/KATIE/FRANKLIN (:13-:16)                                                                           150                                
OFFFAMCHA030402045327045340000013PS Playhouse Block Open (:10-:15)                                                                                                                              
PGRFAMCHA030402045340051351002011Art Attack                                        1-048                                                                60686110                                
PROFAMCHA030402051351051405000014Preschool - 02(PH) - KATIE/FRANKLIN/RIPLEY (:13-:1                                                                          150                                
OFFFAMCHA030402051405051418000013PS Playhouse Block Open (:10-:15)                                                                                                                              
PROFAMCHA030402051418051427000009CC Disclaimer - FAST - Family (:08-:10)                                                                                     150                                
PGRFAMCHA030402051427054105002638Katie And Orbie                                   Snake In The Grass/Sprite/Homegrown Supper                    C19664A1065607ECC                              
PROFAMCHA030402054105054119000014Preschool - 03(PH) - FRANKLIN/RIPLEY/HOZE (:13-:16                                                                          150                                
OFFFAMCHA030402054119054132000013PS Playhouse Block Open (:10-:15)                                                                                                                              
PROFAMCHA030402054132054141000009CC Disclaimer - FAST - Family.ca (:08-:10)                                                                                  150                                
PGRFAMCHA030402054141060434002253Franklin                                          Franklin the Fabulous/Franklin Camps Out                      B36669A1065607ECC                              
PROFAMCHA030402060434060448000014Preschool - 04(PG) - RIPLEY/HOZE/BUZZ (:13-:16)                                                                             150                                
OFFFAMCHA030402060448060501000013PS Playground Block Open (:10-:15) *DNU POST AUG 1                                                                                                             
PROFAMCHA030402060501060510000009CC Disclaimer - FAST - Generic (:08-:10)                                                                                    150                                
PGRFAMCHA030402060510062940002430Ripley's Believe It Or Not!                       The Lama's Skull                                              B21803 1065607ECC                              
PROFAMCHA030402062940062952000012Preschool - 05(PG) - HOZE/BUZZ (:10-:13)                                                                                    150                                
OFFFAMCHA030402062952063005000013PS Playground Block Open (:10-:15) *DNU POST AUG 1                                                                                                             
PROFAMCHA030402063005063014000009CC Disclaimer - FAST - Family (:08-:10)                                                                                     150                                
PGRFAMCHA030402063014065253002239Hoze Houndz                                       Super Showdown/Pudding Up A Fight                             A63377A1065607ECC                              
PROFAMCHA030402065253065307000014Preschool - 06(PB) - BUZZ/PRLR/PRWF (:13-:16)                                                                               150                                
PROFAMCHA030402065307065337000030PR Ninja Storm - Friday @ 8am                                                                                               150                                
PROFAMCHA030402065337065407000030All That (NEW) - Tonight @ 6:30pm                                                                                           150                                
INTFAMCHA030402065407065755000348Art Attack - Pirate Treasure Chest                                                                                     60686120                                
PROFAMCHA030402065755065834000039Power Box (WEEKDAYS) - Weekdays, Starting @ 7am                                                                             150                                
PROFAMCHA030402065834065919000045Lizzie McGuire (MAGIC TRICK) - Today @ 5:35pm                                                                               150                                
PROFAMCHA030402065919065949000030Popcorn Pix Movie Promo - Fridays @ 7:30pm                                                                                  150                                
OFFFAMCHA030402065949070000000011PS Power Box Block Open (:10-:15)                                                                                                                              
PGRFAMCHA030402070000072242002242Disney/Pixar's Buzz Lightyear of Star Command     Rookie of the Year                                                  A6068607E                                
PROFAMCHA030402072242072256000014Preschool - 07(PB) - PRLR/PRWF/HOM (:13-:16)                                                                                150                                
PROFAMCHA030402072256072326000030Popcorn Pix Movie Promo - Fridays @ 7:30pm                                                                                  150                                
PROFAMCHA030402072326072405000039Power Box (WEEKDAYS) - Weekdays, Starting @ 7am                                                                             150                                
INTFAMCHA030402072405072825000420Art Attack - Genie                                                                                                     60686120                                
PROFAMCHA030402072825072851000026Boy Meets World (SHAWN) - Tonight @ 8pm                                                                                     150                                
PROFAMCHA030402072851072918000027Pepper Ann (WHO IS SHE?) - Today @ 3:50pm                                                                                   150                                
PROFAMCHA030402072918072948000030Out To Lunch Block Promo - Today @ 11:50am                                                                                  150                                
OFFFAMCHA030402072948073000000012PS Power Box Block Open (:10-:15)                                                                                                                              
PGRFAMCHA030402073000075128002128Power Rangers Lightspeed Rescue                   In The Freeze Zone                                                  A6068607E                                
PROFAMCHA030402075128075140000012Preschool - 08(PB) - PRWF/HOM (:10-:13)                                                                                     150                                
PROFAMCHA030402075140075210000030Popcorn Pix Movie Promo - Fridays @ 7:30pm                                                                                  150                                
PROFAMCHA030402075210075249000039Power Box (WEEKDAYS) - Weekdays, Starting @ 7am                                                                             150                                
INTFAMCHA030402075249075640000351MV Disney - Miracles Happen (MYRA)                                                                                     60688120                                
PROFAMCHA030402075640075717000037Kim Possible (RON THE MAN) - Weekends @ 4:35pm                                                                              150                                
PROFAMCHA030402075717075747000030That's So Raven - Weekends @ 5:25pm                                                                                         150                                
INTFAMCHA030402075747075851000104Jack and Marcel: Ep.046 "Icarus"                                                                                      A40688120                                
PROFAMCHA030402075851075918000027Even Stevens (GOLF) - Tonight @ 7pm                                                                                         150                                
PROFAMCHA030402075918075948000030All That (NEW) - Tonight @ 6:30pm                                                                                           150                                
OFFFAMCHA030402075948080000000012PS Power Box Block Open (:10-:15)                                                                                                                              
PGRFAMCHA030402080000082128002128Power Rangers Wild Force                          Secrets And Lies                                                    A6068607E                                
PROFAMCHA030402082128082138000010Preschool - 09(PB) - HOM (:08-:11)                                                                                          150                                
PROFAMCHA030402082138082208000030Popcorn Pix Movie Promo - Fridays @ 7:30pm                                                                                  150                                
PROFAMCHA030402082208082238000030Out To Lunch Block Promo - Today @ 11:50am                                                                                  150                                
INTFAMCHA030402082238082520000242Art Attack - Killer Whale                                                                                              60686120                                
PROFAMCHA030402082520082550000030All That (NEW) - Tonight @ 6:30pm                                                                                           150                                
INTFAMCHA030402082550082903000313MV Disney - The Kid In You (KRYSTAL MARIE HARRIS)                                                                      60688120                                
PROFAMCHA030402082903082918000015Weekenders (REALITY) - Today @ 4:40pm                                                                                       150                                
PROFAMCHA030402082918082948000030PR Ninja Storm - Friday @ 8am                                                                                               150                                
OFFFAMCHA030402082948083000000012PS Power Box Block Open (:10-:15)                                                                                                                              
PGRFAMCHA030402083000085237002237Disney's House Of Mouse                           House of Magic                                                      A6068607E                                
PROFAMCHA030402085237085251000014Preschool - 10(PH) - ELMO/KATIE/STANLEY (:13-:16)                                                                           150                                
PRCFAMCHA030402085251085322000031Book of Pooh (SURPRISE) - Tomorrow @ 10:10am                                                                                150                                
PROFAMCHA030402085322085357000035Playhouse - KATIE & ORBIE - Did You Know?                                                                                   150                                
PROFAMCHA030402085357085447000050Art Attack (BASEBALL) - Weekends @ 3pm                                                                                      150                                
OFFFAMCHA030402085447085500000013PS Playhouse Block Open (:10-:15)                                                                                                                              
PGRFAMCHA030402085500091018001518Elmo's World                                      Hats                                                                A2068607G                                
PROFAMCHA030402091018091033000015Preschool - 11(PH-MWF) - KATIE/STANLEY/WTP (:13-:1                                                                          150                                
PRCFAMCHA030402091033091101000028Book of Pooh (DANCE) - Tomorrow @ 10:10am                                                                                   150                                
INTFAMCHA030402091101091319000218Art Attack - Windmill                                                                                                  60688120                                
PRCFAMCHA030402091319091345000026Franklin (PUPPY) - Today @ 11am                                                                                             150                                
OFFFAMCHA030402091345091400000015PS Playhouse Block Open (:10-:15)                                                                                                                              
PROFAMCHA030402091400091409000009CC Disclaimer - FAST - Family (:08-:10)                                                                                     150                                
PGRFAMCHA030402091409094047002638Katie And Orbie                                   Pizza/The Argument/Sidewalk Storyboard                        C19664A1055607ECC3                             
PROFAMCHA030402094047094101000014Preschool - 12(PH-MWF) - STANLEY/WTP/OOTB (:13-:16                                                                          150                                
PRCFAMCHA030402094101094132000031Book of Pooh (SURPRISE) - Tomorrow @ 10:10am                                                                                150                                
PRCFAMCHA030402094132094202000030Strawberry Shortcake Contest - MAR31 TO APR6                                                                                150                                
PROFAMCHA030402094202094248000046Playhouse - STANLEY - Squirrel Song                                                                                         150                                
OFFFAMCHA030402094248094300000012PS Playhouse Block Open (:10-:15)                                                                                                                              
PROFAMCHA030402094300094309000009CC Disclaimer - FAST - Family.ca (:08-:10)                                                                                  150                                
PGRFAMCHA030402094309100711002402Stanley                                           Woodpecker Woes/It Pays To Be A Pelican                             A6068607ECC                              
PROFAMCHA030402100711100725000014Preschool - 13(PH-MWF) - WTP/OOTB/FRANKLIN (:13-:1                                                                          150                                
PRCFAMCHA030402100725100751000026Franklin (PUPPY) - Today @ 11am                                                                                             150                                
PROFAMCHA030402100751100810000019Playhouse - FRANKLIN - Party                                                                                                150                                
PROFAMCHA030402100810100840000030Art Attack (HORSE) - Weekends @ 3pm                                                                                         150                                
OFFFAMCHA030402100840100852000012PS Playhouse Block Open (:10-:15)                                                                                                                              
ID FAMCHA030402100852100900000008Magic of Disney - PLAYHOUSE - Shape (:06-:09)                                                                               150                                
PROFAMCHA030402100900100909000009CC Disclaimer - FAST - Generic (:08-:10)                                                                                    150                                
PGRFAMCHA030402100909103152002243New Adventures of Winnie the Pooh; The            To Bee Or Not To Bee/April Pooh                                      6068607ECC                              
PROFAMCHA030402103152103206000014Preschool - 14(PH) - OOTB/FRANKLIN/DUCKTALES (:13-                                                                          150                                
PRCFAMCHA030402103206103241000035Franklin (CANOE) - Today @ 11am                                                                                             150                                
PRCFAMCHA030402103241103256000015Strawberry Shortcake Contest Throw                                                                                          150                                
PROFAMCHA030402103256103346000050Art Attack (BASEBALL) - Weekends @ 3pm                                                                                      150                                
OFFFAMCHA030402103346103400000014PS Playhouse Block Open (:10-:15)                                                                                                                              
PROFAMCHA030402103400103409000009CC Disclaimer - FAST - Generic (:08-:10)                                                                                    150                                
PGRFAMCHA030402103409105715002306Out of the Box                                    Feathered Friends                                                    60686110CC                              
PROFAMCHA030402105715105729000014Preschool - 15(PH) - FRANKLIN/DUCKTALES/AMANDA (:1                                                                          150                                
PROFAMCHA030402105729105819000050Art Attack (BASEBALL) - Weekends @ 3pm                                                                                      150                                
PROFAMCHA030402105819105934000115Playhouse - BOOK OF POOH - The Plan *DNU*                                                                                   150                                
PRCFAMCHA030402105934105950000016Book of Pooh (SUGGESTION BOX) - Tomorrow @ 10:10am                                                                          150                                
OFFFAMCHA030402105950110000000010PS Playhouse Block Open (:10-:15)                                                                                                                              
PROFAMCHA030402110000110009000009CC Disclaimer - FAST - Family.ca (:08-:10)                                                                                  150                                
PGRFAMCHA030402110009112302002253Franklin                                          Franklin Finds a Puppy/Franklin Takes the Bus                 B36670A1065607ECC                              
PROFAMCHA030402112302112314000012Preschool - 16(PH) - DUCKTALES/AMANDA (:10-:13)                                                                             150                                
PRCFAMCHA030402112314112330000016Book of Pooh (SUGGESTION BOX) - Tomorrow @ 10:10am                                                                          150                                
PRCFAMCHA030402112330112400000030Strawberry Shortcake Contest - MAR31 TO APR6                                                                                150                                
PROFAMCHA030402112400112446000046Playhouse - STANLEY - Squirrel Song                                                                                         150                                
OFFFAMCHA030402112446112500000014PS Playhouse Block Open (:10-:15)                                                                                                                              
PROFAMCHA030402112500112509000009CC Disclaimer - FAST - Generic (:08-:10)                                                                                    150                                
PGRFAMCHA030402112509114754002245Disney's DuckTales                                Launchpad's Civil War                                               A6068607ECC                              
PROFAMCHA030402114754114808000014Preschool - 17(OTL) - AMANDA/RECESS/ELMO (:13-:16)                                                                          150                                
PROFAMCHA030402114808114847000039Power Box (WEEKDAYS) - Tomorrow, Starting @ 7am                                                                             150                                
PRCFAMCHA030402114847114917000030Harry Potter (BLAST!) - In Stores April 11th                                                                                150                                
PROFAMCHA030402114917114947000030PR Lightspeed Rescue - Tomorrow @ 7:30am                                                                                    150                                
OFFFAMCHA030402114947115000000013Mad Dash Block Open (:10-:15)                                                                                                                                  
PGRFAMCHA030402115000121420002420Amanda Show; The                                  1-011                                                               A20686090                                
PROFAMCHA030402121420121433000013Preschool - 18(OTL) - RECESS/ELMO/KATIE (:13-:16)                                                                           150                                
PRCFAMCHA030402121433121503000030Harry Potter (BLAST!) - In Stores April 11th                                                                                150                                
OFFFAMCHA030402121503121513000010Mad Dash Block Open (:10-:15)                                                                                                                                  
PGRFAMCHA030402121513123748002235Disney's Recess                                   Bad Hair Day/Dance Lessons                                           6068607E                                
PROFAMCHA030402123748123801000013Preschool - 19(PH) - ELMO/KATIE/OOTB (:13-:16)                                                                              150                                
OFFFAMCHA030402123801123811000010PS Playhouse Block Open (:10-:15)                                                                                                                              
PGRFAMCHA030402123811125305001454Elmo's World                                      Dance                                                               A2068607G                                
PROFAMCHA030402125305125320000015Preschool - 20(PH) - KATIE/OOTB/HOZE (:13-:16)                                                                              150                                
PRCFAMCHA030402125320125336000016Book of Pooh (SUGGESTION BOX) - Tomorrow @ 10:10am                                                                          150                                
PRCFAMCHA030402125336125351000015Strawberry Shortcake Contest Throw                                                                                          150                                
PROFAMCHA030402125351125457000106Playhouse - WINNIE THE POOH - Christopher Robin                                                                             150                                
PROFAMCHA030402125457125547000050Art Attack (BASEBALL) - Weekends @ 3pm                                                                                      150                                
OFFFAMCHA030402125547125600000013PS Playhouse Block Open (:10-:15)                                                                                                                              
PROFAMCHA030402125600125609000009CC Disclaimer - FAST - Family.ca (:08-:10)                                                                                  150                                
PGRFAMCHA030402125609132247002638Katie And Orbie                                   Snake In The Grass/Sprite/Homegrown Supper                    C19664A1055607ECC3                             
PROFAMCHA030402132247132301000014Preschool - 21(PH) - OOTB/HOZE/GOOF (:13-:16)                                                                               150                                
OFFFAMCHA030402132301132314000013PS Playhouse Block Open (:10-:15)                                                                                                                              
PROFAMCHA030402132314132323000009CC Disclaimer - FAST - Generic (:08-:10)                                                                                    150                                
PGRFAMCHA030402132323134719002356Out of the Box                                    Eye Spy                                                              60686110CC                              
PROFAMCHA030402134719134733000014Preschool - 22(PG) - HOZE/GOOF/DUCKTALES (:13-:16)                                                                          150                                
PROFAMCHA030402134733134745000012Buzz Lightyear (SPACE RANGER) - Today @ 3:25pm                                                                              150                                
OFFFAMCHA030402134745134800000015PS Playground Block Open (:10-:15) *DNU POST AUG 1                                                                                                             
PROFAMCHA030402134800134809000009CC Disclaimer - FAST - Family (:08-:10)                                                                                     150                                
PGRFAMCHA030402134809141043002234Hoze Houndz                                       Bonehead Houndz/Moltese Chicken                               B17132A1065607ECC                              
PROFAMCHA030402141043141055000012Preschool - 23(PG) - GOOF/DUCKTALES (:10-:13)                                                                               150                                
PROFAMCHA030402141055141110000015Recess (SPRINKLER) - Today @ 5:05pm                                                                                         150                                
PROFAMCHA030402141110141140000030Art Attack (HORSE) - Weekends @ 3pm                                                                                         150                                
OFFFAMCHA030402141140141152000012PS Playground Block Open (:10-:15) *DNU POST AUG 1                                                                                                             
ID FAMCHA030402141152141200000008Magic of Disney - PLAYGROUND - Shape (:06-:09) *DN                                                                          150                                
PROFAMCHA030402141200141209000009CC Disclaimer - FAST - Family.ca (:08-:10)                                                                                  150                                
PGRFAMCHA030402141209143501002252Goof Troop                                        Cat's Entertainment                                                  6068607ECC                              
PROFAMCHA030402143501143511000010Preschool - 24(PG) - DUCKTALES (:08-:11)                                                                                    150                                
PROFAMCHA030402143511143548000037Amanda Show (CLEAN) - Tonight @ 6pm                                                                                         150                                
OFFFAMCHA030402143548143600000012PS Playground Block Open (:10-:15) *DNU POST AUG 1                                                                                                             
PROFAMCHA030402143600143609000009CC Disclaimer - FAST - Generic (:08-:10)                                                                                    150                                
PGRFAMCHA030402143609145850002241Disney's DuckTales                                Sweet Duck Of Youth                                                 A6068607ECC                              
PROFAMCHA030402145850145904000014MD - 01 - HOUSE/BUZZ/PEPPER (:13-:16)                                                                                       150                                
PROFAMCHA030402145904145949000045Lizzie McGuire (MAGIC TRICK) - Today @ 5:35pm                                                                               150                                
OFFFAMCHA030402145949150000000011Mad Dash Block Open (:10-:15)                                                                                                                                  
PGRFAMCHA030402150000152234002234Disney's House Of Mouse                           Clarabelle's Big Secret                                             A6068607E                                
PROFAMCHA030402152234152248000014MD - 02 - BUZZ/PEPPER/TARZAN (:13-:16)                                                                                      150                                
PROFAMCHA030402152248152325000037Amanda Show (CLEAN) - Tonight @ 6pm                                                                                         150                                
PRCFAMCHA030402152325152340000015Strawberry Shortcake Contest Throw                                                                                          150                                
PROFAMCHA030402152340152417000037Kim Possible (RON THE MAN) - Weekends @ 4:35pm                                                                              150                                
PROFAMCHA030402152417152447000030Popcorn Pix Movie Promo - Fridays @ 7:30pm                                                                                  150                                
OFFFAMCHA030402152447152500000013Mad Dash Block Open (:10-:15)                                                                                                                                  
PGRFAMCHA030402152500154740002240Disney/Pixar's Buzz Lightyear of Star Command     42                                                                  A6068607E                                
PROFAMCHA030402154740154754000014MD - 03 - PEPPER/TARZAN/WKNDRS (:13-:16)                                                                                    150                                
PROFAMCHA030402154754154824000030Popcorn Pix Movie Promo - Fridays @ 7:30pm                                                                                  150                                
PROFAMCHA030402154824154851000027Even Stevens (GOLF) - Tonight @ 7pm                                                                                         150                                
PROFAMCHA030402154851154917000026PR Wild Force (EXPO) - Weekends @ 6:30am                                                                                    150                                
PROFAMCHA030402154917154947000030All That (NEW) - Tonight @ 6:30pm                                                                                           150                                
OFFFAMCHA030402154947155000000013Mad Dash Block Open (:10-:15)                                                                                                                                  
PROFAMCHA030402155000155009000009CC Disclaimer - FAST - Family.ca (:08-:10)                                                                                  150                                
PGRFAMCHA030402155009161256002247Disney's Pepper Ann                               Magablades of Grass/Family Vacation                                  6068607ECC                              
PROFAMCHA030402161256161310000014MD - 04 - TARZAN/WKNDRS/RECESS (:13-:16)                                                                                    150                                
PROFAMCHA030402161310161340000030Popcorn Pix Movie Promo - Fridays @ 7:30pm                                                                                  150                                
PRCFAMCHA030402161340161410000030Strawberry Shortcake Contest - MAR31 TO APR6                                                                                150                                
PROFAMCHA030402161410161434000024Mad Dash - RECESS - Removal                                                                                                 150                                
PROFAMCHA030402161434161519000045Lizzie McGuire (MAGIC TRICK) - Today @ 5:35pm                                                                               150                                
PROFAMCHA030402161519161546000027Even Stevens (GOLF) - Tonight @ 7pm                                                                                         150                                
OFFFAMCHA030402161546161600000014Mad Dash Block Open (:10-:15)                                                                                                                                  
PROFAMCHA030402161600161609000009CC Disclaimer - FAST - Generic (:08-:10)                                                                                    150                                
PGRFAMCHA030402161609163855002246Disney's The Legend of Tarzan                     Challenger                                                          A6068607ECC                              
PROFAMCHA030402163855163909000014MD - 05 - WKNDRS/RECESS/LIZZIE (:13-:16)                                                                                    150                                
PROFAMCHA030402163909163939000030Popcorn Pix Movie Promo - Fridays @ 7:30pm                                                                                  150                                
PROFAMCHA030402163939164016000037Kim Possible (RON THE MAN) - Weekends @ 4:35pm                                                                              150                                
PROFAMCHA030402164016164049000033Mad Dash - WEEKENDERS - Clown                                                                                               150                                
