PGRFAMCHA140901043000045231002231The Secret World of Benjamin Bear                 EP: 34                                                        C27272 1065607ECC                              
PROFAMCHA140901045231045238000007D-JR Live Action ID - SWOBB - Coming Up (May2012)                                                                           150                                
PROFAMCHA140901045238045303000025D-JR Live Action ID - #46 Donating Clothes (Sept20                                                                          150                                
PROFAMCHA140901045303045345000042D-JR OOB - Frozen Week - Starts Monday September 1                                                                          150                                
PROFAMCHA140901045345045508000123D-JR Promo - Draw Your Disney Side #2 (DYDS x2 a d                                                                          150                                
PROFAMCHA140901045508045533000025D-JR Live Action ID - #42 Brush Teeth (May2012)                                                                             150                                
PROFAMCHA140901045533045540000007D-JR Live Action ID - SWOBB - Now (May2012)                                                                                 150                                
PROFAMCHA140901045540045555000015D-JR - Monthly ID - September (Sep2014)                                                                                     150                                
PGRFAMCHA140901045555051827002232The Secret World of Benjamin Bear                 EP: 35                                                        C27272 1065607ECC                              
PROFAMCHA140901051827051835000008D-JR Live Action ID - Stella & Sam - Coming Up (Ma                                                                          150                                
PROFAMCHA140901051835051900000025D-JR Live Action ID - #34 Hide N Seek (Sep2013)                                                                             150                                
PRCFAMCHA140901051900051948000048D-JR OOB Lucky Duck (HD) Premieres Friday @ 9am (S                                                                          150                                
PROFAMCHA140901051948052018000030D-JR Promo - Tickety Toc - Time to Chime - Get mor                                                                          150                                
PROFAMCHA140901052018052043000025D-JR Live Action ID - #25 Planting Pumpkins (Sep20                                                                          150                                
PROFAMCHA140901052043052051000008D-JR Live Action ID - Stella & Sam - Now (Mar2013)                                                                          150                                
PROFAMCHA140901052051052101000010D-JR - Hero Flex ID - Blue (:06-:10) (Feb2014)                                                                              150                                
PGRFAMCHA140901052101054416002315Stella and Sam                                    EP: 09                                                        C32553 1065607ECD                              
PROFAMCHA140901054416054458000042D-JR OOB - Frozen Week - Starts Monday September 1                                                                          150                                
PROFAMCHA140901054458054508000010D-JR - Hero Flex ID - Green (:06-:10) (Feb2014)                                                                             150                                
PGRFAMCHA140901054508060739002231Justin Time                                       EP: 01                                                        C33667 1025607ECD                              
PRCFAMCHA140901060739060827000048D-JR OOB Lucky Duck (HD) Premieres Friday @ 9am (S                                                                          150                                
PROFAMCHA140901060827060950000123D-JR Promo - Draw Your Disney Side #4 (DYDS x2 a d                                                                          150                                
PROFAMCHA140901060950061005000015D-JR - Seasonal ID - Fall (Sep 1-Nov 30)                                                                                    150                                
PGRFAMCHA140901061005063237002232Justin Time                                       EP: 02                                                        C33667 1025607ECD                              
PROFAMCHA140901063237063310000033BAW 2014 (HD) Rally Contest (Aug29-Sept30)                                                                                  150                                
PROFAMCHA140901063310063342000032Episodic Gravity Falls (HD) 2-03 - New Ep Friday N                                                                          150                                
PROFAMCHA140901063342063427000045Star Wars Rebels (HD) Sabine CT - Coming This Fall                                                                          150                                
PROFAMCHA140901063427063442000015Next Step Season 2 B (HD) James - New Eps Starting                                                                          150                                
PROFAMCHA140901063442063513000031Episodic Yoda Chronicles (HD) #6 - Tonight @ 630 (                                                                          150                                
PGRFAMCHA140901063513065744002231Wingin' It                                        EP: 13                                                        C32356 1065607ACD                              
PRCFAMCHA140901065744065759000015Star Wars Rebel (HD) First Look Tonight Following                                                                           150                                
PROFAMCHA140901065759065839000040Kellogg's                                                                                                                   150                                
PRCFAMCHA140901065839065848000009Family Bumper (HD) - Dragonflies ID (Jan 2011)                                                                              150                                
PROFAMCHA140901065848065938000050Walt Disney Pictures                                                                                                        150                                
PROFAMCHA140901065938070001000023Next Step Season 2 B (HD) Eldon - New Eps Starting                                                                          150                                
PROFAMCHA140901070001070007000006WOWP (HD) ID - Jennifer Stone 1 "Coming Up Next" (                                                                          150                                
PGRFAMCHA140901070007072241002234Disney Wizards of Waverly Place                   EP: 01                                                               6068607BCC                              
PRCFAMCHA140901072241072256000015Star Wars Rebel (HD) First Look Tonight Following                                                                           150                                
PROFAMCHA140901072256072315000019WOWP (HD) Clip Bad Time - Coming Up Next (April 20                                                                          150                                
PROFAMCHA140901072315072357000042Stunt GMW Cast Marathon (HD) Fri Sept 12 @ 5:30 (N                                                                          150                                
PROFAMCHA140901072357072437000040Kellogg's                                                                                                                   150                                
PRCFAMCHA140901072437072507000030Web FOD 2014 Refresh (HD) Family.ca (Mar2014) (2-3                                                                          150                                
PGRFAMCHA140901072507072654000147MV Lift (HD) LAM - Count Me In (ep 1-20) (Aug2014)                                                                     60685120CC                              
PRCFAMCHA140901072654072704000010Family Bumper (HD) - Bobbleheads ID (Jan 2011)                                                                              150                                
PROFAMCHA140901072704072753000049Parmalat                                                                                                                    150                                
PROFAMCHA140901072753072823000030Episodic DWAB (HD) 223 New Ep Friday @ 7 (Sep1-3)                                                                           150                                
PROFAMCHA140901072823072903000040Jakks Pacific                                                                                                               150                                
PROFAMCHA140901072903072935000032BTS Concert 2014 (HD) Premieres Friday Night @ 8:0                                                                          150                                
PROFAMCHA140901072935073006000031Episodic Yoda Chronicles (HD) #6 - Tonight @ 630 (                                                                          150                                
PROFAMCHA140901073006073012000006WOWP (HD) ID - Jennifer Stone 2 "Coming Up Next" (                                                                          150                                
PGRFAMCHA140901073012075243002231Disney Wizards of Waverly Place                   EP: 01                                                               6068507BCC                              
PRCFAMCHA140901075243075338000055PAF Across 2nd Dimension (HD) Tonight @ 7 (Sep1)                                                                            150                                
PROFAMCHA140901075338075403000025DWAB (HD) Clip Promo - Coming Up Next (Oct2013)                                                                             150                                
PROFAMCHA140901075403075518000115Star Wars Rebels (HD) Sabine/Hera - Premieres Frid                                                                          150                                
PROFAMCHA140901075518075550000032Episodic Gravity Falls (HD) 2-03 - New Ep Friday N                                                                          150                                
PROFAMCHA140901075550075640000050Movie Star Planet                                                                                                           150                                
PRCFAMCHA140901075640075652000012BTS Concert 2014 (HD) Sabrina's Concert Liner#4 -                                                                           150                                
PGRFAMCHA140901075652075822000130This Is Who I Am (HD) Rowan Blanchard (Jun13-Sep30                                                                     10615120CC                              
PROFAMCHA140901075822075853000031Episodic Jessie (HD) 327 - New Ep Wed Sept 10 @ 6:                                                                          150                                
PRCFAMCHA140901075853075902000009Family Bumper (HD) - Dragonflies ID (Jan 2011)                                                                              150                                
PRCFAMCHA140901075902075952000050Next Step Season 2 B (HD) Trailer - New Eps Friday                                                                          150                                
PROFAMCHA140901075952080023000031Episodic Yoda Chronicles (HD) #6 - Tonight @ 630 (                                                                          150                                
PRCFAMCHA140901080023080038000015Family Flex Next (HD) DWAB Ghannelius (Aug 2013) (                                                                          150                                
PGRFAMCHA140901080038082310002232Disney Dog with a Blog                            EP: 20                                                               6068807BCC                              
PRCFAMCHA140901082310082325000015Star Wars Rebel (HD) First Look Tonight Following                                                                           150                                
PROFAMCHA140901082325082407000042ANT Farm Refresh 2014 (HD) Coming Up Next (Mar2014                                                                          150                                
PROFAMCHA140901082407082439000032BTS Concert 2014 (HD) Premieres Friday Night @ 8:0                                                                          150                                
PGRFAMCHA140901082439082848000409MV Universal (HD) Serena Ryder - Heavy Love (Jun16                                                                     10615120CC                              
PRCFAMCHA140901082848082916000028Family Bumper Flex (HD) Flex ID - Austin & Ally (F                                                                          150                                
PROFAMCHA140901082916082949000033BAW 2014 (HD) Rally Contest (Aug29-Sept30)                                                                                  150                                
PROFAMCHA140901082949083020000031Episodic Yoda Chronicles (HD) #6 - Tonight @ 630 (                                                                          150                                
PRCFAMCHA140901083020083034000014Family Flex Next (HD) ANT Farm - Jake (:12-:14) (A                                                                          150                                
PGRFAMCHA140901083034085507002433Disney A.N.T. Farm                                EP: 01                                                               6068607BCC                              
PROFAMCHA140901085507085538000031Episodic Yoda Chronicles (HD) #6 - Tonight @ 630 (                                                                          150                                
PROFAMCHA140901085538085620000042ANT Farm Refresh 2014 (HD) Coming Up Next (Mar2014                                                                          150                                
PROFAMCHA140901085620085650000030Episodic DWAB (HD) 223 New Ep Friday @ 7 (Sep1-3)                                                                           150                                
PROFAMCHA140901085650085732000042Stunt GMW Cast Marathon (HD) Fri Sept 12 @ 5:30 (N                                                                          150                                
PRCFAMCHA140901085732085745000013BTS Concert 2014 (HD) Megan's Concert Liner#4 - Fr                                                                          150                                
PGRFAMCHA140901085745085900000115Short (HD) The Time I... Cartwheeled (Jul21)                                                                           10618120                                
PRCFAMCHA140901085900085921000021Family Bumper Flex (HD) Break Dance (:18-:21) (Mar                                                                          150                                
PRCFAMCHA140901085921085936000015Star Wars Rebel (HD) First Look Tonight Following                                                                           150                                
PRCFAMCHA140901085936090031000055PAF Across 2nd Dimension (HD) Tonight @ 7 (Sep1)                                                                            150                                
PROFAMCHA140901090031090104000033ANT Farm (HD) Refresh - Coming Up Next (Jun2013)                                                                            150                                
PGRFAMCHA140901090104092336002232Disney A.N.T. Farm                                EP: 07                                                               6068607BCC                              
PROFAMCHA140901092336092407000031Episodic Yoda Chronicles (HD) #6 - Tonight @ 630 (                                                                          150                                
PROFAMCHA140901092407092426000019GLC Promo 2 (HD) Coming Up Next (Sep2013)                                                                                   150                                
PROFAMCHA140901092426092441000015Next Step Season 2 B (HD) James - New Eps Starting                                                                          150                                
PGRFAMCHA140901092441092641000200ME (HD) Boxtrolls s1 - Coming Soon (x3 day) (Aug28                                                                     10615120CC                              
PROFAMCHA140901092641092713000032Episodic Gravity Falls (HD) 2-03 - New Ep Friday N                                                                          150                                
PRCFAMCHA140901092713092734000021Family Bumper Flex (HD) Dog Park (:19-:21) (Mar201                                                                          150                                
PGRFAMCHA140901092734093052000318MV Disney (HD) Bella Thorne - Call It Whatever (Au                                                                     10615120CC                              
PRCFAMCHA140901093052093107000015Star Wars Rebel (HD) First Look Tonight Following                                                                           150                                
PROFAMCHA140901093107093112000005GLC (HD) ID - Bradley Perry 3 "Coming Up Next" (gi                                                                          150                                
PGRFAMCHA140901093112095404002252Good Luck Charlie                                 EP: 01                                                               6068707BCC                              
PRCFAMCHA140901095404095459000055PAF Across 2nd Dimension (HD) Tonight @ 7 (Sep1)                                                                            150                                
PROFAMCHA140901095459095529000030GLC Promo 3 (HD) Coming Up Next (Sep2013)                                                                                   150                                
PROFAMCHA140901095529095600000031Episodic Yoda Chronicles (HD) #6 - Tonight @ 630 (                                                                          150                                
PROFAMCHA140901095600095632000032BTS Concert 2014 (HD) Premieres Friday Night @ 8:0                                                                          150                                
PGRFAMCHA140901095632095929000257MV Disney (HD) R5 - Heart Made Up On You - Lyrics                                                                      10615120CC                              
PRCFAMCHA140901095929095946000017Family Bumper Flex (HD) Flex ID - Jessie ID (:15-:                                                                          150                                
PROFAMCHA140901095946100101000115Star Wars Rebels (HD) Sabine/Hera - Premieres Frid                                                                          150                                
PROFAMCHA140901100101100132000031Episodic Jessie (HD) 327 - New Ep Wed Sept 10 @ 6:                                                                          150                                
PROFAMCHA140901100132100138000006GLC (HD) ID - Bridget Mendler 4 "Coming Up Next" (                                                                          150                                
PGRFAMCHA140901100138102529002351Good Luck Charlie                                 EP: 01                                                               6068807BCC                              
PRCFAMCHA140901102529102544000015Star Wars Rebel (HD) First Look Tonight Following                                                                           150                                
PROFAMCHA140901102544102614000030Win Lose or Draw (HD) Gen 1 - Coming Up Next (Apri                                                                          150                                
PROFAMCHA140901102614102644000030Episodic DWAB (HD) 223 New Ep Friday @ 7 (Sep1-3)                                                                           150                                
PROFAMCHA140901102644102717000033BAW 2014 (HD) Rally Contest (Aug29-Sept30)                                                                                  150                                
PGRFAMCHA140901102717102917000200ME (HD) Dolphine Tale 2 - In Theatres September 12                                                                     10215120CC                              
PRCFAMCHA140901102917102928000011BTS Concert 2014 (HD) Cody Simpson Liner - Friday                                                                           150                                
PRCFAMCHA140901102928102941000013Family Bumper (HD) - Drums ID (Jan 2011)                                                                                    150                                
PROFAMCHA140901102941102956000015Web Jessie Online Game (HD) Play Games at family.c                                                                          150                                
PROFAMCHA140901102956103038000042Stunt GMW Cast Marathon (HD) Fri Sept 12 @ 5:30 (N                                                                          150                                
PROFAMCHA140901103038103109000031Episodic Yoda Chronicles (HD) #6 - Tonight @ 630 (                                                                          150                                
PROFAMCHA140901103109103139000030Win Lose or Draw (HD) Gen 2 - Coming Up Next (Apri                                                                          150                                
PGRFAMCHA140901103139103754000615Disney Win, Lose or Draw                          EP: 40                                                               6068807BCC                              
PRCFAMCHA140901103754103809000015Star Wars Rebel (HD) First Look Tonight Following                                                                           150                                
PGRFAMCHA140901103809104438000629Disney Win, Lose or Draw                          EP: 40                                                               6068807BCC                              
PROFAMCHA140901104438104509000031Episodic Yoda Chronicles (HD) #6 - Tonight @ 630 (                                                                          150                                
PGRFAMCHA140901104509105045000536Disney Win, Lose or Draw                          EP: 40                                                               6068807BCC                              
PROFAMCHA140901105045105100000015Next Step Season 2 B (HD) James - New Eps Starting                                                                          150                                
PGRFAMCHA140901105100105511000411Disney Win, Lose or Draw                          EP: 40                                                               6068807BCC                              
PRCFAMCHA140901105511105606000055PAF Across 2nd Dimension (HD) Tonight @ 7 (Sep1)                                                                            150                                
PRCFAMCHA140901105606105620000014Family Flex Next (HD) A&A - Laura (:12-:14) (Apr20                                                                          150                                
PROFAMCHA140901105620105652000032Episodic Gravity Falls (HD) 2-03 - New Ep Friday N                                                                          150                                
PROFAMCHA140901105652105737000045Star Wars Rebels (HD) Sabine CT - Coming This Fall                                                                          150                                
PROFAMCHA140901105737105807000030Episodic DWAB (HD) 223 New Ep Friday @ 7 (Sep1-3)                                                                           150                                
PGRFAMCHA140901105807110007000200This Is Who I Am (HD) Zendaya (Aug1-Oct31)                                                                             60685120CC                              
PROFAMCHA140901110007110049000042Stunt GMW Cast Marathon (HD) Fri Sept 12 @ 5:30 (N                                                                          150                                
PRCFAMCHA140901110049110110000021Family Bumper Flex (HD) Fifteen Logos (:21-:22) (N                                                                          150                                
PRCFAMCHA140901110110110122000012BTS Concert 2014 (HD) Sabrina's Concert Liner#4 -                                                                           150                                
PROFAMCHA140901110122110153000031Episodic Yoda Chronicles (HD) #6 - Tonight @ 630 (                                                                          150                                
PRCFAMCHA140901110153110207000014Family Flex Next (HD) A&A Raini (Aug 2013) (:13-:1                                                                          150                                
PGRFAMCHA140901110207112438002231Disney Austin & Ally                              EP: 15                                                               6068807BCC                              
PRCFAMCHA140901112438112453000015Star Wars Rebel (HD) First Look Tonight Following                                                                           150                                
PROFAMCHA140901112453112536000043Austin & Ally (HD) Bud Sell Refresh - Coming Up Ne                                                                          150                                
PROFAMCHA140901112536112608000032BTS Concert 2014 (HD) Premieres Friday Night @ 8:0                                                                          150                                
PRCFAMCHA140901112608112623000015Hasbro                                                                                                                      150                                
PROFAMCHA140901112623112705000042D-JR OOB - Frozen Week - Starts Monday September 1                                                                          150                                
PGRFAMCHA140901112705113013000308MV Non Disney (HD) Taylor Matthews - Do What You W                                                                     10615120CC                              
PRCFAMCHA140901113013113031000018Family Bumper Flex (HD) Flex ID - Music ID (:14-:1                                                                          150                                
PRCFAMCHA140901113031113121000050Next Step Season 2 B (HD) Trailer - New Eps Friday                                                                          150                                
PROFAMCHA140901113121113152000031Episodic Yoda Chronicles (HD) #6 - Tonight @ 630 (                                                                          150                                
PRCFAMCHA140901113152113206000014Family Flex Next (HD) A&A - Laura (:12-:14) (Apr20                                                                          150                                
PGRFAMCHA140901113206115437002231Disney Austin & Ally                              EP: 16                                                               6068807BCC                              
PRCFAMCHA140901115437115532000055PAF Across 2nd Dimension (HD) Tonight @ 7 (Sep1)                                                                            150                                
PROFAMCHA140901115532115614000042ANT Farm Refresh 2014 (HD) Coming Up Next (Mar2014                                                                          150                                
PROFAMCHA140901115614115645000031Episodic Yoda Chronicles (HD) #6 - Tonight @ 630 (                                                                          150                                
PRCFAMCHA140901115645115657000012BTS Concert 2014 (HD) Sabrina's Concert Liner#4 -                                                                           150                                
PRCFAMCHA140901115657115757000100Hasbro                                                                                                                      150                                
PROFAMCHA140901115757115817000020IDDI (HD) Refresh - Check Out Family.ca for showti                                                                          150                                
PGRFAMCHA140901115817120017000200SYN (HD) R5 on R5 - Worldwide (Jan 6-Feb 6)                                                                            60685120CC                              
PRCFAMCHA140901120017120032000015Family Bumper (HD) - Hot Potato ID (Jan 2011)                                                                               150                                
PROFAMCHA140901120032120147000115Star Wars Rebels (HD) Sabine/Hera - Premieres Frid                                                                          150                                
PROFAMCHA140901120147120218000031Episodic Jessie (HD) 327 - New Ep Wed Sept 10 @ 6:                                                                          150                                
PRCFAMCHA140901120218120232000014Family Flex Next (HD) ANT Farm - Jake (:12-:14) (A                                                                          150                                
PGRFAMCHA140901120232122507002235Disney A.N.T. Farm                                EP: 07                                                               6068607BCC                              
PROFAMCHA140901122507122538000031Episodic Yoda Chronicles (HD) #6 - Tonight @ 630 (                                                                          150                                
PROFAMCHA140901122538122611000033ANT Farm (HD) Refresh - Coming Up Next (Jun2013)                                                                            150                                
PROFAMCHA140901122611122644000033BAW 2014 (HD) Rally Contest (Aug29-Sept30)                                                                                  150                                
PROFAMCHA140901122644122714000030Episodic DWAB (HD) 223 New Ep Friday @ 7 (Sep1-3)                                                                           150                                
PROFAMCHA140901122714122804000050Movie Star Planet                                                                                                           150                                
PRCFAMCHA140901122804122852000048D-JR OOB Lucky Duck (HD) Premieres Friday @ 9am (S                                                                          150                                
PRCFAMCHA140901122852123025000133Int In Studio (HD) Victoria Duffield Interview (Au                                                                          150                                
PRCFAMCHA140901123025123043000018Family Bumper Flex (HD) Flip Book (:15-:18) (Nov 2                                                                          150                                
PROFAMCHA140901123043123132000049Parmalat                                                                                                                    150                                
PROFAMCHA140901123132123214000042Stunt GMW Cast Marathon (HD) Fri Sept 12 @ 5:30 (N                                                                          150                                
PRCFAMCHA140901123214123229000015Star Wars Rebel (HD) First Look Tonight Following                                                                           150                                
PROFAMCHA140901123229123244000015ANT Farm (HD) Refresh CT - Coming Up Next (April 2                                                                          150                                
PGRFAMCHA140901123244125715002431Disney A.N.T. Farm                                EP: 01                                                               6068607BCC                              
PROFAMCHA140901125715125800000045Star Wars Rebels (HD) Sabine CT - Coming This Fall                                                                          150                                
PROFAMCHA140901125800125819000019WOWP (HD) Clip Bad Time - Coming Up Next (April 20                                                                          150                                
PROFAMCHA140901125819125850000031Episodic Yoda Chronicles (HD) #6 - Tonight @ 630 (                                                                          150                                
PROFAMCHA140901125850125922000032BTS Concert 2014 (HD) Premieres Friday Night @ 8:0                                                                          150                                
PROFAMCHA140901125922130002000040Kellogg's                                                                                                                   150                                
PROFAMCHA140901130002130025000023Next Step Season 2 B (HD) Eldon - New Eps Starting                                                                          150                                
PRCFAMCHA140901130025130054000029Family Bumper Flex (HD) Flex ID - Austin & Ally (F                                                                          150                                
PROFAMCHA140901130054130134000040Jakks Pacific                                                                                                               150                                
PROFAMCHA140901130134130206000032Episodic Gravity Falls (HD) 2-03 - New Ep Friday N                                                                          150                                
PRCFAMCHA140901130206130301000055PAF Across 2nd Dimension (HD) Tonight @ 7 (Sep1)                                                                            150                                
PROFAMCHA140901130301130307000006WOWP (HD) ID - Jennifer Stone 1 "Coming Up Next" (                                                                          150                                
PGRFAMCHA140901130307132543002236Disney Wizards of Waverly Place                   EP: 02                                                               6068607BCC                              
PRCFAMCHA140901132543132558000015Star Wars Rebel (HD) First Look Tonight Following                                                                           150                                
PROFAMCHA140901132558132603000005GLC (HD) ID - Bradley Perry 5 "Coming Up Next" (ge                                                                          150                                
PROFAMCHA140901132603132634000031Episodic Yoda Chronicles (HD) #6 - Tonight @ 630 (                                                                          150                                
PROFAMCHA140901132634132714000040Jakks Pacific                                                                                                               150                                
PROFAMCHA140901132714132756000042D-JR OOB - Frozen Week - Starts Monday September 1                                                                          150                                
PGRFAMCHA140901132756133205000409MV Universal (HD) Serena Ryder - Heavy Love (Jun16                                                                     10615120CC                              
PRCFAMCHA140901133205133215000010Family Bumper (HD) - Bobbleheads ID (Jan 2011)                                                                              150                                
PROFAMCHA140901133215133246000031Episodic Jessie (HD) 327 - New Ep Wed Sept 10 @ 6:                                                                          150                                
PRCFAMCHA140901133246133306000020BTS Concert 2014 (HD) Calum's Concert Liner#4 - Fr                                                                          150                                
PROFAMCHA140901133306133311000005GLC (HD) ID - Jason Dolley 2 - "Coming Up Next" (g                                                                          150                                
PGRFAMCHA140901133311135604002253Good Luck Charlie                                 EP: 01                                                               6068707BCC                              
PRCFAMCHA140901135604135659000055PAF Across 2nd Dimension (HD) Tonight @ 7 (Sep1)                                                                            150                                
PROFAMCHA140901135659135718000019GLC Promo 2 (HD) Coming Up Next (Sep2013)                                                                                   150                                
PROFAMCHA140901135718135833000115Star Wars Rebels (HD) Sabine/Hera - Premieres Frid                                                                          150                                
PROFAMCHA140901135833135903000030Episodic DWAB (HD) 223 New Ep Friday @ 7 (Sep1-3)                                                                           150                                
PROFAMCHA140901135903135943000040Kellogg's                                                                                                                   150                                
PROFAMCHA140901135943140025000042Stunt GMW Cast Marathon (HD) Fri Sept 12 @ 5:30 (N                                                                          150                                
PRCFAMCHA140901140025140046000021Family Bumper Flex (HD) Garage Band (:17-:21) (Nov                                                                          150                                
PGRFAMCHA140901140046140246000200ME (HD) Dolphine Tale 2 - In Theatres September 12                                                                     10615120CC                              
PROFAMCHA140901140246140301000015Next Step Season 2 B (HD) James - New Eps Starting                                                                          150                                
PROFAMCHA140901140301140332000031Episodic Yoda Chronicles (HD) #6 - Tonight @ 630 (                                                                          150                                
PROFAMCHA140901140332140338000006GLC (HD) ID - Bridget Mendler 4 "Coming Up Next" (                                                                          150                                
PGRFAMCHA140901140338142726002348Good Luck Charlie                                 EP: 01                                                               6068807BCC                              
PRCFAMCHA140901142726142741000015Star Wars Rebel (HD) First Look Tonight Following                                                                           150                                
PRCFAMCHA140901142741142756000015Family Flex Next (HD) A&A Raini (Aug 2013) (:13-:1                                                                          150                                
PROFAMCHA140901142756142827000031Episodic Yoda Chronicles (HD) #6 - Tonight @ 630 (                                                                          150                                
PROFAMCHA140901142827142900000033BAW 2014 (HD) Rally Contest (Aug29-Sept30)                                                                                  150                                
PGRFAMCHA140901142900143100000200ME (HD) Boxtrolls s1 - Coming Soon (x3 day) (Aug28                                                                     10615120CC                              
PROFAMCHA140901143100143132000032Episodic Gravity Falls (HD) 2-03 - New Ep Friday N                                                                          150                                
PRCFAMCHA140901143132143220000048D-JR OOB Lucky Duck (HD) Premieres Friday @ 9am (S                                                                          150                                
PRCFAMCHA140901143220143235000015Family Bumper Flex (HD) Flex ID - Jessie ID (:15-:                                                                          150                                
PRCFAMCHA140901143235143255000020BTS Concert 2014 (HD) Calum's Concert Liner#4 - Fr                                                                          150                                
PRCFAMCHA140901143255143350000055PAF Across 2nd Dimension (HD) Tonight @ 7 (Sep1)                                                                            150                                
PRCFAMCHA140901143350143402000012Family Flex Next (HD) A&A - Laura (:12-:14) (Apr20                                                                          150                                
PGRFAMCHA140901143402145633002231Disney Austin & Ally                              EP: 21                                                               6068807BCC                              
PRCFAMCHA140901145633145648000015Star Wars Rebel (HD) First Look Tonight Following                                                                           150                                
PRCFAMCHA140901145648145702000014Family Flex Next (HD) Jessie - Zuri (:12-:14) (Apr                                                                          150                                
PROFAMCHA140901145702145733000031Episodic Yoda Chronicles (HD) #6 - Tonight @ 630 (                                                                          150                                
PGRFAMCHA140901145733150103000330Mickey Mouse Shorts (HD) 1-17 The Adorable Couple                                                                      60688120CC                              
PROFAMCHA140901150103150118000015Next Step Season 2 B (HD) James - New Eps Starting                                                                          150                                
PROFAMCHA140901150118150208000050Walt Disney Pictures                                                                                                        150                                
PRCFAMCHA140901150208150219000011BTS Concert 2014 (HD) Cody Simpson Liner - Friday                                                                           150                                
PRCFAMCHA140901150219150228000009Family Bumper (HD) - Dragonflies ID (Jan 2011)                                                                              150                                
PROFAMCHA140901150228150259000031Episodic Jessie (HD) 327 - New Ep Wed Sept 10 @ 6:                                                                          150                                
PRCFAMCHA140901150259150354000055PAF Across 2nd Dimension (HD) Tonight @ 7 (Sep1)                                                                            150                                
PRCFAMCHA140901150354150407000013Family Flex Next (HD) Jessie - Luke (:12-:14) (Apr                                                                          150                                
PGRFAMCHA140901150407155327004920Disney Jessie                                     EP: 100                                                              6068807BCC                              
PRCFAMCHA140901155327155342000015Star Wars Rebel (HD) First Look Tonight Following                                                                           150                                
PRCFAMCHA140901155342155356000014Family Flex Next (HD) Jessie - Ravi (:12-:14) (Apr                                                                          150                                
PRCFAMCHA140901155356155451000055PAF Across 2nd Dimension (HD) Tonight @ 7 (Sep1)                                                                            150                                
PROFAMCHA140901155451155523000032Episodic Gravity Falls (HD) 2-03 - New Ep Friday N                                                                          150                                
PRCFAMCHA140901155523155538000015Hasbro                                                                                                                      150                                
PROFAMCHA14090115553815562300004520th Century Fox                                                                                                            150                                
PROFAMCHA140901155623155708000045DXD Star Wars/Toys R Us Contest (HD) Go to Disneyx                                                                          150                                
PGRFAMCHA140901155708160132000424MV Playlist (HD) Nikki - Haim - If I Could Change                                                                      10215120CC                              
PRCFAMCHA140901160132160151000019Family Bumper Flex (HD) Longboard (:19-:21) (Mar20                                                                          150                                
PROFAMCHA140901160151160231000040Jakks Pacific                                                                                                               150                                
PROFAMCHA140901160231160301000030Episodic DWAB (HD) 223 New Ep Friday @ 7 (Sep1-3)                                                                           150                                
PROFAMCHA140901160301160351000050Movie Star Planet                                                                                                           150                                
PROFAMCHA140901160351160422000031Episodic Yoda Chronicles (HD) #6 - Tonight @ 630 (                                                                          150                                
PRCFAMCHA140901160422160436000014Family Flex Next (HD) Jessie - Emma (:12-:14) (Mar                                                                          150                                
PGRFAMCHA140901160436162710002234Disney Jessie                                     EP: 12                                                               6068807BCC                              
PRCFAMCHA140901162710162725000015Star Wars Rebel (HD) First Look Tonight Following                                                                           150                                
PRCFAMCHA140901162725162751000026Jessie (HD) Clip Promo - Coming Up Next (Oct2013)                                                                           150                                
PROFAMCHA140901162751162833000042Stunt GMW Cast Marathon (HD) Fri Sept 12 @ 5:30 (N                                                                          150                                
PROFAMCHA140901162833162904000031Episodic Yoda Chronicles (HD) #6 - Tonight @ 630 (                                                                          150                                
PROFAMCHA140901162904162954000050Warner Bros. Pictures                                                                                                       150                                
PRCFAMCHA140901162954163044000050Next Step Season 2 B (HD) Trailer - New Eps Friday                                                                          150                                
PRCFAMCHA140901163044163102000018Family Bumper Flex (HD) Flex ID - Music ID (:14-:1                                                                          150                                
PROFAMCHA140901163102163117000015Web A&A Online Game (HD) Play games at family.ca/h                                                                          150                                
PROFAMCHA140901163117163206000049Parmalat                                                                                                                    150                                
PRCFAMCHA140901163206163219000013BTS Concert 2014 (HD) Megan's Concert Liner#4 - Fr                                                                          150                                
PRCFAMCHA140901163219163319000100Hasbro                                                                                                                      150                                
PROFAMCHA140901163319163349000030Episodic DWAB (HD) 223 New Ep Friday @ 7 (Sep1-3)                                                                           150                                
PRCFAMCHA140901163349163444000055PAF Across 2nd Dimension (HD) Tonight @ 7 (Sep1)                                                                            150                                
PRCFAMCHA140901163444163458000014Family Flex Next (HD) Jessie - Ravi (:12-:14) (Apr                                                                          150                                
PGRFAMCHA140901163458172425004927Disney Jessie                                     EP: 99                                                               6068807BCC                              
PRCFAMCHA140901172425172440000015Star Wars Rebel (HD) First Look Tonight Following                                                                           150                                
PROFAMCHA140901172440172512000032PAF (HD) Delicious Refresh - Coming Up Next (Jun20                                                                          150                                
PROFAMCHA140901172512172545000033BAW 2014 (HD) Rally Contest (Aug29-Sept30)                                                                                  150                                
PRCFAMCHA140901172545172717000132Big Hero 6 (HD) Sneak Peek (1xday in primetime) (A                                                                          150                                
PROFAMCHA140901172717172748000031Episodic Jessie (HD) 327 - New Ep Wed Sept 10 @ 6:                                                                          150                                
PROFAMCHA14090117274817283300004520th Century Fox                                                                                                            150                                
PROFAMCHA140901172833172918000045DXD Star Wars/Toys R Us Contest (HD) Go to Disneyx                                                                          150                                
PRCFAMCHA140901172918172931000013Family Bumper (HD) - Drums ID (Jan 2011)                                                                                    150                                
PROFAMCHA140901172931173003000032BTS Concert 2014 (HD) Premieres Friday Night @ 8:0                                                                          150                                
PROFAMCHA140901173003173053000050Walt Disney Pictures                                                                                                        150                                
PROFAMCHA140901173053173135000042Stunt GMW Cast Marathon (HD) Fri Sept 12 @ 5:30 (N                                                                          150                                
PROFAMCHA140901173135173206000031Episodic Yoda Chronicles (HD) #6 - Tonight @ 630 (                                                                          150                                
PROFAMCHA140901173206173223000017PAF (HD) Disney Refresh CD - Coming Up Next (April                                                                          150                                
PGRFAMCHA140901173223182327005104Disney Phineas and Ferb                           EP: 35                                                               6068607ECC                              
PRCFAMCHA140901182327182342000015Star Wars Rebel (HD) First Look Coming Up Next (Se                                                                          150                                
PGRFAMCHA140901182342182847000505Star Wars Rebels                                  Trailer                                                             A6028707ECC                              
PROFAMCHA140901182847183002000115Star Wars Rebels (HD) Sabine/Hera - Premieres Frid                                                                          150                                
PROFAMCHA140901183002183033000031Episodic Yoda Chronicles (HD) #6 - New Ep Coming U                                                                          150                                
PROFAMCHA140901183033183048000015Next Step Season 2 B (HD) James - New Eps Starting                                                                          150                                
PROFAMCHA140901183048183138000050Walt Disney Pictures                                                                                                        150                                
PRCFAMCHA140901183138183159000021Family Bumper Flex (HD) Trampoline (:15-:21) (Mar2                                                                          150                                
PROFAMCHA140901183159183230000031Episodic Yoda Chronicles (HD) #6 - New Ep Coming U                                                                          150                                
PGRFAMCHA140901183230185432002202Lego - The New Yoda Chronicles                    EP: 06                                                               2028607ECC                              
PROFAMCHA140901185432185517000045Star Wars Rebels (HD) Sabine CT - Coming This Fall                                                                          150                                
PROFAMCHA140901185517185612000055Phineas & Ferb DCOM (HD) - Coming Up Next (April 2                                                                          150                                
PROFAMCHA140901185612185644000032Episodic Gravity Falls (HD) 2-03 - New Ep Friday N                                                                          150                                
PGRFAMCHA140901185644185844000200ME (HD) Dolphine Tale 2 - In Theatres September 12                                                                     10615120CC                              
PROFAMCHA140901185844185926000042Stunt GMW Cast Marathon (HD) Fri Sept 12 @ 5:30 (N                                                                          150                                
PRCFAMCHA140901185926185938000012BTS Concert 2014 (HD) Sabrina's Concert Liner#4 -                                                                           150                                
PROFAMCHA140901185938190028000050Movie Star Planet                                                                                                           150                                
PROFAMCHA140901190028190113000045DXD Star Wars/Toys R Us Contest (HD) Go to Disneyx                                                                          150                                
PROFAMCHA140901190113190208000055Phineas & Ferb DCOM (HD) - Coming Up Next (April 2                                                                          150                                
ID FAMCHA140901190208190223000015Popcorn Pix Block Open (HD)  (Jan2011)                                                                                      150                                
ID FAMCHA140901190223190232000009Popcorn Pix Rating Slate (HD) - G (Jan 2011)                                                                                150                                
ID FAMCHA140901190232190238000006Popcorn Pix Magic of Disney Bumper (HD) (Apr2013)                                                                           150                                
PGRFAMCHA140901190238202045011807Phineas and Ferb Across The 2nd Dimension                                                                             A6068807CCC                              
PROFAMCHA140901202045202200000115Star Wars Rebels (HD) Sabine/Hera - Premieres Frid                                                                          150                                
PROFAMCHA140901202200202219000019GLC Promo 2 (HD) Coming Up Next (Sep2013)                                                                                   150                                
PROFAMCHA140901202219202249000030Episodic DWAB (HD) 223 New Ep Friday @ 7 (Sep1-3)                                                                           150                                
PGRFAMCHA140901202249202607000318MV Disney (HD) Bella Thorne - Call It Whatever (Au                                                                     10615120CC                              
PRCFAMCHA140901202607202657000050Next Step Season 2 B (HD) Trailer - New Eps Friday                                                                          150                                
PROFAMCHA140901202657202737000040Jakks Pacific                                                                                                               150                                
PGRFAMCHA140901202737202937000200ME (HD) Boxtrolls s1 - Coming Soon (x3 day) (Aug28                                                                     10615120CC                              
PRCFAMCHA140901202937203007000030Family Bumper Flex (HD) Flex ID - Austin & Ally (F                                                                          150                                
PROFAMCHA140901203007203057000050Warner Bros. Pictures                                                                                                       150                                
PROFAMCHA140901203057203139000042D-JR OOB - Frozen Week - Starts Monday September 1                                                                          150                                
PRCFAMCHA140901203139203154000015Hasbro                                                                                                                      150                                
PROFAMCHA140901203154203226000032Episodic Gravity Falls (HD) 2-03 - New Ep Friday N                                                                          150                                
PROFAMCHA140901203226203231000005GLC (HD) ID - Bradley Perry 5 "Coming Up Next" (ge                                                                          150                                
PGRFAMCHA140901203231205523002252Good Luck Charlie                                 EP: 01                                                               6068707BCC                              
PROFAMCHA140901205523205553000030Episodic DWAB (HD) 223 New Ep Friday @ 7 (Sep1-3)                                                                           150                                
PROFAMCHA140901205553205618000025GLC Promo 1 (HD) Coming Up Next (Sep2013)                                                                                   150                                
PROFAMCHA140901205618205700000042Stunt GMW Cast Marathon (HD) Fri Sept 12 @ 5:30 (N                                                                          150                                
PROFAMCHA140901205700205745000045DXD Star Wars/Toys R Us Contest (HD) Go to Disneyx                                                                          150                                
PROFAMCHA14090120574520583000004520th Century Fox                                                                                                            150                                
PROFAMCHA140901205830205902000032BTS Concert 2014 (HD) Premieres Friday Night @ 8:0                                                                          150                                
PROFAMCHA140901205902205942000040Kellogg's                                                                                                                   150                                
PRCFAMCHA140901205942210005000023Family Bumper Flex (HD) Bike Trails (:20-:24) (Mar                                                                          150                                
PROFAMCHA140901210005210055000050Parmalat                                                                                                                    150                                
PROFAMCHA140901210055210128000033BAW 2014 (HD) Rally Contest (Aug29-Sept30)                                                                                  150                                
PROFAMCHA140901210128210159000031Episodic Jessie (HD) 327 - New Ep Wed Sept 10 @ 6:                                                                          150                                
PRCFAMCHA140901210159210213000014Family Flex Next (HD) GLC - Jason (:12-:14) (Apr20                                                                          150                                
PGRFAMCHA140901210213212346002133Good Luck Charlie                                 EP: 02                                                               6068707BCC                              
PROFAMCHA140901212346212431000045Star Wars Rebels (HD) Sabine CT - Coming This Fall                                                                          150                                
PGRFAMCHA140901212431212840000409MV Universal (HD) Serena Ryder - Heavy Love (Jun16                                                                     10615120CC                              
PROFAMCHA140901212840212930000050Movie Star Planet                                                                                                           150                                
PROFAMCHA140901212930213012000042D-JR OOB - Frozen Week - Starts Monday September 1                                                                          150                                
PGRFAMCHA140901213012213200000148ME (HD) If I Stay - Now Playing (post-7)(x2 day) (                                                                     10615120CC                              
PRCFAMCHA140901213200213208000008Family Bumper (HD) - Origami ID (Jan 2011)                                                                                  150                                
PROFAMCHA140901213208213231000023Next Step Season 2 B (HD) Eldon - New Eps Starting                                                                          150                                
PGRFAMCHA140901213231215501002230Wingin' It                                        EP: 03                                                        C32727 1065607ACD                              
PROFAMCHA140901215501215531000030Episodic DWAB (HD) 223 New Ep Friday @ 7 (Sep1-3)                                                                           150                                
PROFAMCHA140901215531215550000019GLC Promo 2 (HD) Coming Up Next (Sep2013)                                                                                   150                                
PROFAMCHA140901215550215622000032BTS Concert 2014 (HD) Premieres Friday Night @ 8:0                                                                          150                                
PROFAMCHA140901215622215707000045DXD Star Wars/Toys R Us Contest (HD) Go to Disneyx                                                                          150                                
PGRFAMCHA140901215707220134000427MV Non Disney (HD) Megan Nicole - Summer Forever (                                                                     10615120CC                              
PRCFAMCHA140901220134220151000017Family Bumper Flex (HD) Flex ID - Jessie ID (:15-:                                                                          150                                
PROFAMCHA140901220151220223000032Episodic Gravity Falls (HD) 2-03 - New Ep Friday N                                                                          150                                
PROFAMCHA140901220223220229000006GLC (HD) ID - Bridget Mendler 4 "Coming Up Next" (                                                                          150                                
PGRFAMCHA140901220229222619002350Good Luck Charlie                                 EP: 01                                                               6068807BCC                              
PROFAMCHA140901222619222734000115Star Wars Rebels (HD) Sabine/Hera - Premieres Frid                                                                          150                                
PROFAMCHA140901222734222804000030Win Lose or Draw (HD) Gen 1 - Coming Up Next (Apri                                                                          150                                
PRCFAMCHA140901222804222854000050Next Step Season 2 B (HD) Trailer - New Eps Friday                                                                          150                                
PROFAMCHA140901222854222934000040Kellogg's                                                                                                                   150                                
PRCFAMCHA140901222934222954000020BTS Concert 2014 (HD) Calum's Concert Liner#4 - Fr                                                                          150                                
PROFAMCHA140901222954223009000015Web PAF Online Game (HD) Play games on family.ca (                                                                          150                                
PRCFAMCHA140901223009223057000048D-JR OOB Lucky Duck (HD) Premieres Friday @ 9am (S                                                                          150                                
PRCFAMCHA140901223057223118000021Family Bumper Flex (HD) Break Dance (:18-:21) (Mar                                                                          150                                
PROFAMCHA140901223118223200000042Stunt GMW Cast Marathon (HD) Fri Sept 12 @ 5:30 (N                                                                          150                                
PROFAMCHA140901223200223230000030Win Lose or Draw (HD) Gen 2 - Coming Up Next (Apri                                                                          150                                
PGRFAMCHA140901223230223946000716Disney Win, Lose or Draw                          EP: 14                                                               6068807BCC                              
PROFAMCHA140901223946224031000045Star Wars Rebels (HD) Sabine CT - Coming This Fall                                                                          150                                
PGRFAMCHA140901224031224714000643Disney Win, Lose or Draw                          EP: 14                                                               6068807BCC                              
PROFAMCHA140901224714224729000015Next Step Season 2 B (HD) James - New Eps Starting                                                                          150                                
PGRFAMCHA140901224729225257000528Disney Win, Lose or Draw                          EP: 14                                                               6068807BCC                              
PROFAMCHA140901225257225327000030Episodic DWAB (HD) 223 New Ep Friday @ 7 (Sep1-3)                                                                           150                                
PGRFAMCHA140901225327225630000303Disney Win, Lose or Draw                          EP: 14                                                               6068807BCC                              
PROFAMCHA140901225630225701000031Episodic Jessie (HD) 327 - New Ep Wed Sept 10 @ 6:                                                                          150                                
PROFAMCHA140901225701225720000019WOWP (HD) Clip Bad Time - Coming Up Next (April 20                                                                          150                                
PROFAMCHA140901225720225752000032Episodic Gravity Falls (HD) 2-03 - New Ep Friday N                                                                          150                                
PROFAMCHA14090122575222583700004520th Century Fox                                                                                                            150                                
PROFAMCHA140901225837225922000045DXD Star Wars/Toys R Us Contest (HD) Go to Disneyx                                                                          150                                
PRCFAMCHA140901225922225938000016Family Bumper Flex (HD) Flex ID - Music ID (:14-:1                                                                          150                                
PROFAMCHA140901225938230010000032BTS Concert 2014 (HD) Premieres Friday Night @ 8:0                                                                          150                                
PGRFAMCHA140901230010232246002236Disney Wizards of Waverly Place                   EP: 02                                                               6068607BCC                              
PROFAMCHA140901232246232401000115Star Wars Rebels (HD) Sabine/Hera - Premieres Frid                                                                          150                                
PROFAMCHA140901232401232434000033BAW 2014 (HD) Rally Contest (Aug29-Sept30)                                                                                  150                                
PRCFAMCHA140901232434232522000048D-JR OOB Lucky Duck (HD) Premieres Friday @ 9am (S                                                                          150                                
PRCFAMCHA140901232522232612000050Next Step Season 2 B (HD) Trailer - New Eps Friday                                                                          150                                
PRCFAMCHA140901232612232623000011BTS Concert 2014 (HD) Cody Simpson Liner - Friday                                                                           150                                
PGRFAMCHA140901232623232909000246MV Disney (HD) Sabrina C-Can't Blame A Girl For Tr                                                                     10615120                                
PROFAMCHA140901232909232951000042Stunt GMW Cast Marathon (HD) Fri Sept 12 @ 5:30 (N                                                                          150                                
PRCFAMCHA140901232951233001000010Family Bumper (HD) - Bobbleheads ID (Jan 2011)                                                                              150                                
PGRFAMCHA140901233001235233002232Life With Derek                                   EP: 02                                                        C24891 1065607BCC                              
PROFAMCHA140901235233235303000030Episodic DWAB (HD) 223 New Ep Friday @ 7 (Sep1-3)                                                                           150                                
PROFAMCHA140901235303235343000040Jakks Pacific                                                                                                               150                                
PROFAMCHA140901235343235358000015Next Step Season 2 B (HD) James - New Eps Starting                                                                          150                                
MVCFAMCHA140901235358235749000351MV Non Disney (HD) Megan Nicole - Never Have I Eve                                                                     20685150CC                              
PRCFAMCHA140901235749235810000021Family Bumper Flex (HD) Dog Park (:19-:21) (Mar201                                                                          150                                
PROFAMCHA140901235810235850000040Kellogg's                                                                                                                   150                                
PROFAMCHA140901235850235905000015Web GLC Online Game (HD) Play Games at family.ca (                                                                          150                                
PROFAMCHA140901235905235945000040Jakks Pacific                                                                                                               150                                
PROFAMCHA140901235945000017000032Episodic Gravity Falls (HD) 2-03 - New Ep Friday N                                                                          150                                
PGRFAMCHA140901000017002252002235The Latest Buzz                                   EP: 09                                                        C30362 1065607BCC                              
PROFAMCHA140901002252002337000045Star Wars Rebels (HD) Sabine CT - Coming This Fall                                                                          150                                
PROFAMCHA140901002337002400000023Next Step Season 2 B (HD) Eldon - New Eps Starting                                                                          150                                
PGRFAMCHA140901002400002708000308MV Non Disney (HD) Taylor Matthews - Do What You W                                                                     10615120CC                              
PRCFAMCHA140901002708002728000020Family Bumper Flex (HD) Flex ID - ANT Farm (:16-:2                                                                          150                                
PROFAMCHA140901002728002810000042D-JR OOB - Frozen Week - Starts Monday September 1                                                                          150                                
PGRFAMCHA140901002810002958000148ME (HD) If I Stay - Now Playing (post-7)(x2 day) (                                                                     10615120CC                              
PRCFAMCHA140901002958003011000013BTS Concert 2014 (HD) Megan's Concert Liner#4 - Fr                                                                          150                                
PGRFAMCHA140901003011005241002230Wingin' It                                        EP: 04                                                        C32356 1065607ACD                              
PROFAMCHA140901005241005323000042Stunt GMW Cast Marathon (HD) Fri Sept 12 @ 5:30 (N                                                                          150                                
MVCFAMCHA140901005323005849000526MV Disney (HD) R5 - Heart Made Up On You (Aug14-Se                                                                     6068808BCC                              
PROFAMCHA140901005849005921000032BTS Concert 2014 (HD) Premieres Friday Night @ 8:0                                                                          150                                
PRCFAMCHA140901005921005951000030Web FOD 2014 Refresh (HD) Family.ca (Mar2014) (2-3                                                                          150                                
PRCFAMCHA140901005951010013000022Family Bumper Flex (HD) Fifteen Logos (:21-:22) (N                                                                          150                                
PGRFAMCHA140901010013012243002230DEBRA!                                            EP: 02                                                        C35763 1065607ACD                              
PRCFAMCHA140901012243012311000028Family Bumper Flex (HD) Flex ID - Austin & Ally (F                                                                          150                                
PGRFAMCHA140901012311014613002302What's Up, Warthogs!                              EP: 04                                                        C32738 1065607BCC                              
PRCFAMCHA140901014613014631000018Family Bumper Flex (HD) Flip Book (:15-:18) (Nov 2                                                                          150                                
PGRFAMCHA140901014631020902002231Disney Wizards of Waverly Place                   EP: 01                                                               6068607BCC                              
PRCFAMCHA140901020902020918000016Family Bumper Flex (HD) Flex ID - Jessie ID (:15-:                                                                          150                                
PGRFAMCHA140901020918023149002231Really Me                                         EP: 01                                                        C35342 1065607ACD                              
PRCFAMCHA140901023149023210000021Family Bumper Flex (HD) Garage Band (:17-:21) (Nov                                                                          150                                
PGRFAMCHA140901023210025440002230Life With Derek                                   EP: 10                                                        C24891 1065607BCC                              
PRCFAMCHA140901025440025458000018Family Bumper Flex (HD) Flex ID - Music ID (:14-:1                                                                          150                                
PGRFAMCHA140901025458031701002203Slugterra                                         EP: 01                                                        A33763 1065607ACC                              
PRCFAMCHA140901031701031722000021Family Bumper Flex (HD) Longboard (:19-:21) (Mar20                                                                          150                                
PGRFAMCHA140901031722033959002237What's Up, Warthogs!                              EP: 17                                                        B33327 1065607BCC                              
PRCFAMCHA140901033959034019000020Family Bumper Flex (HD) Flex ID - ANT Farm (:16-:2                                                                          150                                
PGRFAMCHA140901034019040255002236The Latest Buzz                                   EP: 03                                                        C30362 1065607BCC                              
PRCFAMCHA140901040255040316000021Family Bumper Flex (HD) Trampoline (:15-:21) (Mar2                                                                          150                                
PGRFAMCHA140901040316042546002230Life with Derek                                   EP: 20                                                        C26679A1065607BCC                              
PROFAMCHA140901042546042709000123D-JR Promo - Draw Your Disney Side #3 (DYDS x2 a d                                                                          150                                
PROFAMCHA140901042709042751000042D-JR Promo - Sofia The First - Get More Wknds @ 11                                                                          150                                
PROFAMCHA140901042751042816000025D-JR Promo - JATNP - Get more on the channel REV (                                                                          150                                
PROFAMCHA140901042816042901000045D-JR Promo - Sheriff Callie - Weekends @ 1130 on D                                                                          150                                
PRCFAMCHA140901042901042949000048D-JR OOB Lucky Duck (HD) Premieres Friday @ 9am (S                                                                          150                                
PROFAMCHA140901042949042959000010D-JR - Hero Flex ID - Purple (:06-:10) (Feb2014)                                                                            150                                
OFFFAMCHA140901042959043000000001OFF AIR                                                                                                                                                        
PGRFAMCHA140902043000045231002231The Secret World of Benjamin Bear                 EP: 36                                                        C27272 1065607ECC                              
PROFAMCHA140902045231045238000007D-JR Live Action ID - SWOBB - Coming Up (May2012)                                                                           150                                
PROFAMCHA140902045238045303000025D-JR Live Action ID - #65 Putting Toys Away (Sept2                                                                          150                                
PROFAMCHA140902045303045426000123D-JR Promo - Draw Your Disney Side #4 (DYDS x2 a d                                                                          150                                
PROFAMCHA140902045426045508000042D-JR OOB - Frozen Week - Starts Monday September 1                                                                          150                                
PROFAMCHA140902045508045533000025D-JR Live Action ID - #63 Wash Face (Sep2013)                                                                               150                                
PROFAMCHA140902045533045540000007D-JR Live Action ID - SWOBB - Now (May2012)                                                                                 150                                
PROFAMCHA140902045540045555000015D-JR - Daily ID - Tuesday (Feb2014)                                                                                         150                                
PGRFAMCHA140902045555051826002231The Secret World of Benjamin Bear                 EP: 37                                                        C27272 1065607ECC                              
PROFAMCHA140902051826051834000008D-JR Live Action ID - Stella & Sam - Coming Up (Ma                                                                          150                                
PROFAMCHA140902051834051859000025D-JR Live Action ID - #29 Put Shoes On (Sept2012)                                                                           150                                
PRCFAMCHA140902051859051947000048D-JR OOB Lucky Duck (HD) Premieres Friday @ 9am (S                                                                          150                                
PROFAMCHA140902051947052022000035D-JR Promo - Bananas in Pajamas - Clip 1 - Get mor                                                                          150                                
PROFAMCHA140902052022052047000025D-JR Live Action ID - #20 Calendar (May2012)                                                                                150                                
PROFAMCHA140902052047052055000008D-JR Live Action ID - Stella & Sam - Now (Mar2013)                                                                          150                                
PROFAMCHA140902052055052105000010D-JR - Hero Flex ID - Blue (:06-:10) (Feb2014)                                                                              150                                
PGRFAMCHA140902052105054420002315Stella and Sam                                    EP: 07                                                        C33973 1065607ECC                              
PROFAMCHA140902054420054435000015D-JR - Monthly ID - September (Sep2014)                                                                                     150                                
PGRFAMCHA140902054435060707002232Justin Time                                       EP: 03                                                        C33667 1025607ECD                              
PRCFAMCHA140902060707060755000048D-JR OOB Lucky Duck (HD) Premieres Friday @ 9am (S                                                                          150                                
PROFAMCHA140902060755060837000042D-JR Promo - Sofia The First - Get More Wknds @ 11                                                                          150                                
PROFAMCHA140902060837060907000030D-JR Promo - MMCH - Get more MMCH on D-JR the chan                                                                          150                                
PROFAMCHA140902060907060952000045D-JR Promo - Sheriff Callie - Weekends @ 1130 on D                                                                          150                                
PROFAMCHA140902060952061002000010D-JR - Hero Flex ID - Green (:06-:10) (Feb2014)                                                                             150                                
PGRFAMCHA140902061002063234002232Justin Time                                       EP: 04                                                        C33667 1025607ECD                              
PROFAMCHA140902063234063349000115Star Wars Rebels (HD) Sabine/Hera - Premieres Frid                                                                          150                                
PRCFAMCHA140902063349063400000011BTS Concert 2014 (HD) Cody Simpson Liner - Friday                                                                           150                                
PRCFAMCHA140902063400063424000024Family Bumper Flex (HD) Bike Trails (:20-:24) (Mar                                                                          150                                
PROFAMCHA140902063424063506000042Stunt GMW Cast Marathon (HD) Fri Sept 12 @ 5:30 (N                                                                          150                                
PGRFAMCHA140902063506065737002231Disney A.N.T. Farm                                EP: 02                                                               6068607BCC                              
PROFAMCHA140902065737065807000030Episodic DWAB (HD) 223 New Ep Friday @ 7 (Sep1-3)                                                                           150                                
PROFAMCHA140902065807065847000040Kellogg's                                                                                                                   150                                
PROFAMCHA140902065847065920000033BAW 2014 (HD) Rally Contest (Aug29-Sept30)                                                                                  150                                
PROFAMCHA140902065920065952000032BTS Concert 2014 (HD) Premieres Friday Night @ 8:0                                                                          150                                
PRCFAMCHA140902065952070005000013Family Flex Next (HD) Jessie - Jessie  (:12-:14) (                                                                          150                                
PGRFAMCHA140902070005072438002433Disney Jessie                                     EP: 01                                                               6068807BCC                              
PROFAMCHA140902072438072501000023Next Step Season 2 B (HD) Eldon - New Eps Starting                                                                          150                                
PRCFAMCHA140902072501072514000013Family Flex Next (HD) A&A - Laura (:12-:14) (Apr20                                                                          150                                
PGRFAMCHA140902072514075115002601Disney Austin & Ally                              EP: 01                                                               6068807BCC                              
PRCFAMCHA140902075115075128000013Family Flex Next (HD) DWAB Ghannelius (Aug 2013) (                                                                          150                                
PGRFAMCHA140902075128081243002115Disney Dog With A Blog                            EP: 01                                                               6068807BCC                              
PROFAMCHA140902081243081313000030Episodic DWAB (HD) 223 New Ep Friday @ 7 (Sep1-3)                                                                           150                                
PROFAMCHA140902081313081332000019WOWP (HD) Clip Bad Time - Coming Up Next (April 20                                                                          150                                
PROFAMCHA140902081332081417000045Star Wars Rebels (HD) Sabine CT - Coming This Fall                                                                          150                                
PROFAMCHA140902081417081506000049Parmalat                                                                                                                    150                                
PRCFAMCHA140902081506081527000021Family Bumper Flex (HD) Dog Park (:19-:21) (Mar201                                                                          150                                
PGRFAMCHA140902081527081727000200ME (HD) Boxtrolls s1 - Coming Soon (x3 day) (Aug28                                                                     10615120CC                              
PROFAMCHA140902081727081758000031Episodic Jessie (HD) 327 - New Ep Wed Sept 10 @ 6:                                                                          150                                
PROFAMCHA140902081758081804000006WOWP (HD) ID - Jennifer Stone 1 "Coming Up Next" (                                                                          150                                
PGRFAMCHA140902081804084052002248Disney Wizards of Waverly Place                   EP: 02                                                               6068607BCC                              
PROFAMCHA140902084052084100000008D-JR Live Action ID - SCWW - NEW Coming Up (Mar201                                                                          150                                
PROFAMCHA140902084100084125000025D-JR Live Action ID - #67 Play Dressup (Sep2013)                                                                            150                                
PROFAMCHA140902084125084248000123D-JR Promo - Draw Your Disney Side #1 (DYDS x2 a d                                                                          150                                
PROFAMCHA140902084248084318000030D-JR Promo - Henry Hugglemonster - Get more HH  on                                                                          150                                
PROFAMCHA140902084318084348000030D-JR Promo - MMCH - Get more MMCH on D-JR the chan                                                                          150                                
PROFAMCHA140902084348084423000035D-JR Promo - Bananas in Pajamas - Clip 1 - Get mor                                                                          150                                
PROFAMCHA140902084423084448000025D-JR Live Action ID - #63 Wash Face (Sep2013)                                                                               150                                
PROFAMCHA140902084448084456000008D-JR Live Action ID - SCWW - NEW Now (Mar2014)                                                                              150                                
PROFAMCHA140902084456084511000015D-JR - Daily ID - Tuesday (Feb2014)                                                                                         150                                
PGRFAMCHA140902084511090913002402Disney Sheriff Callie's Wild West                 EP: 02                                                               6028605ACC                              
PROFAMCHA140902090913090921000008D-JR Live Action ID - DocMcStuffins - Coming Up (O                                                                          150                                
PROFAMCHA140902090921090946000025D-JR Live Action ID - #29 Put Shoes On (Sept2012)                                                                           150                                
PROFAMCHA140902090946091031000045D-JR Promo - Sheriff Callie - Weekends @ 1130 on D                                                                          150                                
PROFAMCHA140902091031091056000025D-JR Live Action ID - #15 Sidewalk Chalk (Sep2013)                                                                          150                                
PROFAMCHA140902091056091104000008D-JR Live Action ID - DocMcStuffins - Now (Oct2013                                                                          150                                
PROFAMCHA140902091104091114000010D-JR - Hero Flex ID - Yellow (:06-:10) (Feb2014)                                                                            150                                
PGRFAMCHA140902091114093516002402Disney Doc McStuffins                             EP: 08                                                               6028605ACC                              
PROFAMCHA140902093516093608000052D-JR Promo - Doc McStuffins - Get more on the chan                                                                          150                                
PRCFAMCHA140902093608093656000048D-JR OOB Lucky Duck (HD) Premieres Friday @ 9am (S                                                                          150                                
PROFAMCHA140902093656093711000015D-JR - Monthly ID - September (Sep2014)                                                                                     150                                
PGRFAMCHA140902093711100114002403Henry Hugglemonster                               EP: 01                                                               6028605ACC                              
PROFAMCHA140902100114100122000008D-JR Live Action ID - Jake & the Never Land Pirate                                                                          150                                
PROFAMCHA140902100122100147000025D-JR Live Action ID - #42 Brush Teeth (May2012)                                                                             150                                
PROFAMCHA140902100147100237000050D-JR Promo - Henry Hugglemonster - Get more HH on                                                                           150                                
PRCFAMCHA140902100237100325000048D-JR OOB Lucky Duck (HD) Premieres Friday @ 9am (S                                                                          150                                
PROFAMCHA140902100325100350000025D-JR Live Action ID - # Learning Hot and Cold (Oct                                                                          150                                
PROFAMCHA140902100350100357000007D-JR Live Action ID - Jake & the Never Land Pirate                                                                          150                                
PROFAMCHA140902100357100407000010D-JR - Hero Flex ID - Blue (:06-:10) (Feb2014)                                                                              150                                
PGRFAMCHA140902100407102824002417Disney Jake and the Never Land Pirates            EP: 02                                                               6068605ACC                              
PROFAMCHA140902102824102832000008D-JR Live Action ID - Sofia the First - Coming Up                                                                           150                                
PROFAMCHA140902102832102857000025D-JR Live Action ID - #49 Making Lunch Routine (Ma                                                                          150                                
PROFAMCHA140902102857102922000025D-JR Promo - JATNP - Get more on the channel REV (                                                                          150                                
PROFAMCHA140902102922102947000025D-JR Live Action ID - #45 Sorting Socks (May2012)                                                                           150                                
PROFAMCHA140902102947102955000008D-JR Live Action ID - Sofia the First - Now (Jan20                                                                          150                                
PROFAMCHA140902102955103010000015D-JR - Seasonal ID - Fall (Sep 1-Nov 30)                                                                                    150                                
PGRFAMCHA140902103010105241002231Disney Sofia the First                            EP: 01                                                               6068605ACC                              
PROFAMCHA140902105241105312000031Episodic Jessie (HD) 327 - New Ep Wed Sept 10 @ 6:                                                                          150                                
PRCFAMCHA140902105312105326000014Family Flex Next (HD) ANT Farm - Jake (:12-:14) (A                                                                          150                                
PRCFAMCHA140902105326105337000011BTS Concert 2014 (HD) Cody Simpson Liner - Friday                                                                           150                                
PGRFAMCHA140902105337105537000200ME (HD) Dolphine Tale 2 - In Theatres September 12                                                                     10615120CC                              
PRCFAMCHA140902105537105559000022Family Bumper Flex (HD) Fifteen Logos (:21-:22) (N                                                                          150                                
PGRFAMCHA140902105559105935000336MV Non Disney (HD) Brandon & Savannah - Summer (Au                                                                     10615120CC                              
PROFAMCHA140902105935110008000033BAW 2014 (HD) Rally Contest (Aug29-Sept30)                                                                                  150                                
PROFAMCHA140902110008110023000015ANT Farm (HD) Refresh CT - Coming Up Next (April 2                                                                          150                                
PGRFAMCHA140902110023112224002201Disney A.N.T. Farm                                EP: 01                                                               6068607BCC                              
