OFFFAMCHA991201043000060000013000                                                                                                                                                               
SO FAMCHA991201060000060011000011Sign On (oct 1)                                                                                                                                                
PROFAMCHA991201060011060016000005CC Disclaimer (oct) **DO NOT USE**                                                                                                                             
PGRFAMCHA991201060016062416002400Hello Mrs. Cherrywinkle                           Hot Diggety Cat                                               B18887A1065607ACC                              
ID FAMCHA991201062416062431000015Interactive bumper w/URL                                                                                                                                       
ID FAMCHA991201062431062441000010Generic ID - soccer **DO NOT USE**                                                                                                                             
PRCFAMCHA991201062441062453000012Morning Block menu background (flex time)                                                                                                                      
PROFAMCHA991201062453062526000033Toothless - Saturday @ 8pm w/billboard                                                                                                                         
PROFAMCHA991201062526062605000039Goof Troop - Today @ 3pm                                                                                                                                       
PGRFAMCHA991201062605062705000100Richard Scarry (ii) X-Rays                                                                                      P19592 10656130                                
PRCFAMCHA991201062705062805000100Contest - What's Franklin Doing Now?                                                                                                                           
PROFAMCHA991201062805062835000030Out of The Box - Monday, Wednesday, and Friday @ 1                                                                                                             
PROFAMCHA991201062835062940000105Adventures of Gummi Bears-Today @ 8am on Family (o                                                                                                             
ID FAMCHA991201062940063000000020Morning block open play pen                                                                                                                                    
PROFAMCHA991201063000063005000005CC Disclaimer (oct) **DO NOT USE**                                                                                                                             
PGRFAMCHA991201063005065415002410Busy World Of Richard Scarry; The                 The Big Dare                                                  P24300 1165607ECC                              
ID FAMCHA991201065415065430000015Interactive bumper w/URL                                                                                                                                       
ID FAMCHA991201065430065440000010Generic ID - Ring around the rosie                                                                                                                             
PRCFAMCHA991201065440065452000012Morning Block menu background (flex time)                                                                                                                      
PROFAMCHA991201065452065525000033Toothless - Saturday @ 8pm w/billboard                                                                                                                         
PRCFAMCHA991201065525065625000100Contest - What's Franklin Doing Now?                                                                                                                           
PGRFAMCHA991201065625065825000200Disney Circle Time - The Lion & The Mouse Fable (a                                                                     60688130                                
PRCFAMCHA991201065825065855000030Franklin-next (oct 1)                                                                                                                                          
PROFAMCHA991201065855065940000045PB&J Otter - Mon, Wed & Fri @ 8:30am (oct 1)                                                                                                                   
ID FAMCHA991201065940070000000020Morning block open play pen                                                                                                                                    
PROFAMCHA991201070000070005000005CC Disclaimer (oct) **DO NOT USE**                                                                                                                             
PGRFAMCHA991201070005072258002253Franklin                                          Franklin's Family Treasure/Franklin's Music Lesson            B13645 1065607ECC                              
ID FAMCHA991201072258072313000015Interactive bumper w/URL                                                                                                                                       
ID FAMCHA991201072313072323000010Generic ID - Pink inner tube                                                                                                                                   
PRCFAMCHA991201072323072331000008Morning Block menu background (flex time)                                                                                                                      
PROFAMCHA991201072331072416000045Wish Upon a Star - Friday at 8pm with Billboard                                                                                                                
PROFAMCHA991201072416072446000030Out of The Box - Monday, Wednesday, and Friday @ 1                                                                                                             
PROFAMCHA991201072446072521000035Lion King's Timon & Pumbaa - wkdays @ noon (OCT 1)                                                                                                             
PGRFAMCHA991201072521072621000100Richard Scarry (ii) Libraries                                                                                   P19580 10656130                                
PROFAMCHA991201072621072706000045PB&J Otter - Mon, Wed & Fri @ 8:30am (oct 1)                                                                                                                   
PRCFAMCHA991201072706072806000100Contest - What's Franklin Doing Now?                                                                                                                           
PROFAMCHA991201072806072845000039Goof Troop - Next                                                                                                                                              
PROFAMCHA991201072845072950000105Adventures of Gummi Bears-Today @ 8am on Family (o                                                                                                             
ID FAMCHA991201072950073000000010Presentation bumper - Magic of Disney                                                                                                                          
PROFAMCHA991201073000073005000005CC Disclaimer (oct) **DO NOT USE**                                                                                                                             
PGRFAMCHA991201073005075255002250Goof Troop                                        Talent To The Max                                                    6068607ECC                              
ID FAMCHA991201075255075310000015Interactive bumper w/URL                                                                                                                                       
ID FAMCHA991201075310075317000007Generic ID - Whisper                                                                                                                                           
PRCFAMCHA991201075317075328000011Morning Block menu background (flex time)                                                                                                                      
PROFAMCHA991201075328075413000045Wish Upon a Star - Friday at 8pm with Billboard                                                                                                                
PRCFAMCHA991201075413075513000100Contest - What's Franklin Doing Now?                                                                                                                           
PGRFAMCHA991201075513075717000204MV Disney - You've got a friend in me (oct 1)                                                                          60688130                                
PROFAMCHA991201075717075732000015Doug - Today @ 5:00 pm (oct1)                                                                                                                                  
PROFAMCHA991201075732075812000040Microsoap-Tonight @ 6:30pm (oct)                                                                                                                               
PROFAMCHA991201075812075917000105Adventures of Gummi Bears-Next on Family (oct)                                                                                                                 
PROFAMCHA991201075917075950000033Toothless - Saturday @ 8pm w/billboard                                                                                                                         
ID FAMCHA991201075950080000000010Presentation bumper - Magic of Disney                                                                                                                          
PROFAMCHA991201080000080005000005CC Disclaimer (oct) **DO NOT USE**                                                                                                                             
PGRFAMCHA991201080005082244002239Adventures of the Gummi Bears; The                Queen Of The Carpies                                                 6068607ECC                              
ID FAMCHA991201082244082259000015Interactive bumper w/URL                                                                                                                                       
ID FAMCHA991201082259082309000010Generic ID - Pink inner tube                                                                                                                                   
PRCFAMCHA991201082309082318000009Morning Block menu background (flex time)                                                                                                                      
PROFAMCHA991201082318082351000033Toothless - Saturday @ 8pm w/billboard                                                                                                                         
PRCFAMCHA991201082351082451000100Contest - What's Franklin Doing Now?                                                                                                                           
PROFAMCHA991201082451082526000035Lion King's Timon & Pumbaa - wkdays @ noon (OCT 1)                                                                                                             
PGRFAMCHA991201082526082703000137Bill Nye - The Science Guy Theme                                                                                       60688130                                
PROFAMCHA991201082703082744000041Honey I Shrunk the Kids (series oct) Mon & Thurs @                                                                                                             
PROFAMCHA991201082744082829000045PB&J Otter - Next (oct 1)                                                                                                                                      
PROFAMCHA991201082829082940000111Wish Upon A Star (video)                                                                                                                                       
ID FAMCHA991201082940083000000020Morning block open play pen                                                                                                                                    
PROFAMCHA991201083000083005000005CC Disclaimer (oct) **DO NOT USE**                                                                                                                             
PGRFAMCHA991201083005085335002330PB&J Otter                                        Follow Your Nose                                                    A6068607ECC                              
ID FAMCHA991201085335085350000015Interactive bumper w/URL                                                                                                                                       
ID FAMCHA991201085350085400000010Generic ID - confetti                                                                                                                                          
PRCFAMCHA991201085400085410000010Morning Block menu background (flex time)                                                                                                                      
PROFAMCHA991201085410085521000111Wish Upon A Star (video)                                                                                                                                       
PRCFAMCHA991201085521085556000035Little Lulu Show; The - Weekdays @ 1:00pm (oct1)                                                                                                               
PROFAMCHA991201085556085623000027Recess - Today @ 5:30 pm (oct1)                                                                                                                                
PGRFAMCHA99120108562308572300010060 Seconds of Science - Time(13) (anywhere but D12                                                                     60688130                                
PROFAMCHA991201085723085740000017Hercules - Today @ 4:30 pm (Oct 1)                                                                                                                             
PRCFAMCHA991201085740085840000100Contest - What's Franklin Doing Now?                                                                                                                           
PRCFAMCHA991201085840085940000100Morning Block - Babar next/Nilus/Katie                                                                                                                         
ID FAMCHA991201085940090000000020Morning block open play pen                                                                                                                                    
PROFAMCHA991201090000090005000005CC Disclaimer (oct) **DO NOT USE**                                                                                                                             
PGRFAMCHA991201090005092320002315Babar                                             The One That Got Away                                         C07575 1065607ECC                              
ID FAMCHA991201092320092325000005Generic ID - Fingerpaint                                                                                                                                       
PRCFAMCHA991201092325092400000035Little Lulu Show; The - Weekdays @ 1:00pm (oct1)                                                                                                               
PROFAMCHA991201092400092500000100Morning Block - Nilus next/Katie/Billy                                                                                                                         
PROFAMCHA991201092500092505000005CC Disclaimer (oct) **DO NOT USE**                                                                                                                             
PGRFAMCHA991201092505094855002350Nilus The Sandman                                 Speak Up                                                      B06990 1065607ECC                              
ID FAMCHA991201094855094900000005Generic ID - Bubbles                                                                                                                                           
PRCFAMCHA991201094900095000000100Contest - What's Franklin Doing Now?                                                                                                                           
PROFAMCHA991201095000095100000100Morning Block - Katie next/Billy/Busy World                                                                                                                    
PROFAMCHA991201095100095105000005CC Disclaimer (oct) **DO NOT USE**                                                                                                                             
PGRFAMCHA991201095105101741002636Katie And Orbie                                   The Library/Roller Skates/The Scary Movie                     C12449 1065607ECC                              
PROFAMCHA991201101741101841000100Morning Block - Billy next/Busy World/Art Attack                                                                                                               
PROFAMCHA991201101841101846000005CC Disclaimer (oct) **DO NOT USE**                                                                                                                             
PGRFAMCHA991201101846104309002423Billy The Cat                                     Romeo And Juliet                                              B27652A1065607ECC                              
PROFAMCHA991201104309104409000100Morning Block - Busy World next/Art Attack                                                                                                                     
PROFAMCHA991201104409104414000005CC Disclaimer (oct) **DO NOT USE**                                                                                                                             
PGRFAMCHA991201104414110824002410Busy World Of Richard Scarry; The                 The Best Birthday Party Ever                                  P24301 1165607ECC                              
PROFAMCHA991201110824110924000100Morning Block - Art Attack next                                                                                                                                
PGRFAMCHA991201110924112914001950Art Attack                                        1-103                                                                60686110                                
PROFAMCHA991201112914113014000100Morning Block - Generic                                                                                                                                        
PGRFAMCHA991201113014115224002210Out of the Box                                    Really Wheely                                                        60686110                                
ID FAMCHA991201115224115239000015Interactive bumper w/URL                                                                                                                                       
ID FAMCHA991201115239115254000015Generic ID - confetti                                                                                                                                          
PRCFAMCHA991201115254115303000009Morning Block menu background (flex time)                                                                                                                      
PROFAMCHA991201115303115421000118Toothless Video - Saturday, Dec.4th @ 8pm                                                                                                                      
PRCFAMCHA991201115421115454000033Hoze Houndz - Saturday @ 7:00pm                                                                                                                                
PGRFAMCHA991201115454115751000257Art Attack - Dracula (HALLOWEEN)                                                                                       60686130                                
PROFAMCHA991201115751115830000039Goof Troop - Today @ 3pm                                                                                                                                       
PROFAMCHA991201115830115905000035Lion King's Timon & Pumbaa - next (OCT 1)                                                                                                                      
PROFAMCHA991201115905115950000045Wish Upon a Star - Friday at 8pm with Billboard                                                                                                                
ID FAMCHA991201115950120000000010Presentation bumper - Magic of Disney                                                                                                                          
PGRFAMCHA991201120000122245002245Lion King's Timon & Pumbaa; The                   Space Ham/You Bet Your Tuhkus                                        6068607E                                
ID FAMCHA991201122245122300000015Interactive bumper w/URL                                                                                                                                       
ID FAMCHA991201122300122305000005Generic ID - Couch 2                                                                                                                                           
PROFAMCHA991201122305122416000111Wish Upon A Star (video)                                                                                                                                       
PROFAMCHA991201122416122457000041Honey I Shrunk the Kids (series oct) Mon & Thurs @                                                                                                             
PRCFAMCHA991201122457122545000048Ripley's BION - Fridays @ 6:00pm (oct1)                                                                                                                        
PGRFAMCHA991201122545122745000200Disney Circle Time - The Lion & The Mouse Fable (a                                                                     60688130                                
PROFAMCHA991201122745122825000040Microsoap-Tonight @ 6:30pm (oct)                                                                                                                               
PROFAMCHA991201122825122842000017Hercules - Today @ 4:30 pm (Oct 1)                                                                                                                             
PROFAMCHA991201122842122912000030So Weird - Friday @ 7:00 pm (Oct 1)                                                                                                                            
PROFAMCHA991201122912122945000033Toothless - Saturday @ 8pm w/billboard                                                                                                                         
ID FAMCHA991201122945123000000015Afternoon block pinball open **DO NOT USE**                                                                                                                    
PGRFAMCHA991201123000125401002401Clarissa                                          Boy Thoughts                                                         2068607B                                
ID FAMCHA991201125401125416000015Interactive bumper w/URL                                                                                                                                       
ID FAMCHA991201125416125426000010Generic ID - Family w/dog                                                                                                                                      
PROFAMCHA991201125426125537000111Wish Upon A Star (video)                                                                                                                                       
PROFAMCHA991201125537125601000024So Weird - Friday @ 7:00 pm (Oct 1)                                                                                                                            
PRCFAMCHA991201125601125634000033Hoze Houndz - Saturday @ 7:00pm                                                                                                                                
PGRFAMCHA991201125634125758000124Bill Nye - R.E.C.Y.C.L.E                                                                                               60688130                                
PRCFAMCHA991201125758125829000031Contest - WOW Canada                                                                                                                                           
PRCFAMCHA991201125829125904000035Little Lulu Show; The - Next (oct1)                                                                                                                            
PROFAMCHA991201125904125945000041Honey I Shrunk the Kids (series oct) Mon & Thurs @                                                                                                             
ID FAMCHA991201125945130000000015Afternoon block pinball open w/burp                                                                                                                            
PROFAMCHA991201130000130005000005CC Disclaimer (oct) **DO NOT USE**                                                                                                                             
PGRFAMCHA991201130005132357002352Little Lulu Show; The                             Space Kids/Case of Disappearing Drum/From Hero to             B03816A1065607ECC                              
ID FAMCHA991201132357132412000015Interactive bumper w/URL                                                                                                                                       
ID FAMCHA991201132412132422000010Generic ID - confetti                                                                                                                                          
PRCFAMCHA991201132422132432000010Morning Block menu background (flex time)                                                                                                                      
PROFAMCHA991201132432132505000033Toothless - Saturday @ 8pm w/billboard                                                                                                                         
PROFAMCHA991201132505132537000032Sherlock Holmes - Tonight @ midnight (oct)                                                                                                                     
PROFAMCHA991201132537132556000019So Weird - Friday @ 7:00 pm (oct1 )                                                                                                                            
PROFAMCHA991201132556132637000041Honey I Shrunk the Kids (series oct) Mon & Thurs @                                                                                                             
PRCFAMCHA991201132637132708000031Contest - WOW Canada                                                                                                                                           
PROFAMCHA991201132708132730000022Hercules - Today @ 4:30 pm (oct 1)                                                                                                                             
PRCFAMCHA991201132730132830000100Contest - What's Franklin Doing Now?                                                                                                                           
PRCFAMCHA991201132830132900000030Franklin-next (oct 1)                                                                                                                                          
PROFAMCHA991201132900132945000045Wish Upon a Star - Friday at 8pm with Billboard                                                                                                                
ID FAMCHA991201132945133000000015Afternoon block pinball open **DO NOT USE**                                                                                                                    
PROFAMCHA991201133000133005000005CC Disclaimer (oct) **DO NOT USE**                                                                                                                             
PGRFAMCHA991201133005135258002253Franklin                                          Franklin Plants a Tree/Franklin and Hero                      P02772A1065607ECC                              
ID FAMCHA991201135258135313000015Interactive bumper w/URL                                                                                                                                       
ID FAMCHA991201135313135320000007Generic ID - Whisper                                                                                                                                           
PROFAMCHA991201135320135438000118Toothless Video - Saturday, Dec.4th @ 8pm                                                                                                                      
PRCFAMCHA991201135438135513000035Little Lulu Show; The - Saturday @ 6:30pm (oct1)                                                                                                               
PGRFAMCHA991201135513135731000218Art Attack - Windmill                                                                                                  60688130                                
PROFAMCHA991201135731135746000015Disney's One Too - today @ 4:30 (Oct 1)                                                                                                                        
PROFAMCHA991201135746135821000035Lion King's Timon & Pumbaa - wkdays @ 4pm (OCT 1)                                                                                                              
PROFAMCHA991201135821135900000039Goof Troop - Today @ 3pm                                                                                                                                       
PROFAMCHA991201135900135945000045Wish Upon a Star - Friday at 8pm with Billboard                                                                                                                
ID FAMCHA991201135945140000000015Afternoon block pinball open w/burp                                                                                                                            
PGRFAMCHA991201140000142006002006Art Attack                                        1-104                                                                60686110                                
ID FAMCHA991201142006142021000015Interactive bumper w/URL                                                                                                                                       
ID FAMCHA991201142021142031000010Generic ID - Bubbles                                                                                                                                           
PRCFAMCHA991201142031142041000010Morning Block menu background (flex time)                                                                                                                      
PROFAMCHA991201142041142152000111Wish Upon A Star (video)                                                                                                                                       
PROFAMCHA991201142152142231000039Goof Troop - Today @ 3pm                                                                                                                                       
PROFAMCHA991201142231142312000041Honey I Shrunk the Kids (series oct) Mon & Thurs @                                                                                                             
PGRFAMCHA991201142312142732000420MV Disney - Someday (oct 1)                                                                                            60288130                                
PRCFAMCHA991201142732142803000031Contest - WOW Canada                                                                                                                                           
PROFAMCHA991201142803142843000040Microsoap-Tonight @ 6:30pm (oct)                                                                                                                               
PROFAMCHA991201142843142918000035Lion King's Timon & Pumbaa - today @ 4:00pm (OCT 1                                                                                                             
PROFAMCHA991201142918142950000032Sherlock Holmes - Tonight @ midnight (oct)                                                                                                                     
ID FAMCHA991201142950143000000010Presentation bumper - Magic of Disney                                                                                                                          
PROFAMCHA991201143000143005000005CC Disclaimer (oct) **DO NOT USE**                                                                                                                             
PGRFAMCHA991201143005145249002244Darkwing Duck                                     Battle Of The Brainteasers                                           6068607ECC                              
ID FAMCHA991201145249145304000015Interactive bumper w/URL                                                                                                                                       
ID FAMCHA991201145304145319000015Generic ID - confetti                                                                                                                                          
PRCFAMCHA991201145319145331000012Morning Block menu background (flex time)                                                                                                                      
PROFAMCHA991201145331145404000033Toothless - Saturday @ 8pm w/billboard                                                                                                                         
PROFAMCHA991201145404145439000035Lion King's Timon & Pumbaa - today @ 4:00pm (OCT 1                                                                                                             
PGRFAMCHA991201145439145759000320MV Disney - Remember the magic (oct 1)                                                                                 60688130                                
PRCFAMCHA991201145759145830000031Contest - WOW Canada                                                                                                                                           
PROFAMCHA991201145830145911000041Honey I Shrunk the Kids (series oct) Mon & Thurs @                                                                                                             
PROFAMCHA991201145911145950000039Goof Troop - Next                                                                                                                                              
ID FAMCHA991201145950150000000010Presentation bumper - Magic of Disney                                                                                                                          
PROFAMCHA991201150000150005000005CC Disclaimer (oct) **DO NOT USE**                                                                                                                             
PGRFAMCHA991201150005152248002243Goof Troop                                        From Air To Eternity                                                 6068607ECC                              
ID FAMCHA991201152248152303000015Interactive bumper w/URL                                                                                                                                       
ID FAMCHA991201152303152313000010Generic ID - soccer **DO NOT USE**                                                                                                                             
PRCFAMCHA991201152313152324000011Morning Block menu background (flex time)                                                                                                                      
PROFAMCHA991201152324152409000045Wish Upon a Star - Friday at 8pm with Billboard                                                                                                                
PROFAMCHA991201152409152431000022Hercules - Today @ 4:30 pm (oct 1)                                                                                                                             
PROFAMCHA991201152431152506000035Lion King's Timon & Pumbaa - today @ 4:00pm (OCT 1                                                                                                             
PRCFAMCHA991201152506152554000048Ripley's BION - Fridays @ 6:00pm (oct1)                                                                                                                        
PRCFAMCHA991201152554152625000031Contest - WOW Canada                                                                                                                                           
PGRFAMCHA991201152625152741000116Bill Nye - How Can We Communicate?                                                                                     60688130                                
PROFAMCHA991201152741152808000027Recess - Today @ 5:30 pm (oct1)                                                                                                                                
PROFAMCHA991201152808152832000024So Weird - Friday @ 7:00 pm (Oct 1)                                                                                                                            
PROFAMCHA991201152832152950000118Toothless Video - Saturday, Dec.4th @ 8pm                                                                                                                      
ID FAMCHA991201152950153000000010Presentation bumper - Magic of Disney                                                                                                                          
PROFAMCHA991201153000153005000005CC Disclaimer (oct) **DO NOT USE**                                                                                                                             
PGRFAMCHA991201153005155242002237Disney's Aladdin                                  Stinker Belle                                                        6068607ECC                              
ID FAMCHA991201155242155257000015Interactive bumper w/URL                                                                                                                                       
ID FAMCHA991201155257155307000010Generic ID - soccer **DO NOT USE**                                                                                                                             
PROFAMCHA991201155307155340000033Toothless - Saturday @ 8pm w/billboard                                                                                                                         
PROFAMCHA991201155340155415000035Lion King's Timon & Pumbaa - next (OCT 1)                                                                                                                      
PROFAMCHA991201155415155455000040Microsoap-Tonight @ 6:30pm (oct)                                                                                                                               
PGRFAMCHA991201155455155810000315Art Attack - Self Portrait                                                                                             60686130                                
PRCFAMCHA991201155810155841000031Contest - WOW Canada                                                                                                                                           
PROFAMCHA991201155841155905000024So Weird - Friday @ 7:00 pm (Oct 1)                                                                                                                            
PROFAMCHA991201155905155950000045Wish Upon a Star - Friday at 8pm with Billboard                                                                                                                
ID FAMCHA991201155950160000000010Presentation bumper - Magic of Disney                                                                                                                          
PGRFAMCHA991201160000162245002245Lion King's Timon & Pumbaa; The                   No Good Samaritan/Living in De Nile                                  6068607E                                
ID FAMCHA991201162245162300000015Interactive bumper w/URL                                                                                                                                       
ID FAMCHA991201162300162310000010Generic ID - Bubbles                                                                                                                                           
PRCFAMCHA991201162310162323000013Morning Block menu background (flex time)                                                                                                                      
PROFAMCHA991201162323162441000118Toothless Video - Saturday, Dec.4th @ 8pm                                                                                                                      
PROFAMCHA991201162441162521000040Microsoap-Tonight @ 6:30pm (oct)                                                                                                                               
PGRFAMCHA991201162521162618000057Frankenguy and the Professor - wheels                                                                                  60688130                                
PRCFAMCHA991201162618162706000048Ripley's BION - Fridays @ 6:00pm (oct1)                                                                                                                        
PRCFAMCHA991201162706162737000031Contest - WOW Canada                                                                                                                                           
PROFAMCHA991201162737162801000024So Weird - Friday @ 7:00 pm (Oct 1)                                                                                                                            
PROFAMCHA991201162801162843000042Gargoyles-Tonight @ 11:30 pm (Oct 1)                                                                                                                           
PROFAMCHA991201162843162905000022Disney's One Too - Next (Oct 1)                                                                                                                                
PROFAMCHA991201162905162950000045Wish Upon a Star - Friday at 8pm with Billboard                                                                                                                
ID FAMCHA991201162950163000000010Presentation bumper - Magic of Disney                                                                                                                          
PROFAMCHA991201163000163045000045Disney's One Too - Opening                                                                                                                                     
PGRFAMCHA991201163045165345002300Disney's Hercules                                 Hercules And The Muse of Dance                                       6028607ECC                              
ID FAMCHA991201165345165400000015Interactive bumper w/URL                                                                                                                                       
ID FAMCHA991201165400165407000007Generic ID - Whisper                                                                                                                                           
PROFAMCHA991201165407165452000045Wish Upon a Star - Friday at 8pm with Billboard                                                                                                                
PGRFAMCHA991201165452165513000021Doug Sketches - House of Pork Chop - Pork Chop Mot                                                                     60286130                                
PGRFAMCHA991201165513165543000030Disney Magic Drawings(10)- Minnie (D12 only)                                                                           60686130                                
PGRFAMCHA991201165543165604000021Doug Sketches - Skunky's Word of the Day                                                                               60686130                                
PRCFAMCHA991201165604165635000031Contest - WOW Canada                                                                                                                                           
PGRFAMCHA991201165635165756000121Disney Magic Shop(12)- Hypnotic Pencil (D12 only)                                                                      60286130                                
PGRFAMCHA991201165756165817000021Doug Sketches - Adventures of Quailman                                                                                 60686130                                
PROFAMCHA991201165817165857000040Microsoap-Tonight @ 6:30pm (oct)                                                                                                                               
PROFAMCHA991201165857165912000015Doug - Next (oct1)                                                                                                                                             
PROFAMCHA991201165912165945000033Toothless - Saturday @ 8pm w/billboard                                                                                                                         
ID FAMCHA991201165945170000000015Afternoon block pinball open **DO NOT USE**                                                                                                                    
PROFAMCHA991201170000170045000045Disney's One Too - Opening                                                                                                                                     
PGRFAMCHA991201170045172311002226Disney's Doug                                     Quailman VS the Little Rubber Army                                   6028607E                                
ID FAMCHA991201172311172326000015Interactive bumper w/URL                                                                                                                                       
ID FAMCHA991201172326172336000010Generic ID - confetti                                                                                                                                          
PRCFAMCHA991201172336172349000013Morning Block menu background (flex time)                                                                                                                      
PROFAMCHA991201172349172507000118Toothless Video - Saturday, Dec.4th @ 8pm                                                                                                                      
PGRFAMCHA991201172507172528000021Recess Sketches - Ventriloquist                                                                                        60686130                                
PGRFAMCHA991201172528172648000120Disney Magic Shop(03)- Nimble Thimble (D12 only)                                                                       60686130                                
PGRFAMCHA991201172648172709000021Recess Sketches - The Word - Be Cool                                                                                   60686130                                
PROFAMCHA991201172709172748000039Goof Troop - Monday to Friday @ 3pm                                                                                                                            
PGRFAMCHA991201172748172809000021Recess Sketches - Bad Weather                                                                                          60686130                                
PGRFAMCHA991201172809172839000030Disney Magic Drawings(04)- Winnie the Pooh (D12 on                                                                     60686130                                
PROFAMCHA991201172839172900000021Recess - Next (oct1)                                                                                                                                           
PROFAMCHA991201172900172945000045Wish Upon a Star - Friday at 8pm with Billboard                                                                                                                
ID FAMCHA991201172945173000000015Afternoon block pinball open **DO NOT USE**                                                                                                                    
PROFAMCHA991201173000173045000045Disney's One Too - Opening                                                                                                                                     
PGRFAMCHA991201173045175321002236Disney's Recess                                   Voice/Kids in the Mist                                               6068607E                                
ID FAMCHA991201175321175336000015Interactive bumper w/URL                                                                                                                                       
ID FAMCHA991201175336175343000007Generic ID - Whisper                                                                                                                                           
PROFAMCHA991201175343175454000111Wish Upon A Star (video)                                                                                                                                       
PROFAMCHA991201175454175526000032Sherlock Holmes - Tonight @ midnight (oct)                                                                                                                     
PROFAMCHA991201175526175606000040Microsoap-Tonight @ 6:30pm (oct)                                                                                                                               
PROFAMCHA991201175606175630000024So Weird - Friday @ 7:00 pm (Oct 1)                                                                                                                            
PGRFAMCHA991201175630175734000104Bill Nye - Let's Talk About Stress                                                                                     60688130                                
PROFAMCHA991201175734175826000052Great African Wildlife Rescue - Sunday at 2pm on F                                                                                                             
PROFAMCHA991201175826175907000041Honey I Shrunk the Kids (series oct) Mon & Thurs @                                                                                                             
PROFAMCHA991201175907175940000033Toothless - Saturday @ 8pm w/billboard                                                                                                                         
ID FAMCHA991201175940180000000020Prime time open count down                                                                                                                                     
PGRFAMCHA991201180000182405002405Clarissa                                          Hero Worship                                                         2068607B                                
ID FAMCHA991201182405182420000015Interactive bumper w/URL                                                                                                                                       
ID FAMCHA991201182420182425000005Generic ID - Couch 2                                                                                                                                           
PRCFAMCHA991201182425182435000010Morning Block menu background (flex time)                                                                                                                      
PROFAMCHA991201182435182553000118Toothless Video - Saturday, Dec.4th @ 8pm                                                                                                                      
PRCFAMCHA991201182553182615000022Are You Afraid of the Dark - Tonight @ 11pm (oct1)                                                                                                             
PRCFAMCHA991201182615182703000048Ripley's BION - Fridays @ 6:00pm (oct1)                                                                                                                        
PRCFAMCHA991201182703182734000031Contest - WOW Canada                                                                                                                                           
PROFAMCHA991201182734182815000041Honey I Shrunk the Kids (series oct) Mon & Thurs @                                                                                                             
PROFAMCHA991201182815182855000040Microsoap-Next (oct)                                                                                                                                           
PROFAMCHA991201182855182940000045Wish Upon a Star - Friday at 8pm with Billboard                                                                                                                
ID FAMCHA991201182940183000000020Prime time open count down                                                                                                                                     
PGRFAMCHA991201183000185342002342Microsoap                                         1-010                                                                6028607A                                
ID FAMCHA991201185342185357000015Interactive bumper w/URL                                                                                                                                       
ID FAMCHA991201185357185407000010Generic ID - Pink inner tube                                                                                                                                   
PRCFAMCHA991201185407185415000008Morning Block menu background (flex time)                                                                                                                      
PROFAMCHA991201185415185457000042Gargoyles-Next (Oct 1)                                                                                                                                         
PRCFAMCHA991201185457185519000022Are You Afraid of the Dark - Tonight @ 11pm (oct1)                                                                                                             
PRCFAMCHA991201185519185550000031Contest - WOW Canada                                                                                                                                           
PGRFAMCHA991201185550185805000215Disney Circle Time - Endless Story (anywhere but D                                                                     60688130                                
PRCFAMCHA991201185805185853000048Ripley's BION - Fridays @ 6:00pm (oct1)                                                                                                                        
PROFAMCHA991201185853185908000015Doug - Weekdays @ 5:00 pm (oct1)                                                                                                                               
PROFAMCHA991201185908185940000032Sherlock Holmes - Tonight @ midnight (oct)                                                                                                                     
ID FAMCHA991201185940190000000020Prime time open count down                                                                                                                                     
PGRFAMCHA991201190000192301002301Gargoyles                                         High Noon                                                            6068607E                                
ID FAMCHA991201192301192316000015Interactive bumper w/URL                                                                                                                                       
ID FAMCHA991201192316192321000005Generic ID - Marbles                                                                                                                                           
PROFAMCHA991201192321192354000033Toothless - Saturday @ 8pm w/billboard                                                                                                                         
PRCFAMCHA991201192354192416000022Are You Afraid of the Dark - Next (oct1)                                                                                                                       
PROFAMCHA991201192416192448000032Sherlock Holmes - Tonight @ midnight (oct)                                                                                                                     
PROFAMCHA991201192448192528000040Microsoap-Sunday @ 8:30am (oct)                                                                                                                                
PRCFAMCHA991201192528192559000031Contest - WOW Canada                                                                                                                                           
PGRFAMCHA991201192559192729000130Disney Circle Time - Growing Smiles (anywhere but                                                                      60688130                                
PROFAMCHA991201192729192748000019So Weird - Friday @ 7:00 pm (oct1 )                                                                                                                            
PROFAMCHA991201192748192829000041Honey I Shrunk the Kids (series oct) Mon & Thurs @                                                                                                             
PROFAMCHA991201192829192940000111Wish Upon A Star (video)                                                                                                                                       
ID FAMCHA991201192940193000000020Prime time open count down                                                                                                                                     
PGRFAMCHA991201193000195412002412Are You Afraid Of The Dark?                       The Tale of the Prom Queen                                    SR0302 1066807A                                
ID FAMCHA991201195412195427000015Interactive bumper w/URL                                                                                                                                       
ID FAMCHA991201195427195432000005Generic ID - Fingerpaint                                                                                                                                       
PRCFAMCHA991201195432195440000008Morning Block menu background (flex time)                                                                                                                      
PROFAMCHA991201195440195551000111Wish Upon A Star (video)                                                                                                                                       
PROFAMCHA991201195551195623000032Sherlock Holmes - Tonight @ midnight (oct)                                                                                                                     
PROFAMCHA991201195623195705000042Gargoyles-Tonight @ 11:30 pm (Oct 1)                                                                                                                           
PROFAMCHA991201195705195746000041Honey I Shrunk the Kids (series oct) Mon & Thurs @                                                                                                             
PRCFAMCHA991201195746195817000031Contest - WOW Canada                                                                                                                                           
PROFAMCHA991201195817195856000039Goof Troop - Monday to Friday @ 3pm                                                                                                                            
PROFAMCHA991201195856195917000021Recess - Weekdays @ 5:30 pm (oct1)                                                                                                                             
PROFAMCHA991201195917195950000033Toothless - Saturday @ 8pm w/billboard                                                                                                                         
ID FAMCHA991201195950200000000010Prime time open top of hour                                                                                                                                    
PROFAMCHA991201200000200005000005CC Disclaimer (oct) **DO NOT USE**                                                                                                                             
PGRFAMCHA991201200005202705002700Friends For Life: Living With AIDS                                                                                    B60288110CC                              
ID FAMCHA991201202705202720000015Interactive bumper w/URL                                                                                                                                       
ID FAMCHA991201202720202735000015Generic ID - confetti                                                                                                                                          
PRCFAMCHA991201202735202745000010Morning Block menu background (flex time)                                                                                                                      
PROFAMCHA991201202745202818000033Toothless - Saturday @ 8pm w/billboard                                                                                                                         
PROFAMCHA991201202818202833000015Doug - Weekdays @ 5:00 pm (oct1)                                                                                                                               
PRCFAMCHA991201202833202855000022Are You Afraid of the Dark - Tonight @ 11pm (oct1)                                                                                                             
PROFAMCHA991201202855202940000045Wish Upon a Star - Friday at 8pm with Billboard                                                                                                                
ID FAMCHA991201202940203000000020Move open family size movie                                                                                                                                    
PROFAMCHA991201203000203007000007Rating - G (oct )                                                                                                                                              
PROFAMCHA991201203007203012000005CC Disclaimer (oct) **DO NOT USE**                                                                                                                             
ID FAMCHA991201203012203022000010Presentation bumper - Magic of Disney                                                                                                                          
PGRFAMCHA991201203022223636020614Swiss Family Robinson                                                                                                 A6068807DCC                              
ID FAMCHA991201223636223641000005Generic ID - Marbles                                                                                                                                           
PROFAMCHA991201223641223646000005CC Disclaimer (oct) **DO NOT USE**                                                                                                                             
PGRFAMCHA991201223646230346002700Friends For Life: Living With AIDS                                                                                    B60688110CC                              
ID FAMCHA991201230346230351000005Generic ID - Couch 1                                                                                                                                           
PGRFAMCHA991201230351232823002432Are You Afraid Of The Dark?                       The Tale of the Captured Souls                                SR0302 1066807A                                
ID FAMCHA991201232823232838000015Interactive bumper w/URL                                                                                                                                       
ID FAMCHA991201232838232843000005Generic ID - Marbles                                                                                                                                           
PROFAMCHA991201232843232858000015Doug - Weekdays @ 5:00 pm (oct1)                                                                                                                               
PROFAMCHA991201232858232940000042Gargoyles-Next (Oct 1)                                                                                                                                         
ID FAMCHA991201232940233000000020Prime time open count down                                                                                                                                     
PGRFAMCHA991201233000235250002250Gargoyles                                         Avalon - Part 3                                                      6028607E                                
ID FAMCHA991201235250235305000015Interactive bumper w/URL                                                                                                                                       
ID FAMCHA991201235305235310000005Generic ID - Fingerpaint                                                                                                                                       
PROFAMCHA991201235310235421000111Wish Upon A Star (video)                                                                                                                                       
PRCFAMCHA991201235421235443000022Are You Afraid of the Dark - Weeknights @ 7:30pm (                                                                                                             
PRCFAMCHA991201235443235516000033Hoze Houndz - Saturday @ 7:00pm                                                                                                                                
PROFAMCHA991201235516235557000041Honey I Shrunk the Kids (series oct) Mon & Thurs @                                                                                                             
PGRFAMCHA991201235557235835000238MV Disney - Lion King 2: We are One (oct)                                                                              60688130                                
PROFAMCHA991201235835235907000032Sherlock Holmes - Next (oct)                                                                                                                                   
PROFAMCHA991201235907235940000033Toothless - Saturday @ 8pm w/billboard                                                                                                                         
ID FAMCHA991201235940000000000020Prime time open count down                                                                                                                                     
PROFAMCHA991201000000000005000005CC Disclaimer (oct) **DO NOT USE**                                                                                                                             
PGRFAMCHA991201000005002218002213Sherlock Holmes In The 22nd Century               1-010                                                                6068607ECC                              
ID FAMCHA991201002218002233000015Interactive bumper w/URL                                                                                                                                       
ID FAMCHA991201002233002238000005Generic ID - Couch 1                                                                                                                                           
PROFAMCHA991201002238002356000118Toothless Video - Saturday, Dec.4th @ 8pm                                                                                                                      
PROFAMCHA991201002356002426000030Get Warped Fridays - Starts at 6pm on Friday (oct)                                                                                                             
PROFAMCHA991201002426002456000030Crash Zone - Saturday @10 am                                                                                                                                   
PGRFAMCHA991201002456002721000225MV Disney - T&P - Yummy,Yummy,Yummy                                                                                    60688130                                
PROFAMCHA991201002721002802000041Honey I Shrunk the Kids (series oct) Mon & Thurs @                                                                                                             
PROFAMCHA991201002802002823000021Recess - Weekdays @ 5:30 pm (oct1)                                                                                                                             
PROFAMCHA991201002823002905000042Gargoyles-Tuesdays and Wednesdays @ 7:00 pm (Oct 1                                                                                                             
PROFAMCHA991201002905002950000045Wish Upon a Star - Friday at 8pm with Billboard                                                                                                                
ID FAMCHA991201002950003000000010Prime time open top of hour                                                                                                                                    
PGRFAMCHA991201003000005448002448Spellbinder: The Land Of The Dragon Lord          1-048                                                                7068807A                                
ID FAMCHA991201005448005503000015Interactive bumper w/URL                                                                                                                                       
ID FAMCHA991201005503005513000010Generic ID - Ring around the rosie                                                                                                                             
PROFAMCHA991201005513005624000111Wish Upon A Star (video)                                                                                                                                       
PROFAMCHA991201005624005651000027Recess - Weekdays @ 5:30 pm (oct1)                                                                                                                             
PGRFAMCHA991201005651010200000509Plasmo #6                                                                                                              70688130                                
SO FAMCHA991201010200010212000012Sign Off (oct 1)                                                                                                                                               
OFFFAMCHA991201010212043000032748                                                                                                                                                               
OFFFAMCHA991202043000060000013000                                                                                                                                                               
SO FAMCHA991202060000060011000011Sign On (oct 1)                                                                                                                                                
PROFAMCHA991202060011060016000005CC Disclaimer (oct) **DO NOT USE**                                                                                                                             
PGRFAMCHA991202060016062416002400Hello Mrs. Cherrywinkle                           Mrs. C TV                                                     B18888A1065607ACC                              
ID FAMCHA991202062416062431000015Interactive bumper w/URL                                                                                                                                       
ID FAMCHA991202062431062436000005Generic ID - soccer **DO NOT USE**                                                                                                                             
PROFAMCHA991202062436062509000033Toothless - Saturday @ 8pm w/billboard                                                                                                                         
PRCFAMCHA991202062509062609000100Contest - What's Franklin Doing Now?                                                                                                                           
PROFAMCHA991202062609062714000105Adventures of Gummi Bears-Today @ 8am on Family (o                                                                                                             
PRCFAMCHA991202062714062744000030Franklin-weekdays @ 7:00am (oct 1)                                                                                                                             
PROFAMCHA991202062744062829000045PB&J Otter - Tuesday and Thursday @ 11:30am (oct 1                                                                                                             
PROFAMCHA991202062829062940000111Wish Upon A Star (video)                                                                                                                                       
ID FAMCHA991202062940063000000020Morning block open play pen                                                                                                                                    
PROFAMCHA991202063000063005000005CC Disclaimer (oct) **DO NOT USE**                                                                                                                             
PGRFAMCHA991202063005065415002410Busy World Of Richard Scarry; The                 Dad's Neat Job                                                P24302 1165607ECC                              
ID FAMCHA991202065415065430000015Interactive bumper w/URL                                                                                                                                       
ID FAMCHA991202065430065435000005Generic ID - Bubbles                                                                                                                                           
PRCFAMCHA991202065435065447000012Morning Block menu background (flex time)                                                                                                                      
PROFAMCHA991202065447065558000111Wish Upon A Star (video)                                                                                                                                       
PRCFAMCHA991202065558065658000100Contest - What's Franklin Doing Now?                                                                                                                           
PROFAMCHA991202065658065728000030Madeline - 8:30am on Saturday (oct)                                                                                                                            
PROFAMCHA991202065728065807000039Goof Troop - Today @ 3pm                                                                                                                                       
PROFAMCHA991202065807065837000030Out of The Box - Tuesday and Thursday @ 8:30am (oc                                                                                                             
PRCFAMCHA991202065837065907000030Franklin-next (oct 1)                                                                                                                                          
PROFAMCHA991202065907065940000033Toothless - Saturday @ 8pm w/billboard                                                                                                                         
ID FAMCHA991202065940070000000020Morning block open play pen                                                                                                                                    
PROFAMCHA991202070000070005000005CC Disclaimer (oct) **DO NOT USE**                                                                                                                             
PGRFAMCHA991202070005072258002253Franklin                                          Franklin Takes A Trip/Franklin's Bicycle Helmet               B13646 1065607ECC                              
ID FAMCHA991202072258072313000015Interactive bumper w/URL                                                                                                                                       
ID FAMCHA991202072313072328000015Generic ID - confetti                                                                                                                                          
PRCFAMCHA991202072328072342000014Morning Block menu background (flex time)                                                                                                                      
PROFAMCHA991202072342072415000033Toothless - Saturday @ 8pm w/billboard                                                                                                                         
PRCFAMCHA991202072415072515000100Contest - What's Franklin Doing Now?                                                                                                                           
PGRFAMCHA991202072515072700000145Disney Circle Time - The Milkmaids Pail (anywhere                                                                      60688130                                
PROFAMCHA991202072700072800000100Morning Block - Generic                                                                                                                                        
PROFAMCHA991202072800072839000039Goof Troop - Next                                                                                                                                              
PROFAMCHA991202072839072950000111Wish Upon A Star (video)                                                                                                                                       
ID FAMCHA991202072950073000000010Presentation bumper - Magic of Disney                                                                                                                          
PROFAMCHA991202073000073005000005CC Disclaimer (oct) **DO NOT USE**                                                                                                                             
PGRFAMCHA991202073005075251002246Goof Troop                                        Pistolgeist                                                          6068607ECC                              
ID FAMCHA991202075251075306000015Interactive bumper w/URL                                                                                                                                       
ID FAMCHA991202075306075316000010Generic ID - confetti                                                                                                                                          
PRCFAMCHA991202075316075326000010Morning Block menu background (flex time)                                                                                                                      
PROFAMCHA991202075326075437000111Wish Upon A Star (video)                                                                                                                                       
PRCFAMCHA991202075437075537000100Contest - What's Franklin Doing Now?                                                                                                                           
PROFAMCHA991202075537075607000030Out of The Box - Tuesday and Thursday @ 8:30am (oc                                                                                                             
PGRFAMCHA991202075607075737000130Big Garage, "stop" - Breaking All The Rules                                                                     P21457 10656130                                
PRCFAMCHA991202075737075812000035Little Lulu Show; The - Weekdays @ 1:00pm (oct1)                                                                                                               
PROFAMCHA991202075812075917000105Adventures of Gummi Bears-Next on Family (oct)                                                                                                                 
PROFAMCHA991202075917075950000033Toothless - Saturday @ 8pm w/billboard                                                                                                                         
ID FAMCHA991202075950080000000010Presentation bumper - Magic of Disney                                                                                                                          
PROFAMCHA991202080000080005000005CC Disclaimer (oct) **DO NOT USE**                                                                                                                             
PGRFAMCHA991202080005082233002228Adventures of the Gummi Bears; The                Rocking Chair Bear                                                   6068607ECC                              
ID FAMCHA991202082233082248000015Interactive bumper w/URL                                                                                                                                       
ID FAMCHA991202082248082253000005Generic ID - Couch 1                                                                                                                                           
PRCFAMCHA991202082253082303000010Morning Block menu background (flex time)                                                                                                                      
PROFAMCHA991202082303082336000033Toothless - Saturday @ 8pm w/billboard                                                                                                                         
PRCFAMCHA991202082336082436000100Contest - What's Franklin Doing Now?                                                                                                                           
PROFAMCHA991202082436082506000030Madeline - 8:30am on Saturday (oct)                                                                                                                            
PGRFAMCHA991202082506082614000108Disney Moments - Cinderella-Bibbidi Bobbidi Boo                                                                        60688130                                
PROFAMCHA991202082614082714000100Morning Block - Generic                                                                                                                                        
PROFAMCHA991202082714082759000045PB&J Otter - Tuesday and Thursday @ 11:30am (oct 1                                                                                                             
PROFAMCHA991202082759082829000030Out of The Box - Next (oct1)                                                                                                                                   
PROFAMCHA991202082829082940000111Wish Upon A Star (video)                                                                                                                                       
ID FAMCHA991202082940083000000020Morning block open play pen                                                                                                                                    
PGRFAMCHA991202083000085325002325Out of the Box                                    Pick a Pet                                                           60686110                                
ID FAMCHA991202085325085340000015Interactive bumper w/URL                                                                                                                                       
ID FAMCHA991202085340085345000005Generic ID - Couch 2                                                                                                                                           
PRCFAMCHA991202085345085355000010Morning Block menu background (flex time)                                                                                                                      
PROFAMCHA991202085355085506000111Wish Upon A Star (video)                                                                                                                                       
PROFAMCHA991202085506085551000045PB&J Otter - Tuesday and Thursday @ 11:30am (oct 1                                                                                                             
PGRFAMCHA991202085551085648000057Frankenguy and the Professor - pilot                                                                                   60688130                                
PROFAMCHA991202085648085727000039Goof Troop - Today @ 3pm                                                                                                                                       
PRCFAMCHA991202085727085827000100Contest - What's Franklin Doing Now?                                                                                                                           
PROFAMCHA991202085827085900000033Toothless - Saturday @ 8pm w/billboard                                                                                                                         
PRCFAMCHA991202085900090000000100Morning Block - Babar next/Nilus/Katie                                                                                                                         
PROFAMCHA991202090000090005000005CC Disclaimer (oct) **DO NOT USE**                                                                                                                             
PGRFAMCHA991202090005092319002314Babar                                             Every Basket Has A Silver Lining                              C07575 1065607ECC                              
ID FAMCHA991202092319092334000015Interactive bumper w/URL                                                                                                                                       
ID FAMCHA991202092334092344000010Generic ID - Family w/dog                                                                                                                                      
PRCFAMCHA991202092344092400000016Morning Block menu background (flex time)                                                                                                                      
PROFAMCHA991202092400092500000100Morning Block - Nilus next/Katie/Billy                                                                                                                         
PROFAMCHA991202092500092505000005CC Disclaimer (oct) **DO NOT USE**                                                                                                                             
PGRFAMCHA991202092505094840002335Nilus The Sandman                                 Loose Change                                                  B06991 1065607ECC                              
ID FAMCHA991202094840094855000015Interactive bumper w/URL                                                                                                                                       
ID FAMCHA991202094855094900000005Generic ID - Fingerpaint                                                                                                                                       
PRCFAMCHA991202094900094908000008Morning Block menu background (flex time)                                                                                                                      
PROFAMCHA991202094908095000000052Great African Wildlife Rescue - Sunday at 2pm on F                                                                                                             
PROFAMCHA991202095000095100000100Morning Block - Katie next/Billy/Busy World                                                                                                                    
PROFAMCHA991202095100095105000005CC Disclaimer (oct) **DO NOT USE**                                                                                                                             
PGRFAMCHA991202095105101740002635Katie And Orbie                                   Flying High/The Block Castle/Wet!                             C12449 1065607ECC                              
PROFAMCHA991202101740101840000100Morning Block - Billy next/Busy World/Art Attack                                                                                                               
PROFAMCHA991202101840101845000005CC Disclaimer (oct) **DO NOT USE**                                                                                                                             
PGRFAMCHA991202101845104307002422Billy The Cat                                     Wok On The Wild Side                                          B27653A1065607ECC                              
PROFAMCHA991202104307104407000100Morning Block - Busy World next/Art Attack                                                                                                                     
PROFAMCHA991202104407104412000005CC Disclaimer (oct) **DO NOT USE**                                                                                                                             
PGRFAMCHA991202104412110822002410Busy World Of Richard Scarry; The                 Denys At Camp                                                 P24303 1165607ECC                              
PROFAMCHA991202110822110922000100Morning Block - Art Attack next                                                                                                                                
PGRFAMCHA991202110922112928002006Art Attack                                        1-104                                                                60686110                                
PROFAMCHA991202112928113028000100Morning Block - Generic                                                                                                                                        
PROFAMCHA991202113028113033000005CC Disclaimer (oct) **DO NOT USE**                                                                                                                             
PGRFAMCHA991202113033115403002330PB&J Otter                                        Practice Makes Perfect/Three's A Crowd                              A6068607ECC                              
ID FAMCHA991202115403115418000015Interactive bumper w/URL                                                                                                                                       
ID FAMCHA991202115418115428000010Generic ID - soccer **DO NOT USE**                                                                                                                             
PRCFAMCHA991202115428115439000011Morning Block menu background (flex time)                                                                                                                      
PROFAMCHA991202115439115512000033Toothless - Saturday @ 8pm w/billboard                                                                                                                         
PRCFAMCHA991202115512115612000100Contest - What's Franklin Doing Now?                                                                                                                           
PROFAMCHA991202115612115634000022Disney's One Too - Today @ 4:30 (Oct 1)                                                                                                                        
PGRFAMCHA991202115634115731000057Frankenguy and the Professor - dog                                                                                     60688130                                
PRCFAMCHA991202115731115804000033Hoze Houndz - Saturday @ 7:00pm                                                                                                                                
PROFAMCHA991202115804115839000035Lion King's Timon & Pumbaa - next (OCT 1)                                                                                                                      
PROFAMCHA991202115839115950000111Wish Upon A Star (video)                                                                                                                                       
ID FAMCHA991202115950120000000010Presentation bumper - Magic of Disney                                                                                                                          
PGRFAMCHA991202120000122245002245Lion King's Timon & Pumbaa; The                   One Tough Bug/Pirates of Penzance                                    6068607E                                
ID FAMCHA991202122245122300000015Interactive bumper w/URL                                                                                                                                       
ID FAMCHA991202122300122305000005Generic ID - soccer **DO NOT USE**                                                                                                                             
PRCFAMCHA991202122305122316000011Morning Block menu background (flex time)                                                                                                                      
PROFAMCHA991202122316122427000111Wish Upon A Star (video)                                                                                                                                       
PROFAMCHA991202122427122506000039Goof Troop - Today @ 3pm                                                                                                                                       
PROFAMCHA991202122506122558000052Great African Wildlife Rescue - Sunday at 2pm on F                                                                                                             
PGRFAMCHA991202122558122758000200Disney Circle Time - The Greedy Dog (anywhere but                                                                      60688130                                
PRCFAMCHA991202122758122831000033Hoze Houndz - Saturday @ 7:00pm                                                                                                                                
PROFAMCHA991202122831122912000041Honey I Shrunk the Kids (series oct) tonight @ 6pm                                                                                                             
PROFAMCHA991202122912122945000033Toothless - Saturday @ 8pm w/billboard                                                                                                                         
ID FAMCHA991202122945123000000015Afternoon block pinball open **DO NOT USE**                                                                                                                    
PGRFAMCHA991202123000125335002335Clarissa                                          A Little Romance                                                     2068607B                                
ID FAMCHA991202125335125350000015Interactive bumper w/URL                                                                                                                                       
ID FAMCHA991202125350125405000015Generic ID - confetti                                                                                                                                          
PRCFAMCHA991202125405125414000009Morning Block menu background (flex time)                                                                                                                      
PROFAMCHA991202125414125447000033Toothless - Saturday @ 8pm w/billboard                                                                                                                         
PRCFAMCHA991202125447125521000034Misguided Angels-Tonight @ 6:45pm (oct1)                                                                                                                       
PROFAMCHA991202125521125543000022Hercules - Today @ 4:30 pm (oct 1)                                                                                                                             
PGRFAMCHA991202125543125654000111Mix Ups - Spring cleaning                                                                                              60688130                                
PROFAMCHA991202125654125729000035Lion King's Timon & Pumbaa - wkdays @ 4pm (OCT 1)                                                                                                              
PROFAMCHA991202125729125759000030Crash Zone - Saturday @10 am                                                                                                                                   
PRCFAMCHA991202125759125834000035Little Lulu Show; The - Next (oct1)                                                                                                                            
PROFAMCHA991202125834125945000111Wish Upon A Star (video)                                                                                                                                       
ID FAMCHA991202125945130000000015Afternoon block pinball open w/burp                                                                                                                            
PROFAMCHA991202130000130005000005CC Disclaimer (oct) **DO NOT USE**                                                                                                                             
PGRFAMCHA991202130005132357002352Little Lulu Show; The                             Detective Story/Swan Shot Pops/The Old Master                 B03817A1065607ECC                              
